
Source Code


000002:                                                                                                  ## Copyright:   Public domain.
000003:                                                                                                  ## Filename:    TIME_OF_FREE_FALL.agc
000004:                                                                                                  ## Purpose:     Part of the source code for Colossus, build 249.
000005:                                                                                                  ##              It is part of the source code for the Command Module's (CM)
000006:                                                                                                  ##              Apollo Guidance Computer (AGC), for Apollo 9.
000007:                                                                                                  ## Assembler:   yaYUL
000008:                                                                                                  ## Reference:   Begins on p. 1341
000009:                                                                                                  ## Contact:     Ron Burkey <info@sandroid.org>.
000010:                                                                                                  ## Website:     www.ibiblio.org/apollo.
000011:                                                                                                  ## Mod history: 08/30/04 RSB.   Began adapting from corresponding Luminary131 file.
000012:                                                                                                  ##              2010-10-24 JL   Indentation fixes.
000013:                                                                                                  ##              2017-01-06 RSB  Page numbers now agree with those on the
000014:                                                                                                  ##                              original hardcopy, as opposed to the PDF page
000015:                                                                                                  ##                              numbers in 1701.pdf.
000016:                                                                                                  ##              2017-01-20 RSB  Cross-diff'd comment text (not whitespace)
000017:                                                                                                  ##                              vs the already-proofed corresponding Colossus
000018:                                                                                                  ##                              237 and Comanche 55 source-code files
000019:                                                                                                  ##                              and corrected errors found.
000020:                                                                                                  ##              2017-03-14 RSB  Comment-text fixes noted in proofing Luminary 116.
000021:
000022:                                                                                                  ## The contents of the "Colossus249" files, in general, are transcribed
000023:                                                                                                  ## from a scanned copy of the program listing.  Notations on this
000024:                                                                                                  ## document read, in part:
000025:                                                                                                  ##
000026:                                                                                                  ##      Assemble revision 249 of AGC program Colossus by NASA
000027:                                                                                                  ##      2021111-041.  October 28, 1968.
000028:                                                                                                  ##
000029:                                                                                                  ##      This AGC program shall also be referred to as
000030:                                                                                                  ##                              Colossus 1A
000031:                                                                                                  ##
000032:                                                                                                  ##      Prepared by
000033:                                                                                                  ##                      Massachusetts Institute of Technology
000034:                                                                                                  ##                      75 Cambridge Parkway
000035:                                                                                                  ##                      Cambridge, Massachusetts
000036:                                                                                                  ##      under NASA contract NAS 9-4065.
000037:                                                                                                  ##
000038:                                                                                                  ## Refer directly to the online document mentioned above for further information.
000039:                                                                                                  ## Please report any errors (relative to the scanned pages) to info@sandroid.org.
000040:                                                                                                  ##
000041:                                                                                                  ## In some cases, where the source code for Luminary 131 overlaps that of
000042:                                                                                                  ## Colossus 249, this code is instead copied from the corresponding Luminary 131
000043:                                                                                                  ## source file, and then is proofed to incorporate any changes.
000044:


000046:                                                                                                  #  THE TFF SUBROUTINES MAY BE USED IN EITHER EARTH OR MOON CENTERED COORDINATES.  THE TFF ROUTINES NEVER
000047:                                                                                                  #  KNOW WHICH ORIGIN APPLIES.  IT IS THE USER WHO KNOWS, AND WHO SUPPLIES RONE, VONE AND 1/SQRT(MU) AT THE
000048:                                                                                                  #  APPROPRIATE SCALE LEVEL FOR THE PROPER PRIMARY BODY.
000049:
000050:                                                                                                  #        EARTH ORIGIN    POSITION        -29     METERS
000051:                                                                                                  #                        VELOCITY        -7      METERS/CENTISECOND
000052:                                                                                                  #                        1/SQRT(MU)      +17     SQRT(CS SQ/METERS CUBED)
000053:
000054:                                                                                                  #        MOON ORIGIN     POSITION        -27     METERS
000055:                                                                                                  #                        VELOCITY        -5      METERS/CENTISECONDS
000056:                                                                                                  #                        1/SQRT(MU)      +14     SQRT(CS SQ/METERS CUBED)
000057:
000058:                                                                                                  #  ALL DATA PROVIDED TO AND RECEIVED FROM ANY TFF SUBROUTINE WILL BE AT ONE OF THE LEVELS ABOVE.  IN ALL CASES,
000059:                                                                                                  #  THE FREE FALL TIME IS RETURNED IN CENTISECONDS AT (-28).  PROGRAM TFF/CONIC WILL GENERATE VONE/RTMU AND
000060:                                                                                                  #  LEAVE IT IN VONE' AT (+10) IF EARTH ORIGIN AND (+9) IF MOON ORIGIN.
000061:
000062:                                                                                                  #  THE USER MUST STORE THE STATE VECTOR IN RONE, VONE AND MU IN THE FORM 1/SQRT(MU) IN TFF/RTMU
000063:                                                                                                  #  AT THE PROPER SCALE BEFORE CALLING TFF/CONIC.  SINCE RONE, VONE ARE IN THE EXTENDED VERB STORAGE AREA,
000064:                                                                                                  #  THE USER MUST ALSO LOCK OUT THE EXTENDED VERBS, AND RELEASE THEM WHEN FINISHED.
000065:
000066:                                                                                                  #  PROGRAMS CALC/TFF AND CALC/TPER ASSUME THAT THE TERMINAL RADIUS IS LESS THAN THE PRESENT
000067:                                                                                                  #  RADIUS.  THIS RESTRICTION CAN BE REMOVED BY A 15 W CODING CHANGE, BUT AT PRESENT IT IS NOT DEEMED NECESSARY.
000068:
000069:                                                                                                  #  THE FOLLOWING ERASABLE QUANTITIES ARE USED BY THE TFF ROUTINES, AND ARE LOCATED IN THE PUSH LIST.
000070:
000071:                                                                                                  #                                        BELOW   E:  IS USED FOR EARTH ORIGIN SCALE
000072:                                                                                                  #                                                M:  IS USED FOR MOON  ORIGIN SCALE
000073:
000074:                                                                                                  # TFFSW          =       119D    BIT1    0 = CALCTFF             1 = CALCTPER
000075: 23,3725                        TFFDELQ            =        10D                                   #        Q2-Q1                   E: (-16)  M: (-15)
000076: 23,3725                        RMAG1              =        12D                                   #        ABVAL(RN)  M            E: (-29)  M: (-27)
000077:                                                                                                  # RPER           =       14D             PERIGEE RADIUS  M       E: (-29)  M: (-27)
000078: 23,3725                        TFFQ1              =        14D                                   #        R.V / SQRT(MUE)         E: (-16)  M: (-15)
000079:                                                                                                  # SDELF/2                                SIN(THETA) /2
000080: 23,3725                        CDELF/2            =        14D                                   #        COS(THETA) /2
000081:                                                                                                  # RAPO           =       16D             APOGEE RADIUS  M        E: (-29)  M: (-27)
000082: 23,3725                        NRTERM             =        16D                                   #        TERMINAL RADIUS  M      E: (-29+NR)
000083:                                                                                                  #                                          M: (-27+NR)
000084: 23,3725                        RTERM              =        18D                                   #        TERMINAL RADIUS  M      E: (-29)  M: (-27)
000085: 23,3725                        TFFVSQ             =        20D                                   #        -(V SQUARED/MU)  1/M    E: (20)   M: (18)
000086: 23,3725                        TFF1/ALF           =        22D                                   #        SEMI MAJ AXIS  M        E: (-22-2 NA)
000087:                                                                                                  #                                          M: (-20-2 NA)
000088: 23,3725                        TFFRTALF           =        24D                                   #        SQRT(ALFA)              E:(10+NA) M: (9+NA)
000089: 23,3725                        TFFALFA            =        26D                                   #        ALFA  1/M               E:(26-NR) M: (24-NR)
000090: 23,3725                        TFFNP              =        28D                                   #        SEMI LATUS RECTUM  M    E: (-38+2 NR)
000091:                                                                                                  #                                          M: (-36+2 NR)
000092: 23,3725                        TFF/RTMU           =        30D                                   #        1/SQRT(MU)              E: (17)   M: (14)
000093: 23,3725                        NRMAG              =        32D                                   #        PRESENT RADIUS  M       E: (-29+NR)
000094:                                                                                                  #                                          M: (-27+NR)
000095: 23,3725                        TFFX               =        34D
000096: 23,3725                        TFFTEM             =        36D                                   #        TEMPORARY


000098:                                                                                                  #                REGISTERS S1, S2 ARE UNTOUCHED BY ANY TFF SUBROUTINE
000099:                                                                                                  #                INDEX REGISTERS X1, X2 ARE USED BY ALL TFF SUBROUTINES.  THEY ARE ESTAB-
000100:                                                                                                  #                LISHED IN TFF/CONIC AND MUST BE PRESERVED BETWEEN CALLS TO SUBSEQUENT
000101:                                                                                                  #                SUBROUTINES.
000102:                                                                                                  #                -NR                             C(X1) = NORM COUNT OF RMAG
000103:                                                                                                  #                -NA                             C(X2) = NORM COUNT OF SQRT(ABS(ALFA))
000104:


000106:                                                                                                  #  SUBROUTINE NAME:  TFFCONIC                    DATE:  01.29.67
000107:                                                                                                  #  MOD NO:  0                                    LOG SECTION:  TIME OF FREE FALL
000108:                                                                                                  #  MOD BY:  RR BAIRNSFATHER
000109:                                                                                                  #  MOD NO:  1    MOD BY:  RR BAIRNSFATHER        DATE: 11 APR 67
000110:                                                                                                  #  MOD NO:  2    MOD BY:  RR BAIRNSFATHER        DATE: 21 NOV 67         ADD MOON MU.
000111:                                                                                                  #  MOD NO:  3    MOD BY:  RR BAIRNSFATHER        DATE: 21 MAR 68         ACCEPT DIFFERENT EARTH/MOON SCALES
000112:
000113:                                                                                                  #  FUNCTIONAL DESCRIPTION:  THIS SUBROUTINE IS CALLED TO COMPUTE THOSE CONIC PARAMETERS REQUIRED BY THE TFF
000114:                                                                                                  #        SUBROUTINES AND TO ESTABLISH THEM IN THE PUSH LIST AREA.  THE PARAMETERS ARE LISTED UNDER OUTPUT.
000115:                                                                                                  #        THE EQUATIONS ARE
000116:                                                                                                  #                -   -  -
000117:                                                                                                  #                H = RN*VN                       ANGULAR MOMENTUM
000118:                                                                                                  #                      - -
000119:                                                                                                  #                LCP = H.H / MU                  SEMI LATUS RECTUM
000120:                                                                                                  #                              -  -
000121:                                                                                                  #                ALFA = 2/RN - VN.VN / MU        RECIPROCAL SEMI MAJ AXIS, SIGNED
000122:
000123:                                                                                                  #        AND ALFA IS POS FOR ELLIPTIC ORBITS
000124:                                                                                                  #                      0 FOR PARABOLIC ORBITS
000125:                                                                                                  #                    NEG FOR HYPERBOLIC ORBITS.
000126:                                                                                                  #        SUBROUTINE ALSO COMPUTES AND SAVES RMAG.
000127:
000128:                                                                                                  #  CALLING SEQUENCE:
000129:                                                                                                  #        TFFCONIC EXPECTS CALLER TO ENTER WITH CORRECT GRAVITATIONAL CONSTANT IN MPAC, IN THE FORM
000130:                                                                                                  #        1/SQRT(MU).  PROGRAM WILL SAVE IN TFF/RTMU.  THE SCALE IS DETERMINED BY WHETHER EARTH OR MOON
000131:                                                                                                  #        ORIGIN IS USED.  THE CALLER MUST LOCK OUT THE EXTENDED VERBS BEFORE PROVIDING STATE VECTOR IN RONE,
000132:                                                                                                  #        VONE AT PROPER SCALE.  THE EXTENDED VERBS MUST BE RESTORED WHEN THE CALLER IS FINISHED USING THE
000133:                                                                                                  #        TFF ROUTINES.
000134:
000135:                                                                                                  #        ENTRY POINT TFFCONMU EXPECTS THAT TFF/RTMU IS ALREADY LOADED.
000136:
000137:                                                                                                  #        TO SPECIFY MU:  DLOAD   CALL            IF MU ALREADY STORED:           CALL
000138:                                                                                                  #                                YOURMU          1/RTMU E:(17) M:(14)                    TFFCONMU
000139:                                                                                                  #                                TFFCONIC
000140:                                                                                                  #        PUSHLOC = PDL+0, ARBITRARY IF LEQ 18D
000141:
000142:                                                                                                  #  SUBROUTINES CALLED:  NONE
000143:
000144:                                                                                                  #  NORMAL EXIT MODES:  RVQ
000145:
000146:                                                                                                  #  ALARMS:  NONE
000147:
000148:                                                                                                  #  OUTPUT:       THE FOLLOWING ARE STORED IN THE PUSH LIST AREA.
000149:                                                                                                  #                RMAG1           E:(-29) M:(-27)         M  RN, PRESENT RADIUS LENGTH.
000150:                                                                                                  #                NRMAG           E:(-29+NR)              M  RMAG, NORMALIZED
000151:                                                                                                  #                                M:(-27+NR)
000152:                                                                                                  #                X1                                      -NR, NORM COUNT
000153:                                                                                                  #                TFFNP           E:(-38+2NR)             M  LCP, SEMI LATUS RECTUM, WEIGHTED BY NR.  FOR VGAMCALC
000154:                                                                                                  #                                M:(-36+2NR)
000155:                                                                                                  #                TFF/RTMU        E:(17) M:(14)           1/SQRT(MU)
000156:                                                                                                  #                TFFVSQ          E:(20) M:(18)           1/M  -(V SQ/MU):  PRESENT VELOCITY, NORMLIZED.  FOR VGAMCALC
000157:                                                                                                  #                TFFALFA         E:(26-NR)               1/M  ALFA, WEIGHTED BY NR
000158:                                                                                                  #                                M:(24-NR)
000159:                                                                                                  #                TFFRTALF        E:(10+NA)               SQRT(ALFA), NORMALIZED
000160:                                                                                                  #                                M:(9+NA)


000162:                                                                                                  #                X2                                      -NA, NORMCOUNT
000163:                                                                                                  #                TFF1/ALF        E:(-22-2NA)             SIGNED SEMI MAJ AXIS, WEIGHTED BY NA
000164:                                                                                                  #                                M:(-20-2NA)
000165:                                                                                                  #                PUSHLOC AT PDL+0
000166:
000167:                                                                                                  #        THE FOLLOWING IS STORED IN GENERAL ERASABLE
000168:                                                                                                  #                VONE'           E:(10) M:(9)            V/RT(MU), NORMALIZED VELOCITY
000169:
000170:                                                                                                  #  ERASABLE INITIALIZATION REQUIRED:
000171:                                                                                                  #                RONE            E:(-29) M:(-27)         M  STATE VECTOR         LEFT BY CALLER
000172:                                                                                                  #                VONE            E:(-7) M:(-5)           M/CS  STATE VECTOR      LEFT BY CALLER
000173:                                                                                                  #                TFF/RTMU        E:(17) M:(14)           1/RT(CS SQ/M CUBE)      IF ENTER VIA TFFCONMU.
000174:
000175:                                                                                                  #  DEBRIS:       QPRET,  PDL+0 ... PDL+3
000176:
000177: 33,3772                                           BANK     33
000178: 27,2000                                           SETLOC   TOF-FF
000179: 27,2000                                           BANK
000180:
000181: 27,2750                                           COUNT*   $$/TFF
000182:
000183: 27,2750           00037        TFFCONIC           STORE    TFF/RTMU                              #  1/SQRT(MU)    E:(17) M:(14)
000184:
000185: 27,2751           53575        TFFCONMU           VLOAD    UNIT                                  #  COME HERE WITH TFFRTMU LOADED.
000186: 27,2752           02327                                    RONE                                  #  SAVED RN.  M  E:(-29) M:(-27)
000187: 27,2753           77725                           PDDL                                           #  UR/2 TO PDL+0, +5
000188: 27,2754           00045                                    36D                                   #  MAGNITUDE
000189: 27,2755           00015                           STORE    RMAG1                                 #  M  E:(-29) M:(-27)
000190:
000191: 27,2756           77701                           NORM
000192: 27,2757           00047                                    X1                                    #  -NR
000193: 27,2760           24041                           STOVL    NRMAG                                 #  RMAG  M  E:(-29+NR) M:(-27+NR)
000194: 27,2761           02335                                    VONE                                  #  SAVED VN.  M/CS  E:(-7) M:(-5)
000195: 27,2762           77761                           VXSC
000196: 27,2763           00037                                    TFF/RTMU                              #  E:(17) M:(14)
000197: 27,2764           02372                           STORE    VONE'                                 #  VN/SQRT(MU)  E:(10) M:(9)
000198:
000199: 27,2765           47361                           VXSC     VXV
000200: 27,2766           00041                                    NRMAG                                 #  E:(-29+NR) M:(-27+NR)
000201:                                                                                                  #  UR/2 FROM PDL
000202: 27,2767           47572                           VSL1     VSQ                                   #  BEFORE:  E:(-19+NR) M:(-18+NR)
000203: 27,2770           14035                           STODL    TFFNP                                 #  LC P  M  E:(-38+2NR) M:(-36+2NR)
000204:                                                                                                  #  SAVE ALSO FOR VGAMCALC
000205: 27,2771           15322                                    TFF1/4
000206: 27,2772           63271                           DDV      PDVL                                  #  (2/RMAG)  1/M  E:(26-NR) M:(24-NR)
000207: 27,2773           00041                                    NRMAG                                 #  RMAG  M  E:(-29+NR) M:(-27+NR)
000208: 27,2774           02372                                    VONE'                                 #  SAVED VN.  E:(10) M:(9)
000209: 27,2775           57436                           VSQ      DCOMP                                 #  KEEP MPAC+2 HONEST FOR SQRT.
000210: 27,2776           00025                           STORE    TFFVSQ                                #  -(V SQ/MU)  E:(20) M:(18)
000211:                                                                                                  #  SAVE FOR VGAMCALC
000212: 27,2777           43257                           SR*      DAD


000214: 27,3000           20573                                    0          -6,1                       #  GET -VSQ/MU  E:(26-NR) M:(24-NR)
000215: 27,3001           77626                           STADR
000216:                                                                                                  #  2/RMAG  FROM PDL+2
000217: 27,3002           77744                           STORE    TFFALFA                               #  ALFA  1/M  E:(26-NR) M:(24-NR)
000218: 27,3003           41457                           SL*      PUSH                                  #  TEMP SAVE ALFA  E:(20) M:(18)
000219: 27,3004           20173                                    0          -6,1
000220: 27,3005           75446                           ABS      SQRT                                  #  E:(10) M:(9)
000221: 27,3006           77701                           NORM
000222: 27,3007           00050                                    X2                                    #  X2 = -NA
000223: 27,3010           00031                           STORE    TFFRTALF                              #  SQRT( ABS(ALFA) )  E:(10+NA) M:(9+NA)
000224: 27,3011           75316                           DSQ      SIGN                                  #  NOT SO ACCURATE, BUT OK
000225:                                                                                                  #  ALFA FROM PDL+2  E:(20) M:(18)
000226: 27,3012           55254                           BZE      BDDV                                  #  SET 1/ALFA =0, TO SHOW SMALL ALFA
000227: 27,3013           57015                                    +2
000228: 27,3014           15322                                    TFF1/4
000229: 27,3015           00027                 +2        STORE    TFF1/ALF                              #  1/ALFA  E:(-22-2NA) M:(-20-2NA)
000230: 27,3016           77616        DUMPCNIC           RVQ
000231:                                                                                                  #                        39 W


000233:                                                                                                  #  SUBROUTINE NAME:  TFFRP/RA                    DATE: 01.17.67
000234:                                                                                                  #  MOD NO:  0                                    LOG SECTION:  TIME OF FREE FALL
000235:                                                                                                  #  MOD BY:  RR BAIRNSFATHER
000236:                                                                                                  #  MOD NO:  1    MOD BY:  RR BAIRNSFATHER        DATE: 11 APR 67
000237:                                                                                                  #  MOD NO:  2    MOD BY:  RR BAIRNSFATHER        DATE: 21 MAR 68         ACCEPT DIFFERENT EARTH/MOON SCALES
000238:                                                                                                  #                                                                        ALSO IMPROVE ACCURACY OF RAPO.
000239:
000240:                                                                                                  #  FUNCTIONAL DESCRIPTION:  USED BY CALCTPER AND TFF DISPLAYS TO CALCULATE PERIGEE RADIUS AND ALSO
000241:                                                                                                  #        APOGEE RADIUS FOR A GENERAL CONIC.
000242:                                                                                                  #        PROGRAM GIVES PERIGEE RADIUS AS         APOGEE RADIUS IS GIVEN BY
000243:                                                                                                  #                RP = P/(1+E)                            RA = (1+E) / ALFA
000244:                                                                                                  #        WHERE    2
000245:                                                                                                  #                E  = 1 - P ALFA
000246:                                                                                                  #        IF RA IS NEGATIVE OR SHOWS DIVIDE OVERFLOW, THEN RA = POSMAX BECAUSE
000247:                                                                                                  #                1. APOGEE RADIUS IS NOT MEANINGFUL FOR HYPERBOLA
000248:                                                                                                  #                2. APOGEE RADIUS IS NOT DEFINED FOR PARABOLA
000249:                                                                                                  #                3. APOGEE RADIUS EXCEEDS THE SCALING FOR ELLIPSE.
000250:
000251:                                                                                                  #        THIS SUBROUTINE REQUIRES THE SIGNED RECIPROCAL SEMI MAJ AXIS, ALFA, AND SEMI LATUS RECTUM AS DATA.
000252:
000253:                                                                                                  #  CALLING SEQUENCE:     CALL
000254:                                                                                                  #                                TFFRP/RA
000255:                                                                                                  #        PUSHLOC = PDL+0, ARBITRARY IF LEQ 10D
000256:                                                                                                  #        C(MPAC) UNSPECIFIED
000257:
000258:                                                                                                  #  SUBROUTINES CALLED:   NONE
000259:
000260:                                                                                                  #  NORMAL EXIT MODE:     RVQ
000261:                                                                                                  #        IF ELLIPSE, WITHIN NORMAL SCALING, RAPO IS CORRECT.
000262:                                                                                                  #        OTHERWISE, RAPO = POSMAX.
000263:
000264:                                                                                                  #  ALARMS:       NONE
000265:
000266:                                                                                                  #  OUTPUT:       STORED IN PUSH LIST AREA.  SCALE OF OUTPUT AGREES WITH DATA SUPPLIED TO TFF/CONIC.
000267:                                                                                                  #        RPER    E:(-29) M:(-27)         M       PERIGEE RADIUS          DESTROYED BY CALCTFF/CALCTPER, TFFTRIG.
000268:                                                                                                  #        RAPO    E:(-29) M:(-27)         M       APOGEE RADIUS           WILL BE DESTROYED BY CALCTFF/CALCTPER
000269:                                                                                                  #        PUSHLOC AT PDL+0
000270:
000271:                                                                                                  #  ERASABLE INITIALIZATION REQUIRED:
000272:                                                                                                  #        TFFALFA E:(26-NR)               M       1/SEMI MAJ AXIS         LEFT BY TFFCONIC
000273:                                                                                                  #                M:(24-NR)
000274:                                                                                                  #        TFFNP   E:(-38+2NR)             M       LC P, SEMI LATUS RECTUM LEFT BY TFFCONIC
000275:                                                                                                  #                M:(-36+2NR)
000276:                                                                                                  #        X1                              -NR, NORM COUNT OF RMAG         LEFT BY TFFCONIC
000277:                                                                                                  #        X2                              -NA, NORM COUNT OF ALFA         LEFT BY TFFCONIC
000278:
000279:                                                                                                  #  DEBRIS:       QPRET, PDL+0 ... PDL+1
000280:


000282: 27,3017                        RAPO               =        16D                                   #  APOGEE RADIUS  M  E:(-29) M:(-27)
000283: 27,3017                        RPER               =        14D                                   #  PERIGEE RADIUS  M  E:(-29) M:(-27)
000284:
000285: 27,3017           41345        TFFRP/RA           DLOAD    DMP
000286: 27,3020           00033                                    TFFALFA                               #  ALFA  1/M  E:(26-NR) M:(24-NR)
000287: 27,3021           00035                                    TFFNP                                 #  LC P  M E:(-38+2NR) M:(-36+2NR)
000288: 27,3022           57457                           SR*      DCOMP                                 #  ALFA P (-12+NR)
000289: 27,3023           20571                                    0          -8D,1                      #  ALFA P (-4)
000290: 27,3024           51415                           DAD      ABS                                   #  (DCOMP GIVES VALID TP RESULT FOR SQRT)
000291:                                                                                                  #  (ABS PROTECTS SQRT IF E IS VERY NEAR 0)
000292: 27,3025           17357                                    DP2(-4)
000293: 27,3026           43366                           SQRT     DAD                                   #  E SQ = (1- P ALFA) (-4)
000294: 27,3027           15322                                    TFF1/4
000295: 27,3030           55206                           PUSH     BDDV                                  #  (1+E)  (-2)  TO PDL+0
000296: 27,3031           00035                                    TFFNP                                 #  LCP  M  E:(-38+2NR) M:(-36+2NR)
000297: 27,3032           53657                           SR*      SR*                                   #  (DOES SR THEN SL TO AVOID OVFL)
000298: 27,3033           20601                                    0,1                                   #  X1=-NR
000299: 27,3034           20572                                    0          -7,1                       #  (EFFECTIVE SL)
000300: 27,3035           14017                           STODL    RPER                                  #  PERIGEE RADIUS  M  E:(-29) M:(-27)
000301:                                                                                                  #  (1+E)  (-2)  FROM PDL+0
000302: 27,3036           41005                           DMP      BOVB
000303: 27,3037           00027                                    TFF1/ALF                              #  E:(-22-2NA) M:(-20-2NA)
000304: 27,3040           57343                                    TCDANZIG                              #  CLEAR OVFIND, IF ON.
000305: 27,3041           53654                           BZE      SL*
000306: 27,3042           57051                                    MAXRA                                 #  SET POSMAX, IF ALFA=0
000307: 27,3043           57603                                    0          -5,2                       #  -5+NA
000308: 27,3044           40057                           SL*      BOV
000309: 27,3045           57576                                    0,2
000310: 27,3046           57051                                    MAXRA                                 #  SET POSMAX IF OVFL.
000311: 27,3047           77644                           BPL                                            #  CONTINUE WITH VALID RAPO.
000312: 27,3050           57053                                    +3
000313: 27,3051           77745        MAXRA              DLOAD                                          #  RAPO CALC IS NOT VALID.  SET RAPO =
000314: 27,3052           17363                                    NEARONE                               #  POSMAX AS A TAG.
000315: 27,3053           00021                 +3        STORE    RAPO                                  #  APOGEE RADIUS  M  E:(-29) M:(-27)
000316: 27,3054           77616        DUMPRPRA           RVQ
000317:                                                                                                  #                        30 W


000319:                                                                                                  #  SUBROUTINE NAME:  CALCTPER / CALCTFF          DATE:  01.29.67
000320:                                                                                                  #  MOD NO:  0                                    LOG SECTION:  TIME OF FREE FALL
000321:                                                                                                  #  MOD BY:  RR BAIRNSFATHER
000322:                                                                                                  #  MOD NO:  1    MOD BY:  RR BAIRNSFATHER        DATE: 21 MAR 67
000323:                                                                                                  #  MOD NO:  2    MOD BY:  RR BAIRNSFATHER        DATE: 14 APR 67
000324:                                                                                                  #  MOD NO:  3    MOD BY:  RR BAIRNSFATHER        DATE: 8 JUL 67          NEAR EARTH MUE AND NEG TFF (GONEPAST)
000325:                                                                                                  #  MOD NO:  4    MOD BY:  RR BAIRNSFATHER        DATE: 21 NOV 67         ADD VARIABLE MU.
000326:                                                                                                  #  MOD NO:  5    MOD BY:  RR BAIRNSFATHER        DATE: 21 MAR 68         ACCEPT DIFFERENT EARTH/MOON SCALES
000327:
000328:                                                                                                  #  FUNCTIONAL DESCRIPTION:  PROGRAM CALCULATES THE FREE-FALL TIME OF FLIGHT FROM PRESENT POSITION RN AND
000329:                                                                                                  #        VELOCITY VN TO A RADIUS LENGTH SPECIFIED BY RTERM, SUPPLIED BY THE USER.  THE POSITION VECTOR
000330:                                                                                                  #        RN MAY BE ON EITHER SIDE OF THE CONIC, BUT RTERM IS CONSIDERED ON THE INBOUND SIDE.
000331:                                                                                                  #        THE EQUATIONS ARE
000332:
000333:                                                                                                  #                Q2 = -SQRT(RTERM (2-RTERM ALFA) - LCP)  (INBOUND SIDE)) LEQ +- LCE/SQRT(ALFA)
000334:                                                                                                  #                     -  -
000335:                                                                                                  #                Q1 = RN.VN / SQRT(MU)                                   LEQ +- LCE/SQRT(ALFA)
000336:
000337:                                                                                                  #                Z = NUM / DEN                                           LEQ +- 1/SQRT(ALFA)
000338:
000339:                                                                                                  #        WHERE, IF INBOUND
000340:                                                                                                  #                NUM = RTERM -RN                                         LEQ +- 2 LCE/ALFA
000341:                                                                                                  #                DEN = Q2+Q1                                             LEQ +- 2 LCE/SQRT(ALFA)
000342:
000343:                                                                                                  #        AND, IF OUTBOUND
000344:                                                                                                  #                NUM = Q2-Q1                                             LEQ +- 2 LCE/SQRT(ALFA)
000345:                                                                                                  #                DEN = 2 - ALFA (RTERM + RN).                            LEQ +- 2 LCE
000346:
000347:                                                                                                  #        IF      ALFA ZZ < 1.0           (FOR ALL CONICS EXCEPT ELLIPSES HAVING ABS(DEL ECC ANOM) G 90 DEG)
000348:                                                                                                  #        THEN    X = ALFA Z Z
000349:                                                                                                  #        AND     TFF = (RTERM +RN -2 ZZ T(X) ) Z/SQRT(MU)
000350:                                                                                                  #                EXCEPT  IF ALFA PNZ, AND IF TFF NEG,
000351:                                                                                                  #                THEN    TFF = 2 PI /(ALFA SQRT(ALFA)) + TFF
000352:                                                                                                  #        OR      IF ALFA ZZ GEQ 1.0      (FOR ELLIPSES HAVING ABS(DEL ECC ANOM) GEQ 90 DEG)
000353:                                                                                                  #        THEN    X = 1/ALFA Z Z
000354:                                                                                                  #        AND     TFF = (PI/SQRT(ALFA) -Q2 +Q1 +2(X T(X) -1) /ALFA Z) /ALFA SQRT(MU)
000355:                                                                                                  #        WHERE   T(X) IS A POLYNOMIAL APPROXIMATION TO THE SERIES
000356:                                                                                                  #                             2      3             2
000357:                                                                                                  #                1/3 - X/5 + X /7 - X /9 ...     (X  < 1.0)
000358:
000359:                                                                                                  #  CALLING SEQUENCE:     TIME TO RTERM                   TIME TO PERIGEE
000360:                                                                                                  #                        CALL                            CALL
000361:                                                                                                  #                                CALCTFF                         CALCTPER
000362:                                                                                                  #                        C(MPAC) = TERMNL RAD M          C(MPAC) = PERIGEE RAD M
000363:                                                                                                  #        FOR EITHER, E:(-29) M:(-27)
000364:                                                                                                  #        FOR EITHER, PUSHLOC = PDL+0, ARBITRARY IF LEQ 8D.


000366:
000367:                                                                                                  #  SUBROUTINES CALLED:   T(X), VIA RTB
000368:
000369:                                                                                                  #  NORMAL EXIT MODE:     RVQ
000370:                                                                                                  #        HOWEVER, PROGRAM EXITS WITH ONE OF THE FOLLOWING VALUES FOR TFF (-28) CS IN MPAC.  USER MUST STORE.
000371:                                                                                                  #                A. TFF = FLIGHT TIME.  NORMAL CASE FOR POSITIVE FLIGHT TIME LESS THAN ONE ORBITAL PERIOD.
000372:                                                                                                  #                B. (THIS OPTION IS NO LONGER USED.)
000373:                                                                                                  #                C. TFF = POSMAX.  THIS INDICATES THAT THE CONIC FROM THE PRESENT POSITION WILL NOT RETURN TO
000374:                                                                                                  #                   THE SPECIFIED ALTITUDE.  ALSO INDICATES OUTBOUND PARABOLA OR HYPERBOLA.
000375:
000376:                                                                                                  #  OUTPUT:       C(MPAC)         (-28) CS        TIME OF FLIGHT, OR TIME TO PERIGEE
000377:                                                                                                  #                TFFX            (0)             X,                                      LEFT FOR ENTRY DISPLAY TFF ROUTINES
000378:                                                                                                  #                NRTERM          E:(-29+NR) M    RTERM, WEIGHTED BY NR                   LEFT FOR ENTRY DISPLAY TFF ROUTINES
000379:                                                                                                  #                                M:(-27+NR)
000380:                                                                                                  #                TFFTEM          E:(-59+2NR)     LCP Z Z SGN(SDELF)                      LEFT FOR ENTRY DISPLAY TFF ROUTINES
000381:                                                                                                  #                                M:(-55+2NR)     LCP /ALFA SGN(SDELF)                    LEFT FOR ENTRY DISPLAY TFF ROUTINES
000382:                                                                                                  #                NOTE:   TFFTEM = PDL 36D AND WILL BE DESTROYED BY .:UNIT:.
000383:                                                                                                  #                RMAG1           E:(-29) M:(-27) PDL 12 NOT TOUCHED.
000384:                                                                                                  #                TFFQ1           E:(-16) M:(-15) PDL 14D
000385:                                                                                                  #                TFFDELQ         E:(-16) M:(-15) PDL 10D
000386:                                                                                                  #                PUSHLOC AT PDL+0
000387:
000388:                                                                                                  #  ERASABLE INITIALIZATION REQUIRED:
000389:                                                                                                  #                RONE            E:(-29) M:(-27) M  STATE VECTOR                         LEFT BY USER
000390:                                                                                                  #                VONE'           E:(+10) M:(+9)  VN/SQRT(MU)                             LEFT BY TFF/CONIC
000391:                                                                                                  #                RMAG1           E:(-29) M:(-27) PRESENT RADIUS, M                       LEFT BY TFFCONIC
000392:                                                                                                  #                C(MPAC)         E:(-29) M:(-27) RTERM, TERMINAL RADIUS LENGTH, M        LEFT BY USER
000393:
000394:                                                                                                  #                THE FOLLOWING ARE STORED IN THE PUSH LIST AREA.
000395:                                                                                                  #                TFF/RTMU        E:(17) M:(14)   1/SQRT(MU)                              LEFT BY TFFCONIC.
000396:                                                                                                  #                NRMAG           E:(-29+NR)      M  RMAG, NORMALIZED                     LEFT BY TFFCONIC
000397:                                                                                                  #                                M:(-27+NR)
000398:                                                                                                  #                X1                              -NR, NORM COUNT                         LEFT BY TFFCONIC
000399:                                                                                                  #                TFFNP           E:(-38+2NR)     M  LCP, SEMI LATUS RECTUM, WEIGHT NR    LEFT BY TFFCONIC
000400:                                                                                                  #                                M:(-36+2NR)
000401:                                                                                                  #                TFFALFA         E:(26-NR)       1/M  ALFA, WEIGHT NR                    LEFT BY TFFCONIC
000402:                                                                                                  #                                M:(24-NR)
000403:                                                                                                  #                TFFRTALF        E:(10+NA)       SQRT(ALFA), NORMALIZED                  LEFT BY TFFCONIC
000404:                                                                                                  #                                M:(9+NA)
000405:                                                                                                  #                X2                              -NA, NORMCOUNT                          LEFT BY TFFCONIC
000406:                                                                                                  #                TFF1/ALF        E:(-22-2NA)     SIGNED SEMIMAJ AXIS, WEIGHTED BY NA     LEFT BY TFFCONIC
000407:                                                                                                  #                                M:(-20-2NA)
000408:
000409:                                                                                                  #  DEBRIS:       QPRET, PDL+0 ... PDL+3
000410:                                                                                                  #                RTERM           E:(-29) M:(-27) RTERM, TERMINAL RADIUS LENGTH
000411:                                                                                                  #                RAPO            E:(-29) M:(-27) PDL 16D (=NRTERM)
000412:                                                                                                  #                RPER            E:(-29) M:(-27) PDL 14D (=TFFQ1)
000413:


000415: 27,3055           77614        CALCTPER           SETGO                                          #  ENTER WITH RPER IN MPAC
000416: 27,3056           03436                                    TFFSW
000417: 27,3057           57062                                    +3
000418: 27,3060           77614        CALCTFF            CLEAR                                          #  ENTER WITH RTERM IN MPAC
000419: 27,3061           03676                                    TFFSW
000420: 27,3062           00023                 +3        STORE    RTERM                                 #  E:(-29) M:(-27)
000421: 27,3063           77657                           SL*
000422: 27,3064           20201                                    0,1                                   #  X1=-NR
000423: 27,3065           00021                           STORE    NRTERM                                #  RTERM  E:(-29+NR) M:(-27+NR)
000424: 27,3066           44205                           DMP      BDSU
000425: 27,3067           00033                                    TFFALFA                               #  ALFA  E:(26-NR) M:(24-NR)
000426: 27,3070           15322                                    TFF1/4
000427: 27,3071           41206                           PUSH     DMP                                   #  (2-ALFA RTERM)  (-3)  TO PDL+0
000428: 27,3072           00021                                    NRTERM                                #  E:(-29+NR) M:(-27+NR)
000429: 27,3073           53725                           PDDL     SR*                                   #  RTERM(2-ALFA RTERM) TO PDL+2
000430:                                                                                                  #  E:(-32+NR) M:(-30+NR)
000431: 27,3074           00035                                    TFFNP                                 #  LC P  E:(-38+2NR) M:(-36+2NR)
000432: 27,3075           20573                                    0          -6,1                       #  X1 = -NR
000433: 27,3076           43276                           DCOMP    DAD                                   #  DUE TO SHIFTS, KEEP PRECISION FOR SQRT
000434:                                                                                                  #  RTERM(2-ALFA RTERM) FROM PDL +2
000435:                                                                                                  #  E:(-32+NR) M:(-30+NR)
000436: 27,3077           77657                           SR*                                            #  LEAVE  E:(-32) M:(-30)
000437: 27,3100           20601                                    0,1                                   #  X1 = -NR
000438: 27,3101           71214                           BOFF     DLOAD                                 #  CHECK TFF /TPER SWITCH
000439: 27,3102           03756                                    TFFSW
000440: 27,3103           57105                                    +2                                    #  IF TFF, CONTINUE
000441: 27,3104           15332                                    TFFZEROS                              #  IF TPER, SET Q2 = 0
000442: 27,3105           75440                 +2        BMN      SQRT                                  #  E:(-16) M:(-15)
000443: 27,3106           57240                                    MAXTFF1                               #  NO FREE FALL CONIC TO RTERM FROM HERE
000444:                                                                                                  #  RESET PDL, SET TFF=POSMAX, AND EXIT.
000445:
000446: 27,3107           41076                           DCOMP    BOVB                                  #  RT IS ON INBOUND SIDE.  ASSURE OVFIND=0
000447: 27,3110           57343                                    TCDANZIG                              #  ANY PORT IN A STORM.
000448: 27,3111           24045                           STOVL    TFFTEM                                #  Q2  E:(-16) M:(-15)
000449: 27,3112           02372                                    VONE'                                 #  VN/SQRT(MU)  E:(10) M:(9)
000450: 27,3113           52441                           DOT      SL3
000451: 27,3114           02327                                    RONE                                  #  SAVED RN.  E:(-29) M:(-27)
000452: 27,3115           00017                           STORE    TFFQ1                                 #  Q1, SAVE FOR GONEPAST TEST.
000453:                                                                                                  #  E:(-16) M:(-15)
000454: 27,3116           44240                           BMN      BDSU
000455: 27,3117           57140                                    INBOUND                               #  USE ALTERNATE Z
000456: 27,3120           00045                                    TFFTEM                                #  Q2  E:(-16) M:(-15)
000457:
000458:                                                                                                  #  OUTBOUND Z CALC CONTINUES HERE
000459:
000460: 27,3121           14043                           STODL    TFFX                                  #  NUM=Q2-Q1  E:(-16) M:(-15)
000461: 27,3122           00033                                    TFFALFA                               #  ALFA  E:(26-NR) M:(24-NR)
000462: 27,3123           44205                           DMP      BDSU


000464: 27,3124           00041                                    NRMAG                                 #  RMAG  E:(-29+NR) M:(-27+NR)
000465:                                                                                                  #  (2-RTERM ALFA)  (-3) FROM PDL+0
000466: 27,3125           51406        SAVEDEN            PUSH     ABS                                   #  DEN TO PDL+0  E:(-3) OR (-16)
000467:                                                                                                  #                M:(-3) OR (-15)
000468: 27,3126           40015                           DAD      BOV                                   #  INDETERMINANCY TEST
000469: 27,3127           17351                                    LIM(-22)                              #  =1.0-B(-22)
000470: 27,3130           57151                                    TFFXTEST                              #  GO IF DEN >/= B(-22)
000471: 27,3131           65345                           DLOAD    PDDL                                  #  SET DEN=0 OTHERWISE
000472: 27,3132           15332                                    TFFZEROS
000473:                                                                                                  #  XCH ZERO WITH PDL+0
000474: 27,3133           57545                           DLOAD    DCOMP
000475: 27,3134           00033                                    TFFALFA                               #  ALFA  E:(26-NR) M:(24-NR)
000476: 27,3135           71240                           BMN      DLOAD                                 #  FOR TPER:  Z INDET AT DELE/2=0 AND 90.
000477: 27,3136           57245                                    TFFEL1                                #  ASSUME 90, AND LEAVE 0 IN PDL: 1/Z=D/N
000478:
000479:                                                                                                  #  Z INDET. AT PERIGEE FOR PARAB OR HYPERB.
000480: 27,3137           77616        DUMPTFF1           RVQ                                            #  RETURN TFF =0
000481:
000482:                                                                                                  #  INBOUND Z CALC CONTINUES HERE
000483:
000484: 27,3140           77745        INBOUND            DLOAD                                          #  RESET PDL+0
000485: 27,3141           45345                           DLOAD    DSU                                   #  ALTERNATE Z CALC
000486: 27,3142           00023                                    RTERM                                 #  E:(-29) M:(-27)
000487: 27,3143           00015                                    RMAG1                                 #  E:(-29) M:(-27)
000488: 27,3144           14043                           STODL    TFFX                                  #  NUM=RTERM-RN  E:(-29) M:(-27)
000489: 27,3145           00045                                    TFFTEM                                #  Q2  E:(-16) M:(-15)
000490: 27,3146           52015                           DAD      GOTO
000491: 27,3147           00017                                    TFFQ1                                 #  Q1  E:(-16) M:(-15)
000492: 27,3150           57125                                    SAVEDEN                               #  DEN = Q2+Q1  E:(-16) M:(-15)
000493:
000494: 27,3151           65215        TFFXTEST           DAD      PDDL                                  #  (ABS(DEN) TO PDL+2))  E:(-3) OR (-16)
000495:                                                                                                  #                        M:(-3) OR (-15)
000496: 27,3152           17353                                    DP(-22)                               #  RESTORE ABS(DEN) TO MPAC
000497: 27,3153           00043                                    TFFX                                  #  NUM  E:(-16) OR (-29)  M:(-15) OR (-27)
000498: 27,3154           53605                           DMP      SR*
000499: 27,3155           00031                                    TFFRTALF                              #  SQRT(ALFA)  E:(10+NA) M:(9+NA)
000500: 27,3156           57201                                    0          -3,2                       #  X2=-NA
000501: 27,3157           77671                           DDV                                            #  C(MPAC) =NUM SQRT(ALFA)       E:(-3) OR (-16)
000502:                                                                                                  #                                M:(-3) OR (-15)
000503:                                                                                                  #  ABS(DEN) FROM PDL+2   E:(-3) OR (-16)
000504:                                                                                                  #                        M:(-3) OR (-15)
000505: 27,3160           40145                           DLOAD    BOV                                   #  (THE DLOAD IS SHARED WITH TFFELL)
000506: 27,3161           00043                                    TFFX                                  #  NUM  E:(-16) OR (-29)  M:(-15) OR (-27)
000507: 27,3162           57243                                    TFFELL                                #  USE EQN FOR DELE GEQ 90, LEQ -90
000508:
000509:                                                                                                  #  OTHERWISE, CONTINUE FOR GENERAL CONIC FOR TFF EQN
000510:
000511: 27,3163           45471                           DDV      STADR
000512:                                                                                                  #  DEN FROM PDL+0        E:(-3) OR (-16)
000513:                                                                                                  #                        M:(-3) OR (-15)
000514: 27,3164           77732                           STORE    TFFTEM                                #  Z SAVE FOR SIGN OF SDELF.


000516:                                                                                                  #  E:(-13) M:(-12)
000517: 27,3165           63406                           PUSH     DSQ                                   #  Z TO PDL+0
000518: 27,3166           41206                           PUSH     DMP                                   #  Z SQ TO PDL+2  E:(-26) M:(-24)
000519: 27,3167           00035                                    TFFNP                                 #  LC P  E:(-38+2NR) M:(-36+2NR)
000520: 27,3170           75261                           SL       SIGN
000521: 27,3171           20206                                    5
000522: 27,3172           00045                                    TFFTEM                                #  AFFIX SIGN FOR SDELF (ENTRY DISPLAY)
000523: 27,3173           14045                           STODL    TFFTEM                                #  P ZSQ  E:(-59+2NR) M:(-55+2NR)
000524:                                                                                                  #  (ARG IS USED IN TFF/TRIG)
000525:                                                                                                  #  ZSQ FROM PDL+2  E:(-26) M:(-24)
000526: 27,3174           41206                           PUSH     DMP                                   #  RESTORE PUSH LOC
000527: 27,3175           00033                                    TFFALFA                               #  ALFA  E:(26-NR) M:(24-NR)
000528: 27,3176           77657                           SL*
000529: 27,3177           20201                                    0,1                                   #  X1=-NR
000530: 27,3200           00043                           STORE    TFFX                                  #  X
000531: 27,3201           41234                           RTB      DMP
000532: 27,3202           57325                                    T(X)                                  #  POLY
000533:                                                                                                  #  ZSQ FROM PDL+2  E:(-26) M:(-24)
000534: 27,3203           44302                           SR2      BDSU                                  #  2 ZSQ T(X)  E:(-29) M:(-27)
000535: 27,3204           00023                                    RTERM                                 #  RTERM  E:(-29) M:(-27)
000536: 27,3205           41215                           DAD      DMP
000537: 27,3206           00015                                    RMAG1                                 #  E:(-29) M:(-27)
000538:                                                                                                  #  Z FROM PDL+0  E:(-13) M:(-12)
000539: 27,3207           51042                           SR3      BPL                                   #  TFF SQRT(MU)  E:(-45) M:(-42)
000540: 27,3210           57231                                    ENDTFF                                #  (NO PUSH UP)
000541: 27,3211           75206                           PUSH     SIGN                                  #  TFF SQRT(MU) TO PDL+0
000542: 27,3212           00017                                    TFFQ1                                 #  Q1 FOR GONEPAST TEST
000543: 27,3213           71244                           BPL      DLOAD                                 #  GONE PAST ?
000544: 27,3214           57235                                    NEGTFF                                #  YES. TFF < 0.
000545: 27,3215           00027                                    TFF1/ALF                              #  1/ALFA  E:(-22-2NA) M:(-20-2NA)
000546: 27,3216           51076                           DCOMP    BPL                                   #  ALFA > 0 ?
000547: 27,3217           57235                                    NEGTFF                                #  NO. TFF IS NEGATIVE.
000548:
000549:                                                                                                  #  CORRECT FOR ORBITAL PERIOD.
000550:
000551: 27,3220           77676                           DCOMP                                          #  YES.  CORRECT FOR ORB PERIOD.
000552: 27,3221           56205                           DMP      DDV
000553: 27,3222           17347                                    PI/16                                 #  2 PI (-5)
000554: 27,3223           00031                                    TFFRTALF                              #  SQRT(ALFA)  E:(10+NA) M:(9+NA)
000555: 27,3224           53657                           SL*      SL*
000556: 27,3225           57602                                    0          -4,2                       #  X2=-NA
000557: 27,3226           57602                                    0          -4,2
000558: 27,3227           43257                           SL*      DAD
000559: 27,3230           57576                                    0,2
000560:                                                                                                  #  TFF SQRT(MU) FROM PDL+0       E:(-45) M:(-42)
000561: 27,3231           40005        ENDTFF             DMP      BOV                                   #  TFF SQRT(MU) IN MPAC          E:(-45) M:(-42)
000562: 27,3232           00037                                    TFF/RTMU                              #  E:(17) M:(14)
000563: 27,3233           57241                                    MAXTFF                                #  SET POSMAX IF OVFL.
000564:
000565: 27,3234           77616        DUMPTFF2           RVQ                                            #  RETURN TFF (-28) CS IN MPAC.
000566:


000568: 27,3235           77745        NEGTFF             DLOAD
000569:                                                                                                  #  TFF SQRT(MU) FROM PDL+0, NEGATIVE.
000570: 27,3236           77650                           GOTO
000571: 27,3237           57231                                    ENDTFF
000572:
000573: 27,3240           77745        MAXTFF1            DLOAD                                          #  RESET PDL
000574: 27,3241           43545        MAXTFF             DLOAD    RVQ
000575: 27,3242           17363                                    NEARONE
000576:
000577:                                                                                                  #  TIME OF FLIGHT ELLIPSE WHEN DEL (ECCENTRIC ANOM) GEQ 90 AND LEQ -90.
000578:
000579:                                                                                                  #  NUM FROM TFFX.        E:(-16) OR (-29)
000580:                                                                                                  #                        M:(-15) OR (-27)
000581: 27,3243           77712        TFFELL             SL2                                            #  NUM  E:(-14) OR (-27)  M:(-13) OR (-25)
000582: 27,3244           41465                           BDDV     PUSH                                  #  TEMP SAVE D/N IN PDL+0
000583:                                                                                                  #  DEN FROM PDL+0  E:(-3)/( 16)  M:(-3)/(-15)
000584:                                                                                                  #  N/D TO PDL+0  E:(11) M:(10)
000585: 27,3245           45345        TFFEL1             DLOAD    DSU                                   #  (ENTER WITH D/N=0 IN PDL+0)
000586: 27,3246           00045                                    TFFTEM                                #  Q2  E:(-16) M:(-15)
000587: 27,3247           00017                                    TFFQ1                                 #  Q1  E:(-16) M:(-15)
000588: 27,3250           14013                           STODL    TFFDELQ                               #  Q2-Q1  E:(-16) M:(-15)
000589:                                                                                                  #  D/N FROM PDL+0
000590: 27,3251           77626                           STADR
000591: 27,3252           77732                           STORE    TFFTEM                                #  D/N  E:(11) M:(10)
000592: 27,3253           53605                           DMP      SL*
000593: 27,3254           00027                                    TFF1/ALF                              #  1/ALFA  E:(-22-2NA) M:(-20-2NA)
000594: 27,3255           57576                                    0,2                                   #  1/ALFA Z  E:(-11-NA) M:(-10-NA)
000595: 27,3256           41206                           PUSH     DMP                                   #  TO PDL+0
000596: 27,3257           00045                                    TFFTEM                                #  1/Z  E:(11) M:(10)
000597: 27,3260           41057                           SL*      BOVB
000598: 27,3261           57576                                    0,2                                   #  X2= -NA
000599: 27,3262           45707                                    SIGNMPAC                              #  IN CASE X= 1.0, CONTINUE
000600: 27,3263           00043                           STORE    TFFX                                  #  X=1/ALFA ZSQ
000601: 27,3264           41234                           RTB      DMP
000602: 27,3265           57325                                    T(X)                                  #  POLY
000603: 27,3266           00043                                    TFFX
000604: 27,3267           45242                           SR3      DSU
000605: 27,3270           17355                                    DP2(-3)
000606: 27,3271           41405                           DMP      PUSH                                  #  2(X T(X)-1) /Z ALFA   E:(-15-NA)
000607:                                                                                                  #                        M:(-14-NA)
000608:                                                                                                  #  1/ALFA Z FROM PDL+0   E:(-11-NA)
000609:                                                                                                  #                        M:(-10-NA)
000610: 27,3272           41345                           DLOAD    DMP                                   #  GET SIGN FOR SDELF
000611: 27,3273           00045                                    TFFTEM                                #  1/Z  E:(11) M:(10)
000612: 27,3274           00015                                    RMAG1                                 #  E:(-29) M:(-27)
000613: 27,3275           43312                           SL2      DAD
000614: 27,3276           00017                                    TFFQ1                                 #  Q1  E:(-16) M:(-15)
000615: 27,3277           14045                           STODL    TFFTEM                                #  (Q1+R 1/Z) =SGN OF SDELF  E:(-16) M:(-15
000616: 27,3300           00035                                    TFFNP                                 #  LC P  E:(-38+2NR) M:(-36+2NR)
000617: 27,3301           53605                           DMP      SL*                                   #  CALC FOR ARG FOR TFF/TRIG.


000619: 27,3302           00027                                    TFF1/ALF                              #  1/ALFA  E:(-22-2NA) M:(-20-2NA)
000620: 27,3303           57575                                    1,2                                   #  X2=-NA
000621: 27,3304           53765                           SIGN     SL*
000622: 27,3305           00045                                    TFFTEM                                #  AFFIX SIGN FOR SDELF
000623: 27,3306           57576                                    0,2
000624: 27,3307           14045                           STODL    TFFTEM                                #  P/ALFA  E:(-59+2NR) M:(-55+2NR)
000625:                                                                                                  #  (ARG FOR USE IN TFF/TRIG)
000626: 27,3310           00027                                    TFF1/ALF                              #  1/ALFA  E:(-22-2NA) M:(-20-2NA)
000627: 27,3311           41366                           SQRT     DMP
000628: 27,3312           17347                                    PI/16                                 #  PI (-4)
000629: 27,3313           77615                           DAD
000630:                                                                                                  #  2(XT(X)-1)/Z ALFA FROM PDL    E:(-15-NA)
000631:                                                                                                  #                                M:(-14-NA)
000632: 27,3314           45257                           SL*      DSU
000633: 27,3315           57577                                    0          -1,2
000634: 27,3316           00013                                    TFFDELQ                               #  Q2-Q1  E:(-16) M:(-15)
000635: 27,3317           53605                           DMP      SL*
000636: 27,3320           00027                                    TFF1/ALF                              #  1/ALFA  E:(-22-2NA) M:(-20-2NA)
000637: 27,3321           57601                                    0          -3,2
000638: 27,3322           52057                           SL*      GOTO
000639: 27,3323           57602                                    0          -4,2
000640: 27,3324           57231                                    ENDTFF                                #  TFF SQRT(MU) IN MPAC E:(-45) M:(-42)
000641:


000643:                                                                                                  #  PROGRAM NAME:  T(X)                           DATE:  01.17.67
000644:                                                                                                  #  MOD NO:  0                                    LOG SECTION:  TIME OF FREE FALL
000645:                                                                                                  #  MOD BY:  RR BAIRNSFATHER
000646:
000647:                                                                                                  #  FUNCTIONAL DESCRIPTION:  THE POLYNOMIAL T(X) IS USED BY TIME OF FLIGHT SUBROUTINES CALCTFF AND
000648:                                                                                                  #        CALCTPER TO APPROXIMATE THE SERIES
000649:                                                                                                  #                           2     3
000650:                                                                                                  #                1/3 -X/5 +X /7 -X /9 ...
000651:
000652:                                                                                                  #        WHERE   X = ALFA Z Z            IF ALFA Z Z LEQ 1
000653:                                                                                                  #                X = 1/(ALFA Z Z)        IF ALFA Z Z G 1
000654:
000655:                                                                                                  #        ALSO    X IS NEG FOR HYPERBOLIC ORBITS
000656:                                                                                                  #                X = 0 FOR PARABOLIC ORBITS
000657:                                                                                                  #                X IS POSITIVE FOR ELLIPTIC ORBITS
000658:
000659:                                                                                                  #        FOR FLIGHT 278, THE POLYNOMIAL T(X) IS FITTED OVER THE RANGE (0,+1) AND HAS A MAXIMUM
000660:                                                                                                  #        DEVIATION FROM THE SERIES OF 2 E-5  (T(X) IS A CHEBYCHEV TYPE FIT AND WAS OBTAINED USING
000661:                                                                                                  #        MAC PROGRAM AUTCURFIT294RRB AND IS VALID TO THE SAME TOLERANCE OVER THE RANGE (-.08,+1).)
000662:
000663:                                                                                                  #  CALLING SEQUENCE:     RTB
000664:                                                                                                  #                                T(X)
000665:                                                                                                  #        C(MPAC) = X
000666:
000667:                                                                                                  #  SUBROUTINES CALLED:  NONE
000668:
000669:                                                                                                  #  NORMAL EXIT MODE:  TC DANZIG
000670:
000671:                                                                                                  #  ALARMS:  NONE
000672:
000673:                                                                                                  #  OUTPUT:  C(MPAC) = T(X)
000674:
000675:                                                                                                  #  ERASABLE INITIALIZATION REQUIRED:
000676:                                                                                                  #        C(MPAC) = X
000677:
000678:                                                                                                  #  DEBRIS:  NONE
000679:
000680: 27,3325           07171        T(X)               TC       POLY
000681: 27,3326           00004                           DEC      4          B-14                       #  N-1
000682: 27,3327           12525 12525                     2DEC     3.333333333 E-1
000683: 27,3331           71463 57703                     2DEC*    -1.999819135 E-1*
000684: 27,3333           04423 17645                     2DEC*    1.418148467 E-1*
000685: 27,3335           74604 43667                     2DEC*    -1.01310997 E-1*
000686: 27,3337           01626 37256                     2DEC*    5.609004986 E-2*
000687: 27,3341           77404 52071                     2DEC*    -1.536156925 E-2*
000688:
000689: 27,3343           06030        ENDT(X)            TC       DANZIG
000690:
000691: 27,3344  27,3343               TCDANZIG           =        ENDT(X)
000692:


000694:                                                                                                  #  TFF CONSTANTS
000695:
000696: 32,3755                                           BANK     32
000697:
000698: 27,2000                                           SETLOC   TOF-FF1
000699: 27,2000                                           BANK
000700:
000701:                                                                                                  #                                                NOTE _  NOTE _ ADJUSTED MUE FOR NEAR EARTH TRAJ.
000702:                                                                                                  # MUE            =       3.990 815 471 E10               M CUBE/CS SQ
000703:                                                                                                  # RTMUE          =       1.997702549 E5 B-18*     MODIFIED EARTH MU
000704:
000705: 27,3344           24775 30424  1/RTMU             2DEC*    .5005750271 E-5        B17*            #  MODIFIED EARTH MU
000706:
000707:                                                                                                  #                                                NOTE _  NOTE _ ADJUSTED MUE FOR NEAR EARTH TRAJ.
000708:                                                                                                  # MUM            =       4.902 778 E8            M CUBE/CS SQ
000709:                                                                                                  # RTMUM          2DEC*   2.21422176 E4 B-18*
000710: 27,3346           06220 37553  PI/16              2DEC     3.141592653 B-4
000711: 27,3350           37777 37700  LIM(-22)           2OCT     3777737700                            #  1.0 -B(-22)
000712: 27,3352           00000 00100  DP(-22)            2OCT     0000000100                            #  B(-22)
000713: 27,3354           04000 00000  DP2(-3)            2DEC     1          B-3
000714: 27,3356           02000 00000  DP2(-4)            2DEC     1          B-4                        #  1/16
000715:
000716:                                                                                                  #  RPAD1         2DEC    6373338 B-29            M (-29) = 20909901.57 FT
000717: 27,3360  22,3310               RPAD1              =        RPAD
000718:
000719: 27,3360           00305 11205  R300K              2DEC     6464778    B-29                       #  (-29) M
000720: 27,3362           37777 37777  NEARONE            2DEC     .999999999
000721: 27,3364  26,3331               TFFZEROS           EQUALS   HI6ZEROS
000722: 27,3364  26,3321               TFF1/4             EQUALS   HIDP1/4
000723:
000724:
000725:

End of include-file TIME_OF_FREE_FALL.agc.  Parent file is MAIN.agc


