
Source Code


000002:                                                                                                  #  Copyright:    Public domain.
000003:                                                                                                  #  Filename:     Template.agc
000004:                                                                                                  #  Purpose:      Part of the source code for Colossus, build 249.
000005:                                                                                                  #                It is part of the source code for the Command Module's (CM)
000006:                                                                                                  #                Apollo Guidance Computer (AGC), possibly for Apollo 8 and 9.
000007:                                                                                                  #  Assembler:    yaYUL
000008:                                                                                                  #  Reference:    pp. 545-555 of 1701.pdf.
000009:                                                                                                  #  Contact:      Ron Burkey <info@sandroid.org>.
000010:                                                                                                  #  Website:      www.ibiblio.org/apollo.
000011:                                                                                                  #  Mod history:  08/14/04 RSB.   Began transcribing.
000012:
000013:                                                                                                  #  The contents of the "Colossus249" files, in general, are transcribed
000014:                                                                                                  #  from a scanned document obtained from MIT's website,
000015:                                                                                                  #  http://hrst.mit.edu/hrs/apollo/public/archive/1701.pdf.  Notations on this
000016:                                                                                                  #  document read, in part:
000017:
000018:                                                                                                  #        Assemble revision 249 of AGC program Colossus by NASA
000019:                                                                                                  #        2021111-041.  October 28, 1968.
000020:
000021:                                                                                                  #        This AGC program shall also be referred to as
000022:                                                                                                  #                                Colossus 1A
000023:
000024:                                                                                                  #        Prepared by
000025:                                                                                                  #                        Massachusetts Institute of Technology
000026:                                                                                                  #                        75 Cambridge Parkway
000027:                                                                                                  #                        Cambridge, Massachusetts
000028:                                                                                                  #        under NASA contract NAS 9-4065.
000029:
000030:                                                                                                  #  Refer directly to the online document mentioned above for further information.
000031:                                                                                                  #  Please report any errors (relative to 1701.pdf) to info@sandroid.org.
000032:
000033:                                                                                                  #  In some cases, where the source code for Luminary 131 overlaps that of
000034:                                                                                                  #  Colossus 249, this code is instead copied from the corresponding Luminary 131
000035:                                                                                                  #  source file, and then is proofed to incorporate any changes.
000036:


000038:                                                                                                  #  TPI SEARCH
000039:
000040:                                                                                                  #  PROGRAM DESCRIPTION S17.1 AND S17.2
000041:
000042:                                                                                                  #  FUNCTIONAL DESCRIPTION
000043:
000044:                                                                                                  #  THE TPI SEARCH ROUTINE DETERMINES THE MINIMUM TOTAL VELOCITY TRANSFER TRAJECTORY FROM A GIVEN TPI
000045:                                                                                                  #  MANEUVER TIME WITHIN THE CONSTRAINT OF A SAFE PERICENTER.  THIS VELOCITY IS THE SUM OF THE IMPULSIVE VELOCITIES
000046:                                                                                                  #  FOR THE TPI AND TPF MANEUVERS.
000047:
000048:                                                                                                  #  THE S17.1 ROUTINE EXTRAPOLATES THE STATE VECTORS OF BOTH VEHICLES TO THE TPI TIME AND COMPUTES THE
000049:                                                                                                  #  RELATIVE PHASE ANGLE BETWEEN THE VEHICLES, THE ALTITUDE DIFFERENCE (I.E., THE MAGNITUDE DIFFERENCE OF THE
000050:                                                                                                  #  POSITION VECTORS) AND SELECTS A SEARCH SECTOR BASED ON THE SIGN OF THE ALTITUDE DIFFERENCE.
000051:
000052:                                                                                                  #  THE S17.2 ROUTINE FURTHER DEFINES THE SEARCH SECTOR BY COMPUTING ANGULAR LIMITS AND USES THE TIME THETA
000053:                                                                                                  #  SUBROUTINE TO COMPUTE THE SEARCH START AND END TIMES.  THE SEARCH IS THEN MADE IN AN ITERATIVE LOOP USING THE
000054:                                                                                                  #  LAMBERT SUBROUTINE TO COMPUTE TEH VELOCITIES REQUIRED AT TPI TIME AND AT TPF TIME.  EXIT FROM THE SEARCH LOOP
000055:                                                                                                  #  IS MADE WHEN SOLUTION CRITERIA ARE MET (NORMAL EXIT) OR AS SOON AS IT IS EVIDENT THAT NO SOLUTION EXISTS IN
000056:                                                                                                  #  THE SECTOR SEARCHED.
000057:
000058:                                                                                                  #  CALLING SEQUENCE
000059:
000060:                                                                                                  #        BOTH ROUTINES ARE CALLED IN INTERPRETIVE CODE AND RETURN VIA QPRET.  S17.1 HAS ONLY A NORMAL EXIT.
000061:                                                                                                  #        S17.2 RETURNS VIA QPRET FOR NORMAL EXIT AND TO ALARUMS FOR ERROR EXIT.
000062:
000063:                                                                                                  #  SUBROUTINES CALLED
000064:
000065:                                                                                                  #        CSMCONIC
000066:                                                                                                  #        LEMCONIC
000067:                                                                                                  #        TIMETHET
000068:                                                                                                  #        INITVEL
000069:
000070: 36,2000                                           BANK     36
000071: 36,2000                                           SETLOC   P17S
000072: 36,2000                                           BANK
000073:
000074: 36,2000                                           COUNT    36/TPI
000075:
000076: 36,2000  E7,1537                                  EBANK=   RACT3
000077:
000078:                                                                                                  #  **** TEMPORARY ****
000079:
000080: 36,2000           00004 31566  HPE                2DEC     157420.0   B-29                       #  EARTH'S MIN. PERICENTER ALTITUDE 85 N.M.
000081:
000082: 36,2002           00000 12326  HPL                2DEC     10668.0213 B-29                       #  MOON'S MIN. PERICENTER ALTITUDE 35000 FT.
000083:
000084: 36,2004           00002 16100  CDSEC              2DEC     40000      B-28
000085:
000086: 36,2006           00000 35230  CLSEC              2DEC     15000      B-28
000087:
000088: 36,2010           12137 06033  PIINVERS           2DEC     .3183098862
000089:
000090: 36,2012           06161 30707  SEC1THET           2DEC     .1944444444
000091:


000093: 36,2014           35252 25253  SEC2THET           2DEC     .9166666667
000094:
000095: 36,2016           67777 77777  MANYFEET           2DEC     -1.0       B-2
000096:
000097: 36,2020           00000 30760  LIMVEL             2DEC     .6096      E-2        B-7             #  2FPS
000098:
000099: 36,2022           00000 00114  DFTMOON            2DEC     .1524      E3         B-29            #  500 FEET
000100:
000101: 36,2024           00040 30447  DP-.002            2DEC     0.002
000102:
000103: 36,2026           71220        S17.1              STQ      DLOAD
000104: 36,2027           01340                                    NORMEX
000105: 36,2030           03663                                    TTPI
000106: 36,2031           34041                           STCALL   TDEC1                                 #  ADVANCE PASSIVE VEHICLE TO TPI
000107: 36,2032           27057                                    LEMCONIC
000108: 36,2033           77624                           CALL
000109: 36,2034           45372                                    LEMSTORE
000110: 36,2035           77745                           DLOAD
000111: 36,2036           03663                                    TTPI
000112: 36,2037           34041                           STCALL   TDEC1                                 #  ADVANCE ACTIVE VEHICLE TO TPI
000113: 36,2040           27045                                    CSMCONIC
000114: 36,2041           77624                           CALL
000115: 36,2042           45402                                    CSMSTORE
000116: 36,2043           77775                           VLOAD
000117: 36,2044           03540                                    RACT3
000118: 36,2045           63246                           ABVAL    PDVL                                  #  /RA/ 0D                       PL 2D
000119: 36,2046           03554                                    RPASS3
000120: 36,2047           65256                           UNIT     PDDL                                  #  UNIT RP 0D                    PL 6D
000121: 36,2050           43021                           BDSU     SET
000122: 36,2051           00045                                    36D                                   #  /RP/ -/RA/
000123: 36,2052           00076                                    KFLAG                                 #  OFF = +
000124: 36,2053           43040                           BMN      CLEAR
000125: 36,2054           74056                                    +2
000126: 36,2055           00276                                    KFLAG                                 #  ON = -
000127: 36,2056           27754                           STOVL    DELHITE
000128: 36,2057           00001                                    0D
000129: 36,2060           53435                           VXV      UNIT
000130: 36,2061           03562                                    VPASS3
000131: 36,2062           27646                           STOVL    E2                                    #  ALMOST IT SAVE FOR 17.2
000132: 36,2063           03540                                    RACT3
000133: 36,2064           46206                           PUSH     VPROJ
000134: 36,2065           03646                                    E2
000135: 36,2066           51352                           VSL2     BVSU                                  #  RPA
000136: 36,2067           50256                           UNIT     DOT
000137: 36,2070           00001                                    0D
000138: 36,2071           65552                           SL1      ACOS
000139: 36,2072           77715                           PDVL
000140: 36,2073           50235                           VXV      DOT
000141: 36,2074           03540                                    RACT3
000142: 36,2075           03646                                    E2


000144: 36,2076           75325                           PDDL     SIGN
000145: 36,2077           77626                           STADR
000146: 36,2100           61160                           STODL    THETZERO                              #  CENTRAL ANGLE
000147: 36,2101           00047                                    X1
000148: 36,2102           37746                           STCALL   XRS                                   #  SAVE INDICES FOR FURTHER USE
000149: 36,2103           01340                                    NORMEX                                #    += ACTIVE AHEAD  -= ACTIVE BEHIND
000150: 36,2104           77220        S17.2              STQ      VLOAD                                 #  COMPUTE SEARCH SECTOR LIMITS
000151: 36,2105           03657                                    QTEMP
000152: 36,2106           03540                                    RACT3
000153: 36,2107           50256                           UNIT     DOT
000154: 36,2110           03646                                    E2
000155: 36,2111           75446                           ABS      SQRT
000156: 36,2112           43352                           SL1      DAD
000157: 36,2113           34025                                    DP-.002                               #  ADD .002 RADIANS TO IT
000158: 36,2114           57414                           BON      DCOMP                                 #  GIVES CORRECT SINE, COSINE MUST BE
000159: 36,2115           00316                                    KFLAG                                 #  COMP. ADD .5 FOR ANGLE
000160: 36,2116           74117                                    +1
000161:
000162:                                                                                                  #  PHI(0)=180-(-(THETAZERO +K5IT)), PHI(I)=180-(-THETAZERO+K2IT))
000163:                                                                                                  #  SIN(180-ALPHA)=SIN(ALPHA) ETC
000164:
000165: 36,2117           40205                           DMP      SETPD
000166: 36,2120           34011                                    PIINVERS                              #  REVOLUTIONARY HERES TWO IT
000167: 36,2121           00001                                    0D
000168: 36,2122           45206                           PUSH     DSU
000169: 36,2123           02617                                    THETZERO
000170: 36,2124           02611                           STORE    IT                                    #  PHI(I) , -(THETZERO + K2IT)
000171: 36,2125           41525                           PDDL     PUSH
000172: 36,2126           43342                           SR1      DAD
000173: 36,2127           41415                           DAD      PUSH                                  #  PHI(0) , -(THETZERO + K5IT)
000174: 36,2130           43156                           SIN      SET
000175: 36,2131           03466                                    RVSW
000176: 36,2132           16732                           STODL    SNTH
000177: 36,2133           50146                           COS      BMN
000178: 36,2134           74136                                    +2
000179: 36,2135           77676                           DCOMP
000180: 36,2136           16734                           STODL    CSTH
000181: 36,2137           03746                                    XRS
000182: 36,2140           24047                           STOVL    X1
000183: 36,2141           03554                                    RPASS3
000184: 36,2142           77657                           VSR*
000185: 36,2143           57176                                    0,2
000186: 36,2144           26657                           STOVL    RVEC
000187: 36,2145           03562                                    VPASS3
000188: 36,2146           77657                           VSR*
000189: 36,2147           57176                                    0,2
000190: 36,2150           36746                           STCALL   VVEC
000191: 36,2151           24737                                    TIMETHET
000192: 36,2152           77745                           DLOAD                                          #  SAVE START TIME AND GET END TIME
000193: 36,2153           00037                                    T
000194: 36,2154           03752                           STORE    TF
000195: 36,2155           16627                           STODL    TFO


000197: 36,2156           02611                                    IT
000198: 36,2157           73406                           PUSH     SIN
000199: 36,2160           16732                           STODL    SNTH
000200: 36,2161           50146                           COS      BMN
000201: 36,2162           74164                                    +2
000202: 36,2163           77676                           DCOMP
000203: 36,2164           02734                           STORE    CSTH
000204: 36,2165           45150                           LXA,1    CALL
000205: 36,2166           03745                                    XRS
000206: 36,2167           24737                                    TIMETHET
000207:                                                                                                  #  INITIALIZE LOOP
000208: 36,2170           43145                           DLOAD    CLEAR
000209: 36,2171           00037                                    T
000210: 36,2172           03661                                    ITSWICH
000211: 36,2173           16621                           STODL    TFI                                   #  SAVE TIME FOR LOOP TEST
000212: 36,2174           15340                                    DPPOSMAX
000213: 36,2175           16623                           STODL    DELVEE
000214: 36,2176           34017                                    MANYFEET
000215: 36,2177           16625                           STODL    HP
000216: 36,2200           34013                                    SEC1THET                              #  70 DEGREES
000217: 36,2201           71214                           BON      DLOAD
000218: 36,2202           00316                                    KFLAG
000219: 36,2203           74205                                    +2
000220: 36,2204           34015                                    SEC2THET                              #  330 DEGREES
000221: 36,2205           37750                           STCALL   THETL
000222: 36,2206           74230                                    CONCAUL
000223: 36,2207           70545        BIS                DLOAD    SR1
000224: 36,2210           02734                                    CSTH
000225: 36,2211           14021                           STODL    COSTH
000226: 36,2212           02732                                    SNTH
000227: 36,2213           77742                           SR1
000228: 36,2214           34023                           STCALL   SINTH                                 #  GET 4 QUADRANT THETA
000229: 36,2215           47211                                    ARCTRIG
000230: 36,2216           43244                           BPL      DAD
000231: 36,2217           74221                                    +2
000232: 36,2220           15340                                    DPPOSMAX                              #  PUT THETA BETWEEN 0,1
000233: 36,2221           65221                           BDSU     PDDL
000234: 36,2222           03750                                    THETL
000235: 36,2223           03752                                    TF
000236: 36,2224           75225                           DSU      SIGN                                  #  FAST TIMES
000237: 36,2225           02621                                    TFI
000238: 36,2226           77640                           BMN
000239: 36,2227           74432                                    RNGETEST                              #  TIME MUST HAVE A STOP
000240:                                                                                                  #  ADVANCE PASSIVE FOR TARGET VECTOR
000241: 36,2230           77745        CONCAUL            DLOAD
000242: 36,2231           03663                                    TTPI
000243: 36,2232           43015                           DAD      BON
000244: 36,2233           03752                                    TF
000245: 36,2234           01312                                    AVFLAG
000246: 36,2235           74242                                    ADVCSM


000248: 36,2236           34041                           STCALL   TDEC1
000249: 36,2237           27057                                    LEMCONIC
000250: 36,2240           77650                           GOTO
000251: 36,2241           74244                                    JUNCT3
000252: 36,2242           34041        ADVCSM             STCALL   TDEC1
000253: 36,2243           27045                                    CSMCONIC
000254:                                                                                                  #  SAVE BACK VALUES OF HP AND DELVEE
000255: 36,2244           77775        JUNCT3             VLOAD
000256: 36,2245           00007                                    VATT
000257: 36,2246           27640                           STOVL    VPASS4
000258: 36,2247           00001                                    RATT
000259: 36,2250           03632                           STORE    RPASS4
000260: 36,2251           17415                           STODL    RTARG
000261: 36,2252           03752                                    TF
000262: 36,2253           17423                           STODL    DELLT4
000263: 36,2254           02625                                    HP
000264: 36,2255           16631                           STODL    HPO
000265: 36,2256           02623                                    DELVEE
000266: 36,2257           16633                           STODL    DELVEO
000267:                                                                                                  #  PREPARE FOR LAMBERT
000268: 36,2260           03663                                    TTPI
000269: 36,2261           17503                           STODL    INTIME
000270: 36,2262           03746                                    XRS
000271: 36,2263           17746                           STODL    RTX1
000272: 36,2264           15332                                    HI6ZEROS
000273: 36,2265           65201                           SETPD    PDDL
000274: 36,2266           00001                                    0D
000275: 36,2267           33147                                    EPSFOUR
000276: 36,2270           77715                           PDVL
000277: 36,2271           03540                                    RACT3
000278: 36,2272           27570                           STOVL    RINIT
000279: 36,2273           03546                                    VACT3
000280: 36,2274           37576                           STCALL   VINIT
000281: 36,2275           22000                                    INITVEL
000282:                                                                                                  #  COMPUTE H ET CETERA
000283: 36,2276           52375                           VLOAD    VSU
000284: 36,2277           03620                                    VTPRIME
000285: 36,2300           03640                                    VPASS4
000286: 36,2301           41446                           ABVAL    PUSH
000287: 36,2302           26637                           STOVL    RELDELV                               #  /V2-VP(TPI+TF)/
000288: 36,2303           03646                                    DELVEET3                              #  V1-VA
000289: 36,2304           77646                           ABVAL                                          #  /V1-VA/
000290: 36,2305           02635                           STORE    MAGVTPI
000291: 36,2306           45415                           DAD      STADR
000292: 36,2307           61154                           STODL    DELVEE
000293: 36,2310           03746                                    XRS
000294: 36,2311           24047                           STOVL    X1
000295: 36,2312           03612                                    VIPRIME
000296: 36,2313           77657                           VSR*
000297: 36,2314           57176                                    0,2


000299: 36,2315           26746                           STOVL    VVEC
000300: 36,2316           03540                                    RACT3
000301: 36,2317           77657                           VSR*
000302: 36,2320           57176                                    0,2
000303: 36,2321           36657                           STCALL   RVEC
000304: 36,2322           45322                                    PERIAPO
000305: 36,2323           71354                           LXA,2    DLOAD
000306: 36,2324           03746                                    XRS        +1
000307: 36,2325           77657                           SL*
000308: 36,2326           57576                                    0,2
000309: 36,2327           02625                           STORE    HP
000310:                                                                                                  #  ITSWICH DENOTES INTERPOLATION -- SOLUTION ACCEPTANCE IS FORCED
000311: 36,2330           71214                           BON      DLOAD
000312: 36,2331           03701                                    ITSWICH
000313: 36,2332           74443                                    ENDEN
000314: 36,2333           02321                                    HPERMIN
000315: 36,2334           50025                           DSU      BMN
000316: 36,2335           02625                                    HP
000317: 36,2336           74401                                    HALFSAFE
000318: 36,2337           45325                           PDDL     DSU                                   #  WAS PERICENTER ALT SAFE
000319: 36,2340           02321                                    HPERMIN
000320: 36,2341           02631                                    HPO
000321: 36,2342           45240                           BMN      DSU                                   #  (HPLIM-HPO)-(HPLIM-HP)=HP-HPO
000322: 36,2343           74360                                    INTERP                                #  SOLUTION AT HAND
000323: 36,2344           71240                           BMN      DLOAD
000324: 36,2345           73534                                    ALARUMS                               #  IT'S GETTING WORSE -- SOUND THE ALARM
000325: 36,2346           34005                                    CDSEC
000326: 36,2347           57414        JUNCT1             BOFF     DCOMP                                 #  OFF IS PLUS, ON IS MINUS
000327: 36,2350           00356                                    KFLAG
000328: 36,2351           74352                                    +1
000329: 36,2352           03744                           STORE    DELTEE
000330: 36,2353           43345        JUNCT2             DLOAD    DAD
000331: 36,2354           03744                                    DELTEE
000332: 36,2355           03752                                    TF
000333: 36,2356           37752                           STCALL   TF
000334: 36,2357           74207                                    BIS                                   #  RECYCLE
000335: 36,2360           45214        INTERP             SET      DSU                                   #  HP-HPO
000336: 36,2361           03461                                    ITSWICH
000337: 36,2362           65301                           NORM     PDDL
000338: 36,2363           00047                                    X1
000339: 36,2364           34023                                    DFTMOON
000340: 36,2365           45215                           DAD      DSU
000341: 36,2366           02321                                    HPERMIN
000342: 36,2367           02625                                    HP
000343: 36,2370           70501                           NORM     SR1
000344: 36,2371           00050                                    X2
000345: 36,2372           56264                           XSU,2    DDV
000346: 36,2373           00046                                    X1
000347: 36,2374           53605                           DMP      SR*
000348: 36,2375           03744                                    DELTEE


000350: 36,2376           57177                                    0          -1,2
000351: 36,2377           37744                           STCALL   DELTEE
000352: 36,2400           74353                                    JUNCT2
000353: 36,2401           45325        HALFSAFE           PDDL     DSU                                   #  SAVE HP-HPLIM FOR POSSIBLE
000354: 36,2402           02623                                    DELVEE
000355: 36,2403           02633                                    DELVEO                                #  SAVE THIS TOO
000356: 36,2404           51406                           PUSH     ABS
000357: 36,2405           50025                           DSU      BMN
000358: 36,2406           34021                                    LIMVEL                                #  2 FT PS
000359: 36,2407           74443                                    ENDEN
000360: 36,2410           45345                           DLOAD    DSU
000361: 36,2411           02321                                    HPERMIN
000362: 36,2412           02631                                    HPO
000363: 36,2413           77725                           PDDL
000364: 36,2414           71240                           BMN      DLOAD
000365: 36,2415           74424                                    LRGRDVO
000366: 36,2416           71244                           BPL      DLOAD
000367: 36,2417           74360                                    INTERP
000368: 36,2420           03744                                    DELTEE
000369: 36,2421           57542                           SR1      DCOMP
000370: 36,2422           37744                           STCALL   DELTEE
000371: 36,2423           74353                                    JUNCT2
000372: 36,2424           77745        LRGRDVO            DLOAD
000373: 36,2425           71240                           BMN      DLOAD
000374: 36,2426           74353                                    JUNCT2
000375: 36,2427           34007                                    CLSEC
000376: 36,2430           77650                           GOTO
000377: 36,2431           74347                                    JUNCT1
000378:                                                                                                  #  TIME RAN OUT ASSUME SOLUTION IF PERICENTER
000379: 36,2432           45345        RNGETEST           DLOAD    DSU
000380: 36,2433           02625                                    HP
000381: 36,2434           02321                                    HPERMIN
000382: 36,2435           71240                           BMN      DLOAD
000383: 36,2436           73534                                    ALARUMS
000384: 36,2437           03752                                    TF
000385: 36,2440           77625                           DSU
000386: 36,2441           03744                                    DELTEE
000387: 36,2442           03752                           STORE    TF                                    #  TIME OF SOLUTION
000388: 36,2443           77775        ENDEN              VLOAD
000389: 36,2444           03620                                    VTPRIME
000390: 36,2445           65241                           DOT      PDDL                                  #  SG2 WITH MAGNITUDE
000391: 36,2446           03632                                    RPASS4
000392: 36,2447           02637                                    RELDELV
000393: 36,2450           45565                           SIGN     STADR                                 #  NOW SIGN(RELDELV)=SIGN(SG2)
000394: 36,2451           41140                           STCALL   RELDELV
000395: 36,2452           16440                                    TRANSANG                              #  COMPUTE OMEGA T, CENTRAL ANGLE
000396: 36,2453           50375                           VLOAD    DOT
000397: 36,2454           03540                                    RACT3
000398: 36,2455           03612                                    VIPRIME                               #  SG1
000399: 36,2456           51165                           SIGN     BPL                                   #  IF POSITIVE THEN SG1 = SG2 OTHERWISE


000401: 36,2457           02637                                    RELDELV
000402: 36,2460           74470                                    USEKAY                                #  SIGN(SG2-SG1)=SIGN(SG2)=SIGN(RELDELV)
000403: 36,2461           57535                           SLOAD    DCOMP
000404: 36,2462           33144                                    DECTWO
000405: 36,2463           51165                           SIGN     BPL
000406: 36,2464           02637                                    RELDELV
000407: 36,2465           74476                                    NEXUS
000408: 36,2466           52076                           DCOMP    GOTO
000409: 36,2467           74474                                    USEKAY     +4
000410: 36,2470           43135        USEKAY             SLOAD    BON
000411: 36,2471           33144                                    DECTWO
000412: 36,2472           00316                                    KFLAG
000413: 36,2473           74476                                    NEXUS
000414: 36,2474           77625                           DSU
000415: 36,2475           36100                                    P21ONENN
000416: 36,2476           17646        NEXUS              STODL    NN1
000417: 36,2477           02625                                    HP
000418: 36,2500           36641                           STCALL   POSTTPI
000419: 36,2501           03657                                    QTEMP
000420: 07,2440                                           BANK     07
000421: 07,2000                                           SETLOC   XANG
000422: 07,2000                                           BANK
000423: 07,2440                                           COUNT    07/XANG
000424:
000425:                                                                                                  #  CENTRAL ANGLE SUBROUTINE
000426:
000427:                                                                                                  #  THIS SUBROUTINE COMPUTES THE CENTRAL ANGLE OF TRAVEL OF TEH
000428:                                                                                                  #  PASSIVE VEHICLE DURING THE TRANSFER.
000429:
000430: 07,2440           40220        TRANSANG           STQ      SETPD
000431: 07,2441           02370                                    SUBEXIT
000432: 07,2442           00001                                    0
000433: 07,2443           73150                           LXA,1    LXA,2
000434: 07,2444           03745                                    XRS
000435: 07,2445           03746                                    XRS        +1
000436: 07,2446           53775                           VLOAD    VSR*
000437: 07,2447           03640                                    VPASS4
000438: 07,2450           57176                                    0,2
000439: 07,2451           22746                           STODL*   VVEC
000440: 07,2452           11633                                    MUTABLE    +2,1
000441: 07,2453           53715                           PDVL     VSR*                                  #  SQRT MU (+18 OR +15)                  00D
000442: 07,2454           03632                                    RPASS4
000443: 07,2455           57176                                    0,2
000444: 07,2456           64646                           ABVAL    PDDL*                                 #  MAGNITUDE OF R        (+29 OR +27)    02D
000445: 07,2457           11631                                    MUTABLE,1
000446: 07,2460           47515                           PDVL     VSQ                                   #  1/MU                  (+34 OR +28)    04D
000447: 07,2461           02746                                    VVEC
000448: 07,2462           57301                           NORM     DMPR                                  #  PUSH LIST AT 02D
000449: 07,2463           00047                                    X1
000450: 07,2464           53605                           DMP      SRR*
000451: 07,2465           00003                                    02D


000453: 07,2466           21576                                    0          -3,1
000454: 07,2467           77621                           BDSU                                           #  R V**/MU              (+6)
000455: 07,2470           11506                                    D1/32
000456: 07,2471           65301                           NORM     PDDL
000457: 07,2472           00047                                    X1                                    #  (2 - R V**/MU)        (+6-N)
000458: 07,2473           56362                           SR1R     DDV                                   #  MAGNITUDE OF R        (+30 OR +28)
000459: 07,2474           41457                           SL*      PUSH                                  #  R/(2 - R V**/MU)      (+29 OR +27)    02D
000460: 07,2475           20174                                    0          -5,1
000461: 07,2476           75542                           SR1      SQRT
000462: 07,2477           77605                           DMP
000463: 07,2500           65301                           NORM     PDDL                                  #  ASUBP***                              00D
000464: 07,2501           00047                                    X1
000465: 07,2502           56342                           SR1      DDV
000466: 07,2503           53605                           DMP      SL*
000467: 07,2504           03752                                    TF
000468: 07,2505           20201                                    0,1
000469: 07,2506           60325                           PDDL     NORM
000470: 07,2507           11520                                    2PISC
000471: 07,2510           00047                                    X1
000472: 07,2511           56325                           PDDL     DDV
000473: 07,2512           77657                           SL*
000474: 07,2513           20176                                    0          -3,1                       #  CENTANG = (SQRT(MU/ASUP***)TF)
000475: 07,2514           37754                           STCALL   CENTANG                               #  IN REVOLUTIONS B-0
000476: 07,2515           02370                                    SUBEXIT
000477: 35,3431                                           BANK     35
000478: 35,2000                                           SETLOC   P17S1
000479: 35,2000                                           BANK
000480: 35,3431                                           COUNT    35/P17
000481:
000482:                                                                                                  #  TPI SEARCH DISPLAY ROUTNE
000483:
000484: 35,3431           03726        P17                TC       AVFLAGA                               #  AVFLAG = CSM, SET TRACK + UPDATE FLAGS
000485: 35,3432           03434                           TC       P17.1
000486: 35,3433           03741        P77                TC       AVFLAGP                               #  AVFLAG = LEM, SET TRACK + UPDATE FLAGS
000487: 35,3434           03746        P17.1              TC       P20FLGON                              #        SET UPDATE FLAG
000488: 35,3435           33125                           CAF      V06N37                                #        DISPLAY TTPI TIME
000489: 35,3436           03114                           TC       VNP00H
000490: 35,3437           06006                           TC       INTPRET
000491: 35,3440           45014                           CLEAR    CALL
000492: 35,3441           00670                                    UPDATFLG
000493: 35,3442           74026                                    S17.1                                 #  UPDATE STATE VECTORS TO TTPI
000494: 35,3443           76014                           SET      AXT,1
000495: 35,3444           00470                                    UPDATFLG
000496: 35,3445           00002                           DEC      2          B-14                       #  DELTA H = 2 K POSITIVE, KFLAG OFF
000497: 35,3446           76014                           BOFF     AXT,1
000498: 35,3447           00356                                    KFLAG
000499: 35,3450           73452                                    +2
000500: 35,3451           00001                           DEC      1          B-14                       #  DELTA H = 1 K NEGATIVE, KFLAG ON
000501: 35,3452           77530                           SXA,1    EXIT
000502: 35,3453           01132                                    OPTION2


000504: 35,3454           33543                           CAF      V06N72                                #  DISPLAY PHI, DELTA H, SEARCH OPTION K
000505: 35,3455           03517                           TC       VNCOMP17
000506: 35,3456           06006                           TC       INTPRET
000507: 35,3457           43014                           CLEAR    SET
000508: 35,3460           00670                                    UPDATFLG
000509: 35,3461           00076                                    KFLAG
000510: 35,3462           45335                           SLOAD    DSU
000511: 35,3463           01133                                    OPTION2                               #  RESET KFLAG ON FOR OPTION =1
000512: 35,3464           36100                                    P21ONENN                              #             OFF FOR OPTION =2
000513: 35,3465           43030                           BHIZ     CLEAR
000514: 35,3466           73470                                    +2
000515: 35,3467           00276                                    KFLAG
000516: 35,3470           46135                           SLOAD    BHIZ
000517: 35,3471           03747                                    XRS        +1
000518: 35,3472           73476                                    +4
000519: 35,3473           52145                           DLOAD    GOTO
000520: 35,3474           34003                                    HPL
000521: 35,3475           73500                                    P17.2
000522: 35,3476           77745                           DLOAD
000523: 35,3477           34001                                    HPE
000524: 35,3500           36321        P17.2              STCALL   HPERMIN
000525: 35,3501           74104                                    S17.2
000526: 35,3502           77414                           SET      EXIT
000527: 35,3503           00470                                    UPDATFLG
000528: 35,3504           33127        P17.3              CAF      V06N58                                #  DISPLAY DELTA VTPI, DELTA VTPF,AND H
000529: 35,3505           03517                           TC       VNCOMP17
000530: 35,3506           33126                           CAF      V06N55                                #  DISPLAY PERICENTER CODE AND CENTRAL ANG,
000531: 35,3507           04555                           TC       BANKCALL
000532: 35,3510           20763                           CADR     GOFLASHR
000533: 35,3511           04106                           TC       GOTOP00H                              #  TERMINATE PROGRAM
000534: 35,3512           04106                           TC       GOTOP00H                              #  END PROGRAM
000535: 35,3513           03434                           TC       P17.1                                 #  RECYCLE WITH NEW TTPI OR SEARCH OPTION
000536: 35,3514           34711                           CAF      TWO                                   #  BLANK R2
000537: 35,3515           05415                           TC       BLANKET
000538: 35,3516           15112                           TCF      ENDOFJOB
000539: 35,3517  E4,1767                                  EBANK=   RTRN
000540:
000541: 35,3517           00006        VNCOMP17           EXTEND
000542: 35,3520           23766                           QXCH     QSAVED
000543: 35,3521           55765                           TS       VERBNOUN
000544: 35,3522           31765                           CA       VERBNOUN
000545: 35,3523           04555                           TCR      BANKCALL
000546: 35,3524           20624                           CADR     GOFLASH
000547: 35,3525           03522                           TC       -3                                    #  TERMINATE ILLEGAL REDISPLAY
000548: 35,3526           01766                           TC       QSAVED                                #  PROCEED
000549: 35,3527           40154                           CS       MPAC                                  #  RECYCLE WITH NEW TPI TIME
000550: 35,3530           64705                           AD       BIT6                                  #  OR PROCEED WITH NEW SEARCH OPTION
000551: 35,3531           00006                           EXTEND
000552: 35,3532           13434                           BZF      P17.1
000553: 35,3533           03522                           TC       VNCOMP17   +3


000555: 35,3534           77414        ALARUMS            SET      EXIT
000556: 35,3535           00470                                    UPDATFLG
000557: 35,3536           05537                           TC       ALARM
000558: 35,3537           00124                           OCT      00124                                 #  NO SAFE PERICENTER IN THIS SECTOR
000559: 35,3540           34743                           CAF      V05N09
000560: 35,3541           03517                           TC       VNCOMP17
000561: 35,3542           04106                           TC       GOTOP00H                              #  PROCEED ILLEGAL TERMINATE PROGRAM
000562: 35,3543           01510        V06N72             VN       0672
000563:

End of include-file TPI_SEARCH.agc.  Parent file is MAIN.agc


