
Source Code


000002:                                                                                                  ## Copyright:   Public domain.
000003:                                                                                                  ## Filename:    TVCDAPS.agc
000004:                                                                                                  ## Purpose:     Part of the source code for Colossus, build 249.
000005:                                                                                                  ##              It is part of the source code for the Command Module's (CM)
000006:                                                                                                  ##              Apollo Guidance Computer (AGC), for Apollo 9.
000007:                                                                                                  ## Assembler:   yaYUL
000008:                                                                                                  ## Reference:   Begins at p. 921.
000009:                                                                                                  ## Contact:     Ron Burkey <info@sandroid.org>.
000010:                                                                                                  ## Website:     www.ibiblio.org/apollo.
000011:                                                                                                  ## Mod history: 08/23/04 RSB.   Began transcribing.
000012:                                                                                                  ##              2010-10-25 JL   Fixed page number.
000013:                                                                                                  ##              2017-01-06 RSB  Page numbers now agree with those on the
000014:                                                                                                  ##                              original harcopy, as opposed to the PDF page
000015:                                                                                                  ##                              numbers in 1701.pdf.
000016:                                                                                                  ##              2017-01-20 RSB  Cross-diff'd comment text (not whitespace)
000017:                                                                                                  ##                              vs the already-proofed corresponding Colossus
000018:                                                                                                  ##                              237 and Comanche 55 source-code files
000019:                                                                                                  ##                              and corrected errors found.
000020:                                                                                                  ##
000021:                                                                                                  ## The contents of the "Colossus249" files, in general, are transcribed
000022:                                                                                                  ## from a scanned copy of the program listing.  Notations on this
000023:                                                                                                  ## document read, in part:
000024:                                                                                                  ##
000025:                                                                                                  ##      Assemble revision 249 of AGC program Colossus by NASA
000026:                                                                                                  ##      2021111-041.  October 28, 1968.
000027:                                                                                                  ##
000028:                                                                                                  ##      This AGC program shall also be referred to as
000029:                                                                                                  ##                              Colossus 1A
000030:                                                                                                  ##
000031:                                                                                                  ##      Prepared by
000032:                                                                                                  ##                      Massachusetts Institute of Technology
000033:                                                                                                  ##                      75 Cambridge Parkway
000034:                                                                                                  ##                      Cambridge, Massachusetts
000035:                                                                                                  ##      under NASA contract NAS 9-4065.
000036:                                                                                                  ##
000037:                                                                                                  ## Refer directly to the online document mentioned above for further information.
000038:                                                                                                  ## Please report any errors (relative to the scanned pages) to info@sandroid.org.
000039:                                                                                                  ##
000040:                                                                                                  ## In some cases, where the source code for Luminary 131 overlaps that of
000041:                                                                                                  ## Colossus 249, this code is instead copied from the corresponding Luminary 131
000042:                                                                                                  ## source file, and then is proofed to incorporate any changes.
000043:


000045:                                                                                                  #  PROGRAM NAME....TVCDAP, CONSISTING OF PITCHDAP, YAWDAP, ETC.
000046:                                                                                                  #  LOG SECTION....TVCDAP                         SUBROUTINE....DAPCSM
000047:                                                                                                  #  MOD BY ENGEL                                  DATE....27 OCT, 1967
000048:
000049:                                                                                                  #  FUNCTIONAL DESCRIPTION....
000050:
000051:                                                                                                  #        SELF-PERPETUATING T5 TASKS WHICH GENERATE THE COMMAND SIGNALS
000052:                                                                                                  #        FOR THE PITCH AND YAW SPS GIMBAL ACTUATORS DURING TVC (SPS) BURNS,
000053:                                                                                                  #        IN RESPONSE TO BODY-AXIS RATE COMMANDS FROM CROSS-PRODUCT STEERING
000054:                                                                                                  #        (S40.8).  IF NO STEERING (IMPULSIVE BURNS) MAINTAINS ATTITUDE-HOLD
000055:                                                                                                  #        ABOUT THE REFERENCE (INITIAL) DIRECTIONS (ZERO RATE COMMANDS).
000056:
000057:                                                                                                  #        THE PITCH AND YAW LOOPS ARE SEPARATE, BUT STRUCTURED IDENTICALLY.
000058:                                                                                                  #        EACH ATTITUDE-RATE LOOP INCLUDES GIMBAL ANGLE RATE DERIVATION,
000059:                                                                                                  #        GIMBAL/BODY AXIS TRANSFORMATION, BODY-AXIS ATTITUDE ERROR
000060:                                                                                                  #        INTEGRATION WITH ERROR LIMITING, THE CSM/LEM FILTER OR THE BRANCH
000061:                                                                                                  #        POINTS FOR THE CSM-ALONE (GEN3DAP) FILTER, OUTPUT LIMITER,
000062:                                                                                                  #        CG-OFFSET TRACKER FILTER, AND THE CG-TRACKER MINOR LOOP.
000063:
000064:                                                                                                  #        THE DAPS ARE CYCLIC, CALLING EACH OTHER AT 1/2 THE DAP SAMPLE
000065:                                                                                                  #        TIME, AS DETERMINED BY T5TVCDT.  THE ACTUATOR COMMANDS ARE
000066:                                                                                                  #        REGENERATED AS ANALOG VOLTAGES BY THE OPTICS ERROR COUNTERS, WHICH
000067:                                                                                                  #        TRANSMIT THE SIGNAL TO THE ACTUATOR SERVOS WHEN THERE IS PROPER CDU
000068:                                                                                                  #        MODING.
000069:
000070:                                                                                                  #        REFERENCES FOR THE CSM/LEM FILTER DESIGN INCLUDE R503 BY STUBBS
000071:                                                                                                  #        (MIT IL OCT 1965) AND SGA MEMO R26-65 BY MARTIN (MIT IL OCT 1965).
000072:                                                                                                  #        REFERENCES FOR THE CSM FILTER DESIGN (SEE GEN3DAP) INCLUDE R533 BY
000073:                                                                                                  #        LU (MIT IL JUNE 1966).
000074:
000075:                                                                                                  #        OPERATIONAL ASPECTS OF THE INTEGRATED CONTROL PACKAGE, WITH DESIGN-
000076:                                                                                                  #        NOMINAL PARAMETER VALUES ARE DISCUSSED IN AG R336-67 BY ENGEL
000077:                                                                                                  #        (MIT IL OCT 1967) AND SGA MEMO R18-67 BY SCHLUNDT (MIT IL OCT 1967)
000078:
000079:                                                                                                  #  CALLING SEQUENCE.... (TYPICALLY)
000080:
000081:                                                                                                  #        T5 CALL OF TVCDAPON (P40-P47) BY IGNOVER (P40-P47)
000082:                                                                                                  #        T5 CALL OF DAPINIT BY TVCINIT4 (P40-P47)
000083:                                                                                                  #        T5 CALL OF DAPINIT BY DAPINIT
000084:                                                                                                  #        T5 CALL OF PITCHDAP BY DAPINIT
000085:                                                                                                  #        T5 CALL OF YAWDAP BY PITCHDAP
000086:                                                                                                  #        T5 CALL OF PITCHDAP BY YAWDAP
000087:                                                                                                  #                ETC.
000088:                                                                                                  #        (AUTOMATIC SEQUENCING FROM TVCDAPON)
000089:
000090:                                                                                                  #  NORMAL EXIT MODE....RESUME
000091:
000092:                                                                                                  #  ALARM OR ABORT EXIT MODES....NONE
000093:
000094:                                                                                                  #  SUBROUTINES CALLED....


000096:
000097:                                                                                                  #        HACK FOR STROKE TEST (V68) WAVEFORM GENERATION
000098:                                                                                                  #        NP0-, NP1-, NY0-, AND NY1NODE FOR GEN3DAP (LEM-OFF) FILTERS
000099:                                                                                                  #        PCOPY, YCOPY FOR COPY-CYCLES (USED ALSO BY TVC RESTART PACKAGE)
000100:                                                                                                  #        DAPINIT FOR INITIAL CDUS FOR RATE MEASUREMENTS
000101:                                                                                                  #        ERRORLIM, ACTLIM FOR INPUT (ATTITUDE-ERROR INTEGRATION) AND
000102:                                                                                                  #                OUTPUT (ACTUATOR COMMAND) LIMITING, COMMON TO PITCH AND
000103:                                                                                                  #                YAW DAPS
000104:                                                                                                  #        OPTVARK, NSUM, DSUM FOR CSM/LEM FILTER OPERATIONS, COMMON TO
000105:                                                                                                  #                PITCH AND YAW DAPS
000106:                                                                                                  #        RESUME
000107:
000108:                                                                                                  #  OTHER INTERFACES....
000109:
000110:                                                                                                  #        S40.8 CROSS-PRODUCT STEERING FOR BODY AXIS RATE COMMANDS OMEGAY,ZC
000111:                                                                                                  #        S40.15 FOR THE INITIAL DAP GAINS KP/KPDN (LEM-ON) OR KPGEN3 (-OFF)
000112:                                                                                                  #        TVCEXECUTIVE FOR VARIABLE DAP GAINS, FILTER SAMPLE-RATE CHANGE AND
000113:                                                                                                  #                GAIN REDUCTION AT LEM-ON SWITCHOVER, SINGLE-SHOT CG. ESTIMATION
000114:                                                                                                  #                AT SWITCHOVER AND REPETITIVE CG ESTIMATION AFTER SWITCHOVER.
000115:                                                                                                  #        TVCRESTART PACKAGE FOR TVC RESTART PROTECTION.
000116:
000117:                                                                                                  #  ERASABLE INITIALIZATION REQUIRED....
000118:
000119:                                                                                                  #        29 PAD-LOAD ERASABLES ESTROKER.....EREPFRAC +1
000120:                                                                                                  #        KP/KPDN (KPGEN3) AS IN S40.15 (R03)
000121:                                                                                                  #        CONFIGURATION BITS (14, 13) OF DAPDATR1 AS IN R03
000122:                                                                                                  #        ENGINE-ON BIT (11.13) FOR RESTARTS
000123:                                                                                                  #        TVCPHASE FOR RESTARTS (SEE IGNOVER, AND TVCINIT4)
000124:                                                                                                  #        T5 BITS (15,14 OF FLAGWRD6) FOR RESTARTS
000125:                                                                                                  #        MISCELLANEOUS VARIABLES SET UP OR COMPUTED BY TVCDAPON....TVCINIT4,
000126:                                                                                                  #                INCLUDING THE ZEROING OF 64 TEMPORARIES BY MRCLEAN
000127:                                                                                                  #        CDUX,Y,Z AND SINCDUX.... COSCDUX AS PREPARED BY CDUTRIG1 (WITH
000128:                                                                                                  #                UPDATES EVERY 1/2 SECOND)
000129:                                                                                                  #        ALSO G+N PRIMARY, TVC ENABLE, AND OPTICS ERROR COUNTER ENABLE
000130:                                                                                                  #                UNLESS BENCH-TESTING.
000131:
000132:                                                                                                  #  OUTPUT....
000133:
000134:                                                                                                  #        TVCPITCH AND TVCYAW WITH COUNTER RELEASE (11.14 AND 11.13 INCREMEN-
000135:                                                                                                  #                TAL COMMANDS TO OPTICS ERROR COUNTERS), FILTER NODES, BODY-
000136:                                                                                                  #                AXIS ATTITUDE ERROR INTEGRATOR, TOTAL ACTUATOR COMMANDS,
000137:                                                                                                  #                OFFSET-TRACKER-FILTER OUTPUTS, ETC.
000138:
000139:                                                                                                  #  DEBRIS....
000140:
000141:                                                                                                  #        MUCH, SHAREABLE WITH RCS/ENTRY, IN EBANK6 ONLY
000142:
000143: 17,2213                                           BANK     17
000144: 20,2000                                           SETLOC   DAPS2
000145: 20,2000                                           BANK


000147: 20,2327  E6,1742                                  EBANK=   BZERO
000148: 20,2327                                           COUNT*   $$/DAPS
000149:


000151:                                                                                                  #  PITCH TVCDAP STARTS HERE....(INCORPORATES CSM/LEM DAP FILTER, MODOR DESIGN)
000152:
000153: 20,2327           22016        PITCHDAP           LXCH     BANKRUPT                              #  T5 ENTRY, NORMAL OR VIA DAPINIT
000154: 20,2330           00006                           EXTEND
000155: 20,2331           22012                           QXCH     QRUPT
000156:
000157: 20,2332           33420                           CAF      YAWT5                                 #  SET UP T5 CALL FOR YAW AUTOPILOT (LOW-
000158: 20,2333           55312                           TS       T5LOC                                 #        ORDER PART OF 2CADR ALREADY THERE)
000159: 20,2334           31635                           CAE      T5TVCDT
000160: 20,2335           54030                           TS       TIME5
000161:
000162: 20,2336           11614        PSTROKER           CCS      STROKER                               #  (STRKFLG) CHECK FOR STROKE TEST
000163: 20,2337           03506                           TC       HACK                                  #  TEST-START OR TEST-IN-PROGRESS
000164: 20,2340           12342                           TCF      +2                                    #  NO-TEST
000165: 20,2341           03506                           TC       HACK                                  #  TEST-IN-PROGRESS
000166:
000167: 20,2342           30033        PCDUDOTS           CAE      CDUY                                  #  COMPUTE CDUYDOT
000168: 20,2343           57655                           XCH      PCDUYPST                              #        FOR PITCH AUTOPILOT
000169: 20,2344           00006                           EXTEND
000170: 20,2345           21655                           MSU      PCDUYPST
000171: 20,2346           02547                           TCR      RLIMTEST                              #        RATE TEST
000172: 20,2347           55657                           TS       MCDUYDOT                              #        (MINUS, SC.AT 1/2TVCDT REVS/SEC)
000173:
000174: 20,2350           30034                           CAE      CDUZ                                  #  COMPUTE CDUZDOT
000175: 20,2351           57656                           XCH      PCDUZPST                              #        FOR PITCH AUTOPILOT
000176: 20,2352           00006                           EXTEND
000177: 20,2353           21656                           MSU      PCDUZPST
000178: 20,2354           02547                           TCR      RLIMTEST                              #        RATE TEST
000179: 20,2355           55660                           TS       MCDUZDOT                              #        (MINUS, SC.AT 1/2TVCDT REVS/SEC)
000180:
000181: 20,2356           00006        PINTEGRL           EXTEND                                         #  COMPUTE INTEGRAL OF BODY-AXIS PITCH-RATE
000182: 20,2357           31616                           DCA      PERRB                                 #        ERROR, SC.AT B-1 REVS
000183: 20,2360           53743                           DXCH     ERRBTMP
000184:
000185: 20,2361           00006                           EXTEND
000186: 20,2362           31530                           DCA      OMEGAYC
000187: 20,2363           21743                           DAS      ERRBTMP
000188:
000189: 20,2364           40746                           CS       COSCDUZ                               #  PREPARE BODY-AXIS PITCH RATE, OMEGAYB
000190: 20,2365           00006                           EXTEND
000191: 20,2366           70750                           MP       COSCDUX
000192: 20,2367           20001                           DDOUBL
000193: 20,2370           00006                           EXTEND
000194: 20,2371           71657                           MP       MCDUYDOT
000195: 20,2372           20001                           DDOUBL
000196: 20,2373           53536                           DXCH     OMEGAYB
000197:
000198: 20,2374           41660                           CS       MCDUZDOT
000199: 20,2375           00006                           EXTEND


000201: 20,2376           70742                           MP       SINCDUX
000202: 20,2377           20001                           DDOUBL
000203: 20,2400           21536                           DAS      OMEGAYB                               #  (COMPLETED OMEGAYB, SC.AT 1/2TVCDT REVS)
000204:
000205: 20,2401           00006                           EXTEND                                         #  PICK UP -OMEGAYB (SIGN CHNG, INTEGRATE)
000206: 20,2402           41536                           DCS      OMEGAYB
000207: 20,2403           21743                           DAS      ERRBTMP
000208:
000209: 20,2404           03126        PERORLIM           TCR      ERRORLIM                              #  PITCH BODY-AXIS-ERROR INPUT LIMITER
000210:
000211: 20,2405           31466        P1FILJMP           CAE      DAPDATR1                              #  CHECK FOR LEM-ON/-OFF
000212: 20,2406           74675                           MASK     BIT14                                 #  (BIT 14 INDICATES LEM IS ON)
000213: 20,2407           10000                           CCS      A
000214: 20,2410           12413                           TCF      +3                                    #  USE LEM-ON FILTER
000215: 20,2411           04574                           TC       POSTJUMP                              #  USE LEM-OFF (GEN3DAP) FILTER
000216: 20,2412           36213                           CADR     NP0NODE
000217:
000218: 20,2413           00006        PFORWARD           EXTEND                                         #  LEM-ON FILTER COMPUTATIONS.
000219: 20,2414           41544                           DCS      PDSUM                                 #  DENOMINATOR TERMS, SC.AT B+0 SPASCREVS
000220: 20,2415           53745                           DXCH     JZERO
000221:
000222: 20,2416           31742                           CAE      ERRBTMP                               #  INPUT ERROR, SC.AT B-1 REVS
000223: 20,2417           61541                           AD       PNSUM                                 #  NUMERATOR TERMS, SC.AT B-1 REVS
000224: 20,2420           00006                           EXTEND
000225: 20,2421           74727                           MP       KPDN                                  #  KPDN, SC.AT B+1 SPASCREV
000226: 20,2422           21745                           DAS      JZERO
000227: 20,2423           31542                           CAE      PNSUM      +1
000228: 20,2424           00006                           EXTEND
000229: 20,2425           74727                           MP       KPDN
000230: 20,2426           27745                           ADS      JZERO      +1
000231: 20,2427           54001                           TS       L
000232: 20,2430           12432                           TCF      +2
000233: 20,2431           27744                           ADS      JZERO                                 #  (SC.AT B+0 SPASCREV), (JZERO = CMDTMP)
000234:
000235: 20,2432           00006        JZSTORE            EXTEND                                         #  PREPARE JZERO FOR DENOMINATOR LADDER
000236: 20,2433           31745                           DCA      JZERO                                 #        SC.AT B+0 SPASCREV
000237: 20,2434           20001                           DDOUBL
000238: 20,2435           20001                           DDOUBL
000239: 20,2436           20001                           DDOUBL
000240: 20,2437           53727                           DXCH     J1TMP                                 #        SC.AT B-3 SPASCREV
000241:
000242: 20,2440           03141        OPTVARKP           TCR      OPTVARK                               #  PITCH VARIABLE-GAIN PACKAGE
000243:
000244: 20,2441           00006        POFFSET            EXTEND                                         #  SIGN CHANGE IN FORWARD LOOP
000245: 20,2442           41745                           DCS      CMDTMP                                #        (GEN3DAP RETURNS AT POFFSET)
000246: 20,2443           53745                           DXCH     CMDTMP
000247: 20,2444           00006                           EXTEND                                         #  ADD IN DOUBLE-PRECISION CG OFFSETS
000248: 20,2445           31626                           DCA      PDELOFF
000249: 20,2446           21745                           DAS      CMDTMP
000250:


000252: 20,2447           31745        PROUND             CAE      CMDTMP     +1                         #  ROUND UP FOR OUTPUT
000253: 20,2450           60000                           DOUBLE
000254: 20,2451           54001                           TS       L
000255: 20,2452           34714                           CAF      ZERO
000256: 20,2453           61744                           AD       CMDTMP
000257:
000258: 20,2454           03161        PACLIM             TCR      ACTLIM                                #  PITCH ACTUATOR-COMMAND-LIMITER
000259:
000260: 20,2455           41631        POUT               CS       PCMD                                  #  INCREMENTAL PITCH COMMAND
000261: 20,2456           61744                           AD       CMDTMP
000262: 20,2457           26054                           ADS      TVCPITCH                              #  UPDATE THE ERROR COUNTER (NO RESTART-
000263:                                                                                                  #        PROTECT, SINCE ERROR CNTR ZEROED)
000264:
000265: 20,2460           34700                           CAF      BIT11                                 #  BIT FOR TVCPITCH COUNT RELEASE
000266: 20,2461           00006                           EXTEND
000267: 20,2462           05014                           WOR      CHAN14
000268: 20,2463           31466        P2FILJMP           CAE      DAPDATR1                              #  CHECK FOR LEM-ON/-OFF
000269: 20,2464           74675                           MASK     BIT14                                 #  (BIT 14 INDICATES LEM IS ON)
000270: 20,2465           10000                           CCS      A
000271: 20,2466           12471                           TCF      +3                                    #  USE LEM-ON FILTER
000272: 20,2467           04574                           TC       POSTJUMP                              #  USE LEM-OFF (GEN3DAP) FILTER
000273: 20,2470           36246                           CADR     NP1NODE
000274: 20,2471           31742        BZSTORE            CAE      ERRBTMP                               #  PREPARE BZERO (UPPER WORD OF ERRBTMP)
000275: 20,2472           60000                           DOUBLE                                         #        FOR NUMERATOR LADDER....SC.AT B-1
000276: 20,2473           55717                           TS       B1TMP                                 #        SC.AT B-2 REVS FOR LADDER
000277: 20,2474           00006        PNLADDER           EXTEND                                         #  PREPARE TEMPORARIES, FOR UPDATING PITCH
000278: 20,2475           31546                           DCA      B1                                    #        NUMERATOR LADDER
000279: 20,2476           53721                           DXCH     B2TMP
000280: 20,2477           00006                           EXTEND
000281: 20,2500           31550                           DCA      B3
000282: 20,2501           53723                           DXCH     B4TMP
000283: 20,2502           00006                           EXTEND
000284: 20,2503           31552                           DCA      B5
000285: 20,2504           53725                           DXCH     B6TMP
000286:
000287: 20,2505           03173        PNSUMC             TCR      NSUM                                  #  PITCH NUMERATOR SUM
000288: 20,2506           00006        PDLADDER           EXTEND                                         #  PREPARE TEMPORARIES, FOR UPDATING PITCH
000289: 20,2507           31554                           DCA      J1                                    #        DENOMINATOR LADDER
000290: 20,2510           53731                           DXCH     J2TMP
000291: 20,2511           00006                           EXTEND
000292: 20,2512           31556                           DCA      J2
000293: 20,2513           53733                           DXCH     J3TMP
000294: 20,2514           00006                           EXTEND
000295: 20,2515           31560                           DCA      J3


000297: 20,2516           53735                           DXCH     J4TMP
000298: 20,2517           00006                           EXTEND
000299: 20,2520           31562                           DCA      J4
000300: 20,2521           53737                           DXCH     J5TMP
000301: 20,2522           00006                           EXTEND
000302: 20,2523           31564                           DCA      J5
000303: 20,2524           53741                           DXCH     J6TMP
000304:
000305: 20,2525           03233        PDSUMC             TCR      DSUM                                  #  PITCH DENOMINATOR SUM
000306:
000307: 20,2526           31744        DELBARP            CAE      CMDTMP                                #  UPDATE PITCH OFFSET-TRACKER-FILTER
000308: 20,2527           00006                           EXTEND                                         #        (GEN3DAP RETURNS AT ..DELBARP..)
000309: 20,2530           73421                           MP       1-E(-AT)
000310: 20,2531           53716                           DXCH     DELBRTMP
000311: 20,2532           31621                           CAE      DELPBAR
000312: 20,2533           00006                           EXTEND
000313: 20,2534           73422                           MP       E(-AT)
000314: 20,2535           21716                           DAS      DELBRTMP
000315: 20,2536           31622                           CAE      DELPBAR    +1
000316: 20,2537           00006                           EXTEND
000317: 20,2540           73422                           MP       E(-AT)
000318: 20,2541           27716                           ADS      DELBRTMP   +1
000319: 20,2542           54001                           TS       L
000320: 20,2543           12545                           TCF      +2
000321: 20,2544           27715                           ADS      DELBRTMP
000322:
000323: 20,2545           02560        PCOPYCYC           TCR      PCOPY                                 #  PITCH COPYCYCLE
000324:
000325: 20,2546           15222        PDAPEND            TCF      RESUME                                #  PITCH DAP COMPLETED
000326: 20,2547           55744        RLIMTEST           TS       CMDTMP                                #  TEST FOR EXCESSIVE CDU RATES
000327: 20,2550           00006                           EXTEND                                         #        IF CDU DIFFERENCE EXCEEDS 2.33 DEG
000328: 20,2551           73415                           MP       1/RTLIM                               #        IF ONE SAMPLE PERIOD, SET CDURATE=0
000329: 20,2552           00006                           EXTEND
000330: 20,2553           12556                           BZF      +3
000331: 20,2554           34714                           CAF      ZERO
000332: 20,2555           55744                           TS       CMDTMP
000333: 20,2556           31744                           CAE      CMDTMP
000334: 20,2557           00002                           TC       Q
000335:


000337:                                                                                                  #  PITCH TVCDAP COPYCYCLE SUBROUTINE (CALLED VIA PITCH TVCDAP OR TVC RESTART PACKAGE)
000338:
000339: 20,2560           25654        PCOPY              INCR     TVCPHASE                              #  RESTART-PROTECT THE COPYCYCLE.
000340:                                                                                                  #        NOTE POSSIBLE RE-ENTRY FROM RESTART
000341:                                                                                                  #        PACKAGE, SHOULD A RESTART OCCUR
000342:                                                                                                  #        DURING PITCH COPYCYCLE.
000343:
000344: 20,2561           00006        NEWB(S)            EXTEND                                         #  UPDATE PITCH NUMERATOR LADDER FROM
000345: 20,2562           31720                           DCA      B1TMP                                 #        TEMPORARIES
000346: 20,2563           53546                           DXCH     B1
000347: 20,2564           00006                           EXTEND
000348: 20,2565           31722                           DCA      B3TMP
000349: 20,2566           53550                           DXCH     B3
000350: 20,2567           00006                           EXTEND
000351: 20,2570           31724                           DCA      B5TMP
000352: 20,2571           53552                           DXCH     B5
000353:
000354: 20,2572           00006        NEWJ(S)            EXTEND                                         #  UPDATE PITCH DENOMINATOR LADDER FROM
000355: 20,2573           31727                           DCA      J1TMP                                 #        TEMPORARIES
000356: 20,2574           53554                           DXCH     J1
000357: 20,2575           00006                           EXTEND
000358: 20,2576           31731                           DCA      J2TMP
000359: 20,2577           53556                           DXCH     J2
000360: 20,2600           00006                           EXTEND
000361: 20,2601           31733                           DCA      J3TMP
000362: 20,2602           53560                           DXCH     J3
000363: 20,2603           00006                           EXTEND
000364: 20,2604           31735                           DCA      J4TMP
000365: 20,2605           53562                           DXCH     J4
000366: 20,2606           00006                           EXTEND                                         #        (ALSO NP1TMP,+1 TO NP1,+1)
000367: 20,2607           31737                           DCA      J5TMP
000368: 20,2610           53564                           DXCH     J5
000369:
000370: 20,2611           00006        PMISC              EXTEND                                         #  MISC....PITCH-RATE-ERROR INTEGRATOR
000371: 20,2612           31743                           DCA      ERRBTMP
000372: 20,2613           55477                           TS       AK1                                   #        FOR PITCH NEEDLES, SC.AT B-1 REVS
000373: 20,2614           53616                           DXCH     PERRB
000374:
000375: 20,2615           00006                           EXTEND                                         #        PITCH NUMERATOR SUM
000376: 20,2616           31712                           DCA      NSUMTMP                               #                (ALSO NP2TMP,+1 TO NP2,+1)
000377: 20,2617           53542                           DXCH     PNSUM
000378:
000379: 20,2620           00006                           EXTEND                                         #        PITCH DENOMINATOR SUM
000380: 20,2621           31714                           DCA      DSUMTMP                               #                (ALSO NP3TMP,+1 TO NP3,+1)
000381: 20,2622           53544                           DXCH     PDSUM
000382:
000383: 20,2623           31744                           CAE      CMDTMP                                #        PITCH ACTUATOR COMMAND
000384: 20,2624           55631                           TS       PCMD
000385:
000386: 20,2625           00006                           EXTEND                                         #        PITCH OFFSET-TRACKER-FILTER


000388: 20,2626           31716                           DCA      DELBRTMP
000389: 20,2627           53622                           DXCH     DELPBAR
000390:
000391: 20,2630           25654                           INCR     TVCPHASE                              #  PITCH COPYCYCLE COMPLETED
000392:
000393: 20,2631           00002                           TC       Q
000394:


000396:                                                                                                  #  YAW TVCDAP STARTS HERE....(INCORPORATES CSM/LEM DAP FILTER, MODOR DESIGN)
000397:
000398: 20,2632           22016        YAWDAP             LXCH     BANKRUPT                              #  T5 ENTRY, NORMAL
000399: 20,2633           00006                           EXTEND
000400: 20,2634           22012                           QXCH     QRUPT
000401:
000402: 20,2635           33416                           CAF      PITCHT5                               #  SET UP T5 CALL FOR PITCH AUTOPILOT (LOW-
000403: 20,2636           55312                           TS       T5LOC                                 #        ORDER PART OF 2CADR ALREADY THERE)
000404: 20,2637           31635                           CAE      T5TVCDT
000405: 20,2640           54030                           TS       TIME5
000406:
000407: 20,2641           11614        YSTROKER           CCS      STROKER                               #  (STRKFLG) CHECK FOR STROKE TEST
000408: 20,2642           03506                           TC       HACK                                  #  TEST-START OR TEST-IN-PROGRESS
000409: 20,2643           12645                           TCF      +2                                    #  NO-TEST
000410: 20,2644           03506                           TC       HACK                                  #  TEST-IN-PROGRESS
000411:
000412:                                                                                                  #  USE BODY RATES FROM PITCHDAP (PCDUDOTS)
000413:
000414: 20,2645           00006        YINTEGRL           EXTEND                                         #  COMPUTE INTEGRAL OF BODY-AXIS YAW-RATE
000415: 20,2646           31620                           DCA      YERRB                                 #        ERROR, SC.AT B-1 REVS
000416: 20,2647           53743                           DXCH     ERRBTMP
000417:
000418: 20,2650           00006                           EXTEND
000419: 20,2651           31532                           DCA      OMEGAZC
000420: 20,2652           21743                           DAS      ERRBTMP
000421:
000422: 20,2653           30746                           CAE      COSCDUZ                               #  PREPARE BODY-AXIS YAW-RATE, OMEGAZB
000423: 20,2654           00006                           EXTEND
000424: 20,2655           70742                           MP       SINCDUX
000425: 20,2656           20001                           DDOUBL
000426: 20,2657           00006                           EXTEND
000427: 20,2660           71657                           MP       MCDUYDOT
000428: 20,2661           20001                           DDOUBL
000429: 20,2662           53540                           DXCH     OMEGAZB
000430:
000431: 20,2663           41660                           CS       MCDUZDOT
000432: 20,2664           00006                           EXTEND
000433: 20,2665           70750                           MP       COSCDUX
000434: 20,2666           20001                           DDOUBL
000435: 20,2667           21540                           DAS      OMEGAZB                               #  (COMPLETED OMEGAZB, SC.AT 1/2TVCDT REVS)
000436:
000437: 20,2670           00006                           EXTEND                                         #  PICK UP -OMEGAZB (SIGN CHNG, INTEGRATE)
000438: 20,2671           41540                           DCS      OMEGAZB
000439: 20,2672           21743                           DAS      ERRBTMP
000440:
000441: 20,2673           03126        YERORLIM           TCR      ERRORLIM                              #  YAW BODY-AXIS-ERROR INPUT LIMITER
000442:
000443: 20,2674           31466        Y1FILJMP           CAE      DAPDATR1                              #  CHECK FOR LEM-ON/-OFF
000444: 20,2675           74675                           MASK     BIT14                                 #  (BIT 14 INDICATES LEM IS ON)
000445:


000447: 20,2676           10000                           CCS      A
000448: 20,2677           12702                           TCF      +3                                    #  USE LEM-ON FILTER
000449: 20,2700           04574                           TC       POSTJUMP                              #  USE LEM-OFF (GEN3DAP) FILTER
000450: 20,2701           36405                           CADR     NY0NODE
000451:
000452: 20,2702           00006        YFORWARD           EXTEND                                         #  LEM-ON FILTER COMPUTATIONS
000453: 20,2703           41570                           DCS      YDSUM                                 #  DENOMINATOR TERMS, SC.AT B+0 SPASCREVS
000454: 20,2704           53745                           DXCH     YZERO
000455:
000456: 20,2705           31742                           CAE      ERRBTMP                               #  INPUT ERROR, SC.AT B-1 REVS
000457: 20,2706           61565                           AD       YNSUM                                 #  NUMERATOR TERMS, SC.AT B-1 REVS
000458: 20,2707           00006                           EXTEND
000459: 20,2710           74727                           MP       KYDN                                  #  KYDN, SC.AT B+1 SPASCREV
000460: 20,2711           21745                           DAS      YZERO
000461: 20,2712           31566                           CAE      YNSUM      +1
000462: 20,2713           00006                           EXTEND
000463: 20,2714           74727                           MP       KYDN
000464: 20,2715           27745                           ADS      YZERO      +1
000465: 20,2716           54001                           TS       L
000466: 20,2717           12721                           TCF      +2
000467: 20,2720           27744                           ADS      YZERO                                 #  (SC.AT B+0 SPASCREV), (YZERO = CMDTMP)
000468:
000469: 20,2721           00006        YZSTORE            EXTEND                                         #  PREPARE YZERO FOR DENOMINATOR LADDER
000470: 20,2722           31745                           DCA      YZERO                                 #        SC.AT B+0 SPASCREV
000471: 20,2723           20001                           DDOUBL
000472: 20,2724           20001                           DDOUBL
000473: 20,2725           20001                           DDOUBL
000474: 20,2726           53727                           DXCH     Y1TMP                                 #        SC.AT B-3 SPASCREV
000475:
000476: 20,2727           03141        OPTVARKY           TCR      OPTVARK                               #  YAW VARIABLE-GAIN PACKAGE
000477:
000478: 20,2730           00006        YOFFSET            EXTEND                                         #  SIGN CHANGE IN FORWARD LOOP
000479: 20,2731           41745                           DCS      CMDTMP                                #        (GEN3DAP RETURNS AT YOFFSET)
000480: 20,2732           53745                           DXCH     CMDTMP
000481: 20,2733           00006                           EXTEND                                         #  ADD IN DOUBLE-PRECISION CG OFFSETS
000482: 20,2734           31630                           DCA      YDELOFF
000483: 20,2735           21745                           DAS      CMDTMP
000484:
000485: 20,2736           31745        YROUND             CAE      CMDTMP     +1                         #  ROUND UP FOR OUTPUT
000486: 20,2737           60000                           DOUBLE
000487: 20,2740           54001                           TS       L
000488: 20,2741           34714                           CAF      ZERO
000489: 20,2742           61744                           AD       CMDTMP
000490:
000491: 20,2743           03161        YACLIM             TCR      ACTLIM                                #  YAW ACTUATOR-COMMAND-LIMITER
000492:
000493: 20,2744           41632        YOUT               CS       YCMD                                  #  INCREMENTAL YAW COMMAND
000494: 20,2745           61744                           AD       CMDTMP
000495: 20,2746           26053                           ADS      TVCYAW                                #  UPDATE THE ERROR COUNTER (NO RESTART-
000496:                                                                                                  #        PROTECT, SINCE ERROR CNTR ZEROED)


000498: 20,2747           34677                           CAF      BIT12                                 #  BIT FOR TVCYAW COUNT RELEASE
000499: 20,2750           00006                           EXTEND
000500: 20,2751           05014                           WOR      CHAN14
000501: 20,2752           31466        Y2FILJMP           CAE      DAPDATR1                              #  CHECK FOR LEM-ON/-OFF
000502: 20,2753           74675                           MASK     BIT14                                 #  (BIT 14 INDICATES LEM IS ON)
000503: 20,2754           10000                           CCS      A
000504: 20,2755           12760                           TCF      +3                                    #  USE LEM-ON FILTER
000505: 20,2756           04574                           TC       POSTJUMP                              #  USE LEM-OFF (GEN3DAP) FILTER
000506: 20,2757           36440                           CADR     NY1NODE
000507: 20,2760           31742        CZSTORE            CAE      ERRBTMP                               #  PREPARE CZERO (UPPER WORD OF ERRBTMP)
000508: 20,2761           60000                           DOUBLE                                         #        FOR NUMERATOR LADDER....SC.AT B-1
000509: 20,2762           55717                           TS       C1TMP                                 #        SC.AT B-2 REVS FOR LADDER
000510: 20,2763           00006        YNLADDER           EXTEND                                         #  PREPARE TEMPORARIES, FOR UPDATING YAW
000511: 20,2764           31572                           DCA      C1                                    #        NUMERATOR LADDER
000512: 20,2765           53721                           DXCH     C2TMP
000513: 20,2766           00006                           EXTEND
000514: 20,2767           31574                           DCA      C3
000515: 20,2770           53723                           DXCH     C4TMP
000516: 20,2771           00006                           EXTEND
000517: 20,2772           31576                           DCA      C5
000518: 20,2773           53725                           DXCH     C6TMP
000519:
000520: 20,2774           03173        YNSUMC             TCR      NSUM                                  #  YAW NUMERATOR SUM
000521: 20,2775           00006        YDLADDER           EXTEND                                         #  PREPARE TEMPORARIES, FOR UPDATING YAW
000522: 20,2776           31600                           DCA      Y1                                    #        DENOMINATOR LADDER
000523: 20,2777           53731                           DXCH     Y2TMP
000524: 20,3000           00006                           EXTEND
000525: 20,3001           31602                           DCA      Y2
000526: 20,3002           53733                           DXCH     Y3TMP
000527: 20,3003           00006                           EXTEND
000528: 20,3004           31604                           DCA      Y3
000529: 20,3005           53735                           DXCH     Y4TMP
000530: 20,3006           00006                           EXTEND
000531: 20,3007           31606                           DCA      Y4
000532: 20,3010           53737                           DXCH     Y5TMP
000533: 20,3011           00006                           EXTEND
000534: 20,3012           31610                           DCA      Y5
000535: 20,3013           53741                           DXCH     Y6TMP
000536:
000537: 20,3014           03233        YDSUMC             TCR      DSUM                                  #  YAW DENOMINATOR SUM
000538:
000539: 20,3015           31744        DELBARY            CAE      CMDTMP                                #  UPDATE YAW OFFSET-TRACKER-FILTER
000540: 20,3016           00006                           EXTEND                                         #        (GEN3DAP RETURNS AT ..DELBARY..)
000541: 20,3017           73421                           MP       1-E(-AT)


000543: 20,3020           53716                           DXCH     DELBRTMP
000544: 20,3021           31623                           CAE      DELYBAR
000545: 20,3022           00006                           EXTEND
000546: 20,3023           73422                           MP       E(-AT)
000547: 20,3024           21716                           DAS      DELBRTMP
000548: 20,3025           31624                           CAE      DELYBAR    +1
000549: 20,3026           00006                           EXTEND
000550: 20,3027           73422                           MP       E(-AT)
000551: 20,3030           27716                           ADS      DELBRTMP   +1
000552: 20,3031           54001                           TS       L
000553: 20,3032           13034                           TCF      +2
000554: 20,3033           27715                           ADS      DELBRTMP
000555:
000556: 20,3034           03036        YCOPYCYC           TCR      YCOPY                                 #  YAW COPYCYCLE
000557:
000558: 20,3035           15222        YDAPEND            TCF      RESUME                                #  YAW DAP COMPLETED
000559:


000561:                                                                                                  #  YAW TVCDAP COPYCYCLE SUBROUTINE (CALLED VIA YAW   TVCDAP OR TVC RESTART PACKAGE)
000562:
000563: 20,3036           25654        YCOPY              INCR     TVCPHASE                              #  RESTART-PROTECT THE COPYCYCLE.
000564:                                                                                                  #        NOTE POSSIBLE RE-ENTRY FROM RESTART
000565:                                                                                                  #        PACKAGE, SHOULD A RESTART OCCUR
000566:                                                                                                  #        DURING YAW   COPYCYCLE.
000567:
000568: 20,3037           00006        NEWC(S)            EXTEND                                         #  UPDATE YAW   NUMERATOR LADDER FROM
000569: 20,3040           31720                           DCA      C1TMP                                 #        TEMPORARIES
000570: 20,3041           53572                           DXCH     C1
000571: 20,3042           00006                           EXTEND
000572: 20,3043           31722                           DCA      C3TMP
000573: 20,3044           53574                           DXCH     C3
000574: 20,3045           00006                           EXTEND
000575: 20,3046           31724                           DCA      C5TMP
000576: 20,3047           53576                           DXCH     C5
000577:
000578: 20,3050           00006        NEWY(S)            EXTEND                                         #  UPDATE YAW   DENOMINATOR LADDER FROM
000579: 20,3051           31727                           DCA      Y1TMP                                 #        TEMPORARIES
000580: 20,3052           53600                           DXCH     Y1
000581: 20,3053           00006                           EXTEND
000582: 20,3054           31731                           DCA      Y2TMP
000583: 20,3055           53602                           DXCH     Y2
000584: 20,3056           00006                           EXTEND
000585: 20,3057           31733                           DCA      Y3TMP
000586: 20,3060           53604                           DXCH     Y3
000587: 20,3061           00006                           EXTEND
000588: 20,3062           31735                           DCA      Y4TMP
000589: 20,3063           53606                           DXCH     Y4
000590: 20,3064           00006                           EXTEND                                         #        (ALSO NY1TMP,+1 TO NY1,+1)
000591: 20,3065           31737                           DCA      Y5TMP
000592: 20,3066           53610                           DXCH     Y5
000593:
000594: 20,3067           00006        YMISC              EXTEND                                         #  MISC....YAW-RATE-ERROR INTEGRATOR
000595: 20,3070           31743                           DCA      ERRBTMP
000596: 20,3071           55500                           TS       AK2                                   #        FOR YAW   NEEDLES, SC.AT B-1 REVS
000597: 20,3072           53620                           DXCH     YERRB
000598:
000599: 20,3073           00006                           EXTEND                                         #        YAW     NUMERATOR SUM
000600: 20,3074           31712                           DCA      NSUMTMP                               #                (ALSO NY2TMP,+1 TO NY2,+1)
000601: 20,3075           53566                           DXCH     YNSUM
000602:
000603: 20,3076           00006                           EXTEND                                         #        YAW     DENOMINATOR SUM
000604: 20,3077           31714                           DCA      DSUMTMP                               #                (ALSO NY3TMP,+1 TO NY3,+1)
000605: 20,3100           53570                           DXCH     YDSUM
000606:
000607: 20,3101           31744                           CAE      CMDTMP                                #        YAW     ACTUATOR COMMAND
000608: 20,3102           55632                           TS       YCMD
000609:
000610: 20,3103           00006                           EXTEND                                         #        YAW     OFFSET-TRACKER-FILTER


000612: 20,3104           31716                           DCA      DELBRTMP
000613: 20,3105           53624                           DXCH     DELYBAR
000614: 20,3106           34714                           CAF      ZERO                                  #  YAW   COPYCYCLE COMPLETED
000615: 20,3107           55654                           TS       TVCPHASE                              #        RESET TVCPHASE
000616:
000617: 20,3110           00002                           TC       Q
000618:


000620:                                                                                                  #  SUBROUTINES COMMON TO BOTH PITCH AND YAW DAPS....
000621:                                                                                                  #  INITIALIZATION PACKAGE FOR CDURATES....
000622:
000623: 20,3111           22016        DAPINIT            LXCH     BANKRUPT                              #  T5 RUPT ENTRY (CALLED BY TVCINT4)
000624:
000625: 20,3112           37716                           CAF      NEGONE                                #        SET UP
000626: 20,3113           61635                           AD       T5TVCDT                               #        T5 CALL FOR PITCHDAP IN TVCDT SECS
000627: 20,3114           64674                           AD       NEGMAX                                #        (T5TVCDT = POSMAX - TVCDT/2 +1)
000628: 20,3115           61635                           AD       T5TVCDT
000629: 20,3116           54030                           TS       TIME5
000630: 20,3117           33416                           CAF      PITCHT5                               #        (BBCON ALREADY THERE)
000631: 20,3120           55312                           TS       T5LOC
000632:
000633: 20,3121           30033                           CAE      CDUY                                  #  READ AND STORE CDUS FOR DIFFERENTIATOR
000634: 20,3122           55655                           TS       PCDUYPST                              #        PAST-VALUES
000635: 20,3123           30034                           CAE      CDUZ
000636: 20,3124           55656                           TS       PCDUZPST
000637:
000638: 20,3125           15224                           TCF      NOQRSM
000639:
000640:                                                                                                  #  BODY-AXIS-ERROR   INPUT LIMITER PACKAGE....
000641:
000642: 20,3126           31742        ERRORLIM           CAE      ERRBTMP                               #  CHECK FOR INPUT-ERROR LIMIT
000643: 20,3127           00006                           EXTEND                                         #        CHECKS UPPER WORD ONLY
000644: 20,3130           74710                           MP       1/ERRLIM
000645: 20,3131           00006                           EXTEND
000646: 20,3132           13140                           BZF      +6
000647: 20,3133           11742                           CCS      ERRBTMP
000648: 20,3134           34676                           CAF      ERRLIM
000649: 20,3135           13137                           TCF      +2
000650: 20,3136           44676                           CS       ERRLIM
000651: 20,3137           55742                           TS       ERRBTMP                               #  LIMIT WRITES OVER UPPER WORD ONLY
000652:
000653: 20,3140           00002                           TC       Q
000654:
000655:                                                                                                  #  VARIABLE-GAIN PACKAGE....
000656:
000657: 20,3141           31744        OPTVARK            CAE      CMDTMP                                #  VARIABLE-GAIN PACKAGE....CMDTMP CONTAINS
000658: 20,3142           00006                           EXTEND                                         #        JZERO OR YZERO
000659: 20,3143           71651                           MP       VARK                                  #  VARIABLE-GAIN, SC.AT 4 ASCREV/SPASCREV
000660: 20,3144           53745                           DXCH     CMDTMP
000661: 20,3145           22000                           LXCH     A                                     #  LO-ORDER WORD OF INPUT CMDTMP
000662: 20,3146           00006                           EXTEND
000663: 20,3147           71651                           MP       VARK
000664: 20,3150           27745                           ADS      CMDTMP     +1
000665: 20,3151           54001                           TS       L


000667: 20,3152           13154                           TCF      +2
000668: 20,3153           27744                           ADS      CMDTMP
000669:
000670: 20,3154           53745                           DXCH     CMDTMP                                #  FIX UP SCALING
000671: 20,3155           20001                           DDOUBL
000672: 20,3156           20001                           DDOUBL
000673: 20,3157           53745                           DXCH     CMDTMP
000674:
000675: 20,3160           00002                           TC       Q
000676:
000677:                                                                                                  #  ACTUATOR-COMMAND LIMITER PACKAGE....
000678:
000679: 20,3161           00006        ACTLIM             EXTEND                                         #  CHECK FOR ACTUATOR COMMAND LIMIT
000680: 20,3162           73414                           MP       1/ACTSAT
000681: 20,3163           00006                           EXTEND
000682: 20,3164           13172                           BZF      +6
000683: 20,3165           11744                           CCS      CMDTMP                                #  APPLY LIMITS
000684: 20,3166           33413                           CAF      ACTSAT
000685: 20,3167           13171                           TCF      +2
000686: 20,3170           43413                           CS       ACTSAT
000687: 20,3171           55744                           TS       CMDTMP                                #  LIMITS WRITE OVER CMDTMP
000688:
000689: 20,3172           00002                           TC       Q
000690:
000691:                                                                                                  #  NUMERATOR-SUM COMPUTATION....
000692:
000693: 20,3173           31717        NSUM               CAE      B1TMP                                 #  PREPARE NUMERATOR SUM, SCALING IS AT
000694: 20,3174           00006                           EXTEND                                         #        B+0 REVS ( = B+2 X B-2 )
000695: 20,3175           73423                           MP       N1
000696: 20,3176           53712                           DXCH     NSUMTMP
000697:
000698: 20,3177           31720                           CAE      B2TMP
000699: 20,3200           00006                           EXTEND
000700: 20,3201           73424                           MP       N2
000701: 20,3202           21712                           DAS      NSUMTMP
000702:
000703: 20,3203           31721                           CAE      B3TMP
000704: 20,3204           00006                           EXTEND
000705: 20,3205           73425                           MP       N3
000706: 20,3206           21712                           DAS      NSUMTMP
000707:
000708: 20,3207           31722                           CAE      B4TMP
000709: 20,3210           00006                           EXTEND
000710: 20,3211           73426                           MP       N4
000711: 20,3212           21712                           DAS      NSUMTMP
000712:
000713: 20,3213           31723                           CAE      B5TMP
000714: 20,3214           00006                           EXTEND


000716: 20,3215           73427                           MP       N5
000717: 20,3216           21712                           DAS      NSUMTMP
000718:
000719: 20,3217           31724                           CAE      B6TMP
000720: 20,3220           00006                           EXTEND
000721: 20,3221           73430                           MP       N6
000722: 20,3222           21712                           DAS      NSUMTMP
000723:
000724: 20,3223           31725                           CAE      B7TMP
000725: 20,3224           00006                           EXTEND
000726: 20,3225           73431                           MP       N7
000727: 20,3226           21712                           DAS      NSUMTMP
000728:
000729: 20,3227           53712        NSUMSC             DXCH     NSUMTMP                               #  FIX UP SCALING (NOW AT B+0 REVS)
000730: 20,3230           20001                           DDOUBL
000731: 20,3231           53712                           DXCH     NSUMTMP                               #  SC.AT B-1 REV
000732:
000733: 20,3232           00002                           TC       Q
000734:
000735:                                                                                                  #  DENOMINATOR-SUM COMPUTATION....
000736:
000737: 20,3233           31726        DSUM               CAE      J1TMP                                 #  PREPARE DENOMINATOR SUM, SCALED
000738: 20,3234           00006                           EXTEND                                         #        AT B+1 SPASCREVS ( = B+4 X B-3)
000739: 20,3235           73432                           MP       D1                                    #        (J1TMP = J,YZERO, SC.AT B-3 REVS)
000740: 20,3236           53714                           DXCH     DSUMTMP
000741: 20,3237           31726                           CAE      J1TMP
000742: 20,3240           00006                           EXTEND
000743: 20,3241           73433                           MP       D1         +1
000744: 20,3242           27714                           ADS      DSUMTMP    +1
000745: 20,3243           54001                           TS       L
000746: 20,3244           13246                           TCF      +2
000747: 20,3245           27713                           ADS      DSUMTMP
000748: 20,3246           31727                           CAE      J1TMP      +1
000749: 20,3247           00006                           EXTEND
000750: 20,3250           73432                           MP       D1
000751: 20,3251           27714                           ADS      DSUMTMP    +1
000752: 20,3252           54001                           TS       L
000753: 20,3253           13255                           TCF      +2
000754: 20,3254           27713                           ADS      DSUMTMP
000755:
000756: 20,3255           31730        D2J2               CAE      J2TMP
000757: 20,3256           00006                           EXTEND
000758: 20,3257           73434                           MP       D2
000759: 20,3260           21714                           DAS      DSUMTMP
000760: 20,3261           31730                           CAE      J2TMP
000761: 20,3262           00006                           EXTEND
000762: 20,3263           73435                           MP       D2         +1
000763: 20,3264           27714                           ADS      DSUMTMP    +1
000764: 20,3265           54001                           TS       L


000766: 20,3266           13270                           TCF      +2
000767: 20,3267           27713                           ADS      DSUMTMP
000768: 20,3270           31731                           CAE      J2TMP      +1
000769: 20,3271           00006                           EXTEND
000770: 20,3272           73434                           MP       D2
000771: 20,3273           27714                           ADS      DSUMTMP    +1
000772: 20,3274           54001                           TS       L
000773: 20,3275           13277                           TCF      +2
000774: 20,3276           27713                           ADS      DSUMTMP
000775:
000776: 20,3277           31732        D3J3               CAE      J3TMP
000777: 20,3300           00006                           EXTEND
000778: 20,3301           73436                           MP       D3
000779: 20,3302           21714                           DAS      DSUMTMP
000780: 20,3303           31732                           CAE      J3TMP
000781: 20,3304           00006                           EXTEND
000782: 20,3305           73437                           MP       D3         +1
000783: 20,3306           27714                           ADS      DSUMTMP    +1
000784: 20,3307           54001                           TS       L
000785: 20,3310           13312                           TCF      +2
000786: 20,3311           27713                           ADS      DSUMTMP
000787: 20,3312           31733                           CAE      J3TMP      +1
000788: 20,3313           00006                           EXTEND
000789: 20,3314           73436                           MP       D3
000790: 20,3315           27714                           ADS      DSUMTMP    +1
000791: 20,3316           54001                           TS       L
000792: 20,3317           13321                           TCF      +2
000793: 20,3320           27713                           ADS      DSUMTMP
000794:
000795: 20,3321           31734        D4J4               CAE      J4TMP
000796: 20,3322           00006                           EXTEND
000797: 20,3323           73440                           MP       D4
000798: 20,3324           21714                           DAS      DSUMTMP
000799: 20,3325           31734                           CAE      J4TMP
000800: 20,3326           00006                           EXTEND
000801: 20,3327           73441                           MP       D4         +1
000802: 20,3330           27714                           ADS      DSUMTMP    +1
000803: 20,3331           54001                           TS       L
000804: 20,3332           13334                           TCF      +2
000805: 20,3333           27713                           ADS      DSUMTMP
000806: 20,3334           31735                           CAE      J4TMP      +1
000807: 20,3335           00006                           EXTEND
000808: 20,3336           73440                           MP       D4
000809: 20,3337           27714                           ADS      DSUMTMP    +1
000810: 20,3340           54001                           TS       L
000811: 20,3341           13343                           TCF      +2
000812: 20,3342           27713                           ADS      DSUMTMP
000813:
000814: 20,3343           31736        D5J5               CAE      J5TMP
000815: 20,3344           00006                           EXTEND


000817: 20,3345           73442                           MP       D5
000818: 20,3346           21714                           DAS      DSUMTMP
000819: 20,3347           31736                           CAE      J5TMP
000820: 20,3350           00006                           EXTEND
000821: 20,3351           73443                           MP       D5         +1
000822: 20,3352           27714                           ADS      DSUMTMP    +1
000823: 20,3353           54001                           TS       L
000824: 20,3354           13356                           TCF      +2
000825: 20,3355           27713                           ADS      DSUMTMP
000826: 20,3356           31737                           CAE      J5TMP      +1
000827: 20,3357           00006                           EXTEND
000828: 20,3360           73442                           MP       D5
000829: 20,3361           27714                           ADS      DSUMTMP    +1
000830: 20,3362           54001                           TS       L
000831: 20,3363           13365                           TCF      +2
000832: 20,3364           27713                           ADS      DSUMTMP
000833:
000834: 20,3365           31740        D6J6               CAE      J6TMP
000835: 20,3366           00006                           EXTEND
000836: 20,3367           73444                           MP       D6
000837: 20,3370           21714                           DAS      DSUMTMP
000838: 20,3371           31740                           CAE      J6TMP
000839: 20,3372           00006                           EXTEND
000840: 20,3373           73445                           MP       D6         +1
000841: 20,3374           27714                           ADS      DSUMTMP    +1
000842: 20,3375           54001                           TS       L
000843: 20,3376           13400                           TCF      +2
000844: 20,3377           27713                           ADS      DSUMTMP
000845: 20,3400           31741                           CAE      J6TMP      +1
000846: 20,3401           00006                           EXTEND
000847: 20,3402           73444                           MP       D6
000848: 20,3403           27714                           ADS      DSUMTMP    +1
000849: 20,3404           54001                           TS       L
000850: 20,3405           13407                           TCF      +2
000851: 20,3406           27713                           ADS      DSUMTMP
000852:
000853: 20,3407           53714        DSUMSC             DXCH     DSUMTMP                               #  FIX UP SCALING (NOW AT B+1 SPASCREV)
000854: 20,3410           20001                           DDOUBL
000855: 20,3411           53714                           DXCH     DSUMTMP                               #  SC.AT B+0 SPASCREV
000856:
000857: 20,3412           00002                           TC       Q
000858:


000860:                                                                                                  #  CONSTANTS FOR AUTOPILOTS
000861:                                                                                                  #  NOTE....1 ASCREV (ACTUATOR CMD SCALING) = 85.41 ARCSEC/BIT OR 1.07975111 REVS (85.41X16384/3600/360)
000862:                                                                                                  #          1 SPASCREV (SPECIAL ACTUATOR CMD SCALING) = 1.04620942 REVS
000863:
000864: 20,3413           00375        ACTSAT             DEC      253        B-14                       #  ACTUATOR LIMIT (6 DEG), SC.AT 1ASCREV
000865: 20,3414           00101        1/ACTSAT           DEC      .0039525692                            #  RECIPROCAL (1/253)
000866:
000867: 20,3415     4676               ERRLIM             EQUALS   BIT13                                 #  FILTER INPUT LIMIT....B-3 REVS (45DEG),
000868: 20,3415     4710               1/ERRLIM           EQUALS   BIT3                                  #        SC.AT B-1 REV, AND ITS RECIPROCAL
000869:
000870: 20,3415           00115        1/RTLIM            DEC      0.004715                              #  .004715(CDUDIF) =0 IF CDUDIF < 2.33 DEG
000871:
000872: 20,3416     4727               KPDN               =        DEC45                                 #  DESIGN-NOMINAL FILTER GAIN, SC.AT B+1
000873: 20,3416     4727               KYDN               =        KPDN                                  #        SPASCREV (FOR DEC45 BITS EXACTLY)
000874:                                                                                                  #                KPDN = .005747 DEG/DEG
000875:                                                                                                  #                SCALED KPDN = DEC45
000876:                                                                                                  #                1SPASCREV = KPDN(B+14)/(2X45)
000877:                                                                                                  #                          = 1.04620942 REVS
000878:
000879: 20,3416           02327        PITCHT5            GENADR   PITCHDAP                              #  UPPER WORDS OF T5 2CADRS, LOWER WORDS
000880: 20,3417           03111        DAPT5              GENADR   DAPINIT                               #        (BBCON) ALREADY THERE.  ORDER IS
000881: 20,3420           02632        YAWT5              GENADR   YAWDAP                                #        REQUIRED.
000882: 20,3421           00243        1-E(-AT)           OCT      00243                                 #  AT = .01SEC....EITHER(1/A=4SEC, T=40MS),
000883: 20,3422           37535        E(-AT)             OCT      37535                                 #                     OR(1/A=8SEC, T=80MS)
000884:
000885: 20,3423           50166        N1                 DEC      -2.9708385 B-2                        #  NUMERATOR COEFS (CSM/LEM), SC.AT B+2
000886: 20,3424           31436        N2                 DEC      3.1947342  B-2
000887: 20,3425           74561        N3                 DEC      -0.40962906 B-2
000888: 20,3426           53277        N4                 DEC      -2.5780275 B-2
000889: 20,3427           27550        N5                 DEC      2.9629319  B-2
000890: 20,3430           63725        N6                 DEC      -1.5101470 B-2
000891: 20,3431           02400        N7                 DEC      0.31243224 B-2
000892:
000893: 20,3432           66341 54237  D1                 2DEC     -4.7798977 B-4                        #  DENOMINATOR COEFS (CSM/LEM), SC.AT B+4


000895: 20,3434           22707 36641  D2                 2DEC     9.4452763  B-4
000896: 20,3436           54220 40714  D3                 2DEC     -9.8593475 B-4
000897: 20,3440           13344 21146  D4                 2DEC     5.7231811  B-4
000898: 20,3442           74401 61760  D5                 2DEC     -1.7484750 B-4
000899: 20,3444           00340 23073  D6                 2DEC     0.21933335 B-4
000900:

End of include-file TVCDAPS.agc.  Parent file is MAIN.agc


