
Source Code


000002:                                                                                                  ## Copyright:   Public domain.
000003:                                                                                                  ## Filename:    TVCGEN3FILTERS.agc
000004:                                                                                                  ## Purpose:     Part of the source code for Colossus, build 249.
000005:                                                                                                  ##              It is part of the source code for the Command Module's (CM)
000006:                                                                                                  ##              Apollo Guidance Computer (AGC), for Apollo 9.
000007:                                                                                                  ## Assembler:   yaYUL
000008:                                                                                                  ## Reference:   Starts on p. 961
000009:                                                                                                  ## Contact:     Ron Burkey <info@sandroid.org>.
000010:                                                                                                  ## Website:     www.ibiblio.org/apollo/index.html
000011:                                                                                                  ## Mod history: 08/24/04 RSB.   Began transcribing.
000012:                                                                                                  ##              05/14/05 RSB    Corrected website references above.
000013:                                                                                                  ##              2010-10-25 JL   Fixed page numbers.
000014:                                                                                                  ##              2017-01-06 RSB  Page numbers now agree with those on the
000015:                                                                                                  ##                              original harcopy, as opposed to the PDF page
000016:                                                                                                  ##                              numbers in 1701.pdf.
000017:                                                                                                  ##              2017-01-20 RSB  Cross-diff'd comment text (not whitespace)
000018:                                                                                                  ##                              vs the already-proofed corresponding Colossus
000019:                                                                                                  ##                              237 source-code files, and corrected errors found.
000020:                                                                                                  ##
000021:                                                                                                  ## The contents of the "Colossus249" files, in general, are transcribed
000022:                                                                                                  ## from a scanned copy of the program listing.  Notations on this
000023:                                                                                                  ## document read, in part:
000024:                                                                                                  ##
000025:                                                                                                  ##      Assemble revision 249 of AGC program Colossus by NASA
000026:                                                                                                  ##      2021111-041.  October 28, 1968.
000027:                                                                                                  ##
000028:                                                                                                  ##      This AGC program shall also be referred to as
000029:                                                                                                  ##                              Colossus 1A
000030:                                                                                                  ##
000031:                                                                                                  ##      Prepared by
000032:                                                                                                  ##                      Massachusetts Institute of Technology
000033:                                                                                                  ##                      75 Cambridge Parkway
000034:                                                                                                  ##                      Cambridge, Massachusetts
000035:                                                                                                  ##      under NASA contract NAS 9-4065.
000036:                                                                                                  ##
000037:                                                                                                  ## Refer directly to the online document mentioned above for further information.
000038:                                                                                                  ## Please report any errors (relative to the scanned pages) to info@sandroid.org.
000039:                                                                                                  ##
000040:                                                                                                  ## In some cases, where the source code for Luminary 131 overlaps that of
000041:                                                                                                  ## Colossus 249, this code is instead copied from the corresponding Luminary 131
000042:                                                                                                  ## source file, and then is proofed to incorporate any changes.
000043:


000045:                                                                                                  #  PROGRAM NAME.... GEN3DAP FILTERS, CONSISTING OF NP0NODE, NP1NODE, NY0NODE, NY1NODE, ETC.
000046:                                                                                                  #  LOG SECTION.... GEN3DAP FILTERS               SUBROUTINE....DAPCSM
000047:                                                                                                  #  MOD BY ENGEL                                  20 OCT, 1967
000048:
000049:
000050:                                                                                                  #  FUNCTIONAL DESCRIPTION....
000051:
000052:                                                                                                  #  THE GEN3DAP FILTER PACKAGE IS DESIGNED TO PROVIDE FLEXIBLE, LAST-MINUTE CHANGEABLE DIGITAL AUTOPILOT
000053:                                                                                                  #  FILTERS FOR LEM-OFF FLIGHT.  GROUNDRULES FOR THE DESIGN AND USE OF THE PACKAGE ARE AS FOLLOWS.....
000054:
000055:                                                                                                  #        1. FILTER COEFFICIENTS AND GAINS IN ERASABLE MEMORY
000056:                                                                                                  #        2. UP TO THIRD-ORDER NUMERATOR OR DENOMINATOR
000057:                                                                                                  #        3. OPERATIONAL FIT WITHIN THE STRUCTURE OF THE REGULAR LEM-ON DAP CODING
000058:                                                                                                  #        4. DENOMINATOR POLES INSIDE THE Z-PLANE UNIT CIRCLE
000059:                                                                                                  #        5. NUMERATOR ZEROS INSIDE THE Z-PLANE DOUBLE-UNIT CIRCLE
000060:                                                                                                  #        6. HIGH FREQUENCY (BODE) GAIN LESS THAN 8ASCREVS, OR 8.6380088 DEG/DEG
000061:
000062:                                                                                                  #  THE FILTERS ARE SHOWN IN THE FOLLOWING DIAGRAMS.....
000063:                                                                                                  #  PITCH GEN3DAP FILTER..
000064:                                                                                                  #                                                              KPGEN3
000065:                                                                                                  #                                                             ********
000066:                                                                                                  #                *****************************************           *
000067:                                                                                                  #                *                                       *           *
000068:                                                                                                  #                *               -1        -2        -3  *           *
000069:                                                                                                  #   EP = ERRBTMP *    APO + AP1 Z   + AP2 Z   + AP3 Z    *    NPO          NPD = CMDTMP  **
000070:                                                                                                  #  ***************  -----------------------------------  **********( X )*********************
000071:                                                                                                  #                *               -1        -2        -3  *                               **
000072:                                                                                                  #                *      1 + BP1 Z   + BP2 Z   + BP3 Z    *
000073:                                                                                                  #                *                                       *
000074:                                                                                                  #                *****************************************
000075:
000076:                                                                                                  #  YAW GEN3DAP FILTER..
000077:                                                                                                  #                                                              KYGEN3
000078:                                                                                                  #                                                             ********
000079:                                                                                                  #                *****************************************           *
000080:                                                                                                  #                *                                       *           *
000081:                                                                                                  #                *               -1        -2        -3  *           *
000082:                                                                                                  #   EY = ERRBTMP *    AYO + AY1 Z   + AY2 Z   + AY3 Z    *    NY0          NYP = CMDTMP  **
000083:                                                                                                  #  ***************  -----------------------------------  **********( X )*********************
000084:                                                                                                  #                *               -1        -2        -3  *                               **
000085:                                                                                                  #                *      1 + BY1 Z   + BY2 Z   + BY3 Z    *
000086:                                                                                                  #                *                                       *
000087:                                                                                                  #                *****************************************
000088:


000090:                                                                                                  #  THE IMPLEMENTING EQUATIONS FOR THESE FILTERS ARE AS FOLLOWS.....
000091:
000092:                                                                                                  #        PITCH GEN3DAP....                               YAW GEN3DAP....
000093:                                                                                                  #                NPD = (B+4) KPGEN3 NP0                          NYD = (B+4) KYGEN3 NY0
000094:                                                                                                  #                NP0 = AP0 EP           + 4(Z-1) NP1             NY0 = AY0 EY           + 4(Z-1) NY1
000095:                                                                                                  #                NY1 = AP1 EP - BP1 NP0 +  (Z-1) NP2             NY1 = AY1 EY - BY1 NY0 +  (Z-1) NY2
000096:                                                                                                  #                NP2 = AP2 EP - BP2 NP0 +  (Z-1) NP3             NY2 = AY2 EY - BY2 NY0 +  (Z-1) NY3
000097:                                                                                                  #                NP3 = AP3 EP - BP3 NP0                          NY3 = AY3 EY - BY3 NY0
000098:
000099:                                                                                                  #  FILTER INPUTS EP AND EY ARE PICKED UP FROM REGULAR LEM-ON CODING AT ERRBTMP (UPPER WORD ONLY), THUS ARE
000100:                                                                                                  #  SINGLE PRECISION QUANTITIES SCALED AT B-1 REVS.  FILTER OUTPUTS NPD AND NYD ARE LEFT IN DOUBLE PRECISION AT
000101:                                                                                                  #  CMDTMP, SCALED AT 1 ASCREV, READY FOR OUTPUT PROCESSING VIA REGULAR LEM-ON CODING AT ..P,YOFFSET..
000102:                                                                                                  #  FOLLOWING OUTPUT PROCESSING, RETURN TO THE GEN3DAP FILTERS IS MADE FOR CALCULATION OF THE REMAINING NODES
000103:                                                                                                  #  NP1 TO NP3, OR NY1 TO NY3.  GEN3DAP FILTERS THEN RETURN TOTHE LEM-ON CODING AT ..DELBARP,Y..  FOR RESPECTIVE
000104:                                                                                                  #  OFFSET-TRACKER-FILTER COMPUTATIONS AND COPYCYCLES.  NOTE THE EQUIVALENCES...NP1TMP=J5TMP, NP1=J5,
000105:                                                                                                  #  NP2TMP=NSUMTMP, NP2=PNSUM, NP3TMP=DSUMTMP, NP3=PDSUM, WITH CORRESPONDING RELATIONS FOR YAW.  THUS THE COPY-
000106:                                                                                                  #  CYCLE PCOPY, FROM THE GEN3DAP STANDPOINT, IS EFFECTIVE FROM PMISC-3 TO ITS END AT TC Q.  YCOPY FROM YMISC-3.
000107:                                                                                                  #  SCALING OF THE FILTER NODES, COEFFICIENTS, AND GAINS WITHIN THE AGC IS AS FOLLOWS.....
000108:
000109:                                                                                                  #        QUANTITY        QUANTITY        PHYS. UNITS     MAX. VALUE      SCALE AT (FOR)
000110:
000111:                                                                                                  #        EP              EY              REVS            1/8             B-1 REV         (CDU SCALING)
000112:                                                                                                  #
000113:                                                                                                  #        NP0             NY0             REVS            (B+1)           B+1 REV
000114:                                                                                                  #        NP1             NY1             REVS            (B+3)           B+3 REV
000115:                                                                                                  #        NP2             NY2             REVS            (B+3)           B+3 REV
000116:                                                                                                  #        NP3             NY3             REVS            (B+3)           B+3 REV
000117:
000118:                                                                                                  #        NPD             NYD             ASC REVS        (1)             1 ASCREV        (ACTUATOR CDU SCALING)
000119:                                                                                                  #
000120:                                                                                                  #        KPGEN3          KYGEN3          ASCREV/REV      (8)             B+3 ASCREV/REV
000121:
000122:                                                                                                  #        AP0             AY0             DIMLESS.        1               B+2
000123:                                                                                                  #        AP1             AY1             DIMLESS.        6               B+4
000124:                                                                                                  #        AP2             AY2             DIMLESS.        12              B+4
000125:                                                                                                  #        AP3             AY3             DIMLESS.        8               B+4
000126:
000127:                                                                                                  #        BP1             BY1             DIMLESS.        3               B+2
000128:                                                                                                  #        BP2             BY2             DIMLESS.        3               B+2
000129:                                                                                                  #        BP3             BY3             DIMLESS.        1               B+2
000130:
000131:                                                                                                  #  FILTER COEFFICIENTS, GAINS, AND NODES ARE HELD IN DOUBLE PRECISION (ERASABLE) TO PERMIT CONSERVATIVE
000132:                                                                                                  #  SCALING AND YET OFFSET TRUNCATION LOSSES.  THIS APPEARS NECESSARY IF FILTER FLEXIBILITY IS TO BE MAINTAINED.
000133:                                                                                                  #  COMPUTATION TIME IS NOT CRITICAL.
000134:


000136:                                                                                                  #  CALLING SEQUENCE....
000137:                                                                                                  #
000138:                                                                                                  #       *TC POSTJUMP....
000139:                                                                                                  #        CADR NP0NODE, NP1, NY0, NY1.  SPECIFICALLY, FROM PITCHDAP OR YAWDAP
000140:                                                                                                  #        (TVCDAP), AT P1FILJMP, P2FILJMP, Y1FILJMP, Y2FILJMP
000141:
000142:                                                                                                  #  NORMAL EXIT MODE....
000143:
000144:                                                                                                  #       *TC POSTJUMP....
000145:                                                                                                  #        CADR (POFFSET, DELBARP), (YOFFSET, DELBARY).  IE, RETURNS TO
000146:                                                                                                  #        PITCHDAP OR YAWDAP AT APPROPRIATE ENTRY POINT
000147:
000148:                                                                                                  #  ALARM OR ABORT EXIT MODES....NONE
000149:
000150:                                                                                                  #  SUBROUTINES CALLED.... NONE
000151:
000152:                                                                                                  #  ERASABLE INITIALIZATION REQUIRED....
000153:
000154:                                                                                                  #       *AP0(SP),AP1(DP),...AP3(DP), (PITCH AND YAW) NUMERATOR COEFFICIENTS
000155:                                                                                                  #        (PAD LOADS)
000156:
000157:                                                                                                  #       *BP1(DP),...BP3(DP), (PITCH AND YAW) DENOMINATOR COEFFICIENTS
000158:                                                                                                  #        (PAD LOADS)
000159:
000160:                                                                                                  #       *KPGEN3 (S40.15 OF R03)
000161:
000162:                                                                                                  #  OUTPUT....
000163:
000164:                                                                                                  #       *CMDTMP (NPD, NYD) FOR OUTPUT PROCESSING BY PITCHDAP OR YAWDAP
000165:
000166:                                                                                                  #       *OTHER FILTER NODES
000167:
000168:                                                                                                  #  DEBRIS....TVC TEMPORARIES, SHAREABLE WITH RCS/ENTRY IN EBANK6 ONLY
000169:
000170: 21,2026                                           BANK     21
000171: 17,2000                                           SETLOC   DAPS4
000172: 17,2000                                           BANK
000173: 17,2213  E6,1742                                  EBANK=   EP
000174: 17,2213                                           COUNT*   $$/GEN3
000175:


000177:                                                                                                  #  PITCH GEN3DAP FILTER.....
000178:
000179: 17,2213           00006        NP0NODE            EXTEND                                         #  FORM NODE NP0....COLLECT (PAST NP1)
000180: 17,2214           31564                           DCA      NP1                                   #        (COMES HERE FROM REG. DAP CODING)
000181: 17,2215           20001                           DDOUBL
000182: 17,2216           20001                           DDOUBL
000183: 17,2217           53562                           DXCH     NP0
000184:
000185: 17,2220           31742        AP0(EP)            CAE      EP                                    #  SPXSP MULTIPLY FOR NUMERATOR COMPONENT
000186: 17,2221           00006                           EXTEND                                         #        EP = ERRBTMP, SP, SC.AT B-1 REVS
000187: 17,2222           71427                           MP       AP0
000188: 17,2223           21562                           DAS      NP0                                   #  COMPLETED NODE NP0, SC.AT B+1 REVS
000189: 17,2224           31561        NPDNODE            CAE      NP0                                   #  FORM NODE NPD....SPXDP MULTIPLY BY GAIN
000190: 17,2225           00006                           EXTEND
000191: 17,2226           71651                           MP       KPGEN3
000192: 17,2227           53745                           DXCH     NPD
000193: 17,2230           31562                           CAE      NP0        +1
000194: 17,2231           00006                           EXTEND
000195: 17,2232           71651                           MP       KPGEN3
000196: 17,2233           22007                           ZL
000197: 17,2234           22000                           LXCH     A
000198: 17,2235           21745                           DAS      NPD                                   #  SC.AT B+4 ASCREV SINCE KPGEN3 AT B+3
000199:
000200: 17,2236           53745                           DXCH     NPD                                   #  FIX UP SCALING
000201: 17,2237           20001                           DDOUBL
000202: 17,2240           20001                           DDOUBL
000203: 17,2241           20001                           DDOUBL
000204: 17,2242           20001                           DDOUBL
000205: 17,2243           53745                           DXCH     NPD                                   #  COMPLETED NODE NPD, SC.AT 1ASCREV
000206: 17,2244           04574                           TC       POSTJUMP                              #  TRANSFER BACK TO REGULAR DAP CODING FOR
000207: 17,2245           40441                           CADR     POFFSET                               #        OUTPUT (NPD = CMDTMP, DP)
000208: 17,2246           00006        NP1NODE            EXTEND                                         #  FORM NODE NP1....COLLECT (PAST NP2)
000209: 17,2247           31542                           DCA      NP2                                   #        (COMES HERE FROM REG. DAP CODING)
000210: 17,2250           53737                           DXCH     NP1TMP
000211:
000212: 17,2251           41561        BP1(NP0)           CS       NP0                                   #  DPXDP MULTIPLY FOR DENOMINATOR COMPONENT
000213: 17,2252           00006                           EXTEND
000214: 17,2253           71436                           MP       BP1
000215: 17,2254           21737                           DAS      NP1TMP
000216: 17,2255           41562                           CS       NP0        +1
000217: 17,2256           00006                           EXTEND
000218: 17,2257           71436                           MP       BP1
000219: 17,2260           27737                           ADS      NP1TMP     +1
000220: 17,2261           54001                           TS       L
000221: 17,2262           12264                           TCF      +2
000222: 17,2263           27736                           ADS      NP1TMP


000224: 17,2264           41561                           CS       NP0
000225: 17,2265           00006                           EXTEND
000226: 17,2266           71437                           MP       BP1        +1
000227: 17,2267           27737                           ADS      NP1TMP     +1
000228: 17,2270           54001                           TS       L
000229: 17,2271           12273                           TCF      +2
000230: 17,2272           27736                           ADS      NP1TMP
000231:
000232: 17,2273           31742        AP1(EP)            CAE      EP                                    #  DPXSP MULTIPLY FOR NUMERATOR COMPONENT
000233: 17,2274           00006                           EXTEND
000234: 17,2275           71430                           MP       AP1
000235: 17,2276           21737                           DAS      NP1TMP
000236: 17,2277           31742                           CAE      EP
000237: 17,2300           00006                           EXTEND
000238: 17,2301           71431                           MP       AP1        +1
000239: 17,2302           27737                           ADS      NP1TMP     +1
000240: 17,2303           54001                           TS       L
000241: 17,2304           12306                           TCF      +2
000242: 17,2305           27736                           ADS      NP1TMP                                #  COMPLETED NODE NP1
000243:
000244: 17,2306           00006        NP2NODE            EXTEND                                         #  FORM NODE NP2....COLLECT (PAST NP3)
000245: 17,2307           31544                           DCA      NP3
000246: 17,2310           53712                           DXCH     NP2TMP
000247: 17,2311           41561        BP2(NP0)           CS       NP0                                   #  DPXDP MULTIPLY FOR DENOMINATOR COMPONENT
000248: 17,2312           00006                           EXTEND
000249: 17,2313           71440                           MP       BP2
000250: 17,2314           21712                           DAS      NP2TMP
000251: 17,2315           41562                           CS       NP0        +1
000252: 17,2316           00006                           EXTEND
000253: 17,2317           71440                           MP       BP2
000254: 17,2320           27712                           ADS      NP2TMP     +1
000255: 17,2321           54001                           TS       L
000256: 17,2322           12324                           TCF      +2
000257: 17,2323           27711                           ADS      NP2TMP
000258: 17,2324           41561                           CS       NP0
000259: 17,2325           00006                           EXTEND
000260: 17,2326           71441                           MP       BP2        +1
000261: 17,2327           27712                           ADS      NP2TMP     +1
000262: 17,2330           54001                           TS       L
000263: 17,2331           12333                           TCF      +2
000264: 17,2332           27711                           ADS      NP2TMP
000265:
000266: 17,2333           31742        AP2(EP)            CAE      EP                                    #  DPXSP MULTIPLY FOR NUMERATOR COMPONENT
000267: 17,2334           00006                           EXTEND
000268: 17,2335           71432                           MP       AP2
000269: 17,2336           21712                           DAS      NP2TMP
000270: 17,2337           31742                           CAE      EP
000271: 17,2340           00006                           EXTEND
000272: 17,2341           71433                           MP       AP2        +1
000273: 17,2342           27712                           ADS      NP2TMP     +1


000275: 17,2343           54001                           TS       L
000276: 17,2344           12346                           TCF      +2
000277: 17,2345           27711                           ADS      NP2TMP                                #  COMPLETED NODE NP2
000278:
000279: 17,2346           41561        NP3NODE            CS       NP0                                   #  FORM NODE NP3....NO PAST NODES, DIRECT
000280: 17,2347           00006                           EXTEND                                         #        TO DPXDP MULTIPLY FOR DENOMINATOR
000281: 17,2350           71442                           MP       BP3                                   #        COMPONENT
000282: 17,2351           53714                           DXCH     NP3TMP
000283: 17,2352           41562                           CS       NP0        +1
000284: 17,2353           00006                           EXTEND
000285: 17,2354           71442                           MP       BP3
000286: 17,2355           27714                           ADS      NP3TMP     +1
000287: 17,2356           54001                           TS       L
000288: 17,2357           12361                           TCF      +2
000289: 17,2360           27713                           ADS      NP3TMP
000290: 17,2361           41561                           CS       NP0
000291: 17,2362           00006                           EXTEND
000292: 17,2363           71443                           MP       BP3        +1
000293: 17,2364           27714                           ADS      NP3TMP     +1
000294: 17,2365           54001                           TS       L
000295: 17,2366           12370                           TCF      +2
000296: 17,2367           27713                           ADS      NP3TMP
000297:
000298: 17,2370           31742        AP3(EP)            CAE      EP                                    #  DPXSP MULTIPLY FOR NUMERATOR COMPONENT
000299: 17,2371           00006                           EXTEND
000300: 17,2372           71434                           MP       AP3
000301: 17,2373           21714                           DAS      NP3TMP
000302: 17,2374           31742                           CAE      EP
000303: 17,2375           00006                           EXTEND
000304: 17,2376           71435                           MP       AP3        +1
000305: 17,2377           27714                           ADS      NP3TMP     +1
000306: 17,2400           54001                           TS       L
000307: 17,2401           12403                           TCF      +2
000308: 17,2402           27713                           ADS      NP3TMP                                #  COMPLETED NODE NP3, AND PITCH GEN3DAP
000309:                                                                                                  #        FILTER COMPUTATIONS
000310: 17,2403           04574                           TC       POSTJUMP                              #  RETURN TO CSMDAP CODING FOR PITCH
000311: 17,2404           40526                           CADR     DELBARP                               #        OFFSET-TRACKER-FILTER COMPUTATIONS,
000312:                                                                                                  #        AND PITCH DAP COPYCYCLE.
000313:


000315:                                                                                                  #  YAW GEN3DAP FILTER....
000316:
000317: 17,2405           00006        NY0NODE            EXTEND                                         #  FORM NODE NY0....COLLECT (PAST NY1)
000318: 17,2406           31610                           DCA      NY1                                   #        (COMES HERE FROM REG. DAP CODING)
000319: 17,2407           20001                           DDOUBL
000320: 17,2410           20001                           DDOUBL
000321: 17,2411           53606                           DXCH     NY0
000322:
000323: 17,2412           31742        AY0(EY)            CAE      EY                                    #  SPXSP MULTIPLY FOR NUMERATOR COMPONENT
000324: 17,2413           00006                           EXTEND                                         #        EY = ERRBTMP, SP, SC.AT B-1 REVS
000325: 17,2414           71427                           MP       AY0
000326: 17,2415           21606                           DAS      NY0                                   #  COMPLETED NODE NY0, SC.AT B+1 REVS
000327: 17,2416           31605        NYDNODE            CAE      NY0                                   #  FORM NODE NYD....SPXDP MULTIPLY BY GAIN
000328: 17,2417           00006                           EXTEND
000329: 17,2420           71651                           MP       KYGEN3
000330: 17,2421           53745                           DXCH     NYD
000331: 17,2422           31606                           CAE      NY0        +1
000332: 17,2423           00006                           EXTEND
000333: 17,2424           71651                           MP       KYGEN3
000334: 17,2425           22007                           ZL
000335: 17,2426           22000                           LXCH     A
000336: 17,2427           21745                           DAS      NYD                                   #  SC.AT B+4 ASCREV SINCE KYGEN3 AT B+1
000337:
000338: 17,2430           53745                           DXCH     NYD                                   #  FIX UP SCALING
000339: 17,2431           20001                           DDOUBL
000340: 17,2432           20001                           DDOUBL
000341: 17,2433           20001                           DDOUBL
000342: 17,2434           20001                           DDOUBL
000343: 17,2435           53745                           DXCH     NYD                                   #  COMPLETED NODE NYD, SC.AT 1ASCREV
000344: 17,2436           04574                           TC       POSTJUMP                              #  TRANSFER BACK TO REGULAR DAP CODING FOR
000345: 17,2437           40730                           CADR     YOFFSET                               #        OUTPUT (NYD = CMDTMP, DP)
000346: 17,2440           00006        NY1NODE            EXTEND                                         #  FORM NODE NY1....COLLECT (PAST NY2)
000347: 17,2441           31566                           DCA      NY2                                   #        (COMES HERE FROM REG. DAP CODING)
000348: 17,2442           53737                           DXCH     NY1TMP
000349:
000350: 17,2443           41605        BY1(NY0)           CS       NY0                                   #  DPXDP MULTIPLY FOR DENOMINATOR COMPONENT
000351: 17,2444           00006                           EXTEND
000352: 17,2445           71436                           MP       BY1
000353: 17,2446           21737                           DAS      NY1TMP
000354: 17,2447           41606                           CS       NY0        +1
000355: 17,2450           00006                           EXTEND
000356: 17,2451           71436                           MP       BY1
000357: 17,2452           27737                           ADS      NY1TMP     +1
000358: 17,2453           54001                           TS       L
000359: 17,2454           12456                           TCF      +2
000360: 17,2455           27736                           ADS      NY1TMP


000362: 17,2456           41605                           CS       NY0
000363: 17,2457           00006                           EXTEND
000364: 17,2460           71437                           MP       BY1        +1
000365: 17,2461           27737                           ADS      NY1TMP     +1
000366: 17,2462           54001                           TS       L
000367: 17,2463           12465                           TCF      +2
000368: 17,2464           27736                           ADS      NY1TMP
000369:
000370: 17,2465           31742        AY1(EY)            CAE      EY                                    #  DPXSP MULTIPLY FOR NUMERATOR COMPONENT
000371: 17,2466           00006                           EXTEND
000372: 17,2467           71430                           MP       AY1
000373: 17,2470           21737                           DAS      NY1TMP
000374: 17,2471           31742                           CAE      EY
000375: 17,2472           00006                           EXTEND
000376: 17,2473           71431                           MP       AY1        +1
000377: 17,2474           27737                           ADS      NY1TMP     +1
000378: 17,2475           54001                           TS       L
000379: 17,2476           12500                           TCF      +2
000380: 17,2477           27736                           ADS      NY1TMP                                #  COMPLETED NODE NY1
000381:
000382: 17,2500           00006        NY2NODE            EXTEND                                         #  DORM NODE NY2....COLLECT (PAST NY3)
000383: 17,2501           31570                           DCA      NY3
000384: 17,2502           53712                           DXCH     NY2TMP
000385:
000386: 17,2503           41605        BY2(NY0)           CS       NY0                                   #  DPXDP MULTIPLY FOR DENOMINATOR COMPONENT
000387: 17,2504           00006                           EXTEND
000388: 17,2505           71440                           MP       BY2
000389: 17,2506           21712                           DAS      NY2TMP
000390: 17,2507           41606                           CS       NY0        +1
000391: 17,2510           00006                           EXTEND
000392: 17,2511           71440                           MP       BY2
000393: 17,2512           27712                           ADS      NY2TMP     +1
000394: 17,2513           54001                           TS       L
000395: 17,2514           12516                           TCF      +2
000396: 17,2515           27711                           ADS      NY2TMP
000397: 17,2516           41605                           CS       NY0
000398: 17,2517           00006                           EXTEND
000399: 17,2520           71441                           MP       BY2        +1
000400: 17,2521           27712                           ADS      NY2TMP     +1
000401: 17,2522           54001                           TS       L
000402: 17,2523           12525                           TCF      +2
000403: 17,2524           27711                           ADS      NY2TMP
000404:
000405: 17,2525           31742        AY2(EY)            CAE      EY                                    #  DPXSP MULTIPLY FOR NUMERATOR COMPONENT
000406: 17,2526           00006                           EXTEND
000407: 17,2527           71432                           MP       AY2
000408: 17,2530           21712                           DAS      NY2TMP
000409: 17,2531           31742                           CAE      EY
000410: 17,2532           00006                           EXTEND
000411: 17,2533           71433                           MP       AY2        +1


000413: 17,2534           27712                           ADS      NY2TMP     +1
000414: 17,2535           54001                           TS       L
000415: 17,2536           12540                           TCF      +2
000416: 17,2537           27711                           ADS      NY2TMP                                #  COMPLETED NODE NY2
000417:
000418: 17,2540           41605        NY3NODE            CS       NY0                                   #  FORM NODE NY3....NO PAST NODES, DIRECT
000419: 17,2541           00006                           EXTEND                                         #        TO DPXDP MULTIPLY FOR DENOMINATOR
000420: 17,2542           71442                           MP       BY3                                   #        COMPONENT
000421: 17,2543           53714                           DXCH     NY3TMP
000422: 17,2544           41606                           CS       NY0        +1
000423: 17,2545           00006                           EXTEND
000424: 17,2546           71442                           MP       BY3
000425: 17,2547           27714                           ADS      NY3TMP     +1
000426: 17,2550           54001                           TS       L
000427: 17,2551           12553                           TCF      +2
000428: 17,2552           27713                           ADS      NY3TMP
000429: 17,2553           41605                           CS       NY0
000430: 17,2554           00006                           EXTEND
000431: 17,2555           71443                           MP       BY3        +1
000432: 17,2556           27714                           ADS      NY3TMP     +1
000433: 17,2557           54001                           TS       L
000434: 17,2560           12562                           TCF      +2
000435: 17,2561           27713                           ADS      NY3TMP
000436:
000437: 17,2562           31742        AY3(EY)            CAE      EY                                    #  DPXSP MULTIPLY FOR NUMERATOR COMPONENT
000438: 17,2563           00006                           EXTEND
000439: 17,2564           71434                           MP       AY3
000440: 17,2565           21714                           DAS      NY3TMP
000441: 17,2566           31742                           CAE      EY
000442: 17,2567           00006                           EXTEND
000443: 17,2570           71435                           MP       AY3        +1
000444: 17,2571           27714                           ADS      NY3TMP     +1
000445: 17,2572           54001                           TS       L
000446: 17,2573           12575                           TCF      +2
000447: 17,2574           27713                           ADS      NY3TMP                                #  COMPLETED NODE NY3, AND YAW GEN3DAP
000448:                                                                                                  #        FILTER COMPUTATIONS
000449: 17,2575           04574                           TC       POSTJUMP                              #  RETURN TO CSMDAP CODING FOR YAW
000450: 17,2576           41015                           CADR     DELBARY                               #        OFFSET-TRACKER-FILTER COMPUTATIONS,
000451:                                                                                                  #        AND YAW DAP COPYCYCLE.
000452:
000453:

End of include-file TVCGEN3FILTERS.agc.  Parent file is MAIN.agc


