
Source Code


000002:                                                                                                  ## Copyright:   Public domain.
000003:                                                                                                  ## Filename:    TVCINITIALIZE.agc
000004:                                                                                                  ## Purpose:     Part of the source code for Colossus, build 249.
000005:                                                                                                  ##              It is part of the source code for the Command Module's (CM)
000006:                                                                                                  ##              Apollo Guidance Computer (AGC), for Apollo 9.
000007:                                                                                                  ## Assembler:   yaYUL
000008:                                                                                                  ## Reference:   pp. 899-902.
000009:                                                                                                  ## Contact:     Ron Burkey <info@sandroid.org>.
000010:                                                                                                  ## Website:     www.ibiblio.org/apollo/index.html
000011:                                                                                                  ## Mod history: 08/22/04 RSB.   Transcribed.
000012:                                                                                                  ##              05/14/05 RSB    Corrected website reference above.
000013:                                                                                                  ##              2010-10-24 JL   Indentation fixes.
000014:                                                                                                  ##              2017-01-06 RSB  Page numbers now agree with those on the
000015:                                                                                                  ##                              original harcopy, as opposed to the PDF page
000016:                                                                                                  ##                              numbers in 1701.pdf.
000017:                                                                                                  ##              2017-01-20 RSB  Cross-diff'd comment text (not whitespace)
000018:                                                                                                  ##                              vs the already-proofed corresponding Colossus
000019:                                                                                                  ##                              237 and Comanche 55 source-code files
000020:                                                                                                  ##                              and corrected errors found.
000021:                                                                                                  ##
000022:                                                                                                  ## The contents of the "Colossus249" files, in general, are transcribed
000023:                                                                                                  ## from a scanned copy of the program listing.  Notations on this
000024:                                                                                                  ## document read, in part:
000025:                                                                                                  ##
000026:                                                                                                  ##      Assemble revision 249 of AGC program Colossus by NASA
000027:                                                                                                  ##      2021111-041.  October 28, 1968.
000028:                                                                                                  ##
000029:                                                                                                  ##      This AGC program shall also be referred to as
000030:                                                                                                  ##                              Colossus 1A
000031:                                                                                                  ##
000032:                                                                                                  ##      Prepared by
000033:                                                                                                  ##                      Massachusetts Institute of Technology
000034:                                                                                                  ##                      75 Cambridge Parkway
000035:                                                                                                  ##                      Cambridge, Massachusetts
000036:                                                                                                  ##      under NASA contract NAS 9-4065.
000037:                                                                                                  ##
000038:                                                                                                  ## Refer directly to the online document mentioned above for further information.
000039:                                                                                                  ## Please report any errors (relative to the scanned pages) to info@sandroid.org.
000040:                                                                                                  ##
000041:                                                                                                  ## In some cases, where the source code for Luminary 131 overlaps that of
000042:                                                                                                  ## Colossus 249, this code is instead copied from the corresponding Luminary 131
000043:                                                                                                  ## source file, and then is proofed to incorporate any changes.
000044:


000046:                                                                                                  #  NAME          TVCDAPON (TVC DAP INITIALIZATION AND STARTUP CALL)
000047:                                                                                                  #  MOD NO 3                                      DATE 8 JUNE, 1967
000048:                                                                                                  #  MOD BY ENGEL                                  LOG SECTION P40-P47
000049:
000050:                                                                                                  #  FUNCTIONAL DESCRIPTION
000051:                                                                                                  #        PERFORMS TVCDAP INITIALIZATION (GAINS, TIMING PARAMETERS, FILTER VARIABLES, ETC.)
000052:                                                                                                  #        COMPUTES STEERING (S40.8) GAIN KPRIMEDT, AND ZEROES PASTDELV,+1 VARIABLE
000053:                                                                                                  #        MAKES INITIALIZATION CALL TO ..NEEDLER.. FOR TVC DAP NEEDLES-SETUP
000054:                                                                                                  #        PERFORMS INITIALIZATION FOR ROLL DAP
000055:                                                                                                  #        CALLS TVCEXECUTIVE AT TVCEXEC, VIA WAITLIST
000056:                                                                                                  #        CALLS TVCDAP CDU-RATE INITIALIZATION PKG AT DAPINIT VIA T5
000057:                                                                                                  #        MRCLEAN AND TVCINIT4 ARE POSSIBLE TVC-RESTART ENTRIES
000058:
000059:                                                                                                  #  CALLING SEQUENCE-  T5LOC=2CADR(TVCDAPON,EBANK=BZERO), T5=.6SECT5
000060:                                                                                                  #        IN PARTICULAR, CALLED BY ..IGNOVER..
000061:
000062:                                                                                                  #  NORMAL EXIT MODE
000063:                                                                                                  #        TCF     RESUME
000064:
000065:                                                                                                  #  SUBROUTINES CALLED
000066:                                                                                                  #        NEEDLER, MASSPROP
000067:
000068:                                                                                                  #  ALARM OR ABORT EXIT MODES
000069:                                                                                                  #        NONE
000070:
000071:                                                                                                  #  ERASABLE INITIALIZATION REQUIRED
000072:                                                                                                  #        CSMMASS, LEMMASS, DAPDATR1 (FOR MASSPROP SUBROUTINE)
000073:                                                                                                  #        TVC PAD LOADS (SEE LEVEL III DAP AND/OR P40 TESTS)
000074:                                                                                                  #        PACTOFF, YACTOFF, CDUX
000075:                                                                                                  #        TVCPHASE, T5BITS OF FLAGWRD6, FOR RESTART PROTECTION (SEE IGNOVER)
000076:
000077:                                                                                                  #  OUTPUT
000078:                                                                                                  #        ALL TVC AND ROLL DAP ERASABLES, FLAGWRD6 (BITS 13,14), T5, WAITLIST
000079:
000080:                                                                                                  #  DEBRIS
000081:                                                                                                  #        NONE
000082:
000083: 31,3766                                           COUNT*   $$/INIT
000084: 17,2030                                           BANK     17
000085: 17,2000                                           SETLOC   DAPS7
000086: 17,2000                                           BANK
000087:
000088: 17,2030  E6,1742                                  EBANK=   BZERO
000089:
000090: 17,2030           22016        TVCDAPON           LXCH     BANKRUPT                              #  T5 RUPT ARRIVAL (CALL BY DOTVCON - P40)
000091: 17,2031           00006                           EXTEND                                         #  SAVE Q REQUIRED IN RESTARTS (MRCLEAN AND
000092: 17,2032           22012                           QXCH     QRUPT                                 #        TVCINIT4 ARE ENTRIES)
000093: 17,2033           32205        MRCLEAN            CAF      NZERO                                 #  NUMBER TO ZERO, LESS ONE  (MUST BE ODD)
000094:                                                                                                  #        TVC RESTARTS ENTER HERE  (NEW BANK)
000095: 17,2034           10000                 +1        CCS      A
000096: 17,2035           55447                           TS       CNTR
000097: 17,2036           34714                           CAF      ZERO
000098: 17,2037           54001                           TS       L
000099: 17,2040           51447                           INDEX    CNTR
000100: 17,2041           53530                           DXCH     OMEGAYC                               #  FIRST (LAST) TWO LOCATIONS
000101: 17,2042           11447                           CCS      CNTR
000102: 17,2043           12034                           TCF      MRCLEAN    +1


000104: 17,2044           00006                           EXTEND                                         #  SET UP ANOTHER T5 RUPT TO CONTINUE
000105: 17,2045           32212                           DCA      INITLOC2                              #        INITIALIZATION AT TVCINIT1
000106: 17,2046           53313                           DXCH     T5LOC                                 #  THE PHSCHK2 ENTRY (REDOTVC) AT TVCDAPON
000107: 17,2047           34672                           CAF      POSMAX                                #        +3 IS IN ANOTHER BANK.  MUST RESET
000108: 17,2050           54030                           TS       TIME5                                 #        BBCON TOO (FULL 2CADR), FOR THAT
000109: 17,2051           15222        ENDMRC             TCF      RESUME                                #        ENTRY.
000110:
000111: 17,2052           22016        TVCINIT1           LXCH     BANKRUPT
000112: 17,2053           00006                           EXTEND
000113: 17,2054           22012                           QXCH     QRUPT
000114:
000115: 17,2055           04633                           TC       IBNKCALL                              #  UPDATE IXX, IAVG/TLX FOR DAP GAINS (R03
000116: 17,2056           13207                           CADR     MASSPROP                              #        OR NOUNS 46 AND 47 MUST BE CORRECT)
000117:
000118: 17,2057           30110                           CAE      EMDOT                                 #  SPS FLOW RATE, SC.AT B+3 KG/CS
000119: 17,2060           00006                           EXTEND
000120: 17,2061           72206                           MP       ONETHOU
000121: 17,2062           55647                           TS       TENMDOT                               #  10-SEC MASS LOSS B+16 KG
000122: 17,2063           40000                           COM
000123: 17,2064           61474                           AD       CSMMASS
000124: 17,2065           55662                           TS       MASSTMP                               #  DECREMENT FOR FIRST 10 SEC OF BURN
000125:
000126: 17,2066           31466                           CAE      DAPDATR1                              #  CHECK LEM-ON/OFF
000127: 17,2067           74675                           MASK     BIT14
000128: 17,2070           10000                           CCS      A
000129: 17,2071           34712                           CAF      BIT1                                  #  LEM-ON (BIT1)
000130: 17,2072           55447                           TS       CNTR                                  #  LEM-OFF (ZERO)
000131:
000132: 17,2073           51447                           INDEX    CNTR                                  #  PICK UP LM-OFF,-ON KTLX/I
000133: 17,2074           31416                           CAE      EKTLX/I
000134: 17,2075           55646                           TS       KTLX/I
000135:
000136: 17,2076           04633                           TC       IBNKCALL                              #  COMPUTE 1/CONACC, VARK
000137: 17,2077           35145                           CADR     S40.15
000138:
000139: 17,2100           31420        TVCINIT2           CAE      ETVCDT/2                              #  LEM-ON VALUE (PAD-LOAD, CS / 2)
000140: 17,2101           54001                           TS       L
000141: 17,2102           34711                           CAF      BIT2                                  #  LEM-OFF VALUE (4CS / 2)
000142: 17,2103           51447                           INDEX    CNTR
000143: 17,2104           30000                           CAE      A
000144: 17,2105           55644                           TS       KPRIMEDT                              #  (TEMP STORE)
000145:
000146: 17,2106           40000                           COM                                            #  PREPARE T5TVCDT
000147: 17,2107           64672                           AD       POSMAX
000148: 17,2110           64712                           AD       BIT1
000149: 17,2111           55635                           TS       T5TVCDT
000150:
000151: 17,2112           44674                           CS       BIT15                                 #  RESET SWTOVER FLAG
000152: 17,2113           70105                           MASK     FLAGWRD9
000153: 17,2114           54105                           TS       FLAGWRD9


000155: 17,2115           51447                           INDEX    CNTR                                  #  PICK UP LEM-OFF,-ON KPRIME
000156: 17,2116           31413                           CAE      EKPRIME
000157: 17,2117           00006                           EXTEND
000158: 17,2120           71644                           MP       KPRIMEDT                              #  (TVCDT/2, SC.AT B+14 CS)
000159: 17,2121           22000                           LXCH     A                                     #        SC.AT PI/8      (DIMENSIONLESS)
000160: 17,2122           53645                           DXCH     KPRIMEDT
000161:
000162: 17,2123           51447                           INDEX    CNTR                                  #  PICK UP LEM-OFF,-ON REPFRAC
000163: 17,2124           31423                           CAE      EREPFRAC
000164: 17,2125           55652                           TS       REPFRAC
000165:
000166: 17,2126           37716                           CAF      NEGONE                                #  PREVENT STROKE TEST UNTIL CALLED
000167: 17,2127           55664                           TS       STRKTIME
000168:
000169: 17,2130           34374                           CAF      NINETEEN                              #  SET VCNTR FOR VARIABLE-GAIN UPDATES IN
000170: 17,2131           55653                           TS       VCNTR                                 #        10 SECONDS (TVCEXEC 1/2 SEC RATE)
000171: 17,2132           55444                           TS       V97VCNTR                              #  FOR ENGFAIL (R41) LOGIC
000172:
000173: 17,2133           31421                           CAE      ETSWITCH                              #  PREPARE SWITCHOVER COUNTER
000174: 17,2134           54001                           TS       L
000175: 17,2135           60000                           DOUBLE                                         #  (COUNTER DECREMENTS EVERY 1/2 SEC)
000176: 17,2136           22000                           LXCH     A                                     #  LEM-OFF IN A, LEM-ON IN L
000177: 17,2137           51447                           INDEX    CNTR
000178: 17,2140           30000                           CAE      A
000179: 17,2141           67716                           AD       NEGONE
000180: 17,2142           55447                           TS       CNTR                                  #  CNTR = 2(SWITCHOVER TIME, SEC) -1
000181: 17,2143           31425        TVCINIT3           CAE      PACTOFF                               #  TRIM VALUES TO TRIM-TRACKERS, OUTPUT
000182: 17,2144           55625                           TS       PDELOFF                               #        TRACKERS, OFFSET-UPDATES, AND
000183: 17,2145           55631                           TS       PCMD                                  #        OFFSET-TRACKER FILTERS
000184: 17,2146           55621                           TS       DELPBAR                               #        NOTE, LO-ORDER DELOFF, DELBAR ZEROED
000185:
000186: 17,2147           31426                           CAE      YACTOFF
000187: 17,2150           55627                           TS       YDELOFF
000188: 17,2151           55632                           TS       YCMD
000189: 17,2152           55623                           TS       DELYBAR
000190:
000191: 17,2153           41501        NEEDLEIN           CS       RCSFLAGS                              #  SET BIT 3 FOR INITIALIZATION PASS AND GO
000192: 17,2154           74710                           MASK     BIT3                                  #        TO NEEDLER.  WILL CLEAR FOR TVC DAP
000193: 17,2155           27501                           ADS      RCSFLAGS                              #        (RETURNS AFTER CADR)
000194: 17,2156           04633                           TC       IBNKCALL
000195: 17,2157           42404                           CADR     NEEDLER
000196:
000197: 17,2160           34714        TVCINIT4           CAF      ZERO                                  #  SET TVCPHASE TO INDICATE TVCDAPON-THRU-
000198: 17,2161           55654                           TS       TVCPHASE                              #        NEEDLEIN INITIALIZATION FINISHED.
000199:                                                                                                  #        (POSSIBLE TVC-RESTART ENTRY)
000200:
000201: 17,2162           30032                           CAE      CDUX                                  #  PREPARE ROLL DAP LADDERS
000202: 17,2163           55672                           TS       OGANOW


000204:                                                                                                  #  ROLL DAPS RE-START UPON A RESTART, BUT
000205:                                                                                                  #        RETAIN ORIGINAL OGAD (IGNOVER CDUX)
000206:
000207: 17,2164           34676                           CAF      BIT13                                 #  IF ENGINE IS ALREADY OFF, ENGINOFF HAS
000208: 17,2165           00006                           EXTEND                                         #        ALREADY ESTABLISHED THE POST-BURN
000209: 17,2166           02011                           RAND     DSALMOUT                              #        CSMMASS (MASSBACK DOES IT).  DONT
000210: 17,2167           00006                           EXTEND                                         #        TOUCH CSMMASS.  IF ENGINE IS ON,
000211: 17,2170           12173                           BZF      +3                                    #        THEN ITS OK TO DO THE COPYCYCLE
000212:                                                                                                  #        EVEN BURNS LESS THAN 0.4 SEC ARE AOK
000213:
000214: 17,2171           31662                           CAE      MASSTMP                               #  COPYCYCLE
000215: 17,2172           55474                           TS       CSMMASS
000216:
000217: 17,2173           34731                 +3        CAF      .5SEC                                 #  CALL TVCEXECUTIVE (ROLLDAP CALL, ETC)
000218: 17,2174           05140                           TC       WAITLIST
000219: 17,2175  E6,1742                                  EBANK=   BZERO
000220: 17,2175           02660 34066                     2CADR    TVCEXEC
000221:
000222: 17,2177           00006                           EXTEND                                         #  CALL FOR DAPINIT
000223: 17,2200           32210                           DCA      DAPINIT5
000224: 17,2201           53313                           DXCH     T5LOC
000225: 17,2202           31635                           CAE      T5TVCDT                               #  (ALLOW TIME FOR RESTART COMPUTATIONS)
000226: 17,2203           54030                           TS       TIME5
000227:
000228: 17,2204           15222        ENDTVCIN           TCF      RESUME
000229: 17,2205           00101        NZERO              DEC      65         B-14                       #  MUST BE ODD FOR MRCLEAN
000230:
000231: 17,2206     4374               NINETEEN           =        VD1
000232:
000233: 17,2206           03720        ONETHOU            DEC      1000       B-13                       #  KG/CS B3 TO KG/10SEC B16 CONVERSION
000234:
000235: 17,2207  E6,1742                                  EBANK=   BZERO
000236: 17,2207           03111 40066  DAPINIT5           2CADR    DAPINIT
000237:
000238: 17,2211  E6,1742                                  EBANK=   BZERO
000239: 17,2211           02052 36066  INITLOC2           2CADR    TVCINIT1
000240:

End of include-file TVCINITIALIZE.agc.  Parent file is MAIN.agc


