
Source Code
000001:                                                                                                 #  Copyright:     Public domain.
000002:                                                                                                 #  Filename:      TVCINITIALIZE.agc
000003:                                                                                                 #  Purpose:       Part of the source code for Colossus, build 249.
000004:                                                                                                 #                 It is part of the source code for the Command Module's (CM)
000005:                                                                                                 #                 Apollo Guidance Computer (AGC), possibly for Apollo 8 and 9.
000006:                                                                                                 #  Assembler:     yaYUL
000007:                                                                                                 #  Reference:     pp. 903-906 of 1701.pdf.
000008:                                                                                                 #  Contact:       Ron Burkey <info@sandroid.org>.
000009:                                                                                                 #  Website:       www.ibiblio.org/apollo/index.html
000010:                                                                                                 #  Mod history:   08/22/04 RSB.   Transcribed.
000011:                                                                                                 #                 05/14/05 RSB    Corrected website reference above.
000012:
000013:                                                                                                 #  The contents of the "Colossus249" files, in general, are transcribed
000014:                                                                                                 #  from a scanned document obtained from MIT's website,
000015:                                                                                                 #  http://hrst.mit.edu/hrs/apollo/public/archive/1701.pdf.  Notations on this
000016:                                                                                                 #  document read, in part:
000017:
000018:                                                                                                 #         Assemble revision 249 of AGC program Colossus by NASA
000019:                                                                                                 #         2021111-041.  October 28, 1968.
000020:
000021:                                                                                                 #         This AGC program shall also be referred to as
000022:                                                                                                 #                                 Colossus 1A
000023:
000024:                                                                                                 #         Prepared by
000025:                                                                                                 #                         Massachussets Institute of Technology
000026:                                                                                                 #                         75 Cambridge Parkway
000027:                                                                                                 #                         Cambridge, Massachusetts
000028:                                                                                                 #         under NASA contract NAS 9-4065.
000029:
000030:                                                                                                 #  Refer directly to the online document mentioned above for further information.
000031:                                                                                                 #  Please report any errors (relative to 1701.pdf) to info@sandroid.org.
000032:
000033:                                                                                                 #  In some cases, where the source code for Luminary 131 overlaps that of
000034:                                                                                                 #  Colossus 249, this code is instead copied from the corresponding Luminary 131
000035:                                                                                                 #  source file, and then is proofed to incorporate any changes.
000036:
000037:                                                                                                 #  Page 903
000038:                                                                                                 #  NAME           TVCDAPON (TVC DAP INITIALIZATION AND STARTUP CALL)
000039:                                                                                                 #  MOD NO 3                                       DATE 6 JUNE, 1967
000040:                                                                                                 #  MOD BY ENGEL                                   LOG SECTION P40-P47
000041:
000042:                                                                                                 #  FUNCTIONAL DESCRIPTION
000043:                                                                                                 #         PERFORMS TVCDAP INITIALIZATION (GAINS, TIMING PARAMETERS, FILTER VARIABLES, ETC.)
000044:                                                                                                 #         COMPUTES STEERING (S40.8) GAIN KPRIMEDT, AND ZEROES PASTDELV,+1 VARIABLE
000045:                                                                                                 #         MAKES INITIALIZATION CALL TO "NEEDLER" FOR TVC DAP NEEDLES-SETUP
000046:                                                                                                 #         PERFORMS INITIALIZATION FOR ROLL DAP
000047:                                                                                                 #         CALLS TVCEXECUTIVE AT TVCEXEC, VIA WAITLIST
000048:                                                                                                 #         CALLS TVCDAP CDU-RATE INITIALIZATION PKG AT DAPINIT VIA T5
000049:                                                                                                 #         MRCLEAN AND TVCINIT4 ARE POSSIBLE TVC-RESTART ENTRIES
000050:
000051:                                                                                                 #  CALLING SEQUENCE:  T5LOC=2CADR(TVCDAPON,EBANK=BZERO), T5=.6SECT5
000052:                                                                                                 #         IN PARTICULAR, CALLED BY "IGNOVER"
000053:
000054:                                                                                                 #  NORMAL EXIT MODE
000055:                                                                                                 #         TCF     RESUME
000056:
000057:                                                                                                 #  SUBROUTINES CALLED
000058:                                                                                                 #         NEEDLER, MASSPROP
000059:
000060:                                                                                                 #  ALARM OR ABORT EXIT MODES
000061:                                                                                                 #         NONE
000062:
000063:                                                                                                 #  ERASABLE INITIALIZATION REQUIRED
000064:                                                                                                 #         CSMMASS, LEMMASS, DAPDATR1 (FOR MASSPROP SUBROUTINE)
000065:                                                                                                 #         TVC PAD LOADS (SEE LEVEL III DAP AND/OR P40 TESTS)
000066:                                                                                                 #         PACTOFF, YACTOFF, CDUX
000067:                                                                                                 #         TVCPHASE, T5BITS OF FLAGWRD6, FOR RESTART PROTECTION (SEE IGNOVER)
000068:
000069:                                                                                                 #  OUTPUT
000070:                                                                                                 #         ALL TVC AND ROLL DAP ERASABLES, FLAGWRD6 (BITS 13,14), T5, WAITLIST
000071:
000072:                                                                                                 #  DEBRIS
000073:                                                                                                 #         NONE
000074:
000075: 31,3766                                          COUNT*   $$/INIT
000076: 17,2030                                          BANK     17
000077: 17,2000                                          SETLOC   DAPS7
000078: 17,2000                                          BANK
000079:
000080: 17,2030  E6,1742                                 EBANK=   BZERO
000081:
000082: 17,2030           22016        TVCDAPON          LXCH     BANKRUPT                              #  T5 RUPT ARRIVAL (CALL BY DOTVCON - P40)
000083: 17,2031           00006                          EXTEND                                         #  SAVE Q REQUIRED IN RESTART (MRCLEAN AND
000084: 17,2032           22012                          QXCH     QRUPT                                 #         TVCINIT4 ARE ENTRIES)
000085: 17,2033           32205        MRCLEAN           CAF      NZERO                                 #  NUMBER TO ZERO, LESS ONE  (MUST BE ODD)
000086:                                                                                                 #         TVC RESTARTS ENTER HERE  (NEW BANK)
000087: 17,2034           10000                 +1       CCS      A
000088: 17,2035           55447                          TS       CNTR
000089: 17,2036           34714                          CAF      ZERO
000090: 17,2037           54001                          TS       L
000091: 17,2040           51447                          INDEX    CNTR
000092: 17,2041           53530                          DXCH     OMEGAYC                               #  FIRST (LAST) TWO LOCATIONS
000093: 17,2042           11447                          CCS      CNTR
000094: 17,2043           12034                          TCF      MRCLEAN    +1
000095:                                                                                                 #  Page 904
000096: 17,2044           00006                          EXTEND                                         #  SET UP ANOTHER T5 RUPT TO CONTINUE
000097: 17,2045           32212                          DCA      INITLOC2                              #         INITIALIZATION AT TVCINIT1
000098: 17,2046           53313                          DXCH     T5LOC                                 #  THE PHSCHK2 ENTRY (REDOTVC) AT TVCDAPON
000099: 17,2047           34672                          CAF      POSMAX                                #         +3 IS IN ANOTHER BANK.  MUST RESET
000100: 17,2050           54030                          TS       TIME5                                 #         BBCON TOO (FULL 2CADR), FOR THAT
000101: 17,2051           15222        ENDMRC            TCF      RESUME                                #         ENTRY.
000102:
000103: 17,2052           22016        TVCINIT1          LXCH     BANKRUPT
000104: 17,2053           00006                          EXTEND
000105: 17,2054           22012                          QXCH     QRUPT
000106:
000107: 17,2055           04633                          TC       IBNKCALL                              #  UPDATE IXX, IAVG/TLX FOR DAP GAINS (R03
000108: 17,2056           13207                          CADR     MASSPROP                              #         OR NOUNS 46 AND 47 MUST BE CORRECT)
000109:
000110: 17,2057           30110                          CAE      EMDOT                                 #  SPS FLOW RATE, SC.AT B+3 KG/CS
000111: 17,2060           00006                          EXTEND
000112: 17,2061           72206                          MP       ONETHOU
000113: 17,2062           55647                          TS       TENMDOT                               #  10-SEC MASS LOSS B+16 KG
000114: 17,2063           40000                          COM
000115: 17,2064           61474                          AD       CSMMASS
000116: 17,2065           55662                          TS       MASSTMP                               #  DECREMENT FOR FIRST 10 SEC OF BURN
000117:
000118: 17,2066           31466                          CAE      DAPDATR1                              #  CHECK LEM-ON/OFF
000119: 17,2067           74675                          MASK     BIT14
000120: 17,2070           10000                          CCS      A
000121: 17,2071           34712                          CAF      BIT1                                  #  LEM-ON (BIT1)
000122: 17,2072           55447                          TS       CNTR                                  #  LEM-OFF (ZERO)
000123:
000124: 17,2073           51447                          INDEX    CNTR                                  #  PICK UP LM-OFF,-ON KTLX/I
000125: 17,2074           31416                          CAE      EKTLX/I
000126: 17,2075           55646                          TS       KTLX/I
000127:
000128: 17,2076           04633                          TC       IBNKCALL                              #  COMPUTE 1/CONACC, VARK
000129: 17,2077           35145                          CADR     S40.15
000130:
000131: 17,2100           31420        TVCINIT2          CAE      ETVCDT/2                              #  LEM-ON VALUE (PAD-LOAD, CS / 2)
000132: 17,2101           54001                          TS       L
000133: 17,2102           34711                          CAF      BIT2                                  #  LEM-OFF VALUE (4CS / 2)
000134: 17,2103           51447                          INDEX    CNTR
000135: 17,2104           30000                          CAE      A
000136: 17,2105           55644                          TS       KPRIMEDT                              #  (TEMP STORE)
000137:
000138: 17,2106           40000                          COM                                            #  PREPARE T5TVCDT
000139: 17,2107           64672                          AD       POSMAX
000140: 17,2110           64712                          AD       BIT1
000141: 17,2111           55635                          TS       T5TVCDT
000142:
000143: 17,2112           44674                          CS       BIT15                                 #  RESET SWTOVER FLAG
000144: 17,2113           70105                          MASK     FLAGWRD9
000145: 17,2114           54105                          TS       FLAGWRD9
000146:                                                                                                 #  Page 905
000147: 17,2115           51447                          INDEX    CNTR                                  #  PICK UP LEM-OFF,-ON KPRIME
000148: 17,2116           31413                          CAE      EKPRIME
000149: 17,2117           00006                          EXTEND
000150: 17,2120           71644                          MP       KPRIMEDT                              #  (TVCDT/2, BC.AT B+14 CS)
000151: 17,2121           22000                          LXCH     A                                     #         SC.AT PI/8      (DIMENSIONLESS)
000152: 17,2122           53645                          DXCH     KPRIMEDT
000153:
000154: 17,2123           51447                          INDEX    CNTR                                  #  PICK UP LEM-OFF,-ON REPFRAC
000155: 17,2124           31423                          CAE      EREPFRAC
000156: 17,2125           55652                          TS       REPFRAC
000157:
000158: 17,2126           37716                          CAF      NEGONE                                #  PREVEN STOKE TEST UNTIL CALLED
000159: 17,2127           55664                          TS       STRKTIME
000160:
000161: 17,2130           34374                          CAF      NINETEEN                              #  SET VCNTR FOR VARIABLE-GAIN UPDATES IN
000162: 17,2131           55653                          TS       VCNTR                                 #         10 SECONDS (TVCEXEC 1/2 SEC RATE)
000163: 17,2132           55444                          TS       V97VCNTR                              #  FOR ENGFAIL (R41) LOGIC
000164:
000165: 17,2133           31421                          CAE      ETSWITCH                              #  PREPARE SWITCHOVER COUNTER
000166: 17,2134           54001                          TS       L
000167: 17,2135           60000                          DOUBLE                                         #  (COUNTER DECREMENTS EVERY 1/2 SEC)
000168: 17,2136           22000                          LXCH     A                                     #  LEM-OFF IN A, LEM-ON IN L
000169: 17,2137           51447                          INDEX    CNTR
000170: 17,2140           30000                          CAE      A
000171: 17,2141           67716                          AD       NEGONE
000172: 17,2142           55447                          TS       CNTR                                  #  CNTR = 2(SWITCHOVER TIME, SEC) -1
000173: 17,2143           31425        TVCINIT3          CAE      PACTOFF                               #  TRIM VALUES TO TRIM-TRACKERS, OUTPUT
000174: 17,2144           55625                          TS       PDELOFF                               #         TRACKERS, OFFSET-UPDATES, AND
000175: 17,2145           55631                          TS       PCMD                                  #         OFFSET-TRACKER FILTERS
000176: 17,2146           55621                          TS       DELPBAR                               #         NOTE, LO-ORDER DELOFF, DELBAR ZEROED
000177:
000178: 17,2147           31426                          CAE      YACTOFF
000179: 17,2150           55627                          TS       YDELOFF
000180: 17,2151           55632                          TS       YCMD
000181: 17,2152           55623                          TS       DELYBAR
000182:
000183: 17,2153           41501        NEEDLEIN          CS       RCSFLAGS                              #  SET BIT 3 FOR INITIALIZATION PASS AND GO
000184: 17,2154           74710                          MASK     BIT3                                  #         TO NEEDLER.  WILL CLEAR FOR TVC DAP
000185: 17,2155           27501                          ADS      RCSFLAGS                              #         (RETURNS AFTER CADR)
000186: 17,2156           04633                          TC       IBNKCALL
000187: 17,2157           42404                          CADR     NEEDLER
000188:
000189: 17,2160           34714        TVCINIT4          CAF      ZERO                                  #  SET TVCPHASE TO INDICATE TVCDAPON-THRU-
000190: 17,2161           55654                          TS       TVCPHASE                              #         NEEDLEIN INITIALIZATION FINISHED.
000191:                                                                                                 #         (POSSIBLE TVC-RESTART ENTRY)
000192:
000193: 17,2162           30032                          CAE      CDUX                                  #  PREPARE ROLL DAP LADDERS
000194: 17,2163           55672                          TS       OGANOW
000195:                                                                                                 #  Page 906
000196:                                                                                                 #  ROLL DAPS RE-START UPON A RESTART, BUT
000197:                                                                                                 #         RETAIN ORIGINAL OGAD (IGNOVER CDUX)
000198:
000199: 17,2164           34676                          CAF      BIT13                                 #  IF ENGINE IS ALREADY OFF, ENGINOFF HAS
000200: 17,2165           00006                          EXTEND                                         #         ALREADY ESTABLISHED THE POST-BURN
000201: 17,2166           02011                          RAND     DSALMOUT                              #         CSMMASS (MASSBACK DOES IT).  DON'T
000202: 17,2167           00006                          EXTEND                                         #         TOUCH CSMMASS.  IF ENGINE IS ON,
000203: 17,2170           12173                          BZF      +3                                    #         THEN IT'S OK TO DO THE COPYCYCLE
000204:                                                                                                 #         EVEN BURNS LESS THAN 0.4 SEC ARE AOK
000205:
000206: 17,2171           31662                          CAE      MASSTMP                               #  COPYCYCLE
000207: 17,2172           55474                          TS       CSMMASS
000208:
000209: 17,2173           34731                 +3       CAF      .5SEC                                 #  CALL TVCEXECUTIVE (ROLLDAP CALL, ETC)
000210: 17,2174           05140                          TC       WAITLIST
000211: 17,2175  E6,1742                                 EBANK=   BZERO
000212: 17,2175           02660 34066                    2CADR    TVCEXEC
000213:
000214: 17,2177           00006                          EXTEND                                         #  CALL FOR DAPINIT
000215: 17,2200           32210                          DCA      DAPINIT5
000216: 17,2201           53313                          DXCH     T5LOC
000217: 17,2202           31635                          CAE      T5TVCDT                               #  (ALLOW TIME FOR RESTART COMPUTATIONS)
000218: 17,2203           54030                          TS       TIME5
000219:
000220: 17,2204           15222        ENDTVCIN          TCF      RESUME
000221: 17,2205           00101        NZERO             DEC      65         B-14                       #  MUST BE ODD FOR MRCLEAN
000222:
000223: 17,2206     4374               NINETEEN          =        VD1
000224:
000225: 17,2206           03720        ONETHOU           DEC      1000       B-13                       #  KG/CS B3 TO KG/10SEC B16 CONVERSION
000226:
000227: 17,2207  E6,1742                                 EBANK=   BZERO
000228: 17,2207           03111 40066  DAPINIT5          2CADR    DAPINIT
000229:
000230: 17,2211  E6,1742                                 EBANK=   BZERO
000231: 17,2211           02052 36066  INITLOC2          2CADR    TVCINIT1
000232:

End of include-file TVCINITIALIZE.agc.  Parent file is MAIN.agc


