
Source Code


000002:                                                                                                  #  Copyright:    Public domain.
000003:                                                                                                  #  Filename:     TVCMASSPROP.agc
000004:                                                                                                  #  Purpose:      Part of the source code for Colossus, build 249.
000005:                                                                                                  #                It is part of the source code for the Command Module's (CM)
000006:                                                                                                  #                Apollo Guidance Computer (AGC), possibly for Apollo 8 and 9.
000007:                                                                                                  #  Assembler:    yaYUL
000008:                                                                                                  #  Reference:    Begins on p. 915 of 1701.pdf.
000009:                                                                                                  #  Contact:      Ron Burkey <info@sandroid.org>.
000010:                                                                                                  #  Website:      www.ibiblio.org/apollo/index.html
000011:                                                                                                  #  Mod history:  08/23/04 RSB.   Began transcribing.
000012:                                                                                                  #                05/14/05 RSB.   Corrected website reference above.
000013:
000014:                                                                                                  #  The contents of the "Colossus249" files, in general, are transcribed
000015:                                                                                                  #  from a scanned document obtained from MIT's website,
000016:                                                                                                  #  http://hrst.mit.edu/hrs/apollo/public/archive/1701.pdf.  Notations on this
000017:                                                                                                  #  document read, in part:
000018:
000019:                                                                                                  #        Assemble revision 249 of AGC program Colossus by NASA
000020:                                                                                                  #        2021111-041.  October 28, 1968.
000021:
000022:                                                                                                  #        This AGC program shall also be referred to as
000023:                                                                                                  #                                Colossus 1A
000024:
000025:                                                                                                  #        Prepared by
000026:                                                                                                  #                        Massachusetts Institute of Technology
000027:                                                                                                  #                        75 Cambridge Parkway
000028:                                                                                                  #                        Cambridge, Massachusetts
000029:                                                                                                  #        under NASA contract NAS 9-4065.
000030:
000031:                                                                                                  #  Refer directly to the online document mentioned above for further information.
000032:                                                                                                  #  Please report any errors (relative to 1701.pdf) to info@sandroid.org.
000033:
000034:                                                                                                  #  In some cases, where the source code for Luminary 131 overlaps that of
000035:                                                                                                  #  Colossus 249, this code is instead copied from the corresponding Luminary 131
000036:                                                                                                  #  source file, and then is proofed to incorporate any changes.
000037:
000038:                                                                                                  #  Page 915
000039:                                                                                                  #  PROGRAM NAME....MASSPROP
000040:                                                                                                  #  LOG SECTION....TVCMASSPROP            PROGRAMMER...MELANSON (ENGEL, SCHLUNDT)
000041:
000042:                                                                                                  #  FUNCTIONAL DESCRIPTION:
000043:
000044:                                                                                                  #        MASSPROP OPERATES IN TWO MODES: (1) IF LEM MASS OR CONFIGURATION ARE UPDATED (MASSPROP DOES NOT TEST
000045:                                                                                                  #        FOR THIS) THE ENTIRE PROGRAM MUST BE RUN THROUGH, BREAKPOINT VALUES AND DERIVATIVES OF THE OUTPUTS WITH
000046:                                                                                                  #        RESPECT TO CSM MASS BEING CALCULATED PRIOR TO CALCULATION OF THE OUTPUTS.  (2) OTHERWISE, THE OUTPUTS CAN BE
000047:                                                                                                  #        CALCULATED USING PREVIOUSLY COMPUTED BREAKPOINT VALUES AND DERIVATIVES.
000048:
000049:                                                                                                  #  CALLING SEQUENCES
000050:
000051:                                                                                                  #        IF LEM MASS OR CONFIGURATION HAS BEEN UPDATED, TRANSFER TO MASSPROP, OTHERWISE TRANSFER TO FIXCW.
000052:                                                                                                  #                L       TC      BANKCALL or IBNKCALL
000053:                                                                                                  #                L+1     CADR    MASSPROP
000054:                                                                                                  #                        or
000055:                                                                                                  #                L+1     CADR    FIXCW
000056:                                                                                                  #                L+2     RETURNS VIA Q
000057:
000058:                                                                                                  #  CALLED:  IN PARTICULAR BY DONOUN47 (JOB) AND TVCEXECUTIVE (TASK)
000059:
000060:                                                                                                  #  JOBS OR TASKS INITIATED:  NONE
000061:
000062:                                                                                                  #  SUBROUTINES CALLED:  NONE
000063:
000064:                                                                                                  #  ERASABLE INITIALIZATION REQUIRED
000065:
000066:                                                                                                  #        LEMMASS MUST CONTAIN LEM MASS SCALED AT B+16 KILOGRAMS
000067:                                                                                                  #        CSMMASS MUST CONTAIN CSM MASS SCALED AT B+16 KILOGRAMS
000068:                                                                                                  #        DAPDATR1 MUST BE SET TO INDICATE VEHICLE CONFIGURATION.
000069:                                                                                                  #                BITS (15,14,13)  =  ( 0 , 0 , 1 )       LEM OFF
000070:                                                                                                  #                                    ( 0 , 1 , 0 )       LEM ON (ASCNT,DSCNT)
000071:                                                                                                  #                                    ( 1 , 1 , 0 )       LEM ON (ASCNT ONLY)
000072:
000073:                                                                                                  #  ALARMS:  NONE
000074:
000075:                                                                                                  #  EXIT:         TC      Q
000076:
000077:                                                                                                  #  OUTPUTS:
000078:
000079:                                                                                                  #        (1)     IXX, SINGLE PRECISION SCALED AT B+20 IN KG-M SQ.
000080:                                                                                                  #        (2)     IAVG, SINGLE PRECISION SCALED AT B+20 IN KG-M SQ.
000081:                                                                                                  #        (3)     IAVG/TLX, SINGLE PRECISION, SCALED AT B+2 SEC-SQD
000082:                                                                                                  #
000083:                                                                                                  #        THEY ARE STORED IN CONSECUTIVE REGISTERS IXX0, IXX1, IXX2
000084:                                                                                                  #        CONVERSION FACTOR:  (SLUG-FTSQ) = 0.737562 (KG-MSQ)
000085:                                                                                                  #  Page 916
000086:
000087:                                                                                                  #  OUTPUTS ARE CALCULATED AS FOLLOWS:
000088:
000089:                                                                                                  #        (1)     IF LEM DOCKED, LEMMASS IS FIRST ELIMINATED AS A PARAMETER
000090:
000091:                                                                                                  #                VARST0 = INTVALUE0 + LEMMASS(SLOPEVAL0)         IXX             BREAKPOINT VALUE
000092:                                                                                                  #                VARST1 = INTVALUE1 + LEMMASS(SLOPEVAL1)         IAVG            BREAKPOINT VALUE
000093:                                                                                                  #                VARST2 = INTVALUE2 + LEMMASS(SLOPEVAL2)         IAVG/TLX        BREAKPOINT VALUE
000094:
000095:                                                                                                  #                VARST3 = INTVALUE3 + LEMMASS(SLOPEVAL3)         IAVG/TLX        SLOPE FOR CSMMASS > 33956 LBS (SPS > 10000 LBS)
000096:                                                                                                  #                VARST4 = INTVALUE4 + LEMMASS(SLOPEVAL4)         IAVG            SLOPE FOR CSMMASS > 33956 LBS (SPS > 10000 LBS)
000097:
000098:                                                                                                  #                VARST5 = INTVALUE5 + LEMMASS(SLOPEVAL5)         IXX             SLOPE FOR ALL VALUES OF CSMMASS
000099:
000100:                                                                                                  #                VARST6 = INTVALUE6 + LEMMASS(SLOPEVAL6)         IAVG            SLOPE FOR CSMMASS < 33956 LBS (SPS < 10000 LBS)
000101:                                                                                                  #                VARST7 = INTVALUE7 + LEMMASS(SLOPEVAL7)         IAVG/TLX        SLOPE FOR CSMMASS < 33956 LBS (SPS < 10000 LBS)
000102:
000103:                                                                                                  #                VARST8 = INTVALUE8 + LEMMASS(SLOPEVAL8)         IAVG            DECREMENT TO BRKPT VALUE WHEN LEM DSCNT STAGE OFF
000104:                                                                                                  #                VARST9 = INTVALUE9 + LEMMASS(SLOPEVAL9)         IAVG/TLX        DECREMENT TO BRKPT VALUE WHEN LEM DSCNT STAGE OFF
000105:
000106:                                                                                                  #        (2)     IF LEM NOT DOCKED
000107:
000108:                                                                                                  #                VARST0 = NOLEMVAL0      WHERE THE MEANING AND SCALING OF VARST0
000109:                                                                                                  #                        .               TO VARST9 ARE THE SAME AS GIVEN ABOVE
000110:                                                                                                  #                        .
000111:                                                                                                  #                        .               NOTE... FOR THIS CASE, VARST8,9 HAVE NO
000112:                                                                                                  #                VARST9 = NOLEMVAL9      MEANING (THEY ARE COMPUTED BUT NOT USED)
000113:
000114:                                                                                                  #        (3)     THE FINAL OUTPUT CALCULATIONS ARE THEN DONE
000115:
000116:                                                                                                  #                IXX0 = VARST0 + (CSMMASS + NEGBPW)VARST5                IXX
000117:
000118:                                                                                                  #                IXX1 = VARST1 + (CSMMASS + NEGBPW)VARST(4 OR 6)         IAVG
000119:
000120:                                                                                                  #                IXX2 = VARST2 + (CSMMASS + NEGBPW)VARST(3 OR 7)         IAVG/TLX
000121:
000122:                                                                                                  #        THE DATA USED CAME FROM THE CSM/LM SPACECRAFT OPERATIONAL DATA BOOK
000123:                                                                                                  #                VOL. 3, NASA DOCUMENT SNA-8-D-027 (MARCH 1968)
000124:
000125:                                                                                                  #        PERTINENT MASS DATA:            CSM WEIGHT      (FULL)  64100 LBS.
000126:                                                                                                  #                                                        (EMPTY) 23956 LBS.
000127:                                                                                                  #                                        LEM WEIGHT      (FULL)  32000 LBS.
000128:                                                                                                  #                                                        (EMPTY) 14116 LBS.
000129:
000130:                                                                                                  #        (WEIGHTS ARE FROM AMMENDMENT ?1 (APRIL 24, 1968) TO ABOVE DATA BOOK)
000131:                                                                                                  #  Page 917
000132:
000133: 25,3766                                           BANK     25
000134: 05,2000                                           SETLOC   DAPMASS
000135: 05,2000                                           BANK
000136: 05,3207  E6,1742                                  EBANK=   BZERO
000137: 05,3207                                           COUNT*   $$/MASP
000138:
000139: 05,3207           34334        MASSPROP           CAF      NINE                                  #  MASSPROP USES TVC/RCS INTERRUPT TEMPS
000140: 05,3210           55506                           TS       PHI333                                #  SET UP TEN PASSES
000141:
000142: 05,3211           31466        LEMTEST            CAE      DAPDATR1                              #  DETERMINE LEM STATUS
000143: 05,3212           74676                           MASK     BIT13
000144: 05,3213           00006                           EXTEND
000145: 05,3214           13220                           BZF      LEMYES
000146:
000147: 05,3215           51506        LEMNO              INDEX    PHI333                                #  LEM NOT ATTACHED
000148: 05,3216           33304                           CAF      NOLEMVAL
000149: 05,3217           13230                           TCF      STOINST
000150:
000151: 05,3220           31473        LEMYES             CAE      LEMMASS                               #  LEM IS ATTACHED
000152: 05,3221           60000                           DOUBLE
000153: 05,3222           00006                           EXTEND
000154: 05,3223           51506                           INDEX    PHI333
000155: 05,3224           73326                           MP       SLOPEVAL
000156: 05,3225           20001                           DDOUBL
000157: 05,3226           51506                           INDEX    PHI333
000158: 05,3227           63314                           AD       INTVALUE
000159:
000160: 05,3230           51506        STOINST            INDEX    PHI333                                #  STORAGE INST BEGIN HERE
000161: 05,3231           55511                           TS       VARST0
000162: 05,3232           11506                           CCS      PHI333                                #  ARE ALL TEN PASSES COMPLETED
000163: 05,3233           13210                           TCF      MASSPROP   +1                         #  NO: GO DECREMENT PHI333
000164:
000165: 05,3234           11466        DXTEST             CCS      DAPDATR1                              #  IF NEG, BIT15 IS 1, LEM DSCNT STAGE OFF
000166: 05,3235           13243                           TCF      FIXCW
000167: 05,3236           13243                           TCF      FIXCW
000168: 05,3237           53522                           DXCH     VARST0     +8D
000169: 05,3240           21513                           DAS      VARST0     +1
000170: 05,3241           33341                           CA       DXITFIX
000171: 05,3242           27520                           ADS      VARST0     +7
000172:
000173: 05,3243           34711        FIXCW              CAF      BIT2                                  #  COMPUTATION PHASE BEGINS HERE. SET UP
000174: 05,3244           55506                           TS       PHI333                                #  THREE PASSES
000175: 05,3245           55507                           TS       PSI333
000176:
000177: 05,3246           31474                           CAE      CSMMASS                               #  GET DELTA CSM WEIGHT:  SIGN DETERMINES
000178: 05,3247           63340                           AD       NEGBPW                                #  SLOPE LOCATIONS.
000179: 05,3250           60000                           DOUBLE
000180: 05,3251           55510                           TS       TEMP333
000181:                                                                                                  #  Page 918
000182: 05,3252           00006                           EXTEND
000183: 05,3253           63256                           BZMF     PEGGY                                 #  DETERMINE CORRECT SLOPE
000184: 05,3254           37715                           CAF      NEG2
000185: 05,3255           55506                           TS       PHI333
000186:
000187: 05,3256           51506        PEGGY              INDEX    PHI333                                #  ALL IS READY:  CALCULATE OUTPUTS NOW
000188: 05,3257           31516                           CAE      VARST5                                #  GET SLOPE
000189: 05,3260           00006                           EXTEND
000190: 05,3261           71510                           MP       TEMP333                               #  MULT BY DELTA CSM WEIGHT
000191: 05,3262           60000                           DOUBLE
000192: 05,3263           51507                           INDEX    PSI333
000193: 05,3264           61511                           AD       VARST0                                #  ADD BREAKPOINT VALUE
000194: 05,3265           51507                           INDEX    PSI333
000195: 05,3266           55470                           TS       IXX                                   #  ***** OUTPUTS (IXX0, IXX1, IXX2) *****
000196: 05,3267           11507                           CCS      PSI333                                #  BOOKKEEPING: MASSPROP FINISHED OR NOT
000197: 05,3270           13300                           TCF      BOKKEP2                               #  NO:  GO TAKE CARE OF INDEXING REGISTERS
000198:
000199: 05,3271           31466                           CAE      DAPDATR1                              #  UPDATE WEIGHT/G
000200: 05,3272           74675                           MASK     BIT14
000201: 05,3273           10000                           CCS      A
000202: 05,3274           31473                           CA       LEMMASS
000203: 05,3275           61474                           AD       CSMMASS
000204: 05,3276           55475                           TS       WEIGHT/G                              #  SCALED AT B+16 KILOGRAMS
000205: 05,3277           00002        ENDMASSP           TC       Q
000206:
000207: 05,3300           55507        BOKKEP2            TS       PSI333                                #  REDUCE PSI BY ONE
000208: 05,3301           00006                           EXTEND
000209: 05,3302           27506                           DIM      PHI333
000210: 05,3303           13256                           TCF      PEGGY
000211:
000212:                                                                                                  #  Page 919
000213: 05,3304           00616        NOLEMVAL           DEC      25445      B-20
000214: 05,3305           02526                           DEC      87450      B-20
000215: 05,3306           02352                           DEC      .30715     B-2
000216: 05,3307           01471                           DEC      1.22877    E-5        B+12
000217: 05,3310           00634                           DEC      1.6096     B-6
000218: 05,3311           00612                           DEC      1.54       B-6
000219: 05,3312           03706                           DEC      7.77177    B-6
000220: 05,3313           04425                           DEC      3.46458    E-5        B+12
000221:
000222: 05,3314           00644        INTVALUE           DEC      26850      B-20
000223: 05,3315           03710                           DEC      127518     B-20
000224: 05,3316           04246                           DEC      .54059     B-2
000225: 05,3317           02011                           DEC      .153964    E-4        B+12
000226: 05,3320           77501                           DEC      -.742923   B-6
000227: 05,3321           00612                           DEC      1.5398     B-6
000228: 05,3322           04656                           DEC      9.68       B-6
000229: 05,3323           10372                           DEC      .647625    E-4        B+12
000230: 05,3324           77126                           DEC      -27228     B-20
000231: 05,3325           76261                           DEC      -.206476   B-2
000232:
000233: 05,3326           00767        SLOPEVAL           DEC      1.96307    B-6
000234: 05,3327           15624                           DEC      27.5774    B-6
000235: 05,3330           03054                           DEC      2.3548     E-5        B+12
000236: 05,3331           04532                           DEC      2.1777     E-9        B+26
000237: 05,3332           10433                           DEC      1.044      E-3        B+8
000238: 05,3333           00000                           DEC      0          B-14
000239: 05,3334           22070                           DEC      2.21068    E-3        B+8
000240: 05,3335           03204                           DEC      1.5166     E-9        B+26
000241: 05,3336           77266                           DEC      -1.284     B-6
000242: 05,3337           02476                           DEC      2          E-5        B+12
000243:
000244: 05,3340           70364        NEGBPW             DEC      -15402.17  B-16
000245: 05,3341           75420        DXITFIX            DEC*     -1.88275   E-5        B+12*
000246:

End of include-file TVCMASSPROP.agc.  Parent file is MAIN.agc


