
Source Code
000001:                                                                                                 #  Copyright:     Public domain.
000002:                                                                                                 #  Filename:      TVCMASSPROP.agc
000003:                                                                                                 #  Purpose:       Part of the source code for Colossus, build 249.
000004:                                                                                                 #                 It is part of the source code for the Command Module's (CM)
000005:                                                                                                 #                 Apollo Guidance Computer (AGC), possibly for Apollo 8 and 9.
000006:                                                                                                 #  Assembler:     yaYUL
000007:                                                                                                 #  Reference:     Begins on p. 915 of 1701.pdf.
000008:                                                                                                 #  Contact:       Ron Burkey <info@sandroid.org>.
000009:                                                                                                 #  Website:       www.ibiblio.org/apollo/index.html
000010:                                                                                                 #  Mod history:   08/23/04 RSB.   Began transcribing.
000011:                                                                                                 #                 05/14/05 RSB.   Corrected website reference above.
000012:
000013:                                                                                                 #  The contents of the "Colossus249" files, in general, are transcribed
000014:                                                                                                 #  from a scanned document obtained from MIT's website,
000015:                                                                                                 #  http://hrst.mit.edu/hrs/apollo/public/archive/1701.pdf.  Notations on this
000016:                                                                                                 #  document read, in part:
000017:
000018:                                                                                                 #         Assemble revision 249 of AGC program Colossus by NASA
000019:                                                                                                 #         2021111-041.  October 28, 1968.
000020:
000021:                                                                                                 #         This AGC program shall also be referred to as
000022:                                                                                                 #                                 Colossus 1A
000023:
000024:                                                                                                 #         Prepared by
000025:                                                                                                 #                         Massachussets Institute of Technology
000026:                                                                                                 #                         75 Cambridge Parkway
000027:                                                                                                 #                         Cambridge, Massachusetts
000028:                                                                                                 #         under NASA contract NAS 9-4065.
000029:
000030:                                                                                                 #  Refer directly to the online document mentioned above for further information.
000031:                                                                                                 #  Please report any errors (relative to 1701.pdf) to info@sandroid.org.
000032:
000033:                                                                                                 #  In some cases, where the source code for Luminary 131 overlaps that of
000034:                                                                                                 #  Colossus 249, this code is instead copied from the corresponding Luminary 131
000035:                                                                                                 #  source file, and then is proofed to incorporate any changes.
000036:
000037:                                                                                                 #  Page 915
000038:                                                                                                 #  PROGRAM NAME....MASSPROP
000039:                                                                                                 #  LOG SECTION....TVCMASSPROP             PROGRAMMER...MELANSON (ENGEL, SCHLUNDT)
000040:
000041:                                                                                                 #  FUNCTIONAL DESCRIPTION:
000042:
000043:                                                                                                 #         MASSPROP OPERATES IN TWO MODES: (1) IF LEM MASS OR CONFIGURATION ARE UPDATED (MASSPROP DOES NOT TEST
000044:                                                                                                 #         FOR THIS) THE ENTIRE PROGRAM MUST BE RUN THROUGH, BREAKPOINT VALUES AND DERIVATIVES OF THE OUTPUTS WITH
000045:                                                                                                 #         RESPECT TO CSM MASS BEING CALCULATED PRIOR TO CALCULATION OF THE OUTPUTS.  (2) OTHERWISE, THE OUTPUTS CAN BE
000046:                                                                                                 #         CALCULATED USING PREVIOUSLY COMPUTED BREAKPOINT VALUES AND DERIVATIVES.
000047:
000048:                                                                                                 #  CALLING SEQUENCES
000049:
000050:                                                                                                 #         IF LEM MASS OR CONFIGURATION HAS BEEN UPDATED, TRANSFER TO MASSPROP, OTHERWISE TRANSFER TO FIXCW.
000051:                                                                                                 #                 L       TC      BANKCALL or IBNKCALL
000052:                                                                                                 #                 L+1     CADR    MASSPROP
000053:                                                                                                 #                         or
000054:                                                                                                 #                 L+1     CADR    FIXCW
000055:                                                                                                 #                 L+2     RETURNS VIA Q
000056:
000057:                                                                                                 #  CALLED:  IN PARTICULAR BY DONOUN47 (JOB) AND TVCEXECUTIVE (TASK)
000058:
000059:                                                                                                 #  JOBS OR TASKS INITIATED:  NONE
000060:
000061:                                                                                                 #  SUBROUTINES CALLED:  NONE
000062:
000063:                                                                                                 #  ERASABLE INITIALIZATION REQUIRED
000064:
000065:                                                                                                 #         LEMMASS MUST CONTAIN LEM MASS SCALED AT B+16 KILOGRAMS
000066:                                                                                                 #         CSMMASS MUST CONTAIN CSM MASS SCALED AT B+16 KILOGRAMS
000067:                                                                                                 #         DAPDATR1 MUST BE SET TO INDICATE VEHICLE CONFIGURATION.
000068:                                                                                                 #                 BITS (15,14,13)  =  ( 0 , 0 , 1 )       LEM OFF
000069:                                                                                                 #                                     ( 0 , 1 , 0 )       LEM ON (ASCNT,DSCNT)
000070:                                                                                                 #                                     ( 1 , 1 , 0 )       LEM ON (ASCNT ONLY)
000071:
000072:                                                                                                 #  ALARMS:  NONE
000073:
000074:                                                                                                 #  EXIT:          TC      Q
000075:
000076:                                                                                                 #  OUTPUTS:
000077:
000078:                                                                                                 #         (1)     IXX, SINGLE PRECISION SCALED AT B+20 IN KG-M SQ.
000079:                                                                                                 #         (2)     IAVG, SINGLE PRECISION SCALED AT B+20 IN KG-M SQ.
000080:                                                                                                 #         (3)     IAVG/TLX, SINGLE PRECISION, SCALED AT B+2 SEC-SQD
000081:                                                                                                 #
000082:                                                                                                 #         THEY ARE STORED IN CONSECUTIVE REGISTERS IXX0, IXX1, IXX2
000083:                                                                                                 #         CONVERSION FACTOR:  (SLUG-FTSQ) = 0.737562 (KG-MSQ)
000084:                                                                                                 #  Page 916
000085:
000086:                                                                                                 #  OUTPUTS ARE CALCULATED AS FOLLOWS:
000087:
000088:                                                                                                 #         (1)     IF LEM DOCKED, LEMMASS IS FIRST ELIMINATED AS A PARAMETER
000089:
000090:                                                                                                 #                 VARST0 = INTVALUE0 + LEMMASS(SLOPEVAL0)         IXX             BREAKPOINT VALUE
000091:                                                                                                 #                 VARST1 = INTVALUE1 + LEMMASS(SLOPEVAL1)         IAVG            BREAKPOINT VALUE
000092:                                                                                                 #                 VARST2 = INTVALUE2 + LEMMASS(SLOPEVAL2)         IAVG/TLX        BREAKPOINT VALUE
000093:
000094:                                                                                                 #                 VARST3 = INTVALUE3 + LEMMASS(SLOPEVAL3)         IAVG/TLX        SLOPE FOR CSMMASS > 33956 LBS (SPS > 10000 LBS)
000095:                                                                                                 #                 VARST4 = INTVALUE4 + LEMMASS(SLOPEVAL4)         IAVG            SLOPE FOR CSMMASS > 33956 LBS (SPS > 10000 LBS)
000096:
000097:                                                                                                 #                 VARST5 = INTVALUE5 + LEMMASS(SLOPEVAL5)         IXX             SLOPE FOR ALL VALUES OF CSMMASS
000098:
000099:                                                                                                 #                 VARST6 = INTVALUE6 + LEMMASS(SLOPEVAL6)         IAVG            SLOPE FOR CSMMASS < 33956 LBS (SPS < 10000 LBS)
000100:                                                                                                 #                 VARST7 = INTVALUE7 + LEMMASS(SLOPEVAL7)         IAVG/TLX        SLOPE FOR CSMMASS < 33956 LBS (SPS < 10000 LBS)
000101:
000102:                                                                                                 #                 VARST8 = INTVALUE8 + LEMMASS(SLOPEVAL8)         IAVG            DECREMENT TO BRKPT VALUE WHEN LEM DSCNT STAGE OFF
000103:                                                                                                 #                 VARST9 = INTVALUE9 + LEMMASS(SLOPEVAL9)         IAVG/TLX        DECREMENT TO BRKPT VALUE WHEN LEM DSCNT STAGE OFF
000104:
000105:                                                                                                 #         (2)     IF LEM NOT DOCKED
000106:
000107:                                                                                                 #                 VARST0 = NOLEMVAL0      WHERE THE MEANING AND SCALING OF VARST0
000108:                                                                                                 #                         .               TO VARST9 ARE THE SAME AS GIVEN ABOVE
000109:                                                                                                 #                         .
000110:                                                                                                 #                         .               NOTE... FOR THIS CASE, VARST8,9 HAVE NO
000111:                                                                                                 #                 VARST9 = NOLEMVAL9      MEANING (THEY ARE COMPUTED BUT NOT USED)
000112:
000113:                                                                                                 #         (3)     THE FINAL OUTPUT CALCULATIONS ARE THEN DONE
000114:
000115:                                                                                                 #                 IXX0 = VARST0 + (CSMMASS + NEGBPW)VARST5                IXX
000116:
000117:                                                                                                 #                 IXX1 = VARST1 + (CSMMASS + NEGBPW)VARST(4 OR 6)         IAVG
000118:
000119:                                                                                                 #                 IXX2 = VARST2 + (CSMMASS + NEGBPW)VARST(3 OR 7)         IAVG/TLX
000120:
000121:                                                                                                 #         THE DATA USED CAME FROM THE CSM/LM SPACECRAFT OPERATIONAL DATA BOOK
000122:                                                                                                 #                 VOL. 3, NASA DOCUMENT SNA-8-D-027 (MARCH 1968)
000123:
000124:                                                                                                 #         PERTINENT MASS DATA:            CSM WEIGHT      (FULL)  64100 LBS.
000125:                                                                                                 #                                                         (EMPTY) 23956 LBS.
000126:                                                                                                 #                                         LEM WEIGHT      (FULL)  32000 LBS.
000127:                                                                                                 #                                                         (EMPTY) 14116 LBS.
000128:
000129:                                                                                                 #         (WEIGHTS ARE FROM AMMENDMENT ?1 (APRIL 24, 1968) TO ABOVE DATA BOOK)
000130:                                                                                                 #  Page 917
000131:
000132: 25,3766                                          BANK     25
000133: 05,2000                                          SETLOC   DAPMASS
000134: 05,2000                                          BANK
000135: 05,3207  E6,1742                                 EBANK=   BZERO
000136: 05,3207                                          COUNT*   $$/MASP
000137:
000138: 05,3207           34334        MASSPROP          CAF      NINE                                  #  MASSPROP USES TVC/RCS INTERRUPT TEMPS
000139: 05,3210           55506                          TS       PHI333                                #  SET UP TEN PASSES
000140:
000141: 05,3211           31466        LEMTEST           CAE      DAPDATR1                              #  DETERMINE LEM STATUS
000142: 05,3212           74676                          MASK     BIT13
000143: 05,3213           00006                          EXTEND
000144: 05,3214           13220                          BZF      LEMYES
000145:
000146: 05,3215           51506        LEMNO             INDEX    PHI333                                #  LEM NOT ATTACHED
000147: 05,3216           33304                          CAF      NOLEMVAL
000148: 05,3217           13230                          TCF      STOINST
000149:
000150: 05,3220           31473        LEMYES            CAE      LEMMASS                               #  LEM IS ATTACHED
000151: 05,3221           60000                          DOUBLE
000152: 05,3222           00006                          EXTEND
000153: 05,3223           51506                          INDEX    PHI333
000154: 05,3224           73326                          MP       SLOPEVAL
000155: 05,3225           20001                          DDOUBL
000156: 05,3226           51506                          INDEX    PHI333
000157: 05,3227           63314                          AD       INTVALUE
000158:
000159: 05,3230           51506        STOINST           INDEX    PHI333                                #  STORAGE INST BEGIN HERE
000160: 05,3231           55511                          TS       VARST0
000161: 05,3232           11506                          CCS      PHI333                                #  ARE ALL TEN PASSES COMPLETED
000162: 05,3233           13210                          TCF      MASSPROP   +1                         #  NO: GO DECREMENT PHI333
000163:
000164: 05,3234           11466        DXTEST            CCS      DAPDATR1                              #  IF NEG, BIT15 IS 1, LEM DSCNT STAGE OFF
000165: 05,3235           13243                          TCF      FIXCW
000166: 05,3236           13243                          TCF      FIXCW
000167: 05,3237           53522                          DXCH     VARST0     +8D
000168: 05,3240           21513                          DAS      VARST0     +1
000169: 05,3241           33341                          CA       DXITFIX
000170: 05,3242           27520                          ADS      VARST0     +7
000171:
000172: 05,3243           34711        FIXCW             CAF      BIT2                                  #  COMPUTATION PHASE BEGINS HERE. SET UP
000173: 05,3244           55506                          TS       PHI333                                #  THREE PASSES
000174: 05,3245           55507                          TS       PSI333
000175:
000176: 05,3246           31474                          CAE      CSMMASS                               #  GET DELTA CSM WEIGHT:  SIGN DETERMINES
000177: 05,3247           63340                          AD       NEGBPW                                #  SLOPE LOCATIONS.
000178: 05,3250           60000                          DOUBLE
000179: 05,3251           55510                          TS       TEMP333
000180:                                                                                                 #  Page 918
000181: 05,3252           00006                          EXTEND
000182: 05,3253           63256                          BZMF     PEGGY                                 #  DETERMINE CORRECT SLOPE
000183: 05,3254           37715                          CAF      NEG2
000184: 05,3255           55506                          TS       PHI333
000185:
000186: 05,3256           51506        PEGGY             INDEX    PHI333                                #  ALL IS READY:  CALCULATE OUTPUTS NOW
000187: 05,3257           31516                          CAE      VARST5                                #  GET SLOPE
000188: 05,3260           00006                          EXTEND
000189: 05,3261           71510                          MP       TEMP333                               #  MULT BY DELTA CSM WEIGHT
000190: 05,3262           60000                          DOUBLE
000191: 05,3263           51507                          INDEX    PSI333
000192: 05,3264           61511                          AD       VARST0                                #  ADD BREAKPOINT VALUE
000193: 05,3265           51507                          INDEX    PSI333
000194: 05,3266           55470                          TS       IXX                                   #  ***** OUTPUTS (IXX0, IXX1, IXX2) *****
000195: 05,3267           11507                          CCS      PSI333                                #  BOOKKEEPING: MASSPROP FINISHED OR NOT
000196: 05,3270           13300                          TCF      BOKKEP2                               #  NO:  GO TAKE CARE OF INDEXING REGISTERS
000197:
000198: 05,3271           31466                          CAE      DAPDATR1                              #  UPDATE WEIGHT/G
000199: 05,3272           74675                          MASK     BIT14
000200: 05,3273           10000                          CCS      A
000201: 05,3274           31473                          CA       LEMMASS
000202: 05,3275           61474                          AD       CSMMASS
000203: 05,3276           55475                          TS       WEIGHT/G                              #  SCALED AT B+16 KILOGRAMS
000204: 05,3277           00002        ENDMASSP          TC       Q
000205:
000206: 05,3300           55507        BOKKEP2           TS       PSI333                                #  REDUCE PSI BY ONE
000207: 05,3301           00006                          EXTEND
000208: 05,3302           27506                          DIM      PHI333
000209: 05,3303           13256                          TCF      PEGGY
000210:
000211:                                                                                                 #  Page 919
000212: 05,3304           00616        NOLEMVAL          DEC      25445      B-20
000213: 05,3305           02526                          DEC      87450      B-20
000214: 05,3306           02352                          DEC      .30715     B-2
000215: 05,3307           01471                          DEC      1.22877    E-5        B+12
000216: 05,3310           00634                          DEC      1.6096     B-6
000217: 05,3311           00612                          DEC      1.54       B-6
000218: 05,3312           03706                          DEC      7.77177    B-6
000219: 05,3313           04425                          DEC      3.46458    E-5        B+12
000220:
000221: 05,3314           00644        INTVALUE          DEC      26850      B-20
000222: 05,3315           03710                          DEC      127518     B-20
000223: 05,3316           04246                          DEC      .54059     B-2
000224: 05,3317           02011                          DEC      .153964    E-4        B+12
000225: 05,3320           77501                          DEC      -.742923   B-6
000226: 05,3321           00612                          DEC      1.5398     B-6
000227: 05,3322           04656                          DEC      9.68       B-6
000228: 05,3323           10372                          DEC      .647625    E-4        B+12
000229: 05,3324           77126                          DEC      -27228     B-20
000230: 05,3325           76261                          DEC      -.206476   B-2
000231:
000232: 05,3326           00767        SLOPEVAL          DEC      1.96307    B-6
000233: 05,3327           15624                          DEC      27.5774    B-6
000234: 05,3330           03054                          DEC      2.3548     E-5        B+12
000235: 05,3331           04532                          DEC      2.1777     E-9        B+26
000236: 05,3332           10433                          DEC      1.044      E-3        B+8
000237: 05,3333           00000                          DEC      0          B-14
000238: 05,3334           22070                          DEC      2.21068    E-3        B+8
000239: 05,3335           03204                          DEC      1.5166     E-9        B+26
000240: 05,3336           77266                          DEC      -1.284     B-6
000241: 05,3337           02476                          DEC      2          E-5        B+12
000242:
000243: 05,3340           70364        NEGBPW            DEC      -15402.17  B-16
000244: 05,3341           75420        DXITFIX           DEC*     -1.88275   E-5        B+12*
000245:

End of include-file TVCMASSPROP.agc.  Parent file is MAIN.agc


