
Source Code


000002:                                                                                                  ## Copyright:   Public domain.
000003:                                                                                                  ## Filename:    TVCMASSPROP.agc
000004:                                                                                                  ## Purpose:     Part of the source code for Colossus, build 249.
000005:                                                                                                  ##              It is part of the source code for the Command Module's (CM)
000006:                                                                                                  ##              Apollo Guidance Computer (AGC), for Apollo 9.
000007:                                                                                                  ## Assembler:   yaYUL
000008:                                                                                                  ## Reference:   Begins on p. 911
000009:                                                                                                  ## Contact:     Ron Burkey <info@sandroid.org>.
000010:                                                                                                  ## Website:     www.ibiblio.org/apollo/index.html
000011:                                                                                                  ## Mod history: 08/23/04 RSB.   Began transcribing.
000012:                                                                                                  ##              05/14/05 RSB.   Corrected website reference above.
000013:                                                                                                  ##              2017-01-06 RSB  Page numbers now agree with those on the
000014:                                                                                                  ##                              original harcopy, as opposed to the PDF page
000015:                                                                                                  ##                              numbers in 1701.pdf.
000016:                                                                                                  ##              2017-01-20 RSB  Cross-diff'd comment text (not whitespace)
000017:                                                                                                  ##                              vs the already-proofed corresponding Colossus
000018:                                                                                                  ##                              237 and Comanche 55 source-code files
000019:                                                                                                  ##                              and corrected errors found.
000020:                                                                                                  ##
000021:                                                                                                  ## The contents of the "Colossus249" files, in general, are transcribed
000022:                                                                                                  ## from a scanned copy of the program listing.  Notations on this
000023:                                                                                                  ## document read, in part:
000024:                                                                                                  ##
000025:                                                                                                  ##      Assemble revision 249 of AGC program Colossus by NASA
000026:                                                                                                  ##      2021111-041.  October 28, 1968.
000027:                                                                                                  ##
000028:                                                                                                  ##      This AGC program shall also be referred to as
000029:                                                                                                  ##                              Colossus 1A
000030:                                                                                                  ##
000031:                                                                                                  ##      Prepared by
000032:                                                                                                  ##                      Massachusetts Institute of Technology
000033:                                                                                                  ##                      75 Cambridge Parkway
000034:                                                                                                  ##                      Cambridge, Massachusetts
000035:                                                                                                  ##      under NASA contract NAS 9-4065.
000036:                                                                                                  ##
000037:                                                                                                  ## Refer directly to the online document mentioned above for further information.
000038:                                                                                                  ## Please report any errors (relative to the scanned pages) to info@sandroid.org.
000039:                                                                                                  ##
000040:                                                                                                  ## In some cases, where the source code for Luminary 131 overlaps that of
000041:                                                                                                  ## Colossus 249, this code is instead copied from the corresponding Luminary 131
000042:                                                                                                  ## source file, and then is proofed to incorporate any changes.
000043:


000045:                                                                                                  #  PROGRAM NAME....MASSPROP
000046:                                                                                                  #  LOG SECTION....TVCMASSPROP            PROGRAMMER...MELANSON (ENGEL, SCHLUNDT)
000047:
000048:                                                                                                  #  FUNCTIONAL DESCRIPTION:
000049:
000050:                                                                                                  #        MASSPROP OPERATES IN TWO MODES: (1) IF LEM MASS OR CONFIGURATION ARE UPDATED (MASSPROP DOES NOT TEST
000051:                                                                                                  #        FOR THIS) THE ENTIRE PROGRAM MUST BE RUN THROUGH, BREAKPOINT VALUES AND DERIVATIVES OF THE OUTPUTS WITH
000052:                                                                                                  #        RESPECT TO CSM MASS BEING CALCULATED PRIOR TO CALCULATION OF THE OUTPUTS.  (2) OTHERWISE, THE OUTPUTS CAN BE
000053:                                                                                                  #        CALCULATED USING PREVIOUSLY COMPUTED BREAKPOINT VALUES AND DERIVATIVES.
000054:
000055:                                                                                                  #  CALLING SEQUENCES
000056:
000057:                                                                                                  #        IF LEM MASS OR CONFIGURATION HAS BEEN UPDATED, TRANSFER TO MASSPROP, OTHERWISE TRANSFER TO FIXCW.
000058:                                                                                                  #                L       TC      BANKCALL OR IBNKCALL
000059:                                                                                                  #                L+1     CADR    MASSPROP
000060:                                                                                                  #                        OR
000061:                                                                                                  #                L+1     CADR    FIXCW
000062:                                                                                                  #                L+2     RETURNS VIA Q
000063:
000064:                                                                                                  #  CALLED   IN PARTICULAR BY DONOUN47 (JOB) AND TVCEXECUTIVE (TASK)
000065:
000066:                                                                                                  #  JOBS OR TASKS INITIATED - NONE
000067:
000068:                                                                                                  #  SUBROUTINES CALLED - NONE
000069:
000070:                                                                                                  #  ERASABLE INITIALIZATION REQUIRED
000071:
000072:                                                                                                  #        LEMMASS MUST CONTAIN LEM MASS SCALED AT B+16 IN KILOGRAMS
000073:                                                                                                  #        CSMMASS MUST CONTAIN CSM MASS SCALED AT B+16 IN KILOGRAMS
000074:                                                                                                  #        DAPDATR1 MUST BE SET TO INDICATE VEHICLE CONFIGURATION.
000075:                                                                                                  #                BITS (15,14,13)  =  ( 0 , 0 , 1 )       LEM OFF
000076:                                                                                                  #                                    ( 0 , 1 , 0 )       LEM ON (ASCNT,DSCNT)
000077:                                                                                                  #                                    ( 1 , 1 , 0 )       LEM ON (ASCNT ONLY)
000078:
000079:                                                                                                  #  ALARMS -      NONE
000080:
000081:                                                                                                  #  EXIT -        TC      Q
000082:
000083:                                                                                                  #  OUTPUTS:
000084:
000085:                                                                                                  #        (1)     IXX, SINGLE PRECISION SCALED AT B+20 IN KG-M SQ.
000086:                                                                                                  #        (2)     IAVG, SINGLE PRECISION SCALED AT B+20 IN KG-M SQ.
000087:                                                                                                  #        (3)     IAVG/TLX, SINGLE PRECISION, SCALED AT B+2 SEC-SQD
000088:                                                                                                  #
000089:                                                                                                  #        THEY ARE STORED IN CONSECUTIVE REGISTERS IXX0, IXX1, IXX2
000090:                                                                                                  #        CONVERSION FACTOR:  (SLUG-FTSQ) = 0.737562 (KG-MSQ)


000092:
000093:                                                                                                  #  OUTPUTS ARE CALCULATED AS FOLLOWS:
000094:
000095:                                                                                                  #        (1)     IF LEM DOCKED, LEMMASS IS FIRST ELIMINATED AS A PARAMETER
000096:
000097:                                                                                                  #                VARST0 = INTVALUE0 + LEMMASS(SLOPEVAL0)         IXX             BREAKPOINT VALUE
000098:                                                                                                  #                VARST1 = INTVALUE1 + LEMMASS(SLOPEVAL1)         IAVG            BREAKPOINT VALUE
000099:                                                                                                  #                VARST2 = INTVALUE2 + LEMMASS(SLOPEVAL2)         IAVG/TLX        BREAKPOINT VALUE
000100:
000101:                                                                                                  #                VARST3 = INTVALUE3 + LEMMASS(SLOPEVAL3)         IAVG/TLX        SLOPE FOR CSMMASS > 33956 LBS (SPS > 10000 LBS)
000102:                                                                                                  #                VARST4 = INTVALUE4 + LEMMASS(SLOPEVAL4)         IAVG            SLOPE FOR CSMMASS > 33956 LBS (SPS > 10000 LBS)
000103:
000104:                                                                                                  #                VARST5 = INTVALUE5 + LEMMASS(SLOPEVAL5)         IXX             SLOPE FOR ALL VALUES OF CSMMASS
000105:
000106:                                                                                                  #                VARST6 = INTVALUE6 + LEMMASS(SLOPEVAL6)         IAVG            SLOPE FOR CSMMASS < 33956 LBS (SPS < 10000 LBS)
000107:                                                                                                  #                VARST7 = INTVALUE7 + LEMMASS(SLOPEVAL7)         IAVG/TLX        SLOPE FOR CSMMASS < 33956 LBS (SPS < 10000 LBS)
000108:
000109:                                                                                                  #                VARST8 = INTVALUE8 + LEMMASS(SLOPEVAL8)         IAVG            DECREMENT TO BRKPT VALUE WHEN LEM DSCNT STAGE OFF
000110:                                                                                                  #                VARST9 = INTVALUE9 + LEMMASS(SLOPEVAL9)         IAVG/TLX        DECREMENT TO BRKPT VALUE WHEN LEM DSCNT STAGE OFF
000111:
000112:                                                                                                  #        (2)     IF LEM NOT DOCKED
000113:
000114:                                                                                                  #                VARST0 = NOLEMVAL0      WHERE THE MEANING AND SCALING OF VARST0
000115:                                                                                                  #                   .          .         TO VARST9 ARE THE SAME AS GIVEN ABOVE
000116:                                                                                                  #                   .          .
000117:                                                                                                  #                   .          .         NOTE... FOR THIS CASE, VARST8,9 HAVE NO
000118:                                                                                                  #                VARST9 = NOLEMVAL9      MEANING (THEY ARE COMPUTED BUT NOT USED)
000119:
000120:                                                                                                  #        (3)     THE FINAL OUTPUT CALCULATIONS ARE THEN DONE
000121:
000122:                                                                                                  #                IXX0 = VARST0 + (CSMMASS + NEGBPW)VARST5                IXX
000123:
000124:                                                                                                  #                IXX1 = VARST1 + (CSMMASS + NEGBPW)VARST(4 OR 6)         IAVG
000125:
000126:                                                                                                  #                IXX2 = VARST2 + (CSMMASS + NEGBPW)VARST(3 OR 7)         IAVG/TLX
000127:
000128:                                                                                                  #        THE DATA USED CAME FROM CSM/LM SPACECRAFT OPERATIONAL DATA BOOK.
000129:                                                                                                  #                VOL. 3, NASA DOCUMENT SNA-8-D-027 (MARCH 1968)
000130:
000131:                                                                                                  #        PERTINENT MASS DATA:            CSM WEIGHT      (FULL)  64100 LBS
000132:                                                                                                  #                                                        (EMPTY) 23956 LBS
000133:                                                                                                  #                                        LEM WEIGHT      (FULL)  32000 LBS
000134:                                                                                                  #                                                        (EMPTY) 14116 LBS
000135:
000136:                                                                                                  #        (WEIGHTS ARE FROM AMENDMENT #1 (APRIL 24, 1968) TO ABOVE DATA BOOK)


000138:
000139: 25,3766                                           BANK     25
000140: 05,2000                                           SETLOC   DAPMASS
000141: 05,2000                                           BANK
000142: 05,3207  E6,1742                                  EBANK=   BZERO
000143: 05,3207                                           COUNT*   $$/MASP
000144:
000145: 05,3207           34334        MASSPROP           CAF      NINE                                  #  MASSPROP USES TVC/RCS INTERUPT TEMPS
000146: 05,3210           55506                           TS       PHI333                                #  SET UP TEN PASSES
000147:
000148: 05,3211           31466        LEMTEST            CAE      DAPDATR1                              #  DETERMINE LEM STATUS
000149: 05,3212           74676                           MASK     BIT13
000150: 05,3213           00006                           EXTEND
000151: 05,3214           13220                           BZF      LEMYES
000152:
000153: 05,3215           51506        LEMNO              INDEX    PHI333                                #  LEM NOT ATTACHED
000154: 05,3216           33304                           CAF      NOLEMVAL
000155: 05,3217           13230                           TCF      STOINST
000156:
000157: 05,3220           31473        LEMYES             CAE      LEMMASS                               #  LEM IS ATTACHED
000158: 05,3221           60000                           DOUBLE
000159: 05,3222           00006                           EXTEND
000160: 05,3223           51506                           INDEX    PHI333
000161: 05,3224           73326                           MP       SLOPEVAL
000162: 05,3225           20001                           DDOUBL
000163: 05,3226           51506                           INDEX    PHI333
000164: 05,3227           63314                           AD       INTVALUE
000165:
000166: 05,3230           51506        STOINST            INDEX    PHI333                                #  STORAGE INST BEGIN HERE
000167: 05,3231           55511                           TS       VARST0
000168: 05,3232           11506                           CCS      PHI333                                #  ARE ALL TEN PASSES COMPLETED
000169: 05,3233           13210                           TCF      MASSPROP   +1                         #  NO - GO DECREMENT PHI333
000170:
000171: 05,3234           11466        DXTEST             CCS      DAPDATR1                              #  IF NEG, BIT15 IS 1, LEM DSCNT STAGE OFF
000172: 05,3235           13243                           TCF      FIXCW
000173: 05,3236           13243                           TCF      FIXCW
000174: 05,3237           53522                           DXCH     VARST0     +8D
000175: 05,3240           21513                           DAS      VARST0     +1
000176: 05,3241           33341                           CA       DXITFIX
000177: 05,3242           27520                           ADS      VARST0     +7
000178:
000179: 05,3243           34711        FIXCW              CAF      BIT2                                  #  COMPUTATION PHASE BEGINS HERE. SET UP
000180: 05,3244           55506                           TS       PHI333                                #  THREE PASSES
000181: 05,3245           55507                           TS       PSI333
000182:
000183: 05,3246           31474                           CAE      CSMMASS                               #  GET DELTA CSM WEIGHT - SIGN DETERMINES
000184: 05,3247           63340                           AD       NEGBPW                                #  SLOPE LOCATIONS.
000185: 05,3250           60000                           DOUBLE
000186: 05,3251           55510                           TS       TEMP333


000188: 05,3252           00006                           EXTEND
000189: 05,3253           63256                           BZMF     PEGGY                                 #  DETERMINE CORRECT SLOPE
000190: 05,3254           37715                           CAF      NEG2
000191: 05,3255           55506                           TS       PHI333
000192:
000193: 05,3256           51506        PEGGY              INDEX    PHI333                                #  ALL IS READY - CALCULATE OUTPUTS NOW
000194: 05,3257           31516                           CAE      VARST5                                #  GET SLOPE
000195: 05,3260           00006                           EXTEND
000196: 05,3261           71510                           MP       TEMP333                               #  MULT BY DELTA CSM WEIGHT
000197: 05,3262           60000                           DOUBLE
000198: 05,3263           51507                           INDEX    PSI333
000199: 05,3264           61511                           AD       VARST0                                #  ADD BREAKPOINT VALUE
000200: 05,3265           51507                           INDEX    PSI333
000201: 05,3266           55470                           TS       IXX                                   #  ****** OUTPUTS (IXX0, IXX1, IXX2) ******
000202: 05,3267           11507                           CCS      PSI333                                #  BOOKKEEPING - MASSPROP FINISHED OR NOT
000203: 05,3270           13300                           TCF      BOKKEP2                               #  NO - GO TAKE CARE OF INDEXING REGISTERS
000204:
000205: 05,3271           31466                           CAE      DAPDATR1                              #  UPDATE WEIGHT/G
000206: 05,3272           74675                           MASK     BIT14
000207: 05,3273           10000                           CCS      A
000208: 05,3274           31473                           CA       LEMMASS
000209: 05,3275           61474                           AD       CSMMASS
000210: 05,3276           55475                           TS       WEIGHT/G                              #  SCALED AT B+16 IN KILOGRAMS
000211: 05,3277           00002        ENDMASSP           TC       Q
000212:
000213: 05,3300           55507        BOKKEP2            TS       PSI333                                #  REDUCE PSI BY ONE
000214: 05,3301           00006                           EXTEND
000215: 05,3302           27506                           DIM      PHI333
000216: 05,3303           13256                           TCF      PEGGY
000217:


000219: 05,3304           00616        NOLEMVAL           DEC      25445      B-20
000220: 05,3305           02526                           DEC      87450      B-20
000221: 05,3306           02352                           DEC      .30715     B-2
000222: 05,3307           01471                           DEC      1.22877    E-5        B+12
000223: 05,3310           00634                           DEC      1.6096     B-6
000224: 05,3311           00612                           DEC      1.54       B-6
000225: 05,3312           03706                           DEC      7.77177    B-6
000226: 05,3313           04425                           DEC      3.46458    E-5        B+12
000227:
000228: 05,3314           00644        INTVALUE           DEC      26850      B-20
000229: 05,3315           03710                           DEC      127518     B-20
000230: 05,3316           04246                           DEC      .54059     B-2
000231: 05,3317           02011                           DEC      .153964    E-4        B+12
000232: 05,3320           77501                           DEC      -.742923   B-6
000233: 05,3321           00612                           DEC      1.5398     B-6
000234: 05,3322           04656                           DEC      9.68       B-6
000235: 05,3323           10372                           DEC      .647625    E-4        B+12
000236: 05,3324           77126                           DEC      -27228     B-20
000237: 05,3325           76261                           DEC      -.206476   B-2
000238:
000239: 05,3326           00767        SLOPEVAL           DEC      1.96307    B-6
000240: 05,3327           15624                           DEC      27.5774    B-6
000241: 05,3330           03054                           DEC      2.3548     E-5        B+12
000242: 05,3331           04532                           DEC      2.1777     E-9        B+26
000243: 05,3332           10433                           DEC      1.044      E-3        B+8
000244: 05,3333           00000                           DEC      0          B-14
000245: 05,3334           22070                           DEC      2.21068    E-3        B+8
000246: 05,3335           03204                           DEC      1.5166     E-9        B+26
000247: 05,3336           77266                           DEC      -1.284     B-6
000248: 05,3337           02476                           DEC      2          E-5        B+12
000249:
000250: 05,3340           70364        NEGBPW             DEC      -15402.17  B-16
000251: 05,3341           75420        DXITFIX            DEC*     -1.88275   E-5        B+12*
000252:

End of include-file TVCMASSPROP.agc.  Parent file is MAIN.agc


