
Source Code
000001:                                                                                                 #  Copyright:     Public domain.
000002:                                                                                                 #  Filename:      TVCRESTARTS.agc
000003:                                                                                                 #  Purpose:       Part of the source code for Colossus, build 249.
000004:                                                                                                 #                 It is part of the source code for the Command Module's (CM)
000005:                                                                                                 #                 Apollo Guidance Computer (AGC), possibly for Apollo 8 and 9.
000006:                                                                                                 #  Assembler:     yaYUL
000007:                                                                                                 #  Reference:     Starts on p. 920 of 1701.pdf.
000008:                                                                                                 #  Contact:       Ron Burkey <info@sandroid.org>.
000009:                                                                                                 #  Website:       www.ibiblio.org/apollo/index.html
000010:                                                                                                 #  Mod history:   08/23/04 RSB.   Began transcribing.
000011:                                                                                                 #                 05/14/05 RSB    Corrected website reference above.
000012:
000013:                                                                                                 #  The contents of the "Colossus249" files, in general, are transcribed
000014:                                                                                                 #  from a scanned document obtained from MIT's website,
000015:                                                                                                 #  http://hrst.mit.edu/hrs/apollo/public/archive/1701.pdf.  Notations on this
000016:                                                                                                 #  document read, in part:
000017:
000018:                                                                                                 #         Assemble revision 249 of AGC program Colossus by NASA
000019:                                                                                                 #         2021111-041.  October 28, 1968.
000020:
000021:                                                                                                 #         This AGC program shall also be referred to as
000022:                                                                                                 #                                 Colossus 1A
000023:
000024:                                                                                                 #         Prepared by
000025:                                                                                                 #                         Massachussets Institute of Technology
000026:                                                                                                 #                         75 Cambridge Parkway
000027:                                                                                                 #                         Cambridge, Massachusetts
000028:                                                                                                 #         under NASA contract NAS 9-4065.
000029:
000030:                                                                                                 #  Refer directly to the online document mentioned above for further information.
000031:                                                                                                 #  Please report any errors (relative to 1701.pdf) to info@sandroid.org.
000032:
000033:                                                                                                 #  In some cases, where the source code for Luminary 131 overlaps that of
000034:                                                                                                 #  Colossus 249, this code is instead copied from the corresponding Luminary 131
000035:                                                                                                 #  source file, and then is proofed to incorporate any changes.
000036:
000037:                                                                                                 #  Page 920
000038:                                                                                                 #  NAME....TVCRESTART PACKAGE, CONSISTING OF REDOTVC, ENABL1, 2, CMDSOUT, PHSCHK2, ETC.
000039:                                                                                                 #  LOG SECTION....TVCRESTART PACKAGE              SUBROUTINE....DAPCSM
000040:                                                                                                 #  MOD BY ENGEL                                   DATE....19 OCT, 1967
000041:
000042:                                                                                                 #  FUNCTIONAL DESCRIPTION....
000043:
000044:                                                                                                 #       *RESTART-PROCESS THE TVC DAPS, INCLUDING PITCHDAP, YAWDAP,
000045:                                                                                                 #         TVCEXECUTIVE, (?) DAP, TVCINIT4, TVCDAPON, AND STROKE TEST.
000046:
000047:                                                                                                 #       *TVC RESTARTS DESERVE SPECIAL CONSIDERATION IN SEVERAL AREAS.
000048:                                                                                                 #         RESTART DOWN-TIME IS IMPORTANT BECAUSE OF THE TRANSIENTS INTRODUCED
000049:                                                                                                 #         BY TEH THRUST VECTOR RETURN TO THE ACTUATOR MECHANICAL NULLS
000050:                                                                                                 #         FOLLOWING TVC AND OPTICS-ERROR-COUNTER-DISENABLES (CHANNEL 12).
000051:                                                                                                 #         TVC USES A MIXTURE OF WAITLIST, T5, T6, AND JOB CALLS.  THERE IS
000052:                                                                                                 #         FILTER MEMORY (UP TO 7TH ORDER) TO BE PROTECTED IF WILD TRANSIENTS
000053:                                                                                                 #         ARE TO BE AVOIDED.  SEVERAL COUNTERS ARE INVOLVED FOR TIMING TVC
000054:                                                                                                 #         EVENTS SUCH AS SWITCHOVER AND STROKE TEST STARTUPS AND RE-STARTUPS.
000055:                                                                                                 #         THE TVC GAINS ARE DECREMENTED.  THE GIMBAL TRIM ESTIMATORS AND THE
000056:                                                                                                 #         BODY AXIS ATTITUDE ERROR INTEGRATORS INVOLVE DIGITAL SUMMATION.
000057:                                                                                                 #         DIGITAL DIFFERENTIATORS ARE INVOLVED IN THE BODY AXIS RATE ESTIMATIONS
000058:                                                                                                 #         AND IN THE OUTPUTTING OF ACTUATOR COMMANDS.  THERE IS AN
000059:                                                                                                 #         OFFSET-TRACKER-FILTER TO PROTECT.  ETC., ETC.
000060:
000061:                                                                                                 #       *THOSE QUANTITIES WHICH MUST BE PROTECTED ARE STORED IN TEMPORARY
000062:                                                                                                 #         REGISTERS AS THEY ARE COMPUTED, FOR UPDATING THE REAL REGISTERS
000063:                                                                                                 #         DURING COPYCYCLES.
000064:
000065:                                                                                                 #       *THE SEVERAL COPYCYCLES ARE EACH PROTECTED BY PHASE POINTS AT THEIR
000066:                                                                                                 #         BEGINNING AND AT THEIR TERMINATION.  THE PHASE POINTS ARE SIMPLY
000067:                                                                                                 #         "INCR" INSTRUCTIONS, EITHER "INCR TVCEXPHS" FOR COPYCYCLES
000068:                                                                                                 #         IN THE TVCEXECUTIVE, OR "INCR TVCPHASE" FOR THE PITCH AND YAW
000069:                                                                                                 #         COPYCYCLES.  INDEXING ON EACH OF THESE POINTERS THEN PERMITS A
000070:                                                                                                 #         RETURN TO THE APPROPRIATE RESTART POINTS.
000071:
000072:                                                                                                 #       *IF A RESTART OCCURS DURING EITHER COPYCYCLE, THAT COPYCYCLE IS
000073:                                                                                                 #         COMPLETED.  THEN THE NORMAL TVCINIT4....DAPINIT....PITCHDAP STARTUP
000074:                                                                                                 #         SEQUENCE IS CALLED UPON TO GET THINGS GOING AGAIN.
000075:
000076:                                                                                                 #       *TVC-ENABLE AND OPTICS-ERROR-COUNTER ENABLE MUST BE SET ASAP
000077:                                                                                                 #         (ALLOWING FOR PROCEDURAL DELAYS).  THEN THE ENGINES ARE COMMANDED
000078:                                                                                                 #         TO THE P,YACTOFF TRIM VALUES.  THE DAPS ARE THEN READY TO GO ON THE
000079:                                                                                                 #         AIR, WITH THE REGULAR STARTUP SEQUENCE, EITHER AT MRCLEAN FOR A
000080:                                                                                                 #         COMPLETE INITIALIZATION OR AT TVCIIT4 FOR A PARTIAL INITIALIZATION.
000081:
000082:                                                                                                 #       *FOR RESTARTS PRIOR TO THE SETTING OF THE T5 BITS IN IGNOVER THE
000083:                                                                                                 #         PRE40.6 SECTION OF S40.6 TAKES CARE OF RE-ESTABLISHING TRIMS.
000084:
000085:                                                                                                 #       *IF A RESTART OCCURS DURING THE TVCEXEC....TVCEXFIN SEQUENCE THE
000086:                                                                                                 #         COMPUTATIONS WILL BE COMPLETED, STARTING AT THE APPROPRIATE RESTART
000087:                                                                                                 #         POINT, AFTER THE DAPS ARE READY TO GO ON THE AIR.
000088:
000089:                                                                                                 #       *IF A RESTART OCCURS PRIOR TO TVCINIT4 (TVCPHAS = -1) E.G. DURING
000090:                                                                                                 #         THE EARLY DAP INITIALIZATION PHASE, THE DAP STARTUP SEQUENCE IS
000091:                                                                                                 #         ENTERED AT MRCLEAN FOR A FULL INITIALIZATION.
000092:
000093:                                                                                                 #       *RESTARTS ARE NOT CRITICAL TO THE ROLL DAP PERFORMANCES HENCE THE
000094:                                                                                                 #         ROLL DAP IS MERELY RESTARTED.
000095:
000096:                                                                                                 #       *RESTARTS DURING A STROKE TEST (STROKER IS NON-ZERO) WILL CAUSE THE
000097:                                                                                                 #         STROKE TEST TO BE TERMINATED.  A NEW V68 ENTRY WILL BE REQUIRED
000098:                                                                                                 #  Page 921
000099:                                                                                                 #         TO GET IT GOING AGAIN (NO AUTOMATIC RESTART).
000100:                                                                                                 #
000101:                                                                                                 #       *REDOTVC IS REACHED FOLLOWING ANY RESTART WHICH FINDS THE T5 BITS
000102:                                                                                                 #         (BITS 15,14 OF FLAGWRD6) SET FOR TVC.  IGNOVER PREPARES TVCPHASE = -1
000103:                                                                                                 #         AND TVC EXPHS = 0 JUST BEFORE SETTING THESE BITS, JUST BEFORE
000104:                                                                                                 #         MAKING THE T5 CALL TO TVCDAPON.  T.V.N.G. TAKES OVER THE T5 CLOCK
000105:                                                                                                 #         TO CALL RCSUP/RCSDAPON WHICH RESETS THE T5 BITS (FOR RCS) ON A
000106:                                                                                                 #         NORMAL SHUTDOWN.
000107:
000108:                                                                                                 #  CALLING SEQUENCE....T5, IN PARTICULAR BY ELRSKIP OF FRESH START/RESTART
000109:
000110:                                                                                                 #  NORMAL EXIT MODES....RESUME, NOQRSM, POSTJUMP (TO TVCINIT4 OR MRCLEAN)
000111:
000112:                                                                                                 #  ALARM OR ABORT EXIT MODES....NONE
000113:
000114:                                                                                                 #  SUBROUTINES CALLED....
000115:
000116:                                                                                                 #       *PCOPY+1, YCOPY+1 (PITCH AND YAW COPYCYCLES)
000117:
000118:                                                                                                 #       *ENABLE1,2, CMDSOUT (RE-ESTABLISH ACTUATOR TRIMS)
000119:
000120:                                                                                                 #       *MRCLEAN OR TVCINIT4 (TVCDAP INITIALIZATIONS)
000121:
000122:                                                                                                 #       *EXRSTRT AND TVCEXECUTIVE PHASE POINTS 1 THRU 9
000123:
000124:                                                                                                 #       *WAITLIST, IBNKCALL, POSTJUMP, ISWCALL
000125:
000126:                                                                                                 #  OTHER INTERFACES....IGNOVER AND RCSDAPON (T5 BITS), ELRSKIP (CALLS IT)
000127:
000128:                                                                                                 #  ERASABLE ININTIALIZATION REQUIRED....
000129:
000130:                                                                                                 #       *T5 BITS, TVCPHASE, TVCEXPHS
000131:
000132:                                                                                                 #       *TVC DAP VARIABLES
000133:
000134:                                                                                                 #       *OPERATIONS PERFORMED BY REDOTVC ARE BASED ON THE ASSUMPTION THAT
000135:                                                                                                 #         THE TVC DAPS ARE RUNNING NORMALLY
000136:
000137:                                                                                                 #  OUTPUT....
000138:
000139:                                                                                                 #       *PITCH AND YAW TVC DAP COPYCYCLES COMPLETED IF INTERRUPTED
000140:
000141:                                                                                                 #       *TVCEXECUTIVE COMPLETED IF INTERRUPTED
000142:
000143:                                                                                                 #       *STROKE TEST TERMINATED IF INTERRUPTED
000144:
000145:                                                                                                 #       *ACTUATOR TRIMS RE-ESTABLISHED (ACTUATORS BACK ON THE AIR)
000146:
000147:                                                                                                 #       *TVC DAP INITIALIZATION AS REQUIRED
000148:
000149:                                                                                                 #       *ALL TVC DAP OPERATIONS ON THE AIR
000150:
000151:                                                                                                 #  DEBRIS....TVC TEMPORARIES IN EBANK6
000152:
000153: 16,3165                                          BANK     16
000154: 16,2000                                          SETLOC   DAPROLL
000155: 16,2000                                          BANK
000156: 16,3165  E6,1654                                 EBANK=   TVCPHASE
000157:
000158: 16,3165                                          COUNT*   $$/RSRT
000159: 16,3165           22016        REDOTVC           LXCH     BANKRUPT                              #  TVC RESTART PACKAGE
000160:                                                                                                 #  Page 922
000161: 16,3166           00006                          EXTEND
000162: 16,3167           22012                          QXCH     QRUPT                                 #  ("TCR" IN "FINCOPY")
000163:
000164: 16,3170           11661        EXECPHS           CCS      TVCEXPHS                              #  CHECK TVCEXECUTIVE PHASE
000165: 16,3171           13173                          TCF      +2                                    #         MUST RESTART TVCEXECUTIVE
000166: 16,3172           13177                          TCF      TVCDAPHS                              #         NO NEED TO RESTART TVCEXECUTIVE
000167:
000168: 16,3173           34334                          CAF      NINE                                  #  9CS DELAY TO FORCE EXRSTRT TO OCCUR
000169: 16,3174           05140                          TC       WAITLIST                              #         BEFORE PITCHDAP, AFTER CMDSOUT
000170: 16,3175  E6,1661                                 EBANK=   TVCEXPHS
000171: 16,3175           03271 34066                    2CADR    EXRSTRT
000172:
000173: 16,3177           47700        TVCDAPHS          CS       OCT37776                              #  CHECK BITS 15 AND 1 OF TVCPHASE TO SEE
000174: 16,3200           71654                          MASK     TVCPHASE                              #         DAP RESTART LOCATION (-1,1,2,3)
000175: 16,3201           10000                          CCS      A
000176: 16,3202           13256                          TCF      FINCOPY                               #         FINISH THE COPYCYCLE FIRST
000177: 16,3203           13205                          TCF      ENABL1                                #         JUST PREPARE THE OUTCOUNTERS AND GO
000178: 16,3204           13262                          TCF      TRIM/CMD                              #         (RE-)DO P,YCMD INITIALIZATION FIRST
000179: 16,3205           34703        ENABL1            CAF      BIT8                                  #  TVC ENABLE, FOLLOWED BY 40 MS (MIN) WAIT
000180: 16,3206           64700                          AD       BIT11                                 #         OPTICS DAC DISENGAGE TOO
000181: 16,3207           00006                          EXTEND                                         #         (ENABL1 ENTRIES..+0,- CCS, FINCOPY)
000182: 16,3210           05012                          WOR      CHAN12
000183: 16,3211           33275                          CAF      TVCADDR                               #  WAIT, CALLING ENABL2 (BBCON THERE)
000184: 16,3212           55312                          TS       T5LOC
000185: 16,3213           33301                          CAF      TVCADDR    +4                         #         60 MS (TVCEXADR)
000186: 16,3214           54030                          TS       TIME5
000187:
000188: 16,3215           15222                          TCF      RESUME
000189: 16,3216           22016        ENABL2            LXCH     BANKRUPT                              #  CONTINUE PREPARATION OF OUTCOUNTERS
000190:
000191: 16,3217           34711                          CAF      BIT2                                  #  OPTICS ERROR CNTR ENABLE, 4MS MIN WAIT
000192: 16,3220           00006                          EXTEND
000193: 16,3221           05012                          WOR      CHAN12
000194: 16,3222           33277                          CAF      TVCADDR    +2                         #  WAIT, CALLING CMDSOUT (BBCON THERE)
000195: 16,3223           55312                          TS       T5LOC
000196: 16,3224           37700                          CAF      OCT37776                              #         20MS
000197: 16,3225           54030                          TS       TIME5
000198:
000199: 16,3226           15224                          TCF      NOQRSM
000200: 16,3227           22016        CMDSOUT           LXCH     BANKRUPT                              #  CONTNUE PREPARATION OF OUTCOUNTERS
000201: 16,3230           00006                          EXTEND
000202: 16,3231           22012                          QXCH     QRUPT
000203:                                                                                                 #  Page 923
000204: 16,3232           44714                          CS       ZERO                                  #  MOST RECENT ACTUATOR COMMANDS
000205: 16,3233           61631                          AD       PCMD                                  #         (AVOID +0)
000206: 16,3234           54054                          TS       TVCPITCH
000207: 16,3235           44714                          CS       ZERO
000208: 16,3236           61632                          AD       YCMD
000209: 16,3237           54053                          TS       TVCYAW
000210:
000211: 16,3240           34755                          CAF      PRIO6                                 #  RELEASE THE COUNTERS (BITS 11,12)
000212: 16,3241           00006                          EXTEND
000213: 16,3242           05014                          WOR      CHAN14
000214:
000215: 16,3243           41654        PHSCHK2           CS       TVCPHASE                              #  CHECK TVCPHASE AGAIN
000216: 16,3244           00006                          EXTEND
000217: 16,3245           63250                          BZMF     +3
000218: 16,3246           04574                          TC       POSTJUMP                              #         IF NEGATIVE, RESTART AT MRCLEAN
000219: 16,3247           36033                          CADR     MRCLEAN                               #                 FOR FULL INITIALIZATION
000220:
000221: 16,3250           11614        CHKSTRK           CCS      STROKER                               #  CHECK FOR STROKE TEST IN PROGRESS
000222: 16,3251           13266                          TCF      TSTINITJ                              #  YES, KILL IT
000223: 16,3252           13254                          TCF      +2                                    #  NO, PROCEED
000224: 16,3253           13266                          TCF      TSTINITJ                              #  YES, KILL IT
000225:
000226: 16,3254           04574                 +4       TC       POSTJUMP                              #         IF POSTIVE OR ZERO, RESTART AT
000227: 16,3255           36160                          CADR     TVCINIT4                              #                 TVCINIT4 (ZEROS TVCPHASE, AND
000228:                                                                                                 #                 CALLS TVC DAPS)
000229: 16,3256           51654        FINCOPY           INDEX    TVCPHASE                              #  PICK UP THE APPROPRIATE COPYCYCLE
000230: 16,3257           33275                          CAF      TVCCADR
000231: 16,3260           04637                          TCR      ISWCALL                               #  RE-ENTER THE COPYCYCLE, RETURN AT END
000232: 16,3261           13205                          TCF      ENABL1                                #  NOW PREPARE THE OUTCOUNTERS
000233: 16,3262           00006        TRIM/CMD          EXTEND                                         #  TVCDAPON INITIALIZATION NOT COMPLETED,
000234: 16,3263           31426                          DCA      PACTOFF                               #         EG. P,YCMD MAY NOT BE SET.  SET...
000235: 16,3264           53632                          DXCH     PCMD
000236: 16,3265           13205                          TCF      ENABL1                                #  NOW PREPARE THE OUTCOUNTERS
000237: 16,3266           34714        TSTINITJ          CAF      ZERO                                  #  DISABLE STROKE TEST (-0 SHOWS PRIOR V68)
000238: 16,3267           55614                          TS       STROKER                               #  (+0 MEANS NEW V68 REQUIRED FOR STARTUP)
000239: 16,3270           13254                          TCF      CHKSTRK    +4
000240:
000241: 16,3271           51661        EXRSTRT           INDEX    TVCEXPHS                              #  TVCEXECUTIVE RESTARTS....GO TO
000242: 16,3272           33301                          CAF      TVCEXADR                              #         APPROPRIATE RESTART POINT
000243: 16,3273           50000                          INDEX    A
000244: 16,3274           10000                          TCF      0
000245:
000246:                                                                                                 #  Page 924
000247:                                                                                                 #  TVC RESTART TABLES.... ORDER IS REQUIRED.  HI-ORDER WORDS ONLY, OF 2CADRS, SINCE BBCON IS ALREADY THERE.
000248:
000249: 16,3275  16,3275               TVCADDR           =        TVCCADR                               #  TABLE OF CADRS, UNUSED LOCS FOR GENADRS
000250: 16,3275           03216        TVCCADR           GENADR   ENABL2                                #  (FOR T5 CALL, UNUSED TABLE LOC)
000251: 16,3276           40561                 +1       CADR     PCOPY      +1                         #  PITCH COPYCYCLE
000252: 16,3277           03227                 +2       GENADR   CMDSOUT                               #  (FOR T5 CALL, UNUSED TABLE LOC)
000253: 16,3300           41037                 +3       CADR     YCOPY      +1                         #  YAW COPYCYCLE
000254: 16,3301           37772        TVCEXADR          OCT      37772                                 #  (UNUSED TABLE LOC, FILL WITH 60MS, T5)
000255: 16,3302           02742                 +1       GENADR   EXECCOPY   +1                         #  TVCEXECUTIVE RESTART POINTS (ORDERED)
000256: 16,3303           02750                 +2       GENADR   SWT/COR
000257: 16,3304           03030                 +3       GENADR   SWTCOPY    +1
000258: 16,3305           03050                 +4       GENADR   TEMPSET
000259: 16,3306           03053                 +5       GENADR   CORSETUP
000260: 16,3307           03111                 +6       GENADR   CORCOPY    +1
000261: 16,3310           03122                 +7       GENADR   CNTRCOPY
000262: 16,3311           03125                 +8D      GENADR   STRKUP
000263: 16,3312           03140                 +9D      GENADR   STRKTCPY   +1
000264:
000265:

End of include-file TVCRESTARTS.agc.  Parent file is MAIN.agc


