
Source Code


000002:                                                                                                  ## Copyright:   Public domain.
000003:                                                                                                  ## Filename:    TVCRESTARTS.agc
000004:                                                                                                  ## Purpose:     Part of the source code for Colossus, build 249.
000005:                                                                                                  ##              It is part of the source code for the Command Module's (CM)
000006:                                                                                                  ##              Apollo Guidance Computer (AGC), possibly for Apollo 8 and 9.
000007:                                                                                                  ## Assembler:   yaYUL
000008:                                                                                                  ## Reference:   Starts on p. 920 of 1701.pdf.
000009:                                                                                                  ## Contact:     Ron Burkey <info@sandroid.org>.
000010:                                                                                                  ## Website:     www.ibiblio.org/apollo/index.html
000011:                                                                                                  ## Mod history: 08/23/04 RSB.   Began transcribing.
000012:                                                                                                  ##              05/14/05 RSB    Corrected website reference above.
000013:                                                                                                  ##              2010-10-24 JL   Indentation fixes.
000014:                                                                                                  ##
000015:                                                                                                  ## The contents of the "Colossus249" files, in general, are transcribed
000016:                                                                                                  ## from a scanned document obtained from MIT's website,
000017:                                                                                                  ## http://hrst.mit.edu/hrs/apollo/public/archive/1701.pdf.  Notations on this
000018:                                                                                                  ## document read, in part:
000019:                                                                                                  ##
000020:                                                                                                  ##      Assemble revision 249 of AGC program Colossus by NASA
000021:                                                                                                  ##      2021111-041.  October 28, 1968.
000022:                                                                                                  ##
000023:                                                                                                  ##      This AGC program shall also be referred to as
000024:                                                                                                  ##                              Colossus 1A
000025:                                                                                                  ##
000026:                                                                                                  ##      Prepared by
000027:                                                                                                  ##                      Massachusetts Institute of Technology
000028:                                                                                                  ##                      75 Cambridge Parkway
000029:                                                                                                  ##                      Cambridge, Massachusetts
000030:                                                                                                  ##      under NASA contract NAS 9-4065.
000031:                                                                                                  ##
000032:                                                                                                  ## Refer directly to the online document mentioned above for further information.
000033:                                                                                                  ## Please report any errors (relative to 1701.pdf) to info@sandroid.org.
000034:                                                                                                  ##
000035:                                                                                                  ## In some cases, where the source code for Luminary 131 overlaps that of
000036:                                                                                                  ## Colossus 249, this code is instead copied from the corresponding Luminary 131
000037:                                                                                                  ## source file, and then is proofed to incorporate any changes.
000038:


000040:                                                                                                  #  NAME....TVCRESTART PACKAGE, CONSISTING OF REDOTVC, ENABL1, 2, CMDSOUT, PHSCHK2, ETC.
000041:                                                                                                  #  LOG SECTION....TVCRESTART PACKAGE             SUBROUTINE....DAPCSM
000042:                                                                                                  #  MOD BY ENGEL                                  DATE....19 OCT, 1967
000043:
000044:                                                                                                  #  FUNCTIONAL DESCRIPTION....
000045:
000046:                                                                                                  #       *RESTART-PROCESS THE TVC DAPS, INCLUDING PITCHDAP, YAWDAP,
000047:                                                                                                  #        TVCEXECUTIVE, (?) DAP, TVCINIT4, TVCDAPON, AND STROKE TEST.
000048:
000049:                                                                                                  #       *TVC RESTARTS DESERVE SPECIAL CONSIDERATION IN SEVERAL AREAS.
000050:                                                                                                  #        RESTART DOWN-TIME IS IMPORTANT BECAUSE OF THE TRANSIENTS INTRODUCED
000051:                                                                                                  #        BY TEH THRUST VECTOR RETURN TO THE ACTUATOR MECHANICAL NULLS
000052:                                                                                                  #        FOLLOWING TVC AND OPTICS-ERROR-COUNTER-DISENABLES (CHANNEL 12).
000053:                                                                                                  #        TVC USES A MIXTURE OF WAITLIST, T5, T6, AND JOB CALLS.  THERE IS
000054:                                                                                                  #        FILTER MEMORY (UP TO 7TH ORDER) TO BE PROTECTED IF WILD TRANSIENTS
000055:                                                                                                  #        ARE TO BE AVOIDED.  SEVERAL COUNTERS ARE INVOLVED FOR TIMING TVC
000056:                                                                                                  #        EVENTS SUCH AS SWITCHOVER AND STROKE TEST STARTUPS AND RE-STARTUPS.
000057:                                                                                                  #        THE TVC GAINS ARE DECREMENTED.  THE GIMBAL TRIM ESTIMATORS AND THE
000058:                                                                                                  #        BODY AXIS ATTITUDE ERROR INTEGRATORS INVOLVE DIGITAL SUMMATION.
000059:                                                                                                  #        DIGITAL DIFFERENTIATORS ARE INVOLVED IN THE BODY AXIS RATE ESTIMATIONS
000060:                                                                                                  #        AND IN THE OUTPUTTING OF ACTUATOR COMMANDS.  THERE IS AN
000061:                                                                                                  #        OFFSET-TRACKER-FILTER TO PROTECT.  ETC., ETC.
000062:
000063:                                                                                                  #       *THOSE QUANTITIES WHICH MUST BE PROTECTED ARE STORED IN TEMPORARY
000064:                                                                                                  #        REGISTERS AS THEY ARE COMPUTED, FOR UPDATING THE REAL REGISTERS
000065:                                                                                                  #        DURING COPYCYCLES.
000066:
000067:                                                                                                  #       *THE SEVERAL COPYCYCLES ARE EACH PROTECTED BY PHASE POINTS AT THEIR
000068:                                                                                                  #        BEGINNING AND AT THEIR TERMINATION.  THE PHASE POINTS ARE SIMPLY
000069:                                                                                                  #        "INCR" INSTRUCTIONS, EITHER "INCR TVCEXPHS" FOR COPYCYCLES
000070:                                                                                                  #        IN THE TVCEXECUTIVE, OR "INCR TVCPHASE" FOR THE PITCH AND YAW
000071:                                                                                                  #        COPYCYCLES.  INDEXING ON EACH OF THESE POINTERS THEN PERMITS A
000072:                                                                                                  #        RETURN TO THE APPROPRIATE RESTART POINTS.
000073:
000074:                                                                                                  #       *IF A RESTART OCCURS DURING EITHER COPYCYCLE, THAT COPYCYCLE IS
000075:                                                                                                  #        COMPLETED.  THEN THE NORMAL TVCINIT4....DAPINIT....PITCHDAP STARTUP
000076:                                                                                                  #        SEQUENCE IS CALLED UPON TO GET THINGS GOING AGAIN.
000077:
000078:                                                                                                  #       *TVC-ENABLE AND OPTICS-ERROR-COUNTER ENABLE MUST BE SET ASAP
000079:                                                                                                  #        (ALLOWING FOR PROCEDURAL DELAYS).  THEN THE ENGINES ARE COMMANDED
000080:                                                                                                  #        TO THE P,YACTOFF TRIM VALUES.  THE DAPS ARE THEN READY TO GO ON THE
000081:                                                                                                  #        AIR, WITH THE REGULAR STARTUP SEQUENCE, EITHER AT MRCLEAN FOR A
000082:                                                                                                  #        COMPLETE INITIALIZATION OR AT TVCIIT4 FOR A PARTIAL INITIALIZATION.
000083:
000084:                                                                                                  #       *FOR RESTARTS PRIOR TO THE SETTING OF THE T5 BITS IN IGNOVER THE
000085:                                                                                                  #        PRE40.6 SECTION OF S40.6 TAKES CARE OF RE-ESTABLISHING TRIMS.
000086:
000087:                                                                                                  #       *IF A RESTART OCCURS DURING THE TVCEXEC....TVCEXFIN SEQUENCE THE
000088:                                                                                                  #        COMPUTATIONS WILL BE COMPLETED, STARTING AT THE APPROPRIATE RESTART
000089:                                                                                                  #        POINT, AFTER THE DAPS ARE READY TO GO ON THE AIR.
000090:
000091:                                                                                                  #       *IF A RESTART OCCURS PRIOR TO TVCINIT4 (TVCPHAS = -1) E.G. DURING
000092:                                                                                                  #        THE EARLY DAP INITIALIZATION PHASE, THE DAP STARTUP SEQUENCE IS
000093:                                                                                                  #        ENTERED AT MRCLEAN FOR A FULL INITIALIZATION.
000094:
000095:                                                                                                  #       *RESTARTS ARE NOT CRITICAL TO THE ROLL DAP PERFORMANCES HENCE THE
000096:                                                                                                  #        ROLL DAP IS MERELY RESTARTED.
000097:
000098:                                                                                                  #       *RESTARTS DURING A STROKE TEST (STROKER IS NON-ZERO) WILL CAUSE THE
000099:                                                                                                  #        STROKE TEST TO BE TERMINATED.  A NEW V68 ENTRY WILL BE REQUIRED


000101:                                                                                                  #        TO GET IT GOING AGAIN (NO AUTOMATIC RESTART).
000102:                                                                                                  #
000103:                                                                                                  #       *REDOTVC IS REACHED FOLLOWING ANY RESTART WHICH FINDS THE T5 BITS
000104:                                                                                                  #        (BITS 15,14 OF FLAGWRD6) SET FOR TVC.  IGNOVER PREPARES TVCPHASE = -1
000105:                                                                                                  #        AND TVC EXPHS = 0 JUST BEFORE SETTING THESE BITS, JUST BEFORE
000106:                                                                                                  #        MAKING THE T5 CALL TO TVCDAPON.  T.V.N.G. TAKES OVER THE T5 CLOCK
000107:                                                                                                  #        TO CALL RCSUP/RCSDAPON WHICH RESETS THE T5 BITS (FOR RCS) ON A
000108:                                                                                                  #        NORMAL SHUTDOWN.
000109:
000110:                                                                                                  #  CALLING SEQUENCE....T5, IN PARTICULAR BY ELRSKIP OF FRESH START/RESTART
000111:
000112:                                                                                                  #  NORMAL EXIT MODES....RESUME, NOQRSM, POSTJUMP (TO TVCINIT4 OR MRCLEAN)
000113:
000114:                                                                                                  #  ALARM OR ABORT EXIT MODES....NONE
000115:
000116:                                                                                                  #  SUBROUTINES CALLED....
000117:
000118:                                                                                                  #       *PCOPY+1, YCOPY+1 (PITCH AND YAW COPYCYCLES)
000119:
000120:                                                                                                  #       *ENABLE1,2, CMDSOUT (RE-ESTABLISH ACTUATOR TRIMS)
000121:
000122:                                                                                                  #       *MRCLEAN OR TVCINIT4 (TVCDAP INITIALIZATIONS)
000123:
000124:                                                                                                  #       *EXRSTRT AND TVCEXECUTIVE PHASE POINTS 1 THRU 9
000125:
000126:                                                                                                  #       *WAITLIST, IBNKCALL, POSTJUMP, ISWCALL
000127:
000128:                                                                                                  #  OTHER INTERFACES....IGNOVER AND RCSDAPON (T5 BITS), ELRSKIP (CALLS IT)
000129:
000130:                                                                                                  #  ERASABLE ININTIALIZATION REQUIRED....
000131:
000132:                                                                                                  #       *T5 BITS, TVCPHASE, TVCEXPHS
000133:
000134:                                                                                                  #       *TVC DAP VARIABLES
000135:
000136:                                                                                                  #       *OPERATIONS PERFORMED BY REDOTVC ARE BASED ON THE ASSUMPTION THAT
000137:                                                                                                  #        THE TVC DAPS ARE RUNNING NORMALLY
000138:
000139:                                                                                                  #  OUTPUT....
000140:
000141:                                                                                                  #       *PITCH AND YAW TVC DAP COPYCYCLES COMPLETED IF INTERRUPTED
000142:
000143:                                                                                                  #       *TVCEXECUTIVE COMPLETED IF INTERRUPTED
000144:
000145:                                                                                                  #       *STROKE TEST TERMINATED IF INTERRUPTED
000146:
000147:                                                                                                  #       *ACTUATOR TRIMS RE-ESTABLISHED (ACTUATORS BACK ON THE AIR)
000148:
000149:                                                                                                  #       *TVC DAP INITIALIZATION AS REQUIRED
000150:
000151:                                                                                                  #       *ALL TVC DAP OPERATIONS ON THE AIR
000152:
000153:                                                                                                  #  DEBRIS....TVC TEMPORARIES IN EBANK6
000154:
000155: 16,3165                                           BANK     16
000156: 16,2000                                           SETLOC   DAPROLL
000157: 16,2000                                           BANK
000158: 16,3165  E6,1654                                  EBANK=   TVCPHASE
000159:
000160: 16,3165                                           COUNT*   $$/RSRT
000161: 16,3165           22016        REDOTVC            LXCH     BANKRUPT                              #  TVC RESTART PACKAGE


000163: 16,3166           00006                           EXTEND
000164: 16,3167           22012                           QXCH     QRUPT                                 #  ("TCR" IN "FINCOPY")
000165:
000166: 16,3170           11661        EXECPHS            CCS      TVCEXPHS                              #  CHECK TVCEXECUTIVE PHASE
000167: 16,3171           13173                           TCF      +2                                    #        MUST RESTART TVCEXECUTIVE
000168: 16,3172           13177                           TCF      TVCDAPHS                              #        NO NEED TO RESTART TVCEXECUTIVE
000169:
000170: 16,3173           34334                           CAF      NINE                                  #  9CS DELAY TO FORCE EXRSTRT TO OCCUR
000171: 16,3174           05140                           TC       WAITLIST                              #        BEFORE PITCHDAP, AFTER CMDSOUT
000172: 16,3175  E6,1661                                  EBANK=   TVCEXPHS
000173: 16,3175           03271 34066                     2CADR    EXRSTRT
000174:
000175: 16,3177           47700        TVCDAPHS           CS       OCT37776                              #  CHECK BITS 15 AND 1 OF TVCPHASE TO SEE
000176: 16,3200           71654                           MASK     TVCPHASE                              #        DAP RESTART LOCATION (-1,1,2,3)
000177: 16,3201           10000                           CCS      A
000178: 16,3202           13256                           TCF      FINCOPY                               #        FINISH THE COPYCYCLE FIRST
000179: 16,3203           13205                           TCF      ENABL1                                #        JUST PREPARE THE OUTCOUNTERS AND GO
000180: 16,3204           13262                           TCF      TRIM/CMD                              #        (RE-)DO P,YCMD INITIALIZATION FIRST
000181: 16,3205           34703        ENABL1             CAF      BIT8                                  #  TVC ENABLE, FOLLOWED BY 40 MS (MIN) WAIT
000182: 16,3206           64700                           AD       BIT11                                 #        OPTICS DAC DISENGAGE TOO
000183: 16,3207           00006                           EXTEND                                         #        (ENABL1 ENTRIES..+0,- CCS, FINCOPY)
000184: 16,3210           05012                           WOR      CHAN12
000185: 16,3211           33275                           CAF      TVCADDR                               #  WAIT, CALLING ENABL2 (BBCON THERE)
000186: 16,3212           55312                           TS       T5LOC
000187: 16,3213           33301                           CAF      TVCADDR    +4                         #        60 MS (TVCEXADR)
000188: 16,3214           54030                           TS       TIME5
000189:
000190: 16,3215           15222                           TCF      RESUME
000191: 16,3216           22016        ENABL2             LXCH     BANKRUPT                              #  CONTINUE PREPARATION OF OUTCOUNTERS
000192:
000193: 16,3217           34711                           CAF      BIT2                                  #  OPTICS ERROR CNTR ENABLE, 4MS MIN WAIT
000194: 16,3220           00006                           EXTEND
000195: 16,3221           05012                           WOR      CHAN12
000196: 16,3222           33277                           CAF      TVCADDR    +2                         #  WAIT, CALLING CMDSOUT (BBCON THERE)
000197: 16,3223           55312                           TS       T5LOC
000198: 16,3224           37700                           CAF      OCT37776                              #        20MS
000199: 16,3225           54030                           TS       TIME5
000200:
000201: 16,3226           15224                           TCF      NOQRSM
000202: 16,3227           22016        CMDSOUT            LXCH     BANKRUPT                              #  CONTNUE PREPARATION OF OUTCOUNTERS
000203: 16,3230           00006                           EXTEND
000204: 16,3231           22012                           QXCH     QRUPT


000206: 16,3232           44714                           CS       ZERO                                  #  MOST RECENT ACTUATOR COMMANDS
000207: 16,3233           61631                           AD       PCMD                                  #        (AVOID +0)
000208: 16,3234           54054                           TS       TVCPITCH
000209: 16,3235           44714                           CS       ZERO
000210: 16,3236           61632                           AD       YCMD
000211: 16,3237           54053                           TS       TVCYAW
000212:
000213: 16,3240           34755                           CAF      PRIO6                                 #  RELEASE THE COUNTERS (BITS 11,12)
000214: 16,3241           00006                           EXTEND
000215: 16,3242           05014                           WOR      CHAN14
000216:
000217: 16,3243           41654        PHSCHK2            CS       TVCPHASE                              #  CHECK TVCPHASE AGAIN
000218: 16,3244           00006                           EXTEND
000219: 16,3245           63250                           BZMF     +3
000220: 16,3246           04574                           TC       POSTJUMP                              #        IF NEGATIVE, RESTART AT MRCLEAN
000221: 16,3247           36033                           CADR     MRCLEAN                               #                FOR FULL INITIALIZATION
000222:
000223: 16,3250           11614        CHKSTRK            CCS      STROKER                               #  CHECK FOR STROKE TEST IN PROGRESS
000224: 16,3251           13266                           TCF      TSTINITJ                              #  YES, KILL IT
000225: 16,3252           13254                           TCF      +2                                    #  NO, PROCEED
000226: 16,3253           13266                           TCF      TSTINITJ                              #  YES, KILL IT
000227:
000228: 16,3254           04574                 +4        TC       POSTJUMP                              #        IF POSTIVE OR ZERO, RESTART AT
000229: 16,3255           36160                           CADR     TVCINIT4                              #                TVCINIT4 (ZEROS TVCPHASE, AND
000230:                                                                                                  #                CALLS TVC DAPS)
000231: 16,3256           51654        FINCOPY            INDEX    TVCPHASE                              #  PICK UP THE APPROPRIATE COPYCYCLE
000232: 16,3257           33275                           CAF      TVCCADR
000233: 16,3260           04637                           TCR      ISWCALL                               #  RE-ENTER THE COPYCYCLE, RETURN AT END
000234: 16,3261           13205                           TCF      ENABL1                                #  NOW PREPARE THE OUTCOUNTERS
000235: 16,3262           00006        TRIM/CMD           EXTEND                                         #  TVCDAPON INITIALIZATION NOT COMPLETED,
000236: 16,3263           31426                           DCA      PACTOFF                               #        EG. P,YCMD MAY NOT BE SET.  SET...
000237: 16,3264           53632                           DXCH     PCMD
000238: 16,3265           13205                           TCF      ENABL1                                #  NOW PREPARE THE OUTCOUNTERS
000239: 16,3266           34714        TSTINITJ           CAF      ZERO                                  #  DISABLE STROKE TEST (-0 SHOWS PRIOR V68)
000240: 16,3267           55614                           TS       STROKER                               #  (+0 MEANS NEW V68 REQUIRED FOR STARTUP)
000241: 16,3270           13254                           TCF      CHKSTRK    +4
000242:
000243: 16,3271           51661        EXRSTRT            INDEX    TVCEXPHS                              #  TVCEXECUTIVE RESTARTS....GO TO
000244: 16,3272           33301                           CAF      TVCEXADR                              #        APPROPRIATE RESTART POINT
000245: 16,3273           50000                           INDEX    A
000246: 16,3274           10000                           TCF      0
000247:


000249:                                                                                                  #  TVC RESTART TABLES.... ORDER IS REQUIRED.  HI-ORDER WORDS ONLY, OF 2CADRS, SINCE BBCON IS ALREADY THERE.
000250:
000251: 16,3275  16,3275               TVCADDR            =        TVCCADR                               #  TABLE OF CADRS, UNUSED LOCS FOR GENADRS
000252: 16,3275           03216        TVCCADR            GENADR   ENABL2                                #  (FOR T5 CALL, UNUSED TABLE LOC)
000253: 16,3276           40561                 +1        CADR     PCOPY      +1                         #  PITCH COPYCYCLE
000254: 16,3277           03227                 +2        GENADR   CMDSOUT                               #  (FOR T5 CALL, UNUSED TABLE LOC)
000255: 16,3300           41037                 +3        CADR     YCOPY      +1                         #  YAW COPYCYCLE
000256: 16,3301           37772        TVCEXADR           OCT      37772                                 #  (UNUSED TABLE LOC, FILL WITH 60MS, T5)
000257: 16,3302           02742                 +1        GENADR   EXECCOPY   +1                         #  TVCEXECUTIVE RESTART POINTS (ORDERED)
000258: 16,3303           02750                 +2        GENADR   SWT/COR
000259: 16,3304           03030                 +3        GENADR   SWTCOPY    +1
000260: 16,3305           03050                 +4        GENADR   TEMPSET
000261: 16,3306           03053                 +5        GENADR   CORSETUP
000262: 16,3307           03111                 +6        GENADR   CORCOPY    +1
000263: 16,3310           03122                 +7        GENADR   CNTRCOPY
000264: 16,3311           03125                 +8D       GENADR   STRKUP
000265: 16,3312           03140                 +9D       GENADR   STRKTCPY   +1

End of include-file TVCRESTARTS.agc.  Parent file is MAIN.agc


