
Source Code


000002:                                                                                                  ## Copyright:   Public domain.
000003:                                                                                                  ## Filename:    TVCROLLDAP.agc
000004:                                                                                                  ## Purpose:     Part of the source code for Colossus, build 249.
000005:                                                                                                  ##              It is part of the source code for the Command Module's (CM)
000006:                                                                                                  ##              Apollo Guidance Computer (AGC), for Apollo 9.
000007:                                                                                                  ## Assembler:   yaYUL
000008:                                                                                                  ## Reference:   Starts at p. 948.
000009:                                                                                                  ## Contact:     Ron Burkey <info@sandroid.org>.
000010:                                                                                                  ## Website:     www.ibiblio.org/apollo/index.html
000011:                                                                                                  ## Mod history: 08/24/04   RSB  Began transcribing.
000012:                                                                                                  ##              05/14/05   RSB  Corrected website reference above.
000013:                                                                                                  ##              2010-10-25 JL   Fixed page numbers.
000014:                                                                                                  ##              2011-05-07 JL   Removed workarounds.
000015:                                                                                                  ##              2017-01-06 RSB  Page numbers now agree with those on the
000016:                                                                                                  ##                              original harcopy, as opposed to the PDF page
000017:                                                                                                  ##                              numbers in 1701.pdf.
000018:                                                                                                  ##              2017-01-20 RSB  Cross-diff'd comment text (not whitespace)
000019:                                                                                                  ##                              vs the already-proofed corresponding Colossus
000020:                                                                                                  ##                              237 and Comanche 55 source-code files
000021:                                                                                                  ##                              and corrected errors found.
000022:                                                                                                  ##              2017-01-20 RSB  Fixed comment-text errors noted while diff'ing
000023:                                                                                                  ##                              vs Colossus 249.
000024:                                                                                                  ##
000025:                                                                                                  ## The contents of the "Colossus249" files, in general, are transcribed
000026:                                                                                                  ## from a scanned copy of the program listing.  Notations on this
000027:                                                                                                  ## document read, in part:
000028:                                                                                                  ##
000029:                                                                                                  ##      Assemble revision 249 of AGC program Colossus by NASA
000030:                                                                                                  ##      2021111-041.  October 28, 1968.
000031:                                                                                                  ##
000032:                                                                                                  ##      This AGC program shall also be referred to as
000033:                                                                                                  ##                              Colossus 1A
000034:                                                                                                  ##
000035:                                                                                                  ##      Prepared by
000036:                                                                                                  ##                      Massachusetts Institute of Technology
000037:                                                                                                  ##                      75 Cambridge Parkway
000038:                                                                                                  ##                      Cambridge, Massachusetts
000039:                                                                                                  ##      under NASA contract NAS 9-4065.
000040:                                                                                                  ##
000041:                                                                                                  ## Refer directly to the online document mentioned above for further information.
000042:                                                                                                  ## Please report any errors (relative to the scanned pages) to info@sandroid.org.
000043:                                                                                                  ##
000044:                                                                                                  ## In some cases, where the source code for Luminary 131 overlaps that of
000045:                                                                                                  ## Colossus 249, this code is instead copied from the corresponding Luminary 131
000046:                                                                                                  ## source file, and then is proofed to incorporate any changes.
000047:


000049:                                                                                                  #  PROGRAM NAME....ROLL AUTOPILOT, CONSISTING OF ROLLDAP, DURATION, NOROLL1, E
000050:                                                                                                  #  ORIGINAL CODING BY F.W.MARTIN, 1965 (SUNDIAL)                              TC.
000051:                                                                                                  #  LOG SECTION....ROLL AUTOPILOT                 SUBROUTINE....DAPCSM
000052:                                                                                                  #  MOD BY ENGEL                                  DATE 28 DEC, 1967 (SUNDISK TO COLOSSUS)
000053:
000054:                                                                                                  #  FUNCTIONAL DESCRIPTION....
000055:
000056:                                                                                                  #       *AN ADAPTATION OF THE LEM P-AXIS CONTROLLER
000057:
000058:                                                                                                  #       *MAINTAIN OGA WITHIN 5 DEG DEADBND OF OGAD, WHERE OGAD = OGA AS SEEN
000059:                                                                                                  #        BY IGNOVER (IGNITION)
000060:
000061:                                                                                                  #       *MAINTAIN OGA RATE LESS THAN 0.1 DEG/SEC LIMIT CYCLE RATE
000062:
000063:                                                                                                  #       *SWITCHING LOGIC IN PHASE PLANE.... SEE GSOP CHAPTER 3
000064:
000065:                                                                                                  #       *USES T6 CLOCK TO TIME JET FIRINGS
000066:
000067:                                                                                                  #       *MAXIMUM JET FIRING TIME = 2.56 SECONDS, LIMITED TO 2.5 IF GREATER
000068:
000069:                                                                                                  #       *MINIMUM JET FIRING TIME = 15 MS
000070:
000071:                                                                                                  #       *JET PAIRS FIRE ALTERNATELY
000072:
000073:                                                                                                  #       *AT LEAST 1/2 SECOND DELAY BEFORE A NEW JET PAIR IS FIRED
000074:
000075:                                                                                                  #       *JET FIRINGS MAY NOT BE EXTENDED, ONLY SHORTENED, WHEN RE-EVALUATION
000076:                                                                                                  #        OF A JET FIRING TIME IS MADE ON A LATER PASS
000077:
000078:                                                                                                  #  CALLING SEQUENCE....
000079:
000080:                                                                                                  #       *ROLLDAP CALL VIA WAITLIST, IN PARTICULAR BY TVCEXEC (EVERY 1/2 SEC)
000081:                                                                                                  #        WITH A 3CS DELAY TO ALLOW FREE TIME FOR OTHER RUPTS (DWNRPT, ETC.)
000082:
000083:                                                                                                  #  NORMAL EXIT MODES.... ENDOFJOB
000084:
000085:                                                                                                  #  ALARM OR ABORT EXIT MODES.... NONE
000086:
000087:                                                                                                  #  SUBROUTINES CALLED.....NONE
000088:
000089:                                                                                                  #  OTHER INTERFACES....
000090:
000091:                                                                                                  #       *TVCEXEC SETS UP ROLLDAP TASK EVERY 1/2 SECOND AND UPDATES 1/CONACC
000092:                                                                                                  #        EVERY 10 SECONDS (VIA MASSPROP AND S40.15)
000093:
000094:                                                                                                  #       *TVCRESTART PACKAGE WILL RE-START ROLL DAP AFTER A RESTART (PICKING
000095:                                                                                                  #        UP THE ORIGINAL OGAD)
000096:
000097:                                                                                                  #  ERASABLE INITIALIZATION REQUIRED....
000098:
000099:                                                                                                  #       *1/CONACC                                (S40.15)
000100:
000101:                                                                                                  #       *OGAD                                    (CDUX, AT IGNOVER)
000102:
000103:                                                                                                  #       *OGANOW                                  (CDUX AT TVCINIT4 AND TVCEXECUTIVE)
000104:
000105:                                                                                                  #       *OGAPAST                                 (OGANOW AT TVCEXECUTIVE)
000106:
000107:                                                                                                  #       *ROLLFIRE = TEMREG = ROLLWORD = 0        (MRCLEAN LOOP IN TVCDAPON)
000108:
000109:                                                                                                  #  OUTPUT....
000110:
000111:                                                                                                  #       *ROLL JET PAIR FIRINGS
000112:
000113:                                                                                                  #  DEBRIS.... MISCELLANEOUS, SHAREABLE WITH RCS/ENTRY, IN EBANK6 ONLY


000115:
000116:                                                                                                  #  SOME NOTES ON THE ROLL AUTOPILOT, AND IN PARTICULAR, ON ITS SWITCHING
000117:                                                                                                  #  LOGIC.  SEE SECTION THREE OF THE GSOP (SUNDISK/COLOSSUS) FOR DETAILS.
000118:                                                                                                  #  SWITCHING LOGIC IN THE PHASE PLANE....
000119:
000120:                                                                                                  #                               OGARATE
000121:                                                                                                  #                                  *
000122:                                                                                                  #                                  *
000123:                                                                                                  #   * * * * * * * * * * *          *
000124:                                                                                                  #                                  *     (REGION 1, SEE TEXT BELOW)
000125:                                                                                                  #                             *    *
000126:                                                                                                  #                                  *
000127:                                                                                                  #  * * * * * * *     (COAST)       *     ...PARABOLA (SWITCHING = CONTROL)
000128:                                                                                                  #                *                 *    .
000129:                                                                                                  #                  *               *   *
000130:                                                                                                  #                    *             *                (FIRE NEG ROLL JETS)
000131:                                                                                                  #                      *           *      *
000132:                                                                                                  #      (-DB,+LMCRATE)....*         *
000133:                                                                                                  #                        *         *        *
000134:                                                                                                  #                        *         *                              OGAERROR
000135:                                                                                                  #  ************************************************************************
000136:                                                                                                  #                                  *         *                (-AK, OGAERR)
000137:                                                                                                  #                         *                  *      (REGION 6-PRIME)
000138:                                                                                                  #                                            *      (SEE TEXT BELOW)
000139:                                                                                                  #                           *      *           *
000140:                                                                                                  #                                  *             *     ...STRAIGHT LINE
000141:                                                                                                  #     (FIRE POS ROLL JETS)     *   *               *  .
000142:                                                                                                  #                                  *   (COAST)       *
000143:                                                                                                  #                                  *                   * * * * * * * * * *
000144:                                                                                                  #                                  *                         -MINLIM
000145:                                                                                                  #                                  *    *
000146:                                                                                                  #                                  *
000147:                                                                                                  #                                  *          * * * * * * * * * * * * * * *
000148:                                                                                                  #                                  *                        -MAXLIM
000149:                                                                                                  #                                  *
000150:                                                                                                  #                                  *
000151:
000152:                                                                                                  #  SWITCHING PARABOLAS ARE CONTROL PARABOLAS, THUS REQUIRING KNOWLEDGE OF
000153:                                                                                                  #        CONTROL ACCELERATION CONACC, OR ITS RECIPROCAL, 1/CONACC, THE TVC
000154:                                                                                                  #        ROLL DAP GAIN  (SEE TVCEXECUTIVE VARIABLE GAIN PACKAGE).  JET
000155:                                                                                                  #        FIRING TIME IS SIMPLY THAT REQUIRED TO ACHIEVE THE DESIRED OGARATE,
000156:                                                                                                  #        SUBJECT TO THE LIMITATIONS DISCUSSED UNDER FUNCTIONAL DESCRIPTION,
000157:                                                                                                  #        ABOVE.
000158:
000159:                                                                                                  #  THE THREE CONTROL REGIONS  (+, -, AND ZERO TORQUE) ARE COMPRIZED OF
000160:                                                                                                  #        TWELVE SUBSET REGIONS  ( 1...6, AND THE CORRESPONDING 1-PRIME...
000161:                                                                                                  #        6-PRIME )  SEE SECTION 3 OF THE GSOP  (SUNDISK OR COLOSSUS)


000163:
000164:                                                                                                  #  GIVEN THE OPERATING POINT NOT IN THE COAST REGION, THE DESIRED OGARATE
000165:                                                                                                  #        IS AT THE POINT OF PENETRATION OF THE COAST REGION BY THE CONTROL
000166:                                                                                                  #        PARABOLA WHICH PASSES THROUGH THE OPERATING POINT.  FOR REGION 3
000167:                                                                                                  #        DESIRED OGARATE IS SIMPLY +-MAXLIM.  FOR REGIONS 1 OR 6 THE SOLUTION
000168:                                                                                                  #        TO A QUADRATIC IS REQUIRED (THE PENETRATION IS ALONG THE STRAIGHT
000169:                                                                                                  #        LINE OR MINLIM BOUNDRY SWITCH LINES).  AN APPROXIMATION IS MADE
000170:                                                                                                  #        INSTEAD.  CONSIDER AN OPERATING POINT IN REGION 6.  PASS A TANGENT TO
000171:                                                                                                  #        THE CONTROL PARABOLA THROUGH THE OPERATING POINT, AND FIND ITS
000172:                                                                                                  #        INTERSECTION WITH THE STRAIGHT LINE SECTION OF THE SWITCH CURVE...
000173:                                                                                                  #        THE INTERSECTION DEFINES DESIRED OGARATE.  IF THE OPERATING POINT IS
000174:                                                                                                  #        CLOSE TO THE SWITCH LINE, THE APPROXIMATION IS QUITE GOOD (INDEED
000175:                                                                                                  #        THE APPROXIMATE AND QUADRATIC SOLUTIONS CONVERGE IN THE LIMIT AS
000176:                                                                                                  #        THE SWITCH LINE IS APPROACHED).  IF THE OPERATING POINT IS NOT CLOSE
000177:                                                                                                  #        TO THE SWITCH LINE, THE APPROXIMATE SOLUTION GIVES VALID TREND
000178:                                                                                                  #        INFORMATION (DIRECTION OF DESIRED OGARATE) AT LEAST.  THE
000179:                                                                                                  #        RE-EVALUATION OF DESIRED OGARATE IN SUBSEQUENT ROLL DAP PASSES (1/2
000180:                                                                                                  #        SECOND INTERVALS) WILL BENEFIT FROM THE CONVERGENT NATURE OF THE
000181:                                                                                                  #        APPROXIMATION.
000182:
000183:                                                                                                  #  FOR LARGE OGAERROR THE TANGENT INTERSECTS +-MINLIM SWITCH BOUNDRY BEFORE
000184:                                                                                                  #        INTERSECTING THE STRAIGHT LINE SWITCH.  HOWEVER THE MINLIM IS
000185:                                                                                                  #        IGNORED IN COMPUTING THE FIRING TIME, SO THAT THE EXTENSION (INTO
000186:                                                                                                  #        THE COAST REGION) OF THE STRAIGHT LINE SWITCH IS WHAT IS FIRED TO.
000187:                                                                                                  #        IF THE ROLL DAP FINDS ITSELF IN THE COAST REGION BEFORE REACHING
000188:                                                                                                  #        THE DESIRED INTERSECTION (IE, IN THE REGION BETWEEN THE MINLIM
000189:                                                                                                  #        AND THE STRAIGHT LINE SWITCH) IT WILL EXIBIT NORMAL COAST-REGION
000190:                                                                                                  #        BEHAVIOR AND TURN OFF THE JETS.  THE PURPOSE OF THIS FIRING POLICY
000191:                                                                                                  #        IS TO MAINTAIN STATIC ROLL STABILITY IN THE EVENT OF A JET
000192:                                                                                                  #        FAILED-ON.
000193:
000194:                                                                                                  #  WHEN THE OPERATING POINT IS IN REGION 1 THE SAME APPROXIMATION IS
000195:                                                                                                  #        MADE, BUT AT AN ARTIFICIALLY-CREATED OR DUMMY OPERATING POINT,
000196:                                                                                                  #        DEFINED BY..  OGAERROR = INTERSECTION OF CONTROL PARABOLA AND
000197:                                                                                                  #        OGAERROR AXIS, OGARATE = +-LMCRATE WHERE SIGN IS OPPOSITE THAT OF
000198:                                                                                                  #        REAL OPERATING POINT RATE.  WHEN THE OPERATING POINT HAS PASSED
000199:                                                                                                  #        FROM REGION 1 TO REGION 6, THE DUMMY POINT IS NO LONGER REQUIRED,
000200:                                                                                                  #        AND THE SOLUTION REVERTS TO THAT OF A REGULAR REGION 6 POINT.
000201:
000202:                                                                                                  #  EQUATION FOR SWITCHING PARABOLA (SEE FIGURE ABOVE)....
000203:                                                                                                  #                                    2
000204:                                                                                                  #        SOGAERROR = (DB - (SOGARATE) (1/CONACC)/2) SGN(SOGARATE)
000205:
000206:                                                                                                  #  EQUATION FOR SWITCHING STRAIGHT LINE SEGMENT....
000207:
000208:                                                                                                  #        SOGARATE = -(-SLOPE)(SOGAERROR) - SGN(SOGARATE) INTERCEP
000209:
000210:                                                                                                  #                WHERE  INTERCEP = DB(-SLOPE) - LMCRATE


000212:
000213:                                                                                                  #  EQUATION FOR INTERSECTION, CONTROL PARABOLA AND STRAIGHT SWITCH LINE....
000214:
000215:                                                                                                  #        DOGADOT = NUM/DEN, WHERE
000216:                                                                                                  #                                       2
000217:                                                                                                  #                NUM = (-SLOPE)(OGARATE) (1/CONACC)
000218:                                                                                                  #                      +SGN(DELOGA)(-SLOPE)(OGAERROR - SGN(DELOGA)(DB))
000219:                                                                                                  #                      +LMCRATE
000220:
000221:                                                                                                  #                DEN = (-SLOPE)(OGARATE)(1/CONACC) - SGN(DELOGA)
000222:                                                                                                  #                                                  2
000223:                                                                                                  #                DELOGA = OGAERROR - (DB - (OGADOT) (1/CONACC)/2)SGN(OGADOT)
000224:
000225:                                                                                                  #  FOR REGIONS 6 AND 6-PRIME USE ACTUAL OPERATING POINT  (OGA, OGARATE)
000226:                                                                                                  #        FOR OGAERROR AND OGARATE IN THE INTERSECTION EQUATIONS ABOVE.
000227:                                                                                                  #        FOR REGIONS 1 AND 1-PRIME USE DUMMY OPERATING POINT FOR OGAERROR
000228:                                                                                                  #        AND OGARATE, WHERE THE DUMMY POINT IS GIVEN BY....
000229:
000230:                                                                                                  #        OGAERROR = DELOGA + DB SGN(OGARATE)
000231:
000232:                                                                                                  #        OGARATE = -LMCRATE SGN(OGARATE)
000233:
000234:                                                                                                  #  NOTE, OGAERROR = OGA - OGAD  USES DUMMY REGISTER  OGA  IN ROLL DAP CODING
000235:                                                                                                  #        ALSO, AT POINT WHERE DOGADOT IS COMPUTED, REGISTER DELOGA IS USED
000236:                                                                                                  #        AS A DUMMY REGISTER FOR THE OGAERROR IN THE NUM EQUATION ABOVE


000238:
000239:                                                                                                  #  ROLLDAP CODING....
000240:
000241: 16,2000                                           SETLOC   DAPROLL
000242: 16,2000                                           BANK
000243: 16,3313  E6,1672                                  EBANK=   OGANOW
000244: 16,3313                                           COUNT*   $$/ROLL
000245:
000246: 16,3313           31672        ROLLDAP            CAE      OGANOW                                #  OGA RATE ESTIMATOR...SIMPLE FIRST-ORDER
000247: 16,3314           00006                           EXTEND                                         #        DIFFERENCE (SAMPLE TIME = 1/2 SEC)
000248: 16,3315           21673                           MSU      OGAPAST
000249: 16,3316           00006                           EXTEND
000250: 16,3317           74706                           MP       BIT5
000251: 16,3320           22000                           LXCH     A
000252: 16,3321           55533                           TS       OGARATE                               #  SC.AT B-4 REV/SEC
000253:
000254:                                                                                                  #  COMPUTATIONS WHICH FOLLOW USE OGA FOR OGAERR (SAME REGISTER)
000255:                                                                                                  #  EXAMINE DURATION OF LAST ROLL FIRING IF JETS ARE NOW ON.
000256:
000257: 16,3322           31611        DURATION           CA       ROLLFIRE                              #  SAME SGN AS PRESENT TORQ,MAGN=POSMAX
000258: 16,3323           00006                           EXTEND
000259: 16,3324           13326                           BZF      +2                                    #  ROLL JETS ARE NOW OFF.
000260: 16,3325           13334                           TCF      ROLLOGIC                              #  ENTER LOGIC, JETS NOW ON.
000261:
000262: 16,3326           31613                           CAE      TEMREG                                #  EXAMINE LAST FIRING INTERVAL
000263: 16,3327           00006                           EXTEND                                         #  IF POSITIVE, DONT FIRE
000264: 16,3330           13334                           BZF      ROLLOGIC                              #  ENTER LOGIC, JETS NOW OFF.
000265:
000266: 16,3331           34714                           CAF      ZERO                                  #  JETS HAVE NOT BEEN OFF FOR 1/2 SEC. WAIT
000267: 16,3332           55613                           TS       TEMREG                                #  RESET TEMREG
000268: 16,3333           15213        WAIT1/2            TCF      TASKOVER                              #  EXIT ROLL DAP
000269:
000270:                                                                                                  #  COMPUTE DB-(1/2 CONACC) (OGARATE)SQ  (1/2 IN THE SCALING)
000271:
000272: 16,3334           41533        ROLLOGIC           CS       OGARATE                               #  SCALED AT 2(-4) REV/SEC
000273: 16,3335           00006                           EXTEND
000274: 16,3336           71650                           MP       1/CONACC                              #  SCALED AT 2(+9) SEC SQ /REV
000275: 16,3337           00006                           EXTEND
000276: 16,3340           71533                           MP       OGARATE
000277: 16,3341           63727                           AD       DB                                    #  SCALED AT 2(+0) REV
000278: 16,3342           55613                           TS       TEMREG                                #  QUANTITY SCALED AT 2(+0) REV.
000279:
000280:                                                                                                  #  GET SIGN OF OGARATE
000281:
000282: 16,3343           31533                           CA       OGARATE
000283: 16,3344           00006                           EXTEND
000284: 16,3345           63350                           BZMF     +3                                    #  LET SGN(0) BE NEGATIVE
000285: 16,3346           34712                           CA       BIT1
000286: 16,3347           13351                           TCF      +2
000287: 16,3350           44712                           CS       BIT1
000288: 16,3351           55676                           TS       SGNRT                                 #  + OR -  2(-14)
000289:
000290:                                                                                                  #  CALCULATE DISTANCE FROM SWITCH PARABOLA,DELOGA
000291: 16,3352           00006                           EXTEND
000292: 16,3353           71613                           MP       TEMREG                                #  SGN(OGARATE) TEMREG NOW IN L


000294: 16,3354           40001                           CS       L
000295: 16,3355           61674                           AD       OGA                                   #  SCALED AT 2(+0) REV
000296: 16,3356           55677        DELOGAC            TS       DELOGA                                #  SC.AT B+0 REV, PLUS TO RIGHT OF C-PARAB
000297:
000298:                                                                                                  #  EXAMINE SGN(DELOGA) AND CREATE CA OR CS INSTR. DEPENDING UPON SIGN.
000299:
000300: 16,3357           00006                           EXTEND
000301: 16,3360           63363                           BZMF     +3
000302: 16,3361           34371                           CAF      PRIO30                                #  = CA (30000)
000303: 16,3362           13364                           TCF      +2
000304: 16,3363           34674                           CAF      BIT15                                 #  = CS (40000)
000305: 16,3364           55700                           TS       I
000306:
000307: 16,3365           51700                           INDEX    I                                     #  TSET ON  I SGN(OGARATE)
000308: 16,3366           01676                           0        SGNRT                                 #  CA OR CS
000309: 16,3367           40000                           COM
000310: 16,3370           00006                           EXTEND
000311: 16,3371           63442        REG1TST            BZMF     ROLLON                                #  IF REGION 1 (DELOGA OGARATE SAME SIGN)
000312:
000313:                                                                                                  #  NO JET FIRE YET.  TEST FOR MAX OGARATE
000314:
000315: 16,3372           51700                           INDEX    I
000316: 16,3373           01533                           0        OGARATE                               #  CA OR CS...BOTH MUST BE NEG. HERE
000317: 16,3374           55701                           TS       IOGARATE                              #  I.E. I OGARATE
000318: 16,3375           63735                           AD       MAXLIM                                #  SCALED AT 2(-4) REV/SEC
000319: 16,3376           00006                           EXTEND
000320: 16,3377           63521        REG3TST            BZMF     RATELIM                               #  IF REGION 3 (RATES TOO HIGH, FIRE JETS)
000321:
000322:                                                                                                  #  COMPUTATION OF I((-SLOPE)OGA + OGARATE) - INTERCEPT..NOTE THAT STR. LINE
000323:                                                                                                  #  SWITCH SLOPE IS (SLOPE) DEG/SEC/DEG, A NEG. QUANTITY
000324:
000325: 16,3400           31533                           CA       OGARATE
000326: 16,3401           00006                           EXTEND
000327: 16,3402           74675                           MP       BIT14
000328: 16,3403           55613                           TS       TEMREG
000329: 16,3404           31674                           CA       OGA
000330: 16,3405           00006                           EXTEND
000331: 16,3406           73730                           MP       -SLOPE
000332: 16,3407           20001                           DDOUBL
000333: 16,3410           20001                           DDOUBL
000334: 16,3411           20001                           DDOUBL                                         #  (OGA ERROR MUST BE LESS THAN +-225 DEG)
000335: 16,3412           61613                           AD       TEMREG
000336:
000337: 16,3413           51700                           INDEX    I
000338: 16,3414           00000                           0        A                                     #  I((-SLOPE)OGA+OGARATE) AT 2(-3)REV/SEC
000339: 16,3415           40000                           COM
000340: 16,3416           63732                           AD       INTERCEP                              #  SCALED AT 2(-3) REV.
000341: 16,3417           40000                           COM
000342: 16,3420           00006                           EXTEND
000343: 16,3421           63632        REG2TST            BZMF     NOROLL                                #  IF REGION 2 (COAST SIDE OF STRT LINE)
000344:
000345:                                                                                                  #  CHECK TO SEE IF OGARATE IS ABOVE MINLIM
000346:
000347: 16,3422           31701                           CA       IOGARATE                              #  ALWAYS NEGATIVE
000348: 16,3423           63733                           AD       MINLIM                                #  SCALED AT 2(-4) REV/SEC


000350: 16,3424           00006                           EXTEND
000351: 16,3425           63632        REG4TST            BZMF     NOROLL                                #  IF REGION 4 (COAST SIDE OF MINLIM)
000352:
000353:                                                                                                  #  ALL AREAS CHECKED EXCEPT LAST AREA...NO FIRE IN THIS SMALL SEGMENT
000354:
000355: 16,3426           51700                           INDEX    I
000356: 16,3427           01674                           0        OGA
000357: 16,3430           40000                           COM
000358: 16,3431           63727                           AD       DB
000359: 16,3432           40000                           COM
000360: 16,3433           00006                           EXTEND
000361: 16,3434           63632        REG5TST            BZMF     NOROLL                                #  IF REGION 5 (COAST SIDE OF DB)
000362:
000363:                                                                                                  #  JETS MUST FIRE NOW.  OGARATE IS NEG. (OR VISA VERSA).  USE DIRECT STR. LINE.
000364:                                                                                                  #  DELOGA AND DELOGART ARE USED AS DUMMY VARIABLES IN THE SOLUTION OF A
000365:                                                                                                  #  STRAIGHT LINE APPROXIMATION TO A QUADRATIC SOLUTION OF THE INTERSECTION
000366:                                                                                                  #  OF THE CONTROL PARABOLA AND THE STRAIGHT-LINE SWITCH LINE.  THE STRAIGHT
000367:                                                                                                  #  LINE IS THE TANGENT TO THE CONTROL PARABOLA AT THE OPERATING POINT.  (FOR
000368:                                                                                                  #  OPERATING POINTS IN REGIONS 6 AND 6-PRIME)
000369:
000370: 16,3435           31674        REGION6            CAE      OGA                                   #  USE ACTUAL OPERATING POINT FOR TANGENT
000371: 16,3436           55677                           TS       DELOGA                                #  ACTUAL STATE
000372: 16,3437           31533                           CA       OGARATE
000373: 16,3440           55675                           TS       DELOGART                              #  ACTUAL STATE, I.E. DEL OGARATE
000374: 16,3441           13451                           TCF      ONROLL
000375:
000376:                                                                                                  #  JETS ALSO FIRE FROM HERE EXCEPT OGARATE IS POS (VISA VERSA), USE INDIRECT
000377:                                                                                                  #  STRAIGHT LINE ESTABLISHED BY TANGENT TO A CONTROL PARABOLA AT  ((DELOGA
000378:                                                                                                  #  + DB SGN(DELOGA) ), -LMCRATE SGN(DELOGA) )    (THIS IS THE DUMMY
000379:                                                                                                  #  OPERATING POINT FOR OPERATING POINTS IN REGIONS 1 AND 1-PRIME )
000380:
000381: 16,3442           51700        ROLLON             INDEX    I
000382: 16,3443           03727                           0        DB
000383: 16,3444           27677                           ADS      DELOGA                                #  DELOGA WAS DIST. FROM SWITCH PARABOLA
000384:
000385: 16,3445           43731                           CS       LMCRATE                               #  LIMIT CYCLE RATE AT 2(-4) REV/SEC
000386: 16,3446           51700                           INDEX    I
000387: 16,3447           00000                           0        A
000388: 16,3450           55675                           TS       DELOGART                              #  EVALUATE STATE FOR INDIRECT LINE.
000389:
000390:                                                                                                  #  SOLVE STRAIGHT LINES SIMULTANEOUSLY TO OBTAIN DESIRED OGARATE.
000391:
000392: 16,3451           00006        ONROLL             EXTEND                                         #  DELOGART IN ACC. ON ARRIVAL
000393: 16,3452           71650                           MP       1/CONACC
000394: 16,3453           60000                           DOUBLE
000395: 16,3454           00006                           EXTEND
000396: 16,3455           73730                           MP       -SLOPE
000397: 16,3456           55613                           TS       TEMREG                                #  2(-SLOPE)RATE /CONACC
000398: 16,3457           00006                           EXTEND
000399: 16,3460           71675                           MP       DELOGART
000400: 16,3461           55675                           TS       DELOGART                              #  2(-SLOPE)(RATESQ)/CONACC
000401: 16,3462           44700                           CS       BIT11
000402: 16,3463           51700                           INDEX    I


000404: 16,3464           00000                           0        A
000405: 16,3465           27613        RATEDEN            ADS      TEMREG                                #  DENOMINATOR COMPLETED
000406:
000407: 16,3466           51700                           INDEX    I
000408: 16,3467           01677                           0        DELOGA
000409: 16,3470           40000                           COM
000410: 16,3471           63727                           AD       DB
000411: 16,3472           40000                           COM
000412: 16,3473           00006                           EXTEND
000413: 16,3474           73730                           MP       -SLOPE
000414: 16,3475           27675                           ADS      DELOGART
000415: 16,3476           33731                           CA       LMCRATE
000416: 16,3477           00006                           EXTEND
000417: 16,3500           74700                           MP       BIT11
000418: 16,3501           61675        RATENUM            AD       DELOGART                              #  NUMERATOR COMPLETED
000419:
000420: 16,3502           56001                           XCH      L                                     #  PLACE NUMERATOR IN L FOR OVERFL.  CHECK
000421: 16,3503           34714                           CA       ZERO
000422: 16,3504           00006                           EXTEND
000423: 16,3505           11613                           DV       TEMREG                                #  OVERFLOW, IF ANYTHING, NOW APPEARS IN A
000424: 16,3506           00006                           EXTEND
000425: 16,3507           13515                           BZF      DVOK                                  #  NO OVERFLOW....(0,L)/TEMREG = 0,L
000426:
000427: 16,3510           10000        MINLIMAP           CCS      A
000428: 16,3511           34672                           CAF      POSMAX                                #        POSITIVE OVERFLOW
000429: 16,3512           13524                           TCF      ROLLSET
000430: 16,3513           44672                           CS       POSMAX                                #        NEGATIVE OVERFLOW
000431: 16,3514           13524                           TCF      ROLLSET
000432:
000433: 16,3515           22000        DVOK               LXCH     A                                     #  PUT NUMERATOR BACK INTO A, 0 IN L
000434: 16,3516           00006                           EXTEND
000435: 16,3517           11613                           DV       TEMREG                                #  RESULT OF DIVISIONIS DESIRED OGARATE
000436: 16,3520           13524                           TCF      ROLLSET                               #        (SCALED AT B-4 REV/SEC)
000437: 16,3521           43735        RATELIM            CS       MAXLIM
000438: 16,3522           51700                           INDEX    I
000439: 16,3523           00000                           0        A                                     #  IF I = CA, DESIRED RATE IS  -MAXLIM
000440:
000441:                                                                                                  #  BASED ON DESIRED RATE - PRESENT RATE, COMPUTE JET FIRE TIME
000442:
000443: 16,3524           55613        ROLLSET            TS       TEMREG                                #  STORE DESIRED OGARATE (SCALED B-4)
000444: 16,3525           00006                           EXTEND
000445: 16,3526           61533                           SU       OGARATE                               #  RATE DIFF. SCALED AT 2(-4) REV/SEC
000446: 16,3527           55613                           TS       TEMREG                                #        OVERFLOW PROTECT
000447: 16,3530           13533                           TCF      +3                                    #            "       "
000448: 16,3531           50000                           INDEX    A                                     #            "       "
000449: 16,3532           44673                           CS       LIMITS                                #            "       "
000450: 16,3533           00006                           EXTEND
000451: 16,3534           77665                           MP       T6SCALE                               #  T6SCALE = 8/10.24
000452: 16,3535           00006                           EXTEND


000454: 16,3536           71650                           MP       1/CONACC                              #  SCALED AT 2(+9) SECSQ/REV
000455: 16,3537           20001                           DDOUBL
000456: 16,3540           20001                           DDOUBL
000457: 16,3541           55613                           TS       TEMREG                                #        OVERFLOW PROTECT
000458: 16,3542           13545                           TCF      +3                                    #            "       "
000459: 16,3543           50000                           INDEX    A                                     #            "       "
000460: 16,3544           44673                           CS       LIMITS                                #            "       "
000461: 16,3545           55613                           TS       TEMREG                                #  JET FIRE TIME AT 625 MICROSEC/BIT
000462: 16,3546           00006                           EXTEND                                         #  POS MEANS POSITIVE ROLL TORQUE.
000463: 16,3547           13632                           BZF      NOROLL
000464:
000465:                                                                                                  #  JET FIRE TIME IS NZ, ARE JETS ON NOW.
000466:
000467: 16,3550           31613                           CAE      TEMREG                                #  DESIRED CHANGE IN OGARATE
000468: 16,3551           00006                           EXTEND
000469: 16,3552           71611                           MP       ROLLFIRE                              #  (SGN OF TORQUE..ZERO IF JETS NOW OFF)
000470: 16,3553           10000                           CCS      A
000471: 16,3554           13560                           TCF      MOREROLL                              #  CONTINUE FIRING WITH PRESENT POLARITY
000472: 16,3555           13563                           TCF      NEWROLL                               #  START NEW FIRING NOW, PLUS
000473: 16,3556           13632                           TCF      NOROLL                                #  TERMINATE OLD FIRING, NEW SIGN REQUESTED
000474: 16,3557           13563                           TCF      NEWROLL                               #  START NEW FIRING NOW, MINUS
000475:
000476:                                                                                                  #  CONTINUE PRESENT FIRING
000477:
000478: 16,3560           34714        MOREROLL           CAF      ZERO
000479: 16,3561           55700                           TS       I                                     #  USE TEMP. AS MOREROLL SWITCH
000480: 16,3562           13574                           TCF      MAXTFIRE
000481:
000482:                                                                                                  #  START NEW FIRING BUT CHECK IF GREATER THAN MINIMUM FIRE TIME.
000483:
000484: 16,3563           11613        NEWROLL            CCS      TEMREG                                #  CALL THIS T6FIRE
000485: 16,3564           64712                           AD       ONE
000486: 16,3565           13567                           TCF      +2
000487: 16,3566           64712                           AD       ONE
000488: 16,3567           40000                           COM                                            #  -MAG(T6FIRE)
000489: 16,3570           63736                           AD       TMINFIRE                              #  TMINFIRE-MAG(T6FIRE)
000490: 16,3571           40000                           COM
000491: 16,3572           00006                           EXTEND
000492: 16,3573           63632        MINTST             BZMF     NOROLL                                #  IF NOT GREATER THAN TMINFIRE (NEW FIRE)
000493:
000494:                                                                                                  #  PROCEED WITH NEW FIRING BUT NOT LONGER THAN TMAXFIRE
000495:
000496: 16,3574           31613        MAXTFIRE           CA       TEMREG
000497: 16,3575           00006                           EXTEND
000498: 16,3576           74710                           MP       1/TMXFIR                              #  I.E. 1/TMAXFIRE
000499: 16,3577           00006                           EXTEND
000500: 16,3600           13606        MAXTST             BZF      NOMXFIRE                              #  IF LESS THAN TMAXFIRE
000501:
000502: 16,3601           10000                           CCS      A
000503: 16,3602           33737                           CAF      TMAXFIRE                              #  USE MAXIMUM
000504: 16,3603           13605                           TCF      +2
000505: 16,3604           43737                           CS       TMAXFIRE                              #  USE MAXIMUM
000506: 16,3605           55613                           TS       TEMREG
000507:


000509:                                                                                                  #  SET UP SIGN OF REQUIRED TORQUE
000510:
000511: 16,3606           11613        NOMXFIRE           CCS      TEMREG                                #  FOR TORQUE SIGN
000512: 16,3607           34672                           CA       POSMAX                                #  POSITIVE TORQUE REQUIRED
000513: 16,3610           13612                           TCF      +2
000514: 16,3611           34674                           CA       NEGMAX                                #  NEGATIVE TORQUE REQUIRED
000515: 16,3612           55611                           TS       ROLLFIRE                              #  SET ROLLFIRE FOR + OR - TORQUE
000516:
000517: 16,3613           40000                           COM                                            #  COMPLEMENT... POS. FOR NEG. TORQUE
000518: 16,3614           00006                           EXTEND
000519: 16,3615           63620                           BZMF     +3                                    #  POSITIVE TORQUE REQUIRED
000520: 16,3616           41613                           CS       TEMREG
000521: 16,3617           55613                           TS       TEMREG
000522:
000523: 16,3620           31700        FIRELOOK           CA       I                                     #  IS IT MOREROLL
000524: 16,3621           00006                           EXTEND
000525: 16,3622           13624                           BZF      FIREPLUG                              #  YES
000526: 16,3623           13635                           TCF      JETROLL                               #  MAG(T6FIRE) NOW IN TEMREG
000527:
000528: 16,3624           30031        FIREPLUG           CAE      TIME6                                 #  CHECK FOR EXTENDED FIRING
000529: 16,3625           00006                           EXTEND
000530: 16,3626           61613                           SU       TEMREG
000531: 16,3627           00006                           EXTEND
000532: 16,3630           65213        EXTENTST           BZMF     TASKOVER                              #  IF EXTENSION WANTED, DONT, EXIT ROLL DAP
000533: 16,3631           13635                           TCF      JETROLL
000534:
000535: 16,3632           44714        NOROLL             CS       ZERO                                  #  COAST....(NEG ZERO FOR TIME6)
000536: 16,3633           55611                           TS       ROLLFIRE                              #  NOTE, JETS CAN FIRE NEXT PASS
000537: 16,3634           55613                           TS       TEMREG
000538:
000539: 16,3635           00006        JETROLL            EXTEND
000540: 16,3636           33726                           DCA      NOROL1T6
000541: 16,3637           53311                           DXCH     T6LOC
000542: 16,3640           31613                           CA       TEMREG                                #  ENTER JET FIRING TIME
000543: 16,3641           54031                           TS       TIME6
000544:
000545: 16,3642           31700                           CA       I                                     #  I=0 IF MOREROLL, KEEP SAME JETS ON
000546: 16,3643           00006                           EXTEND
000547: 16,3644           15213        SAMEJETS           BZF      TASKOVER                              #  IF JETS ON KEEP SAME JETS.  EXIT ROLL DAP
000548:
000549: 16,3645           11611                           CCS      ROLLFIRE
000550: 16,3646           13652                           TCF      +TORQUE
000551: 16,3647           13713                           TCF      T6ENABL
000552: 16,3650           13673                           TCF      -TORQUE
000553: 16,3651           13713                           TCF      T6ENABL
000554:
000555:                                                                                                  #  PROCEED WITH + TORQUE
000556:
000557: 16,3652           31612        +TORQUE            CA       ROLLWORD                              #  WHAT WAS THE LAST +TORQUE COMBINATION
000558: 16,3653           74712                           MASK     BIT1                                  #  WAS IT NO.9-11
000559: 16,3654           00006                           EXTEND
000560: 16,3655           13665                           BZF      NO.9-11                               #  NOT 9-11, SO USE IT THIS TIME
000561:


000563: 16,3656           44712        NO.13-15           CS       BIT1
000564: 16,3657           71612                           MASK     ROLLWORD
000565: 16,3660           55612                           TS       ROLLWORD                              #  CHANGE BIT 1 TO ZERO
000566: 16,3661           34732                           CAF      +ROLL2
000567: 16,3662           00006                           EXTEND
000568: 16,3663           01006                           WRITE    CHAN6
000569: 16,3664           13713                           TCF      T6ENABL
000570:
000571: 16,3665           34712        NO.9-11            CAF      BIT1                                  #  1ST + JETS TO FIRE (MRCLEAN OS ROLLWORD)
000572: 16,3666           27612                           ADS      ROLLWORD                              #  CHANGE BIT 1 TO ONE
000573: 16,3667           34715                           CAF      +ROLL1
000574: 16,3670           00006                           EXTEND
000575: 16,3671           01006                           WRITE    CHAN6
000576: 16,3672           13713                           TCF      T6ENABL
000577:
000578: 16,3673           31612        -TORQUE            CA       ROLLWORD                              #  WHAT WAS LAST -TORQUE COMBINATION
000579: 16,3674           74711                           MASK     BIT2                                  #  WAS IT NO.12-10
000580: 16,3675           00006                           EXTEND
000581: 16,3676           13706                           BZF      NO.12-10                              #  NOT 12-10, SO USE IT THIS TIME
000582:
000583: 16,3677           44711        NO.16-14           CS       BIT2
000584: 16,3700           71612                           MASK     ROLLWORD
000585: 16,3701           55612                           TS       ROLLWORD                              #  CHANGE BIT 2 TO ZERO
000586: 16,3702           33740                           CAF      -ROLL2
000587: 16,3703           00006                           EXTEND
000588: 16,3704           01006                           WRITE    CHAN6
000589: 16,3705           13713                           TCF      T6ENABL
000590:
000591: 16,3706           34711        NO.12-10           CAF      BIT2                                  #  1ST -JETS TO FIRE (MRCLEAN OS ROLLWORD)
000592: 16,3707           27612                           ADS      ROLLWORD                              #  CHANGE BIT 2 TO ONE
000593: 16,3710           34377                           CAF      -ROLL1
000594: 16,3711           00006                           EXTEND
000595: 16,3712           01006                           WRITE    CHAN6
000596:
000597: 16,3713           34674        T6ENABL            CAF      BIT15
000598: 16,3714           00006                           EXTEND
000599: 16,3715           05013                           WOR      CHAN13
000600: 16,3716           15213        RDAPEND            TCF      TASKOVER                              #  EXIT ROLL DAP
000601:


000603:                                                                                                  #  THIS T6 TASK SHUTS OFF ALL ROLL JETS
000604:
000605: 16,3717           22016        NOROLL1            LXCH     BANKRUPT                              #  SHUT OFF ALL (ROLL) JETS, (A T6 TASK
000606: 16,3720           34714                           CAF      ZERO                                  #        CALLED BY ..JETROLL..)
000607: 16,3721           55611                           TS       ROLLFIRE                              #  ZERO INDICATES JETS NOW OFF
000608: 16,3722           00006                           EXTEND
000609: 16,3723           01006        KILLJETS           WRITE    CHAN6
000610: 16,3724           15224                           TCF      NOQRSM
000611:


000613:                                                                                                  #  CONSTANTS FOR ROLL AUTOPILOT....
000614:
000615: 16,3725  E6,1742                                  EBANK=   BZERO
000616: 16,3725           03717 34066  NOROL1T6           2CADR    NOROLL1
000617:
000618: 16,3727           00344        DB                 DEC      .01388889                             #  DEAD BAND (5 DEG), SC.AT B+0 REV
000619: 16,3730           06315        -SLOPE             DEC      0.2                                   #  -SWITCHLINE SLOPE(0.2 PER SEC) SC.AT B+0
000620:                                                                                                  #        PER SEC
000621: 16,3731           00111        LMCRATE            DEC      .00027778  B+4                        #  LIMIT CYCLE RATE (0.1 DEG/SEC) SC.AT
000622:                                                                                                  #        B-4 REV/SEC
000623: 16,3732           00510        INTERCEP           DEC      .0025      B+3                        #  DB(-SLOPE) - LMCRATE, SC.AT B-3 REV/SC
000624: 16,3733           01330        MINLIM             DEC      .00277778  B+4                        #  RATELIM,MIN (1DEG/SEC), SC.AT B-4 REV/SC
000625: 16,3734           00027        1/MINLIM           DEC      360        B-18                       #  RECIPROCAL THEREOF, SHIFTED 14 RIGHT
000626: 16,3735           07071        MAXLIM             DEC      .01388889  B+4                        #  RATELIM,MAX (5DEG/SEC), SC.AT B-4 REV/SC
000627: 16,3736           00030        TMINFIRE           DEC      1.5        B+4                        #  15 MS (14MIN), SC.AT 16 BITS/CS
000628: 16,3737           07640        TMAXFIRE           DEC      250        B+4                        #  2.5 SEC, SC.AT 16 BITS/CS
000629:
000630: 16,3740     4710               1/TMXFIR           =        BIT3                                  #  RECIPROCAL THEREOF, SHIFTED 14 RIGHT,
000631:                                                                                                  #        ROUNDS TO OCT00004, SO ALLOWS 2.56
000632:                                                                                                  #        SEC FIRINGS BEFORE APPLYING LIMIT
000633: 16,3740     7665               T6SCALE            =        PRIO31                                #  (B+3) (16 BITS/CS)  (100CS/SEC)
000634: 16,3740     4715               +ROLL1             =        FIVE                                  #  ONBITS FOR JETS 9 AND 11
000635: 16,3740     4732               +ROLL2             =        OCT120                                #  ONBITS FOR JETS 13 AND 15
000636: 16,3740     4377               -ROLL1             =        TEN                                   #  ONBITS FOR JETS 12 NAD 10
000637: 16,3740           00240        -ROLL2             OCT      240                                   #  ONBITS FOR JETS 16 AND 14
000638:

End of include-file TVCROLLDAP.agc.  Parent file is MAIN.agc


