
Source Code


000002:                                                                                                  ## Copyright:   Public domain.
000003:                                                                                                  ## Filename:    TVCSTROKETEST.agc
000004:                                                                                                  ## Purpose:     Part of the source code for Colossus, build 249.
000005:                                                                                                  ##              It is part of the source code for the Command Module's (CM)
000006:                                                                                                  ##              Apollo Guidance Computer (AGC), for Apollo 9.
000007:                                                                                                  ## Assembler:   yaYUL
000008:                                                                                                  ## Reference:   Starts on p. 943.
000009:                                                                                                  ## Contact:     Ron Burkey <info@sandroid.org>.
000010:                                                                                                  ## Website:     www.ibiblio.org/apollo/index.html
000011:                                                                                                  ## Mod history: 08/23/04 RSB.   Began transcribing.
000012:                                                                                                  ##              05/14/05 RSB    Corrected website reference above.
000013:                                                                                                  ##              2010-10-24 JL   Indentation fixes.
000014:                                                                                                  ##              2017-01-06 RSB  Page numbers now agree with those on the
000015:                                                                                                  ##                              original harcopy, as opposed to the PDF page
000016:                                                                                                  ##                              numbers in 1701.pdf.
000017:                                                                                                  ##              2017-01-20 RSB  Cross-diff'd comment text (not whitespace)
000018:                                                                                                  ##                              vs the already-proofed corresponding Colossus
000019:                                                                                                  ##                              237 and Comanche 55 source-code files
000020:                                                                                                  ##                              and corrected errors found.
000021:                                                                                                  ##
000022:                                                                                                  ## The contents of the "Colossus249" files, in general, are transcribed
000023:                                                                                                  ## from a scanned copy of the program listing.  Notations on this
000024:                                                                                                  ## document read, in part:
000025:                                                                                                  ##
000026:                                                                                                  ##      Assemble revision 249 of AGC program Colossus by NASA
000027:                                                                                                  ##      2021111-041.  October 28, 1968.
000028:                                                                                                  ##
000029:                                                                                                  ##      This AGC program shall also be referred to as
000030:                                                                                                  ##                              Colossus 1A
000031:                                                                                                  ##
000032:                                                                                                  ##      Prepared by
000033:                                                                                                  ##                      Massachusetts Institute of Technology
000034:                                                                                                  ##                      75 Cambridge Parkway
000035:                                                                                                  ##                      Cambridge, Massachusetts
000036:                                                                                                  ##      under NASA contract NAS 9-4065.
000037:                                                                                                  ##
000038:                                                                                                  ## Refer directly to the online document mentioned above for further information.
000039:                                                                                                  ## Please report any errors (relative to the scanned pages) to info@sandroid.org.
000040:                                                                                                  ##
000041:                                                                                                  ## In some cases, where the source code for Luminary 131 overlaps that of
000042:                                                                                                  ## Colossus 249, this code is instead copied from the corresponding Luminary 131
000043:                                                                                                  ## source file, and then is proofed to incorporate any changes.
000044:


000046:                                                                                                  #  NAME          STROKE TEST PACKAGE             (INCLUDING INITIALIZATION PACKAGE)
000047:                                                                                                  #  ORIGINAL CODING BY OLSSON                     LOG SECTION....STROKE TEST PACKAGE
000048:                                                                                                  #  MOD BY ENGEL                                  DATE....21 MARCH, 1967
000049:
000050:                                                                                                  #  FUNCTIONAL DESCRIPTION....
000051:                                                                                                  #        STROKE TEST PACKAGE GENERATES A WAVEFORM DESIGNED TO EXCITE BENDING
000052:                                                                                                  #        STRKTSTI (STROKE TEST INITIALIZATION) IS CALLED AS A JOB BY VB68.
000053:                                                                                                  #                IT INITIALIZES ALL ERASABLES REQD FOR A STROKE TEST, AND
000054:                                                                                                  #                THEN TESTS FOR AN 80MS DAP.  IF 80MS IT SETS STROKER = ESTROKER
000055:                                                                                                  #                FOR AN IMMEDIATE STROKE TEST, OTHERWISE IT MERELY ENABLES
000056:                                                                                                  #                A STROKE TEST BY SETTING STROKER TO -0.  THE STROKE TEST
000057:                                                                                                  #                THEN AWAITS SWITCHOVER TO THE 80MS DAP WHEREUPON IT IS
000058:                                                                                                  #                ENABLED AFTER AN ADDITIONAL 4 SECOND DELAY TO AVOID
000059:                                                                                                  #                THE SWITCHOVER TRANSIENTS (SEE STRKCALL, STRKUP IN
000060:                                                                                                  #                TVCEXECUTIVE)
000061:                                                                                                  #        HACK (STROKE TEST) GENERATES THE WAVEFORM BY DUMPING PULSE BURSTS
000062:                                                                                                  #                OF PROPER SIGN AND IN PROPER SEQUENCE DIRECTLY INTO
000063:                                                                                                  #                TVCPITCH, WORKING IN CONJUNCITON WITH BOTH PITCH AND YAW
000064:                                                                                                  #                TVC DAPS, WITH INTERMEDIATE WAITLIST CALLS.  NOTE, HOWEVER
000065:                                                                                                  #                THAT THE STROKE TEST IS PERFORMED ONLY IN THE PITCH AXIS.
000066:                                                                                                  #                AN EXAMPLE WAVEFORM IS GIVEN BELOW, TO DEMONSTRATE STROKE-
000067:                                                                                                  #                TEST PARAMETER SELECTION
000068:                                                                                                  #        RESTARTS CAUSE TEST TO BE TERMINATED.  ANOTHER V68 REQD IF TEST
000069:                                                                                                  #                IS TO BE RE-RUN.
000070:                                                                                                  #        PULSE BURST SIZE IS PAD-LOADED (ESTROKER) SO THAT AMPLITUDE OF
000071:                                                                                                  #                WAVEFORM CAN BE CHANGED.  THERE ARE TEN PULSE BURSTS IN
000072:                                                                                                  #                THE HALF-AMPLITUDE OF THE FIRST FREQUENCY SET IN THE
000073:                                                                                                  #                STANDARD WAVEFORM.  AMPLITUDE IS 10(ESTROKER)(1/42.15),
000074:                                                                                                  #                NOMINALLY 50/42.15 = 1.185 DEG
000075:
000076:                                                                                                  #  CALLING SEQUENCE....
000077:                                                                                                  #        EXTENDED VERB 68 SETS UP STRKTSTI JOB
000078:                                                                                                  #        PITCH AND YAW TVCDAPS, FINDING STROKER NON-ZERO, DO A ..TC HACK..
000079:                                                                                                  #        AN INTERNALLY-GENERATED WAITLIST CALL ENTERS AT ..HACKWLST..
000080:
000081:                                                                                                  #  NORMAL EXIT MODES....
000082:                                                                                                  #        TC BUNKER (..Q.. IF ENTRY FROM DAP, ..TCTSKOVR.. IF FROM WAITLIST) LIST
000083:
000084:                                                                                                  #  SUBROUTINES CALLED....
000085:                                                                                                  #        WAITLIST
000086:
000087:                                                                                                  #  ALARM OR ABORT EXIT MODES....
000088:                                                                                                  #        NONE
000089:
000090:                                                                                                  #  ERASABLE INITIALIZATION REQUIRED....
000091:                                                                                                  #        ESTROKER (PAD-LOAD)
000092:                                                                                                  #        STROKER, CADDY, REVS, CARD, N
000093:
000094:                                                                                                  #  OUTPUT....
000095:                                                                                                  #        STRKTSTI...INITIALIZATION FOR STROKE TEST
000096:                                                                                                  #        HACK, HACKWLST...PULSE BURSTS INTO TVCPITCH VIA..ADS..
000097:                                                                                                  #                          RESETS STROKER = +0 WHEN TEST COMPLETED
000098:
000099:                                                                                                  #  DEBRIS....
000100:                                                                                                  #        N = CADDY = +0, CARD = -0, REVS = -1
000101:                                                                                                  #        BUNKER


000103:
000104:                                                                                                  #  EXAMPLE STROKE TEST WAVE FORM, DEMONSTRATING PARAMETER SELECTION
000105:                                                                                                  #  NOTE....THIS IS NOT THE OFFICIAL WAVEFORM....
000106:
000107:                                                                                                  #         **              **
000108:                                                                                                  #         **              **
000109:                                                                                                  #         **              **             EXAMPLE WAVEFORM (EACH * REPRESENTS
000110:                                                                                                  #        *  *            *  *              85.41 ARCSEC OF ACTUATOR CMND)
000111:                                                                                                  #        *  *            *  *
000112:                                                                                                  #        *  *            *  *
000113:                                                                                                  #       *    *          *    *          **      **      **      **      **
000114:                                                                                                  #       *    *          *    *          **      **      **      **      **
000115:                                                                                                  #       *    *          *    *          **      **      **      **      **
000116:                                                                                                  #      *      *        *      *        *  *    *  *    *  *    *  *    *  *    **  **  **  **  **
000117:                                                                                                  #      *      *        *      *        *  *    *  *    *  *    *  *    *  *    **  **  **  **  **
000118:                                                                                                  #      *      *        *      *        *  *    *  *    *  *    *  *    *  *    **  **  **  **  **
000119:                                                                                                  #  -----------------------------------------------------------------------------------------------------
000120:                                                                                                  #              *      *        *      *    *  *    *  *    *  *    *  *    *  *  **  **  **  **  **
000121:                                                                                                  #              *      *        *      *    *  *    *  *    *  *    *  *    *  *  **  **  **  **  **
000122:                                                                                                  #              *      *        *      *    *  *    *  *    *  *    *  *    *  *  **  **  **  **  **
000123:                                                                                                  #               *    *          *    *      **      **      **      **      **
000124:                                                                                                  #               *    *          *    *      **      **      **      **      **
000125:                                                                                                  #               *    *          *    *      **      **      **      **      **
000126:                                                                                                  #                *  *            *  *
000127:                                                                                                  #                *  *            *  *
000128:                                                                                                  #                *  *            *  *
000129:                                                                                                  #                 **              **
000130:                                                                                                  #                 **              **
000131:                                                                                                  #                 **              **
000132:
000133:                                                                                                  #  FOR THIS (UNOFFICIAL, EXAMPLE) WAVEFORM, THE REQUIRED PARAMETERS ARE AS FOLLOWS....
000134:
000135:                                                                                                  #        FCARD    = +3           (NUMBER OF SETS)
000136:                                                                                                  #        ESTROKER = +3           (PULSE BURST SIZE, SC.AT 85.41 ARCSEC/BIT)
000137:
000138:                                                                                                  #        SET1..
000139:                                                                                                  #                FREVS   = +3    (NUMBER REVERSALS MINUS 1)
000140:                                                                                                  #                FCADDY  = +4    (NUMBER OF PULSE BURSTS IN 1/2 AMPLITUDE)
000141:                                                                                                  #        SET2..
000142:                                                                                                  #                FCARD1  = +9    (NUMBER REVERSALS MINUS 1)
000143:                                                                                                  #                FCARD4  = +2    (NUMBER OF PULSE BURSTS IN 1/2 AMPLITUDE)
000144:                                                                                                  #        SET3..
000145:                                                                                                  #                FCARD2  = +9    (NUMBER REVERSALS MINUS 1)
000146:                                                                                                  #                FCARD5  = +1    (NUMBER OF PULSE BURSTS IN 1/2 AMPLITUDE)
000147:                                                                                                  #        SET4..
000148:                                                                                                  #                FCARD3  = +0    (NUMBER REVERSALS MINUS 1)
000149:                                                                                                  #                FCARD6  = +0    (NUMBER OF PULSE BURSTS IN 1/2 AMPLITUDE)
000150:


000152:                                                                                                  #  STROKE TEST INITIALIZATION PACKAGE (AS A JOB, FROM VERB 68)
000153:
000154: 17,2213                                           BANK     17
000155: 20,2000                                           SETLOC   DAPS2
000156: 20,2000                                           BANK
000157:
000158: 20,3446                                           COUNT*   $$/STRK
000159: 20,3446  E6,1665                                  EBANK=   CADDY
000160:
000161: 20,3446           03465        STRKTSTI           TCR      TSTINIT                               #  STROKE TEST INITIALIZATION PKG (CALLED
000162:                                                                                                  #  AS A JOB BY VERB68)
000163:
000164: 20,3447           00004        TVCDTCHK           INHINT                                         #  STROKE TEST PERMITTED ONLY WITH 80MS DAP
000165: 20,3450           31635                           CAE      T5TVCDT                               #        CHECK CURRENT TIMING
000166: 20,3451           54001                           TS       L
000167: 20,3452           37677                           CAF      OCT37774                              #        LOOK FOR 80MS (T5)
000168: 20,3453           00006                           EXTEND
000169: 20,3454           06001                           RXOR     LCHAN                                 #  +0 IF 80MS
000170: 20,3455           10000                           CCS      A
000171: 20,3456           13462                           TCF      +4                                    #        NOT 80MS
000172:
000173: 20,3457           31412                           CAE      ESTROKER                              #        80MS.  OK, SET STROKER FOR TEST
000174: 20,3460           55614                           TS       STROKER
000175: 20,3461           13464                           TCF      +3
000176:
000177: 20,3462           44714                           CS       ZERO                                  #        ENABLE, BUT DO NOT ACTIVATE STROKE
000178: 20,3463           55614                           TS       STROKER                               #                TEST, AWAITING SWITCHOVER
000179:                                                                                                  #                TO MOD0R (MOD80)
000180: 20,3464           15112                           TCF      ENDOFJOB
000181: 20,3465           43475        TSTINIT            CS       FCADDY                                #  NORMAL ENTRY FROM STRKTSTI
000182: 20,3466           55665                           TS       CADDY
000183: 20,3467           55666                           TS       N                                     #        NOTE SGN CHNG FCADDY(+) TO CADDY(-)
000184:
000185: 20,3470           33476                           CAF      FREVS
000186: 20,3471           55670                           TS       REVS
000187:
000188: 20,3472           43477                           CS       FCARD                                 #        NOTE SGN CHNG FCARD(+) TO CARD(-)
000189: 20,3473           55671                           TS       CARD
000190:
000191: 20,3474           00002                           TC       Q                                     #  RETURN TO STRKTSTI+1 (OR CHKSTRK+2 OR +4)
000192:


000194:                                                                                                  #  THE OFFICIAL STROKE TEST WAVEFORM (3 JAN, 1967) CONSISTS OF FOUR STROKE SETS, AS FOLLOWS....
000195:
000196:                                                                                                  #        SET 1...10 BURSTS IN 1/2 AMP,   4 REVERSALS
000197:                                                                                                  #        SET 2... 6 BURSTS IN 1/2 AMP,   6 REVERSALS
000198:                                                                                                  #        SET 3... 5 BURSTS IN 1/2 AMP,  10 REVERSALS
000199:                                                                                                  #        SET 4... 4 BURSTS IN 1/2 AMP,  14 REVERSALS
000200:
000201:                                                                                                  #  THE PULSE BURST SIZE (ESTROKER) IS PAD-LOADED (5 BITS AS OF 3 JAN, 1967)
000202:                                                                                                  #  THE REMAINING WAVEFORM-GENERATING PARAMETERS ARE AS FOLLOWS....
000203:
000204: 20,3475           00012        FCADDY             DEC      10         B-14                       #  NO. PULSE BURSTS IN 1/2 AMP, SET1..(+10)
000205: 20,3476           00003        FREVS              DEC      3          B-14                       #  NO. REVERSALS MINUS 1, SET1........(  3)
000206: 20,3477           00004        FCARD              DEC      4          B-14                       #  NO. STROKE SETS....................(+ 4)
000207: 20,3500           00005        FCARD1             DEC      5          B-14                       #  NO. REVERSALS MINUS 1, SET2........(  5)
000208: 20,3501           00011        FCARD2             DEC      9          B-14                       #                            3........(  9)
000209: 20,3502           00015        FCARD3             DEC      13         B-14                       #                            4........( 13)
000210: 20,3503           00006        FCARD4             DEC      6          B-14                       #  NO. PULSE BURSTS IN 1/2 AMP, SET2..(+ 6)
000211: 20,3504           00005        FCARD5             DEC      5          B-14                       #                               SET3..(+ 5)
000212: 20,3505           00004        FCARD6             DEC      4          B-14                       #                               SET4..(+ 4)
000213:
000214: 20,3506     4711               20MS               =        BIT2
000215:
000216:                                                                                                  #  STROKE TEST PACKAGE PROPER....
000217:
000218: 20,3506  E6,1667                                  EBANK=   BUNKER
000219:
000220: 20,3506           00006        HACK               EXTEND                                         #  ENTRY (IN T5 RUPT) FROM TVCDAPS
000221: 20,3507           23667                           QXCH     BUNKER                                #  SAVE Q FOR DAP RETURN
000222:
000223: 20,3510           34711                           CAF      20MS                                  #  2DAPSX2(PASSES/DAP)X2(CS/PASS)=8CS=TVCDT
000224: 20,3511           05140                           TC       WAITLIST
000225: 20,3512  E6,1667                                  EBANK=   BUNKER
000226: 20,3512           03515 40066                     2CADR    HACKWLST
000227:
000228: 20,3514           13517                           TCF      +3
000229:
000230: 20,3515           34367        HACKWLST           CAF      TCTSKOVR                              #  ENTRY FROM WAITLIST
000231: 20,3516           55667                           TS       BUNKER                                #  BUNKER IS TC TASKOVER
000232:
000233: 20,3517           31614                           CA       STROKER                               #  STROKE
000234: 20,3520           26054                           ADS      TVCPITCH
000235:
000236: 20,3521           34700                           CAF      BIT11                                 #  RELEASE THE ERROR COUNTERS
000237: 20,3522           00006                           EXTEND
000238: 20,3523           05014                           WOR      CHAN14
000239: 20,3524           25665                           INCR     CADDY                                 #  COUNT DOWN THE NO. BURSTS, THIS SLOPE


000241: 20,3525           41665                           CS       CADDY
000242: 20,3526           00006                           EXTEND
000243: 20,3527           63531                           BZMF     +2
000244: 20,3530           01667                           TC       BUNKER                                #  EXIT, WHILE ON A SLOPE
000245: 20,3531           11670                           CCS      REVS
000246: 20,3532           13552                           TCF      REVUP                                 #  POSITIVE REVS
000247: 20,3533           13556                           TCF      REVUP      +4                         #  FINAL REVERSAL, THIS SET
000248:
000249: 20,3534           25671                           INCR     CARD                                  #  NEGATIVE REVS SET LAST PASS, READY FOR
000250: 20,3535           41671                           CS       CARD                                  #        THE NEXT SET.  CHECK IF NO MORE SETS
000251: 20,3536           00006                           EXTEND
000252: 20,3537           13550                           BZF      STROKILL                              #  ALL SETS COMPLETED
000253:
000254: 20,3540           51671                           INDEX    CARD
000255: 20,3541           33503                           CAF      FCARD      +4                         #  PICK UP NO. REVERSALS (-), NEXT SET
000256: 20,3542           55670                           TS       REVS                                  #  REINITIALIZE
000257: 20,3543           51671                           INDEX    CARD
000258: 20,3544           43506                           CS       FCARD      +7                         #  PICK UP NO. BURSTS IN 1/2AMP, NEXT SET
000259: 20,3545           55666                           TS       N                                     #  REINITIALIZE
000260: 20,3546           55665                           TS       CADDY
000261: 20,3547           01667                           TC       BUNKER                                #  EXIT, AT END OF SET
000262: 20,3550           55614        STROKILL           TS       STROKER                               #  RESET (TO +0) TO END TEST
000263: 20,3551           01667                           TC       BUNKER                                #  EXIT, STROKE TEST FINIS
000264: 20,3552           55670        REVUP              TS       REVS                                  #  ALL REVERSALS EXCEPT LAST OF SET
000265: 20,3553           31666                           CA       N
000266: 20,3554           60000                           DOUBLE                                         #  2 X 1/2AMP
000267: 20,3555           13561                           TCF      +4
000268:
000269: 20,3556           44712                 +4        CS       ONE                                   #  FINAL REVERSAL, THIS SET
000270: 20,3557           55670                           TS       REVS                                  #  PREPARE TO BRANCH TO NEW BURST
000271: 20,3560           31666                           CA       N                                     #  JUST RETURN TO ZERO, FINAL SLOPE OF SET
000272: 20,3561           55665                           TS       CADDY                                 #  CADUP
000273:
000274: 20,3562           41614                           CS       STROKER                               #  CHANGE SIGN OF SLOPE
000275: 20,3563           55614                           TS       STROKER
000276: 20,3564           01667                           TC       BUNKER                                #  EXIT AT A REVERSAL (SLOPE CHANGE)

End of include-file TVCSTROKETEST.agc.  Parent file is MAIN.agc


