
Source Code
000001:                                                                                                 #  Copyright:     Public domain.
000002:                                                                                                 #  Filename:      TVCSTROKETEST.agc
000003:                                                                                                 #  Purpose:       Part of the source code for Colossus, build 249.
000004:                                                                                                 #                 It is part of the source code for the Command Module's (CM)
000005:                                                                                                 #                 Apollo Guidance Computer (AGC), possibly for Apollo 8 and 9.
000006:                                                                                                 #  Assembler:     yaYUL
000007:                                                                                                 #  Reference:     Starts on p. 947 of 1701.pdf.
000008:                                                                                                 #  Contact:       Ron Burkey <info@sandroid.org>.
000009:                                                                                                 #  Website:       www.ibiblio.org/apollo/index.html
000010:                                                                                                 #  Mod history:   08/23/04 RSB.   Began transcribing.
000011:                                                                                                 #                 05/14/05 RSB    Corrected website reference above.
000012:
000013:                                                                                                 #  The contents of the "Colossus249" files, in general, are transcribed
000014:                                                                                                 #  from a scanned document obtained from MIT's website,
000015:                                                                                                 #  http://hrst.mit.edu/hrs/apollo/public/archive/1701.pdf.  Notations on this
000016:                                                                                                 #  document read, in part:
000017:
000018:                                                                                                 #         Assemble revision 249 of AGC program Colossus by NASA
000019:                                                                                                 #         2021111-041.  October 28, 1968.
000020:
000021:                                                                                                 #         This AGC program shall also be referred to as
000022:                                                                                                 #                                 Colossus 1A
000023:
000024:                                                                                                 #         Prepared by
000025:                                                                                                 #                         Massachussets Institute of Technology
000026:                                                                                                 #                         75 Cambridge Parkway
000027:                                                                                                 #                         Cambridge, Massachusetts
000028:                                                                                                 #         under NASA contract NAS 9-4065.
000029:
000030:                                                                                                 #  Refer directly to the online document mentioned above for further information.
000031:                                                                                                 #  Please report any errors (relative to 1701.pdf) to info@sandroid.org.
000032:
000033:                                                                                                 #  In some cases, where the source code for Luminary 131 overlaps that of
000034:                                                                                                 #  Colossus 249, this code is instead copied from the corresponding Luminary 131
000035:                                                                                                 #  source file, and then is proofed to incorporate any changes.
000036:
000037:                                                                                                 #  Page 947
000038:                                                                                                 #  NAME           STROKE TEST PACKAGE             (INCLUDING INITIALIZATION PACKAGE)
000039:                                                                                                 #  ORIGINAL CODING BY OLSSON                      LOG SECTION....STROKE TEST PACKAGE
000040:                                                                                                 #  MOD BY ENGEL                                   DATE....21 MARCH, 1967
000041:
000042:                                                                                                 #  FUNCTIONAL DESCRIPTION....
000043:                                                                                                 #         STROKE TEST PACKAGE GENERATES A WAVEFORM DESIGNED TO EXCITE BENDING
000044:                                                                                                 #         STRKTSTI (STROKE TEST INITIALIZATION) IS CALLED AS A JOB BY VB68.
000045:                                                                                                 #                 IT INITIALIZES ALL ERASABLES REQD FOR A STROKE TEST, AND
000046:                                                                                                 #                 THEN TESTS FOR AN 80MS DAP.  IF 80MS IT SETS STROKER = ESTROKER
000047:                                                                                                 #                 FOR AN IMMEDIATE STROKE TEST, OTEHRWISE IT MERELY ENABLES
000048:                                                                                                 #                 A STROKE TEST BY SETTING STROKER TO -0.  THE STROKE TEST
000049:                                                                                                 #                 THEN AWAITS SWITCHOVER TO THE 80MS DAP WHEREUPON IT IS
000050:                                                                                                 #                 ENABLED AFTER AN ADDITIONAL 4 SECOND DELAY TO AVOID
000051:                                                                                                 #                 THE SWITCHOVER TRANSIENTS (SEE STRKCALL, STRKUP IN
000052:                                                                                                 #                 TVCEXECUTIVE)
000053:                                                                                                 #         HACK (STROKE TEST) GENERATES THE WAVEFORM BY DUMPING PULSE BURSTS
000054:                                                                                                 #                 OF PROPER SIGN AND IN PROPER SEQUENCE DIRECTLY INTO
000055:                                                                                                 #                 TVCPITCH, WORKING IN CONJUNCITON WITH BOTH PITCH AND YAW
000056:                                                                                                 #                 TVC DAPS, WITH INTERMEDIAT WAITLIST CALLS.  NOTE, HOWEVER
000057:                                                                                                 #                 THAT THE STROKE TEST IS PERFORMED ONLY IN THE PITCH AXIS.
000058:                                                                                                 #                 AN EXAMPLE WAVEFORM IS GIVEN BELOW, TO DEMONSTRATE STROKE-
000059:                                                                                                 #                 TEST PARAMETER SELECTION.
000060:                                                                                                 #         RESTARTS CAUSE TEST TO BE TERMINATED.  ANOTHER V68 REQD IF TEST
000061:                                                                                                 #                 IS TO BE RE-RUN.
000062:                                                                                                 #         PULSE BURST SIZE IS PAD-LOADED (ESTROKER) SO THAT AMPLITUDE OF
000063:                                                                                                 #                 WAVEFORM CAN BE CHANGED.  THERE ARE TEN PULSE BURSTS IN
000064:                                                                                                 #                 THE HALF-AMPLITUDE OF THE FIRST FREQUENCY SET IN THE
000065:                                                                                                 #                 STANDARD WAVEFORM.  AMPLITUDE IS 10(ESTROKER)(1/42.15),
000066:                                                                                                 #                 NOMINALLY 50/42.15 = 1.185 DEG
000067:
000068:                                                                                                 #  CALLING SEQUENCE....
000069:                                                                                                 #         EXTENDED VERB 68 SETS UP STRKTSTI JOB
000070:                                                                                                 #         PITCH AND YAW TVCDAPS, FINDING STROKER NON-ZERO, DO A "TC HACK"
000071:                                                                                                 #         AN INTERNALLY-GENERATED WAITLIST CALL ENTERS AT "HACKWLST"
000072:
000073:                                                                                                 #  NORMAL EXIT MODES....
000074:                                                                                                 #         TC BUNKER ("Q" IF ENTRY FROM DAP, "TCTSKOVR" IF FROM WAITLIST) LIST
000075:
000076:                                                                                                 #  SUBROUTINES CALLED....
000077:                                                                                                 #         WAITLIST
000078:
000079:                                                                                                 #  ALARM OR ABORT EXIT MODES....
000080:                                                                                                 #         NONE
000081:
000082:                                                                                                 #  ERASABLE INITIALIZATION REQUIRED....
000083:                                                                                                 #         ESTROKER (PAD-LOAD)
000084:                                                                                                 #         STROKER, CADDY, REVS, CARD, N
000085:
000086:                                                                                                 #  OUTPUT....
000087:                                                                                                 #         STRKTSTI....INITIALIZATION FOR STROKE TEST
000088:                                                                                                 #         HACK, HACKWLST....PULSE BURSTS INTO TVCPITCH VIA "ADS"
000089:                                                                                                 #                           RESETS STROKER = +0 WHEN TEST COMPLETED
000090:
000091:                                                                                                 #  DEBRIS....
000092:                                                                                                 #         N = CADDY = +0, CARD = -0, REVS = -1
000093:                                                                                                 #         BUNKER
000094:                                                                                                 #  Page 948
000095:
000096:                                                                                                 #  EXAMPLE STROKE TEST WAVE FORM, DEMONSTRATING PARAMETER SELECTION
000097:                                                                                                 #  NOTE....THIS IS NOT THE OFFICIAL WAVEFORM....
000098:
000099:                                                                                                 #         **              **
000100:                                                                                                 #         **              **
000101:                                                                                                 #         **              **              EXAMPLE WAVEFORM (EACH * REPRESENTS
000102:                                                                                                 #        *  *            *  *               (85.41 ARCSEC OF ACTUATOR CMD)
000103:                                                                                                 #        *  *            *  *
000104:                                                                                                 #        *  *            *  *
000105:                                                                                                 #       *    *          *    *          **      **      **      **      **
000106:                                                                                                 #       *    *          *    *          **      **      **      **      **
000107:                                                                                                 #       *    *          *    *          **      **      **      **      **
000108:                                                                                                 #      *      *        *      *        *  *    *  *    *  *    *  *    *  *    **  **  **  **  **
000109:                                                                                                 #      *      *        *      *        *  *    *  *    *  *    *  *    *  *    **  **  **  **  **
000110:                                                                                                 #      *      *        *      *        *  *    *  *    *  *    *  *    *  *    **  **  **  **  **
000111:                                                                                                 #  ----------------------------------------------------------------------------------------------------
000112:                                                                                                 #              *      *        *      *    *  *    *  *    *  *    *  *    *  *  **  **  **  **  **
000113:                                                                                                 #              *      *        *      *    *  *    *  *    *  *    *  *    *  *  **  **  **  **  **
000114:                                                                                                 #              *      *        *      *    *  *    *  *    *  *    *  *    *  *  **  **  **  **  **
000115:                                                                                                 #               *    *          *    *      **      **      **      **      **
000116:                                                                                                 #               *    *          *    *      **      **      **      **      **
000117:                                                                                                 #               *    *          *    *      **      **      **      **      **
000118:                                                                                                 #                *  *            *  *
000119:                                                                                                 #                *  *            *  *
000120:                                                                                                 #                *  *            *  *
000121:                                                                                                 #                 **              **
000122:                                                                                                 #                 **              **
000123:                                                                                                 #                 **              **
000124:
000125:                                                                                                 #  FOR THIS (UNOFFICIAL, EXAMPLE) WAVEFORM, THE REQUIRED PARAMETERS ARE AS FOLLOWS....
000126:
000127:                                                                                                 #         FCARD    = +3           (NUMBER OF SETS)
000128:                                                                                                 #         ESTROKER = +3           (PULSE BURST SIZE, SC.AT 85.41 ARCSEC/BIT)
000129:
000130:                                                                                                 #         SET1:
000131:                                                                                                 #                 FREVS   = +3    (NUMBER REVERSALS MINUS 1)
000132:                                                                                                 #                 FCADDY  = +4    (NUMBER OF PULSE BURSTS IN 1/2 AMPLITUDE)
000133:                                                                                                 #         SET2:
000134:                                                                                                 #                 FCARD1  = +9    (NUMBER REVERSALS MINUS 1)
000135:                                                                                                 #                 FCARD4  = +2    (NUMBER OF PULSE BURSTS IN 1/2 AMPLITUDE)
000136:                                                                                                 #         SET3:
000137:                                                                                                 #                 FCARD2  = +9    (NUMBER REVERSALS MINUS 1)
000138:                                                                                                 #                 FCARD5  = +1    (NUMBER OF PULSE BURSTS IN 1/2 AMPLITUDE)
000139:                                                                                                 #         SET4:
000140:                                                                                                 #                 FCARD3  = +0    (NUMBER OF REVERSALS MINUS 1)
000141:                                                                                                 #                 FCARD6  = +0    (NUMBER OF PULSE BURSTS IN 1/2 AMPLUTUDE)
000142:
000143:                                                                                                 #  Page 949
000144:                                                                                                 #  STROKE TEST INITIALIZATION PACKAGE (AS A JOB, FROM VERB 68)
000145:
000146: 17,2213                                          BANK     17
000147: 20,2000                                          SETLOC   DAPS2
000148: 20,2000                                          BANK
000149:
000150: 20,3446                                          COUNT*   $$/STRK
000151: 20,3446  E6,1665                                 EBANK=   CADDY
000152:
000153: 20,3446           03465        STRKTSTI          TCR      TSTINIT                               #  STROKE TEST INITIALIZATION PKG (CALLED
000154:                                                                                                 #  AS A JOB BY VERB68)
000155:
000156: 20,3447           00004        TVCDTCHK          INHINT                                         #  STROKE TEST PERMITTED ONLY WITH 80MS DAP
000157: 20,3450           31635                          CAE      T5TVCDT                               #         CHECK CURRENT TIMING
000158: 20,3451           54001                          TS       L
000159: 20,3452           37677                          CAF      OCT37774                              #         LOOK FOR 80MS (T5)
000160: 20,3453           00006                          EXTEND
000161: 20,3454           06001                          RXOR     LCHAN                                 #  +0 IF 80MS
000162: 20,3455           10000                          CCS      A
000163: 20,3456           13462                          TCF      +4                                    #         NOT 80MS
000164:
000165: 20,3457           31412                          CAE      ESTROKER                              #         80MS.  OK, SET STROKER FOR TEST
000166: 20,3460           55614                          TS       STROKER
000167: 20,3461           13464                          TCF      +3
000168:
000169: 20,3462           44714                          CS       ZERO                                  #         ENABLE, BUT DO NOT ACTIVATE STROKE
000170: 20,3463           55614                          TS       STROKER                               #                 TEST, AWAITING SWITCHOVER
000171:                                                                                                 #                 TO MOD0R (MOD80)
000172: 20,3464           15112                          TCF      ENDOFJOB
000173: 20,3465           43475        TSTINIT           CS       FCADDY                                #  NORMAL ENTRY FROM STRKTSTI
000174: 20,3466           55665                          TS       CADDY
000175: 20,3467           55666                          TS       N                                     #         NOTE SGN CHNG FCADDY(+) TO CADDY(-)
000176:
000177: 20,3470           33476                          CAF      FREVS
000178: 20,3471           55670                          TS       REVS
000179:
000180: 20,3472           43477                          CS       FCARD                                 #         NOTE SGN CHNG FCARD(+) TO CARD(-)
000181: 20,3473           55671                          TS       CARD
000182:
000183: 20,3474           00002                          TC       Q                                     #  RETURN TO STRKTSTI+1 (OR CHKSTRK+2 OR +4)
000184:
000185:                                                                                                 #  Page 950
000186:                                                                                                 #  THE OFFICIAL STROKE TEST WAVEFORM (3 JAN, 1967) CONSISTS OF FOUR STROKE SETS, AS FOLLOWS....
000187:
000188:                                                                                                 #         SET 1...10 BURSTS IN 1/2 AMP,   4 REVERSALS
000189:                                                                                                 #         SET 2... 6 BURSTS IN 1/2 AMP,   6 REVERSALS
000190:                                                                                                 #         SET 3... 5 BURSTS IN 1/2 AMP,  10 REVERSALS
000191:                                                                                                 #         SET 4... 4 BURSTS IN 1/2 AMP,  14 REVERSALS
000192:
000193:                                                                                                 #  THE PULSE BURST SIZE (ESTROKER) IS PAD-LOADED (5 BITS AS OF 3 JAN, 1967)
000194:                                                                                                 #  THE REMAINING WAVEFORM-GENERATING PARAMETERS ARE AS FOLLOWS....
000195:
000196: 20,3475           00012        FCADDY            DEC      10         B-14                       #  NO. PULSE BURSTS IN 1/2 AMP, SET1..(+10)
000197: 20,3476           00003        FREVS             DEC      3          B-14                       #  NO. REVERSALS MINUS 1, SET1........(  3)
000198: 20,3477           00004        FCARD             DEC      4          B-14                       #  NO. STROKE SETS....................(+ 4)
000199: 20,3500           00005        FCARD1            DEC      5          B-14                       #  NO. REVERSALS MINUS 1, SET2........(  5)
000200: 20,3501           00011        FCARD2            DEC      9          B-14                       #                             3........(  9)
000201: 20,3502           00015        FCARD3            DEC      13         B-14                       #                            4........( 13)
000202: 20,3503           00006        FCARD4            DEC      6          B-14                       #  NO. PULSE BURSTS IN 1/2 AMP, SET2..(+ 6)
000203: 20,3504           00005        FCARD5            DEC      5          B-14                       #                                  3..(+ 5)
000204: 20,3505           00004        FCARD6            DEC      4          B-14                       #                                  4..(+ 4)
000205:
000206: 20,3506     4711               20MS              =        BIT2
000207:
000208:                                                                                                 #  STROKE TEST PACKAGE PROPER....
000209:
000210: 20,3506  E6,1667                                 EBANK=   BUNKER
000211:
000212: 20,3506           00006        HACK              EXTEND                                         #  ENTRY (IN T5 RUPT) FROM TVCDAPS
000213: 20,3507           23667                          QXCH     BUNKER                                #  SAVE Q FOR DAP RETURN
000214:
000215: 20,3510           34711                          CAF      20MS                                  #  2DAPSx2(PASSES/DAP)x2(CS/PASS)=8CS=TVCDT
000216: 20,3511           05140                          TC       WAITLIST
000217: 20,3512  E6,1667                                 EBANK=   BUNKER
000218: 20,3512           03515 40066                    2CADR    HACKWLST
000219:
000220: 20,3514           13517                          TCF      +3
000221:
000222: 20,3515           34367        HACKWLST          CAF      TCTSKOVR                              #  ENTRY FROM WAITLIST
000223: 20,3516           55667                          TS       BUNKER                                #  BUNKER IS TC TASKOVER
000224:
000225: 20,3517           31614                          CA       STROKER                               #  STROKE
000226: 20,3520           26054                          ADS      TVCPITCH
000227:
000228: 20,3521           34700                          CAF      BIT11                                 #  RELEASE THE ERROR COUNTERS
000229: 20,3522           00006                          EXTEND
000230: 20,3523           05014                          WOR      CHAN14
000231: 20,3524           25665                          INCR     CADDY                                 #  COUNT DOWN THE NO. BURSTS, THIS SLOPE
000232:                                                                                                 #  Page 951
000233: 20,3525           41665                          CS       CADDY
000234: 20,3526           00006                          EXTEND
000235: 20,3527           63531                          BZMF     +2
000236: 20,3530           01667                          TC       BUNKER                                #  EXIT, WHILE ON A SLOPE
000237: 20,3531           11670                          CCS      REVS
000238: 20,3532           13552                          TCF      REVUP                                 #  POSITIVE REVS
000239: 20,3533           13556                          TCF      REVUP      +4                         #  FINAL REVERSAL, THE SET
000240:
000241: 20,3534           25671                          INCR     CARD                                  #  NEGATIVE REVS SET LAST PASS, READY FOR
000242: 20,3535           41671                          CS       CARD                                  #         THE NEXT SET.  CHECK IF NO MORE SETS
000243: 20,3536           00006                          EXTEND
000244: 20,3537           13550                          BZF      STROKILL                              #  ALL SETS COMPLETED
000245:
000246: 20,3540           51671                          INDEX    CARD
000247: 20,3541           33503                          CAF      FCARD      +4                         #  PICK UP NO. REVERSALS (-), NEXT SET
000248: 20,3542           55670                          TS       REVS                                  #  REINITIALIZE
000249: 20,3543           51671                          INDEX    CARD
000250: 20,3544           43506                          CS       FCARD      +7                         #  PICK UP NO. BURSTS IN 1/2AMP, NEXT SET
000251: 20,3545           55666                          TS       N                                     #  REINITIALIZE
000252: 20,3546           55665                          TS       CADDY
000253: 20,3547           01667                          TC       BUNKER                                #  EXIT, AT END OF SET
000254: 20,3550           55614        STROKILL          TS       STROKER                               #  RESET (TO +0) TO END TEST
000255: 20,3551           01667                          TC       BUNKER                                #  EXIT, STROKE TEST FINIS
000256: 20,3552           55670        REVUP             TS       REVS                                  #  ALL REVERSALS EXCEPT LAST OF SET
000257: 20,3553           31666                          CA       N
000258: 20,3554           60000                          DOUBLE                                         #  2 x 1/2AMP
000259: 20,3555           13561                          TCF      +4
000260:
000261: 20,3556           44712                 +4       CS       ONE                                   #  FINAL REVERSAL, THIS SET
000262: 20,3557           55670                          TS       REVS                                  #  PREPARE TO BRANCH TO NEW BURST
000263: 20,3560           31666                          CA       N                                     #  JUST RETURN TO ZERO, FINAL SLOPE OF SET
000264: 20,3561           55665                          TS       CADDY                                 #  CADUP
000265:
000266: 20,3562           41614                          CS       STROKER                               #  CHANGE SIGN OF SLOPE
000267: 20,3563           55614                          TS       STROKER
000268: 20,3564           01667                          TC       BUNKER                                #  EXIT AT A REVERSAL (SLOPE CHANGE)
000269:

End of include-file TVCSTROKETEST.agc.  Parent file is MAIN.agc


