
Source Code
000001:                                                                                                 #  Copyright:     Public domain.
000002:                                                                                                 #  Filename:      UPDATE_PROGRAM.agc
000003:                                                                                                 #  Purpose:       Part of the source code for Colossus, build 249.
000004:                                                                                                 #                 It is part of the source code for the Command Module's (CM)
000005:                                                                                                 #                 Apollo Guidance Computer (AGC), possibly for Apollo 8 and 9.
000006:                                                                                                 #  Assembler:     yaYUL
000007:                                                                                                 #  Reference:     Starts at p. 1487 of 1701.pdf.
000008:                                                                                                 #  Contact:       Ron Burkey <info@sandroid.org>.
000009:                                                                                                 #  Website:       www.ibiblio.org/apollo/index.html
000010:                                                                                                 #  Mod history:   08/30/04 RSB.   Adapted from corresponding Luminary131 file.
000011:                                                                                                 #                 05/14/05 RSB    Corrected website reference above.
000012:
000013:                                                                                                 #  The contents of the "Colossus249" files, in general, are transcribed
000014:                                                                                                 #  from a scanned document obtained from MIT's website,
000015:                                                                                                 #  http://hrst.mit.edu/hrs/apollo/public/archive/1701.pdf.  Notations on this
000016:                                                                                                 #  document read, in part:
000017:
000018:                                                                                                 #         Assemble revision 249 of AGC program Colossus by NASA
000019:                                                                                                 #         2021111-041.  October 28, 1968.
000020:
000021:                                                                                                 #         This AGC program shall also be referred to as
000022:                                                                                                 #                                 Colossus 1A
000023:
000024:                                                                                                 #         Prepared by
000025:                                                                                                 #                         Massachussets Institute of Technology
000026:                                                                                                 #                         75 Cambridge Parkway
000027:                                                                                                 #                         Cambridge, Massachusetts
000028:                                                                                                 #         under NASA contract NAS 9-4065.
000029:
000030:                                                                                                 #  Refer directly to the online document mentioned above for further information.
000031:                                                                                                 #  Please report any errors (relative to 1701.pdf) to info@sandroid.org.
000032:
000033:                                                                                                 #  In some cases, where the source code for Luminary 131 overlaps that of
000034:                                                                                                 #  Colossus 249, this code is instead copied from the corresponding Luminary 131
000035:                                                                                                 #  source file, and then is proofed to incorporate any changes.
000036:
000037:                                                                                                 #  Page 1487
000038:                                                                                                 #  PROGRAM NAME:          P27
000039:                                                                                                 #  WRITTEN BY:            KILROY/ DE WOLF
000040:
000041:                                                                                                 #  MOD NO:                0
000042:                                                                                                 #  MOD BY:                KILROY
000043:                                                                                                 #  DATE:                  01DEC67
000044:
000045:                                                                                                 #  LOG SECTION:           UPDATE PROGRAM.
000046:
000047:                                                                                                 #  FUNCT. DESCR.: P27 (THE UPDATE PROGRAM) PROCESSES COMMANDS AND DATA
000048:                                                                                                 #                         INSERTIONS REQUESTED BY THE GROUND VIA UPLINK.
000049:                                                                                                 #                         THE P27 PROGRAM WILL ACCEPT UPDATES
000050:                                                                                                 #                         ONLY DURING P00 FOR THE LM, AND ONLY DURINT P00,
000051:                                                                                                 #                         P02, AND FRESH START FOR THE CSM.
000052:
000053:                                                                                                 #  CALLING SEQ:           PROGRAM IS INITIATED BY UPLINK ENTRY OF VERBS 70, 71, 72, AND 73.
000054:
000055:                                                                                                 #  SUBROUTINES:           TESTXACT, NEWMODEX, NEWMODEX +3, GOXDSPF, BANKCALL, FINDVAC, INTPRET, INTSTALL, TPAGREE,
000056:                                                                                                 #                         INTWAKEU, ENDEXT, POSTJUMP, FALTON, NEWPHASE, PHASCHNG
000057:
000058:                                                                                                 #  NORMAL EXIT:           TC ENDEXT
000059:
000060:                                                                                                 #  ALARM/ABORT:           TC FALTON FOLLOWED BY TC ENDEXT
000061:
000062:                                                                                                 #  RESTARTS:              P27 IS RESTART PROTECTED IN TWO WAYS ...
000063:                                                                                                 #                         1.      PRIOR TO VERIFLAG INVERSION (WHICH IS CAUSED BY THE GROUND/ASTRONAUT'S VERIFICATION OF UPDATE
000064:                                                                                                 #                                 DATA BY SENDING A V33E WHEN V21N02 IS FLASHING)---
000065:                                                                                                 #                                 NO PROTECTION EXCEPT PRE-P27 MODE IS RESTROED, COAST + ALIGN DOWNLIST IS SELECTED AND UPLINE
000066:                                                                                                 #                                 ACTIVITY LIGHT IS TURNED OFF.  (JUST AS IF A V34E WAS SENT DURING P27 DATA LOADS).
000067:                                                                                                 #                                 V70,V71,V72, OR V73 WILL HAVE TO BE COMPLETELY RESENT BY USER.
000068:                                                                                                 #                         2.      AFTER VERIFLAG INVERSION (WHEN UPDATE OF THE SPECIFIED ERASABLES IS BEING PERFORMED)---
000069:                                                                                                 #                                 PROTECTED AGAINST RESTARTS.
000070:
000071:                                                                                                 #  DEBRIS:                UPBUFF  (20D)   TEMP STORAGE FOR ADDRESSES AND CONTENTS.
000072:                                                                                                 #                         UPVERB  (1)     VERB NUMBER MINUS 70D (E.G., FOR V72, UPVERB = 72D - 70D = 2)
000073:                                                                                                 #                         UPOLDMOD(1)     FOR MAJOR MODE INTERRUPTED BY P27.
000074:                                                                                                 #                         COMPNUMB(1)     TOTAL NUMBER OF COMPONENTS TO BE TRANSMITTED.
000075:                                                                                                 #                         UPCOUNT (1)     ACTUAL NUMBER OF COMPONENTS RECEIVED.
000076:                                                                                                 #                         UPTEMP  (1)     SCRATCH, BUT USUALLY CONTAINS COMPONENT NUMBER TO BE CHANGED DURING VERIFY CYCLE.
000077:
000078:                                                                                                 #  INPUT:
000079:
000080:                                                                                                 #         ENTRY                   DESCRIPTION
000081:                                                                                                 #         V70EXXXXXEXXXXXE        (LIFTOFF TIME INCREMENT) DOUBLE PRECISION OCTAL TIME INCREMENT, XXXXX XXXXX,
000082:                                                                                                 #                                 IS ADDED TO TEPHEM, SUBTRACTED FROM AGC CLOCK(TIME2,TIME1), SUBTRACTED FROM CSM STATE
000083:                                                                                                 #                                 VECTOR TIME(TETCSM) AND SUBTRACTED FROM LEM STATE VECTOR TIME(TETLEM).
000084:                                                                                                 #                                 THE DP OCTAL TIME INCREMENT IS SCALED AT 2(28).
000085:                                                                                                 #  Page 1488
000086:                                                                                                 #         V71EIIEAAAAE            (CONTIGUOUS BLOCK UPDATE) II-2 OCTAL COMPONENTS, XXXXX,
000087:                                                                                                 #         XXXXXE                  ARE LOADED INTO ERASABLE STARTING AT ECADR, AAAA.
000088:                                                                                                 #         XXXXXE                  IT IS .GE. 3 .AND. .LE. 200.,
000089:                                                                                                 #         ...                     AND (AAAA + II -3) DOES NOT PRODUCE AN ADDRESS IN THE
000090:                                                                                                 #                                 NEXT BANK.  SCALING IS SAME AS INTERNAL REGISTERS.
000091:                                                                                                 #         V72EIIE                 (SCATTER UPDATE) (II-1)/2 OCTAL COMPONENTS, XXXXX, ARE
000092:                                                                                                 #         AAAAEXXXXXE             LOADED INTO ERASABLE LOCATIONS, AAAA.
000093:                                                                                                 #         AAAAEXXXXXE             II IS .GE. 3 .AND. .LE. 19D, AND MUST BE ODD.
000094:                                                                                                 #         ...                     SCALING IS SAME AS INTERNAL REGISTERS.
000095:
000096:                                                                                                 #         V73EXXXXXEXXXXXE        (OCTAL CLOCK INCREMENT) DOUBLE PRECISION OCTAL TIME
000097:                                                                                                 #                                 INCREMENT XXXXX XXXXX, IS ADDED TO THE AGC CLOCK, IN
000098:                                                                                                 #                                 CENTISECONDS SCALED AT (2)28).
000099:                                                                                                 #                                 THIS LOAD IS THE OCTAL EQUIVALENT OF V55.
000100:
000101:                                                                                                 #  OUTPUT:                IN ADDITION TO THE ABOVE REGISTER LOADS, ALL UPDATES
000102:                                                                                                 #                         COMPLEMENT BIT3 OF FLAGWORD7.
000103:
000104:                                                                                                 #  ADDITIONAL NOTES:      VERB 71, JUST DEFINED ABOVE WILL BE USED TO PERFORM BUT NOT LIMITED TO THE FOLLOWING UPDATES --
000105:                                                                                                 #                         1.  CSM/LM STATE VECTOR UPDATE
000106:                                                                                                 #                         2.  REFSMMAT UPDATE
000107:
000108:                                                                                                 #         THE FOLLOWING COMMENTS DELINEATE EACH SPECIAL UPDATE ---
000109:
000110:                                                                                                 #         1.  CSM/LM STATE VECTOR UPDATE (ALL DATA ENTRIES IN OCTAL)
000111:                                                                                                 #                 ENTRIES:        DATA DEFINITION:                                SCALE FACTORS:
000112:                                                                                                 #                 V71E            CONTIGUOUS BLOCK UPDATE VERB
000113:                                                                                                 #                    21E          NUMBER OF COMPONENTS FOR STATE VECTOR UPDATE
000114:                                                                                                 #                  AAAAE          ECADR OF `UPSVFLAG'
000115:                                                                                                 #                 XXXXXE          STATE VECTOR IDENTIFIER: 00001 FOR CSM, 77776 FOR LEM -- EARTH SPHERE OF INFLUENCE SCALING
000116:                                                                                                 #                                                          00002 FOR CSM, 77775 FOR LEM -- LUNAR SPHERE OF INFLUENCE SCALING
000117:                                                                                                 #                 XXXXXEXXXXXE    X POSITION
000118:                                                                                                 #                 XXXXXEXXXXXE    Y POSITION
000119:                                                                                                 #                 XXXXXEXXXXXE    Z POSITION
000120:                                                                                                 #                 XXXXXEXXXXXE    X VELOCITY
000121:                                                                                                 #                 XXXXXEXXXXXE    Y VELOCITY
000122:                                                                                                 #                 XXXXXEXXXXXE    Z VELOCITY
000123:                                                                                                 #                 XXXXXEXXXXXE    TIME FROM AGC CLOCK ZERO
000124:                                                                                                 #                 V33E            VERB 33 TO SIGNAL THAT THE STATE VECTOR IS READY TO BE STORED.
000125:
000126:                                                                                                 #         2.  REFSMMAT (ALL DATA ENTRIES IN OCTAL)
000127:                                                                                                 #                 ENTRIES         DATA DEFINITITIONS                              SCALE FACTORS:
000128:                                                                                                 #  Page 1489
000129:                                                                                                 #                 V71E            CONTIGUOUS BLOCK UPDATE VERB
000130:                                                                                                 #                    24E          NUMBER OF COMPONENTS FOR REFSMMAT UPDATE
000131:                                                                                                 #                  AAAAE          ECADR OF `REFSMMAT'
000132:                                                                                                 #                 XXXXXEXXXXXE    ROW 1 COLUMN 1                                  2(-1)
000133:                                                                                                 #                 XXXXXEXXXXXE    ROW 1 COLUMN 2                                  2(-1)
000134:                                                                                                 #                 XXXXXEXXXXXE    ROW 1 COLUMN 3                                  2(-1)
000135:                                                                                                 #                 XXXXXEXXXXXE    ROW 2 COLUMN 1                                  2(-1)
000136:                                                                                                 #                 XXXXXEXXXXXE    ROW 2 COLUMN 2                                  2(-1)
000137:                                                                                                 #                 XXXXXEXXXXXE    ROW 2 COLUMN 3                                  2(-1)
000138:                                                                                                 #                 XXXXXEXXXXXE    ROW 3 COLUMN 1                                  2(-1)
000139:                                                                                                 #                 XXXXXEXXXXXE    ROW 3 COLUMN 2                                  2(-1)
000140:                                                                                                 #                 XXXXXEXXXXXE    ROW 3 COLUMN 3                                  2(-1)
000141:                                                                                                 #                 V33E            VERB 33 TO SIGNAL THAT REFSMMAT IS READY TO BE STORED
000142:
000143: 07,3717                                          BANK     07
000144: 43,2000                                          SETLOC   EXTVERBS
000145: 43,2000                                          BANK
000146:
000147: 43,3722  E3,1706                                 EBANK=   TEPHEM
000148:
000149: 43,3722                                          COUNT*   $$/P27
000150: 43,3722           34714        V70UPDAT          CAF      UP70                                  #  COMES HERE ON V70E
000151: 43,3723           13731                          TCF      V73UPDAT   +1
000152:
000153: 43,3724           34712        V71UPDAT          CAF      UP71                                  #  COMES HERE ON V71E
000154: 43,3725           13731                          TCF      V73UPDAT   +1
000155:
000156: 43,3726           34711        V72UPDAT          CAF      UP72                                  #  COMES HERE ON V72E
000157: 43,3727           13731                          TCF      V73UPDAT   +1
000158:
000159: 43,3730           36214        V73UPDAT          CAF      UP73                                  #  COMES HERE ON V73E
000160:
000161: 43,3731           54331                 +1       TS       UPVERBSV                              #  SAVE UPVERB UNTIL IT'S OK TO ENTER P27
000162:
000163: 43,3732           02076                          TC       TESTXACT                              #  GRAB DISPLAY IF AVAILABLE, OTHERWISE
000164:                                                                                                 #  TURN *OPERATOR ERROR* ON AND TERMINATE EJOB
000165:
000166: 43,3733           31011                          CA       MODREG                                #  CHECK IF UPDATE ALLOWED
000167: 43,3734           00006                          EXTEND                                         #  FIRST CHECK FOR MODREG = +0, -0
000168: 43,3735           13737                          BZF      +2                                    #  (+0 = P00, -0 = FRESHSTART)
000169: 43,3736           03747                          TC       CKMDMORE                              #  NOW CHECK FOR PROGRAM WHICH CAN BE
000170:                                                                                                 #  INTERRUPTED BY P27.
000171:
000172: 43,3737           31011                          CAE      MODREG                                #  UPDATE ALLOWED
000173: 43,3740           54301                          TS       UPOLDMOD                              #  SAVE CURRENT MAJOR MODE
000174:                                                                                                 #  Page 1490
000175: 43,3741           30331                          CAE      UPVERBSV                              #  SET UPVERB TO INDICDATE TO P27
000176: 43,3742           54302                          TS       UPVERB                                #  WHICH EXTENDED VERB CALLED IT.
000177:
000178: 43,3743           34712                          CAF      ONE
000179: 43,3744           54303                          TS       UPCOUNT                               #  INITIALIZE UPCOUNT TO 1
000180:
000181: 43,3745           04574                          TC       POSTJUMP                              #  LEAVE EXTENDED VERB BANK AND
000182: 43,3746           57364                          CADR     UPPART2                               #  GO TO UPDATE PROGRAM (P27) BANK.
000183:
000184: 43,3747           40101        CKMDMORE          CS       FLAGWRD5
000185: 43,3750           74703                          MASK     BIT8                                  #  CHECK IF COMPUTER IS LGC
000186: 43,3751           10000                          CCS      A                                     #  IS COMPUER LGC OR AGC
000187: 43,3752           13760        UPERLEM           TCF      UPERROR                               #  ERROR: IT'S THE LEM + MODE IS NOT P00.
000188: 43,3753           44711                          CS       TWO
000189: 43,3754           71011                          MASK     MODREG
000190: 43,3755           10000                          CCS      A
000191: 43,3756           13760        UPERCMC           TCF      UPERROR                               #  ERROR: IT'S THE CMC AND MODE IS NOT
000192:                                                                                                 #  P00 OR P02.
000193: 43,3757           00002                          TC       Q                                     #  ALLOW UPDATE TO PROCEED.
000194:
000195: 43,3760           04574        UPERROR           TC       POSTJUMP                              #  TURN ON 'OPERATOR ERROR' LIGHT
000196: 43,3761           57745                          CADR     UPERROUT   +2                         #  GO TO COMMON UPDATE PROGRAM EXIT
000197:
000198: 43,3762     4714               UP70              EQUALS   ZERO
000199: 43,3762     4712               UP71              EQUALS   ONE
000200: 43,3762     4711               UP72              EQUALS   TWO
000201: 43,3762     6214               UP73              EQUALS   THREE
000202:
000203: 04,3650                                          BANK     04
000204: 27,2000                                          SETLOC   UPDATE2
000205: 27,2000                                          BANK
000206:
000207: 27,3364                                          COUNT*   $$/P27
000208:
000209: 27,3364                        UPPART2           EQUALS                                         #  UPDATE PROGRAM -- PART 2
000210:
000211: 27,3364           05301                          TC       PHASCHNG                              #  SET RESTART GROUP 6 TO RESTORE OLD MODE
000212: 27,3365           07026                          OCT      07026                                 #  AND DOWNLIST AND EXIT IF RESTART OCCURS.
000213: 27,3366           30000                          OCT      30000                                 #  PRIORITY SAME AS CHRPRIO
000214: 27,3367     0304                                 EBANK=   UPBUFF
000215: 27,3367           03675 56100                    2CADR    UPOUT      +1
000216:
000217: 27,3371           34712                          CAF      ONE
000218: 27,3372           54332                          TS       DNLSTCOD                              #  DOWNLIST
000219:
000220: 27,3373           05243                          TC       NEWMODEX                              #  SET MAJOR MODE = 27
000221: 27,3374           00033                          DEC      27         B-14
000222:
000223:                                                                                                 #  Page 1491
000224: 27,3375           50302                          INDEX    UPVERB                                #  BRANCH DEPENDING ON WHETHER THE UPDATE
000225: 27,3376           13377                          TCF      +1                                    #  VERB REQUIRES A FIXED OR VARIABLE NUMBER
000226: 27,3377           13402                          TCF      +3                                    #  V70 FIXED                (OF COMPONENTS)
000227: 27,3400           13405                          TCF      OHWELL1                               #  V71 VARIABLE -- GO GET NO. OF COMPONENTS
000228: 27,3401           13405                          TCF      OHWELL1                               #  V72 VARIABLE -- GO GET NO. OF COMPONENTS
000229: 27,3402           34711                          CA       TWO                                   #  V73 (AND V70) FIXED
000230: 27,3403           54300                          TS       COMPNUMB                              #  SET NUMBER OF COMPONENTS TO 2.
000231: 27,3404           13430                          TCF      OHWELL2                               #  GO GET THE TWO UPDATE COMPONENTS
000232:
000233: 27,3405           33500        OHWELL1           CAF      ADUPBUFF                              #  * REQUEST USER TO SEND NUMBER *
000234: 27,3406           54156                          TS       MPAC       +2                         #  * OF COMPONENTS PARAMETER(II) *
000235: 27,3407           33501                 +2       CAF      UPLOADNV                              #  (CKV432 RETURNS HERE IF V32 ENCOUNTERED)
000236: 27,3410           04555                          TC       BANKCALL                              #  DISPLAY A FLASHING V21N01
000237: 27,3411           20465                          CADR     GOXDSPF                               #  TO REQUEST II.
000238: 27,3412           13675                          TCF      UPOUT4                                #  V32 TERMINATE UPDATE (P27) RETURN
000239: 27,3413           13407                          TCF      OHWELL1    +2
000240: 27,3414           03471                          TC       CK4V32                                #  DATA OR V32 RETURN
000241: 27,3415           44711                          CS       BIT2
000242: 27,3416           60304                          AD       UPBUFF                                #  IS II (NUMBER OF COMPONENTS PARAMETER)
000243: 27,3417           00006                          EXTEND                                         #  .GE. 3 AND .LE. 20D.
000244: 27,3420           63407                          BZMF     OHWELL1    +2
000245: 27,3421           40304                          CS       UPBUFF
000246: 27,3422           64376                          AD       UP21
000247: 27,3423           00006                          EXTEND
000248: 27,3424           63407                          BZMF     OHWELL1    +2
000249: 27,3425           30304                          CAE      UPBUFF
000250: 27,3426           54300                          TS       COMPNUMB                              #  SAVE II IN COMPNUMB
000251:
000252:                                                                                                 #  UPBUFF LOADING SEQUENCE
000253:
000254: 27,3427           24303                          INCR     UPCOUNT                               #  INCREMENT COUNT OF COMPONENTS RECEIVED.
000255: 27,3430           33645        OHWELL2           CAF      ADUPBFM1                              #  CALCULATE LOCATION (ECADR) IN UPBUFF
000256: 27,3431           60303                          AD       UPCOUNT                               #  WHERE NEXT COMPONENT SHOULD BE STORED
000257: 27,3432           54156                 +2       TS       MPAC       +2                         #  PLACE ECADR INTO R3.
000258: 27,3433           33501                 +3       CAF      UPLOADNV                              #  (CK4V32 RETURNS HERE IF V32 ENCOUNTERED)
000259: 27,3434           04555                          TC       BANKCALL                              #  DISPLAY A FLASHING V21N01
000260: 27,3435           20465                          CADR     GOXDSPF                               #  TO REQUEST DATA.
000261: 27,3436           13675                          TCF      UPOUT4                                #  V34 TERMINATE UPDATE (P27) RETURN.
000262: 27,3437           13433                          TCF      OHWELL2    +3                         #  V33 PROCEED RETURN
000263: 27,3440           03471                          TC       CK4V32                                #  DATA OR V32 RETURN
000264: 27,3441           40303                          CS       UPCOUNT                               #  HAVE WE FINISHED RECEIVING ALL
000265: 27,3442           60300                          AD       COMPNUMB                              #  THE DATA WE EXPECTED.
000266: 27,3443           00006                          EXTEND
000267: 27,3444           63446                          BZMF     UPVERIFY                              #  YES -- GO TO VERIFICATION SEQUENCE
000268: 27,3445           13427                          TCF      OHWELL2    -1                         #  NO -- REQUEST ADDITIONAL DATA.
000269:
000270:                                                                                                 #  VERIFY SEQUENCE
000271:                                                                                                 #  Page 1492
000272: 27,3446           33477        UPVERIFY          CAF      ADUPTEMP                              #  PLACE ECADR WHERE COMPONENT NO. INDEX
000273: 27,3447           54156                          TS       MPAC       +2                         #  IS TO BE STORED INTO R3.
000274: 27,3450           33502                          CAF      UPVRFYNV                              #  (CK4V32 RETURNS HERE IF V32 ENCOUNTERED)
000275: 27,3451           04555                          TC       BANKCALL                              #  DISPLAY A FLASHING V21N02 TO REQUEXT
000276: 27,3452           20465                          CADR     GOXDSPF                               #  DATA CORRECTION OR VERIFICATION.
000277: 27,3453           13675                          TCF      UPOUT4                                #  V34 TERMINATE UPDATE (P27) RETURN
000278: 27,3454           13503                          TCF      UPSTORE                               #  V33 DATA SENT IS GOOD.  GO STORE IT.
000279: 27,3455           03471                          TC       CK4V32                                #  COMPONENT NO. INDEX OR V32 RETURN
000280: 27,3456           30330                          CA       UPTEMP                                #  DOES THE COMPONENT NO. INDEX JUST SEND
000281: 27,3457           00006                          EXTEND                                         #  SPECIFY A LEGAL COMPONENT NUMBER?
000282: 27,3460           63446                          BZMF     UPVERIFY                              #  NO, IT IS NOT POSITIVE NONZERO
000283: 27,3461           40330                          CS       UPTEMP
000284: 27,3462           60300                          AD       COMPNUMB
000285: 27,3463           64712                          AD       BIT1
000286: 27,3464           00006                          EXTEND
000287: 27,3465           63446                          BZMF     UPVERIFY                              #  NO
000288: 27,3466           33645                          CAF      ADUPBFM1                              #  YES -- BASED ON THE COMPONENT NO. INDEX
000289: 27,3467           60330                          AD       UPTEMP                                #  CALCULATE THE ECADR OF LOCATION IN
000290: 27,3470           13432                          TCF      OHWELL2    +2                         #  UPBUFF WHICH USER WANTS TO CHANG.
000291:
000292: 27,3471  27,3675               UPOUT4            EQUALS   UPOUT      +1                         #  COMES HERE ON V34 TC TERMINATE UPDATE.
000293:
000294:                                                                                                 #  CHECK FOR VERB 32 SEQUENCE
000295:
000296: 27,3471           40154        CK4V32            CS       MPAC                                  #  ON DATA RETURN FROM `GOXDSPF'
000297: 27,3472           74705                          MASK     BIT6                                  #  ON DATA RETURN FROM "GOXDSP" & THE CON-
000298: 27,3473           10000                          CCS      A                                     #  TENTS OF MPAC = VERB.  SO TEST FOR V32.
000299: 27,3474           00002                          TC       Q                                     #  IT'S NOT A V32, IT'S DATA.  PROCEED.
000300: 27,3475           50002                          INDEX    Q
000301: 27,3476           77771                          TC       0          -6                         #  V32 ENCOUNTERED -- GO BACK AND GET DATA
000302:
000303: 27,3477           00330        ADUPTEMP          ADRES    UPTEMP                                #  ADDRESS OF TEMP STORAGE FOR CORRECTIONS
000304: 27,3500           00304        ADUPBUFF          ADRES    UPBUFF                                #  ADDRESS OF UPDATE DATA STORAGE BUFFER
000305: 27,3501           05201        UPLOADNV          VN       2101                                  #  VERB 21 NOUN 01
000306: 27,3502           05202        UPVRFYNV          VN       2102                                  #  VERB 21 NOUN 02
000307: 27,3503     4376               UP21              =        MD1                                   #  DEC 21 = MAX NO OF COMPONENTS +1
000308: 27,3503     4715               UPDTPHAS          EQUALS   FIVE
000309:
000310:                                                                                                 #  PRE-STORE AND FAN TO APPROPRIATE BRANCH SEQUENCE
000311:
000312: 27,3503                        UPSTORE           EQUALS                                         #  GROUND HAS VERIFIED UPDATE.  STORE DATA.
000313:
000314: 27,3503           00004                          INHINT
000315:
000316: 27,3504           30103                          CAE      FLAGWRD7                              #  INVERT VERIFLAG (BIT 3 OF FLAGWRD7) TO
000317: 27,3505           56001                          XCH      L                                     #  INDICATE TO THE GROUND (VIA DOWNLINK)
000318: 27,3506           34710                          CAF      BIT3                                  #  THAT THE V33 (WHICH THE GROUND SENT TO
000319: 27,3507           00006                          EXTEND                                         #  VERIFY THE UPDATE) HAS BEEN SUCCESSFULLY
000320: 27,3510           06001                          RXOR     LCHAN                                 #  RECEIVED BY THE UPDATE PROGRAM
000321:                                                                                                 #  Page 1493
000322: 27,3511           54103                          TS       FLAGWRD7
000323:
000324: 27,3512           05301                          TC       PHASCHNG                              #  SET RESTART GROUP 6 TO REDO THE UPDATE
000325: 27,3513           04026                          OCT      04026                                 #  DATA STORE IF A RESTART OCCURS.
000326: 27,3514           00004                          INHINT                                         #  (BECAUSE PHASCHNG DID A RELINT)
000327:
000328: 27,3515           44711                          CS       TWO                                   #  GO TO UPFNDVAC IF INSTALL IS REQUIRED.
000329: 27,3516           60302                          AD       UPVERB                                #  THAT IS, IF IT'S A V70 - V72.
000330: 27,3517           00006                          EXTEND                                         #  GO TO UPEND73 IF IT'S A V73.
000331: 27,3520           63527                          BZMF     UPFNDVAC
000332:
000333:                                                                                                 #  VERB 73 BRANCH
000334:
000335: 27,3521           00006        UPEND73           EXTEND                                         #  V73 -- PERFORM DP OCTAL AGC CLOCK INCREMENT
000336: 27,3522           30305                          DCA      UPBUFF
000337: 27,3523           52315                          DXCH     UPBUFF     +8D
000338: 27,3524           03552                          TC       TIMEDIDL
000339: 27,3525           04400                          TC       FALTON                                #  ERROR -- TURN ON *OPERATOR ERROR* LIGHT
000340: 27,3526           03675                          TC       UPOUT      +1                         #  GO TO COMMON UPDATE PROGRAM EXIT
000341:
000342: 27,3527           34371        UPFNDVAC          CAF      CHRPRIO                               #  (USE EXTENDED VERB PRIORITY)
000343: 27,3530           05042                          TC       FINDVAC                               #  GET VAC AREA FOR `CALL INTSTALL'
000344: 27,3531  E3,1706                                 EBANK=   TEPHEM
000345: 27,3531           03534 56103                    2CADR    UPJOB                                 #  (NOTE:  THIS WILL ALSO SET EBANK FOR
000346: 27,3533           05112                          TC       ENDOFJOB                              #  `TEPHEM' UPDATE BY V70)
000347:
000348: 27,3534           06006        UPJOB             TC       INTPRET                               #  THIS COULD BE A STATE VECTOR UPDATE -- SO
000349: 27,3535           77624                          CALL                                           #  WAIT (PUT JOB TO SLEEP) IF ORBIT INT(OI)
000350: 27,3536           27371                                   INTSTALL                              #  IS IN PROGRESS -- OR -- GRAB OI AND RETURN
000351:                                                                                                 #  TO UPWAKE IF OI IS NOT IN PROGRESS.
000352:
000353: 27,3537           77776        UPWAKE            EXIT
000354:
000355: 27,3540           05301                          TC       PHASCHNG                              #  RESTART PROTECT (GROUP 6)
000356: 27,3541           04026                          OCT      04026
000357:
000358: 27,3542           05435                          TC       UPFLAG                                #  SET INTEGRATION RESTART BIT
000359: 27,3543           00236                          ADRES    REINTFLG
000360: 27,3544           00004                          INHINT
000361: 27,3545                        UPPART3           EQUALS
000362:
000363: 27,3545           50302                          INDEX    UPVERB                                #  BRANCH TO THE APPROPRIATE UPDATE VERB
000364: 27,3546           13547                          TCF      +1                                    #  ROUTINE TO ACTUALLY PERFORM THE UPDATE
000365: 27,3547           13706                          TCF      UPEND70                               #  V70
000366: 27,3550           13615                          TCF      UPEND71                               #  V71
000367: 27,3551           13647                          TCF      UPEND72                               #  V72
000368:
000369:                                                                                                 #  ROUTINE TO INCREMENT CLOCK (TIME2,TIME1) WITH CONTENTS OF DP WORD AT UPBUFF.
000370:                                                                                                 #  Page 1494
000371: 27,3552           00006        TIMEDIDL          EXTEND
000372: 27,3553           22330                          QXCH     UPTEMP                                #  SAVE Q FOR RETURN
000373: 27,3554           34714                          CAF      ZERO                                  #  ZERO AND SAVE TIME2,TIME1
000374: 27,3555           22007                          ZL
000375: 27,3556           52025                          DXCH     TIME2
000376: 27,3557           52327                          DXCH     UPBUFF     +18D                       #  STORE IN CASE OF OVERFLOW
000377:
000378: 27,3560           34715                          CAF      UPDTPHAS                              #  SO
000379: 27,3561           54001                          TS       L                                     #  A
000380: 27,3562           40000                          COM                                            #  QUICK
000381: 27,3563           52765                          DXCH     -PHASE6                               #  PHASCHNG
000382:
000383: 27,3564           00004        TIMEDIDR          INHINT
000384: 27,3565           34714                          CAF      ZERO
000385: 27,3566           22007                          ZL                                             #  PICK UP INCRMENTER (AND ZERO
000386: 27,3567           54156                          TS       MPAC       +2                         #  IT IN CASE OF RESTARTS) AND
000387: 27,3570           52315                          DXCH     UPBUFF     +8D                        #  STORE IT
000388: 27,3571           52155                          DXCH     MPAC                                  #  INTO MPAC FOR TPAGREE.
000389:
000390: 27,3572           00006                          EXTEND
000391: 27,3573           30327                          DCA      UPBUFF     +18D
000392: 27,3574           20155                          DAS      MPAC                                  #  FORM SUM IN MPAC
000393: 27,3575           00006                          EXTEND
000394: 27,3576           13605                          BZF      DELTAOK                               #  TEST FOR OVERFLOW
000395: 27,3577           34714                          CAF      ZERO
000396: 27,3600           52327                          DXCH     UPBUFF     +18D                       #  OVERFLOW, RESTORE OLD VALUE OF CLOCK
000397: 27,3601           20025                          DAS      TIME2                                 #  AND TURN ON OPERATOR ERROR
000398:
000399: 27,3602           05301                          TC       PHASCHNG                              #  RESTART PROTECT (GROUP 6)
000400: 27,3603           04026                          OCT      04026
000401:
000402: 27,3604           00330                          TC       UPTEMP                                #  GO TO ERROR EXIT
000403:
000404: 27,3605           07226        DELTAOK           TC       TPAGREE                               #  FORCE SIGN AGREEMENT
000405: 27,3606           52155                          DXCH     MPAC
000406: 27,3607           20025                          DAS      TIME2                                 #  INCREMENT TIME2,TIME1
000407:
000408: 27,3610           05301                          TC       PHASCHNG                              #  RESTART PROTECT (GROUP 6)
000409: 27,3611           04026                          OCT      04026
000410:
000411: 27,3612           00004                          INHINT
000412: 27,3613           50330                          INDEX    UPTEMP                                #  (CODED THIS WAY FOR RESTART PROTECTION)
000413: 27,3614           00001                          TC       1                                     #  NORMAL RETURN
000414:
000415:                                                                                                 #  VERB 71 BRANCH
000416:
000417: 27,3615           30305        UPEND71           CAE      UPBUFF     +1                         #  SET EBANK
000418: 27,3616           54003                          TS       EBANK                                 #         AND
000419: 27,3617           74373                          MASK     LOW8                                  #  CALCULATE
000420: 27,3620           54330                          TS       UPTEMP                                #  S-REG VALUE OF RECEIVING AREA
000421:                                                                                                 #  Page 1495
000422: 27,3621           67714                          AD       NEG3                                  #  IN THE PROCESS OF
000423: 27,3622           60300                          AD       COMPNUMB                              #  PERFORMING
000424: 27,3623           00006                          EXTEND                                         #  THIS UPDATE
000425: 27,3624           13632                          BZF      STORLP71                              #  WILL WE
000426: 27,3625           74702                          MASK     BIT9                                  #  OVERFLOW
000427: 27,3626           10000                          CCS      A                                     #  INTO THE NEXT EBANK....
000428: 27,3627           13743                          TCF      UPERROUT
000429:
000430: 27,3630           37714                          CA       NEG3                                  #  NO -- CALCULATE NUMBER OF
000431: 27,3631           60300                          AD       COMPNUMB                              #  WORDS TO BE STORED MINUS ONE
000432: 27,3632           54154        STORLP71          TS       MPAC                                  #  SAVE NO. OF WORDS REMAINING MINUS ONE
000433: 27,3633           50000                          INDEX    A                                     #  TAKE NEXT UPDATE WORD FROM
000434: 27,3634           30306                          CA       UPBUFF     +2                         #  UPBUFF AND
000435: 27,3635           54001                          TS       L                                     #  SAVE IT IN L
000436: 27,3636           30154                          CA       MPAC                                  #  CALCULATE NEXT
000437: 27,3637           60330                          AD       UPTEMP                                #  RECEIVING ADDRESS
000438: 27,3640           50000                          INDEX    A
000439: 27,3641  E3,1400                                 EBANK=   1400
000440: 27,3641           23400                          LXCH     1400                                  #  UPDATE THE REGISTER BY CONTENTS OF L
000441: 27,3642  E3,1706                                 EBANK=   TEPHEM
000442: 27,3642           10154                          CCS      MPAC                                  #  ARE THERE ANY WORDS LEFT TO BE STORED
000443: 27,3643           13632                          TCF      STORLP71                              #  YES
000444: 27,3644           13674                          TCF      UPOUT                                 #  NO -- THEN EXIT UPDATE PROGRAM
000445: 27,3645           00303        ADUPBFM1          ADRES    UPBUFF     -1                         #  SAME AS ADUPBUFF BUT LESS 1 (DON'T MOVE)
000446: 27,3646           13674                          TCF      UPOUT                                 #  NO -- EXIT UPDATE (HERE WHEN COMPNUMB = 3)
000447:
000448:                                                                                                 #  VERB 72 BRANCH
000449:
000450: 27,3647           34712        UPEND72           CAF      BIT1                                  #  HAVE AN ODD NO. OF COMPONENTS
000451: 27,3650           70300                          MASK     COMPNUMB                              #  BEEN SENT FOR A V72 UPDATE ...
000452: 27,3651           10000                          CCS      A
000453: 27,3652           13654                          TCF      +2                                    #  YES
000454: 27,3653           13743                          TCF      UPERROUT                              #  ERROR -- SHOULD BE ODD NO. OF COMPONENTS
000455: 27,3654           44711                          CS       BIT2
000456: 27,3655           60300                          AD       COMPNUMB
000457: 27,3656           54154        LDLOOP72          TS       MPAC                                  #  NO PERFORM THE UPDATE
000458: 27,3657           50000                          INDEX    A
000459: 27,3660           30305                          CAE      UPBUFF     +1                         #  PICK UP NEXT UPDATE WORD
000460: 27,3661           22000                          LXCH     A
000461: 27,3662           10154                          CCS      MPAC                                  #  SET POINTER TO ECADR (MUST BE CCS)
000462: 27,3663           54154                          TS       MPAC
000463: 27,3664           50000                          INDEX    A
000464: 27,3665           30305                          CAE      UPBUFF     +1                         #  PICK UP NEXT ECADR OF REG TO BE UPDATED
000465: 27,3666           54003                          TS       EBANK                                 #  SET EBANK
000466: 27,3667           74373                          MASK     LOW8                                  #  ISOLATE RELATIVE ADDRESS
000467: 27,3670           50000                          INDEX    A
000468: 27,3671  E3,1400                                 EBANK=   1400
000469: 27,3671           23400                          LXCH     1400                                  #  UPDATE THE REGISTER BY CONTENTS OF L
000470: 27,3672  E3,1706                                 EBANK=   TEPHEM
000471:                                                                                                 #  Page 1496
000472: 27,3672           10154                          CCS      MPAC                                  #  ARE WE THORUGH THE V72 UPDATE...
000473: 27,3673           13656                          TCF      LDLOOP72                              #  NO
000474:
000475:                                                                                                 #  NORMAL FINISH OF P27
000476:
000477: 27,3674                        UPOUT             EQUALS
000478: 27,3674           02662                          TC       INTWAKEU                              #  RELEASE GRAB OF ORBITAL INTEGRATION
000479: 27,3675           30301                 +1       CAE      UPOLDMOD                              #  RESTORE PRIOR P27 MODE
000480: 27,3676           05246                          TC       NEWMODEX   +3
000481: 27,3677           34714                          CAF      ZERO
000482: 27,3700           54332                          TS       DNLSTCOD
000483: 27,3701           03750                          TC       UPACTOFF                              #  TURN OFF `UPLINK ACTIVITY' LIGHT
000484: 27,3702           00006                          EXTEND                                         #  KILL GROUP 6
000485: 27,3703           34714                          DCA      NEG0
000486: 27,3704           52765                          DXCH     -PHASE6
000487:
000488: 27,3705           05423                          TC       ENDEXT                                #  EXTENDED VERB EXIT
000489:
000490:                                                                                                 #  VERB TO BRANCH
000491:
000492: 27,3706           00006        UPEND70           EXTEND                                         #  V70 DOES THE FOLLOWING WITH DP DELTA
000493: 27,3707           40305                          DCS      UPBUFF                                #  TIME IN UPBUFF
000494: 27,3710           52315                          DXCH     UPBUFF     +8D
000495: 27,3711           03552                          TC       TIMEDIDL                              #  DECREMENT AGC CLOCK
000496:
000497: 27,3712           03743                          TC       UPERROUT                              #  ERROR WHILE DECREMENTING CLOCK -- EXIT
000498:
000499: 27,3713  E3,1706                                 EBANK=   TEPHEM
000500: 27,3713           00006                          EXTEND
000501: 27,3714           40305                          DCS      UPBUFF                                #  COPY DECREMENTERS FOR
000502: 27,3715           52317                          DXCH     UPBUFF     +10D                       #  RESTART PROTECTION
000503: 27,3716           00006                          EXTEND
000504: 27,3717           40305                          DCS      UPBUFF
000505: 27,3720           52321                          DXCH     UPBUFF     +12D
000506:
000507: 27,3721           05301                          TC       PHASCHNG                              #  RESTART PROTECT (GROUP 6)
000508: 27,3722           04026                          OCT      04026
000509:
000510: 27,3723           34714                          CAF      ZERO
000511: 27,3724           22007                          ZL
000512: 27,3725           52317                          DXCH     UPBUFF     +10D                       #  DECREMENT CSM STATE VECTOR TIME
000513: 27,3726           21571                          DAS      TETCSM
000514:
000515: 27,3727           34714                          CAF      ZERO
000516: 27,3730           22007                          ZL
000517: 27,3731           52321                          DXCH     UPBUFF     +12D                       #  DECREMENT LEM STATE VECTOR TIME
000518: 27,3732           21643                          DAS      TETLEM
000519:                                                                                                 #  Page 1497
000520: 27,3733           34714                          CAF      ZERO
000521: 27,3734           22007                          ZL
000522: 27,3735           52305                          DXCH     UPBUFF
000523: 27,3736           21710                          DAS      TEPHEM     +1                         #  INCREMENT TP TEPHEM
000524: 27,3737           27706                          ADS      TEPHEM
000525:
000526: 27,3740           05301                          TC       PHASCHNG                              #  RESTART PROTECT (GROUP 6)
000527: 27,3741           04026                          OCT      04026
000528:
000529: 27,3742     0304                                 EBANK=   UPBUFF
000530:
000531: 27,3742           03674                          TC       UPOUT                                 #  GO TO STANDARD UPDATE PROGRAM EXIT
000532:
000533:                                                                                                 #  ERROR SEQUENCE
000534:
000535: 27,3743           04400        UPERROUT          TC       FALTON                                #  TURN ON *OPERATOR ERROR* LIGHT
000536: 27,3744           13674                          TCF      UPOUT                                 #  GO TO COMMON UPDATE PROGRAM EXIT
000537:
000538: 27,3745           04400                 +2       TC       FALTON                                #  TURN ON `OPERATOR ERROR' LIGHT
000539: 27,3746           03750                          TC       UPACTOFF                              #  TURN OFF `UPLINK ACTIVITY' LIGHT
000540: 27,3747           05423                          TC       ENDEXT                                #  EXTENDED VERB EXIT
000541:                                                                                                 #  (THE PURPOSE OF UPERROUT +2 EXIT IS
000542:                                                                                                 #  TO PROVIDE AN ERROR EXIT WHICH DOES NOT
000543:                                                                                                 #  RESET ANY RESTART GROUPS)
000544:
000545:                                                                                                 #  `UPACTOFF' IS A ROUTINE TO TURN OFF UPLINK ACTIVITY LIGHT ON ALL EXITS FROM UPDATE PROGRAM (P27).
000546:
000547: 27,3750           44710        UPACTOFF          CS       BIT3
000548: 27,3751           00006                          EXTEND                                         #  TURN OFF UPLINK ACTIVITY LIGHT
000549: 27,3752           03011                          WAND     DSALMOUT                              #  (BIT 3 OF CHANNEL 11)
000550: 27,3753           00002                          TC       Q
000551:
000552:
000553:

End of include-file UPDATE_PROGRAM.agc.  Parent file is MAIN.agc


