
Source Code


000002:                                                                                                  ## Copyright:   Public domain.
000003:                                                                                                  ## Filename:    WAITLIST.agc
000004:                                                                                                  ## Purpose:     Part of the source code for Colossus, build 249.
000005:                                                                                                  ##              It is part of the source code for the Command Module's (CM)
000006:                                                                                                  ##              Apollo Guidance Computer (AGC), for Apollo 9.
000007:                                                                                                  ## Assembler:   yaYUL
000008:                                                                                                  ## Reference:   Begins on p. 1191
000009:                                                                                                  ## Contact:     Ron Burkey <info@sandroid.org>.
000010:                                                                                                  ## Website:     www.ibiblio.org/apollo/index.html
000011:                                                                                                  ## Mod history: 08/28/04   RSB  Began adapting from similar Luminary131 file.
000012:                                                                                                  ##              05/14/05   RSB  Corrected website reference above.
000013:                                                                                                  ##              2010-10-24 JL   Indentation fixes.
000014:                                                                                                  ##              2011-05-07 JL   Remove workarounds.
000015:                                                                                                  ##              2017-01-06 RSB  Page numbers now agree with those on the
000016:                                                                                                  ##                              original harcopy, as opposed to the PDF page
000017:                                                                                                  ##                              numbers in 1701.pdf.
000018:                                                                                                  ##              2017-01-20 RSB  Cross-diff'd comment text (not whitespace)
000019:                                                                                                  ##                              vs the already-proofed corresponding Colossus
000020:                                                                                                  ##                              237 and Comanche 55 source-code files
000021:                                                                                                  ##                              and corrected errors found.
000022:                                                                                                  ##              2017-02-09 RSB  Comment-text fixes identified in proofing Artemis 72
000023:                                                                                                  ##              2017-03-16 RSB  Comment-text fixes identified in 5-way
000024:                                                                                                  ##                              side-by-side diff of Luminary 69/99/116/131/210.
000025:
000026:                                                                                                  ## The contents of the "Colossus249" files, in general, are transcribed
000027:                                                                                                  ## from a scanned copy of the program listing.  Notations on this
000028:                                                                                                  ## document read, in part:
000029:                                                                                                  ##
000030:                                                                                                  ##      Assemble revision 249 of AGC program Colossus by NASA
000031:                                                                                                  ##      2021111-041.  October 28, 1968.
000032:                                                                                                  ##
000033:                                                                                                  ##      This AGC program shall also be referred to as
000034:                                                                                                  ##                              Colossus 1A
000035:                                                                                                  ##
000036:                                                                                                  ##      Prepared by
000037:                                                                                                  ##                      Massachusetts Institute of Technology
000038:                                                                                                  ##                      75 Cambridge Parkway
000039:                                                                                                  ##                      Cambridge, Massachusetts
000040:                                                                                                  ##      under NASA contract NAS 9-4065.
000041:                                                                                                  ##
000042:                                                                                                  ## Refer directly to the online document mentioned above for further information.
000043:                                                                                                  ## Please report any errors (relative to the scanned pages) to info@sandroid.org.
000044:                                                                                                  ##
000045:                                                                                                  ## In some cases, where the source code for Luminary 131 overlaps that of
000046:                                                                                                  ## Colossus 249, this code is instead copied from the corresponding Luminary 131
000047:                                                                                                  ## source file, and then is proofed to incorporate any changes.
000048:


000050:                                                                                                  #  PROGRAM DESCRIPTION                                           DATE - 10 OCTOBER 1966
000051:                                                                                                  #  MOD NO - 2                                                    LOG SECTION - WAITLIST
000052:                                                                                                  #  MOD BY - MILLER       (DTMAX INCREASED TO 162.5 SEC)          ASSEMBLY SUNBURST REV 5
000053:                                                                                                  #  MOD 3 BY KERNAN       (INHINT INSERTED AT WAITLIST) 2/28/68 SKIPPER REV 4
000054:                                                                                                  #  MOD 4 BY KERNAN       (TWIDDLE IN 54) 3/28/68 SKIPPER REV 13.
000055:
000056:                                                                                                  #  FUNCTIONAL DESCRIPTION -
000057:                                                                                                  #        PART OF A SECTION OF PROGRAMS,- WAITLIST, TASKOVER, T3RUPT, USED TO CALL A PROGRAM, (CALLED A TASK),
000058:                                                                                                  #        WHICH IS TO BEGIN IN C(A) CENTISECONDS.  WAITLIST UPDATES TIME3, LST1 AND LST2.  THE MEANING OF THESE LISTS
000059:                                                                                                  #        FOLLOW.
000060:
000061:                                                                                                  #                C(TIME3) = 16384 -(T1-T) CENTISECONDS, (T=PRESENT TIME, T1-TIME FOR TASK1)
000062:
000063:                                                                                                  #                        C(LST1)         =       -(T2-T1)+1
000064:                                                                                                  #                        C(LST1 +1)      =       -(T3-T2)+1
000065:                                                                                                  #                        C(LST1 +2)      =       -(T4-T3)+1
000066:                                                                                                  #                                        .
000067:                                                                                                  #                                        .
000068:                                                                                                  #                        C(LST1 +6)      =       -(T8-T7)+1
000069:                                                                                                  #                        C(LST1 +7)      =       -(T9-T8)+1
000070:
000071:                                                                                                  #                        C(LST2)         =       2CADR OF TASK1
000072:                                                                                                  #                        C(LST2 +2)      =       2CADR OF TASK2
000073:                                                                                                  #                                        .
000074:                                                                                                  #                                        .
000075:                                                                                                  #                        C(LST2 +14)     =       2CADR OF TASK8
000076:                                                                                                  #                        C(LST2 +16)     =       2CADR OF TASK9
000077:
000078:                                                                                                  #  WARNINGS-
000079:                                                                                                  #  --------
000080:                                                                                                  #        1)      1 <= C(A) <= 16250D (1 CENTISECOND TO 162.5 SEC)
000081:                                                                                                  #        2)      9 TASKS MAXIMUM
000082:                                                                                                  #        3)      TASKS CALLED UNDER INTERRUPT INHIBITED
000083:                                                                                                  #        4)      TASKS END BY TC TASKOVER
000084:
000085:                                                                                                  #  CALLING SEQUENCE -
000086:                                                                                                  #        L-1     CA      DELTAT  (TIME IN CENTISECONDS TO TASK START)
000087:                                                                                                  #        L       TC      WAITLIST
000088:                                                                                                  #        L+1     2CADR   DESIRED TASK
000089:                                                                                                  #        L+2     (MINOR OF 2CADR)
000090:                                                                                                  #        L+3     RELINT          (RETURNS HERE)
000091:
000092:                                                                                                  #  TWIDDLE-
000093:                                                                                                  #  -------
000094:                                                                                                  #        TWIDDLE IS FOR USE WHEN THE TASK BEING SET UP IS IN THE SAME EBANK AND FBANK AS THE USER.  IN
000095:                                                                                                  #        SUCH CASES, IT IMPROVES UPON WAITLIST BY ELIMINATING THE NEED FOR THE BBCON HALF OF THE 2CADR,


000097:                                                                                                  #        SAVING A WORD.  TWIDDLE IS LIKE WAITLIST IN EVERY RESPECT EXCEPT CALLING SEQUENCE, TO WIT-
000098:                                                                                                  #                L-1     CA      DELTAT
000099:                                                                                                  #                L       TC      TWIDDLE
000100:                                                                                                  #                L+1     ADRES   DESIRED TASK
000101:                                                                                                  #                L+2     RELINT          (RETURNS HERE)
000102:
000103:                                                                                                  #  NORMAL EXIT MODES -
000104:                                                                                                  #        AT L+3 OF CALLING SEQUENCE
000105:
000106:                                                                                                  #  ALARM OR ABORT EXIT MODES -
000107:                                                                                                  #        TC      ABORT
000108:                                                                                                  #        OCT     1203    (WAITLIST OVERFLOW - TOO MANY TASKS)
000109:
000110:                                                                                                  #  ERASABLE INITIALIZATION REQUIRED -
000111:                                                                                                  #        ACCOMPLISHED BY FRESH START,--  LST2, ..., LST2 +16 = ENDTASK
000112:                                                                                                  #                                        LST1, ..., LST1 +7  = NEG1/2
000113:
000114:                                                                                                  #  OUTPUT --
000115:                                                                                                  #        LST1 AND LST2 UPDATED WITH NEW TASK AND ASSOCIATED TIME.
000116:
000117:                                                                                                  #  DEBRIS -
000118:                                                                                                  #        CENTRALS - A,Q,L
000119:                                                                                                  #        OTHER    - WAITEXIT, WAITADR, WAITTEMP, WAITBANK
000120:
000121:                                                                                                  #  DETAILED ANALYSIS OF TIMING -
000122:                                                                                                  #        CONTROL WILL NOT BE RETURNED TO THE SPECIFIED ADDRESS (2CADR) IN EXACTLY DELTA T CENTISECONDS.
000123:                                                                                                  #        THE APPROXIMATE TIME MAY BE CALCULATED AS FOLLOWS
000124:                                                                                                  #                LET TO = THE TIME OF THE TC WAITLIST
000125:                                                                                                  #                LET TS = TO +147U + COUNTER INCREMENTS (SET UP TIME)
000126:                                                                                                  #                LET X  = TS -(100TS)/100  (VARIANCE FROM COUNTERS)
000127:                                                                                                  #                LET Y  = LENGTH OF TIME OF INHIBIT INTERRUPT AFTER T3RUPT
000128:                                                                                                  #                LET Z  = LENGTH OF TIME TO PROCESS TASKS WHICH ARE DUE THIS T3RUPT BUT DISPATCHED EARLIER.
000129:                                                                                                  #                         (Z=0, USUALLY)
000130:                                                                                                  #                LET DELTD = THE ACTUAL TIME TAKEN TO GIVE CONTROL TO 2CADR
000131:                                                                                                  #                        THEN DELTD = TS+DELTA T -X +Y +Z +1.05MS* +COUNTERS*
000132:                                                                                                  #                *-THE TIME TAKEN BY WAITLIST ITSELF AND THE COUNTER TICKING DURING THIS WAITLIST TIME.
000133:                                                                                                  #        IN SHORT, THE ACTUAL TIME TO RETURN CONTROL TO A 2CADR IS AUGMENTED BY THE TIME TO SET UP THE TASK:S
000134:                                                                                                  #        INTERRUPT, ALL COUNTERS TICKING, THE T3RUPT PROCESSING TIME, THE WAITLIST PROCESSING TIME AND THE POSSIBILITY
000135:                                                                                                  #        OF OTHER TASKS INHIBITING THE INTERRUPT.
000136:
000137:    5130                                           BLOCK    02


000139:    5130  E3,1400                                  EBANK=   LST1                                  #  TASK LISTS IN SWITCHED E BANK.
000140:
000141:    5130                                           COUNT    02/WAIT
000142:
000143:    5130           00004        TWIDDLE            INHINT
000144:    5131           54001                           TS       L                                     #  SAVE DELAY TIME IN L
000145:    5132           34672                           CA       POSMAX
000146:    5133           26002                           ADS      Q                                     #  CREATING OVERFLOW AND Q-1 IN Q
000147:    5134           30006                           CA       BBANK
000148:    5135           00006                           EXTEND
000149:    5136           04007                           ROR      SUPERBNK
000150:    5137           56001                           XCH      L
000151:
000152:    5140           00004        WAITLIST           INHINT
000153:    5141           56002                           XCH      Q                                     #  SAVE DELTA T IN Q AND RETURN IN
000154:    5142           54061                           TS       WAITEXIT                              #  WAITEXIT.
000155:    5143           00006                           EXTEND
000156:    5144           50061                           INDEX    WAITEXIT                              #  IF TWIDDLING, THE TS SKIPS TO HERE
000157:    5145           30001                           DCA      0                                     #  PICK UP 2CADR OF TASK.
000158:    5146           54063                 -1        TS       WAITADR                               #  BBCON WILL REMAIN IN L
000159:    5147           35155        DLY2               CAF      WAITBB                                #  ENTRY FROM FIXDELAY AND VARDELAY.
000160:    5150           56006                           XCH      BBANK
000161:    5151           13246                           TCF      WAIT2
000162:
000163:                                                                                                  #  RETURN TO CALLER AFTER TASK INSERTION:
000164:
000165:    5152           52062        LVWTLIST           DXCH     WAITEXIT
000166:    5153           64711                           AD       TWO
000167:    5154           52006                           DTCB
000168:
000169:    5155  E3,1400                                  EBANK=   LST1
000170:    5155           02063        WAITBB             BBCON    WAIT2
000171:
000172:                                                                                                  #  RETURN TO CALLER +2 AFTER WAITING DT SPECIFIED AT CALLER +1.
000173:
000174:    5156           50002        FIXDELAY           INDEX    Q                                     #  BOTH ROUTINES MUST BE CALLED UNDER
000175:    5157           30000                           CAF      0                                     #  WAITLIST CONTROL AND TERMINATE THE TASK
000176:    5160           24002                           INCR     Q                                     #  IN WHICH THEY WERE CALLED.
000177:
000178:                                                                                                  #  RETURN TO CALLER +1 AFTER WAITING THE DT AS ARRIVING IN A.
000179:
000180:    5161           56002        VARDELAY           XCH      Q                                     #  DT TO Q.  TASK ADRES TO WAITADR.
000181:    5162           54063                           TS       WAITADR
000182:    5163           30006                           CA       BBANK                                 #  BBANK IS SAVED DURING DELAY.
000183:    5164           00006                           EXTEND
000184:    5165           04007                           ROR      SUPERBNK                              #  ADD SBANK TO BBCON.
000185:    5166           54001                           TS       L
000186:    5167           35172                           CAF      DELAYEX
000187:    5170           54061                           TS       WAITEXIT                              #  GO TO TASKOVER AFTER TASK ENTRY.
000188:    5171           15147                           TCF      DLY2
000189:


000191:    5172           15211        DELAYEX            TCF      TASKOVER   -2                         #  RETURNS TO TASKOVER
000192:


000194:                                                                                                  #  ENDTASK MUST BE ENTERED IN FIXED-FIXED SO IT IS DISTINGUISHABLE BY ITS ADRES ALONE.
000195:
000196:    5173  E3,1400                                  EBANK=   LST1
000197:    5173           72602 73714  ENDTASK            -2CADR   SVCT3
000198:
000199:    5175           10076        SVCT3              CCS      FLAGWRD2                              #  DRIFT FLAG
000200:    5176           15213                           TCF      TASKOVER
000201:    5177           15213                           TCF      TASKOVER
000202:    5200           15201                           TCF      +1
000203:
000204:    5201           11322                           CCS      IMUCADR                               #  DON'T DO NBDONLY IF SOMEONE ELSE IS IN
000205:    5202           15213                           TCF      TASKOVER                              #  IMUSTALL.
000206:    5203           15206                           TCF      +3
000207:    5204           15213                           TCF      TASKOVER
000208:    5205           15213                           TCF      TASKOVER
000209:
000210:    5206           37672                 +3        CAF      PRIO35                                #  COMPENSATE FOR NBD COEFFICIENTS ONLY.
000211:    5207           05027                           TC       NOVAC                                 #        ENABLE EVERY 81.93 SECONDS
000212:    5210  E3,1460                                  EBANK=   NBDX
000213:    5210           03542 14063                     2CADR    NBDONLY
000214:
000215:    5212           15213                           TCF      TASKOVER
000216:


000218:                                                                                                  #  BEGIN TASK INSERTION.
000219:
000220: 01,3246                                           BANK     01
000221: 01,3246                                           COUNT    01/WAIT
000222:
000223: 01,3246           54062        WAIT2              TS       WAITBANK                              #  BBANK OF CALLING PROGRAM.
000224: 01,3247           40026                           CS       TIME3
000225: 01,3250           64703                           AD       BIT8                                  #  BIT 8 = OCT 200
000226: 01,3251           10000                           CCS      A                                     #  TEST 200 - C(TIME3).  IF POSITIVE,
000227:                                                                                                  #  IT MEANS THAT TIME3 OVERFLOW HAS OCCURRED PRIOR TO CS TIME3 AND THAT
000228:                                                                                                  #  C(TIME3) = T - T1, INSTEAD OF 1.0 - (T1 - T).  THE FOLLOWING FOUR
000229:                                                                                                  #  ORDERS SET C(A) = TD - T1 + 1 IN EITHER CASE.
000230:
000231: 01,3252           66056                           AD       OCT40001                              #  OVERFLOW HAS OCCURRED.  SET C(A) =
000232: 01,3253           40000                           CS       A                                     #  T - T1 + 1.0 - 201
000233:
000234:                                                                                                  #  NORMAL CASE (C(A) NNZ) YIELDS SAME C(A):  -( -(1.0-(T1-T)) + 200) - 1
000235:
000236: 01,3254           63402                           AD       OCT40201
000237: 01,3255           60002                           AD       Q                                     #  RESULT = TD - T1 + 1.
000238:
000239: 01,3256           10000                           CCS      A                                     #  TEST TD - T1 +1
000240:
000241: 01,3257           61400                           AD       LST1                                  #  IF TD - T1 POS, GO TO WTLST5 WITH
000242: 01,3260           13322                           TCF      WTLST5                                #  C(A) = (TD - T1) + C(LST1) = TD-T2+1
000243:
000244: 01,3261           13262                           NOOP
000245: 01,3262           40002                           CS       Q
000246:
000247:                                                                                                  #  NOTE THAT THIS PROGRAM SECTION IS NEVER ENTERED WHEN T-T1 G/E -1,
000248:                                                                                                  #  SINCE TD-T1+1 = (TD-T) + (T-T1+1), AND DELTA T = TD-T G/E +1.  (G/E
000249:                                                                                                  #  SYMBOL MEANS GREATER THAN OR EQUAL TO).  THUS THERE NEED BE NO CON-
000250:                                                                                                  #  CERN OVER A PREVIOUS OR IMMINENT OVERFLOW OF TIME3 HERE.
000251:
000252: 01,3263           64675                           AD       POS1/2                                #  WHEN TD IS NEXT, FORM QUANTITY
000253: 01,3264           64675                           AD       POS1/2                                #        1.0 - DELTA T = 1.0 - (TD - T)
000254: 01,3265           56026                           XCH      TIME3
000255: 01,3266           64674                           AD       NEGMAX
000256: 01,3267           60002                           AD       Q                                     #  1.0 - DELTAT T NOW COMPLETE.
000257: 01,3270           00006                           EXTEND                                         #  ZERO INDEX Q.
000258: 01,3271           22007                           QXCH     7                                     #  (ZQ)
000259:


000261: 01,3272           57400        WTLST4             XCH      LST1
000262: 01,3273           57401                           XCH      LST1       +1
000263: 01,3274           57402                           XCH      LST1       +2
000264: 01,3275           57403                           XCH      LST1       +3
000265: 01,3276           57404                           XCH      LST1       +4
000266: 01,3277           57405                           XCH      LST1       +5
000267: 01,3300           57406                           XCH      LST1       +6
000268: 01,3301           57407                           XCH      LST1       +7
000269:
000270: 01,3302           30063                           CA       WAITADR                               #  (MINOR PART OF TASK CADR HAS BEEN IN L.)
000271: 01,3303           50002                           INDEX    Q
000272: 01,3304           13305                           TCF      +1
000273:
000274: 01,3305           53411                           DXCH     LST2
000275: 01,3306           53413                           DXCH     LST2       +2
000276: 01,3307           53415                           DXCH     LST2       +4
000277: 01,3310           53417                           DXCH     LST2       +6
000278: 01,3311           53421                           DXCH     LST2       +8D
000279: 01,3312           53423                           DXCH     LST2       +10D                       #  AT END, CHECK THAT C(LST2 +10) IS STD
000280: 01,3313           53425                           DXCH     LST2       +12D
000281: 01,3314           53427                           DXCH     LST2       +14D
000282: 01,3315           53431                           DXCH     LST2       +16D
000283: 01,3316           65173                           AD       ENDTASK                               #  END ITEM, AS CHECK FOR EXCEEDING
000284:                                                                                                  #  THE LENGTH OF THE LIST.
000285: 01,3317           00006                           EXTEND                                         #  DUMMY TASK ADRES SHOULD BE IN FIXED-
000286: 01,3320           15152                           BZF      LVWTLIST                              #  FIXED SO ITS ADRES ALONE DISTINGUISHES
000287: 01,3321           13375                           TCF      WTABORT                               #  IT.
000288:


000290: 01,3322           10000        WTLST5             CCS      A                                     #  TEST TD - T2 + 1
000291: 01,3323           61401                           AD       LST1       +1
000292: 01,3324           13330                           TCF      +4
000293: 01,3325           64712                           AD       ONE
000294: 01,3326           03403                           TC       WTLST2
000295: 01,3327           00001                           OCT      1
000296:
000297: 01,3330           10000                 +4        CCS      A                                     #  TEST TD - T3 + 1
000298: 01,3331           61402                           AD       LST1       +2
000299: 01,3332           13336                           TCF      +4
000300: 01,3333           64712                           AD       ONE
000301: 01,3334           03403                           TC       WTLST2
000302: 01,3335           00002                           OCT      2
000303:
000304: 01,3336           10000                 +4        CCS      A                                     #  TEST TD - T4 + 1
000305: 01,3337           61403                           AD       LST1       +3
000306: 01,3340           13344                           TCF      +4
000307: 01,3341           64712                           AD       ONE
000308: 01,3342           03403                           TC       WTLST2
000309: 01,3343           00003                           OCT      3
000310:
000311: 01,3344           10000                 +4        CCS      A                                     #  TEST TD - T5 + 1
000312: 01,3345           61404                           AD       LST1       +4
000313: 01,3346           13352                           TCF      +4
000314: 01,3347           64712                           AD       ONE
000315: 01,3350           03403                           TC       WTLST2
000316: 01,3351           00004                           OCT      4
000317:
000318: 01,3352           10000                 +4        CCS      A                                     #  TEST TD - T6 + 1
000319: 01,3353           61405                           AD       LST1       +5
000320: 01,3354           13360                           TCF      +4
000321: 01,3355           64712                           AD       ONE
000322: 01,3356           03403                           TC       WTLST2
000323: 01,3357           00005                           OCT      5
000324:
000325: 01,3360           10000                 +4        CCS      A                                     #  TEST TD - T7 + 1
000326: 01,3361           61406                           AD       LST1       +6
000327: 01,3362           13366                           TCF      +4
000328: 01,3363           64712                           AD       ONE
000329: 01,3364           03403                           TC       WTLST2
000330: 01,3365           00006                           OCT      6
000331:


000333: 01,3366           10000                 +4        CCS      A
000334: 01,3367           61407                           AD       LST1       +7
000335: 01,3370           13374                           TCF      +4
000336: 01,3371           64712                           AD       ONE
000337: 01,3372           03403                           TC       WTLST2
000338: 01,3373           00007                           OCT      7
000339:
000340: 01,3374           10000                 +4        CCS      A
000341: 01,3375           05604        WTABORT            TC       BAILOUT                               #  NO ROOM IN THE INN.
000342: 01,3376           01203                           OCT      1203
000343:
000344: 01,3377           64712                           AD       ONE
000345: 01,3400           03403                           TC       WTLST2
000346: 01,3401           00010                           OCT      10
000347:
000348: 01,3402           40201        OCT40201           OCT      40201
000349:


000351:                                                                                                  #  THE ENTRY TO WTLST2 JUST PRECEDING OCT N IS FOR T  LE TD LE T   -1.
000352:                                                                                                  #                                                   N           N+1
000353:                                                                                                  #  (LE MEANS LESS THAN OR EQUAL TO).  AT ENTRY, C(A) = -(TD - T   + 1)
000354:                                                                                                  #                                                              N+1
000355:                                                                                                  #  THE LST1 ENTRY-(T   -T +1) IS TO BE REPLACED BY -(TD - T  + 1), AND
000356:                                                                                                  #                   N+1  N                                 N
000357:                                                                                                  #  THE ENTRY-(T   - TD + 1) IS TO BE INSERTED IMMEDIATELY FOLLOWING.
000358:                                                                                                  #              N+1
000359:
000360: 01,3403           54064        WTLST2             TS       WAITTEMP                              #  C(A) = -(TD - T + 1)
000361: 01,3404           50002                           INDEX    Q
000362: 01,3405           30000                           CAF      0
000363: 01,3406           54002                           TS       Q                                     #  INDEX VALUE INTO Q.
000364:
000365: 01,3407           34712                           CAF      ONE
000366: 01,3410           60064                           AD       WAITTEMP
000367: 01,3411           50002                           INDEX    Q                                     #  C(A) = -(TD - T ) + 1.
000368: 01,3412           27377                           ADS      LST1       -1                         #                 N
000369:
000370: 01,3413           40064                           CS       WAITTEMP
000371: 01,3414           50002                           INDEX    Q
000372: 01,3415           13272                           TCF      WTLST4
000373:
000374:                                                                                                  #        C(TIME3)        =       1.0 - (T1 - T)
000375:
000376:                                                                                                  #        C(LST1)         =       - (T2 - T1) + 1
000377:                                                                                                  #        C(LST1+1)       =       - (T3 - T2) + 1
000378:                                                                                                  #        C(LST1+2)       =       - (T4 - T3) + 1
000379:                                                                                                  #        C(LST1+3)       =       - (T5 - T4) + 1
000380:                                                                                                  #        C(LST1+4)       =       - (T6 - T5) + 1
000381:
000382:                                                                                                  #        C(LST2)         =       2CADR TASK1
000383:                                                                                                  #        C(LST2+2)       =       2CADR TASK2
000384:                                                                                                  #        C(LST2+4)       =       2CADR TASK3
000385:                                                                                                  #        C(LST2+6)       =       2CADR TASK4
000386:                                                                                                  #        C(LST2+8)       =       2CADR TASK5
000387:                                                                                                  #        C(LST2+10)      =       2CADR TASK6
000388:


000390:                                                                                                  #  ENTERS HERE ON T3 RUPT TO DISPATCH WAITLISTED TASK.
000391:
000392: 01,3416           00006        T3RUPT             EXTEND
000393: 01,3417           04007                           ROR      SUPERBNK                              #  READ CURRENT SUPERBANK VALUE AND
000394: 01,3420           54016                           TS       BANKRUPT                              #  SAVE WITH E AND F BANK VALUES.
000395: 01,3421           00006                           EXTEND
000396: 01,3422           22012                           QXCH     QRUPT
000397:
000398: 01,3423           34673        T3RUPT2            CAF      NEG1/2                                #  DISPATCH WAITLIST TASK.
000399: 01,3424           57407                           XCH      LST1       +7
000400: 01,3425           57406                           XCH      LST1       +6
000401: 01,3426           57405                           XCH      LST1       +5
000402: 01,3427           57404                           XCH      LST1       +4                         #  1. MOVE UP LST1 CONTENTS, ENTERING
000403: 01,3430           57403                           XCH      LST1       +3                         #     A VALUE OF 1/2 +1 AT THE BOTTOM
000404: 01,3431           57402                           XCH      LST1       +2                         #     FOR T6-T5, CORRESPONDING TO THE
000405: 01,3432           57401                           XCH      LST1       +1                         #     INTERVAL 81.91 SEC FOR ENDTASK.
000406: 01,3433           57400                           XCH      LST1
000407: 01,3434           64672                           AD       POSMAX                                #  2. SET T3 = 1.0 - T2 - T USING LIST 1.
000408: 01,3435           26026                           ADS      TIME3                                 #     SO T3 WONT TICK DURING UPDATE.
000409: 01,3436           54734                           TS       RUPTAGN
000410: 01,3437           44714                           CS       ZERO
000411: 01,3440           54734                           TS       RUPTAGN                               #  SETS RUPTAGN TO +1 ON OVERFLOW.
000412:
000413: 01,3441           00006                           EXTEND                                         #  DISPATCH TASK.
000414: 01,3442           45174                           DCS      ENDTASK
000415: 01,3443           53431                           DXCH     LST2       +16D
000416: 01,3444           53427                           DXCH     LST2       +14D
000417: 01,3445           53425                           DXCH     LST2       +12D
000418: 01,3446           53423                           DXCH     LST2       +10D
000419: 01,3447           53421                           DXCH     LST2       +8D
000420: 01,3450           53417                           DXCH     LST2       +6
000421: 01,3451           53415                           DXCH     LST2       +4
000422: 01,3452           53413                           DXCH     LST2       +2
000423: 01,3453           53411                           DXCH     LST2
000424:
000425: 01,3454           56001                           XCH      L
000426: 01,3455           00006                           EXTEND
000427: 01,3456           01007                           WRITE    SUPERBNK                              #  SET SUPERBANK FROM BBCON OF 2CADR
000428: 01,3457           56001                           XCH      L                                     #  RESTORE TO L FOR DXCH Z.
000429: 01,3460           52006                           DTCB
000430:


000432:                                                                                                  #  RETURN, AFTER EXECUTION OF T3 OVERFLOW TASK:
000433:
000434:    5213                                           BLOCK    02
000435:    5213                                           COUNT    02/WAIT
000436:
000437:    5213           10734        TASKOVER           CCS      RUPTAGN                               #  IF +1 RETURN TO T3RUPT, IF -0 RESUME.
000438:    5214           35155                           CAF      WAITBB
000439:    5215           54006                           TS       BBANK
000440:    5216           13423                           TCF      T3RUPT2                               #  DISPATCH NEXT TASK IF IT WAS DUE.
000441:
000442:    5217           30016                           CA       BANKRUPT
000443:    5220           00006                           EXTEND
000444:    5221           01007                           WRITE    SUPERBNK                              #  RESTORE SUPERBANK BEFORE RESUME IS DONE
000445:
000446:    5222           00006        RESUME             EXTEND
000447:    5223           22012                           QXCH     QRUPT
000448:    5224           30016        NOQRSM             CA       BANKRUPT
000449:    5225           56006                           XCH      BBANK
000450:    5226           52011        NOQBRSM            DXCH     ARUPT
000451:    5227           00003                           RELINT
000452:    5230           50017                           RESUME
000453:


000455:                                                                                                  #  LONGCALL
000456:                                                                                                  #  PROGRAM DESCRIPTION                           DATE - 17 MARCH 1967
000457:                                                                                                  #  PROGRAM WRITTEN BY W.H.VANDEVER               LOG SECTION WAITLIST
000458:                                                                                                  #  MOD BY - R. MELANSON TO ADD DOCUMENTATION     ASSEMBLY SUNDISK REV. 100
000459:
000460:                                                                                                  #  FUNCTIONAL DESCRIPTION -
000461:                                                                                                  #        LONGCALL IS CALLED WITH THE DELTA TIME ARRIVING IN A,L SCALED AS TIME2,TIME1 WITH THE 2CADR OF THE TASK
000462:                                                                                                  #        IMMEDIATELY FOLLOWING THE TC LONGCALL.  FOR EXAMPLE, IT MIGHT BE DONE AS FOLLOWS WHERE TIMELOC IS THE NAME OF
000463:                                                                                                  #        A DP REGISTER CONTAINING A DELTA TIME AND WHERE TASKTODO IS THE NAME OF THE LOCATION AT WHICH LONGCALL IS TO
000464:                                                                                                  #        START
000465:                                                                                                  #  CALLING SEQUENCE -
000466:                                                                                                  #                EXTEND
000467:                                                                                                  #                DCA     TIMELOC
000468:                                                                                                  #                TC      LONGCALL
000469:                                                                                                  #                2CADR   TASKTODO
000470:                                                                                                  #  NORMAL EXIT MODE -
000471:                                                                                                  #        1).     TC      WAITLIST
000472:                                                                                                  #        2).     DTCB    (TO L+3 OF CALLING ROUTINE 1ST PASS THRU LONGCYCL)
000473:                                                                                                  #        3).     DTCB    (TO TASKOVER ON SUBSEQUENT PASSES THRU LONGCYCL)
000474:                                                                                                  #  ALARM OR ABORT EXIT MODE -
000475:                                                                                                  #        NONE
000476:                                                                                                  #  OUTPUT -
000477:                                                                                                  #        LONGTIME AND LONGTIME+1 = DELTA TIME
000478:                                                                                                  #        LONGEXIT AND LONGEXIT+1 = RETURN 2CADR
000479:                                                                                                  #        LONGCADR AND LONGCADR+1 = TASK 2CADR
000480:                                                                                                  #        A = SINGLE PRECISION TIME FOR WAITLIST
000481:                                                                                                  #  ERASABLE INITIALIZATION -
000482:                                                                                                  #        A = MOST SIGNIFICANT PART OF DELTA TIME
000483:                                                                                                  #        L = LEAST SIGNIFICANT PART OF DELTA TIME
000484:                                                                                                  #        Q = ADDRESS OF 2CADR TASK VALUE
000485:                                                                                                  #  DEBRIS -
000486:                                                                                                  #        A,Q,L
000487:                                                                                                  #        LONGCADR AND LONGCADR+1
000488:                                                                                                  #        LONGEXIT AND LONGEXIT+1
000489:                                                                                                  #        LONGTIME AND LONGTIME+1
000490:                                                                                                  #  *** THE FOLLOWING IS TO BE IN FIXED-FIXED AND UNSWITCHED ERRASIBLE ***
000491:
000492:    5231                                           BLOCK    02
000493:    5231  E3,1400                                  EBANK=   LST1
000494:    5231           53140        LONGCALL           DXCH     LONGTIME                              #  OBTAIN THE DELTA TIME
000495:
000496:    5232           00006                           EXTEND                                         #  OBTAIN THE 2CADR


000498:    5233           50002                           NDX      Q
000499:    5234           30001                           DCA      0
000500:    5235           53134                           DXCH     LONGCADR
000501:
000502:    5236           00006                           EXTEND                                         #  NOW GO TO THE APPROPRIATE SWITCHED BANK
000503:    5237           35242                           DCA      LGCL2CDR                              #  FOR THE REST OF LONGCALL
000504:    5240           52006                           DTCB
000505:
000506:    5241  E3,1400                                  EBANK=   LST1
000507:    5241           03461 02063  LGCL2CDR           2CADR    LNGCALL2
000508:
000509:                                                                                                  #  *** THE FOLLOWING MAY BE IN A SWITCHED BANK, INCLUDING ITS ERASABLE ***
000510:
000511: 01,3461                                           BANK     01
000512: 01,3461                                           COUNT    01/WAIT
000513:
000514: 01,3461           23435        LNGCALL2           LXCH     LONGEXIT   +1                         #  SAVE THE CORRECT BB FOR RETURN
000515: 01,3462           34711                           CA       TWO                                   #  OBTAIN THE RETURN ADDRESS
000516: 01,3463           26002                           ADS      Q
000517: 01,3464           55434                           TS       LONGEXIT
000518:
000519:                                                                                                  #  *** WAITLIST TASK LONGCYCL ***
000520:
000521: 01,3465           00006        LONGCYCL           EXTEND                                         #  CAN WE SUCCESFULLY TAKE ABOUT 1.25
000522: 01,3466           43477                           DCS      DPBIT14                               #  MINUTES OFF OF LONGTIME
000523: 01,3467           21140                           DAS      LONGTIME
000524:
000525: 01,3470           11140                           CCS      LONGTIME   +1                         #  THE REASONIBG BEHIND THIS PART IS
000526: 01,3471           13510                           TCF      MUCHTIME                              #  INVOLVED, TAKING INTO ACCOUNT THAT THE
000527:                                                                                                  #  WORDS MAY NOT BE SIGNED CORRECTED (DP
000528:                                                                                                  #  BASIC INSTRUCTIONS
000529:                                                                                                  #  DO NOT SIGN CORRECT) AND THAT WE SUBTRAC
000530:                                                                                                  #  TED BIT14 (1 OVER HALF THE POS. VALUE
000531:                                                                                                  #  REPRESENTIBLE IN SINGLE WORD)
000532: 01,3472           13473                           NOOP                                           #  CAN:T GET HERE    **********
000533: 01,3473           13474                           TCF      +1
000534: 01,3474           11137                           CCS      LONGTIME
000535: 01,3475           13510                           TCF      MUCHTIME
000536: 01,3476           00000        DPBIT14            OCT      00000
000537: 01,3477           20000                           OCT      20000
000538:
000539:                                                                                                  #  LONGCALL
000540: 01,3500           34675        LASTTIME           CA       BIT14                                 #  GET BACK THE CORRECT DELTA TFOR WAITLIST
000541: 01,3501           27140                           ADS      LONGTIME   +1
000542: 01,3502           05140                           TC       WAITLIST
000543: 01,3503  E3,1400                                  EBANK=   LST1
000544: 01,3503           03515 02063                     2CADR    GETCADR                               #  THE ENTRY TO OUR LONGCADR
000545:
000546: 01,3505           33517        LONGRTRN           CA       TSKOVCDR                              #  SET IT UP SO THAT ONLY THE FIRST EXIT IS


000548: 01,3506           53435                           DXCH     LONGEXIT                              #  TO THE CALLER OF LONGCALL
000549: 01,3507           52006                           DTCB                                           #  THE REST ARE TO TASKOVER
000550:
000551: 01,3510           34675        MUCHTIME           CA       BIT14                                 #  WE HAVE OVER OUR ABOUT 1.25 MINUTES
000552: 01,3511           05140                           TC       WAITLIST                              #  SO SET UP FOR ANOTHER CYCLE THROUGH HERE
000553: 01,3512  E3,1400                                  EBANK=   LST1
000554: 01,3512           03465 02063                     2CADR    LONGCYCL
000555:
000556: 01,3514           13505                           TCF      LONGRTRN                              #  NOW EXIT PROPERLY
000557:
000558:                                                                                                  #  *** WAITLIST TASK GETCADR ***
000559:
000560: 01,3515           53134        GETCADR            DXCH     LONGCADR                              #  GET THE LONGCALL THAT WE WISHED TO START
000561: 01,3516           52006                           DTCB                                           #  AND TRANSFER CONTROL TO IT
000562:
000563: 01,3517           05213        TSKOVCDR           GENADR   TASKOVER

End of include-file WAITLIST.agc.  Parent file is MAIN.agc


