
Source Code


000002:                                                                                                  #  Copyright:    Public domain.
000003:                                                                                                  #  Filename:     WAITLIST.agc
000004:                                                                                                  #  Purpose:      Part of the source code for Colossus, build 249.
000005:                                                                                                  #                It is part of the source code for the Command Module's (CM)
000006:                                                                                                  #                Apollo Guidance Computer (AGC), possibly for Apollo 8 and 9.
000007:                                                                                                  #  Assembler:    yaYUL
000008:                                                                                                  #  Reference:    Begins on p. 1203 of 1701.pdf.
000009:                                                                                                  #  Contact:      Ron Burkey <info@sandroid.org>.
000010:                                                                                                  #  Website:      www.ibiblio.org/apollo/index.html
000011:                                                                                                  #  Mod history:  08/28/04   RSB  Began adapting from similar Luminary131 file.
000012:                                                                                                  #                05/14/05   RSB  Corrected website reference above.
000013:                                                                                                  #                2010-10-24 JL   Indentation fixes.
000014:                                                                                                  #                2011-05-07 JL   Remove workarounds.
000015:
000016:                                                                                                  #  The contents of the "Colossus249" files, in general, are transcribed
000017:                                                                                                  #  from a scanned document obtained from MIT's website,
000018:                                                                                                  #  http://hrst.mit.edu/hrs/apollo/public/archive/1701.pdf.  Notations on this
000019:                                                                                                  #  document read, in part:
000020:
000021:                                                                                                  #        Assemble revision 249 of AGC program Colossus by NASA
000022:                                                                                                  #        2021111-041.  October 28, 1968.
000023:
000024:                                                                                                  #        This AGC program shall also be referred to as
000025:                                                                                                  #                                Colossus 1A
000026:
000027:                                                                                                  #        Prepared by
000028:                                                                                                  #                        Massachusetts Institute of Technology
000029:                                                                                                  #                        75 Cambridge Parkway
000030:                                                                                                  #                        Cambridge, Massachusetts
000031:                                                                                                  #        under NASA contract NAS 9-4065.
000032:
000033:                                                                                                  #  Refer directly to the online document mentioned above for further information.
000034:                                                                                                  #  Please report any errors (relative to 1701.pdf) to info@sandroid.org.
000035:
000036:                                                                                                  #  In some cases, where the source code for Luminary 131 overlaps that of
000037:                                                                                                  #  Colossus 249, this code is instead copied from the corresponding Luminary 131
000038:                                                                                                  #  source file, and then is proofed to incorporate any changes.
000039:


000041:                                                                                                  #  PROGRAM DESCRIPTION                                           DATE -- 10 OCTOBER 1966
000042:                                                                                                  #  MOD NO -- 2                                                   LOG SECTION -- WAITLIST
000043:                                                                                                  #  MOD BY -- MILLER      (DTMAX INCREASED TO 162.5 SEC)          ASSEMBLY -- SUNBURST REV 5
000044:                                                                                                  #  MOD 3 BY KERNAN       (INHINT INSERTED AT WAITLIST) 2/28/68 SKIPPER REV 4
000045:                                                                                                  #  MOD 4 BY KERNAN       (TWIDDLE IN 54) 3/28/68 SKIPPER REV 13.
000046:
000047:                                                                                                  #  FUNCTIONAL DESCRIPTION --
000048:                                                                                                  #        PART OF A SECTION OF PROGRAMS -- WAITLIST, TASKOVER, T3RUPT, USED TO CALL A PROGRAM (CALLED A TASK),
000049:                                                                                                  #        WHICH IS TO BEGIN IN C(A) CENTISECONDS.  WAITLIST UPDATES TIME3, LST1, AND LST2.  THE MEANING OF THESE LISTS
000050:                                                                                                  #        FOLLOW.
000051:
000052:                                                                                                  #                ((TIME3) = 16384 -(T1-T) CENTISECONDS, (T=PRESENT TIME, T1-TIME FOR TASK1)
000053:
000054:                                                                                                  #                        C(LST1)         =       -(T2-T1)+1
000055:                                                                                                  #                        C(LST1 +1)      =       -(T3-T2)+1
000056:                                                                                                  #                        C(LST1 +2)      =       -(T4-T3)+1
000057:                                                                                                  #                                       ...
000058:                                                                                                  #                        C(LST1 +6)      =       -(T8-T7)+1
000059:                                                                                                  #                        C(LST1 +7)      =       -(T9-T8)+1
000060:
000061:                                                                                                  #                        C(LST2)         =       2CADR OF TASK1
000062:                                                                                                  #                        C(LST2 +2)      =       2CADR OF TASK2
000063:                                                                                                  #                                       ...
000064:                                                                                                  #                        C(LST2 +14)     =       2CADR OF TASK8
000065:                                                                                                  #                        C(LST2 +16)     =       2CADR OF TASK9
000066:
000067:                                                                                                  #  WARNINGS --
000068:                                                                                                  #        1)      1 <= C(A) <= 16250D (1 CENTISCOND TO 162.5 SEC)
000069:                                                                                                  #        2)      9 TASKS MAXIMUM
000070:                                                                                                  #        3)      TASKS CALLED UNDER INTERRUPT INHIBITED
000071:                                                                                                  #        4)      TASKS END BY TC TASKOVER
000072:
000073:                                                                                                  #  CALLING SEQUENCE --
000074:                                                                                                  #        L-1     CA      DELTAT  (TIME IN CENTISECONDS TO TASK START)
000075:                                                                                                  #        L       TC      WAITLIST
000076:                                                                                                  #        L+1     2CADR   DESIRED TASK.
000077:                                                                                                  #        L+2     (MINOR OF 2CADR)
000078:                                                                                                  #        L+3     RELINT          (RETURNS HERE)
000079:
000080:                                                                                                  #  TWIDDLE --
000081:                                                                                                  #        TWIDDLE IS FOR USE WHEN THE TASK BEING SET UP IS IN THE SAME EBANK AND FBANK AS THE USER.  IN
000082:                                                                                                  #        SUCH CASES, IT IMPROVES UPON WAITLIST BY ELIMINATING THE NEED FOR THE BBCON HALF OF THE 2CADR,


000084:                                                                                                  #        SAVING A WORD.  TWIDDLE IS LIKE WAITLIST IN EVERY RESPECT EXCEPT CALLING SEQUENCE, TO WIT,
000085:                                                                                                  #                L-1     CA      DELTAT
000086:                                                                                                  #                L       TC      TWIDDLE
000087:                                                                                                  #                L+1     ADRES   DESIRED TASK
000088:                                                                                                  #                L+2     RELINT          (RETURNS HERE)
000089:
000090:                                                                                                  #  NORMAL EXIT MODES --
000091:                                                                                                  #        AT L+3 OF CALLING SEQUENCE.
000092:
000093:                                                                                                  #  ALARM OR ABORT EXIT MODES --
000094:                                                                                                  #        TC      ABORT
000095:                                                                                                  #        OCT     1203    (WAITLIST OVERFLOW -- TOO MANY TASKS)
000096:
000097:                                                                                                  #  ERASABLE INITIALIZATION REQUIRED --
000098:                                                                                                  #        ACCOMPLISHED BY FRESH START --  LST2, ..., LST2 +16 = ENDTASK
000099:                                                                                                  #                                        LST1, ..., LST1 +7  = NEG1/2
000100:
000101:                                                                                                  #  OUTPUT --
000102:                                                                                                  #        LST1 AND LST2 UPDATED WTIH NEW TASK AND ASSOCIATED TIME.
000103:
000104:                                                                                                  #  DEBRIS --
000105:                                                                                                  #        CENTRALS -- A,Q,L
000106:                                                                                                  #        OTHER    -- WAITEXIT, WAITADR, WAITTEMP, WAITBANK
000107:
000108:                                                                                                  #  DETAILED ANALYSIS OF TIMING --
000109:                                                                                                  #        CONTROL WILL NOT BE RETURNED TO THE SPECIFIED ADDRESS (2CADR) IN EXACTLY DELTA T CENTISECONDS.
000110:                                                                                                  #        THE APPROXIMATE TIME MAY BE CALCULATED AS FOLLOWS:
000111:                                                                                                  #                LET T0 = THE TIME OF THE TC WAITLIST
000112:                                                                                                  #                LET TS = T0 +147U + COUNTER INCREMENTS (SET UP TIME)
000113:                                                                                                  #                LET X  = TS -(100TS)/100  (VARIANCE FROM COUNTERS)
000114:                                                                                                  #                LET Y  = LENGTH OF TIME OF INHIBIT INTERRUPT AFTER T3RUPT
000115:                                                                                                  #                LET Z  = LENGTH OF TIME TO PROCESS TASKS WHICH ARE DUE THIS T3RUPT BUT DISPATCHED EARLIER.
000116:                                                                                                  #                         (Z=0, USUALLY).
000117:                                                                                                  #                LET DELTD = THE ACTUAL TIME TAKEN TO GIVE CONTROL TO 2CADR
000118:                                                                                                  #                        THEN DELTD = TS+DELTA T -X +Y +Z +1.05MS* +COUNTERS*
000119:                                                                                                  #                *THE TIME TAKEN BY WAITLIST ITSELF AND THE COUNTER TICKING DURING THIS WAITLIST TIME.
000120:                                                                                                  #        IN SHORT, THE ACTUAL TIME TO RETURN CONTROL TO A 2CADR IS AUGMENTED BY THE TIME TO SET UP THE TASK'S
000121:                                                                                                  #        INTERRUPT, ALL COUNTERS TICKING, THE T3RUPT PROCESSING TIME, THE WAITLIST PROCESSING TIME AND THE POSSIBILITY
000122:                                                                                                  #        OF OTHER TASKS INHIBITING THE INTERRUPT.
000123:
000124:    5130                                           BLOCK    02


000126:    5130  E3,1400                                  EBANK=   LST1                                  #  TASK LISTS IN SWITCHED E BANK.
000127:
000128:    5130                                           COUNT    02/WAIT
000129:
000130:    5130           00004        TWIDDLE            INHINT
000131:    5131           54001                           TS       L                                     #  SAVE DELAY TIME IN L
000132:    5132           34672                           CA       POSMAX
000133:    5133           26002                           ADS      Q                                     #  CREATING OVERFLOW AND Q-1 IN Q
000134:    5134           30006                           CA       BBANK
000135:    5135           00006                           EXTEND
000136:    5136           04007                           ROR      SUPERBNK
000137:    5137           56001                           XCH      L
000138:
000139:    5140           00004        WAITLIST           INHINT
000140:    5141           56002                           XCH      Q                                     #  SAVE DELTA T IN Q AND RETURN IN
000141:    5142           54061                           TS       WAITEXIT                              #  WAITEXIT.
000142:    5143           00006                           EXTEND
000143:    5144           50061                           INDEX    WAITEXIT                              #  IF TWIDDLING, THE TS SKIPS TO HERE
000144:    5145           30001                           DCA      0                                     #  PICK UP 2CADR OF TASK.
000145:    5146           54063                 -1        TS       WAITADR                               #  BBCON WILL REMAIN IN L
000146:    5147           35155        DLY2               CAF      WAITBB                                #  ENTRY FROM FIXDELAY AND VARDELAY.
000147:    5150           56006                           XCH      BBANK
000148:    5151           13246                           TCF      WAIT2
000149:
000150:                                                                                                  #  RETURN TO CALLER AFTER TASK INSERTION:
000151:
000152:    5152           52062        LVWTLIST           DXCH     WAITEXIT
000153:    5153           64711                           AD       TWO
000154:    5154           52006                           DTCB
000155:
000156:    5155  E3,1400                                  EBANK=   LST1
000157:    5155           02063        WAITBB             BBCON    WAIT2
000158:
000159:                                                                                                  #  RETURN TO CALLER +2 AFTER WAITING DT SPECIFIED AT CALLER +1.
000160:
000161:    5156           50002        FIXDELAY           INDEX    Q                                     #  BOTH ROUTINES MUST BE CALLED UNDER
000162:    5157           30000                           CAF      0                                     #  WAITLIST CONTROL AND TERMINATE THE TASK
000163:    5160           24002                           INCR     Q                                     #  IN WHICH THEY WERE CALLED.
000164:
000165:                                                                                                  #  RETURN TO CALLER +1 AFTER WAITING THE DT AS ARRIVING IN A.
000166:
000167:    5161           56002        VARDELAY           XCH      Q                                     #  DT TO Q.  TASK ADRES TO WAITADR.
000168:    5162           54063                           TS       WAITADR
000169:    5163           30006                           CA       BBANK                                 #  BBANK IS SAVED DURING DELAY.
000170:    5164           00006                           EXTEND
000171:    5165           04007                           ROR      SUPERBNK                              #  ADD SBANK TO BBCON.
000172:    5166           54001                           TS       L
000173:    5167           35172                           CAF      DELAYEX
000174:    5170           54061                           TS       WAITEXIT                              #  GO TO TASKOVER AFTER TASK ENTRY.
000175:    5171           15147                           TCF      DLY2
000176:


000178:    5172           15211        DELAYEX            TCF      TASKOVER   -2                         #  RETURNS TO TASKOVER.
000179:


000181:                                                                                                  #  ENDTASK MUST ENTERED IN FIXED-FIXED SO IT IS DISTINGUISHABLE BY ITS ADRES ALONE.
000182:
000183:    5173  E3,1400                                  EBANK=   LST1
000184:    5173           72602 73714  ENDTASK            -2CADR   SVCT3
000185:
000186:    5175           10076        SVCT3              CCS      FLAGWRD2                              #  DRIFT FLAG
000187:    5176           15213                           TCF      TASKOVER
000188:    5177           15213                           TCF      TASKOVER
000189:    5200           15201                           TCF      +1
000190:
000191:    5201           11322                           CCS      IMUCADR                               #  DON'T DO NBDONLY IF SOMEONE ELSE IS IN
000192:    5202           15213                           TCF      TASKOVER                              #  IMUSTALL.
000193:    5203           15206                           TCF      +3
000194:    5204           15213                           TCF      TASKOVER
000195:    5205           15213                           TCF      TASKOVER
000196:
000197:    5206           37672                 +3        CAF      PRIO35                                #  COMPENSATE FOR NBD COEFFICIENTS ONLY.
000198:    5207           05027                           TC       NOVAC                                 #        ENABLE EVERY 81.93 SECONDS
000199:    5210  E3,1460                                  EBANK=   NBDX
000200:    5210           03542 14063                     2CADR    NBDONLY
000201:
000202:    5212           15213                           TCF      TASKOVER
000203:


000205:                                                                                                  #  BEGIN TASK INSERTION.
000206:
000207: 01,3246                                           BANK     01
000208: 01,3246                                           COUNT    01/WAIT
000209:
000210: 01,3246           54062        WAIT2              TS       WAITBANK                              #  BBANK OF CALLING PROGRAM.
000211: 01,3247           40026                           CS       TIME3
000212: 01,3250           64703                           AD       BIT8                                  #  BIT 8 = OCT 200
000213: 01,3251           10000                           CCS      A                                     #  TEST 200 - C(TIME3).  IF POSITIVE,
000214:                                                                                                  #  IT MEANS THAT TIME3 OVERFLOW HAS OCCURRED PRIOR TO CS TIME3 AND THAT
000215:                                                                                                  #  C(TIME3) = T - T1, INSTEAD OF 1.0 - (T1 - T).  THE FOLLOWING FOUR
000216:                                                                                                  #  ORDERS SET C(A) = TD - T1 + 1 IN EITHER CASE.
000217:
000218: 01,3252           66056                           AD       OCT40001                              #  OVERFLOW HAS OCCURRED.  SET C(A) =
000219: 01,3253           40000                           CS       A                                     #  T - T1 + 1.0 - 201
000220:
000221:                                                                                                  #  NORMAL CASE (C(A) NNZ) YIELDS SAME C(A):  -( -(1.0-(T1-T)) + 200) - 1
000222:
000223: 01,3254           63402                           AD       OCT40201
000224: 01,3255           60002                           AD       Q                                     #  RESULT = TD - T1 + 1.
000225:
000226: 01,3256           10000                           CCS      A                                     #  TEST TD - T1 +1.
000227:
000228: 01,3257           61400                           AD       LST1                                  #  IF TD - T1 POS, GO TO WTLST5 WITH
000229: 01,3260           13322                           TCF      WTLST5                                #  C(A) = (TD - T1) + C(LST1) = TD-T2+1
000230:
000231: 01,3261           13262                           NOOP
000232: 01,3262           40002                           CS       Q
000233:
000234:                                                                                                  #  NOTE THAT THIS PROGRAM SECTION IS NEVER ENTERED WHEN T-T1 G/E -1,
000235:                                                                                                  #  SINCE TD-T1+1 = (TD-T) + (T-T1+1), AND DELTA T = TD-T G/E +1.  (G/E
000236:                                                                                                  #  SYMBOL MEANS GREATER THAN OR EQUAL TO).  THUS THERE NEED BE NO CON-
000237:                                                                                                  #  CERN OVER A PREVIOUS OR IMMINENT OVEFLOW OF TIME3 HERE.
000238:
000239: 01,3263           64675                           AD       POS1/2                                #  WHEN TD IS NEXT, FORM QUANTITY
000240: 01,3264           64675                           AD       POS1/2                                #        1.0 - DELTA T = 1.0 - (TD - T)
000241: 01,3265           56026                           XCH      TIME3
000242: 01,3266           64674                           AD       NEGMAX
000243: 01,3267           60002                           AD       Q                                     #  1.0 - DELTAT T NOW COMPLETE.
000244: 01,3270           00006                           EXTEND                                         #  ZERO INDEX Q.
000245: 01,3271           22007                           QXCH     7                                     #  (ZQ)
000246:


000248: 01,3272           57400        WTLST4             XCH      LST1
000249: 01,3273           57401                           XCH      LST1       +1
000250: 01,3274           57402                           XCH      LST1       +2
000251: 01,3275           57403                           XCH      LST1       +3
000252: 01,3276           57404                           XCH      LST1       +4
000253: 01,3277           57405                           XCH      LST1       +5
000254: 01,3300           57406                           XCH      LST1       +6
000255: 01,3301           57407                           XCH      LST1       +7
000256:
000257: 01,3302           30063                           CA       WAITADR                               #  (MINOR PART OF TASK CADR HAS BEEN IN L.)
000258: 01,3303           50002                           INDEX    Q
000259: 01,3304           13305                           TCF      +1
000260:
000261: 01,3305           53411                           DXCH     LST2
000262: 01,3306           53413                           DXCH     LST2       +2
000263: 01,3307           53415                           DXCH     LST2       +4
000264: 01,3310           53417                           DXCH     LST2       +6
000265: 01,3311           53421                           DXCH     LST2       +8D
000266: 01,3312           53423                           DXCH     LST2       +10D                       #  AT END, CHECK THAT C(LST2 +10) IS STD
000267: 01,3313           53425                           DXCH     LST2       +12D
000268: 01,3314           53427                           DXCH     LST2       +14D
000269: 01,3315           53431                           DXCH     LST2       +16D
000270: 01,3316           65173                           AD       ENDTASK                               #  END ITEM, AS CHECK FOR EXCEEDING
000271:                                                                                                  #  THE LENGTH OF THE LIST.
000272: 01,3317           00006                           EXTEND                                         #  DUMMY TASK ADRES SHOULD BE IN FIXED-
000273: 01,3320           15152                           BZF      LVWTLIST                              #  FIXED SO ITS ADRES ALONE DISTINGUISHES
000274: 01,3321           13375                           TCF      WTABORT                               #  IT.
000275:


000277: 01,3322           10000        WTLST5             CCS      A                                     #  TEST TD - T2 + 1
000278: 01,3323           61401                           AD       LST1       +1
000279: 01,3324           13330                           TCF      +4
000280: 01,3325           64712                           AD       ONE
000281: 01,3326           03403                           TC       WTLST2
000282: 01,3327           00001                           OCT      1
000283:
000284: 01,3330           10000                 +4        CCS      A                                     #  TEST TD - T3 + 1
000285: 01,3331           61402                           AD       LST1       +2
000286: 01,3332           13336                           TCF      +4
000287: 01,3333           64712                           AD       ONE
000288: 01,3334           03403                           TC       WTLST2
000289: 01,3335           00002                           OCT      2
000290:
000291: 01,3336           10000                 +4        CCS      A                                     #  TEST TD - T4 + 1
000292: 01,3337           61403                           AD       LST1       +3
000293: 01,3340           13344                           TCF      +4
000294: 01,3341           64712                           AD       ONE
000295: 01,3342           03403                           TC       WTLST2
000296: 01,3343           00003                           OCT      3
000297:
000298: 01,3344           10000                 +4        CCS      A                                     #  TEST TD - T5 + 1
000299: 01,3345           61404                           AD       LST1       +4
000300: 01,3346           13352                           TCF      +4
000301: 01,3347           64712                           AD       ONE
000302: 01,3350           03403                           TC       WTLST2
000303: 01,3351           00004                           OCT      4
000304:
000305: 01,3352           10000                 +4        CCS      A                                     #  TEST TD - T6 + 1
000306: 01,3353           61405                           AD       LST1       +5
000307: 01,3354           13360                           TCF      +4
000308: 01,3355           64712                           AD       ONE
000309: 01,3356           03403                           TC       WTLST2
000310: 01,3357           00005                           OCT      5
000311:
000312: 01,3360           10000                 +4        CCS      A                                     #  TEST TD - T7 + 1
000313: 01,3361           61406                           AD       LST1       +6
000314: 01,3362           13366                           TCF      +4
000315: 01,3363           64712                           AD       ONE
000316: 01,3364           03403                           TC       WTLST2
000317: 01,3365           00006                           OCT      6
000318:


000320: 01,3366           10000                 +4        CCS      A
000321: 01,3367           61407                           AD       LST1       +7
000322: 01,3370           13374                           TCF      +4
000323: 01,3371           64712                           AD       ONE
000324: 01,3372           03403                           TC       WTLST2
000325: 01,3373           00007                           OCT      7
000326:
000327: 01,3374           10000                 +4        CCS      A
000328: 01,3375           05604        WTABORT            TC       BAILOUT                               #  NO ROOM IN THE INN
000329: 01,3376           01203                           OCT      1203
000330:
000331: 01,3377           64712                           AD       ONE
000332: 01,3400           03403                           TC       WTLST2
000333: 01,3401           00010                           OCT      10
000334:
000335: 01,3402           40201        OCT40201           OCT      40201
000336:


000338:                                                                                                  #  THE ENTRY TC WTLST2 JUST PRECEDING OCT N IS FOR T  LE TD LE T   -1.
000339:                                                                                                  #                                                   N           N+1
000340:                                                                                                  #  (LE MEANS LESS THAN OR EQUAL TO).  AT ENTRY, C(A) = -(TD - T   + 1)
000341:                                                                                                  #                                                              N+1
000342:                                                                                                  #  THE LST1 ENTRY-(T   -T +1) IS TO BE REPLACED BY -(TD - T  + 1), AND
000343:                                                                                                  #                   N+1  N                                 N
000344:                                                                                                  #  THE ENTRY-(T   - TD + 1) IS TO BE INSERTED IMMEDIATELY FOLLOWING.
000345:                                                                                                  #              N+1
000346:
000347: 01,3403           54064        WTLST2             TS       WAITTEMP                              #  C(A) = -(TD - T + 1)
000348: 01,3404           50002                           INDEX    Q
000349: 01,3405           30000                           CAF      0
000350: 01,3406           54002                           TS       Q                                     #  INDEX VALUE INTO Q.
000351:
000352: 01,3407           34712                           CAF      ONE
000353: 01,3410           60064                           AD       WAITTEMP
000354: 01,3411           50002                           INDEX    Q                                     #  C(A) = -(TD - T ) + 1.
000355: 01,3412           27377                           ADS      LST1       -1                         #                 N
000356:
000357: 01,3413           40064                           CS       WAITTEMP
000358: 01,3414           50002                           INDEX    Q
000359: 01,3415           13272                           TCF      WTLST4
000360:
000361:                                                                                                  #        C(TIME3)        =       1.0 - (T1 - T)
000362:
000363:                                                                                                  #        C(LST1)         =       - (T2 - T1) + 1
000364:                                                                                                  #        C(LST1+1)       =       - (T3 - T2) + 1
000365:                                                                                                  #        C(LST1+2)       =       - (T4 - T3) + 1
000366:                                                                                                  #        C(LST1+3)       =       - (T5 - T4) + 1
000367:                                                                                                  #        C(LST1+4)       =       - (T6 - T5) + 1
000368:
000369:                                                                                                  #        C(LST2)         =       2CADR TASK1
000370:                                                                                                  #        C(LST2+2)       =       2CADR TASK2
000371:                                                                                                  #        C(LST2+4)       =       2CADR TASK3
000372:                                                                                                  #        C(LST2+6)       =       2CADR TASK4
000373:                                                                                                  #        C(LST2+8)       =       2CADR TASK5
000374:                                                                                                  #        C(LST2+10)      =       2CADR TASK6
000375:


000377:                                                                                                  #  ENTERS HERE ON T3 RUPT TO DISPATCH WAITLISTED TASK.
000378:
000379: 01,3416           00006        T3RUPT             EXTEND
000380: 01,3417           04007                           ROR      SUPERBNK                              #  READ CURRENT SUPERBANK VALUE AND
000381: 01,3420           54016                           TS       BANKRUPT                              #  SAVE WITH E AND F BANK VALUES.
000382: 01,3421           00006                           EXTEND
000383: 01,3422           22012                           QXCH     QRUPT
000384:
000385: 01,3423           34673        T3RUPT2            CAF      NEG1/2                                #  DISPATCH WAITLIST TASK.
000386: 01,3424           57407                           XCH      LST1       +7
000387: 01,3425           57406                           XCH      LST1       +6
000388: 01,3426           57405                           XCH      LST1       +5
000389: 01,3427           57404                           XCH      LST1       +4                         #  1. MOVE UP LST1 CONTENTS, ENTERING
000390: 01,3430           57403                           XCH      LST1       +3                         #     A VALUE OF 1/2 +1 AT THE BOTTOM
000391: 01,3431           57402                           XCH      LST1       +2                         #     FOR T6-T5, CORRESPONDING TO THE
000392: 01,3432           57401                           XCH      LST1       +1                         #     INTERVAL 81.91 SEC FOR ENDTASK.
000393: 01,3433           57400                           XCH      LST1
000394: 01,3434           64672                           AD       POSMAX                                #  2. SET T3 = 1.0 - T2 - T USING LIST 1.
000395: 01,3435           26026                           ADS      TIME3                                 #     SO T3 WON'T TICK DURING UPDATE.
000396: 01,3436           54734                           TS       RUPTAGN
000397: 01,3437           44714                           CS       ZERO
000398: 01,3440           54734                           TS       RUPTAGN                               #  SETS RUPTAGN TO +1 ON OVERFLOW.
000399:
000400: 01,3441           00006                           EXTEND                                         #  DISPATCH TASK.
000401: 01,3442           45174                           DCS      ENDTASK
000402: 01,3443           53431                           DXCH     LST2       +16D
000403: 01,3444           53427                           DXCH     LST2       +14D
000404: 01,3445           53425                           DXCH     LST2       +12D
000405: 01,3446           53423                           DXCH     LST2       +10D
000406: 01,3447           53421                           DXCH     LST2       +8D
000407: 01,3450           53417                           DXCH     LST2       +6
000408: 01,3451           53415                           DXCH     LST2       +4
000409: 01,3452           53413                           DXCH     LST2       +2
000410: 01,3453           53411                           DXCH     LST2
000411:
000412: 01,3454           56001                           XCH      L
000413: 01,3455           00006                           EXTEND
000414: 01,3456           01007                           WRITE    SUPERBNK                              #  SET SUPERBANK FROM BBCON OF 2CADR
000415: 01,3457           56001                           XCH      L                                     #  RESTORE TO L FOR DXCH Z.
000416: 01,3460           52006                           DTCB
000417:


000419:                                                                                                  #  RETURN, AFTER EXECUTION OF T3 OVERFLOW TASK:
000420:
000421:    5213                                           BLOCK    02
000422:    5213                                           COUNT    02/WAIT
000423:
000424:    5213           10734        TASKOVER           CCS      RUPTAGN                               #  IF +1 RETURN TO T3RUPT, IF -0 RESUME.
000425:    5214           35155                           CAF      WAITBB
000426:    5215           54006                           TS       BBANK
000427:    5216           13423                           TCF      T3RUPT2                               #  DISPATCH NEXT TASK IF IT WAS DUE.
000428:
000429:    5217           30016                           CA       BANKRUPT
000430:    5220           00006                           EXTEND
000431:    5221           01007                           WRITE    SUPERBNK                              #  RESTORE SUPERBANK BEFORE RESUME IS DON
000432:
000433:    5222           00006        RESUME             EXTEND
000434:    5223           22012                           QXCH     QRUPT
000435:    5224           30016        NOQRSM             CA       BANKRUPT
000436:    5225           56006                           XCH      BBANK
000437:    5226           52011        NOQBRSM            DXCH     ARUPT
000438:    5227           00003                           RELINT
000439:    5230           50017                           RESUME
000440:


000442:                                                                                                  #  LONGCALL
000443:                                                                                                  #  PROGRAM DESCRIPTION                           DATE -- 17 MARCH 1967
000444:                                                                                                  #  PROGRAM WRITTEN BY W.H.VANDEVER               LOG SECTION WAITLIST
000445:                                                                                                  #  MOD BY -- R. MELANSON TO ADD DOCUMENTATION    ASSEMBLY SUNDISK REV. 100
000446:
000447:                                                                                                  #  FUNCTIONAL DESCRIPTION --
000448:                                                                                                  #        LONGCALL IS CALLED WITH THE DELTA TIME ARRIVING IN A,L SCALED AS TIME2,TIME1 WITH THE 2CADR OF THE TASK
000449:                                                                                                  #        IMMEDIATELY FOLLOWING THE TC LONGCALL.  FOR EXAMPLE, IT MIGHT BE DONE AS FOLLOWS WHERE TIMELOC IS THE NAME OF
000450:                                                                                                  #        A DP REGISTER CONTAINING A DELTA TIME AND WHERE TASKTODO IS THE NAME OF THE LOCATION AT WHICH LONGCALL IS TO
000451:                                                                                                  #        START.
000452:                                                                                                  #  CALLING SEQUENCE --
000453:                                                                                                  #                EXTEND
000454:                                                                                                  #                DCA     TIMELOC
000455:                                                                                                  #                TC      LONGCALL
000456:                                                                                                  #                2CADR   TASKTODO
000457:                                                                                                  #  NORMAL EXIT MODE --
000458:                                                                                                  #        1)      TC      WAITLIST
000459:                                                                                                  #        2)      DTCB    (TC L+3 OF CALLING ROUTINE 1S PASS THRU LONGCYCL)
000460:                                                                                                  #        3)      DTCB    (TO TASKOVER ON SUBSEQUENT PASSES THRU LONGCYCL)
000461:                                                                                                  #  ALARM OR ABORT EXIT MODE --
000462:                                                                                                  #        NONE
000463:                                                                                                  #  OUTPUT --
000464:                                                                                                  #        LONGTIME AND LONGTIME+1 = DELTA TIME
000465:                                                                                                  #        LONGEXIT AND LONGEXIT+1 = RETURN 2CADR
000466:                                                                                                  #        LONGCADR AND LONGCADR+1 = TASK 2CADR
000467:                                                                                                  #        A = SINGLE PRECISION TIME FOR WAITLIST
000468:                                                                                                  #  ERASABLE INITIALIZATION --
000469:                                                                                                  #        A = MOST SIGNIFICANT PART OF DELTA TIME
000470:                                                                                                  #        L = LEAST SIGNIFICANT PART OF DELTA TIME
000471:                                                                                                  #        Q = ADDRESS OF 2CADR TASK VALUE
000472:                                                                                                  #  DEBRIS --
000473:                                                                                                  #        A,Q,L
000474:                                                                                                  #        LONGCADR AND LONGCADR+1
000475:                                                                                                  #        LONGEXIT AND LONGEXIT+1
000476:                                                                                                  #        LONGTIME AND LONGTIME+1
000477:                                                                                                  #  *** THE FOLLOWING IS TO BE IN FIXED-FIXED AND UNSWITCHED ERASIBLE **
000478:
000479:    5231                                           BLOCK    02
000480:    5231  E3,1400                                  EBANK=   LST1
000481:    5231           53140        LONGCALL           DXCH     LONGTIME                              #  OBTAIN THE DELTA TIME
000482:
000483:    5232           00006                           EXTEND                                         #  OBTAIN THE 2CADR


000485:    5233           50002                           NDX      Q
000486:    5234           30001                           DCA      0
000487:    5235           53134                           DXCH     LONGCADR
000488:
000489:    5236           00006                           EXTEND                                         #  NO GO TO THE APPROPRIATE SWITCHED BANK
000490:    5237           35242                           DCA      LGCL2CDR                              #  FOR THE REST OF LONGCALL
000491:    5240           52006                           DTCB
000492:
000493:    5241  E3,1400                                  EBANK=   LST1
000494:    5241           03461 02063  LGCL2CDR           2CADR    LNGCALL2
000495:
000496:                                                                                                  #  *** THE FOLLOWING MAY BE IN A SWITCHED BANK, INCLUDING ITS ERASABLE ***
000497:
000498: 01,3461                                           BANK     01
000499: 01,3461                                           COUNT    01/WAIT
000500:
000501: 01,3461           23435        LNGCALL2           LXCH     LONGEXIT   +1                         #  SAVE THE CORRECT BB FOR RETURN
000502: 01,3462           34711                           CA       TWO                                   #  OBTAIN THE RETURN ADDRESS
000503: 01,3463           26002                           ADS      Q
000504: 01,3464           55434                           TS       LONGEXIT
000505:
000506:                                                                                                  #  *** WAITLIST TASK LONGCYCL ***
000507:
000508: 01,3465           00006        LONGCYCL           EXTEND                                         #  CAN WE SUCCESFULLY TAKE ABOUT 1.25
000509: 01,3466           43477                           DCS      DPBIT14                               #  MINUTES OFF OF LONGTIME
000510: 01,3467           21140                           DAS      LONGTIME
000511:
000512: 01,3470           11140                           CCS      LONGTIME   +1                         #  THE REASONING BEHIND THIS PART IS
000513: 01,3471           13510                           TCF      MUCHTIME                              #  INVOLVED, TAKING INTO ACCOUNT THAT THE
000514:                                                                                                  #  WORDS MAY NOT BE SIGNED CORRECTED (DP
000515:                                                                                                  #  BASIC INSTRUCTIONS
000516:                                                                                                  #  DO NOT SIGN CORRECT) AND THAT WE SUBTRAC-
000517:                                                                                                  #  TED BIT14 (1 OVER HALF THE POS. VALUE
000518:                                                                                                  #  REPRESENTABLE IN SINGLE WORD)
000519: 01,3472           13473                           NOOP                                           #  CAN'T GET HERE *************
000520: 01,3473           13474                           TCF      +1
000521: 01,3474           11137                           CCS      LONGTIME
000522: 01,3475           13510                           TCF      MUCHTIME
000523: 01,3476           00000        DPBIT14            OCT      00000
000524: 01,3477           20000                           OCT      20000
000525:
000526:                                                                                                  #  LONGCALL
000527: 01,3500           34675        LASTTIME           CA       BIT14                                 #  GET BACK THE CORRECT DELTA TFOR WAITLIST
000528: 01,3501           27140                           ADS      LONGTIME   +1
000529: 01,3502           05140                           TC       WAITLIST
000530: 01,3503  E3,1400                                  EBANK=   LST1
000531: 01,3503           03515 02063                     2CADR    GETCADR                               #  THE ENTRY TO OUR LONGCADR
000532:
000533: 01,3505           33517        LONGRTRN           CA       TSKOVCDR                              #  SET IT UP SO THAT ONLY THE FIRST EXIT IS


000535: 01,3506           53435                           DXCH     LONGEXIT                              #  TO THE CALLER OF LONGCALL
000536: 01,3507           52006                           DTCB                                           #  THE REST ARE TO TASKOVER
000537:
000538: 01,3510           34675        MUCHTIME           CA       BIT14                                 #  WE HAVE OVER OUR ABOUT 1.25 MINUTES
000539: 01,3511           05140                           TC       WAITLIST                              #  SO SET UP FOR ANOTHER CYCLE THROUGH HERE
000540: 01,3512  E3,1400                                  EBANK=   LST1
000541: 01,3512           03465 02063                     2CADR    LONGCYCL
000542:
000543: 01,3514           13505                           TCF      LONGRTRN                              #  NOW EXIT PROPERLY
000544:
000545:                                                                                                  #  *** WAITLIST TASK GETCADR ***
000546:
000547: 01,3515           53134        GETCADR            DXCH     LONGCADR                              #  GET THE LONGCALL THAT WE WISHED TO START
000548: 01,3516           52006                           DTCB                                           #  AND TRANSFER CONTROL TO IT
000549:
000550: 01,3517           05213        TSKOVCDR           GENADR   TASKOVER

End of include-file WAITLIST.agc.  Parent file is MAIN.agc


