
Source Code


000002:                                                                                                  ## Copyright:   Public domain.
000003:                                                                                                  ## Filename:    ALARM_AND_ABORT.agc
000004:                                                                                                  ## Purpose:     A section of Manche72 revision 3.
000005:                                                                                                  ##              It is part of the reconstructed source code for the final, flown
000006:                                                                                                  ##              release of the software for the Command Module's (CM) Apollo
000007:                                                                                                  ##              Guidance Computer (AGC) for Apollo 13. No original listings
000008:                                                                                                  ##              of this program are available; instead, this file was recreated
000009:                                                                                                  ##              from a reconstructed copy of Comanche 072. It has been adapted
000010:                                                                                                  ##              such that the resulting bugger words exactly match those
000011:                                                                                                  ##              specified for Manche72 revision 3 in NASA drawing 2021153G,
000012:                                                                                                  ##              which gives relatively high confidence that the reconstruction
000013:                                                                                                  ##              is correct.
000014:                                                                                                  ## Assembler:   yaYUL
000015:                                                                                                  ## Contact:     Ron Burkey <info@sandroid.org>.
000016:                                                                                                  ## Website:     www.ibiblio.org/apollo/index.html
000017:                                                                                                  ## Mod history: 2024-05-19 MAS  Created from Comanche 072.
000018:
000019:                                                                                                  #  THE FOLLOWING SUBROUTINE MAY BE CALLED TO DISPLAY A NON-ABORTIVE ALARM CONDITION.  IT MAY BE CALLED
000020:                                                                                                  #  EITHER IN INTERRUPT OR UNDER EXECUTIVE CONTROL.
000021:
000022:                                                                                                  #  CALLING SEQUENCE IS AS FOLLOWS:
000023:                                                                                                  #                TC      ALARM
000024:                                                                                                  #                OCT     NNNNN
000025:                                                                                                  #                                        (RETURNS HERE)
000026:
000027:    5664                                           BLOCK    02
000028:    4000                                           SETLOC   FFTAG7
000029:    4000                                           BANK
000030:
000031:    5664     0374                                  EBANK=   FAILREG
000032:
000033:    5664                                           COUNT    02/ALARM
000034:
000035:                                                                                                  #  ALARM TURNS ON THE PROGRAM ALARM LIGHT, BUT DOES NOT DISPLAY.
000036:
000037:    5664           00004        ALARM              INHINT
000038:
000039:    5665           30002                           CA       Q
000040:    5666           55363        ALARM2             TS       ALMCADR
000041:    5667           50002                           INDEX    Q
000042:    5670           30000                           CA       0
000043:    5671           54001        BORTENT            TS       L
000044:
000045:    5672           30006        PRIOENT            CA       BBANK
000046:    5673           00006                 +1        EXTEND
000047:    5674           04007                           ROR      SUPERBNK                              #  ADD SUPER BITS.
000048:    5675           55364                           TS       ALMCADR    +1
000049:
000050:    5676           30002        LARMENT            CA       Q                                     #  STORE RETURN FOR ALARM
000051:    5677           54061                           TS       ITEMP1
000052:
000053:    5700           30164                           CA       LOC
000054:    5701           54057                           TS       LOCALARM
000055:    5702           30165                           CA       BANKSET
000056:    5703           54060                           TS       BANKALRM
000057:
000058:    5704           10374        CHKFAIL1           CCS      FAILREG                               #  IS ANYTHING IN FAILREG
000059:    5705           15711                           TCF      CHKFAIL2                              #  YES TRY NEXT REG
000060:    5706           30001                           CA       L
000061:    5707           54374                           TS       FAILREG
000062:    5710           15715                           TCF      PROGLARM                              #  TURN ALARM LIGHT ON FOR FIRST ALARM
000063:
000064:    5711           10375        CHKFAIL2           CCS      FAILREG    +1
000065:    5712           15715                           TCF      PROGLARM
000066:    5713           30001                           CA       L
000067:    5714           54375                           TS       FAILREG    +1
000068:
000069:    5715           22376        PROGLARM           LXCH     FAILREG    +2                         #  STORE AS "MOST RECENT" ALARM CODE
000070:
000071:    5716           41036                           CS       DSPTAB     +11D                       #  TURN ON PROGRAM ALARM IF OFF
000072:    5717           77765                           MASK     OCT40400
000073:    5720           27036                           ADS      DSPTAB     +11D
000074:
000075:    5721           56061        MULTEXIT           XCH      ITEMP1                                #  OBTAIN RETURN ADDRESS IN A
000076:    5722           00003                           RELINT
000077:    5723           50000                           INDEX    A
000078:    5724           00001                           TC       1
000079:
000080:                                                                                                  #  PRIOLARM DISPLAYS V05N09 VIA PRIODSPR WITH 3 RETURNS TO THE USER FROM THE ASTRONAUT AT CALL LOC +1,+2,+3 AND
000081:                                                                                                  #  AN IMMEDIATE RETURN TO THE USER AT CALL LOC +4.  EXAMPLE FOLLOWS,
000082:                                                                                                  #                CAF     OCTXX           ALARM CODE
000083:                                                                                                  #                TC      BANKCALL
000084:                                                                                                  #                CADR    PRIOLARM
000085:
000086:                                                                                                  #                ...     ...
000087:                                                                                                  #                ...     ...
000088:                                                                                                  #                ...     ...             ASTRONAUT RETURN
000089:                                                                                                  #                TC      PHASCHNG        IMMEDIATE RETURN TO USER.  RESTART
000090:                                                                                                  #                OCT     X.1             PHASE CHANGE FOR PRIO DISPLAY
000091:
000092: 10,3766                                           BANK     10
000093: 10,2000                                           SETLOC   DISPLAYS
000094: 10,2000                                           BANK
000095:
000096: 10,3766                                           COUNT    10/DSPLA
000097: 10,3766           00004        PRIOLARM           INHINT                                         #  * * * KEEP IN DISPLAY ROUTINES BANK
000098: 10,3767           54001                           TS       L                                     #  SAVE ALARM CODE
000099:
000100: 10,3770           30133                           CA       BUF2                                  #  2 CADR OF PRIOLARM USER
000101: 10,3771           55363                           TS       ALMCADR
000102: 10,3772           30134                           CA       BUF2       +1
000103: 10,3773           05673                           TC       PRIOENT    +1                         #  * LEAVE L ALONE
000104: 10,3774           77467        -2SEC              DEC      -200       B-14                       #  *** DONT MOVE
000105: 10,3775           35064                           CAF      V05N09
000106: 10,3776           12726                           TCF      PRIODSPR
000107:
000108:
000109:    5725                                           BLOCK    02
000110:    6000                                           SETLOC   FFTAG13
000111:    6000                                           BANK
000112:
000113:    7755                                           COUNT    02/ALARM
000114:
000115:    7755           00004        BAILOUT            INHINT
000116:    7756           30002                           CA       Q
000117:    7757           55363                           TS       ALMCADR
000118:
000119:    7760           04676                           TC       BANKCALL
000120:    7761           40000                           CADR     VAC5STOR
000121:
000122:    7762           51363                           INDEX    ALMCADR
000123:    7763           30000                           CAF      0
000124:    7764           05671                           TC       BORTENT
000125:    7765           40400        OCT40400           OCT      40400
000126:
000127:    7766           00004                           INHINT
000128:    7767           35032        WHIMPER            CA       TWO
000129:    7770           60005                           AD       Z
000130:    7771           54017                           TS       BRUPT
000131:    7772           50017                           RESUME
000132:    7773           04715                           TC       POSTJUMP                              #  RESUME SENDS CONTROL HERE
000133:    7774           12651                           CADR     ENEMA
000134:
000135:    4000                                           SETLOC   FFTAG7
000136:    4000                                           BANK
000137:
000138:    5725           00004        POODOO             INHINT
000139:    5726           30002                           CA       Q
000140:    5727           55363                           TS       ALMCADR
000141:
000142:    5730           04676                           TC       BANKCALL
000143:    5731           40000                           CADR     VAC5STOR                              #  STORE ERASABLES FOR DEBUGGING PURPOSES.
000144:
000145:    5732           51363                           INDEX    ALMCADR
000146:    5733           30000                           CAF      0
000147:    5734           05671        ABORT2             TC       BORTENT
000148:    5735           77770        OCT77770           OCT      77770                                 #  DONT MOVE
000149:    5736           35026                           CA       V37FLBIT                              #  IS AVERAGE G ON
000150:    5737           70103                           MASK     FLAGWRD7
000151:    5740           10000                           CCS      A
000152:    5741           07766                           TC       WHIMPER    -1                         #  YES.  DONT DO POODOO.  DO BAILOUT.
000153:
000154:    5742           05574                           TC       DOWNFLAG
000155:    5743           00067                           ADRES    STATEFLG
000156:
000157:    5744           05574                           TC       DOWNFLAG
000158:
000159:    5745           00236                           ADRES    REINTFLG
000160:
000161:    5746           05574                           TC       DOWNFLAG
000162:    5747           00054                           ADRES    NODOFLAG
000163:
000164:    5750           04676                           TC       BANKCALL
000165:    5751           12501                           CADR     MR.KLEAN
000166:    5752           07767                           TC       WHIMPER
000167:
000168:    5753           00004        CCSHOLE            INHINT
000169:    5754           30002                           CA       Q
000170:    5755           55363                           TS       ALMCADR
000171:    5756           04676                           TC       BANKCALL
000172:    5757           40000                           CADR     VAC5STOR
000173:    5760           35762                           CA       OCT21103
000174:    5761           05734                           TC       ABORT2
000175:    5762           21103        OCT21103           OCT      21103
000176:    5763           00004        CURTAINS           INHINT
000177:    5764           30002                           CA       Q
000178:    5765           05666                           TC       ALARM2
000179:    5766           00217        OCT217             OCT      00217
000180:    5767           01363                           TC       ALMCADR                               #  RETURN TO USER
000181:
000182:    5770     5233               DOALARM            EQUALS   ENDOFJOB
000183:
000184:                                                                                                  #  CALLING SEQUENCE FOR VARALARM
000185:
000186:                                                                                                  #                CAF     (ALARM)
000187:                                                                                                  #                TC      VARALARM
000188:
000189:                                                                                                  #  VARALARM TURNS ON PROGRAM ALARM LIGHT BUT DOES NOT DISPLAY
000190:
000191:    5770           00004        VARALARM           INHINT
000192:
000193:    5771           54001                           TS       L                                     #  SAVE USERS ALARM CODE
000194:
000195:    5772           30002                           CA       Q                                     #  SAVE USERS Q
000196:    5773           55363                           TS       ALMCADR
000197:
000198:    5774           05672                           TC       PRIOENT
000199:    5775           00014        OCT14              OCT      14                                    #  DONT MOVE
000200:
000201:    5776           01363                           TC       ALMCADR                               #  RETURN TO USER
000202:
000203:    5777     7755               ABORT              EQUALS   BAILOUT                               #  *** TEMPORARY UNTIL ABORT CALLS OUT

End of include-file ALARM_AND_ABORT.agc.  Parent file is MAIN.agc


