
Source Code


000002:                                                                                                  ## Copyright:   Public domain.
000003:                                                                                                  ## Filename:    AUTOMATIC_MANEUVERS.agc
000004:                                                                                                  ## Purpose:     A section of Manche72 revision 3.
000005:                                                                                                  ##              It is part of the reconstructed source code for the final, flown
000006:                                                                                                  ##              release of the software for the Command Module's (CM) Apollo
000007:                                                                                                  ##              Guidance Computer (AGC) for Apollo 13. No original listings
000008:                                                                                                  ##              of this program are available; instead, this file was recreated
000009:                                                                                                  ##              from a reconstructed copy of Comanche 072. It has been adapted
000010:                                                                                                  ##              such that the resulting bugger words exactly match those
000011:                                                                                                  ##              specified for Manche72 revision 3 in NASA drawing 2021153G,
000012:                                                                                                  ##              which gives relatively high confidence that the reconstruction
000013:                                                                                                  ##              is correct.
000014:                                                                                                  ## Assembler:   yaYUL
000015:                                                                                                  ## Contact:     Ron Burkey <info@sandroid.org>.
000016:                                                                                                  ## Website:     www.ibiblio.org/apollo/index.html
000017:                                                                                                  ## Mod history: 2024-05-19 MAS  Created from Comanche 072.
000018:
000019: 21,3262                                           BANK     21
000020: 21,2000                                           SETLOC   DAPS3
000021: 21,2000                                           BANK
000022:
000023: 21,3262                                           COUNT    21/DAPAM
000024:
000025: 21,3262  E6,1510                                  EBANK=   KMPAC
000026: 21,3262           00006        AHFNOROT           EXTEND
000027: 21,3263           00031                           READ     CHAN31
000028: 21,3264           75016                           MASK     BIT14
000029: 21,3265           00006                           EXTEND
000030: 21,3266           63304                           BZMF     FREECONT
000031: 21,3267           31501                           CA       RCSFLAGS                              #  SEE IF RATE FILTER HAS BEEN INITIALIZED
000032: 21,3270           75016                           MASK     BIT14
000033: 21,3271           10000                           CCS      A                                     #  IF SO, PROCEED WITH ATTITUDE CONTROL
000034: 21,3272           12546                           TCF      REINIT                                #  IF NOT, RECYCLE TO INITIALIZE FILTER
000035:                                                                                                  #  AUTOMATIC CONTROL YET
000036: 21,3273           00006                           EXTEND
000037: 21,3274           00031                           READ     CHAN31
000038: 21,3275           75017                           MASK     BIT13
000039: 21,3276           00006                           EXTEND
000040: 21,3277           63404                           BZMF     HOLDFUNC
000041:
000042: 21,3300           31332        AUTOCONT           CA       HOLDFLAG                              #  IF HOLDFLAG IS +, GO TO GRABANG.
000043: 21,3301           00006                           EXTEND                                         #  OTHERWISE, GO TO ATTHOLD.
000044: 21,3302           63334                           BZMF     ATTHOLD
000045: 21,3303           13410                           TCF      GRABANG
000046:
000047:                                                                                                  #  MINIMUM IMPULSE CONTROL
000048:
000049: 21,3304           35033        FREECONT           CAF      ONE
000050: 21,3305           55332                           TS       HOLDFLAG                              #  RESET HOLDFLAG
000051:                                                                                                  #  INHIBIT AUTOMATIC STEERING
000052: 21,3306           00006                           EXTEND
000053: 21,3307           00032                           READ     CHAN32
000054: 21,3310           54001                           TS       L
000055: 21,3311           40000                           COM
000056: 21,3312           73050                           MASK     MANROT
000057: 21,3313           71633                           MASK     CHANTEMP
000058: 21,3314           23633                           LXCH     CHANTEMP
000059: 21,3315           03142                           TC       STICKCHK
000060: 21,3316           51656                           INDEX    RMANNDX
000061: 21,3317           33330                           CA       MINTAU                                #  MINTAU        +0
000062: 21,3320           55561                           TS       TAU                                   #                +1      +14MS MINIMUM IMPULSE
000063: 21,3321           51657                           INDEX    PMANNDX                               #                +2      -14MS TIME
000064: 21,3322           33330                           CA       MINTAU                                #                +3      +0
000065: 21,3323           55562                           TS       TAU1
000066: 21,3324           51660                           INDEX    YMANNDX
000067: 21,3325           33330                           CA       MINTAU
000068: 21,3326           55563                           TS       TAU2
000069: 21,3327           13101                           TCF      T6PROGM
000070:
000071: 21,3330           00000        MINTAU             DEC      0          B-14
000072: 21,3331           00027                           DEC      23         B-14                       #  = 14MS
000073: 21,3332           77750                           DEC      -23        B-14                       #  = -14MS
000074: 21,3333           00000                           DEC      0          B-14
000075:
000076:                                                                                                  #  CALCULATION OF ATTITUDE ERRORS-
000077:                                                                                                  #        -    *     -      -          -
000078:                                                                                                  #        AK = AMGB (CDUX - THETADX) + BIAS
000079:
000080:                                                                                                  #  IE    *AK *   * 1        SIN(PSI)        0    ** CDUX - THETADX *    *BIAS *
000081:                                                                                                  #        *   *   *                               **                *    *     *
000082:                                                                                                  #        *AK1* = * 0   COS(PSI)COS(PHI)  SIN(PHI)** CDUY - THETADY *  + *BIAS1*
000083:                                                                                                  #        *   *   *                               **                *    *     *
000084:                                                                                                  #        *AK2*   * 0  -COS(PSI)SIN(PHI)  COS(PHI)** CDUZ - THETADZ *    *BIAS2*
000085:
000086:                                                                                                  #  THE BIASES ARE ADDED ONLY WHILE PERFORMING AUTOMATIC MANEUVERS (ESP KALCMANU) TO PROVIDE ADDITIONAL LEAD
000087:                                                                                                  #  AND PREVENT OVERSHOOT WHEN STARTING AN AUTOMATIC MANEUVER.  NORMALLY THE REQUIRED LEAD IS ONLY 1-2 DEGREES.
000088:                                                                                                  #  BUT DURING HIGH RATE MANEUVERS IT CAN BE AS MUCH AS 7 DEGREES.  THE BIASES ARE COMPUTED BY KALCMANU AND REMAIN
000089:                                                                                                  #  FIXED UNTIL THE MANEUVER IS COMPLETED AT WHICH TIME THEY ARE RESET TO ZERO.
000090:
000091: 21,3334           30032        ATTHOLD            CA       CDUX
000092: 21,3335           00006                           EXTEND
000093: 21,3336           21572                           MSU      THETADX
000094: 21,3337           55567                           TS       ERRORX
000095: 21,3340           30033                           CA       CDUY
000096: 21,3341           00006                           EXTEND
000097: 21,3342           21573                           MSU      THETADY
000098: 21,3343           55502                           TS       T5TEMP
000099: 21,3344           00006                           EXTEND
000100: 21,3345           71640                           MP       AMGB1
000101: 21,3346           27567                           ADS      ERRORX
000102: 21,3347           31502                           CA       T5TEMP
000103: 21,3350           00006                           EXTEND
000104: 21,3351           71641                           MP       AMGB4
000105: 21,3352           55570                           TS       ERRORY
000106: 21,3353           31502                           CA       T5TEMP
000107: 21,3354           00006                           EXTEND
000108: 21,3355           71643                           MP       AMGB7
000109: 21,3356           55571                           TS       ERRORZ
000110: 21,3357           30034                           CA       CDUZ
000111: 21,3360           00006                           EXTEND
000112: 21,3361           21574                           MSU      THETADZ
000113: 21,3362           55502                           TS       T5TEMP
000114: 21,3363           00006                           EXTEND
000115: 21,3364           71642                           MP       AMGB5
000116: 21,3365           27570                           ADS      ERRORY
000117: 21,3366           31502                           CA       T5TEMP
000118: 21,3367           00006                           EXTEND
000119: 21,3370           71644                           MP       AMGB8
000120: 21,3371           27571                           ADS      ERRORZ
000121: 21,3372           41332                           CS       HOLDFLAG
000122: 21,3373           00006                           EXTEND
000123: 21,3374           63453                           BZMF     JETS
000124: 21,3375           31564                           CA       BIAS                                  #  AD BIASES ONLY IF PERFORMING AUTOMATIC
000125: 21,3376           27567                           ADS      ERRORX
000126: 21,3377           31565                           CA       BIAS1
000127: 21,3400           27570                           ADS      ERRORY
000128: 21,3401           31566                           CA       BIAS2
000129: 21,3402           27571                           ADS      ERRORZ
000130: 21,3403           13453                           TCF      JETS
000131:
000132: 21,3404           11332        HOLDFUNC           CCS      HOLDFLAG
000133: 21,3405           13410                           TCF      +3
000134: 21,3406           13334                           TCF      ATTHOLD
000135: 21,3407           13410                           TCF      +1
000136: 21,3410           35035        GRABANG            CAF      ZERO                                  #  ZERO WBODYS AND BIASES
000137: 21,3411           55525                           TS       WBODY
000138: 21,3412           55526                           TS       WBODY      +1
000139: 21,3413           55527                           TS       WBODY1
000140: 21,3414           55530                           TS       WBODY1     +1
000141: 21,3415           55531                           TS       WBODY2
000142: 21,3416           55532                           TS       WBODY2     +1
000143: 21,3417           55564                           TS       BIAS
000144: 21,3420           55565                           TS       BIAS1
000145: 21,3421           55566                           TS       BIAS2
000146:
000147: 21,3422           31501                           CA       RCSFLAGS
000148: 21,3423           73051                           MASK     OCT16000
000149: 21,3424           00006                           EXTEND                                         #  IS RATE DAMPING COMPLETED
000150: 21,3425           13433                           BZF      ENDDAMP                               #  IF SO, GO TO ENDDAMP
000151: 21,3426           35035                           CAF      ZERO                                  #  OTHERWISE, ZERO ERRORS
000152: 21,3427           55567                           TS       ERRORX
000153: 21,3430           55570                           TS       ERRORY
000154: 21,3431           55571                           TS       ERRORZ
000155: 21,3432           13453                           TCF      JETS
000156:
000157: 21,3433           55332        ENDDAMP            TS       HOLDFLAG                              #  SET HOLDFLAG +0
000158: 21,3434           00006                           EXTEND
000159: 21,3435           30033                           DCA      CDUX                                  #  PICK UP CDU ANGLES FOR ATTITUDE HOLD
000160: 21,3436           53573                           DXCH     THETADX                               #  REFERENCES
000161: 21,3437           30034                           CA       CDUZ
000162: 21,3440           55574                           TS       THETADZ
000163: 21,3441           13334                           TCF      ATTHOLD
000164:
000165:                                                                                                  #  JET SWITCHING LOGIC AND CALCULATION OF REQUIRED ROTATION COMMANDS
000166:
000167:                                                                                                  #  DETERMINE THE LOCATION OF THE RATE ERROR AND THE ATTITUDE ERROR RELATIVE TO THE SWITCHING LOGIC IN THE PHASE
000168:                                                                                                  #  PLANE.
000169:
000170:                                                                                                  #  COMPUTE THE CHANGE IN RATE CORRESPONDING TO THE ATTITUDE ERROR NECESSARY TO DRIVE THE THE S/C INTO THE
000171:                                                                                                  #  APPROPRIATE DEADZONE.
000172:
000173:                                                                                                  #                                      .
000174:                                                                                                  #    R22                          RATE . ERROR
000175:                                                                                                  #         WL+H                         .
000176:                                                                                                  #  *********************************   .                                 ***** SWITCH LINES ENCLOSING DEADZONES
000177:                                                                                                  #    R23  WL                        *  .
000178:                                                                                                  #  --------------------------------- * .                                 ----- DESIRED RATE LINES
000179:                                                                                                  #    R23  WL-H       -                *.
000180:                                                                                                  #  ****************** -                .                                 R20, R21, R22, ETC REGIONS IN PHASE
000181:                                                                                                  #                    * -               .* R18      R20       R21         PLANE FOF COMPUTING DESIRED RESPONSE
000182:                                                                                                  #                     *                . *
000183:                                                                                                  #                      *-              .  *
000184:                                                                                                  #    R22             R24*-    R23      .   *
000185:                                                                                                  #                        *-            .    *
000186:                                                                                                  #                         *            .     *
000187:                                                                                                  #                          + -ADB      .      * AF              ATTITUDE
000188:                                                                                                  #  .........................+--+---------------+--+........................
000189:                                                                                                  #                            AF *      .     +ADB  +             ERROR
000190:                                                                                                  #                                *     .            *
000191:                                                                                                  #                                 *    .            -*
000192:                                                                                                  #                                  *   .             -*
000193:                                                                                                  #                                   *  .              -*
000194:                                                                                                  #                                    * .                *
000195:                                                                                                  #                                     *.               - *
000196:                                                                                                  #                                      .                - *****************
000197:                                                                                                  #                                      .*                -
000198:                                                                                                  #                                      . * --------------------------------
000199:                                                                                                  #                                      .  *
000200:                                                                                                  #                                      .   ********************************
000201:                                                                                                  #                                      .
000202:                                                                                                  #                        FIG. 1  PHASE PLANE SWITCHING LOGIC
000203:
000204:                                                                                                  #  CONSTANTS FOR JET SWITCHING LOGIC
000205:
000206: 21,3442           00114        WLH/SLOP           DEC      .00463                                #  = WL+H/SLOPE = .83333 DEG     $180
000207: 21,3443           00055        WL-H/SLP           DEC      .00277                                #  = WL-H/SLOPE = .5 DEG         $180
000208: 21,3444           00022 06426  WLH                2DEC     .0011111111                            #  = WL+H = 0.5 DEG/SEC          $450
000209:
000210: 21,3446           00012 35415  WLMH               2DEC     .0006666666                            #  = WL-H = 0.3 DEG/SEC          $450
000211:
000212: 21,3450           00016 22021  WL                 2DEC     .0008888888                            #  = WL   = 0.4 DEG/SEC          $450
000213:
000214: 21,3452           12173        SLOPE2             DEC      .32                                   #  = 0.8 DEG/SEC/DEG             $450/180
000215: 21,3453           31655        JETS               CA       ADB
000216: 21,3454           65031                           AD       FOUR                                  #  AF = FLAT REGION = .044 DEG
000217: 21,3455           55502                           TS       T5TEMP                                #  ADB+AF
000218: 21,3456           35032                           CAF      TWO
000219: 21,3457           55506        JLOOP              TS       SPNDX
000220: 21,3460           60000                           DOUBLE
000221: 21,3461           55507                           TS       DPNDX
000222: 21,3462           00006                           EXTEND
000223: 21,3463           50000                           INDEX    A
000224: 21,3464           31534                           DCA      ADOT
000225: 21,3465           53516                           DXCH     EDOT
000226: 21,3466           31332                           CA       HOLDFLAG                              #  HOLDFLAG = +0 MEANS THAT DAP IS IN
000227: 21,3467           00006                           EXTEND                                         #  ATTITUDE HOLD AND RATE DAMPING IS OVER.
000228: 21,3470           13475                           BZF      INHOLD                                #  IF THIS IS THE CASE, BYPASS ADDITION
000229:                                                                                                  #  OF WBODY AND GO TO INHOLD
000230: 21,3471           00006                           EXTEND
000231: 21,3472           51507                           INDEX    DPNDX
000232: 21,3473           41526                           DCS      WBODY
000233: 21,3474           21516                           DAS      EDOT                                  #  = ADOT-WBODY
000234: 21,3475           51506        INHOLD             INDEX    SPNDX
000235: 21,3476           31567                           CA       ERRORX
000236: 21,3477           55517                           TS       AERR                                  #  AERR = BIAS + AK
000237:
000238: 21,3500           11515                           CCS      EDOT
000239: 21,3501           13511                           TCF      POSVEL
000240: 21,3502           13504                           TCF      SIGNCK1
000241: 21,3503           13521                           TCF      NEGVEL
000242: 21,3504           11516        SIGNCK1            CCS      EDOT       +1
000243: 21,3505           13511                           TCF      POSVEL
000244: 21,3506           13511                           TCF      POSVEL
000245: 21,3507           13521                           TCF      NEGVEL
000246: 21,3510           13521                           TCF      NEGVEL
000247: 21,3511           00006        POSVEL             EXTEND
000248: 21,3512           31516                           DCA      EDOT
000249: 21,3513           53521                           DXCH     EDOTVEL
000250: 21,3514           31502                           CA       T5TEMP
000251: 21,3515           55523                           TS       ADBVEL                                #  +(ADB+AF)
000252: 21,3516           31517                           CA       AERR
000253: 21,3517           55522                           TS       AERRVEL
000254: 21,3520           03530                           TC       J6.
000255: 21,3521           00006        NEGVEL             EXTEND
000256: 21,3522           41516                           DCS      EDOT
000257: 21,3523           53521                           DXCH     EDOTVEL
000258: 21,3524           41502                           CS       T5TEMP
000259: 21,3525           55523                           TS       ADBVEL                                #  -(ADB+AF)
000260: 21,3526           41517                           CS       AERR
000261: 21,3527           55522                           TS       AERRVEL
000262:
000263: 21,3530           00006        J6.                EXTEND
000264: 21,3531           61655                           SU       ADB
000265: 21,3532           63442                           AD       WLH/SLOP
000266: 21,3533           00006                           EXTEND
000267: 21,3534           63563                           BZMF     J8
000268:
000269: 21,3535           41502                           CS       T5TEMP                                #  (ADB+AF)
000270: 21,3536           61522                           AD       AERRVEL
000271: 21,3537           00006                           EXTEND
000272: 21,3540           63542                           BZMF     +2
000273: 21,3541           13554                           TCF      J7
000274: 21,3542           00006                           EXTEND
000275: 21,3543           41521                           DCS      EDOTVEL
000276: 21,3544           00006                           EXTEND
000277: 21,3545           11654                           DV       SLOPE
000278: 21,3546           00006                           EXTEND
000279: 21,3547           61522                           SU       AERRVEL
000280: 21,3550           61655                           AD       ADB
000281: 21,3551           00006                           EXTEND
000282: 21,3552           63642                           BZMF     J18
000283: 21,3553           13716                           TCF      J23
000284:
000285: 21,3554           43443        J7                 CS       WL-H/SLP
000286: 21,3555           00006                           EXTEND
000287: 21,3556           61502                           SU       T5TEMP                                #  (ADB+AF)
000288: 21,3557           61522                           AD       AERRVEL
000289: 21,3560           00006                           EXTEND
000290: 21,3561           63646                           BZMF     J20
000291: 21,3562           13657                           TCF      J21
000292:
000293: 21,3563           00006        J8                 EXTEND
000294: 21,3564           43445                           DCS      WLH
000295: 21,3565           53514                           DXCH     WTEMP
000296: 21,3566           00006                           EXTEND
000297: 21,3567           31521                           DCA      EDOTVEL
000298: 21,3570           21514                           DAS      WTEMP
000299: 21,3571           11513                           CCS      WTEMP
000300: 21,3572           13705                           TCF      J22
000301: 21,3573           13575                           TCF      SIGNCK2
000302: 21,3574           13601                           TCF      NJ22
000303: 21,3575           11514        SIGNCK2            CCS      WTEMP      +1
000304: 21,3576           13705                           TCF      J22
000305: 21,3577           13705                           TCF      J22
000306: 21,3600           13601                           TCF      NJ22
000307:
000308: 21,3601           00006        NJ22               EXTEND
000309: 21,3602           31521                           DCA      EDOTVEL
000310: 21,3603           00006                           EXTEND
000311: 21,3604           11654                           DV       SLOPE
000312: 21,3605           61502                           AD       T5TEMP                                #  (ADB+AF)
000313: 21,3606           61522                           AD       AERRVEL
000314: 21,3607           10000                           CCS      A
000315: 21,3610           13716                           TCF      J23
000316: 21,3611           13716                           TCF      J23
000317: 21,3612           13614                           TCF      +2
000318: 21,3613           13716                           TCF      J23
000319:
000320: 21,3614           00006                           EXTEND
000321: 21,3615           43447                           DCS      WLMH                                  #  WL - H
000322: 21,3616           53514                           DXCH     WTEMP
000323: 21,3617           00006                           EXTEND
000324: 21,3620           31521                           DCA      EDOTVEL
000325: 21,3621           21514                           DAS      WTEMP
000326: 21,3622           11513                           CCS      WTEMP
000327: 21,3623           13716                           TCF      J23
000328: 21,3624           13626                           TCF      SIGNCK3
000329: 21,3625           13632                           TCF      NJ23
000330: 21,3626           11514        SIGNCK3            CCS      WTEMP      +1
000331: 21,3627           13716                           TCF      J23
000332: 21,3630           13716                           TCF      J23
000333: 21,3631           13632                           TCF      NJ23
000334:
000335: 21,3632           31522        NJ23               CA       AERRVEL
000336: 21,3633           61502                           AD       T5TEMP                                #  (ADB+AF)
000337: 21,3634           63443                           AD       WL-H/SLP
000338: 21,3635           10000                           CCS      A
000339: 21,3636           13730                           TCF      J24
000340: 21,3637           13730                           TCF      J24
000341: 21,3640           13705                           TCF      J22
000342: 21,3641           13705                           TCF      J22
000343:
000344: 21,3642           00006        J18                EXTEND
000345: 21,3643           41516                           DCS      EDOT
000346: 21,3644           53511                           DXCH     KMPAC
000347: 21,3645           13741                           TCF      JTIME
000348:
000349: 21,3646           41517        J20                CS       AERR
000350: 21,3647           61523                           AD       ADBVEL
000351: 21,3650           00006                           EXTEND
000352: 21,3651           73452                           MP       SLOPE2                                #  (HYSTERESIS SLOPE)
000353: 21,3652           53511                           DXCH     KMPAC
000354: 21,3653           00006                           EXTEND
000355: 21,3654           41516                           DCS      EDOT
000356: 21,3655           21511                           DAS      KMPAC
000357: 21,3656           13741                           TCF      JTIME
000358:
000359: 21,3657           11515        J21                CCS      EDOT
000360: 21,3660           13676                           TCF      JP
000361: 21,3661           13663                           TCF      SIGNCK4
000362: 21,3662           13667                           TCF      JN
000363: 21,3663           11516        SIGNCK4            CCS      EDOT       +1
000364: 21,3664           13676                           TCF      JP
000365: 21,3665           13676                           TCF      JP
000366: 21,3666           13667                           TCF      JN
000367: 21,3667           00006        JN                 EXTEND
000368: 21,3670           41516                           DCS      EDOT
000369: 21,3671           53511                           DXCH     KMPAC
000370: 21,3672           00006                           EXTEND
000371: 21,3673           33451                           DCA      WL
000372: 21,3674           21511                           DAS      KMPAC
000373: 21,3675           13741                           TCF      JTIME
000374:
000375: 21,3676           00006        JP                 EXTEND
000376: 21,3677           41516                           DCS      EDOT
000377: 21,3700           53511                           DXCH     KMPAC
000378: 21,3701           00006                           EXTEND
000379: 21,3702           43451                           DCS      WL
000380: 21,3703           21511                           DAS      KMPAC
000381: 21,3704           13741                           TCF      JTIME
000382:
000383: 21,3705           11515        J22                CCS      EDOT
000384: 21,3706           13667                           TCF      JN
000385: 21,3707           13711                           TCF      SIGNCK5
000386: 21,3710           13676                           TCF      JP
000387: 21,3711           11516        SIGNCK5            CCS      EDOT       +1
000388: 21,3712           13667                           TCF      JN
000389: 21,3713           13667                           TCF      JN
000390: 21,3714           13676                           TCF      JP
000391: 21,3715           13676                           TCF      JP
000392:
000393: 21,3716           51506        J23                INDEX    SPNDX
000394: 21,3717           45017                           CS       BIT13                                 #  RESET RATE DAMPING FLAG
000395: 21,3720           71501                           MASK     RCSFLAGS                              #  BIT13 FOR ROLL  (SPNDX = 0)
000396: 21,3721           55501                           TS       RCSFLAGS                              #  BIT12 FOR PITCH (SPNDX = 1)
000397:                                                                                                  #  BIT11 FOR YAW   (SPNDX = 2)
000398:
000399: 21,3722           51506                           INDEX    SPNDX
000400: 21,3723           33045                           CAF      OCT01400                              #  IS THERE TO BE A FORCED FIRING ON THIS
000401: 21,3724           71501                           MASK     RCSFLAGS                              #  AXIS
000402: 21,3725           00006                           EXTEND
000403: 21,3726           13762                           BZF      DOJET      +2                         #  NO, GO TO DOJET +2 AND DO NOTHING
000404:
000405: 21,3727           13642                           TCF      J18                                   #  YES, GO TO J18 AND FORCE A FIRING
000406:
000407: 21,3730           41517        J24                CS       AERR
000408: 21,3731           00006                           EXTEND
000409: 21,3732           61523                           SU       ADBVEL
000410: 21,3733           00006                           EXTEND
000411: 21,3734           73452                           MP       SLOPE2                                #  (HYSTERESIS SLOPE)
000412: 21,3735           53511                           DXCH     KMPAC
000413: 21,3736           00006                           EXTEND
000414: 21,3737           41516                           DCS      EDOT
000415: 21,3740           21511                           DAS      KMPAC
000416:
000417:                                                                                                  #  COMPUTE THE JET ON TIME NECESSARY TO ACCOMPLISH THE DESIRED CHANGE IN RATE, IE
000418:
000419:                                                                                                  #             T  = J/M(DELTA W)
000420:                                                                                                  #              J
000421:
000422:                                                                                                  #        DELTA W = DESIRED CHANGE IN S/C ANGULAR RATE AS DETERMINED BY THE
000423:                                                                                                  #                  SWITCHING LOGIC, AT THIS POINT STORED IN KMPAC.
000424:
000425:                                                                                                  #            J/M = S/C INERTIA TO TORQUE 9ATIO SCALED BY
000426:                                                                                                  #                        (57.3/450)(B24/1600)(1/.8)
000427:                                                                                                  #                  FOR 1 JET OPERATION  (M = 700 FT-LB).
000428:                                                                                                  #                  IE J/M = J(SLUG-FTFT) X 0.00000085601606
000429:
000430:                                                                                                  #                  THE CORRESPONDING COMPUTER VARIABLES ESTABLISHED BY
000431:                                                                                                  #                  KEYBOARD ENTRY ARE
000432:                                                                                                  #                        J/M  (ROLL)
000433:                                                                                                  #                        J/M1 (PITCH)
000434:                                                                                                  #                        J/M2 (YAW)
000435:
000436:                                                                                                  #             T  = JET ON-TIME    SCALED 16384/1600 SEC
000437:                                                                                                  #              J
000438:
000439:                                                                                                  #                  THE COMPUTER VARIABLES ARE
000440:                                                                                                  #                        TAU  (ROLL)
000441:                                                                                                  #                        TAU1 (PITCH)
000442:                                                                                                  #                        TAU2 (YAW)
000443:
000444: 21,3741           51506        JTIME              INDEX    SPNDX                                 #  PICK UP S/C INERTIA/TORQUE RATIO
000445: 21,3742           31623                           CA       J/M                                   #  SCALED (57.3/450)(B24/1600)
000446: 21,3743           02054                           TC       SMALLMP                               #  FOR 1-JET OPERATION
000447: 21,3744           35021                           CA       BIT11
000448: 21,3745           02054                           TC       SMALLMP
000449: 21,3746           11510                           CCS      KMPAC
000450: 21,3747           13753                           TCF      +4
000451: 21,3750           13757                           TCF      TAUNORM
000452: 21,3751           13755                           TCF      +4
000453: 21,3752           13757                           TCF      TAUNORM
000454: 21,3753           35013                           CA       POSMAX
000455: 21,3754           13760                           TCF      DOJET
000456: 21,3755           35015                           CA       NEGMAX
000457: 21,3756           13760                           TCF      DOJET
000458:
000459: 21,3757           31511        TAUNORM            CA       KMPAC      +1
000460: 21,3760           51506        DOJET              INDEX    SPNDX
000461: 21,3761           55561                           TS       TAU
000462: 21,3762           11506                           CCS      SPNDX
000463: 21,3763           13457                           TCF      JLOOP
000464: 21,3764           13771                           TCF      T6PROG
000465:
000466: 21,3765           35035        ZEROCMDS           CAF      ZERO
000467: 21,3766           55561                           TS       TAU
000468: 21,3767           55562                           TS       TAU1
000469: 21,3770           55563                           TS       TAU2
000470: 21,3771           00006        T6PROG             EXTEND                                         #  WHEN THE ROTATION COMMANDS (TAUS)
000471: 21,3772           33776                           DCA      JETADDR                               #  HAVE BEEN DETERMINED
000472: 21,3773           53313                           DXCH     T5LOC                                 #  RESET T5LOC FOR PHASE3
000473: 21,3774           15347                           TCF      RESUME
000474:
000475: 21,3775  E6,1510                                  EBANK=   KMPAC
000476: 21,3775           02610 36066  JETADDR            2CADR    JETSLECT
000477:

End of include-file AUTOMATIC_MANEUVERS.agc.  Parent file is MAIN.agc


