
Source Code


000002:                                                                                                  ## Copyright:   Public domain.
000003:                                                                                                  ## Filename:    CM_BODY_ATTITUDE.agc
000004:                                                                                                  ## Purpose:     A section of Manche72 revision 3.
000005:                                                                                                  ##              It is part of the reconstructed source code for the final, flown
000006:                                                                                                  ##              release of the software for the Command Module's (CM) Apollo
000007:                                                                                                  ##              Guidance Computer (AGC) for Apollo 13. No original listings
000008:                                                                                                  ##              of this program are available; instead, this file was recreated
000009:                                                                                                  ##              from a reconstructed copy of Comanche 072. It has been adapted
000010:                                                                                                  ##              such that the resulting bugger words exactly match those
000011:                                                                                                  ##              specified for Manche72 revision 3 in NASA drawing 2021153G,
000012:                                                                                                  ##              which gives relatively high confidence that the reconstruction
000013:                                                                                                  ##              is correct.
000014:                                                                                                  ## Assembler:   yaYUL
000015:                                                                                                  ## Contact:     Ron Burkey <info@sandroid.org>.
000016:                                                                                                  ## Website:     www.ibiblio.org/apollo/index.html
000017:                                                                                                  ## Mod history: 2024-05-19 MAS  Created from Comanche 072.
000018:
000019: 35,3477                                           BANK     35
000020:
000021: 37,2000                                           SETLOC   BODYATT
000022: 37,2000                                           BANK
000023:
000024: 37,3473                                           COUNT    37/CMBAT
000025:
000026:                                                                                                  #  PDL 12D - 15D SAFE.
000027:
000028:                                                                                                  #  VALUES OF GIMBAL AND BODY ANGLES VALID AT PIP TIME ARE SAVED DURING  READACCS.
000029:
000030: 37,3473  E7,1451                                  EBANK=   RTINIT                                #  LET INTERPRETER SET EB
000031:
000032: 37,3473           06006        CM/POSE            TC       INTPRET                               #  COME HERE VIA AVEGEXIT.
000033:
000034: 37,3474           77201                           SETPD    VLOAD
000035: 37,3475           00001                                    0
000036: 37,3476           01177                                    VN                                    #  KVSCALE = (12800/ .3048) /2VS
000037: 37,3477           63361                           VXSC     PDVL
000038: 37,3500           37772                                    -KVSCALE                              #  KVSCALE = .81491944
000039: 37,3501           01714                                    UNITW                                 #  FULL UNIT VECTOR
000040: 37,3502           74235                           VXV      VXSC                                  #  VREL = V - WE*R
000041: 37,3503           01760                                    UNITR
000042: 37,3504           15244                                    KWE
000043: 37,3505           45455                           VAD      STADR
000044: 37,3506           74251                           STORE    -VREL                                 #  SAVE FOR ENTRY GUIDANCE.      REF COORDS
000045:
000046: 37,3507           72056                           UNIT     LXA,1
000047: 37,3510           00044                                    36D                                   #  ABVAL( -VREL) TO X1
000048: 37,3511           03542                           STORE    UXA/2                                 #  -UVREL                        REF COORDS
000049:
000050: 37,3512           57435                           VXV      VCOMP
000051: 37,3513           01760                                    UNITR                                 #  .5 UNIT                       REF COORDS
000052: 37,3514           66256                           UNIT     SSP                                   #  THE FOLLOWING IS TO PROVIDE A STABLE
000053: 37,3515           00051                                    S1                                    #  UN FOR THE END OF THE TERMINAL PHASE.
000054: 37,3516           00476        SPVQUIT            DEC      .019405                               #  1000/ 2 VS
000055: 37,3517           77300                           TIX,1    VLOAD                                 #  IF V-VQUIT POS, BRANCH.
000056: 37,3520           77522                                    CM/POSE2                              #  SAVE UYA IN OLDUYA
000057: 37,3521           03534                                    OLDUYA                                #  OTHERWISE CONTINUE TO USE OLDUYA.
000058: 37,3522           03550        CM/POSE2           STORE    UYA/2                                 #                                REF COORDS
000059:
000060: 37,3523           03534                           STORE    OLDUYA                                #  RESTORE, OR SAVE AS CASE MAY BE.
000061:
000062: 37,3524           57435                           VXV      VCOMP
000063: 37,3525           03542                                    UXA/2                                 #  FINISH OBTAINING TRAJECTORY TRIAD.
000064: 37,3526           77772                           VSL1
000065: 37,3527           03556                           STORE    UZA/2                                 #                                REF COORDS
000066: 37,3530           77751                           TLOAD                                          #  PICK UP CDUX, CDUY, CDUZ CORRESPONDING
000067: 37,3531           03270                                    AOG/PIP                               #  TO PIPUP TIME IN 2S,C AND SAVE.
000068: 37,3532           14031        CM/TRIO            STODL    24D
000069: 37,3533           00032                                    25D                                   #  AIG/PIP
000070:
000071: 37,3534           41434                           RTB      PUSH                                  #  TO PDL0
000072: 37,3535           45513                                    CDULOGIC
000073: 37,3536           77746                           COS
000074: 37,3537           17564                           STODL    UBX/2                                 #  CI /2
000075:                                                                                                  #  AIG/PIP FROM PDL 0
000076: 37,3540           57556                           SIN      DCOMP
000077: 37,3541           17570                           STODL    UBX/2      +4                         #  -SI /2
000078: 37,3542           00033                                    26D                                   #  AMG/PIP
000079: 37,3543           41434                           RTB      PUSH                                  #  TO PDL 0
000080: 37,3544           45513                                    CDULOGIC
000081: 37,3545           65356                           SIN      PDDL                                  #  XCH PDL 0.  SAVE SM /2
000082: 37,3546           65346                           COS      PDDL                                  #  CM /2 TO PDL 2
000083: 37,3547           00001                                    0                                     #  SM /2
000084: 37,3550           74276                           DCOMP    VXSC
000085: 37,3551           03564                                    UBX/2
000086: 37,3552           77772                           VSL1                                           #  NOISE WONT OVFL.
000087: 37,3553           17572                           STODL    UBY/2                                 #  =(-SMCI, NOISE, SMSI)/2
000088: 37,3554           00003                                    2                                     #  CM /2 REPLACES NOISE
000089: 37,3555           17574                           STODL    UBY/2      +2                         #  UBY/2=(-SMCI, CM, SMSI)/2
000090: 37,3556           00031                                    24D                                   #  AOG/PIP
000091: 37,3557           41434                           RTB      PUSH                                  #  TO PDL 4
000092: 37,3560           45513                                    CDULOGIC
000093: 37,3561           65356                           SIN      PDDL                                  #  XCH PDL 4.  SAVE SO /2
000094: 37,3562           74346                           COS      VXSC                                  #  CO /2
000095: 37,3563           03572                                    UBY/2
000096: 37,3564           17572                           STODL    UBY/2                                 #  UBY/2=(-COSMCI, COCM, COSMSI)/4
000097: 37,3565           00005                                    4D                                    #  SO /2
000098: 37,3566           57405                           DMP      DCOMP
000099: 37,3567           03570                                    UBX/2      +4                         #  -SI /2
000100: 37,3570           77615                           DAD
000101: 37,3571           03572                                    UBY/2                                 #  INCREMENT BY (SOSI /4)
000102: 37,3572           17572                           STODL    UBY/2
000103:                                                                                                  #  SO /2 FROM PDL 4
000104: 37,3573           43205                           DMP      DAD
000105: 37,3574           03564                                    UBX/2                                 #  CI /2
000106: 37,3575           03576                                    UBY/2      +4
000107: 37,3576           27576                           STOVL    UBY/2      +4                         #  YB/4                          PLATFORM COORDS
000108:
000109:                                                                                                  #  YB = (-COSMCI + SOSI , COCM , COSMSI + SOCI )
000110:
000111: 37,3577           03572                                    UBY/2
000112: 37,3600           72505                           VXM      VSL2
000113: 37,3601           01736                                    REFSMMAT                              #  .5 UNIT
000114: 37,3602           17572                           STODL    UBY/2                                 #  YB/2 DONE                     REF COORDS
000115:                                                                                                  #  CM /2 FROM PDL 2
000116: 37,3603           76561                           VXSC     VSL1
000117: 37,3604           03564                                    UBX/2
000118: 37,3605           17564                           STODL    UBX/2                                 #  =( CMCI, NOISE, -CMSI)/2
000119: 37,3606           77626                           STADR                                          #  SM /2 FROM PDL 0
000120: 37,3607           50211                           STOVL    UBX/2      +2                         #  SM /2 REPLACES NOISE
000121: 37,3610           03564                                    UBX/2                                 #  XB/2                          PLATFORM COORDS
000122:
000123:                                                                                                  #  XB = ( CMCI , SM , -CMSI )
000124:
000125: 37,3611           76505                           VXM      VSL1
000126: 37,3612           01736                                    REFSMMAT                              #  .5 UNIT
000127: 37,3613           03564                           STORE    UBX/2                                 #  XB/2 DONE                     REF COORDS
000128:
000129: 37,3614           76435                           VXV      VSL1
000130: 37,3615           03572                                    UBY/2
000131: 37,3616           27600                           STOVL    UBZ/2                                 #  ZB/2 DONE                     REF COORDS
000132:
000133:                                                                                                  #  EQUIVALENT TO
000134:                                                                                                  #  ZB = ( SOSMCI + COSI , -SOCM , -SOSMSI + COCI )
000135:
000136: 37,3617           03542                                    UXA/2                                 #  -UVREL/2 = -UVA/2
000137: 37,3620           53435                           VXV      UNIT                                  #  GET UNIT(-UVREL*UBY)/2 = UL/2
000138: 37,3621           03572                                    UBY/2                                 #  YB/2
000139: 37,3622           50206                           PUSH     DOT                                   #  UL/2 TO PDL 0,5
000140: 37,3623           03556                                    UZA/2                                 #  UNA/2
000141: 37,3624           24021                           STOVL    COSTH                                 #  COS(ROLL)/4
000142: 37,3625           00001                                    0                                     #  UL/2
000143:
000144: 37,3626           77641                           DOT
000145: 37,3627           03550                                    UYA/2
000146: 37,3630           34023                           STCALL   SINTH                                 #  -SIN(ROLL)/4
000147: 37,3631           47260                                    ARCTRIG
000148: 37,3632           24007                           STOVL    6D                                    #  -(ROLL/180) /2
000149: 37,3633           03572                                    UBY/2
000150: 37,3634           72441                           DOT      SL1                                   #  -UVA.UBY = -SIN(BETA)
000151: 37,3635           03542                                    UXA/2                                 #  -UVREL/2
000152: 37,3636           77736                           ARCSIN
000153: 37,3637           24010                           STOVL    7D                                    #  -(BETA/180) /2
000154: 37,3640           03564                                    UBX/2                                 #  XB/2
000155: 37,3641           77641                           DOT                                            #  UL.UBX = -SIN(ALFA)
000156: 37,3642           00001                                    0                                     #  UL/2
000157: 37,3643           24023                           STOVL    SINTH                                 #  -SIN(ALFA)/4
000158: 37,3644           77641                           DOT                                            #  UL/2 FROM PDL 0
000159: 37,3645           03600                                    UBZ/2
000160: 37,3646           34021                           STCALL   COSTH                                 #  COS(ALFA)/4
000161: 37,3647           47260                                    ARCTRIG
000162: 37,3650           24011                           STOVL    8D                                    #  -(ALFA/180) /2
000163: 37,3651           01760                                    UNITR                                 #  UR/2                          REF COORDS
000164: 37,3652           72441                           DOT      SL1
000165: 37,3653           03556                                    UZA/2                                 #  MORE ACCURATE AT LARGE ARG.
000166: 37,3654           77726                           ARCCOS
000167: 37,3655           00013                           STORE    10D                                   #  (-GAMA/180)/2
000168:
000169: 37,3656           77551                           TLOAD    EXIT                                  #  ANGLES IN MPAC IN THE ORDER
000170:                                                                                                  #  -( (ROLL, BETA, ALFA) /180)/2
000171: 37,3657           00007                                    6D                                    #  THESE VALUES CORRECT AT PIPUP TIME.
000172:
000173:                                                                                                  #  SPACER
000174:                                                                                                  #  BASIC SUBROUTINE TO UPDATE ATTITUDE ANGLES
000175:
000176: 37,3660  E6,1661                                  EBANK=   AOG
000177:
000178: 37,3660           35073        CM/ATUP            CA       EBAOG
000179: 37,3661           54003                           TS       EBANK
000180: 37,3662           50120        CMTR1              INDEX    FIXLOC
000181: 37,3663           40012                           CS       10D                                   #  (GAMA/180)/2
000182: 37,3664           57722                           XCH      GAMA
000183: 37,3665           54001                           TS       L
000184:
000185: 37,3666           00004                           INHINT
000186:                                                                                                  #  MUST REMAIN INHINTED UNTIL UPDATE OF BODY
000187:                                                                                                  #  ANGLES, SO THAT GAMDIFSW IS VALID FIRST PASS
000188:                                                                                                  #  INDICATOR.
000189:
000190: 37,3667           40102                           CS       CM/FLAGS
000191: 37,3670           75021                           MASK     BIT11                                 #  GAMDIFSW=94D BIT11    INITLY=0
000192: 37,3671           00006                           EXTEND                                         #  DONT CALC GAMA DOT UNTIL HAVE FORMD
000193:                                                                                                  #  ONE DIFFERENCE.
000194: 37,3672           13675                           BZF      DOGAMDOT                              #  IS OK, GO ON.
000195: 37,3673           26102                           ADS      CM/FLAGS                              #  KNOW BIT IS 0
000196: 37,3674           03710                           TC       NOGAMDOT                              #  SET GAMDOT = 0
000197:
000198: 37,3675           40001        DOGAMDOT           CS       L
000199: 37,3676           61722                           AD       GAMA                                  #  DEL GAMA/360= T GAMDOT/360
000200: 37,3677           00006                           EXTEND
000201: 37,3700           73773                           MP       TCDU                                  #  TCDU = .1 SEC, T = 2 SEC.
000202: 37,3701           55723                           TS       GAMDOT                                #  GAMA DOT TCDU / 180
000203:
000204: 37,3702           00006                           EXTEND                                         #  IGNORE GAMDOT IF LEQ .5 DEG/SEC
000205: 37,3703           63705                           BZMF     +2
000206: 37,3704           40000                           COM
000207: 37,3705           65036                           AD       FIVE
000208: 37,3706           00006                           EXTEND
000209: 37,3707           63712                           BZMF     +3                                    #  SET GAMDOT=+0 AS TAG IF TOO SMALL.
000210:
000211: 37,3710           35035        NOGAMDOT           CA       ZERO                                  #  COME HERE INHINTED.
000212: 37,3711           55723                           TS       GAMDOT
000213:                                                                                                  #  FOR NOW LEAVE IN 2S,C
000214:                                                                                                  #  UPDATE ANGLES BY CORRECTING EUILER ANG
000215:                                                                                                  #  FOR ACCRUED INCREMENT SINCE PIPUP
000216:                                                                                                  #  R = R EUIL + R(NOW) - R(PIPUP)
000217: 37,3712           40154                           CS       MPAC                                  #  GET (R EUL/180) /2
000218: 37,3713           60000                           DOUBLE                                         #  POSSIBLE OVERFLOW
000219: 37,3714           03763                           TC       CORANGOV                              #  CORRECT FOR OVFL IF ANY
000220: 37,3715           00006                           EXTEND
000221: 37,3716           61672                           SU       ROLL/PIP                              #  GET INCR SINCE PIPUP
000222: 37,3717           61664                           AD       ROLL/180                              #  ONLY SINGLE OVFL POSSIBLE.
000223: 37,3720           03763                           TC       CORANGOV                              #  CORRECT FOR OVFL IF ANY
000224: 37,3721           55770                           TS       TEMPROLL
000225:
000226: 37,3722           40156                           CS       MPAC       +2                         #  GET (ALFA EUL/180) /2
000227: 37,3723           60000                           DOUBLE                                         #  SAME AS FOR ROLL.  NEEDED FOR EXT ATM DAP
000228: 37,3724           03763                           TC       CORANGOV                              #  CORRECT FOR OVFL IF ANY
000229: 37,3725           00006                           EXTEND
000230: 37,3726           61673                           SU       ALFA/PIP
000231: 37,3727           61665                           AD       ALFA/180
000232: 37,3730           03763                           TC       CORANGOV                              #  CORRECT FOR OVFL IF ANY
000233: 37,3731           55771                           TS       TEMPALFA
000234:
000235: 37,3732           40155                           CS       MPAC       +1                         #  GET (BETA EUL/180) /2
000236: 37,3733           60000        CMTR2              DOUBLE
000237: 37,3734           00006                           EXTEND
000238: 37,3735           61674                           SU       BETA/PIP
000239: 37,3736           61666                           AD       BETA/180
000240: 37,3737           57772                           XCH      TEMPBETA                              #  OVFL NOT EXPECTED.
000241:
000242: 37,3740           35065                           CA       EBANK3
000243: 37,3741           54003                           TS       EBANK
000244:
000245: 37,3742  E3,1446                                  EBANK=   PHSNAME5
000246: 37,3742           00006                           EXTEND
000247: 37,3743           33775                           DCA      REPOSADR                              #  THIS ASSUMES THAT THE         TC  PHASCHNG
000248: 37,3744           53447                           DXCH     PHSNAME5                              #  IS NOT CHANGED IN             OCT 10035
000249:                                                                                                  #  SERVICER.
000250:
000251: 37,3745           35073                           CA       EBAOG
000252: 37,3746           54003                           TS       EBANK
000253:
000254: 37,3747  E6,1661                                  EBANK=   AOG
000255: 37,3747           00006        REDOPOSE           EXTEND                                         #  RE-STARTS COME HERE
000256: 37,3750           31771                           DCA      TEMPROLL
000257: 37,3751           53665                           DXCH     ROLL/180
000258: 37,3752           31772                           CA       TEMPBETA
000259: 37,3753           55666                           TS       BETA/180
000260:
000261: 37,3754           00003                           RELINT
000262:
000263: 37,3755           06006                           TC       INTPRET                               #  CANT TC DANZIG AFTER PHASCHNG.
000264: 37,3756           51575        CM/POSE3           VLOAD    ABVAL                                 #  RETURN FROM CM/ATUP.  (RESTART)
000265: 37,3757           01177                                    VN                                    #  2(-7) M/CS
000266: 37,3760           03723                           STORE    VMAGI                                 #  FOR DISPLAY ON CALL.
000267:
000268: 37,3761           77650                           GOTO
000269: 37,3762           03324                                    POSEXIT                               #  ENDEXIT, STARTENT, OR SCALEPOP.
000270:
000271: 37,3763           54001        CORANGOV           TS       L
000272: 37,3764           00002                           TC       Q
000273: 37,3765           50000                           INDEX    A
000274: 37,3766           35014                           CA       LIMITS
000275: 37,3767           26001                           ADS      L
000276: 37,3770           00002                           TC       Q                                     #  COSTS 2 MCT TO USE.  SEE ANGOVCOR.
000277:
000278: 37,3771           45730 53410  -KVSCALE           2DEC     -.81491944                            #  -12800/(2 VS .3048)
000279:
000280: 37,3773           03146        TCDU               DEC      .1                                    #  TCDU = .1 SEC.
000281:
000282: 37,3774  E6,1661                                  EBANK=   AOG
000283: 37,3774           03747 76066  REPOSADR           2CADR    REDOPOSE
000284:

End of include-file CM_BODY_ATTITUDE.agc.  Parent file is MAIN.agc


