
Source Code


000002:                                                                                                  ## Copyright:   Public domain.
000003:                                                                                                  ## Filename:    CM_ENTRY_DIGITAL_AUTOPILOT.agc
000004:                                                                                                  ## Purpose:     A section of Manche72 revision 3.
000005:                                                                                                  ##              It is part of the reconstructed source code for the final, flown
000006:                                                                                                  ##              release of the software for the Command Module's (CM) Apollo
000007:                                                                                                  ##              Guidance Computer (AGC) for Apollo 13. No original listings
000008:                                                                                                  ##              of this program are available; instead, this file was recreated
000009:                                                                                                  ##              from a reconstructed copy of Comanche 072. It has been adapted
000010:                                                                                                  ##              such that the resulting bugger words exactly match those
000011:                                                                                                  ##              specified for Manche72 revision 3 in NASA drawing 2021153G,
000012:                                                                                                  ##              which gives relatively high confidence that the reconstruction
000013:                                                                                                  ##              is correct.
000014:                                                                                                  ## Assembler:   yaYUL
000015:                                                                                                  ## Contact:     Ron Burkey <info@sandroid.org>.
000016:                                                                                                  ## Website:     www.ibiblio.org/apollo/index.html
000017:                                                                                                  ## Mod history: 2024-05-19 MAS  Created from Comanche 072.
000018:
000019:                                                                                                  #  SUBROUTINE TO READ GYMBAL ANGLES AND FORM DIFFERENCES.  GIMBAL ANGLES ARE SAVED IN 2S COMPLEMENT, BUT THE
000020:                                                                                                  #  DIFFERENCES ARE IN 1S COMP.  ENTER AND READ ANGLES EACH .1 SEC.
000021:
000022:                                                                                                  #        CM/DSTBY = 1 FOR DAP OPERATION
000023:                                                                                                  #        CM/DSTBY = 0 TO TERMINATE DAP OPERATION.
000024:
000025: 15,2454                                           BANK     15
000026:
000027: 15,2000                                           SETLOC   ETRYDAP
000028: 15,2000                                           BANK
000029:
000030: 15,2454                                           COUNT    15/DAPEN
000031:
000032: 15,2454  E6,1661                                  EBANK=   AOG
000033:
000034: 15,2454           34377        READGYMB           CA       TEN                                   #  KEEP RESTART DT GOING RELATIVE TO
000035: 15,2455           27725                           ADS      CM/GYMDT                              #  PIPTIME.  (GROUP 6)
000036:
000037:                                                                                                  #  IF A RESTART OCCURS, SKIP PRESENT CYCLE.  THE
000038:                                                                                                  #  PHASCHNG PROTECTION IS IN CM/DAPIC.
000039:
000040: 15,2456           35026                           CA       BIT6                                  #  CHECK FOR FINE ALIGN MODE OF CDU.
000041: 15,2457           71321                           MASK     IMODES33                              #  (PROTECT AOG/PIP ETC AS WELL AS
000042: 15,2460           00006                           EXTEND                                         #  GIMBAL DIFFERENCES)
000043: 15,2461           12467                           BZF      READGYM1                              #  OK
000044:
000045: 15,2462           45033                           CS       BIT1                                  #  NOT IN FINE ALIGN, SO IDLE.
000046: 15,2463           70102                           MASK     CM/FLAGS                              #  SET GYMDIFSW = 0
000047: 15,2464           54102                           TS       CM/FLAGS
000048: 15,2465           06000                           TC       FLUSHJET                              #  QUENCH JETS, SINCE MAY BE A WHILE.
000049: 15,2466           02534                           TC       CM/GYMIC   +2
000050:
000051: 15,2467           30032        READGYM1           CA       CDUX
000052: 15,2470           57661                           XCH      AOG
000053: 15,2471           00006                           EXTEND
000054: 15,2472           21661                           MSU      AOG                                   #  -DELAOG=AOG(N-1) - AOG(N)
000055: 15,2473           55675                           TS       -DELAOG
000056:
000057: 15,2474           30033                           CA       CDUY
000058: 15,2475           57662                           XCH      AIG
000059: 15,2476           00006                           EXTEND
000060: 15,2477           21662                           MSU      AIG
000061: 15,2500           55676                           TS       -DELAIG
000062:
000063: 15,2501           30034                           CA       CDUZ
000064: 15,2502           57663                           XCH      AMG
000065: 15,2503           00006                           EXTEND
000066: 15,2504           21663                           MSU      AMG
000067: 15,2505           55677                           TS       -DELAMG
000068:
000069: 15,2506           40102        DOBRATE?           CS       CM/FLAGS                              #  CM/DSTBY=103D BIT2  GYMDIFSW=104D BIT1
000070: 15,2507           76214                           MASK     THREE
000071: 15,2510           50000                           INDEX    A
000072: 15,2511           02512                           TC       +1
000073: 15,2512           02521                           TC       DOBRATE                               #  OK, GO ON
000074: 15,2513           02532                           TC       CM/GYMIC                              #  DONT CALC BODYRATE ON FIRST PASS.
000075: 15,2514           12515                           NOOP
000076: 15,2515           06000                           TC       FLUSHJET                              #  TURN OFF ALL JETS
000077:
000078: 15,2516           05426                           TC       PHASCHNG
000079: 15,2517           00006                           OCT      00006                                 #  DEACTIVATE DAP GROUP 6.
000080:
000081: 15,2520           05340                           TC       TASKOVER
000082:
000083: 15,2521           35033        DOBRATE            CA       ONE                                   #  DO BODYRATE
000084: 15,2522           55720        DOBRATE1           TS       JETEM                                 #  SKIP BODYRATE.
000085:
000086: 15,2523           34377                           CA       TEN                                   #  KEEP CDU READ GOING.
000087: 15,2524           05261                           TC       WAITLIST
000088: 15,2525  E6,1661                                  EBANK=   AOG
000089: 15,2525           02454 32066                     2CADR    READGYMB
000090:
000091:                                                                                                  #  DOES NOT PROTECT TEMK, SQ IN SPSIN/COS
000092:
000093: 15,2527           11720                           CCS      JETEM
000094: 15,2530           02556                           TC       BODYRATE
000095: 15,2531           05340                           TC       TASKOVER                              #  SKIP CALC ON INITIAL PASS.  (PASSES)
000096:
000097: 15,2532           26102        CM/GYMIC           ADS      CM/FLAGS                              #  GYMDIFSW:  C(A)=1, KNOW BIT IS 0
000098: 15,2533           35035                           CAF      ZERO
000099: 15,2534           55711                           TS       JETAG
000100: 15,2535           55706                           TS       OLDELP
000101: 15,2536           55707                           TS       OLDELQ
000102: 15,2537           55710                           TS       OLDELR
000103: 15,2540           55723                           TS       GAMDOT                                #  NO GYM DIF, PROB NO GAM DIF.
000104: 15,2541           02522                           TC       DOBRATE1
000105:
000106:                                                                                                  #  COME HERE TO CORRECT FOR OVERFLOW IN ANGULAR CALCULATIONS
000107:
000108: 15,2542           54001        ANGOVCOR           TS       L                                     #  THIS COSTS 2 MCT TO USE.
000109: 15,2543           00002                           TC       Q                                     #  NO OVFL
000110: 15,2544           50000                           INDEX    A
000111: 15,2545           35014                           CAF      LIMITS
000112: 15,2546           26001                           ADS      L
000113: 15,2547           00002                           TC       Q
000114:
000115:    6000                                           BLOCK    3
000116:
000117:    6000                                           COUNT    03/DAPEN
000118:
000119:    6000           30007        FLUSHJET           CA       7                                     #  COME HERE TO TURN OFF ALL JETS.
000120:    6001           00006                           EXTEND
000121:    6002           01006                           WRITE    ROLLJETS                              #  ZERO CHANNEL 6
000122:    6003           00006                           EXTEND
000123:    6004           01005                           WRITE    PYJETS                                #  ZERO CHANNEL 5
000124:    6005           00002                           TC       Q
000125:
000126: 15,2550                                           BANK     15
000127:
000128: 15,2550                                           COUNT    15/DAPEN
000129:
000130: 15,2000                                           SETLOC   ETRYDAP
000131: 15,2000                                           BANK
000132:
000133: 15,2550           40000        RATEAVG            COM                                            #  SUBROUTINE TO ESTIMATE RATES IN PRESENCE
000134: 15,2551           61720                           AD       JETEM                                 #  OF CONSTANT ACCELERATION.
000135: 15,2552           00006                           EXTEND
000136: 15,2553           75016                           MP       HALF                                  #  DELV (EST) = DELV +(DELV-OLDELV)/2
000137: 15,2554           61720                           AD       JETEM
000138: 15,2555           00002                           TC       Q
000139:
000140:                                                                                                  #  THESE ARE CALLED FOR THE VARIOUS INITIALIZATIONS NEEDED.
000141:
000142: 20,3650                                           BANK     20
000143: 20,2000                                           SETLOC   DAPS1
000144: 20,2000                                           BANK
000145:
000146: 20,3650                                           COUNT    20/DAPEN
000147: 20,3650  E6,1661                                  EBANK=   AOG
000148:
000149: 20,3650           35073        CM/DAPON           CA       EBAOG
000150: 20,3651           54003                           TS       EBANK
000151:
000152: 20,3652           05574                           TC       DOWNFLAG                              #  RESET DAPBIT1.  T5 RESTART IDENTIFIER.
000153: 20,3653           00132                           ADRES    DAPBIT1                               #  BIT 15 FLAG 6         CMFLAGS.
000154: 20,3654           05574                           TC       DOWNFLAG                              #  RESET DAPBIT2
000155: 20,3655           00133                           ADRES    DAPBIT2                               #  BIT 14 FLAG 6
000156: 20,3656           00006                           EXTEND
000157: 20,3657           33775                           DCA      T5IDLER1                              #  DISABLE RCS CALCULATION
000158: 20,3660           53313                           DXCH     T5LOC
000159: 20,3661           00006                           EXTEND
000160: 20,3662           33775                           DCA      T5IDLER1                              #  DISABLE RCS JET CALLS
000161: 20,3663           53311                           DXCH     T6LOC
000162:
000163: 20,3664           06000                           TC       FLUSHJET                              #  JETS DEPARTED ON SM. ZERO JET BITS.
000164:
000165: 20,3665           47707                           CS       13,14,15
000166: 20,3666           71466                           MASK     DAPDATR1                              #  SET CONFIG BITS=0 FOR ENTRY
000167: 20,3667           55466                           TS       DAPDATR1
000168: 20,3670           03674                           TC       +4
000169:
000170: 20,3671           35052        NOTYET             CA       .5SEC
000171: 20,3672           04676                           TC       BANKCALL
000172: 20,3673           01732                           CADR     DELAYJOB                              #  (DELAYJOB DOES INHINT)
000173: 20,3674           35021                 +4        CA       BIT11                                 #  GAMDIFSW = 94D BIT11, INITLY=0
000174: 20,3675           70102                           MASK     CM/FLAGS                              #  IF ZERO, WAIT UNTIL CM/POSE UPDATE.
000175: 20,3676           00006                           EXTEND
000176: 20,3677           13671                           BZF      NOTYET
000177:
000178: 20,3700           45033                           CS       ONE                                   #  ACTIVATE CM/DAP
000179: 20,3701           55501                           TS       RCSFLAGS                              #  USE BIT3 TO INITIALIZE NEEDLER ON
000180:                                                                                                  #  NEXT PASS.
000181: 20,3702           55727                           TS       P63FLAG                               #  SO WAKEP62 WILL NOT BE INITIATED UNTIL
000182:                                                                                                  #  HEADSUP IS SET IN P62.
000183:
000184:                                                                                                  #  FLAG TO PREVENT MULTIPLE CALLS TO WAKEP62.
000185:
000186: 20,3703           30007                           CA       7
000187: 20,3704           55711                           TS       JETAG
000188: 20,3705           55713                           TS       PAXERR1                               #  KEEP NEEDLES ZERO UNTIL DAP UPDATE
000189:                                                                                                  #  IN CASE CMDAPMOD IS NOT +1.
000190: 20,3706           00004                           INHINT
000191: 20,3707           00006                           EXTEND
000192: 20,3710           31666                           DCA      ALFA/180                              #  DO ATTITUDE HOLD UNTIL KEYBOARD
000193: 20,3711           53604                           DXCH     ALFACOM                               #  ESTABLISHES HEADSUP.
000194: 20,3712           31664                           CA       ROLL/180
000195: 20,3713           55717                           TS       ROLLHOLD                              #  FOR ATTITUDE HOLD IN MODE +1.
000196: 20,3714           00006                           EXTEND
000197: 20,3715           75016                           MP       HALF
000198: 20,3716           55715                           TS       ROLLC                                 #  NOT INTERESTED IN LO WORD.
000199:
000200: 20,3717           40102                           CS       CM/FLAGS
000201: 20,3720           75020                           MASK     BIT12                                 #  CMDAPARM =93D BIT12  INITLY=0
000202: 20,3721           26102                           ADS      CM/FLAGS                              #  SET BIT TO 1.
000203:
000204: 20,3722           40076                           CS       FLAGWRD2                              #  SET  NODOFLAG  TO PREVENT FURTHER
000205: 20,3723           75033                           MASK     BIT1                                  #  V 37 ENTRIES.
000206: 20,3724           26076                           ADS      FLAGWRD2
000207:
000208: 20,3725           00003                           RELINT
000209:
000210: 20,3726           04715                           TC       POSTJUMP
000211: 20,3727           54335                           CADR     P62.1
000212:
000213:                                                                                                  #  INITIALIZE CM/DAP.  WAITLIST CALL FOR READGYMB.  SET SWITCH CM/DSTBY =1
000214:                                                                                                  #  SO READACCS WILL ENTER A WTLST CALL FOR  SETJTAG .
000215:                                                                                                  #   CMDAPARM  = 0, SO ONLY BODY RATE AND ATTITUDE CALCULATIONS ARE DONE.
000216:                                                                                                  #  SET AVEGEXIT TO CONTINUE AT CM/POSE
000217:
000218: 20,3730           35073        CM/DAPIC           CA       EBAOG
000219: 20,3731           54003                           TS       EBANK
000220:
000221: 20,3732           00004                           INHINT
000222: 20,3733           41205        CM/DAP2C           CS       PIPTIME    +1
000223:                                                                                                  #  PRIO OF P62 L PRIO AVG,:PIPTM=PIPTM1
000224: 20,3734           55720                           TS       JETEM
000225:
000226: 20,3735           35016                           CA       POS1/2
000227: 20,3736           65016                           AD       POS1/2
000228: 20,3737           60025                           AD       TIME1                                 #  OVFL GUARANTEED
000229: 20,3740           27720                           ADS      JETEM                                 #  C(A) = DELTA TIME SINCE PIPUP
000230:
000231: 20,3741           45036                           CS       FIVE
000232: 20,3742           61720                           AD       JETEM
000233: 20,3743           10000                           CCS      A
000234: 20,3744           63773                           AD       -CDUT+1
000235: 20,3745           13743                           TCF      -2
000236: 20,3746           13747                           NOOP
000237: 20,3747           65033                           AD       ONE                                   #  SEND NO ZERO TO WTLST
000238: 20,3750           55725                           TS       CM/GYMDT                              #  FOR RESTART
000239: 20,3751           05261                           TC       WAITLIST
000240: 20,3752  E6,1661                                  EBANK=   AOG
000241: 20,3752           02454 32066                     2CADR    READGYMB
000242:
000243: 20,3754           43772                           CS       CM/SWIC1                              #  GAMDIFSW, GYMDIFSW, CM/DSTBY
000244: 20,3755           70102                           MASK     CM/FLAGS                              #  DAPARM, .05GSW, LATSW, ENTRYDSP
000245: 20,3756           64377                           AD       CM/SWIC2                              #  SET CM/DSTBY, LATSW
000246:                                                                                                  #  DISABLE ENTRY DISPLAY, SINCE DES. GIMB.
000247:                                                                                                  #  CALC.  (P62.3) GOES TO ENDEXIT.
000248: 20,3757           54102                           TS       CM/FLAGS
000249:
000250: 20,3760           30007                           CA       7
000251: 20,3761           55666                           TS       BETA/180                              #  NECESSARY:  NO OVFL CORRECTION
000252: 20,3762           35033                           CA       ONE                                   #  INITIALIZE THE TM OF BODY RATES VIA
000253: 20,3763           54305                           TS       SW/NDX                                #  UPBUFF.
000254:
000255: 20,3764           05406                           TC       2PHSCHNG                              #  DOES INHINT/RELINT
000256: 20,3765           40116                           OCT      40116                                 #  SAVE TBASE6
000257: 20,3766           05024                           OCT      05024
000258: 20,3767           13000                           OCT      13000
000259:
000260: 20,3770           04715                           TC       POSTJUMP
000261: 20,3771           54321                           CADR     P62.2
000262:
000263: 20,3772           16017        CM/SWIC1           OCT      16017
000264: 20,3773     4377               CM/SWIC2           =        TEN                                   #  00012: CM/DSTBY, LATSW
000265: 20,3773           77766        -CDUT+1            OCT      77766
000266: 20,3774     1312                                  EBANK=   T5LOC
000267: 20,3774           03155 12062  T5IDLER1           2CADR    T5IDLOC
000268:
000269:                                                                                                  #  THIS SECTION CALCULATES THE ANGULAR BODY RATES EACH .1 SEC.  THE ANGULAR RATES ARE THOSE ALONG THE BODY AXES
000270:                                                                                                  #  XB, YB, ZB, AND ARE NORMALLY DESIGNATED P, Q, R.      REQUIREMENT:  TEMPORARY ERASE.  JETEM, JETEM +1
000271:
000272:                                                                                                  #  SINCE RESTARTS ZERO THE JET OUTPUT CHANNELS, NO ATTEMPT IS MADE TO RESTART THE ENTRY DAPS.  THAT IS,
000273:                                                                                                  #  THE 0.1 SEC DAPS WILL MISS A CYCLE, AND WILL PICK UP AT THE NEXT 0.1 SEC UPDATE.  MOST OF THE TIME THE 2 SEC
000274:                                                                                                  #  ROLL SYSTEM WILL MISS ONLY 0.1 SEC OF CONTROL.  HOWEVER IF THE RESTART OCCURS AFTER THE SECTION TIMETST HAS
000275:                                                                                                  #  STARTED, THEN THE ROLL SYSTEM WILL MISS ONE CYCLE.
000276:                                                                                                  #  THIS IS NECESSARY UNDER THE GROUNDRULE THAT NO JET COMMANDS SHALL BE LESS THAN 14 MS.
000277:
000278: 20,3776  E6,1661                                  EBANK=   AOG
000279: 15,2556                                           BANK     15
000280: 15,2000                                           SETLOC   ETRYDAP
000281: 15,2000                                           BANK
000282:
000283: 15,2556                                           COUNT    15/DAPEN
000284:
000285: 15,2556           31663        BODYRATE           CA       AMG                                   #  THESE ARE 2S COMPL NOS, BUT USE ANYWAY.
000286: 15,2557           05110                           TC       SPCOS
000287: 15,2560           55511                           TS       COSM
000288:
000289: 15,2561           31661                           CA       AOG                                   #  C(AOG) = AOG/180
000290: 15,2562           05111                           TC       SPSIN                                 #  SINO
000291: 15,2563           55512                           TS       SINO                                  #  SINO = SIN(AOG)
000292:
000293: 15,2564           00006                           EXTEND
000294: 15,2565           71511                           MP       COSM
000295: 15,2566           55514                           TS       SINOCOSM                              #  SO CM
000296:
000297: 15,2567           31661                           CA       AOG
000298: 15,2570           05110                           TC       SPCOS                                 #  COSO
000299: 15,2571           55513                           TS       COSO
000300:
000301: 15,2572           00006                           EXTEND
000302: 15,2573           71511                           MP       COSM
000303: 15,2574           55515                           TS       COSOCOSM                              #  CO CM
000304:
000305:                                                                                                  #  PITCHDOT:  Q TCDU/180 = IDOT TCDU/180 COSO COSM + MDOT TCDU/180 SINO
000306:
000307: 15,2575           41677                           CS       -DELAMG
000308: 15,2576           00006                           EXTEND
000309: 15,2577           71512                           MP       SINO
000310: 15,2600           53721                           DXCH     JETEM                                 #  2 LOCS _
000311: 15,2601           41676                           CS       -DELAIG
000312: 15,2602           00006                           EXTEND
000313: 15,2603           71515                           MP       COSOCOSM
000314: 15,2604           21721                           DAS      JETEM
000315: 15,2605           31720                           CA       JETEM
000316: 15,2606           57707                           XCH      OLDELQ
000317: 15,2607           02550                           TC       RATEAVG
000318: 15,2610           55702                           TS       QREL                                  #  PITCHDOT = Q TCDU/180
000319:
000320:                                                                                                  #  YAWDOT:  R TCDU/180 = -IDOT TCDU/180 COSM SINO + MDOT TCDU/180 COSO
000321:
000322: 15,2611           41677                           CS       -DELAMG
000323: 15,2612           00006                           EXTEND
000324: 15,2613           71513                           MP       COSO
000325: 15,2614           53721                           DXCH     JETEM
000326: 15,2615           31676                           CA       -DELAIG
000327: 15,2616           00006                           EXTEND
000328: 15,2617           71514                           MP       SINOCOSM
000329: 15,2620           21721                           DAS      JETEM
000330: 15,2621           31720                           CA       JETEM
000331: 15,2622           57710                           XCH      OLDELR
000332: 15,2623           02550                           TC       RATEAVG
000333: 15,2624           55703                           TS       RREL                                  #  YAWDOT = R TCDU/180
000334:
000335:                                                                                                  #  ROLLDOT:  P TCDU/180 = ODOT TCDU/180 + IDOT TCDU/180 SINM
000336:
000337: 15,2625           31663                           CA       AMG
000338: 15,2626           05111                           TC       SPSIN
000339: 15,2627           55510                           TS       SINM
000340:
000341: 15,2630           00006                           EXTEND
000342: 15,2631           71676                           MP       -DELAIG
000343: 15,2632           55720                           TS       JETEM
000344: 15,2633           35035                           CA       ZERO
000345: 15,2634           20001                           DDOUBL                                         #  ROUND L INTO A
000346: 15,2635           61675                           AD       -DELAOG
000347: 15,2636           61720                           AD       JETEM
000348: 15,2637           40000                           CS       A
000349: 15,2640           55720                           TS       JETEM
000350: 15,2641           57706                           XCH      OLDELP
000351: 15,2642           02550                           TC       RATEAVG
000352: 15,2643           55701                           TS       PREL                                  #  ROLLDOT = P TCDU/180
000353:
000354:                                                                                                  #  IF GAMDOT < 0.5 DEG/SEC, THEN GAMDOT =0
000355:
000356: 15,2644           11723                           CCS      GAMDOT
000357: 15,2645           02647                           TC       +2
000358: 15,2646           02671                           TC       NOGAMDUT
000359: 15,2647           41664                           CS       ROLL/180
000360: 15,2650           05111                           TC       SPSIN
000361: 15,2651           00006                           EXTEND
000362: 15,2652           71723                           MP       GAMDOT
000363: 15,2653           55721                           TS       JETEM      +1                         #  -SR GAMDOT
000364: 15,2654           00006                           EXTEND
000365: 15,2655           73217                           MP       SINTRIM                               #  SIN(-20)      (FOR NOMINAL L/D = .3)
000366: 15,2656           27701                           ADS      PREL                                  #  PREL TCDU/180=(P-SALF SR GAMDOT)TCDU/180
000367:
000368: 15,2657           31664                           CA       ROLL/180
000369: 15,2660           05110                           TC       SPCOS
000370: 15,2661           40000                           COM
000371: 15,2662           00006                           EXTEND
000372: 15,2663           71723                           MP       GAMDOT
000373: 15,2664           27702                           ADS      QREL                                  #  QREL TCDU/180=(Q-CR GAMDOT) TCDU/180
000374:
000375: 15,2665           41721                           CS       JETEM      +1                         #  B( ) = -SR GAMDOT
000376: 15,2666           00006                           EXTEND
000377: 15,2667           73220                           MP       COSTRIM                               #  COS(-20)      (FOR NOMINAL L/D = .3)
000378: 15,2670           27703                           ADS      RREL                                  #  RREL TCDU/180=(R+CALF SR GAMDOT)TCDU/180
000379:
000380: 15,2671           35020        NOGAMDUT           CA       BIT12                                 #  CMDAPARM = 93D BIT 12
000381: 15,2672           70102                           MASK     CM/FLAGS
000382: 15,2673           00006                           EXTEND
000383: 15,2674           15340        STBYDUMP           BZF      TASKOVER                              #  DAP NOT ARMED.
000384:
000385: 15,2675           35013                           CA       POSMAX                                #  PICK UP AT ATTRATES IN 10 MS OR SO.
000386: 15,2676           54030                           TS       TIME5
000387:
000388: 15,2677           00006                           EXTEND
000389: 15,2700           32704                           DCA      ATDOTCAD
000390: 15,2701           53313                           DXCH     T5LOC
000391:                                                                                                  #  DOES NOT PROTECT TEMK, SQ IN SPSIN/COS
000392:
000393: 15,2702           05340                           TC       TASKOVER
000394:
000395: 15,2703  E6,1661                                  EBANK=   AOG
000396: 15,2703           02705 32066  ATDOTCAD           2CADR    ATTRATES
000397:
000398:                                                                                                  #  CALCULATE BODY ATTITUDE RATES AND INTEGRATE TO OBTAIN ATTITUDE ANGLES.
000399:
000400:                                                                                                  #        CB PHIDOT TCDU/180 = (CA PREL + SA RREL) TCDU/180
000401:                                                                                                  #        BETADOT TCDU/180 = (-SA PREL + CA RREL) TCDU/180
000402:                                                                                                  #        ALFADOT TCDU = (QREL + SB PHIDOT) TCDU/180
000403:
000404: 15,2705           22016        ATTRATES           LXCH     BANKRUPT                              #  CONTINUE HERE VIA T5
000405: 15,2706           00006                           EXTEND                                         #  TASK MAY BE SKIPPED AT RESTART.
000406: 15,2707           22012                           QXCH     QRUPT
000407: 15,2710           30021                           CA       SR
000408: 15,2711           60000                           DOUBLE
000409: 15,2712           55623                           TS       CM/SAVE
000410:                                                                                                  #  DOES NOT PROTECT TEMK, SQ IN SPSIN/COS
000411:
000412: 15,2713           31702                           CA       QREL
000413: 15,2714           61665                           AD       ALFA/180
000414: 15,2715           02542                           TC       ANGOVCOR
000415: 15,2716           55665                           TS       ALFA/180
000416: 15,2717           05110                           TC       SPCOS
000417: 15,2720           55506                           TS       CALFA                                 #  CALFA
000418: 15,2721           55705                           TS       PHIDOT
000419:
000420: 15,2722           00006                           EXTEND
000421: 15,2723           71701                           MP       PREL
000422: 15,2724           57705                           XCH      PHIDOT                                #  CA PREL
000423: 15,2725           00006                           EXTEND
000424: 15,2726           71703                           MP       RREL                                  #  CA RREL
000425: 15,2727           55704                           TS       BETADOT
000426:
000427: 15,2730           31665                           CA       ALFA/180
000428: 15,2731           05111                           TC       SPSIN
000429: 15,2732           55507                           TS       SALFA                                 #  SIN(ALFA)
000430:
000431: 15,2733           00006                           EXTEND
000432: 15,2734           71703                           MP       RREL                                  #  SA RREL
000433: 15,2735           27705                           ADS      PHIDOT                                #  CB PHIDOT, SAVED.
000434:
000435: 15,2736           41507                           CS       SALFA
000436: 15,2737           00006                           EXTEND
000437: 15,2740           71701                           MP       PREL
000438: 15,2741           27704                           ADS      BETADOT                               #  SAVE BETADOT TCDU/180
000439: 15,2742           27666                           ADS      BETA/180                              #  BETA DONE.
000440:
000441: 15,2743           05111                           TC       SPSIN
000442: 15,2744           00006                           EXTEND
000443: 15,2745           71705                           MP       PHIDOT                                #  NEGLECT CB IN CB PHIDOT
000444: 15,2746           61665                           AD       ALFA/180
000445: 15,2747           02542                           TC       ANGOVCOR
000446: 15,2750           55665                           TS       ALFA/180                              #  ALFA DONE.
000447: 15,2751           40000                           COM
000448: 15,2752           61603                           AD       ALFACOM
000449: 15,2753           02542                           TC       ANGOVCOR                              #  JUST IN CASE ...
000450: 15,2754           55477                           TS       AK1
000451: 15,2755           55572                           TS       QAXERR                                #  FOR PITCH FDAI AND EDIT.
000452:
000453: 15,2756           31705                           CA       PHIDOT                                #  PHIDOT TCDU/180, NEGLECTING CB
000454: 15,2757           61664                           AD       ROLL/180
000455: 15,2760           02542                           TC       ANGOVCOR
000456: 15,2761           55714                           TS       ROLLTM                                #  ROLL/180 FOR TM.
000457: 15,2762           55664                           TS       ROLL/180                              #  ROLL DONE.
000458:
000459:                                                                                                  #  START YAW AUTOPILOT HERE.  RATE DAMPING WITH ENFORCED COORDINATED ROLL MANEUVER.
000460:
000461: 15,2763           41666                           CS       BETA/180                              #  IF IN ATM, SAVE 'RAXERR' FOR TM DNLST.
000462: 15,2764           61604                           AD       BETACOM
000463: 15,2765           55573                           TS       RAXERR                                #  IF OUTSIDE ATM, USE TM REGISTER 'RAXERR'
000464:                                                                                                  #  AS A TEMPORARY.  (DAP OPERATION IS IN INTERRUPT, SO
000465:                                                                                                  #  IS OK.)  FINAL C(RAXERR) AT END OF DAP CYCLE WILL
000466:                                                                                                  #  BE R-AXIS ERROR.
000467:
000468: 15,2766           35031                           CA       BIT3                                  #  .05GSW = 102D BIT3    SW=0, LESS .05G
000469: 15,2767           70102                           MASK     CM/FLAGS                              #  SWITCH =1, GREATER THAN .05 G
000470: 15,2770           00006                           EXTEND
000471: 15,2771           13057                           BZF      EXDAP                                 #  IF G LESS THAN .05
000472: 15,2772           45033                           CS       ONE                                   #  IF G GEQ  THAN .05
000473: 15,2773           55700                           TS       CMDAPMOD                              #  SAVE -1 FOR USE IN CM/RCS
000474:
000475: 15,2774           55477                           TS       AK1                                   #  TO ZERO PITCH AND YAW FDAI NEEDLES
000476: 15,2775           55500                           TS       AK2                                   #  IN ATM.  (MODE =-1)
000477:
000478: 15,2776           41701                           CS       PREL                                  #  YAW ERROR = RREL - PREL TAN(ALFA)
000479: 15,2777           00006                           EXTEND
000480: 15,3000           73217                           MP       SINTRIM                               #  LET SIN(-20) BE APPROX FOR TAN(-20)
000481: 15,3001           61703                           AD       RREL
000482: 15,3002           03047                           TC       2D/SDZ                                #  GO TEST DZ.  GET TAG: +0 IF IN DZ
000483: 15,3003           50000                           INDEX    A                                     #  +/- 1 IF NOT
000484: 15,3004           33222                           CAF      YJETCODE
000485:
000486: 15,3005           55720                           TS       JETEM
000487:
000488:                                                                                                  #  START PITCH AUTOPILOT HERE.  RATE DAMPING ONLY.
000489:
000490: 15,3006           31702                           CA       QREL
000491: 15,3007           03047                           TC       2D/SDZ
000492: 15,3010           50000        EXDAPIN            INDEX    A                                     #  COME HERE FROM EX ATM DAP
000493: 15,3011           33225                           CAF      P/RJCODE
000494: 15,3012           27720                           ADS      JETEM                                 #  COMBINE ALL NEW BITS.
000495:
000496: 15,3013           00006                           EXTEND                                         #  DOES NOT REQUIRE SAVING OLD CODES.
000497: 15,3014           01005                           WRITE    PYJETS                                #  SET PYCHAN TO DESIRED BIT CONFIG.
000498:
000499: 15,3015           11711                           CCS      JETAG
000500: 15,3016           03236                           TC       CM/RCS
000501: 15,3017           03717                           TC       CM/FDAI
000502: 15,3020           03724                           TC       CM/FDAIR   -1                         #  (JETAG=-1 EQUIVALENT TO CMDAPMOD=+1)
000503:
000504:                                                                                                  #  DEAD ZONE LOGIC USED BY ENTRY DIGITAL AUTOPILOTS.
000505:
000506: 15,3021           10000        3DDZ               CCS      A                                     #  YAWLIM=1.0-3/180=16384-273=16111
000507: 15,3022           63215                           AD       YAWLIM
000508: 15,3023           13053                           TCF      DZCOM
000509: 15,3024           63215                           AD       YAWLIM
000510: 15,3025           13054                           TCF      DZNOCOM
000511:
000512:                                                                                                  #  BIASED DZ FOR EXT ATM DAP.
000513: 15,3026           55624        BIASEDZ            TS       JETEM2                                #  SAVE RATE/180.  ERROR/180 IS IN L.
000514: 15,3027           10000                           CCS      A                                     #  START ERROR DZ.
000515: 15,3030           43214                           CS       CM/BIAS                               #  = .6/180
000516: 15,3031           13033                           TCF      +2
000517: 15,3032           33214                           CA       CM/BIAS
000518: 15,3033           60001                           AD       L                                     #  BIAS THE ERROR.
000519: 15,3034           22002                           LXCH     Q                                     #  SAVE CALLERS RETURN ADDRESS.
000520: 15,3035           03021                           TC       3DDZ                                  #  GO GENERATE THE ERROR BIT.
000521: 15,3036           52002                           DXCH     L                                     #  BIT TO L, RESTORE CALLERS Q.
000522: 15,3037           11624        4D/SDZ             CCS      JETEM2                                #  CAME HERE IN EXT ATM.  C(L) = ERROR BIT
000523: 15,3040           63212                           AD       4D/SLIM                               #  IF RATE GEQ 4D/S, SET L=0 AND TAKE
000524: 15,3041           13043                           TCF      +2                                    #  JET BITS ACCORDING TO SGN OF RATE.
000525: 15,3042           63212                           AD       4D/SLIM
000526: 15,3043           54000                           TS       A
000527: 15,3044           13046                           TCF      +2                                    #  RATE OK. CONTINUE
000528: 15,3045           22007                           ZL                                             #  RATE GEQ 4 D/S.  OVER RIDE ERROR BIT
000529: 15,3046           57624                           XCH      JETEM2                                #  AND CONTINUE TO GET SIGN.
000530:
000531: 15,3047           10000        2D/SDZ             CCS      A                                     #  COME HERE TO TEST IF A WITHIN 2DEG/S DZ
000532: 15,3050           63213                           AD       YDOTLIM                               #  1.0 - YDOT DZ         (OR PDOT)
000533: 15,3051           13054                           TCF      +3
000534: 15,3052           63213                           AD       YDOTLIM                               #  YDOT DZ = 2 DEG/SEC
000535: 15,3053           40000        DZCOM              COM
000536: 15,3054           55721        DZNOCOM            TS       JETEM      +1                         #  GENERATE TAG, SET C(A)= -+1 OUTSIDE DZ
000537: 15,3055           35035                           CA       ZERO                                  #  SET C(A) = +0 INSIDE
000538: 15,3056           00002                           TC       Q
000539:
000540:                                                                                                  #  EXTRA ATMOSPHERIC DIGITAL AUTOPILOT
000541:
000542:                                                                                                  #  1.    IF ABS(CALF) -C(45) POS, USE                    IF CALFA POS, CMDAPMOD= +0
000543:                                                                                                  #        BETA:   YAW ERROR = SGN(CALF) (BETACOM -BETA)   IF CALFA NEG, CMDAPMOD= -0
000544:                                                                                                  #                     RATE = BETADOT                     IF CMDAPMOD = -0, RATE = RREL
000545:                                                                                                  #                   R-AXIS = CONTROL
000546:
000547:                                                                                                  #        ROLL:  ROLL ERROR = SGN(CALF) (ROLLC - ROLL)    IF CMDAPMOD = -0, RATE DAMP ONLY.
000548:                                                                                                  #                     RATE = PREL
000549:                                                                                                  #                   P-AXIS = CONTROL
000550:
000551:                                                                                                  #  2.    IF C(45) GEQ CALFA GEQ -C(45), USE              CMDAPMOD = +1
000552:                                                                                                  #        BETA:  ROLL ERROR = SGN(-SALF) (BETACOM -BETA)
000553:                                                                                                  #                     RATE = BETADOT
000554:                                                                                                  #                   P-AXIS = CONTROL
000555:
000556:                                                                                                  #        ROLL:   YAW ERROR = SGN(SALF) (ROLLC - ROLL)    RATE DAMP ONLY.
000557:                                                                                                  #                     RATE = RREL
000558:                                                                                                  #                   R-AXIS = CONTROL
000559:
000560:                                                                                                  #  3.    FOR ALL CASES, USE
000561:                                                                                                  #        ALFA: PITCH ERROR = (ALFACOM - ALFA)
000562:                                                                                                  #                     RATE = QREL
000563:                                                                                                  #                   Q-AXIS = CONTROL
000564:
000565: 15,3057           55700        EXDAP              TS       CMDAPMOD                              #  +0 FOR NOW
000566: 15,3060           11506                           CCS      CALFA
000567: 15,3061           63216                           AD       C45LIM                                #  =1.0-COS(45)
000568: 15,3062           13064                           TCF      +2
000569: 15,3063           63216                           AD       C45LIM
000570: 15,3064           54000                           TS       A
000571: 15,3065           13146                           TCF      EXDAP2                                #  HERE IF ABS(CALFA) L COS(45)
000572:
000573: 15,3066           11506                           CCS      CALFA                                 #  |CALFA| > 0.707
000574: 15,3067           13070                           TCF      +1                                    #  CONTINUE IF POS; GO TO EXDAP4 IF NEG.
000575:
000576: 15,3070           11727                           CCS      P63FLAG                               #  VALID VALUES ARE:  -1, +1, +0.
000577: 15,3071           03104                           TC       EXDAP4
000578: 15,3072           03074                           TC       +2
000579: 15,3073           03104                           TC       EXDAP4
000580: 15,3074           05426                           TC       PHASCHNG                              #  SINGLE PASS THROUGH HERE.
000581: 15,3075           40334                           OCT      40334
000582: 15,3076           45033                           CS       ONE
000583: 15,3077           55727                           TS       P63FLAG                               #  SET FLAG TO ASSURE SINGLE PASS.
000584: 15,3100           33211                           CA       NSEC
000585: 15,3101           05261                           TC       WAITLIST
000586: 15,3102  E6,1661                                  EBANK=   AOG
000587: 15,3102           02367 54066                     2CADR    WAKEP62                               #  CALL TO TERMINATE P62 IN N SEC.
000588:                                                                                                  #  65 DEG/ 3DEG/SEC = 21 SEC NOMINAL
000589:                                                                                                  #  TRANSIT TIME FROM ALFA=45 TO ALFA TRIM.
000590:
000591: 15,3104           11711        EXDAP4             CCS      JETAG                                 #  ROLLJET INTERFACE TEST BETWEEN .1 SEC
000592: 15,3105           13113                           TCF      EXDAP3                                #  DAP AND THE 2 SEC CM/RCS DAP
000593: 15,3106           13113                           TCF      EXDAP3
000594: 15,3107           35035                           CA       ZERO
000595: 15,3110           00006                           EXTEND                                         #  TURN OFF ROLL JETS IF ON AND WAIT
000596: 15,3111           01006                           WRITE    ROLLJETS                              #  UNTIL START OF 2 SEC CM/RCS CYCLE
000597: 15,3112           55711                           TS       JETAG                                 #  RESTORE PROPER VALUE +0
000598:
000599:                                                                                                  #  ROLL FDAI WILL BE IN ERROR UNTIL NEXT CM/RCS CALL.
000600: 15,3113           11506        EXDAP3             CCS      CALFA                                 #  HERE IF ABS(CALFA) GEQ COS(45)
000601: 15,3114           31573                           CA       RAXERR                                #  C()= BETACOM - BETA/180
000602: 15,3115           13121                           TCF      EXDAP1
000603: 15,3116           45035                           CS       ZERO
000604: 15,3117           55700                           TS       CMDAPMOD                              #  FOR CM/RCS
000605: 15,3120           41573                           CS       RAXERR                                #  COMPLEMENT OF YAW ERROR.
000606: 15,3121           55573        EXDAP1             TS       RAXERR                                #  FOR YAW FDAI
000607: 15,3122           55500                           TS       AK2                                   #  WANT RAXERR FOR TM.
000608: 15,3123           54001                           TS       L
000609: 15,3124           11700                           CCS      CMDAPMOD                              #  COORDINATE BETA CONTROL.
000610: 15,3125           03130                           TC       +3                                    #  C(CMDAPMOD) CAN BE +1, +0, OR -0.
000611: 15,3126           35033                           CA       ONE                                   #  USE BETADOT TO COORD IN MODE +0
000612: 15,3127           50000                           INDEX    A                                     #  OTHERWISE USE RREL.
000613: 15,3130           31703                           CA       RREL
000614: 15,3131           03026                           TC       BIASEDZ                               #  GO TEST DZ.  +0 IF IN DZ, +-1 OTHERWISE
000615:                                                                                                  #  IF GEQ 4D/S, SET ERROR BIT IN L=0)
000616: 15,3132           00006                           EXTEND
000617: 15,3133           04001                           ROR      LCHAN                                 #  L HAS BETA BIT
000618: 15,3134           50000                           INDEX    A
000619: 15,3135           33222                           CAF      YJETCODE
000620: 15,3136           55720                           TS       JETEM
000621:
000622: 15,3137           31572                           CA       QAXERR                                #  ALFA ERROR.
000623: 15,3140           54001                           TS       L
000624: 15,3141           31702                           CA       QREL                                  #  FOR ALFADOT USE QREL
000625: 15,3142           03026                           TC       BIASEDZ
000626: 15,3143           00006                           EXTEND
000627: 15,3144           04001                           ROR      LCHAN
000628: 15,3145           13010                           TCF      EXDAPIN                               #  CONTINUE ON IN DAP
000629:
000630: 15,3146           25700        EXDAP2             INCR     CMDAPMOD                              #  SET CMDAPMOD TO +1
000631:
000632: 15,3147           45033                           CS       ONE                                   #  INDICATE CHANGE FROM .1 SEC UPDATE TO
000633: 15,3150           55711                           TS       JETAG                                 #  TO 2 SEC FOR ROLL JETS.  (IF CMDAPMOD
000634:                                                                                                  #  =0 AND JETAG =-1, QUENCHES JETS IF ON)
000635:
000636: 15,3151           11727                           CCS      P63FLAG                               #  IF FLAG WAS +1, SET =0.
000637: 15,3152           55727                           TS       P63FLAG
000638: 15,3153           13154                           NOOP
000639:
000640: 15,3154           11507                           CCS      SALFA                                 #  BETA CONTROL WITH P JETS
000641: 15,3155           41573                           CS       RAXERR                                #  B()= BETACOM - BETA/180
000642: 15,3156           13160                           TCF      +2
000643: 15,3157           31573                           CA       RAXERR
000644: 15,3160           55713                           TS       PAXERR1                               #  TEMP SAVE.  ERROR/180
000645: 15,3161           00006                           EXTEND
000646: 15,3162           75016                           MP       HALF                                  #  CM/FDAI EXPECTS ERROR/360.
000647: 15,3163           57713                           XCH      PAXERR1                               #  ERROR/360 FOR FDAI, GET ERROR/180.
000648: 15,3164           54001                           TS       L
000649: 15,3165           11507                           CCS      SALFA
000650: 15,3166           41704                           CS       BETADOT                               #  USE BETADOT TO COORD IN MODE +1
000651: 15,3167           03171                           TC       +2
000652: 15,3170           31704                           CA       BETADOT
000653: 15,3171           03026                           TC       BIASEDZ
000654: 15,3172           00006                           EXTEND
000655: 15,3173           04001                           ROR      LCHAN
000656: 15,3174           50000                           INDEX    A
000657: 15,3175           33225                           CAF      P/RJCODE                              #  GET ROLL CODE
000658: 15,3176           00006                           EXTEND                                         #  ROLL CONTROL WITH YAW JETS.
000659: 15,3177           01006                           WRITE    ROLLJETS                              #  WE,LL SKIP REGULAR ROLL SYST
000660:
000661: 15,3200           31717                           CA       ROLLHOLD                              #  ROLL/180 AT CM/DAPON TIME.
000662: 15,3201           00006                           EXTEND
000663: 15,3202           21664                           MSU      ROLL/180                              #  1,S COMPL, BUT SO WHATS A BIT.?
000664: 15,3203           54001                           TS       L                                     #  FORCE A LIMIT CYCLE IN YAW RATE.
000665: 15,3204           11507                           CCS      SALFA
000666: 15,3205           30001                           CA       L                                     #  TO REMOVE ITS BIASING EFFECT ON M DOT.
000667: 15,3206           03121                           TC       EXDAP1
000668: 15,3207           40001                           CS       L
000669: 15,3210           03121                           TC       EXDAP1
000670:
000671: 15,3211           04064        NSEC               DEC      2100       B-14                       #  65 DEG/ 3 DEG/SEC
000672:                                                                                                  #  IF NSEC IS CHANGED, REMEMBER TO CHANGE 4.33SPOT.
000673: 15,3212           37734        4D/SLIM            DEC      16348      B-14                       #  1.0 -4/180 D/S = 4/1800 EXP 14
000674: 15,3213           37756        YDOTLIM            DEC      16366      B-14                       #  =1.0 - YDOT DZ= 16384 -18
000675:                                                                                                  #  YDOT DZ = YDOT TCDU/180 = 2/1800 EXP 14
000676:
000677: 15,3214           00067        CM/BIAS            DEC      55         B-14                       #  =.6/180 B14 = 55
000678: 15,3215           37267        YAWLIM             DEC      16055      B-14                       #  YAWLIM=1.0-3.6/180=16384-329=16055
000679: 15,3216           11277        C45LIM             DEC      .29289                                #  =1.0-COS(45)
000680:
000681: 15,3217           65033        SINTRIM            DEC      -.34202                               #  SIN(-20)      (FOR NOMINAL L/D = .3)
000682: 15,3220           36044        COSTRIM            DEC      .93969                                #  COS(-20)      (FOR NOMINAL L/D = .3)
000683:
000684:                                                                                                  #  TO MAKE DAP INSENSITIVE TO PITCH ERRORS DUE TO ACCUMULATED NAV ERRORS, USE NOMINAL VALUE (-20 DEG) FOR TRIM ALFA
000685:                                                                                                  #  USED DURING ATMOSPHERIC COORDINATION.  OUTSIDE ATMOSPHERE, NAV ERRORS WILL BE SLIGHT, BUT ALFA CAN DIFFER GREATLY
000686:                                                                                                  #  FROM TRIM, SO USE ON-BOARD ESTIMATES.
000687:
000688:                                                                                                  #  JET CODE TABLES FOLLOW _
000689:
000690: 15,3221           00120                           OCTAL    00120                                 #  POS Y
000691: 15,3222           00000        YJETCODE           OCTAL    00000                                 #  RCS JET BITS
000692: 15,3223           00240                           OCTAL    00240                                 #  NEG Y
000693: 15,3224           00005                           OCTAL    00005                                 #  POS R JET BITS        ALSO POS P JET BITS
000694: 15,3225           00000        P/RJCODE           OCTAL    00000
000695: 15,3226           00012                           OCTAL    00012                                 #  NEG R                 ALSO NEG P
000696:
000697:                                                                                                  #  RCS           THIS SECTION IS ENTERED EACH 2 SEC BY WAITLIST CALL FOLLOWING A DELAY OF 1.2 SEC AFTER PIPUP.
000698:                                                                                                  #  THE TASK  SETJTAG  SETS A FLAG IN  JETAG  TO SIGNIFY THAT ROLL UPDATE IS DUE.  IN ROUGHLY 5 CS  BPDYRATE  WILL BE
000699:                                                                                                  #  EXECUTED AND JETAG WILL CAUSE  CM/RCS  TO ACT ON ROLLC IMMEDIATELY THEREAFTER.  THE
000700:                                                                                                  #  TASK SAVES THE CALL TIME SO THAT CM/RCS CAN DETERMINE HOW MUCH OF THE 2 SEC INTERVAL REMAINS BEFORE THE
000701:                                                                                                  #  NEXT UPDATE.
000702:
000703: 15,3227           40025        SETJTAG            CS       TIME1                                 #  SAVE NOMINAL UPDATE TIME FOR SYNCH
000704: 15,3230           55712                           TS       TUSED
000705:                                                                                                  #  THE 5 CS APPEARS IN TIMETST.
000706: 15,3231           35033                           CA       ONE                                   #  RATHER THAN INCR, FOR SAFETY
000707: 15,3232           55711                           TS       JETAG                                 #  SET JETAG=1 TO CAUSE CM/RCS TO BE
000708: 15,3233           05426                           TC       PHASCHNG
000709: 15,3234           00001                           OCT      00001
000710:
000711: 15,3235           05340                           TC       TASKOVER                              #  EXECUTED AFTER NEXT BODYRATE UPDATE
000712:
000713:                                                                                                  #  PREDICTIVE ROLL SYSTEM        ENTRY STEERING PROVIDES ROLL COMMAND IN LOC ROLLC.  THE FOLLOWING CALCULATES THE
000714:                                                                                                  #  TRAJECTORY TO THE ORIGIN IN PHASE PLANE (X,V).  PROGRAM ENTERS JET ON AND OFF CALLS INTO WTLST TO PRODUCE
000715:                                                                                                  #  THE DESIRED TRAJECTORY.  ONLY THOSE CALLS WHICH CAN BE EXECUTED WITHIN THE INTERVAL  T  (2 SEC) ARE ENTERED IN
000716:                                                                                                  #  WTLST, THE REMAINDER ARE RECONSIDERED AT NEXT UPDATE.
000717:
000718: 15,3236     5015               HALFPR             EQUALS   NEG1/2     +1
000719:
000720:                                                                                                  #  CLEAR JETAG BEFORE TIMETST.  SET TO +0 TO SHOW
000721:                                                                                                  #  ROLL DAP CALLED.  IN EVENT OF RESTART, BODYRATE
000722:                                                                                                  #  MAY MISS A CYCLE.  CM/RCS WILL MISS A CYCLE ONLY
000723:                                                                                                  #  IF A RESTART OCCURS AFTER TIMETST COMMENCES.
000724:
000725: 15,3236           45033        CM/RCS             CS       ONE
000726: 15,3237           55617                           TS       JNDX                                  #  SET NDX FOR POS ROLL, AND CHANGE LATER
000727:
000728: 15,3240           45047                           CS       2T/TCDU                               #  ROLLDOT = DELAOG + DELAIG SINM =DELR
000729: 15,3241           00006                           EXTEND
000730: 15,3242           71701                           MP       PREL                                  #  DELR/180 = RDOT TCDU/180 = RDOT/1800
000731: 15,3243           60001                           AD       L                                     #  -2 RDOT T/180 IN L
000732: 15,3244           55613                           TS       -VT/180                               #  SAVE -2VT/180 HERE
000733:
000734: 15,3245           41664                           CS       ROLL/180
000735: 15,3246           54021                           TS       SR                                    #  SAVE (-R/180) /2
000736:
000737: 15,3247           40102                           CS       CM/FLAGS
000738: 15,3250           75030                           MASK     BIT4                                  #  LATSW = 101D BIT4
000739: 15,3251           00006                           EXTEND                                         #  ROLL OVER TOP $
000740: 15,3252           13260                           BZF      GETLCX                                #  NO, TAKE SHORTEST PATH
000741: 15,3253           26102                           ADS      CM/FLAGS                              #  YES, ENFORCE ROLL OVER TOP.. (BIT =0)
000742: 15,3254           31715                           CA       ROLLC                                 #  (ROLLC/180) /2
000743: 15,3255           60021                           AD       SR                                    #  -(R/180) /2
000744: 15,3256           57614                           XCH      LCX/360                               #  DIFFERENT X REQD HERE.  DISCONT AT 180.
000745: 15,3257           13320                           TCF      COMPAT                                #  POSSIBLE OVFL ABOVE.
000746:
000747: 15,3260           35016        GETLCX             CA       POS1/2                                #  FORM RCOM/360
000748: 15,3261           60000                           DOUBLE
000749: 15,3262           61715                           AD       ROLLC
000750: 15,3263           57614                           XCH      LCX/360                               #  IGNORE POSSIBLE OVFL.
000751:
000752: 15,3264           30021                           CA       SR                                    #  FORM -R/360
000753: 15,3265           65014                           AD       NEG1/2
000754: 15,3266           65014                           AD       NEG1/2                                #  IGNORE OVFL
000755: 15,3267           57614                           XCH      LCX/360                               #  -R/360
000756: 15,3270           27614                           ADS      LCX/360                               #  LCX/360 = RCOM/360 - R/360  RANGE (-1,1)
000757:
000758:                                                                                                  #  DOES SGN(-VT) (VT/180) (VT/180) (180/(4 A1 TT COSALFA)) + X/360 + SGN(X) / 2    OVFL ?
000759:
000760: 15,3271           11613                           CCS      -VT/180                               #  TAKE SHORTEST ANGULAR PATH
000761: 15,3272           65033                           AD       ONE                                   #  (BASED ON SINGLE JET ACCELERATION)
000762: 15,3273           13275                           TCF      +2
000763: 15,3274           65033                           AD       ONE
000764: 15,3275           00006                           EXTEND
000765: 15,3276           71613                           MP       -VT/180                               #  C(-VT/180) = -2 VT/180
000766: 15,3277           00006                           EXTEND
000767: 15,3300           73770                           MP       1/16A1                                #  = 180/(16 A1 TT)
000768: 15,3301           00006                           EXTEND
000769: 15,3302           11506                           DV       CALFA
000770: 15,3303           54001                           TS       L
000771: 15,3304           11614                           CCS      LCX/360
000772: 15,3305           35016                           CAF      POS1/2
000773: 15,3306           13310                           TCF      +2
000774: 15,3307           45016                           CS       POS1/2
000775: 15,3310           61614                           AD       LCX/360                               #  IS LCX/360 LESS THAN 180 DEG  $
000776: 15,3311           60001                           AD       L
000777: 15,3312           54001                           TS       L
000778: 15,3313           13320                           TCF      COMPAT                                #  YES, GO ON.
000779: 15,3314           50000        TRTAGXPI           INDEX    A                                     #  NO, SHIFT X BY - SGN(X) 2 PI
000780: 15,3315           45015                           CS       HALFPR                                #  +A YIELDS -1/2
000781: 15,3316           60000                           DOUBLE
000782: 15,3317           27614                           ADS      LCX/360
000783:
000784: 15,3320           31614        COMPAT             CA       LCX/360                               #  CORRECT FOR ASSUMED COORD TURN.
000785: 15,3321           00006                           EXTEND
000786: 15,3322           71506                           MP       CALFA                                 #  COS ALFA
000787: 15,3323           55614                           TS       LCX/360                               #  SCALED LCX OK HERE.
000788:
000789: 15,3324           11700                           CCS      CMDAPMOD                              #  FOUR POSSIBILITIES HERE
000790: 15,3325           03715                           TC       DZCALL1                               #  EXIT, SETTING JETAG=0. (C(A)=0)
000791:                                                                                                  #  ALL 3 AXES ALREADY DONE.
000792: 15,3326           03327                           TC       +1                                    #  G LESS THAN .05.  CA POS. CONTINUE
000793: 15,3327           31614                           CA       LCX/360                               #  G GEQ .05.  CONTINUE IN CM/RCS
000794: 15,3330           55614                           TS       LCX/360                               #  CMDAPMOD=-0.  DAMPING ONLY. SET LCX=0
000795: 15,3331           55571                           TS       ERRORZ                                #  INITIAL ROLL ERROR (UNREFLECTED) FOR TM.
000796: 15,3332           55713                           TS       PAXERR1                               #  SAVE LCX FOR FDAI AND EDIT.  (/360)
000797: 15,3333           31613                           CA       -VT/180                               #  GET - 2 VT/180
000798: 15,3334           54021                           TS       SR
000799: 15,3335           30021                           CA       SR                                    #  GET -VT/180, LEAVE -VT/360 IN SR FOR DZ
000800: 15,3336           55570                           TS       -VT/180E                              #                        DIAGNOSTIC ****
000801: 15,3337           57613                           XCH      -VT/180                               #  NOW CONTENTS OF -VT/180 AS LABELED
000802: 15,3340           00006                           EXTEND
000803: 15,3341           71613                           MP       -VT/180                               #  B(A) = -2VT/180
000804: 15,3342           00006                           EXTEND
000805: 15,3343           73770                           MP       180/8ATT
000806: 15,3344           55616                           TS       VSQ/4API
000807:
000808:                                                                                                  #  IS SGN(VT) ( (180/4A1 TT) VT/180 VT/180 - .5 BUFLIM/360 ) -X/360 -.5 BUFLIM/360  POS?
000809:
000810: 15,3345           60000        WHICHALF           DOUBLE                                         #  FOR SECOND BURN, A1
000811: 15,3346           40000                           COM
000812: 15,3347           63774                           AD       BUFLIM                                #  =BUFLIM/(2 360)
000813: 15,3350           54001                           TS       L
000814: 15,3351           11613                           CCS      -VT/180
000815: 15,3352           40001                           CS       L
000816: 15,3353           13355                           TCF      +2
000817: 15,3354           30001                           CA       L
000818: 15,3355           61614                           AD       LCX/360
000819: 15,3356           63774                           AD       BUFLIM
000820: 15,3357           00006                           EXTEND
000821: 15,3360           63375                           BZMF     REFLECT                               #  POINT (X,V) IN LHP.
000822:
000823:                                                                                                  #  IS SGN(VT) ( (180/4A1 TT) VT/180 VT/180 - .5 BUFLIM/360 ) -X/360 + .5 BUFLIM/360  NEG?
000824:
000825: 15,3361           40000                           COM
000826: 15,3362           63774                           AD       BUFLIM
000827: 15,3363           63774                           AD       BUFLIM
000828: 15,3364           00006                           EXTEND
000829: 15,3365           63404                           BZMF     DZ1                                   #  POINT (X,V) IN RHP.
000830:
000831:                                                                                                  #  IS POINT WITHIN VELOCITY DZ?
000832:
000833: 15,3366           43767                           CS       VSQMIN                                #  IS VSQ/4API - (VSQ/4API) MIN NEG?
000834: 15,3367           61616                           AD       VSQ/4API
000835: 15,3370           00006                           EXTEND
000836: 15,3371           63677                           BZMF     DZCALL                                #  YES.
000837:
000838:                                                                                                  #  POINT IS IN BUFFER ZONE.  THRUST TO X AXIS.
000839:
000840: 15,3372           41617                           CS       JNDX
000841: 15,3373           55620                           TS       JNDX1
000842: 15,3374           03457                           TC       OVRLINE1
000843:
000844: 15,3375           41613        REFLECT            CS       -VT/180                               #  REFLECT LHP INTO RHP REL TO TERM CONTR
000845: 15,3376           55613                           TS       -VT/180
000846: 15,3377           54021                           TS       SR                                    #  -VT/360 SAVED FOR DZ.
000847: 15,3400           41614                           CS       LCX/360
000848: 15,3401           55614                           TS       LCX/360
000849: 15,3402           41617                           CS       JNDX
000850: 15,3403           55617                           TS       JNDX
000851:
000852:                                                                                                  #  IS VSQ/4API - (VSQ/4API) MIN NEG    $
000853:
000854: 15,3404           43767        DZ1                CS       VSQMIN                                #  IS VSQ/4API - (VSQ/4API) MIN NEG  $
000855: 15,3405           61616                           AD       VSQ/4API
000856: 15,3406           00006                           EXTEND
000857: 15,3407           63411                           BZMF     DZ2                                   #  YES, GO TEST FURTHER.
000858: 15,3410           13416                           TCF      MAXVTEST                              #  NO
000859:
000860:                                                                                                  #  IS X/360 - XMIN/360 -VT/360 NEG   $
000861:
000862: 15,3411           43772        DZ2                CS       XMIN/360                              #  XMIN/360 = 4/360
000863: 15,3412           61614                           AD       LCX/360
000864: 15,3413           60021                           AD       SR                                    #  C(SR) = -VT/360
000865: 15,3414           00006                           EXTEND                                         #  IS X/360 - XMIN/360 -VT/360 NEG  $
000866: 15,3415           63677                           BZMF     DZCALL                                #  YES,IN DZ.  EXIT SETTING JETAG=0.
000867:
000868:                                                                                                  #  IS XD/360 - VM/360K - XS/360 POS   ?
000869:
000870: 15,3416           41617        MAXVTEST           CS       JNDX
000871: 15,3417           55620                           TS       JNDX1                                 #  NOW CAN SET JNDX1 FOR TON2 JETS.
000872: 15,3420           43774                           CS       XS/360                                #  XS/360 = (XMIN -YMIN/K) /360
000873: 15,3421           61616                           AD       VSQ/4API
000874: 15,3422           61614                           AD       LCX/360
000875: 15,3423           55615                           TS       XD/360                                #  XD/360= X/360 +VSQ/4API   X INTERCEPT
000876:                                                                                                  #  BUT C(XD/360) = (XD - XS) /360
000877: 15,3424           63773                           AD       -VM/360K                              #  X INTERCEPT FOR MAX V (VM)
000878: 15,3425           40000                           COM
000879: 15,3426           00006                           EXTEND
000880: 15,3427           63435                           BZMF     MAXVTIM1                              #  YES, THRUST TO VM
000881: 15,3430           31615                           CA       XD/360
000882: 15,3431           00006                           EXTEND
000883: 15,3432           75016                           MP       KTRCS
000884: 15,3433           20001                           DDOUBL                                         #  GO SAVE PREDICTED DRIFTING VELOCITY.
000885:
000886: 15,3434           03440                           TC       GETON1                                #  INSURE THAT Q IS POS AS TAG.
000887: 15,3435           00006        MAXVTIM1           EXTEND
000888: 15,3436           22007                           ZQ                                             #  SET +0 AS TAG
000889: 15,3437           43773                           CS       -VMT/180
000890: 15,3440           55567        GETON1             TS       VDT/180                               #  VDT/180 OR VMT/180.
000891: 15,3441           61613                           AD       -VT/180
000892: 15,3442           60000                           DOUBLE
000893: 15,3443           00006                           EXTEND
000894: 15,3444           73770                           MP       180/8ATT
000895: 15,3445           55621                           TS       TON1                                  #  TON1 / 4T
000896: 15,3446           00006                           EXTEND
000897: 15,3447           63451                           BZMF     OVRLINE
000898: 15,3450           03463                           TC       GETON2                                #  RESET Q POS IF CAME FROM MAXVTIM1
000899:
000900: 15,3451           10002        OVRLINE            CCS      Q
000901: 15,3452           13457                           TCF      OVRLINE1
000902: 15,3453           31620        MAXVTIM2           CA       JNDX1                                 #  ABOVE VM, SO THRUST DOWN
000903: 15,3454           55617                           TS       JNDX
000904: 15,3455           41621                           CS       TON1
000905: 15,3456           13462                           TCF      OVRLINE2   +1
000906:
000907: 15,3457           41613        OVRLINE1           CS       -VT/180                               #  DRIFT AT V
000908: 15,3460           55567                           TS       VDT/180
000909: 15,3461           35035        OVRLINE2           CA       ZERO
000910: 15,3462           55621                           TS       TON1
000911: 15,3463           31567        GETON2             CA       VDT/180                               #  VDT/180, OR VMT/180 OR VT/180
000912: 15,3464           60000                           DOUBLE
000913: 15,3465           00006                           EXTEND
000914: 15,3466           73770                           MP       180/8ATT
000915: 15,3467           60000                           DOUBLE                                         #  FOR SECOND BURN, A1
000916: 15,3470           55607                           TS       TON2                                  #  = TON2 / 4T
000917:
000918: 15,3471           40000                           COM
000919: 15,3472           00006                           EXTEND
000920: 15,3473           63477                           BZMF     GETOFF
000921: 15,3474           55607                           TS       TON2
000922: 15,3475           31617                           CA       JNDX
000923: 15,3476           55620                           TS       JNDX1
000924:
000925: 15,3477           41607        GETOFF             CS       TON2                                  #  TON2 / 4T
000926: 15,3500           00006                           EXTEND
000927: 15,3501           71567                           MP       VDT/180                               #  VDT/180, OR VT/180, OR VMT/180.
000928: 15,3502           55615                           TS       XD/360                                #  USE AS TEMP
000929: 15,3503           41567                           CS       VDT/180
000930: 15,3504           00006                           EXTEND
000931: 15,3505           13521                           BZF      TOFFOVFL                              #  OMIT THE DIVIDE IF DEN = 0.
000932: 15,3506           61613                           AD       -VT/180
000933: 15,3507           00006                           EXTEND
000934: 15,3510           71621                           MP       TON1                                  #  TON1 /4T
000935: 15,3511           61615                           AD       XD/360                                #  TEMP = -VDT/180 / 2 TON2
000936: 15,3512           61614                           AD       LCX/360
000937: 15,3513           22007                           ZL
000938: 15,3514           56001                           XCH      L                                     #  TEST THE DIVIDE
000939: 15,3515           00006                           EXTEND
000940: 15,3516           11567                           DV       VDT/180
000941: 15,3517           00006                           EXTEND
000942: 15,3520           13523                           BZF      GETOFF2                               #  DIVIDE OK
000943:
000944: 15,3521           35061        TOFFOVFL           CA       2JETT                                 #  OVFL, USE  2T  FOR CONVENIENCE.
000945: 15,3522           13530                           TCF      TIMSCAL
000946:
000947: 15,3523           56001        GETOFF2            XCH      L                                     #  GET NUMERATOR.
000948: 15,3524           00006                           EXTEND
000949: 15,3525           11567                           DV       VDT/180                               #  C(A) = TOFF / 2T
000950: 15,3526           00006                           EXTEND
000951: 15,3527           75061                           MP       2JETT
000952: 15,3530           55605        TIMSCAL            TS       TOFF                                  #  IN CS
000953:
000954: 15,3531           33771                           CAF      4JETT
000955: 15,3532           00006                           EXTEND
000956: 15,3533           71621                           MP       TON1                                  #  C(TON1) = TON1 / 4T
000957: 15,3534           55621                           TS       TON1                                  #  IN CS
000958:
000959: 15,3535           33771                           CAF      4JETT
000960: 15,3536           00006                           EXTEND
000961: 15,3537           71607                           MP       TON2                                  #  C(TON2) = TON2 / 4T
000962: 15,3540           55607                           TS       TON2                                  #  IN CS
000963:
000964: 15,3541           35035                           CA       ZERO                                  #  CANNOT REDO AFTER TIMETST.  TUSED GONE
000965: 15,3542           55711                           TS       JETAG                                 #  SET +0 TO SHOW ROLL DAP CALLED.
000966:
000967:                                                                                                  #  CAUSE THE TM OF BODY RATES VIA UPBUFF TO BE
000968:                                                                                                  #  INITIALIZED.  ALSO CAUSE NEEDLES TO BE DONE ON NEXT
000969:                                                                                                  #  AND ON ALTERNATE PASSES THROUGH CM/DUMPR.
000970:
000971: 15,3543           35033                           CA       ONE
000972: 15,3544           54305                           TS       SW/NDX
000973:
000974:                                                                                                  #  TIMETEST SECTION FOR RCS
000975:
000976:                                                                                                  #  ENTER WITH THREE TIME INTERVALS AND THE CORRESPONDING JET CODE INDEXES IN ERASEABLE LOCS TON1, TOFF, TON2, JNDX
000977:                                                                                                  #  JNDX1.  SECTION PROCESSES TIME INTERVALS FOR WTLST CALLS AND ASSURES THAT WTLST CALLS ARE MADE ONLY
000978:                                                                                                  #  (1) FOR POS INTERVALS GREATER THAN A SPECIFIED MINIMUM (HERE CHOSEN AS 2 CS) AND
000979:                                                                                                  #  (2) FOR THE INTERVALS THAT WILL BE EXECUTED WITHIN THE TIME REMAINING IN THE SAMPLE INTERVAL T (2 SEC).
000980:                                                                                                  #  TIMETST ESTABLISHES 6 LOCS CONTAINING JET CODES AND CORRESPONDING TIME INTERVALS.  THUS:  TON1, T1BITS,
000981:                                                                                                  #  TOFF, TBITS, TON2, T2BITS.  OF THESE THE FIRST 2 LOCS ARE TEMPORARY, FOR IMMEDIATE ACTION, IN GENERAL.
000982:                                                                                                  #  SECTION JETCALL BELOW PROCESSES THIS LIST.
000983:
000984: 15,3545           30025        TIMETST            CA       TIME1                                 #  CORRECT FOR POSSIBLE TIME1 OVFL.
000985: 15,3546           65016                           AD       POS1/2
000986: 15,3547           65016                           AD       POS1/2                                #  OVFL GUARANTEED.
000987: 15,3550           27712                           ADS      TUSED                                 #  B(TUSED) =-TUSED =-OLTIME1
000988:
000989: 15,3551           33766                           CA       -T-3                                  #  =-T +2 -5 (SEE SETJTAG)
000990:                                                                                                  #  THE +2 REQUIRED FOR PROPER BRANCH.
000991: 15,3552           27712                           ADS      TUSED                                 #  TUSED = TIME(K)-TIME(K-1)-T+2
000992:
000993: 15,3553           45032                           CS       TWO                                   #  USE 2 SINCE TIME3 UNCERTAIN TO 1
000994: 15,3554           61621                           AD       TON1
000995: 15,3555           00006                           EXTEND
000996: 15,3556           63570                           BZMF     TIMETST1
000997: 15,3557           51617                           INDEX    JNDX
000998: 15,3560           33225                           CAF      P/RJCODE
000999: 15,3561           55622                           TS       T1BITS
001000:
001001: 15,3562           31621                           CA       TON1
001002: 15,3563           27712                           ADS      TUSED
001003: 15,3564           00006                           EXTEND
001004: 15,3565           63572                           BZMF     TOFFTEST
001005: 15,3566           35035                           CA       ZERO
001006: 15,3567           13623                           TCF      TIMETST3
001007: 15,3570           45033        TIMETST1           CS       ONE
001008: 15,3571           55621                           TS       TON1
001009: 15,3572           45032        TOFFTEST           CS       TWO
001010: 15,3573           61605                           AD       TOFF
001011: 15,3574           00006                           EXTEND
001012: 15,3575           63604                           BZMF     TIMETST2
001013: 15,3576           31605                           CA       TOFF
001014: 15,3577           27712                           ADS      TUSED
001015: 15,3600           00006                           EXTEND
001016: 15,3601           63606                           BZMF     TON2TEST
001017: 15,3602           35035                           CA       ZERO
001018: 15,3603           13625                           TCF      TIMETST4
001019: 15,3604           45033        TIMETST2           CS       ONE
001020: 15,3605           55605                           TS       TOFF
001021: 15,3606           45032        TON2TEST           CS       TWO
001022: 15,3607           61607                           AD       TON2
001023: 15,3610           00006                           EXTEND
001024: 15,3611           63626                           BZMF     TIMETST5
001025: 15,3612           51620                           INDEX    JNDX1
001026: 15,3613           33225                           CAF      P/RJCODE
001027: 15,3614           55610                           TS       T2BITS
001028: 15,3615           31607                           CA       TON2
001029: 15,3616           27712                           ADS      TUSED
001030: 15,3617           00006                           EXTEND
001031: 15,3620           63630                           BZMF     JETCALL1
001032: 15,3621           35035                           CA       ZERO
001033: 15,3622           13627                           TCF      TIMETST5   +1
001034: 15,3623           55621        TIMETST3           TS       TON1
001035: 15,3624           45033                           CS       ONE
001036: 15,3625           55605        TIMETST4           TS       TOFF
001037: 15,3626           45033        TIMETST5           CS       ONE
001038: 15,3627           55607                           TS       TON2
001039:
001040:                                                                                                  #  SECTION  JETCALL  EXAMINES CONTENTS OF JET TIMES IN LIST, ESTABLISHES WTLST ENTRIES, AND EXECUTES CORRESPONDING
001041:                                                                                                  #  JET CODES.  A POSITIVE NZ NUMBER IN A TIME REGISTER INDICATES THAT A WTLST CALL IS TO BE MADE, AND ITS JET BITS
001042:                                                                                                  #  EXECUTED.  A +0 INDICATES THAT THE TIME INTERVAL DOES NOT APPLY, BUT THE CORRESPONDING JET BITS ARE TO BE
001043:                                                                                                  #  EXECUTED.  A NEG NUMBER INDICATES THAT THE TIME INTERVAL HAS BEEN PROCESSED.  IN EVENT OF +0 OR -1, THE
001044:                                                                                                  #  SUBSEQUENT TIME REGISTER IS EXAMINED FOR POSSIBLE ACTION.  THUS JET BITS TO BE EXECUTED MAY COME FROM MORE
001045:                                                                                                  #  THAN ONE REGISTER.
001046:
001047: 15,3630           35035        JETCALL1           CA       ZERO
001048: 15,3631           55611                           TS       OUTTAG
001049: 15,3632           55612                           TS       NUJET
001050: 15,3633           55606                           TS       TBITS
001051: 15,3634           53622                           DXCH     TON1
001052: 15,3635           10000                           CCS      A
001053: 15,3636           13653                           TCF      JETCALL2                              #  CALL WTLST
001054: 15,3637           23612        JETCALL3           LXCH     NUJET                                 #  WTLST ENTRIES COME HERE FROM JETCALL
001055: 15,3640           45033                           CS       ONE
001056: 15,3641           53606                           DXCH     TOFF
001057: 15,3642           10000                           CCS      A
001058: 15,3643           13653                           TCF      JETCALL2                              #  CALL WTLST
001059: 15,3644           23612                           LXCH     NUJET
001060: 15,3645           45033                           CS       ONE
001061: 15,3646           53610                           DXCH     TON2
001062: 15,3647           10000                           CCS      A
001063: 15,3650           13653                           TCF      JETCALL2                              #  CALL WTLST
001064: 15,3651           23612                           LXCH     NUJET
001065: 15,3652           03662                           TC       JETACTN                               #  C(A) = +0
001066: 15,3653           56001        JETCALL2           XCH      L                                     #  SAVE JET BITS FOR AFTER WTLST CALL
001067: 15,3654           27612                           ADS      NUJET
001068: 15,3655           56001                           XCH      L
001069: 15,3656           65033                           AD       ONE                                   #  RESTORE FOR CCS
001070: 15,3657           05261                           TC       WAITLIST
001071: 15,3660  E6,1661                                  EBANK=   AOG
001072: 15,3660           03670 32066                     2CADR    JETCALL
001073:
001074: 15,3662           31612        JETACTN            CA       NUJET                                 #  COME HERE WHEN DESIRED JET CODE IS KNOWN
001075: 15,3663           00006                           EXTEND                                         #  NO NEED TO SAVE OLD CODES
001076: 15,3664           01006                           WRITE    ROLLJETS                              #  SET RCHAN TO NEW BIT CONFIG.
001077:
001078: 15,3665           11611                           CCS      OUTTAG
001079: 15,3666           05340                           TC       TASKOVER
001080: 15,3667           03725        ROLLDUMP           TC       CM/FDAIR
001081:
001082:                                                                                                  #  EDIT DUMP AT ABOVE LOCATION.
001083:
001084:                                                                                                  #  WAITLIST ENTRIES COME HERE.
001085:
001086: 15,3670           35032        JETCALL            CAF      BIT2                                  #  CM/DSTBY =103D BIT2
001087: 15,3671           55611                           TS       OUTTAG                                #  SIGNIFY WTLST ENTRY
001088: 15,3672           70102                           MASK     CM/FLAGS                              #  IS SYSTEM DISABLED  $
001089: 15,3673           00006                           EXTEND
001090: 15,3674           13663                           BZF      JETACTN    +1                         #  YES, QUENCH ROLL JETS, IF ON AND EXIT.
001091: 15,3675           22007                           ZL                                             #  NO, CONTINUE.
001092: 15,3676           13637                           TCF      JETCALL3                              #  C(A) POS, C(L) = +0
001093:
001094:                                                                                                  #  DEAD ZONE ENTRIES COME HERE.
001095:
001096: 15,3677           41700        DZCALL             CS       CMDAPMOD                              #  POSSIBLE VALUES OF CMDAPMOD: -1, +0, -0.
001097: 15,3700           75033                           MASK     BIT1
001098: 15,3701           54001                           TS       L                                     #  C(L)=0 FOR -0; C(L)=1 FOR -1 OR +0.
001099: 15,3702           50000                           INDEX    A                                     #  ERASBLE ORDER:  ROLLTM,ROLLC,ROLLC +1.
001100: 15,3703           31714                           CA       ROLLTM                                #  GET ROLL/180 OR ROLLC (/360).
001101: 15,3704           50001                           INDEX    L
001102: 15,3705           54000                           TS       A                                     #  IF C(L)=1, STORE 'ROLLC' IN 'L'.
001103: 15,3706           60001                           AD       L                                     #  (BOTH MUST BE SCALED DEG/180)
001104: 15,3707           02542                           TC       ANGOVCOR                              #  C(A)=ROLL/180 OR 2 ROLLC  .
001105: 15,3710           55717                           TS       ROLLHOLD                              #  IF CMDAPMOD =-0, SAVE ROLL ANGLE,
001106:                                                                                                  #        OTHERWISE, SAVE ROLL COMMAND.
001107:
001108: 15,3711           35035                           CA       ZERO                                  #  COME HERE IF IN DZ, AND CANCEL JETS.
001109: 15,3712           00006                           EXTEND                                         #  INHINT NOT NEEDED HERE.
001110: 15,3713           01006                           WRITE    ROLLJETS                              #  TURN OFF ALL ROLL JETS.
001111: 15,3714           55567                           TS       VDT/180                               #  SET =0 TO SHOW IN DEAD ZONE.
001112: 15,3715           55711        DZCALL1            TS       JETAG                                 #  COME HERE WITH C(A)=0.
001113: 15,3716           03667                           TC       ROLLDUMP
001114:
001115:                                                                                                  #  CM ENTRY FDAI DISPLAY
001116:
001117:                                                                                                  #  CALCULATE BY INTEGRATION THE ROLL ERROR BETWEEN THE 2 SEC CM/RCS UPDATES.  DISPLAY ATTITUDE ERRORS AS FOLLOWS:
001118:                                                                                                  #        ATM DAP:        DISPLAY ONLY ROLL ATTITUDE ERROR.
001119:                                                                                                  #        EXT ATM DAP:    PRESENT 3 ATTITUDE ERRORS RELATIVE TO THE APPROPRIATE BODY AXES EACH .1 SEC.
001120:                                                                                                  #                                ROLL    ROLLC-ROLL
001121:                                                                                                  #                                PITCH   ALFAC-ALFA
001122:                                                                                                  #                                YAW     BETAC-BETA
001123:
001124:                                                                                                  #  DURING ENTRY, THE FDAI NEEDLES HAVE FULL SCALE OF 67.5 DEG IN ROLL AND 16.875 DEG IN PITCH AND YAW.
001125:                                                                                                  #  THE SUBROUTINE  NEEDLER  EXPECTS (ANGLE/180) AND SCALES TO 16.875 DEG FULL SCALE.
001126:
001127:                                                                                                  #  COME HERE EACH .1 SEC.  (CMDAPMOD=+1 COMES BELOW)
001128: 15,3717           41705        CM/FDAI            CS       PHIDOT                                #  INTEGRATE ROLL ERROR 'TWEEN 2SEC UPDATES
001129: 15,3720           00006                           EXTEND
001130: 15,3721           71506                           MP       CALFA                                 #  FOR ASSUMED COORDINATION.
001131: 15,3722           00006                           EXTEND
001132: 15,3723           75016                           MP       HALF
001133: 15,3724           27713                           ADS      PAXERR1                               #  ROLL ERROR/360.  OVFL OK.
001134:
001135:                                                                                                  #  EDIT DUMP AT ABOVE LOCATION.
001136: 15,3725           35016        CM/FDAIR           CA       HALF
001137: 15,3726           00006                           EXTEND
001138: 15,3727           71713                           MP       PAXERR1                               #  FULL SCALE FOR FDAI (ROLL) IS 67.5 D
001139: 15,3730           55476                           TS       PAXERR                                #  .25 (ROLL ERROR/180) FOR FDAI NEEDLE.
001140:
001141:                                                                                                  #  PROGRAM TO FILE BODY RATES FOR TM ON ONE PASS AND
001142:                                                                                                  #  TO UPDATE THE NEEDLE DISPLAY ON THE NEXT.
001143:                                                                                                  #  SYNCHRONIZATION WITH CM/RCS IS USED SO THAT THE TM
001144:                                                                                                  #  IS DONE WITH THE ROLL SYSTEM AND NEEDLES START ON
001145:                                                                                                  #  THE SUBSEQUENT PASS.
001146:
001147: 15,3731           40305        CM/DUMPR           CS       SW/NDX                                #  COMBINED ALTERNATION SWITCH AND FILE
001148: 15,3732           54305                           TS       SW/NDX
001149: 15,3733           00006                           EXTEND                                         #  INDEX.
001150: 15,3734           63740                           BZMF     CMTMFILE                              #  FILE STARTS WITH SW/NDX +1 AND GOES TO
001151:                                                                                                  #  ENDBUF.
001152:                                                                                                  #  INDEX IS POS FOR NEEDLES
001153:
001154: 15,3735           04754                           TC       IBNKCALL
001155: 15,3736           42432                           CADR     NEEDLER
001156:
001157: 15,3737           03756                           TC       CM/END
001158:
001159:                                                                                                  #  INDEX IS NEG FOR TM FILE
001160:
001161: 15,3740           66214        CMTMFILE           AD       THREE
001162: 15,3741           00006                           EXTEND
001163: 15,3742           63746                           BZMF     SAVENDX
001164:
001165: 15,3743           30025                           CA       TIME1                                 #  INITIALIZE THE TM LIST IN UPBUFF.
001166: 15,3744           54304                           TS       CMTMTIME
001167: 15,3745           45041                           CS       THIRTEEN                              #  INITIALIZE COUNTER
001168: 15,3746           54305        SAVENDX            TS       SW/NDX                                #  A NEGATIVE NUMBER.
001169: 15,3747           00006                           EXTEND
001170: 15,3750           31702                           DCA      PREL
001171: 15,3751           50305                           INDEX    SW/NDX
001172: 15,3752           52324                           DXCH     ENDBUF     -1
001173: 15,3753           31703                           CA       RREL
001174: 15,3754           50305                           INDEX    SW/NDX
001175: 15,3755           54325                           TS       ENDBUF     +1
001176:
001177: 15,3756           31623        CM/END             CA       CM/SAVE
001178: 15,3757           54021                           TS       SR
001179:                                                                                                  #  DOES NOT PROTECT TEMK, SQ IN SPSIN/COS
001180:
001181: 15,3760           00006                           EXTEND
001182: 15,3761           33765                           DCA      T5IDLER2
001183: 15,3762           53313                           DXCH     T5LOC
001184: 15,3763           05347                           TC       RESUME
001185:
001186: 15,3764     1312                                  EBANK=   T5LOC
001187: 15,3764           03155 12062  T5IDLER2           2CADR    T5IDLOC
001188:
001189:                                                                                                  #  DEFINE THE FOLLOWING 17D REGISTERS IN UPBUFF TO BE
001190:                                                                                                  #  USED TO TELEMETER CM VEHICLE BODY RATE INFORMATION.
001191:                                                                                                  #  THE INFORMATION IS FILED EACH 0.2 SEC, GIVING 15D
001192:                                                                                                  #  DATA POINTS EACH 1 SEC.  TM LIST IS READ TWICE
001193:                                                                                                  #  EACH 2 SECONDS.
001194:
001195:                                                                                                  #  THE SEQUENCE IS:      SP TIME         INITIAL TIME
001196:                                                                                                  #                        SWITCH          ALSO INDEX.
001197:                                                                                                  #                        P               ROLL RATE
001198:                                                                                                  #                        Q               PITCH RATE
001199:                                                                                                  #                        R               YAW RATE
001200:                                                                                                  #                        ETC.
001201:
001202:                                                                                                  # CMTMTIME       =       UPBUFF
001203:                                                                                                  # SW/NDX         =       UPBUFF +1
001204:                                                                                                  # ENDBUF         =       UPBUFF +16D
001205:
001206:                                                                                                  #  SPACER
001207:
001208:                                                                                                  #  CONSTANTS USED IN THE ROLL CONTROL SYSTEM:
001209:                                                                                                  #  CONSTANTS ARE THE FOLLOWING:  A = 9.1 DEG/SECSQ, VM = 20 DEG/SEC, T = 2 SEC, TCDU = .1 SEC,
001210:                                                                                                  #  XMIN = 4 DEG, VMIN = 2 DEG/SEC, K = .25, A1 = 4.55 DEG/SECSQ, VI = 1 DEG/SEC, INTERCEPT WITH DZ SIDE
001211:                                                                                                  #  XBUF = 4DEG
001212:
001213: 15,3766           77464        -T-3               DEC      -203       B-14                       #  CS
001214: 15,3767           00012        VSQMIN             DEC      .61050061  E-3                        #  VSQ MIN/4 A PI = 4/(4 (9.1) 180)
001215: 15,3770     5047               2T/TCDU            =        OCT50                                 #  T/TCDU EXP-14    TCDU = .1SEC
001216: 15,3770           23617        180/8ATT           DEC      .61813187                             #  180/(8 (9.1) 4)=(180/ATT)     EXP -3
001217: 15,3771  15,3773               -VMT/180           =        -VM/360K                              #  = 20 (2) / 180
001218: 15,3771     5061               2JETT              =        4SECS                                 #  CS            2 (2) 100       INTEGER
001219: 15,3771           01440        4JETT              DEC      800        B-14                       #  CS            4 (2) 100       INTEGER
001220: 15,3772           00266        XMIN/360           DEC      182        B-14                       #  XMIN/360 = 4/ 360  EXP 14  = 182 INTEGER
001221: 15,3773           70706        -VM/360K           DEC      -.22222222                            #  =-20/( 360 (.25))
001222: 15,3774  15,3770               1/16A1             =        180/8ATT
001223:                                                                                                  #  1/16A1   = 180/(16 A1 TT)
001224:                                                                                                  #           = 180/(16 4.55 4)
001225: 15,3774           00133        XS/360             DEC      91         B-14                       #  = (XMIN +VI (T-1/K))/360 = 2/360 EXP 14
001226: 15,3775  15,3774               BUFLIM             =        XS/360                                #  4/(2 360)
001227:
001228: 15,3775     5016               KTRCS              =        HALF                                  #     KT = (.25) 2 = .5
001229:
001230:

End of include-file CM_ENTRY_DIGITAL_AUTOPILOT.agc.  Parent file is MAIN.agc


