
Source Code


000002:                                                                                                  ## Copyright:   Public domain.
000003:                                                                                                  ## Filename:    CSM_GEOMETRY.agc
000004:                                                                                                  ## Purpose:     A section of Manche72 revision 3.
000005:                                                                                                  ##              It is part of the reconstructed source code for the final, flown
000006:                                                                                                  ##              release of the software for the Command Module's (CM) Apollo
000007:                                                                                                  ##              Guidance Computer (AGC) for Apollo 13. No original listings
000008:                                                                                                  ##              of this program are available; instead, this file was recreated
000009:                                                                                                  ##              from a reconstructed copy of Comanche 072. It has been adapted
000010:                                                                                                  ##              such that the resulting bugger words exactly match those
000011:                                                                                                  ##              specified for Manche72 revision 3 in NASA drawing 2021153G,
000012:                                                                                                  ##              which gives relatively high confidence that the reconstruction
000013:                                                                                                  ##              is correct.
000014:                                                                                                  ## Assembler:   yaYUL
000015:                                                                                                  ## Contact:     Ron Burkey <info@sandroid.org>.
000016:                                                                                                  ## Website:     www.ibiblio.org/apollo/index.html
000017:                                                                                                  ## Mod history: 2024-05-19 MAS  Created from Comanche 072.
000018:
000019: 22,2000                                           BANK     22
000020: 23,2000                                           SETLOC   COMGEOM1
000021: 23,2000                                           BANK
000022:
000023:                                                                                                  #  THIS ROUTINE TAKES THE SHAFT AND TRUNNION ANGLES AS READ BY THE CM OPTICAL SYSTEM AND CONVERTS THEM INTO A UNIT
000024:                                                                                                  #  VECTOR REFERENCED TO THE NAVIGATION BASE COORDINATE SYSTEM AND COINCIDENT WITH THE SEXTANT LINE OF SIGHT.
000025:
000026:                                                                                                  #  THE INPUTS ARE  1) THE SEXTANT SHAFT AND TRUNNION ANGLES ARE STORED SP IN LOCATIONS 3 AND 5 RESPECTIVELY OF THE
000027:                                                                                                  #  MARK VAC AREA.  2) THE COMPLEMENT OF THE BASE ADDRESS OF THE MARK VAC AREA IS STORED SP AT LOCATION X1 OF YOUR
000028:                                                                                                  #  JOB VAC AREA.
000029:
000030:                                                                                                  #  THE OUTPUT IS A HALF-UNIT VECTOR IN NAVIGATION BASE COORDINATES AND STORED AT LOCATION 32D OF THE VAC AREA. THE
000031:                                                                                                  #  OUTPUT IS ALSO AVAILABLE AT MPAC.
000032:
000033: 23,2000                                           COUNT    23/GEOM
000034:
000035: 23,2000           47133        SXTNB              SLOAD*   RTB                                   #  PUSHDOWN 00,02,04,(17D-19D),32D-36D
000036: 23,2001           00006                                    5,1                                   #  TRUNNION = TA
000037: 23,2002           45513                                    CDULOGIC
000038: 23,2003           41434                           RTB      PUSH
000039: 23,2004           46027                                    SXTLOGIC
000040: 23,2005           72556                           SIN      SL1
000041: 23,2006           66606                           PUSH     SLOAD*                                #  PD2 = SIN(TA)
000042: 23,2007           00004                                    3,1                                   #  SHAFT = SA
000043: 23,2010           41434                           RTB      PUSH                                  #  PD4 = SA
000044: 23,2011           45513                                    CDULOGIC
000045:
000046: 23,2012           41346                           COS      DMP
000047: 23,2013           00003                                    2
000048: 23,2014           14041                           STODL    STARM                                 #  COS(SA)SIN(TA)
000049:
000050: 23,2015           41356                           SIN      DMP
000051: 23,2016           77626                           STADR
000052: 23,2017           63734                           STODL    STARM      +2                         #  SIN(SA)SIN(TA)
000053:
000054: 23,2020           77746                           COS
000055: 23,2021           24045                           STOVL    STARM      +4
000056: 23,2022           00041                                    STARM                                 #  STARM = 32D
000057: 23,2023           76521                           MXV      VSL1
000058: 23,2024           06302                                    NB1NB2
000059: 23,2025           00041                           STORE    32D
000060: 23,2026           77616                           RVQ
000061:
000062: 23,2027           32323        SXTLOGIC           CAF      10DEGS-                               #  CORRECT FOR 19.775 DEGREE OFFSET
000063: 23,2030           26154                           ADS      MPAC
000064: 23,2031           35017                           CAF      QUARTER
000065: 23,2032           07256                           TC       SHORTMP
000066: 23,2033           06030                           TC       DANZIG
000067:
000068:                                                                                                  #  CALCSXA COMPUTES THE SEXTANT SHAFT AND TRUNNION ANGLES REQUIRED TO POSITION THE OPTICS SUCH THAT A STAR LINE-
000069:                                                                                                  #  OF-SIGHT LIES ALONG THE STAR VECTOR.  THE ROUTINE TAKES THE GIVEN STAR VECTOR AND EXPRESSES IT AS A VECTOR REF-
000070:                                                                                                  #  ERENCED TO THE OPTICS COORDINATE SYSTEM.  IN ADDITION IT SETS UP THREE UNIT VECTORS DEFINING THE X, Y, AND Z AXES
000071:                                                                                                  #  REFERENCED TO THE OPTICS COORDINATE SYSTEM.
000072:
000073:                                                                                                  #  THE INPUTS ARE  1) THE STAR VECTOR REFERRED TO PRESENT STABLE MEMBER COORDINATES STORED AT STAR.  2) SAME ANGLE
000074:                                                                                                  #  INPUT AS *SMNB*, I.E. SINES AND COSINES OF THE CDU ANGLES, IN THE ORDER Y Z X, AT SINCDU AND COSCDU.  A CALL
000075:                                                                                                  #  TO CDUTRIG WILL PROVIDE THIS INPUT.
000076:
000077:                                                                                                  #  THE OUTPUTS ARE THE SEXTANT SHAFT AND TRUNNION ANGLES STORED DP AT SAC AND PAC RESPECTIVELY.  (LOW ORDER PART
000078:                                                                                                  #  EQUAL TO ZERO).
000079:
000080: 23,2034           77220        CALCSXA            ITA      VLOAD                                 #  PUSHDOWN 00-26D, 28D, 30D, 32D-36D
000081: 23,2035           00034                                    28D
000082: 23,2036           02766                                    STAR
000083: 23,2037           77624                           CALL
000084: 23,2040           47646                                    *SMNB*
000085: 23,2041           76521                           MXV      VSL1
000086: 23,2042           06260                                    NB2NB1
000087: 23,2043           26766                           STOVL    STAR
000088: 23,2044           15332                                    HIUNITX
000089: 23,2045           26555                           STOVL    XNB1
000090: 23,2046           15330                                    HIUNITY
000091: 23,2047           26563                           STOVL    YNB1
000092: 23,2050           15326                                    HIUNITZ
000093: 23,2051           36571                           STCALL   ZNB1
000094: 23,2052           46076                                    SXTANG1
000095:
000096:                                                                                                  #  SXTANG COMPUTES THE SEXTANT SHAFT AND TRUNNION ANGLES REQUIRED TO POSITION THE OPTICS SUCH THAT A STAR LINE-OF-
000097:                                                                                                  #  SIGHT LIES ALONG THE STAR VECTOR.
000098:
000099:                                                                                                  #  THE INPUTS ARE  1) THE STAR VECTOR REFERRED TO ANY COORDINATE SYSTEM STORED AT STAR.  2) THE NAVIGATION BASE
000100:                                                                                                  #  COORDINATES REFERRED TO THE SAME COORDINATE SYSTEM.  THESE THREE HALF-UNIT VECTORS ARE STORED AT XNB, YNB,AND
000101:                                                                                                  #  ZNB.
000102:
000103:                                                                                                  #  THE OUTPUTS ARE THE SEXTANT SHAFT AND TRUNNION ANGLES STORED DP AT SAC AND PAC RESPECTIVELY.  (LOW ORDER PART
000104:                                                                                                  #  EQUAL TO ZERO).
000105:
000106: 23,2053           47020        SXTANG             ITA      RTB                                   #  PUSHDOWN 16D,18D,22D-26D,28D
000107: 23,2054           00034                                    28D
000108: 23,2055           45662                                    TRANSP1                               #  EREF WRT NB2
000109: 23,2056           64375                           VLOAD    MXV
000110: 23,2057           02714                                    XNB
000111: 23,2060           06260                                    NB2NB1
000112: 23,2061           77772                           VSL1
000113: 23,2062           26555                           STOVL    XNB1
000114: 23,2063           02722                                    YNB
000115: 23,2064           76521                           MXV      VSL1
000116: 23,2065           06260                                    NB2NB1
000117: 23,2066           26563                           STOVL    YNB1
000118: 23,2067           02730                                    ZNB
000119: 23,2070           76521                           MXV      VSL1
000120: 23,2071           06260                                    NB2NB1
000121: 23,2072           02571                           STORE    ZNB1
000122:
000123: 23,2073           47034                           RTB      RTB
000124: 23,2074           45662                                    TRANSP1
000125: 23,2075           45676                                    TRANSP2
000126:
000127: 23,2076           47375        SXTANG1            VLOAD    VXV
000128: 23,2077           02571                                    ZNB1
000129: 23,2100           02766                                    STAR
000130: 23,2101           77600                           BOV
000131: 23,2102           46103                                    +1
000132: 23,2103           40056                           UNIT     BOV
000133: 23,2104           46145                                    ZNB=S1
000134: 23,2105           00027                           STORE    PDA                                   #  PDA = UNIT(ZNB X S)
000135:
000136: 23,2106           57441                           DOT      DCOMP
000137: 23,2107           02555                                    XNB1
000138: 23,2110           24023                           STOVL    SINTH                                 #  SIN(SA) = PDA . -XNB
000139: 23,2111           00027                                    PDA
000140:
000141: 23,2112           77641                           DOT
000142: 23,2113           02563                                    YNB1
000143: 23,2114           34021                           STCALL   COSTH                                 #  COS(SA) = PDA . YNB
000144: 23,2115           47260                                    ARCTRIG
000145: 23,2116           77634                           RTB
000146: 23,2117           45546                                    1STO2S
000147: 23,2120           26774                           STOVL    SAC
000148: 23,2121           02766                                    STAR
000149: 23,2122           77600                           BOV
000150: 23,2123           46124                                    +1
000151: 23,2124           72441                           DOT      SL1
000152: 23,2125           02571                                    ZNB1
000153: 23,2126           77726                           ACOS
000154: 23,2127           62440                           BMN      SL2
000155: 23,2130           46142                                    SXTALARM                              #  TRUNNION ANGLE NEGATIVE
000156: 23,2131           45200                           BOV      DSU
000157: 23,2132           46142                                    SXTALARM                              #  TRUNNION ANGLE GREATER THAN 90 DEGREES
000158: 23,2133           06331                                    20DEG-
000159: 23,2134           77634                           RTB
000160: 23,2135           45546                                    1STO2S
000161: 23,2136           02776                           STORE    PAC                                   #  FOR FLIGHT USE, CULTFLAG IS ON IF
000162: 23,2137           77614                           CLRGO                                          #  TRUNION IS GREATER THAN 90 DEG
000163: 23,2140           01630                                    CULTFLAG
000164: 23,2141           00034                                    28D
000165: 23,2142           77614        SXTALARM           SETGO                                          #  ALARM HAS BEEN REMOVED FROM THIS
000166: 23,2143           01430                                    CULTFLAG
000167: 23,2144           00034                                    28D                                   #  SUBROUTINE, ALARM WILL BE SET BY MPI
000168: 23,2145           77745        ZNB=S1             DLOAD
000169: 23,2146           06325                                    270DEG
000170: 23,2147           16774                           STODL    SAC
000171: 23,2150           06327                                    20DEGS-
000172: 23,2151           02776                           STORE    PAC
000173: 23,2152           77614                           CLRGO
000174: 23,2153           01630                                    CULTFLAG
000175: 23,2154           00034                                    28D
000176:
000177:                                                                                                  #  THESE TWO ROUTINES COMPUTE THE ACTUAL STATE VECTOR FOR LM, CSM BY ADDING
000178:                                                                                                  #  THE CONIC R,V AND THE DEVIATIONS R,V.  THE STATE VECTORS ARE CONVERTED TO
000179:                                                                                                  #  METERS B-29 AND METERS/CSEC B-7 AND STORED APPROPRIATELY IN RN,VN OR
000180:                                                                                                  #  R-OTHER, V-OTHER FOR DOWNLINK.  THE ROUTINES NAMES ARE SWITCHED IN THE
000181:                                                                                                  #  OTHER VEHICLES COMPUTER.
000182:
000183:                                                                                                  #  INPUT
000184:                                                                                                  #        STATE VECTOR IN TEMPORARY STORAGE AREA
000185:                                                                                                  #        IF STATE VECTOR IS SCALED POS B27 AND VEL B5
000186:                                                                                                  #                SET X2 TO +2
000187:                                                                                                  #        IF STATE VECTOR IS SCALED POS B29 AND VEL B7
000188:                                                                                                  #                SET X2 TO 0
000189:
000190:                                                                                                  #  OUTPUT
000191:                                                                                                  #        R(T) IN RN, V(T) IN VN, T IN PIPTIME
000192:                                                                                                  #                OR
000193:                                                                                                  #        R(T) IN R-OTHER, V(T) IN V-OTHER        (T IS DEFINED BY T-OTHER)
000194:
000195: 23,2155                                           BANK     23
000196: 10,2000                                           SETLOC   COMGEOM2
000197: 10,2000                                           BANK
000198: 10,2237                                           COUNT    10/GEOM
000199: 10,2237           43414        SVDWN1             BOF      RVQ                                   #  SW=1=AVETOMID DOING W-MATRIX INTEG
000200: 10,2240           04756                                    AVEMIDSW
000201: 10,2241           20242                                    +1
000202: 10,2242           53775                           VLOAD    VSL*
000203: 10,2243           01521                                    TDELTAV
000204: 10,2244           57605                                    0          -7,2
000205: 10,2245           53655                           VAD      VSL*
000206: 10,2246           01535                                    RCV
000207: 10,2247           57576                                    0,2
000208: 10,2250           25171                           STOVL    RN
000209: 10,2251           01527                                    TNUV
000210: 10,2252           53257                           VSL*     VAD
000211: 10,2253           57602                                    0          -4,2
000212: 10,2254           01543                                    VCV
000213: 10,2255           77657                           VSL*
000214: 10,2256           57576                                    0,2
000215: 10,2257           15177                           STODL    VN
000216: 10,2260           01517                                    TET
000217: 10,2261           01205                           STORE    PIPTIME
000218: 10,2262           77616                           RVQ
000219:
000220: 10,2263           53775        SVDWN2             VLOAD    VSL*
000221: 10,2264           01521                                    TDELTAV
000222: 10,2265           57605                                    0          -7,2
000223: 10,2266           53655                           VAD      VSL*
000224: 10,2267           01535                                    RCV
000225: 10,2270           57576                                    0,2
000226: 10,2271           25722                           STOVL    R-OTHER
000227: 10,2272           01527                                    TNUV
000228: 10,2273           53257                           VSL*     VAD
000229: 10,2274           57602                                    0          -4,2
000230: 10,2275           01543                                    VCV
000231: 10,2276           77657                           VSL*
000232: 10,2277           57576                                    0,2
000233: 10,2300           01730                           STORE    V-OTHER
000234: 10,2301           77616                           RVQ
000235:
000236:                                                                                                  #  SUBROUTINE TO COMPUTE THE NATURAL LOG OF C(MPAC, MPAC +1).
000237:
000238:                                                                                                  #        ENTRY:  CALL
000239:                                                                                                  #                        LOG
000240:
000241:                                                                                                  #  SUBROUTINE RETURNS WITH -LOG IN DP MPAC.
000242:
000243:                                                                                                  #  EBANK IS ARBITRARY..
000244:
000245: 14,2000                                           BANK     14
000246: 23,2000                                           SETLOC   POWFLIT2
000247: 23,2000                                           BANK
000248: 23,2155                                           COUNT    23/GEOM
000249:
000250: 23,2155           44301        LOG                NORM     BDSU                                  #  GENERATES LOG BY SHIFTING ARG
000251: 23,2156           00160                                    MPAC       +3                         #  UNTIL IT LIES BETWEEN .5 AND 1.
000252: 23,2157           06212                                    NEARLY1                               #  THE LOG OF THIS PART IS FOUND AND THE
000253: 23,2160           77776                           EXIT                                           #  LOG OF THE SHIFTED PART IS COMPUTED
000254: 23,2161           07171                           TC       POLY                                  #  AND ADDED IN.  SHIFT COUNT STORED
000255: 23,2162           00002                           DEC      2          B-14                       #  (N-1, SUPPLIED BY SMERZH)
000256: 23,2163           00000 00000                     2DEC     0          B-28                       #  IN MPAC +3.
000257: 23,2165           01001 14636                     2DEC     .031335467
000258: 23,2167           00325 07310                     2DEC     .0130145859
000259: 23,2171           00541 16735                     2DEC     .0215738898
000260:
000261: 23,2173           35035                           CAF      ZERO
000262: 23,2174           54156                           TS       MPAC       +2
000263: 23,2175           00006                           EXTEND
000264: 23,2176           32214                           DCA      CLOG2/32
000265: 23,2177           52155                           DXCH     MPAC
000266: 23,2200           52160                           DXCH     MPAC       +3
000267: 23,2201           40000                           COM                                            #  LOAD POSITIVE SHIFT COUNT IN A.
000268: 23,2202           07256                           TC       SHORTMP                               #  MULTIPLY BY SHIFT COUNT.
000269:
000270: 23,2203           52156                           DXCH     MPAC       +1
000271: 23,2204           52155                           DXCH     MPAC
000272: 23,2205           52160                           DXCH     MPAC       +3
000273: 23,2206           20155                           DAS      MPAC
000274: 23,2207           06006                           TC       INTPRET                               #  RESULT IN MPAC, MPAC +1
000275:
000276: 23,2210           77616                           RVQ
000277:
000278: 23,2211           37777 37777  NEARLY1            2DEC     .999999999
000279:
000280: 23,2213           00542 34414  CLOG2/32           2DEC     .0216608494
000281:
000282:                                                                                                  #  SUBROUTINE NAME:  EARTH ROTATOR       (EARROT1 OR EARROT2)            DATE:  15 FEB 67
000283:                                                                                                  #  MOD NO:  N +1                                                         LOG SECTION:  POWERED FLIGHT SUBROS
000284:                                                                                                  #  MOD BY:  ENTRY GROUP (BAIRNSFATHER)
000285:
000286:                                                                                                  #  FUNCTIONAL DESCRIPTION:  THIS ROUTINE PROJECTS THE INITIAL EARTH TARGET VECTOR RTINIT AHEAD THROUGH
000287:                                                                                                  #        THE ESTIMATED TIME OF FLIGHT.  INITIAL CALL RESOLVES THE INITIAL TARGET VECTOR RTINIT INTO EASTERLY
000288:                                                                                                  #        AND NORMAL COMPONENTS RTEAST AND RTNORM.  INITIAL AND SUBSEQUENT CALLS ROTATE THIS VECTOR
000289:                                                                                                  #        ABOUT THE (FULL) UNIT POLAR AXIS UNITW THROUGH THE ANGLE  WIE DTEAROT  TO OBTAIN THE ROTATED
000290:                                                                                                  #        TARGET VECTOR RT.  ALL VECTORS EXCEPT UNITW ARE HALF UNIT.
000291:                                                                                                  #        THE EQUATIONS ARE
000292:                                                                                                  #                -    -        -                      -
000293:                                                                                                  #                RT = RTINIT + RTNORM (COS(WT) - 1) + RTEAST SIN(WT)
000294:
000295:                                                                                                  #        WHERE   WT = WIE DTEAROT
000296:
000297:                                                                                                  #                RTINIT = INITIAL TARGET VECTOR
000298:                                                                                                  #                -        -       -
000299:                                                                                                  #                RTEAST = UNITW * RTINIT
000300:                                                                                                  #                -        -        -
000301:                                                                                                  #                RTNORM = RTEAST * UNITW
000302:
000303:                                                                                                  #        FOR CONTINUOUS UPDATING, ONLY ONE ENTRY TO EARROT1 IS REQUIRED, WITH SUBSEQUENT ENTRIES AT EARROT2.
000304:                                                                                                  #
000305:                                                                                                  #  CALLING SEQUENCE:     FIRST CALL                      SUBSEQUENT CALL
000306:                                                                                                  #                        STCALL  DTEAROT                 STCALL  DTEAROT
000307:                                                                                                  #                                EARROT1                         EARROT2
000308:                                                                                                  #                        C(MPAC) UNSPECIFIED             C(MPAC) = DTEAROT
000309:                                                                                                  #        PUSHLOC = PDL+0, ARBITRARY.  6 LOCATIONS USED.
000310:
000311:                                                                                                  #  SUBROUTINES USED:  NONE
000312:
000313:                                                                                                  #  NORMAL EXIT MODES:  RVQ
000314:
000315:                                                                                                  #  ALARMS:  NONE
000316:
000317:                                                                                                  #  OUTPUT:       RTEAST  (-1)            .5 UNIT VECTOR EAST, COMPNT OF RTINIT   LEFT BY FIRST CALL
000318:                                                                                                  #                RTNORM  (-1)            .5 UNIT VECTOR NORML, COMPNT OF RTINIT  LEFT BY FIRST CALL
000319:                                                                                                  #                RT      (-1)            .5 UNIT TARGET VECTOR, ROTATED          LEFT BY ALL CALLS
000320:                                                                                                  #                DTEAROT (-28) CS        MAY BE CHANGED BY EARROT2, IF OVER 1 DAY
000321:
000322:                                                                                                  #  ERASABLE INITIALIZATION REQUIRED:
000323:                                                                                                  #                UNITW   (0)             UNIT POLAR VECTOR                       PAD LOADED
000324:                                                                                                  #                RTINIT  (-1)            .5 UNIT INITIAL TARGET VECTOR           LEFT BY ENTRY
000325:                                                                                                  #                DTEAROT (-28) CS        TIME OF FLIGHT                          LEFT BY CALLER
000326:
000327:                                                                                                  #  DEBRIS:  QPRET, PDL+0 ... PDL+5
000328: 23,2215  E7,1451                                  EBANK=   RTINIT
000329:
000330: 23,2215           47375        EARROT1            VLOAD    VXV
000331: 23,2216           01714                                    UNITW                                 #  FULL UNIT VECTOR
000332: 23,2217           03452                                    RTINIT                                #  .5 UNIT
000333: 23,2220           03460                           STORE    RTEAST                                #  .5 UNIT
000334:
000335: 23,2221           77635                           VXV
000336: 23,2222           01714                                    UNITW                                 #  FULL UNIT
000337: 23,2223           17466                           STODL    RTNORM                                #  .5 UNIT
000338: 23,2224           03606                                    DTEAROT                               #  (-28) CS
000339:
000340: 23,2225           56204        EARROT2            BOVB     DDV
000341: 23,2226           57353                                    TCDANZIG                              #  RESET OVFIND, IF ON
000342: 23,2227           06256                                    1/WIE
000343: 23,2230           41400                           BOV      PUSH
000344: 23,2231           46245                                    OVERADAY
000345: 23,2232           45346                           COS      DSU
000346: 23,2233           15332                                    HIDPHALF
000347: 23,2234           65361                           VXSC     PDDL                                  #  XCH W PUSH LIST
000348: 23,2235           03466                                    RTNORM                                #  .5 UNIT
000349: 23,2236           74356                           SIN      VXSC
000350: 23,2237           03460                                    RTEAST                                #  .5 UNIT
000351: 23,2240           76455                           VAD      VSL1
000352: 23,2241           53455                           VAD      UNIT                                  #  INSURE THAT RT IS 'UNIT'.
000353: 23,2242           03452                                    RTINIT                                #  .5 UNIT
000354: 23,2243           03474                           STORE    RT                                    #  .5 UNIT TARGET VECTOR
000355:
000356: 23,2244           77616                           RVQ
000357:
000358: 23,2245           75345        OVERADAY           DLOAD    SIGN
000359: 23,2246           06256                                    1/WIE
000360: 23,2247           03606                                    DTEAROT
000361: 23,2250           77621                           BDSU
000362: 23,2251           03606                                    DTEAROT
000363: 23,2252           03606                           STORE    DTEAROT
000364:
000365: 23,2253           77650                           GOTO
000366: 23,2254           46225                                    EARROT2
000367:
000368:                                                                                                  # WIE            2DEC    .1901487997
000369: 23,2255           01015 34732  1/WIE              2DEC     8616410    B-28
000370: 23,2257           15373 11346  NB2NB1             2DEC     +.8431756920 B-1
000371: 23,2261           00000 00000                     2DEC     0          B-28
000372: 23,2263           67313 65307                     2DEC     -.5376381241 B-1
000373: 23,2265           00000 00000  ZERINFLT           2DEC     0          B-28
000374: 23,2267           20000 00000  HALFNFLT           2DEC     .5
000375: 23,2271           00000 00000                     2DEC     0          B-28
000376: 23,2273           10464 12470                     2DEC     +.5376381241 B-1
000377: 23,2275           00000 00000                     2DEC     0          B-28
000378: 23,2277           15373 11346                     2DEC     +.8431756920 B-1
000379: 23,2301           15373 11346  NB1NB2             2DEC     +.8431756920 B-1
000380: 23,2303           00000 00000                     2DEC     0          B-28
000381: 23,2305           10464 12470                     2DEC     +.5376381241 B-1
000382: 23,2307           00000 00000                     2DEC     0          B-28
000383: 23,2311           20000 00000                     2DEC     .5
000384: 23,2313           00000 00000                     2DEC     0          B-28
000385: 23,2315           67313 65307                     2DEC     -.5376381241 B-1
000386: 23,2317           00000 00000                     2DEC     0          B-28
000387: 23,2321           15373 11346                     2DEC     +.8431756920 B-1
000388: 23,2323           07020        10DEGS-            DEC      3600       B-14
000389: 23,2324           60000        270DEG             OCT      60000                                 #  SHAFT 270 DEGREES     2S COMP.
000390: 23,2325           00000                           OCT      00000
000391: 23,2326           61740        20DEGS-            DEC      -07199     B-14
000392: 23,2327           77777                           DEC      -00000     B-14
000393: 23,2330           07020        20DEG-             DEC      03600      B-14
000394: 23,2331           00000                           DEC      00000      B-14
000395:

End of include-file CSM_GEOMETRY.agc.  Parent file is MAIN.agc


