
Source Code


000002:                                                                                                  ## Copyright:   Public domain.
000003:                                                                                                  ## Filename:    EXTENDED_VERBS.agc
000004:                                                                                                  ## Purpose:     A section of Manche72 revision 3.
000005:                                                                                                  ##              It is part of the reconstructed source code for the final, flown
000006:                                                                                                  ##              release of the software for the Command Module's (CM) Apollo
000007:                                                                                                  ##              Guidance Computer (AGC) for Apollo 13. No original listings
000008:                                                                                                  ##              of this program are available; instead, this file was recreated
000009:                                                                                                  ##              from a reconstructed copy of Comanche 072. It has been adapted
000010:                                                                                                  ##              such that the resulting bugger words exactly match those
000011:                                                                                                  ##              specified for Manche72 revision 3 in NASA drawing 2021153G,
000012:                                                                                                  ##              which gives relatively high confidence that the reconstruction
000013:                                                                                                  ##              is correct.
000014:                                                                                                  ## Assembler:   yaYUL
000015:                                                                                                  ## Contact:     Ron Burkey <info@sandroid.org>.
000016:                                                                                                  ## Website:     www.ibiblio.org/apollo/index.html
000017:                                                                                                  ## Mod history: 2024-05-19 MAS  Created from Comanche 072.
000018:
000019: 07,2441                                           BANK     7
000020: 43,2000                                           SETLOC   EXTVERBS
000021: 43,2000                                           BANK
000022:
000023: 43,2000  E5,1757                                  EBANK=   OGC
000024:
000025: 43,2000                                           COUNT*   $$/EXTVB
000026:
000027:                                                                                                  #  FAN-OUT
000028:
000029: 43,2000           50154        GOEXTVB            INDEX    MPAC                                  #  VERB-40 IS IN MPAC
000030: 43,2001           02002                           TC       LST2FAN                               #  FAN AS BEFORE.
000031:
000032: 43,2002           02126        LST2FAN            TC       VBZERO                                #  VB40 ZERO (USED WITH NOUN 20 ONLY).
000033: 43,2003           02152                           TC       VBCOARK                               #  VB41 COARSE ALIGN (USED WITH NOUN 20 OR
000034:                                                                                                  #                                91 ONLY)
000035: 43,2004           02242                           TC       IMUFINEK                              #  VB42 FINE ALIGN IMU
000036: 43,2005           02422                           TC       IMUATTCK                              #  VB43 LOAD IMU ATTITUDE ERROR METERS.
000037: 43,2006           03137                           TC       SETSURF                               #  VB44 SET SURFACE FLAG
000038: 43,2007           03142                           TC       RESTSRF                               #  VB45 RESET SURFACE FLAG
000039: 43,2010           02527                           TC       STABLISH                              #  VB46 ESTABLISH G+C CONTROL.
000040: 43,2011           03040                           TC       LMTOCMSV                              #  VB47 MOVE LM STATE VECTOR INTO CM
000041: 43,2012           02555                           TC       DAPDISP                               #  VB48 LOAD A/P DATA.
000042: 43,2013           12546                           TCF      CREWMANU                              #  VB 49 START AUTOMATIC ATTITUDE MANEUVER
000043: 43,2014           02277                           TC       GOLOADLV                              #  VB50 PLEASE PERFORM
000044: 43,2015           02277                           TC       GOLOADLV                              #  VB51 PLEASE MARK
000045: 43,2016           03110                           TC       V52                                   #  VB52 SET OFFSET NO. FOR P22
000046: 43,2017           02277                           TC       GOLOADLV                              #  VB 53 PLEASE PERFORM COAS MARK
000047: 43,2020           02611                           TC       GOTOR23                               #  V54 START R23 (R21-BACKUP)
000048: 43,2021           02330                           TC       ALINTIME                              #  VB55 ALIGN TIME
000049: 43,2022           02652                           TC       TRACKTRM                              #  VB56 TERMINATE TRACKING (P20 + P25)
000050: 43,2023           02606                           TC       GOTOR21                               #  V57 START R21 REND TRACK SIGHT MARK ROUT
000051: 43,2024           02511                           TC       ENATMA                                #  VB58 ENABLE AUTOMATIC ATTITUDE MANEUVER
000052: 43,2025           02277                           TC       GOLOADLV                              #  VB59 PLEASE CALIBRATE
000053: 43,2026           02305                           TC       V60                                   #  VB60 SET CPHIX (N17) EQUAL TO CDU
000054: 43,2027           02313                           TC       V61                                   #  VB61 SELECT MODE I
000055: 43,2030           02316                           TC       V62                                   #  VB62 SELECT MODE II, ERROR WRT N22
000056: 43,2031           02323                           TC       V63                                   #  VB63 SELECT MODE III, ERROR WRT N17
000057: 43,2032           02502                           TC       VB64                                  #  VB64 CALCULATE, DISPLAY S-BAND ANT ANGLES
000058: 43,2033           02377                           TC       CKOPTVB                               #  V 65 E OPTICAL VERIFICATION FOR PRELAUNC
000059: 43,2034           03033                           TC       ATTACHED                              #  VB66 ATTACHED. MOVE THIS TO OTHER STATE
000060: 43,2035           03131                           TC       V67                                   #  VB67 W MATRIX MONITOR
000061: 43,2036           02516                           TC       STROKON                               #  VB68 CSM STROKE TEST ON.
000062: 43,2037           02037        VERB69             TC       VERB69                                #  VB69 CAUSE RESTART
000063: 43,2040           03736                           TC       V70UPDAT                              #  VB70 UPDATE LIFTOFF TIME.
000064: 43,2041           03740                           TC       V71UPDAT                              #  VB71 UNIVERSAL UPDATE - BLOCK ADDRESS.
000065: 43,2042           03742                           TC       V72UPDAT                              #  VB72 UNIVERSAL UPDATE - SINGLE ADDRESS.
000066: 43,2043           03744                           TC       V73UPDAT                              #  VB73 UPDATE AGC TIME (OCTAL).
000067: 43,2044           02720                           TC       DNEDUMP                               #  VB74 INITIALIZE DOWN-TELEMETRY PROGRAM
000068:                                                                                                  #        FOR ERASABLE DUMP.
000069: 43,2045           02724                           TC       LFTFLGON                              #  VB75 SET LIFTOFF FLAG.
000070: 43,2046           03014                           TC       SETPRFLG                              #  VB76 SET PREFERRED ATTITUDE FLAG
000071: 43,2047           03017                           TC       RESETPRF                              #  VB77 RESET PREFERRED ATT. FLAG
000072: 43,2050           02410                           TC       CHAZFOGC                              #  CHANGE GYROCOMPASS LAUNCH AZIMUTH V78
000073: 43,2051           03145                           TC       V79                                   #  VB79 START BARBECUE MODE ROUTINE (R64)
000074: 43,2052           02712                           TC       LEMVEC                                #  VB80 UPDATE LEM STATE VECTOR
000075: 43,2053           02715                           TC       CSMVEC                                #  VB81 UPDATE CSM STATE VECTOR
000076: 43,2054           02565                           TC       V82PERF                               #  VB82 REQUEST ORBIT PARAM DISPLAY (R30)
000077: 43,2055           02572                           TC       V83PERF                               #  VB83 RANGE, RANGE RATE, +X AXIS  (R31)
000078: 43,2056           02122                           TC       ALM/END                               #  V84  SPARE
000079: 43,2057           02602                           TC       V85PERF                               #  VB85 RANGE, RANGE RATE, SLOS     (R34)
000080: 43,2060           02645                           TC       V86PERF                               #  VB86 BACKUP MARK REJECT
000081: 43,2061           03022                           TC       SETVHFLG                              #  VB87 SET VHF RANGE FLAG
000082: 43,2062           03026                           TC       RESETVHF                              #  VB88 RESET VHF RANGE FLAG
000083: 43,2063           02745                           TC       V89PERF                               #  V89-ALIGN X OR PRF CSM AXIS TO LOS (R63)
000084: 43,2064           03073                           TC       V90PERF                               #  VB90-OUT OF PLANE PARAMETERS %R36"
000085: 43,2065           02761                           TC       GOSHOSUM                              #  VB91 TEMP FOR HYBRID AND STG.
000086: 43,2066           02362                           TC       SYSTEST                               #  VB92 OPERATE IMU PERFORMANCE TEST
000087: 43,2067           02754                           TC       WMATRXNG                              #  VB93 CLEAR RENDWFLG
000088: 43,2070           03057                           TC       VERB94                                #  VB94 DO R64
000089: 43,2071           02122                           TC       ALM/END                               #  VB95 SPARE
000090: 43,2072           13101                           TCF      VERB96                                #  VB96 SET QUITFLAG TO STOP INTEGRATION
000091: 43,2073           02277                           TC       GOLOADLV                              #  V97 PLEASE PERFORM ENGINE-FAIL (R41)
000092: 43,2074           02122                           TC       ALM/END                               #  VB98 SPARE
000093: 43,2075           02277                           TC       GOLOADLV                              #  VB99 PLEASE ENABLE ENGINE
000094:
000095:                                                                                                  #  END OF EXTENDED VERB FAN
000096:
000097: 43,2076           11044        TESTXACT           CCS      EXTVBACT
000098: 43,2077           02122                           TC       ALM/END                               #  YES. TURN ON OPERATOR ERROR LIGHT
000099: 43,2100           30100                           CA       FLAGWRD4                              #  ARE PRIOS USING DSKY
000100: 43,2101           72125                           MASK     OC24100
000101: 43,2102           10000                           CCS      A
000102: 43,2103           02122                           TC       ALM/END
000103:
000104: 43,2104           34112                           CAF      OCT24                                 #  SET BITS 3 AND 5
000105: 43,2105           55044        SETXTACT           TS       EXTVBACT                              #  NO. SET FLAG TO SHOW EXT VERB DISPLAY
000106:                                                                                                  #  SYSTEM BUSY
000107:
000108: 43,2106           30002                           CA       Q
000109: 43,2107           54155                           TS       MPAC       +1
000110:
000111: 43,2110           45032                           CS       TWO                                   #  BLANK EVERYTHING EXCEPT MM AND VERB
000112: 43,2111           04170                           TC       NVSUB
000113: 43,2112           02113                           TC       +1


000116: 43,2113           10067                           CCS      NEWJOB                                #  ALLOW POSSIBLE WAITING DISPLAY (FROM
000117: 43,2114           05200                           TC       CHANG1                                #     RELDSP) TO COME UP.
000118:
000119: 43,2115           00155                           TC       MPAC       +1
000120:
000121: 43,2116           04400        XACTALM            TC       FALTON                                #  TURN ON OPERATOR ERROR LIGHT.
000122: 43,2117           05550                           TC       ENDEXT                                #  RELEASE MARK AND EXT. VERB DISPLAY SYS.
000123: 43,2120     5550               TERMEXTV           EQUALS   ENDEXT
000124: 43,2120     5550               ENDEXTVB           EQUALS   ENDEXT
000125:
000126: 43,2120           35035        XACT0              CAF      ZERO                                  #  RELEASE MARK AND EXT. VERB DISPLAY SYS.
000127: 43,2121           02105                           TC       SETXTACT
000128:
000129: 43,2122           04400        ALM/END            TC       FALTON                                #  TURN ON OPERATOR ERROR LIGHT
000130: 43,2123           04715        GOPIN              TC       POSTJUMP
000131: 43,2124           21272                           CADR     PINBRNCH
000132:
000133: 43,2125           24100        OC24100            OCT      24100
000134:
000135:                                                                                                  #  VBZERO        VERB 40         DESCRIPTION
000136:                                                                                                  #        ZERO
000137:                                                                                                  #        1.      REQUIRE NOUN 20 (ICDU ANGLES)
000138:                                                                                                  #        2.      REQUIRE AVAILABILITY OF EXT VERB DISPLAY SYSTEM
000139:                                                                                                  #        3.      IF EITHER OF ABOVE CONDITIONS NOT PRESENT, TURN ON OPERATOR ERROR LIGHT AND GO TO PINBRNCH.
000140:                                                                                                  #        4.      SET EXT VERB DISPLAY ACTIVE FLAG.
000141:                                                                                                  #        5.      EXECUTE IMUZERO (ZERO IMU CDU ANGLES).
000142:                                                                                                  #        6.      EXECUTE IMUSTALL (ALLOW TIME FOR DATA TRANSFER).
000143:                                                                                                  #        7.      RELEASE EXT. VERB DISPLAY SYSTEM.
000144:
000145: 43,2126           02140        VBZERO             TC       OP/INERT
000146: 43,2127           02131                           TC       IMUZEROK                              #  RETURN HERE IF NOUN = ICDU(20)
000147: 43,2130           02122                           TC       ALM/END                               #  RETURN HERE IF NOUN = OCDU(91)
000148:                                                                                                  #        (NOT IN USE YET)
000149:
000150: 43,2131           02273        IMUZEROK           TC       CKMODCAD                              #  KEYBOARD REQUEST FOR ISS CDUZERO
000151: 43,2132           04676                           TC       BANKCALL
000152: 43,2133           16577                           CADR     IMUZERO
000153:
000154: 43,2134           04676                           TC       BANKCALL                              #  STALL
000155: 43,2135           17577                           CADR     IMUSTALL
000156: 43,2136           02137                           TC       +1
000157:
000158: 43,2137           02123                           TC       GOPIN
000159:
000160: 43,2140           44112        OP/INERT           CS       OCT24
000161: 43,2141           61002                           AD       NOUNREG
000162: 43,2142           00006                           EXTEND
000163: 43,2143           12500                           BZF      XACT0Q                                #  IF = 20.
000164:
000165: 43,2144           24002                           INCR     Q
000166: 43,2145           62151                           AD       OPIMDIFF                              #  -71
000167: 43,2146           00006                           EXTEND
000168: 43,2147           12500                           BZF      XACT0Q
000169:
000170: 43,2150           02122                           TC       ALM/END                               #  ILLEGAL.
000171:
000172: 43,2151           77670        OPIMDIFF           DEC      -71        B-14
000173:
000174:                                                                                                  #  VBCOARK       VERB 41         DESCRIPTION
000175:                                                                                                  #        COURSE ALIGN IMU OR OPTICS
000176:
000177:                                                                                                  #        1.      REQUIRE NOUN 20 OR NOUN 91 OR TURN ON OPERATOR ERROR
000178:                                                                                                  #        2.      REQUIRE EXT VERB DISPLAY SYS AVAILABLE OR TURN ON OPERATOR ERROR LIGHT AND GO TO PINBRNCH.
000179:
000180:                                                                                                  #        CASE 1  NOUN 20 (ICDU ANGLES)
000181:                                                                                                  #        3.      SET EXT VERB DISPLAY ACTIVE FLAG.
000182:                                                                                                  #        4.      DISPLAY FLASHING V25,N22 (LOAD NEW ICDU ANGLES).
000183:                                                                                                  #                RESPONSES
000184:                                                                                                  #                A.      TERMINATE
000185:                                                                                                  #                        1.      RELEASE EXT VERB DISPLAY SYSTEM
000186:                                                                                                  #                B.      PROCEED
000187:                                                                                                  #                        1.      DISPLAY FLASHING V25,N23 (LOAD DELTA ICDU ANGLES).
000188:                                                                                                  #                                RESPONSES
000189:                                                                                                  #                                A.      TERMINATE
000190:                                                                                                  #                                        1.      RELEASE EXT VERB DISPLAY SYSTEM.
000191:                                                                                                  #                                B.      PROCEED
000192:                                                                                                  #                                        1.      EXECUTE ICORK2.
000193:                                                                                                  #                                C.      ENTER
000194:                                                                                                  #                                        1.      INCREMENT CDU ANGLES
000195:                                                                                                  #                                        2.      EXECUTE ICORK2.
000196:                                                                                                  #                C.      ENTER
000197:                                                                                                  #                        1.      EXECUTE ICORK2.
000198:                                                                                                  #  ICORK2
000199:                                                                                                  #        1.      RE-DISPLAY VERB 41.
000200:                                                                                                  #        2.      EXECUTE IMUCOARS (IMU COARSE ALIGN).
000201:                                                                                                  #        3.      EXECUTE IMUSTALL (ALLOW TIME FOR DATA TRANSFER).
000202:                                                                                                  #        4.      RELEASE EXT VERB DISPLAY SYSTEM.
000203:
000204:                                                                                                  #        CASE 2  NOUN 91 (OCDU ANGLES)
000205:                                                                                                  #        5.      (REQUIRE OPTICS SWITCH TO BE AT COMPUTER OR TURN ON OPERATOR ERROR AND ALARM 115) AND (REQUIRE
000206:                                                                                                  #                OPTICS AVAILABLE AND DISPLAY FLASHING V24,N92....LOAD NEW OPTICS ANGLES....OR TURN ON ALARM 117
000207:                                                                                                  #                AND RELEASE EXT VERB DISPLAY SYSTEM).
000208:                                                                                                  #        6.      RESPONSES TO V29,N92.
000209:                                                                                                  #                A.      TERMINATE
000210:                                                                                                  #                        RELEASE EXT VERB DISPLAY SYSTEM
000211:                                                                                                  #                B.      PROCEED OR ENTER
000212:                                                                                                  #                        RE-DISPLAY V41, SET SWITCH TO INDICATE COURSE ALIGN OPTICS WORKING.
000213:                                                                                                  #                        RELEASE EXT VERB DISPLAY SYSTEM.
000214:
000215: 43,2152           02140        VBCOARK            TC       OP/INERT
000216: 43,2153           02155                           TC       IMUCOARK                              #  RETURN HERE IF NOUN = ICDU (20)
000217: 43,2154           02177                           TC       OPTCOARK                              #  RETURN HERE IF NOUN = OCDU (91)
000218:
000219:                                                                                                  #  RETURN TO L+1 IF NOUN 20 - TO L+2 IF NOUN 91.
000220:
000221: 43,2155           02273        IMUCOARK           TC       CKMODCAD                              #  COARSE ALIGN FROM KEYBOARD
000222: 43,2156           02076                           TC       TESTXACT
000223: 43,2157           32175                           CAF      VNLODCDU                              #  CALL FOR THETAD LOAD
000224: 43,2160           04676                           TC       BANKCALL
000225: 43,2161           20561                           CADR     GOXDSPF
000226: 43,2162           05550                           TC       TERMEXTV
000227: 43,2163           12164                           TCF      +1
000228:
000229: 43,2164           32176        ICORK2             CAF      IMUCOARV                              #  RE-DISPLAY COARSE ALIGN VERB.
000230: 43,2165           04676                           TC       BANKCALL
000231: 43,2166           21042                           CADR     EXDSPRET
000232:
000233: 43,2167           04676                           TC       BANKCALL                              #  CALL MODE SWITCHING PROG
000234: 43,2170           16663                           CADR     IMUCOARS
000235:
000236: 43,2171           04676                           TC       BANKCALL                              #  STALL
000237: 43,2172           17577                           CADR     IMUSTALL
000238: 43,2173           05550                           TC       ENDEXTVB
000239: 43,2174           05550                           TC       ENDEXTVB
000240:
000241: 43,2175           06226        VNLODCDU           VN       2522
000242: 43,2176           12200        IMUCOARV           VN       4100
000243:
000244:                                                                                                  #  TEMPORARY ROUTINE TO RUN THE OPTICS CDUS FROM THE KEYBOARD
000245:
000246: 43,2177           31323        OPTCOARK           CA       OPTCADR
000247: 43,2200           02274                           TC       CKMODCAD   +1
000248: 43,2201           02076                           TC       TESTXACT
000249: 43,2202           35072                           CAF      EBANK5
000250: 43,2203           54003                           TS       EBANK
000251:
000252: 43,2204           11314                           CCS      SWSAMPLE                              #  SEE IF SWITCH AT COMPUTER
000253: 43,2205           02212                           TC       +5                                    #  SWITCH AT COMPUTER
000254: 43,2206           02207                           TC       +1                                    #  NOT ON COMPUTER
000255: 43,2207           04400                           TC       FALTON                                #  TURN ON OPERATOR ERR
000256: 43,2210           05664                           TC       ALARM                                 #  AND ALARM
000257: 43,2211           00115                           OCT      00115
000258:
000259: 43,2212           11303                           CCS      OPTIND                                #  SEE IF OPTICS AVAILABLE
000260: 43,2213           02221                           TC       OPTC1                                 #  IN USE
000261: 43,2214           02221                           TC       OPTC1                                 #  IN USE
000262: 43,2215           02221                           TC       OPTC1                                 #  IN USE
000263:
000264: 43,2216           05664                           TC       ALARM                                 #  OPTICS RESERVED (OPTIND=-0)
000265: 43,2217           00117                           OCT      00117
000266: 43,2220           05550                           TC       ENDEXT
000267:
000268: 43,2221           32241        OPTC1              CAF      VNLD0CDU                              #  VERB-NOUN TO LOAD OPTICS CDUS
000269: 43,2222           04676                           TC       BANKCALL
000270: 43,2223           20561                           CADR     GOXDSPF
000271: 43,2224           05550                           TC       TERMEXTV
000272: 43,2225           02226                           TC       +1                                    #  PROCEED
000273:
000274: 43,2226           31773                           CA       SAC
000275: 43,2227           55161                           TS       DESOPTS
000276: 43,2230           31775                           CA       PAC
000277: 43,2231           55160                           TS       DESOPTT
000278: 43,2232           32176                           CAF      OPTCOARV                              #  RE-DISPLAY OUR OWN VERB
000279: 43,2233           04676                           TC       BANKCALL
000280: 43,2234           21042                           CADR     EXDSPRET
000281:
000282: 43,2235           35033                           CAF      ONE
000283: 43,2236           55303                           TS       OPTIND                                #  SET COARS WORKING
000284:
000285: 43,2237           05550                           TC       ENDEXTVB
000286: 43,2240           05550                           TC       ENDEXTVB
000287:
000288: 43,2241           06134        VNLD0CDU           VN       2492
000289: 43,2242  43,2176               OPTCOARV           EQUALS   IMUCOARV                              #  DIFFERENT NOUNS.
000290:
000291:                                                                                                  #  IMUFINEK      VERB 42         DESCRIPTION
000292:                                                                                                  #        FINE ALIGN IMU
000293:
000294:                                                                                                  #        1.      REQUIRE EXT VERB DISPLAY AVAILABLE AND SET BUSY FLAG OR TURN ON OPER ERROR AND GO TO PINBRNCH.
000295:                                                                                                  #        2.      DISPLAY FLASHING V25,N93....LOAD DELTA GYRO ANGLES....
000296:                                                                                                  #                RESPONSES
000297:                                                                                                  #                A.      TERMINATE
000298:                                                                                                  #                        1.      RELEASE EXT VERB DISPLAY SYSTEM.
000299:                                                                                                  #                B.      PROCEED OR ENTER
000300:                                                                                                  #                        1.      RE-DISPLAY VERB 42
000301:                                                                                                  #                        2.      EXECUTE IMUFINE (IMU FIVE ALIGN MODE SWITCHING).
000302:                                                                                                  #                        3.      EXECUTE IMUSTALL (ALLOW FOR DATA TRANSFER)
000303:                                                                                                  #                                A.      FAILED
000304:                                                                                                  #                                        1.      RELEASE EXT VERB DISPLAY SYSTEM.
000305:                                                                                                  #                                B.      GOOD
000306:                                                                                                  #                                        1.      EXECUTE IMUPULSE (TORQUE IRIGS).
000307:                                                                                                  #                                        2.      EXECUTE IMUSTALL AND RELEASE EXT VERB DISPLAY SYSTEM.
000308:
000309: 43,2242           02273        IMUFINEK           TC       CKMODCAD                              #  FINE ALIGN WITH GYRO TORQUING
000310: 43,2243           02076                           TC       TESTXACT
000311: 43,2244           32271                           CAF      VNLODGYR                              #  CALL FOR LOAD OF GYRO COMMANDS
000312: 43,2245           04676                           TC       BANKCALL
000313: 43,2246           20561                           CADR     GOXDSPF
000314: 43,2247           05550                           TC       TERMEXTV
000315: 43,2250           02251                           TC       +1                                    #  PROCEED WITHOUT A LOAD
000316:
000317: 43,2251           32272                           CAF      IMUFINEV                              #  RE-DISPLAY OUR OWN VERB
000318: 43,2252           04676                           TC       BANKCALL
000319: 43,2253           21042                           CADR     EXDSPRET
000320:
000321: 43,2254           04676                           TC       BANKCALL                              #  CALL MODE SWITCH PROG
000322: 43,2255           17073                           CADR     IMUFINE
000323:
000324: 43,2256           04676                           TC       BANKCALL                              #  HIBERNATION
000325: 43,2257           17577                           CADR     IMUSTALL
000326: 43,2260           05550                           TC       ENDEXTVB
000327:
000328: 43,2261           32270        FINEK2             CAF      LGYROBIN                              #  PINBALL LEFT COMMANDS IN OGC REGIST5RS
000329: 43,2262           04676                           TC       BANKCALL
000330: 43,2263           17206                           CADR     IMUPULSE
000331:
000332: 43,2264           04676                           TC       BANKCALL                              #  WAIT FOR PULSES TO GET OUT.
000333: 43,2265           17577                           CADR     IMUSTALL
000334: 43,2266           05550                           TC       ENDEXTVB
000335: 43,2267           05550                           TC       ENDEXTVB
000336:
000337: 43,2270           02757        LGYROBIN           ECADR    OGC
000338: 43,2271           06335        VNLODGYR           VN       2593
000339: 43,2272           12400        IMUFINEV           VN       4200                                  #  FINE ALIGN VERB
000340:
000341: 43,2273           31322        CKMODCAD           CA       MODECADR
000342: 43,2274           00006                           EXTEND
000343: 43,2275           16711                           BZF      TCQ
000344: 43,2276           02122                           TC       ALM/END                               #  SOMEBODY IS USING MODECADR SO EXIT
000345:
000346:                                                                                                  #  GOLOADLV      VERB 50         DESCRIPTION
000347:                                                                                                  #        AND OTHER PLEASE
000348:                                                                                                  #        DO SOMETHING VERBS
000349:
000350:                                                                                                  #  PLEASE PERFORM, MARK, CALIBRATE, ETC.
000351:
000352:                                                                                                  #        1.      PRESSING ENTER ON DSKY INDICATES REQUESTED ACTION HAS BEEN PERFORMED, AND THE PROGRAM DOES THE
000353:                                                                                                  #                SAME RECALL AS A COMPLETED LOAD.
000354:                                                                                                  #        2.      THE EXECUTION OF A VERB 33 (PROCEED WITHOUT DATA) INDICATES THE REQUESTED ACTION IS NOT DESIRED.
000355:
000356: 43,2277           04447        GOLOADLV           TC       FLASHOFF
000357: 43,2300           34215                           CAF      PINSUPBT
000358: 43,2301           00006                           EXTEND
000359: 43,2302           01007                           WRITE    SUPERBNK                              #  TURN ON FE7
000360: 43,2303           04715                           TC       POSTJUMP
000361: 43,2304  40,2000                                  SBANK=   PINSUPER
000362: 43,2304           62001                           CADR     LOADLV1
000363:
000364:                                                                                                  #  V60   VERB 60
000365: 43,2305           00006        V60                EXTEND                                         #  SET ASTRONAUT TOTAL ATTITUDE (N17) EQUAL
000366: 43,2306           30033                           DCA      CDUX                                  #  TO PRESENT ATTITUDE
000367: 43,2307           53334                           DXCH     CPHIX
000368: 43,2310           30034                           CA       CDUZ
000369: 43,2311           55335                           TS       CPHIX      +2
000370: 43,2312           02123                           TC       GOPIN
000371:
000372:                                                                                                  #  V61   VERB 61
000373: 43,2313           05574        V61                TC       DOWNFLAG                              #  SET NEEDLFLG TO 0 (FLAGWRD0,BIT9), PHASE
000374: 43,2314           00006                           ADRES    NEEDLFLG                              #  PLANE A/P FOLLOWING ERROR DISPLAYED
000375: 43,2315           02123                           TC       GOPIN
000376:
000377:                                                                                                  #  V62   VERB 62
000378: 43,2316           05562        V62                TC       UPFLAG                                #  SET NEEDLFLG TO 1 (FLAGWRD0,BIT9),
000379: 43,2317           00006                           ADRES    NEEDLFLG                              #  TOTAL ATTITUDE ERROR DISPLAYED
000380:
000381: 43,2320           05562                           TC       UPFLAG                                #  SET N22ORN17 TO 1 (FLAGWRD9,BIT6),
000382: 43,2321           00220                           ADRES    N22ORN17                              #  COMPUTE TOTAL ATTITUDE ERROR WRT N22
000383: 43,2322           02123                           TC       GOPIN
000384:
000385:                                                                                                  #  V63   VERB 63
000386: 43,2323           05562        V63                TC       UPFLAG                                #  SET NEEDLFLG TO 1 (FLAGWRD0,BIT9),
000387: 43,2324           00006                           ADRES    NEEDLFLG                              #  TOTAL ATTITUDE ERROR DISPLAYED
000388:
000389: 43,2325           05574                           TC       DOWNFLAG                              #  SET N22ORN17 TO 0 (FLAGWRD9,BIT6,
000390: 43,2326           00220                           ADRES    N22ORN17                              #  COMPUTE TOTAL ASTRONAUT ATTITUDE ERROR
000391: 43,2327           02123                           TC       GOPIN
000392:
000393:                                                                                                  #  ALINTIME      VERB 55         DESCRIPTION
000394:
000395:                                                                                                  #        1.      SET EXT VERB DISPLAY BUSY FLAG.
000396:                                                                                                  #        2.      DISPLAY FLASHING V25,N24 (LOAD DELTA TIME FOR AGC CLOCK.
000397:                                                                                                  #        3.      REQUIRE EXECUTION OF VERB 23.
000398:                                                                                                  #        4.      ADD DELTA TIME, RECEIVED FROM INPUT REGISTER, TO THE COMPUTER TIME.
000399:                                                                                                  #        5.      RELEASE EXT VERB DISPLAY SYSTEM
000400:
000401: 43,2330                                           COUNT    04/R33
000402:
000403: 43,2330           02076        ALINTIME           TC       TESTXACT
000404:
000405: 43,2331           32361                           CAF      VNLODDT
000406: 43,2332           04676                           TC       BANKCALL
000407: 43,2333           20561                           CADR     GOMARKF
000408: 43,2334           05550                           TC       ENDEXT                                #  TERMINATE
000409: 43,2335           05550                           TC       ENDEXT                                #  PROCEED
000410: 43,2336           42360                           CS       DEC23                                 #  DATA IN OR RESEQUENCE (UNLIKELY)
000411: 43,2337           60154                           AD       MPAC                                  #  RECALL LEFT VERB IN MPAC
000412: 43,2340           00006                           EXTEND
000413: 43,2341           12343                           BZF      UPDATIME                              #  GO AHEAD WITH UPDATE ONLY IF RECALL
000414: 43,2342           05550                           TC       ENDEXT                                #        WITH V23 (DATA IN).
000415:
000416: 43,2343           00004        UPDATIME           INHINT                                         #  DELTA TIME IS IN DSPTEM1, +1.
000417: 43,2344           35035                           CAF      ZERO
000418: 43,2345           54156                           TS       MPAC       +2                         #  NEEDED FOR TP AGREE
000419: 43,2346           54001                           TS       L                                     #  ZERO T1 & 2 WHILE ALIGNING.
000420: 43,2347           52025                           DXCH     TIME2
000421: 43,2350           52155                           DXCH     MPAC
000422: 43,2351           53052                           DXCH     DSPTEM2    +1                         #  INCREMENT
000423: 43,2352           20155                           DAS      MPAC
000424:
000425: 43,2353           07226                           TC       TPAGREE                               #  FORCE SIGN AGREEMENT.
000426: 43,2354           52155                           DXCH     MPAC                                  #  NEW CLOCK.
000427: 43,2355           20025                           DAS      TIME2
000428: 43,2356           00003                           RELINT
000429: 43,2357           05550        UPDTMEND           TC       ENDEXT
000430: 43,2360           00027        DEC23              DEC      23         B-14                       #  V 23
000431:
000432: 43,2361           06230        VNLODDT            VN       2524                                  #  V25N24 FOR LOAD DELTA TIME
000433:
000434:                                                                                                  #  SYSTEST       VERB 92         DESCRIPTION
000435:                                                                                                  #        OPERATE SELECTED SYSTEM TEST
000436:
000437:                                                                                                  #        1.      REQUIRE POO OR POO- OR TURN ON OPERATOR ERROR.
000438:                                                                                                  #        2.      TURN OFF DAP IF IT IS ON.
000439:                                                                                                  #        3.      DISPLAY FLASHING V21,N01 (LOAD TEST NUMBER 1 THRU 17).
000440:                                                                                                  #        4.      UPON ENTRY OF TEST NUMBER, SCHEDULE TSELECT WITH PRIORITY 20.
000441:
000442:                                                                                                  #        TSELECT
000443:                                                                                                  #        1.      IF LOADED TEST NUMBER IS VALID, GO TO THAT TEST ROUTINE, OTHERWISE TURN ON OPERATOR ERROR AND
000444:                                                                                                  #                REPEAT LOAD REQUEST DISPLAY.  (NO. 3 ABOVE)
000445:
000446: 43,2362  E5,1425                                  EBANK=   QPLACE
000447:
000448: 43,2362                                           COUNT    04/EXTVB
000449:
000450: 43,2362           02727        SYSTEST            TC       CHKPOOH
000451: 43,2363           30075                           CA       FLAGWRD1                              #  IS NODOP01 FLAGBIT ON? (SET BY P11)
000452: 43,2364           75020                           MASK     NOP01BIT
000453: 43,2365           00006                           EXTEND
000454: 43,2366           12371                           BZF      V92CONT                               #  IF IT'S NOT YET SET, CONTINUE
000455: 43,2367           05725                           TC       POODOO                                #  IT'S ON. SEND NODO ALARM FOR P07
000456: 43,2370           21521                           OCT      21521
000457: 43,2371           02733        V92CONT            TC       EXDAPOFF                              #  TURN DAP OFF IT IT'S ON
000458: 43,2372           35016                           CAF      PRIO20
000459: 43,2373           05163                           TC       FINDVAC
000460: 43,2374  E5,1425                                  EBANK=   QPLACE
000461: 43,2374  30,2000                                  SBANK=   IMUSUPER
000462: 43,2374           02002 66065                     2CADR    REDO
000463:
000464: 43,2376           02123                           TC       GOPIN
000465:
000466:                                                                                                  #  REDO AND TSELECT ARE NOW IN SYSTEM TEST.
000467:
000468: 43,2377                                           COUNT*   $$/EXTVB
000469:                                                                                                  #  CKOPTVB       VERB 65         DESCRIPTION
000470:                                                                                                  #        OPTICAL VERIFICATION FOR PRELAUNCH.
000471:                                                                                                  #        1.      SCHEDULE GCOMPVER, OPTICAL VERIFICATION SUBPROGRAM, WITH PRIORITY 17.
000472:
000473: 43,2377           05400        CKOPTVB            TC       CHECKMM
000474: 43,2400           00002                           MM       02         B-14                       #  I WONDER IF PRELAUNCH IS RUNNING
000475: 43,2401           02122                           TC       ALM/END                               #  NOT RUNNING OPERATOR ERROR
000476: 43,2402           00004                           INHINT
000477: 43,2403           35104                           CAF      PRIO16                                #  PRELAUNCH OPTICAL VERIFICATION
000478: 43,2404           05163                           TC       FINDVAC
000479: 43,2405  E5,1425                                  EBANK=   QPLACE
000480: 43,2405           02000 66065                     2CADR    COMPVER                               #  STANDARD LEADIN TO GCOMPVER.
000481:
000482: 43,2407           02123                           TC       GOPIN
000483:
000484:                                                                                                  #  V 78 ....     TO CHANGE GYROCOMPASS AZIMUTH
000485:
000486: 43,2410           05400        CHAZFOGC           TC       CHECKMM                               #  IS IT PRELAUNCH
000487: 43,2411           00002                           MM       02         B-14
000488: 43,2412           02122                           TC       ALM/END                               #  NO - OPERA TOR ERROR
000489:
000490: 43,2413           35104                           CAF      PRIO16                                #  PRELAUNCH AZIMUTH CHANGE
000491: 43,2414           05163                           TC       FINDVAC
000492: 43,2415  E5,1671                                  EBANK=   XSM
000493: 43,2415           03742 66065                     2CADR    AZMTHCG1
000494:
000495: 43,2417           05426                           TC       PHASCHNG
000496: 43,2420           00174                           OCT      00174
000497: 43,2421           02123                           TC       GOPIN
000498:                                                                                                  #  IMUATTCK      VERB 43         DESCRIPTION
000499:                                                                                                  #        LOAD IMU ATTITUDE ERROR METERS
000500:
000501:                                                                                                  #        1.      REQUIRE PROGRAM 00 ACTIVE, COARSE ALIGN ENABLE BIT OFF AND ZERO ICDU BIT OFF.
000502:                                                                                                  #        2.      IF GUID REF RELEASE OR LIFTOFF HAS OCCURRED REQUIRE EXT VERB DISPLAY AVAILABLE AND SET BUSY
000503:                                                                                                  #                FLAG, OTHERWISE ALLOW CURRENT EXT VERB DISPLAY TO BE OVER-RIDDEN.
000504:                                                                                                  #        3.      REMOVE COARSE ALIGN ENABLE AND IMU ERROR COUNTER ENABLE
000505:                                                                                                  #        4.      DISPLAY FLASHING V25,N22 (LOAD NEW ICDU ANGLES).
000506:                                                                                                  #        5.      UPON PROCEED OR ENTER RESPONSE, INITIALIZE CURRENT DAC AND COMMAND VALUES, ENABLE ERROR COUNTERS
000507:                                                                                                  #                TRANSFER LOADED VALUES TO REGISTERS, AND SEND COMMANDS.
000508:                                                                                                  #        6.      IF BUSY FLAG SET, RESET IT TO RELEASE EXT VERB DISPLAY.
000509:
000510: 43,2422           02727        IMUATTCK           TC       CHKPOOH
000511:
000512: 43,2423           32501                           CAF      OCTAL30                               #  CHECK IF IMU ZERO AND IMU COARSE ARE ON
000513: 43,2424           00006                           EXTEND
000514: 43,2425           02012                           RAND     CHAN12
000515: 43,2426           10000                           CCS      A
000516: 43,2427           12122                           TCF      ALM/END                               #  NOT ALLOWED IF IMU COARSE OR IMU ZERO ON
000517:
000518: 43,2430           02467                           TC       CKLFTBTS                              #  IS IT BEFORE OR AFTER LIFTOFF
000519: 43,2431           02076                           TC       TESTXACT                              #  AFTER
000520: 43,2432           45047                           CS       OCT50                                 #  REMOVE COARSE AND ECTR ENABLE.
000521: 43,2433           00006                           EXTEND
000522: 43,2434           03012                           WAND     CHAN12
000523:
000524: 43,2435           32175                           CAF      VNLODCDU
000525: 43,2436           04676                           TC       BANKCALL
000526: 43,2437           20561                           CADR     GOXDSPF
000527: 43,2440           12454                           TCF      TRMATTCK
000528: 43,2441           02442                           TC       +1
000529: 43,2442           35073                           CAF      EBANK6
000530: 43,2443           54003                           TS       EBANK                                 #  SET E6 FOR NEEDLES.
000531:
000532: 43,2444  E6,1476                                  EBANK=   AK
000533:
000534: 43,2444           04676                           TC       BANKCALL                              #  INITIALIZE CURRENT DAC AND
000535: 43,2445           42455                           CADR     NEEDLE11                              #  COMMAND VALUES
000536:
000537: 43,2446           04676                           TC       BANKCALL                              #  ENABLE ERROR COUNTERS.
000538: 43,2447           42474                           CADR     NEEDLER2
000539:
000540: 43,2450           35032                           CAF      TWO                                   #  4 MS MIN.
000541: 43,2451           05261                           TC       WAITLIST
000542: 43,2452  E6,1476                                  EBANK=   AK
000543: 43,2452           02457 66106                     2CADR    ATTCK1
000544:
000545: 43,2454           02467        TRMATTCK           TC       CKLFTBTS                              #  IS IT BEFORE OR AFRER LIFTOFF
000546: 43,2455           15550                           TCF      ENDEXT                                #  AFTER
000547: 43,2456           02123                           TC       GOPIN
000548: 43,2457           00006        ATTCK1             EXTEND                                         #  TRANSFER LOADED VALUES TO DESIRED REGS.
000549: 43,2460           31156                           DCA      THETAD
000550: 43,2461           53477                           DXCH     AK
000551: 43,2462           31157                           CAE      THETAD     +2
000552: 43,2463           55500                           TS       AK         +2
000553:
000554: 43,2464           04754                           TC       IBNKCALL                              #  SENDS COMMANDS LIMITED TO +,- 384 PULSES
000555: 43,2465           42510                           CADR     NEEDLES                               #  AND LEAVES ERROR COUNTERS ENABLED.
000556:
000557: 43,2466           05340                           TC       TASKOVER
000558:
000559: 43,2467           35027        CKLFTBTS           CAF      GRRBKBIT                              #  HAS LIFTOFF OCCURRED
000560: 43,2470           70101                           MASK     FLAGWRD5
000561: 43,2471           10000                           CCS      A
000562: 43,2472           00002                           TC       Q                                     #  YES
000563: 43,2473           35027                           CAF      BIT5
000564: 43,2474           00006                           EXTEND
000565: 43,2475           02030                           RAND     CHAN30
000566: 43,2476           10000                           CCS      A
000567: 43,2477           16706                           TCF      Q+1
000568: 43,2500           00002        XACT0Q             TC       Q                                     #  YES
000569:
000570: 43,2501           00030        OCTAL30            OCT      30
000571: 43,2502           02076        VB64               TC       TESTXACT
000572: 43,2503           00004                           INHINT
000573: 43,2504           35020                           CAF      PRIO4
000574: 43,2505           05163                           TC       FINDVAC
000575: 43,2506  E4,1720                                  EBANK=   RHOSB
000576: 43,2506           03651 64104                     2CADR    SBANDANT                              #  CALC.,DISPLAY S-BAND ANTENNA ANGLES.
000577:
000578: 43,2510           05233                           TC       ENDOFJOB
000579:
000580:                                                                                                  #  ENATMA        VERB 58         DESCRIPTION
000581:                                                                                                  #        ENABLE AUTOMATIC ATTITUDE MANEUVER
000582:
000583:                                                                                                  #  VERB58 RESETS STIKFLAG TO ENABLE R61 TO PERFORM AUTOMATIC TRACKING MANEUVERS, AFTER INTERUPTIONS BY RHC ACT-
000584:                                                                                                  #  IVITY.
000585:
000586: 43,2511           05574        ENATMA             TC       DOWNFLAG                              #  RESET STIKFLAG.
000587: 43,2512           00020                           ADRES    STIKFLAG                              #  BIT 14 FLAG 1
000588: 43,2513           05562                           TC       UPFLAG                                #  SET FLAG TO ENABLE R60 MANEUVER
000589: 43,2514           00055                           ADRES    V50N18FL
000590: 43,2515           02123                           TC       GOPIN
000591:
000592:                                                                                                  #  STROKON       VERB 68         DESCRIPTION
000593:                                                                                                  #        STROKE TEST SETUP/ENABLE
000594:                                                                                                  #        1.      SET EXT VERB DISPLAY BUSY FLAG
000595:                                                                                                  #        2.      SCHEDULE STRKTST1 WITH PRIORITY 30.
000596:                                                                                                  #        3.      RELEASE EXT VERB DISPLAY.
000597:
000598: 43,2516  E6,1625                                  EBANK=   T5TVCDT
000599: 43,2516           40102        STROKON            CS       FLAGWRD6                              #  V68   PERMITTED ONLY DURING TVC
000600: 43,2517           74105                           MASK     OCT60000
000601: 43,2520           00006                           EXTEND
000602: 43,2521           62122                           BZMF     ALM/END                               #  NOT TVC....FLASH OP ERROR LIGHT
000603: 43,2522           34371                           CAF      PRIO30                                #  JOB REQUEST, TO SET UP STROKE TEST,
000604: 43,2523           05150                           TC       NOVAC                                 #        INCLUDING INITIALIZATIONS
000605: 43,2524  E6,1574                                  EBANK=   STROKER
000606: 43,2524           03537 40106                     2CADR    STRKTSTI
000607:
000608: 43,2526           02123                           TC       GOPIN
000609:
000610:                                                                                                  #  STABLISH      VERB 46         DESCRIPTION
000611:                                                                                                  #        ESTABLISH G & N AUTOPILOT CONTROL
000612:                                                                                                  #        1.      SETS UP EITHER RCS, ENTRY, OR SATURN
000613:                                                                                                  #        2.      IF TVC IS ON, SETS UP CSM/LM SWITCH-OVER
000614:                                                                                                  #                        FROM HIGH BW TO LOW BW
000615:
000616:
000617: 43,2527           35073        STABLISH           CAF      EBANK6                                #  V46 - SET EBANK TO E6
000618: 43,2530           54003                           TS       EBANK
000619:
000620: 43,2531           40102                           CS       FLAGWRD6                              #  TEST FOR TVC
000621: 43,2532           74105                           MASK     OCT60000
000622: 43,2533           00006                           EXTEND
000623: 43,2534           62544                           BZMF     +8D
000624:
000625: 43,2535           31466                           CAE      DAPDATR1                              #  TEST FOR CSM/LM
000626: 43,2536           75016                           MASK     BIT14
000627: 43,2537           00006                           EXTEND
000628: 43,2540           62543                           BZMF     +3
000629:
000630: 43,2541           04715                           TC       POSTJUMP                              #  CSM/LM, SO PERFORM HB TO LB SWITCH-OVER
000631: 43,2542           36407                           CADR     PRESWTCH
000632:
000633: 43,2543           02122                 +3        TC       ALM/END                               #  CSM, SO ALARM AND EXIT
000634:
000635: 43,2544           04715                 +8        TC       POSTJUMP                              #  SET UP RCS, ENTRY, OR SATURN-STICK DAP
000636: 43,2545           65605                           CADR     DAPFIG
000637:                                                                                                  #  CREWMANU      VERB 49         DESCRIPTION
000638:                                                                                                  #        START AUTOMATIC ATTITUDE MANEUVER
000639:
000640:                                                                                                  #        1.      REQUIRE PROGRAM 00 ACTIVE.
000641:                                                                                                  #        2.      SET EXT VERB DISPLAY BUSY FLAG.
000642:                                                                                                  #        3.      SCHEDULE R62DISP WITH PRIORITY 10.
000643:                                                                                                  #        4.      RELEASE EXT VERB DISPLAY.
000644:
000645:                                                                                                  #        R62DISP
000646:                                                                                                  #        1.      DISPLAY FLASHING V06,N22 (DECIMAL DISPLAY NEW ICDU ANGLES).  UPON IMMEDIATE RETURN, SET-UP GROUP
000647:                                                                                                  #                4 FOR RESTART OF DISPLAY SEQUENCE.
000648:                                                                                                  #                RESPONSES
000649:                                                                                                  #                A.      TERMINATE
000650:                                                                                                  #                        1.      GO TO GOTOPOOH.
000651:                                                                                                  #                B.      PROCEED
000652:                                                                                                  #                        1.      SET 3AXISFLG TO INDICATE MANEUVER IS SPECIFIED BY 3 AXIS.
000653:                                                                                                  #                        2.      EXECUTE R60CSM (ATTITUDE MANEUVER).
000654:                                                                                                  #                        3.      ZERO GROUP 4 (END R62).
000655:                                                                                                  #                C.      ENTER
000656:                                                                                                  #                        1.      REPEAT FLASHING V06,N22.
000657:
000658: 43,2546           02727        CREWMANU           TC       CHKPOOH                               #  DEMAND POO
000659:
000660: 43,2547           02076                           TC       TESTXACT
000661:
000662: 43,2550           35017                           CAF      PRIO10
000663: 43,2551           05163                           TC       FINDVAC
000664: 43,2552     1155                                  EBANK=   CPHI
000665: 43,2552           02330 56102                     2CADR    R62DISP
000666:
000667: 43,2554           05233                           TC       ENDOFJOB
000668:
000669:                                                                                                  #  DAPDISP       VERB 48         DESCRIPTION
000670:                                                                                                  #        LOAD AUTOPILOT DATA (ROUTINE R03)
000671:
000672:                                                                                                  #        0.      CHECKFAIL AND RETURN IF TVC.
000673:                                                                                                  #        1.      REQUIRE EXT VERB DISPLAY AVAILABLE AND SET BUSY FLAG.
000674:                                                                                                  #        2.      LOWER PRIORITY TO 10.
000675:                                                                                                  #        3.      DISPLAY FLASHING V04,N46 (DISPLAY AUTOPILOT CONFIGURATION)
000676:                                                                                                  #        4.      UPON PROCEED RESPONSE, EXECUTE S41.2.
000677:                                                                                                  #        5.      DISPLAY FLASHING V06,N47 (DISPLAY CSM WGT., LEM WGT.)
000678:                                                                                                  #        6.      UPON PROCEED RESPONSE EXECUTE S40.14.
000679:                                                                                                  #        7.      DISPLAY FLASHING V06,N48 (DISPLAY PITCH TRIM, YAW TRIM)
000680:                                                                                                  #        8.      UPON PROCEED RESPONSE, RELEASE EXTENDED VERB DESPLAY SYSTEM
000681:
000682: 43,2555                                           COUNT*   $$/EXTVB
000683:
000684: 43,2555           40102        DAPDISP            CS       FLAGWRD6
000685: 43,2556           74105                           MASK     OCT60000
000686: 43,2557           00006                           EXTEND
000687: 43,2560           62562                           BZMF     +2                                    #  TVC = 10, CS YIELDS 01, BZMF TO CONTINUE
000688: 43,2561           02122                           TC       ALM/END                               #  RETURN IF TVC
000689:
000690: 43,2562           02076                           TC       TESTXACT
000691: 43,2563           04676                           TC       BANKCALL
000692: 43,2564           64000                           CADR     DAPDISP1
000693: 42,2000                                           BANK     42
000694: 42,2000                                           SETLOC   EXTVBS
000695: 42,2000                                           BANK
000696: 42,2000                                           COUNT    24/R03
000697:
000698: 42,2000           35073        DAPDISP1           CAF      EBANK6
000699: 42,2001           54003                           TS       EBANK
000700:
000701: 42,2002           35017                           CAF      PRIO10
000702: 42,2003           05224                           TC       PRIOCHNG
000703:
000704: 42,2004           32061        DONOUN46           CAF      V04N46                                #        R1              R2
000705: 42,2005           04676                           TC       BANKCALL                              #        DAPDATR1        DAPDATR2
000706: 42,2006           20561                           CADR     GOXDSPF                               #  GOXDSP ROUTINES USED FOR EXTENDED VERBS.
000707:
000708: 42,2007           05550                           TC       ENDEXT                                #  EXT. VBS GO TO ENDEXT, NOT ENDOFJOB.
000709: 42,2010           02012                           TC       +2
000710: 42,2011           02004                           TC       DONOUN46
000711:
000712: 42,2012           31466                           CA       DAPDATR1
000713: 42,2013           75030                           MASK     BIT4
000714: 42,2014           10000                           CCS      A
000715: 42,2015           12054                           TCF      MAXIN
000716: 42,2016           05574                           TC       DOWNFLAG
000717: 42,2017           00212                           ADRES    MAXDBFLG
000718: 42,2020           04676        MAXOUT             TC       BANKCALL
000719: 42,2021           40366                           CADR     S41.2
000720:
000721: 42,2022           32060        DONOUN47           CAF      V06N47                                #        R1              R2              R3
000722: 42,2023           04676                           TC       BANKCALL                              #        CSM WGT.        LEM WGT.        BLANK
000723: 42,2024           20561                           CADR     GOXDSPF
000724:
000725: 42,2025           05550                           TC       ENDEXT
000726: 42,2026           02030                           TC       +2
000727: 42,2027           02022                           TC       DONOUN47
000728: 42,2030           31466                           CAE      DAPDATR1                              #  DO MASS PROPERTIES CALCULATION ONLY IF
000729: 42,2031           74371                           MASK     PRIO30                                #  CONFIG = 1(CSM), 2 (CSM/LM), 6(CSM/LMA)
000730: 42,2032           00006                           EXTEND
000731: 42,2033           12046                           BZF      DONOUN48                              #  SKIP IF 0,4
000732: 42,2034           40000                           COM
000733: 42,2035           74371                           MASK     PRIO30
000734: 42,2036           00006                           EXTEND
000735: 42,2037           12046                           BZF      DONOUN48                              #  SKIP IF 3,7
000736: 42,2040           00004                           INHINT
000737: 42,2041           04754                           TC       IBNKCALL
000738: 42,2042           13370                           CADR     MASSPROP                              #  UPDATE IXX, IAVG, IAVG/TLX
000739:
000740: 42,2043           00003                           RELINT
000741: 42,2044           04676                           TC       BANKCALL
000742: 42,2045           40517                           CADR     S40.14                                #  COMPUTE RCS DAP STUFF
000743:
000744: 42,2046           32057        DONOUN48           CAF      V0648                                 #        R1              R2              R3
000745: 42,2047           04676                           TC       BANKCALL                              #        PTRIM           YTRIM           BLANK
000746: 42,2050           20561                           CADR     GOXDSPF
000747:
000748: 42,2051           05550                           TC       ENDEXT
000749: 42,2052           05550                           TC       ENDEXT
000750: 42,2053           02046                           TC       DONOUN48
000751:
000752: 42,2054           05562        MAXIN              TC       UPFLAG
000753: 42,2055           00212                           ADRES    MAXDBFLG
000754: 42,2056           02020                           TC       MAXOUT
000755:
000756: 42,2057           01460        V0648              VN       0648
000757: 42,2060           01457        V06N47             VN       0647
000758: 42,2061           01056        V04N46             VN       0446
000759: 43,2565                                           BANK     43
000760: 43,2000                                           SETLOC   EXTVERBS
000761: 43,2000                                           BANK
000762:
000763: 43,2565                                           COUNT*   $$/EXTVB
000764:
000765:                                                                                                  #  V82PERF       VERB82          DESCRIPTION
000766:                                                                                                  #        REQUEST ORBIT PARAMETERS DISPLAY (R30)
000767:
000768:                                                                                                  #        1.      IF AVERAGE G IS OFF:
000769:                                                                                                  #                        FLASH DISPLAY V04N06.  R2 INDICATES WHICH SHIP'S STATE VECTOR IS
000770:                                                                                                  #                         TO BE UPDATED.  INITIAL CHOICE IS THIS SHIP (R2=1).  ASTRONAUT
000771:                                                                                                  #                         CAN CHANGE TO OTHER SHIP BY V22EXE, WHERE X NOT EQ 1.
000772:                                                                                                  #                        SELECTED STATE VECTOR UPDATED BY THISPREC (OTHPREC).
000773:                                                                                                  #                        CALLS SR30.1 (WHICH CALLS TFFCONMU + TFFRP/RA) TO CALCULATE
000774:                                                                                                  #                         RPER (PERIGEE RADIUS), RAPO (APOGEE RADIUS), HPER (PERIGEE
000775:                                                                                                  #                         HEIGHT ABOVE LAUNCH PAD OR LUNAR LANDING SITE), HAPO (APOGEE
000776:                                                                                                  #                         HEIGHT AS ABOVE), TPER (TIME TO PERIGEE), TFF (TIME TO
000777:                                                                                                  #                         INTERSECT 300 KFT ABOVE PAD OR 35KFT ABOVE LANDING SITE).
000778:                                                                                                  #                        FLASH MONITOR V16N44 (HAPO, HPER, TFF).  TFF IS -59M59S IF IT WAS
000779:                                                                                                  #                         NOT COMPUTABLE, OTHERWISE IT INCREMENTS ONCE PER SECOND.
000780:                                                                                                  #                         ASTRONAUT HAS OPTION TO MONITOR TPER BY KEYING IN N 32 E.
000781:                                                                                                  #                         DISPLAY IS IN HMS, IS NEGATIVE (AS WAS TFF), AND INCREMENTS
000782:                                                                                                  #                         ONCE PER SECOND ONLY IF TFF DISPLAY WAS -59M59S.
000783:
000784:                                                                                                  #        2.      IF AVERAGE G IS ON:
000785:                                                                                                  #                        CALLS SR30.1 APPROX EVERY TWO SECS.  STATE VECTOR IS ALWAYS
000786:                                                                                                  #                         FOR THIS VEHICLE.  V82 DOES NOT DISTURB STATE VECTOR.  RESULTS
000787:                                                                                                  #                         OF SR30.1 ARE RAPO, RPER, HAPO, HPER, TPER, TFF.
000788:                                                                                                  #                        FLASH MONITOR V16N44 (HAPO, HPER, TFF).
000789:                                                                                                  #                         IF MODE IS P11, THEN CALL DELRSPL SO ASTRONAUT CAN MONITOR
000790:                                                                                                  #                         RESULTS BY N50E.  SPLASH COMPUTATION DONE ONCE PER TWO SECS.
000791:
000792:                                                                                                  #  ADDENDUM:     HAPO AND HPER SHOULD BE CHANGED TO READ HAPOX AND HPERX IN THE
000793:                                                                                                  #                ABOVE REMARKS.
000794:
000795: 43,2565           02076        V82PERF            TC       TESTXACT
000796:
000797: 43,2566           35077                           CAF      PRIO7
000798: 43,2567           05224                           TC       PRIOCHNG
000799: 43,2570           04715                           TC       POSTJUMP
000800: 43,2571           46332                           CADR     V82CALL                               #  ***** V82CALL MUST NOT BE A FINDVAC JOB.
000801:
000802:                                                                                                  #  VB83PERF      VERB 83         DESCRIPTION
000803:                                                                                                  #        REQUEST RENDEZVOUS PARAMETER DISPLAY (R31)
000804:
000805:                                                                                                  #        1.      SET EXT VERB DISPLAY BUSY FLAG.
000806:                                                                                                  #        2.      SCHEDULE V83CALL WITH PRIORITY 10.
000807:                                                                                                  #                A.      DISPLAY
000808:                                                                                                  #                        R1      RANGE
000809:                                                                                                  #                        R2      RANGE RATE
000810:                                                                                                  #                        R3      THETA
000811:
000812: 43,2572           02076        V83PERF            TC       TESTXACT
000813: 43,2573           05562                           TC       UPFLAG
000814: 43,2574           00222                           ADRES    R31FLAG
000815: 43,2575           35075                 +3        CAF      PRIO5
000816: 43,2576           05150                           TC       NOVAC
000817: 43,2577  E4,1770                                  EBANK=   SUBEXIT
000818: 43,2577           02000 62064                     2CADR    R31CALL
000819:
000820: 43,2601           05233                           TC       ENDOFJOB
000821:


000838: 43,2602           02076        V85PERF            TC       TESTXACT
000839: 43,2603           05574                           TC       DOWNFLAG                              #  RESET R31 FLAG TO INDICATE R34
000840: 43,2604           00222                           ADRES    R31FLAG
000841: 43,2605           02575                           TC       V83PERF    +3
000842:                                                                                                  #        GOTOR21         VERB 57
000843:                                                                                                  #        GOTOR23-        VERB 54         DESCRIPTION
000844:                                                                                                  #  SET UP MARKING FOR R22 (REND TRACK DATA PROC)
000845:                                                                                                  #  1.    SET EXT VERB DISPLAY BUSY FLAG
000846:                                                                                                  #  2.    IF REND (P20 RUNNING) + TRACK (TRACKING ALLOWED) FLAGS ARE SET,
000847:                                                                                                  #        SCHEDULE R21 OR R23 WITH PRIORITY 16, OTHERWISE TURN ON ALARM 406
000848:                                                                                                  #  3.    RELEASE EXT VERB DISPLAY SYSTEM
000849:
000850: 43,2606           05574        GOTOR21            TC       DOWNFLAG                              #  CLEAR R23FLG
000851: 43,2607           00025                           ADRES    R23FLG                                #  BIT 9 FLAG 1
000852: 43,2610           02613                           TC       +3
000853: 43,2611           05562        GOTOR23            TC       UPFLAG                                #  SET R23FLG
000854: 43,2612           00025                           ADRES    R23FLG                                #  BIT 9 FLAG 1
000855: 43,2613           02076                           TC       TESTXACT
000856: 43,2614           30074                           CA       FLAGWRD0                              #  VB 57 UNNACCEPTABLE UNLESS BOTH
000857: 43,2615           75025                           MASK     RNDVZBIT                              #        RENDEZVOUS AND TRACK FLAGS ON
000858: 43,2616           00006                           EXTEND
000859: 43,2617           12642                           BZF      R22ALARM
000860:
000861: 43,2620           30075                           CA       FLAGWRD1
000862: 43,2621           75027                           MASK     TRACKBIT
000863: 43,2622           00006                           EXTEND
000864: 43,2623           12642                           BZF      R22ALARM
000865:
000866: 43,2624           30075                           CA       FLAGWRD1                              #  TEST R23FLG
000867: 43,2625           75023                           MASK     R23BIT
000868: 43,2626           00006                           EXTEND
000869: 43,2627           12635                           BZF      REGR21                                #  R21
000870: 43,2630           35104                           CAF      PRIO16
000871: 43,2631           05150                           TC       NOVAC
000872: 43,2632  E7,1725                                  EBANK=   MRKBUF1
000873: 43,2632           02501 76067                     2CADR    R23CSM
000874:
000875: 43,2634           05233                           TC       ENDOFJOB
000876: 43,2635           35104        REGR21             CAF      PRIO16
000877: 43,2636           05150                           TC       NOVAC
000878: 43,2637  E7,1725                                  EBANK=   MRKBUF1
000879: 43,2637           02477 76067                     2CADR    R21CSM
000880:
000881: 43,2641           05233                           TC       ENDOFJOB
000882: 43,2642           05664        R22ALARM           TC       ALARM                                 #  VERB 57 WAS SELECTED AND NEITHER REND
000883: 43,2643           00406                           OCT      00406                                 #        NOR TRACK FLAG WERE ON.
000884: 43,2644           05550                           TC       ENDEXT
000885:
000886:                                                                                                  #  VERB 86       DESCRIPTION
000887:                                                                                                  #        V86 IS TO R23 AS MARK REJECT IS TO R21
000888:                                                                                                  #        V86 IS THE MARK REJECT FOR R23 (THE BACKUP MARKING ROUTINE)
000889:
000890: 43,2645  E7,1725                                  EBANK=   MRKBUF1
000891: 43,2645           35074        V86PERF            CAF      EBANK7                                #  BACKUP MARK REJECT (R23)
000892: 43,2646           56003                           XCH      EBANK
000893: 43,2647           37716                           CA       NEGONE
000894: 43,2650           55725                           TS       MRKBUF1
000895: 43,2651           02123                           TC       GOPIN
000896:
000897:                                                                                                  #  TRACKTRM      VERB 56         DESCRIPTION
000898:                                                                                                  #        TERMINATE TRACKING (P20)
000899:                                                                                                  #        1.      KNOCK DOWN RENDEZVOUS, TRACK, AND UPDATE FLAGS.
000900:                                                                                                  #        2.      REQUIRE P20 NOT RUNNING ALONE OR GO TO GOTOPOOH (REQUEST PROGRAM 00).
000901:                                                                                                  #        3.      REQUIRE R22 RUNNING OR GO TO PINBRNCH.
000902:                                                                                                  #        4.      IF INTEGRATION RUNNING, STALL UNTIL IT IS COMPLETED, THEN ZERO GROUPS 2 AND 3 TO KILL R21 + R22.
000903:                                                                                                  #        3.      KNOCK DOWN RENDEZVOUS, R22, R21, TRACK, UPDATE, AND TARG1 FLAGS.
000904:                                                                                                  #        4.      GO TO ENEMA (SOFTWARE RESTART).
000905:                                                                                                  #        REFERENCE
000906:                                                                                                  #                P20     RENDEZVOUS      NAVIGATION.
000907:                                                                                                  #                R21     RENDEZVOUS      TRACKING SIGHTING MARK.
000908:                                                                                                  #                R22     RENDEZVOUS      TRACKING DATA PROCESSING.
000909:
000910: 43,2652           35025        TRACKTRM           CA       RNDVZBIT                              #  IS REND FLAG ON
000911: 43,2653           70074                           MASK     FLAGWRD0
000912: 43,2654           00006                           EXTEND
000913: 43,2655           12123                           BZF      GOPIN                                 #  NO
000914:
000915: 43,2656           05574                           TC       DOWNFLAG
000916: 43,2657           00010                           ADRES    RNDVZFLG
000917:
000918: 43,2660           35027                           CA       TRACKBIT                              #  IS TRACK FLAG ON
000919: 43,2661           70075                           MASK     FLAGWRD1
000920: 43,2662           00006                           EXTEND
000921: 43,2663           12123                           BZF      GOPIN                                 #  NO
000922:
000923: 43,2664           05574                           TC       DOWNFLAG
000924: 43,2665           00031                           ADRES    TRACKFLG
000925:
000926: 43,2666           05574                           TC       DOWNFLAG
000927: 43,2667           00027                           ADRES    UPDATFLG
000928:
000929: 43,2670           05574                           TC       DOWNFLAG
000930: 43,2671           00007                           ADRES    IMUSE
000931:
000932: 43,2672           35073                           CAF      EBANK6
000933: 43,2673           54003                           TS       EBANK
000934:
000935: 43,2674           00004                           INHINT
000936: 43,2675           04526                           TC       STOPRATE
000937:
000938: 43,2676           37716                           CAF      NEGONE
000939: 43,2677           55303                           TS       OPTIND
000940:
000941: 43,2700           06006                           TC       INTPRET
000942: 43,2701           77624                           CALL
000943: 43,2702           27446                                    INTSTALL                              #  DONT INTERRUPT INTEGRATION
000944: 43,2703           77776                           EXIT
000945:
000946: 43,2704           05406                           TC       2PHSCHNG
000947: 43,2705           00002                           OCT      2                                     #  KILL GROUP 2 TO HALT P20 ACTIVITY
000948: 43,2706           00001                           OCT      1                                     #  ALSO KILL GROUP 1
000949:
000950: 43,2707           00004        CLEANOUT           INHINT
000951: 43,2710           04715                           TC       POSTJUMP
000952: 43,2711           12651                           CADR     ENEMA                                 #  CAUSE RESTART
000953:
000954:                                                                                                  #  LEMVEC        VERB 80         DESCRIPTION
000955:                                                                                                  #        UPDATE LEM STATE VECTOR
000956:                                                                                                  #                RESET VEHUPFLG TO 0
000957:
000958: 43,2712           05574        LEMVEC             TC       DOWNFLAG
000959: 43,2713           00026                           ADRES    VEHUPFLG                              #  VEHUPFLG DOWN INDICATES LEM
000960:
000961: 43,2714           12123                           TCF      GOPIN
000962:
000963:                                                                                                  #  CSMVEC        VERB 81         DESCRIPTION
000964:                                                                                                  #        UPDATE CSM STATE VECTOR
000965:                                                                                                  #                SET VEHUPFLG TO 1
000966:
000967: 43,2715           05562        CSMVEC             TC       UPFLAG
000968: 43,2716           00026                           ADRES    VEHUPFLG                              #  VEHUPFLG UP INDICATES CM.
000969:
000970: 43,2717           12123                           TCF      GOPIN
000971:
000972:                                                                                                  #  DNEDUMP       VERB 74         DESCRIPTION
000973:                                                                                                  #        INITIALIZE DOWN-TELEMETRY PROGRAM FOR ERASABLE MEMORY DUMP.
000974:
000975:                                                                                                  #        1.      SET EXT VERB DISPLAY BUSY FLAG.
000976:                                                                                                  #        2.      REPLACE CURRENT DOWNLIST WITH ERASABLE MEMORY.
000977:                                                                                                  #        3.      RELEASE EXT VERB DISPLAY.
000978:
000979: 43,2720     0010                                  EBANK=   10
000980: 43,2720           32723        DNEDUMP            CAF      LDNDUMPI
000981: 43,2721           54334                           TS       DNTMGOTO
000982: 43,2722           02123                           TC       GOPIN
000983:
000984: 43,2723  43,2720               V74                EQUALS   DNEDUMP
000985: 43,2723           03715        LDNDUMPI           REMADR   DNDUMPI
000986:
000987:                                                                                                  #  LFTFLGON      VERB 75         DESCRIPTION
000988:                                                                                                  #        SET LIFT-OFF FLAG
000989:                                                                                                  #        1.      SETUP GGRBKFLG, GUIDANCE REFERENCE RELEASE BACK-UP FLAG.
000990:                                                                                                  #        2.      RETURN VIA PINBRNCH
000991:
000992: 43,2724           05562        LFTFLGON           TC       UPFLAG                                #  VB 75 - SET LIFTOFF FLAG BIT
000993: 43,2725           00125                           ADRES    GRRBKFLG                              #  BIT 5 FLAG 5
000994: 43,2726           02123                           TC       GOPIN
000995:
000996: 43,2727           31011        CHKPOOH            CA       MODREG
000997: 43,2730           00006                           EXTEND
000998: 43,2731           16711                           BZF      TCQ
000999: 43,2732           12122                           TCF      ALM/END
001000:


001010: 43,2733           00006        EXDAPOFF           EXTEND
001011: 43,2734           32744                           DCA      IDLECADR                              #  SET T5 TO IDLE.
001012: 43,2735           53313                           DXCH     T5LOC
001013: 43,2736           00004                           INHINT
001014: 43,2737           44105                           CS       OCT60000
001015: 43,2740           70102                           MASK     FLAGWRD6                              #  RESET DAPBITS 1 AND 2.
001016: 43,2741           54102                           TS       FLAGWRD6
001017: 43,2742           00002                           TC       Q
001018:
001019: 43,2743  E6,1423                                  EBANK=   PACTOFF
001020: 43,2743           03155 12106  IDLECADR           2CADR    T5IDLOC
001021:
001022:                                                                                                  #  VERB 89       DESCRIPTION     RENDEZVOUS FINAL ATTITUDE ROUTINE (R63)
001023:                                                                                                  #
001024:                                                                                                  #  CALLED BY VERB 89 ENTER DURING P00.  PRIO 10 USED. CALCULATES AND
001025:                                                                                                  #  DISPLAYS FINAL GIMBAL ANGLES TO POINT CSM +X AXIS OR PREFERRED AXIS
001026:                                                                                                  #  (UNIT(Z)COS55 DEG + UNIT(X)SIN55 DEG) AT LM.
001027:
001028:                                                                                                  #  1. KEY IN V 89 E ONLY IF IN PROG 00.  IF NOT IN P00, OPERATOR ERROR AND
001029:                                                                                                  #  EXIT R63, OTHERWISE CONTINUE.
001030:
001031:                                                                                                  #  2. IF IN P00, DO IMU STATUS CHECK (R02BOTH).  IF IMU ON AND ITS
001032:                                                                                                  #  ORIENTATION KNOWN TO CGC, CONTINUE.
001033:
001034:                                                                                                  #  3. FLASH DISPLAY V 04 N 06.  R2 INDICATES WHICH SPACECRAFT AXIS IS TO
001035:                                                                                                  #  BE POINTED AT LM.  INITIAL CHOICE IS PREFERRED AXIS. (R2=1).
001036:                                                                                                  #  ASTRONAUT CAN CHANGE TO (+X) AXIS (R2 NOT = 1) BY V 22 E 2 E.  CONTINUE
001037:                                                                                                  #  AFTER KEYING IN PROCEED.
001038:
001039:                                                                                                  #  4. SET PREFERRED ATTITUDE FLAG ACCORDING TO OPTION DESIRED.  SET FLAG
001040:                                                                                                  #  FOR PREFERRED AXIS.  RESET FLAG FOR X AXIS.
001041:
001042:                                                                                                  #  5. CURRENT TIME IS STORED AND R63COMP IS CALLED
001043:
001044:                                                                                                  #        R63COMP JOB:
001045:
001046:                                                                                                  #                UPDATES CSM AND LM STATE VECTORS USING CONIC EQUATIONS
001047:
001048:                                                                                                  #                CALCULATES BOTH PREFERRED AND X AXIS TRACKING ATT FROM CSM TO LM.
001049:
001050:                                                                                                  #                DESIRED GIMBAL ANGLES AS INDICATED BY PREFERRED ATTITUDE FLAG
001051:                                                                                                  #                ARE STORED FOR LATER R60CSM CALL.
001052:
001053:                                                                                                  #  6.  FLASH DISPLAY V 06 N18 AND AWAIT RESPONSE.
001054:
001055:                                                                                                  #  7.  RECYCLE-  RETURN TO STEP 5.
001056:                                                                                                  #      TERMINATE-  EXIT R63 ROUTINE
001057:                                                                                                  #      PROCEED-  RESET 3AXISFLG AND CALL R60CSM FOR ATTITUDE MANEUVER.
001058:


001062: 43,2745           02727        V89PERF            TC       CHKPOOH                               #  DEMAND P00
001063: 43,2746           02076                           TC       TESTXACT
001064: 43,2747           35017                           CAF      PRIO10
001065: 43,2750           05163                           TC       FINDVAC
001066: 43,2751  E4,1715                                  EBANK=   P21TIME
001067: 43,2751           03712 70064                     2CADR    V89CALL
001068:
001069: 43,2753           15233                           TCF      ENDOFJOB
001070:
001071: 43,2754           05574        WMATRXNG           TC       DOWNFLAG                              #  RESET RENDWFLG
001072: 43,2755           00131                           ADRES    RENDWFLG
001073:
001074: 43,2756           05574                           TC       DOWNFLAG                              #  RESET ORBWFLAG
001075: 43,2757           00066                           ADRES    ORBWFLAG
001076: 43,2760           02123                           TC       GOPIN
001077:
001078: 43,2761  43,2761               GOSHOSUM           EQUALS   SHOWSUM
001079:
001080: 43,2761           02727        SHOWSUM            TC       CHKPOOH
001081: 43,2762           02076                           TC       TESTXACT                              #  *
001082: 43,2763           35033                           CAF      S+1                                   #  *
001083: 43,2764           55376                           TS       SKEEP6                                #  * SHOWSUM OPTION
001084: 43,2765           35035                           CAF      S+ZERO                                #  *
001085: 43,2766           55362                           TS       SMODE                                 #  * TURN OFF SELF-CHECK
001086: 43,2767           33257                           CA       SELFADRS                              #  *
001087: 43,2770           55361                           TS       SELFRET                               #  *
001088: 43,2771           03534                           TC       STSHOSUM                              #  * ENTER ROPECHK
001089:
001090: 43,2772           23372        SDISPLAY           LXCH     SKEEP2                                #  * BNK NO FOR DSP
001091: 43,2773           23373                           LXCH     SKEEP3                                #  * BUGGER WORD FOR DSP
001092: 43,2774           33256        NOKILL             CA       ADRS1                                 #  *
001093: 43,2775           54156                           TS       MPAC       +2                         #  *
001094: 43,2776           33007                           CA       VNCON                                 #  * 0501
001095: 43,2777           04676                           TC       BANKCALL                              #  *
001096: 43,3000           20561                           CADR     GOXDSPF                               #  *
001097: 43,3001           03004                           TC       +3                                    #  *
001098: 43,3002           03645                           TC       NXTBNK                                #  *
001099: 43,3003           02774                           TC       NOKILL                                #  *
001100: 43,3004           33257                           CA       SELFADRS
001101: 43,3005           55371                           TS       SKEEP1
001102:
001103: 43,3006           05550                           TC       ENDEXT                                #  *
001104:
001105: 43,3007           01201        VNCON              VN       501                                   #  *
001106:
001107: 43,3010           31376        ENDSUMS            CA       SKEEP6                                #  *
001108: 43,3011           00006                           EXTEND                                         #  *
001109: 43,3012           13350                           BZF      SELFCHK                               #  * ROPECHK, START SELFCHK AGAIN.
001110: 43,3013           03534                           TC       STSHOSUM                              #  * START SHOWSUM AGAIN.
001111:
001112:
001113:                                                                                                  #  VB 76   SET PREFERRED ATTITUDE FLAG - DRIVE TO PREFERRED.
001114:
001115: 43,3014           05562        SETPRFLG           TC       UPFLAG
001116: 43,3015           00120                           ADRES    PRFTRKAT                              #  BIT 10 FLAG 5
001117: 43,3016           02123                           TC       GOPIN
001118:
001119:                                                                                                  #  VB 77  RESET PREFERRED ATTITUDE FLAG - DRIVE TO +X-AXIS ATT.
001120:
001121: 43,3017           05574        RESETPRF           TC       DOWNFLAG
001122: 43,3020           00120                           ADRES    PRFTRKAT                              #  BIT 10 FLAG 5
001123: 43,3021           02123                           TC       GOPIN
001124:
001125:                                                                                                  #  VB 87   SET VHF RANGE FLAG - ALLOWS R22 TO ACCEPT RANGE DATA.
001126:
001127: 43,3022           06006        SETVHFLG           TC       INTPRET
001128: 43,3023           77414                           SET      EXIT
001129: 43,3024           04466                                    VHFRFLAG
001130: 43,3025           02123                           TC       GOPIN
001131:
001132:                                                                                                  #  VB 88   RESET VHF RANGE FLAG - STOPS ACCEPTANCE OF RANGE DATA.
001133:
001134: 43,3026           06006        RESETVHF           TC       INTPRET
001135: 43,3027           77414                           CLEAR    EXIT
001136: 43,3030           04666                                    VHFRFLAG
001137: 43,3031           05645                           TC       TRFAILOF                              #  TRACKER FAIL LIGHT
001138:
001139: 43,3032           02123                           TC       GOPIN
001140:
001141:                                                                                                  #  VERB 66.      VEHICLES ARE ATTACHED.- MOVE THIS VEHICLE STATE VECTOR TO
001142:                                                                                                  #                OTHER VEHICLE STATE VECTOR.
001143:
001144:                                                                                                  #  USE SUBROUTINE GENTRAN.
001145:
001146: 43,3033  E3,1554                                  EBANK=   RRECTHIS
001147: 43,3033           35017        ATTACHED           CAF      PRIO10
001148: 43,3034           05163                           TC       FINDVAC
001149: 43,3035  E3,1554                                  EBANK=   RRECTHIS
001150: 43,3035           02000 42103                     2CADR    ATTACHIT
001151:
001152: 43,3037           05233                           TC       ENDOFJOB
001153:
001154: 21,2000                                           SETLOC   EXTVRBS2
001155: 21,2000                                           BANK
001156: 21,2000                                           COUNT*   $$/EXTVB
001157: 21,2000           06006        ATTACHIT           TC       INTPRET
001158: 21,2001           77624                           CALL
001159: 21,2002           27446                                    INTSTALL
001160: 21,2003           43014                           SET      BON
001161: 21,2004           04064                                    MOONOTH
001162: 21,2005           04303                                    MOONTHIS
001163: 21,2006           36000                                    CMMOVE
001164: 21,2007           52014                           CLEAR    GOTO
001165: 21,2010           04264                                    MOONOTH
001166: 21,2011           36000                                    CMMOVE
001167:
001168: 17,2000                                           SETLOC   EXTVRBS1
001169: 17,2000                                           BANK
001170: 17,2000                                           COUNT*   $$/EXTVB
001171: 17,2000           77776        CMMOVE             EXIT
001172: 17,2001           32026                           CAF      OCT51
001173: 17,2002           05622                           TC       GENTRAN
001174: 17,2003           01554                           ADRES    RRECTHIS                              #  OUR STATE VECTOR INTO OTHER VIA GENTRAN
001175: 17,2004           01626                           ADRES    RRECTOTH
001176:
001177: 17,2005           00003        TACHEXIT           RELINT
001178: 17,2006           06006                           TC       INTPRET
001179: 17,2007           77624                           CALL                                           #  UPDATE RN, VN, R-OTHER, V-OTHER
001180: 17,2010           26740                                    PTOACSM
001181: 17,2011           45154                           LXA,2    CALL
001182: 17,2012           02150                                    PBODY
001183: 17,2013           20237                                    SVDWN1
001184: 17,2014           77624                           CALL
001185: 17,2015           20263                                    SVDWN2
001186: 17,2016           77776                           EXIT
001187:
001188: 17,2017           32027                           CAF      TCPINAD
001189: 17,2020           50120                           INDEX    FIXLOC
001190: 17,2021           54052                           TS       QPRET
001191: 17,2022           04715                           TC       POSTJUMP
001192: 17,2023           27463                           CADR     INTWAKE
001193:
001194: 17,2024           77634        TCPIN              RTB
001195: 17,2025           21272                                    PINBRNCH
001196:
001197: 17,2026           00051        OCT51              OCT      51
001198: 17,2027           36024        TCPINAD            CADR     TCPIN
001199:
001200: 43,2000                                           SETLOC   EXTVERBS
001201: 43,2000                                           BANK
001202: 43,3040                                           COUNT*   $$/EXTVB
001203:
001204:                                                                                                  #  VERB 47  MOVE LM STATE VECTOR INTO CM STATE VECTOR.
001205:
001206: 43,3040           35017        LMTOCMSV           CAF      PRIO10
001207: 43,3041           05163                           TC       FINDVAC
001208: 43,3042  E3,1554                                  EBANK=   RRECTHIS
001209: 43,3042           03045 66103                     2CADR    LMTOCM
001210:
001211: 43,3044           05233                           TC       ENDOFJOB
001212:
001213: 43,3045           06006        LMTOCM             TC       INTPRET
001214: 43,3046           77624                           CALL
001215: 43,3047           27446                                    INTSTALL
001216: 43,3050           43014                           SET      BON
001217: 43,3051           04063                                    MOONTHIS
001218: 43,3052           04304                                    MOONOTH
001219: 43,3053           36030                                    LMMOVE
001220: 43,3054           52014                           CLEAR    GOTO
001221: 43,3055           04263                                    MOONTHIS
001222: 43,3056           36030                                    LMMOVE
001223:
001224: 17,2000                                           SETLOC   EXTVRBS1
001225: 17,2000                                           BANK
001226: 17,2030                                           COUNT*   $$/EXTVB
001227: 17,2030           77776        LMMOVE             EXIT
001228: 17,2031           32026                           CAF      OCT51
001229: 17,2032           05622                           TC       GENTRAN
001230: 17,2033           01626                           ADRES    RRECTOTH                              #  LM STATE VECTOR INTO CM VIA GENTRAN
001231: 17,2034           01554                           ADRES    RRECTHIS
001232:
001233: 17,2035           12005                           TCF      TACHEXIT
001234:
001235: 43,2000                                           SETLOC   EXTVERBS
001236: 43,2000                                           BANK
001237: 43,3057                                           COUNT*   $$/EXTVB
001238:
001239:                                                                                                  #  VERB 94   DO R64 VIA ENEMA TO PICK UP IN P23.
001240:
001241: 43,3057           35021        VERB94             CAF      V94FLBIT
001242: 43,3060           70105                           MASK     FLAGWRD9                              #  IS V94FLAG SET
001243: 43,3061           00006                           EXTEND
001244: 43,3062           12122                           BZF      ALM/END                               #  NO - OPERATOR ERROR
001245:
001246: 43,3063           05574                           TC       DOWNFLAG
001247: 43,3064           00213                           ADRES    V94FLAG
001248:
001249: 43,3065           05400                           TC       CHECKMM                               #  IS IT P23
001250: 43,3066           00027                           MM       23         B-14
001251: 43,3067           02122                           TC       ALM/END                               #  NO - OPERATOR ERROR
001252: 43,3070           05426                           TC       PHASCHNG
001253: 43,3071           00112                           OCT      112                                   #  SET GROUP 2 TO DO R64
001254:
001255: 43,3072           02707                           TC       CLEANOUT                              #  CAUSE RESTART
001256:
001257:                                                                                                  #  V90PERF       VERB 90         DESCRIPTION
001258:                                                                                                  #        REQUEST RENDEZVOUS OUT-OF-PLANE DISPLAY (R36)
001259:
001260:                                                                                                  #        1.      SET EXT VERB DISPLAY BUSY FLAG.
001261:                                                                                                  #        2.      SCHEDULE R36 CALL WITH PRIORITY 10
001262:                                                                                                  #                A.      DISPLAY
001263:                                                                                                  #                        TIME OF EVENT - HOURS, MINUTES, SECONDS
001264:                                                                                                  #                        Y       OUT-OF-PLANE POSITION - NAUTICAL MILES
001265:                                                                                                  #                        YDOT    OUT-OF-PLANE VELOCITY - FEET/SECOND
001266:                                                                                                  #                        PSI     ANGLE BTW LINE OF SIGHT AND FORWARD
001267:                                                                                                  #                                DIRECTION VECTOR IN HORIZONTAL PLANE - DEGREES
001268:


001272: 43,3073           02076        V90PERF            TC       TESTXACT
001273: 43,3074           35077                           CAF      PRIO7                                 #  R36.V90
001274: 43,3075           05163                           TC       FINDVAC
001275: 43,3076  E7,1412                                  EBANK=   TIG
001276: 43,3076           02164 40107                     2CADR    R36
001277:
001278: 43,3100           15233                           TCF      ENDOFJOB
001279:
001280:                                                                                                  #  VERB 96  SET QUITFLAG TO STOP INTEGRATION.
001281:
001282: 43,3101           05562        VERB96             TC       UPFLAG                                #  QUITFLAG WILL CAUSE INTEGRATION TO EXIT
001283: 43,3102           00221                           ADRES    QUITFLAG                              #        AT NEXT TIMESTEP
001284:
001285: 43,3103           05562                           TC       UPFLAG
001286: 43,3104           00204                           ADRES    V96ONFLG
001287: 43,3105           35035                           CAF      ZERO
001288: 43,3106           04715                           TC       POSTJUMP
001289: 43,3107           10011                           CADR     V37                                   #  GO TO POO
001290:
001291: 43,3110  E5,1751                                  EBANK=   LANDMARK
001292: 43,3110           05400        V52                TC       CHECKMM                               #  IS P22 OPERATING
001293: 43,3111           00026                           MM       22         B-14
001294: 43,3112           02122                           TC       ALM/END                               #  NO
001295: 43,3113           35072                           CAF      LANDBANK
001296: 43,3114           54003                           TS       EBANK
001297:
001298: 43,3115           45077                           CS       PRIO7                                 #  YES   SET BITS 12,11,10 OF LANDMARK =
001299: 43,3116           71751                           MASK     LANDMARK                              #        BITS 14,13,12 OF MARKSTAT AFTER
001300: 43,3117           55751                           TS       LANDMARK                              #        SUBT. THEM FROM 5 TO GET OFFSET
001301: 43,3120           31330                           CA       MARKSTAT                              #        MARK NO.
001302: 43,3121           54021                           TS       SR
001303: 43,3122           30021                           CA       SR
001304: 43,3123           30021                           CA       SR
001305: 43,3124           75077                           MASK     PRIO7
001306: 43,3125           40000                           CS       A
001307: 43,3126           65075                           AD       PRIO5
001308: 43,3127           27751                           ADS      LANDMARK
001309: 43,3130           02123                           TC       GOPIN
001310: 43,3131     5072               LANDBANK           =        EBANK5
001311:
001312:                                                                                                  #  VERB 67  ASTRONAUT DISPLAY OF W MATRIX
001313:
001314: 43,3131           02076        V67                TC       TESTXACT
001315: 43,3132           35075                           CAF      PRIO5
001316: 43,3133           05163                           TC       FINDVAC
001317: 43,3134  E5,1400                                  EBANK=   W
001318: 43,3134           03632 60105                     2CADR    V67CALL
001319:
001320: 43,3136           05233                           TC       ENDOFJOB
001321:
001322:                                                                                                  #  VB 44. SET SURFACE FLAG.
001323:
001324: 43,3137           05562        SETSURF            TC       UPFLAG
001325: 43,3140           00177                           ADRES    SURFFLAG
001326: 43,3141           12123                           TCF      GOPIN
001327:
001328:                                                                                                  #  VB 45. RESET SURFACE FLAG.
001329:
001330: 43,3142           05574        RESTSRF            TC       DOWNFLAG
001331: 43,3143           00177                           ADRES    SURFFLAG
001332: 43,3144           12123                           TCF      GOPIN
001333:
001334:                                                                                                  #  VERB 79  START BARBECUE MODE ROUTINE (R64)
001335:
001336: 43,3145           02076        V79                TC       TESTXACT
001337: 43,3146           35073                           CAF      EBANK6
001338: 43,3147           54003                           TS       EBANK
001339:
001340: 43,3150           33224        RATEMANU           CAF      V06N79
001341: 43,3151           04676                           TC       BANKCALL
001342: 43,3152           20561                           CADR     GOMARKF
001343: 43,3153           15550                           TCF      ENDEXT
001344: 43,3154           13156                           TCF      RATECOMP
001345: 43,3155           13150                           TCF      RATEMANU
001346:
001347: 43,3156           00004        RATECOMP           INHINT
001348: 43,3157           04526                           TC       STOPRATE
001349:
001350: 43,3160           31572                           CA       THETADX
001351: 43,3161           55646                           TS       CDUXD
001352: 43,3162           31573                           CA       THETADY
001353: 43,3163           55650                           TS       CDUYD
001354: 43,3164           31574                           CA       THETADZ
001355: 43,3165           55652                           TS       CDUZD
001356:
001357: 43,3166           11733                           CCS      DBPTC
001358: 43,3167           65033                           AD       ONE
001359: 43,3170           03172                           TC       +2
001360: 43,3171           65033                           AD       ONE
001361: 43,3172           55655                           TS       ADB
001362:
001363: 43,3173           31732                           CA       RATEPTC
001364: 43,3174           00006                           EXTEND
001365: 43,3175           73222                           MP       RTOW
001366: 43,3176           53526                           DXCH     WBODY
001367: 43,3177           31732                           CA       RATEPTC
001368: 43,3200           00006                           EXTEND
001369: 43,3201           73223                           MP       RTODEL
001370: 43,3202           53576                           DXCH     DELCDUX
001371:
001372: 43,3203           31734                           CA       OPTPTC
001373: 43,3204           00006                           EXTEND
001374: 43,3205           13215                           BZF      PTCROLL
001375:
001376: 43,3206           35035                           CAF      ZERO
001377: 43,3207           53526                           DXCH     WBODY
001378: 43,3210           53530                           DXCH     WBODY1
001379: 43,3211           53576                           DXCH     DELCDUX
001380: 43,3212           53600                           DXCH     DELCDUY
001381:
001382: 43,3213           45033                           CS       BIT1
001383: 43,3214           03216                           TC       +2
001384: 43,3215           45027        PTCROLL            CS       BIT5
001385: 43,3216           55332                           TS       HOLDFLAG
001386: 43,3217           71632                           MASK     CH31TEMP
001387: 43,3220           55632                           TS       CH31TEMP
001388: 43,3221           05550                           TC       ENDEXT
001389:
001390: 43,3222           00510        RTOW               DEC      .02
001391: 43,3223           00122        RTODEL             DEC      .005
001392: 43,3224           01517        V06N79             VN       0679

End of include-file EXTENDED_VERBS.agc.  Parent file is MAIN.agc


