
Source Code


000002:                                                                                                  ## Copyright:   Public domain.
000003:                                                                                                  ## Filename:    GROUND_TRACKING_DETERMINATION_PROGRAM_-_P21.agc
000004:                                                                                                  ## Purpose:     A section of Manche72 revision 3.
000005:                                                                                                  ##              It is part of the reconstructed source code for the final, flown
000006:                                                                                                  ##              release of the software for the Command Module's (CM) Apollo
000007:                                                                                                  ##              Guidance Computer (AGC) for Apollo 13. No original listings
000008:                                                                                                  ##              of this program are available; instead, this file was recreated
000009:                                                                                                  ##              from a reconstructed copy of Comanche 072. It has been adapted
000010:                                                                                                  ##              such that the resulting bugger words exactly match those
000011:                                                                                                  ##              specified for Manche72 revision 3 in NASA drawing 2021153G,
000012:                                                                                                  ##              which gives relatively high confidence that the reconstruction
000013:                                                                                                  ##              is correct.
000014:                                                                                                  ## Assembler:   yaYUL
000015:                                                                                                  ## Contact:     Ron Burkey <info@sandroid.org>.
000016:                                                                                                  ## Website:     www.ibiblio.org/apollo/index.html
000017:                                                                                                  ## Mod history: 2024-05-19 MAS  Created from Comanche 072.
000018:
000019:                                                                                                  #  GROUND TRACKING DETERMINATION PROGRAM P21
000020:
000021:                                                                                                  #  PROGRAM DESCRIPTION
000022:                                                                                                  #  MOD NO - 1
000023:                                                                                                  #  MOD BY - N. M. NEVILLE
000024:                                                                                                  #  FUNCTIONAL DECRIPTION-
000025:
000026:                                                                                                  #  TO PROVIDE THE ASTRONAUT DETAILS OF THE LM OR CSM GROUND TRACK WITHOUT
000027:                                                                                                  #  THE NEED FOR GROUND COMMUNICATION (REQUESTED BY DSKY).
000028:                                                                                                  #  CALLING SEQUENCE-
000029:
000030:                                                                                                  #  ASTRONAUT REQUEST THROUGH DSKY V37E21E
000031:                                                                                                  #  SUBROUTINES CALLED-
000032:
000033:                                                                                                  #  GOPERF4
000034:                                                                                                  #  GOFLASH
000035:                                                                                                  #  THISPREC
000036:                                                                                                  #  OTHPREC
000037:                                                                                                  #  LAT-LONG
000038:                                                                                                  #  NORMAL EXIT MODES-
000039:
000040:                                                                                                  #  ASTRONAUT REQUEST TROUGH DSKY TO TERMINATE PROGRAM V34E
000041:                                                                                                  #  ALARM OR ABORT EXIT MODES-
000042:
000043:                                                                                                  #  NONE
000044:                                                                                                  #  OUTPUT-
000045:
000046:                                                                                                  #  OCTAL DISPLAY OF OPTION CODE AND VEHICLE WHOSE GROUND TRACK IS TO BE
000047:                                                                                                  #  COMPUTED
000048:                                                                                                  #           OPTION CODE  00002
000049:                                                                                                  #           THIS         00001
000050:                                                                                                  #           OTHER                00002
000051:                                                                                                  #  DECIMAL DISPLAY OF TIME TO BE INTEGRATED TO HOURS , MINUTES , SECONDS
000052:                                                                                                  #  DECIMAL DISPLAY OF LAT,LONG,ALT
000053:                                                                                                  #  ERASABLE INITIALIZATION REQUIRED
000054:
000055:                                                                                                  #  AX0    2DEC   4.652459653 E-5   RADIANS       %68-69 CONSTANTS"
000056:
000057:                                                                                                  #  -AY0   2DEC   2.147535898 E-5   RADIANS
000058:
000059:                                                                                                  #  AZ0    2DEC   .7753206164       REVOLUTIONS
000060:                                                                                                  #  FOR LUNAR ORBITS 504LM VECTOR IS NEEDED
000061:
000062:                                                                                                  #  504LM  2DEC   -2.700340600 E-5  RADIANS
000063:
000064:                                                                                                  #  504LM _2 2DEC -7.514128400 E-4  RADIANS
000065:
000066:                                                                                                  #  504LM _4 2DEC _2.553198641 E-4  RADIANS
000067:
000068:                                                                                                  #  NONE
000069:                                                                                                  #  DEBRIS
000070:
000071:                                                                                                  #  CENTRALS-A,Q,L
000072:                                                                                                  #  OTHER-THOSE USED BY THE ABOVE LISTED SUBROUTINES
000073:                                                                                                  #  SEE LEMPREC, LAT-LONG
000074:
000075: 33,3776  30,2000                                  SBANK=   LOWSUPER                              #  FOR LOW 2CADR'S.
000076:
000077: 33,3776                                           BANK     33
000078: 37,2000                                           SETLOC   P20S
000079: 37,2000                                           BANK
000080:
000081: 37,2001  E4,1715                                  EBANK=   P21TIME
000082: 37,2001                                           COUNT    24/P21
000083:
000084: 37,2001           35033        PROG21             CAF      ONE
000085: 37,2002           55132                           TS       OPTION2                               #  ASSUMED VEHICLE IS LM, R2 = 00001
000086: 37,2003           35032                           CAF      BIT2                                  #   OPTION 2
000087: 37,2004           04676                           TC       BANKCALL
000088: 37,2005           21055                           CADR     GOPERF4
000089: 37,2006           04106                           TC       GOTOPOOH                              #  TERMINATE
000090: 37,2007           02011                           TC       +2                                    #  PROCEED VALUE OF ASSUMED VEHICLE OK
000091: 37,2010           02003                           TC       -5                                    #  R2 LOADED THROUGH DSKY
000092: 37,2011           32157                           CAF      P21ONENN   +1                         #  ZERO DSPTEM
000093: 37,2012           55045                           TS       DSPTEM1
000094: 37,2013           55046                           TS       DSPTEM1    +1
000095: 37,2014           32161        P21PROG1           CAF      V6N34                                 #  LOAD DESIRED TIME OF LAT-LONG.
000096: 37,2015           04676                           TC       BANKCALL
000097: 37,2016           20720                           CADR     GOFLASH
000098: 37,2017           04106                           TC       GOTOPOOH                              #  TERM
000099: 37,2020           02022                           TC       +2                                    #  PROCEED VALUES OK
000100: 37,2021           02014                           TC       -5                                    #  TIME LOADED THROUGH DSKY
000101: 37,2022           06006                           TC       INTPRET
000102: 37,2023           53145                           DLOAD    BZE
000103: 37,2024           01046                                    DSPTEM1
000104: 37,2025           76151                                    P21PRTM                               #  SET TO INTEG TO PRES TIME
000105: 37,2026           34041        P21PROG2           STCALL   TDEC1                                 #  INTEG TO TIME SPECIFIED IN TDEC
000106: 37,2027           27446                                    INTSTALL
000107: 37,2030           43014                           BON      SET
000108: 37,2031           01303                                    P21FLAG
000109: 37,2032           76050                                    P21CONT                               #  ON...RECYCLE USING BASE VECTOR
000110: 37,2033           01474                                    VINTFLAG                              #  OFF..1ST PASS CALC BASE VECTOR
000111: 37,2034           70535                           SLOAD    SR1
000112: 37,2035           01133                                    OPTION2
000113: 37,2036           43030                           BHIZ     CLEAR
000114: 37,2037           76041                                    +2                                    #  ZERO..THIS VEHICLE (CM)
000115: 37,2040           01674                                    VINTFLAG                              #  ONE...OTHER VEHICLE(LM)
000116: 37,2041           43014                           CLEAR    CLEAR
000117: 37,2042           01676                                    DIM0FLAG
000118: 37,2043           01673                                    INTYPFLG                              #  PRECISION
000119: 37,2044           77624                           CALL
000120: 37,2045           27171                                    INTEGRV                               #  CALCULATE
000121: 37,2046           77650                           GOTO                                           #  .AND
000122: 37,2047           76071                                    P21VSAVE                              #  ..SAVE BASE VECTOR
000123: 37,2050           77775        P21CONT            VLOAD                                          #  RECYCLE..INTEG FROM BASE VECTOR
000124: 37,2051           03605                                    P21BASER
000125: 37,2052           25535                           STOVL    RCV                                   #  ..POS
000126: 37,2053           03613                                    P21BASEV
000127: 37,2054           15543                           STODL    VCV                                   #  ..VEL
000128: 37,2055           02316                                    P21TIME
000129: 37,2056           01517                           STORE    TET                                   #  ..TIME
000130: 37,2057           43014                           CLEAR    CLEAR
000131: 37,2060           01676                                    DIM0FLAG
000132: 37,2061           00263                                    MOONFLAG
000133: 37,2062           53135                           SLOAD    BZE
000134: 37,2063           03604                                    P21ORIG
000135: 37,2064           76067                                    +3                                    #  ZERO = EARTH
000136: 37,2065           77614                           SET                                            #  ...2 = MOON
000137: 37,2066           00063                                    MOONFLAG
000138: 37,2067           77624                           CALL
000139: 37,2070           27144                                    INTEGRVS
000140: 37,2071           77745        P21VSAVE           DLOAD                                          #  SAVE CURRENT BASE VECTOR
000141: 37,2072           00015                                    TAT
000142: 37,2073           26316                           STOVL    P21TIME                               #  ..TIME
000143: 37,2074           00017                                    RATT1
000144: 37,2075           27605                           STOVL    P21BASER                              #  ..POS B-29 OR B-27
000145: 37,2076           00025                                    VATT1
000146: 37,2077           03613                           STORE    P21BASEV                              #  ..VEL B-7  OR B-5
000147: 37,2100           53646                           ABVAL    SL*
000148: 37,2101           57576                                    0,2
000149: 37,2102           27623                           STOVL    P21VEL                                #  /VEL/ FOR N73 DSP
000150: 37,2103           00001                                    RATT
000151: 37,2104           50256                           UNIT     DOT
000152: 37,2105           00007                                    VATT                                  #  U(R).(V)
000153: 37,2106           67471                           DDV      ASIN                                  #  U(R).U(V)
000154: 37,2107           03623                                    P21VEL
000155: 37,2110           03625                           STORE    P21GAM                                #  SIN-1 U(R).U(V), -90 TO +90
000156: 37,2111           43134                           SXA,2    SET
000157: 37,2112           03603                                    P21ORIG                               #  0 = EARTH  2 = MOON
000158: 37,2113           01063                                    P21FLAG
000159: 37,2114           67214        P21DSP             CLEAR    SLOAD                                 #  GENERATE DISPLAY DATA
000160: 37,2115           01663                                    LUNAFLAG
000161: 37,2116           00050                                    X2
000162: 37,2117           43054                           BZE      SET
000163: 37,2120           76122                                    +2                                    #  0 = EARTH
000164: 37,2121           01463                                    LUNAFLAG
000165: 37,2122           77775                           VLOAD
000166: 37,2123           00001                                    RATT
000167: 37,2124           16152                           STODL    ALPHAV
000168: 37,2125           00015                                    TAT
000169: 37,2126           45014                           CLEAR    CALL
000170: 37,2127           00662                                    ERADFLAG
000171: 37,2130           26376                                    LAT-LONG
000172: 37,2131           77605                           DMP                                            #  MPAC = ALT, METERS B-29
000173: 37,2132           36163                                    K.01
000174: 37,2133           03621                           STORE    P21ALT                                #  ALT/100 FOR N73 DSP
000175: 37,2134           77776                           EXIT
000176: 37,2135           32160                           CAF      V06N43                                #  DISPLAY LAT,LONG,ALT
000177: 37,2136           04676                           TC       BANKCALL                              #  LAT,LONG = REVS B0 BOTH EARTH/MOON
000178: 37,2137           20720                           CADR     GOFLASH                               #  ALT = METERS B-29  BOTH EARTH/MOON
000179: 37,2140           04106                           TC       GOTOPOOH                              #  TERM
000180: 37,2141           04106                           TC       GOTOPOOH
000181: 37,2142           06006                           TC       INTPRET                               #  V32E RECYCLE
000182: 37,2143           43345                           DLOAD    DAD
000183: 37,2144           02316                                    P21TIME
000184: 37,2145           36155                                    600SEC                                #  600 SECONDS OR 10 MIN
000185: 37,2146           01046                           STORE    DSPTEM1
000186: 37,2147           77634                           RTB
000187: 37,2150           76014                                    P21PROG1
000188: 37,2151           52034        P21PRTM            RTB      GOTO
000189: 37,2152           45510                                    LOADTIME
000190: 37,2153           76026                                    P21PROG2
000191: 37,2154           00003 25140  600SEC             2DEC     60000      B-28                       #  10 MIN
000192:
000193: 37,2156           00001        P21ONENN           OCT      00001                                 #  NEEDED TO DETERMINE VEHICLE
000194: 37,2157           00000                           OCT      00000                                 #  TO BE INTEGRATED
000195: 37,2160           01453        V06N43             VN       00643
000196: 37,2161           01442        V6N34              VN       00634
000197: 37,2162           00243 32703  K.01               2DEC     .01
000198:

End of include-file GROUND_TRACKING_DETERMINATION_PROGRAM_-_P21.agc.  Parent file is MAIN.agc


