
Source Code


000002:                                                                                                  ## Copyright:   Public domain.
000003:                                                                                                  ## Filename:    INFLIGHT_ALIGNMENT_ROUTINES.agc
000004:                                                                                                  ## Purpose:     A section of Manche72 revision 3.
000005:                                                                                                  ##              It is part of the reconstructed source code for the final, flown
000006:                                                                                                  ##              release of the software for the Command Module's (CM) Apollo
000007:                                                                                                  ##              Guidance Computer (AGC) for Apollo 13. No original listings
000008:                                                                                                  ##              of this program are available; instead, this file was recreated
000009:                                                                                                  ##              from a reconstructed copy of Comanche 072. It has been adapted
000010:                                                                                                  ##              such that the resulting bugger words exactly match those
000011:                                                                                                  ##              specified for Manche72 revision 3 in NASA drawing 2021153G,
000012:                                                                                                  ##              which gives relatively high confidence that the reconstruction
000013:                                                                                                  ##              is correct.
000014:                                                                                                  ## Assembler:   yaYUL
000015:                                                                                                  ## Contact:     Ron Burkey <info@sandroid.org>.
000016:                                                                                                  ## Website:     www.ibiblio.org/apollo/index.html
000017:                                                                                                  ## Mod history: 2024-05-19 MAS  Created from Comanche 072.
000018:
000019: 22,3510                                           BANK     22
000020: 23,2000                                           SETLOC   INFLIGHT
000021: 23,2000                                           BANK
000022:
000023: 23,3207  E5,1671                                  EBANK=   XSM
000024:
000025:                                                                                                  #  CALCGTA COMPUTES THE GYRO TORQUE ANGLES REQUIRED TO BRING THE STABLE MEMBER INTO THE DESIRED ORIENTATION.
000026:
000027:                                                                                                  #  THE INPUT IS THE DESIRED STABLE MEMBER COORDINATES REFERRED TO PRESENT STABLE MEMBER COORDINATES.  THE THREE
000028:                                                                                                  #  HALF-UNIT VECTORS ARE STORED AT XDC, YDC, AND ZDC.
000029:
000030:                                                                                                  #  THE OUTPUTS ARE THE THREE GYRO TORQUING ANGLES TO BE APPLIED TO THE Y, Z, AND X GYROS AND ARE STORED DP AT IGC,
000031:                                                                                                  #  MGC, AND OGC RESPECTIVELY.
000032:
000033: 23,3207                                           COUNT    23/INFLT
000034:
000035: 23,3207           71220        CALCGTA            ITA      DLOAD                                 #  PUSHDOWN 00-03, 16D-27D, 34D-37D
000036: 23,3210           00051                                    S2                                    #  XDC = (XD1 XD2 XD3)
000037: 23,3211           02714                                    XDC                                   #  YDC = (YD1 YD2 YD3)
000038: 23,3212           65325                           PDDL     PDDL                                  #  ZDC = (ZD1 ZD2 ZD3)
000039: 23,3213           15334                                    HI6ZEROS
000040: 23,3214           02720                                    XDC        +4
000041: 23,3215           55476                           DCOMP    VDEF
000042: 23,3216           77656                           UNIT
000043: 23,3217           14027                           STODL    ZPRIME                                #  ZP = UNIT(-XD3 0 XD1) = (ZP1 ZP2 ZP3)
000044: 23,3220           00027                                    ZPRIME
000045:
000046: 23,3221           77742                           SR1
000047: 23,3222           14023                           STODL    SINTH                                 #  SIN(IGC) = ZP1
000048: 23,3223           00033                                    ZPRIME     +4
000049: 23,3224           77742                           SR1
000050: 23,3225           34021                           STCALL   COSTH                                 #  COS(IGC) = ZP3
000051: 23,3226           47260                                    ARCTRIG
000052:
000053: 23,3227           16762                           STODL    IGC                                   #  Y GYRO TORQUING ANGLE   FRACTION OF REV.
000054: 23,3230           02716                                    XDC        +2
000055: 23,3231           77742                           SR1
000056: 23,3232           14023                           STODL    SINTH                                 #  SIN(MGC) = XD2
000057: 23,3233           00027                                    ZPRIME
000058:
000059: 23,3234           65205                           DMP      PDDL
000060: 23,3235           02720                                    XDC        +4                         #  PD00 = (ZP1)(XD3)
000061: 23,3236           00033                                    ZPRIME     +4
000062:
000063: 23,3237           45205                           DMP      DSU
000064: 23,3240           02714                                    XDC                                   #  MPAC = (ZP3)(XD1)
000065: 23,3241           77626                           STADR
000066: 23,3242           43756                           STCALL   COSTH                                 #  COS(MGC) = MPAC - PD00
000067: 23,3243           47260                                    ARCTRIG
000068: 23,3244           26764                           STOVL    MGC                                   #  Z GYRO TORQUING ANGLE   FRACTION OF REV.
000069: 23,3245           00027                                    ZPRIME
000070: 23,3246           77641                           DOT
000071: 23,3247           02730                                    ZDC
000072: 23,3250           24021                           STOVL    COSTH                                 #  COS(OGC) = ZP . ZDC
000073: 23,3251           00027                                    ZPRIME
000074: 23,3252           77641                           DOT
000075: 23,3253           02722                                    YDC
000076: 23,3254           34023                           STCALL   SINTH                                 #  SIN(OGC) = ZP . YDC
000077: 23,3255           47260                                    ARCTRIG
000078:
000079: 23,3256           36760                           STCALL   OGC                                   #  X GYRO TORQUING ANGLE   FRACTION OF REV.
000080: 23,3257           00051                                    S2
000081:
000082:                                                                                                  #  ARCTRIG COMPUTES AN ANGLE GIVEN THE SINE AND COSINE OF THIS ANGLE.
000083:
000084:                                                                                                  #  THE INPUTS ARE SIN/4 AND COS/4 STORED DP AT SINTH AND COSTH.
000085:
000086:                                                                                                  #  THE OUTPUT IS THE CALCULATED ANGLE BETWEEN +.5 AND -.5 REVOLUTIONS AND STORED AT THETA.  THE OUTPUT IS ALSO
000087:                                                                                                  #  AVAILABLE AT MPAC.
000088:
000089: 23,3260           51545        ARCTRIG            DLOAD    ABS                                   #  PUSHDOWN  16D-21D
000090: 23,3261           00023                                    SINTH
000091: 23,3262           50025                           DSU      BMN
000092: 23,3263           07476                                    QTSN45                                #  ABS(SIN/4) - SIN(45)/4
000093: 23,3264           47273                                    TRIG1                                 #  IF (-45,45) OR (135,-135)
000094:
000095: 23,3265           72545                           DLOAD    SL1                                   #  (45,135) OR (-135,-45)
000096: 23,3266           00021                                    COSTH
000097: 23,3267           75326                           ACOS     SIGN
000098: 23,3270           00023                                    SINTH
000099: 23,3271           00025                           STORE    THETA                                 #  X = ARCCOS(COS) WITH SIGN(SIN)
000100: 23,3272           77616                           RVQ
000101:
000102: 23,3273           72545        TRIG1              DLOAD    SL1                                   #  (-45,45) OR (135,-135)
000103: 23,3274           00023                                    SINTH
000104: 23,3275           77736                           ASIN
000105: 23,3276           14025                           STODL    THETA                                 #  X = ARCSIN(SIN) WITH SIGN(SIN)
000106: 23,3277           00021                                    COSTH
000107: 23,3300           77640                           BMN
000108: 23,3301           47304                                    TRIG2                                 #  IF (135,-135)
000109:
000110: 23,3302           43545                           DLOAD    RVQ
000111: 23,3303           00025                                    THETA                                 #  X = ARCSIN(SIN)   (-45,45)
000112:
000113: 23,3304           75345        TRIG2              DLOAD    SIGN                                  #  (135,-135)
000114: 23,3305           15332                                    HIDPHALF
000115: 23,3306           00023                                    SINTH
000116: 23,3307           77625                           DSU
000117: 23,3310           00025                                    THETA
000118: 23,3311           00025                           STORE    THETA                                 #  X = .5 WITH SIGN(SIN) - ARCSIN(SIN)
000119: 23,3312           77616                           RVQ                                            #        (+) - (+) OR (-) - (-)
000120:
000121:                                                                                                  #  SMNB, NBSM, AND AXISROT, WHICH USED TO APPEAR HERE, HAVE BEEN
000122:                                                                                                  #  COMBINED IN A ROUTINE CALLED AX*SR*T, WHICH APPEARS AMONG THE POWERED
000123:                                                                                                  #  FLIGHT SUBROUTINES.
000124:
000125:                                                                                                  #  CALCGA COMPUTES THE CDU DRIVING ANGLES REQUIRED TO BRING THE STABLE MEMBER INTO THE DESIRED ORIENTATION.
000126:
000127:                                                                                                  #  THE INPUTS ARE  1) THE NAVIGATION BASE COORDINATES REFERRED TO ANY COORDINATE SYSTEM.  THE THREE HALF-UNIT
000128:                                                                                                  #  VECTORS ARE STORED AT XNB, YNB, AND ZNB.  2) THE DESIRED STABLE MEMBER COORDINATES REFERRED TO THE SAME
000129:                                                                                                  #  COORDINATE SYSTEM ARE STORED AT XSM, YSM, AND ZSM.
000130:
000131:                                                                                                  #  THE OUTPUTS ARE THE THREE CDU DRIVING ANGLES AND ARE STORED SP AT THETAD, THETAD +1, AND THETAD +2.
000132:
000133: 23,3313           77601        CALCGA             SETPD                                          #  PUSHDOWN 00-05, 16D-21D, 34D-37D
000134: 23,3314           00001                                    0
000135: 23,3315           47375                           VLOAD    VXV
000136: 23,3316           02714                                    XNB                                   #  XNB = OGA (OUTER GIMBAL AXIS)
000137: 23,3317           02700                                    YSM                                   #  YSM = IGA (INNER GIMBAL AXIS)
000138: 23,3320           41456                           UNIT     PUSH                                  #  PD0 = UNIT(OGA X IGA) = MGA
000139:
000140: 23,3321           44041                           DOT      ITA
000141: 23,3322           02730                                    ZNB
000142: 23,3323           00051                                    S2
000143: 23,3324           24021                           STOVL    COSTH                                 #  COS(OG) = MGA . ZNB
000144: 23,3325           00001                                    0
000145: 23,3326           77641                           DOT
000146: 23,3327           02722                                    YNB
000147: 23,3330           34023                           STCALL   SINTH                                 #  SIN(OG) = MGA . YNB
000148: 23,3331           47260                                    ARCTRIG
000149: 23,3332           26760                           STOVL    OGC
000150: 23,3333           00001                                    0
000151:
000152: 23,3334           50235                           VXV      DOT                                   #  PROVISION FOR MG ANGLE OF 90 DEGREES
000153: 23,3335           02714                                    XNB
000154: 23,3336           02700                                    YSM
000155: 23,3337           77752                           SL1
000156: 23,3340           24021                           STOVL    COSTH                                 #  COS(MG) = IGA . (MGA X OGA)
000157: 23,3341           02700                                    YSM
000158: 23,3342           77641                           DOT
000159: 23,3343           02714                                    XNB
000160: 23,3344           34023                           STCALL   SINTH                                 #  SIN(MG) = IGA . OGA
000161: 23,3345           47260                                    ARCTRIG
000162: 23,3346           02764                           STORE    MGC
000163:
000164: 23,3347           45246                           ABS      DSU
000165: 23,3350           07500                                    .166...
000166: 23,3351           77644                           BPL
000167: 23,3352           47373                                    GIMLOCK1                              #  IF ANGLE GREATER THAN 60 DEGREES
000168:
000169: 23,3353           50375        CALCGA1            VLOAD    DOT
000170: 23,3354           02706                                    ZSM
000171: 23,3355           00001                                    0
000172: 23,3356           24021                           STOVL    COSTH                                 #  COS(IG) = ZSM . MGA
000173: 23,3357           02672                                    XSM
000174: 23,3360           45441                           DOT      STADR
000175: 23,3361           43754                           STCALL   SINTH                                 #  SIN(IG) = XSM . MGA
000176: 23,3362           47260                                    ARCTRIG
000177:
000178: 23,3363           26762                           STOVL    IGC
000179: 23,3364           02760                                    OGC
000180: 23,3365           43034                           RTB      BONCLR
000181: 23,3366           45552                                    V1STO2S
000182: 23,3367           00200                                    CPHIFLAG
000183: 23,3370           00051                                    S2
000184: 23,3371           35156                           STCALL   THETAD
000185: 23,3372           00051                                    S2
000186:
000187: 23,3373           77776        GIMLOCK1           EXIT
000188: 23,3374           05664                           TC       ALARM
000189: 23,3375           00401                           OCT      00401
000190: 23,3376           05562                           TC       UPFLAG                                #  GIMBAL LOCK HAS OCCURED
000191: 23,3377           00056                           ADRES    GLOKFAIL
000192:
000193: 23,3400           06006                           TC       INTPRET
000194: 23,3401           77650                           GOTO
000195: 23,3402           47353                                    CALCGA1
000196:
000197:                                                                                                  #  AXISGEN COMPUTES THE COORDINATES OF ONE COORDINATE SYSTEM REFERRED TO ANOTHER COORDINATE SYSTEM.
000198:
000199:                                                                                                  #  THE INPUTS ARE  1) THE STAR1 VECTOR REFERRED TO COORDINATE SYSTEM A STORED AT STARAD.  2) THE STAR2 VECTOR
000200:                                                                                                  #  REFERRED TO COORDINATE SYSTEM A STORED AT STARAD +6.  3) THE STAR1 VECTOR REFERRED TO COORDINATE SYSTEM B STORED
000201:                                                                                                  #  AT LOCATION 6 OF THE VAC AREA.  4) THE STAR2 VECTOR REFERRED TO COORDINATE SYSTEM B STORED AT LOCATION 12D OF
000202:                                                                                                  #  THE VAC AREA.
000203:
000204:                                                                                                  #  THE OUTPUT DEFINES COORDINATE SYSTEM A REFERRED TO COORDINATE SYSTEM B.  THE THREE HALF-UNIT VECTORS ARE STORED
000205:                                                                                                  #  AT LOCATIONS XDC, XDC +6, XDC +12D, AND STARAD, STARAD +6, STARAD +12D.
000206:
000207: 23,3403           66370        AXISGEN            AXT,1    SSP                                   #  PUSHDOWN 00-30D, 34D-37D
000208: 23,3404           02743                                    STARAD     +6
000209: 23,3405           00051                                    S1
000210: 23,3406           02727                                    STARAD     -6
000211:
000212: 23,3407           77601                           SETPD
000213: 23,3410           00001                                    0
000214: 23,3411           46773        AXISGEN1           VLOAD*   VXV*                                  #  06D   UA = S1
000215: 23,3412           02752                                    STARAD     +12D,1                     #        STARAD +00D     UB = S1
000216: 23,3413           02760                                    STARAD     +18D,1
000217: 23,3414           77656                           UNIT                                           #  12D   VA = UNIT(S1 X S2)
000218: 23,3415           06760                           STORE    STARAD     +18D,1                     #        STARAD +06D     VB = UNIT(S1 X S2)
000219: 23,3416           77773                           VLOAD*
000220: 23,3417           02752                                    STARAD     +12D,1
000221:
000222: 23,3420           76433                           VXV*     VSL1
000223: 23,3421           02760                                    STARAD     +18D,1                     #  18D   WA = UA X VA
000224: 23,3422           06766                           STORE    STARAD     +24D,1                     #        STARAD +12D     WB = UB X VB
000225:
000226: 23,3423           77700                           TIX,1
000227: 23,3424           47411                                    AXISGEN1
000228:
000229: 23,3425           66160                           AXC,1    SXA,1
000230: 23,3426           00006                                    6
000231: 23,3427           00036                                    30D
000232:
000233: 23,3430           66370                           AXT,1    SSP
000234: 23,3431           00022                                    18D
000235: 23,3432           00051                                    S1
000236: 23,3433           00006                                    6
000237:
000238: 23,3434           66374                           AXT,2    SSP
000239: 23,3435           00006                                    6
000240: 23,3436           00052                                    S2
000241: 23,3437           00002                                    2
000242:
000243: 23,3440           76720        AXISGEN2           XCHX,1   VLOAD*
000244: 23,3441           00036                                    30D                                   #  X1=-6 X2=+6   X1=-6 X2=+4     X1=-6 X2=+2
000245: 23,3442           00001                                    0,1
000246:
000247: 23,3443           62757                           VXSC*    PDVL*                                 #  J=(UA)(UB1)   J=(UA)(UB2)     J=(UA)(UB3)
000248: 23,3444           75033                                    STARAD     +6,2
000249: 23,3445           00007                                    6,1
000250: 23,3446           77757                           VXSC*
000251: 23,3447           75025                                    STARAD     +12D,2
000252: 23,3450           30031                           STOVL*   24D                                   #  K=(VA)(VB1)   J=(VA)(VB2)     J=(VA)(VB3)
000253: 23,3451           00015                                    12D,1
000254:
000255: 23,3452           53357                           VXSC*    VAD
000256: 23,3453           75017                                    STARAD     +18D,2                     #  L=(WA)(WB1)   J=(WA)(WB2)     J=(WA)(WB3)
000257: 23,3454           76455                           VAD      VSL1
000258: 23,3455           00031                                    24D
000259: 23,3456           53520                           XCHX,1   UNIT
000260: 23,3457           00036                                    30D
000261: 23,3460           06736                           STORE    XDC        +18D,1                     #  XDC = L+J+K   YDC = L+J+K     ZDC = L+J+K
000262:
000263: 23,3461           77700                           TIX,1
000264: 23,3462           47463                                    AXISGEN3
000265:
000266: 23,3463           77704        AXISGEN3           TIX,2
000267: 23,3464           47440                                    AXISGEN2
000268:
000269: 23,3465           77775                           VLOAD
000270: 23,3466           02714                                    XDC
000271: 23,3467           26736                           STOVL    STARAD
000272: 23,3470           02722                                    YDC
000273: 23,3471           26744                           STOVL    STARAD     +6
000274: 23,3472           02730                                    ZDC
000275: 23,3473           02752                           STORE    STARAD     +12D
000276:
000277: 23,3474           77616                           RVQ
000278:
000279: 23,3475           05520 26075  QTSN45             2DEC     .1768
000280: 23,3477           05252 25253  .166...            2DEC     .1666666667

End of include-file INFLIGHT_ALIGNMENT_ROUTINES.agc.  Parent file is MAIN.agc


