
Source Code


000002:                                                                                                  ## Copyright:   Public domain.
000003:                                                                                                  ## Filename:    INTER-BANK_COMMUNICATION.agc
000004:                                                                                                  ## Purpose:     A section of Manche72 revision 3.
000005:                                                                                                  ##              It is part of the reconstructed source code for the final, flown
000006:                                                                                                  ##              release of the software for the Command Module's (CM) Apollo
000007:                                                                                                  ##              Guidance Computer (AGC) for Apollo 13. No original listings
000008:                                                                                                  ##              of this program are available; instead, this file was recreated
000009:                                                                                                  ##              from a reconstructed copy of Comanche 072. It has been adapted
000010:                                                                                                  ##              such that the resulting bugger words exactly match those
000011:                                                                                                  ##              specified for Manche72 revision 3 in NASA drawing 2021153G,
000012:                                                                                                  ##              which gives relatively high confidence that the reconstruction
000013:                                                                                                  ##              is correct.
000014:                                                                                                  ## Assembler:   yaYUL
000015:                                                                                                  ## Contact:     Ron Burkey <info@sandroid.org>.
000016:                                                                                                  ## Website:     www.ibiblio.org/apollo/index.html
000017:                                                                                                  ## Mod history: 2024-05-19 MAS  Created from Comanche 072.
000018:
000019:                                                                                                  #  THE FOLLOWING ROUTINE CAN BE USED TO CALL A SUBROUTINE IN ANOTHER BANK. IN THE BANKCALL VERSION, THE
000020:                                                                                                  #  CADR OF THE SUBROUTINE IMMEDIATELY FOLLOWS THE TC BANKCALL INSTRUCTION, WITH C(A) AND C(L) PRESERVED.
000021:
000022:    4676                                           BLOCK    02
000023:    4676                                           COUNT    02/BANK
000024:
000025:    4676           52134        BANKCALL           DXCH     BUF2                                  #  SAVE INCOMING A,L.
000026:    4677           50002                           INDEX    Q                                     #  PICK UP CADR.
000027:    4700           30000                           CA       0
000028:    4701           24002                           INCR     Q                                     #  SO WE RETURN TO THE LOC. AFTER THE CADR.
000029:
000030:                                                                                                  #  SWCALL IS  IDENTICAL TO BANKCALL, EXCEPT THAT THE CADR ARRIVES IN A.
000031:
000032:    4702           54001        SWCALL             TS       L
000033:    4703           22004                           LXCH     FBANK                                 #  SWITCH BANKS, SAVING RETURN.
000034:    4704           75070                           MASK     LOW10                                 #  GET SUB-ADDRESS OF CADR.
000035:    4705           56002                           XCH      Q                                     #  A,L NOW CONTAINS DP RETURN.
000036:    4706           52134                           DXCH     BUF2                                  #  RESTORING INPUTS IF THIS IS A BANKCALL.
000037:    4707           50002                           INDEX    Q
000038:    4710           02000                           TC       10000                                 #  SETTING Q TO SWRETURN.
000039:
000040:    4711           56134        SWRETURN           XCH      BUF2       +1                         #  COMES HERE TO RETURN TO CALLER. C(A,L)
000041:    4712           56004                           XCH      FBANK                                 #  ARE PRESERVED FOR RETURN.
000042:    4713           56134                           XCH      BUF2       +1
000043:    4714           00133                           TC       BUF2
000044:
000045:                                                                                                  #  THE FOLLOWING ROUTINE CAN BE USED AS A UNILATERAL JUMP WITH C(A,L) PRESERVED AND THE CADR IMMEDIATELY
000046:                                                                                                  #  FOLLOWING THE TC POSTJUMP INSTRUCTION.
000047:
000048:    4715           56002        POSTJUMP           XCH      Q                                     #  SAVE INCOMING C(A).
000049:    4716           50000                           INDEX    A                                     #  GET CADR.
000050:    4717           30000                           CA       0
000051:
000052:                                                                                                  #  BANKJUMP IS THE SAME AS POSTJUMP, EXCEPT THAT THE CADR ARRIVES IN A.
000053:
000054:    4720           54004        BANKJUMP           TS       FBANK
000055:    4721           75070                           MASK     LOW10
000056:    4722           56002                           XCH      Q                                     #  RESTORING INPUT C(A) IF THIS WAS A
000057:    4723           50002        Q+10000            INDEX    Q                                     #  POSTJUMP.
000058:    4724           12000        PRIO12             TCF      10000                                 #  PRIO12 = TCF  10000 = 12000
000059:
000060:                                                                                                  #  THE FOLLOWING ROUTINE GETS THE RETURN CADR SAVED BY SWCALL OR BANKCALL AND LEAVES IT IN A.
000061:
000062:    4725           35070        MAKECADR           CAF      LOW10
000063:    4726           70133                           MASK     BUF2
000064:    4727           60134                           AD       BUF2       +1
000065:    4730           00002                           TC       Q
000066:
000067:    4731           54135        SUPDACAL           TS       MPTEMP
000068:    4732           56004                           XCH      FBANK                                 #  SET FBANK FOR DATA.
000069:    4733           00006                           EXTEND
000070:    4734           04007                           ROR      SUPERBNK                              #  SAVE FBANK IN BITS 15-11, AND
000071:    4735           56135                           XCH      MPTEMP                                #  SUPERBANK IN BITS 7-5.
000072:    4736           75070                           MASK     LOW10
000073:    4737           56001                           XCH      L                                     #  SAVE REL. ADR. IN BANK, FETCH SUPERBITS.
000074:    4740           00004                           INHINT                                         #  BECAUSE RUPT DOES NOT SAVE SUPERBANK.
000075:    4741           00006                           EXTEND
000076:    4742           01007                           WRITE    SUPERBNK                              #  SET SUPERBANK FOR DATA.
000077:    4743           50001                           INDEX    L
000078:    4744           32000                           CA       10000                                 #  PINBALL (FIX MEM DISP) PREVENTS DCA HERE
000079:    4745           56135                           XCH      MPTEMP                                #  SAVE 1ST WD, FETCH OLD FBANK AND SBANK.
000080:    4746           00006                           EXTEND
000081:    4747           01007                           WRITE    SUPERBNK                              #  RESTORE SUPERBANK.
000082:    4750           00003                           RELINT
000083:    4751           54004                           TS       FBANK                                 #  RESTORE FBANK.
000084:    4752           30135                           CA       MPTEMP                                #  RECOVER FIRST WORD OF DATA.
000085:    4753           00002                           RETURN                                         #  24 WDS. DATACALL 516 MU, SUPDACAL 432 MU
000086:
000087:                                                                                                  #  THE FOLLOWING ROUTINES ARE IDENTICAL TO BANKCALL AND SWCALL EXCEPT THAT THEY ARE USED IN INTERRUPT.
000088:
000089:    4754           52073        IBNKCALL           DXCH     RUPTREG3                              #  USES RUPTREG3,4 FOR DP RETURN ADDRESS.
000090:    4755           50002                           INDEX    Q
000091:    4756           30000                           CAF      0
000092:    4757           24002                           INCR     Q
000093:
000094:    4760           54001        ISWCALL            TS       L
000095:    4761           22004                           LXCH     FBANK
000096:    4762           75070                           MASK     LOW10
000097:    4763           56002                           XCH      Q
000098:    4764           52073                           DXCH     RUPTREG3
000099:    4765           50002                           INDEX    Q
000100:    4766           02000                           TC       10000
000101:
000102:    4767           56073        ISWRETRN           XCH      RUPTREG4
000103:    4770           56004                           XCH      FBANK
000104:    4771           56073                           XCH      RUPTREG4
000105:    4772           00072                           TC       RUPTREG3
000106:
000107:                                                                                                  #  2. USPRCADR ACCESSES INTERPRETIVE CODING IN OTHER THAN THE USER'S FBANK.  THE CALLING SEQUENCE IS AS FOLLOWS:
000108:                                                                                                  #        L       TC      USPRCADR
000109:                                                                                                  #        L+1     CADR    INTPRETX        INTPRETX IS THE INTERPRETIVE CODING
000110:                                                                                                  #                                        RETURN IS TO L+2
000111:
000112:    4773           54164        USPRCADR           TS       LOC                                   #  SAVE A
000113:    4774           35024                           CA       BIT8
000114:    4775           54023                           TS       EDOP                                  #  EXIT INSTRUCTION TO EDOP
000115:    4776           30006                           CA       BBANK
000116:    4777           54165                           TS       BANKSET                               #  USER'S BBANK TO BANKSET
000117:    5000           50002                           INDEX    Q
000118:    5001           30000                           CA       0
000119:    5002           54004                           TS       FBANK                                 #  INTERPRETIVE BANK TO FBANK
000120:    5003           75070                           MASK     LOW10                                 #  YIELDS INTERPRETIVE RELATIVE ADDRESS
000121:    5004           56002                           XCH      Q                                     #  INTERPRETIVE ADDRESS TO Q, FETCHING L+1
000122:    5005           56164                           XCH      LOC                                   #  L+1 TO LOC, RETRIEVING ORIGINAL A
000123:    5006           14723                           TCF      Q+10000
000124:
000125:                                                                                                  #  THERE ARE FOUR POSSIBLE SETTINGS FOR CHANNEL 07.  (CHANNEL 07 CONTAINS THE SUPERBANK SETTING.)
000126:
000127:                                                                                                  #                                        PSEUDO-FIXED     OCTAL PSEUDO
000128:                                                                                                  #  SUPERBANK     SETTING S-REG. VALUE    BANK NUMBERS     ADDRESSES
000129:                                                                                                  #  ----------    ------- ------------     ------------     ------------
000130:                                                                                                  #  SUPERBANK 3     0XX    2000 - 3777       30 - 37       70000 - 107777         (WHERE XX CAN BE ANYTHING AND
000131:                                                                                                  #                                                                                WILL USUALLY BE SEEN AS 11)
000132:                                                                                                  #  SUPERBANK 4     100    2000 - 3777       40 - 47      110000 - 127777         (AS FAR AS IT CAN BE SEEN,
000133:                                                                                                  #                                                                                ONLY BANKS 40-43 WILL EVER BE
000134:                                                                                                  #                                                                                AND ARE PRESENTLY AVAILABLE)
000135:                                                                                                  #  SUPERBANK 5     101    2000 - 3777       50 - 57      130000 - 147777         (PRESENTLY NOT AVAILABLE TO
000136:                                                                                                  #                                                                                THE USER)
000137:                                                                                                  #  SUPERBANK 6     110    2000 - 3777       60 - 67      150000 - 167777         (PRESENTLY NOT AVAILABLE TO
000138:                                                                                                  #                                                                                THE USER)
000139:                                                                                                  #  *** THIS ROUTINE MAY BE CALLED BY ANY PROGRAM LOCATED IN BANKS 00 - 27.  I.E., NO PROGRAM LIVING IN ANY
000140:                                                                                                  #  SUPERBANK SHOULD USE SUPERSW. ***
000141:
000142:                                                                                                  #  SUPERSW MAY BE CALLED IN THIS FASHION:
000143:                                                                                                  #        CAF     ABBCON          WHERE -- ABBCON  BBCON  SOMETHIN --
000144:                                                                                                  #        TCR     SUPERSW         (THE SUPERBNK BITS ARE IN THE BBCON)
000145:                                                                                                  #        ...       ...
000146:                                                                                                  #         .         .
000147:                                                                                                  #         .         .
000148:                                                                                                  #  OR IN THIS FASHION:
000149:                                                                                                  #        CAF     SUPERSET        WHERE SUPERSET IS ONE OF THE FOUR AVAILABLE
000150:                                                                                                  #        TCR     SUPERSW         SUPERBANK BIT CONSTANTS:
000151:                                                                                                  #        ...       ...                   SUPER011 OCTAL  60
000152:                                                                                                  #         .         .                    SUPER100 OCTAL 100
000153:                                                                                                  #         .         .                    SUPER101 OCTAL 120
000154:                                                                                                  #                                        SUPER110 OCTAL 140
000155:
000156:    5007           00006        SUPERSW            EXTEND
000157:    5010           01007                           WRITE    SUPERBNK                              #  WRITE BITS 7-6-5 OF THE ACCUMULATOR INTO
000158:                                                                                                  #  CHANNEL 07
000159:    5011           00002                           TC       Q                                     #  TC TO INSTRUCTION FOLLOWING
000160:                                                                                                  #        TC SUPERSW
000161:
000162:
000163:

End of include-file INTER-BANK_COMMUNICATION.agc.  Parent file is MAIN.agc


