
Source Code


000002:                                                                                                  ## Copyright:   Public domain.
000003:                                                                                                  ## Filename:    INTERRUPT_LEAD_INS.agc
000004:                                                                                                  ## Purpose:     A section of Manche72 revision 3.
000005:                                                                                                  ##              It is part of the reconstructed source code for the final, flown
000006:                                                                                                  ##              release of the software for the Command Module's (CM) Apollo
000007:                                                                                                  ##              Guidance Computer (AGC) for Apollo 13. No original listings
000008:                                                                                                  ##              of this program are available; instead, this file was recreated
000009:                                                                                                  ##              from a reconstructed copy of Comanche 072. It has been adapted
000010:                                                                                                  ##              such that the resulting bugger words exactly match those
000011:                                                                                                  ##              specified for Manche72 revision 3 in NASA drawing 2021153G,
000012:                                                                                                  ##              which gives relatively high confidence that the reconstruction
000013:                                                                                                  ##              is correct.
000014:                                                                                                  ## Assembler:   yaYUL
000015:                                                                                                  ## Contact:     Ron Burkey <info@sandroid.org>.
000016:                                                                                                  ## Website:     www.ibiblio.org/apollo/index.html
000017:                                                                                                  ## Mod history: 2024-05-19 MAS  Created from Comanche 072.
000018:
000019:    4000                                           SETLOC   4000
000020:
000021:    4000                                           COUNT    02/RUPTS
000022:
000023:    4000           00004                           INHINT                                         #  GO
000024:    4001           34054                           CAF      GOBB
000025:    4002           56006                           XCH      BBANK
000026:    4003           12526                           TCF      GOPROG
000027:
000028:    4004           52011                           DXCH     ARUPT                                 #  T6RUPT
000029:    4005           00006                           EXTEND
000030:    4006           31311                           DCA      T6LOC
000031:    4007           52006                           DTCB
000032:
000033:    4010           52011                           DXCH     ARUPT                                 #  T5RUPT
000034:    4011           40030                           CS       TIME5
000035:    4012           65052                           AD       .5SEC
000036:    4013           14065                           TCF      T5RUPT
000037:
000038:    4014           52011                           DXCH     ARUPT                                 #  T3RUPT
000039:    4015           34055                           CAF      T3RPTBB
000040:    4016           56006                           XCH      BBANK
000041:    4017           13416                           TCF      T3RUPT
000042:
000043:    4020           52011                           DXCH     ARUPT                                 #  T4RUPT
000044:    4021           34063                           CAF      T4RPTBB
000045:    4022           56006                           XCH      BBANK
000046:    4023           12000                           TCF      T4RUPT
000047:
000048:    4024           52011                           DXCH     ARUPT                                 #  KEYRUPT1
000049:    4025           34056                           CAF      KEYRPTBB
000050:    4026           56006                           XCH      BBANK
000051:    4027           13673                           TCF      KEYRUPT1
000052:
000053:    4030           52011                           DXCH     ARUPT                                 #  KEYRUPT2
000054:    4031           34057                           CAF      MKRUPTBB
000055:    4032           56006                           XCH      BBANK
000056:    4033           12104                           TCF      MARKRUPT
000057:
000058:    4034           52011                           DXCH     ARUPT                                 #  UPRUPT
000059:    4035           34056                           CAF      UPRPTBB
000060:    4036           56006                           XCH      BBANK
000061:    4037           13716                           TCF      UPRUPT
000062:
000063:    4040           52011                           DXCH     ARUPT                                 #  DOWNRUPT
000064:    4041           34060                           CAF      DWNRPTBB
000065:    4042           56006                           XCH      BBANK
000066:    4043           14662                           TCF      DODOWNTM
000067:
000068:    4044           52011                           DXCH     ARUPT                                 #  RADAR RUPT
000069:    4045           34061                           CAF      RDRPTBB
000070:    4046           56006                           XCH      BBANK
000071:    4047           12505                           TCF      VHFREAD
000072:
000073:    4050           52011                           DXCH     ARUPT                                 #  HAND CONTROL RUPT
000074:    4051           34062                           CAF      HCRUPTBB
000075:    4052           56006                           XCH      BBANK
000076:    4053           15352                           TCF      RESUME     +3                         #  NOT USED
000077:
000078:    4054  E3,1400                                  EBANK=   LST1                                  #  RESTART USES E0,E3
000079:    4054           12063        GOBB               BBCON    GOPROG
000080:
000081:    4055  E3,1400                                  EBANK=   LST1
000082:    4055           02063        T3RPTBB            BBCON    T3RUPT
000083:
000084:    4056     0073                                  EBANK=   KEYTEMP1
000085:    4056           16060        KEYRPTBB           BBCON    KEYRUPT1
000086:
000087:    4057  E7,1725                                  EBANK=   MRKBUF1
000088:    4057           16067        MKRUPTBB           BBCON    MARKRUPT
000089:
000090:    4060     4056               UPRPTBB            =        KEYRPTBB
000091:
000092:    4060     0337                                  EBANK=   DNTMBUFF
000093:    4060           12060        DWNRPTBB           BBCON    DNPHASE1
000094:
000095:    4061  E7,1603                                  EBANK=   DATATEST
000096:    4061           56067        RDRPTBB            BBCON    VHFREAD
000097:
000098:    4062     0025                                  EBANK=   TIME1
000099:    4062           04060        HCRUPTBB           BBCON    RESUME                                #  NOT USED
000100:
000101:    4063     1302                                  EBANK=   DSRUPTSW
000102:    4063           14062        T4RPTBB            BBCON    T4RUPT
000103:
000104:    4064     0025                                  EBANK=   TIME1
000105:    4064           04060        T5RPTBB            BBCON    T5RUPT
000106:
000107:    4065           00006        T5RUPT             EXTEND
000108:    4066           65353                           BZMF     NOQBRSM
000109:    4067           00006                           EXTEND
000110:    4070           31313                           DCA      T5LOC
000111:    4071           52006                           DTCB
000112:
000113:
000114:

End of include-file INTERRUPT_LEAD_INS.agc.  Parent file is MAIN.agc


