
Source Code


000002:                                                                                                  ## Copyright:   Public domain.
000003:                                                                                                  ## Filename:    INTERPRETIVE_CONSTANTS.agc
000004:                                                                                                  ## Purpose:     A section of Manche72 revision 3.
000005:                                                                                                  ##              It is part of the reconstructed source code for the final, flown
000006:                                                                                                  ##              release of the software for the Command Module's (CM) Apollo
000007:                                                                                                  ##              Guidance Computer (AGC) for Apollo 13. No original listings
000008:                                                                                                  ##              of this program are available; instead, this file was recreated
000009:                                                                                                  ##              from a reconstructed copy of Comanche 072. It has been adapted
000010:                                                                                                  ##              such that the resulting bugger words exactly match those
000011:                                                                                                  ##              specified for Manche72 revision 3 in NASA drawing 2021153G,
000012:                                                                                                  ##              which gives relatively high confidence that the reconstruction
000013:                                                                                                  ##              is correct.
000014:                                                                                                  ## Assembler:   yaYUL
000015:                                                                                                  ## Contact:     Ron Burkey <info@sandroid.org>.
000016:                                                                                                  ## Website:     www.ibiblio.org/apollo/index.html
000017:                                                                                                  ## Mod history: 2024-05-19 MAS  Created from Comanche 072.
000018:
000019: 26,2000                                           SETLOC   INTPRET1
000020: 26,2000                                           BANK
000021:
000022: 26,3323                                           COUNT    23/ICONS
000023:
000024: 26,3323           10000 00000  DP1/4TH            2DEC     .25
000025:
000026: 26,3325           00000 00000  UNITZ              2DEC     0          B-28
000027:
000028: 26,3327           00000 00000  UNITY              2DEC     0          B-28
000029:
000030: 26,3331           20000 00000  UNITX              2DEC     .5
000031:
000032: 26,3333           00000 00000  ZEROVECS           2DEC     0          B-28
000033:
000034: 26,3335           00000 00000                     2DEC     0          B-28
000035:
000036: 26,3337           00000 00000                     2DEC     0          B-28
000037:
000038: 26,3341  26,3331               DPHALF             =        UNITX
000039: 26,3341           37777        DPPOSMAX           OCT      37777
000040: 26,3342           37777                           OCT      37777
000041:
000042:                                                                                                  #  INTERPRETIVE CONSTANTS IN THE OTHER HALF-MEMORY
000043:
000044: 04,2000                                           SETLOC   INTPRET2
000045: 04,2000                                           BANK
000046:
000047: 04,3557                                           COUNT    14/ICONS
000048:
000049: 04,3557           00000 00000  ZUNIT              2DEC     0          B-28
000050:
000051: 04,3561           00000 00000  YUNIT              2DEC     0          B-28
000052:
000053: 04,3563           20000 00000  XUNIT              2DEC     .5
000054:
000055: 04,3565           00000 00000  ZEROVEC            2DEC     0          B-28
000056:
000057: 04,3567           00000 00000                     2DEC     0          B-28
000058:
000059: 04,3571           00000 00000                     2DEC     0          B-28
000060:
000061: 04,3573           77777                           OCT      77777                                 #  -0, -6, -12 MUST REMAIN IN THIS ORDER
000062: 04,3574           77771        DEC-6              DEC      -6         B-14
000063: 04,3575           77763        DEC-12             DEC      -12        B-14
000064: 04,3576           37777 37777  LODPMAX            2OCT     3777737777                            #  THESE TWO CONSTANTS MUST REMAIN
000065:
000066: 04,3600           37777 37777  LODPMAX1           2OCT     3777737777                            #  ADJACENT AND THE SAME FOR INTEGRATION
000067:
000068: 04,3602  04,3565               ZERODP             =        ZEROVEC
000069: 04,3602  04,3563               HALFDP             =        XUNIT
000070:
000071:
000072:
000073:

End of include-file INTERPRETIVE_CONSTANTS.agc.  Parent file is MAIN.agc


