
Source Code


000002:                                                                                                  ## Copyright:   Public domain.
000003:                                                                                                  ## Filename:    JET_SELECTION_LOGIC.agc
000004:                                                                                                  ## Purpose:     A section of Manche72 revision 3.
000005:                                                                                                  ##              It is part of the reconstructed source code for the final, flown
000006:                                                                                                  ##              release of the software for the Command Module's (CM) Apollo
000007:                                                                                                  ##              Guidance Computer (AGC) for Apollo 13. No original listings
000008:                                                                                                  ##              of this program are available; instead, this file was recreated
000009:                                                                                                  ##              from a reconstructed copy of Comanche 072. It has been adapted
000010:                                                                                                  ##              such that the resulting bugger words exactly match those
000011:                                                                                                  ##              specified for Manche72 revision 3 in NASA drawing 2021153G,
000012:                                                                                                  ##              which gives relatively high confidence that the reconstruction
000013:                                                                                                  ##              is correct.
000014:                                                                                                  ## Assembler:   yaYUL
000015:                                                                                                  ## Contact:     Ron Burkey <info@sandroid.org>.
000016:                                                                                                  ## Website:     www.ibiblio.org/apollo/index.html
000017:                                                                                                  ## Mod history: 2024-05-19 MAS  Created from Comanche 072.
000018:
000019: 21,3777                                           BANK     21
000020: 17,2000                                           SETLOC   DAPS4
000021: 17,2000                                           BANK
000022:
000023: 17,2610                                           COUNT    17/DAPJS
000024:
000025: 17,2610  E6,1510                                  EBANK=   KMPAC
000026:
000027:                                                                                                  #  EXAMINE CHANNEL 31 FOR TRANSLATION COMMANDS
000028:
000029: 17,2610           22016        JETSLECT           LXCH     BANKRUPT
000030: 17,2611           32672                           CAF      DELTATT3                              #  = 60 MS  RESET TO EXECUTE PHASE1
000031: 17,2612           61634                           AD       T5TIME
000032: 17,2613           54030                           TS       TIME5
000033: 17,2614           12617                           TCF      +3
000034: 17,2615           32673                           CAF      DELATT20                              #  = 20 MS  TO ASSURE A T5RUPT
000035: 17,2616           54030                           TS       TIME5
000036: 17,2617           33351                           CAF      =14MS                                 #  RESET T6 TO INITIALIZE THE JET CHANNELS
000037: 17,2620           54031                           TS       TIME6                                 #  IN 14 MS
000038: 17,2621           35015                           CAF      NEGMAX
000039: 17,2622           00006                           EXTEND
000040: 17,2623           05013                           WOR      CHAN13
000041: 17,2624           00006                           EXTEND
000042: 17,2625           22012                           QXCH     QRUPT
000043: 17,2626           32671                           CAF      XLNMASK                               #  = 7700 OCT
000044: 17,2627           00006                           EXTEND                                         #  EXAMINE THE TRANSLATION
000045: 17,2630           06031                           RXOR     CHAN31                                #  HAND CONTROLLER
000046: 17,2631           72671                           MASK     XLNMASK
000047: 17,2632           00006                           EXTEND
000048: 17,2633           12674                           BZF      NOXLNCMD
000049: 17,2634           55502                           TS       T5TEMP
000050: 17,2635           00006                           EXTEND
000051: 17,2636           75023                           MP       BIT9
000052: 17,2637           76214                           MASK     THREE
000053: 17,2640           55513                           TS       XNDX1                                 #  AC QUAD  X-TRANSLATION INDEX
000054: 17,2641           55514                           TS       XNDX2                                 #  BD QUAD  X-TRANSLATION INDEX
000055: 17,2642           31502                           CA       T5TEMP
000056: 17,2643           00006                           EXTEND                                         #  1 = + XLN
000057: 17,2644           75025                           MP       BIT7                                  #  2 = - XLN
000058: 17,2645           76214                           MASK     THREE                                 #  3 = NO XLN
000059: 17,2646           55515                           TS       YNDX                                  #  Y-TRANSLATION INDEX
000060:
000061: 17,2647           31502                           CA       T5TEMP
000062: 17,2650           00006                           EXTEND
000063: 17,2651           75027                           MP       BIT5
000064: 17,2652           76214                           MASK     THREE
000065: 17,2653           55516                           TS       ZNDX                                  #  Z-TRANSLATION INDEX
000066:
000067: 17,2654           31466                           CA       DAPDATR1                              #  SET ATTKALMN TO PICK UP FILTER GAINS FOR
000068: 17,2655           75016                           MASK     BIT14                                 #  TRANSLATIONS.
000069: 17,2656           00006                           EXTEND                                         #  CHECK DAPDATR1 BIT 14 FOR LEM ATTACHED.
000070: 17,2657           12662                           BZF      NOLEM
000071: 17,2660           46214                           CS       THREE                                 #  IF LEM IS ON, SET ATTKALMN = -3
000072: 17,2661           12663                           TCF      +2
000073: 17,2662           45032        NOLEM              CS       TWO                                   #  IF LEM IS OFF, SET ATTKALMN = -2.
000074: 17,2663           55617                           TS       ATTKALMN
000075: 17,2664           11631                           CCS      XTRANS                                #  (+, -1, 0)
000076: 17,2665           55513                           TS       XNDX1                                 #  USING BD-X  ZERO XNDX1
000077: 17,2666           12700                           TCF      PWORD
000078: 17,2667           55514                           TS       XNDX2                                 #  USING AC-X  ZERO XNDX2
000079: 17,2670           12700                           TCF      PWORD
000080: 17,2671           07700        XLNMASK            OCT      7700
000081:
000082: 17,2672           37772        DELTATT3           DEC      16378      B-14                       #  = 60 MS
000083: 17,2673           37776        DELATT20           DEC      16382      B-14                       #  = 20 MS
000084:
000085: 17,2674           55513        NOXLNCMD           TS       XNDX1                                 #  ZERO ALL REQUESTS FOR TRANSLATION
000086: 17,2675           55514                           TS       XNDX2
000087: 17,2676           55515                           TS       YNDX
000088: 17,2677           55516                           TS       ZNDX
000089:
000090:                                                                                                  #  PITCH COMMANDS  TIMING(NO X-TRANS, NO QUAD FAILS) 32MCT
000091:
000092: 17,2700           11562        PWORD              CCS      TAU1                                  #  CHECK FOR PITCH COMMANDS
000093: 17,2701           35033                           CAF      ONE
000094: 17,2702           12704                           TCF      +2                                    #   0 = NO PITCH
000095: 17,2703           35032                           CAF      TWO                                   #  +1 =  + PITCH
000096: 17,2704           55520                           TS       PINDEX                                #  +2 =  - PITCH
000097:
000098: 17,2705           11626                           CCS      RACFAIL                               #  FLAG FOR REAL AC QUAD FAILURES
000099: 17,2706           12712                           TCF      AFAILP
000100: 17,2707           12722                           TCF      TABPCOM                               #  0 = NO REAL AC FAILURES
000101: 17,2710           12714                           TCF      CFAILP                                #  + = A QUAD FAILED
000102: 17,2711           12722                           TCF      TABPCOM                               #  - = C QUAD FAILED
000103:                                                                                                  #  IF FAILURES ARE PRESENT IGNORE
000104:                                                                                                  #  X-TRANSLATIONS ON THIS AXIS
000105:
000106: 17,2712           34334        AFAILP             CAF      NINE                                  #  IF FAILURE IS PRESENT 1JET OPERATION
000107: 17,2713           12724                           TCF      TABPCOM    +2                         #  IS ASSUMED.  IGNORE X-TRANSLATION
000108: 17,2714           35775        CFAILP             CAF      TWELVE
000109: 17,2715           12724                           TCF      TABPCOM    +2
000110:
000111: 17,2716           00000        XLNNDX             DEC      0          B-14                       #  INDECES FOR TRANSLATION COMMANDS
000112: 17,2717           00003                           DEC      3          B-14                       #  FOR USE IN TABLE LOOK UP
000113: 17,2720           00006                           DEC      6          B-14
000114: 17,2721           00000                           DEC      0          B-14
000115:
000116: 17,2722     5775               TWELVE             =        OCT14
000117:
000118:                                                                                                  #  TABLE LOOK UP FOR PITCH COMMANDS WITH AND WITHOUT X-TRANSLATION AND AC QUAD FAILURES PRESENT.
000119:                                                                                                  #  BITS 9, 10 CONTAIN THE NUMBER OF PITCH JETS USED TO PERFORM THE PITCH ROTATION
000120:
000121: 17,2722           51513        TABPCOM            INDEX    XNDX1
000122: 17,2723           32716                           CA       XLNNDX
000123: 17,2724           61520                           AD       PINDEX
000124: 17,2725           50000                           INDEX    A
000125: 17,2726           32752                           CA       PYTABLE
000126: 17,2727           72771                           MASK     PJETS                                 #  =1417 OCT
000127: 17,2730           55453                           TS       PWORD1
000128: 17,2731           00006                           EXTEND
000129: 17,2732           75025                           MP       BIT7
000130: 17,2733           55523                           TS       NPJETS                                #  = NO. OF PITCH JETS
000131:
000132:                                                                                                  #  YAW JET COMMANDS  TIMING(NO X-TRANS, NO QUAD FAILURES)  32MCT
000133:
000134: 17,2734           11563        YWORD              CCS      TAU2                                  #  CHECK FOR YAW COMMANDS
000135: 17,2735           35033                           CAF      ONE
000136: 17,2736           12740                           TCF      +2
000137: 17,2737           35032                           CAF      TWO
000138: 17,2740           55521                           TS       YINDEX                                #  YAW ROTATION INDEX
000139:
000140: 17,2741           11627                           CCS      RBDFAIL                               #  FLAG FOR B OR D QUAD FAILURES
000141: 17,2742           12746                           TCF      BFAILY                                #  0 = NO BD FAILURE
000142: 17,2743           12773                           TCF      TABYCOM                               #  + = B QUAD FAILED
000143: 17,2744           12750                           TCF      DFAILY                                #  - = D QUAD FAILED
000144: 17,2745           12773                           TCF      TABYCOM
000145:
000146: 17,2746           34334        BFAILY             CAF      NINE
000147: 17,2747           12775                           TCF      TABYCOM    +2
000148: 17,2750           35775        DFAILY             CAF      TWELVE
000149: 17,2751           12775                           TCF      TABYCOM    +2
000150:
000151:                                                                                                  #  TABLE FOR PITCH(YAW) COMMANDS
000152:                                                                                                  #  BITS 4,3,2,1 = PITCH, X-TRANSLATION JETS SELECTED
000153:                                                                                                  #  BITS    10,9 = NO. PITCH JETS USED TO PERFORM ROTATION
000154:                                                                                                  #  BITS 8,7,6,5 = YAW, X-TRANSLATION JETS SELECTED
000155:                                                                                                  #  BITS 12,11:  NO. YAW JETS USED TO PERFORM ROTATION
000156:
000157:                                                                                                  #  ROT   TRANS   QUAD    BIAS
000158: 17,2752           00000        PYTABLE            OCT      0                                     #  0     0               0
000159: 17,2753           05125                           OCT      5125                                  #  +     0               0
000160: 17,2754           05252                           OCT      5252                                  #  -     0               0
000161: 17,2755           00231                           OCT      0231                                  #  0     +               3
000162: 17,2756           02421                           OCT      2421                                  #  +     +               3
000163: 17,2757           02610                           OCT      2610                                  #  -     +               3
000164: 17,2760           00146                           OCT      0146                                  #  0     -               6
000165: 17,2761           02504                           OCT      2504                                  #  +     -               6
000166: 17,2762           02442                           OCT      2442                                  #  -     -               6
000167: 17,2763           00000                           OCT      0                                     #  0             A(B)    9
000168: 17,2764           02421                           OCT      2421                                  #  +             A(B)    9
000169: 17,2765           02442                           OCT      2442                                  #  -             A(B)    9
000170: 17,2766           00000                           OCT      0                                     #  0             C(D)    12
000171: 17,2767           02504                           OCT      2504                                  #  +             C(D)    12
000172: 17,2770           02610                           OCT      2610                                  #  -             C(D)    12
000173:
000174:                                                                                                  #  MASKS FOR PITCH AND YAW COMMANDS
000175:
000176: 17,2771           01417        PJETS              OCT      1417
000177: 17,2772           06360        YJETS              OCT      6360
000178:
000179:                                                                                                  #  TABLE LOOK UP FOR YAW COMMANDS WITH AND WITHOUT X-TRANSLATION AND AC QUAD FAILURES PRESENT
000180:                                                                                                  #  BITS 11, 12 CONTAIN THE NUMBER OF YAW JETS USED TO PERFORM THE YAW ROTATION
000181:
000182: 17,2773           51514        TABYCOM            INDEX    XNDX2
000183: 17,2774           32716                           CA       XLNNDX
000184: 17,2775           61521                           AD       YINDEX
000185: 17,2776           50000                           INDEX    A
000186: 17,2777           32752                           CA       PYTABLE
000187: 17,3000           72772                           MASK     YJETS                                 #  = 6360 OCT
000188: 17,3001           55455                           TS       YWORD1
000189: 17,3002           00006                           EXTEND
000190: 17,3003           75027                           MP       BIT5
000191: 17,3004           55524                           TS       NYJETS                                #  NO. OF YAW JETS USED TO PERFORM ROTATION
000192:
000193:                                                                                                  #  ROLL COMMANDS  TIMING(NO Y,Z TRANS, NO QUAD FAILS)  45MCT
000194:
000195: 17,3005           11561        RWORD              CCS      TAU                                   #  CHECK FOR ROLL COMMANDS
000196: 17,3006           35033                           CAF      ONE
000197: 17,3007           13011                           TCF      +2
000198: 17,3010           35032                           CAF      TWO
000199: 17,3011           55517                           TS       RINDEX
000200:
000201: 17,3012           11630                           CCS      ACORBD                                #  FLAG FOR AC OR BD QUAD SELECTION FOR
000202: 17,3013           13104                           TCF      BDROLL                                #  ROLL COMMANDS
000203: 17,3014           13104                           TCF      BDROLL                                #  +, +0 = BD ROLL
000204: 17,3015           13016                           TCF      +1                                    #  -, -0 = AC ROLL
000205:
000206: 17,3016           11626        ACROLL             CCS      RACFAIL                               #  CHECK FOR REAL FAILURES
000207: 17,3017           13023                           TCF      RAFAIL                                #  ON AC QUADS
000208: 17,3020           13033                           TCF      RXLNS
000209: 17,3021           13025                           TCF      RCFAIL
000210: 17,3022           13033                           TCF      RXLNS
000211:
000212: 17,3023           34334        RAFAIL             CAF      NINE                                  #  QUAD FAILURE WILL GET
000213: 17,3024           13035                           TCF      TABRCOM                               #  1-JET OPERATION
000214: 17,3025           35775        RCFAIL             CAF      TWELVE
000215: 17,3026           13035                           TCF      TABRCOM
000216:
000217: 17,3027           00000        XLN1NDX            DEC      0          B-14
000218: 17,3030           00001                           DEC      1          B-14                       #  INDECES FOR TRANSLATION
000219: 17,3031           00002                           DEC      2          B-14
000220: 17,3032           00000                           DEC      0          B-14
000221:
000222:                                                                                                  #  TABLE LOOK UP FOR AC-ROLL COMMANDS WITH AND WITHOUT Y-TRANSLATION AND ACQUAD FAILURES PRESENT
000223:                                                                                                  #  BITS 9,10,11 CONTAIN THE MAGNITUDE AND DIRECTION OF THE ROLL
000224:
000225: 17,3033           51515        RXLNS              INDEX    YNDX                                  #  NO AC QUAD FAILURES
000226: 17,3034           32716                           CA       XLNNDX                                #  INCLUDE +,-,0, Y-TRANSLATION
000227: 17,3035           61517        TABRCOM            AD       RINDEX
000228: 17,3036           50000                           INDEX    A
000229: 17,3037           33166                           CA       RTABLE
000230: 17,3040           73205                           MASK     ACRJETS                               #  = 3760 OCT
000231: 17,3041           55451                           TS       RWORD1
000232:
000233:                                                                                                  #  CHECK FOR Z-TRANSLATIONS ON BD
000234:
000235: 17,3042           31516        BDZCHECK           CA       ZNDX
000236: 17,3043           00006                           EXTEND
000237: 17,3044           63076                           BZMF     NOBDZ                                 #  NO Z-TRANSLATION
000238:
000239:                                                                                                  #  TABLE LOOK UP FOR BD Z-TRANSLATION WITH AND WITHOUT REAL BD QUAD FAILURES.  Z-TRANSLATION WILL BE POSS-
000240:                                                                                                  #  IBLE AS LONG AS ROLL COMMANDS CAN BE SATISFIED WITH THE AC ROLL JETS.  CRITERION.. IF THE RESULTANT NET ROLL
000241:                                                                                                  #  COMMANDS = 0 (WITH Z-TRANSLATION) AND IF TAU = 0, THEN INCLUDE THE BD Z-TRANSLATION COMMANDS.  IF THE RESULTANT
000242:                                                                                                  #  ROLL COMMAND = 0, AND IF TAU NZ, THEN IGNORE THE BD Z-TRANSLATION
000243:
000244: 17,3045           11627                           CCS      RBDFAIL
000245: 17,3046           36214                           CAF      THREE
000246: 17,3047           13051                           TCF      +2
000247: 17,3050           36211                           CAF      SIX
000248: 17,3051           51516                           INDEX    ZNDX
000249: 17,3052           63027                           AD       XLN1NDX
000250: 17,3053           50000                           INDEX    A
000251: 17,3054           33207                           CA       YZTABLE
000252: 17,3055           73220                           MASK     BDZJETS                               #  = 3417 OCT
000253: 17,3056           61451                           AD       RWORD1                                #  ADD TO ROLL COMMANDS
000254: 17,3057           55502                           TS       T5TEMP                                #  IF POSSIBLE.  MUST CHECK TAU FIRST
000255:
000256: 17,3060           00006                           EXTEND
000257: 17,3061           75025                           MP       BIT7                                  #  DETERMINE THE NET ROLL COMMAND WITH
000258: 17,3062           66061                           AD       =-4                                   #  Z-TRANSLATION ADDED ON
000259: 17,3063           55522                           TS       NRJETS                                #  NET NO. OF +,- ROLL JETS ON
000260: 17,3064           00006                           EXTEND
000261: 17,3065           13071                           BZF      TAUCHECK
000262:
000263: 17,3066           31502        ACRBDZ             CA       T5TEMP                                #  Z-TRANSLATION ACCEPTED EVEN THO WE MAY
000264: 17,3067           55451                           TS       RWORD1                                #  HAVE INTRODUCED AN UNDESIREABLE ROLL
000265: 17,3070           13332                           TCF      ROLLTIME                              #  BRANCH TO JET ON-TIME CALCULATIONS
000266:
000267: 17,3071           11561        TAUCHECK           CCS      TAU
000268: 17,3072           13076                           TCF      NOBDZ
000269: 17,3073           13066                           TCF      ACRBDZ
000270: 17,3074           13076                           TCF      NOBDZ
000271: 17,3075           13066                           TCF      ACRBDZ
000272:
000273: 17,3076           31451        NOBDZ              CA       RWORD1                                #  Z-TRANSLATION NOT ACCEPTED
000274: 17,3077           00006                           EXTEND
000275: 17,3100           75025                           MP       BIT7
000276: 17,3101           67715                           AD       =-2
000277: 17,3102           55522                           TS       NRJETS
000278: 17,3103           13332                           TCF      ROLLTIME                              #  BRANCH TO JET ON-TIME CALCULATION
000279:
000280:                                                                                                  #  BD QUAD SELECTION FOR ROLL COMMANDS
000281:
000282: 17,3104           11627        BDROLL             CCS      RBDFAIL
000283: 17,3105           13111                           TCF      RBFAIL
000284: 17,3106           13115                           TCF      RZXLNS
000285: 17,3107           13113                           TCF      RDFAIL
000286: 17,3110           13115                           TCF      RZXLNS
000287: 17,3111           34334        RBFAIL             CAF      NINE
000288: 17,3112           13117                           TCF      TABRZCMD
000289: 17,3113           35775        RDFAIL             CAF      TWELVE
000290: 17,3114           13117                           TCF      TABRZCMD
000291:
000292: 17,3115           51516        RZXLNS             INDEX    ZNDX                                  #  NO BD FAILURES
000293: 17,3116           32716                           CA       XLNNDX                                #  +,-,0 Z-TRANSLATION PRESENT
000294: 17,3117           61517        TABRZCMD           AD       RINDEX
000295: 17,3120           50000                           INDEX    A
000296: 17,3121           33166                           CA       RTABLE
000297: 17,3122           73206                           MASK     BDRJETS                               #  = 34017 OCT
000298: 17,3123           55451                           TS       RWORD1
000299:
000300: 17,3124           31515        ACYCHECK           CA       YNDX                                  #  ANY Y-TRANSLATION
000301: 17,3125           00006                           EXTEND
000302: 17,3126           13160                           BZF      NOACY                                 #  NO Y-TRANSLATION
000303: 17,3127           11626                           CCS      RACFAIL
000304: 17,3130           36214                           CAF      THREE
000305: 17,3131           13133                           TCF      +2
000306: 17,3132           36211                           CAF      SIX
000307: 17,3133           51515                           INDEX    YNDX
000308: 17,3134           63027                           AD       XLN1NDX
000309: 17,3135           50000                           INDEX    A
000310: 17,3136           33207                           CA       YZTABLE
000311: 17,3137           73221                           MASK     ACYJETS                               #  = 34360 OCT
000312: 17,3140           61451                           AD       RWORD1
000313: 17,3141           55502                           TS       T5TEMP
000314: 17,3142           00006                           EXTEND                                         #  FOR EXPLANATION SEE CODING ON RTABLE
000315: 17,3143           75030                           MP       BIT4
000316: 17,3144           66061                           AD       =-4
000317: 17,3145           55522                           TS       NRJETS                                #  NO. OF NET ROLL JETS
000318: 17,3146           00006                           EXTEND
000319: 17,3147           13153                           BZF      TAUCHCK                               #  IF NRJETS = 0
000320:
000321: 17,3150           31502        BDRACZ             CA       T5TEMP                                #  Y-TRANSLATION ACCEPTED
000322: 17,3151           55451                           TS       RWORD1
000323: 17,3152           13332                           TCF      ROLLTIME                              #  BRANCH TO JET ON-TIME CALCULATIONS
000324:
000325: 17,3153           11561        TAUCHCK            CCS      TAU
000326: 17,3154           13160                           TCF      NOACY
000327: 17,3155           13150                           TCF      BDRACZ
000328: 17,3156           13160                           TCF      NOACY
000329: 17,3157           13150                           TCF      BDRACZ
000330:
000331: 17,3160           31451        NOACY              CA       RWORD1                                #  Y-TRANSLATION NOT ACCEPTED
000332: 17,3161           00006                           EXTEND
000333: 17,3162           75030                           MP       BIT4
000334: 17,3163           67715                           AD       =-2
000335: 17,3164           55522                           TS       NRJETS
000336: 17,3165           13332                           TCF      ROLLTIME
000337:
000338:                                                                                                  #                                TABLE FOR ROLL, Y AND Z-TRANSLATION COMMANDS
000339:
000340:                                                                                                  #  EITHER AC OR BD ROLL MAY BE SELECTED.  IF AC ROLL IS SELECTED, Y-TRANSLATIONS MAY BE SATISFIED SIMULTANEOUSLY
000341:                                                                                                  #  PROVIDED THAT THERE ARE NO AC QUAD FAILURES.  IF THERE ARE AC FAILURES, Y-TRANSLATION COMMANDS WILL BE IGNORED,
000342:                                                                                                  #  IN WHICH CASE THE ASTRONAUT SHOULD SWITCH TO BD ROLL.
000343:
000344:                                                                                                  #  IF BDROLL IS SELECTED, Z-TRANSLATIONS MAY BE SATISFIED SIMULTANEOUSLY PROVIDED THAT THERE ARE NO BD QUAD
000345:                                                                                                  #  FAILURES.  IF THERE ARE BD FAILURES, Z-TRANSLATION COMMANDS WILL BE IGNORED, IN WHICH CASE THE ASTRONAUT SHOULD
000346:                                                                                                  #  SWITCH TO AC ROLL.
000347:
000348:                                                                                                  #  NOTE THAT IF ONE QUAD FAILS (E.G. B FAILED), Z-TRANSLATION IS STILL POSSIBLE AND THAT THE UNDESIREABLE ROLL
000349:                                                                                                  #  INTRODUCED BY THIS TRANSLATION WILL BE COMPENSATED BY THE TWO AC ROLL JETS ACTUATED BY THE AUTOPILOT LOGIC.
000350:
000351:                                                                                                  #                                           WORD MAKE UP....RTABLE
000352:
000353:                                                                                                  #  TWO WORDS, CORRESPONDING TO AC OR BD ROLL SELECTION, HAVE BEEN COMBINED INTO ONE TABLE.  THE WORD CORRESPOND-
000354:                                                                                                  #  ING TO AC ROLL HAS THE FOLLOWING INTERPRETATION..
000355:
000356:                                                                                                  #        BITS 9,10,11 ARE CODED TO GIVE THE NET ROLL TORQUE FOR THE WORD SELECTED.  THE CODING IS..
000357:
000358:                                                                                                  #                BIT NO. 11  10   9              NO. OF ROLL JETS
000359:
000360:                                                                                                  #                         0   0   0                      -2
000361:                                                                                                  #                         0   0   1                      -1
000362:                                                                                                  #                         0   1   0                       0
000363:                                                                                                  #                         0   1   1                      +1
000364:                                                                                                  #                         1   0   0                      +2
000365:
000366:                                                                                                  #  THIS WORD MAY THEN BE ADDED TO THE WORD SELECTED FROM THE YZ-TRANSLATION TABLE, WHICH HAS THE SAME TYPE OF
000367:                                                                                                  #  CODING AS ABOVE, AND THE NET ROLL DETERMINED BY SHIFTING THE RESULTANT WORD RIGHT 8 PLACES AND SUBTRACTING FOUR.
000368:
000369:                                                                                                  #  THE WORD CORRESPONDING TO BD ROLL HAS A SIMILIAR INTERPRETATION, EXCEPT THAT BITS 12, 13, 14 ARE CODED
000370:                                                                                                  #  (AS ABOVE) TO GIVE THE NET ROLL TORQUE.
000371:
000372:                                                                                                  #  ROLL          TRANS           QUADFAIL        BIAS
000373:
000374: 17,3166           11000        RTABLE             OCT      11000                                 #    0                                             0
000375: 17,3167           22125                           OCT      22125                                 #    +                                             0
000376: 17,3170           00252                           OCT      00252                                 #    -                                             0
000377: 17,3171           11231                           OCT      11231                                 #    0           +Y(+Z)                            3
000378: 17,3172           15421                           OCT      15421                                 #    +           +Y(+Z)                            3
000379: 17,3173           04610                           OCT      04610                                 #    -           +Y(+Z)                            3
000380: 17,3174           11146                           OCT      11146                                 #    0           -Y(-Z)                            6
000381: 17,3175           15504                           OCT      15504                                 #    +           -Y(-Z)                            6
000382: 17,3176           04442                           OCT      04442                                 #    -           -Y(-Z)                            6
000383: 17,3177           11000                           OCT      11000                                 #    0                             A(B)            9
000384: 17,3200           15504                           OCT      15504                                 #    +                             A(B)            9
000385: 17,3201           04610                           OCT      04610                                 #    -                             A(B)            9
000386: 17,3202           11000                           OCT      11000                                 #    0                             C(D)           12
000387: 17,3203           15421                           OCT      15421                                 #    +                             C(D)           12
000388: 17,3204           04442                           OCT      04442                                 #    -                             C(D)           12
000389:
000390:                                                                                                  #  RTABLE MASKS-
000391:
000392: 17,3205           03760        ACRJETS            OCT      03760
000393: 17,3206           34017        BDRJETS            OCT      34017
000394:
000395:                                                                                                  #                                         Y, Z TRANSLATION TABLE
000396:
000397:                                                                                                  #     ONCE AC OR BD ROLL IS SELECTED THE QUAD PAIR WHICH IS NOT BEING USED TO SATISFY THE ROLL COMMANDS MAY BE
000398:                                                                                                  #  USED TO SATISFY THE REMAINING TRANSLATION COMMANDS.  HOWEVER, WE MUST MAKE SURE THAT ROLL COMMANDS ARE SATISFIED
000399:                                                                                                  #  WHEN THEY OCCUR.  THEREFORE, THE Y-Z TRANSLATIONS FROM THIS TABLE WILL BE IGNORED IF THE NET ROLL TORQUE OF THE
000400:                                                                                                  #  COMBINED WORD IS ZERO AND THE ROLL COMMANDS ARE NON-ZERO.  THIS SITUATION WOULD OCCUR, FOR EXAMPLE, IF WE EN-
000401:                                                                                                  #  COUNTER SIMULTANEOUS +R +Y -Z COMMANDS AND A QUAD D FAILURE WHILE USING AC FOR ROLL.
000402:                                                                                                  #     TO FACILITATE THE LOGIC, THE Y-Z TRANSLATION TABLE HAS BEEN CODED IN A MANNER SIMILIAR TO THE ROLL TABLE
000403:                                                                                                  #  ABOVE.
000404:                                                                                                  #     BITS 9,10,11 ARE CODED TO GIVE THE NET ROLL TORQUE INCURRED BY Z-TRANSLATIONS.  THE WORD SELECTED CAN THEN BE
000405:                                                                                                  #  ADDED TO THE AC-ROLL WORD AND THE RESULTANT ROLL TORQUE DETERMINED FROM THE COMBINED WORD.  SIMILIARLY BITS
000406:                                                                                                  #  12,13,14 ARE CODED TO GIVE THE NET ROLL TORQUE INCURRED BY Y-TRANSLATIONS WHEN BD-ROLL IS SELECTED.
000407:
000408:                                                                                                  #  TRANSLATION   QUADFAIL        BIAS
000409:
000410: 17,3207           11000        YZTABLE            OCT      11000                                 #        0                       0
000411: 17,3210           11231                           OCT      11231                                 #     +Z(+Y)                     0
000412: 17,3211           11146                           OCT      11146                                 #     -Z(-Y)                     0
000413: 17,3212           11000                           OCT      11000                                 #        0         B(A)          3
000414: 17,3213           04610                           OCT      04610                                 #     +Z(+Y)       B(A)          3
000415: 17,3214           15504                           OCT      15504                                 #     -Z(-Y)       B(A)          3
000416: 17,3215           11000                           OCT      11000                                 #        0         D(C)          6
000417: 17,3216           15421                           OCT      15421                                 #     +Z(+Y)       D(C)          6
000418: 17,3217           04442                           OCT      04442                                 #     -Z(-Y)       D(C)          6
000419:
000420:                                                                                                  #  YZ-TABLE MASKS-
000421:
000422: 17,3220           03417        BDZJETS            OCT      03417
000423: 17,3221           34360        ACYJETS            OCT      34360
000424:
000425:                                                                                                  #  ADDITIONAL CONSTANTS
000426:
000427: 17,3222     7715               =-2                =        NEG2
000428: 17,3222     6061               =-4                =        NEG4
000429:
000430:                                                                                                  #                                        CALCULATION OF JET ON-TIMES
000431:
000432:                                                                                                  #     THE ROTATION COMMANDS (TAU:S), WHICH WERE DETERMINED FROM THE JET SWITCHING LOGIC ON THE BASIS OF SINGLE JET
000433:                                                                                                  #  OPERATION, MUST NOW BE UPDATED BY THE ACTUAL NUMBER OF JETS TO BE USED IN SATISFYING THESE COMMANDS.  TAU MUST
000434:                                                                                                  #  ALSO BE DECREMENTED ACCORDING TO THE EXPECTED TORQUE GENERATED BY THE NEW COMMANDS ACTING OVER THE NEXT T5 INT-
000435:                                                                                                  #  ERVAL.
000436:                                                                                                  #     IN ORDER TO MAINTAIN ACCURATE KNOWLEDGE OF VEHICLE ANGULAR RATES, WE MUST ALSO PROVIDE EXPECTED FIRING TIMES
000437:                                                                                                  #  (DFT:S, ALSO IN TERMS OF 1-JET OPERATION) FOR THE RATE FILTER.
000438:                                                                                                  #     NOTE THAT TRANSLATIONS CAN PRODUCE ROTATIONS EVEN THOUGH NO ROTATIONS WERE CALLED FOR.  NEVERTHELESS, WE MUST
000439:                                                                                                  #  UPDATE DFT.
000440:                                                                                                  #     WHEN THE ROTATIONS HAVE FINISHED, WE MUST PROVIDE CHANNEL INFORMATION TO THE T6 PROGRAM TO CONTINUE ON WITH
000441:                                                                                                  #  THE TRANSLATIONS.  THIS WILL BE DONE IN THE NEXT SECTION.  HOWEVER, TO INSURE THAT JETS ARE NOT FIRED FOR LESS
000442:                                                                                                  #  THAN A MINIMUM IMPULSE (14MS), ALL JET CHANNEL COMMANDS WILL BE HELD FIXED FROM THE START OF THE T5 PROGRAM FOR
000443:                                                                                                  #  AT LEAST 14MS UNTIL THE INITIALIZATION OF NEW COMMANDS.  MOREOVER, A 14MS ON-TIME WILL BE ADDED TO ANY ROTATIONAL
000444:                                                                                                  #  COMMANDS GENERATED BY THE MANUAL CONTROLS OR THE JET SWITCHING LOGIC, AND ALL TRANSLATION COMMANDS WILL BE
000445:                                                                                                  #  ACTIVE FOR AT LEAST ONE CYCLE OF THE T5 PROGRAM (.1SEC)
000446:
000447:                                                                                                  #           PITCH JET ON-TIME CALCULATION
000448:
000449: 17,3222           11562        PITCHTIM           CCS      TAU1
000450: 17,3223           13232                           TCF      PTAUPOS
000451: 17,3224           13226                           TCF      +2
000452: 17,3225           13230                           TCF      PTAUNEG
000453: 17,3226           55550                           TS       DFT1                                  #  NO PITCH ROTATION
000454: 17,3227           13430                           TCF      PBYPASS                               #  COMMANDS
000455:
000456: 17,3230           41523        PTAUNEG            CS       NPJETS
000457: 17,3231           55523                           TS       NPJETS
000458: 17,3232           31562        PTAUPOS            CA       TAU1
000459: 17,3233           00006                           EXTEND
000460: 17,3234           51523                           INDEX    NPJETS
000461: 17,3235           73411                           MP       NJET
000462: 17,3236           55461                           TS       BLAST1
000463: 17,3237           63344                           AD       =-.1SEC
000464: 17,3240           00006                           EXTEND
000465: 17,3241           63252                           BZMF     AD14MSP
000466: 17,3242           51523                           INDEX    NPJETS
000467: 17,3243           33345                           CA       DFTMAX                                #  THE PITCH ON-TIME IS GREATER THAN .1 SEC
000468: 17,3244           55550                           TS       DFT1
000469: 17,3245           40000                           COM
000470: 17,3246           27562                           ADS      TAU1                                  #  UPDATE TAU1
000471: 17,3247           33346                           CAF      =+.1SEC                               #  LIMIT THE LENGTH OF PITCH ROTATION
000472: 17,3250           55461                           TS       BLAST1                                #  COMMANDS TO 0.1 SEC SO THAT ONLY
000473: 17,3251           13415                           TCF      ASMBLWP                               #  X-TRANSLATIONS WILL CONTINUE ON SWITCH
000474:                                                                                                  #  OVER TO TVC
000475: 17,3252           41461        AD14MSP            CS       BLAST1                                #  SEE IF JET ON TIME LESS THAN
000476: 17,3253           63351                           AD       =14MS                                 #  MINIMUM IMPULSE TIME
000477: 17,3254           00006                           EXTEND
000478: 17,3255           63260                           BZMF     PBLASTOK                              #  IF SO LIMIT MINIMUM ON TIME TO 14 MS
000479: 17,3256           33351                           CAF      =14MS
000480: 17,3257           55461                           TS       BLAST1
000481: 17,3260           31461        PBLASTOK           CA       BLAST1
000482: 17,3261           00006                           EXTEND                                         #  THE PITCH COMMANDS WILL BE COMPLETED
000483: 17,3262           71523                           MP       NPJETS                                #  WITHIN THE TS-CYCLE TIME
000484: 17,3263           23550                           LXCH     DFT1                                  #  FOR USE IN UPDATING RATE FILTER
000485: 17,3264           55562                           TS       TAU1                                  #  ZERO TAU1 (ACC CONTAINS ZERO)
000486: 17,3265           13415                           TCF      ASMBLWP
000487:
000488:                                                                                                  #  YAW JET ON-TIME CALCULATION
000489:
000490: 17,3266           11563        YAWTIME            CCS      TAU2
000491: 17,3267           13276                           TCF      YTAUPOS
000492: 17,3270           13272                           TCF      +2
000493: 17,3271           13274                           TCF      YTAUNEG
000494: 17,3272           55551                           TS       DFT2                                  #  NO YAW ROTATION COMMANDS
000495: 17,3273           13574                           TCF      YBYPASS
000496:
000497: 17,3274           41524        YTAUNEG            CS       NYJETS
000498: 17,3275           55524                           TS       NYJETS
000499: 17,3276           31563        YTAUPOS            CA       TAU2
000500: 17,3277           00006                           EXTEND
000501: 17,3300           51524                           INDEX    NYJETS
000502: 17,3301           73411                           MP       NJET
000503: 17,3302           55463                           TS       BLAST2
000504: 17,3303           63344                           AD       =-.1SEC
000505: 17,3304           00006                           EXTEND
000506: 17,3305           63316                           BZMF     AD14MSY
000507: 17,3306           51524                           INDEX    NYJETS
000508: 17,3307           33345                           CA       DFTMAX                                #  YAW COMMANDS WILL LAST LONGER THAN .1SEC
000509: 17,3310           55551                           TS       DFT2
000510: 17,3311           40000                           COM
000511: 17,3312           27563                           ADS      TAU2                                  #  DECREMENT TAU2
000512: 17,3313           33346                           CAF      =+.1SEC                               #  LIMIT THE LENGTH OF YAW ROTATION COMMAND
000513: 17,3314           55463                           TS       BLAST2                                #  TO 0.1 SEC SO THAT ONLY X-TRANSLATION
000514: 17,3315           13561                           TCF      ASMBLWY                               #  WILL CONTINUE ON SWITCH OVER TO TVC
000515:
000516: 17,3316           41463        AD14MSY            CS       BLAST2                                #  SEE IF JET ON-TIME LESS THAN
000517: 17,3317           63351                           AD       =14MS                                 #  MINIMUM IMPULSE TIME
000518: 17,3320           00006                           EXTEND
000519: 17,3321           63324                           BZMF     YBLASTOK                              #  IF SO, LIMIT MINIMUM ON-TIME TO 14 MS
000520: 17,3322           33351                           CAF      =14MS
000521: 17,3323           55463                           TS       BLAST2
000522: 17,3324           31463        YBLASTOK           CA       BLAST2                                #  YAW COMMANDS WILL BE COMPLETED WITHIN
000523: 17,3325           00006                           EXTEND                                         #  THE T5CYCLE TIME
000524: 17,3326           71524                           MP       NYJETS
000525: 17,3327           23551                           LXCH     DFT2
000526: 17,3330           55563                           TS       TAU2                                  #  ZERO TAU2
000527: 17,3331           13561                           TCF      ASMBLWY
000528:
000529:                                                                                                  #  ROLL ON-TIME CALCULATION-
000530:
000531: 17,3332           11561        ROLLTIME           CCS      TAU
000532: 17,3333           13352                           TCF      RBLAST
000533: 17,3334           13336                           TCF      +2
000534: 17,3335           13352                           TCF      RBLAST
000535: 17,3336           51522                           INDEX    NRJETS
000536: 17,3337           33345                           CA       DFTMAX                                #  UPDATE DFT EVEN THO NO ROLL COMMANDS ARE
000537: 17,3340           55547                           TS       DFT                                   #  PRESENT
000538: 17,3341           13554                           TCF      RBYPASS
000539:
000540: 17,3342           77037                           DEC      -480       B-14                       #  =-.3SEC
000541: 17,3343           77277                           DEC      -320       B-14                       #  =-.2SEC
000542: 17,3344           77537        =-.1SEC            DEC      -160       B-14                       #  =-.1SEC
000543: 17,3345           00000        DFTMAX             DEC      0          B-14                       #  0
000544: 17,3346           00240        =+.1SEC            DEC      160        B-14                       #  =+.1SEC
000545: 17,3347           00500                           DEC      320        B-14                       #  =+.2SEC
000546: 17,3350           00740                           DEC      480        B-14                       #  =+.3SEC
000547: 17,3351           00027        =14MS              DEC      23         B-14                       #  =14MS
000548:
000549: 17,3352           31561        RBLAST             CA       TAU
000550: 17,3353           00006                           EXTEND
000551: 17,3354           51522                           INDEX    NRJETS
000552: 17,3355           73411                           MP       NJET
000553: 17,3356           55457                           TS       BLAST                                 #  BLAST IS AN INTERMEDIATE VARIABLE
000554:                                                                                                  #  USED IN DETERMINING THE JET ON-TIMES
000555: 17,3357           63344                           AD       =-.1SEC
000556: 17,3360           00006                           EXTEND
000557: 17,3361           63372                           BZMF     AD14MSR
000558: 17,3362           51522                           INDEX    NRJETS                                #  THE ROLL ROTATION WILL LAST LONGER
000559: 17,3363           33345                           CA       DFTMAX                                #  THAN THE T5 CYCLE TIME
000560: 17,3364           55547                           TS       DFT
000561: 17,3365           40000                           COM
000562: 17,3366           27561                           ADS      TAU
000563: 17,3367           33346                           CAF      =+.1SEC                               #  LIMIT THE LENGTH OF ROLL ROTATION
000564: 17,3370           55457                           TS       BLAST                                 #  COMMANDS TO 0.1 SEC SO THAT ONLY Y-Z
000565: 17,3371           13435                           TCF      ASMBLWR                               #  TRANSLATION COMMANDS CONTINUE
000566:
000567: 17,3372           41457        AD14MSR            CS       BLAST                                 #  SEE IF THE JET ON-TIME LESS THAN
000568: 17,3373           63351                           AD       =14MS                                 #  MINIMUM IMPULSE TIME
000569: 17,3374           00006                           EXTEND
000570: 17,3375           63400                           BZMF     RBLASTOK
000571: 17,3376           33351                           CAF      =14MS                                 #  IF SO, LIMIT MINIMUM ON-TIME TO 14 MS
000572: 17,3377           55457                           TS       BLAST
000573: 17,3400           31457        RBLASTOK           CA       BLAST
000574: 17,3401           00006                           EXTEND
000575: 17,3402           71522                           MP       NRJETS
000576: 17,3403           23547                           LXCH     DFT
000577: 17,3404           55561                           TS       TAU                                   #  ZERO TAU
000578: 17,3405           13435                           TCF      ASMBLWR
000579:
000580: 17,3406           65252                           DEC      -.333333                              #  = -1/3
000581: 17,3407           57777                           DEC      -.500000                              #  = -1/2
000582: 17,3410           40000                           DEC      -.999999                              #  = -1 (NEGMAX)
000583: 17,3411           00000        NJET               DEC      0          B-14
000584: 17,3412           37777                           DEC      .999999                               #  = +1 (POSMAX)
000585: 17,3413           20000                           DEC      .500000                               #  = +1/2
000586: 17,3414           12525                           DEC      .333333                               #  = +1/3
000587:
000588:                                                                                                  #  WHEN THE ROTATION COMMANDS ARE COMPLETED, IT IS NECESSARY TO REPLACE THESE COMMANDS BY NEW COMMANDS WHICH
000589:                                                                                                  #  CONTINUE ON WITH THE TRANSLATIONS IF ANY ARE PRESENT.
000590:
000591:                                                                                                  #  IN THIS SECTION THESE NEW COMMANDS ARE GENERATED AND STORED FOR REPLACEMENT OF THE CHANNEL COMMANDS WHEN THE
000592:                                                                                                  #  CORRESPONDING ROTATIONS ARE COMPLETED.
000593:
000594:                                                                                                  #  GENERATION OF THE SECOND PITCH(X-TRANS) WORD...PWORD2
000595:
000596: 17,3415           11626        ASMBLWP            CCS      RACFAIL
000597: 17,3416           13424                           TCF      FPX2                                  #  IF FAILURE ON AC IGNORE X-TRANSLATION
000598: 17,3417           13421                           TCF      +2
000599: 17,3420           13424                           TCF      FPX2
000600: 17,3421           51513                           INDEX    XNDX1
000601: 17,3422           32716                           CA       XLNNDX
000602: 17,3423           50000                           INDEX    A
000603: 17,3424           32752        FPX2               CA       PYTABLE
000604: 17,3425           72771                           MASK     PJETS
000605: 17,3426           55454                           TS       PWORD2
000606: 17,3427           13266                           TCF      YAWTIME
000607:
000608: 17,3430           31453        PBYPASS            CA       PWORD1                                #  THE T6 PROGRAM WILL LOAD PWORD2
000609: 17,3431           55454                           TS       PWORD2                                #  UPON ENTRY
000610: 17,3432           35035                           CAF      ZERO
000611: 17,3433           55461                           TS       BLAST1                                #  THERE IS NO PWORD2
000612: 17,3434           13266                           TCF      YAWTIME
000613:
000614:                                                                                                  #  GENERATION OF THE SECOND ROLL (Y,Z) WORD (RWORD2)
000615:
000616: 17,3435           11515        ASMBLWR            CCS      YNDX                                  #  CHECK FOR Y-TRANS
000617: 17,3436           13446                           TCF      ACBD2Y
000618: 17,3437           35035        NO2Y               CAF      ZERO
000619: 17,3440           55452                           TS       RWORD2
000620: 17,3441           11516                           CCS      ZNDX                                  #  CHECK FOR Z-TRANS
000621: 17,3442           13511                           TCF      ACBD2Z
000622: 17,3443           35035        NO2Z               CAF      ZERO
000623: 17,3444           27452                           ADS      RWORD2
000624: 17,3445           13222                           TCF      PITCHTIM                              #  RWORD2 ASSEMBLED
000625:
000626: 17,3446           11630        ACBD2Y             CCS      ACORBD
000627: 17,3447           13464                           TCF      AC2Y                                  #  CAN DO Y-TRANS
000628: 17,3450           13464                           TCF      AC2Y
000629: 17,3451           13452                           TCF      +1                                    #  USING AC FOR ROLL
000630: 17,3452           11626                           CCS      RACFAIL
000631: 17,3453           13437                           TCF      NO2Y                                  #  USING AC AND AC HAS FAILED
000632: 17,3454           13456                           TCF      +2
000633: 17,3455           13437                           TCF      NO2Y                                  #  DITTO
000634:
000635: 17,3456           51515                           INDEX    YNDX                                  #  NO FAILURES, CAN DO Y
000636: 17,3457           32716                           CA       XLNNDX
000637: 17,3460           50000                           INDEX    A
000638: 17,3461           33166                           CA       RTABLE
000639: 17,3462           73205                           MASK     ACRJETS
000640: 17,3463           13440                           TCF      NO2Y       +1
000641:
000642: 17,3464           11626        AC2Y               CCS      RACFAIL
000643: 17,3465           36214                           CAF      THREE
000644: 17,3466           13470                           TCF      +2
000645: 17,3467           36211                           CAF      SIX
000646: 17,3470           51515                           INDEX    YNDX
000647: 17,3471           63027                           AD       XLN1NDX
000648: 17,3472           50000                           INDEX    A
000649: 17,3473           33207                           CA       YZTABLE
000650: 17,3474           73221                           MASK     ACYJETS
000651: 17,3475           55452                           TS       RWORD2
000652: 17,3476           00006                           EXTEND
000653: 17,3477           75030                           MP       BIT4
000654: 17,3500           67715                           AD       =-2
000655: 17,3501           55522                           TS       NRJETS
000656: 17,3502           41457                           CS       BLAST
000657: 17,3503           63346                           AD       =+.1SEC
000658: 17,3504           00006                           EXTEND
000659: 17,3505           71522                           MP       NRJETS
000660: 17,3506           30001                           CA       L
000661: 17,3507           27547                           ADS      DFT
000662: 17,3510           13441                           TCF      NO2Y       +2
000663: 17,3511           11630        ACBD2Z             CCS      ACORBD
000664: 17,3512           13542                           TCF      BDF2Z                                 #  USING BD-ROLL
000665: 17,3513           13542                           TCF      BDF2Z                                 #  MUST CHECK FOR BD FAILURES
000666: 17,3514           13515                           TCF      +1
000667: 17,3515           11627                           CCS      RBDFAIL                               #  USING AC FOR ROLL, CAN DO Z-TRANS
000668: 17,3516           36214                           CAF      THREE
000669: 17,3517           13521                           TCF      +2
000670: 17,3520           36211                           CAF      SIX
000671: 17,3521           51516                           INDEX    ZNDX
000672: 17,3522           63027                           AD       XLN1NDX
000673: 17,3523           50000                           INDEX    A
000674: 17,3524           33207                           CA       YZTABLE
000675: 17,3525           73220                           MASK     BDZJETS
000676: 17,3526           27452                           ADS      RWORD2
000677: 17,3527           00006                           EXTEND
000678: 17,3530           75025                           MP       BIT7
000679: 17,3531           67715                           AD       =-2
000680: 17,3532           55522                           TS       NRJETS
000681: 17,3533           41457                           CS       BLAST
000682: 17,3534           63346                           AD       =+.1SEC
000683: 17,3535           00006                           EXTEND
000684: 17,3536           71522                           MP       NRJETS
000685: 17,3537           30001                           CA       L
000686: 17,3540           27547                           ADS      DFT
000687: 17,3541           13222                           TCF      PITCHTIM
000688:
000689: 17,3542           11627        BDF2Z              CCS      RBDFAIL
000690: 17,3543           13443                           TCF      NO2Z                                  #  USING BD-ROLL AND BD HAS FAILED
000691: 17,3544           13546                           TCF      +2
000692: 17,3545           13443                           TCF      NO2Z                                  #  DITTO
000693: 17,3546           51516                           INDEX    ZNDX
000694: 17,3547           32716                           CA       XLNNDX
000695: 17,3550           50000                           INDEX    A
000696: 17,3551           33166                           CA       RTABLE
000697: 17,3552           73206                           MASK     BDRJETS
000698: 17,3553           13444                           TCF      NO2Z       +1
000699:
000700: 17,3554           31451        RBYPASS            CA       RWORD1
000701: 17,3555           55452                           TS       RWORD2
000702: 17,3556           35035                           CAF      ZERO
000703: 17,3557           55457                           TS       BLAST
000704: 17,3560           13222                           TCF      PITCHTIM
000705:
000706:                                                                                                  #  GENERATION OF THE SECOND YAW (X-TRANS) WORD...YWORD2
000707:
000708: 17,3561           11627        ASMBLWY            CCS      RBDFAIL
000709: 17,3562           13570                           TCF      FYX2                                  #  IF FAILURE ON BD IGNORE X-TRANSLATION
000710: 17,3563           13565                           TCF      +2
000711: 17,3564           13570                           TCF      FYX2
000712: 17,3565           51514                           INDEX    XNDX2
000713: 17,3566           32716                           CA       XLNNDX
000714: 17,3567           50000                           INDEX    A
000715: 17,3570           32752        FYX2               CA       PYTABLE
000716: 17,3571           72772                           MASK     YJETS
000717: 17,3572           55456                           TS       YWORD2
000718: 17,3573           13600                           TCF      T6SETUP
000719:
000720: 17,3574           31455        YBYPASS            CA       YWORD1
000721: 17,3575           55456                           TS       YWORD2
000722: 17,3576           35035                           CAF      ZERO
000723: 17,3577           55463                           TS       BLAST2
000724:
000725:                                                                                                  #                                        SORT THE JET ON-TIMES
000726:
000727:                                                                                                  #  AT THIS POINT ALL THE CHANNEL COMMANDS AND JET ON-TIMES HAVE BEEN DETERMINED.  IN SUMMARY THESE ARE-
000728:
000729:                                                                                                  #        RWORD1
000730:                                                                                                  #        RWORD2          BLAST
000731:
000732:                                                                                                  #        PWORD1
000733:                                                                                                  #        PWORD2          BLAST1
000734:
000735:                                                                                                  #        YWORD1
000736:                                                                                                  #        YWORD2          BLAST2
000737:
000738:                                                                                                  #  IN THIS SECTION THE JET ON-TIMES ARE SORTED AND THE SEQUENCE OF T6 INTERRUPTS IS DETERMINED.  TO FACILITATE
000739:                                                                                                  #  THE SORTING PROCESS AND THE T6 PROGRAM, THE VARIABLES BLAST, BLAST1, BLAST2, ARE RESERVED AS DOUBLE PRECISION
000740:                                                                                                  #  WORDS.  THE LOWER PART OF THESE WORDS CONTAIN A BRANCH INDEX ASSOCIATED WITH THE ROTATION AXIS OF THE HIGHER
000741:                                                                                                  #  ORDER WORD.
000742:
000743: 17,3600           35035        T6SETUP            CAF      ZERO                                  #  BRANCH INDEX FOR ROLL
000744: 17,3601           55460                           TS       BLAST      +1
000745: 17,3602           35031                           CAF      FOUR                                  #  BRANCH INDEX FOR PITCH
000746: 17,3603           55462                           TS       BLAST1     +1
000747: 17,3604           35040                           CAF      ELEVEN                                #  BRANCH INDEX FOR YAW
000748: 17,3605           55464                           TS       BLAST2     +1
000749:
000750: 17,3606           41457                           CS       BLAST
000751: 17,3607           61461                           AD       BLAST1
000752: 17,3610           00006                           EXTEND
000753: 17,3611           63635                           BZMF     DXCHT12                               #  T1 GR T2
000754: 17,3612           41461        CHECKT23           CS       BLAST1
000755: 17,3613           61463                           AD       BLAST2
000756: 17,3614           00006                           EXTEND
000757: 17,3615           63641                           BZMF     DXCHT23
000758: 17,3616           41461        CALCDT6            CS       BLAST1
000759: 17,3617           27463                           ADS      BLAST2
000760: 17,3620           41457                           CS       BLAST
000761: 17,3621           27461                           ADS      BLAST1                                #  END OF SORTING PROCEDURE
000762: 17,3622           00006                           EXTEND                                         #  RESET T5LOC TO BEGIN PHASE1
000763: 17,3623           33634                           DCA      RCS2CADR
000764: 17,3624           53313                           DXCH     T5LOC
000765: 17,3625           45033        ENDJETS            CS       BIT1                                  #  RESET BIT1 FOR INITIALIZATION OF
000766: 17,3626           71501                           MASK     RCSFLAGS                              #  T6 PROGRAM
000767: 17,3627           55501                           TS       RCSFLAGS
000768: 17,3630           45035                           CS       ZERO                                  #  RESET T5PHASE FOR PHASE1
000769: 17,3631           55465                           TS       T5PHASE
000770: 17,3632           15347                           TCF      RESUME                                #  RESUME INTERRUPTED PROGRAM
000771:
000772: 17,3633  E6,1510                                  EBANK=   KMPAC
000773: 17,3633           02134 42066  RCS2CADR           2CADR    RCSATT
000774:
000775: 17,3635           53460        DXCHT12            DXCH     BLAST
000776: 17,3636           53462                           DXCH     BLAST1
000777: 17,3637           53460                           DXCH     BLAST
000778: 17,3640           13612                           TCF      CHECKT23
000779:
000780: 17,3641           53462        DXCHT23            DXCH     BLAST1
000781: 17,3642           53464                           DXCH     BLAST2
000782: 17,3643           53462                           DXCH     BLAST1
000783: 17,3644           41457                           CS       BLAST
000784: 17,3645           61461                           AD       BLAST1
000785: 17,3646           00006                           EXTEND
000786: 17,3647           63651                           BZMF     +2
000787: 17,3650           13616                           TCF      CALCDT6
000788: 17,3651           53460                           DXCH     BLAST
000789: 17,3652           53462                           DXCH     BLAST1
000790: 17,3653           53460                           DXCH     BLAST
000791: 17,3654           13616                           TCF      CALCDT6
000792:
000793:                                                                                                  #  T6 PROGRAM AND CHANNEL SETUP
000794:
000795: 21,3777                                           BANK     21
000796: 17,2000                                           SETLOC   DAPS5
000797: 17,2000                                           BANK
000798:
000799: 17,3655           22016        T6START            LXCH     BANKRUPT
000800: 17,3656           00006                           EXTEND
000801: 17,3657           22012                           QXCH     QRUPT
000802: 17,3660           10031                           CCS      TIME6                                 #  CHECK TO SEE IF TIME6 WAS RESET
000803: 17,3661           15347                           TCF      RESUME                                #  AFTER T6RUPT OCCURED (IN T5RUPT)
000804: 17,3662           13664                           TCF      +2                                    #  IF SO WAIT FOR NEXT T6RUPT BEFORE
000805: 17,3663           15347                           TCF      RESUME                                #  TAKING ACTION
000806:
000807: 17,3664           41501                           CS       RCSFLAGS
000808: 17,3665           75033                           MASK     BIT1                                  #  IF BIT1 IS 0 RESET TO 1
000809: 17,3666           00006                           EXTEND                                         #  AND INITIALIZE CHANNEL
000810: 17,3667           13700                           BZF      T6RUPTOR
000811: 17,3670           27501                           ADS      RCSFLAGS
000812: 17,3671           31451                           CA       RWORD1
000813: 17,3672           00006                           EXTEND                                         #  INITIALIZE CHANNELS 5,6 WITH WORD1
000814: 17,3673           01006                           WRITE    CHAN6
000815: 17,3674           31453                           CA       PWORD1
000816: 17,3675           61455                           AD       YWORD1
000817: 17,3676           00006                           EXTEND
000818: 17,3677           01005                           WRITE    CHAN5
000819:
000820: 17,3700           11457        T6RUPTOR           CCS      BLAST
000821: 17,3701           13760                           TCF      ZBLAST                                #  ZERO BLAST1
000822: 17,3702           13717                           TCF      REPLACE                               #  REPLACE WORD1
000823: 17,3703           13705                           TCF      +2
000824: 17,3704           13717                           TCF      REPLACE
000825: 17,3705           11461        T6L1               CCS      BLAST1
000826: 17,3706           13763                           TCF      ZBLAST1
000827: 17,3707           13724                           TCF      REPLACE1
000828: 17,3710           13712                           TCF      +2
000829: 17,3711           13724                           TCF      REPLACE1
000830: 17,3712           11463        T6L2               CCS      BLAST2
000831: 17,3713           13766                           TCF      ZBLAST2
000832: 17,3714           13731                           TCF      REPLACE2
000833: 17,3715           15347                           TCF      RESUME
000834: 17,3716           13731                           TCF      REPLACE2
000835:
000836: 17,3717           51460        REPLACE            INDEX    BLAST      +1
000837: 17,3720           03736                           TC       REPLACER
000838: 17,3721           45033                           CS       ONE
000839: 17,3722           55457                           TS       BLAST
000840: 17,3723           13705                           TCF      T6L1
000841:
000842: 17,3724           51462        REPLACE1           INDEX    BLAST1     +1
000843: 17,3725           03736                           TC       REPLACER
000844: 17,3726           45033                           CS       ONE
000845: 17,3727           55461                           TS       BLAST1
000846: 17,3730           13712                           TCF      T6L2
000847:
000848: 17,3731           51464        REPLACE2           INDEX    BLAST2     +1
000849: 17,3732           03736                           TC       REPLACER
000850: 17,3733           45033                           CS       ONE
000851: 17,3734           55463                           TS       BLAST2
000852: 17,3735           15347                           TCF      RESUME
000853:
000854: 17,3736           31452        REPLACER           CA       RWORD2                                #  INITIALIZE CHANNELS 5,6 WITH WORD2
000855: 17,3737           00006                           EXTEND
000856: 17,3740           01006                           WRITE    CHAN6
000857: 17,3741           00002                           TC       Q
000858:
000859: 17,3742           32772        REPLACEP           CA       YJETS
000860: 17,3743           00006                           EXTEND
000861: 17,3744           02005                           RAND     CHAN5
000862: 17,3745           61454                           AD       PWORD2
000863: 17,3746           00006                           EXTEND
000864: 17,3747           01005                           WRITE    CHAN5
000865: 17,3750           00002                           TC       Q
000866:
000867: 17,3751           32771        REPLACEY           CA       PJETS
000868: 17,3752           00006                           EXTEND
000869: 17,3753           02005                           RAND     CHAN5
000870: 17,3754           61456                           AD       YWORD2
000871: 17,3755           00006                           EXTEND
000872: 17,3756           01005                           WRITE    CHAN5
000873: 17,3757           00002                           TC       Q
000874:
000875: 17,3760           35035        ZBLAST             CAF      ZERO
000876: 17,3761           57457                           XCH      BLAST
000877: 17,3762           13770                           TCF      ENABT6
000878: 17,3763           35035        ZBLAST1            CAF      ZERO
000879: 17,3764           57461                           XCH      BLAST1
000880: 17,3765           13770                           TCF      ENABT6
000881: 17,3766           35035        ZBLAST2            CAF      ZERO
000882: 17,3767           57463                           XCH      BLAST2
000883: 17,3770           54031        ENABT6             TS       TIME6
000884: 17,3771           35015                           CAF      NEGMAX
000885: 17,3772           00006                           EXTEND
000886: 17,3773           05013                           WOR      CHAN13                                #  ENABLE T6RUPT
000887: 17,3774           15347                           TCF      RESUME
000888:
000889:                                                                                                  #  END OF T6 INTERRUPT
000890:
000891: 17,3775                        ENDSLECT           EQUALS
000892:

End of include-file JET_SELECTION_LOGIC.agc.  Parent file is MAIN.agc


