
Source Code


000002:                                                                                                  ## Copyright:   Public domain.
000003:                                                                                                  ## Filename:    KALCMANU_STEERING.agc
000004:                                                                                                  ## Purpose:     A section of Manche72 revision 3.
000005:                                                                                                  ##              It is part of the reconstructed source code for the final, flown
000006:                                                                                                  ##              release of the software for the Command Module's (CM) Apollo
000007:                                                                                                  ##              Guidance Computer (AGC) for Apollo 13. No original listings
000008:                                                                                                  ##              of this program are available; instead, this file was recreated
000009:                                                                                                  ##              from a reconstructed copy of Comanche 072. It has been adapted
000010:                                                                                                  ##              such that the resulting bugger words exactly match those
000011:                                                                                                  ##              specified for Manche72 revision 3 in NASA drawing 2021153G,
000012:                                                                                                  ##              which gives relatively high confidence that the reconstruction
000013:                                                                                                  ##              is correct.
000014:                                                                                                  ## Assembler:   yaYUL
000015:                                                                                                  ## Contact:     Ron Burkey <info@sandroid.org>.
000016:                                                                                                  ## Website:     www.ibiblio.org/apollo/index.html
000017:                                                                                                  ## Mod history: 2024-05-19 MAS  Created from Comanche 072.
000018:
000019:                                                                                                  #  GENERATION OF STEERING COMMANDS FOR DIGITAL AUTOPILOT FREE FALL MANEUVERS
000020:
000021:                                                                                                  #  NEW COMMANDS WILL BE GENERATED EVERY ONE SECOND DURING THE MANEUVER
000022:
000023: 15,2000                                           BANK     15
000024:
000025: 22,2000                                           SETLOC   KALCMON1
000026: 22,2000                                           BANK
000027:
000028: 22,3026  E6,1661                                  EBANK=   BCDU
000029:
000030: 22,3026                                           COUNT    22/KALC
000031:
000032: 22,3026           41332        NEWDELHI           CS       HOLDFLAG                              #  SEE IF MANEUVER HAS BEEN INTERRUPTED
000033: 22,3027           00006                           EXTEND                                         #  BY ASTRONAUT
000034: 22,3030           62726                           BZMF     NOGO       -2                         #  IF SO, TERMINATE KALCMANU
000035: 22,3031           06006        NEWANGL            TC       INTPRET
000036: 22,3032           75160                           AXC,1    AXC,2
000037: 22,3033           03320                                    MIS                                   #  COMPUTE THE NEW MATRIX FROM S/C TO
000038: 22,3034           03425                                    DEL                                   #  STABLE MEMBER AXES
000039: 22,3035           77624                           CALL
000040: 22,3036           44304                                    MXM3
000041: 22,3037           45575                           VLOAD    STADR
000042: 22,3040           50442                           STOVL    MIS        +12D                       #  CALCULATE NEW DESIRED CDU ANGLES
000043: 22,3041           77626                           STADR
000044: 22,3042           50450                           STOVL    MIS        +6D
000045: 22,3043           77626                           STADR
000046: 22,3044           74456                           STORE    MIS
000047: 22,3045           45160                           AXC,1    CALL
000048: 22,3046           03320                                    MIS
000049: 22,3047           44655                                    DCMTOCDU                              #  PICK UP THE NEW CDU ANGLES FROM MATRIX
000050: 22,3050           77634                           RTB
000051: 22,3051           45552                                    V1STO2S
000052: 22,3052           03267                           STORE    NCDU                                  #  NEW CDU ANGLES
000053: 22,3053           77414                           BONCLR   EXIT
000054: 22,3054           01215                                    CALCMAN2
000055: 22,3055           40065                                    MANUSTAT                              #  TO START MANEUVER
000056: 22,3056           35032                           CAF      TWO                                   #           +0 OTHERWISE
000057: 22,3057           55664        INCRDCDU           TS       KSPNDX
000058: 22,3060           60000                           DOUBLE
000059: 22,3061           55665                           TS       KDPNDX
000060: 22,3062           51664                           INDEX    KSPNDX
000061: 22,3063           31666                           CA       NCDU                                  #  NEW DESIRED CDU ANGLES
000062: 22,3064           00006                           EXTEND
000063: 22,3065           51664                           INDEX    KSPNDX
000064: 22,3066           21661                           MSU      BCDU                                  #  INITIAL S/C ANGLE OR PREVIOUS DESIRED
000065: 22,3067           00006                           EXTEND                                         #  CDU ANGLES
000066: 22,3070           73002                           MP       QUADROT
000067: 22,3071           51665                           INDEX    KDPNDX
000068: 22,3072           53576                           DXCH     DELCDUX                               #  ANGLE INCREMENTS TO BE ADDED TO
000069: 22,3073           51664                           INDEX    KSPNDX                                #  DCDU EVERY TENTH SEC
000070: 22,3074           31666                           CA       NCDU                                  #  BY LEM DAP
000071: 22,3075           51664                           INDEX    KSPNDX
000072: 22,3076           57661                           XCH      BCDU
000073: 22,3077           51665                           INDEX    KDPNDX
000074: 22,3100           55646                           TS       CDUXD
000075: 22,3101           11664                           CCS      KSPNDX
000076: 22,3102           13057                           TCF      INCRDCDU                              #  LOOP FOR THREE AXES
000077:
000078: 22,3103           00003                           RELINT
000079:                                                                                                  #  COMPARE PRESENT TIME WITH TIME TO TERMINATE MANEUVER
000080:
000081: 22,3104           03115        TMANUCHK           TC       TIMECHK
000082: 22,3105           04715                           TC       POSTJUMP
000083: 22,3106           40131                           CADR     CONTMANU
000084:
000085: 22,3107           35033                           CAF      ONE
000086: 22,3110           05261        MANUSTAL           TC       WAITLIST
000087: 22,3111  E6,1661                                  EBANK=   BCDU
000088: 22,3111           02012 42066                     2CADR    MANUSTOP
000089:
000090: 22,3113           00003                           RELINT
000091: 22,3114           15233                           TCF      ENDOFJOB
000092:
000093:
000094: 22,3115           00006        TIMECHK            EXTEND
000095: 22,3116           40025                           DCS      TIME2
000096: 22,3117           53673                           DXCH     TTEMP
000097: 22,3120           00006                           EXTEND
000098: 22,3121           31717                           DCA      TM
000099: 22,3122           21673                           DAS      TTEMP
000100: 22,3123           11672                           CCS      TTEMP
000101: 22,3124           00002                           TC       Q
000102: 22,3125           13127                           TCF      +2
000103: 22,3126           13137                           TCF      2NDRETRN
000104: 22,3127           11673                           CCS      TTEMP      +1
000105: 22,3130           00002                           TC       Q
000106: 22,3131           13133                           TCF      MANUOFF
000107: 22,3132           40000                           COM
000108: 22,3133           65055        MANUOFF            AD       1SEC
000109: 22,3134           00006                           EXTEND
000110: 22,3135           63137                           BZMF     2NDRETRN
000111: 22,3136           24002                           INCR     Q
000112: 22,3137           24002        2NDRETRN           INCR     Q
000113: 22,3140           24002                           INCR     Q
000114: 22,3141           00002                           TC       Q
000115:
000116: 20,2000                                           SETLOC   MANUSTUF
000117: 20,2000                                           BANK
000118: 20,2065           77776        MANUSTAT           EXIT                                           #  INITIALIZATION ROUTINE
000119: 20,2066           00006                           EXTEND                                         #  FOR AUTOMATIC MANEUVERS
000120: 20,2067           30025                           DCA      TIME2
000121: 20,2070           21717                           DAS      TM                                    #  TM+T0    MANEUVER COMPLETION TIME
000122: 20,2071           45055                           CS       1SEC
000123: 20,2072           54001                           TS       L
000124: 20,2073           45035                           CS       ZERO
000125: 20,2074           21717                           DAS      TM                                    #  (TM+T0)-1
000126: 20,2075           00004                           INHINT
000127: 20,2076           45033                           CS       ONE                                   #  ENABLE AUTOPILOT TO PERFORM
000128: 20,2077           55332                           TS       HOLDFLAG                              #  AUTOMATIC MANEUVERS
000129: 20,2100           41130                           CS       RATEINDX                              #  SEE IF MANEUVERING AT HIGH RATE
000130: 20,2101           66211                           AD       SIX
000131: 20,2102           00006                           EXTEND
000132: 20,2103           62105                           BZMF     HIGHGAIN
000133: 20,2104           12110                           TCF      +4
000134: 20,2105           41501        HIGHGAIN           CS       RCSFLAGS                              #  IF SO, SET HIGH RATE FLAG (BIT 15 OF
000135: 20,2106           75015                           MASK     BIT15                                 #  RCSFLAGS)
000136: 20,2107           27501                           ADS      RCSFLAGS
000137: 20,2110           53711                           DXCH     BRATE                                 #  X-AXIS MANEUVER RATE
000138: 20,2111           53526                           DXCH     WBODY
000139: 20,2112           53713                           DXCH     BRATE      +2                         #  Y-AXIS MANEUVER RATE
000140: 20,2113           53530                           DXCH     WBODY1
000141: 20,2114           53715                           DXCH     BRATE      +4                         #  Z-AXIS MANEUVER RATE
000142: 20,2115           53532                           DXCH     WBODY2
000143: 20,2116           31675                           CA       BIASTEMP   +1                         #  INSERT ATTITUDE ERROR BIASES
000144: 20,2117           55564                           TS       BIAS                                  #  INTO AUTOPILOT
000145: 20,2120           31677                           CA       BIASTEMP   +3
000146: 20,2121           55565                           TS       BIAS1
000147: 20,2122           31701                           CA       BIASTEMP   +5
000148: 20,2123           55566                           TS       BIAS2
000149: 20,2124           30025                           CA       TIME1
000150: 20,2125           65055                           AD       1SEC
000151: 20,2126           57671                           XCH      NEXTIME
000152: 20,2127           04715                           TC       POSTJUMP
000153: 20,2130           45056                           CADR     INCRDCDU   -1
000154:
000155: 20,2131           00004        CONTMANU           INHINT                                         #  CONTINUE WITH UPDATE PROCESS
000156: 20,2132           40025                           CS       TIME1
000157: 20,2133           61671                           AD       NEXTIME
000158: 20,2134           10000                           CCS      A
000159: 20,2135           65033                           AD       ONE
000160: 20,2136           12141                           TCF      MANUCALL
000161: 20,2137           65015                           AD       NEGMAX
000162: 20,2140           40000                           COM
000163: 20,2141           05261        MANUCALL           TC       WAITLIST
000164: 20,2142  E6,1661                                  EBANK=   BCDU
000165: 20,2142           02150 40066                     2CADR    UPDTCALL
000166:
000167: 20,2144           00003                           RELINT
000168: 20,2145           35055                           CAF      1SEC                                  #  INCREMENT TIME FOR NEXT UPDATE
000169: 20,2146           27671                           ADS      NEXTIME
000170: 20,2147           15233                           TCF      ENDOFJOB
000171:
000172:
000173: 20,2150           37663        UPDTCALL           CAF      PRIO26                                #  CALL FOR UPDATE
000174: 20,2151           05163                           TC       FINDVAC                               #  OF STEERING COMMANDS
000175: 20,2152  E6,1661                                  EBANK=   BCDU
000176: 20,2152           03026 44066                     2CADR    NEWDELHI
000177:
000178: 20,2154           05340                           TC       TASKOVER
000179:
000180:                                                                                                  #  ROUTINE FOR TERMINATING AUTOMATIC MANEUVERS
000181:
000182: 21,2000                                           SETLOC   KALCMON3
000183: 21,2000                                           BANK
000184:
000185: 21,2012           04537        MANUSTOP           TC       STOPYZ
000186: 21,2013           04754                           TC       IBNKCALL
000187: 21,2014           45144                           CADR     LOADYZ
000188:
000189: 21,2015           31155        ENDROLL            CA       CPHI
000190: 21,2016           55646                           TS       CDUXD                                 #  SET CDUXD TO THE COMMANDED OUTER GIMBAL
000191: 21,2017           04526                           TC       STOPRATE
000192: 21,2020           31327        ENDMANU            CA       ATTPRIO                               #  RESTORE USERS PRIORITY
000193: 21,2021           54063                           TS       NEWPRIO
000194:
000195: 21,2022           35035                           CA       ZERO                                  #  ZERO ATTCADR
000196: 21,2023           53326                           DXCH     ATTCADR
000197:
000198: 21,2024           05174                           TC       SPVAC                                 #  RETURN TO USER OF GOMANUR
000199:
000200: 21,2025           05340                           TC       TASKOVER
000201:
000202:    4000                                           SETLOC   STOPRAT
000203:    4000                                           BANK
000204:    4526           35035        STOPRATE           CAF      ZERO
000205:    4527           55575                           TS       DELCDUX
000206:    4530           55576                           TS       DELCDUX    +1                         #  ZERO ROLL INCREMENTAL ANGLES
000207:    4531           55525                           TS       WBODY                                 #  RATE
000208:    4532           55526                           TS       WBODY      +1
000209:    4533           55564                           TS       BIAS                                  #  BIAS
000210:
000211:    4534           45015                           CS       BIT15                                 #  MAKE SURE HIGH RATE FLAG (BIT 15 OF
000212:    4535           71501                           MASK     RCSFLAGS                              #  RCSFLAGS) IS RESET.
000213:    4536           55501                           TS       RCSFLAGS
000214:
000215:    4537           35035        STOPYZ             CAF      ZERO
000216:    4540           55577                           TS       DELCDUY                               #  ZERO PITCH, YAW
000217:    4541           55600                           TS       DELCDUY    +1                         #  INCREMENTAL ANGLES
000218:    4542           55601                           TS       DELCDUZ
000219:    4543           55602                           TS       DELCDUZ    +1
000220:    4544           55527                           TS       WBODY1                                #  RATES
000221:    4545           55530                           TS       WBODY1     +1
000222:    4546           55531                           TS       WBODY2
000223:    4547           55532                           TS       WBODY2     +1
000224:    4550           55565                           TS       BIAS1                                 #  BIASES
000225:    4551           55566                           TS       BIAS2
000226:    4552           00002                           TC       Q
000227:
000228: 20,2000                                           SETLOC   MANUSTUF
000229: 20,2000                                           BANK
000230:
000231: 20,2155           30032        ZEROEROR           CA       CDUX                                  #  PICK UP CDU ANGLES AND STORE IN
000232: 20,2156           55646                           TS       CDUXD                                 #  CDU DESIRED
000233: 20,2157           30033                           CA       CDUY
000234: 20,2160           55650                           TS       CDUYD
000235: 20,2161           30034                           CA       CDUZ
000236: 20,2162           55652                           TS       CDUZD
000237: 20,2163           00002                           TC       Q
000238:
000239: 22,2000                                           SETLOC   KALCMON1
000240: 22,2000                                           BANK
000241:
000242: 22,3142           31155        LOADCDUD           CA       CPHI                                  #  STORE TERMINAL ANGLES INTO
000243: 22,3143           55646                           TS       CDUXD                                 #  COMMAND ANGLES
000244: 22,3144           31156        LOADYZ             CA       CTHETA
000245: 22,3145           55650                           TS       CDUYD
000246: 22,3146           31157                           CA       CPSI
000247: 22,3147           55652                           TS       CDUZD
000248: 22,3150           00002                           TC       Q

End of include-file KALCMANU_STEERING.agc.  Parent file is MAIN.agc


