
Source Code


000002:                                                                                                  ## Copyright:   Public domain.
000003:                                                                                                  ## Filename:    KEYRUPT,_UPRUPT.agc
000004:                                                                                                  ## Purpose:     A section of Manche72 revision 3.
000005:                                                                                                  ##              It is part of the reconstructed source code for the final, flown
000006:                                                                                                  ##              release of the software for the Command Module's (CM) Apollo
000007:                                                                                                  ##              Guidance Computer (AGC) for Apollo 13. No original listings
000008:                                                                                                  ##              of this program are available; instead, this file was recreated
000009:                                                                                                  ##              from a reconstructed copy of Comanche 072. It has been adapted
000010:                                                                                                  ##              such that the resulting bugger words exactly match those
000011:                                                                                                  ##              specified for Manche72 revision 3 in NASA drawing 2021153G,
000012:                                                                                                  ##              which gives relatively high confidence that the reconstruction
000013:                                                                                                  ##              is correct.
000014:                                                                                                  ## Assembler:   yaYUL
000015:                                                                                                  ## Contact:     Ron Burkey <info@sandroid.org>.
000016:                                                                                                  ## Website:     www.ibiblio.org/apollo/index.html
000017:                                                                                                  ## Mod history: 2024-05-19 MAS  Created from Comanche 072.
000018:
000019: 14,3765                                           BANK     14
000020: 07,2000                                           SETLOC   KEYRUPT
000021: 07,2000                                           BANK
000022: 07,3673                                           COUNT*   $$/KEYUP
000023:
000024: 07,3673           54016        KEYRUPT1           TS       BANKRUPT
000025: 07,3674           56002                           XCH      Q
000026: 07,3675           54012                           TS       QRUPT
000027: 07,3676           04414                           TC       LODSAMPT                              #  TIME IS SNATCHED IN RUPT FOR NOUN 65.
000028: 07,3677           34362                           CAF      LOW5
000029: 07,3700           00006                           EXTEND
000030: 07,3701           02015                           RAND     MNKEYIN                               #  CHECK IF KEYS 5M-1M ON
000031: 07,3702           54073        KEYCOM             TS       RUPTREG4
000032: 07,3703           40101                           CS       FLAGWRD5
000033: 07,3704           75015                           MASK     BIT15
000034: 07,3705           26101                           ADS      FLAGWRD5
000035:
000036: 07,3706           34371        ACCEPTUP           CAF      CHRPRIO                               #  (NOTE: RUPTREG4 = KEYTEMP1)
000037: 07,3707           05150                           TC       NOVAC
000038: 07,3710     0777                                  EBANK=   DSPCOUNT
000039: 07,3710           02000 60101                     2CADR    CHARIN
000040:
000041: 07,3712           30073                           CA       RUPTREG4
000042: 07,3713           50064                           INDEX    LOCCTR
000043: 07,3714           54154                           TS       MPAC                                  #  LEAVE 5 BIT KEY CDE IN MPAC FOR CHARIN
000044: 07,3715           05347                           TC       RESUME
000045:
000046:                                                                                                  #  UPRUPT PROGRAM
000047:
000048: 07,3716           54016        UPRUPT             TS       BANKRUPT
000049: 07,3717           56002                           XCH      Q
000050: 07,3720           54012                           TS       QRUPT
000051: 07,3721           04414                           TC       LODSAMPT                              #  TIME IS SNATCHED IN RUPT FOR NOUN 65.
000052: 07,3722           35035                           CAF      ZERO
000053: 07,3723           56045                           XCH      INLINK
000054: 07,3724           54073                           TS       KEYTEMP1
000055: 07,3725           35031                           CAF      BIT3                                  #  TURN ON UPACT LIGHT
000056: 07,3726           00006                           EXTEND                                         #  (BIT 3 OF CHANNEL 11)
000057: 07,3727           05011                           WOR      DSALMOUT
000058: 07,3730           34362        UPRPT1             CAF      LOW5                                  #  TEST FOR TRIPLE CHAR REDUNDANCY
000059: 07,3731           70073                           MASK     KEYTEMP1                              #  LOW5 OF WORD
000060: 07,3732           56073                           XCH      KEYTEMP1                              #  LOW5 INTO KEYTEMP1
000061: 07,3733           00006                           EXTEND
000062: 07,3734           75022                           MP       BIT10                                 #  SHIFT RIGHT 5
000063: 07,3735           54734                           TS       KEYTEMP2
000064: 07,3736           74362                           MASK     LOW5                                  #  MID 5
000065: 07,3737           63773                           AD       HI10
000066: 07,3740           03770                           TC       UPTEST
000067: 07,3741           35022                           CAF      BIT10
000068: 07,3742           00006                           EXTEND
000069: 07,3743           70734                           MP       KEYTEMP2                              #  SHIFT RIGHT 5
000070: 07,3744           74362                           MASK     LOW5                                  #  HIGH 5
000071: 07,3745           40000                           COM
000072: 07,3746           03770                           TC       UPTEST
000073:
000074: 07,3747           43776        UPOK               CS       ELRCODE                               #  CODE IS GOOD.  IF CODE = 'ERROR RESET',
000075: 07,3750           60073                           AD       KEYTEMP1                              #  CLEAR UPLOCKFL (SET BIT4 OF FLAGWRD7 = 0)
000076: 07,3751           00006                           EXTEND                                         #  IF CODE DOES NOT = 'ERROR RESET', ACCEPT
000077: 07,3752           13760                           BZF      CLUPLOCK                              #  CODE ONLY IF UPLOCKFL IS CLEAR (=0).
000078:
000079: 07,3753           35030                           CAF      BIT4                                  #  TEST UPLOCKFL FOR 0 OR 1.
000080: 07,3754           70103                           MASK     FLAGWRD7
000081: 07,3755           10000                           CCS      A
000082: 07,3756           05347                           TC       RESUME                                #  UPLOCKFL = 1
000083: 07,3757           03706                           TC       ACCEPTUP                              #  UPLOCKFL = 0
000084:
000085: 07,3760           45030        CLUPLOCK           CS       BIT4                                  #  CLEAR UPLOCKFL (I.E., SET BIT 4 OF
000086: 07,3761           70103                           MASK     FLAGWRD7                              #  FLAGWRD7 = 0)
000087: 07,3762           54103                           TS       FLAGWRD7
000088: 07,3763           03706                           TC       ACCEPTUP
000089:
000090:                                                                                                  #  CODE IS BAD
000091: 07,3764           40103        TMFAIL2            CS       FLAGWRD7                              #  LOCK OUT FURTHER UPLINK ACTIVITY
000092: 07,3765           75030                           MASK     BIT4                                  #  (BY SETTING UPLOCKFL = 1) UNTIL
000093: 07,3766           26103                           ADS      FLAGWRD7                              #  'ERROR RESET' IS SENT VIA UPLINK.
000094: 07,3767           05347                           TC       RESUME
000095: 07,3770           60073        UPTEST             AD       KEYTEMP1
000096: 07,3771           10000                           CCS      A
000097: 07,3772           03764                           TC       TMFAIL2
000098: 07,3773           77740        HI10               OCT      77740
000099: 07,3774           03764                           TC       TMFAIL2
000100: 07,3775           00002                           TC       Q
000101:
000102: 07,3776           00022        ELRCODE            OCT      22
000103:
000104:                                                                                                  #  'UPLINK ACTIVITY LIGHT' IS TURNED OFF BY .....
000105:                                                                                                  #        1.      VBRELDSP
000106:                                                                                                  #        2.      ERROR RESET
000107:                                                                                                  #        3.      UPDATE PROGRAM (P27) ENTERED BY V70,V71,V72, AND V73.
000108:
000109:                                                                                                  #                                     -
000110:                                                                                                  #  THE RECEPTION OF A BAD CODE (I.E  CCC FAILURE) LOCKS OUT FURTHER UPLINK ACTIVITY BY SETTING BIT4 OF FLAGWRD7 = 1.
000111:                                                                                                  #  THIS INDICATION WILL BE TRANSFERRED TO THE GROUND BY THE DOWNLINK WHICH DOWNLINKS ALL FLAGWORDS.
000112:                                                                                                  #  WHEN UPLINK ACTIVITY IS LOCKED OUT, IT CAN BE ALLOWED WHEN THE GROUND UPLINKS AND 'ERROR RESET' CODE.
000113:                                                                                                  #  (IT IS RECOMMENDED THAT THE 'ERROR LIGHT RESET' CODE IS PRECEEDED BY 16 BITS THE FIRST OF WHICH IS 1 FOLLOWED
000114:                                                                                                  #  BY 15 ZEROES.  THIS WILL ELIMINATE EXTRANEOUS BITS FROM INLINK WHICH MAY HAVE BEEN LEFT OVER FROM THE ORIGINAL
000115:                                                                                                  #  FAILURE)
000116:
000117:                                                                                                  #  UPLINK ACTIVITY IS ALSO ALLOWED (UNLOCKED) DURING FRESH START WHEN FRESH START SETS BIT4 OF FLAGWRD7 = 0.
000118:
000119:

End of include-file KEYRUPT,_UPRUPT.agc.  Parent file is MAIN.agc


