
Source Code


000002:                                                                                                  ## Copyright:   Public domain.
000003:                                                                                                  ## Filename:    MYSUBS.agc
000004:                                                                                                  ## Purpose:     A section of Manche72 revision 3.
000005:                                                                                                  ##              It is part of the reconstructed source code for the final, flown
000006:                                                                                                  ##              release of the software for the Command Module's (CM) Apollo
000007:                                                                                                  ##              Guidance Computer (AGC) for Apollo 13. No original listings
000008:                                                                                                  ##              of this program are available; instead, this file was recreated
000009:                                                                                                  ##              from a reconstructed copy of Comanche 072. It has been adapted
000010:                                                                                                  ##              such that the resulting bugger words exactly match those
000011:                                                                                                  ##              specified for Manche72 revision 3 in NASA drawing 2021153G,
000012:                                                                                                  ##              which gives relatively high confidence that the reconstruction
000013:                                                                                                  ##              is correct.
000014:                                                                                                  ## Assembler:   yaYUL
000015:                                                                                                  ## Contact:     Ron Burkey <info@sandroid.org>.
000016:                                                                                                  ## Website:     www.ibiblio.org/apollo/index.html
000017:                                                                                                  ## Mod history: 2024-05-19 MAS  Created from Comanche 072.
000018:
000019: 20,3650                                           BANK     20
000020: 21,2000                                           SETLOC   MYSUBS
000021: 21,2000                                           BANK
000022:
000023: 21,2054  E6,1510                                  EBANK=   KMPAC
000024: 21,2054     5110               SPCOS1             EQUALS   SPCOS
000025: 21,2054     5111               SPSIN1             EQUALS   SPSIN
000026: 21,2054     5110               SPCOS2             EQUALS   SPCOS
000027: 21,2054     5111               SPSIN2             EQUALS   SPSIN
000028:
000029: 21,2054                                           COUNT    21/DAPMS
000030:
000031:                                                                                                  #  ONE AND ONE HALF PRECISION MULTIPLICATION ROUTINE
000032:
000033: 21,2054           55512        SMALLMP            TS       KMPTEMP                               #  A(X+Y)
000034: 21,2055           00006                           EXTEND
000035: 21,2056           71511                           MP       KMPAC      +1
000036: 21,2057           55511                           TS       KMPAC      +1                         #  AY
000037: 21,2060           35035                           CAF      ZERO
000038: 21,2061           57510                           XCH      KMPAC
000039: 21,2062           00006                           EXTEND
000040: 21,2063           71512                           MP       KMPTEMP                               #  AX
000041: 21,2064           21511                           DAS      KMPAC                                 #  AX+AY
000042: 21,2065           00002                           TC       Q
000043:
000044:                                                                                                  #  SUBROUTINE FOR DOUBLE PRECISION ADDITIONS OF ANGLES
000045:                                                                                                  #  A AND L CONTAIN A DP(1S) ANGLE SCALED BY 180 DEGS TO BE ADDED TO KMPAC.
000046:                                                                                                  #  RESULT IS PLACED IN KMPAC.  TIMING = 6 MCT (22 MCT ON OVERFLOW)
000047:
000048: 21,2066           21511        DPADD              DAS      KMPAC
000049: 21,2067           00006                           EXTEND
000050: 21,2070           12105                           BZF      TSK        +1                         #  NO OVERFLOW
000051: 21,2071           11510                           CCS      KMPAC
000052: 21,2072           12106                           TCF      DPADD+                                #  + OVERFLOW
000053: 21,2073           12075                           TCF      +2
000054: 21,2074           12110                           TCF      DPADD-                                #  - OVERFLOW
000055: 21,2075           11511                           CCS      KMPAC      +1
000056: 21,2076           12113                           TCF      DPADD2+                               #  UPPER = 0, LOWER +
000057: 21,2077           12101                           TCF      +2
000058: 21,2100           40000                           COM                                            #  UPPER = 0, LOWER -
000059: 21,2101           65013                           AD       POSMAX                                #  LOWER = 0, A = 0
000060: 21,2102           55511                           TS       KMPAC      +1                         #  CAN NOT OVERFLOW
000061: 21,2103           35013                           CA       POSMAX                                #  UPPER WAS = 0
000062: 21,2104           55510        TSK                TS       KMPAC
000063: 21,2105           00002                           TC       Q
000064:
000065: 21,2106           65015        DPADD+             AD       NEGMAX                                #  KMPAC GREATER THAN 0
000066: 21,2107           12104                           TCF      TSK
000067:
000068: 21,2110           40000        DPADD-             COM
000069: 21,2111           65013                           AD       POSMAX                                #  KMPAC LESS THAN 0
000070: 21,2112           12104                           TCF      TSK
000071:
000072: 21,2113           65015        DPADD2+            AD       NEGMAX                                #  CAN NOT OVERFLOW
000073: 21,2114           55511                           TS       KMPAC      +1
000074: 21,2115           35015                           CA       NEGMAX                                #  UPPER WAS = 0
000075: 21,2116           12104                           TCF      TSK

End of include-file MYSUBS.agc.  Parent file is MAIN.agc


