
Source Code


000002:                                                                                                  ## Copyright:   Public domain.
000003:                                                                                                  ## Filename:    ORBITAL_INTEGRATION.agc
000004:                                                                                                  ## Purpose:     A section of Manche72 revision 3.
000005:                                                                                                  ##              It is part of the reconstructed source code for the final, flown
000006:                                                                                                  ##              release of the software for the Command Module's (CM) Apollo
000007:                                                                                                  ##              Guidance Computer (AGC) for Apollo 13. No original listings
000008:                                                                                                  ##              of this program are available; instead, this file was recreated
000009:                                                                                                  ##              from a reconstructed copy of Comanche 072. It has been adapted
000010:                                                                                                  ##              such that the resulting bugger words exactly match those
000011:                                                                                                  ##              specified for Manche72 revision 3 in NASA drawing 2021153G,
000012:                                                                                                  ##              which gives relatively high confidence that the reconstruction
000013:                                                                                                  ##              is correct.
000014:                                                                                                  ## Assembler:   yaYUL
000015:                                                                                                  ## Contact:     Ron Burkey <info@sandroid.org>.
000016:                                                                                                  ## Website:     www.ibiblio.org/apollo/index.html
000017:                                                                                                  ## Mod history: 2024-05-19 MAS  Created from Comanche 072.
000018:
000019:                                                                                                  #  DELETE
000020: 13,3720                                           BANK     13
000021: 11,2000                                           SETLOC   ORBITAL
000022: 11,2000                                           BANK
000023: 11,2321                                           COUNT    11/ORBIT
000024:
000025:                                                                                                  #  DELETE
000026: 11,2321           40354        KEPPREP            LXA,2    SETPD
000027: 11,2322           02150                                    PBODY
000028: 11,2323           00001                                    0
000029: 11,2324           75543                           DLOAD*   SQRT                                  #  SQRT(MU) (+18 OR +15)         0D      PL 2D
000030: 11,2325           50036                                    MUEARTH,2
000031: 11,2326           53515                           PDVL     UNIT                                  #                                        PL 8D
000032: 11,2327           01535                                    RCV
000033: 11,2330           60325                           PDDL     NORM                                  #  NORM R (+29 OR +27 - N1)      2D      PL 4D
000034: 11,2331           00045                                    36D
000035: 11,2332           00047                                    X1
000036: 11,2333           77715                           PDVL
000037: 11,2334           65241                           DOT      PDDL                                  #  F*SQRT(MU) (+7 OR +5)         4D      PL 6D
000038: 11,2335           01543                                    VCV
000039: 11,2336           02312                                    TAU.                                  #  (+28)
000040: 11,2337           60225                           DSU      NORM
000041: 11,2340           01551                                    TC
000042: 11,2341           00051                                    S1
000043: 11,2342           77742                           SR1
000044: 11,2343           65271                           DDV      PDDL
000045: 11,2344           00003                                    2D
000046: 11,2345           41405                           DMP      PUSH                                  #  FS (+6 +N1-N2)                6D      PL 8D
000047: 11,2346           00005                                    4D
000048: 11,2347           65316                           DSQ      PDDL                                  #  (FS)SQ (+12 +2(N1-N2))        8D      PL 10D
000049: 11,2350           00005                                    4D
000050: 11,2351           64716                           DSQ      PDDL*                                 #  SSQ/MU (-2 OR +2(N1-N2))      10D     PL 12D
000051: 11,2352           50036                                    MUEARTH,2
000052: 11,2353           40442                           SR3      SR4
000053: 11,2354           47515                           PDVL     VSQ                                   #  PREALIGN MU (+43 OR +37)      12D     PL 14D
000054: 11,2355           01543                                    VCV
000055: 11,2356           44205                           DMP      BDSU                                  #                                        PL 12D
000056: 11,2357           00045                                    36D
000057: 11,2360           41271                           DDV      DMP                                   #                                        PL 10D
000058: 11,2361           00003                                    2D                                    #  -(1/R-ALPHA) (+12 +3N1-2N2)
000059: 11,2362           53605                           DMP      SL*
000060: 11,2363           23756                                    DP2/3
000061: 11,2364           20176                                    0          -3,1                       #  10L(1/R-ALPHA) (+13 +2(N1-N2))
000062: 11,2365           43260                           XSU,1    DAD                                   #  2(FS)SQ - ETCETRA                     PL 8D
000063: 11,2366           00050                                    S1                                    #  X1 = N2-N1
000064: 11,2367           45257                           SL*      DSU                                   #  -FS+2(FS)SQ ETC (+6 +N1-N2)           PL 6D
000065: 11,2370           20211                                    8D,1
000066: 11,2371           41205                           DMP      DMP
000067: 11,2372           00001                                    0D
000068: 11,2373           00005                                    4D
000069: 11,2374           53657                           SL*      SL*
000070: 11,2375           20211                                    8D,1
000071: 11,2376           20201                                    0,1                                   #  S(-FS(1-2FS)-1/6...) (+17 OR +16)
000072: 11,2377           65215                           DAD      PDDL                                  #                                        PL 6D
000073: 11,2400           01553                                    XKEP
000074: 11,2401           53605                           DMP      SL*                                   #  S(+17 OR +16)
000075: 11,2402           00001                                    0D
000076: 11,2403           20202                                    1,1
000077: 11,2404           43204                           BOVB     DAD
000078: 11,2405           57353                                    TCDANZIG
000079: 11,2406           77626                           STADR
000080: 11,2407           75471                           STORE    XKEPNEW
000081: 11,2410           74020                           STQ      AXC,1
000082: 11,2411           02270                                    KEPRTN
000083: 11,2412           00012                           DEC      10         B-14
000084: 11,2413           74014                           BON      AXC,1
000085: 11,2414           00303                                    MOONFLAG
000086: 11,2415           24042                                    KEPLERN
000087: 11,2416           00002                           DEC      2          B-14
000088: 11,2417           77650                           GOTO
000089: 11,2420           24042                                    KEPLERN
000090:
000091: 11,2421           66350        FBR3               LXA,1    SSP
000092: 11,2422           01500                                    DIFEQCNT
000093: 11,2423           00051                                    S1
000094: 11,2424           77762                           DEC      -13        B-14
000095: 11,2425           54345                           DLOAD    SR
000096: 11,2426           02314                                    DT/2
000097: 11,2427           20612                                    9D
000098: 11,2430           61500                           TIX,1    ROUND
000099: 11,2431           22432                                    +1
000100: 11,2432           43206                           PUSH     DAD
000101: 11,2433           01551                                    TC
000102: 11,2434           16312                           STODL    TAU.
000103: 11,2435           77615                           DAD
000104: 11,2436           01517                                    TET
000105: 11,2437           35517                           STCALL   TET
000106: 11,2440           22321                                    KEPPREP
000107:
000108:                                                                                                  #  AGC ROUTINE TO COMPUTE ACCELERATION COMPONENTS.
000109:
000110: 11,2441           73150        ACCOMP             LXA,1    LXA,2
000111: 11,2442           02150                                    PBODY
000112: 11,2443           02150                                    PBODY
000113: 11,2444           77775                           VLOAD
000114: 11,2445           11566                                    ZEROVEC
000115: 11,2446           26202                           STOVL    FV
000116: 11,2447           02152                                    ALPHAV
000117: 11,2450           53257                           VSL*     VAD
000118: 11,2451           57605                                    0          -7,2
000119: 11,2452           01535                                    RCV
000120: 11,2453           02160                           STORE    BETAV
000121: 11,2454           65014                           BOF      XCHX,2
000122: 11,2455           01756                                    DIM0FLAG
000123: 11,2456           22463                                    +5
000124: 11,2457           01500                                    DIFEQCNT
000125: 11,2460           12217                           STORE    VECTAB,2
000126: 11,2461           77724                           XCHX,2
000127: 11,2462           01500                                    DIFEQCNT
000128: 11,2463           53575                           VLOAD    UNIT
000129: 11,2464           02152                                    ALPHAV
000130: 11,2465           16152                           STODL    ALPHAV
000131: 11,2466           00045                                    36D
000132: 11,2467           02310                           STORE    ALPHAM
000133: 11,2470           77624                           CALL
000134: 11,2471           22565                                    GAMCOMP
000135: 11,2472           66175                           VLOAD    SXA,1
000136: 11,2473           02160                                    BETAV
000137: 11,2474           00051                                    S2
000138: 11,2475           16152                           STODL    ALPHAV
000139: 11,2476           02210                                    BETAM
000140: 11,2477           02310                           STORE    ALPHAM
000141: 11,2500           71214                           BOF      DLOAD
000142: 11,2501           00342                                    MIDFLAG
000143: 11,2502           22737                                    OBLATE
000144: 11,2503           01517                                    TET
000145: 11,2504           77624                           CALL
000146: 11,2505           54110                                    LSPOS
000147: 11,2506           72174                           AXT,2    LXA,1
000148: 11,2507           00002                                    2
000149: 11,2510           00051                                    S2
000150: 11,2511           77614                           BOF
000151: 11,2512           00343                                    MOONFLAG
000152: 11,2513           22516                                    +3
000153: 11,2514           77076                           VCOMP    AXT,2
000154: 11,2515           00000                                    0
000155: 11,2516           02160                           STORE    BETAV
000156: 11,2517           26263                           STOVL    RPQV
000157: 11,2520           00003                                    2D
000158: 11,2521           02300                           STORE    RPSV
000159: 11,2522           77214                           BOF      VLOAD
000160: 11,2523           01756                                    DIM0FLAG
000161: 11,2524           22537                                    GETRPSV
000162: 11,2525           02152                                    ALPHAV
000163: 11,2526           53761                           VXSC     VSR*
000164: 11,2527           02310                                    ALPHAM
000165: 11,2530           57175                                    1,2
000166: 11,2531           65051                           VSU      XCHX,2
000167: 11,2532           02160                                    BETAV
000168: 11,2533           01500                                    DIFEQCNT
000169: 11,2534           12225                           STORE    VECTAB     +6,2
000170: 11,2535           77724                           XCHX,2
000171: 11,2536           01500                                    DIFEQCNT
000172: 11,2537           62175        GETRPSV            VLOAD    INCR,1
000173: 11,2540           02263                                    RPQV
000174: 11,2541           00004                                    4
000175: 11,2542           43014                           CLEAR    BOF
000176: 11,2543           04260                                    RPQFLAG
000177: 11,2544           00343                                    MOONFLAG
000178: 11,2545           22552                                    +5
000179: 11,2546           53261                           VSR      VAD
000180: 11,2547           20612                                    9D
000181: 11,2550           02300                                    RPSV
000182: 11,2551           02300                           STORE    RPSV
000183: 11,2552           77624                           CALL
000184: 11,2553           22565                                    GAMCOMP
000185: 11,2554           62174                           AXT,2    INCR,1
000186: 11,2555           00004                                    4
000187: 11,2556           00004                                    4
000188: 11,2557           77775                           VLOAD
000189: 11,2560           02300                                    RPSV
000190: 11,2561           36160                           STCALL   BETAV
000191: 11,2562           22565                                    GAMCOMP
000192: 11,2563           77650                           GOTO
000193: 11,2564           22737                                    OBLATE
000194: 11,2565           74575        GAMCOMP            VLOAD    VSR1
000195: 11,2566           02160                                    BETAV
000196: 11,2567           40236                           VSQ      SETPD
000197: 11,2570           00001                                    0
000198: 11,2571           61501                           NORM     ROUND
000199: 11,2572           00040                                    31D
000200: 11,2573           60325                           PDDL     NORM                                  #  NORMED B SQUARED TO PD LIST
000201: 11,2574           02310                                    ALPHAM                                #  NORMALIZE (LESS ONE) LENGTH OF ALPHA
000202: 11,2575           00041                                    32D                                   #  SAVING NORM SCALE FACTOR IN X1
000203: 11,2576           63342                           SR1      PDVL
000204: 11,2577           02160                                    BETAV                                 #  C(PDL+2) = ALMOST NORMED ALPHA
000205: 11,2600           77656                           UNIT
000206: 11,2601           16160                           STODL    BETAV
000207: 11,2602           00045                                    36D
000208: 11,2603           02210                           STORE    BETAM
000209: 11,2604           55301                           NORM     BDDV                                  #  FORM NORMALIZED QUOTIENT ALPHAM/BETAM
000210: 11,2605           00042                                    33D
000211: 11,2606           41562                           SR1R     PUSH                                  #  C(PDL+2) = ALMOST NORMALIZED RHO.
000212: 11,2607           77743                           DLOAD*
000213: 11,2610           27733                                    ASCALE,1
000214: 11,2611           00051                           STORE    S1
000215: 11,2612           57124                           XCHX,2   XAD,2
000216: 11,2613           00050                                    S1
000217: 11,2614           00040                                    32D
000218: 11,2615           71264                           XSU,2    DLOAD
000219: 11,2616           00041                                    33D
000220: 11,2617           00003                                    2D
000221: 11,2620           65057                           SR*      XCHX,2
000222: 11,2621           57177                                    0          -1,2
000223: 11,2622           00050                                    S1
000224: 11,2623           74406                           PUSH     SR1R                                  #  RHO/4 TO 4D
000225: 11,2624           50315                           PDVL     DOT
000226: 11,2625           02152                                    ALPHAV
000227: 11,2626           02160                                    BETAV
000228: 11,2627           44372                           SL1R     BDSU                                  #  (RHO/4) - 2(ALPHAV/2.BETAV/2)
000229: 11,2630           57206                           PUSH     DMPR                                  #  TO PDL+6
000230: 11,2631           00005                                    4
000231: 11,2632           77752                           SL1
000232: 11,2633           43206                           PUSH     DAD
000233: 11,2634           23740                                    DQUARTER
000234: 11,2635           75406                           PUSH     SQRT
000235: 11,2636           41475                           DMPR     PUSH
000236: 11,2637           00013                                    10D
000237: 11,2640           43352                           SL1      DAD
000238: 11,2641           23740                                    DQUARTER
000239: 11,2642           43325                           PDDL     DAD                                   #  (1/4)+2((Q+1)/4)      TO PD+14D
000240: 11,2643           00013                                    10D
000241: 11,2644           11564                                    HALFDP
000242: 11,2645           72475                           DMPR     SL1
000243: 11,2646           00011                                    8D
000244: 11,2647           56215                           DAD      DDV
000245: 11,2650           23732                                    THREE/8
000246: 11,2651           00017                                    14D
000247: 11,2652           74275                           DMPR     VXSC
000248: 11,2653           00007                                    6
000249: 11,2654           02160                                    BETAV                                 #                -
000250: 11,2655           64515                           PDVL     VSR3                                  #  (G/2)(C(PD+4))B/2 TO PD+16D
000251: 11,2656           02152                                    ALPHAV
000252: 11,2657           41455                           VAD      PUSH                                  #  A12 + C(PD+16D) TO PD+16D
000253: 11,2660           41345                           DLOAD    DMP
000254: 11,2661           00001                                    0
000255: 11,2662           00015                                    12D                                   #  -
000256: 11,2663           61501                           NORM     ROUND
000257: 11,2664           00037                                    30D
000258: 11,2665           40665                           BDDV     DMP*
000259: 11,2666           00003                                    2
000260: 11,2667           50036                                    MUEARTH,2
000261: 11,2670           74276                           DCOMP    VXSC
000262: 11,2671           57124                           XCHX,2   XAD,2
000263: 11,2672           00050                                    S1
000264: 11,2673           00051                                    S2
000265: 11,2674           55064                           XSU,2    XSU,2
000266: 11,2675           00036                                    30D
000267: 11,2676           00037                                    31D
000268: 11,2677           77600                           BOV                                            #  CLEAR OVIND
000269: 11,2700           22701                                    +1
000270: 11,2701           65057                           VSR*     XCHX,2
000271: 11,2702           57177                                    0          -1,2
000272: 11,2703           00050                                    S1
000273: 11,2704           77655                           VAD
000274: 11,2705           02202                                    FV
000275: 11,2706           02202                           STORE    FV
000276: 11,2707           43400                           BOV      RVQ                                   #  RETURN IF NO OVERFLOW
000277: 11,2710           22711                                    +1
000278: 11,2711           51575        GOBAQUE            VLOAD    ABVAL
000279: 11,2712           01521                                    TDELTAV
000280: 11,2713           77654                           BZE
000281: 11,2714           22734                                    INT-ABRT
000282: 11,2715           54345                           DLOAD    SR
000283: 11,2716           02212                                    H
000284: 11,2717           20612                                    9D
000285: 11,2720           44206                           PUSH     BDSU
000286: 11,2721           01551                                    TC
000287: 11,2722           16312                           STODL    TAU.
000288: 11,2723           01517                                    TET
000289: 11,2724           45425                           DSU      STADR
000290: 11,2725           42260                           STCALL   TET
000291: 11,2726           22321                                    KEPPREP
000292: 11,2727           77624                           CALL
000293: 11,2730           23403                                    RECTIFY
000294: 11,2731           77614                           SETGO
000295: 11,2732           04020                                    RPQFLAG
000296: 11,2733           27314                                    TESTLOOP
000297:
000298: 11,2734           77776        INT-ABRT           EXIT
000299: 11,2735           05725                           TC       POODOO
000300: 11,2736           20430                           OCT      20430                                 #  SUB-SURFACE STATE VECTOR
000301:
000302:                                                                                                  #  THE OBLATE ROUTINE COMPUTES THE ACCELERATION DUE TO OBLATENESS.  IT USES THE UNIT OF THE VEHICLE
000303:                                                                                                  #  POSITION VECTOR FOUND IN ALPHAV AND THE DISTANCE TO THE CENTER IN ALPHAM.  THIS IS ADDED TO THE SUM OF THE
000304:                                                                                                  #  DISTURBING ACCELERATIONS IN FV AND THE PROPER DIFEQ STAGE IS CALLED VIA X1.
000305:
000306: 11,2737           71354        OBLATE             LXA,2    DLOAD
000307: 11,2740           02150                                    PBODY
000308: 11,2741           02310                                    ALPHAM
000309: 11,2742           44601                           SETPD    DSU*
000310: 11,2743           00001                                    0
000311: 11,2744           50006                                    RDE,2
000312: 11,2745           43044                           BPL      BOF                                   #  GET URPV
000313: 11,2746           23175                                    NBRANCH
000314: 11,2747           00343                                    MOONFLAG
000315: 11,2750           23204                                    COSPHIE
000316: 11,2751           65375                           VLOAD    PDDL
000317: 11,2752           02152                                    ALPHAV
000318: 11,2753           01517                                    TET
000319: 11,2754           45125                           PDDL     CALL
000320: 11,2755           23730                                    3/5
000321: 11,2756           55370                                    R-TO-RP
000322: 11,2757           24017                           STOVL    URPV                                  #  RP/R  B-1     IN PLANETARY COORDINATES
000323: 11,2760           11560                                    ZUNIT
000324: 11,2761           45006                           PUSH     CALL                                  #  ZUNIT B-1     IN PLANETARY COORDL      AT 00D
000325: 11,2762           23212                                    MATRIX
000326: 11,2763           77715                           PDVL                                           #  UZ    B-2     IN INERT COORD           AT 00D
000327: 11,2764           11564                                    XUNIT
000328: 11,2765           45006                           PUSH     CALL                                  #  XUNIT B-1     IN PLANETARY COORD.      AT 06D
000329: 11,2766           23212                                    MATRIX
000330: 11,2767           77772                           VSL1
000331: 11,2770           24041                           STOVL    32D                                   #  UX    B-1     IN INERT. COORD          AT 32D
000332: 11,2771           77772                           VSL1
000333: 11,2772           14025        COMTERM            STODL    UZ                                    #  UZ    B-1     IN INERTIAL COORD        AT 20D
000334: 11,2773           00023                                    COSPHI/2                              #   '            Z-COMPONENT OF URPV
000335: 11,2774           65275                           DMPR     PDDL                                  #  P     B-6      ,  3COSPHI/64           AT 00D
000336: 11,2775           23742                                    3/32                                  #   2
000337: 11,2776           00023                                    COSPHI/2
000338: 11,2777           57316                           DSQ      DMPR
000339: 11,3000           23744                                    15/16                                 #   '                            2
000340: 11,3001           41425                           DSU      PUSH                                  #  P     B-5      ,(1/2)(15COSPHI -3)     AT 02D
000341: 11,3002           23736                                    3/64                                  #   3
000342: 11,3003           41275                           DMPR     DMP
000343: 11,3004           00023                                    COSPHI/2
000344: 11,3005           23750                                    7/12
000345: 11,3006           65372                           SL1R     PDDL
000346: 11,3007           00001                                    0D
000347: 11,3010           44275                           DMPR     BDSU
000348: 11,3011           23756                                    2/3                                   #   '                             '    '
000349: 11,3012           57206                           PUSH     DMPR                                  #  P     B-7      ,(1/3)(7COSPHI P  -4P ) AT 04D
000350: 11,3013           00023                                    COSPHI/2                              #   4                             3    2
000351: 11,3014           65275                           DMPR     PDDL
000352: 11,3015           23752                                    9/16
000353: 11,3016           00003                                    2D                                    #   '                             '    '
000354: 11,3017           44275                           DMPR     BDSU                                  #  P     B-10     ,(1/4)(9COSPHI P  -5P )
000355: 11,3020           23754                                    5/128                                 #   5                             4    3
000356: 11,3021           56203                           DMP*     DDV                                   #                             '
000357: 11,3022           50032                                    J4REQ/J3,2                            #        B-       ,(J RP/J R)P
000358: 11,3023           02310                                    ALPHAM
000359: 11,3024           56615                           DAD      DMPR*
000360: 11,3025           00005                                    4D                                    #                2     2  '              '
000361: 11,3026           50026                                    2J3RE/J2,2                            #      B  ,(2J RP /J2 R )P  +(2J RP/J2R)P
000362: 11,3027           43271                           DDV      DAD                                   #             4           5     3        4
000363: 11,3030           02310                                    ALPHAM                                #     -        2 '  2         '        '
000364: 11,3031           00003                                    2D                                    #    (R/R)(J RP P /R + 2J RP P /  + J P )
000365: 11,3032           77761                           VXSC                                           #           4    5       3    4  2   2 3
000366: 11,3033           02152                                    ALPHAV                                #            4       2  '           -
000367: 11,3034           14033                           STODL    TVEC                                  #      B-6,(SUM((J /R )P   (COSPHI))UR)
000368: 11,3035           70403                           DMP*     SR1                                   #           I=2   I     I+1
000369: 11,3036           50032                                    J4REQ/J3,2                            #                    '
000370: 11,3037           43271                           DDV      DAD                                   #         (J RP/J R)P
000371: 11,3040           02310                                    ALPHAM                                #           4    3   4
000372: 11,3041           50473                           DMPR*    SR3                                   #              2    2  '              '
000373: 11,3042           50026                                    2J3RE/J2,2                            #        (2J RP /J R )P  +(2J RP/J R)P
000374: 11,3043           43271                           DDV      DAD                                   #           4     2    4     3    2   3
000375: 11,3044           02310                                    ALPHAM
000376: 11,3045           76561                           VXSC     VSL1                                  #            4   '        -
000377: 11,3046           00025                                    UZ                                    #      B-6  SUM(P(COSPHI))UZ
000378: 11,3047           77645                           BVSU                                           #           I=2  I
000379: 11,3050           00033                                    TVEC                                  #    4              I-2   '          -
000380: 11,3051           14033                           STODL    TVEC                                  #  SUM((MU J (RP/R)   )(P   (COSPHI)UR -
000381: 11,3052           02310                                    ALPHAM                                #  I=2      I            I+2
000382: 11,3053           63501                           NORM     DSQ                                   #              P (COSPHI)UZ))    B-6     AT 20D
000383: 11,3054           00047                                    X1                                    #               I
000384: 11,3055           60316                           DSQ      NORM
000385: 11,3056           00051                                    S1                                    #          4
000386: 11,3057           54606                           PUSH     BDDV*                                 #  NORMED R  TO 0D
000387: 11,3060           50022                                    J2REQSQ,2
000388: 11,3061           40161                           VXSC     BOV
000389: 11,3062           00033                                    TVEC
000390: 11,3063           23064                                    +1                                    #  (RESET OVERFLOW INDICATOR)
000391: 11,3064           56070                           XAD,1    XAD,1
000392: 11,3065           00046                                    X1
000393: 11,3066           00046                                    X1
000394: 11,3067           53670                           XAD,1    VSL*
000395: 11,3070           00050                                    S1
000396: 11,3071           20153                                    0          -22D,1
000397: 11,3072           40055                           VAD      BOV
000398: 11,3073           02202                                    FV
000399: 11,3074           22711                                    GOBAQUE
000400: 11,3075           16202                           STODL    FV                                    #   B+16 FOR EARTH , B+20 FOR MOON
000401: 11,3076           00017                                    URPV                                  #   B-1  X-COMPONENT OF POSITION  IN
000402: 11,3077           41414                           BOF      PUSH                                  #             PLANETORY COORD.      AT 02D
000403: 11,3100           00343                                    MOONFLAG
000404: 11,3101           23175                                    NBRANCH                               #          2
000405: 11,3102           65316                           DSQ      PDDL                                  #   B-2   X                         AT 04D
000406: 11,3103           00021                                    URPV       +2                         #   B-1  Y-COMPONENT
000407: 11,3104           45316                           DSQ      DSU
000408: 11,3105           74205                           DMP      VXSC
000409: 11,3106           27757                                    5/8                                   #           2  2 -
000410: 11,3107           02152                                    ALPHAV                                #   B-6  5(Y -X )UR    2  2 -
000411: 11,3110           65332                           VSL3     PDDL                                  #   B-3             5(Y -X )UR      AT 02D
000412: 11,3111           53361                           VXSC     VAD
000413: 11,3112           00041                                    32D                                   #         2  2 -   2         -
000414: 11,3113           47315                           PDVL     VXV                                   #     (5(Y.-X )UR/R ) +(2X/R)UX     AT 02D
000415: 11,3114           00041                                    32D                                   #      B-1   UX
000416: 11,3115           00025                                    UZ                                    #      B-2  -UY =(UX * UZ)
000417: 11,3116           74372                           VSL1     VXSC                                  #      B-3   -(2Y/R)UY
000418: 11,3117           00021                                    URPV       +2                         #              2  2 -   2        -
000419: 11,3120           41455                           VAD      PUSH                                  #      B-3 (5(X -Y )UR/R )+(2X/R)UX -(
000420: 11,3121           77745                           DLOAD                                          #               -
000421: 11,3122           00023                                    COSPHI/2                              #          2Y/R)UY                  AT 02D
000422: 11,3123           41516                           DSQ      PUSH                                  #      B-2 (Z.COMPONENT)            AT 08D
000423: 11,3124           65205                           DMP      PDDL                                  #                   2
000424: 11,3125           27757                                    5/8                                   #      B-5  5COSPHI/2               AT 08D
000425: 11,3126           43302                           SR2      DAD
000426: 11,3127           00011                                    08D
000427: 11,3130           41221                           BDSU     DMP                                   #                       2
000428: 11,3131           11616                                    D1/32                                 #      B-5  (1 - 7COSPHI )
000429: 11,3132           00017                                    URPV
000430: 11,3133           74205                           DMP      VXSC
000431: 11,3134           27757                                    5/8
000432: 11,3135           02152                                    ALPHAV                                #                          2 -
000433: 11,3136           65272                           VSL5     PDDL                                  #      B-5 (5X/R)(1-7COSPHI )UR     AT 08D
000434: 11,3137           74225                           DSU      VXSC
000435: 11,3140           11616                                    D1/32
000436: 11,3141           00041                                    32D
000437: 11,3142           53372                           VSL1     VAD                                   #                          2 -           -
000438: 11,3143           41325                           PDDL     DMP                                   #      B-5 (5X/R)(1-7COSPHI )UR +(5COSPHI
000439: 11,3144           00017                                    URPV                                  #         -
000440: 11,3145           00023                                    URPV       +4                         #      -1)UX                        AT 08D
000441: 11,3146           74205                           DMP      VXSC
000442: 11,3147           27757                                    5/8                                   #      B-5   5X Y
000443: 11,3150           00025                                    UZ                                    #              M M
000444: 11,3151           53352                           VSL2     VAD                                   #                          2 -           2
000445: 11,3152           60325                           PDDL     NORM                                  #      B-5 (5X/R)(1-7COSPHI )UR +(5COSPHI
000446: 11,3153           02310                                    ALPHAM                                #         -          2 -
000447: 11,3154           00050                                    X2                                    #      -1)UX +(10XZ/R )UZ           AT 08D
000448: 11,3155           67206                           PUSH     SLOAD
000449: 11,3156           02000                                    E32C31RM
000450: 11,3157           74271                           DDV      VXSC
000451: 11,3160           63257                           VSL*     PDVL
000452: 11,3161           57601                                    0          -3,2
000453: 11,3162           67206                           PUSH     SLOAD
000454: 11,3163           01777                                    E3J22R2M
000455: 11,3164           53361                           VXSC     VAD
000456: 11,3165           70257                           VSL*     V/SC
000457: 11,3166           20146                                    0          -27D,1                     #      B+16 OR B+20 (J   + C  )
000458: 11,3167           40055                           VAD      BOV                                   #                     22    31
000459: 11,3170           02202                                    FV
000460: 11,3171           22711                                    GOBAQUE
000461: 11,3172           02202                           STORE    FV
000462: 11,3173           77754                           LXA,2
000463: 11,3174           02150                                    PBODY
000464: 11,3175           72135        NBRANCH            SLOAD    LXA,1
000465: 11,3176           01501                                    DIFEQCNT
000466: 11,3177           00154                                    MPAC
000467: 11,3200           73205                           DMP      CGOTO
000468: 11,3201           27761                                    -1/12
000469: 11,3202           00155                                    MPAC
000470: 11,3203           23217                                    DIFEQTAB
000471: 11,3204           77745        COSPHIE            DLOAD
000472: 11,3205           02156                                    ALPHAV     +4
000473: 11,3206           24023                           STOVL    COSPHI/2
000474: 11,3207           11560                                    ZUNIT
000475: 11,3210           77650                           GOTO
000476: 11,3211           22772                                    COMTERM
000477: 11,3212           57435        MATRIX             VXV      VCOMP
000478: 11,3213           02012                                    504LM                                 #  ROUTINE TRANSLATES FROM PLANETARY
000479: 11,3214           77655                           VAD                                            #  TO INERTIAL COORDINATES
000480: 11,3215           43505                           VXM      RVQ
000481: 11,3216           00025                                    MMATRIX
000482: 11,3217           23430        DIFEQTAB           CADR     DIFEQ+0
000483: 11,3220           23434                           CADR     DIFEQ+1
000484: 11,3221           23445                           CADR     DIFEQ+2
000485:
000486: 11,3222           45014        TIMESTEP           BOF      CALL
000487: 11,3223           00342                                    MIDFLAG
000488: 11,3224           23230                                    RECTEST                               #  SKIP ORIGIN CHANGE LOGIC
000489: 11,3225           23302                                    CHKSWTCH
000490: 11,3226           77640                           BMN
000491: 11,3227           23337                                    DOSWITCH
000492:
000493: 11,3230           51575        RECTEST            VLOAD    ABVAL                                 #  RECTIFY IF
000494: 11,3231           01521                                    TDELTAV
000495: 11,3232           77600                           BOV
000496: 11,3233           23256                                    CALLRECT
000497: 11,3234           51025                           DSU      BPL                                   #        1) EITHER TDELTAV OR TNUV EQUALS OR
000498: 11,3235           23746                                    3/4                                   #           EXCEEDS 3/4 IN MAGNITUDE
000499: 11,3236           23256                                    CALLRECT
000500: 11,3237           53615                           DAD      SL*                                   #                        OR
000501: 11,3240           23746                                    3/4
000502: 11,3241           57605                                    0          -7,2                       #        2) ABVAL(TDELTAV) EQUALS OR EXCEEDS
000503: 11,3242           45271                           DDV      DSU                                   #           .01(ABVAL(RCV))
000504: 11,3243           00013                                    10D
000505: 11,3244           27763                                    RECRATIO
000506: 11,3245           77244                           BPL      VLOAD
000507: 11,3246           23256                                    CALLRECT
000508: 11,3247           01527                                    TNUV
000509: 11,3250           45246                           ABVAL    DSU
000510: 11,3251           23746                                    3/4
000511: 11,3252           77600                           BOV
000512: 11,3253           23256                                    CALLRECT
000513: 11,3254           77640                           BMN
000514: 11,3255           23260                                    INTGRATE
000515: 11,3256           77624        CALLRECT           CALL
000516: 11,3257           23403                                    RECTIFY
000517: 11,3260           77775        INTGRATE           VLOAD
000518: 11,3261           01527                                    TNUV
000519: 11,3262           25120                           STOVL    ZV
000520: 11,3263           01521                                    TDELTAV
000521: 11,3264           01112                           STORE    YV
000522: 11,3265           77614                           CLEAR
000523: 11,3266           00261                                    JSWITCH
000524: 11,3267           66375        DIFEQ0             VLOAD    SSP
000525: 11,3270           01112                                    YV
000526: 11,3271           01501                                    DIFEQCNT
000527: 11,3272           00000                                    0
000528: 11,3273           16152                           STODL    ALPHAV
000529: 11,3274           11566                                    DPZERO
000530: 11,3275           02212                           STORE    H                                     #  START H AT ZERO.  GOES 0(DELT/2)DELT.
000531: 11,3276           52014                           BON      GOTO
000532: 11,3277           00301                                    JSWITCH
000533: 11,3300           23647                                    DOW..
000534: 11,3301           22441                                    ACCOMP
000535:
000536: 11,3302           43020        CHKSWTCH           STQ      BOF
000537: 11,3303           02270                                    ORIGEX
000538: 11,3304           04340                                    RPQFLAG
000539: 11,3305           23315                                    RPQOK                                 #  MOON POSITION IS AVAILABLE
000540: 11,3306           45145                           DLOAD    CALL
000541: 11,3307           01517                                    TET
000542: 11,3310           54115                                    LUNPOS                                #  GET MOON POSITION
000543: 11,3311           57414                           BOF      VCOMP
000544: 11,3312           00343                                    MOONFLAG
000545: 11,3313           23314                                    +1
000546: 11,3314           02263                           STORE    RPQV
000547:
000548: 11,3315           77354        RPQOK              LXA,2    VLOAD                                 #  RESTORE X2 AFTER USING LUNPOS
000549: 11,3316           02150                                    PBODY
000550: 11,3317           01521                                    TDELTAV                               #   -
000551: 11,3320           53257                           VSL*     VAD                                   #  |RQC|-RSPHERE WHEN OUTSIDE THE SPHERE.
000552: 11,3321           57605                                    0          -7,2                       #  -   -            -
000553: 11,3322           01535                                    RCV                                   #  R = RDEVIATION + RCONIC
000554: 11,3323           51414                           BOF      ABVAL
000555: 11,3324           00343                                    MOONFLAG
000556: 11,3325           23332                                    EARSPH
000557: 11,3326           44302                           SR2      BDSU                                  #  INSIDE
000558: 11,3327           27765                                    RSPHERE
000559: 11,3330           77650                           GOTO
000560: 11,3331           02270                                    ORIGEX
000561: 11,3332           51451        EARSPH             VSU      ABVAL                                 #  OUTSIDE
000562: 11,3333           02263                                    RPQV
000563: 11,3334           52025                           DSU      GOTO
000564: 11,3335           27765                                    RSPHERE
000565: 11,3336           02270                                    ORIGEX
000566:
000567: 11,3337           77624        DOSWITCH           CALL
000568: 11,3340           23343                                    ORIGCHNG
000569: 11,3341           77650                           GOTO
000570: 11,3342           23260                                    INTGRATE
000571:
000572: 11,3343           45020        ORIGCHNG           STQ      CALL
000573: 11,3344           02270                                    ORIGEX
000574: 11,3345           23403                                    RECTIFY
000575: 11,3346           53775                           VLOAD    VSL*
000576: 11,3347           01535                                    RCV
000577: 11,3350           57576                                    0,2
000578: 11,3351           53651                           VSU      VSL*
000579: 11,3352           02263                                    RPQV
000580: 11,3353           57574                                    2,2
000581: 11,3354           01503                           STORE    RRECT
000582: 11,3355           15535                           STODL    RCV
000583: 11,3356           01517                                    TET
000584: 11,3357           77624                           CALL
000585: 11,3360           54120                                    LUNVEL
000586: 11,3361           57414                           BOF      VCOMP
000587: 11,3362           00343                                    MOONFLAG
000588: 11,3363           23364                                    +1
000589: 11,3364           53715                           PDVL     VSL*
000590: 11,3365           01543                                    VCV
000591: 11,3366           57576                                    0,2
000592: 11,3367           77651                           VSU
000593: 11,3370           77657                           VSL*
000594: 11,3371           57574                                    0          +2,2
000595: 11,3372           01511                           STORE    VRECT
000596: 11,3373           01543                           STORE    VCV
000597: 11,3374           67154                           LXA,2    SXA,2
000598: 11,3375           02270                                    ORIGEX
000599: 11,3376           00052                                    QPRET
000600: 11,3377           52014                           BON      GOTO
000601: 11,3400           00303                                    MOONFLAG
000602: 11,3401           26744                                    CLRMOON
000603: 11,3402           26751                                    SETMOON
000604:                                                                                                  #  THE RECTIFY SUBROUTINE IS CALLED BY THE INTEGRATION PROGRAM AND OCCASIONALLY BY THE MEASUREMENT INCORPORATION
000605:                                                                                                  #  ROUTINES TO ESTABLISH A NEW CONIC.
000606:
000607: 11,3403           77354        RECTIFY            LXA,2    VLOAD
000608: 11,3404           02150                                    PBODY
000609: 11,3405           01521                                    TDELTAV
000610: 11,3406           53257                           VSL*     VAD
000611: 11,3407           57605                                    0          -7,2
000612: 11,3410           01535                                    RCV
000613: 11,3411           01503                           STORE    RRECT
000614: 11,3412           25535                           STOVL    RCV
000615: 11,3413           01527                                    TNUV
000616: 11,3414           53257                           VSL*     VAD
000617: 11,3415           57602                                    0          -4,2
000618: 11,3416           01543                                    VCV
000619: 11,3417           01511        MINIRECT           STORE    VRECT
000620: 11,3420           25543                           STOVL    VCV
000621: 11,3421           11566                                    ZEROVEC
000622: 11,3422           01521                           STORE    TDELTAV
000623: 11,3423           15527                           STODL    TNUV
000624: 11,3424           11566                                    ZEROVEC
000625: 11,3425           01551                           STORE    TC
000626: 11,3426           01553                           STORE    XKEP
000627: 11,3427           77616                           RVQ
000628:
000629:                                                                                                  #  THE THREE DIFEQ ROUTINES - DIFEQ+0, DIFEQ+12, AND DIFEQ+24 - ARE ENTEREDTO PROCESS THE CONTRIBUTIONS AT THE
000630:                                                                                                  #  BEGINNING, MIDDLE, AND END OF THE TIMESTEP, RESPECTIVELY.  THE UPDATING IS DONE BY THE NYSTROM METHOD.
000631:
000632: 11,3430           64575        DIFEQ+0            VLOAD    VSR3
000633: 11,3431           02202                                    FV
000634: 11,3432           36166                           STCALL   PHIV
000635: 11,3433           23610                                    DIFEQCOM
000636: 11,3434           74575        DIFEQ+1            VLOAD    VSR1
000637: 11,3435           02202                                    FV
000638: 11,3436           53206                           PUSH     VAD
000639: 11,3437           02166                                    PHIV
000640: 11,3440           26174                           STOVL    PSIV
000641: 11,3441           53362                           VSR1     VAD
000642: 11,3442           02166                                    PHIV
000643: 11,3443           36166                           STCALL   PHIV
000644: 11,3444           23610                                    DIFEQCOM
000645: 11,3445           57345        DIFEQ+2            DLOAD    DMPR
000646: 11,3446           02212                                    H
000647: 11,3447           23756                                    DP2/3
000648: 11,3450           74206                           PUSH     VXSC
000649: 11,3451           02166                                    PHIV
000650: 11,3452           53372                           VSL1     VAD
000651: 11,3453           01120                                    ZV
000652: 11,3454           53361                           VXSC     VAD
000653: 11,3455           02212                                    H
000654: 11,3456           01112                                    YV
000655: 11,3457           25112                           STOVL    YV
000656: 11,3460           02202                                    FV
000657: 11,3461           53322                           VSR3     VAD
000658: 11,3462           02174                                    PSIV
000659: 11,3463           76561                           VXSC     VSL1
000660: 11,3464           77655                           VAD
000661: 11,3465           01120                                    ZV
000662: 11,3466           01120                           STORE    ZV
000663: 11,3467           45014                           BOFF     CALL
000664: 11,3470           00341                                    JSWITCH
000665: 11,3471           23541                                    ENDSTATE
000666: 11,3472           56751                                    GRP2PC
000667: 11,3473           77354                           LXA,2    VLOAD
000668: 11,3474           01102                                    COLREG
000669: 11,3475           01120                                    ZV
000670: 11,3476           77732                           VSL3                                           #  ADJUST W-POSITION FOR STORAGE
000671: 11,3477           12467                           STORE    W          +54D,2
000672: 11,3500           77775                           VLOAD
000673: 11,3501           01112                                    YV
000674: 11,3502           40132                           VSL3     BOV
000675: 11,3503           23633                                    WMATEND
000676: 11,3504           12401                           STORE    W,2
000677:
000678: 11,3505           77624                           CALL
000679: 11,3506           56751                                    GRP2PC
000680: 11,3507           66354                           LXA,2    SSP
000681: 11,3510           01102                                    COLREG
000682: 11,3511           00052                                    S2
000683: 11,3512           00000                                    0
000684: 11,3513           67114                           INCR,2   SXA,2
000685: 11,3514           00006                                    6
000686: 11,3515           01111                                    YV
000687: 11,3516           45104                           TIX,2    CALL
000688: 11,3517           23604                                    RELOADSV
000689: 11,3520           56751                                    GRP2PC
000690: 11,3521           67154                           LXA,2    SXA,2
000691: 11,3522           01111                                    YV
000692: 11,3523           01102                                    COLREG
000693:
000694: 11,3524           77624        NEXTCOL            CALL
000695: 11,3525           56751                                    GRP2PC
000696: 11,3526           76754                           LXA,2    VLOAD*
000697: 11,3527           01102                                    COLREG
000698: 11,3530           75376                                    W,2
000699: 11,3531           77722                           VSR3                                           #  ADJUST W-POSITION FOR INTEGRATION
000700: 11,3532           01112                           STORE    YV
000701: 11,3533           76173                           VLOAD*   AXT,1
000702: 11,3534           75310                                    W          +54D,2
000703: 11,3535           00000                                    0
000704: 11,3536           77722                           VSR3                                           #  ADJUST W-VELOCITY FOR INTEGRATION
000705: 11,3537           35120                           STCALL   ZV
000706: 11,3540           23267                                    DIFEQ0
000707:
000708: 11,3541           77200        ENDSTATE           BOV      VLOAD
000709: 11,3542           22711                                    GOBAQUE
000710: 11,3543           01120                                    ZV
000711: 11,3544           25527                           STOVL    TNUV
000712: 11,3545           01112                                    YV
000713: 11,3546           01521                           STORE    TDELTAV
000714: 11,3547           43014                           BON      BOFF
000715: 11,3550           04715                                    MIDAVFLG
000716: 11,3551           27637                                    CKMID2                                #  CHECK FOR MID2 BEFORE GOING TO TIMEINC
000717: 11,3552           01756                                    DIM0FLAG
000718: 11,3553           27314                                    TESTLOOP
000719: 11,3554           77776                           EXIT
000720: 11,3555           05426                           TC       PHASCHNG
000721: 11,3556           04022                           OCT      04022                                 #  PHASE 1
000722: 11,3557           05562                           TC       UPFLAG                                #  PHASE CHANGE HAS OCCURRED BETWEEN
000723: 11,3560           00236                           ADRES    REINTFLG                              #  INTSTALL AND INTWAKE
000724: 11,3561           06006                           TC       INTPRET
000725: 11,3562           77731                           SSP
000726: 11,3563           00053                                    QPRET
000727: 11,3564           23571                                    AMOVED
000728: 11,3565           52014                           BON      GOTO
000729: 11,3566           01714                                    VINTFLAG
000730: 11,3567           26714                                    ATOPCSM
000731: 11,3570           26767                                    ATOPLEM
000732: 11,3571           66214        AMOVED             SET      SSP
000733: 11,3572           00061                                    JSWITCH
000734: 11,3573           01103                                    COLREG
000735: 11,3574           77741                           DEC      -30        B-14
000736: 11,3575           66214                           BOFF     SSP
000737: 11,3576           01755                                    D6OR9FLG
000738: 11,3577           23524                                    NEXTCOL
000739: 11,3600           01103                                    COLREG
000740: 11,3601           77717                           DEC      -48        B-14
000741: 11,3602           77650                           GOTO
000742: 11,3603           23524                                    NEXTCOL
000743:
000744: 11,3604           77745        RELOADSV           DLOAD                                          #  RELOAD TEMPORARY STATE VECTOR
000745: 11,3605           01101                                    TDEC                                  #  FROM PERMANENT IN CASE OF
000746: 11,3606           34041                           STCALL   TDEC1
000747: 11,3607           27176                                    INTEGRV2                              #  BY STARTING AT INTEGRV2.
000748: 11,3610           43345        DIFEQCOM           DLOAD    DAD                                   #  INCREMENT H AND DIFEQCNT.
000749: 11,3611           02314                                    DT/2
000750: 11,3612           02212                                    H
000751: 11,3613           66110                           INCR,1   SXA,1
000752: 11,3614           77763                           DEC      -12        B-14
000753: 11,3615           01500                                    DIFEQCNT                              #  DIFEQCNT SET FOR NEXT ENTRY.
000754: 11,3616           02212                           STORE    H
000755: 11,3617           74561                           VXSC     VSR1
000756: 11,3620           02202                                    FV
000757: 11,3621           74255                           VAD      VXSC
000758: 11,3622           01120                                    ZV
000759: 11,3623           02212                                    H
000760: 11,3624           77655                           VAD
000761: 11,3625           01112                                    YV
000762: 11,3626           02152                           STORE    ALPHAV
000763: 11,3627           52014                           BON      GOTO
000764: 11,3630           00301                                    JSWITCH
000765: 11,3631           23647                                    DOW..
000766: 11,3632           22421                                    FBR3
000767:
000768: 11,3633           43014        WMATEND            CLEAR    CLEAR
000769: 11,3634           01676                                    DIM0FLAG                              #  DONT INTEGRATE W THIS TIME
000770: 11,3635           01671                                    ORBWFLAG                              #  INVALIDATE W
000771: 11,3636           77614                           CLEAR
000772: 11,3637           02676                                    RENDWFLG
000773: 11,3640           77414                           SET      EXIT
000774: 11,3641           01472                                    STATEFLG                              #  PICK UP STATE VECTOR UPDATE
000775: 11,3642           05664                           TC       ALARM
000776: 11,3643           00421                           OCT      421
000777: 11,3644           06006                           TC       INTPRET
000778: 11,3645           77650                           GOTO
000779: 11,3646           27314                                    TESTLOOP                              #  FINISH INTEGRATING STATE VECTOR
000780:
000781:                                                                                                  #  ORBITAL ROUTINE FOR EXTRAPOLATION OF THE W MATRIX.  IT COMPUTES THE SECOND DERIVATIVE OF EACH COLUMN POSITION
000782:                                                                                                  #  VECTOR OF THE MATRIX AND CALLS THE NYSTROM INTEGRATION ROUTINES TO SOLVE THE DIFFERENTIAL EQUATIONS.  THE PROGRAM
000783:                                                                                                  #  USES A TABLE OF VEHICLE POSITION VECTORS COMPUTED DURING THE INTEGRATION OF THE VEHICLES POSITION AND VELOCITY.
000784:
000785: 11,3647           70754        DOW..              LXA,2    DLOAD*
000786: 11,3650           02150                                    PBODY
000787: 11,3651           50036                                    MUEARTH,2
000788: 11,3652           36210                           STCALL   BETAM
000789: 11,3653           23675                                    DOW..1
000790: 11,3654           02202                           STORE    FV
000791: 11,3655           62014                           BOF      INCR,1
000792: 11,3656           00342                                    MIDFLAG
000793: 11,3657           23175                                    NBRANCH
000794: 11,3660           77771                           DEC      -6         B-14
000795: 11,3661           70744                           LXC,2    DLOAD*
000796: 11,3662           02150                                    PBODY
000797: 11,3663           50040                                    MUEARTH    -2,2
000798: 11,3664           36210                           STCALL   BETAM
000799: 11,3665           23675                                    DOW..1
000800: 11,3666           50414                           BON      VSR6
000801: 11,3667           00303                                    MOONFLAG
000802: 11,3670           23671                                    +1
000803: 11,3671           77655                           VAD
000804: 11,3672           02202                                    FV
000805: 11,3673           36202                           STCALL   FV
000806: 11,3674           23175                                    NBRANCH
000807: 11,3675           60575        DOW..1             VLOAD    VSR4
000808: 11,3676           02152                                    ALPHAV
000809: 11,3677           53513                           PDVL*    UNIT
000810: 11,3700           02217                                    VECTAB,1
000811: 11,3701           46315                           PDVL     VPROJ
000812: 11,3702           02152                                    ALPHAV
000813: 11,3703           52361                           VXSC     VSU
000814: 11,3704           23746                                    3/4
000815: 11,3705           60325                           PDDL     NORM
000816: 11,3706           00045                                    36D
000817: 11,3707           00052                                    S2
000818: 11,3710           63406                           PUSH     DSQ
000819: 11,3711           77605                           DMP
000820: 11,3712           65301                           NORM     PDDL
000821: 11,3713           00043                                    34D
000822: 11,3714           02210                                    BETAM
000823: 11,3715           56342                           SR1      DDV
000824: 11,3716           77761                           VXSC
000825: 11,3717           57154                           LXA,2    XAD,2
000826: 11,3720           00051                                    S2
000827: 11,3721           00051                                    S2
000828: 11,3722           57074                           XAD,2    XAD,2
000829: 11,3723           00051                                    S2
000830: 11,3724           00042                                    34D
000831: 11,3725           43457                           VSL*     RVQ
000832: 11,3726           57606                                    0          -8D,2
000833:
000834: 11,2000                                           SETLOC   ORBITAL1
000835: 11,2000                                           BANK
000836:
000837: 11,3727           04631 23146  3/5                2DEC     .6         B-2
000838: 11,3731           14000 00000  THREE/8            2DEC     .375
000839: 11,3733           02314 31463  .3D                2DEC     .3         B-2
000840: 11,3735           01400 00000  3/64               2DEC     3          B-6
000841: 11,3737           10000 00000  DP1/4              2DEC     .25
000842: 11,3741  11,3737               DQUARTER           EQUALS   DP1/4
000843: 11,3741  11,3737               POS1/4             EQUALS   DP1/4
000844: 11,3741           03000 00000  3/32               2DEC     3          B-5
000845: 11,3743           36000 00000  15/16              2DEC     15.        B-4
000846: 11,3745           30000 00000  3/4                2DEC     3.0        B-2
000847: 11,3747           22525 12525  7/12               2DEC     .5833333333
000848: 11,3751           22000 00000  9/16               2DEC     9          B-4
000849: 11,3753           01200 00000  5/128              2DEC     5          B-7
000850: 11,3755  04,3565               DPZERO             EQUALS   ZEROVEC
000851: 11,3755           25252 25253  DP2/3              2DEC     .6666666667
000852: 11,3757  11,3755               2/3                EQUALS   DP2/3
000853: 11,3757           00027        OCT27              OCT      27
000854:                                                                                                  #  LM504 IS TEMPORARY
000855: 13,3720                                           BANK     13
000856: 13,2000                                           SETLOC   ORBITAL2
000857: 13,2000                                           BANK
000858:                                                                                                  #  IT IS VITAL THAT THE FOLLOWING CONSTANTS NOT BE SHUFFLED
000859: 13,3720           77764                           DEC      -11        B-14
000860: 13,3721           77775                           DEC      -2         B-14
000861: 13,3722           77766                           DEC      -9         B-14
000862: 13,3723           77771                           DEC      -6         B-14
000863: 13,3724           77775                           DEC      -2         B-14
000864: 13,3725           77775                           DEC      -2         B-14
000865: 13,3726           00000                           DEC      0          B-14
000866: 13,3727           77763                           DEC      -12        B-14
000867: 13,3730           77766                           DEC      -9         B-14
000868: 13,3731           77773                           DEC      -4         B-14
000869: 13,3732           77770        ASCALE             DEC      -7         B-14
000870: 13,3733           77771                           DEC      -6         B-14
000871: 13,3734           27446 14620                     2DEC*    1.32715445 E16        B-54*           #  S
000872: 13,3736           16471 01352                     2DEC*    4.9027780  E8         B-30*           #  M
000873: 13,3740           22437 16067  MUEARTH            2DEC*    3.986032   E10        B-36*
000874: 13,3742           00000 00000                     2DEC     0          B-28
000875: 13,3744           02302 24736  J4REQ/J3           2DEC*    .4991607391 E7         B-26*
000876: 13,3746           77651 76237                     2DEC     -176236.02 B-25
000877: 13,3750           77776 53032  2J3RE/J2           2DEC*    -.1355426363 E5         B-27*
000878: 13,3752           10407 05344                     2DEC*    .3067493316 E18        B-60*
000879: 13,3754           13710 35320  J2REQSQ            2DEC*    1.75501139 E21        B-72*
000880: 13,3756           24000 00000  5/8                2DEC     5          B-3
000881: 13,3760           74631 63145  -1/12              2DEC     -.1
000882: 13,3762  13,3736               MUM                =        MUEARTH    -2
000883: 13,3762           00243 32703  RECRATIO           2DEC     .01
000884: 13,3764           03654 21000  RSPHERE            2DEC     64373.76   E3         B-29
000885: 13,3766           03654 21000  RDM                2DEC     16093.44   E3         B-27
000886: 13,3770           04627 25200  RDE                2DEC     80467.20   E3         B-29
000887: 13,3772                        RATT               EQUALS   00
000888: 13,3772                        VATT               EQUALS   6D
000889: 13,3772                        TAT                EQUALS   12D
000890: 13,3772                        RATT1              EQUALS   14D
000891: 13,3772                        VATT1              EQUALS   20D
000892: 13,3772                        MU(P)              EQUALS   26D
000893: 13,3772                        TDEC1              EQUALS   32D
000894: 13,3772                        URPV               EQUALS   14D
000895: 13,3772     0022               COSPHI/2           EQUALS   URPV       +4
000896: 13,3772                        UZ                 EQUALS   20D
000897: 13,3772                        TVEC               EQUALS   26D
000898:
000899:
000900:

End of include-file ORBITAL_INTEGRATION.agc.  Parent file is MAIN.agc


