
Source Code


000002:                                                                                                  ## Copyright:   Public domain.
000003:                                                                                                  ## Filename:    P30,P37.agc
000004:                                                                                                  ## Purpose:     A section of Manche72 revision 3.
000005:                                                                                                  ##              It is part of the reconstructed source code for the final, flown
000006:                                                                                                  ##              release of the software for the Command Module's (CM) Apollo
000007:                                                                                                  ##              Guidance Computer (AGC) for Apollo 13. No original listings
000008:                                                                                                  ##              of this program are available; instead, this file was recreated
000009:                                                                                                  ##              from a reconstructed copy of Comanche 072. It has been adapted
000010:                                                                                                  ##              such that the resulting bugger words exactly match those
000011:                                                                                                  ##              specified for Manche72 revision 3 in NASA drawing 2021153G,
000012:                                                                                                  ##              which gives relatively high confidence that the reconstruction
000013:                                                                                                  ##              is correct.
000014:                                                                                                  ## Assembler:   yaYUL
000015:                                                                                                  ## Contact:     Ron Burkey <info@sandroid.org>.
000016:                                                                                                  ## Website:     www.ibiblio.org/apollo/index.html
000017:                                                                                                  ## Mod history: 2024-05-19 MAS  Created from Comanche 072.
000018:
000019: 32,2017                                           BANK     32
000020:
000021: 35,2000                                           SETLOC   P30S1
000022: 35,2000                                           BANK
000023:
000024: 35,3264  E7,1625                                  EBANK=   +MGA
000025:
000026: 35,3264                                           COUNT    35/P34
000027:
000028: 35,3264           77420        DISPMGA            STQ      EXIT                                  #  USED IN P30
000029:
000030: 35,3265           02370                                    RGEXIT
000031: 35,3266           03304                           TC       COMPTGO
000032:
000033: 35,3267           34621        DISP45             CAF      V16N45
000034: 35,3270           04676                           TC       BANKCALL
000035: 35,3271           21057                           CADR     GOFLASHR
000036: 35,3272           04106                           TC       GOTOPOOH
000037: 35,3273           03300                           TC       END45
000038: 35,3274           03267                           TC       DISP45
000039: 35,3275           05426        P30PHSI            TC       PHASCHNG
000040: 35,3276           00014                           OCT      14
000041: 35,3277           05233                           TCR      ENDOFJOB
000042: 35,3300           06006        END45              TC       INTPRET
000043: 35,3301           52014                           CLEAR    GOTO
000044: 35,3302           03664                                    TIMRFLAG
000045: 35,3303           02370                                    RGEXIT
000046:
000047: 35,3304           00006        COMPTGO            EXTEND                                         #  USED TO COMPUTE TTOGO
000048: 35,3305           23066                           QXCH     PHSPRDT6                              #  ** GROUP 6 TEMPORARY USED ,, BEWARE **
000049:
000050: 35,3306           05562                           TC       UPFLAG                                #  SET TIMRFLAG
000051: 35,3307           00155                           ADRES    TIMRFLAG                              #  BIT 11 FLAG 7
000052: 35,3310           35035                           CAF      ZERO
000053: 35,3311           55145                           TS       NVWORD1
000054:
000055: 35,3312           35033                           CAF      ONE
000056: 35,3313           05261                           TC       WAITLIST
000057: 35,3314  E7,1412                                  EBANK=   TIG
000058: 35,3314           03263 50067                     2CADR    CLOKTASK
000059:
000060: 35,3316           05406                           TC       2PHSCHNG
000061: 35,3317           40036                           OCT      40036                                 #  6.3SPOT FOR CLOKTASK
000062: 35,3320           05024                           OCT      05024                                 #  GROUP 4 CONTINUES HERE
000063: 35,3321           13000                           OCT      13000
000064:
000065: 35,3322           01066                           TC       PHSPRDT6
000066:                                                                                                  #  PROGRAM DESCRIPTION P30       DATE 3-6-67
000067:                                                                                                  #  MOD. I BY S. ZELDIN-  TO ADD P31 AND ADAPT P30 FOR P31 USE.   22DEC67
000068:
000069:                                                                                                  #  FUNCTIONAL DESCRIPTION
000070:                                                                                                  #        +30     (EXTERNAL DELTA-V TARGETTING PROGRAM)
000071:                                                                                                  #                ACCEPTS ASTRONAUT INPUTS OF TIG,DELV(LV) AND COMPUTES, FOR DISPLAY,
000072:                                                                                                  #                APOGEE, PERIGEE, DELV(MAG), MGA ASSOCIATED WITH DESIRED MANEUVER
000073:                                                                                                  #        P31     (GENERAL LAMBERT AIMPOINT GUIDANCE)
000074:                                                                                                  #                A GROUND RULE FOR P31 IS THE ANGLE BETWEEN THE TARGET VECTOR AND
000075:                                                                                                  #                POSITION VECTOR AT TIG IS NOT 165-195 DEGREES APART
000076:                                                                                                  #                BASED ON STORED INPUT OF OFFSET TARGET(B+29) AND DELTA T TRANS, AND
000077:                                                                                                  #                ASTRONAUT ENTRY OF TIG, P31 COMPUTES REQUIRED VELOCITY FOR MANEUVER
000078:                                                                                                  #                AND, FOR DISPLAY, APOGEE, PERIGEE, DELV(7AG), +MGA ASSOCIATED WITH
000079:                                                                                                  #                DESIRED MANEUVER
000080:
000081:                                                                                                  #  THE FOLLOWING SUBROUTINES ARE USED IN P30 AND P31
000082:                                                                                                  #        S30.1 (P30 ONLY)
000083:                                                                                                  #        S31.1 (P31 ONLY)
000084:                                                                                                  #        P30/P31 - DISPLAYS TIG
000085:                                                                                                  #        CNTUP30 - DISPLAYS DELV(LV)
000086:                                                                                                  #        PARAM30 - DISPLAYS APOGEE, PERIGEE, DELV(MAG), MGA, TIME FROM TIG,
000087:                                                                                                  #                  MARKS SINCE LAST THRUSTING MANEUVER
000088:
000089:                                                                                                  #  CALLING SEQUENCE VIA JOB FROM V37
000090:
000091:                                                                                                  #  EXIT VIA V37 CALL OR GOTOPOOH
000092:
000093:                                                                                                  #  OUTPUT FOR POWERED FLIGHT
000094:                                                                                                  #        VTIG    X
000095:                                                                                                  #        RTIG    X       SEE S30.1
000096:                                                                                                  #        DELVSIN X
000097:                                                                                                  #        VGDISP
000098:                                                                                                  #        RTARG   X
000099:                                                                                                  #        TPASS4  X       SEE S31.1
000100:                                                                                                  #                X
000101:
000102: 35,3323                                           COUNT    35/P30
000103:
000104: 35,3323           03355        P30                TC       P30/P31
000105: 35,3324           03374                           TC       CNTNUP30
000106: 35,3325           05562                           TC       UPFLAG
000107: 35,3326           00045                           ADRES    XDELVFLG                              #  SET XDELVFLG BIT 8 FLAG 2
000108: 35,3327           05574                           TC       DOWNFLAG                              #  RESET UPDATFLG
000109: 35,3330           00027                           ADRES    UPDATFLG                              #  BIT 7 FLAG 1
000110: 35,3331           06006                           TC       INTPRET
000111: 35,3332           77624                           CALL
000112: 35,3333           63501                                    S30.1
000113: 35,3334           77776                           EXIT
000114: 35,3335           03404                           TC       PARAM30
000115: 35,3336           14106                           TCF      GOTOPOOH
000116:
000117: 35,3337           03355        P31                TC       P30/P31
000118: 35,3340           05574                           TC       DOWNFLAG
000119: 35,3341           00027                           ADRES    UPDATFLG                              #  RESET UPDATFLG BIT 7 FLAG 1
000120: 35,3342           05574                           TC       DOWNFLAG
000121: 35,3343           00156                           ADRES    NORMSW                                #  RESET NORMSW BIT 10 FLAG 7
000122: 35,3344           06006                           TC       INTPRET
000123: 35,3345           77624                           CALL
000124: 35,3346           63553                                    S31.1
000125: 35,3347           77776                           EXIT
000126: 35,3350           03374                           TC       CNTNUP30
000127: 35,3351           03404                           TC       PARAM30
000128: 35,3352           05574                           TC       DOWNFLAG
000129: 35,3353           00045                           ADRES    XDELVFLG                              #  BIT 8 FLAG 2
000130: 35,3354           14106                           TCF      GOTOPOOH
000131:
000132: 35,3355           56002        P30/P31            XCH      Q
000133: 35,3356           55664                           TS       P30/31RT
000134: 35,3357           05562                           TC       UPFLAG
000135: 35,3360           00027                           ADRES    UPDATFLG                              #  SET UPDATFLG BIT 7 FLAG 1
000136: 35,3361           05562                           TC       UPFLAG
000137: 35,3362           00031                           ADRES    TRACKFLG                              #  SET TRACKFLG BIT 5 FLAG 1
000138: 35,3363           33441                           CAF      V06N33                                #  T OF IGN
000139: 35,3364           04676                           TC       BANKCALL
000140: 35,3365           21057                           CADR     GOFLASHR
000141: 35,3366           14106                           TCF      GOTOPOOH
000142: 35,3367           01664                           TC       P30/31RT
000143: 35,3370           13361                           TCF      P30/P31    +4
000144: 35,3371           05426                           TC       PHASCHNG
000145: 35,3372           00014                           OCT      00014
000146: 35,3373           05233                           TC       ENDOFJOB
000147:
000148: 35,3374           56002        CNTNUP30           XCH      Q
000149: 35,3375           55127                           TS       P30/RET
000150: 35,3376           34620                           CAF      V06N81
000151: 35,3377           04676                           TC       BANKCALL
000152: 35,3400           20720                           CADR     GOFLASH
000153: 35,3401           14106                           TCF      GOTOPOOH
000154: 35,3402           01127                           TC       P30/RET
000155: 35,3403           13376                           TCF      CNTNUP30   +2
000156: 35,3404           56002        PARAM30            XCH      Q
000157: 35,3405           55664                           TS       P30/31RT
000158: 35,3406           33442                           CAF      V06N42
000159: 35,3407           04676                           TC       BANKCALL
000160: 35,3410           20720                           CADR     GOFLASH
000161: 35,3411           04106                           TC       GOTOPOOH                              #  ON TERMINATION GOTOPOOH
000162: 35,3412           13414                           TCF      REFTEST                               #  ON PROCEED GO DO REFTEST
000163: 35,3413           13406                           TCF      PARAM30    +2
000164: 35,3414           35017        REFTEST            CAF      BIT13
000165: 35,3415           70077                           MASK     STATE      +3                         #  REFSMFLAG
000166: 35,3416           00006                           EXTEND
000167: 35,3417           13427                           BZF      NOTSET                                #  REFSMFLAG =0, THEN BRANCH TO NOTSET
000168: 35,3420           06006                           TC       INTPRET
000169: 35,3421           41575                           VLOAD    PUSH
000170: 35,3422           03646                                    DELVSIN
000171: 35,3423           77624                           CALL
000172: 35,3424           10654                                    GET+MGA
000173: 35,3425           77650                           GOTO
000174: 35,3426           73433                                    FLASHMGA
000175: 35,3427           00006        NOTSET             EXTEND
000176: 35,3430           43440                           DCS      MARSDP
000177: 35,3431           53626                           DXCH     +MGA                                  #  +MGA, +MGA+1 CONTAINS (-00001)
000178: 35,3432           06006                           TC       INTPRET
000179: 35,3433           77624        FLASHMGA           CALL
000180: 35,3434           73264                                    DISPMGA
000181: 35,3435           77776                           EXIT
000182: 35,3436           01664                           TC       P30/31RT
000183: 35,3437           00000        MARSDP             OCT      00000                                 #  (00000) (16440) = (+00001)
000184: 35,3440           35100                           OCT      35100
000185:                                                                                                  #  ( .01 ) DEGREES IN THE LOW ORDER REGISTE
000186:
000187: 35,3441           01441        V06N33             VN       0633
000188: 35,3442           01452        V06N42             VN       0642
000189: 35,3443           04043        V16N35             VN       1635
000190: 35,3444           01455        V06N45             VN       0645
000191:
000192:                                                                                                  #  PROGRAM DESCRIPTION S30.1     DATE 9NOV66
000193:                                                                                                  #  MOD NO 1                      LOG SECTION P30,P37
000194:                                                                                                  #  MOD BY RAMA AIYAWAR **
000195:                                                                                                  #  MOD.2 BY S.ZELDIN - TO CORRECT MOD.1 FOR COLOSSUS             29DEC67
000196:
000197:                                                                                                  #  FUNCTIONAL DESCRIPTION
000198:                                                                                                  #        BASED ON STORED TARGET PARAMETERS (R OF IGNITION (RTIG), V OF
000199:                                                                                                  #        IGNITION (VTIG), TIME OF IGNITION (TIG), DELV(LV), COMPUTE PERIGEE ALTITUDE
000200:                                                                                                  #        A+OGEE ALTITUDE AND DELTA-V REQUIRED IN REF. COORDS. (DELVSIN)
000201:
000202:                                                                                                  #  CALLING SEQUENCE
000203:                                                                                                  #        L       CALL
000204:                                                                                                  #        L+1             S30.1
000205:
000206:                                                                                                  #  NORMAL EXIT MODE
000207:                                                                                                  #        AT L+2 OR CALLING SEQUENCE (GOTO L+2)
000208:
000209:                                                                                                  #  SUBROUTINES CALLED
000210:                                                                                                  #        THISPREC
000211:                                                                                                  #        PERIAPO
000212:
000213:                                                                                                  #  ALARM OR ABORT EXIT MODES
000214:                                                                                                  #        NONE
000215:
000216:                                                                                                  #  ERASABLE INITIALIZATION REQUIRED
000217:                                                                                                  #        TIG             TIME OF IGNITION        DP B28CS
000218:                                                                                                  #        DELVSLV         SPECIFIED DELTA-V IN LOCAL VERT.
000219:                                                                                                  #                        COORDS. OF ACTIVE VEHICLE AT
000220:                                                                                                  #                        TIME OF IGNITION        VCT. B+7 M/CS
000221:
000222:                                                                                                  #  OUTPUT
000223:                                                                                                  #        RTIG            POSITION AT TIG         VCT.    B+29 M
000224:                                                                                                  #        VTIG            VELOCITY AT TIG         VCT.    B+7 M
000225:                                                                                                  #        HAPO            APOGEE ALT.             DP      B+29 M
000226:                                                                                                  #        HPER            PERIGEE ALT.            DP      B+29 M
000227:                                                                                                  #        DELVSIN         DELVSLV IN REF COORDS   VCT.    B+7 M/CS
000228:                                                                                                  #        VGDISP          MAG. OF DELVSIN         DP      B+7 M/CS
000229:
000230:                                                                                                  #  DEBRIS        QTEMP   TEMP.ERASABLE
000231:                                                                                                  #                QPRET, MPAC
000232:                                                                                                  #                PUSHLIST
000233:
000234: 31,2000                                           SETLOC   P30S1A
000235: 31,2000                                           BANK
000236:
000237: 31,3501                                           COUNT    35/S30S
000238:
000239: 31,3501           71220        S30.1              STQ      DLOAD
000240: 31,3502           03657                                    QTEMP
000241: 31,3503           03413                                    TIG                                   #  TIME IGNITION SCALED AT 2(+28)CS
000242: 31,3504           34041                           STCALL   TDEC1
000243: 31,3505           27100                                    THISPREC                              #  ENCKE ROUTINE FOR
000244:
000245: 31,3506           67175                           VLOAD    SXA,2
000246: 31,3507           00007                                    VATT
000247: 31,3510           03746                                    RTX2
000248: 31,3511           27640                           STOVL    VTIG
000249: 31,3512           00001                                    RATT
000250: 31,3513           03632                           STORE    RTIG
000251: 31,3514           03540                           STORE    RACT3
000252: 31,3515           53435                           VXV      UNIT
000253: 31,3516           03640                                    VTIG
000254: 31,3517           36617                           STCALL   UNRM
000255: 31,3520           72666                                    LOMAT
000256: 31,3521           61375                           VLOAD    VXM
000257: 31,3522           03405                                    DELVSLV
000258: 31,3523           00001                                    0
000259: 31,3524           66172                           VSL1     SXA,1
000260: 31,3525           03745                                    RTX1
000261: 31,3526           03646                           STORE    DELVSIN
000262: 31,3527           77646                           ABVAL
000263: 31,3530           27773                           STOVL    VGDISP                                #  MAG DELV
000264: 31,3531           03632                                    RTIG
000265: 31,3532           53315                           PDVL     VAD
000266: 31,3533           03646                                    DELVSIN
000267: 31,3534           03640                                    VTIG
000268: 31,3535           77624                           CALL
000269: 31,3536           45153                                    PERIAPO1
000270: 31,3537           77624                           CALL
000271: 31,3540           45263                                    SHIFTR1
000272: 31,3541           77624                           CALL
000273: 31,3542           46756                                    MAXCHK
000274: 31,3543           16366                           STODL    HPER                                  #  PERIGEE ALT B+29
000275: 31,3544           00005                                    4D
000276: 31,3545           77624                           CALL
000277: 31,3546           45263                                    SHIFTR1
000278: 31,3547           77624                           CALL
000279: 31,3550           46756                                    MAXCHK
000280: 31,3551           36364                           STCALL   HAPO                                  #  APOGEE ALT B+29
000281: 31,3552           03657                                    QTEMP
000282:
000283:                                                                                                  #  S31.1 PROGRAM DESCRIPTION             28DEC67
000284:                                                                                                  #  MOD.1 BY S.ZELDIN
000285:
000286:                                                                                                  #  S31.1 COMPUTES DELV IN REF AND LV COORDS,MAG OF DELV,INTERCEPT TIME,
000287:                                                                                                  #  APOGEE AND PERIGEE ALT FOR REQUIRED MANEUVER
000288:
000289:                                                                                                  #  CALLING SEQUENCE
000290:                                                                                                  #        L       CALL
000291:                                                                                                  #        L+1             S31.1
000292:
000293:                                                                                                  #  NORMAL EXIT MODE
000294:                                                                                                  #        AT L +2 OF CALLING SEQUENCE (GOTO L+2)
000295:
000296:                                                                                                  #  SUBROUTINES CALLED
000297:                                                                                                  #        AGAIN
000298:                                                                                                  #        PERIAPO1
000299:                                                                                                  #        SHIFTR1
000300:                                                                                                  #        MIDGIM
000301:
000302:                                                                                                  #  NO ALARM OR ABORT MODES
000303:
000304:                                                                                                  #  INPUT
000305:                                                                                                  #        DELLT4          DP      +28
000306:                                                                                                  #        TIG             DP      +28
000307:                                                                                                  #        RTARG           VCT     +29
000308:
000309:                                                                                                  #  OUTPUT
000310:                                                                                                  #        DELVLVC         VCT     +7
000311:                                                                                                  #        VGDISP          DP      +7
000312:                                                                                                  #        HAPO            DP      +29
000313:                                                                                                  #        HPER            DP      +29
000314:                                                                                                  #        TPASS4          DP      +28
000315:
000316:                                                                                                  #  DEBRIS - QTEMP
000317:
000318: 31,3553           71220        S31.1              STQ      DLOAD
000319: 31,3554           03657                                    QTEMP
000320: 31,3555           03413                                    TIG
000321: 31,3556           34041                           STCALL   TDEC1
000322: 31,3557           61651                                    AGAIN                                 #  RETURNS RTX2,RTX1,RATT,VATT,VIPRIME
000323: 31,3560           63375                           VLOAD    PDVL                                  #  DELUEET3
000324: 31,3561           03632                                    RTIG
000325: 31,3562           03612                                    VIPRIME
000326: 31,3563           77624                           CALL
000327: 31,3564           45153                                    PERIAPO1
000328: 31,3565           77624                           CALL
000329: 31,3566           45263                                    SHIFTR1
000330: 31,3567           77624                           CALL
000331: 31,3570           46756                                    MAXCHK
000332: 31,3571           16366                           STODL    HPER                                  #  B29
000333: 31,3572           00005                                    4D
000334: 31,3573           77624                           CALL
000335: 31,3574           45263                                    SHIFTR1
000336: 31,3575           77624                           CALL
000337: 31,3576           46756                                    MAXCHK
000338: 31,3577           26364                           STOVL    HAPO                                  #  B29
000339: 31,3600           03646                                    DELVEET3
000340: 31,3601           00001                           STORE    0
000341: 31,3602           45014                           SET      CALL
000342: 31,3603           01072                                    AVFLAG
000343: 31,3604           10647                                    MIDGIM                                #  GET DELVLVC B7 FOR DISPLAY
000344: 31,3605           77646                           ABVAL
000345: 31,3606           17773                           STODL    VGDISP                                #  B+7 FOR DISPLAY
000346: 31,3607           03423                                    DELLT4
000347: 31,3610           77615                           DAD
000348: 31,3611           03413                                    TIG
000349: 31,3612           37656                           STCALL   TPASS4                                #  FOR S40.1
000350: 31,3613           03657                                    QTEMP
000351:
000352:                                                                                                  #  SUBROUTINE NAME:      DELRSPL         (CONTINUATION OF V 82 IN CSM IF P11 ACTI
000353:                                                                                                  #  TRANSFERRED COMPLETELY FROM SUNDISK, P30S REV 33.  9 SEPT 67.
000354:                                                                                                  #  MOD NO: 0     MOD BY: ZELDIN          DATE:
000355:                                                                                                  #  MOD NO: 1     MOD BY: RR BAIRNSFATHER DATE: 11 APR 67
000356:                                                                                                  #  MOD NO: 2     MOD BY: RR BAIRNSFATHER DATE: 12 MAY 67         ADD UR.RT CALC WHEN BELOW 300K FT
000357:                                                                                                  #  MOD NO: 2.1   MOD BY: RR BAIRNSFATHER DATE: 5 JULY 67         FIX ERROR IN MOD. 2.
000358:                                                                                                  #  MOD NO: 3     MOD BY: RR BAIRNSFATHER DATE: 12 JUL 67         CHANGE SIGN OF DISPLAYED ERROR.
000359:                                                                                                  #  MOD 4         MOD BY  S.ZELDIN        DATE  3 APRIL 68        CHANGE EQUATIONS FOR L/D=.18 WHICH REPLA
000360:
000361:                                                                                                  #  FUNCTION:     CALCULATE (FOR DISPLAY ON CALL) AN APPROXIMATE MEASURE OF IN-PLANE SPLASH DOWN
000362:                                                                                                  #                ERROR.  IF THE FREE-FALL TRANSFER ANGLE TO 300K FT ABOVE PAD RADIUS IS POSITIVE:
000363:                                                                                                  #                SPLASH ERROR= -RANGE TO TARGET + FREE-FALL TRANSFER ANGLE + ESTIMATED ENTRY ANGLE.
000364:                                                                                                  #                THE TARGET LOCATION AT ESTIMATED TIME OF IMPACT IS USED.  IF THE FREE-FALL TRANSFER
000365:                                                                                                  #                ANGLE IS NEGATIVE:  SPLASH ERROR= -RANGE TO TARGET
000366:                                                                                                  #                THE PRESENT TARGET LOCATION IS USED.
000367:
000368:                                                                                                  #  CALLING SEQUENCE  CALLED AFTER SR30.1 IF IN CSM AND IF P11 OPERATING (UNDER CONTROL OF V82)
000369:
000370:                                                                                                  #  SUBROUTINES CALLED:  VGAMCALC, TFF/TRIG, LALOTORV.
000371:
000372:                                                                                                  #  EXIT          RETURN DIRECTLY TO V 82 PROG. AT SPLRET
000373:
000374:                                                                                                  #  ERASABLE INITIALIZATION   LEFT BY SR30.1 AND V82GON1
000375:
000376:                                                                                                  #  OUTPUT:       RSP-RREC RANGE IN REVOLUTIONS                   DSKY DISPLAY IN N. MI.
000377:
000378:                                                                                                  #  DEBRIS:       QPRET, PDL0 ... PDL7, PDL10
000379:
000380:                                                                                                  #  THETA(1)
000381:
000382: 32,2017                                           BANK     32
000383: 32,2000                                           SETLOC   DELRSPL1
000384: 32,2000                                           BANK
000385: 32,2017                                           COUNT*   $$/P30                                #  PROGRAMS: P30 EXTERNAL DELTA V
000386:
000387: 32,2017           00011        DELRSPL            STORE    8D
000388: 32,2020           45244                           BPL      DSU
000389: 32,2021           64067                                    CANTDO                                #  GONE PAST 300K FT ALT
000390: 32,2022           16326                                    1BITDP
000391: 32,2023           45000                           BOV      CALL
000392: 32,2024           64067                                    CANTDO                                #  POSMAX INDICATES NO 300K FT SOLUTION.
000393: 32,2025           55050                                    VGAMCALC                              #  +GAMMA(REV) IN PMAC,V300 MAG(B-7)=PDL 0
000394: 32,2026           45006                           PUSH     CALL
000395: 32,2027           56632                                    TFF/TRIG
000396: 32,2030           77624                           CALL
000397: 32,2031           64075                                    AUGEKUGL
000398: 32,2032           65525                           PDDL     ACOS                                  #  T ENTRY PDL 6
000399: 32,2033           00017                                    CDELF/2
000400: 32,2034           77615                           DAD
000401: 32,2035           00005                                    4
000402: 32,2036           26350        GETARG             STOVL    THETA(1)
000403: 32,2037           03401                                    LAT(SPL)
000404: 32,2040           15104                           STODL    LAT
000405: 32,2041           15334                                    HI6ZEROS
000406: 32,2042           15110                           STODL    ALT                                   #  ALT=0 = LAT +4
000407: 32,2043           01205                                    PIPTIME
000408: 32,2044           71214                           BON      DLOAD
000409: 32,2045           03711                                    V37FLAG
000410: 32,2046           64050                                    +2
000411: 32,2047           02325                                    TSTART82
000412: 32,2050           43225                           DSU      DAD
000413: 32,2051           00011                                    8D
000414: 32,2052           45014                           CLEAR    CALL
000415: 32,2053           00662                                    ERADFLAG
000416: 32,2054           26447                                    LALOTORV                              #  R RECOV. IN ALPHAV AND MPAC
000417:
000418: 32,2055           63256                           UNIT     PDVL
000419: 32,2056           02327                                    RONE
000420: 32,2057           50256                           UNIT     DOT
000421: 32,2060           65552                           SL1      ARCCOS
000422: 32,2061           77621                           BDSU                                           #  ERROR = THETA EST - THETA TARG
000423:                                                                                                  #  NEGATIVE NUMBER SIGNIFIES THAT WILL FALL SHORT.
000424:                                                                                                  #  POSITIVE NUMBER SIGNIFIES THAT WILL OVERSHOOT.
000425: 32,2062           02350                                    THETA(1)
000426: 32,2063           36356        DELRDONE           STCALL   RSP-RREC                              #  DOWNRANGE RECOVERY RANGE ERROR        /360
000427: 32,2064           27461                                    INTWAKE0
000428: 32,2065           77624                           CALL
000429: 32,2066           46655                                    SPLRET
000430: 32,2067           65345        CANTDO             DLOAD    PDDL                                  #  INITIALIZE ERASE TO DOT TARGET AND UR
000431:                                                                                                  #  FOR RANGE ANGLE.
000432: 32,2070           15332                                    HIDPHALF                              #  TO PDL 0 FOR DEN INDDV.
000433: 32,2071           15334                                    HI6ZEROS
000434: 32,2072           77606                           PUSH                                           #  ZERO TO PDL 2 FOR PHI ENTRY
000435: 32,2073           34011                           STCALL   8D
000436: 32,2074           64036                                    GETARG                                #  GO SET RSP-RREC =0
000437:
000438: 32,2075           77775        AUGEKUGL           VLOAD
000439: 32,2076           24256                                    X1CON      -2
000440: 32,2077           14045                           STODL    X1         -2
000441: 32,2100           00001                                    0
000442: 32,2101           50025                           DSU      BMN
000443: 32,2102           24250                                    V(21K)
000444: 32,2103           64130                                    LOOPSET
000445: 32,2104           65060                           XSU,1    XCHX,2
000446: 32,2105           00050                                    S1
000447: 32,2106           00046                                    X1
000448: 32,2107           45324                           XCHX,2   DSU
000449: 32,2110           00050                                    S1
000450: 32,2111           24236                                    V(3K)
000451: 32,2112           65040                           BMN      XCHX,2
000452: 32,2113           64130                                    LOOPSET
000453: 32,2114           00050                                    S1
000454: 32,2115           50025                           DSU      BMN
000455: 32,2116           24246                                    V(4K)
000456: 32,2117           64130                                    LOOPSET
000457: 32,2120           65124                           XCHX,2   XCHX,2
000458: 32,2121           00050                                    S1
000459: 32,2122           00046                                    X1
000460: 32,2123           50025                           DSU      BMN
000461: 32,2124           24232                                    V(400)
000462: 32,2125           64130                                    LOOPSET
000463: 32,2126           77730                           SXA,1
000464: 32,2127           00050                                    S1
000465: 32,2130           52110        LOOPSET            INCR,1   GOTO
000466: 32,2131           00001                           DEC      1          B-14
000467: 32,2132           64135                                    K1K2LOOP
000468: 32,2133           77730        K2CALC             SXA,1
000469: 32,2134           00050                                    S1
000470: 32,2135           44745        K1K2LOOP           DLOAD    DSU*
000471: 32,2136           00001                                    0
000472: 32,2137           24245                                    V(32K)     +1,1
000473: 32,2140           42603                           DMP*     DAD*
000474: 32,2141           24231                                    YK1K2      +1,1
000475: 32,2142           24215                                    CK1K2      +1,1
000476: 32,2143           60125                           PDDL     TIX,1
000477: 32,2144           00003                                    2
000478: 32,2145           64133                                    K2CALC
000479: 32,2146           55225                           DSU      BDDV
000480: 32,2147           40006                           PUSH     BOV
000481: 32,2150           64173                                    MAXPHI
000482: 32,2151           45240                           BMN      DSU
000483: 32,2152           64173                                    MAXPHI
000484: 32,2153           24200                                    MAXPHIC
000485: 32,2154           77644                           BPL
000486: 32,2155           64173                                    MAXPHI
000487: 32,2156           45345        PHICALC            DLOAD    DSU                                   #  PHI ENTRY PDL 4D
000488: 32,2157           00001                                    0
000489: 32,2160           24256                                    V(26K)
000490: 32,2161           71244                           BPL      DLOAD
000491: 32,2162           64170                                    TGR26
000492: 32,2163           24252                                    TLESS26
000493: 32,2164           77671                           DDV
000494: 32,2165           00001                                    0
000495: 32,2166           43405        TENT               DMP      RVQ
000496: 32,2167           00005                                    4D
000497: 32,2170           52145        TGR26              DLOAD    GOTO
000498: 32,2171           24254                                    TGR26CON
000499: 32,2172           64166                                    TENT
000500:
000501: 32,2173           65345        MAXPHI             DLOAD    PDDL
000502: 32,2174           24200                                    MAXPHIC
000503: 32,2175           77650                           GOTO
000504: 32,2176           64156                                    PHICALC
000505: 32,2177           02755 01307  MAXPHIC            2DEC     .09259298                             #  2000 NM FOR MAXIMUM PHI ENTRY
000506:
000507:
000508: 32,2201                                           COUNT*   $$/P30
000509:
000510:                                                                                                  #                BELOW
000511:                                                                                                  #  <<<< TABLE IS INDEXED. KEEP IN ORDER >>>
000512:
000513: 32,2201           00013 22652                     2DEC     7.07304526 E-4                        #  5500
000514: 32,2203           00005 01642                     2DEC     3.08641975 E-4                        #  2400
000515: 32,2205           00005 01642                     2DEC     3.08641975 E-4                        #  2400
000516: 32,2207           77556 53522                     2DEC     -8.8888888 E-3                        #  -3.2
000517: 32,2211           00055 20266                     2DEC     2.7777777  E-3                        #  1
000518: 32,2213           00155 07202  CK1K2              2DEC     6.6666666  E-3                        #  2.4
000519: 32,2215           00000 00000                     2DEC     0          B-28                       #  0
000520: 32,2217           77730 71525                     2DEC*    -1.86909989 E-5        B7*             #  -.443
000521: 32,2221           00000 00000                     2DEC     0          B-28
000522: 32,2223           04445 10102                     2DEC*    1.11639691 E-3        B7*             #  .001225
000523: 32,2225           03726 31201                     2DEC*    9.56911636 E-4        B7*             #  .00105
000524: 32,2227           01040 26313  YK1K2              2DEC*    2.59733157 E-4        B7*             #  .000285
000525: 32,2231           00234 01660  V(400)             2DEC     1.2192     B-7
000526: 32,2233           25254 01014  V(28K)             2DEC     85.344     B-7
000527: 32,2235           02222 15646  V(3K)              2DEC     9.144      B-7
000528: 32,2237           22223 16457  V(24K)             2DEC     73.152     B-7
000529: 32,2241           25254 01014                     2DEC     85.344     B-7
000530: 32,2243           30304 23351  V(32K)             2DEC     97.536     B-7
000531: 32,2245           03030 22335  V(4K)              2DEC     12.192     B-7
000532: 32,2247           20000 00000  V(21K)             2DEC     64.000     B-7
000533: 32,2251           00033 05763  TLESS26            2DEC*    5.70146688 E7         B-35*           #  8660PHI/V
000534: 32,2253           00053 36200  TGR26CON           2DEC     7.2        E5         B-28            #  PHI/3
000535: 32,2255           23637 27636  V(26K)             2DEC     79.248     B-7                        #  26000
000536:
000537:
000538: 32,2257           00012        X1CON              DEC      10         B-14
000539: 32,2260           00010                           DEC      8          B-14
000540: 32,2261           00006                           DEC      6          B-14
000541:                                                                                                  #  <<<< TABLE IS INDEXED. KEEP IN ORDER >>>
000542:                                                                                                  #                     ABOVE
000543:                                                                                                  #  ..... AVFLAGA/P .....
000544:
000545:                                                                                                  #  SUBROUTINES USED
000546:
000547:                                                                                                  #        UPFLAG
000548:                                                                                                  #        DOWNFLAG
000549:
000550:    4000                                           SETLOC   P30SUBS
000551:    4000                                           BANK
000552:    4627  E4,1770                                  EBANK=   SUBEXIT
000553:    4627           00006        AVFLAGA            EXTEND                                         #  AVFLAG = CSM
000554:    4630           23770                           QXCH     SUBEXIT
000555:    4631           05574                           TC       DOWNFLAG
000556:    4632           00050                           ADRES    AVFLAG                                #  BIT 5 FLAG 2
000557:    4633           35074                           CAF      EBANK7
000558:    4634           54003                           TS       EBANK
000559:    4635  E7,1424                                  EBANK=   ECSTEER
000560:    4635           35017                           CAF      BIT13
000561:    4636           55424                           TS       ECSTEER                               #  SET ECSTEER = 1
000562:    4637           35021                           CAF      EBANK4
000563:    4640           54003                           TS       EBANK
000564:    4641  E4,1770                                  EBANK=   SUBEXIT
000565:    4641           01770                           TC       SUBEXIT
000566:    4642           00006        AVFLAGP            EXTEND                                         #  AVFLAG = LEM
000567:    4643           23770                           QXCH     SUBEXIT
000568:    4644           05562                           TC       UPFLAG
000569:    4645           00050                           ADRES    AVFLAG                                #  BIT 5 FLAG 2
000570:    4646           01770                           TC       SUBEXIT
000571:    4647           00006        P20FLGON           EXTEND
000572:    4650           23770                           QXCH     SUBEXIT
000573:    4651           05562                           TC       UPFLAG
000574:    4652           00031                           ADRES    TRACKFLG
000575:    4653           05562                           TC       UPFLAG
000576:    4654           00027                           ADRES    UPDATFLG
000577:    4655           01770                           TC       SUBEXIT                               #  DP B4
000578:
000579:

End of include-file P30,P37.agc.  Parent file is MAIN.agc


