
Source Code


000002:                                                                                                  ## Copyright:   Public domain.
000003:                                                                                                  ## Filename:    P37,P70.agc
000004:                                                                                                  ## Purpose:     A section of Manche72 revision 3.
000005:                                                                                                  ##              It is part of the reconstructed source code for the final, flown
000006:                                                                                                  ##              release of the software for the Command Module's (CM) Apollo
000007:                                                                                                  ##              Guidance Computer (AGC) for Apollo 13. No original listings
000008:                                                                                                  ##              of this program are available; instead, this file was recreated
000009:                                                                                                  ##              from a reconstructed copy of Comanche 072. It has been adapted
000010:                                                                                                  ##              such that the resulting bugger words exactly match those
000011:                                                                                                  ##              specified for Manche72 revision 3 in NASA drawing 2021153G,
000012:                                                                                                  ##              which gives relatively high confidence that the reconstruction
000013:                                                                                                  ##              is correct.
000014:                                                                                                  ## Assembler:   yaYUL
000015:                                                                                                  ## Contact:     Ron Burkey <info@sandroid.org>.
000016:                                                                                                  ## Website:     www.ibiblio.org/apollo/index.html
000017:                                                                                                  ## Mod history: 2024-05-19 MAS  Created from Comanche 072.
000018:
000019: 31,3704                                           BANK     31
000020: 36,2000                                           SETLOC   RTE1
000021: 36,2000                                           BANK
000022:
000023: 36,2466  E7,1631                                  EBANK=   RTEDVD
000024: 36,2466                                           COUNT    31/P37
000025:
000026:                                                                                                  #  PROGRAM DESCRIPTION - P37, RETURN TO EARTH
000027:
000028:                                                                                                  #  DESCRIPTION
000029:                                                                                                  #        A RETURN TO EARTH TRAJECTORY IS COMPUTED PROVIDED THE CSM IS OUTSIDE THE LUNAR SPHERE OF INFLUENCE AT THE
000030:                                                                                                  #        TIME OF IGNITION.  INITIALLY A CONIC TRAJECTORY IS DETERMINED AND RESULTING IGNITION AND REENTRY PARAMETERS ARE
000031:                                                                                                  #        DISPLAYED TO THE ASTRONAUT.  THEN IF THE ASTRONAUT SO DESIRES, A PRECISION TRAJECTORY IS DETERMINED WITH THE
000032:                                                                                                  #        RESULTING IGNITION AND REENTRY PARAMETERS DISPLAYED.  UPON FINAL ACCEPTANCE BY THE ASTRONAUT, THE PROGRAM
000033:                                                                                                  #        COMPUTES AND STORES THE TARGET PARAMETERS FOR RETURN TO EARTH FOR USE BY SPS PROGRAM (P40) OR RCS PROGRAM (P41).
000034:
000035:                                                                                                  #  CALLING SEQUENCE
000036:                                                                                                  #        L       TC      P37
000037:
000038:                                                                                                  #  SUBROUTINES CALLED
000039:                                                                                                  #        PREC100
000040:                                                                                                  #                V2T100
000041:                                                                                                  #                RTENCK2
000042:                                                                                                  #                RTENCK3
000043:                                                                                                  #                TIMERAD
000044:                                                                                                  #                PARAM
000045:                                                                                                  #        V2T100
000046:                                                                                                  #                GAMDV10
000047:                                                                                                  #                XT1LIM
000048:                                                                                                  #                DVCALC
000049:                                                                                                  #        RTENCK1
000050:                                                                                                  #                INTSTALL
000051:                                                                                                  #                INTEGRVS
000052:                                                                                                  #        RTEVN
000053:                                                                                                  #                RTEDISP
000054:                                                                                                  #                TMRAD100
000055:                                                                                                  #                AUGEKUGL
000056:                                                                                                  #                LAT-LONG
000057:                                                                                                  #        TMRAD100
000058:                                                                                                  #                TIMERAD
000059:                                                                                                  #        INVC100
000060:                                                                                                  #                CSMPREC
000061:                                                                                                  #        GETERAD
000062:                                                                                                  #        TIMETHET
000063:                                                                                                  #        P370ALRM
000064:                                                                                                  #        VN1645
000065:                                                                                                  #        POLY
000066:
000067:                                                                                                  #  ERASABLE INITIALIZATION REQUIRED
000068:                                                                                                  #        CSM STATE VECTOR
000069:                                                                                                  #        NJETSFLG        NUMBER OF JETS IF THE RCS PROPULSION SYSTEM SELECTED    STATE FLAG      0=4 JETS  1=2 JETS
000070:
000071:                                                                                                  #  ASTRONAUT INPUT
000072:                                                                                                  #        SPRTETIG        TIME OF IGNITION (OVERLAYS TIG)                         DP      B28     CS
000073:                                                                                                  #        VPRED           DESIRED CHANGE IN VELOCITY AT TIG(PROGRM COMPUTED IF 0) DP      B7      METERS/CS
000074:                                                                                                  #        GAMMAEI         DESIRED FLIGHT PATH ANGLE AT REENTRY (COMPUTED IF 0)    DP      B0      REVS + ABOVE HORIZ.
000075:                                                                                                  #        OPTION2         PROPULSION SYSTEM OPTION                                SP      B14     1=SPS, 2=RCS
000076:
000077:                                                                                                  #  OUTPUT
000078:                                                                                                  #     CONIC OR PRECISION TRAJECTORY DISPLAY
000079:                                                                                                  #        VPRED           VELOCITY MAGNITUDE AT 400,000 FT. ENTRY ALTITUDE        DP      B7      METERS/CS
000080:                                                                                                  #        T3TOT4          TRANSIT TIME TO 400,000 FT. ENTRY ALTITUDE              DP      B28     CS
000081:                                                                                                  #        GAMMAEI         FLIGHT PATH ANGLE AT 400,000 FT. ENTRY ALTITUDE         DP      B0      REVS + ABOVE HORIZON
000082:                                                                                                  #        DELVLVC         INITIAL VELOCITY CHANGE VECTOR IN LOCAL VERTICAL COORD. VECTOR  B7      METERS/CS
000083:                                                                                                  #        LAT(SPL)        LATITUDE OF THE LANDING SITE                            DP      B0      REVS
000084:                                                                                                  #        LNG(SPL)        LONGITUDE OF THE LANDING SITE                           DP      B0      REVS
000085:                                                                                                  #     TARGETING COMPUTATION DISPLAY
000086:                                                                                                  #        TIG             RECOMPUTED TIG BASED ON THRUST OPTION                   DP      B28     CS
000087:                                                                                                  #        TTOGO           TIME FROM TIG                                           DP      B28     CS
000088:                                                                                                  #        +MGA            POSITIVE MIDDLE GIMBAL ANGLE                            DP      B0      REVS -.02 IF REFSMFLG=0
000089:                                                                                                  #     THRUST PROGRAM COMMUNICATION
000090:                                                                                                  #        XDELVFLG        EXTERNAL DELTA V FLAG                                   STATE   FLAG    SET 0 FOR LAMBERT AIMPT
000091:                                                                                                  #        NORMSW          LAMBERT AIMPT ROTATION SWITCH                           STATE   FLAG    SET 0 FOR NO ROTATION
000092:                                                                                                  #        ECSTEER         CROSS PRODUCT STEERING CONSTANT                         SP      B2      SET 1
000093:                                                                                                  #        RTARG           CONICALLY INTEGRATED REENTRY POSITION VECTOR            VECTOR  B29     METERS
000094:                                                                                                  #        TPASS4          REENTRY TIME                                            DP      B28     CS
000095:
000096: 36,2466           05426        P37                TC       PHASCHNG                              #  P37 IS NOT RESTARTABLE.
000097: 36,2467           00004                           OCT      4
000098:
000099: 36,2470           06006                           TC       INTPRET
000100: 36,2471           66170                           AXT,1    SXA,1
000101: 36,2472           04000                           OCT      04000
000102: 36,2473           03424                                    ECSTEER
000103: 36,2474           77745                           DLOAD
000104: 36,2475           15334                                    ZEROVECS
000105: 36,2476           03767                           STORE    VPRED
000106: 36,2477           03771                           STORE    GAMMAEI
000107: 36,2500           77776                           EXIT
000108: 36,2501           33252                           CAF      V6N33RTE                              #  INPUT TIG     STORED IN SPRTETIG
000109: 36,2502           03241                           TCR      P370GOF                               #                OVERLAYED WITH TIG
000110: 36,2503           12501                           TCF      -2                                    #  DESPLAY NEW DATA
000111: 36,2504           33256                           CAF      V6N60RTE                              #  INPUT REENTRY ANGLE IN GAMMAEI
000112: 36,2505           03215                           TCR      P37GFRB1                              #        AND DESIRED DELTA V IN RTEDVD
000113: 36,2506           12504                           TCF      -2                                    #  DISPLAY NEW DATA
000114: 36,2507           06006        RTE299             TC       INTPRET
000115: 36,2510           71331                           SSP      DLOAD
000116: 36,2511           00122                                    OVFIND
000117: 36,2512           00000                                    0
000118: 36,2513           03767                                    VPRED
000119: 36,2514           17632                           STODL    RTEDVD
000120: 36,2515           03771                                    GAMMAEI
000121: 36,2516           17634                           STODL    RTEGAM2D
000122: 36,2517           33514                                    1RTEB13
000123: 36,2520           17735                           STODL    CONICX1
000124: 36,2521           33620                                    C4RTE
000125: 36,2522           37652                           STCALL   MAMAX1
000126: 36,2523           64450                                    INVC100                               #  GET R(T1)/,V(T1)/,UR1/,UH/
000127: 36,2524           71214                           CLEAR    DLOAD
000128: 36,2525           02662                                    SLOWFLG
000129: 36,2526           03632                                    RTEDVD
000130: 36,2527           51444                           BPL      ABS
000131: 36,2530           74540                                    RTE317
000132: 36,2531           03632                           STORE    RTEDVD
000133: 36,2532           45345                           DLOAD    DSU
000134: 36,2533           03646                                    R(T1)
000135: 36,2534           33622                                    K1RTE
000136: 36,2535           43040                           BMN      SET
000137: 36,2536           74540                                    RTE317
000138: 36,2537           02462                                    SLOWFLG
000139: 36,2540           77545        RTE317             DLOAD    EXIT
000140: 36,2541           03646                                    R(T1)
000141: 36,2542           07171                           TC       POLY
000142: 36,2543           00002                           DEC      2          B-14
000143: 36,2544           02544 35436                     2DEC     181000434. B-31
000144: 36,2546           14040 05066                     2DEC     1.50785145 B-2
000145: 36,2550           44052 60030                     2DEC*    -6.49993057 E-9        B27*
000146: 36,2552           26415 25057                     2DEC*    9.76938926 E-18       B56*
000147: 36,2554           06006                           TC       INTPRET
000148: 36,2555           77752                           SL1
000149: 36,2556           17654                           STODL    MAMAX2                                #  C0+C1*R+C2*R**2+C3*R**3=MAMAX2 B30
000150: 36,2557           33544                                    M9RTEB28
000151: 36,2560           17730                           STODL    NN1A
000152: 36,2561           33624                                    K2RTE
000153: 36,2562           17636        RTE320             STODL    RCON                                  #  RCON=K2
000154: 36,2563           03634                                    RTEGAM2D
000155: 36,2564           44254                           BZE      BDSU
000156: 36,2565           74574                                    RTE340                                #  GOTORTE340 IF REENTRY ANGLE NOT INPUT
000157: 36,2566           33502                                    1RTEB2
000158: 36,2567           71406                           PUSH     COS                                   #                                        PL02D
000159: 36,2570           73525                           PDDL     SIN
000160: 36,2571           45465                           BDDV     STADR                                 #                                        PL00D
000161: 36,2572           40051                           STCALL   X(T2)                                 #  X(T2)=COT(GAM2D)                      B0
000162: 36,2573           74607                                    RTE360
000163: 36,2574           45345        RTE340             DLOAD    DSU
000164: 36,2575           03646                                    R(T1)
000165: 36,2576           33622                                    K1RTE
000166: 36,2577           71240                           BMN      DLOAD
000167: 36,2600           74604                                    RTE350
000168: 36,2601           33630                                    K4RTE
000169: 36,2602           37726                           STCALL   X(T2)                                 #  X(T2)=K4
000170: 36,2603           74607                                    RTE360
000171: 36,2604           77745        RTE350             DLOAD
000172: 36,2605           33626                                    K3RTE
000173: 36,2606           03726                           STORE    X(T2)                                 #  X(T2)=K3
000174: 36,2607           77624        RTE360             CALL
000175: 36,2610           65075                                    V2T100
000176: 36,2611           52054                           BZE      GOTO
000177: 36,2612           74614                                    RTE367
000178: 36,2613           74776                                    RTEALRM
000179: 36,2614           77775        RTE367             VLOAD
000180: 36,2615           03640                                    R(T1)/
000181: 36,2616           16657                           STODL    RVEC
000182: 36,2617           03636                                    RCON
000183: 36,2620           26760                           STOVL    RDESIRED
000184: 36,2621           03700                                    V2(T1)/
000185: 36,2622           36746                           STCALL   VVEC
000186: 36,2623           64277                                    TMRAD100
000187: 36,2624           77615                           DAD
000188: 36,2625           03716                                    T1
000189: 36,2626           17736                           STODL    T2
000190: 36,2627           03634                                    RTEGAM2D
000191: 36,2630           52054                           BZE      GOTO
000192: 36,2631           74633                                    RTE369
000193: 36,2632           74655                                    RTE372
000194: 36,2633           51575        RTE369             VLOAD    ABVAL
000195: 36,2634           03710                                    V(T2)/
000196: 36,2635           77776                           EXIT
000197: 36,2636           07171                           TC       POLY
000198: 36,2637           00002                           DEC      2          B-14
000199: 36,2640           00000 00000                     2DEC     0          B-28
000200: 36,2642           47021 65002                     2DEC     -4.8760771 E-2        B4
000201: 36,2644           35610 07722                     2DEC     4.5419476  E-4        B11
000202: 36,2646           63772 63276                     2DEC     -1.4317675 E-6        B18
000203:
000204: 36,2650           06006                           TC       INTPRET
000205: 36,2651           77615                           DAD
000206: 36,2652           01346                                    RTED1
000207: 36,2653           52052                           SL3      GOTO                                  #  X(T2),=D1+D2V2+D3V2**2+D4V2**3
000208: 36,2654           74657                                    RTE373
000209: 36,2655           77745        RTE372             DLOAD                                          #  X(T2),=X(T2)
000210: 36,2656           03726                                    X(T2)
000211: 36,2657           41425        RTE373             DSU      PUSH                                  #  X(T2)ERR                              B0 PL02D
000212: 36,2660           03726                                    X(T2)
000213: 36,2661           53575                           VLOAD    UNIT
000214: 36,2662           03656                                    R(T2)/                                #                                        B58
000215: 36,2663           36152                           STCALL   ALPHAV
000216: 36,2664           26513                                    GETERAD
000217: 36,2665           77615                           DAD
000218: 36,2666           33634                                    E3RTE
000219: 36,2667           45206                           PUSH     DSU                                   #  RCON,=(E1/(1+E2BETA11)**.5)+E3        B29 PL04D
000220: 36,2670           03636                                    RCON
000221: 36,2671           45246                           ABS      DSU
000222: 36,2672           33600                                    EPC2RTE
000223: 36,2673           52040                           BMN      GOTO
000224: 36,2674           74676                                    RTE374
000225: 36,2675           74703                                    RTE375
000226: 36,2676           51545        RTE374             DLOAD    ABS
000227: 36,2677           00001                                    00D
000228: 36,2700           50025                           DSU      BMN
000229: 36,2701           33602                                    EPC3RTE
000230: 36,2702           74753                                    P37E
000231: 36,2703           43345        RTE375             DLOAD    DAD
000232: 36,2704           03730                                    NN1A
000233: 36,2705           33522                                    1RTEB28
000234: 36,2706           67240                           BMN      SLOAD
000235: 36,2707           74713                                    RTE380
000236: 36,2710           33562                                    OCT605
000237: 36,2711           77650                           GOTO
000238: 36,2712           74776                                    RTEALRM                               #  TOO MANY ITERATIONS
000239: 36,2713           03730        RTE380             STORE    NN1A
000240: 36,2714           53025                           DSU      BZE
000241: 36,2715           33546                                    M8RTEB28
000242: 36,2716           74734                                    RTE385
000243: 36,2717           45345                           DLOAD    DSU
000244: 36,2720           00001                                    00D
000245: 36,2721           03666                                    DRCON
000246: 36,2722           65301                           NORM     PDDL                                  #  X(T2)ERR-X(T2)ERR,=Z1                 PL06D
000247: 36,2723           00047                                    X1
000248: 36,2724           03670                                    RPRE'
000249: 36,2725           56225                           DSU      DDV                                   #  X(T2)PRI-X(T2)=Z2                     PL04D
000250: 36,2726           03726                                    X(T2)
000251: 36,2727           53605                           DMP      SL*                                   #  DX(T2)=X(T2)ERR(Z2/Z1)
000252: 36,2730           00001                                    00D
000253: 36,2731           20201                                    0,1
000254: 36,2732           77650                           GOTO
000255: 36,2733           74736                                    RTE390
000256: 36,2734           77745        RTE385             DLOAD                                          #  DX(T2)=X(T2)ERR
000257: 36,2735           00001                                    00D
000258: 36,2736           14021        RTE390             STODL    16D                                   #  DX(T2)                                PL02D
000259: 36,2737           77626                           STADR
000260: 36,2740           60141                           STODL    RCON                                  #  RCON=RCON,
000261: 36,2741           77600                           BOV
000262: 36,2742           74607                                    RTE360
000263: 36,2743           17666                           STODL    DRCON                                 #  X(T2)ERR,=X(T2)ERR
000264: 36,2744           03726                                    X(T2)
000265: 36,2745           17670                           STODL    RPRE'                                 #  X(T2)PRI=X(T2)
000266: 36,2746           00021                                    16D
000267: 36,2747           77615                           DAD
000268: 36,2750           03726                                    X(T2)
000269: 36,2751           37726                           STCALL   X(T2)                                 #  X(T2)=X(T2)+DX(T2)
000270: 36,2752           74607                                    RTE360                                #  REITERATE
000271: 36,2753           77624        P37E               CALL                                           #  DISPLAY CONIC SOLUTION
000272: 36,2754           75002                                    RTEVN
000273: 36,2755           41345        RTE505             DLOAD    DMP
000274: 36,2756           03720                                    PCON
000275: 36,2757           03754                                    BETA1
000276: 36,2760           53021                           BDSU     BZE
000277: 36,2761           03636                                    RCON
000278: 36,2762           74770                                    RTE510
000279: 36,2763           71240                           BMN      DLOAD
000280: 36,2764           74770                                    RTE510
000281: 36,2765           33502                                    1RTEB2
000282: 36,2766           77650                           GOTO                                           #  ENTRY NEAR APOGEE
000283: 36,2767           74772                                    RTE515
000284: 36,2770           57545        RTE510             DLOAD    DCOMP                                 #  ENTRY NEAR PERIGEE
000285: 36,2771           33502                                    1RTEB2
000286: 36,2772           37761        RTE515             STCALL   PHI2
000287: 36,2773           64541                                    PREC100                               #  PRECISION TRAJECTORY COMPUTATION
000288: 36,2774           77654        RTE625             BZE
000289: 36,2775           75030                                    P37G
000290: 36,2776           77624        RTEALRM            CALL
000291: 36,2777           64262                                    P370ALRM
000292: 36,3000           77776                           EXIT
000293: 36,3001           12466                           TCF      P37                                   #  RECYCLE AFTER ALARM DISPLAY
000294:
000295:                                                                                                  #  RETURN TO EARTH DISPLAY SUBROUTINE
000296:
000297: 36,3002           45020        RTEVN              STQ      CALL
000298: 36,3003           03763                                    VNSTORE
000299: 36,3004           64316                                    RTEDISP                               #  DISPLAY PREPARATION
000300: 36,3005           77776                           EXIT
000301: 36,3006           33254                           CAF      V6N61RTE                              #  LATITUDE,LONGITUDE,BLANK
000302: 36,3007           03225                           TCR      P370GOFR                              #    IN LAT(SPL),LNG(SPL),-
000303: 36,3010           35031                           CAF      FOUR
000304: 36,3011           03221                           TCR      37BLANK    +1
000305: 36,3012           13017                           TCF      +5
000306: 36,3013           12466                           TCF      P37                                   #  RECYCLE
000307: 36,3014           33255                           CAF      V6N39RTE                              #  T21 HRS,MIN,SEC IN T3TOT4
000308: 36,3015           03241                           TCR      P370GOF
000309: 36,3016           12466                           TCF      P37                                   #  RECYCLE
000310: 36,3017           33256                           CAF      V6N60RTE                              #  DISPLAY BLANK,V(T2),FPA2
000311: 36,3020           03215                           TCR      P37GFRB1                              #    IN -,VPRED,GAMMAEI
000312: 36,3021           12466                           TCF      P37                                   #  RECYCLE
000313: 36,3022           33257                           CAF      V6N81RTE                              #  DISPLAY DELTA V (LV) IN DELVLVC
000314: 36,3023           03241                           TCR      P370GOF
000315: 36,3024           12466                           TCF      P37                                   #  RECYCLE
000316: 36,3025           06006                           TCR      INTPRET
000317: 36,3026           77650                           GOTO
000318: 36,3027           03763                                    VNSTORE
000319:
000320:                                                                                                  #  PRECISION DISPLAY, TARGETING COMPUTATION AND RTE END PROCESSING
000321:
000322: 36,3030           77624        P37G               CALL
000323: 36,3031           75002                                    RTEVN
000324: 36,3032           77776                           EXIT
000325: 36,3033           35037        P37N               CAF      SEVEN
000326: 36,3034           55131                           TS       OPTION1
000327: 36,3035           35033                           CAF      ONE
000328: 36,3036           55132                           TS       OPTION2
000329: 36,3037           33253                           CAF      V4N06RTE                              #  DISPLAY RCS OR SPS OPTION  SPS ASSUMED
000330: 36,3040           03241                           TCR      P370GOF
000331: 36,3041           13037                           TCF      -2                                    #  RECYCLE
000332: 36,3042           06006                           TC       INTPRET                               #  PROCEED
000333: 36,3043           67201                           SETPD    SLOAD
000334: 36,3044           00001                                    00D
000335: 36,3045           01133                                    OPTION2
000336: 36,3046           53025                           DSU      BZE
000337: 36,3047           33514                                    1RTEB13
000338: 36,3050           75057                                    P37Q
000339: 36,3051           60335                           SLOAD    NORM                                  #  SPS
000340: 36,3052           00111                                    EMDOT
000341: 36,3053           00047                                    X1
000342: 36,3054           52125                           PDDL     GOTO
000343: 36,3055           33552                                    VCSPS
000344: 36,3056           75070                                    P37T
000345: 36,3057           43145        P37Q               DLOAD    BON                                   #  RCS
000346: 36,3060           33556                                    MDOTRCS
000347: 36,3061           00700                                    NJETSFLG
000348: 36,3062           75064                                    P37R
000349: 36,3063           77752                           SL1
000350: 36,3064           77752        P37R               SL1
000351: 36,3065           65301                           NORM     PDDL
000352: 36,3066           00047                                    X1
000353: 36,3067           33554                                    VCRCS
000354: 36,3070           56325        P37T               PDDL     DDV                                   #  DV/VC                 B7 -B5 = B2     PL02D
000355: 36,3071           03706                                    DV
000356: 36,3072           77776                           EXIT
000357: 36,3073           07171                           TC       POLY
000358: 36,3074           00001                           DEC      1          B-14
000359: 36,3075           00001 05070                     2DEC     5.66240507 E-4        B-3
000360: 36,3077           17527 36700                     2DEC     9.79487897 E-1        B-1
000361: 36,3101           47114 70670                     2DEC     -.388281955 B1
000362: 36,3103           06006                           TC       INTPRET
000363: 36,3104           67206                           PUSH     SLOAD                                 #  (1-E)**(-DV/VC)=A             B3      PL04D
000364: 36,3105           03076                                    WEIGHT/G
000365: 36,3106           56205                           DMP      DDV                                   #  DTB=(M0/MDOT)A        B16+B3-B3=B16   PL00D
000366: 36,3107           41257                           SL*      DMP
000367: 36,3110           20165                                    0          -12D,1
000368: 36,3111           33560                                    CSUBT
000369: 36,3112           77621                           BDSU
000370: 36,3113           03716                                    T1
000371: 36,3114           03413                           STORE    TIG                                   #  TIG=T1-CT*DTB                 B28
000372: 36,3115           77776                           EXIT
000373: 36,3116           33252                           CAF      V6N33RTE                              #  DISPLAY BIASED TIG
000374: 36,3117           03241                           TCR      P370GOF
000375: 36,3120           13116                           TCF      -2
000376: 36,3121           35035                           CAF      ZERO
000377: 36,3122           55125                           TS       VHFCNT
000378: 36,3123           55126                           TS       TRKMKCNT
000379: 36,3124           06006                           TC       INTPRET
000380: 36,3125           77624                           CALL                                           #  CONICALLY INTEGRATE FROM R1,V1 OVER T12
000381: 36,3126           63704                                    RTENCK1
000382: 36,3127           53575                           VLOAD    UNIT                                  #                                        PL00D
000383: 36,3130           03656                                    R(T2)/
000384: 36,3131           74315                           PDVL     VXSC                                  #  UR2                           B1      PL06D
000385: 36,3132           03740                                    UR1/
000386: 36,3133           33564                                    MCOS7.5
000387: 36,3134           74315                           PDVL     VXSC                                  #  -UR1(COS7.5)                  B1      PL12D
000388: 36,3135           03746                                    UH/
000389: 36,3136           33566                                    MSIN7.5
000390: 36,3137           50255                           VAD      DOT                                   #  K/=-UR1(COS7.5)-UH(SIN7.5)    B2      PL00D
000391: 36,3140           50015                           DAD      BMN
000392: 36,3141           33570                                    MCOS22.5
000393: 36,3142           75167                                    P37W
000394: 36,3143           50375                           VLOAD    DOT                                   #  K/ . UR2 GR COS22.5
000395: 36,3144           03746                                    UH/
000396: 36,3145           03656                                    R(T2)/
000397: 36,3146           71240                           BMN      DLOAD
000398: 36,3147           75153                                    P37U
000399: 36,3150           33572                                    THETA165
000400: 36,3151           52006                           PUSH     GOTO
000401: 36,3152           75155                                    P37V
000402: 36,3153           41545        P37U               DLOAD    PUSH
000403: 36,3154           33574                                    THETA210
000404: 36,3155           77756        P37V               SIN
000405: 36,3156           16732                           STODL    SNTH
000406: 36,3157           43146                           COS      CLEAR
000407: 36,3160           03666                                    RVSW
000408: 36,3161           26734                           STOVL    CSTH
000409: 36,3162           03640                                    R(T1)/
000410: 36,3163           26657                           STOVL    RVEC
000411: 36,3164           03700                                    V2(T1)/
000412: 36,3165           36746                           STCALL   VVEC
000413: 36,3166           24744                                    TIMETHET
000414: 36,3167           43014        P37W               CLEAR    CLEAR
000415: 36,3170           01267                                    XDELVFLG
000416: 36,3171           03665                                    NORMSW
000417: 36,3172           77214                           SET      VLOAD
000418: 36,3173           01071                                    FINALFLG
000419: 36,3174           77626                           STADR
000420: 36,3175           60362                           STODL    RTARG
000421: 36,3176           00037                                    T
000422: 36,3177           77615                           DAD
000423: 36,3200           03716                                    T1
000424: 36,3201           27656                           STOVL    TPASS4
000425: 36,3202           03700                                    V2(T1)/


000434: 36,3203           77451                           VSU      EXIT
000435: 36,3204           03672                                    V(T1)/
000436: 36,3205           35021                           CAF      EBANK4
000437: 36,3206           54003                           TS       EBANK
000438: 36,3207           06006                           TC       INTPRET
000439: 36,3210           03646                           STORE    DELVSIN
000440: 36,3211           77624        P37WW              CALL
000441: 36,3212           73002                                    VN1645
000442: 36,3213           77650                           GOTO
000443: 36,3214           75211                                    P37WW
000444:
000445:                                                                                                  #  SUBROUTINE TO GO TO GOFLASHR AND BLANK R1
000446:
000447: 36,3215           00006        P37GFRB1           EXTEND
000448: 36,3216           23762                           QXCH     SPRTEX
000449: 36,3217           03225                           TCR      P370GOFR
000450: 36,3220           35033        37BLANK            CAF      ONE
000451: 36,3221           05542                           TCR      BLANKET
000452: 36,3222           15233                           TCF      ENDOFJOB
000453: 36,3223           01762                           TC       SPRTEX                                #  RECYCLE
000454: 36,3224           13250                           TCF      P37PROC                               #  PROCEED
000455:
000456:                                                                                                  #  SUBROUTINE TO GO TO GOFLASHR
000457:
000458: 36,3225           00006        P370GOFR           EXTEND
000459: 36,3226           23733                           QXCH     RTENCKEX
000460: 36,3227           04676                           TCR      BANKCALL
000461: 36,3230           21057                           CADR     GOFLASHR
000462: 36,3231           14106                           TCF      GOTOPOOH                              #  TERMINATE
000463: 36,3232           13235                           TCF      +3
000464: 36,3233           13237                           TCF      +4
000465: 36,3234           01733                           TC       RTENCKEX                              #  IMMEDIATE RETURN
000466: 36,3235           51733                           INDEX    RTENCKEX                              #  PROCEED
000467: 36,3236           10004                           TCF      0          +4
000468: 36,3237           51733                           INDEX    RTENCKEX                              #  RECYCLE
000469: 36,3240           10003                           TCF      0          +3
000470:
000471:                                                                                                  #  SUBROUTINE TO GO TO GOFLASH
000472:
000473: 36,3241           00006        P370GOF            EXTEND
000474: 36,3242           23762                           QXCH     SPRTEX
000475: 36,3243           04676                           TCR      BANKCALL
000476: 36,3244           20720                           CADR     GOFLASH
000477: 36,3245           14106                           TCF      GOTOPOOH
000478: 36,3246           13250                           TCF      +2
000479: 36,3247           01762                           TC       SPRTEX
000480: 36,3250           51762        P37PROC            INDEX    SPRTEX
000481: 36,3251           10001                           TCF      0          +1
000482: 36,3252           01441        V6N33RTE           VN       0633
000483: 36,3253           01006        V4N06RTE           VN       0406
000484: 36,3254           01475        V6N61RTE           VN       0661
000485: 36,3255           01447        V6N39RTE           VN       0639
000486: 36,3256           01474        V6N60RTE           VN       0660
000487: 36,3257           01521        V6N81RTE           VN       0681
000488: 32,2262                                           BANK     32
000489: 32,2000                                           SETLOC   RTE
000490: 32,2000                                           BANK
000491: 32,2262                                           COUNT    32/RTE
000492:
000493:                                                                                                  #  ALARM DISPLAY SUBROUTINE
000494:
000495: 32,2262           77420        P370ALRM           STQ      EXIT
000496: 32,2263           03762                                    SPRTEX
000497: 32,2264           30154                           CA       MPAC
000498: 32,2265           05770                           TC       VARALARM
000499: 32,2266           32276                           CAF      V5N09RTE
000500: 32,2267           04676                           TC       BANKCALL
000501: 32,2270           20720                           CADR     GOFLASH
000502: 32,2271           14106                           TCF      GOTOPOOH
000503: 32,2272           12266                           TCF      -4
000504: 32,2273           06006                           TC       INTPRET
000505: 32,2274           77650                           GOTO
000506: 32,2275           03762                                    SPRTEX
000507: 32,2276           01211        V5N09RTE           VN       0509
000508:
000509:                                                                                                  #  TIME RADIUS CALLING SUBROUTINE
000510:
000511:                                                                                                  #  INPUT
000512:                                                                                                  #        RVEC            INITIAL POSITION VECTOR                                 VECTOR  B29     METERS
000513:                                                                                                  #        VVEC            INITIAL VELOCITY VECTOR                                 VECTOR  B7      METERS/CS
000514:                                                                                                  #        RDESIRED        FINAL RADIUS FOR WHICH TRANSFER TIME IS TO BE COMPUTED  DP      B29     METERS
000515:                                                                                                  #        CONICX1         X1 SETTING FOR CONIC SUBROUTINES  -2=EARTH              SP      B14
000516:
000517:                                                                                                  #  OUTPUT
000518:                                                                                                  #        R(T2)/          FINAL POSITION VECTOR                                   VECTOR  B29     METERS
000519:                                                                                                  #        V(T2)/          FINAL VELOCITY VECTOR                                   VECTOR  B7      METERS/CS
000520:                                                                                                  #        T12             TRANSFER TIME TO FINAL RADIUS                           DP      B28     CS
000521:
000522: 32,2277           43020        TMRAD100           STQ      CLEAR
000523: 32,2300           03733                                    RTENCKEX
000524: 32,2301           03666                                    RVSW
000525: 32,2302           67164                           AXC,2    SXA,2
000526: 32,2303           20000                           OCT      20000
000527: 32,2304           02756                                    SGNRDOT
000528: 32,2305           45140                           LXC,1    CALL
000529: 32,2306           03734                                    CONICX1
000530: 32,2307           25566                                    TIMERAD
000531: 32,2310           27710                           STOVL    V(T2)/                                #                                        PL00D
000532: 32,2311           77626                           STADR
000533: 32,2312           60121                           STODL    R(T2)/
000534: 32,2313           00037                                    T
000535: 32,2314           37724                           STCALL   T12
000536: 32,2315           03733                                    RTENCKEX
000537:
000538:                                                                                                  #  DISPLAY CALCULATION SUBROUTINE
000539:
000540:                                                                                                  #  DESCRIPTION
000541:                                                                                                  #        OUTPUT FOR DISPLAY IS CONVERTED TO PROPER UNITS AND PLACED IN OUTPUT STORAGE REGISTERS.  LANDING SITE
000542:                                                                                                  #        COMPUTATION FOR DETERMINING LANDING SITE LATITUDE AND LONGITUDE IS INCLUDED IN THE ROUTINE.
000543:
000544:                                                                                                  #  CALLING SEQUENCE
000545:                                                                                                  #        L       CALL
000546:                                                                                                  #        L+1             RTEDISP
000547:
000548:                                                                                                  #  SUBROUTINES CALLED
000549:                                                                                                  #        TMRAD100
000550:                                                                                                  #        AUGEKUGL
000551:                                                                                                  #        LAT-LONG
000552:
000553:                                                                                                  #  ERASABLE INITIALIZATION REQUIRED
000554:                                                                                                  #     PUSHLIST
000555:                                                                                                  #        NONE
000556:                                                                                                  #     MPAC
000557:                                                                                                  #        NONE
000558:                                                                                                  #     OTHER
000559:                                                                                                  #        R(T2)/          FINAL POSITION VECTOR                                   VECTOR  B29     METERS
000560:                                                                                                  #        V(T2)/          FINAL VELOCITY VECTOR                                   VECTOR  B7      METERS/CS
000561:                                                                                                  #        T2              FINAL TIME                                              DP      B28     CS
000562:                                                                                                  #        V2(T1)/         POST IMPULSE INITIAL VELOCITY VECTOR                    VECTOR  B7      METERS/CS
000563:                                                                                                  #        V(T1)/          INITIAL VELOCITY VECTOR                                 VECTOR  B7      METERS/CS
000564:                                                                                                  #        UR1/            UNIT INITIAL VECTOR                                     VECTOR  B1
000565:                                                                                                  #        UH/             UNIT HORIZONTAL VECTOR                                  VECTOR  B1
000566:
000567:                                                                                                  #  OUTPUT
000568:                                                                                                  #        VPRED           VELOCITY MAGNITUDE AT 400,000 FT. ENTRY ALTITUDE        DP      B7      METERS/CS
000569:                                                                                                  #        T3TOT4          TRANSIT TIME TO 400,000 FT. ENTRY ALTITUDE              DP      B28     CS
000570:                                                                                                  #        GAMMAEI         FLIGHT PATH ANGLE AT 400,000 FT. ENTRY ALTITUDE         DP      B0      REVS + ABOVE HORIZ
000571:                                                                                                  #        DELVLVC         INITIAL VELOCITY CHANGE VECTOR IN LOCAL VERTICAL COORD. VECTOR  B7      METERS/CS
000572:                                                                                                  #        LAT(SPL)        LATITUDE OF THE LANDING SITE                            DP      B0      REVS
000573:                                                                                                  #        LNG(SPL)        LONGITUDE OF THE LANDING SITE                           DP      B0      REVS
000574:
000575: 32,2316           77220        RTEDISP            STQ      VLOAD                                 #  DISPLAY
000576: 32,2317           03762                                    SPRTEX
000577: 32,2320           03710                                    V(T2)/
000578: 32,2321           65256                           UNIT     PDDL
000579: 32,2322           00045                                    36D
000580: 32,2323           17767                           STODL    VPRED                                 #  V(T2)
000581: 32,2324           03736                                    T2
000582: 32,2325           77625                           DSU
000583: 32,2326           03413                                    SPRTETIG
000584: 32,2327           26641                           STOVL    T3TOT4                                #  T21
000585: 32,2330           03656                                    R(T2)/
000586: 32,2331           50256                           UNIT     DOT
000587: 32,2332           77752                           SL1
000588:
000589: 32,2333           44326                           ARCCOS   BDSU
000590: 32,2334           33502                                    1RTEB2
000591: 32,2335           27771                           STOVL    GAMMAEI                               #  FLIGHT PATH ANGLE T2
000592: 32,2336           03700                                    V2(T1)/
000593: 32,2337           41451                           VSU      PUSH
000594: 32,2340           03672                                    V(T1)/
000595: 32,2341           57441                           DOT      DCOMP
000596: 32,2342           03740                                    UR1/
000597: 32,2343           41515                           PDVL     PUSH
000598: 32,2344           63345                           DLOAD    PDVL
000599: 32,2345           33524                                    ZERORTE
000600: 32,2346           55441                           DOT      VDEF
000601: 32,2347           03746                                    UH/
000602: 32,2350           77772                           VSL1
000603: 32,2351           17405                           STODL    DELVLVC
000604: 32,2352           03405                                    DELVLVC
000605: 32,2353           57414                           BOFF     DCOMP
000606: 32,2354           02741                                    RETROFLG
000607: 32,2355           64357                                    RTD18
000608: 32,2356           03405                           STORE    DELVLVC                               #  NEGATE X COMPONENT, RETROGRADE
000609: 32,2357           51575        RTD18              VLOAD    ABVAL
000610: 32,2360           03405                                    DELVLVC
000611: 32,2361           27773                           STOVL    VGDISP
000612: 32,2362           03656                                    R(T2)/
000613: 32,2363           02657                           STORE    RVEC                                  #  ***** LANDING SITE COMPUTATION *****
000614: 32,2364           45246                           ABVAL    DSU
000615: 32,2365           33550                                    30480RTE
000616: 32,2366           26760                           STOVL    RDESIRED
000617: 32,2367           03710                                    V(T2)/
000618: 32,2370           36746                           STCALL   VVEC
000619: 32,2371           64277                                    TMRAD100                              #  R3,V3,T23 FROM TIMERAD
000620: 32,2372           53575                           VLOAD    UNIT
000621: 32,2373           03656                                    R(T2)/
000622: 32,2374           53515                           PDVL     UNIT                                  #  UR3                                   PL06D
000623: 32,2375           03710                                    V(T2)/
000624: 32,2376           72441                           DOT      SL1                                   #  GAMMAE=ARCSIN(UR3 . UV3)              PL00D
000625: 32,2377           65336                           ARCSIN   PDDL                                  #  V(T3)                                 PL02D
000626: 32,2400           00045                                    36D
000627: 32,2401           51525                           PDDL     ABS
000628: 32,2402           45006                           PUSH     CALL                                  #  /GAMMAE/                              PL04D
000629: 32,2403           64075                                    AUGEKUGL                              #  PHIE                                  PL06D
000630: 32,2404           43215                           DAD      DAD
000631: 32,2405           03724                                    T12                                   #  T23
000632: 32,2406           03736                                    T2
000633: 32,2407           00003                           STORE    02D                                   #  T(LS)=T2&T23&TE
000634: 32,2410           53135                           SLOAD    BZE
000635: 32,2411           03377                                    P37RANGE
000636: 32,2412           64414                                    RTD22
000637: 32,2413           00005                           STORE    04D                                   #  OVERRIDE RANGE (PCR 261)
000638: 32,2414           73545        RTD22              DLOAD    SIN
000639:
000640: 32,2415           00005                                    04D
000641: 32,2416           17403                           STODL    LNG(SPL)                              #  LNG(SPL)=SIN(PHIE)                    PL04D
000642: 32,2417           77746                           COS
000643: 32,2420           03401                           STORE    LAT(SPL)                              #  LAT(SPL)=COS(PHIE)
000644: 32,2421           53575                           VLOAD    UNIT
000645: 32,2422           03656                                    R(T2)/
000646: 32,2423           41406                           PUSH     PUSH
000647: 32,2424           53515                           PDVL     UNIT                                  #                                        PL22D
000648: 32,2425           03710                                    V(T2)/
000649: 32,2426           47315                           PDVL     VXV
000650: 32,2427           53435                           VXV      UNIT                                  #  UH3=UNIT(UR3 X UV3 X UR3)             PL10D
000651: 32,2430           63361                           VXSC     PDVL
000652: 32,2431           03403                                    LNG(SPL)
000653: 32,2432           53361                           VXSC     VAD                                   #                                        PL04D
000654: 32,2433           03401                                    LAT(SPL)
000655: 32,2434           43014                           CLEAR    CLEAR                                 #  T(LS) IN MPAC
000656: 32,2435           00662                                    ERADFLAG
000657: 32,2436           01663                                    LUNAFLAG
000658: 32,2437           16152                           STODL    ALPHAV                                #  ALPHAV=UR3(COSPHIE)+UH3(SINPHIE)      PL02D
000659: 32,2440           77624                           CALL
000660: 32,2441           26376                                    LAT-LONG
000661: 32,2442           77745                           DLOAD
000662: 32,2443           01104                                    LAT
000663: 32,2444           17401                           STODL    LAT(SPL)                              #  LATITUDE LANDING SITE  *****
000664: 32,2445           01106                                    LONG
000665: 32,2446           37403                           STCALL   LNG(SPL)                              #  LONGITUDE LANDING SITE *****
000666: 32,2447           03762                                    SPRTEX
000667: 32,2450                                           COUNT*   $$/RTE
000668:
000669:                                                                                                  #  INITIAL VECTOR SUBROUTINE
000670:
000671:                                                                                                  #  DESCRIPTION
000672:                                                                                                  #        A PRECISION INTEGRATION OF THE STATE VECTOR TO THE TIME OF IGNITION IS PERFORMED. PRECOMPUTATIONS OCCUR.
000673:
000674:                                                                                                  #  CALLING SEQUENCE
000675:                                                                                                  #        L       CALL
000676:                                                                                                  #        L+1             INVC100
000677:
000678:                                                                                                  #  NORMAL EXIT MODE
000679:                                                                                                  #        AT L+2 OF CALLING SEQUENCE WITH MPAC = 0
000680:
000681:                                                                                                  #  ALARM EXIT MODE
000682:                                                                                                  #        AT L+2 OF CALLING SEQUENCE WITH MPAC = OCTAL 612 FOR STATE VECTOR IN MOONS SPHERE OF INFLUENCE
000683:
000684:                                                                                                  #  SUBROUTINES CALLED
000685:                                                                                                  #        CSMPREC
000686:
000687:                                                                                                  #  ERASABLE INITIALIZATION REQUIRED
000688:                                                                                                  #     PUSHLIST
000689:                                                                                                  #        NONE
000690:                                                                                                  #     MPAC
000691:                                                                                                  #        NONE
000692:                                                                                                  #     OTHER
000693:                                                                                                  #        SPRTETIG        TIME OF IGNITION                                        DP      B28     CS
000694:                                                                                                  #        CSM STATE VECTOR
000695:
000696:                                                                                                  #  OUTPUT
000697:                                                                                                  #        R(T1)/          INITIAL POSITION VECTOR AT TIG                          VECTOR  B29     METERS
000698:                                                                                                  #        V(T1)/          INITIAL VELOCITY VECTOR AT TIG                          VECTOR  B7      METERS/CS
000699:                                                                                                  #        T1              INITIAL VECTOR TIME (TIG)                               DP      B28     CS
000700:                                                                                                  #        UR1/            UNIT INITIAL VECTOR                                     VECTOR  B1
000701:                                                                                                  #        UH/             UNIT HORIZONTAL VECTOR                                  VECTOR  B1
000702:                                                                                                  #        CFPA            COSINE OF INITIAL FLIGHT PATH ANGLE                     DP      B1
000703:
000704: 32,2450           71220        INVC100            STQ      DLOAD
000705: 32,2451           03762                                    SPRTEX
000706: 32,2452           03413                                    SPRTETIG
000707: 32,2453           34041                           STCALL   TDEC1
000708: 32,2454           27100                                    CSMPREC                               #  PRECISION INTEGRATION  R0,V0 TO R1,V1
000709: 32,2455           67175                           VLOAD    SXA,2
000710: 32,2456           00001                                    RATT
000711: 32,2457           03755                                    P(T1)
000712: 32,2460           27640                           STOVL    R(T1)/
000713: 32,2461           00007                                    VATT
000714: 32,2462           17672                           STODL    V(T1)/
000715: 32,2463           00015                                    TAT
000716: 32,2464           03716                           STORE    T1
000717: 32,2465           53135                           SLOAD    BZE
000718: 32,2466           03756                                    P(T1)
000719: 32,2467           64473                                    INVC109
000720: 32,2470           52135        INVC107            SLOAD    GOTO
000721: 32,2471           33563                                    OCT612
000722: 32,2472           74776                                    RTEALRM                               #  R1,V1 NOT IN PROPER SPHERE OF INFLUENCE
000723: 32,2473           53575        INVC109            VLOAD    UNIT
000724: 32,2474           03640                                    R(T1)/
000725: 32,2475           17740                           STODL    UR1/                                  #  UR1/                                  B1
000726: 32,2476           00045                                    36D
000727: 32,2477           27646                           STOVL    R(T1)                                 #  R(T1)                                 B29
000728: 32,2500           03672                                    V(T1)/
000729: 32,2501           77656                           UNIT
000730: 32,2502           03746                           STORE    UV1/
000731: 32,2503           72441                           DOT      SL1
000732: 32,2504           03740                                    UR1/
000733: 32,2505           03757                           STORE    CFPA                                  #  CFPA                                  B1
000734: 32,2506           45246                           ABS      DSU
000735: 32,2507           33576                                    EPC1RTE
000736: 32,2510           71240                           BMN      DLOAD
000737: 32,2511           64520                                    INVC115                               #  NOT NEAR RECTILINEAR
000738: 32,2512           33502                                    1RTEB2
000739: 32,2513           41525                           PDDL     PUSH
000740: 32,2514           33524                                    ZERORTE
000741: 32,2515           41466                           VDEF     PUSH                                  #  N/ = (0,0,1)
000742: 32,2516           77650                           GOTO
000743: 32,2517           64524                                    INVC120
000744: 32,2520           47375        INVC115            VLOAD    VXV
000745: 32,2521           03740                                    UR1/
000746: 32,2522           03746                                    UV1/
000747: 32,2523           77606                           PUSH                                           #  N/ = UR X UV                          B2
000748: 32,2524           71214        INVC120            CLEAR    DLOAD
000749: 32,2525           02661                                    RETROFLG
000750: 32,2526           51006                           PUSH     BPL
000751: 32,2527           64533                                    INVC125
000752: 32,2530           57575                           VLOAD    VCOMP                                 #  RETROGRADE ORBIT
000753: 32,2531           43006                           PUSH     SET
000754: 32,2532           02461                                    RETROFLG
000755: 32,2533           77775        INVC125            VLOAD
000756: 32,2534           53435                           VXV      UNIT
000757: 32,2535           03740                                    UR1/
000758: 32,2536           03746                           STORE    UH/                                   #  UH/                                   B1
000759: 32,2537           77650                           GOTO
000760: 32,2540           03762                                    SPRTEX
000761:
000762:                                                                                                  #  PRECISION TRAJECTORY COMPUTATION SUBROUTINE
000763:
000764:                                                                                                  #  DESCRIPTION
000765:                                                                                                  #        A NUMERICALLY INTEGRATED TRAJECTORY IS GENERATED WHICH FOR THE RETURN TO EARTH PROBLEM SATISFIES THE REENTRY
000766:                                                                                                  #        CONSTRAINTS (RCON AND X(T2)) ACHIEVED BY THE INITIAL CONIC TRAJECTORY AND MEETS THE DVD REQUIREMENT AS CLOSELY
000767:                                                                                                  #        AS POSSIBLE.
000768:
000769:                                                                                                  #  CALLING SEQUENCE
000770:                                                                                                  #        L       CALL
000771:                                                                                                  #        L+1             PREC100
000772:
000773:                                                                                                  #  NORMAL EXIT MODE
000774:                                                                                                  #        AT L+2 OF CALLING SEQUENCE WITH MPAC = 0
000775:
000776:                                                                                                  #  ALARM EXIT MODE
000777:                                                                                                  #        AT L+2 OF CALLING SEQUENCE WITH MPAC =
000778:                                                                                                  #                OCTAL 605       FOR EXCESS ITERATIONS
000779:                                                                                                  #                OCTAL 613       FOR REENTRY ANGLE OUT OF LIMITS
000780:
000781:                                                                                                  #  SUBROUTINES CALLED
000782:                                                                                                  #        INTSTALL
000783:                                                                                                  #        RTENCK2
000784:                                                                                                  #        RTENCK3
000785:                                                                                                  #        TIMERAD
000786:                                                                                                  #        PARAM
000787:                                                                                                  #        V2T100
000788:
000789:                                                                                                  #  ERASABLE INITIALIZATION REQUIRED
000790:                                                                                                  #     PUSHLIST
000791:                                                                                                  #        NONE
000792:                                                                                                  #     MPAC
000793:                                                                                                  #        NONE
000794:                                                                                                  #     OTHER
000795:                                                                                                  #        R(T1)/          INITIAL POSITION VECTOR                                 VECTOR  B29/B27 METERS
000796:                                                                                                  #        V2(T1)/         POST IMPULSE INITIAL VELOCITY VECTOR                    VECTOR  B7/B5   METERS/CS
000797:                                                                                                  #        V(T1)/          INITIAL VELOCITY VECTOR                                 VECTOR  B7/B5   METERS/CS
000798:                                                                                                  #        T1              INITIAL VECTOR TIME                                     DP      B28     CS
000799:                                                                                                  #        T12             INITIAL TO FINAL POSITION TIME                          DP      B28     CS
000800:                                                                                                  #        RCON            CONIC FINAL RADIUS                                      DP      B29/B27 METERS
000801:                                                                                                  #        R(T1)           MAGNITUDE OF INITIAL POSITION VECTOR                    DP      B29/B27 METERS
000802:                                                                                                  #        X(T2)           COTANGENT OF FINAL FLIGHT PATH ANGLE                    DP      B0
000803:                                                                                                  #        X(T1)           COTANGENT OF INITIAL FLIGHT PATH ANGLE                  DP      B5
000804:                                                                                                  #        RTEDVD          DELTA VELOCITY DESIRED                                  DP      B7/B5   METERS/CS
000805:                                                                                                  #        MAMAX1          MAJOR AXIS LIMIT FOR LOWER BOUND ON GAMDV ITERATOR      DP      B30/B28 METERS
000806:                                                                                                  #        MAMAX2          MAJOR AXIS LIMIT FOR UPPER BOUND ON GAMDV ITERATOR      DP      B30/B28 METERS
000807:                                                                                                  #        UR1/            UNIT INITIAL VECTOR                                     VECTOR  B1
000808:                                                                                                  #        UH/             UNIT HORIZONTAL VECTOR                                  VECTOR  B1
000809:                                                                                                  #        BETA1           1+X(T2)**2                                              DP      B1
000810:                                                                                                  #        PHI2            PERIGEE OR APOGEE INDICATOR                             DP      B2      -1 PERIGEE, +1 APOGEE
000811:
000812:
000813:                                                                                                  #  OUTPUT
000814:                                                                                                  #        V2(T1)/         POST IMPULSE INITIAL VELOCITY VECTOR                    VECTOR  B7      METERS/CS
000815:                                                                                                  #        R(T2)/          FINAL POSITION VECTOR                                   VECTOR  B29     METERS
000816:                                                                                                  #        V(T2)/          FINAL VELOCITY VECTOR                                   VECTOR  B7      METERS/CS
000817:                                                                                                  #        T2              FINAL TIME                                              DP      B28     CENTISECONDS
000818:
000819:                                                                                                  #  DEBRIS
000820:                                                                                                  #        RD              FINAL R DESIRED                                         DP      B29/B27 METERS
000821:                                                                                                  #        R/APRE          R/A                                                     DP      B6
000822:                                                                                                  #        P/RPRE          P/R                                                     DP      B4
000823:                                                                                                  #        RPRE            MAGNITUDE OF R(T2)/                                     DP      B29/B27 METERS
000824:                                                                                                  #        X(T2)PRE        COTANGENT OF GAMMA2                                     DP      B0
000825:                                                                                                  #        DT12            CORRECTION TO FINAL TIME T2                             DP      B28     CENTISECONDS
000826:                                                                                                  #        RCON            FINAL RADIUS                                            DP      B29/B27 METERS
000827:                                                                                                  #        DRCON           DELTA RCON                                              DP      B29/B27 METERS
000828:
000829: 32,2541           71220        PREC100            STQ      DLOAD
000830: 32,2542           03762                                    SPRTEX
000831: 32,2543           33532                                    10RTE
000832: 32,2544           17730                           STODL    NN1A
000833: 32,2545           03636                                    RCON
000834: 32,2546           03664                           STORE    RD
000835: 32,2547           77745        PREC120            DLOAD
000836: 32,2550           33542                                    2RTEB1
000837: 32,2551           17650                           STODL    DT21PR                                #  DT21PR = POSMAX
000838: 32,2552           33530                                    M15RTE
000839: 32,2553           37732                           STCALL   NN2
000840: 32,2554           63732                                    RTENCK3
000841: 32,2555           77624        PREC125            CALL
000842: 32,2556           11637                                    PARAM
000843: 32,2557           77745                           DLOAD
000844: 32,2560           02742                                    P
000845: 32,2561           14033                           STODL    P/RPRE
000846: 32,2562           02744                                    R1A
000847: 32,2563           14035                           STODL    R/APRE
000848: 32,2564           00041                                    R1
000849: 32,2565           14031                           STODL    RPRE
000850: 32,2566           03775                                    COGA
000851: 32,2567           77661                           SL
000852: 32,2570           20206                                    5
000853: 32,2571           03724                           STORE    X(T2)PRE
000854: 32,2572           43276                           DCOMP    DAD
000855: 32,2573           03726                                    X(T2)
000856: 32,2574           45246                           ABS      DSU
000857: 32,2575           33604                                    EPC4RTE
000858: 32,2576           50000                           BOV      BMN
000859: 32,2577           64601                                    PREC130
000860: 32,2600           64770                                    PREC175
000861:
000862:                                                                                                  #  DESIRED REENTRY ANGLE NOT ACHIEVED
000863:
000864: 32,2601           50145        PREC130            DLOAD    BMN
000865: 32,2602           03732                                    NN2
000866: 32,2603           64607                                    PREC140
000867: 32,2604           52135        PREC132            SLOAD    GOTO                                  #  TOO MANY ITERATIONS
000868: 32,2605           33562                                    OCT605                                #        EXIT WITH ALARM
000869: 32,2606           65073                                    PRECX
000870:
000871:                                                                                                  #  DETERMINE RADIUS AT WHICH THE DESIRED REENTRY ANGLE WILL BE ACHIEVED
000872:
000873: 32,2607           53145        PREC140            DLOAD    BZE
000874: 32,2610           03730                                    NN1A
000875: 32,2611           64647                                    PREC162
000876: 32,2612           62545        PREC150            DLOAD    SL2                                   #                                B2
000877: 32,2613           00033                                    P/RPRE
000878: 32,2614           72405                           DMP      SL1                                   #  BETA2=BETA1*P/R               B2      PL02
000879: 32,2615           03754                                    BETA1
000880: 32,2616           71206                           PUSH     DLOAD
000881: 32,2617           00035                                    R/APRE
000882: 32,2620           41212                           SL4      DMP
000883: 32,2621           00001                                    00D
000884: 32,2622           50021                           BDSU     BMN                                   #  BETA3=1-BETA2*R/A
000885: 32,2623           33506                                    1RTEB4
000886: 32,2624           64637                                    PREC160
000887: 32,2625           75512        PREC155            SL2      SQRT
000888: 32,2626           44205                           DMP      BDSU
000889: 32,2627           03761                                    PHI2
000890: 32,2630           33504                                    1RTEB3
000891: 32,2631           65301                           NORM     PDDL
000892: 32,2632           00047                                    X1
000893: 32,2633           56342                           SR1      DDV                                   #  BETA4=BETA2/(1-PHI2*SQRT(BETA3))
000894: 32,2634           52057                           SL*      GOTO                                  #                                B1
000895: 32,2635           20200                                    0          -1,1
000896: 32,2636           64655                                    PREC165
000897: 32,2637           60345        PREC160            DLOAD    NORM
000898: 32,2640           00035                                    R/APRE
000899: 32,2641           00047                                    X1
000900: 32,2642           53665                           BDDV     SL*                                   #                                B1
000901: 32,2643           33500                                    1RTEB1
000902: 32,2644           20173                                    0          -6,1
000903: 32,2645           77650                           GOTO
000904: 32,2646           64655                                    PREC165
000905: 32,2647           60345        PREC162            DLOAD    NORM
000906: 32,2650           00031                                    RPRE
000907: 32,2651           00047                                    X1
000908: 32,2652           53665                           BDDV     SL*                                   #  BETA4=RD/RPRE                 B1
000909: 32,2653           03664                                    RD
000910: 32,2654           20200                                    0          -1,1
000911: 32,2655           41401        PREC165            SETPD    PUSH
000912: 32,2656           00001                                    0
000913: 32,2657           57425                           DSU      DCOMP
000914: 32,2660           33500                                    1RTEB1
000915: 32,2661           03765                           STORE    BETA12
000916: 32,2662           71240                           BMN      DLOAD
000917: 32,2663           64674                                    PREC168
000918: 32,2664           03724                                    X(T2)PRE
000919: 32,2665           71240                           BMN      DLOAD
000920: 32,2666           64672                                    PREC167
000921: 32,2667           03765                                    BETA12
000922: 32,2670           77676                           DCOMP
000923: 32,2671           03765                           STORE    BETA12
000924: 32,2672           77745        PREC167            DLOAD
000925: 32,2673           03765                                    BETA12
000926: 32,2674           45246        PREC168            ABS      DSU
000927: 32,2675           33610                                    EPC6RTE
000928: 32,2676           71240                           BMN      DLOAD
000929: 32,2677           64770                                    PREC175
000930: 32,2700           72405                           DMP      SL1
000931: 32,2701           00031                                    RPRE
000932: 32,2702           77606                           PUSH                                           #  RF = NEW RADIUS
000933: 32,2703           43345        PREC170            DLOAD    DAD
000934: 32,2704           03732                                    NN2
000935: 32,2705           33522                                    1RTEB28
000936: 32,2706           03732                           STORE    NN2
000937: 32,2707           43175                           VLOAD    SET
000938: 32,2710           03656                                    R(T2)/
000939: 32,2711           03466                                    RVSW
000940: 32,2712           26657                           STOVL    RVEC
000941: 32,2713           03710                                    V(T2)/
000942: 32,2714           77765                           SIGN
000943: 32,2715           03765                                    BETA12
000944: 32,2716           16746                           STODL    VVEC
000945: 32,2717           33500                                    1RTEB1
000946: 32,2720           57565                           SIGN     DCOMP
000947: 32,2721           03765                                    BETA12
000948: 32,2722           71354                           LXA,2    DLOAD
000949: 32,2723           00154                                    MPAC
000950: 32,2724           67140                           LXC,1    SXA,2
000951: 32,2725           03734                                    CONICX1
000952: 32,2726           02756                                    SGNRDOT
000953: 32,2727           36760                           STCALL   RDESIRED                              #  COMPUTE DT12 (CORRECTION TO TIME OF
000954: 32,2730           25566                                    TIMERAD                               #        NEW RADIUS)
000955: 32,2731           75345                           DLOAD    SIGN
000956: 32,2732           00037                                    T
000957: 32,2733           03765                                    BETA12
000958: 32,2734           60325                           PDDL     NORM                                  #  DT21=(PHI4)DT21                       PL02D
000959: 32,2735           03650                                    DT21PR
000960: 32,2736           00047                                    X1
000961: 32,2737           53665                           BDDV     SL*
000962: 32,2740           00001                                    00D
000963: 32,2741           20176                                    0          -3,1
000964: 32,2742           50006                           PUSH     BMN                                   #  BETA13=(DT21)/(DT21PR)        B3      PL04D
000965: 32,2743           64750                                    PREC172
000966: 32,2744           65345                           DLOAD    PDDL                                  #  BETA14=1                      B0      PL04D
000967: 32,2745           33542                                    2RTEB1
000968: 32,2746           77650                           GOTO
000969: 32,2747           64752                                    PREC173
000970: 32,2750           65345        PREC172            DLOAD    PDDL                                  #  BETA14=.6                     B0      PL04D
000971: 32,2751           33534                                    M.6RTE
000972: 32,2752           45271        PREC173            DDV      DSU
000973: 32,2753           00003                                    02D
000974: 32,2754           33504                                    1RTEB3
000975: 32,2755           71240                           BMN      DLOAD
000976: 32,2756           64762                                    PREC174
000977: 32,2757           77605                           DMP
000978: 32,2760           03650                                    DT21PR
000979: 32,2761           00001                           STORE    00D                                   #  DT21=(BETA14)DT21PR           B28
000980: 32,2762           41545        PREC174            DLOAD    PUSH
000981: 32,2763           00001                                    00D
000982: 32,2764           37650                           STCALL   DT21PR
000983: 32,2765           63714                                    RTENCK2
000984: 32,2766           77650                           GOTO
000985: 32,2767           64555                                    PREC125
000986: 32,2770           45345        PREC175            DLOAD    DSU
000987: 32,2771           00031                                    RPRE
000988: 32,2772           03664                                    RD
000989: 32,2773           51406                           PUSH     ABS                                   #  RPRE-RD = RERR
000990: 32,2774           50025                           DSU      BMN
000991: 32,2775           33612                                    EPC7RTE
000992: 32,2776           34755                                    PREC220
000993:
000994:                                                                                                  #  DESIRED RADIUS HAS NOT BEEN ACHIEVED
000995:
000996: 32,2777           53145                           DLOAD    BZE
000997: 32,3000           03730                                    NN1A
000998: 32,3001           64604                                    PREC132                               #  TOO MANY ITERATIONS
000999: 32,3002           53025                           DSU      BZE
001000: 32,3003           33532                                    10RTE
001001: 32,3004           65037                                    PREC207
001002: 32,3005           45345        PREC205            DLOAD    DSU                                   #  NOT FIRST PASS OF ITERATION
001003: 32,3006           03670                                    RPRE'
001004: 32,3007           00031                                    RPRE                                  #  RPRE,-RPRE                    B29/B27
001005: 32,3010           55301                           NORM     BDDV
001006: 32,3011           00050                                    X2
001007: 32,3012           03666                                    DRCON
001008: 32,3013           41457                           SL*      PUSH                                  #  DRCON/(RPRE,-RPRE)=S          B2
001009: 32,3014           57600                                    0          -2,2
001010: 32,3015           40015                           DAD      BOV                                   #  S GR +4 OR LS -4
001011: 32,3016           33500                                    1RTEB1
001012: 32,3017           65024                                    PREC205M
001013: 32,3020           45246                           ABS      DSU
001014: 32,3021           33500                                    1RTEB1
001015: 32,3022           77640                           BMN
001016: 32,3023           65027                                    PREC206
001017: 32,3024           57545        PREC205M           DLOAD    DCOMP                                 #  S GR 0 OR LS -4
001018: 32,3025           33542                                    2RTEB1
001019: 32,3026           77725                           PDDL                                           #  S=-4                          B2
001020: 32,3027           41345        PREC206            DLOAD    DMP
001021: 32,3030           77712                           SL2
001022: 32,3031           03666                           STORE    DRCON                                 #  DRCON=S(RERR)                 B29
001023: 32,3032           77615                           DAD
001024: 32,3033           03636                                    RCON
001025: 32,3034           03636                           STORE    RCON                                  #  RCON+DRCON=RCON
001026: 32,3035           77650                           GOTO
001027: 32,3036           65056                                    PREC210
001028: 32,3037           63545        PREC207            DLOAD    DSQ                                   #  FIRST PASS OF ITERATION
001029: 32,3040           03664                                    RD
001030: 32,3041           70501                           NORM     SR1
001031: 32,3042           00047                                    X1
001032: 32,3043           60325                           PDDL     NORM
001033: 32,3044           00031                                    RPRE
001034: 32,3045           00050                                    X2
001035: 32,3046           55260                           XSU,1    BDDV
001036: 32,3047           00047                                    X2
001037: 32,3050           77657                           SR*
001038: 32,3051           20600                                    0          -1,1
001039: 32,3052           03636                           STORE    RCON                                  #  RD**2/RPRE=RCON
001040: 32,3053           77625                           DSU
001041: 32,3054           03664                                    RD
001042: 32,3055           03666                           STORE    DRCON                                 #  RCON-RD=DRCON
001043: 32,3056           77745        PREC210            DLOAD                                          #  PREPARE FOR NEXT ITERATION
001044: 32,3057           00031                                    RPRE
001045: 32,3060           17670                           STODL    RPRE'
001046: 32,3061           03730                                    NN1A
001047: 32,3062           77625                           DSU
001048: 32,3063           33522                                    1RTEB28
001049: 32,3064           37730                           STCALL   NN1A
001050: 32,3065           65075                                    V2T100
001051: 32,3066           52030                           BHIZ     GOTO
001052: 32,3067           64547                                    PREC120
001053: 32,3070           65073                                    PRECX
001054:
001055:                                                                                                  #  DESIRED RADIUS ACHIEVED
001056:
001057: 16,2000                                           SETLOC   RTE2
001058: 16,2000                                           BANK
001059: 16,2755           45345        PREC220            DLOAD    DSU
001060: 16,2756           03726                                    X(T2)
001061: 16,2757           03724                                    X(T2)PRE
001062: 16,2760           45246                           ABS      DSU
001063: 16,2761           34770                                    EPC8RTE
001064: 16,2762           67240                           BMN      SLOAD
001065: 16,2763           65071                                    PREC225
001066: 16,2764           34772                                    OCT613
001067: 16,2765           77650                           GOTO
001068: 16,2766           65073                                    PRECX                                 #  IF REENTRY ANGLE OUT OF LIMITS
001069:
001070: 16,2767           00040 30447  EPC8RTE            2DEC     .002
001071:
001072: 16,2771           00613        OCT613             OCT      613
001073:
001074:                                                                                                  #  DESIRED FINAL ANGLE HAS BEEN REACHED
001075:
001076: 32,2000                                           SETLOC   RTE
001077: 32,2000                                           BANK
001078: 32,3071           77745        PREC225            DLOAD
001079: 32,3072           33524                                    ZERORTE
001080: 32,3073           77650        PRECX              GOTO
001081: 32,3074           03762                                    SPRTEX
001082:
001083:                                                                                                  #  INTEGRATION CALLING SUBROUTINE
001084:
001085:                                                                                                  #  DESCRIPTION
001086:                                                                                                  #        PERFORMS CONIC AND PRECISION INTEGRATIONS USING SUBROUTINE INTEGRVS.  THERE ARE THREE ENTRANCES (RTENCK1,
001087:                                                                                                  #        RTENCK2 AND RTENCK3) FOR DIFFERENT SOURCES OF INPUT AND DIFFERENT OPTIONS.  THERE IS A COMMON SET OF OUTPUT
001088:                                                                                                  #        WHICH INCLUDES SET UP OF INPUT FOR THE PARAM SUBROUTINE
001089:
001090:                                                                                                  #  RTENCK1 (CONIC INTEGRATION)
001091:
001092:                                                                                                  #     CALLING SEQUENCE
001093:                                                                                                  #        L       CALL
001094:                                                                                                  #        L+1             RTENCK1
001095:
001096:                                                                                                  #     ERASABLE INITIALIZATION REQUIRED
001097:                                                                                                  #        SAME AS FOR THE RTENCK3 ENTRANCE
001098:
001099:                                                                                                  #  RTENCK2 (PRECISION INTEGRATION)
001100:
001101:                                                                                                  #     CALLING SEQUENCE
001102:                                                                                                  #        L       CALL
001103:                                                                                                  #        L+1             RTENCK2
001104:
001105:                                                                                                  #     ERASABLE INITIALIZATION REQUIRED
001106:                                                                                                  #        PUSHLIST
001107:                                                                                                  #            PUSHLOC-2   INTEGRATION TIME DT12 (CORRECTION TO T2)                DP      B28     CS
001108:                                                                                                  #        OTHER
001109:                                                                                                  #            R(T2)/      FINAL POSITION VECTOR                                   VECTOR .B29     METERS
001110:                                                                                                  #            V(T2)/      FINAL VELOCITY VECTOR                                   VECTOR  B7      METERS/CS
001111:                                                                                                  #            T2          FINAL TIME                                              DP      B28     CS
001112:
001113:                                                                                                  #  RTENCK3 (PRECISION INTEGRATION)
001114:
001115:                                                                                                  #     CALLING SEQUENCE
001116:                                                                                                  #        L       CALL
001117:                                                                                                  #        L+1             RTENCK3
001118:
001119:                                                                                                  #     ERASABLE INITIALIZATION REQUIRED
001120:                                                                                                  #        R(T1)/          INITIAL POSITION VECTOR                                 VECTOR  B29     METERS
001121:                                                                                                  #        V2(T1)/         POST IMPULSE INITIAL VELOCITY VECTOR                    VECTOR  B7      M/CS
001122:                                                                                                  #        T1              INITIAL VECTOR TIME                                     DP      B28     CS
001123:                                                                                                  #        T2              FINAL TIME                                              DP      B28     CS
001124:
001125:                                                                                                  #  EXIT MODE
001126:                                                                                                  #        AT L+2 OF CALLING SEQUENCE
001127:
001128:                                                                                                  #  SUBROUTINES CALLED
001129:                                                                                                  #        INTSTALL
001130:                                                                                                  #        INTEGRVS
001131:
001132:                                                                                                  #  OUTPUT
001133:                                                                                                  #     PUSHLIST
001134:                                                                                                  #        PUSHLOC-6       FINAL POSITION VECTOR R(T2)/                            VECTOR  B29     METERS
001135:                                                                                                  #        X1              CONICS MUTABLE ENTRY FOR EARTH (-2)                     SP      B14
001136:                                                                                                  #     MPAC
001137:                                                                                                  #                        FINAL VELOCITY VECTOR V(T2)/                            VECTOR  B7      M/CS
001138:                                                                                                  #     OTHER
001139:                                                                                                  #        R(T2)/          AS IN PUSHLIST
001140:                                                                                                  #        V(T2)/          AS IN MPAC
001141:                                                                                                  #        T2              FINAL TIME                                              DP      B28     CS
001142:
001143: 31,2000                                           SETLOC   RTE3
001144: 31,2000                                           BANK
001145: 31,3704           45020        RTENCK1            STQ      CALL
001146: 31,3705           03733                                    RTENCKEX
001147: 31,3706           27446                                    INTSTALL
001148: 31,3707           43175                           VLOAD    SET
001149: 31,3710           03640                                    R(T1)/
001150: 31,3711           01473                                    INTYPFLG
001151: 31,3712           77650                           GOTO
001152: 31,3713           63740                                    RTENCK3B
001153:
001154: 31,3714           45020        RTENCK2            STQ      CALL
001155: 31,3715           03733                                    RTENCKEX
001156: 31,3716           27446                                    INTSTALL
001157: 31,3717           77214                           CLEAR    VLOAD
001158: 31,3720           01673                                    INTYPFLG
001159: 31,3721           03656                                    R(T2)/
001160: 31,3722           25535                           STOVL    RCV
001161: 31,3723           03710                                    V(T2)/
001162: 31,3724           15543                           STODL    VCV
001163: 31,3725           03736                                    T2
001164: 31,3726           01517                           STORE    TET
001165: 31,3727           77615                           DAD
001166: 31,3730           77650                           GOTO
001167: 31,3731           63746                                    RTENCK3D
001168:
001169: 31,3732           45020        RTENCK3            STQ      CALL
001170: 31,3733           03733                                    RTENCKEX
001171: 31,3734           27446                                    INTSTALL
001172: 31,3735           43175        RTENCK3A           VLOAD    CLEAR
001173: 31,3736           03640                                    R(T1)/
001174: 31,3737           01673                                    INTYPFLG
001175: 31,3740           25535        RTENCK3B           STOVL    RCV
001176: 31,3741           03700                                    V2(T1)/
001177: 31,3742           15543                           STODL    VCV
001178: 31,3743           03716                                    T1
001179: 31,3744           15517                           STODL    TET
001180: 31,3745           03736                                    T2
001181: 31,3746           00041        RTENCK3D           STORE    TDEC1
001182: 31,3747           45014                           CLEAR    CALL
001183: 31,3750           00263                                    MOONFLAG
001184: 31,3751           27144                                    INTEGRVS
001185: 31,3752           77775                           VLOAD
001186: 31,3753           00001                                    RATT
001187: 31,3754           03656                           STORE    R(T2)/
001188: 31,3755           70125                           PDDL     LXC,1
001189: 31,3756           00015                                    TAT
001190: 31,3757           03734                                    CONICX1
001191: 31,3760           27736                           STOVL    T2
001192: 31,3761           00007                                    VATT
001193: 31,3762           03710                           STORE    V(T2)/
001194: 31,3763           77650                           GOTO
001195: 31,3764           03733                                    RTENCKEX
001196: 32,2000                                           SETLOC   RTE
001197: 32,2000                                           BANK
001198:
001199:                                                                                                  #  V2(T1) COMPUTATION SUBROUTINE
001200:
001201:                                                                                                  #  DESCRIPTION
001202:                                                                                                  #        A POST IMPULSE VELOCITY VECTOR (V2(T1)) IS COMPUTED WHICH EITHER
001203:                                                                                                  #        (1)     MEETS THE INPUT VELOCITY CHANGE DESIRED (RTEDVD) IN A MINIMUM TIME      OR
001204:                                                                                                  #        (2)     IF A VELOCITY CHANGE ISN:T SPECIFIED (RTEDVD) = 0), A V2(T1) IS COMPUTED WHICH MINIMIZES THE IMPULSE (DV)
001205:                                                                                                  #                AND CONSEQUENTLY FUEL.
001206:
001207:                                                                                                  #  CALLING SEQUENCE
001208:                                                                                                  #        L       CALL
001209:                                                                                                  #        L+1             V2T100
001210:
001211:                                                                                                  #  NORMAL EXIT MODE
001212:                                                                                                  #        AT L+2 OF CALLING SEQUENCE WITH MPAC = 0
001213:
001214:                                                                                                  #  ALARM EXIT MODE
001215:                                                                                                  #        AT L+2 OF CALLING SEQUENCE WITH MPAC = OCTAL 605 FOR EXCESS ITERATIONS
001216:
001217:                                                                                                  #  SUBROUTINES CALLED
001218:                                                                                                  #        GAMDV10
001219:                                                                                                  #        XT1LIM
001220:                                                                                                  #        DVCALC
001221:
001222:                                                                                                  #  ERASABLE INITIALIZATION REQUIRED
001223:                                                                                                  #     PUSHLIST
001224:                                                                                                  #        NONE
001225:                                                                                                  #     MPAC
001226:                                                                                                  #        NONE
001227:                                                                                                  #     OTHER
001228:                                                                                                  #        R(T1)           MAGNITUDE OF INITIAL POSITION VECTOR                    DP      B29/B27 METERS
001229:                                                                                                  #        RCON            MAGNITUDE OF FINAL POSITION VECTOR                      DP      B29/B27 METERS
001230:                                                                                                  #        V(T1)/          INITIAL VELOCITY VECTOR                                 VECTOR  B7/B5   METERS/CS
001231:                                                                                                  #        RTEDVD          DELTA VELOCITY DESIRED                                  DP      B7/B5   METERS/CS
001232:                                                                                                  #        UR1/            UNIT INITIAL VECTOR                                     VECTOR  B1
001233:                                                                                                  #        UH/             UNIT HORIZONTAL VECTOR                                  VECTOR  B1
001234:                                                                                                  #        X(T2)           COTANGENT OF FINAL FLIGHT PATH ANGLE                    DP      B0
001235:                                                                                                  #        X(T1)           COTANGENT OF INITIAL FLIGHT PATH ANGLE (INPUT FOR PREC) DP      B5
001236:                                                                                                  #        CFPA            COSINE OF INITIAL FLIGHT PATH ANGLE                     DP      B1
001237:                                                                                                  #        MAMAX1          MAJOR AXIS LIMIT FOR LOWER BOUND ON GAMDV ITERATOR      DP      B30/B28 METERS
001238:                                                                                                  #        MAMAX2          MAJOR AXIS LIMIT FOR UPPER BOUND ON GAMDV ITERATOR      DP      B30/B28 METERS
001239:                                                                                                  #        PHI2            REENTRY NEAR PERIGEE OR APOGEE INDICATE (RTE ONLY)      DP       B2     -1 PERIGEE, +1 APOGEE
001240:                                                                                                  #        N1              CONIC OR PRECISION ITERATION COUNTER                    DP      B28     NEGATIVE CONIC,PLUS PREC
001241:
001242:                                                                                                  #  OUTPUT
001243:                                                                                                  #        V2(T1)/         POST IMPULSE INITIAL VELOCITY VECTOR                    VECTOR  B7/B5   METERS/CS
001244:                                                                                                  #        DV              INITIAL VELOCITY CHANGE                                 DP      B7/B5   METERS/CS
001245:                                                                                                  #        X(T1)           COTANGENT OF INITIAL FLIGHT PATH ANGLE (POST IMPULSE)   DP      B5
001246:                                                                                                  #        PCON            SEMI-LATUS RECTUM                                       DP      B28/B26 METERS
001247:                                                                                                  #        BETA1           1+X(T2)**2                                              DP      B1
001248:
001249:
001250:                                                                                                  #  DEBRIS
001251:                                                                                                  #     PUSHLIST
001252:                                                                                                  #        00D             X(T1),,=PREVIOUS PRECISION X(T1)                        DP      B5
001253:                                                                                                  #        02D             THETA1=BETA5*LAMBDA-1                                   TP      B17
001254:                                                                                                  #        05D             THETA2=2*R(T1)*(LAMBDA-1)                               TP      B38/B36
001255:                                                                                                  #        08D             THETA3=MU**.5/R(T1)                                     DP      B-4/B-5
001256:                                                                                                  #        10D             X(T1)MIN=LOWER BOUND ON X(T1) IN GAMDV ITERATOR         DP      B5
001257:                                                                                                  #        12D             DX(T1)MAX=MAXIMUM DELTA X(T1)                           DP      B5
001258:                                                                                                  #        14D             X(T1)MAX=UPPER BOUND ON X(T1) IN GAMDV ITERATOR         DP      B5
001259:                                                                                                  #        16D             DX(T1)=ITERATOR INCREMENT                               DP      B5
001260:                                                                                                  #        31D             GAMDV10 SUBROUTINE RETURN ADDRESS
001261:                                                                                                  #        32D             DVCALC SUBROUTINE RETURN ADDRESS
001262:                                                                                                  #        33D             V2T100 SUBROUTINE RETURN ADDRESS
001263:
001264: 32,3075           71220        V2T100             STQ      DLOAD
001265: 32,3076           00041                                    33D
001266: 32,3077           03636                                    RCON
001267: 32,3100           45240                           BMN      DSU                                   #  ABORT IF RCON NEGATIVE
001268: 32,3101           65105                                    V2TERROR
001269: 32,3102           03646                                    R(T1)
001270: 32,3103           77640                           BMN
001271: 32,3104           65110                                    V2T101
001272: 32,3105           77776        V2TERROR           EXIT                                           #        OR IF LAMBDA LESS THAN ONE
001273: 32,3106           05725                           TC       POODOO                                #  NO SOLUTION IF LAMBDA LESS THAN 1
001274: 32,3107           20610                           OCT      20610
001275: 32,3110           43001        V2T101             SETPD    CLEAR
001276: 32,3111           00001                                    0                                     #                                        PL00D
001277: 32,3112           00272                                    F2RTE
001278: 32,3113           60345                           DLOAD    NORM
001279: 32,3114           03636                                    RCON
001280: 32,3115           00047                                    X1
001281: 32,3116           60325                           PDDL     NORM
001282: 32,3117           03646                                    R(T1)
001283: 32,3120           00051                                    S1
001284: 32,3121           00013                           STORE    10D
001285: 32,3122           56342                           SR1      DDV                                   #  R1/RCON = LAMBDA              B1
001286: 32,3123           65260                           XSU,1    PDDL                                  #                                        PL02D
001287: 32,3124           00050                                    S1
001288: 32,3125           03726                                    X(T2)
001289: 32,3126           77716                           DSQ
001290: 32,3127           43342                           SR1      DAD
001291: 32,3130           33500                                    1RTEB1
001292: 32,3131           03754                           STORE    BETA1                                 #  1+X(T2)**2 = BETA1            B1
001293: 32,3132           77605                           DMP
001294: 32,3133           00001                                    00D
001295: 32,3134           00035                           STORE    28D                                   #  BETAI*LAMBDA = BETA5
001296: 32,3135           53605                           DMP      SL*
001297: 32,3136           00001                                    00D
001298: 32,3137           20172                                    0          -7,1
001299: 32,3140           45257                           SL*      DSU
001300: 32,3141           20172                                    0          -7,1
001301: 32,3142           33516                                    1RTEB17
001302: 32,3143           65234                           RTB      PDDL                                  #  BETA5*LAMBDA-1 = THETA1       B17     PL05D
001303: 32,3144           45565                                    TPMODE
001304: 32,3145           33500                                    1RTEB1
001305: 32,3146           57457                           SR*      DCOMP
001306: 32,3147           20601                                    0,1
001307: 32,3150           41215                           DAD      DMP
001308: 32,3151           00001                                    00D
001309: 32,3152           03646                                    R(T1)
001310: 32,3153           47057                           SL*      RTB
001311: 32,3154           20172                                    0          -7D,1
001312: 32,3155           45565                                    TPMODE
001313: 32,3156           77725                           PDDL                                           #  2*R(T1)*(LAMBDA-1)=THETA2     B38/B36 PL08D
001314: 32,3157           33632                                    RTMURTE
001315: 32,3160           70501                           NORM     SR1
001316: 32,3161           00050                                    X2
001317: 32,3162           56264                           XSU,2    DDV
001318: 32,3163           00050                                    S1
001319: 32,3164           00013                                    10D
001320: 32,3165           65257                           SR*      PDDL                                  #  MU**.5/R(T1)=THETA3           B-4/B-5 PL10D
001321: 32,3166           57170                                    6,2
001322: 32,3167           03652                                    MAMAX1
001323: 32,3170           41406                           PUSH     PUSH                                  #  MAMAX1=MA
001324: 32,3171           77624                           CALL
001325: 32,3172           65734                                    XT1LIM
001326: 32,3173           41476                           DCOMP    PUSH                                  #  X(T1)MIN                      B5      PL12D
001327: 32,3174           40476                           DCOMP    SR4
001328: 32,3175           41525                           PDDL     PUSH                                  #  DX(T1)MAX                     B5      PL14D
001329: 32,3176           03654                                    MAMAX2
001330: 32,3177           45006                           PUSH     CALL
001331: 32,3200           65734                                    XT1LIM
001332: 32,3201           50125                           PDDL     BMN                                   #  X(T1)MAX                      B5      PL16D
001333: 32,3202           03730                                    NN1A
001334: 32,3203           65206                                    V2T102
001335: 32,3204           77650                           GOTO
001336: 32,3205           65220                                    V2T110
001337:
001338:                                                                                                  #  PROCEED HERE IF NOT PRECISION COMPUTATION
001339:
001340: 32,3206           77745        V2T102             DLOAD
001341: 32,3207           03632                                    RTEDVD
001342: 32,3210           52054                           BZE      GOTO
001343: 32,3211           65213                                    V2T105
001344: 32,3212           65314                                    V2T140
001345: 32,3213           50145        V2T105             DLOAD    BMN
001346: 32,3214           03757                                    CFPA
001347: 32,3215           65314                                    V2T140
001348: 32,3216           77650                           GOTO
001349: 32,3217           65322                                    V2T145
001350:                                                                                                  #  DURING A PRECISION TRAJECTORY ITERATION CONSTRAIN THE INDEPENDENT
001351:                                                                                                  #  VARIABLE TO INSURE THAT ALL CONICS PASS THROUGH RCON ON THE SAME PASS
001352:                                                                                                  #  THROUGH X(T2)
001353:
001354: 32,3220           47145        V2T110             DLOAD    RTB
001355: 32,3221           33516                                    1RTEB17
001356: 32,3222           45565                                    TPMODE
001357: 32,3223           65276                           DCOMP    PDDL                                  #  -1                            B17     PL19D
001358: 32,3224           33542                                    2RTEB1
001359: 32,3225           45257                           SR*      DSU
001360: 32,3226           20601                                    0,1
001361: 32,3227           00001                                    00D
001362: 32,3230           53605                           DMP      SL*
001363: 32,3231           00035                                    28D
001364: 32,3232           20172                                    0          -7,1
001365: 32,3233           76257                           SL*      TAD
001366: 32,3234           20172                                    0          -7,1
001367: 32,3235           65234                           RTB      PDDL                                  #  BETA5(2-LAMBDA)-1=BETA6       B17     PL19D
001368: 32,3236           45565                                    TPMODE
001369: 32,3237           03722                                    X(T1)
001370: 32,3240           00001                           STORE    00D                                   #  X(T1),,                       B5
001371: 32,3241           77751                           TLOAD                                          #                                        PL16D
001372: 32,3242           53040                           BMN      BZE
001373: 32,3243           65250                                    V2T115
001374: 32,3244           65250                                    V2T115
001375: 32,3245           52061                           SL       GOTO
001376: 32,3246           20210                                    7
001377: 32,3247           65261                                    V2T120
001378: 32,3250           50145        V2T115             DLOAD    BMN
001379: 32,3251           03761                                    PHI2
001380: 32,3252           65272                                    V2T125
001381: 32,3253           77676                           DCOMP
001382: 32,3254           17761                           STODL    PHI2
001383: 32,3255           33532                                    10RTE
001384: 32,3256           03730                           STORE    NN1A
001385: 32,3257           77650                           GOTO
001386: 32,3260           65272                                    V2T125
001387: 32,3261           47166        V2T120             SQRT     RTB
001388: 32,3262           45716                                    DPMODE
001389: 32,3263           50125                           PDDL     BMN                                   #  BETA6**.5=X(T1)LIM            B5      PL18D
001390: 32,3264           03761                                    PHI2
001391: 32,3265           65300                                    V2T130
001392: 32,3266           45545                           DLOAD    STADR                                 #                                        PL16D
001393: 32,3267           77760                           STORE    14D                                   #  X(T1)LIM = X(T1)MAX
001394: 32,3270           77676                           DCOMP
001395: 32,3271           00013                           STORE    10D                                   #  -X(T1)LIM = X(T1)MIN
001396: 32,3272           53145        V2T125             DLOAD    BZE
001397: 32,3273           03722                                    X(T1)
001398: 32,3274           65314                                    V2T140
001399: 32,3275           52040                           BMN      GOTO
001400: 32,3276           65314                                    V2T140
001401: 32,3277           65322                                    V2T145
001402: 32,3300           53145        V2T130             DLOAD    BZE
001403: 32,3301           03722                                    X(T1)
001404: 32,3302           65311                                    V2T135
001405: 32,3303           71240                           BMN      DLOAD                                 #                                        PL16D
001406: 32,3304           65311                                    V2T135
001407: 32,3305           77626                           STADR
001408: 32,3306           77764                           STORE    10D                                   #  X(T1)LIM = X(T1)MIN
001409: 32,3307           77650                           GOTO
001410: 32,3310           65322                                    V2T145
001411: 32,3311           57545        V2T135             DLOAD    DCOMP                                 #                                        PL16D
001412: 32,3312           77626                           STADR
001413: 32,3313           77760                           STORE    14D                                   #  -X(T1)LIM = X(T1)MAX
001414: 32,3314           77745        V2T140             DLOAD
001415: 32,3315           00013                                    10D
001416: 32,3316           17722                           STODL    X(T1)                                 #  X(T1)MIN = X(T1)
001417: 32,3317           00015                                    12D
001418: 32,3320           52006                           PUSH     GOTO                                  #  DX(T1)MAX = DX(T1)                    PL18D
001419: 32,3321           65327                                    V2T150
001420: 32,3322           77745        V2T145             DLOAD
001421: 32,3323           00017                                    14D
001422: 32,3324           17722                           STODL    X(T1)                                 #  X(T1)MAX = X(T1)
001423: 32,3325           00015                                    12D
001424: 32,3326           41476                           DCOMP    PUSH                                  #  -DX(T1)MAX = DX(T1)                   PL18D
001425: 32,3327           77624        V2T150             CALL                                           #  GOTO X(T1)-DV ITERATOR
001426: 32,3330           65457                                    GAMDV10
001427: 32,3331           53145                           DLOAD    BZE                                   #  EXIT IF MINIMUM FUEL MODE
001428: 32,3332           03632                                    RTEDVD
001429: 32,3333           65455                                    V2T1X
001430:
001431:                                                                                                  #  CONTINUE IF TIME CRITICAL MODE
001432:
001433: 32,3334           50025                           DSU      BMN
001434: 32,3335           03706                                    DV
001435: 32,3336           65341                                    V2T155
001436: 32,3337           77650                           GOTO
001437: 32,3340           65374                                    V2T175
001438: 32,3341           50145        V2T155             DLOAD    BMN
001439: 32,3342           03730                                    NN1A
001440: 32,3343           65346                                    V2T160
001441: 32,3344           77650                           GOTO
001442: 32,3345           65416                                    V2T185
001443:
001444:                                                                                                  #  CONIC TRAJECTORY COMPUTATION
001445:
001446: 32,3346           53145        V2T160             DLOAD    BZE
001447: 32,3347           03722                                    X(T1)
001448: 32,3350           65354                                    V2T165
001449: 32,3351           52040                           BMN      GOTO
001450: 32,3352           65354                                    V2T165
001451: 32,3353           65453                                    V2T300
001452: 32,3354           53145        V2T165             DLOAD    BZE
001453: 32,3355           03757                                    CFPA
001454: 32,3356           65453                                    V2T300
001455: 32,3357           71240                           BMN      DLOAD
001456: 32,3360           65453                                    V2T300
001457: 32,3361           00017                                    14D
001458: 32,3362           17722                           STODL    X(T1)                                 #  X(T1)MAX=X(T1)
001459: 32,3363           00015                                    12D
001460: 32,3364           77676                           DCOMP
001461: 32,3365           34021                           STCALL   16D                                   #  -DX(T1)MAX=DX(T1)
001462: 32,3366           65457                                    GAMDV10
001463: 32,3367           45345                           DLOAD    DSU
001464: 32,3370           03632                                    RTEDVD
001465: 32,3371           03706                                    DV
001466: 32,3372           77640                           BMN
001467: 32,3373           65453                                    V2T300
001468: 32,3374           71214        V2T175             SET      DLOAD
001469: 32,3375           00072                                    F2RTE
001470: 32,3376           03722                                    X(T1)
001471: 32,3377           77614                           BOFF
001472: 32,3400           02742                                    SLOWFLG
001473: 32,3401           65406                                    V2T177
001474: 32,3402           14013                           STODL    10D                                   #  X(T1)MIN
001475: 32,3403           00015                                    12D                                   #  DX(T1)MAX
001476: 32,3404           77650                           GOTO
001477: 32,3405           65411                                    V2T179
001478: 32,3406           14017        V2T177             STODL    14D
001479: 32,3407           00015                                    12D
001480: 32,3410           77676                           DCOMP
001481: 32,3411           34021        V2T179             STCALL   16D                                   #  DX(T1)
001482: 32,3412           65457                                    GAMDV10
001483: 32,3413           50145                           DLOAD    BMN
001484: 32,3414           03730                                    NN1A
001485: 32,3415           65453                                    V2T300
001486:
001487:                                                                                                  #  PREVENT A LARGE CHANGE IN INDEPENDENT VARIABLE DURING AN ITERATION FOR A
001488:                                                                                                  #  PRECISION TRAJECTORY
001489:
001490: 32,3416           45345        V2T185             DLOAD    DSU
001491: 32,3417           03722                                    X(T1)
001492: 32,3420           00001                                    00D
001493: 32,3421           65246                           ABS      PDDL                                  #  /X(T1)-X(T1),,/ = BETA7
001494: 32,3422           00015                                    12D
001495: 32,3423           44352                           SL1      BDSU
001496: 32,3424           71240                           BMN      DLOAD
001497: 32,3425           65453                                    V2T300
001498: 32,3426           00001                                    00D                                   #  CONTINUE IF BETA7 LARGER THAN 2DX(T1)MAX
001499: 32,3427           03722                           STORE    X(T1)                                 #  X(T1),, = X(T1)
001500: 32,3430           50025                           DSU      BMN
001501: 32,3431           00017                                    14D
001502: 32,3432           65440                                    V2T195
001503: 32,3433           77745                           DLOAD
001504: 32,3434           00017                                    14D
001505: 32,3435           03722                           STORE    X(T1)                                 #  X(T1)MAX = X(T1)
001506: 32,3436           77650                           GOTO
001507: 32,3437           65451                                    V2T205
001508: 32,3440           45345        V2T195             DLOAD    DSU
001509: 32,3441           03722                                    X(T1)
001510: 32,3442           00013                                    10D
001511: 32,3443           52040                           BMN      GOTO
001512: 32,3444           65446                                    V2T200
001513: 32,3445           65451                                    V2T205
001514: 32,3446           77745        V2T200             DLOAD
001515: 32,3447           00013                                    10D
001516: 32,3450           03722                           STORE    X(T1)                                 #  X(T1)MIN = X(T1)
001517: 32,3451           77624        V2T205             CALL
001518: 32,3452           65660                                    DVCALC
001519: 32,3453           77745        V2T300             DLOAD
001520: 32,3454           33524                                    ZERORTE
001521: 32,3455           77650        V2T1X              GOTO
001522: 32,3456           00041                                    33D
001523:
001524:                                                                                                  #  X(T1)-DV ITERATOR SUBROUTINE
001525:
001526:                                                                                                  #  DESCRIPTION
001527:                                                                                                  #        COMPUTES A POST IMPULSE VELOCITY VECTOR (V2(T1)) WHICH REQUIRES A MINIMUM DV.
001528:
001529:                                                                                                  #  CALLING SEQUENCE
001530:                                                                                                  #        L       CALL
001531:                                                                                                  #        L+1             GAMDV10
001532:
001533:                                                                                                  #  NORMAL EXIT MODE
001534:                                                                                                  #        AT L+2 OF CALLING SEQUENCE
001535:
001536:                                                                                                  #  ALARM EXIT MODE
001537:                                                                                                  #        AT V2T1X WITH MPAC = OCTAL 605 FOR EXCESS ITERATIONS
001538:
001539:                                                                                                  #  SUBROUTINES CALLED
001540:                                                                                                  #        DVCALC
001541:
001542:                                                                                                  #  ERASABLE INITIALIZATION REQUIRED
001543:                                                                                                  #     PUSHLIST
001544:                                                                                                  #        02D             THETA1=BETA5*LAMBDA-1                                   TP      B17
001545:                                                                                                  #        05D             THETA2=2*R(T1)*(LAMBDA-1)                               TP      B38/B36
001546:                                                                                                  #        08D             THETA3=MU**.5/R(T1)                                     DP      B-4/B-5
001547:                                                                                                  #        10D             X(T1)MIN=LOWER BOUND ON INDEPENDENT VARIABLE X(T1)      DP      B5
001548:                                                                                                  #        12D             DX(T1)MAX=MAXIMUM DX(T1)                                DP      B5
001549:                                                                                                  #        14D             X(T1)MAX=UPPER BOUND ON INDEPENDENT VARIABLE X(T1)      DP      B5
001550:                                                                                                  #        16D             DX(T1)=ITERATOR INCREMENT                               DP      B5
001551:                                                                                                  #     MPAC
001552:                                                                                                  #        NONE
001553:                                                                                                  #     OTHER
001554:                                                                                                  #        V(T1)/          INITIAL VELOCITY VECTOR                                 VECTOR  B7/B5   METERS/CS
001555:                                                                                                  #        RTEDVD          DELTA VELOCITY DESIRED                                  DP      B7/B5   METERS/CS
001556:                                                                                                  #        UR1/            UNIT INITIAL VECTOR                                     VECTOR  B1
001557:                                                                                                  #        UH/             UNIT HORIZONTAL VECTOR                                  VECTOR  B1
001558:                                                                                                  #        X(T1)           COTANGENT OF INITIAL FLIGHT PATH ANGLE (FROM VERTICAL)  DP      B5
001559:                                                                                                  #        F2RTE           TIME CRITICAL OR MINIMUM FUEL MODE INDICATOR            STATE AREA      0 MIN. FUEL, 1 MIN. TIME
001560:
001561:                                                                                                  #  OUTPUT
001562:                                                                                                  #        V2(T1)/         POST IMPULSE INITIAL VELOCITY VECTOR                    VECTOR  B7/B5   METERS/CS
001563:                                                                                                  #        DV              INITIAL VELOCITY CHANGE                                 DP      B7/B5   METERS/CS
001564:                                                                                                  #        X(T1)           COTANGENT OF INITIAL FPA MEASURED FROM VERTICAL         DP      B5
001565:                                                                                                  #        PCON            SEMI-LATUS RECTUM                                       DP      B28/B26 METERS
001566:
001567:                                                                                                  #  DEBRIS
001568:                                                                                                  #     PUSHLIST
001569:                                                                                                  #        00D             X(T1),,
001570:                                                                                                  #        02D             THETA1
001571:                                                                                                  #        05D             THETA2
001572:                                                                                                  #        08D             THETA3
001573:                                                                                                  #        10D             X(T1)MIN
001574:                                                                                                  #        12D             DX(T1)MAX
001575:                                                                                                  #        14D             X(T1)MAX
001576:                                                                                                  #        16D             DX(T1)
001577:                                                                                                  #        22D             DV,=PREVIOUS DV                                         DP      B7/B5
001578:                                                                                                  #        24D             BETA9=X(T1)+1.1DX(T1)                                   DP      B5
001579:                                                                                                  #        31D             GAMDV10 SUBROUTINE RETURN ADDRESS
001580:                                                                                                  #        32D             DVCALC SUBROUTINE RETURN ADDRESS
001581:                                                                                                  #        33D             V2T100 SUBROUTINE RETURN ADDRESS
001582:
001583: 32,3457           77620        GAMDV10            STQ
001584: 32,3460           00037                                    31D
001585: 32,3461           45001                           SETPD    CALL
001586: 32,3462           00023                                    18D                                   #                                        PL18D
001587: 32,3463           65660                                    DVCALC
001588: 32,3464           45345                           DLOAD    DSU
001589: 32,3465           00017                                    14D
001590: 32,3466           00013                                    10D
001591: 32,3467           77600                           BOV
001592: 32,3470           65510                                    GAMDV20
001593: 32,3471           45206                           PUSH     DSU                                   #  X(T1)MAX-X(T1)MIN=BETA8       B5      PL20D
001594: 32,3472           33614                                    EPC9RTE
001595: 32,3473           71240                           BMN      DLOAD
001596: 32,3474           65656                                    GAMDVX                                #  BOUNDS CLOSE TOGETHER
001597: 32,3475           00023                                    18D
001598: 32,3476           50025                           DSU      BMN                                   #  BETA8-DX(T1)MAX
001599: 32,3477           00015                                    12D
001600: 32,3500           65504                                    GAMDV15
001601: 32,3501           52001                           SETPD    GOTO                                  #                                        PL18D
001602: 32,3502           00023                                    18D
001603: 32,3503           65510                                    GAMDV20
001604: 32,3504           77745        GAMDV15            DLOAD                                          #                                        PL18D
001605: 32,3505           70565                           SIGN     SR1
001606: 32,3506           00021                                    16D
001607: 32,3507           00021                           STORE    16D                                   #  BETA8(SIGNDX(T1))/2=DX(T1)
001608: 32,3510           77745        GAMDV20            DLOAD
001609: 32,3511           33526                                    M144RTE
001610: 32,3512           03732                           STORE    NN2
001611: 32,3513           43345        GAMDV25            DLOAD    DAD
001612: 32,3514           03732                                    NN2
001613: 32,3515           33522                                    1RTEB28
001614: 32,3516           67240                           BMN      SLOAD
001615: 32,3517           65523                                    GAMDV30
001616: 32,3520           33562                                    OCT605
001617: 32,3521           77650                           GOTO
001618: 32,3522           65455                                    V2T1X
001619: 32,3523           03732        GAMDV30            STORE    NN2                                   #  NN2=NN2+1
001620: 32,3524           65345                           DLOAD    PDDL                                  #  X(T1)=X(T1),                  B5      PL20D
001621: 32,3525           03722                                    X(T1)
001622: 32,3526           03706                                    DV
001623: 32,3527           43325                           PDDL     DAD                                   #  DV=DV,                        B7/B5   PL22D
001624: 32,3530           03722                                    X(T1)
001625: 32,3531           00021                                    16D
001626: 32,3532           37722                           STCALL   X(T1)                                 #  X(T1)+DX(T1)=X(T1)            B5
001627: 32,3533           65660                                    DVCALC
001628: 32,3534           71214                           BON      DLOAD
001629: 32,3535           00312                                    F2RTE
001630: 32,3536           65552                                    GAMDV35
001631: 32,3537           03706                                    DV
001632: 32,3540           50025                           DSU      BMN                                   #  CONTINUE IF FUEL CRITICAL MODE
001633: 32,3541           00025                                    20D
001634: 32,3542           65547                                    GAMDV33
001635: 32,3543           57545        GAMDV32            DLOAD    DCOMP
001636: 32,3544           00021                                    16D
001637: 32,3545           77742                           SR1
001638: 32,3546           00021                           STORE    16D
001639: 32,3547           52001        GAMDV33            SETPD    GOTO
001640: 32,3550           00023                                    18D                                   #                                        PL18D
001641: 32,3551           65615                                    GAMDV50
001642:
001643:                                                                                                  #  TIME CRITICAL MODE
001644:
001645: 32,3552           45345        GAMDV35            DLOAD    DSU
001646: 32,3553           03632                                    RTEDVD
001647: 32,3554           03706                                    DV
001648: 32,3555           41525                           PDDL     PUSH                                  #  DVD-DV=DVERR                  B7/B5   PL22D
001649: 32,3556           51545        GAMDV40            DLOAD    ABS                                   #  DV,                                   PL24D
001650: 32,3557           00025                                    20D
001651: 32,3560           50025                           DSU      BMN
001652: 32,3561           33616                                    EPC10RTE
001653: 32,3562           65656                                    GAMDVX
001654: 32,3563           71204        GAMDV45            BOVB     DLOAD
001655: 32,3564           57353                                    TCDANZIG                              #  ASSURE OVFIND IS 0
001656: 32,3565           60221                           BDSU     NORM
001657: 32,3566           03706                                    DV
001658: 32,3567           00050                                    X2
001659: 32,3570           77725                           PDDL                                           #  DV-DV,                        B7/B5-N2 PL22D
001660: 32,3571           70501                           NORM     SR1                                   #  DVERR                         B8/B6-N1
001661: 32,3572           00047                                    X1
001662: 32,3573           65271                           DDV      PDDL                                  #  DVERR/ DV - DV
001663: 32,3574           41221                           BDSU     DMP                                   #                                        PL18D
001664: 32,3575           03722                                    X(T1)
001665: 32,3576           77660                           XSU,1
001666: 32,3577           00047                                    X2
001667: 32,3600           00021                           STORE    16D                                   #  PRESERVE SIGN IF OVERFLOW
001668: 32,3601           40057                           SR*      BOV
001669: 32,3602           20600                                    0          -1,1
001670: 32,3603           65611                                    GAMDV47
001671: 32,3604           00021                           STORE    16D                                   #  (X(T1)-X(T1),)DVERR/(DV-DV,)=DX(T1)
001672: 32,3605           45246                           ABS      DSU
001673: 32,3606           00015                                    12D
001674: 32,3607           77640                           BMN
001675: 32,3610           65615                                    GAMDV50
001676: 32,3611           75345        GAMDV47            DLOAD    SIGN
001677: 32,3612           00015                                    12D
001678: 32,3613           00021                                    16D
001679: 32,3614           00021                           STORE    16D                                   #  DX(T1)MAX(SIGNDX(T1))=DX(T1)
001680:
001681:                                                                                                  #  CHECK TO KEEP INDEPENDENT VARIABLE IN BOUNDS
001682:
001683: 32,3615           41345        GAMDV50            DLOAD    DMP
001684: 32,3616           00021                                    16D
001685: 32,3617           33536                                    1.1RTEB1
001686: 32,3620           43352                           SL1      DAD
001687: 32,3621           03722                                    X(T1)
001688: 32,3622           00031                           STORE    24D                                   #  X(T1)+1.1DX(T1)=BETA9         B5
001689: 32,3623           50025                           DSU      BMN
001690: 32,3624           00017                                    14D
001691: 32,3625           65634                                    GAMDV55
001692: 32,3626           45345                           DLOAD    DSU
001693: 32,3627           00017                                    14D
001694: 32,3630           03722                                    X(T1)
001695: 32,3631           77742                           SR1
001696: 32,3632           34021                           STCALL   16D                                   #  (X(T1)MAX-X(T1))/2=DX(T1)     B5
001697: 32,3633           65647                                    GAMDV65
001698: 32,3634           45345        GAMDV55            DLOAD    DSU
001699: 32,3635           00031                                    24D
001700: 32,3636           00013                                    10D
001701: 32,3637           52040                           BMN      GOTO
001702: 32,3640           65642                                    GAMDV60
001703: 32,3641           65647                                    GAMDV65
001704: 32,3642           45345        GAMDV60            DLOAD    DSU
001705: 32,3643           00013                                    10D
001706: 32,3644           03722                                    X(T1)
001707: 32,3645           77742                           SR1
001708: 32,3646           00021                           STORE    16D                                   #  (X(T1)MIN-X(T1))/2=DX(T1)     B5
001709: 32,3647           51545        GAMDV65            DLOAD    ABS
001710: 32,3650           00021                                    16D
001711: 32,3651           50025                           DSU      BMN
001712: 32,3652           33614                                    EPC9RTE
001713: 32,3653           65656                                    GAMDVX
001714: 32,3654           77650                           GOTO
001715: 32,3655           65513                                    GAMDV25
001716: 32,3656           77650        GAMDVX             GOTO
001717: 32,3657           00037                                    31D
001718:
001719:                                                                                                  #  DV CALCULATION SUBROUTINE
001720:
001721:                                                                                                  #  INPUT
001722:                                                                                                  #     PUSHLIST
001723:                                                                                                  #        02D             THETA1=BETA5*LAMBDA-1                                   TP      B17
001724:                                                                                                  #        05D             THETA2=2*R(T1)*(LAMBDA-1)                               TP      B38/B36
001725:                                                                                                  #        08D             THETA3=MU**.5/R(T1)                                     DP      B-4/B-5
001726:                                                                                                  #     OTHER
001727:                                                                                                  #        X(T1)           COTANGENT OF POST IMPULSE INITIAL FLIGHT PATH ANGLE     DP      B5
001728:                                                                                                  #        V(T1)/          INITIAL VELOCITY VECTOR (PRE IMPULSE)                   VECTOR  B7/B5   METERS/CS
001729:                                                                                                  #        UR1/            UNIT INITIAL VECTOR                                     VECTOR  B1
001730:                                                                                                  #        UH/             UNIT HORIZONTAL VECTOR                                  VECTOR  B1
001731:
001732:                                                                                                  #  OUTPUT
001733:                                                                                                  #        V2(T1)/         POST IMPULSE INITIAL VELOCITY VECTOR                    VECTOR  B7/B5   METERS/CS
001734:                                                                                                  #        DV              INITIAL VELOCITY CHANGE                                 DP      B7/B5   METERS/CS
001735:                                                                                                  #        PCON            SEMI-LATUS RECTUM                                       DP      B28/B26 METERS
001736:
001737:                                                                                                  #  DEBRIS
001738:                                                                                                  #        28D             THETA3*PCON**.5                                         DP      B10/B8-N1
001739:                                                                                                  #        C(PUSLOC)       THETA3(PCON**.5)*X(T1)*UR1/                             VECTOR  B7/B5
001740:                                                                                                  #        32D             DVCALC SUBROUTINE RETURN ADDRESS
001741:                                                                                                  #        X1              NORMALIZATION FACTOR FOR VALUE IN 28D
001742:
001743:                                                                                                  #  PUSHLOC IS RESTORED TO ITS ENTRANCE VALUE UPON EXITING DVCALC
001744:
001745: 32,3660           71220        DVCALC             STQ      DLOAD
001746: 32,3661           00040                                    32D
001747: 32,3662           03722                                    X(T1)
001748: 32,3663           54316                           DSQ      SR
001749: 32,3664           20610                                    7
001750: 32,3665           76276                           DCOMP    TAD
001751: 32,3666           00003                                    02D
001752: 32,3667           41501                           NORM     PUSH
001753: 32,3670           00047                                    X1
001754: 32,3671           60351                           TLOAD    NORM
001755: 32,3672           00006                                    05D
001756: 32,3673           00050                                    X2
001757: 32,3674           70434                           RTB      SR1
001758: 32,3675           45716                                    DPMODE
001759: 32,3676           56264                           XSU,2    DDV
001760: 32,3677           00046                                    X1
001761: 32,3700           77657                           SR*
001762: 32,3701           57170                                    6,2
001763: 32,3702           03720                           STORE    PCON                                  #  THETA2/(THETA1-X(T1)**2)=PCON B28/26
001764: 32,3703           41366                           SQRT     DMP
001765: 32,3704           00011                                    08D
001766: 32,3705           77701                           NORM
001767: 32,3706           00047                                    X1
001768: 32,3707           14035                           STODL    28D                                   #  THETA3*PCON**.5               B10/B8 -N1
001769: 32,3710           03722                                    X(T1)
001770: 32,3711           74301                           NORM     VXSC
001771: 32,3712           00050                                    X2
001772: 32,3713           03740                                    UR1/                                  #  X(T1)*UR1/                    B5+B1 -N2
001773: 32,3714           74274                           XAD,2    VXSC
001774: 32,3715           00046                                    X1
001775: 32,3716           00035                                    28D
001776: 32,3717           63257                           VSR*     PDVL                                  #  THETA3(PCON**.5)X(T1)*UR1/    B7/B5
001777: 32,3720           57207                                    0          -9D,2                      #                +
001778: 32,3721           03746                                    UH/
001779: 32,3722           53761                           VXSC     VSR*                                  #  THETA3(PCON**.5)UH/           B7/B5
001780: 32,3723           00035                                    28D
001781: 32,3724           20575                                    0          -4,1                       #                =
001782: 32,3725           45455                           VAD      STADR
001783: 32,3726           74077                           STORE    V2(T1)/                               #  V2(T1)/                       B7/B5
001784: 32,3727           51451                           VSU      ABVAL
001785: 32,3730           03672                                    V(T1)/
001786: 32,3731           03706                           STORE    DV                                    #  ABVAL(V2(T1)/-V1(T)/)=DV      B7/B5
001787: 32,3732           77650                           GOTO
001788: 32,3733           00040                                    32D
001789:
001790:                                                                                                  #  SUBROUTINE TO COMPUTE BOUNDS ON INDEPENDENT VARIABLE X(T1)
001791:
001792:                                                                                                  #  INPUT
001793:                                                                                                  #     PUSHLIST
001794:                                                                                                  #        PUSHLOC -4      MAJOR AXIS (MA)                                         DP      B30/B28
001795:                                                                                                  #        PUSHLOC -2      MAJOR AXIS (MA) AGAIN                                   DP      B30/B28
001796:                                                                                                  #        28D             BETA5=LAMBDA*BETA1                                      DP      B9
001797:                                                                                                  #     OTHER
001798:                                                                                                  #        RCON                                                                    DP      B29/B27
001799:                                                                                                  #        R(T1)                                                                   DP      B29/B27
001800:
001801:                                                                                                  #  OUTPUT
001802:                                                                                                  #     MPAC
001803:                                                                                                  #        X(T1)LIM        LIMIT ON INDEPENDENT VARIABLE X(T1)                     DP      B5
001804:
001805:                                                                                                  #  DEBRIS
001806:                                                                                                  #     PUSHLIST
001807:                                                                                                  #        C(PUSHLOC)      MA-RCON                                                 DP      (B30/28)-N1
001808:                                                                                                  #        C(PSHLOC)+2     MA                                                      DP      B30/B28
001809:                                                                                                  #        X1              NORMALIZATION FACTOR FOR MA-RCON
001810:                                                                                                  #        20D             XT1LIM SUBROUTINE RETURN ADDRESS
001811:
001812:                                                                                                  #  PUSHLOC IS RESTORED TO ITS ENTRANCE VALUE UPON EXITING XT1LIM
001813:
001814: 32,3734           71220        XT1LIM             STQ      DLOAD
001815: 32,3735           00024                                    20D
001816: 32,3736           03636                                    RCON
001817: 32,3737           44342                           SR1      BDSU
001818: 32,3740           65301                           NORM     PDDL                                  #  MA-RCON                       B30-N1
001819: 32,3741           00050                                    X2
001820: 32,3742           70525                           PDDL     SR1
001821: 32,3743           03646                                    R(T1)
001822: 32,3744           56221                           BDSU     DDV
001823: 32,3745           41257                           SL*      DMP
001824: 32,3746           57601                                    0          -3,2                       #                                B3
001825: 32,3747           00035                                    28D
001826: 32,3750           45257                           SL*      DSU                                   #  BETA10=BETA5(MA-RT)/(MA-RC)-1 B11
001827: 32,3751           20173                                    0          -6,1
001828: 32,3752           33521                                    1RTEB25    +1                         #  1.0 B-11
001829: 32,3753           40152                           SL1      BOV
001830: 32,3754           65760                                    XT1LIM2                               #                                B10
001831: 32,3755           52040                           BMN      GOTO
001832: 32,3756           65764                                    XT1LIM5
001833: 32,3757           65762                                    XT1LIM3
001834: 32,3760           77745        XT1LIM2            DLOAD                                          #  BETA10=POSMAX IF OVERFLOW
001835: 32,3761           33542                                    2RTEB1
001836: 32,3762           52166        XT1LIM3            SQRT     GOTO                                  #  X(T1)=SQRT(BETA10)            B5
001837: 32,3763           65766                                    XT1LIMX
001838: 32,3764           77745        XT1LIM5            DLOAD
001839: 32,3765           33524                                    ZERORTE
001840: 32,3766           77650        XT1LIMX            GOTO
001841: 32,3767           00024                                    20D
001842:
001843:                                                                                                  #  CONSTANTS FOR THE P37 AND P70 PROGRAMS AND SUBROUTINES
001844:
001845: 36,3260                                           BANK     36
001846: 35,2000                                           SETLOC   RTECON1
001847: 35,2000                                           BANK
001848:
001849: 35,3477           20000 00000  1RTEB1             2DEC     1.         B-1
001850: 35,3501           10000 00000  1RTEB2             2DEC     1.         B-2
001851: 35,3503           04000 00000  1RTEB3             2DEC     1.         B-3
001852: 35,3505           02000 00000  1RTEB4             2DEC     1.         B-4
001853: 35,3507           00020 00000  1RTEB10            2DEC     1.         B-10
001854: 35,3511           00004 00000  1RTEB12            2DEC     1.         B-12
001855: 35,3513           00002 00000  1RTEB13            2DEC     1.         B-13
001856: 35,3515           00000 04000  1RTEB17            2DEC     1.         B-17
001857: 35,3517           00000 00010  1RTEB25            2DEC     1.         B-25
001858:                                                                                                  #                                        * * B25 AND B28 MUST BE CONSECUTIVE * *
001859: 35,3521           00000 00001  1RTEB28            2DEC     1.         B-28
001860: 35,3523           00000 00000  ZERORTE            2DEC     0          B-28
001861: 35,3525           77777 77557  M144RTE            2DEC     -144.      B-28
001862: 35,3527           77777 77760  M15RTE             2DEC     -15        B-28
001863: 35,3531           00000 00012  10RTE              2DEC     10         B-28
001864: 35,3533           54631 63145  M.6RTE             2DEC     -.6
001865: 35,3535           21463 06315  1.1RTEB1           2DEC     1.1        B-1
001866: 35,3537           77777 77771  M6RTEB28           2DEC     -6         B-28
001867: 35,3541           37777 37777  2RTEB1             2OCT     3777737777
001868: 35,3543           77777 77766  M9RTEB28           2DEC     -9         B-28
001869: 35,3545           77777 77767  M8RTEB28           2DEC     -8         B-28
001870: 35,3547           00000 35610  30480RTE           2DEC     30480.     B-29
001871: 35,3551           37405 12250  VCSPS              2DEC     31.510396  B-5                        #  (SEE 2VEXHUST)
001872: 35,3553           33041 37714  VCRCS              2DEC     27.0664    B-5
001873: 35,3555           00003 13241  MDOTRCS            2DEC     .0016375   B-3
001874: 35,3557           20000 00000  CSUBT              2DEC     .5
001875: 35,3561           00605        OCT605             OCT      00605
001876: 35,3562           00612        OCT612             OCT      00612
001877: 35,3563           40214 45266  MCOS7.5            2DEC     -.99144486
001878: 35,3565           73645 56536  MSIN7.5            2DEC     -.13052619
001879: 35,3567           70467 71205  MCOS22.5           2DEC     -.92387953 B-2
001880: 35,3571           16525 12525  THETA165           2DEC     .4583333333
001881: 35,3573           22525 12525  THETA210           2DEC     .5833333333
001882: 35,3575           17775 06676  EPC1RTE            2DEC     .99966     B-1
001883: 35,3577           00000 00062  EPC2RTE            2DEC     100.       B-29
001884: 35,3601           00020 14223  EPC3RTE            2DEC     .001
001885: 35,3603           00000 05174  EPC4RTE            2DEC     .00001
001886: 35,3605           00002 21727  EPC5RTE            2DEC     .01        B-6
001887: 35,3607           00000 01654  EPC6RTE            2DEC     .000007    B-1
001888: 35,3611           00000 00764  EPC7RTE            2DEC     1000.      B-29
001889: 35,3613           00000 00010  EPC9RTE            2DEC     1.         B-25
001890: 35,3615           00000 00322  EPC10RTE           2DEC     .0001      B-7
001891:
001892: 35,3617                                           BANK     35
001893: 35,2000                                           SETLOC   RTECON1
001894: 35,2000                                           BANK
001895:
001896: 35,3617           75725 75417  C4RTE              2DEC     -6.986643  E7         B-30
001897: 35,3621           00325 23740  K1RTE              2DEC     7.         E6         B-29
001898: 35,3623           00306 06614  K2RTE              2DEC     6495000.   B-29
001899: 35,3625           76027 70156  K3RTE              2DEC     -.06105
001900: 35,3627           74517 54131  K4RTE              2DEC     -.10453
001901: 35,3631           30276 05001  RTMURTE            2DEC     199650.501 B-18
001902: 35,3633           00003 27040  E3RTE              2DEC     121920.    B-29
001903:

End of include-file P37,P70.agc.  Parent file is MAIN.agc


