
Source Code


000002:                                                                                                  ## Copyright:   Public domain.
000003:                                                                                                  ## Filename:    P40-P47.agc
000004:                                                                                                  ## Purpose:     A section of Manche72 revision 3.
000005:                                                                                                  ##              It is part of the reconstructed source code for the final, flown
000006:                                                                                                  ##              release of the software for the Command Module's (CM) Apollo
000007:                                                                                                  ##              Guidance Computer (AGC) for Apollo 13. No original listings
000008:                                                                                                  ##              of this program are available; instead, this file was recreated
000009:                                                                                                  ##              from a reconstructed copy of Comanche 072. It has been adapted
000010:                                                                                                  ##              such that the resulting bugger words exactly match those
000011:                                                                                                  ##              specified for Manche72 revision 3 in NASA drawing 2021153G,
000012:                                                                                                  ##              which gives relatively high confidence that the reconstruction
000013:                                                                                                  ##              is correct.
000014:                                                                                                  ## Assembler:   yaYUL
000015:                                                                                                  ## Contact:     Ron Burkey <info@sandroid.org>.
000016:                                                                                                  ## Website:     www.ibiblio.org/apollo/index.html
000017:                                                                                                  ## Mod history: 2024-05-19 MAS  Created from Comanche 072.
000018:
000019:                                                                                                  #  PROGRAM DESCRIPTION ** P40CSM **
000020:
000021: 35,3477  E6,1466                                  EBANK=   DAPDATR1
000022: 31,3704                                           BANK     31
000023: 24,2000                                           SETLOC   P40S
000024: 24,2000                                           BANK
000025:
000026: 24,2073                                           COUNT    24/P40
000027:
000028: 24,2073           05574        P40CSM             TC       DOWNFLAG
000029: 24,2074           00023                           ADRES    ENG2FLAG
000030:
000031: 24,2075           06006                           TC       INTPRET
000032: 24,2076           43135                           SLOAD    BOFF
000033: 24,2077           03425                                    ECSTEER                               #  IS THIS AN EXTERNAL DELTA V BURN
000034: 24,2100           01347                                    XDELVFLG
000035: 24,2101           50104                                    P40S/C                                #  NO    CSTEER = ECSTEER
000036: 24,2102           77745                           DLOAD                                          #  YES   CSTEER = ZERO
000037: 24,2103           15334                                    HI6ZEROS
000038: 24,2104           17703        P40S/C             STODL    CSTEER
000039: 24,2105           10411                                    FENG                                  #  SET UP THRUST FOR P40 20,000 LBS
000040: 24,2106           17727        P40S/F             STODL    F                                     #  P41 ENTERS HERE
000041: 24,2107           03413                                    TIG                                   #  ORIGINAL TIG MAY BE SLIPPED BY P40S/SV
000042: 24,2110           03450                           STORE    NOMTIG                                #  SET ORIGINAL TIME OF IGNITION FOR S40.9
000043:
000044: 24,2111           77776                           EXIT
000045: 24,2112           04676                           TC       BANKCALL
000046: 24,2113           17653                           CADR     R02BOTH                               #  IMU STATUS CHECK
000047:
000048: 24,2114           06006        P40PVA             TC       INTPRET
000049: 24,2115           77624                           CALL
000050: 24,2116           34073                                    S40.1                                 #  COMPUTE VGTIG,UT
000051: 24,2117           77624                           CALL
000052: 24,2120           51577                                    S40.2,3                               #  COMPUTE PREFERRED ATTITUDE
000053: 24,2121           77414                           SET      EXIT
000054: 24,2122           01073                                    PFRATFLG
000055: 24,2123           02303        P40SXTY            TCR      SETMINDB   -1                         #  NARROW DEADBAND FOR MANEUVER (EBANK6)
000056: 24,2124           00003                           RELINT
000057: 24,2125           04676                           TC       BANKCALL
000058: 24,2126           56000                           CADR     R60CSM                                #  ATTITUDE MANEUVER
000059: 24,2127           45033                           CS       ONE                                   #  FOR UPDATEVG
000060: 24,2130           55744                           TS       NBRCYCLS
000061: 24,2131           05562                           TC       UPFLAG
000062: 24,2132           00155                           ADRES    TIMRFLAG                              #  ALLOW CLOCKTASK
000063:
000064: 24,2133           02326                           TC       P41/P40
000065: 24,2134           02343                           TC       P41/DSP                               #  P41
000066:
000067: 24,2135           32425        P40TTOG            CAF      V06N40                                #  INITIALIZE FOR CLOCKTASK WHICH IS CALLED
000068: 24,2136           55145                           TS       NVWORD1                               #  BELOW
000069:
000070: 24,2137           06006                           TC       INTPRET
000071: 24,2140           51575                           VLOAD    ABVAL                                 #  FOR R2
000072: 24,2141           03721                                    VGTIG
000073: 24,2142           17773                           STODL    VGDISP
000074: 24,2143           15334                                    HI6ZEROS
000075: 24,2144           03426                           STORE    DVTOTAL
000076: 24,2145           77776                           EXIT
000077:
000078: 24,2146           00006                           EXTEND
000079: 24,2147           33064                           DCA      STEERADS                              #  SET FOR UPDATEVG AND TEST FOR STEERING
000080: 24,2150           53223                           DXCH     AVEGEXIT                              #  AFTER AVERAGE G
000081:
000082: 24,2151           32420        P40GMB             CAF      P40CKLS2                              #  (4.1 PROTECTION)
000083: 24,2152           04676                           TC       BANKCALL
000084: 24,2153           21045                           CADR     GOPERF1
000085: 24,2154           12275                           TCF      POST41                                #  V34
000086: 24,2155           12435                           TCF      TST,TRIM                              #  V33
000087: 24,2156           45033        TRIMONLY           CS       BIT1                                  #  SET MRKRTEMP FOR GIMBAL TRIM (-1)
000088: 24,2157           55445                 +1        TS       MRKRTMP                               #  ENTRY FROM TST,TRIM
000089:
000090: 24,2160           35035                           CAF      ZERO                                  #  SET CNTR      +0 FOR RESTART LOGIC IN S40.6
000091: 24,2161           55447                           TS       CNTR                                  #        +0 SAYS NORMAL ENTRY.
000092:                                                                                                  #        +1 (PRE40.6) SAYS RESTART ENTRY
000093:
000094: 24,2162           35033                           CAF      ONE
000095: 24,2163           05261                           TC       WAITLIST
000096: 24,2164  E6,1466                                  EBANK=   DAPDATR1
000097: 24,2164           02271 40066                     2CADR    S40.6
000098:
000099: 24,2166           11445                           CCS      MRKRTMP                               #  TEST TO FIND TIME TO WAIT FOR GIMBAL TEST
000100: 24,2167           32417                           CAF      18SEC                                 #  PLUS, DELAY FOR 18 SECONDS
000101: 24,2170           12172                           TCF      +2                                    #  HOLE
000102: 24,2171           33067                           CAF      5SEC                                  #  DELAY FOR TRIM ONLY TASK
000103: 24,2172           04676                           TC       BANKCALL
000104: 24,2173           01732                           CADR     DELAYJOB
000105: 24,2174           05406                           TC       2PHSCHNG
000106: 24,2175           40026                           OCT      40026                                 #  6.2 = PRE40.6(-0CS), CLOKTASK(100CS)
000107: 24,2176           00234                           OCT      00234                                 #  4.23 = P40S/SV (PRIO12)
000108: 24,2177           35033        P40S/RS            CAF      ONE
000109: 24,2200           05261                           TC       WAITLIST                              #  P41/SDP
000110: 24,2201  E7,1412                                  EBANK=   TIG
000111: 24,2201           03263 50067                     2CADR    CLOKTASK
000112:
000113: 24,2203           00003                           RELINT
000114:
000115: 24,2204           03371        P40S/SV            TCR      E7SETTER                              #  JOB, 4.23 PRETECTS, PRIO12
000116: 24,2205  E7,1412                                  EBANK=   TIG
000117: 24,2205           06006                           TC       INTPRET
000118: 24,2206           45345                           DLOAD    DSU
000119: 24,2207           03413                                    TIG
000120: 24,2210           10416                                    SEC29.96
000121: 24,2211           00041                           STORE    TDEC1
000122:
000123: 24,2212           77624                           CALRB                                          #  RETURN IN BASIC
000124: 24,2213           27557                                    MIDTOAV1
000125: 24,2214           12216                           TCF      +2
000126: 24,2215           02237                           TC       P40SNEWM                              #  INTEGRATION TIME GREATER THAN ALLOWED
000127: 24,2216           00006        P40SET             EXTEND
000128: 24,2217           30155                           DCA      MPAC                                  #  DELTA TIME TO PREREAD (INT.INIT.)
000129: 24,2220           53673                           DXCH     P40TMP
000130: 24,2221           00006                           EXTEND
000131: 24,2222           43067                           DCS      5SECDP                                #  FOR TTGBLNK
000132: 24,2223           21673                           DAS      P40TMP
000133: 24,2224           00006                           EXTEND
000134: 24,2225           31673                           DCA      P40TMP
000135: 24,2226           05356                           TC       LONGCALL
000136: 24,2227  E7,1412                                  EBANK=   TIG
000137: 24,2227           02437 50067                     2CADR    TIGBLNK
000138:
000139: 24,2231           05426                           TC       PHASCHNG
000140: 24,2232           20214                           OCT      20214                                 #  4.21 = TIGBLNK (P40TMP CS)
000141:
000142: 24,2233           15233                           TCF      ENDOFJOB
000143: 24,2234           04676        P40BLNKR           TC       BANKCALL
000144: 24,2235           20703                           CADR     CLEANDSP                              #  REMOVE RESIDUE
000145: 24,2236           15233                           TCF      ENDOFJOB
000146: 24,2237  E7,1412                                  EBANK=   TIG
000147: 24,2237           00006        P40SNEWM           EXTEND
000148: 24,2240           31246                           DCA      PIPTIME1
000149: 24,2241           53413                           DXCH     TIG                                   #  SET NEW TIG FOR 06 40
000150: 24,2242           00006                           EXTEND
000151: 24,2243           32416                           DCA      SEC29.96
000152: 24,2244           21413                           DAS      TIG
000153: 24,2245           12216                           TCF      P40SET                                #  FOR LONGCALL OF TIG-30 (OR -35)
000154:
000155: 24,2246  E6,1466                                  EBANK=   DAPDATR1
000156: 24,2246           32426        POSTBURN           CAF      V16N40
000157: 24,2247           04676                           TC       BANKCALL
000158: 24,2250           20704                           CADR     REFLASH
000159: 24,2251           12275                           TCF      POST41                                #  V34 GO FINISH
000160: 24,2252           12254                           TCF      P40RCS                                #  PROCEED
000161: 24,2253           12246                           TCF      POSTBURN                              #  RECYCLE
000162: 24,2254           00006        P40RCS             EXTEND                                         #  V99N40 ENTERS HERE ON A P40 BYPASS SPS
000163: 24,2255           32462                           DCA      ACADN85
000164: 24,2256           53223                           DXCH     AVEGEXIT
000165: 24,2257           35056                           CAF      2SECS                                 #  WAIT FOR CALCN85 VIA AVEGEXIT
000166: 24,2260           04676                           TC       BANKCALL
000167: 24,2261           01732                           CADR     DELAYJOB
000168:
000169: 24,2262           02303        P40MINDB           TCR      SETMINDB   -1
000170: 24,2263           00003                           RELINT
000171: 24,2264           05426        TIGNOW             TC       PHASCHNG
000172: 24,2265           05024                           OCT      05024                                 #  TYPE C GROUP 4 BELOW FOR NOUN 85
000173: 24,2266           57777                           OCT      57777                                 #  PRIO 20 NOVAC
000174: 24,2267           32424                           CAF      V16N85B
000175: 24,2270           04676                           TC       BANKCALL
000176: 24,2271           20704                           CADR     REFLASH
000177: 24,2272           12275                           TCF      POST41                                #  FINISH P40/P41
000178: 24,2273           12275                           TCF      POST41                                #  V03 PROCEED WITH REST OF THE CLEAN-UP
000179: 24,2274           12264                           TCF      TIGNOW                                #  V32 NOT GSOP RESPONSE BUT REDISPLAY N85
000180:
000181: 24,2275           00006        POST41             EXTEND
000182: 24,2276           32460                           DCA      SERVCADR
000183: 24,2277           53223                           DXCH     AVEGEXIT
000184: 24,2300           14106                           TCF      GOTOPOOH
000185:
000186: 24,2301           00056        MINDB              DEC      46         B-14
000187: 24,2302           00707        MAXDB              DEC      455        B-14
000188: 24,2303  E6,1466                                  EBANK=   DAPDATR1
000189: 24,2303           00004                 -1        INHINT
000190: 24,2304           30032        SETMINDB           CA       CDUX                                  #  ROUTINE FOR SETTING
000191: 24,2305           55572                           TS       THETADX                               #  THE MINIMUM DEADBAND
000192: 24,2306           00006                           EXTEND                                         #  IN AUTOPILOT
000193: 24,2307           30034                           DCA      CDUY
000194: 24,2310           53574                           DXCH     THETADY
000195: 24,2311           32301                           CA       MINDB                                 #  SHOULD BE CALLED UNDER
000196: 24,2312           55655                           TS       ADB                                   #  INTERRUPT INHIBITED
000197: 24,2313           45030                           CS       BIT4                                  #  EBANK = E6
000198: 24,2314           71466                           MASK     DAPDATR1
000199: 24,2315           55466                           TS       DAPDATR1
000200: 24,2316           00002                           TC       Q
000201:
000202: 24,2317  E6,1466                                  EBANK=   DAPDATR1
000203: 24,2317           00004                 -1        INHINT
000204: 24,2320           32302        SETMAXDB           CA       MAXDB                                 #  ROUTINE FOR SETTING
000205: 24,2321           55655                           TS       ADB                                   #  THE MAXIMUM DEADBAND IN AUTOPILOT
000206: 24,2322           41466                           CS       DAPDATR1
000207: 24,2323           75030                           MASK     BIT4                                  #  SHOULD BE CALLED UNDER
000208: 24,2324           27466                           ADS      DAPDATR1                              #  INTERRUPT INHIBITED
000209: 24,2325           00002                           TC       Q                                     #  EBANK = E6
000210:
000211:                                                                                                  #  PROGRAM DESCRIPTION ** P41CSM **
000212:
000213: 27,2000                                           SETLOC   P40S2
000214: 27,2000                                           BANK
000215:
000216: 27,2615  E6,1466                                  EBANK=   DAPDATR1
000217: 27,2615                                           COUNT    24/P41
000218:
000219: 27,2615           05562        P41CSM             TC       UPFLAG
000220: 27,2616           00023                           ADRES    ENG2FLAG                              #  SET FOR RCS
000221:
000222: 27,2617           06006                           TC       INTPRET
000223: 27,2620           77745                           DLOAD
000224: 27,2621           15334                                    HI6ZEROS                              #  FOR P41 CSTEER =0
000225: 27,2622           03703                           STORE    CSTEER
000226:
000227: 27,2623           43145                           DLOAD    BON
000228: 27,2624           10413                                    FRCS2                                 #  2JET THRUST FOR S40.1
000229: 27,2625           00700                                    NJETSFLG
000230: 27,2626           50106                                    P40S/F                                #  NJETS = 1 2-JET
000231: 27,2627           52015                           DAD      GOTO                                  #  NJETS = 0 4-JET
000232: 27,2630           10413                                    FRCS2
000233: 27,2631           50106                                    P40S/F
000234:
000235: 24,2000                                           SETLOC   P40S
000236: 24,2000                                           BANK
000237:
000238: 24,2326           41011        P41/P40            CS       MODREG
000239: 24,2327           75033                           MASK     ONE                                   #  P41EXITS AT CALL LOC +1
000240: 24,2330           00006                           EXTEND
000241: 24,2331           12333                           BZF      +2                                    #  P41
000242: 24,2332           24002                           INCR     Q                                     #  P40 EXITS AT CALL LOC +2
000243: 24,2333           00002                           TC       Q
000244:
000245: 24,2334           35016        TTG/0              CAF      PRIO20                                #  TASK (4.4 PROTECTS IN P41)
000246: 24,2335           05150                           TC       NOVAC
000247: 24,2336  E6,1466                                  EBANK=   DAPDATR1
000248: 24,2336           02264 50066                     2CADR    TIGNOW
000249:
000250: 24,2340           05574        P40CLK             TC       DOWNFLAG
000251: 24,2341           00155                           ADRES    TIMRFLAG
000252:
000253: 24,2342           15340                           TCF      TASKOVER
000254:
000255: 24,2343           32423        P41/DSP            CAF      V06N85B                               #  SET UP FOR NONFLASH V 06 N85 BY CLOCKJOB
000256: 24,2344           55145                           TS       NVWORD1
000257:
000258: 24,2345           06006                           TC       INTPRET
000259: 24,2346           77624                           CALL                                           #  COMPUTE
000260: 24,2347           50370                                    P40CNV85                              #        VGTIG IN CTRL COORDS
000261: 24,2350           77776                           EXIT
000262: 24,2351           00006                           EXTEND                                         #  DO CONTROL COORD CALCULATION AFTER AVEG
000263: 24,2352           32462                           DCA      ACADN85
000264: 24,2353           53223                           DXCH     AVEGEXIT
000265: 24,2354           05406                           TC       2PHSCHNG
000266: 24,2355           40036                           OCT      40036                                 #  6.3=CLOKTASK(100CS)
000267: 24,2356           00234                           OCT      234                                   #  4.23=P40S/SV(PRIO12)
000268:
000269: 24,2357           12177                           TCF      P40S/RS
000270: 24,2360           32424        P41REDSP           CAF      V16N85B                               #  ENTER FROM P41 SIDE OF TIGAVEG
000271: 24,2361           55145                           TS       NVWORD1                               #  REDISPLAY NONFLASHING
000272: 24,2362           32416                           CAF      SEC29.96   +1
000273: 24,2363           05261                           TC       WAITLIST
000274: 24,2364  E6,1466                                  EBANK=   DAPDATR1
000275: 24,2364           02334 50066                     2CADR    TTG/0
000276:
000277: 24,2366           45031                           CS       BIT3                                  #  4.4 = TTG/0(2996CS), PRECHECK(-0CS)
000278: 24,2367           12571                           TCF      TTGPHS
000279: 24,2370           40220        P40CNV85           STQ      SETPD
000280: 24,2371           03730                                    QTEMP1
000281: 24,2372           00001                                    0
000282: 24,2373           41575                           VLOAD    PUSH
000283: 24,2374           03721                                    VGPREV                                #  EQUALS VGTIG (TARGETTING INPUT)
000284: 24,2375           77624                           CALL
000285: 24,2376           45431                                    S41.1
000286: 24,2377           37665                           STCALL   VGBODY
000287: 24,2400           03730                                    QTEMP1
000288:
000289: 24,2401  E6,1466                                  EBANK=   DAPDATR1
000290: 24,2401           06006        CALCN85            TC       INTPRET
000291: 24,2402           77624                           CALL
000292: 24,2403           51107                                    UPDATEVG                              #  NEW VG, S40.8 (+MAYBE S40.9)
000293: 24,2404           77624                           CALL
000294: 24,2405           50370                                    P40CNV85                              #  COMPUTE VGBODY
000295: 24,2406           77776                           EXIT
000296: 24,2407           03220                           TC       SERVXT
000297: 24,2410           02217 06650  FENG               2DEC     9.1188544  B-7                        #  SPS THRUST (20500LBS), SC.AT B+7 NEWT/E4
000298:
000299: 24,2412           00013 06112  FRCS2              2DEC     .087437837 B-7                        #  RCS ULLAGE (199.6COS10 LBS), SC.AT
000300:
000301:                                                                                                  #        B+7 NEWTONS/E+4
000302: 24,2414           04700        SEC24.96           DEC      2496       B-14
000303: 24,2415           00000 05664  SEC29.96           2DEC     2996       B-28
000304:
000305: 24,2417           03410        18SEC              DEC      1800       B-14
000306: 24,2420           00204        P40CKLS2           OCT      204
000307: 24,2421           37730        40CST5             OCT      37730                                 #  40 CS FOR THE T5 CLOCK
000308: 24,2422     4377               OCT12              =        TEN
000309: 24,2422           04123        V1683              VN       1683
000310: 24,2423           01525        V06N85B            VN       0685
000311: 24,2424           04125        V16N85B            VN       1685
000312: 24,2425           01450        V06N40             VN       0640
000313: 24,2426           04050        V16N40             VN       1640
000314: 24,2427           00027        OCT27/24           OCT      27
000315: 24,2430           00053        OCT53              OCT      53
000316: 24,2431           00035        OCT35              OCT      35
000317: 24,2432  E6,1466                                  EBANK=   DAPDATR1
000318: 24,2432           03155 12066  T5IDL24            2CADR    T5IDLOC
000319:
000320: 24,2434           00026        3MDOT              DEC      86.6175796 B-16                       #  3SEC MASS LOSS (63.8 LBS/SEC), SC.AT
000321:                                                                                                  #  B+16 KG/SEC (NOTE, EMDOT IS PAD-LOADED,
000322:                                                                                                  #  BUT 3MDOT IS NOT A CRITICAL QUANTITY, SO
000323:                                                                                                  #  IT CAN REMAIN IN FIXED MEMORY)
000324: 24,2435           35033        TST,TRIM           CAF      BIT1                                  #  SET UP FOR GIMB DRIVE TEST AND TRIM (+1)
000325: 24,2436           12157                           TCF      TRIMONLY   +1
000326: 24,2437           33067        TIGBLNK            CAF      5SEC                                  #  CALL TIGAVEG IN FIVE SEC AT TIG-30
000327: 24,2440           05261                           TC       WAITLIST
000328: 24,2441  E7,1412                                  EBANK=   TIG
000329: 24,2441           02555 50067                     2CADR    TIGAVEG
000330:
000331: 24,2443           35035                           CAF      ZERO                                  #  DISABLE HERE, NOT IN P40BLNKR
000332: 24,2444           55145                           TS       NVWORD1
000333:
000334: 24,2445           35102                           CAF      PRIO14
000335: 24,2446           05150                           TC       NOVAC
000336: 24,2447  E7,1412                                  EBANK=   TIG
000337: 24,2447           02234 50067                     2CADR    P40BLNKR                              #  DONT PROTECT-RESTARTS BLANK DSKY
000338:
000339: 24,2451           44362                           CS       OCT37                                 #  4.37 = TIGAVEG (500CS)
000340: 24,2452           04114        P40TSK             TC       NEWPHASE
000341: 24,2453           00004                           OCT      4
000342: 24,2454           05340                           TC       TASKOVER
000343:
000344: 24,2455  E7,1412                                  EBANK=   TIG
000345: 24,2455           02511 50067  ACADN83            2CADR    CALCN83
000346:
000347: 24,2457  E7,1412                                  EBANK=   TIG
000348: 24,2457           03231 76067  SERVCADR           2CADR    SERVEXIT
000349:
000350: 24,2461  E6,1466                                  EBANK=   DAPDATR1
000351: 24,2461           02401 50066  ACADN85            2CADR    CALCN85
000352:
000353:                                                                                                  #  PROGRAM DESCRIPTION ** P47CSM **
000354:
000355: 24,2463                                           COUNT    24/P47
000356:
000357: 24,2463  E7,1412                                  EBANK=   TIG
000358: 24,2463           04676        P47CSM             TC       BANKCALL                              #  IMU STATUS CHECK
000359: 24,2464           17653                           CADR     R02BOTH
000360: 24,2465           06006                           TC       INTPRET
000361: 24,2466           77624                           CALRB
000362: 24,2467           27547                                    MIDTOAV2
000363: 24,2470           30155                           CA       MPAC       +1                         #  DELTA TIME TO RPEREAD (LESS THAN 1000
000364: 24,2471           55672                           TS       P40TMP                                #        CS, WITH A TPAGREE, INT.INIT.)
000365: 24,2472           05261                           TC       WAITLIST
000366: 24,2473  E7,1412                                  EBANK=   TIG
000367: 24,2473           02500 50067                     2CADR    TIGON                                 #  TIGON IS REQUIRED TO MATHCHTAT AND AVEG
000368:
000369: 24,2475           05426                           TC       PHASCHNG
000370: 24,2476           40574                           OCT      40574                                 #  A, 4.57 = TIGON (P40TMP CS)
000371: 24,2477           15233                           TCF      ENDOFJOB
000372:
000373: 24,2500  E7,1672                                  EBANK=   P40TMP
000374: 24,2500           00006        TIGON              EXTEND
000375: 24,2501           32456                           DCA      ACADN83
000376: 24,2502           53223                           DXCH     AVEGEXIT
000377: 24,2503           34371                           CAF      PRIO30                                #  FORCE ZEROING OF N83 BEFORE SERVICER
000378: 24,2504           05150                           TC       NOVAC
000379: 24,2505  E7,1412                                  EBANK=   TIG
000380: 24,2505           02534 50067                     2CADR    P47BODY
000381:
000382: 24,2507           45032                           CS       BIT2                                  #  4.2 = PRECHECK (-0CS), P47BODY (PRIO30)
000383: 24,2510           12571                           TCF      TTGPHS
000384:
000385: 24,2511  E7,1412                                  EBANK=   TIG
000386: 24,2511           06006        CALCN83            TC       INTPRET
000387: 24,2512           77601                           SETPD                                          #  SET UP PUSHLIST FOR S41.1
000388: 24,2513           00001                                    0
000389: 24,2514           53375                           VLOAD    VAD
000390: 24,2515           03665                                    DELVCTL
000391: 24,2516           03433                                    DELVREF
000392: 24,2517           03460                           STORE    DV47TEMP                              #  FOR COPYCYCLE BELOW
000393: 24,2520           45006                           PUSH     CALL
000394: 24,2521           45431                                    S41.1
000395: 24,2522           37675                           STCALL   DELVIMU
000396: 24,2523           70542                                    S11.1                                 #  CALC. VI, H, HDOT FOR NOUN 62
000397: 24,2524           77776                           EXIT
000398: 24,2525           05426                           TC       PHASCHNG
000399: 24,2526           10035                           OCT      10035
000400: 24,2527           35036                           CAF      FIVE
000401: 24,2530           05622                           TC       GENTRAN
000402: 24,2531           01457                           ADRES    DV47TEMP
000403: 24,2532           01664                           ADRES    DELVCTL
000404:
000405: 24,2533           03220                           TC       SERVXT
000406: 24,2534           06006        P47BODY            TC       INTPRET
000407: 24,2535           77775                           VLOAD
000408: 24,2536           15334                                    HI6ZEROS
000409: 24,2537           03675                           STORE    DELVIMU                               #  CLEAR DISPLAY AND ACCUMULATOR STORAGE
000410: 24,2540           03665                           STORE    DELVCTL                               #  UPON INITIATION OR-ENTER-RESPONSE
000411: 24,2541           77776                           EXIT
000412: 24,2542           35103        P47BOD             CAF      PRIO15                                #  LOWER PRIO THAN CALCN83 (20)
000413: 24,2543           05224                           TC       PRIOCHNG                              #        TO PREVENT INTERRUPTION OF CALCN83
000414: 24,2544           05426                           TC       PHASCHNG
000415: 24,2545           05024                           OCT      05024                                 #  TYPE C GROUP 4 BELOW FOR NOUN 83
000416: 24,2546           62777                           OCT      62777                                 #  PRIO 15 NOVAC
000417: 24,2547           32422        P47/DSP            CAF      V1683
000418: 24,2550           04676                           TC       BANKCALL
000419: 24,2551           20720                           CADR     GOFLASH
000420: 24,2552           04106                           TC       GOTOPOOH
000421: 24,2553           04106                           TC       GOTOPOOH
000422: 24,2554           12534                           TCF      P47BODY                               #  RECYCLE - CLEAR ACCUMULATED VELOCITY
000423:
000424:                                                                                                  #  ROUTINE ** TIG-30 ** DESCRIPTION
000425:
000426: 24,2555  E7,1412                                  EBANK=   TIG
000427: 24,2555                                           COUNT    24/P40
000428:


000432: 24,2555           45030        TIGAVEG            CS       PFRATBIT                              #  TASK (4.37 PROTECTS)
000433: 24,2556           70076                           MASK     FLAGWRD2
000434: 24,2557           54076                           TS       FLAGWRD2
000435:
000436: 24,2560           02326                           TC       P41/P40
000437: 24,2561           12360                           TCF      P41REDSP                              #  P41
000438:
000439: 24,2562           32425                           CAF      V06N40                                #  UNBLANK DISPLAY
000440: 24,2563           55145                           TS       NVWORD1
000441:
000442: 24,2564           32414                           CAF      SEC24.96
000443: 24,2565           05261                           TC       WAITLIST
000444: 24,2566  E7,1412                                  EBANK=   TIG
000445: 24,2566           02577 50067                     2CADR    TIG-5
000446:
000447: 24,2570           46211                           CS       SIX                                   #  4.6 = TIG-5 (2496CS), PRECHECK (-0CS)
000448: 24,2571           04114        TTGPHS             TC       NEWPHASE                              #  ENTRY FROM P41REDSP (P41) WITH A=-4, OR
000449: 24,2572           00004                           OCT      4                                     #        FROM TIGON    (P47) WITH A=-2
000450:
000451: 24,2573           10763        PRECHECK           CCS      PHASE5                                #  HAS SERVICER BEEN RESTARTED
000452: 24,2574           15340                           TCF      TASKOVER                              #  YES, DONT START ANOTHER ONE
000453: 24,2575           04715                           TC       POSTJUMP
000454: 24,2576           76714                           CADR     PREREAD
000455:
000456:                                                                                                  #  ROUTINE ** TIG-5 ** DESCRIPTION
000457:
000458: 24,2577  E7,1412                                  EBANK=   TIG
000459: 24,2577           33067        TIG-5              CAF      5SEC
000460: 24,2600           05261                           TC       WAITLIST
000461: 24,2601  E6,1466                                  EBANK=   DAPDATR1
000462: 24,2601           02615 50066                     2CADR    TIG-0
000463:
000464: 24,2603           45023                           CS       BIT9                                  #  WILL CAUSE V99 FLASH
000465: 24,2604           55145                           TS       NVWORD1
000466:
000467: 24,2605           05406                           TC       2PHSCHNG
000468: 24,2606           40074                           OCT      40074                                 #  A, 4.7 = TIG-0 (500CS)
000469: 24,2607           00033                           OCT      00033                                 #  A, 3.3 = S40.13 (PRIO20)
000470:
000471: 24,2610           35016                           CAF      PRIO20
000472: 24,2611           05163                           TC       FINDVAC
000473: 24,2612  E7,1427                                  EBANK=   TGO
000474: 24,2612           02501 34067                     2CADR    S40.13
000475:
000476: 24,2614           15340                           TCF      TASKOVER
000477:
000478:                                                                                                  #  ROUTINES ** TIG-0 ** AND ** IGNITION ** DESCRIPTION
000479:
000480: 24,2615  E6,1466                                  EBANK=   DAPDATR1                              #  TASK, 4.7 PHASE, OR 4.77 (-0CS) IN R40
000481: 24,2615           40103        TIG-0              CS       FLAGWRD7                              #  SET IGN FLAG
000482: 24,2616           75017                           MASK     BIT13
000483: 24,2617           26103                           ADS      FLAGWRD7
000484:
000485: 24,2620           30103                           CAE      FLAGWRD7                              #  CHECK ASTN FLAG FOR V99 RESPONSE
000486: 24,2621           75020                           MASK     BIT12
000487: 24,2622           00006                           EXTEND
000488: 24,2623           15340                           BZF      TASKOVER                              #  WAIT FOR V99P
000489:
000490: 24,2624           32425                           CAF      V06N40                                #  CLEAR THE V99 (IN CASE OF A RESTART
000491: 24,2625           55145                           TS       NVWORD1                               #        DURING THE V99 SEQUENCE)
000492:
000493: 24,2626           05426                           TC       PHASCHNG                              #  V99P HAS COME ALREADY, DO IGNITION NOW
000494: 24,2627           00614                           OCT      00614                                 #  A, 4.61 = IGNITION (-0CS) TBASE OLD
000495:
000496: 24,2630           30032        IGNITION           CAE      CDUX                                  #  SAVE FOR ROLL DAP REFERENCE OGAD
000497: 24,2631           55450                           TS       OGAD                                  #        V99PJOB (CLOCKJOB) SETS UP IGNITION
000498: 24,2632           00006                           EXTEND                                         #        TASK (4.61 PROTECTION)
000499: 24,2633           30025                           DCA      TIME2                                 #        FOR RESTARTS
000500: 24,2634           53337                           DXCH     TEVENT
000501: 24,2635           40101                           CS       FLAGWRD5                              #  SET ENGONFLG
000502: 24,2636           75025                           MASK     BIT7
000503: 24,2637           26101                           ADS      FLAGWRD5
000504: 24,2640           35017        SPSON              CAF      BIT13                                 #  TURN ON SPS ENGINE
000505: 24,2641           00006                           EXTEND
000506: 24,2642           05011                           WOR      DSALMOUT
000507:
000508: 24,2643           35023        IMPULCHK           CAF      BIT9                                  #  CHECK FOR IMPULSIVE BURN
000509: 24,2644           70076                           MASK     FLAGWRD2
000510: 24,2645           10000                           CCS      A
000511: 24,2646           12736                           TCF      IMPLBURN                              #  IMPULSIVE
000512: 24,2647           40102                           CS       FLAGWRD6                              #  NON-IMPULSIVE, SET STRULLSW FOR STEERULL
000513: 24,2650           75017                           MASK     BIT13
000514: 24,2651           26102                           ADS      FLAGWRD6
000515:
000516: 24,2652           44105        PREPTVC            CS       OCT60000                              #  RESET T5 BITS
000517: 24,2653           70102                           MASK     FLAGWRD6
000518: 24,2654           54102                           TS       FLAGWRD6
000519:
000520: 24,2655           00006                           EXTEND                                         #  KILL RCS
000521: 24,2656           32433                           DCA      T5IDL24
000522: 24,2657           53313                           DXCH     T5LOC
000523:
000524: 24,2660           46214                           CS       THREE                                 #  4.3 = DOTVCON (40CS)
000525: 24,2661           04114                           TC       NEWPHASE
000526: 24,2662           00004                           OCT      4
000527:
000528: 24,2663           05303                           TC       FIXDELAY
000529: 24,2664           00050                           DEC      40         B-14                       #  0.4 SECOND DELAY FOR THRUST BUILDUP
000530:
000531: 24,2665           45033        DOTVCON            CS       BIT1                                  #  SET TVCPHASE = TVCDAPON CALL (FRESHDAP)
000532: 24,2666           55644                           TS       TVCPHASE
000533: 24,2667           35035                           CAF      ZERO                                  #  SET TVCEXECUTIVE PHASE
000534: 24,2670           55653                           TS       TVCEXPHS
000535: 24,2671           44105                           CS       OCT60000                              #  SET T5 BITS TO INDICATE TVC TAKEOVER ....
000536: 24,2672           70102                           MASK     FLAGWRD6                              #        BITS 15,14 = 10
000537: 24,2673           65015                           AD       BIT15
000538: 24,2674           54102                           TS       FLAGWRD6
000539:
000540: 24,2675           36214                           CAF      THREE                                 #  6.3 = CLOKTASK (100CS), DROPPING PRE40.6
000541: 24,2676           54001                           TS       L                                     #        WHICH IS HANDLED NOW BY REDOTVC
000542: 24,2677           40000                           COM
000543: 24,2700           52765                           DXCH     -PHASE6
000544:
000545: 24,2701           00006                           EXTEND                                         #  STORE RCS ATTITUDE ERRORS FOR USE IN
000546: 24,2702           41571                           DCS      ERRORY                                #  INITIALIZING TVC ATTITUDE ERRORS
000547: 24,2703           53705                           DXCH     ERRBTMP
000548:
000549: 24,2704           45036                           CS       FIVE                                  #  4.5 = DOSTRULL (160 CS)
000550: 24,2705           04114                           TC       NEWPHASE
000551: 24,2706           00004                           OCT      4
000552:
000553: 24,2707           35013                           CAF      POSMAX                                #  SET TIME5 FOR STARTING RIGHT AWAY
000554: 24,2710           54030                           TS       TIME5
000555: 24,2711           00006                           EXTEND
000556: 24,2712           33072                           DCA      TVCON2C                               #  (TVCDAPON)
000557: 24,2713           53313                           DXCH     T5LOC                                 #  (KILLS RCS DAP)
000558:
000559: 24,2714           05303                           TC       FIXDELAY                              #  0.4 + 1.6 = 2.0 SEC FOR ULLAGE-OFF AND
000560: 24,2715           00240                           DEC      160        B-14                       #        STEERING (IF NON-IMPULSIVE)
000561:
000562: 24,2716           35017        DOSTRULL           CAF      BIT13                                 #  CHECK STRULLSW FOR IMPULSIVE BURN
000563: 24,2717           70102                           MASK     FLAGWRD6
000564: 24,2720           10000                           CCS      A
000565: 24,2721           02727                           TCR      STEERULL                              #  NON-IMPULSIVE, STEERING AND ULLAGE OFF
000566: 24,2722           02732                           TCR      ULAGEOFF                              #  ULLAGE OFF (ONLY, OR AGAIN)
000567:
000568: 24,2723           00006                           EXTEND
000569: 24,2724           35035                           DCA      NEG0                                  #  KILL GROUP 4 (DP NEG0 = -0,+0)
000570: 24,2725           52761                           DXCH     -PHASE4
000571:
000572: 24,2726           15340        ENDIGN             TCF      TASKOVER
000573:
000574: 24,2727           40076        STEERULL           CS       FLAGWRD2                              #  SET STEERSW
000575: 24,2730           75021                           MASK     BIT11
000576: 24,2731           26076                           ADS      FLAGWRD2
000577:
000578:
000579: 24,2732           35035        ULAGEOFF           CAF      ZERO
000580: 24,2733           00006                           EXTEND
000581: 24,2734           01005                           WRITE    CHAN5                                 #  ZERO CHANNEL 5
000582: 24,2735           00002                           TC       Q
000583:
000584: 24,2736           45017        IMPLBURN           CS       BIT13                                 #  RESET STRULLSW (COULD BE AN IMPULSIVE
000585: 24,2737           70102                           MASK     FLAGWRD6                              #        ENGINE FAIL)
000586: 24,2740           54102                           TS       FLAGWRD6
000587:
000588: 24,2741           03371                           TCR      E7SETTER
000589:
000590: 24,2742  E7,1412                                  EBANK=   TIG
000591: 24,2742           00006                           EXTEND                                         #  PREPARE FOR R1 OF V06N40 (CLOCKTASK)
000592: 24,2743           31430                           DCA      TGO
000593: 24,2744           53413                           DXCH     TIG
000594: 24,2745           00006                           EXTEND
000595: 24,2746           30025                           DCA      TIME2
000596: 24,2747           21413                           DAS      TIG
000597:
000598: 24,2750           05406                           TC       2PHSCHNG
000599: 24,2751           40153                           OCT      40153                                 #  A,3.15 = ENGINOFF (TGO+1)....NOTE GROUP
000600: 24,2752           07014                           OCT      07014                                 #  C, DELTAT AND 2CADR FOLLOW FOR TASK BELO
000601: 24,2753           77777                           DEC      -0         B-14                       #  -0 CS
000602: 24,2754  E6,1466                                  EBANK=   DAPDATR1
000603: 24,2754           02762 50066                     2CADR    IMPLCONT
000604:
000605: 24,2756           31430                           CAE      TGO        +1                         #  (TPAGREE IN S40.13, LESS THAN 600CS)
000606: 24,2757           05261                           TC       WAITLIST
000607: 24,2760  E7,1427                                  EBANK=   TGO
000608: 24,2760           02771 50067                     2CADR    ENGINOFF
000609:
000610: 24,2762           45023        IMPLCONT           CS       BIT9                                  #  RESET IMPULSW, ENGINOFF IS NOW SET UP
000611: 24,2763           70076                           MASK     FLAGWRD2
000612: 24,2764           54076                           TS       FLAGWRD2
000613:
000614: 24,2765           03374                           TCR      E6SETTER
000615: 24,2766  E6,1466                                  EBANK=   DAPDATR1
000616:
000617: 24,2766           35035                           CAF      ZERO                                  #  SET UP V97VCNTR IN CASE ENGINOFF (MASS-
000618: 24,2767           55444                           TS       V97VCNTR                              #        BACK) ARRIVES BEFORE TVCDAPON
000619:
000620: 24,2770           12652                           TCF      PREPTVC
000621:
000622: 24,2771  E7,1427                                  EBANK=   TGO                                   #  E7 FORCED BY 3.15SPOT VARIABLE DELTA-T
000623: 24,2771           03374        ENGINOFF           TCR      E6SETTER                              #  TASK, 3.15 PHASE (TGO+1 CS)   GET E6
000624: 24,2772  E6,1466                                  EBANK=   DAPDATR1
000625: 24,2772           31474                           CAE      CSMMASS
000626: 24,2773           55654                           TS       MASSTMP                               #  COPYCYCLE FOR MASSBACK
000627: 24,2774           05406                           TC       2PHSCHNG
000628: 24,2775           00003                           OCT      00003                                 #  KILL GROUP 3 PROTECTION OF ENGINOFF, DO
000629: 24,2776           40634                           OCT      40634                                 #  A, 4.63 = DOSPSOFF (-0CS)
000630: 24,2777           03022        DOSPSOFF           TCR      SPSOFF                                #  SHUTDOWN SPS, MASS UPDATES, ETC.
000631: 24,3000           42427                           CS       OCT27/24                              #  (OCTAL 27)
000632: 24,3001           04114                           TC       NEWPHASE
000633: 24,3002           00004                           OCT      4                                     #  4.27 = DOTVCRCS (250 CS)
000634:
000635: 24,3003           05303                           TC       FIXDELAY                              #  2.5 SECOND DELAY FOR SPS TAILOFF
000636: 24,3004           00372                           DEC      250        B-14
000637:
000638: 24,3005           02320        DOTVCRCS           TCR      SETMAXDB                              #  WIDE DEADBAND FOR CUTOFF TRANSIENT
000639:
000640: 24,3006           04754                           TC       IBNKCALL                              #  SET UP RCS DAP (KILLS TVCDAPS, SETS T5
000641: 24,3007           42036                           CADR     RCSDAPON                              #        BITS, WAITS 0.6SEC FOR TVCEXEC DIE)
000642:
000643: 24,3010           04754                           TC       IBNKCALL                              #  UPDATE WEIGHT/G AND MASS-PROPERTIES FOR
000644: 24,3011           13370                           CADR     MASSPROP                              #        RCS DAP STARTUP IN 0.6 SECONDS
000645:
000646: 24,3012           03074                           TCR      TVCZAP                                #  WIPE OUT TVC, TURN OFF CLOKTASK
000647:
000648: 24,3013           05426                           TC       PHASCHNG
000649: 24,3014           00354                           OCT      00354                                 #  A, 4.35 = POSTBURN (NOVAC, PRIO12)
000650: 24,3015           34724                           CAF      PRIO12                                #  SET UP POSTBURN V16N40 JOB
000651: 24,3016           05150                           TC       NOVAC
000652: 24,3017  E6,1466                                  EBANK=   DAPDATR1                              #  (SET MAXDB IN POST41)
000653: 24,3017           02246 50066                     2CADR    POSTBURN
000654:
000655: 24,3021           15340                           TCF      TASKOVER
000656:
000657: 24,3022  E6,1466                                  EBANK=   DAPDATR1
000658: 24,3022           00006        SPSOFF             EXTEND                                         #  ESTABLISH SPSOFF TEVENT
000659: 24,3023           30025                           DCA      TIME2
000660: 24,3024           53337                           DXCH     TEVENT
000661: 24,3025           45025                           CS       BIT7                                  #  RESET ENGONFLG
000662: 24,3026           70101                           MASK     FLAGWRD5
000663: 24,3027           54101                           TS       FLAGWRD5                              #  (RESTARTS WILL SHUT DOWN SPS NOW)
000664: 24,3030           45017                           CS       BIT13                                 #  SHUT DOWN SPS ENGINE
000665: 24,3031           00006                           EXTEND
000666: 24,3032           03011                           WAND     DSALMOUT
000667:
000668: 24,3033           35016                           CAF      BIT14                                 #  ISSUE SIV CUTOFF COMMAND
000669: 24,3034           00006                           EXTEND                                         #  FOR POSSIBLE BACK-UP USE
000670: 24,3035           05012                           WOR      CHAN12
000671: 24,3036           31444        MASSBACK           CAE      V97VCNTR                              #  RESTORE PART OF PRE-DECREMENTED MASS
000672:                                                                                                  #        V97VCNTR = VCNTR UNLESS V97 IS
000673:                                                                                                  #        ACTIVE.  ONLY V97VCNTR IS THEN RIGHT
000674: 24,3037           00006                           EXTEND                                         #  VCNTR COUNTS 1/2-SECONDS IN TVC EXEC
000675: 24,3040           70110                           MP       EMDOT                                 #        MDOT, SC.AT B+3 KG/CS
000676: 24,3041           22000                           LXCH     A
000677: 24,3042           00006                           EXTEND
000678: 24,3043           75055                           MP       1SEC                                  #  DEC 100
000679: 24,3044           61654                           AD       MASSTMP                               #  CORRECTION IS ACCURATE TO 5 CS OF FLOW
000680: 24,3045           55474                           TS       CSMMASS                               #        (1.44 KG OR 0.4 BITS)
000681:
000682: 24,3046           31644                           CA       TVCPHASE                              #  CHECK IF OK FOR TRIM UPDATE
000683: 24,3047           65033                           AD       ONE                                   #        THESE CHECKS ARE ONLY NEEDED
000684: 24,3050           00006                           EXTEND                                         #        FOR A LESS THAN 0.4 SEC BURN
000685: 24,3051           13062                           BZF      BTRIMR                                #  NO.  INITIALIZATION NOT COMPLETE
000686: 24,3052           40102                           CS       FLAGWRD6                              #  YES, CHECK IF TVC
000687: 24,3053           74105                           MASK     OCT60000
000688: 24,3054           00006                           EXTEND
000689: 24,3055           63062                           BZMF     BTRIMR                                #  NO, NOT TVC YET
000690: 24,3056           31601        BESTTRIM           CAE      DELPBAR                               #  UPDATE TRIMS WITH DELFILTER VALUES
000691: 24,3057           55423                           TS       PACTOFF
000692: 24,3060           31603                           CAE      DELYBAR
000693: 24,3061           55424                           TS       YACTOFF
000694: 24,3062           00002        BTRIMR             TC       Q
000695: 24,3063  E6,1466                                  EBANK=   DAPDATR1
000696: 24,3063           03210 50066  STEERADS           2CADR    STEERING
000697:
000698: 24,3065           37703        .6SECT5            OCT      37703
000699: 24,3066           00000        5SECDP             DEC      0          B-14                       #  MAKE DP 5SEC
000700: 24,3067           00764        5SEC               DEC      500        B-14
000701: 24,3070           02202        OCT02202           OCT      02202                                 #  BITS 2, 8, 11 FOR CHANNEL 12 TVC/OPTICS
000702: 24,3071  E6,1466                                  EBANK=   DAPDATR1
000703: 24,3071           02205 36066  TVCON2C            2CADR    TVCDAPON
000704:
000705: 24,3073           00004                 -1        INHINT
000706: 24,3074           43070        TVCZAP             CS       OCT02202                              #  DISABLE TVC AND OPT ERR CNTRS, REENGAGE
000707: 24,3075           00006                           EXTEND                                         #        OPTICS DAC
000708: 24,3076           03012                           WAND     CHAN12
000709: 24,3077           45033                           CS       BIT1                                  #  ENABLE T4RUPT OPTICS MONITOR .... PERMIT
000710: 24,3100           55303                           TS       OPTIND                                #        OPTICS-ZERO BUT NOT OPTICS-DRIVE
000711: 24,3101           35035                           CAF      ZERO                                  #  CLEAR NVWORD1 IN CASE CLOCKJOB WAITING
000712: 24,3102           55145                           TS       NVWORD1
000713: 24,3103           45021                           CS       BIT11                                 #  CLEAR TIMRFLAG TO STOP CLOKTASK
000714: 24,3104           70103                           MASK     FLAGWRD7
000715: 24,3105           54103                           TS       FLAGWRD7
000716: 24,3106           00002                           TC       Q
000717: 24,3107  E6,1466                                  EBANK=   DAPDATR1
000718: 24,3107           43020        UPDATEVG           STQ      BON
000719: 24,3110           03730                                    QTEMP1
000720: 24,3111           01307                                    XDELVFLG
000721: 24,3112           51136                                    CALL40.8
000722:
000723: 24,3113           50135                           SLOAD    BMN
000724: 24,3114           03345                                    NBRCYCLS
000725: 24,3115           51142                                    SETUP.9
000726:
000727: 24,3116           53375                           VLOAD    VAD
000728: 24,3117           03347                                    DELVSUM
000729: 24,3120           03433                                    DELVREF
000730: 24,3121           03355                           STORE    DELVSUMP
000731: 24,3122           77776                           EXIT
000732: 24,3123           35033                           CA       ONE
000733: 24,3124           61744                           AD       NBRCYCLS
000734: 24,3125           55745                           TS       NBRCYCLP
000735:
000736: 24,3126           05426                           TC       PHASCHNG                              #  TYPE B RESTART BELOW AND 5.3 REREADACCS
000737: 24,3127           10035                           OCT      10035
000738:
000739: 24,3130           31745                           CA       NBRCYCLP
000740: 24,3131           55744                           TS       NBRCYCLS
000741: 24,3132           06006                           TC       INTPRET
000742: 24,3133           77775                           VLOAD
000743: 24,3134           03355                                    DELVSUMP
000744: 24,3135           03347                           STORE    DELVSUM
000745:
000746: 24,3136           77624        CALL40.8           CALL
000747: 24,3137           34226                                    S40.8
000748: 24,3140           77650                           GOTO
000749: 24,3141           03730                                    QTEMP1
000750:
000751: 24,3142           67214        SETUP.9            BON      SLOAD
000752: 24,3143           01310                                    FIRSTFLG
000753: 24,3144           51157                                    SURELY.9
000754: 24,3145           03346                                    NBRCYCLP
000755: 24,3146           74301                           NORM     VXSC                                  #  (NORM HANDLES ZERO PROPERLY)
000756: 24,3147           00047                                    X1
000757: 24,3150           03705                                    BDT
000758: 24,3151           53257                           VSR*     VAD
000759: 24,3152           20563                                    0          -14D,1
000760: 24,3153           03646                                    VGTEMP
000761: 24,3154           77651                           VSU
000762: 24,3155           03347                                    DELVSUM
000763: 24,3156           03721                           STORE    VGPREV
000764: 24,3157           77776        SURELY.9           EXIT
000765: 24,3160           35017                           CAF      PRIO10
000766: 24,3161           05163                           TC       FINDVAC
000767: 24,3162  E6,1466                                  EBANK=   DAPDATR1
000768: 24,3162           02364 34066                     2CADR    S40.9
000769:
000770: 24,3164           05406                           TC       2PHSCHNG
000771: 24,3165           00051                           OCT      00051                                 #  A, 1.5 = REDO40.9, PRIO 10
000772: 24,3166           10035                           OCT      10035
000773: 24,3167           06006                           TC       INTPRET
000774: 24,3170           77775                           VLOAD
000775: 24,3171           01171                                    RN                                    #  ACTIVE VEHICLE RADIUS VECTOR AT T1
000776: 24,3172           27570                           STOVL    RINIT
000777: 24,3173           01177                                    VN                                    #  ACTIVE VEHICLE VELOCITY VECTOR AT T1
000778: 24,3174           17576                           STODL    VINIT
000779: 24,3175           01205                                    PIPTIME
000780: 24,3176           03474                           STORE    TNIT
000781: 24,3177           77621                           BDSU
000782: 24,3200           03656                                    TPASS4
000783: 24,3201           27423                           STOVL    DELLT4
000784: 24,3202           15334                                    HI6ZEROS
000785: 24,3203           17347                           STODL    DELVSUM
000786: 24,3204           15334                                    HI6ZEROS
000787: 24,3205           03345                           STORE    NBRCYCLS
000788: 24,3206           77650                           GOTO
000789: 24,3207           51136                                    CALL40.8
000790: 24,3210  E6,1466                                  EBANK=   DAPDATR1
000791: 24,3210           06006        STEERING           TC       INTPRET
000792: 24,3211           77624                           CALL
000793: 24,3212           51107                                    UPDATEVG
000794: 24,3213           77776                           EXIT
000795: 24,3214           35023                           CAF      BIT9                                  #  CHECK IMPULSW
000796: 24,3215           70076                           MASK     FLAGWRD2
000797: 24,3216           10000                           CCS      A
000798: 24,3217           13222                           TCF      +3                                    #  PRE-IGNITE, REQUEST ENG-OFF, OR POST-OFF
000799: 24,3220           04715        SERVXT             TC       POSTJUMP
000800: 24,3221           77231                           CADR     SERVEXIT
000801: 24,3222           35017                           CAF      BIT13                                 #  CHECK ENGINE-ON/-OFF
000802: 24,3223           00006                           EXTEND
000803: 24,3224           02011                           RAND     DSALMOUT
000804: 24,3225           00006                           EXTEND
000805: 24,3226           13220                           BZF      SERVXT                                #  ENGINE-OFF, SO PRE-IGNITE OR POST-OFF
000806: 24,3227           03371                           TCR      E7SETTER
000807: 24,3230  E7,1412                                  EBANK=   TIG
000808: 24,3230           00004                           INHINT
000809: 24,3231           00006                           EXTEND
000810: 24,3232           31413                           DCA      TIG
000811: 24,3233           52155                           DXCH     MPAC
000812: 24,3234           00006                           EXTEND
000813: 24,3235           40025                           DCS      TIME2
000814: 24,3236           20155                           DAS      MPAC
000815: 24,3237           07224                           TCR      DPAGREE
000816: 24,3240           30155                           CAE      MPAC       +1                         #  (LESS THAN 6 (OR 4) SECONDS TO GO)
000817: 24,3241           10000                           CCS      A                                     #  PROTECT AGAINST NEG/ZRO W.L. CALL
000818: 24,3242           13245                           TCF      +3
000819: 24,3243           13245                           TCF      +2
000820: 24,3244           35035                           CAF      ZERO
000821: 24,3245           65033                           AD       ONE
000822: 24,3246           56001                           XCH      L
000823: 24,3247           35035                           CA       ZERO
000824: 24,3250           53430                           DXCH     TGO
000825: 24,3251           31430                           CA       TGO        +1
000826: 24,3252           05261                           TC       WAITLIST
000827: 24,3253  E7,1427                                  EBANK=   TGO
000828: 24,3253           02771 50067                     2CADR    ENGINOFF
000829:
000830: 24,3255           05406                           TC       2PHSCHNG
000831: 24,3256           40153                           OCT      40153                                 #  A, 3.15 = ENGINOFF (TGO+1) .... NOTE GROUP
000832: 24,3257           10035                           OCT      10035                                 #  B, 5.3 = REREADAC, AND START BELOW
000833: 24,3260           05574                           TC       DOWNFLAG                              #  CLEAR IMPULSW, ENGINOFF IS NOW SET UP
000834: 24,3261           00044                           ADRES    IMPULSW                               #  RESTARTS OK
000835: 24,3262           13220                           TCF      SERVXT
000836:
000837:                                                                                                  #  ROUTINE ** CLOKTASK ** DESCRIPTION
000838:
000839: 24,3263  E7,1412                                  EBANK=   TIG
000840: 24,3263           35021        CLOKTASK           CAF      BIT11                                 #  IS TIMRFLAG SET
000841: 24,3264           70103                           MASK     FLAGWRD7
000842: 24,3265           10000                           CCS      A
000843: 24,3266           13272                           TCF      CLOCKON
000844: 24,3267           05426                           TC       PHASCHNG
000845: 24,3270           00006                           OCT      00006                                 #  KILL RESTART
000846: 24,3271           05340                           TC       TASKOVER
000847:
000848: 24,3272           00006        CLOCKON            EXTEND
000849: 24,3273           30025                           DCA      TIME2
000850: 24,3274           53661                           DXCH     TTOGO
000851: 24,3275           00006                           EXTEND
000852: 24,3276           41413                           DCS      TIG
000853: 24,3277           21661                           DAS      TTOGO
000854:
000855: 24,3300           35055        SETCLOCK           CAF      1SEC
000856: 24,3301           05261                           TC       WAITLIST
000857: 24,3302  E7,1412                                  EBANK=   TIG
000858: 24,3302           03263 50067                     2CADR    CLOKTASK
000859:
000860: 24,3304           11145                           CCS      NVWORD1
000861: 24,3305           13310                           TCF      +3
000862: 24,3306           13320                           TCF      SETTB6
000863:
000864: 24,3307           13310                           TCF      +1
000865: 24,3310           42423                           CS       V06N85B                               #  CHECK FOR V06N85B (P41)
000866: 24,3311           61145                           AD       NVWORD1
000867: 24,3312           00006                           EXTEND
000868: 24,3313           13323                           BZF      SETUPDYN                              #  V06N85, SO UPDATE N85 FOR DYNAMIC DISP
000869:
000870: 24,3314           37664                           CAF      PRIO27
000871: 24,3315           05150                           TC       NOVAC
000872: 24,3316  E6,1466                                  EBANK=   DAPDATR1
000873: 24,3316           03335 50066                     2CADR    CLOCKJOB
000874:
000875: 24,3320           40025        SETTB6             CS       TIME1                                 #  SET GROUP6 TIMEBASE
000876: 24,3321           55065                           TS       TBASE6
000877: 24,3322           15340                           TCF      TASKOVER
000878:
000879: 24,3323           37664        SETUPDYN           CAF      PRIO27                                #  SET UP A JOB TO UPDATE N85 (FOR P41=V06)
000880: 24,3324           05163                           TC       FINDVAC
000881: 24,3325  E6,1466                                  EBANK=   DAPDATR1
000882: 24,3325           03330 50066                     2CADR    DYNDISP
000883:
000884: 24,3327           13320                           TCF      SETTB6                                #  CLOSE OUT CLOCKTASK
000885: 24,3330           06006        DYNDISP            TC       INTPRET                               #  UPDATE N85 FOR A DYNAMIC V06N85 IN P41.
000886: 24,3331           77624                           CALL                                           #        PRIOR TO BLANKING AND AVEG (V16N85)
000887: 24,3332           50370                                    P40CNV85
000888: 24,3333           77776                           EXIT
000889: 24,3334           13345                           TCF      CKNVWRD1
000890:
000891:                                                                                                  #  ROUTINE ** CLOCKJOB ** DESCRIPTION
000892:
000893: 24,3335  E6,1466                                  EBANK=   DAPDATR1
000894: 24,3335           30032        CLOCKJOB           CA       CDUX
000895: 24,3336           54772                           TS       CDUSPOTX
000896: 24,3337           30033                           CA       CDUY
000897: 24,3340           54766                           TS       CDUSPOTY
000898: 24,3341           30034                           CA       CDUZ
000899: 24,3342           54770                           TS       CDUSPOTZ
000900: 24,3343           04676                           TC       BANKCALL
000901: 24,3344           47557                           CADR     QUICTRIG
000902: 24,3345           00004        CKNVWRD1           INHINT
000903: 24,3346           11145                           CCS      NVWORD1                               #  DETERMINE FUNCTION, INDICATED BY NVWORD1
000904: 24,3347           13366                           TCF      NOFLASH
000905: 24,3350           15233                           TCF      ENDOFJOB
000906: 24,3351           13360                           TCF      ENGREQST                              #  SPS ENGINE-ON-ENABLE V99 FLASH
000907: 24,3352           32425        FAILDSP            CAF      V06N40                                #  SPS ENGINE-FAILED V97 FLASH
000908: 24,3353           04676                           TC       BANKCALL
000909: 24,3354           20715                           CADR     CLOCPLAY
000910: 24,3355           13435                           TCF      V97T                                  #  TERMINATE
000911: 24,3356           13470                           TCF      V97P                                  #  PROCEED
000912: 24,3357           13517                           TCF      V97E                                  #  ENTER
000913:
000914: 24,3360           32425        ENGREQST           CAF      V06N40
000915: 24,3361           04676                           TC       BANKCALL
000916: 24,3362           20715                           CADR     CLOCPLAY
000917: 24,3363           13405                           TCF      V99T                                  #  TERMINATE
000918: 24,3364           13413                           TCF      V99P                                  #  PROCEED
000919: 24,3365           13377                           TCF      V99E                                  #  ENTER
000920:
000921: 24,3366           31145        NOFLASH            CAE      NVWORD1                               #  DISPLAY NVWORD1 NORMALLY
000922: 24,3367           04676                           TC       BANKCALL
000923: 24,3370           20707                           CADR     REGODSP
000924:
000925: 24,3371           35074        E7SETTER           CAF      EBANK7
000926: 24,3372           54003                           TS       EBANK
000927: 24,3373  E7,1412                                  EBANK=   TIG
000928: 24,3373           00002                           TC       Q
000929:
000930: 24,3374           35073        E6SETTER           CAF      EBANK6                                #  SET UP EBANK6
000931: 24,3375           54003                           TS       EBANK
000932: 24,3376  E6,1466                                  EBANK=   DAPDATR1
000933: 24,3376           00002                           TC       Q
000934:
000935: 24,3377  E6,1466                                  EBANK=   DAPDATR1
000936: 24,3377           05406        V99E               TC       2PHSCHNG
000937: 24,3400           00006                           OCT      00006                                 #  KILL PRE40.6/CLOKTASK PROTECTION
000938: 24,3401           05024                           OCT      05024                                 #  C, PRIORITY NEXT, JOB BELOW
000939: 24,3402           50777                           OCT      50777                                 #  PRIO 27 NOVAC
000940: 24,3403           03073        V99EJOB            TCR      TVCZAP     -1                         #  WIPE OUT TVC, CLOKTASK
000941: 24,3404           12254                           TCF      P40RCS                                #  V16N85 POST-BURN OPERATIONS
000942:
000943: 24,3405  E6,1466                                  EBANK=   DAPDATR1
000944: 24,3405           05406        V99T               TC       2PHSCHNG                              #  (ENTRY FROM V97T FLOW TOO)
000945: 24,3406           00006                           OCT      00006                                 #  KILL PRE40.6/CLOKTASK PROTECTION
000946: 24,3407           05024                           OCT      05024                                 #  C, PRIORITY NEXT, JOB BELOW
000947: 24,3410           50777                           OCT      50777                                 #  PRIO 27 NOVAC
000948: 24,3411           03073        V99TJOB            TCR      TVCZAP     -1                         #  WIPE OUT TVC, CLOKTASK
000949: 24,3412           12275                           TCF      POST41                                #  AVEGEXIT, SETMAXDB, GOTOPOOH
000950:
000951: 24,3413           00004        V99P               INHINT
000952: 24,3414           30103                           CAE      FLAGWRD7                              #  CHECK ASTN FLAG FOR PRIOR V99P
000953: 24,3415           75020                           MASK     BIT12
000954: 24,3416           10000                           CCS      A
000955: 24,3417           13432                           TCF      V99P/TIG                              #  YES, THIS MUST BE A RESTART ENTRY
000956:
000957: 24,3420           35020        ASTNV99P           CAF      BIT12                                 #  SET ASTN FLAG
000958: 24,3421           26103                           ADS      FLAGWRD7
000959: 24,3422           30103                           CAE      FLAGWRD7                              #  CHECK IGN FLAG FOR TIG-0 ARRIVAL
000960: 24,3423           75017                           MASK     BIT13
000961: 24,3424           00006                           EXTEND
000962: 24,3425           13432                           BZF      V99P/TIG                              #  NO, CLEAR THE V99 AND WAIT FOR TIG-0
000963:
000964: 24,3426           35033        ENDV99PI           CAF      BIT1                                  #  TIG-0 HAS COME ALREADY
000965: 24,3427           05261                           TC       WAITLIST                              #  SET UP IGNITION HERE
000966: 24,3430  E6,1466                                  EBANK=   DAPDATR1
000967: 24,3430           02630 50066                     2CADR    IGNITION
000968:
000969: 24,3432           32425        V99P/TIG           CAF      V06N40                                #  CLEAR THE V99 FLASH AND WAIT FOR TIG-0
000970: 24,3433           55145                           TS       NVWORD1
000971: 24,3434           15233        ENDV99P            TCF      ENDOFJOB
000972:
000973: 24,3435  E6,1474                                  EBANK=   CSMMASS
000974: 24,3435           05406        V97T               TC       2PHSCHNG
000975: 24,3436           00006                           OCT      00006                                 #  KILL GROUP 6 (CLOKTASK)
000976: 24,3437           00674                           OCT      00674                                 #  A, 4.67 = V97TJOB (-0 CS), TBASE OLD
000977: 24,3440           35035        V97TJOB            CAF      ZERO                                  #  DISABLE CLOCKJOB
000978: 24,3441           55145                           TS       NVWORD1
000979: 24,3442           35033                           CAF      BIT1
000980: 24,3443           05251                           TC       TWIDDLE
000981: 24,3444           03446                           ADRES    V97TTASK                              #  KEEP EBANK6 FOR MASSES, SPSOFF, ETC.
000982: 24,3445           15233                           TCF      ENDOFJOB
000983:
000984: 24,3446  E6,1474                                  EBANK=   CSMMASS
000985: 24,3446           32434        V97TTASK           CAF      3MDOT                                 #  3 SECONDS OF MDOT (2-4 SEC ENGFAIL
000986: 24,3447           61474                           AD       CSMMASS                               #        DETECTION) NOT LOST BECAUSE THRUST
000987: 24,3450           55654                           TS       MASSTMP                               #        FAILED.  COPYCYCLE FOR MASSBACK
000988: 24,3451           05426                           TC       PHASCHNG
000989: 24,3452           05014                           OCT      05014                                 #  C, DELTAT NEXT, TASK BELOW, IN
000990: 24,3453           77777                           DEC      -0         B-14                       #  -0 CS
000991:
000992: 24,3454           03022                           TCR      SPSOFF                                #  SHUTDOWN SPS ENGINE, MASS UPDATE, ETC.
000993: 24,3455           05426                           TC       PHASCHNG
000994: 24,3456           40714                           OCT      40714                                 #  A, 4.71 = V97TRCS (250 CS), TBASE NOW
000995: 24,3457           05303                           TC       FIXDELAY                              #  DELAY 2.5 SECONDS FOR (POSSIBLE) TAIL-
000996: 24,3460           00372                           DEC      250        B-14                       #        OFF (FALSE THRUST-LOSS)
000997:
000998: 24,3461  E6,1466                                  EBANK=   DAPDATR1
000999: 24,3461           04754        V97TRCS            TC       IBNKCALL                              #  RCS DAP IN 0.6SEC, SETTING T5 BITS TO
001000: 24,3462           42036                           CADR     RCSDAPON                              #        KILL TVCEXEC/TVCROLLDAP STARTS
001001: 24,3463           37664                           CAF      PRIO27                                #  SET UP V99T FOR TVCZAP AND POST41 (SET-
001002: 24,3464           05150                           TC       NOVAC                                 #        MAXDB AND GOTOPOOH)
001003: 24,3465  E6,1466                                  EBANK=   DAPDATR1                              #  EBANK6 FOR SETMAXDB IN POST41
001004: 24,3465           03405 50066                     2CADR    V99T
001005:
001006: 24,3467           15340        ENDV97T            TCF      TASKOVER
001007:
001008: 24,3470  E6,1444                                  EBANK=   V97VCNTR
001009: 24,3470           05426        V97P               TC       PHASCHNG
001010: 24,3471           00734                           OCT      00734                                 #  A, 4.73 = V97PJOB (-0 CS), TBASE OLD
001011:                                                                                                  #  IF RESTART, FORCE V97PJOB BEFORE CLOCKJOB
001012: 24,3472           32425        V97PJOB            CAF      V06N40                                #  REDISPLAY V06N40
001013: 24,3473           55145                           TS       NVWORD1
001014: 24,3474           35033                           CAF      BIT1
001015: 24,3475           05251                           TC       TWIDDLE
001016: 24,3476           03500                           ADRES    V97PTASK
001017: 24,3477           15233                           TCF      ENDOFJOB
001018:
001019: 24,3500  E6,1444                                  EBANK=   V97VCNTR
001020: 24,3500           31444        V97PTASK           CAE      V97VCNTR                              #  GET MASS UPDATES (TVCEXEC) GOING AGAIN
001021: 24,3501           55643                           TS       VCNTR                                 #        (ERRORS IF FLASE THRUST-LOSS AND/OR
001022:                                                                                                  #        POOR SYNCH OF MANUAL ENGINE-ON AND
001023:                                                                                                  #        THE VERB 97 PROCEED)
001024: 24,3502           05562                           TC       UPFLAG                                #  SET IDLEFAIL TO ALLOW R41-BYPASS, IN
001025: 24,3503           00030                           ADRES    IDLEFAIL                              #        CASE OF UNFAVORABLE S40.8 SYNCH
001026: 24,3504           05562                           TC       UPFLAG                                #  SET STEERSW TO RE-ENABLE STEERING
001027: 24,3505           00042                           ADRES    STEERSW
001028: 24,3506           05426                           TC       PHASCHNG
001029: 24,3507           40134                           OCT      40134                                 #  A, 4.13 = R40ENABL (200 CS), TBASE NOW
001030: 24,3510           05303                           TC       FIXDELAY                              #  WAIT 2 SECONDS, THEN
001031: 24,3511           00310                           DEC      200        B-14
001032:
001033: 24,3512  E7,1777                                  EBANK=   WHOCARES
001034: 24,3512           05574        R40ENABL           TC       DOWNFLAG                              #  RE-ENABLE R40 BY CLEARING IDLEFAIL
001035: 24,3513           00030                           ADRES    IDLEFAIL
001036: 24,3514           05426                           TC       PHASCHNG
001037: 24,3515           00004                           OCT      00004                                 #  KILL GROUP 4
001038: 24,3516           15340        ENDV97P            TCF      TASKOVER
001039:
001040: 24,3517  E7,1777                                  EBANK=   WHOCARES
001041: 24,3517           05426        V97E               TC       PHASCHNG
001042: 24,3520           00534                           OCT      00534                                 #  A, 4.53 = V97EJOB (-0 CS), TBASE OLD
001043:                                                                                                  #  IF RESTART, FORCE V97EJOB BEFORE CLOCKJOB
001044: 24,3521           32425        V97EJOB            CAF      V06N40                                #  REDISPLAY V06N40
001045: 24,3522           55145                           TS       NVWORD1
001046: 24,3523           35033                           CAF      BIT1
001047: 24,3524           05261                           TC       WAITLIST
001048: 24,3525  E7,1412                                  EBANK=   TIG
001049: 24,3525           03530 50067                     2CADR    V97ETASK
001050:
001051: 24,3527           15233                           TCF      ENDOFJOB
001052:
001053: 24,3530  E7,1412                                  EBANK=   TIG
001054: 24,3530           44112        V97ETASK           CS       OCT24                                 #  FORCE R1 OF V06N40 TO READ  59X59
001055: 24,3531           55412                           TS       TIG
001056: 24,3532           03374                           TCR      E6SETTER                              #  RETURN TO EBANK6 FOR REST OF V97ETASK
001057: 24,3533  E6,1474                                  EBANK=   CSMMASS
001058: 24,3533           32434                           CAF      3MDOT                                 #  3 SECONDS OF MDOT (2-4 SEC ENGFAIL
001059: 24,3534           61474                           AD       CSMMASS                               #        DETECTION) NOT LOST BECAUSE THRUST
001060: 24,3535           55654                           TS       MASSTMP                               #        FAILED....COPYCYCLE FOR MASSBACK
001061: 24,3536           05426                           TC       PHASCHNG
001062: 24,3537           40754                           OCT      40754                                 #  A, 4.75 = SPSOFF97 (-0 CS), TBASE NOW
001063: 24,3540           03022        SPSOFF97           TCR      SPSOFF
001064: 24,3541           05426                           TC       PHASCHNG
001065: 24,3542           00114                           OCT      00114                                 #  A, 4.11 = V97E40.6 (250 CS), TBASE OLD
001066: 24,3543           05303                           TC       FIXDELAY                              #  DELAY 2.5 SECONDS FOR (POSSIBLE) TAIL-
001067: 24,3544           00372                           DEC      250        B-14                       #        OFF (FALSE THRUST-LOSS)
001068:
001069: 24,3545  E6,1466                                  EBANK=   DAPDATR1
001070: 24,3545           35033        V97E40.6           CAF      BIT1
001071: 24,3546           05261                           TC       WAITLIST
001072: 24,3547  E6,1447                                  EBANK=   CNTR
001073: 24,3547           02260 40066                     2CADR    PRE40.6                               #  USE S40.6 RESTART ENTRY TO TRIM ENGINE
001074:
001075: 24,3551           04754                           TC       IBNKCALL                              #  RCS DAP IN 0.6SEC, SETTING T5 BITS TO
001076: 24,3552           42036                           CADR     RCSDAPON                              #        KILL TVCEXEC/TVCROLLDAP STARTS.
001077:                                                                                                  #        LEAVE NARROW DEADBAND FOR REIGNITE
001078:
001079: 24,3553           05406                           TC       2PHSCHNG
001080: 24,3554           00026                           OCT      00026                                 #  A, 6.2 = PRE40.6 (-0 CS), CLOKTASK (1 SEC)
001081: 24,3555           05014                           OCT      05014                                 #  C, DELTAT NEXT, TASK BELOW, IN
001082: 24,3556           77777                           DEC      -0         B-14                       #  -0 CS
001083:
001084: 24,3557           45102        QUICKIGN           CS       PRIO14                                #  CLEAR ASTNFLAG AND SET IGNFLAG FOR
001085: 24,3560           70103                           MASK     FLAGWRD7                              #        IMMEDIATE V99 RESPONSE
001086: 24,3561           65017                           AD       BIT13
001087: 24,3562           54103                           TS       FLAGWRD7
001088: 24,3563           05303                           TC       FIXDELAY                              #  DELAY TO ALLOW TIME FOR PRE40.6
001089: 24,3564           00036                           DEC      30         B-14
001090:
001091: 24,3565           45023        V99FLASH           CS       BIT9                                  #  CAUSE V99 TO FLASH
001092: 24,3566           55145                           TS       NVWORD1
001093: 24,3567           05406                           TC       2PHSCHNG
001094: 24,3570           40774                           OCT      40774                                 #  A, 4.77 = TIG-0 (-0 CS) TBASE FOR PREPTVC
001095: 24,3571           00033                           OCT      00033                                 #  A, 3.3 = S40.13 (PRIO 20)
001096: 24,3572           35016                           CAF      PRIO20                                #  SET UP TIMEBURN
001097: 24,3573           05163                           TC       FINDVAC
001098: 24,3574  E7,1427                                  EBANK=   TGO
001099: 24,3574           02501 34067                     2CADR    S40.13
001100:
001101: 24,3576           15340        ENDV97E            TCF      TASKOVER                              #  WAIT FOR CLOCKJOB (IMMEDIATE) REACTION
001102:                                                                                                  #        TO FLASHING V99 RESPONSE
001103:
001104:                                                                                                  #  MOD NO2                               LOG SECTION P40-P47
001105:                                                                                                  #  MOD BY ZELDIN
001106:
001107:                                                                                                  #  FUNCTIONAL DESCRIPTION
001108:                                                                                                  #        COMPUTE INITIAL THRUST DIRECTION(UT) AND INITIAL VALUE OF VG
001109:                                                                                                  #        VECTOR(VGTIG).
001110:
001111:                                                                                                  #  CALLING SEQUENCE
001112:                                                                                                  #        L       CALL
001113:                                                                                                  #        L+1             S40.1
001114:
001115:                                                                                                  #  NORMAL EXIT MODE
001116:                                                                                                  #        AT L+2 OF CALLING SEQUENCE (GOTO L+2) NORMAL RETURN OR
001117:                                                                                                  #        ERROR RETURN IF NOSOFLAG =1
001118:
001119:                                                                                                  #  SUBROUTINES CALLED
001120:                                                                                                  #        CSMPREC
001121:                                                                                                  #        INITVEL
001122:                                                                                                  #        CALCGRAV
001123:                                                                                                  #        MIDGIM
001124:
001125:                                                                                                  #  ALARM OR ABORT EXIT MODES
001126:                                                                                                  #        L+2 OF CALLING SEQUENCE, UNSOLVABLE CONIC IF NOSOFLAG=1
001127:
001128:                                                                                                  #  ERASABLE INITIALIZATION REQUIRED
001129:                                                                                                  #        WEIGHT/G        ANTICIPATED MAG. OF VEHICLE MASS        SP B16 KGM
001130:                                                                                                  #        XDELVFLG        1=DELTA-V MANEUVER, 0=AIMPT STEER
001131:                                                                                                  #    IF DELTA-V MANEUVER
001132:                                                                                                  #        DELVSIN         SPECIFIED DELTA-V REQUIRED IN
001133:                                                                                                  #                        INERTIAL COORDS. OF ACTIVE VEHICLE
001134:                                                                                                  #                        AT TIME OF IGNITION             VECTOR B7 M/CS
001135:                                                                                                  #        DELVSAB         MAG. OF DELVSIN                 DP B7 M/CS
001136:                                                                                                  #        RTIG            POSITION AT TIME OF IGNITION    VECTOR B29 M
001137:                                                                                                  #        VTIG            VELOCITY AT TIME OF IGNITION    VECTOR B7 M/CS
001138:                                                                                                  #        CSTEER = 0                                      DP
001139:                                                                                                  #    IF AIMPOINT STEERING
001140:                                                                                                  #    IF AIMPT STEER
001141:                                                                                                  #        TIG             TIME OF IGNITION                DP B28 CS
001142:                                                                                                  #        RTARG           POSITION TARGET TIME            VECTOR B29 M
001143:                                                                                                  #        CSTEER = ECSTEER (GR 0)                         DP B1
001144:                                                                                                  #        TPASS4 - TIME OF ARRIVAL AT AIMPOINT
001145:
001146:                                                                                                  #  OUTPUT
001147:                                                                                                  #        UT              1/2 UNIT VECTOR ALIGNED WITH THRUST DIRECTION IN REF COOR
001148:                                                                                                  #        VGTIG           INITIAL VALUE OF VELOCITY
001149:                                                                                                  #                        TO BE GAINED (INERT. COORD.)            VECTOR B7 M/CS
001150:                                                                                                  #        DELVLVC         VGTIG IN LOC. VERT. COORDS.             B7 M/CS
001151:                                                                                                  #        F               NOMINAL THRUST FOR ENG USED FOR S40.13  DP B7 M-NEWT
001152:                                                                                                  #        BDT             V REQUIRED AT TIG -V REQUIRED AT (TIG-2SEC)
001153:                                                                                                  #        -GDT            FOR S40.13                              VECT B7 M/CS
001154:                                                                                                  #        RTIG            CALC IN S40.1B (AIMPT) FOR S40.2,3      VECTOR B29M
001155:                                                                                                  #                        POSITION AT TIME OF IGNITION
001156:
001157:                                                                                                  #  DEBRIS        QTEMP1
001158:                                                                                                  #                MPAC, QPRET
001159:                                                                                                  #                PUSHLIST
001160:                                                                                                  #                RTX2,RTX1
001161:
001162: 14,2011                                           BANK     14
001163: 16,2000                                           SETLOC   P40S1
001164: 16,2000                                           BANK
001165:
001166: 16,2073                                           COUNT    16/S40.1
001167:
001168: 16,2073           77214        S40.1              SET      VLOAD
001169: 16,2074           01070                                    FIRSTFLG
001170: 16,2075           11566                                    LO6ZEROS
001171: 16,2076           03705                           STORE    BDT
001172: 16,2077           43020                           STQ      BOF
001173: 16,2100           03657                                    QTEMP
001174: 16,2101           01347                                    XDELVFLG
001175: 16,2102           34171                                    S40.1B                                #  LAMBERT
001176: 16,2103           51575                           VLOAD    ABVAL                                 #  EXTERNAL DELTA-V
001177: 16,2104           03646                                    DELVSIN
001178: 16,2105           03654                           STORE    DELVSAB                               #  COMPUTE FOR P30/P40 INTERFACE
001179:                                                                                                  #        THUS PERMITTING MODULE-ONLY CHANGE
001180: 16,2106           77201                           SETPD    VLOAD
001181: 16,2107           00001                                    0
001182: 16,2110           03640                                    VTIG
001183: 16,2111           03576                           STORE    VINIT
001184: 16,2112           53435                           VXV      UNIT
001185: 16,2113           03632                                    RTIG
001186: 16,2114           27713                           STOVL    UT                                    #  UP IN UT
001187: 16,2115           03632                                    RTIG
001188: 16,2116           03570                           STORE    RINIT
001189: 16,2117           65236                           VSQ      PDDL
001190: 16,2120           00045                                    36D
001191: 16,2121           56275                           DMPR     DDV
001192: 16,2122           34225                                    THETACON
001193: 16,2123           41205                           DMP      DMP
001194: 16,2124           03654                                    DELVSAB
001195: 16,2125           03076                                    WEIGHT/G
001196: 16,2126           77671                           DDV
001197: 16,2127           03727                                    F
001198: 16,2130           24017                           STOVL    14D
001199: 16,2131           03646                                    DELVSIN
001200:
001201: 16,2132           74241                           DOT      VXSC
001202: 16,2133           03713                                    UT
001203: 16,2134           03713                                    UT
001204: 16,2135           41552                           VSL2     PUSH                                  #  (DELTAV.UP)UP SCALED AT 2(+7) P.D.L. 0
001205: 16,2136           65245                           BVSU     PDDL                                  #  DELTA VP SCALED AT 2(+7) P.D.L. 6
001206: 16,2137           03646                                    DELVSIN
001207: 16,2140           00017                                    14D
001208: 16,2141           63356                           SIN      PDVL
001209: 16,2142           00007                                    6D
001210: 16,2143           53435                           VXV      UNIT
001211: 16,2144           03713                                    UT
001212: 16,2145           45561                           VXSC     STADR
001213: 16,2146           50056                           STOVL    VGTIG                                 #  UNIT(VPXUP)SIN(THETAT) IN VGTIG
001214: 16,2147           65256                           UNIT     PDDL                                  #  UNIT(DELTA VP) IN P.D.L. 6
001215: 16,2150           00017                                    14D
001216: 16,2151           74346                           COS      VXSC
001217: 16,2152           74255                           VAD      VXSC
001218: 16,2153           03721                                    VGTIG
001219: 16,2154           00045                                    36D
001220: 16,2155           53352                           VSL2     VAD
001221: 16,2156           77626                           STADR
001222: 16,2157           74056                           STORE    VGTIG                                 #  VG IGNITION SCALED AT 2(+7) M/CS
001223:
001224: 16,2160           77656                           UNIT
001225: 16,2161           27713                           STOVL    UT                                    #  THRUST DIRECTION SCALED AT 2(+1)
001226: 16,2162           03721                                    VGTIG
001227: 16,2163           43006                           PUSH     SET
001228: 16,2164           01072                                    AVFLAG
001229: 16,2165           77624                           CALL
001230: 16,2166           10647                                    MIDGIM                                #  VGTIG IN LV COOR AT 2(+7)M/CS IN DELVLVC
001231: 16,2167           77650                           GOTO
001232: 16,2170           03657                                    QTEMP
001233: 16,2171           45345        S40.1B             DLOAD    DSU                                   #  LAMBERT
001234: 16,2172           03413                                    TIG
001235: 16,2173           36037                                    TWODT
001236: 16,2174           14041                           STODL    TDEC1
001237: 16,2175           03656                                    TPASS4
001238: 16,2176           77625                           DSU
001239: 16,2177           00041                                    TDEC1
001240: 16,2200           37423                           STCALL   DELLT4
001241: 16,2201           61651                                    AGAIN
001242: 16,2202           77775                           VLOAD
001243: 16,2203           03612                                    VIPRIME
001244: 16,2204           17713                           STODL    UT
001245: 16,2205           03413                                    TIG
001246: 16,2206           00041                           STORE    TDEC1
001247: 16,2207           77621                           BDSU
001248: 16,2210           03656                                    TPASS4
001249: 16,2211           37423                           STCALL   DELLT4
001250: 16,2212           61651                                    AGAIN
001251: 16,2213           41575                           VLOAD    PUSH
001252: 16,2214           03646                                    DELVEET3
001253: 16,2215           03721                           STORE    VGTIG
001254: 16,2216           45014                           SET      CALL
001255: 16,2217           01072                                    AVFLAG
001256: 16,2220           10647                                    MIDGIM
001257: 16,2221           52001                           SETPD    GOTO
001258: 16,2222           00001                                    0
001259: 16,2223           61704                                    CALCUT
001260:
001261: 16,2224           00024 13714  THETACON           2DEC     .31830989  B-8
001262:
001263: 30,2000                                           SETLOC   P40S3
001264: 30,2000                                           BANK
001265:
001266: 30,3645                                           COUNT    24/S40.1
001267:
001268: 30,3645           04000 00000  EP4(45)H           2DEC     .125
001269:
001270: 30,3647           00707 03434  EP4(10)H           2DEC     .027777777
001271:
001272: 30,3651           45020        AGAIN              STQ      CALL
001273: 30,3652           03730                                    QTEMP1
001274: 30,3653           27100                                    THISPREC
001275: 30,3654           66134                           SXA,2    SXA,1
001276: 30,3655           03746                                    RTX2
001277: 30,3656           03745                                    RTX1
001278: 30,3657           77775                           VLOAD
001279: 30,3660           00001                                    RATT
001280: 30,3661           03632                           STORE    RTIG
001281: 30,3662           27570                           STOVL    RINIT
001282: 30,3663           00007                                    VATT
001283: 30,3664           03640                           STORE    VTIG
001284: 30,3665           03576                           STORE    VINIT
001285: 30,3666           67201                           SETPD    SLOAD
001286: 30,3667           00001                                    0
001287: 30,3670           15334                                    HI6ZEROS
001288: 30,3671           43125                           PDDL     BON
001289: 30,3672           21646                                    EP4(45)H
001290: 30,3673           03705                                    NORMSW
001291: 30,3674           61677                                    +3
001292: 30,3675           77745                           DLOAD
001293: 30,3676           21650                                    EP4(10)H
001294: 30,3677           45006                           PUSH     CALL
001295: 30,3700           22000                                    INITVEL
001296: 30,3701           52001                           SETPD    GOTO
001297: 30,3702           00001                                    0
001298: 30,3703           03730                                    QTEMP1
001299: 30,3704           45175        CALCUT             VLOAD    CALL
001300: 30,3705           03632                                    RTIG
001301: 30,3706           77355                                    CALCGRAV                              #  GDELTAT IN MPAC AT 2(+7) M/CS
001302: 30,3707           70372                           VSL1     V/SC
001303: 30,3710           21747                                    200CS                                 #  G AT 2(-5) M/CS. CS
001304: 30,3711           52315                           PDVL     VSU
001305: 30,3712           03612                                    VIPRIME
001306: 30,3713           03713                                    UT
001307: 30,3714           52341                           V/SC     VSU
001308: 30,3715           21747                                    200CS
001309: 30,3716           72561                           VXSC     VSL2
001310: 30,3717           03703                                    CSTEER
001311: 30,3720           24015                           STOVL    12D                                   #  B.C SCALED AT 2(-5) PDL 12D
001312: 30,3721           03721                                    VGTIG
001313: 30,3722           41456                           UNIT     PUSH                                  #  UG PDL 0 SCALED AT 2(+1)
001314:
001315: 30,3723           74241                           DOT      VXSC
001316: 30,3724           00015                                    12D
001317: 30,3725           00001                                    0
001318: 30,3726           51352                           VSL2     BVSU
001319: 30,3727           00015                                    12D
001320: 30,3730           14015                           STODL    12D                                   #  Q PDL 12D SCALED AT 2(-5)
001321: 30,3731           03727                                    F
001322: 30,3732           56261                           SRR      DDV
001323: 30,3733           21605                                    4
001324: 30,3734           03076                                    WEIGHT/G
001325: 30,3735           63316                           DSQ      PDVL                                  #  F/MASS SQUARED PDL 6 AT 2(-10)M/(CS.CS)
001326: 30,3736           00015                                    12D
001327: 30,3737           77636                           VSQ
001328: 30,3740           75421                           BDSU     SQRT
001329: 30,3741           76561                           VXSC     VSL1
001330: 30,3742           53455                           VAD      UNIT
001331: 30,3743           00015                                    12D
001332: 30,3744           37713                           STCALL   UT
001333: 30,3745           03657                                    QTEMP
001334: 30,3746           01440 00000  200CS              2DEC     200        B-12
001335:
001336:                                                                                                  #  PROGRAM DESCRIPTION S40.2,3           DATE 15,NOV,66
001337:                                                                                                  #  MOD NO 2                              LOG SECTION P40-P47
001338:                                                                                                  #  MOD BY ZELDIN
001339:
001340:                                                                                                  #  FUNCTIONAL DESCRIPTION
001341:                                                                                                  #
001342:                                                                                                  #        COMPUTE GIMBAL ANGLES IF THRUSTING OCCURRED WITH PRESENT IMU
001343:                                                                                                  #        ORIENTATION, WINGS LEVEL SPACECRAFT, HEADS UP
001344:                                                                                                  #        COMPUTE X AXIS OF ENGINE BELL
001345:                                                                                                  #        COMPUTE PREFERRED IMU ORIENTATION (XSCREF)
001346:                                                                                                  #        FOR THIS CALCULATION, ASSUME X AXIS OF SC ALONG UT INITIALLY,
001347:                                                                                                  #        YSC=UNIT(XXR), ZSC=UNIT(XX(XXR)) AND ROTATE ENGINE BELL ALONG UT
001348:                                                                                                  #        NEW SC AXES WILL BE APPROX. WINGS LEVEL AND NEW SC AXES IN REF.
001349:                                                                                                  #        COORDS. WILL BE PREFERRED IMU ORIENTATION.
001350:                                                                                                  #        COMPUTE DESIRED THRUST DIRECTION IN SM COORDS.
001351:
001352:                                                                                                  #  CALLING SEQUENCE
001353:                                                                                                  #        L       CALL
001354:                                                                                                  #        L+1             S40.2,3
001355:
001356:                                                                                                  #  NORMAL EXIT MODE
001357:                                                                                                  #        AT L+2 OF CALLING SEQUENCE (GOTO L+2)
001358:
001359:                                                                                                  #  SUBROUTINES CALLED
001360:                                                                                                  #        CALCGA
001361:
001362:                                                                                                  #  ALARM OR ABORT MODES
001363:                                                                                                  #        NONE
001364:
001365:                                                                                                  #  ERASABLE INITIALIZATION REQUIRED
001366:                                                                                                  #        PACTOFF         TOTAL PITCH TRIM ANGLE          SP AT 1.0795111 REV.
001367:                                                                                                  #        YACTOFF         TOTAL YAW   TRIM ANGLE          SP AT 1.0795111 REV.
001368:                                                                                                  #        UT              DESIRED THRUST DIRECTION        VECT. B2 M/(CS.CS)
001369:                                                                                                  #        RTIG            POSITION AT TIME OF IGNITION    VECT. B29 M
001370:                                                                                                  #        ENG2FLAG        ON=RCS  OFF=SPS
001371:
001372:                                                                                                  #  OUTPUT
001373:                                                                                                  #        SCAXIS          UNIT VECT. ALIGNED WITH ENG BELL IN SC COOR     B1
001374:                                                                                                  #        XSCREF          UNIT VECTORS ALIGNED WITH PREFERRED IMU         B1
001375:                                                                                                  #        YSCREF
001376:                                                                                                  #        ZSCREF
001377:                                                                                                  #        GIMBAL ANGLES IN THETAD
001378:                                                                                                  #        POINTVSM        UNIT VECT ALONG DESIRED THRUST DIRECTION IN SM  B1
001379:
001380:                                                                                                  #  DEBRIS
001381:                                                                                                  #        PUSHLIST, QPRET, MPAC
001382:                                                                                                  #        QTEMP   TEMP. ERASABLE
001383:
001384: 24,3577                                           BANK     24
001385: 24,2000                                           SETLOC   P40S
001386: 24,2000                                           BANK
001387: 24,3577                                           COUNT*   $$/S40.2
001388: 24,3577           64375        S40.2,3            VLOAD    MXV
001389: 24,3600           03713                                    UT
001390: 24,3601           01736                                    REFSMMAT
001391: 24,3602           44172                           VSL1     STQ
001392: 24,3603           03657                                    QTEMP
001393: 24,3604           03357                           STORE    POINTVSM                              #  THRUST IN SM AT 2
001394: 24,3605           43001                           SETPD    BON
001395: 24,3606           00001                                    0
001396: 24,3607           00704                                    ENG2FLAG
001397: 24,3610           51720                                    S40.2,3B
001398: 24,3611           77745                           DLOAD
001399: 24,3612           15334                                    HI6ZEROS
001400: 24,3613           67206                           PUSH     SLOAD                                 #  ZERO PDL 0
001401: 24,3614           03025                                    YACTOFF
001402: 24,3615           72405                           DMP      SL1
001403: 24,3616           11757                                    TRIMSCAL
001404: 24,3617           41415                           DAD      PUSH
001405: 24,3620           11761                                    YBIAS
001406: 24,3621           65346                           COS      PDDL                                  #  COS(Y +Y0) PDL 2
001407: 24,3622           41556                           SIN      PUSH                                  #  SIN(Y +Y0) PDL 4
001408: 24,3623           77735                           SLOAD
001409: 24,3624           03024                                    PACTOFF
001410: 24,3625           72405                           DMP      SL1
001411: 24,3626           11757                                    TRIMSCAL
001412: 24,3627           41415                           DAD      PUSH
001413: 24,3630           11763                                    PBIAS
001414: 24,3631           65346                           COS      PDDL                                  #  COS(P +P0) PDL 6
001415: 24,3632           41556                           SIN      PUSH                                  #  SIN(P +P0) PDL 8D
001416: 24,3633           14323                           STODL    ZSCREF                                #  SIN(P +P0)
001417: 24,3634           00007                                    6
001418: 24,3635           72405                           DMP      SL1
001419: 24,3636           00005                                    4
001420: 24,3637           65276                           DCOMP    PDDL                                  #  -SIN(Y+Y0)COS(P+P0) PDL 10
001421: 24,3640           00007                                    6
001422: 24,3641           72405                           DMP      SL1
001423: 24,3642           00003                                    2
001424: 24,3643           77666                           VDEF
001425:
001426: 24,3644           14307                           STODL    XSCREF                                #  PD POINTER AT 6 NEW SC X AXIS SCALED AT
001427: 24,3645           00323                                    ZSCREF
001428: 24,3646           72405                           DMP      SL1
001429: 24,3647           00005                                    4
001430: 24,3650           41325                           PDDL     DMP
001431: 24,3651           00323                                    ZSCREF
001432: 24,3652           00003                                    2
001433: 24,3653           57552                           SL1      DCOMP
001434: 24,3654           77666                           VDEF
001435:
001436: 24,3655           14323                           STODL    ZSCREF                                #  PD POINTER AT 4 NEW SC Z AXIS SCALED AT 2
001437: 24,3656           77666                           VDEF
001438:
001439: 24,3657           14315                           STODL    YSCREF                                #  PD POINTER AT 0 NEW SC Y AXIS SCALED AT 2
001440: 24,3660           00323                                    ZSCREF
001441: 24,3661           65325                           PDDL     PDDL
001442: 24,3662           00315                                    YSCREF
001443: 24,3663           00307                                    XSCREF
001444: 24,3664           77666                           VDEF
001445: 24,3665           27351                           STOVL    SCAXIS                                #  ENGINE BELL SCALED AT 2
001446: 24,3666           03713                                    UT
001447: 24,3667           53515                           PDVL     UNIT
001448: 24,3670           03632                                    RTIG
001449: 24,3671           57435                           VXV      VCOMP
001450: 24,3672           00001                                    0
001451: 24,3673           41456                           UNIT     PUSH
001452: 24,3674           77624                           CALL
001453: 24,3675           51737                                    TSTRXUT
001454: 24,3676           57435                           VXV      VCOMP
001455: 24,3677           00001                                    0
001456: 24,3700           63372                           VSL1     PDVL                                  #  2 RF/SC IN PDL 12D
001457: 24,3701           00307                                    XSCREF
001458: 24,3702           76505                           VXM      VSL1
001459: 24,3703           00001                                    0
001460: 24,3704           24307                           STOVL    XSCREF                                #  X OF PREF IMU,X OF SC IN REF COOR. AT 2
001461: 24,3705           00315                                    YSCREF
001462: 24,3706           76505                           VXM      VSL1
001463: 24,3707           00001                                    0
001464: 24,3710           24315                           STOVL    YSCREF                                #  Y OF PREF.IMU,Y OF SC IN REF COOR. AT 2
001465: 24,3711           00323                                    ZSCREF
001466: 24,3712           76505                           VXM      VSL1
001467: 24,3713           00001                                    0
001468: 24,3714           00323                           STORE    ZSCREF                                #  Z OF PREF. IMU,Z OF SC IN REF COOR. AT 2
001469: 24,3715           52001                           SETPD    GOTO
001470: 24,3716           00001                                    0
001471: 24,3717           03657                                    QTEMP
001472: 24,3720           77775        S40.2,3B           VLOAD
001473: 24,3721           15332                                    UNITX
001474: 24,3722           27351                           STOVL    SCAXIS
001475: 24,3723           03713                                    UT
001476: 24,3724           00307                           STORE    XSCREF
001477: 24,3725           53435                           VXV      UNIT
001478: 24,3726           03632                                    RTIG
001479: 24,3727           34007                           STCALL   6D
001480: 24,3730           51737                                    TSTRXUT
001481: 24,3731           00315                           STORE    YSCREF
001482: 24,3732           57435                           VXV      VCOMP
001483: 24,3733           00307                                    XSCREF
001484: 24,3734           77772                           VSL1
001485: 24,3735           34323                           STCALL   ZSCREF                                #  ZNB AXIS IN REF COOR
001486: 24,3736           03657                                    QTEMP
001487: 24,3737           46145        TSTRXUT            DLOAD    BHIZ
001488: 24,3740           00045                                    36D
001489: 24,3741           51744                                    BADVCTOR
001490: 24,3742           43575                           VLOAD    RVQ
001491: 24,3743           00007                                    6D
001492: 24,3744           53575        BADVCTOR           VLOAD    UNIT
001493: 24,3745           03632                                    RTIG
001494: 24,3746           53515                           PDVL     UNIT
001495: 24,3747           03640                                    VTIG
001496: 24,3750           53322                           VSR3     VAD
001497: 24,3751           53435                           VXV      UNIT
001498: 24,3752           03713                                    UT
001499: 24,3753           77676                           VCOMP
001500: 24,3754           00007                           STORE    6D
001501: 24,3755           77616                           RVQ
001502: 24,3756           21215 12215  TRIMSCAL           2DEC     1.07975111 B-1
001503:
001504: 24,3760           00053 07423  YBIAS              2DEC     +.00263888889                            #  YAW   MECH BIAS (+0.95 DEG, THRUST ON)
001505:
001506: 24,3762           77636 44653  PBIAS              2DEC     -.00597222222                            #  PITCH MECH BIAS (-2.15 DEG, THRUST ON)
001507:
001508:                                                                                                  #  REFERENCE, TRW 68.6520.3.3-40 27 FEB, 1968
001509:
001510:                                                                                                  #  PROGRAM DESCRIPTION S41.1             DATE 8 DEC 66
001511:                                                                                                  #  MOD NO 1                              LOG SECTION P40-P47
001512:                                                                                                  #  MOD BY ZELDIN
001513:
001514:                                                                                                  #  FUNCTIONAL DESCRIPTION
001515:
001516:                                                                                                  #        COMPUTE VELOCITY TO BE GAINED INITIALLY IN REF COORDS.
001517:                                                                                                  #        TO CONTROL COORDS.
001518:
001519:                                                                                                  #  CALLING SEQUENCE
001520:
001521:                                                                                                  #        L       CALL
001522:                                                                                                  #        L+1             S41.1
001523:
001524:                                                                                                  #  NORMAL EXIT MODE
001525:                                                                                                  #
001526:                                                                                                  #        AT L +2 OF CALLING SEQUENCE
001527:
001528:                                                                                                  #  SUBROUTINES CALLED:
001529:
001530:                                                                                                  #        CALCSMSC
001531:                                                                                                  #        CDUTRIG
001532:
001533:                                                                                                  #  ALARM OR ABORT MODES
001534:
001535:                                                                                                  #        NONE
001536:
001537:                                                                                                  #  ERASABLE INITIALIZATION REQUIRED
001538:
001539:                                                                                                  #        VG IN REF. COORD. PDL L POINTER AT L+5.  S41.1 WILL RETURN WITH
001540:                                                                                                  #        POINTER AT L (L MUST BE LESS THAN OR = TO 14D)
001541:
001542:                                                                                                  #  OUTPUT
001543:
001544:                                                                                                  #        MPAC CONTAINS VG IN CONTROL COORDS              VECT. B7 M/CS
001545:
001546:                                                                                                  #  DEBRIS:
001547:
001548:                                                                                                  #        QTEMP           TEMP ERASABLE
001549:                                                                                                  #        QPRET
001550:
001551: 24,3764                                           COUNT    22/S41.1
001552:
001553: 22,2000                                           SETLOC   P40S5
001554: 22,2000                                           BANK
001555:
001556: 22,3431           45020        S41.1              STQ      CALL
001557: 22,3432           03657                                    QTEMP
001558: 22,3433           47501                                    CDUTRIG
001559: 22,3434           77775                           VLOAD
001560: 22,3435           45121                           MXV      CALL
001561: 22,3436           01736                                    REFSMMAT
001562: 22,3437           47646                                    *SMNB*
001563: 22,3440           74321                           MXV      VXSC
001564: 22,3441           05003                                    QUADROT
001565: 22,3442           05446                                    TENBNK14                              #  VG IN CONTROL COORD IN MPAC SCALED AT
001566: 22,3443           52072                           VSL5     GOTO                                  #  VG IN CONTROL COORDS. IN MPAC AT 2(+7)
001567: 22,3444           03657                                    QTEMP
001568: 22,3445           24000 00000  TENBNK14           2DEC     10.        B-4
001569:
001570:                                                                                                  #  NAME          S40.8 - CROSS PRODUCT STEERING
001571:                                                                                                  #  FUNCTION      (1) UPDATES THE VELOCITY-TO-BE-GAINED VECTOR.
001572:                                                                                                  #                (2) GENERATES ANGULAR RATE STEERING COMMANDS FOR AUTOPILOT.
001573:                                                                                                  #                (3) ESTABLISHES ENGINE CUT-OFF SIGNALS AT APPROPRIATE TIMES.
001574:                                                                                                  #                (4) INITIATES THRUST-FAIL ROUTINE, R40
001575:                                                                                                  #  CALLING SEQ   CALL S40.8
001576:                                                                                                  #  INPUT         VGPREV  -       LAST VALUE OF THE VELOCITY-TO-BE-GAINED VECTOR
001577:                                                                                                  #                                PRIOR TO UPDATING IN METERS/CS AT +7.
001578:                                                                                                  #                DELVREF -       CHANGE IN VEHICLE VELOCITY SINCE LAST MEASUMEMENT
001579:                                                                                                  #                                IN METERS/CS AT +7.
001580:                                                                                                  #                BDT     -       EFFECT OF RATE OF CHANGE OF REQUIRED VELOCITY AND
001581:                                                                                                  #                                GRAVITY DURING DT UPON VELOCITY-TO-BE-GAINED IN
001582:                                                                                                  #                                METERS/CS AT +7.
001583:                                                                                                  #                CSTEER  -       A SCALAR OF THE STEERING LAW, SC.AT B+1, USED FOR
001584:                                                                                                  #                                SPS AIMPOINT STEERING MANEUVERS
001585:                                                                                                  #                IDLEFAIL -      A FLAG TO INHIBIT (IDLE) THE THRUST-FAIL ROUTINE
001586:                                                                                                  #                STEERSW -       A SWITCH TO PRECLUDE NEEDLESS CONDUCT OF STEERING
001587:                                                                                                  #                REFSMMAT, DAPDATR1, PIPTIME
001588:                                                                                                  #                EREPFRAC, ETDECAY, KPRIMEDT FOR TVC
001589:                                                                                                  #  OUTPUT        TTOGO   -       TIME REMAINING FOR ENGINE BURN IN CS AT +28
001590:                                                                                                  #                OMEGAC  -       DP VECTOR RATE COMMAND, SC.AT 1/(2TVCDT) REVS/SEC
001591:                                                                                                  #                VG, VGPREV, VGDISP, TGO, TIG, SCALED AS NOTED IN CODING
001592:                                                                                                  #                STEERSW, IMPULSW, NVWORD1
001593:                                                                                                  #                REPFRAC, CNTR, VCNTR, VCNTRTMP FOR TVC (R40 INTERFACING)
001594:                                                                                                  #  DEBRIS        OMEGAXC, +1
001595:                                                                                                  #  SUBROUTINES USED      -       *SMNB*, ALARM
001596:
001597: 16,2000                                           SETLOC   P40S1
001598: 16,2000                                           BANK
001599: 16,2226  E6,1466                                  EBANK=   DAPDATR1
001600: 16,2226                                           COUNT    16/S40.8
001601:
001602: 16,2226           44001        S40.8              SETPD    STQ
001603: 16,2227           00001        SPBIT1                      00D
001604: 16,2230           03657                                    QTEMP
001605: 16,2231           51375                           VLOAD    BVSU                                  #  CONSTRUCT DELVG, SC.AT B+7 M/CS
001606: 16,2232           03433                                    DELVREF
001607: 16,2233           03705                                    BDT
001608: 16,2234           77655                           VAD
001609: 16,2235           03721                                    VGPREV
001610: 16,2236           03460                           STORE    VG                                    #  VELOCITY-TO-BE-GAINED, SC.AT B+7 M/CS
001611:
001612: 16,2237           77646                           ABVAL
001613: 16,2240           03773                           STORE    VGDISP                                #  FOR DISPLAY PURPOSES
001614: 16,2241           77776                           EXIT
001615: 16,2242           05426                           TC       PHASCHNG
001616: 16,2243           10035                           OCT      10035                                 #  TYPE B RESTART BELOW AND 5.3 REREADAC
001617:
001618: 16,2244           06006                           TC       INTPRET
001619: 16,2245           77775                           VLOAD
001620: 16,2246           03460                                    VG
001621: 16,2247           03721                           STORE    VGPREV
001622: 16,2250           77214                           BOFF     VLOAD
001623: 16,2251           01344                                    STEERSW                               #  SKIP TGO AND CROSS-PRODUCT
001624: 16,2252           03657                                    QTEMP
001625: 16,2253           03433                                    DELVREF
001626: 16,2254           41446                           ABVAL    PUSH                                  #  CHECK FOR LOTHRUST
001627: 16,2255           41335                           SLOAD    DMP
001628: 16,2256           01350                                    DVTHRESH                              #  SC.AT B-2 M/CS
001629: 16,2257           36047                                    DPB-9
001630: 16,2260           77621                           BDSU
001631: 16,2261           77640                           BMN
001632: 16,2262           40241                                    LOTHRUST
001633: 16,2263           77414        CGTRACK            BON      EXIT                                  #  ENABLE TVCDAP CG TRACKING
001634: 16,2264           04700                                    SWTOVER
001635: 16,2265           34360                                    FREPSET                               #  V46 SWITCHOVER HAS OCCURRED (CSM/LM)
001636: 16,2266           31466                           CAE      DAPDATR1                              #  ENABLE TVCDAP CG TRACKING
001637: 16,2267           75016                           MASK     BIT14
001638: 16,2270           10000                           CCS      A
001639: 16,2271           35033                           CAF      BIT1
001640: 16,2272           50000                           INDEX    A                                     #  LM-OFF, LM-ON VALUE
001641: 16,2273           31421                           CAE      EREPFRAC
001642: 16,2274           55642        REPFRACS           TS       REPFRAC
001643:
001644: 16,2275           06006                           TC       INTPRET
001645: 16,2276           51375        TGOCALC            VLOAD    BVSU                                  #  GET DELVG
001646: 16,2277           03433                                    DELVREF
001647: 16,2300           03705                                    BDT
001648: 16,2301           77656                           UNIT
001649: 16,2302           41441                           DOT      PUSH                                  #  (00D)
001650: 16,2303           03460                                    VG
001651: 16,2304           56244                           BPL      DDV                                   #  ANGLE SHOULD BE GREATER THAN PI/2
001652: 16,2305           40233                                    INCRSVG                               #        DISPLAY ALARM IF NOT
001653: 16,2306           36043                                    2VEXHUST
001654: 16,2307           41215                           DAD      DMP                                   #  (DOT PRODUCT UP FROM 00D)
001655: 16,2310           11564                                    LODPHALF
001656: 16,2311           70501                           NORM     SR1
001657: 16,2312           00047                                    X1
001658: 16,2313           60325                           PDDL     NORM
001659: 16,2314           00045                                    36D                                   #  (MAG DELVG)
001660: 16,2315           00050                                    X2
001661: 16,2316           77665                           BDDV
001662: 16,2317           53664                           XSU,2    SL*
001663: 16,2320           00046                                    X1
001664: 16,2321           57607                                    0          -9D,2
001665: 16,2322           41405                           DMP      PUSH                                  #  (00D)
001666: 16,2323           36041                                    -FOURDT
001667: 16,2324           54335                           SLOAD    SR
001668: 16,2325           03013                                    ETDECAY                               #  ETDECAY SC.AT B+14 CS
001669: 16,2326           20617                                    14D
001670: 16,2327           45421                           BDSU     STADR
001671: 16,2330           74347                           STORE    TGO                                   #  TIME TO GO IN CS. AT +28
001672: 16,2331           77615                           DAD
001673: 16,2332           01205                                    PIPTIME
001674: 16,2333           17413                           STODL    TIG
001675: 16,2334           03430                                    TGO
001676: 16,2335           50025                           DSU      BMN
001677: 16,2336           36045                                    FOURSEC
001678: 16,2337           40220                                    S40.81
001679:
001680: 16,2340           74375        XPRODUCT           VLOAD    VXSC
001681: 16,2341           03705                                    BDT
001682: 16,2342           03703                                    CSTEER
001683: 16,2343           52352                           VSL2     VSU
001684: 16,2344           03433                                    DELVREF
001685: 16,2345           63256                           UNIT     PDVL
001686: 16,2346           03460                                    VG
001687: 16,2347           47256                           UNIT     VXV
001688: 16,2350           45121                           MXV      CALL
001689: 16,2351           01736                                    REFSMMAT                              #  (REFSMMAT/2)
001690: 16,2352           47646                                    *SMNB*
001691: 16,2353           77761                           VXSC
001692: 16,2354           03235                                    KPRIMEDT                              #  (KPRIMEDT SCIAT PI/8 RAD)
001693: 16,2355           03126        OMEGACLC           STORE    OMEGAC
001694: 16,2356           77650                           GOTO
001695: 16,2357           03657                                    QTEMP
001696: 16,2360           77545        FREPSET            DLOAD    EXIT                                  #  POST-SQITCHOVER CSM/LM.  LOAD FROM LOW-
001697: 16,2361           36602                                    FREPFRAC                              #        BANDWIDTH PARAMETER IN FIXED MEMORY
001698: 16,2362           30154                           CAE      MPAC
001699: 16,2363           12274                           TCF      REPFRACS
001700:
001701: 17,2000                                           SETLOC   DAPS7
001702: 17,2000                                           BANK
001703: 17,2036                                           COUNT    17/S40.8
001704:
001705: 17,2036           00000 00310  TWODT              2DEC     200.0      B-28                       #  2 SEC
001706:
001707: 17,2040           77715 77777  -FOURDT            2DEC     -800       B-18                       #  -4(200CS), SC.AT B+18CS (-4 FOR SCALING)
001708:
001709: 17,2042           17602 25124  2VEXHUST           2DEC     63.020792  B-7                        #  2(10338.0564 FPS), SC.AT B+7 M/CS
001710:
001711: 17,2044           00000 00620  FOURSEC            2DEC     400.0      B-28                       #  4 SEC
001712:
001713: 17,2046           00040 00000  DPB-9              2DEC     1          B-9
001714:
001715: 20,2000                                           SETLOC   DAPS6
001716: 20,2000                                           BANK
001717:
001718: 20,2220                                           COUNT    20/S40.8
001719:
001720: 20,2220           77214        S40.81             SET      VLOAD                                 #  TGO LESS THAN 4 SECONDS
001721: 20,2221           01066                                    IMPULSW                               #  FOR ENGINE-OFF CALL
001722: 20,2222           15334                                    HI6ZEROS
001723: 20,2223           03126        RATEZRO            STORE    OMEGAC                                #  TVC TO ATTITUDE HOLD
001724: 20,2224           77776                           EXIT
001725: 20,2225           35013                           CAF      POSMAX                                #  INHIBIT SWITCHOVER/TVC EG TRACKING
001726: 20,2226           55447                           TS       CNTR
001727: 20,2227           06006                           TC       INTPRET
001728: 20,2230           52014                           CLEAR    GOTO
001729: 20,2231           01264                                    STEERSW                               #  RESTARTS OK
001730: 20,2232           03657                                    QTEMP
001731: 20,2233           77776        INCRSVG            EXIT                                           #  ALARM INDICATING THAT THRUST IS POINTING
001732: 20,2234           05664                           TC       ALARM                                 #  IN WRONG DIRECTION.
001733: 20,2235           01407                           OCT      01407
001734: 20,2236           06006                           TC       INTPRET
001735: 20,2237           77650                           GOTO
001736: 20,2240           03657                                    QTEMP
001737:
001738: 20,2241           77214        LOTHRUST           BON      VLOAD                                 #  THRUST FAILURE (LO-OR-NO) INDICATED
001739: 20,2242           00711                                    IDLEFAIL                              #  SET BY V97P.  ALLOWS 1 BYPASS IN CASE OF
001740: 20,2243           03657                                    QTEMP                                 #        UNFAVORABLE S40.8 SYNCH
001741: 20,2244           15334                                    HI6ZEROS                              #  START OF ENGINE-FAIL (R40) OPERATIONS
001742: 20,2245           03126                           STORE    OMEGAC                                #  PUT TVC IN ATTITUDE HOLD
001743: 20,2246           77776                           EXIT
001744:
001745: 20,2247           45035                           CS       ZERO
001746: 20,2250           55643                           TS       VCNTR                                 #  KILL CSMMASS UPDATING
001747: 20,2251           55655                           TS       VCNTRTMP                              #  (TVCEXEC LOGIC REQUIRES THIS TOO)
001748: 20,2252           55642                           TS       REPFRAC                               #  KILL TVCDAP CG TRIM TRACKING
001749: 20,2253           55145                           TS       NVWORD1                               #  SET UP ENGINE-FAIL V97FLASH (CLOCKJOB)
001750:
001751: 20,2254           06006                           TC       INTPRET
001752: 20,2255           52014                           CLEAR    GOTO                                  #  INHIBIT STEERING AND TGO CALC (MANUAL
001753: 20,2256           01264                                    STEERSW                               #        SHUTDOWN IF NOT SET UP AGAIN)
001754: 20,2257           03657                                    QTEMP                                 #  RESTARTS OK
001755:
001756:                                                                                                  #  NAME          S40.9 - VTOGAIN (AIMPOINT MANEUVERS ONLY)
001757:                                                                                                  #  FUNCTION      (1) GENERATES REQUIRED VELOCITY AND VELOCITY-TO-BE-GAINED
001758:                                                                                                  #                VECTORS FOR USE DURING AIMPOINT MANEUVERS
001759:                                                                                                  #                (2) UPDATES THE B VECTOR WHICH IS USED IN THE FINAL
001760:                                                                                                  #                CALCULATION OF EXTRAPOLATING THE VELOCITY-TO-BE-GAINED
001761:                                                                                                  #  CALLING SEQ   VIA FINDVAC AS NEW JOB.
001762:                                                                                                  #  INPUT         RNIT    -       ACTIVE VEHICLE RADIUS VECTOR IN METERS AT +29.
001763:                                                                                                  #                VNIT    -       ACTIVE VEHICLE VELOCITY VECTOR IN METERS/CS AT +7
001764:                                                                                                  #                VRPREV  -       LAST COMPUTED VELOCITY REQUIRED VECTOR IN
001765:                                                                                                  #                                METERS/CS AT +7.
001766:                                                                                                  #                NOMTIG  -       TIME OF IGN.  USED IN TARGETTING ROUTINES %+28"
001767:                                                                                                  #                DELLT4  -       TRANSFER TIME FROM PIPTIME TO TARGET %+28"
001768:                                                                                                  #                TNIT    -       TIME OF RNIT AND VNIT IN CS AT +28
001769:                                                                                                  #                GDT/2   -       HALF OF VELOCITY GAINED IN DELTA T TIME DUE TO
001770:                                                                                                  #                                ACCERERATION OF GRAVITY IN METERS/CS AT +7.
001771:                                                                                                  #                DELVREF -       CHANGE IN VELOCITY DURING LAST 2 SEC IN
001772:                                                                                                  #                                METERS/CS AT +7.
001773:                                                                                                  #                NORMSW          SET=CENTRAL ANGLE BETWEEN RTARG AND RTIG IS BETWEEN
001774:                                                                                                  #                                165 TO 195 DEGREES
001775:                                                                                                  #                                RESET=CENTRAL ANGLE OUTSIDE CONE DESCRIBED ABOVE
001776:                                                                                                  #  OUTPUT        VGTEMP  -       VELOCITY TO BE GAINED VECTOR IN METERS/CS AT +7.
001777:                                                                                                  #                COGA    -       INPUT OF INITIAL GUESS FOR LAMBERT FROM S40.1 O
001778:                                                                                                  #                                OR PREVIOUS PASS THRU S40.9
001779:                                                                                                  #                GOBL/2  -       OBLATENESS TERM IN AVG GRAV CALC-GOBL*RSQ/MU
001780:                                                                                                  #                VRPREV  -       VELOCITY REQUIRED VECTOR IN METERS/CS AT +7.
001781:                                                                                                  #                BDT     -       B VECTOR IN METERS/CS AT +7.
001782:                                                                                                  #  SUBROUTINES USED -    INITVEL
001783:
001784: 16,2000                                           SETLOC   P40S1
001785: 16,2000                                           BANK
001786:
001787: 16,2364  E6,1744                                  EBANK=   NBRCYCLS
001788: 16,2364                                           COUNT    16/S40.9
001789:
001790: 16,2364           06006        S40.9              TC       INTPRET
001791: 16,2365           71201                           SETPD    DLOAD
001792: 16,2366           00001                                    00D
001793: 16,2367           11566                                    LO6ZEROS
001794: 16,2370           77725                           PDDL
001795: 16,2371           26247                                    EP4(45)L
001796: 16,2372           71214                           BON      DLOAD
001797: 16,2373           03705                                    NORMSW
001798: 16,2374           34376                                    +2
001799: 16,2375           26251                                    EP4(10)L
001800: 16,2376           77606                           PUSH
001801: 16,2377           45014                           CLEAR    CALL
001802: 16,2400           00675                                    GUESSW
001803: 16,2401           22002                                    HAVEGUES
001804: 16,2402           77776                           EXIT
001805: 16,2403           05426                           TC       PHASCHNG                              #  SAVE TIME BY NOT REDOING LAMBERT CALCS
001806: 16,2404           05021                           OCT      05021                                 #  C, PRIORITY NEXT, JOB BELOW
001807: 16,2405           10000                           OCT      10000
001808: 16,2406           06006                           TC       INTPRET
001809: 16,2407           77614        ENDLAMB            BON
001810: 16,2410           01310                                    FIRSTFLG
001811: 16,2411           34427                                    FIRSTTME
001812: 16,2412           52375                           VLOAD    VSU
001813: 16,2413           03612                                    VIPRIME
001814: 16,2414           03466                                    VRPREV
001815: 16,2415           45325                           PDDL     DSU
001816: 16,2416           03474                                    TNIT
001817: 16,2417           03476                                    TNITPREV
001818: 16,2420           55261                           SL       BDDV
001819: 16,2421           20222                                    17D
001820: 16,2422           26243                                    200CSHI
001821: 16,2423           77761                           VXSC
001822: 16,2424           76451                           VSU      VSL1
001823: 16,2425           01207                                    GDT/2
001824: 16,2426           03705                           STORE    BDT
001825: 16,2427           57535        FIRSTTME           SLOAD    DCOMP
001826: 16,2430           03747                                    RTX2
001827: 16,2431           77640                           BMN
001828: 16,2432           34447                                    MOONCASE
001829: 16,2433           53575                           VLOAD    UNIT
001830: 16,2434           01171                                    RN
001831: 16,2435           45345                           DLOAD    DSU
001832: 16,2436           01205                                    PIPTIME
001833: 16,2437           03450                                    NOMTIG
001834: 16,2440           56205                           DMP      DDV
001835: 16,2441           26245                                    EARTHMU
001836: 16,2442           00043                                    34D
001837: 16,2443           53361                           VXSC     VAD
001838: 16,2444           01215                                    GOBL/2
001839: 16,2445           03646                                    VGTEMP                                #  NOTE  NO TEST IS MADE TO SUBTRACT GOBL
001840: 16,2446           03646                           STORE    VGTEMP                                #  INSIDE 165-195 DEGREE CONE AREA.
001841: 16,2447           77776        MOONCASE           EXIT
001842: 16,2450           05426                           TC       PHASCHNG
001843: 16,2451           04021                           OCT      04021                                 #  C, JOB BELOW
001844:
001845: 16,2452           06006        COPY40.9           TC       INTPRET
001846: 16,2453           77745                           DLOAD
001847: 16,2454           03474                                    TNIT
001848: 16,2455           27476                           STOVL    TNITPREV
001849: 16,2456           03612                                    VIPRIME
001850: 16,2457           03466                           STORE    VRPREV
001851: 16,2460           77414                           CLEAR    EXIT
001852: 16,2461           01270                                    FIRSTFLG
001853: 16,2462           45033                 -2        CS       ONE                                   #  REDO40.9 (RESTART) ENTRY TO END S40.9
001854: 16,2463           55744                           TS       NBRCYCLS
001855: 16,2464           05426        ENDS40.9           TC       PHASCHNG
001856: 16,2465           00001                           OCT      00001
001857: 16,2466           15233                           TCF      ENDOFJOB
001858:
001859: 16,2467           06006        REDO40.9           TC       INTPRET                               #  S40.9 RESTARTS COME HERE TO GRACEFULLY
001860: 16,2470           77775                           VLOAD                                          #        TERMINATE S40.9 SO THAT IT CAN BE
001861: 16,2471           11566                                    LO6ZEROS                              #        SET UP WITH LATEST R,V,T NEXT PASS
001862: 16,2472           17347                           STODL    DELVSUM                               #        (TYPE C PHASE POINTS '04021' WILL
001863: 16,2473           11566                                    LO6ZEROS                              #        FORCE NORMAL S40.9 TERMINATIONS,
001864: 16,2474           27345                           STOVL    NBRCYCLS                              #        RATHER THAN LOSE TIME OF BRAND NEW
001865: 16,2475           03721                                    VGPREV                                #        PASS -- QUICK OLD DATA BETTER THAN
001866: 16,2476           03646                           STORE    VGTEMP                                #        NONE) NOW CAN GO THRU SETUP.9
001867: 16,2477           77776                           EXIT                                           #        WITHOUT DISTURBING VGPREV
001868: 16,2500           12462                           TCF      ENDS40.9   -2                         #  STORE 0,0 COVERED NBRCYCLS,P -- FIX UP S
001869:
001870: 13,2000                                           SETLOC   P40S4
001871: 13,2000                                           BANK
001872: 13,2242                                           COUNT*   $$/S40.9
001873:
001874: 13,2242           01440 00000  200CSHI            2DEC     200        B-12
001875:
001876: 13,2244           55340 61710  EARTHMU            2DEC*    -3.986032  E10        B-36*
001877:
001878: 13,2246           04000 00000  EP4(45)L           2DEC     .125
001879:
001880: 13,2250           00707 03434  EP4(10)L           2DEC     .027777777
001881:
001882:                                                                                                  #  NAME                  S40.13 - TIMEBURN
001883:
001884:                                                                                                  #  FUNCTION              (1) DETERMINE WHETHER A GIVEN COMBINATION OF VELOCITY-TO-
001885:                                                                                                  #                        BE-GAINED AND ENGINE CHOICE RESULT IN A BURN TIME SUFFICIENT
001886:                                                                                                  #                        TO ALLOW STEERING AT THE VEHICLE DURING THE BURN, AND
001887:                                                                                                  #                        (2) THE MAGNITUDE OF RESULTING BURN TIME - IF IT IS SHORT -
001888:                                                                                                  #                        AND THE ASSOCIATED TIME OF THE ENGINE-OFF SIGNAL.
001889:
001890:                                                                                                  #  CALLING SEQ           VIA FINDVAC AS NEW JOB.
001891:
001892:                                                                                                  #  INPUT                 VGTIG - VELOCITY TO BE GAINED VECTOR (METERS/C.S.) AT +7
001893:                                                                                                  #                        WEIGHT/G - MASS OF VEHICLE IN KGM AT TIG
001894:                                                                                                  #                        F - ENGINE THRUST IN M.NEWTONS AT +7
001895:                                                                                                  #                        MDOT -  RATE OF DECREASE OF VEHICLE MASS DURING ENGINE BURN
001896:                                                                                                  #                                IN KILOGRAMS/CENTISECOND AT +3.  THIS SCALING MAY
001897:                                                                                                  #                                REQUIRE MODIFICATION FOR SATURN BURNS.
001898:
001899:                                                                                                  #  OUTPUT                IMPULSW -       ZERO FOR STEERING
001900:                                                                                                  #                                -       ONE FOR ATTITUDE HOLD
001901:                                                                                                  #                        TGO     -       TIME TO BURN IN CENTISECONDS AT +14
001902:                                                                                                  #                        THE QUANTITY M.NEWTON SHALL BE USED TO EXPRESS WEIGHT IN TERMS OF
001903:                                                                                                  #                        (KILOGRAM*METER)/(CENTISECOND*CENTISECOND)
001904:                                                                                                  #                        (1) M.NEWTON = (10000) NEWTONS
001905:
001906: 16,2000                                           SETLOC   P40S1
001907: 16,2000                                           BANK
001908: 16,2501  E7,1427                                  EBANK=   TGO
001909: 16,2501                                           COUNT    16/40.13
001910:
001911: 16,2501           06006        S40.13             TC       INTPRET
001912: 16,2502           43001                           SETPD    SET
001913: 16,2503           00001                                    00D
001914: 16,2504           01066                                    IMPULSW                               #  ASSUME NO STEERING UNTIL FOUND OTHERWISE
001915: 16,2505           51575                           VLOAD    ABVAL
001916: 16,2506           03721                                    VGTIG                                 #  VELOCITY TO BE GAINED AT +7
001917: 16,2507           77776                           EXIT
001918: 16,2510           35025                           CAF      BIT7                                  #  TEST +X TRANSLATION
001919: 16,2511           00006                           EXTEND
001920: 16,2512           06031                           RXOR     CHAN31
001921: 16,2513           75025                           MASK     BIT7
001922: 16,2514           00006                           EXTEND
001923: 16,2515           12577                           BZF      NOTADDUL
001924: 16,2516           06006                           TC       INTPRET
001925: 16,2517           56325                           PDDL     DDV                                   #  00D = MAG OF VGTIG AT +7
001926: 16,2520           36057                                    S40.135                               #  COMPENSATION FOR 2 JET ULLAGE AT +24
001927: 16,2521           03076                                    WEIGHT/G                              #  MASS IN KGMS AT +16
001928: 16,2522           72414                           BON      SL1                                   #  DOUBLE CORRECTION IF FOUR JETS
001929: 16,2523           00700                                    NJETSFLG
001930: 16,2524           34525                                    S40.130
001931: 16,2525           77621        S40.130            BDSU
001932: 16,2526           56325                           PDDL     DDV                                   #  00D = MAG OF VGTIG CORRECTED FOR ULLAGE
001933: 16,2527           01770                                    K1VAL                                 #  M.NETWON-CS AT +24
001934: 16,2530           03076                                    WEIGHT/G
001935: 16,2531           50021                           BDSU     BMN
001936: 16,2532           00001                                    00D
001937: 16,2533           34556                                    S40.131                               #  TGO LESS THAN 100 CS
001938: 16,2534           41325                           PDDL     DMP                                   #  02D = TEMP1 AT +7
001939: 16,2535           00111                                    EMDOT                                 #  SPS FLOW RATE SC.AT B+3 KG/CS (SP, NOTE)
001940: 16,2536           36053                                    3.5SEC                                #  350 CS AT +14
001941: 16,2537           65221                           BDSU     PDDL
001942: 16,2540           03076                                    WEIGHT/G
001943: 16,2541           01775                                    FANG
001944: 16,2542           60405                           DMP      SR2
001945: 16,2543           36055                                    5SECOND                               #  500 CS AT +14
001946: 16,2544           41471                           DDV      PUSH                                  #  04D = TEMP2
001947: 16,2545           51021                           BDSU     BPL
001948: 16,2546           00003                                    02D
001949: 16,2547           34572                                    S40.133                               #  TGO GREATER THAN 600 CS
001950: 16,2550           55345                           DLOAD    BDDV
001951: 16,2551           43205                           DMP      DAD
001952: 16,2552           36055                                    5SECOND                               #  500 CS AT +14
001953: 16,2553           36051                                    1SEC2D                                #  100 CS AT +14
001954: 16,2554           77650                           GOTO
001955: 16,2555           34563                                    S40.132
001956: 16,2556           41345        S40.131            DLOAD    DMP                                   #  TGO LESS THAN 100 CS
001957: 16,2557           03076                                    WEIGHT/G
001958: 16,2560           56215                           DAD      DDV
001959: 16,2561           01772                                    K2VAL                                 #  M.NEWTON-CS AT +24
001960: 16,2562           01774                                    K3VAL                                 #  M.NEWTONS AT +10
001961: 16,2563           77776        S40.132            EXIT
001962: 16,2564  E7,1427                                  EBANK=   TGO
001963: 16,2564           07226                           TC       TPAGREE
001964: 16,2565           30154                           CA       MPAC
001965: 16,2566           56001                           XCH      L
001966: 16,2567           35035                           CA       ZERO
001967: 16,2570           53430                           DXCH     TGO                                   #  TGO IN CS AT +28
001968: 16,2571           02574                           TC       S40.134
001969: 16,2572           77414        S40.133            CLEAR    EXIT                                  #  WILL STEER VEHICLE
001970: 16,2573           01266                                    IMPULSW
001971: 16,2574           05426        S40.134            TC       PHASCHNG                              #  KILL GROUP 3
001972: 16,2575           00003                           OCT      3
001973:
001974: 16,2576           15233                           TCF      ENDOFJOB
001975:
001976: 16,2577           06006        NOTADDUL           TC       INTPRET
001977: 16,2600           77650                           GOTO
001978: 16,2601           34526                                    S40.130    +1                         #  DO NOT COMPENSATE FOR 7 SEC OF ULLAGE
001979: 17,2000                                           SETLOC   DAPS7
001980: 17,2000                                           BANK
001981:
001982: 17,2050                                           COUNT    17/40.13
001983:
001984: 17,2050  E3,1767               K1VAL              =        EK1VAL                                #  DP PAD LOAD B+23 NEWTON-SEC/E+2
001985: 17,2050  E3,1771               K2VAL              =        EK2VAL                                #  DP PAD LOAD B+23 NEWTON-SEC/E+2
001986: 17,2050  E3,1773               K3VAL              =        EK3VAL                                #  SP PAD LOAD B+09 NEWTONS/E+4
001987: 17,2050           00144 00000  1SEC2D             2DEC     100.0      B-14                       #  100.0 CS AT +14
001988: 17,2052           01274 00000  3.5SEC             2DEC     350.0      B-13                       #  350.0 CS AT +13
001989:
001990: 17,2054           00764 00000  5SECOND            2DEC     500.0      B-14                       #  500 CS AT +14
001991:
001992: 17,2056           00000 04263  S40.135            2DEC     69.6005183 B-23                       #  IMPULSE FROM 7.96 SECS OF 2-JET FIRING
001993:                                                                                                  #        7.96 (199.6)COS(10) LB-SEC, SC.AT
001994:                                                                                                  #        B+23 NEWTON-SEC/E+2 (7 SEC ULLAGE
001995:                                                                                                  #        TO GO, PLUS 0.96 SEC FROM PIPTIME)
001996:
001997:                                                                                                  #  NAME          S40.6 GIMBAL DRIVE TEST AND/OR GIMBAL TRIM
001998:                                                                                                  #  MOD NO 5                              DATE 9 MARCH, 1967
001999:                                                                                                  #  MOD BY ENGEL                          LOG SECTION P40-P47
002000:
002001:                                                                                                  #  FUNCTIONAL DESCRIPTION
002002:                                                                                                  #        GIMBAL DRIVE TEST....0,+2,-2,0 DEGREE ENGINE COMMANDS, AT 2 SECOND
002003:                                                                                                  #                INTERVALS, FIRST IN PITCH, THEN IN YAW.  ASTRONAUT VERIFICATION
002004:                                                                                                  #                OF GIMBAL MOTION ON GPI
002005:                                                                                                  #        GIMBAL TRIM....AFTER A 4 SECOND DELAY, ENGINE COMMANDED TO
002006:                                                                                                  #                PRE-COMPUTED TRIM POSITION.  ASTRONAUT VERIFICATION ON GPI.
002007:                                                                                                  #        PRE40.6....RESTART ENTRY TO RE-DO S40.6, ONLY IF RCS IS ON - IF TVC
002008:                                                                                                  #                IS NOT ON - PRIMARILY TO GET ACTUATORS TRIMMED FOR IGNITION.
002009:                                                                                                  #                BYPASS 4 SEC DELAY.  SPEED IS CRITICAL NEAR IGNITION.
002010:                                                                                                  #                IF TVC IS ON (TVCDAPON OR LATER) THEN REDOTVC WILL TAKE CARE
002011:                                                                                                  #                OF RESTARTING ACTUATORS.
002012:
002013:                                                                                                  #  CALLING SEQUENCE....
002014:                                                                                                  #        WAITLIST, WITH 2CADR FOR S40.6 (OR PRE40.6), WITH EBANK= CNTR
002015:
002016:                                                                                                  #  NORMAL EXIT MODE - FIXDELAY, TASKOVER
002017:
002018:                                                                                                  #  SUBROUTINES CALLED....
002019:                                                                                                  #        OUTPUT (INTERNAL)
002020:                                                                                                  #        FIXDELAY
002021:
002022:                                                                                                  #  ALARM OR ABORT EXIT MODES - NONE
002023:
002024:                                                                                                  #  ERASEABLE INITIALIZATION REQUIRED
002025:                                                                                                  #        CNTR = +0, NORMALLY SET BY THE P40 CALL AT TST,TRIM
002026:                                                                                                  #        MRKRTMP...POSITIVE FOR GIMBAL DRIVE TEST AND GIMBAL TRIM (BOTH)
002027:                                                                                                  #                   NEGATIVE FOR GIMBAL TRIM ONLY
002028:                                                                                                  #        PACTOFF, YACTOFF SC.AT 85.41 ARCSEC/BIT (V48N48 P, YTRIM)
002029:                                                                                                  #        ..SC CONT.. SWITCH AT ..CMC.. (A/P CONTROL SWITCH AT ..GNC..)
002030:                                                                                                  #        ACTIVE SPS GIMBAL MOTOR POWER(S), PITCH, YAW
002031:
002032:                                                                                                  #  OUTPUT
002033:                                                                                                  #        TVCYAW, TVCPITCH (BITS RELEASED)
002034:                                                                                                  #        TVC ENABLE AND OPTICS ERROR COUNTER ENABLE
002035:
002036:                                                                                                  #  DEBRIS
002037:                                                                                                  #        TEMPR60, CNTR
002038:
002039: 17,2060                                           BANK     17
002040: 20,2000                                           SETLOC   DAPS6
002041: 20,2000                                           BANK
002042:
002043: 20,2260  E6,1447                                  EBANK=   CNTR
002044: 20,2260                                           COUNT    20/S40.6
002045:
002046: 20,2260           40102        PRE40.6            CS       FLAGWRD6                              #  RESTART ENTRY TO S40.6 (DO NOT PERMIT
002047: 20,2261           74105                           MASK     OCT60000                              #        IF TVC, BITS 15,|4 = 1,0)
002048: 20,2262           00006                           EXTEND
002049: 20,2263           62265                           BZMF     +2
002050: 20,2264           15340                           TCF      TASKOVER                              #  TVC, REDOTVC WILL REESTABLISH INTERFACE
002051:
002052: 20,2265           45033                           CS       BIT1                                  #  RCS, SO DO S40.6, GIMTRIM ONLY
002053: 20,2266           55445                           TS       MRKRTMP
002054:
002055: 20,2267           35033                           CAF      BIT1                                  #  FOR REVISED S40.6 TIMING FOR RESTARTS...
002056: 20,2270           55447                           TS       CNTR                                  #  TO INDICATE A RESTART ENTRY (CNTR IS
002057:                                                                                                  #        NORMALLY +0, BY S40.6)
002058:
002059: 20,2271  E6,1447                                  EBANK=   CNTR
002060: 20,2271           45035        S40.6              CS       ZERO                                  #  INHIBIT OPTICS ACTIVITY
002061: 20,2272           55303                           TS       OPTIND
002062:
002063: 20,2273           45032                           CS       BIT2                                  #  DISENABLE OPTICS ERROR COUNTERS (ZERO,
002064: 20,2274           00006                           EXTEND                                         #        AND INHIBIT PULSE TRANSMISSION -
002065: 20,2275           03012                           WAND     CHAN12                                #        NORMAL STATE)
002066:
002067: 20,2276           32363                           CAF      OCT02200                              #  TVC ENABLE (SPS SERVO AMPS SEE DAC
002068: 20,2277           00006                           EXTEND                                         #        VOLTAGES) AND DISENGAGE OPTICS/DAC
002069: 20,2300           05012                           WOR      CHAN12
002070:
002071: 20,2301           05303                           TC       FIXDELAY                              #  60MS PROCEDURAL DELAY (40MS MINIMUM) FOR
002072: 20,2302           00006                           DEC      6          B-14                       #        RELAY LATCHING
002073:
002074: 20,2303           35032                           CAF      BIT2                                  #  ENABLE OPTICS ERROR COUNTERS
002075: 20,2304           00006                           EXTEND
002076: 20,2305           05012                           WOR      CHAN12
002077:
002078: 20,2306           05303                           TC       FIXDELAY                              #  20MS PROCEDURAL DELAY (4MS MINIMUM) FOR
002079: 20,2307           00002                           DEC      2          B-14                       #        RELAY LATCHING
002080:
002081: 20,2310           11447        RSTRTST            CCS      CNTR                                  #  CHECK FOR RESTART ENTRY (PRE40.6)
002082: 20,2311           12351                           TCF      GIMTRIM    +2                         #  RESTART ENTRY....BYPASS 4 SECOND DELAY
002083:                                                                                                  #        TST,TRIM SETS +0 ON NORMAL ENTRY
002084:
002085: 20,2312           31445                           CAE      MRKRTMP                               #  CHECK FOR TEST/TRIM OR TRIM ONLY
002086: 20,2313           55447                           TS       CNTR                                  #        MRKRTMP SAVES CNTR FOR RESTARTS
002087: 20,2314           00006                           EXTEND
002088: 20,2315           62347                           BZMF     GIMTRIM                               #  (TRIM ONLY)
002089:
002090: 20,2316           45035        GDTSETUP           CS       ZERO                                  #  GIMBAL DRIVE TEST SETUP, FOR PITCH
002091: 20,2317           55447                           TS       CNTR
002092:
002093: 20,2320           32365        GIMDTEST           CAF      +2ACTDEG                              #  GIMBAL DRIVE TEST, 1ST INCREMENT
002094: 20,2321           02334                           TC       OUTPUT                                #        (LEAVES GIMBAL AT +2 DEG)
002095: 20,2322           32364                           CAF      -4ACTDEG                              #  2ND INCREMENT (LEAVES GIMBAL AT -2)
002096: 20,2323           02334                           TC       OUTPUT
002097: 20,2324           32365                           CAF      +2ACTDEG                              #  3RD INCREMENT (LEAVES GIMBAL AT -0)
002098: 20,2325           02334                           TC       OUTPUT
002099:
002100: 20,2326           41447                           CS       CNTR                                  #  CHECK FOR COMPLETION OF YAW TEST
002101: 20,2327           10000                           CCS      A
002102: 20,2330           12347                           TCF      GIMTRIM                               #  COMPLETED, GO TO GIMBAL TRIM ROUTINE
002103: 20,2331           45033                           CS       BIT1                                  #  SET UP YAW TEST
002104: 20,2332           55447                           TS       CNTR
002105: 20,2333           12320                           TCF      GIMDTEST                              #  FOR YAW TEST
002106:
002107: 20,2334           00006        OUTPUT             EXTEND                                         #  OUTPUT THE INCREMENT....SAVE Q
002108: 20,2335           23146                           QXCH     TEMPR60
002109:
002110: 20,2336           51447                           INDEX    CNTR
002111: 20,2337           54054                           TS       TVCPITCH
002112:
002113: 20,2340           51447                           INDEX    CNTR
002114: 20,2341           35021                           CAF      BIT11
002115: 20,2342           00006                           EXTEND
002116: 20,2343           05014                           WOR      CHAN14
002117:
002118: 20,2344           05303                           TC       FIXDELAY                              #  WAIT 2SEC, WHILE ASTRONAUT VERIFIES
002119: 20,2345           00310                           DEC      200        B-14                       #        GIMBAL MOTION ON GPI
002120: 20,2346           01146                           TC       TEMPR60
002121:
002122: 20,2347           05303        GIMTRIM            TC       FIXDELAY                              #  WAIT 4 SECONDS BEFORE GIMBAL TRIM
002123: 20,2350           00620                           DEC      400        B-14
002124:
002125: 20,2351           45035                 +2        CS       ZERO                                  #  PICK UP TRIM VALUES AND OUTPUT THEM
002126: 20,2352           61423                           AD       PACTOFF                               #        (AVOID +0) ENTRY POINT FROM RSTRTST
002127: 20,2353           54054                           TS       TVCPITCH                              #        ON A RESTART, TO AVOID 4SEC DELAY
002128: 20,2354           45035                           CS       ZERO
002129: 20,2355           61424                           AD       YACTOFF
002130: 20,2356           54053                           TS       TVCYAW
002131:
002132: 20,2357           35076                           CAF      PRIO6                                 #  RELEASE THE COUNTERS, BITS 11,12
002133: 20,2360           00006                           EXTEND
002134: 20,2361           05014                           WOR      CHAN14
002135:
002136: 20,2362           15340        ENDS40.6           TCF      TASKOVER
002137:
002138: 20,2363           02200        OCT02200           OCT      02200                                 #  BITS 8,11 FOR CHANNEL 12 TVC/OPTICS
002139: 20,2364           77527        -4ACTDEG           DEC      -168       B-14                       #  -2(+2ACTDEG), WHOLE BITS, NO ROUNDUP
002140: 20,2365           00124        +2ACTDEG           DEC      +84        B-14                       #  +2 DEG, SC.AT 85.41 ARCSEC/BIT (+84D)
002141:
002142:                                                                                                  #  CALLED BY ..DONOUN46.. (VERB 48), OR DIRECTLY BY ..FRESHDAP.. (RCS DAP) VIA IBNKCALL
002143:
002144: 20,2366                                           COUNT    20/S41.2
002145:
002146: 20,2366           31466        S41.2              CA       DAPDATR1
002147: 20,2367           76214                           MASK     THREE
002148: 20,2370           60000                           AD       A
002149: 20,2371           55130                           TS       RATEINDX
002150:
002151: 20,2372           00004                           INHINT
002152: 20,2373           31466                           CAE      DAPDATR1                              #  IS LEM ATTACHED (BITS 14,13 OF DAPDATR1
002153: 20,2374           74371                           MASK     PRIO30                                #        =10)
002154: 20,2375           67705                           AD       -BIT14                                #  (OCT57777)
002155: 20,2376           00006                           EXTEND
002156: 20,2377           12404                           BZF      TOGETHER                              #  YES
002157:
002158: 20,2400           45032                           CS       BIT2                                  #  NO, UNSET FLAG
002159: 20,2401           70103                           MASK     FLAGWRD7
002160: 20,2402           54103                           TS       FLAGWRD7
002161:
002162: 20,2403           12407                           TCF      +4
002163:
002164: 20,2404           40103        TOGETHER           CS       FLAGWRD7                              #  ATTACHED, SET FLAG FOR INTEGRATION
002165: 20,2405           75032                           MASK     BIT2
002166: 20,2406           26103                           ADS      FLAGWRD7
002167:
002168: 20,2407           00003                           RELINT
002169:
002170: 20,2410           31466                           CA       DAPDATR1
002171: 20,2411           75030                           MASK     BIT4
002172: 20,2412           00006                           EXTEND
002173: 20,2413           62415                           BZMF     +2                                    #  DEC 46 MEANS NARROW DB
002174: 20,2414           32515                           CA       DEC409
002175: 20,2415           62516                           AD       DEC46                                 #  DEC 455 MEANS WIDE DB
002176: 20,2416           55655                           TS       ADB
002177:
002178: 20,2417           31466                           CA       DAPDATR1
002179: 20,2420           75025                           MASK     BIT7                                  #  QUAD BD
002180: 20,2421           00006                           EXTEND
002181: 20,2422           62424                           BZMF     +2
002182: 20,2423           35033                           CA       ONE
002183: 20,2424           55631                           TS       XTRANS
002184: 20,2425           31466                           CA       DAPDATR1
002185: 20,2426           75022                           MASK     BIT10                                 #  QUAD AC
002186: 20,2427           00006                           EXTEND
002187: 20,2430           62432                           BZMF     +2
002188: 20,2431           45033                           CS       ONE
002189: 20,2432           27631                           ADS      XTRANS
002190:
002191: 20,2433           00004                           INHINT
002192: 20,2434           00006                           EXTEND
002193: 20,2435           12442                           BZF      +5                                    #  CLEAR NJETSFLG (4 JETS, OR NO JETS)
002194: 20,2436           40075                           CS       FLAGWRD1                              #  SET NJETSFLG (2 JETS, AC OR BD QUADS)
002195: 20,2437           75015                           MASK     BIT15                                 #  NJETSFLG = 1 FOR 2 JET ULLAGE (AC OR BD)
002196: 20,2440           26075                           ADS      FLAGWRD1
002197: 20,2441           12445                           TCF      +4
002198: 20,2442           45015                           CS       BIT15                                 #  NJETSFLG = 0 FOR 4 JET (OR 0 JET) ULLAGE
002199: 20,2443           70075                           MASK     FLAGWRD1
002200: 20,2444           54075                           TS       FLAGWRD1
002201: 20,2445           00003                           RELINT
002202: 20,2446           31467                           CA       DAPDATR2
002203: 20,2447           75017                           MASK     BIT13
002204: 20,2450           00006                           EXTEND
002205: 20,2451           62453                           BZMF     +2
002206: 20,2452           12454                           TCF      +2
002207: 20,2453           45033                           CS       ONE
002208: 20,2454           40000                           COM
002209: 20,2455           55630                           TS       ACORBD                                #  MINUS FOR A-C, PLUS FOR B-D
002210:
002211: 20,2456           31467                           CA       DAPDATR2
002212: 20,2457           75022                           MASK     BIT10
002213: 20,2460           10000                           CCS      A
002214: 20,2461           12465                           TCF      +4
002215: 20,2462           35033                           CA       ONE
002216: 20,2463           55626                           TS       RACFAIL
002217: 20,2464           12475                           TCF      BDFAIL
002218: 20,2465           35035                           CA       ZERO
002219: 20,2466           55626                           TS       RACFAIL
002220: 20,2467           31467                           CA       DAPDATR2
002221: 20,2470           75030                           MASK     BIT4
002222: 20,2471           10000                           CCS      A
002223: 20,2472           12475                           TCF      BDFAIL
002224: 20,2473           45033                           CS       ONE
002225: 20,2474           55626                           TS       RACFAIL
002226: 20,2475           31467        BDFAIL             CA       DAPDATR2
002227: 20,2476           75025                           MASK     BIT7
002228: 20,2477           10000                           CCS      A
002229: 20,2500           12504                           TCF      +4
002230: 20,2501           35033                           CA       ONE
002231: 20,2502           55627                           TS       RBDFAIL
002232: 20,2503           00002                           TC       Q
002233: 20,2504           35035                           CA       ZERO
002234: 20,2505           55627                           TS       RBDFAIL
002235: 20,2506           31467                           CA       DAPDATR2
002236: 20,2507           75033                           MASK     BIT1
002237: 20,2510           10000                           CCS      A
002238: 20,2511           00002                           TC       Q
002239: 20,2512           45033                           CS       ONE
002240: 20,2513           55627                           TS       RBDFAIL
002241: 20,2514           00002                           TC       Q
002242:
002243:                                                                                                  #  DAPFIG ENTRY VIA TC POSTJUMP AS JOB FROM ..STABLISH.. (VERB 46)
002244:
002245: 42,3605                                           BANK     42
002246: 42,2000                                           SETLOC   EXTVBS
002247: 42,2000                                           BANK
002248:
002249: 42,3605           45023        DAPFIG             CS       BIT9                                  #  TURN OFF SIVB TAKEOVER
002250: 42,3606           00006                           EXTEND
002251: 42,3607           03012                           WAND     CHAN12
002252: 42,3610           31466                           CAE      DAPDATR1                              #  DETERMINE VEHICLE CONFIGURATION
002253: 42,3611           00006                           EXTEND
002254: 42,3612           75031                           MP       BIT3                                  #        RIGHT SHIFT 4 OCTAL DIGITS
002255: 42,3613           76214                           MASK     THREE                                 #        (IN CASE BIT 15 IS USED)
002256: 42,3614           50000                           INDEX    A
002257: 42,3615           13616                           TCF      +1                                    #        BRANCH BASED ON CONFIG....
002258:
002259: 42,3616           13630                           TCF      NODAPUP                               #  CM.......ACTIVATE NODAP
002260: 42,3617           13623                           TCF      RCSDAPUP                              #        CSM......ACTIVATE RCSDAP
002261: 42,3620           13623                           TCF      RCSDAPUP                              #        CSM/LEM..ACTIVATE RCSDAP
002262: 42,3621           04715                           TC       POSTJUMP
002263: 42,3622           67225                           CADR     SATSTKON
002264: 42,3623           00004        RCSDAPUP           INHINT                                         #  CALL TO ACTIVATE RCSDAP, AND RETURN
002265: 42,3624           04754                           TCR      IBNKCALL
002266: 42,3625           42036                           CADR     RCSDAPON
002267: 42,3626           00003                           RELINT
002268: 42,3627           13645                           TCF      ENDFIG                                #  CAME IN VIA V46, GO OUT VIA GOPIN
002269: 42,3630           00006        NODAPUP            EXTEND                                         #  T5 IDLE FOR NODAP (DONT WORRY ABOUT T)
002270: 42,3631           33650                           DCA      T5IDLDAP
002271: 42,3632           53313                           DXCH     T5LOC
002272: 42,3633           05574                           TC       DOWNFLAG                              #  RESET T5-USAGE FLAGS FOR NODAP
002273: 42,3634           00132                           ADRES    DAPBIT1                               #  BIT 15 FLAG 6 = 0
002274: 42,3635           05574                           TC       DOWNFLAG
002275: 42,3636           00133                           ADRES    DAPBIT2                               #  BIT 14 FLAG 6 = 0
002276: 42,3637           00004                           INHINT
002277: 42,3640           04754                           TC       IBNKCALL                              #  ZERO JET CHANNELS IN 14 MS AND THEN
002278: 42,3641           42644                           CADR     ZEROJET                               #  LEAVE THE T6 CLOCK DISABLED.
002279: 42,3642           00003                           RELINT
002280: 42,3643           35033                           CAF      BIT1                                  #  KILL KALCMANU JOB
002281: 42,3644           55332                           TS       HOLDFLAG
002282: 42,3645           04715        ENDFIG             TC       POSTJUMP                              #  CAME IN VIA V46, GO OUT VIA GOPIN
002283: 42,3646           66123                           CADR     GOPIN
002284: 42,3647  E6,1423                                  EBANK=   PACTOFF
002285: 42,3647           03155 12106  T5IDLDAP           2CADR    T5IDLOC
002286:
002287: 42,3651  30,2000                                  SBANK=   LOWSUPER
002288: 17,2060                                           BANK     17
002289: 20,2000                                           SETLOC   DAPS6
002290: 20,2000                                           BANK
002291:
002292: 20,2515           00631        DEC409             DEC      409        B-14
002293: 20,2516           00056        DEC46              DEC      46         B-14
002294:
002295:
002296:                                                                                                  #  CALLED BY ..DONOUN47.. (VERB 48), OR DIRECTLY BY ..FRESHDAP.. (RCS DAP)
002297: 20,2517           31470        S40.14             CAE      IXX                                   #  RCS ENTRY
002298: 20,2520           00006                           EXTEND
002299: 20,2521           72544                           MP       CONTONE
002300: 20,2522           55623                           TS       J/M
002301:
002302: 20,2523           31471                           CA       IAVG
002303: 20,2524           00006                           EXTEND
002304: 20,2525           72544                           MP       CONTONE
002305: 20,2526           55624                           TS       J/M1
002306:
002307: 20,2527           55625                           TS       J/M2
002308:
002309: 20,2530           00006                           EXTEND
002310: 20,2531           32546                           DCA      CONTTWO
002311: 20,2532           00006                           EXTEND
002312: 20,2533           11470                           DV       IXX
002313: 20,2534           55620                           TS       KMJ
002314:
002315: 20,2535           00006                           EXTEND
002316: 20,2536           32546                           DCA      CONTTWO
002317: 20,2537           00006                           EXTEND
002318: 20,2540           11471                           DV       IAVG
002319: 20,2541           55621                           TS       KMJ1
002320:
002321: 20,2542           55622                           TS       KMJ2
002322:
002323: 20,2543           00002                           TC       Q
002324:
002325: 20,2544           25137        CONTONE            DEC      .662034                               #  2PI/M
002326: 20,2545           00023 12522  CONTTWO            2DEC     .00118
002327:
002328: 20,2547                                           COUNT    24/TVNG
002329:
002330: 31,3704                                           BANK     31
002331: 24,2000                                           SETLOC   P40S
002332: 24,2000                                           BANK
002333:
002334: 24,3764           37405        POS-2.5            OCT      37405
002335: 24,3765  E6,1466                                  EBANK=   DAPDATR1
002336: 24,3765           02026 42066  RCSCADR            2CADR    RCSUP
002337:
002338: 24,3767           37704        6SECT5             OCT      37704
002339: 24,3770                                           COUNT    21/RCSUP
002340:
002341: 20,2547                                           BANK     20
002342:
002343: 21,2000                                           SETLOC   DAPS3
002344: 21,2000                                           BANK
002345:
002346:
002347: 21,2026           22016        RCSUP              LXCH     BANKRUPT
002348: 21,2027           00006                           EXTEND
002349: 21,2030           22012                           QXCH     QRUPT
002350:
002351: 21,2031           02036                           TCR      RCSDAPON                              #  ACTIVATE RCS DAP
002352:
002353: 21,2032           15347                           TCF      RESUME
002354:
002355: 21,2033  E6,1466                                  EBANK=   DAPDATR1
002356: 21,2033           02134 42066  RCSADDR            2CADR    RCSATT
002357:
002358: 21,2035           37704        0.6SECT5           OCT      37704
002359:
002360:                                                                                                  #  RCSDAPON ENTRY MUST BE UNDER INT-INHIBIT
002361: 21,2036           32035        RCSDAPON           CAF      0.6SECT5                              #  0.6 SEC ALLOWS TVCEXEC/ROLLDAP TO DIE
002362: 21,2037           54030                 +1        TS       TIME5                                 #  ENTRY FROM ROOTOPOO
002363: 21,2040           55465                           TS       T5PHASE                               #  WILL CAUSE FRESHDAP (+1)
002364:
002365: 21,2041           41501                           CS       RCSFLAGS                              #  SET BIT3 TO REINITIALIZE FDAI ERROR
002366: 21,2042           75031                           MASK     BIT3                                  #        DISPLAY, IN CASE SC CONT SWITCH
002367: 21,2043           27501                           ADS      RCSFLAGS                              #        IN SCS NOT GNC (GUIDEMODE PRIMARY)
002368:
002369: 21,2044           00006                           EXTEND
002370: 21,2045           32034                           DCA      RCSADDR                               #  (RCSATT)
002371: 21,2046           53313                           DXCH     T5LOC
002372:
002373: 21,2047           44105                           CS       OCT60000                              #  SET BITS 15,14 TO 01 TO INDICATE
002374: 21,2050           70102                           MASK     FLAGWRD6                              #        T5 TAKEOVER BY RCSDAP
002375: 21,2051           65016                           AD       BIT14
002376: 21,2052           54102                           TS       FLAGWRD6                              #  KILLS TVCEXEC AND ROLLDAP STARTS
002377:
002378: 21,2053           00002                           TC       Q                                     #  RETURN TO CALLER (TVCDAPOF OR RCSDAPUP)
002379:
002380:

End of include-file P40-P47.agc.  Parent file is MAIN.agc


