
Source Code


000002:                                                                                                  ## Copyright:   Public domain.
000003:                                                                                                  ## Filename:    PHASE_TABLE_MAINTENANCE.agc
000004:                                                                                                  ## Purpose:     A section of Manche72 revision 3.
000005:                                                                                                  ##              It is part of the reconstructed source code for the final, flown
000006:                                                                                                  ##              release of the software for the Command Module's (CM) Apollo
000007:                                                                                                  ##              Guidance Computer (AGC) for Apollo 13. No original listings
000008:                                                                                                  ##              of this program are available; instead, this file was recreated
000009:                                                                                                  ##              from a reconstructed copy of Comanche 072. It has been adapted
000010:                                                                                                  ##              such that the resulting bugger words exactly match those
000011:                                                                                                  ##              specified for Manche72 revision 3 in NASA drawing 2021153G,
000012:                                                                                                  ##              which gives relatively high confidence that the reconstruction
000013:                                                                                                  ##              is correct.
000014:                                                                                                  ## Assembler:   yaYUL
000015:                                                                                                  ## Contact:     Ron Burkey <info@sandroid.org>.
000016:                                                                                                  ## Website:     www.ibiblio.org/apollo/index.html
000017:                                                                                                  ## Mod history: 2024-05-19 MAS  Created from Comanche 072.
000018:
000019:                                                                                                  #  SUBROUTINE TO UPDATE THE PROGRAM NUMBER DISPLAY ON THE DSKY.
000020:
000021: 43,3736                                           COUNT    02/PHASE
000022:    5370                                           BLOCK    02
000023:    4000                                           SETLOC   FFTAG1
000024:    4000                                           BANK
000025:
000026:    5370           50002        NEWMODEX           INDEX    Q                                     #  UPDATE MODREG.  ENTRY FOR MODE IN FIXED.
000027:    5371           30000                           CAF      0
000028:    5372           24002                           INCR     Q
000029:
000030:    5373           55011        NEWMODEA           TS       MODREG                                #  ENTRY FOR MODE IN A.
000031:    5374           35377        MMDSPLAY           CAF      +3                                    #  DISPLAY MAJOR MODE.
000032:    5375           22006        PREBJUMP           LXCH     BBANK                                 #  PUTS BBANK IN L
000033:    5376           14720                           TCF      BANKJUMP                              #  PUTS Q INTO A
000034:    5377           20440                           CADR     SETUPDSP
000035:
000036:                                                                                                  #  RETURN TO CALLER +3 IF MODE = THAT AT CALLER +1.  OTHERWISE RETURN TO CALLER +2.
000037:
000038:    5400           50002        CHECKMM            INDEX    Q
000039:    5401           40000                           CS       0
000040:    5402           61011                           AD       MODREG
000041:    5403           00006                           EXTEND
000042:    5404           16710                           BZF      Q+2
000043:    5405           16706                           TCF      Q+1                                   #  NO MATCH
000044:
000045:    5406     6711               TCQ                =        Q+2        +1
000046:
000047: 14,3765                                           BANK     14
000048: 10,2000                                           SETLOC   PHASETAB
000049: 10,2000                                           BANK
000050:
000051: 10,2440                                           COUNT    10/PHASE
000052:
000053: 10,2440           00004        SETUPDSP           INHINT
000054: 10,2441           52071                           DXCH     RUPTREG1                              #  SAVE CALLER-S RETURN 2CADR
000055: 10,2442           34371                           CAF      PRIO30                                #        EITHER A TASK OR JOB CAN COME TO
000056: 10,2443           05150                           TC       NOVAC                                 #        NEWMODEX
000057: 10,2444     1011                                  EBANK=   MODREG
000058: 10,2444           03450 60102                     2CADR    DSPMMJOB
000059:
000060: 10,2446           52071                           DXCH     RUPTREG1
000061: 10,2447           00003                           RELINT
000062: 10,2450           52006                           DXCH     Z                                     #  RETURN
000063:
000064: 10,2451  40,3450               DSPMMJOB           EQUALS   DSPMMJB
000065:
000066:    5406                                           BLOCK    02
000067:    4000                                           SETLOC   FFTAG1
000068:    4000                                           BANK
000069:
000070:                                                                                                  #  PHASCHNG IS THE MAIN WAY OF MAKING PHASE CHANGES FOR RESTARTS.  THERE ARE THREE FORMS OF PHASCHNG, KNOWN AS TYPE
000071:                                                                                                  #  A, TYPE B, AND TYPE C.  THEY ARE ALL CALLED AS FOLLOWS, WHERE OCT XXXXX CONTAINS THE PHASE INFORMATION,
000072:                                                                                                  #                TC      PHASCHNG
000073:                                                                                                  #                OCT     XXXXX
000074:                                                                                                  #  TYPE A IS CONCERNED WITH FIXED PHASE CHANGES, THAT IS, PHASE INFORMATION THAT IS STORED PERMANENTLY.  THESE
000075:                                                                                                  #  OPTIONS ARE, WHERE G STANDS FOR A GROUP AND .X FOR THE PHASE,
000076:                                                                                                  #        G.0             INACTIVE, WILL NOT PERMIT A GROUP G RESTART
000077:                                                                                                  #        G.1             WILL CAUSE THE LAST DISPLAY TO BE REACTIVATED, USED MAINLY IN MANNED FLIGHTS
000078:                                                                                                  #        G.EVEN          A DOUBLE TABLE RESTART, CAN CAUSE ANY COMBINATION OF TWO JOBS, TASKS, AND/OR
000079:                                                                                                  #                        LONGCALL TO BE RESTARTED.
000080:                                                                                                  #        G.ODD NOT .1    A SINGLE TABLE RESTART, CAN CAUSE EITHER A JOB, TASK, OR LONGCALL RESTART
000081:
000082:                                                                                                  #  THIS INFORMATION IS PUT INTO THE OCTAL WORD AFTER TC PHASCHNG AS FOLLOWS
000083:                                                                                                  #                  TL0 00P PPP PPP GGG                                     ,
000084:                                                                                                  #  WHERE EACH LETTER OR NUMBER STANDS FOR A BIT.  THE G:S STAND FOR THE GROUP, OCTAL 1-7, THE P:S FOR THE PHASE,
000085:                                                                                                  #  OCTAL 0 - 127.  0:S MUST BE 0.  IF ONE WISHES TO HAVE THE TBASE OF GROUP G TO BE SET AT THIS TIME,
000086:                                                                                                  #  T IS SET TO 1, OTHERWISE IT IS SET TO 0.  SIMIARLY IF ONE WISHES TO SET LONGBASE, THEN L IS SET TO 1, OTHERWISE
000087:                                                                                                  #  IT IS SET TO 0.  SOME EXAMPLES,
000088:                                                                                                  #                TC      PHASCHNG        THIS WILL CAUSE GROUP 3 TO BE SET TO 0,
000089:                                                                                                  #                OCT     00003           MAKING GROUP 3 INACTIVE
000090:
000091:                                                                                                  #                TC      PHASCHNG        IF A RESTART OCCURS THIS WOULD CAUSE
000092:                                                                                                  #                OCT     00012           GROUP 2 TO RESTART THE LAST DISPLAY
000093:
000094:                                                                                                  #                TC      PHASCHNG        THIS SETS THE TBASE OF GROUP 4 AND IN
000095:                                                                                                  #                OCT     40064           CASE OF A RESTART WOULD START UP THE TWO
000096:                                                                                                  #                                        THINGS LOCATED IN THE DOUBLE 4.6 RESTART
000097:                                                                                                  #                                        LOCATION
000098:
000099:                                                                                                  #                TC      PHASCHNG        THIS SETS LONGBASE AND UPON A RESTART
000100:                                                                                                  #                OCT     20135           CAUSES 5.13 TO BE RESTARTED (SINCE
000101:                                                                                                  #                                        LONGBASE WAS SET THIS SINGLE ENTRY
000102:                                                                                                  #                                        SHOULD BE A LONGCALL)
000103:
000104:                                                                                                  #                TC      PHASCHNG        SINCE BOTH TBASE4 AND LONGBASE ARE SET,
000105:                                                                                                  #                OCT     60124           4.12 SHOULD CONTAIN BOTH A TASK AND A
000106:                                                                                                  #                                        LONGCALL TO BE RESTARTED
000107:
000108:                                                                                                  #  TYPE C PHASCHNG CONTAINS THE VARIABLE TYPE OF PHASCHNG INFORMATION.  INSTEAD OF THE INFORMATION BEING IN A
000109:                                                                                                  #  PERMANENT FORM, ONE STORES THE DESIRED RESTART INFORMATION IN A VARIABKE LOCATION.  THE BITS ARE AS FOLLOWS,
000110:                                                                                                  #        TL0 1AD XXX CJW GGG
000111:                                                                                                  #  WHERE EACH LETTER OR NUMBER STANDS FOR A BIT.  THE G:S STAND FOR THE GROUP, OCTAL 1 - 7.  IF THE RESTART IS TO
000112:                                                                                                  #  BE BY WAITLIST, W IS SET TO 1, IF IT IS A JOB, J IS SET TO 1, IF IT IS A LONGCALL, C IS SET TO 1.  ONLY ONE OF
000113:                                                                                                  #  THESE THREE BITS MAY BE SET.  X:S ARE IGNORED  1 MUST BE 1, AND 0 MUST BE 0.  AGAIN T STANDS FOR THE TBASE,
000114:                                                                                                  #  AND L FOR LONGBASE.  THE BITS A AND D ARE CONCERNED WITH THE VARIABLE INFORMATION.  IF D IS SET TO 1, A PRIORITY
000115:                                                                                                  #  OR DELTA TIME WILL BE READ FROM THE NEXT LOCATION AFTER THE OCTAL INFORMATION, IF THIS IS TO BE INDIRECT, THAT
000116:                                                                                                  #  IS, THE NAME OF A LOCATION COMT+INING THE INFORMATION (DELTA TIME ONLY), THEN THIS IS GIVEN AS THE -GENADR OF
000117:                                                                                                  #  THAT LOCATION WHICH CONTAINS THE DELTA TIME.  IF THE OLD PRIORITY OR DELTA TIME IS TO BE USED, THAT WHICH IS
000118:                                                                                                  #  ALREADY IN THE VARIABLE STORAGE, THEN D IS SET TO 0.  NEXT THE A BIT IS USED.  IF IT IS SET TO 0, THE ADDRESS
000119:                                                                                                  #  THAT WOULD BE RESTARTED DURING A RESTART IS THE NEXT LOCATION AFTER THE PHASE INFORMATION, THAT IS, EITHER
000120:                                                                                                  #  (TC PHASCHNG) +2 OR +3, DEPENDING ON WHETHER D HAD BEEN SET OR NOT.  IF A IS SET TO 1, THEN THE ADDRESS THAT
000121:                                                                                                  #  WOULD BE RESTARTED IS THE 2CADR THAT IS READ FROM THE NEXT TWO LOCATIONS.  EXAMPLES,
000122:                                                                                                  #        AD      TC      PHASCHNG        THIS WOULD CAUSE LOCATION AD +3 TO BE
000123:                                                                                                  #        AD+1    OCT     05023           RESTARTED BY GROUP THREE WITH A PRIORITY
000124:                                                                                                  #        AD+2    OCT     23000           OF 23.  NOTE UPON RETURNING IT WOULD
000125:                                                                                                  #        AD+3                            ALSO GO TO AD+3
000126:
000127:                                                                                                  #        AD      TC      PHASCHNG        GROUP  1 WOULD CAUSE CAUSE CALLCALL TO
000128:                                                                                                  #        AD+1    OCT     27441           BE STARTED AS A LONGCALL FROM THE TIME
000129:                                                                                                  #        AD+2    -GENADR DELTIME         STORED IN LONGBASE (LONGBASE WAS SET) BY
000130:                                                                                                  #        AD+3    2CADR   CALLCALL        A DELTATIME STORED IN DELTIME.  THE
000131:                                                                                                  #        AD+4                            BBCON OF THE 2CADR SHOULD CONTAIN THE E
000132:                                                                                                  #        AD+5                            BANK OF DELTIME.  PHASCHNG RETURNS TO
000133:                                                                                                  #                                        LOCATION AD+5
000134:
000135:                                                                                                  #  NOTE THAT IF A VARIABLE PRIORITY IS GIVEN FOR A JOB, THE JOB WILL BE RESTARTED AS A NOVAC IF THE PRIORITY IS
000136:                                                                                                  #  NEGATIVE, AS A FINDVAC IF THE PRIORITY IS POSITIVE.
000137:
000138:                                                                                                  #  TYPE B PHASCHNG IS A COMBINATION OF VARIABLE AND FIXED PHASE CHANGES.  IT WILL START UP A JOB AS INDICATED
000139:                                                                                                  #  BELOW AND ALSO START UP ONE FIXED RESTART, THAT IS EITHER AN G.1 OR A G.ODD OR THE FIRST ENTRY OF G.EVEN
000140:                                                                                                  #  DOUBLE ENTRY.  THE BIT INFORMATION IS AS FOLLOWS,
000141:                                                                                                  #        TL1 DAP PPP PPP GGG
000142:                                                                                                  #  WHERE EACH LETTER OR NUMBER STANDS FOR A BIT.  THE G:S STAND FOR THE GROUP, OCTAL 1 - 7. THE P:S FOR THE FIXED
000143:                                                                                                  #  PHASE INFORMATION, OCTAL 0 - 127.  1 MUST BE 1.  AND AGAIN T STANDS FOR THE TBASE AND L FOR LONGBASE.  D THIS
000144:                                                                                                  #  TIME STANDS ONLY FOR PRIORITY SINCE THIS WILL BE CONSIDERED A JOB, AND IT MUST BE GIVEN DIRECTLY IF GIVEN.
000145:                                                                                                  #  AGAIN A STANDS FOR THE ADDRESS OF THE LOCATION TO BE RESTARTED, 1 IF THE 2CADR IS GIVEN, OR 0 IF IT IS TO BE
000146:                                                                                                  #  THE NEXT LOCATION.  (THE RETURN LOCATION OF PHASCHNG) EXAMPLES,
000147:                                                                                                  #        AD      TC      PHASCHNG        TBASE IS SET AND A RESTART CAUSE GROUP 3
000148:                                                                                                  #        AD+1    OCT     56043           TO START THE JOB AJOBAJOB WITH PRIORITY
000149:                                                                                                  #        AD+2    OCT     31000           31 AND THE FIRST ENTRY OF 3.4SPOT (WE CAN
000150:                                                                                                  #        AD+3    2CADR   AJOBAJOB        ASSUME IT IS A TASK SINCE WE SET TBASE3)
000151:                                                                                                  #        AD+4                            UPON RETURN FROM PHASCHNG CONTROL WOULD
000152:                                                                                                  #        AD+5                            GO TO AD+5
000153:
000154:                                                                                                  #        AD      TC      PHASCHNG        UPON A RESTART THE LAST DISPLAY WOULD BE
000155:                                                                                                  #        AD+1    OCT     10015           RESTARTED AND A JOB WITH THE PREVIOUSLY
000156:                                                                                                  #        AD+2                            STORED PRIORITY WOULD BE BEGUN AT AD+2
000157:                                                                                                  #                                        BY MEANS OF GROUP 5
000158:                                                                                                  #  THE NOVAC-FINDVAC CHOICE FOR JOBS HOLDS HERE ALSO - NEGATIVE PRIORITY CAUSES A NOVAC CALL, POSITIVE A FINDVAC.
000159:
000160:                                                                                                  #  SUMMARY OF BITS
000161:                                                                                                  #        TYPE A          TL0 00P PPP PPP GGG
000162:                                                                                                  #        TYPE B          TL1 DAP PPP PPP GGG
000163:                                                                                                  #        TYPE C          TL0 1AD XXX CJW GGG
000164:
000165:                                                                                                  #  2PHSCHNG IS USED WHEN ONE WISHES TO START UP A GROUP OR CHANGE A GROUP WHILE UNDER THE CONTROL OF A DIFFERENT
000166:                                                                                                  #  GROUP.  FOR EXAMPLE, CHANGE THE PHASE OF GROUP 3 WHILE THE PORTION OF THE PROGRAM IS UNDER GROUP 5.  ALL 2PHSCHNG
000167:                                                                                                  #  CALLS ARE MADE IN THE FOLLOWING MANNER,
000168:                                                                                                  #                TC      2PHSCHNG
000169:                                                                                                  #                OCT     XXXXX
000170:                                                                                                  #                OCT     YYYYY
000171:                                                                                                  #  WHERE OCT XXXXX MUST BE OF TYPE A AND OCT YYYYY MAY BE OF EITHER TYPE A OR TYPE B OR TYPE C.  THERE IS ONE
000172:                                                                                                  #  DIFFERENCE --- NOTE- IF LONGBASE IS TO BE SET THIS INFORMATION IS GIVEN IN THE OCT YYYYY INFORMATION, IT WILL
000173:                                                                                                  #  BE DISREGARDED IF GIVEN WITH THE OCT XXXXX INFORMATION.  A COUPLE OF EXAMPLES MAY HELP,
000174:                                                                                                  #        AD      TC      2PHSCHNG        SET TBASE3 AND IF A RESTART OCCURS START
000175:                                                                                                  #        AD+1    OCT     40083           THE TWO ENTRIES IN 3.8 TABLE LOCATION
000176:                                                                                                  #        AD+2    OCT     05025           THIS IS OF TYPE C, SET THE JOB TO BE
000177:                                                                                                  #        AD+3    OCT     18000           TO BE LOCATION AD+4, WITH A PRIORITY 18,
000178:                                                                                                  #        AD+4                            FOR GROUP 5 PHASE INFORMATION
000179:
000180:    5406                                           COUNT    02/PHASE
000181:
000182:    5406           00004        2PHSCHNG           INHINT                                         #  THE ENTRY FOR A DOUBLE PHASE CHANGE
000183:    5407           50002                           NDX      Q
000184:    5410           30000                           CA       0
000185:    5411           24002                           INCR     Q
000186:    5412           54072                           TS       TEMPP2
000187:
000188:    5413           75037                           MASK     OCT7
000189:    5414           60000                           DOUBLE
000190:    5415           54071                           TS       TEMPG2
000191:
000192:    5416           30072                           CA       TEMPP2
000193:    5417           75106                           MASK     OCT17770                              #  NEED ONLY 1770, BUT WHY GET A NEW CONST.
000194:    5420           00006                           EXTEND
000195:    5421           75020                           MP       BIT12
000196:    5422           56072                           XCH      TEMPP2
000197:
000198:    5423           75015                           MASK     BIT15
000199:    5424           54066                           TS       TEMPSW2                               #  INDICATES WHETHER TO SET TBASE OR NOT
000200:
000201:    5425           15431                           TCF      PHASCHNG   +3
000202:
000203:    5426           00004        PHASCHNG           INHINT
000204:    5427           35033                           CA       ONE                                   #  INDICATESWE CAME FROM A PHASCHNG ENTRY
000205:    5430           54066                           TS       TEMPSW2
000206:
000207:    5431           50002                           NDX      Q
000208:    5432           30000                           CA       0
000209:    5433           24002                           INCR     Q
000210:    5434           54065                           TS       TEMPSW
000211:    5435           00006                           EXTEND
000212:    5436           35441                           DCA      ADRPCHN2                              #  OFF TO SWITCHED BANK
000213:    5437           52006                           DTCB
000214:
000215:    5440  E3,1400                                  EBANK=   LST1
000216:    5440           02451 20063  ADRPCHN2           2CADR    PHSCHNG2
000217:
000218:    5442           22073        ONEORTWO           LXCH     TEMPBBCN
000219:    5443           22006                           LXCH     BBANK
000220:    5444           22073                           LXCH     TEMPBBCN
000221:
000222:    5445           75102                           MASK     OCT14000                              #  SEE WHAT KIND OF PHASE CHANGE IT IS
000223:    5446           10000                           CCS      A
000224:    5447           15510                           TCF      CHECKB                                #  IT IS OF TYPE :B:
000225:
000226:    5450           30062                           CA       TEMPP
000227:    5451           75025                           MASK     BIT7
000228:    5452           10000                           CCS      A                                     #  SHALL WE USE THE OLD PRIORITY
000229:    5453           15475                           TCF      GETPRIO                               #  NO GET A NEW PRIORITY (OR DELTA T)
000230:
000231:    5454           50061        OLDPRIO            NDX      TEMPG                                 #  USE THE OLD PRIORITY (OR DELTA T)
000232:    5455           31052                           CA       PHSPRDT1   -2
000233:    5456           54070                           TS       TEMPPR
000234:
000235:    5457           30062        CON1               CA       TEMPP                                 #  SEE IF A 2CADR IS GIVEN
000236:    5460           75024                           MASK     BIT8
000237:    5461           10000                           CCS      A
000238:    5462           15501                           TCF      GETNEWNM
000239:
000240:    5463           30002                           CA       Q
000241:    5464           54063                           TS       TEMPNM
000242:    5465           30006                           CA       BB
000243:    5466           00006                           EXTEND                                         #  PICK UP USERS SUPERBANK
000244:    5467           04007                           ROR      SUPERBNK
000245:    5470           54064                           TS       TEMPBB
000246:
000247:    5471           35474        TOCON2             CA       CON2ADR                               #  BACK TO SWITCHED BANK
000248:    5472           22073                           LXCH     TEMPBBCN
000249:    5473           52006                           DTCB
000250:
000251:    5474           02537        CON2ADR            GENADR   CON2
000252:
000253:    5475           50002        GETPRIO            NDX      Q                                     #  DON:T CARE IF DIRECT OR INDIRECT
000254:    5476           30000                           CA       0                                     #  LEAVE THAT DECISION TO RESTARTS
000255:    5477           24002                           INCR     Q                                     #  OBTAIN RETURN ADDRESS
000256:    5500           15456                           TCF      CON1       -1
000257:
000258:    5501           00006        GETNEWNM           EXTEND
000259:    5502           50002                           INDEX    Q
000260:    5503           30001                           DCA      0
000261:    5504           52064                           DXCH     TEMPNM
000262:    5505           35032                           CA       TWO
000263:    5506           26002                           ADS      Q                                     #  OBTAIN RETURN ADDRESS
000264:
000265:    5507           15471                           TCF      TOCON2
000266:
000267:    5510     5102               OCT14000           EQUALS   PRIO14
000268:    5510     0061               TEMPG              EQUALS   ITEMP1
000269:    5510     0062               TEMPP              EQUALS   ITEMP2
000270:    5510     0063               TEMPNM             EQUALS   ITEMP3
000271:    5510     0064               TEMPBB             EQUALS   ITEMP4
000272:    5510     0065               TEMPSW             EQUALS   ITEMP5
000273:    5510     0066               TEMPSW2            EQUALS   ITEMP6
000274:    5510     0070               TEMPPR             EQUALS   RUPTREG1
000275:    5510     0071               TEMPG2             EQUALS   RUPTREG2
000276:    5510     0072               TEMPP2             EQUALS   RUPTREG3
000277:
000278:    5510     0073               TEMPBBCN           EQUALS   RUPTREG4
000279:    5510  0000006               BB                 EQUALS   BBANK
000280:
000281: 14,3765                                           BANK     14
000282: 10,2000                                           SETLOC   PHASETAB
000283: 10,2000                                           BANK
000284:
000285: 10,2451  E3,1436                                  EBANK=   PHSNAME1
000286: 10,2451                                           COUNT    10/PHASE
000287:
000288: 10,2451           22073        PHSCHNG2           LXCH     TEMPBBCN
000289: 10,2452           30065                           CA       TEMPSW
000290: 10,2453           75037                           MASK     OCT7
000291: 10,2454           60000                           DOUBLE
000292: 10,2455           54061                           TS       TEMPG
000293:
000294: 10,2456           30065                           CA       TEMPSW
000295: 10,2457           75106                           MASK     OCT17770
000296: 10,2460           00006                           EXTEND
000297: 10,2461           75020                           MP       BIT12
000298: 10,2462           54062                           TS       TEMPP
000299:
000300: 10,2463           30065                           CA       TEMPSW
000301: 10,2464           74105                           MASK     OCT60000
000302: 10,2465           56065                           XCH      TEMPSW
000303: 10,2466           75102                           MASK     OCT14000
000304: 10,2467           10000                           CCS      A
000305: 10,2470           15442                           TCF      ONEORTWO
000306:
000307: 10,2471           30062                           CA       TEMPP                                 #  START STORING THE PHASE INFORMATION
000308: 10,2472           50061                           NDX      TEMPG
000309: 10,2473           54751                           TS       PHASE1     -2
000310:
000311: 10,2474           10066        BELOW1             CCS      TEMPSW2                               #  IS IT A PHASCHNG OR A 2PHSCHNG
000312: 10,2475           12511                           TCF      BELOW2                                #  IT:S A PHASCHNG
000313:
000314: 10,2476           12477                           TCF      +1                                    #  IT:S A 2PHSCHNG
000315: 10,2477           40072                           CS       TEMPP2
000316: 10,2500           22072                           LXCH     TEMPP2
000317: 10,2501           50071                           NDX      TEMPG2
000318: 10,2502           52751                           DXCH     -PHASE1    -2
000319:
000320: 10,2503           10066                           CCS      TEMPSW2
000321: 10,2504           12505                           NOOP                                           #  CAN:T GET HERE
000322: 10,2505           12511                           TCF      BELOW2
000323:
000324: 10,2506           40025                           CS       TIME1
000325: 10,2507           50071                           NDX      TEMPG2
000326: 10,2510           55051                           TS       TBASE1     -2
000327:
000328: 10,2511           10065        BELOW2             CCS      TEMPSW                                #  SEE IF WE SHOULD SET TBASE OR LONGBASE
000329: 10,2512           12525                           TCF      BELOW3                                #  SET LONGBASE ONLY
000330: 10,2513           12530                           TCF      BELOW4                                #  SET NEITHER
000331:
000332: 10,2514           40025                           CS       TIME1                                 #  SET TBASE TO BEGIN WITH
000333: 10,2515           50061                           NDX      TEMPG
000334: 10,2516           55051                           TS       TBASE1     -2
000335:
000336: 10,2517           30065                           CA       TEMPSW                                #  SHALL WE NOW SET LONGBASE
000337: 10,2520           62523                           AD       BIT14COM
000338: 10,2521           10000                           CCS      A
000339: 10,2522           12523                           NOOP                                           #  ***** CANT GET HERE *****
000340: 10,2523           17777        BIT14COM           OCT      17777                                 #  ***** CANT GET HERE *****
000341: 10,2524           12530                           TCF      BELOW4                                #  NO WE NEED ONLY SET TBASE
000342:
000343: 10,2525           00006        BELOW3             EXTEND                                         #  SET LONGBASE
000344: 10,2526           30025                           DCA      TIME2
000345: 10,2527           53136                           DXCH     LONGBASE
000346:
000347: 10,2530           40062        BELOW4             CS       TEMPP                                 #  AND STORE THE FINAL PART OF THE PHASE
000348: 10,2531           50061                           NDX      TEMPG
000349: 10,2532           54750                           TS       -PHASE1    -2
000350:
000351: 10,2533           30002                           CA       Q
000352: 10,2534           22073                           LXCH     TEMPBBCN
000353: 10,2535           00003                           RELINT
000354: 10,2536           52006                           DTCB
000355: 10,2537           22073        CON2               LXCH     TEMPBBCN
000356: 10,2540           30062                           CA       TEMPP
000357: 10,2541           50061                           NDX      TEMPG
000358: 10,2542           54751                           TS       PHASE1     -2
000359:
000360: 10,2543           30070                           CA       TEMPPR
000361: 10,2544           50061                           NDX      TEMPG
000362: 10,2545           55052                           TS       PHSPRDT1   -2
000363:
000364: 10,2546           00006                           EXTEND
000365: 10,2547           30064                           DCA      TEMPNM
000366: 10,2550           50061                           NDX      TEMPG
000367: 10,2551           53435                           DXCH     PHSNAME1   -2
000368:
000369: 10,2552           12474                           TCF      BELOW1
000370:
000371:    5510                                           BLOCK    02
000372:    4000                                           SETLOC   FFTAG1
000373:    4000                                           BANK
000374:
000375:    5510                                           COUNT    02/PHASE
000376:
000377:    5510           75020        CHECKB             MASK     BIT12                                 #  SINCE THIS IS OF TYPE B, THIS BIT SHOULD
000378:    5511           10000                           CCS      A                                     #  BE HERE IF WE ARE TO GET A NEW PRIORITY
000379:    5512           15475                           TCF      GETPRIO                               #  IT IS, SO GET NEW PRIORITY
000380:
000381:    5513           15454                           TCF      OLDPRIO                               #  IT ISN:T, USE THE OLD PRIORITY
000382:
000383:
000384:

End of include-file PHASE_TABLE_MAINTENANCE.agc.  Parent file is MAIN.agc


