
Source Code


000002:                                                                                                  ## Copyright:   Public domain.
000003:                                                                                                  ## Filename:    R30.agc
000004:                                                                                                  ## Purpose:     A section of Manche72 revision 3.
000005:                                                                                                  ##              It is part of the reconstructed source code for the final, flown
000006:                                                                                                  ##              release of the software for the Command Module's (CM) Apollo
000007:                                                                                                  ##              Guidance Computer (AGC) for Apollo 13. No original listings
000008:                                                                                                  ##              of this program are available; instead, this file was recreated
000009:                                                                                                  ##              from a reconstructed copy of Comanche 072. It has been adapted
000010:                                                                                                  ##              such that the resulting bugger words exactly match those
000011:                                                                                                  ##              specified for Manche72 revision 3 in NASA drawing 2021153G,
000012:                                                                                                  ##              which gives relatively high confidence that the reconstruction
000013:                                                                                                  ##              is correct.
000014:                                                                                                  ## Assembler:   yaYUL
000015:                                                                                                  ## Contact:     Ron Burkey <info@sandroid.org>.
000016:                                                                                                  ## Website:     www.ibiblio.org/apollo/index.html
000017:                                                                                                  ## Mod history: 2024-05-19 MAS  Created from Comanche 072.
000018:
000019:                                                                                                  #  SUBROUTINE NAME:  V82CALL
000020:                                                                                                  #  MOD NO: 0                                                             DATE: 16 FEB 67
000021:                                                                                                  #  MOD BY: RR BAIRNSFATHER                                               LOG SECTION:  R30
000022:                                                                                                  #  MOD NO: 1     MOD BY:  RR BAIRNSFATHER        DATE: 11 APR 67         SR30.1 CHANGED TO ALLOW MONITOR OPERN
000023:                                                                                                  #  MOD NO: 2     MOD  BY  ALONSO                 DATE: 11 DEC 67         VB82 PROGRAM REWRITTEN
000024:                                                                                                  #  MOD NO: 3     MOD  BY  ALONSO                 DATE: 26 MAR 68         PROG MOD TO HANDLE DIF EARTH/MOON SCALE
000025:
000026:                                                                                                  #  NEW FUNCTIONAL DESCRIPTION:   CALLED BY VERB 82 ENTER.  PRIORITY 10
000027:                                                                                                  #  USED THROUGHOUT.              CALCULATE AND DISPLAY ORBITAL PARAMETERS
000028:
000029:                                                                                                  #  1.    IF AVERAGE G IS OFF:
000030:                                                                                                  #                FLASH DISPLAY V04N06.  R2 INDICATES WHICH SHIP'S STATE VECTOR IS
000031:                                                                                                  #                        TO BE UPDATED.  INITIAL CHOICE IS THIS SHIP (R2=1).  ASTRONAUT
000032:                                                                                                  #                        CAN CHANGE TO OTHER SHIP BY V22EXE, WHERE X NOT EQ 1.
000033:                                                                                                  #                SELECTED STATE VECTOR UPDATED BY THISPREC (OTHPREC).
000034:                                                                                                  #                CALLS SR30.1 (WHICH CALLS TFFCONMU + TFFRP/RA) TO CALCULATE
000035:                                                                                                  #                        RPER (PERIGEE RADIUS), RAPO (APOGEE RADIUS), HPER (PERIGEE
000036:                                                                                                  #                        HEIGHT ABOVE LAUNCH PAD OR LUNAR LANDING SITE), HAPO (APOGEE
000037:                                                                                                  #                        HEIGHT AS ABOVE), TPER (TIME TO PERIGEE), TFF (TIME TO
000038:                                                                                                  #                        INTERSECT 300 KFT ABOVE PAD OR 35KFT ABOVE LANDING SITE).
000039:                                                                                                  #                FLASH MONITOR V16N44 (HAPO, HPER, TFF).  TFF IS -59M59S IF IT WAS
000040:                                                                                                  #                        NOT COMPUTABLE, OTHERWISE IT INCREMENTS ONCE PER SECOND.
000041:                                                                                                  #                        ASTRONAUT HAS OPTION TO MONITOR TPER BY KEYING IN N 32 E.
000042:                                                                                                  #                        DISPLAY IS IN HMS, IS NEGATIVE (AS WAS TFF), AND INCREMENTS
000043:                                                                                                  #                        ONCE PER SECOND ONLY IF TFF DISPLAY WAS -59M59S.
000044:                                                                                                  #        2.      IF AVERAGE G IS ON:
000045:                                                                                                  #                        CALLS SR30.1 APPROX EVERY TWO SECS.  STATE VECTOR IS ALWAYS
000046:                                                                                                  #                                FOR THIS VEHICLE.  V82 DOES NOT DISTURB STATE VECTOR.  RESULTS
000047:                                                                                                  #                                OF SR30.1 ARE RAPO, RPER, HAPO, HPER, TPER, TFF.
000048:                                                                                                  #                        FLASH MONITOR V16N44 (HAPO, HPER, TFF).
000049:                                                                                                  #                        IF MODE IS P11, THEN CALL DELRSPL SO ASTRONAUT CAN MONITOR
000050:                                                                                                  #                                RESULTS BY N50E.  SPLASH COMPUTATION DONE ONCE PER TWO SECS.
000051:                                                                                                  #        ADDENDUM:  HAPO AND HPER SHOULD BE CHANGED TO READ HAPOX AND HPERX IN THE
000052:                                                                                                  #                ABOVE REMARKS.
000053:
000054:                                                                                                  #  CALLING SEQUENCE: VERB 82 ENTER.
000055:
000056:                                                                                                  #  SUBROUTINES CALLED:   SR30.1, GOXDSPF
000057:                                                                                                  #                        MAYBE - THISPREC, OTHPREC, LOADTIME, DELRSPL
000058:
000059:                                                                                                  #  NORMAL EXIT MODES:  TC ENDEXT
000060:
000061:                                                                                                  #  ALARMS:  NONE
000062:
000063:                                                                                                  #  OUTPUT:       HAPOX   (-29) M
000064:                                                                                                  #                HPERX   (-29) M
000065:                                                                                                  #                RAPO    (-29) M EARTH
000066:                                                                                                  #                        (-27) M MOON
000067:                                                                                                  #                RPER    (-29) M EARTH
000068:                                                                                                  #                        (-27) M MOON
000069:                                                                                                  #                TFF     (-28) CS        CONTAINS NEGATIVE QUANTITY
000070:                                                                                                  #                -TPER   (-28) CS        CONTAINS NEGATIVE QUANTITY
000071:                                                                                                  #                RSP-RREC(-29) M         IF DELRSPL CALLED
000072:
000073:                                                                                                  #  ERASABLE INITIALIZATION REQUIRED:  STATE VECTOR.
000074:
000075:                                                                                                  #  DEBRIS:       QPRET, RONE, VONE, TFF/RTMU, HPERMIN, RPADTEM, V82EMFLG.
000076:                                                                                                  #                MAYBE:  TSTART82, V82FLAGS, TDEC1.
000077:
000078: 13,2227  E4,1751                                  EBANK=   HAPOX
000079: 31,2332                                           BANK     31
000080: 23,2000                                           SETLOC   R30LOC
000081: 23,2000                                           BANK
000082: 23,2332                                           COUNT*   $$/R30
000083:
000084: 23,2332           06006        V82CALL            TC       INTPRET
000085: 23,2333           52014                           BON      GOTO
000086: 23,2334           00716                                    AVEGFLAG
000087: 23,2335           40201                                    V82GON                                #  IF AVERAGE G ON
000088: 23,2336           46337                                    V82GOFF                               #  IF AVERAGE G OFF
000089:
000090: 23,2337           77776        V82GOFF            EXIT                                           #  ALLOW ASTRONAUT TO SELECT VEHICLE
000091: 23,2340           35032                           CAF      TWO                                   #  DESIRED FOR ORBITAL PARAMETERS
000092: 23,2341           55051                           TS       OPTIONX
000093: 23,2342           35033                           CAF      ONE
000094: 23,2343           55052                           TS       OPTIONX    +1
000095: 23,2344           32410                           CAF      OPTIONVN                              #  V 04 N 06
000096: 23,2345           04676                           TC       BANKCALL
000097: 23,2346           20561                           CADR     GOXDSPF
000098: 23,2347           05550                           TC       ENDEXT                                #  TERMINATE
000099: 23,2350           02352                           TC       +2                                    #  PROCEED
000100: 23,2351           02344                           TC       -5                                    #  DATA IN.  OPTIONX +1 = 1 FOR THIS VEHIC.
000101:                                                                                                  #                 UNEQ 1 FOR OTHER VEHICLE.
000102: 23,2352           32412                           CAF      TFFBANK
000103: 23,2353           54003                           TS       EBANK
000104: 23,2354           31052                           CA       OPTIONX    +1
000105: 23,2355           54111                           TS       OPTION82
000106:
000107: 23,2356           35030                           CAF      BIT4                                  #  80 MS
000108: 23,2357           05261                           TC       WAITLIST
000109: 23,2360  E4,1743                                  EBANK=   TFF
000110: 23,2360           02551 46064                     2CADR    TICKTEST
000111:
000112: 23,2362           00003                           RELINT
000113: 23,2363           35035        V82GOFLP           CAF      ZERO                                  #  MAJOR RECYCLE LOOP ENTRY
000114: 23,2364           55742                           TS       V82FLAGS                              #  ZERO FLAGS FOR TICKTEST. INHIBITS
000115:                                                                                                  #  DECREMENTING OF TFF AND -TPER.
000116: 23,2365           35077                           CAF      PRIO7
000117: 23,2366           05163                           TC       FINDVAC                               #  V82GOFF1 WILL EXECUTE STATE VECTOR
000118: 23,2367  E4,1743                                  EBANK=   TFF                                   #  UPDATE AND ORBIT CALCULATIONS FOR
000119: 23,2367           02413 46064                     2CADR    V82GOFF1                              #  SELECTED VEHICLE ABOUT PROPER BODY.
000120:
000121: 23,2371           00003                           RELINT
000122: 23,2372           36214        V82STALL           CAF      THREE                                 #  STALL IN THIS LOOP AND WITHOLD V 16 N 44
000123: 23,2373           71742                           MASK     V82FLAGS                              #  UNTIL STATE VECTOR UPDATE SETS ONE OF
000124: 23,2374           10000                           CCS      A                                     #  OUR FLAG BITS.
000125: 23,2375           02402                           TC       FLAGGON                               #  EXIT FROM STALL LOOP.
000126: 23,2376           35055                           CAF      1SEC
000127: 23,2377           04676                           TC       BANKCALL
000128: 23,2400           01732                           CADR     DELAYJOB
000129: 23,2401           02372                           TC       V82STALL
000130:
000131: 23,2402           32411        FLAGGON            CAF      V16N44                                #  MONITOR HAPO,HPER,TFF.
000132: 23,2403           04676                           TC       BANKCALL
000133: 23,2404           20561                           CADR     GOXDSPF
000134: 23,2405           05641                           TC       B5OFF                                 #  TERM THIS TELLS TICKTEST TO KILL ITSELF
000135: 23,2406           05641                           TC       B5OFF                                 #  PROCEED  DITTO
000136: 23,2407           02363                           TC       V82GOFLP                              #  RECYCLE  RECOMPUTE STATE VECT + DISPLAY
000137:
000138: 23,2410           01014        OPTIONVN           VN       0412
000139: 23,2411           04054        V16N44             VN       1644
000140: 23,2412           02343        TFFBANK            ECADR    TFF
000141:
000142: 23,2413           22007        V82GOFF1           ZL
000143: 23,2414           35035                           CAF      ZERO
000144: 23,2415           53052                           DXCH     DSPTEMX
000145: 23,2416           32472                           CAF      V06N16X
000146: 23,2417           04676                           TC       BANKCALL
000147: 23,2420           20561                           CADR     GOXDSPF
000148: 23,2421           05550                           TC       ENDEXT
000149: 23,2422           02424                           TC       +2
000150: 23,2423           02416                           TC       -5
000151: 23,2424           06006        ISTIMEOK           TC       INTPRET
000152: 23,2425           53145                           DLOAD    BZE
000153: 23,2426           01052                                    DSPTEMX
000154: 23,2427           46467                                    GETNOW
000155: 23,2430           00041        STRTDEC1           STORE    TDEC1                                 #  TIME FOR STATE VECTOR UPDATE.
000156: 23,2431           02325                           STORE    TSTART82                              #  TIME FOR INTERNAL USE.
000157: 23,2432           77776                           EXIT
000158: 23,2433           40111                           CS       OPTION82                              #  1 FOR THIS VEHICLE, NOT 1 FOR OTHER
000159: 23,2434           65033                           AD       ONE
000160: 23,2435           00006                           EXTEND
000161: 23,2436           12462                           BZF      THISSHIP
000162: 23,2437           06006        OTHSHIP            TC       INTPRET
000163: 23,2440           77624                           CALL                                           #  CALL STATE VECTOR UPDATE FOR OTHER SHIP.
000164: 23,2441           27114                                    OTHPREC
000165: 23,2442           77775        BOTHSHIP           VLOAD                                          #  MOVE RESULTS INTO TFFCONIC STORAGE AREAS
000166: 23,2443           00001                                    RATT                                  #  TO BE CALLED BY SR30.1.
000167: 23,2444           26327                           STOVL    RONE                                  #  RATT AT (-29)M FOR EARTH OR MOON
000168: 23,2445           00007                                    VATT
000169: 23,2446           02335                           STORE    VONE                                  #  VATT AT (-7)M/CS FOR EARTH OR MOON
000170: 23,2447           77743                           DLOAD*
000171: 23,2450           71301                                    1/RTMUE,2                             #  X2 IS 0 FOR EARTH CENTERED STATE VEC
000172: 23,2451           00037                           STORE    TFF/RTMU                              #  X2 IS 2 FOR MOON
000173: 23,2452           77743                           DLOAD*                                         #  AS LEFT BY THISPREC OR OTHPREC.
000174: 23,2453           71275                                    MINPERE,2
000175: 23,2454           02321                           STORE    HPERMIN                               #  TFFRTMU, HPERMIN AND RPADTEM ARE ALL
000176: 23,2455           46135                           SLOAD    BHIZ                                  #  EARTH/MOON PARAMETERS AS SET HERE.
000177: 23,2456           00050                                    X2
000178: 23,2457           46503                                    EARTHPAD
000179: 23,2460           77650                           GOTO
000180: 23,2461           46507                                    MOONPAD
000181: 23,2462           06006        THISSHIP           TC       INTPRET
000182: 23,2463           77624                           CALL                                           #  CALL STATE VECTOR UPDATE FOR THIS SHIP.
000183: 23,2464           27100                                    THISPREC
000184: 23,2465           77650                           GOTO
000185: 23,2466           46442                                    BOTHSHIP
000186: 23,2467           52034        GETNOW             RTB      GOTO
000187: 23,2470           45510                                    LOADTIME
000188: 23,2471           46430                                    STRTDEC1
000189: 23,2472           01420        V06N16X            VN       0616
000190:                                                                                                  #  THE FOLLOWING CONSTANTS ARE PAIRWISE INDEXED.  DO NOT SEPARATE PAIRS.
000191:
000192: 23,2473           27533 07571  1/RTMUM            2DEC*    .45162595  E-4        B14*
000193: 23,2475           25004 06702  1/RTMUE            2DEC*    .50087529  E-5        B17*
000194:
000195: 23,2477           00001 11530  MINPERM            2DEC     10668      B-27                       #  35 KFT MIN PERIGEE HEIGHT FOR MOON(-27)M
000196: 23,2501           00002 31230  MINPERE            2DEC     91440      B-29                       #  300 KFT (-29)M FOR EARTH
000197:
000198: 23,2503           43145        EARTHPAD           DLOAD    CLRGO                                 #  PAD 37-B RADIUS.  SCALED AT (-29)M.
000199: 23,2504           05152                                    RPAD
000200: 23,2505           04622                                    V82EMFLG                              #  INDICATE EARTH SCALING FOR SR30.1
000201: 23,2506           46513                                    BOTHPAD
000202:
000203: 23,2507           51575        MOONPAD            VLOAD    ABVAL                                 #  COMPUTE MOON PAD RADIUS FROM RLS VECTOR.
000204: 23,2510           02026                                    RLS                                   #  SCALED AT (-27)M.
000205: 23,2511           77614                           SET
000206: 23,2512           04462                                    V82EMFLG                              #  INDICATE MOON SCALING FOR SR30.1
000207: 23,2513           36323        BOTHPAD            STCALL   RPADTEM
000208: 23,2514           46671                                    SR30.1                                #  CALCULATE ORBITAL PARAMETERS
000209: 23,2515           77776                           EXIT
000210: 23,2516           31011                           CA       MODREG                                #  ARE WE IN POO
000211: 23,2517           00006                           EXTEND
000212: 23,2520           12647                           BZF      CANDEL                                #  YES, DO DELRSPL
000213: 23,2521           06006        SPLRET1            TC       INTPRET
000214: 23,2522           45234                           RTB      DSU
000215: 23,2523           45510                                    LOADTIME
000216: 23,2524           02325                                    TSTART82                              #  PRESENT TIME - TIME V82GOFF1 BEGAN
000217: 23,2525           02325                           STORE    TSTART82                              #                 SAVE IT
000218: 23,2526           53145                           DLOAD    BZE                                   #  SR30.1 SETS -TPER=0 IF HPER L/
000219: 23,2527           02346                                    -TPER                                 #  HPERMIN (300 OR 35) KFT.
000220: 23,2530           46541                                    TICKTFF                               #  (-TPER = 0)
000221: 23,2531           43345        TICKTPER           DLOAD    DAD                                   #  (-TPER NON ZERO) TFF WAS NOT COMPUTED,
000222: 23,2532           02346                                    -TPER                                 #  BUT WAS SET TO 59M59S.  DONT TICK TFF, DO
000223: 23,2533           02325                                    TSTART82                              #  TICK -TPER.  DISPLAY BOTH.
000224: 23,2534           02346                           STORE    -TPER                                 #  -TPER CORRECTED FOR TIME SINCE V82GOFF1
000225: 23,2535           77776                           EXIT                                           #  BEGAN.
000226:
000227: 23,2536           35033                           CAF      BIT1
000228: 23,2537           55742                           TS       V82FLAGS                              #  INFORMS TICKTEST TO INCREMENT ONLY -TPER
000229: 23,2540           05233                           TC       ENDOFJOB
000230:
000231: 23,2541           43345        TICKTFF            DLOAD    DAD                                   #  (-TPER=0) TFF WAS COMPUTED.  TICK TFF.
000232: 23,2542           02344                                    TFF                                   #  DO NOT TICK -TPER.  DISPLAY TFF, BUT NOT
000233: 23,2543           02325                                    TSTART82                              #  -TPER.
000234: 23,2544           02344                           STORE    TFF                                   #  TFF CORRECTED FOR TIME SINCE V82GOFF1
000235: 23,2545           77776                           EXIT                                           #  BEGAN.
000236: 23,2546           35032                           CAF      BIT2
000237: 23,2547           55742                           TS       V82FLAGS                              #  INFORMS TICKTEST TO INCREMENT ONLY TFF.
000238: 23,2550           05233                           TC       ENDOFJOB
000239:
000240: 23,2551           35027        TICKTEST           CAF      BIT5                                  #  THIS WAITLIST PROGRAM PERPETUATES ITSELF
000241: 23,2552           71044                           MASK     EXTVBACT                              #  ONCE A SEC UNTIL BIT 5 OF EXTVBACT =0.
000242: 23,2553           10000                           CCS      A
000243: 23,2554           02562                           TC       DOTICK
000244: 23,2555           37662                           CAF      PRIO25
000245: 23,2556           05150                           TC       NOVAC                                 #  TERMINATE V 82.  CANT CALL ENDEXT IN RUPT.
000246: 23,2557     1044                                  EBANK=   EXTVBACT
000247: 23,2557           05550 04062                     2CADR    ENDEXT
000248:
000249: 23,2561           05340                           TC       TASKOVER
000250: 23,2562           35055        DOTICK             CAF      1SEC                                  #  RE-REQUEST TICKTEST.
000251: 23,2563           05261                           TC       WAITLIST
000252: 23,2564  E4,1743                                  EBANK=   TFF
000253: 23,2564           02551 46064                     2CADR    TICKTEST
000254:
000255: 23,2566           36214                           CAF      THREE
000256: 23,2567           71742                           MASK     V82FLAGS
000257: 23,2570           50000                           INDEX    A
000258: 23,2571           02572                           TC       +1
000259: 23,2572           05340                           TC       TASKOVER                              #  IF NO FLAGBITS SET DONT CHANGE TFF OR
000260:                                                                                                  #  -TPER, BUT CONTINUE LOOP.
000261: 23,2573           02601                           TC       TPERTICK                              #  ONLY BIT 1 SET.  INCR -TPER BY 1 SEC.
000262: 23,2574           35055        TFFTICK            CAF      1SEC                                  #  ONLY BIT 2 SET.  INCR TFF BY 1 SEC.
000263: 23,2575           54001                           TS       L
000264: 23,2576           35035                           CAF      ZERO
000265: 23,2577           21744                           DAS      TFF
000266: 23,2600           05340                           TC       TASKOVER
000267: 23,2601           35055        TPERTICK           CAF      1SEC
000268: 23,2602           54001                           TS       L
000269: 23,2603           35035                           CAF      ZERO
000270: 23,2604           21746                           DAS      -TPER
000271: 23,2605           05340                           TC       TASKOVER
000272:
000273: 20,2000                                           SETLOC   R30LOC1
000274: 20,2000                                           BANK
000275: 20,2201                                           COUNT*   $$/R30
000276: 20,2201           77776        V82GON             EXIT                                           #  AVERAGE G ON.  USE CURRENT STATE VECTOR
000277:                                                                                                  #  FOR ORBITAL PARAMETER CALCULATIONS.
000278: 20,2202           35077                           CAF      PRIO7                                 #  LESS THAN LAMBERT
000279: 20,2203           05163                           TC       FINDVAC                               #  V82GON1 WILL PERFORM ORBIT CALCULATIONS
000280: 20,2204  E4,1743                                  EBANK=   TFF                                   #  ABOUT PROPER BODY APPROX ONCE PER SEC.
000281: 20,2204           02606 46064                     2CADR    V82GON1
000282:
000283: 20,2206           00003                           RELINT
000284: 20,2207           10067                           CCS      NEWJOB                                #  WITHOLD V16 N44 UNTIL FIRST ORBIT CALC
000285: 20,2210           05200                           TC       CHANG1                                #  IS DONE.  NOTE:  V82GON1 (PRIO7, FINDVAC
000286:                                                                                                  #  JOB) IS COMPLETED BEFORE V82GON (PRIO7,
000287:                                                                                                  #  NOVAC JOB).
000288: 20,2211           32217        V82REDSP           CAF      V16N44X                               #  MONITOR HAPO, HPER, TFF
000289: 20,2212           04676                           TC       BANKCALL
000290: 20,2213           20561                           CADR     GOXDSPF
000291: 20,2214           05641                           TC       B5OFF                                 #  TERM THIS TELLS V82GON1 TO KILL ITSELF.
000292: 20,2215           05641                           TC       B5OFF                                 #  PROC DITTO.
000293: 20,2216           02211                           TC       V82REDSP                              #  RECYCLE
000294:
000295: 20,2217           04054        V16N44X            VN       1644
000296:
000297: 23,2000                                           SETLOC   R30LOC
000298: 23,2000                                           BANK
000299: 23,2606                                           COUNT*   $$/R30
000300: 23,2606           06006        V82GON1            TC       INTPRET                               #  THIS EXEC PROGRAM PERPETUATES ITSELF
000301:                                                                                                  #  ONCE A SEC UNTIL BIT 5 OF EXTVBACT =0.
000302: 23,2607           52175                           VLOAD    GOTO                                  #  HOLDS OFF CCS NEWJOB BETWEEN RN AND
000303: 23,2610           01171                                    RN                                    #  VN FETCH SO RN, VN ARE FROM SAME
000304: 23,2611           46612                                    NEXTLINE                              #  STATE VECTOR UPDATE.
000305: 23,2612           26327        NEXTLINE           STOVL    RONE                                  #  RN AT (-29)M FOR EARTH OR MOON
000306: 23,2613           01177                                    VN
000307: 23,2614           02335                           STORE    VONE                                  #  VN AT (-7)M/CS FOR EARTH OR MOON
000308: 23,2615           52014                           BON      GOTO
000309: 23,2616           00315                                    AMOONFLG                              #  FLAG INDICATES BODY ABOUT WHICH ORBITAL
000310: 23,2617           46621                                    MOONGON                               #  CALCULATIONS ARE TO BE PERFORMED.
000311: 23,2620           46632                                    EARTHGON                              #  IF SET - MOON, IF RESET - EARTH.
000312:
000313: 23,2621           71214        MOONGON            SET      DLOAD
000314: 23,2622           04462                                    V82EMFLG                              #  INDICATE MOON SCALING FOR SR30.1
000315: 23,2623           06474                                    1/RTMUM                               #  LUNAR PARAMETERS LOADED HERE FOR SR30.1
000316: 23,2624           14037                           STODL    TFF/RTMU
000317: 23,2625           06500                                    MINPERM
000318: 23,2626           26321                           STOVL    HPERMIN
000319: 23,2627           02026                                    RLS                                   #  SCALED AT (-27)M.
000320: 23,2630           52046                           ABVAL    GOTO
000321: 23,2631           46641                                    V82GON2
000322: 23,2632           71214        EARTHGON           CLEAR    DLOAD
000323: 23,2633           04662                                    V82EMFLG                              #  INDICATE EARTH SCALING FOR SR30.1
000324: 23,2634           06476                                    1/RTMUE                               #  EARTH PARAMETERS LOADED HERE FOR SR30.1
000325: 23,2635           14037                           STODL    TFF/RTMU
000326: 23,2636           06502                                    MINPERE
000327: 23,2637           16321                           STODL    HPERMIN
000328: 23,2640           05152                                    RPAD
000329: 23,2641           36323        V82GON2            STCALL   RPADTEM                               #  COMMON CODE FOR EARTH & MOON.
000330: 23,2642           46671                                    SR30.1
000331: 23,2643           77776                           EXIT
000332: 23,2644           05400                           TC       CHECKMM
000333: 23,2645           00013                           DEC      11         B-14
000334: 23,2646           02661                           TC       V82GON3                               #  NOT IN MODE 11.
000335: 23,2647           06006        CANDEL             TC       INTPRET                               #  IN MODE 11 OR 00
000336: 23,2650           77624                           CALL
000337: 23,2651           27446                                    INTSTALL                              #  DELRSPL DOES INTWAKE
000338: 23,2652           45145                           DLOAD    CALL
000339: 23,2653           02344                                    TFF
000340: 23,2654           64017                                    DELRSPL                               #  RETURN IS TO NEXT LINE (SPLRET).
000341: 23,2655           77776        SPLRET             EXIT
000342:
000343: 23,2656           31011                           CA       MODREG
000344: 23,2657           00006                           EXTEND
000345: 23,2660           12521                           BZF      SPLRET1
000346: 23,2661           35027        V82GON3            CAF      BIT5
000347: 23,2662           71044                           MASK     EXTVBACT                              #  SEE IF ASTRONAUT HAS SIGNALLED TERMINATE
000348: 23,2663           00006                           EXTEND
000349: 23,2664           15550                           BZF      ENDEXT                                #  YES, TERMINATE VB 82 LOOP
000350: 23,2665           35055                           CAF      1SEC
000351: 23,2666           04676                           TC       BANKCALL                              #  WAIT ONE SECOND BEFORE REPEATING
000352: 23,2667           01732                           CADR     DELAYJOB                              #  ORBITAL PARAMETER COMPUTATION.
000353: 23,2670           02606                           TC       V82GON1
000354:
000355:                                                                                                  #  SUBROUTINE NAME: SR30.1
000356:                                                                                                  #  MOD NO: 0                                                             DATE: 16 FEB 67
000357:                                                                                                  #  MOD BY: RR BAIRNSFATHER                                               LOG SECTION: R32
000358:                                                                                                  #  MOD NO: 1     MOD BY: RR BAIRNSFATHER         DATE: 11 APR 67         SR30.1 CHANGED TO ALLOW MONITOR OPERN
000359:                                                                                                  #  MOD NO: 2     MOD BY: RR BAIRNSFATHER         DATE: 14 APR 67         ADD OVFL CK FOR RAPO
000360:                                                                                                  #  MOD NO: 3     MOD BY ALONSO                   DATE: 11 DEC 67         SUBROUTINE REWRITTEN
000361:                                                                                                  #  MOD NO: 4     MOD BY ALONSO                   DATE: 26 MAR 68         PROG MOD TO HANDLE DIF EARTH/MOON SCALE
000362:                                                                                                  #  MOD NO: 5     MOD BY: RR BAIRNSFATHER         DATE: 6 AUG 68          OVFL CK FOR HAPO & HPER. VOIDS MOD #2.
000363:
000364:                                                                                                  #  NEW FUNCTIONAL DESCRIPTION:  ORBITAL PARAMETERS DISPLAY FOR NOUNS 32 AND 44.
000365:                                                                                                  #  SR30.1 CALLS TFFCONMU AND TFFRP/RA TO CALCULATE RPER (PERIGEE RADIUS),
000366:                                                                                                  #  RAPO (APOGEE RADIUS), HPER (PERIGEE HEIGHT ABOVE LAUNCH PAD OR LUNAR
000367:                                                                                                  #  LANDING SITE), HAPO (APOGEE HEIGHT AS ABOVE), TPER (TIME TO PERIGEE),
000368:                                                                                                  #  TFF (TIME TO INTERSECT 300 KFT ABOVE PAD OR 35KFT ABOVE LANDING SITE).
000369:                                                                                                  #  IF HPER IS GREATER THAN OR EQUAL TO HPERMIN, CALCULATES TPER AND STORES
000370:                                                                                                  #  NEGATIVE    IN -TPER. OTHERWISE STORES +0 IN -TPER. WHENEVER TPER IS
000371:                                                                                                  #  CALCULATED, TFF IS NOT COMPUTABLE AND DEFAULTS TO -59MIN 59SEC.  IF HAPO
000372:                                                                                                  #  WOULD EXCEED 9999.9 NM, IT IS LIMITED TO THAT VALUE FOR DISPLAY.
000373:
000374:                                                                                                  #  ADDENDUM:     HAPO AND HPER SHOULD BE CHANGED TO READ HAPOX AND HPERX IN THE
000375:                                                                                                  #                ABOVE REMARKS.
000376:
000377:                                                                                                  #  CALLING SEQUENCE:     CALL
000378:                                                                                                  #                                SR30.1
000379:
000380:                                                                                                  #  SUBROUTINES CALLED:   TFFCONMU, TFFRP/RA, CALCTPER, CALCTFF
000381:
000382:                                                                                                  #  NORMAL EXIT MODE:     CALLING LINE +1 (STILL IN INTERPRETIVE MODE)
000383:
000384:                                                                                                  #  ALARMS:       NONE
000385:
000386:                                                                                                  #  OUTPUT:       RAPO    (-29) M EARTH   APOGEE RADIUS   EARTH CENTERED COORD.
000387:                                                                                                  #                        (-27) M MOON                    MOON CENTERED COORD.
000388:                                                                                                  #                RPER    (-29) M EARTH   PERIGEE RADIUS  EARTH CENTERED COORD.
000389:                                                                                                  #                        (-27) M MOON                    MOON CENTERED COORD.
000390:                                                                                                  #                HAPOX   (-29) M         APOGEE ALTITUDE ABOVE PAD OR LAND. SITE MAX VALUE LIMITED TO 9999.9 NM.
000391:                                                                                                  #                HPERX   (-29) M         PERIGEE ALT. ABOVE PAD OR LAND. SITE    MAX VALUE LIMITED TO 9999.9 NM.
000392:                                                                                                  #                TFF     (-28) CS        TIME TO 300KFT OR 35KFT ALTITUDE
000393:                                                                                                  #                -TPER   (-28) CS        TIME TO PERIGEE
000394:
000395:                                                                                                  #  ERASABLE INITIALIZATION REQUIRED -
000396:                                                                                                  #        TFF/RTMU        (+17) EARTH     RECIPROCAL OF PROPER GRAV CONSTANT FOR
000397:                                                                                                  #                        (+14) MOON      EARTH OR MOON = 1/SQRT(MU).
000398:                                                                                                  #        RONE            (-29) M         STATE VECTOR
000399:                                                                                                  #        VONE            (-7)  M/CS      STATE VECTOR
000400:                                                                                                  #        RPADTEM         (-29) M EARTH   RADIUS OF LAUNCH PAD OR LUNAR LANDING
000401:                                                                                                  #                        (-27) M MOON    SITE.
000402:                                                                                                  #        HPERMIN         (-29) M EARTH   (300 OR 35) KFT MINIMUM PERIGEE ALTITUDE
000403:                                                                                                  #                        (-27) M MOON    ABOVE LAUNCH PAD OR LUNAR LANDING SITE.
000404:                                                                                                  #        V82EMFLG        (INT SW BIT)    RESET FOR EARTH, SET FOR MOON.
000405:
000406:                                                                                                  #  DEBRIS:       QPRET, PDL, S2
000407:
000408: 23,2671                                           COUNT*   $$/SR30S
000409:
000410: 23,2671           44001        SR30.1             SETPD    STQ                                   #  INITIALIZE PUSHDOWN LIST.
000411: 23,2672           00001                                    0
000412: 23,2673           00051                                    S2
000413:                                                                                                  #  SR30.1 INPUT: RONE AT (-29)M EARTH/MOON
000414:                                                                                                  #                VONE AT (-7)M/CS
000415:                                                                                                  #  TFFCONMU, TFFRP/RA, CALCTPER AND CALCTFF
000416:                                                                                                  #  CALLS REQUIRE:
000417:                                                                                                  #  EARTH CENTERED (NO RESCALING REQUIRED)
000418:                                                                                                  #        RONE SCALED TO B-29 M
000419:                                                                                                  #        VONE SCALED TO B-7 M/CS
000420:                                                                                                  #  MOON CENTERED (RESCALING REQUIRED)
000421:                                                                                                  #        RONE SCALED TO B-27 M
000422:                                                                                                  #        VONE SCALED TO B-5 M/CS
000423: 23,2674           77214                           BOFF     VLOAD
000424: 23,2675           04742                                    V82EMFLG                              #  OFF FOR EARTH, ON FOR MOON.
000425: 23,2676           46705                                    TFFCALLS
000426: 23,2677           02327                                    RONE
000427: 23,2700           77752                           VSL2
000428: 23,2701           26327                           STOVL    RONE
000429: 23,2702           02335                                    VONE
000430: 23,2703           77752                           VSL2
000431: 23,2704           02335                           STORE    VONE
000432: 23,2705           77624        TFFCALLS           CALL
000433: 23,2706           56761                                    TFFCONMU
000434: 23,2707           77624                           CALL                                           #  TFFRP/RA COMPUTES RAPO,RPER.
000435: 23,2710           57027                                    TFFRP/RA
000436:                                                                                                  #  RETURNS WITH RAPO IN D(MPAC).
000437: 23,2711           77625                           DSU
000438: 23,2712           02323                                    RPADTEM
000439: 23,2713           64414                           BOFF     SR2R                                  #  NEED HAPO AT (-29)M FOR DISPLAY.
000440:                                                                                                  #  IF MOON CENTERED, RESCALE FROM (-27)M.
000441:                                                                                                  #  IF EARTH CENTERED ALREADY AT (-29)M.
000442: 23,2714           04742                                    V82EMFLG                              #  OFF FOR EARTH, ON FOR MOON.
000443: 23,2715           46716                                    +1
000444: 23,2716           77624                           CALL                                           #  IF HAPO > MAXNM, SET HAPO =9999.9 NM.
000445: 23,2717           46756                                    MAXCHK                                #  OTHERWISE STORE (RAPO-RPADTEM) IN HAPO.
000446: 23,2720           16352        STORHAPO           STODL    HAPOX
000447: 23,2721           00017                                    RPER
000448: 23,2722           77625                           DSU
000449: 23,2723           02323                                    RPADTEM                               #  GIVES HPER AT (-29)M EARTH, (-27)M MOON.
000450: 23,2724           00161                           STORE    MPAC       +4                         #  SAVE THIS FOR COMPARISON TO HPERMIN.
000451: 23,2725           64414                           BOFF     SR2R                                  #  NEED HPER AT (-29)M FOR DISPLAY.
000452:                                                                                                  #  IF MOON CENTERED, RESCALE FROM (-27)M.
000453:                                                                                                  #  IF EARTH CENTERED ALREADY AT (-29)M.
000454: 23,2726           04742                                    V82EMFLG                              #  OFF FOR EARTH, ON FOR MOON.
000455: 23,2727           46730                                    +1
000456: 23,2730           77624                           CALL                                           #  IF HPER > MAXNM, SET HPER = 9999.9 NM.
000457: 23,2731           46756                                    MAXCHK
000458: 23,2732           16354        STORHPER           STODL    HPERX                                 #  STORE (RPER - RPADTEM) INTO HPERX.
000459: 23,2733           00161                                    MPAC       +4
000460: 23,2734           51025                           DSU      BPL                                   #  HPERMIN AT (-29)M FOR EARTH, (-27)M MOON
000461: 23,2735           02321                                    HPERMIN                               #  IF HPER L/ HPERMIN (300 OR 35) KFT,
000462: 23,2736           46742                                    DOTPER                                #  THEN ZERO INTO -TPER.
000463: 23,2737           52145                           DLOAD    GOTO                                  #  OTHERWISE CALCULATE TPER.
000464: 23,2740           15334                                    HI6ZEROS
000465: 23,2741           46746                                    SKIPTPER
000466: 23,2742           45145        DOTPER             DLOAD    CALL
000467: 23,2743           00017                                    RPER
000468: 23,2744           57065                                    CALCTPER
000469: 23,2745           77676                           DCOMP                                          #  TPER IS PUT NEG INTO -TPER.
000470: 23,2746           16346        SKIPTPER           STODL    -TPER
000471: 23,2747           02321                                    HPERMIN                               #  HPERMIN AT (-29)M FOR EARTH, (-27)M MOON
000472: 23,2750           45015                           DAD      CALL
000473: 23,2751           02323                                    RPADTEM                               #  RPADTEM AT (-29)M FOR EARTH, (-27)M MOON
000474: 23,2752           57070                                    CALCTFF                               #  GIVES 59M59S FOR TFF IF RPER G/
000475: 23,2753           77676                           DCOMP                                          #  HPERMIN + RPADTEM.  (TPER WAS NON ZERO)
000476: 23,2754           36344                           STCALL   TFF                                   #  OTHERWISE COMPUTES TFF.       (GOTO)
000477: 23,2755           00051                                    S2
000478:
000479: 23,2756           51025        MAXCHK             DSU      BPL                                   #  IF C(MPAC) > 9999.9 NM, MPAC = 9999.9 NM
000480: 23,2757           06766                                    MAXNM
000481: 23,2760           46763                                    +3                                    #  OTHERWISE C(MPAC) = B(MPAC).
000482: 23,2761           43415                           DAD      RVQ
000483: 23,2762           06766                                    MAXNM
000484: 23,2763           43545                 +3        DLOAD    RVQ                                   #  (USED BY P30 - P37 ALSO)
000485: 23,2764           06766                                    MAXNM
000486:
000487: 23,2765           01065 05603  MAXNM              2OCT     0106505603

End of include-file R30.agc.  Parent file is MAIN.agc


