
Source Code


000002:                                                                                                  ## Copyright:   Public domain.
000003:                                                                                                  ## Filename:    R60,R62.agc
000004:                                                                                                  ## Purpose:     A section of Manche72 revision 3.
000005:                                                                                                  ##              It is part of the reconstructed source code for the final, flown
000006:                                                                                                  ##              release of the software for the Command Module's (CM) Apollo
000007:                                                                                                  ##              Guidance Computer (AGC) for Apollo 13. No original listings
000008:                                                                                                  ##              of this program are available; instead, this file was recreated
000009:                                                                                                  ##              from a reconstructed copy of Comanche 072. It has been adapted
000010:                                                                                                  ##              such that the resulting bugger words exactly match those
000011:                                                                                                  ##              specified for Manche72 revision 3 in NASA drawing 2021153G,
000012:                                                                                                  ##              which gives relatively high confidence that the reconstruction
000013:                                                                                                  ##              is correct.
000014:                                                                                                  ## Assembler:   yaYUL
000015:                                                                                                  ## Contact:     Ron Burkey <info@sandroid.org>.
000016:                                                                                                  ## Website:     www.ibiblio.org/apollo/index.html
000017:                                                                                                  ## Mod history: 2024-05-19 MAS  Created from Comanche 072.
000018:
000019: 34,2002                                           BANK     34
000020: 27,2000                                           SETLOC   MANUVER
000021: 27,2000                                           BANK
000022:
000023: 27,2000     1146                                  EBANK=   TEMPR60
000024:
000025: 27,2000                                           COUNT    27/R60
000026:
000027:                                                                                                  #  R60CSM
000028:                                                                                                  #  REV 13        CONFORMS TO GSOP CHAPTER FOUR REVISION LOGIC 09 JAN 18, 1968
000029:
000030: 27,2000           04725        R60CSM             TC       MAKECADR
000031: 27,2001           55146                           TS       TEMPR60
000032:
000033:                                                                                                  #  INSERT PRIODSP CHECK WITH R22 (V06N49) WITH JENNINGS BRODEUR
000034:
000035: 27,2002           35026        REDOMANN           CAF      BIT6
000036: 27,2003           70101                           MASK     FLAGWRD5                              #  IS 3-AXIS FLAG SET
000037: 27,2004           10000                           CCS      A
000038: 27,2005           12013                           TCF      TOBALL                                #  YES
000039: 27,2006           06006                           TC       INTPRET
000040: 27,2007           77624                           CALL
000041: 27,2010           56126                                    VECPOINT                              #  TO COMPUTE FINAL ANGLES
000042: 27,2011           01156                           STORE    CPHI                                  #  STORE FINAL ANGLES - CPHI, CTHETA, CPSI
000043: 27,2012           77776                           EXIT
000044:
000045: 27,2013           32125        TOBALL             CAF      V06N18
000046: 27,2014           04676                           TC       BANKCALL
000047: 27,2015           21132                           CADR     GOPERF2R                              #  DISPLAY PLEASE PERFORM AUTO MANEUVER
000048: 27,2016           02114                           TC       R61TEST
000049: 27,2017           02023                           TC       REDOMANC                              #  PROCEED
000050: 27,2020           12052                           TCF      ENDMANU1                              #  ENTER I.E. FINISHED WITH R60
000051:
000052: 27,2021           02056                           TC       CHKLINUS                              #  TO CHECK FOR PRIORITY DISPLAYS
000053: 27,2022           05233                           TC       ENDOFJOB
000054:
000055: 27,2023           35026        REDOMANC           CAF      BIT6
000056: 27,2024           70101                           MASK     FLAGWRD5                              #  IS 3-AXIS FLAG SET
000057: 27,2025           10000                           CCS      A
000058: 27,2026           12034                           TCF      TOBALLC                               #  YES
000059: 27,2027           06006                           TC       INTPRET
000060: 27,2030           77624                           CALL
000061: 27,2031           56126                                    VECPOINT                              #  TO COMPUTE FINAL ANGLES
000062: 27,2032           01156                           STORE    CPHI                                  #  STORE ANGLES
000063: 27,2033           77776                           EXIT
000064:
000065: 27,2034           34371        TOBALLC            CAF      PRIO30                                #  IS MODE AUTO AND CTL GNC
000066: 27,2035           00006                           EXTEND
000067: 27,2036           06031                           RXOR     CHAN31
000068: 27,2037           77707                           MASK     13,14,15
000069: 27,2040           00006                           EXTEND
000070: 27,2041           12043                           BZF      +2                                    #  AUTO, NON-FLASH N18
000071: 27,2042           12013                           TCF      TOBALL                                #  NOT AUTO
000072:
000073: 27,2043           32125                           CAF      V06N18                                #  SET UP NON-FLASHING V06 N18
000074: 27,2044           04676                           TC       BANKCALL
000075: 27,2045           20676                           CADR     GODSPR
000076: 27,2046           02056                           TC       CHKLINUS
000077:
000078: 27,2047           04676        STARTMNV           TC       BANKCALL
000079: 27,2050           17627                           CADR     GOMANUR
000080: 27,2051           12013        ENDMANUV           TCF      TOBALL                                #  FINISHED MANEUVER
000081:
000082: 27,2052           05574        ENDMANU1           TC       DOWNFLAG                              #  RESET 3-AXIS FLAG
000083: 27,2053           00124                           ADRES    3AXISFLG                              #  BIT 6 FLAG 5
000084: 27,2054           31146                           CAE      TEMPR60                               #                                        -
000085: 27,2055           04720                           TC       BANKJUMP                              #                                        -
000086:
000087: 27,2056           40100        CHKLINUS           CS       FLAGWRD4
000088: 27,2057           75020                           MASK     BIT12                                 #  IS PRIORITY DISPLAY FLAG SET          -
000089: 27,2060           10000                           CCS      A                                     #                                        -
000090: 27,2061           00002                           TC       Q                                     #  NO - EXIT
000091: 27,2062           30002                           CA       Q
000092: 27,2063           54156                           TS       MPAC       +2                         #  SAVE RETURN
000093: 27,2064           46214                           CS       THREE                                 #  OBTAIN LOCATION FOR RESTART.
000094: 27,2065           60133                           AD       BUF2                                  #  HOLDS Q OF LAST DISPALY
000095: 27,2066           55053                           TS       TBASE1
000096:
000097: 27,2067           05426                           TC       PHASCHNG
000098: 27,2070           00071                           OCT      71                                    #  1.7SPOT FOR RELINUS
000099:
000100: 27,2071           35025                           CAF      BIT7
000101: 27,2072           05542                           TC       LINUS                                 #  GO SET BITS FOR PRIORITY DISPLAY      -
000102: 27,2073           00156                           TC       MPAC       +2
000103:
000104: 27,2074           35027        RELINUS            CAF      BIT5                                  #  IS TRACK FLAG ON
000105: 27,2075           70075                           MASK     FLAGWRD1
000106: 27,2076           00006                           EXTEND
000107: 27,2077           12111                           BZF      GOREDO20                              #  NO
000108:
000109: 27,2100           05562                           TC       UPFLAG
000110: 27,2101           00077                           ADRES    PDSPFLAG                              #  R60 PRIODSP FLAG
000111:
000112: 27,2102           05562                           TC       UPFLAG
000113: 27,2103           00024                           ADRES    TARG1FLG                              #  FOR R52
000114:
000115: 27,2104           35035                           CAF      ZERO                                  #  RESET TO ZERO, SINCE
000116: 27,2105           55303                           TS       OPTIND                                #  OPTIND WAS SET TO -1 BY V379
000117:
000118: 27,2106           35102                           CAF      PRIO14                                #  RESTORE ORIGINAL PRIORITY
000119: 27,2107           05224                           TC       PRIOCHNG
000120:
000121: 27,2110           01053                           TC       TBASE1
000122:
000123: 27,2111           05426        GOREDO20           TC       PHASCHNG
000124: 27,2112           00111                           OCT      111                                   #  1.11 FOR PIKUP20
000125:
000126: 27,2113           05233                           TC       ENDOFJOB
000127:
000128: 27,2114           31011        R61TEST            CA       MODREG                                #  ARE WE IN P00.  IF YES THIS MUST BE
000129: 27,2115           00006                           EXTEND                                         #        VERB49 OR VERB89 SO DO ENDEXT.
000130: 27,2116           12052                           BZF      ENDMANU1                              #  RESET 3-AXIS & RUTURN.  USER DOES ENDEXT
000131: 27,2117           30100                           CA       FLAGWRD4                              #  ARE WE IN R61 (P20)
000132: 27,2120           75020                           MASK     BIT12
000133: 27,2121           00006                           EXTEND
000134: 27,2122           14106                           BZF      GOTOPOOH                              #  NO
000135: 27,2123           04622                           TC       GOTOV56                               #  YES
000136:
000137: 27,2124           20100        BIT14+7            OCT      20100                                 #                                        -
000138: 27,2125           01422        V06N18             VN       0618
000139:
000140:                                                                                                  #  PROGRAM DESCRIPTION - VECPOINT
000141:
000142:                                                                                                  #  THIS INTERPRETIVE SUBROUTINE MAY BE USED TO POINT A SPACECRAFT AXIS IN A DESIRED DIRECTION.  THE AXIS
000143:                                                                                                  #  TO BE POINTED MUST APPEAR AS A HALF UNIT DOUBLE PRECISION VECTOR IN SUCCESSIVE LOCATIONS OF ERASABLE MEMORY
000144:                                                                                                  #  BEGINNING WITH THE LOCATION CALLED SCAXIS.  THE COMPONENTS OF THIS VECTOR ARE GIVEN IN SPACECRAFT COORDINATES.
000145:                                                                                                  #  THE DIRECTION IN WHICH THIS AXIS IS TO BE POINTED MUST APPEAR AS A HALF UNIT DOUBLE PRECISION VECTOR IN
000146:                                                                                                  #  SUCCESSIVE LOCATIONS OF ERASABLE MEMORY BEGINNING WITH THE ADDRESS CALLED POINTVSM.  THE COMPONENTS OF THIS
000147:                                                                                                  #  VECTOR ARE GIVEN IN STABLE MEMBER COORDINATES.  WITH THIS INFORMATION VECPOINT COMPUTES A SET OF THREE GIMBAL
000148:                                                                                                  #  ANGLES (2S COMPLEMENT) CORRESPONDING TO THE CROSS-PRODUCT ROTATION BETWEEN SCAXIS AND POINTVSM AND STORES THEM
000149:                                                                                                  #  IN T(MPAC) BEFORE RETURNING TO THE CALLER.
000150:
000151:                                                                                                  #  THIS ROTATION, HOWEVER, MAY BRING THE S/C INTO GIMBAL LOCK.  WHEN POINTING A VECTOR IN THE Y-Z PLANE,
000152:                                                                                                  #  THE TRANSPONDER AXIS, OR THE AOT FOR THE LEM, THE PROGRAM WILL CORRECT THIS PROBLEM BY ROTATING THE CROSS-
000153:                                                                                                  #  PRODUCT ATTITUDE ABOUT POINTVSM BY A FIXED AMOUNT SUFFICIENT TO ROTATE THE DESIRED S/C ATTITUDE OUT OF GIMBAL
000154:                                                                                                  #  LOCK.  IF THE AXIS TO BE POINTED IS MORE THAN 40.6 DEGREES BUT LESS THAN 60.5 DEG FROM THE +X (OR -X) AXIS,
000155:                                                                                                  #  THE ADDITIONAL ROTATION TO AVOID GIMAL LOCK IS 35 DEGREES.  IF THE AXIS IS MORE THAN 60.5 DEGEES FROM +X (OR -X)
000156:                                                                                                  #  THE ADDITIONAL ROTATION IS 35 DEGREES.  THE GIMBAL ANGLES CORRESPONDING TO THIS ATTITUDE ARE THEN COMPUTED AND
000157:                                                                                                  #  STORED AS 2S COMPLIMENT ANGLES IN T(MPAC) BEFORE RETURNING TO THE CALLER.
000158:
000159:                                                                                                  #  WHEN POINTING THE X-AXIS, OR THE THRUST VECTOR, OR ANY VECTOR WITHIN 40.6 DEG OF THE X-AXIS, VECPOINT
000160:                                                                                                  #  CANNOT CORRECT FOR A CROSS-PRODUCT ROTATION INTO GIMBAL LOCK.  IN THIS CASE A PLATFORM REALIGNMENT WOULD BE
000161:                                                                                                  #  REQUIRED TO POINT THE VECTOR IN THE DESIRED DIRECTION.  AT PRESENT NO INDICATION IS GIVEN FOR THIS SITUATION
000162:                                                                                                  #  EXCEPT THAT THE FINAL MIDDLE GIMBAL ANGLE IN MPAC +2 IS GREATER THAN 59 DEGREES.
000163:
000164:                                                                                                  #  CALLING SEQUENCE -
000165:
000166:                                                                                                  #        1)      LOAD SCAXIS, POINTVSM
000167:                                                                                                  #        2)      CALL
000168:                                                                                                  #                        VECPOINT
000169:
000170:                                                                                                  #  RETURNS WITH
000171:
000172:                                                                                                  #        1)      DESIRED OUTER GIMBAL ANGLE IN MPAC
000173:                                                                                                  #        2)      DESIRED INNER GIMBAL ANGLE IN MPAC +1
000174:                                                                                                  #        3)      DESIRED MIDDLE GIMBAL ANGLE IN MPAC +2
000175:
000176:                                                                                                  #  ERASABLES USED -
000177:
000178:                                                                                                  #        1)      SCAXIS          6
000179:                                                                                                  #        2)      POINTVSM        6
000180:                                                                                                  #        3)      MIS             18
000181:                                                                                                  #        4)      DEL             18
000182:                                                                                                  #        5)      COF             6
000183:                                                                                                  #        6)      VECQTEMP        1
000184:                                                                                                  #        7)      ALL OF VAC AREA 43
000185:
000186:                                                                                                  #                        TOTAL   99
000187:
000188: 27,2000                                           SETLOC   VECPT
000189: 27,2000                                           BANK
000190: 27,2126  E6,1661                                  EBANK=   BCDU
000191:
000192: 27,2126                                           COUNT    27/VECPT
000193:
000194: 27,2126           40020        VECPOINT           STQ      BOV                                   #  SAVE RETURN ADDRESS
000195: 27,2127           03310                                    VECQTEMP
000196: 27,2130           56131                                    VECLEAR                               #  AND CLEAR OVFIND
000197: 27,2131           47164        VECLEAR            AXC,2    RTB
000198: 27,2132           03320                                    MIS                                   #  READ THE PRESENT CDU ANGLES AND
000199: 27,2133           44376                                    READCDUK                              #  STORE THEM IN PD25, 26, 27
000200: 27,2134           34032                           STCALL   25D
000201: 27,2135           44405                                    CDUTODCM                              #  S/C AXES TO STABLE MEMBER AXES (MIS)
000202: 27,2136           61375                           VLOAD    VXM
000203: 27,2137           03357                                    POINTVSM                              #  RESOLVE THE POINTING DIRECTION VF INTO
000204: 27,2140           03321                                    MIS                                   #  INITIAL S/C AXES (VF = POINTVSM)
000205: 27,2141           77656                           UNIT
000206: 27,2142           00035                           STORE    28D
000207:                                                                                                  #  PD 28 29 30 31 32 33
000208: 27,2143           53435                           VXV      UNIT                                  #  TAKE THE CROSS PRODUCT VF X VI
000209: 27,2144           03351                                    SCAXIS                                #  WHERE VI = SCAXIS
000210: 27,2145           57400                           BOV      VCOMP
000211: 27,2146           56256                                    PICKAXIS
000212: 27,2147           17343                           STODL    COF                                   #  CHECK MAGNITUDE
000213: 27,2150           00045                                    36D                                   #  OF CROSS PRODUCT
000214: 27,2151           50025                           DSU      BMN                                   #  VECTOR, IF LESS
000215: 27,2152           16327                                    DPB-14                                #  THAN B-14 ASSUME
000216: 27,2153           56256                                    PICKAXIS                              #  UNIT OPERATION
000217: 27,2154           50375                           VLOAD    DOT                                   #  INVALID.
000218: 27,2155           03351                                    SCAXIS
000219: 27,2156           00035                                    28D
000220: 27,2157           65552                           SL1      ARCCOS
000221: 27,2160           77624        COMPMATX           CALL                                           #  NOW COMPUTE THE TRANSFORMATION FROM
000222: 27,2161           44530                                    DELCOMP                               #  FINAL S/C AXES TO INITIAL S/C AXES MFI
000223: 27,2162           75160                           AXC,1    AXC,2
000224: 27,2163           03320                                    MIS                                   #  COMPUTE THE TRANSFORMATION FROM FINAL
000225: 27,2164           03425                                    DEL                                   #  S/C AXES TO STABLE MEMBER AXES
000226: 27,2165           77624                           CALL                                           #  MFS = MIS MFI
000227: 27,2166           44304                                    MXM3                                  #  (IN PD LIST)
000228:
000229: 27,2167           51545                           DLOAD    ABS
000230: 27,2170           00007                                    6                                     #  MFS6 = SIN(CPSI)                      $2
000231: 27,2171           50025                           DSU      BMN
000232: 27,2172           16314                                    SINGIMLC                              #  = SIN(59 DEGS)                        $2
000233: 27,2173           56246                                    FINDGIMB                              #  /CPSI/ LESS THAN 59 DEGS
000234:                                                                                                  #  I.E. DESIRED ATTITUDE NOT IN GIMBAL LOCK
000235:
000236: 27,2174           51545                           DLOAD    ABS                                   #  CHECK TO SEE IF WE ARE POINTING
000237: 27,2175           03351                                    SCAXIS                                #  THE THRUST AXIS
000238: 27,2176           51025                           DSU      BPL
000239: 27,2177           16316                                    SINVEC1                               #  SIN 49.4 DEGS                         $2
000240: 27,2200           56246                                    FINDGIMB                              #  IF SO, WE ARE TRYING TO POINT IT INTO
000241: 27,2201           77775                           VLOAD                                          #  GIMBAL LOCK, ABORT COULD GO HERE
000242: 27,2202           77626                           STADR
000243: 27,2203           50442                           STOVL    MIS        +12D
000244: 27,2204           77626                           STADR                                          #  STORE MFS (IN PD LIST) IN MIS
000245: 27,2205           50450                           STOVL    MIS        +6
000246: 27,2206           77626                           STADR
000247: 27,2207           50456                           STOVL    MIS
000248: 27,2210           03327                                    MIS        +6                         #  INNER GIMBAL AXIS IN FINAL S/C AXES
000249: 27,2211           57444                           BPL      VCOMP                                 #  LOCATE THE IG AXIS DIRECTION CLOSEST TO
000250: 27,2212           56213                                    IGSAMEX                               #  FINAL X S/C AXIS
000251:
000252: 27,2213           50035        IGSAMEX            VXV      BMN                                   #  FIND THE SHORTEST WAY OF ROTATING THE
000253: 27,2214           03351                                    SCAXIS                                #  S/C OUT OF GIMBAL LOCK BY A ROTATION
000254: 27,2215           56222                                    U=SCAXIS                              #  ABOUT +- SCAXIS, I.E. IF  (IG (SGN MFS3)
000255:                                                                                                  #  X SCAXIS . XF) LESS THAN 0, U = SCAXIS
000256:                                                                                                  #  OTHERWISE U = -SCAXIS
000257:
000258: 27,2216           57575                           VLOAD    VCOMP
000259: 27,2217           03351                                    SCAXIS
000260: 27,2220           37343                           STCALL   COF                                   #  ROTATE ABOUT -SCAXIS
000261: 27,2221           56225                                    CHEKAXIS
000262: 27,2222           77775        U=SCAXIS           VLOAD
000263: 27,2223           03351                                    SCAXIS
000264: 27,2224           03343                           STORE    COF                                   #  ROTATE ABOUT + SCAXIS
000265: 27,2225           51545        CHEKAXIS           DLOAD    ABS
000266: 27,2226           03351                                    SCAXIS                                #  SEE IF WE ARE POINTING THE AOT
000267: 27,2227           51025                           DSU      BPL
000268: 27,2230           16320                                    SINVEC2                               #  SIN 29.5 DEGS                         $2
000269: 27,2231           56235                                    PICKANG1                              #  IF SO, ROTATE 50 DEGS ABOUT +- SCAXIS
000270: 27,2232           52145                           DLOAD    GOTO                                  #  IF NOT, MUST BE POINTING THE TRANSPONDER
000271: 27,2233           16324                                    VECANG2                               #  OR SOME VECTOR IN THE Y, OR Z PLANE
000272: 27,2234           56237                                    COMPMFSN                              #  IN THIS CASE ROTATE 35 DEGS TO GET OUT
000273:                                                                                                  #  OF GIMBAL LOCK (VECANG2 $360)
000274: 27,2235           77745        PICKANG1           DLOAD
000275: 27,2236           16322                                    VECANG1                               #  = 50 DEGS                          $ 360
000276: 27,2237           77624        COMPMFSN           CALL
000277: 27,2240           44530                                    DELCOMP                               #  COMPUTE THE ROTATION ABOUT SCAXIS TO
000278: 27,2241           75160                           AXC,1    AXC,2                                 #  BRING MFS OUT OF GIMBAL LOCK
000279: 27,2242           03320                                    MIS
000280: 27,2243           03425                                    DEL
000281: 27,2244           77624                           CALL                                           #  COMPUTE THE NEW TRANSFORMATION FROM
000282: 27,2245           44304                                    MXM3                                  #  DESIRED S/C AXES TO STABLE MEMBER AXES
000283:                                                                                                  #  WHICH WILL ALIGN VI WITH VF AND AVOID
000284:                                                                                                  #  GIMBAL LOCK
000285: 27,2246           45160        FINDGIMB           AXC,1    CALL
000286: 27,2247           00000                                    0                                     #  EXTRACT THE COMMANDED CDU ANGLES FROM
000287: 27,2250           44655                                    DCMTOCDU                              #  THIS MATRIX
000288: 27,2251           40234                           RTB      SETPD
000289: 27,2252           45552                                    V1STO2S                               #  CONVERT TO 2:S COMPLEMENT
000290: 27,2253           00001                                    0
000291: 27,2254           77650                           GOTO
000292: 27,2255           03310                                    VECQTEMP                              #  RETURN TO CALLER
000293:
000294: 27,2256           50375        PICKAXIS           VLOAD    DOT                                   #  IF VF X VI = 0, FIND VF . VI
000295: 27,2257           00035                                    28D
000296: 27,2260           03351                                    SCAXIS
000297: 27,2261           72240                           BMN      TLOAD
000298: 27,2262           56266                                    ROT180
000299: 27,2263           00032                                    25D
000300: 27,2264           77650                           GOTO                                           #  IF VF = VI, CDU DESIRED = PRESENT CDU
000301: 27,2265           03310                                    VECQTEMP                              #  PRESENT CDU ANGLES
000302:
000303: 27,2266           47375        ROT180             VLOAD    VXV                                   #  IF VF, VI ANTIPARALLEL, 180 DEG ROTATION
000304: 27,2267           03327                                    MIS        +6                         #  IS REQUIRED.  Y STABLE MEMBER AXIS IN
000305: 27,2270           15332                                    HIUNITX                               #  INITIAL S/C AXIS.
000306: 27,2271           47256                           UNIT     VXV                                   #  FIND Y(SM) X X(I)
000307: 27,2272           03351                                    SCAXIS                                #  FIND UNIT(VI X UNIT(Y(SM) X X(I)))
000308: 27,2273           40056                           UNIT     BOV                                   #  I.E. PICK A VECTOR IN THE PLANE OF X(I),
000309: 27,2274           56310                                    PICKX                                 #  Y(SM) PERPENDICULAR TO VI
000310: 27,2275           17343                           STODL    COF
000311: 27,2276           00045                                    36D                                   #  CHECK MAGNITUDE
000312: 27,2277           50025                           DSU      BMN                                   #  OF THIS VECTOR.
000313: 27,2300           16327                                    DPB-14                                #  IF LESS THAN B-14,
000314: 27,2301           56310                                    PICKX                                 #  PICK X-AXIS.
000315: 27,2302           77775                           VLOAD
000316: 27,2303           03343                                    COF
000317: 27,2304           17343        XROT               STODL    COF
000318: 27,2305           15332                                    HIDPHALF
000319: 27,2306           77650                           GOTO
000320: 27,2307           56160                                    COMPMATX
000321: 27,2310           52175        PICKX              VLOAD    GOTO                                  #  PICK THE XAXIS IN THIS CASE
000322: 27,2311           15332                                    HIUNITX
000323: 27,2312           56304                                    XROT
000324: 35,2000                                           BANK     35
000325: 27,2000                                           SETLOC   MANUVER1
000326: 27,2000                                           BANK
000327:
000328: 27,2313           15555 35172  SINGIMLC           2DEC     .4285836003                            #  = SIN(59)                             $2
000329:
000330: 27,2315           14113 36326  SINVEC1            2DEC     .3796356537                            #  = SIN(49.4)                           $2
000331:
000332: 27,2317           07701 35703  SINVEC2            2DEC     .2462117800                            #  = SIN(29.5)                           $2
000333:
000334: 27,2321           04343 21616  VECANG1            2DEC     .1388888889                            #  = 50 DEGREES                        $360
000335:
000336: 27,2323           03070 34344  VECANG2            2DEC     .09722222222                            #  = 35 DEGREES                        $360
000337:
000338:
000339: 27,2325           00000        1BITDP             OCT      0                                     #  KEEP THIS BEFORE DPB(-14)      *********
000340: 27,2326           00001        DPB-14             OCT      00001
000341: 27,2327           00000                           OCT      00000
000342: 34,2002                                           BANK     34
000343: 27,2000                                           SETLOC   MANUVER
000344: 27,2000                                           BANK
000345:
000346:                                                                                                  #  ROUTINE FOR INITIATING AUTOMATIC MANEUVER VIA KEYBOARD (V49)
000347:
000348: 27,2330     1155                                  EBANK=   CPHI
000349:
000350: 27,2330                                           COUNT    27/R62
000351:
000352: 27,2330           35066        R62DISP            CAF      V06N22                                #  DISPLAY COMMAND ICDUS CPHI, CTHETA, CPHI
000353: 27,2331           04676                           TC       BANKCALL
000354: 27,2332           20720                           CADR     GOFLASH
000355: 27,2333           15550                           TCF      ENDEXT
000356: 27,2334           12336                           TCF      GOMOVE                                #  PROCEED
000357: 27,2335           12330                           TCF      R62DISP                               #  ENTER
000358:
000359:                                                                                                  #  ASTRONAUT MAY LOAD NEW ICDUS AT THIS
000360:                                                                                                  #  POINT
000361: 27,2336           05562        GOMOVE             TC       UPFLAG                                #  SET 3-AXIS FLAG
000362: 27,2337           00124                           ADRES    3AXISFLG                              #  BIT 6  FLAG 5
000363:
000364: 27,2340           04676                           TC       BANKCALL
000365: 27,2341           56000                           CADR     R60CSM
000366: 27,2342           15550                           TCF      ENDEXT
000367:

End of include-file R60,R62.agc.  Parent file is MAIN.agc


