
Source Code


000002:                                                                                                  ## Copyright:   Public domain.
000003:                                                                                                  ## Filename:    RTB_OP_CODES.agc
000004:                                                                                                  ## Purpose:     A section of Manche72 revision 3.
000005:                                                                                                  ##              It is part of the reconstructed source code for the final, flown
000006:                                                                                                  ##              release of the software for the Command Module's (CM) Apollo
000007:                                                                                                  ##              Guidance Computer (AGC) for Apollo 13. No original listings
000008:                                                                                                  ##              of this program are available; instead, this file was recreated
000009:                                                                                                  ##              from a reconstructed copy of Comanche 072. It has been adapted
000010:                                                                                                  ##              such that the resulting bugger words exactly match those
000011:                                                                                                  ##              specified for Manche72 revision 3 in NASA drawing 2021153G,
000012:                                                                                                  ##              which gives relatively high confidence that the reconstruction
000013:                                                                                                  ##              is correct.
000014:                                                                                                  ## Assembler:   yaYUL
000015:                                                                                                  ## Contact:     Ron Burkey <info@sandroid.org>.
000016:                                                                                                  ## Website:     www.ibiblio.org/apollo/index.html
000017:                                                                                                  ## Mod history: 2024-05-19 MAS  Created from Comanche 072.
000018:                                                                                                  ##              2024-05-21 MAS  Added implementation of PCR-984, "Avoid Coarse
000019:                                                                                                  ##                              Align during Saturn".
000020:
000021: 22,3510                                           BANK     22
000022: 22,2000                                           SETLOC   RTBCODES
000023: 22,2000                                           BANK
000024:
000025: 22,3510  E5,1713                                  EBANK=   XNB
000026: 22,3510                                           COUNT*   $$/RTB
000027:
000028:                                                                                                  #  LOAD TIME2, TIME1 INTO MPAC:
000029:
000030: 22,3510           00006        LOADTIME           EXTEND
000031: 22,3511           30025                           DCA      TIME2
000032: 22,3512           16024                           TCF      SLOAD2
000033:
000034:                                                                                                  #  CONVERT THE SINGLE PRECISION 2'S COMPLEMENT NUMBER ARRIVING IN MPAC (SCALED IN HALF-REVOLUTIONS) TO A
000035:                                                                                                  #  DP 1'S COMPLEMENT NUMBER SCALED IN REVOLUTIONS.
000036:
000037: 22,3513           10154        CDULOGIC           CCS      MPAC
000038: 22,3514           35035                           CAF      ZERO
000039: 22,3515           13520                           TCF      +3
000040: 22,3516           13517                           NOOP
000041: 22,3517           45016                           CS       HALF
000042:
000043: 22,3520           54155                           TS       MPAC       +1
000044: 22,3521           35035                           CAF      ZERO
000045: 22,3522           56154                           XCH      MPAC
000046: 22,3523           00006                           EXTEND
000047: 22,3524           75016                           MP       HALF
000048: 22,3525           20155                           DAS      MPAC
000049: 22,3526           16030                           TCF      DANZIG                                #  MODE IS ALREADY AT DOUBLE-PRECISION
000050:
000051:                                                                                                  #  READ THE PIPS INTO MPAC WITHOUT CHANGING THEM:
000052:
000053: 22,3527           00004        READPIPS           INHINT
000054: 22,3530           30037                           CA       PIPAX
000055: 22,3531           54154                           TS       MPAC
000056: 22,3532           30040                           CA       PIPAY
000057: 22,3533           54157                           TS       MPAC       +3
000058: 22,3534           30041                           CA       PIPAZ
000059: 22,3535           00003                           RELINT
000060: 22,3536           54161                           TS       MPAC       +5
000061:
000062: 22,3537           35035                           CAF      ZERO
000063: 22,3540           54155                           TS       MPAC       +1
000064: 22,3541           54160                           TS       MPAC       +4
000065: 22,3542           54162                           TS       MPAC       +6
000066: 22,3543           16470        VECMODE            TCF      VMODE
000067:
000068:                                                                                                  #  FORCE TP SIGN AGREEMENT IN MPAC:
000069:
000070: 22,3544           07226        SGNAGREE           TC       TPAGREE
000071:
000072:
000073: 22,3545           16030                           TCF      DANZIG
000074:
000075:                                                                                                  #  CONVERT THE DP 1'S COMPLEMENT ANGLE SCALED IN REVOLUTIONS TO A SINGLE PRECISION 2'S COMPLEMENT ANGLE
000076:                                                                                                  #  SCALED IN HALF-REVOLUTIONS.
000077:
000078: 22,3546           03576        1STO2S             TC       1TO2SUB
000079: 22,3547           35035                           CAF      ZERO
000080: 22,3550           54155                           TS       MPAC       +1
000081: 22,3551           16027                           TCF      NEWMODE
000082:
000083:                                                                                                  #  DO 1STO2S ON A VECTOR OF ANGLES:
000084:
000085: 22,3552           03576        V1STO2S            TC       1TO2SUB                               #  ANSWER ARRIVES IN A AND MPAC.
000086:
000087: 22,3553           52162                           DXCH     MPAC       +5
000088: 22,3554           52155                           DXCH     MPAC
000089: 22,3555           03576                           TC       1TO2SUB
000090: 22,3556           54156                           TS       MPAC       +2
000091:
000092: 22,3557           52160                           DXCH     MPAC       +3
000093: 22,3560           52155                           DXCH     MPAC
000094: 22,3561           03576                           TC       1TO2SUB
000095: 22,3562           54155                           TS       MPAC       +1
000096:
000097: 22,3563           30161                           CA       MPAC       +5
000098: 22,3564           54154                           TS       MPAC
000099:
000100: 22,3565           35033        TPMODE             CAF      ONE                                   #  MODE IS TP.
000101: 22,3566           16027                           TCF      NEWMODE
000102:
000103:                                                                                                  #  V1STO2S FOR 2 COMPONENT VECTOR. USED BY RR.
000104:
000105: 22,3567           03576        2V1STO2S           TC       1TO2SUB
000106: 22,3570           52160                           DXCH     MPAC       +3
000107: 22,3571           52155                           DXCH     MPAC
000108: 22,3572           03576                           TC       1TO2SUB
000109: 22,3573           54001                           TS       L
000110: 22,3574           30157                           CA       MPAC       +3
000111: 22,3575           16024                           TCF      SLOAD2
000112:
000113:                                                                                                  #  SUBROUTINE TO DO DOUBLING AND 1'S TO 2'S CONVERSION:
000114:
000115: 22,3576           52155        1TO2SUB            DXCH     MPAC                                  #  FINAL MPAC +1 UNSPECIFIED.
000116: 22,3577           20001                           DDOUBL
000117: 22,3600           10000                           CCS      A
000118: 22,3601           65033                           AD       ONE
000119: 22,3602           13604                           TCF      +2
000120: 22,3603           40000                           COM                                            #  THIS WAS REVERSE OF MSU.
000121:
000122: 22,3604           54154                           TS       MPAC                                  #  AND SKIP ON OVERFLOW.
000123: 22,3605           00002                           TC       Q
000124:
000125: 22,3606           50000                           INDEX    A                                     #  OVERFLOW UNCORRECT AND IN MSU.
000126: 22,3607           35014                           CAF      LIMITS
000127: 22,3610           26154                           ADS      MPAC
000128: 22,3611           00002                           TC       Q
000129:
000130:                                                                                                  #  SUBROUTINE TO INCREMENT CDUS
000131:
000132: 22,3612           33625        INCRCDUS           CAF      LOCTHETA
000133: 22,3613           54130                           TS       BUF                                   #  PLACE ADRES(THETA) IN BUF.
000134: 22,3614           30154                           CAE      MPAC                                  #  INCREMENT IN 1S COMPL.
000135: 22,3615           03626                           TC       CDUINC
000136:
000137: 22,3616           24130                           INCR     BUF
000138: 22,3617           30157                           CAE      MPAC       +3
000139: 22,3620           03626                           TC       CDUINC
000140:
000141: 22,3621           24130                           INCR     BUF
000142: 22,3622           30161                           CAE      MPAC       +5
000143: 22,3623           03626                           TC       CDUINC
000144:
000145: 22,3624           13543                           TCF      VECMODE
000146:
000147: 22,3625           01155        LOCTHETA           ADRES    THETAD
000148:
000149:                                                                                                  #  THE FOLLOWING ROUTINE INCREMENTS IN 2S COMPLEMENT THE REGISTER WHOSE ADDRESS IS IN BUF BY THE 1S COMPL.
000150:                                                                                                  #  QUANTITY FOUND IN TEM2.  THIS MAY BE USED TO INCREMENT DESIRED IMU AND OPTICS CDU ANGLES OR ANY OTHER 2S COMPL.
000151:                                                                                                  #  (+0 UNEQUAL TO -0) QUANTITY.  MAY BE CALLED BY BANKCALL/SWCALL.
000152:
000153: 22,3626           54142        CDUINC             TS       TEM2                                  #  1S COMPL. QUANT. ARRIVES IN ACC.  STORE IT
000154: 22,3627           50130                           INDEX    BUF
000155: 22,3630           10000                           CCS      0                                     #  CHANGE 2S COMPL. ANGLE (IN BUF) INTO 1S
000156: 22,3631           65033                           AD       ONE
000157: 22,3632           13636                           TCF      +4
000158: 22,3633           65033                           AD       ONE
000159: 22,3634           65033                           AD       ONE                                   #  OVERFLOW HERE IF 2S COMPL. IS 180 DEG.
000160: 22,3635           40000                           COM
000161:
000162: 22,3636           60142                           AD       TEM2                                  #  SULT MOVES FROM 2ND TO 3D QUAD. (OR BACK)
000163: 22,3637           10000                           CCS      A                                     #  BACK TO 2S COMPL.
000164: 22,3640           65033                           AD       ONE
000165: 22,3641           13643                           TCF      +2
000166: 22,3642           40000                           COM
000167: 22,3643           54142                           TS       TEM2                                  #  STORE 14BIT QUANTITY WITH PRESENT SIGN
000168: 22,3644           13650                           TCF      +4
000169: 22,3645           50000                           INDEX    A                                     #  SIGN.
000170: 22,3646           35014                           CAF      LIMITS                                #  FIX IT, BY ADDING IN 37777 OR 40000
000171: 22,3647           60142                           AD       TEM2
000172:
000173: 22,3650           50130                           INDEX    BUF
000174: 22,3651           54000                           TS       0                                     #  STORE NEW ANGLE IN 2S COMPLEMENT.
000175: 22,3652           00002                           TC       Q
000176:
000177:                                                                                                  #  RTB TO TORQUE GYROS, EXCEPT FOR THE CALL TO IMUSTALL.  ECADR OF COMMANDS ARRIVES IN X1.
000178:
000179: 22,3653           50120        PULSEIMU           INDEX    FIXLOC                                #  ADDRESS OF GYRO COMMANDS SHOULD BE IN X1
000180: 22,3654           30046                           CA       X1
000181: 22,3655           04676                           TC       BANKCALL
000182: 22,3656           17206                           CADR     IMUPULSE
000183: 22,3657           16030                           TCF      DANZIG
000184:
000185:                                                                                                  #  EACH ROUTINE TAKES A 3X3 MATRIX STORED IN DOUBLE PRECISION IN A FIXED AREA OF ERASABLE MEMORY AND REPLACES IT
000186:                                                                                                  #  WITH THE TRANSPOSE MATRIX.  TRANSP1 USES LOCATIONS XNB+0,+1 THROUGH XNB+16D, 17D AND TRANSP2 USES LOCATIONS
000187:                                                                                                  #  XNB1+0,+1 THROUGH XNB1+16D, 17D.  EACH MATRIX IS STORED BY ROWS.
000188:
000189: 22,3660           02713        XNBEB              ECADR    XNB
000190: 22,3661           02554        XNB1EB             ECADR    XNB1
000191:
000192: 22,3662  E5,1713                                  EBANK=   XNB
000193:
000194: 22,3662           33660        TRANSP1            CAF      XNBEB
000195: 22,3663           54003                           TS       EBANK
000196: 22,3664           53716                           DXCH     XNB        +2
000197: 22,3665           53722                           DXCH     XNB        +6
000198: 22,3666           53716                           DXCH     XNB        +2
000199:
000200: 22,3667           53720                           DXCH     XNB        +4
000201: 22,3670           53730                           DXCH     XNB        +12D
000202: 22,3671           53720                           DXCH     XNB        +4
000203:
000204: 22,3672           53726                           DXCH     XNB        +10D
000205: 22,3673           53732                           DXCH     XNB        +14D
000206: 22,3674           53726                           DXCH     XNB        +10D
000207: 22,3675           16030                           TCF      DANZIG
000208: 22,3676  E5,1554                                  EBANK=   XNB1
000209:
000210: 22,3676           33661        TRANSP2            CAF      XNB1EB
000211: 22,3677           54003                           TS       EBANK
000212: 22,3700           53557                           DXCH     XNB1       +2
000213: 22,3701           53563                           DXCH     XNB1       +6
000214: 22,3702           53557                           DXCH     XNB1       +2
000215:
000216: 22,3703           53561                           DXCH     XNB1       +4
000217: 22,3704           53571                           DXCH     XNB1       +12D
000218: 22,3705           53561                           DXCH     XNB1       +4
000219:
000220: 22,3706           53567                           DXCH     XNB1       +10D
000221: 22,3707           53573                           DXCH     XNB1       +14D
000222: 22,3710           53567                           DXCH     XNB1       +10D
000223: 22,3711           16030                           TCF      DANZIG
000224:
000225:                                                                                                  #  THE SUBROUTINE SIGNMPAC SETS C(MPAC, MPAC +1) TO SIGN(MPAC).
000226:                                                                                                  #  FOR THIS, ONLY THE CONTENTS OF MPAC ARE EXAMINED.  ALSO +0 YIELDS POSMAX AND -0 YIELDS NEGMAX.
000227:
000228:                                                                                                  #  ENTRY MAY BE BY EITHER OF THE FOLLOWING:
000229:                                                                                                  #        1.      LIMIT THE SIZE OF MPAC ON INTERPRETIVE OVERFLOW:
000230:                                                                                                  #                ENTRY:          BOVB
000231:                                                                                                  #                                        SIGNMPAC
000232:                                                                                                  #        2.      GENERATE IN MPAC THE SIGNUM FUNCTION OF MPAC:
000233:                                                                                                  #                ENTRY:          RTB
000234:                                                                                                  #                                        SIGNMPAC
000235:                                                                                                  #  IN EITHER CASE, RETURN IS TO THE NEXT INTERPRETIVE INSTRUCTION IN THE CALLING SEQUENCE.
000236:
000237: 22,3712           00006        SIGNMPAC           EXTEND
000238: 22,3713           35013                           DCA      DPOSMAX
000239: 22,3714           52155                           DXCH     MPAC
000240: 22,3715           10000                           CCS      A
000241: 22,3716           35035        DPMODE             CAF      ZERO                                  #  SETS MPAC +2 TO ZERO IN THE PROCESS
000242: 22,3717           16026                           TCF      SLOAD2     +2
000243: 22,3720           13721                           TCF      +1
000244: 22,3721           00006                           EXTEND
000245: 22,3722           45013                           DCS      DPOSMAX
000246: 22,3723           16024                           TCF      SLOAD2
000247:
000248:                                                                                                  #  RTB OP CODE NORMUNIT IS LIKE INTERPRETIVE INSTRUCTION UNIT, EXCEPT THAT IT CAN BE DEPENDED ON NOT TO BLOW
000249:                                                                                                  #  UP WHEN THE VECTOR BEING UNITIZED IS VERY SMALL -- IT WILL BLOW UP WHEN ALL COMPONENTS ARE ZERO.  IF NORMUNIT
000250:                                                                                                  #  IS USED AND THE UPPER ORDER HALVES OF ALL COMPONENTS ARE ZERO, THE MAGNITUDE RETURNED IN 36D WILL BE TOO LARGE
000251:                                                                                                  #  BY A FACTOR OF 2(13) AND THE SQUARED MAGNITUDE RETURNED AT 34D WILL BE TOO BIG BY A FACTOR OF 2(26).
000252:
000253: 22,3724           35033        NORMUNX1           CAF      ONE
000254: 22,3725           13727                           TCF      NORMUNIT   +1
000255: 22,3726           35035        NORMUNIT           CAF      ZERO
000256: 22,3727           60120                           AD       FIXLOC
000257: 22,3730           54156                           TS       MPAC       +2
000258: 22,3731           04676                           TC       BANKCALL                              #  GET SIGN AGREEMENT IN ALL COMPONENTS
000259: 22,3732           01010                           CADR     VECAGREE
000260: 22,3733           10154                           CCS      MPAC
000261: 22,3734           13770                           TCF      NOSHIFT
000262: 22,3735           13737                           TCF      +2
000263: 22,3736           13770                           TCF      NOSHIFT
000264: 22,3737           10157                           CCS      MPAC       +3
000265: 22,3740           13770                           TCF      NOSHIFT
000266: 22,3741           13743                           TCF      +2
000267: 22,3742           13770                           TCF      NOSHIFT
000268: 22,3743           10161                           CCS      MPAC       +5
000269: 22,3744           13770                           TCF      NOSHIFT
000270: 22,3745           13747                           TCF      +2
000271: 22,3746           13770                           TCF      NOSHIFT
000272: 22,3747           30155                           CA       MPAC       +1                         #  SHIFT ALL COMPONENTS LEFT 13
000273: 22,3750           00006                           EXTEND
000274: 22,3751           75016                           MP       BIT14
000275: 22,3752           20155                           DAS      MPAC                                  #  DAS GAINS A LITTLE ACCURACY
000276: 22,3753           30160                           CA       MPAC       +4
000277: 22,3754           00006                           EXTEND
000278: 22,3755           75016                           MP       BIT14
000279: 22,3756           20160                           DAS      MPAC       +3
000280: 22,3757           30162                           CA       MPAC       +6
000281: 22,3760           00006                           EXTEND
000282: 22,3761           75016                           MP       BIT14
000283: 22,3762           20162                           DAS      MPAC       +5
000284: 22,3763           35041                           CAF      THIRTEEN
000285: 22,3764           50156                           INDEX    MPAC       +2
000286: 22,3765           54045                           TS       37D
000287: 22,3766           04715        OFFTUNIT           TC       POSTJUMP
000288: 22,3767           01024                           CADR     UNIT       +1                         #  SKIP THE "TC VECAGREE" DONE AT UNIT
000289:
000290: 22,3770           35035        NOSHIFT            CAF      ZERO
000291: 22,3771           13764                           TCF      OFFTUNIT   -2
000292:
000293:                                                                                                  #  RTB VECSGNAG ... FORCES SIGN AGREEMENT OF VECTOR IN MPAC.
000294:
000295: 22,3772           04676        VECSGNAG           TC       BANKCALL
000296: 22,3773           01010                           CADR     VECAGREE
000297: 22,3774           06030                           TC       DANZIG
000298:


000313:
000314: 11,2000                                           SETLOC   MODCHG1
000315: 11,2000                                           BANK
000316: 11,3760                                           COUNT*   $$/T4RPT
000317:
000318: 11,3760           10000        GLOCKCK1           CCS      A
000319: 11,3761           13770                           TCF      NOGIMRN1
000320:
000321: 11,3762  E6,1466                                  EBANK=   DAPDATR1
000322: 11,3762           35073                           CAF      EBANK6
000323: 11,3763           54003                           TS       EBANK
000324: 11,3764           41466                           CS       DAPDATR1
000325: 11,3765           74371                           MASK     PRIO30
000326: 11,3766           10000                           CCS      A
000327: 11,3767           13772                           TCF      CALLCRS1                              #  NO
000328:
000329: 11,3770           04754        NOGIMRN1           TC       IBNKCALL                              #  YES, DON'T COARSE ALIGN
000330: 11,3771           14455                           CADR     NOGIMRUN
000331:
000332: 11,3772           04754        CALLCRS1           TC       IBNKCALL
000333: 11,3773           14447                           CADR     CALLCRS

End of include-file RTB_OP_CODES.agc.  Parent file is MAIN.agc


