
Source Code


000002:                                                                                                  ## Copyright:   Public domain.
000003:                                                                                                  ## Filename:    SERVICER207.agc
000004:                                                                                                  ## Purpose:     A section of Manche72 revision 3.
000005:                                                                                                  ##              It is part of the reconstructed source code for the final, flown
000006:                                                                                                  ##              release of the software for the Command Module's (CM) Apollo
000007:                                                                                                  ##              Guidance Computer (AGC) for Apollo 13. No original listings
000008:                                                                                                  ##              of this program are available; instead, this file was recreated
000009:                                                                                                  ##              from a reconstructed copy of Comanche 072. It has been adapted
000010:                                                                                                  ##              such that the resulting bugger words exactly match those
000011:                                                                                                  ##              specified for Manche72 revision 3 in NASA drawing 2021153G,
000012:                                                                                                  ##              which gives relatively high confidence that the reconstruction
000013:                                                                                                  ##              is correct.
000014:                                                                                                  ## Assembler:   yaYUL
000015:                                                                                                  ## Contact:     Ron Burkey <info@sandroid.org>.
000016:                                                                                                  ## Website:     www.ibiblio.org/apollo/index.html
000017:                                                                                                  ## Mod history: 2024-05-19 MAS  Created from Comanche 072.
000018:
000019:                                                                                                  #  PROGRAM NAME -        PREREAD, READACCS, SERVICER, AVERAGE G.
000020:                                                                                                  #  MOD NO. 00 BY M. HAMILTON     DEC. 12, 1966
000021:
000022:                                                                                                  #  FUNCTIONAL DESCRIPTION
000023:
000024:                                                                                                  #  THE ROUTINES DESCRIBED BELOW ARE USED TO CALCULATE VALUES OF RN, VN, AND GDT/2 DURING ACCELERATED FLIGHT.
000025:                                                                                                  #  THE SEVERAL ROUTINES COMPRISE A PACKAGE AND ARE NOT MEANT TO BE USED AS SEPARATE SUBROUTINES.
000026:
000027:                                                                                                  #  GENERAL REFERENCES TO  SERVICER  OR  AVERAGE G  ARE UNDERSTOOD TO REFER TO THE ENTIRE SET OF ROUTINES INCLUDING
000028:                                                                                                  #  READACCS, SERVICER, AVERAGE G, INTEREAD, SMOOTHER, AND ANY ADDITIONAL ROUTINES ATTACHED AT AVGEXIT (SEE BELOW).
000029:
000030:                                                                                                  #  PROGRAMS INITIATING SERVICER ARE REQUIRED TO MAKE A WAITLIST CALL FOR PREREAD (OR, IF LIFTOFF, FOR BIBIBIAS)
000031:                                                                                                  #  AT 2 SECONDS BEFORE THE FIRST AVERAGE G UPDATE IN ORDER TO INITIALIZE THE SEQUENCE, WHICH WILL RECUR EVERY
000032:                                                                                                  #  2 SECONDS FROM THAT TIME ON AS LONG AS AVEGFLAG REMAINS SET.
000033:
000034:                                                                                                  #  THE USE OF ERASABLE AVGEXIT ALLOWS VARIOUS ROUTINES TO BE PERFORMED AS PART OF THE NORMAL CYCLE (SEE
000035:                                                                                                  #  EXPLANATION OF AVGEXIT BELOW).
000036:
000037:                                                                                                  #  DESCRIPTIONS OF INDIVIDUAL ROUTINES FOLLOW.
000038:
000039:                                                                                                  #        PREREAD
000040:
000041:                                                                                                  #                PREVIOUSLY EXTRAPOLATED VALUES COPIED FROM RN1, VN1, AND PIPTIME1 INTO RN, VN, AND PIPTIME.
000042:                                                                                                  #                LASTBIAS JOB SCHEDULED.
000043:                                                                                                  #                PIPS READ AND CLEARED VIA PIPASR SUBROUTINE.
000044:                                                                                                  #                AVERAGE G FLAG SET ON.
000045:                                                                                                  #                DRIFT FLAG SET OFF.
000046:                                                                                                  #                V37 FLAG SET ON.
000047:                                                                                                  #                INITIALIZATION OF       1) THRUST MONITOR (DVMON) - DVCNTR SET TO ONE.
000048:                                                                                                  #                                        2) TOTAL ACCUMULATED DELV VALUE (DVTOTAL) - SET TO ZERO.
000049:                                                                                                  #                                        3) AXIS VECTOR (AXIS) - SET TO (.5,0,0).
000050:                                                                                                  #                NORMLIZE JOB SCHEDULED.
000051:                                                                                                  #                READACCS TASK CALLED IN 2 SECONDS.
000052:
000053:                                                                                                  #        NORMLIZE
000054:
000055:                                                                                                  #                GDT/2 INITIALIZED VIA CALCGRAV SUBROUTINE.
000056:
000057:                                                                                                  #        READACCS
000058:
000059:                                                                                                  #                IF ONMON FLAG SET QUIKREAD ROUTINE IS PERFORMED BEFORE PIPASR ZEROS THE PIPA REGISTERS, AND THE 1/2 SEC
000060:                                                                                                  #                ONMONITOR LOOP IS INITIATED TO PROVIDE DOWNLINK INFORMATION DURING ENTRY.
000061:                                                                                                  #                PIPS READ AND CLEARED BY PIPASR SUBROUTINE.
000062:                                                                                                  #                IF CM/DSTBY IS ON, ENTRY VARIABLES INITIALIZED AND SETJTAG TASK CALLED.
000063:
000064:                                                                                                  #                IF AVERAGEG FLAG ON     READACCS CALLED TO RECYCLE IN 2 SECONDS.
000065:                                                                                                  #                IF AVERAGEG FLAG OFF    AVERAGE G EXIT (AVGEXIT) SET TO 2CADR AVGEND FOR FINAL PASS.
000066:                                                                                                  #                SERVICER JOB SCHEDULED.
000067:                                                                                                  #                TEST CONNECTOR OUTBIT TURNED ON.
000068:
000069:                                                                                                  #        ONMNITOR
000070:
000071:                                                                                                  #                A SEQUENCE OF THREE PASSES THROUGH QUICKREAD FOLLOWING A CALL TO READACCS WITH ONMONFLG SET AT 1/2
000072:                                                                                                  #                SEC INTERVALS.  INTERVALS ARE COUNTED OUT BY PIPCTR, INITIALISED AT 3 BY READACCS
000073:
000074:                                                                                                  #        QUIKREAD
000075:
000076:                                                                                                  #                READS CURRENT PIPS INTO X,Y,ZPIPBUF.  READS OLD X,Y,ZPIPBUF INTO X,Y,ZOLDBUF.  VALUES ARE SENT TO
000077:                                                                                                  #                DOWNLIST DURING ENTRY.
000078:
000079:                                                                                                  #        SERVICER
000080:
000081:                                                                                                  #                DELV VALUES CHECKED TO DETECT RUNAWAY PIP -
000082:                                                                                                  #                        IF BAD PIP      1) ALARM SENT.
000083:                                                                                                  #                                        2) COMPENSATION, DVTOTAL ACCUMULATION, AND DVMON BYPASSED.  CONTROL
000084:                                                                                                  #                                           TRANSFERRED TO AVERAGE G.
000085:                                                                                                  #                PIPS COMPENSATED VIA 1/PIPA SUBROUTINE.
000086:                                                                                                  #                DVTOTAL INCREMENTED BY ABSOLUTE VALUE OF DELV.
000087:                                                                                                  #                THRUST MONITOR (DVMON) PERFORMED UNLESS IDLE FLAG IS ON.
000088:                                                                                                  #                CONTROL TRANSFERRED TO AVERAGE G.
000089:
000090:                                                                                                  #        DVMON
000091:
000092:                                                                                                  #                THRESHOLD VALUE (PLACED IN DVTHRUSH BY USER) CHECKED AGAINST ABSOLUTE VALUE OF DELV TO CHECK
000093:                                                                                                  #                THRUST LEVEL.
000094:
000095:                                                                                                  #                        IF THRUST       1) ULLAGE OFF ROUTINE PERFORMED.
000096:                                                                                                  #                                        2) STEERING FLAG TURNED ON AT FIRST DETECTION OF THRUST.
000097:                                                                                                  #                                        3) CONTROL TRANSFERRED TO AVERAGE G.
000098:                                                                                                  #                        IF NO THRUST    1) ON FIRST PASS THROUGH MONITOR, CONTROL TRANSFERRED TO AVERAGE G.
000099:                                                                                                  #                                        2) ON SUBSEQUENT PASSES, CONTROL TRANSFERRED TO ENGINE FAIL ROUTINE IF THRUST
000100:                                                                                                  #                                           HAS FAILED FOR 3 CONSECUTIVE PASSES.
000101:
000102:                                                                                                  #        ENGINE FAIL
000103:
000104:                                                                                                  #                ENGFAIL1 TASK CALLED IN 2.5 SECONDS.  THIS WILL RETURN CONTROL TO TIG-5 SO THAT THE IGNITION
000105:                                                                                                  #                        SEQUENCE MAY BE REPEATED.
000106:                                                                                                  #                ENGINOF3 PERFORMED.
000107:                                                                                                  #                DAP SET UP FOR RCS.
000108:                                                                                                  #
000109:                                                                                                  #        AVERAGE G
000110:                                                                                                  #                RN1, VN1, GDT1/2 CALCULATED VIA CALCRVG ROUTINE BY UPDATING RN, VN WITH DELV AND AN AVERAGED VALUE
000111:                                                                                                  #                        OF GDT/2.
000112:                                                                                                  #                RN1, VN1, GDT1/2, PIPTIME1 COPIED INTO RN, VN, GDT/2, PIPTIME FOR RESTART PROTECTION.
000113:                                                                                                  #                CONTROL TRANSFERRED TO ADDRESS SPECIFIED BY USER (OR BY READACCS FOR LAST PASS) IN AVGEXIT.
000114:                                                                                                  #                LAST PASS (AVGEND)      1) FREE FALL GYRO COMPENSATION SET UP.
000115:                                                                                                  #                                        2) DRIFT FLAG TURNED ON.
000116:                                                                                                  #                                        3) STATE VECTOR TRANSFERRED VIA AVETOMID ROUTINE.
000117:                                                                                                  #                                        4) ONMONITOR FLAG RESET.
000118:                                                                                                  #                                        5) V37 FLAG RESET.
000119:                                                                                                  #                                        6) TEST CONNECTOR OUTBIT RESET.
000120:                                                                                                  #                                        7) CONTROL TRANSFERRED TO CANV37 TO CONTINUE MM CHANGE ROUTINE (R00).
000121:
000122:                                                                                                  #  CALLING SEQUENCE
000123:
000124:                                                                                                  #        PREREAD ENTERED DIRECTLY FROM TIG-30 VIA POSTJUMP.
000125:                                                                                                  #        READACCS CALLED AS WAITLIST TASK.                                          .
000126:
000127:                                                                                                  #  SUBROUTINES CALLED
000128:
000129:                                                                                                  #        UTILITY ROUTINES - PHASCHNG FLAGUP FLAGDOWN NOVAC FINDVAC WAITLIST ALARM NEWPHASE 2PHSCHNG
000130:
000131:                                                                                                  #        OTHER - PIPASR 1/PIPA CALCGRAV CALCRVG AVETOMID
000132:
000133:                                                                                                  #  NORMAL EXIT MODES
000134:
000135:                                                                                                  #        ENDOFJOB        TASKOVER        CANV37
000136:
000137:                                                                                                  #        AVGEXIT -       THIS IS A DOUBLE PRECISION ERASABLE LOCATION BY WHICH CONTROL IS TRANSFERRED AT THE END
000138:                                                                                                  #                                OF EACH CYCLE OF AVERAGE G.
000139:                                                                                                  #                        THE 2CADR OF A ROUTINE TO BE PERFORMED AT THAT TIME (E.G., STEERING EQUATIONS TO BE PERFORMED
000140:                                                                                                  #                                AT 2 SECOND INTERVALS) MAY BE SET BY THE USER INTO AVGEXIT.
000141:                                                                                                  #                        ALL SUCH ROUTINES SHOULD RETURN TO SERVEXIT, WHICH IS THE NORMAL EXIT FROM AVERAGE G.
000142:
000143:                                                                                                  #        SERVEXIT -      DOES A PHASE CHANGE FOR RESTART PROTECTION AND GOES TO ENDOFJOB.
000144:                                                                                                  #                        THE 2CADR OF SERVEXIT IS SET INTO AVGEXIT BY THE USER IF NO OTHER ROUTINE (SEE ABOVE).
000145:
000146:                                                                                                  #        AVGEND -        LAST PASS OF AVERAGE G EXITS HERE, BYPASSING SPECIAL ROUTINE (SEE ABOVE UNDER READACCS).
000147:                                                                                                  #                        FINAL EXIT IS TO CANV37.                                F AVERAGE G).
000148:
000149:                                                                                                  #  OUTPUT
000150:
000151:                                                                                                  #        DVTOTAL(2)  PIPTIME(2)  XPIPBUF(2)  YPIPBUF(2)  ZPIPBUF(2)
000152:                                                                                                  #        RN(6)           REFERENCE COORD.        SCALED AT 2(+29) M/CS
000153:                                                                                                  #        VN(6)           REFERENCE COORD.        SCALED AT 2(+7) M/CS
000154:                                                                                                  #        GDT/2(6)        REFERENCE COORD.        SCALED AT 2(+7) M/CS
000155:                                                                                                  #        DELV(6)         STABLE MEMB. COORD.     SCALED AT 2(+14)*5.85*10(-4) M/CS (KPIP1 USED TO GET DV/2 AT 2(+7))
000156:                                                                                                  #        DELVREF(6)      REFERENCE COORD.        SCALED AT 2(+7) M/CS
000157:
000158:                                                                                                  #  INITIALIZATION
000159:
000160:                                                                                                  #        ONMONITOR FLAG SET BY ENTRY TO SHOW PIPBUF VALUES REQUIRED.
000161:                                                                                                  #        IDLE FLAG ON IF DVMON TO BE BYPASSED.
000162:                                                                                                  #        DVTHRUSH SET TO APPROPRIATE VALUE FOR DVMON.
000163:                                                                                                  #        AVGEXIT SET TO 2CADR OF ROUTINE, IF ANY, TO BE PERFORMED AFTER EACH CYCLE OF AVERAGE G.  IF NO ROUTINE
000164:                                                                                                  #                TO BE DONE, AVGEXIT SET TO SERVEXIT.
000165:                                                                                                  #        VALUES NEEDED
000166:                                                                                                  #                REFSMMAT
000167:                                                                                                  #                UNITW -  FULL UNIT VECTOR, IN REFERENCE COORD., OF EARTH S ROTATIONAL VECTOR
000168:                                                                                                  #                RN1, VN1, PIPTIME1 -  IN REFERENCE COORD., CONSISTENT WITH TIME OF EXECUTION OF PREREAD
000169:
000170:                                                                                                  #  DEBRIS
000171:
000172:                                                                                                  #        CENTRALS        A, L, Q
000173:                                                                                                  #        OTHER           INTERNAL - DVCNTR(1)  PIPAGE(1)  PIPCTR(1)  AVGEXIT(2)
000174:                                                                                                  #                        EXTERNAL - ITEMP1(1)  ITEMP2(1)  RUPTREG1(1)  TEMX(1)  TEMY(1)  TEMZ(1)
000175:                                                                                                  #                        USEFUL DEBRIS
000176:                                                                                                  #                                RN1(6)  VN1(6)  GDT1/2  PIPTIME1(2)
000177:                                                                                                  #                                        THESE LOCATIONS USED AS BUFFER STORAGE FOR NEWLY CALCULATED VALUES OF RN, VN, GDT/2,
000178:                                                                                                  #                                        AND PIPTIME DURING PERFORMANCE OF SERVICER ROUTINES.
000179:                                                                                                  #                                UNITR - HALF UNIT VECTOR OF RN, REFERENCE COORD.
000180:                                                                                                  #                                RMAG SCALED AT 2(+58) IN 36D.
000181:                                                                                                  #                                RMAGSQ SCALED AT 2(+58) IN 34D.
000182:                                                                                                  #                                (RE/RMAG)SQ IN 32D.
000183:
000184: 27,2672                                           BANK     27
000185: 37,2000                                           SETLOC   SERVICES
000186: 37,2000                                           BANK
000187:
000188: 37,2714  E7,1431                                  EBANK=   DVCNTR
000189:                                                                                                  #  *************************************   PREREAD   **************************************************************
000190:
000191: 37,2714                                           COUNT    37/SERV
000192:
000193: 37,2714           35107        PREREAD            CAF      PRIO21                                #  CALLER MUST PROTECT PREREAD
000194: 37,2715           05150                           TC       NOVAC
000195: 37,2716  E3,1460                                  EBANK=   NBDX
000196: 37,2716           03636 14063                     2CADR    LASTBIAS                              #  DO LAST GYRO COMPENSATION IN FREE FALL
000197:
000198:                                                                                                  #  CALL-TO AND LASTBIAS ITSELF ARE NOT
000199:                                                                                                  #        PROTECTED. REREADAC SETS 1/PIPADT
000200:                                                                                                  #        TO 2.0 SECS IN CASE LASTBIAS LOST.
000201:                                                                                                  #        (REDUNDANT IF LASTBIAS IS AOK)
000202: 37,2720           02735        REDO5.31           TC       PREREAD1
000203:
000204: 37,2721           37667                           CAF      PRIO32
000205: 37,2722           05163                           TC       FINDVAC                               #  SET UP NORMLIZE JOB REQUIRED PRIOR TO
000206: 37,2723  E7,1431                                  EBANK=   DVCNTR                                #  FIRST AVERAGE G PASS
000207: 37,2723           03240 76067                     2CADR    NORMLIZE
000208:
000209: 37,2725           35056                           CAF      2SECS
000210: 37,2726           05261                           TC       WAITLIST
000211: 37,2727  E6,1661                                  EBANK=   AOG
000212: 37,2727           02757 76066                     2CADR    READACCS
000213:
000214: 37,2731           45032                           CS       TWO
000215: 37,2732           04114                           TC       NEWPHASE
000216: 37,2733           00005                           OCT      5
000217:
000218: 37,2734           15340                           TCF      TASKOVER
000219:
000220: 37,2735           00006        PREREAD1           EXTEND
000221: 37,2736           22070                           QXCH     RUPTREG1
000222:
000223: 37,2737           03256                           TC       PIPASR                                #  CLEAR + READ PIPS LAST TIME IN FREE FALL
000224:
000225: 37,2740           35033                           CAF      ONE                                   #  SET UP PIPAGE FOR REREADAC IN CASE A
000226: 37,2741           55230                           TS       PIPAGE                                #        RESTART OCCURS BEFORE READACCS
000227:
000228: 37,2742           40075                           CS       FLAGWRD1                              #  SET AVEG FLAG
000229: 37,2743           75033                           MASK     BIT1
000230: 37,2744           26075                           ADS      FLAGWRD1
000231:
000232: 37,2745           35013                           CA       POSMAX
000233: 37,2746           70076                           MASK     FLAGWRD2
000234: 37,2747           54076                           TS       FLAGWRD2                              #  KNOCK DOWN DRIFT FLAG
000235:
000236: 37,2750           40103                           CS       FLAGWRD7                              #  SET V37 FLAG
000237: 37,2751           75026                           MASK     BIT6
000238: 37,2752           26103                           ADS      FLAGWRD7
000239:
000240: 37,2753           35035                           CAF      ZERO
000241: 37,2754           55425                           TS       DVTOTAL                               #  CLEAR DVTOTAL
000242: 37,2755           55426                           TS       DVTOTAL    +1
000243:
000244: 37,2756           00070                           TC       RUPTREG1
000245:
000246:                                                                                                  #  *************************************   READACCS   *************************************************************
000247: 37,2757  E6,1661                                  EBANK=   AOG
000248: 37,2757           03256        READACCS           TC       PIPASR
000249:
000250: 37,2760           35036        PIPSDONE           CAF      FIVE
000251: 37,2761           54001                           TS       L
000252: 37,2762           40000                           COM
000253: 37,2763           52763                           DXCH     -PHASE5
000254:
000255: 37,2764           35033        REDO5.5            CAF      ONE                                   #  SHOW PIPS HAVE BEEN READ
000256: 37,2765           55230                           TS       PIPAGE
000257:
000258: 37,2766           35032                           CA       TWO                                   #  SET PIPCTR FOR ONMINTOR
000259: 37,2767           55227                           TS       PIPCTR                                #  AFTER ABOVE PHASCHNG
000260:
000261: 37,2770           40102                           CS       CM/FLAGS
000262: 37,2771           75032                           MASK     BIT2                                  #  CM/DSTBY
000263: 37,2772           10000                           CCS      A
000264: 37,2773           03046                           TC       CHEKAVEG
000265:
000266: 37,2774           41246                           CS       PIPTIME1   +1
000267: 37,2775           55065                           TS       TBASE6                                #  FOR RESTARTS
000268: 37,2776           00006                           EXTEND                                         #  CONTINUE FOR ENTRY DAP
000269: 37,2777           31662                           DCA      AOG
000270: 37,3000           53670                           DXCH     AOG/PIP
000271: 37,3001           31663                           CA       AMG
000272: 37,3002           57671                           XCH      AMG/PIP
000273: 37,3003           00006                           EXTEND
000274: 37,3004           31665                           DCA      ROLL/180
000275: 37,3005           53673                           DXCH     ROLL/PIP
000276: 37,3006           31666                           CA       BETA/180
000277: 37,3007           57674                           XCH      BETA/PIP
000278: 37,3010           30102                           CA       CM/FLAGS
000279: 37,3011           75020                           MASK     BIT12                                 #  CM/DAPARM 93D BIT12
000280: 37,3012           00006                           EXTEND                                         #  DURING ENTRY, WHEN RCS DAP IS INACTIVE,
000281: 37,3013           13031                           BZF      NOSAVPIP                              #  SAVE PIPAS EACH 0.5 SEC FOR TM.
000282:
000283: 37,3014           35052                           CAF      .5SEC
000284: 37,3015           05261                           TC       WAITLIST
000285: 37,3016  E6,1533                                  EBANK=   XPIPBUF
000286: 37,3016           02437 32066                     2CADR    QUIKREAD
000287:
000288:                                                                                                  #  NO NEED TO RESTART PROTECT THIS.
000289: 37,3020           31162                           CA       DELVX                                 #  SAVE PIPAS AS READ (BUT NOT COMPENSATED)
000290: 37,3021           57533                           XCH      XPIPBUF
000291: 37,3022           55536                           TS       XOLDBUF
000292:
000293: 37,3023           31164                           CA       DELVY
000294: 37,3024           57534                           XCH      YPIPBUF
000295: 37,3025           55537                           TS       YOLDBUF
000296: 37,3026           31166                           CA       DELVZ
000297: 37,3027           57535                           XCH      ZPIPBUF
000298: 37,3030           55540                           TS       ZOLDBUF
000299:
000300: 37,3031           35036        NOSAVPIP           CA       FIVE
000301: 37,3032           55725                           TS       CM/GYMDT
000302:
000303: 37,3033           33235                           CA       JTAGTIME                              #  ACTIVATE CM/RCS AFTER PIPUP TO GO
000304:                                                                                                  #  IN JTAGTIME +5 CS.
000305: 37,3034           05261                           TC       WAITLIST
000306: 37,3035  E6,1661                                  EBANK=   AOG
000307: 37,3035           03227 32066                     2CADR    SETJTAG
000308:
000309: 37,3037           46214                           CS       THREE                                 #  1.3SPOT FOR SETJTAG
000310: 37,3040           04114                           TC       NEWPHASE
000311: 37,3041           00001                           OCT      1
000312:
000313: 37,3042           34362                           CAF      OCT37
000314: 37,3043           54001                           TS       L
000315: 37,3044           40000                           COM
000316: 37,3045           52763                           DXCH     -PHASE5
000317:
000318: 37,3046           40075        CHEKAVEG           CS       FLAGWRD1
000319: 37,3047           75033                           MASK     BIT1
000320: 37,3050           10000                           CCS      A                                     #  IF AVEG FLAG DOWN SET FINAL EXIT AVEG
000321: 37,3051           03071                           TC       AVEGOUT
000322:
000323: 37,3052           35056                           CAF      2SECS
000324: 37,3053           05261                           TC       WAITLIST
000325: 37,3054  E6,1661                                  EBANK=   AOG
000326: 37,3054           02757 76066                     2CADR    READACCS
000327:
000328: 37,3056           35016        MAKESERV           CAF      PRIO20                                #  ESTABLISH SERVICER ROUTINE
000329: 37,3057           05163                           TC       FINDVAC
000330: 37,3060  E7,1431                                  EBANK=   DVCNTR
000331: 37,3060           03077 76067                     2CADR    SERVICER
000332:
000333: 37,3062           45031                           CS       FOUR                                  #  RESTART SERVICER AND READACCS
000334: 37,3063           04114                           TC       NEWPHASE
000335: 37,3064           00005                           OCT      5
000336:
000337: 37,3065           35023                           CAF      BIT9
000338: 37,3066           00006                           EXTEND
000339: 37,3067           05011                           WOR      DSALMOUT                              #  TURN TEST CONNECTOR OUTBIT ON
000340:
000341: 37,3070           15340                           TCF      TASKOVER                              #  END PREVIOUS READACCS WAITLIST TASK
000342:
000343: 37,3071           00006        AVEGOUT            EXTEND
000344: 37,3072           33076                           DCA      AVOUTCAD
000345: 37,3073           53223                           DXCH     AVGEXIT
000346: 37,3074           13056                           TCF      MAKESERV
000347:
000348: 37,3075  E7,1431                                  EBANK=   DVCNTR
000349: 37,3075           03167 76067  AVOUTCAD           2CADR    AVGEND
000350:
000351:                                                                                                  #  ROUTINE NAME: ONMNITOR
000352:                                                                                                  #  MOD 04 BY BAIRNSFATHER 30 APR 1968    REDO ONMNITOR TO SAVE PIPS EACH 0.5 SEC FOR TM,ENTRY.
000353:                                                                                                  #  MOD 03 BY FISHER DECEMBER 1967
000354:                                                                                                  #  MOD 02 BY RYE SEPT 1967
000355:                                                                                                  #  MOD 01 BY KOSMALA 23 MAR 1967
000356:                                                                                                  #  MOD 00 BY KOSMALA 27 FEB 1967
000357:
000358:                                                                                                  #  FUNCTIONAL DESCRIPTION
000359:
000360:                                                                                                  #        THE PURPOSE OF ONMONITOR IS TO PROVIDE 1/2 SEC. READING OF PIPAS FOR DOWNLIST DURING ENTRY.
000361:                                                                                                  #        X,Y,ZPIPBUF CONTAIN PRESENT VALUES X,Y,ZOLDBUF CONTAIN VALUES FROM PREVIOUS READING.
000362:
000363:                                                                                                  #  CALLING SEQUENCE
000364:
000365:                                                                                                  #        CALL AS WAITLIST TASK. TERMINATES ITSELF IN TASKOVER
000366:
000367:                                                                                                  #  INITIALISATION
000368:
000369:                                                                                                  #        PIPCTR = 2 (FOR DT = 0.5 SEC)
000370:                                                                                                  #        X,Y,ZPIPBUF SET TO PREVIOUS PIPAX,Y,Z
000371:
000372:                                                                                                  #  OUTPUT
000373:
000374:                                                                                                  #        X,Y,ZPIPBUF, X,Y,ZOLDBUF
000375:
000376:                                                                                                  #  DEBRIS
000377:
000378:                                                                                                  #        X,Y,ZPIPBUF CONTAIN LAST PIPAX,Y,Z VALUES
000379:                                                                                                  #                X,Y,ZOLDBUF CONTAIN LAST-BUT-ONE PIPAX,Y,Z VALUES
000380:                                                                                                  #        RUPTREG1
000381:                                                                                                  #        PIPCTR
000382:
000383: 15,2000                                           SETLOC   SERV1
000384: 15,2000                                           BANK
000385: 15,2434                                           COUNT*   $$/SERV
000386:
000387: 15,2434           55227        ONMNITOR           TS       PIPCTR
000388:
000389: 15,2435           05303                           TC       FIXDELAY                              #  WAIT
000390: 15,2436           00062        0.5SEC             DEC      50         B-14
000391:
000392: 15,2437           35032        QUIKREAD           CAF      TWO
000393: 15,2440           54070                           TS       RUPTREG1
000394: 15,2441           50000                           INDEX    A
000395: 15,2442           30037                           CA       PIPAX                                 #  SAVE ACTUAL PIPAS FOR TM.
000396: 15,2443           50070                           INDEX    RUPTREG1
000397: 15,2444           57533                           XCH      XPIPBUF                               #  UPDATE X,Y,ZPIPBUF
000398: 15,2445           50070                           INDEX    RUPTREG1
000399: 15,2446           55536                           TS       XOLDBUF                               #  AND X,Y,ZOLDBUF
000400: 15,2447           10070        CHKCTR             CCS      RUPTREG1
000401: 15,2450           12440                           TCF      QUIKREAD   +1                         #  LOOP AGAIN
000402: 15,2451           11227                           CCS      PIPCTR
000403: 15,2452           12434                           TCF      ONMNITOR
000404: 15,2453           05340                           TC       TASKOVER
000405:
000406:                                                                                                  #  *************************************   SERVICER   *************************************************************
000407: 37,2000                                           SETLOC   SERVICES
000408: 37,2000                                           BANK
000409: 37,3077                                           COUNT*   $$/SERV
000410:
000411: 37,3077  E7,1431                                  EBANK=   DVCNTR
000412:
000413: 37,3077           35032        SERVICER           CAF      TWO
000414: 37,3100           00004                           INHINT
000415: 37,3101           54070        PIPCHECK           TS       RUPTREG1
000416:
000417: 37,3102           60000                           DOUBLE
000418: 37,3103           50000                           INDEX    A
000419: 37,3104           11162                           CCS      DELVX
000420: 37,3105           03107                           TC       +2
000421: 37,3106           03115                           TC       PIPLOOP
000422:
000423: 37,3107           63234                           AD       -MAXDELV                              #  DO PIPA-SATURATION TEST BEFORE
000424: 37,3110           00006                           EXTEND
000425: 37,3111           63115                           BZMF     PIPLOOP                               #  COMPENSATION.
000426:
000427: 37,3112           05664                           TC       ALARM
000428: 37,3113           00205                           OCT      00205                                 #  SATURATED-PIPA ALARM   ***CHANGE LATER
000429: 37,3114           03145                           TC       AVERAGEG
000430:
000431: 37,3115           10070        PIPLOOP            CCS      RUPTREG1
000432: 37,3116           13101                           TCF      PIPCHECK
000433:
000434: 37,3117           05426                           TC       PHASCHNG                              #  RESTART REREADAC + SERVICER
000435: 37,3120           16035                           OCT      16035
000436: 37,3121           20000                           OCT      20000
000437: 37,3122  E7,1431                                  EBANK=   DVCNTR
000438: 37,3122           03126 76067                     2CADR    DVTOTUP
000439:
000440: 37,3124           04676                           TC       BANKCALL                              #  PIPA COMPENSATION CALL
000441: 37,3125           15262                           CADR     1/PIPA
000442:
000443: 37,3126           06006        DVTOTUP            TC       INTPRET
000444:                                                                                                  #  THE FOLLOWING SECTION DECREMENTS 'TTE' DURING P61
000445:                                                                                                  #  THROUGH P63 ONLY. (IE: IN P60'S IF DRAG< 0.05 G)
000446: 37,3127           71214        TICKTTE            BON      DLOAD                                 #  .05GSW IS SET =1 IN FRESH START.
000447: 37,3130           03314                                    .05GSW                                #  FLAG IS ASSIGNED ONLY TO P61-P67.
000448: 37,3131           77136                                    +5                                    #  DO NOT COUNT 'TTE' IF DRAG > 0.05 G.
000449: 37,3132           03735                                    TTE2
000450: 37,3133           77615                           DAD
000451: 37,3134           01246                                    PIPTIME1                              #  DECREMENT 'TTE' BY 'PIPTIME1'. (BY 2 SEC)
000452: 37,3135           03727                           STORE    TTE                                   #  NEGATIVE AS IN A COUNTDOWN.
000453:                                                                                                  #  DURING P61 THRU P63, 'TTE' IS DECREMENTED
000454:                                                                                                  #  AND IS ON CALL AND ON ENTRY DNLIST.
000455:
000456: 37,3136           51575                           VLOAD    ABVAL                                 #  GET ABS VALUE OF DELV
000457: 37,3137           01163                                    DELV
000458: 37,3140           77405                           DMP      EXIT
000459: 37,3141           37454                                    KPIP1                                 #  SCALE AT 2(+7)
000460:
000461: 37,3142           00006                           EXTEND
000462: 37,3143           30155                           DCA      MPAC
000463: 37,3144           21426                           DAS      DVTOTAL                               #  ACCUMULATE DVTOTAL
000464: 37,3145           05426        AVERAGEG           TC       PHASCHNG
000465: 37,3146           10035                           OCT      10035
000466:
000467: 37,3147           06006                           TC       INTPRET
000468: 37,3150           77624                           CALL
000469: 37,3151           77423                                    CALCRVG
000470: 37,3152           77776                           EXIT
000471:
000472: 37,3153           05426                           TC       PHASCHNG
000473: 37,3154           10035                           OCT      10035
000474:
000475: 37,3155           34113                           CAF      OCT31                                 #  COPY RN1,VN1,GOT102,GOBL1/2,PIPTIME1
000476: 37,3156           05622                           TC       GENTRAN                               #  INTO RN, VN, GDT/12, GOBL/2,PIPTIME
000477: 37,3157           01231                           ADRES    RN1
000478: 37,3160           01170                           ADRES    RN
000479: 37,3161           00003                           RELINT                                         #  GENTRAN DOES AN INHINT
000480: 37,3162           05426                           TC       PHASCHNG
000481: 37,3163           10035                           OCT      10035
000482:
000483: 37,3164           00006                           EXTEND
000484: 37,3165           31223                           DCA      AVGEXIT
000485: 37,3166           52006                           DXCH     Z                                     #  AVERAGEG EXIT
000486:
000487: 37,3167           31205        AVGEND             CA       PIPTIME    +1                         #  FINAL AVERAGE G EXIT
000488: 37,3170           55074                           TS       OLDBT1                                #  SET UP FREE FALL GYRO COMPENSATION
000489:
000490: 37,3171           05562                           TC       UPFLAG                                #  SET DRIFTFLG
000491: 37,3172           00036                           ADRES    DRIFTFLG                              #  BIT 15 FLAG 2
000492: 37,3173           05406                           TC       2PHSCHNG
000493: 37,3174           00005                           OCT      5                                     #  GROUP 5 OFF
000494: 37,3175           05022                           OCT      05022                                 #  GROUP 2 ON FOR AVETOMID
000495: 37,3176           20000                           OCT      20000
000496:
000497: 37,3177           06006                           TC       INTPRET
000498: 37,3200           77624                           CALL
000499: 37,3201           73675                                    AVETOMID                              #  CONVERT STATE VECTOR TO REFERENCE SCALE.
000500: 37,3202           77776                           EXIT
000501:
000502: 37,3203           35035                           CAF      ZERO                                  #  ZERO MARK COUNTERS.
000503: 37,3204           55125                           TS       VHFCNT
000504: 37,3205           55126                           TS       TRKMKCNT
000505:
000506: 37,3206           04676                           TC       BANKCALL
000507: 37,3207           17173                           CADR     PIPFREE
000508:
000509: 37,3210           45023                           CS       BIT9
000510: 37,3211           55734                           TS       MRKBUF2                               #  INVALIDATE MARK BUFFER
000511: 37,3212           00006                           EXTEND
000512: 37,3213           03011                           WAND     DSALMOUT
000513:
000514: 37,3214           05574                           TC       DOWNFLAG
000515: 37,3215           00147                           ADRES    CM/DSTBY
000516:
000517: 37,3216           05574                           TC       DOWNFLAG
000518: 37,3217           00162                           ADRES    V37FLAG
000519:
000520: 37,3220           35025                           CAF      BIT7                                  #  RESTORE GROUP 1 + 2 IF P20 IS RUNNING.
000521: 37,3221           70074                           MASK     FLAGWRD0
000522: 37,3222           00006                           EXTEND
000523: 37,3223           13227                           BZF      +4
000524:
000525: 37,3224           05406                           TC       2PHSCHNG
000526: 37,3225           00111                           OCT      111                                   #  1.11SPOT
000527: 37,3226           00132                           OCT      132                                   #  2.13SPOT
000528:
000529: 37,3227           04715                           TC       POSTJUMP
000530: 37,3230           10124                           CADR     CANV37
000531:
000532: 37,3231           05426        SERVEXIT           TC       PHASCHNG
000533: 37,3232           00035                           OCT      00035                                 #  A, 5.3 = REREADAC     (ONLY)
000534:
000535: 37,3233           15233                           TCF      ENDOFJOB
000536:
000537: 37,3234     5040               DVTHRUSH           EQUALS   ELEVEN                                #  15 PERCENT OF 2SEC PIPA ACCUMULATION,
000538:                                                                                                  #        FOR 503-FULL CSM/LEM....DELV SC.AT
000539:                                                                                                  #        5.85 CM/SEC.
000540:
000541: 37,3234           63401        -MAXDELV           DEC      -6398      B-14                       #  3200 PPS FOR 2 SEC CCS TAKES 1
000542:
000543: 37,3235           00170        JTAGTIME           DEC      120        B-14                       #  = 1 SEC + T CDU, T CDU = .1 SEC
000544:
000545: 37,3236           00372        2.5SEC             DEC      250        B-14
000546: 37,3237           00044        MDOTFAIL           DEC      144.0      B-16                       #  5 SEC MASS LOSS AT 28.8 KG/SEC
000547:                                                                                                  #  SHOULD BE 2-4 SECS FOR NO START
000548:                                                                                                  #            6-8 SECS FOR FAILURE
000549:
000550:                                                                                                  #  NORMLIZE PERFORMS THE INITIALIZATION REQUIRED PRIOR TO THE FIRST ENTRY TO AVERAGEG, AND SCALES RN SO THAT IT
000551:                                                                                                  #  HAS 1 LEADING BINARY ZERO.  IN MOST MISSIONS, RN WILL BE SCALED AT 2(+29), BUT IN THE 206 MISSION, RN WILL BE
000552:                                                                                                  #  SCALED AT 2(+24) M.
000553:
000554: 37,3240           35041        NORMLIZE           CAF      THIRTEEN                              #  SET UP TO COPY 14 REGS- RN1,VN1,PIPTIME1
000555: 37,3241           05622                           TC       GENTRAN                               #  INTO RN,VN,PIPTIME
000556: 37,3242           01231                           ADRES    RN1                                   #  FROM HERE
000557: 37,3243           01170                           ADRES    RN                                    #  TO HERE
000558:
000559: 37,3244           00003                           RELINT
000560: 37,3245           06006                           TC       INTPRET
000561: 37,3246           45175                           VLOAD    CALL                                  #  LOAD RN FOR CALCGRAV
000562: 37,3247           01171                                    RN
000563: 37,3250           77355                                    CALCGRAV                              #  INITIALISE UNITR RMAG GDT1
000564:
000565: 37,3251           25207                           STOVL    GDT/2
000566: 37,3252           01256                                    GOBL1/2
000567: 37,3253           01215                           STORE    GOBL/2
000568: 37,3254           77776                           EXIT
000569: 37,3255           15233                           TCF      ENDOFJOB
000570:
000571:                                                                                                  #  *****  PIPA READER *****
000572:                                                                                                  #  MOD NO. 00 BY D. LICKLY DEC. 9 1966
000573:
000574:                                                                                                  #  FUNCTIONAL DESCRIPTION
000575:
000576:                                                                                                  #  SUBROUTINE TO READ PIPA COUNTERS, TRYING TO BE VERY CAREFUL SO THAT IT WILL BE RESTARTABLE.
000577:                                                                                                  #  PIPA READINGS ARE STORED IN THE VECTOR DELV.  THE HIGH ORDER PART OF EACH COMPONENT CONTAINS THE PIPA READING,
000578:                                                                                                  #  RESTARTS BEGIN AT REREADAC.
000579:
000580:                                                                                                  #  AT THE END OF THE PIPA READER THE CDUS ARE READ AND STORED AS A
000581:                                                                                                  #  VECTOR IN CDUTEMP.  THE HIGH ORDER PART OF EACH COMPONENT CONTAINS
000582:                                                                                                  #  THE CDU READING IN 2S COMP IN THE ORDER CDUX,Y,Z.  THE THRUST
000583:                                                                                                  #  VECTOR ESTIMATOR IN FINDCDUD REQUIRES THE CDUS BE READ AT PIPTIME.
000584:
000585:                                                                                                  #  CALLING SEQUENCE AND EXIT
000586:
000587:                                                                                                  #        CALL VIA TC, ISWCALL, ETC.
000588:
000589:                                                                                                  #        EXIT IS VIA Q.
000590:
000591:                                                                                                  #  INPUT
000592:
000593:                                                                                                  #        INPUT IS THROUGH THE COUNTERS PIPAX, PIPAY, PIPAZ, AND TIME2.
000594:
000595:                                                                                                  #  OUTPUT
000596:
000597:                                                                                                  #        HIGH ORDER COMPONENTS OF THE VECTOR DELV CONTAIN THE PIPA READINGS.
000598:
000599:                                                                                                  #        PIPTIME CONTAINS TIME OF PIPA READING.
000600:
000601:                                                                                                  #  DEBRIS (ERASABLE LOCATIONS DESTROYED BY PROGRAM)
000602:
000603:                                                                                                  #        LOW ORDER DELV'S ARE ZEROED FOR TM INDICATION.
000604:                                                                                                  #        TEMX    TEMY    TEMZ    PIPAGE
000605:
000606: 37,3256           00006        PIPASR             EXTEND
000607: 37,3257           30025                           DCA      TIME2
000608: 37,3260           53246                           DXCH     PIPTIME1                              #  CURRENT TIME  POSITIVE VALUE
000609: 37,3261           45035                           CS       ZERO                                  #  INITIALIZE THESE AT NEG ZERO.
000610: 37,3262           55224                           TS       TEMX
000611: 37,3263           55225                           TS       TEMY
000612: 37,3264           55226                           TS       TEMZ
000613: 37,3265           35035                           CA       ZERO
000614: 37,3266           55166                           TS       DELVZ                                 #  OTHER DELVS OK INCLUDING LOW ORDER
000615: 37,3267           55164                           TS       DELVY
000616:
000617: 37,3270           55163                           TS       DELVX      +1                         #  LOW ORDER DELV'S ARE ZEROED FOR TM:  THUS
000618: 37,3271           55165                           TS       DELVY      +1                         #  IF DNLNK'D LOW ORDER DELVS ARE NZ, THEY
000619: 37,3272           55167                           TS       DELVZ      +1                         #  CONTAIN PROPER COMPENSATION.  IF=0, THEN
000620:                                                                                                  #  THE TM VALUES ARE BEFORE COMPENSATION.
000621:
000622: 37,3273           55230                           TS       PIPAGE                                #  SHOW PIPA READING IN PROGRESS
000623:
000624: 37,3274           00006        REPIP1             EXTEND
000625: 37,3275           40040                           DCS      PIPAX                                 #  X AND Y PIPS READ
000626: 37,3276           53225                           DXCH     TEMX
000627: 37,3277           52040                           DXCH     PIPAX                                 #  PIPAS SET TO NEG ZERO AS READ.
000628: 37,3300           55162                           TS       DELVX
000629: 37,3301           23164                           LXCH     DELVY
000630:
000631: 37,3302           40041        REPIP3             CS       PIPAZ                                 #  REPEAT PROCESS FOR Z PIP
000632: 37,3303           57226                           XCH      TEMZ
000633: 37,3304           56041                           XCH      PIPAZ
000634: 37,3305           55166        DODELVZ            TS       DELVZ
000635:
000636: 37,3306           00002                           TC       Q
000637:
000638: 37,3307  E6,1661                                  EBANK=   AOG
000639:
000640: 37,3307           10763        REREADAC           CCS      PHASE5                                #  LAST PASS CHECK
000641: 37,3310           13312                           TCF      +2
000642: 37,3311           15340                           TCF      TASKOVER
000643:
000644: 37,3312           37665                           CAF      PRIO31                                #  RESTART MAY HAVE WIPED OUT LASTBIAS, AN
000645: 37,3313           55074                           TS       1/PIPADT                              #        UNPROTECTED NOVAC FROM PREREAD,
000646:                                                                                                  #        WHICH SET(S) UP 1/PIPADT (THUSLY)
000647:                                                                                                  #        FOR NON-COASTING COMPENSATION....BE
000648:                                                                                                  #        SURE 1/PIPADT IS AOK.  (PRIO31 IS
000649:                                                                                                  #        2.0SEC SC.AT B+8CS)
000650:
000651: 37,3314           11230                           CCS      PIPAGE
000652: 37,3315           12757                           TCF      READACCS                              #  PIP READING NOT STARTED.  GO TO BEGINNING
000653:
000654: 37,3316           33354                           CAF      DONEADR                               #  SET UP RETURN FROM PIPASR
000655: 37,3317           54002                           TS       Q
000656:
000657: 37,3320           11166                           CCS      DELVZ
000658: 37,3321           00002                           TC       Q                                     #  Z DONE, GO DO CDUS
000659: 37,3322           13325                           TCF      +3                                    #  Z NOT DONE, CHECK Y.
000660: 37,3323           00002                           TC       Q
000661: 37,3324           00002                           TC       Q
000662: 37,3325           22007                           ZL
000663: 37,3326           11164                           CCS      DELVY
000664: 37,3327           13332                           TCF      +3
000665: 37,3330           13341                           TCF      CHKTEMX                               #  Y NOT DONE, CHECK X.
000666: 37,3331           13332                           TCF      +1
000667: 37,3332           22041                           LXCH     PIPAZ                                 #  Y DONE, ZERO Z PIP.
000668:
000669: 37,3333           11226                           CCS      TEMZ
000670: 37,3334           41226                           CS       TEMZ                                  #  TEMZ NOT = -0, CONTAINS -PIPAZ VALUE.
000671: 37,3335           13305                           TCF      DODELVZ
000672: 37,3336           13334                           TCF      -2
000673: 37,3337           23166                           LXCH     DELVZ                                 #  TEMZ = -0, L HAS ZPIP VALUE.
000674: 37,3340           00002                           TC       Q
000675:
000676: 37,3341           11224        CHKTEMX            CCS      TEMX                                  #  HAS THIS CHANGED
000677: 37,3342           41224                           CS       TEMX                                  #  YES
000678: 37,3343           13346                           TCF      +3                                    #  YES
000679: 37,3344           13342                           TCF      -2                                    #  YES
000680: 37,3345           13274                           TCF      REPIP1                                #  NO
000681: 37,3346           55162                           TS       DELVX
000682:
000683: 37,3347           41225                           CS       TEMY
000684: 37,3350           55164                           TS       DELVY
000685:
000686: 37,3351           45035                           CS       ZERO                                  #  ZERO X AND Y PIPS
000687: 37,3352           52040                           DXCH     PIPAX                                 #  L STILL ZERO FROM ABOVE
000688:
000689: 37,3353           13302                           TCF      REPIP3
000690:
000691: 37,3354           02760        DONEADR            GENADR   PIPSDONE
000692:
000693:                                                                                                  #  *************************************************************************************************************
000694:
000695:                                                                                                  #           ROUTINE CALCRVG INTEGRATES THE EQUATIONS OF MOTION BY AVERAGING THE THRUST AND GRAVITATIONAL
000696:                                                                                                  #  ACCELERATIONS OVER A TIME INTERVAL OF 2 SECONDS.
000697:
000698:                                                                                                  #           FOR THE EARTH-CENTERED GRAVITATIONAL FIELD, THE PERTURBATION DUE TO OBLATENESS IS COMPUTED TO THE FIRST
000699:                                                                                                  #  HARMONIC COEFFICIENT J.
000700:
000701:                                                                                                  #  ROUTINE CALCRVG REQUIRES...
000702:                                                                                                  #        1) THRUST ACCELERATION INCREMENTS IN DELV SCALED SAME AS PIPAX,Y,Z IN STABLE MEMBER COORDS.
000703:                                                                                                  #        2) VN SCALED 2(+7) M/CS IN REFERENCE COORDS.
000704:                                                                                                  #        3) RN SCALED AT 2(+29) METERS IN REFERENCE COORDS.
000705:                                                                                                  #        4) UNITW THE EARTH S UNIT ROTATIONAL VECTOR (SCALED AS A FULL UNIT VECTOR) IN REFERENCE COORDS.
000706:
000707:                                                                                                  #  IT LEAVES RN1 UPDATED (SCALED AT 2(+29)M, VN1 (SCALED AT 2(+7)M/CS), AND GDT1/2 (SCALED AT 2(+7)M/CS). ALSO HALF
000708:                                                                                                  #  UNIT VECTOR UNITR, RMAG IN 36D SCALED AT 2(+29)M, R MAG SQ. IN 34D SCALED AT 2(+58) M SQ.
000709:
000710: 37,3355           41456        CALCGRAV           UNIT     PUSH                                  #  ENTER WITH RN IN MPAC
000711: 37,3356           01760                           STORE    UNITR
000712: 37,3357           67340                           LXC,1    SLOAD
000713: 37,3360           03746                                    RTX2
000714: 37,3361           00047                                    X1
000715: 37,3362           77240                           BMN      VLOAD
000716: 37,3363           77411                                    ITISMOON
000717: 37,3364           41441                           DOT      PUSH
000718: 37,3365           01714                                    UNITW
000719: 37,3366           44316                           DSQ      BDSU
000720: 37,3367           37464                                    DP1/20
000721: 37,3370           56325                           PDDL     DDV
000722: 37,3371           37466                                    RESQ
000723: 37,3372           00043                                    34D                                   #  (RN)SQ
000724: 37,3373           00041                           STORE    32D                                   #  TEMP FOR (RE/RN)SQ
000725: 37,3374           41205                           DMP      DMP
000726: 37,3375           37470                                    20J
000727: 37,3376           65361                           VXSC     PDDL
000728: 37,3377           01760                                    UNITR
000729: 37,3400           41205                           DMP      DMP
000730: 37,3401           37472                                    2J
000731: 37,3402           00041                                    32D
000732: 37,3403           53361                           VXSC     VAD
000733: 37,3404           01714                                    UNITW
000734: 37,3405           77626                           STADR
000735: 37,3406           76521                           STORE    GOBL1/2
000736: 37,3407           41455                           VAD      PUSH
000737: 37,3410           01760                                    UNITR
000738: 37,3411           63545        ITISMOON           DLOAD    DSQ
000739: 37,3412           00045                                    36D
000740: 37,3413           77701                           NORM
000741: 37,3414           00050                                    X2
000742: 37,3415           53663                           BDDV*    SLR*
000743: 37,3416           37456                                    -MUDT(E),1
000744: 37,3417           56623                                    0          -21D,2
000745: 37,3420           45561                           VXSC     STADR
000746: 37,3421           76527                           STORE    GDT1/2                                #  SCALED AT 2(+7) M/CS
000747: 37,3422           77616                           RVQ
000748:
000749: 37,3423           74375        CALCRVG            VLOAD    VXSC
000750: 37,3424           01163                                    DELV
000751: 37,3425           37454                                    KPIP1
000752: 37,3426           76505                           VXM      VSL1
000753: 37,3427           01736                                    REFSMMAT
000754: 37,3430           03433                           STORE    DELVREF                               #  DELV IN REF COORDS AT 2(+7)
000755: 37,3431           41562                           VSR1     PUSH
000756: 37,3432           41455                           VAD      PUSH                                  #  (DV-OLDGDT)/2 TO PD SCALED AT 2(+7)M/CS
000757: 37,3433           01207                                    GDT/2
000758: 37,3434           74255                           VAD      VXSC
000759: 37,3435           01177                                    VN
000760: 37,3436           37462                                    2SEC(22)
000761: 37,3437           44055                           VAD      STQ
000762: 37,3440           01171                                    RN
000763: 37,3441           00037                                    31D
000764: 37,3442           35232                           STCALL   RN1                                   #  TEMP STORAGE OF RN SCALED 2(+29)M
000765: 37,3443           77355                                    CALCGRAV
000766:
000767: 37,3444           53255                           VAD      VAD
000768: 37,3445           77655                           VAD
000769: 37,3446           01177                                    VN
000770: 37,3447           35240                           STCALL   VN1                                   #  TEMP STORAGE OF VN SCALED 2(+7) M/CS
000771: 37,3450           00037                                    31D
000772:
000773: 37,3451           03215 27057  KPIP               2DEC     .1024                                 #  SCALES DELV TO 2(+4)
000774:
000775: 37,3453           02312 32537  KPIP1              2DEC     0.074880                              #  207 DELV SCALING.  1 PULSE = 5.85 CM/SEC.
000776:
000777: 37,3455           61377 55754  -MUDT(E)           2DEC*    -7.9720645 E+12       B-44*
000778:
000779: 37,3457           77644 65556  -MUDT(M)           2DEC*    -9.805556  E+10       B-44*
000780:
000781: 37,3461           00000 31000  2SEC(22)           2DEC     200        B-22
000782:
000783: 37,3463           01463 06315  DP1/20             2DEC     0.05
000784:
000785: 37,3465           00001 05000  RESQ               2DEC*    40.6809913 E12        B-59*
000786:
000787: 37,3467           02047 36332  20J                2DEC*    3.24692010 E-2        B1*
000788:
000789: 37,3471           00152 14511  2J                 2DEC*    3.24692010 E-3        B1*
000790:

End of include-file SERVICER207.agc.  Parent file is MAIN.agc


