
Source Code


000002:                                                                                                  ## Copyright:   Public domain.
000003:                                                                                                  ## Filename:    SERVICE_ROUTINES.agc
000004:                                                                                                  ## Purpose:     A section of Manche72 revision 3.
000005:                                                                                                  ##              It is part of the reconstructed source code for the final, flown
000006:                                                                                                  ##              release of the software for the Command Module's (CM) Apollo
000007:                                                                                                  ##              Guidance Computer (AGC) for Apollo 13. No original listings
000008:                                                                                                  ##              of this program are available; instead, this file was recreated
000009:                                                                                                  ##              from a reconstructed copy of Comanche 072. It has been adapted
000010:                                                                                                  ##              such that the resulting bugger words exactly match those
000011:                                                                                                  ##              specified for Manche72 revision 3 in NASA drawing 2021153G,
000012:                                                                                                  ##              which gives relatively high confidence that the reconstruction
000013:                                                                                                  ##              is correct.
000014:                                                                                                  ## Assembler:   yaYUL
000015:                                                                                                  ## Contact:     Ron Burkey <info@sandroid.org>.
000016:                                                                                                  ## Website:     www.ibiblio.org/apollo/index.html
000017:                                                                                                  ## Mod history: 2024-05-19 MAS  Created from Comanche 072.
000018:
000019:    7722                                           BLOCK    3
000020:    6000                                           SETLOC   FFTAG6
000021:    6000                                           BANK
000022:    7722                                           COUNT    03/FLAG
000023:
000024:    7722           54001        UPENT2             TS       L                                     #  WHICH FLAGWORD IS IT
000025:    7723           75037                           MASK     OCT7
000026:    7724           56001                           XCH      L                                     #  SAVE IN L FOR INDEXING
000027:
000028:    7725           75735                           MASK     OCT77770                              #  OBTAIN THE BIT INFORMATION
000029:    7726           00004                           INHINT                                         #  PREVENT INTERUPTS
000030:    7727           54061                           TS       ITEMP1                                #  STORE THE BIT INFORMATION TEMPORARIALY
000031:
000032:    7730           50001                           NDX      L
000033:    7731           40074                           CS       FLAGWRD0
000034:    7732           70061                           MASK     ITEMP1
000035:    7733           50001                           NDX      L
000036:    7734           26074                           ADS      FLAGWRD0
000037:    7735           00003                           RELINT                                         #  RELEASE INTERUPT INHIBIT
000038:
000039:    7736           24002                           INCR     Q                                     #  OBTAIN THE CORRECT RETURN ADDRESS
000040:    7737           00002                           TC       Q                                     #  RETURN
000041:
000042:    7740           54001        DOWNENT2           TS       L                                     #  WHICH FLAGWORD IS IT
000043:    7741           75037                           MASK     OCT7
000044:    7742           56001                           XCH      L                                     #  SAVE IN L FOR INDEXING
000045:
000046:    7743           75735                           MASK     OCT77770                              #  OBTAIN THE BIT INFORMATION
000047:    7744           40000                           COM                                            #  START TO PROCESS THE INFORMATION
000048:
000049:    7745           00004                           INHINT                                         #  PREVENT INTERUPTS
000050:    7746           50001                           NDX      L
000051:    7747           70074                           MASK     FLAGWRD0
000052:    7750           50001                           NDX      L
000053:    7751           54074                           TS       FLAGWRD0
000054:    7752           00003                           RELINT                                         #  RELEASE INTERUPT INHIBIT
000055:
000056:    7753           24002                           INCR     Q                                     #  OBTAIN THE CORRECT RETURN ADDRESS
000057:    7754           00002                           TC       Q                                     #  RETURN
000058:
000059:    7755     5037               OCT7               EQUALS   SEVEN
000060: 10,3766                                           BANK     10
000061:
000062:                                                                                                  #  UPFLAG AND DOWNFLAG ARE ENTIRELY GENERAL FLAG SETTING AND CLEARING SUBROUTINES.  USING THEM, WHETHER OR
000063:                                                                                                  #  NOT IN INTERRUPT, ONE MAY SET OR CLEAR ANY SINGLE, NAMED BIT IN ANY ERASABLE REGISTER, SUBJECT OF COURSE TO
000064:                                                                                                  #  EBANK SETTING.  A "NAMED" BIT, AS THE WORD IS USED HERE, IS ANY BIT WITH A NAME FORMALLY ASSIGNED BY THE YUL
000065:                                                                                                  #  ASSEMBLER.
000066:
000067:                                                                                                  #  AT PRESENT THE ONLY NAMED BITS ARE THOSE IN THE FLAGWORDS.  ASSEMBLER CHANGES WILL MAKE IT POSSIBLE TO
000068:                                                                                                  #  NAME ANY BIT IN ERASABLE MEMORY.
000069:
000070:                                                                                                  #  CALLING SEQUENCES ARE AS FOLLOWS:-
000071:                                                                                                  #                TC      UPFLAG                  TC      DOWNFLAG
000072:                                                                                                  #                ADRES   NAME OF FLAG            ADRES   NAME OF FLAG
000073:
000074:                                                                                                  #  RETURN IS TO THE LOCATION FOLLOWING THE "ADRES" ABOUT .58 MS AFTER THE "TC".
000075:                                                                                                  #  UPON RETURN A CONTAINS THE CURRENT FLAGWRD SETTING.
000076:
000077:    5562                                           BLOCK    02
000078:    4000                                           SETLOC   FFTAG1
000079:    4000                                           BANK
000080:    5562                                           COUNT*   $$/FLAG
000081:
000082:    5562           30002        UPFLAG             CA       Q
000083:    5563           05600                           TC       DEBIT
000084:    5564           40000                           COM                                            #  +(15 - BIT)
000085:    5565           00006                           EXTEND
000086:    5566           04001                           ROR      LCHAN                                 #  SET BIT
000087:    5567           50061        COMFLAG            INDEX    ITEMP1
000088:    5570           54074                           TS       FLAGWRD0
000089:    5571           22063                           LXCH     ITEMP3
000090:    5572           00003                           RELINT
000091:    5573           00001                           TC       L
000092:
000093:    5574           30002        DOWNFLAG           CA       Q
000094:    5575           05600                           TC       DEBIT
000095:    5576           70001                           MASK     L                                     #  RESET BIT
000096:    5577           15567                           TCF      COMFLAG
000097:
000098:    5600           65033        DEBIT              AD       ONE                                   #  GET DE BITS
000099:    5601           00004                           INHINT
000100:    5602           54063                           TS       ITEMP3
000101:    5603           35042                           CA       LOW4                                  #  DEC15
000102:    5604           54061                           TS       ITEMP1
000103:    5605           50063                           INDEX    ITEMP3
000104:    5606           27777                           CA       0          -1                         #  ADRES
000105:    5607           54001                           TS       L
000106:    5610           35035                           CA       ZERO
000107:    5611           00006                           EXTEND
000108:    5612           10061                           DV       ITEMP1                                #  A = FLAGWRD, L = (15 - BIT)
000109:    5613           52062                           DXCH     ITEMP1
000110:    5614           50061                           INDEX    ITEMP1
000111:    5615           30074                           CA       FLAGWRD0
000112:    5616           54001                           TS       L                                     #  CURRENT STATE
000113:    5617           50062                           INDEX    ITEMP2
000114:    5620           45015                           CS       BIT15                                 #  -(15 - BIT)
000115:    5621           00002                           TC       Q
000116:
000117:                                                                                                  #  DELAYJOB- A GENERAL ROUTINE TO DELAY A JOB A SPECIFIC AMOUNT OF TIME BEFORE PICKING UP AGAIN.
000118:
000119:                                                                                                  #  ENTRANCE REQUIREMENTS...
000120:                                                                                                  #                CAF     DT              DELAY JOB FOR DT CENTISECS
000121:                                                                                                  #                TC      BANKCALL
000122:                                                                                                  #                CADR    DELAYJOB
000123:
000124: 06,3770                                           BANK     06
000125: 00,2000                                           SETLOC   DLAYJOB
000126: 00,2000                                           BANK
000127:
000128:                                                                                                  #  THIS MUST REMAIN IN BANK 0 *****************************************
000129:
000130: 00,3732                                           COUNT    00/DELAY
000131:
000132: 00,3732           00004        DELAYJOB           INHINT
000133: 00,3733           54002                           TS       Q                                     #  STORE DELAY DT IN Q FOR DLY -1 IN
000134: 00,3734           36214                           CAF      DELAYNUM                              #  WAITLIST
000135: 00,3735           54070        DELLOOP            TS       RUPTREG1
000136: 00,3736           50000                           INDEX    A
000137: 00,3737           31141                           CA       DELAYLOC                              #  IS THIS DELAYLOC AVAILABLE
000138: 00,3740           00006                           EXTEND
000139: 00,3741           13746                           BZF      OK2DELAY                              #  YES
000140:
000141: 00,3742           10070                           CCS      RUPTREG1                              #  NO, TRY NEXT DELAYLOC
000142: 00,3743           13735                           TCF      DELLOOP
000143:
000144: 00,3744           07755                           TC       BAILOUT                               #  NO AVAILABLE LOCS AVAILABLE.
000145: 00,3745           31104                           OCT      31104
000146:
000147: 00,3746           33766        OK2DELAY           CA       TCSLEEP                               #  SET WAITLIST IMMEDIATE RETURN
000148: 00,3747           54061                           TS       WAITEXIT
000149:
000150: 00,3750           30004                           CA       FBANK
000151: 00,3751           60070                           AD       RUPTREG1                              #  STORE BBANK FOR TASK CALL
000152: 00,3752           54001                           TS       L
000153:
000154: 00,3753           33767                           CAF      WAKECAD                               #  STORE CADR FOR TASK CALL
000155: 00,3754           15271                           TCF      DLY2       -1                         #  DLY IS IN WAITLIST ROUTINE
000156:
000157: 00,3755           04725        TCGETCAD           TC       MAKECADR                              #  GET CALLERS FCADR
000158:
000159: 00,3756           50070                           INDEX    RUPTREG1
000160: 00,3757           55141                           TS       DELAYLOC                              #  SAVE DELAY CADRS
000161:
000162: 00,3760           05211                           TC       JOBSLEEP
000163:
000164: 00,3761           35035        WAKER              CAF      ZERO
000165: 00,3762           50006                           INDEX    BBANK
000166: 00,3763           57141                           XCH      DELAYLOC                              #  MAKE DELAYLOC AVAILABLE
000167: 00,3764           05215                           TC       JOBWAKE
000168:
000169: 00,3765           05340                           TC       TASKOVER
000170:
000171: 00,3766           03753        TCSLEEP            GENADR   TCGETCAD   -2
000172: 00,3767           03761        WAKECAD            GENADR   WAKER
000173:
000174:                                                                                                  #  GENTRAN, A BLOCK TRANSFER ROUTINE.
000175:                                                                                                  #  WRITTEN BY D. EYLES
000176:                                                                                                  #  MOD 1 BY KERNAN                               UTILITYM REV 17 11/18/67
000177:                                                                                                  #  MOD 2 BY SCHULENBERG  (REMOVE RELINT)  SKIPPER REV 4 2/28/68
000178:
000179:                                                                                                  #  THIS ROUTINE IS USEFULL FOR TRANSFERING N CONSECUTIVE ERASABLE OR FIXED QUANTITIES TO SOME OTHER N
000180:                                                                                                  #  CONSECUTIVE ERASABLE LOCATIONS.  IF BOTH BLOCKS OF DATA ARE IN SWITCHABLE EBANKS, THEY MUST BE IN THE SAME ONE.
000181:
000182:                                                                                                  #  GENTRAN IS CALLABLE IN A JOB AS WELL AS A RUPT.  THE CALLING SEQUENCE IS:
000183:                                                                                                  #        I       CA      N-1             # OF QUANTITIES MINUS ONE.
000184:                                                                                                  #        I +1    TC      GENTRAN         IN FIXED-FIXED.
000185:                                                                                                  #        I +2    ADRES   L               STARTING ADRES OF DATA TO BE MOVED.
000186:                                                                                                  #        I +3    ADRES   M               STARTING ADRES OF DUPLICATION BLOCK.
000187:                                                                                                  #        I +4                            RETURNS HERE.
000188:
000189:                                                                                                  #  GENTRAN TAKES 25 MCT'S (300 MICROSECONDS) PER ITEM + 5 MCT'S (60 MICS) FOR ENTERING AND EXITING.
000190:                                                                                                  #  A, L AND ITEMP1 ARE NOT PRESERVED.
000191:
000192:    5622                                           BLOCK    02
000193:    4000                                           SETLOC   FFTAG4
000194:    4000                                           BANK
000195:
000196:    5622     0061                                  EBANK=   ITEMP1
000197:
000198:    5622                                           COUNT*   $$/TRAN
000199:
000200:    5622           00004        GENTRAN            INHINT
000201:    5623           54061                           TS       ITEMP1                                #  SAVE N-1.
000202:    5624           50002                           INDEX    Q                                     #  C(Q) = ADRES L.
000203:    5625           60000                           AD       0                                     #  ADRES (L + N - 1).
000204:    5626           50000                           INDEX    A
000205:    5627           30000                           CA       0                                     #  C(ABOVE).
000206:    5630           54001                           TS       L                                     #  SAVE DATA.
000207:    5631           30061                           CA       ITEMP1
000208:    5632           50002                           INDEX    Q
000209:    5633           60001                           AD       1                                     #  ADRES (M + N - 1).
000210:    5634           50000                           INDEX    A
000211:    5635           22000                           LXCH     0                                     #  STUFF IT.
000212:    5636           10061                           CCS      ITEMP1                                #  LOOP UNTIL N-1 = 0.
000213:    5637           15623                           TCF      GENTRAN    +1
000214:    5640           16710                           TCF      Q+2                                   #  RETURN TO CALLER.
000215:
000216:                                                                                                  #  B5OFF         ZERO BIT 5 OF EXTVBACT, WHICH IS SET BY TESTXACT.
000217:                                                                                                  #  MAY BE USED AS NEEDED BY ANY EXTENDED VERB WHICH HAS DONE TESTXACT
000218:
000219:    5641                                           COUNT*   $$/EXTVB
000220:
000221:    5641           45027        B5OFF              CS       BIT5
000222:    5642           71044                           MASK     EXTVBACT
000223:    5643           55044                           TS       EXTVBACT
000224:    5644           05233                           TC       ENDOFJOB
000225:
000226:                                                                                                  #  SUBROUTINES TO TURN OFF AND TURN ON TRACKER FAIL LIGHT.
000227:
000228:    5645           00004        TRFAILOF           INHINT
000229:    5646           47704                           CS       OCT40200                              #  TURN OFF TRACKER LIGHT
000230:    5647           71036                           MASK     DSPTAB     +11D
000231:    5650           65015                           AD       BIT15
000232:    5651           55036                           TS       DSPTAB     +11D
000233:    5652           41331                           CS       OPTMODES                              #  TO INSURE THAT OCDU FAIL WILL GO ON
000234:    5653           75025                           MASK     BIT7                                  #  AGAIN IF IT WAS ON IN ADDITION TO
000235:    5654           27331                           ADS      OPTMODES                              #  TRACKER FAIL.
000236:
000237:    5655           00003        REQ                RELINT
000238:    5656           00002                           TC       Q
000239:
000240:    5657           00004        TRFAILON           INHINT
000241:    5660           41036                           CS       DSPTAB     +11D                       #  TURN ON
000242:    5661           77704                           MASK     OCT40200
000243:    5662           27036                           ADS      DSPTAB     +11D
000244:    5663           15655                           TCF      REQ
000245:
000246:
000247:
000248:

End of include-file SERVICE_ROUTINES.agc.  Parent file is MAIN.agc


