
Source Code


000002:                                                                                                  ## Copyright:   Public domain.
000003:                                                                                                  ## Filename:    SINGLE_PRECISION_SUBROUTINES.agc
000004:                                                                                                  ## Purpose:     A section of Manche72 revision 3.
000005:                                                                                                  ##              It is part of the reconstructed source code for the final, flown
000006:                                                                                                  ##              release of the software for the Command Module's (CM) Apollo
000007:                                                                                                  ##              Guidance Computer (AGC) for Apollo 13. No original listings
000008:                                                                                                  ##              of this program are available; instead, this file was recreated
000009:                                                                                                  ##              from a reconstructed copy of Comanche 072. It has been adapted
000010:                                                                                                  ##              such that the resulting bugger words exactly match those
000011:                                                                                                  ##              specified for Manche72 revision 3 in NASA drawing 2021153G,
000012:                                                                                                  ##              which gives relatively high confidence that the reconstruction
000013:                                                                                                  ##              is correct.
000014:                                                                                                  ## Assembler:   yaYUL
000015:                                                                                                  ## Contact:     Ron Burkey <info@sandroid.org>.
000016:                                                                                                  ## Website:     www.ibiblio.org/apollo/index.html
000017:                                                                                                  ## Mod history: 2024-05-19 MAS  Created from Comanche 072.
000018:
000019:    5110                                           BLOCK    02
000020:
000021:                                                                                                  #  SINGLE PRECISION SINE AND COSINE
000022:
000023:    5110                                           COUNT    02/INTER
000024:
000025:    5110           65016        SPCOS              AD       HALF                                  #  ARGUMENTS SCALED AT PI
000026:    5111           55075        SPSIN              TS       TEMK
000027:    5112           15114                           TCF      SPT
000028:    5113           41075                           CS       TEMK
000029:    5114           60000        SPT                DOUBLE
000030:    5115           55075                           TS       TEMK
000031:    5116           15127                           TCF      POLLEY
000032:    5117           57075                           XCH      TEMK
000033:    5120           51075                           INDEX    TEMK
000034:    5121           65014                           AD       LIMITS
000035:    5122           40000                           COM
000036:    5123           61075                           AD       TEMK
000037:    5124           55075                           TS       TEMK
000038:    5125           15127                           TCF      POLLEY
000039:    5126           15145                           TCF      ARG90
000040:    5127           00006        POLLEY             EXTEND
000041:    5130           71075                           MP       TEMK
000042:    5131           55076                           TS       SQ
000043:    5132           00006                           EXTEND
000044:    5133           75063                           MP       C5/2
000045:    5134           67706                           AD       C3/2
000046:    5135           00006                           EXTEND
000047:    5136           71076                           MP       SQ
000048:    5137           67666                           AD       C1/2
000049:    5140           00006                           EXTEND
000050:    5141           71075                           MP       TEMK
000051:    5142           20001                           DDOUBL
000052:    5143           55075                           TS       TEMK
000053:    5144           00002                           TC       Q
000054:    5145           50000        ARG90              INDEX    A
000055:    5146           45014                           CS       LIMITS
000056:    5147           00002                           TC       Q                                     #  RESULT SCALED AT 1
000057:
000058:                                                                                                  #  SPROOT WAS DELETED IN REV 51 OF MASTER. ASS. CONT. HAS CARDS.
000059:
000060:
000061:
000062:

End of include-file SINGLE_PRECISION_SUBROUTINES.agc.  Parent file is MAIN.agc


