
Source Code


000002:                                                                                                  ## Copyright:   Public domain.
000003:                                                                                                  ## Filename:    STABLE_ORBIT_-_P38-P39.agc
000004:                                                                                                  ## Purpose:     A section of Manche72 revision 3.
000005:                                                                                                  ##              It is part of the reconstructed source code for the final, flown
000006:                                                                                                  ##              release of the software for the Command Module's (CM) Apollo
000007:                                                                                                  ##              Guidance Computer (AGC) for Apollo 13. No original listings
000008:                                                                                                  ##              of this program are available; instead, this file was recreated
000009:                                                                                                  ##              from a reconstructed copy of Comanche 072. It has been adapted
000010:                                                                                                  ##              such that the resulting bugger words exactly match those
000011:                                                                                                  ##              specified for Manche72 revision 3 in NASA drawing 2021153G,
000012:                                                                                                  ##              which gives relatively high confidence that the reconstruction
000013:                                                                                                  ##              is correct.
000014:                                                                                                  ## Assembler:   yaYUL
000015:                                                                                                  ## Contact:     Ron Burkey <info@sandroid.org>.
000016:                                                                                                  ## Website:     www.ibiblio.org/apollo/index.html
000017:                                                                                                  ## Mod history: 2024-05-19 MAS  Created from Comanche 072.
000018:
000019:                                                                                                  #  STABLE ORBIT RENDEZVOUS PROGRAMS (P38 AND P78)
000020:
000021:                                                                                                  #  MOD NO -1             LOG SECTION - STABLE ORBIT - P38-P39
000022:                                                                                                  #  MOD BY RUDNICKI.S     DATE 25JAN68
000023:
000024:                                                                                                  #  FUNCTIONAL DESCRIPTION
000025:
000026:                                                                                                  #        P38 AND P78 CALCULATE THE REQUIRED DELTA V AND OTHER INITIAL
000027:                                                                                                  #        CONDITIONS REQUIRED BY THE AGC TO (1) PUT THE ACTIVE VEHICLE
000028:                                                                                                  #        ON A TRANSFER TRAJECTORY THAT INTERCEPTS THE PASSIVE VEHICLE
000029:                                                                                                  #        ORBIT A GIVEN DISTANCE, DELTA R, EITHER AHEAD OF OR BEHIND THE
000030:                                                                                                  #        PASSIVE VEHICLE AND (2) ACTUALLY PLACE THE ACTIVE VEHICLE IN THE
000031:                                                                                                  #        PASSIVE VEHICLE ORBIT WITH A DELTA R SEPARATION BETWEEN THE TWO
000032:                                                                                                  #        VEHICLES
000033:
000034:                                                                                                  #  CALLING SEQUENCE
000035:
000036:                                                                                                  #        ASTRONAUT REQUEST THRU DSKY
000037:
000038:                                                                                                  #        V37E38E         IF THIS VEHICLE IS ACTIVE VEHICLE
000039:                                                                                                  #        V37E78E         IF OTHER VEHICLE IS ACTIVE VEHICLE
000040:
000041:                                                                                                  #  INPUT
000042:
000043:                                                                                                  #        (1)     SOI MANEUVER
000044:
000045:                                                                                                  #                (A)  TIG        TIME OF SOI MANEUVER
000046:                                                                                                  #                (B)  CENTANG    ORBITAL CENTRAL ANGLE OF THE PASSIVE VEHICLE
000047:                                                                                                  #                                DURING TRANSFER FROM TIG TO TIME OF INTERCEPT
000048:                                                                                                  #                (C)  DELTAR     THE DESIRED SEPARATION OF THE TWO VEHICLES
000049:                                                                                                  #                                SPECIFIED AS A DISTANCE ALONG THE PASSIVE VEHICLE
000050:                                                                                                  #                                ORBIT
000051:                                                                                                  #                (D)  OPTION     EQUALS 1 FOR SOI
000052:
000053:                                                                                                  #        (2)     SOR MANEUVER
000054:
000055:                                                                                                  #                (A)  TIG        TIME OF SOR MANEUVER
000056:                                                                                                  #                (B)  CENTANG    AN OPTIONAL RESPECIFICATION OF 1 (B) ABOVE
000057:                                                                                                  #                (C)  OPTION     EQUALS 2 FOR SOR
000058:                                                                                                  #                (D)  DELTTIME   THE TIME REQUIRED TO TRAVERSE DELTA R WHEN
000059:                                                                                                  #                                TRAVELING AT A VELOCITY EQUAL TO THE HORIZONTAL
000060:                                                                                                  #                                VELOCITY OF THE PASSIVE VEHICLE - SAVED FROM
000061:                                                                                                  #                                SOI PHASE
000062:                                                                                                  #                (E)  TINT       TIME OF INTERCEPT (SOI) - SAVED FROM SOI PHASE
000063:
000064:                                                                                                  #  OUTPUT
000065:
000066:                                                                                                  #        (1)  TRKMKCNT   NUMBER OF MARKS
000067:                                                                                                  #        (2)  TTOGO      TIME TO GO
000068:                                                                                                  #        (3)  +MGA       MIDDLE GIMBAL ANGLE
000069:                                                                                                  #        (4)  DSPTEM1    TIME OF INTERCEPT OF PASSIVE VEHICLE ORBIT
000070:                                                                                                  #                        (FOR SOI ONLY)
000071:                                                                                                  #        (5)  POSTTPI    PERIGEE ALTITUDE OF ACTIVE VEHICLE ORBIT AFTER
000072:                                                                                                  #                        THE SOI (SOR) MANEUVER
000073:                                                                                                  #        (6)  DELVTPI    MAGNITUDE OF DELTA V AT SOI (SOR) TIME
000074:                                                                                                  #        (7)  DELVTPF    MAGNITUDE OF DELTA V AT INTERCEPT TIME
000075:                                                                                                  #        (8)  DELVLVC    DELTA VELOCITY AT SOI (AND SOR) - LOCAL VERTICAL
000076:                                                                                                  #                        COORDINATES
000077:
000078:                                                                                                  #  SUBROUTINES USED
000079:
000080:                                                                                                  #        AVFLAGA
000081:                                                                                                  #        AVFLAGP
000082:                                                                                                  #        VNDSPLY
000083:                                                                                                  #        BANKCALL
000084:                                                                                                  #        GOFLASHR
000085:                                                                                                  #        GOTOPOOH
000086:                                                                                                  #        BLANKET
000087:                                                                                                  #        ENDOFJOB
000088:                                                                                                  #        PREC/TT
000089:                                                                                                  #        SELECTMU
000090:                                                                                                  #        INTRPVP
000091:                                                                                                  #        MAINRTNE
000092:
000093: 04,2742                                           BANK     04
000094: 04,2000                                           SETLOC   STBLEORB
000095: 04,2000                                           BANK
000096:
000097: 04,2742  E4,1770                                  EBANK=   SUBEXIT
000098: 04,2742                                           COUNT*   $$/P3879
000099:
000100: 04,2742           04627        P38                TC       AVFLAGA                               #  THIS VEHICLE ACTIVE
000101: 04,2743           02745                           TC       +2
000102: 04,2744           04642        P78                TC       AVFLAGP                               #  OTHER VEHICLE ACTIVE
000103: 04,2745           04647                           TC       P20FLGON                              #  SET UPDATFLG, TRACKFLG
000104: 04,2746           33274                           CAF      V06N33SR                              #  DISPLAY TIG
000105: 04,2747           03263                           TC       VNDSPLY
000106: 04,2750           33275                           CAF      V06N55SR                              #  DISPLAY CENTANG
000107: 04,2751           04676                           TCR      BANKCALL
000108: 04,2752           21057                           CADR     GOFLASHR
000109: 04,2753           14106                           TCF      GOTOPOOH                              #  TERMINATE
000110: 04,2754           12761                           TCF      +5                                    #  PROCEED
000111: 04,2755           12750                           TCF      -5                                    #  RECYCLE
000112: 04,2756           36214                           CAF      THREE                                 #  IMMEDIATE RETURN - BLANK R1, R2
000113: 04,2757           05542                           TCR      BLANKET
000114: 04,2760           15233                           TCF      ENDOFJOB
000115: 04,2761           35036                           CAF      FIVE
000116: 04,2762           55131                           TS       OPTION1
000117: 04,2763           35033                           CAF      ONE
000118: 04,2764           55132                           TS       OPTION2                               #  OPTION CODE IS SET TO 1
000119: 04,2765           33276                           CAF      V04N06SR                              #  DISPLAY OPTION CODE -1 = SOI, 2 = SOR
000120: 04,2766           04676                           TCR      BANKCALL
000121: 04,2767           21057                           CADR     GOFLASHR
000122: 04,2770           14106                           TCF      GOTOPOOH                              #  TERMINATE
000123: 04,2771           12776                           TCF      +5                                    #  PROCEED
000124: 04,2772           12765                           TCF      -5                                    #  RECYCLE
000125: 04,2773           35031                           CAF      BIT3                                  #  IMMEDIATE RETURN - BLANK R3
000126: 04,2774           05542                           TCR      BLANKET
000127: 04,2775           15233                           TCF      ENDOFJOB
000128: 04,2776           06006                           TC       INTPRET
000129: 04,2777           77731                           SSP
000130: 04,3000           03766                                    NN
000131: 04,3001           00002                                    2
000132: 04,3002           70535                           SLOAD    SR1
000133: 04,3003           01133                                    OPTION2
000134: 04,3004           71230                           BHIZ     DLOAD
000135: 04,3005           11013                                    OPTN1
000136: 04,3006           03656                                    TINT
000137: 04,3007           02611                           STORE    TINTSOI                               #  STORE FOR SOR PHASE
000138: 04,3010           77614                           CLRGO
000139: 04,3011           01230                                    OPTNSW                                #  OPTNSW; ON = SOI, OFF = SOR
000140: 04,3012           11042                                    JUNCTN1
000141: 04,3013           43014        OPTN1              SET      CLEAR                                 #  SOI
000142: 04,3014           01070                                    OPTNSW
000143: 04,3015           00670                                    UPDATFLG
000144: 04,3016           77624                           CALL
000145: 04,3017           11216                                    PREC/TT
000146: 04,3020           43214                           SET      DAD
000147: 04,3021           00470                                    UPDATFLG
000148: 04,3022           03413                                    TIG
000149: 04,3023           03656                           STORE    TINT                                  #  TI = TIG + TF
000150: 04,3024           01046                           STORE    DSPTEM1                               #  FOR DISPLAY
000151: 04,3025           77776                           EXIT
000152: 04,3026           33277                           CAF      V06N57SR                              #  DISPLAY DELTA R
000153: 04,3027           04676                           TCR      BANKCALL
000154: 04,3030           21057                           CADR     GOFLASHR
000155: 04,3031           14106                           TCF      GOTOPOOH                              #  TERMINATE
000156: 04,3032           13037                           TCF      +5                                    #  PROCEED
000157: 04,3033           13026                           TCF      -5                                    #  RECYCLE
000158: 04,3034           36211                           CAF      SIX                                   #  IMMEDIATE RETURN - BLANK R2, R3
000159: 04,3035           05542                           TCR      BLANKET
000160: 04,3036           15233                           TCF      ENDOFJOB
000161: 04,3037           33300                           CAF      V06N34SR                              #  DISPLAY TIME OF INTERCEPT
000162: 04,3040           03263                           TC       VNDSPLY
000163: 04,3041           06006                           TC       INTPRET
000164: 04,3042           45014        JUNCTN1            CLEAR    CALL
000165: 04,3043           04266                                    P39/79SW
000166: 04,3044           10712                                    SELECTMU                              #  SELECT MU, CLEAR FINALFLG, GO TO VN1645
000167: 04,3045           77624        RECYCLE            CALL
000168: 04,3046           11216                                    PREC/TT
000169: 04,3047           71214                           BOFF     DLOAD
000170: 04,3050           01350                                    OPTNSW
000171: 04,3051           11071                                    OPTN2
000172: 04,3052           03656                                    TINT
000173: 04,3053           34041                           STCALL   TDEC1                                 #  PRECISION UPDATE PASSIVE VEHICLE TO
000174: 04,3054           11247                                    INTRPVP                               #  INTERCEPT TIME
000175: 04,3055           53575                           VLOAD    UNIT
000176: 04,3056           00001                                    RATT                                  #  RP/(RP)
000177: 04,3057           47315                           PDVL     VXV
000178: 04,3060           00007                                    VATT
000179: 04,3061           60246                           ABVAL    NORM                                  #  (VP X RP/(RP))
000180: 04,3062           00047                                    X1
000181: 04,3063           56325                           PDDL     DDV
000182: 04,3064           02611                                    DELTAR
000183: 04,3065           77657                           SL*                                            #  DELTA R / (VP X RP/RP)
000184: 04,3066           20172                                    0          -7,1
000185: 04,3067           36613                           STCALL   DELTTIME                              #  DELTA T = (RP) DELTA R / (VP X RP)
000186: 04,3070           11075                                    JUNCTN2
000187: 04,3071           43345        OPTN2              DLOAD    DAD
000188: 04,3072           02611                                    TINTSOI
000189: 04,3073           00037                                    T
000190: 04,3074           03656                           STORE    TINT                                  #  TI = TI + TF
000191: 04,3075           45345        JUNCTN2            DLOAD    DSU
000192: 04,3076           03656                                    TINT
000193: 04,3077           02613                                    DELTTIME
000194: 04,3100           02615                           STORE    TARGTIME                              #  TT = TI - DELTA T
000195:
000196:                                                                                                  #  .... MAINRTNE ....
000197:
000198:                                                                                                  #  SUBROUTINES USED
000199:
000200:                                                                                                  #        S3435.25
000201:                                                                                                  #        PERIAPO1
000202:                                                                                                  #        SHIFTR1
000203:                                                                                                  #        VNDSPLY
000204:                                                                                                  #        BANKCALL
000205:                                                                                                  #        GOFLASH
000206:                                                                                                  #        GOTOPOOH
000207:                                                                                                  #        VN1645
000208:
000209: 04,3101           34041        MAINRTNE           STCALL   TDEC1                                 #  PRECISION UPDATE PASSIVE VEHICLE TO
000210: 04,3102           11247                                    INTRPVP                               #        TARGET TIME
000211: 04,3103           77745                           DLOAD
000212: 04,3104           03413                                    TIG
000213: 04,3105           03503                           STORE    INTIME
000214: 04,3106           77331                           SSP      VLOAD
000215: 04,3107           02371                                    SUBEXIT
000216: 04,3110           11114                                    TEST3979
000217: 04,3111           00001                                    RATT
000218: 04,3112           77624                           CALL
000219: 04,3113           72546                                    S3435.25
000220: 04,3114           43014        TEST3979           BOFF     BON
000221: 04,3115           04346                                    P39/79SW
000222: 04,3116           11125                                    MAINRTN1
000223: 04,3117           01311                                    FINALFLG
000224: 04,3120           11123                                    P39P79
000225: 04,3121           77614                           SET
000226: 04,3122           00470                                    UPDATFLG
000227: 04,3123           77776        P39P79             EXIT
000228: 04,3124           03152                           TC       DSPLY81                               #  FOR P39 AND P79
000229: 04,3125           51575        MAINRTN1           VLOAD    ABVAL
000230: 04,3126           03646                                    DELVEET3
000231: 04,3127           26635                           STOVL    DELVTPI                               #  DELTA V
000232: 04,3130           03640                                    VPASS4
000233: 04,3131           51451                           VSU      ABVAL
000234: 04,3132           03620                                    VTPRIME
000235: 04,3133           26637                           STOVL    DELVTPF                               #  DELTA V (FINAL) = V'T - VT
000236: 04,3134           03540                                    RACT3
000237: 04,3135           45115                           PDVL     CALL
000238: 04,3136           03612                                    VIPRIME
000239: 04,3137           45153                                    PERIAPO1                              #  GET PERIGEE ALTITUDE
000240: 04,3140           77624                           CALL
000241: 04,3141           45263                                    SHIFTR1
000242: 04,3142           02641                           STORE    POSTTPI
000243: 04,3143           43014                           BON      SET
000244: 04,3144           01311                                    FINALFLG
000245: 04,3145           11147                                    DSPLY58
000246: 04,3146           00470                                    UPDATFLG
000247: 04,3147           77776        DSPLY58            EXIT
000248: 04,3150           33301                           CAF      V06N58SR                              #  DISPLAY HP, DELTA V, DELTA V (FINAL)
000249: 04,3151           03263                           TC       VNDSPLY
000250: 04,3152           33302        DSPLY81            CAF      V06N81SR                              #  DISPLAY DELTA V (LV)
000251: 04,3153           03263                           TC       VNDSPLY
000252: 04,3154           06006                           TC       INTPRET
000253: 04,3155           77214                           CLEAR    VLOAD
000254: 04,3156           01267                                    XDELVFLG
000255: 04,3157           03646                                    DELVEET3
000256: 04,3160           37646                           STCALL   DELVSIN
000257: 04,3161           73002                                    VN1645                                #  DISPLAY TRKMKCNT, TTOGO, +MGA
000258: 04,3162           52014                           BON      GOTO
000259: 04,3163           04306                                    P39/79SW
000260: 04,3164           11203                                    P39/P79B
000261: 04,3165           11045                                    RECYCLE
000262:
000263:                                                                                                  #  STABLE ORBIT MIDCOURSE PROGRAM (P39 AND P79)
000264:
000265:                                                                                                  #  MOD NO -1             LOG SECTION - STABLE ORBIT - P38-P39
000266:                                                                                                  #  MOD BY RUDNICKI.S     DATE 25JAN68
000267:
000268:                                                                                                  #  FUNCTIONAL DESCRIPTION
000269:
000270:                                                                                                  #        P39 AND P79 CALCULATE THE REQUIRED DELTA V AND OTHER INITIAL
000271:                                                                                                  #        CONDITIONS REQUIRED BY THE AGC TO MAKE A MIDCOURSE CORRECTION
000272:                                                                                                  #        MANEUVER AFTER COMPLETING THE SOI MANEUVER BUT BEFORE MAKING
000273:                                                                                                  #        THE SOR MANEUVER
000274:
000275:                                                                                                  #  CALLING SEQUENCE
000276:
000277:                                                                                                  #        ASTRONAUT REQUEST THRU DSKY
000278:
000279:                                                                                                  #        V37E39E         IF THIS VEHICLE IS ACTIVE VEHICLE
000280:                                                                                                  #        V37E79E         IF OTHER VEHICLE IS ACTIVE VEHICLE
000281:
000282:                                                                                                  #  INPUT
000283:
000284:                                                                                                  #        (1)  TPASS4     TIME OF INTERCEPT - SAVED FROM P38/P78
000285:                                                                                                  #        (2)  TARGTIME   TIME THAT PASSIVE VEHICLE IS AT INTERCEPT POINT -
000286:                                                                                                  #                        SAVED FROM P38/P78
000287:
000288:                                                                                                  #  OUTPUT
000289:
000290:                                                                                                  #        (1)  TRKMKCNT   NUMBER OF MARKS
000291:                                                                                                  #        (2)  TTOGO      TIME TO GO
000292:                                                                                                  #        (3)  +MGA       MIDDLE GIMBAL ANGLE
000293:                                                                                                  #        (4)  DELVLVC    DELTA VELOCITY AT MID - LOCAL VERTICAL COORDINATES
000294:
000295:                                                                                                  #  SUBROUTINES USED
000296:
000297:                                                                                                  #        AVFLAGA
000298:                                                                                                  #        AVFLAGP
000299:                                                                                                  #        LOADTIME
000300:                                                                                                  #        SELECTMU
000301:                                                                                                  #        PRECSET
000302:                                                                                                  #        S34/35.1
000303:                                                                                                  #        MAINRTNE
000304:
000305: 04,3166           04627        P39                TC       AVFLAGA                               #  THIS VEHICLE ACTIVE
000306: 04,3167           00006                           EXTEND
000307: 04,3170           31422                           DCA      ATIGINC
000308: 04,3171           03175                           TC       P39/P79A
000309: 04,3172           04642        P79                TC       AVFLAGP                               #  OTHER VEHICLE ACTIVE
000310: 04,3173           00006                           EXTEND
000311: 04,3174           31424                           DCA      PTIGINC
000312: 04,3175           53764        P39/P79A           DXCH     KT                                    #  TIME TO PREPARE FOR BURN
000313: 04,3176           04647                           TC       P20FLGON                              #  SET UPDATFLG, TRACKFLG
000314: 04,3177           06006                           TC       INTPRET
000315: 04,3200           45014                           SET      CALL
000316: 04,3201           04066                                    P39/79SW
000317: 04,3202           10712                                    SELECTMU                              #  SELECT MU, CLEAR FINALFLG, GO TO VN1645
000318: 04,3203           43234        P39/P79B           RTB      DAD
000319: 04,3204           45510                                    LOADTIME
000320: 04,3205           02364                                    KT
000321: 04,3206           03413                           STORE    TIG                                   #  TIG = T (PRESENT) + PREPARATION TIME
000322: 04,3207           34041                           STCALL   TDEC1                                 #  PRECISION UPDATE ACTIVE AND PASSIVE
000323: 04,3210           45215                                    PRECSET                               #        VEHICLES TO TIG
000324: 04,3211           77624                           CALL
000325: 04,3212           74000                                    S34/35.1                              #  GET UNIT NORMAL
000326: 04,3213           52145                           DLOAD    GOTO
000327: 04,3214           02615                                    TARGTIME
000328: 04,3215           11101                                    MAINRTNE                              #  CALCULATE DELTA V AND DELTA V (LV)
000329:
000330:                                                                                                  #  .... PREC/TT ....
000331:
000332:                                                                                                  #  SUBROUTINES USED
000333:
000334:                                                                                                  #        PRECSET
000335:                                                                                                  #        TIMETHET
000336:                                                                                                  #        S34/35.1
000337:
000338: 04,3216           71220        PREC/TT            STQ      DLOAD
000339: 04,3217           02367                                    RTRN
000340: 04,3220           03413                                    TIG
000341: 04,3221           34041                           STCALL   TDEC1                                 #  PRECISION UPDATE ACTIVE AND PASSIVE
000342: 04,3222           45215                                    PRECSET                               #        VEHICLES TO TIG
000343: 04,3223           53775                           VLOAD    VSR*
000344: 04,3224           03554                                    RPASS3
000345: 04,3225           57176                                    0,2
000346: 04,3226           16657                           STODL    RVEC
000347: 04,3227           03754                                    CENTANG
000348: 04,3230           71406                           PUSH     COS
000349: 04,3231           16734                           STODL    CSTH
000350: 04,3232           43156                           SIN      SET
000351: 04,3233           03466                                    RVSW
000352: 04,3234           26732                           STOVL    SNTH
000353: 04,3235           03562                                    VPASS3
000354: 04,3236           77657                           VSR*
000355: 04,3237           57176                                    0,2
000356: 04,3240           36746                           STCALL   VVEC                                  #  GET TRANSFER TIME BASED ON CENTANG OF
000357: 04,3241           24744                                    TIMETHET                              #        PASSIVE VEHICLE
000358: 04,3242           77624                           CALL
000359: 04,3243           74000                                    S34/35.1                              #  GET UNIT NORMAL
000360: 04,3244           52145                           DLOAD    GOTO
000361: 04,3245           00037                                    T
000362: 04,3246           02367                                    RTRN
000363:
000364:                                                                                                  #  .... INTRPVP ....
000365:
000366:                                                                                                  #  SUBROUTINES USED
000367:
000368:                                                                                                  #        CSMPREC
000369:                                                                                                  #        LEMPREC
000370:
000371: 04,3247           43020        INTRPVP            STQ      BOFF                                  #  PRECISION UPDATE PASSIVE VEHICLE TO
000372: 04,3250           02367                                    RTRN                                  #        TDEC1
000373: 04,3251           01352                                    AVFLAG
000374: 04,3252           11257                                    OTHERV
000375: 04,3253           77624                           CALL
000376: 04,3254           27100                                    CSMPREC
000377: 04,3255           77650                           GOTO
000378: 04,3256           02367                                    RTRN
000379: 04,3257           77624        OTHERV             CALL
000380: 04,3260           27114                                    LEMPREC
000381: 04,3261           77650                           GOTO
000382: 04,3262           02367                                    RTRN
000383:
000384:                                                                                                  #  .... VNDSPLY ....
000385:
000386:                                                                                                  #  SUBROUTINES USED
000387:
000388:                                                                                                  #        BANKCALL
000389:                                                                                                  #        GOFLASH
000390:                                                                                                  #        GOTOPOOH
000391:
000392: 04,3263           00006        VNDSPLY            EXTEND                                         #  FLASH DISPLAY
000393: 04,3264           23767                           QXCH     RTRN
000394: 04,3265           55765                           TS       VERBNOUN
000395: 04,3266           31765                           CA       VERBNOUN
000396: 04,3267           04676                           TCR      BANKCALL
000397: 04,3270           20720                           CADR     GOFLASH
000398: 04,3271           14106                           TCF      GOTOPOOH                              #  TERMINATE
000399: 04,3272           01767                           TC       RTRN                                  #  PROCEED
000400: 04,3273           13266                           TCF      -5                                    #  RECYCLE
000401: 04,3274           01441        V06N33SR           VN       0633
000402: 04,3275           01467        V06N55SR           VN       0655
000403: 04,3276           01006        V04N06SR           VN       0406
000404: 04,3277           01471        V06N57SR           VN       0657
000405: 04,3300           01442        V06N34SR           VN       0634
000406: 04,3301           01472        V06N58SR           VN       0658
000407: 04,3302           01521        V06N81SR           VN       0681
000408:

End of include-file STABLE_ORBIT_-_P38-P39.agc.  Parent file is MAIN.agc


