
Source Code


000002:                                                                                                  ## Copyright:   Public domain.
000003:                                                                                                  ## Filename:    TAGS_FOR_RELATIVE_SETLOC_AND_BLANK_BANK_CARDS.agc
000004:                                                                                                  ## Purpose:     A section of Manche72 revision 3.
000005:                                                                                                  ##              It is part of the reconstructed source code for the final, flown
000006:                                                                                                  ##              release of the software for the Command Module's (CM) Apollo
000007:                                                                                                  ##              Guidance Computer (AGC) for Apollo 13. No original listings
000008:                                                                                                  ##              of this program are available; instead, this file was recreated
000009:                                                                                                  ##              from a reconstructed copy of Comanche 072. It has been adapted
000010:                                                                                                  ##              such that the resulting bugger words exactly match those
000011:                                                                                                  ##              specified for Manche72 revision 3 in NASA drawing 2021153G,
000012:                                                                                                  ##              which gives relatively high confidence that the reconstruction
000013:                                                                                                  ##              is correct.
000014:                                                                                                  ## Assembler:   yaYUL
000015:                                                                                                  ## Contact:     Ron Burkey <info@sandroid.org>.
000016:                                                                                                  ## Website:     www.ibiblio.org/apollo/index.html
000017:                                                                                                  ## Mod history: 2024-05-19 MAS  Created from Comanche 072.
000018:                                                                                                  ##              2024-05-21 MAS  Added tag to bank 11 as part of PCR-984, "Avoid
000019:                                                                                                  ##                              Coarse Align during Saturn".
000020:
000021: ???????                        FIXED              MEMORY   120000     -          167777
000022: ???????                                           COUNT    BANKSUM
000023:
000024:                                                                                                  #  MODULE 1 CONTAINS BANKS 0 THROUGH 5
000025:
000026:    4000                                           BLOCK    02
000027:    4000                        FFTAG1             EQUALS
000028:    4000                        FFTAG2             EQUALS
000029:    4000                        FFTAG3             EQUALS
000030:    4000                        FFTAG4             EQUALS
000031:    4000                        FFTAG7             EQUALS
000032:    4000                        FFTAG8             EQUALS
000033:    4000                        FFTAG9             EQUALS
000034:    4000                        FFTAG10            EQUALS
000035:    4000                        FFTAG12            EQUALS
000036:    4000                        P30SUBS            EQUALS
000037:    4000                        STOPRAT            EQUALS
000038:    4000                        P23S               EQUALS
000039:    4000                                           BNKSUM   02
000040:
000041:    6000                                           BLOCK    03
000042:    6000                        FFTAG5             EQUALS
000043:    6000                        FFTAG6             EQUALS
000044:    6000                        DAPS9              EQUALS
000045:    6000                        FFTAG13            EQUALS
000046:    6000                                           BNKSUM   03
000047:
000048: 00,2000                                           BANK     00
000049: 00,2000                        DLAYJOB            EQUALS
000050: 00,2000                                           BNKSUM   00
000051:
000052: 01,2000                                           BANK     01
000053: 01,2000                        RESTART            EQUALS
000054: 01,2000                                           BNKSUM   01
000055:
000056: 04,2000                                           BANK     4
000057: 04,2000                        VERB37             EQUALS
000058: 04,2000                        CONICS1            EQUALS
000059: 04,2000                        PINBALL4           EQUALS
000060: 04,2000                        CSI/CDH1           EQUALS
000061: 04,2000                        INTPRET2           EQUALS
000062: 04,2000                        IMUCAL1            EQUALS
000063:
000064:
000065: 04,2000                        STBLEORB           EQUALS
000066: 04,2000                        E/PROG             EQUALS
000067: 04,2000                        MIDDGIM            EQUALS
000068:
000069: 04,2000                                           BNKSUM   04
000070:
000071: 05,2000                                           BANK     5
000072: 05,2000                        FRANDRES           EQUALS
000073: 05,2000                        DOWNTELM           EQUALS
000074: 05,2000                        DAPMASS            EQUALS
000075: 05,2000                        CDHTAG             EQUALS
000076: 05,2000                                           BNKSUM   05
000077:
000078:                                                                                                  #  MODULE 2 CONTAINS BANKS 6 THROUGH 13
000079:
000080: 06,2000                                           BANK     6
000081: 06,2000                        IMUCOMP            EQUALS
000082: 06,2000                        T4RUP              EQUALS
000083: 06,2000                        IMUCAL2            EQUALS
000084: 06,2000                        CSIPROG            EQUALS
000085: 06,2000                                           BNKSUM   06
000086:
000087: 07,2000                                           BANK     7
000088: 07,2000                        SXTMARKE           EQUALS
000089: 07,2000                        R02                EQUALS
000090: 07,2000                        MODESW             EQUALS
000091: 07,2000                        XANG               EQUALS
000092: 07,2000                        KEYRUPT            EQUALS
000093: 07,2000                        CSIPROG6           EQUALS
000094: 07,2000                                           BNKSUM   07
000095:
000096: 10,2000                                           BANK     10
000097: 10,2000                        DISPLAYS           EQUALS
000098: 10,2000                        PHASETAB           EQUALS
000099: 10,2000                        COMGEOM2           EQUALS
000100: 10,2000                        SXTMARK1           EQUALS
000101: 10,2000                        P60S4              EQUALS
000102: 10,2000                        OPTDRV             EQUALS
000103: 10,2000                        CSIPROG8           EQUALS
000104: 10,2000                                           BNKSUM   10
000105:
000106: 11,2000                                           BANK     11
000107: 11,2000                        ORBITAL            EQUALS
000108: 11,2000                        ORBITAL1           EQUALS                                         #  CONSTANTS
000109:
000110:
000111: 11,2000                        INTVEL             EQUALS
000112: 11,2000                        S52/2              EQUALS
000113: 11,2000                        INTINIT1           EQUALS


000116: 11,2000                        MODCHG1            EQUALS
000117: 11,2000                                           BNKSUM   11
000118:
000119: 12,2000                                           BANK     12
000120: 12,2000                        CONICS             EQUALS
000121: 12,2000                        CSIPROG2           EQUALS
000122: 12,2000                        CSI/CDH2           EQUALS
000123: 12,2000                                           BNKSUM   12
000124:
000125: 13,2000                                           BANK     13
000126: 13,2000                        P76LOC             EQUALS
000127: 13,2000                        LATLONG            EQUALS
000128: 13,2000                        INTINIT            EQUALS
000129: 13,2000                        SR52/1             EQUALS
000130: 13,2000                        ORBITAL2           EQUALS
000131: 13,2000                        CDHTAGS            EQUALS
000132: 13,2000                        E/PROG1            EQUALS
000133: 13,2000                        P40S4              EQUALS
000134: 13,2000                                           BNKSUM   13
000135:
000136:                                                                                                  #  SPACER
000137:
000138:                                                                                                  #           MODULE 3 CONTAINS BANKS 14 THROUGH 21
000139:
000140: 14,2000                                           BANK     14
000141: 14,2000                        STARTAB            EQUALS
000142: 14,2000                        RT53               EQUALS
000143: 14,2000                        P50S1              EQUALS
000144: 14,2000                        MEASINC2           EQUALS
000145: 14,2000                        CSI/CDH3           EQUALS
000146: 14,2000                                           BNKSUM   14
000147:
000148: 15,2000                                           BANK     15
000149: 15,2000                        P50S               EQUALS
000150: 15,2000                        ETRYDAP            EQUALS
000151: 15,2000                        S52/3              EQUALS
000152: 15,2000                        SERV1              EQUALS
000153: 15,2000                                           BNKSUM   15
000154:
000155: 16,2000                                           BANK     16
000156: 16,2000                        P40S1              EQUALS
000157:
000158:
000159: 16,2000                        DAPROLL            EQUALS
000160: 16,2000                        P50S2              EQUALS
000161: 16,2000                        P23S1              EQUALS
000162: 16,2000                        RTE2               EQUALS
000163: 16,2000                        CSIPROG5           EQUALS
000164: 16,2000                                           BNKSUM   16
000165:
000166: 17,2000                                           BANK     17
000167: 17,2000                        EXTVRBS1           EQUALS
000168: 17,2000                        DAPS4              EQUALS
000169: 17,2000                        DAPS5              EQUALS
000170: 17,2000                        DAPS7              EQUALS
000171: 17,2000                        P50S3              EQUALS
000172: 17,2000                                           BNKSUM   17
000173:
000174: 20,2000                                           BANK     20
000175: 20,2000                        DAPS6              EQUALS
000176: 20,2000                        DAPS1              EQUALS
000177: 20,2000                        DAPS2              EQUALS
000178: 20,2000                        MANUSTUF           EQUALS
000179: 20,2000                        R36CM              EQUALS
000180: 20,2000                        VAC5LOC            EQUALS
000181: 20,2000                        R30LOC1            EQUALS
000182: 20,2000                                           BNKSUM   20
000183:
000184: 21,2000                                           BANK     21
000185: 21,2000                        EXTVRBS2           EQUALS
000186: 21,2000                        DAPS3              EQUALS
000187: 21,2000                        MYSUBS             EQUALS
000188: 21,2000                        KALCMON3           EQUALS
000189: 21,2000                                           BNKSUM   21
000190:
000191:                                                                                                  #  MODULE 4 CONTAINS BANKS 22 THROUGH 27
000192:
000193: 22,2000                                           BANK     22
000194: 22,2000                        RTBCODES           EQUALS
000195: 22,2000                        RTBCODE1           EQUALS
000196: 22,2000                        DAPS8              EQUALS
000197: 22,2000                        APOPERI            EQUALS
000198: 22,2000                        P40S5              EQUALS
000199: 22,2000                        KALCMON2           EQUALS
000200: 22,2000                        KALCMON1           EQUALS
000201: 22,2000                        CSIPROG3           EQUALS
000202: 22,2000                                           BNKSUM   22
000203:
000204:
000205: 23,2000                                           BANK     23
000206: 23,2000                        P20S2              EQUALS
000207: 23,2000                        INFLIGHT           EQUALS
000208: 23,2000                        COMGEOM1           EQUALS
000209: 23,2000                        POWFLITE           EQUALS
000210: 23,2000                        POWFLIT1           EQUALS
000211: 23,2000                        RENDGUID           EQUALS
000212: 23,2000                        POWFLIT2           EQUALS
000213: 23,2000                        R30LOC             EQUALS
000214: 23,2000                        P11FOUR            EQUALS
000215: 23,2000                        CSIPROG4           EQUALS
000216: 23,2000                                           BNKSUM   23
000217:
000218: 24,2000                                           BANK     24
000219: 24,2000                        LOADDAP            EQUALS
000220: 24,2000                        P40S               EQUALS
000221: 24,2000                        CSIPROG7           EQUALS
000222: 24,2000                                           BNKSUM   24
000223:
000224: 25,2000                                           BANK     25
000225: 25,2000                        REENTRY            EQUALS
000226: 25,2000                        CDHTAG1            EQUALS
000227: 25,2000                                           BNKSUM   25
000228:
000229: 26,2000                                           BANK     26
000230: 26,2000                        INTPRET1           EQUALS
000231: 26,2000                        REENTRY1           EQUALS
000232: 26,2000                        P60S               EQUALS
000233: 26,2000                        P60S1              EQUALS
000234: 26,2000                        P60S2              EQUALS
000235: 26,2000                        P60S3              EQUALS
000236: 26,2000                        PLANTIN            EQUALS                                         #  LUNAR ROT
000237: 26,2000                        EPHEM              EQUALS
000238: 26,2000                        P05P06             EQUALS
000239: 26,2000                        26P50S             EQUALS
000240: 26,2000                                           BNKSUM   26
000241:
000242: 27,2000                                           BANK     27
000243: 27,2000                        TOF-FF             EQUALS
000244: 27,2000                        TOF-FF1            EQUALS
000245: 27,2000                        MANUVER            EQUALS
000246: 27,2000                        MANUVER1           EQUALS
000247:
000248:
000249: 27,2000                        VECPT              EQUALS
000250: 27,2000                        UPDATE1            EQUALS
000251: 27,2000                        UPDATE2            EQUALS
000252: 27,2000                        R22S1              EQUALS
000253: 27,2000                        P60S5              EQUALS
000254: 27,2000                        P40S2              EQUALS
000255: 27,2000                                           BNKSUM   27
000256:
000257:                                                                                                  #  MODULE 5 CONTAINS BANKS 30 THROUGH 35
000258:
000259: 30,2000                                           BANK     30
000260: 30,2000                        IMUSUPER           EQUALS
000261: 30,2000                        LOWSUPER           EQUALS
000262: 30,2000                        FCSTART            EQUALS                                         #  STANDARD LOCATION FOR THIS. (FOR EXTVB)
000263: 30,2000                        LOPC               EQUALS
000264: 30,2000                        P20S1              EQUALS
000265: 30,2000                        P20S6              EQUALS
000266: 30,2000                        P40S3              EQUALS
000267: 30,2000                        R35A               EQUALS
000268: 30,2000                                           BNKSUM   30
000269:
000270: 31,2000                                           BANK     31
000271: 31,2000                        R35                EQUALS
000272: 31,2000                        RT23               EQUALS
000273: 31,2000                        P30S1A             EQUALS
000274: 31,2000                        R34                EQUALS
000275: 31,2000                        CDHTAG2            EQUALS
000276: 31,2000                        CSIPROG9           EQUALS
000277: 31,2000                        R31                EQUALS
000278: 31,2000                        P22S               EQUALS
000279: 31,2000                        RTE3               EQUALS
000280: 31,2000                                           BNKSUM   31
000281:
000282: 32,2000                                           BANK     32
000283: 32,2000                        MSGSCAN1           EQUALS
000284: 32,2000                        RTE                EQUALS
000285: 32,2000                        DELRSPL1           EQUALS
000286: 32,2000                        IMUCAL3            EQUALS
000287: 32,2000                                           BNKSUM   32
000288:
000289: 33,2000                                           BANK     33
000290: 33,2000                        TESTLEAD           EQUALS
000291:
000292:
000293: 33,2000                        IMUCAL             EQUALS
000294: 33,2000                                           BNKSUM   33
000295:
000296: 34,2000                                           BANK     34
000297: 34,2000                        P11ONE             EQUALS
000298: 34,2000                        P20S3              EQUALS
000299: 34,2000                        P20S4              EQUALS
000300: 34,2000                        RTECON             EQUALS
000301: 34,2000                                           BNKSUM   34
000302:
000303: 35,2000                                           BANK     35
000304: 35,2000                        RTECON1            EQUALS
000305: 35,2000                        CSI/CDH            EQUALS
000306: 35,2000                        P30S1              EQUALS
000307: 35,2000                        P30S               EQUALS
000308: 35,2000                        P17S1              EQUALS
000309: 35,2000                        MEASINC3           EQUALS
000310: 35,2000                        INTINIT2           EQUALS
000311: 35,2000                                           BNKSUM   35
000312:
000313:                                                                                                  #  MODULE 6 CONTAINS BANKS 36 THROUGH 43
000314:
000315: 36,2000                                           BANK     36
000316: 36,2000                        MEASINC            EQUALS
000317: 36,2000                        MEASINC1           EQUALS
000318: 36,2000                        P17S               EQUALS
000319: 36,2000                        RTE1               EQUALS
000320: 36,2000                        S3435LOC           EQUALS
000321: 36,2000                                           BNKSUM   36
000322:
000323: 37,2000                                           BANK     37
000324: 37,2000                        P20S               EQUALS
000325: 37,2000                        BODYATT            EQUALS
000326: 37,2000                        RENDEZ             EQUALS
000327: 37,2000                        SERVICES           EQUALS
000328: 37,2000                        P11TWO             EQUALS
000329: 37,2000                        CDHTAG3            EQUALS
000330: 37,2000                                           BNKSUM   37
000331:
000332: 40,2000                                           BANK     40
000333: 40,2000                        PINSUPER           EQUALS
000334:
000335:
000336: 40,2000                        SELFSUPR           EQUALS
000337: 40,2000                        PINBALL1           EQUALS
000338: 40,2000                        R36CM1             EQUALS
000339: 40,2000                                           BNKSUM   40
000340:
000341: 41,2000                                           BANK     41
000342: 41,2000                        PINBALL2           EQUALS
000343: 41,2000                        R36LM              EQUALS
000344: 41,2000                                           BNKSUM   41
000345:
000346: 42,2000                                           BANK     42
000347: 42,2000                        SBAND              EQUALS
000348: 42,2000                        PINBALL3           EQUALS
000349: 42,2000                        EXTVBS             EQUALS
000350: 42,2000                        R36LM1             EQUALS
000351: 42,2000                                           BNKSUM   42
000352:
000353: 43,2000                                           BANK     43
000354: 43,2000                        SELFCHEC           EQUALS
000355: 43,2000                        EXTVERBS           EQUALS
000356: 43,2000                                           BNKSUM   43
000357:
000358: 43,2000  26,3333               HI6ZEROS           EQUALS   ZEROVECS                              #  ZERO VECTOR ALWAYS IN HIGH MEMORY
000359: 43,2000  04,3565               LO6ZEROS           EQUALS   ZEROVEC                               #  ZERO VECTOR ALWAYS IN LOW MEMORY
000360: 43,2000  26,3331               HIDPHALF           EQUALS   UNITX
000361: 43,2000  04,3563               LODPHALF           EQUALS   XUNIT
000362: 43,2000  26,3323               HIDP1/4            EQUALS   DP1/4TH
000363: 43,2000  04,3611               LODP1/4            EQUALS   D1/4                                  #  2DEC .25
000364: 43,2000  26,3331               HIUNITX            EQUALS   UNITX
000365: 43,2000  26,3327               HIUNITY            EQUALS   UNITY
000366: 43,2000  26,3325               HIUNITZ            EQUALS   UNITZ
000367: 43,2000  04,3563               LOUNITX            EQUALS   XUNIT                                 #  2DEC .5
000368: 43,2000  04,3561               LOUNITY            EQUALS   YUNIT                                 #  2DEC 0
000369: 43,2000  04,3557               LOUNITZ            EQUALS   ZUNIT                                 #  2DEC 0
000370: 43,2000  11,3745               3/4LOWDP           EQUALS   3/4                                   #  2DEC 3.0 B-2
000371:
000372: 43,2000  30,2000                                  SBANK=   LOWSUPER
000373:
000374:                                                                                                  #  ROPE SPECIFIC ASSIGNS OBVIATING NEED TO CHECK COMPUTER FLAG IN DETVRUZVING INTEGRATION AREA ENTRIES
000375:
000376: 43,2000  13,3114               OTHPREC            EQUALS   LEMPREC
000377: 43,2000  13,2767               ATOPOTH            EQUALS   ATOPLEM
000378: 43,2000  13,2714               ATOPTHIS           EQUALS   ATOPCSM
000379: 43,2000  0000173               MOONTHIS           EQUALS   CMOONFLG
000380:
000381:
000382: 43,2000  0000174               MOONOTH            EQUALS   LMOONFLG
000383: 43,2000  13,2727               MOVATHIS           EQUALS   MOVEACSM
000384: 43,2000  31,2032               STATEST            EQUALS   V83CALL                               #  * TEMPORARY
000385: 43,2000  13,3100               THISPREC           EQUALS   CSMPREC
000386: 43,2000  26,3331               THISAXIS           =        UNITX
000387: 43,2000     5070               ERASID             EQUALS   LOW10                                 #  DOWNLINK ERASABLE DUMP ID
000388: 43,2000     6214               DELAYNUM           EQUALS   THREE
000389:
000390:                                                                                                  # ****************************************************************************************************************
000391:
000392:                                                                                                  #  THE FOLLOWING ECADRS ARE DEFINED TO FACILITATE EBANK SWITCHING.  THEY ALSO MAKE IT EASIER FOR
000393:                                                                                                  #  ERASABLE CONTROL TO REARRANGE ERASABLE MEMORY WITHOUT DISRUPTING THE PROGRAMS WHICH SET EBANKS.
000394:                                                                                                  #  PRIOR TO ROPE RELEASE FIXED MEMORY CAN BE SAVED BY SETTING EACH EBXXXX =EBANKX (X=4,5,6,7).  EBANKX OF COURSE
000395:                                                                                                  #  WILL BE THE BANK WHERE THE ERASABLES REFERENCED IN EBXXXX WILL BE STORED.
000396:
000397: 07,2000                                           BANK     7
000398: 07,2000  E7,1674                                  EBANK=   MARKDOWN
000399: 07,2000           03674        EBMARKDO           ECADR    MARKDOWN
000400: 07,2001  E7,1725                                  EBANK=   MRKBUF1
000401: 07,2001           03725        EBMRKBUF           ECADR    MRKBUF1
000402:
000403: 24,2000                                           BANK     24
000404: 24,2000  E7,1431                                  EBANK=   DVCNTR
000405: 24,2000           03431        EBDVCNTR           ECADR    DVCNTR
000406: 24,2001  E7,1672                                  EBANK=   P40TMP
000407: 24,2001           03672        EBP40TMP           ECADR    P40TMP
000408:
000409: 34,2000                                           BANK     34
000410: 34,2000  E7,1431                                  EBANK=   DVCNTR
000411: 34,2000           03431        EBDVCNT            ECADR    DVCNTR
000412: 34,2001  E5,1426                                  EBANK=   QPLACES
000413: 34,2001           02426        EBQPLACE           ECADR    QPLACES
000414:
000415: 37,2000                                           BANK     37
000416: 37,2000     1231                                  EBANK=   RN1
000417: 37,2000           01231        EBRN1              ECADR    RN1
000418:
000419:                                                                                                  # ****************************************************************************************************************

End of include-file TAGS_FOR_RELATIVE_SETLOC_AND_BLANK_BANK_CARDS.agc.  Parent file is MAIN.agc


