
Source Code


000002:                                                                                                  ## Copyright:   Public domain.
000003:                                                                                                  ## Filename:    TVCDAPS.agc
000004:                                                                                                  ## Purpose:     A section of Manche72 revision 3.
000005:                                                                                                  ##              It is part of the reconstructed source code for the final, flown
000006:                                                                                                  ##              release of the software for the Command Module's (CM) Apollo
000007:                                                                                                  ##              Guidance Computer (AGC) for Apollo 13. No original listings
000008:                                                                                                  ##              of this program are available; instead, this file was recreated
000009:                                                                                                  ##              from a reconstructed copy of Comanche 072. It has been adapted
000010:                                                                                                  ##              such that the resulting bugger words exactly match those
000011:                                                                                                  ##              specified for Manche72 revision 3 in NASA drawing 2021153G,
000012:                                                                                                  ##              which gives relatively high confidence that the reconstruction
000013:                                                                                                  ##              is correct.
000014:                                                                                                  ## Assembler:   yaYUL
000015:                                                                                                  ## Contact:     Ron Burkey <info@sandroid.org>.
000016:                                                                                                  ## Website:     www.ibiblio.org/apollo/index.html
000017:                                                                                                  ## Mod history: 2024-05-19 MAS  Created from Comanche 072.
000018:
000019:                                                                                                  #  PROGRAM NAME....TVCDAP, CONSISTING OF PITCHDAP, YAWDAP, ETC.
000020:                                                                                                  #  LOG SECTION...TVCDAPS                 SUBROUTINE...DAPCSM
000021:                                                                                                  #  MODIFIED BY SCHLUNDT                          21 OCTOBER 1968
000022:
000023:                                                                                                  #  FUNCTIONAL DESCRIPTION....
000024:
000025:                                                                                                  #        SELF-PERPETUATING T5 TASKS WHICH GENERATE THE COMMAND SIGNALS
000026:                                                                                                  #        FOR THE PITCH AND YAW SPS GIMBAL ACTUATORS DURING TVC (SPS) BURNS,
000027:                                                                                                  #        IN RESPONSE TO BODY-AXIS RATE COMMANDS FROM CROSS-PRODUCT STEERING
000028:                                                                                                  #        (S40.8).  IF NO STEERING (IMPULSIVE BURNS) MAINTAINS ATTITUDE-HOLD
000029:                                                                                                  #        ABOUT THE REFERENCE (INITIAL) DIRECTIONS (ZERO RATE COMMANDS).
000030:
000031:                                                                                                  #        THE PITCH AND YAW LOOPS ARE SEPARATE, BUT STRUCTURED IDENTICALLY.
000032:                                                                                                  #        EACH ATTITUDE-RATE LOOP INCLUDES GIMBAL ANGLE RATE DERIVATION,
000033:                                                                                                  #        GIMBAL/BODY AXIS TRANSFORMATION, BODY-AXIS ATTITUDE ERROR
000034:                                                                                                  #        INTEGRATION WITH ERROR LIMITING, THE GENERALIZED 6TH-ORDER FILTER
000035:                                                                                                  #        FOR CSM OR CSM/LM OPERATION, A FILTER OUTPUT LIMITER,
000036:                                                                                                  #        CG-OFFSET TRACKER FILTER, AND THE CG-TRACKER MINOR LOOP.
000037:
000038:                                                                                                  #        THE DAPS ARE CYCLIC, CALLING EACH OTHER AT 1/2 THE DAP SAMPLE
000039:                                                                                                  #        TIME, AS DETERMINED BY T5TVCDT.  THE ACTUATOR COMMANDS ARE
000040:                                                                                                  #        REGENERATED AS ANALOG VOLTAGES BY THE OPTICS ERROR COUNTERS, WHICH
000041:                                                                                                  #        TRANSMIT THE SIGNAL TO THE ACTUATOR SERVOS WHEN THERE IS PROPER CDU
000042:                                                                                                  #        MODING.
000043:
000044:                                                                                                  #  CALLING SEQUENCE.... (TYPICALLY)
000045:
000046:                                                                                                  #        T5 CALL OF TVCDAPON (TVCINITIALIZE) BY DOTVCON (P40)
000047:                                                                                                  #        T5 CALL OF DAPINIT (TVCDAPS) BY TVCINIT4 (TVCINITIALIZE)
000048:                                                                                                  #        T5 CALL OF PITCHDAP BY DAPINIT
000049:                                                                                                  #        T5 CALL OF YAWDAP BY PITCHDAP
000050:                                                                                                  #        T5 CALL OF PITCHDAP BY YAWDAP
000051:                                                                                                  #                ETC.
000052:                                                                                                  #        (AUTOMATIC SEQUENCING FROM TVCDAPON)
000053:
000054:                                                                                                  #  NORMAL EXIT MODE....RESUME
000055:
000056:                                                                                                  #  ALARM OR ABORT EXIT MODES....NONE
000057:
000058:                                                                                                  #  SUBROUTINES CALLED....
000059:
000060:                                                                                                  #        HACK FOR STROKE TEST (V68) WAVEFORM GENERATION
000061:                                                                                                  #        PCOPY, YCOPY FOR COPY-CYCLES (USED ALSO BY TVC RESTART PACKAGE)
000062:                                                                                                  #        DAPINIT FOR INITIAL CDUS FOR RATE MEASUREMENTS
000063:                                                                                                  #        ERRORLIM, ACTLIM FOR INPUT (ATTITUDE-ERROR INTEGRATION) AND
000064:                                                                                                  #                OUTPUT (ACTUATOR COMMAND) LIMITING, COMMON TO PITCH AND
000065:                                                                                                  #                YAW DAPS
000066:                                                                                                  #        FWDFLTR (INCLUDING OPTVARK) AND PRECOMP, TO COMPUTE FILTER
000067:                                                                                                  #                OUTPUTS AND STORAGE VALUES
000068:                                                                                                  #        RESUME
000069:
000070:                                                                                                  #  OTHER INTERFACES....
000071:
000072:                                                                                                  #        S40.8 CROSS-PRODUCT STEERING FOR BODY AXIS RATE COMMANDS OMEGAY,ZC
000073:                                                                                                  #        S40.15 FOR THE INITIAL DAP GAINS VARK AND 1/CONACC
000074:                                                                                                  #        TVCEXECUTIVE FOR DAP GAIN UPDATES AND TMC LOOP OPERATIONS
000075:                                                                                                  #        TVCRESTART PACKAGE FOR TVC RESTART PROTECTION.
000076:
000077:                                                                                                  #  ERASABLE INITIALIZATION REQUIRED....
000078:
000079:                                                                                                  #        PAD-LOAD ERASABLES (SEE ERASABLE ASSIGNMENTS)
000080:                                                                                                  #        CONFIGURATION BITS (14, 13) OF DAPDATR1 AS IN R03
000081:                                                                                                  #        ENGINE-ON BIT (11.13) FOR RESTARTS
000082:                                                                                                  #        TVCPHASE FOR RESTARTS (SEE DOTVCON, AND TVCINIT4)
000083:                                                                                                  #        T5 BITS (15,14 OF FLAGWRD6) FOR RESTARTS
000084:                                                                                                  #        MISCELLANEOUS VARIABLES SET UP OR COMPUTED BY TVCDAPON....TVCINIT4,
000085:                                                                                                  #                INCLUDING THE ZEROING OF TEMPORARIES BY MRCLEAN
000086:                                                                                                  #        CDUX,Y,Z AND SINCDUX.... COSCDUZ AS PREPARED BY QUICTRIG (WITH
000087:                                                                                                  #                UPDATES EVERY 1/2 SECOND)
000088:                                                                                                  #        ALSO G+N PRIMARY, TVC ENABLE, AND OPTICS ERROR COUNTER ENABLE
000089:                                                                                                  #                UNLESS BENCH-TESTING.
000090:
000091:                                                                                                  #  OUTPUT....
000092:
000093:                                                                                                  #        TVCPITCH AND TVCYAW WITH COUNTER RELEASE (11.14 AND 11.13 INCREMEN-
000094:                                                                                                  #                TAL COMMANDS TO OPTICS ERROR COUNTERS), FILTER NODES, BODY-
000095:                                                                                                  #                AXIS ATTITUDE ERROR INTEGRATOR, TOTAL ACTUATOR COMMANDS,
000096:                                                                                                  #                OFFSET-TRACKER-FILTER OUTPUTS, ETC.
000097:
000098:                                                                                                  #  DEBRIS....
000099:
000100:                                                                                                  #        MUCH, SHAREABLE WITH RCS/ENTRY, IN EBANK6 ONLY
000101:
000102: 17,2610                                           BANK     17
000103: 20,2000                                           SETLOC   DAPS2
000104: 20,2000                                           BANK
000105:
000106: 20,2547  E6,1704                                  EBANK=   BZERO
000107:
000108: 20,2547                                           COUNT*   $$/DAPS
000109:
000110:                                                                                                  #  PITCH TVCDAP STARTS HERE....(INCORPORATES CSM/LEM DAP FILTER, MODOR DESIGN)
000111:
000112: 20,2547           22016        PITCHDAP           LXCH     BANKRUPT                              #  T5 ENTRY, NORMAL OR VIA DAPINIT
000113: 20,2550           00006                           EXTEND
000114: 20,2551           22012                           QXCH     QRUPT
000115:
000116: 20,2552           33533                           CAF      YAWT5                                 #  SET UP T5 CALL FOR YAW AUTOPILOT (LOW-
000117: 20,2553           55312                           TS       T5LOC                                 #        ORDER PART OF 2CADR ALREADY THERE)
000118: 20,2554           31625                           CAE      T5TVCDT
000119: 20,2555           54030                           TS       TIME5
000120:
000121: 20,2556           11574        PSTROKER           CCS      STROKER                               #  (STRKFLG) CHECK FOR STROKE TEST
000122: 20,2557           03571                           TC       HACK                                  #  TEST-START OR TEST-IN-PROGRESS
000123: 20,2560           12562                           TCF      +2                                    #  NO-TEST
000124: 20,2561           03571                           TC       HACK                                  #  TEST-IN-PROGRESS
000125:
000126: 20,2562           30033        PCDUDOTS           CAE      CDUY                                  #  COMPUTE CDUYDOT (USED BY PITCH AND YAW)
000127: 20,2563           57645                           XCH      PCDUYPST
000128: 20,2564           00006                           EXTEND
000129: 20,2565           21645                           MSU      PCDUYPST
000130: 20,2566           02577                           TCR      RLIMTEST                              #        RATE TEST
000131: 20,2567           55651                           TS       MCDUYDOT                              #        (MINUS, SC.AT 1/2TVCDT REVS/SEC)
000132:
000133: 20,2570           30034                           CAE      CDUZ                                  #  COMPUTE CDUZDOT (USED BY PITCH AND YAW)
000134: 20,2571           57646                           XCH      PCDUZPST
000135: 20,2572           00006                           EXTEND
000136: 20,2573           21646                           MSU      PCDUZPST
000137: 20,2574           02577                           TCR      RLIMTEST                              #        RATE TEST
000138: 20,2575           55652                           TS       MCDUZDOT                              #        (MINUS, SC.AT 1/2TVCDT REVS/SEC)
000139: 20,2576           12610                           TCF      PINTEGRL
000140:
000141: 20,2577           55611        RLIMTEST           TS       TTMP1                                 #  TEST FOR EXCESSIVE CDU RATES (GREATER
000142: 20,2600           00006                           EXTEND                                         #        THAN 2.33 DEG IN ONE SAMPLE PERIOD)
000143: 20,2601           73534                           MP       1/RTLIM
000144: 20,2602           00006                           EXTEND
000145: 20,2603           12606                           BZF      +3
000146: 20,2604           35035                           CAF      ZERO
000147: 20,2605           55611                           TS       TTMP1
000148: 20,2606           31611                           CAE      TTMP1
000149: 20,2607           00002                           TC       Q
000150:
000151: 20,2610           00006        PINTEGRL           EXTEND                                         #  COMPUTE INTEGRAL OF BODY-AXIS PITCH-RATE
000152: 20,2611           31576                           DCA      PERRB                                 #        ERROR, SC.AT B-1 REVS
000153: 20,2612           53705                           DXCH     ERRBTMP
000154:
000155: 20,2613           00006                           EXTEND
000156: 20,2614           31530                           DCA      OMEGAYC
000157: 20,2615           21705                           DAS      ERRBTMP
000158:
000159: 20,2616           40746                           CS       COSCDUZ                               #  PREPARE BODY-AXIS PITCH RATE, OMEGAYB
000160: 20,2617           00006                           EXTEND
000161: 20,2620           70750                           MP       COSCDUX
000162: 20,2621           20001                           DDOUBL
000163: 20,2622           00006                           EXTEND
000164: 20,2623           71651                           MP       MCDUYDOT
000165: 20,2624           20001                           DDOUBL
000166: 20,2625           53536                           DXCH     OMEGAYB
000167:
000168: 20,2626           41652                           CS       MCDUZDOT
000169: 20,2627           00006                           EXTEND
000170: 20,2630           70742                           MP       SINCDUX
000171: 20,2631           20001                           DDOUBL
000172: 20,2632           21536                           DAS      OMEGAYB                               #  (COMPLETED OMEGAYB, SC.AT 1/2TVCDT REVS)
000173:
000174: 20,2633           00006                           EXTEND                                         #  PICK UP -OMEGAYB (SIGN CHNG, INTEGRATE)
000175: 20,2634           41536                           DCS      OMEGAYB
000176: 20,2635           21705                           DAS      ERRBTMP
000177:
000178: 20,2636           03161        PERORLIM           TCR      ERRORLIM                              #  PITCH BODY-AXIS-ERROR INPUT LIMITER
000179:
000180: 20,2637           00006        PFORWARD           EXTEND                                         #        PREPARE THE FILTER STORAGE LOCATIONS
000181: 20,2640           31542                           DCA      PTMP1                                 #        FOR THE PITCH CHANNEL
000182: 20,2641           53711                           DXCH     TMP1
000183: 20,2642           00006                           EXTEND
000184: 20,2643           31546                           DCA      PTMP3
000185: 20,2644           53715                           DXCH     TMP3
000186: 20,2645           00006                           EXTEND
000187: 20,2646           31552                           DCA      PTMP5
000188: 20,2647           53721                           DXCH     TMP5
000189:
000190: 20,2650           03213                           TCR      FWDFLTR                               #  GO COMPUTE PRESENT OUTPUT
000191:                                                                                                  #  (INCLUDES VARIABLE GAIN PACKAGE)
000192:
000193: 20,2651           00006        POFFSET            EXTEND
000194: 20,2652           31606                           DCA      PDELOFF
000195: 20,2653           21707                           DAS      CMDTMP                                #  NOW SCALED AT B+0 ASCREV
000196:
000197: 20,2654           03174        PACLIM             TCR      ACTLIM                                #  ROUND OFF & LIMIT PITCH ACTUATOR COMMAND
000198:
000199: 20,2655           41623        POUT               CS       PCMD                                  #  INCREMENTAL PITCH COMMAND
000200: 20,2656           61706                           AD       CMDTMP
000201: 20,2657           26054                           ADS      TVCPITCH                              #  UPDATE THE ERROR COUNTER (NO RESTART-
000202:                                                                                                  #        PROTECT, SINCE ERROR CNTR ZEROED)
000203:
000204: 20,2660           35021                           CAF      BIT11                                 #  BIT FOR TVCPITCH COUNT RELEASE
000205: 20,2661           00006                           EXTEND
000206: 20,2662           05014                           WOR      CHAN14
000207:
000208: 20,2663           00006        PPRECOMP           EXTEND                                         #        PREPARE THE FILTER STORAGE FOR PITCH
000209: 20,2664           31544                           DCA      PTMP2
000210: 20,2665           53713                           DXCH     TMP2
000211: 20,2666           00006                           EXTEND
000212: 20,2667           31550                           DCA      PTMP4
000213: 20,2670           53717                           DXCH     TMP4
000214: 20,2671           00006                           EXTEND
000215: 20,2672           31554                           DCA      PTMP6
000216: 20,2673           53723                           DXCH     TMP6
000217:
000218: 20,2674           03305                           TCR      PRECOMP                               #      TO THE FILTER FOR PRECOMPUTATION
000219:
000220: 20,2675           31602        DELBARP            CAE      DELPBAR    +1                         #  UPDATE PITCH OFFSET-TRACKER-FILTER
000221: 20,2676           00006                           EXTEND
000222: 20,2677           73536                           MP       E(-AT)
000223: 20,2700           55703                           TS       DELBRTMP   +1
000224: 20,2701           31601                           CAE      DELPBAR
000225: 20,2702           00006                           EXTEND
000226: 20,2703           73536                           MP       E(-AT)
000227: 20,2704           21703                           DAS      DELBRTMP
000228: 20,2705           31706                           CAE      CMDTMP
000229: 20,2706           00006                           EXTEND
000230: 20,2707           73535                           MP       1-E(-AT)
000231: 20,2710           21703                           DAS      DELBRTMP
000232:
000233: 20,2711           02713        PCOPYCYC           TCR      PCOPY                                 #  PITCH COPYCYCLE
000234:
000235: 20,2712           15347        PDAPEND            TCF      RESUME                                #  PITCH DAP COMPLETED
000236:                                                                                                  #  PITCH TVCDAP COPYCYCLE SUBROUTINE (CALLED VIA PITCH TVCDAP OR TVC RESTART PACKAGE)
000237:
000238: 20,2713           25644        PCOPY              INCR     TVCPHASE                              #  RESTART-PROTECT THE COPYCYCLE.        (1)
000239:                                                                                                  #        NOTE POSSIBLE RE-ENTRY FROM RESTART
000240:                                                                                                  #        PACKAGE, SHOULD A RESTART OCCUR
000241:                                                                                                  #        DURING PITCH COPYCYCLE.
000242:
000243: 20,2714           00006                           EXTEND
000244: 20,2715           31711                           DCA      TMP1
000245: 20,2716           53542                           DXCH     PTMP1
000246: 20,2717           00006                           EXTEND
000247: 20,2720           31713                           DCA      TMP2
000248: 20,2721           53544                           DXCH     PTMP2
000249: 20,2722           00006                           EXTEND
000250: 20,2723           31715                           DCA      TMP3
000251: 20,2724           53546                           DXCH     PTMP3
000252: 20,2725           00006                           EXTEND
000253: 20,2726           31717                           DCA      TMP4
000254: 20,2727           53550                           DXCH     PTMP4
000255: 20,2730           00006                           EXTEND
000256: 20,2731           31721                           DCA      TMP5
000257: 20,2732           53552                           DXCH     PTMP5
000258: 20,2733           00006                           EXTEND
000259: 20,2734           31723                           DCA      TMP6
000260: 20,2735           53554                           DXCH     PTMP6
000261:
000262: 20,2736           00006        PMISC              EXTEND                                         #  MISC....PITCH-RATE-ERROR INTEGRATOR
000263: 20,2737           31705                           DCA      ERRBTMP
000264: 20,2740           55477                           TS       AK1                                   #        FOR PITCH NEEDLES, SC.AT B-1 REVS
000265: 20,2741           53576                           DXCH     PERRB
000266:
000267: 20,2742           31706                           CAE      CMDTMP                                #        PITCH ACTUATOR COMMAND
000268: 20,2743           55623                           TS       PCMD
000269:
000270: 20,2744           00006                           EXTEND                                         #        PITCH OFFSET-TRACKER-FILTER
000271: 20,2745           31703                           DCA      DELBRTMP
000272: 20,2746           53602                           DXCH     DELPBAR
000273:
000274: 20,2747           25644                           INCR     TVCPHASE                              #  PITCH COPYCYCLE COMPLETED             (2)
000275:
000276: 20,2750           00002                           TC       Q
000277:
000278:                                                                                                  #  YAW TVCDAP STARTS HERE....(INCORPORATES CSM/LEM DAP FILTER, MODOR DESIGN)
000279:
000280: 20,2751           22016        YAWDAP             LXCH     BANKRUPT                              #  T5 ENTRY, NORMAL
000281: 20,2752           00006                           EXTEND
000282: 20,2753           22012                           QXCH     QRUPT
000283:
000284: 20,2754           33531                           CAF      PITCHT5                               #  SET UP T5 CALL FOR PITCH AUTOPILOT (LOW-
000285: 20,2755           55312                           TS       T5LOC                                 #        ORDER PART OF 2CADR ALREADY THERE)
000286: 20,2756           31625                           CAE      T5TVCDT
000287: 20,2757           54030                           TS       TIME5
000288:
000289: 20,2760           11574        YSTROKER           CCS      STROKER                               #  (STRKFLG) CHECK FOR STROKE TEST
000290: 20,2761           03571                           TC       HACK                                  #  TEST-START OR TEST-IN-PROGRESS
000291: 20,2762           12764                           TCF      +2                                    #  NO-TEST
000292: 20,2763           03571                           TC       HACK                                  #  TEST-IN-PROGRESS
000293:
000294: 20,2764           30033        YCDUDOTS           CAE      CDUY                                  #  COMPUTE CDUYDOT
000295: 20,2765           57647                           XCH      YCDUYPST
000296: 20,2766           00006                           EXTEND
000297: 20,2767           21647                           MSU      YCDUYPST
000298: 20,2770           02577                           TCR      RLIMTEST                              #        RATE TEST
000299: 20,2771           55651                           TS       MCDUYDOT                              #        (MINUS, SCALED 1/2TVCDT REV/SEC)
000300:
000301: 20,2772           30034                           CAE      CDUZ                                  #  COMPUTE CDUZDOT
000302: 20,2773           57650                           XCH      YCDUZPST
000303: 20,2774           00006                           EXTEND
000304: 20,2775           21650                           MSU      YCDUZPST
000305: 20,2776           02577                           TCR      RLIMTEST                              #        RATE TEST
000306: 20,2777           55652                           TS       MCDUZDOT                              #        (MINUS, SCALED 1/2TVCDT REV/SEC)
000307:
000308: 20,3000           00006        YINTEGRL           EXTEND                                         #  COMPUTE INTEGRAL OF BODY-AXIS YAW-RATE
000309: 20,3001           31600                           DCA      YERRB                                 #        ERROR, SC.AT B-1 REVS
000310: 20,3002           53705                           DXCH     ERRBTMP
000311:
000312: 20,3003           00006                           EXTEND
000313: 20,3004           31532                           DCA      OMEGAZC
000314: 20,3005           21705                           DAS      ERRBTMP
000315:
000316: 20,3006           30746                           CAE      COSCDUZ                               #  PREPARE BODY-AXIS YAW-RATE, OMEGAZB
000317: 20,3007           00006                           EXTEND
000318: 20,3010           70742                           MP       SINCDUX
000319: 20,3011           20001                           DDOUBL
000320: 20,3012           00006                           EXTEND
000321: 20,3013           71651                           MP       MCDUYDOT
000322: 20,3014           20001                           DDOUBL
000323: 20,3015           53540                           DXCH     OMEGAZB
000324:
000325: 20,3016           41652                           CS       MCDUZDOT
000326: 20,3017           00006                           EXTEND
000327: 20,3020           70750                           MP       COSCDUX
000328: 20,3021           20001                           DDOUBL
000329: 20,3022           21540                           DAS      OMEGAZB                               #  (COMPLETED OMEGAZB, SC.AT 1/2TVCDT REVS)
000330:
000331: 20,3023           00006                           EXTEND                                         #  PICK UP -OMEGAZB (SIGN CHNG, INTEGRATE)
000332: 20,3024           41540                           DCS      OMEGAZB
000333: 20,3025           21705                           DAS      ERRBTMP
000334:
000335: 20,3026           03161        YERORLIM           TCR      ERRORLIM                              #  YAW BODY-AXIS-ERROR INPUT LIMITER
000336:
000337: 20,3027           00006        YFORWARD           EXTEND                                         #        PREPARE THE FILTER STORAGE LOCATIONS
000338: 20,3030           31556                           DCA      YTMP1                                 #        FOR THE YAW CHANNEL
000339: 20,3031           53711                           DXCH     TMP1
000340: 20,3032           00006                           EXTEND
000341: 20,3033           31562                           DCA      YTMP3
000342: 20,3034           53715                           DXCH     TMP3
000343: 20,3035           00006                           EXTEND
000344: 20,3036           31566                           DCA      YTMP5
000345: 20,3037           53721                           DXCH     TMP5
000346:
000347: 20,3040           03213                           TCR      FWDFLTR                               #  GO COMPUTE PRESENT OUTPUT
000348:                                                                                                  #  (INCLUDES VARIABLE GAIN PACKAGE)
000349:
000350: 20,3041           00006        YOFFSET            EXTEND
000351: 20,3042           31610                           DCA      YDELOFF
000352: 20,3043           21707                           DAS      CMDTMP                                #  NOW SCALED AT B+0 ASCREV
000353:
000354: 20,3044           03174        YACLIM             TCR      ACTLIM                                #  ROUND OFF & LIMIT YAW ACTUATOR COMMAND
000355:
000356: 20,3045           41624        YOUT               CS       YCMD                                  #  INCREMENTAL YAW COMMAND
000357: 20,3046           61706                           AD       CMDTMP
000358: 20,3047           26053                           ADS      TVCYAW                                #  UPDATE THE ERROR COUNTER (NO RESTART-
000359:                                                                                                  #        PROTECT, SINCE ERROR CNTR ZEROED)
000360:
000361: 20,3050           35020                           CAF      BIT12                                 #  BIT FOR TVCYAW COUNT RELEASE
000362: 20,3051           00006                           EXTEND
000363: 20,3052           05014                           WOR      CHAN14
000364:
000365: 20,3053           00006        YPRECOMP           EXTEND                                         #        PREPARE THE FILTER STORAGE FOR YAW
000366: 20,3054           31560                           DCA      YTMP2
000367: 20,3055           53713                           DXCH     TMP2
000368: 20,3056           00006                           EXTEND
000369: 20,3057           31564                           DCA      YTMP4
000370: 20,3060           53717                           DXCH     TMP4
000371: 20,3061           00006                           EXTEND
000372: 20,3062           31570                           DCA      YTMP6
000373: 20,3063           53723                           DXCH     TMP6
000374:
000375: 20,3064           03305                           TCR      PRECOMP                               #        TO THE FILTER FOR PRECOMPUTATION
000376:
000377: 20,3065           31604        DELBARY            CAE      DELYBAR    +1                         #  UPDATE YAW OFFSET-TRACKER-FILTER
000378: 20,3066           00006                           EXTEND
000379: 20,3067           73536                           MP       E(-AT)
000380: 20,3070           55703                           TS       DELBRTMP   +1
000381: 20,3071           31603                           CAE      DELYBAR
000382: 20,3072           00006                           EXTEND
000383: 20,3073           73536                           MP       E(-AT)
000384: 20,3074           21703                           DAS      DELBRTMP
000385: 20,3075           31706                           CAE      CMDTMP
000386: 20,3076           00006                           EXTEND
000387: 20,3077           73535                           MP       1-E(-AT)
000388: 20,3100           21703                           DAS      DELBRTMP
000389:
000390: 20,3101           03103        YCOPYCYC           TCR      YCOPY                                 #  YAW COPYCYCLE
000391:
000392: 20,3102           15347        YDAPEND            TCF      RESUME                                #  YAW DAP COMPLETED
000393:
000394:                                                                                                  #  YAW   TVCDAP COPYCYCLE SUBROUTINE (CALLED VIA YAW   TVCDAP OR TVC RESTART PACKAGE)
000395:
000396: 20,3103           25644        YCOPY              INCR     TVCPHASE                              #  RESTART-PROTECT THE COPYCYCLE.        (3)
000397:                                                                                                  #        NOTE POSSIBLE RE-ENTRY FROM RESTART
000398:                                                                                                  #        PACKAGE, SHOULD A RESTART OCCUR
000399:                                                                                                  #        DURING YAW   COPYCYCLE.
000400:
000401: 20,3104           00006                           EXTEND
000402: 20,3105           31711                           DCA      TMP1
000403: 20,3106           53556                           DXCH     YTMP1
000404: 20,3107           00006                           EXTEND
000405: 20,3110           31713                           DCA      TMP2
000406: 20,3111           53560                           DXCH     YTMP2
000407: 20,3112           00006                           EXTEND
000408: 20,3113           31715                           DCA      TMP3
000409: 20,3114           53562                           DXCH     YTMP3
000410: 20,3115           00006                           EXTEND
000411: 20,3116           31717                           DCA      TMP4
000412: 20,3117           53564                           DXCH     YTMP4
000413: 20,3120           00006                           EXTEND
000414: 20,3121           31721                           DCA      TMP5
000415: 20,3122           53566                           DXCH     YTMP5
000416: 20,3123           00006                           EXTEND
000417: 20,3124           31723                           DCA      TMP6
000418: 20,3125           53570                           DXCH     YTMP6
000419:
000420: 20,3126           00006        YMISC              EXTEND                                         #  MISC....YAW-RATE-ERROR INTEGRATOR
000421: 20,3127           31705                           DCA      ERRBTMP
000422: 20,3130           55500                           TS       AK2                                   #        FOR YAW   NEEDLES, SC.AT B-1 REVS
000423: 20,3131           53600                           DXCH     YERRB
000424:
000425: 20,3132           31706                           CAE      CMDTMP
000426: 20,3133           55624                           TS       YCMD
000427:
000428: 20,3134           00006                           EXTEND
000429: 20,3135           31703                           DCA      DELBRTMP
000430: 20,3136           53604                           DXCH     DELYBAR
000431:
000432: 20,3137           35035                           CAF      ZERO                                  #  YAW   COPYCYCLE COMPLETED
000433: 20,3140           55644                           TS       TVCPHASE                              #        RESET TVCPHASE
000434:
000435: 20,3141           00002                           TC       Q
000436:
000437:                                                                                                  #  SUBROUTINES COMMON TO BOTH PITCH AND YAW DAPS....
000438:
000439:                                                                                                  #  INITIALIZATION PACKAGE FOR CDURATES....
000440:
000441: 20,3142           22016        DAPINIT            LXCH     BANKRUPT                              #  T5 RUPT ENTRY (CALLED BY TVCINT4)
000442:
000443: 20,3143           37716                           CAF      NEGONE                                #        SET UP
000444: 20,3144           61625                           AD       T5TVCDT                               #        T5 CALL FOR PITCHDAP IN TVCDT SECS
000445: 20,3145           65015                           AD       NEGMAX                                #        (T5TVCDT = POSMAX - TVCDT/2 +1)
000446: 20,3146           61625                           AD       T5TVCDT
000447: 20,3147           54030                           TS       TIME5
000448: 20,3150           33531                           CAF      PITCHT5                               #        (BBCON ALREADY THERE)
000449: 20,3151           55312                           TS       T5LOC
000450:
000451: 20,3152           30033                           CAE      CDUY                                  #  READ AND STORE CDUS FOR DIFFERENTIATOR
000452: 20,3153           55645                           TS       PCDUYPST                              #        PAST-VALUES
000453: 20,3154           55647                           TS       YCDUYPST
000454: 20,3155           30034                           CAE      CDUZ
000455: 20,3156           55646                           TS       PCDUZPST
000456: 20,3157           55650                           TS       YCDUZPST
000457:
000458: 20,3160           15351                           TCF      NOQRSM
000459:
000460:                                                                                                  #  BODY-AXIS-ERROR   INPUT LIMITER PACKAGE....
000461:
000462: 20,3161           31704        ERRORLIM           CAE      ERRBTMP                               #  CHECK FOR INPUT-ERROR LIMIT
000463: 20,3162           00006                           EXTEND                                         #        CHECKS UPPER WORD ONLY
000464: 20,3163           75031                           MP       1/ERRLIM
000465: 20,3164           00006                           EXTEND
000466: 20,3165           13173                           BZF      +6
000467: 20,3166           11704                           CCS      ERRBTMP
000468: 20,3167           35017                           CAF      ERRLIM
000469: 20,3170           13172                           TCF      +2
000470: 20,3171           45017                           CS       ERRLIM
000471: 20,3172           55704                           TS       ERRBTMP                               #  LIMIT WRITES OVER UPPER WORD ONLY
000472:
000473: 20,3173           00002                           TC       Q
000474:
000475:                                                                                                  #  ACTUATOR-COMMAND LIMITER PACKAGE....
000476:
000477: 20,3174           31707        ACTLIM             CAE      CMDTMP     +1                         #  ROUND UP FOR OUTPUT
000478: 20,3175           60000                           DOUBLE
000479: 20,3176           54001                           TS       L
000480: 20,3177           35035                           CAF      ZERO
000481: 20,3200           61706                           AD       CMDTMP
000482:
000483: 20,3201           00006                           EXTEND                                         #  CHECK FOR ACTUATOR COMMAND LIMIT
000484: 20,3202           73530                           MP       1/ACTSAT
000485: 20,3203           00006                           EXTEND
000486: 20,3204           13212                           BZF      +6
000487: 20,3205           11706                           CCS      CMDTMP                                #  APPLY LIMITS
000488: 20,3206           33527                           CAF      ACTSAT
000489: 20,3207           13211                           TCF      +2
000490: 20,3210           43527                           CS       ACTSAT
000491: 20,3211           55706                           TS       CMDTMP                                #  LIMITS WRITE OVER CMDTMP
000492:
000493: 20,3212           00002                           TC       Q
000494:
000495:                                                                                                  #  FILTER COMPUTATIONS FOR PRESENT OUTPUT................
000496:
000497: 20,3213           35035        FWDFLTR            CAF      ZERO
000498: 20,3214           55615                           TS       DAP1
000499: 20,3215           55617                           TS       DAP2
000500: 20,3216           55621                           TS       DAP3
000501: 20,3217           55706                           TS       CMDTMP
000502:
000503: 20,3220           55702                           TS       DELBRTMP
000504:
000505: 20,3221           31705        1DAPCAS            CAE      ERRBTMP    +1                         #  FIRST DAP CASCADE
000506: 20,3222           00006                           EXTEND
000507: 20,3223           71725                           MP       N10                                   #        N10
000508: 20,3224           55616                           TS       DAP1       +1
000509: 20,3225           31704                           CA       ERRBTMP
000510: 20,3226           00006                           EXTEND
000511: 20,3227           71725                           MP       N10                                   #        N10
000512: 20,3230           21616                           DAS      DAP1
000513: 20,3231           53711                           DXCH     TMP1
000514: 20,3232           21616                           DAS      DAP1
000515:
000516: 20,3233           31616        2DAPCAS            CAE      DAP1       +1                         #  SECOND DAP CASCADE
000517: 20,3234           00006                           EXTEND
000518: 20,3235           71732                           MP       N10        +5                         #        N20
000519: 20,3236           55620                           TS       DAP2       +1
000520: 20,3237           31615                           CA       DAP1
000521: 20,3240           00006                           EXTEND
000522: 20,3241           71732                           MP       N10        +5                         #        N20
000523: 20,3242           21620                           DAS      DAP2
000524: 20,3243           53715                           DXCH     TMP3
000525: 20,3244           21620                           DAS      DAP2
000526:
000527: 20,3245           31466                           CAE      DAPDATR1                              #  TEST FOR LEM ON OR OFF
000528: 20,3246           75016                           MASK     BIT14
000529: 20,3247           10000                           CCS      A
000530: 20,3250           13257                           TCF      3DAPCAS                               #  LEM ON
000531: 20,3251           00006                           EXTEND                                         #  LEM OFF
000532: 20,3252           31620                           DCA      DAP2
000533: 20,3253           20001                           DDOUBL
000534: 20,3254           20001                           DDOUBL
000535: 20,3255           53622                           DXCH     DAP3
000536: 20,3256           13271                           TCF      OPTVARK
000537:
000538: 20,3257           31620        3DAPCAS            CAE      DAP2       +1                         #  THIRD DAP CASCADE
000539: 20,3260           00006                           EXTEND
000540: 20,3261           71737                           MP       N10        +10D                       #        N30
000541: 20,3262           55622                           TS       DAP3       +1
000542: 20,3263           31617                           CA       DAP2
000543: 20,3264           00006                           EXTEND
000544: 20,3265           71737                           MP       N10        +10D                       #        N30
000545: 20,3266           21622                           DAS      DAP3
000546: 20,3267           53721                           DXCH     TMP5
000547: 20,3270           21622                           DAS      DAP3
000548:


000553: 20,3271           41622        OPTVARK            CS       DAP3       +1                         #  VARIABLE GAIN PACKAGE
000554: 20,3272           00006                           EXTEND                                         #  (ALSO, SIGN CHANGE IN FORWARD LOOP)
000555: 20,3273           71641                           MP       VARK                                  #        SCALED (1.08 B+2)   CSM/LM
000556: 20,3274           55707                           TS       CMDTMP     +1                         #               (  "  B+4)   CSM
000557: 20,3275           41621                           CS       DAP3
000558: 20,3276           00006                           EXTEND
000559: 20,3277           71641                           MP       VARK
000560: 20,3300           21707                           DAS      CMDTMP
000561:
000562: 20,3301           53707                           DXCH     CMDTMP                                #  FIX UP SCALING - SCALED B+3 ASCREVS
000563: 20,3302           20001                           DDOUBL
000564: 20,3303           53707                           DXCH     CMDTMP                                #                 - SCALED B+1 ASCREVS
000565:                                                                                                  #  NOTE - THERE IS AN INHERANT GAIN OF
000566:                                                                                                  #  (B+1 ASCREVS) ON THE OUTPUT DACS.
000567:
000568: 20,3304           00002                           TC       Q
000569:
000570:                                                                                                  #  FILTER PRECOMPUTATIONS FOR NEXT PASS...................
000571:
000572: 20,3305           35035        PRECOMP            CAF      ZERO                                  #  ***** FIRST CASCADE FILTER **********
000573: 20,3306           55611                           TS       TTMP1
000574: 20,3307           55613                           TS       TTMP2
000575:
000576: 20,3310           31705                           CA       ERRBTMP    +1                         #  MULTIPLY INPUT BY
000577: 20,3311           00006                           EXTEND
000578: 20,3312           71726                           MP       N10        +1                         #        N11/2
000579: 20,3313           55612                           TS       TTMP1      +1
000580: 20,3314           31704                           CA       ERRBTMP
000581: 20,3315           00006                           EXTEND
000582: 20,3316           71726                           MP       N10        +1                         #        N11/2
000583: 20,3317           21612                           DAS      TTMP1
000584:
000585: 20,3320           41616                           CS       DAP1       +1                         #  MULTIPLY OUTPUT BY
000586: 20,3321           00006                           EXTEND
000587: 20,3322           71730                           MP       N10        +3                         #        D11/2
000588: 20,3323           55614                           TS       TTMP2      +1
000589: 20,3324           41615                           CS       DAP1
000590:
000591: 20,3325           00006                           EXTEND
000592: 20,3326           71730                           MP       N10        +3                         #        D11/2
000593: 20,3327           21614                           DAS      TTMP2
000594:
000595: 20,3330           53614                           DXCH     TTMP2
000596: 20,3331           21612                           DAS      TTMP1
000597: 20,3332           53612                           DXCH     TTMP1
000598: 20,3333           20001                           DDOUBL
000599: 20,3334           21713                           DAS      TMP2
000600:
000601: 20,3335           53713                           DXCH     TMP2
000602: 20,3336           53711                           DXCH     TMP1
000603:
000604: 20,3337           35035                           CAF      ZERO
000605: 20,3340           55611                           TS       TTMP1
000606: 20,3341           55712                           TS       TMP2
000607:
000608: 20,3342           31705                           CA       ERRBTMP    +1                         #  MULTIPLY INPUT BY
000609: 20,3343           00006                           EXTEND                                         #  SECOND-ORDER NUMERATOR COEFF.
000610: 20,3344           71727                           MP       N10        +2                         #        N12
000611: 20,3345           55612                           TS       TTMP1      +1
000612: 20,3346           31704                           CA       ERRBTMP
000613: 20,3347           00006                           EXTEND
000614: 20,3350           71727                           MP       N10        +2                         #        N12
000615: 20,3351           21612                           DAS      TTMP1
000616:
000617: 20,3352           41616                           CS       DAP1       +1                         #  MULTIPLY OUTPUT BY
000618: 20,3353           00006                           EXTEND
000619: 20,3354           71731                           MP       N10        +4                         #        D12
000620: 20,3355           55713                           TS       TMP2       +1
000621: 20,3356           41615                           CS       DAP1
000622: 20,3357           00006                           EXTEND
000623: 20,3360           71731                           MP       N10        +4                         #        D12
000624: 20,3361           21713                           DAS      TMP2
000625:
000626: 20,3362           53612                           DXCH     TTMP1
000627: 20,3363           21713                           DAS      TMP2
000628:
000629: 20,3364           35035        2CASFLTR           CAF      ZERO                                  #  ***** SECOND CASCADE FILTER *****
000630: 20,3365           55611                           TS       TTMP1
000631: 20,3366           55613                           TS       TTMP2
000632:
000633: 20,3367           31616                           CA       DAP1       +1                         #  MULTIPLY INPUT BY
000634: 20,3370           00006                           EXTEND
000635: 20,3371           71733                           MP       N10        +6                         #        N21/2
000636: 20,3372           55612                           TS       TTMP1      +1
000637: 20,3373           31615                           CA       DAP1
000638: 20,3374           00006                           EXTEND
000639: 20,3375           71733                           MP       N10        +6                         #        N21/2
000640: 20,3376           21612                           DAS      TTMP1
000641:
000642: 20,3377           41620                           CS       DAP2       +1                         #  MULTIPLY OUTPUT BY
000643: 20,3400           00006                           EXTEND
000644: 20,3401           71735                           MP       N10        +8D                        #        D21/2
000645: 20,3402           55614                           TS       TTMP2      +1
000646: 20,3403           41617                           CS       DAP2
000647: 20,3404           00006                           EXTEND
000648: 20,3405           71735                           MP       N10        +8D                        #        D21/2
000649: 20,3406           21614                           DAS      TTMP2
000650:
000651: 20,3407           53614                           DXCH     TTMP2
000652: 20,3410           21612                           DAS      TTMP1
000653: 20,3411           53612                           DXCH     TTMP1
000654: 20,3412           20001                           DDOUBL
000655: 20,3413           21717                           DAS      TMP4
000656:
000657: 20,3414           53717                           DXCH     TMP4
000658: 20,3415           53715                           DXCH     TMP3
000659:
000660: 20,3416           35035                           CAF      ZERO
000661: 20,3417           55611                           TS       TTMP1
000662: 20,3420           55716                           TS       TMP4
000663:
000664: 20,3421           31616                           CA       DAP1       +1                         #  MULTIPLY INPUT BY
000665: 20,3422           00006                           EXTEND
000666: 20,3423           71734                           MP       N10        +7                         #        N22
000667: 20,3424           55612                           TS       TTMP1      +1
000668: 20,3425           31615                           CA       DAP1
000669: 20,3426           00006                           EXTEND
000670: 20,3427           71734                           MP       N10        +7                         #        N22
000671: 20,3430           21612                           DAS      TTMP1
000672:
000673: 20,3431           41620                           CS       DAP2       +1                         #  MULTIPLY OUTPUT BY
000674: 20,3432           00006                           EXTEND
000675: 20,3433           71736                           MP       N10        +9D                        #        D22
000676: 20,3434           55717                           TS       TMP4       +1
000677: 20,3435           41617                           CS       DAP2
000678: 20,3436           00006                           EXTEND
000679: 20,3437           71736                           MP       N10        +9D                        #        D22
000680: 20,3440           21717                           DAS      TMP4
000681:
000682: 20,3441           53612                           DXCH     TTMP1
000683: 20,3442           21717                           DAS      TMP4
000684:
000685: 20,3443           31466                           CAE      DAPDATR1                              #  TEST FOR LEM ON OR OFF
000686: 20,3444           75017                           MASK     BIT13
000687: 20,3445           10000                           CCS      A
000688: 20,3446           00002                           TC       Q                                     #  EXIT IF LEM OFF
000689:
000690: 20,3447           35035        3CASFLTR           CAF      ZERO                                  #  ***** THIRD CASCADE FILTER *****
000691: 20,3450           55611                           TS       TTMP1
000692: 20,3451           55613                           TS       TTMP2
000693:
000694: 20,3452           31620                           CA       DAP2       +1                         #  MULTIPLY INPUT BY (1/2)
000695: 20,3453           00006                           EXTEND
000696: 20,3454           71740                           MP       N10        +11D                       #        N31/2
000697: 20,3455           55612                           TS       TTMP1      +1
000698: 20,3456           31617                           CA       DAP2
000699: 20,3457           00006                           EXTEND
000700: 20,3460           71740                           MP       N10        +11D                       #        N31/2
000701: 20,3461           21612                           DAS      TTMP1
000702:
000703: 20,3462           41622                           CS       DAP3       +1
000704: 20,3463           00006                           EXTEND
000705: 20,3464           71742                           MP       N10        +13D                       #        D31/2
000706: 20,3465           55614                           TS       TTMP2      +1
000707: 20,3466           41621                           CS       DAP3
000708: 20,3467           00006                           EXTEND
000709: 20,3470           71742                           MP       N10        +13D                       #        D31/2
000710: 20,3471           21614                           DAS      TTMP2
000711:
000712: 20,3472           53614                           DXCH     TTMP2
000713: 20,3473           21612                           DAS      TTMP1
000714: 20,3474           53612                           DXCH     TTMP1
000715: 20,3475           20001                           DDOUBL
000716: 20,3476           21723                           DAS      TMP6
000717:
000718: 20,3477           53723                           DXCH     TMP6
000719: 20,3500           53721                           DXCH     TMP5
000720:
000721: 20,3501           35035                           CAF      ZERO
000722: 20,3502           55611                           TS       TTMP1
000723: 20,3503           55722                           TS       TMP6
000724:
000725: 20,3504           31620                           CA       DAP2       +1                         #  MULTIPLY INPUT BY
000726: 20,3505           00006                           EXTEND
000727: 20,3506           71741                           MP       N10        +12D                       #        N32
000728: 20,3507           55612                           TS       TTMP1      +1
000729: 20,3510           31617                           CA       DAP2
000730: 20,3511           00006                           EXTEND
000731: 20,3512           71741                           MP       N10        +12D                       #        N32
000732: 20,3513           21612                           DAS      TTMP1
000733:
000734: 20,3514           41622                           CS       DAP3       +1
000735: 20,3515           00006                           EXTEND
000736: 20,3516           71743                           MP       N10        +14D                       #        D32
000737: 20,3517           55723                           TS       TMP6       +1
000738: 20,3520           41621                           CS       DAP3
000739: 20,3521           00006                           EXTEND
000740: 20,3522           71743                           MP       N10        +14D                       #        D32
000741: 20,3523           21723                           DAS      TMP6
000742:
000743: 20,3524           53612                           DXCH     TTMP1
000744: 20,3525           21723                           DAS      TMP6
000745:
000746: 20,3526           00002                           TC       Q
000747:
000748:                                                                                                  #  CONSTANTS FOR AUTOPILOTS
000749:
000750:                                                                                                  #  NOTE....1 ASCREV (ACTUATOR CMD SCALING) = 85.41 ARCSEC/BIT OR 1.07975111 REVS (85.41X16384/3600/360)
000751:                                                                                                  #          1 SPASCREV (SPECIAL ACTUATOR CMD SCALING) = 1.04620942 REVS
000752:
000753: 20,3527           00375        ACTSAT             DEC      253        B-14                       #  ACTUATOR LIMIT (6 DEG), SC.AT 1ASCREV
000754: 20,3530           00101        1/ACTSAT           DEC      .0039525692                            #  RECIPROCAL (1/253)
000755:
000756: 20,3531     5017               ERRLIM             EQUALS   BIT13                                 #  FILTER INPUT LIMIT....B-3 REVS (45DEG),
000757: 20,3531     5031               1/ERRLIM           EQUALS   BIT3                                  #        SC.AT B-1 REV, AND ITS RECIPROCAL
000758:
000759: 20,3531           02547        PITCHT5            GENADR   PITCHDAP                              #  UPPER WORDS OF T5 2CADRS, LOWER WORDS
000760: 20,3532           03142        DAPT5              GENADR   DAPINIT                               #        (BBCON) ALREADY THERE.  ORDER IS
000761: 20,3533           02751        YAWT5              GENADR   YAWDAP                                #        REQUIRED.
000762:
000763: 20,3534           00115        1/RTLIM            DEC      0.004715                              #  .004715(CDUDIF) = 0 IF CDUDIF < 2.33 DEG
000764: 20,3535           00243        1-E(-AT)           OCT      00243                                 #  AT = .01SEC....EITHER(1/A=4SEC, T=40MS),
000765: 20,3536           37535        E(-AT)             OCT      37535                                 #                     OR(1/A=8SEC, T=80MS)
000766:

End of include-file TVCDAPS.agc.  Parent file is MAIN.agc


