
Source Code


000002:                                                                                                  ## Copyright:   Public domain.
000003:                                                                                                  ## Filename:    TVCINITIALIZE.agc
000004:                                                                                                  ## Purpose:     A section of Manche72 revision 3.
000005:                                                                                                  ##              It is part of the reconstructed source code for the final, flown
000006:                                                                                                  ##              release of the software for the Command Module's (CM) Apollo
000007:                                                                                                  ##              Guidance Computer (AGC) for Apollo 13. No original listings
000008:                                                                                                  ##              of this program are available; instead, this file was recreated
000009:                                                                                                  ##              from a reconstructed copy of Comanche 072. It has been adapted
000010:                                                                                                  ##              such that the resulting bugger words exactly match those
000011:                                                                                                  ##              specified for Manche72 revision 3 in NASA drawing 2021153G,
000012:                                                                                                  ##              which gives relatively high confidence that the reconstruction
000013:                                                                                                  ##              is correct.
000014:                                                                                                  ## Assembler:   yaYUL
000015:                                                                                                  ## Contact:     Ron Burkey <info@sandroid.org>.
000016:                                                                                                  ## Website:     www.ibiblio.org/apollo/index.html
000017:                                                                                                  ## Mod history: 2024-05-19 MAS  Created from Comanche 072.
000018:
000019:                                                                                                  #  NAME          TVCDAPON (TVC DAP INITIALIZATION AND STARTUP CALL)
000020:                                                                                                  #  LOG SECTION...TVCINITIALIZE                   SUBROUTINE...DAPCSM
000021:                                                                                                  #  MODIFIED BY SCHLUNDT                          21 OCTOBER 1968
000022:                                                                                                  #  FUNCTIONAL DESCRIPTION
000023:                                                                                                  #        PERFORMS TVCDAP INITIALIZATION (GAINS, TIMING PARAMETERS, FILTER VARIABLES, ETC.)
000024:                                                                                                  #        COMPUTES STEERING (S40.8) GAIN KPRIMEDT, AND ZEROES PASTDELV,+1 VARIABLE
000025:                                                                                                  #        MAKES INITIALIZATION CALL TO ..NEEDLER.. FOR TVC DAP NEEDLES-SETUP
000026:                                                                                                  #        PERFORMS INITIALIZATION FOR ROLL DAP
000027:                                                                                                  #        CALLS TVCEXECUTIVE AT TVCEXEC, VIA WAITLIST
000028:                                                                                                  #        CALLS TVCDAP CDU-RATE INITIALIZATION PKG AT DAPINIT  VIA T5
000029:                                                                                                  #        PROVIDES FOR LOADING OF LOW-BANDWIDTH COEFFS AND GAINS AT SWICHOVR
000030:                                                                                                  #  CALLING SEQUENCE - T5LOC=2CADR(TVCDAPON,EBANK=BZERO), T5=.6SECT5
000031:                                                                                                  #        IN PARTICULAR, CALLED BY ..DOTVCON.. IN P40
000032:                                                                                                  #        MRCLEAN AND TVCINIT4 ARE POSSIBLE RESTART ENTRY POINTS
000033:                                                                                                  #  NORMAL EXIT MODE
000034:                                                                                                  #        TCF RESUME
000035:                                                                                                  #  SUBROUTINES CALLED
000036:                                                                                                  #        NEEDLER, MASSPROP
000037:                                                                                                  #  ALARM OR ABORT EXIT MODES
000038:                                                                                                  #        NONE
000039:                                                                                                  #  ERASABLE INITIALIZATION REQUIRED
000040:                                                                                                  #        CSMMASS, LEMMASS, DAPDATR1 (FOR MASSPROP SUBROUTINE)
000041:                                                                                                  #        TVC PAD LOADS (SEE EBANK6 IN ERASABLE ASSIGNMENTS)
000042:                                                                                                  #        PACTOFF, YACTOFF, CDUX
000043:                                                                                                  #        TVCPHASE AND THE T5 BITS OF FLAGWRD6 (SET AT DOTVCON IN P40)
000044:                                                                                                  #  OUTPUT
000045:                                                                                                  #        ALL TVC AND ROLL DAP ERASABLES, FLAGWRD6 (BITS 13,14), T5, WAITLIST
000046:                                                                                                  #  DEBRIS
000047:                                                                                                  #        NONE
000048:
000049: 42,3767                                           COUNT*   $$/INIT
000050: 17,2205                                           BANK     17
000051: 17,2000                                           SETLOC   DAPS7
000052: 17,2000                                           BANK
000053:
000054: 17,2205  E6,1704                                  EBANK=   BZERO
000055:
000056: 17,2205           22016        TVCDAPON           LXCH     BANKRUPT                              #  T5 RUPT ARRIVAL (CALL BY DOTVCON - P40)
000057: 17,2206           00006                           EXTEND                                         #  SAVE Q REQUIRED IN RESTARTS (MRCLEAN AND
000058: 17,2207           22012                           QXCH     QRUPT                                 #        TVCINIT4 ARE ENTRIES)
000059: 17,2210           32572        MRCLEAN            CAF      NZERO                                 #  NUMBER TO ZERO, LESS ONE  (MUST BE ODD)
000060:                                                                                                  #        TVC RESTARTS ENTER HERE  (NEW BANK)
000061: 17,2211           10000                 +1        CCS      A
000062: 17,2212           55447                           TS       CNTR
000063: 17,2213           35035                           CAF      ZERO
000064: 17,2214           54001                           TS       L
000065: 17,2215           51447                           INDEX    CNTR
000066: 17,2216           53530                           DXCH     OMEGAYC                               #  FIRST (LAST) TWO LOCATIONS
000067: 17,2217           11447                           CCS      CNTR
000068: 17,2220           12211                           TCF      MRCLEAN    +1
000069: 17,2221           00006                           EXTEND                                         #  SET UP ANOTHER T5 RUPT TO CONTINUE
000070: 17,2222           32607                           DCA      INITLOC2                              #        INITIALIZATION AT TVCINIT1
000071: 17,2223           53313                           DXCH     T5LOC                                 #  THE PHSCHK2 ENTRY (REDOTVC) AT TVCDAPON
000072: 17,2224           35013                           CAF      POSMAX                                #        +3 IS IN ANOTHER BANK.  MUST RESET
000073: 17,2225           54030                           TS       TIME5                                 #        BBCON TOO (FULL 2CADR), FOR THAT
000074: 17,2226           15347        ENDMRC             TCF      RESUME                                #        ENTRY.
000075:
000076: 17,2227           22016        TVCINIT1           LXCH     BANKRUPT
000077: 17,2230           00006                           EXTEND
000078: 17,2231           22012                           QXCH     QRUPT
000079:
000080: 17,2232           04754                           TC       IBNKCALL                              #  UPDATE IXX, IAVG/TLX FOR DAP GAINS (R03
000081: 17,2233           13370                           CADR     MASSPROP                              #        OR NOUNS 46 AND 47 MUST BE CORRECT)
000082:
000083: 17,2234           30110                           CAE      EMDOT                                 #  SPS FLOW RATE, SCALED B+3 KG/CS
000084: 17,2235           00006                           EXTEND
000085: 17,2236           72603                           MP       ONETHOU
000086: 17,2237           55637                           TS       TENMDOT                               #  10-SEC MASS LOSS B+16 KG
000087: 17,2240           40000                           COM
000088: 17,2241           61474                           AD       CSMMASS
000089: 17,2242           55654                           TS       MASSTMP                               #  DECREMENT FOR FIRST 10 SEC OF BURN
000090:
000091: 17,2243           31466                           CAE      DAPDATR1                              #  CHECK LEM-ON/OFF
000092: 17,2244           75016                           MASK     BIT14
000093: 17,2245           10000                           CCS      A
000094: 17,2246           35033                           CAF      BIT1                                  #  LEM-ON (BIT1)
000095: 17,2247           55447                           TS       CNTR                                  #  LEM-OFF (ZERO)
000096:
000097: 17,2250           51447                           INDEX    CNTR                                  #  LOAD THE FILTER COEFFICIENTS
000098: 17,2251           32567                           CAF      CSMCFADR
000099: 17,2252           55724                           TS       COEFFADR
000100: 17,2253           02460                           TC       LOADCOEF
000101:
000102: 17,2254           51447                           INDEX    CNTR                                  #  PICK UP LM-OFF,-ON KTLX/I
000103: 17,2255           31416                           CAE      EKTLX/I                               #  SCALED AT 1/(8 ASCREV) OF ACTUAL VALUE
000104: 17,2256           55636                           TS       KTLX/I
000105:
000106: 17,2257           02520                           TCR      S40.15                                #  COMPUTE 1/CONACC, VARK
000107:
000108: 17,2260           41447        TVCINIT2           CS       CNTR                                  #  PICK LM-OFF,-ON VALUE FOR FILTER PERIOD
000109: 17,2261           50000                           INDEX    A                                     #  DETERMINATION:
000110: 17,2262           35032                           CAF      BIT2                                  #        BIT2 FOR CSM ONLY 40MS FILTER
000111: 17,2263           55634                           TS       KPRIMEDT                              #        BIT3 FOR CSM/LM 80MS FILTER
000112:
000113: 17,2264           40000                           COM                                            #  PREPARE T5TVCDT
000114: 17,2265           65013                           AD       POSMAX
000115: 17,2266           65033                           AD       BIT1
000116: 17,2267           55625                           TS       T5TVCDT
000117:
000118: 17,2270           45015                           CS       BIT15                                 #  RESET SWTOVER FLAG
000119: 17,2271           70105                           MASK     FLAGWRD9
000120: 17,2272           54105                           TS       FLAGWRD9
000121:
000122: 17,2273           51447                           INDEX    CNTR                                  #  PICK UP LEM-OFF,-ON KPRIME
000123: 17,2274           31414                           CAE      EKPRIME                               #        SCALED (100 PI)/16
000124: 17,2275           00006                           EXTEND
000125: 17,2276           71634                           MP       KPRIMEDT                              #  (TVCDT/2, SC.AT B+14 CS)
000126: 17,2277           22000                           LXCH     A                                     #        SC.AT PI/8      (DIMENSIONLESS)
000127: 17,2300           53635                           DXCH     KPRIMEDT
000128:
000129: 17,2301           51447                           INDEX    CNTR                                  #  PICK UP LEM-OFF,-ON REPFRAC
000130: 17,2302           31421                           CAE      EREPFRAC
000131: 17,2303           55642                           TS       REPFRAC
000132:
000133: 17,2304           51447                           INDEX    CNTR                                  #  PICK UP ONE-SHOT CORRECTION TIME
000134: 17,2305           32576                           CAF      TCORR
000135: 17,2306           55447                           TS       CNTR
000136:
000137: 17,2307           37716                           CAF      NEGONE                                #  PREVENT STROKE TEST UNTIL CALLED
000138: 17,2310           55656                           TS       STRKTIME
000139:
000140: 17,2311           34374                           CAF      NINETEEN                              #  SET VCNTR FOR VARIABLE-GAIN UPDATES IN
000141: 17,2312           55643                           TS       VCNTR                                 #        10 SECONDS (TVCEXEC 1/2 SEC RATE)
000142: 17,2313           55444                           TS       V97VCNTR                              #  FOR ENGFAIL (R41) LOGIC
000143:
000144: 17,2314           31423        TVCINIT3           CAE      PACTOFF                               #  TRIM VALUES TO TRIM-TRACKERS, OUTPUT
000145: 17,2315           55605                           TS       PDELOFF                               #        TRACKERS, OFFSET-UPDATES, AND
000146: 17,2316           55623                           TS       PCMD                                  #        OFFSET-TRACKER FILTERS
000147: 17,2317           55601                           TS       DELPBAR                               #        NOTE, LO-ORDER DELOFF,DELBAR ZEROED
000148:
000149: 17,2320           31424                           CAE      YACTOFF
000150: 17,2321           55607                           TS       YDELOFF
000151: 17,2322           55624                           TS       YCMD
000152: 17,2323           55603                           TS       DELYBAR
000153:
000154: 17,2324           31466        ATTINIT            CAE      DAPDATR1                              #  ATTITUDE-ERROR INITIALIZATION LOGIC
000155: 17,2325           75017                           MASK     BIT13                                 #        TEST FOR CSM OR CSM/LM
000156: 17,2326           00006                           EXTEND
000157: 17,2327           12355                           BZF      NEEDLEIN                              #        BYPASS INITIALIZATION FOR CSM/LM
000158:
000159: 17,2330           35033                           CAF      BIT1                                  #        SET UP TEMPORARY COUNTER
000160: 17,2331           55611                 +5        TS       TTMP1
000161:
000162: 17,2332           51611                           INDEX    TTMP1
000163: 17,2333           31704                           CA       ERRBTMP                               #  ERRBTMP CONTAINS RCS ATTITUDE ERRORS
000164: 17,2334           00006                           EXTEND                                         #        ERRORY & ERRORZ (P40 AT DOTVCON)
000165: 17,2335           72575                           MP       1/ATTLIM                              #  .007325(ERROR) = 0 IF ERROR < 1.5 DEG
000166: 17,2336           00006                           EXTEND
000167: 17,2337           12347                           BZF      +8D                                   #        |ERROR| LESS THAN 1.5 DEG
000168: 17,2340           00006                           EXTEND
000169: 17,2341           62344                           BZMF     +3                                    #        |ERROR| > 1.5 DEG, AND NEG
000170: 17,2342           32574                           CA       ATTLIM                                #        |ERROR| > 1.5 DEG, AND POS
000171: 17,2343           12345                           TCF      +2
000172: 17,2344           42574                 +3        CS       ATTLIM
000173: 17,2345           51611                 +2        INDEX    TTMP1
000174: 17,2346           55704                           TS       ERRBTMP
000175: 17,2347           11611                 +8        CCS      TTMP1                                 #        TEST TEMPORARY COUNTER
000176: 17,2350           12331                           TCF      ATTINIT    +5                         #        BACK TO REPEAT FOR PITCH ERROR
000177:
000178: 17,2351           31704                           CA       ERRBTMP                               #  ERRORS ESTABLISHED AND LIMITED
000179: 17,2352           55575                           TS       PERRB
000180: 17,2353           31705                           CA       ERRBTMP    +1
000181: 17,2354           55577                           TS       YERRB
000182:
000183: 17,2355           41501        NEEDLEIN           CS       RCSFLAGS                              #  SET BIT 3 FOR INITIALIZATION PASS AND GO
000184: 17,2356           75031                           MASK     BIT3                                  #        TO NEEDLER.  WILL CLEAR FOR TVC DAP
000185: 17,2357           27501                           ADS      RCSFLAGS                              #        (RETURNS AFTER CADR)
000186: 17,2360           04754                           TC       IBNKCALL
000187: 17,2361           42432                           CADR     NEEDLER
000188:
000189: 17,2362           35035        TVCINIT4           CAF      ZERO                                  #  SET TVCPHASE TO INDICATE TVCDAPON-THRU-
000190: 17,2363           55644                           TS       TVCPHASE                              #        NEEDLEIN INITIALIZATION FINISHED.
000191:                                                                                                  #        (POSSIBLE TVC-RESTART ENTRY)
000192:
000193: 17,2364           30032                           CAE      CDUX                                  #  PREPARE ROLL DAP
000194: 17,2365           55664                           TS       OGANOW
000195:
000196: 17,2366           35017                           CAF      BIT13                                 #  IF ENGINE IS ALREADY OFF, ENGINOFF HAS
000197: 17,2367           00006                           EXTEND                                         #        ALREADY ESTABLISHED THE POST-BURN
000198: 17,2370           02011                           RAND     DSALMOUT                              #        CSMMASS (MASSBACK DOES IT).  DONT
000199: 17,2371           00006                           EXTEND                                         #        TOUCH CSMMASS.  IF ENGINE IS ON,
000200: 17,2372           12375                           BZF      +3                                    #        THEN ITS OK TO DO THE COPYCYCLE
000201:                                                                                                  #        EVEN BURNS LESS THAN 0.4 SEC ARE AOK
000202:
000203: 17,2373           31654                           CAE      MASSTMP                               #  COPYCYCLE
000204: 17,2374           55474                           TS       CSMMASS
000205:
000206: 17,2375           35052                 +3        CAF      .5SEC                                 #  CALL TVCEXECUTIVE (ROLLDAP CALL, ETC)
000207: 17,2376           05261                           TC       WAITLIST
000208: 17,2377  E6,1704                                  EBANK=   BZERO
000209: 17,2377           02772 34066                     2CADR    TVCEXEC
000210:
000211: 17,2401           00006                           EXTEND                                         #  CALL FOR DAPINIT
000212: 17,2402           32605                           DCA      DAPINIT5
000213: 17,2403           53313                           DXCH     T5LOC
000214: 17,2404           31625                           CAE      T5TVCDT                               #  (ALLOW TIME FOR RESTART COMPUTATIONS)
000215: 17,2405           54030                           TS       TIME5
000216: 17,2406           15347        ENDTVCIN           TCF      RESUME
000217:
000218: 17,2407           02412        PRESWTCH           TCR      SWICHOVR                              #  ENTRY FROM V46
000219:
000220: 17,2410           04715                           TC       POSTJUMP                              #  THIS PROVIDES AN EXIT FROM SWITCH-OVER
000221: 17,2411           21272                           CADR     PINBRNCH                              #        (PINBRNCH DOES A RELINT)
000222:
000223: 17,2412           00004        SWICHOVR           INHINT
000224: 17,2413           31644                           CA       TVCPHASE                              #  SAVE TVCPHASE
000225: 17,2414           55611                           TS       PHASETMP
000226: 17,2415           45032                           CS       BIT2                                  #  SET TVCPHASE = -2 (INDICATES SWITCH-OVER
000227: 17,2416           55644                           TS       TVCPHASE                              #        TO RESTART LOGIC)
000228:
000229: 17,2417           00006                 +5        EXTEND                                         #  SAVE Q FOR RETURN (RESTART ENTRY POINT,
000230: 17,2420           23613                           QXCH     RTRNLOC                               #        TVCPHASE AND PHASETMP ALREADY SET)
000231:
000232: 17,2421           32573                           CAF      NZEROJR                               #  ZEROING LOOP FOR FILTER STORAGE LOCS
000233: 17,2422           55700                 +8        TS       CNTRTMP
000234:
000235: 17,2423           35035        MCLEANJR           CA       ZERO
000236: 17,2424           54001                           TS       L
000237: 17,2425           51700                           INDEX    CNTRTMP
000238: 17,2426           53541                           DXCH     PTMP1      -1
000239: 17,2427           11700                           CCS      CNTRTMP
000240: 17,2430           10000                           CCS      A
000241: 17,2431           12422                           TCF      SWICHOVR   +8D
000242:
000243: 17,2432           40105                           CS       FLAGWRD9                              #  SET SWITCHOVER FLAG FOR DOWNLINK
000244: 17,2433           75015                           MASK     BIT15
000245: 17,2434           26105                           ADS      FLAGWRD9
000246:
000247: 17,2435           31420                           CAE      EKTLX/I    +2                         #  LOW BANDWIDTH GAINS   - DAP
000248: 17,2436           55636                           TS       KTLX/I
000249: 17,2437           02527                           TCR      S40.15     +7
000250:
000251: 17,2440           32600                           CAF      FKPRIMDT                              #                        - STEERING
000252: 17,2441           55634                           TS       KPRIMEDT
000253:
000254: 17,2442           32601                           CAF      FREPFRAC                              #                        - TMC LOOP
000255: 17,2443           55642                           TS       REPFRAC
000256:
000257: 17,2444           00006                           EXTEND                                         #  UPDATE TRIM ESTIMATES
000258: 17,2445           31602                           DCA      DELPBAR
000259: 17,2446           53606                           DXCH     PDELOFF
000260: 17,2447           00006                           EXTEND
000261: 17,2450           31604                           DCA      DELYBAR
000262: 17,2451           53610                           DXCH     YDELOFF
000263:
000264: 17,2452           32571                           CA       LBCFADR
000265: 17,2453           55724                           TS       COEFFADR
000266: 17,2454           02460                           TC       LOADCOEF
000267:
000268: 17,2455           31611                           CAE      PHASETMP                              #  RESTORE TVCPHASE
000269: 17,2456           55644                           TS       TVCPHASE
000270:
000271: 17,2457           01613                           TC       RTRNLOC                               #  BACK TO PRESWTCH OR TVCRESTARTS
000272:
000273: 17,2460           00006        LOADCOEF           EXTEND                                         #  LOAD DAP FILTER COEFFICIENTS
000274: 17,2461           51724                           INDEX    COEFFADR                              #    FROM: ERASABLE FOR CSM/LM HB
000275: 17,2462           30001                           DCA      0                                     #          FIXED    FOR CSM/LM LB
000276: 17,2463           53726                           DXCH     N10                                   #          FIXED    FOR CSM
000277:
000278: 17,2464           00006                           EXTEND                                         #  NOTE: FOR CSM/LM, NORMAL COEFFICIENT
000279: 17,2465           51724                           INDEX    COEFFADR                              #  LOAD WILL BE HIGH BANDWIDTH PAD LOAD
000280: 17,2466           30003                           DCA      2                                     #  ERASABLES. DURING CSM/LM SWITCHOVER,
000281: 17,2467           53730                           DXCH     N10        +2                         #  THIS LOGIC IS USED TO LOAD LOW BANDWIDTH
000282:                                                                                                  #  COEFFICIENTS FROM FIXED MEMORY.
000283:
000284: 17,2470           00006                           EXTEND
000285: 17,2471           51724                           INDEX    COEFFADR
000286: 17,2472           30005                           DCA      4
000287: 17,2473           53732                           DXCH     N10        +4
000288:
000289: 17,2474           00006                           EXTEND
000290: 17,2475           51724                           INDEX    COEFFADR
000291: 17,2476           30007                           DCA      6
000292: 17,2477           53734                           DXCH     N10        +6
000293:
000294: 17,2500           00006                           EXTEND
000295: 17,2501           51724                           INDEX    COEFFADR
000296: 17,2502           30011                           DCA      8D
000297: 17,2503           53736                           DXCH     N10        +8D
000298:
000299: 17,2504           00006                           EXTEND
000300: 17,2505           51724                           INDEX    COEFFADR
000301: 17,2506           30013                           DCA      10D
000302: 17,2507           53740                           DXCH     N10        +10D
000303:
000304: 17,2510           00006                           EXTEND
000305: 17,2511           51724                           INDEX    COEFFADR
000306: 17,2512           30015                           DCA      12D
000307: 17,2513           53742                           DXCH     N10        +12D
000308:
000309: 17,2514           51724                           INDEX    COEFFADR
000310: 17,2515           30016                           CA       14D
000311: 17,2516           55743                           TS       N10        +14D
000312:
000313: 17,2517           00002                           TC       Q
000314: 17,2520           31470        S40.15             CAE      IXX                                   #  GAIN COMPUTATIONS (1/CONACC, VARK)
000315: 17,2521           00006                           EXTEND                                         #  ENTERED FROM TVCINITIALIZE AND TVCEXEC
000316: 17,2522           72602                           MP       2PI/M                                 #        2PI/M SCALED 1/(B+8 N M)
000317: 17,2523           20001                           DDOUBL                                         #        IXX   SCALED B+20 KG-MSQ
000318: 17,2524           20001                           DDOUBL
000319: 17,2525           20001                           DDOUBL
000320: 17,2526           55640                           TS       1/CONACC                              #              SCALED B+9 SEC-SQ/REV
000321:
000322: 17,2527           31636                 +7        CAE      KTLX/I                                #  ENTRY FROM CSM/LM V46 SWITCH-OVER
000323: 17,2530           00006                           EXTEND                                         #             SCALED (B+3 ASCREV)  1/SECSQ
000324: 17,2531           71472                           MP       IAVG/TLX                              #             SCALED B+2 SECSQ
000325: 17,2532           20001                           DDOUBL
000326: 17,2533           20001                           DDOUBL
000327: 17,2534           55641                           TS       VARK                                  #             SCALED (B+3 ASCREV)
000328: 17,2535           00002                           TC       Q
000329:
000330: 17,2536           37777        CSMN10             DEC      .99999                                #  N10   CSM ONLY FILTER COEFFICIENTS
000331: 17,2537           67657                           DEC      -.2549                                #  N11/2
000332: 17,2540           01703                           DEC      .0588                                 #  N12
000333: 17,2541           47472                           DEC      -.7620                                #  D11/2
000334: 17,2542           27656                           DEC      .7450                                 #  D12
000335:
000336: 17,2543           37777                           DEC      .99999                                #  N20
000337: 17,2544           60361                           DEC      -.4852                                #  N21/2
000338: 17,2545           00000                           DEC      0          B-14                       #  N22
000339: 17,2546           67304                           DEC      -.2692                                #  D22/2
000340: 17,2547           00000                           DEC      0          B-14                       #  D22
000341:
000342: 17,2550           37777        LBN10              DEC      +.99999                               #  N10   LOW BANDWIDTH FILTER COEFFICIENTS
000343: 17,2551           65371                           DEC      -.3285                                #  N11/2
000344: 17,2552           65337                           DEC      -.3301                                # N12
000345: 17,2553           42700                           DEC      -.9101                                # D11/2
000346: 17,2554           33045                           DEC      +.8460                                # D12
000347:
000348: 17,2555           01000                           DEC      +.03125                               # N20
000349: 17,2556           00000                           DEC      0          B-14                       # N21/2
000350: 17,2557           00000                           DEC      0          B-14                       # N22
000351: 17,2560           42700                           DEC      -.9101                                # D21/2
000352: 17,2561           33045                           DEC      +.8460                                # D22
000353:
000354: 17,2562           20000                           DEC      +.50000                               # N30
000355: 17,2563           60730                           DEC      -.47115                               # N31/2
000356: 17,2564           17145                           DEC      +.4749                                # N32
000357: 17,2565           41323                           DEC      -.9558                                # D31/2
000358: 17,2566           35773                           DEC      +.9372                                # D32
000359:
000360: 17,2567           02536        CSMCFADR           GENADR   CSMN10                                #  CSM ONLY COEFFICIENTS ADDRESS
000361: 17,2570           01425        HBCFADR            GENADR   HBN10                                 #  HIGH BANDWIDTH COEFFICIENTS ADDRESS
000362: 17,2571           02550        LBCFADR            GENADR   LBN10                                 #  LOW BANDWIDTH COEFFICIENTS ADDRESS
000363:
000364: 17,2572           00063        NZERO              DEC      51         B-14                       #  MUST BE ODD FOR MRCLEAN
000365: 17,2573           00027        NZEROJR            DEC      23         B-14                       #  MUST BE ODD FOR MCLEANJR
000366:
000367: 17,2574           00210        ATTLIM             DEC      0.00833                               #  INITIAL ATTITUDE ERROR LIMIT (1.5 DEG)
000368: 17,2575           00170        1/ATTLIM           DEC      0.007325                              #  .007325(ERROR) = 0 IF ERROR < 1.5 DEG
000369:
000370: 17,2576           00005        TCORR              OCT      00005                                 #  CSM
000371: 17,2577           00000                 +1        OCT      00000                                 #  CSM/LM (HB,LB)
000372:
000373: 17,2600           00247        FKPRIMDT           DEC      .0102                                 #  CSM/LM (LB), (.05 X .08) SCALED AT PI/8
000374: 17,2601           00232        FREPFRAC           DEC      .0375      B-2                        #  CSM/LM (LB), 0.0375 SCALED AT B+2
000375:
000376: 17,2602     4374               NINETEEN           =        VD1
000377: 17,2602           33074        2PI/M              DEC      .00331017  B+8                        #  2PI/M, SCALED AT 1/(B+8 N-M)
000378:
000379: 17,2603           03720        ONETHOU            DEC      1000       B-13                       #  KG/CS B3 TO KG/10SEC B16 CONVERSION
000380:
000381: 17,2604  E6,1704                                  EBANK=   BZERO
000382: 17,2604           03142 40066  DAPINIT5           2CADR    DAPINIT
000383:
000384: 17,2606  E6,1704                                  EBANK=   BZERO
000385: 17,2606           02227 36066  INITLOC2           2CADR    TVCINIT1

End of include-file TVCINITIALIZE.agc.  Parent file is MAIN.agc


