
Source Code


000002:                                                                                                  ## Copyright:   Public domain.
000003:                                                                                                  ## Filename:    TVCMASSPROP.agc
000004:                                                                                                  ## Purpose:     A section of Manche72 revision 3.
000005:                                                                                                  ##              It is part of the reconstructed source code for the final, flown
000006:                                                                                                  ##              release of the software for the Command Module's (CM) Apollo
000007:                                                                                                  ##              Guidance Computer (AGC) for Apollo 13. No original listings
000008:                                                                                                  ##              of this program are available; instead, this file was recreated
000009:                                                                                                  ##              from a reconstructed copy of Comanche 072. It has been adapted
000010:                                                                                                  ##              such that the resulting bugger words exactly match those
000011:                                                                                                  ##              specified for Manche72 revision 3 in NASA drawing 2021153G,
000012:                                                                                                  ##              which gives relatively high confidence that the reconstruction
000013:                                                                                                  ##              is correct.
000014:                                                                                                  ## Assembler:   yaYUL
000015:                                                                                                  ## Contact:     Ron Burkey <info@sandroid.org>.
000016:                                                                                                  ## Website:     www.ibiblio.org/apollo/index.html
000017:                                                                                                  ## Mod history: 2024-05-19 MAS  Created from Comanche 072.
000018:
000019:                                                                                                  #  PROGRAM NAME....MASSPROP
000020:                                                                                                  #  LOG SECTION....TVCMASSPROP            PROGRAMMER...MELANSON (ENGEL, SCHLUNDT)
000021:
000022:                                                                                                  #  FUNCTIONAL DESCRIPTION:
000023:
000024:                                                                                                  #        MASSPROP OPERATES IN TWO MODES: (1) IF LEM MASS OR CONFIGURATION ARE UPDATED (MASSPROP DOES NOT TEST
000025:                                                                                                  #        FOR THIS) THE ENTIRE PROGRAM MUST BE RUN THROUGH, BREAKPOINT VALUES AND DERIVATIVES OF THE OUTPUTS WITH
000026:                                                                                                  #        RESPECT TO CSM MASS BEING CALCULATED PRIOR TO CALCULATION OF THE OUTPUTS.  (2) OTHERWISE, THE OUTPUTS CAN BE
000027:                                                                                                  #        CALCULATED USING PREVIOUSLY COMPUTED BREAKPOINT VALUES AND DERIVATIVES.
000028:
000029:                                                                                                  #  CALLING SEQUENCES
000030:
000031:                                                                                                  #        IF LEM MASS OR CONFIGURATION HAS BEEN UPDATED, TRANSFER TO MASSPROP, OTHERWISE TRANSFER TO FIXCW.
000032:                                                                                                  #                L       TC      BANKCALL OR IBNKCALL
000033:                                                                                                  #                L+1     CADR    MASSPROP
000034:                                                                                                  #                        OR
000035:                                                                                                  #                L+1     CADR    FIXCW
000036:                                                                                                  #                L+2     RETURNS VIA Q
000037:
000038:                                                                                                  #  CALLED   IN PARTICULAR BY DONOUN47 (JOB) AND TVCEXECUTIVE (TASK)
000039:
000040:                                                                                                  #  JOBS OR TASKS INITIATED - NONE
000041:
000042:                                                                                                  #  SUBROUTINES CALLED - NONE
000043:
000044:                                                                                                  #  ERASABLE INITIALIZATION REQUIRED
000045:
000046:                                                                                                  #        LEMMASS MUST CONTAIN LEM MASS SCALED AT B+16 IN KILOGRAMS
000047:                                                                                                  #        CSMMASS MUST CONTAIN CSM MASS SCALED AT B+16 IN KILOGRAMS
000048:                                                                                                  #        DAPDATR1 MUST BE SET TO INDICATE VEHICLE CONFIGURATION.
000049:                                                                                                  #                BITS (15,14,13)  =  ( 0 , 0 , 1 )       LEM OFF
000050:                                                                                                  #                                    ( 0 , 1 , 0 )       LEM ON (ASCNT,DSCNT)
000051:                                                                                                  #                                    ( 1 , 1 , 0 )       LEM ON (ASCNT ONLY)
000052:
000053:                                                                                                  #  ALARMS - NONE
000054:
000055:                                                                                                  #  EXIT -   TC   Q
000056:
000057:                                                                                                  #  OUTPUTS:
000058:
000059:                                                                                                  #        (1)     IXX, SINGLE PRECISION SCALED AT B+20 IN KG-M SQ.
000060:                                                                                                  #        (2)     IAVG, SINGLE PRECISION SCALED AT B+20 IN KG-M SQ.
000061:                                                                                                  #        (3)     IAVG/TLX, SINGLE PRECISION, SCALED AT B+2 SEC-SQD
000062:                                                                                                  #
000063:                                                                                                  #        THEY ARE STORED IN CONSECUTIVE REGISTERS IXX0, IXX1, IXX2
000064:                                                                                                  #        CONVERSION FACTOR:  (SLUG-FTSQ) = 0.737562 (KG-MSQ)
000065:
000066:                                                                                                  #  OUTPUTS ARE CALCULATED AS FOLLOWS:
000067:
000068:                                                                                                  #        (1)     IF LEM DOCKED, LEMMASS IS FIRST ELIMINATED AS A PARAMETER
000069:
000070:                                                                                                  #                VARST0 = INTVALUE0 + LEMMASS(SLOPEVAL0)         IXX             BREAKPOINT VALUE
000071:                                                                                                  #                VARST1 = INTVALUE1 + LEMMASS(SLOPEVAL1)         IAVG            BREAKPOINT VALUE
000072:                                                                                                  #                VARST2 = INTVALUE2 + LEMMASS(SLOPEVAL2)         IAVG/TLX        BREAKPOINT VALUE
000073:
000074:                                                                                                  #                VARST3 = INTVALUE3 + LEMMASS(SLOPEVAL3)         IAVG/TLX        SLOPE FOR CSMMASS > 33956 LBS (SPS > 10000 LBS)
000075:                                                                                                  #                VARST4 = INTVALUE4 + LEMMASS(SLOPEVAL4)         IAVG            SLOPE FOR CSMMASS > 33956 LBS (SPS > 10000 LBS)
000076:
000077:                                                                                                  #                VARST5 = INTVALUE5 + LEMMASS(SLOPEVAL5)         IXX             SLOPE FOR ALL VALUES OF CSMMASS
000078:
000079:                                                                                                  #                VARST6 = INTVALUE6 + LEMMASS(SLOPEVAL6)         IAVG            SLOPE FOR CSMMASS < 33956 LBS (SPS < 10000 LBS)
000080:                                                                                                  #                VARST7 = INTVALUE7 + LEMMASS(SLOPEVAL7)         IAVG/TLX        SLOPE FOR CSMMASS < 33956 LBS (SPS < 10000 LBS)
000081:
000082:                                                                                                  #                VARST8 = INTVALUE8 + LEMMASS(SLOPEVAL8)         IAVG            DECREMENT TO BRKPT VALUE WHEN LEM DSCNT STAGE OFF
000083:                                                                                                  #                VARST9 = INTVALUE9 + LEMMASS(SLOPEVAL9)         IAVG/TLX        DECREMENT TO BRKPT VALUE WHEN LEM DSCNT STAGE OFF
000084:
000085:                                                                                                  #        (2)     IF LEM NOT DOCKED
000086:
000087:                                                                                                  #                VARST0 = NOLEMVAL0      WHERE THE MEANING AND SCALING OF VARST0
000088:                                                                                                  #                   .          .         TO VARST9 ARE THE SAME AS GIVEN ABOVE
000089:                                                                                                  #                   .          .
000090:                                                                                                  #                   .          .         NOTE... FOR THIS CASE, VARST8,9 HAVE NO
000091:                                                                                                  #                VARST9 = NOLEMVAL9      MEANING (THEY ARE COMPUTED BUT NOT USED)
000092:
000093:                                                                                                  #        (3)     THE FINAL OUTPUT CALCULATIONS ARE THEN DONE
000094:
000095:                                                                                                  #                IXX0 = VARST0 + (CSMMASS + NEGBPW)VARST5                IXX
000096:
000097:                                                                                                  #                IXX1 = VARST1 + (CSMMASS + NEGBPW)VARST(4 OR 6)         IAVG
000098:
000099:                                                                                                  #                IXX2 = VARST2 + (CSMMASS + NEGBPW)VARST(3 OR 7)         IAVG/TLX
000100:
000101:                                                                                                  #        THE DATA USED CAME FROM CSM/LM SPACECRAFT OPERATIONAL DATA BOOK.
000102:                                                                                                  #                VOL. 3, NASA DOCUMENT SNA-8-D-027 (MARCH 1968)
000103:
000104:                                                                                                  #        PERTINENT MASS DATA:            CSM WEIGHT      (FULL)  64100 LBS
000105:                                                                                                  #                                                        (EMPTY) 23956 LBS
000106:                                                                                                  #                                        LEM WEIGHT      (FULL)  32000 LBS
000107:                                                                                                  #                                                        (EMPTY) 14116 LBS
000108:
000109:                                                                                                  #        (WEIGHTS ARE FROM AMENDMENT #1 (APRIL 24, 1968) TO ABOVE DATA BOOK)
000110:
000111: 25,3774                                           BANK     25
000112: 05,2000                                           SETLOC   DAPMASS
000113: 05,2000                                           BANK
000114: 05,3370  E6,1704                                  EBANK=   BZERO
000115: 05,3370                                           COUNT*   $$/MASP
000116:
000117: 05,3370           34334        MASSPROP           CAF      NINE                                  #  MASSPROP USES TVC/RCS INTERUPT TEMPS
000118: 05,3371           55506                           TS       PHI333                                #  SET UP TEN PASSES
000119:
000120: 05,3372           31466        LEMTEST            CAE      DAPDATR1                              #  DETERMINE LEM STATUS
000121: 05,3373           75017                           MASK     BIT13
000122: 05,3374           00006                           EXTEND
000123: 05,3375           13401                           BZF      LEMYES
000124:
000125: 05,3376           51506        LEMNO              INDEX    PHI333                                #  LEM NOT ATTACHED
000126: 05,3377           33465                           CAF      NOLEMVAL
000127: 05,3400           13411                           TCF      STOINST
000128:
000129: 05,3401           31473        LEMYES             CAE      LEMMASS                               #  LEM IS ATTACHED
000130: 05,3402           60000                           DOUBLE
000131: 05,3403           00006                           EXTEND
000132: 05,3404           51506                           INDEX    PHI333
000133: 05,3405           73507                           MP       SLOPEVAL
000134: 05,3406           20001                           DDOUBL
000135: 05,3407           51506                           INDEX    PHI333
000136: 05,3410           63475                           AD       INTVALUE
000137:
000138: 05,3411           51506        STOINST            INDEX    PHI333                                #  STORAGE INST BEGIN HERE
000139: 05,3412           55511                           TS       VARST0
000140: 05,3413           11506                           CCS      PHI333                                #  ARE ALL TEN PASSES COMPLETED
000141: 05,3414           13371                           TCF      MASSPROP   +1                         #  NO - GO DECREMENT PHI333
000142:
000143: 05,3415           11466        DXTEST             CCS      DAPDATR1                              #  IF NEG, BIT15 IS 1, LEM DSCNT STAGE OFF
000144: 05,3416           13424                           TCF      FIXCW
000145: 05,3417           13424                           TCF      FIXCW
000146: 05,3420           53522                           DXCH     VARST0     +8D
000147: 05,3421           21513                           DAS      VARST0     +1
000148: 05,3422           33522                           CA       DXITFIX
000149: 05,3423           27520                           ADS      VARST0     +7
000150:
000151: 05,3424           35032        FIXCW              CAF      BIT2                                  #  COMPUTATION PHASE BEGINS HERE. SET UP
000152: 05,3425           55506                           TS       PHI333                                #  THREE PASSES
000153: 05,3426           55507                           TS       PSI333
000154:
000155: 05,3427           31474                           CAE      CSMMASS                               #  GET DELTA CSM WEIGHT - SIGN DETERMINES
000156: 05,3430           63521                           AD       NEGBPW                                #  SLOPE LOCATIONS.
000157: 05,3431           60000                           DOUBLE
000158: 05,3432           55510                           TS       TEMP333
000159: 05,3433           00006                           EXTEND
000160: 05,3434           63437                           BZMF     PEGGY                                 #  DETERMINE CORRECT SLOPE
000161: 05,3435           37715                           CAF      NEG2
000162: 05,3436           55506                           TS       PHI333
000163:
000164: 05,3437           51506        PEGGY              INDEX    PHI333                                #  ALL IS READY - CALCULATE OUTPUTS NOW
000165: 05,3440           31516                           CAE      VARST5                                #  GET SLOPE
000166: 05,3441           00006                           EXTEND
000167: 05,3442           71510                           MP       TEMP333                               #  MULT BY DELTA CSM WEIGHT
000168: 05,3443           60000                           DOUBLE
000169: 05,3444           51507                           INDEX    PSI333
000170: 05,3445           61511                           AD       VARST0                                #  ADD BREAKPOINT VALUE
000171: 05,3446           51507                           INDEX    PSI333
000172: 05,3447           55470                           TS       IXX                                   #  ****** OUTPUTS (IXX0, IXX1, IXX2) ******
000173:
000174: 05,3450           11507                           CCS      PSI333                                #  BOOKKEEPING - MASSPROP FINISHED OR NOT
000175: 05,3451           13461                           TCF      BOKKEP2                               #  NO - GO TAKE CARE OF INDEXING REGISTERS
000176:
000177: 05,3452           31466                           CAE      DAPDATR1                              #  UPDATE WEIGHT/G
000178: 05,3453           75016                           MASK     BIT14
000179: 05,3454           10000                           CCS      A
000180: 05,3455           31473                           CA       LEMMASS
000181: 05,3456           61474                           AD       CSMMASS
000182: 05,3457           55475                           TS       WEIGHT/G                              #  SCALED AT B+16 IN KILOGRAMS
000183: 05,3460           00002        ENDMASSP           TC       Q
000184:
000185: 05,3461           55507        BOKKEP2            TS       PSI333                                #  REDUCE PSI BY ONE
000186: 05,3462           00006                           EXTEND
000187: 05,3463           27506                           DIM      PHI333
000188: 05,3464           13437                           TCF      PEGGY
000189:
000190: 05,3465           00616        NOLEMVAL           DEC      25445      B-20
000191: 05,3466           02526                           DEC      87450      B-20
000192: 05,3467           02352                           DEC      .30715     B-2
000193: 05,3470           01471                           DEC      1.22877    E-5        B+12
000194: 05,3471           00634                           DEC      1.6096     B-6
000195: 05,3472           00612                           DEC      1.54       B-6
000196: 05,3473           03706                           DEC      7.77177    B-6
000197: 05,3474           04425                           DEC      3.46458    E-5        B+12
000198:
000199: 05,3475           00644        INTVALUE           DEC      26850      B-20
000200: 05,3476           03710                           DEC      127518     B-20
000201: 05,3477           04246                           DEC      .54059     B-2
000202: 05,3500           02011                           DEC      .153964    E-4        B+12
000203: 05,3501           77501                           DEC      -.742923   B-6
000204: 05,3502           00612                           DEC      1.5398     B-6
000205: 05,3503           04656                           DEC      9.68       B-6
000206: 05,3504           10372                           DEC      .647625    E-4        B+12
000207: 05,3505           77126                           DEC      -27228     B-20
000208: 05,3506           76261                           DEC      -.206476   B-2
000209:
000210: 05,3507           00767        SLOPEVAL           DEC      1.96307    B-6
000211: 05,3510           15624                           DEC      27.5774    B-6
000212: 05,3511           03054                           DEC      2.3548     E-5        B+12
000213: 05,3512           04532                           DEC      2.1777     E-9        B+26
000214: 05,3513           10433                           DEC      1.044      E-3        B+8
000215: 05,3514           00000                           DEC      0          B-14
000216: 05,3515           22070                           DEC      2.21068    E-3        B+8
000217: 05,3516           03204                           DEC      1.5166     E-9        B+26
000218: 05,3517           77266                           DEC      -1.284     B-6
000219: 05,3520           02476                           DEC      2          E-5        B+12
000220:
000221: 05,3521           70364        NEGBPW             DEC      -15402.17  B-16
000222: 05,3522           75420        DXITFIX            DEC*     -1.88275   E-5        B+12*
000223:

End of include-file TVCMASSPROP.agc.  Parent file is MAIN.agc


