
Source Code


000002:                                                                                                  ## Copyright:   Public domain.
000003:                                                                                                  ## Filename:    TVCSTROKETEST.agc
000004:                                                                                                  ## Purpose:     A section of Manche72 revision 3.
000005:                                                                                                  ##              It is part of the reconstructed source code for the final, flown
000006:                                                                                                  ##              release of the software for the Command Module's (CM) Apollo
000007:                                                                                                  ##              Guidance Computer (AGC) for Apollo 13. No original listings
000008:                                                                                                  ##              of this program are available; instead, this file was recreated
000009:                                                                                                  ##              from a reconstructed copy of Comanche 072. It has been adapted
000010:                                                                                                  ##              such that the resulting bugger words exactly match those
000011:                                                                                                  ##              specified for Manche72 revision 3 in NASA drawing 2021153G,
000012:                                                                                                  ##              which gives relatively high confidence that the reconstruction
000013:                                                                                                  ##              is correct.
000014:                                                                                                  ## Assembler:   yaYUL
000015:                                                                                                  ## Contact:     Ron Burkey <info@sandroid.org>.
000016:                                                                                                  ## Website:     www.ibiblio.org/apollo/index.html
000017:                                                                                                  ## Mod history: 2024-05-19 MAS  Created from Comanche 072.
000018:
000019:                                                                                                  #  NAME          STROKE TEST PACKAGE             (INCLUDING INITIALIZATION PACKAGE)
000020:                                                                                                  #  LOG SECTION...TVCSTROKETEST                   SUBROUTINE...DAPCSM
000021:                                                                                                  #  MODIFIED BY SCHLUNDT                          21 OCTOBER 1968
000022:
000023:                                                                                                  #  FUNCTIONAL DESCRIPTION....
000024:                                                                                                  #        STROKE TEST PACKAGE GENERATES A WAVEFORM DESIGNED TO EXCITE BENDING
000025:                                                                                                  #        STRKTSTI (STROKE TEST INITIALIZATION) IS CALLED AS A JOB BY VB68.
000026:                                                                                                  #                IT INITIALIZES ALL ERASABLES REQD FOR A STROKE TEST, AND
000027:                                                                                                  #                THEN TESTS FOR CSM/LM (BIT 13 OF DAPDATR1). IF CSM/LM,
000028:                                                                                                  #                IN EITHER HIGH OR LOW-BANDWIDTH MODE, THE TEST IS STARTED
000029:                                                                                                  #                IMMEDIATELY.  IF NOT CSM/LM, PROGRAM EXITS WITH NO ACTION.
000030:                                                                                                  #        HACK (STROKE TEST) GENERATES THE WAVEFORM BY DUMPING PULSE BURSTS
000031:                                                                                                  #                OF PROPER SIGN AND IN PROPER SEQUENCE DIRECTLY INTO
000032:                                                                                                  #                TVCPITCH, WORKING IN CONJUNCITON WITH BOTH PITCH AND YAW
000033:                                                                                                  #                TVC DAPS, WITH INTERMEDIATE WAITLIST CALLS.  NOTE, HOWEVER
000034:                                                                                                  #                THAT THE STROKE TEST IS PERFORMED ONLY IN THE PITCH AXIS.
000035:                                                                                                  #                AN EXAMPLE WAVEFORM IS GIVEN BELOW, TO DEMONSTRATE STROKE-
000036:                                                                                                  #                TEST PARAMETER SELECTION
000037:                                                                                                  #        RESTARTS CAUSE TEST TO BE TERMINATED.  ANOTHER V68 REQD IF TEST
000038:                                                                                                  #                IS TO BE RE-RUN.
000039:                                                                                                  #        PULSE BURST SIZE IS PAD-LOADED (ESTROKER) SO THAT AMPLITUDE OF
000040:                                                                                                  #                WAVEFORM CAN BE CHANGED.  THERE ARE TEN PULSE BURSTS IN
000041:                                                                                                  #                THE HALF-AMPLITUDE OF THE FIRST FREQUENCY SET IN THE
000042:                                                                                                  #                STANDARD WAVEFORM.  AMPLITUDE IS 10(ESTROKER)(1/42.15),
000043:                                                                                                  #                NOMINALLY 50/42.15 = 1.185 DEG
000044:
000045:                                                                                                  #  CALLING SEQUENCE....
000046:                                                                                                  #        EXTENDED VERB 68 SETS UP STRKTSTI JOB
000047:                                                                                                  #        PITCH AND YAW TVCDAPS, FINDING STROKER NON-ZERO, DO A ..TC HACK..
000048:                                                                                                  #        AN INTERNALLY-GENERATED WAITLIST CALL ENTERS AT ..HACKWLST..
000049:
000050:                                                                                                  #  NORMAL EXIT MODES....
000051:                                                                                                  #        TC BUNKER (..Q.. IF ENTRY FROM DAP, ..TCTSKOVR.. IF FROM WAITLIST) LIST
000052:
000053:                                                                                                  #  SUBROUTINES CALLED....
000054:                                                                                                  #        WAITLIST
000055:
000056:                                                                                                  #  ALARM OR ABORT EXIT MODES....
000057:                                                                                                  #        NONE
000058:
000059:                                                                                                  #  ERASABLE INITIALIZATION REQUIRED....
000060:                                                                                                  #        ESTROKER (PAD-LOAD)
000061:                                                                                                  #        STROKER, CADDY, REVS, CARD, N
000062:
000063:                                                                                                  #  OUTPUT....
000064:                                                                                                  #        STRKTSTI...INITIALIZATION FOR STROKE TEST
000065:                                                                                                  #        HACK, HACKWLST...PULSE BURSTS INTO TVCPITCH VIA ..ADS..
000066:                                                                                                  #                          RESETS STROKER = +0 WHEN TEST COMPLETED
000067:
000068:                                                                                                  #  DEBRIS....
000069:                                                                                                  #        N = CADDY = +0, CARD = -0, REVS = -1
000070:                                                                                                  #        BUNKER
000071:
000072:                                                                                                  #  EXAMPLE STROKE TEST WAVE FORM, DEMONSTRATING PARAMETER SELECTION
000073:
000074:                                                                                                  #  NOTE....THIS IS NOT THE OFFICIAL WAVEFORM....
000075:
000076:                                                                                                  #         **              **
000077:                                                                                                  #         **              **
000078:                                                                                                  #         **              **             EXAMPLE WAVEFORM (EACH * REPRESENTS
000079:                                                                                                  #        *  *            *  *                 85.41 ARCSEC OF ACTUATOR CMND)
000080:                                                                                                  #        *  *            *  *
000081:                                                                                                  #        *  *            *  *
000082:                                                                                                  #       *    *          *    *          **      **      **      **      **
000083:                                                                                                  #       *    *          *    *          **      **      **      **      **
000084:                                                                                                  #       *    *          *    *          **      **      **      **      **
000085:                                                                                                  #      *      *        *      *        *  *    *  *    *  *    *  *    *  *    **  **  **  **  **
000086:                                                                                                  #      *      *        *      *        *  *    *  *    *  *    *  *    *  *    **  **  **  **  **
000087:                                                                                                  #      *      *        *      *        *  *    *  *    *  *    *  *    *  *    **  **  **  **  **
000088:                                                                                                  #  -----------------------------------------------------------------------------------------------------
000089:                                                                                                  #              *      *        *      *    *  *    *  *    *  *    *  *    *  *  **  **  **  **  **
000090:                                                                                                  #              *      *        *      *    *  *    *  *    *  *    *  *    *  *  **  **  **  **  **
000091:                                                                                                  #              *      *        *      *    *  *    *  *    *  *    *  *    *  *  **  **  **  **  **
000092:                                                                                                  #               *    *          *    *      **      **      **      **      **
000093:                                                                                                  #               *    *          *    *      **      **      **      **      **
000094:                                                                                                  #               *    *          *    *      **      **      **      **      **
000095:                                                                                                  #                *  *            *  *
000096:                                                                                                  #                *  *            *  *
000097:                                                                                                  #                *  *            *  *
000098:                                                                                                  #                 **              **
000099:                                                                                                  #                 **              **
000100:                                                                                                  #                 **              **
000101:
000102:                                                                                                  #  FOR THIS (UNOFFICIAL, EXAMPLE) WAVEFORM, THE REQUIRED PARAMETERS ARE AS FOLLOWS....
000103:
000104:                                                                                                  #        FCARD    = +3           (NUMBER OF SETS)
000105:                                                                                                  #        ESTROKER = +3           (PULSE BURST SIZE, SC.AT 85.41 ARCSEC/BIT)
000106:
000107:                                                                                                  #        SET1..
000108:                                                                                                  #                FREVS   = +3    (NUMBER REVERSALS MINUS 1)
000109:                                                                                                  #                FCADDY  = +4    (NUMBER OF PULSE BURSTS IN 1/2 AMPLITUDE)
000110:                                                                                                  #        SET2..
000111:                                                                                                  #                FCARD1  = +9    (NUMBER REVERSALS MINUS 1)
000112:                                                                                                  #                FCARD4  = +2    (NUMBER OF PULSE BURSTS IN 1/2 AMPLITUDE)
000113:                                                                                                  #        SET3..
000114:                                                                                                  #                FCARD2  = +9    (NUMBER REVERSALS MINUS 1)
000115:                                                                                                  #                FCARD5  = +1    (NUMBER OF PULSE BURSTS IN 1/2 AMPLITUDE)
000116:                                                                                                  #        SET4..
000117:                                                                                                  #                FCARD3  = +0    (NUMBER REVERSALS MINUS 1)
000118:                                                                                                  #                FCARD6  = +0    (NUMBER OF PULSE BURSTS IN 1/2 AMPLITUDE)
000119:
000120:                                                                                                  #  STROKE TEST INITIALIZATION PACKAGE (AS A JOB, FROM VERB 68)
000121:
000122: 17,2610                                           BANK     17
000123: 20,2000                                           SETLOC   DAPS2
000124: 20,2000                                           BANK
000125:
000126: 20,3537                                           COUNT*   $$/STRK
000127: 20,3537  E6,1657                                  EBANK=   CADDY
000128:
000129: 20,3537           03550        STRKTSTI           TCR      TSTINIT                               #  STROKE TEST INITIALIZATION PKG (CALLED
000130:                                                                                                  #  AS A JOB BY VERB68)
000131:
000132: 20,3540           00004        STRKCHK            INHINT
000133:
000134: 20,3541           31466                           CAE      DAPDATR1                              #  CHECK FOR CSM/LM CONFIGURATION
000135: 20,3542           75016                           MASK     BIT14
000136: 20,3543           00006                           EXTEND
000137: 20,3544           13547                           BZF      +3
000138:
000139: 20,3545           31413                           CAE      ESTROKER                              #  BEGIN ON NEXT DAP PASS (PITCH OR YAW)
000140: 20,3546           55574                           TS       STROKER                               #  (STROKING DONE IN PITCH ONLY, HOWEVER)
000141:
000142: 20,3547           15233                           TCF      ENDOFJOB
000143:
000144: 20,3550           43560        TSTINIT            CS       FCADDY                                #  NORMAL ENTRY FROM STRKTSTI
000145: 20,3551           55657                           TS       CADDY
000146: 20,3552           55660                           TS       N                                     #        NOTE SGN CHNG FCADDY(+) TO CADDY(-)
000147:
000148: 20,3553           33561                           CAF      FREVS
000149: 20,3554           55662                           TS       REVS
000150:
000151: 20,3555           43562                           CS       FCARD                                 #        NOTE SGN CHNG FCARD(+) TO CARD(-)
000152: 20,3556           55663                           TS       CARD
000153:
000154: 20,3557           00002                           TC       Q                                     #  RETURN TO STRKTSTI+1 (OR CHKSTRK+2 OR +4)
000155:
000156:                                                                                                  #  THE OFFICIAL STROKE TEST WAVEFORM (3 JAN, 1967) CONSISTS OF FOUR STROKE SETS, AS FOLLOWS....
000157:
000158:                                                                                                  #        SET 1...10 BURSTS IN 1/2 AMP,   4 REVERSALS
000159:                                                                                                  #        SET 2... 6 BURSTS IN 1/2 AMP,   6 REVERSALS
000160:                                                                                                  #        SET 3... 5 BURSTS IN 1/2 AMP,  10 REVERSALS
000161:                                                                                                  #        SET 4... 4 BURSTS IN 1/2 AMP,  14 REVERSALS
000162:
000163:                                                                                                  #  THE PULSE BURST SIZE (ESTROKER) IS PAD-LOADED (5 BITS AS OF 3 JAN, 1967)
000164:                                                                                                  #  THE REMAINING WAVEFORM-GENERATING PARAMETERS ARE AS FOLLOWS....
000165:
000166: 20,3560           00012        FCADDY             DEC      10         B-14                       #  NO. PULSE BURSTS IN 1/2 AMP, SET1..(+10)
000167: 20,3561           00003        FREVS              DEC      3          B-14                       #  NO. REVERSALS MINUS 1, SET1........(  3)
000168:
000169: 20,3562           00004        FCARD              DEC      4          B-14                       #  NO. STROKE SETS....................(+ 4)
000170:
000171: 20,3563           00005        FCARD1             DEC      5          B-14                       #  NO. REVERSALS MINUS 1, SET2........(  5)
000172:
000173: 20,3564           00011        FCARD2             DEC      9          B-14                       #                            3........(  9)
000174: 20,3565           00015        FCARD3             DEC      13         B-14                       #                            4........( 13)
000175:
000176: 20,3566           00006        FCARD4             DEC      6          B-14                       #  NO. PULSE BURSTS IN 1/2 AMP, SET2..(+ 6)
000177: 20,3567           00005        FCARD5             DEC      5          B-14                       #                               SET3..(+ 5)
000178: 20,3570           00004        FCARD6             DEC      4          B-14                       #                               SET4..(+ 4)
000179:
000180: 20,3571     5032               20MS               =        BIT2
000181:
000182:                                                                                                  #  STROKE TEST PACKAGE PROPER....
000183:
000184: 20,3571  E6,1661                                  EBANK=   BUNKER
000185:
000186: 20,3571           00006        HACK               EXTEND                                         #  ENTRY (IN T5 RUPT) FROM TVCDAPS
000187: 20,3572           23661                           QXCH     BUNKER                                #  SAVE Q FOR DAP RETURN
000188:
000189: 20,3573           35032                           CAF      20MS                                  #  2DAPSX2(PASSES/DAP)X2(CS/PASS)=8CS=TVCDT
000190: 20,3574           05261                           TC       WAITLIST
000191: 20,3575  E6,1661                                  EBANK=   BUNKER
000192: 20,3575           03600 40066                     2CADR    HACKWLST
000193:
000194: 20,3577           13602                           TCF      +3
000195:
000196: 20,3600           34367        HACKWLST           CAF      TCTSKOVR                              #  ENTRY FROM WAITLIST
000197: 20,3601           55661                           TS       BUNKER                                #  BUNKER IS TC TASKOVER
000198:
000199: 20,3602           31574                           CA       STROKER                               #  STROKE
000200: 20,3603           26054                           ADS      TVCPITCH
000201:
000202: 20,3604           35021                           CAF      BIT11                                 #  RELEASE THE ERROR COUNTERS
000203: 20,3605           00006                           EXTEND
000204: 20,3606           05014                           WOR      CHAN14
000205: 20,3607           25657                           INCR     CADDY                                 #  COUNT DOWN THE NO. BURSTS, THIS SLOPE
000206: 20,3610           41657                           CS       CADDY
000207: 20,3611           00006                           EXTEND
000208: 20,3612           63614                           BZMF     +2
000209: 20,3613           01661                           TC       BUNKER                                #  EXIT, WHILE ON A SLOPE
000210:
000211: 20,3614           11662                           CCS      REVS
000212: 20,3615           13635                           TCF      REVUP                                 #  POSITIVE REVS
000213: 20,3616           13641                           TCF      REVUP      +4                         #  FINAL REVERSAL, THIS SET
000214:
000215: 20,3617           25663                           INCR     CARD                                  #  NEGATIVE REVS SET LAST PASS, READY FOR
000216: 20,3620           41663                           CS       CARD                                  #        THE NEXT SET.  CHECK IF NO MORE SETS
000217: 20,3621           00006                           EXTEND
000218: 20,3622           13633                           BZF      STROKILL                              #  ALL SETS COMPLETED
000219:
000220: 20,3623           51663                           INDEX    CARD
000221: 20,3624           33566                           CAF      FCARD      +4                         #  PICK UP NO. REVERSALS (-), NEXT SET
000222: 20,3625           55662                           TS       REVS                                  #  REINITIALIZE
000223: 20,3626           51663                           INDEX    CARD
000224: 20,3627           43571                           CS       FCARD      +7                         #  PICK UP NO. BURSTS IN 1/2AMP, NEXT SET
000225: 20,3630           55660                           TS       N                                     #  REINITIALIZE
000226: 20,3631           55657                           TS       CADDY
000227: 20,3632           01661                           TC       BUNKER                                #  EXIT, AT END OF SET
000228:
000229: 20,3633           55574        STROKILL           TS       STROKER                               #  RESET (TO +0) TO END TEST
000230: 20,3634           01661                           TC       BUNKER                                #  EXIT, STROKE TEST FINIS
000231:
000232: 20,3635           55662        REVUP              TS       REVS                                  #  ALL REVERSALS EXCEPT LAST OF SET
000233: 20,3636           31660                           CA       N
000234: 20,3637           60000                           DOUBLE                                         #  2 X 1/2AMP
000235: 20,3640           13644                           TCF      +4
000236:
000237: 20,3641           45033                 +4        CS       ONE                                   #  FINAL REVERSAL, THIS SET
000238: 20,3642           55662                           TS       REVS                                  #  PREPARE TO BRANCH TO NEW BURST
000239: 20,3643           31660                           CA       N                                     #  JUST RETURN TO ZERO, FINAL SLOPE OF SET
000240: 20,3644           55657                           TS       CADDY                                 #  CADUP
000241:
000242: 20,3645           41574                           CS       STROKER                               #  CHANGE SIGN OF SLOPE
000243: 20,3646           55574                           TS       STROKER
000244: 20,3647           01661                           TC       BUNKER                                #  EXIT AT A REVERSAL (SLOPE CHANGE)
000245:

End of include-file TVCSTROKETEST.agc.  Parent file is MAIN.agc


