
Source Code


000002:                                                                                                  ## Copyright:   Public domain.
000003:                                                                                                  ## Filename:    UPDATE_PROGRAM.agc
000004:                                                                                                  ## Purpose:     A section of Manche72 revision 3.
000005:                                                                                                  ##              It is part of the reconstructed source code for the final, flown
000006:                                                                                                  ##              release of the software for the Command Module's (CM) Apollo
000007:                                                                                                  ##              Guidance Computer (AGC) for Apollo 13. No original listings
000008:                                                                                                  ##              of this program are available; instead, this file was recreated
000009:                                                                                                  ##              from a reconstructed copy of Comanche 072. It has been adapted
000010:                                                                                                  ##              such that the resulting bugger words exactly match those
000011:                                                                                                  ##              specified for Manche72 revision 3 in NASA drawing 2021153G,
000012:                                                                                                  ##              which gives relatively high confidence that the reconstruction
000013:                                                                                                  ##              is correct.
000014:                                                                                                  ## Assembler:   yaYUL
000015:                                                                                                  ## Contact:     Ron Burkey <info@sandroid.org>.
000016:                                                                                                  ## Website:     www.ibiblio.org/apollo/index.html
000017:                                                                                                  ## Mod history: 2024-05-19 MAS  Created from Comanche 072.
000018:
000019:                                                                                                  #  PROGRAM NAME:         P27
000020:                                                                                                  #  WRITTEN BY:           KILROY/ DE WOLF
000021:
000022:                                                                                                  #  MOD NO:               6
000023:                                                                                                  #  MOD BY:               KILROY
000024:                                                                                                  #  DATE:                 01DEC67
000025:
000026:                                                                                                  #  LOG SECTION:          UPDATE PROGRAM.
000027:
000028:                                                                                                  #  FUNCT. DESCR: P27 (THE UPDATE PROGRAM) PROCESSES COMMANDS AND DATA
000029:                                                                                                  #                        INSERTIONS REQUESTED BY THE GROUND VIA UPLINK.
000030:                                                                                                  #                        THE P27 PROGRAM WILL ACCEPT UPDATES
000031:                                                                                                  #                        ONLY DURING P00 FOR THE LM, AND ONLY DURING P00,
000032:                                                                                                  #                        P02, AND FRESH START FOR THE CSM
000033:
000034:                                                                                                  #  CALLING SEQ:          PROGRAM IS INITIATED BY UPLINK ENTRY OF VERBS 70, 71, 72 AND 73.
000035:
000036:                                                                                                  #  SUBROUTINES:          TESTXACT, NEWMODEX, NEWMODEX +3, GOXDSPF, BANKCALL, FINDVAC, INTPRET, INTSTALL, TPAGREE,
000037:                                                                                                  #                        INTWAKEU, ENDEXT, POSTJUMP, FALTON, NEWPHASE, PHASCHNG
000038:
000039:                                                                                                  #  NORMAL EXIT:          TC ENDEXT
000040:
000041:                                                                                                  #  ALARM/ABORT:          TC FALTON FOLLOWED BY TC ENDEXT
000042:
000043:                                                                                                  #  RESTARTS:             P27 IS RESTART PROTECTED IN TWO WAYS ...
000044:                                                                                                  #                        1.      PRIOR TO VERIFLAG INVERSION (WHICH IS CAUSED BY THE GROUND/ASTRONAUT'S VERIFICATION OF UPDATE
000045:                                                                                                  #                                DATA BY SENDING A V33E WHEN V21N02 IS FLASHING)---
000046:                                                                                                  #                                NO PROTECTION EXCEPT PRE-P27 MODE IS RESTORED, COAST + ALIGN DOWNLIST IS SELECTED AND UPLINK
000047:                                                                                                  #                                ACTIVITY LIGHT IS TURNED OFF.  (JUST AS IF A V34E WAS SENT DURING P27 DATA LOADS).
000048:                                                                                                  #                                V70,V71,V72 OR V73 WILL HAVE TO BE COMPLETELY RESENT BY USER.
000049:                                                                                                  #                        2.      AFTER VERIFLAG INVERSION (WHEN UPDATE OF THE SPECIFIED ERASABLES IS BEING PERFORMED)---
000050:                                                                                                  #                                PROTECTED AGAINST RESTARTS.
000051:
000052:                                                                                                  #  DEBRIS:               UPBUFF  (20D)   TEMP STORAGE FOR ADDRESSES AND CONTENTS.
000053:                                                                                                  #                        UPVERB  (1)     VERB NUMBER MINUS 70D (E.G. FOR V72, UPVERB = 72D - 70D = 2)
000054:                                                                                                  #                        UPOLDMOD(1)     FOR MAJOR MODE INTERRUPTED BY P27.
000055:                                                                                                  #                        COMPNUMB(1)     TOTAL NUMBER OF COMPONENTS TO BE TRANSMITTED.
000056:                                                                                                  #                        UPCOUNT (1)     ACTUAL NUMBER OF COMPONENTS RECEIVED.
000057:                                                                                                  #                        UPTEMP  (1)     SCRATCH, BUT USUALLY CONTAINS COMPONENT NUMBER TO BE CHANGED DURING VERIFY CYCLE
000058:
000059:                                                                                                  #  INPUT:
000060:
000061:                                                                                                  #        ENTRY:                  DESCRIPTION
000062:                                                                                                  #        V70EXXXXXEXXXXXE        (LIFTOFF TIME INCREMENT) DOUBLE PRECISION OCTAL TIME INCREMENT, XXXXX XXXXX,
000063:                                                                                                  #                                IS ADDED TO TEPHEM, SUBTRACTED FROM AGC CLOCK(TIME2,TIME1), SUBTRACTED FROM CSM STATE
000064:                                                                                                  #                                VECTOR TIME(TETCSM) AND SUBTRACTED FROM LEM STATE VECTOR TIME(TETLEM).
000065:                                                                                                  #                                THE DP OCTAL TIME INCREMENT IS SCALED AT 2(28).
000066:                                                                                                  #        V71EIIEAAAAE            (CONTIGUOUS BLOCK UPDATE) II-2 OCTAL COMPONENTS, XXXXX,
000067:                                                                                                  #        XXXXXE                  ARE LOADED INTO ERASABLE STARTING AT ECADR, AAAA.
000068:                                                                                                  #        XXXXXE                  IT IS .GE. 3 .AND. .LE. 20D.,
000069:                                                                                                  #                                AND (AAAA + II -3) DOES NOT PRODUCE AN ADDRESS IN THE
000070:                                                                                                  #        9 NEXT BANK
000071:                                                                                                  #          .                     SCALING IS SAME AS INTERNAL REGISTERS.
000072:                                                                                                  #        V72EIIE                 (SCATTER UPDATE) (II-1)/2 OCTAL COMPONENTS, XXXXX, ARE
000073:                                                                                                  #        AAAAEXXXXXE             LOADED INTO ERASABLE LOCATIONS, AAAA.
000074:                                                                                                  #        AAAAEXXXXXE             II IS .GE. 3 .AND. .LE. 19D, AND MUST BE ODD.
000075:                                                                                                  #          .                     SCALING IS SAME AS INTERNAL REGISTERS.
000076:
000077:                                                                                                  #        V73EXXXXXEXXXXXE        (OCTAL CLOCK INCREMENT) DOUBLE PRECISION OCTAL TIME
000078:                                                                                                  #                                INCREMENT XXXXX XXXXX, IS ADDED TO THE AGC CLOCK, IN
000079:                                                                                                  #                                CENTISECONDS SCALED AT (2)28.
000080:                                                                                                  #                                THIS LOAD IS THE OCTAL EQUIVALENT OF V55.
000081:
000082:                                                                                                  #  OUTPUT:               IN ADDITION TO THE ABOVE REGISTER LOADS, ALL UPDATES
000083:                                                                                                  #                        COMPLEMENT BIT3 OF FLAGWORD7.
000084:
000085:                                                                                                  #  ADDITIONAL NOTES:     VERB 71, JUST DEFINED ABOVE WILL BE USED TO PERFORM BUT NOT LIMITED TO THE FOLLOWING UPDATES --
000086:                                                                                                  #                        1.  CSM/LM STATE VECTOR UPDATE
000087:                                                                                                  #                        2.  REFSMMAT UPDATE
000088:
000089:                                                                                                  #        THE FOLLOWING COMMENTS DELINEATE EACH SPECIAL UPDATE ----
000090:
000091:                                                                                                  #        1.  CSM/LM STATE VECTOR UPDATE (ALL DATA ENTRIES IN OCTAL)
000092:                                                                                                  #                ENTRIES:        DATA DEFINITION:                                SCALE FACTORS:
000093:                                                                                                  #                V71E            CONTIGUOUS BLOCK UPDATE VERB
000094:                                                                                                  #                   21E          NUMBER OF COMPONENTS FOR STATE VECTOR UPDATE
000095:                                                                                                  #                 AAAAE          ECADR OF 'UPSVFLAG'
000096:                                                                                                  #                XXXXXE          STATE VECTOR IDENTIFIER: 00001 FOR CSM, 77776 FOR LEM - EARTH SPHERE OF INFLUENCE SCALING
000097:                                                                                                  #                                                         00002 FOR CSM, 77775 FOR LEM - LUNAR SPHERE OF INFLUENCE SCALING
000098:                                                                                                  #                XXXXXEXXXXXE    X POSITION
000099:                                                                                                  #                XXXXXEXXXXXE    Y POSITION
000100:                                                                                                  #                XXXXXEXXXXXE    Z POSITION
000101:                                                                                                  #                XXXXXEXXXXXE    X VELOCITY
000102:                                                                                                  #                XXXXXEXXXXXE    Y VELOCITY
000103:                                                                                                  #                XXXXXEXXXXXE    Z VELOCITY
000104:                                                                                                  #                XXXXXEXXXXXE    TIME FROM AGC CLOCK ZERO
000105:                                                                                                  #                V33E            VERB 33 TO SIGNAL THAT THE STATE VECTOR IS READY TO BE STORED.
000106:
000107:                                                                                                  #        2.  REFSMMAT (ALL DATA ENTRIES IN OCTAL)
000108:                                                                                                  #                ENTRIES:                DATA DEFINITIONS:                               SCALE FACTORS:
000109:                                                                                                  #                V71E            CONTIGUOUS BLOCK UPDATE VERB
000110:                                                                                                  #                   24E          NUMBER OF COMPONENTS FOR REFSMMAT UPDATE
000111:                                                                                                  #                 AAAAE          ECADR OF 'REFSMMAT'
000112:                                                                                                  #                XXXXXEXXXXXE    ROW 1 COLUMN 1                                  2(-1)
000113:                                                                                                  #                XXXXXEXXXXXE    ROW 1 COLUMN 2                                  2(-1)
000114:                                                                                                  #                XXXXXEXXXXXE    ROW 1 COLUMN 3                                  2(-1)
000115:                                                                                                  #                XXXXXEXXXXXE    ROW 2 COLUMN 1                                  2(-1)
000116:                                                                                                  #                XXXXXEXXXXXE    ROW 2 COLUMN 2                                  2(-1)
000117:                                                                                                  #                XXXXXEXXXXXE    ROW 2 COLUMN 3                                  2(-1)
000118:                                                                                                  #                XXXXXEXXXXXE    ROW 3 COLUMN 1                                  2(-1)
000119:                                                                                                  #                XXXXXEXXXXXE    ROW 3 COLUMN 2                                  2(-1)
000120:                                                                                                  #                XXXXXEXXXXXE    ROW 3 COLUMN 3                                  2(-1)
000121:                                                                                                  #                V33E            VERB 33 TO SIGNAL THAT REFSMMAT IS READY TO BE STORED.
000122:
000123: 07,3777                                           BANK     07
000124: 43,2000                                           SETLOC   EXTVERBS
000125: 43,2000                                           BANK
000126:
000127: 43,3736  E3,1706                                  EBANK=   TEPHEM
000128:
000129: 43,3736                                           COUNT*   $$/P27
000130: 43,3736           35035        V70UPDAT           CAF      UP70                                  #  COMES HERE ON V70E
000131: 43,3737           13745                           TCF      V73UPDAT   +1
000132:
000133: 43,3740           35033        V71UPDAT           CAF      UP71                                  #  COMES HERE ON V71E
000134: 43,3741           13745                           TCF      V73UPDAT   +1
000135:
000136: 43,3742           35032        V72UPDAT           CAF      UP72                                  #  COMES HERE ON V72E
000137: 43,3743           13745                           TCF      V73UPDAT   +1
000138:
000139: 43,3744           36214        V73UPDAT           CAF      UP73                                  #  COMES HERE ON V73E
000140:
000141: 43,3745           54331                 +1        TS       UPVERBSV                              #  SAVE UPVERB UNTIL IT'S OK TO ENTER P27
000142:
000143: 43,3746           02076                           TC       TESTXACT                              #  GRAB DISPLAY IF AVAILABLE, OTHERWISE
000144:                                                                                                  #  TURN *OPERATOR ERROR* ON AND TERMINATE JOB
000145:
000146: 43,3747           31011                           CA       MODREG                                #  CHECK IF UPDATE ALLOWED
000147: 43,3750           00006                           EXTEND                                         #  FIRST CHECK FOR MODREG = +0, -0
000148: 43,3751           13753                           BZF      +2                                    #  (+0 = P00, -0 = FRESHSTART)
000149: 43,3752           03763                           TC       CKMDMORE                              #  NOW CHECK FOR PROGRAM WHICH CAN BE
000150:                                                                                                  #  INTERRUPTED BY P27.
000151:
000152: 43,3753           31011                           CAE      MODREG                                #  UPDATE ALLOWED.
000153: 43,3754           54301                           TS       UPOLDMOD                              #  SAVE CURRENT MAJOR MODE
000154: 43,3755           30331                           CAE      UPVERBSV                              #  SET UPVERB TO INDICATE TO P27
000155: 43,3756           54302                           TS       UPVERB                                #  WHICH EXTENDED VERB CALLED IT.
000156:
000157: 43,3757           35033                           CAF      ONE
000158: 43,3760           54303                           TS       UPCOUNT                               #  INITIALIZE UPCOUNT TO 1
000159:
000160: 43,3761           04715                           TC       POSTJUMP                              #  LEAVE EXTENDED VERB BANK AND
000161: 43,3762           57374                           CADR     UPPART2                               #  GO TO UPDATE PROGRAM (P27) BANK.
000162:
000163: 43,3763           40101        CKMDMORE           CS       FLAGWRD5
000164: 43,3764           75024                           MASK     BIT8                                  #  CHECK IF COMPUTER IS LGC
000165: 43,3765           10000                           CCS      A                                     #  IS COMPUTER LGC OR AGC
000166: 43,3766           13774        UPERLEM            TCF      UPERROR                               #  ERROR- IT'S THE LEM + MODE IS NOT POO.
000167: 43,3767           45032                           CS       TWO
000168: 43,3770           71011                           MASK     MODREG
000169: 43,3771           10000                           CCS      A
000170: 43,3772           13774        UPERCMC            TCF      UPERROR                               #  ERROR- IT'S THE CMC AND MODE IS NOT
000171:                                                                                                  #  P00 OR P02.
000172: 43,3773           00002                           TC       Q                                     #  ALLOW UPDATE TO PROCEED
000173:
000174: 43,3774           04715        UPERROR            TC       POSTJUMP                              #  TURN ON 'OPERATOR ERROR' LIGHT
000175: 43,3775           57755                           CADR     UPERROUT   +2                         #  GO TO COMMON UPDATE PROGRAM EXIT
000176:
000177: 43,3776  30,2000                                  SBANK=   LOWSUPER
000178: 43,3776     5035               UP70               EQUALS   ZERO
000179: 43,3776     5033               UP71               EQUALS   ONE
000180: 43,3776     5032               UP72               EQUALS   TWO
000181: 43,3776     6214               UP73               EQUALS   THREE
000182:
000183: 04,3757                                           BANK     04
000184: 27,2000                                           SETLOC   UPDATE2
000185: 27,2000                                           BANK
000186:
000187: 27,3374                                           COUNT*   $$/P27
000188:
000189: 27,3374                        UPPART2            EQUALS                                         #  UPDATE PROGRAM - PART 2
000190:
000191: 27,3374           05426                           TC       PHASCHNG                              #  SET RESTART GROUP 6 TO RESTORE OLD MODE
000192: 27,3375           07026                           OCT      07026                                 #  AND DOWNLIST AND EXIT IF RESTART OCCURS.
000193: 27,3376           30000                           OCT      30000                                 #  PRIORITY SAME AS CHRPRIO
000194: 27,3377     0304                                  EBANK=   UPBUFF
000195: 27,3377           03705 56060                     2CADR    UPOUT      +1
000196:
000197: 27,3401           35033                           CAF      ONE
000198: 27,3402           54332                           TS       DNLSTCOD                              #  DOWNLIST
000199:
000200: 27,3403           05370                           TC       NEWMODEX                              #  SET MAJOR MODE = 27
000201: 27,3404           00033                           DEC      27         B-14
000202:
000203: 27,3405           50302                           INDEX    UPVERB                                #  BRANCH DEPENDING ON WHETHER THE UPDATE
000204: 27,3406           13407                           TCF      +1                                    #  VERB REQUIRES A FIXED OR VARIABLE NUMBER
000205: 27,3407           13412                           TCF      +3                                    #  V70 FIXED.               (OF COMPONENTS.
000206: 27,3410           13415                           TCF      OHWELL1                               #  V71 VARIABLE - GO GET NO. OF COMPONENTS
000207: 27,3411           13415                           TCF      OHWELL1                               #  V72 VARIABLE - GO GET NO. OF COMPONENTS
000208: 27,3412           35032                           CA       TWO                                   #  V73 (AND V70) FIXED
000209: 27,3413           54300                           TS       COMPNUMB                              #  SET NUMBER OF COMPONENTS TO 2.
000210: 27,3414           13440                           TCF      OHWELL2                               #  GO GET THE TWO UPDATE COMPONENTS
000211:
000212: 27,3415           33510        OHWELL1            CAF      ADUPBUFF                              #  * REQUEST USER TO SEND NUMBER  *
000213: 27,3416           54156                           TS       MPAC       +2                         #  * OF COMPONENTS PARAMETER(II). *
000214: 27,3417           33511                 +2        CAF      UPLOADNV                              #  (CK4V32 RETURNS HERE IF V32 ENCOUNTERED)
000215: 27,3420           04676                           TC       BANKCALL                              #  DISPLAY A FLASHING V21N01
000216: 27,3421           20561                           CADR     GOXDSPF                               #  TO REQUEST II.
000217: 27,3422           13705                           TCF      UPOUT4                                #  V34 TERMINATE UPDATE (P27) RETURN
000218: 27,3423           13417                           TCF      OHWELL1    +2
000219: 27,3424           03501                           TC       CK4V32                                #  DATA OR V32 RETURN
000220: 27,3425           45032                           CS       BIT2
000221: 27,3426           60304                           AD       UPBUFF                                #  IS II (NUMBER OF COMPONENTS PARAMETER)
000222: 27,3427           00006                           EXTEND                                         #  .GE. 3 AND .LE. 20D.
000223: 27,3430           63417                           BZMF     OHWELL1    +2
000224: 27,3431           40304                           CS       UPBUFF
000225: 27,3432           64376                           AD       UP21
000226: 27,3433           00006                           EXTEND
000227: 27,3434           63417                           BZMF     OHWELL1    +2
000228: 27,3435           30304                           CAE      UPBUFF
000229: 27,3436           54300                           TS       COMPNUMB                              #  SAVE II IN COMPNUMB
000230:
000231:                                                                                                  #  UPBUFF LOADING SEQUENCE
000232:
000233: 27,3437           24303                           INCR     UPCOUNT                               #  INCREMENT COUNT OF COMPONENTS RECEIVED.
000234: 27,3440           33655        OHWELL2            CAF      ADUPBFM1                              #  CALCULATE LOCATION (ECADR) IN UPBUFF
000235: 27,3441           60303                           AD       UPCOUNT                               #  WHERE NEXT COMPONENT SHOULD BE STORED.
000236: 27,3442           54156                 +2        TS       MPAC       +2                         #  PLACE ECADR INTO R3.
000237: 27,3443           33511                 +3        CAF      UPLOADNV                              #  (CK4V32 RETURNS HERE IF V32 ENCOUNTERED)
000238: 27,3444           04676                           TC       BANKCALL                              #  DISPLAY A FLASHING V21N01
000239: 27,3445           20561                           CADR     GOXDSPF                               #  TO REQUEST DATA.
000240: 27,3446           13705                           TCF      UPOUT4                                #  V34 TERMINATE UPDATE (P27) RETURN.
000241: 27,3447           13443                           TCF      OHWELL2    +3                         #  V33 PROCEED RETURN
000242: 27,3450           03501                           TC       CK4V32                                #  DATA OR V32 RETURN
000243: 27,3451           40303                           CS       UPCOUNT                               #  HAVE WE FINISHED RECEIVING ALL
000244: 27,3452           60300                           AD       COMPNUMB                              #  THE DATA WE EXPECTED.
000245: 27,3453           00006                           EXTEND
000246: 27,3454           63456                           BZMF     UPVERIFY                              #  YES- GO TO VERIFICATION SEQUENCE
000247: 27,3455           13437                           TCF      OHWELL2    -1                         #  NO- REQUEST ADDITIONAL DATA.
000248:
000249:                                                                                                  #  VERIFY SEQUENCE
000250: 27,3456           33507        UPVERIFY           CAF      ADUPTEMP                              #  PLACE ECADR WHERE COMPONENT NO. INDEX
000251: 27,3457           54156                           TS       MPAC       +2                         #  IS TO BE STORED INTO R3.
000252: 27,3460           33512                           CAF      UPVRFYNV                              #  (CK4V32 RETURNS HERE IF V32 ENCOUNTERED)
000253: 27,3461           04676                           TC       BANKCALL                              #  DISPLAY A FLASHING V21N02 TO REQUEST
000254: 27,3462           20561                           CADR     GOXDSPF                               #  DATA CORRECTION OR VERIFICATION.
000255: 27,3463           13705                           TCF      UPOUT4                                #  V34 TERMINATE UPDATE (P27) RETURN
000256: 27,3464           13513                           TCF      UPSTORE                               #  V33 DATA SENT IS GOOD.  GO STORE IT.
000257: 27,3465           03501                           TC       CK4V32                                #  COMPONENT NO. INDEX OR V32 RETURN
000258: 27,3466           30330                           CA       UPTEMP                                #  DOES THE COMPONENT NO. INDEX JUST SENT
000259: 27,3467           00006                           EXTEND                                         #  SPECIFY A LEGAL COMPONENT NUMBER?
000260: 27,3470           63456                           BZMF     UPVERIFY                              #  NO, IT IS NOT POSITIVE NONZERO
000261: 27,3471           40330                           CS       UPTEMP
000262: 27,3472           60300                           AD       COMPNUMB
000263: 27,3473           65033                           AD       BIT1
000264: 27,3474           00006                           EXTEND
000265: 27,3475           63456                           BZMF     UPVERIFY                              #  NO
000266: 27,3476           33655                           CAF      ADUPBFM1                              #  YES- BASED ON THE COMPONENT NO. INDEX
000267: 27,3477           60330                           AD       UPTEMP                                #  CALCULATE THE ECADR OF LOCATION IN
000268: 27,3500           13442                           TCF      OHWELL2    +2                         #  UPBUFF WHICH USER WANTS TO CHANGE.
000269:
000270: 27,3501  27,3705               UPOUT4             EQUALS   UPOUT      +1                         #  COMES HERE ON V34 TO TERMINATE UPDATE
000271:
000272:                                                                                                  #  CHECK FOR VERB 32 SEQUENCE
000273:
000274: 27,3501           40154        CK4V32             CS       MPAC                                  #  ON DATA RETURN FROM 'GOXDSPF'
000275: 27,3502           75026                           MASK     BIT6                                  #  ON DATA RETURN FROM "GOXDSP"& THE CON-
000276: 27,3503           10000                           CCS      A                                     #  TENTS OF MPAC = VERB.  SO TEST FOR V32.
000277: 27,3504           00002                           TC       Q                                     #  IT'S NOT A V32, IT'S DATA.  PROCEED.
000278: 27,3505           50002                           INDEX    Q
000279: 27,3506           77771                           TC       0          -6                         #  V32 ENCOUNTERED - GO BACK AND GET DATA
000280:
000281: 27,3507           00330        ADUPTEMP           ADRES    UPTEMP                                #  ADDRESS OF TEMP STORAGE FOR CORRECTIONS
000282: 27,3510           00304        ADUPBUFF           ADRES    UPBUFF                                #  ADDRESS OF UPDATE DATA STORAGE BUFFER
000283: 27,3511           05201        UPLOADNV           VN       2101                                  #  VERB 21 NOUN 01
000284: 27,3512           05202        UPVRFYNV           VN       2102                                  #  VERB 21 NOUN 02
000285: 27,3513     4376               UP21               =        MD1                                   #  DEC 21 = MAX NO OF COMPONENTS +1
000286: 27,3513     5036               UPDTPHAS           EQUALS   FIVE
000287:
000288:                                                                                                  #  PRE-STORE AND FAN TO APPROPRIATE BRANCH SEQUENCE
000289:
000290: 27,3513                        UPSTORE            EQUALS                                         #  GROUND HAS VERIFIED UPDATE.  STORE DATA.
000291:
000292: 27,3513           00004                           INHINT
000293:
000294: 27,3514           30103                           CAE      FLAGWRD7                              #  INVERT VERIFLAG (BIT 3 OF FLAGWRD7) TO
000295: 27,3515           56001                           XCH      L                                     #  INDICATE TO THE GROUND (VIA DOWNLINK)
000296: 27,3516           35031                           CAF      BIT3                                  #  THAT THE V33 (WHICH THE GROUND SENT TO
000297: 27,3517           00006                           EXTEND                                         #  VERIFY THE UPDATE) HAS BEEN SUCCESSFULLY
000298: 27,3520           06001                           RXOR     LCHAN                                 #  RECEIVED BY THE UPDATE PROGRAM
000299: 27,3521           54103                           TS       FLAGWRD7
000300:
000301: 27,3522           05426                           TC       PHASCHNG                              #  SET RESTART GROUP 6 TO REDO THE UPDATE
000302: 27,3523           04026                           OCT      04026                                 #  DATA STORE IF A RESTART OCCURS.
000303: 27,3524           00004                           INHINT                                         #  (BECAUSE PHASCHNG DID A RELINT)
000304:
000305: 27,3525           45032                           CS       TWO                                   #  GO TO UPFNDVAC IF INSTALL IS REQUIRED,
000306: 27,3526           60302                           AD       UPVERB                                #  THAT IS, IF IT'S A V70 - V72.
000307: 27,3527           00006                           EXTEND                                         #  GO TO UPEND73 IF IT'S A V73.
000308: 27,3530           63537                           BZMF     UPFNDVAC
000309:
000310:                                                                                                  #  VERB 73 BRANCH
000311:
000312: 27,3531           00006        UPEND73            EXTEND                                         #  V73-PERFORM DP OCTAL AGC CLOCK INCREMENT
000313: 27,3532           30305                           DCA      UPBUFF
000314: 27,3533           52315                           DXCH     UPBUFF     +8D
000315: 27,3534           03562                           TC       TIMEDIDL
000316: 27,3535           04400                           TC       FALTON                                #  ERROR- TURN ON *OPERATOR ERROR* LIGHT
000317: 27,3536           03705                           TC       UPOUT      +1                         #  GO TO COMMON UPDATE PROGRAM EXIT
000318:
000319: 27,3537           34371        UPFNDVAC           CAF      CHRPRIO                               #  (USE EXTENDED VERB PRIORITY)
000320: 27,3540           05163                           TC       FINDVAC                               #  GET VAC AREA FOR 'CALL INTSTALL'
000321: 27,3541  E3,1706                                  EBANK=   TEPHEM
000322: 27,3541           03544 56063                     2CADR    UPJOB                                 #  (NOTE:  THIS WILL ALSO SET EBANK FOR
000323: 27,3543           05233                           TC       ENDOFJOB                              #  'TEPHEM' UPDATE BY V70)
000324:
000325: 27,3544           06006        UPJOB              TC       INTPRET                               #  THIS COULD BE A STATE VECTOR UPDATE -- SO
000326: 27,3545           77624                           CALL                                           #  WAIT (PUT JOB TO SLEEP) IF ORBIT INT(OI)
000327: 27,3546           27446                                    INTSTALL                              #  IS IN PROGRESS -- OR -- GRAB OI AND RETURN
000328:                                                                                                  #  TO UPWAKE IF OI IS NOT IN PROGRESS.
000329:
000330: 27,3547           77776        UPWAKE             EXIT
000331:
000332: 27,3550           05426                           TC       PHASCHNG                              #  RESTART PROTECT (GROUP 6)
000333: 27,3551           04026                           OCT      04026
000334:
000335: 27,3552           05562                           TC       UPFLAG                                #  SET INTEGRATION RESTART BIT
000336: 27,3553           00236                           ADRES    REINTFLG
000337: 27,3554           00004                           INHINT
000338: 27,3555                        UPPART3            EQUALS
000339:
000340: 27,3555           50302                           INDEX    UPVERB                                #  BRANCH TO THE APPROPRIATE UPDATE VERB
000341: 27,3556           13557                           TCF      +1                                    #  ROUTINE TO ACTUALLY PERFORM THE UPDATE
000342: 27,3557           13716                           TCF      UPEND70                               #  V70
000343: 27,3560           13625                           TCF      UPEND71                               #  V71
000344: 27,3561           13657                           TCF      UPEND72                               #  V72
000345:
000346:                                                                                                  #  ROUTINE TO INCREMENT CLOCK (TIME2,TIME1) WITH CONTENTS OF DP WORD AT UPBUFF.
000347: 27,3562           00006        TIMEDIDL           EXTEND
000348: 27,3563           22330                           QXCH     UPTEMP                                #  SAVE Q FOR RETURN
000349: 27,3564           35035                           CAF      ZERO                                  #  ZERO AND SAVE TIME2,TIME1
000350: 27,3565           22007                           ZL
000351: 27,3566           52025                           DXCH     TIME2
000352: 27,3567           52327                           DXCH     UPBUFF     +18D                       #  STORE IN CASE OF OVERFLOW
000353:
000354: 27,3570           35036                           CAF      UPDTPHAS                              #  DO
000355: 27,3571           54001                           TS       L                                     #  A
000356: 27,3572           40000                           COM                                            #  QUICK
000357: 27,3573           52765                           DXCH     -PHASE6                               #  PHASCHNG
000358:
000359: 27,3574           00004        TIMEDIDR           INHINT
000360: 27,3575           35035                           CAF      ZERO
000361: 27,3576           22007                           ZL                                             #  PICK UP INCREMENTER(AND ZERO
000362: 27,3577           54156                           TS       MPAC       +2                         #  IT IN CASE OF RESTARTS) AND
000363: 27,3600           52315                           DXCH     UPBUFF     +8D                        #  STORE IT
000364: 27,3601           52155                           DXCH     MPAC                                  #  INTO MPAC FOR TPAGREE.
000365:
000366: 27,3602           00006                           EXTEND
000367: 27,3603           30327                           DCA      UPBUFF     +18D
000368: 27,3604           20155                           DAS      MPAC                                  #  FORM SUM IN MPAC
000369: 27,3605           00006                           EXTEND
000370: 27,3606           13615                           BZF      DELTAOK                               #  TEST FOR OVERFLOW
000371: 27,3607           35035                           CAF      ZERO
000372: 27,3610           52327                           DXCH     UPBUFF     +18D                       #  OVERFLOW, RESTORE OLD VALUE OF CLOCK
000373: 27,3611           20025                           DAS      TIME2                                 #  AND TURN ON OPERATOR ERROR
000374:
000375: 27,3612           05426                           TC       PHASCHNG                              #  RESTART PROTECT (GROUP 6)
000376: 27,3613           04026                           OCT      04026
000377:
000378: 27,3614           00330                           TC       UPTEMP                                #  GO TO ERROR EXIT
000379:
000380: 27,3615           07226        DELTAOK            TC       TPAGREE                               #  FORCE SIGN AGREEMENT
000381: 27,3616           52155                           DXCH     MPAC
000382: 27,3617           20025                           DAS      TIME2                                 #  INCREMENT TIME2,TIME1
000383:
000384: 27,3620           05426                           TC       PHASCHNG                              #  RESTART PROTECT (GROUP 6)
000385: 27,3621           04026                           OCT      04026
000386:
000387: 27,3622           00004                           INHINT
000388: 27,3623           50330                           INDEX    UPTEMP                                #  (CODED THIS WAY FOR RESTART PROTECTION)
000389: 27,3624           00001                           TC       1                                     #  NORMAL RETURN
000390:
000391:                                                                                                  #  VERB 71 BRANCH
000392:
000393: 27,3625           30305        UPEND71            CAE      UPBUFF     +1                         #  SET EBANK
000394: 27,3626           54003                           TS       EBANK                                 #        AND
000395: 27,3627           74373                           MASK     LOW8                                  #  CALCULATE
000396: 27,3630           54330                           TS       UPTEMP                                #  S-REG VALUE OF RECEIVING AREA
000397: 27,3631           67714                           AD       NEG3                                  #  IN THE PROCESS OF
000398: 27,3632           60300                           AD       COMPNUMB                              #  PERFORMING
000399: 27,3633           00006                           EXTEND                                         #  THIS UPDATE
000400: 27,3634           13642                           BZF      STORLP71                              #  WILL WE
000401: 27,3635           75023                           MASK     BIT9                                  #  OVERFLOW
000402: 27,3636           10000                           CCS      A                                     #  INTO THE NEXT EBANK....
000403: 27,3637           13753                           TCF      UPERROUT                              #  YES
000404:
000405: 27,3640           37714                           CA       NEG3                                  #  NO- CALCULATE NUMBER OF
000406: 27,3641           60300                           AD       COMPNUMB                              #  WORDS TO BE STORED MINUS ONE
000407: 27,3642           54154        STORLP71           TS       MPAC                                  #  SAVE NO. OF WORDS REMAINING MINUS ONE
000408: 27,3643           50000                           INDEX    A                                     #  TAKE NEXT UPDATE WORD FROM
000409: 27,3644           30306                           CA       UPBUFF     +2                         #  UPBUFF AND
000410: 27,3645           54001                           TS       L                                     #  SAVE IT IN L
000411: 27,3646           30154                           CA       MPAC                                  #  CALCULATE NEXT
000412: 27,3647           60330                           AD       UPTEMP                                #  RECEIVING ADDRESS
000413: 27,3650           50000                           INDEX    A
000414: 27,3651  E3,1400                                  EBANK=   1400
000415: 27,3651           23400                           LXCH     1400                                  #  UPDATE THE REGISTER BY CONTENTS OF L
000416: 27,3652  E3,1706                                  EBANK=   TEPHEM
000417: 27,3652           10154                           CCS      MPAC                                  #  ARE THERE ANY WORDS LEFT TO BE STORED
000418: 27,3653           13642                           TCF      STORLP71                              #  YES
000419: 27,3654           13704                           TCF      UPOUT                                 #  NO- THEN EXIT UPDATE PROGRAM
000420: 27,3655           00303        ADUPBFM1           ADRES    UPBUFF     -1                         #  SAME AS ADUPBUFF BUT LESS 1 (DON'T MOVE)
000421: 27,3656           13704                           TCF      UPOUT                                 #  NO- EXIT UPDATE (HERE WHEN COMPNUMB = 3)
000422:
000423:                                                                                                  #  VERB 72 BRANCH
000424:
000425: 27,3657           35033        UPEND72            CAF      BIT1                                  #  HAVE AN ODD NO. OF COMPONENTS
000426: 27,3660           70300                           MASK     COMPNUMB                              #  BEEN SENT FOR A V72 UPDATE ...
000427: 27,3661           10000                           CCS      A
000428: 27,3662           13664                           TCF      +2                                    #  YES
000429: 27,3663           13753                           TCF      UPERROUT                              #  ERROR- SHOULD BE ODD NO. OF COMPONENTS
000430: 27,3664           45032                           CS       BIT2
000431: 27,3665           60300                           AD       COMPNUMB
000432: 27,3666           54154        LDLOOP72           TS       MPAC                                  #  NOW PERFORM THE UPDATE
000433: 27,3667           50000                           INDEX    A
000434: 27,3670           30305                           CAE      UPBUFF     +1                         #  PICK UP NEXT UPDATE WORD
000435: 27,3671           22000                           LXCH     A
000436: 27,3672           10154                           CCS      MPAC                                  #  SET POINTER TO ECADR (MUST BE CCS)
000437: 27,3673           54154                           TS       MPAC
000438: 27,3674           50000                           INDEX    A
000439: 27,3675           30305                           CAE      UPBUFF     +1                         #  PICK UP NEXT ECADR OF REG TO BE UPDATED
000440: 27,3676           54003                           TS       EBANK                                 #  SET EBANK
000441: 27,3677           74373                           MASK     LOW8                                  #  ISOLATE RELATIVE ADDRESS
000442: 27,3700           50000                           INDEX    A
000443:
000444: 27,3701  E3,1400                                  EBANK=   1400
000445: 27,3701           23400                           LXCH     1400                                  #  UPDATE THE REGISTER BY CONTENTS OF L
000446: 27,3702  E3,1706                                  EBANK=   TEPHEM
000447: 27,3702           10154                           CCS      MPAC                                  #  ARE WE THROUGH THE V72 UPDATE...
000448: 27,3703           13666                           TCF      LDLOOP72                              #  NO
000449:
000450:                                                                                                  #  NORMAL FINISH OF P27
000451:
000452: 27,3704                        UPOUT              EQUALS
000453: 27,3704           02672                           TC       INTWAKEU                              #  RELEASE GRAB OF ORBITAL INTEGRATION
000454: 27,3705           30301                 +1        CAE      UPOLDMOD                              #  RESTORE PRIOR P27 MODE
000455: 27,3706           05373                           TC       NEWMODEX   +3
000456: 27,3707           35035                           CAF      ZERO
000457: 27,3710           54332                           TS       DNLSTCOD
000458: 27,3711           03760                           TC       UPACTOFF                              #  TURN OFF 'UPLINK ACTIVITY' LIGHT
000459: 27,3712           00006                           EXTEND                                         #  KILL GROUP 6.
000460: 27,3713           35035                           DCA      NEG0
000461: 27,3714           52765                           DXCH     -PHASE6
000462:
000463: 27,3715           05550                           TC       ENDEXT                                #  EXTENDED VERB EXIT
000464:
000465:                                                                                                  #  VERB 70 BRANCH
000466:
000467: 27,3716           00006        UPEND70            EXTEND                                         #  V70 DOES THE FOLLOWING WITH DP DELTA
000468: 27,3717           40305                           DCS      UPBUFF                                #  TIME IN UPBUFF
000469: 27,3720           52315                           DXCH     UPBUFF     +8D
000470: 27,3721           03562                           TC       TIMEDIDL                              #  DECREMENT AGC CLOCK
000471:
000472: 27,3722           03753                           TC       UPERROUT                              #  ERROR WHILE DECREMENTING CLOCK -- EXIT
000473:
000474: 27,3723  E3,1706                                  EBANK=   TEPHEM
000475: 27,3723           00006                           EXTEND
000476: 27,3724           40305                           DCS      UPBUFF                                #  COPY DECREMENTERS FOR
000477: 27,3725           52317                           DXCH     UPBUFF     +10D                       #  RESTART PROTECTION
000478: 27,3726           00006                           EXTEND
000479: 27,3727           40305                           DCS      UPBUFF
000480: 27,3730           52321                           DXCH     UPBUFF     +12D
000481:
000482: 27,3731           05426                           TC       PHASCHNG                              #  RESTART PROTECT (GROUP 6)
000483: 27,3732           04026                           OCT      04026
000484:
000485: 27,3733           35035                           CAF      ZERO
000486: 27,3734           22007                           ZL
000487: 27,3735           52317                           DXCH     UPBUFF     +10D                       #  DECREMENT CSM STATE VECTOR TIME
000488: 27,3736           21571                           DAS      TETCSM
000489:
000490: 27,3737           35035                           CAF      ZERO
000491:
000492: 27,3740           22007                           ZL
000493: 27,3741           52321                           DXCH     UPBUFF     +12D                       #  DECREMENT LEM STATE VECTOR TIME
000494: 27,3742           21643                           DAS      TETLEM
000495: 27,3743           35035                           CAF      ZERO
000496: 27,3744           22007                           ZL
000497: 27,3745           52305                           DXCH     UPBUFF
000498: 27,3746           21710                           DAS      TEPHEM     +1                         #  INCREMENT TP TEPHEM
000499: 27,3747           27706                           ADS      TEPHEM
000500:
000501: 27,3750           05426                           TC       PHASCHNG                              #  RESTART PROTECT (GROUP 6)
000502: 27,3751           04026                           OCT      04026
000503:
000504: 27,3752     0304                                  EBANK=   UPBUFF
000505:
000506: 27,3752           03704                           TC       UPOUT                                 #  GO TO STANDARD UPDATE PROGRAM EXIT
000507:
000508:                                                                                                  #  ERROR SEQUENCE
000509:
000510: 27,3753           04400        UPERROUT           TC       FALTON                                #  TURN ON *OPERATOR ERROR* LIGHT
000511: 27,3754           13704                           TCF      UPOUT                                 #  GO TO COMMON UPDATE PROGRAM EXIT
000512:
000513: 27,3755           04400                 +2        TC       FALTON                                #  TURN ON 'OPERATOR ERROR' LIGHT
000514: 27,3756           03760                           TC       UPACTOFF                              #  TURN OFF 'UPLINK ACTIVITY' LIGHT
000515: 27,3757           05550                           TC       ENDEXT                                #  EXTENDED VERB EXIT
000516:                                                                                                  #  (THE PURPOSE OF UPERROUT +2 EXIT IS
000517:                                                                                                  #  TO PROVIDE AN ERROR EXIT WHICH DOES NOT
000518:                                                                                                  #  RESET ANY RESTART GROUPS)
000519:
000520:                                                                                                  #  :UPACTOFF: IS A ROUTINE TO TURN OFF UPLINK ACTIVITY LIGHT ON ALL EXITS FROM UPDATE PROGRAM (P27).
000521:
000522: 27,3760           45031        UPACTOFF           CS       BIT3
000523: 27,3761           00006                           EXTEND                                         #  TURN OFF UPLINK ACTIVITY LIGHT
000524: 27,3762           03011                           WAND     DSALMOUT                              #  (BIT 3 OF CHANNEL 11)
000525: 27,3763           00002                           TC       Q

End of include-file UPDATE_PROGRAM.agc.  Parent file is MAIN.agc


