
Source Code


000002:                                                                                                  ## Copyright:   Public domain.
000003:                                                                                                  ## Filename:    202_RESTART_TABLES_AND_ROUTINES.agc
000004:                                                                                                  ## Purpose:     A section of Corona revision 261.
000005:                                                                                                  ##              It is part of the source code for the Apollo Guidance Computer
000006:                                                                                                  ##              (AGC) for AS-202. No original listings of this software are
000007:                                                                                                  ##              available; instead, this file was created via disassembly of
000008:                                                                                                  ##              the core rope modules actually flown on the mission.
000009:                                                                                                  ## Assembler:   yaYUL
000010:                                                                                                  ## Contact:     Ron Burkey <info@sandroid.org>.
000011:                                                                                                  ## Website:     www.ibiblio.org/apollo/index.html
000012:                                                                                                  ## Mod history: 2023-05-27 MAS  Created from Solarium 55.
000013:                                                                                                  ##              2023-06-17 MAS  Updated for Corona.
000014:
000015:                                                                                                  #   RESTART  TABLES
000016:                                                                                                  #   ----------------
000017:
000018:                                                                                                  #        THESE CONTROL RESTART OPERATION.
000019:
000020:
000021:
000022:
000023:                                                                                                  #   ...IMPORTANT...   DO NOT MOVE THIS SECTION FROM BEGINNING OF BANK. DJL
000024:
000025: 13,6000                                           SETLOC   26000                                 #  START OF BANK 13.
000026: 13,6000           00000        WTDTTAB            DEC      0          B-14                       #  WAITLIST DT FOR RESTART 1.0
000027: 13,6001           00000        WCADRTAB           CADR     0                                     #  WAITLIST CADR.
000028: 13,6002           00000        PRIOTAB            OCT      0                                     #  PRIORITY VALUE.
000029: 13,6003           00000        CADRTAB            CADR     0                                     #  CADR OF CURRENT JOB
000030:
000031:                                                                                                  #  ANY JOB 1 RESTARTS SHOULD GO HEFE.
000032:
000033: 13,6004           77777        2.1SPOT            OCT      77777                                 #  2.1 RESTART
000034: 13,6005           77777                           OCT      77777
000035: 13,6006           01563                           CADR     TROLL      +1
000036: 13,6007           64134                           CADR     MONITSK1
000037:
000038: 13,6010           00000        2.2SPOT            OCT      0                                     #  RESTART 2.2 VALUES.
000039: 13,6011           00000                           OCT      0
000040: 13,6012           12000                           OCT      12000                                 #  PRIO12
000041: 13,6013           66642                           CADR     VERTINIT
000042:
000043: 13,6014           00000        2.3SPOT            OCT      0                                     #  2.3 RESTART
000044: 13,6015           00000                           OCT      0
000045: 13,6016           12000                           OCT      12000
000046: 13,6017           66416                           CADR     ATTIJOB1   -1
000047:
000048: 13,6020           00000        2.4SPOT            OCT      0                                     #  RESTART 2.4
000049: 13,6021           00000                           OCT      0
000050: 13,6022           12000                           OCT      12000
000051: 13,6023           66410                           CADR     ATTIJOB
000052:
000053: 13,6024           00000        2.5SPOT            OCT      0                                     #  2.5 RESTART.
000054: 13,6025           00000                           OCT      0
000055: 13,6026           77777                           OCT      77777
000056: 13,6027           66537                           CADR     DOMANU
000057:
000058:                                                                                                  #  ANY MORE GROUP 2 RESTART VALUES SHOULD GO HERE.
000059:
000060:
000061: 13,6030           77777        3.1SPOT            OCT      77777                                 #  3.1 RESTART.
000062: 13,6031           77777                           OCT      77777
000063: 13,6032           01565                           CADR     TPITCH     +1                         #  CONTAINS DT
000064: 13,6033           64170                           CADR     MONITASK
000065:
000066: 13,6034           77777        3.2SPOT            OCT      77777                                 #  3.2 RESTART
000067: 13,6035           77777                           OCT      77777
000068: 13,6036           01572                           CADR     TTUMON
000069: 13,6037           64263                           CADR     TUMBTSK1
000070:
000071: 13,6040           00000                           OCT      0                                     #  3.3 RESTART
000072: 13,6041           00000                           OCT      0
000073: 13,6042           77777                           OCT      77777
000074: 13,6043           65012                           CADR     REDO3.3
000075:
000076: 13,6044           01274                           DEC      700        B-14                       #  3.4 RESTART.
000077: 13,6045           65133                           CADR     GIMPOWOF
000078: 13,6046           00000                           OCT      0
000079: 13,6047           00000                           OCT      0
000080:
000081: 13,6050           02032                           DEC      1050       B-14                       #  3.5 RESTART
000082: 13,6051           65147                           CADR     DVMODOFF
000083: 13,6052           00000                           OCT      0
000084: 13,6053           00000                           OCT      0
000085:
000086: 13,6054           02063                           DEC      1075       B-14                       #  3.6 RESTART.
000087: 13,6055           65160                           CADR     ATTCONON
000088: 13,6056           00000                           OCT      0
000089: 13,6057           00000                           OCT      0
000090:
000091: 13,6060           00113                           DEC      75         B-14                       #  3.7RESTART
000092: 13,6061           65322                           CADR     CGTASK
000093: 13,6062           00000                           OCT      0
000094: 13,6063           00000                           OCT      0
000095:
000096: 13,6064           00310                           DEC      200        B-14                       #  3.8 RESTART.
000097: 13,6065           65144                           CADR     GMPOFF3
000098: 13,6066           00000                           OCT      0
000099: 13,6067           00000                           OCT      0
000100:
000101: 13,6070           00000                           OCT      0                                     #  3.9 REATART.
000102: 13,6071           00000                           OCT      0
000103: 13,6072           77777                           OCT      77777
000104: 13,6073           65111                           CADR     SETMOD23
000105:
000106: 13,6074           00000                           OCT      0                                     #  3.10 RESTART.
000107: 13,6075           00000                           OCT      0
000108: 13,6076           27000                           OCT      27000
000109: 13,6077           67240                           CADR     SHUTJOB
000110:
000111: 13,6100           00764                           DEC      500        B-14                       #  3.11 RESTART.
000112: 13,6101           67440                           CADR     CDUXTASK                              #  5SECS FROM TBASE3
000113: 13,6102           00000                           OCT      0
000114: 13,6103           00000                           OCT      0
000115:
000116: 13,6104           01750        3.12SPOT           DEC      1000       B-14                       #  3.12 RESTART.
000117: 13,6105           67522                           CADR     CM/SMTSK                              #  10SECS FROM TBASE3
000118: 13,6106           20000                           OCT      20000
000119: 13,6107           67454                           CADR     CDUXJOB
000120:
000121: 13,6110           01750                           DEC      1000       B-14                       #  3.13 RESTART.
000122: 13,6111           67522                           CADR     CM/SMTSK
000123: 13,6112           20000                           OCT      20000
000124: 13,6113           67510                           CADR     REDO3.13
000125:
000126: 13,6114           01750                           DEC      1000       B-14                       #  3.14 RESTART.
000127: 13,6115           67522                           CADR     CM/SMTSK
000128: 13,6116           00000                           OCT      0
000129: 13,6117           00000                           OCT      0
000130:
000131: 13,6120           02734        3.15SPOT           DEC      1500       B-14                       #  3.15 RESTART
000132: 13,6121           67535                           CADR     ENTATASK                              #  15SECS FROM TBASE3
000133: 13,6122           00000                           OCT      0
000134: 13,6123           00000                           OCT      0
000135:
000136: 13,6124           00000        3.16SPOT           OCT      0                                     #  3.16 RESTART.
000137: 13,6125           00000                           OCT      0
000138: 13,6126           15000                           OCT      15000                                 #  PRIO TO REDO HUNTEST.
000139: 13,6127           56235                           CADR     PREHUNT
000140:
000141: 13,6130           00000 00000  3.17SPOT           2DEC     0          B-28                       #  3.17 RESTART.  ...PRELAUNCH...
000142: 13,6132           20000                           OCT      20000
000143: 13,6133           42142                           CADR     REPL11
000144:
000145: 13,6134           00000 00000                     2DEC     0          B-28                       #  3.18 RESTART.  ...PRELAUNCH...
000146: 13,6136           20000                           OCT      20000
000147: 13,6137           42151                           CADR     REPL12
000148:
000149: 13,6140           00000 00000                     2DEC     0          B-28                       #  3.19 RESTART  ...PRELAUNCH...
000150: 13,6142           20000                           OCT      20000
000151: 13,6143           42266                           CADR     REDO3.21
000152:
000153: 13,6144           00000 00000                     2DEC     0          B-28                       #  3.20 RESTART.  ...PRELAUNCH...
000154: 13,6146           77777                           OCT      77777
000155: 13,6147           42216                           CADR     REDO3.20
000156:
000157: 13,6150           00062                           DEC      50         B-14                       #  3.21 RESTART.  ...PRELAUNCH...
000158: 13,6151           42262                           CADR     REPRELAL
000159: 13,6152           21000                           OCT      21000
000160: 13,6153           42266                           CADR     REDO3.21
000161:
000162: 13,6154           00062                           DEC      50         B-14                       #  3.22 RESTART.  ...PRELAUNCH
000163: 13,6155           42262                           CADR     REPRELAL
000164: 13,6156           00000 00000                     2DEC     0.0
000165:
000166: 13,6160           00310        3.23SPOT           DEC      200        B-14                       #  3.23 RESTART
000167: 13,6161           67346                           CADR     GMPOFF2
000168: 13,6162           00000 00000                     2DEC     0.0
000169:
000170: 13,6164           00536        3.24SPOT           DEC      350        B-14                       #  3.24 RESTART
000171: 13,6165           67357                           CADR     DVMODOF2
000172: 13,6166           00000 00000                     2DEC     0.0
000173:
000174: 13,6170           01046                           DEC      550        B-14                       #  3.25 RESTART
000175: 13,6171           67357                           CADR     DVMODOF2
000176: 13,6172           00000 00000                     2DEC     0.0
000177:                                                                                                  #   ANY MORE GROUP 3 RESTART VALUES SHOULD GO HERE.
000178: 13,6174           00000 00000                     2DEC     0.0                                   #  3.26 RESTART
000179: 13,6176           77777                           OCT      77777
000180: 13,6177           64170                           CADR     MONITASK
000181:
000182: 13,6200           00000 00000                     2DEC     0.0                                   #  3.27 RESTART
000183: 13,6202           77777                           OCT      77777
000184: 13,6203           64263                           CADR     TUMBTSK1
000185:
000186:                                                                                                  #        ANY MORE GROUP 3 RESTARTS GO IN HERE
000187:
000188: 13,6204           00000        4.1SPOT            OCT      0                                     #  4.1 RESTART.
000189: 13,6205           00000                           OCT      0
000190: 13,6206           34000                           OCT      34000                                 #  HIGH PRIO.  (WATCH THIS.)
000191: 13,6207           66212                           CADR     REDO4.1
000192:
000193: 13,6210           77777        4.2SPOT            OCT      77777                                 #  4.2 RESTART.
000194: 13,6211           77777                           OCT      77777
000195: 13,6212           01461                           CADR     LONGTIME   +1
000196: 13,6213           64755                           CADR     ENGINOFF
000197:
000198: 13,6214           02032        4.3SPOT            DEC      1050       B-14                       #  4.3 RESTART.
000199: 13,6215           65171                           CADR     COASTPHS
000200: 13,6216           77777                           OCT      77777
000201: 13,6217           65043                           CADR     REDO4.3
000202:
000203: 13,6220           77776 45317  4.4SPOT            2DEC     -30000     B-28                       #  4.4 RESTART
000204: 13,6222           00000 00000                     2DEC     0          B-28
000205:
000206: 13,6224           34430                           DEC      14616      B-14                       #  4.5 RESTART  (DT = 146.16 SEC
000207: 13,6225           65231                           CADR     FDAOFTSK                              #     (310 - 163.84 SEC.)
000208: 13,6226           00000 00000                     2DEC     0          B-28
000209:
000210: 13,6230           77777                           OCT      77777                                 #  4.6 RESTART
000211: 13,6231           01556                           CADR     TCOAST                                #  TCOAST = TIME FORM CUTOFF TO UPTASK.
000212: 13,6232           00000 00000                     2DEC     0          B-28
000213:
000214: 13,6234           00000                           OCT      0                                     #  4.7 RESTART
000215: 13,6235           00000                           OCT      0
000216: 13,6236           77777                           OCT      77777
000217: 13,6237           67122                           CADR     UPTASK
000218:
000219: 13,6240           03410                           DEC      1800       B-14                       #  4.8 RESTART
000220: 13,6241           67203                           CADR     PLUSX1
000221: 13,6242           06000                           OCT      06000
000222: 13,6243           67144                           CADR     UPJOB
000223:
000224: 13,6244           03410                           DEC      1800       B-14                       #  4.9 RESTART
000225: 13,6245           67203                           CADR     PLUSX1
000226: 13,6246           06000                           OCT      06000
000227: 13,6247           67202                           CADR     REDO4.9
000228:
000229: 13,6250           01130                           DEC      600        B-14                       #  4.10 RESTART
000230: 13,6251           64561                           CADR     GIMPOWON
000231: 13,6252           77777                           OCT      77777
000232: 13,6253           65066                           CADR     REDO4.10
000233:
000234: 13,6254           00310                           DEC      200        B-14                       #  4.11 RESTART.
000235: 13,6255           64056                           CADR     TARGTASK
000236: 13,6256           00000 00000                     2DEC     0          B-28
000237:
000238: 13,6260           00252                           DEC      170        B-14                       #  4.12 RESTART.
000239: 13,6261           64443                           CADR     ABRTWAIT                              #   IN 1.7 SEC.
000240: 13,6262           25000                           OCT      25000
000241: 13,6263           64432                           CADR     SETS4SEP
000242:
000243: 13,6264           02304                           DEC      1220       B-14                       #  4.13 RESTART
000244: 13,6265           64577                           CADR     ATTCNOFF                              #  IN 12.2 SEC.
000245: 13,6266           00000 00000                     2DEC     0          B-28
000246:
000247: 13,6270           01130        4.14SPOT           DEC      600        B-14                       #  4.14 RESTART.
000248: 13,6271           64561                           CADR     GIMPOWON
000249: 13,6272           77777                           OCT      77777
000250: 13,6273           65103                           CADR     REDO4.14
000251:
000252: 13,6274           00372                           DEC      250        B-14                       #  4.15 RESTART.
000253: 13,6275           64577                           CADR     ATTCNOFF                              #  IN 2.5 SEC
000254: 13,6276           25000                           OCT      25000
000255: 13,6277           64541                           CADR     ABORTRPT   -3                         #   WATCH THIS LOC.
000256:
000257: 13,6300           00372                           DEC      250        B-14                       #  4.16 RESTART
000258: 13,6301           64577                           CADR     ATTCNOFF
000259: 13,6302           25000                           OCT      25000
000260: 13,6303           64505                           CADR     REDO4.16
000261:
000262:
000263: 13,6304           10770                           DEC      4600       B-14                       #  4.17 RESTART
000264: 13,6305           64561                           CADR     GIMPOWON
000265: 13,6306           00000 00000                     2DEC     0          B-28
000266:
000267: 13,6310           00000 00000                     2DEC     0          B-28                       #  4.18 RESTART.
000268: 13,6312           77777                           OCT      77777
000269: 13,6313           64577                           CADR     ATTCNOFF
000270:
000271: 13,6314           00031                           DEC      25         B-14                       #  4.19 RESTART.
000272: 13,6315           64615                           CADR     DVMODEON
000273: 13,6316           00000 00000                     2DEC     0          B-28
000274:
000275: 13,6320           00062                           DEC      50         B-14                       #  4.20 RESTART.
000276: 13,6321           64632                           CADR     ENGINEON
000277: 13,6322           00000 00000                     2DEC     0          B-28
000278:
000279: 13,6324           03016        4.21SPOT           DEC      1550       B-14                       #  4.21 RESTART
000280: 13,6325           64740                           CADR     PLUSXOFF
000281: 13,6326           77777                           OCT      77777
000282: 13,6327           64731                           CADR     REDO4.22
000283:
000284: 13,6330           00000 00000                     2DEC     0          B-28                       #  4.22 RESTART.
000285: 13,6332           77777                           OCT      77777
000286: 13,6333           64731                           CADR     REDO4.22
000287:
000288: 13,6334           00536                           DEC      350        B-14                       #  4.23 RESTART
000289: 13,6335           64755                           CADR     ENGINOFF
000290: 13,6336           77777                           OCT      77777
000291: 13,6337           64710                           CADR     STEEROFF
000292:
000293: 13,6340           00000 00000                     2DEC     0          B-28                       #  4.24 RESTART.
000294: 13,6342           77777                           OCT      77777
000295: 13,6343           64561                           CADR     GIMPOWON
000296:
000297: 13,6344           00536                           DEC      350        B-14                       #  4.25 RESTART
000298: 13,6345           64577                           CADR     ATTCNOFF
000299: 13,6346           00000 00000                     2DEC     0          B-28
000300:
000301: 13,6350           00000 00000  4.26SPOT           2DEC     0          B-28                       #  4.26 RESTSRT.
000302: 13,6352           12000                           OCT      12000                                 #  LOWERED.
000303: 13,6353           57543                           CADR     UPTHETA1
000304:
000305: 13,6354           03720        4.27SPOT           DEC      2000       B-14                       #  4.27 RESTART
000306: 13,6355           65254                           CADR     PLUSX2
000307: 13,6356           00000 00000                     2DEC     0          B-28
000308:
000309:
000310: 13,6360           00000 00000  4.28SPOT           2DEC     0          B-28                       #  4.28 RESTART SAVES ENGIN OFF SEQUENCE
000311: 13,6362           77777                           OCT      77777                                 #  WHILE TBASE4 UPDATED
000312: 13,6363           65015                           CADR     SPS1TEST
000313:
000314:                                                                                                  #   ANY MORE GROUP 4 RESTART VALUES SHOULD GO HERE.
000315:
000316: 13,6364           00310        5.1SPOT            DEC      200        B-14                       #  5.1 RESTART
000317: 13,6365           65420                           CADR     REREADAC
000318: 13,6366           00000 00000                     2DEC     0          B-28
000319:
000320: 13,6370           00000 00000  5.2SPOT            2DEC     0          B-28
000321: 13,6372           77777                           OCT      77777
000322: 13,6373           65351                           CADR     REDO5.2
000323:
000324: 13,6374           00310                           DEC      200        B-14                       #  5.3 RESTART
000325: 13,6375           65420                           CADR     REREADAC
000326: 13,6376           17000                           OCT      17000
000327: 13,6377           65455                           CADR     REDO5.3
000328:
000329: 13,6400           00310                           DEC      200        B-14                       #  5.4 RESTART
000330: 13,6401           65420                           CADR     REREADAC
000331: 13,6402           17000                           OCT      17000
000332: 13,6403           61607                           CADR     REFAZE6
000333:
000334:
000335: 13,6404           00310                           DEC      200        B-14                       #  5.5 RESTART.
000336: 13,6405           65420                           CADR     REREADAC
000337: 13,6406           17000                           OCT      17000
000338: 13,6407           66014                           CADR     REDO5.5
000339:
000340: 13,6410           00310                           DEC      200        B-14                       #  5.6 RESTART
000341: 13,6411           65420                           CADR     REREADAC
000342: 13,6412           35000                           OCT      35000
000343: 13,6413           65310                           CADR     MODE32
000344:
000345: 13,6414           00000 00000  5.7SPOT            2DEC     0          B-28                       #  5.7 RESTART
000346: 13,6416           77777                           OCT      77777
000347: 13,6417           66704                           CADR     REDO5.7
000348:
000349: 13,6420           00310                           DEC      200        B-14                       #  5.8 RESTART
000350: 13,6421           66674                           CADR     VERTASK1
000351: 13,6422           14000                           OCT      14000
000352: 13,6423           66721                           CADR     VERTIJOB
000353:
000354: 13,6424           00310                           DEC      200        B-14                       #  5.9 RESTART.
000355: 13,6425           66674                           CADR     VERTASK1
000356: 13,6426           13000                           OCT      13000
000357: 13,6427           61607                           CADR     REFAZE6
000358:
000359: 13,6430           00000 00000                     2DEC     0          B-28                       #  5.10 RESTART.
000360: 13,6432           12000                           OCT      12000
000361: 13,6433           67012                           CADR     REDO5.10
000362:
000363: 13,6434           00310                           DEC      200        B-14                       #  5.11 RESTART
000364: 13,6435           66674                           CADR     VERTASK1
000365: 13,6436           00000 00000                     2DEC     0          B-28
000366:
000367: 13,6440           00310        5.12SPOT           DEC      200        B-14                       #  5.12 RESTART.
000368: 13,6441           56001                           CADR     REPIPUP
000369: 13,6442           00000 00000                     2DEC     0          B-28
000370:
000371: 13,6444           00000 00000                     2DEC     0          B-28                       #  5.13 RESTART.
000372: 13,6446           77777                           OCT      77777
000373: 13,6447           56011                           CADR     REDO5.13
000374:
000375: 13,6450           00310                           DEC      200        B-14
000376: 13,6451           56001                           CADR     REPIPUP
000377: 13,6452           17000                           OCT      17000
000378: 13,6453           56036                           CADR     ENTRYTOP   +3
000379:
000380: 13,6454           00310                           DEC      200        B-14                       #  5.15 RESTART.
000381: 13,6455           56001                           CADR     REPIPUP
000382: 13,6456           17000                           OCT      17000
000383: 13,6457           56054                           CADR     REFAZE4
000384:
000385: 13,6460           00310                           DEC      200        B-14                       #  5.16
000386: 13,6461           56001                           CADR     REPIPUP
000387: 13,6462           16000                           OCT      16000
000388: 13,6463           61607                           CADR     REFAZE6
000389:
000390: 13,6464           00310                           DEC      200        B-14                       #  5.17 RESTART.
000391: 13,6465           56001                           CADR     REPIPUP
000392: 13,6466           17000                           OCT      17000
000393: 13,6467           56061                           CADR     REFAZE8
000394:
000395: 13,6470           00310        5.18SPOT           DEC      200        B-14                       #  5.18 RESTART
000396: 13,6471           56001                           CADR     REPIPUP
000397: 13,6472           17000                           OCT      17000
000398: 13,6473           56176                           CADR     REFAZE10
000399:
000400: 13,6474           00310        5.19SPOT           DEC      200        B-14                       #  5.19 RESTART.  (PIPUP IN 2 SEC.)
000401: 13,6475           56001                           CADR     REPIPUP
000402: 13,6476           17000                           OCT      17000
000403: 13,6477           61435                           CADR     NUMODE63                              #  SETS MODE 63 AND FINISHES ENTRY INITIAL.
000404:
000405: 13,6500           00000 00000  5.20SPOT           2DEC     0.0                                   #  5.20 RESTART FOR VERB 76
000406: 13,6502           34000                           OCT      34000
000407: 13,6503           13222                           CADR     REDO5.20
000408:
000409: 13,6504           00000        5.21SPOT           DEC      0.                                    #  5.21 RESTART IS SPARE
000410: 13,6505           26505                           CADR     26505
000411: 13,6506           00000                           OCT      0
000412: 13,6507           26507                           CADR     26507
000413:
000414: 13,6510           00000        5.22SPOT           DEC      0.                                    #  5.22 RESTART IS SPARE
000415: 13,6511           26511                           CADR     26511
000416: 13,6512           00000                           OCT      0
000417: 13,6513           26513                           CADR     26513
000418:
000419: 13,6514           00310        5.23SPOT           DEC      200        B-14                       #  5.23 RESTART
000420: 13,6515           65420                           CADR     REREADAC
000421: 13,6516           17000                           OCT      17000
000422: 13,6517           65624                           CADR     REDO5.23
000423:
000424:                                                                                                  #        ANY MORE GROUP 5 RESTARTS GO HERE.
000425:
000426:
000427: 13,6520           00000        6.1SPOT            DEC      0          B-14                       #  6.1 RESTART  (UNDEFINED)
000428:
000429:
000430:
000431:
000432:                                                                                                  #    ANY MORE GROUP 6 RESTART VALUES SHOULD GO HERE.
000433:
000434:
000435:
000436:
000437: 13,6521           00000        SIZETAB            DEC      0          B-14                       #  0 INCREMENT FOR GROUP 1.
000438: 13,6522           00000                           TC       2.1SPOT    -26004                     #  INCREMENT TO INDEX GROUP 2 TABLE
000439: 13,6523           00024                           TC       3.1SPOT    -26004                     #  INCREMENT TO INDEX GROUP 3
000440: 13,6524           00200                           TC       4.1SPOT    -26004                     #  INCREMENT TO INDEX GROUP 4 TABLE.
000441: 13,6525           00360                           TC       5.1SPOT    -26004                     #  INCREMENT TO INDEX GROUP 5 TABLE.
000442: 13,6526           00514                           TC       6.1SPOT    -26004                     #  INCREMENT TO INDEX GROUP 6 TABLE.
000443:
000444:
000445:                                                                                                  #    GENERALIZED RESTART ROUTINE.
000446:
000447:
000448:
000449:                                                                                                  #  FOR EACH FAZEBIT VALUE , THE ASUMPTION IS MADE THAT THERE MAY EXIST
000450:                                                                                                  #   ONE WAITLIST OR LONGCALL TASK TO BE RECALLED.  AND ONE CURRENT TASK OR
000451:                                                                                                  #   JOB TO BE RESTARTED.  (SPECIAL RESTARTS ARE POSSIBLE FOR SITUATIONS
000452:                                                                                                  #   WHICH DONOT FIT THE GENERAL FORM.)  FOR THE GENERAL CASE,  FOUR TABLES
000453:                                                                                                  #   ARE USED.
000454:                                                                                                  #        (RATHER,  ONE TABLE WITH 4 ENTRIES PER FAZEBIT VALUE.)
000455:                                                                                                  #                1.  WTDTTAB.  WAITLIST DT TABLE.
000456:                                                                                                  #                2.  WCADRTAB  WAITLIST CADR TABLE.
000457:                                                                                                  #                3.  PRIOTAB  CURRENT JOB PRIORITY. (NEG NUMB IF TASK.)
000458:                                                                                                  #                4.  CADRTAB  CURRENT JOB (OR TASK) RESTART LOCATION.
000459:                                                                                                  #   IN ADDITION, THERE EXISTS A SIZE TABLE THAT LISTS THE NUMBER OF
000460:                                                                                                  #   LOCATIONS USED BY EACH PROFRAM FOR RESTARTS.
000461:                                                                                                  #                ...MORE TO COME LATER...                (DJL)
000462:
000463:
000464:
000465: 13,6527           30115        RESTARTS           XCH      MPAC                                  #  FAZE BITS FOR THIS PROG IN MPAC.
000466: 13,6530           60000                           DOUBLE
000467: 13,6531           60000                           DOUBLE                                         #  MULTILY BY 4.  (4 ITEMS PER ENTRY.)
000468: 13,6532           20573                           INDEX    PROG                                  #  PROG CONTAINS THE PROGRAM NUMBER.
000469: 13,6533           66520                           AD       SIZETAB    -1
000470: 13,6534           50115                           TS       POINTER
000471: 13,6535           36553                           CAF      TCURRENT
000472: 13,6536           50123                           TS       GOLOC      +1                         #  EXIT LOCATION.
000473: 13,6537           33232                           CAF      TCWAIT                                #  SET A WAITLIST CALL IN ERASABLE.
000474: 13,6540           50121                           TS       GOLOC      -1
000475:
000476: 13,6541           20115                           INDEX    POINTER
000477: 13,6542           36000                           CAF      WTDTTAB
000478: 13,6543           10000                           CCS      A
000479: 13,6544           06602                           TC       WTCALL                                #  +N = WAITLIST CALL
000480: 13,6545           06642                           TC       CURNTJOB                              #  +0 = NO CALL
000481: 13,6546           06557                           TC       LONGCLER                              #  -N = LONGCALL
000482: 13,6547           20115                           INDEX    POINTER                               #  -0 = INDIRECT (PROBABLY)
000483: 13,6550           36001                           CAF      WCADRTAB
000484: 13,6551           10000                           CCS      A
000485: 13,6552           06571                           TC       INDIRECT
000486: 13,6553           06642        TCURRENT           TC       CURNTJOB                              #  NO ZERO CALLS
000487: 13,6554           06556                           TC       LONGCLER   -1                         #  NEG OF TIME FOR SHORT LONG.
000488: 13,6555           06630                           TC       SINDIR
000489:
000490: 13,6556           44516                           CS       ONE
000491: 13,6557           64516        LONGCLER           AD       ONE                                   #  RESTORE LONGTIME
000492: 13,6560           50116                           TS       RECALL
000493: 13,6561           20115                           INDEX    POINTER
000494: 13,6562           46001                           CS       WCADRTAB                              #  STORED NEGATIVELY.
000495: 13,6563           50117                           TS       RECALL     +1
000496: 13,6564           05742                           TC       IBNKCALL
000497: 13,6565           26670                           CADR     NULONGDT
000498: 13,6566           05742                           TC       IBNKCALL
000499: 13,6567           10552                           CADR     LONGCALL
000500: 13,6570           06642                           TC       CURNTJOB
000501:
000502:
000503:
000504:                                                                                                  #
000505:
000506:
000507:
000508:                                                                                                  #   INDIRECT SECTION TAKES THE DP TIME FRON THE ERASABLE LOCATIONS BY THE
000509:                                                                                                  #      NUMBER IN THE WCADRTAB.    (WTDTTAB = -0.)
000510:
000511: 13,6571           50117        INDIRECT           TS       ECADTEM                               #  CADR-1 IS STORED.  (DUE TO CCS.)
000512: 13,6572           20000                           INDEX    A
000513: 13,6573           40001                           CS       1                                     #  (1 NOT 0 BECAUSE CADR OFF BY 1.)
000514: 13,6574           40000                           COM                                            #  (NOT NEEDED IF NEG TIME STROED.USAGE..)
000515: 13,6575           50116                           TS       RECALL                                #  AND STORE MAJOR PART.
000516: 13,6576           20117                           INDEX    ECADTEM
000517: 13,6577           40002                           CS       2                                     #  AGAIN ONE MORE THAN USUAL.
000518: 13,6600           40000                           COM
000519: 13,6601           06563                           TC       LONGCLER   +4                         #  STORE MINOR PART THERE
000520:
000521:
000522:
000523:                                                                                                  #  ASSIGNMENTS ETC.
000524:
000525: 13,6602     0122               GOLOC              EQUALS   OVFIND                                #  USES ONE LOCATION ON EACH SIDE OF IT.
000526: 13,6602     0117               TEMDT              EQUALS   MPAC       +2
000527: 13,6602     0116               RECALL             EQUALS   MPAC       +1                         #  MUNTZ NOW USINF LOC IN RESTART CONTROL.
000528: 13,6602     0117               ECADTEM            EQUALS   RECALL     +1                         #  LOOKS OK.
000529: 13,6602     0115               POINTER            EQUALS   MPAC
000530:                                                                                                  #    MPAC + 1 SAVED BECAUSE OF USE IN RESTART CONTROL.  (CCS MPAC + 1)
000531:
000532:                                                                                                  #     THIS ROUTINE LEAVES THE WITLIST CALL AS GIVEN BY WCADRTAB.
000533:
000534: 13,6602           64516        WTCALL             AD       ONE                                   #  DT-1 IN A ON ENTRY.  (FROM CCS.)
000535: 13,6603           40000                           COM                                            #  STORE NEGATIVE OF DT IN TEMDT.
000536: 13,6604           50117                           TS       TEMDT
000537: 13,6605           20115                           INDEX    POINTER
000538: 13,6606           36001                           CAF      WCADRTAB                              #  PICK UP CADR FOR THIS CALL.
000539: 13,6607           50122                           TS       GOLOC                                 #  GOLOC+1 AND -1 ALREADY SET-UP.
000540:
000541: 13,6610           20573        WTCALL2            INDEX    PROG                                  #  FIRST GET TBASE - TIME1
000542: 13,6611           40662                           CS       TBASE2     -2                         #  TBASE STORED NEGATIVELY
000543: 13,6612           25777                           EXTEND
000544: 13,6613           60036                           SU       TIME1                                 #  TBASE - TIME1
000545: 13,6614           10000                           CCS      A                                     #  THIS SHOULD BE NEGATIVE IF ALL OK.
000546: 13,6615           40000                           COM                                            #  GET POSMAX - A.
000547: 13,6616           66627                           AD       OCT37776                              #  1 BIT SHY OF POSMAX.
000548: 13,6617           64516                           AD       ONE                                   #  RESTORE BIT LOST BY CCS.
000549: 13,6620           60117                           AD       TEMDT                                 #  TIME1 - TBASE -DT  NOW IN A.
000550: 13,6621           10000                           CCS      A                                     #  TEST IT.  SHOULD BE NEGATIVE.
000551: 13,6622           35501                           CAF      ZERO                                  #  EXCEEDED TIME.  BAD,BAD...
000552: 13,6623           06625                           TC       +2                                    #  (+0 JUST POSSIBLE.)
000553: 13,6624           06625                           TC       +1                                    #  YES, EVERYTHING OK.
000554: 13,6625           64516                           AD       ONE                                   #  NOW IS THE TIME.
000555: 13,6626           00121                           TC       GOLOC      -1
000556:
000557:
000558:
000559: 13,6627           37776        OCT37776           OCT      37776                                 #  POSMAX - 1
000560:
000561:
000562:
000563: 13,6630           36653        SINDIR             CAF      TCSWRET
000564: 13,6631           50123                           TS       GOLOC      +1
000565: 13,6632           20115                           INDEX    POINTER
000566: 13,6633           36003                           CAF      CADRTAB                               #  PICK UP CADR TO GO TO.
000567: 13,6634           50122                           TS       GOLOC
000568:
000569: 13,6635           20115                           INDEX    POINTER
000570: 13,6636           26002                           INDEX    PRIOTAB                               #  IT POINTS ATTHE ERASABLE LOCATION OF DT
000571: 13,6637           40000                           CS       0                                     #  NEG OF DT IN A.
000572: 13,6640           50117                           TS       TEMDT
000573: 13,6641           06610                           TC       WTCALL2                               #  JOIN THERE TO RECOMPUTE TIME REMAINING.
000574:
000575:
000576:                                                                                                  #   GETS CURRENT JOB (OR TASK) RERUNNING.
000577:
000578: 13,6642           20115        CURNTJOB           INDEX    POINTER
000579: 13,6643           36003                           CAF      CADRTAB
000580: 13,6644           50122                           TS       GOLOC                                 #  PUT ADDRESS THERE (CADR)
000581: 13,6645           36653                           CAF      TCSWRET
000582: 13,6646           50123                           TS       GOLOC      +1                         #  WHERE TO WHEN DONE.
000583: 13,6647           20115                           INDEX    POINTER
000584: 13,6650           36002                           CAF      PRIOTAB                               #  PRIORITY TABLE.
000585: 13,6651           10000                           CCS      A                                     #  TEST IT.
000586: 13,6652           06657                           TC       ITSAPRIO                              #  +N = PRIORITY.
000587: 13,6653           05702        TCSWRET            TC       SWRETURN                              #  +0 = NO JOB OR TASK.
000588: 13,6654           06664                           TC       SHINDIRT                              #  -N = SHORT INDIRECT FORM.
000589: 13,6655           64516                           AD       ONE                                   #  -0 = IMMEDIATE WAITLIST CALL.
000590: 13,6656           00121                           TC       GOLOC      -1                         #  -0 WILL CRASH OUT HERE...
000591:
000592: 13,6657           64516        ITSAPRIO           AD       ONE                                   #  RESTORE CORRECT PRIORITY VALUE.
000593: 13,6660           50121                           TS       GOLOC      -1                         #  SAVE THERE TEMPORARILY.
000594: 13,6661           33234                           CAF      TCFINDVC                              #  N3 RPOVISION FOR NOVAC.
000595: 13,6662           30121                           XCH      GOLOC      -1                         #  PICKING UP PRIORITY AGAIN.
000596: 13,6663           00121                           TC       GOLOC      -1                         #  AND GET THE JOB STARTED. (EXIT VIA SWRET
000597:
000598:
000599:
000600:                                                                                                  #    SHORT INDIRECT SECTION IS NOT USED AS YET.
000601:
000602: 13,6664           20000        SHINDIRT           INDEX    A
000603: 13,6665           40001                           CS       1                                     #  CCS DECREASED ADDRESS BY 1 OF DT LOC.
000604: 13,6666           50117                           TS       TEMDT
000605: 13,6667           06610                           TC       WTCALL2                               #  -DT IN A WHEN REJOINING WTCALL.
000606:
000607:
000608:
000609:                                                                                                  #   TBASE REGISTERS CONTAIN NEGATIVE OF TIME AT START OF SEQUENCE.
000610:
000611:                                                                                                  #   ROUTINE TO GENERATE  NEW DELTA T (LONGTIME) FOR LONGCALL.
000612:
000613: 13,6670           02700        NULONGDT           TC       READTIME   +1                         #  GET TIME.  (ALREADY INHIBITTED.)
000614: 13,6671           35501                           CAF      ZERO
000615: 13,6672           61463                           AD       TCUTOFF    +1                         #   (POSITIVE NUMBER)
000616: 13,6673           60573                           AD       RUPTSTOR   +1                         #  (NEGATIVE NUMBER)
000617: 13,6674           60117                           AD       RECALL     +1
000618: 13,6675           51461                           TS       LONGTIME   +1                         #  (COULD OVERFLOW)
000619: 13,6676           35501                           CAF      ZERO
000620: 13,6677           61462                           AD       TCUTOFF
000621: 13,6700           60572                           AD       RUPTSTOR
000622: 13,6701           60116                           AD       RECALL
000623: 13,6702           31460                           XCH      LONGTIME                              #  NO OVERFLOW.
000624: 13,6703           11460                           CCS      LONGTIME                              #  TEST FOR POSITIVE DT.
000625: 13,6704           05761                           TC       ISWRETRN                              #  (DONT HAVE TO USE ICALLS IF SAME BANK.)
000626: 13,6705           06707                           TC       +2
000627: 13,6706           06712                           TC       BADLONG
000628: 13,6707           11461                           CCS      LONGTIME   +1
000629: 13,6710           05761                           TC       ISWRETRN
000630: 13,6711           06712                           TC       +1
000631: 13,6712           35501        BADLONG            CAF      ZERO
000632: 13,6713           51460                           TS       LONGTIME
000633: 13,6714           34516                           CAF      ONE                                   #  LEAVE A CALL FOR 1 DT.
000634: 13,6715           51461                           TS       LONGTIME   +1
000635: 13,6716           05761                           TC       ISWRETRN                              #  ...AND EXIT.
000636:                                                                                                  #     THIS COULD BE MODIFIED EASILY TO CHANGE BAD DT POLICY.

End of include-file 202_RESTART_TABLES_AND_ROUTINES.agc.  Parent file is MAIN.agc


