
Source Code


000002:                                                                                                  ## Copyright:   Public domain.
000003:                                                                                                  ## Filename:    202_MISSION_CONTROL_PROGRAM.agc
000004:                                                                                                  ## Purpose:     A section of Corona revision 261.
000005:                                                                                                  ##              It is part of the source code for the Apollo Guidance Computer
000006:                                                                                                  ##              (AGC) for AS-202. No original listings of this software are
000007:                                                                                                  ##              available; instead, this file was created via disassembly of
000008:                                                                                                  ##              the core rope modules actually flown on the mission.
000009:                                                                                                  ## Assembler:   yaYUL
000010:                                                                                                  ## Contact:     Ron Burkey <info@sandroid.org>.
000011:                                                                                                  ## Website:     www.ibiblio.org/apollo/index.html
000012:                                                                                                  ## Mod history: 2023-05-27 MAS  Created from Solarium 55.
000013:                                                                                                  ##              2023-06-19 MAS  Updated for Corona.
000014:
000015:
000016: 32,6000                                           SETLOC   64000
000017: 32,6000           20017        LIFTOFF            INHINT
000018: 32,6001           02700                           TC       READTIME   +1                         #  SAVE TIME OF LIFTOFF
000019: 32,6002           40572                           CS       RUPTSTOR
000020: 32,6003           51462                           TS       TLIFTOFF
000021: 32,6004           40573                           CS       RUPTSTOR   +1
000022: 32,6005           51463                           TS       TLIFTOFF   +1
000023:
000024: 32,6006           41463                           CS       TLIFTOFF   +1
000025: 32,6007           50664                           TS       TBASE2
000026: 32,6010           50665                           TS       TBASE3
000027: 32,6011           50666                           TS       TBASE4
000028:
000029: 32,6012           34516                           CAF      ONE
000030: 32,6013           02312                           TC       NEWPHASE
000031: 32,6014           00002                           OCT      00002
000032:
000033: 32,6015           10000                           CCS      A
000034: 32,6016           06025                           TC       LIFTOFF1
000035: 32,6017           06025                           TC       LIFTOFF1
000036:
000037: 32,6020           20017                           INHINT
000038: 32,6021           41563                           CS       TROLL      +1
000039: 32,6022           40000                           COM
000040: 32,6023           02173                           TC       WAITLIST
000041: 32,6024           64134                           CADR     MONITSK1
000042:
000043: 32,6025           34516        LIFTOFF1           CAF      ONE
000044: 32,6026           02312                           TC       NEWPHASE
000045: 32,6027           00003                           OCT      00003
000046:
000047: 32,6030           74335                           MASK     NEG1
000048: 32,6031           10000                           CCS      A
000049: 32,6032           06034                           TC       +2
000050: 32,6033           06041                           TC       CALL4.11
000051:
000052: 32,6034           20017                           INHINT
000053: 32,6035           41565                           CS       TPITCH     +1
000054: 32,6036           40000                           COM
000055: 32,6037           02173                           TC       WAITLIST
000056: 32,6040           64170                           CADR     MONITASK
000057:
000058: 32,6041           33517        CALL4.11           CAF      ELEVEN
000059: 32,6042           02312                           TC       NEWPHASE
000060: 32,6043           00004                           OCT      00004
000061:
000062: 32,6044           10000                           CCS      A
000063: 32,6045           06053                           TC       SETLIFT
000064: 32,6046           06053                           TC       SETLIFT
000065:
000066: 32,6047           20017                           INHINT
000067: 32,6050           37642                           CAF      2SEC                                  #  ALLOW 2 SECS FOR BACK-UP GRR COMPUTATION
000068: 32,6051           02173                           TC       WAITLIST
000069: 32,6052           64056                           CADR     TARGTASK
000070:
000071: 32,6053           03424        SETLIFT            TC       FLAG1UP
000072: 32,6054           00002                           OCT      00002
000073:
000074: 32,6055           03157                           TC       JAMTERM                               #  FLUSH V75 GRR BACKUP.
000075:
000076: 32,6056           32146        TARGTASK           CAF      PRIO12
000077: 32,6057           02046                           TC       FINDVAC
000078: 32,6060           64062                           CADR     TARGJOB
000079:
000080: 32,6061           02256                           TC       TASKOVER
000081:
000082: 32,6062           05654        TARGJOB            TC       BANKCALL                              #  COMMAND IMUCDU TO ATT. CONTROL MODE
000083: 32,6063           30223                           CADR     IMUATTC
000084:
000085: 32,6064           03502                           TC       SETHETAD                              #  FORCE THETAD,+1,+2 TO EQUAL CDUX,Y,Z
000086:
000087: 32,6065           04000                           TC       INTPRET
000088:
000089: 32,6066           66776                           DSU      0                                     #  TARGET VECTORS INITIALLY REFERENCED TO
000090: 32,6067           01463                                    TLIFTOFF                              #  GRR. WILL NOW UPDATE THEM TO LIFT-OFF
000091: 32,6070           01467                                    TIME2GR
000092: 32,6071           33145                           STORE    DTEAROT
000093:
000094: 32,6072           70776                           DAD      0
000095: 32,6073           01463                                    TLIFTOFF
000096: 32,6074           01630                                    TPACIF1
000097: 32,6075           33537                           STORE    TPACIFC
000098:
000099: 32,6076           70776                           DAD      0
000100: 32,6077           01463                                    TLIFTOFF
000101: 32,6100           01620                                    TATLAN1
000102: 32,6101           33527                           STORE    TATLANT
000103: 32,6102           75176                           VMOVE    0
000104: 32,6103           01632                                    RTPACIF1
000105: 32,6104           33115                           STORE    RTINIT
000106:
000107: 32,6105           76776                           ITC      0
000108: 32,6106           13541                                    EARROT1
000109:
000110: 32,6107           47576                           NOLOD    0
000111: 32,6110           33541                           STORE    RTPACIFC
000112:
000113: 32,6111           75176                           VMOVE    0
000114: 32,6112           01622                                    RTATLAN1
000115: 32,6113           33115                           STORE    RTINIT
000116:
000117: 32,6114           76776                           ITC      0
000118: 32,6115           13541                                    EARROT1
000119:
000120: 32,6116           47576                           NOLOD    0
000121: 32,6117           33531                           STORE    RTATLANT
000122:
000123: 32,6120           77576                           EXIT     0
000124:
000125: 32,6121           05654        TARGET             TC       BANKCALL                              #  WAIT FOR COMPLETION OF MODE SWITCH
000126: 32,6122           30331                           CADR     IMUSTALL
000127: 32,6123           03074                           TC       CURTAINS                              #  TRAP IF INCOMPLETE
000128:
000129: 32,6124           02362                           TC       NEWMODE                               #  SET MAJOR MODE TO BOOST ATTITUDE MONITOR
000130: 32,6125           00011                           OCT      00011
000131:
000132: 32,6126           03424                           TC       FLAG1UP                               #  SET MONIT FLAG
000133: 32,6127           00040        MONITMSK           OCT      00040
000134:
000135: 32,6130           44516                           CS       ONE
000136: 32,6131           02312                           TC       NEWPHASE
000137: 32,6132           00004                           OCT      00004
000138:
000139: 32,6133           02124                           TC       ENDOFJOB
000140:
000141:
000142: 32,6134           11561        MONITSK1           CCS      TENDROLL
000143: 32,6135           06137                           TC       +2
000144: 32,6136           06147                           TC       ENDROLL
000145: 32,6137           51561                           TS       TENDROLL
000146:
000147: 32,6140           32156                           CAF      PRIO23
000148: 32,6141           02046                           TC       FINDVAC
000149: 32,6142           64160                           CADR     DOROLL
000150:
000151: 32,6143           36157                           CAF      0.5SEC32
000152: 32,6144           02173                           TC       WAITLIST
000153: 32,6145           64134                           CADR     MONITSK1
000154:
000155: 32,6146           02256                           TC       TASKOVER
000156:
000157: 32,6147           34500        ENDROLL            CAF      NEGSIGN
000158: 32,6150           50700                           TS       THETAD
000159: 32,6151           35501                           CAF      ZERO
000160: 32,6152           50702                           TS       THETAD     +2
000161:
000162: 32,6153           44516                           CS       ONE
000163: 32,6154           02312                           TC       NEWPHASE
000164: 32,6155           00002                           OCT      00002
000165:
000166: 32,6156           02256                           TC       TASKOVER
000167:
000168: 32,6157           00062        0.5SEC32           DEC      50         B-14
000169:
000170: 32,6160           04000        DOROLL             TC       INTPRET
000171:
000172: 32,6161           75775                           VXSC     1
000173: 32,6162           76776                           ITC
000174: 32,6163           15573                                    UNITX
000175: 32,6164           01615                                    ROLLDTH
000176: 32,6165           12373                                    CDUDRIVE
000177:
000178: 32,6166           77576                           EXIT     0
000179:
000180: 32,6167           02124                           TC       ENDOFJOB
000181:
000182: 32,6170           33536        MONITASK           CAF      TWENTY6
000183: 32,6171           02312                           TC       NEWPHASE
000184: 32,6172           00003                           OCT      00003
000185:
000186: 32,6173           36127                           CAF      MONITMSK
000187: 32,6174           70646                           MASK     FLAGWRD1
000188: 32,6175           10000                           CCS      A
000189: 32,6176           06212                           TC       JUMP5
000190: 32,6177           51350                           TS       TENTRY
000191:
000192: 32,6200           41572                           CS       TTUMON                                #  CALL TUMBLE MONITOR IN TTUMON SECS
000193: 32,6201           40000                           COM
000194: 32,6202           02173                           TC       WAITLIST
000195: 32,6203           64263                           CADR     TUMBTSK1
000196:
000197: 32,6204           35503                           CAF      TWO
000198: 32,6205           02312                           TC       NEWPHASE
000199: 32,6206           00003                           OCT      00003
000200:
000201: 32,6207           40036                           CS       TIME1
000202: 32,6210           50665                           TS       TBASE3
000203:
000204: 32,6211           02256                           TC       TASKOVER
000205:
000206: 32,6212           32155        JUMP5              CAF      PRIO22
000207: 32,6213           02046                           TC       FINDVAC
000208: 32,6214           64226                           CADR     MONITJOB
000209:
000210: 32,6215           02700                           TC       READTIME   +1
000211: 32,6216           40572                           CS       RUPTSTOR
000212: 32,6217           51570                           TS       TMONITOR
000213: 32,6220           40573                           CS       RUPTSTOR   +1
000214: 32,6221           51571                           TS       TMONITOR   +1
000215:
000216: 32,6222           36157                           CAF      0.5SEC32
000217: 32,6223           02173                           TC       WAITLIST
000218: 32,6224           64170                           CADR     MONITASK
000219:
000220: 32,6225           02256                           TC       TASKOVER
000221:
000222: 32,6226           04000        MONITJOB           TC       INTPRET
000223:
000224: 32,6227           66775                           DSU      1                                     #  FORM TIME SINCE START OF MONITOR
000225: 32,6230           66771                           DSU      RTB
000226: 32,6231           01571                                    TMONITOR
000227: 32,6232           01463                                    TLIFTOFF
000228: 32,6233           01565                                    TPITCH
000229: 32,6234           20403                                    SGNAGREE
000230: 32,6235           33571                           STORE    TMONITOR
000231:
000232: 32,6236           43174                           SMOVE    2
000233: 32,6237           76516                           RTB      TSLT
000234: 32,6240           76575                           RTB      EXIT
000235: 32,6241           01572                                    TMONITOR   +1
000236: 32,6242           24261                                    POLYENT1
000237: 32,6243           00004                                    3
000238: 32,6244           20324                                    1STO2S
000239:
000240: 32,6245           30115                           XCH      MPAC
000241: 32,6246           50701                           TS       THETAD     +1
000242:
000243: 32,6247           04000                           TC       INTPRET
000244: 32,6250           66775                           DSU      1                                     #  TEST IF TIME TO STOP MONITOR
000245: 32,6251           73611                           BMN      SWITCH
000246: 32,6252           01571                                    TMONITOR
000247: 32,6253           01567                                    TENDPTCH                              #  IF IT IS, REMOVE MONIT FLAG
000248: 32,6254           24257                                    +2
000249: 32,6255           00033                                    MONITFLG
000250:
000251: 32,6256           77576                           EXIT     0
000252:
000253: 32,6257           02124                           TC       ENDOFJOB
000254:
000255: 32,6260           33520        POLYENT1           CAF      TWELVE                                #  RTB HERE PRIOR TO ENTERING ERASABLE FOR
000256: 32,6261           51574                           TS       POLYORDR                              #    POLYNOMIAL
000257: 32,6262           01573                           TC       POLYENTR
000258:
000259: 32,6263           33537        TUMBTSK1           CAF      TWENTY7
000260: 32,6264           02312                           TC       NEWPHASE
000261: 32,6265           00003                           OCT      3
000262:
000263: 32,6266           32155                           CAF      PRIO22
000264: 32,6267           02052                           TC       NOVAC
000265: 32,6270           64272                           CADR     TUMBJOB1
000266:
000267: 32,6271           06327                           TC       RESET1
000268:
000269:
000270:
000271: 32,6272           05654        TUMBJOB1           TC       BANKCALL                              #  SWITCH IMUCDU MODE TO FINE ALIGN
000272: 32,6273           30163                           CADR     IMUFINNW
000273:
000274: 32,6274           05654                           TC       BANKCALL                              #  WAIT FOR COMPLETION OF MODE SWITCH
000275: 32,6275           30331                           CADR     IMUSTALL
000276: 32,6276           03074                           TC       CURTAINS
000277:
000278: 32,6277           02362                           TC       NEWMODE                               #  SET MAJOR MODE TO TUMBLE MONITOR
000279: 32,6300           00014                           OCT      00014
000280:
000281: 32,6301           02124                           TC       ENDOFJOB
000282:
000283: 32,6302           32155        TUMBTASK           CAF      PRIO22
000284: 32,6303           02046                           TC       FINDVAC
000285: 32,6304           64340                           CADR     TUMBJOB
000286:
000287: 32,6305           34516                           CAF      BIT1                                  #  TEST IF TUMBLE FLAG SET
000288: 32,6306           70646                           MASK     FLAGWRD1
000289: 32,6307           10000                           CCS      A
000290: 32,6310           06327                           TC       RESET1                                #  IT IS. CONTINUE TO MONITOR
000291:
000292: 32,6311           40647                           CS       FLAGWRD2                              #  TEST IF BURN IS TUMBLE ARREST (I.E. HAS
000293: 32,6312           74516                           MASK     BIT1                                  #  CORRECTIVE ACTION STARTED)
000294: 32,6313           10000                           CCS      A
000295: 32,6314           06323                           TC       TUMTEST1                              #  IT HAS NOT
000296: 32,6315           40011                           CS       OUT1                                  #  IT HAS. TEST IF ENGINE ON YET. IF NOT,
000297: 32,6316           74502                           MASK     BIT13                                 #  WAIT BEFORE TURNING IT OFF AGAIN
000298: 32,6317           10000                           CCS      A
000299: 32,6320           06327                           TC       RESET1
000300:
000301: 32,6321           05720                           TC       POSTJUMP                              #  LEAP TO CUT SPS ENGINE
000302: 32,6322           64755                           CADR     ENGINOFF
000303:
000304: 32,6323           36337        TUMTEST1           CAF      NOTUMASK                              #  TEST IF NEXT BURN HAS BEEN SET
000305: 32,6324           70647                           MASK     FLAGWRD2
000306: 32,6325           10000                           CCS      A
000307: 32,6326           06333                           TC       TASK3OUT
000308:
000309: 32,6327           36744        RESET1             CAF      1SEC32                                #  RECALL IN 1 SEC
000310: 32,6330           02173                           TC       WAITLIST
000311: 32,6331           64302                           CADR     TUMBTASK
000312:
000313: 32,6332           02256                           TC       TASKOVER
000314:
000315: 32,6333           44516        TASK3OUT           CS       ONE
000316: 32,6334           02312                           TC       NEWPHASE
000317: 32,6335           00003                           OCT      00003
000318:
000319: 32,6336           02256                           TC       TASKOVER                              #  IT HAS. KILL TUMBLE MONITOR
000320:
000321: 32,6337           00016        NOTUMASK           OCT      00016                                 #  (OR OF SPS1, ABRT, TABT)
000322:
000323:
000324: 32,6340           36337        TUMBJOB            CAF      NOTUMASK                              #  SKIP THIS JOB IF NEXT BURN HAS BEEN SET
000325: 32,6341           70647                           MASK     FLAGWRD2
000326: 32,6342           10000                           CCS      A
000327: 32,6343           02124                           TC       ENDOFJOB
000328:
000329: 32,6344           02362                           TC       NEWMODE
000330: 32,6345           00014                           OCT      00014
000331:
000332: 32,6346           04000                           TC       INTPRET
000333:
000334: 32,6347           75176                           VMOVE    0                                     #  SAVE PRESENT CDUX,Y,Z
000335: 32,6350           01345                                    DUPCDU
000336: 32,6351           33323                           STORE    CDUBUF
000337:
000338: 32,6352           75575                           AXT,1    1                                     #  FORM DP CDUX,Y,Z
000339: 32,6353           76776                           ITC
000340: 32,6354           00007                                    6
000341: 32,6355           12001                                    CDUTRIG
000342:
000343: 32,6356           75176                           VMOVE    0                                     #  SAVE DUPLICATE CDUX,Y,Z
000344: 32,6357           01315                                    CDUTEMP                               #  SCALED AT 1 REV
000345: 32,6360           33345                           STORE    DUPCDU
000346:
000347: 32,6361           47575                           NOLOD    1
000348: 32,6362           74765                           VSU      AXT,1
000349: 32,6363           01323                                    CDUBUF
000350: 32,6364           00007                                    6
000351: 32,6365           33315                           STORE    CDUTEMP
000352:
000353: 32,6366           76776                           ITC      0                                     #  COMPUTE SIN OF CDUX,Y,Z
000354: 32,6367           12041                                    SINCOS                                #  DIFFERENCES AND PUT IN SINCDU,+2,+4
000355:
000356: 32,6370           71174                           ABVAL    2
000357: 32,6371           66756                           DSU      BMN
000358: 32,6372           77576                           EXIT
000359: 32,6373           01331                                    SINCDU
000360: 32,6374           24406                                    CRIT
000361: 32,6375           24402                                    NOTUMBLE
000362:
000363: 32,6376           03424                           TC       FLAG1UP                               #  SET TUMB FLAG
000364: 32,6377           00001                           OCT      00001
000365:
000366: 32,6400           02124                           TC       ENDOFJOB
000367:
000368: 32,6401           77576        NOTUMBLE           EXIT     0
000369: 32,6402           03436                           TC       FLAG1DWN                              #  REMOVE TUMBLE FLAG
000370: 32,6403           00001                           OCT      00001
000371:
000372: 32,6404           02124                           TC       ENDOFJOB
000373:
000374: 32,6405           00262 25271  CRIT               2DEC     0.010905                              #  SIN(5DEG/2) SCALED AT 2(+2)
000375:
000376:
000377: 32,6407           40036        S4BSMSEP           CS       TIME1                                 #  BRANCH HERE ON RECEIPT OF S4B/CSM SEP
000378: 32,6410           50666                           TS       TBASE4
000379:
000380:
000381: 32,6411           03401                           TC       RELAYON                               #  SET SCS +X TRANS, ATTITUDE CONTROL MODE,
000382: 32,6412           40221                           OCT      40221                                 #  GIMBAL MOT POWER DISCRETES (C27,23,30)
000383:
000384: 32,6413           34516                           CAF      BIT1                                  #  TEST IF TUMB FLAG SET
000385: 32,6414           70646                           MASK     FLAGWRD1
000386: 32,6415           10000                           CCS      A
000387: 32,6416           06527                           TC       SETUMB2
000388:
000389: 32,6417           03424                           TC       FLAG1UP                               #  SET INTP FLAG
000390: 32,6420           01000        INTPMASK           OCT      01000
000391:
000392: 32,6421           02276                           TC       PHASCHNG
000393: 32,6422           01404                           OCT      01404
000394:
000395: 32,6423           20017                           INHINT
000396: 32,6424           36556                           CAF      1.7SEC                                #  WAIT 1.7 SECS FOR RECEIPT OF ABORT SIG.
000397: 32,6425           02173                           TC       WAITLIST
000398: 32,6426           64443                           CADR     ABRTWAIT
000399:
000400: 32,6427           03310        TRYGRAB            TC       GRABDSP                               #  TRY TO GRAB DISPLAY
000401: 32,6430           06435                           TC       CLEANOUT                              #  ALREADY GRABBED. FLUSH OUT GRABBER
000402:
000403: 32,6431           03370                           TC       FREEDSP                               #  WE HAVE IT. AND LET IT GO
000404:
000405: 32,6432           03424        SETS4SEP           TC       FLAG1UP                               #  SET S4BSM FLAG
000406: 32,6433           00200                           OCT      00200
000407:
000408: 32,6434           02124                           TC       ENDOFJOB
000409:
000410: 32,6435           20017        CLEANOUT           INHINT
000411: 32,6436           32170                           CAF      PRIO35                                #  MAKE HIGH PRIO JOB TO FLUSH OUT PINBALL
000412: 32,6437           02052                           TC       NOVAC
000413: 32,6440           11134                           CADR     ENEMA
000414: 32,6441           20016                           RELINT
000415:
000416: 32,6442           06432                           TC       SETS4SEP
000417:
000418: 32,6443           32160        ABRTWAIT           CAF      PRIO25                                #  CONTINUE WITH SAME PRIORITY AS S4BSMSEP
000419: 32,6444           02052                           TC       NOVAC
000420: 32,6445           64447                           CADR     ABORTEST
000421: 32,6446           02256                           TC       TASKOVER
000422:
000423: 32,6447           34516        ABORTEST           CAF      ONE                                   #  SET VGCNTR FOR 2 PASSES THRU CALCVGB
000424: 32,6450           51446                           TS       VGCNTR
000425:
000426:
000427: 32,6451           36551                           CAF      ABRTMASK                              #  TEST IF ABORT SIGNAL RECEIVED
000428: 32,6452           70647                           MASK     FLAGWRD2
000429: 32,6453           10000                           CCS      A
000430: 32,6454           06476                           TC       SETABORT                              #  IT WAS. BRANCH TO ABORT
000431:
000432: 32,6455           20017                           INHINT
000433: 32,6456           36557                           CAF      10.5SEC
000434: 32,6457           02173                           TC       WAITLIST
000435: 32,6460           64577                           CADR     ATTCNOFF
000436: 32,6461           20016                           RELINT
000437:
000438: 32,6462           03470                           TC       SETBRNSW                              #  SET BURN TO SPS1
000439: 32,6463           00010        SPS1MASK           OCT      00010
000440:
000441: 32,6464           36475                           CAF      SPS1LOC                               #  SET LOCATION FOR NOMINAL SPS1 VR COMP
000442: 32,6465           51470                           TS       VRCADR
000443:
000444: 32,6466           03424                           TC       FLAG1UP
000445: 32,6467           00400                           OCT      00400
000446:
000447: 32,6470           02362                           TC       NEWMODE                               #  SET MAJOR MODE TO PRE-SPS1
000448: 32,6471           00031                           OCT      00031
000449:
000450: 32,6472           02276                           TC       PHASCHNG
000451: 32,6473           01504                           OCT      01504
000452:
000453: 32,6474           03157                           TC       JAMTERM                               #  FLUSH V75 S4BSMSEP BACKUP.
000454:
000455: 32,6475           52544        SPS1LOC            CADR     202SPS1
000456:
000457: 32,6476           02276        SETABORT           TC       PHASCHNG
000458: 32,6477           02004                           OCT      02004
000459:
000460: 32,6500           20017                           INHINT
000461: 32,6501           36560                           CAF      0.8SEC                                #  START ENGINE IN 1.5 SECS
000462: 32,6502           02173                           TC       WAITLIST
000463: 32,6503           64577                           CADR     ATTCNOFF
000464: 32,6504           20016                           RELINT
000465:
000466: 32,6505           05654        REDO4.16           TC       BANKCALL                              #  SET IMU TO ATT. CONTROL MODE
000467: 32,6506           30223                           CADR     IMUATTC
000468: 32,6507           03502                           TC       SETHETAD                              #  SET THETAD,+1,+2 TO AGREE WITH CDUX,Y,Z
000469:
000470: 32,6510           36526                           CAF      ABORTLOC                              #  SET LOCATION FOR ABORT VR COMPUTATIONS
000471: 32,6511           51470                           TS       VRCADR
000472:
000473: 32,6512           35503                           CAF      TWO                                   #  SET VGCNTR FOR THREE PASSES THROUGH
000474: 32,6513           51446                           TS       VGCNTR                                #  CALCVGB BEFORE ISSUING STEER COMMANDS
000475:
000476: 32,6514           37721                           CAF      35DEG                                 #  SET THRUST ANGLE TO 35 DEG ABOVE HORIZON
000477: 32,6515           51442                           TS       LOOKANG
000478:
000479: 32,6516           03424                           TC       FLAG1UP                               #  SET STEER FLAG FOR ABORT STEERING
000480: 32,6517           00010                           OCT      00010
000481:
000482: 32,6520           02362                           TC       NEWMODE                               #  SET MAJOR MODE TO ABORT BURN
000483: 32,6521           00073                           OCT      00073
000484:
000485: 32,6522           05654                           TC       BANKCALL                              #  WAIT FOR MODE SWITCH TO COMPLETE
000486: 32,6523           30331                           CADR     IMUSTALL
000487: 32,6524           03074                           TC       CURTAINS                              #  CATCH-ALL FOR FAILURE TO IMU MODE SWITCH
000488:
000489: 32,6525           03157                           TC       JAMTERM                               #  FLUSH OUT V75
000490:
000491: 32,6526           52631        ABORTLOC           CADR     202ABORT
000492:
000493: 32,6527           03470        SETUMB2            TC       SETBRNSW                              #  SET BURN TO TUMBLE ARREST
000494: 32,6530           00001        ARRSTMSK           OCT      00001
000495:
000496: 32,6531           33523                           CAF      FIFTN
000497: 32,6532           02312                           TC       NEWPHASE
000498: 32,6533           00004                           OCT      4
000499:
000500: 32,6534           20017                           INHINT
000501: 32,6535           36746                           CAF      2.5SEC                                #  START ENGINE AT 3.0 SECS AFTER SEP.
000502: 32,6536           02173                           TC       WAITLIST                              #  SEPARATION
000503: 32,6537           64577                           CADR     ATTCNOFF
000504: 32,6540           20016                           RELINT
000505:
000506: 32,6541           02362                           TC       NEWMODE                               #  SET MAJOR MODE TO TUMBLE ARREST BURN
000507: 32,6542           00074                           OCT      00074
000508:
000509: 32,6543           06427                           TC       TRYGRAB
000510:
000511: 32,6544           36555        ABORTRPT           CAF      UPBRTMSK                              #  COME HERE ON RECEIPT OF UPLINK ABORT
000512: 32,6545           70647                           MASK     FLAGWRD2
000513: 32,6546           10000                           CCS      A
000514: 32,6547           02124                           TC       ENDOFJOB
000515:
000516: 32,6550           03470                           TC       SETBRNSW                              #  SET BURN TO ABORT
000517: 32,6551           00002        ABRTMASK           OCT      00002
000518:
000519: 32,6552           03401                           TC       RELAYON                               #  SET SCS BACKUP ABORT DISCRETE (C33)
000520: 32,6553           42000                           OCT      42000
000521:
000522: 32,6554           02124                           TC       ENDOFJOB
000523: 32,6555           00011        UPBRTMSK           OCT      11
000524: 32,6556           00252        1.7SEC             DEC      170        B-14
000525: 32,6557           02032        10.5SEC            DEC      1050       B-14
000526: 32,6560           00120        0.8SEC             DEC      80         B-14
000527:
000528:
000529: 32,6561           03401        GIMPOWON           TC       RELAYON                               #  SET SCS GMP DISCRETE (C30)
000530: 32,6562           40200                           OCT      40200
000531:
000532: 32,6563           33534                           CAF      TWENTY4
000533: 32,6564           02312                           TC       NEWPHASE
000534: 32,6565           00004                           OCT      00004
000535:
000536: 32,6566           40036                           CS       TIME1
000537: 32,6567           50666                           TS       TBASE4
000538:
000539: 32,6570           33535                           CAF      TWENTY5
000540: 32,6571           02312                           TC       NEWPHASE
000541: 32,6572           00004                           OCT      00004
000542:
000543: 32,6573           36750                           CAF      3.5SEC
000544: 32,6574           02173                           TC       WAITLIST
000545: 32,6575           64577                           CADR     ATTCNOFF
000546:
000547: 32,6576           02256                           TC       TASKOVER
000548:
000549: 32,6577           33526        ATTCNOFF           CAF      EIGHTN
000550: 32,6600           02312                           TC       NEWPHASE
000551: 32,6601           00004                           OCT      00004
000552:
000553: 32,6602           40036                           CS       TIME1
000554: 32,6603           50666                           TS       TBASE4
000555:
000556: 32,6604           03413                           TC       RELAYOFF                              #  REMOVE SCS ATT. CONTROL DISCRETE (C23)
000557: 32,6605           40001                           OCT      40001
000558:
000559: 32,6606           33527                           CAF      NINETEEN
000560: 32,6607           02312                           TC       NEWPHASE
000561: 32,6610           00004                           OCT      00004
000562:
000563: 32,6611           36743                           CAF      0.25SEC
000564: 32,6612           02173                           TC       WAITLIST
000565: 32,6613           64615                           CADR     DVMODEON
000566:
000567: 32,6614           02256                           TC       TASKOVER
000568:
000569: 32,6615           03401        DVMODEON           TC       RELAYON                               #  SET SCS DV MODE DISCRETE (C24)
000570: 32,6616           40002                           OCT      40002
000571:
000572: 32,6617           33530                           CAF      TWENTY0
000573: 32,6620           02312                           TC       NEWPHASE
000574: 32,6621           00004                           OCT      00004
000575:
000576: 32,6622           36743                           CAF      0.25SEC
000577: 32,6623           02173                           TC       WAITLIST
000578: 32,6624           64632                           CADR     ENGINEON
000579: 32,6625           02256                           TC       TASKOVER
000580:
000581: 32,6626           44516        TASK4OUT           CS       ONE
000582: 32,6627           02312                           TC       NEWPHASE
000583: 32,6630           00004                           OCT      00004
000584:
000585: 32,6631           02256                           TC       TASKOVER
000586:
000587: 32,6632           44502        ENGINEON           CS       BIT13                                 #  SET BIT13, OUT1 TO 1  (ENGINE ON)
000588: 32,6633           51447                           TS       DVCNTR                                #  MUST BE NEGATIVE INITIALLY
000589: 32,6634           70011                           MASK     OUT1
000590: 32,6635           64502                           AD       BIT13
000591: 32,6636           50011                           TS       OUT1
000592:
000593: 32,6637           02700                           TC       READTIME   +1
000594: 32,6640           40572                           CS       RUPTSTOR
000595: 32,6641           51462                           TS       TENGON
000596: 32,6642           40573                           CS       RUPTSTOR   +1
000597: 32,6643           51463                           TS       TENGON     +1
000598:
000599: 32,6644           03424                           TC       FLAG1UP                               #  SET DVMON, STEER FLAGS
000600: 32,6645           00030                           OCT      00030
000601:
000602: 32,6646           40647                           CS       FLAGWRD2
000603: 32,6647           76463                           MASK     SPS1MASK
000604: 32,6650           10000                           CCS      A
000605: 32,6651           06675                           TC       3OR4TEST
000606:
000607: 32,6652           36753                           CAF      15SEC
000608: 32,6653           02173                           TC       WAITLIST
000609: 32,6654           64740                           CADR     PLUSXOFF
000610:
000611: 32,6655           33531                           CAF      TWENTY1
000612: 32,6656           02312                           TC       NEWPHASE
000613: 32,6657           00004                           OCT      00004
000614:
000615: 32,6660           10651                           CCS      PHASE2                                #  TEST FOR PHASE2 VALUE.
000616: 32,6661           64341                           AD       NEG3                                  #  WAS IT GREATER THAN 4 ORIGINALLY...
000617: 32,6662           10000                           CCS      A                                     #  TEST NEW SUM.
000618: 32,6663           06722                           TC       ROLLTASK
000619: 32,6664           06722                           TC       ROLLTASK                              #  GOES UNLESS PHASE2 WERE +1,2,3, OR 4.
000620: 32,6665           06666                           TC       +1                                    #  1,2 OR 3 FALL IN HERE
000621:
000622: 32,6666           44516                           CS       ONE                                   #  +4 COMES HERE.
000623: 32,6667           02312                           TC       NEWPHASE                              #  IN WHICH CASES, WE MAKE GROUP 2 INACTIVE
000624: 32,6670           00002                           OCT      2
000625:
000626: 32,6671           32170                           CAF      PRIO35                                #  AND THEN FLUSH OUT EVERYTHING.
000627: 32,6672           02052                           TC       NOVAC
000628: 32,6673           11134                           CADR     ENEMA                                 #  FORCE A PROGRAMMED RESTART
000629:
000630: 32,6674           02256                           TC       TASKOVER
000631:
000632:
000633:
000634: 32,6675           36754        3OR4TEST           CAF      SPS34MSK
000635: 32,6676           70647                           MASK     FLAGWRD2
000636: 32,6677           10000                           CCS      A
000637: 32,6700           06702                           TC       +2
000638: 32,6701           06713                           TC       TUMTEST2                              #  IT IS NOT
000639:
000640: 32,6702           33533                           CAF      TWENTY3
000641: 32,6703           02312                           TC       NEWPHASE
000642: 32,6704           00004                           OCT      00004
000643:
000644: 32,6705           36747                           CAF      3SEC                                  #  SHUT ENGINE DOWN IN 3 SECS
000645: 32,6706           02173                           TC       WAITLIST
000646: 32,6707           64755                           CADR     ENGINOFF
000647:
000648: 32,6710           03436        STEEROFF           TC       FLAG1DWN
000649: 32,6711           00010        STEERMSK           OCT      00010
000650:
000651: 32,6712           02256                           TC       TASKOVER
000652:
000653: 32,6713           36530        TUMTEST2           CAF      ARRSTMSK                              #  TEST IF BURN IS TUMBLE ARREST
000654: 32,6714           70647                           MASK     FLAGWRD2
000655: 32,6715           10000                           CCS      A
000656: 32,6716           06735                           TC       STR4OUT
000657:
000658: 32,6717           33532                           CAF      TWENTY2
000659: 32,6720           02312                           TC       NEWPHASE
000660: 32,6721           00004                           OCT      4
000661:
000662: 32,6722           40646        ROLLTASK           CS       FLAGWRD1                              #  TEST IF STEER FLAG SET
000663: 32,6723           76711                           MASK     STEERMSK
000664: 32,6724           10000                           CCS      A
000665: 32,6725           02256                           TC       TASKOVER                              #  IT IS NOT. KILL ROLLTASK
000666:
000667: 32,6726           34502                           CAF      PRIO10                                #  SUBMIT JOB TO DO ROLL STEERING
000668: 32,6727           02046                           TC       FINDVAC
000669: 32,6730           66332                           CADR     ROLLJOB
000670:
000671: 32,6731           36751        REDO4.22           CAF      5SEC32                                #  RECALL ROLLTASK IN 5 SECS
000672: 32,6732           02173                           TC       WAITLIST
000673: 32,6733           64722                           CADR     ROLLTASK
000674:
000675: 32,6734           02256                           TC       TASKOVER
000676:
000677: 32,6735           03436        STR4OUT            TC       FLAG1DWN
000678: 32,6736           00010                           OCT      00010
000679:
000680: 32,6737           06626                           TC       TASK4OUT
000681:
000682: 32,6740           03413        PLUSXOFF           TC       RELAYOFF                              #  REMOVE SCS +X TRANS DISCRETE (C27)
000683: 32,6741           40020                           OCT      40020
000684:
000685: 32,6742           02256                           TC       TASKOVER
000686:
000687: 32,6743           00031        0.25SEC            DEC      25         B-14
000688: 32,6744           00144        1SEC32             DEC      100        B-14
000689: 32,6745           00175        1.25SEC            DEC      125        B-14
000690: 32,6746           00372        2.5SEC             DEC      250        B-14
000691: 32,6747           00454        3SEC               DEC      300        B-14
000692: 32,6750           00536        3.5SEC             DEC      350        B-14
000693: 32,6751           00764        5SEC32             DEC      500        B-14
000694: 32,6752           01130        6SEC               DEC      600        B-14
000695: 32,6753           02734        15SEC              DEC      1500       B-14
000696: 32,6754     4503               SHDNMSK            EQUALS   BIT12
000697: 32,6754           00140        SPS34MSK           OCT      00140
000698:
000699:
000700: 32,6755           44502        ENGINOFF           CS       BIT13                                 #  SET ENGINE OFF
000701: 32,6756           70011                           MASK     OUT1
000702: 32,6757           50011                           TS       OUT1
000703:
000704: 32,6760           02700                           TC       READTIME   +1                         #  SAVE TIME OF CUTOFF
000705: 32,6761           40572                           CS       RUPTSTOR
000706: 32,6762           51462                           TS       TCUTOFF
000707: 32,6763           40573                           CS       RUPTSTOR   +1
000708: 32,6764           51463                           TS       TCUTOFF    +1
000709:
000710: 32,6765           03436                           TC       FLAG1DWN                              #  DISABLE DV MONITOR
000711: 32,6766           00020                           OCT      00020
000712:
000713: 32,6767           40044                           CS       PIPAX                                 #  SAVE DELTAV AT ENGINE OFF TIME.
000714: 32,6770           51222                           TS       VAVEGON
000715: 32,6771           40045                           CS       PIPAY
000716: 32,6772           51223                           TS       VAVEGON    +1                         #  USE VAVEGON AREA FOR THIS.
000717: 32,6773           40046                           CS       PIPAZ
000718: 32,6774           51224                           TS       VAVEGON    +2
000719:
000720:
000721: 32,6775           40647                           CS       FLAGWRD2                              #  TEST IF THAT WAS A TUMBLE BURN
000722: 32,6776           76530                           MASK     ARRSTMSK
000723: 32,6777           10000                           CCS      A
000724: 32,7000           07015                           TC       SPS1TEST
000725:
000726: 32,7001           34516                           CAF      ONE
000727: 32,7002           51446                           TS       VGCNTR
000728:
000729: 32,7003           03424                           TC       FLAG1UP                               #  SET INTP,INIT FLAGS
000730: 32,7004           01400                           OCT      01400
000731:
000732: 32,7005           36526                           CAF      ABORTLOC                              #  SET LOCATION FOR ABORT VR COMPUTATIONS
000733: 32,7006           51470                           TS       VRCADR
000734:
000735:
000736: 32,7007           34473                           CAF      THREE
000737: 32,7010           02312                           TC       NEWPHASE
000738: 32,7011           00003                           OCT      00003
000739:
000740: 32,7012           03470        REDO3.3            TC       SETBRNSW                              #  SET BURN TO ABORT AFTER TUMBLE
000741: 32,7013           00004        TABTMASK           OCT      00004
000742:
000743: 32,7014           02256                           TC       TASKOVER
000744:
000745: 32,7015           33540        SPS1TEST           CAF      TWENTY8
000746: 32,7016           02312                           TC       NEWPHASE
000747: 32,7017           00004                           OCT      4
000748:
000749: 32,7020           41463                           CS       TCUTOFF    +1
000750: 32,7021           50665                           TS       TBASE3
000751: 32,7022           50666                           TS       TBASE4
000752:
000753: 32,7023           40647                           CS       FLAGWRD2                              #  TEST IF THAT WAS A SPS1 BURN
000754: 32,7024           76463                           MASK     SPS1MASK
000755: 32,7025           10000                           CCS      A
000756: 32,7026           07046                           TC       SPS2TEST
000757:
000758: 32,7027           36557                           CAF      10.5SEC                               #  CALL COAST PHASE IN 10.5 SECS
000759: 32,7030           02173                           TC       WAITLIST
000760: 32,7031           65171                           CADR     COASTPHS
000761:
000762: 32,7032           37306                           CAF      7SEC                                  #  DUPLICATE GMPOFF SEQUENCE BEFORE SETTING
000763: 32,7033           02173                           TC       WAITLIST                              #  BURN SWITCH.  (FOR RESTART LOGIC.)
000764: 32,7034           65133                           CADR     GIMPOWOF
000765:
000766: 32,7035           35502                           CAF      FOUR                                  #  3.4 RESTART KEEPS POWER OFF SEQ. GOING.
000767: 32,7036           02312                           TC       NEWPHASE
000768: 32,7037           00003                           OCT      3
000769:
000770: 32,7040           34473                           CAF      THREE
000771: 32,7041           02312                           TC       NEWPHASE
000772: 32,7042           00004                           OCT      00004
000773:
000774:
000775: 32,7043           03470        REDO4.3            TC       SETBRNSW                              #  SET BURN TO SPS2
000776: 32,7044           00020        SPS2MASK           OCT      00020
000777:
000778: 32,7045           02256                           TC       TASKOVER
000779:
000780: 32,7046           40647        SPS2TEST           CS       FLAGWRD2                              #  TEST IF THAT WAS A SPS2 BURN
000781: 32,7047           77044                           MASK     SPS2MASK
000782: 32,7050           10000                           CCS      A
000783: 32,7051           07071                           TC       SPS3TEST
000784:
000785: 32,7052           37304                           CAF      0.75SEC
000786: 32,7053           02173                           TC       WAITLIST
000787: 32,7054           65322                           CADR     CGTASK
000788:
000789: 32,7055           36752                           CAF      6SEC                                  #  CALL FOR GMP ON IN 6 SECS
000790: 32,7056           02173                           TC       WAITLIST
000791: 32,7057           64561                           CADR     GIMPOWON
000792:
000793: 32,7060           35362                           CAF      SEVEN
000794: 32,7061           02312                           TC       NEWPHASE
000795: 32,7062           00003                           OCT      00003
000796:
000797: 32,7063           33240                           CAF      TEN
000798: 32,7064           02312                           TC       NEWPHASE
000799: 32,7065           00004                           OCT      00004
000800:
000801: 32,7066           03470        REDO4.10           TC       SETBRNSW                              #  SET BURN TO SPS3
000802: 32,7067           00040        SPS3MASK           OCT      00040
000803:
000804: 32,7070           02256                           TC       TASKOVER
000805:
000806: 32,7071           40647        SPS3TEST           CS       FLAGWRD2                              #  TEST IF THAT WAS A SPS3 BURN
000807: 32,7072           77067                           MASK     SPS3MASK
000808: 32,7073           10000                           CCS      A
000809: 32,7074           07111                           TC       SETMOD23                              #  IT WAS NOT. (EITHER A, TABT, OR SPS4)
000810:
000811: 32,7075           33522                           CAF      FOURTN
000812: 32,7076           02312                           TC       NEWPHASE
000813: 32,7077           00004                           OCT      00004
000814:
000815: 32,7100           36752        GMPON              CAF      6SEC                                  #  CALL FOR ENGINE ON IN 10 SECS
000816: 32,7101           02173                           TC       WAITLIST
000817: 32,7102           64561                           CADR     GIMPOWON
000818:
000819: 32,7103           32144        REDO4.14           CAF      PRIO7
000820: 32,7104           02052                           TC       NOVAC
000821: 32,7105           65166                           CADR     MODE44
000822:
000823: 32,7106           03470                           TC       SETBRNSW                              #  SET BURN TO SPS4
000824: 32,7107           00100        SPS4MASK           OCT      00100
000825: 32,7110           02256                           TC       TASKOVER
000826:
000827: 32,7111           32144        SETMOD23           CAF      PRIO7                                 #  MAKE JOB TO CHANGE MODE
000828: 32,7112           02052                           TC       NOVAC
000829: 32,7113           65163                           CADR     MODE23
000830:
000831: 32,7114           33516                           CAF      NINE
000832: 32,7115           02312                           TC       NEWPHASE
000833: 32,7116           00003                           OCT      00003
000834:
000835: 32,7117           44516                           CS       ONE
000836: 32,7120           02312                           TC       NEWPHASE
000837: 32,7121           00004                           OCT      00004
000838:
000839: 32,7122           03413        GMPOFF             TC       RELAYOFF                              #  REMOVE SCS +X TRANS DISCRETE (C27)
000840: 32,7123           40020                           OCT      40020
000841:
000842: 32,7124           37306                           CAF      7SEC
000843: 32,7125           02173                           TC       WAITLIST
000844: 32,7126           65133                           CADR     GIMPOWOF
000845:
000846: 32,7127           35502                           CAF      FOUR
000847: 32,7130           02312                           TC       NEWPHASE
000848: 32,7131           00003                           OCT      00003
000849:
000850: 32,7132           02256                           TC       TASKOVER
000851:
000852: 32,7133           36750        GIMPOWOF           CAF      3.5SEC                                #  CALL FOR DV MODE OFF IN 3.5 SECS
000853: 32,7134           02173                           TC       WAITLIST
000854: 32,7135           65147                           CADR     DVMODOFF
000855:
000856: 32,7136           03413                           TC       RELAYOFF
000857: 32,7137           40200                           OCT      40200
000858:
000859: 32,7140           34477                           CAF      FIVE
000860: 32,7141           02312                           TC       NEWPHASE
000861: 32,7142           00003                           OCT      00003
000862:
000863: 32,7143           02256                           TC       TASKOVER
000864:
000865: 32,7144           03413        GMPOFF3            TC       RELAYOFF                              #  REMOVE SCS GMP DISCRETE (C30)
000866: 32,7145           40200                           OCT      40200
000867:
000868: 32,7146           06333                           TC       TASK3OUT
000869:
000870: 32,7147           03413        DVMODOFF           TC       RELAYOFF                              #  REMOVE SCS DV MODE DISCRETE (C24)
000871: 32,7150           40002                           OCT      40002
000872:
000873: 32,7151           34475                           CAF      SIX
000874: 32,7152           02312                           TC       NEWPHASE
000875: 32,7153           00003                           OCT      00003
000876:
000877: 32,7154           36743                           CAF      0.25SEC
000878: 32,7155           02173                           TC       WAITLIST
000879: 32,7156           65160                           CADR     ATTCONON
000880:
000881: 32,7157           02256                           TC       TASKOVER
000882:
000883: 32,7160           03401        ATTCONON           TC       RELAYON                               #  SET SCS ATT. CONT. DISCRETE (C23)
000884: 32,7161           40001                           OCT      40001
000885:
000886: 32,7162           06333                           TC       TASK3OUT
000887:
000888: 32,7163           02362        MODE23             TC       NEWMODE                               #  SET MAJOR MODE TO ATTITUDE HOLD
000889: 32,7164           00023                           OCT      00023
000890: 32,7165           02124                           TC       ENDOFJOB
000891:
000892: 32,7166           02362        MODE44             TC       NEWMODE                               #  SET MAJOR MODE TO SPS4
000893: 32,7167           00044                           OCT      00044
000894: 32,7170           02124                           TC       ENDOFJOB
000895:
000896:
000897:
000898: 32,7171           03424        COASTPHS           TC       FLAG1UP                               #  GET SET TO START COAST PHASE ACTIVITY
000899: 32,7172           40000        COASTMSK           OCT      40000                                 #  SET COAST FLAG
000900:
000901: 32,7173           37217                           CAF      289.5SEC   +1                         #  SET UP LONGCALL TO FDAONTSK IN 289.5 SEC
000902: 32,7174           51461                           TS       LONGTIME   +1
000903: 32,7175           37216                           CAF      289.5SEC
000904: 32,7176           51460                           TS       LONGTIME
000905:
000906: 32,7177           37215                           CAF      FDAILOC
000907: 32,7200           51467                           TS       CALLCADR
000908:
000909: 32,7201           05742                           TC       IBNKCALL                              #  MAKE WAITLIST CALL MORE THAN 120 SECS
000910: 32,7202           10552                           CADR     LONGCALL
000911:
000912: 32,7203           32146                           CAF      PRIO12                                #  ESTABLISH INITIAL VERTICAL JOB
000913: 32,7204           02046                           TC       FINDVAC
000914: 32,7205           66642                           CADR     VERTINIT
000915:
000916: 32,7206           35503                           CAF      TWO
000917: 32,7207           02312                           TC       NEWPHASE
000918: 32,7210           00002                           OCT      00002
000919:
000920: 32,7211           35502                           CAF      FOUR
000921: 32,7212           02312                           TC       NEWPHASE
000922: 32,7213           00004                           OCT      00004
000923:
000924: 32,7214           02256                           TC       TASKOVER
000925:
000926: 32,7215           65220        FDAILOC            CADR     FDAONTSK
000927: 32,7216           00001 30426  289.5SEC           2DEC     28950      B-28
000928:
000929:
000930: 32,7220           03401        FDAONTSK           TC       RELAYON                               #  SET SCS FDAI ALIGN DISCRETE (C31)
000931: 32,7221           40400                           OCT      40400
000932:
000933: 32,7222           37252                           CAF      10SEC
000934: 32,7223           02173                           TC       WAITLIST
000935: 32,7224           65231                           CADR     FDAOFTSK                              #  CALL FDAI OFF IN 10 SECS
000936:
000937: 32,7225           34477                           CAF      FIVE
000938: 32,7226           02312                           TC       NEWPHASE
000939: 32,7227           00004                           OCT      00004
000940:
000941: 32,7230           02256                           TC       TASKOVER
000942:
000943: 32,7231           37650        FDAOFTSK           CAF      -310SEC    +1
000944: 32,7232           61557                           AD       TCOAST     +1
000945: 32,7233           51461                           TS       LONGTIME   +1
000946:
000947: 32,7234           35501                           CAF      ZERO
000948: 32,7235           67647                           AD       -310SEC
000949: 32,7236           61556                           AD       TCOAST
000950: 32,7237           51460                           TS       LONGTIME
000951:
000952: 32,7240           37253                           CAF      UPTSKLOC
000953: 32,7241           51467                           TS       CALLCADR
000954:
000955: 32,7242           05742                           TC       IBNKCALL
000956: 32,7243           10552                           CADR     LONGCALL
000957:
000958: 32,7244           34475                           CAF      SIX
000959: 32,7245           02312                           TC       NEWPHASE
000960: 32,7246           00004                           OCT      4
000961:
000962: 32,7247           03413        FDOFTSK1           TC       RELAYOFF                              #  REMOVE SCS FDAI ALIGN DISCRETE (C31).
000963: 32,7250           40400                           OCT      40400
000964:
000965: 32,7251           02256                           TC       TASKOVER
000966:
000967: 32,7252           01750        10SEC              DEC      1000       B-14
000968:
000969: 32,7253           67122        UPTSKLOC           CADR     UPTASK
000970:
000971: 32,7254           37446        PLUSX2             CAF      PIPCADR
000972: 32,7255           05750                           TC       ISWCALL
000973:
000974: 32,7256           37307                           CAF      26SEC
000975: 32,7257           02173                           TC       WAITLIST
000976: 32,7260           64561                           CADR     GIMPOWON
000977:
000978: 32,7261           03401                           TC       RELAYON                               #  SET SCS +X TRANS DISCRETE (C27)
000979: 32,7262           40020                           OCT      40020
000980:
000981: 32,7263           03460                           TC       FLAG2DWN                              #  DISABLE FREE-FALL GYRO BIAS COMPENSATION
000982: 32,7264           40000                           OCT      40000                                 #  (REMOVE DRIFT FLAG)
000983:
000984: 32,7265           41465                           CS       PIPTIME    +1
000985: 32,7266           50667                           TS       TBASE5
000986:
000987: 32,7267           34475                           CAF      SIX
000988: 32,7270           02312                           TC       NEWPHASE
000989: 32,7271           00005                           OCT      00005
000990:
000991: 32,7272           33525                           CAF      SEVENTN
000992: 32,7273           02312                           TC       NEWPHASE
000993: 32,7274           00004                           OCT      00004
000994:
000995: 32,7275           37642                           CAF      2SEC
000996: 32,7276           02173                           TC       WAITLIST
000997: 32,7277           65344                           CADR     READACCS
000998:
000999: 32,7300           32170                           CAF      PRIO35
001000: 32,7301           02052                           TC       NOVAC
001001: 32,7302           65310                           CADR     MODE32
001002:
001003: 32,7303           02256                           TC       TASKOVER
001004:
001005: 32,7304           00113        0.75SEC            DEC      75         B-14
001006: 32,7305           00144        1SEC               DEC      100        B-14
001007: 32,7306           01274        7SEC               DEC      700        B-14
001008: 32,7307           05050        26SEC              DEC      2600       B-14
001009:
001010: 32,7310           02362        MODE32             TC       NEWMODE
001011: 32,7311           00032                           OCT      00032
001012:
001013: 32,7312           03424                           TC       FLAG1UP                               #  SET INTP FLAG
001014: 32,7313           01000                           OCT      01000
001015:
001016: 32,7314           31465                           XCH      PIPTIME    +1                         #  CALL LASTBIAS ROUTINE
001017: 32,7315           50115                           TS       MPAC
001018:
001019: 32,7316           37321                           CAF      COMP2SEC
001020: 32,7317           05720                           TC       POSTJUMP
001021: 32,7320           31331                           CADR     LASTBIAS
001022:
001023: 32,7321           31000        COMP2SEC           DEC      200        B+6
001024:
001025: 32,7322           32154        CGTASK             CAF      PRIO21                                #  ESTABLISH CGJOB TO REMOVE ANGULAR CG
001026: 32,7323           02046                           TC       FINDVAC                               #  MOTION DEVELOPED DURING SPS2 BURN
001027: 32,7324           65334                           CADR     CGJOB
001028:
001029: 32,7325           36745                           CAF      1.25SEC
001030: 32,7326           02173                           TC       WAITLIST
001031: 32,7327           65144                           CADR     GMPOFF3
001032:
001033: 32,7330           34513                           CAF      EIGHT
001034: 32,7331           02312                           TC       NEWPHASE
001035: 32,7332           00003                           OCT      3
001036:
001037: 32,7333           02256                           TC       TASKOVER
001038:
001039: 32,7334           02362        CGJOB              TC       NEWMODE                               #  SET MAJOR MODE TO SPS3 BURN
001040: 32,7335           00043                           OCT      00043
001041:
001042: 32,7336           04000                           TC       INTPRET
001043:
001044: 32,7337           75175                           VMOVE    1                                     #  GET NOMINAL SPS2 CG CHANGE ABOUT IMU
001045: 32,7340           76575                           RTB      EXIT                                  #  GIMBAL AXES INTO VAC, SCALED AT KE/2 REV
001046: 32,7341           13635                                    DELCDU                                #  (KE =1.5), AND DECREMENT THETAD, +1, +2
001047: 32,7342           20423                                    INCRCDUS
001048:
001049: 32,7343           02124                           TC       ENDOFJOB
001050:
001051:
001052: 32,7344           37446        READACCS           CAF      PIPCADR                               #  BRANCH TO PIPA READ ROUTINE
001053: 32,7345           05750                           TC       ISWCALL
001054:
001055: 32,7346           35503                           CAF      TWO
001056: 32,7347           02312                           TC       NEWPHASE
001057: 32,7350           00005                           OCT      00005
001058:
001059: 32,7351           41465        REDO5.2            CS       PIPTIME    +1
001060: 32,7352           50667                           TS       TBASE5
001061:
001062: 32,7353           35503                           CAF      TWO
001063: 32,7354           51035                           TS       PIPAGE
001064:
001065: 32,7355           34514                           CAF      ENTRYMSK                              #  TEST IF ENTRY FLAG SET
001066: 32,7356           70646                           MASK     FLAGWRD1
001067: 32,7357           10000                           CCS      A
001068: 32,7360           07404                           TC       SETUPENT
001069:
001070: 32,7361           40646                           CS       FLAGWRD1                              #  TEST IF COAST FLAG SET
001071: 32,7362           77172                           MASK     COASTMSK
001072: 32,7363           10000                           CCS      A
001073: 32,7364           03070                           TC       CCSHOLE
001074: 32,7365           07410                           TC       SETUPVRT                              #  IT IS. DO NOT RESET READACCS
001075:
001076: 32,7366           37450                           CAF      ABORT32                               #  TEST IF ABORT BURN IS SET. IF SO, NEED
001077: 32,7367           70647                           MASK     FLAGWRD2                              #  2.5SECS COMPUTING INTERVAL
001078: 32,7370           10000                           CCS      A
001079:
001080: 32,7371           07414                           TC       CHANGEDT                              #  IT IS
001081:
001082: 32,7372           37642                           CAF      2SEC                                  #  IT IS NOT. CALL READACCS IN 2 SECS
001083: 32,7373           02173                           TC       WAITLIST
001084: 32,7374           65344                           CADR     READACCS
001085:
001086: 32,7375           32152        MAKESERV           CAF      PRIO16                                #  ESTABLISH SERVICER ROUTINE
001087: 32,7376           02046                           TC       FINDVAC
001088: 32,7377           65453                           CADR     SERVICER
001089:
001090: 32,7400           34473                           CAF      THREE
001091: 32,7401           02312                           TC       NEWPHASE
001092: 32,7402           00005                           OCT      5
001093:
001094: 32,7403           02256                           TC       TASKOVER
001095:
001096: 32,7404           37642        SETUPENT           CAF      2SEC                                  #  CALL ENTRY ROUTINES IN 2 SECS
001097: 32,7405           02173                           TC       WAITLIST
001098: 32,7406           56004                           CADR     PIPUP
001099:
001100: 32,7407           07375                           TC       MAKESERV
001101:
001102: 32,7410           37642        SETUPVRT           CAF      2SEC                                  #  CALL VERTASK IN 2 SECS
001103: 32,7411           02173                           TC       WAITLIST
001104: 32,7412           66665                           CADR     VERTASK
001105:
001106: 32,7413           07375                           TC       MAKESERV
001107:
001108: 32,7414           34516        CHANGEDT           CAF      BIT1                                  #  FORCE SERVICER TO SET DELTAT TO 2.5 SECS
001109: 32,7415           51030                           TS       DELTAT     +1
001110:
001111: 32,7416           37451                           CAF      2.5SEC32                              #  CALL READACCS IN 2.5 SECS
001112: 32,7417           07373                           TC       MAKESERV   -2
001113:
001114: 32,7420           37450        REREADAC           CAF      ABORT32                               #  READACCS RESTART LOCATION
001115: 32,7421           70647                           MASK     FLAGWRD2
001116: 32,7422           10000                           CCS      A
001117: 32,7423           07426                           TC       SET2.5S
001118:
001119: 32,7424           37447        CAFREPIP           CAF      REPIPCAD
001120: 32,7425           07345                           TC       READACCS   +1
001121:
001122: 32,7426           47451        SET2.5S            CS       2.5SEC32
001123: 32,7427           60667                           AD       TBASE5
001124: 32,7430           60036                           AD       TIME1
001125: 32,7431           30572                           XCH      RUPTSTOR
001126:
001127: 32,7432           10572                           CCS      RUPTSTOR
001128: 32,7433           07424                           TC       CAFREPIP
001129: 32,7434           07424                           TC       CAFREPIP
001130: 32,7435           37451                           CAF      2.5SEC32
001131: 32,7436           60572                           AD       RUPTSTOR
001132:
001133: 32,7437           64476                           AD       POSMAX
001134: 32,7440           50000                           TS       A
001135: 32,7441           07424                           TC       CAFREPIP
001136:
001137: 32,7442           40572                           CS       RUPTSTOR
001138: 32,7443           02173                           TC       WAITLIST
001139: 32,7444           65424                           CADR     CAFREPIP
001140:
001141: 32,7445           02256                           TC       TASKOVER
001142:
001143: 32,7446           61307        PIPCADR            CADR     PIPASR
001144: 32,7447           61360        REPIPCAD           CADR     REPIPASR
001145: 32,7450     4504               CHDTMASK           EQUALS   BIT11
001146: 32,7450     4514               ENTRYMSK           EQUALS   BIT3
001147: 32,7450     4504               READMASK           EQUALS   BIT11
001148: 32,7450           00007        ABORT32            OCT      7
001149: 32,7451           00372        2.5SEC32           DEC      250        B-14
001150: 32,7452           00620        4SEC               DEC      400        B-14
001151:
001152: 32,7453           05654        SERVICER           TC       BANKCALL                              #  COMPENSATE THE PIPA DATA IN THE DELV
001153: 32,7454           31007                           CADR     1/PIPA                                #  REGISTERS.
001154:
001155:
001156: 32,7455           04000        REDO5.3            TC       INTPRET
001157:
001158: 32,7456           76776        REGSTEP            ITC      0
001159: 32,7457           21540                                    CALCRVG
001160:
001161: 32,7460           33517        AVGRET             CAF      ELEVEN                                #  ROUTINE CYCLES 12 TIMES TO SAVE OLD VR,
001162: 32,7461           50115        AGAIN              TS       MPAC                                  #    VN FOR RESTARTS
001163: 32,7462           20115                           INDEX    MPAC
001164: 32,7463           41416                           CS       VR
001165: 32,7464           20115                           INDEX    MPAC
001166: 32,7465           51263                           TS       VR1                                   #  (TEMPORARIES IN AMEMORY)
001167: 32,7466           10115                           CCS      MPAC
001168: 32,7467           07461                           TC       AGAIN
001169:
001170: 32,7470           41446                           CS       VGCNTR                                #  SAVE FOR RESTARTS
001171: 32,7471           51261                           TS       VGCNT1
001172: 32,7472           41447                           CS       DVCNTR
001173: 32,7473           51262                           TS       DVCNT1
001174:
001175: 32,7474           02276                           TC       PHASCHNG
001176: 32,7475           02705                           OCT      02705
001177:
001178: 32,7476           04000        RE5.23             TC       INTPRET
001179:
001180: 32,7477           43576                           TEST     0                                     #  TEST IF ENTRY FLAG SET
001181: 32,7500           00036                                    ENTRYFLG
001182: 32,7501           25536                                    COASTEST                              #  IT IS NOT
001183:
001184: 32,7502           67774                           BHIZ     2
001185: 32,7503           75405                           AXT,1    LODON
001186: 32,7504           47172                           COMP     ITC
001187: 32,7505           01473                                    ROLLC
001188: 32,7506           25513                                    UPLIFT
001189: 32,7507           00001                                    0
001190: 32,7510           21156                                    LAD
001191: 32,7511           25517                                    SETL/D
001192:
001193: 32,7512           45175        UPLIFT             DMOVE    1
001194: 32,7513           75576                           AXT,1
001195: 32,7514           21156                                    LAD
001196: 32,7515           00011                                    8D
001197:
001198: 32,7516           47576        SETL/D             NOLOD    0
001199: 32,7517           33223                           STORE    L/D
001200:
001201: 32,7520           46176        PACIFIC            COMP*    0
001202: 32,7521           03275                                    TPACIFC,1
001203: 32,7522           33145                           STORE    DTEAROT
001204:
001205: 32,7523           74176                           VMOVE*   0
001206: 32,7524           03301                                    RTPACIFC,1
001207: 32,7525           33115                           STORE    RTINIT
001208:
001209: 32,7526           76776                           ITC      0
001210: 32,7527           13541                                    EARROT1
001211:
001212: 32,7530           77576                           EXIT     0
001213:
001214: 32,7531           35501                           CAF      ZERO                                  #  RESET DELTAT +1 TO ZERO
001215: 32,7532           51030                           TS       DELTAT     +1
001216:
001217: 32,7533           05720                           TC       POSTJUMP                              #  GO TO ENTRY INITIALIZATION ROUTINE.
001218: 32,7534           61424                           CADR     STARTENT
001219:
001220: 32,7535           43575        COASTEST           TEST     1                                     #  TEST IF COAST FLAG SET
001221: 32,7536           75176                           VMOVE
001222: 32,7537           00022                                    COASTFLG
001223: 32,7540           25565                                    GETFF
001224: 32,7541           00766                                    RN                                    #  IT IS. TRANSFER RN,VN TO ORBITAL
001225: 32,7542           33101                           STORE    RRECT                                 #  INTEGRATION ROUTINE
001226:
001227: 32,7543           75176                           VMOVE    0
001228: 32,7544           00774                                    VN
001229: 32,7545           33107                           STORE    VRECT
001230:
001231: 32,7546           70775                           DAD      1
001232: 32,7547           66742                           DSU      DAD
001233: 32,7550           01557                                    TCOAST
001234: 32,7551           27215                                    DP20SEC
001235: 32,7552           01465                                    PIPTIME
001236: 32,7553           01463                                    TCUTOFF
001237: 32,7554           33211                           STORE    TAVEGON
001238:
001239: 32,7555           77576                           EXIT     0
001240:
001241: 32,7556           41465                           CS       PIPTIME    +1                         #  START UP FREE-FALL GYRO DRIFT COMP.
001242: 32,7557           40000                           COM
001243: 32,7560           50755                           TS       OLDBT1
001244:
001245: 32,7561           03446                           TC       FLAG2UP                               #  BEGINS WITH NEXT IDLETASK. SET DRIFTFLG
001246: 32,7562           40000                           OCT      40000
001247:
001248: 32,7563           02124                           TC       ENDOFJOB                              #  SERVICER DIES HERE AT START OF COASTPHS.
001249:
001250:
001251: 32,7564           76776        GETFF              ITC
001252: 32,7565           12417                                    CALCTFF
001253:
001254: 32,7566           43574                           TEST     2                                     #  TEST IF INTP FLAG SET
001255: 32,7567           65132                           ABS      DSU
001256: 32,7570           73615                           BMN      TEST
001257: 32,7571           00027                                    INTPFLAG
001258: 32,7572           25652                                    INITEST                               #  IT IS NOT. CONTINUE AT INITEST
001259: 32,7573           01457                                    TFF                                   #  TEST IF TFF LESS THAN 95 SECS
001260: 32,7574           25646                                    DP95SEC
001261: 32,7575           25615                                    SHUTDWN1                              #  IT IS. PREPARE TO FREE-FALL RE-ENTER
001262: 32,7576           00032                                    INT1FLAG                              #  TEST IF FIRST INTERUPT FLAG SET
001263: 32,7577           25603                                    +3                                    #  IT IS NOT
001264:
001265: 32,7600           77576                           EXIT     0                                     #  IT IS. WAIT FOR 95 SEC INTERUPT
001266: 32,7601           07767                           TC       ENDSER32
001267:
001268: 32,7602           47575                           NOLOD    1                                     #  TEST IF TFF LESS THAN 200 SECS
001269: 32,7603           66616                           DSU      BPL
001270: 32,7604           25644                                    DP65SEC
001271: 32,7605           25652                                    INITEST                               #  IT IS NOT. CONTINUE
001272:
001273: 32,7606           77576                           EXIT     0
001274: 32,7607           05654                           TC       BANKCALL                              #  IT IS. BRANCH TO SHUTDOWN ROUTINES
001275: 32,7610           67217                           CADR     SHUTDOWN
001276:
001277: 32,7611           03424                           TC       FLAG1UP
001278: 32,7612           00100                           OCT      00100
001279:
001280: 32,7613           07621                           TC       SHTFLGUP
001281:
001282: 32,7614           77576        SHUTDWN1           EXIT     0
001283: 32,7615           05654                           TC       BANKCALL
001284: 32,7616           67217                           CADR     SHUTDOWN
001285:
001286: 32,7617           03436                           TC       FLAG1DWN                              #  REMOVE INTP FLAG (DISABLE TFF DECISIONS)
001287: 32,7620           01000                           OCT      01000
001288:
001289: 32,7621           03424        SHTFLGUP           TC       FLAG1UP                               #  SET SHTDN FLAG
001290: 32,7622           04000                           OCT      04000
001291:
001292: 32,7623           07767                           TC       ENDSER32
001293:
001294:
001295:
001296: 32,7624           33517        REDO5.23           CAF      ELEVEN                                #  RE-ESTABLISH VR, DIFFVECT IN CASE OF
001297: 32,7625           50115                           TS       MPAC                                  #  5.23 RESTART
001298: 32,7626           20115                           INDEX    MPAC
001299: 32,7627           41263                           CS       VR1
001300: 32,7630           20115                           INDEX    MPAC
001301: 32,7631           51416                           TS       VR
001302: 32,7632           10115                           CCS      MPAC
001303: 32,7633           07625                           TC       REDO5.23   +1
001304:
001305: 32,7634           41261                           CS       VGCNT1
001306: 32,7635           51446                           TS       VGCNTR
001307: 32,7636           41262                           CS       DVCNT1
001308: 32,7637           51447                           TS       DVCNTR
001309:
001310: 32,7640           07476                           TC       RE5.23
001311:
001312:
001313:
001314: 32,7641           00000        DP2SEC             DEC      0.0
001315: 32,7642           00310        2SEC               DEC      200        B-14
001316: 32,7643           00000 14544  DP65SEC            2DEC     6500       B-28
001317: 32,7645           00000 22434  DP95SEC            2DEC     9500       B-28
001318: 32,7647           77776 43347  -310SEC            2DEC     -31000     B-28
001319:
001320:
001321: 32,7651           77576        INITEST            EXIT     0
001322: 32,7652           40646                           CS       FLAGWRD1                              #  TEST IF THIS IS AN INITIAL PASS
001323: 32,7653           74506                           MASK     INITMASK
001324: 32,7654           10000                           CCS      A
001325: 32,7655           07730                           TC       DVMNTEST                              #  IT IS NOT
001326:
001327: 32,7656           40647                           CS       FLAGWRD2                              #  TEST IF BURN IS ABORT AFTER TUMBLE ARRET
001328: 32,7657           77013                           MASK     TABTMASK
001329: 32,7660           10000                           CCS      A
001330: 32,7661           07666                           TC       INITISE                               #  IT IS NOT
001331:
001332: 32,7662           02362                           TC       NEWMODE                               #  SET MAJOR MODE TO POST TUMBLE RECOVERY
001333: 32,7663           00071                           OCT      00071
001334:
001335: 32,7664           37720                           CAF      31.8DEG                               #  TO REGAIN ATTITUDE AFTER TUMBLE SET AN
001336: 32,7665           51442                           TS       LOOKANG                               #  AVERAGE ANGLE TO HORIZON OF 31.8 DEGS.
001337:
001338: 32,7666           04000        INITISE            TC       INTPRET
001339:
001340: 32,7667           76776                           ITC      0                                     #  BRANCH TO VG, B VECTOR COMPUTATIONS
001341: 32,7670           12511                                    CALCVGB
001342:
001343: 32,7671           77576                           EXIT     0
001344:
001345: 32,7672           11446                           CCS      VGCNTR                                #  WAIT FOR SECOND PASS THRU CALCVGB BEFORE
001346: 32,7673           07675                           TC       +2                                    #  COMPUTING THRUST ATTITUDE
001347: 32,7674           07677                           TC       +3
001348:
001349: 32,7675           51446                           TS       VGCNTR
001350: 32,7676           07767                           TC       ENDSER32
001351:
001352: 32,7677           04000                           TC       INTPRET
001353:
001354: 32,7700           76776                           ITC      0
001355: 32,7701           26266                                    BURNINIT
001356:
001357: 32,7702           77576                           EXIT     0
001358:
001359: 32,7703           20017                           INHINT
001360: 32,7704           32146                           CAF      PRIO12                                #  ESTABLISH JOB TO COMPUTE MANEUVER TO
001361: 32,7705           02046                           TC       FINDVAC                               #  BURN INITIAL ATTITUDE
001362: 32,7706           66410                           CADR     ATTIJOB
001363:
001364: 32,7707           34516                           CAF      ONE                                   #  SET VGCNTR FOR TWO PASSES THROUGH
001365: 32,7710           51446                           TS       VGCNTR                                #  CALCVGB BEFORE ISSUINS STEER COMMANDS
001366: 32,7711           37721                           CAF      35DEG                                 #  RESTORE ANGLE TO HORIZON TO 35 DEGS
001367: 32,7712           51442                           TS       LOOKANG
001368:
001369: 32,7713           02276                           TC       PHASCHNG
001370: 32,7714           00402                           OCT      00402
001371:
001372: 32,7715           03436                           TC       FLAG1DWN                              #  REMOVE INIT FLAG
001373: 32,7716           00400                           OCT      00400
001374:
001375: 32,7717           07767                           TC       ENDSER32
001376:
001377: 32,7720           02647        31.8DEG            DEC      0.088333                              #  SCALED AT 1 REV
001378: 32,7721           03071        35DEG              DEC      0.097222
001379: 32,7722     4506               INITMASK           EQUALS   BIT9
001380:
001381: 32,7722           77576        VRFAIL             EXIT     0                                     #  EXIT HERE IF FAILURE TO COMPUTE ABORT VR
001382:
001383: 32,7723           11446                           CCS      VGCNTR                                #  TEST IF THIS IS LAST PASS
001384: 32,7724           07726                           TC       +2
001385: 32,7725           07765                           TC       ENDSHUT                               #  IT IS. DO SHUTDOWN
001386:
001387: 32,7726           51446                           TS       VGCNTR                                #  WAIT FOR MORE
001388: 32,7727           07767                           TC       ENDSER32
001389:
001390: 32,7730           40646        DVMNTEST           CS       FLAGWRD1                              #  TEST IF DV MONITOR IS ENABLED
001391: 32,7731           74512                           MASK     DVMONMSK
001392: 32,7732           10000                           CCS      A
001393: 32,7733           07767                           TC       ENDSER32                              #  IT IS NOT
001394:
001395: 32,7734           04000                           TC       INTPRET
001396:
001397: 32,7735           71174                           ABVAL    2                                     #  TEST IF DELV MAG. EXCEEDS DVMIN
001398: 32,7736           66756                           DSU      BMN
001399: 32,7737           77576                           EXIT
001400: 32,7740           01002                                    DELV
001401: 32,7741           26001                                    DVMIN
001402: 32,7742           25750                                    NODELTAV                              #  IT DOES NOT. START DV MONITOR
001403:
001404: 32,7743           44516                           CS       ONE                                   #  IT DOES. (DVCNTR NORMALLY NEGATIVE)
001405: 32,7744           51447                           TS       DVCNTR
001406:
001407: 32,7745           05654                           TC       BANKCALL
001408: 32,7746           66002                           CADR     STRTEST
001409:
001410: 32,7747           77576        NODELTAV           EXIT     0
001411: 32,7750           11447                           CCS      DVCNTR
001412:
001413: 32,7751           07756                           TC       DVALARM                               #  AFTER FIRST TIME SET ALARM
001414: 32,7752           07763                           TC       SHUTDWN3                              #  5 PASSES UP. PREPARE FOR RE-ENTRY
001415: 32,7753           35502                           CAF      FOUR                                  #  FIRST TIME SET DVCNTR FOR 5 PASSES
001416: 32,7754           51447                           TS       DVCNTR
001417:
001418: 32,7755           07767                           TC       ENDSER32
001419:
001420: 32,7756           03015        DVALARM            TC       ALARM
001421: 32,7757           01402                           OCT      01402
001422:
001423: 32,7760           11447                           CCS      DVCNTR
001424: 32,7761           51447                           TS       DVCNTR
001425:
001426: 32,7762           07767                           TC       ENDSER32
001427:
001428: 32,7763           03424        SHUTDWN3           TC       FLAG1UP                               #  ENABLE FREE-FALL INTERRUPT
001429: 32,7764           01000                           OCT      01000
001430:
001431: 32,7765           05654        ENDSHUT            TC       BANKCALL
001432: 32,7766           67217                           CADR     SHUTDOWN
001433:
001434: 32,7767           05654        ENDSER32           TC       BANKCALL                              #  EXIT FROM SERVICER FROM BANK 32
001435: 32,7770           66251                           CADR     ENDSERV
001436:
001437: 33,6000                                           SETLOC   66000
001438: 33,6000     4512               DVMONMSK           EQUALS   BIT5
001439: 33,6000           00005 06565  DVMIN              2DEC     0.000318008                            #  2FT/S SCALED AT 19.16928 M/CS
001440:
001441: 33,6002           40646        STRTEST            CS       FLAGWRD1                              #  TEST IF STEER FLAG SET
001442: 33,6003           74513                           MASK     BIT4
001443: 33,6004           10000                           CCS      A
001444: 33,6005           06251                           TC       ENDSERV                               #  IT IS NOT
001445: 33,6006           04000                           TC       INTPRET
001446:
001447: 33,6007           76776                           ITC      0
001448: 33,6010           12511                                    CALCVGB
001449:
001450: 33,6011           77576                           EXIT     0
001451:
001452: 33,6012           02276                           TC       PHASCHNG
001453: 33,6013           00505                           OCT      00505
001454:
001455: 33,6014           11446        REDO5.5            CCS      VGCNTR
001456: 33,6015           06017                           TC       +2                                    #  BEFORE TESTING VG AND GENERATING STEERIN
001457: 33,6016           06034                           TC       JUMP10                                #  COMMANDS
001458:
001459: 33,6017           51360                           TS       ERRORSUM                              #  ZERO STEER ERROR SUM
001460: 33,6020           51361                           TS       ERRORSUM   +1
001461: 33,6021           51362                           TS       ERRORSUM   +2
001462: 33,6022           51363                           TS       ERRORSUM   +3
001463: 33,6023           51364                           TS       ERRORSUM   +4
001464: 33,6024           51365                           TS       ERRORSUM   +5
001465:
001466: 33,6025           36033                           CAF      MDTINIT
001467: 33,6026           51444                           TS       MDT
001468: 33,6027           51445                           TS       MDT        +1
001469:
001470: 33,6030           11446                           CCS      VGCNTR
001471: 33,6031           51446                           TS       VGCNTR
001472:
001473: 33,6032           06251                           TC       ENDSERV
001474:
001475: 33,6033           00076        MDTINIT            DEC      0.00381                               #  16FT/S/S FOR 2.5 SECS AT 2(+5)M/CS
001476:
001477: 33,6034           03460        JUMP10             TC       FLAG2DWN                              #  REMOVE CALC FLAG (KILLS ATTITUDE MAN-
001478: 33,6035           02000                           OCT      02000                                 #  EUVER IF STILL ACTIVE)
001479:
001480: 33,6036           04000                           TC       INTPRET
001481:
001482: 33,6037           75775                           VXSC     1
001483: 33,6040           46753                           BVSU     UNIT
001484: 33,6041           01002                                    DELV
001485: 33,6042           21730                                    KPIP
001486: 33,6043           01411                                    CBDT
001487: 33,6044           33403                           STORE    UNITMDT
001488:
001489: 33,6045           47575                           NOLOD    1                                     #  TEST IF VG INCREASING WITH THRUST
001490: 33,6046           42616                           DOT      BPL
001491: 33,6047           01353                                    VG
001492: 33,6050           26245                                    VGALARM                               #  IT IS. BRANCH TO CUT ENGINE AND WAIT
001493: 33,6051           32033                           STORE    26D                                   #  VG ACTUAL
001494: 33,6052           70776                           DAD      0                                     #  SUM TWO INTERVALS OF MDT
001495: 33,6053           00037                                    30D
001496: 33,6054           01445                                    MDT
001497:
001498: 33,6055           43574                           TEST     2
001499: 33,6056           47522                           NOLOD    DMP
001500: 33,6057           70776                           DAD
001501: 33,6060           00054                                    SPS2FLAG
001502: 33,6061           26066                                    JUMP9
001503: 33,6062           26171                                    1.523
001504: 33,6063           00033                                    26D
001505: 33,6064           32033                           STORE    26D
001506:
001507: 33,6065           64773        JUMP9              DMP      3                                     #  RESCALE VG ACTUAL TO 2(+5)M/CS
001508: 33,6066           63746                           TSLT     BOV
001509: 33,6067           62746                           DDV      BOV                                   #  IF NO OVER FLOW ON DIVISION, LESS THAN
001510: 33,6070           64772                           DMP      ITC                                   #  2 INTERVALS OF VG LEFT
001511: 33,6071           00033                                    26D
001512: 33,6072           26173                                    0.995
001513: 33,6073           00004                                    3
001514: 33,6074           26102                                    STEERLAW
001515: 33,6075           77777                                    -
001516: 33,6076           26102                                    STEERLAW
001517: 33,6077           01030                                    DELTAT
001518: 33,6100           26203                                    SETTGO                                #  BRANCH TO SET TIME-TO-GO TO CUT-OFF
001519:
001520: 33,6101           45176        STEERLAW           DMOVE    0                                     #  SAVE NEW VALUE OF MDT
001521: 33,6102           00037                                    30D
001522: 33,6103           33445                           STORE    MDT
001523:
001524: 33,6104           64776                           DMP      0
001525: 33,6105           26175                                    K1STEER                               #  =(0.815...)(STEER GAIN)
001526: 33,6106           01030                                    DELTAT
001527:
001528: 33,6107           71173                           ABVAL    3                                     #  STEERING CROSS PRODUCT COMPUTED HERE
001529: 33,6110           57706                           TSLC     BDDV
001530: 33,6111           75606                           VXSC     VXV
001531: 33,6112           44376                           VSLT*
001532: 33,6113           01353                                    VG
001533: 33,6114           00050                                    X2
001534: 33,6115           77777                                    -
001535: 33,6116           01353                                    VG
001536: 33,6117           01403                                    UNITMDT
001537: 33,6120           00002                                    0,2
001538: 33,6121           33345                           STORE    STEERROR                              #  FIRST TERM IN STEERLAW OUTPUT. SCALED
001539:                                                                                                  #  AT ONE REVOLUTION
001540: 33,6122           47575                           NOLOD    1                                     #  INCREMENT SUM OF STEER ERRORS
001541: 33,6123           75642                           VXSC     VAD
001542: 33,6124           26177                                    K2STEER                               #  =(INTEGRATOR GAIN)/(STEER GAIN)
001543: 33,6125           01361                                    ERRORSUM
001544:
001545: 33,6126           47574                           NOLOD    2                                     #  TEST IF MAGNITUDE OF INTEGRATED STEER
001546: 33,6127           71132                           ABVAL    DSU                                   #  ERROR EXCEEDS MAX ALLOWABLE
001547: 33,6130           43776                           BPL
001548: 33,6131           26201                                    ERRORMAX
001549: 33,6132           26136                                    SUMPOINT
001550:
001551: 33,6133           75176                           VMOVE    0
001552: 33,6134           33361                           STORE    ERRORSUM                              #  STORE NEW STEER ERROR SUM
001553:
001554: 33,6135           50775        SUMPOINT           VAD      1                                     #  SUM ERROR AND INTEGRATED ERROR TERMS
001555: 33,6136           76572                           RTB      ITC
001556: 33,6137           01345                                    STEERROR
001557: 33,6140           01361                                    ERRORSUM
001558: 33,6141           20264                                    FRESHPD
001559: 33,6142           12373                                    CDUDRIVE                              #  BRANCH WITH TOTAL STEERLAW OUTPUT IN VAC
001560:                                                                                                  #  SCALED AT ONE REVOLUTION
001561: 33,6143           44775        STREXIT            VSLT     1
001562: 33,6144           47175                           COMP     EXIT                                  #  RESCALE VG TO 2(+5)M/CS FOR DISPLAY
001563: 33,6145           01353                                    VG
001564: 33,6146           00003                                    2
001565:
001566: 33,6147           03310                           TC       GRABDSP                               #  TRY TO GRAB DISPLAY
001567: 33,6150           06166                           TC       NODISP                                #  ALREADY GRABBED. SKIP VG DISPLAY
001568:
001569: 33,6151           20067                           INDEX    FIXLOC                                #  LOAD UPPER REGISTERS OF VG INTO DSPTEM1
001570: 33,6152           40040                           CS       VAC
001571: 33,6153           50616                           TS       DSPTEM1
001572:
001573: 33,6154           20067                           INDEX    FIXLOC
001574: 33,6155           40042                           CS       VAC        +2
001575: 33,6156           50617                           TS       DSPTEM1    +1
001576:
001577: 33,6157           20067                           INDEX    FIXLOC
001578: 33,6160           40044                           CS       VAC        +4
001579: 33,6161           50620                           TS       DSPTEM1    +2
001580:
001581: 33,6162           36167                           CAF      V06N40
001582: 33,6163           03106                           TC       NVSUB
001583: 33,6164           03256                           TC       RELDSPON
001584:
001585: 33,6165           03370                           TC       FREEDSP
001586:
001587: 33,6166           06251        NODISP             TC       ENDSERV
001588:
001589: 33,6167           00640        V06N40             OCT      00640                                 #  VERB 06 NOUN 40
001590: 33,6170           06057 03250  1.523              2DEC     1.523      B-3
001591: 33,6172           37656 02437  0.995              2DEC     0.995
001592: 33,6174           03204 33423  K1STEER            2DEC     0.101859164                            #  (STEER GAIN =1/8)
001593: 33,6176           02436 27024  K2STEER            2DEC     0.08                                  #  (INTEGRATOR GAIN =0.01)
001594: 33,6200           00026 30133  ERRORMAX           2DEC     0.001388888                            #  1 DEGREE SCALED AT 2 REVS
001595:
001596: 33,6202           47574        SETTGO             NOLOD    2                                     #  COME HERE TO SET ENGINE-OFF CALL
001597: 33,6203           56633                           TSRT     COMP
001598: 33,6204           43575                           TEST     EXIT
001599: 33,6205           00005                                    4                                     #  C(MPAC) = TIME-TO-CUTOFF SINCE PIPTIME
001600: 33,6206           00035                                    STEERFLG                              #  SCALED AT 2(+14) CS
001601: 33,6207           26144                                    STREXIT
001602:
001603: 33,6210           30115                           XCH      MPAC
001604: 33,6211           51460                           TS       LONGTIME                              #  SAVE MPAC  (USED IN RESTARTS)
001605:
001606: 33,6212           20017        REDO4.1            INHINT
001607: 33,6213           40036                           CS       TIME1
001608: 33,6214           50666                           TS       TBASE4
001609: 33,6215           61465                           AD       PIPTIME    +1
001610: 33,6216           10000                           CCS      A
001611: 33,6217           64500                           AD       BIT15
001612: 33,6220           06223                           TC       +3
001613: 33,6221           64516                           AD       ONE
001614: 33,6222           40000                           COM
001615:
001616: 33,6223           61460                           AD       LONGTIME                              #  (TEMP FOR MPAC)
001617: 33,6224           61560                           AD       TDECAY                                #  EFFECTIVE THRUST DECAY TIME
001618: 33,6225           51461                           TS       LONGTIME   +1
001619: 33,6226           10000                           CCS      A                                     #  TEST FOR - OR 0 WAITLIST CALLS
001620: 33,6227           06232                           TC       +3
001621: 33,6230           06232                           TC       +2
001622: 33,6231           35501                           CAF      ZERO
001623: 33,6232           64516                           AD       ONE
001624: 33,6233           02173                           TC       WAITLIST
001625: 33,6234           64755                           CADR     ENGINOFF
001626:
001627: 33,6235           02276                           TC       PHASCHNG
001628: 33,6236           00104                           OCT      00104
001629:
001630: 33,6237           03436                           TC       FLAG1DWN                              #  REMOVE STEER FLAG
001631: 33,6240           00010                           OCT      00010
001632:
001633: 33,6241           02276                           TC       PHASCHNG
001634: 33,6242           00204                           OCT      00204
001635:
001636: 33,6243           06251                           TC       ENDSERV
001637:
001638: 33,6244           77576        VGALARM            EXIT     0
001639: 33,6245           03015                           TC       ALARM
001640: 33,6246           01401                           OCT      01401
001641:
001642: 33,6247           05654                           TC       BANKCALL
001643: 33,6250           67217                           CADR     SHUTDOWN
001644:
001645: 33,6251           11030        ENDSERV            CCS      DELTAT     +1                         #  IF BIT1 PRESENT IN DELTAT +1, SET DELTAT
001646: 33,6252           36262                           CAF      HALFSEC                               #  1/PIPADT TO 2.5SECS (FOR ABORT STEERING)
001647: 33,6253           66263                           AD       TWOSEC
001648: 33,6254           51027                           TS       DELTAT
001649: 33,6255           60000                           DOUBLE
001650: 33,6256           50755                           TS       1/PIPADT
001651:
001652: 33,6257           02276                           TC       PHASCHNG
001653: 33,6260           00105                           OCT      00105
001654:
001655: 33,6261           02124                           TC       ENDOFJOB
001656:
001657: 33,6262           03100        HALFSEC            DEC      50         B-9
001658: 33,6263           14400        TWOSEC             DEC      200        B-9
001659: 33,6264           00007        ALLABORT           OCT      7
001660:
001661:
001662: 33,6265           53574        BURNINIT           AXC,1    2                                     #  C(X1)= 0  (TABT,ABRT,SPS1)
001663: 33,6266           45415                           ITA      TEST                                  #       =-2  (SPS2)
001664: 33,6267           53576                           AXC,1
001665: 33,6270           00001                                    0
001666: 33,6271           00052                                    S2
001667: 33,6272           00054                                    SPS2FLAG
001668: 33,6273           26276                                    +2
001669: 33,6274           00003                                    2
001670:
001671: 33,6275           76776                           ITC      0                                     #  COMPUTE DESIRED THRUST DIRECTION
001672: 33,6276           13501                                    CALCXSC
001673:
001674: 33,6277           76575                           RTB      1                                     #  SET UP CG ROTATION MATRIX IN PD
001675: 33,6300           42176                           SMOVE*
001676: 33,6301           20270                                    ZEROVAC
001677: 33,6302           27461                                    CGZ,1
001678: 33,6303           32007                           STORE    6
001679:
001680: 33,6304           47575                           NOLOD    1
001681: 33,6305           47065                           COMP     AST,1
001682: 33,6306           00007                                    6
001683: 33,6307           32003                           STORE    2
001684:
001685: 33,6310           42176                           SMOVE*   0
001686: 33,6311           27451                                    CGY,1
001687: 33,6312           32005                           STORE    4
001688:
001689: 33,6313           47575                           NOLOD    1
001690: 33,6314           47165                           COMP     AXT,1
001691: 33,6315           00023                                    18D
001692: 33,6316           32015                           STORE    12D
001693:
001694: 33,6317           74174        REPEAT2            VMOVE*   2                                     #  COMPUTE DESIRED SPACECRAFT ATTITUDE
001695: 33,6320           51640                           VXM      VAD*                                  #  MATRIX FROM DESIRED THRUST ATT. MATRIX
001696: 33,6321           73176                           UNIT
001697: 33,6322           00045                                    18D,1
001698: 33,6323           01367                                    XSC
001699: 33,6324           03021                                    XSC        +18D,1
001700: 33,6325           37065                           STORE    XSCD       +18D,1
001701:
001702: 33,6326           51575                           TIX,1    1
001703: 33,6327           44576                           ITCI
001704: 33,6330           26320                                    REPEAT2
001705: 33,6331           00052                                    S2
001706:
001707: 33,6332           04000        ROLLJOB            TC       INTPRET
001708:
001709: 33,6333           75575                           AXT,1    1                                     #  GET SIN,COS OF THETAD,+1,+2
001710: 33,6334           54572                           AST,2    ITC
001711: 33,6335           00007                                    6
001712: 33,6336           26364                                    ROLLEXIT
001713: 33,6337           12013                                    THETRIG
001714:
001715: 33,6340           76776                           ITC      0                                     #  COMPUTE NAV. BASE CORRDINATES
001716: 33,6341           12110                                    CALCSMNB
001717:
001718: 33,6342           75776                           VXSC     0                                     #  COMPUTE XSC
001719: 33,6343           01477                                    XNB
001720: 33,6344           12241                                    COS33
001721:
001722: 33,6345           75775                           VXSC     1
001723: 33,6346           50776                           VAD
001724: 33,6347           01513                                    ZNB
001725: 33,6350           12237                                    SIN33
001726: 33,6351           32027                           STORE    22D
001727:
001728: 33,6352           47573        HEADWN1            NOLOD    3
001729: 33,6353           41753                           VXV      UNIT                                  #  =KR(TVC)(UNIT(XSC*RN)*YSC), WHERE
001730: 33,6354           41766                           VXV      VXSC                                  #        DT(MAX) = 10 SECS,
001731: 33,6355           44772                           VSLT     ITC                                   #        MAX ROLL GAIN = 1.0
001732: 33,6356           00766                                    RN
001733: 33,6357           01505                                    YNB                                   #  ( =YSC)
001734: 33,6360           26407                                    KR(TVC)                               #  TVC ROLL CONTROL GAIN
001735: 33,6361           00004                                    3
001736: 33,6362           12400                                    CDUDRVE2                              #  SUBENTRY OF CDUDRIVE
001737:
001738: 33,6363           77576        ROLLEXIT           EXIT     0
001739:
001740: 33,6364           40646                           CS       FLAGWRD1                              #  TEST IF STEER FLAG SET BEFORE SETTING
001741: 33,6365           74513                           MASK     BIT4                                  #  BURN MAJOR MODE
001742: 33,6366           10000                           CCS      A
001743: 33,6367           02124                           TC       ENDOFJOB
001744:
001745: 33,6370           34512                           CAF      BIT5                                  #  TEST IF BURN SWITCH IS SET TO SPS2
001746: 33,6371           70647                           MASK     FLAGWRD2
001747: 33,6372           10000                           CCS      A
001748: 33,6373           06403                           TC       SPS2MODE                              #  IT IS
001749:
001750: 33,6374           40647                           CS       FLAGWRD2                              #  TEST IF BURN IS SPS1
001751: 33,6375           74513                           MASK     BIT4
001752: 33,6376           10000                           CCS      A
001753: 33,6377           02124                           TC       ENDOFJOB                              #  IT IS NOT
001754:
001755: 33,6400           02362                           TC       NEWMODE                               #  SET MAJOR MODE TO SPS1
001756: 33,6401           00041                           OCT      00041
001757: 33,6402           02124                           TC       ENDOFJOB
001758:
001759: 33,6403           02362        SPS2MODE           TC       NEWMODE                               #  SET MAJOR MODE TO SPS2
001760: 33,6404           00042                           OCT      00042
001761:
001762: 33,6405           02124                           TC       ENDOFJOB
001763:
001764: 33,6406           00516 07363  KR(TVC)            2DEC     0.0204                                #  ROLL GAIN =0.05, DT =5.0 SECS
001765:
001766:
001767:                                                                                                  #  THIS ROUTINE CONTROLS THE USE OF CALCMANU IN COMPUTING, TIMING AND PERFORMING THE SEQUENCE OF MANEUVERS DURING
001768:                                                                                                  #  A LARGE ATTITUDE MANEUVER. FLIGHT 202 INVOLVES SUCH A MANEUVER WHEN ORIENTING TO
001769:                                                                                                  #        1.  ABORT BURN INITIAL ATTITUDE AFTER A TUMBLE ARREST
001770:                                                                                                  #        2.  NOMINAL FIRST BURN INITIAL ATTITUDE
001771:                                                                                                  #        3.  LOCAL VERTICAL AFTER NOMINAL FIRST BURN
001772:                                                                                                  #        4.  NOMINAL SECOND BURN INITIAL ATTITUDE
001773:                                                                                                  #        5.  SM/CM SEPARATION ATTITUDE
001774:                                                                                                  #        6.  CM PRE-ENTRY ATTITUDE
001775:
001776:
001777:
001778: 33,6410           05654        ATTIJOB            TC       BANKCALL
001779: 33,6411           30223                           CADR     IMUATTC
001780:
001781: 33,6412           03502                           TC       SETHETAD
001782:
001783: 33,6413           05654                           TC       BANKCALL
001784: 33,6414           30331                           CADR     IMUSTALL
001785: 33,6415           03074                           TC       CURTAINS
001786:
001787: 33,6416           04000                           TC       INTPRET
001788:
001789: 33,6417           76776        ATTIJOB1           ITC      0
001790: 33,6420           26512                                    GETMANU
001791:
001792: 33,6421           77576                           EXIT     0
001793:
001794: 33,6422           20017                           INHINT
001795: 33,6423           34516                           CAF      0.01SEC
001796: 33,6424           02173                           TC       WAITLIST
001797: 33,6425           66537                           CADR     DOMANU
001798:
001799: 33,6426           40647                           CS       FLAGWRD2
001800: 33,6427           74513                           MASK     BIT4
001801: 33,6430           10000                           CCS      A
001802: 33,6431           02124                           TC       ENDOFJOB
001803:
001804: 33,6432           02276                           TC       PHASCHNG
001805: 33,6433           00502                           OCT      00502
001806:
001807: 33,6434           02124                           TC       ENDOFJOB
001808:
001809:
001810:
001811: 33,6435           04000        ATTIJOB2           TC       INTPRET
001812:
001813: 33,6436           76776                           ITC      0
001814: 33,6437           26512                                    GETMANU
001815:
001816: 33,6440           77576                           EXIT     0
001817: 33,6441           02124                           TC       ENDOFJOB
001818:
001819:
001820:
001821: 33,6442           47576        SNAPOUT            NOLOD    0
001822: 33,6443           32701                           STORE    THETAD
001823:
001824: 33,6444           43575                           TEST     1                                     #  TEST IF SHTDN FLAG SET (I.E. HAS FREE-
001825: 33,6445           43575                           TEST     EXIT                                  #  FALL INTERUPT OCCURRED)
001826: 33,6446           00025                                    SHTDNFLG
001827: 33,6447           26461                                    JUMP7
001828: 33,6450           00043                                    CDUXFLAG                              #  TEST IF CDUXFLAG SET (I.E. HAS CM/SM
001829: 33,6451           26505                                    ENDMANU                               #  SEPARATION OCCURRED)
001830:
001831: 33,6452           03424                           TC       FLAG1UP                               #  SET ENTRY FLAG
001832: 33,6453           00004                           OCT      00004
001833:
001834: 33,6454           44516                           CS       ONE
001835: 33,6455           02312                           TC       NEWPHASE
001836: 33,6456           00003                           OCT      00003
001837:
001838: 33,6457           02124                           TC       ENDOFJOB
001839:
001840: 33,6460           43575        JUMP7              TEST     1
001841: 33,6461           77576                           EXIT
001842: 33,6462           00022                                    COASTFLG
001843: 33,6463           26472                                    JUMP6
001844:
001845: 33,6464           03424                           TC       FLAG1UP                               #  SET VERTFLAG FOR BEGINNING OF CONTROL
001846: 33,6465           10000                           OCT      10000                                 #    AT VERTICAL ATTITUDE
001847:
001848: 33,6466           02362                           TC       NEWMODE
001849: 33,6467           00022                           OCT      00022
001850:
001851: 33,6470           06505                           TC       ENDMANU    +1
001852:
001853: 33,6471           43576        JUMP6              TEST     0
001854: 33,6472           00056                                    TABTFLAG
001855: 33,6473           26505                                    ENDMANU
001856:
001857: 33,6474           77576                           EXIT     0
001858:
001859: 33,6475           20017                           INHINT
001860: 33,6476           34516                           CAF      0.01SEC
001861: 33,6477           02173                           TC       WAITLIST
001862: 33,6500           64577                           CADR     ATTCNOFF
001863:
001864: 33,6501           35503                           CAF      TWO                                   #  SET VGCNTR FOR THREE PASSES THROUGH
001865: 33,6502           51446                           TS       VGCNTR                                #  CALCVGB BEFORE STARTING ABORT STEERING
001866:
001867: 33,6503           06505                           TC       ENDMANU    +1
001868:
001869: 33,6504           77576        ENDMANU            EXIT     0
001870:
001871: 33,6505           44516                           CS       ONE
001872: 33,6506           02312                           TC       NEWPHASE
001873: 33,6507           00002                           OCT      2
001874: 33,6510           02124                           TC       ENDOFJOB
001875:
001876:
001877: 33,6511           45575        GETMANU            ITA      1
001878: 33,6512           76776                           ITC
001879: 33,6513           01475                                    EXITCAD1
001880: 33,6514           14001                                    CALCMANU
001881:
001882: 33,6515           43576                           TEST     0
001883: 33,6516           00046                                    CALCFLAG
001884: 33,6517           26443                                    SNAPOUT
001885:
001886: 33,6520           53574                           AXC,1    2
001887: 33,6521           43455                           TEST     AXC,1
001888: 33,6522           43455                           TEST     AXC,1
001889: 33,6523           00001                                    0
001890: 33,6524           00045                                    ROLLFLAG
001891: 33,6525           26533                                    SETDTH
001892: 33,6526           00003                                    2
001893: 33,6527           00043                                    CDUXFLAG
001894: 33,6530           26533                                    SETDTH
001895: 33,6531           00005                                    4
001896:
001897: 33,6532           44176        SETDTH             DMOVE*   0
001898: 33,6533           33461                                    DTH,1
001899: 33,6534           33453                           STORE    DTHETA
001900:
001901: 33,6535           44576                           ITCI     0
001902: 33,6536           01475                                    EXITCAD1
001903:
001904:
001905:
001906: 33,6537     4516               0.01SEC            EQUALS   BIT1
001907:
001908:
001909: 33,6537           03446        DOMANU             TC       FLAG2UP                               #  SET DOMANU FLAG
001910: 33,6540           01000        DOMANMSK           OCT      01000
001911:
001912: 33,6541           40647        DOMANU1            CS       FLAGWRD2                              #  KILL DOMANU IF CALC FLAG NOT SET
001913: 33,6542           74504                           MASK     BIT11                                 #  (CALCMASK)
001914: 33,6543           10000                           CCS      A
001915: 33,6544           06564                           TC       DOMANOFF
001916:
001917: 33,6545           36540                           CAF      DOMANMSK                              #  TEST IF DOMAN FLAG SET
001918: 33,6546           70647                           MASK     FLAGWRD2
001919: 33,6547           10000                           CCS      A
001920: 33,6550           06555                           TC       SETMANU                               #  IT IS
001921:
001922: 33,6551           36570                           CAF      TPAD       +1                         #  IT IS NOT. START NEXT MANEUVER IN TPAD
001923: 33,6552           02173                           TC       WAITLIST                              #  SECS
001924: 33,6553           66537                           CADR     DOMANU
001925:
001926: 33,6554           02256                           TC       TASKOVER
001927:
001928: 33,6555           32156        SETMANU            CAF      PRIO23                                #  ESTABLISH MANUJOB
001929: 33,6556           02046                           TC       FINDVAC
001930: 33,6557           66572                           CADR     MANUJOB
001931:
001932: 33,6560           36571                           CAF      0.5SEC                                #  RECALL DOMANU1 IN 0.5 SECS
001933: 33,6561           02173                           TC       WAITLIST
001934: 33,6562           66541                           CADR     DOMANU1
001935:
001936: 33,6563           02256                           TC       TASKOVER
001937:
001938: 33,6564           03460        DOMANOFF           TC       FLAG2DWN                              #  REMOVE DOMANU FLAG
001939: 33,6565           01000                           OCT      01000
001940:
001941: 33,6566           02256                           TC       TASKOVER
001942:
001943:
001944:
001945: 33,6567           00000        TPAD               DEC      0.0
001946: 33,6570           00764        5SEC               DEC      500        B-14
001947: 33,6571           00062        0.5SEC             DEC      50         B-14
001948:
001949:
001950:
001951: 33,6572           04000        MANUJOB            TC       INTPRET
001952:
001953: 33,6573           66775                           DSU      1                                     #  TEST IF THETAMAN LESS THAN DTHETA.
001954: 33,6574           43633                           BPL      COMP
001955: 33,6575           01453                                    DTHETA
001956: 33,6576           01455                                    THETAMAN
001957: 33,6577           26604                                    JUMP4                                 #  IT IS. STORE REMAINING THETAMAN
001958: 33,6600           33455                           STORE    THETAMAN
001959: 33,6601           76776                           ITC      0
001960: 33,6602           26613                                    DRIVECDU
001961:
001962: 33,6603           45176        JUMP4              DMOVE    0                                     #  STORE REMAINING THETAMAN IN DTHETA
001963: 33,6604           01455                                    THETAMAN
001964: 33,6605           33453                           STORE    DTHETA
001965:
001966: 33,6606           77576                           EXIT     0
001967:
001968: 33,6607           03460                           TC       FLAG2DWN                              #  REMOVE DOMAN FLAG
001969: 33,6610           01000                           OCT      01000
001970:
001971: 33,6611           04000                           TC       INTPRET
001972:
001973: 33,6612           75775        DRIVECDU           VXSC     1                                     #  FORM INCREMENTAL MANEUVER VECTOR
001974: 33,6613           44772                           VSLT     ITC
001975: 33,6614           01323                                    WC
001976: 33,6615           01453                                    DTHETA
001977: 33,6616           00002                                    1
001978: 33,6617           12373                                    CDUDRIVE
001979:
001980: 33,6620           43576                           TEST     0                                     #  TEST IF DOMAN FLAG SET
001981: 33,6621           00047                                    DOMANFLG
001982: 33,6622           26626                                    RETURN1                               #  IT IS NOT. CHECK SPS1
001983:
001984: 33,6623           77576                           EXIT     0
001985: 33,6624           02124                           TC       ENDOFJOB
001986:
001987: 33,6625           43576        RETURN1            TEST     0                                     #  TEST IF THIS IS SPS1
001988: 33,6626           00055                                    SPS1FLAG
001989: 33,6627           26635                                    NEXTMAN                               #  IT IS NOT. GET NEXT MANEUVER
001990: 33,6630           77576                           EXIT     0
001991:
001992: 33,6631           03460                           TC       FLAG2DWN
001993: 33,6632           02000                           OCT      02000
001994:
001995: 33,6633           06505                           TC       ENDMANU    +1
001996:
001997: 33,6634           77576        NEXTMAN            EXIT     0
001998:
001999: 33,6635           20017                           INHINT
002000: 33,6636           32146                           CAF      PRIO12                                #  ESTABLISH ATTIJOB2 TO COMPUTE NEXT MAN.
002001: 33,6637           02046                           TC       FINDVAC
002002: 33,6640           66435                           CADR     ATTIJOB2
002003:
002004: 33,6641           02124                           TC       ENDOFJOB
002005:
002006:
002007: 33,6642           02362        VERTINIT           TC       NEWMODE                               #  SET MAJOR MODE TO MANEUVER TO VERTICAL
002008: 33,6643           00021                           OCT      00021
002009:
002010: 33,6644           04000                           TC       INTPRET
002011:
002012: 33,6645           75175                           VMOVE    1
002013: 33,6646           47176                           COMP
002014: 33,6647           01016                                    REFRCV
002015: 33,6650           33411                           STORE    XSCD
002016:
002017: 33,6651           47574                           NOLOD    2
002018: 33,6652           41753                           VXV      UNIT
002019: 33,6653           47176                           COMP
002020: 33,6654           00774                                    REFVRECT
002021: 33,6655           33417                           STORE    YSCD
002022:
002023: 33,6656           47574                           NOLOD    2
002024: 33,6657           41753                           VXV      UNIT
002025: 33,6660           47176                           COMP
002026: 33,6661           01411                                    XSCD
002027: 33,6662           33425                           STORE    ZSCD
002028:
002029: 33,6663           76776                           ITC      0                                     #  BRANCH TO DO MANEUVER
002030: 33,6664           26420                                    ATTIJOB1
002031:
002032:
002033: 33,6665           45501        VERTASK            CS       ZERO                                  #  COME HERE FIRST TIME ONLY. CLEAR OUT
002034: 33,6666           51001                           TS       DELV                                  #  DELV FOR FREE-FALL COMPUTATIONS
002035: 33,6667           51002                           TS       DELV       +1
002036: 33,6670           51003                           TS       DELV       +2
002037: 33,6671           51004                           TS       DELV       +3
002038: 33,6672           51005                           TS       DELV       +4
002039: 33,6673           51006                           TS       DELV       +5
002040:
002041: 33,6674           34500        VERTASK1           CAF      BIT15                                 #  TEST IF COAST FLAG SET
002042: 33,6675           70646                           MASK     FLAGWRD1
002043: 33,6676           10000                           CCS      A
002044: 33,6677           03070                           TC       CCSHOLE
002045: 33,6700           02256                           TC       TASKOVER
002046:
002047: 33,6701           35362                           CAF      SEVEN
002048: 33,6702           02312                           TC       NEWPHASE
002049: 33,6703           00005                           OCT      0005
002050:
002051: 33,6704           40036        REDO5.7            CS       TIME1
002052: 33,6705           50667                           TS       TBASE5
002053:
002054: 33,6706           34513                           CAF      EIGHT
002055: 33,6707           02312                           TC       NEWPHASE
002056: 33,6710           00005                           OCT      00005
002057:
002058: 33,6711           36720                           CAF      2SEC33
002059: 33,6712           02173                           TC       WAITLIST
002060: 33,6713           66674                           CADR     VERTASK1
002061:
002062: 33,6714           32147                           CAF      PRIO13
002063: 33,6715           02046                           TC       FINDVAC
002064: 33,6716           66721                           CADR     VERTIJOB
002065:
002066: 33,6717           02256                           TC       TASKOVER
002067:
002068: 33,6720           00310        2SEC33             DEC      200        B-14
002069:
002070:
002071: 33,6721           04000        VERTIJOB           TC       INTPRET
002072:
002073: 33,6722           76776                           ITC      0
002074: 33,6723           21540                                    CALCRVG
002075:
002076: 33,6724           04000                           TC       INTPRET
002077:
002078: 33,6725           43575                           TEST     1
002079: 33,6726           75572                           AXT,1    ITC
002080: 33,6727           00024                                    VERTFLAG
002081: 33,6730           27105                                    EXITLOC4
002082: 33,6731           00007                                    6
002083: 33,6732           12001                                    CDUTRIG
002084:
002085: 33,6733           76776                           ITC      0
002086: 33,6734           12110                                    CALCSMNB
002087:
002088: 33,6735           76776                           ITC      0
002089: 33,6736           12213                                    CALCNBSC
002090:
002091: 33,6737           41775                           VXV      1
002092: 33,6740           75622                           VXSC     VSLT
002093: 33,6741           01016                                    REFRCV
002094: 33,6742           01367                                    XSC
002095: 33,6743           27117                                    XRATE
002096: 33,6744           00004                                    3
002097:
002098: 33,6745           41775                           VXV      1
002099: 33,6746           73006                           UNIT     VXV
002100: 33,6747           00774                                    VN
002101: 33,6750           00766                                    RN
002102: 33,6751           01375                                    YSC
002103:
002104: 33,6752           40774                           VPROJ    2
002105: 33,6753           75622                           VXSC     VSLT
002106: 33,6754           50772                           VAD      ITC
002107: 33,6755           01367                                    XSC
002108: 33,6756           77777                                    -
002109: 33,6757           27115                                    YRATE
002110: 33,6760           00006                                    5
002111: 33,6761           77777                                    -
002112: 33,6762           12243                                    SMCDURES
002113:
002114: 33,6763           44773                           VSLT     3
002115: 33,6764           76571                           RTB      RTB
002116: 33,6765           66732                           DSU      DSU
002117: 33,6766           73776                           BMN
002118: 33,6767           01345                                    DCDU
002119: 33,6770           00002                                    1
002120: 33,6771           20423                                    INCRCDUS
002121: 33,6772           20252                                    LOADTIME
002122: 33,6773           01463                                    TCUTOFF
002123: 33,6774           27121                                    VERTIME
002124: 33,6775           27105                                    EXITLOC4
002125:
002126: 33,6776           45176                           DMOVE    0                                     #  SET DELTAT TO 4 SECS FOR ORBITAL INT.
002127: 33,6777           27113                                    DT4SEC
002128: 33,7000           33030                           STORE    DELTAT
002129:
002130: 33,7001           75176                           VMOVE    0                                     #  SAVE VRECT AND RRECT IN CASE OF RESTARTS
002131: 33,7002           01101                                    RRECT
002132: 33,7003           33656                           STORE    RRECCMEM
002133:
002134: 33,7004           75176                           VMOVE    0
002135: 33,7005           01107                                    VRECT
002136: 33,7006           33664                           STORE    VRECCMEM
002137:
002138: 33,7007           77576                           EXIT     0
002139: 33,7010           02276                           TC       PHASCHNG
002140: 33,7011           01205                           OCT      01205
002141:
002142: 33,7012           03436        REDO5.10           TC       FLAG1DWN                              #  REMOVE COAST, VERT FLAGS
002143: 33,7013           50000                           OCT      50000
002144:
002145: 33,7014           04000                           TC       INTPRET
002146:
002147: 33,7015           75176                           VMOVE    0                                     #  RESTORE RRECT AND VRECT FROM CMEMORY.
002148: 33,7016           01656                                    RRECCMEM
002149: 33,7017           33101                           STORE    RRECT
002150:
002151: 33,7020           75176                           VMOVE    0
002152: 33,7021           01664                                    VRECCMEM
002153: 33,7022           33107                           STORE    VRECT
002154:
002155: 33,7023           76776                           ITC      0                                     #  BRANCH TO DO ORBITAL INTEGRATION
002156: 33,7024           20001                                    AVETOMD1
002157:
002158: 33,7025           75176                           VMOVE    0
002159: 33,7026           01231                                    RIG-4SEC
002160: 33,7027           32766                           STORE    RN                                    #  SET RN TO 4 SECS BEFORE IGNITION
002161:
002162: 33,7030           76575                           RTB      1
002163: 33,7031           76776                           ITC
002164: 33,7032           20264                                    FRESHPD
002165: 33,7033           21632                                    CALCGRAV
002166:
002167: 33,7034           75575                           AXT,1    1                                     #  GET VR AT 4 SECS BEFORE IGNITION
002168: 33,7035           67572                           SXA,1    ITC
002169: 33,7036           12552                                    202SPS2
002170: 33,7037           01471                                    VRCADR
002171: 33,7040           12511                                    CALCVGB
002172:
002173: 33,7041           75176                           VMOVE    0
002174: 33,7042           01107                                    VIGNTION
002175: 33,7043           32774                           STORE    VN                                    #  SET VN AT IGNITION
002176:
002177:
002178: 33,7044           75176                           VMOVE    0
002179: 33,7045           01101                                    RIGNTION
002180: 33,7046           32766                           STORE    RN                                    #  SET RN AT IGNITION
002181:
002182: 33,7047           76776                           ITC      0
002183: 33,7050           21632                                    CALCGRAV
002184:
002185: 33,7051           76776                           ITC      0
002186: 33,7052           12511                                    CALCVGB                               #  GET VR AT IGNITION. COMPUTE CBDT
002187:
002188: 33,7053           76776                           ITC      0
002189: 33,7054           26266                                    BURNINIT                              #  INITIALISE BURN
002190:
002191: 33,7055           45176                           DMOVE    0
002192: 33,7056           27111                                    DT2SEC
002193: 33,7057           33030                           STORE    DELTAT                                #  RESTORE DELTAT TO 2 SECS FOR SPS2
002194:
002195: 33,7060           75176                           VMOVE    0
002196: 33,7061           01223                                    VAVEGON
002197: 33,7062           32774                           STORE    VN                                    #  INITIALISE CALCRVG FOR TURN-ON
002198:
002199: 33,7063           75176                           VMOVE    0
002200: 33,7064           01215                                    RAVEGON
002201: 33,7065           32766                           STORE    RN
002202:
002203: 33,7066           76776                           ITC      0
002204: 33,7067           21632                                    CALCGRAV
002205:
002206: 33,7070           77576                           EXIT     0
002207:
002208: 33,7071           34516                           CAF      ONE                                   #  SET VGCNTR FOR TWO PASSES THRU CALCVGB
002209: 33,7072           51446                           TS       VGCNTR                                #  BEFORE SPS2 STEERING
002210:
002211: 33,7073           02362                           TC       NEWMODE                               #  SET MAJOR MODE TO READY FOR R,V,T UPDATE
002212: 33,7074           00024                           OCT      00024
002213:
002214: 33,7075           02276                           TC       PHASCHNG
002215: 33,7076           00302                           OCT      00302
002216:
002217: 33,7077           02276                           TC       PHASCHNG                              #  CHANGE PHASE TO 5.20 TO ENABLE V76 RST.
002218: 33,7100           02405                           OCT      02405
002219:
002220: 33,7101           04000                           TC       INTPRET
002221: 33,7102           76776                           ITC      0
002222: 33,7103           26420                                    ATTIJOB1
002223: 33,7104           77576        EXITLOC4           EXIT     0
002224:
002225: 33,7105           02276                           TC       PHASCHNG
002226: 33,7106           01305                           OCT      01305
002227:
002228: 33,7107           02124                           TC       ENDOFJOB
002229:
002230: 33,7110           14400 00000  DT2SEC             2DEC     200        B-9
002231: 33,7112           31000 00000  DT4SEC             2DEC     400        B-9
002232: 33,7114           03146 14632  YRATE              2DEC     .1
002233: 33,7116           03146 14632  XRATE              2DEC     .1
002234: 33,7120           00014 15705  VERTIME            2DEC     2037.17    E2
002235:
002236:
002237:                                                                                                  #  UPTASK AND UPJOB OCCUR 120 SECS BEFORE PLUSX2 AND INCORPORATE STATE VECTOR UPDATES VIA VERB 76
002238:
002239: 33,7122           37216        UPTASK             CAF      18SEC
002240: 33,7123           02173                           TC       WAITLIST
002241: 33,7124           67203                           CADR     PLUSX1
002242:
002243:
002244: 33,7125           34373                           CAF      PRIO6                                 #  ESTABLISH UPJOB
002245: 33,7126           02046                           TC       FINDVAC
002246: 33,7127           67144                           CADR     UPJOB
002247:
002248: 33,7130           35362                           CAF      SEVEN
002249: 33,7131           02312                           TC       NEWPHASE
002250: 33,7132           00004                           OCT      00004
002251:
002252: 33,7133           40036                           CS       TIME1
002253: 33,7134           50666                           TS       TBASE4
002254:
002255: 33,7135           44516                           CS       ONE                                   #  REMOVE UPDATE RESTART CAPABILITY
002256: 33,7136           02312                           TC       NEWPHASE
002257: 33,7137           00005                           OCT      5
002258:
002259: 33,7140           34513                           CAF      EIGHT
002260: 33,7141           02312                           TC       NEWPHASE
002261: 33,7142           00004                           OCT      00004
002262:
002263: 33,7143           02256                           TC       TASKOVER
002264:
002265: 33,7144           02362        UPJOB              TC       NEWMODE                               #  REVERT TO ATTITUDE HOLD.
002266: 33,7145           00023                           OCT      23
002267:
002268: 33,7146           32564                           CAF      LDNLST1                               #  REVERT BACK TO DOWNLIST 1.
002269: 33,7147           50672                           TS       DNLSTADR
002270:
002271: 33,7150           04000                           TC       INTPRET
002272:
002273: 33,7151           43574                           TEST     2                                     #  NO FURTHER ACTION IF NO V76 COMPLETED.
002274: 33,7152           70742                           DAD      DAD                                   #  IF SO, FORM DT FOR FINAL INTEGRATION.
002275: 33,7153           66776                           DSU
002276: 33,7154           00023                                    UPDATFLG
002277: 33,7155           27200                                    NOSTATE
002278: 33,7156           01463                                    TCUTOFF
002279: 33,7157           01557                                    TCOAST
002280: 33,7160           27215                                    DP20SEC
002281: 33,7161           01115                                    STBUFF     +12D
002282: 33,7162           33211                           STORE    TAVEGON
002283:
002284: 33,7163           76776                           ITC      0
002285: 33,7164           20010                                    AVETOMD2
002286:
002287: 33,7165           75176                           VMOVE    0                                     #  LEAVE RAVEGON, VAVEGON IN RN, VN.
002288: 33,7166           01223                                    VAVEGON
002289: 33,7167           32774                           STORE    VN
002290:
002291: 33,7170           75176                           VMOVE    0
002292: 33,7171           01215                                    RAVEGON
002293: 33,7172           32766                           STORE    RN
002294:
002295: 33,7173           76575                           RTB      1
002296: 33,7174           76776                           ITC
002297: 33,7175           20264                                    FRESHPD
002298: 33,7176           21632                                    CALCGRAV
002299:
002300: 33,7177           77576        NOSTATE            EXIT     0
002301:
002302: 33,7200           02276                           TC       PHASCHNG
002303: 33,7201           01104                           OCT      01104
002304:
002305: 33,7202           03157        REDO4.9            TC       JAMTERM                               #  FLUSH OUT V76 IF STILL IN PINBALL
002306:
002307:
002308:
002309: 33,7203           36720        PLUSX1             CAF      2SEC33
002310: 33,7204           02173                           TC       WAITLIST
002311: 33,7205           65254                           CADR     PLUSX2
002312:
002313: 33,7206           03436                           TC       FLAG1DWN                              #  REMOVE UPDAT FLAG TO KILL ORB. INTEGR.
002314: 33,7207           20000                           OCT      20000
002315:
002316: 33,7210           33537                           CAF      TWENTY7
002317: 33,7211           02312                           TC       NEWPHASE
002318: 33,7212           00004                           OCT      4
002319:
002320: 33,7213           02256                           TC       TASKOVER
002321:
002322: 33,7214           00000 03720  DP20SEC            2DEC     2000       B-28
002323: 33,7216           03410        18SEC              DEC      1800       B-14
002324:
002325:
002326:                                                                                                  #  SHUTDOWN IS A CLOSED SUBROUTINE WHICH IS ENTERED PRIOR TO CM/SM SEPARATION. ITS PURPOSE IS TO CLOSE OUT ALL SCS
002327:                                                                                                  #  FUNCTIONS NOT CONCERNED WITH SEPARATION AND ENTRY, AND TO INITIATE THOSE THAT ARE
002328:
002329: 33,7217           20017        SHUTDOWN           INHINT
002330: 33,7220           32162                           CAF      PRIO27                                #  ESTABLISH HIGH PRIO JOB TO DO SHUTDOWN
002331: 33,7221           02052                           TC       NOVAC
002332: 33,7222           11134                           CADR     ENEMA                                 #  CLEANS OUT EXEC AND WAITLIST.
002333: 33,7223           20016                           RELINT
002334:
002335: 33,7224           34516                           CAF      ONE                                   #  EFFECTIVELY STOP ANY WAITLIST ACTIVITY
002336: 33,7225           50037                           TS       TIME3
002337:
002338: 33,7226           44516                           CS       ONE
002339: 33,7227           02312                           TC       NEWPHASE
002340: 33,7230           00004                           OCT      00004
002341:
002342: 33,7231           44516                           CS       ONE
002343: 33,7232           02312                           TC       NEWPHASE
002344: 33,7233           00002                           OCT      00002
002345:
002346: 33,7234           33240                           CAF      TEN
002347: 33,7235           02312                           TC       NEWPHASE
002348: 33,7236           00003                           OCT      00003
002349:
002350: 33,7237           05702                           TC       SWRETURN                              #  (LOCATION OF TC Q)
002351:
002352:
002353:
002354: 33,7240           20017        SHUTJOB            INHINT
002355: 33,7241           44502                           CS       BIT13                                 #  SHUT OFF ENGINE BIT
002356: 33,7242           70011                           MASK     OUT1
002357: 33,7243           50011                           TS       OUT1
002358:
002359: 33,7244           03413                           TC       RELAYOFF                              #  REMOVE SCS +X TRANS DISCRETE
002360: 33,7245           40020                           OCT      40020
002361:
002362: 33,7246           03436                           TC       FLAG1DWN                              #  REMOVE DVMON, STEER, INIT FLAGS
002363: 33,7247           00430                           OCT      00430
002364:
002365: 33,7250           05654                           TC       BANKCALL                              #  SET IMUCDU TO ATT. CONTROL (MAY BE RE-
002366: 33,7251           30223                           CADR     IMUATTC                               #  DUNDANT CALL)
002367:
002368: 33,7252           03502                           TC       SETHETAD                              #  FORCE THETAD, +1, +2 TO READ CDUX,Y,Z
002369:
002370: 33,7253           36264                           CAF      ALLABORT                              #  TEST IF ANY ABORT BURN SET
002371: 33,7254           70647                           MASK     FLAGWRD2
002372: 33,7255           10000                           CCS      A
002373: 33,7256           07261                           TC       +3                                    #  IT IS
002374:
002375: 33,7257           03470                           TC       SETBRNSW                              #  IT IS NOT. SET BURN TO LAST (SPS4)
002376: 33,7260           00100                           OCT      00100
002377:
002378: 33,7261           05654                           TC       BANKCALL                              #  WAIT FOR MODE SWITCH TO COMPLETE
002379: 33,7262           30331                           CADR     IMUSTALL
002380: 33,7263           03074                           TC       CURTAINS                              #  CATCH-ALL FOR MODE SWITCH FAILURES
002381:
002382: 33,7264           40036                           CS       TIME1
002383: 33,7265           50665                           TS       TBASE3
002384:
002385: 33,7266           34505                           CAF      BIT10                                 #  TEST IF INTP FLAG SET (I.E. HAS 95 SEC
002386: 33,7267           70646                           MASK     FLAGWRD1                              #  INTERUPT OCCURRED)
002387: 33,7270           10000                           CCS      A
002388: 33,7271           07276                           TC       TESTGMP                               #  IT HAS NOT
002389:
002390: 33,7272           34510                           CAF      BIT7                                  #  TEST IF INT1 FLAG SET (I.E. HAS 200 SEC
002391: 33,7273           70646                           MASK     FLAGWRD1                              #  INTEREUPT OCCURRED)
002392: 33,7274           10000                           CCS      A
002393: 33,7275           07306                           TC       SHUTJOB1                              #  IT HAS
002394:
002395: 33,7276           34507        TESTGMP            CAF      BIT8                                  #  TEST IF SCS GMP DISCRETE SET
002396: 33,7277           70725                           MASK     DSPTAB     +13D
002397: 33,7300           10000                           CCS      A
002398: 33,7301           07327                           TC       GMPOFF1                               #  IF IT IS, TURN IT OFF
002399:
002400: 33,7302           34515                           CAF      BIT2                                  #  TEST IF DV MODE SET
002401: 33,7303           70725                           MASK     DSPTAB     +13D
002402: 33,7304           10000                           CCS      A
002403: 33,7305           07336                           TC       DVMODOF1                              #  IF IT IS, TURN IT OFF
002404:
002405: 33,7306           40646        SHUTJOB1           CS       FLAGWRD1                              #  TEST IF SHUTDN FLAG SET
002406: 33,7307           74503                           MASK     BIT12
002407: 33,7310           10000                           CCS      A
002408: 33,7311           07375                           TC       SETATTC                               #  IT IS NOT. SHUTDOWN NOT DUE TO TFF
002409:
002410: 33,7312           34505                           CAF      BIT10                                 #  TEST IF THIS IS 200 OR 95 SEC INTERRUPT
002411: 33,7313           70646                           MASK     FLAGWRD1                              #  (INTP FLAG)
002412: 33,7314           10000                           CCS      A
002413: 33,7315           07371                           TC       SETSEP                                #  200 SEC INTERRUPT
002414:
002415: 33,7316           03460        KILLMANU           TC       FLAG2DWN                              #  REMOVE CALC FLAG (KILL ANY MANEUVER)
002416: 33,7317           02000                           OCT      02000
002417:
002418: 33,7320           20017                           INHINT                                         #  ALLOW 5 SECS FOR CSM TO SETTLE FROM ANY
002419: 33,7321           36570                           CAF      5SEC                                  #  ATTITUDE MANEUVER BEFORE SEPARATING
002420: 33,7322           02173                           TC       WAITLIST
002421: 33,7323           67440                           CADR     CDUXTASK
002422: 33,7324           02276                           TC       PHASCHNG
002423: 33,7325           01303                           OCT      01303
002424:
002425: 33,7326           02124                           TC       ENDOFJOB
002426:
002427: 33,7327           20017        GMPOFF1            INHINT
002428: 33,7330           36720                           CAF      2SEC33                                #  CALL FOR SCS GMP OFF IN 2 SECS
002429: 33,7331           02173                           TC       WAITLIST
002430: 33,7332           67346                           CADR     GMPOFF2
002431:
002432: 33,7333           02276                           TC       PHASCHNG
002433: 33,7334           02703                           OCT      02703
002434:
002435: 33,7335           02124                           TC       ENDOFJOB
002436:
002437: 33,7336           20017        DVMODOF1           INHINT
002438: 33,7337           37401                           CAF      3.5SEC33                              #  CALL FOR DV MODE OFF IN 3.5 SECS
002439: 33,7340           02173                           TC       WAITLIST
002440: 33,7341           67357                           CADR     DVMODOF2
002441: 33,7342           20016                           RELINT
002442:
002443: 33,7343           02276                           TC       PHASCHNG
002444: 33,7344           03003                           OCT      03003
002445:
002446: 33,7345           02124                           TC       ENDOFJOB
002447:
002448: 33,7346           03413        GMPOFF2            TC       RELAYOFF                              #  REMOVE SCS GMP DISCRETE
002449: 33,7347           40200                           OCT      40200
002450:
002451: 33,7350           37401                           CAF      3.5SEC33                              #  CALL FOR DV MODE OFF IN 3.5 SECS
002452: 33,7351           02173                           TC       WAITLIST
002453: 33,7352           67357                           CADR     DVMODOF2
002454:
002455: 33,7353           33535                           CAF      TWENTY5
002456: 33,7354           02312                           TC       NEWPHASE
002457: 33,7355           00003                           OCT      3
002458:
002459: 33,7356           02256                           TC       TASKOVER
002460:
002461: 33,7357           03413        DVMODOF2           TC       RELAYOFF                              #  REMOVE SCS DV MODE DISCRETE
002462: 33,7360           40002                           OCT      40002
002463:
002464: 33,7361           37400                           CAF      0.25S33                               #  CALL FOR SCS ATT. CONTROL IN U/4 SEC
002465: 33,7362           02173                           TC       WAITLIST
002466: 33,7363           67365                           CADR     SHUTASK
002467:
002468: 33,7364           02256                           TC       TASKOVER
002469:
002470: 33,7365           32162        SHUTASK            CAF      PRIO27                                #  ESTABLISH JOB TO RESUME SHUTDOWN PROCESS
002471: 33,7366           02052                           TC       NOVAC
002472: 33,7367           67306                           CADR     SHUTJOB1
002473:
002474: 33,7370           02256                           TC       TASKOVER
002475:
002476: 33,7371           20017        SETSEP             INHINT
002477: 33,7372           32146                           CAF      PRIO12
002478: 33,7373           02046                           TC       FINDVAC                               #  CM/SM SEPARATION ATTITUDE
002479: 33,7374           67404                           CADR     SEPMANU
002480:
002481: 33,7375           03401        SETATTC            TC       RELAYON                               #  SET SCS ATT. CONTROL DISCRETE (C23)
002482: 33,7376           40001                           OCT      40001
002483:
002484: 33,7377           02124                           TC       ENDOFJOB
002485:
002486: 33,7400           00031        0.25S33            DEC      25         B-14
002487: 33,7401           00536        3.5SEC33           DEC      350        B-14
002488: 33,7402           00764        5SEC33             DEC      500        B-14
002489: 33,7403           01274        7SEC33             DEC      700        B-14
002490:
002491:
002492: 33,7404           02362        SEPMANU            TC       NEWMODE                               #  SET MAJOR MODE TO SEPARATION MANEUVER
002493: 33,7405           00061                           OCT      00061
002494:
002495: 33,7406           04000                           TC       INTPRET
002496:
002497: 33,7407           73175                           UNIT     1                                     #  COMPUTE DESIRED S/C ORIENTATION FOR
002498: 33,7410           75633                           VXSC     COMP                                  #  CM/SM SEPARATION
002499: 33,7411           00774                                    VN
002500: 33,7412           27437                                    COS60
002501:
002502: 33,7413           47575                           NOLOD    1
002503: 33,7414           41753                           VXV      UNIT
002504: 33,7415           00766                                    RN
002505: 33,7416           33417                           STORE    YSCD                                  #  YSCD IS ALONG (RN*VN)
002506:
002507: 33,7417           47573                           NOLOD    3
002508: 33,7420           41753                           VXV      UNIT
002509: 33,7421           75642                           VXSC     VAD
002510: 33,7422           47176                           COMP
002511: 33,7423           00774                                    VN
002512: 33,7424           27435                                    SIN60
002513: 33,7425           33411                           STORE    XSCD                                  #  XSCD IS 60 DEG ABOVE VELOCITY VECTOR
002514:
002515: 33,7426           47575                           NOLOD    1
002516: 33,7427           41753                           VXV      UNIT
002517: 33,7430           01417                                    YSCD
002518: 33,7431           33425                           STORE    ZSCD
002519:
002520: 33,7432           76776                           ITC      0                                     #  BRANCH TO PERFORM MANEUVER TO THE
002521: 33,7433           26420                                    ATTIJOB1                              #  SEPARATION ATTITUDE
002522:
002523: 33,7434           33555 01106  SIN60              2DEC     0.86603
002524: 33,7436           20000 00000  COS60              2DEC     0.5
002525:
002526:
002527: 33,7440           36570        CDUXTASK           CAF      5SEC                                  #  ALLOW 5 SECS FOR CDUX RESOLVER SCALE
002528: 33,7441           02173                           TC       WAITLIST                              #  CHANGE
002529: 33,7442           67522                           CADR     CM/SMTSK
002530:
002531: 33,7443           34501                           CAF      PRIO20
002532: 33,7444           02046                           TC       FINDVAC
002533: 33,7445           67454                           CADR     CDUXJOB
002534:
002535: 33,7446           03413                           TC       RELAYOFF                              #  SET SCS TO MONITOR MODE
002536: 33,7447           40007                           OCT      40007
002537:
002538: 33,7450           33520                           CAF      TWELVE
002539: 33,7451           02312                           TC       NEWPHASE
002540: 33,7452           00003                           OCT      00003
002541:
002542: 33,7453           02256                           TC       TASKOVER
002543:
002544:
002545:
002546: 33,7454           40700        CDUXJOB            CS       THETAD
002547: 33,7455           40000                           COM
002548: 33,7456           51314                           TS       CDUTEMP
002549:
002550: 33,7457           11314                           CCS      CDUTEMP                               #  GET MAGNITUDE OF THETAD
002551: 33,7460           64516                           AD       ONE
002552: 33,7461           07463                           TC       +2
002553: 33,7462           64516                           AD       ONE
002554: 33,7463           50115                           TS       MPAC                                  #  AND SAVE IT
002555:
002556: 33,7464           25777                           EXTEND                                         #  FIND NEAREST INTEGER MULTIPLE OF 1/16
002557: 33,7465           47533                           MP       15/16TH
002558: 33,7466           64504                           AD       BIT11
002559: 33,7467           77534                           MASK     HIGH4
002560: 33,7470           30115                           XCH      MPAC                                  #  AND SAVE IT
002561:
002562: 33,7471           25777                           EXTEND                                         #  SHIFT ORIGINAL THETAD RIGHT 4 PLACES
002563: 33,7472           44504                           MP       BIT11
002564: 33,7473           60115                           AD       MPAC                                  #  AND ADD INTEGER MULTIPLE
002565: 33,7474           20017                           INHINT
002566: 33,7475           50700                           TS       THETAD
002567:
002568: 33,7476           11314                           CCS      CDUTEMP                               #  ATTACH SIGN OF ORIGINAL THETAD
002569: 33,7477           30115                           XCH      MPAC                                  #  MPAC HAS POSITIVE CDUBIAS
002570: 33,7500           07504                           TC       +4
002571: 33,7501           40700                           CS       THETAD
002572: 33,7502           50700                           TS       THETAD
002573:
002574: 33,7503           40115                           CS       MPAC                                  #  COMPLEMENT INTEGER MULTIPLE
002575: 33,7504           51450                           TS       K1ROLL                                #  SCALED AT 1/2 REV FOR ENTRY
002576: 33,7505           20016                           RELINT
002577: 33,7506           02276                           TC       PHASCHNG
002578: 33,7507           01503                           OCT      01503
002579:
002580: 33,7510           03446        REDO3.13           TC       FLAG2UP                               #  SET CDUX FLAG
002581: 33,7511           20000                           OCT      20000
002582:
002583: 33,7512           05654                           TC       BANKCALL                              #  CHANGE IMUCDU MODE TO RE-ENTRY
002584: 33,7513           30216                           CADR     IMUREENT
002585:
002586: 33,7514           05654                           TC       BANKCALL                              #  WAIT FOR COMPLETION OF MODE SWITCH
002587: 33,7515           30331                           CADR     IMUSTALL
002588: 33,7516           03074                           TC       CURTAINS                              #  CATCH-ALL FOR MODE SWITCH FAILURES
002589:
002590: 33,7517           02276                           TC       PHASCHNG
002591: 33,7520           01603                           OCT      01603
002592:
002593: 33,7521           02124                           TC       ENDOFJOB
002594:
002595:
002596:
002597: 33,7522           03401        CM/SMTSK           TC       RELAYON                               #  SET SCS ENTRY MODE AND CM/SM SEPARATION
002598: 33,7523           40014                           OCT      40014                                 #  DISCRETES
002599:
002600: 33,7524           33523                           CAF      FIFTN
002601: 33,7525           02312                           TC       NEWPHASE
002602: 33,7526           00003                           OCT      00003
002603:
002604: 33,7527           36570                           CAF      5SEC                                  #  SET CALL TO START PRE-ENTRY ATTITUDE
002605: 33,7530           02173                           TC       WAITLIST                              #  MANEUVER IN 5 SECS
002606: 33,7531           67535                           CADR     ENTATASK
002607:
002608: 33,7532           02256                           TC       TASKOVER
002609:
002610: 33,7533           36000        15/16TH            OCT      36000
002611: 33,7534           74000        HIGH4              OCT      74000
002612:
002613:
002614: 33,7535           32146        ENTATASK           CAF      PRIO12
002615: 33,7536           02046                           TC       FINDVAC
002616: 33,7537           67541                           CADR     ENTAJOB
002617:
002618: 33,7540           02256                           TC       TASKOVER
002619:
002620:
002621:
002622: 33,7541           02362        ENTAJOB            TC       NEWMODE                               #  SET MAJOR MODE TO PRE-ENTRY MANEUVER
002623: 33,7542           00062                           OCT      00062
002624:
002625: 33,7543           35501                           CAF      ZERO
002626: 33,7544           51472                           TS       ROLLC                                 #  ROLLC = +0
002627: 33,7545           51473                           TS       ROLLC      +1
002628:
002629: 33,7546           04000                           TC       INTPRET
002630:
002631: 33,7547           71174                           ABVAL    2
002632: 33,7550           66756                           DSU      BMN
002633: 33,7551           41423                           LODON    DMOVE
002634: 33,7552           00774                                    VN
002635: 33,7553           21510                                    DOWNVEL
002636: 33,7554           27560                                    GOGETUNB
002637: 33,7555           21212                                    HALVE
002638: 33,7556           33473                           STORE    ROLLC
002639:
002640: 33,7557           76776        GOGETUNB           ITC      0                                     #  COMPUTE DESIRED NAV BASE COORDS.
002641: 33,7560           21242                                    GETUNB
002642:
002643: 33,7561           76776                           ITC      0                                     #  GET DESIRED S/C COORSD
002644: 33,7562           12213                                    CALCNBSC
002645:
002646: 33,7563           75176                           VMOVE    0                                     #  TRANSFER DESIRED S/C UNIT VECTORS
002647: 33,7564           01367                                    XSC
002648: 33,7565           33411                           STORE    XSCD
002649:
002650: 33,7566           75176                           VMOVE    0
002651: 33,7567           01375                                    YSC
002652: 33,7570           33417                           STORE    YSCD
002653:
002654: 33,7571           75176                           VMOVE    0
002655: 33,7572           01403                                    ZSC
002656: 33,7573           33425                           STORE    ZSCD
002657:
002658: 33,7574           76776                           ITC      0                                     #  BRANCH TO PERFORM MANEUVER TO PRE-ENTRY
002659: 33,7575           26420                                    ATTIJOB1                              #  ATTITUDE
002660:
002661: 33,7576           00007        ABORT33            OCT      00007                                 #  (OR OF ARRST,TABT,ABRT)
002662:
002663:
002664:
002665:    3401                                           BANK     1
002666:
002667:    3401           20001        RELAYON            INDEX    Q
002668:    3402           40000                           CS       0
002669:    3403           20017                           INHINT
002670:    3404           70725                           MASK     DSPTAB     +13D
002671:    3405           20001                           INDEX    Q
002672:    3406           60000                           AD       0
002673:    3407           50725                           TS       DSPTAB     +13D
002674:    3410           20016                           RELINT
002675:    3411           20001                           INDEX    Q
002676:    3412           00001                           TC       1
002677:
002678:    3413           20001        RELAYOFF           INDEX    Q
002679:    3414           40000                           CS       0
002680:    3415           20017                           INHINT
002681:    3416           70725                           MASK     DSPTAB     +13D
002682:    3417           64500                           AD       BIT15
002683:    3420           50725                           TS       DSPTAB     +13D
002684:    3421           20016                           RELINT
002685:    3422           20001                           INDEX    Q
002686:    3423           00001                           TC       1
002687:
002688:    3424           20001        FLAG1UP            INDEX    Q
002689:    3425           40000                           CS       0
002690:    3426           20017                           INHINT
002691:    3427           70646                           MASK     FLAGWRD1
002692:    3430           20001                           INDEX    Q
002693:    3431           60000                           AD       0
002694:    3432           50646                           TS       FLAGWRD1
002695:    3433           20016                           RELINT
002696:    3434           20001                           INDEX    Q
002697:    3435           00001                           TC       1
002698:
002699:    3436           20001        FLAG1DWN           INDEX    Q
002700:    3437           40000                           CS       0
002701:    3440           20017                           INHINT
002702:    3441           70646                           MASK     FLAGWRD1
002703:    3442           50646                           TS       FLAGWRD1
002704:    3443           20016                           RELINT
002705:    3444           20001                           INDEX    Q
002706:    3445           00001                           TC       1
002707:
002708:    3446           20001        FLAG2UP            INDEX    Q
002709:    3447           40000                           CS       0
002710:    3450           20017                           INHINT
002711:    3451           70647                           MASK     FLAGWRD2
002712:    3452           20001                           INDEX    Q
002713:    3453           60000                           AD       0
002714:    3454           50647                           TS       FLAGWRD2
002715:    3455           20016                           RELINT
002716:    3456           20001                           INDEX    Q
002717:    3457           00001                           TC       1
002718:
002719:    3460           20001        FLAG2DWN           INDEX    Q
002720:    3461           40000                           CS       0
002721:    3462           20017                           INHINT
002722:    3463           70647                           MASK     FLAGWRD2
002723:    3464           50647                           TS       FLAGWRD2
002724:    3465           20016                           RELINT
002725:    3466           20001                           INDEX    Q
002726:    3467           00001                           TC       1
002727:
002728:    3470           43501        SETBRNSW           CS       BURNMASK
002729:    3471           20017                           INHINT
002730:    3472           70647                           MASK     FLAGWRD2
002731:    3473           20001                           INDEX    Q
002732:    3474           60000                           AD       0
002733:    3475           50647                           TS       FLAGWRD2
002734:    3476           20016                           RELINT
002735:    3477           20001                           INDEX    Q
002736:    3500           00001                           TC       1
002737:
002738:    3501           00177        BURNMASK           OCT      00177
002739:
002740:
002741:
002742:    3502           20017        SETHETAD           INHINT
002743:    3503           40047                           CS       CDUX
002744:    3504           40000                           COM
002745:    3505           50700                           TS       THETAD
002746:    3506           40050                           CS       CDUY
002747:    3507           40000                           COM
002748:    3510           50701                           TS       THETAD     +1
002749:    3511           40051                           CS       CDUZ
002750:    3512           40000                           COM
002751:    3513           50702                           TS       THETAD     +2
002752:    3514           20016                           RELINT
002753:    3515           00001                           TC       Q
002754:
002755:
002756:
002757:    3516           00011        NINE               DEC      9          B-14
002758:    3517           00013        ELEVEN             OCT      00013
002759:    3520     3517               11DEC              EQUALS   ELEVEN
002760:    3520           00014        TWELVE             OCT      00014
002761:    3521           00015        THIRTN             OCT      00015
002762:    3522     3521               THIRTEEN           EQUALS   THIRTN
002763:    3522           00016        FOURTN             OCT      00016
002764:    3523           00017        FIFTN              OCT      00017
002765:    3524           00020        SIXTN              OCT      00020
002766:    3525           00021        SEVENTN            OCT      00021
002767:    3526           00022        EIGHTN             OCT      00022
002768:    3527           00023        NINETEEN           DEC      19         B-14
002769:    3530           00024        TWENTY0            OCT      00024
002770:    3531     3530               TWENTY             EQUALS   TWENTY0
002771:    3531           00025        TWENTY1            OCT      00025
002772:    3532           00026        TWENTY2            OCT      00026
002773:    3533           00027        TWENTY3            OCT      00027
002774:    3534           00030        TWENTY4            OCT      00030
002775:    3535           00031        TWENTY5            OCT      00031
002776:
002777:    3536           00032        TWENTY6            DEC      26         B-14
002778:
002779:    3537           00033        TWENTY7            DEC      27         B-14
002780:
002781:    3540           00034        TWENTY8            DEC      28         B-14
002782:    3541           00035        TWENTY9            DEC      29         B-14
002783:    3542           00036        THIRTY             DEC      30         B-14
002784:    3543     3542               30DEC              EQUALS   THIRTY
002785:    3543           00050        FORTY              DEC      40         B-14
002786:    3544     3543               40DEC              EQUALS   FORTY
002787:    3544           00062        FIFTY              DEC      50         B-14
002788:    3545     3544               50DEC              EQUALS   FIFTY
002789:    3545           00074        SIXTY              DEC      60         B-14
002790:    3546     3545               60DEC              EQUALS   SIXTY
002791:    3546           00144        100DEC             DEC      100        B-14
002792:    3547           00310        200DEC             DEC      200        B-14
002793:    3550           00454        300DEC             DEC      300        B-14
002794:    3551           00620        400DEC             DEC      400        B-14
002795:    3552           00764        500DEC             DEC      500        B-14
002796:    3553           01130        600DEC             DEC      600        B-14
002797:    3554     3553               SIXHNDRD           EQUALS   600DEC
002798:    3554           01750        1000DEC            DEC      1000       B-14
002799:    3555           03720        2000DEC            DEC      2000       B-14

End of include-file 202_MISSION_CONTROL_PROGRAM.agc.  Parent file is MAIN.agc


