
Source Code


000002:                                                                                                  ## Copyright:   Public domain.
000003:                                                                                                  ## Filename:    ALARM_AND_DISPLAY_PROCEDURES.agc
000004:                                                                                                  ## Purpose:     A section of Corona revision 261.
000005:                                                                                                  ##              It is part of the source code for the Apollo Guidance Computer
000006:                                                                                                  ##              (AGC) for AS-202. No original listings of this software are
000007:                                                                                                  ##              available; instead, this file was created via disassembly of
000008:                                                                                                  ##              the core rope modules actually flown on the mission.
000009:                                                                                                  ## Assembler:   yaYUL
000010:                                                                                                  ## Contact:     Ron Burkey <info@sandroid.org>.
000011:                                                                                                  ## Website:     www.ibiblio.org/apollo/index.html
000012:                                                                                                  ## Mod history: 2023-05-27 MAS  Created from Solarium 55.
000013:
000014:
000015:                                                                                                  #        THE FOLLOWING SUBROUTINE MAY BE CALLED TO DISPLAY A NON-ABORTIVE ALARM CONDITION. IT MAY BE CALLED
000016:                                                                                                  #  EITHER IN INTERRUPT OR UNDER EXECUTIVE CONTROL.
000017:
000018:                                                                                                  #        CALLING SEQUENCE IS AS FOLLOWS:
000019:
000020:                                                                                                  #        TC      ALARM
000021:                                                                                                  #        OCT     AAANN           ALARM NO. NN IN GENERAL AREA AAA.
000022:                                                                                                  #                                (RETURNS HERE)
000023:
000024:    3015                                           BANK     1
000025:    3015           20017        ALARM              INHINT
000026:    3016           30001                           XCH      Q
000027:    3017           50577                           TS       ITEMP1
000028:
000029:    3020           11763                           CCS      FAILREG                               #  SEE IF ONE FAILURE HAS OCCURRED SINCE
000030:                                                                                                  #   THE LAST ERROR RESET.
000031:    3021           03027                           TC       MULTFAIL                              #  YES - INDICATE MULTIPLE FAILURES.
000032:    3022           03032                           TC       NEWALARM                              #  FIRST SINCE RESET.
000033:    3023           30577        MULTEXIT           XCH      ITEMP1                                #  FREE ITEMP1 BEFORE RELINT.
000034:
000035:    3024           20016        ENDALARM           RELINT
000036:    3025           20000                           INDEX    A
000037:    3026           00001                           TC       1                                     #  RETURN TO CALLER.
000038:
000039:    3027           64664        MULTFAIL           AD       CSQ                                   #  BIT 15 = 1 INDICATES MULTIPLE FAILURES.
000040:    3030           51763                           TS       FAILREG                               #  CSQ = BIT15 + BIT1.
000041:    3031           03023                           TC       MULTEXIT
000042:
000043:    3032           30577        NEWALARM           XCH      ITEMP1                                #  SAVE RETURN ADDRESS FOR CALL TO NOVAC.
000044:    3033           51763                           TS       FAILREG
000045:
000046:    3034           03044                           TC       PROGLARM                              #  TURN ON THE PROGRAM ALARM LIGHT.
000047:
000048:    3035           32172                           CAF      PRIO37
000049:    3036           02052                           TC       NOVAC
000050:    3037           23712                           CADR     DOALARM                               #  CALL (SEPARATE) JOB FOR DISPLAY.
000051:
000052:    3040           21763                           INDEX    FAILREG                               #  (RETURN ADDRESS AT THIS POINT).
000053:    3041           30000                           CAF      0
000054:    3042           31763                           XCH      FAILREG                               #  SET FAILREG AND GET BACK RETURN ADDRESS.
000055:    3043           03024        NEWALM2            TC       ENDALARM
000056:
000057:
000058:                                                                                                  #        JOB WHICH CALLS NVSUB FOR ALARM DISPLAY.
000059:
000060: 11,7712                                           BANK     11
000061: 11,7712           03310        DOALARM            TC       GRABDSP                               #  DISPLAY FAILREG.
000062: 11,7713           03316                           TC       PREGBSY
000063: 11,7714           33051                           CAF      FAILDISP
000064: 11,7715           03106                           TC       NVSUB
000065: 11,7716           03323                           TC       PRENVBSY
000066: 11,7717           03370                           TC       FREEDSP
000067: 11,7720           02124                           TC       ENDOFJOB
000068:
000069:
000070:
000071:    3044                                           SETLOC   NEWALM2    +1
000072:
000073:    3044           44516        PROGLARM           CS       ONE                                   #  TURNS ON PROGRAM FAIL LIGHT ON THE
000074:    3045           70011                           MASK     OUT1                                  #  PANEL.  CALLED ONLY BY ALARM AND ABORT.
000075:    3046           64516                           AD       ONE
000076:    3047           50011                           TS       OUT1
000077:    3050           00001                           TC       Q
000078:
000079:    3051           00531        FAILDISP           OCT      00531
000080:
000081:
000082:                                                                                                  #        THE FOLLOWING ROUTINE IS CALLED TO INITIATE AN ABORT. FAILREG IS SET (ACCORDING TO THE MULTIPLE
000083:                                                                                                  #  FAILURES CONVENTION) AND A RE-START IS INITIATED BY TC-SELF. THIS IS CALLED ONLY UNDER RARE CIRCUMSTANCES.
000084:
000085:    3052           20017        ABORT              INHINT                                         #  MAY BE CALLED IN INTERRUPT OR UNDER EXEC
000086:    3053           20001                           INDEX    Q                                     #  PICK UP FAILURE CODE.
000087:    3054           30000                           CAF      0
000088:    3055           50577                           TS       ITEMP1
000089:
000090:    3056           11763                           CCS      FAILREG                               #  SEE IF THIS IS A MULTIPLE FAILURE.
000091:    3057           03062                           TC       SETMULTF                              #  SET BIT 15 TO INDICATE YES.
000092:    3060           03064                           TC       NEWABORT                              #  FIRST FAILURE.
000093:
000094:    3061           03061        WHIMPER            TC       WHIMPER                               #  NOT WITH A BANG...
000095:
000096:    3062           64664        SETMULTF           AD       CSQ                                   #  RESTORE AND SET BIT15
000097:    3063           03066                           TC       +3
000098:
000099:    3064           03044        NEWABORT           TC       PROGLARM                              #  FIRST FAILURE - TURN ON ALARM LIGHT.
000100:    3065           30577                           XCH      ITEMP1
000101:    3066           51763                 +3        TS       FAILREG
000102:    3067           03061                           TC       WHIMPER                               #  UNIVERSAL ABORT LOCATION.
000103:
000104:    3070           30001        CCSHOLE            XCH      Q
000105:    3071           51764                           TS       SFAIL
000106:    3072           03052                           TC       ABORT
000107:    3073           01103                           OCT      1103
000108:
000109:                                                                                                  #        MISSION PROGRAM DETECTED FAILURES (ERROR RETURNS TO IMUSTALL, ETC.)
000110:
000111:    3074           30001        CURTAINS           XCH      Q                                     #  PROGRAM DETECTED FLUSH.
000112:    3075           05720                           TC       POSTJUMP
000113:    3076           10777                           CADR     THATSALL                              #  FRESH START AND PROGRAM ALARM.
000114:
000115:    3077                        ENDFAILF           EQUALS

End of include-file ALARM_AND_DISPLAY_PROCEDURES.agc.  Parent file is MAIN.agc


