
Source Code


000002:                                                                                                  ## Copyright:   Public domain.
000003:                                                                                                  ## Filename:    AVERAGE_G_INTEGRATOR.agc
000004:                                                                                                  ## Purpose:     A section of Corona revision 261.
000005:                                                                                                  ##              It is part of the source code for the Apollo Guidance Computer
000006:                                                                                                  ##              (AGC) for AS-202. No original listings of this software are
000007:                                                                                                  ##              available; instead, this file was created via disassembly of
000008:                                                                                                  ##              the core rope modules actually flown on the mission.
000009:                                                                                                  ## Assembler:   yaYUL
000010:                                                                                                  ## Contact:     Ron Burkey <info@sandroid.org>.
000011:                                                                                                  ## Website:     www.ibiblio.org/apollo/index.html
000012:                                                                                                  ## Mod history: 2023-05-27 MAS  Created from Solarium 55.
000013:                                                                                                  ##              2023-06-17 MAS  Updated for Corona.
000014:
000015:
000016:                                                                                                  #        ROUTINE CALCRVG INTEGRATES THE EQUATIONS OF MOTION BY AVERAGING THE THRUST AND GRAVITATIONAL ACCELERA-
000017:                                                                                                  #  TIONS OVER A TIME INTERVAL, DELTAT
000018:                                                                                                  #        FOR THE EARTH-CENTERED GRAVITATIONAL FIELD THE PERTURBATION DUE TO OBLATENESS IS COMPUTED TO THE FIRST
000019:                                                                                                  #  HARMONIC COEFFICIENT J
000020:                                                                                                  #        ROUTINE NORMLISE MUST BE CALLED PRIOR TO THE FIRST ENTRY INTO CALCRVG. IT REQUIRES RN SCALED TO 2(+29)M
000021:                                                                                                  #  IT LEAVES RN NORMALISED, SO THAT THE SCALED MAGNITUDE OF THE VECTOR CONTAINS ONE LEADING ZERO, BY SHIFTING THE
000022:                                                                                                  #  VECTOR LEFT N BINARY PLACES
000023:                                                                                                  #        ROUTINE CALCRVG REQUIRES
000024:                                                                                                  #                1) THRUST ACCELERATION INCREMENTS IN DELV SCALED SAME AS PIPAX,Y,Z
000025:                                                                                                  #                2) VN SCALED AT 2(+7) M/CS
000026:                                                                                                  #                3) ADDRESS OF CALCGLUN OR CALCGEAR IN CALCG
000027:                                                                                                  #                4) DELTAT SCALED AT 2(+9) CS
000028:                                                                                                  #                5) PUSH-DOWN COUNTER SET TO ZERO
000029:                                                                                                  #  IT LEAVES UPDATED RN, SCALED AT 2(29-N) M, VN, AND GRAVITY SCALED AT 2(-5) M/CS/CS
000030:
000031:
000032:                                                                                                  #        CONTINUE ON IN BANK 30.


000036: 30,7513                                           BANK     30
000037:
000038: 30,7513           71173        NORMLISE           ABVAL    3                                     #  COUNT NUMBER OF LEADING ZEROS IN
000039: 30,7514           57715                           TSLC     INCR,1                                #  ABVAL (RN) AND STORE -N(=2-M) IN NSHIFT
000040: 30,7515           67515                           SXA,1    INCR,1                                #  RN MUST BE SCALED AT 2(+29)M
000041: 30,7516           67425                           SXA,1    ITA
000042: 30,7517           00766                                    RN
000043: 30,7520           00047                                    X1
000044: 30,7521           00003                                    2
000045: 30,7522           01041                                    NSHIFT                                #  SAVE C(X1)=-N
000046: 30,7523           00017                                    14D
000047: 30,7524           01042                                    XSHIFT                                #  SAVE C(X1) =14-N
000048: 30,7525           00052                                    S2
000049:
000050: 30,7526           75175                           VMOVE    1
000051: 30,7527           44376                           VSLT*
000052: 30,7530           00766                                    RN
000053: 30,7531           00035                                    14D,1
000054: 30,7532           32766                           STORE    RN                                    #  RN SCALED AT 2(29-N)METRES
000055:
000056: 30,7533           76776                           ITC      0
000057: 30,7534           21634                                    CALCGRV1
000058:
000059: 30,7535           44576                           ITCI     0
000060: 30,7536           00052                                    S2
000061:
000062:
000063: 30,7537           75776        CALCRVG            VXSC     0
000064: 30,7540           01002                                    DELV
000065: 30,7541           21730                                    KPIP                                  #  DV TO PD SCALED AT 2(+4)M/CS
000066:
000067: 30,7542           75775                           VXSC     1
000068: 30,7543           73432                           LXA,1    BVSU
000069: 30,7544           01010                                    GRAVITY
000070: 30,7545           01030                                    DELTAT
000071: 30,7546           01042                                    XSHIFT
000072: 30,7547           00001                                    0                                     #  (DV-(OLD GDT))/2 TO PD SCALED 2(+3)M/CS
000073:
000074: 30,7550           47573                           NOLOD    3
000075: 30,7551           45642                           VSRT     VAD
000076: 30,7552           75620                           VXSC     VSLT*
000077: 30,7553           50625                           VAD      ITA
000078: 30,7554           00005                                    4
000079: 30,7555           00774                                    VN
000080: 30,7556           01030                                    DELTAT
000081: 30,7557           00003                                    1,1
000082: 30,7560           00766                                    RN
000083: 30,7561           00052                                    S2
000084: 30,7562           33300                           STORE    RN1                                   #  SCALED AT 2(29-N) METERS
000085:
000086: 30,7563           76776                           ITC      0
000087: 30,7564           21634                                    CALCGRV1
000088:
000089: 30,7565           47573                           NOLOD    3
000090: 30,7566           75632                           VXSC     BVSU
000091: 30,7567           50626                           VAD      VSRT
000092: 30,7570           50776                           VAD
000093: 30,7571           01030                                    DELTAT
000094: 30,7572           77777                                    -                                     #  (DV-(OLD GDT))/2
000095: 30,7573           77777                                    -                                     #  DV/2
000096: 30,7574           00005                                    4
000097: 30,7575           00774                                    VN
000098: 30,7576           33306                           STORE    VN1                                   #  SCALED AT 2(+7) MET/CS
000099:
000100:                                                                                                  #   IN AVERAGE G, UP THE PHASE BITS BY 2 OF ACTIVE PROG BEFORE COPY CYCLE.
000101:
000102: 30,7577           77576                           EXIT     0
000103:
000104: 30,7600           20067                           INDEX    FIXLOC
000105: 30,7601           40051                           CS       S2                                    #  SAVE NEG RETURN ADDRESS IN NON-VAC AREA.
000106: 30,7602           51313        CALCRVG2           TS       AVGRETRN                              #  SAVE NEGATIVE OF RETURN ADDRESS.
000107:
000108: 30,7603           40662                           CS       -PHASE1    +4                         #  PICK UP PHASES.
000109: 30,7604           64516                           AD       ONE                                   #  INCREMENT BY 1.
000110: 30,7605           02312                           TC       NEWPHASE                              #  AND CALL ROUTINE TO CHANGE PHASE.
000111: 30,7606           00005                           OCT      00005
000112: 30,7607           20017        REFAZE6            INHINT
000113: 30,7610           37630                           CAF      ELEVEND
000114: 30,7611           50115                           TS       MPAC                                  #  USE MPAC FOR LOOP COUNTER.
000115: 30,7612           20115                           INDEX    MPAC
000116: 30,7613           41277                           CS       RN1                                   #  RN1 AND VN1 MUST BE IN ORDER.
000117: 30,7614           40000                           COM                                            #  LEAVE RN1 ALONE  IN CASE OF RESTARTS.
000118: 30,7615           20115                           INDEX    MPAC                                  #  SELECT THE RIGHT TERM.
000119: 30,7616           50765                           TS       RN                                    #  ...AND GO THRU COPY CYCLE.
000120:
000121: 30,7617           10115                           CCS      MPAC                                  #  ARE WE DONE..
000122: 30,7620           07611                           TC       REFAZE6    +2                         #  NO, NOT YET.
000123: 30,7621           44515                           CS       BIT2                                  #  YES, MPAC = 0.
000124: 30,7622           70675                           MASK     TMMARKER
000125: 30,7623           64515                           AD       BIT2                                  #  SET BIT 2 TO ONE IN TMMARKER.
000126: 30,7624           50675                           TS       TMMARKER
000127:                                                                                                  #  WHAT ABOUT GRAVITY FOR RESTART..
000128: 30,7625           20016                           RELINT
000129: 30,7626           41313                           CS       AVGRETRN                              #  NEG OF ADDRESS WAS STORED.
000130: 30,7627           05723                           TC       BANKJUMP
000131:
000132:
000133:
000134: 30,7630           00013        ELEVEND            DEC      11         B-14                       #  11D  (ELEVEN DECIMAL, OF COURSE.)
000135:
000136:
000137:
000138: 30,7631           73576        CALCGRAV           LXA,1    0
000139: 30,7632           01042                                    XSHIFT
000140:
000141: 30,7633           47575        CALCGRV1           NOLOD    1
000142: 30,7634           73176                           UNIT
000143: 30,7635           33016                           STORE    UNITR
000144:
000145: 30,7636           45176                           DMOVE    0
000146: 30,7637           00037                                    30D
000147: 30,7640           33024                           STORE    RMAG                                  #  SCALED AT 2(30-N)M
000148:
000149: 30,7641           63776                           TSLT     0
000150: 30,7642           00035                                    28D
000151: 30,7643           00004                                    3
000152: 30,7644           33026                           STORE    RMAGSQ                                #  SCALED AT 2(+50)M(+2)
000153:
000154: 30,7645           45575                           ITA      1
000155: 30,7646           61421                           XAD,1    ITCI
000156: 30,7647           00034                                    27D
000157: 30,7650           01041                                    NSHIFT
000158: 30,7651           01043                                    CALCG
000159:
000160: 30,7652           42776        CALCGEAR           DOT      0
000161: 30,7653           01016                                    UNITR
000162: 30,7654           01044                                    UNITW
000163: 30,7655           32032                           STORE    25D
000164:
000165: 30,7656           47574                           NOLOD    2
000166: 30,7657           51122                           DSQ      DMP
000167: 30,7660           63726                           TSLT     BDSU
000168: 30,7661           21734                                    DP(5/8)
000169: 30,7662           00005                                    4
000170: 30,7663           21732                                    DP2(-3)
000171:
000172: 30,7664           62775                           DDV      1
000173: 30,7665           63376                           TSLT*
000174: 30,7666           21742                                    J(RE)SQ                               #  SCALED AT 2(+40) M(+2)
000175: 30,7667           01026                                    RMAGSQ
000176: 30,7670           00001                                    0,1
000177: 30,7671           32030                           STORE    23D                                   #  J(RE/RN) SQ SCALED AT 2(-3)
000178:
000179: 30,7672           47574                           NOLOD    2
000180: 30,7673           64766                           DMP      VXSC
000181: 30,7674           50776                           VAD
000182: 30,7675           77777                                    -
000183: 30,7676           01016                                    UNITR
000184: 30,7677           01016                                    UNITR
000185:
000186: 30,7700           64775                           DMP      1
000187: 30,7701           75642                           VXSC     VAD
000188: 30,7702           00030                                    23D
000189: 30,7703           00032                                    25D
000190: 30,7704           01044                                    UNITW
000191:
000192: 30,7705           45175                           DMOVE    1
000193: 30,7706           76776                           ITC
000194: 30,7707           21736                                    MUEARTH
000195: 30,7710           21720                                    MU/RSQ
000196:
000197: 30,7711           75176        CALCGLUN           VMOVE    0
000198: 30,7712           01016                                    UNITR
000199:
000200: 30,7713           45175                           DMOVE    1
000201: 30,7714           63576                           INCR,1
000202: 30,7715           21740                                    MUMOON
000203: 30,7716           00007                                    6
000204:
000205: 30,7717           47574        MU/RSQ             NOLOD    2
000206: 30,7720           62714                           DDV      TSLT*
000207: 30,7721           75776                           VXSC
000208: 30,7722           01026                                    RMAGSQ                                #  C(X1)=14-2N  (EARTH)
000209: 30,7723           00013                                    5,1                                   #       =20-2N  (MOON)
000210: 30,7724           33010                           STORE    GRAVITY                               #  SCALED AT 2(-5) M/CS/CS
000211:
000212: 30,7725           44576                           ITCI     0
000213: 30,7726           00034                                    27D
000214:
000215: 30,7727           23126 25370  KPIP               2DEC     0.59904
000216: 30,7731           04000 00000  DP2(-3)            2DEC     0.125
000217: 30,7733           24000 00000  DP(5/8)            2DEC     0.625
000218: 30,7735           00224 17561  MUEARTH            2DEC     .009063188                            #  SCALED AT 2(+42)M(+3)/CS(+2)
000219: 30,7737           00164 34414  MUMOON             2DEC     0.007134481                            #  4.90277800 E12        2(+36)M(+3)/CS(+2)
000220: 30,7741           01730 04155  J(RE)SQ            2DEC     .06006663                             #  SCALED AT 2(+40)M(+2)

End of include-file AVERAGE_G_INTEGRATOR.agc.  Parent file is MAIN.agc


