
Source Code


000002:                                                                                                  ## Copyright:   Public domain.
000003:                                                                                                  ## Filename:    DOWN-TELEMETRY_PROGRAM.agc
000004:                                                                                                  ## Purpose:     A section of Corona revision 261.
000005:                                                                                                  ##              It is part of the source code for the Apollo Guidance Computer
000006:                                                                                                  ##              (AGC) for AS-202. No original listings of this software are
000007:                                                                                                  ##              available; instead, this file was created via disassembly of
000008:                                                                                                  ##              the core rope modules actually flown on the mission.
000009:                                                                                                  ## Assembler:   yaYUL
000010:                                                                                                  ## Contact:     Ron Burkey <info@sandroid.org>.
000011:                                                                                                  ## Website:     www.ibiblio.org/apollo/index.html
000012:                                                                                                  ## Mod history: 2023-05-27 MAS  Created from Solarium 55.
000013:                                                                                                  ##              2023-06-17 MAS  Updated for Corona.
000014:
000015:
000016:                                                                                                  #  TELEMETRY PROCESSOR
000017:                                                                                                  #  --------- ---------
000018:
000019:                                                                                                  #        THE FOLLOWING TELEMETRY PROGRAM IS DESIGNED TO TRANSMIT TELEMETRY DATA VIA OUT4 WHEN AN ENDPULSE
000020:                                                                                                  #  FROM THE NORTH AMERICAN TELEMETRY PROGRAMMER TRIGGERS INTERRUPT 6, WHICH INITIATES THIS ROUTINE. IT OPERATES
000021:                                                                                                  #  IN CONJUNCTION WITH (BUT ASYNCHRONOUSLY FROM) THE T4RUPT PROGRAM, WHICH IS INITATED EVERY 60 MS, VIA INTERRUPT
000022:                                                                                                  #  3.
000023:
000024:
000025:    2377                                           BANK     1
000026:    2377           10670        DOWNRUPT           CCS      TELCOUNT                              #  PNZ IS NORMAL SETTING - +0 INDICATES
000027:    2400           02407                           TC       DOWNTMOK                              #  TM FAILURE SINCE ENDPULSES ARE OCCURING
000028:    2401           02567                           TC       TMFAIL                                #  TOO FREQUENTLY. THE COUNTER IS SET TO +7
000029:
000030:    2402           44505                           CS       BIT10                                 #  BLOCK TM ENDPULSES UNTIL  ERROR RESET
000031:    2403           70011                           MASK     OUT1                                  #  COMMAND IS GIVEN.
000032:    2404           64505                           AD       BIT10
000033:    2405           50011                           TS       OUT1
000034:
000035:    2406           02266                           TC       NBRESUME                              #  BY DSRUPT EVERY 120 MS.
000036:
000037:    2407           50670        DOWNTMOK           TS       TELCOUNT                              #  NORMAL MODE - STORE DECREMENTED COUNT.
000038:    2410           00673                           TC       DNTMGOTO                              #  JUMP TO APPROPRIATE DOWNLINK PHASE.
000039:
000040:                                                                                                  #        IN PHASE 7, SEND REQUIRED NUMBER OF DUMMY MARKS, ENTERING PHASE 1 WHEN FINISHED. ANY REAL MARKERS
000041:                                                                                                  #  OCCURING HERE WILL NOT BE SENT UNTIL PHASE 3.
000042:
000043:    2411           10676        DNPHASE7           CCS      MARKERCT                              #  REDUCE TO ZERO.
000044:    2412           02537                           TC       DUMMARK
000045:
000046:                                                                                                  #        PHASE 1 SENDS LIST ID AND SETS UP PHASE 2.
000047:
000048:    2413           32551        DNPHASE1           CAF      LPHASE2
000049:    2414           50673                           TS       DNTMGOTO
000050:    2415           32557                           CAF      LTHCOMA                               #  NUMBER OF WORDS IN COMMON LIST A.
000051:    2416           50674                           TS       TMINDEX
000052:    2417           40672                           CS       DNLSTADR                              #  CHANGES IN DNLSTADR NOT HONORED UNTIL
000053:    2420           40000                           COM                                            #  THIS PHASE.
000054:    2421           50671                           TS       LDATALST
000055:    2422           74302                           MASK     LOW11
000056:    2423           64170                           AD       60K                                   #  AT FOD'S REQUEST.
000057:    2424           02543                           TC       W.O.=1
000058:
000059:
000060:                                                                                                  #        PHASE 2 SENDS COMMON LIST A: DSPTAB, T2, T1, I/O, CDUS, ETC. NO MARKERS ARE INTERSPERSED WITH THE DATA.
000061:
000062:    2425           10674        DNPHASE2           CCS      TMINDEX                               #  SEE IF MORE DATA TO BE SENT.
000063:    2426           02505                           TC       PHASE2A
000064:
000065:    2427           32552                           CAF      LPHASE3                               #  IF NOT, BEGIN PHASE 3.
000066:    2430           50673                           TS       DNTMGOTO
000067:    2431           34473                           CAF      NOMRKRS                               #  NUMBER OF MARKERS/SECOND.
000068:    2432           50676                           TS       MARKERCT
000069:    2433           32561                           CAF      LTHLSTA                               #  NUMBER WORDS IN PARTICULAR LISTS A.
000070:    2434           50674                           TS       TMINDEX
000071:
000072:                                                                                                  #        PHASE 3 - SEND DOWN PARTICULAR LIST A WITH REAL MARKERS INTER-LEAVED.
000073:
000074:    2435           10675        DNPHASE3           CCS      TMMARKER                              #  SEE IF ANY MARKERS TO BE SENT.
000075:    2436           02536                           TC       DOMARKER
000076:
000077:    2437           10674                           CCS      TMINDEX                               #  SEND DOWN PART. LIST A ENTRY IF ANY.
000078:    2440           02517                           TC       PHASE36A                              #  (COMMON TO PHASES 3 AND 6.)
000079:
000080:    2441           32553                           CAF      LPHASE4                               #  END OF PHASE 3, START PHASE 4.
000081:    2442           50673                           TS       DNTMGOTO
000082:
000083:                                                                                                  #        PHASE 4: SEND DUMMY MARKERS UNTIL MARKERCT = 0.
000084:
000085:    2443           10676        DNPHASE4           CCS      MARKERCT                              #  (NONE MAY BE REQUIRED)
000086:    2444           02537                           TC       DUMMARK
000087:
000088:    2445           32554                           CAF      LPHASE5                               #  END OF PHASE 4 - BEGIN PHASE 5.
000089:    2446           50673                           TS       DNTMGOTO
000090:    2447           32560                           CAF      LTHCOMB                               #  NUMBER OF WORDS IN COMMON LIST B - 1.
000091:
000092:                                                                                                  #        PHASE 5: SEND COMMON LIST B WITH NO MARKERS INTER-LEAVED.
000093:
000094:    2450           50674        PHASE5A            TS       TMINDEX                               #  (ENTERS HERE FIRST TIME ONLY).
000095:    2451           20000                           INDEX    A
000096:    2452           22610                           INDEX    COMLSTB
000097:    2453           40000                           CS       0
000098:    2454           02511                           TC       DATADWNF
000099:
000100:    2455           10674        DNPHASE5           CCS      TMINDEX                               #  NORMAL PHASE 5 ENTRY.
000101:    2456           02450                           TC       PHASE5A
000102:
000103:
000104:                                                                                                  #        AT END OF PHASE 5, BEGIN PHASE 6. THE ADDRESS OF PARTICULAR LIST B IMMEDIATELY PRECEEDS
000105:                                                                                                  #  PARTICULAR LIST A.
000106:
000107:    2457           32555                           CAF      LPHASE6
000108:    2460           50673                           TS       DNTMGOTO
000109:    2461           32562                           CAF      LTHLSTB                               #  NUMBER OF WORDS IN PARTICULAR LISTS B.
000110:    2462           50674                           TS       TMINDEX
000111:    2463           34473                           CAF      NOMRKRS
000112:    2464           50676                           TS       MARKERCT
000113:
000114:    2465           32566                           CAF      LISTBANK                              #  GET ADDRESS OF PART. LIST B.
000115:    2466           30015                           XCH      BANKREG
000116:    2467           30671                           XCH      LDATALST
000117:    2470           64335                           AD       MINUS1
000118:    2471           20000                           INDEX    A
000119:    2472           40000                           CS       0                                     #  SO WE CAN RUN IN ERASABLE.
000120:    2473           40000                           COM
000121:    2474           30671                           XCH      LDATALST
000122:    2475           50015                           TS       BANKREG
000123:
000124:                                                                                                  #        PHASE 6: PARTICULAR LIST B AND REAL MARKERS.
000125:
000126:    2476           10675        DNPHASE6           CCS      TMMARKER
000127:    2477           02536                           TC       DOMARKER
000128:
000129:    2500           10674                           CCS      TMINDEX
000130:    2501           02517                           TC       PHASE36A
000131:
000132:    2502           32556                           CAF      LPHASE7                               #  SWITCH TO PHASE 7 TO SUPPLY REQUIRED
000133:    2503           50673                           TS       DNTMGOTO                              #  NUMBER OF DUMMY MARKS.
000134:    2504           02411                           TC       DNPHASE7
000135:
000136:
000137:                                                                                                  #        OUT OF SEQUENCE ROUTINES.
000138:
000139:    2505           50674        PHASE2A            TS       TMINDEX                               #  SELECT DATA WORD FOR COMMON LIST A IN
000140:    2506           20000                           INDEX    A                                     #  IN FIXED-FIXED.
000141:    2507           22574                           INDEX    COMLSTA
000142:    2510           40000                           CS       0
000143:    2511           40000        DATADWNF           COM                                            #  PHASE 5 (COMMON LIST B) EXITS HERE.
000144:    2512           50014                           TS       OUT4
000145:    2513           44506                           CS       BIT9
000146:    2514           70011                           MASK     OUT1
000147:    2515           50011                           TS       OUT1
000148:    2516           02266                           TC       NBRESUME                              #  NO BANK SWITCH REQUIRED.
000149:
000150:    2517           50674        PHASE36A           TS       TMINDEX                               #  PHASES 3 AND 6 (PARTICULAR DATA LISTS)
000151:    2520           32566                           CAF      LISTBANK                              #  EXIT HERE
000152:    2521           30015                           XCH      BANKREG
000153:    2522           50030                           TS       BANKRUPT                              #  PARTICULAR LISTS IN SWITCHED BANK.
000154:
000155:    2523           10671                           CCS      LDATALST                              #  (SAVES 2 MCT).
000156:    2524           60674                           AD       TMINDEX
000157:    2525           20000                           INDEX    A
000158:    2526           20001                           INDEX    1                                     #  (1 COMPENSATES FOR ABOVE CCS.)
000159:    2527           40000                           CS       0
000160:    2530           40000                           COM
000161:    2531           50014                           TS       OUT4
000162:    2532           44506                           CS       BIT9
000163:    2533           70011                           MASK     OUT1
000164:    2534           50011                           TS       OUT1
000165:    2535           02264                           TC       RESUME
000166:
000167:    2536           10676        DOMARKER           CCS      MARKERCT                              #  COME HERE TO SHIP DOWN REAL MARKER.
000168:    2537           50676        DUMMARK            TS       MARKERCT                              #  REDUCE MARKERCT (NEVER IS ZERO ABOVE).
000169:    2540           35501                           CAF      ZERO
000170:    2541           30675                           XCH      TMMARKER
000171:    2542           62563                           AD       DN74K                                 #  AT FOD'S REQUEST.
000172:    2543           50014        W.O.=1             TS       OUT4                                  #  PHASE 1 EXITS HERE.
000173:    2544           44506                           CS       BIT9
000174:    2545           70011                           MASK     OUT1
000175:    2546           64506                           AD       BIT9
000176:    2547           50011                           TS       OUT1
000177:    2550           02266                           TC       NBRESUME
000178:
000179:
000180:                                                                                                  #  CONSTANTS.
000181:
000182:    2551           02425        LPHASE2            ADRES    DNPHASE2                              #  ADDRESSES FOR DNTMGOTO.
000183:    2552           02435        LPHASE3            ADRES    DNPHASE3
000184:    2553           02443        LPHASE4            ADRES    DNPHASE4
000185:    2554           02455        LPHASE5            ADRES    DNPHASE5
000186:    2555           02476        LPHASE6            ADRES    DNPHASE6
000187:    2556           02411        LPHASE7            ADRES    DNPHASE7
000188:
000189:    2557           00032        LTHCOMA            DEC      26         B-14                       #  LENGTH OF COMMON LIST A.
000190:    2560           00015        LTHCOMB            DEC      13         B-14                       #  LENGTH OF COMMON LIST B - 1.
000191:    2561           00025        LTHLSTA            DEC      21         B-14                       #  PARTICULAR LIST A.
000192:    2562           00040        LTHLSTB            DEC      32         B-14                       #  PARTICULAR LIST B.
000193:    2563           74000        DN74K              OCT      74000
000194:    2564     4473               NOMRKRS            EQUALS   THREE
000195:
000196:    2564           06067        LDNLST1            ADRES    202LSTA1
000197:    2565           06001        LDNLST2            ADRES    202LSTA2
000198:    2566           20067        LISTBANK           CADR     202LSTA1
000199:
000200:                                                                                                  #        SUBROUTINE COMMON TO UPLINK AND DOWNLINK TO TURN ON THE TM FAIL LIGHT.
000201:
000202:    2567           44513        TMFAIL             CS       BIT4
000203:    2570           70011                           MASK     OUT1
000204:    2571           64513                           AD       BIT4
000205:    2572           50011                           TS       OUT1
000206:    2573           00001                           TC       Q
000207:
000208:
000209:                                                                                                  #        COMMON LISTS A AND B.
000210:
000211:    2574           00051        COMLSTA            ADRES    CDUZ                                  #  27
000212:    2575           00050                           ADRES    CDUY                                  #  26
000213:    2576           00047                           ADRES    CDUX                                  #  25
000214:    2577           00647                           ADRES    FLAGWRD2                              #  24
000215:    2600           00646                           ADRES    FLAGWRD1                              #  23
000216:    2601           00645                           ADRES    STATE                                 #  22
000217:    2602           00011                           ADRES    OUT1                                  #  21
000218:    2603           00007                           ADRES    IN3                                   #  20
000219:    2604           00006                           ADRES    IN2                                   #  19
000220:    2605           00004                           ADRES    IN0                                   #  18
000221:    2606           00036                           ADRES    TIME1                                 #  17
000222:    2607           00035                           ADRES    TIME2                                 #  16
000223:
000224:    2610           00725        COMLSTB            ADRES    DSPTAB     +13D                       #  15/65
000225:    2611           00724                           ADRES    DSPTAB     +12D                       #  14/64
000226:    2612           00723                           ADRES    DSPTAB     +11D                       #  13/63
000227:    2613           00722                           ADRES    DSPTAB     +10D                       #  12/62
000228:    2614           00721                           ADRES    DSPTAB     +9D                        #  11/61
000229:    2615           00720                           ADRES    DSPTAB     +8D                        #  10/60
000230:    2616           00717                           ADRES    DSPTAB     +7                         #  9/59
000231:    2617           00716                           ADRES    DSPTAB     +6                         #  8/58
000232:    2620           00715                           ADRES    DSPTAB     +5                         #  7/57
000233:    2621           00714                           ADRES    DSPTAB     +4                         #  6/56
000234:    2622           00713                           ADRES    DSPTAB     +3                         #  5/55
000235:    2623           00712                           ADRES    DSPTAB     +2                         #  4/54
000236:    2624           00711                           ADRES    DSPTAB     +1                         #  3/53
000237:    2625           00710                           ADRES    DSPTAB                                #  2/52
000238:
000239:
000240:                                                                                                  #        PARTICULAR DATA LISTS FOR FLIGHT 202. LIST 1 PROVIDES DATA FOR THE ENTIRE FLIGHT EXCEPT DURING
000241:                                                                                                  #  STATE VECTOR UPDATES, FOR WHICH LIST 2 IS USED.
000242:
000243: 10,6000                                           SETLOC   20000
000244:
000245: 10,6000           06010                           ADRES    202LSTB2
000246: 10,6001           01123        202LSTA2           ADRES    STCNTR
000247: 10,6002           06114                           ADRES    DNSPARE
000248: 10,6003           06114                           ADRES    DNSPARE
000249: 10,6004           06114                           ADRES    DNSPARE
000250: 10,6005           06114                           ADRES    DNSPARE
000251: 10,6006           06114                           ADRES    DNSPARE
000252: 10,6007           06114                           ADRES    DNSPARE
000253: 10,6010           01115        202LSTB2           ADRES    STBUFF     +13D
000254: 10,6011           01114                           ADRES    STBUFF     +12D
000255: 10,6012           01113                           ADRES    STBUFF     +11D
000256: 10,6013           01112                           ADRES    STBUFF     +10D
000257: 10,6014           01111                           ADRES    STBUFF     +9D
000258: 10,6015           01110                           ADRES    STBUFF     +8D
000259: 10,6016           01107                           ADRES    STBUFF     +7
000260: 10,6017           01106                           ADRES    STBUFF     +6
000261: 10,6020           01105                           ADRES    STBUFF     +5
000262: 10,6021           01104                           ADRES    STBUFF     +4
000263: 10,6022           01103                           ADRES    STBUFF     +3
000264: 10,6023           01102                           ADRES    STBUFF     +2
000265: 10,6024           01101                           ADRES    STBUFF     +1
000266: 10,6025           01100                           ADRES    STBUFF
000267: 10,6026           01211        202LSTB1           ADRES    TAVEGON    +1                         #  COMMON TO LISTS 1 AND 2
000268: 10,6027           01210                           ADRES    TAVEGON
000269: 10,6030           01227                           ADRES    VAVEGON    +5
000270: 10,6031           01226                           ADRES    VAVEGON    +4
000271: 10,6032           01225                           ADRES    VAVEGON    +3
000272: 10,6033           01224                           ADRES    VAVEGON    +2
000273: 10,6034           01223                           ADRES    VAVEGON    +1
000274: 10,6035           01222                           ADRES    VAVEGON
000275: 10,6036           01221                           ADRES    RAVEGON    +5
000276: 10,6037           01220                           ADRES    RAVEGON    +4
000277: 10,6040           01217                           ADRES    RAVEGON    +3
000278: 10,6041           01216                           ADRES    RAVEGON    +2
000279: 10,6042           01215                           ADRES    RAVEGON    +1
000280: 10,6043           01214                           ADRES    RAVEGON
000281: 10,6044           01463                           ADRES    TCUTOFF    +1                         #  EVENT TIME
000282: 10,6045           01462                           ADRES    TCUTOFF
000283: 10,6046           01467                           ADRES    TIME1GR
000284: 10,6047           01466                           ADRES    TIME2GR
000285:
000286: 10,6050           01465                           ADRES    PIPTIME    +1
000287: 10,6051           01464                           ADRES    PIPTIME
000288: 10,6052           01000                           ADRES    VN         +5
000289: 10,6053           00777                           ADRES    VN         +4
000290: 10,6054           00776                           ADRES    VN         +3
000291: 10,6055           00775                           ADRES    VN         +2
000292: 10,6056           00774                           ADRES    VN         +1
000293: 10,6057           00773                           ADRES    VN
000294: 10,6060           00772                           ADRES    RN         +5
000295: 10,6061           00771                           ADRES    RN         +4
000296: 10,6062           00770                           ADRES    RN         +3
000297: 10,6063           00767                           ADRES    RN         +2
000298: 10,6064           00766                           ADRES    RN         +1
000299: 10,6065           00765                           ADRES    RN
000300:
000301: 10,6066           06026                           ADRES    202LSTB1
000302: 10,6067           01457        202LSTA1           ADRES    TFF        +1
000303: 10,6070           01456                           ADRES    TFF
000304: 10,6071           01113                           ADRES    VRECT      +5
000305: 10,6072           01112                           ADRES    VRECT      +4
000306: 10,6073           01111                           ADRES    VRECT      +3
000307: 10,6074           01110                           ADRES    VRECT      +2
000308: 10,6075           01107                           ADRES    VRECT      +1
000309: 10,6076           01106                           ADRES    VRECT
000310: 10,6077           01105                           ADRES    RRECT      +5
000311: 10,6100           01104                           ADRES    RRECT      +4
000312: 10,6101           01103                           ADRES    RRECT      +3
000313: 10,6102           01102                           ADRES    RRECT      +2
000314: 10,6103           01101                           ADRES    RRECT      +1
000315: 10,6104           01100                           ADRES    RRECT
000316: 10,6105           00702                           ADRES    THETAD     +2
000317: 10,6106           00701                           ADRES    THETAD     +1
000318: 10,6107           00700                           ADRES    THETAD
000319: 10,6110           01005                           ADRES    DELVX      +4
000320: 10,6111           01003                           ADRES    DELVX      +2
000321: 10,6112           01001                           ADRES    DELVX
000322: 10,6113           01075                           ADRES    REDOCNTR
000323:
000324: 10,6114           52525        DNSPARE            OCT      52525                                 #  AT FOD'S REQUEST.

End of include-file DOWN-TELEMETRY_PROGRAM.agc.  Parent file is MAIN.agc


