
Source Code


000002:                                                                                                  ## Copyright:   Public domain.
000003:                                                                                                  ## Filename:    DUMMY_202_INITIALIZATION.agc
000004:                                                                                                  ## Purpose:     A section of Corona revision 261.
000005:                                                                                                  ##              It is part of the source code for the Apollo Guidance Computer
000006:                                                                                                  ##              (AGC) for AS-202. No original listings of this software are
000007:                                                                                                  ##              available; instead, this file was created via disassembly of
000008:                                                                                                  ##              the core rope modules actually flown on the mission.
000009:                                                                                                  ## Assembler:   yaYUL
000010:                                                                                                  ## Contact:     Ron Burkey <info@sandroid.org>.
000011:                                                                                                  ## Website:     www.ibiblio.org/apollo/index.html
000012:                                                                                                  ## Mod history: 2023-05-27 MAS  Created from Solarium 55.
000013:                                                                                                  ##              2023-06-17 MAS  Updated for Corona.
000014:
000015: 33,7577                                           BANK     33
000016: 33,7577           05654        BEGINNER           TC       BANKCALL                              #  CHANGE IMUMODE AS REQUIRED.
000017: 33,7600           30216        CADRMODE           CADR     IMUREENT
000018:
000019: 33,7601           04000        BEGIN202           TC       INTPRET
000020: 33,7602           75175                           VMOVE    1
000021: 33,7603           76776                           ITC
000022: 33,7604           00766                                    RN
000023: 33,7605           21632                                    CALCGRAV
000024:
000025: 33,7606           77576                           EXIT     0
000026: 33,7607           02276                           TC       PHASCHNG                              #  SETUP SOME PHASE INFO.
000027: 33,7610           00105        EXITLOC2           OCT      00105                                 #  5.1 MODE GOES WITH READACCS.
000028:
000029: 33,7611           20017                           INHINT
000030: 33,7612           40036                           CS       TIME1
000031: 33,7613           67630                           AD       STARTDT1
000032: 33,7614           02173                           TC       WAITLIST
000033: 33,7615           65344                           CADR     READACCS
000034:
000035: 33,7616           40036                           CS       TIME1                                 #  SPARE START ROUTINE
000036: 33,7617           67631                           AD       STARTDT2
000037: 33,7620           02173                           TC       WAITLIST
000038: 33,7621           67632                           CADR     START2
000039:
000040: 33,7622           02124                           TC       ENDOFJOB
000041:


000043: 33,7623           05654        BEGINSW            TC       BANKCALL                              #  WAIT FOR MODE SWITCH IF NECESSARY.
000044: 33,7624           30331                           CADR     IMUSTALL
000045: 33,7625           07625                           TC       -0
000046:
000047: 33,7626           02124                           TC       ENDOFJOB
000048:
000049: 33,7627           00000                           DEC      0          B-14                       #  HOLE FOR 2DEC PATCHING STARTDT1 -1
000050: 33,7630           00310        STARTDT1           DEC      200        B-14
000051: 33,7631           01476        STARTDT2           DEC      830        B-14
000052:
000053: 33,7632           32162        START2             CAF      PRIO27
000054: 33,7633           02046                           TC       FINDVAC
000055: 33,7634           64407                           CADR     S4BSMSEP
000056:
000057: 33,7635           02256                           TC       TASKOVER

End of include-file DUMMY_202_INITIALISATION.agc.  Parent file is MAIN.agc


