
Source Code


000002:                                                                                                  ## Copyright:   Public domain.
000003:                                                                                                  ## Filename:    EXECUTIVE.agc
000004:                                                                                                  ## Purpose:     A section of Corona revision 261.
000005:                                                                                                  ##              It is part of the source code for the Apollo Guidance Computer
000006:                                                                                                  ##              (AGC) for AS-202. No original listings of this software are
000007:                                                                                                  ##              available; instead, this file was created via disassembly of
000008:                                                                                                  ##              the core rope modules actually flown on the mission.
000009:                                                                                                  ## Assembler:   yaYUL
000010:                                                                                                  ## Contact:     Ron Burkey <info@sandroid.org>.
000011:                                                                                                  ## Website:     www.ibiblio.org/apollo/index.html
000012:                                                                                                  ## Mod history: 2023-05-27 MAS  Created from Solarium 55.
000013:
000014:
000015:                                                                                                  #  EXECUTIVE PROGRAMS
000016:                                                                                                  #  --------- --------
000017:
000018:
000019:
000020:    2046                                           BANK     1
000021:    2046           50577        FINDVAC            TS       NEWPRIO                               #  PROGRAM TO FIND AN AVAILABLE VAC
000022:    2047           30001                           XCH      Q
000023:    2050           02065                           TC       EXECCOM                               #  COMMON FF EXECUTIVE SUBROUTINE.
000024:    2051           06004                           TC       FINDVAC2                              #  OFF TO EXECUTIVE BANK.
000025:
000026:    2052           50577        NOVAC              TS       NEWPRIO                               #  ENTRY EXCLUSIVELY FOR BASIC JOBS NOT
000027:    2053           30001                           XCH      Q                                     #  REQUIRING A VAC AREA.
000028:    2054           02065                           TC       EXECCOM                               #  COMMON FF EXECUTIVE SUBROUTINE.
000029:    2055           35501                           CAF      ZERO                                  #  ZERO PD FIELD IN PUSHLOC.
000030:    2056           50574                           TS       EXECTEM3
000031:    2057           06027                           TC       NOVAC2
000032:
000033:    2060           50573        JOBWAKE            TS       EXECTEM2                              #  ENTRY HERE TO RE-ACTIVATE A SLEEPING JOB
000034:    2061           10001                           CCS      Q                                     #  RETURN ADDRESS - 1 TO WTEXIT.
000035:    2062           50600                           TS       WTEXIT                                #  SHARES FINAL PORTION OF FINDVAC, NOVAC.
000036:    2063           02071                           TC       EXECSW                                #  COMMON EXEC BANK-SWITCH SUBROUTINE.
000037:    2064           06110                           TC       JOBWAKE2
000038:
000039:    2065           50600        EXECCOM            TS       WTEXIT                                #  EXIT ADDRESS
000040:    2066           20000                           INDEX    A                                     #  PICK UP JOB OR TASK ADDRESS.
000041:    2067           30000                           CAF      0                                     #    (USED BY FINDVAC, NOVAC, AND WAITLIST)
000042:    2070           50573                           TS       EXECTEM2
000043:
000044:    2071           32075        EXECSW             CAF      EXECBANK
000045:    2072           30015                           XCH      BANKREG                               #  CALL IN EXEC BANK, SAVING RETURN.
000046:    2073           50572                           TS       EXECTEM1
000047:    2074           00001                           TC       Q
000048:
000049:    2075           10004        EXECBANK           CADR     FINDVAC2
000050:
000051:    2076           50015        FOUNDVAC           TS       BANKREG                               #  COMES HERE TO RETURN FROM FINDVAC,
000052:    2077           20600                           INDEX    WTEXIT                                #  NOVAC, OR JOBWAKE.
000053:    2100           00001                           TC       1
000054:
000055:
000056:                                                                                                  #                CALLS TO FINDVAC BEGIN HERE, SNATCHING AN AVAILABLE VAC AREA.
000057:
000058: 04,6000                                           SETLOC   10000                                 #  EXEC/WAITLIST BANK.
000059:
000060: 04,6000           06705        SLAPB              TC       SLAP1
000061:
000062: 04,6001           07347        KEYRUPTC           TC       KEYRUPT1                              #  STANDARD LOC, DONT MOVE
000063:
000064: 04,6002           06653        MODROUTB           TC       MODROUT                               #  STANDARD LOC, DONT MOVE
000065:
000066: 04,6003           06525        SVCT3              TC       SVCT3X                                #  STANDARD LOC.
000067:
000068: 04,6004           10216        FINDVAC2           CCS      VAC1USE                               #  C(VAC1USE) =  TC VAC1USE  IF VAC1 IS
000069: 04,6005           06020                           TC       FV1                                   #  AVAILABLE, OR +0 IF IT IS IN USE.
000070: 04,6006           10272                           CCS      VAC2USE
000071: 04,6007           06020                           TC       FV1                                   #  THE FIRST CCS WITH +0 JUMPS TO THE
000072: 04,6010           10346                           CCS      VAC3USE                               #    CORRESPONDING TC ORDER.
000073: 04,6011           06020                           TC       FV1
000074: 04,6012           10422                           CCS      VAC4USE
000075: 04,6013           06020                           TC       FV1
000076: 04,6014           10476                           CCS      VAC5USE
000077: 04,6015           06020                           TC       FV1
000078:
000079: 04,6016           03052                           TC       ABORT                                 #  NO VAC AREAS AVAILABLE.
000080: 04,6017           01201                           OCT      01201
000081:
000082: 04,6020           65503        FV1                AD       TWO                                   #  TO FORM ADDRESS OF ASSIGNED VAC AREA.
000083: 04,6021           50574                           TS       EXECTEM3
000084: 04,6022           60577                           AD       NEWPRIO                               #  )  STORE ADDRESS OF VAC1 IN LOW-ORDER
000085: 04,6023           50577                           TS       NEWPRIO                               #  )    9 BITS OF NEWPRIO.
000086:
000087: 04,6024           35501                           CAF      ZERO                                  #  )
000088: 04,6025           20574                           INDEX    EXECTEM3                              #  )  STORE +0 IN VAC1USE, INDICATING USE.
000089: 04,6026           47777                           TS       0          -1                         #  )
000090:
000091: 04,6027           36042        NOVAC2             CAF      LASTADR                               #  RELATIVE ADDRESS OF LAST REGISTER SET.
000092: 04,6030           50601                           TS       LOCCTR
000093: 04,6031           10000                           CCS      A
000094: 04,6032           06037                           TC       +5                                    #  PNZ AND -0 ONLY.
000095:
000096: 04,6033           40573        12BITSOK           CS       EXECTEM2                              #  COMES HERE IF JOB ADDRESS LESS THAN 6K.
000097: 04,6034           06067                           TC       LOCSET
000098:
000099: 04,6035           03052                           TC       ABORT                                 #  NO REGISTER SETS AVAILABLE.
000100: 04,6036           01202                           OCT      01202
000101:
000102: 04,6037           20601                 +5        INDEX    LOCCTR                                #  THIS LOOP FINDS THE FIRST AVAILABLE
000103: 04,6040           10124                           CCS      PRIORITY                              #    STORAGE AREA FOR CORE REGISTERS FOR
000104: 04,6041           06105                           TC       NOVAC3                                #  THE NEW JOB.
000105: 04,6042           00070        LASTADR            DEC      56         B-14                       #  EIGHT SETS OF EIGHT REGISTERS.
000106: 04,6043           06105                           TC       NOVAC3                                #  NNZ MEANS JOB ASLEEP HERE.
000107:
000108:
000109:                                                                                                  #        NOW THAT REGISTER SETS HAVE BEEN FOUND FOR THE NEW JOB, INITIALIZE THEM AND SET NEWJOB IF CALLED FOR.
000110:
000111: 04,6044           20601        CORSW              INDEX    LOCCTR                                #  (COMES HERE WITH C(A) = 0). TURN OFF OVF
000112: 04,6045           50122                           TS       OVFIND
000113:
000114: 04,6046           60577                           AD       NEWPRIO                               #  SET UP PRIORITY FOR NEW JOB.
000115: 04,6047           20601        JOBWAKE4           INDEX    LOCCTR                                #  JOB WAKING ENTERS HERE TO FINISH UP.
000116: 04,6050           50124                           TS       PRIORITY                              #  STORE NEW PRIORITY
000117: 04,6051           32261                           CAF      BANKMASK
000118: 04,6052           70573                           MASK     EXECTEM2
000119: 04,6053           60574                           AD       EXECTEM3                              #  PUSHLOC
000120: 04,6054           20601                           INDEX    LOCCTR
000121: 04,6055           50123                           TS       PUSHLOC
000122:
000123: 04,6056           36316                           CAF      EXEC70K                               #  CREATE PROPER 12 BIT ADDRESS.
000124: 04,6057           70573                           MASK     EXECTEM2                              #  SEE IF HIGH THREE BITS ZERO.
000125: 04,6060           10000                           CCS      A
000126: 04,6061           06063                           TC       +2                                    #  NEEDS SPECIAL TREATMENT IF C(A) NOT ZERO
000127: 04,6062           06033                           TC       12BITSOK
000128:
000129: 04,6063           30573                           XCH      EXECTEM2
000130: 04,6064           74606                           MASK     LOW10
000131: 04,6065           64373                           AD       6K
000132: 04,6066           40000                           COM
000133: 04,6067           20601        LOCSET             INDEX    LOCCTR
000134: 04,6070           50120                           TS       LOC
000135:
000136: 04,6071           20215                           INDEX    NEWJOB
000137: 04,6072           40124                           CS       PRIORITY                              #  TEST WHETHER NEW JOB HAS HIGHER
000138: 04,6073           60577                           AD       NEWPRIO                               #  PRIORITY THAN PREVIOUS HIGHEST
000139: 04,6074           10000                           CCS      A
000140: 04,6075           40601                           CS       LOCCTR                                #  NEW JOB HAS HIGHER PRIORITY.
000141: 04,6076           06102                           TC       NEWHIGH                               #  SET NEWJOB, LEAVING LOCCTR UNCHANGED.
000142:
000143: 04,6077           06100                           TC       +1                                    #  -0 IF PRIORITIES = AND BOTH ARE NOVACS.
000144: 04,6100           30572        NOWAKE2            XCH      EXECTEM1
000145: 04,6101           02076        ENDFIND            TC       FOUNDVAC
000146:
000147: 04,6102           40000        NEWHIGH            COM                                            #  SET NEWJOB AND RETURN TO CALLER.
000148: 04,6103           50215                           TS       NEWJOB
000149: 04,6104           06100                           TC       ENDFIND    -1
000150:
000151: 04,6105           44513        NOVAC3             CS       EIGHT                                 #  COMES HERE TO EXAMINE NEXT REGISTER SET.
000152: 04,6106           60601                           AD       LOCCTR
000153: 04,6107           06030                           TC       NOVAC2     +1
000154:
000155:
000156:                                                                                                  #        THE  JOBWAKE  ROUTINE REACTIVES A SLEEPING JOB, SETTING IT TO BEGIN AT THE GIVEN WAKE ADDRESS.
000157:
000158: 04,6110           36042        JOBWAKE2           CAF      LASTADR                               #  BEGIN SEARCH FOR REGISTER SET CONTAINING
000159: 04,6111           50601                           TS       LOCCTR                                #  SLEEPING JOB. WAKE ADDRESS IS IN  LOC IN
000160: 04,6112           10000                           CCS      A                                     #  CADR FORM, AS PLACED THERE BY  JOBSLEEP.
000161: 04,6113           20601                           INDEX    LOCCTR                                #  PNZ AND -0 ONLY. SEE IF THIS JOB ASLEEP.
000162: 04,6114           10124                           CCS      PRIORITY                              #  THIS CCS CANT GO TO  TC NOWAKE  .
000163: 04,6115           06140                           TC       JOBWAKE3                              #  PNZ - ACTIVE JOB PRESENT. +0 IMPOSSIBLE.
000164:
000165: 04,6116           06143                           TC       NOWAKE                                #  ALARM - SLEEPING JOB NOT FOUND.
000166:
000167: 04,6117           06121                           TC       +2                                    #  INACTIVE JOB FOUND.
000168: 04,6120           06140                           TC       JOBWAKE3                              #  -0 - NOT IN USE.
000169:
000170: 04,6121           40573                 +2        CS       EXECTEM2                              #  SEE IF THIS IS THE DESIRED SLEEPING JOB.
000171: 04,6122           20601                           INDEX    LOCCTR
000172: 04,6123           60120                           AD       LOC
000173: 04,6124           10000                           CCS      A
000174: 04,6125           06140                           TC       JOBWAKE3                              #  SEARCH NEXT SET IF NOT AT END.
000175: 04,6126           03070                           TC       CCSHOLE
000176: 04,6127           06140                           TC       JOBWAKE3
000177:
000178: 04,6130           34606                           CAF      LOW10                                 #  SET UP EXECTEM3 AND PRIORITY SO WE CAN
000179: 04,6131           20601                           INDEX    LOCCTR                                #  FINISH AT STANDARD  CORSW  .
000180: 04,6132           70123                           MASK     PUSHLOC                               #  PROTECT PD SETTING.
000181: 04,6133           50574                           TS       EXECTEM3
000182:
000183: 04,6134           20601                           INDEX    LOCCTR                                #  RE-COMPLEMENT PRIORITY AND FINISH UP.
000184: 04,6135           40124                           CS       PRIORITY
000185: 04,6136           50577                           TS       NEWPRIO
000186: 04,6137           06047                           TC       JOBWAKE4
000187:
000188: 04,6140           44513        JOBWAKE3           CS       EIGHT                                 #  ADVANCE TO NEXT REGISTER SET.
000189: 04,6141           60601                           AD       LOCCTR
000190: 04,6142           06111                           TC       JOBWAKE2   +1
000191:
000192: 04,6143           50601        NOWAKE             TS       LOCCTR                                #  SET LOCCTR = +0 TO SHOW NO JOB WAS
000193: 04,6144           06100                           TC       NOWAKE2                               #   AWAKENED.
000194:
000195:
000196:                                                                                                  #  A NEW JOB, OF HIGHER PRIORITY THAN THE PRESENT ONE, CAUSES THE RELA-
000197:                                                                                                  #  TIVE ADDRESS (9, 18, ..., 63) OF THE NEW JOB CORE REGISTERS TO BE
000198:                                                                                                  #  PLACED IN REGISTER  NEWJOB , WHERE IT IS TESTED BY THE INTERPRETER.
000199:                                                                                                  #  THE RESULTING BRANCH TO CHANJOB, BELOW, CAUSES A TRADE BETWEEN THE
000200:                                                                                                  #  CORE REGISTERS OF THE PRESENT AND NEW JOBS.
000201:
000202:    2101                                           SETLOC   FOUNDVAC   +3
000203:
000204:    2101           20017        CHANG1             INHINT                                         #  BASIC JOBS COME HERE WHEN C(NEWJOB)
000205:    2102           32075                           CAF      EXECBANK                              #  NON-ZERO. START BY CALLING IN EXECUTIVE
000206:    2103           30015                           XCH      BANKREG                               #  BANK AND SAVING RETURN BANK CODE.
000207:    2104           40000                           COM
000208:    2105           50061                           TS       BANKSET
000209:    2106           30123                           XCH      PUSHLOC                               #  BLANK OUT THE HIGH-ORDER 4 BITS IN
000210:    2107           74606                           MASK     LOW10                                 #  PUSHLOC SO THE BANK BITS CAN BE PACKED
000211:    2110           50123                           TS       PUSHLOC                               #  WITH IT
000212:    2111           40001                           CS       Q                                     #  FOR RETURN, SHOWING THIS WAS A BASIC JOB
000213:    2112           06145                           TC       CHANJOB                               #  OFF TO BANK 0
000214:
000215:    2113           10066        CHANG2             CCS      NEWEQIND                              #  INTERPRETIVE INTERRUPTS START HERE,
000216:    2114           00001                           TC       Q                                     #  PROVIDED THE LOAD INDICATOR ISNT ON
000217:
000218:    2115           20017                           INHINT
000219:    2116           32075                           CAF      EXECBANK                              #  CALL IN EXECUTIVE BANK.
000220:    2117           50015                           TS       BANKREG
000221:    2120           30120                           XCH      LOC
000222:    2121           06145                           TC       CHANJOB                               #  WITH C(A) PNZ, SHOWING WE WERE IN INTERP
000223:                                                                                                  #  RETER
000224: 04,6145                                           SETLOC   NOWAKE     +2
000225: 04,6145           20215        CHANJOB            INDEX    NEWJOB                                #  TO BEGIN SWAP OF CORE REGISTERS
000226: 04,6146           30120                           XCH      LOC
000227: 04,6147           50120                           TS       LOC                                   #  SAVE PROPER 12 BIT ADDRESS
000228:
000229: 04,6150           30124                           XCH      PRIORITY
000230: 04,6151           20215                           INDEX    NEWJOB
000231: 04,6152           30124                           XCH      PRIORITY
000232: 04,6153           50124                           TS       PRIORITY
000233: 04,6154           74607                           MASK     LOW9                                  #  TO GET FIXLOC
000234: 04,6155           50067                           TS       FIXLOC
000235: 04,6156           64511                           AD       BIT6                                  #  SET UP VACLOC ( = FIXLOC + 32D )
000236: 04,6157           50070                           TS       VACLOC
000237:
000238: 04,6160           40061                           CS       BANKSET                               #  SAVE BANK
000239: 04,6161           60123                           AD       PUSHLOC                               #  AND PUSHLOC IN SAME WORD
000240: 04,6162           20215                           INDEX    NEWJOB
000241: 04,6163           30123                           XCH      PUSHLOC
000242: 04,6164           50123                           TS       PUSHLOC
000243: 04,6165           74606                           MASK     LOW10
000244: 04,6166           30123                           XCH      PUSHLOC
000245: 04,6167           40000                           COM
000246: 04,6170           60123                           AD       PUSHLOC                               #  WE NOW HAVE COMPLEMNT OF BANK BITS
000247: 04,6171           50061                           TS       BANKSET
000248:
000249: 04,6172           40121                           CS       ADRLOC                                #  SAVE MODE AND COMPLEMENT OF ADRLOC IN
000250: 04,6173           60000                           DOUBLE                                         #  SAME WORD. ADRLOC MUST BE SHIFTED 2
000251: 04,6174           60000                           DOUBLE                                         #  PLACES TO MAKE ROOM FOR MODE
000252: 04,6175           60065                           AD       MODE                                  #  -0, -1, OR -2
000253: 04,6176           20215                           INDEX    NEWJOB
000254: 04,6177           30121                           XCH      ADRLOC
000255: 04,6200           50021                           TS       SR
000256: 04,6201           74473                           MASK     THREE                                 #  SAVE LOW 2 BITS
000257: 04,6202           64341                           AD       NEG3                                  #  THIS RESULTS IN EITHER -0, -1, OR -2
000258: 04,6203           50065                           TS       MODE
000259: 04,6204           40021                           CS       SR
000260: 04,6205           40021                           CS       SR
000261: 04,6206           50121                           TS       ADRLOC
000262:
000263: 04,6207           10122                           CCS      OVFIND                                #  SAVE C(ORDER) POSITIVE IF C(OVFIND) = 0
000264: 04,6210           06212                           TC       +2                                    #  AND NEGATIVE OTHERWISE
000265: 04,6211           06214                           TC       +3
000266: 04,6212           40063                           CS       ORDER
000267: 04,6213           06215                           TC       +2
000268: 04,6214           30063                           XCH      ORDER
000269: 04,6215           20215                           INDEX    NEWJOB
000270: 04,6216           30122                           XCH      OVFIND
000271: 04,6217           50063                           TS       ORDER
000272: 04,6220           10000                           CCS      A                                     #  DETERMINE NEW SETTING OF OVFIND
000273: 04,6221           35501                           CAF      ZERO                                  #  TO ZERO
000274: 04,6222           06226                           TC       OVFSET
000275: 04,6223           40063                           CS       ORDER                                 #  ORDER WAS NEGATIVE, MAKE IT POSITIVE
000276: 04,6224           50063                           TS       ORDER
000277: 04,6225           34516                           CAF      ONE                                   #  TO SET OVFIND
000278: 04,6226           50122        OVFSET             TS       OVFIND
000279:
000280: 04,6227           30115                           XCH      MPAC                                  #  TRADE C(MPAC TO MPAC+2)
000281: 04,6230           20215                           INDEX    NEWJOB
000282: 04,6231           30115                           XCH      MPAC
000283: 04,6232           50115                           TS       MPAC
000284: 04,6233           30116                           XCH      MPAC       +1
000285: 04,6234           20215                           INDEX    NEWJOB
000286: 04,6235           30116                           XCH      MPAC       +1
000287: 04,6236           50116                           TS       MPAC       +1
000288: 04,6237           30117                           XCH      MPAC       +2
000289: 04,6240           20215                           INDEX    NEWJOB
000290: 04,6241           30117                           XCH      MPAC       +2
000291: 04,6242           50117                           TS       MPAC       +2
000292:
000293: 04,6243           35501                           CAF      ZERO
000294: 04,6244           50066                           TS       NEWEQIND                              #  MAKE SURE LOAD INDICATOR OFF.
000295: 04,6245           50215        SETNJ              TS       NEWJOB
000296: 04,6246           20016                           RELINT                                         #  ENABLE INTERRUPT
000297: 04,6247           10120                           CCS      LOC                                   #  C(LOC) PNZ FOR INTERPRETIVE JOBS.
000298: 04,6250           35501                           CAF      ZERO
000299: 04,6251           04026                           TC       DANZIG     +2                         #  RETURN TO INTERPRETER
000300: 04,6252           64516                           AD       ONE                                   #  GET ABS(LOC) AND RETURN TO BASIC
000301: 04,6253           50062                           TS       ADDRWD
000302: 04,6254           40061                           CS       BANKSET                               #  GET DESIRED BANKBITS
000303: 04,6255           02122        ENDCHANG           TC       BASICALL
000304:
000305:    2122                                           SETLOC   CHANG2     +7D                        #  TAKE UP WHERE WE LEFT OFF IN FIXED-FIXED
000306:
000307:    2122           50015        BASICALL           TS       BANKREG
000308:    2123           00062                           TC       ADDRWD
000309:
000310:    2124           32075        ENDOFJOB           CAF      EXECBANK                              #  NORMAL ENDJOB ENTRY.
000311:    2125           50015                           TS       BANKREG
000312:    2126           06256                           TC       ENDJOB1
000313:
000314:    2127           50120        JOBSLEEP           TS       LOC                                   #  ENTRY HERE TO DE-ACTIVE THIS JOB.
000315:    2130           32075                           CAF      EXECBANK                              #  LOC IS SET TO THE AWAKENING ADDRESS
000316:    2131           50015                           TS       BANKREG                               #  SO THE SUBSEQUENT JOBWAKE CAN FIND
000317:    2132           06267                           TC       JOBSLP1                               #  THE PROPER REGISTER SET.
000318:
000319: 04,6256                                           SETLOC   ENDCHANG   +1
000320:
000321: 04,6256           20017        ENDJOB1            INHINT                                         #  INTERPRETIVE JOBS FINISH WITH RTB
000322: 04,6257           45501                           CS       ZERO                                  #  TO ENDJOB1
000323: 04,6260           50100                           TS       BUF        +1                         #  ENDJOB USES BUF, BUF +1, AND BUF +2.
000324: 04,6261           30124                           XCH      PRIORITY
000325: 04,6262           74607                           MASK     LOW9                                  #  RESTORE AVAILABILITY OF VAC1 BY SETTING
000326: 04,6263           10000                           CCS      A                                     #  C(VAC1USE) NON-ZERO
000327: 04,6264           20000                           INDEX    A
000328: 04,6265           50000                           TS       0
000329:
000330: 04,6266           06274                           TC       EJSCAN                                #  ENDJOB NEED NOT EXAMINE FIRST REG. SET.
000331:
000332: 04,6267           20017        JOBSLP1            INHINT                                         #  FINISH JOB SLEEP AND START ENDJOB-TYPE
000333: 04,6270           40124                           CS       PRIORITY                              #  SCAN. COMPLEMENTED PRIORITY REGISTER
000334: 04,6271           50124                           TS       PRIORITY                              #  SHOWS JOB IS ASLEEP.
000335: 04,6272           45501                           CS       ZERO                                  #  INITIALIZE SEARCH FOR HIGHEST PRIORITY.
000336: 04,6273           50100                           TS       BUF        +1
000337:
000338:
000339:                                                                                                  #        SCAN FOR THE ACTIVE JOB OF HIGHEST PRIORITY.
000340:
000341: 04,6274           10134        EJSCAN             CCS      PRIORITY   +8D                        #  EACH PRIORITY REGISTER (PRIORITY +8N)
000342: 04,6275           06341                           TC       EJ1                                   #  IS SCANNED. ITS CONTENTS ARE EITHER
000343: 04,6276           03070                           TC       CCSHOLE
000344: 04,6277           06300                           TC       +1                                    #     2. NNZ - AN INACTIVE PRIORITY NUMBER.
000345:
000346: 04,6300           10144                           CCS      PRIORITY   +16D                       #  OR 3. -0 - NOT IN USE.
000347: 04,6301           06341                           TC       EJ1                                   #  IF PNZ, CONTROL IS TRANSFERRED TO EJ1
000348: 04,6302           03070                           TC       CCSHOLE
000349: 04,6303           06304                           TC       +1                                    #  PARED WITH THE PREVIOUS HIGHEST
000350:
000351: 04,6304           10154                           CCS      PRIORITY   +24D                       #  PRIORITY FOUND. THE CONTENTS OF Q
000352: 04,6305           06341                           TC       EJ1                                   #  SERVE TO LOCATE THE CCS WHICH WAS
000353: 04,6306           03070                           TC       CCSHOLE
000354: 04,6307           06310                           TC       +1                                    #  NEWJOB IS SET TO THE RELATIVE ADDRESS
000355:
000356: 04,6310           10164                           CCS      PRIORITY   +32D                       #  OF THE REGISTER SET WITH THE HIGHTEST
000357: 04,6311           06341                           TC       EJ1                                   #  ACTIVE PRIORITY AT THE END OF THE SCAN.
000358: 04,6312           03070                           TC       CCSHOLE
000359: 04,6313           06314                           TC       +1
000360:
000361: 04,6314           10174                           CCS      PRIORITY   +40D
000362: 04,6315           06341                           TC       EJ1
000363: 04,6316           70000        EXEC70K            OCT      70000
000364: 04,6317           06320                           TC       +1
000365:
000366: 04,6320           10204                           CCS      PRIORITY   +48D
000367: 04,6321           06341                           TC       EJ1
000368: 04,6322           67653        -CCSPR            -CCS      PRIORITY
000369: 04,6323           06324                           TC       +1
000370:
000371: 04,6324           10214                           CCS      PRIORITY   +56D
000372: 04,6325           06341                           TC       EJ1
000373: 04,6326           03070                           TC       CCSHOLE
000374: 04,6327           06330                           TC       +1
000375: 04,6330           10077                           CCS      BUF                                   #  IF BUF = 0, THE SCAN WAS PART OF
000376: 04,6331           06333                           TC       +2                                    #  A PRIORITY CHANGE IN WHICH THE NEW
000377: 04,6332           06245                           TC       SETNJ                                 #  PRIORITY IS HIGHEST. GO SET NEWJOB = 0.
000378:
000379: 04,6333           20000                           INDEX    A                                     #  PICK UP CCS INSTRUCTION TO GET NEWJOB
000380: 04,6334           27777                           CAF      0          -1                         #  SELECT CCS INSTRUCTION.
000381: 04,6335           66322                           AD       -CCSPR
000382: 04,6336           50215                           TS       NEWJOB                                #  RELATIVE ADDRESS ONLY.
000383: 04,6337           30120                           XCH      LOC                                   #  (NO MEANING FOR ENDOFJOB).
000384: 04,6340           06145                           TC       CHANJOB
000385:
000386:
000387:
000388: 04,6341           50101        EJ1                TS       BUF        +2                         #  STORE NEW PRIORITY
000389: 04,6342           60100                           AD       BUF        +1                         #  - OLD PRIORITY
000390: 04,6343           10000                           CCS      A
000391: 04,6344           30001                           XCH      Q                                     #  IF NEW PRIORITY IS LARGER
000392: 04,6345           06351                           TC       EJ2
000393: 04,6346           30000                           NOOP                                           #  IF OLD PRIORITY IS LARGER
000394: 04,6347           20001                           INDEX    Q                                     #    OR EQUAL
000395: 04,6350           00002                           TC       2
000396:
000397: 04,6351           50077        EJ2                TS       BUF                                   #  SAVE C(Q) TO LOCATE HIGHEST PRIORITY
000398: 04,6352           40101                           CS       BUF        +2                         #    JOB AT END OF SCAN.
000399: 04,6353           50100                           TS       BUF        +1
000400: 04,6354           20077                           INDEX    BUF
000401: 04,6355           00002                           TC       2
000402:
000403:
000404:                                                                                                  #        THE FOLLOWING ROUTINE IS AVAILABLE TO CHANGE THE PRIORITY OF A JOB WHILE IT IS RUNNING UNDER EXECUTIVE
000405:                                                                                                  #  CONTROL (IE, IN CORE SET 0). CALLING SEQUENCE IS AS FOLLOWS (NO INHINT NECESSARY):
000406:
000407:                                                                                                  #                CAF     NEWPRIO         PRIORITY IN BITS 10-14 - ZERO ELSEWHERE.
000408:                                                                                                  #        L       TC      PRIOCHNG
000409:
000410:                                                                                                  #  RETURN IS TO L+1 IMMEDIATELY UNLESS A JOB OF STILL HIGHER PRIORITY IS PRESENT, IN WHICH CASE IT GOES TO CHANJOB
000411:                                                                                                  #  BEFORE RETURNING.
000412:
000413:
000414:
000415:    2133                                           SETLOC   JOBSLEEP   +4
000416:
000417:    2133           20017        PRIOCHNG           INHINT                                         #  PREPARE Q, BANK, AND PUSHLOC (ALA
000418:    2134           50577                           TS       NEWPRIO                               #  CHANG1) IN CASE WE HAVE TO CHANGE JOBS.
000419:    2135           40001                           CS       Q
000420:    2136           50120                           TS       LOC
000421:    2137           32075                           CAF      EXECBANK
000422:    2140           30015                           XCH      BANKREG
000423:    2141           06356                           TC       PRIOCH2                               #  OFF TO EXECUTIVE BANK.
000424:
000425: 04,6356                                           SETLOC   EJ2        +5
000426:
000427: 04,6356           40000        PRIOCH2            COM
000428: 04,6357           50061                           TS       BANKSET
000429: 04,6360           30123                           XCH      PUSHLOC
000430: 04,6361           74606                           MASK     LOW10
000431: 04,6362           50123                           TS       PUSHLOC
000432:
000433: 04,6363           34607                           CAF      LOW9                                  #  MAKE UP NEW PRIORITY WORD, LEAVING
000434: 04,6364           70124                           MASK     PRIORITY                              #  POSSIBLE VAC ADDRESS INTACT.
000435: 04,6365           60577                           AD       NEWPRIO
000436: 04,6366           50124                           TS       PRIORITY
000437: 04,6367           40000                           COM                                            #  INITIALIZE BUF +1 TO - THIS PRIORITY FOR
000438: 04,6370           50100                           TS       BUF        +1                         #  SEARCH FOR HIGHEST PRIORITY.
000439:
000440: 04,6371           35501                           CAF      ZERO                                  #  SET BUF TO ZERO AS A FLAG FOR END OF
000441: 04,6372           50077                           TS       BUF                                   #  SCAN.
000442: 04,6373           06274                           TC       EJSCAN                                #  SCAN FOR HIGHEST PRIORITY.
000443:
000444:
000445:                                                                                                  #  LIST OF PROGRAM PRIORITIES
000446:
000447:    2142                                           SETLOC   PRIOCHNG   +7
000448:
000449:    2142     4505               PRIO1              EQUALS   BIT10
000450:    2142     4504               PRIO2              EQUALS   BIT11
000451:    2142           03000        PRIO3              OCT      03000
000452:    2143     4503               PRIO4              EQUALS   BIT12
000453:    2143           05000        PRIO5              OCT      05000
000454:    2144     2143               OCT05000           EQUALS   PRIO5
000455:    2144     4373               PRIO6              EQUALS   6K
000456:    2144           07000        PRIO7              OCT      07000
000457:    2145     4502               PRIO10             EQUALS   BIT13
000458:    2145           11000        PRIO11             OCT      11000
000459:    2146           12000        PRIO12             OCT      12000
000460:    2147           13000        PRIO13             OCT      13000
000461:    2150           14000        PRIO14             OCT      14000
000462:    2151           15000        PRIO15             OCT      15000
000463:    2152           16000        PRIO16             OCT      16000
000464:    2153           17000        PRIO17             OCT      17000
000465:    2154     4501               PRIO20             EQUALS   BIT14
000466:    2154           21000        PRIO21             OCT      21000
000467:    2155           22000        PRIO22             OCT      22000
000468:    2156           23000        PRIO23             OCT      23000
000469:    2157           24000        PRIO24             OCT      24000
000470:    2160           25000        PRIO25             OCT      25000
000471:    2161           26000        PRIO26             OCT      26000
000472:    2162           27000        PRIO27             OCT      27000
000473:    2163           30000        PRIO30             OCT      30000
000474:    2164           31000        PRIO31             OCT      31000
000475:    2165           32000        PRIO32             OCT      32000
000476:    2166           33000        PRIO33             OCT      33000
000477:    2167           34000        PRIO34             OCT      34000
000478:    2170           35000        PRIO35             OCT      35000
000479:    2171           36000        PRIO36             OCT      36000
000480:    2172           37000        PRIO37             OCT      37000

End of include-file EXECUTIVE.agc.  Parent file is MAIN.agc


