
Source Code


000002:                                                                                                  ## Copyright:   Public domain.
000003:                                                                                                  ## Filename:    FIXED-FIXED_INTERPRETER_SECTION.agc
000004:                                                                                                  ## Purpose:     A section of Corona revision 261.
000005:                                                                                                  ##              It is part of the source code for the Apollo Guidance Computer
000006:                                                                                                  ##              (AGC) for AS-202. No original listings of this software are
000007:                                                                                                  ##              available; instead, this file was created via disassembly of
000008:                                                                                                  ##              the core rope modules actually flown on the mission.
000009:                                                                                                  ## Assembler:   yaYUL
000010:                                                                                                  ## Contact:     Ron Burkey <info@sandroid.org>.
000011:                                                                                                  ## Website:     www.ibiblio.org/apollo/index.html
000012:                                                                                                  ## Mod history: 2023-05-27 MAS  Created from Solarium 55.
000013:
000014:
000015:    4000                                           SETLOC   4000                                  #  SECOND HALF OF FIXED-FIXED.
000016:
000017:    4000           10001        INTPRET            CCS      Q                                     #  ENTRY TO INTERPRETER
000018:    4001           50121                           TS       ADRLOC
000019:
000020:    4002           40015                           CS       BANKREG                               #  GET BANKBITS
000021:    4003           50061                           TS       BANKSET
000022:    4004           04007                           TC       +3
000023:
000024:    4005           40061        NEWEQUN            CS       BANKSET                               #  HERE FOR NEW EQUATIONS
000025:    4006           50015                           TS       BANKREG
000026:    4007           34516                           CAF      ONE                                   #  SET NEWEQIND TO CALL LOAD
000027:    4010           50066                           TS       NEWEQIND
000028:    4011           60121                           AD       ADRLOC                                #  C(ADRLOC) = LOCATION LAST ADDRESS USED
000029:    4012           50120                           TS       LOC                                   #  FOR OPERATORS
000030:    4013           20000                           INDEX    A                                     #  GET FIRST OP  AND NO. OF OPERATOR WORDS
000031:    4014           40000                           CS       0
000032:    4015           64335                           AD       MINUS1
000033:    4016           50063                           TS       ORDER
000034:    4017           74720                           MASK     LOW7                                  #  NUMBER OF ADDITIONAL OPERATOR WORDS
000035:    4020           60120                           AD       LOC
000036:    4021           50121                           TS       ADRLOC                                #  AND SET ADRLOC
000037:    4022           35501                           CAF      ZERO                                  #  TO SET ORDER TO ZERO
000038:    4023           04072                           TC       IPROC2
000039:
000040:
000041:    4024           10215        DANZIG             CCS      NEWJOB                                #  INTERPRETIVE INTERRUPT
000042:    4025           02113                           TC       CHANG2                                #  CALL IN BANK0 AND SWITCH JOBS
000043:
000044:    4026           40061                           CS       BANKSET                               #  RESET BANK BITS OF OBJECT PROGRAM
000045:    4027           50015                           TS       BANKREG
000046:
000047:    4030           10063                           CCS      ORDER                                 #  HAS NEXT OP CODE BEEN PROCESSED
000048:    4031           04200                           TC       LOWWD                                 #  NEXT INSTRUCTION WAS RIGHT-HAND
000049:
000050:    4032           20120                           INDEX    LOC                                   #  PICK UP POSSIBLE NEXT INSTRUCTION
000051:    4033           40001                           CS       1
000052:    4034           10000                           CCS      A
000053:    4035           04065                           TC       IPROC                                 #  IT IS - GO PROCESS IT
000054:    4036           04037                           TC       +1                                    #  IN CASE THE FIRST ADDRESS WAS INACTIVE
000055:
000056:    4037           20121                           INDEX    ADRLOC                                #  END OF EQUATION
000057:    4040           40001                           CS       1
000058:    4041           10000                           CCS      A                                     #  IS THERE ANOTHER ADDRESS
000059:    4042           04317                           TC       PUSHDOWN                              #  NO - INSERT IN PUSH-DOWN LIST
000060:    4043           00042        D34                DEC      34         B-14                       #  USED TO DISPATCH STORE OPERATIONS
000061:
000062:    4044           50076        STORADR            TS       POLISH                                #  PROCESS STORE ADDRESSES
000063:    4045           04364                           TC       INCADR                                #  TO SHOW WE PICKED UP ANOTHER ADDRESS
000064:    4046           34043                           CAF      D34                                   #  FORM CODES 32 - 34
000065:    4047           60065                           AD       MODE
000066:    4050           60000                           DOUBLE                                         #  BECAUSE WE HAVE TO PUT IT INTO CYR
000067:    4051           50020                           TS       CYR
000068:    4052           34302                           CAF      LOW11
000069:    4053           70076                           MASK     POLISH                                #  SAVE ERASABLE PART PLUS POSSIBLE TAG
000070:    4054           30076                           XCH      POLISH
000071:    4055           64060                           AD       NEGIDEX                               #  DIRECT OR INDEXED
000072:    4056           10000                           CCS      A
000073:    4057           04233                           TC       INDEX                                 #  IT IS INDEXED - PRESENT POLISH  OK
000074:    4060           44000        NEGIDEX            OCT      -33777                                #  NEGATIVE OF STORE ADDRESS PREFIX +1
000075:    4061           44504                           CS       BIT11
000076:    4062           60076                           AD       POLISH
000077:    4063           50076                           TS       POLISH
000078:    4064           04257                           TC       NONINDEX
000079:
000080:
000081:    4065           50063        IPROC              TS       ORDER                                 #  OP CODE WORD WAS PICKED UP BY CCS
000082:    4066           30120                           XCH      LOC
000083:    4067           64516                           AD       ONE
000084:    4070           30120                           XCH      LOC
000085:    4071           74720                           MASK     LOW7                                  #  SAVE LOW ORDER CODE
000086:    4072           30063        IPROC2             XCH      ORDER                                 #  ENTRY FROM NEWEQUN
000087:    4073           25777                           INDEX    OPOVF
000088:    4074           44507                           MP       BIT8                                  #  SHIFT IT RIGHT SEVEN PLACES
000089:    4075           50020                           TS       CYR                                   #  GETTING RID OF THE RIGHT-HAND OP
000090:
000091:    4076           10020        JUMPIT             CCS      CYR                                   #  LOOK AT LOW-ORDER PREFIX BIT
000092:    4077           04215                           TC       ADDRESS                               #  INDEXABLE - DECODE ADDRESS IMMEDIATELY
000093:    4100           00043        LOADOP             OCT      43                                    #  USED BY UNARY LOAD
000094:
000095:    4101           10020                           CCS      CYR                                   #  LOOK AT SECOND ONE HERE
000096:    4102           04364                           TC       INCADR                                #  PROCESS MISCELLANEOUS
000097:    4103           04113                           TC       MISCPROC
000098:
000099:    4104           10066        UNAPROC            CCS      NEWEQIND                              #  PROCESS UNARY REQUESTS
000100:    4105           04152                           TC       UNALOAD                               #  LOAD AN ACCUMULATOR AND RETURN
000101:
000102:    4106           34720                           CAF      LOW7
000103:    4107           50015                           TS       BANKREG                               #  CALL IN BANK 0 WHERE UNARIES ARE
000104:    4110           70020                           MASK     CYR                                   #  WITHOUT CLOBBERING
000105:    4111           20000                           INDEX    A
000106:    4112           04453                           TC       UNAJUMP
000107:
000108:
000109:                                                                                                  #        PROCESS MISCELLANEOUS OP CODES.
000110:
000111:    4113           20000        MISCPROC           INDEX    A
000112:    4114           40000                           CS       0                                     #  WE KNOW ITS AN ADDRESS
000113:    4115           64516                           AD       ONE                                   #  TO FIT IN WITH THE POLISH ADDRESS SCHEME
000114:    4116           50076                           TS       POLISH                                #  SAVE ENTIRE ADDRESS
000115:
000116:    4117           10000                           CCS      A
000117:    4120           04145                           TC       ENDMISC
000118:    4121           42000        42K                OCT      42000
000119:    4122           04124                           TC       +2
000120:    4123           04143                           TC       MISCREL
000121:    4124           62261                           AD       BANKMASK
000122:    4125           10000                           CCS      A
000123:    4126           64516                           AD       ONE
000124:    4127           04131                           TC       +2
000125:    4130           04135                           TC       MISC2
000126:
000127:    4131           64121                           AD       42K
000128:    4132           40000                           COM
000129:    4133           50076                           TS       POLISH
000130:    4134           04145                           TC       ENDMISC
000131:
000132:    4135           64517        MISC2              AD       RELTEST
000133:    4136           10000                           CCS      A
000134:    4137           40076                           CS       POLISH
000135:    4140           04143                           TC       +3
000136:    4141           40076                           CS       POLISH
000137:    4142           04144                           TC       +2
000138:    4143           60067        MISCREL            AD       FIXLOC
000139:    4144           50062                           TS       ADDRWD
000140:
000141:    4145           34720        ENDMISC            CAF      LOW7
000142:    4146           50015                           TS       BANKREG                               #  CALL IN BANK 0
000143:    4147           70020                           MASK     CYR
000144:    4150           20000                           INDEX    A
000145:    4151           04433                           TC       NONJUMP
000146:
000147:
000148:    4152           34720        UNALOAD            CAF      LOW7                                  #  PROCESS LOADING REQUESTS FOR UNARY
000149:    4153           70020                           MASK     CYR                                   #  OPERATIONS. START BY FINDING APPROPRIATE
000150:    4154           10000                           CCS      A                                     #  MODE
000151:    4155           04160                           TC       +3                                    #  TMOVE HAS CODE 0
000152:    4156           45503                           CS       TWO
000153:    4157           04164                           TC       MODESET
000154:    4160           40000                           CS       A
000155:    4161           64650                           AD       OCT40003
000156:    4162           50065                           TS       MODE                                  #  SKIP IF SO AND SET A TO -1
000157:    4163           45501                           CS       ZERO                                  #  IF WE DIDNT SKIP
000158:    4164           50065        MODESET            TS       MODE
000159:
000160:    4165           34500                           CAF      NEGSIGN                               #  GET INDEXING BIT FROM UNARY OP CODE IN
000161:    4166           70020                           MASK     CYR                                   #  CYR
000162:    4167           64100                           AD       LOADOP                                #  AD LOAD OPCODE = OCT 43
000163:    4170           60000        60K                DOUBLE                                         #  DOUBLE OP CODE AND DUPLICATE SIGN IN
000164:    4171           30020                           XCH      CYR                                   #  BIT 1 WHERE IT GOES INTO SIGN OF CYR
000165:    4172           50023                           TS       SL                                    #  RE-EDIT, NOT BOTHERING ABOUT BITS 8-14
000166:    4173           04215                           TC       ADDRESS                               #  STANDARD ADDRESS ROUTINE
000167:
000168:    4174           50066        ULRET              TS       NEWEQIND                              #  RETURN HERE AFTER LOADING
000169:    4175           30023                           XCH      SL
000170:    4176           50020                           TS       CYR                                   #  RESTORE ORIGINAL OP CODE
000171:    4177           04106                           TC       UNAPROC    +2                         #  AND DISPATCH AS USUAL
000172:
000173:    4200           35501        LOWWD              CAF      ZERO                                  #  RIGHT HAND OP CODE HAS ALREADY BEEN SET
000174:    4201           30063                           XCH      ORDER
000175:    4202           04075                           TC       JUMPIT     -1
000176:
000177:
000178:    4203           50066        LOAD               TS       NEWEQIND                              #  LOADS FIRST ADDRESS OF NEW EQUATIONS
000179:    4204           20065                           INDEX    MODE                                  #  TRIGGERS TYPE OF CLEAR-AND-ADD
000180:    4205           04210                           TC       +3
000181:    4206           04533                           TC       TCA1
000182:    4207           04537                           TC       DCA1
000183:    4210           04611                           TC       VCA1
000184:
000185:    4211           10066        LOADRET            CCS      NEWEQIND                              #  IF A UNARY LOAD, THIS IS STILL ONE
000186:    4212           04174                           TC       ULRET                                 #  NO SECOND ADDRESS FOR UNARY LOADS
000187:
000188:    4213           40061                           CS       BANKSET
000189:    4214           50015                           TS       BANKREG
000190:
000191:    4215           20121        ADDRESS            INDEX    ADRLOC                                #  INDEXABLE ADDRESS ROUTINE
000192:    4216           40001                           CS       1                                     #  PICK UP WHAT SHOULD BE THE NEXT ADDRESS
000193:    4217           10000                           CCS      A
000194:    4220           04354                           TC       PUSHUP                                #  NO ADDRESS MEANS TAKE OFF TOP OF STACK
000195:    4221           04353                           TC       PUSHUP2                               #  INACTIVE ADDRESS MEANS JUST PUSHUP
000196:    4222           30121                           XCH      ADRLOC                                #  SAVE ADDRESS WHILE WE INCREMENT ADRLOC
000197:    4223           64516                           AD       ONE
000198:    4224           30121                           XCH      ADRLOC                                #  NOW BRING IT BACK
000199:    4225           50076                           TS       POLISH
000200:    4226           34500                           CAF      NEGSIGN
000201:    4227           70020                           MASK     CYR
000202:    4230           10000                           CCS      A                                     #  INDEXED OR NOT
000203:    4231           50114        BUGMPAC            XCADR    MPAC
000204:    4232           04257                           TC       NONINDEX
000205:
000206:
000207:                                                                                                  #        PROCEDURE FOR INDEXED ADDRESSES.
000208:
000209:    4233           30076        INDEX              XCH      POLISH
000210:    4234           50021                           TS       SR                                    #  SR NOW CONTAINS SUB-ADDRESS
000211:    4235           30020                           XCH      CYR                                   #  SAVE ORDER CODE
000212:    4236           50022                           TS       CYL                                   #  TO PREPARE FOR RESTORING
000213:    4237           04722                           TC       TAG
000214:    4240           20075                           INDEX    TAG1
000215:    4241           40046                           CS       X1                                    #  INDEX REGISTERS ARE SUBTRACTIVE, ALA 70X
000216:    4242           60021                           AD       SR
000217:    4243           30076                           XCH      POLISH                                #  TS WOULD SKIP ON OVERFLOW
000218:
000219:    4244           30022                           XCH      CYL                                   #  RESTORE OP CODE BITS IN CYR
000220:    4245           50020                           TS       CYR
000221:
000222:    4246           10076                           CCS      POLISH                                #  SEE IF BIT 15 SHOULD BE ZERO.  IT SHOULD
000223:    4247           04257                           TC       NONINDEX                              #  IF THE ADDRESS IS LESS THAN ROUGHLY
000224:    4250           04362                           TC       RELTOVAC   +1                         #  -1000D.
000225:    4251           04253                           TC       +2
000226:    4252           04362                           TC       RELTOVAC   +1                         #  QUICK ACTION ON THESE ZERO CASES.
000227:
000228:    4253           64517                           AD       RELTEST                               #  (-976D).
000229:    4254           10000                           CCS      A
000230:    4255           30076                           XCH      POLISH                                #  LESS THAN -1000. GO DIRECTLY TO
000231:    4256           04272                           TC       SWADDR                                #  SWITCHED-BANK ADDRESS ROUTINE.
000232:
000233:
000234:    4257           40076        NONINDEX           CS       POLISH                                #  GET 14 BIT ADDRESS
000235:    4260           64504                           AD       ERASTEST                              #  SEE IF ERASABLE OR NOT
000236:    4261           10000                           CCS      A
000237:    4262           64517                           AD       RELTEST                               #  YES - SEE IF IN TEMPORARY BLOCK
000238:    4263           04300                           TC       TEST2
000239:    4264           65473                           AD       STORTEST                              #  NO - SEE IF STORE ADDRESS
000240:    4265           10000                           CCS      A
000241:    4266           04356                           TC       PUSHUP3                               #  YES - PUSHUP
000242:    4267           04270                           TC       +1                                    #  IN CASE THE STORED ADDRESS WAS 2000.
000243:    4270           34500                           CAF      BIT15
000244:    4271           60076                           AD       POLISH
000245:    4272           50015        SWADDR             TS       BANKREG
000246:    4273           50076                           TS       POLISH
000247:    4274           74606                           MASK     LOW10
000248:    4275           64373                           AD       6K
000249:    4276           50062                           TS       ADDRWD
000250:    4277           04305                           TC       JUMP
000251:
000252:    4300           10000        TEST2              CCS      A                                     #  DOES THIS REFER TO THE TEMPORARY BLOCK
000253:    4301           04361                           TC       RELTOVAC                              #  ADDRESS IS RELATIVE TO VAC AREA.
000254:    4302           03777        LOW11              OCT      3777
000255:    4303           30076                           XCH      POLISH                                #  YES - FORM ADDRESS
000256:    4304           50062                           TS       ADDRWD
000257:
000258:    4305           34473        JUMP               CAF      THREE                                 #  LOOK AT LOW-ORDER 2 BITS IN 5 BIT CODE
000259:    4306           70020                           MASK     CYR
000260:    4307           10000                           CCS      A                                     #  IF ZERO, LOAD NOW AND CALL IN BANK 0
000261:    4310           04313                           TC       +3                                    #  NON-ZERO - GO ON.
000262:    4311           04747                           TC       DPSET                                 #  LOAD DP IF NECESSARY
000263:    4312           50015                           TS       BANKREG                               #  CALL IN BANK 0
000264:    4313           34720                           CAF      LOW7                                  #  BITS 6-13 ARE GUARANTEED TO BE ZERO
000265:    4314           70020                           MASK     CYR
000266:    4315           20000                           INDEX    A
000267:    4316           04367                           TC       INDJUMP
000268:
000269:
000270:    4317           30123        PUSHDOWN           XCH      PUSHLOC                               #  NO STORE ADDRESS GIVEN - PUSH DOWN
000271:    4320           50062                           TS       ADDRWD                                #  STORED IN THE NEXT ENTRY
000272:    4321           20065                           INDEX    MODE
000273:    4322           64475                           AD       NO.WDS                                #  2 FOR DP, 6 FOR VECTORS, 3 FOR TP
000274:    4323           50123                           TS       PUSHLOC
000275:    4324           20065                           INDEX    MODE
000276:    4325           04431                           TC       INDJUMP    +34D                       #  DISPATCH TO CORRECT STORE INSTRUCTION
000277:
000278:    4326           30001        PUSHUP1            XCH      Q                                     #  THE PUSH-UP ROUTINE IS CALLED UNDER THE
000279:    4327           50112                           TS       COMPON                                #  FOLLOWING CIRCUMSTANCES:
000280:    4330           34720                           CAF      LOW7                                  #     1. NO ADDRESS WORD IS FOUND.
000281:    4331           70020                           MASK     CYR                                   #     2. A STORE ADDRESS IS FOUND.
000282:    4332           64340                           AD       -VXSC                                 #  OR 3. AN INACTIVE ADDRESS IS FOUND.
000283:    4333           10000                           CCS      A                                     #  IF THE REQUESTING OPERATION CODE IS VXSC
000284:    4334           04345                           TC       PUSHUPOK                              #  THE MODE MUST BE SWITCHED BEFORE PUSHING
000285:    4335           77776        MINUS1             OCT      -1                                    #  UP, SINCE VXSC DEMANDS AN ARGUMENT OF
000286:    4336           04345                           TC       PUSHUPOK                              #  THE OPPOSITE MODE (SCALAR NEEDS VECTOR,
000287:
000288:    4337           10065                           CCS      MODE                                  #  ETC.)
000289:    4340           77775        MINUS2             OCT      -2                                    #  UNUSED CCS BRANCHES.
000290:    4341           77774        NEG3               OCT      -3
000291:    4342           45502                           CS       FOUR
000292:    4343           64340                           AD       NEG2
000293:    4344           04347                           TC       +3
000294:    4345           20065        PUSHUPOK           INDEX    MODE                                  #  DO PUSH-UP OPERATION.
000295:    4346           44475                           CS       NO.WDS                                #  2, 3, OR 6.
000296:    4347           60123                           AD       PUSHLOC
000297:    4350           50123                           TS       PUSHLOC
000298:    4351           50062                           TS       ADDRWD                                #  SET ADDRWD AND LEAVE ADDRESS IN A.
000299:    4352           00112                           TC       COMPON
000300:
000301:    4353     4340               -VXSC              EQUALS   MINUS2
000302:
000303:    4353           04364        PUSHUP2            TC       INCADR                                #  SENT HERE ON INACTIVE ADDRESS
000304:
000305:    4354           04326        PUSHUP             TC       PUSHUP1                               #  NO ADDRESS GIVEN SENDS US HERE
000306:    4355           04305                           TC       JUMP                                  #  AND JUMP
000307:
000308:    4356           10121        PUSHUP3            CCS      ADRLOC                                #  AN UNEXPECTED STORE ADDRESS SENDS US
000309:    4357           50121                           TS       ADRLOC                                #  HERE.
000310:    4360           04354                           TC       PUSHUP
000311:
000312:    4361           30076        RELTOVAC           XCH      POLISH                                #  ADDRESS WAS LESS THAN 42, SO ADD
000313:    4362           60067                           AD       FIXLOC                                #  ADDRESS OF VAC AREA.
000314:    4363           04304                           TC       JUMP       -1
000315:
000316:    4364           34516        INCADR             CAF      ONE
000317:    4365           60121                           AD       ADRLOC
000318:    4366           50121                           TS       ADRLOC
000319:    4367           00001                           TC       Q
000320:
000321:
000322:    4370           05612        IJUMP              TC       ITCF                                  #  INTERPRETIVE TRANSFER CONTROL
000323:    4371           05357                           TC       VXSC1                                 #  VECTOR TIMES SCALAR
000324:    4372           05211                           TC       VSU1                                  #  VECTOR SUBTRACT
000325:    4373           06000                           TC       BMN1                                  #  BRANCH MINUS
000326:    4374           04700                           TC       STZ1                                  #  STORE ZERO
000327:    4375           05623                           TC       BOVF                                  #  BRANCH ON OVERFLOW
000328:    4376           04766                           TC       DAD2                                  #  DOUBLE PRECISION ADD
000329:    4377           06014                           TC       BHIZ1                                 #  BRANCH IF MAJOR PART ZERO
000330:    4400           04732                           TC       DSU2                                  #  DP SUBTRACT
000331:    4401           04735                           TC       DBSU                                  #  DP BACKWARDS SUBTRACT
000332:    4402           05061                           TC       DMP2                                  #  DP MULTIPLY
000333:    4403           06402                           TC       SHIFTL                                #  TP LEFT SHIFT
000334:    4404           05144                           TC       DDV                                   #  DP DIVIDE
000335:    4405           05141                           TC       BDDV                                  #  DP BACKWARDS DIVIDE
000336:    4406           04776                           TC       TRAD                                  #  TRIPLE PRECISION ADD
000337:    4407           06411                           TC       TSLC                                  #  TP SHIFT LEFT AND COUNT
000338:    4410           05075                           TC       SHIFTR1                               #  TP SHIFT RIGHT
000339:    4411           05061                           TC       DMP2                                  #  DP MULTIPLY AND THEN ROUND
000340:    4412           04773                           TC       TSU1                                  #  TP SUBTRACT
000341:    4413           06213                           TC       SIGN                                  #  AFFIX SIGN OF X TO MPAC
000342:    4414           05316                           TC       MXV1                                  #  MATRIX TIMES VECTOR
000343:    4415           05306                           TC       VXM1                                  #  VECTOR TIMES MATRIX
000344:    4416           05221                           TC       VAD1                                  #  VECTOR ADD
000345:    4417           06010                           TC       BZE1                                  #  BRANCH ON ZERO
000346:    4420           05214                           TC       BVSU1                                 #  BACKWARDS VECTOR SUBTRACT
000347:    4421           05633                           TC       VSRT1                                 #  VECTOR SHIFT RIGHT
000348:    4422           05630                           TC       VSLT1                                 #  VECTOR SHIFT LEFT
000349:    4423           06004                           TC       BPL1                                  #  BRANCH POSITIVE
000350:    4424           05234                           TC       DOT1                                  #  VECTOR DOT PRODUCT
000351:    4425           05511                           TC       CROSS1                                #  VECTOR CROSS PRODUCT
000352:    4426           05505                           TC       VPROJ1                                #  VECTOR PROJECTION
000353:
000354:    4427           04552                           TC       TTS1
000355:    4430           04556                           TC       DTS1                                  #  DP TRANSFER TO STORAGE
000356:    4431           04622                           TC       VTS1                                  #  VECTOR TS
000357:    4432           04204                           TC       LOAD       +1                         #  LOADING
000358:
000359:    4433     4373               6K                 EQUALS   IJUMP      +3                         #  BMN STARTS AT LOCATION 6000
000360:
000361:    4433     4367               INDJUMP            EQUALS   IJUMP      -1
000362:
000363:
000364:    4433           06206        NONJUMP            TC       EXIT
000365:    4434           06072                           TC       AXT                                   #  ADDRESS TO INDEX TRUE
000366:    4435           06077                           TC       LXA                                   #  LOAD INDEX FROM THE ADDRESS
000367:    4436           06104                           TC       LXC                                   #  LOAD INDEX FROM ADDRESS COMPLEMENTED
000368:    4437           06110                           TC       SXA                                   #  STORE INDEX IN THE ADDRESS
000369:    4440           06141                           TC       XCHX                                  #  INDEX REGISTER EXCHANGE
000370:    4441           06134                           TC       INCR                                  #  INDEX REGISTER INCREMENT
000371:    4442           06153                           TC       XAD                                   #  INDEX REGISTER ADD FROM ERASABLE
000372:    4443           06147                           TC       XSU                                   #  INDEX REGISTER SUBTRACT FROM ERASABLE
000373:    4444           06062                           TC       AST                                   #  ADDRESS TO STEP TRUE
000374:    4445           06067                           TC       AXC                                   #  ADDRESS TO INDEX COMPLEMENTED
000375:    4446           06115                           TC       TIX                                   #  TRANSFER ON INDEX
000376:    4447           06352                           TC       NOLOAD                                #  LEAVE MPAC (OR VAC) LOADED
000377:    4450           06174                           TC       ITA1                                  #  TRANSFER ADDRESS
000378:    4451           06434                           TC       SWITCHEM                              #  SWITCH AND TEST INSTRUCTIONS
000379:    4452           06341                           TC       NEXT                                  #  LODON AND ITCQ
000380:
000381:    4453           07463        UNAJUMP            TC       TMOVE                                 #  FOR TP AS WELL
000382:    4454           04024                           TC       VMOVE
000383:    4455           07212                           TC       UNIT
000384:    4456           06261                           TC       ABVAL1                                #  ABVAL
000385:    4457           06226                           TC       VSQ                                   #  SQUARE OF VECTOR LENGTH
000386:    4460           06316                           TC       SSP                                   #  ABSOLUTE VALUE OF SCALAR
000387:    4461           06755                           TC       ARCSIN1
000388:    4462           06757                           TC       ARCCOS1
000389:    4463           06620                           TC       SIN1
000390:    4464           06622                           TC       COS1
000391:    4465           07453                           TC       SQRTS
000392:    4466           06323                           TC       SQUARE
000393:    4467           06325                           TC       COMP                                  #  COMPLEMENT
000394:    4470           04024                           TC       DMOVE
000395:    4471           06336                           TC       SMOVE
000396:    4472           06160                           TC       VDEF                                  #  VECTOR DEFINE
000397:
000398:
000399:    4473           00003        THREE              OCT      3
000400:    4474           00002                           OCT      2
000401:    4475           00006        NO.WDS             OCT      6                                     #  3, 2, 6 ORDER IMPORTANT FOR PUSH-DOWN.
000402:
000403:    4476           37777        POSMAX             OCT      37777                                 #  MUST BE 2 LOCATIONS BEFORE NEGMAX
000404:    4477           00005        FIVE               OCT      5
000405:    4500     4477               LIMITS             EQUALS   POSMAX     +1                         #  USED BY CDU COUNTER ARITHMETIC PROGRAMS.
000406:
000407:    4500           40000        BIT15              OCT      40000
000408:    4501           20000        BIT14              OCT      20000
000409:    4502           10000        BIT13              OCT      10000
000410:    4503           04000        BIT12              OCT      04000
000411:    4504           02000        BIT11              OCT      02000
000412:    4505           01000        BIT10              OCT      01000
000413:    4506           00400        BIT9               OCT      00400
000414:    4507           00200        BIT8               OCT      00200
000415:    4510           00100        BIT7               OCT      00100
000416:    4511           00040        BIT6               OCT      00040
000417:    4512           00020        BIT5               OCT      00020
000418:    4513           00010        BIT4               OCT      00010
000419:    4514           00004        BIT3               OCT      00004
000420:    4515           00002        BIT2               OCT      00002
000421:    4516           00001        BIT1               OCT      00001
000422:
000423:    4517     4502               QUARTER            EQUALS   BIT13
000424:    4517     4513               EIGHT              EQUALS   BIT4
000425:    4517     4516               ONE                EQUALS   BIT1
000426:    4517     4504               ERASTEST           EQUALS   BIT11
000427:    4517                        BUGBITS            EQUALS   5777
000428:    4517                        ATSBITS            EQUALS   5777
000429:    4517     4340               NEG2               EQUALS   MINUS2
000430:    4517     4475               SIX                EQUALS   NO.WDS
000431:    4517     4335               NEG1               EQUALS   MINUS1
000432:    4517     4500               NEGSIGN            EQUALS   BIT15
000433:
000434:    4517           76057        RELTEST            DEC      -976       B-14
000435:    4520           57777 77777  NEG1/2             2DEC     -.5
000436:    4522           20000 00000  POS1/2             2DEC     .5
000437:    4524     4522               HALF               EQUALS   POS1/2
000438:
000439:
000440:    4524           40101        TCS1               CS       BUF        +2                         #  USED BY DMP, ETC
000441:    4525           50117                           TS       MPAC       +2
000442:    4526           40100                           CS       BUF        +1
000443:    4527           50116                           TS       MPAC       +1
000444:    4530           40077                           CS       BUF
000445:    4531           50115                           TS       MPAC
000446:    4532           00001                           TC       Q
000447:
000448:    4533           20062        TCA1               INDEX    ADDRWD                                #  TRIPLE PRECISION CLEAR AND ADD
000449:    4534           40002                           CS       2
000450:    4535           40000                           CS       A
000451:    4536           04540                           TC       +2
000452:
000453:    4537           35501        DCA1               XCH      ZERO                                  #  DOUBLE PRECISION CLEAR AND ADD
000454:    4540           50117                           TS       MPAC       +2                         #    (CLEARS MPAC +2)
000455:    4541           20062                           INDEX    ADDRWD
000456:    4542           40001                           CS       1
000457:    4543           40000                           CS       A
000458:    4544           50116                           TS       MPAC       +1
000459:    4545           20062                           INDEX    ADDRWD
000460:    4546           40000                           CS       0
000461:    4547           40000                           CS       A
000462:    4550           50115                           TS       MPAC
000463:    4551           04211                           TC       LOADRET                               #  PREPARE TO DECODE NEXT ADDRESS
000464:
000465:    4552           40117        STORE3             CS       MPAC       +2                         #  TRIPLE PRECISION TRANSFER TO STORAGE
000466:    4553           40000                           CS       A
000467:    4554           20062                           INDEX    ADDRWD
000468:    4555           50002                           TS       2
000469:    4556           40116        DTS1               CS       MPAC       +1                         #  DOUBLE PRECISION TRANSFER TO STORAGE
000470:    4557           40000                           CS       A
000471:    4560           20062                           INDEX    ADDRWD
000472:    4561           50001        TSQ                TS       1
000473:    4562           40115                           CS       MPAC
000474:    4563           40000        MSIGN              CS       A
000475:    4564           20062                           INDEX    ADDRWD
000476:    4565           50000                           TS       0
000477:    4566           04005        NEQRET             TC       NEWEQUN                               #  START NEW EQUATION
000478:
000479:    4567     4552               TTS1               EQUALS   STORE3
000480:                                                                                                  #                                                        35W
000481:
000482:
000483:    4567           30076        DOBR               XCH      POLISH                                #  DOES BRANCHES
000484:    4570           04602                           TC       DOBR2
000485:
000486:    4571           40061        EXIT2              CS       BANKSET                               #  COMPLETE EXIT EXECUTION BY CALLING IN
000487:    4572           50015                           TS       BANKREG                               #  BANK OF OBJECT INTERPRETIVE PROGRAM.
000488:    4573           00121                           TC       ADRLOC
000489:
000490:    4574           40061        SWF/F              CS       BANKSET                               #  BRANCHING TEST INSTRUCTION
000491:    4575           50015                           TS       BANKREG                               #  RETURNS HERE TO PICK UP BRANCHING ADDRES
000492:    4576           20121                           INDEX    ADRLOC
000493:    4577           30000                           CAF      0                                     #  BRANCH IS ALWAYS TO FIXED.
000494:    4600           64335                           AD       NEG1                                  #  UNDO YULISH INCREMENT.
000495:    4601           64500                           AD       BIT15
000496:
000497:    4602           50015        DOBR2              TS       BANKREG
000498:    4603           74606                           MASK     LOW10
000499:    4604           64610                           AD       6K-1
000500:    4605           04001                           TC       INTPRET    +1
000501:
000502:    4606           01777        LOW10              OCT      1777
000503:    4607           00777        LOW9               OCT      777
000504:    4610           05777        6K-1               OCT      5777
000505:
000506:    4611           30001        VCA1               XCH      Q                                     #  VECTOR CLEAR-AND-ADD ROUTINE
000507:    4612           50104                           TS       TEM5
000508:    4613           34500                           CAF      NEGSIGN
000509:    4614           04632                           TC       VECMOVE
000510:    4615           00104                           TC       TEM5
000511:
000512:    4616           30001        VCS1               XCH      Q                                     #  DP VECTOR CLEAR-AND-SUBTRACT
000513:    4617           50104                           TS       TEM5
000514:    4620           34713                           CAF      NOOP
000515:    4621           04614                           TC       VCA1       +3
000516:
000517:    4622           30062        VTS1               XCH      ADDRWD                                #  TRANSFER TO STORAGE
000518:    4623           30070                           XCH      VACLOC                                #  EXCHANGE VACLOC AND ADDRWD AND DO AN
000519:    4624           50062                           TS       ADDRWD                                #  EFFECTIVE *CLEAR-AND-ADD*.
000520:    4625           34500                           CAF      NEGSIGN
000521:    4626           04632                           TC       VECMOVE
000522:    4627           30062                           XCH      ADDRWD                                #  RESTORE VACLOC
000523:    4630           50070                           TS       VACLOC
000524:    4631           04005                           TC       NEWEQUN                               #  THIS ONLY HAPPENS AT END OF EQUATION
000525:
000526:
000527:    4632           50102        VECMOVE            TS       TEM2                                  #  MOVES A DP VECTOR IN THE FASTEST WAY
000528:    4633           20062                           INDEX    ADDRWD                                #  AVAILABLE. USED BY VCA, VCS, AND VTS.
000529:    4634           40005                           CS       5
000530:    4635           20102                           INDEX    TEM2
000531:    4636           00000                           0        0                                     #  COM FOR VCA, VTS. NOOP FOR VCS.
000532:    4637           20070                           INDEX    VACLOC
000533:    4640           50005                           TS       5
000534:
000535:    4641           20062                           INDEX    ADDRWD
000536:    4642           40004                           CS       4
000537:    4643           20102                           INDEX    TEM2
000538:    4644           00000                           0        0
000539:    4645           20070                           INDEX    VACLOC
000540:    4646           50004                           TS       4
000541:
000542:    4647           20062                           INDEX    ADDRWD
000543:    4650           40003        OCT40003           CS       3                                     #  CONSTANT USED BY UNARY LOAD ROUTINE.
000544:    4651           20102                           INDEX    TEM2
000545:    4652           00000                           0        0
000546:    4653           20070                           INDEX    VACLOC
000547:    4654           50003                           TS       3
000548:
000549:    4655           20062                           INDEX    ADDRWD
000550:    4656           40002        OCT40002           CS       2
000551:    4657           20102                           INDEX    TEM2
000552:    4660           00000                           0        0
000553:    4661           20070                           INDEX    VACLOC
000554:    4662           50002                           TS       2
000555:
000556:    4663           20062                           INDEX    ADDRWD
000557:    4664           40001        CSQ                CS       1                                     #  CONSTANT USED BY WAITLIST.
000558:    4665           20102                           INDEX    TEM2
000559:    4666           00000                           0        0
000560:    4667           20070                           INDEX    VACLOC
000561:    4670           50001                           TS       1
000562:
000563:    4671           20062                           INDEX    ADDRWD
000564:    4672           40000                           CS       0
000565:    4673           20102                           INDEX    TEM2
000566:    4674           00000                           0        0
000567:    4675           20070                           INDEX    VACLOC
000568:    4676           50000                           TS       0
000569:
000570:    4677           00001                           TC       Q                                     #  DONE
000571:
000572:
000573:    4700           35501        STZ1               CAF      ZERO
000574:    4701           20062                           INDEX    ADDRWD
000575:    4702           50000                           TS       0
000576:
000577:    4703           40061        RE-ENTER           CS       BANKSET                               #  ROUTINE  SIMILAR TO 'DANZIG' EXCEPT THAT
000578:    4704           50015                           TS       BANKREG                               #  NO PUSHING DOWN IS DONE AT END OF EQUN.
000579:
000580:    4705           10063                           CCS      ORDER                                 #  IT IS USED BY MISCELLANEOUS INSTRUCTIONS
000581:    4706           04200                           TC       LOWWD                                 #  AND BRANCHES WHICH FAILED
000582:
000583:    4707           20120                           INDEX    LOC                                   #  IF WE HAD RETURNED DIRECTLY TO THE MAIN
000584:    4710           40001                           CS       1
000585:    4711           10000                           CCS      A
000586:    4712           04065                           TC       IPROC                                 #  IT IS USED BY BRANCH INSTRUCTIONS WHICH
000587:    4713           30000        NOOP               NOOP                                           #  IN CASE THE FIRST ADDRESS WAS INACTIVE
000588:
000589:    4714           20121                           INDEX    ADRLOC                                #  SEE IF A LEFT-OVER ADDRESS
000590:    4715           40001                           CS       1
000591:    4716           10000                           CCS      A
000592:    4717           04005                           TC       NEWEQUN                               #  NO - START NEW EQUATION
000593:    4720           00177        LOW7               OCT      177
000594:    4721           04044                           TC       STORADR                               #  YES - MUST BE STORE ADDRESS
000595:
000596:    4722     4701               STOR1              EQUALS   STZ1       +1
000597:
000598:
000599:    4722           10020        TAG                CCS      CYR                                   #  SETS TAG1 ACCORDING TO SIGN BIT IN CYR
000600:    4723           35501                           CAF      ZERO
000601:    4724           10000                           CCS      A                                     #  SKIP NEXT INS WITHOUT CHANGING Q
000602:    4725           34516                           CAF      ONE
000603:    4726           60067                           AD       FIXLOC                                #  INDEXES AND STEPS IN VAC AREA
000604:    4727           50075                           TS       TAG1
000605:    4730           00001                           TC       Q
000606:
000607:    4731           00077        TCBUF              ADRES    BUF
000608:
000609:    4732           04747        DSU2               TC       DPSET                                 #  DP SUBTRACT
000610:    4733           05055                           TC       ADDTOSUB
000611:    4734           04767                           TC       DAD2       +1
000612:
000613:    4735           04747        DBSU               TC       DPSET
000614:    4736           04742                           TC       DACCOM                                #  COMPLEMENT DP ACCUM
000615:    4737           04767                           TC       DAD2       +1                         #  AND ADD
000616:
000617:    4740           40117        MPACCOM            CS       MPAC       +2                         #  COMPLEMENT MPAC
000618:    4741           50117                           TS       MPAC       +2
000619:    4742           40116        DACCOM             CS       MPAC       +1
000620:    4743           50116                           TS       MPAC       +1
000621:    4744           40115                           CS       MPAC
000622:    4745           50115                           TS       MPAC
000623:    4746           00001                           TC       Q
000624:
000625:    4747           44516        DPSET              CS       ONE                                   #  SET UP DP MODE AND LOAD IF NECESSARY
000626:    4750           50065                           TS       MODE
000627:    4751           10066                           CCS      NEWEQIND
000628:    4752           04203                           TC       LOAD
000629:    4753           00001                           TC       Q
000630:
000631:    4754           45501        VECSET             CS       ZERO                                  #  SIMILARLY FOR VECTORS
000632:    4755           50065                           TS       MODE
000633:    4756           10066                           CCS      NEWEQIND
000634:    4757           04203                           TC       LOAD
000635:    4760           00001                           TC       Q
000636:
000637:    4761           45503        TPSET              CS       TWO                                   #  AND FOR TP
000638:    4762           50065                           TS       MODE
000639:    4763           10066                           CCS      NEWEQIND
000640:    4764           04203                           TC       LOAD
000641:    4765           00001                           TC       Q
000642:
000643:
000644:    4766           04747        DAD2               TC       DPSET                                 #  DOUBLE PRECISION ADD INSTRUCTION
000645:    4767           34772                           CAF      DAD2       +4
000646:    4770           05020                           TC       DAD1                                  #  PROGRAM USES CLOSED SUBROUTINE DAD1,
000647:    4771           04024                           TC       INT1                                  #  WITH ADDRESSES SET UP IN ADDRWD, TEM2
000648:
000649:    4772           00115                 +4        ADRES    MPAC
000650:
000651:    4773           04761        TSU1               TC       TPSET                                 #  TRIPLE PRECISION SUBTRACT INSTRUCTION
000652:    4774           05055                           TC       ADDTOSUB
000653:    4775           04777                           TC       TRAD       +1
000654:
000655:    4776           04761        TRAD               TC       TPSET                                 #  TRIPLE PRECISION ADD INSTRUCTION
000656:    4777           05001                           TC       +2
000657:    5000           04024                           TC       INT1
000658:
000659:    5001           30001                 +3        XCH      Q
000660:    5002           50104                           TS       TEM5
000661:    5003           34772                           CAF      DAD2       +4
000662:    5004           50102                           TS       TEM2
000663:    5005           20000                           INDEX    A
000664:    5006           30002                           XCH      2
000665:    5007           20062                           INDEX    ADDRWD
000666:    5010           60002                           AD       2
000667:    5011           20102                           INDEX    TEM2
000668:    5012           50002                           TS       2                                     #  AGAIN SKIPPING, AS IN DAD1
000669:    5013           35501                           CAF      ZERO
000670:    5014           20102                           INDEX    TEM2
000671:    5015           60001                           AD       1
000672:    5016           05023                           TC       DAD1       +3                         #  FINISH IN DAD1
000673:
000674:    5017           00104                           TC       TEM5                                  #  AND RETURN
000675:
000676:
000677:    5020           50102        DAD1               TS       TEM2                                  #  DOUBLE PRECISION ADD ROUTINE
000678:    5021           20102                           INDEX    TEM2                                  #  POLYNOMIAL EVALUATOR ENTERS HERE.
000679:    5022           30001                           XCH      1
000680:    5023           20062                 +3        INDEX    ADDRWD
000681:    5024           60001                           AD       1
000682:    5025           20102                           INDEX    TEM2
000683:    5026           50001                           TS       1                                     #  SKIPS IF OVERFLOW WITH COUNT IN A
000684:    5027           35501                           CAF      ZERO                                  #  NO OVERFLOW IF HERE
000685:    5030           20102                           INDEX    TEM2                                  #  ARRIVE HERE WITH 1 OR -1 IN A IF OVERFLO
000686:    5031           60000                           AD       0
000687:    5032           20062                           INDEX    ADDRWD
000688:    5033           60000                           AD       0
000689:    5034           20102                           INDEX    TEM2
000690:    5035           50000                           TS       0                                     #  AND AGAIN SKIP IF OVERFLOW
000691:    5036           00001                           TC       Q                                     #  EXIT IF NONE
000692:    5037           50122                           TS       OVFIND                                #  SAVE ANY OVERFLOW FOR BOV TESTING
000693:    5040           00001                           TC       Q
000694:
000695:    5041           50105        8TO2               TS       TEM8                                  #  MOVES THE DP WORD LOCATED AT THE ADDRESS
000696:    5042           20000                           INDEX    A                                     #  IN A TO THE ADDRESS IN TEM2
000697:    5043           40000                           CS       0
000698:    5044           40000                           CS       A
000699:    5045           20102                           INDEX    TEM2
000700:    5046           50000                           TS       0
000701:    5047           20105                           INDEX    TEM8
000702:    5050           40001                           CS       1
000703:    5051           40000                           CS       A
000704:    5052           20102                           INDEX    TEM2
000705:    5053           50001                           TS       1
000706:    5054           00001                           TC       Q
000707:
000708:    5055           30062        ADDTOSUB           XCH      ADDRWD                                #  BY PUTTING THE APPROPRIATE BITS IN
000709:    5056           65777                           AD       ATSBITS                               #  ADDRWD, DAD1 DOES A DOUBLE SUBTRACT IN-
000710:    5057           50062                           TS       ADDRWD                                #  STEAD OF A DOUBLE ADD.
000711:    5060           00001                           TC       Q
000712:
000713:
000714:    5061           04747        DMP2               TC       DPSET                                 #  DP MULTIPLY (AND ROUND) ROUTINE
000715:    5062           30062                           XCH      ADDRWD
000716:    5063           65777                           AD       BUGBITS                               #  MAKE EXENDED CODE ADDRESS.
000717:    5064           50103        DSQ2               TS       TEM4                                  #  ENTRY FROM DSQ ROUTINE.
000718:    5065           34772                           XCH      DAD2       +4                         #  C(DAD2 +4) = TC MPAC
000719:    5066           05102                           TC       DMP1                                  #  EXECUTE MULTIPLY AT DMP1, THEN EXIT
000720:    5067           04524                           TC       TCS1                                  #  VIA TCS1 TO MOVE (BUF TO BUF+2)
000721:                                                                                                  #  INTO (MPAC TO MPAC+2).
000722:
000723:    5070           40020        OCT40020           CS       CYR
000724:    5071           10020                           CCS      CYR
000725:    5072           34772        MPACRND            CAF      DAD2       +4                         #  SET UP ROUND SUBROUTINE TO ROUND MPAC.
000726:    5073           05443                           TC       PREROUND   +1
000727:    5074           04024                           TC       DANZIG
000728:
000729:    5075           04747        SHIFTR1            TC       DPSET                                 #  TSRT INSTRUCTION.
000730:    5076           50015                           TS       BANKREG                               #  SUBROUTINE IN BANK 0
000731:    5077           06042                           TC       TRUE2                                 #  GET INTEGER ADDRESS BACK
000732:    5100           06232                           TC       SHIFTR     -1                         #  WITH DECREMENTED COUNT IN A.
000733:    5101           04024                           TC       DANZIG
000734:
000735:
000736:    5102           50102        DMP1               TS       TEM2                                  #  GENERAL PURPOSE DP MULTIPLICATION
000737:    5103           20102                           INDEX    TEM2                                  #  POLYNOMIAL ENTERS HERE.
000738:    5104           40001                           CS       1
000739:    5105           50034                           TS       OVCTR                                 #  -N1 TO OVCTR
000740:    5106           20103                           INDEX    TEM4
000741:    5107           40001                           MP       1                                     #  -M1N1
000742:    5110           30034                           XCH      OVCTR                                 #  -U(M1N1) TO OVCTR, -N1 TO A
000743:    5111           20103                           INDEX    TEM4
000744:    5112           40000                           MP       0                                     #  -M0N1
000745:    5113           30034                           XCH      OVCTR                                 #  -U(M0N1) TO OVCTR, -U(M1N1) TO A
000746:    5114           60003                           AD       LP                                    #  MAYBE INCREMENT -U(M0N1) IN OVCTR
000747:    5115           30100                           XCH      BUF        +1                         #  -L(M0N1)-U(M1N1) TO BUF+1
000748:    5116           20102                           INDEX    TEM2
000749:    5117           40000                           CS       0
000750:    5120           50101                           TS       BUF        +2                         #  -N0 TO BUF+2
000751:    5121           20103                           INDEX    TEM4
000752:    5122           40001                           MP       1                                     #  -M1N0
000753:    5123           30034                           XCH      OVCTR                                 #  -U(M1N0) TO OVCTR, -U(M0N1) TO A
000754:    5124           30100                           XCH      BUF        +1                         #  -U(M0N1) TO BUF+1, -L(M0N1)-U(M1N1) TO A
000755:    5125           60003                           AD       LP                                    #  MAYBE INCREMENT -U(M1N0) IN OVCTR
000756:    5126           30101                           XCH      BUF        +2                         #  -L(M1N0)-L(M0N1)-U(M1N1) TO BUF+2, -N0 T
000757:    5127           20103                           INDEX    TEM4                                  #  O A
000758:    5130           40000                           MP       0                                     #  -M0N0
000759:    5131           30034                           XCH      OVCTR                                 #  -U(M0N0) TO OVCTR, -U(M1N0) TO A
000760:    5132           60003                           AD       LP
000761:    5133           30100                           XCH      BUF        +1
000762:    5134           60100                           AD       BUF        +1
000763:    5135           30100                           XCH      BUF        +1
000764:    5136           30034                           XCH      OVCTR
000765:    5137           50077                           TS       BUF
000766:    5140           00001                           TC       Q
000767:
000768:                                                                                                  #        TIMING:  86 MC +-2  OR 1.032 MS +-0.024                         30 WORDS
000769:
000770:
000771:    5141           04747        BDDV               TC       DPSET                                 #  BACKWARDS DP DIVIDE
000772:    5142           34516                           CAF      ONE                                   #  SET SWITCH
000773:    5143           05145                           TC       +2                                    #  AND GO ON AS USUAL
000774:
000775:    5144           04747        DDV                TC       DPSET                                 #  REGULAR DP DIVIDE
000776:    5145           50110                           TS       DVSW                                  #  DPSET RETURNS WITH 0 IN A
000777:    5146           35553                           CAF      LDANZIG                               #  RETURN TO DANZIG
000778:    5147           50076                           TS       TEMQ3
000779:    5150           34731                           CAF      TCBUF
000780:    5151           50102                           TS       TEM2
000781:    5152           30062                           XCH      ADDRWD
000782:    5153           05041                           TC       8TO2                                  #  X,X+1 INTO BUF, BUF+1
000783:
000784:    5154           35501                           CAF      ZERO
000785:    5155           50015                           TS       BANKREG                               #  CALL IN BANK 0
000786:    5156           06776                           TC       DDV0                                  #  TO BANK 0 PORTION
000787:
000788:    5157           30001        DMP                XCH      Q                                     #  DP MULTIPLY ROUTINE WHICH CAN BE CALLED
000789:    5160           50104                           TS       TEM5                                  #  BY TC DMP, FOLLOWED BY A WORD CONTAINING
000790:    5161           20000                           INDEX    A                                     #  THE ADDRESS OF THE MULTIPLIER WITH
000791:    5162           30000                           CAF      0                                     #  BITS IN THE ORDER CODE TO CALL IN MP
000792:    5163           50103                           TS       TEM4                                  #  IN THE EXTENDED CODE (UNKNOWN AS YET)
000793:    5164           34772                           CAF      DAD2       +4
000794:    5165           05102                           TC       DMP1
000795:    5166           04524                           TC       TCS1
000796:    5167           20104                           INDEX    TEM5                                  #  TIME IS 120 MC+-2, OR ABOUT 1.44 MS
000797:    5170           00001                           TC       1                                     #  RETURN TO INSTRUCTION AFTER ADDRESS WORD
000798:
000799:    5171           30001        DAD                XCH      Q                                     #  DP ADD ROUTINE WORKING JUST AS MP ABOVE
000800:    5172           50104                           TS       TEM5                                  #  HERE, HOWEVER, ONLY *ADRES X* IS NEEDED
000801:    5173           20000                           INDEX    A                                     #  SINCE AD IS PART OF THE REGULAR CODE
000802:    5174           30000                           CAF      0
000803:    5175           50062                           TS       ADDRWD
000804:    5176           34772                           CAF      DAD2       +4
000805:    5177           05020                           TC       DAD1
000806:    5200           20104                           INDEX    TEM5
000807:    5201           00001                           TC       1                                     #  TIME IS 48+-2 MC OR 576 MICRO-SEC.
000808:
000809:
000810:    5202           30001        VACCOM             XCH      Q                                     #  COMPLEMENT THE APPROPRIATE VAC
000811:    5203           50104                           TS       TEM5
000812:    5204           40070                           CS       VACLOC
000813:    5205           40000                           COM
000814:    5206           30062                           XCH      ADDRWD
000815:    5207           50103                           TS       TEM4
000816:    5210           04620                           TC       VCS1       +2
000817:
000818:    5211           04754        VSU1               TC       VECSET                                #  DP VECTOR SUBTRACT
000819:    5212           05055                           TC       ADDTOSUB
000820:    5213           05222                           TC       VAD1       +1                         #  USES VAD ROUTINE WITH SUBS
000821:
000822:    5214           04754        BVSU1              TC       VECSET                                #  DP VECTOR BACKWARDS SUBTRACT
000823:    5215           05202                           TC       VACCOM                                #  JUST COMPLEMENT VAC
000824:    5216           30103                           XCH      TEM4
000825:    5217           50062                           TS       ADDRWD
000826:    5220           05222                           TC       VAD1       +1                         #  AND ADD
000827:
000828:    5221           04754        VAD1               TC       VECSET
000829:    5222           30070                           XCH      VACLOC                                #  DP VECTOR ADD
000830:    5223           50070                           TS       VACLOC
000831:    5224           05020                           TC       DAD1
000832:    5225           05242                           TC       AD2
000833:    5226           05412                           TC       INCRT2
000834:    5227           05020                           TC       DAD1
000835:    5230           05242                           TC       AD2
000836:    5231           05412                           TC       INCRT2
000837:    5232           05020                           TC       DAD1
000838:    5233           04024                           TC       INT1
000839:
000840:
000841:    5234           04754        DOT1               TC       VECSET                                #  DP DOT PRODUCT ROUTINE
000842:    5235           05246                           TC       DOT2
000843:    5236           04740                           TC       MPACCOM
000844:    5237           44516        DPEXIT             CS       ONE                                   #  CHANGE MODE TO DOUBLE-PRECISION
000845:    5240           50065                           TS       MODE
000846:    5241           04024                           TC       DANZIG
000847:
000848:    5242           30062        AD2                XCH      ADDRWD
000849:    5243           65503                           AD       TWO
000850:    5244           50062                           TS       ADDRWD
000851:    5245           00001                           TC       Q
000852:
000853:    5246           35503        DOT2               XCH      TWO                                   #  SUBROUTINE DOT2 COMPUTES THE TRIPLE-
000854:    5247           50064                           TS       TEM11
000855:    5250           34731                           XCH      TCBUF                                 #  SIGN, IN MPAC TO MPAC+2.
000856:    5251           30062                           XCH      ADDRWD
000857:    5252           65777                           AD       BUGBITS
000858:    5253           50103                           TS       TEM4
000859:    5254           30001                           XCH      Q
000860:    5255           50105                           TS       TEM8
000861:    5256           30070                           XCH      VACLOC
000862:    5257           50070                           TS       VACLOC
000863:    5260           05102                           TC       DMP1
000864:    5261           30077                           XCH      BUF
000865:    5262           50115                           TS       MPAC
000866:    5263           30100                           XCH      BUF        +1
000867:    5264           50116                           TS       MPAC       +1
000868:    5265           30101                           XCH      BUF        +2
000869:    5266           50117                           TS       MPAC       +2
000870:    5267           05302                           TC       INCRT4
000871:    5270           05412                           TC       INCRT2
000872:    5271           05102                           TC       DMP1
000873:    5272           05001                           TC       TRAD       +3
000874:    5273           05302                           TC       INCRT4
000875:    5274           30070                           XCH      VACLOC
000876:    5275           50070                           TS       VACLOC
000877:    5276           65502                           AD       FOUR
000878:    5277           05102                           TC       DMP1
000879:    5300           05001                           TC       TRAD       +3
000880:    5301           00105                           TC       TEM8
000881:
000882:
000883:    5302           30103        INCRT4             XCH      TEM4
000884:    5303           60064                           AD       TEM11
000885:    5304           50103                           TS       TEM4
000886:    5305           00001                           TC       Q
000887:
000888:    5306           04754        VXM1               TC       VECSET                                #  DP VECTOR TIMES MATRIX
000889:    5307           40062                           CS       ADDRWD
000890:    5310           50107                           TS       TEM10
000891:    5311           35503                           XCH      TWO
000892:    5312           50106                           TS       TEM9
000893:    5313           34475                           XCH      SIX
000894:    5314           05247                           TC       DOT2       +1
000895:    5315           05324                           TC       MXV2                                  #  REST OF OPERATION USES MXV ROUTINE
000896:
000897:    5316           04754        MXV1               TC       VECSET                                #  MATRIX TIMES DP VECTOR
000898:    5317           40062                           CS       ADDRWD
000899:    5320           50107                           TS       TEM10
000900:    5321           34475                           XCH      SIX                                   #  PROGRAM USES DOT PRODUCT ROUTINES TO
000901:    5322           50106                           TS       TEM9
000902:    5323           05246                           TC       DOT2
000903:
000904:    5324           35475        MXV2               CAF      K2                                    #  USES VBUF
000905:    5325           05347                           TC       STORDAC
000906:    5326           40107                           CS       TEM10
000907:    5327           60106                           AD       TEM9
000908:    5330           50107                           TS       TEM10
000909:    5331           50062                           TS       ADDRWD
000910:    5332           05250                           TC       DOT2       +2
000911:
000912:    5333           35476                           CAF      K2         +1
000913:    5334           05347                           TC       STORDAC
000914:    5335           30107                           XCH      TEM10
000915:    5336           60106                           AD       TEM9
000916:    5337           50062                           TS       ADDRWD
000917:    5340           05250                           TC       DOT2       +2
000918:    5341           35475                           CAF      K2
000919:    5342           50062                           TS       ADDRWD
000920:    5343           65502                           AD       FOUR
000921:    5344           05347                           TC       STORDAC
000922:    5345           04611                           TC       VCA1
000923:    5346           04024                           TC       DANZIG
000924:
000925:    5347           50103        STORDAC            TS       TEM4                                  #  SUBROUTINE TO STORE MPAC, MPAC+1 IN
000926:    5350           40115                           CS       MPAC                                  #  ADDRESSES INDICATED BY C(A) AT ENTRY.
000927:    5351           20103                           INDEX    TEM4
000928:    5352           50000                           TS       0
000929:    5353           40116                           CS       MPAC       +1
000930:    5354           20103                           INDEX    TEM4
000931:    5355           50001                           TS       1
000932:    5356           00001                           TC       Q
000933:
000934:    5357           10066        VXSC1              CCS      NEWEQIND                              #  DP VECTOR TIMES SCALAR
000935:    5360           04754                           TC       VECSET                                #  LOAD INSTRUCTION
000936:    5361           10065                           CCS      MODE                                  #  IF NOT, WHICH MODE ARE WE IN
000937:    5362           00007        SEVEN              OCT      7
000938:    5363           77762        MINUS13            DEC      -13        B-14
000939:
000940:    5364           05370                           TC       VECCHECK
000941:
000942:    5365           30062                           XCH      ADDRWD
000943:    5366           65777                           AD       BUGBITS                               #  TO CALL IN MP
000944:    5367           05372                           TC       VXSC2
000945:
000946:    5370           04611        VECCHECK           TC       VCA1                                  #  USE ADDRWD TO LOAD VECTOR
000947:    5371           34231                           CAF      BUGMPAC
000948:
000949:
000950:    5372           50103        VXSC2              TS       TEM4
000951:    5373           40070                           CS       VACLOC
000952:    5374           40000                           COM
000953:    5375           05102                           TC       DMP1
000954:    5376           05442                           TC       PREROUND
000955:    5377           05466                           TC       STB
000956:    5400           05412                           TC       INCRT2
000957:    5401           05102                           TC       DMP1
000958:    5402           05444                           TC       ROUND
000959:    5403           05466                           TC       STB
000960:    5404           05412                           TC       INCRT2
000961:    5405           05102                           TC       DMP1
000962:    5406           05444                           TC       ROUND
000963:    5407           05466                           TC       STB
000964:    5410           45501        ZEROEXIT           CS       ZERO                                  #  CHANGE MODE TO VECTOR
000965:    5411           05240                           TC       DPEXIT     +1
000966:
000967:    5412     4024               INT1               EQUALS   DANZIG
000968:
000969:    5412           30102        INCRT2             XCH      TEM2
000970:    5413           65503                           AD       TWO
000971:    5414           50102                           TS       TEM2
000972:    5415           00001                           TC       Q
000973:
000974:
000975:    5416           30117        SHORTMP            XCH      MPAC       +2                         #  MULTIPLY THE CONTENTS OF MPAC,MPAC+1,
000976:    5417           25777                           EXTEND                                         #  MPAC+2 BY THE SINGLE PRECISION NUMBER
000977:    5420           40117                           MP       MPAC       +2                         #  ARRIVING IN A.
000978:    5421           30117                           XCH      MPAC       +2
000979:
000980:    5422           30116        SHORTMP2           XCH      MPAC       +1                         #  FASTER BUT SLOPPIER VERSION FOR DP
000981:    5423           25777                           EXTEND
000982:    5424           40116                           MP       MPAC       +1
000983:    5425           50034                           TS       OVCTR
000984:    5426           30003                           XCH      LP
000985:    5427           60117                           AD       MPAC       +2                         #  THE SHORTMP2 RESULT WILL BE OFF IN THE
000986:    5430           30117                           XCH      MPAC       +2                         #    LAST BIT IF THIS AD OVERFLOWS.
000987:    5431           30115                           XCH      MPAC
000988:    5432           25777                           EXTEND
000989:    5433           40116                           MP       MPAC       +1
000990:    5434           30034                           XCH      OVCTR
000991:    5435           60003                           AD       LP
000992:    5436           30116                           XCH      MPAC       +1
000993:    5437           30034                           XCH      OVCTR                                 #  ARGUMENT IN OVCTR UPON EXIT
000994:    5440           50115                           TS       MPAC
000995:    5441           00001                           TC       Q
000996:
000997:    5442           34731        PREROUND           CAF      TCBUF
000998:    5443           50105                           TS       TEM8
000999:
001000:    5444           35501        ROUND              CAF      ZERO                                  #  ROUND THE TRIPLE-PRECISION NUMBER WHOSE
001001:    5445           20105                           INDEX    TEM8                                  #  ADDRESS IS IN TEM8 TO DOUBLE-PRECISION,
001002:    5446           30002                           XCH      2                                     #  SETING THE LOWEST ORDER OF THE THREE
001003:    5447           60000                           DOUBLE                                         #  WORDS TO ZERO IN THE PROCESS
001004:    5450           50034                           TS       OVCTR
001005:    5451           00001                           TC       Q                                     #  DONE IF DOESNT SKIP
001006:
001007:    5452           20105                           INDEX    TEM8
001008:    5453           60001                           AD       1
001009:    5454           20105                           INDEX    TEM8
001010:    5455           50001                           TS       1
001011:    5456           00001                           TC       Q
001012:
001013:    5457           20105                           INDEX    TEM8
001014:    5460           60000                           AD       0
001015:    5461           20105                           INDEX    TEM8
001016:    5462           50000                           TS       0                                     #  ANY CARRIES BEYOND THIS POINT ARE
001017:    5463           00001                           TC       Q                                     #  OVERFLOW
001018:
001019:    5464           50122                           TS       OVFIND
001020:    5465           00001                           TC       Q
001021:
001022:
001023:    5466           40077        STB                CS       BUF
001024:    5467           20102                           INDEX    TEM2
001025:    5470           50000                           TS       0
001026:    5471           40100                           CS       BUF        +1
001027:    5472           20102                           INDEX    TEM2
001028:    5473           50001                           TS       1
001029:    5474           00001                           TC       Q
001030:
001031:    5475           00071        K2                 0        VBUF
001032:    5476           00073                           0        VBUF       +2
001033:    5477           00075                           0        VBUF       +4
001034:
001035:    5500     5473               STORTEST           EQUALS   K2         -2
001036:
001037:    5500           00002        SEQ                OCT      2
001038:    5501           00000        ZERO               OCT      0
001039:    5502           00004        FOUR               OCT      4
001040:    5503           00002        TWO                OCT      2
001041:    5504           77777        NEG0               OCT      -0
001042:
001043:    5505           04754        VPROJ1             TC       VECSET                                #  VECTOR PROJECT
001044:    5506           05246                           TC       DOT2                                  #  LEAVES (VAC,X)VAC IN VAC
001045:    5507           04742                           TC       DACCOM
001046:    5510           05371                           TC       VXSC2      -1                         #  FINISH IN VXSC (USING MPAC)
001047:
001048:    5511           04754        CROSS1             TC       VECSET                                #  DP VECTOR CROSS PRODUCT (BOTH WAYS)
001049:    5512           34731                           XCH      TCBUF
001050:    5513           30062                           XCH      ADDRWD
001051:    5514           65777                           AD       BUGBITS                               #  AGAIN FOR MP
001052:    5515           50104                           TS       BASE
001053:    5516           65503                           AD       TWO                                   #  WHERE THE VECTOR X IS THAT ADDRESSED
001054:    5517           50103                           TS       TEM4                                  #  BY THE ORDER, AND V IS C(VAC).
001055:    5520           35503                           XCH      TWO
001056:
001057:
001058:    5521           50107        LUP                TS       IND
001059:    5522           20107                           INDEX    IND
001060:    5523           35500                           XCH      SEQ
001061:    5524           60070                           AD       VACLOC
001062:    5525           05102                           TC       DMP1
001063:    5526           20107                           INDEX    IND
001064:    5527           35502                           XCH      SEQ        +2
001065:    5530           65475                           AD       K2
001066:    5531           50105                           TS       TEM6
001067:    5532           50102                           TS       TEM2
001068:    5533           05466                           TC       STB
001069:    5534           20107                           INDEX    IND
001070:    5535           35500                           XCH      SEQ
001071:    5536           60104                           AD       BASE
001072:    5537           50103                           TS       TEM4
001073:    5540           20107                           INDEX    IND
001074:    5541           35501                           XCH      SEQ        +1
001075:    5542           60070                           AD       VACLOC
001076:    5543           05102                           TC       DMP1
001077:    5544           30105                           XCH      TEM6
001078:    5545           05020                           TC       DAD1
001079:    5546           10107                           CCS      IND
001080:    5547           05521                           TC       LUP
001081:
001082:    5550           35475        CREXIT             XCH      K2
001083:    5551           50062                           TS       ADDRWD
001084:    5552           04616                           TC       VCS1                                  #  VXV
001085:    5553           04024        LDANZIG            TC       DANZIG
001086:
001087:
001088:                                                                                                  #  DOUBLE-PRECISION POLYNOMIAL EVALUATION ROUTINE.
001089:
001090:                                                                                                  #  PROGRAM ENTRY
001091:                                                                                                  #
001092:                                                                                                  #  L             TC      POLY
001093:                                                                                                  #                                                                    N
001094:                                                                                                  #  L+1           OCT     -2N             COMPUTES A  +A X + ... + A X , WHERE
001095:                                                                                                  #                                                  0   1           N
001096:                                                                                                  #  L+2           D.P.    - A             X = C(MPAC).
001097:                                                                                                  #                           0
001098:
001099:                                                                                                  #  -   -   -   -   -   -   -   -
001100:
001101:                                                                                                  #  L+2+2N        D.P.    - A
001102:                                                                                                  #                           N
001103:
001104:                                                                                                  #  L+4+2N        NEXT OPERATION
001105:
001106:    5554           35610        POLY               CAF      BUGBITS2                              #  CONTAINS XCADR VBUF
001107:    5555           50103                           TS       TEM4
001108:    5556           35501                           CAF      ZERO                                  #  ZERO INTO BUF, BUF+1 TO START POLYLUP
001109:    5557           50077                           TS       BUF
001110:    5560           50100                           TS       BUF        +1
001111:
001112:    5561           30115                           XCH      MPAC                                  #  ARGUMENT  X  INTO 6T, 7T
001113:    5562           50071                           TS       VBUF                                  #  TEMPORARY STORAGE
001114:    5563           30116                           XCH      MPAC       +1
001115:    5564           50072                           TS       VBUF       +1
001116:
001117:    5565           34772                           CAF      DAD2       +4                         #  ADDRESS OF MPAC
001118:    5566           50102                           TS       TEM2
001119:
001120:    5567           20001                           INDEX    Q                                     #  2N  INTO 10T
001121:    5570           30000                           CAF      0
001122:    5571           50107                           TS       TEM10
001123:    5572           60001                           AD       Q                                     #  EXIT ADDRESS INTO 11T
001124:    5573           64473                           AD       THREE
001125:    5574           50106                           TS       TEM9
001126:    5575           05601                           TC       POLYLUP    +3
001127:
001128:
001129:    5576           50107        POLYLUP            TS       TEM10
001130:    5577           05103                           TC       DMP1       +1
001131:
001132:    5600           30062                           XCH      ADDRWD
001133:    5601           64340                 +3        AD       NEG2                                  #  REDUCE COEFFICIENT INDEX BY 1
001134:    5602           50062                           TS       ADDRWD                                #  COEFFICIENT LOC IN ADDRWD FOR USE BY
001135:    5603           04526                           TC       TCS1       +2                         #  -BUF,BUF+1 INTO MPAC,MPAC+1
001136:    5604           05021                           TC       DAD1       +1                         #  - COEFF + (BUF) INTO BUF
001137:
001138:    5605           10107                           CCS      TEM10
001139:    5606           64335                           AD       NEG1                                  #  THE AD NEG1 ORDER, -0 WILL BE THE END
001140:    5607           05576                           TC       POLYLUP
001141:
001142:    5610           50070        BUGBITS2           XCADR    VBUF                                  #  USED BY POLY
001143:
001144:    5611           00106                           TC       TEM9                                  #  RETURN
001145:
001146:
001147:    5612           40061        ITCF               CS       BANKSET                               #  ITC - UNCONDITIONAL TRANSFER
001148:    5613           30121                           XCH      ADRLOC                                #  PLACE IN QPRET THE POLISH ADDRESS OF
001149:    5614           74606                           MASK     LOW10                                 #  THE NEXT EQUATION. ITC MUST BE THE LAST
001150:    5615           60121                           AD       ADRLOC                                #  NON-BLANK OPERATOR IN AN EQUATION
001151:    5616           64516                           AD       ONE
001152:    5617           20067                           INDEX    FIXLOC
001153:    5620           50052                           TS       QPRET
001154:    5621           10062                           CCS      ADDRWD
001155:    5622           04001                           TC       INTPRET    +1                         #  BANKREG IS ALREADY SET
001156:
001157:    5623           10122        BOVF               CCS      OVFIND                                #  BRANCH IF OVERFLOW INDICATOR IS ON
001158:    5624           05626                           TC       +2                                    #  OVFIND CAN BE EITHER -1, 0, OR +1
001159:    5625           04024                           TC       DANZIG                                #  IT WAS OFF - DISPATCH NEXT OPERATOR.
001160:    5626           50122                           TS       OVFIND                                #  IT WAS ON - SET TO 0 (OFF)
001161:    5627           04567                           TC       DOBR                                  #  AND DO THE BRANCH
001162:
001163:    5630           04754        VSLT1              TC       VECSET                                #  DP VECTOR SHIFT LEFT
001164:    5631           50015                           TS       BANKREG
001165:    5632           06477                           TC       VSLT2
001166:
001167:    5633           04754        VSRT1              TC       VECSET                                #  DP VECTOR SHIFT RIGHT
001168:    5634           50116                           TS       MPAC       +1                         #  SET SHIFTING BIT IN MPAC,MPAC+1
001169:    5635           50015                           TS       BANKREG                               #  CALL IN BANK ZERO.
001170:    5636           06042                           TC       TRUE2                                 #  GET INTEGER ADDRESS
001171:    5637           65363                           AD       NEG13
001172:    5640           10000                           CCS      A
001173:    5641           05650                           TC       VSRT3
001174:    5642           77761        NEG14              DEC      -14        B-14
001175:    5643           05644                           TC       +1
001176:    5644           20062                           INDEX    ADDRWD
001177:    5645           34500                           CAF      BIT15
001178:    5646           50115                           TS       MPAC
001179:    5647           05371                           TC       VECCHECK   +1                         #  FINISH IN VXSC ROUTINE.
001180:
001181:    5650           20000        VSRT3              INDEX    A
001182:    5651           34501                           CAF      BIT14
001183:    5652           30116                           XCH      MPAC       +1                         #  WHICH PREVIOUSLY CONTAINED A ZERO
001184:    5653           05646                           TC       VSRT3      -2
001185:
001186:    5777                                           SETLOC   5777                                  #  STANDARD LOCATION FOR EXTENDING BITS
001187:
001188:    5777           47777        OPOVF              XCADR    0

End of include-file FIXED-FIXED_INTERPRETER_SECTION.agc.  Parent file is MAIN.agc


