
Source Code


000002:                                                                                                  ## Copyright:   Public domain.
000003:                                                                                                  ## Filename:    FRESH_START_AND_RESTART.agc
000004:                                                                                                  ## Purpose:     A section of Corona revision 261.
000005:                                                                                                  ##              It is part of the source code for the Apollo Guidance Computer
000006:                                                                                                  ##              (AGC) for AS-202. No original listings of this software are
000007:                                                                                                  ##              available; instead, this file was created via disassembly of
000008:                                                                                                  ##              the core rope modules actually flown on the mission.
000009:                                                                                                  ## Assembler:   yaYUL
000010:                                                                                                  ## Contact:     Ron Burkey <info@sandroid.org>.
000011:                                                                                                  ## Website:     www.ibiblio.org/apollo/index.html
000012:                                                                                                  ## Mod history: 2023-05-27 MAS  Created from Solarium 55.
000013:                                                                                                  ##              2023-06-17 MAS  Updated for Corona.
000014:
000015:
000016: 04,6705                                           BANK     4
000017:                                                                                                  #        FRESH START - A KEYBOARD REQUEST TO INITIALIZE THE SYSTEM.
000018:
000019: 04,6705           20017        SLAP1              INHINT                                         #  COMES HERE FROM THE PINBALL VERB FAN.
000020: 04,6706           35501                           CAF      ZERO                                  #   (ZERO FAILREG IN FRESH START ONLY).
000021: 04,6707           51763                           TS       FAILREG
000022: 04,6710           50612                           TS       MODREG
000023: 04,6711           51075                           TS       REDOCNTR                              #  ZERO ONLY DURING FRESH START.
000024:
000025: 04,6712           34513                           CAF      BIT4                                  #  DISABLE IMU FAIL FOR 5 SECS.
000026: 04,6713           50726        SLAP2              TS       OLDERR                                #   CURTAINS ENTERS HERE FROM THATSALL.
000027:                                                                                                  #  DSPLOCK (BIT 4 OF STATE), UPLOCK (BIT2 OF
000028:                                                                                                  #  STATE), EXTVBACT (BIT3 OF STATE) ARE
000029:                                                                                                  #  ZEROED BELOW (FRESH START ONLY).
000030: 04,6714           35501                           CAF      ZERO
000031: 04,6715           51765                           TS       ERCOUNT
000032:
000033: 04,6716           07165                           TC       STARTSUB                              #  SUBROUTINE DOES MOST OF THE WORK.
000034:
000035: 04,6717           34477        NOGO               CAF      MAXPROG                               #  MAKE ALL RESTART GROUPS INACTIVE.
000036: 04,6720           50077                           TS       BUF
000037: 04,6721           44516                           CS       ONE
000038: 04,6722           20077                           INDEX    BUF
000039: 04,6723           50650                           TS       PHASE1
000040: 04,6724           40000                           COM
000041: 04,6725           20077                           INDEX    BUF
000042: 04,6726           50656                           TS       -PHASE1
000043:
000044: 04,6727           10077                           CCS      BUF
000045: 04,6730           06720                           TC       NOGO       +1
000046:
000047: 04,6731           50011                           TS       OUT1                                  #  RESET OUT1 HERE INSTEAD OF IN STARTSUB.
000048: 04,6732           51762                           TS       SMODE                                 #  DISABLE SELF-CHECK.
000049:
000050: 04,6733           34500                           CAF      BIT15                                 #  TELL T4RUPT TO TURN OFF ALL C RELAYS.
000051: 04,6734           50724        DSP12D             TS       DSPTAB     +12D
000052: 04,6735           50725        DSP13D             TS       DSPTAB     +13D
000053:
000054: 04,6736           37330                           CAF      OCT40010
000055: 04,6737           50723        DSP11D             TS       DSPTAB     +11D                       #  LEAVE IMU IN FINE ALIGN
000056:
000057: 04,6740           50727                           TS       WASKSET                               #  DISABLE KSAMP DURING INITIAL TRANSIENT.
000058:
000059: 04,6741           34512                           CAF      BIT5                                  #  FOR 160 MS.
000060: 04,6742           02173                           TC       WAITLIST
000061: 04,6743           10771                           CADR     KENABLE
000062:
000063: 04,6744           30007                           XCH      IN3
000064: 04,6745           30007                           XCH      IN3
000065: 04,6746           77326                           MASK     OPTMODES
000066: 04,6747           50730                           TS       WASOPSET
000067:
000068: 04,6750           37344                           CAF      SWINIT                                #  INITIALIZE SWITCH BIT AREA ON FRESH
000069: 04,6751           50645                           TS       STATE                                 #  START ONLY.
000070: 04,6752           37345                           CAF      SWINIT     +1
000071: 04,6753           50646                           TS       STATE      +1
000072: 04,6754           37346                           CAF      SWINIT     +2
000073: 04,6755           50647                           TS       STATE      +2
000074:
000075: 04,6756           40726                           CS       OLDERR                                #  SEE IF CURTAINS CALLED FRESH START.
000076: 04,6757           74512                           MASK     BIT5
000077: 04,6760           10000                           CCS      A
000078: 04,6761           06764                           TC       STARTSW
000079:
000080: 04,6762           03015                           TC       ALARM
000081: 04,6763           00301                           OCT      00301
000082:
000083: 04,6764           07122        STARTSW            TC       ENDFRESH
000084: 04,6765           32160        ESTART             CAF      PRIO25                                #  FIRE UP INITIALIZATION JOB.
000085: 04,6766           02046                           TC       FINDVAC
000086: 04,6767           67601                           CADR     BEGIN202
000087:
000088: 04,6770           07122                           TC       ENDFRESH
000089:
000090: 04,6771           37327        KENABLE            CAF      OCT50                                 #  COMMANDED FINE ALIGN.
000091: 04,6772           50727                           TS       WASKSET
000092: 04,6773           34505                           CAF      BIT10                                 #  REMOVE IMU FAIL INHIBIT IN 5 SECS.
000093: 04,6774           02173                           TC       WAITLIST
000094: 04,6775           30201                           CADR     IFAILOK
000095:
000096: 04,6776           02256                           TC       TASKOVER
000097:
000098: 04,6777           51764        THATSALL           TS       SFAIL                                 #  CURTAINS - FLUSH MISSION PROGRAM.
000099: 04,7000           20017                           INHINT
000100: 04,7001           37003                           CAF      BITS4&5                               #  DO FRESH START AND PROGRAM ALARM.
000101: 04,7002           06713                           TC       SLAP2
000102:
000103: 04,7003     4477               MAXPROG            EQUALS   FIVE
000104: 04,7003           00030        BITS4&5            OCT      30
000105:
000106: 04,7004           00120        BITS5&7            OCT      120
000107:
000108:
000109:                                                                                                  #        WHENEVER A GO SEQUENCE (GOJAM) IS FIRED,  GOPROG  IS CALLED TO RESTART ANY COMPUTER ACTIVITY THAT
000110:                                                                                                  #  MAY HAVE BEEN GOING ON AT THE TIME. (A NUMBER OF ALARMS SUCH AS PARITY FAILURE OR POWER FAILURE CAUSE GOJAM).
000111:                                                                                                  #  THE FUNCTION OF GOPROG IS TO INITIALIZE THE COMPUTER SUB-SYSTEM (I.E., NO C RELAYS ARE CHANGED, ETC.) AND
000112:                                                                                                  #  RESTART ALL MAJOR ROUTINES WHOSE PHASE BITS INDICATE ACTIVITY.
000113:
000114: 04,7005           34512        GOPROG             CAF      DVMONMSK                              #  SHOULD BE SYS FLAG FOR ENGINE ON.
000115: 04,7006           70646                           MASK     FLAGWRD1
000116: 04,7007           10000                           CCS      A                                     #  SEE IF ENGINE WAS ON.
000117: 04,7010           34502                           CAF      BIT13                                 #  YES..PUT IT BACK ON.
000118: 04,7011           50011                           TS       OUT1                                  #  NO...ZERO IT.
000119:
000120: 04,7012           35503                           CAF      TWO                                   #  SET RESTART FAIL INDICATION, WHICH WILL
000121: 04,7013           50726                           TS       OLDERR                                #  BE REMOVED AFTER SUCCESSFUL VERIFICATION
000122: 04,7014           07165                           TC       STARTSUB                              #  OF PHASE TABLE AGREEMENT.
000123:
000124: 04,7015           30004                           XCH      IN0                                   #  IF BOTH ERROR RESET AND MARK ARE
000125: 04,7016           77325                           MASK     HUNGMASK                              #  DEPRESSED, FALL INTO FRESH START TO
000126: 04,7017           67022                           AD       HUNGCODE                              #  HOPEFULLY PREVENT OR STOP RECURRING GOS.
000127: 04,7020           10000                           CCS      A
000128: 04,7021           07025                           TC       PHASECHK   -1                         #  RESTART
000129: 04,7022           37755        HUNGCODE           OCT      37755                                 #  COMPLEMENT OF IN0 HUNG SETTING.
000130: 04,7023           07025                           TC       PHASECHK   -1                         #  RESTART
000131: 04,7024           06717                           TC       NOGO
000132:
000133: 04,7025           34477                           CAF      MAXPROG                               #  PHASE BITS ARE KEPT IN TWO COPIES,
000134: 04,7026           50115        PHASECHK           TS       MPAC                                  #  ONE DIRECT AND ONE COMPLEMENTED. THIS
000135: 04,7027           20000                           INDEX    A                                     #  SECTION MAKES SURE ALL ENTRIES IN EACH
000136: 04,7030           40650                           CS       PHASETAB                              #  SATISFIES THIS RULE AS AN INDICATION OF
000137: 04,7031           50077                           TS       BUF                                   #  THE GOODNESS OF ERASABLE MEMORY. IF THE
000138: 04,7032           40000                           COM                                            #  TEST FAILS, DO A FRESH START WITH THE
000139: 04,7033           20115                           INDEX    MPAC                                  #  MODE LIGHTS SET TO 00 TO TELL THE STORY.
000140: 04,7034           70656                           MASK     PHASEBAR
000141: 04,7035           07127                           TC       ZEROTEST                              #  P.(-P) AND (-P).(--P) SHOULD BOTH BE
000142: 04,7036           20115                           INDEX    MPAC                                  #  +0 FOR A LOGICAL MATCH.
000143: 04,7037           40656                           CS       PHASEBAR
000144: 04,7040           70077                           MASK     BUF
000145: 04,7041           07127                           TC       ZEROTEST
000146:
000147: 04,7042           10115                           CCS      MPAC
000148: 04,7043           07026                           TC       PHASECHK
000149:
000150: 04,7044           51443                           TS       DISPCNTR                              #  ENABLE VG DISPLAY GRAB
000151: 04,7045           50726                           TS       OLDERR                                #  NO RESTART FAIL.
000152: 04,7046           34516                           CAF      ONE                                   #  INCREMENT REDOCNTR.
000153: 04,7047           61075                           AD       REDOCNTR
000154: 04,7050           51075                           TS       REDOCNTR
000155:
000156: 04,7051           44500                           CS       BIT15
000157: 04,7052           70725                           MASK     DSPTAB     +13D                       #  PICK UP ALL BUT BIT 15.
000158: 04,7053           64500                           AD       BIT15                                 #  SET BIT 15 TO FORCE RESETTING RELAYS.
000159: 04,7054           50725                           TS       DSPTAB     +13D                       #  MIGHT TAKE A WHILE TO GET OUT.
000160:
000161: 04,7055           30007        CHECKIN3           XCH      IN3                                   #  PUT PRESENT MODES INTO WAS  REGISTERS.
000162: 04,7056           30007                           XCH      IN3
000163: 04,7057           50727                           TS       WASKSET
000164: 04,7060           74720                           MASK     LOW7
000165: 04,7061           30727                           XCH      WASKSET
000166: 04,7062           77326                           MASK     OPTMODES
000167: 04,7063           50730                           TS       WASOPSET
000168:
000169: 04,7064           37004                           CAF      BITS5&7                               #  IMU ATTITUDE CONTROL OR ENTRY MODE.
000170: 04,7065           70727                           MASK     WASKSET
000171: 04,7066           10000                           CCS      A                                     #  IS IT IN ONE OF THESE MODES.
000172: 04,7067           45501                           CS       ZERO                                  #  YES.. PUT +0 INTO CDUIND.
000173: 04,7070           40000                           COM                                            #  NO... PUT -0 INTO CDUIND.
000174: 04,7071           50677                           TS       CDUIND
000175:
000176: 04,7072           10004                           CCS      IN0
000177: 04,7073           07101                           TC       GOJUMP
000178: 04,7074           07101                           TC       GOJUMP
000179: 04,7075           07076                           TC       +1
000180: 04,7076           44503                           CS       BIT12
000181: 04,7077           70730                           MASK     WASOPSET
000182: 04,7100           50730                           TS       WASOPSET
000183:
000184:
000185: 04,7101           34477        GOJUMP             CAF      MAXPROG                               #  SCAN PHASE TABLE FOR ACTIVITY.
000186: 04,7102           50120                           TS       LOC
000187:
000188: 04,7103           20016                           RELINT                                         #  OPEN THE INTERRUPT GATE SO THAT EACH
000189: 04,7104           20017                           INHINT                                         #  GO DISPATCH HAS 10 MS.
000190:
000191: 04,7105           64516                           AD       ONE                                   #  GROUP NUMBER IN PROG.
000192: 04,7106           50573                           TS       PROG
000193: 04,7107           20000                           INDEX    A                                     #  SEE IF GROUP ACTIVE.
000194: 04,7110           10647                           CCS      PHASE1     -1
000195: 04,7111           07141                           TC       PROGON                                #  VALID IF PHASE LESS THAN 127.
000196: 04,7112           07153                           TC       GOTERM                                #  DO REQUESTED PHASE TERMINATE.
000197: 04,7113           10000                           CCS      A                                     #  INACTIVE IF PHASE = -1.
000198: 04,7114           07162                           TC       RSTFAIL2                              #  BAD DATA IF -0.
000199: 04,7115           10120        GORETURN           CCS      LOC
000200: 04,7116           07102                           TC       GOJUMP     +1
000201:
000202: 04,7117           32172                           CAF      PRIO37                                #  FIRE UP JOB TO DISPLAY FAILREG
000203: 04,7120           02052                           TC       NOVAC
000204: 04,7121           23712                           CADR     DOALARM
000205:
000206: 04,7122           20016        ENDFRESH           RELINT
000207: 04,7123           05654                           TC       BANKCALL                              #  DISPLAY MAJOR MODES.
000208: 04,7124           16003                           CADR     DSPMM
000209:
000210: 04,7125           05720                           TC       POSTJUMP
000211: 04,7126           23402                           CADR     DUMMYJOB                              #  THIS REVERTS TO THE IDLING JOB.
000212:
000213: 04,7127           10000        ZEROTEST           CCS      A
000214: 04,7130           06717                           TC       NOGO                                  #  RESTART FROM GO IMPOSSIBLE.
000215: 04,7131           00001                           TC       Q                                     #  OK SO FAR
000216: 04,7132           06717                           TC       NOGO
000217: 04,7133           06717                           TC       NOGO
000218:
000219:
000220:                                                                                                  #    INTERNAL RESTART BY PROGRAM CONTROL TO FLUSH OUT WAITLIST AND EXEC.
000221:
000222: 04,7134           20017        ENEMA              INHINT                                         #  A STRANGE INSTRUCTION TO BEAR THIS NAME.
000223: 04,7135           07165                           TC       STARTSUB
000224:
000225: 04,7136           45501                           CS       ZERO                                  #  ALL 7 IN SFAIL DENOTES PROGRAMMED REDO.
000226: 04,7137           51764                           TS       SFAIL
000227:
000228: 04,7140           07055                           TC       CHECKIN3
000229:
000230:
000231:                                                                                                  #        DISPATCH OR TERMINATE RESTART GROUPS.
000232:
000233: 04,7141           64516        PROGON             AD       ONE                                   #  PHASE BITS TO MPAC.
000234: 04,7142           50115                           TS       MPAC
000235: 04,7143           44720                           CS       LOW7                                  #  CHECK SIZE.
000236: 04,7144           70115                           MASK     MPAC
000237: 04,7145           10000                           CCS      A
000238: 04,7146           07162                           TC       RSTFAIL2                              #  RESTART FAIL - OUT OF RANGE.
000239:
000240: 04,7147           20120                           INDEX    LOC                                   #  JUMP TO GOCADR LOC.
000241: 04,7150           37334                           CAF      GOCADR
000242: 04,7151           05662                           TC       SWCALL
000243:
000244: 04,7152           07115                           TC       GORETURN                              #  ON RETURN FROM SWCALL.
000245:
000246: 04,7153           44516        GOTERM             CS       ONE                                   #  IF A RESTART GROUP HAD BEEN REQUESTED TO
000247: 04,7154           20120                           INDEX    LOC                                   #  TERMINATE, DO THE TERMINATE NOW.
000248: 04,7155           50650                           TS       PHASE1
000249: 04,7156           40000                           COM
000250: 04,7157           20120                           INDEX    LOC
000251: 04,7160           50656                           TS       -PHASE1
000252: 04,7161           07115                           TC       GORETURN
000253:
000254: 04,7162           35503        RSTFAIL2           CAF      TWO                                   #  BAD DATA IN RESTART TABLES - FAIL.
000255: 04,7163           50726                           TS       OLDERR
000256: 04,7164           06717                           TC       NOGO
000257:
000258:
000259:                                                                                                  #        INITIALIZATION SUBROUTINE, CONTAINING INITIALIZATION COMMON TO BOTH FRESH START (KEYBOARD REQUEST) AND
000260:                                                                                                  #  RESTART (IN RESPONSE TO A GO SEQUENCE).
000261:
000262: 04,7165           30001        STARTSUB           XCH      Q
000263: 04,7166           50077                           TS       BUF                                   #  EXEC TEMPS ARE AVAILABLE TO US.
000264:
000265: 04,7167           34476                           CAF      POSMAX                                #  T3 AND T4 OVERFLOW AS SOON AS POSSIBLE.
000266: 04,7170           50037                           TS       TIME3                                 #    (POSMAX IS PSEUDO INTERRUPT SIGNAL IN
000267: 04,7171           50040                           TS       TIME4                                 #    CASE RUPT SIGNALLED BEFORE TS TIME3),
000268:
000269: 04,7172           34520                           CAF      NEG1/2                                #  INITIALIZE WAITLIST DELTA-TS.
000270: 04,7173           50560                           TS       LST1       +6
000271: 04,7174           50557                           TS       LST1       +5
000272: 04,7175           50556                           TS       LST1       +4
000273: 04,7176           50555                           TS       LST1       +3
000274: 04,7177           50554                           TS       LST1       +2
000275: 04,7200           50553                           TS       LST1       +1
000276: 04,7201           50552                           TS       LST1
000277:
000278: 04,7202           42260                           CS       ENDTASK                               #  SET ALL TASKS TO DUMMY TASK.
000279: 04,7203           50570                           TS       LST2       +7
000280: 04,7204           50567                           TS       LST2       +6
000281: 04,7205           50566                           TS       LST2       +5
000282: 04,7206           50565                           TS       LST2       +4
000283: 04,7207           50564                           TS       LST2       +3
000284: 04,7210           50563                           TS       LST2       +2
000285: 04,7211           50562                           TS       LST2       +1
000286: 04,7212           50561                           TS       LST2
000287:
000288: 04,7213           45501                           CS       ZERO                                  #  MAKE ALL EXECUTIVE REGISTER SETS
000289: 04,7214           50134                           TS       PRIORITY   +8D                        #  AVAILABLE (EXCEPT THIS ONE).
000290: 04,7215           50144                           TS       PRIORITY   +16D
000291: 04,7216           50154                           TS       PRIORITY   +24D
000292: 04,7217           50164                           TS       PRIORITY   +32D
000293: 04,7220           50174                           TS       PRIORITY   +40D
000294: 04,7221           50204                           TS       PRIORITY   +48D
000295: 04,7222           50214                           TS       PRIORITY   +56D
000296:
000297: 04,7223           50033                           TS       DSRUPTSW                              #  -0 GIVES US 40 MS TO GET READY FOR T4.
000298: 04,7224           50677                           TS       CDUIND                                #  MAKE IMU AND OPTICS AVAILABLE.
000299: 04,7225           50703                           TS       OPTIND
000300:
000301:
000302: 04,7226           37342                           CAF      VAC1ADRC                              #  MAKE ALL VAC AREAS AVAILABLE.
000303: 04,7227           50216                           TS       VAC1USE
000304: 04,7230           67343                           AD       LTHVACA
000305: 04,7231           50272                           TS       VAC2USE
000306: 04,7232           67343                           AD       LTHVACA
000307: 04,7233           50346                           TS       VAC3USE
000308: 04,7234           67343                           AD       LTHVACA
000309: 04,7235           50422                           TS       VAC4USE
000310: 04,7236           67343                           AD       LTHVACA
000311: 04,7237           50476                           TS       VAC5USE
000312:
000313: 04,7240           34505                           CAF      BIT10                                 #  THIS REGISTER SET BECOMES DUMMY JOB.
000314: 04,7241           50124                           TS       PRIORITY
000315:
000316: 04,7242           33240                           CAF      TEN                                   #  TURN OFF ALL DISPLAY SYSTEM RELAYS.
000317: 04,7243           50115        DSPOFF             TS       MPAC
000318: 04,7244           44503                           CS       BIT12
000319: 04,7245           20115                           INDEX    MPAC
000320: 04,7246           50710                           TS       DSPTAB
000321: 04,7247           10115                           CCS      MPAC
000322: 04,7250           07243                           TC       DSPOFF
000323:
000324: 04,7251           50041                           TS       UPLINK                                #  THESE MIGHT PICK UP AN INCREMENT DURING
000325: 04,7252           50056                           TS       56                                    #  A GO.
000326: 04,7253           50706                           TS       DSPCNT                                #  SKIPS TO HERE WHEN FINISHED WITH C(A)=0.
000327: 04,7254           50215                           TS       NEWJOB
000328: 04,7255           50627                           TS       CADRSTOR
000329: 04,7256           50613                           TS       REQRET
000330: 04,7257           50633                           TS       CLPASS
000331: 04,7260           50625                           TS       MONSAVE                               #  KILL MONITOR
000332: 04,7261           50626                           TS       MONSAVE1
000333: 04,7262           50630                           TS       GRABLOCK
000334: 04,7263           50602                           TS       VERBREG
000335: 04,7264           50603                           TS       NOUNREG
000336: 04,7265           50634                           TS       DSPLIST
000337: 04,7266           50635                           TS       DSPLIST    +1
000338: 04,7267           50636                           TS       DSPLIST    +2
000339: 04,7270           50764                           TS       LGYRO                                 #  MAKE GYRO ROUTINES AVAILABLE.
000340: 04,7271           50756                           TS       GCOMP                                 #  ZERO COMPENSATING GYRO TORQUES.
000341: 04,7272           50757                           TS       GCOMP      +1
000342: 04,7273           50760                           TS       GCOMP      +2
000343: 04,7274           50761                           TS       GCOMP      +3
000344: 04,7275           50762                           TS       GCOMP      +4
000345: 04,7276           50763                           TS       GCOMP      +5
000346: 04,7277           50731                           TS       DESKSET                               #  NO COMPUTER COMMAND.
000347: 04,7300           50732                           TS       DESOPSET                              #  (SAME AS IMU).
000348: 04,7301           50733                           TS       IMUCADR                               #  INITIALIZE MODE-SWITCHING.
000349: 04,7302           50734                           TS       OPTCADR
000350: 04,7303           50675                           TS       TMMARKER
000351: 04,7304           50735                           TS       MARKSTAT                              #  MAKE MARK SYSTEM AVAILABLE.
000352:
000353: 04,7305           40036                           CS       TIME1                                 #  SAVE TIME OF LAST RESTART. (MINUS VALUE)
000354: 04,7306           51077                           TS       REDOTIME   +1
000355:
000356: 04,7307           34475                           CAF      SIX                                   #  (MAY NOT GET ANY ENDPULSES BEFORE T4).
000357: 04,7310           50670                           TS       TELCOUNT
000358:
000359: 04,7311           37331                           CAF      LPHASE1
000360: 04,7312           50673                           TS       DNTMGOTO
000361:
000362: 04,7313           32564                           CAF      LDNLST1
000363: 04,7314           50672                           TS       DNLSTADR
000364:
000365: 04,7315           37333                           CAF      NOUTCON
000366: 04,7316           50707                           TS       NOUT
000367:
000368: 04,7317           47332                           CS       BIT3/4                                #  ZERO ONLY DSPLOCK (BIT4 OF STATE) AND
000369: 04,7320           70645                           MASK     STATE                                 #  EXTVBACT (BIT3 OF STATE) FOR RESTART.
000370: 04,7321           50645                           TS       STATE                                 #  UPLOCK (BIT2 OF STATE) IS ZEROED ONLY
000371:                                                                                                  #  IN FRESH START.
000372: 04,7322           43235                           CS       VD1
000373: 04,7323           50614                           TS       DSPCOUNT
000374: 04,7324           00077                           TC       BUF                                   #  DONE.
000375:
000376:
000377: 04,7325           40037        HUNGMASK           OCT      40037                                 #  KEYCODE AND MARK BUTTON ONLY
000378: 04,7326           35000        OPTMODES           OCT      35000
000379:
000380: 04,7327           00050        OCT50              OCT      50                                    #  FINE ALIGN + TRANSFER SWITCH.
000381: 04,7330           40010        OCT40010           OCT      40010                                 #  IMU FINE ALIGN C-RELAY SETTING.
000382: 04,7331           02413        LPHASE1            ADRES    DNPHASE1
000383: 04,7332           00014        BIT3/4             OCT      14
000384: 04,7333           00013        NOUTCON            DEC      11         B-14
000385:
000386:
000387:
000388: 04,7334           51306        GOCADR             CADR     MIDGO                                 #  GROUP 1 RESTARTS.
000389: 04,7335           26527                           CADR     RESTARTS                              #  GROUP 2 RESTARTS.
000390: 04,7336           26527                           CADR     RESTARTS                              #  GROUP 3 RESTARTS.
000391: 04,7337           26527                           CADR     RESTARTS                              #  GROUP 4 RESTARTS.
000392: 04,7340           26527                           CADR     RESTARTS                              #  GROUP 5 RESTARTS.
000393: 04,7341           26527                           CADR     RESTARTS                              #  GROUP 6 RESTARTS.
000394:
000395: 04,7342           00216        VAC1ADRC           ADRES    VAC1USE
000396: 04,7343           00054        LTHVACA            DEC      44         B-14
000397:
000398: 04,7344           01360        SWINIT             OCT      01360
000399: 04,7345           00000                           OCT      00000                                 #  STATE +1
000400: 04,7346           00000                           OCT      00000                                 #  STATE +2

End of include-file FRESH_START_AND_RESTART.agc.  Parent file is MAIN.agc


