
Source Code


000002:                                                                                                  ## Copyright:   Public domain.
000003:                                                                                                  ## Filename:    IMU_PERFORMANCE_TESTS_2.agc
000004:                                                                                                  ## Purpose:     A section of Corona revision 261.
000005:                                                                                                  ##              It is part of the source code for the Apollo Guidance Computer
000006:                                                                                                  ##              (AGC) for AS-202. No original listings of this software are
000007:                                                                                                  ##              available; instead, this file was created via disassembly of
000008:                                                                                                  ##              the core rope modules actually flown on the mission.
000009:                                                                                                  ## Assembler:   yaYUL
000010:                                                                                                  ## Contact:     Ron Burkey <info@sandroid.org>.
000011:                                                                                                  ## Website:     www.ibiblio.org/apollo/index.html
000012:                                                                                                  ## Mod history: 2023-05-27 MAS  Created from Solarium 55.
000013:
000014:
000015: 34,6000                                           SETLOC   70000
000016:
000017: 34,6000           05654        MISALIGN           TC       BANKCALL
000018: 34,6001           25331                           CADR     OGCZERO
000019: 34,6002           03310                           TC       GRABDSP
000020: 34,6003           03316                           TC       PREGBSY
000021: 34,6004           33517                           CAF      11DEC
000022: 34,6005           51311                           TS       PTS
000023: 34,6006           35501                           CAF      ZERO
000024: 34,6007           51312                           TS       PTS        +1
000025: 34,6010           51224        BBB                TS       NDXCTR
000026: 34,6011           21224                           INDEX    NDXCTR
000027: 34,6012           41204                           CS       GENPL      +68D
000028: 34,6013           21224                           INDEX    NDXCTR
000029: 34,6014           61212                           AD       GENPL      +74D
000030: 34,6015           21224                           INDEX    NDXCTR
000031: 34,6016           51212                           TS       GENPL      +74D
000032: 34,6017           36235                           CAF      63DEC
000033: 34,6020           61224                           AD       NDXCTR
000034: 34,6021           10000                           CCS      A
000035: 34,6022           44473                           CS       THREE
000036: 34,6023           61224                           AD       NDXCTR
000037: 34,6024           06010                           TC       BBB
000038: 34,6025           51224        CCCC               TS       NDXCTR
000039: 34,6026           04000                           TC       INTPRET
000040: 34,6027           73576                           LXA,1    0
000041: 34,6030           01225                                    NDXCTR
000042: 34,6031           44175                           DMOVE*   1
000043: 34,6032           66776                           DSU
000044: 34,6033           02421                                    GENPL      +72D,1
000045: 34,6034           01101                                    GENPL
000046: 34,6035           36421                           STORE    GENPL      +72D,1
000047: 34,6036           77576                           EXIT     0
000048: 34,6037           41224                           CS       NDXCTR
000049: 34,6040           66236                           AD       69DEC
000050: 34,6041           10000                           CCS      A
000051: 34,6042           34473                           CAF      THREE
000052: 34,6043           61224                           AD       NDXCTR
000053: 34,6044           06025                           TC       CCCC
000054: 34,6045           51100                           TS       GENPL
000055: 34,6046           51101                           TS       GENPL      +1
000056: 34,6047           51312                           TS       RUN
000057: 34,6050           34473                           CAF      THREE
000058: 34,6051           51224        DDDD               TS       NDXCTR
000059: 34,6052           04000                           TC       INTPRET
000060: 34,6053           73576                           LXA,1    0
000061: 34,6054           01225                                    NDXCTR
000062: 34,6055           66376                           DSU*     0
000063: 34,6056           02421                                    GENPL      +72D,1
000064: 34,6057           02405                                    GENPL      +66D,1
000065: 34,6060           47575                           NOLOD    1
000066: 34,6061           56740                           TSRT     DAD*
000067: 34,6062           00002                                    1
000068: 34,6063           02405                                    GENPL      +66D,1
000069: 34,6064           36421                           STORE    GENPL      +72D,1
000070: 34,6065           47575                           NOLOD    1
000071: 34,6066           63742                           TSLT     DAD
000072: 34,6067           00003                                    2
000073: 34,6070           01521                                    OGC
000074: 34,6071           33521                           STORE    OGC
000075: 34,6072           44174                           DMOVE*   2
000076: 34,6073           63643                           TSLT     DSQ
000077: 34,6074           70776                           DAD
000078: 34,6075           02421                                    GENPL      +72D,1
000079: 34,6076           00005                                    4
000080: 34,6077           01525                                    MGC
000081: 34,6100           33525                           STORE    MGC
000082: 34,6101           77576                           EXIT     0
000083: 34,6102           41312                           CS       RUN
000084: 34,6103           40000                           COM
000085: 34,6104           61224                           AD       NDXCTR
000086: 34,6105           40000                           COM
000087: 34,6106           66235                           AD       63DEC
000088: 34,6107           10000                           CCS      A
000089: 34,6110           34475                           CAF      SIX
000090: 34,6111           61224                           AD       NDXCTR
000091: 34,6112           06051                           TC       DDDD
000092: 34,6113           61312                           AD       RUN
000093: 34,6114           51224        EEEE               TS       NDXCTR
000094: 34,6115           21224                           INDEX    NDXCTR
000095: 34,6116           41113                           CS       GENPL      +11D
000096: 34,6117           40000                           COM
000097: 34,6120           51572                           TS       TEMDELV
000098: 34,6121           35501                           CAF      ZERO
000099: 34,6122           51573                           TS       TEMDELV    +1
000100: 34,6123           04000                           TC       INTPRET
000101: 34,6124           71576                           LXC,1    0
000102: 34,6125           01225                                    NDXCTR
000103: 34,6126           45176                           DMOVE    0
000104: 34,6127           77777                                    -
000105: 34,6130           47574                           NOLOD    2
000106: 34,6131           63706                           TSLT     BDDV
000107: 34,6132           70776                           DAD
000108: 34,6133           00006                                    5
000109: 34,6134           01573                                    TEMDELV
000110: 34,6135           01523                                    IGC
000111: 34,6136           33523                           STORE    IGC
000112: 34,6137           63775                           TSLT     1
000113: 34,6140           61776                           BDDV
000114: 34,6141           77777                                    -
000115: 34,6142           00004                                    3
000116: 34,6143           01573                                    TEMDELV
000117: 34,6144           44174                           DMOVE*   2
000118: 34,6145           63722                           TSLT     DMP
000119: 34,6146           70776                           DAD
000120: 34,6147           02223                                    GENPL      +9D,1
000121: 34,6150           00005                                    4
000122: 34,6151           77777                                    -
000123: 34,6152           01101                                    GENPL
000124: 34,6153           33101                           STORE    GENPL
000125: 34,6154           77576                           EXIT     0
000126: 34,6155           41224                           CS       NDXCTR
000127: 34,6156           66235                           AD       63DEC
000128: 34,6157           61312                           AD       RUN
000129: 34,6160           64341                           AD       NEG3
000130: 34,6161           10000                           CCS      A
000131: 34,6162           34475                           CAF      SIX
000132: 34,6163           61224                           AD       NDXCTR
000133: 34,6164           06114                           TC       EEEE
000134: 34,6165           04000                           TC       INTPRET
000135: 34,6166           64776                           DMP      0
000136: 34,6167           01521                                    OGC
000137: 34,6170           01101                                    GENPL
000138: 34,6171           64775                           DMP      1
000139: 34,6172           66776                           DSU
000140: 34,6173           01525                                    MGC
000141: 34,6174           01523                                    IGC
000142: 34,6175           51175                           DSQ      1
000143: 34,6176           56776                           TSRT
000144: 34,6177           01521                                    OGC
000145: 34,6200           00002                                    1
000146: 34,6201           63774                           TSLT     2
000147: 34,6202           64732                           DMP      DSU
000148: 34,6203           61722                           BDDV     DMP
000149: 34,6204           01312                                    PTS
000150: 34,6205           00012                                    11
000151: 34,6206           01525                                    MGC
000152: 34,6207           77777                                    -
000153: 34,6210           77777                                    -
000154: 34,6211           30234                                    K
000155: 34,6212           32622                           STORE    DSPTEM2
000156: 34,6213           77576                           EXIT     0
000157: 34,6214           05654                           TC       BANKCALL
000158: 34,6215           14000                           CADR     FLASHON
000159: 34,6216           37730                           CAF      V06N66E
000160: 34,6217           03106                           TC       NVSUB
000161: 34,6220           03323                           TC       PRENVBSY
000162: 34,6221           03144                           TC       ENDIDLE
000163: 34,6222           06237                           TC       ENDTEST1
000164: 34,6223           34473                           CAF      THREE
000165: 34,6224           51312                           TS       RUN
000166: 34,6225           05654                           TC       BANKCALL
000167: 34,6226           25331                           CADR     OGCZERO
000168: 34,6227           35501                           CAF      ZERO
000169: 34,6230           51100                           TS       GENPL
000170: 34,6231           51101                           TS       GENPL      +1
000171: 34,6232           06051                           TC       DDDD
000172:
000173:
000174:
000175: 34,6233           02321 00000  K                  2DEC     1.233      E3         B-14
000176: 34,6235           00077        63DEC              DEC      63         B-14
000177: 34,6236           00105        69DEC              DEC      69         B-14
000178:
000179:
000180:
000181: 34,6237           05654        ENDTEST1           TC       BANKCALL
000182: 34,6240           25406                           CADR     ENDTEST
000183:
000184:
000185: 34,6241           05706        FINDNAVB           TC       MAKECADR
000186: 34,6242           51573                           TS       RETAA
000187: 34,6243           05654                           TC       BANKCALL
000188: 34,6244           30453                           CADR     MKRELEAS
000189: 34,6245           34516                           CAF      ONE
000190: 34,6246           50616                           TS       DSPTEM1
000191: 34,6247           37731                           CAF      V01N30E                               #  MARK ON TARGET 1
000192: 34,6250           03106                           TC       NVSUB
000193: 34,6251           03323                           TC       PRENVBSY
000194: 34,6252           34516                           CAF      ONE
000195: 34,6253           05654                           TC       BANKCALL
000196: 34,6254           30406                           CADR     SXTMARK
000197: 34,6255           05654                           TC       BANKCALL
000198: 34,6256           30327                           CADR     OPTSTALL
000199: 34,6257           06237                           TC       ENDTEST1
000200: 34,6260           20735                           INDEX    MARKSTAT
000201: 34,6261           40000                           CS       0
000202: 34,6262           40000                           CS       A
000203: 34,6263           51302                           TS       VACADR                                #  TIME OF MARK
000204: 34,6264           20735                           INDEX    MARKSTAT
000205: 34,6265           40001                           CS       1
000206: 34,6266           40000                           CS       A
000207: 34,6267           51303                           TS       VACADR     +1
000208: 34,6270           40735                           CS       MARKSTAT
000209: 34,6271           51304                           TS       MKSTAT1
000210: 34,6272           05654                           TC       BANKCALL
000211: 34,6273           30453                           CADR     MKRELEAS
000212: 34,6274           35503                           CAF      TWO
000213: 34,6275           50616                           TS       DSPTEM1
000214: 34,6276           37731                           CAF      V01N30E                               #  MARK ON TARGET 4
000215: 34,6277           03106                           TC       NVSUB
000216: 34,6300           03323                           TC       PRENVBSY
000217: 34,6301           34516                           CAF      ONE
000218: 34,6302           05654                           TC       BANKCALL
000219: 34,6303           30406                           CADR     SXTMARK
000220: 34,6304           11305                           CCS      COAROFIN                              #  COARSE ALIGN OR FINE ALIGN MARKS
000221: 34,6305           06374                           TC       CLGNMARK
000222: 34,6306           41304                           CS       MKSTAT1
000223: 34,6307           65503                           AD       TWO
000224: 34,6310           20067                           INDEX    FIXLOC
000225: 34,6311           50050                           TS       S1                                    #  BASE ADDRESS GIMBAL ANGLES
000226: 34,6312           04000                           TC       INTPRET                               #  OPT-NB-SM    TARGET 1
000227: 34,6313           73576                           LXA,1    0
000228: 34,6314           01305                                    MKSTAT1
000229: 34,6315           76776                           ITC      0
000230: 34,6316           04733                                    SXTNB
000231: 34,6317           44775                           VSLT     1
000232: 34,6320           76776                           ITC
000233: 34,6321           00041                                    STARM
000234: 34,6322           00001                                    0
000235: 34,6323           04524                                    NBSM
000236: 34,6324           47576                           NOLOD    0
000237: 34,6325           33403                           STORE    STARAD
000238: 34,6326           45176                           DMOVE    0
000239: 34,6327           01303                                    VACADR
000240: 34,6330           33175                           STORE    TMARK
000241: 34,6331           77576                           EXIT     0
000242:
000243: 34,6332           04000        EARRTCOM           TC       INTPRET                               #  COMPENSATE BETWEEN FINE ALIGN MARKS
000244: 34,6333           76776                           ITC      0
000245: 34,6334           30613                                    EARTHR
000246: 34,6335           76776                           ITC      0
000247: 34,6336           30634                                    OUTGYR
000248: 34,6337           77576                           EXIT     0
000249: 34,6340           05654                           TC       BANKCALL
000250: 34,6341           30331                           CADR     IMUSTALL
000251: 34,6342           06237                           TC       ENDTEST1
000252: 34,6343           10734                           CCS      OPTCADR
000253: 34,6344           06347                           TC       +3
000254: 34,6345           06332                           TC       EARRTCOM
000255: 34,6346           06347                           TC       +1
000256: 34,6347           05654                           TC       BANKCALL
000257: 34,6350           30327                           CADR     OPTSTALL
000258: 34,6351           06237                           TC       ENDTEST1
000259: 34,6352           35503                           CAF      TWO
000260: 34,6353           60735                           AD       MARKSTAT
000261: 34,6354           20067                           INDEX    FIXLOC
000262: 34,6355           50050                           TS       S1                                    #  BASE ADDRESS GIMBAL ANGLES
000263: 34,6356           04000                           TC       INTPRET                               #  OPT-NB-SM    TARGET 4
000264: 34,6357           71576                           LXC,1    0
000265: 34,6360           00736                                    MARKSTAT
000266: 34,6361           76776                           ITC      0
000267: 34,6362           04733                                    SXTNB
000268: 34,6363           44775                           VSLT     1
000269: 34,6364           76776                           ITC
000270: 34,6365           00041                                    STARM
000271: 34,6366           00001                                    0
000272: 34,6367           04524                                    NBSM
000273: 34,6370           47576                           NOLOD    0
000274: 34,6371           33411                           STORE    STARAD     +6
000275: 34,6372           76776                           ITC      0
000276: 34,6373           30421                                    MATXDET
000277:
000278: 34,6374           04000        CLGNMARK           TC       INTPRET                               #  OPT-NB       TARGET 1
000279: 34,6375           73576                           LXA,1    0
000280: 34,6376           01305                                    MKSTAT1
000281: 34,6377           76776                           ITC      0
000282: 34,6400           04733                                    SXTNB
000283: 34,6401           75176                           VMOVE    0
000284: 34,6402           00041                                    STARM
000285: 34,6403           33403                           STORE    STARAD
000286: 34,6404           77576                           EXIT     0
000287: 34,6405           05654                           TC       BANKCALL
000288: 34,6406           30327                           CADR     OPTSTALL
000289: 34,6407           06237                           TC       ENDTEST1
000290: 34,6410           04000                           TC       INTPRET                               #  OPT-NB       TARGET 4
000291: 34,6411           71576                           LXC,1    0
000292: 34,6412           00736                                    MARKSTAT
000293: 34,6413           76776                           ITC      0
000294: 34,6414           04733                                    SXTNB
000295: 34,6415           75176                           VMOVE    0
000296: 34,6416           00041                                    STARM
000297: 34,6417           33411                           STORE    STARAD     +6
000298:
000299: 34,6420           75176        MATXDET            VMOVE    0                                     #  CALCULATE TRANSFORMATION MATRIX
000300: 34,6421           01101                                    TAR1POS
000301: 34,6422           32007                           STORE    6
000302: 34,6423           75176                           VMOVE    0
000303: 34,6424           01107                                    TAR1POS    +6
000304: 34,6425           32015                           STORE    12D
000305: 34,6426           76776                           ITC      0
000306: 34,6427           04761                                    AXISGEN
000307: 34,6430           75176                           VMOVE    0
000308: 34,6431           01477                                    XDC
000309: 34,6432           33403                           STORE    STARAD
000310: 34,6433           75176                           VMOVE    0
000311: 34,6434           01505                                    YDC
000312: 34,6435           33411                           STORE    STARAD     +6
000313: 34,6436           75176                           VMOVE    0
000314: 34,6437           01513                                    ZDC
000315: 34,6440           33417                           STORE    STARAD     +12D
000316: 34,6441           77576                           EXIT     0
000317: 34,6442           31573                           XCH      RETAA
000318: 34,6443           05723                           TC       BANKJUMP
000319:
000320:
000321: 34,6444           05706        PUTPOSX            TC       MAKECADR
000322: 34,6445           51573                           TS       RETAA
000323: 34,6446           04000                           TC       INTPRET
000324: 34,6447           76776                           ITC      0
000325: 34,6450           04644                                    CALCGA
000326: 34,6451           77576                           EXIT     0
000327: 34,6452           05654                           TC       BANKCALL
000328: 34,6453           30104                           CADR     IMUCOARS                              #  INITIATE COARSE ALIGN MODE
000329: 34,6454           05654                           TC       BANKCALL
000330: 34,6455           30331                           CADR     IMUSTALL                              #  WAIT FOR IMUCOARS COMPLETION
000331: 34,6456           06237                           TC       ENDTEST1
000332: 34,6457           31573                           XCH      RETAA
000333: 34,6460           05723                           TC       BANKJUMP
000334:
000335:
000336:
000337: 34,6461           05706        SMDCALC            TC       MAKECADR
000338: 34,6462           51573                           TS       RETAA
000339: 34,6463           04000                           TC       INTPRET
000340: 34,6464           52775                           MXV      1
000341: 34,6465           44776                           VSLT
000342: 34,6466           01425                                    XSM
000343: 34,6467           01403                                    STARAD
000344: 34,6470           00002                                    1
000345: 34,6471           33477                           STORE    XDC
000346: 34,6472           52775                           MXV      1
000347: 34,6473           44776                           VSLT
000348: 34,6474           01433                                    YSM
000349: 34,6475           01403                                    STARAD
000350: 34,6476           00002                                    1
000351: 34,6477           33505                           STORE    YDC
000352: 34,6500           41775                           VXV      1
000353: 34,6501           44776                           VSLT
000354: 34,6502           01477                                    XDC
000355: 34,6503           01505                                    YDC
000356: 34,6504           00002                                    1
000357: 34,6505           33513                           STORE    ZDC
000358: 34,6506           76776                           ITC      0
000359: 34,6507           04353                                    CALCGTA
000360: 34,6510           76776                           ITC      0
000361: 34,6511           30634                                    OUTGYR
000362: 34,6512           77576                           EXIT     0
000363: 34,6513           31573                           XCH      RETAA
000364: 34,6514           05723                           TC       BANKJUMP
000365:
000366:
000367: 34,6515           05706        LATAZCHK           TC       MAKECADR
000368: 34,6516           51573                           TS       RETAA
000369: 34,6517           04000                           TC       INTPRET                               #  CHECK LATITUDE AND NAVBASE AZIMUTH
000370: 34,6520           63776                           TSLT     0
000371: 34,6521           01315                                    LATITUDE
000372: 34,6522           00003                                    2
000373: 34,6523           32620                           STORE    DSPTEM1    +1
000374: 34,6524           45175                           DMOVE    1
000375: 34,6525           76575                           RTB      EXIT
000376: 34,6526           01317                                    AZIMUTH
000377: 34,6527           20324                                    1STO2S
000378: 34,6530           30115                           XCH      MPAC
000379: 34,6531           50616                           TS       DSPTEM1
000380: 34,6532           05654                           TC       BANKCALL
000381: 34,6533           25153                           CADR     LATAZCK1
000382:
000383: 34,6534           04000                           TC       INTPRET
000384: 34,6535           43175                           SMOVE    1
000385: 34,6536           76576                           RTB
000386: 34,6537           00617                                    DSPTEM1
000387: 34,6540           20303                                    CDULOGIC
000388: 34,6541           33317                           STORE    AZIMUTH
000389: 34,6542           43175                           SMOVE    1
000390: 34,6543           56776                           TSRT
000391: 34,6544           00620                                    DSPTEM1    +1
000392: 34,6545           00003                                    2
000393: 34,6546           33315                           STORE    LATITUDE
000394: 34,6547           77576                           EXIT     0
000395: 34,6550           31573                           XCH      RETAA
000396: 34,6551           05723                           TC       BANKJUMP
000397:
000398:
000399: 34,6552           04000        TARGSM             TC       INTPRET
000400: 34,6553           76776                           ITC      0
000401: 34,6554           31755                                    ERTHRVEN
000402: 34,6555           76776                           ITC      0
000403: 34,6556           03510                                    PROCTARG
000404: 34,6557           75176                           VMOVE    0
000405: 34,6560           01403                                    TARGET1
000406: 34,6561           33101                           STORE    TAR1POS
000407: 34,6562           75176                           VMOVE    0
000408: 34,6563           01411                                    TARGET1    +6
000409: 34,6564           33107                           STORE    TAR1POS    +6
000410: 34,6565           76776                           ITC      0
000411: 34,6566           03461                                    MAKEXSM
000412: 34,6567           77576                           EXIT     0
000413: 34,6570           05654                           TC       BANKCALL
000414: 34,6571           24050                           CADR     POSLOAD
000415:
000416:
000417: 34,6572           76576        ALGNINIT           RTB      0
000418: 34,6573           20270                                    ZEROVAC
000419: 34,6574           45176                           DMOVE    0
000420: 34,6575           05174                                    ZERODP
000421: 34,6576           55175                           COS      1
000422: 34,6577           47176                           COMP
000423: 34,6600           01315                                    LATITUDE
000424: 34,6601           57175                           SIN      1
000425: 34,6602           41166                           VDEF     VXSC                                  #  (SIN,-COS,0)
000426: 34,6603           01315                                    LATITUDE
000427: 34,6604           31733                                    OMEG/MS
000428: 34,6605           33177                           STORE    VMARK
000429: 34,6606           76576                           RTB      0
000430: 34,6607           20252                                    LOADTIME
000431: 34,6610           33175                           STORE    TMARK
000432: 34,6611           40576                           ITCQ     0
000433:
000434:
000435: 34,6612           76576        EARTHR             RTB      0
000436: 34,6613           20252                                    LOADTIME
000437: 34,6614           32051                           STORE    S1
000438: 34,6615           47573                           NOLOD    3
000439: 34,6616           66716                           DSU      TSLT
000440: 34,6617           75652                           VXSC     MXV
000441: 34,6620           50776                           VAD
000442: 34,6621           01175                                    TMARK
000443: 34,6622           00013                                    10D
000444: 34,6623           01177                                    VMARK
000445: 34,6624           01425                                    XSM
000446: 34,6625           01521                                    OGC
000447: 34,6626           33521                           STORE    OGC
000448: 34,6627           45176                           DMOVE    0
000449: 34,6630           00051                                    S1
000450: 34,6631           33175                           STORE    TMARK
000451: 34,6632           40576                           ITCQ     0
000452:
000453:
000454: 34,6633           75575        OUTGYR             AXT,1    1
000455: 34,6634           55561                           AST,1    AXT,2
000456: 34,6635           00007                                    6
000457: 34,6636           00003                                    2
000458: 34,6637           00001                                    0
000459: 34,6640           56376        OUTGYR1            TSRT*    0
000460: 34,6641           03255                                    OGC        +6,1
000461: 34,6642           00022                                    8D,2
000462: 34,6643           36505                           STORE    GYROD      +6,1
000463: 34,6644           63375                           TSLT*    1
000464: 34,6645           65376                           BDSU*
000465: 34,6646           02505                                    GYROD      +6,1
000466: 34,6647           00022                                    8D,2
000467: 34,6650           03255                                    OGC        +6,1
000468: 34,6651           37255                           STORE    OGC        +6,1
000469: 34,6652           51576                           TIX,1    0
000470: 34,6653           30641                                    OUTGYR1
000471: 34,6654           75575                           AXT,1    1
000472: 34,6655           76401                           RTB      ITCQ
000473: 34,6656           01235                                    GYROD
000474: 34,6657           20375                                    PULSEIMU
000475:
000476:
000477:
000478:
000479:
000480:
000481: 34,6660           05706        STORRSLT           TC       MAKECADR
000482: 34,6661           51573                           TS       RETAA
000483: 34,6662           04000                           TC       INTPRET
000484: 34,6663           71576                           LXC,1    0
000485: 34,6664           01225                                    NDXCTR
000486: 34,6665           47574                           NOLOD    2
000487: 34,6666           63722                           TSLT     DMP
000488: 34,6667           76576                           RTB
000489: 34,6670           00011                                    8D
000490: 34,6671           31735                                    SCALFTR
000491: 34,6672           20403                                    SGNAGREE
000492: 34,6673           36201                           STORE    GENPL,1
000493: 34,6674           77576                           EXIT     0
000494: 34,6675           31230                           XCH      STOREPL
000495: 34,6676           21224                           INDEX    NDXCTR
000496: 34,6677           51102                           TS       GENPL      +2
000497: 34,6700           41224                           CS       NDXCTR
000498: 34,6701           61307                           AD       MAXPTS2
000499: 34,6702           10000                           CCS      A
000500: 34,6703           34473                           CAF      THREE
000501: 34,6704           61224                           AD       NDXCTR
000502: 34,6705           06711                           TC       +4
000503: 34,6706           11313                           CCS      EROPTN
000504: 34,6707           06237                           TC       ENDTEST1
000505: 34,6710           06000                           TC       MISALIGN
000506:
000507:
000508: 34,6711           51224                           TS       NDXCTR
000509: 34,6712           31573                           XCH      RETAA
000510: 34,6713           05723                           TC       BANKJUMP
000511:
000512:
000513: 34,6714           75575        TJLAL              AXT,1    1
000514: 34,6715           55576                           AST,1
000515: 34,6716           00007                                    6
000516: 34,6717           00003                                    2
000517: 34,6720           66375        TJLAL1             DSU*     1
000518: 34,6721           64740                           DMP      DAD*
000519: 34,6722           02017                                    DELVX      +6,1
000520: 34,6723           02245                                    FILDELX    +6,1
000521: 34,6724           31751                                    VRECTC3
000522: 34,6725           02245                                    FILDELX    +6,1
000523: 34,6726           36245                           STORE    FILDELX    +6,1
000524: 34,6727           51576                           TIX,1    0
000525: 34,6730           30721                                    TJLAL1
000526: 34,6731           40576                           ITCQ     0
000527:
000528:
000529: 34,6732           35503        FALNE1             CAF      TWO
000530: 34,6733           67740                           AD       FLNDX
000531: 34,6734           20067                           INDEX    FIXLOC
000532: 34,6735           50050                           TS       S1
000533: 34,6736           04000                           TC       INTPRET
000534: 34,6737           52775                           MXV      1
000535: 34,6740           44772                           VSLT     ITC
000536: 34,6741           01425                                    XSM
000537: 34,6742           01403                                    STARAD
000538: 34,6743           00002                                    1
000539: 34,6744           04524                                    NBSM
000540: 34,6745           47576                           NOLOD    0
000541: 34,6746           33477                           STORE    XDC
000542: 34,6747           52775                           MXV      1
000543: 34,6750           44772                           VSLT     ITC
000544: 34,6751           01433                                    YSM
000545: 34,6752           01403                                    STARAD
000546: 34,6753           00002                                    1
000547: 34,6754           04524                                    NBSM
000548: 34,6755           47576                           NOLOD    0
000549: 34,6756           33505                           STORE    YDC
000550: 34,6757           41775                           VXV      1
000551: 34,6760           44776                           VSLT
000552: 34,6761           01477                                    XDC
000553: 34,6762           01505                                    YDC
000554: 34,6763           00002                                    1
000555: 34,6764           33513                           STORE    ZDC
000556: 34,6765           76776                           ITC      0
000557: 34,6766           04353                                    CALCGTA
000558: 34,6767           76776                           ITC      0
000559: 34,6770           30634                                    OUTGYR
000560: 34,6771           77576                           EXIT     0
000561: 34,6772           05654                           TC       BANKCALL
000562: 34,6773           30331                           CADR     IMUSTALL
000563: 34,6774           06237                           TC       ENDTEST1
000564: 34,6775           05654                           TC       BANKCALL
000565: 34,6776           24600                           CADR     FALNED
000566:
000567:
000568: 34,6777           47575        VERTRECT           NOLOD    1
000569: 34,7000           51622                           VXM      VSLT
000570: 34,7001           01425                                    XSM
000571: 34,7002           00002                                    1
000572: 34,7003           32001                           STORE    0
000573: 34,7004           45176                           DMOVE    0
000574: 34,7005           00043                                    VAC        +2
000575: 34,7006           47176                           COMP     0
000576: 34,7007           00045                                    VAC        +4
000577: 34,7010           43175                           SMOVE    1
000578: 34,7011           41176                           VDEF
000579: 34,7012           05174                                    ZERODP
000580: 34,7013           47575                           NOLOD    1
000581: 34,7014           75622                           VXSC     VSLT
000582: 34,7015           31737                                    INTCON1
000583: 34,7016           00002                                    1
000584: 34,7017           74773                           VSU      3
000585: 34,7020           71766                           BOV      VXSC
000586: 34,7021           44642                           VSLT     VAD
000587: 34,7022           52642                           MXV      VAD
000588: 34,7023           00001                                    0
000589: 34,7024           00023                                    18D
000590: 34,7025           31037                                    ERECTND
000591: 34,7026           31737                                    INTCON1
000592: 34,7027           00002                                    1
000593: 34,7030           77777                                    -
000594: 34,7031           01425                                    XSM
000595: 34,7032           01521                                    OGC
000596: 34,7033           33521                           STORE    OGC
000597: 34,7034           75176                           VMOVE    0
000598: 34,7035           32023                           STORE    18D
000599: 34,7036           40576        ERECTND            ITCQ     0
000600:
000601:
000602: 34,7037           21223        POSNJUMP           INDEX    POSITON
000603: 34,7040           07041                           TC       +1
000604: 34,7041           06237                           TC       ENDTEST1
000605: 34,7042           07050                           TC       POS1
000606: 34,7043           07055                           TC       POS2
000607: 34,7044           07075                           TC       POS3
000608: 34,7045           07121                           TC       POS4
000609: 34,7046           05654                           TC       BANKCALL
000610: 34,7047           24076                           CADR     POSNRETN
000611:
000612: 34,7050           44516        POS1               CS       ONE
000613: 34,7051           51226                           TS       PIPNDX
000614: 34,7052           45503                           CS       TWO
000615: 34,7053           51227                           TS       PIPNDX     +1
000616: 34,7054           07046                           TC       POS1       -2
000617:
000618:
000619:
000620: 34,7055           04000        POS2               TC       INTPRET
000621: 34,7056           75175                           VMOVE    1
000622: 34,7057           47176                           COMP
000623: 34,7060           01425                                    XSM
000624: 34,7061           75176                           VMOVE    0
000625: 34,7062           01441                                    ZSM
000626: 34,7063           33425                           STORE    XSM
000627: 34,7064           75176                           VMOVE    0
000628: 34,7065           77777                                    -
000629: 34,7066           33441                           STORE    ZSM
000630: 34,7067           77576                           EXIT     0
000631: 34,7070           45501                           CS       ZERO
000632: 34,7071           51226                           TS       PIPNDX
000633: 34,7072           44516                           CS       ONE
000634: 34,7073           51227                           TS       PIPNDX     +1
000635: 34,7074           07046                           TC       POS1       -2
000636:
000637:
000638:
000639: 34,7075           04000        POS3               TC       INTPRET
000640: 34,7076           75176                           VMOVE    0
000641: 34,7077           01425                                    XSM
000642: 34,7100           75176                           VMOVE    0
000643: 34,7101           01441                                    ZSM
000644: 34,7102           75176                           VMOVE    0
000645: 34,7103           01433                                    YSM
000646: 34,7104           33441                           STORE    ZSM
000647: 34,7105           75176                           VMOVE    0
000648: 34,7106           77777                                    -
000649: 34,7107           33425                           STORE    XSM
000650: 34,7110           75176                           VMOVE    0
000651: 34,7111           77777                                    -
000652: 34,7112           33433                           STORE    YSM
000653: 34,7113           77576                           EXIT     0
000654: 34,7114           45501                           CS       ZERO
000655: 34,7115           51226                           TS       PIPNDX
000656: 34,7116           45503                           CS       TWO
000657: 34,7117           51227                           TS       PIPNDX     +1
000658: 34,7120           07046                           TC       POS1       -2
000659:
000660:
000661: 34,7121           04000        POS4               TC       INTPRET
000662: 34,7122           41775                           VXV      1
000663: 34,7123           73176                           UNIT
000664: 34,7124           01433                                    YSM
000665: 34,7125           01441                                    ZSM
000666: 34,7126           33425                           STORE    XSM
000667: 34,7127           77576                           EXIT     0
000668: 34,7130           07046                           TC       POS1       -2
000669:
000670:
000671:
000672: 34,7131           37741        NBPOSPL            CAF      MTRXLD
000673: 34,7132           50034                           TS       OVCTR                                 #  ZERO STARAD
000674: 34,7133           35501                           CAF      ZERO
000675: 34,7134           20034                           INDEX    OVCTR
000676: 34,7135           51402                           TS       STARAD
000677: 34,7136           10034                           CCS      OVCTR
000678: 34,7137           07132                           TC       NBPOSPL    +1
000679:
000680: 34,7140           04000                           TC       INTPRET                               #  SETS UP AZIMUTH AND VERTICAL VECTORS
000681: 34,7141           76576                           RTB      0                                     #  FOR AXISGEN,RESULTS TO BE USED IN CALCGA
000682: 34,7142           20270                                    ZEROVAC                               #  TO COMPUTE COARSE ALIGN ANGLES
000683: 34,7143           53575                           AXC,1    1
000684: 34,7144           57557                           XSU,1    VMOVE*
000685: 34,7145           31671                                    SCNBAZ
000686: 34,7146           01232                                    NBPOS
000687: 34,7147           00001                                    0,1
000688: 34,7150           33403                           STORE    STARAD                                #  AZIMUTH IN NB COORDS
000689: 34,7151           53575                           AXC,1    1
000690: 34,7152           57557                           XSU,1    VMOVE*
000691: 34,7153           31711                                    SCNBVER
000692: 34,7154           01232                                    NBPOS
000693: 34,7155           00001                                    0,1
000694: 34,7156           33411                           STORE    STARAD     +6                         #  VERTICAL IN NB COORDS
000695: 34,7157           55175                           COS      1
000696: 34,7160           47176                           COMP
000697: 34,7161           01317                                    AZIMUTH
000698: 34,7162           32011                           STORE    8D
000699:
000700: 34,7163           57176                           SIN      0
000701: 34,7164           01317                                    AZIMUTH
000702: 34,7165           32013                           STORE    10D                                   #  AZIMUTH IN CER
000703: 34,7166           75176                           VMOVE    0
000704: 34,7167           31717                                    LABNBVER
000705: 34,7170           32015                           STORE    12D                                   #   VERTICAL IN CER
000706: 34,7171           76776                           ITC      0
000707: 34,7172           04761                                    AXISGEN
000708:
000709: 34,7173           75176                           VMOVE    0
000710: 34,7174           01477                                    XDC
000711: 34,7175           33403                           STORE    STARAD
000712:
000713: 34,7176           75176                           VMOVE    0
000714: 34,7177           01505                                    YDC
000715: 34,7200           33411                           STORE    STARAD     +6
000716:
000717: 34,7201           75176                           VMOVE    0
000718: 34,7202           01513                                    ZDC
000719: 34,7203           33417                           STORE    STARAD     +12D
000720: 34,7204           77576                           EXIT     0
000721: 34,7205           05654                           TC       BANKCALL
000722: 34,7206           25513                           CADR     POSSET
000723:
000724:
000725: 34,7207           11232        RESULTS            CCS      TESTNDX
000726: 34,7210           07241                           TC       CDUCALC
000727: 34,7211           07260                           TC       PIPCALC
000728: 34,7212           07241                           TC       CDUCALC
000729: 34,7213           41246        SFCALC             CS       DATAPL     +4
000730: 34,7214           61252                           AD       DATAPL     +8D
000731: 34,7215           51242                           TS       DATAPL
000732:
000733: 34,7216           04000                           TC       INTPRET
000734: 34,7217           54775                           TSU      1
000735: 34,7220           63631                           TSLT     ROUND
000736: 34,7221           01254                                    DATAPL     +9D
000737: 34,7222           01250                                    DATAPL     +5
000738: 34,7223           00017                                    14D
000739: 34,7224           43174                           SMOVE    2
000740: 34,7225           64712                           DMP      DDV
000741: 34,7226           76576                           RTB
000742: 34,7227           01243                                    DATAPL
000743: 34,7230           31743                                    DC585
000744: 34,7231           00001                                    0
000745: 34,7232           20403                                    SGNAGREE
000746: 34,7233           32622                           STORE    DSPTEM2
000747: 34,7234           77576                           EXIT     0
000748: 34,7235           03310                           TC       GRABDSP
000749: 34,7236           03316                           TC       PREGBSY
000750: 34,7237           05654                           TC       BANKCALL
000751: 34,7240           25256                           CADR     FINISH
000752:
000753:
000754: 34,7241           04000        CDUCALC            TC       INTPRET
000755: 34,7242           66774                           DSU      2
000756: 34,7243           61722                           BDDV     DMP
000757: 34,7244           76576                           RTB
000758: 34,7245           01245                                    DATAPL     +2
000759: 34,7246           01243                                    DATAPL
000760: 34,7247           01215                                    GENPL      +76D
000761: 34,7250           31745                                    ERUNITS                               #  2DEC.66666
000762: 34,7251           20403                                    SGNAGREE
000763: 34,7252           32622                           STORE    DSPTEM2
000764: 34,7253           77576                           EXIT     0
000765:
000766: 34,7254           03310                           TC       GRABDSP
000767: 34,7255           03316                           TC       PREGBSY
000768: 34,7256           05654                           TC       BANKCALL
000769: 34,7257           25256                           CADR     FINISH
000770:
000771:
000772: 34,7260           04000        PIPCALC            TC       INTPRET
000773: 34,7261           76576                           RTB      0
000774: 34,7262           20264                                    FRESHPD
000775: 34,7263           54775                           TSU      1
000776: 34,7264           63631                           TSLT     ROUND
000777: 34,7265           01105                                    GENPL      +4
000778: 34,7266           01244                                    DATAPL     +1
000779: 34,7267           00014                                    11D
000780: 34,7270           51176                           DSQ      0
000781: 34,7271           00001                                    0                                     #  T1(2) IN 2,3
000782: 34,7272           64775                           DMP      1
000783: 34,7273           41176                           VDEF
000784: 34,7274           00001                                    0
000785: 34,7275           00003                                    2
000786: 34,7276           33132                           STORE    GENPL      +25D
000787: 34,7277           54775                           TSU      1
000788: 34,7300           63631                           TSLT     ROUND
000789: 34,7301           01112                                    GENPL      +9D
000790: 34,7302           01244                                    DATAPL     +1
000791: 34,7303           00014                                    11D
000792: 34,7304           51176                           DSQ      0
000793: 34,7305           00001                                    0
000794: 34,7306           64775                           DMP      1                                     #  T2(2) IN 6
000795: 34,7307           41176                           VDEF
000796: 34,7310           00001                                    0
000797: 34,7311           00003                                    2
000798: 34,7312           33140                           STORE    GENPL      +31D
000799: 34,7313           54775                           TSU      1
000800: 34,7314           63631                           TSLT     ROUND
000801: 34,7315           01117                                    GENPL      +14D
000802: 34,7316           01244                                    DATAPL     +1D
000803: 34,7317           00014                                    11D
000804: 34,7320           51176                           DSQ      0
000805: 34,7321           00001                                    0
000806: 34,7322           64775                           DMP      1
000807: 34,7323           41176                           VDEF
000808: 34,7324           00001                                    0
000809: 34,7325           00003                                    2
000810: 34,7326           33146                           STORE    GENPL      +37D
000811: 34,7327           41775                           VXV      1
000812: 34,7330           42776                           DOT
000813: 34,7331           01140                                    GENPL      +31D
000814: 34,7332           01146                                    GENPL      +37D
000815: 34,7333           01132                                    GENPL      +25D
000816: 34,7334           33156                           STORE    GENPL      +45D                       #  D2
000817: 34,7335           45176                           DMOVE    0
000818: 34,7336           01110                                    GENPL      +7
000819: 34,7337           33132                           STORE    GENPL      +25D
000820: 34,7340           45176                           DMOVE    0
000821: 34,7341           01115                                    GENPL      +12D
000822: 34,7342           33140                           STORE    GENPL      +31D
000823: 34,7343           45176                           DMOVE    0
000824: 34,7344           01122                                    GENPL      +17D
000825: 34,7345           33146                           STORE    GENPL      +37D
000826: 34,7346           41774                           VXV      2
000827: 34,7347           42712                           DOT      DDV
000828: 34,7350           64771                           DMP      RTB
000829: 34,7351           01140                                    GENPL      +31D
000830: 34,7352           01146                                    GENPL      +37D
000831: 34,7353           01132                                    GENPL      +25D
000832: 34,7354           01156                                    GENPL      +45D
000833: 34,7355           31747                                    ERUNITS2
000834: 34,7356           20403                                    SGNAGREE
000835: 34,7357           32622                           STORE    DSPTEM2
000836: 34,7360           77576                           EXIT     0
000837: 34,7361           03310                           TC       GRABDSP
000838: 34,7362           03316                           TC       PREGBSY
000839: 34,7363           05654                           TC       BANKCALL
000840: 34,7364           25256                           CADR     FINISH
000841:
000842:
000843: 34,7365           04000        CHKCALC            TC       INTPRET
000844: 34,7366           76575                           RTB      1
000845: 34,7367           76576                           RTB
000846: 34,7370           20270                                    ZEROVAC
000847: 34,7371           20264                                    FRESHPD
000848: 34,7372           54775                           TSU      1
000849: 34,7373           63631                           TSLT     ROUND
000850: 34,7374           01264                                    DATAPL     +17D
000851: 34,7375           01245                                    DATAPL     +2
000852: 34,7376           00015                                    12D
000853: 34,7377           66774                           DSU      2
000854: 34,7400           63722                           TSLT     DMP
000855: 34,7401           62776                           DDV
000856: 34,7402           01262                                    DATAPL     +15D
000857: 34,7403           01243                                    DATAPL
000858: 34,7404           00015                                    12D
000859: 34,7405           31743                                    DC585                                 #  GZ IN 0,1
000860: 34,7406           54775                           TSU      1
000861: 34,7407           63631                           TSLT     ROUND
000862: 34,7410           01271                                    DATAPL     +22D
000863: 34,7411           01252                                    DATAPL     +7
000864: 34,7412           00015                                    12D
000865: 34,7413           66774                           DSU      2
000866: 34,7414           63722                           TSLT     DMP
000867: 34,7415           62776                           DDV
000868: 34,7416           01267                                    DATAPL     +20D
000869: 34,7417           01250                                    DATAPL     +5
000870: 34,7420           00015                                    12D
000871: 34,7421           31743                                    DC585                                 #  GY IN 2,3
000872: 34,7422           54775                           TSU      1
000873: 34,7423           63631                           TSLT     ROUND
000874: 34,7424           01276                                    DATAPL     +27D
000875: 34,7425           01257                                    DATAPL     +12D
000876: 34,7426           00015                                    12D
000877: 34,7427           33216                           STORE    TESTTIME
000878: 34,7430           66774                           DSU      2
000879: 34,7431           63722                           TSLT     DMP
000880: 34,7432           62603                           DDV      VDEF
000881: 34,7433           01274                                    DATAPL     +25D
000882: 34,7434           01255                                    DATAPL     +10D
000883: 34,7435           00015                                    12D
000884: 34,7436           31743                                    DC585
000885: 34,7437           01216                                    TESTTIME                              #  G IN 0,1,2,3,4,5
000886: 34,7440           71175                           ABVAL    1
000887: 34,7441           63771                           TSLT     RTB
000888: 34,7442           00001                                    0
000889: 34,7443           00002                                    1
000890: 34,7444           20403                                    SGNAGREE
000891: 34,7445           32622                           STORE    DSPTEM2
000892: 34,7446           77576                           EXIT     0
000893: 34,7447           03310                           TC       GRABDSP
000894: 34,7450           03316                           TC       PREGBSY
000895: 34,7451           05654                           TC       BANKCALL
000896: 34,7452           25205                           CADR     SHOW
000897:
000898: 34,7453           04000                           TC       INTPRET
000899: 34,7454           45176                           DMOVE    0
000900: 34,7455           01303                                    DATAPL     +32D
000901: 34,7456           45176                           DMOVE    0
000902: 34,7457           01301                                    DATAPL     +30D
000903: 34,7460           45174                           DMOVE    2
000904: 34,7461           41153                           VDEF     UNIT
000905: 34,7462           44776                           VSLT
000906: 34,7463           01255                                    DATAPL     +10D
000907: 34,7464           00002                                    1                                     #  V1 IN 6,7,8,9,10,11
000908: 34,7465           45176                           DMOVE    0
000909: 34,7466           01307                                    DATAPL     +36D
000910: 34,7467           45176                           DMOVE    0
000911: 34,7470           01305                                    DATAPL     +34D
000912: 34,7471           45174                           DMOVE    2
000913: 34,7472           41153                           VDEF     UNIT
000914: 34,7473           44776                           VSLT
000915: 34,7474           01274                                    DATAPL     +25D
000916: 34,7475           00002                                    1                                     #  V2 IN 12,13,14,15,1 ,17
000917:
000918: 34,7476           41773                           VXV      3
000919: 34,7477           71116                           ABVAL    TSLT
000920: 34,7500           62722                           DDV      DMP
000921: 34,7501           76576                           RTB
000922: 34,7502           00007                                    6
000923: 34,7503           00015                                    12D
000924: 34,7504           00002                                    1
000925: 34,7505           01216                                    TESTTIME
000926: 34,7506           31753                                    ERUNITS1
000927: 34,7507           20403                                    SGNAGREE
000928: 34,7510           32622                           STORE    DSPTEM2
000929: 34,7511           77576                           EXIT     0
000930:
000931: 34,7512           05654                           TC       BANKCALL
000932: 34,7513           25205                           CADR     SHOW
000933: 34,7514           06237                           TC       ENDTEST1
000934:
000935:
000936: 34,7515           05706        STOPHOR            TC       MAKECADR
000937: 34,7516           51573                           TS       RETAA
000938: 34,7517           04000                           TC       INTPRET
000939: 34,7520           76776                           ITC      0
000940: 34,7521           30613                                    EARTHR
000941: 34,7522           76776                           ITC      0
000942: 34,7523           30634                                    OUTGYR
000943: 34,7524           77576                           EXIT     0
000944: 34,7525           05654                           TC       BANKCALL
000945: 34,7526           30331                           CADR     IMUSTALL
000946: 34,7527           06237                           TC       ENDTEST1
000947: 34,7530           31573                           XCH      RETAA
000948: 34,7531           05723                           TC       BANKJUMP
000949:
000950:
000951: 34,7532           05706        SCRINTP            TC       MAKECADR
000952: 34,7533           51573                           TS       RETAA
000953: 34,7534           04000                           TC       INTPRET
000954: 34,7535           47575                           NOLOD    1
000955: 34,7536           54776                           TSU
000956: 34,7537           01250                                    DATAPL     +5
000957: 34,7540           32001                           STORE    0                                     #  T1:T0
000958:
000959: 34,7541           47575                           NOLOD    1
000960: 34,7542           60776                           TAD
000961: 34,7543           01250                                    DATAPL     +5
000962: 34,7544           33250                           STORE    DATAPL     +5                         #  TN
000963:
000964: 34,7545           77174                           TMOVE    2
000965: 34,7546           63631                           TSLT     ROUND
000966: 34,7547           64742                           DMP      DAD
000967: 34,7550           00001                                    0
000968: 34,7551           00015                                    12D
000969: 34,7552           01101                                    GENPL
000970: 34,7553           01103                                    GENPL      +2
000971: 34,7554           33103                           STORE    GENPL      +2
000972: 34,7555           77576                           EXIT     0
000973:
000974: 34,7556           11220                           CCS      COUNTPL
000975: 34,7557           07574                           TC       SUMSUM1
000976:
000977: 34,7560           04000                           TC       INTPRET
000978: 34,7561           71576                           LXC,1    0
000979: 34,7562           01225                                    RESULTCT                              #  FIRST=4
000980: 34,7563           77176                           TMOVE    0                                     #  SECOND=9
000981: 34,7564           01250                                    DATAPL     +5
000982: 34,7565           36201                           STORE    GENPL,1
000983: 34,7566           45176                           DMOVE    0
000984: 34,7567           01103                                    GENPL      +2
000985: 34,7570           36207                           STORE    GENPL      +3,1
000986: 34,7571           77576                           EXIT     0
000987: 34,7572           31573                           XCH      RETAA
000988: 34,7573           05723                           TC       BANKJUMP
000989:
000990:
000991:
000992: 34,7574           05654        SUMSUM1            TC       BANKCALL
000993: 34,7575           25456                           CADR     SUMSUM
000994:
000995:
000996: 34,7576           04000        FALNED1            TC       INTPRET
000997: 34,7577           76776                           ITC      0
000998: 34,7600           30573                                    ALGNINIT
000999: 34,7601           77576                           EXIT     0
001000: 34,7602           11232                           CCS      TESTNDX
001001: 34,7603           07666                           TC       LABTEST1
001002: 34,7604           07606                           TC       +2
001003: 34,7605           07606                           TC       +1
001004: 34,7606           05654                           TC       BANKCALL
001005: 34,7607           25331                           CADR     OGCZERO
001006: 34,7610           05654                           TC       BANKCALL
001007: 34,7611           25343                           CADR     FLTRZERO
001008: 34,7612           34510        FRECT              CAF      BIT7
001009: 34,7613           51230                           TS       STOREPL
001010: 34,7614           35501                           CAF      ZERO                                  #  VERTICAL ERECTION BY NULLING PIPAS
001011: 34,7615           50044                           TS       PIPAX
001012: 34,7616           50045                           TS       PIPAY
001013: 34,7617           50046                           TS       PIPAZ
001014: 34,7620           33240        WARTNEW            CAF      TEN                                   #  CALL A SPADE A SPADE...HOMER
001015: 34,7621           51220                           TS       COUNTPL
001016: 34,7622           20017                           INHINT
001017: 34,7623           33544                           CAF      50DEC
001018: 34,7624           02173                           TC       WAITLIST
001019: 34,7625           71631                           CADR     WARTNEW1
001020: 34,7626           37630                           CAF      WART2ADR
001021: 34,7627           02127                           TC       JOBSLEEP
001022: 34,7630           71634        WART2ADR           CADR     WART2NEW
001023: 34,7631           37630        WARTNEW1           CAF      WART2ADR
001024: 34,7632           02060                           TC       JOBWAKE
001025: 34,7633           02256                           TC       TASKOVER
001026: 34,7634           04000        WART2NEW           TC       INTPRET
001027: 34,7635           76576                           RTB      0
001028: 34,7636           20345                                    READPIPS
001029: 34,7637           33002                           STORE    DELVX
001030: 34,7640           76776                           ITC      0
001031: 34,7641           30715                                    TJLAL
001032: 34,7642           77576                           EXIT     0
001033: 34,7643           11220                           CCS      COUNTPL
001034: 34,7644           07621                           TC       WARTNEW    +1
001035: 34,7645           04000                           TC       INTPRET
001036: 34,7646           75175                           VMOVE    1
001037: 34,7647           76776                           ITC
001038: 34,7650           01115                                    FILDELX
001039: 34,7651           31000                                    VERTRECT
001040: 34,7652           76776                           ITC      0
001041: 34,7653           30613                                    EARTHR
001042: 34,7654           76776                           ITC      0
001043: 34,7655           30634                                    OUTGYR
001044: 34,7656           77576                           EXIT     0
001045: 34,7657           05654                           TC       BANKCALL
001046: 34,7660           30331                           CADR     IMUSTALL
001047: 34,7661           06237                           TC       ENDTEST1
001048:
001049: 34,7662           11230                           CCS      STOREPL
001050: 34,7663           07613                           TC       FRECT      +1
001051: 34,7664           05654                           TC       BANKCALL
001052: 34,7665           24721                           CADR     TSTJUMP
001053:
001054:
001055:
001056: 34,7666           05654        LABTEST1           TC       BANKCALL
001057: 34,7667           24751                           CADR     LABTEST
001058:
001059:
001060: 34,7670           67222 51710  SCNBAZ             2DEC     -.27232                               #  AZIMUTH OF NB IS ERAD IN AS Z AXIS EAST
001061: 34,7672           00000 00000                     2DEC     0          B-28
001062: 34,7674           15327 37747                     2DEC     .4194335
001063: 34,7676           00000 00000  LABNBAZ            2DEC     0          B-28
001064: 34,7700           00000 00000                     2DEC     0          B-28
001065: 34,7702           20000 00000                     2DEC     .5
001066: 34,7704           00000 00000  LABNBAZ1           2DEC     0          B-28
001067: 34,7706           00000 00000                     2DEC     0          B-28
001068: 34,7710           15327 37747  SCNBVER            2DEC     .4194335
001069: 34,7712           00000 00000                     2DEC     0          B-28
001070: 34,7714           10555 26067                     2DEC     .27232
001071: 34,7716           20000 00000  LABNBVER           2DEC     .5
001072: 34,7720           00000 00000                     2DEC     0          B-28
001073: 34,7722           00000 00000                     2DEC     0          B-28
001074: 34,7724           00000 00000  LBNBVER1           2DEC     0          B-28
001075: 34,7726           57777 77777                     2DEC     -.5
001076: 34,7730           00666        V06N66E            OCT      00666
001077: 34,7731           00130        V01N30E            OCT      00130
001078: 34,7732           03711 33265  OMEG/MS            2DEC     .12169524
001079: 34,7734           24365 30244  SCALFTR            2DEC     .64
001080: 34,7736           24000        INTCON1            DEC      40         B+8
001081: 34,7737           00000                           DEC      0          B-14
001082: 34,7740           01100        FLNDX              ADRES    GENPL
001083: 34,7741           00021        MTRXLD             DEC      17         B-14
001084: 34,7742           01111 00000  DC585              2DEC     585        B+14
001085: 34,7744           00406 36355  ERUNITS            2DEC     4308205    B-28                       #  CONSTANT CORRECTED FOR SIDEREAL RATE
001086: 34,7746           00002 12725  ERUNITS2           2DEC     38357      B-28
001087: 34,7750           03146 14632  VRECTC3            2DEC     .1
001088: 34,7752           00051 33163  ERUNITS1           2DEC     685683     B-28
001089:
001090:
001091: 34,7754           76576        ERTHRVEN           RTB      0
001092: 34,7755           20270                                    ZEROVAC
001093: 34,7756           55176                           COS      0
001094: 34,7757           01315                                    LATITUDE
001095: 34,7760           45176                           DMOVE    0
001096: 34,7761           05174                                    ZERODP
001097: 34,7762           57175                           SIN      1
001098: 34,7763           41166                           VDEF     VXSC
001099: 34,7764           01315                                    LATITUDE
001100: 34,7765           31733                                    OMEG/MS
001101: 34,7766           33177                           STORE    VMARK
001102: 34,7767           40576                           ITCQ     0

End of include-file IMU_PERFORMANCE_TESTS_2.agc.  Parent file is MAIN.agc


