
Source Code


000002:                                                                                                  ## Copyright:   Public domain.
000003:                                                                                                  ## Filename:    IMU_COMPENSATION_PACKAGE.agc
000004:                                                                                                  ## Purpose:     A section of Corona revision 261.
000005:                                                                                                  ##              It is part of the source code for the Apollo Guidance Computer
000006:                                                                                                  ##              (AGC) for AS-202. No original listings of this software are
000007:                                                                                                  ##              available; instead, this file was created via disassembly of
000008:                                                                                                  ##              the core rope modules actually flown on the mission.
000009:                                                                                                  ## Assembler:   yaYUL
000010:                                                                                                  ## Contact:     Ron Burkey <info@sandroid.org>.
000011:                                                                                                  ## Website:     www.ibiblio.org/apollo/index.html
000012:                                                                                                  ## Mod history: 2023-05-27 MAS  Created from Solarium 55.
000013:                                                                                                  ##              2023-06-17 MAS  Updated for Corona.
000014:
000015:
000016:                                                                                                  #        THE FOLLWOING ROUTINE IS DESIGNED TO COMPENSATE FOR PIPA BIAS AND SCALE FACTOR ERROR. ATTHE SAME TIME,
000017:                                                                                                  #  IT ACCUMULATES GYRO TORQUE COMMANDS NECESSARY TO COMPENSATE FOR THE ASSOCIATED BIAS AND ACCELERATION-CAUSED GYRO
000018:                                                                                                  #  DRIFTS. THIS ROUTINE EXPECTS TO FIND PIPA READINGS IN THE MAJOR PARTS OF DELV (DELVX, DELVY, DELVZ), WITH THE
000019:                                                                                                  #  MINOR PARTS IRRELEVANT. OUTPUT FROM 1/PIPA IS DOUBLE PRECISION COMPENSATED DATA, THE MINOR PART OF WHICH USUALLY
000020:                                                                                                  #  CONTAINS ALL THE COMPENSATION. 1/PIPA MUST BE CALLED AT LEAST EVERY 2.56 SECONDS, DUE TO SCALING CONSIDERATIONS.
000021:                                                                                                  #  SPECIFICALLY, THE CORRECTION IS:
000022:
000023:                                                                                                  #        PIPA  = PIPA (1 + SCALE FACTOR ERROR) - BIAS DELTAT
000024:                                                                                                  #            C       I
000025:
000026:                                                                                                  #  WHERE PIPA  IS THE COMPENSATED DATA OBTAINED FROM THE SAMPLED PIPA .
000027:                                                                                                  #            C                                                       I
000028:
000029:
000030:
000031: 14,7007                                           BANK     14
000032: 14,7007           35502        1/PIPA             CAF      FOUR                                  #  LOOP TO PROCESS INPUT PIPA DATA.
000033: 14,7010           50101                 +1        TS       BUF        +2
000034: 14,7011           20000                           INDEX    A
000035: 14,7012           41001                           CS       DELVX                                 #  SAMPLED PIPA INTO MPAC
000036: 14,7013           50115                           TS       MPAC
000037: 14,7014           20101                           INDEX    BUF        +2                         #  SUBTRACT BIAS TERM (LESS THAN 1 BIT).
000038: 14,7015           40736                           CS       PIPABIAS
000039: 14,7016           25777                           EXTEND
000040: 14,7017           40755                           MP       1/PIPADT                              #  SUPPLIED BY USER SCALED AT CS 2(-8),
000041: 14,7020           50116                           TS       MPAC       +1
000042:
000043: 14,7021           40115                           CS       MPAC                                  #  SHIFT THE PIPA READING LEFT THREE PLACES
000044: 14,7022           50115                           TS       MPAC
000045: 14,7023           25777                           EXTEND                                         #  IN PREPARATION FOR SCALE FACTOR
000046: 14,7024           44513                           MP       BIT4                                  #  CORRECTION. IF IT OVERFLOWS, SHIFT THE
000047: 14,7025           10000                           CCS      A                                     #  SCALE FACTOR ERROR RIGHT 11 PLACES
000048: 14,7026           07205                           TC       PIPOVF                                #  TAKING A LOSS IN PRECISION.
000049:
000050: 14,7027           07031                           TC       +2                                    #  THE ABOVE HAPPENS AT DELTA VS OF OVER
000051: 14,7030           07205                           TC       PIPOVF                                #  12 G-SECS., RESULTING IN A SCALE FACTOR
000052: 14,7031           20101                           INDEX    BUF        +2                         #  CORRECTION GOOD ONLY TO 60 PPM.
000053: 14,7032           40737                           CS       PIPASCF
000054: 14,7033           25777                           EXTEND
000055: 14,7034           40003                           MP       LP
000056: 14,7035           60116                           AD       MPAC       +1                         #  ADD TO BIAS CORRECTION.
000057: 14,7036           20101                           INDEX    BUF        +2
000058: 14,7037           51002                           TS       DELVX      +1                         #  AND MAYBE SKIP.
000059: 14,7040           35501                           CAF      ZERO
000060:
000061: 14,7041           60115                           AD       MPAC
000062: 14,7042           20101                           INDEX    BUF        +2
000063: 14,7043           51001                           TS       DELVX
000064:
000065: 14,7044           10101        PIPJUMP            CCS      BUF        +2                         #  LOOP TO PROCESS NEXT COMPONENT.
000066: 14,7045           64335                           AD       NEG1
000067: 14,7046           07010                           TC       1/PIPA     +1
000068: 14,7047           00756        LGCOMP             ADRES    GCOMP
000069:
000070:
000071:                                                                                                  #        THE FOLLOWING ROUTINE COMPUTES THE GYRO TORQUES NECESSARY TO COMPENSATE FOR THE ACCELERATION-SENSITIVE
000072:                                                                                                  #  DRIFTS DUE TO THE DATA JUST PROCESSED, AND SUMS THEM INTO THE GCOMP REGISTERS.
000073:
000074: 14,7050           50101                           TS       GCOMPSW                               #  SET GYRO TORQUE INDICATOR TO ZERO.
000075: 14,7051           50077                           TS       BUF                                   #  RELATIVE ADDRESS OF PRESENT COMPONENT.
000076:
000077: 14,7052           41001                           CS       DELVX                                 #  PROCESS X COMPONENT.
000078: 14,7053           50115                           TS       MPAC
000079: 14,7054           41002                           CS       DELVX      +1
000080: 14,7055           50116                           TS       MPAC       +1
000081: 14,7056           40747                           CS       ADIAX
000082: 14,7057           07134                           TC       GCOMPSUB   -1
000083:
000084: 14,7060           41003                           CS       DELVY
000085: 14,7061           50115                           TS       MPAC
000086: 14,7062           41004                           CS       DELVY      +1
000087: 14,7063           50116                           TS       MPAC       +1
000088: 14,7064           40752                           CS       ADSRAX
000089: 14,7065           07135                           TC       GCOMPSUB
000090:
000091: 14,7066           40744                           CS       GBIASX                                #  ADD IN BIAS DRIFTS.
000092: 14,7067           07160                           TC       DRIFTSUB
000093:
000094: 14,7070           41003                           CS       DELVY                                 #  COMPUTE Y GYRO COMPENSATION.
000095: 14,7071           50115                           TS       MPAC
000096: 14,7072           41004                           CS       DELVY      +1
000097: 14,7073           50116                           TS       MPAC       +1
000098: 14,7074           40750                           CS       ADIAY
000099: 14,7075           07134                           TC       GCOMPSUB   -1
000100:
000101: 14,7076           41005                           CS       DELVZ
000102: 14,7077           50115                           TS       MPAC
000103: 14,7100           41006                           CS       DELVZ      +1
000104: 14,7101           50116                           TS       MPAC       +1
000105: 14,7102           40753                           CS       ADSRAY
000106: 14,7103           07135                           TC       GCOMPSUB
000107:
000108: 14,7104           40745                           CS       GBIASY
000109: 14,7105           07160                           TC       DRIFTSUB
000110:
000111: 14,7106           41003                           CS       DELVY                                 #  CORRESPONDING PATTERN FOR Z GYRO.
000112: 14,7107           50115                           TS       MPAC
000113: 14,7110           41004                           CS       DELVY      +1
000114: 14,7111           50116                           TS       MPAC       +1
000115: 14,7112           40754                           CS       ADSRAZ
000116: 14,7113           07134                           TC       GCOMPSUB   -1
000117:
000118: 14,7114           41005                           CS       DELVZ
000119: 14,7115           50115                           TS       MPAC
000120: 14,7116           41006                           CS       DELVZ      +1
000121: 14,7117           50116                           TS       MPAC       +1
000122: 14,7120           40751                           CS       ADIAZ
000123: 14,7121           07134                           TC       GCOMPSUB   -1
000124:
000125: 14,7122           40746                           CS       GBIASZ
000126: 14,7123           07160                           TC       DRIFTSUB
000127:
000128: 14,7124           10101                           CCS      GCOMPSW                               #  NON-ZERO IF TIME TO PUT OUT COMPENSATION
000129: 14,7125           07127                           TC       +2
000130: 14,7126           05702                           TC       SWRETURN                              #  TORQUES NOT BIG ENOUGH YET.
000131:
000132: 14,7127           20017                           INHINT
000133: 14,7130           32170                           CAF      PRIO35                                #  REQUEST COMPENSATION JOB
000134: 14,7131           02052                           TC       NOVAC
000135: 14,7132           31225                           CADR     1/GYRO
000136:
000137: 14,7133           06020                           TC       MODEEXIT                              #  RELINT AND RETURN TO SWRETURN.
000138:
000139:
000140:                                                                                                  #        SUBROUTINES USED TO ACCUMULATE GYRO COMPENSATION COMMANDS.
000141:
000142: 14,7134           40000                 -1        COM                                            #  (ENTERS HERE TO RE-COMPLEMENT INPUT).
000143: 14,7135           30116        GCOMPSUB           XCH      MPAC       +1                         #  DOES DP BY SINGLE MULTIPLY WITH DP ADD
000144: 14,7136           25777                           EXTEND                                         #  TO STORAGE.
000145: 14,7137           40116                           MP       MPAC       +1
000146: 14,7140           30116                           XCH      MPAC       +1
000147: 14,7141           25777                           EXTEND
000148: 14,7142           40115                           MP       MPAC
000149: 14,7143           50034                           TS       OVCTR
000150: 14,7144           30003                           XCH      LP
000151: 14,7145           60116                           AD       MPAC       +1                         #  (AND MAYBE INCREMENT OVCTR).
000152:
000153: 14,7146           20077        BIASCOMP           INDEX    BUF                                   #  BIAS COMPENSATION ENTERS HERE.
000154: 14,7147           60757                           AD       GCOMP      +1
000155: 14,7150           20077                           INDEX    BUF
000156: 14,7151           30757                           XCH      GCOMP      +1
000157: 14,7152           30034                           XCH      OVCTR
000158: 14,7153           20077                           INDEX    BUF
000159: 14,7154           60756                           AD       GCOMP
000160: 14,7155           20077                           INDEX    BUF
000161: 14,7156           50756                           TS       GCOMP
000162:
000163: 14,7157           00001                           TC       Q
000164:
000165:
000166:                                                                                                  #        SUBROUTINE WHICH ADDS IN GYRO BIAS DRIFT, TESTS TORQUE SIZE TO SEE IF COMMANDS SHOULD BE PUT OUT, AND
000167:                                                                                                  #  ADVANCES GCOMP POINTER.
000168:
000169: 14,7160           30001        DRIFTSUB           XCH      Q
000170: 14,7161           50100                           TS       BUF        +1
000171: 14,7162           30001                           XCH      Q
000172: 14,7163           25777                           EXTEND
000173: 14,7164           40755                           MP       1/PIPADT
000174: 14,7165           25777                           EXTEND                                         #  RESULT WAS IN GYRO PULSES X 2(+2).
000175: 14,7166           45502                           MP       FOUR                                  #  RE-SCALE TO ADD INTO GCOMP REGISTER.
000176: 14,7167           50034                           TS       OVCTR
000177: 14,7170           30003                           XCH      LP                                    #  GO TO STANDARD INCREMENT ROUTINE.
000178: 14,7171           07146        DRFTSUB2           TC       BIASCOMP
000179:
000180: 14,7172           35503                           CAF      TWO                                   #  INCREMENT POINTER AND
000181: 14,7173           60077                           AD       BUF
000182: 14,7174           30077                           XCH      BUF                                   #  CHECK MAGNITUDE OF TORQUE COMMAND. IF
000183: 14,7175           20000                           INDEX    A                                     #  SUFFICIENTLY LARGE, SET GCOMPSW PNZ TO
000184: 14,7176           10756                           CCS      GCOMP                                 #  CALL FOR COMPENSATION JOB, 1/GYRO.
000185: 14,7177           07201                           TC       +2                                    #  GETS DABS OF COMMAND.
000186: 14,7200           00100                           TC       BUF        +1
000187:
000188: 14,7201           77246                           MASK     COMPCHK
000189: 14,7202           10000                           CCS      A
000190: 14,7203           50101                           TS       GCOMPSW
000191: 14,7204           00100                           TC       BUF        +1                         #  RETURN.
000192:
000193:
000194:                                                                                                  #        (1/PIPA COMES HERE IF PIPA COUNTER SHOWED A DELTA V OF OVER 12 G-SEC.)
000195:
000196: 14,7205           20101        PIPOVF             INDEX    BUF        +2                         #  SHIFT THE SCALE FACTOR RIGHT 11 ON OVF.
000197: 14,7206           40737                           CS       PIPASCF
000198: 14,7207           25777                           EXTEND
000199: 14,7210           44513                           MP       BIT4
000200: 14,7211           25777                           EXTEND                                         #  FORM DP INCREMENT TO DELV IN THIS CASE.
000201: 14,7212           40115                           MP       MPAC
000202: 14,7213           50034                           TS       OVCTR
000203:
000204: 14,7214           30003                           XCH      LP
000205: 14,7215           60116                           AD       MPAC       +1                         #  MAYBE INCREMENTING OVCTR.
000206: 14,7216           20101                           INDEX    BUF        +2
000207: 14,7217           31002                           XCH      DELVX      +1                         #  NO SKIP SINCE OVCTR SET.
000208: 14,7220           30034                           XCH      OVCTR
000209: 14,7221           60115                           AD       MPAC
000210: 14,7222           20101                           INDEX    BUF        +2
000211: 14,7223           31001                           XCH      DELVX
000212: 14,7224           07044                           TC       PIPJUMP                               #  JUMP ON LOOP COUNTER.
000213:
000214:
000215:                                                                                                  #        THE FOLLOWING JOB IS INITIATED BY 1/PIPA TO PUT OUT COMPENSATING GYRO TORQUE COMMANDS.
000216:
000217: 14,7225           34504        1/GYRO             CAF      BIT11                                 #  IF MODE SWITCH IN PROGRESS, DONT PUT
000218: 14,7226           70646                           MASK     FLAGWRD1                              #  OUT COMPENSATION THIS TIME.
000219: 14,7227           10000                           CCS      A
000220: 14,7230           02124                           TC       ENDOFJOB
000221:
000222: 14,7231           03424                           TC       FLAG1UP                               #  SHOW IMU ACTIVITY
000223: 14,7232           02000                           OCT      02000                                 #  FLAG TURNED OFF BY GYRO ROUTINES.
000224:
000225: 14,7233           37047                           CAF      LGCOMP                                #  DISABLE THE T4RUPT CDU DRIVE THEMSELVES.
000226: 14,7234           05654                           TC       BANKCALL
000227: 14,7235           31335                           CADR     GYROSPNT                              #  NO TWITCH (2+2-) ON ZERO INPUT.
000228:
000229: 14,7236           05654                           TC       BANKCALL
000230: 14,7237           30331                           CADR     IMUSTALL
000231: 14,7240           03074                           TC       CURTAINS
000232:
000233: 14,7241           35501                           CAF      ZERO                                  #  ZERO GCOMP REGSITERS SINCE COMMANDS HAVE
000234: 14,7242           50756                           TS       GCOMP                                 #  BEEN PUT OUT.
000235: 14,7243           50760                           TS       GCOMP      +2
000236: 14,7244           50762                           TS       GCOMP      +4
000237:
000238: 14,7245           02124                           TC       ENDOFJOB
000239:
000240: 14,7246           77740        COMPCHK            OCT      -37                                   #  COMMANDS MUST BE AT LEAST 32 PLS.
000241:
000242:
000243:                                                                                                  #        THE FOLLOWING ROUTINE SUPPLIES GYRO DRIFT COMPENSATION DURING THOSE PORTIONS OF A MISSION WHICH DO NOT
000244:                                                                                                  #  USE PIPA DATA. THIS JOB IS CALLED EVERY 81.93 SECONDS (WHEN APPROPRIATE) BY THE IDLE TASK.
000245:
000246: 14,7247           40036        BIASONLY           CS       TIME1                                 #  COMPUTE TIME DIFFERENCE (ALMOST ALWAYS
000247: 14,7250           40000                           COM                                            #  81.93 SECS.).
000248: 14,7251           30755                           XCH      OLDBT1
000249: 14,7252           40000                           COM
000250: 14,7253           60755                           AD       OLDBT1
000251: 14,7254           10000        BONLY2             CCS      A                                     #  LASTBIAS ENTERS HERE.
000252: 14,7255           64516                           AD       ONE
000253: 14,7256           07263                           TC       BONLY3
000254: 14,7257           07261                           TC       +2
000255: 14,7260           02124                           TC       ENDOFJOB                              #  MAY HAVE A COMPUTED DIFF = 0.
000256:
000257: 14,7261           40000                           COM
000258: 14,7262           64476                           AD       POSMAX
000259:
000260: 14,7263           25777        BONLY3             EXTEND                                         #  FORM DELTA-T AT 2(+8) CS.
000261: 14,7264           44506                           MP       BIT9                                  #  SHIFT RIGHT 6.
000262: 14,7265           50115                           TS       MPAC
000263: 14,7266           50106                           TS       TEM9
000264: 14,7267           30003                           XCH      LP
000265: 14,7270           50116                           TS       MPAC       +1
000266: 14,7271           50107                           TS       TEM10
000267: 14,7272           35501                           CAF      ZERO
000268: 14,7273           50101                           TS       GCOMPSW
000269: 14,7274           50077                           TS       BUF
000270:
000271: 14,7275           40744                           CS       GBIASX                                #  DO X, Y, AND THEN Z.
000272: 14,7276           07317                           TC       FBIASSUB
000273:
000274: 14,7277           40106                           CS       TEM9                                  #  RELOAD DT.
000275: 14,7300           50115                           TS       MPAC
000276: 14,7301           40107                           CS       TEM10
000277: 14,7302           50116                           TS       MPAC       +1
000278: 14,7303           40745                           CS       GBIASY
000279: 14,7304           07316                           TC       FBIASSUB   -1
000280:
000281: 14,7305           40106                           CS       TEM9
000282: 14,7306           50115                           TS       MPAC
000283: 14,7307           40107                           CS       TEM10
000284: 14,7310           50116                           TS       MPAC       +1
000285: 14,7311           40746                           CS       GBIASZ
000286: 14,7312           07316                           TC       FBIASSUB   -1
000287: 14,7313           10101                           CCS      GCOMPSW                               #  PUT OUT COMPENSATION IF CALLED FOR.
000288: 14,7314           07225                           TC       1/GYRO
000289: 14,7315           02124                           TC       ENDOFJOB
000290:
000291: 14,7316           40000                 -1        COM
000292: 14,7317           30001        FBIASSUB           XCH      Q
000293: 14,7320           50100                           TS       BUF        +1
000294: 14,7321           35501                           CAF      ZERO
000295: 14,7322           50117                           TS       MPAC       +2
000296: 14,7323           30001                           XCH      Q
000297: 14,7324           05416                           TC       SHORTMP
000298: 14,7325           30115                           XCH      MPAC
000299: 14,7326           50034                           TS       OVCTR
000300: 14,7327           30116                           XCH      MPAC       +1
000301: 14,7330           07171                           TC       DRFTSUB2                              #  RETURN TO CALLER VIA BUF +1.
000302:
000303: 14,7331           30755        LASTBIAS           XCH      OLDBT1                                #  COMES HERE FOR TRANSITION TO PIPA READ-
000304: 14,7332           40000                           COM                                            #  ING MODE. NEW VALUE OF 1/PIPADT ARRIVES
000305: 14,7333           60115                           AD       MPAC                                  #  IN A WITH WITH TIME1 AT PIPA ZEROING IN
000306: 14,7334           07254                           TC       BONLY2                                #  MPAC. EXITS VIA ENDOFJOB.

End of include-file IMU_COMPENSATION_PACKAGE.agc.  Parent file is MAIN.agc


