
Source Code


000002:                                                                                                  ## Copyright:   Public domain.
000003:                                                                                                  ## Filename:    INFLIGHT_ALIGNMENT_SUBROUTINES.agc
000004:                                                                                                  ## Purpose:     A section of Corona revision 261.
000005:                                                                                                  ##              It is part of the source code for the Apollo Guidance Computer
000006:                                                                                                  ##              (AGC) for AS-202. No original listings of this software are
000007:                                                                                                  ##              available; instead, this file was created via disassembly of
000008:                                                                                                  ##              the core rope modules actually flown on the mission.
000009:                                                                                                  ## Assembler:   yaYUL
000010:                                                                                                  ## Contact:     Ron Burkey <info@sandroid.org>.
000011:                                                                                                  ## Website:     www.ibiblio.org/apollo/index.html
000012:                                                                                                  ## Mod history: 2023-05-27 MAS  Created from Solarium 55.
000013:
000014:
000015:                                                                                                  #  CALGTA                GIVEN THE DESIRED XD,YD AND ZD UNIT VECTORS REFERED TO
000016:                                                                                                  #  --------              PRESENT STABLE MEMBER ORIENTATION, THIS SUBROUTINE FINDS
000017:                                                                                                  #                        THETAY, THETAZ, AND THETAX, THE REQUIRED GYRO TORQUE
000018:                                                                                                  #                        ANGLES IN THE ORDER TO BE APPLIED TO BRING THE STABLE
000019:                                                                                                  #                        MEMBER INTO THE DESIRED ORIENTATION.
000020:
000021:
000022:
000023: 22,6352                                           BANK     22
000024: 22,6352           45575        CALCGTA            ITA      1                                     #  DEFINE THE VECTOR ZPRIME WHICH IS THE
000025: 22,6353           45176                           DMOVE
000026: 22,6354           00052                                    S2                                    #  IMAGE OF Z UNDER THE ROTATION ABOUT Y
000027: 22,6355           01477                                    XDSMPR
000028:
000029: 22,6356           45176                           DMOVE    0                                     #  ZPRIME =(-XD  ,0 , XD )
000030: 22,6357           05174                                    ZERODP                                #              2        0
000031:
000032: 22,6360           47175                           COMP     1
000033: 22,6361           41153                           VDEF     UNIT
000034: 22,6362           01503                                    XDSMPR     +4
000035: 22,6363           32027                           STORE    ZPRIME
000036:
000037: 22,6364           56776                           TSRT     0                                     #  SET UP COSTH AND SINTH TO ENTER
000038: 22,6365           00027                                    ZPRIME                                #      ARCTRIG FOR COMPUTATION OF THETA-Y
000039: 22,6366           00002                                    1
000040: 22,6367           32023                           STORE    SINTH
000041:
000042: 22,6370           56776                           TSRT     0
000043: 22,6371           00033                                    ZPRIME     +4D
000044: 22,6372           00002                                    1
000045: 22,6373           32021                           STORE    COSTH
000046:
000047: 22,6374           76776                           ITC      0
000048: 22,6375           04437                                    ARCTRIG
000049:
000050: 22,6376           47576                           NOLOD    0
000051: 22,6377           33523                           STORE    IGC
000052:
000053: 22,6400           56776                           TSRT     0
000054: 22,6401           01501                                    XDSMPR     +2
000055: 22,6402           00002                                    1
000056: 22,6403           32023                           STORE    SINTH
000057:
000058: 22,6404           64776                           DMP      0
000059: 22,6405           00027                                    ZPRIME
000060: 22,6406           01503                                    XDSMPR     +4
000061:
000062: 22,6407           64775                           DMP      1
000063: 22,6410           66776                           DSU
000064: 22,6411           00033                                    ZPRIME     +4
000065: 22,6412           01477                                    XDSMPR
000066: 22,6413           32021                           STORE    COSTH
000067:
000068: 22,6414           76776                           ITC      0
000069: 22,6415           04437                                    ARCTRIG
000070:
000071: 22,6416           47576                           NOLOD    0
000072: 22,6417           33525                           STORE    MGC
000073:
000074: 22,6420           42776                           DOT      0
000075: 22,6421           00027                                    ZPRIME
000076: 22,6422           01513                                    ZDSMPR
000077: 22,6423           32021                           STORE    COSTH
000078:
000079: 22,6424           42776                           DOT      0
000080: 22,6425           00027                                    ZPRIME
000081: 22,6426           01505                                    YDSMPR
000082: 22,6427           32023                           STORE    SINTH
000083:
000084: 22,6430           76776                           ITC      0
000085: 22,6431           04437                                    ARCTRIG
000086:
000087: 22,6432           47576                           NOLOD    0
000088: 22,6433           33521                           STORE    OGC
000089:
000090: 22,6434           44576                           ITCI     0
000091: 22,6435           00052                                    S2
000092:
000093:
000094: 22,6436           65175        ARCTRIG            ABS      1                                     #  GIVEN SINTH AND COSTH SCALED X1/4 FIND
000095: 22,6437           66756                           DSU      BMN                                   #  THETA IN THE RANGE -PI TO +PI SCALED-
000096: 22,6440           00023                                    SINTH                                 #  TEMPORARY FOR SINTH               XPI/2
000097: 22,6441           05170                                    QTSN45                                #  CONSTANT=0.1768
000098: 22,6442           04453                                    TRIG1
000099:
000100: 22,6443           63775                           TSLT     1
000101: 22,6444           61056                           ACOS     SIGN
000102: 22,6445           00021                                    COSTH                                 #  TEMPORARY FOR COSTH
000103: 22,6446           00002                                    1
000104: 22,6447           00023                                    SINTH                                 #  TEMPORARY FOR SINTH
000105: 22,6450           32025                           STORE    THETA
000106:
000107: 22,6451           40576                           ITCQ     0                                     #  RETURN TO MAIN PROGRAM
000108:
000109: 22,6452           63775        TRIG1              TSLT     1                                     #  SINTH LESS THAN QTSN45
000110: 22,6453           63176                           ASIN
000111: 22,6454           00023                                    SINTH                                 #  TEMPORARY FOR SINTH
000112: 22,6455           00002                                    1
000113: 22,6456           32025                           STORE    THETA
000114:
000115: 22,6457           73776                           BMN      0
000116: 22,6460           00021                                    COSTH
000117: 22,6461           04466                                    TRIG2
000118:
000119: 22,6462           45175                           DMOVE    1
000120: 22,6463           40576                           ITCQ
000121: 22,6464           00025                                    THETA
000122: 22,6465           53775        TRIG2              SIGN     1                                     #  COSTH NEGATIVE
000123: 22,6466           66776                           DSU
000124: 22,6467           05200                                    HALFDP
000125: 22,6470           00023                                    SINTH                                 #  WITH ASIN
000126: 22,6471           00025                                    THETA
000127: 22,6472           32025                           STORE    THETA
000128:
000129: 22,6473           40576                           ITCQ     0                                     #  RETURN
000130:
000131:
000132:                                                                                                  #                                          THIS PROGRAM COMPUTES SXT ANGLES SAC AND
000133:                                                                                                  #                                          PAC IN HALF AND EIGHT REVOLUTIONS RESPEC
000134:                                                                                                  #                                          GO IN WITH S1=BASE ADDRESS OF CDU;S
000135:
000136: 22,6474           45575        SMNB               ITA      1                                     #  CHECK THAT NBSMBIT IS OFF,IF IT ISGO TO
000137: 22,6475           43411                           TEST     SWITCH                                #  NBSM1,OTHERWISE SWITCH IT OFF
000138: 22,6476           00052                                    S2
000139: 22,6477           00006                                    NBSMBIT
000140: 22,6500           04503                                    SMNB1
000141: 22,6501           00006                                    NBSMBIT
000142:
000143: 22,6502           75575        SMNB1              AXT,1    1                                     #  NBSMBIT IS OFF
000144: 22,6503           74572                           AXT,2    ITC                                   #  SET INDECES TO ROTATE X,Z ABOUT Y
000145: 22,6504           00005                                    4
000146: 22,6505           00001                                    0
000147: 22,6506           04556                                    AXISROT                               #  DO AXIS ROTATION
000148:
000149: 22,6507           75575                           AXT,1    1                                     #  SET INDECES TO ROTATE Y,X ABOUT Z
000150: 22,6510           74572                           AXT,2    ITC
000151: 22,6511           00003                                    2
000152: 22,6512           00005                                    4
000153: 22,6513           04556                                    AXISROT                               #  DO AXIS ROTATION
000154:
000155: 22,6514           75575                           AXT,1    1                                     #  SET INDECES TO ROTATE Z,Y ABOUT X
000156: 22,6515           74572                           AXT,2    ITC
000157: 22,6516           00001                                    0
000158: 22,6517           00003                                    2
000159: 22,6520           04556                                    AXISROT                               #  DO AXIS ROTATION
000160:
000161: 22,6521           44576                           ITCI     0                                     #  RETURN
000162: 22,6522           00052                                    S2
000163:
000164:
000165: 22,6523           45575        NBSM               ITA      1                                     #  CHECK THAT NBSMBIT IS ON,IF IT IS NOT GO
000166: 22,6524           43576                           TEST                                           #  TO NBSM1 AND SWITCH IT ON
000167: 22,6525           00052                                    S2
000168: 22,6526           00006                                    NBSMBIT
000169: 22,6527           04552                                    NBSM1
000170:
000171: 22,6530           75575        NBSM2              AXT,1    1                                     #  ROTATE Z,Y ABOUT X
000172: 22,6531           74572                           AXT,2    ITC
000173: 22,6532           00001                                    0
000174: 22,6533           00003                                    2
000175: 22,6534           04556                                    AXISROT
000176:
000177: 22,6535           75575                           AXT,1    1                                     #  ROTATE Y,X ABOUT Z
000178: 22,6536           74572                           AXT,2    ITC
000179: 22,6537           00003                                    2
000180: 22,6540           00005                                    4
000181: 22,6541           04556                                    AXISROT
000182:
000183: 22,6542           75575                           AXT,1    1                                     #  ROTATE X,Z ABOUT Y
000184: 22,6543           74572                           AXT,2    ITC
000185: 22,6544           00005                                    4
000186: 22,6545           00001                                    0
000187: 22,6546           04556                                    AXISROT
000188:
000189: 22,6547           44576                           ITCI     0                                     #  RETURN
000190: 22,6550           00052                                    S2
000191:
000192: 22,6551           42575        NBSM1              SWITCH   1
000193: 22,6552           76776                           ITC
000194: 22,6553           00006                                    NBSMBIT
000195: 22,6554           04531                                    NBSM2
000196:
000197:
000198: 22,6555           57574        AXISROT            XSU,1    2                                     #  ROUTINE FOR SINGLE AXIS ROTATIONS
000199: 22,6556           42171                           SMOVE*   RTB
000200: 22,6557           61576                           XAD,1                                          #  REMARKS ARE FOR ROTATING Z,Y ABOUT X
000201: 22,6560           00051                                    S1
000202: 22,6561           00011                                    4,1                                   #  INDEX1=0,INDEX2=2
000203: 22,6562           20303                                    CDULOGIC                              #  ANGLES ARE STORED IN THE ORDER IGA,MGA,
000204: 22,6563           00051                                    S1
000205: 22,6564           32037                           STORE    30D                                   #  OGA,SO WE PICK UP OGZ
000206:
000207: 22,6565           55176        ACCUROT            COS      0
000208: 22,6566           00037                                    30D
000209: 22,6567           34021                           STORE    8D,1                                  #  STORE COS(OGA) IN 8
000210:
000211: 22,6570           57176                           SIN      0
000212: 22,6571           00037                                    30D
000213: 22,6572           34025                           STORE    10D,1                                 #  STORE SIN(OGA) IN 10D
000214:
000215: 22,6573           64375                           DMP*     1
000216: 22,6574           63776                           TSLT
000217: 22,6575           00025                                    10D,1
000218: 22,6576           00112                                    VAC        +4,2                       #  PUSH DOWN (VAC +2)SIN(OGA)
000219: 22,6577           00002                                    1
000220:
000221: 22,6600           64375                           DMP*     1
000222: 22,6601           63776                           TSLT
000223: 22,6602           00021                                    8D,1
000224: 22,6603           00112                                    VAC        +4,2                       #  PUSH DOWN (VAC +2)COS(OGA)
000225: 22,6604           00002                                    1
000226:
000227: 22,6605           64374                           DMP*     2
000228: 22,6606           63615                           TSLT     TEST
000229: 22,6607           65776                           BDSU
000230: 22,6610           00025                                    10D,1
000231: 22,6611           00111                                    VAC        +4,1
000232: 22,6612           00002                                    1
000233: 22,6613           00006                                    NBSMBIT
000234: 22,6614           04630                                    AXISROT1
000235: 22,6615           34112                           STORE    VAC        +4,2                       #  VAC+2=(VAC+2)COS(OGA)-(VAC+4)SIN(OGA)
000236:
000237: 22,6616           64375                           DMP*     1
000238: 22,6617           63742                           TSLT     DAD
000239: 22,6620           00021                                    8D,1
000240: 22,6621           00111                                    VAC        +4,1
000241: 22,6622           00002                                    1
000242: 22,6623           34111                           STORE    VAC        +4,1                       #  VAC+4=(VAC+2)SIN(OGA)+(VAC+4)COS(OGA)
000243:
000244: 22,6624           75175                           VMOVE    1
000245: 22,6625           40576                           ITCQ
000246: 22,6626           00041                                    VAC
000247:
000248: 22,6627           47575        AXISROT1           NOLOD    1                                     #  TEST WAS 0 FOR SMNB
000249: 22,6630           70776                           DAD
000250: 22,6631           34112                           STORE    VAC        +4,2                       #  VAC+2=(VAC+2)COS(OGA)+(VAC+4)SIN(OGA)
000251:
000252: 22,6632           64375                           DMP*     1
000253: 22,6633           63732                           TSLT     DSU
000254: 22,6634           00021                                    8D,1
000255: 22,6635           00111                                    VAC        +4,1
000256: 22,6636           00002                                    1
000257: 22,6637           34111                           STORE    VAC        +4,1                       #  VAC+4=-(VAC+2)SIN(OGA)+(VAC+4)COS(OGA)
000258:
000259: 22,6640           75175                           VMOVE    1
000260: 22,6641           40576                           ITCQ
000261: 22,6642           00041                                    VAC
000262:
000263:
000264: 22,6643           41775        CALCGA             VXV      1                                     #  CALCULATE GIMBAL ANGLES GIVEN THE X,Y,Z-
000265: 22,6644           73176                           UNIT
000266: 22,6645           01477                                    XNB
000267: 22,6646           01433                                    YSM
000268:
000269: 22,6647           47575                           NOLOD    1
000270: 22,6650           42625                           DOT      ITA
000271: 22,6651           01513                                    ZNB
000272: 22,6652           00052                                    S2
000273: 22,6653           32021                           STORE    COSTH                                 #  TEMPORARY FOR COSTH
000274:
000275: 22,6654           47575                           NOLOD    1
000276: 22,6655           42776                           DOT
000277: 22,6656           01505                                    YNB
000278: 22,6657           32023                           STORE    SINTH
000279:
000280: 22,6660           76776                           ITC      0
000281: 22,6661           04437                                    ARCTRIG
000282:
000283: 22,6662           47576                           NOLOD    0
000284: 22,6663           33521                           STORE    OGC
000285:
000286: 22,6664           42774                           DOT      2
000287: 22,6665           63746                           TSLT     BOV
000288: 22,6666           56713                           TSRT     ASIN
000289: 22,6667           01433                                    YSM
000290: 22,6670           01477                                    XNB
000291: 22,6671           00003                                    2
000292: 22,6672           04725                                    GIMLOCK1                              #  LOOK FOR EXCESSIVE MGC
000293: 22,6673           00002                                    1
000294: 22,6674           33525                           STORE    MGC
000295:
000296: 22,6675           65175                           ABS      1
000297: 22,6676           66616                           DSU      BPL
000298: 22,6677           01525                                    MGC
000299: 22,6700           05202                                    .333...
000300: 22,6701           04725                                    GIMLOCK1
000301:
000302: 22,6702           42776        CALCGA1            DOT      0
000303: 22,6703           01441                                    ZSM
000304: 22,6704           00001                                    0                                     #  CONTAINS AMG
000305: 22,6705           32021                           STORE    COSTH
000306:
000307: 22,6706           42776                           DOT      0
000308: 22,6707           01425                                    XSM
000309: 22,6710           32023                           STORE    SINTH
000310:
000311: 22,6711           76776                           ITC      0
000312: 22,6712           04437                                    ARCTRIG
000313: 22,6713           47576                           NOLOD    0
000314: 22,6714           33523                           STORE    IGC
000315:
000316: 22,6715           75175                           VMOVE    1                                     #  OP COUNT BY UNEEDA DEBUGGING SERVICE INC
000317: 22,6716           76576                           RTB
000318: 22,6717           01521                                    OGC
000319: 22,6720           20631                                    V1STO2S
000320: 22,6721           32701                           STORE    THETAD                                #  *** BEWARE *** MODE IS NOW DP ***
000321:
000322: 22,6722           44576                           ITCI     0
000323: 22,6723           00052                                    S2
000324:
000325: 22,6724           77576        GIMLOCK1           EXIT     0
000326:
000327: 22,6725           03015                           TC       ALARM
000328: 22,6726           00401                           OCT      00401
000329: 22,6727           04000                           TC       INTPRET                               #  RESUME ROUTINE.
000330:
000331: 22,6730           76776                           ITC      0
000332: 22,6731           04703                                    CALCGA1
000333:
000334:
000335: 22,6732           42175        SXTNB              SMOVE*   1                                     #  THIS PROGRAM COMPUTES COMPONENTS OF
000336: 22,6733           76571                           RTB      RTB                                   #  THE STAR HALF UNIT VECTOR,STARM, GIVEN
000337: 22,6734           00013                                    5,1                                   #  THE MEASURED SXT ANGLES PAM AND SAM.
000338: 22,6735           20303                                    CDULOGIC
000339: 22,6736           20406                                    TRUNLOG
000340:
000341: 22,6737           47575                           NOLOD    1
000342: 22,6740           57116                           SIN      TSLT
000343: 22,6741           00002                                    1                                     #  STORE A=SIN(PAM.PI/4)
000344:
000345: 22,6742           42175                           SMOVE*   1
000346: 22,6743           76576                           RTB
000347: 22,6744           00007                                    3,1
000348: 22,6745           20303                                    CDULOGIC                              #  STORE  SAM/2 IN PD 4,RESOLVES +/- ZERO
000349:
000350: 22,6746           47575                           NOLOD    1
000351: 22,6747           55122                           COS      DMP
000352: 22,6750           00003                                    2
000353: 22,6751           32041                           STORE    STARM                                 #  STARM +0=(A.COS(PI.SAM))/2
000354:
000355: 22,6752           57175                           SIN      1                                     #  SIN(2PI.PD4).PD2
000356: 22,6753           64776                           DMP
000357: 22,6754           32043                           STORE    STARM      +2                         #  STARM +2=(A.SIN(PI.SAM))/2
000358:
000359: 22,6755           55176                           COS      0
000360: 22,6756           32045                           STORE    STARM      +4                         #  STARM +4=0.5.COS(PAM.PI/4)
000361:
000362: 22,6757           40576                           ITCQ     0
000363:
000364:
000365:                                                                                                  #  AXISGEN               GIVEN TWO STAR VECTORS     -         -
000366:                                                                                                  #  -------                                      STARA AND STARB WRITTEN IN TWO
000367:                                                                                                  #                          COORDINATE SYSTEMS, THE D AND C SYSTEMS SO THAT WE
000368:                                                                                                  #                          HAVE       -       -           -       -
000369:                                                                                                  #                                 STARA   STARB   AND STARB , STARA
000370:                                                                                                  #                                      D       D           C       C
000371:                                                                                                  #                          THIS PROGRAM COMPUTES THE HALF UNIT AXES
000372:                                                                                                  #                                  -   -   -
000373:                                                                                                  #                                 XD  YD  ZD
000374:                                                                                                  #                                   C   C   C
000375:                                                                                                  #                          THAT IS THE D COORDINATE SYSTEM AXES REFERRED TO THE C
000376:                                                                                                  #                          COORDINATE SYSTEM
000377:                                                                                                  #                        THE INPUTS ARE STORED AS FOLLOWS
000378:                                                                                                  #                                                                -
000379:                                                                                                  #                                 C(STARAD) - C(STARAD +5) = STARA
000380:                                                                                                  #                                                                 D
000381:                                                                                                  #                                                                -
000382:                                                                                                  #                                 C(STARAD+6)-C(STARAD+11D)= STARB
000383:                                                                                                  #                                                                 D
000384:                                                                                                  #                                                                -
000385:                                                                                                  #                                 C(6D) - C(11D)           = STARA
000386:                                                                                                  #                                                                 C
000387:                                                                                                  #                                                                -
000388:                                                                                                  #                                 C(12D) - C(17D)          = STARB
000389:                                                                                                  #                                                                 C
000390:                                                                                                  #                        RESULTS ARE LEFT IN XDC TO XDC +17D
000391:                                                                                                  #                          THE RETUTINE DESTROYS THE INPUTS AND USES LOCATIONS
000392:                                                                                                  #                             STARAD+12D TO STARAD+17D AND 18D - 23D +30D
000393: 22,6760           75575        AXISGEN            AXT,1    1
000394: 22,6761           55576                           AST,1
000395: 22,6762           01411                                    STARAD     +6
000396: 22,6763           01375                                    STARAD     -6
000397: 22,6764           41375        AXISGEN1           VXV*     1
000398: 22,6765           73176                           UNIT
000399: 22,6766           03035                                    STARAD     +12D,1
000400: 22,6767           03051                                    STARAD     +18D,1
000401: 22,6770           37051                           STORE    STARAD     +18D,1
000402:
000403: 22,6771           41375                           VXV*     1
000404: 22,6772           44776                           VSLT
000405: 22,6773           03035                                    STARAD     +12D,1
000406: 22,6774           03051                                    STARAD     +18D,1
000407: 22,6775           00002                                    1
000408: 22,6776           37065                           STORE    STARAD     +24D,1
000409:
000410: 22,6777           51576                           TIX,1    0
000411: 22,7000           04765                                    AXISGEN1
000412:
000413: 22,7001           53573                           AXC,1    3
000414: 22,7002           67565                           SXA,1    AXT,1
000415: 22,7003           55561                           AST,1    AXT,2
000416: 22,7004           54576                           AST,2
000417: 22,7005           00007                                    6
000418: 22,7006           00037                                    30D
000419: 22,7007           00023                                    18D
000420: 22,7010           00007                                    6
000421: 22,7011           00007                                    6
000422: 22,7012           00003                                    2
000423:
000424: 22,7013           65576        AXISGEN2           XCHX,1   0
000425: 22,7014           00037                                    30D
000426:
000427: 22,7015           75376                           VXSC*    0
000428: 22,7016           00001                                    0,1
000429: 22,7017           03022                                    STARAD     +6,2
000430:
000431: 22,7020           75376                           VXSC*    0
000432: 22,7021           00015                                    6,1
000433: 22,7022           03036                                    STARAD     +12D,2
000434: 22,7023           32031                           STORE    24D
000435:
000436: 22,7024           75374                           VXSC*    2
000437: 22,7025           50642                           VAD      VAD
000438: 22,7026           44725                           VSLT     XCHX,1
000439: 22,7027           00031                                    12D,1
000440: 22,7030           03052                                    STARAD     +18D,2
000441: 22,7031           77777                                    -
000442: 22,7032           00031                                    24D
000443: 22,7033           00002                                    1
000444: 22,7034           00037                                    30D
000445: 22,7035           37241                           STORE    XDC        +18D,1
000446:
000447: 22,7036           51576                           TIX,1    0
000448: 22,7037           05041                                    AXISGEN3
000449:
000450: 22,7040           50576        AXISGEN3           TIX,2    0
000451: 22,7041           05014                                    AXISGEN2
000452:
000453: 22,7042           40576                           ITCQ     0
000454:
000455:
000456: 22,7043           75175        CALCSXA            VMOVE    1                                     #  THIS PROGRAM COMPUTES THE SXT ANGLES SAC
000457: 22,7044           45572                           ITA      ITC                                   #  AND PAC GIVEN THE STAR VECTOR IN SM AXES
000458: 22,7045           01417                                    STAR
000459: 22,7046           00052                                    S2                                    #  HALF UNIT VECTOR
000460: 22,7047           04475                                    SMNB
000461:
000462: 22,7050           47576                           NOLOD    0
000463: 22,7051           32007                           STORE    6                                     #  STORE (STARM0,STARM1,STARM2)
000464:
000465: 22,7052           45176                           DMOVE    0
000466: 22,7053           05174                                    ZERODP
000467: 22,7054           32045                           STORE    VAC        +4                         #  SET VAC TO (STARM0,STARM1,0)
000468:
000469: 22,7055           47575                           NOLOD    1                                     #  UNIT VAC TO (S0,S1,0)
000470: 22,7056           73072                           UNIT     TSRT
000471: 22,7057           00003                                    2
000472: 22,7060           32001                           STORE    0                                     #  STORE  COS/4 =S0/4 , SIN/4 = S1/4 ,0
000473:
000474: 22,7061           45176                           DMOVE    0
000475: 22,7062           00001                                    0
000476: 22,7063           00021                                    COSTH
000477:
000478: 22,7064           45176                           DMOVE    0
000479: 22,7065           00003                                    2
000480: 22,7066           00023                                    SINTH
000481:
000482: 22,7067           76776                           ITC      0
000483: 22,7070           04437                                    ARCTRIG                               #  USES THE COS/SIN STORED ABOVE
000484:
000485: 22,7071           76576                           RTB      0
000486: 22,7072           20324                                    1STO2S
000487: 22,7073           33521                           STORE    SAC
000488:
000489: 22,7074           42773                           DOT      3
000490: 22,7075           63713                           TSLT     ASIN
000491: 22,7076           63746                           TSLT     BOV
000492: 22,7077           73771                           BMN      RTB
000493: 22,7100           00001                                    0                                     #  1/4 UNIT  (STARM0,STARM1,0)
000494: 22,7101           00007                                    6                                     #  STARM-1/2 UNIT VECTOR
000495: 22,7102           00004                                    3
000496: 22,7103           00004                                    3
000497: 22,7104           05113                                    CALCSXA1
000498: 22,7105           05113                                    CALCSXA1
000499: 22,7106           20324                                    1STO2S
000500: 22,7107           33523                           STORE    PAC
000501:
000502: 22,7110           44576                           ITCI     0
000503: 22,7111           00052                                    S2
000504:
000505: 22,7112           77576        CALCSXA1           EXIT     0                                     #  PROGRAM ERROR,STAR OUT OF FIELD OF VIEW
000506: 22,7113           03015                           TC       ALARM
000507: 22,7114           00402                           OCT      00402
000508: 22,7115           02124                           TC       ENDOFJOB
000509:
000510:
000511: 22,7116           41775        SXTANG             VXV      1                                     #  TIVELY FROM INPUTS STAR AND XNB,YNB,ZNB
000512: 22,7117           73026                           UNIT     VSRT                                  #  THE HALF UNIT STAR VECTOR AND THE NAV
000513: 22,7120           01513                                    ZNB                                   #  BASE HALF AXES.
000514: 22,7121           01417                                    STAR
000515: 22,7122           00002                                    1
000516: 22,7123           32027                           STORE    PDA                                   #  DEFINES PROJECTION OF STAR IN XY PLANE
000517:
000518: 22,7124           42775                           DOT      1
000519: 22,7125           47025                           COMP     ITA                                   #  COMPUTE  SIN(PI.SAC)/4
000520: 22,7126           00027                                    PDA
000521: 22,7127           01477                                    XNB
000522: 22,7130           00052                                    S2
000523: 22,7131           32023                           STORE    SINTH
000524:
000525: 22,7132           42776                           DOT      0                                     #  COMPUTE  COS(PI.SAC)/4
000526: 22,7133           00027                                    PDA
000527: 22,7134           01505                                    YNB
000528: 22,7135           32021                           STORE    COSTH
000529:
000530: 22,7136           76776                           ITC      0                                     #  COMPUTE SAC
000531: 22,7137           04437                                    ARCTRIG
000532:
000533: 22,7140           76576                           RTB      0
000534: 22,7141           20324                                    1STO2S
000535: 22,7142           33521                           STORE    SAC
000536:
000537: 22,7143           41772                           VXV      4
000538: 22,7144           42716                           DOT      TSLT
000539: 22,7145           63116                           ASIN     TSLT                                  #  COMPUTE PAC
000540: 22,7146           71756                           BOV      BMN
000541: 22,7147           76576                           RTB
000542: 22,7150           00027                                    PDA
000543: 22,7151           01513                                    ZNB
000544: 22,7152           01417                                    STAR
000545: 22,7153           00003                                    2
000546: 22,7154           00004                                    3
000547: 22,7155           05164                                    SXTALARM
000548: 22,7156           05164                                    SXTALARM                              #  WE NOW HAVE PRECISION ANGLE
000549: 22,7157           20324                                    1STO2S
000550: 22,7160           33523                           STORE    PAC
000551:
000552: 22,7161           44576                           ITCI     0                                     #  JOB IS DONE
000553: 22,7162           00052                                    S2
000554:
000555: 22,7163           77576        SXTALARM           EXIT     0                                     #  BRANCH TO RESTART SEQUENCE
000556:
000557: 22,7164           03015                           TC       ALARM
000558: 22,7165           00403                           OCT      00403
000559: 22,7166           02124                           TC       ENDOFJOB
000560:
000561:
000562: 22,7167           05520 26075  QTSN45             2DEC     .1768
000563: 22,7171           05260 04061  THIRD              2DEC     .167
000564: 22,7173                        ZPRIME             =        22D
000565: 22,7173                        PDA                =        22D
000566: 22,7173                        COSTH              =        16D
000567: 22,7173                        SINTH              =        18D
000568: 22,7173                        THETA              =        20D
000569: 22,7173  0000040               STARM              =        VAC
000570: 22,7173           00000 00000  ZERODP             2DEC     0          B-28
000571: 22,7175           37777        POSMAXDP           OCT      37777
000572: 22,7176           37777                           OCT      37777
000573: 22,7177           20000 00000  HALFDP             2DEC     .5
000574: 22,7201           12525 12525  .333...            2DEC     .3333333333

End of include-file INFLIGHT_ALIGNMENT_SUBROUTINES.agc.  Parent file is MAIN.agc


