
Source Code


000002:                                                                                                  ## Copyright:   Public domain.
000003:                                                                                                  ## Filename:    INFLIGHT_ALIGNMENT_PROGRAM.agc
000004:                                                                                                  ## Purpose:     A section of Corona revision 261.
000005:                                                                                                  ##              It is part of the source code for the Apollo Guidance Computer
000006:                                                                                                  ##              (AGC) for AS-202. No original listings of this software are
000007:                                                                                                  ##              available; instead, this file was created via disassembly of
000008:                                                                                                  ##              the core rope modules actually flown on the mission.
000009:                                                                                                  ## Assembler:   yaYUL
000010:                                                                                                  ## Contact:     Ron Burkey <info@sandroid.org>.
000011:                                                                                                  ## Website:     www.ibiblio.org/apollo/index.html
000012:                                                                                                  ## Mod history: 2023-05-27 MAS  Created from Solarium 55.
000013:
000014:
000015: 22,6000                                           SETLOC   44000
000016:
000017: 22,6000           34475        SWAYSTAT           CAF      SIX                                   #  PROGRAM START AND INITIAL CONDITIONS
000018: 22,6001           51100                           TS       DTCOUNT                               #  SET DTCOUNT = 6
000019: 22,6002           51101                           TS       DTCOUNT    +1
000020: 22,6003           34516                           CAF      ONE
000021: 22,6004           51102                           TS       SWAYPULS                              #  SET FIRST PIPA PULSE = +1
000022: 22,6005           51103                           TS       SWAYPULS   +1
000023: 22,6006           34516                           CAF      ONE
000024: 22,6007           02173                           TC       WAITLIST
000025: 22,6010           44024                           CADR     SWAYROTY
000026: 22,6011           34516                           CAF      ONE
000027: 22,6012           61104                           AD       PHAZING
000028: 22,6013           02173                           TC       WAITLIST
000029: 22,6014           44017                           CADR     SWAYROTZ
000030: 22,6015           20016                           RELINT
000031: 22,6016           02124                           TC       ENDOFJOB
000032:
000033:
000034:
000035: 22,6017           30003        SWAYROTZ           XCH      LP                                    #  STORE LP IN LPRUPT
000036: 22,6020           30032                           XCH      LPRUPT
000037: 22,6021           34516                           CAF      ONE                                   #  SET INDEX PIPSLECT FOR SELECTION OF
000038: 22,6022           51111                           TS       PIPSLECT                              #  PIPA TO BE INCREMENTED
000039: 22,6023           06030                           TC       SWAYROTY   +4
000040:
000041: 22,6024           30003        SWAYROTY           XCH      LP
000042: 22,6025           30032                           XCH      LPRUPT
000043: 22,6026           35501                           CAF      ZERO
000044: 22,6027           51111                           TS       PIPSLECT
000045:
000046: 22,6030           45501                           CS       ZERO
000047: 22,6031           21111                           INDEX    PIPSLECT
000048: 22,6032           30045                           XCH      PIPAY
000049: 22,6033           21111                           INDEX    PIPSLECT
000050: 22,6034           61102                           AD       SWAYPULS
000051: 22,6035           21111                           INDEX    PIPSLECT
000052: 22,6036           30045                           XCH      PIPAY
000053: 22,6037           10000                           CCS      A
000054: 22,6040           64516                           AD       ONE                                   #  INCREMENT PIPA COUNTER IF PULSE
000055: 22,6041           06045                           TC       ADDINC     +1
000056: 22,6042           06044                           TC       ADDINC
000057: 22,6043           06051                           TC       ENDCHEC
000058:
000059:
000060:
000061: 22,6044           44516        ADDINC             CS       ONE
000062: 22,6045           21111                           INDEX    PIPSLECT
000063: 22,6046           60045                           AD       PIPAY
000064: 22,6047           21111                           INDEX    PIPSLECT
000065: 22,6050           30045                           XCH      PIPAY
000066:
000067:
000068:
000069: 22,6051           11105        ENDCHEC            CCS      ENDSROT                               #  IF ENDSROT = +1 EXIT PROGRAM
000070: 22,6052           06055                           TC       CDTTHREE                              #  WHEN DTCOUNT = 6
000071: 22,6053           06065                           TC       TIMCALC
000072: 22,6054           06055                           TC       CDTTHREE
000073: 22,6055           44475        CDTTHREE           CS       SIX
000074: 22,6056           21111                           INDEX    PIPSLECT
000075: 22,6057           61100                           AD       DTCOUNT
000076: 22,6060           10000                           CCS      A
000077: 22,6061           06065                           TC       TIMCALC                               #  EXIT ON DTCOUNT = 6
000078: 22,6062           06124                           TC       ENDSWAY
000079: 22,6063           06065                           TC       TIMCALC
000080: 22,6064           06124                           TC       ENDSWAY
000081:
000082:
000083:
000084: 22,6065           21111        TIMCALC            INDEX    PIPSLECT
000085: 22,6066           11100                           CCS      DTCOUNT
000086: 22,6067           06100                           TC       DIMCOUNT                              #  ACC NOW CONTAINS DTCOUNT - 1
000087: 22,6070           06073                           TC       ALTPULSS                              #  IF DTCOUNT NORZ CHANGE
000088: 22,6071           06073                           TC       ALTPULSS                              #  SIGN OF SWAYPULSE
000089: 22,6072           30000                           NOOP
000090: 22,6073           21111        ALTPULSS           INDEX    PIPSLECT
000091: 22,6074           41102                           CS       SWAYPULS
000092: 22,6075           21111                           INDEX    PIPSLECT
000093: 22,6076           51102                           TS       SWAYPULS
000094: 22,6077           33521                           CAF      THIRTEEN                              #  AND RESTART DTCOUNT AT 13
000095: 22,6100           21111        DIMCOUNT           INDEX    PIPSLECT
000096: 22,6101           51100                           TS       DTCOUNT                               #  DTCOUNT NOW DIMINISHED BY ONE
000097:                                                                                                  #  OR RESET TO 13
000098: 22,6102           21111                           INDEX    PIPSLECT
000099: 22,6103           21100                           INDEX    DTCOUNT                               #  SELECT APPROPRIATE DELTA T FROM LIST
000100: 22,6104           36130                           CAF      DELTA
000101: 22,6105           25777                           EXTEND
000102: 22,6106           41110                           MP       TPERIOD                               #  AND MULTIPLY BY PERIOD
000103: 22,6107           64477                           AD       FIVE                                  #  ROUND RESULT
000104: 22,6110           25777                           EXTEND
000105: 22,6111           46146                           MP       ONETENTH
000106: 22,6112           50575                           TS       RUPTSTOR   +3                         #  TIME (DT) TILL NEXT INTERRUPT 10MS
000107: 22,6113           11111        NEXTRUPT           CCS      PIPSLECT
000108: 22,6114           06121                           TC       ZPIPRUPT                              #  CALL WAITLIST FOR ZPIPA
000109: 22,6115           30575                           XCH      RUPTSTOR   +3
000110: 22,6116           02173                           TC       WAITLIST                              #  CALL WAITLIST FOR YPIPA
000111: 22,6117           44024                           CADR     SWAYROTY
000112: 22,6120           06124                           TC       ENDSWAY
000113:
000114: 22,6121           30575        ZPIPRUPT           XCH      RUPTSTOR   +3
000115: 22,6122           02173                           TC       WAITLIST
000116: 22,6123           44017                           CADR     SWAYROTZ
000117: 22,6124           30032        ENDSWAY            XCH      LPRUPT                                #  REPLACE LP
000118: 22,6125           25777                           EXTEND
000119: 22,6126           44516                           MP       BIT1
000120: 22,6127           02256                           TC       TASKOVER                              #  END OF SWAY ROUTINE
000121:
000122:
000123:                                                                                                  #  MEMORY ASSIGNMENTS
000124:
000125:
000126:
000127: 22,6130     1100               DTCOUNT            EQUALS   AMEMORY                               #  YPIPA STATE COUNTER (0-7)
000128: 22,6130     1102               SWAYPULS           EQUALS   AMEMORY    +2                         #  NEXT YPIPA PULSE (+1,-1)
000129: 22,6130     1104               PHAZING            EQUALS   AMEMORY    +4                         #  TIME DELAY FOR ZPIPA START
000130:                                                                                                  #  INITIALIZED BY KEYBOARD
000131:                                                                                                  #  +XXXXX. E-2 SEC
000132:                                                                                                  #  MUST BE GREATER THAN 00001
000133: 22,6130     1105               ENDSROT            EQUALS   AMEMORY    +5                         #  FLAG FOR PROGRAM EXIT
000134:                                                                                                  #  SET BY KEYBOARD
000135:                                                                                                  #  = 00001. TO END SWAYROUTINE
000136:                                                                                                  #  = +00000. TO CONTINUE
000137: 22,6130     1110               TPERIOD            EQUALS   AMEMORY    +8D                        #  PERIOD OF SWAY
000138:                                                                                                  #  SET BY KEYBOARD
000139:                                                                                                  #  = XX.XXX SEC
000140: 22,6130     1111               PIPSLECT           EQUALS   AMEMORY    +9D                        #  INDEX FOR PIPA SELECTION
000141: 22,6130           01602        DELTA              DEC      .05482                                #  DELTA  TO
000142: 22,6131           01064                           DEC      .03444                                #  1
000143: 22,6132           00720                           DEC      .02833                                #  2
000144: 22,6133           00636                           DEC      .02528                                #  3
000145: 22,6134           00602                           DEC      .02356                                #  4
000146: 22,6135           00562                           DEC      .02259                                #  5
000147: 22,6136           00553                           DEC      .02213                                #  6
000148: 22,6137           00553                           DEC      .02213                                #  7
000149: 22,6140           00562                           DEC      .02259                                #  8
000150: 22,6141           00602                           DEC      .02356                                #  9
000151: 22,6142           00636                           DEC      .02528                                #  10
000152: 22,6143           00720                           DEC      .02833                                #  11
000153: 22,6144           01064                           DEC      .03444                                #  12
000154: 22,6145           04173                           DEC      .1325                                 #  13
000155: 22,6146           03146        ONETENTH           DEC      E-1        B-14
000156:
000157:
000158:                                                                                                  #  VERIFICATION ASSISTANVE FOR INFLIGHT
000159:
000160:
000161:
000162: 22,6147           04000        MYTEST             TC       INTPRET                               #                                        456
000163: 22,6150           45176                           DMOVE    0                                     #                                        356
000164: 22,6151           05174                                    ZERODP                                #  SET ANGLES TO ZERO AND TEST           256
000165: 22,6152           33523                           STORE    IGC                                   #                                        156
000166:
000167: 22,6153           47576                           NOLOD    0                                     #                                        056
000168: 22,6154           33525                           STORE    MGC                                   #                                        -56
000169:
000170: 22,6155           47576                           NOLOD    0                                     #                                        +56
000171: 22,6156           33521                           STORE    OGC
000172:
000173: 22,6157           76776                           ITC      0
000174: 22,6160           04262                                    DOTEST
000175:
000176: 22,6161           47176                           COMP     0                                     #  SET ANGLES TO -HALF AND TEST
000177: 22,6162           05200                                    HALFDP
000178: 22,6163           33523                           STORE    IGC
000179:
000180: 22,6164           47576                           NOLOD    0
000181: 22,6165           33525                           STORE    MGC
000182:
000183: 22,6166           47576                           NOLOD    0
000184: 22,6167           33521                           STORE    OGC
000185:
000186: 22,6170           76776                           ITC      0
000187: 22,6171           04262                                    DOTEST
000188:
000189: 22,6172           45175        CHGIGC             DMOVE    1                                     #  CHANGE IGC,MGC, AND OGC AND TEST
000190: 22,6173           70776                           DAD
000191: 22,6174           01317                                    AZIMUTH
000192: 22,6175           04256                                    INCRMT
000193: 22,6176           33523                           STORE    IGC
000194:
000195: 22,6177           47576                           NOLOD    0
000196: 22,6200           33317                           STORE    AZIMUTH
000197:
000198: 22,6201           66775                           DSU      1
000199: 22,6202           43772                           BPL      ITC
000200: 22,6203           01523                                    IGC
000201: 22,6204           05200                                    HALFDP
000202: 22,6205           04260                                    OUT
000203: 22,6206           04262                                    DOTEST
000204:
000205: 22,6207           45175        CHGMGC             DMOVE    1                                     #  CHANGE MGC AND OGC AND TEST
000206: 22,6210           70776                           DAD
000207: 22,6211           01321                                    GYROCSW
000208: 22,6212           04256                                    INCRMT
000209: 22,6213           33525                           STORE    MGC
000210:
000211: 22,6214           47576                           NOLOD    0
000212: 22,6215           33321                           STORE    GYROCSW
000213:
000214: 22,6216           66775                           DSU      1
000215: 22,6217           43772                           BPL      ITC
000216: 22,6220           01525                                    MGC
000217: 22,6221           05200                                    HALFDP
000218: 22,6222           04251                                    RESETM
000219: 22,6223           04262                                    DOTEST
000220:
000221: 22,6224           45175        CHGOGC             DMOVE    1                                     #  RESET OGC AND TEST
000222: 22,6225           70776                           DAD
000223: 22,6226           01323                                    PRELXGA
000224: 22,6227           04256                                    INCRMT
000225: 22,6230           33521                           STORE    OGC
000226:
000227: 22,6231           47576                           NOLOD    0
000228: 22,6232           33323                           STORE    PRELXGA
000229:
000230: 22,6233           66775                           DSU      1
000231: 22,6234           43772                           BPL      ITC
000232: 22,6235           01521                                    OGC
000233: 22,6236           05200                                    HALFDP
000234: 22,6237           04244                                    RESETO
000235: 22,6240           04262                                    DOTEST
000236:
000237: 22,6241           76776                           ITC      0
000238: 22,6242           04225                                    CHGOGC
000239:
000240: 22,6243           47176        RESETO             COMP     0                                     #  RESET OGC TO-HALF
000241: 22,6244           05200                                    HALFDP                                #  LOOP TO CHGMGC
000242: 22,6245           33323                           STORE    PRELXGA
000243:
000244: 22,6246           76776                           ITC      0
000245: 22,6247           04210                                    CHGMGC
000246:
000247: 22,6250           47176        RESETM             COMP     0                                     #  RESET MGC TO -HALF
000248: 22,6251           05200                                    HALFDP                                #  LOOP TO CHGIGC
000249: 22,6252           33321                           STORE    GYROCSW
000250:
000251: 22,6253           76776                           ITC      0
000252: 22,6254           04173                                    CHGIGC
000253:
000254: 22,6255           06314 31463  INCRMT             2DEC     .20
000255:
000256: 22,6257           77576        OUT                EXIT     0                                     #  END OF MAIN
000257: 22,6260           02124        LASTWORD           TC       ENDOFJOB
000258:
000259: 22,6261           45575        DOTEST             ITA      1
000260: 22,6262           75172                           VMOVE    ITC
000261: 22,6263           01315                                    LATITUDE
000262: 22,6264           15573                                    UNITX
000263: 22,6265           04313                                    MYROT
000264:
000265: 22,6266           47576                           NOLOD    0
000266: 22,6267           33403                           STORE    STARAD
000267:
000268: 22,6270           75175                           VMOVE    1
000269: 22,6271           76776                           ITC
000270: 22,6272           15601                                    UNITY
000271: 22,6273           04313                                    MYROT
000272:
000273: 22,6274           47576                           NOLOD    0
000274: 22,6275           33411                           STORE    STARAD     +6D
000275:
000276: 22,6276           75176                           VMOVE    0
000277: 22,6277           15573                                    UNITX
000278: 22,6300           32007                           STORE    6D
000279:
000280: 22,6301           75176                           VMOVE    0
000281: 22,6302           15601                                    UNITY
000282: 22,6303           32015                           STORE    12D
000283:
000284: 22,6304           76776                           ITC      0
000285: 22,6305           04761                                    AXISGEN
000286:
000287: 22,6306           76776                           ITC      0                                     #  SEND NEW VECTORS TO CALCGTA
000288: 22,6307           04353                                    CALCGTA
000289:
000290: 22,6310           44576                           ITCI     0
000291: 22,6311           01315                                    LATITUDE
000292: 22,6312           45575        MYROT              ITA      1                                     #  INITIALIZE
000293: 22,6313           43411                           TEST     SWITCH
000294: 22,6314           00052                                    S2
000295: 22,6315           00006                                    NBSMBIT
000296: 22,6316           04321                                    MYROT1
000297: 22,6317           00006                                    NBSMBIT
000298:
000299: 22,6320           75575        MYROT1             AXT,1    1                                     #  ROTATE X,Z  ABOUT  Y
000300: 22,6321           74423                           AXT,2    DMOVE
000301: 22,6322           00005                                    4
000302: 22,6323           00001                                    0
000303: 22,6324           01523                                    IGC
000304: 22,6325           32037                           STORE    30D
000305:
000306: 22,6326           76776                           ITC      0
000307: 22,6327           04566                                    ACCUROT
000308: 22,6330           75575                           AXT,1    1                                     #   ROTATE X,Y  ABOUT  Z
000309: 22,6331           74423                           AXT,2    DMOVE
000310: 22,6332           00003                                    2
000311: 22,6333           00005                                    4
000312: 22,6334           01525                                    MGC
000313: 22,6335           32037                           STORE    30D
000314:
000315: 22,6336           76776                           ITC      0
000316: 22,6337           04566                                    ACCUROT
000317:
000318: 22,6340           75575                           AXT,1    1                                     #  ROTATE  Z,Y ABOUT  X
000319: 22,6341           74423                           AXT,2    DMOVE
000320: 22,6342           00001                                    0
000321: 22,6343           00003                                    2
000322: 22,6344           01521                                    OGC
000323: 22,6345           32037                           STORE    30D
000324:
000325: 22,6346           76776                           ITC      0
000326: 22,6347           04566                                    ACCUROT
000327:
000328: 22,6350           44576                           ITCI     0
000329: 22,6351           00052                                    S2

End of include-file INFLIGHT_ALIGNMENT_PROGRAM.agc.  Parent file is MAIN.agc


