
Source Code


000002:                                                                                                  ## Copyright:   Public domain.
000003:                                                                                                  ## Filename:    INTER-BANK_COMMUNICATION.agc
000004:                                                                                                  ## Purpose:     A section of Corona revision 261.
000005:                                                                                                  ##              It is part of the source code for the Apollo Guidance Computer
000006:                                                                                                  ##              (AGC) for AS-202. No original listings of this software are
000007:                                                                                                  ##              available; instead, this file was created via disassembly of
000008:                                                                                                  ##              the core rope modules actually flown on the mission.
000009:                                                                                                  ## Assembler:   yaYUL
000010:                                                                                                  ## Contact:     Ron Burkey <info@sandroid.org>.
000011:                                                                                                  ## Website:     www.ibiblio.org/apollo/index.html
000012:                                                                                                  ## Mod history: 2023-05-27 MAS  Created from Solarium 55.
000013:
000014:
000015:                                                                                                  #        THE FOLLOWING SUBROUTINES ARE INTENDED TO FACILITATE INTER-BANK COMMUNICATION. ROUTINES ARE PROVIDED
000016:                                                                                                  #  FOR JUMPING TO A LOCATION IN ANOTHER BANK, CALLING A SUBROUTINE IN ANOTHER BANK, AND OBTAINING DATA FROM ANOTHER
000017:                                                                                                  #  BANK. IN ADDITION, A ROUTINE IS PROVIDED FOR MAKING UP A RETURN_ADDRESS CADR FOR USE BY THE CALLED SUBROUTINE.
000018:
000019:    5654                                           BANK     2
000020:    5654           50062        BANKCALL           TS       ADDRWD                                #  SUBROUTINE CALL WITH TRANSMISSION BOTH
000021:    5655           30001                           XCH      Q                                     #  WAYS IN A. THE CADR OF THE CALLED
000022:    5656           64516                           AD       ONE                                   #  ROUTINE SHOULD IMMEDIATELY FOLLOW THE
000023:    5657           50001                           TS       Q                                     #  TC BANKCALL.
000024:    5660           20000                           INDEX    A
000025:    5661           27777                           CAF      0          -1                         #  PICK UP CADR AND FALL INTO SWCALL.
000026:
000027:    5662           50071        SWCALL             TS       TEMQS                                 #  SWCALL IS ALOS USED TO CALL SUBROUTINES
000028:    5663           30015                           XCH      BANKREG                               #  IN OTHER BANKS, BUT THE CADR ARRIVES IN
000029:    5664           50072                           TS       BANKTEM                               #  A. DATA MAY BE TRANSMITTED BACK TO THE
000030:    5665           30001                           XCH      Q                                     #  CALLING PROGRAM IN A, HOWEVER.
000031:    5666           30071                           XCH      TEMQS                                 #  RETURN INFORMATION NOW COMPLETE.
000032:    5667           50114                           TS       ESCAPE
000033:    5670           72665                           MASK     70K                                   #  PROVISION FOR CALLING A ROUTINE IN
000034:    5671           10000                           CCS      A                                     #  FIXED-FIXED (OF QUESTIONABLE VALUE).
000035:    5672           05674                           TC       +2                                    #  SPECIAL TREATMENT REQUIRED IF NON-ZERO.
000036:    5673           05676                           TC       +3                                    #  INPUT CADR OK AS IS.
000037:
000038:    5674           40015                           CS       BANKREG                               #  FORM PROPER 12 BIT ADDRESS.
000039:    5675           64373                           AD       6K
000040:    5676           60114                 +3        AD       ESCAPE                                #  PROPER CADRS COME HERE WITH C(A) = 0.
000041:    5677           30062                           XCH      ADDRWD                                #  SO A CAN TRANSMIT WITH BANKCALL.
000042:    5700           20062                           INDEX    ADDRWD
000043:    5701           00000                           TC       0                                     #  SETTING Q TO SWRETURN.
000044:
000045:    5702           30072        SWRETURN           XCH      BANKTEM                               #  RETURN TO CALLER, TRANSMITTING THROUGH A
000046:    5703           50015                           TS       BANKREG
000047:    5704           30072                           XCH      BANKTEM                               #  RESTORE A AS UPON ARRIVAL TO SWRETURN.
000048:    5705           00071                           TC       TEMQS                                 #  RETURN.
000049:
000050:
000051:    5706           35501        MAKECADR           CAF      ZERO                                  #  LEAVES RETURN-ADDRESS CADR (AS SET BY
000052:    5707           60071                           AD       TEMQS                                 #  SWCALL OR BANKCALL) IN ADDRWD.
000053:    5710           50062                           TS       ADDRWD
000054:    5711           62165                           AD       32K                                   #  SEE IF BANK INFORMATION NEEDED (USUAL).
000055:    5712           50034                           TS       OVCTR
000056:    5713           00001                           TC       Q                                     #  ADDRWD SET OK IF NO OVERFLOW (IN FF).
000057:
000058:    5714           30034                           XCH      OVCTR                                 #  CONTAINS LOW 10 BITS ONLY.
000059:    5715           60072                           AD       BANKTEM
000060:    5716           50062                           TS       ADDRWD                                #  RETURN CADR NOW COMPLETE.
000061:    5717           00001                           TC       Q
000062:
000063:    5720     2165               32K                EQUALS   PRIO32
000064:    5720           30001        POSTJUMP           XCH      Q                                     #  ONE-WAY BANK TO BANK JUMP, WITH NO
000065:    5721           20000                           INDEX    A                                     #  RETURN ADDRESS. THIS VERSION TRANSMITS
000066:    5722           30000                           CAF      0                                     #  THROUGH A IF DESIRED.
000067:
000068:    5723           50015        BANKJUMP           TS       BANKREG                               #  SAME AS ABOVE ONLY ADDRESS ARRIVES IN A.
000069:    5724           74606                           MASK     LOW10                                 #  BANKJUMP AND POSTJUMP MAY BE USED IN
000070:    5725           30001                           XCH      Q                                     #  INTERRUPT OR UNDER EXEC, BUT BANKCALL
000071:    5726           20001                           INDEX    Q                                     #  AND SWCALL MAY BE USED ONLY UNDER EXEC.
000072:    5727           06000                           TC       6000
000073:
000074:
000075:    5730           50114        DATACALL           TS       ESCAPE                                #  SUBROUTINE TO RETRIEVE DATA IN ANOTHER
000076:    5731           30015                           XCH      BANKREG                               #  BANK. THE CADR OF THE LOCATION OF INTER-
000077:    5732           30114                           XCH      ESCAPE                                #  EST ARRIVES IN A AND ITS CONTENTS ARE IN
000078:    5733           74606                           MASK     LOW10                                 #  A ON EXIT. THIS MAY BE USED ONLY UNDER
000079:    5734           20000                           INDEX    A                                     #  EXECUTIVE.
000080:    5735           36000                           CAF      6000                                  #  REQUESTED DATA NOW ACQUIRED.
000081:
000082:    5736           30114                           XCH      ESCAPE
000083:    5737           50015                           TS       BANKREG
000084:    5740           30114                           XCH      ESCAPE
000085:    5741           00001                           TC       Q
000086:
000087:
000088:                                                                                                  #        THE FOLLOWING ROUTINES ARE INTERRUPT ANALOGS OF BANKCALL AND SWCALL. BANK-TO-BANK ONLY.
000089:
000090:    5742           50637        IBNKCALL           TS       RUPTREG1
000091:    5743           30001                           XCH      Q
000092:    5744           64516                           AD       ONE
000093:    5745           50001                           TS       Q
000094:    5746           20000                           INDEX    A
000095:    5747           27777                           CAF      0          -1
000096:
000097:    5750           50641        ISWCALL            TS       RUPTREG3
000098:    5751           30015                           XCH      BANKREG
000099:    5752           50640                           TS       RUPTREG2
000100:    5753           30001                           XCH      Q
000101:    5754           30641                           XCH      RUPTREG3
000102:    5755           74606                           MASK     LOW10
000103:    5756           30637                           XCH      RUPTREG1
000104:    5757           20637                           INDEX    RUPTREG1
000105:    5760           06000                           TC       6000
000106:
000107:    5761           30640        ISWRETRN           XCH      RUPTREG2
000108:    5762           50015                           TS       BANKREG
000109:    5763           30640                           XCH      RUPTREG2
000110:    5764           00641                           TC       RUPTREG3

End of include-file INTER-BANK_COMMUNICATION.agc.  Parent file is MAIN.agc


