
Source Code


000002:                                                                                                  ## Copyright:   Public domain.
000003:                                                                                                  ## Filename:    INTERRUPT_TRANSFER_ROUTINES.agc
000004:                                                                                                  ## Purpose:     A section of Corona revision 261.
000005:                                                                                                  ##              It is part of the source code for the Apollo Guidance Computer
000006:                                                                                                  ##              (AGC) for AS-202. No original listings of this software are
000007:                                                                                                  ##              available; instead, this file was created via disassembly of
000008:                                                                                                  ##              the core rope modules actually flown on the mission.
000009:                                                                                                  ## Assembler:   yaYUL
000010:                                                                                                  ## Contact:     Ron Burkey <info@sandroid.org>.
000011:                                                                                                  ## Website:     www.ibiblio.org/apollo/index.html
000012:                                                                                                  ## Mod history: 2023-05-27 MAS  Created from Solarium 55.
000013:
000014:    2000                                           SETLOC   2000
000015:
000016:    2000           50026                           TS       ARUPT
000017:    2001           30001                           XCH      Q
000018:    2002           30027                           XCH      QRUPT
000019:    2003           02177                           TC       T3RUPT
000020:
000021:    2004           50026                           TS       ARUPT
000022:    2005           30001                           XCH      Q
000023:    2006           30027                           XCH      QRUPT
000024:    2007           02034                           TC       ERRUPT
000025:
000026:    2010           50026                           TS       ARUPT
000027:    2011           30001                           XCH      Q
000028:    2012           30027                           XCH      QRUPT
000029:    2013           02626                           TC       T4RUPT                                #  OUTPUT CONTROL.
000030:
000031:    2014           50026                           TS       ARUPT
000032:    2015           30001                           XCH      Q
000033:    2016           30027                           XCH      QRUPT
000034:    2017           02042                           TC       KEYRUPT
000035:
000036:    2020           50026                           TS       ARUPT
000037:    2021           30001                           XCH      Q
000038:    2022           30027                           XCH      QRUPT
000039:    2023           02037                           TC       UPRUPT
000040:
000041:    2024           50026                           TS       ARUPT
000042:    2025           30001                           XCH      Q
000043:    2026           30027                           XCH      QRUPT
000044:    2027           02377                           TC       DOWNRUPT                              #  DOWNLINK.
000045:
000046:    2030           20017                           INHINT                                         #  GOJAM - PARITY ALARM, POWER FAIL, ETC.
000047:    2031           32075                           CAF      EXECBANK
000048:
000049:    2032           50015                           TS       BANKREG
000050:    2033           07005                           TC       GOPROG
000051:
000052:    2034           03015        ERRUPT             TC       ALARM                                 #  ***NO ERRUPTS IN SYSTEM 5***
000053:    2035           01101                           OCT      01101
000054:    2036           02266                           TC       NBRESUME
000055:
000056:    2037           32075        UPRUPT             CAF      UPBANK                                #  CALL IN BANK WITH UPRUPT PROGRAM.
000057:    2040           30015                           XCH      BANKREG
000058:    2041           07367                           TC       UPRUPTB
000059:
000060:    2042           32045        KEYRUPT            CAF      MODEBANK
000061:    2043           30015                           XCH      BANKREG
000062:    2044           06461                           TC       KEYRUPTA
000063:
000064:    2045           30461        MODEBANK           CADR     KEYRUPTA

End of include-file INTERRUPT_TRANSFER_ROUTINES.agc.  Parent file is MAIN.agc


