
Source Code


000002:                                                                                                  ## Copyright:   Public domain.
000003:                                                                                                  ## Filename:    IRIG_PULSE-TORQUING_ROUTINES.agc
000004:                                                                                                  ## Purpose:     A section of Corona revision 261.
000005:                                                                                                  ##              It is part of the source code for the Apollo Guidance Computer
000006:                                                                                                  ##              (AGC) for AS-202. No original listings of this software are
000007:                                                                                                  ##              available; instead, this file was created via disassembly of
000008:                                                                                                  ##              the core rope modules actually flown on the mission.
000009:                                                                                                  ## Assembler:   yaYUL
000010:                                                                                                  ## Contact:     Ron Burkey <info@sandroid.org>.
000011:                                                                                                  ## Website:     www.ibiblio.org/apollo/index.html
000012:                                                                                                  ## Mod history: 2023-05-27 MAS  Created from Solarium 55.
000013:
000014:
000015:                                                                                                  #        THE FOLLOWING PULSE-TORQUING OPTIONS ARE AVAILABLE:
000016:
000017:                                                                                                  #        GYROSPNT                SINGLE PRECISION INPUTS WITH NO TWITCH (IE ZERO OUTPUT ON ZERO COMMAND).
000018:                                                                                                  #        GYROSPTW                SINGLE PRECISION INPUT WITH TWITCH ON ZERO (2+ THEN 2-).
000019:                                                                                                  #        GYRODPNT                DOUBLE PRECISION INPUTS (SIGN AGREEMENT UNNECESSARY) WITH NO TWITCH.
000020:
000021:                                                                                                  #  ALL OF THE ABOVE SHOULD BE FOLLOWED EVENTUALLY BY A CALL TO IMUSTALL.
000022:
000023:
000024:
000025: 14,7335                                           BANK     14
000026: 14,7335           50115        GYROSPNT           TS       MPAC                                  #  ADDRESS OF THREE REGISTER COMMAND SET
000027: 14,7336           10764                           CCS      LGYRO                                 #  ARRIVES IN A. SEE IF GYRO ROUTINES BUSY.
000028: 14,7337           07512                           TC       GYROBUSY                              #  (AND RETURN WHEN AVAILABLE.)
000029:
000030: 14,7340           35503        SPNT               CAF      TWO                                   #  SET UP LOOP TO AUGMENT (+ OR -) EACH
000031: 14,7341           50116                           TS       MPAC       +1                         #  COMMAND BY TWO IF NON-ZERO.
000032: 14,7342           60000                           DOUBLE
000033: 14,7343           60115                           AD       MPAC
000034: 14,7344           50077                           TS       BUF
000035: 14,7345           20000                           INDEX    A
000036: 14,7346           10000                           CCS      0
000037: 14,7347           35503                           CAF      TWO
000038: 14,7350           07352                           TC       +2                                    #  (NO INCREMENT IF +-0).
000039: 14,7351           45503                           CS       TWO
000040: 14,7352           20077                           INDEX    BUF
000041: 14,7353           60000                           AD       0
000042: 14,7354           20077                           INDEX    BUF
000043: 14,7355           30000                           XCH      0                                     #  (JUST TO BE SAFE).
000044:
000045: 14,7356           10116                           CCS      MPAC       +1
000046: 14,7357           07341                           TC       SPNT       +1
000047:
000048: 14,7360           20017        SPGYREX            INHINT
000049: 14,7361           34516                           CAF      ONE
000050: 14,7362           02173                           TC       WAITLIST
000051: 14,7363           21507                           CADR     DOGYROSP
000052:
000053: 14,7364           44473        GYROEX2            CS       THREE                                 #  INITIALIZE CDUIND TO START GYRO TASKS
000054: 14,7365           50677                           TS       CDUIND                                #  AT Y GYRO (ORDER IS YZX).
000055: 14,7366           45502                           CS       FOUR
000056: 14,7367           60115                           AD       MPAC                                  #  SET LGYROD PNZ TO INDICATE GYRO ACTIVITY
000057: 14,7370           50764                           TS       LGYRO                                 #  AND USE LGYRO TO STORE THE ADDRESS OFF
000058: 14,7371           06020                           TC       MODEEXIT                              #  THE COMMANDS.
000059:
000060:
000061:                                                                                                  #        SINGLE PRECISION WITH TWITCH.
000062:
000063: 14,7372           50115        GYROSPTW           TS       MPAC
000064: 14,7373           10764                           CCS      LGYRO                                 #  SAME PROLOGUE AS GYROSPNT
000065: 14,7374           07512                           TC       GYROBUSY
000066:
000067: 14,7375           35503        SPTW               CAF      TWO                                   #  SET UP LOOP TO AUGMENT BY 2 (+ OR-),
000068: 14,7376           50116                           TS       MPAC       +1                         #  WITH A PLUS TWO AUGMENT ON +-0.
000069: 14,7377           60000                           DOUBLE
000070: 14,7400           60115                           AD       MPAC
000071: 14,7401           50077                           TS       BUF
000072: 14,7402           20000                           INDEX    A
000073: 14,7403           10000                           CCS      0
000074: 14,7404           07407                           TC       +3
000075: 14,7405           07407                           TC       +2
000076: 14,7406           07411                           TC       +3
000077:
000078: 14,7407           35503                           CAF      TWO
000079: 14,7410           07412                           TC       +2
000080:
000081: 14,7411           45503                 +3        CS       TWO
000082: 14,7412           20077                           INDEX    BUF
000083: 14,7413           60000                           AD       0
000084: 14,7414           20077                           INDEX    BUF
000085: 14,7415           30000                           XCH      0
000086:
000087: 14,7416           10116                           CCS      MPAC       +1
000088: 14,7417           07376                           TC       SPTW       +1
000089:
000090: 14,7420           07360                           TC       SPGYREX                               #  SET UP PULSE-TORQUING TASKS.
000091:
000092:
000093:                                                                                                  #        DOUBLE PRECISION INPUTS WITH NO TWITCH ON ZERO.
000094:
000095: 14,7421           50113        GYRODPNT           TS       ARETURN                               #  SAVE ADDRESS OF INPUT COMMANDS.
000096: 14,7422           05706                           TC       MAKECADR                              #  SAVE RETURN ADDRESS SINCE WE MUST
000097: 14,7423           30062                           XCH      ADDRWD                                #  DO A BANKCALL TO TPAGREE.
000098: 14,7424           50064                           TS       TEM11
000099: 14,7425           35501                           CAF      ZERO
000100: 14,7426           50117                           TS       MPAC       +2
000101: 14,7427           35503        DPNT               CAF      TWO
000102:
000103: 14,7430           50077                           TS       BUF                                   #  THIS LOOP FORCES SIGN AGREEMENT IN THE
000104: 14,7431           60000                           DOUBLE                                         #  DP INPUT COMMANDS, AUGMENTING ON
000105: 14,7432           60113                           AD       ARETURN                               #  NON-ZERO.
000106: 14,7433           50100                           TS       BUF        +1
000107: 14,7434           20000                           INDEX    A
000108: 14,7435           30000                           XCH      0
000109: 14,7436           50115                           TS       MPAC
000110: 14,7437           20100                           INDEX    BUF        +1
000111: 14,7440           30001                           XCH      1
000112: 14,7441           50116                           TS       MPAC       +1
000113: 14,7442           05654                           TC       BANKCALL
000114: 14,7443           07154                           CADR     TPAGREE
000115:
000116: 14,7444           10000                           CCS      A                                     #  AUGMENT BYTWO IF NON-ZERO. TPAGREE
000117: 14,7445           35503                           CAF      TWO                                   #  RETURNS +1,-0,-1.
000118: 14,7446           65503                           AD       TWO
000119: 14,7447           64340                           AD       NEG2
000120:
000121: 14,7450           60116                           AD       MPAC       +1                         #  DIVIDE BY POSMAX - IE PLACE IN THE MAJOR
000122: 14,7451           60115                           AD       MPAC                                  #  PART OF EACH COMMAND THE NUMBER OF
000123: 14,7452           20100                           INDEX    BUF        +1                         #  POSMAX PULSE TRAINS TO BE PUT OUT,
000124: 14,7453           50001                           TS       1                                     #  LEAVING THE REMAINDER IN THE MINOR PART.
000125: 14,7454           07464                           TC       +8D
000126:
000127: 14,7455           50001                           TS       Q                                     #  ON OVERFLOW, ADD +-1 TO THE MINOR PART
000128: 14,7456           20100                           INDEX    BUF        +1                         #  AS WELL AS THE MAJOR PART.
000129: 14,7457           60001                           AD       1
000130: 14,7460           20100                           INDEX    BUF        +1                         #  NO OVERFLOW HERE.
000131: 14,7461           50001                           TS       1
000132: 14,7462           30001                           XCH      Q
000133: 14,7463           07465                           TC       +2
000134:
000135: 14,7464           35501                 +8D       CAF      ZERO
000136: 14,7465           60115                           AD       MPAC
000137: 14,7466           20100                           INDEX    BUF        +1
000138: 14,7467           30000                           XCH      0
000139: 14,7470           10077                           CCS      BUF
000140: 14,7471           07430                           TC       DPNT       +1
000141:
000142: 14,7472           30113                           XCH      ARETURN                               #  PREPARE FOR POSSIBLE GYROBUSY CALL.
000143: 14,7473           50115                           TS       MPAC
000144: 14,7474           10764                           CCS      LGYRO
000145: 14,7475           07531                           TC       GYROBSY2
000146:
000147: 14,7476           32261                           CAF      BANKMASK
000148: 14,7477           70064                           MASK     TEM11
000149: 14,7500           50072                           TS       BANKTEM
000150: 14,7501           34606                           CAF      LOW10
000151: 14,7502           70064                           MASK     TEM11
000152: 14,7503           64373                           AD       6K
000153: 14,7504           50071                           TS       TEMQS
000154: 14,7505           20017                           INHINT
000155: 14,7506           34516                           CAF      ONE
000156: 14,7507           02173                           TC       WAITLIST
000157: 14,7510           21574                           CADR     DOGYRO
000158:
000159: 14,7511           07364                           TC       GYROEX2
000160:
000161:
000162:                                                                                                  #        GYRO STALLING ROUTINES - CALLED VERY RARELY BY AT MOST ONE ROUTINE AT A TIME.
000163:
000164: 14,7512           30001        GYROBUSY           XCH      Q                                     #  RETURN ADDRESS TO MPAC.
000165: 14,7513           50117                           TS       MPAC       +2
000166:
000167: 14,7514           05706                           TC       MAKECADR                              #  CALLERS RETURN CADR TO MPAC +1.
000168: 14,7515           30062                           XCH      ADDRWD
000169: 14,7516           50116                           TS       MPAC       +1
000170: 14,7517           37535        REGSLEEP           CAF      CADRNEWG
000171: 14,7520           02127                           TC       JOBSLEEP                              #  AT STANDARD LOCATION.
000172:
000173: 14,7521           10764        NEWGYRO            CCS      LGYRO                                 #  SEE IF ROUTINES STILL AVAILABLE (SHOULD
000174: 14,7522           07517                           TC       REGSLEEP                              #  BE). IF NOT, WAIT SOME MORE.
000175:
000176: 14,7523           30116                           XCH      MPAC       +1                         #  RESTORE RETURN CADR TO STANDARD SWCALL
000177: 14,7524           50072                           TS       BANKTEM                               #  (BANKCALL) FORM.
000178: 14,7525           74606                           MASK     LOW10
000179: 14,7526           64373                           AD       6K
000180: 14,7527           50071                           TS       TEMQS
000181: 14,7530           00117                           TC       MPAC       +2
000182:
000183: 14,7531           30001        GYROBSY2           XCH      Q                                     #  DP WAIT.
000184: 14,7532           50117                           TS       MPAC       +2
000185: 14,7533           30064                           XCH      TEM11
000186: 14,7534           07516                           TC       REGSLEEP   -1
000187:
000188: 14,7535           31521        CADRNEWG           CADR     NEWGYRO
000189:
000190:
000191:                                                                                                  #        TASKS FOR SENDING OUT SINGLE PRECISION COMMANDS.
000192:
000193: 10,7507                                           BANK     10
000194: 10,7507           07707        DOGYROSP           TC       SETUPSUB                              #  COMMON INITIALIZATION SUBROUTINE.
000195: 10,7510           20641                           INDEX    RUPTREG3
000196: 10,7511           10000                           CCS      0                                     #  PUT OUT NEXT COMMAND.
000197: 10,7512           07526                           TC       POSGOUTS
000198: 10,7513           07515                           TC       GYROADVS                              #  NO COMMAND IF +-0.
000199: 10,7514           07542                           TC       NEGGOUTS
000200:
000201: 10,7515           40677        GYROADVS           CS       CDUIND                                #  ADVANCE TO NEXT GYRO IN ORDER YZX.
000202: 10,7516           20000                           INDEX    A
000203: 10,7517           07516                           TC       -1
000204: 10,7520           07724                           TC       ENDGYRO
000205: 10,7521           34475                           CAF      SIX
000206: 10,7522           64340                           AD       NEG2
000207: 10,7523           40000                           COM
000208: 10,7524           50677                           TS       CDUIND
000209: 10,7525           07507                           TC       DOGYROSP
000210:
000211: 10,7526           64516        POSGOUTS           AD       ONE
000212: 10,7527           50034                           TS       OVCTR
000213: 10,7530           06613                           TC       OUT2SUB                               #  PUT OUT COMMAND, SAVING COMMAND FOR
000214: 10,7531           07675                           TC       GETDT                                 #  DT COMPUTATION.
000215: 10,7532           30032                           XCH      LPRUPT
000216: 10,7533           02173                           TC       WAITLIST
000217: 10,7534           21536                           CADR     TWEAKSP                               #  PUT OUT 2- WHEN COMMAND IS OUT.
000218: 10,7535           02256                           TC       TASKOVER                              #  ALL FOR NOW.
000219:
000220: 10,7536           07707        TWEAKSP            TC       SETUPSUB                              #  INITIALIZE.
000221: 10,7537           45503                           CS       TWO                                   #  PUT OUT 2- AND ADVANCE TO NEXT GYRO.
000222: 10,7540           06613                           TC       OUT2SUB
000223: 10,7541           07515                           TC       GYROADVS
000224:
000225: 10,7542           64516        NEGGOUTS           AD       ONE                                   #  GET ABS OF COMMAND AND SAVE IN OVCTR.
000226: 10,7543           50034                           TS       OVCTR
000227:
000228: 10,7544           35503                           CAF      TWO                                   #  PUT OUT 2+ BEFORE NEGATIVE PULSE TRAIN.
000229: 10,7545           06613                           TC       OUT2SUB
000230: 10,7546           07675                           TC       GETDT                                 #  COMPUTE WAITLIST DELTA T.
000231:
000232: 10,7547           35362                           CAF      SEVEN                                 #  PUT IN A DELAY TO ALLOW 2+ PULSES
000233: 10,7550           10000                           CCS      A                                     #  ENOUGH TIME TO GET OUT (3 PULSE TIMES).
000234: 10,7551           07550                           TC       -1
000235:
000236: 10,7552           40034                           CS       OVCTR                                 #  PUT OUT NEGATIVE COMMAND.
000237: 10,7553           06613                           TC       OUT2SUB
000238:
000239: 10,7554           30032                           XCH      LPRUPT                                #  CALL WAITLIST FOR TASK DUE WHEN PULSE
000240: 10,7555           02173                           TC       WAITLIST                              #  TRAIN COMPLETE.
000241: 10,7556           21515                           CADR     GYROADVS
000242: 10,7557           02256                           TC       TASKOVER
000243:
000244:
000245:                                                                                                  #        WAITLIST TASKS TO SEND OUT DP PULSE TRAINS TO THE GYROS.
000246:
000247: 10,7560           07707        TWEAKGY            TC       SETUPSUB                              #  FINISHED WITH POSITIVE TRAINS TO A GYRO.
000248: 10,7561           45503                           CS       TWO                                   #   SEND OUT 2- TO LEAVE GYRO IN - STATE.
000249: 10,7562           06613                           TC       OUT2SUB
000250:
000251: 10,7563           40677        GYROADV            CS       CDUIND                                #  ADVANCE TO THE NEXT GYRO IN ORDER YZX.
000252: 10,7564           74720                           MASK     LOW7                                  #  BIT14 IS 1 IF 2+ PULSES HAD BEEN SENT
000253: 10,7565           20000                           INDEX    A                                     #   BEFORE A NEGATIVE COMMAND.
000254: 10,7566           07565                           TC       -1
000255: 10,7567           07720                           TC       ENDGYRO1
000256: 10,7570           34475                           CAF      SIX
000257: 10,7571           64340                           AD       NEG2                                  #  (CAME HERE FROM TC WITH C(A)=4.)
000258: 10,7572           40000                           COM
000259: 10,7573           50677                           TS       CDUIND
000260:
000261: 10,7574           07707        DOGYRO             TC       SETUPSUB                              #  SERVICE GYRO WHOSE *NUMBER* IS IN CDUIND
000262: 10,7575           20641                           INDEX    RUPTREG3
000263: 10,7576           10000                           CCS      0                                     #  MAJOR PART IS POSMAX COUNT.
000264: 10,7577           07610                           TC       DOPOSMAX                              #  PUT OUT POSMAX.
000265: 10,7600           07602                           TC       DOMINOR
000266: 10,7601           07620                           TC       DONEGMAX
000267:
000268: 10,7602           20641        DOMINOR            INDEX    RUPTREG3                              #  SEND OUT REMAINDER OF COMMAND.
000269: 10,7603           10001                           CCS      1
000270: 10,7604           07643                           TC       POSGOUT
000271: 10,7605           07561                           TC       TWEAKGY    +1                         #  FINISHED WITH LONG . PULSE TRAIN.
000272: 10,7606           07653                           TC       NEGGOUT
000273: 10,7607           07563                           TC       GYROADV                               #  DONE WITH LONG - TRAIN OR ZERO INPUT.
000274:
000275: 10,7610           20641        DOPOSMAX           INDEX    RUPTREG3                              #  PUT AWAY DECREMENTED POSMAX COUNT.
000276: 10,7611           50000                           TS       0
000277: 10,7612           34476                           CAF      POSMAX
000278: 10,7613           06613        DOMAX              TC       OUT2SUB
000279: 10,7614           37743                           CAF      FULLDT
000280:
000281: 10,7615           02173        GYROWAIT           TC       WAITLIST
000282: 10,7616           21574                           CADR     DOGYRO
000283: 10,7617           02256                           TC       TASKOVER
000284:
000285:
000286: 10,7620           40000        DONEGMAX           COM
000287: 10,7621           20641                           INDEX    RUPTREG3
000288: 10,7622           50000                           TS       0                                     #  DECREMENTED POSMAX (NEGMAX) COUNT.
000289: 10,7623           40677                           CS       CDUIND                                #  SEE IF 2+ PULSES HAVE BEEN PUT OUT YET,
000290: 10,7624           74520                           MASK     NEG1/2                                #   LEAVING WORD THAT THEY WILL BE OUT
000291: 10,7625           64501                           AD       BIT14                                 #   BY TASKOVER TIME.
000292: 10,7626           40000                           COM
000293: 10,7627           30677                           XCH      CDUIND
000294: 10,7630           74501                           MASK     BIT14
000295: 10,7631           10000                           CCS      A
000296: 10,7632           07634                           TC       +2
000297: 10,7633           07641                           TC       NEGMAX2                               #  ALREADY OUT.
000298:
000299: 10,7634           35503                           CAF      TWO                                   #  NOT OUT YET - DO SO.
000300: 10,7635           06613                           TC       OUT2SUB
000301: 10,7636           35503                           CAF      TWO                                   #  WAIT FOR THEM TO GET OUT BEFORE DELIVER-
000302: 10,7637           10000                           CCS      A                                     #   ING THE REAL COMMAND.
000303: 10,7640           07637                           TC       -1
000304:
000305: 10,7641           44476        NEGMAX2            CS       POSMAX
000306: 10,7642           07613                           TC       DOMAX
000307:
000308: 10,7643           64516        POSGOUT            AD       ONE                                   #  FRACTIONAL POSITIVE COMMAND.
000309: 10,7644           50034                           TS       OVCTR
000310: 10,7645           06613                           TC       OUT2SUB                               #  DELIVER COMMAND.
000311: 10,7646           07675                           TC       GETDT                                 #  GET TIME TO END OF PULSE TRAIN.
000312: 10,7647           30032                           XCH      LPRUPT                                #  (ANSWER LEFT IN LPRUPT).
000313: 10,7650           02173                           TC       WAITLIST
000314: 10,7651           21560                           CADR     TWEAKGY                               #  SUPPLY 2- PULSES AT END.
000315: 10,7652           02256                           TC       TASKOVER
000316:
000317: 10,7653           64516        NEGGOUT            AD       ONE                                   #  FRACTIONAL NEGATIVE COMMAND.
000318: 10,7654           50034                           TS       OVCTR
000319: 10,7655           40677                           CS       CDUIND                                #  SEE IF 2+ PULSES ALREADY OUT.
000320: 10,7656           74501                           MASK     BIT14
000321: 10,7657           10000                           CCS      A
000322: 10,7660           07666                           TC       NEGGOUT2
000323:
000324: 10,7661           35503                           CAF      TWO
000325: 10,7662           06613                           TC       OUT2SUB
000326:
000327: 10,7663           35362                           CAF      SEVEN                                 #  ALLOW AT LEAST 3 PULSE TIMES FOR THE 2+
000328: 10,7664           10000                           CCS      A                                     #  PULSES TO GET OUT.
000329: 10,7665           07664                           TC       -1
000330:
000331: 10,7666           07675        NEGGOUT2           TC       GETDT
000332: 10,7667           40034                           CS       OVCTR                                 #  DELIVER COMMAND.
000333: 10,7670           06613                           TC       OUT2SUB
000334: 10,7671           30032                           XCH      LPRUPT                                #  GET WAITLIST DT LEFT BY  GETDT  .
000335: 10,7672           02173                           TC       WAITLIST
000336: 10,7673           21563                           CADR     GYROADV
000337: 10,7674           02256                           TC       TASKOVER
000338:
000339:
000340:                                                                                                  #        SUBROUTINES USED BY TASKS.
000341:
000342: 10,7675           30003        GETDT              XCH      LP                                    #  COMPUTE NUMBER OF 10 MS TICKS IT WILL
000343: 10,7676           50032                           TS       LPRUPT                                #   TAKE THE PULSE TRAIN WHOSE MAGNITUDE IS
000344: 10,7677           34505                           CAF      BIT10                                 #   IN OVCTR TO BE DELIVERED AT A RATE OF
000345: 10,7700           25777                           EXTEND                                         #   3200 PPS.
000346: 10,7701           40034                           MP       OVCTR
000347: 10,7702           65503                           AD       TWO                                   #  INTERRUPT AND ROUND-OFF UNCERTAINTIES.
000348: 10,7703           30032                           XCH      LPRUPT                                #  LEAVE ANSWER IN LPRUPT.
000349: 10,7704           25777                           EXTEND
000350: 10,7705           44516                           MP       ONE
000351: 10,7706           00001                           TC       Q
000352:
000353:
000354:
000355: 10,7707           35501        SETUPSUB           CAF      ZERO                                  #  SETS UP MISCELLANEOUS REGISTERS.
000356: 10,7710           50640                           TS       RUPTREG2                              #  USED BY OUT2SUB.
000357: 10,7711           40677                           CS       CDUIND
000358: 10,7712           74720                           MASK     LOW7                                  #  KILL 2+ BIT.
000359: 10,7713           50637                           TS       RUPTREG1
000360: 10,7714           60000                           DOUBLE
000361: 10,7715           60764                           AD       LGYRO
000362: 10,7716           50641                           TS       RUPTREG3                              #  USED FOR INDEXING GYROD SET.
000363: 10,7717           00001                           TC       Q
000364:
000365: 10,7720           34516        ENDGYRO1           CAF      ONE                                   #  SPLIT INTO TWO TASKS SO IT WONT LAST TOO
000366: 10,7721           02173                           TC       WAITLIST                              #  LONG IN ANY ONE INTERRUPT.
000367: 10,7722           21724                           CADR     ENDGYRO
000368: 10,7723           02256                           TC       TASKOVER
000369:
000370: 10,7724           35501        ENDGYRO            CAF      ZERO                                  #  SHOW THAT THE GYROS ARE NOW AVAILABLE.
000371: 10,7725           50764                           TS       LGYRO
000372:
000373: 10,7726           30007                           XCH      IN3                                   #  RESTORE CDUIND
000374: 10,7727           30007                           XCH      IN3                                   #  BY CHECKING IMU MODE
000375: 10,7730           77742                           MASK     OCT122                                #  IMUCOARS, IMUATTC, IMUREENT MASK
000376: 10,7731           10000                           CCS      A
000377: 10,7732           45501                           CS       ZERO                                  #  TO +0 IF MODES ACTIVE
000378: 10,7733           40000                           COM                                            #  TO -0 IF INACTIVE
000379: 10,7734           50677                           TS       CDUIND
000380:
000381: 10,7735           37741                           CAF      LNEWGYRO                              #  WAKE UP ANY JOB WHICH MIGHT BE WAITING
000382: 10,7736           02060                           TC       JOBWAKE                               #  FOR THE GYROS (AT MOST ONE).
000383:
000384: 10,7737           05720                           TC       POSTJUMP                              #  RETURN TO ENDIMU SEQUENCE IN MAIN MODE
000385: 10,7740           30171                           CADR     IMUFINED                              #  BANK (CHECKS IMU AND CDU FAIL SIGNALS).
000386:
000387: 10,7741           31521        LNEWGYRO           CADR     NEWGYRO                               #  STANDARD SLEEPING LOCATION FOR GYROBUSY.
000388: 10,7742           00122        OCT122             OCT      122
000389: 10,7743           01001        FULLDT             DEC      5.13       E2

End of include-file IRIG_PULSE-TORQUING_ROUTINES.agc.  Parent file is MAIN.agc


