
Source Code


000002:                                                                                                  ## Copyright:   Public domain.
000003:                                                                                                  ## Filename:    KEYRUPT_UPRUPT_FRESH_START.agc
000004:                                                                                                  ## Purpose:     A section of Corona revision 261.
000005:                                                                                                  ##              It is part of the source code for the Apollo Guidance Computer
000006:                                                                                                  ##              (AGC) for AS-202. No original listings of this software are
000007:                                                                                                  ##              available; instead, this file was created via disassembly of
000008:                                                                                                  ##              the core rope modules actually flown on the mission.
000009:                                                                                                  ## Assembler:   yaYUL
000010:                                                                                                  ## Contact:     Ron Burkey <info@sandroid.org>.
000011:                                                                                                  ## Website:     www.ibiblio.org/apollo/index.html
000012:                                                                                                  ## Mod history: 2023-05-27 MAS  Created from Solarium 55.
000013:                                                                                                  ##              2023-06-17 MAS  Updated for Corona 261.
000014:
000015:
000016: 04,7347                                           BANK     4
000017: 04,7347           73226        KEYRUPT1           MASK     LOW5                                  #  C(IN0) IN A
000018: 04,7350           50642                           TS       RUPTREG4
000019: 04,7351           02737                           TC       LODSAMPT                              #  TIME IS SNATCHED IN RUPT FOR NOUN 65
000020: 04,7352           32166                           CAF      PRIO33
000021: 04,7353           02052                           TC       NOVAC
000022: 04,7354           14006                           CADR     CHARIN
000023: 04,7355           45362                           CS       SEVEN
000024: 04,7356           70612                           MASK     MODREG
000025: 04,7357           10000                           CCS      A
000026: 04,7360           07363                           TC       NOKEYBUF
000027: 04,7361           60642                           AD       RUPTREG4
000028: 04,7362           51210                           TS       TAVEGON
000029: 04,7363           30642        NOKEYBUF           XCH      RUPTREG4
000030: 04,7364           20601                           INDEX    LOCCTR
000031: 04,7365           50115                           TS       MPAC                                  #  LEAVE 5 BIT KEY CDE IN MPAC FOR CHARIN
000032: 04,7366           02264                           TC       RESUME
000033:
000034:
000035: 04,7367           50030        UPRUPTB            TS       BANKRUPT
000036: 04,7370           02700                           TC       READTIME   +1                         #  TIME IS SNATCHED IN RUPT FOR NOUN 65
000037: 04,7371           35501                           CAF      ZERO
000038: 04,7372           30041                           XCH      UPLINK                                #  ZERO UPLINK
000039: 04,7373           50600                           TS       KEYTEMP1
000040: 04,7374           10717                           CCS      DSPTAB     +7                         #  TURN ON UPACT LIGHT
000041: 04,7375           07377                           TC       +2                                    #  UPACT = BIT 11 OF DSPTAB +7
000042: 04,7376           37502                           CAF      B12-1                                 #  SAFETY PLAY
000043: 04,7377           64516                           AD       ONE
000044: 04,7400           50571                           TS       KEYTEMP2                              #  MAG OF DSPTAB +7 INTO KEYTEMP2
000045: 04,7401           74504                           MASK     BIT11
000046: 04,7402           10000                           CCS      A
000047: 04,7403           07413                           TC       UPRPT1                                #  BIT 11 ALREADY ONE
000048: 04,7404           30571                           XCH      KEYTEMP2                              #  BIT 11 = 0
000049: 04,7405           64504                           AD       BIT11
000050: 04,7406           40000                           CS       A                                     #  STORE NEGATIVELY
000051: 04,7407           30717                           XCH      DSPTAB     +7
000052: 04,7410           10000                           CCS      A
000053: 04,7411           07503                           TC       INCNOUTU                              #  PREVIOUS CONTENTS WAS +
000054: 04,7412           30000                           NOOP                                           #  SAFETY PLAY
000055: 04,7413           33226        UPRPT1             CAF      LOW5                                  #  TEST FOR TRIPLE CHAR REDUNDANCY
000056: 04,7414           70600                           MASK     KEYTEMP1                              #  LOW5 OF WORD
000057: 04,7415           30600                           XCH      KEYTEMP1                              #  LOW5 INTO KEYTEMP1
000058: 04,7416           30021                           XCH      SR                                    #  WHOLE WORD INTO SR
000059: 04,7417           50571                           TS       KEYTEMP2                              #  ORIGINAL SR INTO KEYTEMP2
000060: 04,7420           07464                           TC       SRGHT5
000061: 04,7421           73226                           MASK     LOW5                                  #  MID 5
000062: 04,7422           67501                           AD       HI10
000063: 04,7423           07473                           TC       UPTEST
000064: 04,7424           07464                           TC       SRGHT5
000065: 04,7425           73226                           MASK     LOW5                                  #  HIGH 5
000066: 04,7426           40000                           COM
000067: 04,7427           07473                           TC       UPTEST
000068: 04,7430           07460        UPOK               TC       RESTORSR                              #  CODE IS GOOD
000069: 04,7431           47435                           CS       ELRCODE                               #  IF CODE = ERROR LIGHT RESET, PUT +0
000070: 04,7432           60600                           AD       KEYTEMP1                              #  INTO UPLOCK (BIT2 OF STATE)
000071: 04,7433           10000                           CCS      A                                     #  IF CODE NOT= ELR, PASS CODE ONLY IF
000072: 04,7434           07443                           TC       TSTUPLOK                              #  UPLOCK=0 (BIT 2 OF STATE)
000073: 04,7435           00022        ELRCODE            OCT      22
000074: 04,7436           07443                           TC       TSTUPLOK
000075: 04,7437           44515                           CS       BIT2                                  #  0 INTO UPLOCK (BIT 2 OF STATE)
000076: 04,7440           70645                           MASK     UPLOCK
000077: 04,7441           50645                           TS       UPLOCK
000078: 04,7442           07447                           TC       ACCEPTUP
000079: 04,7443           34515        TSTUPLOK           CAF      BIT2
000080: 04,7444           70645                           MASK     UPLOCK
000081: 04,7445           10000                           CCS      A
000082: 04,7446           02264                           TC       RESUME                                #  UPLOCK = 1 (BIT2 OF STATE)
000083: 04,7447           30600        ACCEPTUP           XCH      KEYTEMP1                              #  UPLOCK = 0 (BIT2 OF STATE)
000084: 04,7450           07350                           TC       KEYRUPT1   +1
000085:
000086:
000087: 04,7451           07460        TMFAIL2            TC       RESTORSR                              #  CODE IS BAD
000088: 04,7452           44515                           CS       BIT2                                  #  LOCK OUT FURTHER UPLINK ACTIVITY (BY
000089: 04,7453           70645                           MASK     UPLOCK                                #  PUTTING 1 INTO UPLOCK, BIT 2 OF STATE)
000090: 04,7454           64515                           AD       BIT2                                  #  UNTIL ERROR LIGHT RESET IS SENT UP
000091: 04,7455           50645                           TS       UPLOCK                                #  UPLINK.
000092: 04,7456           02567        TMFAIL1            TC       TMALM
000093: 04,7457           02264                           TC       RESUME
000094:
000095: 04,7460           30571        RESTORSR           XCH      KEYTEMP2
000096: 04,7461           60000                           DOUBLE
000097: 04,7462           50021                           TS       SR
000098: 04,7463           00001                           TC       Q
000099:
000100: 04,7464     2567               TMALM              EQUALS   TMFAIL                                #  TM FAIL LIGHT ON (IN DOWNRUPT).
000101:
000102: 04,7464           40021        SRGHT5             CS       SR
000103: 04,7465           40021                           CS       SR
000104: 04,7466           40021                           CS       SR
000105: 04,7467           40021                           CS       SR
000106: 04,7470           40021                           CS       SR
000107: 04,7471           40000                           CS       A
000108: 04,7472           00001                           TC       Q                                     #  DELIVERS WORD UNCOMPLEMENTED
000109:
000110: 04,7473           60600        UPTEST             AD       KEYTEMP1
000111: 04,7474           10000                           CCS      A
000112: 04,7475           07451                           TC       TMFAIL2
000113: 04,7476           03070                           TC       CCSHOLE
000114: 04,7477           07451                           TC       TMFAIL2
000115: 04,7500           00001                           TC       Q
000116:
000117: 04,7501           77740        HI10               OCT      77740
000118: 04,7502     2075               UPBANK             EQUALS   EXECBANK                              #  IN SAME BANK AS EXEC.
000119:
000120: 04,7502           03777        B12-1              OCT      3777
000121:
000122: 04,7503           30707        INCNOUTU           XCH      NOUT
000123: 04,7504           64516                           AD       ONE
000124: 04,7505           50707                           TS       NOUT
000125: 04,7506           20001                           INDEX    Q
000126: 04,7507           00001        UPLAST             TC       1
000127:
000128:                                                                                                  #  UPACT IS TURNED OFF BY VBRELDSP, ALSO BY ERROR LIGHT RESET.
000129:
000130:
000131:                                                                                                  #  THE RECEPTION OF A BAD CODE BY UPLINK LOCKS OUT FURTHER UPLINK ACTIVITY
000132:                                                                                                  #  BY PLACING A 1 INTO UPLOCK (BIT2 OF STATE). BIT9 (AND BIT11) OF TMKEYBUF
000133:                                                                                                  #  IS SET TO 1 TO SEND AN INDICATION OF THIS SITUATION DOWN THE DOWNLINK.
000134:                                                                                                  #  THE UPLINK INTERLOCK IS ALLOWED WHEN AN ERROR LIGHT RESET CODE IS SENT
000135:                                                                                                  #  UP THE UPLINK, OR WHEN A FRESH START IS PERFORMED.

End of include-file KEYRUPT_UPRUPT_FRESH_START.agc.  Parent file is MAIN.agc


