
Source Code


000002:                                                                                                  ## Copyright:   Public domain.
000003:                                                                                                  ## Filename:    LATITUDE-LONGITUDE_SUBROUTINES.agc
000004:                                                                                                  ## Purpose:     A section of Corona revision 261.
000005:                                                                                                  ##              It is part of the source code for the Apollo Guidance Computer
000006:                                                                                                  ##              (AGC) for AS-202. No original listings of this software are
000007:                                                                                                  ##              available; instead, this file was created via disassembly of
000008:                                                                                                  ##              the core rope modules actually flown on the mission.
000009:                                                                                                  ## Assembler:   yaYUL
000010:                                                                                                  ## Contact:     Ron Burkey <info@sandroid.org>.
000011:                                                                                                  ## Website:     www.ibiblio.org/apollo/index.html
000012:                                                                                                  ## Mod history: 2023-06-19 MAS  Created.
000013:
000014:                                                                                                  ## MAS 2023: This log section is a part of the MIDCOURSE NAVIGATION GAME, which
000015:                                                                                                  ## appears to be a very early implementation of P22, P29, and possibly some other
000016:                                                                                                  ## navigation programs. It was deleted in Solarium, and its documentation that
000017:                                                                                                  ## mentions it is nearly nonexistent outside of some MIT status reports (from
000018:                                                                                                  ## which the name of this log section is taken). Reverse-engineering it is a work
000019:                                                                                                  ## in progress; all labels and comments are modern guesses. Double-# comments
000020:                                                                                                  ## are annotations to aid in reverse engineering. Any labels that have not yet
000021:                                                                                                  ## been given modern names are given placeholders with the pattern UBB,SSSS,
000022:                                                                                                  ## where BB,SSSS is the full bank and address of the label.
000023:
000024: 31,6000                                           BANK     31
000025:
000026: 31,6000           45576        LONGPASS           ITA      0
000027: 31,6001           01305                                    STEPEXIT                              ## STEPEXIT = return to MNG
000028:
000029: 31,6002           76776                           ITC      0
000030: 31,6003           07165                                    RECTIFY
000031:
000032: 31,6004           76776                           ITC      0
000033: 31,6005           06036                                    KEPLER
000034:


000045:
000046: 31,6006           41775                           VXV      1
000047: 31,6007           74553                           AXT,2    UNIT
000048: 31,6010           23435                                    UNITZ
000049: 31,6011           01101                                    RRECT
000050: 31,6012           00013                                    10D                                   ## X2 = 10, setting up for 10 iterations
000051: 31,6013           33221                           STORE    UNE                                   ## UNE = UNITZ x RRECT
000052:
000053: 31,6014           41775                           VXV      1
000054: 31,6015           54553                           AST,2    UNIT
000055: 31,6016           23435                                    UNITZ
000056: 31,6017           01221                                    UNE
000057: 31,6020           00002                                    1                                     ## S2 = 1, also setting up for 10 iterations
000058: 31,6021           33231                           STORE    UNP                                   ## UNP = UNITZ x UNE
000059:
000060: 31,6022           45175                           DMOVE    1
000061: 31,6023           76776                           ITC
000062: 31,6024           01147                                    TET
000063: 31,6025           22176                                    LAT-LONG                              ## Get LAT and LONG at current state vector time
000064:
000065: 31,6026           47575                           NOLOD    1
000066: 31,6027           65712                           BDSU     DDV
000067: 31,6030           01257                                    LONGDES
000068: 31,6031           07474                                    15/16
000069: 31,6032           33261                           STORE    DLONG                                 ## DLONG = (LONGDES - LONG)*16/15
000070:
000071: 31,6033           76776                           ITC      0
000072: 31,6034           22373                                    ORBPARM                               ## Calculate HMAG, ALPHAM, COTGAM
000073:
000074: 31,6035           55175        HOPALONG           COS      1
000075: 31,6036           75776                           VXSC
000076: 31,6037           01261                                    DLONG
000077: 31,6040           01221                                    UNE                                   ## PD +14D = UNE * cos(DLONG)
000078:
000079: 31,6041           57175                           SIN      1
000080: 31,6042           75642                           VXSC     VAD
000081: 31,6043           01261                                    DLONG
000082: 31,6044           01231                                    UNP                                   ## PD +14D = UNE*cos(DLONG) + UNP*sin(DLONG)
000083:
000084: 31,6045           41775                           VXV      1
000085: 31,6046           41753                           VXV      UNIT
000086: 31,6047           01107                                    VRECT
000087: 31,6050           01101                                    RRECT                                 ## PD +14D = unit((VRECT x RRECT) x (PD+14D))
000088:
000089: 31,6051           73174                           UNIT     2
000090: 31,6052           44612                           VSLT     DOT
000091: 31,6053           70653                           DAD      SQRT
000092: 31,6054           01101                                    RRECT
000093: 31,6055           00002                                    1
000094: 31,6056           77777                                    -
000095: 31,6057           07506                                    DP1/2                                 ## PD +14D = sqrt((unit(RRECT) . (PD+14D)) + 1/2)
000096:
000097: 31,6060           51174        HOP1               DSQ      2                                     ## Expects to find scalar in PD+14D
000098: 31,6061           65742                           BDSU     DAD
000099: 31,6062           53176                           SQRT
000100: 31,6063           00017                                    14D
000101: 31,6064           07506                                    DP1/2
000102: 31,6065           07506                                    DP1/2                                 ## PD +16D = sqrt(1 - (PD+14)**2)
000103:
000104: 31,6066           47575                           NOLOD    1
000105: 31,6067           55776                           DMPR
000106: 31,6070           01255                                    ALPHAM
000107: 31,6071           32045                           STORE    VACZ                                  ## VACZ = (PD+16D) * ALPHAM
000108:
000109: 31,6072           55775                           DMPR     1
000110: 31,6073           65666                           BDSU     DMPR
000111: 31,6074           01277                                    COTGAM
000112: 31,6075           77777                                    -
000113: 31,6076           77777                                    -
000114: 31,6077           01275                                    HMAG
000115: 31,6100           32041                           STORE    VACX                                  ## VACX = HMAG * ((PD+14D) - (cot(gamma) * (PD+16D)))
000116:
000117: 31,6101           76576                           RTB      0
000118: 31,6102           20511                                    ARCTAN                                ## PD +14D = atan2(VACZ, VACX)
000119:
000120: 31,6103           76776                           ITC      0
000121: 31,6104           22161                                    PASSTIME                              ## Get time of flight T in PD +18D, position, and velocity
000122:
000123: 31,6105           73575                           LXA,1    1
000124: 31,6106           63535                           INCR,1   SXA,1
000125: 31,6107           00070                                    FIXLOC
000126: 31,6110           00017                                    14D
000127: 31,6111           00124                                    PUSHLOC                               ## Reset PD indicator to 14D
000128:
000129: 31,6112           64774                           DMP      2
000130: 31,6113           56631                           TSRT     ROUND
000131: 31,6114           70776                           DAD
000132: 31,6115           00023                                    18D
000133: 31,6116           07472                                    EARTHTAB   +9D
000134: 31,6117           00005                                    4
000135: 31,6120           01034                                    TE
000136: 31,6121           33267                           STORE    TDEC                                  ## TDEC = TE + T * EARTHTAB
000137:
000138: 31,6122           77576                           EXIT     0
000139:
000140: 31,6123           41313                           CS       FFFLAGS                               ## Is flag 13 set?
000141: 31,6124           77445                           MASK     FFLAG13
000142: 31,6125           10000                           CCS      A
000143: 31,6126           06132                           TC       +4                                    ## No: call skip next call
000144:
000145: 31,6127           04000                           TC       INTPRET                               ## Flag 13 is set. Call the thing in B-VECTOR
000146: 31,6130           76776                           ITC      0
000147: 31,6131           22672                                    U31,6671                              ## In B-VECTOR
000148:
000149: 31,6132           04000                           TC       INTPRET                               ## Call LAT-LONG for newly found position
000150: 31,6133           76776                           ITC      0
000151: 31,6134           22176                                    LAT-LONG
000152:
000153: 31,6135           47575                           NOLOD    1
000154: 31,6136           65712                           BDSU     DDV
000155: 31,6137           01257                                    LONGDES
000156: 31,6140           07474                                    15/16                                 ## PD +14D = (LONGDES - LONG)*16/15
000157:
000158: 31,6141           47574                           NOLOD    2
000159: 31,6142           65132                           ABS      DSU
000160: 31,6143           73641                           BMN      TIX,2                                 ## Is abs(PD+14D) < 3e-5?
000161: 31,6144           22423                                    EPSILONG
000162: 31,6145           22150                                    PASSOUT                               ## Yes. Skip next call.
000163: 31,6146           22154                                    NEXTHOP                               ## Go to U31,6153 if not done iterating.
000164:
000165: 31,6147           72776        PASSOUT            STZ      0                                     ## Result is within bounds. Set NUMBTEMP to 0.
000166: 31,6150           01273                                    NUMBTEMP
000167:
000168: 31,6151           44576                           ITCI     0
000169: 31,6152           01305                                    STEPEXIT                              ## Return to caller of LONGPASS
000170:
000171: 31,6153           70776        NEXTHOP            DAD      0                                     ## Result was not within bounds.
000172: 31,6154           01261                                    DLONG
000173: 31,6155           33261                           STORE    DLONG                                 ## DLONG = DLONG + (PD+14D)  -- popping off of PD
000174:
000175: 31,6156           76776                           ITC      0
000176: 31,6157           22036                                    HOPALONG                              ## Next iteration.
000177:
000178: 31,6160           47574        PASSTIME           NOLOD    2
000179: 31,6161           55666                           DMPR     DMPR
000180: 31,6162           62776                           DDV
000181: 31,6163           00007                                    6
000182: 31,6164           23401                                    PI/4.0
000183: 31,6165           01255                                    ALPHAM
000184: 31,6166           33151                           STORE    XKEP                                  ## XKEP = (MPAC * |RRECT| * PI/4.0) / ALPHAM
000185:
000186: 31,6167           45576                           ITA      0                                     ## Makes GETRANDV return to caller of PASSTIME
000187: 31,6170           01272                                    HBRANCH
000188:
000189: 31,6171           76776                           ITC      0                                     ## Calculate time of flight
000190: 31,6172           06146                                    KTIMEN+1
000191:
000192: 31,6173           76776                           ITC      0                                     ## Get position and velocity at new X
000193: 31,6174           06406                                    GETRANDV
000194:
000195: 31,6175           47576        LAT-LONG           NOLOD    0
000196: 31,6176           33265                           STORE    LONG                                  ## LONG = TET
000197:
000198: 31,6177           45576                           ITA      0
000199: 31,6200           01304                                    INCORPEX
000200:
000201: 31,6201           72776                           STZ      0
000202: 31,6202           00123                                    OVFIND                                ## OVFIND = 0
000203:
000204: 31,6203           76776                           ITC      0                                     ## Returns with RCV + TDELTAV in MPAC
000205: 31,6204           22330                                    GETPOS
000206:
000207: 31,6205           47576                           NOLOD    0
000208: 31,6206           33153                           STORE    ALPHAV                                ## ALPHAV = RCV + TDELTAV
000209:
000210: 31,6207           51176                           DSQ      0
000211: 31,6210           01153                                    ALPHAV                                ## PD +0 = ALPHAV[0]**2
000212:
000213: 31,6211           51174                           DSQ      2
000214: 31,6212           70653                           DAD      SQRT
000215: 31,6213           55776                           DMPR
000216: 31,6214           01155                                    ALPHAV     +2
000217: 31,6215           77777                                    -                                     ## Pops off of PD
000218: 31,6216           22421                                    B2/A2
000219: 31,6217           32041                           STORE    VACX                                  ## VACX = sqrt(ALPHAV[1]**2 + ALPHAV[0]**2) * B2/A2
000220:
000221: 31,6220           45176                           DMOVE    0
000222: 31,6221           01157                                    ALPHAV     +4
000223: 31,6222           32045                           STORE    VACZ                                  ## VACZ = ALPHAV[2]
000224:
000225: 31,6223           76576                           RTB      0
000226: 31,6224           20511                                    ARCTAN
000227: 31,6225           33263                           STORE    LAT                                   ## LAT = atan2(VACZ,VACX)
000228:
000229: 31,6226           66774                           DSU      2
000230: 31,6227           64716                           DMP      TSLT
000231: 31,6230           72631                           STZ      ROUND
000232: 31,6231           01265                                    LONG
000233: 31,6232           22425                                    1/100
000234: 31,6233           23403                                    WEARTH
000235: 31,6234           00004                                    3
000236: 31,6235           00123                                    OVFIND                                ## OVFIND = 0
000237: 31,6236           33161                           STORE    BETAV                                 ## BETAV[0] = (TET - 1/100)*WEARTH*8
000238:
000239: 31,6237           55176                           COS      0
000240: 31,6240           01161                                    BETAV
000241: 31,6241           33165                           STORE    BETAV      +4                         ## BETAV[2] = cos(BETAV[0])
000242:
000243: 31,6242           57176                           SIN      0
000244: 31,6243           01161                                    BETAV
000245: 31,6244           33157                           STORE    ALPHAV     +4                         ## ALPHAV[2] = sin(BETAV[0])
000246:
000247: 31,6245           55776                           DMPR     0
000248: 31,6246           01153                                    ALPHAV
000249: 31,6247           01165                                    BETAV      +4                         ## PD +0 = ALPHAV[0] * BETAV[2]
000250:
000251: 31,6250           55775                           DMPR     1
000252: 31,6251           70776                           DAD
000253: 31,6252           01155                                    ALPHAV     +2
000254: 31,6253           01157                                    ALPHAV     +4
000255: 31,6254           32041                           STORE    VACX                                  ## VACX = (ALPHAV[1] * ALPHAV[2]) + (ALPHAV[0] * BETAV[2])
000256:                                                                                                  ## ...popping off of PD list
000257: 31,6255           55776                           DMPR     0
000258: 31,6256           01153                                    ALPHAV
000259: 31,6257           01157                                    ALPHAV     +4                         ## PD +0 = ALPHAV[0] * ALPHAV[2]
000260:
000261: 31,6260           55775                           DMPR     1
000262: 31,6261           66776                           DSU
000263: 31,6262           01155                                    ALPHAV     +2
000264: 31,6263           01165                                    BETAV      +4
000265: 31,6264           32045                           STORE    VACZ                                  ## VACZ = (ALPHAV[1] * BETAV[2]) - (ALPHAV[0] * ALPHAV[2])
000266:                                                                                                  ## ...popping off of PD list
000267: 31,6265           76576                           RTB      0
000268: 31,6266           20511                                    ARCTAN
000269: 31,6267           33265                           STORE    LONG                                  ## LONG = atan2(VACZ, VACX)
000270:
000271: 31,6270           44576                           ITCI     0
000272: 31,6271           01304                                    INCORPEX
000273:
000274: 31,6272           45576        CALCAZ             ITA      0
000275: 31,6273           01303                                    MIDEXIT
000276:
000277: 31,6274           76776                           ITC      0
000278: 31,6275           22330                                    GETPOS
000279:
000280: 31,6276           47576                           NOLOD    0
000281: 31,6277           33153                           STORE    ALPHAV
000282:
000283: 31,6300           76776                           ITC      0
000284: 31,6301           22335                                    GETVEL
000285:
000286: 31,6302           47576                           NOLOD    0
000287: 31,6303           33161                           STORE    BETAV
000288:
000289: 31,6304           76576                           RTB      0
000290: 31,6305           20264                                    FRESHPD
000291:
000292: 31,6306           41775                           VXV      1
000293: 31,6307           41753                           VXV      UNIT
000294: 31,6310           01153                                    ALPHAV
000295: 31,6311           23435                                    UNITZ
000296: 31,6312           01153                                    ALPHAV
000297:
000298: 31,6313           41773                           VXV      3
000299: 31,6314           41753                           VXV      UNIT
000300: 31,6315           42716                           DOT      TSLT
000301: 31,6316           61176                           ACOS
000302: 31,6317           01153                                    ALPHAV
000303: 31,6320           01161                                    BETAV
000304: 31,6321           01153                                    ALPHAV
000305: 31,6322           77777                                    -
000306: 31,6323           00002                                    1
000307: 31,6324           33271                           STORE    AZ
000308:
000309: 31,6325           44576                           ITCI     0
000310: 31,6326           01303                                    MIDEXIT
000311:
000312: 31,6327           45775        GETPOS             VSRT     1
000313: 31,6330           50601                           VAD      ITCQ
000314: 31,6331           01115                                    TDELTAV
000315: 31,6332           00013                                    10D
000316: 31,6333           01131                                    RCV
000317:
000318: 31,6334           45775        GETVEL             VSRT     1
000319: 31,6335           50601                           VAD      ITCQ
000320: 31,6336           01123                                    TNUV
000321: 31,6337           00011                                    8D
000322: 31,6340           01137                                    VCV
000323:
000324: 31,6341           45576        GETERAD            ITA      0
000325: 31,6342           01303                                    MIDEXIT
000326:
000327: 31,6343           71172                           ABVAL    4
000328: 31,6344           63706                           TSLT     BDDV
000329: 31,6345           51072                           DSQ      TSRT
000330: 31,6346           65666                           BDSU     DMPR
000331: 31,6347           65706                           BDSU     BDDV
000332: 31,6350           01153                                    ALPHAV
000333: 31,6351           00002                                    1
000334: 31,6352           01157                                    ALPHAV     +4
000335: 31,6353           00002                                    1
000336: 31,6354           07506                                    DP1/2
000337: 31,6355           22415                                    EE
000338: 31,6356           07506                                    DP1/2
000339: 31,6357           22417                                    B2XSC
000340: 31,6360           33237                           STORE    ERADSQ/4
000341:
000342: 31,6361           47575                           NOLOD    1
000343: 31,6362           53176                           SQRT
000344: 31,6363           33241                           STORE    ERAD/2
000345:
000346: 31,6364           44576                           ITCI     0
000347: 31,6365           01303                                    MIDEXIT
000348:
000349: 31,6366           76776        U31,6366           ITC      0                                     ## B-Vector calls this
000350: 31,6367           22373                                    ORBPARM
000351:
000352: 31,6370           76776                           ITC      0
000353: 31,6371           22061                                    HOP1
000354:
000355: 31,6372           41775        ORBPARM            VXV      1
000356: 31,6373           71116                           ABVAL    TSLT
000357: 31,6374           01101                                    RRECT
000358: 31,6375           01107                                    VRECT
000359: 31,6376           00002                                    1
000360: 31,6377           33275                           STORE    HMAG                                  ## HMAG = |RRECT x VRECT|
000361:
000362: 31,6400           53175                           SQRT     1
000363: 31,6401           64776                           DMP
000364: 31,6402           00013                                    10D                                   ## ALPHAM = SQRT(ALPHA) * |RRECT|
000365: 31,6403           00007                                    6
000366: 31,6404           33255                           STORE    ALPHAM
000367:
000368: 31,6405           42775                           DOT      1
000369: 31,6406           62776                           DDV
000370: 31,6407           01101                                    RRECT                                 ##    (RRECT . VRECT)
000371: 31,6410           01107                                    VRECT                                 ##    ---------------
000372: 31,6411           01275                                    HMAG                                  ##    |RRECT x VRECT|
000373: 31,6412           33277                           STORE    COTGAM                                ## COTGAM = cot(gamma)
000374:
000375: 31,6413           40576                           ITCQ     0
000376:
000377: 31,6414           00155 25220  EE                 2DEC     6.69342279 E-3
000378: 31,6416           00464 11320  B2XSC              2DEC     0.01881677
000379: 31,6420           37622 12560  B2/A2              2DEC     0.993306577
000380: 31,6422           00000 17565  EPSILONG           2DEC     .3         E-4
000381: 31,6424           00243 32703  1/100              2DEC     .01

End of include-file LATITUDE-LONGITUDE_SUBROUTINES.agc.  Parent file is MAIN.agc


