
Source Code


000002:                                                                                                  ## Copyright:   Public domain.
000003:                                                                                                  ## Filename:    MEASUREMENT_INCORPORATION.agc
000004:                                                                                                  ## Purpose:     A section of Corona revision 261.
000005:                                                                                                  ##              It is part of the source code for the Apollo Guidance Computer
000006:                                                                                                  ##              (AGC) for AS-202. No original listings of this software are
000007:                                                                                                  ##              available; instead, this file was created via disassembly of
000008:                                                                                                  ##              the core rope modules actually flown on the mission.
000009:                                                                                                  ## Assembler:   yaYUL
000010:                                                                                                  ## Contact:     Ron Burkey <info@sandroid.org>.
000011:                                                                                                  ## Website:     www.ibiblio.org/apollo/index.html
000012:                                                                                                  ## Mod history: 2023-06-19 MAS  Created.
000013:
000014:                                                                                                  ## MAS 2023: This log section is a part of the MIDCOURSE NAVIGATION GAME, which
000015:                                                                                                  ## appears to be a very early implementation of P22, P29, and possibly some other
000016:                                                                                                  ## navigation programs. It was deleted in Solarium, and its documentation that
000017:                                                                                                  ## mentions it is nearly nonexistent outside of some MIT status reports (from
000018:                                                                                                  ## which the name of this log section is taken). Reverse-engineering it is a work
000019:                                                                                                  ## in progress; all labels and comments are modern guesses. Double-# comments
000020:                                                                                                  ## are annotations to aid in reverse engineering. Any labels that have not yet
000021:                                                                                                  ## been given modern names are given placeholders with the pattern UBB,SSSS,
000022:                                                                                                  ## where BB,SSSS is the full bank and address of the label.
000023:
000024: 23,7507                                           BANK     23
000025:
000026: 23,7507           73575        INCORP1            LXA,1    1
000027: 23,7510           67452                           SXA,1    MXV
000028: 23,7511           00070                                    FIXLOC
000029: 23,7512           00124                                    PUSHLOC
000030: 23,7513           01221                                    BVECTOR
000031: 23,7514           01562                                    W
000032:
000033: 23,7515           52775                           MXV      1
000034: 23,7516           45442                           ITA      VAD
000035: 23,7517           01227                                    BVECTOR    +6
000036: 23,7520           01626                                    W          +36D
000037: 23,7521           01304                                    INCORPEX
000038:
000039: 23,7522           52776                           MXV      0
000040: 23,7523           01221                                    BVECTOR
000041: 23,7524           01604                                    W          +18D
000042:
000043: 23,7525           52775                           MXV      1
000044: 23,7526           50776                           VAD
000045: 23,7527           01227                                    BVECTOR    +6
000046: 23,7530           01650                                    W          +54D
000047:
000048: 23,7531           47575                           NOLOD    1
000049: 23,7532           67142                           VSQ      DAD
000050: 23,7533           01275                                    VARIANCE
000051:
000052: 23,7534           67175                           VSQ      1
000053: 23,7535           70776                           DAD
000054: 23,7536           00001                                    0
000055:
000056: 23,7537           47572                           NOLOD    4
000057: 23,7540           55653                           DMPR     SQRT
000058: 23,7541           70676                           DAD      TSLC
000059: 23,7542           62531                           INCR,2   SXA,2
000060: 23,7543           74506                           AXT,2    BDDV
000061: 23,7544           01275                                    VARIANCE
000062: 23,7545           00015                                    12D
000063: 23,7546           00050                                    X2
000064: 23,7547           77776                                    -2
000065: 23,7550           01306                                    NORMGAM
000066: 23,7551           00111                                    72D
000067: 23,7552           06303                                    DP1/4
000068:
000069: 23,7553           57774                           TSLC     2
000070: 23,7554           54515                           AST,2    INCR,1
000071: 23,7555           61776                           BDDV
000072: 23,7556           00015                                    12D
000073: 23,7557           00047                                    X1
000074: 23,7560           00045                                    36D
000075: 23,7561           00002                                    1
000076: 23,7562           01277                                    DELTAQ
000077:
000078: 23,7563           75175        INCOR2             VMOVE    1
000079: 23,7564           51376                           VXM*
000080: 23,7565           00001                                    0
000081: 23,7566           03564                                    W          +72D,2
000082:
000083: 23,7567           75175                           VMOVE    1
000084: 23,7570           51242                           VXM*     VAD
000085: 23,7571           00007                                    6
000086: 23,7572           03630                                    W          +90D,2
000087:
000088: 23,7573           47574                           NOLOD    2
000089: 23,7574           75620                           VXSC     VSLT*
000090: 23,7575           50422                           TIX,2    VSLT
000091: 23,7576           00021                                    16D
000092: 23,7577           00001                                    0,1
000093: 23,7600           07747                                    INCOR3
000094: 23,7601           00003                                    2
000095: 23,7602           33161                           STORE    DELVEL
000096:
000097: 23,7603           51176                           DSQ      0
000098: 23,7604           01161                                    DELVEL
000099:
000100: 23,7605           51175                           DSQ      1
000101: 23,7606           70776                           DAD
000102: 23,7607           01163                                    DELVEL     +2
000103:
000104: 23,7610           51175                           DSQ      1
000105: 23,7611           70653                           DAD      SQRT
000106: 23,7612           01165                                    DELVEL     +4
000107: 23,7613           77777                                    -
000108: 23,7614           32621                           STORE    DSPTEM1    +2
000109:
000110: 23,7615           77576                           EXIT     0
000111:
000112: 23,7616           05654                           TC       BANKCALL
000113: 23,7617           51265                           CADR     U24,7265
000114:
000115: 23,7620           72776        INCORP2            STZ      0
000116: 23,7621           00123                                    OVFIND
000117:
000118: 23,7622           44775                           VSLT     1
000119: 23,7623           50746                           VAD      BOV
000120: 23,7624           01161                                    DELVEL
000121: 23,7625           00011                                    8D
000122: 23,7626           01010                                    NUV
000123: 23,7627           07711                                    INCORECT
000124: 23,7630           33123                           STORE    NEWNUV
000125:
000126: 23,7631           44775                           VSLT     1
000127: 23,7632           50746                           VAD      BOV
000128: 23,7633           01153                                    DELR
000129: 23,7634           00013                                    10D
000130: 23,7635           01002                                    DELTAV
000131: 23,7636           07711                                    INCORECT
000132: 23,7637           33115                           STORE    NEWDLTAV
000133:
000134: 23,7640           75574        FAZA               AXT,1    2
000135: 23,7641           55561                           AST,1    AXT,2
000136: 23,7642           75776                           VXSC
000137: 23,7643           00045                                    36D
000138: 23,7644           00007                                    6
000139: 23,7645           00001                                    0
000140: 23,7646           00023                                    18D
000141: 23,7647           00017                                    14D
000142: 23,7650           32023                           STORE    18D
000143:
000144: 23,7651           75776                           VXSC     0
000145: 23,7652           00031                                    24D
000146: 23,7653           00017                                    14D
000147: 23,7654           32031                           STORE    24D
000148:
000149: 23,7655           46173        FAZB               COMP*    3
000150: 23,7656           75721                           VXSC     XCHX,2
000151: 23,7657           44321                           VSLT*    XCHX,2
000152: 23,7660           50376                           VAD*
000153: 23,7661           00002                                    0,2
000154: 23,7662           00023                                    18D
000155: 23,7663           01306                                    NORMGAM
000156: 23,7664           00002                                    0,2
000157: 23,7665           01306                                    NORMGAM
000158: 23,7666           03453                                    W          +36D,1
000159: 23,7667           37453                           STORE    W          +36D,1
000160:
000161: 23,7670           46173                           COMP*    3
000162: 23,7671           75721                           VXSC     XCHX,2
000163: 23,7672           44321                           VSLT*    XCHX,2
000164: 23,7673           62440                           INCR,2   VAD*
000165: 23,7674           00002                                    0,2
000166: 23,7675           00031                                    24D
000167: 23,7676           01306                                    NORMGAM
000168: 23,7677           00002                                    0,2
000169: 23,7700           01306                                    NORMGAM
000170: 23,7701           77776                                    -2
000171: 23,7702           03563                                    W          +72D,1
000172: 23,7703           37563                           STORE    W          +72D,1
000173:
000174: 23,7704           51576                           TIX,1    0
000175: 23,7705           07656                                    FAZB
000176:
000177: 23,7706           44576                           ITCI     0
000178: 23,7707           01304                                    INCORPEX
000179:
000180: 23,7710           45775        INCORECT           VSRT     1
000181: 23,7711           50642                           VAD      VAD
000182: 23,7712           01002                                    DELTAV
000183: 23,7713           00013                                    10D
000184: 23,7714           01016                                    REFRCV
000185: 23,7715           01153                                    DELR
000186: 23,7716           33101                           STORE    RRECT
000187:
000188: 23,7717           47576                           NOLOD    0
000189: 23,7720           33131                           STORE    RCV
000190:
000191: 23,7721           45775                           VSRT     1
000192: 23,7722           50642                           VAD      VAD
000193: 23,7723           01010                                    NUV
000194: 23,7724           00011                                    8D
000195: 23,7725           01024                                    REFVCV
000196: 23,7726           01161                                    DELVEL
000197: 23,7727           33107                           STORE    VRECT
000198:
000199: 23,7730           47576                           NOLOD    0
000200: 23,7731           33137                           STORE    VCV
000201:
000202: 23,7732           45176                           DMOVE    0
000203: 23,7733           07246                                    DPZERO
000204: 23,7734           33145                           STORE    TC
000205:
000206: 23,7735           47576                           NOLOD    0
000207: 23,7736           33151                           STORE    XKEP
000208:
000209: 23,7737           75176                           VMOVE    0
000210: 23,7740           15575                                    ZEROVEC
000211: 23,7741           33115                           STORE    TDELTAV
000212:
000213: 23,7742           47576                           NOLOD    0
000214: 23,7743           33123                           STORE    TNUV
000215:
000216: 23,7744           76776                           ITC      0
000217: 23,7745           07641                                    FAZA
000218:
000219: 23,7746           47576        INCOR3             NOLOD    0
000220: 23,7747           33153                           STORE    DELR
000221:
000222: 23,7750           47575                           NOLOD    1
000223: 23,7751           71116                           ABVAL    TSLT
000224: 23,7752           00002                                    1
000225: 23,7753           32617                           STORE    DSPTEM1
000226: 23,7754           76776                           ITC      0
000227: 23,7755           07564                                    INCOR2

End of include-file MEASUREMENT_INCORPORATION.agc.  Parent file is MAIN.agc


