
Source Code


000002:                                                                                                  ## Copyright:   Public domain.
000003:                                                                                                  ## Filename:    MIDCOURSE_INITIALIZATION.agc
000004:                                                                                                  ## Purpose:     A section of Corona revision 261.
000005:                                                                                                  ##              It is part of the source code for the Apollo Guidance Computer
000006:                                                                                                  ##              (AGC) for AS-202. No original listings of this software are
000007:                                                                                                  ##              available; instead, this file was created via disassembly of
000008:                                                                                                  ##              the core rope modules actually flown on the mission.
000009:                                                                                                  ## Assembler:   yaYUL
000010:                                                                                                  ## Contact:     Ron Burkey <info@sandroid.org>.
000011:                                                                                                  ## Website:     www.ibiblio.org/apollo/index.html
000012:                                                                                                  ## Mod history: 2023-06-19 MAS  Created.
000013:
000014:                                                                                                  ## MAS 2023: This log section is a part of the MIDCOURSE NAVIGATION GAME, which
000015:                                                                                                  ## appears to be a very early implementation of P22, P29, and possibly some other
000016:                                                                                                  ## navigation programs. It was deleted in Solarium, and its documentation that
000017:                                                                                                  ## mentions it is nearly nonexistent outside of some MIT status reports (from
000018:                                                                                                  ## which the name of this log section is taken). Reverse-engineering it is a work
000019:                                                                                                  ## in progress; all labels and comments are modern guesses. Double-# comments
000020:                                                                                                  ## are annotations to aid in reverse engineering. Any labels that have not yet
000021:                                                                                                  ## been given modern names are given placeholders with the pattern UBB,SSSS,
000022:                                                                                                  ## where BB,SSSS is the full bank and address of the label.
000023:
000024: 13,6717                                           BANK     13
000025:
000026: 13,6717           03310        MIDINIT            TC       GRABDSP
000027: 13,6720           03316                           TC       PREGBSY
000028:


000030: 13,6721           47010                           CS       LDELTAV
000031: 13,6722           67011                           AD       LDELVEL5
000032:
000033: 13,6723           51302        ZEROLOP            TS       WORDIDX
000034: 13,6724           35501                           CAF      ZERO
000035: 13,6725           21302                           INDEX    WORDIDX
000036: 13,6726           51001                           TS       DELTAV
000037: 13,6727           11302                           CCS      WORDIDX
000038: 13,6730           06723                           TC       ZEROLOP
000039:


000041: 13,6731           34502                           CAF      BIT13
000042: 13,6732           50730                           TS       WASOPSET
000043:


000045: 13,6733           47016                           CS       MINITMSK
000046: 13,6734           70645                           MASK     STATE
000047: 13,6735           50645                           TS       STATE
000048:


000050: 13,6736           37017                           CAF      VN2572
000051: 13,6737           03106                           TC       NVSUB
000052: 13,6740           03323                           TC       PRENVBSY
000053: 13,6741           03165                           TC       DATAWAIT
000054: 13,6742           07006                           TC       BACK2MID
000055: 13,6743           06744                           TC       +1
000056:


000058: 13,6744           37020                           CAF      VN2573
000059: 13,6745           03106                           TC       NVSUB
000060: 13,6746           03323                           TC       PRENVBSY
000061: 13,6747           03165                           TC       DATAWAIT
000062: 13,6750           07006                           TC       BACK2MID
000063: 13,6751           06752                           TC       +1
000064:


000066: 13,6752           37012                           CAF      DEC17
000067: 13,6753           51302        RFSMLOOP           TS       WORDIDX
000068: 13,6754           21302                           INDEX    WORDIDX
000069: 13,6755           37133                           CAF      INITRFSM
000070: 13,6756           21302                           INDEX    WORDIDX
000071: 13,6757           51051                           TS       REFSMMAT
000072: 13,6760           11302                           CCS      WORDIDX
000073: 13,6761           06753                           TC       RFSMLOOP
000074:


000076: 13,6762           37021                           CAF      INITTET
000077: 13,6763           51033                           TS       TE
000078: 13,6764           51146                           TS       TET
000079: 13,6765           37022                           CAF      INITTET    +1
000080: 13,6766           51034                           TS       TE         +1
000081: 13,6767           51147                           TS       TET        +1
000082:


000084: 13,6770           37014                           CAF      DEC18
000085: 13,6771           51310                           TS       SCALEDT
000086: 13,6772           35502                           CAF      FOUR
000087: 13,6773           51311                           TS       SCALDELT
000088: 13,6774           37013                           CAF      DEC14
000089: 13,6775           51312                           TS       SCALER
000090:


000092: 13,6776           37015                           CAF      DEC71
000093: 13,6777           51302        WLOOP              TS       WORDIDX
000094: 13,7000           21302                           INDEX    WORDIDX
000095: 13,7001           37023                           CAF      INITW
000096: 13,7002           21302                           INDEX    WORDIDX
000097: 13,7003           51561                           TS       W
000098: 13,7004           11302                           CCS      WORDIDX
000099: 13,7005           06777                           TC       WLOOP
000100:


000102: 13,7006           05654        BACK2MID           TC       BANKCALL
000103: 13,7007           50013                           CADR     MIDINRET
000104:
000105: 13,7010           01001        LDELTAV            ADRES    DELTAV
000106: 13,7011           01165        LDELVEL5           ADRES    DELVEL     +5
000107: 13,7012           00021        DEC17              DEC      17         B-14
000108: 13,7013           00016        DEC14              DEC      14         B-14
000109: 13,7014           00022        DEC18              DEC      18         B-14
000110: 13,7015           00107        DEC71              DEC      71         B-14
000111: 13,7016           30000        MINITMSK           OCT      30000
000112: 13,7017           02572        VN2572             OCT      02572
000113: 13,7020           02573        VN2573             OCT      02573
000114: 13,7021           02365 25204  INITTET            2DEC     .077494159
000115:
000116: 13,7023           04000 00000  INITW              2DEC     .125
000117: 13,7025           00000 00000                     2DEC     0          B-28
000118: 13,7027           00000 00000                     2DEC     0          B-28
000119:
000120: 13,7031           00000 00000                     2DEC     0          B-28
000121: 13,7033           04000 00000                     2DEC     .125
000122: 13,7035           00000 00000                     2DEC     0          B-28
000123:
000124: 13,7037           00000 00000                     2DEC     0          B-28
000125: 13,7041           00000 00000                     2DEC     0          B-28
000126: 13,7043           04000 00000                     2DEC     .125
000127:
000128: 13,7045           00000 00000                     2DEC     0          B-28
000129: 13,7047           00000 00000                     2DEC     0          B-28
000130: 13,7051           00000 00000                     2DEC     0          B-28
000131:
000132: 13,7053           00000 00000                     2DEC     0          B-28
000133: 13,7055           00000 00000                     2DEC     0          B-28
000134: 13,7057           00000 00000                     2DEC     0          B-28
000135:
000136: 13,7061           00000 00000                     2DEC     0          B-28
000137: 13,7063           00000 00000                     2DEC     0          B-28
000138: 13,7065           00000 00000                     2DEC     0          B-28
000139:
000140: 13,7067           00000 00000                     2DEC     0          B-28
000141: 13,7071           00000 00000                     2DEC     0          B-28
000142: 13,7073           00000 00000                     2DEC     0          B-28
000143:
000144: 13,7075           00000 00000                     2DEC     0          B-28
000145: 13,7077           00000 00000                     2DEC     0          B-28
000146: 13,7101           00000 00000                     2DEC     0          B-28
000147:
000148: 13,7103           00000 00000                     2DEC     0          B-28
000149: 13,7105           00000 00000                     2DEC     0          B-28
000150: 13,7107           00000 00000                     2DEC     0          B-28
000151:
000152: 13,7111           01522 13237                     2DEC     .051901456
000153: 13,7113           00000 00000                     2DEC     0          B-28
000154: 13,7115           00000 00000                     2DEC     0          B-28
000155:
000156: 13,7117           00000 00000                     2DEC     0          B-28
000157: 13,7121           01522 13237                     2DEC     .051901456
000158: 13,7123           00000 00000                     2DEC     0          B-28
000159:
000160: 13,7125           00000 00000                     2DEC     0          B-28
000161: 13,7127           00000 00000                     2DEC     0          B-28
000162: 13,7131           01522 13237                     2DEC     .051901456
000163:
000164: 13,7133           65432 45301  INITRFSM           2DEC     -.326527826
000165: 13,7135           63706 63306                     2DEC     -.378503058
000166: 13,7137           00257 26526                     2DEC     .010724388
000167:
000168: 13,7141           71225 42367                     2DEC     -.209651023
000169: 13,7143           05317 25121                     2DEC     .168924633
000170: 13,7145           62411 42576                     2DEC     -.421320442
000171:
000172: 13,7147           12056 05734                     2DEC     .315318927
000173: 13,7151           67032 52641                     2DEC     -.279642455
000174: 13,7153           67310 51624                     2DEC     -.269024294

End of include-file MIDCOURSE_INITIALIZATION.agc.  Parent file is MAIN.agc


