
Source Code


000002:                                                                                                  ## Copyright:   Public domain.
000003:                                                                                                  ## Filename:    MODE_SWITCHING_AND_MARK_ROUTINES.agc
000004:                                                                                                  ## Purpose:     A section of Corona revision 261.
000005:                                                                                                  ##              It is part of the source code for the Apollo Guidance Computer
000006:                                                                                                  ##              (AGC) for AS-202. No original listings of this software are
000007:                                                                                                  ##              available; instead, this file was created via disassembly of
000008:                                                                                                  ##              the core rope modules actually flown on the mission.
000009:                                                                                                  ## Assembler:   yaYUL
000010:                                                                                                  ## Contact:     Ron Burkey <info@sandroid.org>.
000011:                                                                                                  ## Website:     www.ibiblio.org/apollo/index.html
000012:                                                                                                  ## Mod history: 2023-05-27 MAS  Created from Solarium 55.
000013:                                                                                                  ##              2023-06-17 MAS  Updated for Corona.
000014:
000015:
000016:                                                                                                  #        THE FOLLOWING SET OF PROGRAMS ARE USED TO SELECTTHE VARIOUS MODES OF THE IMU AND OPTICS. THE FOLLOWING
000017:                                                                                                  #  MODES ARE POSSIBLE:
000018:
000019:                                                                                                  #        IMUZERO     ZEROS IMU CDUS.
000020:                                                                                                  #        IMUCOARS    COARSE ALIGNS IMU.
000021:                                                                                                  #        IMURECOR    RETURNS IMU FROM FINE ALIGN TO COARSE ALIGN
000022:                                                                                                  #        IMUFINE     PREPARES TO PULSE TORQUE THE GYROS.
000023:                                                                                                  #  IMUFINNW     SWITCHES TO FINE WITH NO DELAY FOR IRIG CENTERING-DONT  ENTER FROM COARSE ALIGN MODE.
000024:                                                                                                  #        IMUATTC     USE IMU FOR S/C ATTITUDE CONTROL.
000025:                                                                                                  #        IMUREENT    USE IMU FOR ROLL RE-ENTRY.
000026:                                                                                                  #        IMULOCK     LOCKS IMU CDUS.
000027:
000028:                                                                                                  #        IMUFINIS(**)RELEASES IMU
000029:                                                                                                  #        IMUSTALL(*) IMU MODE IDLING AND ERROR CHECKING.
000030:
000031:
000032:
000033:                                                                                                  #        OPTZERO     ZERO OPTICS CDUS.
000034:                                                                                                  #        OPTCOARS    DUMMY OPTICS COARSE-ALIGN MODE.
000035:                                                                                                  #        OPTTRKON    OPTICS TRACKER ON.
000036:
000037:                                                                                                  #        SCTMARK     REQUEST N SCANNING TELESCOPE MARKS.
000038:                                                                                                  #        SXTMARK     REQUEST N SEXTANT MARKS.
000039:                                                                                                  #        MKRELEAS(**)RELEASE MARK SYSTEM.
000040:
000041:                                                                                                  #        OPTFINIS(**)RELEASE OPTICS.
000042:                                                                                                  #        OPTSTALL(*) OPTICS MODE-IDLING AND ERROR CHECKING.
000043:
000044:
000045:
000046:                                                                                                  #        OPTICS AND IMU MODE ROUTINES MAY BE USED CONCURRENTLY.
000047:
000048:                                                                                                  #        IN ADDITION, A ROUTINE WHICH INCREMENTS ANY DESIRED 2S COMPLEMENT ANGLE BY AN INPUT AMOUNT IS
000049:                                                                                                  #  INCLUDED (CDUINC).
000050:
000051:
000052:
000053:                                                                                                  #        CALLING SEQUENCE IS AS FOLLOWS:
000054:
000055:                                                                                                  #  L-1   CAF     NO.MARKS        (FOR SCTMARK AND SXTMARK ONLY).
000056:                                                                                                  #  L     TC      BANKCALL
000057:                                                                                                  #  L+1   CADR    (SUBRO)         ANY OF THE 14 MODE ROUTINES OR CDUINC.
000058:
000059:
000060:
000061:                                                                                                  #        (*)     THE STALL ROUTINES ARE CALLED TO TERMINATE ANY MODE REQUEST. THE REQUESTING JOB IS STALLED UNTIL
000062:                                                                                                  #  THE MODE-SWITCHING IS COMPLETE (WITH VAC-AREA PROTECTED) AND RETURN IS TO L+2 IF UNSUCCESSFUL AND L+3 IF THE
000063:                                                                                                  #  DESIRED MODE WAS SUCCESSFULLY ACHIEVED.
000064:
000065:                                                                                                  #        (**)    NO STALL ROUTINE NECESSARY IN CONJUNCTION WITH THIS REQUEST.
000066:
000067:
000068:                                                                                                  #        SPECIAL DP TIME COUNTER READING ROUTINE.
000069:
000070:    2677                                           BANK     1
000071:    2677           20017        READTIME           INHINT                                         #  ENTRY IF UNDER EXECUTIVE.
000072:    2700           40035                           CS       TIME2                                 #  ENTRY IF IN INTERRUPT.
000073:    2701           50572                           TS       RUPTSTOR
000074:    2702           40036                           CS       TIME1
000075:    2703           50573                           TS       RUPTSTOR   +1
000076:    2704           10000                           CCS      A                                     #  IF MINOR PART ZERO, MAJOR PART COULD
000077:    2705           00001                           TC       Q
000078:    2706           10000                           CCS      A
000079:    2707           00001                           TC       Q
000080:    2710           40035                           CS       TIME2                                 #  UP, SO READ IT AGIN.
000081:    2711           50572                           TS       RUPTSTOR
000082:    2712           00001                           TC       Q
000083:
000084:                                                                                                  #        ROUTINE TO READ FINE TIME IN IN2 EVEN IF IT CHANGES AS ITS BEING READ. CALL IN INHINT.
000085:
000086:    2713           30006        FINETIME           XCH      IN2                                   #  MAY BE CALLED UNDER EXEC OR RUPT.
000087:    2714           30006                           XCH      IN2
000088:    2715           72356                           MASK     FINEMASK                              #  NOTE THAT THE OR OF TWO STATES A AND B
000089:    2716           50577                           TS       ITEMP1                                #  IS NOT LESS THAN EITHER A OR B.
000090:    2717           30006                           XCH      IN2
000091:    2720           72356                           MASK     FINEMASK
000092:    2721           50600                           TS       ITEMP2
000093:    2722           40000                           COM                                            #  SELECT THE MINIMUM OF THE LAST TWO
000094:    2723           60577                           AD       ITEMP1                                #  STATES READ.
000095:    2724           10000                           CCS      A
000096:    2725           30600                           XCH      ITEMP2
000097:    2726           00001                           TC       Q
000098:    2727           30000                           NOOP
000099:    2730           30577                           XCH      ITEMP1
000100:    2731           00001                           TC       Q
000101:
000102:                                                                                                  #        SUBROUTINE TO ZERO IMU CDU COUNTERS.
000103:
000104:    2732           35501        ZEROICTR           CAF      ZERO                                  #  USED BY AUTOMATIC AND MANUAL ZEROING
000105:    2733           50047                           TS       CDUX                                  #   ROUTINES.
000106:    2734           50050                           TS       CDUY
000107:    2735           50051                           TS       CDUZ
000108:    2736           00001                           TC       Q
000109:
000110:
000111:
000112:    2737           40572        LODSAMPT           CS       RUPTSTOR                              #  TIME IS SNATCHED IN RUPT FOR NOUN 65
000113:    2740           30643                           XCH      SAMPTIME
000114:    2741           40573                           CS       RUPTSTOR   +1
000115:    2742           30644                           XCH      SAMPTIME   +1
000116:    2743           00001                           TC       Q
000117:
000118:
000119:                                                                                                  #        SETZLIT SETS THE ZERO ENCODER LAMP ACCORDING TO THE DESIRED-MODE REGISTERS DESKSET AND DESOPSET.
000120:
000121:    2744           30001        SETZLIT            XCH      Q
000122:    2745           50577                           TS       ITEMP1
000123:
000124:    2746           10731                           CCS      DESKSET
000125:    2747           02753                           TC       +4                                    #  COMPUTER COMMANDING-MAY BE ZEROING.
000126:    2750           02757                           TC       OPTZTEST                              #  NOT MANUAL ZERO.
000127:    2751           02774        TURNONZ            TC       ZLITON                                #  MANUAL ZEROING MODE.
000128:    2752           00577                           TC       ITEMP1
000129:
000130:    2753           64516                 +4        AD       ONE
000131:    2754           74516                           MASK     BIT1
000132:    2755           10000                           CCS      A
000133:    2756           02751                           TC       TURNONZ                               #  COMPUTER COMMANDING ZERO-ENCODER
000134:
000135:    2757           10732        OPTZTEST           CCS      DESOPSET
000136:    2760           02763                           TC       +3                                    #  MAY BE COMMANDING OPTICS ZERO.
000137:    2761           02767                           TC       ZLITOFF                               #  NOT MANUAL ZERO-TURN LIGHT OFF.
000138:    2762           02751                           TC       TURNONZ                               #  MANUAL OPTICS
000139:
000140:    2763           64516                 +3        AD       ONE
000141:    2764           74503                           MASK     BIT12
000142:    2765           10000                           CCS      A
000143:    2766           02751                           TC       TURNONZ
000144:
000145:    2767           45070        ZLITOFF            CS       ZLITBITS                              #  TURN OFF ZERO ENCODER LAMP.
000146:    2770           70723                           MASK     DSPTAB     +11D
000147:    2771           64500                           AD       BIT15
000148:    2772           50723                           TS       DSPTAB     +11D
000149:    2773           00577                           TC       ITEMP1
000150:
000151:    2774           45070        ZLITON             CS       ZLITBITS                              #  TURN ON ZERO-ENCODER LAMP.
000152:    2775           70723                           MASK     DSPTAB     +11D
000153:    2776           65070                           AD       ZLITBITS
000154:    2777           50723                           TS       DSPTAB     +11D
000155:    3000           00001                           TC       Q
000156:
000157:    3001     5070               ZLITBITS           EQUALS   OCT40020                              #  CS CYR IN DMP.
000158:
000159:
000160:                                                                                                  #        IMU ZEROING ROUTINE.
000161:
000162: 14,6000                                           SETLOC   30000
000163:
000164: 14,6000           44516        IMUZERO            CS       ONE                                   #  DISABLE CDU DRIVE
000165: 14,6001           50677                           TS       CDUIND                                #   BY SETTING CDUIND NEGATIVE.
000166:
000167: 14,6002           06245                           TC       SETKANDC                              #  GO TO SUBROUTINE TO SWITCH C RELAYS
000168: 14,6003           00051                           OCT      00051                                 #   = C(DESKSET)=COMP CONT+ZERO+FINE
000169: 14,6004           40011                           OCT      40011                                 #   = C SETTING FOR FINE + ZERO
000170: 14,6005           02774                           TC       ZLITON                                #  TURN ON ENCODER ZEROING LAMP
000171:
000172: 14,6006           44513                           CS       BIT4                                  #  DISABLE IMU FAIL FOR 5 SEC IN CASE WE
000173: 14,6007           70726                           MASK     OLDERR                                #  JUST CAME OUT OF COARSE ALIGN.
000174: 14,6010           64513                           AD       BIT4
000175: 14,6011           50726                           TS       OLDERR
000176: 14,6012           34505                           CAF      BIT10
000177: 14,6013           02173                           TC       WAITLIST
000178: 14,6014           30201                           CADR     IFAILOK
000179:
000180: 14,6015           36077                           CAF      35SECS                                #  SET A WAITLIST CALL FOR 35 SECONDS
000181: 14,6016           02173                           TC       WAITLIST                              #   SO  THOSE SHAFTS WILL HAVE TIME TO GET
000182: 14,6017           30022                           CADR     IMUZEROD                              #  THERE.
000183: 14,6020           20016        MODEEXIT           RELINT                                         #  GENERAL EXIT FROM MODE SWITCH PROGS
000184: 14,6021           05702                           TC       SWRETURN                              #   WHICH LEAVES VIA SWCALL EXIT
000185:
000186: 14,6022           02732        IMUZEROD           TC       ZEROICTR                              #  GO AND ZERO X, Y, AND Z COUNTERS
000187:
000188: 14,6023           06070                           TC       KCHECK                                #  SEE IF SYSTEM STILL FUNCTIONING OK.
000189: 14,6024           06246        MOREZERO           TC       SETKANDC   +1                         #  CALL FOR 10 SECONDS OF FINE ALIGN TO
000190: 14,6025           00050                           OCT      00050                                 #   ALLOW CDUS TO GO AT LEAST 90 DEGREES
000191: 14,6026           40010                           OCT      40010                                 #   OF THE WAY HOME UNLESS THE PLATFORM IS
000192: 14,6027           36101                           CAF      10SECS                                #   SITTING AT ANY FALSE NULLS.
000193: 14,6030           02173                           TC       WAITLIST
000194: 14,6031           30033                           CADR     ZEROATTC                              #  WE WILL GO INTO ATTITUTE CONTROL NEXT.
000195: 14,6032           02256                           TC       TASKOVER
000196:
000197: 14,6033           06070        ZEROATTC           TC       KCHECK                                #  USUAL SYSTEM CHECK.
000198: 14,6034           06246                           TC       SETKANDC   +1                         #  COMMAND ATTITUDE CONTROL (WITHOUT ATTC
000199: 14,6035           00060                           OCT      00060                                 #   LAMP LIT) SO THAT WE CAN DRIVE THE CDUS
000200: 14,6036           41000                           OCT      41000                                 #  (LIGHT ON AFTER ALL) AWAY FROM FALSE NUL
000201: 14,6037           36103                           CAF      320MS
000202: 14,6040           02173                           TC       WAITLIST
000203: 14,6041           30043                           CADR     ZERODRVE                              #  WAIT FOR MODE SWITCH BEFORE ENABLING CDU
000204: 14,6042           02256                           TC       TASKOVER                              #   DRIVE IN T4RUPT.
000205:
000206: 14,6043           06070        ZERODRVE           TC       KCHECK                                #  VERIFY SWITCH TO ATTITUDE CONTROL.
000207: 14,6044           34502                           CAF      QUARTER                               #  WE WILL DRIVE THE CDUS TOWARD 45 DEGREES
000208: 14,6045           50700                           TS       THETAD                                #   FOR 2SECS (ABOUT 10 DEGREES OF MOVEMENT
000209: 14,6046           50701                           TS       THETAD     +1                         #   AT MOST). THIS WILL DRIVE ANY CDUS OFF
000210: 14,6047           50702                           TS       THETAD     +2                         #   FALSE NULLS WITHOUT MOVING THE PLATFORM
000211: 14,6050           35501                           CAF      ZERO
000212: 14,6051           50677                           TS       CDUIND                                #  CDU LOOPS ARE NOW ENABLED.
000213: 14,6052           36102                           CAF      2SECS
000214: 14,6053           02173                           TC       WAITLIST
000215: 14,6054           30056                           CADR     REZFINE                               #  GO BACK TO FINE ALIGN WHEN DONE.
000216: 14,6055           02256                           TC       TASKOVER
000217:
000218: 14,6056           06070        REZFINE            TC       KCHECK                                #  VERIFY MODE SWITCH AS USUAL.
000219: 14,6057           06246                           TC       SETKANDC   +1                         #  CALL FOR 20 SECONDS OF FINE ALIGN TO
000220: 14,6060           00050                           OCT      00050                                 #   ALLOW ENOUGH TIME FOR THE CDUS TO FIND
000221: 14,6061           40010                           OCT      40010                                 #   THE GIMBALS.
000222: 14,6062           44516                           CS       ONE
000223: 14,6063           50677                           TS       CDUIND                                #  CDU LOOPS NOW DISABLED.
000224: 14,6064           36100                           CAF      20SECS
000225: 14,6065           02173                           TC       WAITLIST
000226: 14,6066           30171                           CADR     IMUFINED                              #  CHECK FORPRESENCE OF IMU OR CDU FAILS.
000227: 14,6067           02256                           TC       TASKOVER
000228:
000229:
000230:
000231: 14,6070           10727        KCHECK             CCS      WASKSET                               #  RETURN TO CALLER IF SYSTEM OK - SET UP
000232: 14,6071           00001                           TC       Q                                     #   ERROR RETURN AT ENDIMU OTHERWISE.
000233: 14,6072           06264                           TC       ENDIMU
000234: 14,6073           00001                           TC       Q
000235: 14,6074           06264                           TC       ENDIMU
000236:
000237: 14,6075           21450        90SECS             DEC      90.00      E2
000238: 14,6076           10624        45SECS             DEC      45.00      E2                         #  TIME FOR IMUCDU COARSE ALIGN.
000239: 14,6077           06654        35SECS             DEC      35.00      E2                         #  TIME FOR IMUCDU ZERO ENCODER.
000240: 14,6100           03720        20SECS             DEC      20.00      E2
000241: 14,6101           01750        10SECS             DEC      10.00      E2
000242: 14,6102           00310        2SECS              DEC      2.00       E2
000243: 14,6103           00040        320MS              DEC      .32        E2
000244:
000245:
000246:                                                                                                  #  IMU COARSE ALIGN PROGRAM
000247:
000248: 14,6104           06245        IMUCOARS           TC       SETKANDC                              #  SET DESIRED C AND K RELAY SETTINGS.
000249: 14,6105           00042                           OCT      00042                                 #    COMPUTER CONTROL . COARSE ALIGN.
000250: 14,6106           40002                           OCT      40002                                 #    C RELAY COARSE ALIGN.
000251:
000252: 14,6107           02744                           TC       SETZLIT                               #  SERVICE THE ZERO ENCODER LAMP
000253:
000254: 14,6110           36103                           CAF      320MS                                 #  SET WAITLIST CALL FOR 320 M.S. TO
000255: 14,6111           02173                           TC       WAITLIST                              #   ACCOMMODATE CONTACT BOUNCE + T4RUPT LAG
000256: 14,6112           30125                           CADR     BEGINCOM
000257: 14,6113           06020                           TC       MODEEXIT
000258:
000259:
000260:
000261: 14,6114           40047        RECOARSD           CS       CDUX                                  #  GOING BACK INTO COARSE ALIGN FROM FINE
000262: 14,6115           40000                           COM                                            #  ALIGN. PUT CDU COUNTER VALUES INTO
000263: 14,6116           50700                           TS       THETAD                                #  DESIRED ANGLE REGISTERS AND ENABLE THE
000264: 14,6117           40050                           CS       CDUY                                  #  T4RUPT CDU DRIVE.
000265: 14,6120           40000                           COM
000266: 14,6121           50701                           TS       THETAD     +1
000267: 14,6122           40051                           CS       CDUZ
000268: 14,6123           40000                           COM
000269: 14,6124           50702                           TS       THETAD     +2
000270:
000271: 14,6125           06070        BEGINCOM           TC       KCHECK                                #  VERIFY CORRECTNESS OF PRESENT MODE.
000272: 14,6126           35501        STARTCRS           CAF      ZERO                                  #  ENABLE CDU LOOP CLOSURE
000273: 14,6127           50677                           TS       CDUIND
000274:
000275: 14,6130           36076                           CAF      45SECS
000276: 14,6131           02173                           TC       WAITLIST                              #   CDU LOOPS TO SETTLE
000277: 14,6132           30214                           CADR     COARSDON
000278: 14,6133           02256                           TC       TASKOVER
000279:
000280:
000281:                                                                                                  #  IMU FINE ALIGN PROGRAM
000282:
000283: 14,6134           06245        IMURECOR           TC       SETKANDC                              #  GO INTO COARSE ALIGN FROM FINE ALIGN.
000284: 14,6135           00042                           OCT      00042                                 #  (SEE REMARKS ON RECOARSD FOR FURTHER
000285: 14,6136           40002                           OCT      40002                                 #    DETAILS).
000286: 14,6137           36103                           CAF      320MS                                 #  USUAL CONTACT CLOSURE AND SAMPLE TIME
000287: 14,6140           02173                           TC       WAITLIST
000288: 14,6141           30114                           CADR     RECOARSD
000289: 14,6142           06160                           TC       DISEXIT                               #  DISABLE GYRO ACTIVITY.
000290:
000291: 14,6143           06245        IMUFINE            TC       SETKANDC                              #  SET UP C RELAY PATTERN AND DESIRED K
000292: 14,6144           00050                           OCT      00050                                 #   DES K = COMPUTER CONTROL + FINE
000293: 14,6145           40010                           OCT      40010                                 #       C = FINE ALIGN
000294:
000295: 14,6146           44513                           CS       BIT4                                  #  COMES THROUGH HERE AFTER EVERY COARSE
000296: 14,6147           70726                           MASK     OLDERR                                #  ALIGN. SET BIT 4 OF OLDERR TO INHIBIT
000297: 14,6150           64513                           AD       BIT4                                  #  IMU FAIL FOR ANOTHER 5 SECONDS.
000298: 14,6151           50726                           TS       OLDERR
000299:
000300: 14,6152           34505                           CAF      BIT10
000301: 14,6153           02173                           TC       WAITLIST
000302: 14,6154           30201                           CADR     IFAILOK
000303:
000304: 14,6155           36075                           CAF      90SECS                                #  SET WAITLIST CALL FOR 90 SEC. TO ALLOW
000305: 14,6156           02173                           TC       WAITLIST                              #   GYROS TO RE-CENTER BEFORE IRIG PULSE
000306: 14,6157           30171                           CADR     IMUFINED                              #   TORQUING
000307: 14,6160           44516        DISEXIT            CS       ONE                                   #  DISABLE T4 IMU (CDU OR GYRO) ACTIVITY.
000308: 14,6161           50677                           TS       CDUIND
000309: 14,6162           06020                           TC       MODEEXIT
000310:
000311:
000312:
000313: 14,6163           06747        IMUFINNW           TC       TSTIMACT
000314:
000315: 14,6164           06245                           TC       SETKANDC
000316: 14,6165           00050                           OCT      00050
000317: 14,6166           40010                           OCT      40010
000318: 14,6167           36103                           CAF      320MS
000319: 14,6170           06156                           TC       DISEXIT    -2
000320:
000321:
000322: 14,6171           03436        IMUFINED           TC       FLAG1DWN
000323: 14,6172           02000                           OCT      02000
000324:
000325: 14,6173           06264                           TC       ENDIMU
000326:
000327: 14,6174           34503                           CAF      BIT12                                 #  NO IMU FAILS, PLEASE.
000328: 14,6175           70726                           MASK     OLDERR
000329: 14,6176           10000                           CCS      A
000330: 14,6177           06305                           TC       FAILEND
000331: 14,6200           06314                           TC       GOODEND
000332:
000333: 14,6201           44513        IFAILOK            CS       BIT4                                  #  ENABLE IMU FAIL 5 SECONDS AFTER COMING
000334: 14,6202           70726                           MASK     OLDERR                                #  OUT OF COARSE ALIGN.
000335: 14,6203           50726                           TS       OLDERR
000336: 14,6204           02256                           TC       TASKOVER
000337:
000338:
000339:                                                                                                  #  CDU LOCK PROGRAM
000340:
000341: 14,6205           06245        IMULOCK            TC       SETKANDC                              #  SET APPROPRIATE K AND C CONFIGS.
000342: 14,6206           00044                           OCT      00044
000343: 14,6207           40004                           OCT      40004
000344:
000345: 14,6210           36103                           CAF      320MS
000346: 14,6211           02173                           TC       WAITLIST                              #   PLACE.
000347: 14,6212           30214                           CADR     IMULOCKD
000348: 14,6213           06160                           TC       DISEXIT
000349:
000350: 14,6214           06264        IMULOCKD           TC       ENDIMU
000351: 14,6215           06314                           TC       GOODEND
000352:
000353: 14,6216  14,6214               COARSDON           EQUALS   IMULOCKD
000354:
000355:
000356:                                                                                                  #  IMU RE-ENTRY AND ATTITUDE CONTROL PROGRAMS
000357:
000358: 14,6216           06747        IMUREENT           TC       TSTIMACT
000359: 14,6217           06245                           TC       SETKANDC
000360: 14,6220           00140                           OCT      00140
000361: 14,6221           42000                           OCT      42000
000362: 14,6222           06227                           TC       ENABEXIT
000363:
000364:
000365:
000366: 14,6223           06747        IMUATTC            TC       TSTIMACT
000367: 14,6224           06245                           TC       SETKANDC
000368: 14,6225           00060                           OCT      00060
000369: 14,6226           41000                           OCT      41000
000370:
000371: 14,6227           36103        ENABEXIT           CAF      320MS
000372: 14,6230           02173                           TC       WAITLIST
000373: 14,6231           30233                           CADR     ENABLE
000374: 14,6232           06160                           TC       DISEXIT                               #  DISABLE POSSIBLE GYRO ACTIVITY.
000375:
000376: 14,6233           03436        ENABLE             TC       FLAG1DWN
000377: 14,6234           02000                           OCT      02000
000378:
000379: 14,6235           06264                           TC       ENDIMU
000380:
000381: 14,6236           35501                           CAF      ZERO                                  #  ENABLE CDU LOOPS
000382: 14,6237           50677                           TS       CDUIND
000383: 14,6240           06314                           TC       GOODEND
000384:                                                                                                  #  NOTICE THAT NO INSPECTION OF CDU AND IMU
000385:                                                                                                  #  ERROR SIGNALS IS MADE SINCE IN THESE
000386:                                                                                                  #  MODES THE MAIN PROGRAM MUST CHECK THE
000387:                                                                                                  #  STATUS OF THESE SIGNALS PERIODICALLY.
000388:
000389:
000390:
000391:                                                                                                  #        IMUFINIS - TO BE CALLED AT THE END OF COMPUTER-CONTROLLED MODE SWITCHING. PLACES MODE SAMPLING INTO
000392:                                                                                                  #  MANUAL CONTROL, SWITCHES THE SYSTEM TO FINE ALIGN, AND DISABLES THE T4RUPT CDU DRIVE. NO CALL TO IMUSTALL IS
000393:                                                                                                  #  REQUIRED HERE.
000394:
000395: 14,6241           06245        IMUFINIS           TC       SETKANDC
000396: 14,6242           00000                           OCT      00000                                 #  0 MEANS COMPUTER IS NO LONGER IN CONTROL
000397: 14,6243           40010                           OCT      40010                                 #  FINE ALIGN C-RELAY CODE.
000398: 14,6244           06160                           TC       DISEXIT
000399:
000400:
000401:                                                                                                  #        SUBROUTINE USED BY MODE-SWITCHING PROGRAMS TO SET DESIRED K- AND C-RELAY SETTINGS.
000402:
000403: 14,6245           20017        SETKANDC           INHINT                                         #  INHINT AND EXIT WITH INTERRUPT INHIBITED
000404: 14,6246           20001                           INDEX    Q
000405: 14,6247           30000                           CAF      0
000406: 14,6250           50731                           TS       DESKSET                               #  DESIRED K-RELAY SETTING AS READ IN IN3.
000407:
000408: 14,6251           36260                           CAF      OFFMSK                                #  SET C-RELAYS FOR ZERO ENCODER, COARSE
000409: 14,6252           70723                           MASK     DSPTAB     +11D                       #    ALIGN, FINE ALIGN, LOCK CDU, ROLL
000410: 14,6253           20001                           INDEX    Q                                     #    RE-ENTRY, AND ATTITUDE CONTROL LAMP.
000411: 14,6254           60001                           AD       1
000412: 14,6255           50723                           TS       DSPTAB     +11D
000413:
000414: 14,6256           20001                           INDEX    Q
000415: 14,6257           00002                           TC       2                                     #  RETURN TO CALLER IN INHINT.
000416:
000417: 14,6260           34760        OFFMSK             OCT      34760
000418:
000419:
000420:                                                                                                  #        WHEN A MODE-SWITCHING TASK IS DISPATCHED TO INDICATE THE END OF A MODE-SWITCH, ENDIMU (OR ENDOPT) IS
000421:                                                                                                  #  CALLED TO WAKE UP ANY JOB IMUSTALL (OPTSTALL) MIGHT HAVE PUT TO SLEEP AND THEN CHECK WASKSET (WASOPSET) TO SEE
000422:                                                                                                  #  THAT THE MODE-SWITCH WAS SUCCESSFUL.
000423:
000424: 14,6261           35503        ENDOPT             CAF      TWO
000425: 14,6262           64476                           AD       POSMAX
000426: 14,6263           50034                           TS       OVCTR                                 #  SKIP WITH C(A) = 1.
000427:
000428: 14,6264           35501        ENDIMU             CAF      ZERO
000429: 14,6265           50640                           TS       RUPTREG2                              #  0 FOR IMU, 1 FOR OPTICS.
000430:
000431: 14,6266           30001                           XCH      Q
000432: 14,6267           50637                           TS       RUPTREG1
000433:
000434: 14,6270           20640                           INDEX    RUPTREG2
000435: 14,6271           10733                           CCS      MODECADR                              #  SEE IF IMUSTALL (OPTSTALL) PUT A JOB
000436: 14,6272           06274                           TC       +2                                    #  TO SLEEP.
000437: 14,6273           06300                           TC       ENDMODE                               #  +0 IF NOT.
000438: 14,6274           34516                           CAF      ONE                                   #  SET PROPER MODECADR TO 1 TO INDICATE
000439: 14,6275           20640                           INDEX    RUPTREG2                              #  A JOB WAS AWAKENED.
000440: 14,6276           30733                           XCH      MODECADR
000441: 14,6277           02060                           TC       JOBWAKE
000442:
000443: 14,6300           20640        ENDMODE            INDEX    RUPTREG2                              #  CHECK PROPER *WAS* REGISTER TO SEE IF
000444: 14,6301           10727                           CCS      WASKSET                               #   SWITCH WAS SUCCESSFUL.
000445: 14,6302           00637                           TC       RUPTREG1                              #  YES - RETURN FOR MORE CHECKING IF OK.
000446: 14,6303           06305                           TC       +2                                    #  FAILED - STILL WAITING TO SWITCH.
000447: 14,6304           00637                           TC       RUPTREG1                              #  MANUAL INHIBIT.
000448:
000449: 14,6305           20640        FAILEND            INDEX    RUPTREG2                              #  COMES HERE TO SIGNAL ERROR RETURN FROM
000450: 14,6306           10733                           CCS      MODECADR                              #   MODE STALL ROUTINES.
000451: 14,6307           06311                           TC       +2                                    #  JOB WAS WAKENED EARLIER - EXIT W/O INCR.
000452: 14,6310           40000                           COM                                            #  NO WAKE-UP - SET MODECADR TO -0 FOR FAIL
000453: 14,6311           20640        LVENDMOD           INDEX    RUPTREG2
000454: 14,6312           50733                           TS       MODECADR
000455: 14,6313           02256                           TC       TASKOVER
000456:
000457: 14,6314           20640        GOODEND            INDEX    RUPTREG2                              #  COMES HERE TO SIGNAL A SUCCESSFUL SWITCH
000458: 14,6315           10733                           CCS      MODECADR
000459: 14,6316           06321                           TC       BUMPJOB                               #  JOB WAS AWAKENED - INCREMENT LOC.
000460: 14,6317           44516                           CS       ONE                                   #  NO WAKE - SET MODECADR TO -1 TO INDICATE
000461: 14,6320           06311                           TC       LVENDMOD                              #   SUCCESS.
000462:
000463: 14,6321           20601        BUMPJOB            INDEX    LOCCTR                                #  ARRIVES WITH C(A) = 0. LOCCTR SET TO
000464: 14,6322           30120                           XCH      LOC                                   #   AWAKENED JOB REGISTERS.
000465: 14,6323           64335                           AD       MINUS1                                #  LOC IS NEGATIVE FOR BASIC JOBS.
000466: 14,6324           20601                           INDEX    LOCCTR
000467: 14,6325           30120                           XCH      LOC
000468: 14,6326           06311                           TC       LVENDMOD                              #  SET MODECADR TO +0 AND EXIT.
000469:
000470:
000471:                                                                                                  #        WHEN A JOB WHICH REQUESTED A MODE SWITCH MUST IDLE UNTIL THE SWITCH IS COMPLETE, IT COMES TO IMUSTALL
000472:                                                                                                  #  (OR OPTSTALL) TO WAIT FOR THE COMPLETION AND TO DO ERROR CHECKING. RETURN IS TO THE LOCATION IMMEDIATELY FOLLOW-
000473:                                                                                                  #  ING THE CALLING SEQUENCE IF THE SWITCH WAS UNSUCCESSFUL, AND THE NEXT LOCATION IF IT WAS SUCCESSFUL. ANY
000474:                                                                                                  #  IDLING IS DONE BY PUTTING THE JOB TO SLEEP, SO THAT A VAC AREA (IF USED) WOULD BE PRESERVED.
000475:
000476: 14,6327           34516        OPTSTALL           CAF      ONE                                   #  0 FOR IMU AND 1 FOR OPTICS AS USUAL.
000477: 14,6330           06332                           TC       +2
000478:
000479: 14,6331           35501        IMUSTALL           CAF      ZERO
000480: 14,6332           20017                           INHINT                                         #  ONE SUB-SYSTEM AT A TIME ONLY.
000481: 14,6333           50640                           TS       RUPTREG2
000482: 14,6334           20000                           INDEX    A
000483: 14,6335           10733                           CCS      MODECADR                              #  SEE IF MODE SWITCH IS COMPLETE.
000484: 14,6336           06357                           TC       MODABORT                              #  VERY ILL IF SOMEONE ALREADY WAITING.
000485: 14,6337           06352                           TC       MODESLP                               #  MODE SWITCH INCOMPLETE - PUT JOB TO REST
000486: 14,6340           06344                           TC       MODEGOOD                              #  -1 INDICATES A SUCCESSFULLY COMPLETED SW
000487:
000488: 14,6341           20640        MG2                INDEX    RUPTREG2                              #  -0 MEANS FINISHED BUT FAILED.
000489: 14,6342           50733                           TS       MODECADR                              #  RESET TO +0.
000490: 14,6343           06020                           TC       MODEEXIT                              #  RELINT AND RETURN VIA SWCALL.
000491:
000492: 14,6344           10000        MODEGOOD           CCS      A                                     #  SEE THAT MODECADR WAS INDEED -1.
000493: 14,6345           06357                           TC       MODABORT                              #  VERY ILL IF SOMEONE ALREADY WAITING.
000494: 14,6346           30071                           XCH      TEMQS                                 #  INCREMENT RETURN TO INDICATE SUCCESS.
000495: 14,6347           64516                           AD       ONE
000496: 14,6350           30071                           XCH      TEMQS                                 #  BRING +0 BACK
000497: 14,6351           06341                           TC       MG2                                   #  TO RESET MODECADR AND EXIT.
000498:
000499: 14,6352           05706        MODESLP            TC       MAKECADR                              #  MAKE CADR FROM SWCALL RETUN ADDRESS.
000500: 14,6353           30062                           XCH      ADDRWD
000501: 14,6354           20640                           INDEX    RUPTREG2
000502: 14,6355           50733                           TS       MODECADR
000503: 14,6356           02127                           TC       JOBSLEEP
000504:
000505: 14,6357           03052        MODABORT           TC       ABORT                                 #  IMU OR OPTSTALL ABORT.
000506: 14,6360           01210                           OCT      01210
000507:
000508: 14,6361                        ENDSTALL           EQUALS
000509:
000510:
000511:                                                                                                  #        THE FOLLOWING ROUTINE INCREMENTS IN 2S COMPLEMENT THE REGISTER WHOSE ADDRESS IS IN ADDRWD BY THE
000512:                                                                                                  #  QUANTITY FOUND IN TEM2.  THIS MAY BE USED TO INCREMENT DESIRED IMU AND OPTICS CDU ANGLES OR ANY OTHER 2S
000513:                                                                                                  #  COMPLEMENT (+0 UNEQUAL TO -0) QUANTITY.
000514:
000515: 14,6361           50102        CDUINC             TS       TEM2                                  #  1S COMPLEMENT INCREMENT ARRIVING IN A.
000516: 14,6362           20077                           INDEX    BUF
000517: 14,6363           10000                           CCS      0                                     #  THE 16TH BIT OF A WILL BE USED TO
000518: 14,6364           64516                           AD       ONE                                   #  ACHIEVE THE REQUIRED 32,768 DISTINCT
000519: 14,6365           06371                           TC       +4                                    #  STATES.
000520:
000521: 14,6366           64516                           AD       ONE
000522: 14,6367           64516                           AD       ONE                                   #  A MAY HAVE OVERFLOW PRESENT HERE.
000523: 14,6370           40000                           COM                                            #  DESIRED -1 IF DESIRED WAS NEGATIVE.
000524:
000525: 14,6371           60102                 +4        AD       TEM2                                  #  AND MAYBE OVERFLOW SOME MORE.
000526: 14,6372           10000                           CCS      A                                     #  BACK TO 2S COMPLEMENT.
000527: 14,6373           64516                           AD       ONE                                   #    NOTE THAT CCS TREATS A AS A 16 BIT NO.
000528: 14,6374           06376                           TC       +2
000529: 14,6375           40000                           COM
000530: 14,6376           50034                           TS       OVCTR                                 #  REVERTS -0 TO +0.
000531: 14,6377           06403                           TC       +4                                    #  NO OVERFLOW - PLANT NEW DESIRED.
000532:
000533: 14,6400           20000                           INDEX    A                                     #  OVERFLOW - SIMULATE UN-CORRECTED SIGN.
000534: 14,6401           34477                           CAF      LIMITS                                #  37777 FOR NEGATIVE - 40000 IF PLUS.
000535: 14,6402           60034                           AD       OVCTR                                 #  OVERFLOW-CORRECTED DIFFERENCE.
000536:
000537: 14,6403           20077                 +4        INDEX    BUF
000538: 14,6404           50000                           TS       0                                     #  NEW ANGLE.
000539:
000540: 14,6405           05702                           TC       SWRETURN                              #  RETURN TO CALLER.
000541:
000542:
000543:                                                                                                  #        MARK REQUESTING ROUTINES.
000544:
000545: 14,6406           20017        SXTMARK            INHINT
000546: 14,6407           50637                           TS       RUPTREG1                              #  NUMBER OF MARKS REQUESTED.
000547:
000548: 14,6410           10735                           CCS      MARKSTAT                              #  SEE IF MARK BUTTON ALREADY SNATCHED.
000549: 14,6411           06413                           TC       +2                                    #  YES - ALARM AND END THE STRAY JOB.
000550: 14,6412           06416                           TC       MARKOK                                #  +0 INDICATES AVAILABLE.
000551:
000552: 14,6413           03015                           TC       ALARM
000553: 14,6414           00105                           OCT      00105
000554: 14,6415           02124                           TC       ENDOFJOB
000555:
000556: 14,6416           10216        MARKOK             CCS      VAC1USE                               #  FIND A VAC AREA TO STORE THE MARKS IN.
000557: 14,6417           06432                           TC       MKVACFND
000558: 14,6420           10272                           CCS      VAC2USE
000559: 14,6421           06432                           TC       MKVACFND
000560: 14,6422           10346                           CCS      VAC3USE
000561: 14,6423           06432                           TC       MKVACFND
000562: 14,6424           10422                           CCS      VAC4USE
000563: 14,6425           06432                           TC       MKVACFND
000564: 14,6426           10476                           CCS      VAC5USE
000565: 14,6427           06432                           TC       MKVACFND
000566:
000567: 14,6430           03052                           TC       ABORT                                 #  VAC AREAS ALL OCCUPIED - ABORT.
000568: 14,6431           01207                           OCT      01207
000569:
000570: 14,6432           65503        MKVACFND           AD       TWO                                   #  ADDRESS OF VAC.
000571: 14,6433           50735                           TS       MARKSTAT
000572: 14,6434           20000                           INDEX    A
000573: 14,6435           50052                           TS       QPRET                                 #  USED TO SHOW NEXT AVAILABLE MARK SLOT.
000574:
000575: 14,6436           35501                           CAF      ZERO                                  #  SHOW VACAREA IS OCCUPIED.
000576: 14,6437           20735                           INDEX    MARKSTAT
000577: 14,6440           47777                           TS       0          -1
000578:
000579: 14,6441           34503                           CAF      BIT12                                 #  PLACE DESIRED NUMBER OF MARKS IN 12 - 14
000580: 14,6442           25777                           EXTEND
000581: 14,6443           40637                           MP       RUPTREG1
000582: 14,6444           30003                           XCH      LP
000583: 14,6445           60735                           AD       MARKSTAT                              #  JUST CONTAINS LOW 9 BITS OF VAC ADDRESS.
000584: 14,6446           50735                           TS       MARKSTAT
000585:
000586: 14,6447           32165        MARKEXIT           CAF      PRIO32
000587: 14,6450           02052                           TC       NOVAC
000588: 14,6451           30667                           CADR     MKVB51
000589: 14,6452           06020                           TC       MODEEXIT
000590:
000591:
000592:                                                                                                  #        MARK SYSTEM RELEASING ROUTINE.
000593:
000594: 14,6453           35501        MKRELEAS           CAF      ZERO                                  #  SHOW MARK SYSTEM NOW AVAILABLE.
000595: 14,6454           30735                           XCH      MARKSTAT
000596: 14,6455           10000                           CCS      A
000597: 14,6456           20000                           INDEX    A
000598: 14,6457           50000                           TS       0
000599:
000600: 14,6460           05702                           TC       SWRETURN
000601:
000602:
000603:                                                                                                  #        KEYRUPT LEAD-IN AND MARK/MARK ACCEPT PROGRAMS.
000604:
000605: 14,6461           50030        KEYRUPTA           TS       BANKRUPT
000606: 14,6462           40053        MARK               CS       OPTY                                  #  PRECISION OPTICS DRIVE - GATHER DATA
000607: 14,6463           50577                           TS       RUPTSTOR   +5                         #  IMMEDIATELY AND THEN TRANSFER TO VAC.
000608:
000609: 14,6464           40052                           CS       OPTX                                  #  SHAFT OPTICS ENCODER.
000610: 14,6465           50575                           TS       RUPTSTOR   +3
000611:
000612: 14,6466           40050                           CS       CDUY                                  #  READ INNER-MIDDLE-OUTER IMUCDUS.
000613: 14,6467           50574                           TS       RUPTSTOR   +2
000614:
000615: 14,6470           40051                           CS       CDUZ
000616: 14,6471           50576                           TS       RUPTSTOR   +4
000617:
000618: 14,6472           40047                           CS       CDUX
000619: 14,6473           50600                           TS       RUPTSTOR   +6
000620:
000621: 14,6474           02700                           TC       READTIME   +1                         #  SPECIAL DP TIME COUNTER-READING ROUTINE.
000622:
000623: 14,6475           10004                           CCS      IN0                                   #  SEE IF KEYCODE OR MARK.
000624: 14,6476           64516                           AD       ONE
000625: 14,6477           06664                           TC       KEYCALL
000626: 14,6500           06501                           TC       +1                                    #  IN0 SHOULD NEVER CONTAIN -0.
000627:
000628: 14,6501           30007                           XCH      IN3                                   #  NOW FIND OUT IF IT WAS A MARK-REJECT.
000629: 14,6502           30007                           XCH      IN3
000630: 14,6503           74503                           MASK     BIT12                                 #  OPT ZERO/MARK REJECT BIT.
000631: 14,6504           10000                           CCS      A
000632: 14,6505           06601                           TC       MKREJECT
000633:
000634: 14,6506           10735                           CCS      MARKSTAT                              #  SEE IF MARKS BEING CALLED FOR.
000635: 14,6507           06533                           TC       MARK2
000636:
000637: 14,6510           30575                           XCH      RUPTSTOR   +3                         #  STORE IN OBTAINED MPAC COMPLEMENTED.
000638: 14,6511           50637                           TS       RUPTREG1                              #  OPTICS ANGLES AND MINOR PART OF TIME.
000639: 14,6512           30577                           XCH      RUPTSTOR   +5                         #  -OPTX, -OPTY, AND -TIME1.
000640: 14,6513           50640                           TS       RUPTREG2
000641: 14,6514           30573                           XCH      RUPTSTOR   +1
000642: 14,6515           50641                           TS       RUPTREG3
000643:
000644: 14,6516           32143                           CAF      PRIO5                                 #  CALL SPECIAL DISPLAY JOB
000645: 14,6517           02052                           TC       NOVAC
000646: 14,6520           30641                           CADR     MARKDISP
000647:
000648: 14,6521           30637                           XCH      RUPTREG1                              #  PLANT INFORMATION IN MPAC OF REGISTER
000649: 14,6522           20601                           INDEX    LOCCTR                                #  SET.
000650: 14,6523           50115                           TS       MPAC
000651: 14,6524           30640                           XCH      RUPTREG2
000652: 14,6525           20601                           INDEX    LOCCTR
000653: 14,6526           50116                           TS       MPAC       +1
000654: 14,6527           30641                           XCH      RUPTREG3
000655: 14,6530           20601                           INDEX    LOCCTR
000656: 14,6531           50117                           TS       MPAC       +2
000657:
000658: 14,6532           02264                           TC       RESUME
000659:
000660:
000661: 14,6533           66666        MARK2              AD       74K                                   #  SEE IF ANY MORE MARKS CALLED FOR.
000662: 14,6534           10000                           CCS      A
000663: 14,6535           06542                           TC       MARK3
000664: 14,6536           76777        BIT10BAR           OCT      -1000
000665: 14,6537           03015        BADMARK            TC       ALARM
000666: 14,6540           00106                           OCT      00106
000667: 14,6541           02264                           TC       RESUME                                #  NO FURTHER ACTION HERE.
000668:
000669: 14,6542           64516        MARK3              AD       ONE                                   #  SET BIT 10 = 1 TO ENABLE MARK
000670: 14,6543           76536                           MASK     BIT10BAR                              #  REJECT.
000671: 14,6544           64505                           AD       BIT10
000672: 14,6545           50735                           TS       MARKSTAT
000673:
000674: 14,6546           74607                           MASK     LOW9                                  #  SET UP REGISTER TRANSFER LOOP.
000675: 14,6547           50640                           TS       RUPTREG2                              #  ADVANCE POINTER IN QPRET.
000676: 14,6550           20000                           INDEX    A
000677: 14,6551           30052                           XCH      QPRET                                 #  PICK UP MARK SLOT-POINTER.
000678: 14,6552           64475                           AD       SIX
000679: 14,6553           50637                           TS       RUPTREG1
000680: 14,6554           64516                           AD       ONE
000681: 14,6555           20640                           INDEX    RUPTREG2
000682: 14,6556           50052                           TS       QPRET
000683: 14,6557           34475                           CAF      SIX                                   #  LOOP SEVEN TIMES.
000684:
000685: 14,6560           50640        READLOOP           TS       RUPTREG2
000686: 14,6561           20000                           INDEX    A
000687: 14,6562           40572                           CS       RUPTSTOR
000688: 14,6563           20637                           INDEX    RUPTREG1
000689: 14,6564           50000                           TS       0
000690: 14,6565           10637                           CCS      RUPTREG1                              #  ADDRESS NEXT LOCATION IN VAC.
000691: 14,6566           50637                           TS       RUPTREG1
000692: 14,6567           10640                           CCS      RUPTREG2
000693: 14,6570           06560                           TC       READLOOP
000694:
000695: 14,6571           32261                           CAF      HI5                                   #  IF ALL REQUESTED MARKS MADE, CHANGE
000696: 14,6572           70735                           MASK     MARKSTAT                              #  DSKY TO VERB 50 FLASHING.
000697: 14,6573           10000                           CCS      A
000698: 14,6574           02264                           TC       RESUME
000699: 14,6575           32165                           CAF      PRIO32
000700: 14,6576           02052                           TC       NOVAC
000701: 14,6577           30740                           CADR     MKVB50
000702: 14,6600           02264                           TC       RESUME                                #  DONE.
000703:
000704:
000705: 14,6601           10735        MKREJECT           CCS      MARKSTAT                              #  SEE IF MARKS BEING ACCEPTED.
000706: 14,6602           06606                           TC       REJECT2
000707: 14,6603           03015                           TC       ALARM                                 #  CURSE IF NOT.
000708: 14,6604           00107                           OCT      00107
000709: 14,6605           02256                           TC       TASKOVER                              #  (UNTIL MK ACCEPT BUTTON AVAILABLE).
000710:
000711: 14,6606           44505        REJECT2            CS       BIT10                                 #  SEE IF MARK HAD BEEN MADE SINCE LAST
000712: 14,6607           70735                           MASK     MARKSTAT                              #  MARK REJECT, AND SET BIT 10 TO ZERO TO
000713: 14,6610           30735                           XCH      MARKSTAT                              #  SHOW MARK REJECT.
000714: 14,6611           74505                           MASK     BIT10
000715: 14,6612           10000                           CCS      A
000716: 14,6613           06617                           TC       REJECT3
000717:
000718: 14,6614           03015                           TC       ALARM                                 #  DONT ACCEPT TWO MARK REJECTS TOGETHER.
000719: 14,6615           00110                           OCT      00110
000720: 14,6616           02256                           TC       TASKOVER                              #  (UNTIL MK REJECT BUTTON AVAILABLE).
000721:
000722: 14,6617           34607        REJECT3            CAF      LOW9                                  #  DECREMENT POINTER TO REJECT MARK.
000723: 14,6620           70735                           MASK     MARKSTAT
000724: 14,6621           50577                           TS       ITEMP1
000725: 14,6622           45362                           CS       SEVEN
000726: 14,6623           20577                           INDEX    ITEMP1
000727: 14,6624           60052                           AD       QPRET
000728: 14,6625           20577                           INDEX    ITEMP1
000729: 14,6626           50052                           TS       QPRET                                 #  NEW POINTER.
000730:
000731: 14,6627           34503                           CAF      BIT12                                 #  INCREMENT MARKS-TO-BE-ACCEPTED FIELD
000732: 14,6630           60735                           AD       MARKSTAT                              #  AND IF FIELD IS NOW NON-ZERO, CHANGE
000733: 14,6631           30735                           XCH      MARKSTAT                              #  DSKY TO VERB 51 FLASHING TO INDICATE
000734: 14,6632           72261                           MASK     HI5                                   #  MORE MARKS REQUIRED.
000735: 14,6633           10000                           CCS      A
000736: 14,6634           02256                           TC       TASKOVER                              #  (UNTIL BUTTON AVAIL.)
000737: 14,6635           32165                           CAF      PRIO32
000738: 14,6636           02052                           TC       NOVAC
000739: 14,6637           30745                           CADR     REMKVB51
000740: 14,6640           02256                           TC       TASKOVER
000741:
000742:
000743: 14,6641           03310        MARKDISP           TC       GRABDSP                               #  SPECIAL JOB TO DISPLAY UNCALLED-FOR MARK
000744: 14,6642           03316                           TC       PREGBSY
000745:
000746: 14,6643           40115        REMKDSP            CS       MPAC                                  #  THE MPAC REGISTERS CONTIN -OPTX, -OPTY,
000747: 14,6644           50616                           TS       DSPTEM1
000748: 14,6645           40116                           CS       MPAC       +1
000749: 14,6646           50617                           TS       DSPTEM1    +1
000750: 14,6647           40117                           CS       MPAC       +2
000751: 14,6650           50621                           TS       DSPTEM2
000752: 14,6651           35501                           CAF      ZERO
000753: 14,6652           50620                           TS       DSPTEM1    +2
000754:
000755: 14,6653           36662                           CAF      MKDSPCOD                              #  NOUN-VERB FOR MARK DISPLAY.
000756: 14,6654           03106                           TC       NVSUB
000757: 14,6655           06660                           TC       MKDSPBSY                              #  IF BUSY.
000758:
000759: 14,6656           03370        ENDMKDSP           TC       FREEDSP
000760:
000761: 14,6657           02124                           TC       ENDOFJOB
000762:
000763: 14,6660           36663        MKDSPBSY           CAF      LREMKDSP                              #  TAKE DATA OUT OF MPAC WHEN RE-AWAKENED.
000764: 14,6661           03326                           TC       NVSUBUSY
000765:
000766: 14,6662           00656        MKDSPCOD           OCT      00656
000767: 14,6663           30643        LREMKDSP           CADR     REMKDSP
000768:
000769: 14,6664           05720        KEYCALL            TC       POSTJUMP                              #  GO TO KEYBOARD/DISPLAY BANK WITH A
000770: 14,6665           10001                           CADR     KEYRUPTC                              #  GO THRU STANDARD LOC.
000771:
000772: 14,6666           74000        74K                OCT      74000
000773:
000774: 14,6667  14,6406               SCTMARK            EQUALS   SXTMARK
000775:
000776:
000777:                                                                                                  #        KEYBOARD AND DISPLAY ROUTINES FOR MARK PROCEDURES.
000778:
000779:                                                                                                  #        FLASH VERB 51 WHEN WAITING FOR MARKS, CHANGING TO VERB 50 FLASHING WHEN ALL ARE IN.
000780:
000781: 14,6667           36743        MKVB51             CAF      VB51                                  #  ASSUME USING PROGRAM HAS GRABBED DSP.
000782: 14,6670           03106                           TC       NVSUB
000783: 14,6671           03323                           TC       PRENVBSY
000784: 14,6672           05654                           TC       BANKCALL
000785: 14,6673           14000                           CADR     FLASHON
000786: 14,6674           03144                           TC       ENDIDLE
000787: 14,6675           06726                           TC       MKVB5X                                #  DONT RESPOND TO PROCEED OR TERMINATE.
000788: 14,6676           06726                           TC       MKVB5X
000789:
000790: 14,6677           36737                           CAF      OCT76                                 #  ON ENTER, SEE IF DATA LOADED INSTEAD.
000791: 14,6700           70602                           MASK     VERBREG
000792: 14,6701           66704                           AD       -OCT50                                #  VERBS 50 AND 51 CAUSE END MARK ROUTINES.
000793: 14,6702           10000                           CCS      A
000794: 14,6703           06726                           TC       MKVB5X                                #  ON DATA LOAD, RE-DISPLAY ORIGINAL VERB.
000795: 14,6704           77727        -OCT50             OCT      -50
000796: 14,6705           06726                           TC       MKVB5X
000797:
000798: 14,6706           34607                           CAF      LOW9
000799: 14,6707           70735                           MASK     MARKSTAT
000800: 14,6710           50735                           TS       MARKSTAT                              #  VAC ADR IN MARKSTAT AND NO. MARKS MADE
000801: 14,6711           40000                           COM
000802: 14,6712           20735                           INDEX    MARKSTAT                              #  WILL BE LEFT IN QPRET.
000803: 14,6713           60052                           AD       QPRET
000804: 14,6714           25777                           EXTEND
000805: 14,6715           44503                           MP       BIT12
000806: 14,6716           64516                           AD       ONE
000807: 14,6717           20735                           INDEX    MARKSTAT
000808: 14,6720           50052                           TS       QPRET
000809:
000810: 14,6721           20017                           INHINT                                         #  GO SERVICE OPTSTALL INTERFACE WITH
000811: 14,6722           34516                           CAF      ONE                                   #  USING PROGRAM.
000812: 14,6723           02173                           TC       WAITLIST
000813: 14,6724           30734                           CADR     ENDMARKS
000814: 14,6725           02124                           TC       ENDOFJOB
000815:
000816:
000817: 14,6726           32261        MKVB5X             CAF      HI5                                   #  RE-DISPLAY VERB 51 IF MORE MARKS
000818: 14,6727           70735                           MASK     MARKSTAT                              #  WANTED AND VERB 50 IF ALL IN.
000819: 14,6730           10000                           CCS      A
000820: 14,6731           34510                           CAF      BIT7                                  #  (MAKES VERB 51).
000821: 14,6732           66736                           AD       VB50
000822: 14,6733           06670                           TC       MKVB51     +1
000823:
000824: 14,6734           06261        ENDMARKS           TC       ENDOPT
000825: 14,6735           06314                           TC       GOODEND
000826:
000827: 14,6736           05000        VB50               OCT      5000
000828: 14,6737           00076        OCT76              OCT      76
000829:
000830:                                                                                                  #        ON RECEIPT OF LAST REQUESTED MARK, DISPLAY VERB 50 (STILL FLASHING).
000831:
000832: 14,6740           36736        MKVB50             CAF      VB50
000833: 14,6741           50110                           TS       NVTEMP                                #  SPECIAL ENTRY TO NVSUB WHICH AVOIDS BUSY
000834: 14,6742           03113                           TC       NVSUB      +5                         #  TEST.
000835: 14,6743           05100        VB51               OCT      5100
000836: 14,6744           02124                           TC       ENDOFJOB
000837:
000838:                                                                                                  #        IF THE ABOVE IS REJECTED, REVERT TO VERB 51.
000839:
000840: 14,6745           36743        REMKVB51           CAF      VB51
000841: 14,6746           06741                           TC       MKVB50     +1
000842:
000843:
000844:                                                                                                  #        THE FOLLOWING ROUTINE ALLOWS INTERLOCKING OF IMU COMPENSATION AND CERTAIN IMU MODE CHANGES WHICH ARE
000845:                                                                                                  #  MEANINGFUL AFTER THE IMU HAS BEEN ALIGNED. THESE INCLUDE IMUFINNW, IMUATTC, AND IMUREENT.
000846:
000847: 14,6747           20017        TSTIMACT           INHINT                                         #  TEST IMU ACTIVITY BIT TO SEE IF GYROS
000848: 14,6750           30001                           XCH      Q
000849: 14,6751           50117                           TS       MPAC       +2
000850: 14,6752           44504                           CS       BIT11                                 #  BEING TORQUED NOW.
000851: 14,6753           70646                           MASK     FLAGWRD1
000852: 14,6754           64504                           AD       BIT11
000853: 14,6755           30646                           XCH      FLAGWRD1
000854: 14,6756           74504                           MASK     BIT11
000855: 14,6757           10000                           CCS      A
000856: 14,6760           06762                           TC       +2                                    #  IMU BUSY.
000857: 14,6761           00117                           TC       MPAC       +2                         #  CHANNEL AVAILABLE - PROCEED AS USUAL.
000858:
000859: 14,6762           30072                           XCH      BANKTEM                               #  PUT THE JOB TO SLEEP FOR MAX TIME IT
000860: 14,6763           50115                           TS       MPAC                                  #  SHOULD TAKE TO COMPENSATE.
000861: 14,6764           30071                           XCH      TEMQS
000862: 14,6765           50116                           TS       MPAC       +1
000863: 14,6766           36103                           CAF      320MS
000864: 14,6767           02173                           TC       WAITLIST
000865: 14,6770           30773                           CADR     IMACT2
000866: 14,6771           37000                           CAF      LIMUACTW
000867: 14,6772           02127                           TC       JOBSLEEP
000868:
000869:                                                                                                  #        WAKE UP THE JOB AND SETTHE ACTIVITY FLAG.
000870:
000871: 14,6773           37000        IMACT2             CAF      LIMUACTW
000872: 14,6774           02060                           TC       JOBWAKE
000873: 14,6775           03424                           TC       FLAG1UP
000874: 14,6776           02000                           OCT      02000
000875: 14,6777           02256                           TC       TASKOVER
000876:
000877: 14,7000           31001        LIMUACTW           CADR     IMUACTW
000878:
000879: 14,7001           20017        IMUACTW            INHINT
000880: 14,7002           30115                           XCH      MPAC                                  #  PROCEED WITH MODE SWITCH.
000881: 14,7003           50072                           TS       BANKTEM
000882: 14,7004           30116                           XCH      MPAC       +1
000883: 14,7005           50071                           TS       TEMQS
000884: 14,7006           00117                           TC       MPAC       +2

End of include-file MODE_SWITCHING_AND_MARK_ROUTINES.agc.  Parent file is MAIN.agc


