
Source Code


000002:                                                                                                  ## Copyright:   Public domain.
000003:                                                                                                  ## Filename:    ORBITAL_INTEGRATION_FOR_202.agc
000004:                                                                                                  ## Purpose:     A section of Corona revision 261.
000005:                                                                                                  ##              It is part of the source code for the Apollo Guidance Computer
000006:                                                                                                  ##              (AGC) for AS-202. No original listings of this software are
000007:                                                                                                  ##              available; instead, this file was created via disassembly of
000008:                                                                                                  ##              the core rope modules actually flown on the mission.
000009:                                                                                                  ## Assembler:   yaYUL
000010:                                                                                                  ## Contact:     Ron Burkey <info@sandroid.org>.
000011:                                                                                                  ## Website:     www.ibiblio.org/apollo/index.html
000012:                                                                                                  ## Mod history: 2023-05-27 MAS  Created from Solarium 55.
000013:                                                                                                  ##              2023-06-17 MAS  Updated for Corona.
000014:
000015:
000016: 30,6000                                           SETLOC   60000
000017:
000018: 30,6000           53574        AVETOMD1           AXC,1    2
000019: 30,6001           45535                           ITA      SXA,1
000020: 30,6002           76776                           ITC
000021: 30,6003           00002                                    1
000022: 30,6004           01303                                    MIDEXIT
000023: 30,6005           01301                                    MEASMODE
000024: 30,6006           20015                                    AVETOMID
000025:
000026: 30,6007           53575        AVETOMD2           AXC,1    1
000027: 30,6010           45535                           ITA      SXA,1
000028: 30,6011           00003                                    2
000029: 30,6012           01303                                    MIDEXIT
000030: 30,6013           01301                                    MEASMODE
000031:
000032: 30,6014           75170        AVETOMID           VMOVE    6
000033: 30,6015           75535                           AXT,1    SXA,1
000034: 30,6016           75535                           AXT,1    SXA,1
000035: 30,6017           75535                           AXT,1    SXA,1
000036: 30,6020           75535                           AXT,1    SXA,1
000037: 30,6021           75535                           AXT,1    SXA,1
000038: 30,6022           75535                           AXT,1    SXA,1
000039: 30,6023           15575                                    ZEROVEC
000040: 30,6024           00001                                    0
000041: 30,6025           01304                                    WMATFLAG                              #  TURN OFF WMATRIX INTEGRATION.
000042: 30,6026           00017                                    RSCALE
000043: 30,6027           01313                                    SCALER                                #  SET SCALE OF POSITION.
000044: 30,6030           00005                                    4
000045: 30,6031           01312                                    SCALDELT                              #  ALSO DEVIATION.
000046: 30,6032           00023                                    18D
000047: 30,6033           01311                                    SCALEDT                               #  AND TIME STEP.
000048: 30,6034           07461                                    EARTHTAB
000049: 30,6035           01040                                    PBODY
000050: 30,6036           20077                                    TESTTET
000051: 30,6037           01305                                    STEPEXIT
000052: 30,6040           33115                           STORE    TDELTAV                               #  ZERO POSITION DEVIATION.
000053:
000054: 30,6041           47576                           NOLOD    0
000055: 30,6042           33123                           STORE    TNUV                                  #  ALSO VELOCITY.
000056:
000057: 30,6043           47576                           NOLOD    0                                     #  AND TIME SINCE RECTIFICATION, TIME,
000058: 30,6044           33145                           STORE    TC                                    #  AND KEPLER X.
000059: 30,6045           75575                           AXT,1    1
000060: 30,6046           55575                           AST,1    EXIT
000061: 30,6047           00015                                    12D
000062: 30,6050           00007                                    6
000063:
000064: 30,6051           46250                           CS       INITMSK
000065: 30,6052           70645                           MASK     STATE
000066: 30,6053           50645                           TS       STATE
000067: 30,6054           04000                           TC       INTPRET
000068:
000069: 30,6055           75375        RVTOMID            VXSC*    1                                     #  TRANSFORM POSITION AND VELOCITY TO
000070: 30,6056           51622                           VXM      VSLT
000071: 30,6057           02231                                    RRECT      +12D,1
000072: 30,6060           27455                                    SCLRAVMD   +12D,1
000073: 30,6061           01052                                    REFSMMAT
000074: 30,6062           00003                                    2
000075: 30,6063           36231                           STORE    RRECT      +12D,1
000076:
000077: 30,6064           47576                           NOLOD    0
000078: 30,6065           36311                           STORE    RCV        +12D,1
000079:
000080: 30,6066           51576                           TIX,1    0
000081: 30,6067           20056                                    RVTOMID
000082:
000083: 30,6070           64775                           DMP      1
000084: 30,6071           63776                           TSLT
000085: 30,6072           01211                                    TAVEGON
000086: 30,6073           13617                                    SCLTAVMD
000087: 30,6074           00004                                    3
000088: 30,6075           33267                           STORE    TDEC
000089:
000090:
000091: 30,6076           71575        TESTTET            LXC,1    1
000092: 30,6077           55445                           AST,1    TIX,1
000093: 30,6100           01301                                    MEASMODE
000094: 30,6101           00002                                    1
000095: 30,6102           20106                                    +3
000096:
000097: 30,6103           76776                           ITC      0
000098: 30,6104           20111                                    +4
000099:
000100: 30,6105           43576                           TEST     0
000101: 30,6106           00023                                    UPDATFLG
000102: 30,6107           27200                                    NOSTATE
000103:
000104: 30,6110           72776                           STZ      0
000105: 30,6111           00123                                    OVFIND
000106:
000107: 30,6112           66775                           DSU      1
000108: 30,6113           63712                           TSLT     DDV
000109: 30,6114           01267                                    TDEC
000110: 30,6115           01147                                    TET
000111: 30,6116           00012                                    9D
000112: 30,6117           07472                                    EARTHTAB   +9D
000113: 30,6120           33263                           STORE    DT/2
000114:
000115: 30,6121           71773                           BOV      3
000116: 30,6122           65132                           ABS      DSU
000117: 30,6123           73742                           BMN      DAD
000118: 30,6124           66756                           DSU      BMN
000119: 30,6125           20135                                    USEMAXDT
000120: 30,6126           01263                                    DT/2
000121: 30,6127           11340                                    DT/2MIN
000122: 30,6130           20144                                    DODCSION
000123: 30,6131           11340                                    DT/2MIN
000124: 30,6132           11342                                    DT/2MAX
000125: 30,6133           07131                                    TIMESTEP
000126:
000127: 30,6134           45175        USEMAXDT           DMOVE    1
000128: 30,6135           53776                           SIGN
000129: 30,6136           11342                                    DT/2MAX
000130: 30,6137           01263                                    DT/2
000131: 30,6140           33263                           STORE    DT/2
000132:
000133: 30,6141           76776                           ITC      0
000134: 30,6142           07131                                    TIMESTEP
000135:
000136:
000137: 30,6143           76776        DODCSION           ITC      0                                     #  RECTIFY TO OBTAIN FULL POSITION
000138: 30,6144           07165                                    RECTIFY                               #  AND VELOCUTY VECTORS.
000139:
000140: 30,6145           43175                           SMOVE    1
000141: 30,6146           73636                           BMN      BZE
000142: 30,6147           01301                                    MEASMODE                              #  TEST MEASMODE.
000143: 30,6150           20201                                    AVEGON                                #  MEASMODE = -1.
000144: 30,6151           20225                                    IGN-4SEC                              #  MEASMODE = 0.
000145:
000146: 30,6152           75575                           AXT,1    1                                     #  MEASMODE = +1.
000147: 30,6153           55576                           AST,1
000148: 30,6154           00015                                    12D
000149: 30,6155           00007                                    6
000150:
000151: 30,6156           75375        RVTOAVE            VXSC*    1                                     #  TRANSFORM POSITION AND VELOCITY VECTORS
000152: 30,6157           52622                           MXV      VSLT
000153: 30,6160           02231                                    RRECT      +12D,1
000154: 30,6161           27461                                    SCLRMDAV   +12D,1
000155: 30,6162           01052                                    REFSMMAT
000156: 30,6163           00002                                    1
000157: 30,6164           36231                           STORE    RIGNTION   +12D,1
000158:
000159: 30,6165           75375                           VXSC*    1
000160: 30,6166           52622                           MXV      VSLT
000161: 30,6167           02461                                    RAVEGON    +12D,1
000162: 30,6170           27461                                    SCLRMDAV   +12D,1
000163: 30,6171           01052                                    REFSMMAT
000164: 30,6172           00002                                    1
000165: 30,6173           36461                           STORE    RAVEGON    +12D,1
000166:
000167: 30,6174           51576                           TIX,1    0
000168: 30,6175           20157                                    RVTOAVE
000169:
000170: 30,6176           44576                           ITCI     0
000171: 30,6177           01303                                    MIDEXIT                               #  RETURN.
000172:
000173:
000174: 30,6200           75176        AVEGON             VMOVE    0                                     #  SAVE POSITION AND VELOCITY AT
000175: 30,6201           01101                                    RRECT                                 #  AVERAGE G ON TIME.
000176: 30,6202           33215                           STORE    RAVEGON
000177:
000178: 30,6203           75176                           VMOVE    0
000179: 30,6204           01107                                    VRECT
000180: 30,6205           33223                           STORE    VAVEGON
000181:
000182: 30,6206           71575                           LXC,1    1
000183: 30,6207           55445                           AST,1    TIX,1
000184: 30,6210           01301                                    MEASMODE
000185: 30,6211           00002                                    1
000186: 30,6212           20153                                    RVTOAVE    -4
000187:
000188: 30,6213           70775                           DAD      1
000189: 30,6214           75535                           AXT,1    SXA,1
000190: 30,6215           01267                                    TDEC
000191: 30,6216           20245                                    1M555S                                #  1 MINUTES, 55.4 SECS
000192: 30,6217           00001                                    0
000193: 30,6220           01301                                    MEASMODE                              #  MAKE MEASMODE 0.
000194: 30,6221           33267                           STORE    TDEC
000195:
000196: 30,6222           76776                           ITC      0
000197: 30,6223           20077                                    TESTTET                               #  CONTINUE INTEGRATION.
000198:
000199:
000200:
000201: 30,6224           75775        IGN-4SEC           VXSC     1                                     #  TRANSFORM AND SAVE POSITION ONLY
000202: 30,6225           52622                           MXV      VSLT
000203: 30,6226           01101                                    RRECT
000204: 30,6227           13615                                    SCLRMDAV
000205: 30,6230           01052                                    REFSMMAT
000206: 30,6231           00002                                    1
000207: 30,6232           33231                           STORE    RIG-4SEC
000208:
000209: 30,6233           70775                           DAD      1
000210: 30,6234           75535                           AXT,1    SXA,1
000211: 30,6235           01267                                    TDEC
000212: 30,6236           20247                                    17.75SEC                              #  ADD 17.75 SECONDS TO DECISION TIME.
000213: 30,6237           00002                                    1
000214: 30,6240           01301                                    MEASMODE                              #  MAKE MEASMODE +1.
000215: 30,6241           33267                           STORE    TDEC
000216:
000217: 30,6242           76776                           ITC      0
000218: 30,6243           20077                                    TESTTET                               #  DO LAST INTEGRATION STEP.
000219:
000220: 30,6244           00000 26424  1M555S             2DEC     11540      B-28
000221: 30,6246           00000 03357  17.75SEC           2DEC     1775       B-28
000222: 30,6250           30000        INITMSK            OCT      30000

End of include-file ORBITAL_INTEGRATION_FOR_202.agc.  Parent file is MAIN.agc


