
Source Code


000002:                                                                                                  ## Copyright:   Public domain.
000003:                                                                                                  ## Filename:    ORBITAL_INTEGRATION_PROGRAM.agc
000004:                                                                                                  ## Purpose:     A section of Corona revision 261.
000005:                                                                                                  ##              It is part of the source code for the Apollo Guidance Computer
000006:                                                                                                  ##              (AGC) for AS-202. No original listings of this software are
000007:                                                                                                  ##              available; instead, this file was created via disassembly of
000008:                                                                                                  ##              the core rope modules actually flown on the mission.
000009:                                                                                                  ## Assembler:   yaYUL
000010:                                                                                                  ## Contact:     Ron Burkey <info@sandroid.org>.
000011:                                                                                                  ## Website:     www.ibiblio.org/apollo/index.html
000012:                                                                                                  ## Mod history: 2023-05-27 MAS  Created from Solarium 55.
000013:                                                                                                  ##              2023-06-17 MAS  Updated for Corona.
000014:
000015:
000016: 23,6000                                           BANK     23
000017:
000018:                                                                                                  #    *** SCALING FACTORS AND ARGUMENTS ***
000019:
000020: 23,6000                        DEL                =        1
000021: 23,6000                        DEL+E              =        1
000022: 23,6000                        2DEL               =        2
000023: 23,6000                        2DEL+E             =        2
000024: 23,6000                        E                  =        0
000025: 23,6000                        RSCALE             =        14D
000026: 23,6000                        VSCALE             =        6
000027: 23,6000                        TSCALE             =        24D
000028: 23,6000                        2VSCALE            =        12D
000029: 23,6000                        4RSCALE            =        56D
000030: 23,6000                        R+VSCALE           =        22D
000031:
000032:                                                                                                  #        FBR3 SETS UP A TIMESTEP CALL TO KEPLER.
000033:
000034: 23,6000           56775        FBR3               TSRT     1
000035: 23,6001           46542                           ROUND    DAD
000036: 23,6002           01265                                    H
000037: 23,6003           00007                                    TSCALE     -18D
000038: 23,6004           01145                                    TC
000039: 23,6005           33261                           STORE    TAU
000040:
000041: 23,6006           71576                           LXC,1    0
000042: 23,6007           01040                                    PBODY
000043:
000044: 23,6010           42175                           SMOVE*   1
000045: 23,6011           70471                           LXC,2    XSU,2
000046: 23,6012           00021                                    8D,1
000047: 23,6013           00116                                    MPAC
000048: 23,6014           01311                                    SCALEDT
000049:
000050: 23,6015           44174                           DMOVE*   2
000051: 23,6016           64714                           DMP      TSLT*
000052: 23,6017           46542                           ROUND    DAD
000053: 23,6020           00023                                    9D,1
000054: 23,6021           01263                                    DT/2
000055: 23,6022           00002                                    0,2
000056: 23,6023           01147                                    TET
000057: 23,6024           33147                           STORE    TET
000058:
000059: 23,6025           76776        CALLKEP            ITC      0
000060: 23,6026           06036                                    KEPLER
000061:
000062: 23,6027           76776                           ITC      0
000063: 23,6030           06071                                    KEPLER2
000064:
000065: 23,6031           76776        GETKTIME           ITC      0
000066: 23,6032           06146                                    KTIMEN+1
000067:
000068: 23,6033           76776                           ITC      0
000069: 23,6034           06226                                    KEPLER3
000070:
000071:
000072:                                                                                                  #        THIS ORBITAL KEPLER SUBROUTINE FINDS THE POSITION AND VELOCITY OF THE VEHICLE AFTER TIME FOUND IN
000073:                                                                                                  #  GIVENT  SINCE RECTIFICATION TO POSITION  RRECT  AND VELOCITY  VRECT  . THE RESULTING POSITION AND VELOCITY ARE
000074:                                                                                                  #  LEFT IN  FOUNDR  AND  FOUNDV  , RESPECTIVELY.
000075:
000076: 23,6035           73575        KEPLER             LXA,1    1                                     #  UNIT OF RECTIFICATION POSITION TO 0
000077: 23,6036           67553                           SXA,1    UNIT
000078: 23,6037           00070                                    FIXLOC
000079: 23,6040           00124                                    PUSHLOC
000080: 23,6041           01101                                    RRECT
000081:
000082: 23,6042           63776                           TSLT     0                                     #  AND LENGTH OF ORIGINAL IN 6.
000083: 23,6043           00037                                    30D
000084: 23,6044           00002                                    1
000085:
000086: 23,6045           67173                           VSQ      3                                     #  A4 TO REGISTER 8.
000087: 23,6046           46522                           ROUND    DMP
000088: 23,6047           66716                           DSU      TSLT
000089: 23,6050           46576                           ROUND
000090: 23,6051           01107                                    VRECT
000091: 23,6052           00007                                    6                                     #  LENGTH OF POSITION AT RECTIFICATION.
000092: 23,6053           06303                                    DP1/4
000093: 23,6054           00003                                    2
000094:
000095: 23,6055           47574                           NOLOD    2                                     #  ALPHA TO REGISTER 10.
000096: 23,6056           56633                           TSRT     COMP
000097: 23,6057           70712                           DAD      DDV
000098: 23,6060           00003                                    2
000099: 23,6061           06303                                    DP1/4
000100: 23,6062           00007                                    6
000101:
000102: 23,6063           42775                           DOT      1                                     #  A1 TO REGISTER 12.
000103: 23,6064           46576                           ROUND
000104: 23,6065           01101                                    RRECT
000105: 23,6066           01107                                    VRECT
000106:
000107: 23,6067           40576                           ITCQ     0
000108:
000109:
000110: 23,6070           73175        KEPLER2            UNIT     1
000111: 23,6071           74412                           AXT,2    DOT
000112: 23,6072           01131                                    RCV
000113: 23,6073           00013                                    10D                                   #  SET MAXIMUM ITERATION COUNT TO 10.
000114: 23,6074           01137                                    VCV                                   #  IR/2 . VC IN 14
000115:
000116: 23,6075           63776                           TSLT     0
000117: 23,6076           00037                                    30D
000118: 23,6077           00002                                    1
000119: 23,6100           33255                           STORE    ALPHAM                                #  RC IN ALPHAM.
000120:
000121: 23,6101           56775                           TSRT     1
000122: 23,6102           46512                           ROUND    DDV
000123: 23,6103           01263                                    DT/2
000124: 23,6104           00007                                    TSCALE     -18D
000125: 23,6105           01255                                    ALPHAM                                #  Q IN 16.
000126:
000127: 23,6106           62773                           DDV      3
000128: 23,6107           66666                           DSU      DMPR
000129: 23,6110           55666                           DMPR     DMPR
000130: 23,6111           54516                           AST,2    TSLT
000131: 23,6112           06303                                    DP1/4
000132: 23,6113           01255                                    ALPHAM
000133: 23,6114           00013                                    10D                                   #  1/4RC - ALPHA
000134: 23,6115           00021                                    16D                                   #  Q (  )
000135: 23,6116           00021                                    16D                                   #  Q Q (  )
000136: 23,6117           06305                                    DP1/3
000137: 23,6120           00002                                    1
000138: 23,6121           00007                                    2DEL       +4
000139:
000140: 23,6122           55775                           DMPR     1
000141: 23,6123           63776                           TSLT
000142: 23,6124           00017                                    14D
000143: 23,6125           00021                                    16D
000144: 23,6126           00005                                    DEL        +3
000145:
000146: 23,6127           47572                           NOLOD    4
000147: 23,6130           65666                           BDSU     DMPR
000148: 23,6131           65732                           BDSU     DSU
000149: 23,6132           64716                           DMP      TSLT
000150: 23,6133           46542                           ROUND    DAD
000151: 23,6134           07506                                    DP1/2
000152: 23,6135           77777                                    -                                     #  20
000153: 23,6136           07506                                    DP1/2
000154: 23,6137           77777                                    -                                     #  18
000155: 23,6140           77777                                    -                                     #  16
000156: 23,6141           00002                                    1
000157: 23,6142           01151                                    XKEP
000158: 23,6143           33151                           STORE    XKEP
000159:
000160: 23,6144           40576                           ITCQ     0
000161:
000162:
000163:                                                                                                  #  ITERATING EQUATIONS - GIVEN X IN MPAC AND 14D, FIND TIME OF FLIGHT.
000164:
000165:
000166:
000167: 23,6145           47571        KTIMEN+1           NOLOD    5                                     #  FORM ALPHA X-SQUARED AND CALL S AND C.
000168: 23,6146           51031                           DSQ      ROUND
000169: 23,6147           64716                           DMP      TSLT
000170: 23,6150           46555                           ROUND    LXA,1                                 #  AND SET PD INDICATOR TO 16 AS WELL.
000171: 23,6151           63535                           INCR,1   SXA,1
000172: 23,6152           45572                           ITA      ITC
000173: 23,6153           00013                                    10D                                   #  ALPHA
000174: 23,6154           00003                                    2DEL
000175: 23,6155           00070                                    FIXLOC
000176: 23,6156           00021                                    16D
000177: 23,6157           00124                                    PUSHLOC
000178: 23,6160           01273                                    GMODE
000179: 23,6161           06311                                    S(X)C(X)
000180:
000181: 23,6162           47572                           NOLOD    4                                     #  S RETURNS IN MPAC, C ON TOP OF PDL.
000182: 23,6163           64716                           DMP      TSLT
000183: 23,6164           64716                           DMP      TSLT
000184: 23,6165           64716                           DMP      TSLT
000185: 23,6166           46576                           ROUND
000186: 23,6167           01151                                    XKEP
000187: 23,6170           00005                                    4
000188: 23,6171           01151                                    XKEP
000189: 23,6172           00002                                    E          +1
000190: 23,6173           01151                                    XKEP
000191: 23,6174           00002                                    1
000192: 23,6175           32030                           STORE    23D                                   #  A3.
000193:
000194: 23,6176           47575                           NOLOD    1
000195: 23,6177           55776                           DMPR
000196: 23,6200           00011                                    8D
000197:
000198: 23,6201           64774                           DMP      2
000199: 23,6202           63722                           TSLT     DMP
000200: 23,6203           63631                           TSLT     ROUND
000201: 23,6204           01151                                    XKEP
000202: 23,6205           00021                                    16D                                   #  VALUE OF C.
000203: 23,6206           00006                                    5
000204: 23,6207           01151                                    XKEP
000205: 23,6210           00003                                    E          +2
000206: 23,6211           32026                           STORE    21D                                   #  A2.
000207:
000208: 23,6212           47574                           NOLOD    2
000209: 23,6213           64672                           DMP      TSRT
000210: 23,6214           46542                           ROUND    DAD
000211: 23,6215           00015                                    12D                                   #  A1.
000212: 23,6216           00002                                    1
000213: 23,6217           55775                           DMPR     1
000214: 23,6220           70776                           DAD
000215: 23,6221           00007                                    6
000216: 23,6222           01151                                    XKEP                                  #  COMPUTED TIME TO PD+18.
000217:
000218: 23,6223           44576                           ITCI     0
000219: 23,6224           01273                                    GMODE
000220:
000221: 23,6225           47575        KEPLER3            NOLOD    1                                     #  COMPARE COMPUTED TIME WITH GIVEN TIME.
000222: 23,6226           65776                           BDSU
000223: 23,6227           01261                                    GIVENT
000224: 23,6230           32021                           STORE    16D                                   #  DIFFERENCE TO REGISTER 16.
000225:
000226: 23,6231           77576                           EXIT     0                                     #  FOR DUMP ONLY  **************
000227: 23,6232           04000        DUMPDUMP           TC       INTPRET
000228:
000229: 23,6233           47573                           NOLOD    3
000230: 23,6234           65132                           ABS      DSU
000231: 23,6235           73641                           BMN      TIX,2
000232: 23,6236           76776                           ITC
000233: 23,6237           06277                                    KEPSILON                              #  SEE IF WITHIN EPSILON OF GIVEN TIME.
000234: 23,6240           06406                                    GETRANDV                              #  IF SO, GET R AND V AND EXIT.
000235:
000236: 23,6241           06244                                    GETNEWX
000237: 23,6242           06406                                    GETRANDV
000238:
000239: 23,6243           64773        GETNEWX            DMP      3
000240: 23,6244           63631                           TSLT     ROUND
000241: 23,6245           65722                           BDSU     DMP
000242: 23,6246           63631                           TSLT     ROUND
000243: 23,6247           00013                                    10D                                   #  ALPHA
000244: 23,6250           00030                                    23D                                   #  A3
000245: 23,6251           00003                                    2DEL+E
000246: 23,6252           01151                                    XKEP
000247: 23,6253           00015                                    12D                                   #  A1
000248: 23,6254           00005                                    E          -4
000249: 23,6255           32023                           STORE    18D
000250:
000251: 23,6256           64774                           DMP      2
000252: 23,6257           63631                           TSLT     ROUND
000253: 23,6260           70742                           DAD      DAD
000254: 23,6261           00026                                    21D                                   #  A2
000255: 23,6262           00011                                    8D                                    #  A4
000256: 23,6263           00002                                    1
000257: 23,6264           77777                                    -
000258: 23,6265           00007                                    6                                     #  R0
000259:
000260: 23,6266           62775                           DDV      1
000261: 23,6267           70776                           DAD
000262: 23,6270           00021                                    16D
000263: 23,6271           00023                                    18D
000264: 23,6272           01151                                    XKEP
000265: 23,6273           33151                           STORE    XKEP
000266:
000267: 23,6274           76776                           ITC      0
000268: 23,6275           06032                                    GETKTIME
000269:
000270:
000271:                                                                                                  #  CONSTANTS.
000272:
000273: 23,6276           00000        KEPSILON           OCT      00000
000274: 23,6277           00002                           OCT      00002
000275: 23,6300           14000 00000  THREE/8            2DEC     .375
000276: 23,6302           10000 00000  DP1/4              2DEC     .25
000277: 23,6304           12525 12525  DP1/3              2DEC     .333333333
000278: 23,6306  23,6302               DQUARTER           EQUALS   DP1/4
000279: 23,6306           02000 00000  POS1/16            2DEC     .0625
000280: 23,6310  23,6302               POS1/4             EQUALS   DP1/4
000281: 23,6310  23,6300               3/8                EQUALS   THREE/8
000282:
000283:
000284:                                                                                                  #        SUBROUTINE FOR COMPUTING THE UNIVERSAL CONIC FUNCTIONS S(X) AND C(X). THE ACTUAL OUTPUT OF THIS ROUTINE
000285:                                                                                                  #  CONSISTS OF SCALED VERSIONS DEFINED AS FOLLOWS:
000286:
000287:                                                                                                  #                        S (X) = S(64X)                  C (X) = C(64X)/4
000288:                                                                                                  #                         S                               S
000289:
000290:                                                                                                  #        IT IS ASSUMED THAT THE INPUT ARRIVES IN MPAC,MPAC+1, AND THAT IT LIES BETWEEN -30/64 AND 40/64. UPON
000291:                                                                                                  #  EXIT, S(X) WILL BE LEFT IN MPAC,MPAC+1 AND C(X) ON TOP OF THE PUSHDOWN LIST.
000292:
000293:
000294:
000295: 23,6310           47576        S(X)C(X)           NOLOD    0                                     #  SAVE ARGUMENT
000296: 23,6311           32033                           STORE    XSTOREX
000297:
000298: 23,6312           47574                           NOLOD    2                                     #           2
000299: 23,6313           76443                           RTB      DSQ                                   #  COMPUTE A (X)
000300: 23,6314           46576                           ROUND
000301: 23,6315           06350                                    A(X)
000302: 23,6316           32031                           STORE    ASQ
000303:
000304: 23,6317           47573                           NOLOD    3                                     #         2          2
000305: 23,6320           64716                           DMP      TSLT                                  #  C (X)=A (.25 - 2XA ) TO PUSHDOWN LIST
000306: 23,6321           46526                           ROUND    BDSU                                  #   S
000307: 23,6322           55776                           DMPR
000308: 23,6323           00033                                    XSTOREX
000309: 23,6324           00002                                    1
000310: 23,6325           06303                                    POS1/4
000311: 23,6326           00031                                    ASQ
000312:
000313: 23,6327           56775                           TSRT     1                                     #   2
000314: 23,6330           46576                           ROUND                                          #  A /4 TO PUSHDOWN LIST
000315: 23,6331           00031                                    ASQ
000316: 23,6332           00003                                    2
000317:
000318: 23,6333           45174                           DMOVE    2                                     #   2
000319: 23,6334           76443                           RTB      DSQ                                   #  B  TO PUSHDOWN LIST
000320: 23,6335           46576                           ROUND
000321: 23,6336           00033                                    XSTOREX
000322: 23,6337           06367                                    B(X)
000323:
000324: 23,6340           55774                           DMPR     2                                     #               2        2    2
000325: 23,6341           65666                           BDSU     DMPR                                  #  LEAVE S (X)=B (.0625-A X)+A /4 IN MPAC
000326: 23,6342           70601                           DAD      ITCQ                                  #         S
000327: 23,6343           00033                                    XSTOREX
000328: 23,6344           00031                                    ASQ
000329: 23,6345           06307                                    POS1/16
000330:
000331: 23,6346                        XSTOREX            =        26D
000332: 23,6346                        ASQ                =        24D
000333: 23,6346           70707                           OCT      70707                                 #  THIS HAS TO BE NEGATIVE TO TERMINATE EQN
000334:
000335:
000336: 23,6347           05554        A(X)               TC       POLY                                  #  A AND B POLYNOMIALS WHOSE COEFFICI-
000337:
000338: 23,6350           00012                           DEC      10         B-14                       #    ENTS WERE OBTAINED WITH THE *AUTO-
000339:
000340: 23,6351           26501 07463                     2DEC     7.071067810 E-1                        #    CURVEFIT* PROGRAM
000341: 23,6353           60724 60210                     2DEC     -4.714045180 E-1
000342: 23,6355           03010 26256                     2DEC     9.42808914 E-2
000343: 23,6357           77554 74242                     2DEC     -8.9791893 E-3
000344: 23,6361           00010 05475                     2DEC     4.989987   E-4
000345: 23,6363           77777 66460                     2DEC     -1.79357   E-5
000346:
000347: 23,6365           04024                           TC       DANZIG                                #  RE-ENTER INTERPRETER
000348:
000349:
000350:
000351: 23,6366           05554        B(X)               TC       POLY
000352:
000353: 23,6367           00012                           DEC      10         B-14
000354:
000355: 23,6370           32101 17270                     2DEC     8.164965793 E-1
000356: 23,6372           65431 40174                     2DEC     -3.265986572 E-1
000357: 23,6374           01710 10660                     2DEC     5.90988980 E-2
000358: 23,6376           77676 52270                     2DEC     -4.0085592 E-3
000359: 23,6400           00004 21652                     2DEC     2.781528   E-4
000360: 23,6402           77777 71323                     2DEC     -1.25610   E-5
000361:
000362: 23,6404           04024                           TC       DANZIG                                #  RETURN AS BEFORE
000363:
000364:
000365:                                                                                                  #  ROUTINE FOR OBTAINING R AND V, NOW THAT THE PROPER X HAS BEEN FOUND.
000366:
000367:
000368:
000369: 23,6405           73574        GETRANDV           LXA,1    2
000370: 23,6406           63535                           INCR,1   SXA,1
000371: 23,6407           47166                           COMP     VXSC
000372: 23,6410           00070                                    FIXLOC
000373: 23,6411           00032                                    25D
000374: 23,6412           00124                                    PUSHLOC
000375: 23,6413           00026                                    21D                                   #  AZ FROM LAST ITERATION.
000376: 23,6414           00001                                    0                                     #  UNIT OF GIVEN POSITION VECTOR.
000377:
000378: 23,6415           66774                           DSU      2
000379: 23,6416           63766                           TSLT     VXSC
000380: 23,6417           50622                           VAD      VSLT
000381: 23,6420           00023                                    18D                                   #  LAST VALUE OF T.
000382: 23,6421           00030                                    23D                                   #  LAST VALUE OF A3.
000383: 23,6422           00003                                    DEL        +1
000384: 23,6423           01107                                    VRECT
000385: 23,6424           77777                                    -
000386: 23,6425           00002                                    1
000387:
000388: 23,6426           47575                           NOLOD    1                                     #  ADDITION MUST BE DONE IN THIS ORDER.
000389: 23,6427           50642                           VAD      VAD
000390: 23,6430           01101                                    RRECT
000391: 23,6431           33131                           STORE    FOUNDR                                #  RESULTING CONIC POSITION.
000392:
000393: 23,6432           47575                           NOLOD    1                                     #  LENGTH OF ABOVE TO PD+16.
000394: 23,6433           71116                           ABVAL    TSLT
000395: 23,6434           00002                                    1
000396: 23,6435           32021                           STORE    16D
000397:
000398: 23,6436           64773                           DMP      3
000399: 23,6437           63631                           TSLT     ROUND
000400: 23,6440           66712                           DSU      DDV
000401: 23,6441           75622                           VXSC     VSLT
000402: 23,6442           00013                                    10D                                   #  ALPHA.
000403: 23,6443           00030                                    23D                                   #  A3
000404: 23,6444           00003                                    2DEL+E
000405: 23,6445           01151                                    XKEP
000406: 23,6446           00021                                    16D                                   #  LENGTH OF FOUND POSITION.
000407: 23,6447           00001                                    0                                     #  UNIT OF RECTIFICATION POSITION.
000408: 23,6450           00003                                    2
000409: 23,6451           56773                           TSRT     3
000410: 23,6452           66712                           DSU      DDV
000411: 23,6453           75642                           VXSC     VAD
000412: 23,6454           44776                           VSLT
000413: 23,6455           00021                                    16D
000414: 23,6456           00002                                    1
000415: 23,6457           00026                                    21D
000416: 23,6460           00021                                    16D
000417: 23,6461           01107                                    VRECT
000418: 23,6462           77777                                    -
000419: 23,6463           00002                                    1
000420: 23,6464           33137                           STORE    FOUNDV                                #  THIS COMPLETES THE CALCULATION.
000421:
000422: 23,6465           44576                           ITCI     0
000423: 23,6466           01272                                    HBRANCH
000424:
000425:
000426:                                                                                                  #        THE POSTRUE ROUTINES SET UP THE BETA VECTOR AND OTHER INITIAL CONDITIONS FOR THE NEXT ACCOMP.
000427:
000428:
000429:
000430: 23,6467           73571        POSTRUE            LXA,1    5
000431: 23,6470           67475                           SXA,1    XSU,1
000432: 23,6471           75024                           VMOVE    VSRT*
000433: 23,6472           50751                           VAD      LXA,2
000434: 23,6473           73535                           LXA,1    SXA,1
000435: 23,6474           75535                           AXT,1    SXA,1
000436: 23,6475           01312                                    SCALDELT                              #  SETS UP SCALE A.
000437: 23,6476           01307                                    SCALEA
000438: 23,6477           01313                                    SCALER
000439: 23,6500           01153                                    ALPHAV
000440: 23,6501           00001                                    0,1
000441: 23,6502           01131                                    RCV                                   #  POSITION OUTPUT OF KEPLER.
000442: 23,6503           01306                                    DIFEQCNT
000443: 23,6504           01313                                    SCALER
000444: 23,6505           01310                                    SCALEB                                #  SET UP SCALE B AND G MODE.
000445: 23,6506           00003                                    2
000446: 23,6507           01273                                    GMODE
000447: 23,6510           33161                           STORE    BETAV
000448:
000449: 23,6511           67776                           BHIZ     0
000450: 23,6512           01304                                    WMATFLAG                              #  TEST W MATRIX FLAG.
000451: 23,6513           06520                                    ACCOMP
000452:
000453: 23,6514           75176                           VMOVE    0
000454: 23,6515           01161                                    BETAV
000455: 23,6516           36422                           STORE    VECTAB,2                              #  SAVE R/PV IN VECTAB FOR W MATRIX UPDATE.
000456:
000457:
000458:                                                                                                  #  AGC ROUTINE TO COMPUTE ACCELERATION COMPONENTS.
000459:
000460:
000461:
000462: 23,6517           73176        ACCOMP             UNIT     0                                     #  UNITIZE ALPHA VECTOR
000463: 23,6520           01153                                    ALPHAV
000464: 23,6521           33153                           STORE    ALPHAV
000465:
000466: 23,6522           45176                           DMOVE    0                                     #  SAVE LENGTH OF ALPHA VECTOR
000467: 23,6523           00037                                    30D
000468: 23,6524           33255                           STORE    ALPHAM
000469:
000470: 23,6525           47575                           NOLOD    1
000471: 23,6526           71776                           BOV
000472: 23,6527           06531                                    ACCOMP2
000473:
000474: 23,6530           45773        ACCOMP2            VSRT     3                                     #          2
000475: 23,6531           67155                           VSQ      LXA,1                                 #  NORMED B  TO PD.
000476: 23,6532           67476                           SXA,1    TSLC
000477: 23,6533           46576                           ROUND
000478: 23,6534           01161                                    BETAV
000479: 23,6535           00002                                    1
000480: 23,6536           00070                                    FIXLOC
000481: 23,6537           00124                                    PUSHLOC
000482: 23,6540           00051                                    S1
000483:
000484: 23,6541           57775                           TSLC     1                                     #  NORMALIZE (LESS ONE) LENGTH OF ALPHA
000485: 23,6542           56776                           TSRT                                           #    SAVING NORM. SCALE FACTOR IN X1
000486: 23,6543           01255                                    ALPHAM
000487: 23,6544           00047                                    X1
000488: 23,6545           00002                                    1                                     #   C(PDL+2)= ALMOST NORMED ALPHAM
000489:
000490: 23,6546           73176                           UNIT     0                                     #  SAME PROCEDURE FOR BETA VECTOR
000491: 23,6547           01161                                    BETAV
000492: 23,6550           33161                           STORE    BETAV
000493:
000494: 23,6551           45176                           DMOVE    0
000495: 23,6552           00037                                    30D
000496: 23,6553           33257                           STORE    BETAM
000497:
000498: 23,6554           47574                           NOLOD    2
000499: 23,6555           57706                           TSLC     BDDV                                  #  FORM NORMALIZED QUOTIENT ALPHAM/BETAM
000500: 23,6556           56631                           TSRT     ROUND
000501: 23,6557           00050                                    X2
000502: 23,6560           77777                                    -
000503: 23,6561           00002                                    1                                     #  C(PDL +2) = ALMOST NORMALIZED RHO.
000504: 23,6562           70573                           LXC,2    3                                     #  C(X2) = -SCALE(RHO) + 1.
000505: 23,6563           60501                           XAD,2    XAD,2                                 #        = -S(B)-N(B)+S(A)+N(A)+1
000506: 23,6564           56511                           XSU,2    INCR,2
000507: 23,6565           47470                           NOLOD    TSRT*
000508: 23,6566           00050                                    X2
000509: 23,6567           01307                                    SCALEA
000510: 23,6570           00047                                    X1
000511: 23,6571           01310                                    SCALEB
000512: 23,6572           00003                                    2
000513: 23,6573           00002                                    0,2
000514:
000515: 23,6574           47575                           NOLOD    1                                     #  RHO/4 PD +6
000516: 23,6575           56631                           TSRT     ROUND
000517: 23,6576           00003                                    2
000518:
000519: 23,6577           42774                           DOT      2
000520: 23,6600           63631                           TSLT     ROUND                                 #   (RHO/4)- 2 (ALPHAV/2.BETAV/2)
000521: 23,6601           65776                           BDSU                                           #               TO PDL +6
000522: 23,6602           01153                                    ALPHAV
000523: 23,6603           01161                                    BETAV
000524: 23,6604           00002                                    1
000525:
000526: 23,6605           47575                           NOLOD    1                                     #  Q/4 = RHO(C(PDL +4)) TO PD +8D
000527: 23,6606           55776                           DMPR
000528: 23,6607           00005                                    4
000529:
000530: 23,6610           47575                           NOLOD    1                                     #  (Q + 1)/4 TO PD +10D.
000531: 23,6611           70776                           DAD
000532: 23,6612           06303                                    DQUARTER
000533:
000534: 23,6613           47575                           NOLOD    1                                     #             3/2
000535: 23,6614           53066                           SQRT     DMPR                                  #  ((Q + 1)/4)    TO PD +12D.
000536: 23,6615           00013                                    10D
000537:
000538: 23,6616           47575                           NOLOD    1                                     #                      3/2
000539: 23,6617           63742                           TSLT     DAD                                   #  (1/4) + 2((Q + 1)/4)    TO PD +14D.
000540: 23,6620           00002                                    1
000541: 23,6621           06303                                    DQUARTER
000542: 23,6622           70773                           DAD      3                                     #                 -
000543: 23,6623           55716                           DMPR     TSLT                                  #  (G/2)(C(PD +4))B/2 TO PD +16D.
000544: 23,6624           70712                           DAD      DDV
000545: 23,6625           55766                           DMPR     VXSC
000546: 23,6626           00013                                    10D
000547: 23,6627           07506                                    DP1/2
000548: 23,6630           00011                                    8D
000549: 23,6631           00002                                    1
000550: 23,6632           06301                                    THREE/8
000551: 23,6633           00017                                    14D
000552: 23,6634           00007                                    6
000553: 23,6635           01161                                    BETAV
000554:
000555: 23,6636           45775                           VSRT     1                                     #  A12 + C(PD +16D) TO PD +16D.
000556: 23,6637           50776                           VAD
000557: 23,6640           01153                                    ALPHAV
000558: 23,6641           00004                                    3
000559:
000560: 23,6642           64771                           DMP      5                                     #  -
000561: 23,6643           57631                           TSLC     ROUND                                 #  GAMMA TO PD +22D, -SCALE(GAMMA)-1 TO
000562: 23,6644           61745                           BDDV     LXC,1                                 #  X1.
000563: 23,6645           61505                           XAD,1    XAD,1
000564: 23,6646           61505                           XAD,1    XAD,1
000565: 23,6647           47166                           COMP     VXSC
000566: 23,6650           00001                                    0
000567: 23,6651           00015                                    12D
000568: 23,6652           00052                                    S2
000569: 23,6653           00003                                    2
000570: 23,6654           00050                                    X2                                    #  C(X2) = SCALE (RHO).
000571: 23,6655           00052                                    S2                                    #  C(S2) = N((B.B/4)(...)3/2)
000572: 23,6656           00051                                    S1                                    #  C(S1) = N(B.B/4)
000573: 23,6657           01310                                    SCALEB
000574: 23,6660           01310                                    SCALEB
000575: 23,6661           00021                                    16D                                   #  RESULT OF PRECEDING EQUATION.
000576:
000577: 23,6662           77576                           EXIT     0
000578:
000579: 23,6663           11272                           CCS      GMODE
000580: 23,6664           31272                           XCH      GMODE
000581: 23,6665           20000                           INDEX    A
000582: 23,6666           06667                           TC       +1
000583: 23,6667           06754                           TC       GMODE10
000584: 23,6670           06732                           TC       GMODE11
000585:
000586:                                                                                                  #  THE GMODE12 ROUTINE SETS UP THE SECONDARY BODY DISTURBING ACCELERATION FOR ACCOMP.
000587: 23,6671           04000        GMODE12            TC       INTPRET
000588: 23,6672           47575                           NOLOD    1                                     #  -SCALE(GAMMA)-1 IS LEFT IN X1.
000589: 23,6673           44376                           VSLT*                                          #  ADJUST GAMMA TO SCALE OF -32.
000590: 23,6674           00077                                    31D,1
000591: 23,6675           33203                           STORE    FV
000592:
000593: 23,6676           75176                           VMOVE    0
000594: 23,6677           01161                                    BETAV
000595: 23,6700           33153                           STORE    ALPHAV                                #  BETA VECTOR INTO ALPHA FOR NEXT ACCOMP.
000596:
000597: 23,6701           45176                           DMOVE    0
000598: 23,6702           01257                                    BETAM
000599: 23,6703           33255                           STORE    ALPHAM
000600:
000601: 23,6704           43576                           TEST     0
000602: 23,6705           00003                                    MIDFLAG
000603: 23,6706           06763                                    OBLATEST
000604:
000605: 23,6707           76776                           ITC      0
000606: 23,6710           07450                                    MOONPOS
000607:
000608: 23,6711           47576                           NOLOD    0
000609: 23,6712           33161                           STORE    BETAV                                 #  MOON(EARTH) POSITION WILL BE BETA NEXT
000610:
000611: 23,6713           67776                           BHIZ     0
000612: 23,6714           01304                                    WMATFLAG
000613: 23,6715           06724                                    SETSCALE
000614:
000615: 23,6716           75175                           VMOVE    1
000616: 23,6717           73576                           LXA,1
000617: 23,6720           01161                                    BETAV
000618: 23,6721           01306                                    DIFEQCNT                              #  SAVE R/QV IN VECTAB FOR W-MATRIX UPDATE
000619: 23,6722           36435                           STORE    VECTAB     +6,1
000620:
000621: 23,6723           74574        SETSCALE           AXT,2    2                                     #  SETUP ALPHAM AND SCALEA
000622: 23,6724           64531                           XCHX,2   SXA,2
000623: 23,6725           76776                           ITC
000624: 23,6726           00024                                    19D                                   #  SCALE FOR R/QV
000625: 23,6727           01310                                    SCALEB                                #  SWAP SCALEB AND X2
000626: 23,6730           01307                                    SCALEA
000627: 23,6731           06531                                    ACCOMP2                               #  ENTRY IF UNIT(ALPHAV) AVAILABLE
000628:
000629:                                                                                                  #  THE GMODE11 ROUTINE SETS UP THE SUNS DISTURBING ACCELERATION.
000630:
000631: 23,6732           04000        GMODE11            TC       INTPRET
000632: 23,6733           70575                           LXC,2    1                                     #  SET X2 TO TABLE OF PROPER CONSTANTS
000633: 23,6734           76776                           ITC
000634: 23,6735           01040                                    PBODY
000635: 23,6736           07113                                    ADDTOFV
000636:
000637: 23,6737           76776                           ITC      0                                     #  BARICENTER-TO-SUN POSITION VECTOR.
000638: 23,6740           07453                                    SUNPOS                                #  LEAVES VECTOR IN PDL
000639:
000640: 23,6741           73575                           LXA,1    1                                     #  COMPUTE R/PS USING CORRECT TABLE FOR
000641: 23,6742           75242                           VXSC*    VAD                                   #  MASS RATIO, ETC.
000642: 23,6743           01306                                    DIFEQCNT
000643: 23,6744           02435                                    VECTAB     +6,1                       #  USE SCALAR AT ENTRY 6 IN THE TABLE
000644: 23,6745           00016                                    13D
000645: 23,6746           33161                           STORE    BETAV
000646:
000647: 23,6747           75575                           AXT,1    1
000648: 23,6750           67572                           SXA,1    ITC
000649: 23,6751           00035                                    28D
000650: 23,6752           01310                                    SCALEB                                #  SET SCALEB AND RETURN TO ACCOMP
000651: 23,6753           06531                                    ACCOMP2
000652:
000653:                                                                                                  #  THE GMODE10 ROUTINE ADDS IN THE SUNS PERTURBING ACCELERATION AND COMPUTES THE OBLATENESS CONTRIBUTION
000654: 23,6754           04000        GMODE10            TC       INTPRET
000655: 23,6755           70575                           LXC,2    1
000656: 23,6756           62572                           INCR,2   ITC
000657: 23,6757           01040                                    PBODY
000658: 23,6760           77775                                    -3
000659: 23,6761           07113                                    ADDTOFV
000660:
000661: 23,6762           43576        OBLATEST           TEST     0
000662: 23,6763           00004                                    MOONFLAG
000663: 23,6764           06770                                    OBLATE
000664:
000665: 23,6765           76776                           ITC      0
000666: 23,6766           07107                                    NBRANCH
000667:
000668:
000669:                                                                                                  #        THE  OBLATE  ROUTINE COMPUTES THE ACCELERATION DUE THE THE EARTHS OBLATENESS. IT USES THE UNIT OF THE
000670:                                                                                                  #  VEHICLE POSITION VECTOR FOUND IN ALPHAV AND THE DISTANCE TO THE CENTER OF THE EARTH IN ALPHAM. THIS IS ADDED TO
000671:                                                                                                  #  THE SUM OF THE DISTURBING ACCELERATIONS IN FV AND THE PROPER DIFEQ STAGE IS CALLED VIA X1.
000672:
000673:
000674:
000675: 23,6767           73575        OBLATE             LXA,1    1
000676: 23,6770           67516                           SXA,1    TSLT
000677: 23,6771           00070                                    FIXLOC                                #  SET PUSH-DOWN COUNTER TO ZERO.
000678: 23,6772           00124                                    PUSHLOC
000679: 23,6773           01255                                    ALPHAM
000680: 23,6774           00002                                    1
000681: 23,6775           33255                           STORE    ALPHAM
000682:
000683: 23,6776           55776                           DMPR     0                                     #  P2'/8 TO REGISTER 0.
000684: 23,6777           01157                                    ALPHAV     +4                         #  Z COMPONENT OF POSITION IS COS PHI.
000685: 23,7000           07476                                    3/4
000686:
000687: 23,7001           51174                           DSQ      2                                     #  P3'/4 TO REGISTER 2.
000688: 23,7002           63666                           TSLT     DMPR
000689: 23,7003           66776                           DSU
000690: 23,7004           01157                                    ALPHAV     +4
000691: 23,7005           00004                                    3
000692: 23,7006           07474                                    15/16
000693: 23,7007           06301                                    3/8
000694:
000695: 23,7010           47574                           NOLOD    2                                     #  P4'/16 TO REGISTER 4.
000696: 23,7011           55666                           DMPR     DMPR
000697: 23,7012           63776                           TSLT
000698: 23,7013           01157                                    ALPHAV     +4
000699: 23,7014           07230                                    7/12
000700: 23,7015           00002                                    1                                     #  TO STACK.
000701:
000702: 23,7016           55775                           DMPR     1                                     #  FINISH P4'/16.
000703: 23,7017           65776                           BDSU
000704: 23,7020           00001                                    P2'/8
000705: 23,7021           07250                                    2/3
000706:
000707: 23,7022           47575                           NOLOD    1                                     #  BEGIN COMPUTING P5'/128.
000708: 23,7023           55666                           DMPR     DMPR
000709: 23,7024           01157                                    ALPHAV     +4
000710: 23,7025           07232                                    9/16
000711: 23,7026           55771                           DMPR     5                                     #  FINISH P5'/128 AND TERM USING UNIT
000712: 23,7027           65722                           BDSU     DMP                                   #  POSITION VECTOR AT ALPHA.
000713: 23,7030           63712                           TSLT     DDV
000714: 23,7031           70666                           DAD      DMPR
000715: 23,7032           62742                           DDV      DAD
000716: 23,7033           75776                           VXSC
000717: 23,7034           00003                                    P3'/4
000718: 23,7035           07234                                    5/128
000719: 23,7036           77777                                    -
000720: 23,7037           07504                                    J4REQ/J3
000721: 23,7040           00003                                    2
000722: 23,7041           01255                                    ALPHAM
000723: 23,7042           00005                                    P4'/16
000724: 23,7043           07502                                    2J3RE/J2
000725: 23,7044           01255                                    ALPHAM
000726: 23,7045           00003                                    P3'/4
000727: 23,7046           01153                                    ALPHAV
000728: 23,7047           33153                           STORE    ALPHAV
000729:
000730: 23,7050           64774                           DMP      2                                     #  COMPUTE TERM USING IZ.
000731: 23,7051           63712                           TSLT     DDV
000732: 23,7052           70776                           DAD
000733: 23,7053           07504                                    J4REQ/J3
000734: 23,7054           77777                                    -
000735: 23,7055           00002                                    1
000736: 23,7056           01255                                    ALPHAM
000737: 23,7057           56774                           TSRT     2
000738: 23,7060           55712                           DMPR     DDV
000739: 23,7061           70726                           DAD      BDSU
000740: 23,7062           07502                                    2J3RE/J2
000741: 23,7063           00004                                    RSCALE     -11D
000742: 23,7064           77777                                    -
000743: 23,7065           01255                                    ALPHAM
000744: 23,7066           77777                                    -
000745: 23,7067           01157                                    ALPHAV     +4
000746: 23,7070           33157                           STORE    ALPHAV     +4
000747:
000748: 23,7071           51172                           DSQ      4
000749: 23,7072           51076                           DSQ      TSLC
000750: 23,7073           61766                           BDDV     VXSC
000751: 23,7074           63420                           INCR,1   VSLT*                                 #  SHIFTS LEFT ON+, RIGHT ON -.
000752: 23,7075           50776                           VAD
000753: 23,7076           01255                                    ALPHAM
000754: 23,7077           00047                                    X1
000755: 23,7100           07500                                    J2REQSQ
000756: 23,7101           01153                                    ALPHAV
000757: 23,7102           00005                                    4RSCALE    -52D
000758: 23,7103           00001                                    0,1
000759: 23,7104           01203                                    FV
000760: 23,7105           33203                           STORE    FV
000761:
000762: 23,7106           73575        NBRANCH            LXA,1    1
000763: 23,7107           76376                           ITC*
000764: 23,7110           01306                                    DIFEQCNT
000765: 23,7111           16443                                    DIFEQ,1
000766:
000767: 23,7112           44176        ADDTOFV            DMOVE*   0                                     #  SETS UP S1 AND S2 PER PRIMARY BODY TABLE
000768: 23,7113           00002                                    0,2
000769: 23,7114           32051                           STORE    S1
000770:
000771: 23,7115           61574                           XAD,1    2
000772: 23,7116           75164                           VMOVE    VXSC*
000773: 23,7117           44242                           VSLT*    VAD
000774: 23,7120           00051                                    S1
000775: 23,7121           00027                                    22D
000776: 23,7122           00004                                    1,2
000777: 23,7123           00077                                    31D,1
000778: 23,7124           01203                                    FV
000779: 23,7125           33203                           STORE    FV
000780:
000781: 23,7126           40576                           ITCQ     0
000782:
000783: 23,7127           00000                           OCT      0
000784:
000785:                                                                                                  #        BEGIN INTEGRATION STEP WITH RECTIFICATION TEST.
000786:
000787:
000788:
000789: 23,7130           71174        TIMESTEP           ABVAL    2                                     #  RECTIFICATION REQUIRED IF THE LENGTH OF
000790: 23,7131           66756                           DSU      BMN                                   #  DELTA IS GREATER THAN .5 (8 KM).
000791: 23,7132           76776                           ITC
000792: 23,7133           01115                                    YV
000793: 23,7134           06303                                    DP1/4
000794: 23,7135           07140                                    INTGRATE
000795: 23,7136           07165                                    RECTIFY                               #  CALL RECTIFICATION SUBROUTINE.
000796:
000797: 23,7137           75573        INTGRATE           AXT,1    3                                     #  INITIALIZE INDEXES AND SWITCHES.
000798: 23,7140           67565                           SXA,1    AXT,1
000799: 23,7141           67415                           SXA,1    TEST
000800: 23,7142           42576                           SWITCH
000801: 23,7143           06001                                    FBR3
000802: 23,7144           01271                                    FBRANCH                               #  EXIT FROM DIFEQCOM
000803: 23,7145           06470                                    POSTRUE
000804: 23,7146           01272                                    HBRANCH                               #  EXIT FROM KEPLER.
000805: 23,7147           00002                                    JSWITCH                               #  0 FOR STATE VECTOR, 1 FOR W MATRIX.
000806: 23,7150           07153                                    +2                                    #  TURN IT OFF HERE.
000807: 23,7151           00002                                    JSWITCH
000808:
000809:
000810: 23,7152           75176        DIFEQ0             VMOVE    0                                     #  POSITION DEVIATION INTO ALPHA.
000811: 23,7153           01115                                    YV
000812: 23,7154           33153                           STORE    ALPHAV
000813:
000814: 23,7155           45176                           DMOVE    0                                     #  START H AT 0.
000815: 23,7156           07246                                    DPZERO
000816: 23,7157           33265                           STORE    H                                     #  GOES 0(DELT/2)DELT.
000817:
000818: 23,7160           47576                           NOLOD    0                                     #  ZERO DIFEQCNT AND REGISTER FOLLOWING.
000819: 23,7161           33306                           STORE    DIFEQCNT                              #  GOES 0(-12D)(-24D).
000820:
000821: 23,7162           44576                           ITCI     0                                     #  BEGIN AT ADDRESS IN HBRANCH.
000822: 23,7163           01272                                    HBRANCH
000823:
000824:
000825:                                                                                                  #        THE RECTIFY SUBROUTINE IS CALLED BY THE INTEGRATION PROGRAM (AND OCCASIONALLY BY THE MEASUREMENT
000826:                                                                                                  #  INCORPORATION ROUTINES) TO ESTABLISH A NEW CONIC.
000827:
000828:
000829:
000830: 23,7164           45775        RECTIFY            VSRT     1                                     #  RECTIFY - FORM TOTAL POSITION AND VEL.
000831: 23,7165           50776                           VAD                                            #  ADJUST SCALE DIFFERENCE (ASSUMED
000832: 23,7166           01115                                    TDELTAV
000833: 23,7167           00013                                    RSCALE     -4
000834: 23,7170           01131                                    RCV
000835: 23,7171           33101                           STORE    RRECT
000836:
000837: 23,7172           47576                           NOLOD    0                                     #  SET UP CONIC 'ANSWER' FOR TIMESTEP.
000838: 23,7173           33131                           STORE    RCV
000839:
000840: 23,7174           45775                           VSRT     1
000841: 23,7175           50776                           VAD
000842: 23,7176           01123                                    TNUV
000843: 23,7177           00011                                    VSCALE     -14D
000844: 23,7200           01137                                    VCV
000845: 23,7201           33107                           STORE    VRECT
000846:
000847: 23,7202           47576                           NOLOD    0
000848: 23,7203           33137                           STORE    VCV
000849:
000850: 23,7204           75575                           AXT,1    1                                     #  ZERO DELTA, NU, AND TIME SINCE RECTIFI-
000851: 23,7205           55423                           AST,1    DMOVE
000852: 23,7206           00015                                    12D
000853: 23,7207           00003                                    2
000854: 23,7210           07246                                    DPZERO
000855: 23,7211           33145                           STORE    TC
000856:
000857: 23,7212           47576                           NOLOD    0
000858: 23,7213           33151                           STORE    XKEP                                  #  ZERO X.
000859:
000860: 23,7214           47576        ZEROLOOP           NOLOD    0                                     #  INDEXES CAUSE LOOP TO ZERO 6 CONSECUTIVE
000861: 23,7215           36261                           STORE    YV         +12D,1                     #  DP NUMBERS (DELTA AND NU ARE ADJACENT).
000862:
000863: 23,7216           51575                           TIX,1    1                                     #  LOOP OR START INTEGRATION STEP IF DONE.
000864: 23,7217           40576                           ITCQ
000865: 23,7220           07215                                    ZEROLOOP
000866:
000867:
000868:                                                                                                  #        THE THREE DIFEQ ROUTINES - DIFEQ+0, DIFEQ+12, AND DIFEQ+24 - ARE ENTERED TO PROCESS THE CONTRIBUTIONS
000869:                                                                                                  #  AT THE BEGINNING, MIDDLE, AND END OF THE TIME STEP, RESPECTIVELY. THE UPDATING IS DONE BY THE NYSTROM METHOD.
000870:
000871:
000872:
000873: 23,7221           45776        DIFEQ+0            VSRT     0
000874: 23,7222           01203                                    FV
000875: 23,7223           00004                                    3
000876: 23,7224           33167                           STORE    PHIV
000877:
000878: 23,7225           76776                           ITC      0
000879: 23,7226           07373                                    DIFEQCOM
000880:
000881: 23,7227           22525 12525  7/12               2DEC     .5833333333                            #  ENTRIES MUST BE 12 WORDS APART SO FILL
000882: 23,7231           22000 00000  9/16               2DEC     9          B-4                        #  HOLES WITH CONSTANTS
000883: 23,7233           01200 00000  5/128              2DEC     5          B-7
000884:
000885: 23,7235           45775        DIFEQ+12           VSRT     1
000886: 23,7236           50776                           VAD
000887: 23,7237           01203                                    FV
000888: 23,7240           00002                                    1
000889: 23,7241           01167                                    PHIV
000890: 23,7242           33175                           STORE    PSIV
000891:
000892: 23,7243           76776                           ITC      0
000893: 23,7244           07365                                    DIFEQCOM   -6
000894:
000895: 23,7245           00000 00000  DPZERO             2DEC     0.0
000896:
000897: 23,7247           25252 25253  DP2/3              2DEC     .6666666667
000898:
000899: 23,7251           75773        DIFEQ+24           VXSC     3                                     #  DO FINAL CALCULATION FOR Y AND Z.
000900: 23,7252           75622                           VXSC     VSLT
000901: 23,7253           50766                           VAD      VXSC
000902: 23,7254           50776                           VAD
000903: 23,7255           01167                                    PHIV
000904: 23,7256           01265                                    H
000905: 23,7257           07250                                    DP2/3
000906: 23,7260           00002                                    1
000907: 23,7261           01123                                    ZV
000908: 23,7262           01265                                    H
000909: 23,7263           01115                                    YV
000910: 23,7264           33115                           STORE    YV
000911: 23,7265           45772                           VSRT     4
000912: 23,7266           50766                           VAD      VXSC
000913: 23,7267           75622                           VXSC     VSLT
000914: 23,7270           50615                           VAD      TEST                                  #  SEE IF THIS IS STATE VECTOR OR W COLUMN.
000915: 23,7271           75576                           AXT,1
000916: 23,7272           01203                                    FV
000917: 23,7273           00004                                    3
000918: 23,7274           01175                                    PSIV
000919: 23,7275           01265                                    H
000920: 23,7276           07250                                    DP2/3
000921: 23,7277           00002                                    1
000922: 23,7300           01123                                    ZV
000923: 23,7301           00002                                    JSWITCH
000924: 23,7302           07333                                    ENDSTATE
000925: 23,7303           00001                                    0
000926: 23,7304           37564                           STORE    W          +72D,2                     #  VELOCITY COLUMN VECTOR.
000927:
000928: 23,7305           75176                           VMOVE    0
000929: 23,7306           01115                                    YV
000930: 23,7307           37454                           STORE    W          +36D,2                     #  POSITION COLUMN VECTOR.
000931:
000932: 23,7310           50576                           TIX,2    0
000933: 23,7311           07323                                    NEXTCOL
000934:
000935: 23,7312           75176                           VMOVE    0
000936: 23,7313           01002                                    DELTAV
000937: 23,7314           33115                           STORE    TDELTAV
000938:
000939: 23,7315           75176                           VMOVE    0
000940: 23,7316           01010                                    NUV
000941: 23,7317           33123                           STORE    TNUV
000942:
000943: 23,7320           44576                           ITCI     0
000944: 23,7321           01305                                    STEPEXIT
000945:
000946: 23,7322           74176        NEXTCOL            VMOVE*   0                                     #  SET UP NEXT COLUMNS OF W MATRIX.
000947: 23,7323           03454                                    W          +36D,2
000948: 23,7324           33115                           STORE    YV
000949:
000950: 23,7325           74176                           VMOVE*   0
000951: 23,7326           03564                                    W          +72D,2
000952: 23,7327           33123                           STORE    ZV
000953:
000954: 23,7330           76776                           ITC      0
000955: 23,7331           07153                                    DIFEQ0
000956:
000957: 23,7332           47576        ENDSTATE           NOLOD    0
000958: 23,7333           33123                           STORE    TNUV
000959: 23,7334           56775                           TSRT     1                                     #  UPDATE TIME SINCE RECTIFICATION.
000960: 23,7335           46542                           ROUND    DAD
000961: 23,7336           01265                                    H
000962: 23,7337           00007                                    TSCALE     -18D
000963: 23,7340           01145                                    TC
000964: 23,7341           33145                           STORE    TC
000965:
000966: 23,7342           67776                           BHIZ     0
000967: 23,7343           01304                                    WMATFLAG
000968: 23,7344           07321                                    NEXTCOL    -2
000969:
000970: 23,7345           76776                           ITC      0
000971: 23,7346           10335                                    DOMID16
000972:
000973: 23,7347           74572        SETWINT            AXT,2    4                                     #  SET UP W MATRIX EXTRAPOLATION ROUTINES.
000974: 23,7350           54565                           AST,2    AXT,1                                 #  PROGRAM DESCRIPTION IS AT  DOW..  .
000975: 23,7351           67535                           SXA,1    SXA,1
000976: 23,7352           42565                           SWITCH   AXT,1
000977: 23,7353           76776                           ITC
000978: 23,7354           00045                                    36D
000979: 23,7355           00007                                    6
000980: 23,7356           07416                                    DOW..
000981: 23,7357           01271                                    FBRANCH
000982: 23,7360           01272                                    HBRANCH
000983: 23,7361           00002                                    JSWITCH
000984: 23,7362           00001                                    0
000985: 23,7363           07323                                    NEXTCOL
000986:
000987:
000988:                                                                                                  #        COMES HERE TO FINISH FIRST TWO DIFEQ COMPUTATIONS.
000989:
000990:
000991:
000992: 23,7364           45775                 -6        VSRT     1                                     #  ENTERS HERE FROM DIFEQ+12 MIDPOINT
000993: 23,7365           50776                           VAD                                            #  COMPUTATION.
000994: 23,7366           01203                                    FV
000995: 23,7367           00003                                    2
000996: 23,7370           01167                                    PHIV
000997: 23,7371           33167                           STORE    PHIV
000998:
000999: 23,7372           70775        DIFEQCOM           DAD      1                                     #  INCREMENT H AND DIFEQCNT.
001000: 23,7373           63535                           INCR,1   SXA,1
001001: 23,7374           01263                                    DT/2
001002: 23,7375           01265                                    H
001003: 23,7376           77764                                    -12D
001004: 23,7377           01306                                    DIFEQCNT                              #  DIFEQCNT SET FOR NEXT ENTRY.
001005: 23,7400           33265                           STORE    H
001006:
001007: 23,7401           75774                           VXSC     2
001008: 23,7402           45642                           VSRT     VAD
001009: 23,7403           75642                           VXSC     VAD
001010: 23,7404           01203                                    FV
001011: 23,7405           01265                                    H
001012: 23,7406           00002                                    1
001013: 23,7407           01123                                    ZV
001014: 23,7410           01265                                    H
001015: 23,7411           01115                                    YV
001016: 23,7412           33153                           STORE    ALPHAV
001017:
001018: 23,7413           44576                           ITCI     0                                     #  EXIT VIA FBRANCH.
001019: 23,7414           01271                                    FBRANCH
001020:
001021: 23,7415  23,7221               DIFEQ              EQUALS   DIFEQ+0
001022:
001023:
001024:                                                                                                  #        ORBITAL ROUTINE FOR EXTRAPOLATING THE W MATRIX. IT COMPUTES THE
001025:                                                                                                  #  SECOND DERIVATIVE OF EACH COLUMN POSITION VECTOR OF THE MATRIX AND CALLS
001026:                                                                                                  #  THE NYSTOM INTEGRATION ROUTINES TO SOLVE THE DIFFERENTIAL EQUATIONS. THE
001027:                                                                                                  #  PROGRAM USES A TABLE OF VEHICLE POSITION VECTORS COMPUTED DURING THE
001028:                                                                                                  #  INTEGRATION OF THE VEHICLES POSITION AND VELOCITY.
001029:
001030: 23,7415           45776        DOW..              VSRT     0
001031: 23,7416           01153                                    ALPHAV
001032: 23,7417           00005                                    4
001033:
001034: 23,7420           72174                           UNIT*    2                                     #  X1 REFERENCES THE TABLE OF POSITION
001035: 23,7421           40766                           VPROJ    VXSC                                  #  VECTORS AND CALLS THE CORRECT DIFEQ PROG
001036: 23,7422           74776                           VSU
001037: 23,7423           02421                                    VECTAB,1
001038: 23,7424           01153                                    ALPHAV
001039: 23,7425           07476                                    3/4
001040:
001041: 23,7426           64772                           DMP      4                                     #  CUBE OF LENGTH OF POSITION VECTOR
001042: 23,7427           57631                           TSLC     ROUND                                 #  DIVIDES VECTOR IN PUSH-DOWN LIST TO
001043: 23,7430           61766                           BDDV     VXSC                                  #  FORM FINAL RESULT.
001044: 23,7431           64511                           XCHX,2   INCR,2                                #  INCREMENT COMPENSATES FOR .5 R IN 30D.
001045: 23,7432           44351                           VSLT*    LXA,2
001046: 23,7433           00035                                    28D
001047: 23,7434           00037                                    30D
001048: 23,7435           00051                                    S1
001049: 23,7436           06303                                    DP1/4
001050: 23,7437           77777                                    -
001051: 23,7440           00051                                    S1
001052: 23,7441           00004                                    3
001053: 23,7442           00002                                    0,2
001054: 23,7443           00051                                    S1
001055: 23,7444           33203                           STORE    FV
001056:
001057: 23,7445           76376                           ITC*     0                                     #  CALL NYSTROM ROUTINES ACCORDING TO X1.
001058: 23,7446           16443                                    DIFEQ,1
001059:
001060:                                                                                                  #  DUMMYMOON POSITION ROUTINE, SUN POSITION ROUTINE, AND PBODY TABLE FOR CHECKOUT OF EARTH-ORBITAL ONLY.
001061: 23,7447           75175        MOONPOS            VMOVE    1                                     #  LOAD CONSTANT VECTOR INTO A AND EXIT.
001062: 23,7450           40576                           ITCQ
001063: 23,7451           07461                                    MOONVEC
001064:
001065: 23,7452           73575        SUNPOS             LXA,1    1                                     #  RETURNS WITH VECTOR IN VAC AND IN PDL.
001066: 23,7453           67563                           SXA,1    VMOVE
001067: 23,7454           00070                                    FIXLOC
001068: 23,7455           00124                                    PUSHLOC
001069: 23,7456           07464                                    SUNVEC
001070: 23,7457           40576                           ITCQ     0
001071:
001072: 23,7460           00006        EARTHTAB           DEC      6          B-14
001073: 23,7461           00000 00000                     2DEC     0.0
001074: 23,7463           00012                           DEC      10         B-14
001075: 23,7464           00000 00000                     2DEC     0.0
001076: 23,7466           00000 00000                     2DEC     0.0
001077: 23,7470           77743                           DEC      -28        B-14                       #   28                        3/2
001078: 23,7471           26376 00370                     2DEC     .703003854                            #  443.8417 / SQRT(MU).
001079:
001080: 23,7473  23,7460               MOONVEC            EQUALS   EARTHTAB
001081: 23,7473  23,7463               SUNVEC             EQUALS   EARTHTAB   +3                         #  ******
001082:
001083:
001084:
001085:
001086: 23,7473           36000 00000  15/16              2DEC     15.        B-4
001087: 23,7475           30000 00000  3/4                2DEC     3.0        B-2
001088: 23,7477           12577 24106  J2REQSQ            2DEC     .335914874
001089: 23,7501           77711 71033  2J3RE/J2           2DEC     -.003309146
001090: 23,7503           23377 06703  J4REQ/J3           2DEC     .60932709
001091: 23,7505  23,7247               2/3                EQUALS   DP2/3
001092: 23,7505                        P2'/8              EQUALS   0
001093: 23,7505                        P3'/4              EQUALS   2
001094: 23,7505                        P4'/16             EQUALS   4
001095:
001096: 23,7505           20000 00000  DP1/2              2DEC     .5

End of include-file ORBITAL_INTEGRATION_PROGRAM.agc.  Parent file is MAIN.agc


