
Source Code


000002:                                                                                                  ## Copyright:   Public domain.
000003:                                                                                                  ## Filename:    PINBALL_GAME__BUTTONS_AND_LIGHTS.agc
000004:                                                                                                  ## Purpose:     A section of Corona revision 261.
000005:                                                                                                  ##              It is part of the source code for the Apollo Guidance Computer
000006:                                                                                                  ##              (AGC) for AS-202. No original listings of this software are
000007:                                                                                                  ##              available; instead, this file was created via disassembly of
000008:                                                                                                  ##              the core rope modules actually flown on the mission.
000009:                                                                                                  ## Assembler:   yaYUL
000010:                                                                                                  ## Contact:     Ron Burkey <info@sandroid.org>.
000011:                                                                                                  ## Website:     www.ibiblio.org/apollo/index.html
000012:                                                                                                  ## Mod history: 2023-05-27 MAS  Created from Solarium 55.
000013:                                                                                                  ##              2023-06-17 MAS  Updated for Corona.
000014:
000015:
000016:                                                                                                  #  KEYBOARD AND DISPLAY PROGRAM
000017:
000018:
000019:
000020:                                                                                                  #  THE FOLLOWING QUOTATION IS PROVIDED THROUGH THE COUTESY OF THE AUTHORS.
000021:
000022:                                                                                                  #        ::IT WILL BE PROVED TO THY FACE THAT THOU HAST MEN ABOUT THEE THAT
000023:                                                                                                  #  USUALLY TALK OF A NOUN AND A VERB, AND SUCH ABOMINABLE WORDS AS NO
000024:                                                                                                  #  CHRISTIAN EAR CAN ENDURE TO HEAR.::
000025:
000026:                                                                                                  #                        HENRY 6, ACT 2, SCENE 4
000027:
000028:
000029:                                                                                                  #  SUMMARY OF ERASABLE ASSIGNMENTS FOR KEYBOARD AND DISPLAY PROGRAM
000030:                                                                                                  #  WHICH ARE ALL DEFINED ELSEWHERE.
000031:
000032:
000033:
000034:                                                                                                  #                SETLOC  627
000035:
000036:                                                                                                  #  BUFFER STORAGE AREAS FOR ROUTINES USING DISPLAY OR LOAD ROUTINES.
000037:                                                                                                  #  DSPTEM1       ERASE   +2              BUFFER STORAGE AREA 1 (MOSTLY FOR TIME)
000038:                                                                                                  #  DSPTEM2       ERASE   +2              BUFFER STORAGE AREA 2 (MOSTLY FOR DEG)
000039:
000040:                                                                                                  #  ERASABLE ASSIGNMENTS SPECIFIC TO PINBALL
000041:
000042:
000043:
000044:                                                                                                  #  ERASABLES RESERVED FOR EXECUTIVE ACTION
000045:
000046:                                                                                                  #  DSPCOUNT      ERASE                   DISPLAY POSITION INDICATOR
000047:                                                                                                  #  DECBRNCH      ERASE                   +DEC, - DEC, OCT INDICATOR
000048:                                                                                                  #  VERBREG       ERASE                   VERB CODE
000049:                                                                                                  #  NOUNREG       ERASE                   NOUN CODE
000050:                                                                                                  #  XREG          ERASE                   R1 INPUT BUFFER
000051:                                                                                                  #  YREG          ERASE                   R2 INPUT BUFFER
000052:                                                                                                  #  ZREG          ERASE                   R3 INPUT BUFFER
000053:                                                                                                  #  XREGLP        ERASE                   LO PART OF XREG (FOR DEC CONV ONLY)
000054:                                                                                                  #  YREGLP        ERASE                   LO PART OF YREG (FOR DEC CONV ONLY)
000055:                                                                                                  #  ZREGLP        ERASE                   LO PART OF ZREG (FOR DEC CONV ONLY)
000056:                                                                                                  #  MODREG        ERASE                   MODE CODE
000057:                                                                                                  #  DSPLOCK       =       STATE (BIT4)    KEYBOARD/SUBROUTINE CALL INTERLOCK
000058:                                                                                                  #  REQRET        ERASE                   RETURN REGISTER FOR LOAD
000059:                                                                                                  #  LOADSTAT      ERASE                   STATUS INDICATOR FOR LOADTST
000060:                                                                                                  #  CLPASS        ERASE                   PASS INDICATOR CLEAR
000061:                                                                                                  #  NOUT          ERASE                   ACTIVITY COUNTER FOR DSPTAB
000062:                                                                                                  #  NOUNADD       ERASE                   MACHINE ADDRESS FOR NOUN
000063:                                                                                                  #  MONSAVE       ERASE                   N/V CODE FOR MONITOR. ALSO ACTIVITY
000064:                                                                                                  #  MONSAVE1      ERASE                   NOUNADD STORAGE FOR MONITOR WITH MATBS
000065:                                                                                                  #  DSPTAB        ERASE   +13D            0-10, DISPLAY PANEL BUFFER. 11-13, C RELAYS
000066:                                                                                                  #  CADRSTOR      ERASE                   ENDIDLE STORAGE
000067:                                                                                                  #  GRABLOCK      ERASE                   INTERNAL INTERLOCK FOR DISPLAY SYSTEM
000068:                                                                                                  #  NVSBCADR      ERASE                   NVSUB STORAGE FOR CALLING CADR
000069:                                                                                                  #  DSPLIST       ERASE   +2              WAITING LIST FOR DSP SYST INTERNAL USE
000070:                                                                                                  #  END OF ERASABLES RESERVED FOR EXECUTIVE ACTION
000071:
000072:                                                                                                  #  ERASABLES RESERVED FOR INTERRUPT ACTION
000073:
000074:                                                                                                  #  IN0WORD       ERASE                   INPUT CODE STORAGE (KEYRUPT OR UPRUPT)
000075:                                                                                                  #  DSPCNT        ERASE                   COUNTER FOR DSPOUT
000076:
000077:
000078:
000079:                                                                                                  #  TEMPORARY ERASABLES FOR EXECUTIVE ACTION
000080:
000081:                                                                                                  #  DSEXIT        =       COMPON          RETURN FOR DSPIN
000082:                                                                                                  #  EXITEM        =       COMPON          RETURN FOR SCALE FACTOR ROUTINE SELECT
000083:                                                                                                  #  BLANKRET      =       COMPON          RETURN FOR 2BLANK
000084:
000085:                                                                                                  #  WRDRET        =       TEM9            RETURN FOR 5BLANK
000086:                                                                                                  #  WDRET         =       TEM9            RETURN FOR DSPWD
000087:                                                                                                  #  DECRET        =       TEM9            RETURN FOR PUTCOM(DEC LOAD)
000088:                                                                                                  #  21/22REG      =       TEM9            TEMP FOR CHARIN
000089:
000090:                                                                                                  #  UPDATRET      =       ORDER           RETURN FOR UPDATNN, UPDATVB
000091:                                                                                                  #  CHAR          =       ORDER           TEMP FOR CHARIN
000092:                                                                                                  #  ERCNT         =       ORDER           COUNTER FOR ERROR LIGHT RESET
000093:                                                                                                  #  DECOUNT       =       ORDER           COUNTER FOR SCALING AND DISPLAY (DEC)
000094:
000095:                                                                                                  #  SGNON         =       TEM11           TEMP FOR +,- ON
000096:                                                                                                  #  NOUNTEM       =       TEM11           COUNTER FOR MIXNOUN FETCH
000097:                                                                                                  #  DISTEM        =       TEM11           COUNTER FOR OCTAL DISPLAY VERBS
000098:                                                                                                  #  DECTEM        =       TEM11           COUNTER FOR FETCH (DEC DISPLAY VERBS)
000099:                                                                                                  #  DECTEM1       =       TEM11           TEMP FOR NUM
000100:
000101:                                                                                                  #  SGNOFF        =       DVSW            TEMP FOR +,- ON
000102:                                                                                                  #  NVTEMP        =       DVSW            TEMP FOR NVSUB
000103:                                                                                                  #  SFTEMP1       =       DVSW            STORAGE FOR SF CONST HI PART (=SFTEMP2-1)
000104:                                                                                                  #  DECTEM2       =       DVSW            TEMP FOR NUM
000105:
000106:                                                                                                  #  CODE          =       BRANCHQ         FOR DSPIN
000107:                                                                                                  #  SFTEMP2       =       BRANCHQ         STORAGE FOR SF CONST LO PART (=SFTEMP1+1)
000108:
000109:                                                                                                  #  ENTRET        =       MODE            EXIT FROM ENTER
000110:
000111:                                                                                                  #  PROGREG       =       VBUF +2         FOR GO EXEC PROGRAM
000112:                                                                                                  #  MIXTEMP       =       VBUF +2         FOR MIXNOUN DATA
000113:                                                                                                  #  SIGNRET       =       VBUF +2         RETURN FOR +,- ON
000114:
000115:
000116:                                                                                                  #  ALSO PROGREG+1, PROGREG+2. MIXTEMP+1, MIXTEMP+2.
000117:
000118:                                                                                                  #  WDCNT         =       VBUF +5         CHAR COUNTER FOR DSPWD
000119:                                                                                                  #  INREL         =       VBUF +5         INPUT BUFFER SELECTOR ( X,Y,Z, REG )
000120:
000121:                                                                                                  #  MIXBR         =       TEM10           INDICATOR FOR MIXED OR NORMAL NOUN
000122:                                                                                                  #  DSPMMTEM      =       TEM10           DSPCOUNT SAVE FOR DSPMM
000123:
000124:                                                                                                  #  MONTEM        =       NEWEQIND        TEMP RETURN FOR MONITOR
000125:                                                                                                  #  DSREL         =       TEM2            REL ADDRESS FOR DSPIN (TEM2 USED BY DAD1)
000126:
000127:                                                                                                  #  DSMAG         =       TEM4            MAGNITUDE STORE FOR DSPIN
000128:                                                                                                  #  IDADDTEM      =       TEM4            MIXNOUN INDIRECT ADDRESS STORAGE
000129:
000130:                                                                                                  #  COUNT         =       TEM5            FOR DSPIN  (TEM5 IS USED BY DAD)
000131:                                                                                                  #  LSTPTR        =       ARETURN         LIST POINTER FOR GRABUSY
000132:                                                                                                  #  RELRET        =       ARETURN         RETURN FOR RELDSP
000133:                                                                                                  #  FREERET       =       ARETURN         RETURN FOR FREEDSP
000134:
000135:                                                                                                  #  CADRTEM       =       ESCAPE          TEMP STORAGE FOR GRAB ROUTINES
000136:
000137:                                                                                                  #  NNADTEM       ERASE                   TEMP FOR NOUN ADDRESS TABLE ENTRY
000138:                                                                                                  #  NNTYPTEM      ERASE                   TEMP FOR NOUN TYPE TABLE ENTRY
000139:                                                                                                  #  IDAD1TEM      ERASE                   TEMP FOR INDIR ADRES TABLE ENTRY(MIXNN)
000140:                                                                                                  #                                        MUST = IDAD2TEM-1, = IDAD3TEM-2.
000141:                                                                                                  #  IDAD2TEM      ERASE                   TEMP FOR INDIR ADRES TABLE ENTRY(MIXNN)
000142:                                                                                                  #                                        MUST = IDAD1TEM+1, = IDAD3TEM-1.
000143:                                                                                                  #  IDAD3TEM      ERASE                   TEMP FOR INDIR ADRES TABLE ENTRY(MIXNN)
000144:                                                                                                  #                                        MUST = IDAD1TEM+2, = IDAD2TEM+1.
000145:
000146:
000147:
000148:                                                                                                  #  TEMPORARY ERASABLES FOR INTERRUPT ACTION
000149:
000150:                                                                                                  #  KEYTEMP1      =       WTEXIT          TEMP FOR KEYRUPT, UPRUPT
000151:                                                                                                  #  DSRUPTEM      =       WTEXIT          TEMP FOR DSPOUT
000152:                                                                                                  #  KEYTEMP2      =       RUPTAGN         TEMP FOR KEYRUPT, UPRUPT
000153:
000154:
000155:                                                                                                  #  THE INPUT CODES ASSUMED FOR THE KEYBOARD ARE,
000156:                                                                                                  #  0             10000
000157:                                                                                                  #  1             00001
000158:                                                                                                  #  9             01001
000159:                                                                                                  #  VERB          10001
000160:                                                                                                  #  ERROR RES     10010
000161:                                                                                                  #  KEY RLSE      11001
000162:                                                                                                  #  +             11010
000163:                                                                                                  #  -             11011
000164:                                                                                                  #  ENTER         11100
000165:                                                                                                  #  CLEAR         11110
000166:                                                                                                  #  NOUN          11111
000167:
000168:
000169:
000170:                                                                                                  #  OUTPUT FORMAT FOR DISPLAY PANEL. SET OUT0 TO  AAAABCCCCCDDDDD.
000171:                                                                                                  #  A-S SELECT A RELAYWORD. THIS DETERMINES WHICH PAIR OF CHARACTERS ARE
000172:                                                                                                  #  ENERGIZED.
000173:                                                                                                  #  B FOR SPECIAL RELAYS SUCH AS SIGNS ETC.
000174:                                                                                                  #  C-S  5 BIT RELAY CODE FOR LEFT CHAR OF PAIR SELECTED BY RELAYWORD
000175:                                                                                                  #  D-S  5 BIT RELAY CODE FOR RIGHTCHAR OF PAIR SELECTED BY RELAYWORD.
000176:
000177:                                                                                                  #  THE PANEL APPEARS AS FOLLOWS,
000178:                                                                                                  #  MD1   MD2                             (MAJOR MODE)
000179:                                                                                                  #  VD1   VD2 (VERB)      ND1     ND2     (NOUN)
000180:                                                                                                  #  R1D1  R1D2    R1D3    R1D4    R1D5    (R1)
000181:                                                                                                  #  R2D1  R2D2    R2D3    R2D4    R2D5    (R2)
000182:                                                                                                  #  R3D1  R3D2    R3D3    R3D4    R3D5    (R3)
000183:
000184:                                                                                                  #  EACH OF THESE IS GIVEN A DSPCOUNT NUMBER FOR USE WITHIN COMPUTATION ONLY
000185:                                                                                                  #  MD1   25      R2D1    11              ALL ARE OCTAL
000186:                                                                                                  #  MD2   24      R2D2    10
000187:                                                                                                  #  VD1   23      R2D3    7
000188:                                                                                                  #  VD2   22      R2D4    6
000189:                                                                                                  #  ND1   21      R2D5    5
000190:                                                                                                  #  ND2   20      R3D1    4
000191:                                                                                                  #  R1D1  16      R3D2    3
000192:                                                                                                  #  R1D2  15      R3D3    2
000193:                                                                                                  #  R1D3  14      R3D4    1
000194:                                                                                                  #  R1D4  13      R3D5    0
000195:                                                                                                  #  R1D5  12
000196:
000197:
000198:
000199:                                                                                                  #  THERE IS AN 11 REGISTER TABLE (DSPTAB) FOR THE DISPLAY PANEL.
000200:
000201:                                                                                                  #  DSPTAB        RELAYWD         BIT11           BITS 10-6       BITS 5-1
000202:                                                                                                  #  RELADD
000203:                                                                                                  #  10            1011                            MD1 (25)        MD2  (24)
000204:                                                                                                  #  9             1010            FLASH           VD1 (23)        VD2  (22)
000205:                                                                                                  #  8             1001                            ND1 (21)        ND2  (20)
000206:                                                                                                  #  7             1000            UPACT                           R1D1 (16)
000207:                                                                                                  #  6             0111            +R1             R1D2 (15)       R1D3 (14)
000208:                                                                                                  #  5             0110            -R1             R1D4 (13)       R1D5 (12)
000209:                                                                                                  #  4             0101            +R2             R2D1 (11)       R2D2 (10)
000210:                                                                                                  #  3             0100            -R2             R2D3 (7)        R2D4 (6)
000211:                                                                                                  #  2             0011                            R2D5 (5)        R3D1 (4)
000212:                                                                                                  #  1             0010            +R3             R3D2 (3)        R3D3 (2)
000213:                                                                                                  #  0             0001            -R3             R3D4 (1)        R3D5 (0)
000214:                                                                                                  #                0000        NO RELAYWORD
000215:
000216:
000217:
000218:                                                                                                  #  THE 5 BIT RELAY CODES ARE,
000219:                                                                                                  #  BLANK         00000
000220:                                                                                                  #  0             10101
000221:                                                                                                  #  1             00011
000222:                                                                                                  #  2             11001
000223:                                                                                                  #  3             11011
000224:                                                                                                  #  4             01111
000225:                                                                                                  #  5             11110
000226:                                                                                                  #  6             11100
000227:                                                                                                  #  7             10011
000228:                                                                                                  #  8             11101
000229:                                                                                                  #  9             11111
000230:
000231:
000232: 06,6000                                           SETLOC   14000
000233:
000234: 06,6000           30001        FLASHON            XCH      Q
000235: 06,6001           50112                           TS       DSEXIT
000236: 06,6002           07464                           TC       FLASHON1
000237:
000238: 06,6003           30001        FLASHOFF           XCH      Q
000239: 06,6004           50112                           TS       DSEXIT
000240: 06,6005           07473                           TC       FLASHOF1
000241:                                                                                                  #  END OF STANDARD LEAD INS.
000242:
000243:
000244:
000245: 06,6006           03273        CHARIN             TC       DSPLOCK1                              #  BLOCK DISPLAY SYST BUT SAVE OLD
000246: 06,6007           74513                           MASK     BIT4                                  #  C(DSPLOCK) FOR ERROR LIGHT RESET.
000247: 06,6010           50106                           TS       21/22REG
000248: 06,6011           30115                           XCH      MPAC
000249: 06,6012           50063                           TS       CHAR
000250: 06,6013           20000                           INDEX    A
000251: 06,6014           06015                           TC       +1                                    #  INPUT CODE    FUNCTION
000252: 06,6015           07451                           TC       CHARALRM                              #  0
000253: 06,6016           06071                           TC       NUM                                   #  1
000254: 06,6017           06071                           TC       NUM                                   #  2
000255: 06,6020           06071                           TC       NUM                                   #  3
000256: 06,6021           06071                           TC       NUM                                   #  4
000257: 06,6022           06071                           TC       NUM                                   #  5
000258: 06,6023           06071                           TC       NUM                                   #  6
000259: 06,6024           06071                           TC       NUM                                   #  7
000260: 06,6025           06062                           TC       89TEST                                #  10                8
000261: 06,6026           06062                           TC       89TEST                                #  11                9
000262: 06,6027           07451                           TC       CHARALRM                              #  12
000263: 06,6030           07451                           TC       CHARALRM                              #  13
000264: 06,6031           07451                           TC       CHARALRM                              #  14
000265: 06,6032           07451                           TC       CHARALRM                              #  15
000266: 06,6033           07451                           TC       CHARALRM                              #  16
000267: 06,6034           07451                           TC       CHARALRM                              #  17
000268: 06,6035           06067                           TC       NUM        -2                         #  20                0
000269: 06,6036           06251                           TC       VERB                                  #  21                VERB
000270: 06,6037           06375                           TC       ERROR                                 #  22                ERROR LIGHT RESET
000271: 06,6040           06057                           TC       ABORTCAL                              #  23                ABORT
000272: 06,6041           07451                           TC       CHARALRM                              #  24
000273: 06,6042           07451                           TC       CHARALRM                              #  25
000274: 06,6043           07451                           TC       CHARALRM                              #  26
000275: 06,6044           07451                           TC       CHARALRM                              #  27
000276: 06,6045           07451                           TC       CHARALRM                              #  30
000277: 06,6046           07506                           TC       VBRELDSP                              #  31                KEY RELEASE
000278: 06,6047           06315                           TC       POSGN                                 #  32                +
000279: 06,6050           06301                           TC       NEGSGN                                #  33                -
000280: 06,6051           06055                           TC       ENTERJMP                              #  34                ENTER
000281: 06,6052           07451                           TC       CHARALRM                              #  35
000282: 06,6053           06474                           TC       CLEAR                                 #  36                CLEAR
000283: 06,6054           06273                           TC       NOUN                                  #  37                NOUN
000284:
000285:
000286:
000287: 06,6055           05720        ENTERJMP           TC       POSTJUMP
000288: 06,6056           16007                           CADR     ENTER
000289:
000290: 06,6057           33226        ABORTCAL           CAF      LOW5
000291: 06,6060           05720                           TC       POSTJUMP                              #  FORCE DECODING OF VERB 72 AND DO RELDSP.
000292: 06,6061           16136                           CADR     JAMEXTVB
000293:
000294:
000295: 06,6062           34473        89TEST             CAF      THREE
000296: 06,6063           70615                           MASK     DECBRNCH
000297: 06,6064           10000                           CCS      A
000298: 06,6065           06071                           TC       NUM                                   #  IF DECBRNCH IS +, 8 OR 9 OK
000299: 06,6066           07451                           TC       CHARALRM                              #  IF DECBRNCH IS +0, REJECT 8 OR 9
000300:
000301:
000302:
000303:                                                                                                  #  NUM ASSEMBLES OCTAL 3 BITS AT A TIME. FOR DECIMAL IT CONVERTS INCOMING
000304:                                                                                                  #  WORD AS A FRACTION, KEEPING RESULTS TO DP.
000305:                                                                                                  #  OCTAL RESULTS ARE LEFT IN XREG, YREG, OR ZREG. HI PART OF DEC IN XREG,
000306:                                                                                                  #  YREG, ZREG. THE LOW PARTS IN XREGLP, YREGLP, OR ZREGLP)
000307:                                                                                                  #  DECBRNCH IS LEFT AT +0 FOR OCT, +1 FOR + DEC, +2 FOR - DEC.
000308:                                                                                                  #  IF DSPCOUNT WAS LEFT -, NO MORE DATA IS ACCEPTED.
000309:
000310: 06,6067           35501                           CAF      ZERO
000311: 06,6070           50063                           TS       CHAR
000312: 06,6071           10614        NUM                CCS      DSPCOUNT
000313: 06,6072           06076                           TC       +4                                    #  +
000314: 06,6073           06076                           TC       +3                                    #  +0
000315: 06,6074           06075                           TC       +1                                    #  -BLOCK DATA IN IF DSPCOUNT IS -
000316: 06,6075           02124                           TC       ENDOFJOB                              #  -0
000317: 06,6076           06221                           TC       GETINREL
000318: 06,6077           10633                           CCS      CLPASS                                #  IF CLPASS IS + OR +0, MAKE IT +0.
000319: 06,6100           35501                           CAF      ZERO
000320: 06,6101           50633                           TS       CLPASS
000321: 06,6102           06103                           TC       +1
000322: 06,6103           20063                           INDEX    CHAR
000323: 06,6104           32650                           CAF      RELTAB
000324: 06,6105           73226                           MASK     LOW5
000325: 06,6106           50111                           TS       CODE
000326: 06,6107           30614                           XCH      DSPCOUNT
000327: 06,6110           50104                           TS       COUNT
000328: 06,6111           50614                           TS       DSPCOUNT
000329: 06,6112           07352                           TC       DSPIN
000330: 06,6113           34473                           CAF      THREE
000331: 06,6114           70615                           MASK     DECBRNCH
000332: 06,6115           10000                           CCS      A                                     #  +0, OCTAL.  +1, + DEC.  +2, - DEC.
000333: 06,6116           06127                           TC       DECTOBIN                              #  +
000334: 06,6117           20076                           INDEX    INREL                                 #  +0 OCTAL
000335: 06,6120           30602                           XCH      VERBREG
000336: 06,6121           50022                           TS       CYL
000337: 06,6122           40022                           CS       CYL
000338: 06,6123           40022                           CS       CYL
000339: 06,6124           30022                           XCH      CYL
000340: 06,6125           60063                           AD       CHAR
000341: 06,6126           06145                           TC       ENDNMTST
000342: 06,6127           20076        DECTOBIN           INDEX    INREL
000343: 06,6130           30602                           XCH      VERBREG
000344: 06,6131           50115                           TS       MPAC                                  #  SUM X 2EXP-14 IN MPAC
000345: 06,6132           35501                           CAF      ZERO
000346: 06,6133           50116                           TS       MPAC       +1
000347: 06,6134           33240                           CAF      TEN                                   #  10 X 2EXP-14
000348: 06,6135           05416                           TC       SHORTMP                               #  10SUM X 2EXP-28 IN MPAC, MPAC+1
000349: 06,6136           30116                           XCH      MPAC       +1
000350: 06,6137           60063                           AD       CHAR
000351: 06,6140           50116                           TS       MPAC       +1
000352: 06,6141           06145                           TC       ENDNMTST                              #  NO OF
000353: 06,6142           60115                           AD       MPAC                                  #  OF MUST BE 5TH CHAR
000354: 06,6143           50115                           TS       MPAC
000355: 06,6144           06164                           TC       DECEND
000356: 06,6145           20076        ENDNMTST           INDEX    INREL
000357: 06,6146           50602                           TS       VERBREG
000358: 06,6147           40614                           CS       DSPCOUNT
000359: 06,6150           20076                           INDEX    INREL
000360: 06,6151           66210                           AD       CRITCON
000361: 06,6152           10000                           CCS      A
000362: 06,6153           07451                           TC       CHARALRM                              #  +      PATHOLOGICAL CASE
000363: 06,6154           07451                           TC       CHARALRM                              #  +0    IMPOSSIBLE
000364: 06,6155           06205                           TC       MORNUM                                #  -
000365: 06,6156           34473        ENDNUM             CAF      THREE
000366: 06,6157           70615                           MASK     DECBRNCH
000367: 06,6160           10000                           CCS      A
000368: 06,6161           06164                           TC       DECEND
000369: 06,6162           40614        ENDALL             CS       DSPCOUNT                              #  BLOCK NUMIN BY PLACING DSPCOUNT
000370: 06,6163           06206                           TC       MORNUM     +1                         #  NEGATIVELY
000371: 06,6164           34473        DECEND             CAF      THREE
000372: 06,6165           70615                           MASK     DECBRNCH
000373: 06,6166           20000                           INDEX    A
000374: 06,6167           06167                           TC       +0
000375: 06,6170           06174                           TC       +DECSGN                               #  + DEC
000376: 06,6171           05157                           TC       DMP                                   #  - DEC
000377: 06,6172           56216                           XCADR    NEGDECON
000378: 06,6173           06176                           TC       ENDECOM                               #  MULT SUM X 2EXP-28 IN MPAC, MPAC+1 BY
000379: 06,6174           05157        +DECSGN            TC       DMP                                   #  2EXP14/10EXP5. GIVES (SUM/10EXP5)X2EXP-14
000380: 06,6175           56214                           XCADR    DECON                                 #  IN MPAC, +1, +2.
000381: 06,6176           30117        ENDECOM            XCH      MPAC       +2
000382: 06,6177           20076                           INDEX    INREL
000383: 06,6200           50605                           TS       XREGLP     -2
000384: 06,6201           30116                           XCH      MPAC       +1
000385: 06,6202           20076                           INDEX    INREL
000386: 06,6203           50602                           TS       VERBREG
000387: 06,6204           06162                           TC       ENDALL
000388: 06,6205           10614        MORNUM             CCS      DSPCOUNT                              #  DECREMENT DSPCOUNT
000389: 06,6206           50614                           TS       DSPCOUNT
000390: 06,6207           02124                           TC       ENDOFJOB
000391:
000392: 06,6210           00022        CRITCON            OCT      22                                    #  (DEC 18)
000393: 06,6211           00020                           OCT      20                                    #  (DEC 16)
000394: 06,6212           00012                           OCT      12                                    #  (DEC 10)
000395: 06,6213           00005                           OCT      5
000396: 06,6214           00000                           OCT      0
000397:
000398: 06,6215           05174 13261  DECON              2DEC     1          E-5        B14             #  2EXP14/10EXP5 = .16384 DEC
000399:
000400: 06,6217           72603        NEGDECON           OCT      72603
000401: 06,6220           64516                           OCT      64516
000402:
000403:
000404:
000405:                                                                                                  #  GETINREL GETS PROPER DATA REG REL ADDRESS FOR CURRENT C(DSPCOUNT) AND
000406:                                                                                                  #  PUTS IN INTO INREL. +0 VERBREG, 1 NOUNREG, 2 XREG, 3 YREG, 4 ZREG.
000407:
000408: 06,6221           20614        GETINREL           INDEX    DSPCOUNT
000409: 06,6222           36225                           CAF      INRELTAB
000410: 06,6223           50076                           TS       INREL                                 #  (A TEMP, REG)
000411: 06,6224           00001                           TC       Q
000412:
000413: 06,6225           00004        INRELTAB           OCT      4                                     #  R3D5 (DSPCOUNT = 0)
000414: 06,6226           00004                           OCT      4                                     #  R3D4           =(1)
000415: 06,6227           00004                           OCT      4                                     #  R3D3           =(2)
000416: 06,6230           00004                           OCT      4                                     #  R3D2           =(3)
000417: 06,6231           00004                           OCT      4                                     #  R3D1           =(4)
000418: 06,6232           00003                           OCT      3                                     #  R2D5           =(5)
000419: 06,6233           00003                           OCT      3                                     #  R2D4           =(6)
000420: 06,6234           00003                           OCT      3                                     #  R2D3           =(7)
000421: 06,6235           00003                           OCT      3                                     #  R2D2           =(8D)
000422: 06,6236           00003                           OCT      3                                     #  R2D1           =(9D)
000423: 06,6237           00002                           OCT      2                                     #  R1D5           =(10D)
000424: 06,6240           00002                           OCT      2                                     #  R1D4           =(11D)
000425: 06,6241           00002                           OCT      2                                     #  R1D3           =(12D)
000426: 06,6242           00002                           OCT      2                                     #  R1D2           =(13D)
000427: 06,6243           00002                           OCT      2                                     #  R1D1           =(14D)
000428: 06,6244           03070                           TC       CCSHOLE                               #  NO DSPCOUNT NUMBER = 15D
000429: 06,6245           00001                           OCT      1                                     #  ND2            =(16D)
000430: 06,6246           00001                           OCT      1                                     #  ND1            =(17D)
000431: 06,6247           00000                           OCT      0                                     #  VD2            =(18D)
000432: 06,6250           00000                           OCT      0                                     #  VD1            =(19D)
000433:
000434:
000435:
000436: 06,6251           35501        VERB               CAF      ZERO
000437: 06,6252           50602                           TS       VERBREG
000438: 06,6253           50111                           TS       CODE                                  #  VERB CANT USE 2BLANK SINCE THAT TURNS
000439: 06,6254           33235                           CAF      VD1                                   #  THE FLASH OFF
000440: 06,6255           50614                           TS       DSPCOUNT
000441: 06,6256           50104                           TS       COUNT
000442: 06,6257           07352                           TC       DSPIN
000443: 06,6260           36210                           CAF      VD2
000444: 06,6261           50104                           TS       COUNT
000445: 06,6262           35501                           CAF      ZERO
000446: 06,6263           50111                           TS       CODE
000447: 06,6264           07352                           TC       DSPIN
000448: 06,6265           35501        N/VCOM             CAF      ZERO
000449: 06,6266           50615                           TS       DECBRNCH
000450: 06,6267           50613                           TS       REQRET                                #  SET FOR ENTPAS0
000451: 06,6270           33155                           CAF      ENDINST                               #  IF DSPALARM OCCURS BEFORE FIRST ENTPAS0
000452: 06,6271           50065                           TS       ENTRET                                #  OR NVSUB, ENTRET MUST ALREADY BE SET
000453:                                                                                                  #  TO TC ENDOFJOB
000454: 06,6272           02124                           TC       ENDOFJOB
000455: 06,6273           35501        NOUN               CAF      ZERO
000456: 06,6274           50603                           TS       NOUNREG
000457: 06,6275           33236                           CAF      ND1                                   #  ND1, OCT 21 (DEC 17)
000458: 06,6276           50614                           TS       DSPCOUNT
000459: 06,6277           06613                           TC       2BLANK
000460: 06,6300           06265                           TC       N/VCOM
000461:
000462:
000463:
000464: 06,6301  06,6210               VD2                =        CRITCON                               #  OCT 22
000465:
000466:
000467:
000468: 06,6301           06356        NEGSGN             TC       SIGNTEST
000469: 06,6302           06342                           TC       -ON
000470: 06,6303           35503                           CAF      TWO
000471: 06,6304           60615        BOTHSGN            AD       DECBRNCH                              #  SET DEC COMP BIT TO 1 (IN DECBRNCH)
000472: 06,6305           20076                           INDEX    INREL                                 #  BIT 5 FOR R1
000473: 06,6306           64510                           AD       BIT7                                  #  BIT 4 FOR R2
000474: 06,6307           50615                           TS       DECBRNCH                              #  BIT 3 FOR R3
000475: 06,6310           10633        FIXCLPAS           CCS      CLPASS                                #  IF CLPASS IS + OR +0, MAKE IT +0.
000476: 06,6311           35501                           CAF      ZERO
000477: 06,6312           50633                           TS       CLPASS
000478: 06,6313           06314                           TC       +1
000479: 06,6314           02124                           TC       ENDOFJOB
000480:
000481: 06,6315           06356        POSGN              TC       SIGNTEST
000482: 06,6316           06321                           TC       +ON
000483: 06,6317           34516                           CAF      ONE
000484: 06,6320           06304                           TC       BOTHSGN
000485:
000486: 06,6321           30001        +ON                XCH      Q
000487: 06,6322           50073                           TS       SIGNRET
000488: 06,6323           06221                           TC       GETINREL
000489: 06,6324           20076                           INDEX    INREL
000490: 06,6325           36351                           CAF      SGNTAB     -2
000491: 06,6326           50110                           TS       SGNOFF
000492: 06,6327           64516                           AD       ONE
000493: 06,6330           50064                           TS       SGNON
000494: 06,6331           35501        SGNCOM             CAF      ZERO
000495: 06,6332           50111                           TS       CODE
000496: 06,6333           30110                           XCH      SGNOFF
000497: 06,6334           07437                           TC       11DSPIN
000498: 06,6335           34504                           CAF      BIT11
000499: 06,6336           50111                           TS       CODE
000500: 06,6337           30064                           XCH      SGNON
000501: 06,6340           07437                           TC       11DSPIN
000502: 06,6341           00073                           TC       SIGNRET
000503: 06,6342           30001        -ON                XCH      Q
000504: 06,6343           50073                           TS       SIGNRET
000505: 06,6344           06221                           TC       GETINREL
000506: 06,6345           20076                           INDEX    INREL
000507: 06,6346           36351                           CAF      SGNTAB     -2
000508: 06,6347           50064                           TS       SGNON
000509: 06,6350           64516                           AD       ONE
000510: 06,6351           50110                           TS       SGNOFF
000511: 06,6352           06331                           TC       SGNCOM
000512:
000513: 06,6353           00005        SGNTAB             OCT      5                                     #  -R1
000514: 06,6354           00003                           OCT      3                                     #  -R2
000515: 06,6355           00000                           OCT      0                                     #  -R3
000516:
000517:
000518:
000519: 06,6356           30001        SIGNTEST           XCH      Q                                     #  ALLOWS +,- ONLY WHEN DSPCOUNT=R1D1,
000520: 06,6357           50073                           TS       SIGNRET                               #  R2D1, OR R3D1. ALLOWS ONLY FIRST OF
000521: 06,6360           43177                           CS       R1D1
000522: 06,6361           06367                           TC       SGNTST1
000523: 06,6362           43200                           CS       R2D1
000524: 06,6363           06367                           TC       SGNTST1
000525: 06,6364           43201                           CS       R3D1
000526: 06,6365           06367                           TC       SGNTST1
000527: 06,6366           02124                           TC       ENDOFJOB                              #  NO MATCH FOUND. SIGN ILLEGAL
000528: 06,6367           60614        SGNTST1            AD       DSPCOUNT
000529: 06,6370           10000                           CCS      A
000530: 06,6371           00001                           TC       Q
000531: 06,6372           03070                           TC       CCSHOLE
000532: 06,6373           00001                           TC       Q
000533: 06,6374           00073                           TC       SIGNRET                               #  SIGN LEGAL
000534:
000535:
000536:
000537:                                                                                                  #  ERROR LIGHT RESET RESETS TMALM, DSPALARM (CHECK FAIL), PROGALM, UNBLOCKS
000538:                                                                                                  #  ENDPULSES, RESETS ERRUPT TRAP. IT ALSO FORCES BIT 12 OF ALL DSPTAB
000539:                                                                                                  #  ENTRIES TO ONE. RESETS UPACT LIGHT.
000540:
000541: 06,6375           44513        ERROR              CS       BIT4                                  #  RESTORE ORIGINAL C(DSPLOCK) BIT4 OF
000542: 06,6376           20017                           INHINT                                         #  STATE. THUS ERROR LIGHT RESET LEAVES
000543: 06,6377           70645                           MASK     DSPLOCK                               #  DSPLOCK UNCHANGED.
000544: 06,6400           60106                           AD       21/22REG
000545: 06,6401           50645                           TS       DSPLOCK
000546: 06,6402           44510                           CS       BIT7                                  #  RESET ERRUPT TRAP
000547: 06,6403           70011                           MASK     OUT1
000548: 06,6404           64510                           AD       BIT7
000549: 06,6405           50011                           TS       OUT1
000550: 06,6406           46473                           CS       CFAILCON                              #  RESET THE C RELAYS FOR IMU FAIL, CDUFAIL
000551: 06,6407           70723                           MASK     DSPTAB     +11D                       #  PIPA FAIL.
000552: 06,6410           64500                           AD       BIT15
000553: 06,6411           50723                           TS       DSPTAB     +11D
000554: 06,6412           46471                           CS       ERCON
000555: 06,6413           70011                           MASK     OUT1
000556: 06,6414           50011                           TS       OUT1
000557: 06,6415           33240        TSTAB              CAF      BINCON                                #  (DEC 10)
000558: 06,6416           50063                           TS       ERCNT                                 #  ERCNT = COUNT
000559: 06,6417           20017                           INHINT
000560: 06,6420           20063                           INDEX    ERCNT
000561: 06,6421           10710                           CCS      DSPTAB
000562: 06,6422           64516                           AD       ONE
000563: 06,6423           06430                           TC       ERPLUS
000564: 06,6424           64516                           AD       ONE
000565: 06,6425           40000        ERMINUS            CS       A
000566: 06,6426           76472                           MASK     NOTBIT12
000567: 06,6427           06433                           TC       ERCOM
000568: 06,6430           40000        ERPLUS             CS       A
000569: 06,6431           76472                           MASK     NOTBIT12
000570: 06,6432           40000                           CS       A                                     #  MIGHT WANT TO RESET CLPASS, DECBRNCH,
000571: 06,6433           20063        ERCOM              INDEX    ERCNT                                 #  ETC.
000572: 06,6434           50710                           TS       DSPTAB
000573: 06,6435           20016                           RELINT
000574: 06,6436           10063                           CCS      ERCNT
000575: 06,6437           06416                           TC       TSTAB      +1
000576: 06,6440           10727                           CCS      WASKSET
000577: 06,6441           06450                           TC       ERROPT
000578: 06,6442           06450                           TC       ERROPT
000579: 06,6443           06450                           TC       ERROPT
000580: 06,6444           30007                           XCH      IN3
000581: 06,6445           30007                           XCH      IN3
000582: 06,6446           74720                           MASK     LOW7
000583: 06,6447           50727                           TS       WASKSET
000584:
000585: 06,6450           10730        ERROPT             CCS      WASOPSET
000586: 06,6451           06460                           TC       ERROR1
000587: 06,6452           06460                           TC       ERROR1
000588: 06,6453           06460                           TC       ERROR1
000589: 06,6454           30007                           XCH      IN3
000590: 06,6455           30007                           XCH      IN3
000591: 06,6456           76470                           MASK     OPTICSB
000592: 06,6457           50730                           TS       WASOPSET
000593:
000594: 06,6460           35501        ERROR1             CAF      ZERO
000595: 06,6461           51763                           TS       FAILREG
000596: 06,6462           50726                           TS       OLDERR
000597: 06,6463           51764                           TS       SFAIL
000598: 06,6464           50111                           TS       CODE
000599: 06,6465           35362                           CAF      SEVEN
000600: 06,6466           07437                           TC       11DSPIN                               #  TURN OFF UPACT LIGHT
000601: 06,6467           02124                           TC       ENDOFJOB
000602:
000603: 06,6470           35000        OPTICSB            OCT      35000
000604: 06,6471           01131        ERCON              OCT      01131                                 #  BITS 1, 4, 5, 7, 10.
000605:                                                                                                  #  PROGALM, TMFAIL, CHECK FAIL, ERRUPT TRAP
000606:                                                                                                  #  END PULSES.
000607:
000608: 06,6472           73777        NOTBIT12           OCT      73777
000609: 06,6473           40340        CFAILCON           OCT      40340
000610:
000611:
000612:
000613:                                                                                                  #  CLEAR BLANKS WHICH R1, R2, R3 IS CURRENT OR LAST TO BE DISPLAYED (PERTINE
000614:                                                                                                  #  NT XREG,YREG,ZREG IS CLEARED). SUCCESSIVE CLEARS TAKE CARE OF EACH RX
000615:                                                                                                  #  L/ RC UNTIL R1 IS DONE. THEN NO FURTHER ACTION
000616:
000617:                                                                                                  #  THE SINGLE COMPONENT LOAD VERBS ALLOW ONLY THE SINGLE RC THAT IS
000618:                                                                                                  #  APPROPRIATE TO BE CLEARED.
000619:
000620:                                                                                                  #  CLPASS        +0  PASS0, CAN BE BACKED UP
000621:                                                                                                  #                +NZ  HIPASS, CAN BE BACKED UP
000622:                                                                                                  #                -NZ  PASS0, CANNOT BE BACKED UP
000623:
000624: 06,6474           10614        CLEAR              CCS      DSPCOUNT
000625: 06,6475           64516                           AD       ONE
000626: 06,6476           06500                           TC       +2
000627: 06,6477           64516                           AD       ONE
000628: 06,6500           50614                           TS       DSPCOUNT
000629: 06,6501           06221                           TC       GETINREL
000630: 06,6502           10633                           CCS      CLPASS
000631: 06,6503           06510                           TC       CLPASHI                               #  +
000632: 06,6504           06506                           TC       +2                                    #  +0    IF CLPASS IS +0 OR -, IT IS PASS0
000633: 06,6505           06506                           TC       +1                                    #  -
000634: 06,6506           06537                           TC       LEGALTST
000635: 06,6507           06527                           TC       CLEAR1
000636: 06,6510           10076        CLPASHI            CCS      INREL
000637: 06,6511           50076                           TS       INREL
000638: 06,6512           06537                           TC       LEGALTST
000639: 06,6513           30613                           XCH      REQRET
000640: 06,6514           66611                           AD       DOUBLK     +2                         #  +3 TO - NUMBER. BACKS UP DATA REQUESTS
000641: 06,6515           50613                           TS       REQRET
000642: 06,6516           30076                           XCH      INREL
000643: 06,6517           50073                           TS       MIXTEMP                               #  TEMP STORAGE FOR INREL
000644: 06,6520           30602                           XCH      VERBREG                               #  DECREMENT VERB AND RE-DISPLAY
000645: 06,6521           64335                           AD       NEG1
000646: 06,6522           50602                           TS       VERBREG
000647: 06,6523           05654                           TC       BANKCALL
000648: 06,6524           16346                           CADR     UPDATVB
000649: 06,6525           30073                           XCH      MIXTEMP
000650: 06,6526           50076                           TS       INREL                                 #  RESTORE INREL
000651: 06,6527           06534        CLEAR1             TC       CLR5
000652: 06,6530           34516                           CAF      ONE
000653: 06,6531           60633                           AD       CLPASS                                #  ONLY IF CLPASS IS + OR +0,
000654: 06,6532           50633                           TS       CLPASS                                #  SET FOR HIGHER PASS.
000655: 06,6533           02124                           TC       ENDOFJOB
000656: 06,6534           30001        CLR5               XCH      Q
000657: 06,6535           50106                           TS       WRDRET                                #  USES 5BLANK  BUT AVOIDS ITS TC GETINREL
000658: 06,6536           06551                           TC       5BLANK     +3
000659: 06,6537           45503        LEGALTST           CS       TWO
000660: 06,6540           60076                           AD       INREL
000661: 06,6541           10000                           CCS      A
000662: 06,6542           00001                           TC       Q                                     #  LEGAL  INREL G/ 2
000663: 06,6543           03070                           TC       CCSHOLE
000664: 06,6544           02124                           TC       ENDOFJOB                              #  ILLEGAL   INREL= 0,1
000665: 06,6545           00001                           TC       Q                                     #  LEGAL    INREL = 2
000666:
000667:
000668:
000669:                                                                                                  #  5BLANK BLANKS 5 CHAR DISPLAY WORD IN R1, R2, OR R3. IT ALSO ZEROES XREG,
000670:                                                                                                  #  YREG, OR ZREG. PLACE ANY + DSPCOUNT NUMBER FOR PERTINENT RC INTO DSPCOUNT
000671:                                                                                                  #  DSPCOUNT IS LEFT SET TO LEFT MOST DSP NUMB FOR RC JUST BLANKED.
000672:
000673: 06,6546           30001        5BLANK             XCH      Q
000674: 06,6547           50106                           TS       WRDRET
000675: 06,6550           06221                           TC       GETINREL
000676: 06,6551           35501                           CAF      ZERO
000677: 06,6552           20076                           INDEX    INREL
000678: 06,6553           50602                           TS       VERBREG                               #  ZERO X, Y, Z REG.
000679: 06,6554           20076                           INDEX    INREL
000680: 06,6555           50605                           TS       XREGLP     -2
000681: 06,6556           50111                           TS       CODE
000682: 06,6557           20076                           INDEX    INREL                                 #  ZERO PERTINENT DEC COMP BIT.
000683: 06,6560           44510                           CS       BIT7                                  #  PROTECT OTHERS
000684: 06,6561           70615                           MASK     DECBRNCH
000685: 06,6562           76612                           MASK     BRNCHCON                              #  ZERO LOW 2 BITS.
000686: 06,6563           50615                           TS       DECBRNCH
000687: 06,6564           20076                           INDEX    INREL
000688: 06,6565           36602                           CAF      SINBLANK   -2                         #  BLANK ISOLATED CHAR SEPARATELY
000689: 06,6566           50104                           TS       COUNT
000690: 06,6567           07352                           TC       DSPIN
000691: 06,6570           20076        5BLANK1            INDEX    INREL
000692: 06,6571           36605                           CAF      DOUBLK     -2
000693: 06,6572           50614                           TS       DSPCOUNT
000694: 06,6573           06613                           TC       2BLANK
000695: 06,6574           45503                           CS       TWO
000696: 06,6575           60614                           AD       DSPCOUNT
000697: 06,6576           50614                           TS       DSPCOUNT
000698: 06,6577           06613                           TC       2BLANK
000699: 06,6600           20076                           INDEX    INREL
000700: 06,6601           33175                           CAF      R1D1       -2
000701: 06,6602           50614                           TS       DSPCOUNT                              #  SET DSPCOUNT TO LEFT MOST DSP NUMBER
000702: 06,6603           00106                           TC       WRDRET                                #  OF REG. JUST BLANKED
000703:
000704: 06,6604           00016        SINBLANK           OCT      16                                    #  DEC 14
000705: 06,6605           00005                           OCT      5
000706: 06,6606           00004                           OCT      4
000707: 06,6607           00015        DOUBLK             OCT      15                                    #  DEC 13
000708: 06,6610           00011                           OCT      11                                    #  DEC 9
000709: 06,6611           00003                           OCT      3
000710:
000711: 06,6612           77774        BRNCHCON           OCT      77774
000712:
000713:                                                                                                  #  2BLANK BLANKS TWO CHAR. PLACE DSP NUMBER OF LEFT CHAR  OF THE PAIR INTO
000714:                                                                                                  #  DSPCOUNT. THIS NUMBER IS LEFT IN DSPCOUNT
000715:
000716: 06,6613           30001        2BLANK             XCH      Q
000717: 06,6614           50112                           TS       BLANKRET
000718: 06,6615           40614                           CS       DSPCOUNT
000719: 06,6616           40000                           CS       A
000720: 06,6617           50021                           TS       SR
000721: 06,6620           46631                           CS       BLANKCON
000722: 06,6621           20017                           INHINT
000723: 06,6622           20021                           INDEX    SR
000724: 06,6623           30710                           XCH      DSPTAB
000725: 06,6624           10000                           CCS      A
000726: 06,6625           06632                           TC       INCNOUT                               #  IF OLD CONTENTS +,+1 TO NOUT
000727: 06,6626           03070                           TC       CCSHOLE
000728: 06,6627           20016                           RELINT                                         #  IF -,NOUT OK
000729: 06,6630           00112                           TC       BLANKRET
000730: 06,6631           04000        BLANKCON           OCT      4000
000731:
000732: 06,6632           30707        INCNOUT            XCH      NOUT
000733: 06,6633           64516                           AD       ONE
000734: 06,6634           50707                           TS       NOUT
000735: 06,6635           20001                           INDEX    Q
000736: 06,6636           00001                           TC       1                                     #  RETURN TO 2+ L(CALLING TC)
000737:
000738:
000739:                                                                                                  #  ENTER PASS 0 IS THE EXECUTE FUNCTION. HIGHER ORDER ENTERS ARE TO LOAD
000740:                                                                                                  #  DATA. THE SIGN OF REQRET DETERMINES THE PASS, + FOR PASS 0,- FOR HIGHER
000741:                                                                                                  #  PASSES.
000742:
000743: 07,6000                                           SETLOC   16000
000744:
000745: 07,6000           07354        NVSUBB             TC       NVSUB1                                #  STANDARD LEAD INS, DONT MOVE.
000746: 07,6001           07433        GRABUSYB           TC       GRABUSY1
000747: 07,6002           07455        NVSUBSYB           TC       NVSUBSY1
000748: 07,6003           30001        DSPMM              XCH      Q
000749: 07,6004           50063                           TS       UPDATRET
000750: 07,6005           07422                           TC       DSPMM1
000751: 07,6006           06705        LOADLV1            TC       LOADLV
000752:                                                                                                  #  END OF STANDARD LEAD INS.
000753:
000754:
000755:
000756: 07,6007           35501        ENTER              CAF      ZERO
000757: 07,6010           50633                           TS       CLPASS
000758: 07,6011           33155                           CAF      ENDINST
000759: 07,6012           50065                           TS       ENTRET
000760: 07,6013           10613                           CCS      REQRET
000761: 07,6014           06035                           TC       ENTPAS0                               #  IF +, PASS 0
000762: 07,6015           06035                           TC       ENTPAS0                               #  IF +, PASS 0
000763: 07,6016           06017                           TC       +1                                    #  IF -, NOT PASS 0
000764: 07,6017           34473                           CAF      THREE                                 #  IF DEC, ALARM IF LESS THAN 5 CHAR IN.
000765: 07,6020           70615                           MASK     DECBRNCH                              #  BUT LEAVE REQRET - AND FLASH ON, SO
000766: 07,6021           10000                           CCS      A                                     #  OPERATOR CAN SUPPLY MISSING NUMERICAL
000767: 07,6022           06024                           TC       +2                                    #  CHARACTERS AND CONTINUE.
000768: 07,6023           06030                           TC       ACCEPTWD                              #  OCTAL. ANY NUMBER OF CHAR OK.
000769: 07,6024           10614                           CCS      DSPCOUNT
000770: 07,6025           06356                           TC       GODSPALM                              #  LESS THAN 5 CHAR DEC(DSPCOUNT IS +)
000771: 07,6026           06356                           TC       GODSPALM                              #  LESS THAN 5 CHAR DEC(DSPCOUNT IS +)
000772: 07,6027           06030                           TC       +1                                    #  5 CHAR IN (DSPCOUNT IS -)
000773: 07,6030           40613        ACCEPTWD           CS       REQRET                                #  5 CHAR IN (DSPCOUNT IS -)
000774: 07,6031           50613                           TS       REQRET                                #  SET REQRET +.
000775: 07,6032           05654                           TC       BANKCALL
000776: 07,6033           14003                           CADR     FLASHOFF
000777: 07,6034           00613                           TC       REQRET
000778:
000779: 07,6035     0065               ENTEXIT            =        ENTRET
000780:
000781: 07,6035           35501        ENTPAS0            CAF      ZERO                                  #   NOUN VERB SUB ENTERS HERE
000782: 07,6036           50615                           TS       DECBRNCH
000783: 07,6037           40602        TESTVB             CS       VERBREG                               #  IF VERB IS 32-77, SKIP NOUN TEST
000784: 07,6040           66043                           AD       LOWVERB                               #  32-VB
000785: 07,6041           10000                           CCS      A
000786: 07,6042           06046                           TC       TESTNN                                #  VERB L/ 32
000787: 07,6043           00032        LOWVERB            OCT      32                                    #  LOWER VERB THAT AVOIDS NOUN TEST
000788: 07,6044           06045                           TC       +1                                    #  VERB G/ 32
000789: 07,6045           06130                           TC       VERBFAN                               #  VERB=32
000790: 07,6046           36107        TESTNN             CAF      LODNNLOC                              #  SWITCH BANKS TO NOUN TABLE READING
000791: 07,6047           05662                           TC       SWCALL                                #  ROUTINE.
000792: 07,6050           20107                           INDEX    MIXBR
000793: 07,6051           06051                           TC       +0
000794: 07,6052           06054                           TC       +2                                    #  NORMAL
000795: 07,6053           06210                           TC       MIXNOUN                               #  MIXED
000796: 07,6054           10054                           CCS      NNADTEM                               #  NORMAL
000797: 07,6055           06126                           TC       VERBFAN    -2                         #       NORMAL IF +
000798: 07,6056           06356                           TC       GODSPALM                              #  NOT IN USE   IF +0
000799: 07,6057           06067                           TC       REQADD                                #  SPECIFY MACHINE ADDRESS IF -
000800: 07,6060           33201                           CAF      R3D1                                  #  AUGMENT MACHINE ADDRESS IF -0
000801: 07,6061           50614                           TS       DSPCOUNT
000802: 07,6062           30624                           XCH      NOUNADD
000803: 07,6063           64516                           AD       ONE
000804: 07,6064           50624                           TS       NOUNADD
000805: 07,6065           07225                           TC       DSPOCTWD
000806: 07,6066           06130                           TC       VERBFAN
000807: 07,6067           34500        REQADD             CAF      BIT15                                 #  SET CLPASS FOR PASS0 ONLY
000808: 07,6070           50633                           TS       CLPASS
000809: 07,6071           43155                           CS       ENDINST
000810: 07,6072           60065                           AD       ENTEXIT
000811: 07,6073           10000                           CCS      A                                     #  TEST IF REACHED HERE FROM INTERNAL OR
000812: 07,6074           06110                           TC       INTMATBS                              #                FROM EXTERNAL
000813: 07,6075           03070                           TC       CCSHOLE
000814: 07,6076           06110                           TC       INTMATBS
000815: 07,6077           06304                           TC       REQDATZ                               #  EXTERNAL MACH ADDR TO BE SPECIFIED
000816: 07,6100           10615                           CCS      DECBRNCH
000817: 07,6101           06356                           TC       GODSPALM                              #  ALARM IF DECIMAL USED FOR MATBS
000818: 07,6102           30606                           XCH      ZREG                                  #  OCTAL USED    OK
000819: 07,6103           50624                           TS       NOUNADD
000820: 07,6104           36107                           CAF      LODNNLOC                              #  SWITCH BANKS TO NOUN TABLE READING
000821: 07,6105           05662                           TC       SWCALL                                #  ROUTINE.
000822: 07,6106           06130                           TC       VERBFAN
000823:
000824: 07,6107           13266        LODNNLOC           CADR     LODNNTAB
000825:
000826: 07,6110           44513        INTMATBS           CS       BIT4
000827: 07,6111           70602                           MASK     VERBREG                               #  MAKES VB 15 LOOK LIKE VB 05.
000828: 07,6112           66115                           AD       NEG5
000829: 07,6113           10000                           CCS      A
000830: 07,6114           06120                           TC       DSPADD                                #  VB NOT = 05 OR 15, DISPLAY ADDRESS.
000831: 07,6115           77772        NEG5               OCT      77772
000832: 07,6116           06120                           TC       DSPADD                                #  VB NOT = 05 OR 15, DISPLAY ADDRESS.
000833: 07,6117           06130                           TC       VERBFAN                               #  VB = 05 OR 15, DO NOT DISPLAY ADDRESS.
000834: 07,6120           33201        DSPADD             CAF      R3D1
000835: 07,6121           50614                           TS       DSPCOUNT
000836: 07,6122           40624                           CS       NOUNADD
000837: 07,6123           40000                           CS       A
000838: 07,6124           07225                           TC       DSPOCTWD
000839: 07,6125           06130                           TC       VERBFAN
000840:
000841: 07,6126           64516                           AD       ONE
000842: 07,6127           50624                           TS       NOUNADD
000843: 07,6130           46143        VERBFAN            CS       LST2CON
000844: 07,6131           60602                           AD       VERBREG                               #  VERB-LST2CON
000845: 07,6132           10000                           CCS      A
000846: 07,6133           64516                           AD       ONE                                   #  VERB G/ LST2CON
000847: 07,6134           06136                           TC       +2
000848: 07,6135           06145                           TC       VBFANDIR                              #  VERB L/ LST2CON
000849: 07,6136           50115        JAMEXTVB           TS       MPAC                                  #  SPECIAL ENTRY FOR FORCING EXTENDED VERB.
000850: 07,6137           03331                           TC       RELDSP                                #  RELEASE DISPLAY SYST
000851: 07,6140           30115                           XCH      MPAC                                  #  ALSO TURN OFF RELEASE DISPLAY SYST LIGHT
000852: 07,6141           66144                           AD       LST2CADR
000853: 07,6142           05723                           TC       BANKJUMP
000854: 07,6143           00040        LST2CON            OCT      40                                    #  FIRST LST2 VERB
000855: 07,6144           12000        LST2CADR           CADR     LST2FAN                               #  THE LIST2 FAN IS LOCATED IN BANK 05
000856:
000857: 07,6145           20602        VBFANDIR           INDEX    VERBREG
000858: 07,6146           36150                           CAF      VERBTAB
000859: 07,6147           05723                           TC       BANKJUMP
000860:
000861: 07,6150           16356        VERBTAB            CADR     GODSPALM                              #  VB00 ILLEGAL
000862: 07,6151           16372                           CADR     DSPA                                  #  VB01 DISPLAY OCT COMP 1 (R1)
000863: 07,6152           16377                           CADR     DSPB                                  #  VB02 DISPLAY OCT COMP 2 (R1)
000864: 07,6153           16404                           CADR     DSPC                                  #  VB03 DISPLAY OCT COMP 3 (R1)
000865: 07,6154           16365                           CADR     DSPAB                                 #  VB04 DISPLAY OCT COMP 1,2 (R1,R2)
000866: 07,6155           16360                           CADR     DSPABC                                #  VB05 DISPLAY OCT COMP 1,2,3 (R1,R2,R3)
000867: 07,6156           16476                           CADR     DECDSP                                #  VB06 DECIMAL DISPLAY
000868: 07,6157           15030                           CADR     DSPDPDEC                              #  VB07 DP DECIMAL DISPLAY (R1,R2)
000869: 07,6160           17342                           CADR     VBRQWAIT                              #  VB10 REQUEST WAITLIST
000870: 07,6161           17102                           CADR     MONITOR                               #  VB11 MONITOR OCT COMP 1 (R1)
000871: 07,6162           17102                           CADR     MONITOR                               #  VB12 MONITOR OCT COMP 2 (R1)
000872: 07,6163           17102                           CADR     MONITOR                               #  VB13 MONITOR OCT COMP 3 (R1)
000873: 07,6164           17102                           CADR     MONITOR                               #  VB14 MONITOR OCT COMP 1,2 (R1,R2)
000874: 07,6165           17102                           CADR     MONITOR                               #  VB15 MONITOR OCT COMP 1,2,3 (R1,R2,R3)
000875: 07,6166           17102                           CADR     MONITOR                               #  VB16 MONITOR DECIMAL
000876: 07,6167           17102                           CADR     MONITOR                               #  VB17 MONITOR DP DEC  (R1,R2)
000877: 07,6170           17321        REQEXLOC           CADR     VBRQEXEC                              #  VB20 REQUEST EXECUTIVE
000878: 07,6171           16645                           CADR     ALOAD                                 #  VB21 LOAD COMP 1 (R1)
000879: 07,6172           16655                           CADR     BLOAD                                 #  VB22 LOAD COMP 2 (R2)
000880: 07,6173           16671                           CADR     CLOAD                                 #  VB23 LOAD COMP 3 (R3)
000881: 07,6174           16620                           CADR     ABLOAD                                #  VB24 LOAD COMP 1,2 (R1,R2)
000882: 07,6175           16564                           CADR     ABCLOAD                               #  VB25 LOAD COMP 1,2,3 (R1,R2,R3)
000883: 07,6176           16356                           CADR     GODSPALM                              #  VB26 SPARE
000884: 07,6177           16356                           CADR     GODSPALM                              #  VB27 SPARE
000885: 07,6200           16356                           CADR     GODSPALM                              #  VB30 SPARE
000886: 07,6201           17216                           CADR     DSPBANK                               #  VB31 BANK DISPLAY
000887: 07,6202           15514                           CADR     BUMP                                  #  VB32 C(R2) INTO R3, C(R1) INTO R2
000888: 07,6203           15476                           CADR     VBPROC                                #  VB33 PROCEED WITHOUT DATA
000889: 07,6204           15503                           CADR     VBTERM                                #  VB34 TERMINATE CURRENT TEST OR LOAD REQ
000890: 07,6205           15506                           CADR     VBRELDSP                              #  VB35 RELEASE DISPLAY SYST
000891: 07,6206           10000                           CADR     SLAPB                                 #  VB36 FRESH START
000892: 07,6207           17273        ENDVBFAN           CADR     MMCHANG                               #  VB37 CHANGE MAJOR MODE
000893:
000894:
000895:
000896:                                                                                                  #  THE LIST2 VERBFAN IS LOCATED IN BANK 05.
000897:
000898:
000899:                                                                                                  #  NNADTAB CONTAINS A RELATIVE ADDRESS, IDADDREL(IN LOW 10 BITS), REFERRING
000900:                                                                                                  #  TO WHERE 3 CONSECUTIVE ADDRESSES ARE STORED (IN IDADDTAB).
000901:                                                                                                  #  MIXNOUN GETS DATA AND STORES IN MIXTEMP,+1,+2. IT SETS NOUNADD FOR
000902:                                                                                                  #  MIXTEMP.
000903:
000904: 07,6210           10054        MIXNOUN            CCS      NNADTEM
000905: 07,6211           06215                           TC       +4                                    #  +  IN USE
000906: 07,6212           06356                           TC       GODSPALM                              #  +0  NOT IN USE
000907: 07,6213           06215                           TC       +2                                    #  -  IN USE
000908: 07,6214           06215                           TC       +1                                    #  -0  IN USE
000909: 07,6215           44475                           CS       SIX
000910: 07,6216           60602                           AD       VERBREG
000911: 07,6217           10000                           CCS      A                                     #  AVOID MIXNOUN SWAP FOR OTHER THAN
000912: 07,6220           06130                           TC       VERBFAN                               #        DISPLAY VERBS
000913: 07,6221           03070                           TC       CCSHOLE
000914: 07,6222           06223                           TC       +1
000915: 07,6223           35503                           CAF      TWO
000916: 07,6224           50064        MIXNN1             TS       NOUNTEM
000917: 07,6225           66254                           AD       MIXAD
000918: 07,6226           50624                           TS       NOUNADD                               #  SET NOUNADD TO MIXTEMP + K
000919: 07,6227           20064                           INDEX    NOUNTEM
000920: 07,6230           40056                           CS       IDAD1TEM                              #  GET IDADDTAB ENTRY FOR COMPONENT K
000921: 07,6231           40000                           CS       A                                     #  OF NOUN.
000922: 07,6232           50063                           TS       DECOUNT
000923:                                                                                                  #  TEST FOR DP (FOR OCT DISPLAY). IF SO, GET
000924:                                                                                                  #    MINOR PART ONLY.
000925: 07,6233           72261                           MASK     HI5
000926: 07,6234           03211                           TC       LEFT5                                 #  SF ROUT NUMBER IN A
000927: 07,6235           06255                           TC       DPTEST
000928: 07,6236           06242                           TC       MIXNN2                                #  NO DP
000929: 07,6237           34516                           CAF      ONE                                   #  DP  GET MINOR PART
000930: 07,6240           60063                           AD       DECOUNT
000931: 07,6241           50063                           TS       DECOUNT
000932: 07,6242           30063        MIXNN2             XCH      DECOUNT
000933: 07,6243           74606                           MASK     LOW10                                 #  ESUBK (NO DP)  OR  (ESUBK)+1    FOR DP
000934: 07,6244           20000                           INDEX    A                                     #  PICK UP C(ESUBK)  NOT DP
000935: 07,6245           40000                           CS       0                                     #  OR C((ESUBK)+1)  FOR DP MINOR PART
000936: 07,6246           40000                           CS       A
000937: 07,6247           20624                           INDEX    NOUNADD
000938: 07,6250           30000                           XCH      0                                     #  STORE IN MIXTEM + K
000939: 07,6251           10064                           CCS      NOUNTEM
000940: 07,6252           06224                           TC       MIXNN1
000941: 07,6253           06130                           TC       VERBFAN
000942:
000943: 07,6254           00073        MIXAD              TC       MIXTEMP
000944:
000945:
000946:
000947: 07,6255           50110        DPTEST             TS       SFTEMP1                               #  ENTER WITH SF ROUT NUMBER IN A.
000948: 07,6256           30001                           XCH      Q                                     #  RETURNS TO L+1 IF NO DP
000949: 07,6257           30110                           XCH      SFTEMP1                               #  RETURNS TO L+2 IF DP
000950: 07,6260           20000                           INDEX    A
000951: 07,6261           06262                           TC       +1
000952: 07,6262           00110                           TC       SFTEMP1                               #  OCTAL ONLY  NO DP
000953: 07,6263           00110                           TC       SFTEMP1                               #  FRACT NO DP
000954: 07,6264           00110                           TC       SFTEMP1                               #  DEG  NO DP
000955: 07,6265           00110                           TC       SFTEMP1                               #  ARITH  NO DP
000956: 07,6266           06272                           TC       DPTEST1                               #  DP1OUT
000957: 07,6267           06272                           TC       DPTEST1                               #  DP2OUT
000958: 07,6270           00110                           TC       SFTEMP1                               #  OPDEG  NO DP
000959: 07,6271           06272                           TC       DPTEST1                               #  DP3OUT
000960: 07,6272           20110        DPTEST1            INDEX    SFTEMP1
000961: 07,6273           00001                           TC       1                                     #  RETURN TO L+2
000962:
000963:
000964:
000965: 07,6274           40001        REQDATX            CS       Q
000966: 07,6275           50613                           TS       REQRET
000967: 07,6276           33177                           CAF      R1D1
000968: 07,6277           06307                           TC       REQCOM
000969: 07,6300           40001        REQDATY            CS       Q
000970: 07,6301           50613                           TS       REQRET
000971: 07,6302           33200                           CAF      R2D1
000972: 07,6303           06307                           TC       REQCOM
000973: 07,6304           40001        REQDATZ            CS       Q
000974: 07,6305           50613                           TS       REQRET
000975: 07,6306           33201                           CAF      R3D1
000976: 07,6307           50614        REQCOM             TS       DSPCOUNT
000977: 07,6310           05654                           TC       BANKCALL
000978: 07,6311           14546                           CADR     5BLANK
000979: 07,6312           05654                           TC       BANKCALL
000980: 07,6313           14000                           CADR     FLASHON
000981: 07,6314           43155                           CS       ENDINST
000982: 07,6315           60065                           AD       ENTEXIT
000983: 07,6316           10000                           CCS      A
000984: 07,6317           06323                           TC       +4                                    #  ENTEXIT NOT ENDOFJOB. NVSUB INITIATED
000985: 07,6320           03070                           TC       CCSHOLE
000986: 07,6321           06323                           TC       +2                                    #  ENTEXIT NOT ENDOFJOB. NVSUB INITIATED
000987: 07,6322           00065                           TC       ENTEXIT                               #  ENTEXIT = ENDOFJOB. EXTERNALLY INITIATED
000988: 07,6323           45501                           CS       ZERO                                  #  NVSUB INITIATED LOAD. SET CADRSTOR TO -0
000989: 07,6324           50627                           TS       CADRSTOR
000990: 07,6325           00065                           TC       ENTEXIT
000991:
000992:                                                                                                  #  IF NVSUB INITIATED LOAD, SET CADRSTOR TO -0 TO TELL RECALTST TO RELEASE
000993:                                                                                                  #  DISPLAY IF ENDIDLE WAS NOT USED. (NECESSARY FOR DATAWAIT)
000994:
000995:
000996:
000997: 07,6326           50603                           TS       NOUNREG
000998: 07,6327           30001        UPDATNN            XCH      Q
000999: 07,6330           50063                           TS       UPDATRET
001000: 07,6331           36107                           CAF      LODNNLOC                              #  SWITCH BANKS TO NOUN TABLE READING
001001: 07,6332           05662                           TC       SWCALL                                #  ROUTINE.
001002: 07,6333           10054                           CCS      NNADTEM
001003: 07,6334           64516                           AD       ONE                                   #  NORMAL
001004: 07,6335           06340                           TC       PUTADD
001005: 07,6336           06341                           TC       PUTADD     +1                         #  MATBS  DONT CHANGE NOUNADD
001006: 07,6337           06341                           TC       PUTADD     +1                         #  MATBI  DONT CHANGE NOUNADD
001007: 07,6340           50624        PUTADD             TS       NOUNADD
001008: 07,6341           33236                           CAF      ND1
001009: 07,6342           50614                           TS       DSPCOUNT
001010: 07,6343           40603                           CS       NOUNREG
001011: 07,6344           06353                           TC       UPDAT1
001012:
001013: 07,6345           50602                           TS       VERBREG
001014: 07,6346           30001        UPDATVB            XCH      Q
001015: 07,6347           50063                           TS       UPDATRET
001016: 07,6350           33235                           CAF      VD1
001017: 07,6351           50614                           TS       DSPCOUNT
001018: 07,6352           40602                           CS       VERBREG
001019: 07,6353           40000        UPDAT1             CS       A
001020: 07,6354           07261                           TC       DSP2BIT
001021: 07,6355           00063                           TC       UPDATRET
001022:
001023:
001024:
001025: 07,6356           05720        GODSPALM           TC       POSTJUMP
001026: 07,6357           15453                           CADR     DSPALARM
001027:
001028:
001029:                                                                                                  #        NOUN TABLES
001030:                                                                                                  #  NOUN CODE L/55, NORMAL CASE. NOUN CODE G/E 55, MIXED NOUN CASE.
001031:                                                                                                  #  FOR NORMAL CASE, NNADTAB CONTAINS ONE MACHINE ADDRESS FOR EACH NOUN.
001032:                                                                                                  #  +0 INDICATES NOUN NOT USED.   - ENTRY IDICATES MACHINE ADDRESS TO BE
001033:                                                                                                  #  SPECIFIED.      -0 ENTRY INDICATES AUGMENT OF LAST MACHINE ADDRESS.
001034:
001035:                                                                                                  #  FOR MIXED CASE, NNADTAB CONTAINS ONE INDIRECT ADDRESS(IDADDREL) IN LOW
001036:                                                                                                  #  10 BITS, AND THE COMPONENT CODE NUMBER IN THE HIGH 5 BITS.
001037:
001038:                                                                                                  #  NNTYPTAB IS A PACKED TABLE OF THE FORM MMMMMNNNNNPPPPP.
001039:
001040:                                                                                                  #  FOR THE NORMAL CASE, M-S ARE THE COMPONENT CODE NUMBER.
001041:                                                                                                  #                       N-S ARE THE SF ROUTINE CODE NUMBER.
001042:                                                                                                  #                       P-S ARE THE SF CONSTANT CODE NUMBER.
001043:
001044:                                                                                                  #  MIXED CASE,M-S ARE THE SF CONSTANT3 CODE NUMBER       3 COMPONENT CASE
001045:                                                                                                  #             N-S ARE THE SF CONSTANT2 CODE NUMBER
001046:                                                                                                  #             P-S ARE THE SF CONSTANT1 CODE NUMBER
001047:                                                                                                  #             N-S ARE THE SF CONSTANT2 CODE NUMBER       2 COMPONENT CASE
001048:                                                                                                  #             P-S ARE THE SF CONSTANT1 CODE NUMBER
001049:                                                                                                  #             P-S ARE THE SF CONSTANT1 CODE NUMBER        1 COMPONENT CASE
001050:
001051:                                                                                                  #  THERE IS ALSO AN INDIRECT ADDRESS TABLE(IDADDTAB) FOR MIXED CASE ONLY.
001052:                                                                                                  #  ENTRY IS OF FORM RRRRREEEEEEEEEE. IDADDREL IS THE RELATIVE ADDRESS OF
001053:                                                                                                  #  THE FIRST OF THESE ENTRIES.
001054:                                                                                                  #  R-S ARE THE SF ROUTINE CODE NUMBERS FOR COMPONENT K
001055:                                                                                                  #  E-S ARE THE MACHINE ADDRESS FOR COMPONENT K
001056:                                                                                                  #  THERE IS ONE ENTRY IN THIS TABLE FOR EACH COMPONENT OF A MIXED NOUN
001057:                                                                                                  #  THEY ARE LISTED IN ORDER OF ASCENDING K.
001058:
001059:                                                                                                  #  IN OCTAL DISPLAY AND LOAD (OCT OR DEC) VERBS, EXCLUDE USE OF VERBS WHOSE
001060:                                                                                                  #  COMPONENT NUMBER IS GREATER THAN THE NUMBER OF COMPONENTS IN NOUN.
001061:                                                                                                  #  ALL MACHINE ADDRESS TO BE SPECIFIED NOUNS ARE 1 COMPONENT.
001062:                                                                                                  #  ONLY EXCEPTION IS NOUN 01 TO ALLOW OCTAL DISPLAYS AND LOADS OF
001063:                                                                                                  #  AN UNCONTOLLED NUMBER OF COMPONENTS.
001064:
001065:
001066:
001067:                                                                                                  #  IN MULTI-COMPONENT LOAD VERBS, NO MIXING OF OCTAL AND DECIMAL DATA
001068:                                                                                                  #  COMPONENT WORDS IS ALLOWED. ALARM IF VIOLATION.
001069:
001070:                                                                                                  #  IN DECIMAL LOADS OF DATA, 5 NUMERICAL CHARACTERS MUST BE KEYED IN
001071:                                                                                                  #  BEFORE EACH ENTER. IF NOT, ALARM.
001072:
001073:
001074:                                                                                                  #        DISPLAY VERBS
001075: 07,6360           45503        DSPABC             CS       TWO
001076: 07,6361           06430                           TC       COMPTEST
001077: 07,6362           20624                           INDEX    NOUNADD
001078: 07,6363           40002                           CS       2
001079: 07,6364           30101                           XCH      BUF        +2
001080: 07,6365           44516        DSPAB              CS       ONE
001081: 07,6366           06430                           TC       COMPTEST
001082: 07,6367           20624                           INDEX    NOUNADD
001083: 07,6370           40001                           CS       1
001084: 07,6371           30100                           XCH      BUF        +1
001085: 07,6372           06457        DSPA               TC       TSTFORDP
001086: 07,6373           20624                           INDEX    NOUNADD
001087: 07,6374           40000                           CS       0
001088: 07,6375           30077        DSPCOM1            XCH      BUF
001089: 07,6376           06411                           TC       DSPCOM2
001090: 07,6377           44516        DSPB               CS       ONE
001091: 07,6400           06430                           TC       COMPTEST
001092: 07,6401           20624                           INDEX    NOUNADD
001093: 07,6402           40001                           CS       1
001094: 07,6403           06375                           TC       DSPCOM1
001095: 07,6404           45503        DSPC               CS       TWO
001096: 07,6405           06430                           TC       COMPTEST
001097: 07,6406           20624                           INDEX    NOUNADD
001098: 07,6407           40002                           CS       2
001099: 07,6410           06375                           TC       DSPCOM1
001100: 07,6411           45503        DSPCOM2            CS       TWO                                   #  A  B  C  AB  ABC
001101: 07,6412           60602                           AD       VERBREG                               #  -1 -0 +1 +2  +3   IN A
001102: 07,6413           10000                           CCS      A                                     #  +0 +0 +0 +1  +2    IN A AFTER CCS
001103: 07,6414           06417                           TC       DSPCOM3
001104: 07,6415           00065                           TC       ENTEXIT
001105: 07,6416           06417                           TC       +1
001106: 07,6417           50064        DSPCOM3            TS       DISTEM                                #  +0,+1,+2 INTO DISTEM
001107: 07,6420           20000                           INDEX    A
001108: 07,6421           33177                           CAF      R1D1
001109: 07,6422           50614                           TS       DSPCOUNT
001110: 07,6423           20064                           INDEX    DISTEM
001111: 07,6424           40077                           CS       BUF
001112: 07,6425           07225                           TC       DSPOCTWD
001113: 07,6426           30064                           XCH      DISTEM
001114: 07,6427           06413                           TC       DSPCOM2    +2
001115:
001116:                                                                                                  #  COMPTEST ALARMS IF COMPONENT NUMBER OF VERB(LOAD OR OCT DISPLAY) IS
001117:                                                                                                  #  GREATER THAN THE HIGHEST COMPONENT NUMBER OF NOUN.
001118:                                                                                                  #  NOUN 01 IS EXCLUDED FROM TEST.
001119: 07,6430           50110        COMPTEST           TS       SFTEMP1                               #  - VERB COMP
001120: 07,6431           30001                           XCH      Q
001121: 07,6432           50111                           TS       SFTEMP2
001122: 07,6433           44516        COMPTST1           CS       ONE
001123: 07,6434           60603                           AD       NOUNREG
001124: 07,6435           10000                           CCS      A
001125: 07,6436           06442                           TC       +4                                    #  NOUN NOT = 01
001126: 07,6437           03070                           TC       CCSHOLE
001127: 07,6440           06442                           TC       +2                                    #  NOUN NOT = 01
001128: 07,6441           00111                           TC       SFTEMP2                               #  NOUN = 01. ANY COMP OK
001129: 07,6442           20107                           INDEX    MIXBR
001130: 07,6443           36473                           CAF      COMPICK    -1
001131: 07,6444           20000                           INDEX    A
001132: 07,6445           40000                           CS       0                                     #  MUST NOT DESTROY NNADTEM OR NNTYPTEM
001133: 07,6446           40000                           CS       A
001134: 07,6447           72261                           MASK     HI5
001135: 07,6450           03211                           TC       LEFT5                                 #  NOUN COMP
001136: 07,6451           60110                           AD       SFTEMP1                               #  NOUN COMP - VERB COMP
001137: 07,6452           10000                           CCS      A
001138: 07,6453           00111                           TC       SFTEMP2                               #  NOUN COMP G/ VERB COMP
001139: 07,6454           03070                           TC       CCSHOLE
001140: 07,6455           06356                           TC       GODSPALM                              #  NOUN COMP L/ VERB COMP
001141: 07,6456           00111                           TC       SFTEMP2                               #  NOUN COMP = VERB COMP
001142:
001143:
001144:
001145: 07,6457           30001        TSTFORDP           XCH      Q                                     #  TEST FOR DP. IF SO, GET MINOR PART ONLY.
001146: 07,6460           50063                           TS       DECOUNT
001147: 07,6461           20107                           INDEX    MIXBR
001148: 07,6462           06462                           TC       +0
001149: 07,6463           06465                           TC       +2                                    #  NORMAL
001150: 07,6464           00063                           TC       DECOUNT                               #  MIXED CASE ALREADY HANDLED IN MIXNOUN
001151: 07,6465           06740                           TC       SFRUTNOR
001152: 07,6466           06255                           TC       DPTEST
001153: 07,6467           00063                           TC       DECOUNT                               #  NO DP
001154: 07,6470           30624                           XCH      NOUNADD                               #  DP
001155: 07,6471           64516                           AD       ONE
001156: 07,6472           50624                           TS       NOUNADD                               #  E+1 INTO NOUNADD FOR MINOR PART.
001157: 07,6473           00063                           TC       DECOUNT
001158:
001159:
001160:
001161: 07,6474           00055        COMPICK            ADRES    NNTYPTEM
001162: 07,6475           00054                           ADRES    NNADTEM
001163:
001164: 07,6476           20107        DECDSP             INDEX    MIXBR                                 #  NORMAL                MIXED
001165: 07,6477           36473                           CAF      COMPICK    -1                         #  ADRES NNTYPTEM        ADRES NNADTEM
001166: 07,6500           20000                           INDEX    A
001167: 07,6501           40000                           CS       0                                     #  MUST NOT DESTROY NNADTEM OR NNTYPTEM
001168: 07,6502           40000                           CS       A                                     #  C(NNTYPTEM)           C(NNADTEM)
001169: 07,6503           72261                           MASK     HI5                                   #  GET HI5 OF NNTYPTAB(NORM) OF NNADTAB(MIX)
001170: 07,6504           03211                           TC       LEFT5
001171: 07,6505           50063                           TS       DECOUNT                               #  COMP NUMBER INTO DECOUNT
001172: 07,6506           50064        DSPDCGET           TS       DECTEM                                #  PICKS UP DATA
001173: 07,6507           60624                           AD       NOUNADD                               #  DECTEM  1COMP +0, 2COMP +1, 3COMP +2
001174: 07,6510           20000                           INDEX    A
001175: 07,6511           40000                           CS       0
001176: 07,6512           20064                           INDEX    DECTEM
001177: 07,6513           30604                           XCH      XREG                                  #  CANT USE BUF SINCE DMP USES IT.
001178: 07,6514           10064                           CCS      DECTEM
001179: 07,6515           06506                           TC       DSPDCGET                              #  MORE TO GET
001180: 07,6516           35501        DSPDCPUT           CAF      ZERO                                  #  DISPLAYS DATA
001181: 07,6517           50116                           TS       MPAC       +1                         #  DECOUNT 1COMP +0, 2COMP +1, 3COMP +2
001182: 07,6520           50117                           TS       MPAC       +2
001183: 07,6521           20063                           INDEX    DECOUNT
001184: 07,6522           33177                           CAF      R1D1
001185: 07,6523           50614                           TS       DSPCOUNT
001186: 07,6524           20063                           INDEX    DECOUNT
001187: 07,6525           40604                           CS       XREG
001188: 07,6526           50115                           TS       MPAC
001189: 07,6527           06756                           TC       SFCONUM                               #  SF CON NUMB IN A
001190: 07,6530           50111                           TS       SFTEMP2
001191: 07,6531           05654                           TC       BANKCALL                              #  SWITCH BANKS TO SF CONSTANT READING
001192: 07,6532           13326                           CADR     GTSFOUT                               #  ROUTINE. LOADS SFTEMP1, SFTEMP2.
001193: 07,6533           20107                           INDEX    MIXBR
001194: 07,6534           06534                           TC       +0
001195: 07,6535           06540                           TC       DSPSFNOR
001196: 07,6536           06746                           TC       SFRUTMIX
001197: 07,6537           06551                           TC       DECDSP3
001198:
001199: 07,6540           06740        DSPSFNOR           TC       SFRUTNOR
001200: 07,6541           06551                           TC       DECDSP3
001201:
001202: 07,6542           05654        DSPDCEND           TC       BANKCALL                              #  ALL SFOUT ROUTINES END HERE
001203: 07,6543           15252                           CADR     DSPDECWD
001204: 07,6544           10063                           CCS      DECOUNT
001205: 07,6545           06547                           TC       +2
001206: 07,6546           00065                           TC       ENTEXIT
001207: 07,6547           50063                           TS       DECOUNT
001208: 07,6550           06516                           TC       DSPDCPUT                              #  MORE TO DISPLAY
001209:
001210:
001211:
001212: 07,6551           20000        DECDSP3            INDEX    A
001213: 07,6552           36554                           CAF      SFOUTABR
001214: 07,6553           05723                           TC       BANKJUMP
001215:
001216: 07,6554           15453        SFOUTABR           CADR     DSPALARM                              #  ALARM IF DEC DISP WITH OCTAL ONLY NOUN
001217: 07,6555           16542                           CADR     DSPDCEND
001218: 07,6556           14637                           CADR     DEGOUTSF
001219: 07,6557           14743                           CADR     ARTOUTSF
001220:
001221: 07,6560           14752                           CADR     DP1OUTSF
001222: 07,6561           14757                           CADR     DP2OUTSF
001223: 07,6562           14645                           CADR     OPDEGOUT
001224: 07,6563           14761                           CADR     DP3OUTSF
001225: 07,6564                        ENDRTOUT           EQUALS
001226:
001227:
001228:
001229:                                                                                                  #        THE FOLLOWING IS A TYPICAL SF ROUTINE. IT USES MPAC. LEAVES RESU
001230:                                                                                                  #  LTS IN MPAC, MPAC+1. ENDS WITH TC DSPDCEND
001231:
001232:
001233:
001234: 06,6637                                           SETLOC   INCNOUT    +5
001235:
001236:                                                                                                  #     DEGOUTSF SCALES BY .18 THE LOW 14 BITS OF ANGLE , ADDING .18 FOR
001237:                                                                                                  #  NUMBERS IN THE NEGATIVE (AGC) RANGE.
001238:
001239: 06,6637           35501        DEGOUTSF           CAF      ZERO
001240: 06,6640           50117                           TS       MPAC       +2                         #  SET INDEX FOR FULL SCALE
001241: 06,6641           06707                           TC       FIXRANGE
001242: 06,6642           06644                           TC       +2                                    #  NO AUGMENT NEEDED (SFTEMP1 AND 2 ARE 0)
001243: 06,6643           06700                           TC       SETAUG                                #  SET AUGMENTER ACCORDING TO C(MPAC +2)
001244: 06,6644           06722                           TC       DEGCOM
001245:
001246:                                                                                                  #    OPDEGOUT SCALES BY .09 FOR ONE RANGE AND BY .45 FOR THE OTHER.
001247:                                                                                                  #  FOR THE .45 RANGE A .2 BIAS IS ALSO ADDED.
001248:
001249:
001250: 06,6645           34502        OPDEGOUT           CAF      BIT13
001251: 06,6646           70730                           MASK     WASOPSET
001252: 06,6647           10000                           CCS      A
001253: 06,6650           06653                           TC       +3
001254: 06,6651           34516                           CAF      ONE                                   #  180 DEG RANGE
001255: 06,6652           06640                           TC       DEGOUTSF   +1
001256: 06,6653           10115                           CCS      MPAC                                  #  90 DEG RANGE
001257: 06,6654           30115                           XCH      MPAC                                  #  IF POS OR POS 0 THEN ADD BIAS AND
001258: 06,6655           06660                           TC       +3                                    #  CORRECT FOR POSSIBLE OVERFLOW
001259: 06,6656           06670                           TC       NEGOPT                                #  IF NEG NON ZERO
001260: 06,6657           64335                           AD       NEG1                                  #  IF NEG ZERO SUBTRACT 1
001261: 06,6660           66742                           AD       20BIAS
001262: 06,6661           50115        BIASCOM            TS       MPAC                                  #  TEST FOR OVERFLOW
001263: 06,6662           06666                           TC       +4                                    #  NO OVFLOW
001264: 06,6663           34500                           CAF      BIT15                                 #  IF OVFLOW
001265: 06,6664           60115                           AD       MPAC
001266: 06,6665           50115                           TS       MPAC
001267: 06,6666           35503                           CAF      TWO                                   #  SET MULTIPLIER TO .45
001268: 06,6667           06640                           TC       DEGOUTSF   +1
001269:
001270: 06,6670           30115        NEGOPT             XCH      MPAC                                  #  NEGATIVE CASE
001271: 06,6671           66742                           AD       20BIAS
001272: 06,6672           10000                           CCS      A
001273: 06,6673           06661                           TC       BIASCOM                               #  IF POS THEN SUBTRACT 1 BECAUSE OF 2SCOM
001274: 06,6674           03070                           TC       CCSHOLE
001275: 06,6675           64516                           AD       ONE                                   #  IF NEG RESTORE SUM
001276: 06,6676           40000                           COM                                            #  IF NEG 0 LEAVE NEG 0
001277: 06,6677           06661                           TC       BIASCOM
001278:
001279: 06,6700           20117        SETAUG             INDEX    MPAC       +2                         #  LOADS SFTEMP1 AND SFTEMP2 WITH THE
001280: 06,6701           36737                           CAF      DEGTAB2                               #  DP AUGMENTER CONSTANT
001281: 06,6702           50111                           TS       SFTEMP2
001282: 06,6703           20117                           INDEX    MPAC       +2
001283: 06,6704           36734                           CAF      DEGTAB1
001284: 06,6705           50110                           TS       SFTEMP1
001285: 06,6706           00001                           TC       Q
001286:
001287: 06,6707           30001        FIXRANGE           XCH      Q                                     #  IF MPAC IS + RETURN TO L+1
001288: 06,6710           50106                           TS       WDRET                                 #  IF MPAC IS - RETURN TO L+2 AFTER
001289: 06,6711           10115                           CCS      MPAC                                  #  MASKING OUT THE SIGN BIT
001290: 06,6712           00106                           TC       WDRET
001291: 06,6713           00106                           TC       WDRET
001292: 06,6714           06715                           TC       +1
001293: 06,6715           44500                           CS       BIT15
001294: 06,6716           70115                           MASK     MPAC
001295: 06,6717           50115                           TS       MPAC
001296: 06,6720           20106                           INDEX    WDRET
001297: 06,6721           00001                           TC       1
001298:
001299: 06,6722           20117        DEGCOM             INDEX    MPAC       +2                         #  LOADS MULTIPLIER, DOES SHORTMP, AND
001300: 06,6723           36737                           CAF      DEGTAB2                               #  ADDS AUGMENTER.
001301: 06,6724           50116                           TS       MPAC       +1
001302: 06,6725           20117                           INDEX    MPAC       +2
001303: 06,6726           36734                           CAF      DEGTAB1
001304: 06,6727           30115                           XCH      MPAC                                  #  ADJUSTED ANGLE IN A
001305: 06,6730           05416                           TC       SHORTMP
001306: 06,6731           05171                           TC       DAD
001307: 06,6732           00110                           ADRES    SFTEMP1
001308: 06,6733           06750                           TC       SCOUTEND
001309:
001310:
001311:
001312: 06,6734           05605        DEGTAB1            OCT      05605                                 #  HIGH PART OF  .18
001313: 06,6735           02702                           OCT      02702                                 #                .09
001314: 06,6736           16314                           OCT      16314                                 #  .45
001315:
001316: 06,6737           03656        DEGTAB2            OCT      03656                                 #  LOW PART OF   .18
001317: 06,6740           21727                           OCT      21727                                 #                .09
001318: 06,6741           31463                           OCT      31463                                 #  .45
001319:
001320: 06,6742           16040        20BIAS             OCT      16040                                 #  20 DEG BIAS FOR OPTICS
001321:
001322: 06,6743           30111        ARTOUTSF           XCH      SFTEMP2                               #  ASSUMES POINT AT LEFT OF DP SFCON.
001323: 06,6744           50116                           TS       MPAC       +1
001324: 06,6745           30110                           XCH      SFTEMP1                               #  HI PART OF SFCONSTANT
001325: 06,6746           30115                           XCH      MPAC
001326: 06,6747           05416                           TC       SHORTMP
001327: 06,6750           05720        SCOUTEND           TC       POSTJUMP
001328: 06,6751           16542                           CADR     DSPDCEND
001329:
001330: 06,6752           06764        DP1OUTSF           TC       DPOUT                                 #  SCALES MPAC, MPAC +1 BY DP SCALE FACTOR
001331: 06,6753           30117                           XCH      MPAC       +2                         #  IN SFTEMP1, SFTEMP2.  THEN SCALE RESULT
001332: 06,6754           30116                           XCH      MPAC       +1                         #  BY B14.
001333: 06,6755           50115                           TS       MPAC
001334: 06,6756           06750                           TC       SCOUTEND
001335:
001336:
001337:
001338: 06,6757           06764        DP2OUTSF           TC       DPOUT                                 #  SCALES MPAC, MPAC +1 BY DP SCALE FACTOR
001339: 06,6760           06750                           TC       SCOUTEND
001340:
001341:
001342:
001343: 06,6761           06764        DP3OUTSF           TC       DPOUT                                 #  ASSUMES POINT BETWEEN BITS 7-8 OF HIGH
001344: 06,6762           07224                           TC       TPLEFT7                               #  PART OF SFCON. SHIFTS RESULTS LEFT 7.
001345: 06,6763           06750                           TC       SCOUTEND
001346:
001347:
001348:
001349:                                                                                                  #  DPOUT PICKS UP FRESH DATA FOR BOTH HI AND LO COMPONENTS.
001350:                                                                                                  #  THIS IS NEEDED FOR TIME DISPLAY.
001351:
001352: 06,6764           30001        DPOUT              XCH      Q
001353: 06,6765           50122                           TS       OVFIND
001354: 06,6766           20107                           INDEX    MIXBR
001355: 06,6767           06767                           TC       +0
001356: 06,6770           07025                           TC       DPOUTNOR
001357: 06,6771           20063                           INDEX    DECOUNT
001358: 06,6772           40056                           CS       IDAD1TEM                              #  GET IDADDTAB ENTRY FOR COMPONENT K
001359: 06,6773           40000                           CS       A                                     #  OF NOUN.
001360: 06,6774           74606                           MASK     LOW10                                 #  E SUBK
001361: 06,6775           50117        DPOUTCOM           TS       MPAC       +2
001362: 06,6776           20017                           INHINT
001363: 06,6777           20117                           INDEX    MPAC       +2
001364: 06,7000           40000                           CS       0                                     #  MIXED         NORMAL
001365: 06,7001           40000                           COM                                            #  C(ESUBK)      C(E)
001366: 06,7002           30115                           XCH      MPAC
001367: 06,7003           20117                           INDEX    MPAC       +2
001368: 06,7004           40001                           CS       1                                     #  C((E SUBK)+1) C(E+1)
001369: 06,7005           20016                           RELINT
001370: 06,7006           40000                           COM
001371: 06,7007           30116                           XCH      MPAC       +1
001372: 06,7010           10116                           CCS      MPAC       +1                         #  TEST IF LOW PART +0 IN CASE PICKING UP
001373: 06,7011           07014                           TC       +3                                    #  TIME, IF SO COULD HAVE OVFLOD, SO GET
001374: 06,7012           07021                           TC       +0CASE                                #  UP TO DATE HIGH PART. IF NOT +0, NO
001375: 06,7013           07014                           TC       +1                                    #  PROBLEM.
001376: 06,7014           05157        +0RET              TC       DMP
001377: 06,7015           50107                           XCADR    SFTEMP1
001378: 06,7016           05654                           TC       BANKCALL
001379: 06,7017           07154                           CADR     TPAGREE
001380: 06,7020           00122                           TC       OVFIND
001381:
001382: 06,7021           20117        +0CASE             INDEX    MPAC       +2
001383: 06,7022           60000                           AD       0
001384: 06,7023           30115                           XCH      MPAC
001385: 06,7024           07014                           TC       +0RET
001386:
001387: 06,7025           40624        DPOUTNOR           CS       NOUNADD
001388: 06,7026           40000                           CS       A                                     #  E
001389: 06,7027           06775                           TC       DPOUTCOM
001390:
001391:                                                                                                  #  THIS IS A SPECIAL PURPOSE VERB FOR DISPLAYING A DOUBLE PRECISION AGC
001392:                                                                                                  #  WORD AS 10 DECIMAL DIGITS ON THE AGC DISPLAY PANEL.  IT CAN BE USED WITH
001393:                                                                                                  #  ANY NOUN, EXCEPT MIXED NOUNS. IT DISPLAYS THE CONTENTS
001394:                                                                                                  #  OF THE REGISTER NOUNADD IS POINTING TO.  IF USED WITH NOUNS WHICH ARE
001395:                                                                                                  #  INHERENTLY NOT DP SUCH AS THE CDU COUNTERS THE DISPLAY WILL BE GARBAGE.
001396:                                                                                                  #  DISPLAY IS IN R1 AND R2 ONLY WITH THE SIGN IN R1.
001397:
001398:
001399:
001400: 06,7030           20107        DSPDPDEC           INDEX    MIXBR
001401: 06,7031           07031                           TC       +0
001402: 06,7032           07034                           TC       +2                                    #  NORMAL NOUN
001403: 06,7033           07453                           TC       DSPALARM
001404: 06,7034           20624                           INDEX    NOUNADD
001405: 06,7035           40000                           CS       0
001406: 06,7036           40000                           COM
001407: 06,7037           30115                           XCH      MPAC                                  #  LOAD MPAC WITH HIGH ORDER PART
001408: 06,7040           20624                           INDEX    NOUNADD
001409: 06,7041           40001                           CS       1
001410: 06,7042           40000                           COM
001411: 06,7043           30116                           XCH      MPAC       +1                         #  LOAD MPAC+1 WITH LOW ORDER PART
001412: 06,7044           33177                           CAF      R1D1
001413: 06,7045           50614                           TS       DSPCOUNT
001414: 06,7046           35501                           CAF      ZERO
001415: 06,7047           50117                           TS       MPAC       +2
001416: 06,7050           05654                           TC       BANKCALL
001417: 06,7051           07154                           CADR     TPAGREE
001418: 06,7052           07326                           TC       DSP2DEC
001419: 06,7053           00065        ENDDPDEC           TC       ENTEXIT
001420:
001421:
001422:                                                                                                  #        LOAD VERBS
001423:
001424:
001425:
001426: 07,6564                                           SETLOC   ENDRTOUT
001427:
001428: 07,6564           45503        ABCLOAD            CS       TWO
001429: 07,6565           06430                           TC       COMPTEST
001430: 07,6566           36715                           CAF      VBSP1LD
001431: 07,6567           06345                           TC       UPDATVB    -1
001432: 07,6570           06274                           TC       REQDATX
001433: 07,6571           36716                           CAF      VBSP2LD
001434: 07,6572           06345                           TC       UPDATVB    -1
001435: 07,6573           06300                           TC       REQDATY
001436: 07,6574           36717                           CAF      VBSP3LD
001437: 07,6575           06345                           TC       UPDATVB    -1
001438: 07,6576           06304                           TC       REQDATZ
001439:
001440:
001441:
001442: 07,6577           44475        PUTXYZ             CS       SIX                                   #  TEST THAT THE 3 DATA WORDS LOADED ARE
001443: 07,6600           06720                           TC       ALLDC/OC                              #  ALL DEC OR ALL OCT.
001444: 07,6601           36107                           CAF      LODNNLOC                              #  SWITCH BANKS TO NOUN TABLE READING
001445: 07,6602           05662                           TC       SWCALL                                #  ROUTINE.
001446: 07,6603           35501                           CAF      ZERO                                  #  X COMP
001447: 07,6604           07000                           TC       PUTCOM
001448: 07,6605           20624                           INDEX    NOUNADD
001449: 07,6606           50000                           TS       0
001450: 07,6607           34516                           CAF      ONE                                   #  Y COMP
001451: 07,6610           07000                           TC       PUTCOM
001452: 07,6611           20624                           INDEX    NOUNADD
001453: 07,6612           50001                           TS       1
001454: 07,6613           35503                           CAF      TWO                                   #  Z COMP
001455: 07,6614           07000                           TC       PUTCOM
001456: 07,6615           20624                           INDEX    NOUNADD
001457: 07,6616           50002                           TS       2
001458: 07,6617           06705                           TC       LOADLV
001459:
001460: 07,6620           44516        ABLOAD             CS       ONE
001461: 07,6621           06430                           TC       COMPTEST
001462: 07,6622           36715                           CAF      VBSP1LD
001463: 07,6623           06345                           TC       UPDATVB    -1
001464: 07,6624           06274                           TC       REQDATX
001465: 07,6625           36716                           CAF      VBSP2LD
001466: 07,6626           06345                           TC       UPDATVB    -1
001467: 07,6627           06300                           TC       REQDATY
001468: 07,6630           44477        PUTXY              CS       FIVE                                  #  TEST THAT THE 2 DATA WORDS LOADED ARE
001469: 07,6631           06720                           TC       ALLDC/OC                              #  ALL DEC OR ALL OCT.
001470: 07,6632           36107                           CAF      LODNNLOC                              #  SWITCH BANKS TO NOUN TABLE READING
001471: 07,6633           05662                           TC       SWCALL                                #  ROUTINE.
001472: 07,6634           35501                           CAF      ZERO                                  #  X COMP
001473: 07,6635           07000                           TC       PUTCOM
001474: 07,6636           20624                           INDEX    NOUNADD
001475: 07,6637           50000                           TS       0
001476: 07,6640           34516                           CAF      ONE                                   #  Y COMP
001477: 07,6641           07000                           TC       PUTCOM
001478: 07,6642           20624                           INDEX    NOUNADD
001479: 07,6643           50001                           TS       1
001480: 07,6644           06705                           TC       LOADLV
001481:
001482: 07,6645           06274        ALOAD              TC       REQDATX
001483: 07,6646           36107                           CAF      LODNNLOC                              #  SWITCH BANKS TO NOUN TABLE READING
001484: 07,6647           05662                           TC       SWCALL                                #  ROUTINE.
001485: 07,6650           35501                           CAF      ZERO                                  #  X COMP
001486: 07,6651           07000                           TC       PUTCOM
001487: 07,6652           20624                           INDEX    NOUNADD
001488: 07,6653           50000                           TS       0
001489: 07,6654           06705                           TC       LOADLV
001490:
001491: 07,6655           44516        BLOAD              CS       ONE
001492: 07,6656           06430                           TC       COMPTEST
001493: 07,6657           34500                           CAF      BIT15                                 #  SET CLPASS FOR PASS0 ONLY
001494: 07,6660           50633                           TS       CLPASS
001495: 07,6661           06300                           TC       REQDATY
001496: 07,6662           36107                           CAF      LODNNLOC                              #  SWITCH BANKS TO NOUN TABLE READING
001497: 07,6663           05662                           TC       SWCALL                                #  ROUTINE.
001498: 07,6664           34516                           CAF      ONE
001499: 07,6665           07000                           TC       PUTCOM
001500: 07,6666           20624                           INDEX    NOUNADD
001501: 07,6667           50001                           TS       1
001502: 07,6670           06705                           TC       LOADLV
001503:
001504: 07,6671           45503        CLOAD              CS       TWO
001505: 07,6672           06430                           TC       COMPTEST
001506: 07,6673           34500                           CAF      BIT15                                 #  SET CLPASS FOR PASS0 ONLY
001507: 07,6674           50633                           TS       CLPASS
001508: 07,6675           06304                           TC       REQDATZ
001509: 07,6676           36107                           CAF      LODNNLOC                              #  SWITCH BANKS TO NOUN TABLE READING
001510: 07,6677           05662                           TC       SWCALL                                #  ROUTINE.
001511: 07,6700           35503                           CAF      TWO
001512: 07,6701           07000                           TC       PUTCOM
001513: 07,6702           20624                           INDEX    NOUNADD
001514: 07,6703           50002                           TS       2
001515: 07,6704           06705                           TC       LOADLV
001516:
001517: 07,6705           35501        LOADLV             CAF      ZERO
001518: 07,6706           50615                           TS       DECBRNCH
001519: 07,6707           45501                           CS       ZERO
001520: 07,6710           50632                           TS       LOADSTAT
001521: 07,6711           43235                           CS       VD1                                   #  TO BLOCK NUMERICAL CHARACTERS AND
001522: 07,6712           50614                           TS       DSPCOUNT                              #  CLEARS AFTER A COMPLETED LOAD
001523: 07,6713           05720                           TC       POSTJUMP                              #  AFTER COMPLETED LOAD, GO TO RECALTST
001524: 07,6714           15611                           CADR     RECALTST                              #  TO SEE IF THERE IS RECALL FROM ENDIDLE.
001525:
001526: 07,6715           00021        VBSP1LD            OCT      21                                    #  VB21 = ALOAD
001527: 07,6716           00022        VBSP2LD            OCT      22                                    #  VB22 = BLOAD
001528: 07,6717           00023        VBSP3LD            OCT      23                                    #  VB23 = CLOAD
001529:
001530:
001531:
001532: 07,6720           50063        ALLDC/OC           TS       DECOUNT                               #  TESTS THAT DATA WORDS LOADED ARE EITHER
001533: 07,6721           30001                           XCH      Q                                     #  ALL DEC OR ALL OCT. ALARMS IF NOT.
001534: 07,6722           50106                           TS       DECRET
001535: 07,6723           40615                           CS       DECBRNCH
001536: 07,6724           50021                           TS       SR
001537: 07,6725           40021                           CS       SR
001538: 07,6726           40021                           CS       SR                                    #  SHIFTED RIGHT 2
001539: 07,6727           10000                           CCS      A                                     #  DEC COMP BITS IN LOW 3
001540: 07,6730           06732                           TC       +2                                    #  SOME ONES IN LOW 3
001541: 07,6731           00106                           TC       DECRET                                #  ALL ZEROS. ALL OCTAL.  OK
001542: 07,6732           60063                           AD       DECOUNT                               #  DEC COMP = 7 FOR 3COMP, =6 FOR 2COMP
001543: 07,6733           10000                           CCS      A                                     #  (BUT IT HAS BEEN DECREMENTED BY CCS)
001544: 07,6734           06356                           TC       GODSPALM                              #  MUST MATCH 6 FOR 3COMP, 5 FOR 2COMP.
001545: 07,6735           03070                           TC       CCSHOLE
001546: 07,6736           06356                           TC       GODSPALM
001547: 07,6737           00106                           TC       DECRET                                #  ALL REQUIRED ARE DEC. OK
001548:
001549:
001550:
001551: 07,6740           30001        SFRUTNOR           XCH      Q                                     #  GETS SF ROUTINE NUMBER FOR NORMAL CASE
001552: 07,6741           50112                           TS       EXITEM
001553: 07,6742           33227                           CAF      MID5
001554: 07,6743           70055                           MASK     NNTYPTEM
001555: 07,6744           03202                           TC       RIGHT5
001556: 07,6745           00112                           TC       EXITEM                                #  SF ROUTINE NUMBER IN A
001557:
001558: 07,6746           30001        SFRUTMIX           XCH      Q                                     #  GETS SF ROUTINE NUMBER FOR MIXED CASE
001559: 07,6747           50112                           TS       EXITEM
001560: 07,6750           20063                           INDEX    DECOUNT
001561: 07,6751           40056                           CS       IDAD1TEM                              #  GET IDADDTAB ENTRY FOR COMPONENT K
001562: 07,6752           40000                           CS       A                                     #  OF NOUN.
001563: 07,6753           72261                           MASK     HI5
001564: 07,6754           03211                           TC       LEFT5
001565: 07,6755           00112                           TC       EXITEM                                #  SF ROUTINE NUMBER IN A
001566:
001567: 07,6756           30001        SFCONUM            XCH      Q                                     #  GETS SF CONSTANT NUMBER
001568: 07,6757           50112                           TS       EXITEM
001569: 07,6760           20107                           INDEX    MIXBR
001570: 07,6761           06761                           TC       +0
001571: 07,6762           06775                           TC       CONUMNOR                              #  NORMAL NOUN
001572: 07,6763           20063                           INDEX    DECOUNT                               #  MIXED NOUN
001573: 07,6764           33226                           CAF      LOW5
001574: 07,6765           70055                           MASK     NNTYPTEM
001575: 07,6766           20063                           INDEX    DECOUNT
001576: 07,6767           26772                           INDEX    DISPLACE
001577: 07,6770           00000                           TC       0
001578:                                                                                                  #  DO TC SFRET (DECOUNT=0),DO TC RIGHT5(DECOUNT=1), DO TC LEFT5 (DECOUNT=2)
001579: 07,6771           00112        SFRET              TC       EXITEM                                #  SF CON NUMBER IN A
001580:
001581: 07,6772           06771        DISPLACE           TC       SFRET
001582: 07,6773           03202                           TC       RIGHT5
001583: 07,6774           03211                           TC       LEFT5
001584:
001585: 07,6775           33226        CONUMNOR           CAF      LOW5                                  #  NORMAL NOUN ALWAYS GETS LOW 5 OF
001586: 07,6776           70055                           MASK     NNTYPTEM
001587: 07,6777           00112                           TC       EXITEM
001588:
001589:
001590:
001591: 07,7000           50063        PUTCOM             TS       DECOUNT
001592: 07,7001           30001                           XCH      Q
001593: 07,7002           50106                           TS       DECRET
001594: 07,7003           35501                           CAF      ZERO
001595: 07,7004           50122                           TS       OVFIND
001596: 07,7005           20063                           INDEX    DECOUNT
001597: 07,7006           30607                           XCH      XREGLP
001598: 07,7007           50116                           TS       MPAC       +1
001599: 07,7010           20063                           INDEX    DECOUNT
001600: 07,7011           30604                           XCH      XREG
001601: 07,7012           50115                           TS       MPAC
001602: 07,7013           20107                           INDEX    MIXBR
001603: 07,7014           07014                           TC       +0
001604: 07,7015           07043                           TC       PUTNORM                               #  NORMAL NOUN
001605:                                                                                                  #  IF MIXNOUN, PLACE ADDRESS FOR COMPONENT K INTO NOUNADD
001606: 07,7016           20063                           INDEX    DECOUNT
001607: 07,7017           40056                           CS       IDAD1TEM                              #  GET IDADDTAB ENTRY FOR COMPONENT K
001608: 07,7020           40000                           CS       A                                     #  OF NOUN.
001609: 07,7021           74606                           MASK     LOW10                                 #  EK    FOR CURRENT NOUN
001610: 07,7022           25777                           EXTEND
001611: 07,7023           60063                           SU       DECOUNT
001612: 07,7024           50624                           TS       NOUNADD                               #  PLACE (E SUB K) - K INTO NOUNADD
001613: 07,7025           10615                           CCS      DECBRNCH
001614: 07,7026           07055                           TC       PUTDECSF                              #  +  DEC
001615: 07,7027           06746                           TC       SFRUTMIX                              #  +0 OCTAL
001616: 07,7030           06255                           TC       DPTEST
001617: 07,7031           07053                           TC       PUTCOM2                               #  NO DP
001618:                                                                                                  #  TEST FOR DP SCALE FOR OCT LOAD. IF SO,
001619:                                                                                                  #  +0 INTO MAJOR PART. SET NOUNADD FOR
001620:                                                                                                  #  LOADING OCTAL WORD INTO MINOR PART.
001621: 07,7032           34516        PUTDPCOM           CAF      ONE                                   #  DP
001622: 07,7033           60624                           AD       NOUNADD
001623: 07,7034           50624                           TS       NOUNADD                               #  (ESUBK)-K+1  OR  E+1
001624: 07,7035           60063                           AD       DECOUNT                               #  NOUNADD NOW SET FOR MINOR PART
001625: 07,7036           50063                           TS       DECOUNT                               #  (ESUBK)+1  OR  E+1  INTO DECOUNT
001626: 07,7037           35501                           CAF      ZERO                                  #  NOUNADD SET FOR MINOR PART
001627: 07,7040           20063                           INDEX    DECOUNT
001628: 07,7041           47777                           TS       0          -1                         #  ZERO MAJOR PART(ESUBK OR E)
001629: 07,7042           07053                           TC       PUTCOM2
001630:
001631: 07,7043           10615        PUTNORM            CCS      DECBRNCH
001632: 07,7044           07055                           TC       PUTDECSF                              #  +  DEC
001633: 07,7045           06740                           TC       SFRUTNOR                              #  +0  OCTAL
001634: 07,7046           06255                           TC       DPTEST
001635: 07,7047           07053                           TC       PUTCOM2                               #  NO DP
001636: 07,7050           35501                           CAF      ZERO
001637: 07,7051           50063                           TS       DECOUNT
001638: 07,7052           07032                           TC       PUTDPCOM
001639:
001640: 07,7053           30115        PUTCOM2            XCH      MPAC
001641: 07,7054           00106                           TC       DECRET
001642:
001643:                                                                                                  #  PUTDECSF FINDS MIXBR AND DECOUNT STILL SET FROM PUTCOM
001644:
001645: 07,7055           06756        PUTDECSF           TC       SFCONUM                               #  SF CON NUMB IN A
001646: 07,7056           50111                           TS       SFTEMP2
001647: 07,7057           05654                           TC       BANKCALL                              #  SWITCH BANKS TO SF CONSTANT READING
001648: 07,7060           13335                           CADR     GTSFIN                                #  ROUTINE. LOADS SFTEMP1, SFTEMP2.
001649: 07,7061           20107                           INDEX    MIXBR
001650: 07,7062           07062                           TC       +0
001651: 07,7063           07066                           TC       PUTSFNOR
001652: 07,7064           06746                           TC       SFRUTMIX
001653: 07,7065           07067                           TC       PUTDCSF2
001654: 07,7066           06740        PUTSFNOR           TC       SFRUTNOR
001655:
001656: 07,7067           20000        PUTDCSF2           INDEX    A
001657: 07,7070           37072                           CAF      SFINTABR
001658: 07,7071           05723                           TC       BANKJUMP                              #  SWITCH BANKS FOR EXPANSHION ROOM
001659: 07,7072           15453        SFINTABR           CADR     DSPALARM                              #  ALARM IF DEC LOAD WITH OCTAL ONLY NOUN
001660: 07,7073           15140                           CADR     BINROUND
001661: 07,7074           15054                           CADR     DEGINSF
001662: 07,7075           15127                           CADR     ARTHINSF
001663: 07,7076           15172                           CADR     DPINSF
001664: 07,7077           15220                           CADR     DPINSF2
001665: 07,7100           15143                           CADR     OPTDEGIN
001666: 07,7101           15172                           CADR     DPINSF                                #  SAME AS ARITHDP1
001667: 07,7102                        ENDRUTIN           EQUALS
001668:
001669:
001670:
001671:                                                                                                  #  SCALE FACTORS FOR THOSE ROUTINES NEEDING THEM ARE AVAILABLE IN SFTEMP1.
001672:                                                                                                  #  ALL SFIN ROUTINES USE MPAC MPAC+1. LEAVE RESULT IN A. END WITH TC DECRET
001673:
001674:
001675:
001676: 06,7054                                           SETLOC   ENDDPDEC   +1
001677:
001678:                                                                                                  #  DEGINSF APPLIES 1000/180 * 5.55555(10) = 5.43434(8)
001679:
001680: 06,7054           05157        DEGINSF            TC       DMP                                   #  SF ROUTINE FOR DEC DEGREES
001681: 06,7055           57121                           XCADR    DEGCON1                               #  MULT BY 5.5  5(10)X2/-3
001682: 06,7056           10116                           CCS      MPAC       +1                         #  THIS ROUNDS OFF MPAC+1 BEFORE SHIFT
001683: 06,7057           34504                           CAF      BIT11                                 #  LEFT 3, AND CAUSES 360.00 TO OF/UF
001684: 06,7060           07062                           TC       +2                                    #  WHEN SHIFTED LEFT AND ALARM.
001685: 06,7061           44504                           CS       BIT11
001686: 06,7062           60116                           AD       MPAC       +1
001687: 06,7063           07237                           TC       2ROUND     +2
001688: 06,7064           05654                           TC       BANKCALL                              #  LEFT 1
001689: 06,7065           06367                           CADR     SL1        +3
001690: 06,7066           05654        DEGINSF2           TC       BANKCALL                              #  LEFT 2
001691: 06,7067           06367                           CADR     SL1        +3
001692: 06,7070           07246                           TC       TESTOFUF
001693: 06,7071           05654                           TC       BANKCALL                              #  RETURNS IF NO OF/UF
001694: 06,7072           06367                           CADR     SL1        +3                         #  LEFT 3
001695: 06,7073           10115                           CCS      MPAC
001696: 06,7074           07100                           TC       SIGNFIX                               #  IF +, GO TO SIGNFIX
001697: 06,7075           07100                           TC       SIGNFIX                               #  IF +0, GO TO SIGNFIX
001698: 06,7076           40000                           COM                                            #  IF - , USE -MAGNITUDE +1
001699: 06,7077           50115                           TS       MPAC                                  #  IF -0, USE +0
001700: 06,7100           10122        SIGNFIX            CCS      OVFIND
001701: 06,7101           07116                           TC       SGNTO1                                #  IF OVERFLOW
001702: 06,7102           07112                           TC       ENDSCALE                              #  NO OVERFLOW/UNDERFLOW
001703: 06,7103           10115                           CCS      MPAC                                  #  IF UF FORCE SIGN TO 0 EXCEPT -180
001704: 06,7104           03070                           TC       CCSHOLE
001705: 06,7105           07114                           TC       NEG180
001706: 06,7106           07107                           TC       +1
001707: 06,7107           30115                           XCH      MPAC
001708: 06,7110           74476                           MASK     POSMAX
001709: 06,7111           50115                           TS       MPAC
001710: 06,7112           05720        ENDSCALE           TC       POSTJUMP
001711: 06,7113           17053                           CADR     PUTCOM2
001712:
001713: 06,7114           44476        NEG180             CS       POSMAX
001714: 06,7115           07111                           TC       ENDSCALE   -1
001715:
001716: 06,7116           40115        SGNTO1             CS       MPAC                                  #  IF OF FORCE SIGN TO 1
001717: 06,7117           74476                           MASK     POSMAX
001718: 06,7120           40000                           CS       A
001719: 06,7121           07111                           TC       ENDSCALE   -1
001720:
001721: 06,7122           26161 30707  DEGCON1            2DEC     5.555555555 B-3
001722: 06,7124           21616 07071  DEGCON2            2DEC     2.222222222 B-2
001723: 06,7126           71527        NEG.2              OCT      -06250                                #  = .197753906  I.E. THE BIAS SCALED
001724:
001725: 06,7127           05157        ARTHINSF           TC       DMP                                   #  SCALES MPAC, +1 BY SFTEMP1, SFTEMP2.
001726: 06,7130           50107                           XCADR    SFTEMP1                               #  ASSUMES POINT BETWEEN HI AND LO PARTS
001727: 06,7131           30117                           XCH      MPAC       +2                         #  OF SFCON. SHIFTS RESULTS LEFT BY 14.
001728: 06,7132           30116                           XCH      MPAC       +1                         #  (BY TAKING RESULTS FROM MPAC+1, MPAC+2)
001729: 06,7133           30115                           XCH      MPAC
001730: 06,7134           10000                           CCS      A
001731: 06,7135           07453                           TC       DSPALARM                              #  TOO LARGE A LOAD
001732: 06,7136           07140                           TC       BINROUND
001733: 06,7137           07453                           TC       DSPALARM                              #  TOO LARGE A LOAD
001734: 06,7140           07235        BINROUND           TC       2ROUND
001735: 06,7141           07246                           TC       TESTOFUF
001736: 06,7142           07112                           TC       ENDSCALE                              #  RETURNS IF NO OF/UF
001737:
001738:
001739:
001740: 06,7143           10115        OPTDEGIN           CCS      MPAC                                  #  OPTICS SCALING ROUTINE
001741: 06,7144           07150                           TC       +4
001742: 06,7145           07150                           TC       +3
001743: 06,7146           07453                           TC       DSPALARM                              #  REJECT - INPUT. ALARM
001744: 06,7147           07453                           TC       DSPALARM                              #  DITTO
001745:
001746: 06,7150           34502                           CAF      BIT13
001747: 06,7151           70730                           MASK     WASOPSET
001748: 06,7152           10000                           CCS      A
001749: 06,7153           07161                           TC       OPDEGIN2
001750: 06,7154           05157                           TC       DMP                                   #  RANGE IS 180 DEG
001751: 06,7155           57121                           XCADR    DEGCON1
001752: 06,7156           05654                           TC       BANKCALL
001753: 06,7157           06367                           CADR     SL1        +3
001754: 06,7160           07056                           TC       DEGINSF    +2
001755:
001756:
001757: 06,7161           30115        OPDEGIN2           XCH      MPAC                                  #  RANGE IS 90 DEG
001758: 06,7162           67126                           AD       NEG.2                                 #  SUBTRACT BIAS
001759: 06,7163           50115                           TS       MPAC
001760: 06,7164           05157                           TC       DMP                                   #  MULT BY 100 / 45  B-2
001761: 06,7165           57123                           XCADR    DEGCON2
001762: 06,7166           34503                           CAF      BIT12                                 #  ROUND AS IN DEGINSF
001763: 06,7167           60116                           AD       MPAC       +1
001764: 06,7170           07237                           TC       2ROUND     +2
001765: 06,7171           07066                           TC       DEGINSF2
001766:
001767: 06,7172           05157        DPINSF             TC       DMP                                   #  SCALES MPAC, MPAC +1 BY SFTEMP1,
001768: 06,7173           50107                           XCADR    SFTEMP1                               #  SFTEMP2.  STORES LOW PART OF RESULT
001769: 06,7174           30117                           XCH      MPAC       +2                         #  IN (E SUBK) +1 OR E+1
001770: 06,7175           60000                           DOUBLE
001771: 06,7176           50117                           TS       MPAC       +2
001772: 06,7177           35501                           CAF      ZERO
001773: 06,7200           60116                           AD       MPAC       +1
001774: 06,7201           07237                           TC       2ROUND     +2
001775: 06,7202           07246                           TC       TESTOFUF
001776: 06,7203           20107                           INDEX    MIXBR                                 #  RETURNS IF NO OF/UF
001777: 06,7204           07204                           TC       +0
001778: 06,7205           07216                           TC       DPINORM
001779: 06,7206           30063                           XCH      DECOUNT                               #  MIXEDNOUN
001780: 06,7207           50063                           TS       DECOUNT
001781: 06,7210           60624        DPINCOM            AD       NOUNADD                               #      MIXED               NORMAL
001782: 06,7211           50001                           TS       Q                                     #    E SUBK            E
001783: 06,7212           30116                           XCH      MPAC       +1
001784: 06,7213           20001                           INDEX    Q
001785: 06,7214           50001                           TS       1                                     #  PLACE LOW PART IN
001786: 06,7215           07112                           TC       ENDSCALE                              #  (E SUBK) +1    MIXED
001787: 06,7216           35501        DPINORM            CAF      ZERO                                  #  E +1         NORMAL
001788: 06,7217           07210                           TC       DPINCOM
001789:
001790:
001791:
001792: 06,7220           05157        DPINSF2            TC       DMP                                   #  ASSUMES POINT BETWEEN BITS 7-8 OF HIGH
001793: 06,7221           50107                           XCADR    SFTEMP1                               #  PART OF SF CONST. DPINSF2 SHIFTS RESULTS
001794: 06,7222           07224                           TC       TPLEFT7                               #  LEFT BY 7, ROUNDS MPAC+2 INTO MPAC+1.
001795: 06,7223           07174                           TC       DPINSF     +2
001796:
001797: 06,7224           30001        TPLEFT7            XCH      Q                                     #  OPERATES ON MPAC, MPAC+1, MPAC+2
001798: 06,7225           50111                           TS       SFTEMP2
001799: 06,7226           34475                           CAF      SIX                                   #  LEFT BY 7
001800: 06,7227           50110        LEFT7COM           TS       SFTEMP1
001801: 06,7230           05654                           TC       BANKCALL
001802: 06,7231           06364                           CADR     SL1
001803: 06,7232           10110                           CCS      SFTEMP1
001804: 06,7233           07227                           TC       LEFT7COM
001805: 06,7234           00111                           TC       SFTEMP2
001806:
001807:
001808:
001809: 06,7235           30116        2ROUND             XCH      MPAC       +1
001810: 06,7236           60000                           DOUBLE
001811: 06,7237           50116                           TS       MPAC       +1
001812: 06,7240           00001                           TC       Q                                     #  IF MPAC+1 DOES NOT OF/UF
001813: 06,7241           60115                           AD       MPAC
001814: 06,7242           50115                           TS       MPAC
001815: 06,7243           00001                           TC       Q                                     #  IF MPAC DOES NOT OF/UF
001816: 06,7244           50122                           TS       OVFIND
001817: 06,7245           00001        2RNDEND            TC       Q
001818:
001819:
001820:
001821: 06,7246           10122        TESTOFUF           CCS      OVFIND                                #  RETURNS IF NO OF/UF
001822: 06,7247           07453                           TC       DSPALARM                              #  OF
001823: 06,7250           00001                           TC       Q
001824: 06,7251           07453                           TC       DSPALARM                              #  UF
001825:
001826:
001827:                                                                                                  #  MONITOR ALLOWS OTHER KEYBOARD ACTIVITY. IT IS ENDED BY VERB TERMINATE,
001828:                                                                                                  #  ANY NVSUB CALL THAT PASSES THE DSPLOCK, OR ANOTHER MONITOR.
001829:
001830:                                                                                                  #  MONITOR ACTION IS SUSPENDED, BUT NOT ENDED, BY ANY KEYBOARD ACTION,
001831:                                                                                                  #  EXCEPT ERROR LIGHT RESET. IT BEGINS AGAIN WHEN KEY RELEASE IS PERFORMED.
001832:                                                                                                  #  MONITOR SAVES THE NOUN AND APPROPRIATE DISPLAY VERB IN MONSAVE. IT SAVES
001833:                                                                                                  #  NOUNADD IN MONSAVE1, IF NOUN = MACHINE ADDRESS TO BE SPECIFIED. BIT 15 OF
001834:                                                                                                  #  MONSAVE1 IS THE KILL MONITOR SIGNAL (KILLER BIT).
001835:
001836:                                                                                                  #  MONSAVE INDICATES IF MONITOR IS ON (+=ON, +0=OFF)
001837:                                                                                                  #  IF MONSAVE IS +, MONITOR ENTERS NO REQUEST, BUT TURNS KILLER BIT OFF.
001838:                                                                                                  #  IF MONSAVE IS +0, MONITOR ENTERS REQUEST AND TURNS KILLER BIT OFF.
001839:
001840:                                                                                                  #  NVSUB AND VB=TERMINATE TURN KILL MONITOR BIT ON.
001841:
001842:                                                                                                  #  IF KILLER BIT IS ON, MONREQ ENTERS NO FURTHER REQUESTS, ZEROS MONSAVE
001843:                                                                                                  #  AND MONSAVE1 (TURNING OFF KILLER BIT).
001844:
001845:
001846:
001847:                                                                                                  #  MONITOR DOSENT TEST FOR MATBS SINCE NVSUB CAN HANDLE INTERNAL MATBS NOW
001848:
001849: 07,7102                                           SETLOC   ENDRUTIN
001850:
001851: 07,7102           44500        MONITOR            CS       BIT15
001852: 07,7103           70624                           MASK     NOUNADD
001853: 07,7104           50116        MONIT1             TS       MPAC       +1                         #  TEMP STORAGE
001854: 07,7105           37420                           CAF      LOW6
001855: 07,7106           70602                           MASK     VERBREG
001856: 07,7107           03211                           TC       LEFT5
001857: 07,7110           50022                           TS       CYL
001858: 07,7111           30022                           XCH      CYL
001859: 07,7112           60603                           AD       NOUNREG
001860: 07,7113           50115                           TS       MPAC                                  #  TEMP STORAGE
001861: 07,7114           40630                           CS       GRABLOCK                              #  NEITHER CASE SEARCHES LIST.
001862: 07,7115           65503                           AD       TWO
001863: 07,7116           10000                           CCS      A
001864: 07,7117           03364                           TC       RELDSP1                               #  GRABLOCK=0,1. +0 INTO DSPLOCK AND
001865: 07,7120           07123                           TC       +3                                    #  TURN OFF KEY RLSE LIGHT.
001866: 07,7121           03070                           TC       CCSHOLE
001867: 07,7122           03265                           TC       DSPLOCK0                              #  GRABLOCK=2. +0 INTO DSPLOCK (BIT4 OF
001868:                                                                                                  #  STATE) AND LEAVE KEY RELEASE LIGHT ALONE
001869: 07,7123           20017                           INHINT
001870: 07,7124           10625                           CCS      MONSAVE
001871: 07,7125           07131                           TC       +4                                    #  IF MONSAVE WAS +, NO REQUEST
001872: 07,7126           34516                           CAF      ONE                                   #  IF MONSAVE WAS 0, REQUEST MONREQ
001873: 07,7127           02173                           TC       WAITLIST
001874: 07,7130           17137                           CADR     MONREQ
001875: 07,7131           30115                           XCH      MPAC
001876: 07,7132           50625                           TS       MONSAVE                               #  PLACE MONITOR VERB AND NOUN INTO MONSAVE
001877: 07,7133           30116                           XCH      MPAC       +1
001878: 07,7134           50626                           TS       MONSAVE1                              #  ZERO THE KILL MONITOR BIT
001879: 07,7135           20016                           RELINT
001880: 07,7136           00065                           TC       ENTRET
001881:
001882:
001883:
001884: 07,7137           02700        MONREQ             TC       READTIME   +1                         #  CALLED BY WAITLIST
001885: 07,7140           02737                           TC       LODSAMPT                              #  TIME IS SNATCHED IN RUPT FOR NOUN 65
001886: 07,7141           10626                           CCS      MONSAVE1
001887: 07,7142           07146                           TC       +4                                    #  IF KILLER BIT = 0, ENTER REQUESTS
001888: 07,7143           07146                           TC       +3                                    #  IF KILLER BIT = 0, ENTER REQUESTS
001889: 07,7144           07155                           TC       KILLMON                               #  IF KILLER BIT = 1, NO REQUESTS
001890: 07,7145           07155                           TC       KILLMON                               #  IF KILLER BIT = 1, NO REQUESTS
001891: 07,7146           37161                           CAF      MONDEL
001892: 07,7147           02173                           TC       WAITLIST                              #  ENTER WAITLIST REQUEST FOR MONREQ
001893: 07,7150           17137                           CADR     MONREQ
001894: 07,7151           32164                           CAF      PRIO31
001895: 07,7152           02052                           TC       NOVAC                                 #  ENTER EXEC REQUEST FOR MONDO
001896: 07,7153           17162                           CADR     MONDO
001897: 07,7154           02256                           TC       TASKOVER
001898:
001899: 07,7155           35501        KILLMON            CAF      ZERO                                  #  ZERO MONSAVE AND TURN KILLER BIT OFF
001900: 07,7156           50625                           TS       MONSAVE
001901: 07,7157           50626                           TS       MONSAVE1                              #  TURN OFF KILL MONITOR BIT.
001902: 07,7160           02256                           TC       TASKOVER
001903:
001904:
001905:
001906: 07,7161           00144        MONDEL             OCT      144                                   #  FOR 1 SEC MONITOR INTERVALS
001907:
001908:
001909:
001910: 07,7162           10626        MONDO              CCS      MONSAVE1                              #  CALLED BY EXEC
001911: 07,7163           07167                           TC       +4                                    #  IF KILLER BIT = 0, CONTINUE
001912: 07,7164           07167                           TC       +3                                    #  IF KILLER BIT = 0, CONTINUE
001913: 07,7165           02124                           TC       ENDOFJOB                              #  IN CASE TERMINATE CAME SINCE LAST MONREQ
001914: 07,7166           02124                           TC       ENDOFJOB                              #  IN CASE TERMINATE CAME SINCE LAST MONREQ
001915: 07,7167           03302                           TC       TSTDSPLK                              #  PERFORMS CCS DSPLOCK
001916: 07,7170           07214                           TC       MONBUSY                               #  NVSUB IS BUSY
001917: 07,7171           37420                           CAF      LOW6                                  #  NVSUB IS AVAILABLE
001918: 07,7172           70625                           MASK     MONSAVE
001919: 07,7173           50110                           TS       NVTEMP
001920: 07,7174           03127                           TC       NVSUBMON                              #  PLACE NOUN INTO NOUNREG AND DISPLAY IT
001921: 07,7175           02124                           TC       ENDOFJOB                              #  IN CASE OF ALARM DURING DISPLAY
001922: 07,7176           37212                           CAF      MONMASK
001923: 07,7177           70625                           MASK     MONSAVE                               #  CHANGE MONITOR VERB TO DISPLAY VERB
001924: 07,7200           03202                           TC       RIGHT5
001925: 07,7201           50020                           TS       CYR
001926: 07,7202           30020                           XCH      CYR
001927: 07,7203           50602                           TS       VERBREG
001928: 07,7204           37213                           CAF      MONBACK                               #  SET RETURN TO PASTEVB AFTER DATA DISPLAY
001929: 07,7205           50065                           TS       ENTRET
001930: 07,7206           44500                           CS       BIT15
001931: 07,7207           70626                           MASK     MONSAVE1
001932: 07,7210           50624                           TS       NOUNADD
001933: 07,7211           06046        ENDMONDO           TC       TESTNN
001934:
001935:    3077                                           SETLOC   ENDFAILF
001936:    3077           33105        PASTEVB            CAF      MIDSIX
001937:    3100           70625                           MASK     MONSAVE
001938:    3101           50110                           TS       NVTEMP                                #  PLACE MONITOR VERB INTO VERBREG AND
001939:    3102           03127                           TC       NVSUBMON                              #        DISPLAY IT.
001940:    3103           03104                           TC       +1                                    #  IN CASE OF ALARM DURING DISPLAY
001941:    3104           02124        ENDPASTE           TC       ENDOFJOB
001942:
001943:    3105           07700        MIDSIX             OCT      07700
001944:
001945: 07,7212                                           SETLOC   ENDMONDO   +1
001946: 07,7212           00700        MONMASK            OCT      700
001947: 07,7213           03077        MONBACK            ADRES    PASTEVB
001948:
001949: 07,7214           03256        MONBUSY            TC       RELDSPON                              #  TURN KEY RELEASE LIGHT
001950: 07,7215           02124                           TC       ENDOFJOB
001951:
001952:                                                                                                  #  DSPBANK IS USED TO DISPLAY (IN OCTAL) ANY FIXED REGISTER IN BANK.
001953:                                                                                                  #  IT IS USED WITH NOUN = MACHINE ADDRESS TO BE SPECIFIED. THE CADR OF THE
001954:                                                                                                  #  DESIRED LOCATION IS THEN PUNCHED IN.
001955:
001956: 07,7216           33177        DSPBANK            CAF      R1D1
001957: 07,7217           50614                           TS       DSPCOUNT
001958: 07,7220           40624                           CS       NOUNADD
001959: 07,7221           40000                           CS       A
001960: 07,7222           05730                           TC       DATACALL
001961: 07,7223           07225                           TC       DSPOCTWD
001962: 07,7224           02124                           TC       ENDOFJOB
001963:
001964:
001965:
001966: 06,7252                                           SETLOC   TESTOFUF   +4
001967:
001968:                                                                                                  #   DSPDECWD CONVERTS C(MPAC) AND C(MPAC +1)TO A SIGN AND 5 CHAR DECIMAL
001969:                                                                                                  #  STARTING IN LOC SPECIFIED IN DSPCOUNT
001970:
001971: 06,7252           30001        DSPDECWD           XCH      Q                                     #  USES SHORTMP THROUGHOUT
001972: 06,7253           50106                           TS       WDRET
001973: 06,7254           10115                           CCS      MPAC
001974: 06,7255           07264                           TC       +7
001975: 06,7256           07264                           TC       +6
001976: 06,7257           64516                           AD       ONE
001977: 06,7260           50115                           TS       MPAC
001978: 06,7261           06342                           TC       -ON
001979: 06,7262           40116                           CS       MPAC       +1
001980: 06,7263           07266                           TC       +3
001981: 06,7264           06321                           TC       +ON
001982: 06,7265           30116                           XCH      MPAC       +1
001983: 06,7266           67325                           AD       DECROUND
001984: 06,7267           50116                           TS       MPAC       +1
001985: 06,7270           35501                           CAF      ZERO
001986: 06,7271           60115                           AD       MPAC
001987: 06,7272           50115                           TS       MPAC
001988: 06,7273           07277                           TC       +4
001989: 06,7274           34476                           CAF      POSMAX
001990: 06,7275           50115                           TS       MPAC
001991: 06,7276           50116                           TS       MPAC       +1
001992: 06,7277           35502                           CAF      FOUR
001993: 06,7300           50076        DSPDCWD1           TS       WDCNT
001994: 06,7301           33240                           CAF      BINCON
001995: 06,7302           05416                           TC       SHORTMP
001996: 06,7303           20115        TRACE1             INDEX    MPAC
001997: 06,7304           32650                           CAF      RELTAB
001998: 06,7305           73226                           MASK     LOW5
001999: 06,7306           50111                           TS       CODE
002000: 06,7307           35501                           CAF      ZERO
002001: 06,7310           30117                           XCH      MPAC       +2
002002: 06,7311           30116                           XCH      MPAC       +1
002003: 06,7312           50115                           TS       MPAC
002004: 06,7313           30614                           XCH      DSPCOUNT
002005: 06,7314           50104        TRACE1S            TS       COUNT
002006: 06,7315           10000                           CCS      A                                     #  DECREMENT DSPCOUNT EXCEPT AT +0
002007: 06,7316           50614                           TS       DSPCOUNT
002008: 06,7317           07352                           TC       DSPIN
002009: 06,7320           10076                           CCS      WDCNT
002010: 06,7321           07300                           TC       DSPDCWD1
002011: 06,7322           43235                           CS       VD1
002012: 06,7323           50614                           TS       DSPCOUNT
002013: 06,7324           00106                           TC       WDRET
002014:
002015: 06,7325           02476        DECROUND           OCT      02476
002016:
002017:
002018:
002019:                                                                                                  #  DSP2DEC CONVERTS C(MPAC) AND C(MPAC+1) INTO A SIGN AND 10 CHAR DECIMAL
002020:                                                                                                  #  STARTING IN THE LOC SPECIFIED IN DSPCOUNT.
002021:
002022: 06,7326           30001        DSP2DEC            XCH      Q
002023: 06,7327           50106                           TS       WDRET
002024: 06,7330           35501                           CAF      ZERO
002025: 06,7331           50111                           TS       CODE
002026: 06,7332           34473                           CAF      THREE
002027: 06,7333           07437                           TC       11DSPIN                               #  -R2 OFF
002028: 06,7334           35502                           CAF      FOUR
002029: 06,7335           07437                           TC       11DSPIN                               #  +R2 OFF
002030: 06,7336           10115                           CCS      MPAC
002031: 06,7337           07347                           TC       +8D
002032: 06,7340           07347                           TC       +7
002033: 06,7341           64516                           AD       ONE
002034: 06,7342           50115                           TS       MPAC
002035: 06,7343           06342                           TC       -ON
002036: 06,7344           40116                           CS       MPAC       +1
002037: 06,7345           50116                           TS       MPAC       +1
002038: 06,7346           07350                           TC       +2
002039: 06,7347           06321                           TC       +ON
002040: 06,7350           33200                           CAF      R2D1
002041: 06,7351           07300        END2DEC            TC       DSPDCWD1
002042:
002043:
002044:
002045: 07,7225                                           SETLOC   DSPBANK    +7
002046:
002047:                                                                                                  #  DSPOCTWD DISPLAYS C(A) UPON ENTRY AS A 5 CHAR OCT STARTING IN THE DSP
002048:                                                                                                  #  CHAR SPECIFIED IN DSPCOUNT. IT STOPS AFTER 5 CHAR HAVE BEEN DISPLAYED.
002049:
002050: 07,7225           50022        DSPOCTWD           TS       CYL
002051: 07,7226           30001                           XCH      Q
002052: 07,7227           50106                           TS       WDRET
002053: 07,7230           30614                           XCH      DSPCOUNT
002054: 07,7231           64501                           AD       BIT14                                 #  TO BLANK SIGNS
002055: 07,7232           50614                           TS       DSPCOUNT
002056: 07,7233           35502                           CAF      FOUR
002057: 07,7234           50076        WDAGAIN            TS       WDCNT
002058: 07,7235           40022                           CS       CYL
002059: 07,7236           40022                           CS       CYL
002060: 07,7237           40022                           CS       CYL
002061: 07,7240           40000                           CS       A
002062: 07,7241           75362                           MASK     DSPMSK
002063: 07,7242           20000                           INDEX    A
002064: 07,7243           32650                           CAF      RELTAB
002065: 07,7244           73226                           MASK     LOW5
002066: 07,7245           50111                           TS       CODE
002067: 07,7246           30614                           XCH      DSPCOUNT
002068: 07,7247           50104                           TS       COUNT
002069: 07,7250           10000                           CCS      A                                     #  DECREMENT DSPCOUNT EXCEPT AT +0
002070: 07,7251           50614                           TS       DSPCOUNT
002071: 07,7252           05720                           TC       POSTJUMP
002072: 07,7253           15445                           CADR     DSPOCTIN
002073: 07,7254           10076        OCTBACK            CCS      WDCNT
002074: 07,7255           07234                           TC       WDAGAIN                               #  +
002075: 07,7256           43235        DSPLV              CS       VD1                                   #  TO BLOCK NUMERICAL CHARACTERS, CLEARS,
002076: 07,7257           50614                           TS       DSPCOUNT                              #  AND SIGNS AFTER A COMPLETED DISPLAY.
002077: 07,7260           00106                           TC       WDRET
002078:
002079: 07,7261     5362               DSPMSK             =        SEVEN
002080:
002081:
002082:
002083:                                                                                                  #  DSP2BIT DISPLAYS C(A) UPON ENTRY AS A 2 CHAR OCT BEGINNING IN THE DSP
002084:                                                                                                  #  LOC SPECIFIED IN DSPCOUNT BY PRE CYCLING RIGHT C(A) AND USING THE LOGIC
002085:                                                                                                  #  OF THE 5 CHAR OCTAL DISPLAY
002086:
002087: 07,7261           50020        DSP2BIT            TS       CYR
002088: 07,7262           30001                           XCH      Q
002089: 07,7263           50106                           TS       WDRET
002090: 07,7264           34516                           CAF      ONE
002091: 07,7265           50076                           TS       WDCNT
002092: 07,7266           40020                           CS       CYR
002093: 07,7267           40020                           CS       CYR
002094: 07,7270           30020                           XCH      CYR
002095: 07,7271           50022                           TS       CYL
002096: 07,7272           07241                           TC       WDAGAIN    +5
002097:
002098:
002099:
002100:                                                                                                  #  FOR DSPIN PLACE 0/25 OCT INTO COUNT, 5 BIT RELAY CODE INTO CODE. BOTH
002101:                                                                                                  #  ARE DESTROYED. IF BIT14 OF COUNT IS 1, SIGN IS BLANKED WITH LEFT CHAR.
002102:                                                                                                  #  FOR DSPIN1 PLACE 0,1 INTO BIT11 OF CODE, 2 INTO COUNT, REL ADDRESS OF
002103:                                                                                                  #  DSPTAB ENTRY INTO DSREL.
002104:
002105: 06,7352                                           SETLOC   END2DEC    +1
002106:
002107: 06,7352           30001        DSPIN              XCH      Q
002108: 06,7353           50112                           TS       DSEXIT
002109: 06,7354           33226                           CAF      LOW5
002110: 06,7355           70104                           MASK     COUNT
002111: 06,7356           50021                           TS       SR
002112: 06,7357           30021                           XCH      SR
002113: 06,7360           50102                           TS       DSREL
002114: 06,7361           34516                           CAF      BIT1
002115: 06,7362           70104                           MASK     COUNT
002116: 06,7363           10000                           CCS      A
002117: 06,7364           07366                           TC       +2                                    #  LEFT IF COUNT IS ODD
002118: 06,7365           07376                           TC       DSPIN1     -1                         #  RIGHT IF COUNT IS EVEN
002119: 06,7366           30111                           XCH      CODE
002120: 06,7367           03220                           TC       SLEFT5                                #  DOES NOT USE CYL
002121: 06,7370           50111                           TS       CODE
002122: 06,7371           34501                           CAF      BIT14
002123: 06,7372           70104                           MASK     COUNT
002124: 06,7373           10000                           CCS      A
002125: 06,7374           35503                           CAF      TWO                                   #  BIT14 = 1, BLANK SIGN
002126: 06,7375           64516                           AD       ONE                                   #  BIT14 = 0, LEAVE SIGN ALONE
002127: 06,7376           50104                           TS       COUNT                                 #  +0 INTO COUNT FOR RIGHT
002128:                                                                                                  #  +1 INTO COUNT FOR LEFT (SIGN LEFT ALONE)
002129:                                                                                                  #  +3 INTO COUNT FOR LEFT (TO BLANK SIGN)
002130: 06,7377           20017        DSPIN1             INHINT
002131: 06,7400           20102                           INDEX    DSREL
002132: 06,7401           10710                           CCS      DSPTAB
002133: 06,7402           07404                           TC       +2                                    #  IF +
002134: 06,7403           03070                           TC       CCSHOLE
002135: 06,7404           64516                           AD       ONE                                   #  IF-
002136: 06,7405           50103                           TS       DSMAG
002137: 06,7406           20104                           INDEX    COUNT
002138: 06,7407           77433                           MASK     DSMSK
002139: 06,7410           25777                           EXTEND
002140: 06,7411           60111                           SU       CODE
002141: 06,7412           10000                           CCS      A
002142: 06,7413           07417                           TC       DFRNT                                 #  IF+
002143: 06,7414           03070                           TC       CCSHOLE
002144: 06,7415           07417                           TC       DFRNT                                 #  IF-
002145: 06,7416           07431                           TC       DSLV                                  #  IF -0
002146: 06,7417           20104        DFRNT              INDEX    COUNT
002147: 06,7420           47433                           CS       DSMSK                                 #  MASK WITH 77740,76037, OR 75777
002148: 06,7421           70103                           MASK     DSMAG
002149: 06,7422           60111                           AD       CODE
002150: 06,7423           40000                           CS       A
002151: 06,7424           20102                           INDEX    DSREL
002152: 06,7425           30710                           XCH      DSPTAB
002153: 06,7426           10000                           CCS      A
002154: 06,7427           06632                           TC       INCNOUT
002155: 06,7430           03070                           TC       CCSHOLE
002156: 06,7431           20016        DSLV               RELINT
002157: 06,7432           00112                           TC       DSEXIT
002158:
002159: 06,7433           00037        DSMSK              OCT      37
002160: 06,7434           01740                           OCT      1740
002161: 06,7435           02000                           OCT      2000
002162: 06,7436           03740                           OCT      3740
002163:
002164:
002165:
002166:                                                                                                  #  FOR 11DSPIN, PUT REL ADDRESSS OF DSPTAB ENTRY INTO A, 1 IN BIT11 OR 0 IN
002167:                                                                                                  #  BIT11 OF CODE.
002168:
002169: 06,7437           50102        11DSPIN            TS       DSREL
002170: 06,7440           35503                           CAF      TWO
002171: 06,7441           50104                           TS       COUNT
002172: 06,7442           30001                           XCH      Q
002173: 06,7443           50112                           TS       DSEXIT
002174: 06,7444           07377                           TC       DSPIN1
002175:
002176: 06,7445           07352        DSPOCTIN           TC       DSPIN                                 #  SO DSPOCTWD DOESNT USE SWCALL
002177: 06,7446           37450                           CAF      +2
002178: 06,7447           05723                           TC       BANKJUMP
002179: 06,7450           17254        ENDSPOCT           CADR     OCTBACK
002180:
002181:
002182:
002183:                                                                                                  #  DSPALARM FINDS TC NVSUBEND IN ENTRET FOR NVSUB INITIATED ROUTINES.
002184:                                                                                                  #  ABORT WITH OCT 01501.
002185:                                                                                                  #  DSPALARM FINDS TC ENDOFJOB IN ENTRET FOR KEYBOARD INITIATED ROUTINES.
002186:                                                                                                  #  DO TC ENTRET.
002187:
002188: 06,7451           33155        CHARALRM           CAF      ENDINST                               #  ALARMS WHICH MUST DO ENDOFJOBS COME
002189: 06,7452           50065                           TS       ENTRET                                #  HERE. ALLOWS ENTRET TO BE TEMP ERASABLE
002190:
002191: 06,7453           03241        DSPALARM           TC       FALTON                                #  TURN ON CHECK FAIL LIGHT.
002192: 06,7454           47460                           CS       NVSBENDL
002193: 06,7455           60065                           AD       ENTEXIT
002194: 06,7456           10000                           CCS      A
002195: 06,7457           00065                           TC       ENTEXIT                               #  NOT NVSUB INITIATED.
002196: 06,7460           03133        NVSBENDL           TC       NVSUBEND
002197: 06,7461           00065                           TC       ENTEXIT                               #  NOT NVSUB INITIATED.
002198: 06,7462           03052                           TC       ABORT                                 #  NVSUB INITIATED.
002199: 06,7463           01501                           OCT      01501
002200:
002201:
002202:
002203: 06,7464           34504        FLASHON1           CAF      BIT11                                 #  GETS HERE THRU FLASHON(STANDARD LEAD IN)
002204: 06,7465           50111                           TS       CODE
002205: 06,7466           37475                           CAF      FLASHLOC
002206: 06,7467           50102                           TS       DSREL
002207: 06,7470           35503                           CAF      TWO
002208: 06,7471           50104                           TS       COUNT
002209: 06,7472           07377                           TC       DSPIN1
002210: 06,7473           35501        FLASHOF1           CAF      ZERO                                  #  GETS HERE THRU FLASHOFF(STANDARD LEAD IN
002211: 06,7474           07465                           TC       FLASHON1   +1
002212: 06,7475           00011        FLASHLOC           OCT      11
002213:
002214:
002215:
002216:                                                                                                  #  MMCHANG USES NOUN DISPLAY UNTIL ENTER. THEN IT USES MODE DISP.
002217:                                                                                                  #  IT GOES TO MODROUT WITH THE NEW M M CODE IN A, BUT NOT DISPLAYED IN
002218:                                                                                                  #  MM LIGHTS.
002219:
002220: 07,7273                                           SETLOC   DSP2BIT    +10D
002221:
002222: 07,7273           07306        MMCHANG            TC       REQMM
002223: 07,7274           35501                           CAF      ZERO
002224: 07,7275           30603                           XCH      NOUNREG
002225: 07,7276           50115                           TS       MPAC
002226: 07,7277           33236                           CAF      ND1
002227: 07,7300           50614                           TS       DSPCOUNT
002228: 07,7301           05654                           TC       BANKCALL
002229: 07,7302           14613                           CADR     2BLANK
002230: 07,7303           30115                           XCH      MPAC
002231: 07,7304           05720                           TC       POSTJUMP
002232: 07,7305           10002                           CADR     MODROUTB                              #  GO THRU STANDARD LOC.
002233:
002234:
002235:
002236: 07,7306           40001        REQMM              CS       Q
002237: 07,7307           50613                           TS       REQRET
002238: 07,7310           33236                           CAF      ND1
002239: 07,7311           50614                           TS       DSPCOUNT
002240: 07,7312           35501                           CAF      ZERO
002241: 07,7313           50603                           TS       NOUNREG
002242: 07,7314           05654                           TC       BANKCALL
002243: 07,7315           14613                           CADR     2BLANK
002244: 07,7316           05654                           TC       BANKCALL
002245: 07,7317           14000                           CADR     FLASHON
002246: 07,7320           00065                           TC       ENTEXIT
002247:
002248:
002249:
002250:                                                                                                  #  VBRQEXEC ENTERS REQUEST TO EXEC     FOR ANY ADDRESS WITH ANY PRIORITY.
002251:                                                                                                  #  IT DOES ENDOFJOB AFTER ENTERING REQUEST.ASSUMES PRIO  PRELOADED INTO
002252:                                                                                                  #  BITS 10-14 OF FIRST REGISTER OF TEMP AREA, WITH BIT1=0 FOR NOVAC, BIT1
002253:                                                                                                  #  =1 FOR FINDVAC). THE VERB IS USED WITH NOUN=MACHINE ADDRESS TO BE
002254:                                                                                                  #  SPECIFIED. CADR JOBADDR IS PUNCHED IN. DISPLAY SYST IS RELEASED.
002255:
002256: 07,7321           33155        VBRQEXEC           CAF      ENDINST
002257: 07,7322           50075                           TS       PROGREG    +2
002258: 07,7323           03331                           TC       RELDSP
002259: 07,7324           34516                           CAF      BIT1
002260: 07,7325           70616                           MASK     DSPTEM1                               #  ********
002261: 07,7326           10000                           CCS      A
002262: 07,7327           07340                           TC       SETVAC                                #  IF BIT1 =1, FINDVAC
002263: 07,7330           33231                           CAF      TCNOVAC                               #  IF BIT1 =0, NOVAC
002264: 07,7331           50073        REQEX1             TS       PROGREG                               #  TC NOVAC OR TC FINDVAC INTO PROGREG
002265: 07,7332           30624                           XCH      NOUNADD
002266: 07,7333           50074                           TS       PROGREG    +1                         #  CADR JOBADDR INTO PROGREG +1
002267: 07,7334           44516                           CS       BIT1
002268: 07,7335           70616                           MASK     DSPTEM1                               #  *******
002269: 07,7336           20017                           INHINT
002270: 07,7337           00073                           TC       PROGREG
002271:
002272: 07,7340           33234        SETVAC             CAF      TCFINDVC
002273: 07,7341           07331                           TC       REQEX1
002274:
002275:                                                                                                  #  VBRQWAIT ENTERS REQUEST TO WAITLIST FOR ANY ADDRESS WITH ANY DELAY.
002276:                                                                                                  #  IT DOES ENDOFJOB AFTER ENTERING REQUEST.ASSUMES DELAY PRELOADED IN FIRST
002277:                                                                                                  #  REGISTER OF TEMP AREA. THE VERB IS USED WITH NOUN= MACHINE ADDRESS TO
002278:                                                                                                  #  BE SPECIFIED. CADR TASKADDR IS PUNCHED IN. DISPLAY SYST IS RELEASED.
002279:
002280: 07,7342           33155        VBRQWAIT           CAF      ENDINST
002281: 07,7343           50075                           TS       PROGREG    +2                         #  TC ENDOFJOB INTO PROGREG+2
002282: 07,7344           03331                           TC       RELDSP
002283: 07,7345           33232                           CAF      TCWAIT
002284: 07,7346           50073                           TS       PROGREG                               #  TC WAITLIST INTO PROGREG
002285: 07,7347           30624                           XCH      NOUNADD
002286: 07,7350           50074                           TS       PROGREG    +1                         #  CADR TASKADDR INTO PROGREG+1
002287: 07,7351           20017                           INHINT
002288: 07,7352           30616                           XCH      DSPTEM1                               #  DELTA T IN A
002289: 07,7353           00073        ENDRQWT            TC       PROGREG
002290:
002291:
002292:
002293: 06,7476                                           SETLOC   FLASHLOC   +1
002294: 06,7476           34516        VBPROC             CAF      ONE                                   #  PROCEED WITHOUT DATA
002295: 06,7477           50632                           TS       LOADSTAT
002296: 06,7500           03331                           TC       RELDSP
002297: 06,7501           06003                           TC       FLASHOFF
002298: 06,7502           07611                           TC       RECALTST                              #  SEE IF THERE IS ANY RECALL FROM ENDIDLE
002299:
002300:
002301:
002302: 06,7503           03135        VBTERM             TC       KILMONON                              #  TURN ON KILL MONITOR BIT
002303: 06,7504           44516                           CS       ONE
002304: 06,7505           07477                           TC       VBPROC     +1                         #  TERM VERB SETS LOADSTAT NEG
002305:
002306:
002307:                                                                                                  #  FLASH IS TURNED OFF ONLY BY PROCEED WITHOUT DATA, TERMINATE, END OF LOAD
002308:
002309:
002310:                                                                                                  #  VBRELDSP TURNS OFF RELEASE DISPLAY SYSTEM LIGHT(AND SEARCHES LIST ONLY
002311:                                                                                                  #  IF THIS LIGHT WAS TURNED ON BY NVSUBUSY), AND TURNS OFF UPACT LIGHT.
002312:
002313: 06,7506           35501        VBRELDSP           CAF      ZERO                                  #  RELEASE DISPLAY SYST
002314: 06,7507           50111                           TS       CODE                                  #  TURN OFF UPACT LIGHT
002315: 06,7510           35362                           CAF      SEVEN
002316: 06,7511           07437                           TC       11DSPIN
002317: 06,7512           03331                           TC       RELDSP                                #  SEARCHES LIST
002318: 06,7513           02124                           TC       ENDOFJOB
002319:
002320:
002321:
002322:                                                                                                  #  BUMP SHIFTS WORD DISPLAYED IN R2 TO R3, R1 TO R2. IT BLANKS R1.
002323:
002324: 06,7514           34477        BUMP               CAF      FIVE                                  #  R2D5
002325: 06,7515           50614                           TS       DSPCOUNT
002326: 06,7516           50104                           TS       COUNT
002327: 06,7517           34516                           CAF      ONE                                   #  SHIFT DATA OF R2 TO R3, R1 TO R2
002328: 06,7520           70104                           MASK     COUNT
002329: 06,7521           30104                           XCH      COUNT                                 #  +0 INTO COUNT IF EVEN (RIGHT)
002330: 06,7522           50021                           TS       SR                                    #  +1 INTO COUNT IF ODD (LEFT)
002331: 06,7523           30021                           XCH      SR                                    #  DSREL IN A
002332: 06,7524           20000                           INDEX    A
002333: 06,7525           10710                           CCS      DSPTAB
002334: 06,7526           07530                           TC       +2
002335: 06,7527           03070                           TC       CCSHOLE
002336: 06,7530           64516                           AD       ONE                                   #  DSMAG IN A
002337: 06,7531           20104                           INDEX    COUNT
002338: 06,7532           77433                           MASK     DSMSK
002339: 06,7533           20104                           INDEX    COUNT
002340: 06,7534           07535                           TC       +1
002341: 06,7535           07537                           TC       +2                                    #  EVEN(RIGHT)  OK
002342: 06,7536           03202                           TC       RIGHT5                                #  ODD(LEFT)  SHIFT RIGHT
002343: 06,7537           50111                           TS       CODE
002344: 06,7540           44477                           CS       FIVE
002345: 06,7541           60614                           AD       DSPCOUNT                              #  DSPCOUNT-5
002346: 06,7542           10000                           CCS      A                                     #  TO PREVENT -0
002347: 06,7543           64516                           AD       ONE
002348: 06,7544           07546                           TC       +2
002349: 06,7545           03070                           TC       CCSHOLE
002350: 06,7546           50104                           TS       COUNT
002351: 06,7547           07352                           TC       DSPIN                                 #  CODE ALREADY IN CODE
002352: 06,7550           40614                           CS       DSPCOUNT
002353: 06,7551           63177                           AD       R1D1                                  #  OCT 16
002354: 06,7552           10000                           CCS      A
002355: 06,7553           30614                           XCH      DSPCOUNT                              #  +, DSPCOUNT L/ OCT 16
002356: 06,7554           64516                           AD       ONE                                   #  INCREMENT DSPCOUNT
002357: 06,7555           07515                           TC       BUMP       +1
002358:
002359: 06,7556           35501        SWSGN              CAF      ZERO                                  #  -0, DSPCOUNT= OCT 16. DO SIGN SHIFT
002360: 06,7557           50614                           TS       DSPCOUNT
002361: 06,7560           67607                           AD       SWTAB      +2                         #  OCT 3
002362: 06,7561           20000                           INDEX    A                                     #  PICKUP ORDER , DSREL=3,4,5,6.
002363: 06,7562           10710                           CCS      DSPTAB                                #                   (-R2,+R2,-R1,+R1)
002364: 06,7563           07565                           TC       +2
002365: 06,7564           03070                           TC       CCSHOLE
002366: 06,7565           64516                           AD       ONE
002367: 06,7566           74504                           MASK     BIT11
002368: 06,7567           50111                           TS       CODE
002369: 06,7570           20614                           INDEX    DSPCOUNT
002370: 06,7571           37605                           CAF      SWTAB                                 #  PUT AWAY ORDER, DSREL= 0,1,3,4.
002371: 06,7572           07437                           TC       11DSPIN                               #                   (-R3,+R3,-R2,+R2.)
002372: 06,7573           40614                           CS       DSPCOUNT
002373: 06,7574           67607                           AD       SWTAB      +2                         #  OCT 3
002374: 06,7575           10000                           CCS      A
002375: 06,7576           30614                           XCH      DSPCOUNT                              #  +, DSPCOUNT L/ 3
002376: 06,7577           64516                           AD       ONE                                   #  INCREMENT DSPCOUNT
002377: 06,7600           07557                           TC       SWSGN      +1
002378: 06,7601           33177                           CAF      R1D1                                  #  -0,       DSPCOUNT = 3
002379: 06,7602           50614                           TS       DSPCOUNT
002380: 06,7603           06546                           TC       5BLANK                                #  BLANKS R1
002381: 06,7604           00065                           TC       ENTEXIT
002382:
002383: 06,7605           00000        SWTAB              OCT      0                                     #  -R3
002384: 06,7606           00001                           OCT      1                                     #  +R3
002385: 06,7607           00003                           OCT      3                                     #  -R2
002386: 06,7610           00004                           OCT      4                                     #  +R2
002387:
002388:
002389:
002390:                                                                                                  #  NVSUB IS USED FOR SUB ROUTINE CALLS FROM WITHIN COMPUTER. IT CAN BE
002391:                                                                                                  #  USED TO DO ANY THING THE KEYBOARD CAN CALL. PLACE  ...VVVVVVNNNNNN
002392:                                                                                                  #  INTO A.      V-S ARE 6 BIT VERB CODE. N-S , 6 BIT NOUN CODE.
002393:
002394:                                                                                                  #  NVSUB CAN BE USED WITH MACH ADDR TO BE SPEC BY PLACING THE ADDRESS IN
002395:                                                                                                  #  MPAC+2 BEFORE THE STANDARD NVSUB CALL.
002396:
002397:                                                                                                  #   NVSUB RETURNS TO 2+ CALLING LOC AFTER PERFORMING TASK, IF DISPLAY
002398:                                                                                                  #  SYSTEM IS AVAILABLE. THE NEW NOUN AND VERB CODES ARE DISPLAYED.
002399:                                                                                                  #  IF V:S =0, THE NEW NOUN CODE IS DISPLAYED ONLY(RETURN WITH NO FURTHER
002400:                                                                                                  #  ACTION). IF N-S =0, THE NEW VERB CODE IS DISPLAYED ONLY(RETURN WITH NO
002401:                                                                                                  #  FURTHER ACTION).
002402:
002403:                                                                                                  #  IT RETURNS TO 1+ CALLING LOC WITHOUT PERFORMING TASK, IF DISPLAY
002404:                                                                                                  #  SYSTEM IS BLOCKED (NOTHING IS DISPLAYED IN THIS CASE).
002405:                                                                                                  #  IT DOES TC ABORT (WITH OCT 01501) IF IT ENCOUNTERS A DISPLAY PROGRAM
002406:                                                                                                  #  ALARM CONDITION BEFORE RETURN TO CALLER.
002407:
002408:                                                                                                  #  THE DISPLAY SYSTEM IS BLOCKED BY THE DEPRESSION OF ANY
002409:                                                                                                  #  KEY, EXCEPT ERROR LIGHT RESET. ALSO BY ENDIDLE.
002410:                                                                                                  #        IT IS RELEASED BY SPECIAL VERB = RELEASE DISPLAY, ALL GO TO VERBS,
002411:                                                                                                  #  PROCEED WITHOUT DATA, TERMINATE, INITIALIZE EXECUTIVE,
002412:                                                                                                  #  RECALL PART OF RECALTST IF ENDIDLE WAS USED,
002413:                                                                                                  #  IN RECALTST IF NVSUB INITIATED LOAD AND ENDIDLE WAS NOT USED,
002414:                                                                                                  #  VB = REQUEST EXECUTIVE, VB = REQUEST WAITLIST,
002415:                                                                                                  #  MONITOR SET UP.
002416:
002417:                                                                                                  #  A NVSUB CALL THAT PASSES DSPLOCK ENDS OLD MONITOR.
002418:
002419:                                                                                                  #  DSPLOCK IS THE INTERLOCK FOR USE OF KEYBOARD AND DISPLAY SYSTEM WHICH
002420:                                                                                                  #  LOCKS OUT INTERNAL USE WHENEVER THERE IS EXTERNAL KEYBOARD ACTION.
002421:
002422:                                                                                                  #  NVSUB IN F/F PLACES 2 + CALLING CADR INTO NVSBCADR, TC NVSUBEND INTO
002423:                                                                                                  #  ENTRET. IT WILL HANDLE A CALL FROM F/F OK, BUT WILL NOT RESTORE BANKREG
002424:                                                                                                  #  TO ITS ORIGINAL CONTENTS.
002425:
002426:    3106                                           SETLOC   MIDSIX     +1
002427:    3106           50110        NVSUB              TS       NVTEMP                                #  IN FIXED FIXED
002428:    3107           34513                           CAF      BIT4
002429:    3110           70645                           MASK     DSPLOCK                               #  BIT4 OF STATE
002430:    3111           10000                           CCS      A
002431:    3112           00001                           TC       Q                                     #  DSP SYST BLOCKED. RET TO 1+ CALLING LOC
002432:    3113           30001                           XCH      Q                                     #  DSP SYST AVAILABLE
002433:    3114           64516                           AD       ONE
002434:    3115           50071                           TS       TEMQS                                 #  2+ CALLING CADR INTO TEMQS
002435:    3116           03135                           TC       KILMONON                              #  TURN ON KILL MONITOR BIT
002436:    3117           33126        NVSUBCOM           CAF      NVSUBANK
002437:    3120           30015                           XCH      BANKREG
002438:    3121           50072                           TS       BANKTEM
002439:    3122           05706                           TC       MAKECADR
002440:    3123           30062                           XCH      ADDRWD
002441:    3124           50631                           TS       NVSBCADR
002442:    3125           06000                           TC       NVSUBB                                #  GO TO NVSUB1 THRU STANDARD LOC
002443:    3126           17354        NVSUBANK           CADR     NVSUB1                                #  BANK NUMB OF NVSUB1
002444:
002445:    3127           30001        NVSUBMON           XCH      Q                                     #  MONDO COMES HERE
002446:    3130           64516                           AD       ONE
002447:    3131           50071                           TS       TEMQS
002448:    3132           03117                           TC       NVSUBCOM
002449:
002450:
002451:
002452:    3133           30631        NVSUBEND           XCH      NVSBCADR
002453:    3134           05662                           TC       SWCALL
002454:
002455:
002456:
002457: 07,7354                                           SETLOC   ENDRQWT    +1
002458: 07,7354           37373        NVSUB1             CAF      ENTSET                                #  IN BANK
002459: 07,7355           50065                           TS       ENTRET                                #  SET RETURN TO NVSUBEND
002460: 07,7356           37420                           CAF      LOW6
002461: 07,7357           70110                           MASK     NVTEMP
002462: 07,7360           50115                           TS       MPAC                                  #  TEMP STORAGE
002463: 07,7361           37421                           CAF      MID6
002464: 07,7362           70110                           MASK     NVTEMP
002465: 07,7363           03202                           TC       RIGHT5
002466: 07,7364           50020                           TS       CYR
002467: 07,7365           30020                           XCH      CYR
002468: 07,7366           50116                           TS       MPAC       +1                         #  TEMP STORAGE
002469: 07,7367           10115                           CCS      MPAC                                  #  TEST NOUN
002470: 07,7370           07374                           TC       +4                                    #  IF NOUN NOT +0, GO ON
002471: 07,7371           30116                           XCH      MPAC       +1
002472: 07,7372           06345                           TC       UPDATVB    -1                         #  IF NOUN = +0, DISPLAY VERB . THEN RETURN
002473: 07,7373           03133        ENTSET             TC       NVSUBEND
002474: 07,7374           10116                           CCS      MPAC       +1                         #  TEST VERB
002475: 07,7375           07401                           TC       +4                                    #  IF VERB NOT +0, GO ON
002476: 07,7376           30115                           XCH      MPAC
002477: 07,7377           06326                           TC       UPDATNN    -1                         #  IF VERB = +0, DISPLAY NOUN . THEN RETURN
002478: 07,7400           03133                           TC       NVSUBEND
002479: 07,7401           30116                           XCH      MPAC       +1
002480: 07,7402           06345                           TC       UPDATVB    -1                         #  IF BOTH NOUN AND VERB NOT +0, DISPLAY
002481: 07,7403           30115                           XCH      MPAC                                  #  BOTH AND GO TO ENTPAS0
002482: 07,7404           06326                           TC       UPDATNN    -1
002483: 07,7405           10054                           CCS      NNADTEM                               #  NOUN TABLES WERE READ IN UPDATNN.
002484: 07,7406           07411                           TC       +3                                    #  NORMAL
002485: 07,7407           06356                           TC       GODSPALM                              #  NOUN NOT IN USE
002486: 07,7410           07415                           TC       MATBSUB
002487: 07,7411           35501        NVSUB2             CAF      ZERO
002488: 07,7412           50632                           TS       LOADSTAT                              #  SET FOR WAITING FOR DATA CONDITION
002489: 07,7413           50633                           TS       CLPASS
002490: 07,7414           06035                           TC       ENTPAS0
002491:
002492: 07,7415           30117        MATBSUB            XCH      MPAC       +2                         #  NVSUB CALL LEFT ADDRES FOR MATBS IN
002493: 07,7416           50624                           TS       NOUNADD                               #  MPAC+2.
002494: 07,7417           07411                           TC       NVSUB2
002495:
002496:
002497:
002498: 07,7420           00077        LOW6               OCT      77
002499: 07,7421           07700        MID6               OCT      7700
002500:
002501:    3135                                           SETLOC   NVSUBEND   +2
002502:    3135           44500        KILMONON           CS       BIT15                                 #  FORCE BIT 15 OF MONSAVE1 TO 1.
002503:    3136           20017                           INHINT                                         #          THIS IS THE KILL MONITOR BIT.
002504:    3137           70626                           MASK     MONSAVE1
002505:    3140           64500                           AD       BIT15
002506:    3141           50626                           TS       MONSAVE1
002507:    3142           20016                           RELINT
002508:    3143           00001                           TC       Q
002509:
002510:
002511:
002512:                                                                                                  #  LOADSTAT  +0 INACTIVE(WAITING FOR DATA). SET BY NVSUB
002513:                                                                                                  #            +1  PROCEED NO DATA. SET BY SPECIAL VERB
002514:                                                                                                  #           -1 TERMINATE   SET BY SPECIAL VERB
002515:                                                                                                  #           -0 DATA IN   SET BY END OF LOAD ROUTINE
002516:
002517:                                                                                                  #  L  TC ENDIDLE  (FIXED FIXED)
002518:                                                                                                  #  ROUTINES THAT REQUEST LOADS THROUGH NVSUB SHOULD USE ENDIDLE WHILE
002519:                                                                                                  #  WAITING FOR THE DATA TO BE LOADED. ENDIDLE PUTS CURRENT JOB TO SLEEP.
002520:                                                                                                  #  RECALTST TESTS LOADSTAT AND WAKES JOB UP TO,
002521:                                                                                                  #  L+1 FOR TERMINATE
002522:                                                                                                  #  L+2 FOR PROCEED WITHOUT DATA
002523:                                                                                                  #  L+3 FOR DATA IN
002524:                                                                                                  #  IT DOES NOTHING     IF LOADSTAT INDICATES WAITING FOR DATA.
002525:
002526:    3144           30001        ENDIDLE            XCH      Q                                     #  NOVAC ROUTINES ENTER HERE
002527:    3145           50071                           TS       TEMQS
002528:    3146           30015                           XCH      BANKREG
002529:    3147           50072                           TS       BANKTEM
002530:    3150           05706                           TC       MAKECADR
002531:    3151           03273                           TC       DSPLOCK1                              #  MAKE DSPLOCK BUSY (BIT 4 OF STATE)
002532:    3152           30062                           XCH      ADDRWD
002533:    3153           50627                           TS       CADRSTOR
002534:    3154           02127                           TC       JOBSLEEP
002535:
002536:
002537:
002538:    3155           02124        ENDINST            TC       ENDOFJOB
002539:
002540:    3156           05777        BNKCON             OCT      5777
002541:
002542:
002543:
002544:                                                                                                  #  JAMTERM ALLOWS PROGRAMS TO PERFORM THE TERMINATE FUNCTION.
002545:                                                                                                  #  IT DOES ENDOFJOB.
002546:
002547:    3157           33540        JAMTERM            CAF      TWENTY8
002548:    3160           50613                           TS       REQRET                                #  LEAVE ENTER AT PASS 0
002549:    3161           05654                           TC       BANKCALL
002550:    3162           16345                           CADR     UPDATVB    -1                         #  DISPLAY VB 34
002551:    3163           05720                           TC       POSTJUMP
002552:    3164           15503                           CADR     VBTERM
002553:
002554:
002555:
002556:                                                                                                  #  DATAWAIT IS AN ALTERNATIVE TO ENDIDLE. IT RETURNS IMMEDIATELY IF
002557:                                                                                                  #  LOADSTAT INDICATES THAT DATA IS ALREADY IN, OR PROCEED OR TERMINATE HAS
002558:                                                                                                  #  BEEN EXECUTED. RETURN FORMAT IS SAME AS FOR ENDIDLE.
002559:                                                                                                  #  DATAWAIT SHOULD BE USED ONLY AFTER REQUESTING A LOAD VERB.
002560:
002561:    3165           30001        DATAWAIT           XCH      Q
002562:    3166           50071                           TS       TEMQS
002563:    3167           10632                           CCS      LOADSTAT
002564:    3170           03175                           TC       DATWAIT1                              #  PROCEED,RETURN TO L+2.
002565:    3171           03146                           TC       ENDIDLE    +2                         #  STILL WAITING. GO TO SLEEP.
002566:    3172           00071                           TC       TEMQS                                 #  TERMINATE. RETURN TO L+1.
002567:    3173           20071                           INDEX    TEMQS                                 #  DATA IN. RETURN TO L+3.
002568:    3174           00002                           TC       2
002569:    3175           20071        DATWAIT1           INDEX    TEMQS                                 #  RETURN TO L+2
002570:    3176           00001                           TC       1
002571:
002572:                                                                                                  #  DATAWAIT DOES NOT RELEASE DISPLAY SYST. IT IS RELEASED AT END OF NVSUB
002573:                                                                                                  #  INITIATED LOAD, IF ENDIDLE WAS NOT USED.
002574:
002575:
002576:
002577: 07,7422                                           SETLOC   MID6       +1
002578:                                                                                                  #  DSPMM  PLACE MAJOR MODE CODE INTO MODREG
002579:
002580: 07,7422           33237        DSPMM1             CAF      MD1                                   #  GETS HERE THRU DSPMM (STANDARD LEAD IN)
002581: 07,7423           30614                           XCH      DSPCOUNT                              #  SAVE DSPCOUNT
002582: 07,7424           50107                           TS       DSPMMTEM
002583: 07,7425           40612                           CS       MODREG
002584: 07,7426           40000                           CS       A
002585: 07,7427           07261                           TC       DSP2BIT
002586: 07,7430           30107                           XCH      DSPMMTEM                              #  RESTORE DSPCOUNT
002587: 07,7431           50614                           TS       DSPCOUNT
002588: 07,7432           00063        ENDSPMM1           TC       UPDATRET
002589:
002590:
002591:
002592:                                                                                                  #  RECALTST IS ENTERED DIRECTLY AFTER DATA IS
002593:                                                                                                  #  LOADED, TERMINATE VERB IS EXECUTED, OR THE PROCEED WITHOUT DATA VERB IS
002594:                                                                                                  #  EXECUTED. IT WAKES UP JOB THAT DID TC ENDIDLE.
002595:
002596:                                                                                                  #  IF NVSUB INITIATED LOAD, AND ENDIDLE WAS NOT USED, THEN IT RELEASES
002597:                                                                                                  #  DISPLAY SYST. (NEEDED FOR DATAWAIT)
002598:
002599: 06,7611                                           SETLOC   SWTAB      +4
002600:
002601: 06,7611           10627        RECALTST           CCS      CADRSTOR
002602: 06,7612           07617                           TC       RECAL1
002603: 06,7613           02124                           TC       ENDOFJOB                              #  NORMAL EXIT IF KEYBOARD INITIATED
002604: 06,7614           07617                           TC       RECAL1
002605: 06,7615           50627                           TS       CADRSTOR                              #  -0. CONCLUSION OF NVSUB INITIATED LOAD.
002606: 06,7616           07635                           TC       RECAL3                                #  +0 INTO CADRSTOR, RELEASE DISPLAY,
002607:                                                                                                  #     AND ENDOFJOB. NEEDED FOR DATAWAIT.
002608: 06,7617           35501        RECAL1             CAF      ZERO
002609: 06,7620           30627                           XCH      CADRSTOR
002610: 06,7621           20017                           INHINT
002611: 06,7622           02060                           TC       JOBWAKE
002612: 06,7623           10632                           CCS      LOADSTAT
002613: 06,7624           07641                           TC       DOPROC                                #  + PROCEED WITHOUT DATA
002614: 06,7625           02124                           TC       ENDOFJOB                              #  PATHALOGICAL CASE EXIT
002615: 06,7626           07637                           TC       DOTERM                                #  -   TERMINATE
002616: 06,7627           45503                           CS       TWO
002617: 06,7630           20601        RECAL2             INDEX    LOCCTR
002618: 06,7631           60120                           AD       LOC                                   #  LOC IS - FOR BASIC JOBS
002619: 06,7632           20601                           INDEX    LOCCTR
002620: 06,7633           50120                           TS       LOC
002621: 06,7634           20016                           RELINT
002622: 06,7635           03364        RECAL3             TC       RELDSP1                               #  DOES NOT SEARCH LIST
002623: 06,7636           02124                           TC       ENDOFJOB
002624:
002625: 06,7637           35501        DOTERM             CAF      ZERO
002626: 06,7640           07630                           TC       RECAL2
002627:
002628: 06,7641           44516        DOPROC             CS       ONE
002629: 06,7642           07630                           TC       RECAL2
002630:
002631:
002632:                                                                                                  #  THE FOLLOWING REFERS TO THE NOUN TABLES
002633:
002634:
002635:
002636: 07,7430                                           SETLOC   DSPMM1     +6
002637:
002638:                                                                                                  #  COMPONENT CODE NUMBER         INTERPRETATION
002639:
002640:                                                                                                  #  00000                         1 COMPONENT
002641:                                                                                                  #  00001                         2 COMPONENT (EACH S P)
002642:                                                                                                  #  00010                         3 COMPONENT (EACH SP)
002643:
002644:
002645:
002646:                                                                                                  #  SF ROUTINE CODE NUMBER        INTERPRETATION
002647:
002648:                                                                                                  #  00000         OCTAL ONLY
002649:                                                                                                  #  00001         STRAIGHT FRACTIONAL
002650:                                                                                                  #  00010         DEGREES (XXX.XX)
002651:                                                                                                  #  00011         ARITHMETIC SF
002652:                                                                                                  #  00100         ARITH DP1       OUT(MULT BY 2/14 AT END)        IN(STRAIGHT)
002653:                                                                                                  #  00101         ARITH DP2       OUT(STRAIGHT)                   IN(SL 7 AT END)
002654:                                                                                                  #  00110         OPTICS DEGREES(XX.XXX MAX 89.999) OR (XXX.XX MAX 179.99)
002655:                                                                                                  #  00111         ARITH DP3       OUT ( SL 7 AT END)              IN ( STRAIGHT)
002656:                                                                                                  #  END OF SF ROUTINE CODE NUMBERS
002657:
002658:
002659:
002660:                                                                                                  #  SF CONSTANT CODE NUMBER       INTERPRETATION
002661:
002662:                                                                                                  #  00000                         WHOLE
002663:                                                                                                  #  00000                         TIME SEC(XXX.XX)SAME AS WHOLE (ARITH DP1)
002664:                                                                                                  #  00001                         TIME HOURS(XXX.XX) USE ARITH DP2
002665:                                                                                                  #  00010                         DEGREES
002666:                                                                                                  #  00010                         OPTICS DEGREES
002667:                                                                                                  #  00011                         GYRO DEGREES(XX.XXX) USE ARITH DP1
002668:                                                                                                  #  00100                         GYRO BIAS DRIFT .BBXXXXX MILLIRAD/SEC
002669:                                                                                                  #  00101                         GYRO AXIS ACCEL. DRIFT
002670:                                                                                                  #                                .BBXXXXX (MILLIRAD/SEC) / (CM/SEC SEC)
002671:                                                                                                  #  00110                         PIPA BIAS X.XXXX CM/SEC SEC
002672:                                                                                                  #  00111                         PIPA SCALE FACTOR ERROR
002673:                                                                                                  #                                        XXXXX. PARTS/MILLION
002674:                                                                                                  #  01000                         POSITION(XXXX.X KILOMETERS) USE ARITHDP3
002675:                                                                                                  #  01001                         VELOCITY(XXXX.X METERS/SEC) USE ARITHDP2
002676:                                                                                                  #  01010                         TIME HOURS(XXX.XX)WEEKS INSIDE(ARITHDP2)
002677:                                                                                                  #  01011                         ELEVATION DEGREES(89.999MAX) USE ARITH
002678:                                                                                                  #  01100                         VG FOR 202 (XXXX.X MET/SEC)  USE ARITH
002679:                                                                                                  #  END OF SF CONSTANT CODE NUMBERS
002680:
002681:                                                                                                  #  FOR GREATER THAN SINGLE PRECISION SCALES, PUT ADDRESS OF MAJOR PART INTO
002682:                                                                                                  #  NOUN TABLES.
002683:                                                                                                  #  OCTAL LOADS PLACE +0 INTO MAJOR PART, DATA INTO MINOR PART.
002684:                                                                                                  #  OCTAL DISPLAYS SHOW MINOR PART ONLY.
002685:                                                                                                  #  TO GET AT BOTH MAJOR AND MINOR PARTS (IN OCTAL), USE NOUN 01.
002686:
002687:
002688:                                                                                                  #  THE FOLLOWING ROUTINES ARE FOR READING THE NOUN TABLES AND THE SF TABLES
002689:                                                                                                  #  (WHICH ARE IN A SEPARATE BANK FROM THE REST OF PINBALL). THESE READING
002690:                                                                                                  #  ROUTINES ARE IN THE SAME BANK AS THE TABLES. THEY ARE CALLED BY SWCALL.
002691:
002692:
002693:
002694:                                                                                                  #  LODNNTAB LOADS NNADTEM WITH THE NNADTAB ENTRY, NNTYPTEM WITH THE
002695:                                                                                                  #  NNTYPTAB ENTRY. IF THE NOUN IS MIXED, IDAD1TEM IS LOADED WITH THE FIRST
002696:                                                                                                  #  IDADDTAB ENTRY, IDAD2TEM THE SECOND IDADDTAB ENTRY, IDAD3TEM THE THIRD
002697:                                                                                                  #  IDADDTAB ENTRY. MIXBR IS SET FOR MIXED OR NORMAL NOUN.
002698:
002699: 05,7266                                           SETLOC   ENDEXTVS
002700: 05,7266           30001        LODNNTAB           XCH      Q
002701: 05,7267           50060                           TS       IDAD3TEM                              #  SAVE RETURN ADDRESS IN IDAD3TEM
002702: 05,7270           20603                           INDEX    NOUNREG
002703: 05,7271           37344                           CAF      NNADTAB
002704: 05,7272           50054                           TS       NNADTEM
002705: 05,7273           20603                           INDEX    NOUNREG
002706: 05,7274           37444                           CAF      NNTYPTAB
002707: 05,7275           50055                           TS       NNTYPTEM
002708: 05,7276           40603                           CS       NOUNREG
002709: 05,7277           67302                           AD       MIXCON
002710: 05,7300           10000                           CCS      A
002711: 05,7301           07323                           TC       LODNORM                               #  NOUN L/ FIRST MIXED NOUN
002712: 05,7302           00055        MIXCON             OCT      55                                    #  FIRST MIXED NOUN = 55.
002713: 05,7303           07304                           TC       +1
002714: 05,7304           35503        LODMIXNN           CAF      TWO                                   #  NOUN G/E FIRST MIXED NOUN
002715: 05,7305           50107                           TS       MIXBR
002716: 05,7306           34606                           CAF      LOW10
002717: 05,7307           70054                           MASK     NNADTEM
002718: 05,7310           50001                           TS       Q                                     #  IDADDREL INTO Q
002719: 05,7311           20000                           INDEX    A
002720: 05,7312           37630                           CAF      IDADDTAB
002721: 05,7313           50056                           TS       IDAD1TEM                              #  LOAD IDAD1TEM WITH FIRST IDADDTAB ENTRY.
002722: 05,7314           20001                           INDEX    Q
002723: 05,7315           37631                           CAF      IDADDTAB   +1
002724: 05,7316           50057                           TS       IDAD2TEM                              #  LOAD IDAD2TEM WITH 2ND IDADDTAB ENTRY.
002725: 05,7317           20001                           INDEX    Q
002726: 05,7320           37632                           CAF      IDADDTAB   +2                         #  LOAD IDAD3TEM WITH 3RD IDADDTAB ENTRY.
002727: 05,7321           30060        LODNLV             XCH      IDAD3TEM                              #  PUT RETURN ADDESS INTO A.
002728: 05,7322           00000                           TC       A
002729:
002730: 05,7323           34516        LODNORM            CAF      ONE
002731: 05,7324           50107                           TS       MIXBR
002732: 05,7325           07321                           TC       LODNLV
002733:
002734:
002735:
002736:                                                                                                  #  GTSFOUT LOADS SFTEMP1, SFTEMP2 WITH THE DP SFOUTAB ENTRIES.
002737:
002738: 05,7326           20111        GTSFOUT            INDEX    SFTEMP2                               #  SF CONUM ARRIVES IN SFTEMP2.
002739: 05,7327           37576                           CAF      SFOUTAB1
002740: 05,7330           50110                           TS       SFTEMP1
002741: 05,7331           20111                           INDEX    SFTEMP2
002742: 05,7332           37613                           CAF      SFOUTAB2
002743: 05,7333           50111                           TS       SFTEMP2
002744: 05,7334           00001                           TC       Q
002745:
002746:
002747:
002748:                                                                                                  #  GTSFIN LOADS SFTEMP1, SFTEMP2 WITH THE DP SFINTAB ENTRIES.
002749:
002750: 05,7335           20111        GTSFIN             INDEX    SFTEMP2                               #  SF CONUM ARRIVES IN SFTEMP2.
002751: 05,7336           37544                           CAF      SFINTAB1
002752: 05,7337           50110                           TS       SFTEMP1
002753: 05,7340           20111                           INDEX    SFTEMP2
002754: 05,7341           37561                           CAF      SFINTAB2
002755: 05,7342           50111                           TS       SFTEMP2
002756: 05,7343           00001                           TC       Q
002757:
002758:
002759:
002760:                                                                                                  #  NN   NORMAL NOUNS
002761: 05,7344           00000        NNADTAB            OCT      00000                                 #  00 NOT IN USE
002762: 05,7345           40000                           OCT      40000                                 #  01 SPECIFY MACHINE ADDRESS (FRACTIONAL)
002763: 05,7346           40000                           OCT      40000                                 #  02 SPECIFY MACHINE ADDRESS (WHOLE)
002764: 05,7347           40000                           OCT      40000                                 #  03 SPECIFY MACHINE ADDRESS (DEGREES)
002765: 05,7350           40000                           OCT      40000                                 #  04 SPECIFY MACHINE ADDRESS (HOURS)
002766: 05,7351           40000                           OCT      40000                                 #  05 SPECIFY MACHINE ADDRESS (SECONDS)
002767: 05,7352           40000                           OCT      40000                                 #  06 SPECIFY MACHINE ADDRESS (GYRO DEG)
002768: 05,7353           40000                           OCT      40000                                 #  07 SPECIFY MACHINE ADDRESS (Y OPT DEG.)
002769: 05,7354           00000                           OCT      00000                                 #  10 SPARE
002770: 05,7355           00000                           OCT      00000                                 #  11 SPARE
002771: 05,7356           00000                           OCT      00000                                 #  12 SPARE
002772: 05,7357           00000                           OCT      00000                                 #  13 SPARE
002773: 05,7360           00000                           OCT      00000                                 #  14 SPARE
002774: 05,7361           77777                           OCT      77777                                 #  15 INCREMENT MACHINE ADDRESS
002775: 05,7362           00035                           OCT      00035                                 #  16 TIME SECONDS
002776: 05,7363           00035                           OCT      00035                                 #  17 TIME HOURS
002777: 05,7364           00047                           ADRES    CDUX                                  #  20 ICDU
002778: 05,7365           00044                           ADRES    PIPAX                                 #  21 PIPAS
002779: 05,7366           00700                           ADRES    THETAD                                #  22 NEW ANGLES I
002780: 05,7367           00621                           ADRES    DSPTEM2                               #  23 DELTA ANGLES I
002781: 05,7370           00616                           ADRES    DSPTEM1                               #  24 DELTA TIME (SEC)
002782: 05,7371           00616                           ADRES    DSPTEM1                               #  25 CHECKLIST
002783: 05,7372           00616                           ADRES    DSPTEM1                               #  26 PRIO/DELAY
002784: 05,7373           01762                           ADRES    SMODE                                 #  27 SELF TEST ON/OFF SWITCH
002785: 05,7374           00616                           ADRES    DSPTEM1                               #  30 STAR NUMBERS
002786: 05,7375           01763                           ADRES    FAILREG                               #  31 FAILREG, SFAIL, ERCOUNT
002787: 05,7376           01266                           ADRES    TDEC                                  #  32 DECISION TIME (MIDCOURSE)
002788: 05,7377           01146                           ADRES    TET                                   #  33 EPHEMERIS TIME(MIDCOURSE)
002789: 05,7400           01276                           ADRES    MEASQ                                 #  34 MEASURED QUANTITY (MIDCOURSE)
002790: 05,7401           01314                           ADRES    ROLL                                  #  35 ROLL, PITCH, YAW
002791: 05,7402           00616                           ADRES    LANDMARK                              #  36 LANDMARK DATA 1
002792: 05,7403           00621                           ADRES    LANDMARK   +3                         #  37 LANDMARK DATA 2
002793: 05,7404           00616                           ADRES    DSPTEM1                               #  40 VG FOR 202
002794: 05,7405           00000                           OCT      00000                                 #  41 SPARE
002795: 05,7406           00000                           OCT      00000                                 #  42 SPARE
002796: 05,7407           00000                           OCT      00000                                 #  43 SPARE
002797: 05,7410           00000                           OCT      00000                                 #  44 SPARE
002798: 05,7411           00000                           OCT      00000                                 #  45 SPARE
002799: 05,7412           00000                           OCT      00000                                 #  46 SPARE
002800: 05,7413           00000                           OCT      00000                                 #  47 SPARE
002801: 05,7414           00000                           OCT      00000                                 #  50 SPARE
002802: 05,7415           00000                           OCT      00000                                 #  51 SPARE
002803: 05,7416           00744                           ADRES    GBIASX                                #  52 GYRO BIAS DRIFT
002804: 05,7417           00747                           ADRES    ADIAX                                 #  53 GYRO INPUT AXIS ACCELERATION DRIFT
002805: 05,7420           00752                           ADRES    ADSRAX                                #  54 GYRO SPIN AXIS ACCELERATION DRIFT
002806:
002807:                                                                                                  #  NN  MIXED NOUNS
002808: 05,7421           02000                           OCT      02000                                 #  55 OCDU
002809: 05,7422           04002                           OCT      04002                                 #  56 UNCALLED MARK DATA (OCDU & TIME(SEC))
002810: 05,7423           02005                           OCT      02005                                 #  57 NEW ANGLES OCDU
002811: 05,7424           04007                           OCT      04007                                 #  60 IMU MODE STATUS
002812: 05,7425           02012                           OCT      02012                                 #  61 TARGET AZIMUTH AND ELEVATION
002813: 05,7426           02014                           OCT      02014                                 #  62 ICDUZ AND TIME(SEC)
002814: 05,7427           02016                           OCT      02016                                 #  63 OCDUX AND TIME(SEC)
002815: 05,7430           02020                           OCT      02020                                 #  64 OCDUY AND TIME(SEC)
002816: 05,7431           02022                           OCT      02022                                 #  65 SAMPLED TIME (HOURS AND SECONDS)
002817:                                                                                                  #        (FETCHED IN INTERRUPT)
002818: 05,7432           04024                           OCT      04024                                 #  66 SYSTEM TEST RESULTS
002819: 05,7433           04027                           OCT      04027                                 #  67 DELTA GYRO ANGLES
002820: 05,7434           04032                           OCT      04032                                 #  70 PIPA BIAS
002821: 05,7435           04035                           OCT      04035                                 #  71 PIPA SCALE FACTOR ERROR
002822: 05,7436           04040                           OCT      04040                                 #  72 DELTA POSITION
002823: 05,7437           04043                           OCT      04043                                 #  73 DELTA VELOCITY
002824: 05,7440           04046                           OCT      04046                                 #  74 MEASUREMENT DATA (MIDCOURSE)
002825: 05,7441           04051                           OCT      04051                                 #  75 MEASUREMENT DEVIATIONS (MIDCOURSE)
002826: 05,7442           04054                           OCT      04054                                 #  76 POSITION VECTOR
002827: 05,7443           04057                           OCT      04057                                 #  77 VELOCITY VECTOR
002828:
002829:
002830:
002831:                                                                                                  #  NN        NORMAL NOUNS
002832: 05,7444           00000        NNTYPTAB           OCT      00000                                 #  00 NOT IN USE
002833: 05,7445           00040                           OCT      00040                                 #  01 1COMP  FRACTIONAL
002834: 05,7446           00140                           OCT      00140                                 #  02 1COMP  WHOLE
002835: 05,7447           00102                           OCT      00102                                 #  03 1COMP  DEGREES
002836: 05,7450           00241                           OCT      00241                                 #  04 1COMP  HOURS
002837: 05,7451           00200                           OCT      00200                                 #  05 1COMP  SECONDS
002838: 05,7452           00203                           OCT      00203                                 #  06 1COMP  GYRO DEGREES
002839: 05,7453           00302                           OCT      00302                                 #  07 1COMP  Y OPT DEGREES
002840: 05,7454           00000                           OCT      00000                                 #  10        SPARE
002841: 05,7455           00000                           OCT      00000                                 #  11        SPARE
002842: 05,7456           00000                           OCT      00000                                 #  12        SPARE
002843: 05,7457           00000                           OCT      00000                                 #  13        SPARE
002844: 05,7460           00000                           OCT      00000                                 #  14        SPARE
002845: 05,7461           00000                           OCT      00000                                 #  15 1COMP  OCTAL ONLY
002846: 05,7462           00200                           OCT      00200                                 #  16 1COMP  SECONDS
002847: 05,7463           00241                           OCT      00241                                 #  17 3COMP  HOURS
002848: 05,7464           04102                           OCT      04102                                 #  20 3COMP  DEGREES
002849: 05,7465           04140                           OCT      04140                                 #  21 3COMP  WHOLE
002850: 05,7466           04102                           OCT      04102                                 #  22 3COMP  DEGREES
002851: 05,7467           04102                           OCT      04102                                 #  23 3COMP  DEGREES
002852: 05,7470           00200                           OCT      00200                                 #  24 1COMP  SECONDS
002853: 05,7471           00140                           OCT      00140                                 #  25 1COMP  WHOLE
002854: 05,7472           00140                           OCT      00140                                 #  26 1COMP  WHOLE
002855: 05,7473           00140                           OCT      00140                                 #  27 1COMP  WHOLE
002856: 05,7474           04140                           OCT      04140                                 #  30 3COMP  WHOLE
002857: 05,7475           04000                           OCT      04000                                 #  31 3COMP  OCTAL ONLY
002858: 05,7476           00252                           OCT      00252                                 #  32 3COMP  TIME WEEKS
002859: 05,7477           00252                           OCT      00252                                 #  33 3COMP  TIME WEEKS
002860: 05,7500           00350                           OCT      00350                                 #  34 3COMP  POSITION
002861: 05,7501           04102                           OCT      04102                                 #  35 3COMP  DEGREES
002862: 05,7502           04000                           OCT      04000                                 #  36 3COMP  OCTAL ONLY
002863: 05,7503           04000                           OCT      04000                                 #  37 3COMP  OCTAL ONLY
002864: 05,7504           04154                           OCT      04154                                 #  40 3COMP  VG FOR 202
002865: 05,7505           00000                           OCT      00000                                 #  41        SPARE
002866: 05,7506           00000                           OCT      00000                                 #  42        SPARE
002867: 05,7507           00000                           OCT      00000                                 #  43        SPARE
002868: 05,7510           00000                           OCT      00000                                 #  44        SPARE
002869: 05,7511           00000                           OCT      00000                                 #  45        SPARE
002870: 05,7512           00000                           OCT      00000                                 #  46        SPARE
002871: 05,7513           00000                           OCT      00000                                 #  47        SPARE
002872: 05,7514           00000                           OCT      00000                                 #  50        SPARE
002873: 05,7515           00000                           OCT      00000                                 #  51        SPARE
002874: 05,7516           04144                           OCT      04144                                 #  52 3COMP  GYRO BIAS DRIFT
002875: 05,7517           04145                           OCT      04145                                 #  53 3COMP  GYRO AXIS ACCEL. DRIFT
002876: 05,7520           04145                           OCT      04145                                 #  54 3COMP  GYRO AXIS ACCEL. DRIFT
002877:
002878:                                                                                                  #  NN        MIXED NOUNS
002879: 05,7521           00102                           OCT      00102                                 #  55 2COMP  DEGREES, Y OPT DEGREES
002880: 05,7522           00102                           OCT      00102                                 #  56 3COMP  DEGREES, Y OPT DEGREES, SECS
002881: 05,7523           00102                           OCT      00102                                 #  57 2COMP  DEGREES, Y OPT DEGREES
002882: 05,7524           00000                           OCT      00000                                 #  60 3COMP  OCTAL ONLY
002883: 05,7525           00542                           OCT      00542                                 #  61 2COMP  DEGREES, ELEVATION DEGREES
002884: 05,7526           00002                           OCT      00002                                 #  62 2COMP  DEGREES, SECS
002885: 05,7527           00002                           OCT      00002                                 #  63 2COMP  DEGREES, SECS
002886: 05,7530           00002                           OCT      00002                                 #  64 2COMP  Y OPT DEGREES, SECS
002887: 05,7531           00001                           OCT      00001                                 #  65 2COMP  HOURS, SECONDS
002888: 05,7532           00000                           OCT      00000                                 #  66 3COMP  WHOLE, FRACTIONAL, WHOLE
002889: 05,7533           06143                           OCT      06143                                 #  67 3COMP  GYRO DEGREES FOR EACH
002890: 05,7534           14306                           OCT      14306                                 #  70 3COMP  PIPA BIAS FOR EACH
002891: 05,7535           16347                           OCT      16347                                 #  71 3COMP  PIPA SCALE FACTOR ERR.FOR EACH
002892: 05,7536           20410                           OCT      20410                                 #  72 3COMP  POSITION FOR EACH
002893: 05,7537           22451                           OCT      22451                                 #  73 3COMP  VELOCITY FOR EACH
002894: 05,7540           00412                           OCT      00412                                 #  74 3COMP  TIME WEEKS, POSITION, WHOLE
002895: 05,7541           20450                           OCT      20450                                 #  75 3COMP  POSITION, VELOCITY, POSITION
002896: 05,7542           20410                           OCT      20410                                 #  76 3COMP  POSITION FOR EACH
002897: 05,7543           22451                           OCT      22451                                 #  77 3COMP  VELOCITY FOR EACH
002898:
002899:
002900:
002901: 05,7544           00006        SFINTAB1           OCT      00006                                 #  WHOLE,TIME(SEC)               HIGH PART
002902: 05,7545           00253                           OCT      00253                                 #  TIME HOURS(=1.3-, PT. BETWEEN BITS 7-8)
002903: 05,7546           00000                           OCT      0                                     #  DEGREES
002904: 05,7547           00021                           OCT      00021                                 #  GYRO DEGREES
002905: 05,7550           00001                           OCT      00001                                 #  GYRO BIAS DRIFT
002906: 05,7551           00011                           OCT      00011                                 #  GYRO AXIS ACCEL. DRIFT
002907: 05,7552           00004                           OCT      00004                                 #  PIPA BIAS
002908: 05,7553           00314                           OCT      00314                                 #  PIPA SCALE ERROR
002909: 05,7554           23420                           OCT      23420                                 #  POSITION
002910: 05,7555           00201                           OCT      00201                                 #  VELOCITY (POINT BETWEEN BITS 7-8)
002911: 05,7556           01371                           OCT      01371                                 #  TIME WEEKS (POINT BETWEEN BITS 7-8)
002912: 05,7557           00001                           OCT      00001                                 #  ELEVATION DEGREES
002913: 05,7560           00003                           OCT      00003                                 #  VG FOR 202
002914:                                                                                                  #  END OF SFINTAB1
002915:
002916:
002917:
002918: 05,7561           03240        SFINTAB2           OCT      03240                                 #  WHOLE, TIME(SEC)              LO PART
002919: 05,7562           25124                           OCT      25124                                 #  TIME HOURS
002920: 05,7563           00000                           OCT      0                                     #  DEGREES ( SFCON IN DEGINSF)
002921: 05,7564           30707                           OCT      30707                                 #  GYRO DEGREES
002922: 05,7565           02133                           OCT      02133                                 #  GYRO BIAS DRIFT
002923: 05,7566           30322                           OCT      30322                                 #  GYRO AXIS ACCEL. DRIFT
002924: 05,7567           14021                           OCT      14021                                 #  PIPA BIAS
002925: 05,7570           31463                           OCT      31463                                 #  PIPA SCALE ERROR
002926: 05,7571           00000                           OCT      00000                                 #  POSITION
002927: 05,7572           30327                           OCT      30327                                 #  VELOCITY
002928: 05,7573           34750                           OCT      34750                                 #  TIME WEEKS
002929: 05,7574           03434                           OCT      03434                                 #  ELEVATION DEGREES
002930: 05,7575           04000                           OCT      04000                                 #  VG FOR 202
002931:                                                                                                  #  END OF SFINTAB2
002932:
002933:
002934:
002935: 05,7576           05174        SFOUTAB1           OCT      05174                                 #  WHOLE, TIME(SEC)              HIGH PART
002936: 05,7577           27670                           OCT      27670                                 #  TIME HOURS
002937: 05,7600           00000                           OCT      0                                     #  DEGREES
002938: 05,7601           01631                           OCT      01631                                 #  GYRO DEGREES
002939: 05,7602           35753                           OCT      35753                                 #  GYRO BIAS DRIFT
002940: 05,7603           03216                           OCT      03216                                 #  GYRO AXIS ACCEL. DRIFT
002941: 05,7604           07237                           OCT      07237                                 #  PIPA BIAS
002942: 05,7605           00120                           OCT      00120                                 #  PIPA SCALE ERROR
002943: 05,7606           00321                           OCT      00321                                 #  POSITION (POINT BETWEEN BITS 7-8)
002944: 05,7607           37441                           OCT      37441                                 #  VELOCITY
002945: 05,7610           05300                           OCT      05300                                 #  TIME WEEKS
002946: 05,7611           34631                           OCT      34631                                 #  ELEVATION DEGREES
002947: 05,7612           12172                           OCT      12172                                 #  VG FOR 202
002948:                                                                                                  #  END OF SFOUTAB1
002949:
002950:
002951:
002952: 05,7613           13261        SFOUTAB2           OCT      13261                                 #  WHOLE, TIME(SEC)              LO PART
002953: 05,7614           31357                           OCT      31357                                 #  TIME HOURS
002954: 05,7615           00000                           OCT      0                                     #  DEGREES
002955: 05,7616           23146                           OCT      23146                                 #  GYRO DEGREES
002956: 05,7617           32323                           OCT      32323                                 #  GYRO BIAS DRIFT
002957: 05,7620           06400                           OCT      06400                                 #  GYRO AXIS ACCEL. DRIFT
002958: 05,7621           37776                           OCT      37776                                 #  PIPA BIAS
002959: 05,7622           00000                           OCT      00000                                 #  PIPA SCALE ERROR
002960: 05,7623           26706                           OCT      26706                                 #  POSITION
002961: 05,7624           14247                           OCT      14247                                 #  VELOCITY
002962: 05,7625           20305                           OCT      20305                                 #  TIME WEEKS
002963: 05,7626           23146                           OCT      23146                                 #  ELEVATION DEGREES
002964: 05,7627           34121                           OCT      34121                                 #  VG FOR 202
002965:                                                                                                  #  END OF SFOUTAB2
002966:
002967:
002968:
002969:                                                                                                  #  MIXNOUN  SF ROUT              REG
002970: 05,7630           04052        IDADDTAB           CADR     OPTX       +04000                     #  01       DEGREES              52
002971: 05,7631           14053                           CADR     OPTY       +14000                     #  01       Y OPT DEGREES        53
002972: 05,7632           04616                           CADR     DSPTEM1    +04000                     #  02       DEGREES              627
002973: 05,7633           14617                           CADR     DSPTEM1    +14001                     #  02       Y OPT DEGREES        630
002974: 05,7634           10620                           CADR     DSPTEM1    +10002                     #  02       SEC                  631
002975: 05,7635           04704                           CADR     DESOPTX    +04000                     #  03       DEGREES              724
002976: 05,7636           14705                           CADR     DESOPTX    +14001                     #  03       Y OPT DEGREES        725
002977: 05,7637           00007                           CADR     IN3                                   #  04       OCTAL ONLY
002978: 05,7640           00727                           CADR     WASKSET                               #  04       OCTAL ONLY
002979: 05,7641           00726                           CADR     OLDERR                                #  04       OCTAL ONLY
002980: 05,7642           04616                           CADR     DSPTEM1    +04000                     #  05       DEGREES
002981: 05,7643           06617                           CADR     DSPTEM1    +06001                     #  05       ELEVATION DEGREES
002982: 05,7644           04051                           CADR     CDUZ       +04000                     #  06       DEGREES              51
002983: 05,7645           10035                           CADR     TIME2      +10000                     #  06       SEC                  35
002984: 05,7646           04052                           CADR     OPTX       +04000                     #  07       DEGREES              52
002985: 05,7647           10035                           CADR     TIME2      +10000                     #  07       SEC                  35
002986: 05,7650           14053                           CADR     OPTY       +14000                     #  10       Y OPT DEGREES        53
002987: 05,7651           10035                           CADR     TIME2      +10000                     #  10       SEC                  35
002988: 05,7652           12643                           CADR     SAMPTIME   +12000                     #  11       HOURS                655
002989: 05,7653           10643                           CADR     SAMPTIME   +10000                     #  11       SECONDS              655
002990: 05,7654           06621                           CADR     DSPTEM2    +06000                     #  12       WHOLE                632
002991: 05,7655           02622                           CADR     DSPTEM2    +02001                     #  12       FRACTIONAL           633
002992: 05,7656           06623                           CADR     DSPTEM2    +06002                     #  12       WHOLE                634
002993: 05,7657           11520                           CADR     OGC        +10000                     #  13       GYRO DEGREES
002994: 05,7660           11522                           CADR     OGC        +10002                     #  13       GYRO DEGREES
002995: 05,7661           11524                           CADR     OGC        +10004                     #  13       GYRO DEGREES
002996: 05,7662           06736                           CADR     PBIASX     +06000                     #  14       PIPA BIAS
002997: 05,7663           06740                           CADR     PBIASY     +06000                     #  14       PIPA BIAS
002998: 05,7664           06742                           CADR     PBIASZ     +06000                     #  14       PIPA BIAS
002999: 05,7665           06737                           CADR     PIPASCFX   +06000                     #  15       PIPA SCALE FACTOR ERROR
003000: 05,7666           06741                           CADR     PIPASCFY   +06000                     #  15       PIPA SCALE FACTOR ERROR
003001: 05,7667           06743                           CADR     PIPASCFZ   +06000                     #  15       PIPA SCALE FACTOR ERROR
003002: 05,7670           17152                           CADR     DELR       +16000                     #  16       POSITION
003003: 05,7671           17154                           CADR     DELR       +16002                     #  16       POSITION
003004: 05,7672           17156                           CADR     DELR       +16004                     #  16       POSITION
003005: 05,7673           13160                           CADR     DELVEL     +12000                     #  17       VELOCITY
003006: 05,7674           13162                           CADR     DELVEL     +12002                     #  17       VELOCITY
003007: 05,7675           13164                           CADR     DELVEL     +12004                     #  17       VELOCITY
003008: 05,7676           13266                           CADR     TDEC       +12000                     #  20       TIME WEEKS
003009: 05,7677           17276                           CADR     MEASQ      +16000                     #  20       POSITION
003010: 05,7700           07300                           CADR     MEASMODE   +06000                     #  20       WHOLE
003011: 05,7701           16616                           CADR     DSPTEM1    +16000                     #  21       POSITION
003012: 05,7702           12620                           CADR     DSPTEM1    +12002                     #  21       VELOCITY
003013: 05,7703           17276                           CADR     DELTAQ     +16000                     #  21       POSITION
003014: 05,7704           16616                           CADR     DSPTEM1    +16000                     #  22       POSITION
003015: 05,7705           16620                           CADR     DSPTEM1    +16002                     #  22       POSITION
003016: 05,7706           16622                           CADR     DSPTEM1    +16004                     #  22       POSITION
003017: 05,7707           12616                           CADR     DSPTEM1    +12000                     #  23       VELOCITY
003018: 05,7710           12620                           CADR     DSPTEM1    +12002                     #  23       VELOCITY
003019: 05,7711           12622                           CADR     DSPTEM1    +12004                     #  23       VELOCITY
003020: 05,7712           00000                           OCT      00000                                 #           SPARE
003021: 05,7713           00000                           OCT      00000                                 #           SPARE
003022: 05,7714           00000                           OCT      00000                                 #           SPARE
003023: 05,7715           00000                           OCT      00000                                 #           SPARE
003024: 05,7716           00000                           OCT      00000                                 #           SPARE
003025: 05,7717           00000                           OCT      00000                                 #           SPARE
003026:
003027:
003028:                                                                                                  #  MISCELLANEOUS SERVICE ROUTINES
003029:
003030:
003031:
003032:    3177                                           SETLOC   DATWAIT1   +2
003033:
003034:    3177           00016        R1D1               OCT      16
003035:    3200           00011        R2D1               OCT      11
003036:    3201           00004        R3D1               OCT      4
003037:
003038:    3202           50020        RIGHT5             TS       CYR
003039:    3203           40020                           CS       CYR
003040:    3204           40020                           CS       CYR
003041:    3205           40020                           CS       CYR
003042:    3206           40020                           CS       CYR
003043:    3207           30020                           XCH      CYR
003044:    3210           00001                           TC       Q
003045:
003046:    3211           50022        LEFT5              TS       CYL
003047:    3212           40022                           CS       CYL
003048:    3213           40022                           CS       CYL
003049:    3214           40022                           CS       CYL
003050:    3215           40022                           CS       CYL
003051:    3216           30022                           XCH      CYL
003052:    3217           00001                           TC       Q
003053:
003054:    3220           60000        SLEFT5             DOUBLE
003055:    3221           60000                           DOUBLE
003056:    3222           60000                           DOUBLE
003057:    3223           60000                           DOUBLE
003058:    3224           60000                           DOUBLE
003059:    3225           00001                           TC       Q
003060:
003061:
003062:
003063:    3226           00037        LOW5               OCT      37
003064:    3227           01740        MID5               OCT      1740
003065:    3230           76000                           OCT      76000                                 #  MUST STAY HERE.
003066:
003067:    3231           02052        TCNOVAC            TC       NOVAC
003068:    3232           02173        TCWAIT             TC       WAITLIST
003069:    3233           02256        TCTSKOVR           TC       TASKOVER
003070:    3234           02046        TCFINDVC           TC       FINDVAC
003071:
003072:
003073:
003074:    3235           00023        VD1                OCT      23
003075:    3236           00021        ND1                OCT      21
003076:    3237           00025        MD1                OCT      25
003077:
003078:
003079:    3240           00012        BINCON             DEC      10         B-14
003080:
003081:    3241     3240               TEN                EQUALS   BINCON
003082:
003083:    3241           20017        FALTON             INHINT                                         #  TURN PROGRAM CHECK LIGHT ON
003084:    3242           44512                           CS       BIT5                                  #  OUT1,BIT5(ALSO KNOWN AS ILLEGAL ORDER)
003085:    3243           70011                           MASK     OUT1
003086:    3244           64512                           AD       BIT5
003087:    3245           50011                           TS       OUT1
003088:    3246           20016                           RELINT
003089:    3247           00001                           TC       Q
003090:
003091:    3250           20017        FALTOF             INHINT                                         #  TURN PROGRAM CHECK LIGHT OFF
003092:    3251           44512                           CS       BIT5
003093:    3252           70011                           MASK     OUT1
003094:    3253           50011                           TS       OUT1
003095:    3254           20016                           RELINT
003096:    3255           00001                           TC       Q
003097:
003098:    3256           20017        RELDSPON           INHINT                                         #  TURN ON RELEASE DISPLAY SYST LIGHT
003099:    3257           44514                           CS       BIT3
003100:    3260           70011                           MASK     OUT1
003101:    3261           64514                           AD       BIT3
003102:    3262           50011                           TS       OUT1
003103:    3263           20016                           RELINT
003104:    3264           00001                           TC       Q
003105:
003106:    3265           44513        DSPLOCK0           CS       BIT4
003107:    3266           20017                           INHINT                                         #  DSPLOCK = BIT4 OF STATE
003108:    3267           70645                           MASK     DSPLOCK
003109:    3270           50645                           TS       DSPLOCK
003110:    3271           20016                           RELINT
003111:    3272           00001                           TC       Q
003112:
003113:    3273           44513        DSPLOCK1           CS       BIT4
003114:    3274           20017                           INHINT                                         #  DSPLOCK = BIT4 OF STATE
003115:    3275           70645                           MASK     DSPLOCK
003116:    3276           64513                           AD       BIT4
003117:    3277           30645                           XCH      DSPLOCK                               #  LEAVES OLD C(DSPLOCK) IN A.
003118:    3300           20016                           RELINT
003119:    3301           00001                           TC       Q
003120:
003121:    3302           34513        TSTDSPLK           CAF      BIT4                                  #  SIMULATES CCS DSPLOCK
003122:    3303           70645                           MASK     DSPLOCK
003123:    3304           10000                           CCS      A
003124:    3305           00001                           TC       Q                                     #  DSPLOCK = 1, RETURN TO L+1
003125:    3306           20001                           INDEX    Q
003126:    3307           00001                           TC       1                                     #  DSPLOCK = 0, RETURN TO L+1
003127:
003128:
003129:                                                                                                  #  INTERNAL ROUTINES THAT USE THE KEYBOARD AND DISPLAY SYSTEM(THRU
003130:                                                                                                  #  NVSUB) MUST  TC GRABDSP  BEFOREHAND , TO GRAB THE DISPLAY SYSTEM AND
003131:                                                                                                  #  MAKE IT BUSY TO OTHER INTERNAL USERS.
003132:
003133:                                                                                                  #        WHEN FINISHED , THERE MUST BE A TC FREEDSP , TO RELEASE THE
003134:                                                                                                  #  SYSTEM FOR OTHER INTERNAL USERS.
003135:
003136:                                                                                                  #        THE CALLING SEQUENCES ARE
003137:                                                                                                  #  L     TC      GRABDSP
003138:                                                                                                  #  L+1   RETURN HERE WHEN SYSTEM IS ALREADY GRABBED
003139:                                                                                                  #  L+2   RETURN HERE MEANS YOU HAVE IT
003140:
003141:                                                                                                  #  L     TC      NVSUB
003142:                                                                                                  #  L+1   RETURN HERE IF OPERATOR HAS INTERVENED
003143:                                                                                                  #  L+2   RETURN HERE AFTER EXECUTION
003144:
003145:
003146:
003147:                                                                                                  #        A ROUTINE CALLED GRABUSY IS PROVIDED (USE IS OPTIONAL) TO PUT YOUR
003148:                                                                                                  #  JOB TO SLEEP UNTIL  THE SYSTEM IS FREED BY THE JOB HOLDING IT.
003149:                                                                                                  #  YOUR CADR IS PUT AT FIRST AVAILABLE SLOT IN A WAITING LIST (FIFO).
003150:
003151:                                                                                                  #        THE CALLING SEQUENCE IS
003152:                                                                                                  #                CAF     WAKECADR
003153:                                                                                                  #                TC      GRABUSY
003154:
003155:                                                                                                  #        A ROUTINE CALLED  NVSUBUSY IS PROVIDED (USE IS OPTIONAL)  TO PUT
003156:                                                                                                  #  YOUR JOB TO SLEEP UNTIL THE OPERATOR RELEASES IT. YOUR CADR IS PUT
003157:                                                                                                  #  ON TOP OF A WAITING LIST (FIFO). IT ALSO TURNS ON KEY RELEASE LIGHT.
003158:
003159:                                                                                                  #  THE CALLING SEQUENCE IS
003160:                                                                                                  #  CAF WAKECADR
003161:                                                                                                  #  TC NVSUBUSY
003162:
003163:
003164:
003165:                                                                                                  #  AFTER A TC FREEDSP, THE INTERNAL INTERLOCK IS KEPT BUSY FOR 10 SECONDS,
003166:                                                                                                  #  AFTER WHICH A CADR IS CALLED FROM THE LIST. THIS INSURES THAT ALL
003167:                                                                                                  #  DISPLAYS WAITING WILL BE VISIBLE.
003168:
003169:
003170:
003171:                                                                                                  #  GRABLOCK IS THE INTERNAL INTERLOCK FOR THE USE OF THE KEYBOARD
003172:                                                                                                  #  AND DISPLAY SYSTEM.
003173:                                                                                                  #  +0  FREE
003174:                                                                                                  #  +1  SOME INTERNAL ROUTINE HAS GRABBED DSP SYST
003175:                                                                                                  #  +2  SOME INTERNAL ROUTINE HAS GONE TO NVSUBUSY
003176:
003177:
003178:    3310           10630        GRABDSP            CCS      GRABLOCK
003179:    3311           00001                           TC       Q                                     #  GRABBED. RETURN TO L+1
003180:    3312           34516                           CAF      ONE                                   #  NOT GRABBED. SET TO +1
003181:    3313           50630                           TS       GRABLOCK                              #  AND RETURN TO L+2
003182:    3314           20001                           INDEX    Q
003183:    3315           00001                           TC       1
003184:
003185:
003186:
003187:    3316           34606        PREGBSY            CAF      LOW10                                 #  SPECIAL ENTRANCE FOR ROUTINES IN BANKS
003188:    3317           70001                           MASK     Q                                     #  DESIRING THE CADR OF 1 + (LOC FROM WHICH
003189:    3320           60015                           AD       BANKREG                               #  TC PREGBSY WAS DONE) TO BE ENTERED.
003190:    3321           05720        GRABUSY            TC       POSTJUMP
003191:    3322           16001                           CADR     GRABUSYB
003192: 07,7433                                           SETLOC   ENDSPMM1   +1
003193:
003194: 07,7433           50114        GRABUSY1           TS       CADRTEM
003195: 07,7434           10630                           CCS      GRABLOCK
003196: 07,7435           07440                           TC       +3                                    #  STILL GRABBED
003197: 07,7436           30114                           XCH      CADRTEM                               #  NOT GRABBED SO DO DIRECT CALL
003198: 07,7437           05723                           TC       BANKJUMP
003199: 07,7440           35503                           CAF      TWO
003200: 07,7441           50113                           TS       LSTPTR
003201: 07,7442           20113                           INDEX    LSTPTR                                #  SEARCH LIST FOR FIRST AVAILABLE SPACE
003202: 07,7443           10634                           CCS      DSPLIST                               #  FROM BOTTOM.
003203: 07,7444           07446                           TC       +2
003204: 07,7445           07451                           TC       PUTINLST                              #  SPACE FOUND
003205: 07,7446           10113                           CCS      LSTPTR                                #  DECREMENT POINTER
003206: 07,7447           07441                           TC       -6
003207: 07,7450           07525                           TC       LSTFULL
003208: 07,7451           30114        PUTINLST           XCH      CADRTEM
003209: 07,7452           20113                           INDEX    LSTPTR
003210: 07,7453           50634                           TS       DSPLIST
003211: 07,7454           02127                           TC       JOBSLEEP
003212:
003213:
003214:
003215:    3323                                           SETLOC   GRABUSY    +2
003216:    3323           43330        PRENVBSY           CS       6K+3                                  #  SPECIAL ENTRANCE FOR ROUTINES IN BANKS
003217:    3324           60001                           AD       Q                                     #  DESIRING THE CADR OF (LOC FROM WHICH THE
003218:    3325           60015                           AD       BANKREG                               #  TC PRENVBSY WAS DONE) -2 TO BE ENTERED.
003219:    3326           05720        NVSUBUSY           TC       POSTJUMP
003220:    3327           16002                           CADR     NVSUBSYB
003221:    3330           06003        6K+3               OCT      6003                                  #  TC PRENVBSY WAS DONE) -2 TO BE ENTERED.
003222:
003223: 07,7455                                           SETLOC   PUTINLST   +4
003224: 07,7455           50114        NVSUBSY1           TS       CADRTEM
003225: 07,7456           03302                           TC       TSTDSPLK                              #  TEST IF REALLY LOCKED OUT
003226: 07,7457           07462                           TC       +3                                    #  STILL BUSY
003227: 07,7460           30114                           XCH      CADRTEM                               #  DSPLOCK = +0 SO RETURN DIRECTLY
003228: 07,7461           05723                           TC       BANKJUMP
003229: 07,7462           35503                           CAF      TWO                                   #  SET FOR GRABBED STATE AND NVSUBUSY USE
003230: 07,7463           50630                           TS       GRABLOCK
003231: 07,7464           30114                           XCH      CADRTEM
003232: 07,7465           30636                           XCH      DSPLIST    +2                         #  ENTER CADR INTO FIRST POSITION OF LIST
003233: 07,7466           30635                           XCH      DSPLIST    +1                         #        (BOTTOM)
003234: 07,7467           30634                           XCH      DSPLIST
003235: 07,7470           10000                           CCS      A
003236: 07,7471           07525                           TC       LSTFULL
003237: 07,7472           07474                           TC       +2
003238: 07,7473           07525                           TC       LSTFULL
003239: 07,7474           03256                           TC       RELDSPON
003240: 07,7475           40636                           CS       DSPLIST    +2
003241: 07,7476           40000                           COM
003242: 07,7477           02127        ENDNVBSY           TC       JOBSLEEP
003243:
003244:    3331                                           SETLOC   NVSUBUSY   +3
003245:
003246:    3331           30001        RELDSP             XCH      Q                                     #  SET DSPLOCK TO +0, TURN RELDSP LIGHT
003247:    3332           50113                           TS       RELRET                                #  OFF,  SEARCH DSPLIST
003248:    3333           34335                           CAF      NEG1
003249:    3334           60630                           AD       GRABLOCK
003250:    3335           10000                           CCS      A                                     #  SEARCH LIST ONLY IF GRABLOCK = +2
003251:    3336           03342                           TC       +4                                    #        (SOMEONE USED NVSUBUSY)
003252:    3337           03070                           TC       CCSHOLE
003253:    3340           03357                           TC       RELDSP2
003254:    3341           03357                           TC       RELDSP2
003255:    3342           35501                           CAF      ZERO
003256:    3343           30634                           XCH      DSPLIST
003257:    3344           30635                           XCH      DSPLIST    +1
003258:    3345           30636                           XCH      DSPLIST    +2
003259:    3346           50114                           TS       CADRTEM
003260:    3347           10000                           CCS      A
003261:    3350           03352                           TC       +2
003262:    3351           03357                           TC       RELDSP2                               #  LIST EMPTY
003263:    3352           30114                           XCH      CADRTEM
003264:    3353           20017                           INHINT
003265:    3354           02060                           TC       JOBWAKE
003266:    3355           34516                           CAF      ONE
003267:    3356           50630                           TS       GRABLOCK
003268:    3357           44514        RELDSP2            CS       BIT3
003269:    3360           70011                           MASK     OUT1
003270:    3361           50011                           TS       OUT1
003271:    3362           03265                           TC       DSPLOCK0                              #  0 INTO DSPLOCK (BIT4 OF STATE)
003272:                                                                                                  #  RELINT IS DONE IN DSPLOCK0.
003273:    3363           00113                           TC       RELRET
003274:    3364           30001        RELDSP1            XCH      Q                                     #  SET DSPLOCK TO +0, RELDSP LIGHT OFF,
003275:    3365           50113                           TS       RELRET                                #  NO LIST SEARCH
003276:    3366           20017                           INHINT
003277:    3367           03357                           TC       RELDSP2
003278:
003279:
003280:    3370           30001        FREEDSP            XCH      Q
003281:    3371           50113                           TS       FREERET
003282:    3372           20017                           INHINT
003283:    3373           33400                           CAF      SHOTIME
003284:    3374           02173                           TC       WAITLIST
003285:    3375           17500                           CADR     FREEWAIT
003286:    3376           20016                           RELINT
003287:    3377           00113                           TC       FREERET
003288:
003289:    3400           00257        SHOTIME            DEC      175        B-14                       #  SET FOR 1.75 SECS FOR 202
003290: 07,7500                                           SETLOC   ENDNVBSY   +1
003291:
003292: 07,7500           32164        FREEWAIT           CAF      PRIO31                                #  CALLED BY T3RUPT
003293: 07,7501           02052                           TC       NOVAC
003294: 07,7502           17504                           CADR     FREDSPDO
003295: 07,7503           02256                           TC       TASKOVER
003296:
003297:
003298:
003299: 07,7504           35501        FREDSPDO           CAF      ZERO                                  #  CALLED BY EXECUTIVE
003300: 07,7505           30634                           XCH      DSPLIST
003301: 07,7506           30635                           XCH      DSPLIST    +1
003302: 07,7507           30636                           XCH      DSPLIST    +2
003303: 07,7510           50114                           TS       CADRTEM
003304: 07,7511           10000                           CCS      A
003305: 07,7512           07514                           TC       +2
003306: 07,7513           07523                           TC       LSTEMPTY
003307: 07,7514           30114                           XCH      CADRTEM
003308: 07,7515           20017                           INHINT
003309: 07,7516           02060                           TC       JOBWAKE
003310: 07,7517           20016                           RELINT
003311: 07,7520           34516                           CAF      ONE                                   #  SET FOR GRABBED CONDITION
003312: 07,7521           50630                           TS       GRABLOCK
003313: 07,7522           02124                           TC       ENDOFJOB
003314: 07,7523           35501        LSTEMPTY           CAF      ZERO                                  #  SET FOR FREE CONDITION
003315: 07,7524           07521                           TC       -3
003316:
003317:
003318:
003319: 07,7525           03052        LSTFULL            TC       ABORT
003320: 07,7526           01206                           OCT      01206                                 #  PINBALL WAITING LINE FULL.

End of include-file PINBALL_GAME__BUTTONS_AND_LIGHTS.agc.  Parent file is MAIN.agc


