
Source Code


000002:                                                                                                  ## Copyright:   Public domain.
000003:                                                                                                  ## Filename:    PRELAUNCH_ALIGNMENT_PROGRAM.agc
000004:                                                                                                  ## Purpose:     A section of Corona revision 261.
000005:                                                                                                  ##              It is part of the source code for the Apollo Guidance Computer
000006:                                                                                                  ##              (AGC) for AS-202. No original listings of this software are
000007:                                                                                                  ##              available; instead, this file was created via disassembly of
000008:                                                                                                  ##              the core rope modules actually flown on the mission.
000009:                                                                                                  ## Assembler:   yaYUL
000010:                                                                                                  ## Contact:     Ron Burkey <info@sandroid.org>.
000011:                                                                                                  ## Website:     www.ibiblio.org/apollo/index.html
000012:                                                                                                  ## Mod history: 2023-05-27 MAS  Created from Solarium 55.
000013:                                                                                                  ##              2023-06-17 MAS  Updated for Corona.
000014:
000015:
000016:                                                                                                  #  THE PRELAUNCH ALIGNMENT PROGRAM CONSISTS OF TWO PARTS- VERTICAL ERECTION AND GYROCOMPASSING. IN THE FIRST CASE
000017:                                                                                                  #  THE Z PIPA INPUTS ARE USED TO CONTROL THE Y GYRO IN SUCH A WAY THAT THESE INPUTS ARE NULLED. A SIMILAR SIT-
000018:                                                                                                  #  UATION APPLIES TO THE Y PIPA INPUTS AND THE Z GYRO.IN THE GYROCOMPASSING CASE, THE Y PIPA INPUTS ARE USED IN
000019:                                                                                                  #  EXACTLY THE SAME FASHION AS IN VERTICAL ERECTION. THE Z PIPA INPUTS ARE SPLIT BETWEEN THE Y GYRO TO HOLD THE
000020:                                                                                                  #  VERTICAL AND THE X GYRO TO POINT THE Z AXIS ALONG SOME DESIRED AZIMUTH.
000021:
000022:
000023:
000024:                                                                                                  #  WHILE PRELAUNCH IS ACTIVE IT STAYS IN THE EXECUTIVE AND USES THE SLEEP/WAKE FEATURES. BY THIS MEANS MOST
000025:                                                                                                  #  ERASABLE USAGE IS CONFINED TO A VAC AREA. THE ASSIGNMENT IS AS FOLLOWS-
000026:
000027: 31,7454                        SINLAM             =        34D                                   #  SIN OF LATITUDE
000028: 31,7454                        COSLAM             =        36D                                   #  COSINE OF LATITUDE
000029: 31,7454                        SINAZ              =        2                                     #  SIN OF AZIMUTH
000030: 31,7454                        COSAZ              =        4                                     #  COSINE OF AZIMUTH
000031: 21,6000                                           SETLOC   42000
000032:
000033: 21,6000           04000        TOP1               TC       INTPRET
000034:
000035: 21,6001           45175                           DMOVE    1                                     #  THIS START DISPLAYS ALL INPUTS FOR CHEK
000036: 21,6002           76575                           RTB      EXIT
000037: 21,6003           01317                                    AZIMUTH
000038: 21,6004           20324                                    1STO2S
000039:
000040: 21,6005           03310                           TC       GRABDSP
000041: 21,6006           03316                           TC       PREGBSY
000042:
000043: 21,6007           30115                           XCH      MPAC
000044: 21,6010           50616                           TS       DSPTEM1
000045: 21,6011           35501                           CAF      ZERO
000046: 21,6012           50617                           TS       DSPTEM1    +1
000047:
000048: 21,6013           07555                           TC       CHECKNV                               #  DISPLAY AZIMUTH
000049: 21,6014           00661                           OCT      00661                                 #  (N.B. CAN NOT BE MODIFIED    ...ALK)
000050:
000051: 21,6015           06757                           TC       PRELEXIT   -1
000052:
000053: 21,6016           04000                           TC       INTPRET
000054:
000055: 21,6017           63776                           TSLT     0
000056: 21,6020           01315                                    LATITUDE
000057: 21,6021           00003                                    2
000058: 21,6022           32620                           STORE    DSPTEM1    +1
000059:
000060: 21,6023           45175                           DMOVE    1
000061: 21,6024           76575                           RTB      EXIT
000062: 21,6025           01353                                    VAZ
000063: 21,6026           20324                                    1STO2S
000064:
000065: 21,6027           30115                           XCH      MPAC
000066: 21,6030           50616                           TS       DSPTEM1
000067:
000068: 21,6031           07555                           TC       CHECKNV                               #  DISPLAY VEHICLE AZIMUTH, LATITUDE
000069: 21,6032           00661                           OCT      00661                                 #  (SEE N.B. ABOVE)
000070:
000071: 21,6033           06757                           TC       PRELEXIT   -1
000072:
000073: 21,6034           03370                           TC       FREEDSP                               #  DONE WITH DSKY.
000074:
000075: 21,6035           04000                           TC       INTPRET
000076:
000077: 21,6036           45175        TOP3               DMOVE    1                                     #  COMPUTES GIMBAL ANGLES
000078: 21,6037           76565                           RTB      AXT,1
000079: 21,6040           15617                                    SCNBMAT    +8D
000080: 21,6041           20270                                    ZEROVAC
000081: 21,6042           00023                                    18D
000082: 21,6043           32001                           STORE    0
000083:
000084: 21,6044           55176                           COS      0
000085: 21,6045           01353                                    VAZ
000086: 21,6046           32011                           STORE    8D
000087:
000088: 21,6047           47576                           NOLOD    0
000089: 21,6050           32021                           STORE    16D
000090:
000091: 21,6051           57176                           SIN      0
000092: 21,6052           01353                                    VAZ
000093: 21,6053           32017                           STORE    14D
000094:
000095: 21,6054           47575                           NOLOD    1
000096: 21,6055           47065                           COMP     AST,1
000097: 21,6056           00007                                    6
000098: 21,6057           32013                           STORE    10D
000099:
000100: 21,6060           74175        TOP33              VMOVE*   1
000101: 21,6061           51622                           VXM      VSLT
000102: 21,6062           33461                                    SCNBMAT    +18D,1
000103: 21,6063           00001                                    0
000104: 21,6064           00002                                    1
000105: 21,6065           37241                           STORE    XNB        +18D,1
000106:
000107: 21,6066           51576                           TIX,1    0
000108: 21,6067           02061                                    TOP33
000109:
000110: 21,6070           76776                           ITC      0
000111: 21,6071           03461                                    MAKEXSM
000112:
000113: 21,6072           76776                           ITC      0
000114: 21,6073           04644                                    CALCGA
000115: 21,6074           47575                           NOLOD    1
000116: 21,6075           77176                           TP
000117: 21,6076           33323                           STORE    PRELXGA
000118:
000119: 21,6077           77576                           EXIT     0
000120:
000121:                                                                                                  #  ENTER AT TOP2 IF GIMBAL ANGLES, AZIMUTH, LATITUDE ALREADY KEYED IN
000122:
000123:
000124:
000125: 21,6100           05654        TOP2               TC       BANKCALL                              #  GO AND START CDU ZEROING
000126: 21,6101           30000                           CADR     IMUZERO
000127:
000128: 21,6102           02362                           TC       NEWMODE
000129: 21,6103           00001                           OCT      01                                    #  INITIALIZATION.
000130:
000131: 21,6104           33527                           CAF      NINETEEN                              #  INITIALIZE ERASABLE MEMORY TO ZEROS
000132: 21,6105           31446        ZEROS1             XCH      THETAY
000133: 21,6106           35501                           CAF      ZERO
000134: 21,6107           21446                           INDEX    THETAY
000135: 21,6110           51356                           TS       FILTER
000136: 21,6111           11446                           CCS      THETAY
000137: 21,6112           06105                           TC       ZEROS1
000138:
000139: 21,6113           33517                           CAF      ELEVEN
000140: 21,6114           31446        ZEROS2             XCH      THETAY
000141: 21,6115           35501                           CAF      ZERO
000142: 21,6116           21446                           INDEX    THETAY
000143: 21,6117           51446                           TS       THETAY
000144: 21,6120           11446                           CCS      THETAY
000145: 21,6121           06114                           TC       ZEROS2
000146:
000147: 21,6122           33553                           CAF      SIXHNDRD                              #  INITIALIZE FOR 5 MIN VERTICAL
000148: 21,6123           51320                           TS       GYROCSW
000149:
000150: 21,6124           05654                           TC       BANKCALL                              #  INITIALIZATION COMPLETE SO STALL
000151: 21,6125           30331                           CADR     IMUSTALL
000152: 21,6126           06760                           TC       PRELEXIT
000153:
000154:
000155:
000156: 21,6127           41322                           CS       PRELXGA                               #  LOAD DESIRED CDU ANGLES.
000157: 21,6130           40000                           COM
000158: 21,6131           50700                           TS       THETAD
000159: 21,6132           41323                           CS       PRELYGA
000160: 21,6133           40000                           COM
000161: 21,6134           50701                           TS       THETAD     +1
000162: 21,6135           41324                           CS       PRELZGA
000163: 21,6136           40000                           COM
000164: 21,6137           50702                           TS       THETAD     +2
000165: 21,6140           02276                           TC       PHASCHNG                              #  GO INTO COARSE ALIGN PHASE.
000166: 21,6141           02103                           OCT      02103                                 #  3.17 RESTART.
000167:
000168: 21,6142           05654        REPL11             TC       BANKCALL
000169: 21,6143           30104                           CADR     IMUCOARS
000170:
000171: 21,6144           05654                           TC       BANKCALL                              #  NOTHING TO DO BUT SPEEP
000172: 21,6145           30331                           CADR     IMUSTALL
000173: 21,6146           06760                           TC       PRELEXIT
000174:
000175:
000176:
000177: 21,6147           02276        STARTPL2           TC       PHASCHNG                              #  START FINE ALIGN - INITIALIZATION PHASE.
000178: 21,6150           02203                           OCT      02203                                 #  3.18 RESTART.
000179:
000180: 21,6151           05654        REPL12             TC       BANKCALL
000181: 21,6152           30143                           CADR     IMUFINE
000182:
000183: 21,6153           02677                           TC       READTIME
000184: 21,6154           40572                           CS       RUPTSTOR
000185: 21,6155           51370                           TS       PREVTIME
000186: 21,6156           40573                           CS       RUPTSTOR   +1
000187: 21,6157           51371                           TS       PREVTIME   +1
000188: 21,6160           20016                           RELINT
000189:
000190: 21,6161           05654                           TC       BANKCALL                              #  SLEEP
000191: 21,6162           30331                           CADR     IMUSTALL
000192: 21,6163           06760                           TC       PRELEXIT
000193:
000194:
000195:
000196: 21,6164           02362                           TC       NEWMODE                               #  SET MAJOR MODE TO VERTICAL ERECTION
000197: 21,6165           00005                           OCT      5                                     #  (COUNTING)
000198:
000199: 21,6166           35501                           CAF      ZERO
000200: 21,6167           51332                           TS       INFLANG
000201: 21,6170           51333                           TS       INFLANG    +1
000202: 21,6171           51334                           TS       INFLANG    +2
000203: 21,6172           51335                           TS       INFLANG    +3
000204: 21,6173           51336                           TS       INFLANG    +4
000205: 21,6174           51337                           TS       INFLANG    +5
000206: 21,6175           50045                           TS       PIPAY                                 #  SET ALL PIPAS TO ZERO
000207: 21,6176           50046                           TS       PIPAZ
000208: 21,6177           50044                           TS       PIPAX
000209:
000210: 21,6200           33516                           CAF      NINE
000211: 21,6201           51321                           TS       PRELTEMP
000212:
000213: 21,6202           37023                           CAF      PLPIPADT                              #  SET UP DELTA TIME FOR IMU COMPENSATION.
000214: 21,6203           50755                           TS       1/PIPADT
000215: 21,6204           20017                           INHINT
000216: 21,6205           37014                           CAF      PRELDT                                #  SET WAITLIST TO WAKE JOB
000217: 21,6206           02173                           TC       WAITLIST
000218: 21,6207           42211                           CADR     PRELALTS
000219:
000220: 21,6210           02124                           TC       ENDOFJOB
000221:
000222:
000223:                                                                                                  #        PRELAUNCH WAITLIST TASK - EXECUTED EVERY .5 SEC. IN LOOP.
000224:
000225: 21,6211           36264        PRELALTS           CAF      PIPCAD21
000226: 21,6212           05750                           TC       ISWCALL
000227:
000228: 21,6213           33530                           CAF      TWENTY0
000229: 21,6214           02312                           TC       NEWPHASE
000230: 21,6215           00003                           OCT      3
000231:
000232: 21,6216           40036        REDO3.20           CS       TIME1
000233: 21,6217           50665                           TS       TBASE3
000234:
000235: 21,6220           35503                           CAF      TWO
000236: 21,6221           51035                           TS       PIPAGE
000237:
000238: 21,6222           30006                           XCH      IN2                                   #  TEST IN2 FOR GRR OR LIFT-OFF
000239: 21,6223           30006                           XCH      IN2
000240: 21,6224           77031                           MASK     BITS56
000241: 21,6225           10000                           CCS      A
000242: 21,6226           06242                           TC       PRELTERM
000243:
000244: 21,6227           34515                           CAF      BIT2                                  #  CHECK IF LIFT-OFF HAS OCCURRED
000245: 21,6230           70646                           MASK     FLAGWRD1
000246: 21,6231           10000                           CCS      A
000247: 21,6232           06242                           TC       PRELTERM                              #  IT HAS. TERMINATE PRELAUNCH
000248:
000249: 21,6233           37014                           CAF      PRELDT                                #  SELF-SUSTAINING WAITLIST CALL
000250: 21,6234           02173                           TC       WAITLIST
000251: 21,6235           42211                           CADR     PRELALTS
000252:
000253: 21,6236           34501        NOPLWAIT           CAF      PRIO20
000254: 21,6237           02046                           TC       FINDVAC
000255: 21,6240           42270                           CADR     PRAWAKE
000256:
000257: 21,6241           02256                           TC       TASKOVER                              #  RESUME
000258:
000259: 21,6242           40573        PRELTERM           CS       RUPTSTOR   +1                         #  N.B. READTIME IS DONE IN PIPASR ABOVE
000260: 21,6243           51467                           TS       TIME1GR
000261: 21,6244           40572                           CS       RUPTSTOR
000262: 21,6245           51466                           TS       TIME2GR
000263:
000264: 21,6246           41467                           CS       TIME1GR
000265: 21,6247           50667                           TS       TBASE5
000266:
000267: 21,6250           34516                           CAF      ONE
000268: 21,6251           02312                           TC       NEWPHASE
000269: 21,6252           00005                           OCT      00005
000270:
000271: 21,6253           10000                           CCS      A
000272: 21,6254           06236                           TC       NOPLWAIT
000273: 21,6255           06256                           TC       +1
000274:
000275: 21,6256           37026                           CAF      2SEC21                                #  CALL READACCS IN 2 SECS
000276: 21,6257           02173                           TC       WAITLIST
000277: 21,6260           65344                           CADR     READACCS
000278:
000279: 21,6261           06236                           TC       NOPLWAIT
000280:
000281: 21,6262           36265        REPRELAL           CAF      REPIP21
000282: 21,6263           06212                           TC       PRELALTS   +1
000283:
000284: 21,6264           61307        PIPCAD21           CADR     PIPASR
000285: 21,6265           61360        REPIP21            CADR     REPIPASR
000286:
000287:
000288: 21,6266           07233        REDO3.21           TC       PRLRSTOR
000289: 21,6267           06301                           TC       RE3.21
000290:
000291: 21,6270           07204        PRAWAKE            TC       PRLSAVE
000292:
000293: 21,6271           10654                           CCS      PHASE5                                #  CHECK IF GRR HAS OCCURED.
000294: 21,6272           33527                           CAF      NINETEEN                              #  3.19 RESTART.
000295: 21,6273           06275                           TC       +2
000296: 21,6274           33531                           CAF      TWENTY1                               #  3.21 RESTART.
000297: 21,6275           02312                           TC       NEWPHASE
000298: 21,6276           00003                           OCT      3
000299:
000300: 21,6277           05654                           TC       BANKCALL
000301: 21,6300           31007                           CADR     1/PIPA
000302:
000303: 21,6301           04000        RE3.21             TC       INTPRET
000304:
000305: 21,6302           43176                           SMOVE    0                                     #  ZERO TO THEAT-SOUTH
000306: 21,6303           03017                                    ZEROPR
000307: 21,6304           33455                           STORE    THETASTH
000308:
000309: 21,6305           47576                           NOLOD    0
000310: 21,6306           33457                           STORE    THETAE                                #  ZERO TO THETA EAST
000311:
000312: 21,6307           76575                           RTB      1
000313: 21,6310           57176                           SIN
000314: 21,6311           20270                                    ZEROVAC
000315: 21,6312           01315                                    LATITUDE
000316: 21,6313           32043                           STORE    SINLAM
000317:
000318: 21,6314           55176                           COS      0
000319: 21,6315           01315                                    LATITUDE
000320: 21,6316           32045                           STORE    COSLAM
000321:
000322: 21,6317           43175                           SMOVE    1
000323: 21,6320           66776                           DSU
000324: 21,6321           03013                                    90DEGAZ
000325: 21,6322           01317                                    AZIMUTH
000326:
000327: 21,6323           57176                           SIN      0
000328: 21,6324           00001                                    0
000329: 21,6325           32003                           STORE    SINAZ
000330:
000331: 21,6326           55176                           COS      0
000332: 21,6327           32005                           STORE    COSAZ
000333:
000334: 21,6330           77576                           EXIT     0
000335:
000336: 21,6331           10654                           CCS      PHASE5                                #  CHECK IF GRR HAS OCCURRED
000337: 21,6332           07044                           TC       PRELTER1
000338: 21,6333           06334                           TC       +1
000339:
000340: 21,6334           02346                           TC       CHECKMM                               #  CHECK IF VERTICAL ERECTION (UNCONDIT.)
000341: 21,6335           00005                           OCT      5
000342: 21,6336           06340                           TC       +2
000343: 21,6337           06463                           TC       NOGYROCM
000344:
000345: 21,6340           02346                           TC       CHECKMM                               #  CHECK IF VERTICAL ERECTION (UNCONDIT.)
000346: 21,6341           00006                           OCT      6
000347: 21,6342           06344                           TC       +2
000348: 21,6343           06471                           TC       TJL
000349:
000350: 21,6344           02346        DOGYROC            TC       CHECKMM                               #  CHECK IF OPTICAL VERIFICATION
000351: 21,6345           00003                           OCT      3
000352: 21,6346           06356                           TC       DOGYROC1
000353:
000354: 21,6347           11325                           CCS      WTRWD
000355: 21,6350           06353                           TC       +3
000356: 21,6351           06353                           TC       +2
000357: 21,6352           06360                           TC       DOGYROC2
000358:
000359: 21,6353           04000        JSTERTHR           TC       INTPRET
000360:
000361: 21,6354           76776                           ITC      0
000362: 21,6355           02364                                    EARTHRR
000363:
000364: 21,6356           02362        DOGYROC1           TC       NEWMODE
000365: 21,6357           00002                           OCT      2
000366:
000367: 21,6360           04000        DOGYROC2           TC       INTPRET
000368:
000369: 21,6361           76776                           ITC      0
000370: 21,6362           02607                                    GYROCOM
000371:
000372: 21,6363           76776        EARTHRR            ITC      0
000373: 21,6364           02527                                    EARTHRAT
000374:
000375: 21,6365           45176        ENDOFPR            DMOVE    0
000376: 21,6366           01465                                    PIPTIME
000377: 21,6367           33371                           STORE    PREVTIME
000378:
000379: 21,6370           77576                           EXIT     0
000380:
000381: 21,6371           11321                           CCS      PRELTEMP
000382: 21,6372           06450                           TC       JUMPY
000383:
000384: 21,6373           10764                           CCS      LGYRO                                 #  IF BUSY GO AROUND LOOP AGAIN
000385: 21,6374           06451                           TC       JUMPY      +1                         #  WAIT TIL NEXT TIME.  PRELTEM = 0 STILL.
000386:
000387: 21,6375           11325        PTORQUE            CCS      WTRWD
000388: 21,6376           06403                           TC       PTORQUE1
000389: 21,6377           06401                           TC       +2
000390: 21,6400           06403                           TC       PTORQUE1
000391: 21,6401           34335                           CAF      NEG1
000392: 21,6402           51325                           TS       WTRWD
000393:
000394: 21,6403           35501        PTORQUE1           CAF      ZERO                                  #  INITIALIZE TORQUING REGISTERS AND RESET
000395: 21,6404           31452                           XCH      THETAX
000396: 21,6405           61333                           AD       INFLANG    +1
000397: 21,6406           51341                           TS       GYROANG    +1
000398: 21,6407           35501                           CAF      ZERO
000399: 21,6410           61332                           AD       INFLANG
000400: 21,6411           51340                           TS       GYROANG
000401:
000402:
000403:
000404: 21,6412           35501                           CAF      ZERO
000405: 21,6413           31446                           XCH      THETAY
000406: 21,6414           61335                           AD       INFLANG    +3
000407: 21,6415           51343                           TS       GYROANG    +3
000408: 21,6416           35501                           CAF      ZERO
000409: 21,6417           61334                           AD       INFLANG    +2
000410: 21,6420           51342                           TS       GYROANG    +2
000411:
000412: 21,6421           35501                           CAF      ZERO
000413: 21,6422           31450                           XCH      THETAZ
000414: 21,6423           61337                           AD       INFLANG    +5
000415: 21,6424           51345                           TS       GYROANG    +5
000416: 21,6425           35501                           CAF      ZERO
000417: 21,6426           61336                           AD       INFLANG    +4
000418: 21,6427           51344                           TS       GYROANG    +4
000419:
000420: 21,6430           35501                           CAF      ZERO
000421: 21,6431           51332                           TS       INFLANG
000422: 21,6432           51333                           TS       INFLANG    +1
000423: 21,6433           51334                           TS       INFLANG    +2
000424: 21,6434           51335                           TS       INFLANG    +3
000425: 21,6435           51336                           TS       INFLANG    +4
000426: 21,6436           51337                           TS       INFLANG    +5
000427:
000428: 21,6437           33516                           CAF      NINE
000429: 21,6440           51321                           TS       PRELTEMP
000430:
000431: 21,6441           02276                           TC       PHASCHNG
000432: 21,6442           02603                           OCT      02603
000433:
000434: 21,6443           20017                           INHINT                                         #  SET UP TORQUING JOB
000435: 21,6444           32162                           CAF      PRIO27
000436: 21,6445           02052                           TC       NOVAC
000437: 21,6446           42454                           CADR     SPITGYRO
000438: 21,6447           02124                           TC       ENDOFJOB
000439:
000440: 21,6450           51321        JUMPY              TS       PRELTEMP
000441:
000442: 21,6451           02276                           TC       PHASCHNG
000443: 21,6452           02603                           OCT      02603
000444:
000445: 21,6453           02124                           TC       ENDOFJOB
000446:
000447:
000448:
000449: 21,6454           37042        SPITGYRO           CAF      LGYROANG
000450: 21,6455           05654                           TC       BANKCALL
000451: 21,6456           31421                           CADR     GYRODPNT
000452:
000453: 21,6457           05654                           TC       BANKCALL
000454: 21,6460           30331                           CADR     IMUSTALL
000455: 21,6461           02124                           TC       ENDOFJOB
000456: 21,6462           02124                           TC       ENDOFJOB
000457:
000458:
000459:                                                                                                  #        VERTICAL ERECTION PROCEDURES.
000460:
000461: 21,6463           11320        NOGYROCM           CCS      GYROCSW                               #  COUNT DOWN FOR 5 MIN OF VERTICAL ERECT.
000462: 21,6464           06470                           TC       MORE                                  #   IF MORE TO COME.
000463: 21,6465           02362                           TC       NEWMODE                               #  IF NOT, GO INTO GYROCOMP. (MM 02)
000464: 21,6466           00002                           OCT      2
000465:
000466: 21,6467           06471                           TC       +2
000467:
000468: 21,6470           51320        MORE               TS       GYROCSW
000469:
000470: 21,6471           04000        TJL                TC       INTPRET
000471:
000472: 21,6472           76776                           ITC      0
000473: 21,6473           02527                                    EARTHRAT
000474:
000475: 21,6474           66775                           DSU      1
000476: 21,6475           64742                           DMP      DAD
000477: 21,6476           01004                                    DELVY
000478: 21,6477           01363                                    FILDELY
000479: 21,6500           02777                                    VERECTC3
000480: 21,6501           01363                                    FILDELY
000481: 21,6502           33363                           STORE    FILDELY
000482:
000483: 21,6503           53575                           AXC,1    1
000484: 21,6504           52572                           AXC,2    ITC
000485: 21,6505           00003                                    2
000486: 21,6506           00001                                    0
000487: 21,6507           02673                                    VERECT
000488:
000489: 21,6510           66775                           DSU      1
000490: 21,6511           64742                           DMP      DAD
000491: 21,6512           01006                                    DELVZ
000492: 21,6513           01361                                    FILDELZ
000493: 21,6514           02777                                    VERECTC3
000494: 21,6515           01361                                    FILDELZ
000495: 21,6516           33361                           STORE    FILDELZ
000496:
000497: 21,6517           53574                           AXC,1    2
000498: 21,6520           47433                           NOLOD    COMP
000499: 21,6521           76776                           ITC
000500: 21,6522           00001                                    0
000501: 21,6523           02673                                    VERECT
000502:
000503: 21,6524           76776                           ITC      0
000504: 21,6525           02366                                    ENDOFPR
000505:
000506:
000507:                                                                                                  #        CALCULATION OF EARTH RATE
000508:
000509: 21,6526           66775        EARTHRAT           DSU      1
000510: 21,6527           63666                           TSLT     DMPR
000511: 21,6530           01465                                    PIPTIME
000512: 21,6531           01371                                    PREVTIME
000513: 21,6532           00014                                    11D
000514: 21,6533           03022                                    GOMEGA
000515:
000516: 21,6534           64775                           DMP      1                                     #   SIN(LAMBDE).DT.LENGTH OMEGA + THETA X
000517: 21,6535           63742                           TSLT     DAD
000518: 21,6536           00001                                    0
000519: 21,6537           00043                                    SINLAM
000520: 21,6540           00002                                    1
000521: 21,6541           01453                                    THETAX
000522: 21,6542           33453                           STORE    THETAX
000523:
000524: 21,6543           64775                           DMP      1                                     #  -COS(LAMBDA).DT.LENGTH OMEGA + THETA STH
000525: 21,6544           63726                           TSLT     BDSU
000526: 21,6545           77777                                    -
000527: 21,6546           00045                                    COSLAM
000528: 21,6547           00002                                    1
000529: 21,6550           01455                                    THETASTH
000530: 21,6551           33455                           STORE    THETASTH
000531:
000532: 21,6552           64775                           DMP      1                                     #   COS(AZIMUTH). SOUTH COMPONENT
000533: 21,6553           63776                           TSLT
000534: 21,6554           01455                                    THETASTH                              #                        TO P.D. LIST
000535: 21,6555           00005                                    COSAZ
000536: 21,6556           00002                                    1
000537:
000538: 21,6557           64774                           DMP      2                                     #   Y COMPONENT = SIN(AZIMUTH).EAST COMP
000539: 21,6560           63742                           TSLT     DAD                                   #                   + COS(AZIMUTH). SOUTH
000540: 21,6561           70776                           DAD
000541: 21,6562           01457                                    THETAE                                #                                    COMP
000542: 21,6563           00003                                    SINAZ
000543: 21,6564           00002                                    1
000544: 21,6565           01447                                    THETAY
000545: 21,6566           33447                           STORE    THETAY
000546:
000547: 21,6567           64775                           DMP      1                                     #   SIN(AZIMUTH). SOUTH COMPONENT
000548: 21,6570           63776                           TSLT
000549: 21,6571           00003                                    SINAZ                                 #                        TO P.D. LIST
000550: 21,6572           01455                                    THETASTH
000551:
000552: 21,6573           00002                                    1
000553: 21,6574           64774                           DMP      2                                     #  Z COMPONENT = COS(AZIMUTH.EAST COMP
000554: 21,6575           63732                           TSLT     DSU
000555: 21,6576           70776                           DAD
000556: 21,6577           00005                                    COSAZ                                 #               -SIN(AZIMUTH).SOUTH COMP
000557: 21,6600           01457                                    THETAE
000558: 21,6601           00002                                    1
000559: 21,6602           77777                                    -
000560: 21,6603           01451                                    THETAZ
000561: 21,6604           33451                           STORE    THETAZ
000562:
000563: 21,6605           40576                           ITCQ     0
000564:
000565:
000566:                                                                                                  #        COMPUTATION OF GYROCOMPASS COMMAND
000567:
000568: 21,6606           45575        GYROCOM            ITA      1
000569: 21,6607           64716                           DMP      TSLT
000570: 21,6610           00052                                    S2
000571: 21,6611           01006                                    DELVZ
000572: 21,6612           00005                                    COSAZ
000573: 21,6613           00002                                    1
000574:
000575: 21,6614           64775                           DMP      1                                     #  DELTA-V(EAST)= COS(AZ).DELTA-V(Z)
000576: 21,6615           63742                           TSLT     DAD
000577: 21,6616           01004                                    DELVY
000578: 21,6617           00003                                    SINAZ
000579: 21,6620           00002                                    1
000580: 21,6621           33361                           STORE    DELE
000581:
000582: 21,6622           53574                           AXC,1    2
000583: 21,6623           52435                           AXC,2    NOLOD
000584: 21,6624           47172                           COMP     ITC
000585: 21,6625           00007                                    6
000586: 21,6626           00003                                    2
000587: 21,6627           02673                                    VERECT
000588:
000589: 21,6630           64775                           DMP      1                                     #  SIN(AZ).DELTA-V(Z)
000590: 21,6631           63776                           TSLT
000591: 21,6632           01006                                    DELVZ
000592: 21,6633           00003                                    SINAZ
000593: 21,6634           00002                                    1
000594:
000595: 21,6635           64775                           DMP      1                                     #  DELTA-V(SOUTH= COS(AZ.DELTA-V(Y)
000596: 21,6636           63732                           TSLT     DSU
000597: 21,6637           01004                                    DELVY
000598: 21,6640           00005                                    COSAZ
000599: 21,6641           00002                                    1
000600: 21,6642           33363                           STORE    DELS
000601:
000602: 21,6643           64776                           DMP      0
000603: 21,6644           01363                                    DELS                                  #   C1. DELTA-V(SOUTH) TO P.D. LIST
000604: 21,6645           03001                                    GYRCMC1
000605:
000606: 21,6646           64775                           DMP      1                                     #  FILTER = C1. DELTA-V(SOUTH)
000607: 21,6647           70776                           DAD                                            #          +C2. FILTER
000608: 21,6650           01357                                    FILTER
000609: 21,6651           03003                                    GYRCMC2
000610: 21,6652           33357                           STORE    FILTER
000611:
000612: 21,6653           47574                           NOLOD    2
000613: 21,6654           64716                           DMP      TSLT
000614: 21,6655           70776                           DAD
000615: 21,6656           03005                                    GYRCMC3
000616: 21,6657           00010                                    7
000617: 21,6660           01453                                    THETAX
000618: 21,6661           33453                           STORE    THETAX
000619:
000620: 21,6662           64775                           DMP      1                                     #  EAST-TORQUING ANGLE = C4.FILTER
000621: 21,6663           63776                           TSLT
000622: 21,6664           01363                                    DELS
000623: 21,6665           03007                                    GYRCMC4
000624: 21,6666           00004                                    3
000625: 21,6667           33457                           STORE    THETAE
000626:
000627: 21,6670           44576                           ITCI     0
000628: 21,6671           00052                                    S2
000629:
000630:
000631:                                                                                                  #  VERTICAL ERECTION SUBROUTINE
000632:
000633:                                                                                                  #  VERECT - VERTICAL ERECTION      ENTERED IN INT. MODE WITH
000634:                                                                                                  #                    SUBROUTINE            C(X1)= 2 FOR C(MPAC)= DEL-V Y
000635:                                                                                                  #                                               = 0     C(MPAC)=-DEL-V Z
000636:                                                                                                  #                                               = 6 FOR C(MPAC)=-DEL-V E
000637:                                                                                                  #                                   FOR THESE THREE CASES OUTPUT WILL BE
000638:                                                                                                  #                                                THETA-Z
000639:                                                                                                  #                                                THETA-Y
000640:                                                                                                  #                                                THETA-S RESPECTIVELY.
000641:                                                                                                  #                                   LOOP CONSTANTS ARE DETERMINED BY
000642:                                                                                                  #                                          C(X2)= 0 NO GYROCOMPASSING
000643:                                                                                                  #                                                 2    GYROCOMPASSING
000644:
000645:
000646:
000647: 21,6672           47576        VERECT             NOLOD    0
000648:
000649: 21,6673           32001                           STORE    0
000650:
000651: 21,6674           47575                           NOLOD    1
000652: 21,6675           70376                           DAD*
000653: 21,6676           02751                                    INT,1                                 #  COMPUTE INTEGRAL OF DEL-V = INT
000654: 21,6677           36751                           STORE    INT,1
000655:
000656: 21,6700           45175                           DMOVE    1
000657: 21,6701           64316                           DMP*     TSLT
000658: 21,6702           00001                                    0
000659: 21,6703           05756                                    VERECTC1,2
000660: 21,6704           00006                                    5
000661:
000662: 21,6705           64375                           DMP*     1
000663: 21,6706           70342                           DAD*     DAD
000664: 21,6707           02751                                    INT,1                                 #  THETA = THETA + C1 DEL-V  + C2 INT
000665: 21,6710           05766                                    VERECTC2,2
000666: 21,6711           03115                                    THETAY,1
000667: 21,6712           37115                           STORE    THETAY,1
000668:
000669: 21,6713           40576                           ITCQ     0
000670:
000671:
000672:                                                                                                  #        PRELAUNCH MANUAL REQUEST PROCESSOR.
000673:
000674: 21,6714           34501        STARTPL            CAF      PRIO20                                #  ENTER EXECUTIVE REQUEST ON START-UP.
000675: 21,6715           02046                           TC       FINDVAC
000676: 21,6716           42147                           CADR     STARTPL2
000677: 21,6717           05702                           TC       SWRETURN
000678:
000679: 21,6720           44513        PLSTCHK            CS       EIGHT                                 #  PRELAUNCH COMES HERE WHENEVER A PHASE
000680: 21,6721           60115                           AD       MPAC                                  #  REFERENCE IS MADE TO SEE IF A MANUAL
000681: 21,6722           10000                           CCS      A                                     #  REQUEST HAS BEEN ENTERED THROUGH MASTER
000682: 21,6723           00001                           TC       Q                                     #  CONTROL. ALL SUCH PHASES ARE LESS THAN 8
000683: 21,6724           24000        PLPRIO             OCT      24000
000684: 21,6725           06726                           TC       +1
000685:
000686: 21,6726           20115                           INDEX    MPAC                                  #  SEE WHICH MANUAL MODE REQUESTED.
000687: 21,6727           06727                           TC       +0
000688: 21,6730           06000                           TC       TOP1                                  #  1 - INITIALIZATION 1.
000689: 21,6731           06100                           TC       TOP2                                  #  2 - INITIALIZATION 2.
000690: 21,6732           07262                           TC       OPTCHK                                #  3 - DO OPTICAL CHECK
000691:
000692: 21,6733           10727        PLFINCHK           CCS      WASKSET                               #  SEE IF IN FINE ALIGN.
000693: 21,6734           06740                           TC       3CHECK
000694: 21,6735           06760                           TC       PRELEXIT                              #  SYSTEM IN BAD SHAPE.
000695: 21,6736           06745                           TC       DOPLCHNG                              #  DO THE CHANGE ANYWAY.
000696: 21,6737           06760                           TC       PRELEXIT                              #  SYSTEM IN BAD SHAPE.
000697:
000698: 21,6740           66743        3CHECK             AD       -CCSFINE
000699: 21,6741           10000                           CCS      A
000700: 21,6742           06000                           TC       TOP1
000701: 21,6743           77730        -CCSFINE           OCT      -47                                   #  WASKSET IS 50 FOR FINE ALIGN.
000702: 21,6744           06000                           TC       TOP1
000703:
000704: 21,6745           20115        DOPLCHNG           INDEX    MPAC
000705: 21,6746           06744                           TC       -2
000706: 21,6747           06753                           TC       DOPL14
000707:
000708: 21,6750           02362        DOPL15             TC       NEWMODE                               #  SET MAJOR MODE TO GYROCOMPASSING
000709: 21,6751           00002                           OCT      2
000710:
000711: 21,6752           06344                           TC       DOGYROC
000712:
000713: 21,6753           02362        DOPL14             TC       NEWMODE                               #  SET MAJOR MODE TO UNCONDITIONAL VERT-
000714: 21,6754           00006                           OCT      6                                     #  ICAL ERECTION
000715:
000716: 21,6755           06471                           TC       TJL
000717:
000718:
000719:                                                                                                  #        PRELAUNCH GO-SEQUENCE PROCESSOR.
000720:
000721:                                                                                                  #          HAS BEEN DELETED.  SEE GENERAL RESTARTS.   ...DJL
000722:
000723: 21,6756           00050        FINECODE           OCT      50                                    #  FINE ALIGN AND COMPUTER CONTROL.
000724:
000725:                                                                                                  #        PRELAUNCH TERMINATION.
000726:
000727: 21,6757           03370                           TC       FREEDSP
000728: 21,6760           05654        PRELEXIT           TC       BANKCALL                              #  RETURN IMU TO MANUAL CONTROL.
000729: 21,6761           30241                           CADR     IMUFINIS
000730:
000731: 21,6762           44516        ENDJ3OUT           CS       ONE
000732: 21,6763           02312                           TC       NEWPHASE
000733: 21,6764           00003                           OCT      3
000734:
000735: 21,6765           02124                           TC       ENDOFJOB
000736:
000737:
000738:                                                                                                  #  PRELAUNCH BANK STORED CONSTANTS
000739:
000740: 21,6766           24000 00000  VERECTC1           2DEC     20.        B-5                        #  VERTICAL LOOP CONSTANTS
000741: 21,6770           02000 00000                     2DEC     2          B-5
000742: 21,6772           14631 23146  VERECTC2           2DEC     .4
000743: 21,6774           00101 21116                     2DEC     .004
000744: 21,6776           03146 14632  VERECTC3           2DEC     .1
000745: 21,7000           03146 14632  GYRCMC1            2DEC     0.1
000746: 21,7002           34631 23146  GYRCMC2            2DEC     0.9
000747: 21,7004           56777 77777  GYRCMC3            2DEC     -68        B-7
000748: 21,7006           20000 00000  GYRCMC4            2DEC     4          B-3
000749: 21,7010           03610 01227  LABLAT             2DEC     .117678252                            #  LATITUDE OF IL-7
000750: 21,7012           10000 00000  90DEGAZ            2DEC     .25                                   #  90 DEG. FROM NORTH = EAST
000751: 21,7014           00062        PRELDT             DEC      .5         E2                         #  HALF SECOND PRELAUNCH CYCLE
000752:
000753: 21,7015           42270        WAKEPRAD           CADR     PRAWAKE                               #  WAKING ADDRESS FOR PRELAUNCH
000754:
000755: 21,7016           00000        ZEROPR             OCT      0                                     #  OUR OWN PERSONAL COPY OF ZERO
000756:
000757: 21,7017           03711 33265  LOMEGA             2DEC     .12169524                             #  EARTH RATE IN IRIG PULSES PER .01 SEC.
000758: 21,7021           37116 32652  GOMEGA             2DEC     0.97356192                            #  EARTH RATE IN IRIG PULSES/CS
000759: 21,7023           06200        PLPIPADT           DEC      50         B+6
000760: 21,7024           77746        -.25SC21           DEC      -25        B-14
000761: 21,7025           77715        NEG.5SEC           DEC      -50        B-14
000762:
000763: 21,7026           00310        2SEC21             DEC      200        B-14
000764: 21,7027           00000 00372  DP2.5SEC           2DEC     250        B-28
000765: 21,7031           00060        BITS56             DEC      48         B-14
000766: 21,7032           37116 32666  SIDEDAYS           2DEC*    .011605763 E-5        B23*            #  FRACTION OF T2-T1 IN SIDEREAL DAY
000767: 21,7034           13644 33772  LOCALUP            2DEC     .738876298 B-1
000768: 21,7036           00000 00000                     2DEC     .0                                    #  VECTOR AT TIME C(T2,T1) = 0
000769: 21,7040           12620 03315                     2DEC     .673841098 B-1
000770: 21,7042           01340        LGYROANG           ADRES    GYROANG
000771: 21,7043           00011        IX                 DEC      9          B-14
000772:
000773:
000774:                                                                                                  #  PRELAUNCH TERMINATION PHASE(AFTER G.R. SIGNAL)
000775:
000776:
000777:
000778: 21,7044           04000        PRELTER1           TC       INTPRET
000779:
000780: 21,7045           70776                           DAD      0
000781: 21,7046           01371                                    PREVTIME
000782: 21,7047           03030                                    DP2.5SEC
000783: 21,7050           33371                           STORE    PREVTIME
000784:
000785: 21,7051           76776                           ITC      0
000786: 21,7052           02527                                    EARTHRAT                              #  CHANGED BY MR. FIXIT.
000787:
000788: 21,7053           77576                           EXIT     0
000789:
000790: 21,7054           35501                           CAF      ZERO
000791: 21,7055           51340                           TS       GYROANG
000792: 21,7056           51342                           TS       GYROANG    +2
000793: 21,7057           51344                           TS       GYROANG    +4
000794:
000795: 21,7060           31452                           XCH      THETAX
000796: 21,7061           51341                           TS       GYROANG    +1
000797: 21,7062           31446                           XCH      THETAY
000798: 21,7063           51343                           TS       GYROANG    +3
000799: 21,7064           31450                           XCH      THETAZ
000800: 21,7065           51345                           TS       GYROANG    +5
000801:
000802: 21,7066           20017                           INHINT
000803: 21,7067           32164                           CAF      PRIO31                                #   CHANGED BY MR. FIXIT.
000804: 21,7070           02052                           TC       NOVAC
000805: 21,7071           42454                           CADR     SPITGYRO
000806: 21,7072           20016                           RELINT
000807:
000808: 21,7073           02362                           TC       NEWMODE
000809: 21,7074           00004                           OCT      04                                    #  INERTIAL REFERENCE.
000810:
000811: 21,7075           04000                           TC       INTPRET
000812:
000813: 21,7076           70776                           DAD      0                                     #  FORM TIME SINCE LAUNCH VECTOR IN
000814: 21,7077           01074                                    DTEPOCH                               #  INERTIAL Z-X PLANE
000815: 21,7100           01467                                    TIME2GR
000816: 21,7101           33145                           STORE    DTEAROT
000817:
000818: 21,7102           76776                           ITC      0                                     #  BRANCH TO FORCE WT TO LESS THAN 1 REV
000819: 21,7103           13554                                    EARROT2
000820:
000821: 21,7104           57176                           SIN      0                                     #  FORM INERTIAL Z-X PLANE LOCAL VERTICAL
000822: 21,7105           01315                                    LATITUDE
000823: 21,7106           45176                           DMOVE    0
000824: 21,7107           05174                                    ZERODP
000825:
000826: 21,7110           55175                           COS      1
000827: 21,7111           41176                           VDEF
000828: 21,7112           01315                                    LATITUDE
000829: 21,7113           32041                           STORE    VAC
000830:
000831: 21,7114           43576                           TEST     0                                     #  TEST IF BIT IS ON. IF NOT SET IT ON
000832: 21,7115           00006                                    NBSMBIT
000833: 21,7116           03177                                    NBITON
000834:
000835: 21,7117           75575        ROTXY              AXT,1    1                                     #  ROTATE PROJECTION OF LOCAL VERTICAL ON
000836: 21,7120           74572                           AXT,2    ITC                                   #  INERTIAL X-Y PLANE ABOUT Z-AXIS
000837: 21,7121           00003                                    2
000838: 21,7122           00005                                    4
000839: 21,7123           04566                                    ACCUROT
000840:
000841: 21,7124           47576                           NOLOD    0
000842: 21,7125           33052                           STORE    REFSMMAT                              #  PRESENT LOCAL VERTICAL VECTOR IS X-AXIS
000843:
000844: 21,7126           45176                           DMOVE    0
000845: 21,7127           05174                                    ZERODP
000846:
000847: 21,7130           45176                           DMOVE    0
000848: 21,7131           00041                                    VAC
000849:
000850: 21,7132           47175                           COMP     1                                     #  FORM UNIT EAST VECTOR AT GRR
000851: 21,7133           41153                           VDEF     UNIT
000852: 21,7134           00043                                    VAC        +2
000853:
000854: 21,7135           47575                           NOLOD    1                                     #  FORM UNIT SOUTH VECTOR
000855: 21,7136           41753                           VXV      UNIT
000856: 21,7137           01052                                    REFSMMAT
000857:
000858: 21,7140           66776                           DSU      0                                     #  FORM AZIMUTH SOUTH OF EAST AT GRR
000859: 21,7141           01317                                    AZIMUTH
000860: 21,7142           03013                                    90DEGAZ
000861: 21,7143           32037                           STORE    30D
000862:
000863: 21,7144           47575                           NOLOD    1
000864: 21,7145           57166                           SIN      VXSC
000865: 21,7146           33066                           STORE    REFSMMAT   +12D                       #  (TEMPORARY STORAGE)
000866:
000867: 21,7147           55174                           COS      2                                     #  FORM SM Z-AXIS
000868: 21,7150           75642                           VXSC     VAD
000869: 21,7151           73176                           UNIT
000870: 21,7152           00037                                    30D
000871: 21,7153           77777                                    -
000872: 21,7154           01066                                    REFSMMAT   +12D
000873: 21,7155           33066                           STORE    REFSMMAT   +12D
000874:
000875: 21,7156           47575                           NOLOD    1                                     #  FORM SM Y-AXIS BY CROSS PRODUCT
000876: 21,7157           41753                           VXV      UNIT
000877: 21,7160           01052                                    REFSMMAT
000878: 21,7161           33060                           STORE    REFSMMAT   +6
000879:
000880: 21,7162           41775                           VXV      1                                     #  INITIALISE VN, GRAVITY GIVEN RN, UNITW
000881: 21,7163           75776                           VXSC
000882: 21,7164           01044                                    UNITW
000883: 21,7165           00766                                    RN                                    #  SCALED AT 2(+25) METERS
000884: 21,7166           03203                                    WIE
000885: 21,7167           32774                           STORE    VN                                    #  SCALED AT 2(+7)M/CS
000886:
000887: 21,7170           75175                           VMOVE    1
000888: 21,7171           76776                           ITC
000889: 21,7172           00766                                    RN
000890: 21,7173           21632                                    CALCGRAV
000891:
000892: 21,7174           77576                           EXIT     0
000893:
000894: 21,7175           06762                           TC       ENDJ3OUT                              #  TERMINATE PRELAUNCH. (PHASE = INACTIVE.)
000895:
000896:
000897:
000898: 21,7176           42575        NBITON             SWITCH   1
000899: 21,7177           76776                           ITC
000900: 21,7200           00006                                    NBSMBIT
000901: 21,7201           03120                                    ROTXY
000902:
000903: 21,7202           06073 36042  WIE                2DEC*    7.29211505 E-7        B+18*           #  RAD/CS SCALED AT 2(-18)
000904:
000905:
000906: 21,7204           30001        PRLSAVE            XCH      Q                                     #  SAVE CURRENT VARIABLES FOR RESTARTS
000907: 21,7205           50116                           TS       MPAC       +1
000908:
000909: 21,7206           33521                           CAF      THIRTEEN
000910: 21,7207           50115        AGAIN1             TS       MPAC
000911: 21,7210           20115                           INDEX    MPAC
000912: 21,7211           41356                           CS       FILTER
000913: 21,7212           20115                           INDEX    MPAC
000914: 21,7213           51243                           TS       PTEMP
000915: 21,7214           10115                           CCS      MPAC
000916: 21,7215           07207                           TC       AGAIN1
000917:
000918: 21,7216           33517                           CAF      ELEVEN
000919: 21,7217           50115        AGAIN2             TS       MPAC
000920: 21,7220           20115                           INDEX    MPAC
000921: 21,7221           41446                           CS       THETAY
000922: 21,7222           20115                           INDEX    MPAC
000923: 21,7223           51261                           TS       PTEMP      +14D
000924: 21,7224           10115                           CCS      MPAC
000925: 21,7225           07217                           TC       AGAIN2
000926:
000927: 21,7226           41321                           CS       PRELTEMP
000928: 21,7227           51275                           TS       PTEMP      +26D
000929: 21,7230           41320                           CS       GYROCSW
000930: 21,7231           51276                           TS       PTEMP      +27D
000931:
000932: 21,7232           00116                           TC       MPAC       +1
000933:
000934: 21,7233           30001        PRLRSTOR           XCH      Q                                     #  RESTORE OLD VALUES OF VARIABLES
000935: 21,7234           50116                           TS       MPAC       +1
000936:
000937: 21,7235           33521                           CAF      THIRTEEN
000938: 21,7236           50115        AGAIN3             TS       MPAC
000939: 21,7237           20115                           INDEX    MPAC
000940: 21,7240           41243                           CS       PTEMP
000941: 21,7241           20115                           INDEX    MPAC
000942: 21,7242           51356                           TS       FILTER
000943: 21,7243           10115                           CCS      MPAC
000944: 21,7244           07236                           TC       AGAIN3
000945:
000946: 21,7245           33517                           CAF      ELEVEN
000947: 21,7246           50115        AGAIN4             TS       MPAC
000948: 21,7247           20115                           INDEX    MPAC
000949: 21,7250           41261                           CS       PTEMP      +14D
000950: 21,7251           20115                           INDEX    MPAC
000951: 21,7252           51446                           TS       THETAY
000952: 21,7253           10115                           CCS      MPAC
000953: 21,7254           07246                           TC       AGAIN4
000954:
000955: 21,7255           41275                           CS       PTEMP      +26D
000956: 21,7256           51321                           TS       PRELTEMP
000957: 21,7257           41276                           CS       PTEMP      +27D
000958: 21,7260           51320                           TS       GYROCSW
000959:
000960: 21,7261           00116                           TC       MPAC       +1
000961:
000962:
000963:                                                                                                  #  PRELAUNCH CHECK PROCEDURE (USES THE Z-NORTH SYSTEM OF AXES)
000964:
000965:
000966:
000967: 21,7262           20017        OPTCHK             INHINT
000968: 21,7263           32150                           CAF      PRIO14
000969: 21,7264           02046                           TC       FINDVAC                               #  CALL WITH PRIORITY OF TWENTY
000970: 21,7265           43273                           CADR     CHKOPT
000971:
000972: 21,7266           34514                           CAF      BIT3
000973: 21,7267           50115                           TS       MPAC
000974: 21,7270           51325                           TS       WTRWD
000975: 21,7271           06733                           TC       PLFINCHK
000976: 21,7272           06360                           TC       DOGYROC2
000977:
000978: 21,7273           03310        CHKOPT             TC       GRABDSP
000979: 21,7274           03316                           TC       PREGBSY
000980:
000981: 21,7275           02362                           TC       NEWMODE
000982: 21,7276           00003                           OCT      03
000983:
000984: 21,7277           35501                           CAF      ZERO
000985: 21,7300           51400                           TS       STARS
000986: 21,7301           64516                           AD       ONE
000987: 21,7302           50620                           TS       DSPTEM1    +2
000988: 21,7303           37553                           CAF      V06N30P
000989: 21,7304           03106                           TC       NVSUB
000990: 21,7305           03323                           TC       PRENVBSY
000991: 21,7306           21400                           INDEX    STARS
000992: 21,7307           31346                           XCH      TAZ
000993: 21,7310           50616                           TS       DSPTEM1
000994: 21,7311           21400                           INDEX    STARS
000995: 21,7312           31350                           XCH      TEL
000996: 21,7313           50617                           TS       DSPTEM1    +1
000997:
000998: 21,7314           07555                           TC       CHECKNV
000999: 21,7315           00661                           OCT      00661
001000: 21,7316           07454                           TC       CHEXIT
001001: 21,7317           30616                           XCH      DSPTEM1
001002: 21,7320           21400                           INDEX    STARS
001003: 21,7321           51346                           TS       TAZ
001004: 21,7322           30617                           XCH      DSPTEM1    +1
001005: 21,7323           21400                           INDEX    STARS
001006: 21,7324           51350                           TS       TEL
001007:
001008: 21,7325           11400                           CCS      STARS
001009: 21,7326           07331                           TC       +3
001010: 21,7327           34516                           CAF      ONE
001011: 21,7330           07300                           TC       CHKOPT     +5
001012: 21,7331           50620                           TS       DSPTEM1    +2
001013: 21,7332           35503                           CAF      TWO
001014: 21,7333           50617                           TS       DSPTEM1    +1
001015: 21,7334           34516                           CAF      ONE
001016: 21,7335           50616                           TS       DSPTEM1                               #  SETS UP STAR NUMBER DISPLAY
001017:
001018: 21,7336           37553                           CAF      V06N30P
001019: 21,7337           03106                           TC       NVSUB
001020: 21,7340           03323                           TC       PRENVBSY
001021: 21,7341           35503                           CAF      TWO
001022: 21,7342           05654                           TC       BANKCALL
001023: 21,7343           30406                           CADR     SXTMARK
001024: 21,7344           05654                           TC       BANKCALL
001025: 21,7345           30327                           CADR     OPTSTALL
001026: 21,7346           07454                           TC       CHEXIT
001027: 21,7347           04000                           TC       INTPRET
001028:
001029: 21,7350           76776                           ITC      0
001030: 21,7351           03510                                    PROCTARG
001031:
001032: 21,7352           76776                           ITC      0
001033: 21,7353           03461                                    MAKEXSM                               #  COMPUTE DESIRED SM ORIENTAYION IN REC
001034:
001035: 21,7354           52775                           MXV      1
001036: 21,7355           44776                           VSLT
001037: 21,7356           01403                                    TARGET1
001038: 21,7357           01425                                    XSM
001039: 21,7360           00002                                    1
001040: 21,7361           33403                           STORE    STARAD
001041: 21,7362           52775                           MXV      1
001042: 21,7363           44776                           VSLT
001043: 21,7364           01411                                    TARGET1    +6
001044: 21,7365           01425                                    XSM
001045: 21,7366           00002                                    1
001046: 21,7367           33411                           STORE    STARAD     +6
001047:
001048: 21,7370           71574                           LXC,1    2
001049: 21,7371           74471                           AXT,2    XSU,2
001050: 21,7372           66572                           SXA,2    ITC
001051: 21,7373           00736                                    MARKSTAT
001052: 21,7374           00003                                    2
001053: 21,7375           00047                                    X1
001054: 21,7376           00051                                    S1
001055: 21,7377           04733                                    SXTNB
001056:
001057: 21,7400           76776                           ITC      0
001058: 21,7401           04524                                    NBSM
001059:
001060: 21,7402           75176                           VMOVE    0
001061: 21,7403           00041                                    STARM
001062: 21,7404           33375                           STORE    VECTEM
001063: 21,7405           71574                           LXC,1    2
001064: 21,7406           63561                           INCR,1   AXT,2
001065: 21,7407           56531                           XSU,2    SXA,2
001066: 21,7410           00736                                    MARKSTAT
001067: 21,7411           77771                                    -7
001068: 21,7412           00003                                    2
001069: 21,7413           00047                                    X1
001070: 21,7414           00051                                    S1
001071:
001072: 21,7415           76776                           ITC      0
001073: 21,7416           04733                                    SXTNB
001074:
001075: 21,7417           76776                           ITC      0
001076: 21,7420           04524                                    NBSM
001077:
001078: 21,7421           75176                           VMOVE    0
001079: 21,7422           00041                                    STARM
001080: 21,7423           32015                           STORE    12D
001081:
001082: 21,7424           75176                           VMOVE    0
001083: 21,7425           01375                                    VECTEM
001084: 21,7426           32007                           STORE    6                                     #  TO AVOID ERASABLE BIND
001085:
001086: 21,7427           76776                           ITC      0                                     #  FIND DESIRED SM IN PRESENT SM
001087: 21,7430           04761                                    AXISGEN
001088:
001089: 21,7431           76776                           ITC      0                                     #  CALCULATE REQUIRED PULSE TORQUE IN GYROD
001090: 21,7432           04353                                    CALCGTA
001091:
001092: 21,7433           45776                           VSRT     0
001093: 21,7434           01521                                    OGC
001094: 21,7435           00011                                    8D
001095: 21,7436           33521                           STORE    OGC                                   #  CHANGE UNITS FROM 2PI TO GYRO PULSES
001096:
001097: 21,7437           77576                           EXIT     0
001098:
001099:
001100:
001101: 21,7440           05654                           TC       BANKCALL
001102: 21,7441           30453                           CADR     MKRELEAS
001103: 21,7442           07555                           TC       CHECKNV
001104: 21,7443           00667                           OCT      00667
001105: 21,7444           07454                           TC       CHEXIT
001106: 21,7445           04000                           TC       INTPRET
001107:
001108: 21,7446           75176                           VMOVE    0
001109: 21,7447           01521                                    OGC                                   #  GETS SUMMED INTO PRELAUNCH
001110: 21,7450           33333                           STORE    INFLANG
001111:
001112: 21,7451           77576                           EXIT     0
001113:
001114: 21,7452           35501                           CAF      ZERO
001115: 21,7453           51325                           TS       WTRWD
001116:
001117: 21,7454           03370        CHEXIT             TC       FREEDSP
001118: 21,7455           02362                           TC       NEWMODE
001119: 21,7456           00002                           OCT      02
001120: 21,7457           02124                           TC       ENDOFJOB
001121:
001122:
001123:                                                                                                  #  SUBROUTINE TO COMPUTE DESIRED SM AXES IN REC
001124:
001125: 21,7460           77576        MAKEXSM            EXIT     0
001126: 21,7461           37554                           CAF      XVII
001127: 21,7462           50077                           TS       BUF
001128: 21,7463           35501                           CAF      ZERO                                  #  ZERO ALL OF XSM
001129: 21,7464           20077                           INDEX    BUF
001130: 21,7465           51424                           TS       XSM
001131: 21,7466           10077                           CCS      BUF
001132: 21,7467           07462                           TC       MAKEXSM    +2
001133: 21,7470           34522                           CAF      HALF
001134: 21,7471           51424                           TS       XSM                                   #  HALF UNIT MATRIX IS COMPUTED
001135:
001136: 21,7472           04000                           TC       INTPRET
001137:
001138: 21,7473           55176                           COS      0
001139: 21,7474           01317                                    AZIMUTH
001140: 21,7475           33435                           STORE    XSM        +8D
001141:
001142: 21,7476           47576                           NOLOD    0
001143: 21,7477           33445                           STORE    XSM        +16D
001144:
001145: 21,7500           57176                           SIN      0
001146: 21,7501           01317                                    AZIMUTH
001147: 21,7502           33443                           STORE    XSM        +14D
001148:
001149: 21,7503           47176                           COMP     0
001150: 21,7504           01443                                    XSM        +14D
001151: 21,7505           33437                           STORE    XSM        +10D
001152:
001153: 21,7506           40576                           ITCQ     0
001154:
001155:
001156:                                                                                                  #  ROUTINE TO CONVERT TARGET AZIMUTH AND ELEVATIONS TO VECTORS
001157:
001158:
001159:
001160: 21,7507           75575        PROCTARG           AXT,1    1
001161: 21,7510           74461                           AXT,2    AST,2
001162: 21,7511           00002                                    1
001163: 21,7512           00015                                    12D
001164: 21,7513           00007                                    6
001165:
001166: 21,7514           42175        PROC1              SMOVE*   1
001167: 21,7515           56776                           TSRT
001168: 21,7516           02723                                    TEL        +1,1
001169: 21,7517           00003                                    2
001170: 21,7520           32001                           STORE    0
001171:
001172: 21,7521           57176                           SIN      0
001173: 21,7522           00001                                    0
001174: 21,7523           37036                           STORE    TARGET1    +12D,2
001175: 21,7524           55176                           COS      0
001176: 21,7525           00001                                    0                                     #  PUSH DOWN THE COSINE OF ELEVATION
001177:
001178: 21,7526           42175                           SMOVE*   1
001179: 21,7527           76576                           RTB
001180: 21,7530           02717                                    TAZ        +1,1
001181: 21,7531           20303                                    CDULOGIC
001182: 21,7532           32003                           STORE    2                                     #  THEN Y=0.5SIN(AZ)COS(EL)
001183:
001184: 21,7533           57175                           SIN      1
001185: 21,7534           64716                           DMP      TSLT
001186: 21,7535           00003                                    2
001187: 21,7536           00001                                    0
001188: 21,7537           00002                                    1
001189: 21,7540           37042                           STORE    TARGET1    +14D,2
001190:
001191: 21,7541           55175                           COS      1
001192: 21,7542           64716                           DMP      TSLT
001193: 21,7543           00003                                    2
001194: 21,7544           77777                                    -
001195: 21,7545           00002                                    1
001196: 21,7546           37046                           STORE    TARGET1    +16D,2
001197: 21,7547           75575                           AXT,1    1
001198: 21,7550           50401                           TIX,2    ITCQ
001199: 21,7551           00001                                    0
001200: 21,7552           03515                                    PROC1
001201:
001202:
001203:                                                                                                  #  ROUTINE TO ROTATE COORDINATE SYSTEM BY EARTHRATE TIMES TIME           ON
001204:
001205:
001206:
001207: 21,7553           00630        V06N30P            OCTAL    00630
001208: 21,7554           00021        XVII               DEC      17         B-14
001209:
001210:
001211:                                                                                                  #  ROUTINE TO DISPLAY STORED DATA FOR CHECKING AND MODIFICATION,VERB NOUN
001212:                                                                                                  #  IS STORED AT L +1,RETURN IS TO L +2 FOR TERMINATE,L +3 FOR GOOD DATA OR PROCEDE
001213:
001214:
001215:
001216: 21,7555           30001        CHECKNV            XCH      Q
001217: 21,7556           51354                           TS       CHKNVTEM
001218: 21,7557           21354                           INDEX    CHKNVTEM
001219: 21,7560           30000                           XCH      A
001220:
001221: 21,7561           03106                           TC       NVSUB
001222: 21,7562           07575                           TC       CHECKNV1
001223: 21,7563           05654                           TC       BANKCALL
001224: 21,7564           14000                           CADR     FLASHON
001225:
001226: 21,7565           03144                           TC       ENDIDLE
001227: 21,7566           07571                           TC       +3
001228: 21,7567           07573                           TC       +4
001229: 21,7570           07557                           TC       CHECKNV    +2
001230:
001231: 21,7571           21354                           INDEX    CHKNVTEM
001232: 21,7572           00001                           TC       Q
001233: 21,7573           21354                           INDEX    CHKNVTEM
001234: 21,7574           00002                           TC       Z
001235:
001236: 21,7575           37577        CHECKNV1           CAF      CHECKNV2
001237: 21,7576           03326                           TC       NVSUBUSY
001238: 21,7577           43557        CHECKNV2           CADR     CHECKNV    +2

End of include-file PRELAUNCH_ALIGNMENT_PROGRAM.agc.  Parent file is MAIN.agc


