
Source Code


000002:                                                                                                  ## Copyright:   Public domain.
000003:                                                                                                  ## Filename:    REENTRY_CONTROL.agc
000004:                                                                                                  ## Purpose:     A section of Corona revision 261.
000005:                                                                                                  ##              It is part of the source code for the Apollo Guidance Computer
000006:                                                                                                  ##              (AGC) for AS-202. No original listings of this software are
000007:                                                                                                  ##              available; instead, this file was created via disassembly of
000008:                                                                                                  ##              the core rope modules actually flown on the mission.
000009:                                                                                                  ## Assembler:   yaYUL
000010:                                                                                                  ## Contact:     Ron Burkey <info@sandroid.org>.
000011:                                                                                                  ## Website:     www.ibiblio.org/apollo/index.html
000012:                                                                                                  ## Mod history: 2023-05-27 MAS  Created from Solarium 55.
000013:                                                                                                  ##              2023-06-19 MAS  Updated for Corona.
000014:
000015:
000016: 27,6000                                           SETLOC   56000
000017:
000018:                                                                                                  #        THE PIPUP SECTION IS A TASK WHICH READS THE PIPAS EVERY .5
000019:                                                                                                  #  SECONDS. ACCELERATION HISTORY OVER THE LAST TWO SECONDS (FOUR READINGS)
000020:                                                                                                  #  IS MAINTAINED  IN THE XPIPBUF, YPIPBUF, AND ZPIPBUF REGISTERS. EACH PIPA
000021:                                                                                                  #  READING IS SUMMED INTO THE XPIPSUM ETC. REGISTERS, AND EVERY FOURTH READ
000022:                                                                                                  #  ING AVERAGE G IS CALLED TO USE THE SUMMED READINGS TO UPDATE POSITION
000023:                                                                                                  #  AND VELOCITY AND SET THE PIPSUM REGISTERS TO ZERO.
000024:
000025:                                                                                                  #    GOES THRU PIPUP ONLY EVERY 2 SEC.  (ELSEWHERE MORE OFTEN.)
000026:
000027: 27,6000           61360                           CADR     REPIPASR
000028: 27,6001           36000        REPIPUP            CAF      -1
000029: 27,6002           06005                           TC       PIPUP      +1                         #  REREAD PIPAS IF NECESSARY.
000030:
000031: 27,6003           61307                           CADR     PIPASR
000032: 27,6004           36003        PIPUP              CAF      -1
000033: 27,6005           05750                           TC       ISWCALL                               #   GO TO PIPAREAD SUBROUTINE.
000034:
000035: 27,6006           33521                           CAF      THIRTN                                #  PICK UP AT REDO5.13
000036: 27,6007           02312                           TC       NEWPHASE
000037: 27,6010           00005                           OCT      5                                     #  5.13 RESTART.  (NO TIME CALL.)
000038:
000039: 27,6011           37617        REDO5.13           CAF      DT
000040: 27,6012           02173                           TC       WAITLIST
000041: 27,6013           56004                           CADR     PIPUP
000042:
000043: 27,6014           41465                           CS       PIPTIME    +1
000044: 27,6015           50667                           TS       TBASE5                                #  SAVE NEW TIME.
000045:
000046: 27,6016           36032                           CAF      IPIPDT
000047: 27,6017           02173                           TC       WAITLIST
000048: 27,6020           57566                           CADR     INTERPIP                              #  READ ACCELERATION MORE OFTEN.
000049:
000050: 27,6021           32152                           CAF      PRIO16
000051: 27,6022           02046                           TC       FINDVAC
000052: 27,6023           56033                           CADR     ENTRYTOP
000053:
000054: 27,6024           35503                           CAF      TWO
000055: 27,6025           51414                           TS       PIPCTR
000056:
000057: 27,6026           33522                           CAF      FOURTN                                #  THIS WILL PICK UP AT ENTRYTOP + 3.
000058: 27,6027           02312                           TC       NEWPHASE
000059: 27,6030           00005                           OCT      5                                     #  5.14 RESTART.
000060:
000061: 27,6031           02256                           TC       TASKOVER
000062:
000063:
000064:
000065: 27,6032           00062        IPIPDT             DEC      50         B-14
000066:
000067:
000068:                                                                                                  #        JOB WHICH PROCESSES PIPA READINGS TO UPDATE POSITION AND VELOCI
000069:
000070: 27,6033           31350        ENTRYTOP           XCH      TENTRY                                #  UPDATE ENTRY TIME.
000071: 27,6034           65503                           AD       TWO
000072: 27,6035           31350                           XCH      TENTRY                                #  IN SECS SINCE START OF ENTRY.
000073:
000074: 27,6036           34516                           CAF      ONE
000075: 27,6037           51035                           TS       PIPAGE
000076:
000077: 27,6040           41001                           CS       DELVX
000078: 27,6041           51403                           TS       XPIPBUF    +3
000079: 27,6042           41003                           CS       DELVY
000080: 27,6043           51407                           TS       YPIPBUF    +3
000081: 27,6044           41005                           CS       DELVZ                                 #  SAVE PIP COUNTS.
000082: 27,6045           51413                           TS       ZPIPBUF    +3
000083:
000084: 27,6046           65503                           AD       TWO
000085: 27,6047           31350                           XCH      TENTRY
000086:
000087: 27,6050           02276                           TC       PHASCHNG
000088: 27,6051           01705                           OCT      01705                                 #  5.15 RESTART PICKS UP AT REFAZE4.
000089: 27,6052           05654                           TC       BANKCALL                              #  COMPENSATE THE PIPA DATA
000090: 27,6053           31007                           CADR     1/PIPA
000091:
000092: 27,6054           04000        REFAZE4            TC       INTPRET
000093:
000094: 27,6055           76776                           ITC      0                                     #  GO TO AVERAGE G INTEGRATION ROUTINES TO
000095: 27,6056           21540                                    CALCRVG                               #  USE PIPA READINGS TO UPDATE POSIITON AND
000096:                                                                                                  #  VELOCITY.
000097: 27,6057           02276                           TC       PHASCHNG
000098: 27,6060           02105                           OCT      02105                                 #  5.17 RESTART AT REFAZE8.
000099:
000100: 27,6061           04000        REFAZE8            TC       INTPRET
000101:
000102:
000103:                                                                                                  #   PROCESS AVERAGE G OUTPUT...SCALE IT AND GET INPUT DATA
000104:
000105: 27,6062           75776        SCALEPOP           VXSC     0
000106: 27,6063           00774                                    VPIP                                  #  KVSCALE = (12800/.3048)0(25766.1973 X2)
000107: 27,6064           21144                                    KVSCALE                               #  KVSCALE = .81491944
000108: 27,6065           33315                           STORE    (V)                                   #  V VECTOR
000109:
000110: 27,6066           43574                           TEST     2
000111: 27,6067           41766                           VXV      VXSC                                  #  (VREL) = (V) + KWE UNITR*UNITW
000112: 27,6070           50776                           VAD
000113: 27,6071           00010                                    RELVELSW                              #  SWITCH NUMBER.
000114: 27,6072           16101                                    GETUNITV
000115: 27,6073           01016                                    UNITR
000116: 27,6074           01044                                    UNITW
000117: 27,6075           21166                                    KWE
000118: 27,6076           01315                                    (V)
000119: 27,6077           33315                           STORE    (V)                                   #  NEW V VECTOR IS RELATIVE.
000120:
000121: 27,6100           47575        GETUNITV           NOLOD    1
000122: 27,6101           73176                           UNIT
000123: 27,6102           33570                           STORE    UNITV                                 #  HALF MAX. OF COURSE.
000124:
000125: 27,6103           63776                           TSLT     0
000126: 27,6104           00035                                    28D                                   #  RESCALE MAGNITUDE SQUARED.
000127: 27,6105           00003                                    2                                     #  SHIFT COUNT.  (2 BECAUSE HALF-LEN SQRD
000128: 27,6106           33343                           STORE    VSQUARE                               #  VELOCITY SQUARED. (NORMAL SCALING)
000129:
000130: 27,6107           66776                           DSU      0                                     #  LEQ = VSQUARE-1
000131: 27,6110           01343                                    VSQUARE                               #  4 G-S FULL SCALE
000132: 27,6111           21063                                    FOURTH
000133: 27,6112           33432                           STORE    LEQ
000134:
000135: 27,6113           63776                           TSLT     0
000136: 27,6114           00037                                    30D
000137: 27,6115           00002                                    1
000138: 27,6116           33620                           STORE    V
000139:
000140: 27,6117           42775                           DOT      1
000141: 27,6120           63776                           TSLT
000142: 27,6121           01315                                    (V)                                   #  RDOT = V.UNITR
000143: 27,6122           01016                                    UNITR
000144: 27,6123           00002                                    1                                     #  AND SCALE BACK UP, UNITS ARE 1/2.
000145: 27,6124           33347                           STORE    RDOT
000146: 27,6125           45176                           DMOVE    0                                     #   SAVE OLD DRAG VALUE.
000147: 27,6126           01363                                    D
000148: 27,6127           33416                           STORE    DOLD
000149:
000150: 27,6130           71174                           ABVAL    2
000151: 27,6131           63722                           TSLT     DMP
000152: 27,6132           47776                           BZE
000153: 27,6133           01002                                    DELV                                  #  KASCALE=5.85 16384/(4 .3048 805 100)
000154: 27,6134           00003                                    2                                     #  2 FOR 2 SEC,  3 FOR 1 SEC, 4 FOR  .5 --
000155: 27,6135           21146                                    KASCALE                               #   = 3.   /4                       /25
000156: 27,6136           21032                                    SETMIND
000157: 27,6137           33363                           STORE    D                                     #  ACCELERATION   (DRAG, ALMOST)
000158:
000159: 27,6140           41775        GETUNI             VXV      1                                     #  UNI = UNIT(V*R)
000160: 27,6141           73176                           UNIT
000161: 27,6142           01315                                    (V)                                   #  COULD USE UNITV.
000162: 27,6143           01016                                    UNITR
000163: 27,6144           33562                           STORE    UNI                                   #  INERTIAL OR RELATIVE AS IS (V).
000164:
000165:                                                                                                  #        SOME OF THE FOLLOWING TARGETTING MIGHT BE DONE LESS OFTEN THAN ABOVE.
000166:
000167: 27,6145           43575                           TEST     1                                     #  THIS TEST MIGHT BE COMBINED WITH  THE
000168: 27,6146           45176                           DMOVE                                          #  PREVIOUS ONE IF ALL CALCULATIONS ARE
000169: 27,6147           00010                                    RELVELSW                              #  DONE EVERY CYCLE.
000170: 27,6150           21001                                    GETETA
000171: 27,6151           01465                                    PIPTIME
000172: 27,6152           33145                           STORE    DTEAROT
000173:
000174:
000175: 27,6153           76776        UPDATERT           ITC      0                                     #  UPDATE PREDICTED TARGET VECTOR RT
000176: 27,6154           13554                                    EARROT2
000177:
000178: 27,6155           47575                           NOLOD    1
000179: 27,6156           42771                           DOT      RTB                                   #  SINCE (RT) UNIT VEC, THIS IS 1/4 MAX.
000180: 27,6157           01562                                    UNI                                   #  LATANG = RT.UNI
000181: 27,6160           20264                                    FRESHPD
000182: 27,6161           33113                           STORE    LATANG                                #  LATANG = MAC LATANGLE/4 (NO 2 PI)
000183:                                                                                                  #  UNUSUAL SCALING FOR LATANG. ( = ASIN L.
000184:
000185: 27,6162           42773        GETANGLE           DOT      3                                     #  THETA = ARCCOS(RT.UNITR)
000186: 27,6163           66616                           DSU      BPL                                   #  RT IS UNIT VECTOR
000187: 27,6164           70716                           DAD      TSLT
000188: 27,6165           61176                           ACOS
000189: 27,6166           01215                                    RT
000190: 27,6167           01016                                    UNITR
000191: 27,6170           21072                                    NEAR1/4                               #  TO IMPROVE ACCURACY, CALC RANGE BY
000192: 27,6171           21037                                    TINYTHET                              #  TINYTHET IF HIGH ORDER PART OF
000193: 27,6172           21072                                    NEAR1/4                               #  ARCCOS ARGUMENT IS ZERO
000194: 27,6173           00002                                    1
000195: 27,6174           33111                           STORE    THETAH
000196:
000197: 27,6175           77576                           EXIT     0
000198:
000199: 27,6176           02276        REFAZE10           TC       PHASCHNG
000200: 27,6177           02205                           OCT      02205                                 #  5.18 RESTART AT REFAZE10
000201: 27,6200           04000                           TC       INTPRET
000202:
000203:                                                                                                  #        JUMP TO PARTICULAR RE-ENTRY PHASE.
000204:
000205: 27,6201           44576        SEQUENCE           ITCI     0                                     #  BRANCHES TO VARIOUS CONTROL PHASES.
000206: 27,6202           01375                                    GOTOADDR                              #  ADDRESS OF PHASE EQS STORED HERE.
000207:
000208:                                                                                                  #        GOTOADDR CONTAINS THE ADDRESS OF THE ROLL COMMAND EQUATIONS
000209:                                                                                                  #  APPROPRIATE TO THE CURRENT PHASE OF RE-ENTRY.  SEQUENCING IS AS FOLLOWS:
000210:
000211:                                                                                                  #  INITROLL SET HERE INITIALLY. HOLDS INITIAL ROLL ATTITUDE UNTIL KAT  EX-
000212:                                                                                                  #           CEEDED. THEN HOLDS NEW ROLL ATTITUDE UNTIL VRTHRESH EXCEEDED.
000213:                                                                                                  #           THEN BRANCHES TO
000214:
000215:                                                                                                  #  HUNTEST  THIS SECTION CHECKS TO SEE IF THE PREDICTED RANGE AT NOMINAL
000216:                                                                                                  #           L/D FROM PRESENT CONDITIONS IS LESS THAN THE DESIRED RANGE
000217:                                                                                                  #             IF NOT-- A ROLL COMMAND IS GENERATED BY THE CONSTANT DRAG
000218:                                                                                                  #             CONTROLLER.
000219:                                                                                                  #             IF SO-- CONTROL AND GOTOADDR ARE SET TO  UPCONTRL
000220:                                                                                                  #           USUALLY NO ITERATION IS INVOLVED EXCEPT IF THE RANGE DESIRED IS
000221:                                                                                                  #           TOO LONG ON THE FIRST PASS THRU HUNTEST.
000222:
000223:                                                                                                  #  UPCONTRL CONTROLS ROLL DURING THE SUPER-CIRCULAR PHASE. UPCONTRL IS TERM
000224:                                                                                                  #           INATED EITHER (A) WHEN THE DRAG (AS MEASURED BY THE PIPAS)
000225:                                                                                                  #           FALLS BELOW Q7 OR (B) IF RDOT IS NEGATIVE AND REFERENCE VL
000226:                                                                                                  #           EXCEEDS V.  IN CASE (A), GOTOADDR IS SET TO KEP2 AND IN (B) TO
000227:                                                                                                  #           PREDICT3, SKIPPING THE KEPLER PHASE OF ENTRY.
000228:
000229:                                                                                                  #  KEP2     GOTOADDR IS SET HERE DURING THE KEPLER PHASE TO MONITOR DRAG.
000230:                                                                                                  #           SPACECRAFT IS INSTANTANEOUSLY TRIMMED IN PITCH AND YAW TO THE
000231:                                                                                                  #           COMPUTED RELATIVE VELOCITY VECTOR.  THE LAST COMPUTED ROLL
000232:                                                                                                  #           ANGLE IS MAINTAINED.  WHEN THE MEASURED DRAG EXCEEDS Q7+.5,
000233:                                                                                                  #           GOTOADDR IS SET TO
000234:
000235:                                                                                                  #  PREDICT3 THIS CONTROLS THE FINAL SUB-ORBITAL PHASE. ROLL COMMANDS CEASE
000236:                                                                                                  #           WHEN V IS LESS THAN VQUIT.  AN EXIT IS MADE TO TERMALT WHEN
000237:                                                                                                  #           TERMINAL ALTITUDE IS REACHED.
000238:
000239:
000240:                                                                                                  #        OUT OF SEQUENCE SUBSECTION TO COMPUTE ETA.
000241:
000242: 30,7000                                           BANK     30
000243: 30,7000           43575        GETETA             TEST     1
000244: 30,7001           64776                           DMP                                            #  NOT USED AT LOW VEL WHERE THETA NEG.
000245: 30,7002           00011                                    EGSW
000246: 30,7003           21016                                    SUBETA                                #  BRANCHES IF INTO EQ. GLIDE PHASE.
000247: 30,7004           01111                                    THETAH
000248: 30,7005           21150                                    KTETA                                 #   = 1000X2PI/(2)E14 163.84
000249: 30,7006           33357                           STORE    ETA                                   #  DONT REALLY WANT IT, BUT NO PUSH WANTED
000250:
000251: 30,7007           47575        GETETA2            NOLOD    1
000252: 30,7010           70776                           DAD
000253: 30,7011           01465                                    PIPTIME
000254: 30,7012           33145                           STORE    DTEAROT
000255:
000256: 30,7013           76776                           ITC      0
000257: 30,7014           16154                                    UPDATERT
000258:
000259: 30,7015           66775        SUBETA             DSU      1                                     #  SWITCH FROM INERTIAL TO RELATIVE
000260: 30,7016           43611                           BPL      SWITCH                                #  VELOCITY WHEN V LESS THAN .5 VSAT.
000261: 30,7017           01620                                    V
000262: 30,7020           21063                                    FOURTH
000263: 30,7021           21024                                    SUBETA2
000264: 30,7022           00010                                    RELVELSW                              #  SHOULD CHANGE TO OFF (NON-BRANCH) STATE
000265:
000266: 30,7023           64775        SUBETA2            DMP      1
000267: 30,7024           62772                           DDV      ITC
000268: 30,7025           01111                                    THETAH
000269: 30,7026           21152                                    KT                                    #  KT = RE(2 PI)/ 2 VS 16384 163.84
000270: 30,7027           01620                                    V                                     #                         /2 VSAT
000271: 30,7030           21010                                    GETETA2
000272:
000273: 30,7031           45176        SETMIND            DMOVE    0                                     #  MAKE D NON-ZERO.
000274: 30,7032           21067                                    1BITDP
000275: 30,7033           33363                           STORE    D
000276:
000277: 30,7034           76776                           ITC      0
000278: 30,7035           16141                                    GETUNI
000279:
000280: 30,7036           47573        TINYTHET           NOLOD    3                                     #  ENTER WITH  X-.249
000281: 30,7037           66723                           DSU      ABS                                   #  GET 1/4 - MPAC
000282: 30,7040           63653                           TSLT     SQRT                                  #  SCALE UP BEFORE SQRT.
000283: 30,7041           64776                           DMP                                            #  HAS FACTOR FOR UP SCALING.
000284: 30,7042           21070                                    1BITDP     +1                         #  X = SQRT(2(1-COSX)),   IN RADIANS
000285: 30,7043           00016                                    13D                                   #  X/2PI=(1/64PI)(SQRT(((1-COSX)/4)2EXP13)
000286: 30,7044           21170                                    KACOS
000287: 30,7045           33111                           STORE    THETAH
000288:
000289: 30,7046           76576                           RTB      0                                     #  OFF TO PRE-SEQUENCER...
000290: 30,7047           16177                                    REFAZE10
000291:
000292:
000293:                                                                                                  #        MAINTAINS INITIAL ROLL UNTIL D = KAT, GOES INTO HUNTEST WHEN
000294:                                                                                                  #  RDOT = VRCONT.
000295:
000296:
000297:
000298: 27,6203                                           BANK     27
000299:
000300: 27,6203           56236        HUNTCADR           CADR     HUNTEST
000301:
000302: 27,6204           66775        INITROLL           DSU      1                                     #  IF D-.05 G NEG, GO TO LIMITL/D
000303: 27,6205           73775                           BMN      EXIT                                  #   IF NOT, SET .05 G SWITCH FOR SCS
000304: 27,6206           01363                                    D
000305: 27,6207           21154                                    .05G
000306: 27,6210           17405                                    LIMITL/D
000307:
000308: 27,6211           03401                           TC       RELAYON                               #  SEND .05 G SIGNAL TO SCS.
000309: 27,6212           40100                           OCT      40100
000310: 27,6213           02362                           TC       NEWMODE                               #  SET MODE TO AFTER .05 G STATE.
000311: 27,6214           00064                           OCT      00064
000312: 27,6215           04000                           TC       INTPRET
000313:
000314: 27,6216           66774                           DSU      2                                     #  IF KAT-D POS, GO TO OUT WITH COMMAND
000315: 27,6217           43605                           BPL      LODON                                 #      IF NEG,  L/D = LAD
000316: 27,6220           45176                           DMOVE
000317: 27,6221           21512                                    KAT
000318: 27,6222           01363                                    D
000319: 27,6223           17405                                    LIMITL/D
000320: 27,6224           21156                                    LAD                                   #  WHEN D GREATER THAN KAT, L/D = LAD
000321: 27,6225           33223                           STORE    L/D
000322:
000323: 27,6226           70775                           DAD      1                                     #  IF RDOT + VRCONT NEG, GO TO STEER
000324: 27,6227           73775                           BMN      EXIT                                  #  IF POS, SET SELECTOR TO HUNTEST.
000325: 27,6230           01347                                    RDOT
000326: 27,6231           21210                                    VRCONT
000327: 27,6232           17405                                    LIMITL/D                              #   DO LATERAL CONTROL IF NEEDED.
000328:                                                                                                  #                                SPACER.
000329: 27,6233           36203                           CAF      HUNTCADR
000330: 27,6234           51374                           TS       GOTOADDR                              #  AND FALL THRU INTO HUNTEST.
000331:
000332:
000333:                                                                                                  #   ... HUNTEST SECTION... CHECKS TO SEE WHEN PREDICTED RANGE = DESIRED ONE
000334:
000335:                                                                                                  #                                        KEEP WITH ABOVE CODING........
000336:
000337: 27,6235           04000        PREHUNT            TC       INTPRET
000338:
000339: 27,6236           45176        HUNTEST            DMOVE    0
000340: 27,6237           01620                                    V
000341: 27,6240           33365                           STORE    V1
000342:
000343: 27,6241           45176                           DMOVE    0
000344: 27,6242           01363                                    D                                     #  A0 = D
000345: 27,6243           33602                           STORE    A0
000346:
000347: 27,6244           43775                           BPL      1
000348: 27,6245           62742                           DDV      DAD
000349: 27,6246           01347                                    RDOT
000350: 27,6247           16262                                    HUNTESTA
000351: 27,6250           21172                                    LAD/KC1
000352: 27,6251           01365                                    V1
000353: 27,6252           33365                           STORE    V1
000354:
000355: 27,6253           51175                           DSQ      1
000356: 27,6254           62742                           DDV      DAD
000357: 27,6255           01347                                    RDOT
000358: 27,6256           21174                                    2HSL/KC2
000359: 27,6257           01602                                    A0
000360: 27,6260           33602                           STORE    A0
000361:
000362: 27,6261           43575        HUNTESTA           TEST     1
000363: 27,6262           45011                           DMOVE    SWITCH
000364: 27,6263           00012                                    HUNTIND
000365: 27,6264           16313                                    HUNTEST1
000366: 27,6265           01602                                    A0
000367: 27,6266           00012                                    HUNTIND
000368: 27,6267           33614                           STORE    D0
000369:
000370: 27,6270           66775                           DSU      1
000371: 27,6271           73742                           BMN      DAD
000372: 27,6272           21130                                    C19
000373: 27,6273           01614                                    D0
000374: 27,6274           16300                                    +3
000375: 27,6275           01614                                    D0
000376: 27,6276           33614                           STORE    D0
000377:
000378: 27,6277           62776                           DDV      0
000379: 27,6300           21216                                    -1/1600
000380: 27,6301           01614                                    D0
000381: 27,6302           33341                           STORE    -1/D0
000382:
000383: 27,6303           45176                           DMOVE    0                                     #  ZERO DIFFOLD THE FIRST TIME THRU.
000384: 27,6304           21065                                    3ZEROS
000385: 27,6305           33325                           STORE    DIFFOLD
000386:
000387: 27,6306           70776                           DAD      0                                     #  V1OLD = V1 + C18  (500FPS)
000388: 27,6307           01365                                    V1                                    #  MAKES OLD VCORR -500 AND NEW +500 ..
000389: 27,6310           21074                                    C18                                   #  INITIAL VALUE ON VCORR = -500 FPS SO
000390: 27,6311           33371                           STORE    V1OLD                                 #  (IN+TIAL 0ALUES IF NEEDED ON 1ST PASS.
000391:
000392: 27,6312           45176        HUNTEST1           DMOVE    0                                     #  Q7 = Q7F
000393: 27,6313           21114                                    Q7F
000394: 27,6314           33327                           STORE    Q7
000395:
000396: 27,6315           64774                           DMP      2                                     #  ALP = A0 2HSD/LWD / V1 V1
000397: 27,6316           62771                           DDV      RTB
000398: 27,6317           62776                           DDV
000399: 27,6320           01602                                    A0
000400: 27,6321           21102                                    2HS/LEWD
000401: 27,6322           01365                                    V1
000402: 27,6323           20264                                    FRESHPD
000403: 27,6324           01365                                    V1
000404: 27,6325           33630                           STORE    ALP
000405:
000406: 27,6326           47575                           NOLOD    1
000407: 27,6327           65706                           BDSU     BDDV
000408: 27,6330           21051                                    NEARONE                               #  FACT1 = V1 / (1 - ALP)
000409: 27,6331           01365                                    V1
000410: 27,6332           33632                           STORE    FACT1
000411:
000412: 27,6333           66775                           DSU      1
000413: 27,6334           64712                           DMP      DDV                                   #  FACT2 = ALP(ALP - 1) / AD
000414: 27,6335           01630                                    ALP
000415: 27,6336           21051                                    NEARONE
000416: 27,6337           01630                                    ALP
000417: 27,6340           01602                                    A0
000418: 27,6341           33331                           STORE    FACT2
000419:
000420: 27,6342           64774                           DMP      2                                     #  VL = FACT1(1 - SQRT(ALP + Q7 FACT2))
000421: 27,6343           70653                           DAD      SQRT
000422: 27,6344           65722                           BDSU     DMP
000423: 27,6345           01327                                    Q7
000424: 27,6346           01331                                    FACT2
000425: 27,6347           01630                                    ALP
000426: 27,6350           21051                                    NEARONE
000427: 27,6351           01632                                    FACT1
000428: 27,6352           33616                           STORE    VL
000429:
000430: 27,6353           47574                           NOLOD    2                                     #  GAMMAL = LEWD(V1-VL)/VL
000431: 27,6354           65722                           BDSU     DMP
000432: 27,6355           62776                           DDV
000433: 27,6356           01365                                    V1
000434: 27,6357           21057                                    LEWD
000435: 27,6360           01616                                    VL
000436: 27,6361           32027                           STORE    GAMMAL1                               #  GAMMAL1 USED IN UPCONTRL
000437:
000438: 27,6362           66775                           DSU      1                                     #  IF VL-VMIN NEG, GO TO SHORT
000439: 27,6363           73776                           BMN
000440: 27,6364           01616                                    VL
000441: 27,6365           21116                                    VMIN
000442: 27,6366           17166                                    PREFINAL                              #  PREFINAL = SHORT
000443:
000444: 27,6367           51176                           DSQ      0                                     #  VBARS = VL VL
000445: 27,6370           01616                                    VL
000446: 27,6371           33604                           STORE    VBARS
000447:
000448: 27,6372           66775                           DSU      1                                     #  IF VSAT - VL NEG, GO TO CONSTD.
000449: 27,6373           73776                           BMN
000450: 27,6374           21212                                    HALVE                                 #  VSAT = .5
000451: 27,6375           01616                                    VL
000452: 27,6376           17056                                    BECONSTD                              #  GOTOADDR MAY BE SIDETRACKED.
000453: 27,6377           33440                           STORE    DVL                                   #  DVL = VSAT - VL
000454:
000455: 27,6400           45176                           DMOVE    0
000456: 27,6401           21212                                    HALVE                                 #  VS = VSAT
000457: 27,6402           33612                           STORE    VS
000458:
000459: 27,6403           47574                           NOLOD    2
000460: 27,6404           66756                           DSU      BMN                                   #  IF V1 GREATER THAN VSAT, GO ON.
000461: 27,6405           65776                           BDSU
000462: 27,6406           01365                                    V1
000463: 27,6407           16416                                    GETDHOOK
000464: 27,6410           01440                                    DVL                                   #  DVL = DVL - (VSAT-V1) = V1 - VL
000465: 27,6411           33440                           STORE    DVL
000466:
000467: 27,6412           45176                           DMOVE    0
000468: 27,6413           01365                                    V1
000469: 27,6414           33612                           STORE    VS                                    #  VS = V1
000470:
000471: 27,6415           56773        GETDHOOK           TSRT     3                                     #  DHOOK = ((1-VS/FACT1)SQ -ALP)/FACT2
000472: 27,6416           62726                           DDV      BDSU
000473: 27,6417           63643                           TSLT     DSQ
000474: 27,6420           66712                           DSU      DDV
000475: 27,6421           01612                                    VS
000476: 27,6422           00002                                    1
000477: 27,6423           01632                                    FACT1
000478: 27,6424           21212                                    HALVE
000479: 27,6425           00002                                    1
000480: 27,6426           01630                                    ALP
000481: 27,6427           01331                                    FACT2
000482: 27,6430           33434                           STORE    DHOOK
000483:
000484: 27,6431           56775                           TSRT     1                                     #  RESCALE BY 32.
000485: 27,6432           62732                           DDV      DSU
000486: 27,6433           01434                                    DHOOK
000487: 27,6434           00006                                    5
000488: 27,6435           01327                                    Q7
000489: 27,6436           21176                                    CHOOK
000490: 27,6437           33436                           STORE    AHOOKDV
000491:
000492: 27,6440           47572                           NOLOD    4
000493: 27,6441           70722                           DAD      DMP                                   #  GAMMAL = GAMMAL1-CH1 DVLSQ(1+AHOOK DVL
000494: 27,6442           64722                           DMP      DMP                                   #         /DHOOK VBARS
000495: 27,6443           62712                           DDV      DDV
000496: 27,6444           65756                           BDSU     BMN
000497: 27,6445           21200                                    1/8TH
000498: 27,6446           21202                                    CH1
000499: 27,6447           01440                                    DVL
000500: 27,6450           01440                                    DVL
000501: 27,6451           01434                                    DHOOK
000502: 27,6452           01604                                    VBARS
000503: 27,6453           00027                                    GAMMAL1
000504: 27,6454           16642                                    NEGAMA                                #  FIND CONDITIONS FOR GAMMAL = 0.
000505: 27,6455           33610                           STORE    GAMMAL
000506:
000507:                                                                                                  #    ... PREDICT RANGES FOR EACH PHASE OF TRAJECTORY...
000508:
000509: 27,6456           51175        RANGER             DSQ      1
000510: 27,6457           56726                           TSRT     BDSU                                  #  COSG = 1-GAMMAL SQ/2 , TRUNCATED SERIES
000511: 27,6460           01610                                    GAMMAL
000512: 27,6461           00003                                    2
000513: 27,6462           21212                                    HALVE
000514: 27,6463           33606                           STORE    COSG/2
000515:
000516: 27,6464           66773                           DSU      3
000517: 27,6465           64722                           DMP      DMP                                   #  E=SQRT(1+VBARS-2)VBARS COSG COSG)
000518: 27,6466           64716                           DMP      TSLT
000519: 27,6467           70653                           DAD      SQRT
000520: 27,6470           01604                                    VBARS
000521: 27,6471           21212                                    HALVE
000522: 27,6472           01604                                    VBARS
000523: 27,6473           01606                                    COSG/2
000524: 27,6474           01606                                    COSG/2
000525: 27,6475           00003                                    2                                     #  MULT BY 4
000526: 27,6476           21100                                    C1/16                                 #  E  (E/4 REALLY) INTO PD.
000527:
000528: 27,6477           64774                           DMP      2                                     #  ASKEP/2 = ARCSIN(VBARS COSG SING/E)
000529: 27,6500           64712                           DMP      DDV
000530: 27,6501           63116                           ASIN     TSLT
000531: 27,6502           01604                                    VBARS
000532: 27,6503           01606                                    COSG/2
000533: 27,6504           01610                                    GAMMAL
000534: 27,6505           77777                                    -                                     #  E FROM PD.
000535: 27,6506           00002                                    1                                     #  ASKEP INTO PD.
000536:
000537: 27,6507           64775                           DMP      1                                     #  ASP1 = Q2 +Q3(VL-Q4) = Q2' + Q3 VL
000538: 27,6510           70742                           DAD      DAD
000539: 27,6511           01616                                    VL
000540: 27,6512           21106                                    Q3
000541: 27,6513           21104                                    Q2                                    #  ASP1 + ASKEP INTO PD.
000542:
000543: 27,6514           51173                           DSQ      3                                     #  ASPUP = -C12 LOG(V1 V1 Q7/VBARS D)/GAMM
000544: 27,6515           64712                           DMP      DDV                                   #                                 AL1
000545: 27,6516           62771                           DDV      RTB
000546: 27,6517           64712                           DMP      DDV
000547: 27,6520           01365                                    V1
000548: 27,6521           01327                                    Q7
000549: 27,6522           01604                                    VBARS
000550: 27,6523           01602                                    A0
000551: 27,6524           20444                                    LOG
000552: 27,6525           21120                                    C12
000553: 27,6526           00027                                    GAMMAL1                               #  ASPUP UNTO PD
000554:
000555: 27,6527           64775                           DMP      1                                     #  ASPDWN = KC3 RDOT V / A0
000556: 27,6530           64712                           DMP      DDV
000557: 27,6531           21204                                    KC3
000558: 27,6532           01347                                    RDOT
000559: 27,6533           01620                                    V
000560: 27,6534           01602                                    A0                                    #  ASPDWN INTO PD.
000561:
000562: 27,6535           66774                           DSU      2                                     #  ASP3 = Q5(Q6-GAMMAL)
000563: 27,6536           64742                           DMP      DAD
000564: 27,6537           70742                           DAD      DAD
000565: 27,6540           21112                                    Q6
000566: 27,6541           01610                                    GAMMAL                                #  ASP = ASP1+ASKEP+ASPUP+ASP3
000567: 27,6542           21110                                    Q5                                    #  ASP INTO PD
000568:
000569: 27,6543           47575                           NOLOD    1
000570: 27,6544           65672                           BDSU     TSRT
000571: 27,6545           01111                                    THETAH
000572: 27,6546           00005                                    4                                     #  DIFF = (ASP-THETA)/16
000573: 27,6547           33225                           STORE    DIFF                                  #  END OF TEST
000574:
000575: 27,6550           47572                           NOLOD    4
000576: 27,6551           65132                           ABS      DSU                                   #  IF ABS((THETAH-ASP) - 25NM NEG,GOTOUPSY
000577: 27,6552           73615                           BMN      TEST                                  #  IF HIND SET, GO TO GET LV THE REPEATWAY
000578: 27,6553           41556                           LODON    BMN                                   #  IF DIFF NEG, GO TO CONSTD
000579: 27,6554           41532                           LODON    DSU                                   #  VCORR = V1 - V1OLD
000580: 27,6555           21140                                    25NM
000581: 27,6556           16706                                    GOTOUPSY
000582: 27,6557           00013                                    HIND
000583: 27,6560           16567                                    GETVCOR
000584: 27,6561           01225                                    DIFF
000585: 27,6562           17050                                    DCONSTD                               #  SETTING UP DIFFOLD ON THE WAY
000586:
000587: 27,6563           01365                                    V1
000588: 27,6564           01371                                    V1OLD                                 #  VCORR = V1 - V1OLD
000589: 27,6565           33600                           STORE    VCORR
000590:
000591: 27,6566           66775        GETVCOR            DSU      1
000592: 27,6567           62706                           DDV      BDDV
000593: 27,6570           01325                                    DIFFOLD
000594: 27,6571           01225                                    DIFF
000595: 27,6572           01600                                    VCORR
000596: 27,6573           01225                                    DIFF
000597: 27,6574           33600                           STORE    VCORR
000598:
000599: 27,6575           77576                           EXIT     0
000600:
000601: 27,6576           02276                           TC       PHASCHNG                              #  HAVE GROUP 3 PICK UP AT PREHUNT.
000602: 27,6577           02003                           OCT      02003                                 #  3.16 RESTART.
000603:
000604: 27,6600           37622                           CAF      ADENDEXT                              #  SIDETRACK NEXT PASS UNTIL THIS ONE DONE.
000605: 27,6601           51374                           TS       GOTOADDR                              #  ONLY AFTER RESTART IS LEFT AFTER DETOUR.
000606:
000607: 27,6602           04000                           TC       INTPRET
000608:
000609: 27,6603           47574                           NOLOD    2
000610: 27,6604           65616                           BDSU     BPL                                   #  IS VCORR - 1000 POS.
000611: 27,6605           70776                           DAD                                            #  VCORR = 1000
000612: 27,6606           21132                                    VCORLIM
000613: 27,6607           16613                                    CHKVL
000614: 27,6610           01600                                    VCORR                                 #  LEAVING VCORLIM IN MPAC
000615: 27,6611           33600                           STORE    VCORR
000616:
000617: 27,6612           70774        CHKVL              DAD      2
000618: 27,6613           66756                           DSU      BMN                                   #  IF VL + VCORR - VSAT POS, VCORR=VCORR/
000619: 27,6614           41472                           LODON    TSRT
000620: 27,6615           01600                                    VCORR
000621: 27,6616           01616                                    VL
000622: 27,6617           21212                                    HALVE
000623: 27,6620           16625                                    GETNUV1
000624: 27,6621           01600                                    VCORR
000625: 27,6622           00002                                    1
000626: 27,6623           33600                           STORE    VCORR
000627:
000628: 27,6624           70776        GETNUV1            DAD      0
000629: 27,6625           01365                                    V1
000630: 27,6626           01600                                    VCORR
000631: 27,6627           33365                           STORE    V1
000632:
000633: 27,6630           45176                           DMOVE    0                                     #  SAVE OLD VALUE OF ASP
000634: 27,6631           01225                                    DIFF
000635: 27,6632           33325                           STORE    DIFFOLD
000636:
000637: 27,6633           43575                           TEST     1                                     #  SET HIND AND GO TO HUNTEST1
000638: 27,6634           42572                           SWITCH   ITC
000639: 27,6635           00013                                    HIND
000640: 27,6636           16313                                    HUNTEST1
000641: 27,6637           00013                                    HIND
000642: 27,6640           16313                                    HUNTEST1
000643:
000644:
000645:
000646: 27,6641           47575        NEGAMA             NOLOD    1                                     #  ENTER WITH GAMMAL IN  MPAC
000647: 27,6642           64722                           DMP      DMP                                   #  FIND GAMMAL VL / 3
000648: 27,6643           01616                                    VL
000649: 27,6644           21053                                    1/3RD                                 #    .. AND PUSH DOWN PARTIAL RESULT..
000650:
000651: 27,6645           70773                           DAD      3
000652: 27,6646           64722                           DMP      DMP                                   #   DEL VL = GAMMAL VL/3)/(LEWD/3 - DVL(2/3
000653: 27,6647           62712                           DDV      DDV                                   #       + AHOOKDV)(CH1 GS/DHOOK VL))
000654: 27,6650           65706                           BDSU     BDDV
000655: 27,6651           01436                                    AHOOKDV
000656: 27,6652           21055                                    1/12TH
000657: 27,6653           01440                                    DVL
000658: 27,6654           21202                                    CH1
000659: 27,6655           01434                                    DHOOK
000660: 27,6656           01616                                    VL                                    #  2 OUT OF ,1 INTO PUSH
000661: 27,6657           21061                                    LEWD/3
000662:
000663: 27,6660           70776                           DAD      0
000664: 27,6661           01616                                    VL
000665: 27,6662           33616                           STORE    VL                                    #   VL = VL + DEL VL
000666:
000667: 27,6663           47573                           NOLOD    3                                     #   VL IS IN MPAC
000668: 27,6664           62726                           DDV      BDSU                                  #   Q7 = ((1-VL/FACT1)SQ - ALP)/ FACT2
000669: 27,6665           51132                           DSQ      DSU
000670: 27,6666           62776                           DDV
000671: 27,6667           01632                                    FACT1
000672: 27,6670           21051                                    NEARONE
000673: 27,6671           01630                                    ALP
000674: 27,6672           01331                                    FACT2
000675: 27,6673           33327                           STORE    Q7
000676:
000677: 27,6674           51176                           DSQ      0                                     #  GET NEW VBARS.
000678: 27,6675           01616                                    VL
000679: 27,6676           33604                           STORE    VBARS
000680:
000681: 27,6677           45176                           DMOVE    0
000682: 27,6700           21065                                    3ZEROS
000683: 27,6701           33610                           STORE    GAMMAL                                #   GAMMAL = 0
000684:
000685: 27,6702           76776                           ITC      0
000686: 27,6703           16457                                    RANGER
000687:
000688:
000689: 27,6704           56716        UPCADR             CADR     UPCONTRL
000690:
000691: 27,6705           77576        GOTOUPSY           EXIT     0                                     #  BACK TO BASIC.
000692:
000693: 27,6706           36704        HUNTDUMP           CAF      UPCADR                                #  RESET GOTOADDR
000694: 27,6707           51374                           TS       GOTOADDR
000695: 27,6710           02362                           TC       NEWMODE                               #  CHANGE MODE TO SIGNAL END OF HUNT-TEST.
000696: 27,6711           00065                           OCT      00065
000697:
000698: 27,6712           44516                           CS       ONE                                   #  MAKE GROUP 3 INACTIVE WHEN DONE WITH
000699: 27,6713           02312                           TC       NEWPHASE                              #        THE ITERATIONS.
000700: 27,6714           00003                           OCT      3                                     #  GROUP 3.
000701:
000702: 27,6715           04000                           TC       INTPRET                               #  ...AND FALL INTO UPCONTROL...
000703:
000704:
000705:                                                                                                  #  THIS SECTION IS THE UPCONTROL FOR THE SUPERCIRCULAR PHASE
000706:
000707: 27,6716           66773        UPCONTRL           DSU      3                                     #  IF V-V1 POS, GO TO DOWNCONTROL
000708: 27,6717           43605                           BPL      LODON                                 #  IF D-Q7 NEG, GO TO KEP
000709: 27,6720           66756                           DSU      BMN
000710: 27,6721           41556                           LODON    BMN                                   #  IF RDOT NEG, GO TO VLTEST
000711: 27,6722           01620                                    V                                     #  VLTEST TESTS FOR START OF FINAL PHASE
000712: 27,6723           01365                                    V1
000713: 27,6724           17111                                    DOWNCNTL
000714: 27,6725           01363                                    D
000715: 27,6726           01327                                    Q7
000716: 27,6727           17140                                    KEP                                   #  SET CONSTS. ETC FOR BALLISTIC PHASE.
000717: 27,6730           01347                                    RDOT
000718: 27,6731           17160                                    VLTEST
000719:
000720: 27,6732           66775        CONT1              DSU      1
000721: 27,6733           43776                           BPL
000722: 27,6734           01363                                    D                                     #  IF D-A0 NEG,L/D=LAD,GO TO 310
000723: 27,6735           01602                                    A0
000724: 27,6736           17323                                    GOPOSLAD
000725: 27,6737           64774                           DMP      2                                     #  VREF=FACT1(1-SQRT(FACT2 D + ALP))
000726: 27,6740           70653                           DAD      SQRT
000727: 27,6741           65722                           BDSU     DMP
000728: 27,6742           01363                                    D
000729: 27,6743           01331                                    FACT2
000730: 27,6744           01630                                    ALP
000731: 27,6745           21051                                    NEARONE
000732: 27,6746           01632                                    FACT1
000733: 27,6747           33624                           STORE    VREF
000734:
000735: 27,6750           47575                           NOLOD    1                                     #  RDOTREF = LEWD(V1-VREF)
000736: 27,6751           65722                           BDSU     DMP
000737: 27,6752           01365                                    V1
000738: 27,6753           21057                                    LEWD
000739: 27,6754           33626                           STORE    RDOTREF
000740:
000741: 27,6755           66775                           DSU      1                                     #  IF VSAT - VREF NEG, GO TO CONTINU2
000742: 27,6756           73635                           BMN      NOLOD                                 #  NOLOD TO PUSH DOWN (HALVE-VREF)
000743: 27,6757           01612                                    VS
000744: 27,6760           01624                                    VREF                                  #  NO RDHOOK UNTIL VREF LESS THAN VSAT.
000745: 27,6761           17003                                    CONTINU2                              #  PUSHING DOWN IF NO BRANCH.
000746:
000747: 27,6762           47571                           NOLOD    5                                     #  RDHOOK=CH1(AHOOKDVL/DVL(DV+1))DV DV
000748: 27,6763           64712                           DMP      DDV                                   #        /DHOOK VREF
000749: 27,6764           70722                           DAD      DMP                                   #  WHERE DV = VS - VREF
000750: 27,6765           64722                           DMP      DMP
000751: 27,6766           62712                           DDV      DDV
000752: 27,6767           65776                           BDSU
000753: 27,6770           01436                                    AHOOKDV
000754: 27,6771           01440                                    DVL
000755: 27,6772           21200                                    1/8TH
000756: 27,6773           21202                                    CH1
000757: 27,6774           00001                                    0                                     #   ABOVE SHOULD HAVE PUSHED INTO LOC 0.
000758: 27,6775           77777                                    -
000759: 27,6776           01434                                    DHOOK
000760: 27,6777           01624                                    VREF
000761: 27,7000           01626                                    RDOTREF
000762: 27,7001           33626                           STORE    RDOTREF                               #   RDOTREF = RDOTREF - RDHOOK
000763:
000764: 27,7002           66776        CONTINU2           DSU      0
000765: 27,7003           01602                                    A0                                    #  FACTOR = (D-Q7)/(A0-Q7)
000766: 27,7004           01327                                    Q7                                    #   PARTIAL RESULT IN PD
000767:
000768: 27,7005           66775                           DSU      1
000769: 27,7006           62776                           DDV
000770: 27,7007           01363                                    D
000771: 27,7010           01327                                    Q7
000772: 27,7011           33622                           STORE    FACTOR
000773:
000774: 27,7012           66772                           DSU      4                                     #  L/D = LEWD
000775: 27,7013           64712                           DMP      DDV                                   #   -((RDOT-RDOTREF)F1/KB1+V-VREF)F1/KB2
000776: 27,7014           70732                           DAD      DSU
000777: 27,7015           64712                           DMP      DDV
000778: 27,7016           70746                           DAD      BOV
000779: 27,7017           01347                                    RDOT
000780: 27,7020           01626                                    RDOTREF
000781: 27,7021           01622                                    FACTOR
000782: 27,7022           21124                                    KB1
000783: 27,7023           01620                                    V
000784: 27,7024           01624                                    VREF
000785: 27,7025           01622                                    FACTOR
000786: 27,7026           21126                                    KB2                                   #  DELTA L/D INTO PD
000787: 27,7027           21057                                    LEWD
000788: 27,7030           17337                                    GOMAXL/D
000789: 27,7031           33223                           STORE    L/D
000790:
000791: 27,7032           47573        NEGTEST            NOLOD    3                                     #  IF L/D NEG, AND D-C20 POS, L/D = 0
000792: 27,7033           43605                           BPL      LODON
000793: 27,7034           66756                           DSU      BMN
000794: 27,7035           42522                           SWITCH   DMP
000795: 27,7036           17405                                    LIMITL/D
000796: 27,7037           01363                                    D
000797: 27,7040           21136                                    C20
000798: 27,7041           17405                                    LIMITL/D
000799: 27,7042           00014                                    LATSW
000800: 27,7043           21065                                    3ZEROS                                #  L/D=0 NO NEG LIFT
000801: 27,7044           33223                           STORE    L/D
000802:
000803: 27,7045           76776                           ITC      0
000804: 27,7046           17405                                    LIMITL/D
000805:
000806:
000807:                                                                                                  #        CONSTANT DRAG CONTROLLER
000808: 27,7047           45176        DCONSTD            DMOVE    0
000809: 27,7050           01225                                    DIFF                                  #  SAVE OLD VALUE OF DIFF FOR NEXT PASS.
000810: 27,7051           33325                           STORE    DIFFOLD
000811:
000812: 27,7052           45176                           DMOVE    0                                     #  V1OLD = V1
000813: 27,7053           01365                                    V1
000814: 27,7054           33371                           STORE    V1OLD
000815:
000816: 27,7055           75575        BECONSTD           AXT,1    1                                     #  RESETS GOTOADDR  TO GO TO HUNTEST
000817: 27,7056           67576                           SXA,1
000818: 27,7057           16237                                    HUNTEST
000819: 27,7060           01375                                    GOTOADDR
000820:
000821: 27,7061           64776        CONSTD             DMP      0
000822: 27,7062           01432                                    LEQ
000823: 27,7063           01341                                    -1/D0
000824:
000825: 27,7064           66775                           DSU      1
000826: 27,7065           64742                           DMP      DAD
000827: 27,7066           01363                                    D
000828: 27,7067           01614                                    D0
000829: 27,7070           21142                                    C16
000830:
000831: 27,7071           64773                           DMP      3
000832: 27,7072           62742                           DDV      DAD
000833: 27,7073           64742                           DMP      DAD
000834: 27,7074           63746                           TSLT     BOV
000835: 27,7075           21230                                    2HS                                   #  RDOTREF = - 2 HS D0/V
000836: 27,7076           01614                                    D0
000837: 27,7077           01620                                    V
000838: 27,7100           01347                                    RDOT
000839: 27,7101           17660                                    C17
000840: 27,7102           77777                                    -
000841: 27,7103           00011                                    8D
000842: 27,7104           17337                                    GOMAXL/D
000843:
000844: 27,7105           33223                           STORE    L/D
000845:
000846: 27,7106           76776                           ITC      0
000847: 27,7107           17033                                    NEGTEST
000848:
000849: 27,7110           66775        DOWNCNTL           DSU      1                                     #  RDTR = LAD(V1-V)
000850: 27,7111           64776                           DMP
000851: 27,7112           01365                                    V1
000852: 27,7113           01620                                    V
000853: 27,7114           21172                                    LAD/KC1
000854:
000855: 27,7115           47571                           NOLOD    5
000856: 27,7116           51112                           DSQ      DDV
000857: 27,7117           65726                           BDSU     BDSU
000858: 27,7120           64732                           DMP      DSU
000859: 27,7121           70742                           DAD      DAD
000860: 27,7122           63746                           TSLT     BOV
000861: 27,7123           21174                                    2HSL/KC2
000862: 27,7124           01602                                    A0
000863: 27,7125           01363                                    D
000864: 27,7126           21142                                    C16
000865: 27,7127           01347                                    RDOT
000866: 27,7130           21160                                    LAD/256
000867: 27,7131           77777                                    -
000868: 27,7132           00011                                    8D
000869: 27,7133           17337                                    GOMAXL/D
000870: 27,7134           33223                           STORE    L/D
000871:
000872: 27,7135           76776                           ITC      0
000873: 27,7136           17405                                    LIMITL/D
000874:
000875: 27,7137           77576        KEP                EXIT     0
000876:
000877: 27,7140           37155                           CAF      KEPCADR                               #  SET GOTOADDR TO KEPLER PHASE.
000878: 27,7141           51374                           TS       GOTOADDR
000879: 27,7142           02362                           TC       NEWMODE                               #  SET MODE TO KEPLER PHASE.
000880: 27,7143           00066                           OCT      00066
000881:
000882: 27,7144           04000                           TC       INTPRET
000883:
000884: 27,7145           70775        KEPL               DAD      1                                     #  IF Q7+KDMIN - D NEG, GO TO FINAL PHASE
000885: 27,7146           66756                           DSU      BMN
000886: 27,7147           01327                                    Q7                                    #   MIN DRAG = Q7 + .5 FT/SEC/SEC
000887: 27,7150           21076                                    KDMIN
000888: 27,7151           01363                                    D
000889: 27,7152           17166                                    PREFINAL                              #   FALL THRU IF POS...
000890:
000891: 27,7153           77576        ENDEXIT            EXIT     0                                     #   GOTOADDR IS SET HERE DURING VLHUNT.
000892: 27,7154           07477                           TC       OVERNOUT
000893:
000894: 27,7155           57145        KEPCADR            CADR     KEPL
000895: 27,7156           57200        P3CADR             CADR     PREDICT3
000896:
000897: 27,7157           66775        VLTEST             DSU      1                                     #  IF V-VL-C18 NEG,EGSW=1,SELECTOR=PREDIC
000898: 27,7160           66616                           DSU      BPL                                   #  GO TO PREDICT3
000899: 27,7161           01620                                    V
000900: 27,7162           01616                                    VL
000901: 27,7163           21074                                    C18
000902: 27,7164           16733                                    CONT1
000903:
000904: 27,7165           42575        PREFINAL           SWITCH   1                                     #  CHANGE GOTOADDR TO PREDICT3 AND FALL
000905: 27,7166           77576                           EXIT                                           #  INTO PREDICT3
000906: 27,7167           00011                                    EGSW
000907:
000908: 27,7170           44516                           CS       ONE
000909: 27,7171           02312                           TC       NEWPHASE
000910: 27,7172           00003                           OCT      3
000911:
000912: 27,7173           37156                           CAF      P3CADR
000913: 27,7174           51374                           TS       GOTOADDR                              #  SET TO PREDICT3 PHASE.
000914: 27,7175           02362                           TC       NEWMODE
000915: 27,7176           00067                           OCT      00067
000916:
000917: 27,7177           04000                           TC       INTPRET                               #  ... AND FALL INTO PREDICT3...
000918:
000919:
000920:                                                                                                  #    SUBORBITAL CONTROL  (REFERENCE TRAJECTOORY BY TABLE LOOK-UP.)
000921:
000922: 27,7200           66772        PREDICT3           DSU      4
000923: 27,7201           73605                           BMN      LODON                                 #  IF V - VQUIT NEG,  STOP STEERING
000924: 27,7202           43576                           TEST
000925: 27,7203           41612                           VXV      DOT                                   #  IF (RT)*UNITR.UNI NEG, SET GONEPAST
000926: 27,7204           73775                           BMN      EXIT
000927: 27,7205           01620                                    V
000928: 27,7206           21132                                    VQUIT
000929: 27,7207           17455                                    STEER
000930: 27,7210           00007                                    GONEPAST
000931: 27,7211           17332                                    GONEGLAD
000932: 27,7212           01215                                    RT
000933: 27,7213           01016                                    UNITR
000934: 27,7214           01562                                    UNI                                   #  (MIGHT SAVE THIS FROM EARLIER..
000935: 27,7215           17330                                    SETGPAST
000936:
000937: 27,7216           45642                           CS       NEG14
000938: 27,7217           51107        BACK               TS       JJ
000939:
000940: 27,7220           41617                           CS       V
000941: 27,7221           21107                           INDEX    JJ
000942: 27,7222           67623                           AD       VREFER                                #  VREF - V, HIGHEST VREF AT END OF TABLE.
000943: 27,7223           10000                           CCS      A                                     #  IF VREF-V POS LOOP BACK
000944: 27,7224           11107                           CCS      JJ                                    #  DECREMENT JJ, JJ CANNOT BE ZERO
000945: 27,7225           07217                           TC       BACK
000946:
000947: 27,7226           64516                           AD       ONE
000948: 27,7227           51420                           TS       TEM1B                                 #  V-VREF IN TEM1B (MUST BE POSITIVE NUM)
000949:
000950: 27,7230           21107                           INDEX    JJ
000951: 27,7231           47623                           CS       VREFER
000952: 27,7232           21107                           INDEX    JJ
000953: 27,7233           67624                           AD       VREFER     +1                         #  V(K+1) - V(K)     (POS NUM)
000954: 27,7234           31420                           XCH      TEM1B
000955: 27,7235           25777                           EXTEND
000956: 27,7236           51420                           DV       TEM1B
000957: 27,7237           51422                           TS       GRAD                                  #  GRAD = (V-VREF)/(VK+1 - VK)   (POS NUM
000958:
000959: 27,7240           34477                           CAF      FIVE
000960: 27,7241           51421        BACK2              TS       M1
000961: 27,7242           37620                           CAF      DEC15
000962: 27,7243           61107                           AD       JJ
000963: 27,7244           51107                           TS       JJ
000964: 27,7245           20000                           INDEX    A
000965: 27,7246           47623                           CS       VREFER
000966: 27,7247           21107                           INDEX    JJ
000967: 27,7250           67624                           AD       VREFER     +1                         #  X(K+1) - X(K)
000968: 27,7251           25777                           EXTEND
000969: 27,7252           41422                           MP       GRAD
000970: 27,7253           21107                           INDEX    JJ
000971: 27,7254           67623                           AD       VREFER
000972: 27,7255           21421                           INDEX    M1
000973: 27,7256           51100                           TS       FX                                    #  FX = AK + GRAD (AK+1 - AK)
000974: 27,7257           11421                           CCS      M1
000975: 27,7260           07241                           TC       BACK2
000976:
000977: 27,7261           35501                           CAF      ZERO
000978: 27,7262           31101                           XCH      FX         +1
000979: 27,7263           61362                           AD       D
000980: 27,7264           25777                           EXTEND
000981: 27,7265           41105                           MP       FX         +5                         #  F1
000982: 27,7266           51420                           TS       TEM1B                                 #  TEM1B= F1(D-DREF)
000983:
000984: 27,7267           41346                           CS       RDOT                                  #  FORM RDOTREF - RDOT
000985: 27,7270           60000                           DOUBLE
000986: 27,7271           60000                           DOUBLE                                         #  SCALE UP BY 8 FOR THIS PHASE.
000987: 27,7272           60000                           DOUBLE
000988: 27,7273           61103                           AD       FX         +3                         #  RDOTREF
000989: 27,7274           25777                           EXTEND
000990: 27,7275           41104                           MP       FX         +4                         #  F2
000991: 27,7276           61420                           AD       TEM1B                                 #  ADD F2(DADV1-DADVR)
000992: 27,7277           61102                           AD       FX         +2                         #  RTOGO
000993: 27,7300           31106                           XCH      PREDANG                               #  NO OVERFLOW SKIP PLEASE.
000994: 27,7301           04000                           TC       INTPRET
000995:
000996: 27,7302           43172                           SMOVE    4
000997: 27,7303           56726                           TSRT     BDSU                                  #  THETAH - PRED ANGLE
000998: 27,7304           62716                           DDV      TSLT
000999: 27,7305           71742                           BOV      DAD
001000: 27,7306           71776                           BOV
001001: 27,7307           01107                                    PREDANG
001002: 27,7310           00004                                    3
001003: 27,7311           01111                                    THETAH
001004: 27,7312           01101                                    FX                                    #  FX = DRANGE/D L/D = Y
001005: 27,7313           00006                                    5
001006: 27,7314           17337                                    GOMAXL/D
001007: 27,7315           21206                                    LOD
001008: 27,7316           17337                                    GOMAXL/D
001009: 27,7317           33223                           STORE    L/D
001010:
001011: 27,7320           76776                           ITC      0
001012: 27,7321           17344                                    GLIMITER
001013:
001014: 27,7322           45176        GOPOSLAD           DMOVE    0
001015: 27,7323           21156                                    LAD
001016: 27,7324           33223                           STORE    L/D
001017: 27,7325           76776                           ITC      0
001018: 27,7326           17405                                    LIMITL/D
001019:
001020: 27,7327           42576        SETGPAST           SWITCH   0                                     #  SHOULD BE BY TARGET IF HERE.
001021: 27,7330           00007                                    GONEPAST
001022:
001023: 27,7331           47176        GONEGLAD           COMP     0
001024: 27,7332           21156                                    LAD                                   #  L/D = - LAD
001025: 27,7333           33223                           STORE    L/D
001026:
001027: 27,7334           76776                           ITC      0
001028: 27,7335           17344                                    GLIMITER
001029:
001030: 27,7336           76575        GOMAXL/D           RTB      1
001031: 27,7337           64776                           DMP                                            #  L/D = LAD SIG(MPAC)
001032: 27,7340           20614                                    SIGNMPAC
001033: 27,7341           21156                                    LAD
001034: 27,7342           33223                           STORE    L/D                                   #  AND FALLS INTO LIMITL/D SECTION.
001035:
001036: 27,7343           66774        GLIMITER           DSU      2                                     #  IF GMAX/2-D POS, GO TO LIMITL/D
001037: 27,7344           43742                           BPL      DAD                                   #  IF GMAX-D NEG, GO TO GOPOSLAD
001038: 27,7345           73722                           BMN      DMP
001039: 27,7346           21224                                    GMAX/2
001040: 27,7347           01363                                    D
001041: 27,7350           17405                                    LIMITL/D
001042: 27,7351           21224                                    GMAX/2
001043: 27,7352           17323                                    GOPOSLAD
001044: 27,7353           21230                                    2HS                                   #  2HS(GMAX-D) INTO PD
001045:
001046: 27,7354           64775                           DMP      1
001047: 27,7355           70722                           DAD      DMP
001048: 27,7356           01432                                    LEQ
001049: 27,7357           21226                                    1/GMAX
001050: 27,7360           21156                                    LAD                                   #  2HS(GMAX-D) (LEQ/GMAX+LAD) INTO PD
001051:
001052: 27,7361           62773                           DDV      3
001053: 27,7362           70653                           DAD      SQRT                                  #  XLIM = SQRT(PD+(2HSGMAX/V)SQ)
001054: 27,7363           70616                           DAD      BPL                                   #  IF RDOT+XLIM NEG, L/D=LAD
001055: 27,7364           46576                           ROUND
001056: 27,7365           21232                                    2HSGMXSQ
001057: 27,7366           01343                                    VSQUARE
001058: 27,7367           77777                                    -
001059: 27,7370           01347                                    RDOT                                  #  KGLIM2= -5 SCALED
001060: 27,7371           17405                                    LIMITL/D
001061:
001062: 27,7372           64774                           DMP      2
001063: 27,7373           70712                           DAD      DDV
001064: 27,7374           62746                           DDV      BOV
001065: 27,7375           21220                                    KGLIM1
001066: 27,7376           01432                                    LEQ
001067: 27,7377           77777                                    -
001068: 27,7400           01363                                    D
001069: 27,7401           21222                                    KGLIM2
001070: 27,7402           17323                                    GOPOSLAD
001071: 27,7403           33223                           STORE    L/D
001072:
001073:                                                                                                  #  COMES HERE TO COMPUTE ROLL COMMAND, CHECK LATERAL ERRORS, AND STEER
001074: 27,7404           43575        LIMITL/D           TEST     1                                     #  NO LATERAL CONTROL IF PAST TARGET
001075: 27,7405           64742                           DMP      DAD                                   #  Y = KLAT VSQUARE + LATBIAS
001076: 27,7406           00007                                    GONEPAST
001077: 27,7407           17445                                    L355
001078: 27,7410           01343                                    VSQUARE
001079: 27,7411           21162                                    KLAT
001080: 27,7412           21164                                    LATBIAS
001081: 27,7413           32025                           STORE    Y
001082:
001083: 27,7414           65172        L350               ABS      4                                     #  IF ABS(L/D)-L/DCMINR NEG, GO TO L353
001084: 27,7415           66756                           DSU      BMN
001085: 27,7416           41456                           LODON    SIGN                                  #  IF K2ROLL LATANG NEG, GO TO L357
001086: 27,7417           73605                           BMN      LODON
001087: 27,7420           56776                           TSRT                                           #  Y = Y/2
001088: 27,7421           01223                                    L/D
001089: 27,7422           21214                                    L/DCMINR
001090: 27,7423           17433                                    L353
001091: 27,7424           01113                                    LATANG
001092: 27,7425           01373                                    K2ROLL
001093: 27,7426           17526                                    L357
001094: 27,7427           00025                                    Y
001095: 27,7430           00002                                    1
001096: 27,7431           32025                           STORE    Y
001097:
001098: 27,7432           53774        L353               SIGN     2                                     #  IF LATANG SIGN(K2ROLL) - Y POS, SWITCH
001099: 27,7433           66756                           DSU      BMN                                   #  IF POS, GO TO BL361 IN BASIC.
001100: 27,7434           43571                           TEST     RTB
001101: 27,7435           01113                                    LATANG
001102: 27,7436           01373                                    K2ROLL
001103: 27,7437           00025                                    Y
001104: 27,7440           17445                                    L355
001105: 27,7441           00014                                    LATSW
001106: 27,7442           17445                                    L355
001107: 27,7443           17503                                    BL361
001108:
001109: 27,7444           62774        L355               DDV      2                                     #  ROLLC = ACOS((L/D)/LAD)
001110: 27,7445           56703                           TSRT     ACOS
001111: 27,7446           53776                           SIGN                                           #  ROLLC = ROLLC SIGN(K2ROLL)
001112: 27,7447           01223                                    L/D
001113: 27,7450           21156                                    LAD
001114: 27,7451           00002                                    1
001115: 27,7452           01373                                    K2ROLL
001116: 27,7453           33473                           STORE    ROLLC
001117:
001118: 27,7454           43575        STEER              TEST     1
001119: 27,7455           77576                           EXIT
001120: 27,7456           00014                                    LATSW
001121: 27,7457           17534                                    L380
001122: 27,7460           41472        STEER2             CS       ROLLC
001123: 27,7461           25777                           EXTEND
001124: 27,7462           47621                           MP       K3ROLL
001125: 27,7463           61450                           AD       K1ROLL
001126: 27,7464           50115                           TS       MPAC                                  #   AFRAID TO STORE POSS BAD NUM IN THETAD
001127: 27,7465           07471                           TC       +4                                    #   SKIPS ON OVERFLOW
001128: 27,7466           20000                           INDEX    A
001129: 27,7467           34477                           CAF      LIMITS                                #   ALLOW OVERFLOW (GO TO NEGMAX FROM POSMX
001130: 27,7470           60115                           AD       MPAC
001131:
001132: 27,7471           20017                           INHINT
001133: 27,7472           50700                           TS       THETAD                                #   THETAD = X CDU = ROLL
001134: 27,7473           44514                           CS       BIT3
001135: 27,7474           70675                           MASK     TMMARKER
001136: 27,7475           64514                           AD       BIT3                                  #   SET BIT 3 IN TMMARKER WHEN THETAD COMP
001137: 27,7476           50675                           TS       TMMARKER
001138: 27,7477           02276        OVERNOUT           TC       PHASCHNG                              #  RECYCLE GROUP 5 TO PIPUP WAIT STATE.
001139: 27,7500           01405                           OCT      01405                                 #  5.12 RESTART.  (PIPUP SYNCED WITH 2 SEC)
001140:
001141: 27,7501           02124                           TC       ENDOFJOB
001142:
001143: 27,7502           41372        BL361              CS       K2ROLL                                #  K2ROLL = - K2ROLL
001144: 27,7503           51372                           TS       K2ROLL
001145:
001146: 27,7504           11222                           CCS      L/D                                   #  IF L/D POS, EXIT
001147: 27,7505           04703                           TC       RE-ENTER                              #  SO IT WONT STORE IN PUSH LIST.
001148: 27,7506           04703                           TC       RE-ENTER
001149: 27,7507           07511                           TC       +2
001150: 27,7510           04703                           TC       RE-ENTER
001151:
001152: 27,7511           11372                           CCS      K2ROLL                                #  K1ROLL = K1ROLL + K3ROLL SIGN(K2ROLL)
001153: 27,7512           37621                           CAF      K3ROLL                                #  K3ROLL = - .125
001154: 27,7513           07515                           TC       +2
001155: 27,7514           47621                           CS       K3ROLL
001156: 27,7515           61450                           AD       K1ROLL
001157: 27,7516           51450                           TS       K1ROLL
001158: 27,7517           04703                           TC       RE-ENTER                              #  SKIPS THIS ON OVERFLOW.
001159:
001160: 27,7520           20000                           INDEX    A                                     #  POSMAX + 1 = NEGMAX  ETC.
001161: 27,7521           34477                           CAF      LIMITS                                #  NO LIMIT ON NUMBER OF ROLL REVS DURING
001162: 27,7522           61450                           AD       K1ROLL                                #      ENTRY.   (ROUTINE IS GENERAL.)
001163: 27,7523           51450                           TS       K1ROLL                                #  STILL DOESNT WORRY ABOUT 2SCOMP, THO.
001164: 27,7524           04703                           TC       RE-ENTER
001165:
001166:
001167:
001168: 27,7525           53776        L357               SIGN     0
001169: 27,7526           21214                                    L/DCMINR                              #  L/D = L/DCMINR SIGN(L/D)
001170: 27,7527           01223                                    L/D
001171: 27,7530           33223                           STORE    L/D
001172:
001173: 27,7531           76776                           ITC      0
001174: 27,7532           17445                                    L355
001175:
001176: 27,7533           42575        L380               SWITCH   1
001177: 27,7534           76576                           RTB
001178: 27,7535           00014                                    LATSW
001179: 27,7536           17461                                    STEER2
001180:
001181:
001182:                                                                                                  #        ROUTINE TO PREDICT AND SET PITCH ANGLE FOR 2ND ENTRY CONDITIONS.
001183:
001184: 27,7537           32150        UPTHETA3           CAF      PRIO14
001185: 27,7540           02046                           TC       FINDVAC
001186: 27,7541           57543                           CADR     UPTHETA1
001187:
001188: 27,7542           02256                           TC       TASKOVER
001189:
001190: 27,7543           04000        UPTHETA1           TC       INTPRET                               #   STARTS OFF IN BASIC
001191:
001192: 27,7544           76776        UPTHETA            ITC      0                                     #  FIND DESIRED SPACECRAFT ORIENTATION.
001193: 27,7545           21242                                    GETUNB
001194:
001195: 27,7546           76776                           ITC      0                                     #  GET OGC, IGC, MGC.,GIMBAL COMMANDS
001196: 27,7547           04353                                    CALCGTA
001197:
001198: 27,7550           77576                           EXIT     0
001199:
001200: 27,7551           41522                           CS       IGC
001201: 27,7552           40000                           COM
001202: 27,7553           60000                           DOUBLE
001203: 27,7554           50701                           TS       THETAD     +1                         #  COMMAND PITCH ANGLE. (NO SKIPS)
001204:
001205: 27,7555           41524                           CS       MGC
001206: 27,7556           40000                           COM
001207: 27,7557           60000                           DOUBLE                                         #  CHANGE FROMINTERPRETER SCALING TO CDU
001208: 27,7560           50702                           TS       THETAD     +2                         #  YAW, MG ANGLE COMMAND
001209:
001210: 27,7561           20017                           INHINT
001211: 27,7562           37616                           CAF      PITCHDT                               #  CALL UP ATTITUDE CONTROL LOOP PITCHDT
001212: 27,7563           02173                           TC       WAITLIST                              #  SECONDS AFTER FINISHING THIS TIME.
001213: 27,7564           57537                           CADR     UPTHETA3
001214:
001215: 27,7565           02124        UPNOVER            TC       ENDOFJOB
001216:
001217:
001218:
001219:
001220:
001221:                                                                                                  #    PIPAS ARE READ (BUT NOT CLEARED) AT A HIGHER RATE HERE.
001222:
001223: 27,7566           40044        INTERPIP           CS       PIPAX
001224: 27,7567           21414                           INDEX    PIPCTR
001225: 27,7570           51400                           TS       XPIPBUF
001226: 27,7571           40045                           CS       PIPAY
001227: 27,7572           21414                           INDEX    PIPCTR
001228: 27,7573           51404                           TS       YPIPBUF
001229: 27,7574           40046                           CS       PIPAZ
001230: 27,7575           21414                           INDEX    PIPCTR
001231: 27,7576           51410                           TS       ZPIPBUF
001232:
001233: 27,7577           11414                           CCS      PIPCTR
001234: 27,7600           07604                           TC       +4
001235: 27,7601           35503                           CAF      TWO
001236: 27,7602           51414                           TS       PIPCTR
001237: 27,7603           07611                           TC       PIPSETUP
001238: 27,7604           51414                           TS       PIPCTR
001239:
001240: 27,7605           36032                           CAF      IPIPDT
001241: 27,7606           02173                           TC       WAITLIST
001242: 27,7607           57566                           CADR     INTERPIP
001243:
001244: 27,7610           02256                           TC       TASKOVER
001245:
001246:
001247:
001248: 27,7611           32151        PIPSETUP           CAF      PRIO15                                #  LOWER THAN AVG G - HIGHER THAN UPTHETA.
001249: 27,7612           02052                           TC       NOVAC
001250: 27,7613           57615                           CADR     SMOOTHER
001251: 27,7614           02256                           TC       TASKOVER
001252:
001253:
001254:
001255: 27,7615           02124        SMOOTHER           TC       ENDOFJOB                              #  WHEN WRITTEN, FIND A GOOD BANK FOR THIS.
001256:
001257:                                                                                                  #  DETERMINE TIME TO OPEN CHUTE HERE IF NEEDED
001258:
001259: 27,7616           00310        PITCHDT            DEC      200        B-14
001260: 27,7617           00310        DT                 DEC      200        B-14                       #  MAIN LOOP DT.
001261: 27,7620           00017        DEC15              DEC      15         B-14
001262:
001263: 27,7621           73777        K3ROLL             DEC      -.125
001264: 27,7622           57153        ADENDEXT           CADR     ENDEXIT
001265:
001266:                                                                                                  #  DEFINED BY EQUALS
001267:
001268: 27,7623                        ASP                EQUALS   0
001269: 27,7623                        Y                  EQUALS   20D                                   #  TEMP
001270: 27,7623                        GAMMAL1            EQUALS   22D
001271: 27,7623     1100               A1                 EQUALS   FX
001272:
001273:
001274:                                                                                                  #        TABLE USED FOR SUB-ORBITAL REFERENCE TRAJECTORY CONTROL.
001275:
001276:
001277:
001278: 27,7623           00000        VREFER             DEC      0          B-14                       #  REFERENCE VELOCITY SCALED V/51532.3946
001279: 27,7624           00153                           DEC      .006539                               #  15 POINTS ARE STORED AS THE INDEPENDENT
001280: 27,7625           00527                           DEC      .020958                               #  VARIABLE AND THEN SIX 15 POINT FUNC-
001281: 27,7626           01235                           DEC      .040809                               #  TIONS OF V ARE STORED CONSECUTIVELY
001282: 27,7627           02337                           DEC      .076107
001283: 27,7630           03721                           DEC      .122156
001284: 27,7631           05230                           DEC      .165546
001285: 27,7632           06213                           DEC      .196012
001286: 27,7633           10550                           DEC      .271945
001287: 27,7634           11717                           DEC      .309533
001288: 27,7635           13314                           DEC      .356222
001289: 27,7636           14736                           DEC      .404192
001290: 27,7637           16255                           DEC      .448067
001291: 27,7640           16457                           DEC      .456023
001292: 27,7641           25570                           DEC      .67918                                #  HIGH VELOCITY FOR SAFETY
001293:
001294: 27,7642           77573                           DEC      -.008035                              #  DRANGE/DA     SCALED DRDA/(2700/805)
001295: 27,7643           77573                           DEC      -.008035
001296: 27,7644           77516                           DEC      -.010820
001297: 27,7645           77360                           DEC      -.016550
001298: 27,7646           77106                           DEC      -.026935
001299: 27,7647           76516                           DEC      -.042039
001300: 27,7650           76071                           DEC      -.058974
001301: 27,7651           75570                           DEC      -.070721
001302: 27,7652           74661                           DEC      -.098538
001303: 27,7653           74436                           DEC      -.107482
001304: 27,7654           73212                           DEC      -.147762
001305: 27,7655           71640                           DEC      -.193289
001306: 27,7656           54557                           DEC      -.602557
001307: 27,7657           40000        C17                DEC      -.99999
001308: 27,7660           40000                           DEC      -.99999
001309:
001310: 27,7661           00000                           DEC      0          B-14                       #  -DRANGE/DRDOT
001311: 27,7662           00000                           DEC      0          B-14                       #  SCALED((2VS/8 2700) DR/DRDOT)
001312: 27,7663           77632                           DEC      -.0494520  B-3
001313: 27,7664           77563                           DEC      -.0683663  B-3
001314: 27,7665           77354                           DEC      -.1343468  B-3
001315: 27,7666           76712                           DEC      -.2759846  B-3
001316: 27,7667           76066                           DEC      -.4731437  B-3
001317: 27,7670           75322                           DEC      -.6472087  B-3
001318: 27,7671           73237                           DEC      -1.171693  B-3
001319: 27,7672           72104                           DEC      -1.466382  B-3
001320: 27,7673           70301                           DEC      -1.905171  B-3
001321: 27,7674           65635                           DEC      -2.547990  B-3
001322: 27,7675           57311                           DEC      -4.151220  B-3
001323: 27,7676           50575                           DEC      -5.813617  B-3
001324: 27,7677           50575                           DEC      -5.813617  B-3
001325:
001326: 27,7700           76265                           DEC      -.00642065 B3                         #  RDOTREF       SCALED (8 RDT/2VS)
001327: 27,7701           76265                           DEC      -.00642065 B3
001328: 27,7702           74435                           DEC      -.0134426  B3
001329: 27,7703           74333                           DEC      -.013947   B3
001330: 27,7704           74433                           DEC      -.013462   B3
001331: 27,7705           74763                           DEC      -.011813   B3
001332: 27,7706           75432                           DEC      -.0095631  B3
001333: 27,7707           75735                           DEC      -.00806946 B3
001334: 27,7710           76200                           DEC      -.006828   B3
001335: 27,7711           75735                           DEC      -.00806946 B3
001336: 27,7712           75140                           DEC      -.0109791  B3
001337: 27,7713           74075                           DEC      -.0151496  B3
001338: 27,7714           73312                           DEC      -.0179817  B3
001339: 27,7715           73732                           DEC      -.0159061  B3
001340: 27,7716           73732                           DEC      -.0159061  B3
001341:
001342: 27,7717           00000                           DEC      0          B-14                       #  RANGE TO GO SCALED RTOGO/2700
001343: 27,7720           00000                           DEC      0          B-14
001344: 27,7721           00020                           DEC      .00100                                #        2.7 NM
001345: 27,7722           00066                           DEC      .0032963                              #        8.9
001346: 27,7723           00206                           DEC      .0081852                              #        22.1
001347: 27,7724           00431                           DEC      .017148
001348: 27,7725           00712                           DEC      .027926
001349: 27,7726           01136                           DEC      .037
001350: 27,7727           02015                           DEC      .063296
001351: 27,7730           02374                           DEC      .077889
001352: 27,7731           03123                           DEC      .098815
001353: 27,7732           04051                           DEC      .127519
001354: 27,7733           05767                           DEC      .186963
001355: 27,7734           07476                           DEC      .238148
001356: 27,7735           07476                           DEC      .238148
001357:
001358: 27,7736           76511                           DEC      -.042360                              #  -AREF   SCALED AREF/805
001359: 27,7737           76511                           DEC      -.042360
001360: 27,7740           76234                           DEC      -.052919
001361: 27,7741           75472                           DEC      -.074534
001362: 27,7742           74604                           DEC      -.101242
001363: 27,7743           74210                           DEC      -.116646
001364: 27,7744           74052                           DEC      -.122360
001365: 27,7745           73735                           DEC      -.127081
001366: 27,7746           73217                           DEC      -.147453
001367: 27,7747           73013                           DEC      -.155528
001368: 27,7750           73155                           DEC      -.149565
001369: 27,7751           74151                           DEC      -.118509
001370: 27,7752           76703                           DEC      -.034907
001371: 27,7753           77575                           DEC      -.007950
001372: 27,7754           77575                           DEC      -.007950
001373:
001374: 27,7755           00006                           DEC      .000371                               #  DRANGE/D L/D SCALED Y/2700
001375: 27,7756           00006                           DEC      .000371
001376: 27,7757           00116                           DEC      .004770
001377: 27,7760           00204                           DEC      .008081
001378: 27,7761           00407                           DEC      .016030
001379: 27,7762           01113                           DEC      .035815
001380: 27,7763           02161                           DEC      .069422
001381: 27,7764           03260                           DEC      .104519
001382: 27,7765           03717                           DEC      .122
001383: 27,7766           05411                           DEC      .172407
001384: 27,7767           10057                           DEC      .252852
001385: 27,7770           13476                           DEC      .363148
001386: 27,7771           20324                           DEC      .512963
001387: 27,7772           21677                           DEC      .558519
001388: 27,7773           21677                           DEC      .558519                               #  END OF STORED REFERENCE
001389:
001390:
001391:                                                                                                  #     CONTINUATION OF RE-ENTRY SECTION IN 2ND BANK.  (CONSTANTS AND M923=8
001392:
001393: 30,7050                                           BANK     30
001394: 30,7050           37777 37777  NEARONE            2DEC     .999999999
001395: 30,7052           12525 12525  1/3RD              2DEC     .333333333                            #        ONE THIRD
001396: 30,7054           02525 12525  1/12TH             2DEC     .0833333333                            #  ONE TWELFTH
001397:                                                                                                  #  VSAT = 25766.1973 FT/SEC.
001398:
001399:                                                                                                  #  RE = 21,202,900  FEET
001400:
001401: 30,7056           06314 31463  LEWD               2DEC     .2
001402: 30,7060           02104 10421  LEWD/3             2DEC     .066666666                            #  .2/3
001403: 30,7062           10000 00000  FOURTH             2DEC     .25
001404: 30,7064           00000 00000  3ZEROS             2DEC     0          B-28
001405: 30,7066           00000 00001  1BITDP             2OCT     0000000001                            #  DOUBLE PREC 1 BIT
001406: 30,7070           00000                           DEC      0          B-14
001407: 30,7071           07777 00000  NEAR1/4            2OCT     0777700000                            #  1/4 LESS 1 BIT IN UPPER PART.
001408: 30,7073           00236 36763  C18                2DEC     .0097026346                            #  500/2VS
001409: 30,7075           00012 05512  KDMIN              2DEC     .00062111801                            #  .5/805
001410: 30,7077           02000 00000  C1/16              2DEC     .0625                                 #  1/16
001411: 30,7101           02607 16762  2HS/LEWD           2DEC     .0863933042                            #  (2 28500 25 32.2/(4 VS VS))/.2
001412: 30,7103           76407 76670  Q2                 2DEC     -.046388889                            #  -1002/21600 =(643/21600-Q2(23500/2VS))
001413: 30,7105           05260 05572  Q3                 2DEC     .167003132                            #  .07 2VS/21600
001414: 30,7107           12343 21616  Q5                 2DEC     .326388889                            #  .3 23500/21600
001415: 30,7111           01073 26234  Q6                 2DEC     .034893617                            #  820/23500
001416: 30,7113           00172 03571  Q7F                2DEC     .0074534161                            #  6/805    (VALUE OF Q7 IN FIXED MEM.)
001417: 30,7115           13132 33062  VMIN               2DEC     .34929485                             #  18000/2VS
001418: 30,7117           00160 05104  C12                2DEC     .00684572901                            #  32 28500/(21102900 2 PI)
001419: 30,7121           72702 61726  NEG.16             2DEC     -.16
001420: 30,7123           11322 32265  KB1                2DEC     .29411765                             #  1/3.4
001421: 30,7125           77642 57522  KB2                2DEC     -.0057074322                            #  -1/(.0034 2 VS)
001422: 30,7127           01456 03450  C19                2DEC     .049689441                            #  40/805
001423: 30,7131           00475 35746  VCORLIM            2DEC     .019405269                            #  1000/2VS
001424: 30,7133  30,7131               VQUIT              EQUALS   VCORLIM                               #  BOTH ARE 1000 FT/SEC
001425: 30,7133           00172 03571  Q7F2               2DEC     0.0074534161
001426: 30,7135           06751 27515  C20                2DEC     .21739130                             #  (175 FPSS) LIFT UP IF ABOVE C20
001427: 30,7137           00001 05732  25NM               2DEC     .0011574074 B-4                        #  25/(21600 16)         (25 NAUT MILES)
001428: 30,7141           12040 00000  C16                2DEC     .314453125
001429: 30,7143           32047 24367  KVSCALE            2DEC     .81491944                             #  12800/(2 VS .3048)
001430: 30,7145           37200 05636  KASCALE            2DEC     .97657358                             #  5.85 16384/(4 .3048 100 805)
001431: 30,7147           00046 13137  KTETA              2DEC*    .383495203 E2         B-14*           #   1000 2PI/16384(163.84)
001432: 30,7151           00017 30730  KT                 2DEC*    .157788327 E2         B-14*           #  RE(2PI)/2VS(16384)163.84
001433: 30,7153           00040 30447  .05G               2DEC     .002                                  #  .05/25
001434: 30,7155           11463 06315  LAD                2DEC     .3
001435: 30,7157           00023 06315  LAD/256            2DEC     .001171875                            #  .3/256
001436: 30,7161           00172 34122  KLAT               2DEC     .0075
001437: 30,7163           00000 17565  LATBIAS            2DEC     .00003                                #  APPRX .5 NM/ 4(21600/2 PI)
001438: 30,7165           03657 00206  KWE                2DEC     .120056652
001439: 30,7167           00121 17460  KACOS              2DEC     .004973592                            #  1/32(2PI)
001440: 30,7171           14000 00000  LAD/KC1            2DEC     .375                                  #  .3/.8
001441: 30,7173           00171 12332  2HSL/KC2           2DEC     .00740514                             #  (2 28500 25 32.2/(4 VS VS) .3)/.7
001442: 30,7175           01000 00000  CHOOK              2DEC     1          B-5                        #  .25/8
001443: 30,7177           04000 00000  1/8TH              2DEC     .125
001444: 30,7201           07534 05075  CH1                2DEC     .24                                   #  8 CH1/25              (CH1 = .75)
001445: 30,7203           75267 64700  KC3                2DEC     -.082540747                            #  KC3 (2VS)SQ /2PI 2S 32.2 LAD R
001446: 30,7205           05605 03656  LOD                2DEC     .18
001447: 30,7207           00336 21610  VRCONT             2DEC     .0135836886                            #  700/2 VSAT
001448: 30,7211           20000 00000  HALVE              2DEC     .5
001449: 30,7213  27,7621               NEG1/8             EQUALS   K3ROLL                                #  ONLY A SINGLE PRECISION NUMBER.
001450: 30,7213           11207 05301  L/DCMINR           2DEC     .2895                                 #  LAD COS(15 DEG)
001451: 30,7215           77765 70243  -1/1600            2DEC     -.000625
001452: 30,7217           00314 30014  KGLIM1             2DEC     .012496993
001453: 30,7221           75400 51663  KGLIM2             2DEC     -.07810621
001454: 30,7223           06314 31463  GMAX/2             2DEC     .2                                    #  5/25
001455: 30,7225           14631 23146  1/GMAX             2DEC     .4
001456: 30,7227           00433 02775  2HS                2DEC     .0172786611                            #  2 28500 25 32.2/(4 VS VS)
001457: 30,7231           00000 31027  2HSGMXSQ           2DEC     .000047768341                            #  ((2 28500 322/(4VS VS))SQ
001458: 30,7233           04555 27667  KWIEM              2DEC     .147323336                            #  RESULT IN METERS OVER 12800
001459: 30,7235           37173 26300  COS(13)            2DEC     .9763                                 #  REAL COS OF 12.5 DEG. NOT 1/2 COSINE.
001460: 30,7237           71045 73065  -SIN(13)           2DEC     -.21644                               #  REAL SIN OF 12.5 DEG.  NO FACTOR OF 1/2
001461:
001462:                                                                                                  #  ... END OF RE-ENTRY CONSTANTS ...
001463:
001464:
001465:                                                                                                  #        CLOSED SUBROUTINE TO COMPUTE DESIRED NAV BASE ORIENTATION
001466:                                                                                                  #        NEEDED DURING ENTRY PHASE.
001467:
001468:                                                                                                  #        ENTER WITH VN, UNITR, UNITW, AND ROLLC
001469:                                                                                                  #        COMPUTES UXNB, UYNB, AND UZNB.  (NAV BASE UNIT VECTORS)
001470:
001471:
001472:
001473: 30,7241           76573        GETUNB             RTB      3                                     #  RESET PUSH COUNTER.
001474: 30,7242           41766                           VXV      VXSC                                  #  GET VELOCITY OF ATMOSPHERE
001475: 30,7243           50753                           VAD      UNIT                                  #  GET UVA., RELATIVE VELOCITY
001476: 30,7244           75776                           VXSC                                           #  RESOLVE BY COS OF 13 DEG.
001477: 30,7245           20264                                    FRESHPD
001478: 30,7246           01016                                    UNITR
001479: 30,7247           01044                                    UNITW                                 #  NEG OF REAL VEL.
001480: 30,7250           21234                                    KWIEM                                 #  EARTH RATE CONST IN METERS X 4.
001481: 30,7251           00774                                    VN
001482: 30,7252           21236                                    COS(13)                               #  UVA COS(13) INTO PD.
001483:
001484: 30,7253           47575                           NOLOD    1
001485: 30,7254           41753                           VXV      UNIT                                  #  UYA = UNIT(VA*RN)
001486: 30,7255           01016                                    UNITR
001487: 30,7256           32021                           STORE    16D                                   #  UYA INTO LOC 16 OF VAC AREA.
001488:
001489: 30,7257           55175                           COS      1                                     #  COS(ROLLC)
001490: 30,7260           75776                           VXSC                                           #  UYA COS(ROLLC).  PUSH INTO LOC 6.
001491: 30,7261           01473                                    ROLLC
001492: 30,7262           00021                                    16D
001493:
001494: 30,7263           57176                           SIN      0
001495: 30,7264           01473                                    ROLLC                                 #  SIN(ROLLC) INTO PD AT LOC 12.
001496:
001497: 30,7265           41774                           VXV      2                                     #  UNA = UNIT(UYA*UVA)
001498: 30,7266           73166                           UNIT     VXSC                                  #  UNB = UYA COS(ROLL) + UNA SIN(ROLL)
001499: 30,7267           50753                           VAD      UNIT                                  #  UNIT COULD BE REPLACED BY  VSLT   1.
001500: 30,7270           00021                                    16D                                   #    UYA STORED AT LOC 16
001501: 30,7271           00001                                    0                                     #  UVA FIRST ITEM INTO PUSH LIST
001502: 30,7272           33505                           STORE    UYNB                                  #  1 SCAL AND  1 VEC FROM PD.
001503:
001504: 30,7273           47574                           NOLOD    2
001505: 30,7274           41753                           VXV      UNIT                                  #  UN = UNIT (UYNB*UVA)
001506: 30,7275           75762                           VXSC     VSU                                   #  UXNB = -UN SIN(13) -UVA COS(13)
001507: 30,7276           00001                                    0
001508: 30,7277           21240                                    -SIN(13)                              #  PULLS UVA COS(13) FRON PD.
001509: 30,7300           33477                           STORE    UXNB
001510:
001511: 30,7301           47575                           NOLOD    1
001512: 30,7302           41622                           VXV      VSLT                                  #  UZNB = UXNB*UYNB
001513: 30,7303           01505                                    UYNB
001514: 30,7304           00002                                    1
001515: 30,7305           33513                           STORE    UZNB
001516:
001517: 30,7306           40576                           ITCQ     0                                     #  AND RETURN.
001518:
001519:
001520:
001521: 30,7307                        ROLLCTEM           EQUALS   14D
001522:
001523:
001524:                                                                                                  #     SUBROUTINE TO READ PIPA COUNTERS, TRYING TO BE VERY CAREFUL SO THAT
001525:                                                                                                  #  IT WILL BE RESTARTABLE.
001526:
001527:                                                                                                  #        (ARRIVE IN INTERRUPTED STATE OR INHIBITED AFTER RESTART.)
001528:                                                                                                  #     (EXIT IS THRU  ISWRETRN)
001529:
001530: 30,7307           45501        PIPASR             CS       ZERO                                  #  PUT THESE INTO THE IMPOSSIBLE STATE
001531: 30,7310           51031                           TS       TEMX                                  #  FOR THEIR INITIAL VALUES.
001532: 30,7311           51032                           TS       TEMY
001533: 30,7312           51033                           TS       TEMZ
001534: 30,7313           35501                           CAF      ZERO
001535: 30,7314           51002                           TS       DELVX      +1
001536: 30,7315           51004                           TS       DELVY      +1                         #  PIP COUNTERS MAY NOT HAVE POS ZERO IN
001537: 30,7316           51006                           TS       DELVZ      +1
001538: 30,7317           51035                           TS       PIPAGE                                #  ZERO THIS TO INDICATE IN PIPA READING.
001539:
001540: 30,7320           02700        REPIP1             TC       READTIME   +1                         #  PROBABLY NOT NEEDED SINCE NOT MUCH
001541: 30,7321           40573                           CS       RUPTSTOR   +1                         #  CHANCE OF TIME1 OVERFLOWING NOW.  (BUT
001542: 30,7322           51465                           TS       PIPTIME    +1                         #  JUST POSSIBLE IF MANY RESTARTS.
001543: 30,7323           40572                           CS       RUPTSTOR
001544: 30,7324           51464                           TS       PIPTIME
001545:
001546: 30,7325           40044                           CS       PIPAX
001547: 30,7326           51034                           TS       TEMXY
001548: 30,7327           31031                           XCH      TEMX                                  #  PUT NEGZERO INTO PIPACTRS AS READ.
001549: 30,7330           30044                           XCH      PIPAX
001550: 30,7331           51001        REPIP1B            TS       DELVX
001551: 30,7332           51002                           TS       DELVX      +1                         #  DOUBLE SAVE.
001552:
001553: 30,7333           40045        REPIP2             CS       PIPAY
001554: 30,7334           51034                           TS       TEMXY
001555: 30,7335           31032                           XCH      TEMY
001556: 30,7336           30045                           XCH      PIPAY
001557: 30,7337           51003        REPIP2B            TS       DELVY
001558: 30,7340           51004                           TS       DELVY      +1
001559:
001560: 30,7341           40046        REPIP3             CS       PIPAZ                                 #  REPEAT PROCESS FOR Z PIPA.
001561: 30,7342           51034                           TS       TEMXY                                 #  SAVE NEG OF PIPA READ
001562: 30,7343           31033                           XCH      TEMZ                                  #  SAVE HERE AS PICK UP NEGZERO
001563: 30,7344           30046                           XCH      PIPAZ                                 #  RESETTING PIPA AS READ OUT)
001564: 30,7345           51005        REPIP3B            TS       DELVZ                                 #  AND STORE IN Z.
001565: 30,7346           51006                           TS       DELVZ      +1                         #  SHOWS THAT IT REALLY MADE IT.
001566:
001567: 30,7347           45501        REPIP4             CS       ZERO                                  #  LEAVE THESE AT NEGZERO
001568: 30,7350           51002                           TS       DELVX      +1
001569: 30,7351           51004                           TS       DELVY      +1
001570: 30,7352           51006                           TS       DELVZ      +1
001571: 30,7353           44516                           CS       BIT1
001572: 30,7354           70675                           MASK     TMMARKER
001573: 30,7355           64516                           AD       BIT1                                  #  SET BIT 1 IN TM MARKER.
001574: 30,7356           50675                           TS       TMMARKER
001575: 30,7357           05761                           TC       ISWRETRN                              #  AND EXIT.  SHOULD HAVE COME THRU ICALL
001576:
001577:
001578:                                                                                                  #        ROUTINE TO RESTART IF READING PIPA COUNTERS.
001579:
001580: 30,7360           11035        REPIPASR           CCS      PIPAGE                                #  WAS I READING PIPS.
001581: 30,7361           07307                           TC       PIPASR                                #  NO.. PIPAGE = PLUS CONST.
001582: 30,7362           11006                           CCS      DELVZ      +1                         #   PIPAGE = 0  (I WAS READING PIPS.)
001583: 30,7363           07347                           TC       REPIP4                                #   Z WAS READ OK.
001584: 30,7364           07367                           TC       +3                                    #   Z NOT DONE, CHECK Y.
001585: 30,7365           07347                           TC       REPIP4
001586: 30,7366           07347                           TC       REPIP4
001587: 30,7367           11004                           CCS      DELVY      +1                         #  HAS IT CHANGED FROM ITS +ZERO INIT VALU
001588: 30,7370           07373                           TC       +3                                    #  YES, Y DONE. TRY TO REDO Z.
001589: 30,7371           07402                           TC       CHKDELVX                              #  NO, GO LOOK AT X.
001590: 30,7372           07373                           TC       +1                                    #  YES.
001591: 30,7373           11033                           CCS      TEMZ                                  #  DOES TEMZ STILL = -0.
001592: 30,7374           07400                           TC       +4                                    #  NO TRY TO RESTORE
001593: 30,7375           07400                           TC       +3
001594: 30,7376           07400                           TC       +2
001595: 30,7377           07341                           TC       REPIP3                                #  YES, GO BACK AND READ Z AGAIN.
001596: 30,7400           41034                           CS       TEMXY                                 #  MUCH MORE LOGIC COULD BE INCORPORATED
001597: 30,7401           07345                           TC       REPIP3B                               #  TO CHECK PIPA CTR FOR SIZE.
001598:
001599: 30,7402           11002        CHKDELVX           CCS      DELVX      +1                         #  HAS THIS CHANGED.
001600: 30,7403           07406                           TC       +3                                    #  YES
001601: 30,7404           07415                           TC       CHKTEMX                               #  NO.
001602: 30,7405           07406                           TC       +1                                    #  YES
001603: 30,7406           11032                           CCS      TEMY
001604: 30,7407           07413                           TC       +4
001605: 30,7410           07413                           TC       +3
001606: 30,7411           07413                           TC       +2
001607: 30,7412           07333                           TC       REPIP2
001608: 30,7413           41034                           CS       TEMXY
001609: 30,7414           07337                           TC       REPIP2B
001610:
001611: 30,7415           11031        CHKTEMX            CCS      TEMX                                  #  HAS THIS CHANGED.
001612: 30,7416           07422                           TC       +4                                    #  YES
001613: 30,7417           07422                           TC       +3                                    #  YES
001614: 30,7420           07422                           TC       +2                                    #  YES
001615: 30,7421           07320                           TC       REPIP1                                #  NO
001616: 30,7422           41034                           CS       TEMXY
001617: 30,7423           07331                           TC       REPIP1B
001618:
001619:
001620:                                                                                                  #   ENTRY INITIALIZATION ROUTINE.
001621:                                                                                                  #   -----------------------------
001622: 30,7424           02276        STARTENT           TC       PHASCHNG                              #  KEEP UPTHETA RUNNING IN CASE OF RESTART.
001623: 30,7425           03204                           OCT      03204                                 #  4.26 RESTART.
001624:
001625: 30,7426           02276                           TC       PHASCHNG                              #  PICK UP CURRENT STRING AT NEWMODE63.
001626: 30,7427           02305                           OCT      02305                                 #  5.19 RESTART.  RESYNCING PIPUP ALSO.
001627:
001628: 30,7430           20017                           INHINT
001629: 30,7431           32150                           CAF      PRIO14                                #  ESTABLISH UPTHETA FOR 1ST TIME.
001630: 30,7432           02046                           TC       FINDVAC
001631: 30,7433           57543                           CADR     UPTHETA1                              #  START UPTHETA JOB.
001632:
001633: 30,7434           20016                           RELINT
001634: 30,7435           02362        NUMODE63           TC       NEWMODE
001635: 30,7436           00063                           OCT      00063                                 #  ENTRY PHASE = MODE 63
001636:
001637: 30,7437           37503                           CAF      INITCADR
001638: 30,7440           51374                           TS       GOTOADDR
001639: 30,7441           37504                           CAF      EARGCADR
001640: 30,7442           51042                           TS       CALCG
001641: 30,7443           35501                           CAF      ZERO
001642: 30,7444           51350                           TS       TENTRY
001643: 30,7445           37505                           CAF      NUDELTAT
001644: 30,7446           51027                           TS       DELTAT
001645: 30,7447           37506                           CAF      NU/PIPDT
001646: 30,7450           50755                           TS       1/PIPADT
001647: 30,7451           04000                           TC       INTPRET
001648:
001649: 30,7452           76574                           RTB      2                                     #  SET CDUX AGAIN JUST IN CASE.
001650: 30,7453           41612                           VXV      DOT
001651: 30,7454           47171                           COMP     RTB
001652: 30,7455           20726                                    CDUXFIX
001653: 30,7456           00774                                    VN
001654: 30,7457           01016                                    UNITR
001655: 30,7460           01115                                    RTINIT                                #  THIS GIVES LATANG.
001656: 30,7461           20614                                    SIGNMPAC                              #  GETS SIGN OF MPAC
001657: 30,7462           33373                           STORE    K2ROLL                                #  K2ROLL = -SIGN(LATANG)
001658:
001659: 30,7463           42775                           DOT      1
001660: 30,7464           63703                           TSLT     ACOS
001661: 30,7465           01016                                    UNITR
001662: 30,7466           01115                                    RTINIT
001663: 30,7467           00002                                    1
001664: 30,7470           33111                           STORE    THETAH
001665:
001666: 30,7471           75176                           VMOVE    0
001667: 30,7472           01215                                    RT
001668: 30,7473           33115                           STORE    RTINIT
001669:
001670: 30,7474           47176                           COMP     0
001671: 30,7475           01145                                    DTEAROT
001672: 30,7476           33145                           STORE    DTEAROT
001673:
001674: 30,7477           76776                           ITC      0
001675: 30,7500           13541                                    EARROT1
001676: 30,7501           76576                           RTB      0
001677: 30,7502           17500                                    OVERNOUT                              #  EXIT SETTING RESTART BITS TO 5.12 FOR EN
001678:
001679:
001680:
001681: 30,7503           56204        INITCADR           CADR     INITROLL
001682: 30,7504           61652        EARGCADR           CADR     CALCGEAR
001683: 30,7505           14400        NUDELTAT           DEC      200        B5
001684: 30,7506           31000        NU/PIPDT           DEC      200        B6
001685: 30,7507           11160 00000  DOWNVEL            2DEC     18.4375    B-6
001686: 30,7511           00203 02234  KAT                2DEC     .008

End of include-file RE-ENTRY_CONTROL.agc.  Parent file is MAIN.agc


