
Source Code


000002:                                                                                                  ## Copyright:   Public domain.
000003:                                                                                                  ## Filename:    RTB_OP_CODES.agc
000004:                                                                                                  ## Purpose:     A section of Corona revision 261.
000005:                                                                                                  ##              It is part of the source code for the Apollo Guidance Computer
000006:                                                                                                  ##              (AGC) for AS-202. No original listings of this software are
000007:                                                                                                  ##              available; instead, this file was created via disassembly of
000008:                                                                                                  ##              the core rope modules actually flown on the mission.
000009:                                                                                                  ## Assembler:   yaYUL
000010:                                                                                                  ## Contact:     Ron Burkey <info@sandroid.org>.
000011:                                                                                                  ## Website:     www.ibiblio.org/apollo/index.html
000012:                                                                                                  ## Mod history: 2023-05-27 MAS  Created from Solarium 55.
000013:                                                                                                  ##              2023-06-17 MAS  Updated for Corona.
000014:
000015:
000016: 30,6251                                           BANK     30
000017:                                                                                                  #  ROUTINE TO LOAD TIME OF DAY INTO MPAC
000018:
000019: 30,6251           02677        LOADTIME           TC       READTIME
000020: 30,6252           40572                           CS       RUPTSTOR
000021: 30,6253           50115                           TS       MPAC
000022: 30,6254           40573                           CS       RUPTSTOR   +1
000023: 30,6255           50116                           TS       MPAC       +1
000024: 30,6256           20016                           RELINT
000025: 30,6257           35501                           CAF      ZERO
000026: 30,6260           50066                           TS       NEWEQIND
000027: 30,6261           50117                           TS       MPAC       +2
000028: 30,6262           05237                           TC       DPEXIT
000029:
000030:
000031:                                                                                                  #  ROUTINE TO RESET THE PUSHDOWN POUNTER
000032:
000033: 30,6263           40067        FRESHPD            CS       FIXLOC
000034: 30,6264           40000                           COM
000035: 30,6265           50123                           TS       PUSHLOC
000036: 30,6266           04703                           TC       RE-ENTER
000037:
000038:
000039:                                                                                                  #  ROUTINE TO ZERO OUT THE FIRST 38 LOCS OF A VAC AREA
000040:
000041: 30,6267           36301        ZEROVAC            CAF      37DEC
000042: 30,6270           50102        ZVLOOP             TS       TEM2
000043: 30,6271           60067                           AD       FIXLOC
000044: 30,6272           50001                           TS       Q
000045: 30,6273           35501                           CAF      ZERO
000046: 30,6274           20001                           INDEX    Q
000047: 30,6275           50000                           TS       0
000048: 30,6276           10102                           CCS      TEM2
000049: 30,6277           06270                           TC       ZVLOOP
000050: 30,6300           04703                           TC       RE-ENTER
000051:
000052: 30,6301           00045        37DEC              DEC      37         B-14
000053:
000054:
000055:                                                                                                  #  ROUTINE TO CONVERT IS COMP. NOS. TO 1S COMP.
000056:
000057: 30,6302           10115        CDULOGIC           CCS      MPAC                                  #  THIS BASIC ROUTINE TESTS CDU ANGLES FOR
000058: 30,6303           06310                           TC       CDULOG1                               #  +OR-SIGN INCLUDING ZERO AND FORMS A DP
000059: 30,6304           06310                           TC       CDULOG1                               #  NUMBER CORRESPONDING TO ANGLE
000060: 30,6305           06306                           TC       +1
000061: 30,6306           44522                           CS       HALF                                  #  USE           SMOVE   1
000062: 30,6307           06311                           TC       +2                                    #                RTB
000063: 30,6310           45501        CDULOG1            CS       ZERO                                  #                        CDUXYZ
000064: 30,6311           30034                           XCH      OVCTR                                 #                        CDULOGIC
000065: 30,6312           30115                           XCH      MPAC
000066: 30,6313           25777                           EXTEND
000067: 30,6314           44522                           MP       HALF
000068: 30,6315           30034                           XCH      OVCTR
000069: 30,6316           60003                           AD       LP
000070: 30,6317           30116                           XCH      MPAC       +1
000071: 30,6320           30034                           XCH      OVCTR
000072: 30,6321           30115                           XCH      MPAC
000073: 30,6322           05237                           TC       DPEXIT
000074:
000075:
000076:                                                                                                  #  ROUTINE TO CONVERT 1S COMP. NOS. TO 2S COMP.
000077:
000078: 30,6323           35501        1STO2S             CAF      ZERO
000079: 30,6324           30116                           XCH      MPAC       +1
000080: 30,6325           60000                           DOUBLE
000081: 30,6326           50034                           TS       OVCTR
000082: 30,6327           35501                           CAF      ZERO
000083: 30,6330           60115                           AD       MPAC
000084: 30,6331           60115                           AD       MPAC
000085: 30,6332           10000                           CCS      A
000086: 30,6333           64516                           AD       ONE
000087: 30,6334           06336                           TC       +2
000088: 30,6335           40000                           COM
000089: 30,6336           50115        ZYXR               TS       MPAC                                  #  AND MAYBE OVERFLOW.
000090: 30,6337           05237                           TC       DPEXIT
000091:
000092: 30,6340           20000                           INDEX    A                                     #  HANDLE OVERFLOW IN STANDARD ANGULAR WAY.
000093: 30,6341           34477                           CAF      LIMITS
000094: 30,6342           60115                           AD       MPAC                                  #  GUARANTEED NO OVERFLOW.
000095: 30,6343           06336                           TC       ZYXR
000096:
000097:
000098: 30,6344           20017        READPIPS           INHINT
000099: 30,6345           40044                           CS       PIPAX
000100: 30,6346           40000                           CS       A
000101: 30,6347           20067                           INDEX    FIXLOC
000102: 30,6350           50040                           TS       VAC
000103: 30,6351           40045                           CS       PIPAY
000104: 30,6352           40000                           CS       A
000105: 30,6353           20067                           INDEX    FIXLOC
000106: 30,6354           50042                           TS       VAC        +2
000107: 30,6355           40046                           CS       PIPAZ
000108: 30,6356           40000                           CS       A
000109: 30,6357           20067                           INDEX    FIXLOC
000110: 30,6360           50044                           TS       VAC        +4
000111: 30,6361           20016                           RELINT
000112: 30,6362           35501                           CAF      ZERO
000113: 30,6363           20067                           INDEX    FIXLOC
000114: 30,6364           50041                           TS       VAC        +1
000115: 30,6365           20067                           INDEX    FIXLOC
000116: 30,6366           50043                           TS       VAC        +3
000117: 30,6367           20067                           INDEX    FIXLOC
000118: 30,6370           50045                           TS       VAC        +5
000119: 30,6371           50066                           TS       NEWEQIND                              #  LOAD INDICATOR OFF.
000120: 30,6372           45501        VMODE              CS       ZERO
000121: 30,6373           05240                           TC       DPEXIT     +1
000122:
000123:
000124:
000125: 30,6374           20067        PULSEIMU           INDEX    FIXLOC                                #  ADDRESS OF GYRO COMMANDS SHOULD BE IN X1
000126: 30,6375           40046                           CS       X1
000127: 30,6376           40000                           COM
000128: 30,6377           05654                           TC       BANKCALL
000129: 30,6400           31421                           CADR     GYRODPNT
000130:
000131: 30,6401           04703                           TC       RE-ENTER
000132:
000133:
000134: 30,6402           05654        SGNAGREE           TC       BANKCALL
000135: 30,6403           07154                           CADR     TPAGREE
000136: 30,6404           05237                           TC       DPEXIT
000137:
000138:
000139:                                                                                                  #  ROUTINE TO COMPLETE OPTICS TRUNNION ANGLE CONVERSION FROM COUNTER
000140:                                                                                                  #  READING TO DP REVOLUTIONS. CALLS TO TRUNLOG SHOULD BE IMMEDIATELY
000141:                                                                                                  #  PRECEDED BY A CALL TO CDULOGIC.
000142: 30,6405           34502        TRUNLOG            CAF      BIT13
000143: 30,6406           70730                           MASK     WASOPSET
000144: 30,6407           10000                           CCS      A
000145: 30,6410           06414                           TC       +4
000146:
000147: 30,6411           34522                           CAF      HALF
000148: 30,6412           05416        TRUNLOG1           TC       SHORTMP
000149: 30,6413           04024                           TC       DANZIG                                #  WITH PD IF AT END W/ NO ADDRESSES.
000150:
000151: 30,6414           36421                           CAF      10DEGS                                #  CORRECT FOR 20 DEG OFFSET (CDULOGIC
000152: 30,6415           60115                           AD       MPAC                                  #   ALREADY SHIFTED IT RIGHT ONE) AND SHIFT
000153: 30,6416           50115                           TS       MPAC                                  #   RIGHT TWO ADDITIONAL PLACES.
000154: 30,6417           34502                           CAF      QUARTER
000155: 30,6420           06412                           TC       TRUNLOG1
000156:
000157: 30,6421           07020        10DEGS             DEC      3600       B-14                       #  HALF OF SXT TRUNION OFFSET
000158:
000159:
000160: 30,6422           36442        INCRCDUS           CAF      LOCTHETA
000161: 30,6423           50077                           TS       BUF
000162: 30,6424           35503                           CAF      TWO
000163: 30,6425           50100        INCRCDU2           TS       BUF        +1
000164: 30,6426           60000                           DOUBLE
000165: 30,6427           60070                           AD       VACLOC
000166: 30,6430           20000                           INDEX    A
000167: 30,6431           40000                           CS       0
000168: 30,6432           40000                           COM
000169: 30,6433           05654                           TC       BANKCALL
000170: 30,6434           30361                           CADR     CDUINC
000171:
000172: 30,6435           10077                           CCS      BUF
000173: 30,6436           50077                           TS       BUF
000174: 30,6437           10100                           CCS      BUF        +1
000175: 30,6440           06425                           TC       INCRCDU2
000176: 30,6441           06372                           TC       VMODE
000177:
000178: 30,6442           00702        LOCTHETA           ADRES    THETAD     +2
000179:
000180:
000181:                                                                                                  #        LOG FUNCTION SUBROUTINE
000182:
000183:                                                                                                  #    INPUT... X  (IN IMPAC)
000184:                                                                                                  #   OUTPUT... -LN(X)/32          ( IN MPAC.  SCALED BY 32TO FIT LOG OF 2EXP-28.
000185:
000186: 30,6443           06570        LOG                TC       SWAPLOC                               #   CALLED BY    RTB     LOG
000187: 30,6444           04000                           TC       INTPRET
000188:
000189: 30,6445           47574                           NOLOD    2                                     #  GENERATES LOG BY SHIFTING ARG UNTIL
000190: 30,6446           57726                           TSLC     BDSU                                  #  IT LIES BETWEEN .5 AND1.  THE LOG OF
000191: 30,6447           77576                           EXIT                                           #  THIS PART IS FOUND AND THE LOG OF THE
000192:                                                                                                  #  SHIFTED PART IS COMPUTED AND ADDED IN.
000193: 30,6450           00040                                    31D                                   #  SHIFT COUNT STORED IN LOC 31 OF VAC AREA
000194: 30,6451           21051                                    NEARONE
000195:
000196: 30,6452           05554                           TC       POLY                                  #  GETS LOG OF PRINCIPLE PART.
000197: 30,6453           00006                           DEC      6          B-14
000198: 30,6454           00000 00000                     2DEC     0          B-28
000199: 30,6456           01001 14636                     2DEC     .031335467
000200: 30,6460           00325 07310                     2DEC     .0130145859
000201: 30,6462           00541 16735                     2DEC     .0215738898
000202: 30,6464           35501                           CAF      ZERO
000203: 30,6465           50117                           TS       MPAC       +2
000204: 30,6466           36507                           CAF      CLOG1/2    +1
000205: 30,6467           30116                           XCH      MPAC       +1
000206: 30,6470           50100                           TS       LOGTEM     +1
000207: 30,6471           36506                           CAF      CLOG1/2
000208: 30,6472           30115                           XCH      MPAC
000209: 30,6473           30077                           XCH      LOGTEM
000210: 30,6474           20067                           INDEX    FIXLOC
000211: 30,6475           40037                           CS       31D                                   #  LOAD POSITIVE SHIFT COUNT IN A.
000212: 30,6476           05422                           TC       SHORTMP2                              #  MULTIPLY BY SHIFT COUNT.
000213:
000214: 30,6477           30117                           XCH      MPAC       +2
000215: 30,6500           30116                           XCH      MPAC       +1
000216: 30,6501           30115                           XCH      MPAC                                  #  RESULT WAS IN MPAC +1 AND MPAC +2.
000217: 30,6502           05171                           TC       DAD                                   #  ADD IN PREVIOUS RESULT. LEFT IN LOGTEM.
000218: 30,6503           00077                           ADRES    LOGTEM
000219: 30,6504           06570                           TC       SWAPLOC
000220: 30,6505           05237                           TC       DPEXIT
000221:
000222: 30,6506           00542 34414  CLOG1/2            2DEC     .0216608494
000223:
000224:
000225:                                                                                                  #        SUBROUTINE TO COMPUTE THE ARCTAN OF THE RATIO OF TWO FUNCTIONS.
000226:
000227:                                                                                                  #        CALLED AS THOUGH A BASIC SUBR...        RTB     ARCTAN
000228:
000229: 30,6510           06570        ARCTAN             TC       SWAPLOC                               #  ARCTAN COMPUTES ARCTAN(VACZ/VACX)
000230: 30,6511           04000                           TC       INTPRET                               #                         ---------
000231: 30,6512           51176        INATAN             DSQ      0                                     #  RESULT HAS VALUE BETWEEN + AND - 1/2
000232: 30,6513           00045                                    VACZ                                  #  (180 DEG. SCALED) IS LEFT IN MPAC.
000233:
000234: 30,6514           51172                           DSQ      4
000235: 30,6515           70746                           DAD      BOV
000236: 30,6516           47653                           BZE      SQRT
000237: 30,6517           61746                           BDDV     BOV
000238: 30,6520           56713                           TSRT     ASIN
000239: 30,6521           00041                                    VACX
000240: 30,6522           77777                                    -
000241: 30,6523           20554                                    2BIG
000242: 30,6524           20560                                    ATAN0/0
000243: 30,6525           00045                                    VACZ
000244: 30,6526           20564                                    ATAN=90
000245: 30,6527           00002                                    1                                     #  AND PUSH IT DOWN
000246:
000247: 30,6530           73774                           BMN      2
000248: 30,6531           41423                           LODON    DMOVE
000249: 30,6532           77576                           EXIT
000250: 30,6533           00041                                    VACX
000251: 30,6534           20541                                    NEGVX
000252: 30,6535           77777                                    -                                     #  (INACTIVE NEEDED FOR PUSH-UP).
000253:
000254: 30,6536           06570        ATANDUN            TC       SWAPLOC
000255: 30,6537           05237                           TC       DPEXIT
000256:
000257:
000258:
000259: 30,6540           47174        NEGVX              COMP     2                                     #  IF VACX NEGATIVE, CHNAGE RESULT.
000260: 30,6541           43742                           BPL      DAD
000261: 30,6542           76576                           RTB
000262: 30,6543           77777                                    -
000263: 30,6544           20550                                    NEGOUT
000264: 30,6545           21212                                    HALVE
000265: 30,6546           20537                                    ATANDUN
000266: 30,6547           47575        NEGOUT             NOLOD    1
000267: 30,6550           66771                           DSU      RTB
000268: 30,6551           21212                                    HALVE
000269: 30,6552           20537                                    ATANDUN
000270:
000271: 30,6553           47575        2BIG               NOLOD    1
000272: 30,6554           45772                           VSRT     ITC
000273: 30,6555           00002                                    1
000274: 30,6556           20513                                    INATAN
000275:
000276: 30,6557           45175        ATAN0/0            DMOVE    1
000277: 30,6560           76576                           RTB
000278: 30,6561           21065                                    3ZEROS                                #  WHAT SHOULD ARCTAN(0/0) =
000279: 30,6562           20537                                    ATANDUN
000280:
000281: 30,6563           53775        ATAN=90            SIGN     1
000282: 30,6564           76576                           RTB
000283: 30,6565           21063                                    FOURTH
000284: 30,6566           00045                                    VACZ
000285: 30,6567           20537                                    ATANDUN
000286:
000287:
000288:                                                                                                  #        BASIC SUBROUTINE TO SAVE INTERPRETER REGISTERS  (SAME BANK AS RTBS).
000289:
000290: 30,6570           30120        SWAPLOC            XCH      LOC                                   #  SUBROUTINE TO SWAP LOC, ADRLOC, AND
000291: 30,6571           20067                           INDEX    FIXLOC                                #  ORDER REGISTERS WITH LOCATIONS 28,
000292: 30,6572           30034                           XCH      28D                                   #  29, AND 30 IN TEMP AREA.
000293: 30,6573           50120                           TS       LOC
000294: 30,6574           30121                           XCH      ADRLOC                                #  USEFUL FOR USING INTERPRETER IN SUBROUT
000295: 30,6575           20067                           INDEX    FIXLOC                                #  AND THEN ABLE TO CONTINUE IN MIDDLE OF
000296: 30,6576           30035                           XCH      29D                                   #  CURRENT EQUATIONS.
000297: 30,6577           50121                           TS       ADRLOC                                #  USE...        TC      SWAPLOC
000298: 30,6600           40061                           CS       BANKSET                               #  PACK INTERPRETIVE BANK AND ORDER IN 30D.
000299: 30,6601           60063                           AD       ORDER
000300: 30,6602           20067                           INDEX    FIXLOC                                #                .........
000301: 30,6603           30036                           XCH      30D                                   #                TC   SWAPLOC
000302: 30,6604           50063                           TS       ORDER                                 #                TC   DANZIG
000303: 30,6605           74720                           MASK     LOW7
000304: 30,6606           30063                           XCH      ORDER
000305: 30,6607           72261                           MASK     BANKMASK
000306: 30,6610           40000                           COM
000307: 30,6611           50061                           TS       BANKSET
000308: 30,6612           00001                           TC       Q
000309:
000310:
000311:                                                                                                  #        SUBROUTINE TO SET MPACS TO POS OR NEG MAX DEPENDING ON SIGN MPAC
000312: 30,6613           10115        SIGNMPAC           CCS      MPAC
000313: 30,6614           06626                           TC       SETPOS
000314: 30,6615           06626                           TC       SETPOS
000315: 30,6616           06617                           TC       +1
000316: 30,6617           34500                           CAF      NEGSIGN
000317: 30,6620           50115                           TS       MPAC
000318: 30,6621           50116                           TS       MPAC       +1
000319: 30,6622           50117                           TS       MPAC       +2
000320: 30,6623           35501                           CAF      ZERO
000321: 30,6624           50066                           TS       NEWEQIND
000322: 30,6625           05237                           TC       DPEXIT
000323:
000324: 30,6626           34476        SETPOS             CAF      POSMAX
000325: 30,6627           06620                           TC       -7
000326:
000327:
000328: 30,6630           35503        V1STO2S            CAF      TWO                                   #  THIS ROUTINE TAKES GIMBAL ANGLES SCALED
000329: 30,6631           50071                           TS       VBUF                                  #  2PI IN THE VAC AND LEAVES 2S COMPLIMENT
000330: 30,6632           60000                           DOUBLE                                         #  ANSWERS IN MPAC.....MPAC +2
000331: 30,6633           60070                           AD       VACLOC                                #  BASE ADDRESS OF VECTOR ACCUMULATOR
000332: 30,6634           50072                           TS       VBUF       +1
000333: 30,6635           20072                           INDEX    VBUF       +1
000334: 30,6636           40001                           CS       Q
000335: 30,6637           40000                           COM
000336: 30,6640           60000                           DOUBLE
000337: 30,6641           50034                           TS       OVCTR                                 #  SKIPS ON OVERFLOW
000338: 30,6642           35501                           CAF      ZERO
000339: 30,6643           20072                           INDEX    VBUF       +1
000340: 30,6644           60000                           AD       A
000341: 30,6645           20072                           INDEX    VBUF       +1
000342: 30,6646           60000                           AD       A
000343: 30,6647           10000                           CCS      A                                     #  TEZT FOR NEGATIVE MAJOR PART
000344: 30,6650           64516                           AD       ONE
000345: 30,6651           06653                           TC       +2
000346: 30,6652           40000                           COM
000347: 30,6653           20071        ZYXW               INDEX    VBUF
000348: 30,6654           50115                           TS       MPAC
000349: 30,6655           06663                           TC       ZYXWV
000350: 30,6656           20000                           INDEX    A
000351: 30,6657           34477                           CAF      LIMITS                                #  NORMAL PROCEDURE FOR ANGLE OVERFLOW
000352: 30,6660           20071                           INDEX    VBUF
000353: 30,6661           60115                           AD       MPAC
000354: 30,6662           06653                           TC       ZYXW
000355:
000356: 30,6663           10071        ZYXWV              CCS      VBUF
000357: 30,6664           06631                           TC       V1STO2S    +1
000358: 30,6665           50066                           TS       NEWEQIND
000359: 30,6666           45503                           CS       TWO
000360: 30,6667           05240                           TC       DPEXIT     +1
000361: 30,6670           35503        V2STOD1S           CAF      TWO                                   #  THIS ROUTINE TAKES CDU ANGLES IN MPAC...
000362: 30,6671           50071                           TS       VBUF                                  #  MPAC +2 AND CONVERTS TO ANGLES SCALED
000363: 30,6672           60000                           DOUBLE                                         #  2PI IN THE VAC LOCATIONS
000364: 30,6673           60070                           AD       VACLOC
000365: 30,6674           50072                           TS       VBUF       +1
000366:
000367:
000368:
000369: 30,6675           20071                           INDEX    VBUF
000370: 30,6676           40115                           CS       MPAC
000371: 30,6677           25777                           EXTEND
000372: 30,6700           44520                           MP       NEG1/2
000373: 30,6701           50073                           TS       VBUF       +2                         #  UNCORRECTED UPPER PARTS
000374: 30,6702           10003                           CCS      LP                                    #  TEST SIGN OF LOWER WORD
000375: 30,6703           35501                           CAF      ZERO
000376: 30,6704           06707                           TC       +3                                    #  POSITIVE CASE OK
000377: 30,6705           06706                           TC       +1
000378: 30,6706           44522                           CS       HALF                                  #  NEGATIVE CASE
000379: 30,6707           60003                           AD       LP                                    #  CORRECT LOWER WORD
000380: 30,6710           20072                           INDEX    VBUF       +1
000381: 30,6711           50001                           TS       Q                                     #  STORE LOWER WORD
000382: 30,6712           35501                           CAF      ZERO                                  #  DEAL WITH OVERFLOW STANDARD WAY
000383: 30,6713           60073                           AD       VBUF       +2
000384: 30,6714           20072                           INDEX    VBUF       +1
000385: 30,6715           50000                           TS       A                                     #  STORE UPPER WORD
000386:
000387: 30,6716           10071                           CCS      VBUF
000388: 30,6717           06670                           TC       V2STOD1S
000389:
000390: 30,6720           45501                           CS       ZERO
000391: 30,6721           50065                           TS       MODE
000392: 30,6722           04024                           TC       DANZIG
000393:
000394:
000395:                                                                                                  #  ROUTINE TO FREE DSKY
000396:
000397:
000398:
000399: 30,6723           03370        DSPFREE            TC       FREEDSP
000400: 30,6724           04703                           TC       RE-ENTER
000401:
000402:
000403:                                                                                                  #        FINAGLE TO GET OGC CORRECTED TO NEAREST POINT ON 16 SPEED.
000404:
000405: 30,6725           41520        CDUXFIX            CS       OGC                                   #  INTERPRETIVE SCALING.   (REVS)
000406: 30,6726           25777                           EXTEND
000407: 30,6727           44503                           MP       BIT12                                 #  MULTIPLY BY 1/8 TH.
000408: 30,6730           50116                           TS       MPAC       +1                         #  SAVE RESULT.
000409:
000410: 30,6731           34504                           CAF      BIT11                                 #  1/16 TH.
000411: 30,6732           60700                           AD       THETAD                                #  TO FIND NEAREST ZERO POINT.
000412: 30,6733           76777                           MASK     HI4                                   #  DROPS BACK TO LOWER (MORE NEG) 1/8TH.
000413: 30,6734           51450                           TS       K1ROLL
000414: 30,6735           06740                           TC       +3                                    #  SKIPS THIS IF ADDITION OVERFLEW.
000415: 30,6736           34476                           CAF      POSMAX                                #  IN THAT CASE, USE POSMAX.
000416: 30,6737           51450                           TS       K1ROLL
000417:
000418: 30,6740           41450                           CS       K1ROLL                                #  THE CURRENT NEAREST ZERO POINT ON 16 SPD
000419: 30,6741           60700                           AD       THETAD                                #  DELTA FROM ZERO POINT.
000420: 30,6742           60116                           AD       MPAC       +1                         #  MINUS NEW COMMAND
000421:                                                                                                  #    A = DELTHETAD -DELNEWCOMMAND
000422: 30,6743           64504                           AD       BIT11                                 #  PLUS 1/16 TH.  (180 DEG SCALED.)
000423: 30,6744           10000                           CCS      A                                     #  IF NEG, CHANGE IS MORE THAN + 180 DEG.
000424: 30,6745           06756                           TC       CHECKNEG                              #  OK, CHECK OTHER WAY.
000425: 30,6746           74000        NEG1/8+1           OCT      74000
000426: 30,6747           44503                           CS       BIT12                                 #  CHANGE TOO BIG, MOVE TO NEXT LOWER 0-PT.
000427: 30,6750           61450        NEWBIAS            AD       K1ROLL                                #  (NEG ZERO OF CCS COMES HERE ALSO, SO..)
000428: 30,6751           51450                           TS       K1ROLL
000429: 30,6752           06763                           TC       GETNUOGC                              #  SKIPPING ON OVERFLOW.
000430:
000431: 30,6753           20000                           INDEX    A
000432: 30,6754           44477                           CS       LIMITS
000433: 30,6755           06751                           TC       NEWBIAS    +1                         #  AND SET PROPER LIMIT VALUE.
000434:
000435: 30,6756           66746        CHECKNEG           AD       NEG1/8+1
000436: 30,6757           10000                           CCS      A                                     #  CHECK OTHER SIDE.
000437: 30,6760           34503                           CAF      BIT12                                 #  ADD 108 TH TO K1ROLL.
000438: 30,6761           06750                           TC       NEWBIAS                               #  (+ 0 IMPOSSIBLE.)
000439: 30,6762           06763                           TC       +1                                    #  NO NEED TO CHANGE BIAS.
000440:
000441: 30,6763           40116        GETNUOGC           CS       MPAC       +1                         #  NEW DELTA.
000442: 30,6764           51372                           TS       K2ROLL
000443: 30,6765           61450                           AD       K1ROLL                                #  AS MODIFIES IF IT WAS NEC.
000444: 30,6766           50115                           TS       MPAC
000445: 30,6767           06773                           TC       +4                                    #  DETECT OVERFLOW.
000446:
000447: 30,6770           20000                           INDEX    A
000448: 30,6771           34477                           CAF      LIMITS                                #  GO TO POSMAX FROM NEGMAX. (AND VICEVERSA
000449: 30,6772           60115                           AD       MPAC                                  #  AND GET NEW ANGLE.
000450:
000451: 30,6773           25777                           EXTEND
000452: 30,6774           44501                           MP       BIT14                                 #  RESCALE TO REVS.
000453: 30,6775           51520                           TS       OGC
000454: 30,6776           04703                           TC       RE-ENTER                              #  TO NEXT EQUATION WITHOUT PUSHING DOWN.
000455:
000456:
000457:
000458: 30,6777           74000        HI4                OCT      74000

End of include-file RTB_OP_CODES.agc.  Parent file is MAIN.agc


