
Source Code


000002:                                                                                                  ## Copyright:   Public domain.
000003:                                                                                                  ## Filename:    SUM-CHECK_END_OF_RECORD_MARKS.agc
000004:                                                                                                  ## Purpose:     A section of Corona revision 261.
000005:                                                                                                  ##              It is part of the source code for the Apollo Guidance Computer
000006:                                                                                                  ##              (AGC) for AS-202. No original listings of this software are
000007:                                                                                                  ##              available; instead, this file was created via disassembly of
000008:                                                                                                  ##              the core rope modules actually flown on the mission.
000009:                                                                                                  ## Assembler:   yaYUL
000010:                                                                                                  ## Contact:     Ron Burkey <info@sandroid.org>.
000011:                                                                                                  ## Website:     www.ibiblio.org/apollo/index.html
000012:                                                                                                  ## Mod history: 2023-05-27 MAS  Created from Solarium 55.
000013:
000014:
000015:                                                                                                  #  EACH VALID BANK MUST HAVE AN EOR CONSISTING OF TWO TC SELF WORDS TO
000016:                                                                                                  #  SIGNIFY THE END OF GOOD PARITY DATA.
000017:
000018:    3556                                           BANK     1
000019:
000020:    3556           03556                           TC       -0
000021:    3557           03557                           TC       -0
000022:
000023:    5765                                           BANK     2
000024:
000025:    5765           05765                           TC       -0
000026:    5766           05766                           TC       -0
000027:
000028: 03,7465                                           BANK     3
000029:
000030: 03,7465           07465                           TC       -0
000031: 03,7466           07466                           TC       -0
000032:
000033: 04,7510                                           BANK     4
000034:
000035: 04,7510           07510                           TC       -0
000036: 04,7511           07511                           TC       -0
000037:
000038: 05,7720                                           BANK     5
000039:
000040: 05,7720           07720                           TC       -0
000041: 05,7721           07721                           TC       -0
000042:
000043: 06,7643                                           BANK     6
000044:
000045: 06,7643           07643                           TC       -0
000046: 06,7644           07644                           TC       -0
000047:
000048: 07,7527                                           BANK     7
000049:
000050: 07,7527           07527                           TC       -0
000051: 07,7530           07530                           TC       -0
000052:
000053: 10,7744                                           BANK     10
000054:
000055: 10,7744           07744                           TC       -0
000056: 10,7745           07745                           TC       -0
000057:
000058: 11,7721                                           BANK     11
000059:
000060: 11,7721           07721                           TC       -0
000061: 11,7722           07722                           TC       -0
000062:
000063: 12,7760                                           BANK     12
000064:
000065: 12,7760           07760                           TC       -0
000066: 12,7761           07761                           TC       -0
000067:
000068: 13,7317                                           BANK     13
000069:
000070: 13,7317           07317                           TC       -0
000071: 13,7320           07320                           TC       -0
000072:
000073: 14,7536                                           BANK     14
000074:
000075: 14,7536           07536                           TC       -0
000076: 14,7537           07537                           TC       -0
000077:
000078: 21,7600                                           BANK     21
000079:
000080: 21,7600           07600                           TC       -0
000081: 21,7601           07601                           TC       -0
000082:
000083: 22,7203                                           BANK     22
000084:
000085: 22,7203           07203                           TC       -0
000086: 22,7204           07204                           TC       -0
000087:
000088: 23,7756                                           BANK     23
000089:
000090: 23,7756           07756                           TC       -0
000091: 23,7757           07757                           TC       -0
000092:
000093: 24,7447                                           BANK     24
000094:
000095: 24,7447           07447                           TC       -0
000096: 24,7450           07450                           TC       -0
000097:
000098: 25,7646                                           BANK     25
000099:
000100: 25,7646           07646                           TC       -0
000101: 25,7647           07647                           TC       -0
000102:
000103: 26,7652                                           BANK     26
000104:
000105: 26,7652           07652                           TC       -0
000106: 26,7653           07653                           TC       -0
000107:
000108: 27,7774                                           BANK     27
000109:
000110: 27,7774           07774                           TC       -0
000111: 27,7775           07775                           TC       -0
000112:
000113: 30,7743                                           BANK     30
000114:
000115: 30,7743           07743                           TC       -0
000116: 30,7744           07744                           TC       -0
000117:
000118: 31,7454                                           BANK     31
000119:
000120: 31,7454           07454                           TC       -0
000121: 31,7455           07455                           TC       -0
000122:
000123: 32,7771                                           BANK     32
000124:
000125: 32,7771           07771                           TC       -0
000126: 32,7772           07772                           TC       -0
000127:
000128: 33,7636                                           BANK     33
000129:
000130: 33,7636           07636                           TC       -0
000131: 33,7637           07637                           TC       -0
000132:
000133: 34,7770                                           BANK     34
000134:
000135: 34,7770           07770                           TC       -0
000136: 34,7771           07771                           TC       -0
000137:
000138:                                                                                                  #  END OF REVISION 0 OF PROGRAM SOLRUM55 BY NASA 1021108-021                     LAST ASSEMBLED ON NOV 26, 1966

End of include-file SUM-CHECK_END_OF_RECORD_MARKS.agc.  Parent file is MAIN.agc


