
Source Code


000002:                                                                                                  ## Copyright:   Public domain.
000003:                                                                                                  ## Filename:    VERIFICATION_ASSISTANCE_PROGRAMS.agc
000004:                                                                                                  ## Purpose:     A section of Corona revision 261.
000005:                                                                                                  ##              It is part of the source code for the Apollo Guidance Computer
000006:                                                                                                  ##              (AGC) for AS-202. No original listings of this software are
000007:                                                                                                  ##              available; instead, this file was created via disassembly of
000008:                                                                                                  ##              the core rope modules actually flown on the mission.
000009:                                                                                                  ## Assembler:   yaYUL
000010:                                                                                                  ## Contact:     Ron Burkey <info@sandroid.org>.
000011:                                                                                                  ## Website:     www.ibiblio.org/apollo/index.html
000012:                                                                                                  ## Mod history: 2023-05-27 MAS  Created from Solarium 55.
000013:
000014:
000015:                                                                                                  #        WAITLIST EXERCISE PROGRAM. TIMES ARE GIVEN IN THE FORM NN + NN/32 + YY, WHERE THE NS REFER TO TIME
000016:                                                                                                  #  SINCE THE BEGINNING OF THE TEST, AND YS ADDITIONAL MCT.
000017:
000018: 13,7155                                           BANK     13
000019: 13,7155           30006        WLTEST             XCH      IN2
000020: 13,7156           10006                           CCS      IN2                                   #  GET IN PHASE WITH T3 INCREMENTS.
000021: 13,7157           07161                           TC       +2
000022: 13,7160           07156                           TC       -2
000023:
000024: 13,7161           10006                           CCS      IN2
000025: 13,7162           07161                           TC       -1
000026: 13,7163           50042                           TS       OUTCR1                                #  TO INITIALIZE.
000027:
000028:                                                                                                  #        THE FIRST TASK IS ENTERED INTO SLOT 1 WITH A T3 INCREMENT BETWEEN THE TWO T3 REFERENCES. CALL AT
000029:                                                                                                  #  10 +00/32 -25. SPECIFY WAIT TO 30/32.
000030:
000031: 13,7164           07260                           TC       OUTCR1WT
000032: 13,7165           00035                           DEC      29         B-14
000033:
000034: 13,7166           07260                           TC       OUTCR1WT                              #  GO WAIT FOR THIS AND SPECIFY RESET TO
000035: 13,7167           00052                           DEC      42         B-14                       #  20 +8/32.
000036:
000037:                                                                                                  #        AT 30/32 +16, WAIT 12 MCT BEFORE ENTERING TASK 1.
000038:
000039: 13,7170           35501                           CAF      ZERO                                  #  TUNING CONSTANT.
000040: 13,7171           10000                           CCS      A
000041: 13,7172           07171                           TC       -1
000042: 13,7173           34516                           CAF      ONE                                   #  TASK ENTRY WITH T3 INC BETWEEN TWO T3
000043: 13,7174           02173                           TC       WAITLIST                              #  REFERENCES.
000044: 13,7175           42240                           CADR     NOPLWAIT   +2                         #  TASK IN HIGH SWITCHED BANK.
000045:
000046: 13,7176           07260                           TC       OUTCR1WT                              #  WAIT FOR 20 +8/32. CALL FOR RESET TO
000047: 13,7177           00027                           DEC      23         B-14                       #  20 +31/32.
000048:
000049: 13,7200           34516                           CAF      ONE                                   #  AT 20 +8/32 + 16, ENTER TASK 2 DUE AT
000050: 13,7201           02173                           TC       WAITLIST                              #  30.
000051: 13,7202           27302                           CADR     QTSK2
000052:
000053:
000054:                                                                                                  #        WAIT FOR 20 +31/32 +16 AND AT THAT TIME WAIT FOR T3 TO OVERFLOW BEFORE ENTERING TASK 3. REQUIRES RESET
000055:                                                                                                  #  TO 30 +10/32.
000056:
000057: 13,7203           07260                           TC       OUTCR1WT
000058: 13,7204           00013                           DEC      11         B-14
000059: 13,7205           10037                           CCS      TIME3
000060: 13,7206           07205                           TC       -1
000061: 13,7207           34516                           CAF      ONE                                   #  ENTER TASK 3 AFTER T3 OVF.
000062: 13,7210           02173                           TC       WAITLIST
000063: 13,7211           27303                           CADR     QTSK3
000064:
000065: 13,7212           07260                           TC       OUTCR1WT                              #  TASK 3 IS DUE AT 40. WAIT FOR 30 +10/32
000066: 13,7213           00065                           DEC      53         B-14                       #  CALLING FOR RESET TO 40 +31/32.
000067:
000068:                                                                                                  #        AT 30 +10/32 +16, ENTER TASKS 4 AND 5 DUE SAME RUPT AT 50. THEY WILL BE INHIBITED FOR 6 MS SO THAT T3
000069:                                                                                                  #  WILL TICK WHILE IT IS BEING RESET IN THE DISPATCH OF 5.
000070:
000071: 13,7214           35503                           CAF      TWO                                   #  ENTERED INTO SLOTS 2 AND 3.
000072: 13,7215           02173                           TC       WAITLIST
000073: 13,7216           27304                           CADR     QTSK4
000074: 13,7217           35503                           CAF      TWO
000075: 13,7220           02173                           TC       WAITLIST
000076: 13,7221           03233                           CADR     TCTSKOVR                              #  TASK IN FIXED-FIXED.
000077:
000078: 13,7222           07260                           TC       OUTCR1WT                              #  WAIT FOR 40 +31/32 +16, CALLING FOR
000079: 13,7223           00023                           DEC      19         B-14                       #  RESET TO 50 +18/32.
000080:
000081: 13,7224           07261                           TC       OUTCR1WT   +1                         #  AT 40 +31/32 +16, INHIBIT UNTIL
000082: 13,7225           00030                           DEC      24         B-14                       #  50 +18/32 +16 AND RESET TO 60 +10/32.
000083:
000084: 13,7226           07260                           TC       OUTCR1WT                              #  AT 50 +18/32 +16, WAIT UNTIL 60 10/32,
000085: 13,7227           00025                           DEC      21         B-14                       #  RESETTING TO 60 +31/32.
000086:
000087:
000088:                                                                                                  #        AT 60 +10/32 +16, ENTER TASKS 6 AND 7 DUE AT 70 AND 8 DUE AT 80. T3 WILL INCREMENT DURING TASK 7
000089:                                                                                                  #  DISPATCH, MAKING TASK 8 DUE THAT INTERRUPT.
000090:
000091: 13,7230           34516                           CAF      ONE
000092: 13,7231           02173                           TC       WAITLIST                              #  ENTER TWO TASKS DUE SAME T3 RUPT AND
000093: 13,7232           27310                           CADR     QTSK6                                 #  ANOTHER DUE THE FOLLOWING RUPT.
000094: 13,7233           34516                           CAF      ONE
000095: 13,7234           02173                           TC       WAITLIST
000096: 13,7235           27312                           CADR     QTSK7
000097: 13,7236           35503                           CAF      TWO                                   #  A T3 INC WILL OCCUR WHILE TASK 7 IS
000098: 13,7237           02173                           TC       WAITLIST                              #  SETTING T3 FOR THIS TASK AND CAUSE IT TO
000099: 13,7240           27313                           CADR     QTSK8                                 #  BE THE THIRD TASK DUE THAT RUPT.
000100:
000101: 13,7241           07260                           TC       OUTCR1WT                              #  WAIT UNTIL 60 +31/32 +16, INHINTING
000102: 13,7242           00023                           DEC      19         B-14                       #  70 +18/32 +16.
000103: 13,7243           07261                           TC       OUTCR1WT   +1
000104: 13,7244           00001                           DEC      1          B-14
000105:
000106: 13,7245           34477                           CAF      FIVE                                  #  SYSTEMMATICALLY ENTER TASKS IN ALL 6
000107: 13,7246           50115                           TS       MPAC                                  #  SLOTS.
000108:
000109: 13,7247           20016        QTSKLOOP           RELINT
000110: 13,7250           20017                           INHINT
000111: 13,7251           40115                           CS       MPAC
000112: 13,7252           65362                           AD       SEVEN
000113: 13,7253           02173                           TC       WAITLIST
000114: 13,7254           27314                           CADR     QTSK10
000115: 13,7255           10115                           CCS      MPAC
000116: 13,7256           07246                           TC       QTSKLOOP   -1
000117:
000118: 13,7257           07257        QENDTEST           TC       -0
000119:
000120:
000121:                                                                                                  #        THE FOLLOWING SUBROUTINE USES OUTCR1 AS A FINE TIMER DURING THE WAITLIST TEST.
000122:
000123: 13,7260           20016        OUTCR1WT           RELINT
000124: 13,7261           30001                           XCH      Q
000125: 13,7262           50115                           TS       MPAC
000126: 13,7263           20000                           INDEX    A
000127: 13,7264           40000                           CS       0                                     #  NUMBER OF THIRTY-SECONDS OF 10MS TO WAIT
000128: 13,7265           64522                           AD       HALF
000129: 13,7266           64522                           AD       HALF
000130: 13,7267           50116                           TS       MPAC       +1                         #  NEW OUTCR SETTING.
000131:
000132: 13,7270           10042                           CCS      OUTCR1
000133: 13,7271           07270                           TC       -1
000134:
000135: 13,7272           30116        OUTCR1W2           XCH      MPAC       +1
000136: 13,7273           50042                           TS       OUTCR1
000137: 13,7274           37301                           CAF      1WTCODE
000138: 13,7275           50012                           TS       OUT2
000139: 13,7276           20017                           INHINT
000140: 13,7277           20115                           INDEX    MPAC
000141: 13,7300           00001                           TC       1
000142:
000143: 13,7301           26000        1WTCODE            OCT      26000
000144:
000145:
000146:                                                                                                  #        TASKS FOR WAITLIST TESTER.
000147:
000148: 13,7302           02256        QTSK2              TC       TASKOVER
000149: 13,7303           02256        QTSK3              TC       TASKOVER
000150: 13,7304           37315        QTSK4              CAF      QTSK4DEL                              #  WAIT SO THAT T3 WILL TICK DURING DISPTCH
000151: 13,7305           10000                           CCS      A
000152: 13,7306           07305                           TC       -1
000153: 13,7307           02256                           TC       TASKOVER
000154:
000155: 13,7310           37316        QTSK6              CAF      QTSK6DEL
000156: 13,7311           07305                           TC       QTSK4      +1
000157:
000158: 13,7312           02256        QTSK7              TC       TASKOVER
000159: 13,7313           02256        QTSK8              TC       TASKOVER
000160: 13,7314           02256        QTSK10             TC       TASKOVER
000161:
000162: 13,7315           00115        QTSK4DEL           DEC      77         B-14                       #  TUNING CONSTANTS.
000163: 13,7316           00116        QTSK6DEL           DEC      78         B-14

End of include-file VERIFICATION_ASSISTANCE_PROGRAMS.agc.  Parent file is MAIN.agc


