
Source Code


000002:                                                                                                  ## Copyright:   Public domain.
000003:                                                                                                  ## Filename:    WAITLIST.agc
000004:                                                                                                  ## Purpose:     A section of Corona revision 261.
000005:                                                                                                  ##              It is part of the source code for the Apollo Guidance Computer
000006:                                                                                                  ##              (AGC) for AS-202. No original listings of this software are
000007:                                                                                                  ##              available; instead, this file was created via disassembly of
000008:                                                                                                  ##              the core rope modules actually flown on the mission.
000009:                                                                                                  ## Assembler:   yaYUL
000010:                                                                                                  ## Contact:     Ron Burkey <info@sandroid.org>.
000011:                                                                                                  ## Website:     www.ibiblio.org/apollo/index.html
000012:                                                                                                  ## Mod history: 2023-05-27 MAS  Created from Solarium 55.
000013:
000014:
000015:                                                                                                  #  CHECK-OUT STATUS - UNIT VERIFICATION COMPLETE MAY, 1965               EXCEPT LONGCALL SECTION.
000016:
000017:                                                                                                  #  DO NOT CHANGE THIS SECTION WITHOUT PRB APPROVAL.
000018:
000019:                                                                                                  #  GROUNDRULE....DELTA T SHOULD NOT EXCEED 12000 (= 2 MINUTES)
000020:
000021:    2173                                           BANK     1
000022:    2173           50577        WAITLIST           TS       DELT                                  #  STORE DELTA T = TD - T (TD = DESIRED
000023:    2174           30001                           XCH      Q                                     #    TIME FOR FUTURE ACTION).
000024:    2175           02065                           TC       EXECCOM                               #  PICK UP TASK ADDRESS AND SAVE BANKREG.
000025:    2176           06374                           TC       WTLST3
000026:
000027: 04,6374                                           BANK     4
000028: 04,6374           40037        WTLST3             CS       TIME3
000029: 04,6375           66376                           AD       +1                                    #  CCS  A  = + 1/4
000030: 04,6376           10000                           CCS      A                                     #  TEST  1/4 - C(TIME3).  IF POSITIVE,
000031:                                                                                                  #  IT MEANS THAT TIME3 OVERFLOW HAS OCCURRED PRIOR TO CS  TIME3 AND THAT
000032:                                                                                                  #  C(TIME3) = T - T1, INSTEAD OF 1.0 - (T1 - T).  THE FOLLOWING FOUR
000033:                                                                                                  #  ORDERS SET C(A) = TD - T1 + 1 IN EITHER CASE.  C(CSQ) = CS  Q = 40001
000034:                                                                                                  #  AND  C(TSQ) = TS  Q = 50001   NOTATION...   1 - 00001,  1.0 = 37777+1
000035:
000036: 04,6377           64664                           AD       CSQ                                   #  OVERFLOW HAS OCCURRED.  SET C(A) =
000037: 04,6400           40000                           CS       A                                     #  T - T1 + 3/4 - 1
000038:
000039:                                                                                                  #  NORMAL CASE (C(A) MINUS) YIELDS SAME C(A)  -(-(1.0-(T1-T))+1/4)-1
000040:
000041: 04,6401           64561                           AD       TSQ                                   #  TS  Q  = - 3/4 + 2
000042: 04,6402           60577                           AD       DELT                                  #  RESULT = TD - T1 + 1
000043:                                                                                                  #                10W
000044: 04,6403           10000                           CCS      A                                     #  TEST TD - T1 + 1
000045:
000046: 04,6404           60552                           AD       LST1                                  #  IF TD - T1 POS, GO TO WTLST5 WITH
000047: 04,6405           06451                           TC       WTLST5                                #  C(A) = (TD - T1) + C(LST1) = TD-T2+1
000048:
000049: 04,6406           06407                           TC       +1
000050: 04,6407           40577                           CS       DELT
000051:
000052:                                                                                                  #  NOTE THAT THIS PROGRAM SECTION IS NEVER ENTERED WHEN T-T1 G/E -1,
000053:                                                                                                  #  SINCE TD-T1+1 = (TD-T) + (T-T1+1), AND DELTA T = TD-T G/E +1.  (G/E
000054:                                                                                                  #  SYMBOL MEANS GREATER THAN OR EQUAL TO).  THUS THERE NEED BE NO CON-
000055:                                                                                                  #  CERN OVER A PREVIOUS OR IMMINENT OVERFLOW OF TIME3 HERE.
000056:
000057: 04,6410           64522                           AD       POS1/2                                #  WHEN TD IS NEXT, FORM QUANTITY
000058: 04,6411           64522                           AD       POS1/2                                #    1.0 - DELTA T = 1.0 - (TD - T)
000059: 04,6412           30037                           XCH      TIME3
000060: 04,6413           64563                           AD       MSIGN
000061: 04,6414           60577                           AD       DELT
000062: 04,6415           50577                           TS       DELT
000063: 04,6416           35501                           CAF      ZERO
000064: 04,6417           30577                           XCH      DELT
000065: 04,6420           30552        WTLST4             XCH      LST1
000066: 04,6421           30553                           XCH      LST1       +1
000067: 04,6422           30554                           XCH      LST1       +2
000068: 04,6423           30555                           XCH      LST1       +3
000069: 04,6424           30556                           XCH      LST1       +4
000070: 04,6425           30557                           XCH      LST1       +5
000071: 04,6426           30560                           XCH      LST1       +6
000072: 04,6427           30573                           XCH      EXECTEM2                              #  TASK ADDRESS.
000073: 04,6430           20577                           INDEX    NVAL
000074: 04,6431           06432                           TC       +1
000075: 04,6432           30561                           XCH      LST2
000076: 04,6433           30562                           XCH      LST2       +1
000077: 04,6434           30563                           XCH      LST2       +2
000078: 04,6435           30564                           XCH      LST2       +3
000079: 04,6436           30565                           XCH      LST2       +4
000080: 04,6437           30566                           XCH      LST2       +5                         #  AT END, CHECK THAT C(LST2+5) IS STD
000081: 04,6440           30567                           XCH      LST2       +6
000082: 04,6441           30570                           XCH      LST2       +7
000083: 04,6442           62260                           AD       ENDTASK                               #    END ITEM, AS CHECK FOR EXCEEDING
000084:                                                                                                  #    THE LENGTH OF THE LIST.
000085: 04,6443           10000                           CCS      A
000086: 04,6444           03052                           TC       ABORT                                 #  WAITLIST OVERFLOW.
000087: 04,6445           01203                           OCT      01203
000088: 04,6446           06444                           TC       -2
000089:
000090: 04,6447           30572                           XCH      EXECTEM1                              #  RETURN TO CALLER.
000091: 04,6450           02076                           TC       LVWTLIST                              #  SAME ROUTINE AS FINDVAC, ETC., EXIT.
000092:
000093:
000094: 04,6451           10000        WTLST5             CCS      A                                     #  TEST  TD - T2 + 1
000095: 04,6452           60553                           AD       LST1       +1
000096: 04,6453           06457                           TC       +4
000097: 04,6454           64516                           AD       ONE
000098: 04,6455           06535                           TC       WTLST2
000099: 04,6456           00001                           OCT      1
000100:
000101: 04,6457           10000                 +4        CCS      A                                     #  TEST  TD - T3 + 1
000102: 04,6460           60554                           AD       LST1       +2
000103: 04,6461           06465                           TC       +4
000104: 04,6462           64516                           AD       ONE
000105: 04,6463           06535                           TC       WTLST2
000106: 04,6464           00002                           OCT      2
000107:
000108: 04,6465           10000                 +4        CCS      A                                     #  TEST  TD - T4 + 1
000109: 04,6466           60555                           AD       LST1       +3
000110: 04,6467           06473                           TC       +4
000111: 04,6470           64516                           AD       ONE
000112: 04,6471           06535                           TC       WTLST2
000113: 04,6472           00003                           OCT      3
000114:
000115: 04,6473           10000                 +4        CCS      A                                     #  TEST  TD - T5 + 1
000116: 04,6474           60556                           AD       LST1       +4
000117: 04,6475           06501                           TC       +4
000118: 04,6476           64516                           AD       ONE
000119: 04,6477           06535                           TC       WTLST2
000120: 04,6500           00004                           OCT      4
000121:
000122: 04,6501           10000                 +4        CCS      A                                     #  TEST  TD - T6 + 1
000123: 04,6502           60557                           AD       LST1       +5
000124: 04,6503           06507                           TC       +4
000125: 04,6504           64516                           AD       ONE
000126: 04,6505           06535                           TC       WTLST2
000127: 04,6506           00005                           OCT      5
000128:
000129: 04,6507           10000                 +4        CCS      A
000130: 04,6510           60560                           AD       LST1       +6
000131: 04,6511           06515                           TC       +4
000132: 04,6512           64516                           AD       ONE
000133: 04,6513           06535                           TC       WTLST2
000134: 04,6514           00006                           OCT      6
000135:
000136: 04,6515           10000                 +4        CCS      A
000137: 04,6516           06523                           TC       WTALARM
000138: 04,6517           30000                           NOOP
000139: 04,6520           64516                           AD       ONE
000140: 04,6521           06535                           TC       WTLST2
000141: 04,6522           00007                           OCT      7
000142:
000143: 04,6523           03052        WTALARM            TC       ABORT
000144: 04,6524           01204                           OCT      01204
000145:
000146: 04,6525     2076               LVWTLIST           EQUALS   FOUNDVAC
000147:
000148: 04,6525           10647        SVCT3X             CCS      FLAGWRD2                              #  IF DURING FREE-FALL AND AFTER
000149: 04,6526           02256                           TC       TASKOVER                              #  PLATFORM HAS BEEN ALIGNED, COMPENSATE
000150: 04,6527           02256                           TC       TASKOVER                              #  FOR GYRO BIAS DRIFT.
000151: 04,6530           06531                           TC       +1
000152:
000153: 04,6531           32170                           CAF      PRIO35
000154: 04,6532           02052                           TC       NOVAC
000155: 04,6533           31247                           CADR     BIASONLY
000156: 04,6534           02256        LTSKOV             TC       TASKOVER                              #  USED BY LONGCALL.
000157:
000158:                                                                                                  #  C(TIME3) = 1.0 - (T1 - T)
000159:
000160:                                                                                                  #  C(LST1  ) = - (T2 - T1) + 1
000161:                                                                                                  #  C(LST1+1) = - (T3 - T2) + 1
000162:                                                                                                  #  C(LST1+2) = - (T4 - T3) + 1
000163:                                                                                                  #  C(LST1+3) = - (T5 - T4) + 1
000164:                                                                                                  #  C(LST1+4) = - (T6 - T5) + 1
000165:
000166:                                                                                                  #  C(LST2  ) = TC  TASK1
000167:                                                                                                  #  C(LST2+1) = TC  TASK2
000168:                                                                                                  #  C(LST2+2) = TC  TASK3
000169:                                                                                                  #  C(LST2+3) = TC  TASK4
000170:                                                                                                  #  C(LST2+4) = TC  TASK5
000171:                                                                                                  #  C(LST2+5) = TC  TASK6                                         11W
000172:
000173:
000174:                                                                                                  #  THE ENTRY TO WTLST2 JUST PRECEDING OCT  N  IS FOR T  LE TD LE T   -1.
000175:                                                                                                  #                                                     N           N+1
000176:                                                                                                  #  (LE MEANS LESS THAN OR EQUAL TO).  AT ENTRY, C(A) = -(TD - T   + 1)
000177:                                                                                                  #                                                              N+1
000178:
000179:                                                                                                  #  THE LST1 ENTRY -(T   - T +1) IS TO BE REPLACED BY -(TD - T + 1), AND
000180:                                                                                                  #                    N+1   N                                 N
000181:
000182:                                                                                                  #  THE ENTRY -(T   - TD + 1) IS TO BE INSERTED IMMEDIATELY FOLLOWING.
000183:                                                                                                  #               N+1
000184:
000185: 04,6535           30001        WTLST2             XCH      Q                                     #  NEW C(Q) = -(TD - T   + 1)
000186: 04,6536           20000                           INDEX    A                                     #                     N+1
000187: 04,6537           30000                           CAF      0
000188: 04,6540           50577                           TS       NVAL                                  #  VALUE OF N INTO NVAL
000189:
000190: 04,6541           34516                           CAF      ONE
000191: 04,6542           60001                           AD       Q
000192: 04,6543           20577                           INDEX    NVAL                                  #  C(A) = -(TD - T ) + 1.
000193: 04,6544           60551                           AD       LST1       -1                         #                 N
000194:
000195: 04,6545           20577                           INDEX    NVAL
000196: 04,6546           50551                           TS       LST1       -1
000197:
000198: 04,6547           40001                           CS       Q                                     #  -C(Q) = -(T    - TD) + 1
000199: 04,6550           20577                           INDEX    NVAL                                  #             N+1
000200: 04,6551           06420                           TC       WTLST4
000201:
000202:
000203:                                                                                                  #  THIS ROUTINE HANDLES TASKS MORE THAN 120 SECS IN THE FUTURE. IT REQUIRES CALL TIME IN LONGTIME, +1 SCALED SAME
000204:                                                                                                  #  AS TIME2, 1 AND THE TASK ADDRESS IN CALLCADR. ENTER WITH
000205:                                                                                                  #                                                                TC      IBNKCALL
000206:                                                                                                  #                                                                CADR    LONGCALL
000207:                                                                                                  #  THE ROUTINE ONLY HANDLES ONE CALL AT A TIME
000208:
000209: 04,6552           30001        LONGCALL           XCH      Q
000210: 04,6553           51466                           TS       LONGEXIT
000211:
000212: 04,6554           31461                           XCH      LONGTIME   +1
000213: 04,6555           60000                           DOUBLE
000214: 04,6556           51461                           TS       LONGTIME   +1
000215: 04,6557           35501                           CAF      ZERO
000216: 04,6560           61460                           AD       LONGTIME
000217: 04,6561           61460                           AD       LONGTIME
000218: 04,6562           51460                           TS       LONGTIME
000219: 04,6563           06565                           TC       +2
000220: 04,6564           06564                           TC       -0                                    #  ERROR TRAP.   DT TOO BIG
000221:
000222: 04,6565           34516                           CAF      ONE
000223: 04,6566           61461                           AD       LONGTIME   +1
000224: 04,6567           64476                           AD       POSMAX
000225: 04,6570           51461                           TS       LONGTIME   +1
000226: 04,6571           35501                           CAF      ZERO
000227:
000228: 04,6572           61460                           AD       LONGTIME
000229: 04,6573           64476                           AD       POSMAX
000230: 04,6574           51460                           TS       LONGTIME
000231: 04,6575           03070                           TC       CCSHOLE
000232:
000233: 04,6576           34501                           CAF      BIT14
000234: 04,6577           25777                           EXTEND
000235: 04,6600           41461                           MP       LONGTIME   +1
000236: 04,6601           51461                           TS       LONGTIME   +1
000237:
000238: 04,6602           11460        LONGCYCL           CCS      LONGTIME
000239: 04,6603           06613                           TC       LOOPAGIN
000240:
000241: 04,6604           11461                           CCS      LONGTIME   +1                         #  TEST FOR LOWER ORDER ZERO
000242: 04,6605           06607                           TC       +2
000243: 04,6606           06622                           TC       GETCADR
000244:
000245: 04,6607           31461                           XCH      LONGTIME   +1
000246: 04,6610           02173                           TC       WAITLIST
000247: 04,6611           10622                           CADR     GETCADR
000248:
000249: 04,6612           06617                           TC       LONGC1
000250: 04,6613           51460        LOOPAGIN           TS       LONGTIME
000251: 04,6614           34501                           CAF      BIT14
000252: 04,6615           02173                           TC       WAITLIST
000253: 04,6616           10602                           CADR     LONGCYCL
000254:
000255: 04,6617           36534        LONGC1             CAF      LTSKOV
000256: 04,6620           31466                           XCH      LONGEXIT
000257: 04,6621           00000                           XAQ
000258:
000259: 04,6622           31467        GETCADR            XCH      CALLCADR
000260: 04,6623           05723                           TC       BANKJUMP
000261:
000262:
000263:                                                                                                  #        ENTERS HERE ON T3 RUPT TO DISPATCH WAITLISTED TASK.
000264:
000265:    2177                                           SETLOC   WAITLIST   +4                         #  BACK TO FF.
000266:
000267:    2177           30015        T3RUPT             XCH      BANKREG                               #   TIME 3 OVERFLOW INTERRUPT PROGRAM
000268:    2200           50030                           TS       BANKRUPT
000269:    2201           30034                           XCH      OVCTR                                 #  1.  PICK UP CONTENTS OF THE OVERFLOW
000270:    2202           50031                           TS       OVRUPT                                #     AND SAVE IN OVRUPT FOR ENTIRE T3RUPT.
000271:
000272:    2203           45501        T3RUPT2            CS       ZERO                                  #  SET RUPTAGN TO -0 INITIALLY, AND SET
000273:    2204           50571                           TS       RUPTAGN                               #  T3 TO -0 WHILE WE MAKE UP ITS NEW
000274:    2205           30037                           XCH      TIME3                                 #  CONTENTS SO WE CAN DETECT AN INCREMENT
000275:    2206           50001                           TS       Q                                     #  OCCURING IN THE PROCESS.
000276:
000277:    2207           34520                           CAF      NEG1/2
000278:    2210           30560                           XCH      LST1       +6
000279:    2211           30557                           XCH      LST1       +5
000280:    2212           30556                           XCH      LST1       +4                         #  3.  MOVE UP LST1 CONTENTS, ENTERING
000281:    2213           30555                           XCH      LST1       +3                         #      A VALUE OF 1/2 +1 AT THE BOTTOM
000282:    2214           30554                           XCH      LST1       +2                         #      FOR T6-T5, CORRESPONDING TO THE
000283:    2215           30553                           XCH      LST1       +1                         #      INTERVAL 81.93 SEC FOR ENDTASK.
000284:    2216           30552                           XCH      LST1
000285:    2217           64476                           AD       POSMAX                                #  4. SET T3 = 1.0 - T2 -T USING LIST 1.
000286:    2220           60001                           AD       Q                                     #  SAMPLED T3.
000287:    2221           50000                           TS       A                                     #  SEE IF NEW T3 HAS OVERFLOW. IF SO, NEXT
000288:    2222           02226                           TC       +4                                    #  TASK IS DUE THIS T3 RUPT AND SET RUPTAGN
000289:    2223           30571                           XCH      RUPTAGN                               #  ACCORDINGLY.
000290:    2224           34516                           CAF      ONE
000291:    2225           30571                           XCH      RUPTAGN
000292:
000293:    2226           30037                 +4        XCH      TIME3
000294:    2227           10000                           CCS      A                                     #  T3 IS ALMOST ALWAYS -0 UNLESS AN
000295:    2230           34516                           CAF      ONE                                   #  INCREMENT OCCURRED IN WHICH CASE WE MUST
000296:    2231           60037                           AD       TIME3                                 #  ADD IT TO THE NEW T3.
000297:    2232           02272                           TC       XTRAINC
000298:
000299:
000300:    2233           42260        T3DSP              CS       ENDTASK
000301:    2234           30570                           XCH      LST2       +7
000302:    2235           30567                           XCH      LST2       +6
000303:    2236           30566                           XCH      LST2       +5                         #        ENTERING THE ENDTASK AT BOTTOM.
000304:    2237           30565                           XCH      LST2       +4
000305:    2240           30564                           XCH      LST2       +3
000306:    2241           30563                           XCH      LST2       +2
000307:    2242           30562                           XCH      LST2       +1
000308:    2243           30561                           XCH      LST2                                  #  9.  PICK UP TOP TASK ON LIST
000309:
000310:    2244           50015                           TS       BANKREG                               #  SWITCH BANKS IF NECESSARY
000311:    2245           50577                           TS       ITEMP1
000312:    2246           72665                           MASK     70K
000313:    2247           10000                           CCS      A
000314:    2250           02252                           TC       +2                                    #  IF +
000315:    2251           00577                           TC       ITEMP1
000316:    2252           30577                           XCH      ITEMP1
000317:    2253           74606                           MASK     LOW10
000318:    2254           20000                           INDEX    A
000319:    2255           06000                           TC       6000
000320:
000321:
000322:
000323:                                                                                                  #  RETURN, AFTER EXECUTION OF TIME3 OVERFLOW TASK.
000324:
000325:    2256           10571        TASKOVER           CCS      RUPTAGN                               #  IF +1 RETURN TO T3RUPT, IF -0 RESUME.
000326:    2257           02203                           TC       T3RUPT2                               #  DISPATCH NEXT TASK IF IT WAS DUE.
000327:
000328:    2260           67774        ENDTASK           -CADR     SVCT3
000329:    2261           76000        BANKMASK           OCT      76000
000330:
000331:    2262           30031        OVRESUME           XCH      OVRUPT                                #  OVCTR RESTORE AND BANKREG RESTORE.
000332:    2263           50034                           TS       OVCTR
000333:
000334:    2264           30030        RESUME             XCH      BANKRUPT                              #  STANDARD BANK-SWITCH RESUME.
000335:    2265           50015                           TS       BANKREG
000336:
000337:    2266           30027        NBRESUME           XCH      QRUPT                                 #  NO-BANK-SWITCH RESUME.
000338:    2267           50001                           TS       Q
000339:    2270           30026                           XCH      ARUPT
000340:    2271           20025                           RESUME
000341:
000342:                                                                                                  #        FINISH UP RARE EVENT OF EXTRA INCREMENT TO T3.
000343:
000344:    2272           50037        XTRAINC            TS       TIME3
000345:    2273           02233                           TC       T3DSP                                 #  USUAL CASE.
000346:    2274           50571                           TS       RUPTAGN                               #  EVEN MORE RARE - THE NEXT TASK IS DUE
000347:    2275           02233                           TC       T3DSP                                 #  THIS T3RUPT.
000348:
000349:

End of include-file WAITLIST.agc.  Parent file is MAIN.agc


