
Source Code


000002:                                                                                                  ## Copyright:   Public domain.
000003:                                                                                                  ## Filename:    AGS_INITIALIZATION.agc
000004:                                                                                                  ## Purpose:     A section of a reconstructed, mixed version of Sundance
000005:                                                                                                  ##              It is part of the reconstructed source code for the Lunar
000006:                                                                                                  ##              Module's (LM) Apollo Guidance Computer (AGC) for Apollo 9.
000007:                                                                                                  ##              No original listings of this program are available;
000008:                                                                                                  ##              instead, this file was created via disassembly of dumps
000009:                                                                                                  ##              of various revisions of Sundance core rope modules.
000010:                                                                                                  ## Assembler:   yaYUL
000011:                                                                                                  ## Contact:     Ron Burkey <info@sandroid.org>.
000012:                                                                                                  ## Website:     www.ibiblio.org/apollo/index.html
000013:                                                                                                  ## Mod history: 2020-06-17 MAS  Created from Luminary 69.
000014:
000015:                                                                                                  ## Sundance 306
000016:
000017:                                                                                                  #  PROGRAM NAME:   AGS INITIALIZATION (R47)
000018:
000019:                                                                                                  #  WRITTEN BY  :   RHODE/KILROY/FOLLETT
000020:
000021:                                                                                                  #  MOD NO. :       0
000022:                                                                                                  #  DATE    :       23 MARCH 1967
000023:                                                                                                  #  MOD BY  :       KILROY
000024:
000025:                                                                                                  #  MOD NO. :       1
000026:                                                                                                  #  DATE    :       28 OCTOBER 1967
000027:                                                                                                  #  MOD BY  :       FOLLETT
000028:
000029:                                                                                                  #  FUNCT. DESC.:   (1) TO PROVIDE THE AGS ABORT ELECTRONICS ASSEMBLY(AEA) WITH THE LEM AND CSM STATE VECTORS
000030:                                                                                                  #                  (POSITION,VELOCITY,TIME) IN LEM IMU COORDINATES BY MEANS OF THE LGC DIGITAL DOWNLINK.
000031:
000032:                                                                                                  #                  (2) TO ZERO THE ICDU, LGC AND AEA GIMBAL ANGLE COUNTERS SIMULTANEOUSLY IN ORDER TO ESTABLISH A
000033:                                                                                                  #                  COMMON ZERO REFERENCE FOR THE MEASUREMENT OF GIMBAL(EULER) ANGLES WHICH DEFINE LEM ATTITUDE
000034:                                                                                                  #                  (3) TO ESTABLISH THE GROUND ELAPSED TIME OF AEA CLOCK ZERO.(IF AN AEA CLOCK ZERO IS
000035:                                                                                                  #                  REQUESTED DURING THIS PROGRAM
000036:
000037:                                                                                                  #  LOG SECTION :   AGS INITIALIZATION
000038:
000039:                                                                                                  #  CALLING SEQ :   PROGRAM IS ENTERED WHEN ASTRONAUT KEYS V47E ON DSKY.
000040:                                                                                                  #                  R47 MAY BE CALLED AT ANY TIME EXCEPT WHEN ANOTHER EXTENDED VERB IS IN PROGRESS
000041:
000042:                                                                                                  #  SUBROUTINES
000043:                                                                                                  #  CALLED      :
000044:
000045:                                                                                                  #  NORMAL EXIT :   ENDEXT
000046:
000047:                                                                                                  #  ALARM/ABORT :   ALARM - BAD REFSMMAT - CODE:220
000048:                                                                                                  #                  OPERATOR ERROR IF V47 SELECTED DURING ANOTHER EXTENDED VERB.
000049:
000050:                                                                                                  #  ERASABLES
000051:                                                                                                  #  USED        :   SAMPTIME    (2) TIME OF :ENTER: KEYSTROKE
000052:                                                                                                  #                  AGSK        (2) GROUND ELAPSED TIME OF THE AEA CLOCK :ZERO:
000053:                                                                                                  #                  AGSBUFF   (140) CONTAINS AGS INITIALIZATION DATA (SEE :OUTPUT: BELOW)
000054:                                                                                                  #                  AGSWORD     (1) PREVIOUS DOWNLIST SAVED HERE
000055:
000056: 05,2264  E4,1606                                  EBANK=   AGSBUFF
000057:
000058: 40,2000                                           BANK     40
000059: 40,2000                                           SETLOC   R47
000060: 40,2000                                           BANK
000061:
000062: 40,2000                                           COUNT*   $$/R47
000063:
000064: 40,2000           35012        AGSINIT            CAF      REFSMBIT
000065: 40,2001           70077                           MASK     FLAGWRD3                              #  CHECK REFSMFLG.
000066: 40,2002           10000                           CCS      A
000067:
000068: 40,2003           02012                           TC       REDSPTEM                              #  REFSMMAT IS OK
000069: 40,2004           05646                           TC       ALARM                                 #  REFSMMAT IS BAD
000070: 40,2005           00220                           OCT      220
000071: 40,2006           05561                           TC       ENDEXT
000072:
000073: 40,2007           00006        NEWAGS             EXTEND
000074: 40,2010           30014                           DCA      SAMPTIME                              #  TIME OF THE :ENTER: KEYSTROKE
000075: 40,2011           53417                           DXCH     AGSK                                  #  BECOMES NEW AEA CLOCK :ZERO:
000076:
000077: 40,2012           00006        REDSPTEM           EXTEND
000078: 40,2013           31417                           DCA      AGSK
000079: 40,2014           53053                           DXCH     DSPTEMX
000080: 40,2015           32165        AGSDISPK           CAF      V06N16
000081: 40,2016           04655                           TC       BANKCALL                              #  R1 = 00XXX. HRS., R2 = 000XX MIN.,
000082: 40,2017           20226                           CADR     GOMARKF                               #  R3 = 0XX.XX SEC.
000083: 40,2020           05561                           TC       ENDEXT                                #  TERMINATE RETURN
000084: 40,2021           02031                           TC       AGSVCALC                              #  PROCEED   RETURN
000085: 40,2022           45021                           CS       BIT6                                  #  IS ENTER VIA A V32
000086: 40,2023           60154                           AD       MPAC
000087: 40,2024           00006                           EXTEND
000088: 40,2025           12007                           BZF      NEWAGS                                #  YES, USE KEYSTROKE TIME FOR NEW AGSK
000089:
000090: 40,2026           00006                           EXTEND                                         #  NO, NEW AGSK LOADED VIA V25
000091: 40,2027           31053                           DCA      DSPTEMX                               #  LOADED INTO DSPTEMX BY KEYING
000092: 40,2030           02011                           TC       REDSPTEM   -1                         #  V25E FOLLOWED BY HRS.,MINS.,SECS.
000093:                                                                                                  #  DISPLAY THE NEW K
000094:
000095: 40,2031           06014        AGSVCALC           TC       INTPRET
000096: 40,2032           77614                           SET
000097: 40,2033           01076                                    NODOFLAG                              #  DONT ALLOW V37
000098: 40,2034           77414                           SET      EXIT
000099: 40,2035           02076                                    XDSPFLAG
000100:
000101: 40,2036           32165                           CAF      V06N16
000102: 40,2037           04655                           TC       BANKCALL
000103: 40,2040           20527                           CADR     EXDSPRET
000104:
000105: 40,2041           06014                           TC       INTPRET                               #  EXTRAPOLATE LEM AND CSM STATE VECTORS
000106: 40,2042           77634                           RTB                                            #  TO THE PRESENT TIME
000107: 40,2043           21454                                    LOADTIME                              #  LOAD MPAC WITH TIME2,TIME1
000108: 40,2044           34041                           STCALL   TDEC1                                 #  CALCULATE LEM STATE VECTOR
000109: 40,2045           27030                                    LEMPREC
000110: 40,2046           77624                           CALL                                           #  CALL ROUTINE TO CONVERT TO SM COORDS AND
000111: 40,2047           60125                                    SCALEVEC                              #  PROVIDE PROPER SCALING
000112: 40,2050           16207                           STODL    AGSBUFF                               #  (LEMPREC AND CSMPREC LEAVE TDEC1 IN TAT)
000113: 40,2051           00015                                    TAT                                   #  TAT = TIME TO WHICH RATT1 AND VATT1 ARE
000114: 40,2052           34041                           STCALL   TDEC1                                 #  COMPUTED(CSEC SINCE CLOCK START B-28).
000115: 40,2053           27014                                    CSMPREC                               #  CALCULATE CSM STATE VECTOR FOR SAME TIME
000116: 40,2054           77624                           CALL
000117: 40,2055           60125                                    SCALEVEC
000118:
000119: 40,2056           16215                           STODL    AGSBUFF    +6
000120: 40,2057           00015                                    TAT
000121: 40,2060           56225                           DSU      DDV                                   #  CALCULATE AND STORE THE TIME
000122: 40,2061           02017                                    AGSK
000123: 40,2062           20170                                    TSCALE
000124: 40,2063           02223                           STORE    AGSBUFF    +12D
000125: 40,2064           77776                           EXIT
000126:
000127: 40,2065           35026                           CAF      LAGSLIST
000128: 40,2066           54332                           TS       DNLSTCOD
000129:
000130: 40,2067           32171                           CAF      20SEC                                 #  DELAY FOR 20 SEC WHILE THE AGS
000131: 40,2070           04655                           TC       BANKCALL                              #  DOWNLIST IS TRANSMITTED
000132: 40,2071           01730                           CADR     DELAYJOB
000133:
000134: 40,2072           31330                           CA       AGSWORD
000135: 40,2073           54332                           TS       DNLSTCOD                              #  RETURN TO THE OLD DOWNLIST
000136: 40,2074           35017                           CAF      IMUSEBIT
000137: 40,2075           70074                           MASK     FLAGWRD0                              #  CHECK IMUSE FLAG.
000138: 40,2076           10000                           CCS      A
000139: 40,2077           02115                           TC       AGSEND                                #  IMU IS BEING USED - DO NOT ZERO
000140: 40,2100           11306        CKSTALL            CCS      IMUCADR                               #  CHECK FOR IMU USAGE WHICH AVOIDS THE
000141: 40,2101           12104                           TCF      +3                                    #  IMUSE BIT:  I.E., IMU COMPENSATION.
000142: 40,2102           12110                           TCF      +6                                    #  FREE.  GO AHEAD WITH THE IMU ZERO.
000143: 40,2103           12104                           TCF      +1
000144: 40,2104           34375                 +3        CAF      TEN                                   #  WAIT .1 SEC AND TRY AGAIN.
000145: 40,2105           04655                           TC       BANKCALL
000146: 40,2106           01730                           CADR     DELAYJOB
000147: 40,2107           12100                           TCF      CKSTALL
000148:
000149: 40,2110           04655                 +6        TC       BANKCALL                              #  IMU IS NOT IN USE
000150: 40,2111           16622                           CADR     IMUZERO                               #  SET IMU ZERO DISCRETE FOR 320MSECS
000151: 40,2112           04655                           TC       BANKCALL                              #  WAIT 3 SEC FOR COUNTERS TO INCREMENT
000152: 40,2113           17625                           CADR     IMUSTALL
000153: 40,2114           02115                           TC       AGSEND
000154: 40,2115           05575        AGSEND             TC       DOWNFLAG                              #  ALLOW V37
000155: 40,2116           00054                           ADRES    NODOFLAG
000156:
000157: 40,2117           32166                           CAF      V50N16
000158: 40,2120           04655                           TC       BANKCALL
000159: 40,2121           20234                           CADR     GOMARK3
000160: 40,2122           15561                           TCF      ENDEXT
000161: 40,2123           15561                           TCF      ENDEXT
000162: 40,2124           05561                           TC       ENDEXT
000163:
000164: 40,2125           64375        SCALEVEC           VLOAD    MXV
000165: 40,2126           00025                                    VATT1
000166: 40,2127           01736                                    REFSMMAT
000167: 40,2130           72561                           VXSC     VSL2
000168: 40,2131           20175                                    VSCALE
000169:
000170: 40,2132           53255                           VAD      VAD                                   #  THIS SECTION ROUNDS THE VECTOR, AND
000171: 40,2133           20177                                    AGSRND1                               #  CORRECTS FOR THE FACT THAT THE AGS
000172: 40,2134           20205                                    AGSRND2                               #  IS A 2 S COMPLIMENT MACHINE WHILE THE
000173: 40,2135           77634                           RTB                                            #  LGC IS A 1 S COMPLIMENT MACHINE.
000174: 40,2136           21736                                    VECSGNAG
000175: 40,2137           24025                           STOVL    VATT1
000176: 40,2140           00017                                    RATT1
000177: 40,2141           74321                           MXV      VXSC
000178: 40,2142           01736                                    REFSMMAT
000179: 40,2143           20173                                    RSCALE
000180: 40,2144           53212                           VSL8     VAD                                   #  AGAIN THIS SECTION ROUNDS.  TWO VECTORS
000181: 40,2145           20177                                    AGSRND1                               #  ARE ADDED TO DEFEAT ALSIGNAG IN THE
000182: 40,2146           47055                           VAD      RTB                                   #  CASE OF A HIGH-ORDER ZERO COUPLED WITH
000183: 40,2147           20205                                    AGSRND2                               #  A LOW ORDER NEGATIVE PART.
000184: 40,2150           21736                                    VECSGNAG
000185: 40,2151           77750                           LXA,1
000186: 40,2152           00024                                    VATT1
000187: 40,2153           72130                           SXA,1    LXA,1
000188: 40,2154           00155                                    MPAC       +1
000189: 40,2155           00026                                    VATT1      +2
000190: 40,2156           72130                           SXA,1    LXA,1
000191: 40,2157           00160                                    MPAC       +4
000192: 40,2160           00030                                    VATT1      +4
000193: 40,2161           43530                           SXA,1    RVQ
000194: 40,2162           00162                                    MPAC       +6
000195:
000196: 40,2163     5026               LAGSLIST           =        ONE
000197: 40,2163           00216        V01N14             VN       0114
000198: 40,2164           14400        V50N00A            VN       5000
000199: 40,2165     4113               V00N25             EQUALS   OCT31
000200: 40,2165           01420        V06N16             VN       0616
000201: 40,2166     4254               V00N34             EQUALS   34DEC
000202: 40,2166           14420        V50N16             VN       5016
000203: 40,2167           03100 00000  TSCALE             2DEC     100        B-10                       #  CSEC TO SEC SCALE FACTOR
000204: 40,2171           03720        20SEC              DEC      2000       B-14
000205: 40,2172           15077 04530  RSCALE             2DEC     3.280833   B-3                        #  METERS TO FEET SCALE FACTOR
000206: 40,2174           24402 25231  VSCALE             2DEC     3.280833   E2         B-9             #  METERS/CS TO FEET/SEC SCALE FACTOR
000207: 40,2176           00000 60000  AGSRND1            2OCT     0000060000
000208: 40,2200           00000 60000                     2OCT     0000060000
000209: 40,2202           00000 60000                     2OCT     0000060000
000210: 40,2204           00000 37777  AGSRND2            2OCT     0000037777
000211: 40,2206           00000 37777                     2OCT     0000037777
000212:
000213: 40,2210           00000 37777                     2OCT     0000037777
000214:
000215: 40,2212  30,2000                                  SBANK=   LOWSUPER                              #  FOR SUBSEQUENT LOW 2CADRS.

End of include-file AGS_INITIALIZATION.agc.  Parent file is MAIN.agc


