
Source Code


000002:                                                                                                  ## Copyright:   Public domain.
000003:                                                                                                  ## Filename:    ALARM_AND_ABORT.agc
000004:                                                                                                  ## Purpose:     A section of a reconstructed, mixed version of Sundance
000005:                                                                                                  ##              It is part of the reconstructed source code for the Lunar
000006:                                                                                                  ##              Module's (LM) Apollo Guidance Computer (AGC) for Apollo 9.
000007:                                                                                                  ##              No original listings of this program are available;
000008:                                                                                                  ##              instead, this file was created via disassembly of dumps
000009:                                                                                                  ##              of various revisions of Sundance core rope modules.
000010:                                                                                                  ## Assembler:   yaYUL
000011:                                                                                                  ## Contact:     Ron Burkey <info@sandroid.org>.
000012:                                                                                                  ## Website:     www.ibiblio.org/apollo/index.html
000013:                                                                                                  ## Mod history: 2020-06-17 MAS  Created from Luminary 69.
000014:
000015:                                                                                                  ## Sundance 292
000016:
000017:                                                                                                  #           THE FOLLOWING SUBROUTINE MAY BE CALLED TO DISPLAY A NON-ABORTIVE ALARM CONDITION. IT MAY BE CALLED
000018:                                                                                                  #  EITHER IN INTERRUPT OR UNDER EXECUTIVE CONTROL.
000019:
000020:                                                                                                  #  CALLING SEQUENCE IS AS FOLLOWS:
000021:                                                                                                  #                TC      ALARM
000022:                                                                                                  #                OCT     AAANN           ALARM NO. NN IN GENERAL AREA AAA.
000023:                                                                                                  #                                        (RETURNS HERE)
000024:
000025:    5646                                           BLOCK    02
000026:    4000                                           SETLOC   FFTAG7
000027:    4000                                           BANK
000028:
000029:    5646     0375                                  EBANK=   FAILREG
000030:
000031:    5646                                           COUNT*   $$/ALARM
000032:                                                                                                  #  ALARM TURNS ON THE PROGRAM ALARM LIGHT, BUT DOES NOT DISPLAY.
000033:
000034:    5646           00004        ALARM              INHINT
000035:
000036:    5647           30002                           CA       Q
000037:    5650           55363                           TS       ALMCADR
000038:    5651           50002        ALARM2             INDEX    Q
000039:    5652           30000                           CA       0
000040:    5653           54001        BORTENT            TS       L
000041:
000042:    5654           30006        PRIOENT            CA       BBANK
000043:    5655           00006                 +1        EXTEND
000044:    5656           04007                           ROR      SUPERBNK                              #  ADD SUPER BITS.
000045:    5657           55364                           TS       ALMCADR    +1
000046:
000047:    5660           30002        LARMENT            CA       Q                                     #  STORE RETURN FOR ALARM
000048:    5661           54061                           TS       ITEMP1
000049:
000050:    5662           10375        CHKFAIL1           CCS      FAILREG                               #  IS ANYTHING IN FAILREG
000051:    5663           15666                           TCF      CHKFAIL2                              #  YES TRY NEXT REG
000052:    5664           22375                           LXCH     FAILREG
000053:    5665           15700                           TCF      PROGLARM                              #  TURN ALARM LIGHT ON FOR FIRST ALARM
000054:
000055:    5666           10376        CHKFAIL2           CCS      FAILREG    +1
000056:    5667           15672                           TCF      FAIL3
000057:    5670           22376                           LXCH     FAILREG    +1
000058:    5671           15703                           TCF      MULTEXIT
000059:
000060:    5672           30377        FAIL3              CA       FAILREG    +2
000061:    5673           75006                           MASK     POSMAX
000062:    5674           10000                           CCS      A
000063:    5675           15707                           TCF      MULTFAIL
000064:    5676           22377                           LXCH     FAILREG    +2
000065:    5677           15703                           TCF      MULTEXIT
000066:
000067:
000068:    5700           41037        PROGLARM           CS       DSPTAB     +11D
000069:    5701           75721                           MASK     OCT40400
000070:    5702           27037                           ADS      DSPTAB     +11D
000071:
000072:    5703           56061        MULTEXIT           XCH      ITEMP1                                #  OBTAIN RETURN ADDRESS IN A
000073:    5704           00003                           RELINT
000074:    5705           50000                           INDEX    A
000075:    5706           00001                           TC       1
000076:
000077:    5707           30001        MULTFAIL           CA       L
000078:    5710           65010                           AD       BIT15
000079:    5711           54377                           TS       FAILREG    +2
000080:
000081:    5712           15703                           TCF      MULTEXIT
000082:


000084:
000085:                                                                                                  #  PRIOLARM DISPLAYS V05N09 VIA PRIODSPR WITH 3 RETURNS TO THE USER FROM THE ASTRONAUT AT CALL LOC +1,+2,+3 AND
000086:                                                                                                  #  AN IMMEDIATE RETURN TO THE USER AT CALL LOC +4.  EXAMPLE FOLLOWS,
000087:                                                                                                  #                CAF     OCTXX           ALARM CODE
000088:                                                                                                  #                TC      BANKCALL
000089:                                                                                                  #                CADR    PRIOLARM
000090:
000091:                                                                                                  #                ...     ...
000092:                                                                                                  #                ...     ...
000093:                                                                                                  #                ...     ...             ASTRONAUT RETURN
000094:                                                                                                  #                TC      PHASCHNG        IMMEDIATE RETURN TO USER.  RESTART
000095:                                                                                                  #                OCT     X.1             PHASE CHANGE FOR PRIO DISPLAY
000096:
000097: 10,3443                                           BANK     10
000098: 10,2000                                           SETLOC   DISPLAYS
000099: 10,2000                                           BANK
000100:
000101: 10,3443                                           COUNT*   $$/DSPLA
000102: 10,3443           00004        PRIOLARM           INHINT                                         #  * * * KEEP IN DISPLAY ROUTINES BANK
000103: 10,3444           54001                           TS       L                                     #  SAVE ALARM CODE
000104:
000105: 10,3445           30133                           CA       BUF2                                  #  2 CADR OF PRIOLARM USER
000106: 10,3446           55363                           TS       ALMCADR
000107: 10,3447           30134                           CA       BUF2       +1
000108: 10,3450           05655                           TC       PRIOENT    +1                         #  * LEAVE L ALONE
000109: 10,3451           77013        -5SEC              DEC      -500       B-14                       #  *** DONT MOVE
000110: 10,3452           35056                           CAF      V05N09
000111: 10,3453           12414                           TCF      PRIODSPR
000112:


000114:
000115:    5713                                           BLOCK    02
000116:    4000                                           SETLOC   FFTAG7
000117:    4000                                           BANK
000118:
000119:    5713                                           COUNT*   $$/ALARM
000120:    5713           00004        ABORT              INHINT
000121:    5714           30002                           CA       Q
000122:    5715           55363                           TS       ALMCADR
000123:
000124:    5716           50002        ABORT2             INDEX    Q
000125:    5717           30000                           CAF      0
000126:    5720           05653                           TC       BORTENT
000127:    5721           40400        OCT40400           OCT      40400
000128:    5722           05722        WHIMPER            TC       WHIMPER
000129:
000130:    5723           00004        CCSHOLE            INHINT
000131:    5724           30002                           CA       Q
000132:    5725           55363                           TS       ALMCADR
000133:
000134:    5726           05716                           TC       ABORT2
000135:    5727           01103                           OCT      1103
000136:
000137:    5730           00004        CURTAINS           INHINT
000138:    5731           30002                           CA       Q
000139:    5732           55363                           TS       ALMCADR
000140:    5733           05651                           TC       ALARM2
000141:    5734           00217        OCT217             OCT      00217
000142:    5735           01363                           TC       ALMCADR                               #  RETURN TO USER
000143:
000144:                                                                                                  #  CALLING SEQUENCE FOR VARALARM
000145:                                                                                                  #                CAF     (ALARM)
000146:                                                                                                  #                TC      VARALARM
000147:
000148:                                                                                                  #  VARALARM TURNS ON PROGRAM ALARM LIGHT BUT DOES NOT DISPLAY
000149:
000150:    5736           00004        VARALARM           INHINT
000151:
000152:    5737           54001                           TS       L                                     #  SAVE USERS ALARM CODE
000153:
000154:    5740           30002                           CA       Q                                     #  SAVE USERS Q
000155:    5741           55363                           TS       ALMCADR
000156:
000157:    5742           05654                           TC       PRIOENT
000158:    5743           00014        OCT14              OCT      14                                    #  DONT MOVE
000159:
000160:    5744           01363                           TC       ALMCADR                               #  RETURN TO USER

End of include-file ALARM_AND_ABORT.agc.  Parent file is MAIN.agc


