
Source Code


000002:                                                                                                  ## Copyright:   Public domain.
000003:                                                                                                  ## Filename:    ATTITUDE_MANEUVER_ROUTINE.agc
000004:                                                                                                  ## Purpose:     A section of a reconstructed, mixed version of Sundance
000005:                                                                                                  ##              It is part of the reconstructed source code for the Lunar
000006:                                                                                                  ##              Module's (LM) Apollo Guidance Computer (AGC) for Apollo 9.
000007:                                                                                                  ##              No original listings of this program are available;
000008:                                                                                                  ##              instead, this file was created via disassembly of dumps
000009:                                                                                                  ##              of various revisions of Sundance core rope modules.
000010:                                                                                                  ## Assembler:   yaYUL
000011:                                                                                                  ## Contact:     Ron Burkey <info@sandroid.org>.
000012:                                                                                                  ## Website:     www.ibiblio.org/apollo/index.html
000013:                                                                                                  ## Mod history: 2020-06-17 MAS  Created from Luminary 69.
000014:
000015:                                                                                                  ## Sundance 302
000016:
000017:                                                                                                  #  BLOCK 2 LGC ATTITUDE MANEUVER ROUTINE-KALCMANU
000018:
000019:
000020:                                                                                                  #  MOD 2           DATE  5/1/67    BY DON KEENE
000021:                                                                                                  #  PROGRAM DESCRIPTION
000022:
000023:                                                                                                  #       KALCMANU IS A ROUTINE WHICH GENERATES COMMANDS FOR THE LM DAP TO CHANGE THE ATTITUDE OF THE SPACECRAFT
000024:                                                                                                  #  DURING FREE FALL.  IT IS DESIGNED TO MANEUVER THE SPACECRAFT FROM ITS INITIAL ORIENTATION TO SOME DESIRED
000025:                                                                                                  #  ORIENTATION SPECIFIED BY THE PROGRAM WHICH CALLS KALCMANU, AVOIDING GIMBAL LOCK IN THE PROCESS.  IN THE
000026:                                                                                                  #  MOD 2 VERSION, THIS DESIRED ATTITUDE IS SPECIFIED BY A SET OF THREE COMMANDED CDU ANGLES STORED AS 2S COMPLEMENT
000027:                                                                                                  #  SINGLE PRECISION ANGLES IN THE THREE CONSECUTIVE LOCATIONS, CPHI, CTHETA, CPSI, WHERE
000028:
000029:                                                                                                  #       CPHI = COMMANDED OUTER GIMBAL ANGLE
000030:                                                                                                  #       CTHETA = COMMANDED INNER GIMBAL ANGLE
000031:                                                                                                  #       CPSI = COMMANDED MIDDLE GIMBAL ANGLE
000032:
000033:                                                                                                  #      WHEN POINTING A SPACECRAFT AXIS (E.I. X, Y, Z, THE AOT, THRUST AXIS, ETC) THE SUBROUTINE VECPOINT MAY BE
000034:                                                                                                  #  USED TO GENERATE THIS SET OF DESIRED CDU ANGLES (SEE DESCRIPTION IN R60)   -
000035:                                                                                                  #   WITH THIS INFORMATION KALCMANU DETERMINES THE DIRECTION OF THE SINGLE EQUIVALENT ROTATION (COF ALSO U) AND THE
000036:                                                                                                  #  MAGNITUDE OF THE ROTATION (AM) TO BRING THE S/C FROM ITS INITIAL ORIENTATION TO ITS FINAL ORIENTATION.
000037:                                                                                                  #  THIS DIRECTION REMAINS FIXED BOTH IN INERTIAL COORDINATES AND IN COMMANDED S/C AXES THROUGHOUT THE
000038:                                                                                                  #                   -
000039:                                                                                                  #  MANEUVER.  ONCE COF AND AM HAVE BEEN DETERMINED, KALCMANU THEN EXAMINES THE MANEUVER TO SEE IF IT WILL BRING
000040:                                                                                                  #                                        -
000041:                                                                                                  #  THE S/C THROUGH GIMBAL LOCK.  IF SO, COF AND AM ARE READJUSTED SO THAT THE S/C WILL JUST SKIM THE GIMBAL
000042:                                                                                                  #  LOCK ZONE AND ALIGN THE X-AXIS.  IN GENERAL A FINAL YAW  ABOUT X WILL BE NECESSARY TO COMPLETE THE MANEUVER.
000043:                                                                                                  #  NEEDLESS TO SAY, NEITHER THE INITIAL NOR THE FINAL ORIENTATION CAN BE IN GIMBAL LOCK.
000044:
000045:                                                                                                  #       FOR PROPER ATTITUDE CONTROL THE DIGITAL AUTOPILOT MUST BE GIVEN AN ATTITUDE REFERENCE WHICH IT CAN TRACK.
000046:                                                                                                  #  KALCMANU DOES THIS BY GENERATING A REFERENCE OF DESIRED GIMBAL ANGLES (CDUXD, CDUYD, CDUZD) WHICH ARE UPDATED
000047:                                                                                                  #  EVERY ONE SECOND DURING THE MANEUVER.  TO ACHIEVE A SMOOTHER SEQUENCE OF COMMANDS BETWEEN SUCCESSIVE UPDATES,
000048:                                                                                                  #  THE PROGRAM ALSO GENERATES A SET OF INCREMENTAL CDU ANGLES (DELDCDU) TO BE ADDED TO CDU DESIRED BY THE DIGITAL
000049:                                                                                                  #  AUTOPILOT.  KALCMANU ALSO CALCULATES THE COMPONENT MANEUVER RATES (OMEGAPD, OMEGAQD, OMEGARD), WHICH CAN
000050:                                                                                                  #                                       -
000051:                                                                                                  #  BE DETERMINED SIMPLY BY MULTIPLYING COF BY SOME SCALAR (ARATE) CORRESPONDING TO THE DESIRED ROTATIONAL RATE.
000052:
000053:                                                                                                  #       AUTOMATIC MANEUVERS ARE TIMED WITH THE HELP OF WAITLIST SO THAT AFTER A SPECIFIED INTERVAL THE Y AND Z
000054:                                                                                                  #  DESIRED RATES ARE SET TO ZERO AND THE DESIRED CDU ANGLES (CDUYD, CDUZD) ARE SET EQUAL TO THE FINAL DESIRED CDU
000055:                                                                                                  #  ANGLES (CTHETA, CPSI).  IF ANY YAW  REMAINS DUE TO GIMBAL LOCK AVOIDANCE, THE FINAL YAW  MANEUVER IS
000056:                                                                                                  #  CALCULATED AND THE DESIRED YAW  RATE SET TO SOME FIXED VALUE (ROLLRATE = + OR - 2 DEGREES PER SEC).
000057:                                                                                                  #  IN THIS CASE ONLY AN INCREMENTAL CDUX ANGLE (DELFROLL) IS SUPPLIED TO THE DAP.  AT THE END OF THE YAW
000058:                                                                                                  #  MANEUVER OR IN THE EVENT THAT THERE WAS NO FINAL YAW,  CDUXD IS SET EQUAL TO CPHI AND THE X-AXIS DESIRED
000059:                                                                                                  #  RATE SET TO ZERO.  THUS, UPON COMPLETION OF THE MANEUVER THE S/C WILL FINISH UP IN A LIMIT CYCLE ABOUT THE
000060:                                                                                                  #  DESIRED FINAL GIMBAL ANGLES.
000061:
000062:
000063:                                                                                                  #  PROGRAM LOGIC FLOW
000064:
000065:                                                                                                  #       KALCMANU IS CALLED AS A HIGH PRIORITY JOB WITH ENTRY POINTS AT KALCMAN3 AND VECPOINT.  IT FIRST PICKS
000066:                                                                                                  #  UP THE CURRENT CDU ANGLES TO BE USED AS THE BASIS FOR ALL COMPUTATIONS INVOLVING THE INITIAL S/C ORIENTATION.
000067:                                                                                                  #  IT THEN DETERMINES THE DIRECTION COSINE MATRICES RELATING BOTH THE INITIAL AND FINAL S/C ORIENTATION TO STABLE
000068:                                                                                                  #                *    *                                                                               *
000069:                                                                                                  #  MEMBER AXES (MIS, MFS).  IT ALSO COMPUTES THE MATRIX RELATING FINAL S/C AXES TO INITIAL S/C AXES (MFI).  THE
000070:                                                                                                  #  ANGLE OF ROTATION (AM) IS THEN EXTRACTED FROM THIS MATRIX, AND TESTS ARE MADE TO DETERMINE IF
000071:
000072:                                                                                                  #       A)  AM LESS THAN .25 DEGREES (MINANG)
000073:                                                                                                  #       B)  AM GREATER THAN 170 DEGREES (MAXANG)
000074:
000075:                                                                                                  #       IF AM LESS THAN .25 DEGREES, NO COMPLICATED AUTOMATIC MANEUVERING IS NECESSARY.  THEREFORE WE CAN SIMPLY
000076:                                                                                                  #  SET CDU DESIRED EQUAL TO THE FINAL CDU DESIRED ANGLES AND TERMINATE THE JOB.
000077:
000078:                                                                                                  #       IF AM IS GREATER THAN .25 DEGREES BUT LESS THAN 170 DEGREES, THE AXES OF THE SINGLE EQUIVALENT ROTATION
000079:                                                                                                  #    -                                                       *
000080:                                                                                                  #  (COF) IS EXTRACTED FROM THE SKEW SYMMETRIC COMPONENTS OF MFI.                            *     *
000081:                                                                                                  #       IF AM GREATER THAN 170 DEGREES AN ALTERNATE METHOD EMPLOYING THE SYMMETRIC PART OF MFI (MFISYM) IS USED
000082:                                                                                                  #                -
000083:                                                                                                  #  TO DETERMINE COF.
000084:
000085:                                                                                                  #       THE PROGRAM THEN CHECKS TO SEE IF THE MANEUVER AS COMPUTED WILL BRING THE S/C THROUGH GIMBAL LOCK.  IF
000086:                                                                                                  #  SO, A NEW MANEUVER IS CALCULATED WHICH WILL JUST SKIM THE GIMBAL LOCK ZONE AND ALIGN THE S/C X-AXIS.  THIS
000087:                                                                                                  #  METHOD ASSURES THAT THE ADDITIONAL MANEUVERING TO AVOID GIMBAL LOCK WILL BE KEPT TO A MINIMUM.  SINCE A FINAL
000088:                                                                                                  #  P AXIS YAW WILL BE NECESSARY, A SWITCH IS RESET (STATE SWITCH 31) TO ALLOW FOR THE COMPUTATION OF THIS FINAL
000089:                                                                                                  #  YAW.
000090:
000091:                                                                                                  #       AS STATED PREVIOUSLY KALCMANU GENERATES A SEQUENCE OF DESIRED GIMBAL ANGLES WHICH ARE UPDATED EVERY
000092:                                                                                                  #                                                                                               -
000093:                                                                                                  #  SECOND.  THIS IS ACCOMPLISHED BY A SMALL ROTATION OF THE DESIRED S/C FRAME ABOUT THE VECTOR COF.  THE NEW
000094:                                                                                                  #  DESIRED REFERENCE MATRIX IS THEN,
000095:
000096:                                                                                                  #                   *              *         *
000097:                                                                                                  #                  MIS       =    MIS       DEL
000098:                                                                                                  #                     N+1            N
000099:
000100:                                                                                                  #         *
000101:                                                                                                  #  WHERE DEL IS THE MATRIX CORRESPONDING TO THIS SMALL ROTATION.  THE NEW CDU ANGLES CAN THEN BE EXTRACTED
000102:                                                                                                  #        *
000103:                                                                                                  #  FROM MIS.
000104:
000105:                                                                                                  #       AT THE BEGINNING OF THE MANEUVER THE AUTOPILOT DESIRED RATES (OMEGAPD, OMEGAQD, OMEGARD) AND THE
000106:                                                                                                  #  MANEUVER TIMINGS ARE ESTABLISHED.  ON THE FIRST PASS AND ON ALL SUBSEQUENT UPDATES THE CDU DESIRED
000107:                                                                                                  #  ANGLES ARE LOADED WITH THE APPROPRIATE VALUES AND THE INCREMENTAL CDU ANGLES ARE COMPUTED.  THE AGC CLOCKS
000108:                                                                                                  #  (TIME1 AND TIME2) ARE THAN CHECKED TO SEE IF THE MANEUVER WILL TERMINATE BEFORE THE NEXT UPDATE.  IF
000109:                                                                                                  #  NOT, KALCMANU CALLS FOR ANOTHER UPDATE (RUN AS A JOB WITH PRIORITY TBD) IN ONE SECOND.  ANY DELAYS IN THIS
000110:                                                                                                  #  CALLING SEQUENCE ARE AUTOMATICALLY COMPENSATED IN CALLING FOR THE NEXT UPDATE.
000111:
000112:                                                                                                  #       IF IT IS FOUND THAT THE MANEUVER IS TO TERMINATE BEFORE THE NEXT UPDATE A ROUTINE IS CALLED (AS A WAIT-
000113:                                                                                                  #  LIST TASK) TO STOP THE MANEUVER AT THE APPROPRIATE TIME AS EXPLAINED ABOVE.
000114:
000115:                                                                                                  #  CALLING SEQUENCE
000116:
000117:                                                                                                  #       IN ORDER TO PERFORM A KALCMANU SUPERVISED MANEUVER, THE COMMANDED GIMBAL ANGLES MUST BE PRECOMPUTED AND
000118:                                                                                                  #  STORED IN LOCATIONS CPHI, CTHETA, CPSI.  THE USER:S PROGRAM MUST THEN CLEAR STATE SWITCH NO 33 TO ALLOW THE
000119:                                                                                                  #  ATTITUDE MANEUVER ROUTINE TO PERFORM ANY FINAL P-AXIS YAW INCURRED BY AVOIDING GIMBAL LOCK.  THE MANEUVER IS
000120:                                                                                                  #  THEN INITIATED BY ESTABLISHING THE FOLLOWING EXECUTIVE JOB
000121:
000122:                                                                                                  #                         *
000123:                                                                                                  #       CAF     PRIO    XX
000124:                                                                                                  #                       --
000125:                                                                                                  #       INHINT
000126:                                                                                                  #       TC         FINDVAC
000127:                                                                                                  #       2CADR      KALCMAN3
000128:                                                                                                  #       RELINT
000129:
000130:                                                                                                  #  THE USER:S PROGRAM MAY EITHER CONTINUE OR WAIT FOR THE TERMINATION OF THE MANEUVER.  IF THE USER WISHES TO
000131:                                                                                                  #  WAIT, HE MAY PUT HIS JOB TO SLEEP WITH THE FOLLOWING INSTRUCTIONS
000132:
000133:                                                                                                  #       L          TC        BANKCALL
000134:                                                                                                  #       L+1        CADR      ATTSTALL
000135:                                                                                                  #       L+2        (BAD      RETURN)
000136:                                                                                                  #       L+3        (GOOD     RETURN)
000137:
000138:                                                                                                  #       UPON COMPLETION OF THE MANEUVER, THE PROGRAM WILL BE AWAKENED AT L+3 IF THE MANEUVER WAS COMPLETED
000139:                                                                                                  #  SUCCESSFULLY, OR AT L+2 IF THE MANEUVER WAS ABORTED.  THIS ABORT WOULD OCCUR IF THE INITIAL OR FINAL ATTITUDE
000140:                                                                                                  #  WAS IN GIMBAL LOCK.
000141:
000142:                                                                                                  #  ***NOTA BENE***  IT IS ASSUMED THAT THE DESIRED MANEUVERING RATE (0.5, 2, 5, 10, DEG/SEC) HAS BEEN SELECTED BY
000143:                                                                                                  #  KEYBOARD ENTRY PRIOR TO THE EXECUTION OF KALCMANU.
000144:                                                                                                  #      IT IS ALSO ASSUMED THAT THE AUTOPILOT IS IN THE AUTO MODE.  IF THE MODE SWITCH IS CHANGED DURING THE
000145:                                                                                                  #  MANEUVER, KALCMANU WILL TERMINATE VIA GOODEND WITHIN 1 SECOND SO THAT R60 MAY REQUEST A TRIM OF THE S/C ATTITUDE
000146:                                                                                                  #  THIS IS THE ONLY MEANS FOR MANUALLY TERMINATING A KALCMANU SUPERVISED MANEUVER.
000147:                                                                                                  #  SUBROUTINES
000148:
000149:                                                                                                  #       KALCMANU USES A NUMBER OF INTERPRETIVE SUBROUTINES WHICH MAY BE OF GENERAL INTEREST.  SINCE THESE ROUTINES
000150:                                                                                                  #  WERE PROGRAMMED EXCLUSIVELY FOR KALCMANU, THEY ARE NOT, AS YET, GENERALLY AVAILABLE FOR USE BY OTHER PROGRAMS.
000151:
000152:                                                                                                  #       MXM3
000153:                                                                                                  #       ----
000154:
000155:                                                                                                  #       THIS SUBROUTINE MULTIPLIES TWO 3X3 MATRICES AND LEAVES THE RESULT IN THE FIRST 18 LOCATIONS OF THE PUSH
000156:                                                                                                  #  DOWN LIST, I.E.,
000157:
000158:                                                                                                  #                 (M    M    M )
000159:                                                                                                  #                 ( 0    1    2)
000160:                                                                                                  #        *        (            )       *         *
000161:                                                                                                  #        M    =   (M    M    M )  =    M1   X    M2
000162:                                                                                                  #                 ( 3    4    5)
000163:                                                                                                  #                 (            )
000164:                                                                                                  #                 (M    M    M )
000165:                                                                                                  #                 ( 6    7    8)
000166:
000167:                                                                                                  #                                                                                        *
000168:                                                                                                  #       INDEX REGISTER X1 MUST BE LOADED WITH THE COMPLEMENT OF THE STARTING ADDRESS FOR M1, AND X2 MUST BE
000169:                                                                                                  #                                                         *
000170:                                                                                                  #  LOADED WITH THE COMPLEMENT OF THE STARTING ADDRESS FOR M2.   THE ROUTINE USES THE FIRST 20 LOCATIONS OF THE PUSH
000171:                                                                                                  #  DOWN LIST.  THE FIRST ELEMENT OF THE MATRIX APPEARS IN PDO.  PUSH UP FOR M .
000172:                                                                                                  #                                                                            8
000173:
000174:                                                                                                  #       TRANSPOS
000175:                                                                                                  #       --------
000176:
000177:                                                                                                  #       THIS ROUTINE TRANSPOSES A 3X3 MATRIX AND LEAVES THE RESULT IN THE PUSH DOWN LIST, I.E.,
000178:                                                                                                  #
000179:                                                                                                  #        *         * T
000180:                                                                                                  #        M    =    M1
000181:
000182:                                                                                                  #  INDEX REGISTER X1 MUST CONTAIN THE COMPLEMENT OF THE STARTING ADDRESS FOR M1.  PUSH UP FOR THE FIRST AND SUB-
000183:                                                                                                  #                         *
000184:                                                                                                  #  SEQUENT COMPONENTS OF M.   THIS SUBROUTINE ALSO USES THE FIRST 20 LOCATIONS OF THE PUSH DOWN LIST.
000185:
000186:                                                                                                  #       CDU TO DCM
000187:                                                                                                  #       ----------
000188:
000189:                                                                                                  #       THIS SUBROUTINE CONVERTS THREE CDU ANGLES IN T(MPAC) TO A DIRECTION COSINE MATRIX (SCALED BY 2) RELATING
000190:                                                                                                  #  THE CORRESPONDING S/C ORIENTATIONS TO THE STABLE MEMBER FRAME.  THE FORMULAS FOR THIS CONVERSION ARE
000191:
000192:                                                                                                  #        M    =    COSY  COSZ
000193:                                                                                                  #         0
000194:
000195:                                                                                                  #        M    =    -COSY  SINZ  COSX  +  SINY  SINX
000196:                                                                                                  #         1
000197:
000198:                                                                                                  #        M    =    COSY  SINZ  SINX  +  SINY  COSX
000199:                                                                                                  #         2
000200:
000201:                                                                                                  #        M    =    SINZ
000202:                                                                                                  #         3
000203:
000204:                                                                                                  #        M    =    COSZ  COSX
000205:                                                                                                  #         4
000206:
000207:                                                                                                  #        M    =    -COSZ  SINX
000208:                                                                                                  #         5
000209:
000210:                                                                                                  #        M    =    -SINY  COSZ
000211:                                                                                                  #         6
000212:                                                                                                  #
000213:                                                                                                  #        M    =    SINY  SINZ  COSX  +  COSY  SINX
000214:                                                                                                  #         7
000215:                                                                                                  #        M    =    -SINY  SINZ  SINX  +  COSY  COSX
000216:                                                                                                  #         8
000217:
000218:                                                                                                  #  WHERE      X    =    OUTER GIMBAL ANGLE
000219:                                                                                                  #             Y    =    INNER GIMBAL ANGLE
000220:                                                                                                  #             Z    =    MIDDLE GIMBAL ANGLE
000221:
000222:                                                                                                  #       THE INTERPRETATION OF THIS MATRIX IS AS FOLLOWS
000223:
000224:                                                                                                  #       IF A , A , A  REPRESENT THE COMPONENTS OF A VECTOR IN S/C AXES THEN THE COMPONENTS OF THE SAME VECTOR IN
000225:                                                                                                  #           X   Y   Z
000226:                                                                                                  #  STABLE MEMBER AXES (B , B , B ) ARE
000227:                                                                                                  #                       X   Y   Z
000228:
000229:                                                                                                  #             (B )                (A )
000230:                                                                                                  #             ( X)                ( X)
000231:                                                                                                  #             (  )                (  )
000232:                                                                                                  #             (  )           *    (  )
000233:                                                                                                  #             (B )      =    M    (A )
000234:                                                                                                  #             ( Y)                ( Y)
000235:                                                                                                  #             (  )                (  )
000236:                                                                                                  #             (B )                (A )
000237:                                                                                                  #             ( Z)                ( Z)
000238:
000239:                                                                                                  #      THE SUBROUTINE WILL STORE THIS MATRIX IN SEQUENTIAL LOCATIONS OF ERASABLE MEMORY AS SPECIFIED BY THE CALLING
000240:                                                                                                  #                                                                                                              *
000241:                                                                                                  #  PROGRAM.  TO DO THIS THE CALLING PROGRAM MUST FIRST LOAD X2 WITH THE COMPLEMENT OF THE STARTING ADDRESS FOR M.
000242:
000243:                                                                                                  #       INTERNALLY, THE ROUTINE USES THE FIRST 16 LOCATIONS OF THE PUSH DOWN LIST, ALSO STEP REGISTER S1 AND INDEX
000244:                                                                                                  #  REGISTER X2.
000245:
000246:
000247:                                                                                                  #       DCM TO CDU
000248:                                                                                                  #       ----------
000249:                                                                                                  #                                                                            *
000250:                                                                                                  #       THIS ROUTINE EXTRACTS THE CDU ANGLES FROM A DIRECTION COSINE MATRIX (M SCALED BY 2) RELATING S/C AXIS TO
000251:                                                                                                  #                                                                                  *
000252:                                                                                                  #  STABLE MEMBER AXES.  X1 MUST CONTAIN THE COMPLEMENT OF THE STARTING ADDRESS FOR M.  THE SUBROUTINE LEAVES THE
000253:                                                                                                  #  CORRESPONDING GIMBAL ANGLES IN V(MPAC) AS DOUBLE PRECISION 1:S COMPLEMENT ANGLES SCALED BY 2PI.  THE FORMULAS
000254:                                                                                                  #  FOR THIS CONVERSION ARE
000255:
000256:                                                                                                  #        Z    =    ARCSIN (M )
000257:                                                                                                  #                           3
000258:
000259:                                                                                                  #        Y    =    ARCSIN (-M /COSZ)
000260:                                                                                                  #                            6
000261:
000262:                                                                                                  #  IF M  IS NEGATIVE, Y IS REPLACED BY PI SGN Y - Y
000263:                                                                                                  #      0
000264:                                                                                                  #        X    =    ARCSIN (-M /COSZ)
000265:                                                                                                  #                            5
000266:
000267:                                                                                                  #  IF M  IS NEGATIVE X IS REPLACED BY PI SGN X - X
000268:                                                                                                  #      4
000269:
000270:                                                                                                  #       THIS ROUTINE DOES NOT SET THE PUSH DOWN POINTER, BUT USES THE NEXT 8 LOCATIONS OF THE PUSH DOWN LIST AND
000271:                                                                                                  #  RETURNS THE POINTER TO ITS ORIGINAL SETTING.  THIS PROCEDURE ALLOWS THE CALLER TO STORE THE MATRIX AT THE TOP OF
000272:                                                                                                  #  THE PUSH DOWN LIST.
000273:
000274:
000275:                                                                                                  #       DELCOMP
000276:                                                                                                  #       -------
000277:
000278:                                                                                                  #                                                           *
000279:                                                                                                  #       THIS ROUTINE COMPUTES THE DIRECTION COSINE MATRIX (DEL) RELATING ON
000280:                                                                                                  #                                                                           -
000281:                                                                                                  #  IS ROTATED WITH RESPECT TO THE FIRST BY AN ANGLE, A, ABOUT A UNIT VECTOR, U.  THE FORMULA FOR THIS MATRIX IS
000282:
000283:                                                                                                  #        *         *           --T           *
000284:                                                                                                  #        DEL  =    I  COSA  +  UU (1-COSA) + V SINA
000285:                                                                                                  #                                             X
000286:
000287:                                                                                                  #  WHERE      *         (1   0    0)
000288:                                                                                                  #             I    =    (0   1    0)
000289:                                                                                                  #                       (0   0    1)
000290:
000291:
000292:                                                                                                  #                          2
000293:                                                                                                  #                       (U        U U       U U )
000294:                                                                                                  #                       ( X        X Y       X Z)
000295:                                                                                                  #                       (                       )
000296:                                                                                                  #             --T       (           2           )
000297:                                                                                                  #             UU   =    (U U      U         U U )
000298:                                                                                                  #                       ( Y X      Y         Y Z)
000299:                                                                                                  #                       (                       )
000300:                                                                                                  #                       (                     2 )
000301:                                                                                                  #                       (U U      U U       U  )
000302:                                                                                                  #                       ( Z X      Z Y       Z  )
000303:
000304:
000305:                                                                                                  #                       (0        -U        U  )
000306:                                                                                                  #                       (           Z        Y )
000307:                                                                                                  #             *         (                      )
000308:                                                                                                  #             V    =    (U        0         -U )
000309:                                                                                                  #              X        ( Z                   X)
000310:                                                                                                  #                       (                      )
000311:                                                                                                  #                       (-U       U         0  )
000312:                                                                                                  #                       (  Y       X           )
000313:
000314:                                                                                                  #             -
000315:                                                                                                  #             U    =    UNIT ROTATION VECTOR RESOLVED INTO S/C AXES
000316:                                                                                                  #             A    =    ROTATION ANGLE
000317:
000318:                                                                                                  #                              *
000319:                                                                                                  #       THE INTERPRETATION OF DEL IS AS FOLLOWS
000320:
000321:                                                                                                  #       IF A , A , A  REPRESENT THE COMPONENT OF A VECTOR IN THE ROTATED FRAME, THEN THE COMPONENTS OF THE SAME
000322:                                                                                                  #           X   Y   Z
000323:                                                                                                  #  VECTOR IN THE ORIGINAL S/C AXES (B , B , B ) ARE
000324:                                                                                                  #                                    X   Y   Z
000325:
000326:                                                                                                  #             (B )                     (A )
000327:                                                                                                  #             ( X)                     ( X)
000328:                                                                                                  #             (  )            *        (  )
000329:                                                                                                  #             (B )      =    DEL       (A )
000330:                                                                                                  #             ( Y)                     ( Y)
000331:                                                                                                  #             (  )                     (  )
000332:                                                                                                  #             (B )                     (A )
000333:                                                                                                  #             ( Z)                     ( Z)
000334:
000335:                                                                                                  #       THE ROUTINE WILL STORE THIS MATRIX (SCALED UNITY) IN SEQUENTIAL LOCATIONS OF ERASABLE MEMORY BEGINNING WITH
000336:                                                                                                  #                                                                                              -
000337:                                                                                                  #  THE LOCATION CALLED DEL.  IN ORDER TO USE THE ROUTINE, THE CALLING PROGRAM MUST FIRST STORE U (A HALF UNIT
000338:                                                                                                  #  DOUBLE PRECISION VECTOR) IN THE SET OF ERASABLE LOCATIONS BEGINNING WITH THE ADDRESS CALLED COF.  THE ANGLE, A,
000339:                                                                                                  #  MUST THEN BE LOADED INTO D(MPAC).
000340:
000341:                                                                                                  #       INTERNALLY, THE PROGRAM ALSO USES THE FIRST 10 LOCATIONS OF THE PUSH DOWN LIST.
000342:
000343:
000344:
000345:                                                                                                  #       READCDUK
000346:                                                                                                  #       --------
000347:
000348:                                                                                                  #       THIS BASIC LANGUAGE SUBROUTINE LOADS T(MPAC) WITH THE THREE CDU ANGLES.
000349:
000350:
000351:
000352:                                                                                                  #       SIGNMPAC
000353:                                                                                                  #       --------
000354:
000355:                                                                                                  #       THIS IS A BASIC LANGUAGE SUBROUTINE WHICH LIMITS THE MAGNITUDE OF D(MPAC) TO + OR - DPOSMAX ON OVERFLOW.
000356:
000357:
000358:
000359:                                                                                                  #       PROGRAM STORAGE ALLOCATION
000360:
000361:                                                                                                  #             1)   FIXED MEMORY                       1059 WORDS
000362:                                                                                                  #             2)   ERASABLE MEMORY                      98
000363:                                                                                                  #             3)   STATE SWITCHES                        3
000364:                                                                                                  #             4)   FLAGS                                 1
000365:
000366:
000367:                                                                                                  #       JOB PRIORITIES
000368:
000369:                                                                                                  #             1)   KALCMANU                            TBD
000370:                                                                                                  #             2)   ONE SECOND UPDATE                   TBD
000371:
000372:
000373:                                                                                                  #       SUMMARY OF STATE SWITCHES AND FLAGWORDS USED BY KALCMANU.
000374:
000375:                                                                                                  #  STATE                FLAGWRD 2      SETTING             MEANING
000376:                                                                                                  #  SWITCH NO.            BIT NO.
000377:
000378:                                                                                                  #    *
000379:                                                                                                  #  31                      14            0       MANEUVER WENT THROUGH GIMBAL LOCK
000380:                                                                                                  #                                        1       MANEUVER DID NOT GO THROUGH GIMBAL LOCK
000381:                                                                                                  #    *
000382:                                                                                                  #  32                      13            0       CONTINUE UPDATE PROCESS
000383:                                                                                                  #                                        1       START UPDATE PROCESS
000384:
000385:                                                                                                  #  33                      12            0       PERFORM FINAL P-AXIS YAW IF REQUIRED
000386:                                                                                                  #                                        1       IGNORE ANY FINAL P-AXIS YAW
000387:
000388:                                                                                                  #  34                      11            0       SIGNAL END OF KALCMANU
000389:                                                                                                  #                                        1       KALCMANU IN PROCESS       USER MUST SET SWITCH BEFORE INITIATING
000390:
000391:
000392:                                                                                                  #          *  INTERNAL TO KALCMANU
000393:
000394:
000395:                                                                                                  #       SUGGESTIONS FOR PROGRAM INTEGRATION
000396:
000397:                                                                                                  #       THE FOLLOWING VARIABLES SHOULD BE ASSIGNED TO UNSWITCH ERASABLE
000398:
000399:                                                                                                  #                       CPHI
000400:                                                                                                  #                       CTHETA
000401:                                                                                                  #                       CPSI
000402:                                                                                                  #                       POINTVSM  +5
000403:                                                                                                  #                       SCAXIS    +5
000404:                                                                                                  #                       DELDCDU
000405:                                                                                                  #                       DELDCDU1
000406:                                                                                                  #                       DELDCDU2
000407:                                                                                                  #                       RATEINDX
000408:
000409:                                                                                                  #       THE FOLLOWING SUBROUTINES MAY BE PUT IN A DIFFERENT BANK
000410:
000411:                                                                                                  #                       MXM3
000412:                                                                                                  #                       TRANSPOS
000413:                                                                                                  #                       SIGNMPAC
000414:                                                                                                  #                       READCDUK
000415:                                                                                                  #                       CDUTODCM
000416:
000417: 15,2000                                           BANK     15
000418: 22,2000                                           SETLOC   KALCMON1
000419: 22,2000                                           BANK
000420:
000421: 22,2000  E6,1673                                  EBANK=   BCDU
000422:
000423:                                                                                                  #  THE THREE DESIRED CDU ANGLES MUST BE STORED AS SINGLE PRECISION TWOS COMPLEMENT ANGLES IN THE THREE SUCCESSIVE
000424:                                                                                                  #  LOCATIONS, CPHI, CTHETA, CPSI.
000425:
000426: 22,2000                                           COUNT*   $$/KALC
000427: 22,2000           06014        KALCMAN3           TC       INTPRET                               #  PICK UP THE CURRENT CDU ANGLES AND
000428: 22,2001           77634                           RTB                                            #    COMPUTE THE MATRIX FROM INITIAL S/C
000429: 22,2002           44377                                    READCDUK                              #    AXES TO FINAL S/C AXES
000430: 22,2003           03274                           STORE    BCDU                                  #  STORE INITIAL S/C ANGLES
000431: 22,2004           51535                           SLOAD    ABS                                   #  CHECK THE MAGNITUDE OF THE DESIRED
000432: 22,2005           01211                                    CPSI                                  #  MIDDLE GIMBAL ANGLE
000433: 22,2006           51025                           DSU      BPL
000434: 22,2007           04377                                    LOCKANGL                              #  IF GREATER THAN 70 DEG ABORT MANEUVER
000435: 22,2010           44720                                    TOOBADF
000436: 22,2011           72364                           AXC,2    TLOAD
000437: 22,2012           03243                                    MIS
000438: 22,2013           03274                                    BCDU
000439: 22,2014           77624                           CALL                                           #  COMPUTE THE TRANSFORMATION FROM INITIAL
000440: 22,2015           44404                                    CDUTODCM                              #  S/C AXES TO STABLE MEMBER AXES
000441: 22,2016           72364                           AXC,2    TLOAD
000442: 22,2017           02236                                    MFS                                   #  PREPARE TO CALCULATE ARRAY MFS
000443: 22,2020           01207                                    CPHI
000444: 22,2021           77624                           CALL
000445: 22,2022           44404                                    CDUTODCM
000446: 22,2023           45160        SECAD              AXC,1    CALL                                  #  MIS AND MFS ARRAYS CALCULATED        $2
000447: 22,2024           03243                                    MIS
000448: 22,2025           44322                                    TRANSPOS
000449: 22,2026           45575                           VLOAD    STADR
000450: 22,2027           50462                           STOVL    TMIS       +12D
000451: 22,2030           77626                           STADR
000452: 22,2031           50470                           STOVL    TMIS       +6
000453: 22,2032           77626                           STADR
000454: 22,2033           74476                           STORE    TMIS                                  #  TMIS = TRANSPOSE(MIS) SCALED BY 2
000455: 22,2034           75160                           AXC,1    AXC,2
000456: 22,2035           03300                                    TMIS
000457: 22,2036           02236                                    MFS
000458: 22,2037           77624                           CALL
000459: 22,2040           44306                                    MXM3
000460: 22,2041           45575                           VLOAD    STADR
000461: 22,2042           51524                           STOVL    MFI        +12D
000462: 22,2043           77626                           STADR
000463: 22,2044           51532                           STOVL    MFI        +6
000464: 22,2045           77626                           STADR
000465: 22,2046           75540                           STORE    MFI                                   #  MFI = TMIS MFS (SCALED BY 4)
000466: 22,2047           45001                           SETPD    CALL                                  #  TRANSPOSE MFI IN PD LIST
000467: 22,2050           00023                                    18D
000468: 22,2051           44331                                    TRNSPSPD
000469: 22,2052           45575                           VLOAD    STADR
000470: 22,2053           50462                           STOVL    TMFI       +12D
000471: 22,2054           77626                           STADR
000472: 22,2055           50470                           STOVL    TMFI       +6
000473: 22,2056           77626                           STADR
000474: 22,2057           74476                           STORE    TMFI                                  #  TMFI = TRANSPOSE (MFI)  SCALED BY 4
000475:                                                                                                  #
000476:                                                                                                  #  CALCULATE COFSKEW AND MFISYM
000477:
000478: 22,2060           45345                           DLOAD    DSU
000479: 22,2061           03303                                    TMFI       +2
000480: 22,2062           02241                                    MFI        +2
000481: 22,2063           45325                           PDDL     DSU                                   #  CALCULATE COF SCALED BY 2/SIN(AM)
000482: 22,2064           02243                                    MFI        +4
000483: 22,2065           03305                                    TMFI       +4
000484: 22,2066           45325                           PDDL     DSU
000485: 22,2067           03313                                    TMFI       +10D
000486: 22,2070           02251                                    MFI        +10D
000487: 22,2071           77666                           VDEF
000488: 22,2072           03323                           STORE    COFSKEW                               #  EQUALS MFISKEW
000489:                                                                                                  #
000490:                                                                                                  #  CALCULATE AM AND PROCEED ACCORDING TO ITS MAGNITUDE
000491:
000492: 22,2073           43345                           DLOAD    DAD
000493: 22,2074           02237                                    MFI
000494: 22,2075           02257                                    MFI        +16D
000495: 22,2076           43225                           DSU      DAD
000496: 22,2077           06223                                    DP1/4TH
000497: 22,2100           02247                                    MFI        +8D
000498: 22,2101           03331                           STORE    CAM                                   #  CAM = (MFI0+MFI4+MFI8-1)/2 HALF SCALE
000499: 22,2102           77726                           ARCCOS
000500: 22,2103           03333                           STORE    AM                                    #  AM=ARCCOS(CAM)  (AM SCALED BY 2)
000501: 22,2104           51025                           DSU      BPL
000502: 22,2105           04357                                    MINANG
000503: 22,2106           44113                                    CHECKMAX
000504: 22,2107           77751                           TLOAD                                          #  MANEUVER LESS THAN .25 DEGREES
000505: 22,2110           01207                                    CPHI                                  #  GO DIRECTLY INTO ATTITUDE HOLD
000506: 22,2111           37233                           STCALL   CDUXD                                 #  ABOUT COMMANDED ANGLES
000507: 22,2112           44736                                    TOOBADI                               #  STOP RATE AND EXIT
000508:
000509: 22,2113           45345        CHECKMAX           DLOAD    DSU
000510: 22,2114           03333                                    AM
000511: 22,2115           04361                                    MAXANG
000512: 22,2116           77244                           BPL      VLOAD
000513: 22,2117           44125                                    ALTCALC                               #  UNIT
000514: 22,2120           03323                                    COFSKEW                               #  COFSKEW
000515: 22,2121           77656                           UNIT
000516: 22,2122           03266                           STORE    COF                                   #  COF IS THE MANEUVER AXIS
000517: 22,2123           77650                           GOTO                                           #  SEE IF MANEUVER GOES THRU GIMBAL LOCK
000518: 22,2124           44740                                    LOCSKIRT
000519: 22,2125           53375        ALTCALC            VLOAD    VAD                                   #  IF AM GREATER THAN 170 DEGREES
000520: 22,2126           02237                                    MFI
000521: 22,2127           03301                                    TMFI
000522: 22,2130           77762                           VSR1
000523: 22,2131           27301                           STOVL    MFISYM
000524: 22,2132           02245                                    MFI        +6
000525: 22,2133           74455                           VAD      VSR1
000526: 22,2134           03307                                    TMFI       +6
000527: 22,2135           27307                           STOVL    MFISYM     +6
000528: 22,2136           02253                                    MFI        +12D
000529: 22,2137           74455                           VAD      VSR1
000530: 22,2140           03315                                    TMFI       +12D
000531: 22,2141           03315                           STORE    MFISYM     +12D                       #  MFISYM=(MFI+TMFI)/2  SCALED BY 4
000532:
000533:
000534:                                                                                                  #  CALCULATE COF
000535:
000536:
000537: 22,2142           70545                           DLOAD    SR1
000538: 22,2143           03331                                    CAM
000539: 22,2144           45325                           PDDL     DSU                                   #  PDO CAM                               $4
000540: 22,2145           06231                                    DPHALF
000541: 22,2146           03331                                    CAM
000542: 22,2147           65204                           BOVB     PDDL                                  #  PD2 1 - CAM                           $2
000543: 22,2150           21656                                    SIGNMPAC
000544: 22,2151           03321                                    MFISYM     +16D
000545: 22,2152           56225                           DSU      DDV
000546: 22,2153           00001                                    0
000547: 22,2154           00003                                    2
000548: 22,2155           65366                           SQRT     PDDL                                  #  COFZ = SQRT(MFISYM8-CAM)/1-CAM)
000549: 22,2156           03311                                    MFISYM     +8D                        #                                $ ROOT 2
000550: 22,2157           56225                           DSU      DDV
000551: 22,2160           00001                                    0
000552: 22,2161           00003                                    2
000553: 22,2162           65366                           SQRT     PDDL                                  #  COFY = SQRT(MFISYM4-CAM)/(1-CAM)  $ROOT2
000554: 22,2163           03301                                    MFISYM
000555: 22,2164           56225                           DSU      DDV
000556: 22,2165           00001                                    0
000557: 22,2166           00003                                    2
000558: 22,2167           55566                           SQRT     VDEF                                  #  COFX = SQRT(MFISYM-CAM)/(1-CAM)  $ROOT 2
000559: 22,2170           77656                           UNIT
000560: 22,2171           03266                           STORE    COF
000561:                                                                                                  #
000562:                                                                                                  #  DETERMINE LARGEST COF AND ADJUST ACCORDINGLY
000563:
000564: 22,2172           45345        COFMAXGO           DLOAD    DSU
000565: 22,2173           03266                                    COF
000566: 22,2174           03270                                    COF        +2
000567: 22,2175           71240                           BMN      DLOAD                                 #  COFY G COFX
000568: 22,2176           44205                                    COMP12
000569: 22,2177           03266                                    COF
000570: 22,2200           50025                           DSU      BMN
000571: 22,2201           03272                                    COF        +4
000572: 22,2202           44262                                    METHOD3                               #  COFZ G COFX OR COFY
000573: 22,2203           77650                           GOTO
000574: 22,2204           44236                                    METHOD1                               #  COFX G COFY OR COFZ
000575: 22,2205           45345        COMP12             DLOAD    DSU
000576: 22,2206           03270                                    COF        +2
000577: 22,2207           03272                                    COF        +4
000578: 22,2210           77640                           BMN
000579: 22,2211           44262                                    METHOD3                               #  COFZ G COFY OR COFX
000580:
000581: 22,2212           51145        METHOD2            DLOAD    BPL                                   #  COFY MAX
000582: 22,2213           03325                                    COFSKEW    +2                         #  UY
000583: 22,2214           44220                                    U2POS
000584: 22,2215           57575                           VLOAD    VCOMP
000585: 22,2216           03266                                    COF
000586: 22,2217           03266                           STORE    COF
000587: 22,2220           51145        U2POS              DLOAD    BPL
000588: 22,2221           03303                                    MFISYM     +2                         #  UX UY
000589: 22,2222           44226                                    OKU21
000590: 22,2223           57545                           DLOAD    DCOMP                                 #  SIGN OF UX OPPOSITE TO UY
000591: 22,2224           03266                                    COF
000592: 22,2225           03266                           STORE    COF
000593: 22,2226           51145        OKU21              DLOAD    BPL
000594: 22,2227           03313                                    MFISYM     +10D                       #  UY UZ
000595: 22,2230           44740                                    LOCSKIRT
000596: 22,2231           57545                           DLOAD    DCOMP                                 #  SIGN OF UZ OPPOSITE TO UY
000597: 22,2232           03272                                    COF        +4
000598: 22,2233           03272                           STORE    COF        +4
000599: 22,2234           77650                           GOTO
000600: 22,2235           44740                                    LOCSKIRT
000601: 22,2236           51145        METHOD1            DLOAD    BPL                                   #  COFX MAX
000602: 22,2237           03323                                    COFSKEW                               #  UX
000603: 22,2240           44244                                    U1POS
000604: 22,2241           57575                           VLOAD    VCOMP
000605: 22,2242           03266                                    COF
000606: 22,2243           03266                           STORE    COF
000607: 22,2244           51145        U1POS              DLOAD    BPL
000608: 22,2245           03303                                    MFISYM     +2                         #  UX UY
000609: 22,2246           44252                                    OKU12
000610: 22,2247           57545                           DLOAD    DCOMP
000611: 22,2250           03270                                    COF        +2                         #  SIGN OF UY OPPOSITE TO UX
000612: 22,2251           03270                           STORE    COF        +2
000613: 22,2252           51145        OKU12              DLOAD    BPL
000614: 22,2253           03305                                    MFISYM     +4                         #  UX UZ
000615: 22,2254           44740                                    LOCSKIRT
000616: 22,2255           57545                           DLOAD    DCOMP                                 #  SIGN OF UZ OPPOSITE TO UY
000617: 22,2256           03272                                    COF        +4
000618: 22,2257           03272                           STORE    COF        +4
000619: 22,2260           77650                           GOTO
000620: 22,2261           44740                                    LOCSKIRT
000621: 22,2262           51145        METHOD3            DLOAD    BPL                                   #  COFZ MAX
000622: 22,2263           03327                                    COFSKEW    +4                         #  UZ
000623: 22,2264           44270                                    U3POS
000624: 22,2265           57575                           VLOAD    VCOMP
000625: 22,2266           03266                                    COF
000626: 22,2267           03266                           STORE    COF
000627: 22,2270           51145        U3POS              DLOAD    BPL
000628: 22,2271           03305                                    MFISYM     +4                         #  UX UZ
000629: 22,2272           44276                                    OKU31
000630: 22,2273           57545                           DLOAD    DCOMP
000631: 22,2274           03266                                    COF                                   #  SIGN OF UX OPPOSITE TO UZ
000632: 22,2275           03266                           STORE    COF
000633: 22,2276           51145        OKU31              DLOAD    BPL
000634: 22,2277           03313                                    MFISYM     +10D                       #  UY UZ
000635: 22,2300           44740                                    LOCSKIRT
000636: 22,2301           57545                           DLOAD    DCOMP
000637: 22,2302           03270                                    COF        +2                         #  SIGN OF UY OPPOSITE TO UZ
000638: 22,2303           03270                           STORE    COF        +2
000639: 22,2304           77650                           GOTO
000640: 22,2305           44740                                    LOCSKIRT
000641:                                                                                                  #  MATRIX OPERATIONS
000642:
000643: 13,2161                                           BANK     13
000644: 22,2000                                           SETLOC   KALCMON2
000645: 22,2000                                           BANK
000646:
000647: 22,2306  E6,1673                                  EBANK=   BCDU
000648:
000649: 22,2306           76601        MXM3               SETPD    VLOAD*                                #  MXM3 MULTIPLIES 2 3X3 MATRICES
000650: 22,2307           00001                                    0                                     #  AND LEAVES RESULT IN PD LIST
000651: 22,2310           00001                                    0,1                                   #  AND MPAC
000652: 22,2311           62703                           VXM*     PDVL*
000653: 22,2312           77776                                    0,2
000654: 22,2313           00007                                    6,1
000655: 22,2314           62703                           VXM*     PDVL*
000656: 22,2315           77776                                    0,2
000657: 22,2316           00015                                    12D,1
000658: 22,2317           41503                           VXM*     PUSH
000659: 22,2320           77776                                    0,2
000660: 22,2321           77616                           RVQ
000661:
000662:
000663:                                                                                                  #                           RETURN WITH M1XM2 IN PD LIST
000664:
000665: 22,2322           76601        TRANSPOS           SETPD    VLOAD*                                #  TRANSPOS TRANSPOSES A 3X3 MATRIX
000666: 22,2323           00001                                    0                                     #   AND LEAVES RESULT IN PD LIST
000667: 22,2324           00001                                    0,1                                   #  MATRIX ADDRESS IN XR1
000668: 22,2325           62713                           PDVL*    PDVL*
000669: 22,2326           00007                                    6,1
000670: 22,2327           00015                                    12D,1
000671: 22,2330           77606                           PUSH                                           #  MATRIX IN PD
000672: 22,2331           77776        TRNSPSPD           EXIT                                           #  ENTER WITH MATRIX AT 0 IN PD LIST
000673: 22,2332           50120                           INDEX    FIXLOC
000674: 22,2333           52013                           DXCH     12
000675: 22,2334           50120                           INDEX    FIXLOC
000676: 22,2335           52017                           DXCH     16
000677: 22,2336           50120                           INDEX    FIXLOC
000678: 22,2337           52013                           DXCH     12
000679: 22,2340           50120                           INDEX    FIXLOC
000680: 22,2341           52015                           DXCH     14
000681: 22,2342           50120                           INDEX    FIXLOC
000682: 22,2343           52005                           DXCH     4
000683: 22,2344           50120                           INDEX    FIXLOC
000684: 22,2345           52015                           DXCH     14
000685: 22,2346           50120                           INDEX    FIXLOC
000686: 22,2347           52003                           DXCH     2
000687: 22,2350           50120                           INDEX    FIXLOC
000688: 22,2351           52007                           DXCH     6
000689: 22,2352           50120                           INDEX    FIXLOC
000690: 22,2353           52003                           DXCH     2
000691: 22,2354           06014                           TC       INTPRET
000692: 22,2355           77616                           RVQ
000693:
000694: 15,2000                                           BANK     15
000695: 22,2000                                           SETLOC   KALCMON1
000696: 22,2000                                           BANK
000697:
000698: 22,2356  E6,1673                                  EBANK=   BCDU
000699:
000700: 22,2356           00013 13563  MINANG             2DEC     0.00069375
000701:
000702: 22,2360           17070 34343  MAXANG             2DEC     0.472222222
000703:
000704:                                                                                                  #           GIMBAL LOCK CONSTANTS
000705:
000706:                                                                                                  #  D = MGA CORRESPONDING TO GIMBAL LOCK = 60 DEGREES
000707:                                                                                                  #           NGL = BUFFER ANGLE (TO AVOID DIVISIONS BY ZERO) = 2 DEGREES
000708:
000709: 22,2362           15666 20443  SD                 2DEC     .433015                               #  = SIN(D)                        $2
000710:
000711: 22,2364           33555 01106  K3S1               2DEC     .86603                                #  = SIN(D)                        $1
000712:
000713: 22,2366           67777 77777  K4                 2DEC     -.25                                  #  = -COS(D)                       $2
000714:
000715: 22,2370           04000 00000  K4SQ               2DEC     .125                                  #  = COS(D)COS(D)                  $2
000716:
000717: 22,2372           00216 36323  SNGLCD             2DEC     .008725                               #  = SIN(NGL)COS(D)                $2
000718:
000719: 22,2374           17773 00057  CNGL               2DEC     .499695                               #  COS(NGL)                        $2
000720:
000721: 22,2376           14344        LOCKANGL           DEC      .388889                               #  = 70 DEGREES
000722:                                                                                                  #  INTERPRETIVE SUBROUTINE TO READ THE CDU ANGLES
000723:
000724: 22,2377           30034        READCDUK           CA       CDUZ                                  #  LOAD T(MPAC) WITH CDU ANGLES
000725: 22,2400           54156                           TS       MPAC       +2
000726: 22,2401           00006                           EXTEND
000727: 22,2402           30033                           DCA      CDUX                                  #  AND CHANGE MODE TO TRIPLE PRECISION
000728: 22,2403           16452                           TCF      TLOAD      +6
000729:
000730: 22,2404           66370        CDUTODCM           AXT,1    SSP
000731: 22,2405           00003                           OCT      3
000732: 22,2406           00051                                    S1
000733: 22,2407           00001                           OCT      1                                     #  SET XR1, S1, AND PD FOR LOOP
000734: 22,2410           00010                           STORE    7
000735: 22,2411           77601                           SETPD
000736: 22,2412           00001                                    0
000737: 22,2413           47133        LOOPSIN            SLOAD*   RTB
000738: 22,2414           00013                                    10D,1
000739: 22,2415           21457                                    CDULOGIC
000740: 22,2416           00013                           STORE    10D                                   #  LOAD PD WITH  0 SIN(PHI)
000741: 22,2417           65356                           SIN      PDDL                                  #                2 COS(PHI)
000742: 22,2420           00013                                    10D                                   #                4 SIN(THETA)
000743: 22,2421           41546                           COS      PUSH                                  #                6 COS(THETA)
000744: 22,2422           71300                           TIX,1    DLOAD                                 #                8 SIN(PSI)
000745: 22,2423           44413                                    LOOPSIN                               #               10 COS(PSI)
000746: 22,2424           00007                                    6
000747: 22,2425           72405                           DMP      SL1
000748: 22,2426           00013                                    10D
000749: 22,2427           10001                           STORE    0,2                                   #  C0=COS(THETA)COS(PSI)
000750: 22,2430           41345                           DLOAD    DMP
000751: 22,2431           00005                                    4
000752: 22,2432           00001                                    0
000753: 22,2433           41325                           PDDL     DMP                                   #  (PD6 SIN(THETA)SIN(PHI))
000754: 22,2434           00007                                    6
000755: 22,2435           00011                                    8D
000756: 22,2436           72405                           DMP      SL1
000757: 22,2437           00003                                    2
000758: 22,2440           72421                           BDSU     SL1
000759: 22,2441           00015                                    12D
000760: 22,2442           10003                           STORE    2,2                                   #  C1=-COS(THETA)SIN(PSI)COS(PHI)
000761: 22,2443           41345                           DLOAD    DMP
000762: 22,2444           00003                                    2
000763: 22,2445           00005                                    4
000764: 22,2446           41325                           PDDL     DMP                                   #  (PD7 COS(PHI)SIN(THETA)) SCALED 4
000765: 22,2447           00007                                    6
000766: 22,2450           00011                                    8D
000767: 22,2451           72405                           DMP      SL1
000768: 22,2452           00001                                    0
000769: 22,2453           72415                           DAD      SL1
000770: 22,2454           00017                                    14D
000771: 22,2455           10005                           STORE    4,2                                   #  C2=COS(THETA)SIN(PSI)SIN(PHI)
000772: 22,2456           77745                           DLOAD
000773: 22,2457           00011                                    8D
000774: 22,2460           10007                           STORE    6,2                                   #  C3=SIN(PSI)
000775: 22,2461           77745                           DLOAD
000776: 22,2462           00013                                    10D
000777: 22,2463           72405                           DMP      SL1
000778: 22,2464           00003                                    2
000779: 22,2465           10011                           STORE    8D,2                                  #  C4=COS(PSI)COS(PHI)
000780: 22,2466           41345                           DLOAD    DMP
000781: 22,2467           00013                                    10D
000782: 22,2470           00001                                    0
000783: 22,2471           72476                           DCOMP    SL1
000784: 22,2472           10013                           STORE    10D,2                                 #  C5=-COS(PSI)SIN(PHI)
000785: 22,2473           41345                           DLOAD    DMP
000786: 22,2474           00005                                    4
000787: 22,2475           00013                                    10D
000788: 22,2476           72476                           DCOMP    SL1
000789: 22,2477           10015                           STORE    12D,2                                 #  C6=-SIN(THETA)COS(PSI)
000790: 22,2500           77745                           DLOAD
000791: 22,2501           72405                           DMP      SL1                                   #   (PUSH UP 7)
000792: 22,2502           00011                                    8D
000793: 22,2503           41325                           PDDL     DMP                                   #   (PD7 COS(PHI)SIN(THETA)SIN(PSI)) SCALE4
000794: 22,2504           00007                                    6
000795: 22,2505           00001                                    0
000796: 22,2506           72415                           DAD      SL1                                   #   (PUSH UP 7)
000797: 22,2507           77626                           STADR                                          #  C7=COS(PHI)SIN(THETA)SIN(PSI)
000798: 22,2510           67760                           STORE    14D,2                                 #   +COS(THETA)SIN(PHI)
000799: 22,2511           77745                           DLOAD
000800: 22,2512           72405                           DMP      SL1                                   #  (PUSH UP 6)
000801: 22,2513           00011                                    8D
000802: 22,2514           41325                           PDDL     DMP                                   #  (PD6 SIN(THETA)SIN(PHI)SIN(PSI)) SCALE4
000803: 22,2515           00007                                    6
000804: 22,2516           00003                                    2
000805: 22,2517           72425                           DSU      SL1                                   #  (PUSH UP 6)
000806: 22,2520           77626                           STADR
000807: 22,2521           67756                           STORE    16D,2                                 #  C8=-SIN(THETA)SIN(PHI)SIN(PSI)
000808: 22,2522           77616                           RVQ                                            #   +COS(THETA)COS(PHI)
000809:
000810:                                                                                                  #  CALCULATION OF THE MATRIX DEL......
000811:
000812:                                                                                                  #           *          *           --T           *
000813:                                                                                                  #           DEL = (IDMATRIX)COS(A)+UU (1-COS(A))+UX SIN(A)         SCALED 1
000814:
000815:                                                                                                  #                 -
000816:                                                                                                  #           WHERE U IS A UNIT VECTOR (DP SCALED 2) ALONG THE AXIS OF ROTATION.
000817:                                                                                                  #           A IS THE ANGLE OF ROTATION (DP SCALED 2)
000818:                                                                                                  #                                              -
000819:                                                                                                  #           UPON ENTRY THE STARTING ADDRESS OF U IS COF, AND A IS IN MPAC
000820:
000821: 22,2523           41401        DELCOMP            SETPD    PUSH                                  #  MPAC CONTAINS THE ANGLE A
000822: 22,2524           00001                                    0
000823: 22,2525           65356                           SIN      PDDL                                  #  PD0 = SIN(A)
000824: 22,2526           41546                           COS      PUSH                                  #  PD2 = COS(A)
000825: 22,2527           65302                           SR2      PDDL                                  #  PD2 = COS(A)                         $8
000826: 22,2530           41021                           BDSU     BOVB
000827: 22,2531           06231                                    DPHALF
000828: 22,2532           21656                                    SIGNMPAC
000829: 22,2533           77725                           PDDL                                           #  PD4 = 1-COS(A)
000830:
000831:                                                                                                  #  COMPUTE THE DIAGONAL COMPONENTS OF DEL
000832:
000833: 22,2534           03266                                    COF
000834: 22,2535           41316                           DSQ      DMP
000835: 22,2536           00005                                    4
000836: 22,2537           52415                           DAD      SL3
000837: 22,2540           00003                                    2
000838: 22,2541           77604                           BOVB
000839: 22,2542           21656                                    SIGNMPAC
000840: 22,2543           16237                           STODL    KEL                                   #  UX UX(1-COS(A)) +COS(A)              $1
000841: 22,2544           03270                                    COF        +2
000842: 22,2545           41316                           DSQ      DMP
000843: 22,2546           00005                                    4
000844: 22,2547           52415                           DAD      SL3
000845: 22,2550           00003                                    2
000846: 22,2551           77604                           BOVB
000847: 22,2552           21656                                    SIGNMPAC
000848: 22,2553           16247                           STODL    KEL        +8D                        #  UY UY(1-COS(A)) +COS(A)              $1
000849: 22,2554           03272                                    COF        +4
000850: 22,2555           41316                           DSQ      DMP
000851: 22,2556           00005                                    4
000852: 22,2557           52415                           DAD      SL3
000853: 22,2560           00003                                    2
000854: 22,2561           77604                           BOVB
000855: 22,2562           21656                                    SIGNMPAC
000856: 22,2563           02257                           STORE    KEL        +16D                       #  UZ UZ(1-COS(A)) +COS(A)              $1
000857:
000858:                                                                                                  #  COMPUTE THE OFF DIAGONAL TERMS OF DEL
000859:
000860: 22,2564           41345                           DLOAD    DMP
000861: 22,2565           03266                                    COF
000862: 22,2566           03270                                    COF        +2
000863: 22,2567           72405                           DMP      SL1
000864: 22,2570           00005                                    4
000865: 22,2571           41325                           PDDL     DMP                                   #  D6  UX UY (1-COS A)                  $4
000866: 22,2572           03272                                    COF        +4
000867: 22,2573           00001                                    0
000868: 22,2574           43206                           PUSH     DAD                                   #  D8  UZ SIN A                         $4
000869: 22,2575           00007                                    6
000870: 22,2576           41112                           SL2      BOVB
000871: 22,2577           21656                                    SIGNMPAC
000872: 22,2600           16245                           STODL    KEL        +6
000873: 22,2601           62421                           BDSU     SL2
000874: 22,2602           77604                           BOVB
000875: 22,2603           21656                                    SIGNMPAC
000876: 22,2604           16241                           STODL    KEL        +2
000877: 22,2605           03266                                    COF
000878: 22,2606           41205                           DMP      DMP
000879: 22,2607           03272                                    COF        +4
000880: 22,2610           00005                                    4
000881: 22,2611           65352                           SL1      PDDL                                  #  D6  UX UZ (1-COS A)                  $4
000882: 22,2612           03270                                    COF        +2
000883: 22,2613           41405                           DMP      PUSH                                  #  D8  UY SIN(A)
000884: 22,2614           00001                                    0
000885: 22,2615           62415                           DAD      SL2
000886: 22,2616           00007                                    6
000887: 22,2617           77604                           BOVB
000888: 22,2620           21656                                    SIGNMPAC
000889: 22,2621           16243                           STODL    KEL        +4                         #  UX UZ (1-COS(A))+UY SIN(A)
000890: 22,2622           62421                           BDSU     SL2
000891: 22,2623           77604                           BOVB
000892: 22,2624           21656                                    SIGNMPAC
000893: 22,2625           16253                           STODL    KEL        +12D                       #  UX UZ (1-COS(A))-UY SIN(A)
000894: 22,2626           03270                                    COF        +2
000895: 22,2627           41205                           DMP      DMP
000896: 22,2630           03272                                    COF        +4
000897: 22,2631           00005                                    4
000898: 22,2632           65352                           SL1      PDDL                                  #  D6  UY UZ (1-COS(A))                $ 4
000899: 22,2633           03266                                    COF
000900: 22,2634           41405                           DMP      PUSH                                  #  D8  UX SIN(A)
000901: 22,2635           00001                                    0
000902: 22,2636           62415                           DAD      SL2
000903: 22,2637           00007                                    6
000904: 22,2640           77604                           BOVB
000905: 22,2641           21656                                    SIGNMPAC
000906: 22,2642           16255                           STODL    KEL        +14D                       #  UY UZ(1-COS(A)) +UX SIN(A)
000907: 22,2643           62421                           BDSU     SL2
000908: 22,2644           77604                           BOVB
000909: 22,2645           21656                                    SIGNMPAC
000910: 22,2646           02251                           STORE    KEL        +10D                       #  UY UZ (1-COS(A)) -UX SIN(A)
000911: 22,2647           77616                           RVQ
000912:
000913:
000914:                                                                                                  #  DIRECTION COSINE MATRIX TO CDU ANGLE ROUTINE
000915:                                                                                                  #  X1 CONTAINS THE COMPLEMENT OF THE STARTING ADDRESS FOR MATRIX (SCALED 2)
000916:                                                                                                  #  LEAVES CDU ANGLES SCALED 2PI IN V(MPAC)
000917:                                                                                                  #  COS(MGA) WILL BE LEFT IN S1 (SCALED 1)
000918:
000919:                                                                                                  #  THE DIRECTION COSINE MATRIX RELATING S/C AXES TO STABLE MEMBER AXES CAN BE WRITTEN AS***
000920:
000921:                                                                                                  #           C =COS(THETA)COS(PSI)
000922:                                                                                                  #            0
000923:                                                                                                  #           C =-COS(THETA)SIN(PSI)COS(PHI)+SI (THETA)SIN(PHI)
000924:                                                                                                  #            1
000925:                                                                                                  #           C =COS(THETA)SIN(PSI)SIN(PHI) + S N(THETA)COS(PHI)
000926:                                                                                                  #            2
000927:                                                                                                  #           C =SIN(PSI)
000928:                                                                                                  #            3
000929:                                                                                                  #           C =COS(PSI)COS(PHI)
000930:                                                                                                  #            4
000931:                                                                                                  #           C =-COS(PSI)SIN(PHI)
000932:                                                                                                  #            5
000933:                                                                                                  #           C =-SIN(THETA)COS(PSI)
000934:                                                                                                  #            6
000935:                                                                                                  #           C =SIN(THETA)SIN(PSI)COS(PHI)+COS THETA)SIN(PHI)
000936:                                                                                                  #            7
000937:                                                                                                  #           C =-SIN(THETA)SIN(PSI)SIN(PHI)+CO (THETA)COS(PHI)
000938:                                                                                                  #            8
000939:                                                                                                  #           WHERE PHI = OGA
000940:                                                                                                  #                 THETA = IGA
000941:                                                                                                  #                 PSI = MGA
000942:
000943: 22,2650           67543        DCMTOCDU           DLOAD*   ARCSIN
000944: 22,2651           00007                                    6,1
000945: 22,2652           71406                           PUSH     COS                                   #  PD +0   PSI
000946: 22,2653           41152                           SL1      BOVB
000947: 22,2654           21656                                    SIGNMPAC
000948: 22,2655           00051                           STORE    S1
000949: 22,2656           57543                           DLOAD*   DCOMP
000950: 22,2657           00015                                    12D,1
000951: 22,2660           67471                           DDV      ARCSIN
000952: 22,2661           00051                                    S1
000953: 22,2662           51123                           PDDL*    BPL                                   #  PD +2  THETA
000954: 22,2663           00001                                    0,1                                   #  MUST CHECK THE SIGN OF COS(THETA)
000955: 22,2664           44676                                    OKTHETA                               #  TO DETERMINE THE PROPER QUADRANT
000956: 22,2665           57545                           DLOAD    DCOMP
000957: 22,2666           43244                           BPL      DAD
000958: 22,2667           44673                                    SUHALFA
000959: 22,2670           06231                                    DPHALF
000960: 22,2671           77650                           GOTO
000961: 22,2672           44675                                    CALCPHI
000962: 22,2673           77625        SUHALFA            DSU
000963: 22,2674           06231                                    DPHALF
000964: 22,2675           77606        CALCPHI            PUSH
000965: 22,2676           57543        OKTHETA            DLOAD*   DCOMP
000966: 22,2677           00013                                    10D,1
000967: 22,2700           67471                           DDV      ARCSIN
000968: 22,2701           00051                                    S1
000969: 22,2702           51123                           PDDL*    BPL                                   #  PUSH DOWN PHI
000970: 22,2703           00011                                    8D,1
000971: 22,2704           44716                                    OKPHI
000972: 22,2705           57545                           DLOAD    DCOMP                                 #  PUSH UP PHI
000973: 22,2706           43244                           BPL      DAD
000974: 22,2707           44713                                    SUHALFAP
000975: 22,2710           06231                                    DPHALF
000976: 22,2711           77650                           GOTO
000977: 22,2712           44717                                    VECOFANG
000978: 22,2713           52025        SUHALFAP           DSU      GOTO
000979: 22,2714           06231                                    DPHALF
000980: 22,2715           44717                                    VECOFANG
000981: 22,2716           77745        OKPHI              DLOAD                                          #  PUSH UP PHI
000982: 22,2717           43466        VECOFANG           VDEF     RVQ
000983:                                                                                                  #  ROUTINES FOR TERMINATING THE AUTOMATIC MANEUVER AND RETURNING TO USER
000984:
000985: 22,2720           77776        TOOBADF            EXIT
000986: 22,2721           05646                           TC       ALARM
000987: 22,2722           00401                           OCT      00401
000988:
000989: 22,2723           12726                           TCF      NOGO                                  #  DO NOT ZERO ATTITUDE ERRORS
000990:
000991: 22,2724           04655                           TC       BANKCALL
000992: 22,2725           40232                           CADR     ZATTEROR                              #  ZERO ATTITUDE ERRORS
000993:
000994: 22,2726           04655        NOGO               TC       BANKCALL
000995: 22,2727           40244                           CADR     STOPRATE                              #  STOP RATES
000996:
000997: 22,2730           35025                           CAF      TWO
000998: 22,2731           00004                           INHINT                                         #  ALL RETURNS ARE NOW MADE VIA GOODEND
000999: 22,2732           05252                           TC       WAITLIST
001000: 22,2733  E6,1673                                  EBANK=   BCDU
001001: 22,2733           03230 44066                     2CADR    GOODMANU
001002:
001003: 22,2735           15225                           TCF      ENDOFJOB
001004:
001005: 22,2736           77776        TOOBADI            EXIT
001006: 22,2737           12726                           TCF      NOGO

End of include-file ATTITUDE_MANEUVER_ROUTINE.agc.  Parent file is MAIN.agc


