
Source Code


000002:                                                                                                  ## Copyright:   Public domain.
000003:                                                                                                  ## Filename:    BURN,_BABY,_BURN_--_MASTER_IGNITION_ROUTINE.agc
000004:                                                                                                  ## Purpose:     A section of a reconstructed, mixed version of Sundance
000005:                                                                                                  ##              It is part of the reconstructed source code for the Lunar
000006:                                                                                                  ##              Module's (LM) Apollo Guidance Computer (AGC) for Apollo 9.
000007:                                                                                                  ##              No original listings of this program are available;
000008:                                                                                                  ##              instead, this file was created via disassembly of dumps
000009:                                                                                                  ##              of various revisions of Sundance core rope modules.
000010:                                                                                                  ## Assembler:   yaYUL
000011:                                                                                                  ## Contact:     Ron Burkey <info@sandroid.org>.
000012:                                                                                                  ## Website:     www.ibiblio.org/apollo/index.html
000013:                                                                                                  ## Mod history: 2020-06-17 MAS  Created from Luminary 69.
000014:
000015:                                                                                                  ## Sundance 306
000016:
000017: 36,2000                                           BANK     36
000018: 36,2000                                           SETLOC   P40S
000019: 36,2000                                           BANK
000020: 36,2000  E7,1430                                  EBANK=   WHICH
000021: 36,2000                                           COUNT*   $$/P40
000022:                                                                                                  #      THE MASTER IGNITION ROUTINE IS DESIGNED FOR USE BY THE FOLLOWING LEM PROGRAMS:  P12, P40, P42, P61, P63.
000023:                                                                                                  #  IT PERFORMS ALL FUNCTIONS IMMEDIATELY ASSOCIATED WITH APS OR DPS IGNITION:  IN PARTICULAR, EVERYTHING LYING
000024:                                                                                                  #  BETWEEN THE PRE-IGNITION TIME CHECK -- ARE WE WITHIN 45 SECONDS OF TIG? -- AND TIG + 26 SECONDS, WHEN DPS
000025:                                                                                                  #  PROGRAMS THROTTLE UP.
000026:
000027:                                                                                                  #      VARIATIONS AMONG PROGRAMS ARE ACCOMODATED BY MEANS OF TABLES CONTAINING CONSTANTS (FOR AVEGEXIT, FOR
000028:                                                                                                  #  WAITLIST, FOR PINBALL) AND TCF INSTRUCTIONS.   USERS PLACE THE ADRES OF THE HEAD OF THE APPROPRIATE TABLE
000029:                                                                                                  #  (OF P61TABLE FOR P61LM, FOR EXAMPLE) IN ERASABLE REGISTER 'WHICH' (E4).   THE IGNITION ROUTINE THEN INDEXES BY
000030:                                                                                                  #  WHICH TO OBTAIN OR EXECUTE THE PROPER TABLE ENTRY.   THE IGNITION ROUTINE IS INITIATED BY A TCF BURNBABY,
000031:                                                                                                  #  THROUGH BANKJUMP IF NECESSARY.   THERE IS NO RETURN.
000032:
000033:                                                                                                  #      THE MASTER IGNITION ROUTINE WAS CONCEIVED AND EXECUTED, AND (NOTA BENE) IS MAINTAINED BY ADLER AND EYLES.
000034:
000035:
000036:                                                                                                  #                                         HONI SOIT QUI MAL Y PENSE
000037:
000038:
000039:                                                                                                  #                                  ****************************************
000040:                                                                                                  #                                  TABLES FOR THE IGNITION ROUTINE
000041:                                                                                                  #                                  ****************************************
000042:
000043:                                                                                                  #                                              NOLI SE TANGERE
000044:
000045: 36,2000           01512        P12TABLE           VN       0674                                  #  (0)
000046: 36,2001           01512                           VN       0674                                  #  (1)
000047: 36,2002           13023                           TCF      IGNITE                                #  (2)
000048: 36,2003           14106                           TCF      GOTOPOOH                              #  (3)
000049: 36,2004           12161                           TCF      TOOLATE                               #  (4)
000050: 36,2005           12212                           TCF      P12SPOT                               #  (5)
000051: 36,2006           00000                           DEC      0          B-14                       #  (6)       NO ULLAGE
000052: 36,2007  E7,1472                                  EBANK=   DVCNTR
000053: 36,2007           02213 60067                     2CADR    ATMAG                                 #  (7)
000054: 36,2011           12423                           TCF      DISPCHNG                              #  (11)
000055: 36,2012           12553                           TCF      WAITABIT                              #  (12)
000056: 36,2013           12525                           TCF      P12IGN                                #  (13)
000057: 36,2014           15321                           TCF      TASKOVER                              #  (14)
000058: 36,2015           12610                           TCF      COMFAIL2                              #  (15)
000059:
000060:
000061:
000062: 36,2016           01450        P40TABLE           VN       0640                                  #  (0)
000063: 36,2017           01450                           VN       0640                                  #  (1)
000064: 36,2020           13023                           TCF      IGNITE                                #  (2)
000065: 36,2021           13013                           TCF      GOPOST                                #  (3)
000066: 36,2022           12161                           TCF      TOOLATE                               #  (4)
000067: 36,2023           12212                           TCF      P40SPOT                               #  (5)
000068: 36,2024           04300                           DEC      2240       B-14                       #  (6)
000069: 36,2025  E6,1420                                  EBANK=   OMEGAQ
000070: 36,2025           03637 74066                     2CADR    STEERING                              #  (7)
000071: 36,2027           12417                           TCF      P40SJUNK                              #  (11)
000072: 36,2030           12553                           TCF      WAITABIT                              #  (12)
000073: 36,2031           12506                           TCF      P40IGN                                #  (13)
000074: 36,2032           12601                           TCF      P40ZOOM                               #  (14)
000075: 36,2033           12610                           TCF      COMFAIL2                              #  (15)
000076: 36,2034           12171                           TCF      PUSHTIG                               #  (16)
000077:
000078:
000079:
000080: 36,2035           12215        P41TABLE           TCF      P41SPOT                               #  (5)
000081: 36,2036           77776                           DEC      -1         B-14                       #  (6)
000082: 36,2037  E6,1420                                  EBANK=   OMEGAQ
000083: 36,2037           03361 74066                     2CADR    CALCN85                               #  (7)
000084:
000085: 36,2041           15321                           TCF      TASKOVER                              #  (11)
000086: 36,2042           12557                           TCF      TIGTASK                               #  (12)
000087:
000088:
000089:
000090: 36,2043           01450        P42TABLE           VN       0640                                  #  (0)
000091: 36,2044           01450                           VN       0640                                  #  (1)
000092: 36,2045           13023                           TCF      IGNITE                                #  (2)
000093: 36,2046           13013                           TCF      GOPOST                                #  (3)
000094: 36,2047           12161                           TCF      TOOLATE                               #  (4)
000095: 36,2050           12212                           TCF      P42SPOT                               #  (5)
000096: 36,2051           05120                           DEC      2640       B-14                       #  (6)
000097: 36,2052  E6,1420                                  EBANK=   OMEGAQ
000098: 36,2052           03637 74066                     2CADR    STEERING                              #  (7)
000099: 36,2054           12417                           TCF      P40SJUNK                              #  (11)
000100: 36,2055           12553                           TCF      WAITABIT                              #  (12)
000101: 36,2056           12527                           TCF      P42IGN                                #  (13)
000102: 36,2057           15321                           TCF      TASKOVER                              #  (14)
000103: 36,2060           12610                           TCF      COMFAIL2                              #  (15)
000104:
000105:
000106:
000107: 36,2061           01476        P63TABLE           VN       0662                                  #  (0)
000108: 36,2062           01475                           VN       0661                                  #  (1)
000109: 36,2063           13023                           TCF      IGNITE                                #  (2)
000110: 36,2064           12760                           TCF      V99RECYC                              #  (3)
000111: 36,2065           12161                           TCF      TOOLATE                               #  (4)
000112: 36,2066           12215                           TCF      P63SPOT                               #  (5)
000113: 36,2067           04300                           DEC      2240       B-14                       #  (6)
000114: 36,2070  E7,1430                                  EBANK=   WHICH
000115: 36,2070           02351 66067                     2CADR    SERVEXIT                              #  (7)
000116: 36,2072           12423                           TCF      DISPCHNG                              #  (11)
000117: 36,2073           12553                           TCF      WAITABIT                              #  (12)
000118: 36,2074           12467                           TCF      P63IGN                                #  (13)
000119: 36,2075           12570                           TCF      P63ZOOM                               #  (14)
000120: 36,2076           12610                           TCF      COMFAIL2                              #  (15)
000121:
000122:
000123: 36,2077           01513        P70TABLE           VN       0675                                  #  (0)
000124: 36,2100           01513                           VN       0675                                  #  (1)
000125: 36,2101           13023                           TCF      IGNITE                                #  (2)
000126: 36,2102           14106                           TCF      GOTOPOOH                              #  (3)
000127: 36,2103           12161                           TCF      TOOLATE                               #  (4)
000128: 36,2104           12212                           TCF      P70SPOT                               #  (5)
000129: 36,2105           04300                           DEC      2240       B-14                       #  (6)
000130: 36,2106  E7,1472                                  EBANK=   DVCNTR
000131: 36,2106           02213 60067                     2CADR    ATMAG                                 #  (7)
000132: 36,2110           12423                           TCF      DISPCHNG                              #  (11)
000133: 36,2111           12553                           TCF      WAITABIT                              #  (12)
000134: 36,2112           12506                           TCF      P70IGN                                #  (13)
000135: 36,2113           12601                           TCF      P70ZOOM                               #  (14)
000136: 36,2114           12610                           TCF      COMFAIL2                              #  (15)
000137:
000138:
000139: 36,2115           01513        P71TABLE           VN       0675                                  #  (0)
000140: 36,2116           01513                           VN       0675                                  #  (1)
000141: 36,2117           13023                           TCF      IGNITE                                #  (2)
000142: 36,2120           14106                           TCF      GOTOPOOH                              #  (3)
000143: 36,2121           12161                           TCF      TOOLATE                               #  (4)
000144: 36,2122           12212                           TCF      P71SPOT                               #  (5)
000145: 36,2123           05120                           DEC      2640       B-14                       #  (6)
000146: 36,2124  E7,1472                                  EBANK=   DVCNTR
000147: 36,2124           02213 60067                     2CADR    ATMAG                                 #  (7)
000148: 36,2126           12423                           TCF      DISPCHNG                              #  (11)
000149: 36,2127           12553                           TCF      WAITABIT                              #  (12)
000150: 36,2130           12527                           TCF      P71IGN                                #  (13)
000151: 36,2131           15321                           TCF      TASKOVER                              #  (14)
000152: 36,2132           12610                           TCF      COMFAIL2                              #  (15)
000153:
000154:
000155:
000156:                                                                                                  #                ****************************************
000157:                                                                                                  #                GENERAL PURPOSE IGNITION ROUTINES
000158:                                                                                                  #                ****************************************
000159:
000160: 36,2133           05413        BURNBABY           TC       PHASCHNG                              #  GROUP 4 RESTARTS HERE
000161: 36,2134           04024                           OCT      04024
000162:
000163: 36,2135           35030                           CAF      ZERO                                  #  EXTIRPATE JUNK LEFT IN DVTOTAL
000164: 36,2136           55466                           TS       DVTOTAL
000165: 36,2137           55467                           TS       DVTOTAL    +1
000166:
000167: 36,2140           04655                           TC       BANKCALL                              #  P40AUTO MUST BE BANKCALLED EVEN FROM ITS
000168: 36,2141           75064                           CADR     P40AUTO                               #    OWN BANK TO SET UP RETURN PROPERLY
000169:
000170: 36,2142           05575        B*RNB*B*           TC       DOWNFLAG
000171: 36,2143           00032                           ADRES    GIMBFLG
000172:
000173: 36,2144           00006                           EXTEND
000174: 36,2145           31425                           DCA      TIG                                   #  STORE NOMINAL TIG FOR OBLATENESS COMP.
000175: 36,2146           53574                           DXCH     GOBLTIME                              #  AND FOR P70 OR P71.
000176:
000177: 36,2147           06014                           TC       INTPRET
000178: 36,2150           44234                           RTB      BDSU
000179: 36,2151           21454                                    LOADTIME
000180: 36,2152           03425                                    TIG
000181: 36,2153           51025                           DSU      BPL
000182: 36,2154           35753                                    SEC45DP
000183: 36,2155           74176                                    ONTIME
000184: 36,2156           77776                           EXIT
000185:
000186: 36,2157           51430                           INDEX    WHICH
000187: 36,2160           10004                           TCF      4
000188:
000189: 36,2161           05646        TOOLATE            TC       ALARM
000190: 36,2162           01703                           OCT      1703
000191:
000192: 36,2163           35056                           CAF      V05N09
000193: 36,2164           04655                           TC       BANKCALL
000194: 36,2165           20406                           CADR     GOFLASH
000195: 36,2166           04106                           TC       GOTOPOOH
000196: 36,2167           02171                           TC       PUSHTIG
000197: 36,2170           12163                           TCF      -5
000198:
000199: 36,2171           06014        PUSHTIG            TC       INTPRET
000200: 36,2172           43234                           RTB      DAD
000201: 36,2173           21454                                    LOADTIME
000202: 36,2174           35753                                    SEC45DP
000203: 36,2175           03425                           STORE    TIG
000204:
000205: 36,2176           45345        ONTIME             DLOAD    DSU
000206: 36,2177           03425                                    TIG
000207: 36,2200           35125                                    D29.9SEC
000208: 36,2201           00041                           STORE    TDEC1
000209: 36,2202           03457                           STORE    SAVET-30
000210: 36,2203           77776                           EXIT
000211:
000212: 36,2204           00004                           INHINT
000213: 36,2205           04737                           TC       IBNKCALL
000214: 36,2206           75561                           CADR     ENGINOF3
000215: 36,2207           00003                           RELINT
000216:
000217: 36,2210           51430                           INDEX    WHICH
000218: 36,2211           10005                           TCF      5
000219:
000220: 36,2212  36,2212               P12SPOT            =        P40SPOT                               #  (5)
000221: 36,2212  36,2212               P42SPOT            =        P40SPOT                               #  (5)
000222: 36,2212  36,2215               P63SPOT            =        P41SPOT                               #  (5)      IN P63 CLOKTASK ALREADY GOING
000223: 36,2212  36,2212               P70SPOT            =        P40SPOT                               #  (5)
000224: 36,2212  36,2212               P71SPOT            =        P40SPOT                               #  (5)
000225: 36,2212           45022        P40SPOT            CS       OCT20                                 #  (5)
000226: 36,2213           04655                           TC       BANKCALL                              #  MUST BE BANKCALLED FOR GENERALIZED
000227: 36,2214           74654                           CADR     STCLOK2                               #        RETURN
000228: 36,2215           06014        P41SPOT            TC       INTPRET                               #  (5)
000229: 36,2216           77624                           CALL
000230: 36,2217           65673                                    TIGINT
000231: 36,2220           77624                           CALL
000232: 36,2221           61213                                    INITCDUW
000233: 36,2222           44234                           RTB      BDSU
000234: 36,2223           21454                                    LOADTIME
000235: 36,2224           03457                                    SAVET-30
000236: 36,2225           45240                           BMN      DSU
000237: 36,2226           74271                                    INTLATE
000238: 36,2227           35755                                    5SECDP
000239: 36,2230           77640                           BMN
000240: 36,2231           74250                                    MISSED35
000241: 36,2232           03457                           STORE    SAVET-30
000242: 36,2233           77776                           EXIT
000243:
000244: 36,2234           05365                           TC       CHECKMM
000245: 36,2235           00077                           DEC      63         B-14
000246: 36,2236           12241                           TCF      +3                                    #  NOT P63
000247: 36,2237           45022                           CS       CNTDNDEX                              #  P63 CAN START DISPLAYING NOW.
000248: 36,2240           55175                           TS       DISPDEX
000249:
000250: 36,2241           52155        CALLT-35           DXCH     MPAC
000251: 36,2242           05337                           TC       LONGCALL
000252: 36,2243  E7,1426                                  EBANK=   TTOGO
000253: 36,2243           02275 74067                     2CADR    TIG-35
000254: 36,2245           05413                           TC       PHASCHNG
000255: 36,2246           20254                           OCT      20254                                 #  4.25SPOT FOR TIG-35 RESTART.
000256:
000257: 36,2247           15225                           TCF      ENDOFJOB
000258:
000259: 36,2250           77415        MISSED35           DAD      EXIT
000260: 36,2251           35755                                    5SECDP
000261:
000262: 36,2252           52155                           DXCH     MPAC
000263: 36,2253           07516                           TC       ALSIGNAG
000264: 36,2254           56001                           XCH      L
000265: 36,2255           55456                           TS       SAVET-30
000266: 36,2256           00004                           INHINT
000267: 36,2257           05243                           TC       TWIDDLE
000268: 36,2260           02333                           ADRES    TIG-30
000269: 36,2261           05413                           TC       PHASCHNG
000270: 36,2262           47014                           OCT      47014
000271: 36,2263           76321                           -GENADR  SAVET-30
000272: 36,2264  E7,1473                                  EBANK=   TGO
000273: 36,2264           02333 74067                     2CADR    TIG-30
000274:
000275: 36,2266           45025                           CS       BLANKDEX
000276: 36,2267           55175                           TS       DISPDEX
000277: 36,2270           15225                           TCF      ENDOFJOB
000278:
000279: 36,2271           77776        INTLATE            EXIT
000280: 36,2272           05646                           TC       ALARM
000281: 36,2273           01711                           OCT      1711
000282: 36,2274           13716                           TCF      P40ALM     +2
000283:
000284:
000285:                                                                                                  #                ****************************************
000286:
000287: 36,2275           33755        TIG-35             CAF      5SEC
000288: 36,2276           05243                           TC       TWIDDLE
000289: 36,2277           02333                           ADRES    TIG-30
000290:
000291: 36,2300           05413                           TC       PHASCHNG
000292: 36,2301           40154                           OCT      40154                                 #  4.15SPOT FOR TIG-30 RESTART
000293:
000294: 36,2302           45025                           CS       BLANKDEX                              #  BLANK DSKY FOR 5 SECONDS
000295: 36,2303           55175                           TS       DISPDEX
000296:
000297: 36,2304           51430                           INDEX    WHICH
000298: 36,2305           40006                           CS       6                                     #  CHECK ULLAGE TIME.
000299: 36,2306           00006                           EXTEND
000300: 36,2307           65321                           BZMF     TASKOVER
000301: 36,2310           33127                           CAF      4.9SEC                                #  SET UP TASK TO RESTORE DISPLAY AT TIG-30
000302: 36,2311           05243                           TC       TWIDDLE
000303: 36,2312           02323                           ADRES    TIG-30.1
000304:
000305: 36,2313           35077                           CAF      PRIO17                                #  A NEGATIVE ULLAGE TIME INDICATES P41, IN
000306: 36,2314           05142                           TC       NOVAC                                 #  WHICH CASE WE HAVE TO SET UP A JOB TO
000307: 36,2315  E7,1426                                  EBANK=   TTOGO                                 #  BLANK THE DSKY FOR FIVE SECONDS, SINCE
000308: 36,2315           02320 74067                     2CADR    P41BLANK                              #  CLOKJOB IS NOT RUNNING DURING P41.
000309:
000310: 36,2317           15321                           TCF      TASKOVER
000311:
000312: 36,2320           04655        P41BLANK           TC       BANKCALL                              #  BLANK DSKY.
000313: 36,2321           20371                           CADR     CLEANDSP
000314: 36,2322           15225                           TCF      ENDOFJOB
000315:
000316: 36,2323           35077        TIG-30.1           CAF      PRIO17                                #  SET UP JOB TO RESTORE DISPLAY AT TIG-30
000317: 36,2324           05142                           TC       NOVAC
000318: 36,2325  E7,1426                                  EBANK=   TTOGO
000319: 36,2325           02330 74067                     2CADR    TIG-30A
000320: 36,2327           15321                           TCF      TASKOVER
000321:
000322: 36,2330           33764        TIG-30A            CAF      V16N85B
000323: 36,2331           04655                           TC       BANKCALL                              #  RESTORE DISPLAY.
000324: 36,2332           20400                           CADR     REGODSP                               #  REGODSP DOES A TCF ENDOFJOB
000325:
000326:
000327:                                                                                                  #                *****************************************
000328:
000329:
000330: 36,2333           33126        TIG-30             CAF      S24.9SEC
000331: 36,2334           05243                           TC       TWIDDLE
000332: 36,2335           02402                           ADRES    TIG-5
000333:
000334: 36,2336           45022                           CS       CNTDNDEX                              #  START UP CLOKTASK AGAIN
000335: 36,2337           55175                           TS       DISPDEX
000336:
000337: 36,2340           51430                           INDEX    WHICH                                 #  PICK UP APPROPRIATE ULLAGE-ON TIME
000338: 36,2341           30006                           CAF      6
000339: 36,2342           00006                           EXTEND
000340: 36,2343           62355                           BZMF     ULLGNOT                               #  DON'T SET UP ULLAGE IF DT IS NEG OR ZERO
000341: 36,2344           55456                           TS       SAVET-30                              #  SAVE DELTA-T FOR RESTART
000342: 36,2345           05243                           TC       TWIDDLE
000343: 36,2346           02376                           ADRES    ULLGTASK
000344:
000345: 36,2347           36221                           CA       THREE                                 #  RESTART PROTECT ULLGTASK (1.3SPOT)
000346: 36,2350           54001                           TS       L
000347: 36,2351           46221                           CS       THREE
000348: 36,2352           52753                           DXCH     -PHASE1
000349: 36,2353           40025                           CS       TIME1
000350: 36,2354           55054                           TS       TBASE1
000351:
000352: 36,2355           00006        ULLGNOT            EXTEND
000353: 36,2356           51430                           INDEX    WHICH
000354: 36,2357           30010                           DCA      7                                     #  LOAD AVEGEXIT WITH APPROPRIATE 2CADR
000355: 36,2360           53253                           DXCH     AVEGEXIT
000356:
000357: 36,2361           35025                           CAF      TWO                                   #  4.2SPOT RESTARTS IMMEDIATELY AT REDO4.2
000358: 36,2362           54001                           TS       L
000359: 36,2363           45025                           CS       TWO                                   #  AND ALSO AT TIG-5 AT THE CORRECT TIME.
000360: 36,2364           52761                           DXCH     -PHASE4
000361:
000362: 36,2365           40025                           CS       TIME1
000363: 36,2366           55062                           TS       TBASE4                                #  SET TBASE4 FOR TIG-5 RESTART
000364:
000365: 36,2367           00006        REDO2.17           EXTEND
000366: 36,2370           35030                           DCA      NEG0                                  #  CLEAR OUT GROUP 2 SO LAMBERT CAN START
000367: 36,2371           52755                           DXCH     -PHASE2                               #        IF NEEDED.
000368:
000369: 36,2372           10763        REDO4.2            CCS      PHASE5                                #  IS SERVICER GOING?
000370: 36,2373           15321                           TCF      TASKOVER                              #  YES, DON'T START IT UP AGAIN.
000371:
000372: 36,2374           04674                           TC       POSTJUMP
000373: 36,2375           66000                           CADR     PREREAD                               #  PREREAD ENDS THIS TASK
000374:
000375:
000376:                                                                                                  #                ****************************************
000377:
000378:
000379: 36,2376           02647        ULLGTASK           TC       ONULLAGE                              #  THIS COMES AT TIG-7.5 OR TIG-3.5
000380: 36,2377           05413                           TC       PHASCHNG
000381: 36,2400           00001                           OCT      1
000382: 36,2401           15321                           TCF      TASKOVER
000383:
000384:
000385:                                                                                                  #                ****************************************
000386:
000387: 36,2402           33755        TIG-5              CAF      5SEC
000388: 36,2403           05243                           TC       TWIDDLE
000389: 36,2404           02426                           ADRES    TIG-0
000390:
000391: 36,2405           05575                           TC       DOWNFLAG                              #  RESET IGNFLAG AND ASTNFLAG
000392: 36,2406           00153                           ADRES    IGNFLAG                               #    FOR LIGHT-UP LOGIC
000393: 36,2407           05575                           TC       DOWNFLAG
000394: 36,2410           00154                           ADRES    ASTNFLAG
000395:
000396: 36,2411           05373                           TC       2PHSCHNG
000397: 36,2412           40074                           OCT      40074                                 #  RESTART TIG-0 (4.7SPOT)
000398: 36,2413           05013                           OCT      05013                                 #  RESTART HERE (FOR S40.13 IF NEEDED)
000399: 36,2414           77777                           OCT      77777
000400:
000401: 36,2415           51430                           INDEX    WHICH
000402: 36,2416           10011                           TCF      11
000403:
000404: 36,2417           35011        P40SJUNK           CAF      PRIO20                                #  (11)     P40 AND P42 COME HERE
000405: 36,2420           05155                           TC       FINDVAC
000406: 36,2421  E7,1426                                  EBANK=   TTOGO
000407: 36,2421           02703 56067                     2CADR    S40.13
000408:
000409:
000410: 36,2423           45743        DISPCHNG           CS       VB99DEX                               #  (11)
000411: 36,2424           55175                           TS       DISPDEX
000412: 36,2425           15321                           TCF      TASKOVER
000413:
000414:
000415:                                                                                                  #                ****************************************
000416:
000417: 36,2426           40103        TIG-0              CS       FLAGWRD7                              #  SET IGNFLAG SINCE TIG HAS ARRIVED
000418: 36,2427           75012                           MASK     IGNFLBIT
000419: 36,2430           26103                           ADS      FLAGWRD7
000420:
000421: 36,2431           05365                           TC       CHECKMM                               #  IN P63 CASE, THROTTLE-UP IS ZOOMTIME
000422: 36,2432           00077                           DEC      63         B-14                       #    AFTER NOMINAL IGNITION, NOT ACTUAL
000423: 36,2433           12441                           TCF      IGNYET?
000424: 36,2434           31421                           CA       ZOOMTIME
000425: 36,2435           05243                           TC       TWIDDLE
000426: 36,2436           02566                           ADRES    ZOOM
000427:
000428: 36,2437           05413                           TC       PHASCHNG
000429: 36,2440           40033                           OCT      40033
000430:
000431: 36,2441           35013        IGNYET?            CAF      ASTNBIT                               #  CHECK ASTNFLAG:  HAS ASTRONAUT RESPONDED
000432: 36,2442           70103                           MASK     FLAGWRD7                              #    TO OUR ENGINE ENABLE REQUEST?
000433: 36,2443           00006                           EXTEND
000434: 36,2444           51430                           INDEX    WHICH
000435: 36,2445           10012                           BZF      12                                    #  BRANCH IF HE HAS NOT RESPONDED YET
000436:
000437: 36,2446           44367        IGNITION           CS       PRIO30                                #  TURN ON THE ENGINE.
000438: 36,2447           00006                           EXTEND
000439: 36,2450           02011                           RAND     DSALMOUT
000440: 36,2451           65012                           AD       BIT13
000441: 36,2452           00006                           EXTEND
000442: 36,2453           01011                           WRITE    DSALMOUT
000443: 36,2454           00006                           EXTEND                                         #  SET TEVENT FOR DOWNLINK
000444: 36,2455           30025                           DCA      TIME2
000445: 36,2456           53355                           DXCH     TEVENT
000446:
000447: 36,2457           00006                           EXTEND                                         #  UPDATE TIG USING TGO FROM S40.13
000448: 36,2460           31474                           DCA      TGO
000449: 36,2461           53425                           DXCH     TIG
000450: 36,2462           00006                           EXTEND
000451: 36,2463           30025                           DCA      TIME2
000452: 36,2464           21425                           DAS      TIG
000453:
000454: 36,2465           51430                           INDEX    WHICH
000455: 36,2466           10013                           TCF      13
000456:
000457: 36,2467           00006        P63IGN             EXTEND                                         #  (13)     INITIATE BURN DISPLAYS
000458: 36,2470           33120                           DCA      DSP2CADR
000459: 36,2471           55175                           TS       DISPDEX                               #  ASSASSINATE CLOKTASK
000460: 36,2472           53253                           DXCH     AVGEXIT
000461:
000462: 36,2473           00006                           EXTEND                                         #  INITIALIZE TIG FOR P70 AND P71.
000463: 36,2474           30025                           DCA      TIME2
000464: 36,2475           53425                           DXCH     TIG
000465:
000466: 36,2476           40105                           CS       FLAGWRD9                              #  SET FLAG FOR P70-P71
000467: 36,2477           75016                           MASK     LETABBIT
000468: 36,2500           26105                           ADS      FLAGWRD9
000469:
000470: 36,2501           33123                           CA       BRAKQADR                              #  INITIALIZE WCHPHASE AND FLPASSO
000471: 36,2502           55606                           TS       WCHPHASE
000472: 36,2503           35025                           CA       TWO
000473: 36,2504           55607                           TS       FLPASS0
000474:
000475: 36,2505           12521                           TCF      SETGIMBL
000476:
000477: 36,2506  36,2506               P70IGN             =        P40IGN                                #  (13)
000478: 36,2506           40101        P40IGN             CS       FLAGWRD5                              #  (13)
000479: 36,2507           75013                           MASK     NOTHRBIT
000480: 36,2510           00006                           EXTEND
000481: 36,2511           12521                           BZF      SETGIMBL
000482: 36,2512           31421                           CA       ZOOMTIME                              #  WAITLIST FOR ZOOM (FLATOUT. ETC.)
000483: 36,2513           05243                           TC       TWIDDLE
000484: 36,2514           02566                           ADRES    ZOOM
000485:
000486: 36,2515           05373        P63IGN1            TC       2PHSCHNG
000487: 36,2516           40033                           OCT      40033                                 #  3.3SPOT FOR ZOOM RESTART.
000488: 36,2517           05014                           OCT      05014                                 #  TYPE C   RESTARTS HERE IMMEDIATELY
000489: 36,2520           77777                           OCT      77777
000490:
000491: 36,2521           40075        SETGIMBL           CS       FLAGWRD1
000492: 36,2522           75023                           MASK     GIMBFBIT
000493: 36,2523           26075                           ADS      FLAGWRD1
000494: 36,2524           12527                           TCF      P42IGN
000495:
000496: 36,2525           35026        P12IGN             CA       ONE                                   #  (13)     KILL CLOKTASK
000497: 36,2526           55175                           TS       DISPDEX
000498:
000499: 36,2527  36,2527               P71IGN             =        P42IGN                                #  (13)
000500: 36,2527           05563        P42IGN             TC       UPFLAG                                #  INSURE ENGONFLG IS SET.
000501: 36,2530           00123                           ADRES    ENGONFLG
000502: 36,2531           45017                           CS       DRIFTBIT                              #  ENSURE THAT POWERED-FLIGHT SWITCHING
000503: 36,2532           71102                           MASK     DAPBOOLS                              #    CURVES ARE USED.
000504: 36,2533           55102                           TS       DAPBOOLS
000505: 36,2534           35016                           CAF      IMPULBIT                              #  EXAMINE IMPULSE SWITCH
000506: 36,2535           70076                           MASK     FLAGWRD2
000507: 36,2536           10000                           CCS      A
000508: 36,2537           13520                           TCF      IMPLBURN
000509:
000510: 36,2540           05575        DVMONCON           TC       DOWNFLAG
000511: 36,2541           00153                           ADRES    IGNFLAG                               #  CONNECT DVMON
000512: 36,2542           05575                           TC       DOWNFLAG
000513: 36,2543           00154                           ADRES    ASTNFLAG
000514: 36,2544           05575                           TC       DOWNFLAG
000515: 36,2545           00161                           ADRES    IDLEFLAG
000516:
000517: 36,2546           05413                           TC       PHASCHNG
000518: 36,2547           40054                           OCT      40054
000519:
000520: 36,2550           05271                           TC       FIXDELAY                              #  TURN ULLAGE OFF HALF A SECOND AFTER
000521: 36,2551           00062                           DEC      50         B-14                       #  LIGHT UP.
000522:
000523: 36,2552           02643        ULLAGOFF           TC       NOULLAGE
000524:
000525: 36,2553           00006        WAITABIT           EXTEND                                         #  KILL GROUP 4
000526: 36,2554           35030                           DCA      NEG0
000527: 36,2555           52761                           DXCH     -PHASE4
000528:
000529: 36,2556           15321                           TCF      TASKOVER
000530:
000531:
000532:                                                                                                  #                ****************************************
000533:
000534: 36,2557           35076        TIGTASK            CAF      PRIO16                                #  TIGNOW MUST BE A JOB.
000535: 36,2560           05142                           TC       NOVAC
000536: 36,2561  E7,1447                                  EBANK=   TRKMKCNT
000537: 36,2561           03224 74067                     2CADR    TIGNOW
000538: 36,2563           05413                           TC       PHASCHNG
000539: 36,2564           00006                           OCT      6                                     #  KILL GROUP 6.
000540:
000541: 36,2565           15321                           TCF      TASKOVER
000542:
000543:
000544:                                                                                                  #                ****************************************
000545:
000546: 36,2566           51430        ZOOM               INDEX    WHICH
000547: 36,2567           10014                           TCF      14
000548:
000549: 36,2570           00006        P63ZOOM            EXTEND                                         #  (4)   SET UP GUIDANCE.
000550: 36,2571           33122                           DCA      LUNLANAD
000551: 36,2572           53253                           DXCH     AVEGEXIT
000552:
000553: 36,2573           05575                           TC       DOWNFLAG
000554: 36,2574           00144                           ADRES    KILLROSE
000555:
000556: 36,2575           35034                           CAF      THIRTEEN
000557: 36,2576           05252                           TC       WAITLIST
000558: 36,2577  E7,1430                                  EBANK=   WHICH
000559: 36,2577           03137 64067                     2CADR    ROSEN
000560:
000561: 36,2601  36,2601               P70ZOOM            =        P40ZOOM                               #  (4)
000562: 36,2601           04737        P40ZOOM            TC       IBNKCALL                              #  (4) THROTTLE THE DPS TO MAXIMUM THRUST.
000563: 36,2602           62364                           CADR     FLATOUT
000564:
000565: 36,2603           05413                           TC       PHASCHNG
000566: 36,2604           00003                           OCT      3
000567: 36,2605           15321                           TCF      TASKOVER
000568:
000569:
000570:                                                                                                  #                ****************************************
000571:
000572: 36,2606           51430        COMFAIL            INDEX    WHICH
000573: 36,2607           10015                           TCF      15
000574:
000575: 36,2610           05413        COMFAIL2           TC       PHASCHNG                              #  KILL ZOOM RESTART PROTECTION
000576: 36,2611           00003                           OCT      00003
000577:
000578: 36,2612           00004                           INHINT
000579: 36,2613           06005                           TC       KILLTASK                              #  KILL ZOOM, IN CASE IT'S STILL TO COME
000580: 36,2614           74566                           CADR     ZOOM
000581: 36,2615           04737                           TC       IBNKCALL                              #  COMMAND ENGINE OFF
000582: 36,2616           75546                           CADR     ENGINOF1
000583: 36,2617           02647                           TC       ONULLAGE
000584: 36,2620           35024                           CAF      FOUR                                  #  RESET DVMON
000585: 36,2621           55472                           TS       DVCNTR
000586: 36,2622           44112                           CS       OCT24
000587: 36,2623           55424                           TS       TIG
000588: 36,2624           35026                           CAF      BIT1
000589: 36,2625           05243                           TC       TWIDDLE
000590: 36,2626           02402                           ADRES    TIG-5
000591:
000592: 36,2627           05373                           TC       2PHSCHNG
000593: 36,2630           00174                           OCT      00174
000594: 36,2631           10035                           OCT      10035
000595:
000596: 36,2632           00006                           EXTEND
000597: 36,2633           31253                           DCA      AVEGEXIT
000598: 36,2634           52006                           DTCB
000599:
000600:
000601:                                                                                                  #                ****************************************
000602:                                                                                                  #                SUBROUTINES OF THE IGNITION ROUTINE
000603:                                                                                                  #                ****************************************
000604:
000605: 36,2635           30002        INVFLAG            CA       Q
000606: 36,2636           05601                           TC       DEBIT
000607: 36,2637           40000                           COM
000608: 36,2640           00006                           EXTEND
000609: 36,2641           06001                           RXOR     LCHAN
000610: 36,2642           15570                           TCF      COMFLAG
000611:
000612:
000613:                                                                                                  #                ****************************************
000614:
000615: 36,2643           45021        NOULLAGE           CS       ULLAGER                               #  MUST BE CALLED IN A TASK OR UNDER INHINT
000616: 36,2644           71102                           MASK     DAPBOOLS
000617: 36,2645           55102                           TS       DAPBOOLS
000618: 36,2646           00002                           TC       Q
000619:
000620:
000621:                                                                                                  #                ****************************************
000622:
000623: 36,2647           41102        ONULLAGE           CS       DAPBOOLS                              #  TURN ON ULLAGE.  MUST BE CALLED IN
000624: 36,2650           75021                           MASK     ULLAGER                               #  A TASK OR WHILE INHINTED.
000625: 36,2651           27102                           ADS      DAPBOOLS
000626: 36,2652           00002                           TC       Q
000627:
000628:
000629:                                                                                                  #                ****************************************
000630:
000631:
000632: 36,2653           35030        STCLOK1            CA       ZERO                                  #  THIS ROUTINE STARTS THE COUNT-DOWN
000633: 36,2654           55175        STCLOK2            TS       DISPDEX                               #    (CLOKTASK AND CLOKJOB).   SETTING
000634: 36,2655           04704        STCLOK3            TC       MAKECADR                              #  SETTING DISPDEX POSITIVE KILLS IT.
000635: 36,2656           55062                           TS       TBASE4                                #  RETURN SAVE (NOT FOR RESTARTS)
000636: 36,2657           00006                           EXTEND
000637: 36,2660           31425                           DCA      TIG
000638: 36,2661           52155                           DXCH     MPAC
000639: 36,2662           00006                           EXTEND
000640: 36,2663           40025                           DCS      TIME2
000641: 36,2664           20155                           DAS      MPAC                                  #  HAVE TIG - TIME2, UNDOUBTEDLY A + NUMBER
000642: 36,2665           07231                           TC       TPAGREE                               #  POSITIVE, SINCE WE PASSED THE
000643: 36,2666           35047                           CAF      1SEC                                  #    45 SECOND CHECK
000644: 36,2667           54002                           TS       Q
000645: 36,2670           52155                           DXCH     MPAC
000646: 36,2671           74360                           MASK     LOW5                                  #  RESTRICT MAGNITUDE OF NUMBER IN A
000647: 36,2672           00006                           EXTEND
000648: 36,2673           10002                           DV       Q
000649: 36,2674           30001                           CA       L                                     #  GET REMAINDER
000650: 36,2675           65025                           AD       TWO
000651: 36,2676           00004                           INHINT
000652: 36,2677           05243                           TC       TWIDDLE
000653: 36,2700           02707                           ADRES    CLOKTASK
000654: 36,2701           05373                           TC       2PHSCHNG
000655: 36,2702           40036                           OCT      40036                                 #  6.3SPOT FOR CLOKTASK
000656: 36,2703           05024                           OCT      05024
000657: 36,2704           13000                           OCT      13000
000658:
000659: 36,2705           31062                           CA       TBASE4
000660: 36,2706           04677                           TC       BANKJUMP
000661:
000662:
000663: 36,2707           40025        CLOKTASK           CS       TIME1                                 #  SET TBASE6 FOR GROUP 6 RESTART
000664: 36,2710           55066                           TS       TBASE6
000665:
000666: 36,2711           11175                           CCS      DISPDEX
000667: 36,2712           12723                           TCF      KILLCLOK
000668: 36,2713           12714                           NOOP
000669: 36,2714           37667                           CAF      PRIO27
000670: 36,2715           05142                           TC       NOVAC
000671: 36,2716  E7,1426                                  EBANK=   TTOGO
000672: 36,2716           02727 74067                     2CADR    CLOKJOB
000673:
000674:
000675: 36,2720           05271                           TC       FIXDELAY                              #  WAIT A SECOND BEFORE STARTING OVER
000676: 36,2721           00144                           DEC      100        B-14
000677: 36,2722           12707                           TCF      CLOKTASK
000678:
000679: 36,2723           00006        KILLCLOK           EXTEND                                         #  KILL RESTART
000680:
000681: 36,2724           35030                           DCA      NEG0
000682: 36,2725           52765                           DXCH     -PHASE6
000683: 36,2726           15321                           TCF      TASKOVER
000684:
000685:
000686: 36,2727           00006        CLOKJOB            EXTEND
000687: 36,2730           41425                           DCS      TIG
000688: 36,2731           53427                           DXCH     TTOGO
000689: 36,2732           00006                           EXTEND
000690: 36,2733           30025                           DCA      TIME2
000691: 36,2734           21427                           DAS      TTOGO
000692: 36,2735           00004                           INHINT
000693: 36,2736           11175                           CCS      DISPDEX                               #  IF DISPDEX HAS BEEN SET POSITIVE BY A
000694: 36,2737           15225                           TCF      ENDOFJOB                              #  TASK OR A HIGHER PRIORITY JOB SINCE THE
000695: 36,2740           15225                           TCF      ENDOFJOB                              #  LAST CLOKTASK, AVOID USING IT AS AN
000696: 36,2741           40000                           COM                                            #  INDEX.
000697: 36,2742           00003                           RELINT                                         #  *****  DISPDEX MUST NEVER BE -0  *****
000698: 36,2743           50000                           INDEX    A
000699: 36,2744           12773                           TCF      DISPNOT    -1                         #  (-1 DUE TO EFFECT OF CCS)
000700:
000701:                                                                                                  #  THIS DISPLAY IS CALLED VIA ASTNCLOK.
000702: 36,2745           51430                 -27       INDEX    WHICH                                 #  IT IS PRIMARILY USED BY THE ASTRONAUT
000703: 36,2746           30001                           CAF      1                                     #  TO RESET HIS EVENT TIMER TO AGREE WITH
000704: 36,2747           04655                           TC       BANKCALL                              #  TIG.
000705: 36,2750           20372                           CADR     REFLASH
000706: 36,2751           14106                           TCF      GOTOPOOH
000707: 36,2752           12777                           TCF      ASTNRETN
000708: 36,2753           12745                           TCF      -6
000709:
000710: 36,2754     5022               CNTDNDEX           =        OCT20                                 #  NEGATIVE OF THIS IS PROPER FOR DISPDEX
000711:
000712: 36,2754           51430                 -20       INDEX    WHICH                                 #  THIS DISPLAY COMES UP AT ONE SECOND
000713: 36,2755           30000                           CAF      0                                     #  INTERVALS.  IT IS NORMALLY OPERATED
000714: 36,2756           04655                           TC       BANKCALL                              #  BETWEEN TIG-30 SECONDS AND TIG-5 SECONDS
000715: 36,2757           20400                           CADR     REGODSP                               #  REGODSP DOES ITS OWN TCF ENDOFJOB
000716:
000717: 36,2760     5743               VB99DEX            =        OCT14                                 #  NEGATIVE OF THIS IS PROPER FOR DISPDEX
000718:
000719:
000720: 36,2760                        V99RECYC           EQUALS
000721:
000722: 36,2760           51430                 -14       INDEX    WHICH                                 #  THIS IS THE "PLEASE ENABLE ENGINE"
000723: 36,2761           30000                           CAF      0                                     #  DISPLAY; IT IS INITIATED AT TIG-5 SEC.
000724: 36,2762           04655                           TC       BANKCALL                              #  THE DISPLAY IS A V99NXX, WHERE XX IS THE
000725: 36,2763           20544                           CADR     GOFLASHR                              #  NOUN THAT HAD PREVIOUSLY BEEN DISPLAYED
000726: 36,2764           12775                           TCF      STOPCLOK                              #  TERMINATE  GOTOPOOH TURNS OFF ULLAGE.
000727: 36,2765           13005                           TCF      *PROCEED
000728: 36,2766           13011                           TCF      *ENTER
000729: 36,2767           33131                           CAF      VB99CON
000730: 36,2770           05553                           TC       LINUS
000731: 36,2771           15225                           TCF      ENDOFJOB
000732:
000733: 36,2772     5025               BLANKDEX           =        TWO                                   #  NEGATIVE OF THIS IS PROPER FOR DISPDEX
000734:
000735: 36,2772           04655                 -2        TC       BANKCALL                              #  BLANK DSKY.  THE DSKY IS BLANKED FOR
000736: 36,2773           20371                           CADR     CLEANDSP                              #  5 SECONDS AT TIG-35 TO INDICATE THAT
000737: 36,2774           15225        DISPNOT            TCF      ENDOFJOB                              #  AVERAGE G IS STARTING.
000738:
000739:
000740: 36,2775           03040        STOPCLOK           TC       NULLCLOK                              #  STOP CLOKTASK & TURN OFF ULLAGE ON THE
000741: 36,2776           14106                           TCF      GOTOPOOH                              #      WAY TO P00  (GOTOPOOH RELINTS)
000742:
000743: 36,2777           35073        ASTNRETN           CAF      PRIO13
000744: 36,3000           00004                           INHINT
000745: 36,3001           05155                           TC       FINDVAC
000746: 36,3002  E7,1426                                  EBANK=   TTOGO
000747: 36,3002           03110 74067                     2CADR    GOBACK
000748: 36,3004           15225                           TCF      ENDOFJOB
000749:
000750:
000751: 36,3005           05563        *PROCEED           TC       UPFLAG
000752: 36,3006           00154                           ADRES    ASTNFLAG
000753: 36,3007           51430                           INDEX    WHICH
000754: 36,3010           10002                           TCF      2
000755:
000756:
000757: 36,3011           51430        *ENTER             INDEX    WHICH
000758: 36,3012           10003                           TCF      3
000759:
000760:
000761: 36,3013           34703        GOPOST             CAF      PRIO12                                #  (3)  MUST BE LOWER PRIORITY THAN CLOKJOB
000762: 36,3014           05155                           TC       FINDVAC
000763: 36,3015  E7,1426                                  EBANK=   TTOGO
000764: 36,3015           03206 74067                     2CADR    POSTBURN
000765: 36,3017           03040                           TC       NULLCLOK
000766: 36,3020           05413                           TC       PHASCHNG                              #  4.13 RESTART FOR POSTBURN
000767: 36,3021           00134                           OCT      00134
000768:
000769: 36,3022           15225                           TCF      ENDOFJOB
000770:
000771:
000772: 36,3023           40103        IGNITE             CS       FLAGWRD7                              #  (2)
000773: 36,3024           75012                           MASK     IGNFLBIT
000774: 36,3025           10000                           CCS      A
000775: 36,3026           13035                           TCF      IGNITE1
000776: 36,3027           35026                           CAF      BIT1
000777: 36,3030           00004                           INHINT
000778:
000779: 36,3031           05243                           TC       TWIDDLE
000780: 36,3032           02446                           ADRES    IGNITION
000781:
000782: 36,3033           05413                           TC       PHASCHNG                              #  IMMEDIATE RESTART AT IGNITION.
000783: 36,3034           00234                           OCT      00234
000784:
000785: 36,3035           45022        IGNITE1            CS       CNTDNDEX                              #  RESTORE OLD DISPLAY.
000786: 36,3036           55175                           TS       DISPDEX
000787:
000788: 36,3037           15225                           TCF      ENDOFJOB
000789:
000790: 36,3040           00004        NULLCLOK           INHINT
000791: 36,3041           00006                           EXTEND
000792: 36,3042           23153                           QXCH     P40/RET
000793: 36,3043           02643                           TC       NOULLAGE                              #  TURN OFF ULLAGE ...
000794: 36,3044           06005                           TC       KILLTASK                              #     DON'T LET IT COME ON, EITHER ...
000795: 36,3045           74376                           CADR     ULLGTASK
000796: 36,3046           05413                           TC       PHASCHNG                              #           NOT EVEN IF THERE'S A RESTART.
000797: 36,3047           00001                           OCT      1
000798: 36,3050           30005                           CA       Z                                     #  KILL CLOKTASK
000799: 36,3051           55175                           TS       DISPDEX
000800: 36,3052           01153                           TC       P40/RET
000801:
000802: 36,3053           04704        GOASTCLK           TC       MAKECADR
000803: 36,3054           55176                           TS       TEMPR60
000804: 36,3055           35030                           CAF      ZERO
000805: 36,3056           55466                           TS       DVTOTAL
000806: 36,3057           55467                           TS       DVTOTAL    +1
000807: 36,3060           43130        ASTNCLOK           CS       ASTNDEX
000808: 36,3061           04655                           TC       BANKCALL
000809: 36,3062           74654                           CADR     STCLOK2
000810: 36,3063           15225                           TCF      ENDOFJOB                              #  RETURN IN NEW JOB AND IN EBANK FIVE
000811:
000812:
000813:                                                                                                  #                ****************************************
000814:
000815: 36,3064           04704        P40AUTO            TC       MAKECADR                              #  HELLO THERE.
000816: 36,3065           55176                           TS       TEMPR60                               #  FOR GENERALIZED RETURN TO OTHER BANKS.
000817: 36,3066           04655        P40A/P             TC       BANKCALL                              #  SUBROUTINE TO CHECK PGNCS CONTROL
000818: 36,3067           54271                           CADR     G+N,AUTO                              #  AND AUTO STABILIZATION MODES
000819: 36,3070           10000                           CCS      A                                     #  +0  INDICATES IN PGNCS, IN AUTO
000820: 36,3071           13103                           TCF      TURNITON                              #  + INDICATES NOT IN PGNCS AND/OR AUTO
000821: 36,3072           35013                           CAF      APSFLBIT                              #  ARE WE ON THE DESCENT STAGE?
000822: 36,3073           70075                           MASK     FLAGWRD1
000823: 36,3074           10000                           CCS      A
000824: 36,3075           13110                           TCF      GOBACK                                #  RETURN
000825: 36,3076           35022                           CAF      BIT5                                  #  YES, CHECK FOR AUTOTHROTTLE MODE
000826: 36,3077           00006                           EXTEND
000827: 36,3100           02030                           RAND     CHAN30
000828: 36,3101           00006                           EXTEND
000829: 36,3102           13110                           BZF      GOBACK                                #  IN AUTOTHROTTLE MODE -- RETURN
000830: 36,3103           33762        TURNITON           CAF      P40A/PMD                              #  DISPLAY V50N25 R1=203 PLEASE PERFORM
000831: 36,3104           04655                           TC       BANKCALL                              #  CHECKLIST 203 TURN ON PGNCS ETC.
000832: 36,3105           20532                           CADR     GOPERF1
000833: 36,3106           14106                           TCF      GOTOPOOH                              #  V34E  TERMINATE
000834: 36,3107           13066                           TCF      P40A/P                                #  RECYCLE
000835: 36,3110           35030        GOBACK             CAF      ZERO
000836: 36,3111           55175                           TS       DISPDEX
000837: 36,3112           31176                           CA       TEMPR60
000838: 36,3113           04677                           TC       BANKJUMP                              #  GOODBYE.  COME AGAIN SOON.
000839:
000840:
000841: 36,3114                                           BANK     36
000842: 36,2000                                           SETLOC   P40S
000843:
000844: 36,2000                                           BANK
000845:
000846: 36,3114                                           COUNT*   $$/P40
000847:
000848:                                                                                                  #                ****************************************
000849:                                                                                                  #                CONSTANTS FOR THE IGNITION ROUTINE
000850:                                                                                                  #                ****************************************
000851:
000852: 36,3114  36,2070               SERVCADR           =        P63TABLE   +7
000853:
000854: 36,3114           02016        P40ADRES           ADRES    P40TABLE
000855:
000856: 36,3115           02030        P41ADRES           ADRES    P41TABLE   -5
000857:
000858: 36,3116           02043        P42ADRES           ADRES    P42TABLE
000859:
000860: 36,3117  E7,1606                                  EBANK=   WCHPHASE
000861: 36,3117           03275 62067  DSP2CADR           2CADR    DISPEXIT
000862:
000863:
000864: 36,3121  E7,1606                                  EBANK=   WCHPHASE
000865: 36,3121           02500 62067  LUNLANAD           2CADR    LUNLAND
000866:
000867: 36,3123     4106               ?                  =        GOTOPOOH
000868:
000869: 36,3123           02427        BRAKQADR           REMADR   BRAKQUAD
000870:
000871: 36,3124           00000 05656  D29.9SEC           2DEC     2990       B-28
000872:
000873:
000874: 36,3126           04672        S24.9SEC           DEC      2490       B-14
000875:
000876: 36,3127           00752        4.9SEC             DEC      490        B-14
000877:
000878: 36,3130           00027        ASTNDEX            OCT      00027                                 #  INDEX FOR CLOKTASK
000879:
000880: 36,3131     5022               OCT20              =        BIT5
000881:
000882: 36,3131           24020        VB99CON            OCT      24020                                 #  BITS 5, 12, AND 14
000883:
000884: 36,3132           01505        OCT1505            OCT      1505
000885:


000887:
000888:                                                                                                  #           KILLTASK
000889:                                                                                                  #  MOD NO: NEW PROGRAM
000890:                                                                                                  #  MOD BY: COVELLI
000891:
000892:
000893:                                                                                                  #  FUNCTIONAL DESCRIPTION:
000894:
000895:                                                                                                  #     KILLTASK IS USED TO REMOVE A TASK FROM THE WAITLIST BY SUBSTITUTING ANULL TASK CALLED 'NULLTASK' (OF COURSE),
000896:                                                                                                  #  WHICH MERELY DOES A TC TASKOVER. IF THE SAME TASK IS SCHEDULED MORE THAN ONCE, ONLY THE ONE WHICH WILL OCCUR
000897:                                                                                                  #  FIRST IS REMOVED. IF THE TASK IS NOT SCHEDULED, KILLTASK TAKES NO ACTION AND RETURNS WITH NO ALARM. KILLTASK
000898:                                                                                                  #  MUST BE CALLED IN INTERRUPT OR WITH INTERRUPT INHIBITED.
000899:
000900:                                                                                                  #  CALLING SEQUENCE:
000901:                                                                                                  #                                          L-1     (INHINT)
000902:                                                                                                  #                                          L        TC     KILLTASK       IN FIXED-FIXED
000903:                                                                                                  #                                          L+1      CADR   ????????       CADR (NOT 2CADR) OF TASK TO BE REMOVED.
000904:                                                                                                  #                                          L+2      (RELINT)              RETURN
000905:
000906:                                                                                                  #  EXIT MODE:  AT L+2 OF CALLING SEQUENCE.
000907:
000908:                                                                                                  #  ERASABLE INITIALIZATION=  NONE.
000909:
000910:                                                                                                  #  OUTPUT:  2CADR OF NULLTASK IN LST2
000911:
000912:                                                                                                  #  DEBRIS:  ITEMP1 - ITEMP4, A,L,Q.
000913:
000914: 36,3133  E3,1410                                  EBANK=   LST2
000915:    6005                                           BLOCK    3                                     #  KILLTASK MUST BE IN FIXED-FIXED.
000916:    6000                                           SETLOC   FFTAG6
000917:    6000                                           BANK
000918:    6005                                           COUNT*   $$/KILL
000919:    6005           36013        KILLTASK           CA       KILLBB
000920:    6006           22000                           LXCH     A
000921:    6007           50002                           INDEX    Q
000922:    6010           30000                           CA       0                                     #  GET CADR.
000923:    6011           22006                           LXCH     BBANK
000924:    6012           12205                           TCF      KILLTSK2                              #  CONTINUE IN SWITCHED FIXED
000925:
000926:    6013  E3,1410                                  EBANK=   LST2
000927:    6013           56063        KILLBB             BBCON    KILLTSK2
000928:


000930:
000931:
000932: 27,2205                                           BANK     27
000933:
000934: 27,2000                                           SETLOC   P40S1
000935: 27,2000                                           BANK
000936: 27,2205                                           COUNT*   $$/KILL
000937:
000938: 27,2205           22062        KILLTSK2           LXCH     ITEMP2                                #  SAVE CALLER'S BBANK
000939:
000940: 27,2206           24002                           INCR     Q
000941: 27,2207           00006                           EXTEND
000942: 27,2210           22061                           QXCH     ITEMP1                                #  RETURN 2CADR IN ITEMP1,ITEMP2
000943:
000944: 27,2211           54063                           TS       ITEMP3                                #  CADR IS IN A
000945: 27,2212           75062                           MASK     LOW10
000946: 27,2213           65014                           AD       BIT11
000947: 27,2214           54064                           TS       ITEMP4                                #  GENADR OF TASK
000948:
000949: 27,2215           45062                           CS       LOW10
000950: 27,2216           70063                           MASK     ITEMP3
000951: 27,2217           54063                           TS       ITEMP3                                #  FBANK OF TASK
000952:
000953: 27,2220           22007                           ZL
000954: 27,2221           50001        ADRSCAN            INDEX    L
000955: 27,2222           41410                           CS       LST2
000956: 27,2223           60064                           AD       ITEMP4                                #  COMPARE GENADRS
000957: 27,2224           00006                           EXTEND
000958: 27,2225           12237                           BZF      TSTFBANK                              #  IF THEY MATCH, COMPARE FBANKS
000959: 27,2226           45022        LETITLIV           CS       LSTLIM
000960: 27,2227           60001                           AD       L
000961: 27,2230           00006                           EXTEND                                         #  ARE WE DONE?
000962: 27,2231           12235                           BZF      DEAD                                  #  YES - DONE, SO RETURN
000963: 27,2232           24001                           INCR     L
000964: 27,2233           24001                           INCR     L
000965: 27,2234           12221                           TCF      ADRSCAN                               #  CONTINUE LOOP.
000966:
000967: 27,2235           52062        DEAD               DXCH     ITEMP1
000968: 27,2236           52006                           DTCB
000969:
000970: 27,2237           45062        TSTFBANK           CS       LOW10
000971: 27,2240           50001                           INDEX    L
000972: 27,2241           71411                           MASK     LST2       +1                         #  COMPARE FBANKS ONLY.
000973: 27,2242           00006                           EXTEND
000974: 27,2243           60063                           SU       ITEMP3
000975: 27,2244           00006                           EXTEND
000976: 27,2245           12247                           BZF      KILLDEAD                              #  MATCH - KILL IT.
000977: 27,2246           12226                           TCF      LETITLIV                              #  NO MATCH - CONTINUE.
000978:
000979: 27,2247           34365        KILLDEAD           CA       TCTSKOVR
000980: 27,2250           50001                           INDEX    L
000981: 27,2251           55410                           TS       LST2                                  #  REMOVE TASK BY INSERTING TASKOVER
000982: 27,2252           12235                           TCF      DEAD
000983:
000984: 27,2253     5022               LSTLIM             EQUALS   BIT5                                  #  DEC 16

End of include-file BURN,_BABY,_BURN_--_MASTER_IGNITION_ROUTINE.agc.  Parent file is MAIN.agc


