
Source Code


000002:                                                                                                  ## Copyright:   Public domain.
000003:                                                                                                  ## Filename:    CONIC_SUBROUTINES.agc
000004:                                                                                                  ## Purpose:     A section of a reconstructed, mixed version of Sundance
000005:                                                                                                  ##              It is part of the reconstructed source code for the Lunar
000006:                                                                                                  ##              Module's (LM) Apollo Guidance Computer (AGC) for Apollo 9.
000007:                                                                                                  ##              No original listings of this program are available;
000008:                                                                                                  ##              instead, this file was created via disassembly of dumps
000009:                                                                                                  ##              of various revisions of Sundance core rope modules.
000010:                                                                                                  ## Assembler:   yaYUL
000011:                                                                                                  ## Contact:     Ron Burkey <info@sandroid.org>.
000012:                                                                                                  ## Website:     www.ibiblio.org/apollo/index.html
000013:                                                                                                  ## Mod history: 2020-06-17 MAS  Created from Luminary 69.
000014:
000015:                                                                                                  ## Sundance 302
000016:
000017:                                                                                                  #  PROGRAM DESCRIPTION - ENTIRE CONIC SUBROUTINE LOG SECTION                       DATE - 1 SEPTEMBER 1967
000018:                                                                                                  #  MOD NO. - 0                                                                     LOG SECTION - CONIC SUBROUTINES
000019:                                                                                                  #  MOD BY KRAUSE                                                                   ASSEMBLY - COLOSSUS REVISION 88
000020:
000021:
000022:                                                                                                  #  FUNCTIONAL DESCRIPTION -
000023:
000024:                                                                                                  #       THE FOLLOWING SET OF SUBROUTINES SOLVE VARIOUS PROBLEMS INVOLVING THE TRAJECTORY PRODUCED BY A CENTRAL
000025:                                                                                                  #  INVERSE-SQUARE FORCE ACTING ON A POINT MASS, AS OUTLINED IN THE CMC AND LGC LUNAR LANDING MISSION GSOP, SECTION
000026:                                                                                                  #  5.5.1.2.  A GENERAL USAGE POINT-OF-VIEW WAS TAKEN IN FORMULATING, MECHANIZING, AND SCALING THE SUBROUTINES,
000027:                                                                                                  #  RATHER THAN OPTIMIZING EACH FOR A PARTICULAR USE.  THEREFORE, MULTIPLE USAGE CAN BE MADE OF THE SUBROUTINES
000028:                                                                                                  #  INVOLVING ANY REALISTIC SET OF CONSTRAINTS.  IT SHOULD BE NOTED THAT ONLY ONE SET OF CODING IS USED, WHETHER THE
000029:                                                                                                  #  EARTH, MOON, OR ANY OTHER CELESTIAL BODY IS SPECIFIED AS THE CENTRAL BODY OF THE PROBLEM, PROVIDED ONE OBSERVES
000030:                                                                                                  #  THE INHERENT SCALE CHANGE REQUIRED IN POSITION, VELOCITY, MU, AND TIME, AS OUTLINED IN MISSION PROGRAMMING
000031:                                                                                                  #  DEFINITION MEMO NO. 10.  THIS CAN BE ACCOMPLISHED BY SIMPLY ADDING TO THE MUTABLE AND INITIALIZING THE SUBROU-
000032:                                                                                                  #  TINES APPROPRIATELY.
000033:                                                                                                  #       DUE TO THE UNIFORMITY OF THE EQUATIONS INVOLVED, CODING WAS MINIMIZED BY TREATING INDIVIDUAL EQUATIONS AND
000034:                                                                                                  #  BLOCKS OF EQUATIONS AS SUBROUTINES OF LOWER RANK WHENEVER POSSIBLE.  AS A RESULT, THREE BY-PRODUCTS SUBROUTINES,
000035:                                                                                                  #  DIRECTLY USABLE AS INDEPENDENT SUBROUTINES, WERE GENERATED.
000036:
000037:
000038:                                                                                                  #  RESTRICTIONS -
000039:
000040:                                                                                                  #       THE ONLY LIMITATION IN THE SCOPE OF PROBLEM WHICH CAN BE SOLVED BY A PARTICULAR SUBROUTINE IS THE SCALING
000041:                                                                                                  #  LIMIT OF EACH PARAMETER AS SPECIFIED IN THE GSOP.  THESE SCALING LIMITS WERE CHOSEN SO THAT ALL FEASIBLE TRAJEC-
000042:                                                                                                  #  TORIES COULD BE HANDLED.
000043:                                                                                                  #       SINCE THE SUBROUTINES (EXCEPT KEPLER) USE COMMON SUBROUTINES OF LOWER RANK WHICH USE ERASABLE OTHER THAN
000044:                                                                                                  #  THE PUSHLIST (DUE TO ITS LIMITED SIZE) AND COMMON INTERPRETIVE SWITCHES, THE CONIC SUBROUTINES CANNOT BE ALLOWED
000045:                                                                                                  #  TO INTERRUPT EACH OTHER.  IT IS UP TO THE USER TO GUARANTEE THIS CONDITION.
000046:
000047:
000048:                                                                                                  #  PROGRAM DESCRIPTION - KEPLER SUBROUTINE                                 DATE - 11 OCTOBER 1967
000049:                                                                                                  #  MOD NO. -1                                                                       LOG SECTION - CONIC SUBROUTINES
000050:                                                                                                  #  MOD BY KRAUSE                                                           ASSEMBLY - COLOSSUS 103 AND SUNDANCE 222
000051:
000052:
000053:                                                                                                  #  FUNCTIONAL DESCRIPTION -
000054:                                                                                                  #       THIS SUBROUTINE, GIVEN AN INITIAL STATE VECTOR AND THE DESIRED TRANSFER TIME THROUGH WHICH THE STATE IS TO
000055:                                                                                                  #  BE UPDATED ALONG A CONIC TRAJECTORY, COMPUTES THE NEW, UPDATED STATE VECTOR.  THE TRAJECTORY MAY BE ANY CONIC
000056:                                                                                                  #  SECTION - CIRCULAR, ELLIPTIC, PARABOLIC, HYPERBOLIC, OR RECTILINEAR WITH RESPECT TO THE EARTH OR THE MOON.  THE
000057:                                                                                                  #  USE OF THE SUBROUTINE CAN BE EXTENDED USING OTHER PRIMARY BODIES BY SIMPLE ADDITIONS TO THE MUTABLE WITHOUT
000058:                                                                                                  #  INTRODUCING ANY CODING CHANGES, ACCEPTING THE INHERENT SCALE FACTOR CHANGES IN POSITION AND VELOCITY.  AN ITERA-
000059:                                                                                                  #  TION TECHNIQUE IS UTILIZED IN THE COMPUTATION.
000060:                                                                                                  #       IF A NEGATIVE TIME-OF-FLIGHT IS INPUT, THE PROGRAM WILL SOLVE FOR THE STATE WHICH WOULD BE PRODUCED BY
000061:                                                                                                  #  EXTRAPOLATING THE POSITION BACKWARD IN TIME.
000062:                                                                                                  #       IF THE DESIRED TRANSFER TIME IS POSITIVE AND EXCEEDS THE ORBITAL PERIOD, THE SUBROUTINE, THROUGH A MODULAR
000063:                                                                                                  #  TECHNIQUE, WILL COMPUTE THE STATE CORRESPONDING TO THE DESIRED TIME AS USUAL.
000064:
000065:
000066:                                                                                                  #  THE RESTRICTIONS ARE -
000067:                                                                                                  #       1. A NEGATIVE DESIRED TIME MUST BE LESS THAN ONE PERIOD IN MAGNITUDE.  IF GREATER, THE ONE-PERIOD- SOLUTION
000068:                                                                                                  #  WILL BE RETURNED.
000069:                                                                                                  #       2.  THE PARAMETERS IN THE PROBLEM CANNOT EXCEED THEIR SCALING LIMITS AS SPECIFIED IN THE GSOP.  IF
000070:                                                                                                  #  ANY OF THESE LIMITS ARE EXCEEDED, THE RESULTING SOLUTION WILL BE MEANINGLESS.
000071:
000072:
000073:                                                                                                  #       THE NUMBER OF ITERATIONS AND, THEREFORE, THE COMPUTATION SPEED IS DEPENDENT ON THE ACCURACY OF THE
000074:                                                                                                  #  GUESS, XKFPNEW.  THE AGC COMPUTATION TIME IS APPROXIMATELY .061 SECONDS FOR INITIALIZATION, .065 SECONDS FOR THE
000075:                                                                                                  #  FINAL COMPUTATIONS, PLUS .083 SECONDS FOR EACH ITERATION.
000076:
000077:
000078:
000079:                                                                                                  #  REFERENCES -
000080:                                                                                                  #       R-479, MISSION PROGRAMMING DEFINITION MEMO NO. 10, LUNAR LANDING MISSION GSOP, SECTION 5.5, SGA
000081:                                                                                                  #  MEMO 67-4.
000082:
000083:
000084:
000085:                                                                                                  #  INPUT - ERASABLE INITIALIZATION REQUIRED
000086:
000087:                                                                                                  #          * SCALE FACTOR *
000088:                                                                                                  #  VARIABLE*IN POWERS OF 2*                         DESCRIPTION AND REMARKS
000089:                                                                                                  #  --------*--------------*                         -----------------------
000090:                                                                                                  #  RRECT   * +29 FOR EARTH*DP INITIAL POSITION VECTOR IN METERS
000091:                                                                                                  #          * +27 FOR MOON *
000092:                                                                                                  #  VRECT   * +7 FOR EARTH *DP INITIAL VELOCITY VECTOR IN METERS/CENTISECOND
000093:                                                                                                  #          * +5 FOR MOON  *
000094:                                                                                                  #  X1 (38D)* NONE         *INDEX REGISTER SET TO -2D OR -10D ACCORDING TO WHETHER THE EARTH OR MOON,
000095:                                                                                                  #          *              *RESPECTIVELY, IS THE CENTRAL BODY
000096:                                                                                                  #  TAU.    * +28          *DESIRED TRANSFER TIME IN CENTISECONDS (DP)
000097:                                                                                                  #  XKEPNEW * +17 FOR EARTH*GUESS OF X IN METERS-TO-THE-ONE-HALF FROM KEPPREP
000098:                                                                                                  #          * +16 FOR MOON *(DP)
000099:                                                                                                  #  TC      * +28          *DP PREV. VALUE OF TIME IN CENTISECS FROM KEPPREP
000100:                                                                                                  #  XPREV   * +17 FOR EARTH*PREVIOUS VALUE OF X IN METERS-TO-THE-ONE-HALF POWER FROM KEPPREP (DP)
000101:                                                                                                  #          * +16 FOR MOON *(DP)
000102:
000103:
000104:
000105:                                                                                                  #  SUBROUTINES CALLED -
000106:                                                                                                  #       DELTIME
000107:
000108:
000109:
000110:                                                                                                  #  CALLING SEQUENCE AND NORMAL EXIT MODES -
000111:
000112:                                                                                                  #  KEPRTN-2 GOTO                   MUST BE IN INTERPRETIVE MODE AND OVFIND MUST BE CLEAR
000113:                                                                                                  #  KEPRTN-1        KEPLER          RETURNS WITH XPREV IN MPAC. PL IS AT 0.
000114:                                                                                                  #  KEPRTN   ...                    CONTINUE
000115:
000116:                                                                                                  #  KEPLER MUST NOT BE CALLED DIRECTLY SINCE AN INTERRUPTION OF IT WOULD DESTROY THE ERASABLES IT NEEDS TO COMPLETE
000117:                                                                                                  #  THE INTERRUPTED JOB.  THEREFORE THE USER MUST CALL CSMCONIC OR LEMCONIC WHICH GUARANTEES NO INTERRUPTS AND WHICH
000118:                                                                                                  #  ALSO CALLS KEPPREP TO COMPUTE A GUESS OF XKEPNEW.
000119:
000120:
000121:
000122:                                                                                                  #  ABORT EXIT MODES -
000123:                                                                                                  #       NONE
000124:
000125:
000126:
000127:                                                                                                  #  OUTPUT -
000128:
000129:                                                                                                  #          * SCALE FACTOR *
000130:                                                                                                  #  VARIABLE*IN POWERS OF 2*                         DESCRIPTION AND REMARKS
000131:                                                                                                  #  --------*--------------*                         -----------------------
000132:                                                                                                  #  RCV     * +29 FOR EARTH*DP TERMINAL POSITION VECTOR IN METERS
000133:                                                                                                  #          * +27 FOR MOON *
000134:                                                                                                  #  VCV     * +7 FOR EARTH *DP TERMINAL VELOCITY VECTOR IN METERS/CENTISEC
000135:                                                                                                  #          * +5 FOR MOON  *
000136:                                                                                                  #  TC      * +28          *DP TRANSFER TIME IN CENTISECS TO WHICH KEPLER CONVERGED.
000137:                                                                                                  #  XPREV   * +17 FOR EARTH*DP X IN METERS-TO-THE-ONE-HALF-POWER TO WHCIH KEPLER CONVERGED.
000138:                                                                                                  #          * +16 FOR MOON *(DP)
000139:                                                                                                  #  FOR OTHER OUTPUT WHICH MAY BE OF USE, SEE DEBRIS.
000140:
000141:
000142:
000143:                                                                                                  #  DEBRIS -
000144:
000145:                                                                                                  #       PARAMETERS WHICH MAY BE OF USE -
000146:
000147:                                                                                                  #          * SCALE FACTOR *
000148:                                                                                                  #  VARIABLE*IN POWERS OF 2*                         DESCRIPTION AND REMARKS
000149:                                                                                                  #  --------*--------------*                         -----------------------
000150:                                                                                                  #  URRECT  * +1           *DP UNIT VECTOR OF INITIAL POSITION
000151:                                                                                                  #  R1      * +29 FOR EARTH*DP MAGNITUDE OF INITIAL POSITION IN METERS
000152:                                                                                                  #          * +27 FOR MOON *
000153:                                                                                                  #  ALPHA   * -22 FOR EARTH*DP INVERSE OF SEMIMAJOR AXIS IN 1/METERS
000154:                                                                                                  #          * -20 FOR MOON *
000155:                                                                                                  #  TMODULO * +28          *DP INTEGRAL NUMBER OF PERIODS IN CENTISECS. WHICH WAS SUBTRACTED FROM TAU. TO PRODUCE A
000156:                                                                                                  #          *              *TAU. OF LESS THAN ONE PERIOD.
000157:
000158:                                                                                                  #       PARAMETERS OF NO USE -
000159:                                                                                                  #  DP PARAMETERS - EPSILONT, DELX, DELT, RCNORM, XMODULO, PLUS PUSHLIST REGISTERS 0 THROUGH 39D.
000160:
000161:
000162:                                                                                                  #  PROGRAM DESCRIPTION - LAMBERT SUBROUTINE                                        DATE - 1 SEPTEMBER 1967
000163:                                                                                                  #  MOD NO. - 0                                                                     LOG SECTION - CONIC SUBROUTINES
000164:                                                                                                  #  MOD BY KRAUSE                                                                   ASSEMBLY - COLOSSUS REVISION 88
000165:
000166:
000167:
000168:                                                                                                  #  FUNCTIONAL DESCRIPTION -
000169:
000170:                                                                                                  #       THIS SUBROUTINE CALCULATES THE INITIAL VELOCITY REQUIRED TO TRANSFER A POINT-MASS ALONG A CONIC TRAJECTORY
000171:                                                                                                  #  FROM AN INITIAL POSITION TO A TERMINAL POSITION IN A PRESCRIBED TIME INTERVAL.  THE RESULTING TRAJECTORY MAY BE
000172:                                                                                                  #  A SECTION OF A CIRCLE, ELLIPSE, PARABOLA, OR HYPERBOLA WITH RESPECT TO THE EARTH OR THE MOON.  THE USE OF THE
000173:                                                                                                  #  SUBROUTINE CAN BE EXTENDED USING OTHER PRIMARY BODIES BY SIMPLE ADDITIONS TO THE MUTABLE WITHOUT INTRODUCING ANY
000174:                                                                                                  #  CODING CHANGES, ACCEPTING THE INHERENT SCALE FACTOR CHANGES IN POSITION AND VELOCITY.  AN ITERATION TECHNIQUE IS
000175:                                                                                                  #  UTILIZED IN THE COMPUTATION.
000176:
000177:
000178:                                                                                                  #  THE RESTRICTIONS ARE -
000179:                                                                                                  #       1. RECTILINEAR TRAJECTORIES CANNOT BE COMPUTED.
000180:                                                                                                  #       2. AN ACCURACY DEGRADATION OCCURS AS THE COSINE OF THE TRUE ANOMALY DIFFERENCE APPROACHES +1.0.
000181:                                                                                                  #       3. THE ANGLE BETWEEN ANY POSITION VECTOR AND ITS VELOCITY VECTOR MUST BE GREATER THAN 1 DEGREE 47.5 MINUTES
000182:                                                                                                  #  AND LESS THAN 178 DEGREES 12.5 MINUTES.
000183:                                                                                                  #       4. NEGATIVE TRANSFER TIME IS AMBIGUOUS AND WILL RESULT IN NO SOLUTION.
000184:                                                                                                  #       5. THE PARAMETERS IN THE PROBLEM MUST NOT EXCEED THEIR SCALING LIMITS SPECIFIED IN THE GSOP.  IF THE
000185:                                                                                                  #  LIMITS ARE EXCEEDED, THE RESULTING SOLUTION WILL BE MEANINGLESS.
000186:                                                                                                  #       THE NUMBER OF ITERATIONS AND, THEREFORE, THE COMPUTATIONS SPEED IS DEPENDENT ON THE ACCURACY OF THE FIRST
000187:                                                                                                  #  GUESS OF THE INDEPENDENT VARIABLE, COGA.                                THE AGC COMPUTATION TIME IS APPROXIMATE-
000188:                                                                                                  #  LY .105 SECONDS FOR INITIALIZATION, .069 SECONDS FOR FINAL COMPUTATIONS, PLUS .205 SECONDS FOR EACH ITERATION.
000189:
000190:
000191:
000192:                                                                                                  #  REFERENCES -
000193:                                                                                                  #       R-479, MISSION PROGRAMMING DEFINITION MEMO NO. 10, LUNAR LANDING MISSION GSOP-SECTION 5.5, SGA MEMO 67-8,
000194:                                                                                                  #  SGA MEMO 67-4.
000195:
000196:
000197:
000198:                                                                                                  #  INPUT - ERASABLE INITIALIZATION REQUIRED
000199:
000200:                                                                                                  #          * SCALE FACTOR *
000201:                                                                                                  #  VARIABLE*IN POWERS OF 2*       DESCRIPTION AND REMARKS
000202:                                                                                                  #  --------*--------------*-----------------------
000203:                                                                                                  #  R1VEC   * +29 FOR EARTH*DP INITIAL POSITION VECTOR IN METERS
000204:                                                                                                  #          * +27 FOR MOON *
000205:                                                                                                  #  R2VEC   * +29 FOR EARTH*DP TARGET OR TERMINAL POSITION VECTOR IN METERS
000206:                                                                                                  #          * +27 FOR MOON *
000207:                                                                                                  #  TDESIRED* +28          *DP DESIRED TRANSFER TIME IN CENTISECONDS
000208:                                                                                                  #  X1 (38D)* NONE         *INDEX REGISTER SET TO -2D OR -10D ACCORDING TO WHETHER THE EARTH OR MOON,
000209:                                                                                                  #          *              *RESPECTIVELY, IS THE CENTRAL BODY
000210:                                                                                                  #  GEOMSGN * NONE         *SP +.5 IF DESIRED TRANSFER ANGLE IS LESS THAN 180 DEGREES, -.5 IF GREATER THAN 180 DEG.
000211:                                                                                                  #  GUESSW  * NONE         *AN INTERPRETER SWITCH TO BE SET IF NO GUESS OF COGA IS AVAILABLE, CLEAR IF A GUESS OF
000212:                                                                                                  #          *              *COGA IS TO BE USED BY LAMBERT
000213:                                                                                                  #  COGA    * +5           *DP GUESS OF COTANGNT OF FLIGHT PATH ANGLE (MEASURED FROM VERTICAL).  THIS WILL BE
000214:                                                                                                  #                         *IGNORED IF GUESSW IS SET.
000215:                                                                                                  #  NORMSW  * NONE         *AN INTERPRETER SWITCH TO BE SET IF UN IS TO BE AN INPUT TO THE SUBROUTINE, CLEAR IF
000216:                                                                                                  #          *              *LAMBERT IS TO COMPUTE ITS OWN NORMAL (UN).
000217:                                                                                                  #  UN      * +1           *DP UNIT  NORMAL TO THE DESIRED ORBIT PLANE IN THE DIRECTION OF THE RESULTING ANGULAR
000218:                                                                                                  #          *              *MOMENTUM VECTOR.  THIS WILL BE IGNORED IF NORMSW IS CLEAR.
000219:                                                                                                  #  VTARGTAG* NONE         *A S.P. TAG TO BE SET TO ZERO IF LAMBERT IS TO COMPUTE THE VELOCITY AT R2VEC AS WELL AS
000220:                                                                                                  #          *              *AT R1VEC.
000221:
000222:
000223:                                                                                                  #  SUBROUTINES CALLED -
000224:                                                                                                  #       GEOM, GETX, DELTIME, ITERATOR, LAMENTER (PART OF NEWSTATE)
000225:
000226:
000227:
000228:                                                                                                  #  CALLING SEQUENCE AND NORMAL EXIT MODES -
000229:
000230:                                                                                                  #  L        CALL                   MUST BE IN INTERPRETIVE MODE AND OVFIND MUST BE CLEAR
000231:                                                                                                  #  L+1             LAMBERT         RETURNS WITH PL AT 0 AND WITH VVEC IN MPAC IF VTARGTAG WAS NON-ZERO OR VTARGET
000232:                                                                                                  #                                  IN MPAC IF VTARGTAG WAS ZERO
000233:                                                                                                  #  L+2      BON                    CONTINUE IF SOLNSW CLEAR SINCE SOLUTION IS ACCEPTABLE
000234:                                                                                                  #  L+3             SOLNSW
000235:                                                                                                  #  L+4             LAMABORT
000236:                                                                                                  #       IF A LAMBERT RESULT IS TO BE A FIRST GUESS FOR THE NEXT LAMBERT CALCULATION, COGA MUST BE PRESERVED AND
000237:                                                                                                  #  GUESSW MUST BE CLEAR FOR EACH SUCCEEDING LAMBERT CALL.
000238:
000239:
000240:
000241:                                                                                                  #  ABORT EXIT MODES -
000242:                                                                                                  #       IF SOLNSW WAS SET UPON EXITING, EITHER LAMBERT WAS ASKED TO COMPUTE A TRANSFER TOO NEAR 0 OR 360 DEG, OR T
000243:                                                                                                  #  WAS TOO SMALL TO PRODUCE A REALISTIC TRANSFER BETWEEN R1VEC AND R2VEC.  IN EITHER CASE THE FIX MUST BE MADE
000244:                                                                                                  #  ACCORDING TO THE NEEDS OF THE PARTICULAR USER.  THE ABORT EXIT MODE MAY BE CODED AS ...
000245:                                                                                                  #  LAMABORT DLOAD  ABS                     A MEASURE OF PROXIMITY TO 0 OR
000246:                                                                                                  #                  1-CSTH                  360 DEGREES.
000247:                                                                                                  #           DSU    BMN
000248:                                                                                                  #                  ONEBIT
000249:                                                                                                  #                  CHANGER2                CHANGE R2VEC DIRECTION SLIGHTLY.
000250:                                                                                                  #           DLOAD  DAD
000251:                                                                                                  #                  TDESIRED
000252:                                                                                                  #                  SOMETIME
000253:                                                                                                  #           STCALL TDESIRED                INCREASE TDESIRED
000254:                                                                                                  #                  LAMBERT
000255:
000256:
000257:                                                                                                  #  OUTPUT -
000258:                                                                                                  #          * SCALE FACTOR *
000259:                                                                                                  #  VARIABLE*IN POWERS OF 2*                         DESCRIPTION AND REMARKS
000260:                                                                                                  #  --------*--------------*                         -----------------------
000261:                                                                                                  #  VVEC    * +7 FOR EARTH *DP INITIAL VELOCITY VECTOR IN METERS/CENTISECOND REQUIRED TO SATISFY THE BOUNDARY VALUE
000262:                                                                                                  #          * +5 FOR MOON  *PROBLEM.
000263:                                                                                                  #  VTARGET * +7 FOR EARTH *DP RESULTANT VELOCITY VECTOR AT R2VEC IN METERS/CENTISECOND.
000264:                                                                                                  #          * +5 FOR MOON  *
000265:                                                                                                  #  SOLNSW  * NONE         *INTERPRETER SWITCH WHICH IS SET IF THE SUBROUTINE CANNOT SOLVE THE PROBLEM, CLEAR IF THE
000266:                                                                                                  #          *              *SOLUTION EXISTS.
000267:                                                                                                  #  FOR OTHER OUTPUT WHICH MAY BE OF USE, SEE DEBRIS.
000268:
000269:
000270:
000271:                                                                                                  #  DEBRIS -
000272:                                                                                                  #       PARAMETERS WHICH MAY BE OF USE -
000273:
000274:                                                                                                  #          * SCALE FACTOR *
000275:                                                                                                  #  VARIABLE*IN POWERS OF 2*                         DESCRIPTION AND REMARKS
000276:                                                                                                  #  --------*--------------*                         -----------------------
000277:                                                                                                  #  SNTH    * +1           *DP SIN OF ANGLE BETWEEN R1VEC AND R2VEC
000278:                                                                                                  #  CSTH    * +1           *DP COSINE OF ANGLE
000279:                                                                                                  #  1-CSTH  * +2           *DP 1-CSTH
000280:                                                                                                  #  COGA    * +5           *DP COTAN OF INITIAL REQUIRED FLIGHT PATH ANGLE MEASURED FROM VERTICAL
000281:                                                                                                  #  P       * +4           *DP RATIO  OF SEMILATUS RECTUM TO INITIAL RADIUS
000282:                                                                                                  #  R1A     * +6           *DP RATIO OF INITIAL RADIUS TO SEMIMAJOR AXIS
000283:                                                                                                  #  R1 (32D)* +29 FOR EARTH*DP INITIAL RADIUS IN METERS
000284:                                                                                                  #          * +27 FOR MOON *
000285:                                                                                                  #  UR1     * +1           *DP UNIT VECTOR OF R1VEC
000286:                                                                                                  #  U2      * +1           *DP UNIT VECTOR OF R2VEC
000287:
000288:                                                                                                  #       PARAMETERS OF NO USE
000289:                                                                                                  #  DP PARAMETERS - EPSILONL, CSTH-RHO, TPREV, TERRLAMB, R2, RTNLAMB (SP),  PLUS PUSHLIST REGISTER 0 THROUGH 41D
000290:                                                                                                  #  ADDITIONAL INTERPRETIVE SWITCHES USED - INFINFLG, 360SW, SLOPESW, ORDERSW
000291:
000292:
000293:                                                                                                  #  PROGRAM DESCRIPTION - TIME-THETA SUBROUTINE                                     DATE - 1 SEPTEMBER 1967
000294:                                                                                                  #  MOD NO. - 0                                                                     LOG SECTION - CONIC SUBROUTINES
000295:                                                                                                  #  MOD BY KRAUSE                                                                   ASSEMBLY - COLOSSUS REVISION 88
000296:
000297:
000298:
000299:                                                                                                  #  FUNCTIONAL DESCRIPTION -
000300:
000301:                                                                                                  #       THIS SUBROUTINE, GIVEN AN INITIAL STATE VECTOR AND A DESIRED TRUE-ANOMALY-DIFFERENCE THROUGH WHICH THE
000302:                                                                                                  #  STATE IS TO BE UPDATED ALONG A CONIC TRAJECTORY, CALCULATES THE CORRESPONDING TIME-OF-FLIGHT AND, IN ADDITION,
000303:                                                                                                  #  PROVIDES THE OPTION OF COMPUTING THE NEW UPDATED STATE VECTOR.  THE RESULTING TRAJECTORY MAY BE A SECTION OF A
000304:                                                                                                  #  CIRCLE, ELLIPSE, PARABOLA, OR HYPERBOLA WITH RESPECT TO THE EARTH OR THE MOON.  THE USE OF THE SUBROUTINE CAN BE
000305:                                                                                                  #  EXTENDED USING OTHER PRIMARY BODIES BY SIMPLE ADDITIONS TO THE MUTABLE WITHOUT INTRODUCING ANY CODING CHANGES,
000306:                                                                                                  #  ACCEPTING THE INHERENT SCALE FACTOR CHANGES IN POSITION AND VELOCITY.
000307:
000308:
000309:                                                                                                  #  THE RESTRICTIONS ARE -
000310:                                                                                                  #       1. THE ANGLE BETWEEN ANY POSITION VECTOR AND ITS VELOCITY VECTOR MUST BE GREATER THAN 1 DEGREE 47.5 MINUTES
000311:                                                                                                  #  AND LESS THAN 178 DEGREES 12.5 MINUTES.
000312:                                                                                                  #       2. THE PARAMETERS IN THE PROBLEM MUST NOT EXCEED THEIR SCALING LIMITS SPECIFIED IN THE GSOP.  IF THE LIMITS
000313:                                                                                                  #  ARE EXCEEDED, THE RESULTING SOLUTION WILL BE MEANINGLESS.
000314:
000315:                                                                                                  #       THE AGC COMPUTATION TIME IS APPROXIMATELY .292 SECONDS.
000316:
000317:
000318:
000319:                                                                                                  #  REFERENCES -
000320:                                                                                                  #       R-479, MISSION PROGRAMMING DEFINITION MEMO NO. 10, LUNAR LANDING MISSION GSOP-SECTION 5.5, SGA MEMO 67-8.
000321:
000322:
000323:
000324:                                                                                                  #  INPUT - ERASABLE INITIALIZATION REQUIRED
000325:
000326:                                                                                                  #          * SCALE FACTOR *
000327:                                                                                                  #  VARIABLE*IN POWERS OF 2*                         DESCRIPTION AND REMARKS
000328:                                                                                                  #  --------*--------------*                         -----------------------
000329:                                                                                                  #  RVEC    * +29 FOR EARTH*DP INITIAL POSITION VECTOR IN METERS
000330:                                                                                                  #          * +27 FOR MOON *
000331:                                                                                                  #  VVEC    * +7 FOR EARTH *DP INITIAL VELOCITY VECTOR IN METERS/CENTISECOND
000332:                                                                                                  #          * +5 FOR MOON  *
000333:                                                                                                  #  SNTH    * +1           *DP SINE OF TRUE-ANOMALY-DIFFERENCE THROUGH WHICH THE STATE IS TO BE UPDATED
000334:                                                                                                  #  CSTH    * +1           *DP COSINE OF THE ANGLE
000335:                                                                                                  #  RVSW    * NONE         *AN INTERPRETIVE SWITCH TO BE SET IF ONLY TIME IS TO BE AN OUTPUT, CLEAR IF THE NEW STATE
000336:                                                                                                  #          *              *IS TO BE COMPUTED ALSO.
000337:                                                                                                  #  X1 (38D)* NONE         *INDEX REGISTER TO BE SET TO -2D OR -10D ACCORDING TO WHETHER THE EARTH OR MOON,
000338:                                                                                                  #          *              *RESPECTIVELY, IS THE CENTRAL BODY.
000339:
000340:
000341:
000342:                                                                                                  #  SUBROUTINES CALLED -
000343:                                                                                                  #       PARAM, GEOM, GETX, DELTIME, NEWSTATE
000344:
000345:
000346:
000347:                                                                                                  #  CALLING SEQUENCE AND NORMAL EXIT MODES -
000348:
000349:                                                                                                  #     IF ONLY TIME IS DESIRED AS OUTPUT -
000350:                                                                                                  #  L        SET    CALL            MUST BE IN INTERPRETIVE MODE AND OVFIND MUST BE CLEAR
000351:                                                                                                  #  L+1             RVSW
000352:                                                                                                  #  L+2             TIMETHET        RETURN WITH PL AT 0 AND T IN MPAC
000353:                                                                                                  #  L+3      ...                    CONTINUE
000354:
000355:
000356:                                                                                                  #     IF THE UPDATE STATE VECTOR IS DESIRED AS WELL -
000357:                                                                                                  #  L        CLEAR  CALL            MUST BE IN INTERPRETIVE MODE AND OVFIND MUST BE CLEAR
000358:                                                                                                  #  L+1             RVSW
000359:                                                                                                  #  L+2             TIMETHET        RETURNS WITH PL AT 6.  THE INITIAL POSITION VECTOR IS IN 0D OF THE PUSHLIST AND
000360:                                                                                                  #                                  THE INITIAL VELOCITY VECTOR IN MPAC.
000361:                                                                                                  #  L+3      STOVL  NEWVVEC
000362:                                                                                                  #  L+4      STADR
000363:                                                                                                  #  L+5      STORE  NEWRVEC                 NEWVVEC AND NEWRVEC ARE SYMBOLIC REPRESENTATIONS OF THE USERS LOCATIONS.
000364:                                                                                                  #  L+6      ...                            CONTINUE
000365:
000366:
000367:
000368:                                                                                                  #  ABORT EXIT MODES -
000369:                                                                                                  #  L        CALL   BON
000370:                                                                                                  #  L+1             TIMETHET
000371:                                                                                                  #  L+2             COGAFLAG
000372:                                                                                                  #  L+3             COGABORT        RESTRICTION 1 HAS BEEN VIOLATED.
000373:                                                                                                  #  L+4      BON                    IF NEITHER FLAG IS SET AND RESTRICTION 2 HAS NOT BEEN VIOLATED, THE SOLUTION IS
000374:                                                                                                  #                                  GOOD, SO CONTINUE
000375:                                                                                                  #  L+5             INFINFLG
000376:                                                                                                  #  L+6             IMPOSSBL        NO SOLUTION EXISTS.
000377:
000378:
000379:
000380:                                                                                                  #  OUTPUT -
000381:                                                                                                  #          * SCALE FACTOR *
000382:                                                                                                  #  VARIABLE*IN POWERS OF 2*                         DESCRIPTION AND REMARKS
000383:                                                                                                  #  --------*--------------*                         -----------------------
000384:                                                                                                  #  T (30D) * +28          *DP TRANSFER TIME IN CENTISECONDS
000385:                                                                                                  #  INFINFLG* NONE         *AN INTERPRETIVE SWITCH WHICH IS SET IF THE TRANSFER ANGLE REQUIRES CLOSURE THROUGH
000386:                                                                                                  #          *              *INFINITY (NO SOLUTION), CLEAR IF A PHYSICAL SOLUTION IS POSSIBLE.
000387:                                                                                                  #  COGAFLAG* NONE         *AN INTERPRETIVE SWITCH WHICH IS SET IF RESTRICTION 1 HAS BEEN VIOLATED (NO SOLUTION),
000388:                                                                                                  #          *              *CLEAR IF NOT.
000389:
000390:                                                                                                  #  IN ADDITION, IF VTARGTAG IS NON-ZERO, THE FOLLOWING ARE OUTPUT -
000391:                                                                                                  #  MPAC -  * +7 FOR EARTH *DP TERMINAL VELOCITY VECTOR IN METERS/CENTISEC.
000392:                                                                                                  #   MPAC +5* +5 FOR MOON  *
000393:                                                                                                  #  0D - 5D * +29 FOR EARTH*DP TERMINAL POSITION VECTOR IN METERS (PL AT 6D)
000394:                                                                                                  #          * +27 FOR MOON *
000395:
000396:                                                                                                  #  FOR OTHER OUTPUT WHICH MAY BE OF USE, SEE DEBRIS.
000397:
000398:
000399:
000400:                                                                                                  #  DEBRIS -
000401:
000402:                                                                                                  #       PARAMETERS WHICH MAY BE OF USE -
000403:
000404:                                                                                                  #          * SCALE FACTOR *
000405:                                                                                                  #  VARIABLE*IN POWERS OF 2*                         DESCRIPTION AND REMARKS
000406:                                                                                                  #  --------*--------------*                         -----------------------
000407:                                                                                                  #  R1 (32D)* +29 FOR EARTH*DP MAGNITUDE OF INITIAL POSITION VECTOR, RVEC, IN METERS
000408:                                                                                                  #          * +27 FOR MOON *
000409:                                                                                                  #  R1A     * +6           *DP RATIO OF R1 TO SEMIMAJOR AXIS (NEG. FOR HYPERBOLIC TRAJECTORIES)
000410:                                                                                                  #  P       * +4           *DP RATIO OF SEMILATUS RECTUM TO R1
000411:                                                                                                  #  COGA    * +5           *DP COTAN OF ANGLE BETWEEN RVEC AND VVEC
000412:                                                                                                  #  UR1     * +1           *DP UNIT VECTOR OF RVEC
000413:                                                                                                  #  U2      * +1           *DP UNIT VECTOR OF VVEC
000414:                                                                                                  #  UN      * +1           *DP UNIT VECTOR OF UR1*U2
000415:
000416:
000417:                                                                                                  #       PARAMETERS OF NO USE -
000418:                                                                                                  #  SP PARAMETERS -  RTNTT, GEOMSGN, RTNPRM, MAGVEC2=R2 (DP), PLUS PUSHLIST LOCATIONS 0-11D, 14D-21D, 24D-39D, 41D
000419:                                                                                                  #  ADDITIONAL INTERPRETIVE SWITCHES USED - NORMSW, 360SW
000420:
000421:
000422:                                                                                                  #  PROGRAM DESCRIPTION - TIME-RADIUS SUBROUTINE                            DATE - 11 OCTOBER 1967
000423:                                                                                                  #  MOD NO. -1                                                                      LOG SECTION - CONIC SUBROUTINES
000424:                                                                                                  #  MOD BY KRAUSE                                                                   ASSEMBLY - COLOSSUS REVISION 88
000425:
000426:
000427:
000428:                                                                                                  #  FUNCTIONAL DESCRIPTION -
000429:
000430:                                                                                                  #       THIS SUBROUTINE, GIVEN AN INITIAL STATE VECTOR AND A DESIRED RADIUS TO WHICH THE
000431:                                                                                                  #  STATE IS TO BE UPDATED ALONG A CONIC TRAJECTORY, CALCULATES THE CORRESPONDING TIME-OF-FLIGHT AND, IN ADDITION,
000432:                                                                                                  #  PROVIDES THE OPTION OF COMPUTING THE NEW UPDATED STATE VECTOR.  THE RESULTING TRAJECTORY MAY BE A SECTION OF A
000433:                                                                                                  #  CIRCLE, ELLIPSE, PARABOLA, OR HYPERBOLA WITH RESPECT TO THE EARTH OR THE MOON.  THE USE OF THE SUBROUTINE CAN BE
000434:                                                                                                  #  EXTENDED USING OTHER PRIMARY BODIES BY SIMPLE ADDITIONS TO THE MUTABLE WITHOUT INTRODUCING ANY CODING CHANGES,
000435:                                                                                                  #  ACCEPTING THE INHERENT SCALE FACTOR CHANGES IN POSITION AND VELOCITY.
000436:                                                                                                  #       IF THE DESIRED RADIUS IS BEYOND THE RADIUS OF APOCENTER OF THE CONIC OR BELOW THE RADIUS OF PERICENTER,
000437:                                                                                                  #  APSESW WILL BE SET AND THE SUBROUTINE WILL RETURN THE APOCENTER OR PERICENTER SOLUTION, RESPECTIVELY.
000438:
000439:
000440:                                                                                                  #  THE RESTRICTIONS ARE -
000441:                                                                                                  #       1. THE ANGLE BETWEEN ANY POSITION VECTOR AND ITS VELOCITY VECTOR MUST BE GREATER THAN 1 DEGREE 47.5 MINUTES
000442:                                                                                                  #  AND LESS THAN 178 DEGREES 12.5 MINUTES.
000443:                                                                                                  #       2. THE PARAMETERS IN THE PROBLEM MUST NOT EXCEED THEIR SCALING LIMITS SPECIFIED IN THE GSOP.  IF THE LIMITS
000444:                                                                                                  #  ARE EXCEEDED, THE RESULTING SOLUTION WILL BE MEANINGLESS.
000445:                                                                                                  #       3. AN ACCURACY DEGRADATION OCCURS AS THE SENSITIVITIES OF TIME AND UPDATED STATE VECTOR TO CHANGES IN
000446:                                                                                                  #  RDESIRED INCREASE.  THIS WILL OCCUR NEAR EITHER APSIS OF THE CONIC AND WHEN THE CONIC IS NEARLY CIRCULAR.  IN
000447:                                                                                                  #  PARTICULAR, IF THE CONIC IS AN EXACT CIRCLE, THE PROBLEM IS UNDEFINED AND THE SUBROUTINE WILL ABORT.
000448:
000449:
000450:                                                                                                  #       THE AGC COMPUTATION TIME IS APPROXIMATELY .363 SECONDS
000451:
000452:
000453:
000454:                                                                                                  #  REFERENCES -
000455:                                                                                                  #       R-479, MISSION PROGRAMMING DEFINITION MEMO NO. 10, LUNAR LANDING MISSION GSOP-SECTION 5.5, SGA MEMO 67-8.
000456:
000457:
000458:
000459:                                                                                                  #  INPUT - ERASABLE INITIALIZATION REQUIRED
000460:
000461:                                                                                                  #          * SCALE FACTOR *
000462:                                                                                                  #  VARIABLE*IN POWERS OF 2*                         DESCRIPTION AND REMARKS
000463:                                                                                                  #  --------*--------------*                         -----------------------
000464:                                                                                                  #  RVEC    * +29 FOR EARTH*DP INITIAL POSITION VECTOR IN METERS
000465:                                                                                                  #          * +27 FOR MOON *
000466:                                                                                                  #  VVEC    * +7 FOR EARTH *DP INITIAL VELOCITY VECTOR IN METERS/CENTISECOND
000467:                                                                                                  #          * +5 FOR MOON  *
000468:                                                                                                  #  RDESIRED* +29 FOR EARTH*DP TERMINAL RADIAL DISTANCE ON CONIC TRAJECTORY FOR WHICH TRANSFER TIME IS TO BE
000469:                                                                                                  #          * +27 FOR MOON *COMPUTED.
000470:                                                                                                  #  SGNRDOT * NONE         *SP TAG SET TO +.5 OR -.5 ACCORDING TO WHETHER THE RADIAL VELOCITY AT RDESIRED IS TO BE
000471:                                                                                                  #          *              *POSITIVE OR NEGATIVE, RESPECTIVELY.  THIS TAG REDUCES THE DOUBLE-VALUED PROBLEM TO A
000472:                                                                                                  #          *              *SINGLE-VALUED PROBLEM.
000473:                                                                                                  #  X1 (38D)* NONE         *INDEX REGISTER TO BE SET TO -2D OR -10D ACCORDING TO WHETHER THE EARTH OR MOON,
000474:                                                                                                  #          *              *RESPECTIVELY, IS THE CENTRAL BODY.
000475:                                                                                                  #  RVSW    * NONE         *AN INTERPRETIVE SWITCH TO BE SET IF ONLY TIME IS TO BE AN OUTPUT, CLEAR IF THE NEW STATE
000476:                                                                                                  #          *              *IS TO BE COMPUTED ALSO.
000477:
000478:
000479:
000480:                                                                                                  #  SUBROUTINES CALLED -
000481:                                                                                                  #        PARAM, GEOM, GETX, DELTIME, NEWSTATE
000482:
000483:
000484:
000485:                                                                                                  #  CALLING SEQUENCE AND NORMAL EXIT MODES -
000486:
000487:                                                                                                  #     IF ONLY TIME IS DESIRED AS OUTPUT -
000488:                                                                                                  #  L        SET    CALL            MUST BE IN INTERPRETIVE MODE AND OVFIND MUST BE CLEAR
000489:                                                                                                  #  L+1             RVSW
000490:                                                                                                  #  L+2             TIMERAD         RETURN WITH PL AT 0 AND T IN MPAC
000491:                                                                                                  #  L+3      ...                    CONTINUE
000492:
000493:                                                                                                  #     IF THE UPDATE STATE VECTOR IS DESIRED AS WELL -
000494:                                                                                                  #  L        CLEAR  CALL            MUST BE IN INTERPRETIVE MODE AND OVFIND MUST BE CLEAR
000495:                                                                                                  #  L+1             RVSW
000496:                                                                                                  #  L+2             TIMERAD         RETURNS WITH PL AT 6.  THE INITIAL POSITION VECTOR IS IN 0D OF THE PUSHLIST AND
000497:                                                                                                  #                                  THE INITIAL VELOCITY VECTOR IN MPAC.
000498:                                                                                                  #  L+3      STOVL  NEWVVEC
000499:                                                                                                  #  L+4      STADR
000500:                                                                                                  #  L+5      STORE  NEWRVEC                 NEWVVEC AND NEWRVEC ARE SYMBOLIC REPRESENTATIONS OF THE USERS LOCATIONS.
000501:                                                                                                  #  L+6      ...                            CONTINUE
000502:
000503:
000504:
000505:                                                                                                  #  ABORT EXIT MODES -
000506:                                                                                                  #  L        CALL   BON
000507:                                                                                                  #  L+1             TIMERAD
000508:                                                                                                  #  L+2             COGAFLAG
000509:                                                                                                  #  L+3             COGABORT        RESTRICTION 1 HAS BEEN VIOLATED.
000510:                                                                                                  #  L+4      BON    BON
000511:                                                                                                  #  L+5             INFINFLG
000512:                                                                                                  #  L+6             IMPOSSBL        NO SOLUTION EXISTS.
000513:                                                                                                  #  L+7             SOLNSW
000514:                                                                                                  #  L+8             IMPOSSBL        SOLUTION IS UNDEFINED SINCE CONIC IS A CIRCLE.  RESTRICTION 3 HAS BEEN VIOLATED.
000515:                                                                                                  #  L+9      ...                    IF ALL THREE OF THE FLAGS ARE CLEAR, A SOLUTION EXISTS, SO CONTINUE.
000516:
000517:
000518:
000519:                                                                                                  #  OUTPUT -
000520:                                                                                                  #          * SCALE FACTOR *
000521:                                                                                                  #  VARIABLE*IN POWERS OF 2*                         DESCRIPTION AND REMARKS
000522:                                                                                                  #  --------*--------------*                         -----------------------
000523:                                                                                                  #  T (30D) * +28          *DP TRANSFER TIME IN CENTISECONDS
000524:                                                                                                  #  INFINFLG* NONE         *AN INTERPRETIVE SWITCH WHICH IS SET IF RDESIRED AND SGNRDOT REQUIRE CLOSURE THROUGH
000525:                                                                                                  #          *              *INFINITY (NO SOLUTION), CLEAR IF A PHYSICAL SOLUTION IS POSSIBLE.
000526:                                                                                                  #  COGAFLAG* NONE         *AN INTERPRETIVE SWITCH WHICH IS SET IF RESTRICTION 1 HAS BEEN VIOLATED (NO SOLUTION),
000527:                                                                                                  #          *              *CLEAR IF NOT.
000528:                                                                                                  #  APSESW  * NONE         *AN INTERPRETIVE SWITCH WHICH IS SET IF RDESIRED WAS GREATER THAN RADIUS OF APOCENTER OR
000529:                                                                                                  #          *              *LESS THAN RADIUS OF PERICENTER.  THE APOCENTER OR PERICENTER SOLUTION, RESPECTIVELY,
000530:                                                                                                  #          *              *WILL THEN BE RETURNED.  THE SWITCH IS CLEAR IF RDESIRED WAS BETWEEN PERICENTER AND
000531:                                                                                                  #          *              *APOCENTER.
000532:                                                                                                  #  SOLNSW  * NONE         *AN INTERPRETIVE SWITCH WHICH IS SET IF THE CONIC IS SO CLOSE TO A CIRCLE THAT THE TERMIN
000533:                                                                                                  #                         *POINT IS AMBIGUOUS, VIOLATING RESTRICTION 3.  IF ECCENTRICITY IS GREATER THAN 2-TO-THE-
000534:                                                                                                  #                         *MINUS-18, THE SWITCH IS CLEAR.
000535:
000536:
000537:
000538:                                                                                                  #  IN ADDITION, IF VTARGTAG IS NON-ZERO, THE FOLLOWING ARE OUTPUT -
000539:
000540:                                                                                                  #  MPAC -  * +7 FOR EARTH *DP TERMINAL VELOCITY VECTOR IN METERS/CENTISEC.
000541:                                                                                                  #   MPAC +5* +5 FOR MOON  *
000542:                                                                                                  #  0D - 5D * +29 FOR EARTH*DP TERMINAL POSITION VECTOR IN METERS (PL AT 6D)
000543:                                                                                                  #          * +27 FOR MOON *
000544:
000545:                                                                                                  #  FOR OTHER OUTPUT WHICH MAY BE OF USE, SEE DEBRIS.
000546:
000547:
000548:
000549:                                                                                                  #  DEBRIS -
000550:
000551:                                                                                                  #       PARAMETERS WHICH MAY BE OF USE -
000552:
000553:                                                                                                  #          * SCALE FACTOR *
000554:                                                                                                  #  VARIABLE*IN POWERS OF 2*                         DESCRIPTION AND REMARKS
000555:                                                                                                  #  --------*--------------*                         -----------------------
000556:                                                                                                  #  R1 (32D)* +29 FOR EARTH*DP MAGNITUDE OF INITIAL POSITION VECTOR, RVEC, IN METERS
000557:                                                                                                  #          * +27 FOR MOON *
000558:                                                                                                  #  R1A     * +6           *DP RATIO OF R1 TO SEMIMAJOR AXIS (NEG. FOR HYPERBOLIC TRAJECTORIES)
000559:                                                                                                  #  P       * +4           *DP RATIO OF SEMILATUS RECTUM TO R1
000560:                                                                                                  #  COGA    * +5           *DP COTAN OF ANGLE BETWEEN RVEC AND VVEC
000561:                                                                                                  #  UR1     * +1           *DP UNIT VECTOR OF RVEC
000562:                                                                                                  #  U2      * +1           *DP UNIT VECTOR OF VVEC
000563:                                                                                                  #  UN      * +1           *DP UNIT VECTOR OF UR1*U2
000564:                                                                                                  #  CSTH    * +1           *DP COSINE OF TRUE ANOMALY DIFFERENCE BETWEEN RVEC AND RDESIRED.
000565:                                                                                                  #  SNTH    * +1           *DP SINE OF TRUE ANOMALY DIFFERENCE.
000566:
000567:
000568:                                                                                                  #       PARAMETERS OF NO USE -
000569:                                                                                                  #  SP PARAMETERS -  RTNTT, GEOMSGN, RTNPRM, MAGVEC2=R2 (DP), PLUS PUSHLIST LOCATIONS 0-11D, 14D-21D, 24D-39D, 41D
000570:                                                                                                  #  ADDITIONAL INTERPRETIVE SWITCHES USED - NORMSW, 360SW
000571:
000572:
000573:                                                                                                  #  PROGRAM DESCRIPTION - APSIDES SUBROUTINE                                        DATE - 1 SEPTEMBER 1967
000574:                                                                                                  #  MOD NO. - 0                                                                     LOG SECTION - CONIC SUBROUTINES
000575:                                                                                                  #  MOD BY KRAUSE                                                                   ASSEMBLY - COLOSSUS REVISION 88
000576:
000577:
000578:
000579:                                                                                                  #  FUNCTIONAL DESCRIPTION -
000580:
000581:                                                                                                  #       THIS SUBROUTINE, GIVEN AN INITIAL STATE VECTOR CALCULATES THE RADIUS OF PERICENTER AND OF APOCENTER AND THE
000582:                                                                                                  #  ECCENTRICITY OF THE RESULTING CONIC TRAJECTORY, WHICH MAY BE A STRAIGHT LINE,
000583:                                                                                                  #  CIRCLE, ELLIPSE, PARABOLA, OR HYPERBOLA WITH RESPECT TO THE EARTH OR THE MOON.  THE USE OF THE SUBROUTINE CAN BE
000584:                                                                                                  #  EXTENDED USING OTHER PRIMARY BODIES BY SIMPLE ADDITIONS TO THE MUTABLE WITHOUT INTRODUCING ANY CODING CHANGES,
000585:                                                                                                  #  ACCEPTING THE INHERENT SCALE FACTOR CHANGES IN POSITION AND VELOCITY.
000586:
000587:
000588:                                                                                                  #  THE RESTRICTIONS ARE -
000589:                                                                                                  #       1.  IF APOCENTER IS BEYOND THE SCALING OF POSITION, THE SCALE FACTOR LIMIT (536,870,910 METERS WITH RESPECT
000590:                                                                                                  #  TO THE EARTH OR 134,217,727.5 METERS WITH RESPECT TO THE MOON) WILL BE RETURNED.
000591:                                                                                                  #       2. THE PARAMETERS IN THE PROBLEM MUST NOT EXCEED THEIR SCALING LIMITS SPECIFIED IN THE GSOP.  IF THE LIMITS
000592:                                                                                                  #  ARE EXCEEDED, THE RESULTING SOLUTION WILL BE MEANINGLESS.
000593:
000594:                                                                                                  #       THE AGC COMPUTATION TIME IS APPROXIMATELY .103 SECONDS.
000595:
000596:
000597:
000598:                                                                                                  #  REFERENCES -
000599:                                                                                                  #       MISSION PROGRAMMING DEFINITION MEMO NO. 10, LUNAR LANDING MISSION GSOP-SECTION 5.5
000600:
000601:
000602:
000603:                                                                                                  #  INPUT - ERASABLE INITIALIZATION REQUIRED
000604:
000605:                                                                                                  #          * SCALE FACTOR *
000606:                                                                                                  #  VARIABLE*IN POWERS OF 2*                         DESCRIPTION AND REMARKS
000607:                                                                                                  #  --------*--------------*                         -----------------------
000608:                                                                                                  #  RVEC    * +29 FOR EARTH*DP INITIAL POSITION VECTOR IN METERS
000609:                                                                                                  #          * +27 FOR MOON *
000610:                                                                                                  #  VVEC    * +7 FOR EARTH *DP INITIAL VELOCITY VECTOR IN METERS/CENTISECOND
000611:                                                                                                  #          * +5 FOR MOON  *
000612:                                                                                                  #  X1 (38D)*NONE          *INDEX REGISTER TO BE SET TO -2D OR -10D ACCORDING TO WHETHER THE EARTH OR MOON,
000613:                                                                                                  #          *              *RESPECTIVELY, IS THE CENTRAL BODY.
000614:
000615:
000616:
000617:                                                                                                  #  SUBROUTINES CALLED -
000618:                                                                                                  #       PARAM, GEOM
000619:
000620:
000621:
000622:                                                                                                  #  CALLING SEQUENCE AND NORMAL EXIT MODES -
000623:                                                                                                  #     IF ONLY TIME IS DESIRED AS OUTPUT -
000624:                                                                                                  #  L        CALL                   MUST BE IN INTERPRETIVE MODE AND OVFIND MUST BE CLEAR.
000625:                                                                                                  #  L+1             APSIDES         RETURNS WITH PL AT 0, RADIUS OF APOCENTER IN MPAC AND RADIUS OF PERICENTER IN 0D
000626:                                                                                                  #  L+2      STODL  APOAPSE
000627:                                                                                                  #  L+3             0D
000628:                                                                                                  #  L+4      STORE  PERIAPSE                APOAPSE AND PERIAPSE ARE SYMBOLIC REPRESENTATIONS OF THE USERS LOCATIONS
000629:                                                                                                  #  L+5      ...                    CONTINUE
000630:
000631:
000632:
000633:                                                                                                  #  OUTPUT -
000634:                                                                                                  #          * SCALE FACTOR *
000635:                                                                                                  #  VARIABLE*IN POWERS OF 2*                         DESCRIPTION AND REMARKS
000636:                                                                                                  #  --------*--------------*                         -----------------------
000637:                                                                                                  #  MPAC    * +29 FOR EARTH*DP RADIUS OF APOCENTER IN METERS
000638:                                                                                                  #          * +27 FOR MOON *
000639:                                                                                                  #  0D-1D   * +29 FOR EARTH*DP RADIUS OF PERICENTER IN METERS
000640:                                                                                                  #          * +27 FOR MOON *
000641:                                                                                                  #  ECC     * +3           *DP ECCENTRICITY OF CONIC TRAJECTORY.
000642:
000643:                                                                                                  #  FOR OTHER OUTPUT WHICH MAY BE OF USE, SEE DEBRIS.
000644:
000645:
000646:
000647:                                                                                                  #  DEBRIS -
000648:
000649:                                                                                                  #       PARAMETERS WHICH MAY BE OF USE -
000650:
000651:                                                                                                  #          * SCALE FACTOR *
000652:                                                                                                  #  VARIABLE*IN POWERS OF 2*                         DESCRIPTION AND REMARKS
000653:                                                                                                  #  --------*--------------*                         -----------------------
000654:                                                                                                  #  R1 (32D)* +29 FOR EARTH*DP MAGNITUDE OF INITIAL POSITION VECTOR, RVEC, IN METERS
000655:                                                                                                  #          * +27 FOR MOON *
000656:                                                                                                  #  R1A     * +6           *DP RATIO OF R1 TO SEMIMAJOR AXIS (NEG. FOR HYPERBOLIC TRAJECTORIES)
000657:                                                                                                  #  P       * +4           *DP RATIO OF SEMILATUS RECTUM TO R1
000658:                                                                                                  #  COGA    * +5           *DP COTAN OF ANGLE BETWEEN RVEC AND VVEC
000659:                                                                                                  #  UR1     * +1           *DP UNIT VECTOR OF RVEC
000660:                                                                                                  #  U2      * +1           *DP UNIT VECTOR OF VVEC
000661:                                                                                                  #  UN      * +1           *DP UNIT VECTOR OF UR1*U2
000662:                                                                                                  #  MAGVEC2 * +7 FOR EARTH *DP MAGNITUDE OF VVEC
000663:                                                                                                  #          * +5 FOR MOON  *
000664:
000665:
000666:                                                                                                  #       PARAMETERS OF NO USE -
000667:                                                                                                  #  SP PARAMETERS - RTNAPSE, GEOMSGN, RTNPRM, PLUS PUSHLIST LOCATIONS 0-5, 10D-11D, 14D-21D, 31D-38D.
000668:                                                                                                  #  ADDITIONAL INTERPRETIVE SWITCHES USED - NORMSW
000669:
000670:
000671:
000672: 12,2000                                           SETLOC   CONICS
000673: 12,2000                                           BANK
000674:
000675: 12,2000                                           COUNT*   $$/CONIC
000676: 12,2000  E5,1721                                  EBANK=   UR1
000677: 12,2000           71201        KEPLERN            SETPD    DLOAD
000678: 12,2001           00001                                    0
000679: 12,2002           22276                                    KEPZERO
000680: 12,2003           02201                           STORE    XMODULO
000681: 12,2004           32203                           STOVL*   TMODULO
000682: 12,2005           10756                                    MUTABLE,1
000683: 12,2006           24017                           STOVL    14D
000684: 12,2007           01503                                    RRECT
000685: 12,2010           66256                           UNIT     SSP
000686: 12,2011           00027                                    ITERCTR
000687: 12,2012           00024                                    20D
000688: 12,2013           16647                           STODL    URRECT
000689: 12,2014           00045                                    36D
000690: 12,2015           24041                           STOVL    R1
000691: 12,2016           01503                                    RRECT
000692: 12,2017           76441                           DOT      SL1R
000693: 12,2020           01511                                    VRECT
000694: 12,2021           76405                           DMP      SL1R
000695: 12,2022           00023                                    1/ROOTMU                              #  1/ROOTMU (-17 OR -14)
000696: 12,2023           24043                           STOVL    KEPC1                                 #  C1=R.V/ROOTMU (+17 OR +16)
000697:
000698: 12,2024           01511                                    VRECT
000699: 12,2025           57236                           VSQ      DMPR
000700: 12,2026           00017                                    1/MU                                  #  1/MU (-34 OR -28)
000701: 12,2027           52405                           DMP      SL3
000702: 12,2030           00041                                    R1
000703: 12,2031           61425                           DSU      ROUND
000704: 12,2032           10671                                    D1/64
000705: 12,2033           00045                           STORE    KEPC2                                 #  C2=RV.V/MU -1 (+6)
000706:
000707: 12,2034           74421                           BDSU     SR1R
000708: 12,2035           10671                                    D1/64
000709: 12,2036           77671                           DDV
000710: 12,2037           00041                                    R1
000711: 12,2040           00011                           STORE    ALPHA                                 #  ALPHA=(1-C2)/R1 (-22 OR -20)
000712:
000713:
000714: 12,2041           71244                           BPL      DLOAD                                 #  MAXIMUM X DEPENDS ON TYPE OF CONIC
000715: 12,2042           24051                                    1REV
000716: 12,2043           10707                                    -50SC                                 #  -50SC (+12)
000717: 12,2044           40071                           DDV      BOV
000718: 12,2045           00011                                    ALPHA
000719: 12,2046           24055                                    STOREMAX
000720: 12,2047           52166                           SQRT     GOTO
000721: 12,2050           24055                                    STOREMAX
000722:
000723: 12,2051           55366        1REV               SQRT     BDDV
000724: 12,2052           10711                                    2PISC                                 #  2PISC (+6)
000725: 12,2053           77600                           BOV
000726: 12,2054           24055                                    STOREMAX
000727: 12,2055           50165        STOREMAX           SIGN     BMN
000728: 12,2056           02076                                    TAU.
000729: 12,2057           24272                                    BACKWARD
000730: 12,2060           00013                           STORE    XMAX
000731: 12,2061           65205                           DMP      PDDL                                  #                               PL AT 2
000732: 12,2062           00023                                    1/ROOTMU
000733: 12,2063           00011                                    ALPHA
000734: 12,2064           65301                           NORM     PDDL                                  #  DXCH WITH 0D.  0D=ALPHA      PL AT 0,2
000735: 12,2065           00047                                    X1
000736: 12,2066           56257                           SL*      DDV                                   #                               PL AT 0
000737: 12,2067           20173                                    0          -6,1
000738: 12,2070           50000        PERIODCH           BOV      BMN
000739: 12,2071           24112                                    MODDONE
000740: 12,2072           24112                                    MODDONE
000741: 12,2073           77606                           PUSH                                           #  0D=PERIOD (+28)
000742: 12,2074           50021                           BDSU     BMN
000743: 12,2075           02076                                    TAU.
000744: 12,2076           24112                                    MODDONE
000745: 12,2077           16076                           STODL    TAU.
000746: 12,2100           00013                                    XMAX
000747: 12,2101           77615                           DAD
000748: 12,2102           02201                                    XMODULO
000749: 12,2103           16201                           STODL    XMODULO
000750: 12,2104           00001                                    0D
000751: 12,2105           77615                           DAD
000752: 12,2106           02203                                    TMODULO
000753: 12,2107           16203                           STODL    TMODULO                               #                               PL AT 0
000754: 12,2110           77650                           GOTO
000755: 12,2111           24070                                    PERIODCH
000756:
000757: 12,2112           71201        MODDONE            SETPD    DLOAD
000758: 12,2113           00001                                    0
000759: 12,2114           22276                                    KEPZERO
000760: 12,2115           14015                           STODL    XMIN
000761: 12,2116           02132                                    XKEPNEW
000762: 12,2117           77625                           DSU
000763: 12,2120           02201                                    XMODULO
000764: 12,2121           00025                           STORE    X
000765: 12,2122           50054                           BZE      BMN
000766: 12,2123           24265                                    BADX
000767: 12,2124           24265                                    BADX
000768: 12,2125           51025                           DSU      BPL
000769: 12,2126           00013                                    XMAX
000770: 12,2127           24265                                    BADX
000771:
000772: 12,2130           57345        DXCOMP             DLOAD    DMPR
000773: 12,2131           02076                                    TAU.
000774: 12,2132           10702                                    BEE22
000775: 12,2133           77646                           ABS
000776: 12,2134           16205                           STODL    EPSILONT
000777: 12,2135           01551                                    TC
000778: 12,2136           45254                           BZE      DSU
000779: 12,2137           24141                                    NEWTC
000780: 12,2140           02203                                    TMODULO
000781: 12,2141           15551        NEWTC              STODL    TC
000782: 12,2142           01553                                    XPREV
000783: 12,2143           45254                           BZE      DSU
000784: 12,2144           24146                                    XDIFF
000785: 12,2145           02201                                    XMODULO
000786: 12,2146           77621        XDIFF              BDSU
000787: 12,2147           00025                                    X
000788: 12,2150           02643                           STORE    DELX
000789:
000790:
000791: 12,2151           63545        KEPLOOP            DLOAD    DSQ
000792: 12,2152           00025                                    X                                     #  X=XKEP
000793: 12,2153           41501                           NORM     PUSH                                  #  0D=XSQ (+34 OR +32 -N1)       PL AT 2
000794: 12,2154           00047                                    X1
000795: 12,2155           53605                           DMP      SRR*
000796: 12,2156           00011                                    ALPHA
000797: 12,2157           21573                                    0          -6,1
000798: 12,2160           34031                           STCALL   XI                                    #  XI=ALPHA XSQ (+6)
000799: 12,2161           24421                                    DELTIME
000800: 12,2162           44200                           BOV      BDSU
000801: 12,2163           24312                                    TIMEOVFL                              #  UNLIKELY
000802: 12,2164           02076                                    TAU.
000803: 12,2165           02645                           STORE    DELT                                  #  DELT=DELINDEP
000804: 12,2166           44246                           ABS      BDSU
000805: 12,2167           02205                                    EPSILONT
000806: 12,2170           71244                           BPL      DLOAD
000807: 12,2171           24327                                    KEPCONVG
000808: 12,2172           00037                                    T
000809: 12,2173           60225                           DSU      NORM
000810: 12,2174           01551                                    TC
000811: 12,2175           00047                                    X1
000812: 12,2176           60325                           PDDL     NORM
000813: 12,2177           02643                                    DELX
000814: 12,2200           00050                                    X2
000815: 12,2201           41260                           XSU,1    DMP
000816: 12,2202           00047                                    X2
000817: 12,2203           02645                                    DELT
000818: 12,2204           56257                           SLR*     DDV
000819: 12,2205           21202                                    1,1
000820: 12,2206           41542                           SR1      PUSH                                  #  0D=TRIAL DELX              PL AT 2
000821: 12,2207           71244                           BPL      DLOAD
000822: 12,2210           24231                                    POSDELX
000823: 12,2211           00025                                    X
000824: 12,2212           00013                           STORE    XMAX                                  #  MOVE MAX BOUND IN
000825: 12,2213           45221                           BDSU     DSU                                   #                             PL AT 0
000826: 12,2214           00015                                    XMIN
000827: 12,2215           51000                           BOV      BPL
000828: 12,2216           24223                                    NDXCHNGE
000829: 12,2217           24223                                    NDXCHNGE
000830: 12,2220           52145                           DLOAD    GOTO
000831: 12,2221           00001                                    0D
000832: 12,2222           24243                                    NEWDELX
000833:
000834:
000835: 12,2223           45345        NDXCHNGE           DLOAD    DSU
000836: 12,2224           00015                                    XMIN
000837: 12,2225           00025                                    X
000838: 12,2226           52075                           DMPR     GOTO                                  #  TO FORCE MPAC +2 TO ZERO
000839: 12,2227           10705                                    DP9/10
000840: 12,2230           24243                                    NEWDELX
000841:
000842:
000843: 12,2231           77745        POSDELX            DLOAD
000844: 12,2232           00025                                    X
000845: 12,2233           00015                           STORE    XMIN                                  #  MOVE MIN BOUND IN
000846: 12,2234           45221                           BDSU     DSU                                   #                             PL AT 0
000847: 12,2235           00013                                    XMAX
000848: 12,2236           50000                           BOV      BMN
000849: 12,2237           24257                                    PDXCHNGE
000850: 12,2240           24257                                    PDXCHNGE
000851: 12,2241           77745                           DLOAD
000852: 12,2242           00001                                    0D
000853: 12,2243           02643        NEWDELX            STORE    DELX
000854: 12,2244           43254                           BZE      DAD
000855: 12,2245           24327                                    KEPCONVG
000856: 12,2246           00025                                    X
000857: 12,2247           14025                           STODL    X
000858: 12,2250           00037                                    T
000859: 12,2251           01551                           STORE    TC
000860: 12,2252           46034        BRNCHCTR           RTB      BHIZ
000861: 12,2253           24644                                    CHECKCTR
000862: 12,2254           24327                                    KEPCONVG
000863: 12,2255           77650                           GOTO
000864: 12,2256           24151                                    KEPLOOP                               #  ITERATE
000865:
000866:
000867: 12,2257           45345        PDXCHNGE           DLOAD    DSU
000868: 12,2260           00013                                    XMAX
000869: 12,2261           00025                                    X
000870: 12,2262           52075                           DMPR     GOTO                                  #  TO FORCE MPAC +2 TO ZERO
000871: 12,2263           10705                                    DP9/10
000872: 12,2264           24243                                    NEWDELX
000873:
000874:
000875: 12,2265           70545        BADX               DLOAD    SR1                                   #  RECIPE EXCEEDED X BOUNDS - USE XMAX/2
000876: 12,2266           00013                                    XMAX
000877: 12,2267           00025                           STORE    X
000878: 12,2270           77650                           GOTO
000879: 12,2271           24130                                    DXCOMP
000880:
000881:
000882: 12,2272           14015        BACKWARD           STODL    XMIN
000883: 12,2273           22276                                    KEPZERO
000884: 12,2274           14013                           STODL    XMAX
000885: 12,2275           02132                                    XKEPNEW
000886: 12,2276           00025                           STORE    X
000887: 12,2277           51054                           BZE      BPL
000888: 12,2300           24305                                    BADBKWDX
000889: 12,2301           24305                                    BADBKWDX
000890: 12,2302           51025                           DSU      BPL
000891: 12,2303           00015                                    XMIN
000892: 12,2304           24130                                    DXCOMP
000893: 12,2305           70545        BADBKWDX           DLOAD    SR1
000894: 12,2306           00015                                    XMIN
000895: 12,2307           00025                           STORE    X
000896: 12,2310           77650                           GOTO
000897: 12,2311           24130                                    DXCOMP
000898:
000899:
000900: 12,2312           77745        TIMEOVFL           DLOAD
000901: 12,2313           00025                                    X
000902: 12,2314           00013                           STORE    XMAX
000903: 12,2315           70545        CMNTOVFL           DLOAD    SR1
000904: 12,2316           02643                                    DELX
000905: 12,2317           02643                           STORE    DELX
000906: 12,2320           77621                           BDSU
000907: 12,2321           00025                                    X
000908: 12,2322           14025                           STODL    X
000909: 12,2323           01551                                    TC
000910: 12,2324           00037                           STORE    T
000911: 12,2325           77650                           GOTO
000912: 12,2326           24151                                    KEPLOOP
000913: 12,2327           44545        KEPCONVG           DLOAD    SR4R
000914: 12,2330           00041                                    R1
000915: 12,2331           74225                           DSU      VXSC
000916: 12,2332           00035                                    XSQC(XI)
000917: 12,2333           02647                                    URRECT
000918: 12,2334           65372                           VSL1     PDDL                                  #  0D=(R1-XSQC(XI))URRECT (+33 OR +31)
000919: 12,2335           00025                                    X
000920: 12,2336           60316                           DSQ      NORM
000921: 12,2337           00047                                    X1
000922: 12,2340           57275                           DMPR     DMPR
000923: 12,2341           00023                                    1/ROOTMU
000924: 12,2342           00025                                    X
000925: 12,2343           53605                           DMP      SRR*
000926: 12,2344           00033                                    S(XI)
000927: 12,2345           21572                                    0          -7,1
000928: 12,2346           77621                           BDSU
000929: 12,2347           00037                                    T
000930: 12,2350           74352                           SL1      VXSC
000931: 12,2351           01511                                    VRECT
000932: 12,2352           53372                           VSL1     VAD                                   #                               PL AT 0
000933: 12,2353           77712                           VSL4
000934: 12,2354           01535                           STORE    RCV                                   #  RCV (+29 OR +27)
000935:
000936:
000937: 12,2355           60246                           ABVAL    NORM
000938: 12,2356           00050                                    X2
000939: 12,2357           14043                           STODL    RCNORM
000940: 12,2360           00031                                    XI
000941: 12,2361           45275                           DMPR     DSU
000942: 12,2362           00033                                    S(XI)
000943: 12,2363           10667                                    D1/128
000944: 12,2364           76405                           DMP      SL1R
000945: 12,2365           00021                                    ROOTMU
000946: 12,2366           53605                           DMP      SLR*
000947: 12,2367           00025                                    X
000948: 12,2370           56601                                    0          -3,2
000949: 12,2371           74271                           DDV      VXSC
000950: 12,2372           00043                                    RCNORM
000951: 12,2373           02647                                    URRECT
000952: 12,2374           65372                           VSL1     PDDL                                  #  0D=URRECT(XI S(XI)-1)X ROOTMU/RCV (+15
000953: 12,2375           00035                                    XSQC(XI)                              #  OR +13)                        PL AT 6
000954: 12,2376           56257                           SLR*     DDV
000955: 12,2377           56602                                    0          -4,2
000956: 12,2400           00043                                    RCNORM
000957: 12,2401           74221                           BDSU     VXSC
000958: 12,2402           10703                                    D1/256
000959: 12,2403           01511                                    VRECT
000960: 12,2404           42455                           VAD      VSL8
000961: 12,2405           77626                           STADR                                          #                               PL AT 0
000962: 12,2406           62234                           STODL    VCV                                   #  VCV (+7 OR +5)
000963: 12,2407           00037                                    T
000964: 12,2410           77615                           DAD
000965: 12,2411           02203                                    TMODULO
000966: 12,2412           15551                           STODL    TC
000967: 12,2413           00025                                    X
000968: 12,2414           77615                           DAD
000969: 12,2415           02201                                    XMODULO
000970: 12,2416           01553                           STORE    XPREV
000971: 12,2417           77650                           GOTO
000972: 12,2420           02114                                    KEPRTN
000973:
000974: 12,2421           77776        DELTIME            EXIT                                           #  MPAC=XI (+6), 0D=XSQ (+34 OR +32 -N1)
000975: 12,2422           07176                           TC       POLY
000976: 12,2423           00010                           DEC      8          B-14
000977: 12,2424           02525 12526                     2DEC     .083333334
000978:
000979: 12,2426           67356 75666                     2DEC     -.266666684
000980:
000981: 12,2430           15001 23771                     2DEC     .406349155
000982:
000983: 12,2432           64342 43674                     2DEC     -.361198675
000984:
000985: 12,2434           06563 04645                     2DEC     .210153242
000986:
000987: 12,2436           75173 52672                     2DEC     -.086221951
000988:
000989: 12,2440           00656 14331                     2DEC     .026268812
000990:
000991: 12,2442           77633 40512                     2DEC     -.006163316
000992:
000993: 12,2444           00023 11210                     2DEC     .001177342
000994:
000995: 12,2446           77774 67506                     2DEC     -.000199055
000996:
000997: 12,2450           06014                           TC       INTPRET
000998: 12,2451           14033                           STODL    S(XI)
000999: 12,2452           00031                                    XI
001000: 12,2453           77776                           EXIT
001001: 12,2454           07176                           TC       POLY
001002: 12,2455           00010                           DEC      8          B-14
001003: 12,2456           01000 00000                     2DEC     .031250001
001004:
001005: 12,2460           72525 52506                     2DEC     -.166666719
001006:
001007: 12,2462           13301 15337                     2DEC     .355555413
001008:
001009: 12,2464           62776 54733                     2DEC     -.406347410
001010:
001011: 12,2466           11176 13267                     2DEC     .288962094
001012:
001013: 12,2470           73410 51674                     2DEC     -.140117894
001014:
001015: 12,2472           01446 33641                     2DEC     .049247387
001016:
001017: 12,2474           77451 65233                     2DEC     -.013081923
001018:
001019: 12,2476           00055 37266                     2DEC     .002806389
001020:
001021: 12,2500           77767 52336                     2DEC     -.000529414
001022:
001023: 12,2502           06014                           TC       INTPRET
001024: 12,2503           53605                           DMP      SRR*                                  #                               PL AT 0
001025: 12,2504           00001                                    0D
001026: 12,2505           21574                                    0          -5,1
001027: 12,2506           00035                           STORE    XSQC(XI)                              #  XSQC(XI) (+33 OR +31)
001028: 12,2507           72405                           DMP      SL1
001029: 12,2510           00043                                    KEPC1
001030: 12,2511           65234                           RTB      PDDL                                  #  XCH WITH PL. 0D=C1 XSQ C(XI) (+49 OR +46
001031: 12,2512           21531                                    TPMODE                                #                               PL AT 0,3
001032: 12,2513           53605                           DMP      SRR*
001033: 12,2514           00033                                    S(XI)
001034: 12,2515           21574                                    0          -5,1
001035: 12,2516           72405                           DMP      SL1
001036: 12,2517           00045                                    KEPC2
001037: 12,2520           65234                           RTB      PDDL                                  #  3D=C2 XSQ S(XI) (+35 OR +33)  PL AT 6
001038: 12,2521           21531                                    TPMODE
001039: 12,2522           00041                                    R1
001040: 12,2523           76261                           SR       TAD                                   #                               PL AT 3
001041: 12,2524           20607                                    6
001042: 12,2525           41301                           NORM     DMP                                   #  TO PRESERVE SIGNIF.
001043: 12,2526           00047                                    X1
001044: 12,2527           00025                                    X
001045: 12,2530           76257                           SR*      TAD                                   #  X(C2 XSQ S(XI) +R1) (+49 OR +46) PL AT 0
001046: 12,2531           20576                                    0          -3,1
001047: 12,2532           57232                           SL4R     DMPR
001048: 12,2533           00023                                    1/ROOTMU
001049: 12,2534           00037                           STORE    T
001050: 12,2535           77616                           RVQ
001051:
001052: 12,2536           71214        ITERATOR           BONCLR   DLOAD
001053: 12,2537           00614                                    SLOPESW
001054: 12,2540           24606                                    FIRSTIME
001055: 12,2541           00037                                    DEP
001056: 12,2542           60225                           DSU      NORM
001057: 12,2543           02762                                    DEPREV
001058: 12,2544           00047                                    X1
001059: 12,2545           60325                           PDDL     NORM
001060: 12,2546           00015                                    DELINDEP
001061: 12,2547           00050                                    X2
001062: 12,2550           41260                           XSU,1    DMP
001063: 12,2551           00047                                    X2
001064: 12,2552           02760                                    DELDEP
001065: 12,2553           56257                           SLR*     DDV                                   #                               PL UP 2
001066: 12,2554           21202                                    1,1
001067: 12,2555           43142                           SR1      BOFF
001068: 12,2556           04351                                    ORDERSW
001069: 12,2557           24562                                    SGNCHECK
001070: 12,2560           75246                           ABS      SIGN                                  #  IN CASE 2ND DERIV. CHANGED SIGN, MUST
001071: 12,2561           02760                                    DELDEP                                #  DISREGARD IT TO FIND MIN.
001072:
001073: 12,2562           51006        SGNCHECK           PUSH     BPL                                   #  TRIAL DELINDEP               PL DOWN 2
001074: 12,2563           24620                                    POSDEL
001075: 12,2564           43145                           DLOAD    BON
001076: 12,2565           02766                                    INDEP
001077: 12,2566           04311                                    ORDERSW
001078: 12,2567           24571                                    MINCHECK
001079: 12,2570           00017                           STORE    MAX                                   #  IF NOT 2ND ORDER, CAN MOVE MAX BOUND IN.
001080:
001081: 12,2571           45221        MINCHECK           BDSU     DSU
001082: 12,2572           00011                                    MIN
001083: 12,2573           51000                           BOV      BPL
001084: 12,2574           24600                                    MODNGDEL
001085: 12,2575           24600                                    MODNGDEL
001086: 12,2576           77650                           GOTO
001087: 12,2577           24632                                    DELOK
001088:
001089:
001090: 12,2600           45345        MODNGDEL           DLOAD    DSU                                   #  TRIAL DELINDEP WOULD EXCEED MIN BOUND
001091: 12,2601           00011                                    MIN
001092: 12,2602           02766                                    INDEP
001093: 12,2603           52005                           DMP      GOTO
001094: 12,2604           10705                                    DP9/10
001095: 12,2605           24634                                    NEWDEL
001096:
001097:
001098: 12,2606           41345        FIRSTIME           DLOAD    DMP
001099: 12,2607           00011                                    MIN
001100: 12,2610           00051                                    TWEEKIT                               #  DLOAD TWEEKIT(40D) SENSITIVE TO CHANGE.
001101: 12,2611           41325                           PDDL     DMP                                   #  S2(41D) SHOULDNT CONTAIN HI ORDER ONES
001102: 12,2612           00017                                    MAX
001103: 12,2613           00051                                    TWEEKIT
001104: 12,2614           77625                           DSU
001105: 12,2615           52165                           SIGN     GOTO
001106: 12,2616           02760                                    DELDEP
001107: 12,2617           24562                                    SGNCHECK
001108:
001109:
001110: 12,2620           43145        POSDEL             DLOAD    BON
001111: 12,2621           02766                                    INDEP
001112: 12,2622           04311                                    ORDERSW
001113: 12,2623           24625                                    MAXCHECK
001114: 12,2624           00011                           STORE    MIN                                   #  IF NOT 2ND ORDER, CAN MOVE MIN BOUND IN.
001115:
001116: 12,2625           45221        MAXCHECK           BDSU     DSU
001117: 12,2626           00017                                    MAX
001118: 12,2627           50000                           BOV      BMN
001119: 12,2630           24636                                    MODPSDEL
001120: 12,2631           24636                                    MODPSDEL
001121: 12,2632           77745        DELOK              DLOAD
001122: 12,2633           00001                                    0D
001123: 12,2634           00015        NEWDEL             STORE    DELINDEP
001124: 12,2635           77616                           RVQ
001125:
001126:
001127: 12,2636           45345        MODPSDEL           DLOAD    DSU
001128: 12,2637           00017                                    MAX
001129: 12,2640           02766                                    INDEP
001130: 12,2641           52005                           DMP      GOTO
001131: 12,2642           10705                                    DP9/10
001132: 12,2643           24634                                    NEWDEL
001133:
001134:
001135: 12,2644           45026        CHECKCTR           CS       ONE
001136: 12,2645           50120                           INDEX    FIXLOC
001137: 12,2646           60026                           AD       ITERCTR
001138: 12,2647           50120                           INDEX    FIXLOC
001139: 12,2650           54026                           TS       ITERCTR
001140: 12,2651           54154                           TS       MPAC
001141: 12,2652           06035                           TC       DANZIG
001142:
001143: 12,2653           44545        NEWSTATE           DLOAD    SR4R
001144: 12,2654           00041                                    R1
001145: 12,2655           74225                           DSU      VXSC
001146: 12,2656           00035                                    XSQC(XI)
001147: 12,2657           02722                                    UR1
001148: 12,2660           65372                           VSL1     PDDL                                  #  0D=(R1-XSQC(XI))UR1 (+33 OR 31) PL AT 6
001149: 12,2661           00025                                    X
001150: 12,2662           60316                           DSQ      NORM
001151: 12,2663           00047                                    X1
001152: 12,2664           57275                           DMPR     DMPR
001153: 12,2665           00023                                    1/ROOTMU
001154: 12,2666           00025                                    X
001155: 12,2667           53605                           DMP      SRR*
001156: 12,2670           00033                                    S(XI)
001157: 12,2671           21572                                    0          -7,1
001158: 12,2672           77621                           BDSU
001159: 12,2673           00037                                    T
001160: 12,2674           74352                           SL1      VXSC
001161: 12,2675           02744                                    VVEC
001162: 12,2676           53372                           VSL1     VAD                                   #                               PL AT 0
001163: 12,2677           41512                           VSL4     PUSH
001164: 12,2700           77646                           ABVAL
001165: 12,2701           77701        LAMENTER           NORM
001166: 12,2702           00047                                    X1
001167: 12,2703           16720                           STODL    R2
001168: 12,2704           00031                                    XI
001169: 12,2705           45205                           DMP      DSU
001170: 12,2706           00033                                    S(XI)
001171: 12,2707           10667                                    D1/128
001172: 12,2710           76405                           DMP      SL1R
001173: 12,2711           00021                                    ROOTMU
001174: 12,2712           53605                           DMP      SLR*
001175: 12,2713           00025                                    X
001176: 12,2714           21176                                    0          -3,1
001177: 12,2715           74271                           DDV      VXSC
001178: 12,2716           02720                                    R2
001179: 12,2717           02722                                    UR1
001180: 12,2720           65372                           VSL1     PDDL                                  #  6D=V2VEC PART (+15 OR 13)       PL AT 12
001181: 12,2721           00035                                    XSQC(XI)
001182: 12,2722           56257                           SLR*     DDV
001183: 12,2723           21175                                    0          -4,1
001184: 12,2724           02720                                    R2
001185: 12,2725           77621                           BDSU
001186: 12,2726           10703                                    D1/256
001187: 12,2727           53361                           VXSC     VAD                                   #                               PL AT 6
001188: 12,2730           02744                                    VVEC
001189: 12,2731           43412                           VSL8     RVQ
001190:


001192:
001193: 04,2000                                           SETLOC   CONICS1
001194: 04,2000                                           BANK
001195:
001196: 04,2663                                           COUNT*   $$/CONIC
001197:                                                                                                  #  DO NOT DISTURB THE ORDER OF THESE CDS, OVERLAYS HAVE BEEN MADE.
001198: 04,2663           00000        BEE17              DEC      0          B-14                       #  KEEP WITH D1/8 2DEC 1.0B-17 (0000004000)
001199: 04,2664           04000 00000  D1/8               2DEC     1.0        B-3
001200:
001201: 04,2666           00200 00000  D1/128             2DEC     1.0        B-7
001202:
001203: 04,2670           00400 00000  D1/64              2DEC     1.0        B-6
001204:
001205: 04,2672           10000 00000  D1/4               2DEC     1.0        B-2
001206:
001207: 04,2674           02000 00000  D1/16              2DEC     1.0        B-4
001208:
001209: 04,2676           01000 00000  D1/32              2DEC     1.0        B-5
001210:
001211: 04,2700           00020 00000  D1/1024            2DEC     1.0        B-10
001212:
001213: 04,2702           00100 00000  D1/256             2DEC     1.0        B-8
001214:
001215: 04,2704           34631 23146  DP9/10             2DEC     .9
001216:
001217: 04,2706  11,2275               KEPZERO            EQUALS   LO6ZEROS
001218: 04,2706           77467 77777  -50SC              2DEC     -50.0      B-12
001219:
001220: 04,2710           03110 17665  2PISC              2DEC     6.28318530 B-6
001221:
001222: 04,2712  04,2675               BEE19              EQUALS   D1/32      -1                         #  2DEC 1.0 B-19 (00000 01000)
001223: 04,2712  04,2701               BEE22              EQUALS   D1/256     -1                         #  2DEC 1.0 B-22 (00000 00100)
001224: 04,2712           00000 00001  ONEBIT             2DEC     1.0        B-28
001225:
001226: 04,2714           37767 37737  COGUPLIM           2DEC     .999511597
001227:
001228: 04,2716           40010 40040  COGLOLIM           2DEC     -.999511597
001229:


001231:
001232: 12,2000                                           SETLOC   CONICS
001233: 12,2000                                           BANK
001234:
001235: 12,2732                                           COUNT*   $$/CONIC
001236: 12,2732           40220        TIMETHET           STQ      SETPD                                 #                                PL AT 0
001237: 12,2733           02710                                    RTNTT
001238: 12,2734           00001                                    0
001239: 12,2735           63375                           VLOAD    PDVL                                  #  SETUP FOR PARAM CALL          PL AT 6
001240: 12,2736           02655                                    RVEC
001241: 12,2737           02744                                    VVEC
001242: 12,2740           77624                           CALL
001243: 12,2741           24765                                    PARAM
001244: 12,2742           45000                           BOV      CALL                                  #                                PL AT 0
001245: 12,2743           24762                                    COGAOVFL
001246: 12,2744           25031                                    GETX
001247: 12,2745           43145        COMMNOUT           DLOAD    BON
001248: 12,2746           00031                                    XI
001249: 12,2747           04310                                    INFINFLG
001250: 12,2750           02710                                    RTNTT
001251: 12,2751           45014                           CLEAR    CALL
001252: 12,2752           04273                                    COGAFLAG
001253: 12,2753           24421                                    DELTIME
001254: 12,2754           45014                           BON      CALL
001255: 12,2755           03706                                    RVSW
001256: 12,2756           02710                                    RTNTT
001257: 12,2757           24653                                    NEWSTATE
001258: 12,2760           77650                           GOTO
001259: 12,2761           02710                                    RTNTT
001260:
001261:
001262: 12,2762           77614        COGAOVFL           SETGO
001263: 12,2763           04033                                    COGAFLAG
001264: 12,2764           02710                                    RTNTT
001265:
001266: 12,2765           43020        PARAM              STQ      CLEAR                                 #  MPAC=V1VEC, 0D=R1VEC         PL AT 6
001267: 12,2766           02753                                    RTNPRM
001268: 12,2767           03665                                    NORMSW
001269: 12,2770           77614                           CLEAR
001270: 12,2771           04273                                    COGAFLAG
001271: 12,2772           45131                           SSP      CALL
001272: 12,2773           02673                                    GEOMSGN
001273: 12,2774           27777                                    37777                                 #  GAMMA ALWAYS LESS THAN 180DEG
001274: 12,2775           10720                                    GEOM                                  #  MPAC=SNGA (+1), 0D=CSGA (+1) PL AT 2
001275: 12,2776           14045                           STODL    36D                                   #  36D=SIN GAMMA (+1)           PL AT 0
001276: 12,2777           56261                           SR       DDV
001277: 12,3000           20606                                    5
001278:
001279: 12,3001           00045                                    36D
001280: 12,3002           32766                           STOVL*   COGA
001281: 12,3003           10756                                    MUTABLE,1
001282: 12,3004           14017                           STODL    1/MU
001283: 12,3005           02720                                    MAGVEC2
001284: 12,3006           60316                           DSQ      NORM
001285: 12,3007           00047                                    X1
001286: 12,3010           41275                           DMPR     DMP
001287: 12,3011           00017                                    1/MU
001288: 12,3012           00041                                    R1
001289: 12,3013           77657                           SRR*
001290: 12,3014           21576                                    0          -3,1
001291: 12,3015           44206                           PUSH     BDSU                                  #  0D=R1 V1SQ/MU (+6)           PL AT 2
001292: 12,3016           10677                                    D1/32
001293: 12,3017           16742                           STODL    R1A                                   #  R1A (+6)                     PL AT 0
001294:
001295: 12,3020           60205                           DMP      NORM
001296: 12,3021           00045                                    36D
001297: 12,3022           00047                                    X1
001298: 12,3023           53605                           DMP      SR*
001299: 12,3024           00045                                    36D
001300: 12,3025           20575                                    0          -4,1
001301: 12,3026           02740                           STORE    P                                     #  P (+4)
001302: 12,3027           77650                           GOTO
001303: 12,3030           02753                                    RTNPRM
001304:


001306:
001307: 04,2720                                           BANK     4
001308: 04,2000                                           SETLOC   CONICS1
001309: 04,2000                                           BANK
001310: 04,2720                                           COUNT*   $$/CONIC
001311: 04,2720           77656        GEOM               UNIT                                           #  MPAC=V2VEC, 0D=R1VEC         PL AT 6
001312: 04,2721           16712                           STODL    U2                                    #  U2 (+1)
001313: 04,2722           00045                                    36D
001314: 04,2723           26720                           STOVL    MAGVEC2                               #                               PL AT 0
001315: 04,2724           77656                           UNIT
001316: 04,2725           02722                           STORE    UR1                                   #  UR1 (+1)
001317: 04,2726           72441                           DOT      SL1
001318: 04,2727           02712                                    U2
001319: 04,2730           77725                           PDDL                                           #  OD=CSTH (+1)                 PL AT 2
001320: 04,2731           00045                                    36D
001321: 04,2732           24041                           STOVL    R1                                    #  R1 (+29 OR +27)
001322: 04,2733           02722                                    UR1
001323: 04,2734           76435                           VXV      VSL1
001324: 04,2735           02712                                    U2
001325: 04,2736           75214                           BON      SIGN
001326: 04,2737           03705                                    NORMSW
001327: 04,2740           10752                                    HAVENORM
001328: 04,2741           02673                                    GEOMSGN
001329: 04,2742           40056                           UNIT     BOV
001330: 04,2743           10750                                    COLINEAR
001331: 04,2744           16674        UNITNORM           STODL    UN                                    #  UN (+1)
001332: 04,2745           00045                                    36D
001333: 04,2746           43565                           SIGN     RVQ                                   #  MPAC=SNTH (+1), 34D=SNTH.SNTH (+2)
001334: 04,2747           02673                                    GEOMSGN
001335:
001336:
001337: 04,2750           52162        COLINEAR           VSR1     GOTO
001338: 04,2751           10744                                    UNITNORM
001339:
001340:
001341: 04,2752           75246        HAVENORM           ABVAL    SIGN
001342: 04,2753           02673                                    GEOMSGN
001343: 04,2754           77616                           RVQ                                            #  MPAC=SNTH (+1), 34D=SNTH.SNTH (+2)
001344:
001345:
001346:                                                                                                  #  *** THE ORDER OF THE FOLLOWING CONSTANTS MUST BE PRESERVED *************
001347:
001348: 04,2755           22437 16067  MUTABLE            2DEC*    3.986032   E10        B-36*           #  MUE
001349: 04,2757           15625 21042                     2DEC*    .25087606  E-10       B+34*           #  1/MUE
001350: 04,2761           30276 04773                     2DEC*    1.99650495 E5         B-18*           #  SQRT(MUE)
001351: 04,2763           25004 06702                     2DEC*    .50087529  E-5        B+17*           #  1/SQRT(MUE)
001352:
001353:
001354: 04,2765           16471 01352                     2DEC*    4.902778   E8         B-30*           #  MUM
001355: 04,2767           21412 20500                     2DEC*    .203966    E-8        B+28*           #  1/MUM
001356:
001357: 04,2771           25477 03367                     2DEC*    2.21422176 E4         B-15*           #  SQRT(MUM)
001358: 04,2773           27533 07571                     2DEC*    .45162595  E-4        B+14*           #  1/SQRT(MUM)
001359:


001361:
001362: 12,3031                                           BANK     12
001363: 12,2000                                           SETLOC   CONICS
001364: 12,2000                                           BANK
001365:
001366: 12,3031                                           COUNT*   $$/CONIC
001367: 12,3031           66374        GETX               AXT,2    SSP                                   #  ASSUMES P (+4) IN MPAC
001368: 12,3032           00003                                    3
001369: 12,3033           00052                                    S2
001370: 12,3034           00001                                    1
001371: 12,3035           77614                           CLEAR
001372: 12,3036           04276                                    360SW
001373: 12,3037           65366                           SQRT     PDDL                                  #  0D=SQRT(P)                        PL AT 2
001374: 12,3040           02732                                    CSTH
001375: 12,3041           44342                           SR1      BDSU
001376: 12,3042           10673                                    D1/4
001377: 12,3043           54325                           PDDL     SRR                                   #                                PL AT 4D
001378: 12,3044           02730                                    SNTH
001379: 12,3045           21607                                    6
001380: 12,3046           77671                           DDV                                            #                                PL AT 2
001381: 12,3047           77600                           BOV
001382: 12,3050           25164                                    360CHECK
001383: 12,3051           41225                           DSU      DMP
001384: 12,3052           02766                                    COGA                                  #                                    PL AT 0
001385: 12,3053           40132                           SL2R     BOV
001386: 12,3054           25164                                    360CHECK
001387: 12,3055           63406        WLOOP              PUSH     DSQ                                   #  0D=W (+5)                         PL AT 2
001388: 12,3056           65351                           TLOAD    PDDL                                  #  2D=WSQ (+10)                      PL AT 5
001389: 12,3057           00155                                    MPAC
001390: 12,3060           02742                                    R1A
001391: 12,3061           76202                           SR4      TAD                                   #                                PL AT 2
001392: 12,3062           75440                           BMN      SQRT
001393: 12,3063           25247                                    INFINITY
001394: 12,3064           43306                           ROUND    DAD                                   #                                PL AT 0D
001395: 12,3065           61000                           BOV      TIX,2
001396: 12,3066           25162                                    RESETX2
001397: 12,3067           25055                                    WLOOP
001398:
001399:
001400: 12,3070           40065                           BDDV     BOV
001401: 12,3071           10667                                    D1/128
001402: 12,3072           25247                                    INFINITY
001403: 12,3073           41440        POLYCOEF           BMN      PUSH                                  #  0D=1/W (+2) OR 16/W (+6)      PL AT 2
001404: 12,3074           25247                                    INFINITY
001405: 12,3075           77716                           DSQ
001406: 12,3076           41301                           NORM     DMP
001407: 12,3077           00047                                    X1
001408: 12,3100           02742                                    R1A
001409: 12,3101           77457                           SRR*     EXIT
001410: 12,3102           21567                                    0          -10D,1
001411: 12,3103           07176                           TC       POLY
001412: 12,3104           00005                           DEC      5          B-14
001413: 12,3105           20000 00000                     2DEC     .5
001414:
001415: 12,3107           72525 52471                     2DEC     -.166666770
001416:
001417: 12,3111           03146 15003                     2DEC     .100000392
001418:
001419: 12,3113           75556 45210                     2DEC     -.071401086
001420:
001421: 12,3115           01615 13553                     2DEC     .055503292
001422:
001423: 12,3117           76371 63777                     2DEC     -.047264098
001424:
001425: 12,3121           01232 27367                     2DEC     .040694204
001426:
001427: 12,3123           06014                           TC       INTPRET
001428: 12,3124           76405                           DMP      SL1R                                  #                                PL AT 0D
001429: 12,3125           43006                           PUSH     BON
001430: 12,3126           04316                                    360SW
001431: 12,3127           25234                                    TRUE360X
001432: 12,3130           60316        XCOMMON            DSQ      NORM
001433: 12,3131           00047                                    X1
001434: 12,3132           53605                           DMP      SRR*
001435: 12,3133           02742                                    R1A
001436: 12,3134           21565                                    0          -12D,1
001437: 12,3135           14031                           STODL    XI                                    #  XI (+6)
001438:
001439:
001440: 12,3136           00041                                    R1
001441: 12,3137           75542                           SR1      SQRT
001442: 12,3140           41306                           ROUND    DMP
001443: 12,3141           77632                           SL4R                                           #                                PL AT 0
001444: 12,3142           00025                           STORE    X                                     #  X (+17 OR +16)
001445:
001446:
001447: 12,3143           60316                           DSQ      NORM
001448: 12,3144           00047                                    X1
001449: 12,3145           41325                           PDDL     DMP                                   #  0D=XSQ (+34 OR +32 -N1)       PL AT 2
001450: 12,3146           02740                                    P
001451: 12,3147           00041                                    R1
001452: 12,3150           75452                           SL3      SQRT
001453: 12,3151           56405                           DMP      SL3R
001454: 12,3152           02766                                    COGA
001455: 12,3153           14043                           STODL    KEPC1
001456: 12,3154           02742                                    R1A
001457: 12,3155           43021                           BDSU     CLEAR
001458: 12,3156           10671                                    D1/64
001459: 12,3157           04270                                    INFINFLG
001460: 12,3160           00045                           STORE    KEPC2
001461: 12,3161           77616                           RVQ
001462:
001463: 12,3162           77774        RESETX2            AXT,2
001464: 12,3163           00003                                    3
001465:
001466:
001467: 12,3164           51001        360CHECK           SETPD    BPL
001468: 12,3165           00001                                    0D
001469: 12,3166           25171                                    INVRSEQN
001470: 12,3167           77614                           SET
001471: 12,3170           04076                                    360SW
001472:
001473:
001474: 12,3171           75545        INVRSEQN           DLOAD    SQRT
001475: 12,3172           02740                                    P
001476: 12,3173           41325                           PDDL     DMP                                   #  0D=SQRT(P) (+2)                   PL AT 2
001477: 12,3174           02730                                    SNTH
001478: 12,3175           02766                                    COGA
001479: 12,3176           65352                           SL1      PDDL                                  #  2D=SNTH COGA (+5)                 PL AT 4
001480: 12,3177           02732                                    CSTH
001481: 12,3200           43202                           SR4      DAD
001482: 12,3201           10677                                    D1/32
001483: 12,3202           41225                           DSU      DMP                                   #                               PL AT 2,0
001484: 12,3203           55301                           NORM     BDDV
001485: 12,3204           00047                                    X1
001486: 12,3205           02730                                    SNTH
001487: 12,3206           51457                           SLR*     ABS                                   #  NOTE: NEAR 360 CASE TREATED DIFFERENTLY
001488: 12,3207           21174                                    0          -5,1
001489: 12,3210           63406                           PUSH     DSQ                                   #  0D=1/W (-1)                  PL AT 2
001490: 12,3211           14043                           STODL    34D
001491: 12,3212           10675                                    D1/16
001492: 12,3213           63406        1/WLOOP            PUSH     DSQ                                   #  2D=G (+4)                        PL AT 4
001493: 12,3214           65234                           RTB      PDDL                                  #                               PL AT 7
001494: 12,3215           21531                                    TPMODE
001495: 12,3216           02742                                    R1A
001496: 12,3217           40405                           DMP      SR4
001497: 12,3220           00043                                    34D
001498: 12,3221           77771                           TAD                                            #                                   PL AT 4
001499: 12,3222           75440                           BMN      SQRT
001500: 12,3223           25247                                    INFINITY
001501: 12,3224           77615                           DAD                                            #                               PL AT 2
001502: 12,3225           60304                           TIX,2    NORM
001503: 12,3226           25213                                    1/WLOOP
001504: 12,3227           00047                                    X1
001505: 12,3230           77665                           BDDV
001506: 12,3231           52057                           SLR*     GOTO                                  #                                   PL AT 0
001507: 12,3232           21172                                    0          -7,1
001508: 12,3233           25073                                    POLYCOEF
001509:
001510:
001511: 12,3234           50145        TRUE360X           DLOAD    BMN
001512: 12,3235           02742                                    R1A
001513: 12,3236           25247                                    INFINITY
001514: 12,3237           60366                           SQRT     NORM
001515: 12,3240           00047                                    X1
001516: 12,3241           53665                           BDDV     SL*
001517: 12,3242           10711                                    2PISC
001518: 12,3243           20176                                    0          -3,1
001519: 12,3244           41425                           DSU      PUSH                                  #  0D=2PI/SQRT(R1A) -X          PL AT 0,2
001520: 12,3245           77650                           GOTO
001521: 12,3246           25130                                    XCOMMON
001522: 12,3247           40001        INFINITY           SETPD    BOV                                   #  NO SOLUTION EXISTS SINCE CLOSURE THROUGH
001523: 12,3250           00001                                    0                                     #  INFINITY IS REQUIRED
001524: 12,3251           25252                                    OVFLCLR
001525: 12,3252           43414        OVFLCLR            SET      RVQ
001526: 12,3253           04070                                    INFINFLG
001527:
001528: 12,3254           40220        LAMBERT            STQ      SETPD
001529: 12,3255           02710                                    RTNLAMB
001530: 12,3256           00001                                    0D
001531: 12,3257           76614                           CLEAR    VLOAD*
001532: 12,3260           02674                                    SOLNSW
001533: 12,3261           10756                                    MUTABLE,1
001534: 12,3262           14017                           STODL    1/MU
001535: 12,3263           02671                                    TDESIRED
001536: 12,3264           77675                           DMPR
001537: 12,3265           10676                                    BEE19
001538: 12,3266           02764                           STORE    EPSILONL
001539: 12,3267           77214                           SET      VLOAD
001540: 12,3270           00474                                    SLOPESW
001541: 12,3271           02655                                    R1VEC
001542: 12,3272           45115                           PDVL     CALL                                  #  0D=R1VEC (+29 OR +27)        PL AT 6
001543: 12,3273           02663                                    R2VEC                                 #  MPAC=R2VEC (+29 OR +27)
001544: 12,3274           10720                                    GEOM
001545: 12,3275           16730                           STODL    SNTH                                  #  0D=CSTH (+1)                 PL AT 2
001546: 12,3276           02720                                    MAGVEC2
001547: 12,3277           65301                           NORM     PDDL                                  #                               PL AT 4
001548: 12,3300           00047                                    X1
001549: 12,3301           00041                                    R1
001550: 12,3302           56342                           SR1      DDV                                   #                               PL AT 2
001551: 12,3303           65257                           SL*      PDDL                                  #  DXCH WITH 0D, 0D=R1/R2 (+7)  PL AT 0,2
001552: 12,3304           20173                                    0          -6,1
001553: 12,3305           77626                           STADR
001554: 12,3306           75045                           STORE    CSTH                                  #  CSTH (+1)
001555: 12,3307           44342                           SR1      BDSU
001556: 12,3310           10673                                    D1/4
001557: 12,3311           02734                           STORE    1-CSTH                                #  1-CSTH (+2)
001558:
001559: 12,3312           53106                           ROUND    BZE
001560: 12,3313           25523                                    360LAMB
001561: 12,3314           65301                           NORM     PDDL                                  #                               PL AT 4
001562: 12,3315           00047                                    X1
001563: 12,3316           00001                                    0D
001564: 12,3317           56342                           SR1      DDV                                   #                               PL AT 2
001565: 12,3320           75457                           SL*      SQRT
001566: 12,3321           20176                                    0          -3,1
001567: 12,3322           54325                           PDDL     SR                                    #  2D=SQRT(2R1/R2(1-CSTH)) (+5) PL AT 4
001568: 12,3323           02730                                    SNTH
001569: 12,3324           20607                                    6
001570: 12,3325           43271                           DDV      DAD                                   #                               PL AT 2
001571: 12,3326           02734                                    1-CSTH
001572: 12,3327           77626                           STADR
001573: 12,3330           77760                           STORE    COGAMAX
001574: 12,3331           50000                           BOV      BMN                                   #  IF OVFL, COGAMAX=COGUPLIM
001575: 12,3332           25337                                    UPLIM                                 #  IF NEG, USE EVEN IF LT COGLOLIM, SINCE
001576: 12,3333           25342                                    MAXCOGA                               #    THIS WOULD BE RESET IN LAMBLOOP
001577: 12,3334           50025                           DSU      BMN                                   #  IF COGAMAX GT COGUPLIM, COGAMAX=COGUPLIM
001578: 12,3335           10715                                    COGUPLIM
001579: 12,3336           25342                                    MAXCOGA                               #  OTHERWISE OK, SO GO TO MAXCOGA
001580: 12,3337           77745        UPLIM              DLOAD
001581: 12,3340           10715                                    COGUPLIM                              #  COGUPLIM=.999511597 = MAX VALUE OF COGA
001582: 12,3341           00017                           STORE    COGAMAX                               #    NOT CAUSING OVFL IN R1A CALCULATION
001583: 12,3342           77745        MAXCOGA            DLOAD
001584: 12,3343           02732                                    CSTH
001585: 12,3344           45261                           SR       DSU                                   #                               PL AT 0
001586: 12,3345           20607                                    6
001587: 12,3346           77626                           STADR
001588: 12,3347           61041                           STODL    CSTH-RHO
001589: 12,3350           02673                                    GEOMSGN
001590: 12,3351           71240                           BMN      DLOAD
001591: 12,3352           25543                                    LOLIM
001592: 12,3353           02736                                    CSTH-RHO
001593: 12,3354           56352                           SL1      DDV
001594: 12,3355           02730                                    SNTH
001595: 12,3356           77600                           BOV
001596: 12,3357           25543                                    LOLIM
001597: 12,3360           00011        MINCOGA            STORE    COGAMIN                               #  COGAMIN (+5)
001598: 12,3361           66214                           BON      SSP
001599: 12,3362           00715                                    GUESSW
001600: 12,3363           25527                                    NOGUESS
001601: 12,3364           00051                                    TWEEKIT
001602: 12,3365           00001                                    00001
001603: 12,3366           77745                           DLOAD
001604: 12,3367           02766                                    COGA
001605:
001606:
001607: 12,3370           77605        LAMBLOOP           DMP
001608: 12,3371           02730                                    SNTH
001609: 12,3372           45342                           SR1      DSU
001610: 12,3373           02736                                    CSTH-RHO
001611: 12,3374           65301                           NORM     PDDL                                  #  0D=SNTH COGA-(CSTH-RHO) (+7+C(X1)) PL=2
001612: 12,3375           00047                                    X1
001613: 12,3376           02734                                    1-CSTH
001614: 12,3377           56257                           SL*      DDV                                   #  1-CSTH (+2)                  PL AT 0
001615: 12,3400           20170                                    0          -9D,1
001616: 12,3401           53040                           BMN      BZE
001617: 12,3402           25457                                    NEGP
001618: 12,3403           25457                                    NEGP
001619: 12,3404           16740                           STODL    P                                     #  P=(1-CSTH)/(SNTH COGA-(CSTH-RHO)) (+4)
001620: 12,3405           02766                                    COGA
001621: 12,3406           43316                           DSQ      DAD
001622: 12,3407           10701                                    D1/1024
001623: 12,3410           41301                           NORM     DMP
001624: 12,3411           00047                                    X1
001625: 12,3412           02740                                    P
001626: 12,3413           44257                           SR*      BDSU
001627: 12,3414           20571                                    0          -8D,1
001628: 12,3415           10677                                    D1/32
001629: 12,3416           16742                           STODL    R1A                                   #  R1A=2-P(1+COGA COGA) (+6)
001630: 12,3417           02740                                    P
001631: 12,3420           45000                           BOV      CALL
001632: 12,3421           25462                                    HIENERGY
001633: 12,3422           25031                                    GETX
001634: 12,3423           77745                           DLOAD
001635: 12,3424           00037                                    T
001636: 12,3425           16762                           STODL    TPREV
001637: 12,3426           00031                                    XI
001638: 12,3427           45014                           BON      CALL
001639: 12,3430           04310                                    INFINFLG
001640: 12,3431           25457                                    NEGP                                  #  HAVE EXCEEDED THEORETICAL BOUNDS
001641: 12,3432           24421                                    DELTIME
001642: 12,3433           44200                           BOV      BDSU
001643: 12,3434           25477                                    BIGTIME
001644: 12,3435           02671                                    TDESIRED
001645: 12,3436           02760                           STORE    TERRLAMB
001646: 12,3437           44246                           ABS      BDSU
001647: 12,3440           02764                                    EPSILONL
001648: 12,3441           47044                           BPL      RTB
001649: 12,3442           25546                                    INITV
001650: 12,3443           24644                                    CHECKCTR
001651: 12,3444           45030                           BHIZ     CALL
001652: 12,3445           25510                                    SUFFCHEK
001653: 12,3446           24536                                    ITERATOR
001654: 12,3447           53145                           DLOAD    BZE
001655: 12,3450           00155                                    MPAC
001656: 12,3451           25510                                    SUFFCHEK
001657: 12,3452           77615                           DAD
001658: 12,3453           02766                                    COGA
001659: 12,3454           02766                           STORE    COGA
001660: 12,3455           77650                           GOTO
001661: 12,3456           25370                                    LAMBLOOP
001662:
001663:
001664: 12,3457           51145        NEGP               DLOAD    BPL                                   #  IMPOSSIBLE TRAJECTORY DUE TO INACCURATE
001665: 12,3460           00015                                    DCOGA                                 #  BOUND CALCULATION. TRY NEW COGA.
001666: 12,3461           25502                                    LOENERGY
001667:
001668:
001669: 12,3462           71201        HIENERGY           SETPD    DLOAD                                 #  HIGH ENERGY TRAJECTORY RESULTED
001670: 12,3463           00001                                    0
001671: 12,3464           02766                                    COGA                                  #  IN OVFL OF P OR R1A, OR XI EXCEEDING 50.
001672: 12,3465           00011                           STORE    COGAMIN                               #  THIS IS THE NEW BOUND.
001673: 12,3466           70545        COMMONLM           DLOAD    SR1
001674: 12,3467           00015                                    DCOGA
001675: 12,3470           00015                           STORE    DCOGA                                 #  USE DCOGA/2 AS DECREMENT
001676: 12,3471           44254                           BZE      BDSU
001677: 12,3472           25510                                    SUFFCHEK
001678: 12,3473           02766                                    COGA
001679: 12,3474           02766                           STORE    COGA
001680: 12,3475           77650                           GOTO                                           #  RESTART THIS LOOP
001681: 12,3476           25370                                    LAMBLOOP
001682:
001683:
001684: 12,3477           77745        BIGTIME            DLOAD
001685: 12,3500           02762                                    TPREV
001686: 12,3501           00037                           STORE    T
001687:
001688:
001689: 12,3502           71201        LOENERGY           SETPD    DLOAD                                 #  LOW ENERGY TRAJECTORY RESULTED
001690: 12,3503           00001                                    0
001691: 12,3504           02766                                    COGA                                  #  IN OVERFLOW OF TIME.
001692: 12,3505           00017                           STORE    COGAMAX                               #  THIS IS THE NEW BOUND.
001693: 12,3506           77650                           GOTO
001694: 12,3507           25466                                    COMMONLM
001695:
001696:
001697: 12,3510           51545        SUFFCHEK           DLOAD    ABS
001698: 12,3511           02760                                    TERRLAMB
001699: 12,3512           41325                           PDDL     DMP                                   #                               PL AT 2D
001700: 12,3513           02671                                    TDESIRED
001701: 12,3514           10664                                    BEE17
001702: 12,3515           45215                           DAD      DSU                                   #                               PL AT 0D
001703: 12,3516           10713                                    ONEBIT
001704: 12,3517           43044                           BPL      SETGO
001705: 12,3520           25546                                    INITV
001706: 12,3521           02434                                    SOLNSW
001707: 12,3522           25546                                    INITV
001708: 12,3523           43001        360LAMB            SETPD    SETGO                                 #  LAMBERT CANNOT HANDLE CSTH=1
001709: 12,3524           00001                                    0
001710: 12,3525           02434                                    SOLNSW
001711: 12,3526           02710                                    RTNLAMB
001712:
001713:
001714: 12,3527           71331        NOGUESS            SSP      DLOAD
001715: 12,3530           00051                                    TWEEKIT
001716: 12,3531           10000                                    20000
001717: 12,3532           00011                                    COGAMIN
001718: 12,3533           65342                           SR1      PDDL                                  #                               PL AT 2
001719: 12,3534           00017                                    COGAMAX
001720: 12,3535           43342                           SR1      DAD
001721: 12,3536           77626                           STADR                                          #                               PL AT 0
001722: 12,3537           75011                           STORE    COGA
001723: 12,3540           00015                           STORE    DCOGA
001724: 12,3541           77650                           GOTO
001725: 12,3542           25370                                    LAMBLOOP
001726:
001727: 12,3543           52145        LOLIM              DLOAD    GOTO
001728: 12,3544           10717                                    COGLOLIM                              #  COGLOLIM=-.999511597
001729: 12,3545           25360                                    MINCOGA
001730:
001731:
001732: 12,3546           60345        INITV              DLOAD    NORM
001733: 12,3547           00041                                    R1
001734: 12,3550           00047                                    X1
001735: 12,3551           70525                           PDDL     SR1                                   #                               PL AT 2
001736: 12,3552           02740                                    P
001737: 12,3553           77671                           DDV                                            #                               PL AT 0
001738: 12,3554           75457                           SL*      SQRT
001739: 12,3555           20175                                    0          -4,1
001740: 12,3556           72405                           DMP      SL1
001741: 12,3557           00021                                    ROOTMU
001742: 12,3560           41206                           PUSH     DMP                                   #  0D=VTAN (+7)                 PL AT 2
001743: 12,3561           02766                                    COGA
001744: 12,3562           74261                           SL       VXSC
001745: 12,3563           20206                                    5
001746: 12,3564           02722                                    UR1
001747: 12,3565           77725                           PDDL                                           #  XCH WITH 0D                  PL AT 0,6
001748: 12,3566           76561                           VXSC     VSL1
001749: 12,3567           02674                                    UN
001750: 12,3570           53235                           VXV      VAD                                   #                               PL AT 0
001751: 12,3571           02722                                    UR1
001752: 12,3572           77772                           VSL1
001753: 12,3573           02744                           STORE    VVEC
001754: 12,3574           53135                           SLOAD    BZE
001755: 12,3575           02702                                    VTARGTAG
001756: 12,3576           25601                                    TARGETV
001757: 12,3577           77650                           GOTO
001758: 12,3600           02710                                    RTNLAMB
001759:
001760:
001761: 12,3601           45145        TARGETV            DLOAD    CALL
001762: 12,3602           02720                                    MAGVEC2
001763: 12,3603           24701                                    LAMENTER
001764: 12,3604           02703                           STORE    VTARGET
001765: 12,3605           77650                           GOTO
001766: 12,3606           02710                                    RTNLAMB
001767:
001768: 12,3607           40220        TIMERAD            STQ      SETPD                                 #                                  PL AT 0
001769: 12,3610           02710                                    RTNTR
001770: 12,3611           00001                                    0
001771: 12,3612           63375                           VLOAD    PDVL                                  #                                  PL AT 6
001772: 12,3613           02655                                    RVEC
001773: 12,3614           02744                                    VVEC
001774: 12,3615           77624                           CALL
001775: 12,3616           24765                                    PARAM
001776: 12,3617           71200                           BOV      DLOAD                                 #                                  PL AT 0
001777: 12,3620           24762                                    COGAOVFL
001778: 12,3621           10677                                    D1/32
001779: 12,3622           41225                           DSU      DMP
001780: 12,3623           02742                                    R1A
001781: 12,3624           02740                                    P
001782: 12,3625           41366                           SQRT     DMP
001783: 12,3626           02766                                    COGA
001784: 12,3627           74212                           SL4      VXSC
001785: 12,3630           02712                                    U2
001786: 12,3631           45325                           PDDL     DSU                                   #                                  PL AT 6
001787: 12,3632           10671                                    D1/64
001788: 12,3633           02742                                    R1A
001789: 12,3634           52361                           VXSC     VSU                                   #                                  PL AT 0
001790: 12,3635           02722                                    UR1
001791: 12,3636           53512                           VSL4     UNIT
001792: 12,3637           77600                           BOV
001793: 12,3640           25523                                    360LAMB                               #  NO SOLUTION SINCE CONIC IS A CIRCLE
001794: 12,3641           60325                           PDDL     NORM                                  #  0D=UNIT(ECC) (+3)               PL AT 6
001795: 12,3642           02756                                    RDESIRED                              #  36D=ECC (+3)
001796: 12,3643           00047                                    X1
001797: 12,3644           41325                           PDDL     DMP                                   #                               PL AT 8
001798: 12,3645           00041                                    R1
001799: 12,3646           02740                                    P
001800: 12,3647           56257                           SL*      DDV                                   #                               PL AT 6
001801: 12,3650           20201                                    0,1
001802: 12,3651           56225                           DSU      DDV
001803: 12,3652           10675                                    D1/16
001804: 12,3653           00045                                    36D                                   #  36D=ECC (+3)
001805: 12,3654           00031                           STORE    COSF
001806: 12,3655           63400                           BOV      DSQ
001807: 12,3656           25716                                    BADR2
001808: 12,3657           50021                           BDSU     BMN
001809: 12,3660           10673                                    D1/4
001810: 12,3661           25716                                    BADR2
001811: 12,3662           75366                           SQRT     SIGN
001812: 12,3663           02755                                    SGNRDOT
001813: 12,3664           77614                           CLEAR
001814: 12,3665           04272                                    APSESW
001815:
001816: 12,3666           76561        TERMNVEC           VXSC     VSL1
001817: 12,3667           02674                                    UN
001818: 12,3670           63235                           VXV      PDVL                                  #  VXCH WITH 0D                 PL AT 0,6
001819: 12,3671           00001                                    0D
001820: 12,3672           53361                           VXSC     VAD                                   #                               PL AT 0
001821: 12,3673           00031                                    COSF
001822: 12,3674           41572                           VSL1     PUSH                                  #  0D=U2                        PL AT 6
001823:
001824: 12,3675           56241                           DOT      DDV                                   #  LIMITS RESULT TO POSMAX OR NEGMAX
001825: 12,3676           02722                                    UR1
001826: 12,3677           23676                                    DP1/4
001827: 12,3700           40142                           SR1      BOV                                   #  SCALE BACK DOWN TO NORMAL
001828: 12,3701           25702                                    +1                                    #  CLEAR OVFIND IF SET
001829: 12,3702           26732                           STOVL    CSTH                                  #  CSTH (+1)
001830: 12,3703           02722                                    UR1
001831: 12,3704           76435                           VXV      VSL1
001832: 12,3705           72441                           DOT      SL1
001833: 12,3706           02674                                    UN
001834: 12,3707           16730                           STODL    SNTH                                  #  SNTH (+1)
001835: 12,3710           02740                                    P
001836: 12,3711           77624                           CALL
001837: 12,3712           25031                                    GETX
001838: 12,3713           77614                           CLRGO
001839: 12,3714           02634                                    SOLNSW
001840: 12,3715           24745                                    COMMNOUT
001841:
001842:
001843: 12,3716           75345        BADR2              DLOAD    SIGN
001844: 12,3717           22274                                    LODPHALF
001845: 12,3720           00031                                    COSF
001846: 12,3721           14031                           STODL    COSF
001847: 12,3722           22276                                    KEPZERO
001848: 12,3723           77614                           SETGO
001849: 12,3724           04032                                    APSESW
001850: 12,3725           25666                                    TERMNVEC
001851: 12,3726           40220        APSIDES            STQ      SETPD                                 #                                 PL AT 0
001852: 12,3727           02710                                    RTNAPSE
001853: 12,3730           00001                                    0D
001854: 12,3731           63375                           VLOAD    PDVL                                  #                                 PL AT 6
001855: 12,3732           02655                                    RVEC
001856: 12,3733           02744                                    VVEC
001857: 12,3734           77624                           CALL
001858: 12,3735           24765                                    PARAM
001859: 12,3736           77600                           BOV                                            #                                 PL AT 0
001860: 12,3737           25740                                    GETECC
001861: 12,3740           42405        GETECC             DMP      SL4
001862: 12,3741           02742                                    R1A
001863: 12,3742           75421                           BDSU     SQRT
001864: 12,3743           10671                                    D1/64
001865: 12,3744           02752                           STORE    ECC
001866: 12,3745           65215                           DAD      PDDL                                  #                                 PL AT 2
001867: 12,3746           10665                                    D1/8
001868: 12,3747           00041                                    R1
001869: 12,3750           72405                           DMP      SL1
001870: 12,3751           02740                                    P
001871: 12,3752           77671                           DDV                                            #                                  PL AT 0
001872: 12,3753           60325                           PDDL     NORM                                  #  0D=RP (+29 OR +27)              PL AT 2
001873: 12,3754           02742                                    R1A
001874: 12,3755           00047                                    X1
001875: 12,3756           53725                           PDDL     SL*                                   #                                  PL AT 4
001876: 12,3757           00041                                    R1
001877: 12,3760           20174                                    0          -5,1
001878: 12,3761           45271                           DDV      DSU                                   #                                  PL AT 2,0
001879: 12,3762           50000                           BOV      BMN
001880: 12,3763           25767                                    INFINAPO
001881: 12,3764           25767                                    INFINAPO
001882: 12,3765           77650                           GOTO
001883: 12,3766           02710                                    RTNAPSE
001884: 12,3767           52145        INFINAPO           DLOAD    GOTO                                  #  RETURNS WITH APOAPSIS IN MPAC, PERIAPSIS
001885: 12,3770           22307                                    LDPOSMAX
001886: 12,3771           02710                                    RTNAPSE                               #  THAT PL IS AT 0.
001887:
001888: 12,3772  11,2306               LDPOSMAX           EQUALS   LODPMAX                               #  DPPOSMAX IN LOW MEMORY.
001889:
001890:                                                                                                  #  ERASABLE ASSIGNMENTS
001891:
001892:
001893:                                                                                                  #  KEPLER SUBROUTINE
001894:
001895:                                                                                                  #     INPUT -
001896:                                                                                                  #  RRECT    ERASE  +5
001897:                                                                                                  #  VRECT    ERASE  +5
001898:                                                                                                  #  TAU.     ERASE  +1
001899:                                                                                                  #  XKEP     ERASE  +1
001900:                                                                                                  #  TC       ERASE  +1
001901:                                                                                                  #  XPREV    ERASE  +1
001902: 12,3772                        1/MU               EQUALS   14D
001903: 12,3772                        ROOTMU             EQUALS   16D
001904: 12,3772                        1/ROOTMU           EQUALS   18D
001905:                                                                                                  #     OUTPUT -
001906:                                                                                                  #  RCV      ERASE  +5
001907:                                                                                                  #  VCV      ERASE  +5
001908:                                                                                                  #  RC       ERASE  +1
001909:                                                                                                  #  XPREV    ERASE  +1
001910:
001911:                                                                                                  #  DEBRIS -
001912: 12,3772                        ALPHA              EQUALS   8D
001913: 12,3772                        XMAX               EQUALS   10D
001914: 12,3772                        XMIN               EQUALS   12D
001915: 12,3772                        X                  EQUALS   20D
001916: 12,3772                        XI                 EQUALS   24D
001917: 12,3772                        S(XI)              EQUALS   26D
001918: 12,3772                        XSQC(XI)           EQUALS   28D
001919: 12,3772                        T                  EQUALS   30D
001920: 12,3772                        R1                 EQUALS   32D
001921: 12,3772                        KEPC1              EQUALS   34D
001922: 12,3772                        KEPC2              EQUALS   36D
001923:                                                                                                  #  DELX     ERASE  +1
001924:                                                                                                  #  DELT     ERASE  +1
001925:                                                                                                  #  URRECT   ERASE  +5
001926:                                                                                                  #  RCNORM   ERASE  +1
001927:                                                                                                  #  XPREV    EQUALS XKEP
001928:
001929:
001930:                                                                                                  #  LAMBERT SUBROUTINE
001931:
001932:                                                                                                  #     INPUT-
001933:                                                                                                  #  R1VEC    ERASE  +5
001934:                                                                                                  #  R2VEC    ERASE  +5
001935:                                                                                                  #  TDESIRED ERASE  +1
001936:                                                                                                  #  GEOMSGN  ERASE  +0
001937:                                                                                                  #  GUESSW                      0 IF COGA GUESS AVAILABLE, 1 IF NOT
001938:                                                                                                  #  COGA     ERASE  +1          INPUT ONLY IF GUESSW IS ZERO.
001939:                                                                                                  #  NORMSW                      0 IF UN TO BE COMPUTED, 1 IF UN INPUT
001940:                                                                                                  #  UN       ERASE  +5          ONLY USED IF NORMSW IS 1
001941:                                                                                                  #  VTARGTAG ERASE  +0
001942:                                                                                                  #  TWEEKIT  EQUALS  40D        ONLY USED IF GUESSW IS 0
001943:
001944:                                                                                                  #     OUTPUT -
001945:                                                                                                  #  VTARGET  ERASE  +5          AVAILABLE ONLY IF VTARGTAG IS ZERO.
001946:                                                                                                  #  V1VEC    EQUALS MPAC
001947:
001948:                                                                                                  #     DEBRIS -
001949:                                                                                                  #  RTNLAMB  ERASE  +0
001950:                                                                                                  #  U2       ERASE  +5
001951:                                                                                                  #  MAGVEC2  ERASE  +1
001952:                                                                                                  #  UR1      ERASE  +5
001953:                                                                                                  #  R1       EQUALS 31D
001954:                                                                                                  #  UN       ERASE  +5
001955:                                                                                                  #  SNTH     ERASE  +1
001956:                                                                                                  #  CSTH     ERASE  +1
001957:                                                                                                  #  1-CSTH   ERASE  +1
001958:                                                                                                  #  CSTH-RHO ERASE  +1
001959: 12,3772                        COGAMAX            EQUALS   14D                                   #  CLOBBERS 1/MU
001960: 12,3772                        COGAMIN            EQUALS   8D
001961: 12,3772                        DCOGA              EQUALS   12D
001962:                                                                                                  #  TWEEKIT  EQUALS 40D
001963:                                                                                                  #  P        ERASE  +1
001964:                                                                                                  #  COGA     ERASE  +1
001965:                                                                                                  #  R1A      ERASE  +1
001966:                                                                                                  #  X        EQUALS 20D
001967:                                                                                                  #  XSQ      EQUALS 22D
001968:                                                                                                  #  XI       EQUALS 24D
001969:                                                                                                  #  S(XI)    EQUALS 26D
001970:                                                                                                  #  XSQC(XI) EQUALS 28D
001971:                                                                                                  #  T        EQUALS 30D
001972:                                                                                                  #  KEPC1    EQUALS 34D
001973:                                                                                                  #  KEPC2    EQUALS 36D
001974:                                                                                                  #  SLOPESW
001975:                                                                                                  #  SOLNSW
001976:                                                                                                  #  OTHERS -
001977:
001978:                                                                                                  #  RVEC     EQUALS R1VEC
001979:                                                                                                  #  VVEC     ERASE  +5
001980:                                                                                                  #  COGAFLAG
001981:                                                                                                  #  RVSW
001982:                                                                                                  #  INFINFLG
001983:                                                                                                  #  APSESW
001984:                                                                                                  #  360SW
001985:                                                                                                  #  RTNTT    EQUALS RTNLAMB
001986:                                                                                                  #  ECC      ERASE  +1
001987:                                                                                                  #  RTNTR    EQUALS RTNLAMB
001988:                                                                                                  #  RTNAPSE  EQUALS RTNLAMB
001989:                                                                                                  #  R2       EQUALS MAGVEC2
001990: 12,3772                        COSF               EQUALS   24D
001991:                                                                                                  #  RTNPRM   ERASE  +0
001992:                                                                                                  #  SGNRDOT  ERASE  +0
001993:                                                                                                  #  RDESIRED ERASE  +1
001994:
001995:
001996:                                                                                                  #  ITERATOR SUBROUTINE
001997:
001998:                                                                                                  #  ORDERSW
001999: 12,3772                        MAX                EQUALS   14D                                   #  CLOBBERS 1/MU
002000: 12,3772                        MIN                EQUALS   8D
002001:                                                                                                  #  INDEP    ERASE  +1
002002: 12,3772                        DELINDEP           EQUALS   12D
002003: 12,3772                        ITERCTR            EQUALS   22D
002004: 12,3772                        DEP                EQUALS   30D
002005:                                                                                                  #  DELDEP   ERASE  +1
002006:                                                                                                  #  DEPREV   ERASE  +1
002007: 12,3772                        TWEEKIT            EQUALS   40D
002008:
002009:
002010:                                                                                                  #  MORE KEPLER
002011:
002012:                                                                                                  #  EPSILONT ERASE  +1
002013:
002014:
002015:                                                                                                  #  MORE LAMBERT
002016:
002017:                                                                                                  #  TERRLAMB EQUALS DELDEP
002018:                                                                                                  #  TPREV    EQUALS DEPREV
002019:
002020:
002021:                                                                                                  #  EPSILONL EQUALS EPSILONT +2     DOUBLE PRECISION WORD

End of include-file CONIC_SUBROUTINES.agc.  Parent file is MAIN.agc


