
Source Code


000002:                                                                                                  ## Copyright:   Public domain.
000003:                                                                                                  ## Filename:    DAP_INTERFACE_SUBROUTINES.agc
000004:                                                                                                  ## Purpose:     A section of a reconstructed, mixed version of Sundance
000005:                                                                                                  ##              It is part of the reconstructed source code for the Lunar
000006:                                                                                                  ##              Module's (LM) Apollo Guidance Computer (AGC) for Apollo 9.
000007:                                                                                                  ##              No original listings of this program are available;
000008:                                                                                                  ##              instead, this file was created via disassembly of dumps
000009:                                                                                                  ##              of various revisions of Sundance core rope modules.
000010:                                                                                                  ## Assembler:   yaYUL
000011:                                                                                                  ## Contact:     Ron Burkey <info@sandroid.org>.
000012:                                                                                                  ## Website:     www.ibiblio.org/apollo/index.html
000013:                                                                                                  ## Mod history: 2020-06-17 MAS  Created from Luminary 69.
000014:
000015:                                                                                                  ## Sundance 302
000016:
000017: 20,2204                                           BANK     20
000018: 20,2000                                           SETLOC   DAPS3
000019: 20,2000                                           BANK
000020:
000021: 20,2204  E6,1632                                  EBANK=   CDUXD
000022: 20,2204                                           COUNT*   $$/DAPIF
000023:
000024:                                                                                                  #  MOD 0         DATE    11/15/66        BY GEORGE W. CHERRY
000025:                                                                                                  #  MOD 1                  1/23/67        MODIFICATION BY PETER ADLER
000026:
000027:                                                                                                  #  FUNCTIONAL DESCRIPTION
000028:                                                                                                  #        HEREIN ARE A COLLECTION OF SUBROUTINES WHICH ALLOW MISSION CONTROL PROGRAMS TO CONTROL THE MODE
000029:                                                                                                  #        AND INTERFACE WITH THE DAP.
000030:
000031:                                                                                                  #  CALLING SEQUENCES
000032:                                                                                                  #        IN INTERRUPT OR WITH INTERRUPT INHIBITED
000033:                                                                                                  #                TC      IBNKCALL
000034:                                                                                                  #                FCADR   ROUTINE
000035:                                                                                                  #        IN A JOB WITHOUT INTERRUPT INHIBITED
000036:                                                                                                  #                INHINT
000037:                                                                                                  #                TC      IBNKCALL
000038:                                                                                                  #                FCADR   ROUTINE
000039:                                                                                                  #                RELINT
000040:
000041:                                                                                                  #  OUTPUT
000042:                                                                                                  #        SEE INDIVIDUAL ROUTINES BELOW
000043:
000044:                                                                                                  #  DEBRIS
000045:                                                                                                  #        A, L, AND SOMETIMES MDUETEMP                    ODE     NOT IN PULSES MODE
000046:
000047:                                                                                                  #  SUBROUTINE NAMES:
000048:                                                                                                  #        SETMAXDB, SETMINDB, RESTORDB, PFLITEDB
000049:                                                                                                  #  MODIFIED:     30 JANUARY 1968 BY P S WEISSMAN TO CREATE RESTORDB.
000050:                                                                                                  #  MODIFIED:     1 MARCH 1968 BY P S WEISSMAN TO SAVE EBANK AND CREATE PFLITEDB
000051:
000052:                                                                                                  #  FUNCTIONAL DESCRIPTION:
000053:                                                                                                  #        SETMAXDB - SET DEADBAND TO 5.0 DEGREES
000054:                                                                                                  #        SETMINDB - SET DEADBAND TO 0.3 DEGREE
000055:                                                                                                  #        RESTORDB - SET DEADBAND TO MAX OR MIN ACCORDING TO SETTING OF DBSELECT BIT OF DAPBOOLS
000056:                                                                                                  #        PFLITEDB - SET DEADBAND TO 1.0 DEGREE AND ZERO THE COMMANDED ATTITUDE CHANGE AND COMMANDED RATE
000057:
000058:                                                                                                  #        ALL ENTRIES SET UP A NOVAC JOB TO DO 1/ACCS SO THAT THE TJETLAW SWITCH CURVES ARE POSITIONED TO
000059:                                                                                                  #        REFLECT THE NEW DEADBAND.  IT SHOULD BE NOTED THAT THE DEADBAND REFERS TO THE ATTITUDE IN THE P-, U-, AND V-AXES.
000060:
000061:                                                                                                  #  SUBROUTINE CALLED:    NOVAC
000062:
000063:                                                                                                  #  CALLING SEQUENCE:     SAME AS ABOVE
000064:                                                                                                  #                        OR      TC RESTORDB +1    FROM ALLCOAST
000065:
000066:                                                                                                  #  DEBRIS:               A, L, Q, RUPTREG1, (ITEMPS IN NOVAC)
000067:
000068:                                                                                                  #  DAPBOOLS BITS AND NAMES
000069:
000070: 20,2204     5026               AUTRATE1           EQUALS   BIT1                                  #  THESE FLAGS ARE USED TOGETHER TO INIDCAT
000071: 20,2204     5025               AUTRATE2           EQUALS   BIT2                                  #  ASTRONAUT-CHOSEN KALCMANU MANEUVER RATES
000072:                                                                                                  #  (0,0)=(BIT2,BIT1)= 0.2 DEG/SEC
000073:                                                                                                  #  (0,1)=  0.5 DEG/SEC
000074: 20,2204     5024               ACCSOKAY           EQUALS   BIT3                                  #  VALUES FROM 1/ACCS USABLE FLAG
000075: 20,2204     5023               DBSELECT           EQUALS   BIT4                                  #  DAP DEADBAND SELECT FLAG
000076: 20,2204     5022               AORBSYST           EQUALS   BIT5                                  #  P-AXIS ROTATION JET SYSTEM (A OR B) FLAG
000077: 20,2204     5021               ULLAGER            EQUALS   BIT6                                  #  INTERNAL ULLAGE REQUEST FLAG
000078: 20,2204     5020               RHCSCALE           EQUALS   BIT7                                  #  RHC SCALE SELECT FLAG
000079: 20,2204     5017               DRIFTBIT           EQUALS   BIT8                                  #  USE OFFSET ACCELERATION FLAG
000080: 20,2204     5016               XOVINHIB           EQUALS   BIT9                                  #  X-AXIS OVERRIDE PERMITTED FLAG
000081: 20,2204     5015               AORBTRAN           EQUALS   BIT10                                 #  X-TRANSLATION JET SYSTEM (A OR B) FLAG
000082: 20,2204     5014               ACC4OR2X           EQUALS   BIT11                                 #  2 OR 4 JET Z-TRANSLATION MODE FLAG
000083: 20,2204     5013               OURRCBIT           EQUALS   BIT12                                 #  INTERNAL DAP RATE COMMAND ACTIVITY FLAG
000084: 20,2204     5012               CSMDOCKD           EQUALS   BIT13                                 #  CSM DOCKED TO LM FLAG
000085: 20,2204     5011               USEQRJTS           EQUALS   BIT14                                 #  TRIM GIMBAL FLAG
000086: 20,2204     5010               PULSES             EQUALS   BIT15                                 #  MINIMUM IMPULSE RHC MODE FLAG
000087:
000088:
000089: 20,2204           31102        RESTORDB           CAE      DAPBOOLS                              #  DETERMINE CREW-SELECTED DEADBAND.
000090: 20,2205           75023                           MASK     DBSELECT
000091: 20,2206           00006                           EXTEND
000092: 20,2207           12221                           BZF      SETMINDB
000093:
000094: 20,2210           35746        SETMAXDB           CAF      WIDEDB                                #  SET 5 DEGREE DEADBAND.
000095: 20,2211           55356                 +1        TS       DB
000096:
000097: 20,2212           00006                           EXTEND                                         #  SET UP JOB TO RE-POSITION SWITCH CURVES.
000098: 20,2213           22070                           QXCH     RUPTREG1
000099: 20,2214           37667        CALLACCS           CAF      PRIO27
000100: 20,2215           05142                           TC       NOVAC
000101: 20,2216  E6,1532                                  EBANK=   AOSQ
000102: 20,2216           02312 40106                     2CADR    1/ACCJOB
000103:
000104: 20,2220           00070                           TC       RUPTREG1                              #  RETURN TO CALLER.
000105:
000106: 20,2221           35745        SETMINDB           CAF      NARROWDB                              #  SET 0.3 DEGREE DEADBAND.
000107: 20,2222           12211                           TCF      SETMAXDB   +1
000108:
000109: 20,2223           00006        PFLITEDB           EXTEND                                         #  THE RETURN FROM CALLACCS IS TO RUPTREG1.
000110: 20,2224           22070                           QXCH     RUPTREG1
000111: 20,2225           02232                           TC       ZATTEROR                              #  ZERO THE ERRORS AND COMMANDED RATES.
000112: 20,2226           32231                           CAF      POWERDB                               #  SET DB TO 1.0 DEG.
000113: 20,2227           55356                           TS       DB
000114: 20,2230           12214                           TCF      CALLACCS                              #  SET UP 1/ACCS AND RETURN TO CALLER.
000115:
000116: 20,2231           00554        POWERDB            DEC      .02222                                #  1.0 DEGREE SCALED AT 45.
000117:
000118: 20,2232           35065        ZATTEROR           CAF      EBANK6
000119: 20,2233           56003                           XCH      EBANK
000120: 20,2234           54001                           TS       L                                     #  SAVE CALLERS EBANK IN L.
000121: 20,2235           30032                           CAE      CDUX
000122: 20,2236           55632                           TS       CDUXD
000123: 20,2237           30033                           CAE      CDUY
000124: 20,2240           55633                           TS       CDUYD
000125: 20,2241           30034                           CAE      CDUZ
000126: 20,2242           55634                           TS       CDUZD
000127: 20,2243           12247                           TCF      STOPRATE   +3
000128:
000129: 20,2244           35065        STOPRATE           CAF      EBANK6
000130: 20,2245           56003                           XCH      EBANK
000131: 20,2246           54001                           TS       L                                     #  SAVE CALLERS EBANK IN L.
000132: 20,2247           35030                 +3        CAF      ZERO
000133: 20,2250           55640                           TS       OMEGAPD
000134: 20,2251           55641                           TS       OMEGAQD
000135: 20,2252           55642                           TS       OMEGARD
000136: 20,2253           55635                           TS       DELCDUX
000137: 20,2254           55636                           TS       DELCDUY
000138: 20,2255           55637                           TS       DELCDUZ
000139: 20,2256           55301                           TS       DELPEROR
000140: 20,2257           55302                           TS       DELQEROR
000141: 20,2260           55303                           TS       DELREROR
000142: 20,2261           22003                           LXCH     EBANK                                 #  RESTORE CALLERS EBANK.
000143: 20,2262           00002                           TC       Q
000144:
000145:                                                                                                  #  SUBROUTINE NAME:      ALLCOAST
000146:                                                                                                  #  WILL BE CALLED BY FRESH STARTS AND ENGINE OFF ROUTINES.               .
000147:
000148:                                                                                                  #  CALLING SEQUENCE:     (SAME AS ABOVE)
000149:
000150:                                                                                                  #  EXIT:                 RETURN TO Q.
000151:
000152:                                                                                                  #  SUBROUTINES CALLED:   STOPRATE, RESTORDB, NOVAC
000153:
000154:                                                                                                  #  ZERO:                 (FOR ALL AXES) AOS, ALPHA, AOSTERM, OMEGAD, DELCDU, DELEROR
000155:
000156:                                                                                                  #  OUTPUT:               DRIFTBIT/DAPBOOLS, DB, JOB TO DO 1/ACCS
000157:
000158:                                                                                                  #  DEBRIS:               A, L, Q, RUPTREG1, RUPTREG2, (ITEMPS IN NOVAC)
000159:
000160: 20,2263           35065        ALLCOAST           CAF      EBANK6
000161: 20,2264           56003                           XCH      EBANK
000162: 20,2265           54066                           TS       ITEMP6
000163: 20,2266           45030                           CS       ZERO
000164: 20,2267           55532                           TS       AOSQ
000165: 20,2270           55533                           TS       AOSQ       +1
000166: 20,2271           55534                           TS       AOSR
000167: 20,2272           55535                           TS       AOSR       +1
000168: 20,2273           55422                           TS       ALPHAQ                                #  FOR DOWNLIST.
000169: 20,2274           55423                           TS       ALPHAR
000170: 20,2275           55540                           TS       AOSQTERM
000171: 20,2276           55541                           TS       AOSRTERM
000172: 20,2277           30066                           CA       ITEMP6
000173: 20,2300           54003                           TS       EBANK                                 #  RESTORE EBANK (EBANK6 NO LONGER NEEDED)
000174:
000175: 20,2301           41102                           CS       DAPBOOLS                              #  SET UP DRIFTBIT
000176: 20,2302           75017                           MASK     DRIFTBIT
000177: 20,2303           27102                           ADS      DAPBOOLS
000178: 20,2304           12205                           TCF      RESTORDB   +1                         #  RESTORE DEADBANK TO CREW-SELECTED VALUE.
000179:

End of include-file DAP_INTERFACE_SUBROUTINES.agc.  Parent file is MAIN.agc


