
Source Code


000002:                                                                                                  ## Copyright:   Public domain.
000003:                                                                                                  ## Filename:    DAPIDLER_PROGRAM.agc
000004:                                                                                                  ## Purpose:     A section of a reconstructed, mixed version of Sundance
000005:                                                                                                  ##              It is part of the reconstructed source code for the Lunar
000006:                                                                                                  ##              Module's (LM) Apollo Guidance Computer (AGC) for Apollo 9.
000007:                                                                                                  ##              No original listings of this program are available;
000008:                                                                                                  ##              instead, this file was created via disassembly of dumps
000009:                                                                                                  ##              of various revisions of Sundance core rope modules.
000010:                                                                                                  ## Assembler:   yaYUL
000011:                                                                                                  ## Contact:     Ron Burkey <info@sandroid.org>.
000012:                                                                                                  ## Website:     www.ibiblio.org/apollo/index.html
000013:                                                                                                  ## Mod history: 2020-06-17 MAS  Created from Luminary 69.
000014:
000015:                                                                                                  ## Sundance 302
000016:
000017:                                                                                                  #  THE DAPIDLER PROGRAM IS STARTED BY FRESH START AND RESTART.  THE DAPIDLER PROGRAM IS DONE 10 TIMES
000018:                                                                                                  #  PER SECOND UNTIL THE ASTRONAUT DESIRES THE DAP TO WAKE UP, AND THE IMU AND CDUS ARE READY FOR USE BY THE DAP.
000019:                                                                                                  #  THE NECESSARY INITIALIZATION OF THE DAP IS DONE BY THE DAPIDLER PROGRAM.
000020:
000021: 16,2043                                           BANK     16
000022: 16,2000                                           SETLOC   DAPS1
000023: 16,2000                                           BANK
000024:
000025: 16,2043  E6,1532                                  EBANK=   AOSQ
000026:
000027: 16,2043                                           COUNT*   $$/DAPID
000028:
000029: 16,2043           00006        CHEKBITS           EXTEND
000030: 16,2044           00031                           READ     CHAN31                                #  IF BOTH BIT13 AND BIT14 ARE ONE, THEN
000031: 16,2045           40000                           COM                                            #  THE MODE SELECT SWITCH IS IN THE OFF
000032: 16,2046           74367                           MASK     BIT13-14                              #  POSITION, AND SO THE DAP SHOULD BE OFF,
000033: 16,2047           00006                           EXTEND                                         #  WITH NO ATTITUDE ERROR DISPLAY.
000034: 16,2050           12206                           BZF      MOREIDLE
000035:
000036: 16,2051           41305                           CS       IMODES33
000037: 16,2052           75021                           MASK     BIT6
000038: 16,2053           10000                           CCS      A
000039: 16,2054           12236                           TCF      ALTDSPLY
000040: 16,2055           41275                           CS       RCSFLAGS                              #  IMU NOT USABLE.  SET UP INITIALIZATION
000041: 16,2056           75024                           MASK     BIT3                                  #  FLAG FOR ATT ERROR DISPLAY ROUTINE.
000042: 16,2057           27275                           ADS      RCSFLAGS
000043: 16,2060           12212                           TCF      SHUTDOWN
000044:
000045: 16,2061           35015        CHEKMORE           CAF      BIT10                                 #  BIT 10 OF 30 IS PGNCS CONTROL OF S/C
000046: 16,2062           00006                           EXTEND
000047: 16,2063           02030                           RAND     CHAN30                                #  BITS IN 30 ARE INVERTED
000048: 16,2064           10000                           CCS      A
000049: 16,2065           12206                           TCF      MOREIDLE
000050:
000051: 16,2066           00002                           RETURN
000052:
000053:                                                                                                  #  DAPIDLER ENTRY.
000054:
000055: 16,2067           22016        DAPIDLER           LXCH     BANKRUPT                              #  INTERRUPT LEAD INS (CONTINUED)
000056: 16,2070           00006                           EXTEND
000057: 16,2071           22012                           QXCH     QRUPT
000058:
000059: 16,2072           11631                           CCS      ACCSET                                #  CHECK IF 1/ACCJOB HAS BEEN SET UP SINCE
000060: 16,2073           12101                           TCF      CHECKUP                               #  THE LAST FRESH START OR RESTART.
000061: 16,2074           37667                           CAF      PRIO27
000062: 16,2075           55631                           TS       ACCSET                                #  ACCSET IS POSITIVE.
000063: 16,2076           05142                           TC       NOVAC                                 #  SET UP JOB TO DO A LITTLE INITIALIZATION
000064: 16,2077  E6,1532                                  EBANK=   AOSQ                                  #        AND EXECUTE 1/ACCS.
000065: 16,2077           02305 40106  1/ACCSAD           2CADR    1/ACCSET                              #  (WILL BRANCH TO MOREIDLE ON ACCSOKAY)
000066:
000067: 16,2101           02043        CHECKUP            TC       CHEKBITS                              #  CHECK TO SEE IF LM DAP IS TO GO ON AND
000068:                                                                                                  #        DO ERROR DISPLAY.
000069:
000070: 16,2102           31102                           CAE      DAPBOOLS                              #  IF 1/ACCS HAS NOT BEEN COMPLETED, IDLE.
000071: 16,2103           75024                           MASK     ACCSOKAY                              #        NOTE:   ONLY FRESH START AND RESTART
000072: 16,2104           00006                           EXTEND                                         #                KNOCK THIS BIT DOWN.
000073: 16,2105           12206                           BZF      MOREIDLE
000074:
000075: 16,2106           04737        STARTDAP           TC       IBNKCALL                              #  ZERO ATTITUDE ERROR AND DESIRED RATES.
000076: 16,2107           40232                           FCADR    ZATTEROR
000077: 16,2110           35030                           CAF      ZERO                                  #  ********** INITIALIZE: **********
000078: 16,2111           55516                           TS       TJP
000079: 16,2112           55517                           TS       TJU
000080: 16,2113           55520                           TS       TJV
000081: 16,2114           55417                           TS       OMEGAP                                #  RATES IN BODY (PILOT) COORDINATES.
000082: 16,2115           55420                           TS       OMEGAQ
000083: 16,2116           55421                           TS       OMEGAR
000084: 16,2117           55426                           TS       TRAPEDP
000085: 16,2120           55427                           TS       TRAPEDQ
000086: 16,2121           55430                           TS       TRAPEDR
000087: 16,2122           55532                           TS       AOSQ                                  #  OFFSET ACCELERATION ESTIMATES.
000088: 16,2123           55533                           TS       AOSQ       +1
000089: 16,2124           55534                           TS       AOSR
000090: 16,2125           55535                           TS       AOSR       +1
000091: 16,2126           55422                           TS       ALPHAQ                                #  COPIES OF OFFSET ESTIMATES FOR DOWNLIST.
000092: 16,2127           55423                           TS       ALPHAR
000093: 16,2130           55540                           TS       AOSQTERM                              #  QRAXIS RATE DERIVATION TERMS AND KALMAN
000094: 16,2131           55541                           TS       AOSRTERM                              #  FILTER INITIALIZATION TERMS.
000095: 16,2132           55510                           TS       QACCDOT                               #  DESCENT ACCELERATION DERIVATIVE EST.
000096: 16,2133           55512                           TS       RACCDOT
000097: 16,2134           55624                           TS       ALLOWGTS                              #  AOSTASK FLAG FOR QRAXIS RCS CONTROL USE.
000098: 16,2135           55625                           TS       COTROLER                              #  DO TRYGTS ON FIRST PASS (WILL GO TO RCS)
000099: 16,2136           55627                           TS       INGTS                                 #  RECOGNIZE FIRST GTS PASS AS SUCH.
000100: 16,2137           55626                           TS       QGIMTIMR                              #  STOP GIMBAL DRIVES.  (PROBABLY WOULD BE
000101: 16,2140           55630                           TS       RGIMTIMR                              #        GOOD ENOUGH JUST TO INACTIVATE TIMERS)
000102: 16,2141           55443                           TS       OLDPMIN                               #  MINIMUM IMPULSE MODE ERASABLES
000103: 16,2142           55444                           TS       OLDQRMIN
000104:
000105:                                                                                                  #  SET UP "OLD" MEASURED CDU ANGLES:
000106:
000107: 16,2143           00006                           EXTEND
000108: 16,2144           30033                           DCA      CDUX                                  #  OLDXFORP AND OLDYFORP
000109: 16,2145           53437                           DXCH     OLDXFORP
000110: 16,2146           30034                           CA       CDUZ
000111: 16,2147           55440                           TS       OLDZFORQ
000112: 16,2150           32234                           CAF      CHKVISAD
000113: 16,2151           55527                           TS       PJUMPADR
000114: 16,2152           35024                           CA       FOUR
000115: 16,2153           55530                           TS       SKIPU
000116: 16,2154           55531                           TS       SKIPV
000117: 16,2155           35006                           CA       POSMAX
000118: 16,2156           54031                           TS       TIME6
000119: 16,2157           55454                           TS       T6NEXT
000120: 16,2160           55456                           TS       T6FURTHA
000121: 16,2161           35030                           CA       ZERO
000122: 16,2162           55455                           TS       T6NEXT     +1
000123: 16,2163           55457                           TS       T6FURTHA   +1
000124: 16,2164           55453                           TS       NXT6ADR
000125: 16,2165           55460                           TS       NEXTP
000126: 16,2166           55461                           TS       NEXTU
000127: 16,2167           55462                           TS       NEXTV
000128: 16,2170           44375                           CS       TEN
000129: 16,2171           55752                           TS       DAPZRUPT                              #  JASK NOT IN PROGRESS, INITIALIZE NEG.
000130: 16,2172           35025                           CA       TWO
000131: 16,2173           55431                           TS       NPTRAPS
000132: 16,2174           55432                           TS       NQTRAPS
000133: 16,2175           55433                           TS       NRTRAPS
000134: 16,2176           00006                           EXTEND
000135: 16,2177           32233                           DCA      PAXADIDL
000136: 16,2200           53277                           DXCH     T5ADR
000137: 16,2201           37701        SETTIME5           CAF      MS100
000138: 16,2202           54030                           TS       TIME5
000139: 16,2203           15330                           TCF      RESUME
000140: 16,2204  E6,1532                                  EBANK=   AOSQ
000141: 16,2204           02067 34106  IDLERADR           2CADR    DAPIDLER
000142: 16,2206           04737        MOREIDLE           TC       IBNKCALL                              #  CALCULATE Q,R-AXES ATTITUDE ERRORS.
000143: 16,2207           36426                           CADR     QERRCALC
000144:
000145: 16,2210           04737                           TC       IBNKCALL
000146: 16,2211           35476                           CADR     CALCPERR                              #  CALCULATE P AXIS ATTITUDE ERRORS.
000147:
000148: 16,2212           00006        SHUTDOWN           EXTEND
000149: 16,2213           32205                           DCA      IDLERADR
000150: 16,2214           53277                           DXCH     T5ADR
000151:
000152: 16,2215           35030                           CAF      ZERO                                  #  KILL ANY POSSIBLE JET REQUESTS
000153: 16,2216           55460                           TS       NEXTP
000154: 16,2217           55461                           TS       NEXTU
000155: 16,2220           55462                           TS       NEXTV
000156: 16,2221           00006                           EXTEND                                         #  COMMAND JETS OFF.
000157: 16,2222           01005                           WRITE    CHAN5
000158: 16,2223           00006                           EXTEND
000159: 16,2224           01006                           WRITE    CHAN6
000160: 16,2225           42231                           CS       BGIM23                                #  TURN TRIM GIMBAL OFF
000161: 16,2226           00006                           EXTEND
000162: 16,2227           03012                           WAND     CHAN12
000163: 16,2230           12201                           TCF      SETTIME5                              #  RETURN IN 100 MSEC.
000164:
000165: 16,2231           07400        BGIM23             OCTAL    07400
000166: 16,2232  E6,1417                                  EBANK=   OMEGAP
000167: 16,2232           02444 34106  PAXADIDL           2CADR    PAXIS
000168:
000169: 16,2234           03112        CHKVISAD           ADRES    CHKVISFZ
000170: 16,2235           02077        ACCSETAD           ADRES    1/ACCSAD
000171:
000172: 16,2236     7701               MS100              =        OCT37766
000173: 16,2236     0061               COSMG              =        ITEMP1
000174:
000175:                                                                                                  #  PROGRAM:      ALTDSPLY
000176:                                                                                                  #  MOD 0.        6 DEC 1967
000177:                                                                                                  #  AUTHOR:       CRAIG WORK, DON KEENE, MIT IL
000178:                                                                                                  #  MOD 3 BY DON KEENE AUG 1, 1968 MOVED PROGRAM TO BANK 20
000179:
000180:                                                                                                  #  PROGRAM DESCRIPTION:
000181:                                                                                                  #        ALTDSPLY REVERSES THE DSPLYALT BIT OF RCSFLAGS EACH TIME IT IS CALLED, WHICH IS PRESUMABLY EVERY 100 MS.
000182:                                                                                                  #        IF THE REVERSED BIT IS ONE, NEEDLER IS CALLED TO DISPLAY ATTITUDE ERRORS.  IF THE BIT IS ZERO, THE ATTITUDE ERR-
000183:                                                                                                  #        ORS ARE CALCULATED AS 1) DAP FOLLOWING ERRORS, IF NEEDLFLG = 0, AND 2) TOTAL ATTITUDE ERRORS FOR NEEDLFLG = 1.
000184:
000185:
000186:                                                                                                  #  WARNING:      ALTDSPLY MAY ONLY BE CALLED WITH INTERRUPT INHIBITED.
000187:
000188:                                                                                                  #  WARNING:      EBANK MUST BE SET TO 6 WHEN USING THIS ROUTINE.
000189:
000190:                                                                                                  #  INPUT:        RCSFLAGS AND    1) IF NEEDLFLG = 0, INPUT PERROR, QERROR, RERROR.
000191:                                                                                                  #                                2) IF NEEDLFLG = 1, INPUT CPHI,CTHETA,CPSI,CDUX,CDUY,CDUZ,M11,M21,M31,M22,M32.  (GPMATRIX)
000192:
000193:
000194:                                                                                                  #  OUTPUTS:      RCSFLAGS WITH DSPLYALT REVERSED, AK, AK1, AK2, + NEEDLER OUTPUTS.
000195:
000196:                                                                                                  #  ENTRY:        TCF     ALTDSPLY
000197:
000198:                                                                                                  #  EXIT:         TCF     CHEKMORE
000199:
000200:                                                                                                  #  ALARM OR ABORT EXITS: NONE
000201:
000202:                                                                                                  #  SUBPROGRAMS CALLED:  NEEDLER, OVERSUB2
000203:
000204:                                                                                                  #  DEBRIS:       A, L, AND NEEDLER DEBRIS.
000205:
000206: 16,2236           31275        ALTDSPLY           CA       RCSFLAGS                              #  INVERT THE DISPLAY ALTERNATION BIT.
000207: 16,2237           54001                           TS       L
000208: 16,2240           35023                           CA       DSPLYALT
000209: 16,2241           00006                           EXTEND
000210: 16,2242           06001                           RXOR     LCHAN
000211: 16,2243           55275                           TS       RCSFLAGS
000212:
000213: 16,2244           75023                           MASK     DSPLYALT
000214: 16,2245           10000                           CCS      A                                     #  IS ALTERNATION FLAG ZERO?
000215: 16,2246           12331                           TCF      NEEDLER
000216:
000217: 16,2247           30074                           CAE      FLAGWRD0                              #  NEEDLFLG WILL INDICATE TOTAL OR DAP AT-
000218: 16,2250           75023                           MASK     NEEDLBIT                              #  TITUDE ERROR DISPLAY REQUEST.
000219: 16,2251           10000                           CCS      A
000220: 16,2252           12261                           TCF      DSPLYTOT                              #  TOTAL ERROR IS NEEDED IN AK, AK +1, AK +2
000221:
000222: 16,2253           00006                           EXTEND
000223: 16,2254           41452                           DCS      QERROR                                #  YES.  DISPLAY ATT ERRORS ON THE ,-BALL.
000224: 16,2255           53756                           DXCH     AK         +1                         #  ERROR COMPLEMENTS ARE INPUT TO NEEDLER.
000225: 16,2256           41450                           CS       PERROR
000226: 16,2257           57754                           XCH      AK
000227:
000228: 16,2260           12061                           TCF      CHEKMORE                              #  DISPLAY THESE THE NEXT TIME THROUGH
000229:
000230:                                                                                                  #  CALCULATE GIMBAL ANGLE TOTAL ERRORS, RESOLVE INTO PILOT AXES, STORE TOTAL ERRORS FOR NEEDLER.  Q-AXIS FIRST.
000231:
000232: 16,2261           00006        DSPLYTOT           EXTEND
000233: 16,2262           22061                           QXCH     ITEMP1                                #  SAVE Q FOR CHEKBITS RETURN.
000234:
000235: 16,2263           31207                           CA       CTHETA                                #  DESIRED ATTITUDE, Y-AXIS, 2'S COMP.
000236: 16,2264           00006                           EXTEND                                         #  SUBTRACT CURRENT ATTITUDE.
000237: 16,2265           20033                           MSU      CDUY                                  #  DIFFERENCE SCALED AT PI, 1'S COMP.
000238: 16,2266           55754                           TS       AK                                    #  SAVE FOR R-ERROR CALCULATION.
000239: 16,2267           00006                           EXTEND
000240: 16,2270           71413                           MP       M21                                   #  (CHTETA-CDUY)*M21 SCALED AT PI RADIANS.
000241: 16,2271           57755                           XCH      AK         +1                         #  STORE FIRST TERM OF Q ERROR.
000242: 16,2272           31210                           CA       CPSI                                  #  DESIRED ATTITUDE, Z-AXIS, 2'S COMP.
000243: 16,2273           00006                           EXTEND                                         #  SUBTRACT CURRENT ATTITUDE.
000244: 16,2274           20034                           MSU      CDUZ                                  #  DIFFERENCE SCALED AT PI, 1'S COMP.
000245: 16,2275           55756                           TS       AK         +2                         #  SAVE Z-AXIS TERM FOR R ERROR CALCULATION
000246: 16,2276           00006                           EXTEND
000247: 16,2277           71415                           MP       M22                                   #  (CPSI-CDUZ)*M22, SCALED AT PI RADIANS.
000248: 16,2300           61755                           AD       AK         +1                         #  Q ERROR COMPLETE         , AT PI RAD.
000249: 16,2301           02524                           TC       OVERSUB                               #  PIN NEEDLES IN CASE OF OVERFLOW.
000250: 16,2302           55755                           TS       AK         +1
000251:
000252:                                                                                                  #  R ERROR CALCULATION NEXT.
000253:
000254: 16,2303           31754                           CA       AK                                    #  Y-AXIS DIFFERENCE STORED BY Q-AXIS CALC.
000255: 16,2304           00006                           EXTEND
000256: 16,2305           71414                           MP       M31                                   #  (CTHETA-CDUY)*M31, SCALED AT PI RADIANS.
000257: 16,2306           57756                           XCH      AK         +2                         #  FIRST TERM OF R ERROR.
000258:                                                                                                  #  Z-AXIS DIFFERENCE, STORED BY A CALC. IS
000259: 16,2307           00006                           EXTEND                                         #  RECOVERED BY THE EXCHANGE.
000260: 16,2310           71416                           MP       M32                                   #  (CPSI-CDUZ)*M32, SCALED AT PI RADIANS.
000261: 16,2311           61756                           AD       AK         +2                         #  R ERROR COMPLETE         , AT PI RAD.
000262: 16,2312           02524                           TC       OVERSUB                               #  PIN NEEDLES IN CASE OF OVERFLOW.
000263: 16,2313           55756                           TS       AK         +2
000264:
000265:                                                                                                  #  NOW CALCULATE P ERROR.  (NOTE THAT M13 = 1, SCALED AT 1, SO THE MULTIPLICATION IS BY-PASSED.)
000266: 16,2314           31754                           CA       AK                                    #  Y-AXIS DIFFERENCE STORED BY Q AXIS CALC.
000267: 16,2315           00006                           EXTEND
000268: 16,2316           71412                           MP       M11                                   #  (CTHETA-CDUY)*M11 SCALED AT PI RADIANS.
000269: 16,2317           57754                           XCH      AK                                    #  FIRST TERM OF P ERROR IN AK, AT PI RAD.
000270: 16,2320           31206                           CAE      CPHI                                  #  DESIRED ATTITUDE, X-AXIS, 2'S COMP.
000271: 16,2321           00006                           EXTEND                                         #  SUBTRACT CURRENT X ATTITUDE.
000272: 16,2322           20032                           MSU      CDUX                                  #  X-AXIS DIFFERENCE, 1'S COMP, AT PI RAD.
000273:
000274:                                                                                                  #  M13 = 1, SO BYPASS THE MULTIPLICATION.
000275:                                                                                                  #                EXTEND
000276:                                                                                                  #                MP      M13             (CPHI-CDUX)*M13 SCALED AT PI RADIANS.
000277:
000278: 16,2323           61754                           AD       AK                                    #  P ERROR COMPLETE      , SCALED AT PI RAD
000279: 16,2324           02524                           TC       OVERSUB                               #  PIN NEEDLES IN CASE OF OVERFLOW.
000280: 16,2325           55754                           TS       AK
000281:
000282: 16,2326           00006                           EXTEND
000283: 16,2327           22061                           QXCH     ITEMP1                                #  RESTORE Q FOR CHEKBITS RETURN.
000284:
000285: 16,2330           12061                           TCF      CHEKMORE                              #  DISPLAY THESE THE NEXT TIME THROUGH
000286:
000287:                                                                                                  #  FDAI ATTITUDE ERROR DISPLAY SUBROUTINE
000288:
000289:                                                                                                  #  PROGRAM DESCRIPTION:          D. KEENE        5/24/67
000290:                                                                                                  #  MOD 1 BY CRAIG WORK, 12 DEC 67
000291:                                                                                                  #  MOD 2 BY CRAIG WORK, 6 APRIL 68 CONVERTS ATTITUDE ERROR DISPLAY SCALING FROM 16 7/8 DEG. TO 42 3/16 DEGREES.
000292:
000293:                                                                                                  #  THIS SUBROUTINE IS USED TO DISPLAY ATTITUDE ERRORS ON THE FDAI VIA THE DIGITAL TO ANALOG CONVERTERS (DACS)
000294:                                                                                                  #  IN THE CDUS.  CARE IS TAKEN TO METER OUT THE APPROPRIATE NUMBER OF PULSES TO THE IMU ERROR COUNTERS AND PREVENT
000295:                                                                                                  #  OVERFLOW, TO CONTROL THE RELAY SEQUENCING, AND TO AVOID INTERFERENCE WITH THE COARSE ALIGN LOOP WHICH ALSO USES
000296:                                                                                                  #  THE DACS.
000297:
000298:                                                                                                  #  CALLING SEQUENCE:
000299:                                                                                                  #        DURING THE INITIALIZATION SECTION OF THE USER'S PROGRAM, BIT3 OF RCSFLAGS SHOULD BE SET TO INITIATE THE
000300:                                                                                                  #        TURN-ON SEQUENCE WITHIN THE NEEDLES PROGRAM:
000301:                                                                                                  #                CS      RCSFLAGS        IN EBANK6
000302:                                                                                                  #                MASK    BIT3
000303:                                                                                                  #                ADS     RCSFLAGS
000304:                                                                                                  #        THEREAFTER, THE ATTITUDE ERRORS GENERATED BY THE USER SHOULD BE TRANSFERED TO THE FOLLOWING LOCATIONS IN EBANK6:
000305:                                                                                                  #                AK      SCALED 180 DEGREES      NOTE:   THESE LOCATIONS ARE SUBJECT
000306:                                                                                                  #                AK1     SCALED 180 DEGREES              TO CHANGE
000307:                                                                                                  #                AK2     SCALED 180 DEGREES
000308:                                                                                                  #        FULL SCALED DEFLECTION OF THE NEEDLES CORRESPONDS TO 5 1/16 DEGREES, WHILE 384 BITS IN THE IMU ERROR COUNTER
000309:                                                                                                  #        CORRESPONDS TO 42 3/16 DEGREES.  (DAC MAXIMUM CAPACITY IS 384 BITS.)  46 BITS EFFECTIVELY PIN THE NEEDLES.
000310:
000311:                                                                                                  #        A CALL TO NEEDLER WILL THEN UPDATE THE DISPLAY:
000312:                                                                                                  #                INHINT
000313:                                                                                                  #                TC      IBNKCALL        NOTE:  EBANK SHOULD BE SET TO E6
000314:                                                                                                  #                CADR    NEEDLER
000315:                                                                                                  #                RELINT
000316:                                                                                                  #        THIS PROCESS SHOULD BE REPEATED EACH TIME THE ERRORS ARE UPDATED.  AT LEAST 3 PASSES THRU THE PROGRAM ARE
000317:                                                                                                  #        REQUIRED BEFORE ANYTHING IS ACTUALLY DISPLAYED ON THE ERROR METERS.
000318:                                                                                                  #        NOTE:  EACH CALL TO NEEDLER MUST BE SEPARATED BY AT LEAST 50 MS TO ASSURE PROPER RELAY SEQUENCING.
000319:
000320:                                                                                                  #  ERASABLE USED:
000321:                                                                                                  #        AK              CDUXCMD
000322:                                                                                                  #        AK1             CDUYCMD
000323:                                                                                                  #        AK2             CDUZCMD
000324:                                                                                                  #        EDRIVEX         A,L,Q
000325:                                                                                                  #        EDRIVEY         T5TEMP
000326:                                                                                                  #        EDRIVEZ         DINDX
000327:
000328:                                                                                                  #  SWITCHES:             RCSFLAGS  BITS 3,2
000329:
000330:                                                                                                  #  I/O CHANNELS:         CHAN12  BIT 4 (COARSE ALIGN - READ ONLY)
000331:                                                                                                  #                        CHAN12  BIT 6 (IMU ERROR COUNTER ENABLE)
000332:                                                                                                  #                        CHAN14  BIT 13,14,15 (DAC ACTIVITY)
000333:
000334:                                                                                                  #  SIGN CONVENTION<      AK = THETAC - THETA
000335:                                                                                                  #                        WHERE   THETAC = COMMAND ANGLE
000336:                                                                                                  #                                THETA = PRESENT ANGLE
000337:
000338: 16,2331           31275        NEEDLER            CA       RCSFLAGS
000339: 16,2332           76216                           MASK     SIX
000340: 16,2333           00006                           EXTEND
000341: 16,2334           12371                           BZF      NEEDLES3
000342: 16,2335           75024                           MASK     BIT3
000343: 16,2336           00006                           EXTEND
000344: 16,2337           12362                           BZF      NEEDLER2                              #  BIT3 = 0, BIT2 = 1
000345:
000346: 16,2340           45021                           CS       BIT6                                  #  FIRST PASS BIT3 = 1
000347: 16,2341           00006                           EXTEND                                         #  DISABLE IMU ERROR COUNTER TO ZERO DACS
000348: 16,2342           03012                           WAND     CHAN12                                #  MUST WAIT AT LEAST 60 MS BEFORE
000349: 16,2343           45030        NEEDLE11           CS       ZERO                                  #  ENABLING COUNTERS.
000350: 16,2344           55754                           TS       AK                                    #  ZERO THE INPUTS ON FIRST PASS
000351: 16,2345           55755                           TS       AK1
000352: 16,2346           55756                           TS       AK2
000353: 16,2347           55757                           TS       EDRIVEX                               #  ZERO THE DISPLAY REGISTERS
000354: 16,2350           55760                           TS       EDRIVEY
000355: 16,2351           55761                           TS       EDRIVEZ
000356: 16,2352           54050                           TS       CDUXCMD                               #  ZERO THE OUT COUNTERS
000357: 16,2353           54051                           TS       CDUYCMD
000358: 16,2354           54052                           TS       CDUZCMD
000359: 16,2355           46216                           CS       SIX                                   #  RESET RCSFLAGS FOR PASS2
000360: 16,2356           71275                           MASK     RCSFLAGS
000361: 16,2357           65025                           AD       BIT2
000362: 16,2360           55275                           TS       RCSFLAGS
000363: 16,2361           12061                           TCF      CHEKMORE
000364:
000365: 16,2362           35021        NEEDLER2           CAF      BIT6                                  #  ENABLE IMU ERROR COUNTERS
000366: 16,2363           00006                           EXTEND
000367: 16,2364           05012                           WOR      CHAN12
000368: 16,2365           46216                           CS       SIX                                   #  RESET RCSFLAGS TO DISPLAY ATTITUDE
000369: 16,2366           71275                           MASK     RCSFLAGS                              #  ERRORS    WAIT AT LEAST 4 MS FOR
000370: 16,2367           55275                           TS       RCSFLAGS                              #  RELAY CLOSURE
000371: 16,2370           12061                           TCF      CHEKMORE
000372:
000373: 16,2371           35021        NEEDLES3           CAF      BIT6                                  #  CHECK TO SEE IF IMU ERROR COUNTER
000374: 16,2372           00006                           EXTEND                                         #  IS ENABLED
000375: 16,2373           02012                           RAND     CHAN12
000376: 16,2374           10000                           CCS      A                                     #  IF NOT, RE-INITIALIZE NEEDLER.
000377: 16,2375           12402                           TCF      NEEDLES
000378:
000379: 16,2376           41275                           CS       RCSFLAGS                              #  SET UP INITIALIZATION FLAG IN RCSFLAGS.
000380: 16,2377           75024                           MASK     BIT3
000381: 16,2400           27275                           ADS      RCSFLAGS
000382: 16,2401           12061                           TCF      CHEKMORE
000383:
000384: 16,2402           35025        NEEDLES            CAF      TWO
000385: 16,2403           54063        DACLOOP            TS       DINDX
000386: 16,2404           42443                           CS       ONETENTH                              #  RESCALE INPUTS TO + OR - 1800 DEGREES.
000387: 16,2405           00006                           EXTEND
000388: 16,2406           50063                           INDEX    DINDX
000389: 16,2407           71754                           MP       AK
000390: 16,2410           54001                           TS       L
000391: 16,2411           10000                           CCS      A
000392: 16,2412           32441                           CA       DACLIMIT
000393: 16,2413           12415                           TCF      +2
000394: 16,2414           42441                           CS       DACLIMIT
000395: 16,2415           60001                           AD       L
000396: 16,2416           54061                           TS       T5TEMP                                #  OVFLO CHK
000397: 16,2417           12423                           TCF      +4
000398: 16,2420           50000                           INDEX    A                                     #  ON OVERFLOW LIMIT OUTPUT TO +-384
000399: 16,2421           32441                           CAF      DACLIMIT
000400: 16,2422           54001                           TS       L
000401: 16,2423           50063                           INDEX    DINDX
000402: 16,2424           41757                           CS       EDRIVEX                               #  CURRENT VALUE OF DAC
000403: 16,2425           60001                           AD       L
000404: 16,2426           50063                           INDEX    DINDX
000405: 16,2427           26050                           ADS      CDUXCMD
000406: 16,2430           50063                           INDEX    DINDX
000407: 16,2431           23757                           LXCH     EDRIVEX
000408: 16,2432           10063                           CCS      DINDX
000409: 16,2433           12403                           TCF      DACLOOP
000410: 16,2434           37711                           CAF      13,14,15
000411: 16,2435           00006                           EXTEND
000412: 16,2436           05014                           WOR      CHAN14                                #  SET DAC ACTIVITY BITS
000413: 16,2437           12061                           TCF      CHEKMORE
000414:
000415: 16,2440           77177                           DEC      -384       B-14
000416: 16,2441           37200        DACLIMIT           DEC      16000      B-14
000417: 16,2442           00600                           DEC      384        B-14
000418:
000419: 16,2443           03146        ONETENTH           OCT      03146                                 #  DECIMAL +0.1, SCALED AT 1.
000420: 16,2444     5023               DSPLYALT           EQUALS   BIT4                                  #  100 MS ALTERNATION BIT IN RCSFLAGS

End of include-file DAPIDLER_PROGRAM.agc.  Parent file is MAIN.agc


