
Source Code


000002:                                                                                                  ## Copyright:   Public domain.
000003:                                                                                                  ## Filename:    DISPLAY_INTERFACE_ROUTINES.agc
000004:                                                                                                  ## Purpose:     A section of a reconstructed, mixed version of Sundance
000005:                                                                                                  ##              It is part of the reconstructed source code for the Lunar
000006:                                                                                                  ##              Module's (LM) Apollo Guidance Computer (AGC) for Apollo 9.
000007:                                                                                                  ##              No original listings of this program are available;
000008:                                                                                                  ##              instead, this file was created via disassembly of dumps
000009:                                                                                                  ##              of various revisions of Sundance core rope modules.
000010:                                                                                                  ## Assembler:   yaYUL
000011:                                                                                                  ## Contact:     Ron Burkey <info@sandroid.org>.
000012:                                                                                                  ## Website:     www.ibiblio.org/apollo/index.html
000013:                                                                                                  ## Mod history: 2020-06-17 MAS  Created from Luminary 69.
000014:
000015:                                                                                                  ## Sundance 292
000016:
000017:                                                                                                  #  DISPLAYS CAN BE CLASSIFIED INTO THE FOLLOWING CATEGORIES-
000018:
000019:                                                                                                  #      1. PRIORITY DISPLAYS- DISPLAYS WHICH TAKE PRIORITY OVER ALL OTHER DISPLAYS. USUALLY THESE DISPLAYS ARE SENT
000020:                                                                                                  #         OUT UNDER CRITICAL ALARM CONDITIONS.
000021:                                                                                                  #      2. EXTENDED VERB DISPLAYS- ALL EXTENDED VERBS AND MARK ROUTINES SHOULD USE EXTENDED VERB (MARK) DISPLAYS.
000022:                                                                                                  #      3. NORMAL DISPLAYS- ALL MISSION PROGRAM DISPLAYS WHICH INTERFACE WITH THE ASTRONAUT DURING THE NORMAL
000023:                                                                                                  #         SEQUENCE OF EVENTS.
000024:                                                                                                  #      4. MISC. DISPLAYS- ALL DISPLAYS NOT HANDLED BY THE DISPLAY INTERFACEROUTINES. THESE INCLUDE SUCH DISPLAYS AS
000025:                                                                                                  #         MM DISPLAYS AND SPECIAL PURPOSE DISPLAYS HANDLED BY PINBALL.
000026:
000027:
000028:                                                                                                  #      5. ASTRONAUT INITIATED DISPLAYS- ALL DISPLAYS INITIATED EXTERNALLY.
000029:                                                                                                  #  THE FOLLOWING TERMS ARE USED TO DESCRIBE THE STATUS OF DISPLAYS-
000030:
000031:                                                                                                  #      1. ACTIVE-THE DISPLAY WHICH IS (1) BEING DISPLAYED TO THE ASTRONAUT AND WAITING FOR A RESPONSE OR
000032:                                                                                                  #         (2) WAITING FIRST IN LINE FOR THE ASTRONAUT TO FINISH USING THE DSKY OR (3) BEING DISPLAYED ON THE DSKY
000033:                                                                                                  #         BUT NOT WAITING FOR A RESPONSE.
000034:                                                                                                  #      2. INACTIVE -A DISPLAY WHICH HAS (1) BEEN ACTIVE BUT WAS INTERRUPTEDBY A DISPLAY OF HIGHER PRIORITY,
000035:                                                                                                  #         (2) BEEN PUT INTO THE WAITING LIST AT TIME IT WAS REQUESTED DUE TO THE FACT A HIGHER PRIORITY DISPLAY
000036:                                                                                                  #         WAS ALREADY GOING, (3) BEEN INTERRUPTED BY THE ASTRONAUT (CALLED A PINBRANCH CONDITION, SINCE THIS TYPE
000037:                                                                                                  #         OF INACTIVE DISPLAY IS USUALLY REACTIVATED ONLY BY PINBALL) OR (4) A DISPLAY WHICH HAS FINISHED BUT STILL
000038:                                                                                                  #         HAS INFO SAVED FOR RESTART PURPOSES.
000039:
000040:
000041:                                                                                                  #  DISPLAY PRIORITIES WORK AS FOLLOWS-
000042:
000043:                                                                                                  #    INTERRUPTS-
000044:                                                                                                  #      1. THE ASTRONAUT CAN INTERRUPT ANY DISPLAY WITH AN EXTERNAL DISPLAY REQUEST.
000045:                                                                                                  #      2. INTERNAL DISPLAYS CAN NOT BE SENT OUT WHEN THE ASTRONAUT IS USING THE DSKY.
000046:                                                                                                  #      3. PRIORITY DISPLAYS INTERRUPT ALL OTHER TYPES OF INTERNAL DISPLAYS. A PRIORITY DISPLAY INTERRUPTING ANOTHER
000047:                                                                                                  #         PRIORITY DISPLAY WILL CAUSE AN ABORT UNLESS BIT14 IS SET FOR THE LINUS ROUTINE.
000048:                                                                                                  #      4. A MARK DISPLAY INTERRUPTS ANY NORMAL DISPLAY.
000049:                                                                                                  #      5. A MARK THAT INTERRUPTS A MARK COMPLETELY REPLACES IT.
000050:
000051:                                                                                                  #    ORDER OF WAITING DISPLAYS-
000052:                                                                                                  #      1. ASTRONAUT EXTERNAL USE
000053:                                                                                                  #      2. PRIORITY
000054:                                                                                                  #      3. INTERRUPTED MARK
000055:                                                                                                  #      4. INTERRUPTED NORMAL
000056:
000057:                                                                                                  #      5. MARK TO BE REQUESTED (SEE DESCRIPTION OF ENDMARK)
000058:                                                                                                  #      6. MARK WAITING
000059:                                                                                                  #      7. NORMAL WAITING
000060:
000061:                                                                                                  #  THE DISPLAY ROUTINES ARE INTENDED TO SERVE AS AN INTERFACE BETWEEN THE USER AND PINBALL.  THE
000062:                                                                                                  #  FOLLOWING STATEMENTS CAN BE MADE ABOUT NORMAL DISPLAYS AND PRIORITY DISPLAYS (A DESCRIPTION OF MARK ROUTINES
000063:                                                                                                  #  WILL FOLLOW LATER):
000064:
000065:                                                                                                  #       1.  ALL ROUTINES THAT END IN R HAVE AN IMMEDIATE RETURN TO THE USER.  FOR ALL FLASHING DISPLAYS THIS RETURN
000066:                                                                                                  #           IS TO THE USERS CALL CADR +4.  FOR THE ONLY NON FLASHING IMMEDIATE RETURN DISPLAY (GODSPR) THIS RETURN
000067:                                                                                                  #           IS TO THE USERS CALLING LOC +1.
000068:                                                                                                  #       2.  ALL ROUTINES NOT ENDING IN R DO NOT DO AN IMMEDIATE RETURN TO THE USER.
000069:                                                                                                  #       3.  ALL ROUTINES THAT END IN R START A SEPARATE JOB (MAKEPLAY) WITH USERS JOB PRIORITY.
000070:                                                                                                  #       4.  ALL ROUTINES NOT ENDING IN R BRANCH DIRECTLY TO MAKEPLAY WHICH MAKES THESE DISPLAYS A PART OF THE
000071:                                                                                                  #           USERS JOB.
000072:                                                                                                  #       5.  ALL DISPLAY ROUTINES ARE CALLED VIA BANKCALL.
000073:                                                                                                  #       6.  TO RESTART A DISPLAY THE USER WILL GENERALLY USE A PHASE OF ONE WITH DESIRED RESTART GROUP (SEE
000074:                                                                                                  #           DESCRIPTION OF RESTARTS).
000075:                                                                                                  #       7.  ALL FLASHING DISPLAYS HAVE 3 RETURNS TO THE USER FROM ASTRONAUT RESPONSES.  A TERMINATE (V34) BRANCHES
000076:                                                                                                  #           TO THE USERS CALL CADR +1.  A PROCEED (V33) BRANCHES TO THE USERS CALL CADR +2.  AN ENTER OR RECYCLE
000077:                                                                                                  #           (V32) BRANCHES TO THE USERS CALL CADR +3.
000078:                                                                                                  #       8.  ALL ROUTINES MUST BE USED UNDER EXECUTIVE CONTROL.
000079:
000080:                                                                                                  #  A DESCRIPTION OF EACH ROUTINE WITH AN EXAMPLE FOLLOWS:
000081:
000082:                                                                                                  #  GODSP IS USED TO DISPLAY A VERB NOUN ARRIVING IN A.  NO RETURN IS MADE TO THE USER.
000083:
000084:                                                                                                  #       1. GODSP IS NOT RESTARTABLE
000085:                                                                                                  #       2. A VERB PASTE WITH GODSP ALWAYS TURNS ON THE FLASH.
000086:                                                                                                  #                                                   CAF    VXXNYY
000087:                                                                                                  #                                                   TC     BANKCALL
000088:                                                                                                  #                                                   CADR   GODSP
000089:
000090:                                                                                                  #                                          VXXNYY   OCT    0XXYY
000091:
000092:                                                                                                  #  GODSPR IS THE SAME AS GODSP ONLY RETURN IS TO THE USER.
000093:
000094:                                                                                                  #                                                   CAF    VXXNYY
000095:                                                                                                  #                                                   TC     BANKCALL
000096:                                                                                                  #                                                   CADR   GODSPR
000097:
000098:                                                                                                  #                                                   ...    ...             IMMEDIATE RETURN OF GODSPR
000099:
000100:                                                                                                  #  GOFLASH DISPLAYS A FLASHING VERB NOUN WITH NO IMMEDIATE RETURN TO THE USER. 3 RETURNS ARE POSSIBLE FROM
000101:                                                                                                  #  THE ASTRONAUT (SEE NO. 7 ABOVE).
000102:
000103:                                                                                                  #                                                   CAF    VXXNYY          VXX NYY WILL BE A FLASHING VERB NOUN.
000104:                                                                                                  #                                                   TC     BANKCALL
000105:                                                                                                  #                                                   CADR   GOFLASH
000106:                                                                                                  #                                                   ...    ...             TERMINATE RETURN
000107:                                                                                                  #                                                   ...    ...             PROCEED RETURN
000108:                                                                                                  #                                                   ...    ...             ENTER OR RECYCLE RETURN
000109:
000110:                                                                                                  #  GOPERF1 IS ENTERED WITH DESIRED CHECKLIST VALUE IN A.  GOPERF1 WILL DISPLAY THIS VALUE IN R1 BY MEANS OF A
000111:                                                                                                  #  V01 N25.A FLASHING PLEASE PERFORM ON CHECKLIST ( V50 N25) IS THEN DISPLAYED.  NO IMMEDIATE RETURN IS MADE TO
000112:                                                                                                  #  USER (SEE NO. 7 ABOVE).
000113:
000114:                                                                                                  #  GOPERF1 BLANKS REGISTERS R2 AND R3
000115:                                                                                                  #                                                   CAF    OCTXX           CODE FOR CHECKLIST VALUE XX
000116:                                                                                                  #                                                   TC     BANKCALL
000117:                                                                                                  #                                                   CADR   GOPERF1
000118:                                                                                                  #                                                   ...    ...             TERMINATE RETURN
000119:                                                                                                  #                                                   ...    ...             PROCEED RETURN
000120:                                                                                                  #                                                   ...    ...             ENTER RETURN
000121:
000122:                                                                                                  #  GOPERF2 IS ENTERED WITH A VARIABLE NOUN AND V01 ( V00 FOR N10 OR N11) IN A.  GOPERF2 WILL FIRST DISPLAY THE
000123:                                                                                                  #  REQUESTED NOUN BY MEANS OF A V01NYY OR A V00NYY. PLEASE PERFORM ON NOUN (V50 NYY) THEN BECOMES A FLASHING
000124:                                                                                                  #  DISPLAY.  NO IMMEDIATE RETURN IS MADE TO THE USER (SEE NO. 7 ABOVE).
000125:
000126:                                                                                                  #  GOPERF2 DOES NOT BLANK ANY REGISTERS
000127:
000128:                                                                                                  #                                                   CAF    VXXNYY          VARIABLE NOUN YY. XX=00 OR 01.
000129:                                                                                                  #                                                   TC     BANKCALL
000130:                                                                                                  #                                                   CADR   GOPERF2
000131:                                                                                                  #                                                   ...    ...             TERMINATE RETURN
000132:                                                                                                  #                                                   ...    ...             PROCEED RETURN
000133:                                                                                                  #                                                   ...    ...             ENTER RETURN
000134:
000135:                                                                                                  #  GOPERF3 IS USED FOR A PLEASE PERFORM ON A PROGRAM NUMBER.  THE DESIRED PROGRAM NO. IS ENTERED IN A.  GOPERF3
000136:                                                                                                  #  DISPLAYS THE NO. BY MEANS OF A V06 N07 FOLLOWED BY A FLASHING V50 N07 FOR A PLEASE PERFORM. NO IMMEDIATE RETURN
000137:                                                                                                  #  IS MADE TO THE USER (SEE NO. 7 ABOVE).
000138:
000139:                                                                                                  #  GOPERF3 BLANKS REGISTERS R2 AND R3
000140:
000141:                                                                                                  #                                                   CAF    DECXX           REQUEST PERFORM ON PXX
000142:                                                                                                  #                                                   TC     BANKCALL
000143:                                                                                                  #                                                   CADR   GOPERF3
000144:                                                                                                  #                                                   ...    ...             TERMINATE RETURN
000145:                                                                                                  #                                                   ...    ...             PROCEED RETURN
000146:                                                                                                  #                                                   ...    ...             ENTER RETURN
000147:
000148:                                                                                                  #  GOPERF4 IS USED FOR A PLEASE PERFORM ON AN OPTION. THE DESIRED OPTION ISENTERED IN A AND STORED IN OPTION1.
000149:                                                                                                  #  GOPERF4 DISPLAYS R1 AND R2 BY MEANS OF A V04N06 FOLLOWED BY A FLASHING  V50N06 FOR A PLEASE PERFORM. NO
000150:                                                                                                  #  IMMEDIATE RETURN IS MADE TO THE USER (SEE NO. 7 ABOVE).
000151:
000152:                                                                                                  #                                                   CAF    OCTXX           REQUEST PERFORM ON OPTION XX
000153:                                                                                                  #                                                   TC     BANKCALL
000154:                                                                                                  #                                                   CADR   GOPERF4
000155:                                                                                                  #                                                   ...    ...             TERMINATE RETURN
000156:                                                                                                  #                                                   ...    ...             PROCEED RETURN
000157:                                                                                                  #                                                   ...    ...             ENTER RETURN
000158:
000159:                                                                                                  #  GOPERF4 BLANKS REGISTER R3
000160:
000161:                                                                                                  #  GODSPRET IS USED TO DISPLAY A VERB NOUN ARRIVING IN A WITH A RETURN TO THE USER AFTER THE DISPLAY HAS BEEN SENT
000162:                                                                                                  #  OUT.
000163:
000164:                                                                                                  #                                                   CAF    VXXNYY
000165:                                                                                                  #                                                   TC     BANKCALL
000166:                                                                                                  #                                                   CADR   GODSPRET
000167:                                                                                                  #                                                   ...    ...             RETURN TO USER
000168:
000169:                                                                                                  #  REGODSP IS USED TO DISPLAY A VERB NOUN ARRIVING IN A.  REGODSP IS THE SAME AS GODSP ONLY REGODSP REPLACES ANY
000170:                                                                                                  #  ACTIVE NORMAL DISPLAY IF ONE WAS ACTIVE.
000171:
000172:                                                                                                  #                                                   CAF    VXXNYY
000173:                                                                                                  #                                                   TC     BANKCALL
000174:                                                                                                  #                                                   CADR   REGODSP
000175:
000176:                                                                                                  #  REFLASH IS THE SAME AS GOFLASH ONLY REFLASH REPLACES ANY ACTIVE NORMAL DISPLAY IF ONE WAS ACTIVE.
000177:
000178:                                                                                                  #                                                   CAF    VXXNYY          VXX NYY WILL BE A FLASHING VERB NOUN
000179:                                                                                                  #                                                   TC     BANKCALL
000180:                                                                                                  #                                                   CADR   REFLASH
000181:                                                                                                  #                                                   ...    ...             TERMINATE RETURN
000182:                                                                                                  #                                                   ...    ...             PROCEED RETURN
000183:                                                                                                  #                                                   ...    ...             ENTER RETURN
000184:
000185:                                                                                                  #  GOFLASHR IS SAME AS GOFLASH ONLY AN IMMEDIATE RETURN IS MADE TO THE USERS CALL CADR +4.
000186:
000187:                                                                                                  #                                                   CAF    VXXNYY
000188:                                                                                                  #                                                   TC     BANKCALL
000189:                                                                                                  #                                                   CADR   GOFLASHR
000190:                                                                                                  #                                                   ...    ...             TERMINATE RETURN
000191:                                                                                                  #                                                   ...    ...             PROCEED RETURN
000192:                                                                                                  #                                                   ...    ...             ENTER OR RECYCLE RETURN
000193:
000194:                                                                                                  #                                                   ...    ...             IMMEDIATE RETURN FROM GOFLASHR
000195:
000196:                                                                                                  #  GOPERF1R IS THE SAME AS GOPERF1 ONLY GOPERF1R HAS AN IMMEDIATE RETURN TOUSERS CALL CADR +4.
000197:
000198:                                                                                                  #  GOPERF1R BLANKS REGISTERS R2 AND R3
000199:
000200:                                                                                                  #                                                   CAF    OCTXX           CODE FOR CHECKLIST VALUE XX.
000201:                                                                                                  #                                                   TC     BANKCALL
000202:                                                                                                  #                                                   CADR   GOPERF1R
000203:                                                                                                  #                                                   ...    ...             TERMINATE RETURN
000204:                                                                                                  #                                                   ...    ...             PROCEED RETURN
000205:                                                                                                  #                                                   ...    ...             ENTER RETURN
000206:
000207:                                                                                                  #                                                   ...    ...             IMMEDIATE RETURN FROM GOPERF1R
000208:
000209:                                                                                                  #  GOPERF2R IS THE SAME AS GOPERF2 ONLY AN IMMEDIATE RETURN IS MADE TO USERS CALL CADR +4.
000210:
000211:                                                                                                  #  GOPERF2R DOES NOT BLANK ANY REGISTERS
000212:
000213:                                                                                                  #                                                   CAF    VXXNYY          VARIABLE NOUN YY REQUESTED.  XX=00 OR 01
000214:                                                                                                  #                                                   TC     BANKCALL
000215:                                                                                                  #                                                   CADR   GOPERF2R
000216:                                                                                                  #                                                   ...    ...             TERMINATE RETURN
000217:                                                                                                  #                                                   ...    ...             PROCEED RETURN
000218:                                                                                                  #                                                   ...    ...             ENTER RETURN
000219:
000220:                                                                                                  #                                                   ...    ...             IMMEDIATE RETURN HERE FROM GOPERF2R
000221:
000222:                                                                                                  #  GOPERF3R IS THE SAME AS GOPERF3 ONLY AN IMMEDIATE RETURN IS MADE TO USERS CALL CADR +4.
000223:
000224:                                                                                                  #  GOPERF3R BLANKS REGISTERS R2 AND R3
000225:
000226:                                                                                                  #                                                   CAF    PROGXX          PERFORM PROGRAM XX
000227:                                                                                                  #                                                   TC     BANKCALL
000228:                                                                                                  #                                                   CADR   GOPERF3R
000229:                                                                                                  #                                                   ...    ...             TERMINATE RETURN
000230:                                                                                                  #                                                   ...    ...             PROCEED RETURN
000231:                                                                                                  #                                                   ...    ...             ENTER RETURN
000232:
000233:                                                                                                  #                                                   ...    ...             GOPERF3R IMMEDIATELY RETURNS HERE
000234:
000235:                                                                                                  #  GOPERF4R IS THE SAME AS GOPERF4 ONLY AN IMMEDIATE RETURN IS MADE TO USERS CALL CADR +4.
000236:
000237:                                                                                                  #                                                   CAF    OCTXX           REQUEST PERFORM ON OPTIONXX
000238:                                                                                                  #                                                   TC     BANKCALL
000239:                                                                                                  #                                                   CADR   GOPERF4R
000240:                                                                                                  #                                                   ...    ...             TERMINATE RETURN
000241:                                                                                                  #                                                   ...    ...             PROCEED RETURN
000242:                                                                                                  #                                                   ...    ...             ENTER RETURN
000243:
000244:                                                                                                  #                                                   ...    ...             IMMEDIATE RETURN TO USER
000245:
000246:                                                                                                  #  GOPERF4R BLANKS REGISTER R3
000247:
000248:                                                                                                  #  REFLASHR IS THE SAME AS REFLASH ONLY AN IMMEDIATE RETURN IS MADE TO THE USERS CALL CADR +4.
000249:
000250:                                                                                                  #                                                   CAF    VXXNYY          VXX NYY WILL BE A FLASHING VERB NOUN
000251:                                                                                                  #                                                   TC     BANKCALL
000252:                                                                                                  #                                                   CADR   REFLASHR
000253:                                                                                                  #                                                   ...    ...             TERMINATE RETURN
000254:                                                                                                  #                                                   ...    ...             PROCEED RETURN
000255:                                                                                                  #                                                   ...    ...             ENTER RETURN
000256:
000257:                                                                                                  #                                                   ...    ...             IMMEDIATE RETURN TO USER
000258:
000259:                                                                                                  #  REGODSPR IS THE SAME AS REGODSP ONLY A RETURN (IMMEDIATE) IS MADE TO THE USER.
000260:
000261:                                                                                                  #                                                   CAF    VXXNYY
000262:                                                                                                  #                                                   TC     BANKCALL
000263:                                                                                                  #                                                   CADR   REGODSPR
000264:                                                                                                  #                                                   ...    ...             IMMEDIATE RETURN TO USER
000265:                                                                                                  #  GOMARK IS USED TO DISPLAY A MARK VERB NOUN ARRIVING IN A.  NO RETURN IS MADE TO THE USER.
000266:
000267:                                                                                                  #  GOXDSP = GOMARK
000268:
000269:                                                                                                  #                                                   CAF    VXXNYY          VXXNYY CONTAINS VERB AND NOUN
000270:                                                                                                  #                                                   TC     BANKCALL
000271:                                                                                                  #                                                   CADR   GOMARK          OTHER EXTENDED VERBS USE CADR GOXDSP
000272:
000273:                                                                                                  #  GOMARKR IS THE SAME AS GOMARK ONLY RETURN IS TO THE USER.
000274:
000275:                                                                                                  #  GOXDSPR = GOMARKR
000276:
000277:                                                                                                  #                                                   CAF    VXXNYY
000278:                                                                                                  #                                                   TC     BANKCALL
000279:                                                                                                  #                                                   CADR   GOMARKR         OTHER EXTENDED VERBS USE CADR GOXDSPR
000280:
000281:                                                                                                  #                                                   ...    ...             IMMEDIATE RETURN OF GOMARKR
000282:
000283:                                                                                                  #  GOMARKF DISPLAYS A FLASHING MARK VERB NOUN WITH NO IMMEDIATE RETURN TO THE USER. 3 RETURNS ARE POSSIBLE FROM
000284:                                                                                                  #  THE ASTRONAUT (SEE NO. 7 ABOVE ).
000285:
000286:                                                                                                  #  GOXDSPF = GOMARKF
000287:
000288:                                                                                                  #                                                   CAF    VXXNYY          VXXNYY WILL BE A FLASHING MARK VERB NOUN
000289:                                                                                                  #                                                   TC     BANKCALL
000290:                                                                                                  #                                                   CADR   GOMARKF         OTHER EXTENDED VERBS USE CADR GOXDSPF
000291:                                                                                                  #                                                   ...    ...             TERMINATE RETURN
000292:                                                                                                  #                                                   ...    ...             PROCEED RETURN
000293:                                                                                                  #                                                   ...    ...             ENTER OR RECYCLE RETURN
000294:
000295:                                                                                                  #  GOMARKFR IS THE SAME AS GOMARKF ONLY AN IMMEDIATE RETURN IS MADE TO THE USER CALL CADR +4.
000296:
000297:                                                                                                  #  GOXDSPFR = GOMARKFR
000298:
000299:                                                                                                  #                                                   CAF    VXXNYY          FLASHING MARK VERB NOUN
000300:                                                                                                  #                                                   TC     BANKCALL
000301:                                                                                                  #                                                   CADR   GOMARKFR        OTHER EXTENDED VERBS USE CADR GOXDSPFR
000302:                                                                                                  #                                                   ...    ...             TERMINATE RETURN
000303:                                                                                                  #                                                   ...    ...             PROCEED RETURN
000304:                                                                                                  #                                                   ...    ...             ENTER OR RECYCLE RETURN
000305:
000306:                                                                                                  #                                                   ...    ...             IMMEDIATE RETURN TO THE USER
000307:
000308:                                                                                                  #  GOMARK1 IS USED FOR A PLEASE PERFORM ON A MARK REQUEST WITH ONLY 1 ASTRONAUT RETURN TO THE USER. NO IMMEDIATE
000309:                                                                                                  #  RETURN IS MADE. THE DESIRED MARK PLEASE PERFORM VERB AND DESIRED NOUN ISENTERED IN A. GOMARK1 DISPLAYS R1, R2, R
000310:                                                                                                  #  MEANS OF A V05NYY FOLLOWED BY A FLASHING V5XNYY FOR A PLEASE PERFORM. THE ASTRONAUT WILL RESPOND WITH A MARK
000311:                                                                                                  #  OR MARK REJECT OR AN ENTER. THE ENTER IS THE ONLY ASTRONAUT RESPONSE THAT WILL COME BACK TO THE USER.
000312:
000313:                                                                                                  #                                                   CAF    V5XNYY          X=1,2,3,4   Y=NOUN
000314:                                                                                                  #                                                   TC     BANKCALL
000315:                                                                                                  #                                                   CADR   GOMARK1
000316:
000317:                                                                                                  #                                                   ...    ...             ENTER RETURN
000318:
000319:                                                                                                  #  *** IF BLANKING DESIRED ON NON R ROUTINES, NOTIFY DISPLAYER.
000320:
000321:                                                                                                  #  GOMARK1R IS THE SAME AS A GOMARK1 ONLY AN IMMEDIATE RETURN IS MADE TO THE USERS CALL CADR +2.
000322:                                                                                                  #                                                   CAF    V5XNYY          X=1,2,3,4    YY = NOUN
000323:                                                                                                  #                                                   TC     BANKCALL
000324:                                                                                                  #                                                   CADR   GOMARK1R
000325:
000326:                                                                                                  #                                                   ...    ...             ASTRONAUT ENTER RETURN
000327:                                                                                                  #                                                   ...    ...             IMMEDIATE RETURN TO USER
000328:
000329:                                                                                                  #  GOMARK2 IS THE SAME AS GOMARK1 ONLY 3 RETURNS ARE MADE TO THE USER FROM THE ASTRONAUT.
000330:                                                                                                  #                                                   CAF    V5XNYY          X=1,2,3,4   YY=NOUN
000331:                                                                                                  #                                                   TC     BANKCALL
000332:                                                                                                  #                                                   CADR   GOMARK2
000333:                                                                                                  #                                                   ...    ...             TERMINATE RETURN
000334:                                                                                                  #                                                   ...    ...             PROCEED RETURN
000335:                                                                                                  #                                                   ...    ...             ENTER RETURN
000336:                                                                                                  #  GOMARK2R IS THE SAME AS GOMARK1R ONLY 3 ASTRONAUT RETURNS ARE MADE TO THE USER.
000337:
000338:                                                                                                  #                                                   CAF    V5XNYY          X=0,1,2,3,4   YY=NOUN
000339:                                                                                                  #                                                   TC     BANKCALL
000340:                                                                                                  #                                                   CADR   GOMARK2R
000341:                                                                                                  #                                                   ...    ...             TERMINATE RETURN
000342:                                                                                                  #                                                   ...    ...             PROCEED RETURN
000343:                                                                                                  #                                                   ...    ...             ENTER RETURN
000344:
000345:                                                                                                  #                                                   ...    ...             IMMEDIATE RETURN TO THE USER
000346:
000347:                                                                                                  #  GOMARK3 IS USED FOR A PLEASE PERFORM ON A MARK REQUEST WITH A 3 COMP. DEC DISPLAY. THE DESIRED MARK PLEASE
000348:                                                                                                  #  PERFORM VERB AND NOUN ARE ENTERED IN A. GOMARK3 DISPLAYS R1, R2, R3 BY MEANS OF A V06NYY FOLLOWED BY A FLASHING
000349:                                                                                                  #  V5XNYY FOR A PLEASE PERFORM. GOMARK3 HAS 3 ASTRONAUT RETURNS TO THE USER WITH NO IMMEDIATE RETURN.
000350:
000351:                                                                                                  #                                                   CAF    V5XNYY          X=1, 2,3,4 YY=NOUN
000352:                                                                                                  #                                                   TC     BANKCALL
000353:                                                                                                  #                                                   CADR   GOMARK3
000354:                                                                                                  #                                                   ...    ...             TERMINATE RETURN
000355:                                                                                                  #                                                   ...    ...             PROCEED RETURN
000356:                                                                                                  #                                                   ...    ...             ENTER RETURN
000357:
000358:                                                                                                  #  GOMARK4 IS THE SAME AS GOMARK3 ONLY R2 AND R3 ARE BLANKED AND R1 IS DISPLAYED IN OCTAL.
000359:
000360:                                                                                                  #                                                   CAF    V5XNYY          X=1,2,3,4 YY=NOUN
000361:                                                                                                  #                                                   TC     BANKCALL
000362:                                                                                                  #                                                   CADR   GOMARK4
000363:                                                                                                  #                                                   ...    ...             TERMINATE RETURN
000364:                                                                                                  #                                                   ...    ...             PROCEED RETURN
000365:                                                                                                  #                                                   ...    ...             ENTER RETURN
000366:
000367:                                                                                                  #  EXDSPRET IS USED TO DISPLAY A VERB NOUN ARRIVING IN A WITH A RETURN MADE TO THE USER AFTER THE DISPLAY HAS BEEN
000368:                                                                                                  #  SENT OUT.
000369:                                                                                                  #                                                   CAF    VXXNYY
000370:                                                                                                  #                                                   TC     BANKCALL
000371:                                                                                                  #                                                   CADR   EXDSPRET
000372:
000373:                                                                                                  #                                                   ...    ...             RETURN TO USER
000374:
000375:                                                                                                  #  KLEENEX CLEANS OUT ALL MARK DISPLAYS (ACTIVE AND INACTIVE). A RETURN IS MADE TO THE USER AFTER THE MARK DISPLAYS
000376:                                                                                                  #  HAVE BEEN CLEANED OUT.
000377:
000378:                                                                                                  #                                                   TC     BANKCALL
000379:                                                                                                  #                                                   CADR   KLEENEX
000380:
000381:                                                                                                  #                                                   ...    ...             RETURN TO USER
000382:
000383:                                                                                                  #  MARKBRAN IS A SPECIAL PURPOSE ROUTINE USED FOR SAVING JOB VAC AREAS (SEE DESCRIPTION OF MARKBRAN BELOW).
000384:
000385:                                                                                                  #                                                   TC     BANKCALL
000386:                                                                                                  #                                                   CADR   MARKBRAN
000387:
000388:                                                                                                  #                                                   ...    ...             BAD RETURN IF MARK DISPLAY NOT ACTIVE
000389:
000390:                                                                                                  #                                                                          (GOOD RETURN TO IMMEDIATE RETURN LOC OF
000391:                                                                                                  #                                                                          LAST FLASHING MARK R ROUTINE)
000392:
000393:                                                                                                  #  PINBRNCH REESTABLISHES THE LAST ACTIVE FLASHING DISPLAY. IF THERE IS NO ACTIVE FLASHING DISPLAY, THE DSKY IS
000394:                                                                                                  #  BLANKED AND CONTROL IS SENT TO ENDOFJOB.
000395:
000396:                                                                                                  #                                                   TC     POSTJUMP
000397:                                                                                                  #                                                   CADR   PINBRNCH
000398:
000399:                                                                                                  #  PRIODSP IS USED AS A PRIORITY DISPLAY.  IT WILL DISPLAY A GOFLASH TYPE DISPLAY WITH THREE POSSIBLE RETURNS FROM
000400:                                                                                                  #  THE ASTRONAUT(SEE NO.7 ABOVE).
000401:
000402:                                                                                                  #       THE MAIN PURPOSE OF PRIODSP IS TO REPLACE THE PRESENT DISPLAY WITH A DISPLAY OF HIGHER PRIORITY AND TO
000403:                                                                                                  #  PROVIDE A MEANS FOR RESTORING THE OLD DISPLAY WHEN THE PRIORITY DISPLAY
000404:                                                                                                  #  IS RESPONDED TO BY THE ASTRONAUT.
000405:
000406:                                                                                                  #       THE FORMER DISPLAY IS RESTORED BY AN AUTOMATIC BRANCH TO WAKE UP THE DISPLAY THAT WAS INTERRUPTED BY THE
000407:                                                                                                  #  PRIO DISPLAY.
000408:
000409:                                                                                                  #                                                   CAF    VXXNYY          VXXNYY WILL BE A FLASHING VERB NOUN
000410:                                                                                                  #                                                   TC     BANKCALL
000411:                                                                                                  #                                                   CADR   PRIODSP
000412:                                                                                                  #                                                   ...    ...             TERMINATE RETURN
000413:                                                                                                  #                                                   ...    ...             PROCEED RETURN
000414:                                                                                                  #                                                   ...    ...             ENTER OR RECYCLE RETURN
000415:
000416:                                                                                                  #  PRIODSPR IS THE SAME AS PRIODSP ONLY AN IMMEDIATE RETURN IS MADE TO THE USERS CALL CADR +4.
000417:
000418:                                                                                                  #                                                   CAF    VXXNYY          VXXNYY WILL BE A FLASHING VERB NOUN
000419:                                                                                                  #                                                   TC     BANKCALL
000420:                                                                                                  #                                                   CADR   PRIODSPR
000421:                                                                                                  #                                                   ...    ...             TERMINATE RETURN
000422:                                                                                                  #                                                   ...    ...             PROCEED RETURN
000423:                                                                                                  #                                                   ...    ...             ENTER OR RECYCLE RETURN
000424:
000425:                                                                                                  #                                                   ...    ...             IMMEDIATE RETURN
000426:
000427:                                                                                                  #  PRIOLARM DOES A V05N09 PRIODSPR.
000428:                                                                                                  #  CLEANDSP CLEANS OUT ALL NORMAL DISPLAYS (ACTIVE AND INACTIVE). A RETURN IS MADE TO THE USER AFTER NORMAL
000429:                                                                                                  #  DISPLAYS ARE CLEANED OUT.
000430:                                                                                                  #                                                   TC     BANKCALL
000431:                                                                                                  #                                                   CADR   CLEANDSP
000432:
000433:                                                                                                  #                                                   ...    ...             RETURN TO USER
000434:
000435:
000436:                                                                                                  #  GENERAL INFORMATION
000437:                                                                                                  #  ------- -----------
000438:
000439:
000440:                                                                                                  #  ALARM OR ABORT EXIT MODES--
000441:
000442:                                                                                                  #                                          PRIOBORT TC     ABORT
000443:                                                                                                  #                                                   OCT    1502
000444:
000445:                                                                                                  #  PRIOBORT IS BRANCED TO WHEN (1)  A NORMAL DISPLAY IS REQUESTED AND  ANOTHER NORMAL DISPLAY IS ALREADY ACTIVE
000446:                                                                                                  #  (REFLASH AND REGODSP ARE EXCEPTIONS) OR (2) A PRIORITY DISPLAY IS REQUESTED WHEN ANOTHER PRIORITY DISPLAY IS
000447:                                                                                                  #  ALREADY ACTIVE (A PRIORITY WITH LINUS BIT14 IS AN EXCEPTION).
000448:
000449:
000450:                                                                                                  #  ERASABLE INITIALIZATION REQUIRED--
000451:
000452:                                                                                                  #       ACCOMPLISHED BY FRESH START- 1. FLAGWRD4 (USED EXCLUSIVELY BY DISPLAY INTERFACE ROUTINES)
000453:                                                                                                  #                                    2. NVSAVE = NORMAL VERB AND NOUN      REGISTER.
000454:                                                                                                  #                                    3. EBANKTEM = NORMAL INACTIVE FLAGWORD(ALSO CONTAINS NORMALS EBANK).
000455:
000456:
000457:                                                                                                  #                                    5. R1SAVE = MARKBRAN CONTROL WORD
000458:                                                                                                  #                                    4. RESTREG = PRIORITY 30 AND SUPERBANK 3.
000459:
000460:                                                                                                  #  OUTPUT --
000461:
000462:                                                                                                  #       NVWORD = PRIO VERB AND NOUN
000463:                                                                                                  #       NVWORD +1(MARKNV) = MARK VERB AND NOUN
000464:                                                                                                  #       NVWORD +2(NVSAVE) = NORMAL VERB AND NOUN
000465:
000466:                                                                                                  #       DSPFLG(EBANKSAV) = PRIO FLAGWORD (INCLUDING EBANK)
000467:                                                                                                  #       DSPFLG +1(MARKEBAN) = MARK FLAGWORD (INCLUDING EBANK)
000468:                                                                                                  #       DSPFLG +2(EBANKTEM) = NORMAL FLAGWORD (INCLUDIG EBANK)
000469:
000470:                                                                                                  #       CADRFLSH = PRIO USERS CALL CADR +1 LOCATION
000471:                                                                                                  #       CADRFLSH +1(MARKFLSH) = MARK USERS CALL CADR +1 LOCATION
000472:                                                                                                  #       CADRFLSH +2(TEMPFLSH) = NORMAL USERS CALL CADR +1 LOCATION
000473:
000474:                                                                                                  #       PRIOTIME = TIME EACH PRIO REQUEST FIRST SENT OUT
000475:                                                                                                  #       OPTION1 = DESIRED OPTION FROM GOPERF4
000476:                                                                                                  #       FLAGWRD4 = BIT INFO FOR CONTROL OF ALL DISPLAY ROUTINES
000477:                                                                                                  #       DSPTEM1 = R1 INFO FOR ASTRONAUT FROM PERFORM DISPLAYS(NORMAL)
000478:                                                                                                  #  SUBROUTINES USED-- NVSUB, FLAGUP, FLAGDOWN, ENDOFJOB, BLANKSUB, ABORT, JOBWAKE, JOBSLEEP, FINDVAC, PRIOCHNG,
000479:                                                                                                  #  JAMTERM, NVSUBUSY, FLASHON, ENDIDLE, CHANG1, BANKJUMP, MAKECADR, NOVAC,
000480:                                                                                                  #  DEBRIS-- (STORED INTO)
000481:
000482:                                                                                                  #       TEMPORARY TEMPORARIES- A, Q, L, MPAC +2, MPAC +3, MPAC +4, MPAC +5, MPAC +6, RUPTREG2, RUPTREG3, CYL,
000483:                                                                                                  #  EBANK, RUPTREG4, LOC, BANKSET, MODE, MPAC, MPAC +1                      4, FACEREG
000484:                                                                                                  #       ERASABES(SHARED AND USED WITH OTHER PROGRAMS) CADRSTOR, DSPLIST, LOC, DSPTEM1, OPTION1
000485:
000486:                                                                                                  #       ERASABLES(USED ONLY BY DISPLAY ROUTINES)- NVWORD,+1,+2, DSPFLG,+1,+2, CADRFLSH,+1,+2, PRIOTIME, FLAGWRD4,
000487:                                                                                                  #  R1SAVE, MARK2PAC,
000488:
000489:
000490:                                                                                                  #  DEBRIS-- (USED BUT NOT STORED INTO)- NOUNREG, VERBREG, LOCCTR, MONSAVE1
000491:                                                                                                  #  FLAGWORD DESCRIPTIONS--
000492:                                                                                                  #      FLAGWRD4- SEE DESCRIPTION UNDER LOG SECTION ERASABLE ASSIGNMENTS
000493:
000494:                                                                                                  #      DSPFLG, DSPFLG+1, DSPFLG +2-
000495:                                                                                                  #      ----------------------------
000496:                                                                                                  #  BITS 1 BLANK R1
000497:                                                                                                  #       2 BLANK R2
000498:                                                                                                  #       3 BLANK R3
000499:                                                                                                  #       4 FLASHING DISPLAY REQUESTED
000500:                                                                                                  #       5 PERFORM DISPLAY REQUESTED
000501:                                                                                                  #       6 -----            EXDSPRET           GODSPRET
000502:                                                                                                  #       7 PRIO DISPLAY     -----               -----
000503:                                                                                                  #       8 -----         DEC MARK PERFORM      -----
000504:                                                                                                  #       9 EBANK
000505:                                                                                                  #      10 EBANK
000506:                                                                                                  #      11 EBANK
000507:                                                                                                  #      12 -----           -----       V99PASTE
000508:                                                                                                  #      13 2ND PART OF PERFORM
000509:                                                                                                  #      15 REFLASH OR REDO  -----           REFLASH OR REDO
000510:                                                                                                  #      15 -----          MARK REQUEST          -----
000511:                                                                                                  #  RESTARTING DISPLAYS--
000512:
000513:                                                                                                  #  RULES FOR THE DSKY OPERATOR--
000514:
000515:                                                                                                  #       1. PROCEED AND TERMINATE SERVE AS RESPONSES TO REQUESTS FOR OPERATOR RESPONSE (FLASHING V/N).  AS LONG
000516:                                                                                                  #          AS THERE IS ANY REQUEST AWAITING OPERATOR RESPONSE, ANY USE OF PROCEED OR TERMINATE WILL SERVE AS
000517:                                                                                                  #          RESPONSES TO THAT REQUEST.  CARE SHOULD BE EXERCISED IN ATTEMPTING TO KILL AN OPERATOR INITIATED MONITOR
000518:                                                                                                  #          WITH PROCEED AND TERMINATE FOR THIS REASON.
000519:                                                                                                  #       2. THE ASTRONAUT MUST RESPOND TO A PRIORITY DISPLAY NO             SOONER THAN 2 SECONDS FROM THE TIME THE
000520:                                                                                                  #          PROGRAM SENT OUT THE REQUEST FOR OPERATOR RESPONSE (THE ASTRONAUT WOULD SEE THIS DISPLAY FOR LESS TIME
000521:                                                                                                  #          DUE TO TIME IT TAKES TO GET DISPLAY SENT OUT.) IF THE ASTRONAUT RESPONDS TOO SOON, THE PRIORITY DISPLAY
000522:                                                                                                  #           IS SENT OUT AGAIN -- AND AGAIN UNTIL AN ACCUMULATED 2 SECS     FROM THE TIME THE FIRST PRIORITY DISPLAY
000523:                                                                                                  #          OUT. THE SAME 2 SEC. DELAY WILL OCCUR AT 163.84 SECS OR IN ANY  MULTIPLE OF THAT TIME DUE TO PROGRAM
000524:                                                                                                  #          CONSIDERATION.
000525:                                                                                                  #       3. KEY RELEASE BUTTON-
000526:                                                                                                  #          A) IF THE KEY RELEASE LIGHT IS ON, IT SIMPLY RELEASES THE KEYBOARD AND DISPLAY FOR INTERNAL USE.
000527:                                                                                                  #          B) IF THE KEY RELEASE LIGHT IS OFF, AND IF SOME REQUEST FOR OPERATOR RESPONSE (FLASHING V/N) IS STILL
000528:                                                                                                  #             AWAITING RESPONSE  THEN IT RE-ESTABLISHES THE DISPLAYS THAT ORIGINALLY REQUESTED RESPONSE.
000529:                                                                                                  #          IF AN OPERATOR WANTS THEREFORE TO RE-ESTABLISH BUT CONDITION (A) IS ENCOUNTERED, A SECOND DEPRESSION OF
000530:                                                                                                  #          KEY RELEASE BUTTON MAY BE NECESSARY.
000531:                                                                                                  #       4. IT IS IMPORTANT TO ANSWER ALL REQUESTS FOR OPERATOR RESPONSE.
000532:                                                                                                  #       5. IT IS ALWAYS GOOD PRACTICE TO TERMINATE AN EXTENDED VERB BEFORE ASKING FOR ANOTHER ONE OR THE SAME ONE
000533:                                                                                                  #          OVER AGAIN.
000534:
000535:
000536:                                                                                                  #  SPECIAL CONSIDERATIONS--
000537:                                                                                                  #       1. MPAC +2  SAVED ONLY IN MARK DISPLAYS
000538:                                                                                                  #       2. GODSP(R),REGODSP(R),GOMARK(R) ALWAYS TURN ON THE FLASH IF ENTERED WITH A PASTE VERB REQUEST.
000539:                                                                                                  #       3. ALL NORMAL DISPLAYS ARE RESTARTABLE EXCEPT GODSP(R), REGODSP(R)
000540:                                                                                                  #       4. ALL EXTENDED VERBS WITH DISPLAYS SHOULD START WITH A TC TESTXACT AND FINISH WITH A TC ENDEXT.
000541:                                                                                                  #       5. GODSP(R) AND REGODSP(R) MUST BE IN THE SAME EBANK AND SUPERBANK AS THE LAST NORMAL DISPLAY RESTARTED
000542:                                                                                                  #          BY A .1 RESTART PHASE CHANGE.
000543:                                                                                                  #       6. IN ORDER TO SET UP A NON DISPLAY .1 RESTART POINT, THE USER MUST MAKE CERTAIN THAT RESTREG CONTAINS THE
000544:                                                                                                  #          CORRECT PRIORITY AND SUPERBANK AND THAT EBANKTEM CONTAINS THE CO
000545:                                                                                                  #       7. IF CLEANDSP IS RESTARTED VIA A .1 PHASE CHANGE, CAF ZERO SHOULD BE EXECUTED  BEFORE THE TC BANKCALL.
000546:
000547:                                                                                                  #  CALLING SEQUENCE FOR BLANKING
000548:                                                                                                  #                                                   CAF    BITX            X=1,2,3 BLANK R1,R2,R3 RESPECTIVELY
000549:                                                                                                  #                                                   TC     BLANKET
000550:                                                                                                  #                                                   ...    ...             RETURN TO USER HERE
000551:
000552:                                                                                                  #  IN ORDER TO USE BLANKET CORRECTLY THE USER MUST USE A DISPLAY ROUTINE THAT ENDS IN R FIRST FOLLOWED BY THE CALL
000553:                                                                                                  #  TO BLANKET AT THE IMMEDIATE RETURN LOC.
000554:
000555:    5553                                           BLOCK    02
000556:    4000                                           SETLOC   FFTAG4
000557:    4000                                           BANK
000558:
000559:    5553                                           COUNT*   $$/DSPLA
000560:    5553           54162        BLANKET            TS       MPAC       +6
000561:    5554           40160                           CS       PLAYTEM4
000562:    5555           70162                           MASK     MPAC       +6
000563:    5556           50161                           INDEX    MPAC       +5
000564:    5557           26160                           ADS      PLAYTEM4
000565:
000566:    5560           00002                           TC       Q
000567:
000568:    5561           04674        ENDMARK            TC       POSTJUMP
000569:    5562           20213                           CADR     MARKEND
000570:


000572:
000573:                                                                                                  #  ***ALL EXTENDED VERB ROUTINES THAT HAVE AT LEAST ONE FLASHING DISPLAY MUST TCF ENDMARK OR TCF ENDEXT WHEN
000574:                                                                                                  #  FINISHED.
000575:
000576: 10,2213                                           BANK     10
000577: 10,2000                                           SETLOC   DISPLAYS
000578: 10,2000                                           BANK
000579:
000580: 10,2213                                           COUNT*   $$/DSPLA
000581:                                                                                                  #  NTERONLY IS USED TO DIFFERENTIATE THE MARK ROUTINE WITH ONLY ONE RETURN TO THE USER FROM THE MARKING ROUTINE WIT
000582:                                                                                                  #  3 RETURNS TO THE USER. THIS ROUTINE IS ONLY USED BY GOMARK1 AND GOMARK1R.
000583:
000584: 10,2213           35030        MARKEND            CAF      ZERO
000585: 10,2214           55045                           TS       EXTVBACT
000586:
000587: 10,2215           00004                           INHINT
000588: 10,2216           45026                           CS       BIT1
000589: 10,2217           70100                           MASK     FLAGWRD4
000590: 10,2220           54100                           TS       FLAGWRD4
000591: 10,2221           13322                           TCF      MARKOVER
000592:
000593: 10,2222           54155        GOMARK             TS       PLAYTEM1                              #  ENTRANCE FOR MARK GODSP
000594: 10,2223           35010        GOMARS             CAF      BIT15                                 #  BIT15 SET FOR ALL MARK REQUESTS
000595: 10,2224           12410                           TCF      GOFLASH2
000596:
000597: 10,2225           35030        KLEENEX            CAF      ZERO                                  #  CLEAN OUT EXTENDED VERBS
000598: 10,2226           54155        GOMARKF            TS       PLAYTEM1                              #  ENTRANCE FOR MARK GOFLASH
000599:
000600: 10,2227           32727                           CAF      MARKFMSK                              #  MARK,FLASH
000601: 10,2230           12410                           TCF      GOFLASH2
000602:
000603: 10,2231           54155        GOMARK2            TS       PLAYTEM1                              #  MARK GOPERFS-3 AST. RETURNS
000604: 10,2232           33421        MARKFORM           CAF      MPERFMSK                              #  MARK, PERFORM, FLASH
000605: 10,2233           12410                           TCF      GOFLASH2
000606:
000607: 10,2234           54155        GOMARK3            TS       PLAYTEM1                              #  USED FOR 3COMP DECIMAL PERFORM
000608: 10,2235           33406                           CAF      MARK3MSK
000609: 10,2236           12410                           TCF      GOFLASH2
000610:
000611: 10,2237           54155        GOMARK4            TS       PLAYTEM1
000612: 10,2240           33407                           CAF      MARK4MSK                              #  MARK,PERFORM,FLASH,BLANK
000613: 10,2241           12410                           TCF      GOFLASH2
000614:
000615: 10,2242           54155        GOMARKR            TS       PLAYTEM1                              #  ENTR+NCE FOR MARK GODSPR
000616:
000617: 10,2243           35010                           CAF      BIT15
000618: 10,2244           12366                           TCF      GODSPR2
000619:
000620: 10,2245           54155        GOMARKFR           TS       PLAYTEM1                              #  ENTRANCE FOR MARK GOFLASHR
000621:
000622: 10,2246           32727                           CAF      MARKFMSK
000623: 10,2247           12546                           TCF      GODSPRS
000624:
000625: 10,2250           54155        GOMARK2R           TS       PLAYTEM1                              #  MARK GOPERFS-3 AST. RETS+ IMMEDIATE RET.
000626: 10,2251           33421                           CAF      MPERFMSK                              #  MARK, PERFORM, FLASH
000627: 10,2252           12546                           TCF      GODSPRS
000628:
000629: 10,2253           54155        GOMARK3R           TS       PLAYTEM1
000630: 10,2254           33406                           CAF      MARK3MSK
000631: 10,2255           12546                           TCF      GODSPRS
000632:
000633: 10,2256           35026        MAKEMARK           CAF      ONE
000634: 10,2257           02633                           TC       COPIES
000635:
000636: 10,2260           30100                           CA       FLAGWRD4                              #  IS NORM OR PRIO BUSY OR WAITING
000637: 10,2261           73422                           MASK     OCT34300
000638: 10,2262           10000                           CCS      A
000639: 10,2263           12342                           TCF      CHKPRIO
000640:
000641: 10,2264           30100                           CA       FLAGWRD4                              #  IS MARK SLEEPING DUE TO ASTRO BUSY
000642: 10,2265           75016                           MASK     MRKNVBIT
000643:
000644: 10,2266           00006                           EXTEND
000645: 10,2267           12313                           BZF      MARKPLAY                              #  NO
000646:
000647: 10,2270           15225                           TCF      ENDOFJOB
000648:
000649: 10,2271           30100        MARKBRAN           CA       FLAGWRD4
000650: 10,2272           73437                           MASK     OCT40420
000651: 10,2273           10000                           CCS      A
000652: 10,2274           12276                           TCF      +2
000653: 10,2275           00002                           TC       Q
000654:
000655: 10,2276           35026                           CAF      ONE
000656: 10,2277           54164                           TS       COPINDEX
000657:
000658: 10,2300           31022                           CA       MONSAVE1
000659: 10,2301           75011                           MASK     BIT14
000660: 10,2302           61013                           AD       DSPLOCK
000661: 10,2303           10000                           CCS      A
000662: 10,2304           13267                           TCF      IMMEDRET   -1
000663:
000664: 10,2305           30100                           CA       FLAGWRD4
000665: 10,2306           75022                           MASK     MRUPTBIT
000666: 10,2307           10000                           CCS      A
000667: 10,2310           13267                           TCF      IMMEDRET   -1
000668:
000669: 10,2311           35025                           CAF      TWO
000670: 10,2312           27074                           ADS      R1SAVE
000671:
000672: 10,2313           00004        MARKPLAY           INHINT
000673: 10,2314           45024                           CS       MKOVBIT                               #  RESET MARK OVER NORM
000674: 10,2315           70100                           MASK     FLAGWRD4
000675: 10,2316           54100                           TS       FLAGWRD4
000676: 10,2317           00003                           RELINT
000677:
000678: 10,2320           41071        GOGOMARK           CS       MARKFLAG                              #  PERFORM
000679: 10,2321           75022                           MASK     BIT5
000680: 10,2322           10000                           CCS      A
000681: 10,2323           12326                           TCF      MARKCOP
000682: 10,2324           40370                           CS       MARKNV
000683: 10,2325           54370                           TS       MARKNV
000684:
000685: 10,2326           35026        MARKCOP            CAF      ONE                                   #  MARK INDEX
000686: 10,2327           12525                           TCF      PRIOPLAY
000687:
000688: 10,2330           30165        COPYTOGO           CA       MPAC2SAV
000689: 10,2331           54156                           TS       MPAC       +2
000690:
000691: 10,2332           50164        COPYPACS           INDEX    COPINDEX
000692: 10,2333           33432                           CAF      PRIOOCT
000693: 10,2334           54162                           TS       GENMASK
000694:
000695: 10,2335           50164                           INDEX    COPINDEX
000696: 10,2336           31070                           CAF      EBANKSAV
000697: 10,2337           54160                           TS       TEMPOR2                               #  ACTIVE EBANK AND FLAG
000698:
000699: 10,2340           54003                           TS       EBANK
000700:
000701: 10,2341           00002                           TC       Q
000702:
000703:                                                                                                  #  PINCHEK CHECKS TO SEE IF THE CURRENT MARK REQUEST IS MADE BY THE ASTRONAUT WHILE INTERRUPTING A GOPLAY DISPLAY
000704:                                                                                                  #  (A NORMAL OR A PRIO). IF THE ASTRONAUT TRIES TO MARK DURING A PRIO, THE CHECK FAIL LIGHT GOES ON AND THE MARK
000705:                                                                                                  #  REQUEST IS ENDED. IF HE TRIES TO MARK DURING A NORM, THE MARK IS ALLOWED. IN THIS CASE THE NORM IS PUT TO SLEEP
000706:                                                                                                  #  UNTIL ALL MARKING IS FINISHED.
000707:
000708:                                                                                                  #       IF THE MARK REQUEST COMES FROM THE PROGRAM DURING A TIME THE ASTRONAUT IS NOT INTERRUPTING A NORMAL OR A
000709:                                                                                                  #  PRIO, THE MARK REQUEST IS PUT TO SLEEP UNTIL THE +RESENT ACTIVE DISPLAY IS RESPONDED TO BY THE ASTRONAUT.
000710:
000711: 10,2342           30100        CHKPRIO            CA       FLAGWRD4                              #  MARK ATTEMPT DURING PRIO
000712: 10,2343           73155                           MASK     OCT24100
000713: 10,2344           10000                           CCS      A
000714: 10,2345           13355                           TCF      MARSLEEP
000715:
000716: 10,2346           40100                           CS       FLAGWRD4
000717: 10,2347           75024                           MASK     MKOVBIT                               #  SET MARK OVER NORM
000718: 10,2350           00004                           INHINT
000719: 10,2351           26100                           ADS      FLAGWRD4
000720:
000721: 10,2352           12444                           TCF      SETNORM
000722:
000723: 10,2353           30370        MARKPERF           CA       MARKNV
000724: 10,2354           74156                           MASK     VERBMASK
000725: 10,2355           13016                           TCF      NV50DSP
000726:
000727: 10,2356           54155        GODSP              TS       PLAYTEM1
000728:
000729: 10,2357           35030        GODSP2             CAF      ZERO
000730: 10,2360           12410                           TCF      GOFLASH2
000731:
000732: 10,2361           54155        GODSPRET           TS       PLAYTEM1                              #  ENTRANCE FOR A GODSP WITH A PASTE
000733:
000734: 10,2362           35021                           CAF      BIT6                                  #  SET BIT6 TO GO BACK TO USER AFTER NVSUB
000735: 10,2363           12410                           TCF      GOFLASH2
000736:
000737: 10,2364           54155        GODSPR             TS       PLAYTEM1
000738:
000739: 10,2365           35030        GODSPR1            CAF      ZERO
000740: 10,2366           54160        GODSPR2            TS       PLAYTEM4
000741:
000742: 10,2367           35030                           CAF      ZERO                                  #  * DONT MOVE
000743: 10,2370           12550                           TCF      GODSPRS1
000744:
000745:                                                                                                  #       CLEANDSP IS USED FOR CLEARING OUT A NORMAL DISPLAY THAT IS PRESENTLY ACTIVE OR A NORMAL DISPLAY THAT IS
000746:                                                                                                  #  SET UP TO BE STARTED OR RESTARTED.
000747:
000748:                                                                                                  #       NORMALLY THE USER WILL NOT NEED TO USE THIS ROUTINE SINCE A NEW NORMAL DISPLAY AUTOMATICALLY CLEARS OUT AN
000749:                                                                                                  #  OLD DISPLAY.
000750:
000751:                                                                                                  #       CALLING SEQUENCE FOR CLEANDSP-
000752:
000753:                                                                                                  #                TC      BANKCALL
000754:                                                                                                  #                CADR    CLEANDSP
000755:
000756: 10,2371           35030        CLEANDSP           CAF      ZERO
000757: 10,2372           54155        REFLASH            TS       PLAYTEM1
000758:
000759: 10,2373           33405                           CAF      REDOMASK                              #  FLASH AND PERMIT
000760: 10,2374           12410                           TCF      GOFLASH2
000761:
000762: 10,2375           54155        REFLASHR           TS       PLAYTEM1
000763:
000764: 10,2376           33405                           CAF      REDOMASK                              #  FLASH AND PERMIT
000765: 10,2377           12546                           TCF      GODSPRS
000766:
000767: 10,2400           54155        REGODSP            TS       PLAYTEM1
000768:
000769: 10,2401           35011                           CAF      BIT14
000770: 10,2402           12410                           TCF      GOFLASH2
000771:
000772: 10,2403           54155        REGODSPR           TS       PLAYTEM1
000773:
000774: 10,2404           35011                           CAF      BIT14
000775: 10,2405           12366                           TCF      GODSPR2
000776:
000777: 10,2406           54155        GOFLASH            TS       PLAYTEM1
000778:
000779: 10,2407           35023                           CAF      BIT4                                  #  LEAVE ONLY FLASH BIT SET
000780: 10,2410           54160        GOFLASH2           TS       PLAYTEM4
000781:
000782: 10,2411           02620                           TC       SAVELOCS
000783:
000784: 10,2412           00003                           RELINT
000785:
000786: 10,2413           12456                           TCF      MAKEPLAY                              #  BRANCH DIRECT WITH NO SEPARATE JOB CALL
000787:
000788: 10,2414           54155        PRIODSPR           TS       PLAYTEM1
000789:
000790: 10,2415           33424                           CAF      BITS7+4
000791: 10,2416           12546                           TCF      GODSPRS
000792:
000793: 10,2417           54155        PRIODSP            TS       PLAYTEM1
000794:
000795: 10,2420           33424        SETPRIO            CAF      BITS7+4
000796: 10,2421           12410                           TCF      GOFLASH2
000797:
000798: 10,2422           35030        MAKEPRIO           CAF      ZERO
000799: 10,2423           54164                           TS       COPINDEX
000800:
000801: 10,2424           03275                           TC       LINUSCHR
000802: 10,2425           12432                           TCF      HIPRIO                                #  LINUS RETURN
000803: 10,2426           30100                           CA       FLAGWRD4
000804: 10,2427           73155                           MASK     OCT24100                              #  IS PRIO IN ENDIDLE OR BUSY
000805: 10,2430           10000                           CCS      A
000806: 10,2431           12510                           TCF      PRIOBORT                              #  YES, ABORT
000807:
000808: 10,2432           30100        HIPRIO             CA       FLAGWRD4                              #  MARK ACTIVE
000809: 10,2433           75721                           MASK     OCT40400
000810: 10,2434           00006                           EXTEND
000811: 10,2435           12440                           BZF      ASKIFNRM                              #  NO
000812:
000813: 10,2436           35030        SETMARK            CAF      ZERO
000814: 10,2437           12672                           TCF      JOBXCHS
000815:
000816: 10,2440           30100        ASKIFNRM           CA       FLAGWRD4                              #  NORMAL ACTIVE
000817: 10,2441           73441                           MASK     OCT10200                              #  BITS 13+8
000818: 10,2442           00006                           EXTEND
000819: 10,2443           12446                           BZF      OKTOCOPY                              #  NO
000820:
000821: 10,2444           35026        SETNORM            CAF      ONE
000822: 10,2445           12672                           TCF      JOBXCHS
000823:
000824: 10,2446           02632        OKTOCOPY           TC       COPYNORM
000825: 10,2447           03106                           TC       WITCHONE
000826:
000827: 10,2450           05207                           TC       JOBWAKE
000828:
000829: 10,2451           03123                           TC       XCHTOEND
000830:
000831: 10,2452           30025        REDOPRIO           CA       TIME1                                 #  SAVE TIME PRIODSP SENT OUT
000832: 10,2453           55177                           TS       PRIOTIME
000833:
000834: 10,2454           35030        KEEPPRIO           CAF      ZERO                                  #  START UP PRIO DISPLAY
000835: 10,2455           12525                           TCF      PRIOPLAY
000836:
000837: 10,2456           30167        MAKEPLAY           CA       PRIORITY                              #  SAVE USERS PRIORITY
000838: 10,2457           77677                           MASK     PRIO37
000839: 10,2460           54163                           TS       USERPRIO
000840: 10,2461           00006                           EXTEND
000841: 10,2462           04007                           ROR      SUPERBNK
000842: 10,2463           54366                           TS       RESTREG
000843:
000844: 10,2464           37673                           CAF      PRIO33                                #  RAISE PRIORITY FOR FAST JOBS AFTER WAKE
000845: 10,2465           05216                           TC       PRIOCHNG
000846:
000847: 10,2466           30160                           CA       PLAYTEM4                              #  IS IT MARK OR PRIO OR NORM
000848: 10,2467           73423                           MASK     BITS15+7
000849: 10,2470           10000                           CCS      A
000850: 10,2471           12422                           TCF      MAKEPRIO                              #  ITS PRIO
000851: 10,2472           12474                           TCF      IFLEGAL
000852: 10,2473           12256                           TCF      MAKEMARK                              #  ITS MARK
000853:
000854: 10,2474           35025        IFLEGAL            CAF      TWO
000855: 10,2475           54164                           TS       COPINDEX
000856:
000857: 10,2476           03275                           TC       LINUSCHR
000858:
000859: 10,2477           12512                           TCF      OKTOPLAY                              #  LINUS RETURN
000860: 10,2500           41072                           CS       EBANKTEM
000861: 10,2501           75023                           MASK     BIT4
000862: 10,2502           10000                           CCS      A
000863: 10,2503           12512                           TCF      OKTOPLAY                              #  NO
000864:
000865: 10,2504           30100                           CA       FLAGWRD4                              #  WAS NORM ASLEEP
000866: 10,2505           73414                           MASK     NBUSMASK                              #  ARE ANY NORMS ASLEEP
000867: 10,2506           00006                           EXTEND
000868: 10,2507           12512                           BZF      OKTOPLAY                              #  NO
000869:
000870: 10,2510           05713        PRIOBORT           TC       ABORT
000871: 10,2511           01502                           OCT      1502
000872:
000873: 10,2512           02634        OKTOPLAY           TC       COPIES2
000874:
000875: 10,2513           30100                           CA       FLAGWRD4                              #  PRIO OR MARK GOING
000876: 10,2514           73415                           MASK     PMMASK
000877: 10,2515           10000                           CCS      A
000878: 10,2516           12652                           TCF      GOSLEEPS                              #  YES
000879:
000880: 10,2517           12521                           TCF      +2
000881: 10,2520           12652                           TCF      GOSLEEPS                              #  MARK GOING
000882:
000883:                                                                                                  #  COULD PUT NORM BUSY CHECK HERE TO SAVE TIME
000884: 10,2521           03106                           TC       WITCHONE                              #  IS IT NVSUB BUSY, ENDIDLE OR NOONE
000885: 10,2522           05207                           TC       JOBWAKE
000886:
000887: 10,2523           03123                           TC       XCHTOEND
000888:
000889: 10,2524           35025        PLAYJUM1           CAF      TWO
000890: 10,2525           54164        PRIOPLAY           TS       COPINDEX
000891:
000892: 10,2526           12766                           TCF      GOPLAY
000893:
000894: 10,2527           54155        EXDSPRET           TS       PLAYTEM1
000895:
000896: 10,2530           37706                           CAF      BIT15+6
000897: 10,2531           12410                           TCF      GOFLASH2
000898:
000899: 10,2532           55046        GOPERF1            TS       NORMTEM1                              #  STORE DESIRED CHECKLIST VALUE
000900: 10,2533           33377                           CAF      V01N25                                #  USED TO DISPLAY CHECKLIST VALUE IN R1
000901:
000902: 10,2534           54155        GOPERFS            TS       PLAYTEM1
000903:
000904: 10,2535           33376                           CAF      PERFMASK                              #  LEAVE ONLY FLASH, PERFORM, BLANKING
000905: 10,2536           12410                           TCF      GOFLASH2
000906:
000907: 10,2537           54155        GOPERF2            TS       PLAYTEM1                              #  DESIRED VERB-NOUN TO DISPLAY R1,R2,R3
000908:
000909: 10,2540           33402                           CAF      PERF2MSK
000910: 10,2541           12410                           TCF      GOFLASH2
000911:
000912: 10,2542           02613        GOPERF4            TC       PURRS4
000913:
000914: 10,2543           12410                           TCF      GOFLASH2
000915:
000916: 10,2544           54155        GOFLASHR           TS       PLAYTEM1
000917:
000918: 10,2545           35023                           CAF      BIT4                                  #  LEAVE ONLY FLASH BIT SET
000919: 10,2546           54160        GODSPRS            TS       PLAYTEM4
000920:
000921: 10,2547           36221                           CAF      THREE
000922:
000923: 10,2550           00004        GODSPRS1           INHINT                                         #  IMMEDIATE RETURN IS CALL CADR +4
000924: 10,2551           54072                           TS       RUPTREG3
000925:
000926: 10,2552           30167                           CA       PRIORITY                              #  MAKE DISPLAY ONE HIGHER THAN USER
000927: 10,2553           77677                           MASK     PRIO37
000928: 10,2554           54063                           TS       NEWPRIO
000929:
000930: 10,2555           30006                           CA       BBANK
000931: 10,2556           00006                           EXTEND
000932: 10,2557           04007                           ROR      SUPERBNK
000933: 10,2560           54001                           TS       L
000934: 10,2561           33440                           CAF      MAKEGEN
000935: 10,2562           05166                           TC       SPVAC
000936:
000937: 10,2563           02620                           TC       SAVELOCS                              #  COPY TEMPS INTO PERMANENT REGISTERS
000938:
000939: 10,2564           00006                           EXTEND                                         #  SAVE NVWORD AND USERS MPAC +2
000940: 10,2565           30156                           DCA      MPAC       +1
000941: 10,2566           50064                           INDEX    LOCCTR
000942: 10,2567           52156                           DXCH     MPAC       +1
000943:
000944: 10,2570           00006                           EXTEND                                         #  SAVE USERS CADR, FLAGS AND EBANK
000945: 10,2571           30160                           DCA      MPAC       +3
000946: 10,2572           50064                           INDEX    LOCCTR
000947: 10,2573           52160                           DXCH     MPAC       +3
000948:
000949: 10,2574           30064                           CA       LOCCTR
000950: 10,2575           54161                           TS       MPAC       +5
000951:
000952: 10,2576           02625                           TC       SAVELOCR
000953: 10,2577           00003                           RELINT
000954:
000955: 10,2600           14677                           TCF      BANKJUMP                              #  CALL CADR +4
000956:
000957: 10,2601           55046        GOPERF1R           TS       NORMTEM1                              #  DESIRED CHECKLIST VALUE
000958:
000959: 10,2602           33377                           CAF      V01N25                                #  DISPLAYS CHECKLIST VALUE IN R1
000960:
000961: 10,2603           54155        GOPERFRS           TS       PLAYTEM1
000962:
000963: 10,2604           33376                           CAF      PERFMASK                              #  LEAVE ONLY FLASH, PERFORM, BLANKING
000964: 10,2605           12546                           TCF      GODSPRS
000965:
000966: 10,2606           54155        GOPERF2R           TS       PLAYTEM1                              #  DESIRED VERB-NOUN TO DISPLAY R1,R2,R3
000967:
000968: 10,2607           33402                           CAF      PERF2MSK
000969: 10,2610           12546                           TCF      GODSPRS
000970:
000971: 10,2611           02613        GOPERF4R           TC       PURRS4
000972:
000973: 10,2612           12546                           TCF      GODSPRS
000974:
000975: 10,2613           55155        PURRS4             TS       OPTION1                               #  DESIRED OPTION CODE
000976:
000977: 10,2614           33403                           CAF      V04N06
000978: 10,2615           54155                           TS       PLAYTEM1
000979:
000980: 10,2616           33404                           CAF      PERF4MSK                              #  FLASH,PERFORM AND BLANK R3
000981: 10,2617           00002                           TC       Q
000982:
000983: 10,2620           00004        SAVELOCS           INHINT
000984:
000985: 10,2621           43413                           CS       OCT3400                               #  EBANK BITS
000986: 10,2622           70160                           MASK     PLAYTEM4
000987: 10,2623           60003                           AD       EBANK
000988: 10,2624           54160                           TS       PLAYTEM4
000989:
000990: 10,2625           22002        SAVELOCR           LXCH     Q
000991:
000992: 10,2626           04704                           TC       MAKECADR
000993: 10,2627           54157                           TS       PLAYTEM3
000994:
000995: 10,2630           60072                           AD       RUPTREG3                              #  NOT USED FOR NON R ROUTINES
000996: 10,2631           00001                           TC       L
000997:
000998: 10,2632           35030        COPYNORM           CAF      ZERO
000999: 10,2633           54164        COPIES             TS       COPINDEX
001000: 10,2634           00004        COPIES2            INHINT
001001: 10,2635           30160                           CA       PLAYTEM4                              #  FLAGWORD
001002: 10,2636           50164                           INDEX    COPINDEX
001003: 10,2637           55070                           TS       EBANKSAV                              #  EQUIV TO DSPFLG
001004:
001005: 10,2640           73431                           MASK     CADRMASK                              #  FLASH AND GODSPRET
001006: 10,2641           00006                           EXTEND
001007: 10,2642           12646                           BZF      SKIPADD
001008:
001009: 10,2643           30157                           CA       PLAYTEM3
001010: 10,2644           50164                           INDEX    COPINDEX
001011: 10,2645           54372                           TS       CADRFLSH
001012:
001013: 10,2646           30155        SKIPADD            CA       PLAYTEM1                              #  VERB NOUN
001014: 10,2647           50164                           INDEX    COPINDEX
001015: 10,2650           54367                           TS       NVWORD
001016:
001017: 10,2651           13132                           TCF      RELINTQ
001018:
001019: 10,2652           50164        GOSLEEPS           INDEX    COPINDEX
001020: 10,2653           33432                           CA       PRIOOCT
001021: 10,2654           72656                           MASK     WAITMASK
001022: 10,2655           07724                           TC       UPENT2
001023: 10,2656           03004        WAITMASK           OCT      3004
001024: 10,2657           45026                           CS       ONE
001025: 10,2660           60164                           AD       COPINDEX
001026: 10,2661           54154                           TS       FACEREG
001027:
001028: 10,2662           50154        XCHSLEEP           INDEX    FACEREG
001029: 10,2663           33411                           CAF      WAKECADR
001030: 10,2664           00004                           INHINT
001031: 10,2665           05207                           TC       JOBWAKE                               #  FIND CADR IN JOB AREA
001032:
001033: 10,2666           03123                           TC       XCHTOEND                              #  CAUSES AWAKENED JOB TO GO TO ENDOFJOB
001034:
001035: 10,2667           50154                           INDEX    FACEREG                               #  REPLACE SAME CADR BUT NEW JOB AREA
001036: 10,2670           33411                           CAF      WAKECADR
001037: 10,2671           15203                           TCF      JOBSLEEP
001038:
001039: 10,2672           54154        JOBXCHS            TS       FACEREG                               #  CONTROLS TYPE OF DISPLAY PUT TO SLEEP
001040: 10,2673           03106                           TC       WITCHONE
001041: 10,2674           05207                           TC       JOBWAKE
001042: 10,2675           30154                           CA       FACEREG
001043: 10,2676           50064                           INDEX    LOCCTR
001044: 10,2677           54154                           TS       FACEREG
001045:
001046: 10,2700           32713                           CAF      XCHQADD
001047: 10,2701           03124                           TC       XCHNYLOC
001048:
001049: 10,2702           50154                           INDEX    FACEREG
001050: 10,2703           33433                           CA       MARKOCT
001051: 10,2704           73435                           MASK     IDLESLEP
001052: 10,2705           07744                           TC       DOWNENT2
001053: 10,2706           74004        IDLEMASK           OCT      74004                                 #  * DONT MOVE
001054:
001055: 10,2707           50154                           INDEX    FACEREG                               #  BIT SHOWS PRIO INTERRUPTED NORM OR MARK
001056: 10,2710           35022                           CA       BIT5                                  #  BIT5 FOR MARK, BIT4 FOR NORMAL
001057: 10,2711           65024                           AD       FOUR
001058: 10,2712           07724                           TC       UPENT2                                #  FLAG ROUTINE DOES RELINT
001059: 10,2713           02662        XCHQADD            GENADR   XCHSLEEP                              #  * DONT MOVE
001060: 10,2714           30100                           CA       FLAGWRD4
001061: 10,2715           75024                           MASK     MKOVBIT                               #  MARK OVER NORM ?
001062: 10,2716           10000                           CCS      A
001063: 10,2717           02313        GENMARK            TC       MARKPLAY                              #  USED AS GENADR FOR JOBWAKE
001064: 10,2720           12446                           TCF      OKTOCOPY
001065:
001066: 10,2721           35030        MARKWAKE           CAF      ZERO
001067: 10,2722           54160        WAKEPLAY           TS       TEMPOR2
001068:
001069: 10,2723           50160                           INDEX    TEMPOR2
001070: 10,2724           33425                           CA       BITS5+11
001071: 10,2725           65024                           AD       FOUR
001072: 10,2726           07744                           TC       DOWNENT2
001073: 10,2727           40010        MARKFMSK           OCT      40010                                 #  ***DONT MOVE
001074:
001075: 10,2730           50160                           INDEX    TEMPOR2
001076: 10,2731           33411                           CAF      WAKECADR
001077: 10,2732           00004                           INHINT
001078: 10,2733           05207                           TC       JOBWAKE
001079:
001080: 10,2734           13236                           TCF      ENDRET
001081:
001082:                                                                                                  #       ALL .1 RESTARTS BRANCH DIRECTLY TO INITDSP. NORMAL DISPLAYS ARE THEONLY DISPLAYS ALLOWED TO USE .1 RESTARTS
001083:                                                                                                  #  INITDSP FIRST RESTORES THE EBANK AND THE SUPERBANK TO THE MOST RECENT NORMAL EBANK AND SUPERBANK.
001084:                                                                                                  #       IF THE MOST RECENT NORMAL DISPLAY REQUEST WAS NOT FINISHED, CONTROLIS SENT BACK TO THE LAST NORMAL USER.
001085:                                                                                                  #  OTHERWISE THE NORMAL DISPLAY SET UP IN THE NORMAL DISPLAY REGS IS STARTED UP IMMEDIATELY.
001086:
001087: 10,2735           31072        INITDSP            CA       EBANKTEM                              #  RESTORE MOST RECECT NORMAL EBANK
001088: 10,2736           54003                           TS       EBANK
001089:
001090: 10,2737           30366                           CA       RESTREG                               #  SUPERBANK AND JOB PRIORITY


001092: 10,2740           77677                           MASK     PRIO37
001093: 10,2741           05002                           TC       SUPERSW                               #  RESTORE SUPERBANK
001094: 10,2742           05216                           TC       PRIOCHNG
001095:
001096: 10,2743           46221                           CS       THREE
001097: 10,2744           60374                           AD       TEMPFLSH
001098: 10,2745           14677                           TCF      BANKJUMP
001099:
001100: 10,2746           00003        PINBRNCH           RELINT                                         #  FOR GOPIN USERS
001101: 10,2747           31073                           CA       MARK2PAC                              #  NEEDED TO SAVE MPAC +2 FOR MARK USERS
001102: 10,2750           54156                           TS       MPAC       +2                         #  ONLY
001103:
001104: 10,2751           30100                           CA       FLAGWRD4                              #  PINBRANCH CONDITION
001105: 10,2752           77711                           MASK     PINMASK
001106: 10,2753           10000                           CCS      A
001107: 10,2754           12757                           TCF      +3
001108: 10,2755           13372                           TCF      ERASER                                #  ** NOTHING IN ENDIDLE
001109: 10,2756           12313                           TCF      MARKPLAY
001110:
001111: 10,2757           05563        NORMBNCH           TC       UPFLAG                                #  SET PINBRANCH BIT
001112: 10,2760           00105                           ADRES    PINBRFLG
001113:
001114: 10,2761           35011                           CAF      PRIODBIT                              #  PRIO INTERRUPTED
001115: 10,2762           70100                           MASK     FLAGWRD4
001116: 10,2763           10000                           CCS      A
001117: 10,2764           12454                           TCF      KEEPPRIO
001118:
001119: 10,2765           12524                           TCF      PLAYJUM1
001120:
001121: 10,2766           02332        NVDSP              TC       COPYPACS
001122:
001123: 10,2767           30160                           CA       TEMPOR2                               #  SET UP BLANK BITS FOR NVMONOPT IN CASE
001124: 10,2770           75032                           MASK     SEVEN                                 #  USER REQUESTS BLANKING MONITOR
001125: 10,2771           54001                           TS       L
001126:
001127: 10,2772           45012                           CS       BIT13
001128: 10,2773           50164                           INDEX    COPINDEX
001129: 10,2774           71070                           MASK     DSPFLG
001130: 10,2775           50164                           INDEX    COPINDEX
001131: 10,2776           55070                           TS       DSPFLG
001132:
001133: 10,2777           75017                           MASK     BIT8                                  #  BIT8 SET IF DEC MARK PERFORM DISPLAY
001134: 10,3000           54141                           TS       TEM1
001135:
001136: 10,3001           30156                           CA       MPAC       +2
001137: 10,3002           54165                           TS       MPAC2SAV
001138:
001139: 10,3003           55073                           TS       MARK2PAC                              #  * FOR DISK ONLY *
001140: 10,3004           50164                           INDEX    COPINDEX
001141: 10,3005           10367                           CCS      NVWORD
001142: 10,3006           13015                           TCF      NVDSP1
001143: 10,3007           13134                           TCF      CLEANEND
001144: 10,3010           40370                           CS       MARKNV
001145: 10,3011           54370                           TS       MARKNV                                #  IN CASE MARKPLAY AWAKENED AFTER SLEEPING
001146: 10,3012           76050                           MASK     LOW7
001147: 10,3013           63416                           AD       V05N00M1
001148: 10,3014           60141                           AD       TEM1
001149: 10,3015           65026        NVDSP1             AD       ONE
001150: 10,3016           04167        NV50DSP            TC       NVMONOPT
001151: 10,3017           13146                           TCF      REST                                  #  IF BUSY
001152: 10,3020           04445                           TC       FLASHOFF                              #  IN CASE OF EXTENDED VERB NON FLASH
001153:
001154: 10,3021           02330                           TC       COPYTOGO                              #  MPACS DESTROYED BY NVSUB
001155: 10,3022           05575                           TC       DOWNFLAG                              #  UNSET SLEEPING BITS
001156: 10,3023           00102                           ADRES    MRKNVFLG
001157: 10,3024           05575                           TC       DOWNFLAG
001158: 10,3025           00103                           ADRES    NRMNVFLG
001159: 10,3026           05575                           TC       DOWNFLAG
001160: 10,3027           00104                           ADRES    PRONVFLG
001161: 10,3030           30160        BLANKCHK           CA       TEMPOR2                               #  BLANK BITS 1,2,3 IF SET
001162: 10,3031           04267                           TC       BLANKSUB
001163: 10,3032           12766                           TCF      NVDSP
001164: 10,3033           35022        PERFCHEK           CAF      BIT5                                  #  BIT5 FOR PERFORM
001165: 10,3034           70160                           MASK     TEMPOR2
001166: 10,3035           10000                           CCS      A                                     #  IS THIS A GOPERF DISPLAY
001167: 10,3036           13065                           TCF      1STOR2ND                              #  YES
001168:
001169: 10,3037           35023        GOANIDLE           CAF      BIT4
001170: 10,3040           70160                           MASK     TEMPOR2
001171: 10,3041           10000                           CCS      A
001172: 10,3042           13161                           TCF      FLASHSUB                              #  IT IS
001173:
001174: 10,3043           40160                           CS       TEMPOR2                               #  IS THIS A GODSPRET
001175: 10,3044           75021                           MASK     BIT6
001176: 10,3045           10000                           CCS      A
001177: 10,3046           13057                           TCF      ISITN00
001178:
001179: 10,3047           30164                           CA       COPINDEX
001180: 10,3050           54157                           TS       PLAYTEM3
001181: 10,3051           30163                           CA       USERPRIO
001182: 10,3052           77677                           MASK     PRIO37
001183: 10,3053           05216                           TC       PRIOCHNG
001184:
001185: 10,3054           50157                           INDEX    PLAYTEM3
001186: 10,3055           30372                           CA       CADRFLSH
001187: 10,3056           14677                           TCF      BANKJUMP
001188:
001189: 10,3057           50164        ISITN00            INDEX    COPINDEX                              #  IS THIS A PASTE
001190: 10,3060           30367                           CA       NVWORD
001191: 10,3061           76050                           MASK     LOW7                                  #  CHECK MADE FOR PINBRNCH AND PRIO ON MARK
001192: 10,3062           00006                           EXTEND
001193: 10,3063           13161                           BZF      FLASHSUB                              #  YES, ASSUME PASTE ALWAYS ON FLASH
001194:
001195: 10,3064           15225                           TCF      ENDOFJOB                              #  NOT FLASH, NOT GOPERF, THERFORE EXIT
001196:
001197: 10,3065           30160        1STOR2ND           CA       TEMPOR2
001198: 10,3066           75012                           MASK     BIT13
001199: 10,3067           10000                           CCS      A
001200: 10,3070           13037                           TCF      GOANIDLE                              #  SECOND
001201:
001202: 10,3071           35012                           CA       BIT13
001203: 10,3072           50164                           INDEX    COPINDEX
001204: 10,3073           27070                           ADS      DSPFLG
001205:
001206: 10,3074           22007                           ZL
001207: 10,3075           00006                           EXTEND                                         #  IS IT MARK
001208: 10,3076           62353                           BZMF     MARKPERF                              #  YES
001209:
001210: 10,3077           75013                           MASK     BIT12
001211: 10,3100           00006                           EXTEND
001212: 10,3101           13104                           BZF      V50PASTE
001213: 10,3102           33442                           CAF      V99N00
001214: 10,3103           13016                           TCF      NV50DSP
001215: 10,3104           33401        V50PASTE           CAF      V50N00
001216: 10,3105           13016                           TCF      NV50DSP                               #  DISPLAY SECOND PART OF GOPERF
001217:
001218: 10,3106           45022        WITCHONE           CS       BIT5                                  #  TURN OFF KEY RELEASE LIGHT
001219: 10,3107           00006                           EXTEND
001220: 10,3110           03011                           WAND     DSALMOUT
001221:
001222: 10,3111           30100                           CA       FLAGWRD4
001223: 10,3112           73417                           MASK     NVBUSMSK                              #  IS IT NVSUB ASLEEP
001224: 10,3113           10000                           CCS      A
001225: 10,3114           35026                           CAF      ONE
001226: 10,3115           54001                           TS       L
001227: 10,3116           35030                           CAF      ZERO
001228: 10,3117           50001                           INDEX    L
001229: 10,3120           57043                           XCH      CADRSTOR
001230:
001231: 10,3121           00004                           INHINT
001232: 10,3122           00002                           TC       Q
001233:
001234: 10,3123           34231        XCHTOEND           CAF      ENDINST                               #  TC ENDOFJOB REPLACES GENADR IN LOC FOR
001235: 10,3124           56064        XCHNYLOC           XCH      LOCCTR                                #  WAS THIS ADDRESS SLEEPING
001236: 10,3125           00006                           EXTEND
001237: 10,3126           63132                           BZMF     RELINTQ                               #  NO
001238: 10,3127           56064                           XCH      LOCCTR                                #  YES
001239: 10,3130           50064                           INDEX    LOCCTR
001240: 10,3131           54164                           TS       LOC
001241:
001242: 10,3132           00003        RELINTQ            RELINT
001243: 10,3133           00002                           TC       Q                                     #  BACK TO USER
001244:
001245: 10,3134           37672        CLEANEND           CAF      PRIO32                                #  ONE LOWER THAN DISPLAYS SLEEPING
001246: 10,3135           05155                           TC       FINDVAC
001247: 10,3136     0371                                  EBANK=   NVSAVE
001248: 10,3136           04243 04060                     2CADR    JAMTERM
001249:
001250:
001251: 10,3140           13162                           TCF      FLASHSUB   +1
001252:
001253: 10,3141           30100        ISITPRIO           CA       FLAGWRD4
001254: 10,3142           73167                           MASK     ITISMASK                              #  IS PINBRFLG, MARKIDFLG SET
001255: 10,3143           00006                           EXTEND
001256: 10,3144           12510                           BZF      PRIOBORT
001257: 10,3145           15225                           TCF      ENDOFJOB
001258:
001259: 10,3146           11043        REST               CCS      CADRSTOR                              #  IS SOMEONE IN ENDIDLE
001260: 10,3147           15225                           TCF      ENDOFJOB                              #  YES
001261: 10,3150           13152                           TCF      RESTSLEP
001262:
001263: 10,3151           15225                           TCF      ENDOFJOB
001264:
001265: 10,3152           30162        RESTSLEP           CA       GENMASK                               #  SET NVSLEEP BITS
001266: 10,3153           73420                           MASK     ASTROMSK
001267: 10,3154           07724                           TC       UPENT2
001268: 10,3155           24100        OCT24100           OCT      24100                                 #  *** DONT MOVE
001269:
001270: 10,3156           50164                           INDEX    COPINDEX
001271: 10,3157           33410                           CAF      NVCADR
001272: 10,3160           04454                           TC       NVSUBUSY                              #  BUSY OR ABORT IF ILLEGAL
001273:
001274: 10,3161           04441        FLASHSUB           TC       FLASHON
001275:
001276: 10,3162           30164                           CA       COPINDEX                              #  COPINDEX DESTROYED BY ENDIDLE
001277: 10,3163           54157                           TS       COPMPAC
001278:
001279: 10,3164           30162                           CA       GENMASK
001280: 10,3165           72706                           MASK     IDLEMASK
001281: 10,3166           07724                           TC       UPENT2
001282: 10,3167           40040        ITISMASK           OCT      40040                                 #  *** ENDIDLE ALLOW *** DONT MOVE
001283:
001284: 10,3170           31074                           CA       R1SAVE                                #  IS THIS A REPEAT AND RETURN DISPLAY
001285: 10,3171           50164                           INDEX    COPINDEX
001286: 10,3172           75024                           MASK     BIT3
001287: 10,3173           10000                           CCS      A
001288: 10,3174           13261                           TCF      UNSETR1                               #  YES
001289:
001290: 10,3175           11043                           CCS      CADRSTOR                              #  SEE IF SOMEONE ALREADY IN ENDIDLE
001291: 10,3176           13141                           TCF      ISITPRIO
001292: 10,3177           13201                           TCF      +2
001293: 10,3200           13141                           TCF      ISITPRIO
001294:
001295: 10,3201           04221                           TC       ENDIDLE
001296: 10,3202           13273        IDLERET1           TCF      TERMATE
001297:
001298: 10,3203           13312                           TCF      PROCEED                               #  ENDIDLE RETURNS HERE ON PROCEED
001299:
001300: 10,3204           43427                           CS       LOWLOAD
001301: 10,3205           60154                           AD       MPAC                                  #  VERBREG
001302: 10,3206           00006                           EXTEND
001303: 10,3207           26000                           DIM      A
001304: 10,3210           00006                           EXTEND
001305: 10,3211           13362                           BZF      LOADITIS                              #  V21 OR V22 OR V23 ON DSKY
001306: 10,3212           35025        OKTOENT            CAF      TWO
001307: 10,3213           54161        ENDOUT             TS       OUTHERE
001308:
001309: 10,3214           30100                           CA       FLAGWRD4                              #  CHECK NATURE OF ENDIDLE RETURN
001310: 10,3215           74105                           MASK     OCT60000
001311: 10,3216           10000                           CCS      A
001312: 10,3217           13222                           TCF      TIMECHEK                              #  PRIO ENDIDLE RETURN
001313: 10,3220           13330                           TCF      NORMRET                               #  NORMAL ENDIDLE RETURN
001314: 10,3221           13314                           TCF      MARKRET                               #  MARK ENDIDLE RETURN
001315:
001316: 10,3222           40025        TIMECHEK           CS       TIME1
001317: 10,3223           61177                           AD       PRIOTIME
001318: 10,3224           10000                           CCS      A
001319: 10,3225           40000                           COM
001320: 10,3226           67703                           AD       OCT37776
001321: 10,3227           65026                           AD       ONE
001322: 10,3230           63451                           AD       -5SEC
001323: 10,3231           00006                           EXTEND
001324: 10,3232           62454                           BZMF     KEEPPRIO
001325:
001326: 10,3233           13330                           TCF      NORMRET
001327:
001328: 10,3234           35026        NORMWAKE           CAF      ONE
001329: 10,3235           12722                           TCF      WAKEPLAY
001330:
001331: 10,3236           10161        ENDRET             CCS      OUTHERE
001332: 10,3237           65026                           AD       ONE
001333: 10,3240           13242                           TCF      +2                                    #  NORMAL ENDIDLE EXIT
001334: 10,3241           15225                           TCF      ENDOFJOB
001335: 10,3242           50157                           INDEX    COPMPAC
001336: 10,3243           60372                           AD       CADRFLSH
001337: 10,3244           54157                           TS       MPAC       +3
001338:
001339: 10,3245           30162                           CA       GENMASK                               #  REMOVE ENDIDLE AND PINBRANCH BITS
001340: 10,3246           73250                           MASK     PINIDMSK
001341: 10,3247           07744                           TC       DOWNENT2
001342: 10,3250           74044        PINIDMSK           OCT      74044                                 #  *** DONT MOVE
001343:
001344: 10,3251           46221                           CS       THREE                                 #  BLANK EVERYTHING EXCEPT MM
001345: 10,3252           04166                           TC       NVSUB
001346: 10,3253           13254                           TCF      +1
001347:
001348: 10,3254           30163        ENDIT              CA       USERPRIO                              #  RETURN TO USERS PRIORITY
001349: 10,3255           77677                           MASK     PRIO37
001350: 10,3256           05216                           TC       PRIOCHNG
001351: 10,3257           30157                           CA       MPAC       +3
001352: 10,3260           14677                           TCF      BANKJUMP
001353:
001354: 10,3261           50164        UNSETR1            INDEX    COPINDEX                              #  RESET REPEAT AND RETURN REQUEST
001355: 10,3262           45024                           CS       BIT3
001356: 10,3263           71074                           MASK     R1SAVE
001357: 10,3264           55074                           TS       R1SAVE
001358:
001359: 10,3265           35030                           CAF      ZERO                                  #  *** 205 ONLY MARKBRAN USERS IN
001360: 10,3266           05002                           TC       SUPERSW                               #  SUPERBANK 0
001361:
001362: 10,3267           36221                 -1        CAF      THREE                                 #  RETURN TO USERS IMMEDIATE RETURN LOC
001363: 10,3270           50164        IMMEDRET           INDEX    COPINDEX
001364: 10,3271           60372                           AD       CADRFLSH
001365: 10,3272           14677                           TCF      BANKJUMP
001366:
001367: 10,3273           35030        TERMATE            CAF      ZERO                                  #  ASTRONAUT TERMINATE (V34) RETURNS TO
001368: 10,3274           13213                           TCF      ENDOUT
001369:
001370: 10,3275           40160        LINUSCHR           CS       PLAYTEM4                              #  IS THIS A LINUS
001371: 10,3276           75011                           MASK     BIT14
001372: 10,3277           10000                           CCS      A
001373: 10,3300           16713                           TCF      Q+1                                   #  NO
001374: 10,3301           40157                           CS       PLAYTEM3                              #  YES, IS IT ALREADY IN ENDIDLE
001375: 10,3302           50164                           INDEX    COPINDEX
001376: 10,3303           60372                           AD       CADRFLSH
001377: 10,3304           00006                           EXTEND
001378: 10,3305           13307                           BZF      +2                                    #  YES
001379:
001380: 10,3306           00002                           TC       Q                                     #  NO
001381: 10,3307           11013                           CCS      DSPLOCK                               #  IS THE ASTRONAUT BUSY
001382: 10,3310           05225                           TC       ENDOFJOB                              #  END THE NEW DISPLAY, ITS ALREADY ACTIVE
001383: 10,3311           00002                           TC       Q
001384:
001385:                                                                                                  #  MORE LOGIC COULD BE INCORPORATED HERE TO MAKE SURE A RECYCLE IS A RECYCLAND CONVERSLY THAT A LOAD IS A LOAD.
001386: 10,3312           35026        PROCEED            CAF      ONE                                   #  ASTRONAUT PROCEED (V33) RETURNS
001387: 10,3313           13213                           TCF      ENDOUT
001388:
001389:                                                                                                  #       LASTPLAY CHECKS TO SEE IF (1) THE LAST NORMAL DISPLAY WAS EITHER INTERRUPTED BY A PRIO OR A MARK (MARK
001390:                                                                                                  #  COULD ONLY HAPPEN DURING PINBRANCH) OR IF (2) THE LAST NORMAL DISPLAY WAS REQUESTED WHILE A HIGHER PRIORITY
001391:                                                                                                  #  DISPLAY WAS GOING RESULTING IN THE NORMAL BEING PUT TO SLEEP.
001392:
001393:                                                                                                  #       IF EITHER OF THE ABOVE 2 CONDITIONS EXISTS , THE NORMAL DISPLAY IS AWAKENED TO GO TO PLAYJUM1 WHICH STARTS
001394:                                                                                                  #  UP THE MOST RECENT VALID NORMAL DISPLAY. IF THESE 2 CONDITIONS DO NOT EXIST, CONTROL GOES TO PLAYJUM1 WHICH IS
001395:                                                                                                  #  STARTED IMMEDIATELY WITH THE ASSUMPTION THAT THE MOST RECENT NORMAL DISPLAY IS ALREADY IN-ENDIDLE(DURING A
001396:                                                                                                  #  PINBRANCH) OR THAT A RESTART HAS OCCURRED AND THE DISPLAY CAN BE STARTED AS A .1 RESTART.
001397:
001398: 10,3314           46216        MARKRET            CS       SIX
001399: 10,3315           70100                           MASK     FLAGWRD4
001400: 10,3316           00004                           INHINT                                         #  *** MAY MOVE DISPLAY FLAGWORD OUT OF
001401: 10,3317           54100                           TS       FLAGWRD4
001402:
001403: 10,3320           00003                           RELINT                                         #  INHINT REALM
001404: 10,3321           13236                           TCF      ENDRET
001405:
001406: 10,3322           37721        MARKOVER           CAF      MINUS1                                #  RUPTREG2 IS - MEANS ENDOFJOB TO ENDRET
001407: 10,3323           54161                           TS       OUTHERE
001408:
001409: 10,3324           30100                           CA       FLAGWRD4                              #  IS ENDIDFLG SET
001410: 10,3325           74367                           MASK     PRIO30                                #  IS NORMAL OR PRIO IN ENDIDLE
001411: 10,3326           10000                           CCS      A
001412: 10,3327           12757                           TCF      NORMBNCH
001413:
001414: 10,3330           30100        NORMRET            CA       FLAGWRD4                              #  IS MARK SLEEPING
001415: 10,3331           73425                           MASK     BITS5+11                              #  OR WAITING
001416: 10,3332           10000                           CCS      A
001417: 10,3333           12721                           TCF      MARKWAKE
001418:
001419: 10,3334           30100                           CA       FLAGWRD4                              #  NO
001420: 10,3335           73426                           MASK     BITS4+10                              #  IS NORMAL INTERRUPTED OR WAITING
001421: 10,3336           10000                           CCS      A
001422: 10,3337           13234                           TCF      NORMWAKE                              #  YES
001423:
001424: 10,3340           31072                           CA       EBANKTEM                              #  NO, WAS IT A FLASH REQUEST
001425: 10,3341           75041                           MASK     OCT50                                 #  OR A GODSPRET
001426: 10,3342           10000                           CCS      A
001427: 10,3343           13236                           TCF      ENDRET                                #  YES
001428: 10,3344           30371                           CA       NVSAVE
001429: 10,3345           00006                           EXTEND
001430: 10,3346           13236                           BZF      ENDRET
001431:
001432: 10,3347           35075                           CAF      PRIO15
001433: 10,3350           00004                           INHINT
001434: 10,3351           05142                           TC       NOVAC
001435: 10,3352     0367                                  EBANK=   NVWORD
001436: 10,3352           02524 20060                     2CADR    PLAYJUM1
001437:
001438:
001439: 10,3354           13236                           TCF      ENDRET
001440:
001441: 10,3355           30100        MARSLEEP           CA       FLAGWRD4                              #  IS MARK ALREADY IN
001442: 10,3356           73425                           MASK     BITS5+11
001443: 10,3357           10000                           CCS      A
001444: 10,3360           15225                           TCF      ENDOFJOB                              #  YES
001445: 10,3361           12652                           TCF      GOSLEEPS
001446:
001447: 10,3362           50157        LOADITIS           INDEX    COPMPAC
001448: 10,3363           30367                           CA       NVWORD
001449: 10,3364           76050                           MASK     LOW7
001450: 10,3365           40000                           COM
001451: 10,3366           60155                           AD       MPAC       +1                         #  NOUNREG
001452: 10,3367           00006                           EXTEND
001453: 10,3370           13212                           BZF      OKTOENT                               #  NO, THEN LOAD IS VALID
001454: 10,3371           12746                           TCF      PINBRNCH                              #  YES, ACCEPT LOAD BUT ASK FOR LAST AGAIN
001455:
001456: 10,3372           46221        ERASER             CS       THREE                                 #  BLANK EVERYTHING EXCEPT MM
001457: 10,3373           04166                           TC       NVSUB
001458: 10,3374           15225                           TCF      ENDOFJOB
001459: 10,3375           15225                           TCF      ENDOFJOB
001460:
001461: 10,3376           00036        PERFMASK           OCT      0036                                  #  FLASH,PERFORM,BLANK R2 AND R3
001462: 10,3377           00231        V01N25             VN       00125
001463: 10,3400           01407        V06N07             VN       00607                                 #  GOPERF3 VN DISPLAY BEFORE V50
001464: 10,3401           14400        V50N00             VN       5000
001465: 10,3402           00030        PERF2MSK           OCT      00030                                 #  FLASH, PERFORM
001466: 10,3403           01006        V04N06             VN       00406
001467: 10,3404           00014        PERF4MSK           OCT      14                                    #  FLASH, BLANK R3
001468: 10,3405  10,2746               GOAGIN             EQUALS   PINBRNCH
001469: 10,3405           20010        REDOMASK           OCT      20010                                 #  BITS 4 AND 14
001470: 10,3406           40230        MARK3MSK           OCT      40230                                 #  MARK,DECIMAL NOUN, PERFORM,FLASH
001471: 10,3407           40036        MARK4MSK           OCT      40036                                 #  MARK,PERFORM,FLASH,BLANK 2 AND 3
001472: 10,3410           20452        NVCADR             CADR     REDOPRIO
001473: 10,3411           20313        WAKECADR           CADR     MARKPLAY
001474: 10,3412           20524                           CADR     PLAYJUM1
001475:
001476: 10,3413           03400        OCT3400            OCT      3400                                  #  EBANK MASK
001477: 10,3414           11210        NBUSMASK           OCT      11210
001478: 10,3415           66521        PMMASK             OCT      66521
001479: 10,3416     4156               VERBMASK           =        MID7                                  #  (OCT 37600)
001480: 10,3416           01177        V05N00M1           OCT      1177                                  #  V05 MINUS ONE
001481: 10,3417  10,2222               GOXDSP             EQUALS   GOMARK
001482: 10,3417  10,2242               GOXDSPR            EQUALS   GOMARKR
001483: 10,3417  10,2226               GOXDSPF            EQUALS   GOMARKF
001484: 10,3417  10,2245               GOXDSPFR           EQUALS   GOMARKFR
001485: 10,3417     5561               ENDEXT             EQUALS   ENDMARK
001486: 10,3417     0165               MPAC2SAV           EQUALS   BANKSET
001487: 10,3417           00700        NVBUSMSK           OCT      700
001488: 10,3420           00704        ASTROMSK           OCT      704
001489: 10,3421           40030        MPERFMSK           OCT      40030                                 #  BIT 15,5,4 FOR MARK,PERFORM,FLASH
001490: 10,3422           34300        OCT34300           OCT      34300
001491: 10,3423           40100        BITS15+7           OCT      40100
001492: 10,3424           00110        BITS7+4            OCT      110
001493: 10,3425     1070               DSPFLG             EQUALS   EBANKSAV
001494: 10,3425     1071               MARKFLAG           EQUALS   MARKEBAN
001495: 10,3425     1072               SAVEFLAG           EQUALS   EBANKTEM
001496: 10,3425           02020        BITS5+11           OCT      2020                                  #  * DONT MOVE
001497: 10,3426           01010        BITS4+10           OCT      1010                                  #  * DONT MOVE
001498: 10,3427           00026        LOWLOAD            DEC      22         B-14
001499: 10,3430           77730        BUSYMASK           OCT      77730
001500: 10,3431           00050        CADRMASK           OCT      50
001501: 10,3432     7711               PINMASK            EQUALS   13,14,15
001502: 10,3432  10,2766               GOPLAY             EQUALS   NVDSP
001503:                                                                                                  #  PRIOSAVE      EQUALS  R1SAVE
001504: 10,3432     0157               COPMPAC            EQUALS   MPAC       +3
001505: 10,3432     0160               TEMPOR2            EQUALS   MPAC       +4
001506: 10,3432     0161               OUTHERE            EQUALS   MPAC       +5
001507: 10,3432     0164               COPINDEX           EQUALS   LOC
001508: 10,3432     0163               USERPRIO           EQUALS   MODE
001509: 10,3432     0162               GENMASK            EQUALS   MPAC       +6
001510: 10,3432           20144        PRIOOCT            OCT      20144                                 #  PRIO
001511: 10,3433           42424        MARKOCT            OCT      42424                                 #  MARK
001512: 10,3434           11254                           OCT      11254                                 #  NORM
001513:
001514: 10,3435           74704        IDLESLEP           OCT      74704
001515: 10,3436           67777        OCT67777           OCT      67777
001516: 10,3437     5553               LINUS              EQUALS   BLANKET
001517: 10,3437     0154               FACEREG            EQUALS   MPAC
001518: 10,3437     0155               PLAYTEM1           EQUALS   MPAC       +1
001519: 10,3437     0157               PLAYTEM3           EQUALS   MPAC       +3
001520: 10,3437     0160               PLAYTEM4           EQUALS   MPAC       +4
001521: 10,3437           40420        OCT40420           OCT      40420
001522: 10,3440           02456        MAKEGEN            GENADR   MAKEPLAY
001523: 10,3441           10200        OCT10200           OCT      10200
001524: 10,3442           30600        V99N00             VN       09900                                 #  PASTE FOR V99

End of include-file DISPLAY_INTERFACE_ROUTINES.agc.  Parent file is MAIN.agc


