
Source Code


000002:                                                                                                  ## Copyright:   Public domain.
000003:                                                                                                  ## Filename:    DOWN-TELEMETRY_PROGRAM.agc
000004:                                                                                                  ## Purpose:     A section of a reconstructed, mixed version of Sundance
000005:                                                                                                  ##              It is part of the reconstructed source code for the Lunar
000006:                                                                                                  ##              Module's (LM) Apollo Guidance Computer (AGC) for Apollo 9.
000007:                                                                                                  ##              No original listings of this program are available;
000008:                                                                                                  ##              instead, this file was created via disassembly of dumps
000009:                                                                                                  ##              of various revisions of Sundance core rope modules.
000010:                                                                                                  ## Assembler:   yaYUL
000011:                                                                                                  ## Contact:     Ron Burkey <info@sandroid.org>.
000012:                                                                                                  ## Website:     www.ibiblio.org/apollo/index.html
000013:                                                                                                  ## Mod history: 2020-06-17 MAS  Created from Luminary 69.
000014:
000015:                                                                                                  ## Sundance 292
000016:
000017:                                                                                                  #  PROGRAM NAME - DOWN TELEMETRY PROGRAM
000018:                                                                                                  #  MOD NO. - 0           TO COMPLETELY REWRITE THE DOWN TELEMETRY PROGRAM AND DOWNLINK ERASABLE DUMP PROGRAM FOR THE
000019:                                                                                                  #                        PURPOSE OF SAVING APPROXIMATELY 150 WORDS OF CORE STORAGE.
000020:                                                                                                  #                        THIS CHANGE REQUIRES AN ENTIRELY NEW METHOD OF SPECIFYING DOWNLINK LISTS.REFER TO DOWNLINK
000021:                                                                                                  #                        LISTS LOG SECTION FOR MORE DETAILS. HOWEVER THIS CHANGE WILL NOT AFFECT THE GROUND PROCESSING
000022:                                                                                                  #                        OF DOWN TELEMETRY DATA.
000023:                                                                                                  #  MOD BY - KILROY, SMITH, DEWITT
000024:                                                                                                  #  DATE - 02OCT67
000025:                                                                                                  #  AUTHORS - KILROY, SMITH, DEWITT, DEWOLF, FAGIN
000026:                                                                                                  #  LOG SECTION - DOWN-TELEMETRY PROGRAM
000027:
000028:                                                                                                  #  FUNCTIONAL DESCRIPTION - THIS ROUTINE IS INITIATED BY TELEMETRY END
000029:                                                                                                  #        PULSE FROM THE DOWNLINK TELEMETRY CONVERTER. THIS PULSE OCCURS
000030:                                                                                                  #        AT 50 TIMES PER SEC (EVERY 20 MS) THEREFORE DODOWNTM IS
000031:                                                                                                  #        EXECUTED AT THESE RATES. THIS ROUTINE SELECTS THE APPROPRIATE
000032:                                                                                                  #        AGC DATA TO BE TRANSMITTED DOWNLINK AND LOADS IT INTO OUTPUT
000033:                                                                                                  #        CHANNELS 34 AND 35. THE INFORMATION IS THEN GATED OUT FROM THE
000034:                                                                                                  #        LGC IN SERIAL FASHION.
000035:                                                                                                  #        THIS PROGRAM IS CODED FOR A 2 SECOND DOWNLIST. SINCE DOWNRUPTS
000036:                                                                                                  #        OCCUR EVERY 20 MS AND 2 AGC COMPUTER WORDS CAN BE PLACED IN
000037:                                                                                                  #        CHANNELS 34 AND 35 DURING EACH DOWNRUPT THE PROGRAM IS CAPABLE
000038:                                                                                                  #        OF SENDING 200 AGC WORDS EVERY 2 SECONDS.
000039:                                                                                                  #  CALLING SEQUENCE - NONE
000040:                                                                                                  #        PROGRAM IS ENTERED VIA TCF DODOWNTM WHICH IS EXECUTED AS A
000041:                                                                                                  #        RESULT OF A DOWNRUPT. CONTROL IS RETURNED VIA TCF RESUME WHICH
000042:                                                                                                  #        IN EFFECT IS A RESUME.
000043:                                                                                                  #  SUBROUTINES CALLED - NONE
000044:                                                                                                  #  NORMAL EXIT MODE - TCF RESUME
000045:                                                                                                  #  ALARM OR ABORT EXIT MODE - NONE
000046:                                                                                                  #  RESTART PROTECTION:
000047:                                                                                                  #        ON A FRESH START AND RESTART THE 'STARTSUB' SUBROUTINE WILL INITIALIZE THE DOWNLIST POINTER (ACTUALLY
000048:                                                                                                  #        DNTMGOTO) TO THE BEGINNING OF THE CURRENT DOWNLIST (I.E. CURRENT CONTENTS OF DNLSTADR). THIS HAS THE
000049:                                                                                                  #        EFFECT OF IGNORING THE REMAINDER OF THE DOWNLIST WHICH THE DOWN-TELEMETRY PROGRAM WAS WORKING ON WHEN
000050:                                                                                                  #        THE RESTART (OR FRESH START) OCCURRED AND RESUME DOWN TELEMETRY FROM THE BEGINNING OF THE CURRENT
000051:                                                                                                  #        DOWNLIST.
000052:                                                                                                  #        ALSO OF INTEREST IS THE FACT THAT ON A RESTART THE AGC WILL ZERO DOWNLINK CHANNELS 13, 34 AND 35.
000053:                                                                                                  #  DOWNLINK LIST SELECTION:
000054:                                                                                                  #        THE APPROPRIATE DOWNLINK LISTS ARE SELECTED BY THE FOLLOWING:
000055:                                                                                                  #        1.      FRESH START
000056:                                                                                                  #        2.      V37EXXE WHERE XX = THE MAJOR MODE BEING SELECTED.
000057:                                                                                                  #        3.      UPDATE PROGRAM (P27)
000058:                                                                                                  #        4.      NON-V37 SELECTABLE TYPE PROGRAMS (E.G. AGS INITIALIZATION (SUNDANCE, LUMINARY) AND P61-P62
000059:                                                                                                  #                TRANSITION (COLOSSUS) ETC.).
000060:                                                                                                  #  DOWNLINK LIST RULES AND LIMITATIONS:
000061:                                                                                                  #        READ SECTION(S) WHICH FOLLOW 'DEBRIS' WRITEUP.
000062:                                                                                                  #  OUTPUT - EVERY 2 SECONDS 100 DOUBLE PRECISION WORDS (I.E. 200 LGC
000063:                                                                                                  #        COMPUTER WORDS) ARE TRANSMITTED VIA DOWNLINK.
000064:                                                                                                  #  ERASABLE INITIALIZATION REQUIRED - NONE
000065:                                                                                                  #        'DNTMGOTO' AND 'DNLSTADR' ARE INITIALIZED BY THE FRESH START PROGRAM.
000066:                                                                                                  #  DEBRIS (ERASABLE LOCATIONS DESTROYED BY THIS PROGRAM) -
000067:                                                                                                  #        LDATALST,DNTMBUFF TO DNTMBUFF +21D,TMINDEX,DNQ.
000068:


000070:
000071:                                                                                                  #  DODOWNTM IS ENTERED EVERY 20 MS BY AN INTERRUPT TRIGGERED BY THE
000072:                                                                                                  #  RECEIPT OF AN ENDPULSE FROM THE SPACECRAFT TELEMETRY PROGRAMMER.
000073:
000074:                                                                                                  #  NOTES REGARDING DOWNLINK LISTS ASSOCIATED WITH THIS PROGRAM:
000075:                                                                                                  #  1.    DOWNLISTS. - DOWNLISTS MUST BE COMPILED IN THE SAME BANK AS THE
000076:                                                                                                  #        DOWN-TELEMETRY PROGRAM. THIS IS DONE FOR EASE OF CODING, FASTER
000077:                                                                                                  #        EXECUTION.
000078:                                                                                                  #  2.    EACH DOWNLINK LIST CONSISTS OF A CONTROL LIST AND A NUMBER OF
000079:                                                                                                  #        SUBLISTS.
000080:                                                                                                  #  3.    A SUBLIST REFERS TO A SNAPSHOT OR DATA COMMON TO THE SAME OR OTHER
000081:                                                                                                  #        DOWNLINK LISTS.  ANY SUBLIST CONTAINING COMMON DATA NEEDS TO BE
000082:                                                                                                  #        CODED ONLY ONCE FOR THE APPLICABLE DOWNLINK LISTS.
000083:                                                                                                  #  4.    SNAPSHOT SUBLISTS REFER SPECIFICALLY TO HOMOGENOUS DATA WHICH MUST BE
000084:                                                                                                  #        SAVED IN A BUFFER DURING ONE DOWNRUPT.
000085:                                                                                                  #  5.    THE 1DNADR FOR THE 1ST WORD OF SNAPSHOT DATA IS FOUND AT THE END
000086:                                                                                                  #        OF EACH SNAPSHOT SUBLIST, SINCE THE PROGRAM CODING SENDS THIS DP WORD
000087:                                                                                                  #        IMMEDIATELY AFTER STORING THE OTHERS IN THE SNAPSHOT BUFFER.
000088:                                                                                                  #  6.    ALL LISTS ARE COMBINATIONS OF CODED ERASABLE ADDRESS CONSTANTS
000089:                                                                                                  #        CREATED FOR THE DOWNLIST PROGRAM.
000090:                                                                                                  #        A.      1DNADR                  1-WORD DOWNLIST ADDRESS.
000091:                                                                                                  #                SAME AS ECADR, BUT USED WHEN THE WORD ADDRESSED IS THE LEFT
000092:                                                                                                  #                HALF OF A DOUBLE-PRECISION WORD FOR DOWN TELEMETRY.
000093:                                                                                                  #        B.      2DNADR - 6DNADR         N-WORD DOWNLIST ADDRESS, N = 2 - 6.
000094:                                                                                                  #                SAME AS 1DNADR, BUT WITH THE 4 UNUSED BITS OF THE ECADR FORMAT
000095:                                                                                                  #                FILLED IN WITH 0001-0101.  USED TO POINT TO A LIST OF N DOUBLE-
000096:                                                                                                  #                PRECISION WORDS, STORED CONSECUTIVELY, FOR DOWN TELEMETRY.
000097:                                                                                                  #        C.      DNCHAN                  DOWNLIST CHANNEL ADDRESS.
000098:                                                                                                  #                SAME AS 1DNADR, BUT WITH PREFIX BITS 0111.  USED TO POINT TO
000099:                                                                                                  #                A PAIR OF CHANNELS FOR DOWN TELEMETRY.
000100:                                                                                                  #        D.      DNPTR                   DOWN TELEMETRY SUBLIST POINTER.
000101:                                                                                                  #                SAME AS CAF BUT TAGGED AS A CONSTANT. USED IN CONTROL LIST TO POINT TO A SUBLIST.
000102:                                                                                                  #                CAUTION--- A DNPTR CANNOT BE USED IN A SUBLIST.
000103:                                                                                                  #  7.    THE WORD ORDER CODE IS SET TO ZERO AT THE BEGINNING OF EACH DOWNLIST (I.E. CONTROL LIST) AND WHEN
000104:                                                                                                  #        A '1DNADR TIME2' IS DETECTED IN THE CONTROL LIST (ONLY).
000105:                                                                                                  #  8.    IN THE SNAPSHOT SUBLIST ONLY, THE DNADR'S CANNOT POINT TO THE FIRST WORD OF ANY EBANK.
000106:
000107:                                                                                                  #  DOWNLINK LIST RESTRICTIONS:
000108:                                                                                                  #    (THE FOLLOWING POINTS MAY BE LISTED ELSEWHERE BUT ARE LISTED HERE SO IT IS CLEAR THAT THESE THINGS CANNOT BE
000109:                                                                                                  #    DONE)
000110:                                                                                                  #  1.    SNAPSHOT DOWNLIST:
000111:                                                                                                  #        (A) CANNOT CONTAIN THE FOLLOWING ECADRS (I.E. 1DNADR'S): 0, 400, 1000, 1400, 2000, 2400, 3000, 3400.
000112:                                                                                                  #        (B) CAN CONTAIN ONLY 1DNADR'S
000113:                                                                                                  #  2.    ALL DOWNLINKED DATA (EXCEPT CHANNELS) IS PICKED UP BY A <DCA<SO DOWNLINK LISTS CANNOT CONTAIN THE
000114:                                                                                                  #        EQUIVALENT OF THE FOLLOWING ECADRS (I.E. IDNADRS): 377, 777, 1377, 1777, 2377, 27777, 3377, 3777.
000115:                                                                                                  #        (NOTE: THE TERM EQUIVALENT ' MEANT THAT THE IDNADR TO 6DNADR WILL BE PROCESSED LIKE 1 TO 6 ECADRS)
000116:                                                                                                  #  3.    CONTROL LISTS AND SUBLISTS CANNOT HAVE ENTRIES = OCTAL 00000 OR OCTAL 77777
000117:                                                                                                  #  4.    THE '1DNADR TIME2' WHICH WILL CAUSE THE DOWNLINK PROGRAM TO SET THE WORDER CODE TO 3 MUST APPEAR IN THE
000118:                                                                                                  #        CONTROL SECTION OF THE DOWNLIST.
000119:
000120:                                                                                                  #  5.    'DNCHAN 0' CANNOT BE USED.
000121:
000122:                                                                                                  #  6.    'DNPTR 0' CANNOT BE USED.
000123:
000124:                                                                                                  #  7.    DNPTR CANNOT APPEAR IN A SUBLIST.
000125:
000126:                                                                                                  #  EBANK SETTINGS
000127:                                                                                                  #        IN THE PROCESS OF SETTING THE EBANK (WHEN PICKING UP DOWNLINK DATA) THE DOWN TELEMETRY PROGRAM PUTS
000128:                                                                                                  #        'GARBAGE' INTO BITS15-12 OF EBANK. HUGH BLAIR-SMITH WARNS US THAT BITS15-12 OF EBANK MAY BECOME
000129:                                                                                                  #        SIGNIFICANT SOMEDAY IN THE FUTURE. IF/WHEN THAT HAPPENS, THE PROGRAM SHOULD INSURE (BY MASKING ETC.)
000130:                                                                                                  #        THAT BITS15-12 OF EBANK ARE ZERO.
000131:
000132:                                                                                                  #  INITIALIZATION REQUIRED - TO INTERRUPT CURRENT LIST AND START A NEW ONE..
000133:                                                                                                  #        1. ADRES OF DOWNLINK LIST INTO DNLSTADR
000134:                                                                                                  #        2. NEGONE INTO SUBLIST
000135:                                                                                                  #        3. NEGONE INTO DNECADR
000136:
000137: 22,3644                                           BANK     22
000138: 05,2000                                           SETLOC   DOWNTELM
000139: 05,2000                                           BANK
000140:
000141: 05,3146     0340                                  EBANK=   DNTMBUFF
000142:
000143: 05,3146                                           COUNT*   $$/DPROG
000144: 05,3146           54016        DODOWNTM           TS       BANKRUPT
000145: 05,3147           00006                           EXTEND
000146: 05,3150           22012                           QXCH     QRUPT                                 #  SAVE Q
000147: 05,3151           35020                           CA       BIT7                                  #  SET WORD ORDER CODE TO 1. EXCEPTION- AT
000148: 05,3152           00006        WO1                EXTEND                                         #  THE BEGINNING OF EACH LIST THE WORD
000149: 05,3153           05013                           WOR      CHAN13                                #  CODE WILL BE SET BACK TO 0.
000150: 05,3154           00335                           TC       DNTMGOTO                              #  GO TO APPROPRIATE PHASE OF PROGRAM
000151:
000152: 05,3155           37721        DNPHASE1           CA       NEGONE                                #  INITIALIZE ALL CONTROL WORDS
000153: 05,3156           54337                           TS       SUBLIST                               #  WORDS TO MINUS ONE
000154: 05,3157           54336                           TS       DNECADR
000155: 05,3160           33301                           CA       LDNPHAS2                              #  SET DNTMGOTO =O ALL SUBSEQUENT DOWNRUPTS
000156: 05,3161           54335                           TS       DNTMGOTO                              #  GO TO DNPHASE2
000157: 05,3162           13175                           TCF      1STLIST
000158: 05,3163           10336        DNPHASE2           CCS      DNECADR                               #  SENDING OF DATA IN PROGRESS
000159: 05,3164           03314        DODNADR            TC       FETCH2WD                              #  YES - THEN FETCH THE NEXT 2 SP WORDS
000160: 05,3165           77753        MINTIME2           -1DNADR  TIME2                                 #  NEGATIVE OF TIME2 1DNADR
000161: 05,3166           13167                           TCF      +1                                    #  (ECADR OF 3776 + 74001 = 77777)
000162:
000163: 05,3167           10337                           CCS      SUBLIST                               #  IS THE SUBLIST IN CONTROL
000164: 05,3170           13327                           TCF      NEXTINSL                              #  YES
000165: 05,3171           74001        DNADRDCR           OCT      74001                                 #  DNADR COUNT AND ECADR DECREMENTER
000166:
000167: 05,3172           10334        CHKLIST            CCS      CTLIST                                #  IT WILL BE NEGATIVE AT END OF LIST
000168: 05,3173           13204                           TCF      NEXTINCL
000169: 05,3174           13201                           TCF      NEWLIST
000170: 05,3175           35030        1STLIST            CAF      ZERO
000171: 05,3176           54334                           TS       CTLIST
000172: 05,3177           40332                           CS       DNLSTCOD
000173: 05,3200           13417                           TCF      SENDID     +3
000174: 05,3201           50332        NEWLIST            INDEX    DNLSTCOD
000175: 05,3202           32260                           CA       DNTABLE                               #  INITIALIZE CTLIST WITH
000176: 05,3203           54334                           TS       CTLIST                                #    STARTING ADDRESS OF NEW LIST
000177: 05,3204           50334        NEXTINCL           INDEX    CTLIST
000178: 05,3205           30000                           CA       0
000179: 05,3206           10000                           CCS      A
000180: 05,3207           24334                           INCR     CTLIST                                #  SET POINTER TO PICK UP NEXT CTLIST WORD
000181: 05,3210           13214                           TCF      +4                                    #  ON NEXT ENTRY TO PROG.  (A SHOULD NOT =0)
000182: 05,3211           56334                           XCH      CTLIST                                #  SET CTLIST TO NEGATIVE AND PLACE(CODING)
000183: 05,3212           40000                           COM                                            #  UNCOMPLEMENTED DNADR INTO A.    (FOR LA)
000184: 05,3213           56334                           XCH      CTLIST                                #                                  (ST IN )
000185: 05,3214           24000                 +4        INCR     A                                     #                                  (CTLIST)
000186: 05,3215           54336                           TS       DNECADR                               #  SAVE DNADR
000187: 05,3216           63165                           AD       MINTIME2                              #  TEST FOR TIME2 (NEG. OF ECADR)
000188: 05,3217           10000                           CCS      A
000189: 05,3220           13224                           TCF      SETWO      +1                         #  DON'T SET WORD ORDER CODE
000190: 05,3221           47777        MINB1314           OCT      47777                                 #  MINUS BIT 13 AND 14 (CAN'T GET HERE)
000191: 05,3222           13224                           TCF      SETWO      +1                         #  DON'T SET WORD ORDER CODE
000192: 05,3223           03246        SETWO              TC       WOZERO                                #  GO SET WORD ORDER CODE TO ZERO.
000193: 05,3224           30336                 +1        CA       DNECADR                               #  RELOAD A WITH THE DNADR.
000194: 05,3225           63221                 +2        AD       MINB1314                              #  IS THIS A REGULAR DNADR?
000195: 05,3226           00006                           EXTEND
000196: 05,3227           63314                           BZMF     FETCH2WD                              #  YES.  (A MUST NEVER BE ZERO)
000197: 05,3230           67712                           AD       MINB12                                #  NO- IS IT A POINTER (DNPTR) OR A
000198: 05,3231           00006                           EXTEND                                         #      CHANNEL(DNCHAN)
000199: 05,3232           63252                           BZMF     DODNPTR                               #  IT'S A POINTER.  (A MUST NEVER BE ZERO)
000200:
000201: 05,3233           00006        DODNCHAN           TC       6                                     #  (EXECUTED AS EXTEND)  IT S A CHANNEL
000202: 05,3234           50336                           INDEX    DNECADR
000203: 05,3235           44000                           INDEX    0          -4000                      #  (EXECUTED AS READ)
000204: 05,3236           54001                           TS       L
000205: 05,3237           00006                           TC       6                                     #  (EXECUTED AS EXTEND)
000206: 05,3240           50336                           INDEX    DNECADR
000207: 05,3241           43777                           INDEX    0          -4001                      #  (EXECUTED AS READ)
000208: 05,3242           56336                           XCH      DNECADR                               #  SET DNECADR
000209: 05,3243           40000                           COM                                            #        TO MINUS
000210: 05,3244           56336                           XCH      DNECADR                               #                WHILE PRESERVING A.
000211: 05,3245           13342                           TCF      DNTMEXIT                              #  GO SEND CHANNELS
000212:
000213: 05,3246           45020        WOZERO             CS       BIT7
000214: 05,3247           00006                           EXTEND
000215: 05,3250           03013                           WAND     CHAN13                                #  SET WORD ORDER CODE TO ZERO
000216: 05,3251           00002                           TC       Q                                     #  RETURN TO CALLER
000217:
000218: 05,3252           50336        DODNPTR            INDEX    DNECADR                               #  DNECADR CONTAINS ADRES OF SUBLIST
000219: 05,3253           00000                           0        0                                     #  CLEAR AND ADD LIST ENTRY INTO A.
000220: 05,3254           10000                           CCS      A                                     #  IS THIS A SNAPSHOT SUBLIST
000221: 05,3255           30336                           CA       DNECADR                               #  NO, IT IS A REGULAR SUBLIST.
000222: 05,3256           13326                           TCF      DOSUBLST                              #  A MUST NOT BE ZERO.
000223:
000224: 05,3257           56336                           XCH      DNECADR                               #  YES, IT IS A SNAPSHOT SUBLIST.
000225: 05,3260           54337                           TS       SUBLIST                               #  C(DNECADR) INTO SUBLIST
000226: 05,3261           35030                           CAF      ZERO                                  #        A    INTO     A
000227: 05,3262           56336                           XCH      TMINDEX                               #  (NOTE..  TMINDEX = DNECADR)
000228:
000229:                                                                                                  #  THE FOLLOWING CODING (FROM SNAPLOOP TO SNAPEND) IS FOR THE PURPOSE OF TAKING A SNAPSHOT OF 12 DP REGISTERS.
000230:                                                                                                  #  THIS IS DONE BY SAVING 11 DP REGISTERS IN DNTMBUFF AND SENDING THE FIRST DP WORD IMMEDIATELY.
000231:                                                                                                  #  THE SNAPSHOT PROCESSING IS THE MOST TIME CONSUMING AND THEREFORE THE CODING AND LIST STRUCTURE WERE DESIGNED
000232:                                                                                                  #  TO MINIMIZE TIME. THE TIME OPTIMIZATION RESULTS IN RULES UNIQUE TO THE SNAPSHOT PORTION OF THE DOWNLIST.
000233:                                                                                                  #  THESE RULES ARE......
000234:                                                                                                  #        1.      ONLY 1DNADR'S CAN APPEAR IN THE SNAPSHOT SUBLIST
000235:                                                                                                  #        2.      THE 1DNADR'S CANNOT REFER TO THE FIRST LOCATION IN ANY BANK.
000236:
000237: 05,3263           54003        SNAPLOOP           TS       EBANK                                 #  SET EBANK
000238: 05,3264           74371                           MASK     LOW8                                  #  ISOLATE RELATIVE ADDRESS
000239: 05,3265           00006                           EXTEND
000240: 05,3266           50000                           INDEX    A
000241: 05,3267  E3,1401                                  EBANK=   1401
000242: 05,3267           31402                           DCA      1401                                  #  PICK UP 2 SNAPSHOT WORDS.
000243: 05,3270     0340                                  EBANK=   DNTMBUFF
000244: 05,3270           50336                           INDEX    TMINDEX
000245: 05,3271           52341                           DXCH     DNTMBUFF                              #  STORE 2 SNAPSHOT WORDS IN BUFFER
000246: 05,3272           24336                           INCR     TMINDEX                               #  SET BUFFER INDEX FOR NEXT 2 WORDS.
000247: 05,3273           24336                           INCR     TMINDEX
000248: 05,3274           24337        SNAPAGN            INCR     SUBLIST                               #  SET POINTER TO NEXT 2 WORDS OF SNAPSHOT
000249: 05,3275           50337                           INDEX    SUBLIST
000250: 05,3276           00000                           0        0                                     #  = CA SSSS (SSSS = NEXT ENTRY IN SUBLIST)
000251: 05,3277           10000                           CCS      A                                     #  TEST FOR LAST TWO WORDS OF SNAPSHOT.
000252: 05,3300           13263                           TCF      SNAPLOOP                              #  NOT LAST TWO.
000253: 05,3301           03163        LDNPHAS2           GENADR   DNPHASE2
000254: 05,3302           56337                           XCH      SUBLIST                               #  YES, LAST.  SAVE A.
000255: 05,3303           40000                           COM                                            #  SET DNECADR AND
000256: 05,3304           54336                           TS       DNECADR                               #        SUBLIST POINTERS
000257: 05,3305           56337                           XCH      SUBLIST                               #                TO NEGATIVE VALUES.
000258: 05,3306           54003                           TS       EBANK
000259: 05,3307           74371                           MASK     LOW8
000260: 05,3310           00006                           EXTEND
000261: 05,3311           50000                           INDEX    A
000262: 05,3312  E3,1401                                  EBANK=   1401
000263: 05,3312           31402                           DCA      1401                                  #  PICK UP FIRST 2 WORDS OF SNAPSHOT.
000264: 05,3313     0340                                  EBANK=   DNTMBUFF
000265: 05,3313           13342        SNAPEND            TCF      DNTMEXIT                              #  NOW GO SEND THEM.
000266:
000267: 05,3314           30336        FETCH2WD           CA       DNECADR
000268: 05,3315           54003                           TS       EBANK                                 #  SET EBANK
000269: 05,3316           74371                           MASK     LOW8                                  #  ISOLATE RELATIVE ADDRESS
000270: 05,3317           54001                           TS       L
000271: 05,3320           33171                           CA       DNADRDCR                              #  DECREMENT COUNT AND ECADR
000272: 05,3321           26336                           ADS      DNECADR
000273: 05,3322           00006                           EXTEND
000274: 05,3323           50001                           INDEX    L
000275: 05,3324  E3,1400                                  EBANK=   1400
000276: 05,3324           31401                           DCA      1400                                  #  PICK UP 2 DATA WORDS
000277: 05,3325     0340                                  EBANK=   DNTMBUFF
000278: 05,3325           13342                           TCF      DNTMEXIT                              #  NOW GO SEND THEM.
000279:
000280: 05,3326           54337        DOSUBLST           TS       SUBLIST                               #  SET SUBLIST POINTER
000281: 05,3327           50337        NEXTINSL           INDEX    SUBLIST
000282: 05,3330           00000                           0        0                                     #  = CA SSSS (SSSS = NEXT ENTRY IN SUBLIST)
000283: 05,3331           10000                           CCS      A                                     #  IS IT THE END OF THE SUBLIST
000284: 05,3332           24337                           INCR     SUBLIST                               #  NO -
000285: 05,3333           13337                           TCF      +4
000286: 05,3334           56337                           XCH      SUBLIST                               #  SAVE A.
000287: 05,3335           40000                           COM                                            #  SET SUBLIST TO MINUS
000288: 05,3336           56337                           XCH      SUBLIST                               #  RETRIEVE A.
000289: 05,3337           24000                 +4        INCR     A
000290: 05,3340           54336                           TS       DNECADR                               #  SAVE DNADR
000291: 05,3341           13225                           TCF      SETWO      +2                         #  GO USE COMMON CODING (PROBLEMS WOULD
000292:                                                                                                  #  OCCUR IF THE PROGRAM ENCOUNTERED A
000293:                                                                                                  #  DNPTR NOW)
000294:
000295: 05,3342           00006        DNTMEXIT           EXTEND                                         #  DOWN-TELEMETRY EXIT
000296: 05,3343           01034                           WRITE    DNTM1                                 #  TO SEND A + L TO CHANNELS 34 + 35
000297: 05,3344           30001                           CA       L                                     #  RESPECTIVELY
000298: 05,3345           00006        TMEXITL            EXTEND
000299: 05,3346           01035                           WRITE    DNTM2
000300: 05,3347           15330        TMRESUME           TCF      RESUME                                #  EXIT TELEMETRY PROGRAM VIA RESUME.
000301:
000302: 05,3350     7712               MINB12             EQUALS   -1/8
000303: 05,3350     0336               DNECADR            EQUALS   TMINDEX
000304: 05,3350     0334               CTLIST             EQUALS   LDATALST
000305: 05,3350     0337               SUBLIST            EQUALS   DNQ
000306:
000307:                                                                                                  #  SUBROUTINE NAME- DNDUMP
000308:                                                                                                  #  FUNCTIONAL DESCRIPTION - TO SEND (DUMP) ALL ERASABLE STORAGE 'N' TIMES.(N=1 TO 4). BANKS ARE SENT ONE AT A TIME
000309:                                                                                                  #        EACH BANK IS PRECEEDED BY AN ID WORD, SYNCH BITS, ECADR AND TIME1 FOLLOWED BY THE 256D WORDS OF EACH
000310:                                                                                                  #        EBANK. EBANKS ARE DUMPED IN ORDER (I.E. EBANK 0 FIRST, THEN EBANK1 ETC.)
000311:                                                                                                  #  CALLING SEQUENCE- THE GROUND OR ASTRONAUT BY KEYING V74E CAN INITIALIZE THE DUMP.
000312:                                                                                                  #        AFTER KEYING IN V74E THE CURRENT DOWNLIST WILL BE IMMEDIATELY TERMINATED AND THE DOWNLINK ERASABLE DUMP
000313:                                                                                                  #        WILL BEGIN.
000314:                                                                                                  #        ONCE INITIATED THE DOWNLINK ERASABLE DUMP CAN BE TERMINATED (AND INTERRUPTED DOWNLIST REINSTATED) ONLY
000315:                                                                                                  #        BY THE FOLLOWING:
000316:                                                                                                  #        1.      A FRESH START
000317:                                                                                                  #        2.      COMPLETION OF ALL DOWNLINK DUMPS REQUESTED (ACCORDING TO BITS SET IN DUMPCNT). NOTE THAT DUMPCNT
000318:                                                                                                  #                CAN BE ALTERED BY A V21N01.
000319:                                                                                                  #        3.      AND INVOLUNTARILY BY A RESTART.
000320:                                                                                                  #  NORMAL EXIT MODE - TCF DNPHASE1
000321:                                                                                                  #  ALARM OR ABORT MODE - NONE
000322:                                                                                                  #  *SUBROUTINES CALLED - NONE.
000323:                                                                                                  #  ERASABLE INITIALIZATION REQUIRED -
000324:                                                                                                  #        DUMPCNT         OCT 20000       IF 4 COMPLETE ERASABLE DUMPS ARE DESIRED
000325:                                                                                                  #        DUMPCNT         OCT 10000       IF 2 COMPLETE ERASABLE DUMPS ARE DESIRED
000326:                                                                                                  #        DUMPCNT         OCT 04000       IF 1 COMPLETE ERASABLE DUMP  IS  DESIRED
000327:                                                                                                  #  DEBRIS - DUMPLOC, DUMPSW, DNTMGOTO, EBANK AND CENTRAL REGISTERS
000328:                                                                                                  #  TIMING -      TIME (IN SECS) = ((NO.DUMPS)*(NO.EBANKS)*(WDSPEREBANK + NO.IDWDS)) / NO.WDSPERSEC
000329:                                                                                                  #                TIME (IN SECS) =  (   4    )*(    8    )*(    256     +     4   )  /     100
000330:                                                                                                  #                THUS TIME (IN SECS TO SEND DUMP OF ERASABLE 4 TIMES VIA DOWNLINK) = 83.2 SECONDS
000331:
000332:                                                                                                  #  STRUCTURE OF ONE EBANK AS IT IS SENT BY DOWNLINK PROGRAM -
000333:                                                                                                  #        (REMINDER - THIS ONLY DESCRIBES ONE OF THE 8 EBANKS X 4 (DUMPS) = 32 EBANKS WHICH WILL BE SENT BY DNDUMP)
000334:                                                                                                  #        DOWNLIST                                W
000335:                                                                                                  #          WORD  TAKEN FROM CONTENTS OF  EXAMPLE O       COMMENTS
000336:                                                                                                  #            1   ERASID                   0177X  0       DOWNLIST I.D. FOR DOWNLINK ERASABLE DUMP (X=7 CSM, 6 LM)
000337:                                                                                                  #            2   LOWIDCOD                 77340  1       DOWNLINK SYNCH BITS.  (SAME ONE USED IN ALL OTHER DOWNLISTS)
000338:                                                                                                  #            3   DUMPLOC                  13400  1       (SEE NOTES ON DUMPLOC) 1 = 3RD ERAS DUMP, 3400=ECADR OF 5TH WD
000339:                                                                                                  #            4   TIME1                    14120  1       TIME IN CENTISECONDS
000340:                                                                                                  #            5   FIRST WORD OF EBANK X    03400  1       IN THIS EXAMPLE THIS WORD = CONTENTS OF E7,1400 (ECADR 3400)
000341:                                                                                                  #            6   2ND   WORD OF EBANK X    00142  1       IN THIS EXAMPLE THIS WORD = CONTENTS OF E7,1401 (ECADR 3401)
000342:                                                                                                  #            7   3RD   WORD OF EBANK X    00142  1       IN THIS EXAMPLE THIS WORD = CONTENTS OF E7,1402 (ECADR 3402)
000343:                                                                                                  #            .                                   1
000344:                                                                                                  #            .                                   1
000345:                                                                                                  #            .                                   1
000346:                                                                                                  #         260D   256TH WORD OF EBANK X    03777  1       IN THIS EXAMPLE THIS WORD = CONTENTS OF E7,1777 (ECADR 3777)
000347:
000348:                                                                                                  #  NOTE- DUMPLOC CONTAINS THE COUNTER AND ECADR FOR EACH WORD BEING SENT.
000349:                                                                                                  #                THE BIT STRUCTURE OF DUMPLOC IS FOLLOWS---
000350:                                                                                                  #                                                X = NOT USED
000351:                                                                                                  #                X ABC EEE RRRRRRRR            ABC = ERASABLE DUMP COUNTER (I.E. ABC = 0,1,2 OR 3 WHICH MEANS THAT
000352:                                                                                                  #                                                    COMPLETE ERASABLE DUMP NUMBER 1,2,3 OR 4 RESPECTIVELY IS IN PROGRESS)
000353:                                                                                                  #                                              EEE = EBANK BITS
000354:                                                                                                  #                                         RRRRRRRR = RELATIVE ADDRESS WITHIN AN EBANK.
000355:
000356: 05,3350           35030        DNDUMPI            CA       ZERO                                  #  INITIALIZE DOWNLINK
000357: 05,3351           54336                           TS       DUMPLOC                               #  ERASABLE DUMP
000358: 05,3352           03414                 +2        TC       SENDID                                #  GO SEND ID AND SYNCH BITS
000359: 05,3353           33362                           CA       LDNDUMP1                              #  SET DNTMGOTO
000360: 05,3354           54335                           TS       DNTMGOTO                              #  TO LOCATION FOR NEXT PASS
000361: 05,3355           30025                           CA       TIME1                                 #  PLACE TIME1
000362: 05,3356           56001                           XCH      L                                     #  INTO L
000363: 05,3357           30336                           CA       DUMPLOC                               #  AND ECADR OF THIS EBANK INTO A
000364: 05,3360           13342                           TCF      DNTMEXIT                              #  SEND DUMPLOC AND TIME1
000365:
000366: 05,3361           03363        LDNDUMP            ADRES    DNDUMP
000367: 05,3362           03376        LDNDUMP1           ADRES    DNDUMP1
000368:
000369: 05,3363           35025        DNDUMP             CA       TWO                                   #  INCREMENT ECADR IN DUMPLOC
000370: 05,3364           26336                           ADS      DUMPLOC                               #  TO NEXT DP WORD TO BE
000371: 05,3365           74371                           MASK     LOW8                                  #  DUMPED AND SAVE IT.
000372: 05,3366           10000                           CCS      A                                     #  IS THIS THE BEGINNING OF A NEW EBANK
000373: 05,3367           13400                           TCF      DNDUMP2                               #  NO- THEN CONTINUE DUMPING
000374: 05,3370           30336                           CA       DUMPLOC                               #  YES- IS THIS THE END OF THE
000375: 05,3371           70333                           MASK     DUMPCNT                               #  N TH (N = 1 TO 4) COMPLETE ERASABLE
000376: 05,3372           77674                           MASK     PRIO34                                #  DUMP (BIT14 FOR 4, BIT13 FOR 2 OR BIT12
000377: 05,3373           10000                           CCS      A                                     #  FOR 1 COMPLETE ERASABLE DUMP(S)).
000378: 05,3374           13155                           TCF      DNPHASE1                              #  YES- START SENDING INTERRUPTED DOWNLIST
000379:                                                                                                  #  AGAIN
000380: 05,3375           13352                           TCF      DNDUMPI    +2                         #  NO- GO BACK AND INITIALIZE NEXT BANK
000381:
000382: 05,3376           33361        DNDUMP1            CA       LDNDUMP                               #  SET DNTMGOTO
000383: 05,3377           54335                           TS       DNTMGOTO                              #  FOR WORDS 3 TO 256D OF CURRENT EBANK
000384:
000385: 05,3400           30336        DNDUMP2            CA       DUMPLOC
000386: 05,3401           54003                           TS       EBANK                                 #  SET EBANK
000387: 05,3402           74371                           MASK     LOW8                                  #  ISOLATE RELATIVE ADDRESS.
000388: 05,3403           54002                           TS       Q                                     #  (NOTE: MASK INSTRUCTION IS USED TO PICK
000389: 05,3404           35027                           CA       NEG0                                  #  UP ERASABLE REGISTERS SO THAT EDITING
000390: 05,3405           54001                           TS       L                                     #  REGISTERS 20-23 WILL NOT BE ALTERED.)
000391: 05,3406           50002                           INDEX    Q
000392: 05,3407  E3,1400                                  EBANK=   1400                                  #  PICK UP LOW ORDER REGISTER OF PAIR
000393: 05,3407           71401                           MASK     1401                                  #  OF ERASABLE REGISTERS.
000394: 05,3410           56001                           XCH      L
000395: 05,3411           50002                           INDEX    Q                                     #  PICK UP HIGH ORDER REGISTER OF PAIR
000396: 05,3412           71400                           MASK     1400                                  #  OF ERASABLE REGISTERS.
000397: 05,3413     0340                                  EBANK=   DNTMBUFF
000398: 05,3413           13342                           TCF      DNTMEXIT                              #  GO SEND THEM
000399:
000400: 05,3414           00006        SENDID             EXTEND                                         #  **ENTRANCE USED BY ERASABLE DUMP PROG.**
000401: 05,3415           22335                           QXCH     DNTMGOTO                              #  SET DNTMGOTO SO NEXT TIME PROG WILL GO
000402: 05,3416           35061                           CAF      ERASID                                #  TO LOCATION FOLLOWING :TC SENDID:
000403:
000404: 05,3417           54001                           TS       L                                     #  **ENTRANCE USED BY REGULAR DOWNLINK PG**
000405: 05,3420           03246                           TC       WOZERO                                #  GO SET WORD ORDER CODE TO ZERO
000406: 05,3421           32000                           CAF      LOWIDCOD                              #  PLACE SPECIAL ID CODE INTO L
000407: 05,3422           56001                           XCH      L                                     #  AND ID BACK INTO A
000408: 05,3423           13342                           TCF      DNTMEXIT                              #  SEND DOWNLIST ID CODE(S).
000409:

End of include-file DOWN-TELEMETRY_PROGRAM.agc.  Parent file is MAIN.agc


