
Source Code


000002:                                                                                                  ## Copyright:   Public domain.
000003:                                                                                                  ## Filename:    DOWNLINK_LISTS.agc
000004:                                                                                                  ## Purpose:     A section of a reconstructed, mixed version of Sundance
000005:                                                                                                  ##              It is part of the reconstructed source code for the Lunar
000006:                                                                                                  ##              Module's (LM) Apollo Guidance Computer (AGC) for Apollo 9.
000007:                                                                                                  ##              No original listings of this program are available;
000008:                                                                                                  ##              instead, this file was created via disassembly of dumps
000009:                                                                                                  ##              of various revisions of Sundance core rope modules.
000010:                                                                                                  ## Assembler:   yaYUL
000011:                                                                                                  ## Contact:     Ron Burkey <info@sandroid.org>.
000012:                                                                                                  ## Website:     www.ibiblio.org/apollo/index.html
000013:                                                                                                  ## Mod history: 2020-06-17 MAS  Created from Luminary 69.
000014:
000015:                                                                                                  ## Sundance 292
000016:
000017: 22,2000                                           BANK     22
000018: 05,2000                                           SETLOC   DOWNTELM
000019: 05,2000                                           BANK
000020:
000021: 05,2000     0340                                  EBANK=   DNTMBUFF
000022:
000023:                                                                                                  #  SPECIAL DOWNLINK OP CODES
000024:                                                                                                  #        OP CODE  ADDRESS(EXAMPLE) SENDS..     BIT 15  BITS 14-12 BITS 11
000025:                                                                                                  #                                                                      -0
000026:                                                                                                  #        ------  ----------      ----------    ------  ---------- -------
000027:                                                                                                  #                                                                      --
000028:                                                                                                  #        1DNADR  TIME2           (2 AGC WDS)     0         0      ECADR
000029:                                                                                                  #        2DNADR  TEPHEM          (4 AGC WDS)     0         1      ECADR
000030:                                                                                                  #        3DNADR  VGBODY          (6 AGC WDS)     0         2      ECADR
000031:                                                                                                  #        4DNADR  STATE           (8 AGC WDS)     0         3      ECADR
000032:                                                                                                  #        5DNADR  UPBUFF          (10 AGC WDS)    0         4      ECADR
000033:                                                                                                  #        6DNADR  DSPTAB          (12 AGC WDS)    0         5      ECADR
000034:                                                                                                  #        DNCHAN  30              CHANNELS        0         7      CHANNEL
000035:                                                                                                  #                                                                 ADDRESS
000036:                                                                                                  #        DNPTR   NEXTLIST        POINTS TO NEXT  0         6      ADRES
000037:                                                                                                  #                                 LIST.
000038:
000039:                                                                                                  #  DOWNLIST FORMAT DEFINITIONS AND RULES-
000040:                                                                                                  #  1. END OF A LIST = -XDNADR (X = 1 TO 6), -DNPTR, OR -DNCHAN.
000041:                                                                                                  #  2. SNAPSHOT SUBLIST = LIST WHICH STARTS WITH A -1DNADR.
000042:                                                                                                  #  3. SNAPSHOT SUBLIST CAN ONLY CONTAIN 1DNADRS.
000043:                                                                                                  #  4. TIME2 1DNADR MUST BE LOCATED IN THE CONTROL LIST OF A DOWNLIST.
000044:                                                                                                  #  5. ERASABLE DOWN TELEMETRY WORDS SHOULD BE GROUPED IN SEQUENTIAL
000045:                                                                                                  #     LOCATIONS AS MUCH AS POSSIBLE TO SAVE STORAGE USED BY DOWNLINK LISTS.
000046:
000047: 05,2000                                           COUNT*   $$/DLIST
000048: 05,2000                        ERASZERO           EQUALS   7
000049: 05,2000  0000007               UNKNOWN            EQUALS   ERASZERO
000050: 05,2000  0000007               SPARE              EQUALS   ERASZERO                              #  USE SPARE TO INDICATE AVAILABLE SPACE
000051: 05,2000           77340        LOWIDCOD           OCT      77340                                 #  LOW ID CODE
000052:
000053:
000054: 05,2001  05,2101               NOMDNLST           EQUALS   LMCSTADL                              #  FRESH START AND POST P27 DOWNLIST
000055:
000056: 05,2001  05,2001               AGSLIST            EQUALS   LMAGSIDL
000057:
000058: 05,2001  05,2001               UPDNLIST           EQUALS   LMAGSIDL                              #  UPDATE PROGRAM (P27) DOWNLIST
000059:
000060:                                                                                                  #  LM AGS INITIALIZATION AND UPDATE DOWNLIST
000061:
000062:                                                                                                  #      -----------------  CONTROL LIST  --------------------------
000063:
000064: 05,2001                        LMAGSIDL           EQUALS                                         #  SEND IO BY SPECIAL CODING
000065: 05,2001           32027                           DNPTR    LMAGSI01                              #  COLLECT SNAPSHOT
000066: 05,2002           32043                           DNPTR    LMAGSI02                              #  SEND SNAPSHOT
000067: 05,2003           16215                           4DNADR   AGSBUFF    +7                         #  AGSBUFF+7...+13D,GARBAGE
000068: 05,2004           32061                           DNPTR    LMAGSI04                              #  COMMON DATA
000069: 05,2005           00007                           1DNADR   SPARE
000070: 05,2006           00007                           1DNADR   SPARE
000071: 05,2007           00007                           1DNADR   SPARE
000072: 05,2010           02016                           1DNADR   AGSK                                  #  AGSK,+1
000073: 05,2011           32063                           DNPTR    LMAGSI05                              #  COMMON DATA
000074: 05,2012           00024                           1DNADR   TIME2                                 #  TIME2/1
000075: 05,2013           32045                           DNPTR    LMAGSI03                              #  COLLECT SNAPSHOT
000076: 05,2014           32043                           DNPTR    LMAGSI02                              #  SEND SNAPSHOT
000077: 05,2015           05205                           2DNADR   REDOCTR                               #  REDOCTR,THETAD,+1,+2
000078: 05,2016           00007                           1DNADR   SPARE
000079: 05,2017           00007                           1DNADR   SPARE
000080: 05,2020           32061                           DNPTR    LMAGSI04                              #  COMMON DATA
000081: 05,2021           00007                           1DNADR   SPARE
000082: 05,2022           00007                           1DNADR   SPARE
000083: 05,2023           00007                           1DNADR   SPARE
000084: 05,2024           01101                           1DNADR   RADMODES                              #  RADMODES,DAPBOOLS
000085: 05,2025           03041                           1DNADR   SUMRATEQ                              #  SUMRATEQ,SUMRATER
000086: 05,2026           45706                           -DNPTR   LMAGSI06                              #  COMMON DATA
000087:
000088:                                                                                                  #      -----------------  SUB-LISTS   ----------------------------
000089:
000090: 05,2027           75567        LMAGSI01           -1DNADR  AGSBUFF    +2                         #  AGSBUFF+2,+3             SNAPSHOT
000091: 05,2030           02212                           1DNADR   AGSBUFF    +4                         #  AGSBUFF+4,+5
000092: 05,2031           02222                           1DNADR   AGSBUFF    +12D                       #  AGSBUFF+12D,GARBAGE
000093: 05,2032           02207                           1DNADR   AGSBUFF    +1                         #  AGSBUFF+1,+2
000094: 05,2033           02211                           1DNADR   AGSBUFF    +3                         #  AGSBUFF+3,+4
000095: 05,2034           02213                           1DNADR   AGSBUFF    +5                         #  AGSBUFF+5,+6
000096: 05,2035           02223                           1DNADR   AGSBUFF    +13D                       #  AGSBUFF+13D, GARBAGE
000097: 05,2036           02214                           1DNADR   AGSBUFF    +6                         #  AGSBUFF+6,+7
000098: 05,2037           02216                           1DNADR   AGSBUFF    +8D                        #  AGSBUFF+8D,+9D
000099: 05,2040           02220                           1DNADR   AGSBUFF    +10D                       #  AGSBUFF+10D,+11D
000100: 05,2041           02222                           1DNADR   AGSBUFF    +12D                       #  AGSBUFF+12,GARBAGE
000101: 05,2042           75571                           -1DNADR  AGSBUFF                               #  AGSBUFF+0,+1
000102:
000103: 05,2043           24340        LMAGSI02           6DNADR   DNTMBUFF                              #  SEND SNAPSHOT
000104: 05,2044           57423                           -5DNADR  DNTMBUFF   +12D
000105:
000106: 05,2045           76556        LMAGSI03           -1DNADR  RN         +2                         #  RN +2,+3                 SNAPSHOT
000107: 05,2046           01223                           1DNADR   RN         +4                         #  RN +4,+5
000108: 05,2047           01225                           1DNADR   VN                                    #  VN,+1
000109: 05,2050           01227                           1DNADR   VN         +2                         #  VN +2,+3
000110: 05,2051           01231                           1DNADR   VN         +4                         #  VN +4,+5
000111: 05,2052           01233                           1DNADR   PIPTIME                               #  PIPTIME,+1
000112: 05,2053           03231                           1DNADR   ACCSET                                #  GARBAGE,CDUXD
000113: 05,2054           03233                           1DNADR   CDUYD                                 #  CDUYD,CDUZD
000114: 05,2055           03017                           1DNADR   OMEGAP                                #  OMEGAP,OMEGAQ
000115: 05,2056           03021                           1DNADR   OMEGAR                                #  OMEGAR,GARBAGE
000116: 05,2057           00007                           1DNADR   SPARE
000117: 05,2060           76560                           -1DNADR  RN                                    #  RN,+1
000118:
000119: 05,2061           24302        LMAGSI04           6DNADR   COMPNUMB                              #  COMPNUMB,UPOLDMOD,UPVERB,UPCOUNT,
000120:                                                                                                  #  UPBUFF+0...+7            COMMON DATA
000121: 05,2062           53461                           -6DNADR  UPBUFF     +8D                        #  UPBUFF +8D...+19D
000122:
000123: 05,2063           01243        LMAGSI05           1DNADR   MASS                                  #  MASS,+1                  COMMON DATA
000124: 05,2064           01432                           1DNADR   RSBBQ                                 #  RSBBQ,+1
000125: 05,2065           04036                           2DNADR   CDUS                                  #  CDUS,PIPAX,PIPAY,PIPAZ
000126: 05,2066           04032                           2DNADR   CDUX                                  #  CDUX,CDUY,CDUZ,CDUT
000127: 05,2067           20074                           5DNADR   STATE                                 #  STATE+0...+9D (FLAGWORDS)
000128: 05,2070           52753                           -6DNADR  DSPTAB                                #  DSPTAB TABLES
000129:
000130: 05,2071           10372        LMAGSI06           3DNADR   CADRFLSH                              #  CADRFLSH,+1,+2,FAILREG,+1,+2
000131: 05,2072           04032                           2DNADR   CDUX                                  #  CDUX,CDUY,CDUZ,CDUT
000132: 05,2073           01304                           1DNADR   IMODES30                              #  IMODES30,IMODES33
000133: 05,2074           34011                           DNCHAN   11                                    #  CHANNELS11,12
000134: 05,2075           34013                           DNCHAN   13                                    #  CHANNELS13,14
000135: 05,2076           34030                           DNCHAN   30                                    #  CHANNELS30,31
000136: 05,2077           34032                           DNCHAN   32                                    #  CHANNELS32,33
000137: 05,2100           52753                           -6DNADR  DSPTAB                                #  DSPTAB TABLES
000138:
000139:                                                                                                  #      ---------------------------------------------------------
000140:
000141:                                                                                                  #  LM COAST AND ALIGNMENT DOWNLIST
000142:
000143:                                                                                                  #      -----------------  CONTROL LIST  --------------------------
000144:
000145: 05,2101                        LMCSTADL           EQUALS                                         #  SEND ID BY SPECIAL CODING
000146: 05,2101           32131                           DNPTR    LMCSTA01                              #  COLLECT SNAPSHOT
000147: 05,2102           32043                           DNPTR    LMCSTA02                              #  SEND SNAPSHOT
000148: 05,2103           05342                           2DNADR   DNLRVELX                              #  DNLRVELX,DNLRVELY,DNLRVELZ,DNLRALT
000149: 05,2104           01354                           1DNADR   TEVENT                                #  TEVENT,+1
000150: 05,2105           01337                           1DNADR   DNRRANGE                              #  DNRRANGE,DNRRDOT
000151: 05,2106           25735                           6DNADR   REFSMMAT                              #  REFSMMAT+0...+11D
000152: 05,2107           26706                           6DNADR   STARAD                                #  STARAD+0...+11D
000153: 05,2110           12722                           3DNADR   STARAD     +12D                       #  STARAD+12D...+17D
000154: 05,2111           02016                           1DNADR   AGSK                                  #  AGSK,+1
000155: 05,2112           32063                           DNPTR    LMCSTA05                              #  COMMON DATA
000156: 05,2113           00024                           1DNADR   TIME2                                 #  TIME2/1
000157: 05,2114           32145                           DNPTR    LMCSTA03                              #  COLLECT SNAPSHOT
000158: 05,2115           32043                           DNPTR    LMCSTA02                              #  SEND SNAPSHOT
000159: 05,2116           05342                           2DNADR   DNLRVELX                              #  DNLRVELX,DNLRVELY,DNLRVELZ,DNLRALT
000160: 05,2117           12737                           3DNADR   OGC                                   #  OGC,+1,IGC,+1,MGC,+1
000161: 05,2120           12730                           3DNADR   STAR                                  #  STAR+0...+5
000162: 05,2121           05205                           2DNADR   REDOCTR                               #  REDOCTR,THETAD,+1,+2
000163: 05,2122           00007                           1DNADR   SPARE
000164: 05,2123           00007                           1DNADR   SPARE
000165: 05,2124           02755                           1DNADR   BESTI                                 #  BESTI,BESTJ
000166: 05,2125           26760                           6DNADR   STARSAV1                              #  STARSAV1+0...+5, STARSAV2+0...+5
000167: 05,2126           01101                           1DNADR   RADMODES                              #  RADMODES,DAPBOOLS
000168: 05,2127           03041                           1DNADR   SUMRATEQ                              #  SUMRATEQ,SUMRATER
000169: 05,2130           45706                           -DNPTR   LMCSTA06                              #  COMMON DATA
000170:
000171:                                                                                                  #      -----------------  SUB-LISTS   ----------------------------
000172:
000173: 05,2131           76054        LMCSTA01           -1DNADR  R-OTHER    +2                         #  R-OTHER+2,+3             SNAPSHOT
000174: 05,2132           01725                           1DNADR   R-OTHER    +4                         #  R-OTHER+4,+5
000175: 05,2133           01727                           1DNADR   V-OTHER                               #  V-OTHER,+1
000176: 05,2134           01731                           1DNADR   V-OTHER    +2                         #  V-OTHER+2,+3
000177: 05,2135           01733                           1DNADR   V-OTHER    +4                         #  V-OTHER+4,+5
000178: 05,2136           01570                           1DNADR   T-OTHER                               #  T-OTHER,+1
000179: 05,2137           03231                           1DNADR   ACCSET                                #  GARBAGE,CDUXD
000180: 05,2140           03233                           1DNADR   CDUYD                                 #  CDUYD,CDUZD
000181: 05,2141           03017                           1DNADR   OMEGAP                                #  OMEGAP,OMEGAQ
000182: 05,2142           03021                           1DNADR   OMEGAR                                #  OMEGAR,GARBAGE
000183: 05,2143           01322                           1DNADR   LASTYCMD                              #  LASTYCMD,LASTXCMD
000184: 05,2144           76056                           -1DNADR  R-OTHER                               #  R-OTHER+0,+1
000185:
000186: 05,2145  05,2043               LMCSTA02           EQUALS   LMAGSI02                              #  COMMON DOWNLIST DATA
000187:
000188: 05,2145           76556        LMCSTA03           -1DNADR  RN         +2                         #  RN +2,+3                 SNAPSHOT
000189: 05,2146           01223                           1DNADR   RN         +4                         #  RN +4,+5
000190: 05,2147           01225                           1DNADR   VN                                    #  VN,+1
000191: 05,2150           01227                           1DNADR   VN         +2                         #  VN +2,+3
000192: 05,2151           01231                           1DNADR   VN         +4                         #  VN +4,+5
000193: 05,2152           01233                           1DNADR   PIPTIME                               #  PIPTIME,+1
000194: 05,2153           03231                           1DNADR   ACCSET                                #  GARBAGE,CDUXD
000195: 05,2154           03233                           1DNADR   CDUYD                                 #  CDUYD,CDUZD
000196: 05,2155           03017                           1DNADR   OMEGAP                                #  OMEGAP,OMEGAQ
000197: 05,2156           03021                           1DNADR   OMEGAR                                #  OMEGAR,GARBAGE
000198: 05,2157           01322                           1DNADR   LASTYCMD                              #  LASTYCMD,LASTXCMD
000199: 05,2160           76560                           -1DNADR  RN                                    #  RN,+1
000200:
000201: 05,2161  05,2063               LMCSTA05           EQUALS   LMAGSI05                              #  COMMON DOWNLIST DATA
000202:
000203: 05,2161  05,2071               LMCSTA06           EQUALS   LMAGSI06                              #  COMMON DOWNLIST DATA
000204:
000205:                                                                                                  #      ---------------------------------------------------------
000206:
000207:                                                                                                  #  LM POWERED DOWNLIST
000208:
000209:                                                                                                  #      -----------------  CONTROL LIST  --------------------------
000210:
000211: 05,2161                        LMPWRDDL           EQUALS                                         #  SEND ID BY SPECIAL CODING
000212: 05,2161           32131                           DNPTR    LMPWRD01                              #  COLLECT SNAPSHOT
000213: 05,2162           32043                           DNPTR    LMPWRD02                              #  SEND SNAPSHOT
000214: 05,2163           05342                           2DNADR   DNLRVELX                              #  DNLRVELX,DNLRVELY,DNLRVELZ,DNLRALT
000215: 05,2164           01354                           1DNADR   TEVENT                                #  TEVENT,+1
000216: 05,2165           01337                           1DNADR   DNRRANGE                              #  DNRRANGE,DNRRDOT
000217: 05,2166           25735                           6DNADR   REFSMMAT                              #  REFSMMAT+0...+11D
000218: 05,2167           11235                           3DNADR   GDT/2                                 #  GDT/2+0...+5
000219: 05,2170           05205                           2DNADR   REDOCTR                               #  REDOCTR,THETAD,+1,+2
000220: 05,2171           07240                           2DNADR   OMEGAPD                               #  OMEGAPD,OMEGAQD,OMEGARD,GARBAGE
000221: 05,2172           13710                           3DNADR   VRPREV                                #  VRPREV+0...+5
000222: 05,2173           32063                           DNPTR    LMPWRD05                              #  COMMON DATA
000223: 05,2174           00024                           1DNADR   TIME2                                 #  TIME2/1
000224: 05,2175           32145                           DNPTR    LMPWRD03                              #  COLLECT SNAPSHOT
000225: 05,2176           32043                           DNPTR    LMPWRD02                              #  SEND SNAPSHOT
000226: 05,2177           05342                           2DNADR   DNLRVELX                              #  DNLRVELX,DNLRVELY,DNLRVELZ,DNLRALT
000227: 05,2200           03424                           1DNADR   TIG                                   #  TIG,+1
000228: 05,2201           13673                           3DNADR   VGTIG                                 #  VGTIG+0...+5
000229: 05,2202           03605                           1DNADR   CENTANG                               #  CENTANG,+1
000230: 05,2203           03545                           1DNADR   PIPTIME1                              #  PIPTIME,+1
000231: 05,2204           11211                           3DNADR   DELV                                  #  DELV+0...+5
000232: 05,2205           03473                           1DNADR   TGO                                   #  TGO,+1
000233: 05,2206           03417                           1DNADR   PIF                                   #  PIF,+1
000234: 05,2207           03622                           1DNADR   TTPI                                  #  TTPI,+1
000235: 05,2210           13362                           3DNADR   DELVEET3                              #  DELVEET3+0...+5
000236: 05,2211           02264                           1DNADR   ELEV                                  #  ELEV,+1
000237: 05,2212           03615                           1DNADR   TPASS4                                #  TPASS4,+1
000238: 05,2213           01101                           1DNADR   RADMODES                              #  RADMODES,DAPBOOLS
000239: 05,2214           03022                           1DNADR   ALPHAQ                                #  ALPHAQ,ALPHAR
000240: 05,2215           45706                           -DNPTR   LMPWRD06                              #  COMMON DATA
000241:
000242:                                                                                                  #      -----------------  SUB-LISTS  ----------------------------
000243:
000244: 05,2216  05,2131               LMPWRD01           EQUALS   LMCSTA01                              #  COMMON DOWNLIST DATA
000245:
000246: 05,2216  05,2043               LMPWRD02           EQUALS   LMAGSI02                              #  COMMON DOWNLIST DATA
000247:
000248: 05,2216  05,2145               LMPWRD03           EQUALS   LMCSTA03                              #  COMMON DOWNLIST DATA
000249:
000250: 05,2216  05,2063               LMPWRD05           EQUALS   LMAGSI05                              #  COMMON DOWNLIST DATA
000251:
000252: 05,2216  05,2071               LMPWRD06           EQUALS   LMAGSI06                              #  COMMON DOWNLIST DATA
000253:
000254:
000255:                                                                                                  #      -----------------------------------------------------------
000256:
000257:                                                                                                  #  LM RENDEZVOUS AND PRE-THRUST DOWNLIST
000258:
000259:                                                                                                  #      -----------------  CONTROL LIST   --------------------------
000260:
000261: 05,2216                        LMRENDDL           EQUALS                                         #  SEND ID BY SPECIAL CODING
000262: 05,2216           32131                           DNPTR    LMREND01                              #  COLLECT SNAPSHOT
000263: 05,2217           32043                           DNPTR    LMREND02                              #  SEND SNAPSHOT
000264: 05,2220           05342                           2DNADR   DNLRVELX                              #  DNLRVELX,DNLRVELY,DNLRVELZ,DNLRALT
000265: 05,2221           00007                           1DNADR   SPARE
000266: 05,2222           01337                           1DNADR   DNRRANGE                              #  DNRRANGE,DNRRDOT
000267: 05,2223           07444                           2DNADR   AIG                                   #  AIG,AMG,AOG,TRKMKCNT
000268: 05,2224           03743                           1DNADR   TANGNB                                #  TANGNB,+1
000269: 05,2225           07726                           2DNADR   MKTIME                                #  MKTIME,+1,RM,+1
000270: 05,2226           03720                           1DNADR   RDOTM                                 #  RDOTM,+1
000271: 05,2227           05700                           2DNADR   X789                                  #  X789+0..+3
000272: 05,2230           03620                           1DNADR   TCSI                                  #  TCSI,+1
000273: 05,2231           12302                           3DNADR   DELVEET1                              #  DELVEET+0-..+5
000274: 05,2232           00007                           1DNADR   SPARE
000275: 05,2233           00007                           1DNADR   SPARE
000276: 05,2234           05205                           2DNADR   REDOCTR                               #  REDOCTR,THETAD,+1,+2
000277: 05,2235           32063                           DNPTR    LMREND05                              #  COMMON DATA
000278: 05,2236           00024                           1DNADR   TIME2                                 #  TIME2/1
000279: 05,2237           32145                           DNPTR    LMREND03                              #  COLLECT SNAPSHOT
000280: 05,2240           32043                           DNPTR    LMREND02                              #  SEND SNAPSHOT
000281: 05,2241           05342                           2DNADR   DNLRVELX                              #  DNLRVELX,DNLRVELY,DNLRVELZ,DNLRALT
000282: 05,2242           03424                           1DNADR   TIG                                   #  TIG,+1
000283: 05,2243           12266                           3DNADR   DELVSLV                               #  DELVSLV+0...+5
000284: 05,2244           03605                           1DNADR   CENTANG                               #  CENTANG,+1
000285: 05,2245           03370                           1DNADR   TCDH                                  #  TCDH,+1
000286: 05,2246           12310                           3DNADR   DELVEET2                              #  DELVEET2+0...+5
000287: 05,2247           03566                           1DNADR   DIFFALT                               #  DIFFALT,+1
000288: 05,2250           03453                           1DNADR   NN                                    #  NN,+1
000289: 05,2251           03622                           1DNADR   TTPI                                  #  TTPI,+1
000290: 05,2252           13362                           3DNADR   DELVEET3                              #  DELVEET3+0...+5
000291: 05,2253           02264                           1DNADR   ELEV                                  #  ELEV,+1
000292: 05,2254           03615                           1DNADR   TPASS4                                #  TPASS4,+1
000293: 05,2255           01101                           1DNADR   RADMODES                              #  RADMODES,DAPBOOLS
000294: 05,2256           03041                           1DNADR   SUMRATEQ                              #  SUMRATEQ,SUMRATER
000295: 05,2257           45706                           -DNPTR   LMREND06                              #  COMMON DATA
000296:
000297:                                                                                                  #      -----------------  SUB-LISTS   ----------------------------
000298:
000299: 05,2260  05,2131               LMREND01           EQUALS   LMCSTA01                              #  COMMON DOWNLIST DATA
000300:
000301: 05,2260  05,2043               LMREND02           EQUALS   LMAGSI02                              #  COMMON DOWNLIST DATA
000302:
000303: 05,2260  05,2145               LMREND03           EQUALS   LMCSTA03                              #  COMMON DOWNLIST DATA
000304:
000305: 05,2260  05,2063               LMREND05           EQUALS   LMAGSI05                              #  COMMON DOWNLIST DATA
000306:
000307: 05,2260  05,2071               LMREND06           EQUALS   LMAGSI06                              #  COMMON DOWNLIST DATA
000308:
000309:                                                                                                  #      ---------------------------------------------------------
000310:
000311: 05,2260           02101        DNTABLE            GENADR   LMCSTADL                              #  LM COAST AND ALIGN DOWNLIST
000312: 05,2261           02001                           GENADR   LMAGSIDL                              #  LM AGS INITIALIZATION/UPDATE DOWNLIST
000313: 05,2262           02216                           GENADR   LMRENDDL                              #  LM RENDEZVOUS AND PRE-THRUST DOWNLIST
000314: 05,2263           02161                           GENADR   LMPWRDDL                              #  LM POWERED DOWNLIST
000315:
000316:                                                                                                  #      ---------------------------------------------------------------
000317:
000318:

End of include-file DOWNLINK_LISTS.agc.  Parent file is MAIN.agc


