
Source Code


000002:                                                                                                  ## Copyright:   Public domain.
000003:                                                                                                  ## Filename:    ERASABLE_ASSIGNMENTS.agc
000004:                                                                                                  ## Purpose:     A section of a reconstructed, mixed version of Sundance
000005:                                                                                                  ##              It is part of the reconstructed source code for the Lunar
000006:                                                                                                  ##              Module's (LM) Apollo Guidance Computer (AGC) for Apollo 9.
000007:                                                                                                  ##              No original listings of this program are available;
000008:                                                                                                  ##              instead, this file was created via disassembly of dumps
000009:                                                                                                  ##              of various revisions of Sundance core rope modules.
000010:                                                                                                  ## Assembler:   yaYUL
000011:                                                                                                  ## Contact:     Ron Burkey <info@sandroid.org>.
000012:                                                                                                  ## Website:     www.ibiblio.org/apollo/index.html
000013:                                                                                                  ## Mod history: 2020-06-17 MAS  Created from Luminary 69.
000014:                                                                                                  ##              2020-07-27 MAS  Corrected VVARMIN to be double-precision
000015:                                                                                                  ##                              instead of triple-precision.
000016:
000017:                                                                                                  ## This log section assembles such that the addresses of all erasables match
000018:                                                                                                  ## their locations for Sundance 306, to the best of our knowledge. The order
000019:                                                                                                  ## of definitions, and especially the comments, may not reflect the original
000020:                                                                                                  ## listing.
000021:
000022:                                                                                                  #  CONVENTIONS AND NOTATIONS UTILIZED FOR ERASABLE ASSIGNMENTS.
000023:
000024:                                                                                                  #           EQUALS IS USED IN TWO WAYS.  IT IS OFTEN USED TO CHAIN A GROUP
000025:                                                                                                  #                  OF ASSIGNMENTS SO THAT THE GROUP MAY BE MOVED WITH THE
000026:                                                                                                  #                  CHANGING OF ONLY ONE CARD.  EXAMPLE.
000027:
000028:                                                                                                  #                                          X        EQUALS  START
000029:                                                                                                  #                                          Y        EQUALS  X       +SIZE.X
000030:                                                                                                  #                                          Z        EQUALS  Y       +SIZE.Y
000031:
000032:                                                                                                  #                  (X, Y, AND Z ARE CONSECUTIVE AND BEGIN AT START.       )
000033:                                                                                                  #                  (SIZE.X AND SIZE.Y ARE THE RESPECTIVE SIZES OF X AND Y,
000034:                                                                                                  #                   USUALLY NUMERIC,  IE. 1, 2, 6, 18D ETC.                )
000035:
000036:                                                                                                  #           EQUALS OFTEN IMPLIES THE SHARING OF REGISTERS (DIFFERENT NAMES
000037:                                                                                                  #                  AND DIFFERENT DATA).  EXAMPLE.
000038:
000039:                                                                                                  #                                          X        EQUALS Y
000040:
000041:                                                                                                  #           = MEANS THAT MULTIPLE NAMES HAVE BEEN GIVEN TO THE SAME DATA.
000042:                                                                                                  #                  (THIS IS LOGICAL EQUIVALENCE, NOT SHARING)  EXAMPLE.
000043:
000044:                                                                                                  #                                          X        =      Y
000045:
000046:                                                                                                  #           THE SIZE AND UTILIZATION OF AN ERASABLE ARE OFTEN INCLUDED IN
000047:                                                                                                  #           THE COMMENTS IN THE FOLLOWING FORM.  M(SIZE)N.
000048:
000049:                                                                                                  #                  M REFERS TO THE MOBILITY OF THE ASSIGNMENT.
000050:                                                                                                  #                       B   MEANS THAT THE SYMBOL IS REFERENCED BY BASIC
000051:                                                                                                  #                           INSTRUCTIONS AND THUS IS E-BANK SENSITIVE.
000052:                                                                                                  #                       I   MEANS THAT THE SYMBOL IS REFERENCED ONLY BY
000053:                                                                                                  #                           INTERPRETIVE INSTRUCTIONS, AND IS THUS E-BANK
000054:                                                                                                  #                           INSENSITIVE AND MAY APPEAR IN ANY E-BANK.
000055:
000056:                                                                                                  #                  SIZE IS THE NUMBER OF REGISTERS INCLUDED BY THE SYMBOL.
000057:
000058:                                                                                                  #                  N INDICATES THE NATURE OR PERMANENCE OF THE CONTENTS.
000059:                                                                                                  #                       PL  MEANS THAT THE CONTENTS ARE PAD LOADED.
000060:                                                                                                  #                       DSP MEANS THAT THE REGISTER IS USED FOR A DISPLAY.
000061:                                                                                                  #                       PRM MEANS THAT THE REGISTER IS PERMANENT, IE. IT
000062:                                                                                                  #                           IS USED DURING THE ENTIRE MISSION FOR ONE
000063:                                                                                                  #                           PURPOSE AND CANNOT BE SHARED.
000064:                                                                                                  #                       TMP MEANS THAT THE REGISTER IS USED TEMPORARILY OR
000065:                                                                                                  #                           IS A SCRATCH REGISTER FOR THE ROUTINE TO WHICH
000066:                                                                                                  #                           IT IS ASSIGNED.  THAT IS, IT NEED NOT BE SET
000067:                                                                                                  #                           PRIOR TO INVOCATION OF THE ROUTINE NOR DOES IT
000068:                                                                                                  #                           CONTAIN USEFUL OUTPUT TO ANOTHER ROUTINE.  THUS
000069:
000070:                                                                                                  #                           IT MAY BE SHARED WITHANY OTHER ROUTINE WHICH
000071:                                                                                                  #                           IS NOT ACTIVE IN PARALLEL.
000072:                                                                                                  #                      IN   MEANS INPUT TO THE ROUTINE AND IT IS PROBABLY
000073:                                                                                                  #                           TEMPORARY FOR A HIGHER-LEVEL ROUTINE/PROGRAM.
000074:                                                                                                  #                      OUT  MEANS OUTPUT FROM THE ROUTINE, PROBABLY
000075:                                                                                                  #                           TEMPORARY FOR A HIGHER-LEVEL ROUTINE/PROGRAM.
000076:
000077:                                                                                                  #           SPECIAL REGISTERS.
000078:
000079: 43,2000                        A                  EQUALS   0
000080: 43,2000                        L                  EQUALS   1                                     #  L AND Q ARE BOTH CHANNELS AND REGISTERS.
000081: 43,2000                        Q                  EQUALS   2
000082: 43,2000                        EBANK              EQUALS   3
000083: 43,2000                        FBANK              EQUALS   4
000084: 43,2000                        Z                  EQUALS   5                                     #  ADJACENT TO FBANK AND BBANK FOR DXCH Z
000085: 43,2000                        BBANK              EQUALS   6                                     #  (DTCB) AND DXCH FBANK (DTCF).
000086:                                                                                                  #  REGISTER 7 IS A ZERO-SOURCE, USED BY ZL.
000087:
000088: 43,2000                        ARUPT              EQUALS   10                                    #  INTERRUPT STORAGE.
000089: 43,2000                        LRUPT              EQUALS   11
000090: 43,2000                        QRUPT              EQUALS   12
000091: 43,2000                        SAMPTIME           EQUALS   13                                    #  SAMPLED TIME 1 & 2.
000092: 43,2000                        ZRUPT              EQUALS   15                                    #  (13 AND 14 ARE SPARES.)
000093: 43,2000                        BANKRUPT           EQUALS   16                                    #  USUALLY HOLDS FBANK OR BBANK.
000094: 43,2000                        BRUPT              EQUALS   17                                    #  RESUME ADDRESS AS WELL.
000095:
000096: 43,2000                        CYR                EQUALS   20
000097: 43,2000                        SR                 EQUALS   21
000098: 43,2000                        CYL                EQUALS   22
000099: 43,2000                        EDOP               EQUALS   23                                    #  EDITS INTERPRETIVE OPERATION CODE PAIRS.
000100:
000101: 43,2000                        TIME2              EQUALS   24
000102: 43,2000                        TIME1              EQUALS   25
000103: 43,2000                        TIME3              EQUALS   26
000104: 43,2000                        TIME4              EQUALS   27
000105: 43,2000                        TIME5              EQUALS   30
000106: 43,2000                        TIME6              EQUALS   31
000107: 43,2000                        CDUX               EQUALS   32
000108: 43,2000                        CDUY               EQUALS   33
000109: 43,2000                        CDUZ               EQUALS   34
000110: 43,2000                        CDUT               EQUALS   35                                    #  REND RADAR TRUNNION CDU
000111: 43,2000                        OPTY               EQUALS   35
000112: 43,2000                        CDUS               EQUALS   36                                    #  REND RADAR SHAFT CDU
000113: 43,2000                        OPTX               EQUALS   36
000114: 43,2000                        PIPAX              EQUALS   37
000115: 43,2000                        PIPAY              EQUALS   40
000116: 43,2000                        PIPAZ              EQUALS   41
000117: 43,2000                        Q-RHCCTR           EQUALS   42                                    #  RHC COUNTER REGISTERS
000118: 43,2000                        P-RHCCTR           EQUALS   43
000119: 43,2000                        R-RHCCTR           EQUALS   44
000120: 43,2000                        INLINK             EQUALS   45
000121: 43,2000                        RNRAD              EQUALS   46
000122: 43,2000                        GYROCMD            EQUALS   47
000123: 43,2000                        CDUXCMD            EQUALS   50
000124: 43,2000                        CDUYCMD            EQUALS   51
000125: 43,2000                        CDUZCMD            EQUALS   52
000126: 43,2000                        CDUTCMD            EQUALS   53                                    #  RADAR TRUNNION COMMAND
000127: 43,2000                        CDUSCMD            EQUALS   54                                    #  RADAR SHAFT COMMAND
000128:
000129: 43,2000                        THRUST             EQUALS   55
000130: 43,2000                        LEMONM             EQUALS   56
000131: 43,2000                        OUTLINK            EQUALS   57
000132: 43,2000                        ALTM               EQUALS   60
000133:
000134:                                                                                                  #           INTERPRETIVE REGISTERS ADDRESSED RELATIVE TO VAC AREA.
000135:
000136: 43,2000                        LVSQUARE           EQUALS   34D                                   #  SQUARE OF VECTOR INPUT TO ABVAL AND UNIT
000137: 43,2000                        LV                 EQUALS   36D                                   #  LENGTH OF VECTOR INPUT TO UNIT.
000138: 43,2000                        X1                 EQUALS   38D                                   #  INTERPRETIVE SPECIAL REGISTERS RELATIVE
000139: 43,2000                        X2                 EQUALS   39D                                   #  TO THE WORK AREA.
000140: 43,2000                        S1                 EQUALS   40D
000141: 43,2000                        S2                 EQUALS   41D
000142: 43,2000                        QPRET              EQUALS   42D
000143:
000144:                                                                                                  #  INPUT/OUTPUT CHANNELS
000145:
000146:                                                                                                  #                                *** CHANNEL ZERO IS TO BE USED IN AN INDEXED OPERATION ONLY. ***
000147: 43,2000  0000001               LCHAN              EQUALS   L
000148: 43,2000  0000002               QCHAN              EQUALS   Q
000149: 43,2000                        HISCALAR           EQUALS   3
000150: 43,2000                        LOSCALAR           EQUALS   4
000151: 43,2000                        CHAN5              EQUALS   5
000152: 43,2000                        CHAN6              EQUALS   6
000153: 43,2000                        SUPERBNK           EQUALS   7                                     #  SUPER-BANK.
000154: 43,2000                        OUT0               EQUALS   10
000155: 43,2000                        DSALMOUT           EQUALS   11
000156: 43,2000                        CHAN12             EQUALS   12
000157: 43,2000                        CHAN13             EQUALS   13
000158: 43,2000                        CHAN14             EQUALS   14
000159: 43,2000                        MNKEYIN            EQUALS   15
000160: 43,2000                        NAVKEYIN           EQUALS   16
000161: 43,2000                        CHAN30             EQUALS   30
000162: 43,2000                        CHAN31             EQUALS   31
000163: 43,2000                        CHAN32             EQUALS   32
000164: 43,2000                        CHAN33             EQUALS   33
000165: 43,2000                        DNTM1              EQUALS   34
000166: 43,2000                        DNTM2              EQUALS   35
000167:                                                                                                  #  END OF CHANNEL ASSIGNMENTS
000168:
000169:                                                                                                  #           FLAGWORDS
000170:
000171:
000172:                                                                                                  #  FLAGWRD0      STATE +0        (000-014)
000173:                                                                                                  #  FLAGWRD1      STATE +1        (015-029)
000174:                                                                                                  #  FLAGWRD2      STATE +2        (030-044)
000175:                                                                                                  #  FLAGWRD3      STATE +3        (045-059)
000176:                                                                                                  #  FLAGWRD4      STATE +4        (060-074)
000177:                                                                                                  #  FLAGWRD5      STATE +5        (075-089)
000178:                                                                                                  #  FLAGWRD6      STATE +6        (090-104)
000179:                                                                                                  #  FLAGWRD7      STATE +7        (105-119)
000180:                                                                                                  #  FLAGWRD8      STATE +8D       (120-134)
000181:                                                                                                  #  FLAGWRD9      STATE +9D       (135-149)
000182:
000183:
000184:                                                                                                  #           SORTED LIST OF
000185:                                                                                                  #           INTERPITIVE SWITCH BIT ASSIGNMENTS
000186:
000187:                                                                                                  #  INTERPRETIVE SWITCH BIT ASSIGNMENTS
000188:
000189:                                                                                                  #  FLAGWORD        DEC. NUMBER     BIT AND FLAG         BIT NAME
000190:
000191:                                                                                                  #  ACMODFLG        032             BIT 13 FLAG 2        ACMODBIT
000192:                                                                                                  #  APSESW          130             BIT 5  FLAG 8        APSESBIT
000193:                                                                                                  #  APSFLAG         018             BIT 12 FLAG 1        APSFLBIT
000194:                                                                                                  #  ASTNFLAG        108             BIT 12 FLAG 7        ASTNBIT
000195:                                                                                                  #  ATTFLAG         104             BIT 1  FLAG 6        ATTFLBIT
000196:                                                                                                  #  ASCNTFLG        103             BIT 2  FLAG 6        ASCNTBIT
000197:                                                                                                  #  AUTMANSW        045             BIT 15 FLAG 3        AUTMNBIT
000198:                                                                                                  #  AVEGFLAG        115             BIT 5  FLAG 7        AVEGFBIT
000199:                                                                                                  #  AVEMIDSW        149             BIT 1  FLAG 9        AVEMDBIT
000200:                                                                                                  #  AVFLAG          040             BIT 5  FLAG 2        AVFLBIT
000201:                                                                                                  #  B29FLAG         013             BIT 2  FLAG 0        B29FLBIT
000202:                                                                                                  #  CALCMAN2        043             BIT 2  FLAG 2        CALC2BIT
000203:                                                                                                  #  CALCMAN3        042             BIT 3  FLAG 2        CALC3BIT
000204:                                                                                                  #  CMOONFLG        123             BIT 12 FLAG 8        CMOONBIT
000205:                                                                                                  #  COGAFLAG        131             BIT 4  FLAG 8        COGAFBIT
000206:                                                                                                  #  COMPUTER        082             BIT 8  FLAG 5        COMPTBIT
000207:                                                                                                  #  CPHIFLAG        000             BIT 15 FLAG 0        CPHIBIT
000208:                                                                                                  #  CULTFLAG        053             BIT 7  FLAG 3        CULTBIT
000209:                                                                                                  #  CYCLESW         035             BIT 10 FLAG 2        CYCLEBIT
000210:                                                                                                  #  DIMOFLAG        059             BIT 1  FLAG 3        DIMOBIT
000211:                                                                                                  #  DMENFLG         081             BIT 9  FLAG 5        DMENFBIT
000212:                                                                                                  #  DRIFTFLG        030             BIT 15 FLAG 2        DRFTBIT
000213:                                                                                                  #  DSKYFLAG        075             BIT 15 FLAG 5        DSKYFBIT
000214:                                                                                                  #  D6OR9FLG        058             BIT 2  FLAG 3        D6OR9BIT
000215:                                                                                                  #  ENGONFLG        083             BIT 7  FLAG 5        ENGONBIT
000216:                                                                                                  #  ERADFLAG        017             BIT 13 FLAG 1        ERADFBIT
000217:                                                                                                  #  ETPIFLAG        038             BIT 7  FLAG 2        ETPIBIT         EQUIVALENT FLAG NAME:  OPTNSW
000218:                                                                                                  #  FINALFLG        039             BIT 6  FLAG 2        FINALBIT
000219:                                                                                                  #  FIRSTFLG        094             BIT 11 FLAG 6        FIRSTBIT
000220:                                                                                                  #  FLAP            142             BIT 8  FLAG 9        FLAPBIT
000221:                                                                                                  #  FLIC            143             BIT 7  FLAG 9        FLICBIT
000222:                                                                                                  #  FLPC            138             BIT 12 FLAG 9        FLPCBIT
000223:                                                                                                  #  FLPI            139             BIT 11 FLAG 9        FLPIBIT
000224:                                                                                                  #  FLP70           137             BIT 13 FLAG 9        FLP70BIT
000225:                                                                                                  #  FLRCS           149             BIT 10 FLAG 9        FLRCSBIT
000226:                                                                                                  #  FLUNDISP        125             BIT 10 FLAG 8        FLUNDBIT
000227:                                                                                                  #  FLVR            136             BIT 14 FLAG 9        FLVRBIT
000228:                                                                                                  #  FLZONE0         144             BIT 6  FLAG 9        FLZONBIT
000229:                                                                                                  #  FREEFLAG        012             BIT 3  FLAG 0        FREEFBIT
000230:                                                                                                  #  GIMBFLG         026             BIT 4  FLAG 1        GIMBFBIT
000231:                                                                                                  #  GLOKFAIL        046             BIT 14 FLAG 3        GLOKFBIT
000232:                                                                                                  #  GMBDRVSW        095             BIT 10 FLAG 6        GMBDRBIT
000233:                                                                                                  #  GUESSW          028             BIT 2  FLAG 1        GUESSBIT
000234:                                                                                                  #  IDLEFLAG        113             BIT 7  FLAG 7        IDLEFBIT
000235:                                                                                                  #  IGNFLAG         107             BIT 13 FLAG 7        IGNFLBIT
000236:                                                                                                  #  IMPULSW         036             BIT 9  FLAG 2        IMPULBIT
000237:                                                                                                  #  IMUSE           007             BIT 8  FLAG 0        IMUSEBIT
000238:                                                                                                  #  INFINFLG        128             BIT 7  FLAG 8        INFINBIT
000239:                                                                                                  #  INTFLG2         076             BIT 14 FLAG 5        INTF2BIT
000240:                                                                                                  #  INTYPFLG        056             BIT 4  FLAG 3        INTYPBIT
000241:                                                                                                  #  ITSWICH         105             BIT 15 FLAG 7        ITSWBIT
000242:                                                                                                  #  JSWITCH         001             BIT 14 FLAG 0        JSWCHBIT
000243:                                                                                                  #  KFLAG           014             BIT 1  FLAG 0        KBIT
000244:                                                                                                  #  KILLROSE        100             BIT 5  FLAG 6        KILLRBIT
000245:                                                                                                  #  LETABORT        141             BIT 9  FLAG 9        LETABBIT
000246:                                                                                                  #  LMOONFLG        124             BIT 11 FLAG 8        LMOONBIT
000247:                                                                                                  #  LOKONSW         010             BIT 5  FLAG 0        LOKONBIT
000248:                                                                                                  #  LOSCMFLG        033             BIT 12 FLAG 2        LOSCMBIT
000249:                                                                                                  #  LUNAFLAG        048             BIT 12 FLAG 3        LUNABIT
000250:                                                                                                  #  MANUFLAG        106             BIT 14 FLAG 7        MANUFBIT
000251:                                                                                                  #  MGLVFLAG        088             BIT 2  FLAG 5        MGLVFBIT
000252:                                                                                                  #  MIDAVFLG        148             BIT 2  FLAG 9        MIDAVBIT
000253:                                                                                                  #  MIDFLAG         002             BIT 13 FLAG 0        MIDFLBIT
000254:                                                                                                  #  MID1FLAG        147             BIT 3  FLAG 9        MID1BIT
000255:                                                                                                  #  MKOVFLAG        072             BIT 3  FLAG 4        MKOVBIT
000256:                                                                                                  #  MOONFLAG        003             BIT 12 FLAG 0        MOONBIT
000257:                                                                                                  #  MRKIDFLG        060             BIT 15 FLAG 4        MRKIDBIT
000258:                                                                                                  #  MRKNVFLG        066             BIT 9  FLAG 4        MRKNVBIT
000259:                                                                                                  #  MRUPTFLG        070             BIT 5 FLAG 4         MRUPTBIT
000260:                                                                                                  #  MUNFLAG         097             BIT 8 FLAG 6         MUNFLBIT
000261:                                                                                                  #  MWAITFLG        064             BIT 11 FLAG 4        MWAITBIT
000262:                                                                                                  #  NEEDLFLG        011             BIT 4  FLAG 0        NEEDLBIT
000263:                                                                                                  #  NEWIFLG         122             BIT 13  FLAG 8       NEWIBIT
000264:                                                                                                  #  NJETSFLG        015             BIT 15 FLAG          NJETSBIT
000265:                                                                                                  #  NODOFLAG        044             BIT 1  FLAG 2        NODOBIT
000266:                                                                                                  #  NORMSW          110             BIT 10 FLAG 7        NORMSBIT
000267:                                                                                                  #  NORRMON         086             BIT 4  FLAG 5        NORRMBIT
000268:                                                                                                  #  NOTHROTL        078             BIT 12 FLAG 5        NOTHRBIT
000269:                                                                                                  #  NOUPFLAG        024             BIT 6  FLAG 1        NOUPFBIT
000270:                                                                                                  #  NRMNVFLG        067             BIT 8  FLAG 4        NRMNVBIT
000271:                                                                                                  #  NRMIDFLG        062             BIT 13 FLAG 4        NRMIDBIT
000272:                                                                                                  #  NRUPTFLG        071             BIT 4  FLAG 4        NRUPTBIT
000273:                                                                                                  #  NTARGFLG        102             BIT 3  FLAG 6        NTARGBIT
000274:                                                                                                  #  NWAITFLG        065             BIT 10 FLAG 4        NWAITBIT
000275:                                                                                                  #  OPTNSW          038             BIT 7  FLAG 2        OPTNBIT         EQUIVALENT FLAG NAME:  ETPIFLAG
000276:                                                                                                  #  ORBWFLAG        054             BIT 6  FLAG 3        ORBWFBIT
000277:                                                                                                  #  ORDERSW         129             BIT 6  FLAG 8        ORDERBIT
000278:                                                                                                  #  PDSPFLAG        063             BIT 12 FLAG 4        PDSPFBIT
000279:                                                                                                  #  PFRATFLG        041             BIT 4  FLAG 2        PFRATBIT
000280:                                                                                                  #  PINBRFLG        069             BIT 6  FLAG 4        PINBRBIT
000281:                                                                                                  #  PRECIFLG        052             BIT 8  FLAG 3        PRECIBIT
000282:                                                                                                  #  PRIODFLG        061             BIT 14 FLAG 1        PRIODBIT
000283:                                                                                                  #  PRONVFLG        068             BIT 7  FLAG 4        PRONVBIT
000284:                                                                                                  #  P25FLAG         006             BIT 9  FLAG 0        P25FLBIT
000285:                                                                                                  #  P39/79SW        126             BIT 9  FLAG 8        P39SWBIT
000286:                                                                                                  #  QUITFLAG        145             BIT 5  FLAG 9        QUITBIT
000287:                                                                                                  #  REDFLAG         099             BIT 6  FLAG 6        REDFLBIT
000288:                                                                                                  #  REFSMFLG        047             BIT 13 FLAG 3        REFSMBIT
000289:                                                                                                  #  RENDWFLG        089             BIT 1  FLAG 5        RENDWBIT
000290:                                                                                                  #  RNDVZFLG        008             BIT 7  FLAG 0        RNDVZBIT
000291:                                                                                                  #  RNGSCFLG        080             BIT 10 FLAG 5        RNGSCBIT
000292:                                                                                                  #  RPQFLAG         120             BIT 15 FLAG 8        RPQFLBIT
000293:                                                                                                  #  RRNBSW          009             BIT 6 FLAG 0         RRNBBIT
000294:                                                                                                  #  RVSW            111             BIT 9  FLAG 7        RVSWBIT
000295:                                                                                                  #  R04FLAG         051             BIT 9  FLAG 3        R04FLBIT
000296:                                                                                                  #  R32FLAG         121             BIT 14 FLAG 8        R32FLBIT
000297:                                                                                                  #  R77FLAG         079             BIT 11 FLAG 5        R77FLBIT
000298:                                                                                                  #  SLOPESW         027             BIT 3  FLAG 1        SLOPEBIT
000299:                                                                                                  #  SNUFFER         077             BIT 13 FLAG 5        SNUFFBIT
000300:                                                                                                  #  SOLNSW          087             BIT 3  FLAG 5        SOLNSBIT
000301:                                                                                                  #  SRCHOPTN        031             BIT 14 FLAG 2        SRCHOBIT
000302:                                                                                                  #  STATEFLG        055             BIT 5  FLAG 3        STATEBIT
000303:                                                                                                  #  STEERSW         034             BIT 11 FLAG 2        STEERBIT
000304:                                                                                                  #  SURFFLAG        127             BIT 8  FLAG 8        SURFFBIT
000305:                                                                                                  #  SWANDISP        109             BIT 11 FLAG 7        SWANDBIT
000306:                                                                                                  #  S32.1F1         090             BIT 15 FLAG 6        S32BIT1
000307:                                                                                                  #  S32.1F2         092             BIT 14 FLAG 6        S32BIT2
000308:                                                                                                  #  S32.1F3A        092             BIT 13 FLAG 6        S32BIT3A
000309:                                                                                                  #  S32.1S3B        093             BIT 12 FLAG 6        S32BIT3B
000310:                                                                                                  #  TFFSW           119             BIT 1  FLAG 7        TFFSWBIT
000311:                                                                                                  #  TRACKFLG        025             BIT 5  FLAG 1        TRACKBIT
000312:                                                                                                  #  UPDATFLG        023             BIT 7  FLAG 1        UPDATBIT
000313:                                                                                                  #  UPLOCKFL        116             BIT 4  FLAG 7        UPLOCBIT
000314:                                                                                                  #  VEHUPFLG        022             BIT 8  FLAG 1        VEHUPBIT
000315:                                                                                                  #  VERIFLAG        117             BIT 3  FLAG 7        VERIFBIT
000316:                                                                                                  #  VFLAG           050             BIT 10 FLAG 3        VFLAGBIT
000317:                                                                                                  #  VINHFLG         004             BIT 11 FLAG 0        VINHFBIT
000318:                                                                                                  #  VINTFLAG        057             BIT 3  FLAG 3        VINTFBIT
000319:                                                                                                  #  VORIDEFL        005             BIT 10 FLAG 0        VORIDBIT
000320:                                                                                                  #  V37FLAG         114             BIT 6  FLAG 7        V37FLBIT
000321:                                                                                                  #  V45FLAG         112             BIT 8  FLAG 7        V45FLBIT
000322:                                                                                                  #  XDELVFLG        037             BIT 8  FLAG 2        XDELVBIT
000323:                                                                                                  #  XDSPFLAG        074             BIT 1  FLAG 4        XDSPBIT
000324:                                                                                                  #  LTCPFLG         096             BIT 9  FLAG 6        LTCPFBIT
000325:                                                                                                  #  3AXISFLG        084             BIT 6 FLAG 5         3AXISBIT
000326:                                                                                                  #  360SW           134             BIT 1 FLAG  8        360SWBIT
000327:
000328:                                                                                                  #            ASSIGNMENT AND DESCRIPTION OF FLAGWORDS
000329:
000330: 43,2000     0074               FLAGWRD0           =        STATE      +0                         #  (000-014)
000331:
000332:                                                                                                  #  (SET)              (RESET)
000333:
000334:                                                                                                  #  BIT 15 FLAG 0 (S)
000335: 43,2000                        CPHIFLAG           =        000D                                  #  OUTPUT OF CALCGA IS OUTPUT OF CALCGA IS
000336: 43,2000     5010               CPHIBIT            =        BIT15                                 #  CPHIX               THETAD
000337:
000338:
000339:                                                                                                  #  BIT 14 FLAG 0 (S)
000340: 43,2000                        JSWITCH            =        001D                                  #  INTEGRATION OF W    INTEGRATION OF STATE
000341: 43,2000     5011               JSWCHBIT           =        BIT14                                 #  MATRIX              VECTOR
000342:
000343:
000344:                                                                                                  #  BIT 13 FLAG 0 (S)
000345: 43,2000                        MIDFLAG            =        002D                                  #  INTEGRATION WITH    INTEGRATION WITHOUT
000346:                                                                                                  #  SECONDARY BODY AND  SOLAR PERTURBATIONS
000347: 43,2000     5012               MIDFLBIT           =        BIT13                                 #  SOLAR PERTURBATIONS
000348:
000349:                                                                                                  #  BIT 12 FLAG 0 (L)
000350: 43,2000                        MOONFLAG           =        003D                                  #  MOON IS SPHERE OF   EARTH IS SPHERE OF
000351: 43,2000     5013               MOONBIT            =        BIT12                                 #  INFLUENCE           INFLUENCE
000352:
000353:                                                                                                  #  BIT 11 FLAG 0
000354: 43,2000                        VINHFLG            =        004D                                  #  LANDING RADAR VEL   LANDING RADAR VEL
000355: 43,2000     5014               VINHFBIT           =        BIT11                                 #  UPDATES INHIBITED   UPDATES PERMITTED
000356:
000357:
000358:                                                                                                  #  BIT 10 FLAG 0
000359: 43,2000                        VORIDEFL           =        005D                                  #  LANDING RADAR VEL   LANDING RADAR VEL
000360: 43,2000     5015               VORIDBIT           =        BIT10                                 #  OVERRIDE ACTIVE     NOT OVERRIDDEN
000361:
000362:
000363:                                                                                                  #  BIT 9 FLAG 0  (S)
000364: 43,2000                        P25FLAG            =        006D                                  #  P25 OPERATING       P25 NOT OPERATING
000365: 43,2000     5016               P25FLBIT           =        BIT9
000366:
000367:
000368:                                                                                                  #  BIT 8 FLAG 0  (S)
000369: 43,2000                        IMUSE              =        007D                                  #  IMU IN USE          IMU NOT IN USE
000370: 43,2000     5017               IMUSEBIT           =        BIT8
000371:
000372:
000373:                                                                                                  #  BIT 7 FLAG 0  (S)
000374: 43,2000                        RNDVZFLG           =        008D                                  #  P20 RUNNING (RADAR  P20 NOT RUNNING
000375: 43,2000     5020               RNDVZBIT           =        BIT7                                  #  IN USE)
000376:
000377:
000378:                                                                                                  #  BIT 6 FLAG 0  (S)
000379: 43,2000                        RRNBSW             =        009D                                  #  RADAR TARGET IN     RADAR TARGET IN
000380: 43,2000     5021               RRNBBIT            =        BIT6                                  #  NB COORDINATES      SM COORDINATES
000381:
000382:
000383:                                                                                                  #  BIT 5 FLAG 0  (S)
000384: 43,2000                        LOKONSW            =        010D                                  #  RADAR LOCK-ON       RADAR LOCK-ON NOT
000385: 43,2000     5022               LOKONBIT           =        BIT5                                  #  DESIRED             DESIRED
000386:
000387:
000388:                                                                                                  #  BIT 4 FLAG 0  (S)
000389: 43,2000                        NEEDLFLG           =        011D                                  #  TOTAL ATTITUDE      A/P FOLLOWING
000390: 43,2000     5023               NEEDLBIT           =        BIT4                                  #  ERROR DISPLAYED     ERROR DISPLAYED
000391:
000392:
000393:                                                                                                  #  BIT 3 FLAG 0
000394: 43,2000                        FREEFLAG           =        012D                                  #  (USED BY P51-53 TEMP IN MANY DIFFERENT
000395:                                                                                                  #  ROUTINES & BY LUNAR + SOLAR EPHEMERIDES)
000396: 43,2000     5024               FREEFBIT           =        BIT3
000397:
000398:
000399:                                                                                                  #  BIT 2 FLAG 0
000400: 43,2000                        B29FLAG            =        013D                                  #  MOON IS CENTRAL     EARTH IS CENTRAL
000401: 43,2000     5025               B29FLBIT           =        BIT2                                  #  BODY                BODY
000402:
000403:
000404:                                                                                                  #  BIT 1 FLAG 0  (L)
000405: 43,2000                        KFLAG              =        014D                                  #  SEARCH SECTOR MORE  SEARCH SECTOR LESS
000406:                                                                                                  #  THAN 180 DEGREES    THAN 180 DEGREES
000407: 43,2000     5026               KBIT               =        BIT1
000408:
000409:
000410: 43,2000     0075               FLAGWRD1           =        STATE      +1                         #  (015-029)
000411:
000412:                                                                                                  #   (SET)              (RESET)
000413:
000414:                                                                                                  #  BIT 15 FLAG 1 (S)
000415: 43,2000                        NJETSFLG           =        015D                                  #   TWO JET RCS BURN    FOUR JET RCS BURN
000416: 43,2000     5010               NJETSBIT           =        BIT15
000417:
000418:
000419:                                                                                                  #  BIT 14 FLAG 1
000420:                                                                                                  #                =               016D
000421:                                                                                                  #                =               BIT14
000422:
000423:
000424:                                                                                                  #  BIT 13 FLAG 1 (S)
000425: 43,2000                        ERADFLAG           =        017D                                  #  COMPUTE REARTH       USE CONSTANT REARTH
000426: 43,2000     5012               ERADFBIT           =        BIT13                                 #  FISCHER ELLIPSOID    PAD RADIUS
000427:
000428:
000429:                                                                                                  #  BIT 12 FLAG 1
000430: 43,2000                        APSFLAG            =        018D                                  #  ASCENT STAGE         DESCENT STAGE
000431: 43,2000     5013               APSFLBIT           =        BIT12
000432:
000433:
000434:                                                                                                  #  BIT 11 FLAG 1
000435:                                                                                                  #                =               019D
000436:
000437:                                                                                                  #  BIT 10 FLAG 1
000438:                                                                                                  #                =               020D
000439:                                                                                                  #                =               BIT10
000440:
000441:                                                                                                  #  BIT 9 FLAG 1
000442:                                                                                                  #                =               021D
000443:                                                                                                  #                =               BIT9
000444:
000445:                                                                                                  #  BIT 8 FLAG 1  (S)
000446: 43,2000                        VEHUPFLG           =        022D                                  #  CSM STATE VECTOR     LEM STATE VECTOR
000447: 43,2000     5017               VEHUPBIT           =        BIT8                                  #  BEING UPDATED        BEING UPDATED
000448:
000449:
000450:                                                                                                  #  BIT 7 FLAG 1  (S)
000451: 43,2000                        UPDATFLG           =        023D                                  #  UPDATING BY MARKS    UPDATING BY MARKS
000452: 43,2000     5020               UPDATBIT           =        BIT7                                  #  ALLOWED              NOT ALLOWED
000453:
000454:
000455:                                                                                                  #  BIT 6 FLAG 1  (S)
000456:
000457: 43,2000                        NOUPFLAG           =        024D                                  #  NEITHER CSM         EITHER STATE
000458:                                                                                                  #  NOR LM STATE VECTOR VECTOR MAY BE
000459: 43,2000     5021               NOUPFBIT           =        BIT6                                  #  MAY BE UPDATED      UPDATED
000460:
000461:
000462:                                                                                                  #  BIT 5 FLAG 1  (S)
000463: 43,2000                        TRACKFLG           =        025D                                  #  TRACKING ALLOWED    TRACKING NOT ALLOWED
000464: 43,2000     5022               TRACKBIT           =        BIT5
000465:
000466:                                                                                                  #  BIT 4 FLAG 1
000467: 43,2000                        GIMBFLG            =        026D                                  #  USING TRIM GIMBAL   NOT USING TRIM
000468: 43,2000     5023               GIMBFBIT           =        BIT4                                  #                      GIMBAL
000469:
000470:
000471:                                                                                                  #  BIT 3 FLAG 1  (S)
000472: 43,2000                        SLOPESW            =        027D                                  #  ITERATE WITH BIAS   ITERATE WITH REGULAR
000473:                                                                                                  #  METHOD IN ITERATOR  FALSI METHOD IN
000474: 43,2000     5024               SLOPEBIT           =        BIT3                                  #                      ITERATOR
000475:
000476:
000477:                                                                                                  #  BIT 2 FLAG 1  (S)
000478: 43,2000                        GUESSW             =        028D                                  #  NO STARTING VALUE   STARTING VALUE FOR
000479: 43,2000     5025               GUESSBIT           =        BIT2                                  #  FOR ITERATION       ITERATION EXISTS
000480:
000481:
000482:                                                                                                  #  BIT 1 FLAG 1
000483: 43,2000                        HINHFLG            =        029D                                  #  LR HEIGHT UPDATES   LR HEIGHT UPDATES
000484: 43,2000     5026               HINHFBIT           =        BIT1                                  #  INHIBITED           PERMITTED
000485:
000486:
000487: 43,2000     0076               FLAGWRD2           =        STATE      +2                         #  (030-044)
000488:
000489:                                                                                                  #  (SET)               (RESET)
000490:
000491:                                                                                                  #  BIT 15 FLAG 2 (S)
000492: 43,2000                        DRIFTFLG           =        030D                                  #  T3RUPT CALLS GYRO   T3RUPT DOES NO GYRO
000493: 43,2000     5010               DRFTBIT            =        BIT15                                 #  COMPENSATION        COMPENSATION
000494:
000495:
000496:                                                                                                  #  BIT 14 FLAG 2 (S)
000497: 43,2000                        SRCHOPTN           =        031D                                  #  RADAR IN AUTOMATIC  RADAR NOT IN AUTO-
000498: 43,2000     5011               SRCHOBIT           =        BIT14                                 #  SEARCH OPTION(R24)  MATIC SEARCH OPTION
000499:
000500:
000501:                                                                                                  #  BIT 13 FLAG 2 (S)
000502: 43,2000                        ACMODFLG           =        032D                                  #  MANUAL ACQUISITION  AUTO ACQUISITION
000503: 43,2000     5012               ACMODBIT           =        BIT13                                 #  BY RENDESVOUS RADAR BY RENDESVOUS RADAR
000504:
000505:
000506:                                                                                                  #  BIT 12 FLAG 2 (S)
000507:
000508: 43,2000                        LOSCMFLG           =        033D                                  #  LINE OF SIGHT BEING LINE OF SIGHT NOT
000509:                                                                                                  #  COMPUTED (R21)      BEING COMPUTED
000510: 43,2000     5013               LOSCMBIT           =        BIT12
000511:                                                                                                  #  IN R29 (L): RR GYRO IN R29 (L): RR GYRO
000512:                                                                                                  #  CMD LOOP RUNNING    CMD LOOP OFF
000513:
000514:                                                                                                  #  BIT 11 FLAG 2 (S)
000515: 43,2000                        STEERSW            =        034D                                  #  SUFFICIENT THRUST   INSUFFICIENT THRUST
000516: 43,2000     5014               STEERBIT           =        BIT11                                 #  IS PRESENT          IS PRESENT
000517:
000518:
000519:                                                                                                  #  BIT 10 FLAG 2 (S)
000520: 43,2000                        CYCLESW            =        035D                                  #  LAMBERT VG CALCU-   LAMBERT CALCULATION
000521: 43,2000     5015               CYCLEBIT           =        BIT10                                 #  LATION TO BE DONE   OMITTED
000522:
000523:
000524:                                                                                                  #  BIT 9 FLAG 2 (S)
000525: 43,2000                        IMPULSW            =        036D                                  #  MINIMUM IMPULSE     STEERING BURN (NO
000526:                                                                                                  #  BURN (CUTOFF TIME   CUTOFF TIME YET
000527: 43,2000     5016               IMPULBIT           =        BIT9                                  #  SPECIFIED)          AVAILABLE)
000528:
000529:
000530:                                                                                                  #  BIT 8 FLAG 2 (S)
000531: 43,2000                        XDELVFLG           =        037D                                  #  EXTERNAL DELTAV VG  LAMBERT (AIMPOINT)
000532: 43,2000     5017               XDELVBIT           =        BIT8                                  #  COMPUTATION         VG COMPUTATION
000533:
000534:
000535:                                                                                                  #  BIT 7 FLAG 2 (S)
000536: 43,2000                        ETPIFLAG           =        038D                                  #  ELEVATION ANGLE     TPI TIME SUPPLIED
000537:                                                                                                  #  SUPPLIED FOR        FOR P34,74 TO COMPUT
000538: 43,2000     5020               ETPIBIT            =        BIT7                                  #  P34,74              ELEVATION
000539:
000540:
000541:                                                                                                  #  BIT 7 FLAG 2 (L)
000542: 43,2000  0000046               OPTNSW             =        ETPIFLAG                              #  SOI PHASE OF P38/78  SOR PHASE OF P38/78
000543: 43,2000     5020               OPTNBIT            =        BIT7
000544:
000545:
000546:                                                                                                  #  BIT 6 FLAG 2 (S)
000547: 43,2000                        FINALFLG           =        039D                                  #  LAST PASS THROUGH   INTERIM PASS THROUGH
000548:                                                                                                  #  RENDEZVOUS PROGRAM  RENDEZVOUS PROGRAM
000549: 43,2000     5021               FINALBIT           =        BIT6                                  #  COMPUTATIONS        COMPUTATIONS
000550:
000551:
000552:                                                                                                  #  BIT 5 FLAG 2 (S)
000553: 43,2000                        AVFLAG             =        040D                                  #  LEM IS ACTIVE       CSM IS ACTIVE
000554: 43,2000     5022               AVFLBIT            =        BIT5                                  #  VEHICLE             VEHICLE
000555:
000556:
000557:                                                                                                  #  BIT 4 FLAG 2 (S)
000558:
000559: 43,2000                        PFRATFLG           =        041D                                  #  PREFERRED ATTITUDE  PREFERRED ATTITUDE
000560: 43,2000     5023               PFRATBIT           =        BIT4                                  #  COMPUTED            NOT COMPUTED
000561:
000562:
000563:                                                                                                  #  BIT 3 FLAG 2 (S)
000564: 43,2000                        CALCMAN3           =        042D                                  #  NO FINAL ROLL       FINAL ROLL IS
000565: 43,2000     5024               CALC3BIT           =        BIT3                                  #                      NECESSARY
000566:
000567:
000568:                                                                                                  #  BIT 2 FLAG 2 (S)
000569: 43,2000                        CALCMAN2           =        043D                                  #  PERFORM MANEUVER    BYPASS STARTING
000570: 43,2000     5025               CALC2BIT           =        BIT2                                  #  STARTING PROCEDURE  PROCEDURE
000571:
000572:
000573:                                                                                                  #  BIT 1 FLAG 2 (S)
000574: 43,2000                        NODOFLAG           =        044D                                  #  V37 NOT PERMITTED   V37 PERMITTED
000575: 43,2000     5026               NODOBIT            =        BIT1
000576:
000577:
000578: 43,2000     0077               FLAGWRD3           =        STATE      +3                         #  (045-059)
000579:
000580:                                                                                                  #  (SET)               (RESET)
000581:
000582:                                                                                                  #  BIT 15 FLAG 3
000583: 43,2000                        AUTMANSW           =        045D                                  #  MANUAL MANEUVER     AUTOMATIC MANEUVER
000584: 43,2000     5010               AUTMNBIT           =        BIT15                                 #  DESIRED             DESIRED
000585:
000586:
000587:                                                                                                  #  BIT 14 FLAG 3 (S)
000588: 43,2000                        GLOKFAIL           =        046D                                  #  GIMBAL LOCK HAS     NOT IN GIMBAL LOCK
000589: 43,2000     5011               GLOKFBIT           =        BIT14                                 #  OCCURRED
000590:
000591:
000592:                                                                                                  #  BIT 13 FLAG 3
000593: 43,2000                        REFSMFLG           =        047D                                  #  REFSMMAT GOOD       REFSMMAT NO GOOD
000594: 43,2000     5012               REFSMBIT           =        BIT13
000595:
000596:
000597:                                                                                                  #  BIT 12 FLAG 3 (S)
000598: 43,2000                        LUNAFLAG           =        048D                                  #  LUNAR LAT-LONG      EARTH LAT-LONG
000599: 43,2000     5013               LUNABIT            =        BIT12
000600:
000601:
000602:                                                                                                  #  BIT 11 FLAG 3
000603:                                                                                                  #                =               049D
000604:                                                                                                  #                =               BIT11
000605:
000606:
000607:                                                                                                  #  BIT 10 FLAG 3 (S)
000608: 43,2000                        VFLAG              =        050D                                  #  LESS THAN TWO STARS TWO STARS IN FIELD
000609: 43,2000     5015               VFLAGBIT           =        BIT10                                 #  IN FIELD OF VIEW    OF VIEW
000610:
000611:
000612:
000613:                                                                                                  #  BIT 9 FLAG 3  (S)
000614: 43,2000                        R04FLAG            =        051D                                  #  ALARM 521           ALARM 521 ALLOWED
000615:                                                                                                  #  SUPPRESSED
000616: 43,2000     5016               R04FLBIT           =        BIT9
000617:
000618:
000619:                                                                                                  #  BIT 8 FLAG 3  (S)
000620: 43,2000                        PRECIFLG           =        052D                                  #  NORMAL INTEGRATION  ENGAGES 4-TIME STEP
000621:                                                                                                  #  IN POO              (POO) LOGIC IN INTE-
000622: 43,2000     5017               PRECIBIT           =        BIT8                                  #                      GRATION
000623:
000624:
000625:                                                                                                  #  BIT 7 FLAG 3  (S)
000626: 43,2000                        CULTFLAG           =        053D                                  #  STAR OCCULTED       STAR NOT OCCULTED
000627: 43,2000     5020               CULTBIT            =        BIT7
000628:
000629:
000630:                                                                                                  #  BIT 6 FLAG 3  (S)
000631: 43,2000                        ORBWFLAG           =        054D                                  #  W MATRIX VALID FOR  W MATRIX INVALID FOR
000632: 43,2000     5021               ORBWFBIT           =        BIT6                                  #  ORBITAL NAVIGATION  ORBITAL NAVIGATION
000633:
000634:
000635:                                                                                                  #  BIT 5 FLAG 3  (S)
000636: 43,2000                        STATEFLG           =        055D                                  #  PERMANENT STATE     PERMANENT STATE
000637: 43,2000     5022               STATEBIT           =        BIT5                                  #  VECTOR UPDATED      VECTOR NOT UPDATED
000638:
000639:
000640:                                                                                                  #  BIT 4 FLAG 3  (S)
000641: 43,2000                        INTYPFLG           =        056D                                  #  CONIC INTEGRATION   ENCKE INTEGRATION
000642: 43,2000     5023               INTYPBIT           =        BIT4
000643:
000644:
000645:                                                                                                  #  BIT 3 FLAG 3  (S)
000646: 43,2000                        VINTFLAG           =        057D                                  #  CSM STATE VECTOR    LEM STATE VECTOR
000647: 43,2000     5024               VINTFBIT           =        BIT3                                  #  BEING INTEGRATED    BEING INTEGRATED
000648:
000649:
000650:                                                                                                  #  BIT 2 FLAG 3 (S)
000651: 43,2000                        D6OR9FLG           =        058D                                  #  DIMENSION OF W IS 9 DIMENSION OF W IS 6
000652: 43,2000     5025               D6OR9BIT           =        BIT2                                  #  FOR INTEGRATION     FOR INTEGRATION
000653:
000654:
000655:                                                                                                  #  BIT 1 FLAG 3  (S)
000656:
000657: 43,2000                        DIM0FLAG           =        059D                                  #  W MATRIX IS TO BE   W MATRIX IS NOT TO
000658: 43,2000     5026               DIM0BIT            =        BIT1                                  #  USED                BE USED
000659:
000660:
000661: 43,2000     0100               FLAGWRD4           =        STATE      +4                         #  (060-074)
000662:
000663:                                                                                                  #  (SET)               (RESET)
000664:
000665:                                                                                                  #  BIT 15 FLAG 4 (S)
000666: 43,2000                        MRKIDFLG           =        060D                                  #  MARK DISPLAY IN     NO MARK DISPLAY IN
000667: 43,2000     5010               MRKIDBIT           =        BIT15                                 #  ENDIDLE             ENDIDLE
000668:
000669:
000670:                                                                                                  #  BIT 14 FLAG 4 (S)
000671: 43,2000                        PRIODFLG           =        061D                                  #  PRIORITY DISPLAY IN NO PRIORITY DISPLAY
000672: 43,2000     5011               PRIODBIT           =        BIT14                                 #  ENDIDLE             IN ENDIDLE
000673:
000674:
000675:                                                                                                  #  BIT 13 FLAG 4 (S)
000676: 43,2000                        NRMIDFLG           =        062D                                  #  NORMAL DISPLAY IN   NO NORMAL DISPLAY
000677: 43,2000     5012               NRMIDBIT           =        BIT13                                 #  ENDIDLE             IN ENDIDLE
000678:
000679:
000680:                                                                                                  #  BIT 12 FLAG 4 (S)
000681: 43,2000                        PDSPFLAG           =        063D                                  #  P20 SETS SO AS TO   LEAVE AS NORMAL DISP
000682:                                                                                                  #  TURN A NORMAL DIS-
000683: 43,2000     5013               PDSPFBIT           =        BIT12                                 #  PLAY INTO A PRIORITY
000684:                                                                                                  #  DISPLAY IN R60
000685:
000686:
000687:                                                                                                  #  BIT 11 FLAG 4 (S)
000688: 43,2000                        MWAITFLG           =        064D                                  #  HIGHER PRIORITY      NO HIGHER PRIORITY
000689:                                                                                                  #  DISPLAY OPERATING    DISPLAY OPERATING
000690: 43,2000     5014               MWAITBIT           =        BIT11                                 #  WHEN MARK DISPLAY    WHEN MARK DISPLAY
000691:                                                                                                  #  INITIATED            INITIATED
000692:
000693:                                                                                                  #  BIT 10 FLAG 4 (S)
000694: 43,2000                        NWAITFLG           =        065D                                  #  HIGHER PRIORITY      NO HIGHER PRIORITY
000695:                                                                                                  #  DISPLAY OPERATING    DISPLAY OPERATING
000696: 43,2000     5015               NWAITBIT           =        BIT10                                 #  WHEN NORMAL          WHEN NORMAL DISPLAY
000697:                                                                                                  #  DISPLAY INITIATED    INITIATED
000698:
000699:                                                                                                  #  BIT 9 FLAG 4  (S)
000700: 43,2000                        MRKNVFLG           =        066D                                  #  ASTRONAUT USING      ASTRONAUT NOT USING
000701:                                                                                                  #  KEYBOARD WHEN MARK   KEYBOARD WHEN MARK
000702: 43,2000     5016               MRKNVBIT           =        BIT9                                  #  DISPLAY INITIATED    DISPLAY INITIATED
000703:
000704:
000705:                                                                                                  #  BIT 8 FLAG 4  (S)
000706: 43,2000                        NRMNVFLG           =        067D                                  #  ASTRONAUT USING      ASTRONAUT NOT USING
000707:
000708:                                                                                                  #  KEYBOARD WHEN        KEYBOARD WHEN
000709: 43,2000     5017               NRMNVBIT           =        BIT8                                  #  NORMAL DISPLAY       NORMAL DISPLAY
000710:                                                                                                  #  INITIATED            INITIATED
000711:
000712:                                                                                                  #  BIT 7 FLAG 4  (S)
000713: 43,2000                        PRONVFLG           =        068D                                  #  ASTRONAUT USING      ASTRONAUT NOT USING
000714:                                                                                                  #  KEYBOARD WHEN        KEYBOARD WHEN
000715: 43,2000     5020               PRONVBIT           =        BIT7                                  #  PRIORITY DISPLAY     PRIORITY DISPLAY
000716:                                                                                                  #  INITIATED            INITIATED
000717:
000718:                                                                                                  #  BIT 6 FLAG 4  (S)
000719: 43,2000                        PINBRFLG           =        069D                                  #  ASTRONAUT HAS        ASTRONAUT HAS NOT
000720:                                                                                                  #  INTERFERED WITH      INTERFERED WITH
000721: 43,2000     5021               PINBRBIT           =        BIT6                                  #  EXISTING DISPLAY     EXISTING DISPLAY
000722:
000723:
000724:                                                                                                  #  BIT 5 FLAG 4  (S)
000725: 43,2000                        MRUPTFLG           =        070D                                  #  MARK DISPLAY         MARK DISPLAY NOT
000726:                                                                                                  #  INTERRUPTED BY       INTERRUPTED BY
000727: 43,2000     5022               MRUPTBIT           =        BIT5                                  #  PRIORITY DISPLAY     PRIORITY DISPLAY
000728:
000729:
000730:                                                                                                  #  BIT 4 FLAG 4  (S)
000731: 43,2000                        NRUPTFLG           =        071D                                  #  NORMAL DISPLAY       NORMAL DISPLAY NOT
000732:                                                                                                  #  INTERRUPTED BY       INTERRUPTED BY
000733: 43,2000     5023               NRUPTBIT           =        BIT4                                  #  PRIORITY OR MARK     PRIORITY OR MARK
000734:                                                                                                  #  DISPLAY              DISPLAY
000735:
000736:                                                                                                  #  BIT 3 FLAG 4  (S)
000737: 43,2000                        MKOVFLAG           =        072D                                  #  MARK DISPLAY OVER    NO MARK DISPLAY OVER
000738: 43,2000     5024               MKOVBIT            =        BIT3                                  #  NORMAL               NORMAL
000739:
000740:
000741:                                                                                                  #  BIT 2 FLAG 4
000742:                                                                                                  #                =               073D
000743:
000744:
000745:
000746:                                                                                                  #  BIT 1 FLAG 4  (S)
000747: 43,2000                        XDSPFLAG           =        074D                                  #  MARK DISPLAY NOT     NO SPECIAL MARK
000748: 43,2000     5026               XDSPBIT            =        BIT1                                  #  TO BE INTERRUPTED    INFORMATION
000749:
000750:
000751: 43,2000     0101               FLAGWRD5           =        STATE      +5                         #  (075-089)
000752:                                                                                                  #  (SET)                (RESET)
000753:
000754:                                                                                                  #  BIT 15 FLAG 5 (S)
000755: 43,2000                        DSKYFLAG           =        075D                                  #  DISPLAYS SENT TO     NO DISPLAYS TO DSKY
000756: 43,2000     5010               DSKYFBIT           =        BIT15                                 #  DSKY
000757:
000758:
000759:                                                                                                  #  BIT 14 FLAG 5
000760: 43,2000                        INTFLG2            =        076D                                  #  ORBITAL INTEGRATION ORBITAL INTEGRATION
000761:                                                                                                  #  PROGRAM PACKAGE IN  PROGRAM PACKAGE NOT
000762: 43,2000     5011               INTF2BIT           =        BIT14                                 #  USE                 IN USE
000763:
000764:
000765:                                                                                                  #  BIT 13 FLAG 5 (S,L)
000766: 43,2000                        SNUFFER            =        077D                                  #  U,V JETS DISABLED   U,V JETS ENABLED
000767:                                                                                                  #  DURING DPS          DURING DPS
000768: 43,2000     5012               SNUFFBIT           =        BIT13                                 #  BURNS (V65)         BURNS (V75)
000769:
000770:
000771:                                                                                                  #  BIT 12 FLAG 5 (S)
000772: 43,2000                        NOTHROTL           =        078D                                  #  INHIBIT FULL        PERMIT FULL THROTTLE
000773: 43,2000     5013               NOTHRBIT           =        BIT12                                 #  THROTTLE
000774:
000775:
000776:                                                                                                  #  BIT 11 FLAG 5 (S,L)
000777: 43,2000                        R77FLAG            =        079D                                  #  R77 IS ON,         R77 IS NOT ON.
000778:                                                                                                  #  SUPPRESS ALL RADAR
000779:                                                                                                  #  ALARMS AND TRACKER
000780: 43,2000     5014               R77FLBIT           =        BIT11                                 #  FAILS
000781:
000782:
000783:                                                                                                  #  BIT 10 FLAG 5 (S)
000784: 43,2000                        RNGSCFLG           =        080D                                  #  SCALE CHANGE HAS    NO SCALE CHANGE HAS
000785:                                                                                                  #  OCCURRED DURING     OCCURRED DURING
000786: 43,2000     5015               RNGSCBIT           =        BIT10                                 #  RR READING          RR READING
000787:
000788:
000789:                                                                                                  #  BIT 9 FLAG 5  (S)
000790: 43,2000                        DMENFLG            =        081D                                  #  DIMENSION OF W IS 9 DIMENSION OF W IS 6
000791: 43,2000     5016               DMENFBIT           =        BIT9                                  #  FOR INCORPORATION   FOR INCORPORATION
000792:
000793:
000794:                                                                                                  #  BIT 8 FLAG 5  (S)
000795: 43,2000                        COMPUTER           =        082D                                  #  COMPUTER IS CMC     COMPUTER IS LGC
000796: 43,2000     5017               COMPTBIT           =        BIT8
000797:
000798:
000799:                                                                                                  #  BIT 7 FLAG 5  (S)
000800: 43,2000                        ENGONFLG           =        083D                                  #  ENGINE TURNED ON    ENGINE TURNED OFF
000801: 43,2000     5020               ENGONBIT           =        BIT7
000802:
000803:
000804:                                                                                                  #  BIT 6 FLAG 5  (S)
000805: 43,2000                        3AXISFLG           =        084D                                  #  MANEUVER SPECIFIED  MANEUVER SPECIFIED
000806:                                                                                                  #  BY THREE AXES       BY ONE AXIS; R60
000807: 43,2000     5021               3AXISBIT           =        BIT6                                  #                      CALLS VECPOINT.
000808:
000809:
000810:                                                                                                  #  BIT 5 FLAG 5
000811:                                                                                                  #                =               085D
000812:
000813:
000814:                                                                                                  #  BIT 4 FLAG 5  (S)
000815: 43,2000                        NORRMON            =        086D                                  #  BYPASS RR GIMBAL    PERFORM
000816: 43,2000     5023               NORRMBIT           =        BIT4                                  #  MONITOR             RR GIMBAL MONITOR
000817:
000818:
000819:                                                                                                  #  BIT 3 FLAG 5  (S)
000820: 43,2000                        SOLNSW             =        087D                                  #  LAMBERT DOES NOT    LAMBERT CONVERGES OR
000821:                                                                                                  #  CONVERGE,OR TIME-RADTIME-RADIUS NON
000822: 43,2000     5024               SOLNSBIT           =        BIT3                                  #  NEARLY CIRCULAR     CIRCULAR
000823:
000824:
000825:                                                                                                  #  BIT 2 FLAG 5  (S)
000826: 43,2000                        MGLVFLAG           =        088D                                  #  LOCAL VERTICAL      MIDDLE GIMBAL ANGLE
000827:                                                                                                  #  COORDINATES         COMPUTED
000828: 43,2000     5025               MGLVFBIT           =        BIT2                                  #  COMPUTED
000829:
000830:                                                                                                  #  BIT 1 FLAG 5  (S)
000831: 43,2000                        RENDWFLG           =        089D                                  #  W MATRIX VALID      W MATRIX INVALID
000832:                                                                                                  #  FOR RENDEZVOUS      FOR RENDEZVOUS
000833: 43,2000     5026               RENDWBIT           =        BIT1                                  #  NAVIGATION          NAVIGATION
000834:
000835:
000836: 43,2000     0102               FLAGWRD6           =        STATE      +6                         #  (090-104)
000837:
000838:                                                                                                  #  (SET)               (RESET)
000839:
000840:                                                                                                  #  BIT 15 FLAG 6 (S)
000841: 43,2000                        S32.1F1            =        090D                                  #  DELTA V AT CSI TIME  DVT1 LESS THEN MAX
000842: 43,2000     5010               S32BIT1            =        BIT15                                 #  ONE EXCEEDS MAX
000843:
000844:
000845:                                                                                                  #  BIT 14 FLAG 6 (S)
000846: 43,2000                        S32.1F2            =        091D                                  #  FIRST PASS OF       REITERATION OF
000847: 43,2000     5011               S32BIT2            =        BIT14                                 #  NEWTON ITERATION    NEWTON
000848:
000849:
000850:                                                                                                  #  BIT 13 FLAG 6 (S)
000851: 43,2000                        S32.1F3A           =        092D                                  #  BIT 13 AND BIT 12 FUNCTION AS AN ORDERED
000852: 43,2000     5012               S32BIT3A           =        BIT13                                 #  PAIR (13,12) INDICATING THE POSSIBLE OC-
000853:                                                                                                  #  CURRANCE OF 2NEWTON ITERATIONS FOR S32.1
000854:                                                                                                  #  IN THE PROGRAM IN THE FOLLOWING ORDER:
000855:                                                                                                  #  BIT 12 FLAG 6                                           (0,1) (I.E.BIT 13 RESET,BIT 12 SET)
000856: 43,2000                        S32.1F3B           =        093D                                  #       = FIRST NEWTON ITERATION BEING DONE
000857: 43,2000     5013               S32BIT3B           =        BIT12                                 #  (0,0)= FIRST PASS OF SECOND NEWT.ITERAT.
000858:                                                                                                  #  (1,1)= 50 FT/SEC STAGE OF SEC. NEWT.ITER
000859:
000860:                                                                                                  #  (1,0)= REMAINDER OF SECOND NEWTON ITERA.
000861:
000862:
000863:                                                                                                  #  BIT 11 FLAG 6 (S)
000864: 43,2000                        FIRSTFLG           =        094D                                  #  SUCCEEDING PASS     FIRST PASS THRU
000865: 43,2000     5014               FIRSTBIT           =        BIT11                                 #  THRU S40.9          S40.9
000866:
000867:
000868:                                                                                                  #  BIT 10 FLAG 6 (S)
000869: 43,2000                        GMBDRVSW           =        095D                                  #  TRIMGIMB OVER       TRIMGIMB NOT OVER
000870: 43,2000     5015               GMBDRBIT           =        BIT10
000871:
000872:
000873:                                                                                                  #  BIT 9 FLAG 6
000874: 43,2000                        LTCPFLG            =        096D                                  #  LAUNCH TIME         LAUNCH TIME DIRECT
000875: 43,2000     5016               LTCPFBIT           =        BIT9                                  #  CONCENTRIC FLIGHT   TRANSFER
000876:                                                                                                  #  PLAN
000877:
000878:
000879:                                                                                                  #  BIT 8 FLAG 6  (S)
000880: 43,2000                        MUNFLAG            =        097D                                  #  SERVICER CALLS      SERVICER CALLS
000881: 43,2000     5017               MUNFLBIT           =        BIT8                                  #  MUNRVG              CALCRVG
000882:
000883:
000884:                                                                                                  #  BIT 7 FLAG 6
000885:                                                                                                  #                =               098D
000886:                                                                                                  #                =               BIT7
000887:
000888:
000889:                                                                                                  #  BIT 6 FLAG 6  (L)
000890: 43,2000                        REDFLAG            =        099D                                  #  LANDING SITE        LANDING SITE
000891:                                                                                                  #  REDESIGNATION       REDESIGNATION NOT
000892: 43,2000     5021               REDFLBIT           =        BIT6                                  #  PERMITTED           PERMITTED
000893:
000894:
000895:                                                                                                  #  BIT 5 FLAG 6
000896: 43,2000                        KILLROSE           =        100D                                  #  R11 COMMANDED       R11 NOT COMMANDED
000897: 43,2000     5022               KILLRBIT           =        BIT5                                  #  TO EXIT             TO EXIT
000898:
000899:                                                                                                  #  BIT 4 FLAG 6
000900:                                                                                                  #                =               101D
000901:
000902:                                                                                                  #  BIT 3 FLAG 6  (S)
000903: 43,2000                        NTARGFLG           =        102D                                  #  ASTRONAUT DID       ASTRONAUT DID NOT
000904:                                                                                                  #  OVERWRITE DELTA     OVERWRITE DELTA
000905: 43,2000     5024               NTARGBIT           =        BIT3                                  #  VELOCITY AT TPI     VELOCITY
000906:                                                                                                  #  OR TPM (P34,35)
000907:
000908:                                                                                                  #  BIT 2 FLAG 6
000909: 43,2000                        ASCNTFLG           =        103D                                  #  ASCENT TIME HAS     ASCENT TIME HAS NOT
000910: 43,2000     5025               ASCNTBIT           =        BIT2                                  #  BEEN CALCULATED     BEEN CALCULATED
000911:
000912:                                                                                                  #  BIT 1 FLAG 6  (L)
000913: 43,2000                        ATTFLAG            =        104D                                  #  LEM ATTITUDE EXISTS NO LEM ATTITUDE
000914:                                                                                                  #  IN MOON-FIXED       AVAILABLE IN MOON-
000915: 43,2000     5026               ATTFLBIT           =        BIT1                                  #  COORDINATES         FIXED COORDINATES
000916:
000917:
000918: 43,2000     0103               FLAGWRD7           =        STATE      +7                         #  (105-119)
000919:
000920:                                                                                                  #  (SET)               (RESET)
000921:
000922:                                                                                                  #  BIT 15 FLAG 7 (S)
000923: 43,2000                        ITSWICH            =        105D                                  #  P34;TPI TIME TO BE  TPI HAS BEEN
000924: 43,2000     5010               ITSWBIT            =        BIT15                                 #  COMPUTED            COMPUTED
000925:
000926:
000927:                                                                                                  #  BIT 14 FLAG 7 (S)
000928: 43,2000                        MANUFLAG           =        106D                                  #  ATTITUDE MANEUVER   NO ATTITUDE MANEUVER
000929:                                                                                                  #  GOING DURING RR     DURING RR SEARCH
000930: 43,2000     5011               MANUFBIT           =        BIT14                                 #  SEARCH
000931:
000932:
000933:                                                                                                  #  BIT 13 FLAG 7 (S)
000934: 43,2000                        IGNFLAG            =        107D                                  #  TIG HAS ARRIVED     TIG HAS NOT ARRIVED
000935: 43,2000     5012               IGNFLBIT           =        BIT13
000936:
000937:
000938:                                                                                                  #  BIT 12 FLAG 7 (S)
000939: 43,2000                        ASTNFLAG           =        108D                                  #  ASTRONAUT HAS       ASTRONAUT HAS NOT
000940: 43,2000     5013               ASTNBIT            =        BIT12                                 #  OKAYED IGNITION     OKAYED IGNITION
000941:
000942:
000943:                                                                                                  #  BIT 11 FLAG 7 (L)
000944: 43,2000                        SWANDISP           =        109D                                  #  LANDING ANALOG      LANDING ANALOG
000945: 43,2000     5014               SWANDBIT           =        BIT11                                 #  DISPLAYS ENABLED    DISPLAYS SUPPRESSED
000946:
000947:
000948:                                                                                                  #  BIT 10 FLAG 7 (S)
000949: 43,2000                        NORMSW             =        110D                                  #  UNIT NORMAL INPUT   LAMBERT COMPUTES ITS
000950: 43,2000     5015               NORMSBIT           =        BIT10                                 #  TO LAMBERT          OWN UNIT NORMAL
000951:
000952:
000953:                                                                                                  #  BIT 9 FLAG 7  (S)
000954: 43,2000                        RVSW               =        111D                                  #  DO NOT COMPUTE      COMPUTE FINAL STATE
000955:                                                                                                  #  FINAL STATE VECTOR  VECTOR IN TIME-THETA
000956: 43,2000     5016               RVSWBIT            =        BIT9                                  #  IN TIME-THETA
000957:
000958:
000959:                                                                                                  #  BIT 8 FLAG 7  (S)
000960: 43,2000                        V45FLAG            =        112D                                  #  ASTRONAUT OVERWRITE  ASTRONAUT DOES NOT
000961:                                                                                                  #  W-MATRIX INITIAL    OVERWRITE W-MATRIX
000962: 43,2000     5017               V45FLBIT           =        BIT8                                  #  VALUES              INITIAL VALUES
000963:
000964:
000965:                                                                                                  #  BIT 7 FLAG 7  (S)
000966: 43,2000                        IDLEFLAG           =        113D                                  #  NO DV MONITOR       CONNECT DV MONITOR
000967: 43,2000     5020               IDLEFBIT           =        BIT7
000968:
000969:
000970:                                                                                                  #  BIT 6 FLAG 7  (S)
000971: 43,2000                        V37FLAG            =        114D                                  #  AVERAGEG (SERVICER) AVERAGEG (SERVICER)
000972: 43,2000     5021               V37FLBIT           =        BIT6                                  #  RUNNING             OFF
000973:
000974:
000975:                                                                                                  #  BIT 5 FLAG 7  (S)
000976: 43,2000                        AVEGFLAG           =        115D                                  #  AVERAGEG (SERVICER) AVERAGEG (SERVICER)
000977: 43,2000     5022               AVEGFBIT           =        BIT5                                  #  DESIRED             NOT DESIRED
000978:
000979:
000980:                                                                                                  #  BIT 4 FLAG 7  (S)
000981: 43,2000                        UPLOCKFL           =        116D                                  #  K-KBAR-K FAIL       NO K-KBAR-K FAIL
000982: 43,2000     5023               UPLOCBIT           =        BIT4
000983:
000984:
000985:                                                                                                  #  BIT 3 FLAG 7  (S)
000986: 43,2000                        VERIFLAG           =        117D                                  #  CHANGED WHEN V33E OCCURS AT END OF P27
000987: 43,2000     5024               VERIFBIT           =        BIT3
000988:
000989:
000990:                                                                                                  #  BIT 2 FLAG 7
000991:                                                                                                  #                =               118D
000992:                                                                                                  #                =               BIT2
000993:
000994:
000995:                                                                                                  #  BIT 1 FLAG 7  (S)
000996: 43,2000                        TFFSW              =        119D                                  #  CALCULATE TPERIGEE  CALCULATE TFF
000997: 43,2000     5026               TFFSWBIT           =        BIT1
000998:
000999:
001000: 43,2000     0104               FLAGWRD8           =        STATE      +8D                        #  (120-134)
001001:
001002:                                                                                                  #  (SET)               (RESET)
001003:
001004:                                                                                                  #  BIT 15 FLAG 8 (S)
001005:
001006: 43,2000                        RPQFLAG            =        120D                                  #  RPQ NOT COMPUTED    RPQ COMPUTED
001007:                                                                                                  #  (RPQ = VECTOR BE-
001008: 43,2000     5010               RPQFLBIT           =        BIT15                                 #  TWEEN SECONDARY BODY
001009:                                                                                                  #  AND PRIMARY BODY
001010:
001011:
001012:                                                                                                  #  BIT 14 FLAG 8
001013: 43,2000                        R32FLAG            =        121D                                  #  R32 IS RUNNING      R32 IS NOT RUNNING
001014: 43,2000     5011               R32FLBIT           =        BIT14
001015:
001016:
001017:                                                                                                  #  BIT 13 FLAG 8 (S)
001018: 43,2000                        NEWIFLG            =        122D                                  #  FIRST PASS THROUGH  SUCCEEDING ITERATION
001019: 43,2000     5012               NEWIBIT            =        BIT13                                 #  INTEGRATION         OF INTEGRATION
001020:
001021:
001022:                                                                                                  #  BIT 12 FLAG 8
001023: 43,2000                        CMOONFLG           =        123D                                  #  PERMANENT CSM STATE PERMANENT CSM STATE
001024: 43,2000     5013               CMOONBIT           =        BIT12                                 #  IN LUNAR SPHERE     IN EARTH SPHERE
001025:
001026:
001027:                                                                                                  #  BIT 11 FLAG 8
001028: 43,2000                        LMOONFLG           =        124D                                  #  PERMANENT LM STATE  PERMANENT LM STATE
001029: 43,2000     5014               LMOONBIT           =        BIT11                                 #  IN LUNAR SPHERE     IN EARTH SPHERE
001030:
001031:
001032:                                                                                                  #  BIT 10 FLAG 8 (L)
001033: 43,2000                        FLUNDISP           =        125D                                  #  CURRENT GUIDANCE    CURRENT GUIDANCE
001034: 43,2000     5015               FLUNDBIT           =        BIT10                                 #  DISPLAYS INHIBITED  DISPLAYS PERMITTED
001035:
001036:
001037:                                                                                                  #  BIT 9 FLAG 8  (L)
001038: 43,2000                        P39/79SW           =        126D                                  #  P39/79 OPERATING    P38/P78 OPERATING
001039: 43,2000     5016               P39SWBIT           =        BIT9
001040:
001041:
001042:                                                                                                  #  BIT 8 FLAG 8
001043: 43,2000                        SURFFLAG           =        127D                                  #  LM ON LUNAR SURFACE LM NOT ON LUNAR
001044: 43,2000     5017               SURFFBIT           =        BIT8                                  #                      SURFACE
001045:
001046:
001047:                                                                                                  #  BIT 7 FLAG 8  (S)
001048: 43,2000                        INFINFLG           =        128D                                  #  NO CONIC SOLUTION   CONIC SOLUTION
001049:                                                                                                  #  (CLOSURE THROUGH    EXISTS
001050: 43,2000     5020               INFINBIT           =        BIT7                                  #  INFINITY REQUIRED)
001051:
001052:
001053:                                                                                                  #  BIT 6 FLAG 8  (S)
001054: 43,2000                        ORDERSW            =        129D                                  #  ITERATOR USES 2ND   ITERATOR USES 1ST
001055: 43,2000     5021               ORDERBIT           =        BIT6                                  #  ORDER MINIMUM MODE  ORDER STANDARD MODE
001056:
001057:
001058:
001059:                                                                                                  #  BIT 5 FLAG 8  (S)
001060: 43,2000                        APSESW             =        130D                                  #  RDESIRED OUTSIDE    RDESIRED INSIDE
001061:                                                                                                  #  PERICENTER-APOCENTERPERICENTER-APOCENTER
001062: 43,2000     5022               APSESBIT           =        BIT5                                  #  RANGE IN TIME-RADI  RANGE IN TIME-RADIUS
001063:
001064:
001065:                                                                                                  #  BIT 4 FLAG 8  (S)
001066: 43,2000                        COGAFLAG           =        131D                                  #  NO CONIC SOLUTION - CONIC SOLUTION
001067:                                                                                                  #  TOO CLOSE TO RECTI- EXISTS(COGA DOES NOT
001068: 43,2000     5023               COGAFBIT           =        BIT4                                  #  LINEAR(COGA OVRFLWS) OVERFLOW)
001069:
001070:
001071:                                                                                                  #  BIT 3 FLAG 8
001072:                                                                                                  #                =               132D
001073:
001074:                                                                                                  #  BIT 2 FLAG 8
001075:                                                                                                  #                =               133D
001076:                                                                                                  #                =               BIT2
001077:
001078:
001079:                                                                                                  #  BIT 1 FLAG 8  (S)
001080: 43,2000                        360SW              =        134D                                  #  TRANSFER ANGLE NEAR TRANSFER ANGLE NOT
001081: 43,2000     5026               360SWBIT           =        BIT1                                  #  360 DEGREES         NEAR 360 DEGREES
001082:
001083:
001084: 43,2000     0105               FLAGWRD9           =        STATE      +9D                        #  (135-149)
001085:
001086:                                                                                                  #  (SET)               (RESET)
001087:
001088:
001089:                                                                                                  #  BIT 15 FLAG 9
001090: 43,2000                        ENGOFFSW           =        135D
001091: 43,2000     5010               ENGOFBIT           =        BIT15
001092:
001093:                                                                                                  #  BIT 14 FLAG 9 (L)
001094: 43,2000                        FLVR               =        136D                                  #  VERTICAL RISE       NON-VERTICAL RISE
001095: 43,2000     5011               FLVRBIT            =        BIT14                                 #  (ASCENT GUIDANCE)
001096:
001097:
001098:                                                                                                  #  BIT 13 FLAG 9
001099: 43,2000                        FLP70              =        137D                                  #  P70 HAS BEEN CALLED  P70 HAS NOT BEEN
001100: 43,2000     5012               FLP70BIT           =        BIT13                                 #                       CALLED
001101:
001102:
001103:                                                                                                  #  BIT 12 FLAG 9 (L)
001104: 43,2000                        FLPC               =        138D                                  #  NO POSITION CONTROL  POSITION CONTROL
001105: 43,2000     5013               FLPCBIT            =        BIT12                                 #  (ASCENT GUIDANCE)
001106:
001107:
001108:
001109:                                                                                                  #  BIT 11 FLAG 9 (L)
001110: 43,2000                        FLPI               =        139D                                  #  PRE-IGNITION PHASE   REGULAR GUIDANCE
001111: 43,2000     5014               FLPIBIT            =        BIT11                                 #  (ASCENT GUIDANCE)
001112:
001113:
001114:                                                                                                  #  BIT 10 FLAG 9 (L)
001115: 43,2000                        FLRCS              =        140D                                  #  RCS INJECTION MODE   MAIN ENGINE MODE
001116: 43,2000     5015               FLRCSBIT           =        BIT10                                 #  (ASCENT GUIDANCE)
001117:
001118:
001119:                                                                                                  #  BIT 9 FLAG 9  (L)
001120: 43,2000                        LETABORT           =        141D                                  #  ABORT PROGRAMS       ABORT PROGRAMS
001121: 43,2000     5016               LETABBIT           =        BIT9                                  #  ARE ENABLED          ARE NOT ENABLED
001122:
001123:
001124:                                                                                                  #  BIT 8 FLAG 9  (L)
001125: 43,2000                        FLAP               =        142D                                  #  APS CONTINUED ABORT   APS ABORT IS NOT A
001126:                                                                                                  #  AFTER DPS STAGING    CONTINUATION
001127: 43,2000     5017               FLAPBIT            =        BIT8                                  #  (ASCENT GUIDANCE)
001128:
001129:
001130:                                                                                                  #  BIT 7 FLAG 9  (L)
001131: 43,2000                        FLIC               =        143D                                  #  INITIAL COMPUTATION  NOT INITIAL COMP
001132: 43,2000     5020               FLICBIT            =        BIT7                                  #  CYCLE FOR ABORTS     CYCLE FOR ABORTS
001133:
001134:                                                                                                  #  BIT 6 FLAG 9  (L)
001135: 43,2000                        FLZONE0            =        144D                                  #  EARLY ABORT          LATE ABORT
001136: 43,2000     5021               FLZONBIT           =        BIT6                                  #  TFI . 50 SECS.       TFI > 50 SECS.
001137:                                                                                                  #  P70 --> P40
001138:                                                                                                  #  P71 --> P42
001139:
001140:                                                                                                  #  BIT 5 FLAG 9  (S)
001141: 43,2000                        QUITFLAG           =        145D                                  #  DISCONTINUE INTEGR.  CONTINUE INTEGRATION
001142: 43,2000     5022               QUITBIT            =        BIT5
001143:
001144:
001145:                                                                                                  #  BIT 4 FLAG 9
001146: 43,2000                        R31FLAG            =        146D
001147: 43,2000     5023               R31FLBIT           =        BIT4
001148:
001149:
001150:                                                                                                  #  BIT 3 FLAG 9  (L)
001151: 43,2000                        MID1FLAG           =        147D                                  #  INTEGRATE TO TDEC    INTEGRATE TO THE
001152: 43,2000     5024               MID1FBIT           =        BIT3                                  #                       THEN-PRESENT TIME
001153:
001154:
001155:                                                                                                  #  BIT 2 FLAG 9  (L)
001156: 43,2000                        MIDAVFLG           =        148D                                  #  INTEGRATION ENTERED  INTEGRATION WAS
001157:                                                                                                  #  FROM ONE OF MIDTOAV  NOT ENTERED VIA
001158: 43,2000     5025               MIDAVBIT           =        BIT2                                  #  PORTALS              MIDTOAV
001159:
001160:
001161:                                                                                                  #  BIT 1 FLAG 9  (S)
001162: 43,2000                        AVEMIDSW           =        149D                                  #  AVETOMID CALLING    NO AVETOMID W INTEGR
001163:                                                                                                  #  FOR W.MATRIX INTEGR ALLOW SET UP RM,VN.
001164: 43,2000     5026               AVEMDBIT           =        BIT1                                  #  DONT WRITE OVER RN, PIPTIME
001165:                                                                                                  #  VN,PIPTIME
001166:
001167:
001168:                                                                                                  #  GENERAL ERASABLE ASSIGNMENTS.
001169:
001170:    0061                                           SETLOC   61
001171:                                                                                                  #           INTERRUPT TEMPORARY STORAGE POOL.                              (11D)
001172:
001173:                                                                                                  #             (ITEMP1 THROUGH RUPTREG4)
001174:
001175:                                                                                                  #           ANY OF THESE MAY BE USED AS TEMPORARIES DURING INTERRUPT OR WITH INTERRUPT INHIBITED. THE ITEMP SERIES
001176:                                                                                                  #  IS USED DURING CALLS TO THE EXECUTIVE AND WAITLIST - THE RUPTREGS ARE NOT.
001177:
001178:    0061                        ITEMP1             ERASE
001179:    0062     0061               WAITEXIT           EQUALS   ITEMP1
001180:    0062     0061               EXECTEM1           EQUALS   ITEMP1
001181:
001182:    0062                        ITEMP2             ERASE
001183:    0063     0062               WAITBANK           EQUALS   ITEMP2
001184:    0063     0062               EXECTEM2           EQUALS   ITEMP2
001185:
001186:    0063                        ITEMP3             ERASE
001187:    0064     0063               RUPTSTOR           EQUALS   ITEMP3
001188:    0064     0063               WAITADR            EQUALS   ITEMP3
001189:    0064     0063               NEWPRIO            EQUALS   ITEMP3
001190:
001191:    0064                        ITEMP4             ERASE
001192:    0065     0064               LOCCTR             EQUALS   ITEMP4
001193:    0065     0064               WAITTEMP           EQUALS   ITEMP4
001194:
001195:    0065                        ITEMP5             ERASE
001196:    0066     0065               NEWLOC             EQUALS   ITEMP5
001197:
001198:    0066                        ITEMP6             ERASE
001199:                                                                                                  #  NEWLOC+1      EQUALS  ITEMP6          DP ADDRESS.
001200:
001201:    0067                                           SETLOC   67
001202:    0067                        NEWJOB             ERASE                                          #  MUST BE AT LOC 67 DUE TO WIRING.
001203:
001204:    0070                        RUPTREG1           ERASE
001205:    0071                        RUPTREG2           ERASE
001206:    0072                        RUPTREG3           ERASE
001207:    0073                        RUPTREG4           ERASE
001208:    0074     0073               KEYTEMP1           EQUALS   RUPTREG4
001209:    0074     0073               DSRUPTEM           EQUALS   RUPTREG4
001210:
001211:                                                                                                  #           FLAGWORD RESERVATIONS.                (13D)
001212:
001213:    0074                        STATE              ERASE    +12D                                  #  FLAGWORD REGISTERS.
001214:
001215:
001216:                                                                                                  #           RENDEZVOUS RADAR TASK STORAGE                                (3D)
001217:
001218:    0111                        RRRET              ERASE    +2D                                   #  B(1)TMP  P20'S, PERHAPS R29 & R12
001219:    0114     0112               RDES               EQUALS   RRRET      +1                         #  B(1)TMP
001220:    0114     0113               RRINDEX            EQUALS   RDES       +1                         #  B(1)TMP
001221:
001222:
001223:
001224:                                                                                                  #           EXEC TEMPORARIES WHICH MAY BE USED BETWEEN CCS NEWJOBS. (32D) (INTB15+ THROUGH RUPTMXTM)
001225:    0114                        INTB15+            ERASE                                          #  REFLECTS 15TH BIT OF INDEXABLE ADDRESSES
001226:    0115     0114               DSEXIT             =        INTB15+                               #  RETURN FOR DSPIN
001227:    0115     0114               EXITEM             =        INTB15+                               #  RETURN FOR SCALE FACTOR ROUTINE SELECT
001228:    0115     0114               BLANKRET           =        INTB15+                               #  RETURN FOR 2BLANK
001229:
001230:    0115                        INTBIT15           ERASE                                          #  SIMILAR TO ABOVE.
001231:    0116     0115               WRDRET             =        INTBIT15                              #  RETURN FOR 5BLANK
001232:    0116     0115               WDRET              =        INTBIT15                              #  RETURN FOR DSPWD
001233:    0116     0115               DECRET             =        INTBIT15                              #  RETURN FOR PUTCOM(DEC LOAD)
001234:    0116     0115               21/22REG           =        INTBIT15                              #  TEMP FOR CHARIN
001235:
001236:                                                                                                  #           THE REGISTERS BETWEEN ADDRWD AND PRIORITY MUST STAY IN THE FOLLOWING ORDER FOR INTERPRETIVE TRACE.
001237:
001238:    0116                        ADDRWD             ERASE                                          #  12 BIT INTERPRETIVE OPERAND SUB-ADDRESS.
001239:    0117                        POLISH             ERASE                                          #  HOLDS CADR MADE FROM POLISH ADDRESS.
001240:    0120     0117               UPDATRET           =        POLISH                                #  RETURN FOR UPDATNN, UPDATVB
001241:    0120     0117               CHAR               =        POLISH                                #  TEMP FOR CHARIN
001242:    0120     0117               ERCNT              =        POLISH                                #  COUNTER FOR ERROR LIGHT RESET
001243:    0120     0117               DECOUNT            =        POLISH                                #  COUNTER FOR SCALING AND DISPLAY (DEC)
001244:
001245:    0120                        FIXLOC             ERASE                                          #  WORK AREA ADDRESS.
001246:    0121                        OVFIND             ERASE                                          #  SET NON-ZERO ON OVERFLOW.
001247:
001248:    0122                        VBUF               ERASE    +5                                    #  TEMPORARY STORAGE USED FOR VECTORS.
001249:    0130     0122               SGNON              =        VBUF                                  #  TEMP FOR +,- ON
001250:    0130     0122               NOUNTEM            =        VBUF                                  #  COUNTER FOR MIXNOUN FETCH
001251:    0130     0122               DISTEM             =        VBUF                                  #  COUNTER FOR OCTAL DISPLAY VERBS
001252:    0130     0122               DECTEM             =        VBUF                                  #  COUNTER FOR FETCH (DEC DISPLAY VERBS)
001253:
001254:    0130     0123               SGNOFF             =        VBUF       +1                         #  TEMP FOR +,- ON
001255:    0130     0123               NVTEMP             =        VBUF       +1                         #  TEMP FOR NVSUB
001256:    0130     0123               SFTEMP1            =        VBUF       +1                         #  STORAGE FOR SF CONST HI PART(=SFTEMP2-1)
001257:    0130     0123               HITEMIN            =        VBUF       +1                         #  TEMP FOR LOAD OF HRS, MIN, SEC
001258:                                                                                                  #           MUST = LOTEMIN-1.
001259:    0130     0124               CODE               =        VBUF       +2                         #  FOR DSPIN
001260:    0130     0124               SFTEMP2            =        VBUF       +2                         #  STORAGE FOR SF CONST LO PART(=SFTEMP1+1)
001261:    0130     0124               LOTEMIN            =        VBUF       +2                         #  TEMP FOR LOAD OF HRS, MIN, SEC
001262:                                                                                                  #           MUST = HITEMIN+1.
001263:    0130     0125               MIXTEMP            =        VBUF       +3                         #  FOR MIXNOUN DATA
001264:    0130     0125               SIGNRET            =        VBUF       +3                         #  RETURN FOR +,- ON
001265:
001266:                                                                                                  #  ALSO MIXTEMP+1 = VBUF+4, MIXTEMP+2 = VBUF+5.
001267:
001268:    0130                        BUF                ERASE    +2                                    #  TEMPORARY SCALAR STORAGE.
001269:    0133                        BUF2               ERASE    +1
001270:    0135     0130               INDEXLOC           EQUALS   BUF                                   #  CONTAINS ADDRESS OF SPECIFIED INDEX.
001271:    0135     0130               SWWORD             EQUALS   BUF                                   #  ADDRESS OF SWITCH WORD.
001272:    0135     0131               SWBIT              EQUALS   BUF        +1                         #  SWITCH BIT WITHIN SWITCH WORD.
001273:    0135                        MPTEMP             ERASE                                          #  TEMPORARY USED IN MULTIPLY AND SHIFT.
001274:    0136     0135               DMPNTEMP           =        MPTEMP                                #  DMPSUB TEMPORARY
001275:    0136                        DOTINC             ERASE                                          #  COMPONENT INCREMENT FOR DOT SUBROUTINE.
001276:    0137     0136               DVSIGN             EQUALS   DOTINC                                #  DETERMINES SIGN OF DDV RESULT.
001277:    0137     0136               ESCAPE             EQUALS   DOTINC                                #  USED IN ARCSIN/ARCCOS.
001278:    0137     0136               ENTRET             =        DOTINC                                #  EXIT FROM ENTER
001279:
001280:    0137                        DOTRET             ERASE                                          #  RETURN FROM DOT SUBROUTINE.
001281:    0140     0137               DVNORMCT           EQUALS   DOTRET                                #  DIVIDEND NORMALIZATION COUNT IN DDV.
001282:    0140     0137               ESCAPE2            EQUALS   DOTRET                                #  ALTERNATE ARCSIN/ARCCOS SWITCH.
001283:    0140     0137               WDCNT              =        DOTRET                                #  CHAR COUNTER FOR DSPWD
001284:    0140     0137               INREL              =        DOTRET                                #  INPUT BUFFER SELECTOR ( X,Y,Z, REG )
001285:
001286:    0140                        MATINC             ERASE                                          #  VECTOR INCREMENT IN MXV AND VXM.
001287:    0141     0140               MAXDVSW            EQUALS   MATINC                                #  +0 IF DP QUOTIENT IS NEAR ONE - ELSE -1.
001288:    0141     0140               POLYCNT            EQUALS   MATINC                                #  POLYNOMIAL LOOP COUNTER
001289:    0141     0140               DSPMMTEM           =        MATINC                                #  DSPCOUNT SAVE FOR DSPMM
001290:    0141     0140               MIXBR              =        MATINC                                #  INDICATOR FOR MIXED OR NORMAL NOUN
001291:
001292:    0141                        TEM1               ERASE                                          #  EXEC TEMP
001293:    0142     0141               POLYRET            =        TEM1
001294:    0142     0141               DSREL              =        TEM1                                  #  REL ADDRESS FOR DSPIN
001295:
001296:    0142                        TEM2               ERASE                                          #  EXEC TEMP
001297:    0143     0142               DSMAG              =        TEM2                                  #  MAGNITUDE STORE FOR DSPIN
001298:    0143     0142               IDADDTEM           =        TEM2                                  #  MIXNOUN INDIRECT ADDRESS STORAGE
001299:
001300:    0143                        TEM3               ERASE                                          #  EXEC TEMP
001301:    0144     0143               COUNT              =        TEM3                                  #  FOR DSPIN
001302:
001303:    0144                        TEM4               ERASE                                          #  EXEC TEMP
001304:    0145     0144               LSTPTR             =        TEM4                                  #  LIST POINTER FOR GRABUSY
001305:    0145     0144               RELRET             =        TEM4                                  #  RETURN FOR RELDSP
001306:    0145     0144               FREERET            =        TEM4                                  #  RETURN FOR FREEDSP
001307:    0145     0144               DSPWDRET           =        TEM4                                  #  RETURN FOR DSPSIGN
001308:    0145     0144               SEPSCRET           =        TEM4                                  #  RETURN FOR SEPSEC
001309:    0145     0144               SEPMNRET           =        TEM4                                  #  RETURN FOR SEPMIN
001310:
001311:    0145                        TEM5               ERASE                                          #  EXEC TEMP
001312:    0146     0145               NOUNADD            =        TEM5                                  #  TEMP STORAGE FOR NOUN ADDRESS
001313:
001314:    0146                        NNADTEM            ERASE                                          #  TEMP FOR NOUN ADDRESS TABLE ENTRY
001315:    0147                        NNTYPTEM           ERASE                                          #  TEMP FOR NOUN TYPE TABLE ENTRY
001316:    0150                        IDAD1TEM           ERASE                                          #  TEMP FOR INDIR ADRESS TABLE ENTRY(MIXNN)
001317:                                                                                                  #  MUST = IDAD2TEM-1, = IDAD3TEM-2.
001318:    0151                        IDAD2TEM           ERASE                                          #  TEMP FOR INDIR ADRESS TABLE ENTRY(MIXNN)
001319:
001320:    0152                        IDAD3TEM           ERASE                                          #  TEMP FOR INDIR ADRESS TABLE ENTRY (MIXNN)
001321:                                                                                                  #  MUST = IDAD1TEM+2, = IDAD2TEM+1.
001322:    0153                        RUTMXTEM           ERASE                                          #  TEMP FOR SF ROUT TABLE ENTRY (MIXNN ONLY)
001323:
001324:                                                                                                  #           AX*SR*T STORAGE.                      (6D)
001325:    0154     0142               DEXDEX             EQUALS   TEM2                                  #  B(1)TMP
001326:    0154     0143               DEX1               EQUALS   TEM3                                  #  B(1)TMP
001327:    0154     0144               DEX2               EQUALS   TEM4                                  #  B(1)TMP
001328:    0154     0145               RTNSAVER           EQUALS   TEM5                                  #  B(1)TMP
001329:    0154     0133               TERM1TMP           EQUALS   BUF2                                  #  B(2)TMP
001330:
001331:    0154     0143               DEXI               =        DEX1
001332:
001333:                                                                                                  #           THE FOLLOWING 10 REGISTERS ARE USED FOR TEMPORARY STORAGE OF THE DERIVATIVE COEFFICIENT TABLE OF
001334:                                                                                                  #  SUBROUTINE ROOTPSRS.   THEY MUST REMAIN WITHOUT INTERFERENCE WITH ITS SUBROUTINES WHICH ARE POWRSERS (POLY),
001335:                                                                                                  #  DMPSUB, DMPNSUB, SHORTMP, DDV/BDDV, ABS, AND USPRCADR.
001336:
001337:    0154     0142               DERCOF-8           =        MPAC       -12                        #  ROOTPSRS DER COF N-4 HI ORDER
001338:    0154     0143               DERCOF-7           =        MPAC       -11                        #  ROOTPSRS DER COF N-4 LO ORDER
001339:    0154     0144               DERCOF-6           =        MPAC       -10                        #  ROOTPSRS DER COF N-3 HI ORDER
001340:    0154     0145               DERCOF-5           =        MPAC       -7                         #  ROOTPSRS DER COF N-3 LO ORDER
001341:    0154     0146               DERCOF-4           =        MPAC       -6                         #  ROOTPSRS DER COF N-2 HI ORDER
001342:    0154     0147               DERCOF-3           =        MPAC       -5                         #  ROOTPSRS DER COF N-2 LO ORDER
001343:    0154     0150               DERCOF-2           =        MPAC       -4                         #  ROOTPSRS DER COF N-1 HI ORDER
001344:    0154     0151               DERCOF-1           =        MPAC       -3                         #  ROOTPSRS DER COF N-1 LO ORDER
001345:    0154     0152               DERCOFN            =        MPAC       -2                         #  ROOTPSRS DER COF N HI ORDER
001346:    0154     0153               DERCOF+1           =        MPAC       -1                         #  ROOTPSRS DER COF N LO ORDER
001347:
001348:    0154     0117               PWRPTR             =        POLISH                                #  ROOTPSRS POWER TABLE POINTER
001349:    0154     0124               DXCRIT             =        VBUF       +2                         #  ROOTPSRS CRITERION FOR ENDING ITERS HI
001350:    0154     0125               DXCRIT+1           =        VBUF       +3                         #  ROOTPSRS CRITERION FOR ENDING ITERS LO
001351:    0154     0126               ROOTPS             =        VBUF       +4                         #  ROOTPSRS ROOT HI ORDER
001352:    0154     0127               ROOTPS+1           =        VBUF       +5                         #  ROOTPSRS ROOT LO ORDER
001353:    0154     0132               RETROOT            =        BUF        +2                         #  ROOTPSRS RETURN ADDRESS OF USER
001354:    0154     0140               PWRCNT             =        MATINC                                #  ROOTPSRS DER TABLE LOOP COUNTER
001355:    0154     0141               DERPTR             =        TEM1                                  #  ROOTPSRS DER TABLE POINTER
001356:
001357:                                                                                                  #           DYNAMICALLY ALLOCATED CORE SETS FOR JOBS.                    (84D)
001358:
001359:    0154                        MPAC               ERASE    +6                                    #  MULTI-PURPOSE ACCUMULATOR.
001360:    0163                        MODE               ERASE                                          #  +1 FOR TP, +0 FOR DP, OR -1 FOR VECTOR.
001361:    0164                        LOC                ERASE                                          #  LOCATION ASSOCIATED WITH JOB.
001362:    0165                        BANKSET            ERASE                                          #  USUALLY CONTAINS BBANK SETTING.
001363:    0166                        PUSHLOC            ERASE                                          #  WORD OF PACKED INTERPRETIVE PARAMETERS.
001364:    0167                        PRIORITY           ERASE                                          #  PRIORITY OF PRESENT JOB AND WORK AREA.
001365:
001366:    0170                                           ERASE    +71D                                  #  SEVEN SETS OF 12 REGISTERS EACH.
001367:
001368:                                                                                                  #  P27  (UPDATE PROGRAM ) STORAGE.                                       (26D)
001369:
001370:    0300                        UPVERBSV           ERASE                                          #  B(1) UPDATE VERB ATTEMPTED.
001371:    0301                        UPTEMP             ERASE    +24D                                  #  B(1)TMP SCRATCH
001372:    0332     0301               INTWAK1Q           EQUALS   UPTEMP                                #      (BORROWS UPTEMP REGISTERS)
001373:                                                                                                  #  RETAIN THE ORDER OF COMPNUMB THRU UPBUFF +19D FOR DOWNLINK PURPOSES.
001374:    0332     0302               COMPNUMB           EQUALS   UPTEMP     +1                         #  B(1)TMP NUMBER OF ITEMS TO BE UPLINKED
001375:    0332     0303               UPOLDMOD           EQUALS   COMPNUMB   +1                         #  B(1)TMP INTERRUPTED PROGRAM MM
001376:    0332     0304               UPVERB             EQUALS   UPOLDMOD   +1                         #  B(1)TMP VERB NUMBER
001377:    0332     0305               UPCOUNT            EQUALS   UPVERB     +1                         #  B(1)TMP UPBUFF INDEX
001378:    0332     0306               UPBUFF             EQUALS   UPCOUNT    +1                         #  B(20D)
001379:
001380:
001381:                                                                                                  #           DOWNLINK STORAGE.                                            (28D)
001382:
001383:    0332     0332               DNLSTADR           EQUALS   DNLSTCOD
001384:
001385:    0332                        DNLSTCOD           ERASE                                          #  B(1)PRM DOWNLIINK LIST CODE
001386:    0333                        DUMPCNT            ERASE                                          #  B(1)
001387:    0334                        LDATALST           ERASE    +25D                                  #  (26D)
001388:    0366     0335               DNTMGOTO           EQUALS   LDATALST   +1                         #  B(1)
001389:    0366     0336               TMINDEX            EQUALS   DNTMGOTO   +1                         #  B(1)
001390:    0366     0336               DUMPLOC            EQUALS   TMINDEX                               #  CONTAINS ECADR OF AGC DP WORD BEING DUMP
001391:                                                                                                  #  ED AND COUNT OF COMPLETE DUMPS ALREADY S
001392:                                                                                                  #  ENT.
001393:    0366     0337               DNQ                EQUALS   TMINDEX    +1                         #  B(1)
001394:    0366     0340               DNTMBUFF           EQUALS   DNQ        +1                         #  B(22)PRM DOWNLINK SNAPSHOT BUFFER
001395:
001396:                                                                                                  #           UNSWITCHED FOR DISPLAY INTERFACE ROUTINES.                   (10D) FIVE MORE IN EBANK 2
001397:
001398:    0366                        RESTREG            ERASE                                          #  B(1)PRM FOR DISPLAY RESTARTS
001399:    0367                        NVWORD             ERASE
001400:    0370                        MARKNV             ERASE
001401:    0371                        NVSAVE             ERASE
001402:                                                                                                  #                  (RETAIN THE ORDER OF CADRFLSH TO FAILREG +2 FOR DOWNLINK PURPOSES)
001403:    0372                        CADRFLSH           ERASE
001404:    0373                        CADRMARK           ERASE
001405:    0374                        TEMPFLSH           ERASE
001406:    0375                        FAILREG            ERASE    +2                                    #  B(3)PRM 3 ALARM CODE REGISTERS
001407:
001408:
001409:                                                                                                  #           VAC AREAS. -BE CAREFUL OF PLACEMENT-                         (220D)
001410:
001411:    0400                        VAC1USE            ERASE
001412:    0401                        VAC1               ERASE    +42D
001413:    0454                        VAC2USE            ERASE
001414:    0455                        VAC2               ERASE    +42D
001415:    0530                        VAC3USE            ERASE
001416:    0531                        VAC3               ERASE    +42D
001417:    0604                        VAC4USE            ERASE
001418:    0605                        VAC4               ERASE    +42D
001419:    0660                        VAC5USE            ERASE
001420:    0661                        VAC5               ERASE    +42D
001421:
001422:                                                                                                  #           WAITLIST REPEAT FLAG.                                        (1D)
001423:
001424:    0734                        RUPTAGN            ERASE
001425:    0735     0734               KEYTEMP2           =        RUPTAGN                               #  TEMP FOR KEYRUPT, UPRUPT
001426:
001427:
001428:
001429:                                                                                                  #           STARALIGN ERASABLES.                                         (13D)
001430:
001431:    0735                        STARCODE           ERASE                                          #  (1)
001432:    0736     0735               AOTCODE            =        STARCODE
001433:    0736                        STARALGN           ERASE    +11D
001434:    0752     0736               SINCDU             =        STARALGN
001435:    0752     0744               COSCDU             =        STARALGN   +6
001436:
001437:    0752     0742               SINCDUX            =        SINCDU     +4
001438:    0752     0736               SINCDUY            =        SINCDU
001439:    0752     0740               SINCDUZ            =        SINCDU     +2
001440:    0752     0750               COSCDUX            =        COSCDU     +4
001441:    0752     0744               COSCDUY            =        COSCDU
001442:    0752     0746               COSCDUZ            =        COSCDU     +2
001443:
001444:
001445:                                                                                                  #           PHASE TABLE AND RESTART COUNTERS.                            (12D)
001446:
001447:    0752                        -PHASE1            ERASE
001448:    0753                        PHASE1             ERASE
001449:    0754                        -PHASE2            ERASE
001450:    0755                        PHASE2             ERASE
001451:    0756                        -PHASE3            ERASE
001452:    0757                        PHASE3             ERASE
001453:    0760                        -PHASE4            ERASE
001454:    0761                        PHASE4             ERASE
001455:    0762                        -PHASE5            ERASE
001456:    0763                        PHASE5             ERASE
001457:    0764                        -PHASE6            ERASE
001458:    0765                        PHASE6             ERASE
001459:
001460:                                                                                                  #           A**SR*T STORAGE.                                             (6D)
001461:
001462:    0766                        CDUSPOT            ERASE    +5                                    #  B(6)
001463:
001464:    0774     0766               CDUSPOTY           =        CDUSPOT
001465:    0774     0770               CDUSPOTZ           =        CDUSPOT    +2
001466:    0774     0772               CDUSPOTX           =        CDUSPOT    +4
001467:
001468:                                                                                                  #  INTSTALL-ERASTALL FLAG    (1D)
001469:    0774                        RASFLAG            ERASE
001470:
001471:                                                                                                  #           VERB 37 STORAGE.                                             (2D)
001472:
001473:    0775                        MINDEX             ERASE                                          #  B(1)TMP INDEX FOR MAJOR MODE
001474:    0776                        MMNUMBER           ERASE                                          #  B(1)TMP MAJOR MODE REQUESTED BY V37
001475:
001476:                                                                                                  #  PINBALL INTERRUPT ACTION.                                             (1D)
001477:
001478:    0777                        DSPCNT             ERASE                                          #  B(1)PRM COUNTER FOR DSPOUT.
001479:
001480:                                                                                                  #  PINBALL EXECUTIVE ACTION                                              (44D)
001481:
001482:    1000                        DSPCOUNT           ERASE                                          #  DISPLAY POSITION INDICATOR.
001483:    1001                        DECBRNCH           ERASE                                          #  +DEC, -DEC, OCT INDICATOR
001484:    1002                        VERBREG            ERASE                                          #  VERB CODE
001485:    1003                        NOUNREG            ERASE                                          #  NOUN CODE
001486:    1004                        XREG               ERASE                                          #  R1 INPUT BUFFER
001487:    1005                        YREG               ERASE                                          #  R2 INPUT BUFFER
001488:    1006                        ZREG               ERASE                                          #  R3 INPUT BUFFER
001489:    1007                        XREGLP             ERASE                                          #  LO PART OF XREG (FOR DEC CONV ONLY)
001490:    1010                        YREGLP             ERASE                                          #  LO PART OF YREG (FOR DEC CONV ONLY)
001491:    1011     1010               HITEMOUT           =        YREGLP                                #  TEMP FOR DISPLAY OF HRS, MIN, SEC
001492:                                                                                                  #           MUST = LOTEMOUT-1.
001493:    1011                        ZREGLP             ERASE                                          #  LO PART OF ZREG (FOR DEC CONV ONLY)
001494:    1012     1011               LOTEMOUT           =        ZREGLP                                #  TEMP FOR DISPLAY OF HRS, MIN, SEC
001495:                                                                                                  #           MUST = HITEMOUT+1.
001496:    1012                        MODREG             ERASE                                          #  MODE CODE
001497:
001498:    1013                        DSPLOCK            ERASE                                          #  KEYBOARD/SUBROUTINE CALL INTERLOCK
001499:    1014                        REQRET             ERASE                                          #  RETURN REGISTER FOR LOAD
001500:    1015                        LOADSTAT           ERASE                                          #  STATUS INDICATOR FOR LOADTST
001501:    1016                        CLPASS             ERASE                                          #  PASS INDICATOR CLEAR
001502:    1017                        NOUT               ERASE                                          #  ACTIVITY COUNTER FOR DSPTAB
001503:    1020                        NOUNCADR           ERASE                                          #  MACHINE CADR FOR NOUN
001504:    1021                        MONSAVE            ERASE                                          #  N/V CODE FOR MONITOR. (= MONSAVE1-1)
001505:    1022                        MONSAVE1           ERASE                                          #  NOUNCADR FOR MONITOR(MATBS) =MONSAVE +1
001506:    1023                        MONSAVE2           ERASE                                          #  NVMONOPT OPTIONS
001507:    1024                        DSPTAB             ERASE    +11D                                  #  0-10D, DISPLAY PANEL BUFF. 11D, C/S LTS.
001508:    1040                        NVQTEM             ERASE                                          #  NVSUB STORAGE FOR CALLING ADDRESS
001509:                                                                                                  #  MUST = NVBNKTEM-1
001510:    1041                        NVBNKTEM           ERASE                                          #  NVSUB STORAGE FOR CALLING BANK
001511:                                                                                                  #  MUST = NVQTEM+1
001512:    1042                        VERBSAVE           ERASE                                          #  NEEDED FOR RECYCLE
001513:    1043                        CADRSTOR           ERASE                                          #  ENDIDLE STORAGE
001514:    1044                        DSPLIST            ERASE                                          #  WAITING REG FOR DSP SYST INTERNAL USE
001515:    1045                        EXTVBACT           ERASE                                          #  EXTENDED VERB ACTIVITY INTERLOCK
001516:    1046                        DSPTEM1            ERASE    +2                                    #  BUFFER STORAGE AREA 1 (MOSTLY FOR TIME)
001517:    1051                        DSPTEM2            ERASE    +2                                    #  BUFFER STORAGE AREA 2 (MOSTLY FOR DEG)
001518:
001519:    1054     1052               DSPTEMX            EQUALS   DSPTEM2    +1                         #  B(2) S-S DISPLAY BUFFER FOR EXT. VERBS
001520:    1054     1046               NORMTEM1           EQUALS   DSPTEM1                               #  B(3)DSP NORMAL DISPLAY REGISTERS.
001521:
001522:
001523:                                                                                                  #  INCORP STORAGE: R22 (N29)    (SHARES WITH PREVIOUS SECTION)         (4D)
001524:
001525:    1054     1046               R22DISP            EQUALS   DSPTEM1                               #  I(4) N49 DISPLAY OF DELTA R AND DELTA V
001526:
001527:
001528:                                                                                                  #           TBASES AND PHSPRDT S.                                        (12D)
001529:
001530:    1054                        TBASE1             ERASE
001531:    1055                        PHSPRDT1           ERASE
001532:    1056                        TBASE2             ERASE
001533:    1057                        PHSPRDT2           ERASE
001534:    1060                        TBASE3             ERASE
001535:    1061                        PHSPRDT3           ERASE
001536:    1062                        TBASE4             ERASE
001537:    1063                        PHSPRDT4           ERASE
001538:    1064                        TBASE5             ERASE
001539:    1065                        PHSPRDT5           ERASE
001540:    1066                        TBASE6             ERASE
001541:    1067                        PHSPRDT6           ERASE
001542:
001543:                                                                                                  #           UNSWITCHED FOR DISPLAY INTERFACE ROUTINES.                   (6D)
001544:
001545:    1070                        EBANKSAV           ERASE
001546:    1071                        MARKEBAN           ERASE
001547:    1072                        EBANKTEM           ERASE
001548:    1073                        MARK2PAC           ERASE
001549:    1074                        R1SAVE             ERASE
001550:
001551:
001552:                                                                                                  #           IMU COMPENSATION UNSWITCHED ERASABLE.                        (1D)
001553:
001554:    1075                        1/PIPADT           ERASE
001555:
001556:
001557:                                                                                                  #           SINGLE PRECISION SUBROUTINE TEMPORARIES.                     (2D)
001558:
001559:                                                                                                  #                                                               SPSIN, SPCOS, SPROOT VARIABLES.
001560:                                                                                                  #                                                               DO NOT SHARE. THESE ARE USED BY DAPS IN INTERRUPT
001561:                                                                                                  #                                                               AND CURRENTLY ARE NOT PROTECTED. IF OTHER USERS
001562:                                                                                                  #                                                               MATERIALIZE, THEN THIS CAN BE CHANGED.
001563:
001564:    1076                        HALFY              ERASE
001565:    1077                        ROOTRET            ERASE
001566:    1100                        SQRARG             ERASE
001567:    1101     1076               TEMK               EQUALS   HALFY
001568:    1101     1077               SQ                 EQUALS   ROOTRET
001569:
001570:
001571:                                                                                                  #           UNSWITCHED RADAR ERASABLE                                    (13D)
001572:
001573:    1101                        RADMODES           ERASE
001574:    1102                        DAPBOOLS           ERASE
001575:    1103                        SAMPLIM            ERASE
001576:    1104                        SAMPLSUM           ERASE    +1
001577:    1106                        OPTYHOLD           ERASE    +1
001578:    1110                        TIMEHOLD           ERASE    +1
001579:    1112     1104               RRTARGET           EQUALS   SAMPLSUM                              #  HALF U IT VECTOR IN SM OR NB AXES.
001580:    1112                        TANG               ERASE    +1                                    #  DESIRE TRUNNION AND SHAFT ANGLES.
001581:    1114     1112               MODEA              EQUALS   TANG
001582:    1114                        MODEB              ERASE    +1                                    #  DODES LOBBERS TANG +2.
001583:    1116     1114               NSAMP              EQUALS   MODEB
001584:    1116                        DESRET             ERASE
001585:    1117     1116               OLDATAGD           EQUALS   DESRET                                #  USED I  DATA READING ROUTINES.
001586:    1117                        DESCOUNT           ERASE
001587:
001588:                                                                                                  #           ******   P22   ******                                        (6D)
001589:
001590:    1120     1104               RSUBC              EQUALS   RRTARGET                              #  I(6)S-S  CSM POSITION VECTOR
001591:
001592:                                                                                                  #           UNSWITCHED FOR ORBIT INTEGRATION.                            (21D)
001593:
001594:    1120                        TDEC               ERASE    +20D                                  #  I(2)
001595:    1145     1122               COLREG             EQUALS   TDEC       +2                         #  I(1)
001596:    1145     1123               LAT                EQUALS   COLREG     +1                         #  I(2)
001597:    1145     1125               LONG               EQUALS   LAT        +2                         #  I(2)
001598:    1145     1127               ALT                EQUALS   LONG       +2                         #  I(2)
001599:    1145     1131               YV                 EQUALS   ALT        +2                         #  I(6)
001600:    1145     1137               ZV                 EQUALS   YV         +6                         #  I(6)
001601:
001602:
001603:                                                                                                  #           MISCELLANEOUS UNSWITCHED.                                    (20D)
001604:
001605:    1145                        UNUSED2            ERASE    +5
001606:
001607:    1153                        P40/RET            ERASE                                          #  (WILL BE PUT IN E6 WHEN THERE IS ROOM)
001608:    1154                        GENRET             ERASE                                          #  B(1)  R61 RETURN CADR.
001609:    1155                        OPTION1            ERASE                                          #  B(1)   NOUN 06 USES THIS
001610:    1156                        OPTION2            ERASE                                          #  B(1)   NOUN 06 USES THIS
001611:    1157                        OPTION3            ERASE                                          #  B(1)  NOUN 06 USES THIS
001612:    1160                        LONGCADR           ERASE    +1                                    #  B(2)  LONGCALL REGISTER
001613:    1162                        LONGBASE           ERASE    +1
001614:    1164                        LONGTIME           ERASE    +1                                    #  B(2)    LONGCALL REGISTER
001615:    1166                        NVWORD1            ERASE
001616:    1167                        CDUTEMPX           ERASE                                          #  B(1)TMP
001617:    1170                        CDUTEMPY           ERASE                                          #  B(1)TMP
001618:    1171                        CDUTEMPZ           ERASE                                          #  B(1)TMP
001619:    1172                        PIPATMPX           ERASE                                          #  B(1)TMP
001620:    1173                        PIPATMPY           ERASE                                          #  B(1)TMP
001621:    1174                        PIPATMPZ           ERASE                                          #  B(1)TMP
001622:
001623:    1175                        DISPDEX            ERASE                                          #  B(1)
001624:    1176                        TEMPR60            ERASE                                          #  B(1)
001625:    1177                        PRIOTIME           ERASE                                          #  B(1)
001626:
001627:    1200                        UNUSED5            ERASE
001628:
001629:
001630:                                                                                                  #  STANDBY VERB ERASABLES.  REDOCTR BEFORE THETADS.                      (14D)
001631:
001632:    1201                        TIME2SAV           ERASE    +1
001633:    1203                        SCALSAVE           ERASE    +1
001634:    1205                        REDOCTR            ERASE                                          #  CONTAINS NUMBER OF RESTARTS
001635:    1206                        THETAD             ERASE    +2
001636:    1211     1206               CPHI               =        THETAD                                #  O   DESIRED GIMBAL ANGLES
001637:    1211     1207               CTHETA             =        THETAD     +1                         #  I   FOR
001638:    1211     1210               CPSI               =        THETAD     +2                         #  M   MANEUVER.
001639:    1211                        DELV               ERASE    +5
001640:    1217     1211               DELVX              =        DELV
001641:    1217     1213               DELVY              =        DELV       +2
001642:    1217     1215               DELVZ              =        DELV       +4
001643:
001644:
001645:                                                                                                  #           SPECIAL DEFINITION FOR SYSTEM TEST ERASABLE PGMS.            (2D)
001646:
001647:    1217     0301               EBUF2              EQUALS   UPTEMP                                #  B(2) FOR EXCLUSIVE USE OF SYSTEM TEST
001648:
001649:
001650:                                                                                                  #           PERM STATE VECTORS FOR BOOST AND DOWNLINK-WHOLE MISSION-     (14D)
001651:
001652:    1217                        RN                 ERASE    +5                                    #  B(6)PRM
001653:    1225                        VN                 ERASE    +5                                    #  B(6)PRM
001654:    1233                        PIPTIME            ERASE    +1                                    #  B(2)PRM  (MUST BE FOLLOWED BY GDT/2)
001655:
001656:
001657:                                                                                                  #           SERVICER   -MUST FOLLOW PIPTIME-                             (22D)
001658:
001659:    1235                        GDT/2              ERASE    +22D                                  #  B(6)TMP (MUST FOLLOW PIPTIME)
001660:    1264     1243               MASS               EQUALS   GDT/2      +6                         #  B(2)
001661:    1264     1243               WEIGHT/G           =        MASS
001662:    1264     1245               ABDELV             EQUALS   MASS       +2                         #  ALCMANU STORAGE)
001663:    1264     1247               /AF/               EQUALS   ABDELV     +2                         #  (6)
001664:    1264     1251               DVTHRSH1           EQUALS   /AF/       +2                         #  (1)
001665:    1264     1201               DVTHRUSH           =        TIME2SAV
001666:    1264     1202               AUXFLAG            =        DVTHRUSH   +1
001667:    1264     1252               AVEGEXIT           EQUALS   DVTHRSH1   +1                         #   (2)
001668:    1264     1252               AVGEXIT            =        AVEGEXIT
001669:    1264     1254               TEMX               EQUALS   AVEGEXIT   +2                         #   (1)
001670:    1264     1255               TEMY               EQUALS   TEMX       +1                         #   (1)
001671:    1264     1256               TEMZ               EQUALS   TEMY       +1                         #   (1)
001672:    1264     1257               PIPCTR             EQUALS   TEMZ       +1                         #  B(1)
001673:    1264     1260               STOPDVC            EQUALS   PIPCTR     +1                         #  B(1)
001674:    1264     1261               PIPAGE             EQUALS   STOPDVC    +1                         #  B(1)
001675:    1264     1262               OUTROUTE           EQUALS   PIPAGE     +1                         #  B(1)
001676:    1264     1263               LRSTAT             EQUALS   OUTROUTE   +1                         #  B(1)
001677:
001678:
001679:
001680:                                                                                                  #           PERMANENT LEM DAP STORAGE.                                   (12D)
001681:
001682:    1264                        CH5MASK            ERASE                                          #  B(1)PRM
001683:    1265                        CH6MASK            ERASE                                          #  B(1)PRM JET FAILURE MASK.
001684:    1266                        DTHETASM           ERASE    +5                                    #   (6)
001685:    1274                        SPNDX              ERASE                                          #  B(1)
001686:    1275                        RCSFLAGS           ERASE                                          #  AUTOPILOT FLAG WORD
001687:                                                                                                  #  BIT ASSIGNMENTS:
001688:                                                                                                  #   1) ALTERYZ SWITCH  (ZEROOR1)
001689:                                                                                                  #   2) NEEDLER SWITCH
001690:                                                                                                  #   3) NEEDLER SWITCH
001691:                                                                                                  #   4) NEEDLER SWITCH
001692:                                                                                                  #   5) NEEDLER SWITCH
001693:                                                                                                  #   9) JUST-IN-DETENT SWITCH
001694:                                                                                                  #  10) PBIT - MANUAL CONTROL SWITCH
001695:                                                                                                  #  11) QRBIT - MANUAL CONTROL SWITCH
001696:                                                                                                  #  12) PSKIP CONTROL (PJUMPADR)
001697:                                                                                                  #  13) 1/ACCJOB CONTROL (ACCSET)
001698:    1276                        T5ADR              ERASE    +1                                    #  GENADR OF NEXT LM DAP T5RUPT. * 2CADR *
001699:                                                                                                  #  BBCON  OF NEXT LM DAP T5RUPT.   2CADR
001700:
001701:
001702:                                                                                                  #           RCS FAILURE MONITOR STORAGE.                                  (1)
001703:
001704:    1300                        PVALVEST           ERASE                                          #  B(1)PRM
001705:
001706:
001707:                                                                                                  #           KALCMANU/DAP INTERFACE.                                      (3D)
001708:
001709:    1301                        DELPEROR           ERASE                                          #  B(1)PRM COMMAND LAGS.
001710:    1302                        DELQEROR           ERASE                                          #  B(1)PRM
001711:    1303                        DELREROR           ERASE                                          #  B(1)PRM
001712:
001713:
001714:                                                                                                  #           MODE SWITCHING ERASABLE.                                     (9D)
001715:
001716:                                                                                                  #      RETAIN THE ORDER OF IMODES30 AND IMODES33 FOR DOWNLINK PURPOSES.
001717:    1304                        IMODES30           ERASE                                          #  B(1)
001718:    1305                        IMODES33           ERASE
001719:    1306                        MODECADR           ERASE    +2                                    #  B(3)PRM
001720:    1311     1306               IMUCADR            EQUALS   MODECADR
001721:    1311     1307               OPTCADR            EQUALS   MODECADR   +1
001722:    1311     1310               RADCADR            EQUALS   MODECADR   +2
001723:    1311                        ATTCADR            ERASE    +2                                    #  B(3)PRM
001724:    1314     1313               ATTPRIO            =        ATTCADR    +2
001725:    1314                        MARKSTAT           ERASE
001726:
001727:                                                                                                  #           T4RUPT ERASABLE.                                             (2D)
001728:
001729:    1315                        DSRUPTSW           ERASE
001730:    1316                        DIDFLG             ERASE                                          #  (1)
001731:    1317                        FINALT             ERASE    +1                                    #  (MAY NOT BE REQUIRED FOR FLIGHTS).
001732:    1321                        LGYRO              ERASE                                          #  (1)
001733:
001734:                                                                                                  #           P25 RADAR STORAGE.                                           (2D)
001735:
001736:    1322                        LASTYCMD           ERASE    +1                                    #  B(1)PRM  THESE ARE CALLED BY T4RUPT
001737:    1324     1323               LASTXCMD           EQUALS   LASTYCMD   +1                         #  B(1)PRM  THEY MUST BE CONTIGUOUS,Y FIRST
001738:
001739:
001740:
001741:                                                                                                  #           MEASINC                                                      (4D)
001742:
001743:    1324                        WIXA               ERASE                                          #  B(1)
001744:    1325                        WIXB               ERASE                                          #  B(1)
001745:    1326                        ZIXA               ERASE                                          #  B(1)
001746:    1327                        ZIXB               ERASE                                          #  B(1)
001747:
001748:                                                                                                  #           AGS DUMMY ID WORD.                                           (1D)
001749:
001750:    1330                        AGSWORD            ERASE
001751:
001752:                                                                                                  #           SOME MISCELLANEOUS UNSWITCHED.                               (6D)
001753:
001754:
001755:    1331                        RATEINDX           ERASE                                          #   (1)    USED BY KALCMANU
001756:    1332                        DELAYLOC           ERASE    +2
001757:    1335                        LEMMASS            ERASE                                          #  KEEP CONTIGUOUS W.  CSMMASS  (1)EACH
001758:    1336                        CSMMASS            ERASE
001759:
001760:                                                                                                  #  LESS IS MORE.
001761:
001762:                                                                                                  #           RENDEZVOUS AND LANDING RADAR DOWNLINK STORAGE.               (7D)
001763:
001764:                                                                                                  #                  (NORMALLY USED DURING P20, BUT MAY ALSO)
001765:                                                                                                  #                  (BE REQUIRED FOR THE V62 SPURIOUS TEST.)
001766:
001767:                                                                                                  #                                  (PLEASE KEEP IN THIS ORDER)
001768:
001769:    1337                        DNRRANGE           ERASE    +6                                    #  B(1) TMP
001770:    1346     1340               DNRRDOT            EQUALS   DNRRANGE   +1                         #  B(1)TMP
001771:    1346     1341               DNINDEX            EQUALS   DNRRDOT    +1                         #  B(1)TMP
001772:    1346     1342               DNLRVELX           EQUALS   DNINDEX    +1                         #  B(1)TMP
001773:    1346     1343               DNLRVELY           EQUALS   DNLRVELX   +1                         #  B(1)TMP
001774:    1346     1344               DNLRVELZ           EQUALS   DNLRVELY   +1                         #  B(1)TMP
001775:    1346     1345               DNLRALT            EQUALS   DNLRVELZ   +1                         #  B(1) TMP
001776:
001777:                                                                                                  #           INCORPORATION UNSWITCHED.                                    (1D)
001778:
001779:    1346     1257               W.IND              EQUALS   PIPCTR                                #  B(1)
001780:
001781:
001782:                                                                                                  #           SUBROUTINE BALLANGS OF R60.                                  (1D)
001783:
001784:    1346                        BALLEXIT           ERASE                                          #  B(1)SAVE LOCATION FOR BALLINGS SUBR EXIT
001785:
001786:                                                                                                  #           CRS61.1 STORAGE. -USED IN R63 (VERB 89)-                       (5D)
001787:
001788:    1347                        CPHIX              ERASE    +2                                    #  B(3)DSP NOUN 96 CALCULATED BY CRS61.1
001789:
001790:
001791:                                                                                                  #           NOUN 87                                                      (2D)
001792:
001793:    1352     1347               AZ                 EQUALS   CPHIX                                 #  B(1)  AZ AND EL MUST BE CONTIGUOUS
001794:    1352     1350               EL                 EQUALS   AZ         +1D                        #  B(1)
001795:
001796:
001797:
001798:                                                                                                  #           NOUN 29                                                      (1D)
001799:    1352                        LRFLAGS            ERASE
001800:
001801:
001802:                                                                                                  #           SOME LEM DAP STORAGE.                         (4D)
001803:
001804:    1353                        DAPDATR1           ERASE                                          #  B(1)DSP DAP CONFIG.
001805:    1354                        TEVENT             ERASE    +1                                    #  B(2)DSP
001806:    1356                        DB                 ERASE                                          #  B(1)TMP DEAD BAND.
001807:
001808:
001809:    1357                        END-UE             EQUALS                                         #  NEXT UNUSED UE ADDRESS
001810:
001811:
001812:                                                                                                  #           SELF-CHECK ASSIGNMENTS.                                      (17D)
001813:
001814:                                                                                                  #                                  (DO NOT MOVE, S-C IS ADDRESS SENSITIVE)
001815:
001816:    1357                        SELFERAS           ERASE    1357       -          1377            #  *** MUST NOT BE MOVED ***
001817:    1357     1357               SFAIL              EQUALS   SELFERAS                              #  B(1)
001818:    1357     1360               ERESTORE           EQUALS   SFAIL      +1                         #  B(1)
001819:    1357     1361               SELFRET            EQUALS   ERESTORE   +1                         #  B(1)    RETURN
001820:    1357     1362               SMODE              EQUALS   SELFRET    +1                         #  B(1)
001821:    1357     1363               ALMCADR            EQUALS   SMODE      +1                         #  B(2)   ALARM-ABORT USER'S 2CADR
001822:    1357     1365               ERCOUNT            EQUALS   ALMCADR    +2                         #  B(1)
001823:    1357     1366               SCOUNT             EQUALS   ERCOUNT    +1                         #  B(3)
001824:    1357     1371               SKEEP1             EQUALS   SCOUNT     +3                         #  B(1)
001825:    1357     1372               SKEEP2             EQUALS   SKEEP1     +1                         #  B(1)
001826:    1357     1373               SKEEP3             EQUALS   SKEEP2     +1                         #  B(1)
001827:    1357     1374               SKEEP4             EQUALS   SKEEP3     +1                         #  B(1)
001828:    1357     1375               SKEEP5             EQUALS   SKEEP4     +1                         #  B(1)
001829:    1357     1376               SKEEP6             EQUALS   SKEEP5     +1                         #  B(1)
001830:    1357     1377               SKEEP7             EQUALS   SKEEP6     +1                         #  B(1)
001831:
001832:                                                                                                  #                  EBANK-3 ASSIGNMENTS
001833:
001834: E3,1400                                           SETLOC   1400
001835:
001836:                                                                                                  #           WAITLIST TASK LISTS.                                         (26D)
001837:
001838: E3,1400                        LST1               ERASE    +7                                    #  B(8D)PRM DELTA T S.
001839: E3,1410                        LST2               ERASE    +17D                                  #  B(18D)PRM TASK 2CADR ADDRESSES.
001840:
001841:
001842:                                                                                                  #           RESTART STORAGE.                                             (2D)
001843:
001844: E3,1432                        RSBBQ              ERASE    +1                                    #  B(2)PRM SAVE BB AND Q FOR RESTARTS.
001845:
001846:                                                                                                  #           MORE LONGCALL STORAGE.(MUST BE IN LST1 S BANK.               (2D)
001847:
001848: E3,1434                        LONGEXIT           ERASE    +1                                    #  B(2)TMP MAY BE SELDOM OVERLAYED.
001849:
001850:
001851:                                                                                                  #           PHASE-CHANGE LISTS PART II.                                  (12D)
001852:
001853: E3,1436                        PHSNAME1           ERASE                                          #  B(1)PRM
001854: E3,1437                        PHSBB1             ERASE                                          #  B(1)PRM
001855: E3,1440                        PHSNAME2           ERASE                                          #  B(1)PRM
001856: E3,1441                        PHSBB2             ERASE                                          #  B(1)PRM
001857: E3,1442                        PHSNAME3           ERASE                                          #  B(1)PRM
001858: E3,1443                        PHSBB3             ERASE                                          #  B(1)PRM
001859: E3,1444                        PHSNAME4           ERASE                                          #  B(1)PRM
001860: E3,1445                        PHSBB4             ERASE                                          #  B(1)PRM
001861: E3,1446                        PHSNAME5           ERASE                                          #  B(1)PRM
001862: E3,1447                        PHSBB5             ERASE                                          #  B(1)PRM
001863: E3,1450                        PHSNAME6           ERASE                                          #  B(1)PRM
001864: E3,1451                        PHSBB6             ERASE                                          #  B(1)PRM
001865:
001866:
001867:                                                                                                  #           IMU COMPENSATION PARAMETERS.                                 (22D)
001868:
001869: E3,1452                        PBIASX             ERASE                                          #  B(1)   PIPA BIAS, PIPA SCALE FACTR TERMS
001870: E3,1453  E3,1452               PIPABIAS           =        PBIASX                                #      INTERMIXED.
001871: E3,1453                        PIPASCFX           ERASE
001872: E3,1454  E3,1453               PIPASCF            =        PIPASCFX
001873: E3,1454                        PBIASY             ERASE
001874: E3,1455                        PIPASCFY           ERASE
001875: E3,1456                        PBIASZ             ERASE
001876: E3,1457                        PIPASCFZ           ERASE
001877:
001878: E3,1460                        NBDX               ERASE                                          #  GYRO BIAS DRIFTS
001879: E3,1461  E3,1460               GBIASX             =        NBDX
001880: E3,1461                        NBDY               ERASE
001881: E3,1462                        NBDZ               ERASE
001882:
001883: E3,1463                        ADIAX              ERASE                                          #  ACCELERATION SENSITIVE DRIFT ALONG THE
001884: E3,1464                        ADIAY              ERASE                                          #      INPUT AXIS
001885: E3,1465                        ADIAZ              ERASE
001886:
001887: E3,1466                        ADSRAX             ERASE                                          #  ACCELERATION SENSITIVE DRIFT ALONG THE
001888: E3,1467                        ADSRAY             ERASE                                          #      SPIN REFERENCE AXIS
001889: E3,1470                        ADSRAZ             ERASE
001890:
001891: E3,1471                        GCOMP              ERASE    +5                                    #  CONTAINS COMPENSATING TORQUES
001892:
001893: E3,1477  E3,1471               COMMAND            EQUALS   GCOMP
001894: E3,1477  E3,1474               CDUIND             EQUALS   GCOMP      +3
001895:
001896:
001897: E3,1477                        GCOMPSW            ERASE
001898:
001899:                                                                                                  #           STATE VECTORS FOR ORBIT INTEGRATION.                         (44D)
001900:
001901:                                                                                                  #                                  (DIFEQCNT THRU XKEP MUST BE IN SAME
001902:                                                                                                  #                                    EBANK AS RRECTCSM, RRECTLEM ETC
001903:                                                                                                  #                                    BECAUSE THE COPY-CYCLES (ATOPCSM,
001904:                                                                                                  #                                    PTOACSM ETC) ARE EXECUTED IN BASIC.
001905:                                                                                                  #                                      ALL OTHER REFERENCES TO THIS GROUP
001906:                                                                                                  #                                    ARE BY INTERPRETIVE INSTRUCTIONS.)
001907:
001908: E3,1500                        DIFEQCNT           ERASE    +43D                                  #  B(1)
001909:                                                                                                  #                                  (UPSVFLAG...XKEP MUST BE KEPT IN ORDER)
001910:
001911: E3,1554  E3,1501               UPSVFLAG           EQUALS   DIFEQCNT   +1                         #  B(1)
001912: E3,1554  E3,1502               RRECT              EQUALS   UPSVFLAG   +1                         #  B(6)
001913: E3,1554  E3,1510               VRECT              EQUALS   RRECT      +6                         #  B(6)
001914: E3,1554  E3,1516               TET                EQUALS   VRECT      +6                         #  B(2)
001915: E3,1554  E3,1520               TDELTAV            EQUALS   TET        +2                         #  B(6)
001916: E3,1554  E3,1526               TNUV               EQUALS   TDELTAV    +6                         #  B(6)
001917: E3,1554  E3,1534               RCV                EQUALS   TNUV       +6                         #  B(6)
001918: E3,1554  E3,1542               VCV                EQUALS   RCV        +6                         #  B(6)
001919: E3,1554  E3,1550               TC                 EQUALS   VCV        +6                         #  B(2)
001920: E3,1554  E3,1552               XKEP               EQUALS   TC         +2                         #  B(2)
001921:
001922:                                                                                                  #           PERMANENT STATE VECTORS AND TIMES.                           (99D)
001923:
001924:                                                                                                  #           (DO NOT OVERLAY WITH ANYTHING AFTER BOOST)
001925:
001926:                                                                                                  #           (RRECTCSM ...XKEPCSM MUST BE KEPT IN THIS ORDER)
001927:
001928: E3,1554                        RRECTCSM           ERASE    +5                                    #  B(6)PRM CSM VARIABLES.
001929: E3,1562  E3,1554               RRECTOTH           =        RRECTCSM
001930: E3,1562                        VRECTCSM           ERASE    +5                                    #  B(6)PRM
001931:
001932: E3,1570                        TETCSM             ERASE    +1                                    #  B(2)PRM
001933: E3,1572  E3,1570               TETOTHER           =        TETCSM
001934: E3,1572                        DELTACSM           ERASE    +5                                    #  B(6)PRM
001935: E3,1600                        NUVCSM             ERASE    +5                                    #  B(6)PRM
001936: E3,1606                        RCVCSM             ERASE    +5                                    #  B(6)PRM
001937: E3,1614                        VCVCSM             ERASE    +5                                    #  B(6)PRM
001938: E3,1622                        TCCSM              ERASE    +1                                    #  B(2)PRM
001939: E3,1624                        XKEPCSM            ERASE    +1                                    #  B(2)PRM
001940:
001941:                                                                                                  #           (RRECTLEM ...XKEPLEM MUST BE KEPT IN THIS ORDER)
001942:
001943: E3,1626                        RRECTLEM           ERASE    +5                                    #  B(6)PRM LEM VARIABLES
001944: E3,1634  E3,1626               RRECTHIS           =        RRECTLEM
001945: E3,1634                        VRECTLEM           ERASE    +5                                    #  B(6)PRM
001946: E3,1642                        TETLEM             ERASE    +1                                    #  B(2)PRM
001947: E3,1644  E3,1642               TETTHIS            =        TETLEM
001948: E3,1644                        DELTALEM           ERASE    +5                                    #  B(6)PRM
001949: E3,1652                        NUVLEM             ERASE    +5                                    #  B(6)PRM
001950: E3,1660                        RCVLEM             ERASE    +5                                    #  B(6)PRM
001951: E3,1666                        VCVLEM             ERASE    +5                                    #  B(6)PRM
001952: E3,1674                        TCLEM              ERASE    +1                                    #  B(2)PRM
001953: E3,1676                        XKEPLEM            ERASE    +1                                    #  B(2)PRM
001954:
001955: E3,1700                        X789               ERASE    +5
001956: E3,1706                        TEPHEM             ERASE    +2
001957: E3,1711                        AZO                ERASE    +1
001958: E3,1713                        UNITW              ERASE    +5
001959: E3,1721  E3,1713               -AYO               EQUALS   UNITW                                 #   (2)
001960: E3,1721  E3,1715               AXO                EQUALS   UNITW      +2                         #   (2)
001961:
001962:
001963:
001964:                                                                                                  #           STATE VECTORS FOR DOWNLINK.                                  (12D)
001965:
001966: E3,1721                        R-OTHER            ERASE    +5                                    #  B(6)PRM POS VECT (OTHER VECH) FOR DNLINK
001967: E3,1727                        V-OTHER            ERASE    +5                                    #  B(6)PRM VEL VECT (OTHER VECH) FOR DNLINK
001968:
001969: E3,1735  E3,1570               T-OTHER            =        TETCSM                                #              TIME (OTHER VECH) FOR DNLINK
001970:
001971:                                                                                                  #           REFSMMAT.                                                    (18D)
001972:
001973: E3,1735                        REFSMMAT           ERASE    +17D                                  #  I(18D)PRM
001974:
001975:                                                                                                  #           UNIT R.
001976: E3,1757                        UNITR              ERASE    +7D
001977:
001978:
001979:                                                                                                  #           ACTIVE VEHICLE CENTANG.  MUST BE DISPLAYED ANYTIME (ALMOST.)  (2D)
001980:
001981: E3,1767                        ACTCENT            ERASE    +1                                    #  I(2) S-S CENTRAL ANGLE BETWEEN ACTIVE
001982:                                                                                                  #   VEHICLE AT TPI TIG AND TARGET VECTOR.
001983:
001984:                                                                                                  #           **** USED IN CONICSEX (PLAN INERT ORIENT) ****
001985:
001986: E3,1771  E3,1706               TIMSUBO            EQUALS   TEPHEM                                #  CSEC B-42 (TRIPLE PRECISION)
001987:
001988:
001989:                                                                                                  #       ***** P22  *****  (OVERLAYS LPS 20.1 STORAGE)                    (6D)
001990: E3,1771  E7,1434               VSUBC              EQUALS   LOSVEL                                #  I(6) S-S  CSM VELOCITY VECTOR
001991:
001992:
001993:                                                                                                  #           INITVEL STORAGE. ALSO USED BY P34,35,74,75,10,11 OTHERS      (8D)
001994:
001995: E3,1771                        RTARG              ERASE    +5                                    #  I(6) TARGET VECTOR
001996:
001997:
001998: E3,1777                        END-E3             EQUALS                                         #  NEXT UNUSED E3 ADDRESS
001999:
002000:                                                                                                  #                  EBANK-4 ASSIGNMENTS
002001:
002002: E4,1400                                           SETLOC   2000
002003:
002004:                                                                                                  #  E4 IS, FOR THE MOST PART RESERVED FOR PAD LOADED AND UNSHARABLE ERASE.
002005:
002006: E4,1400                        AMEMORY            EQUALS
002007:
002008:                                                                                                  #           P20 STORAGE. -PAD LOADED-                                    (6D)
002009:
002010: E4,1400                        WRENDPOS           ERASE                                          #  B(1)PL                          KM*2(-7)
002011: E4,1401                        WRENDVEL           ERASE                                          #  B(1)PL                    KM(-1/2)*2(11)
002012: E4,1402                        WSHAFT             ERASE                                          #  B(1)PL                          KM*2(-7)
002013: E4,1403                        WTRUN              ERASE                                          #  B(1)PL                          KM*2(-7)
002014: E4,1404                        RMAX               ERASE                                          #  B(1)PL                     METERS*2(-19)
002015: E4,1405                        VMAX               ERASE                                          #  B(1)PL                      M/CSEC*2(-7)
002016:
002017:                                                                                                  #           P22 STORAGE. -PAD LOADED-                                    (2D)
002018:
002019: E4,1406                        SHAFTVAR           ERASE                                          #  B(1)PL                      RAD SQ*2(12)
002020: E4,1407                        TRUNVAR            ERASE                                          #  B(1)PL                      RAD SQ*2(10)
002021:
002022:
002023:                                                                                                  #           CONISEX STORAGE.-PAD LOADED-                                 (6D)
002024:
002025: E4,1410                        504LM              ERASE    +5                                    #  I(6)MOON LIBRATION VECTOR
002026:
002027:                                                                                                  #           V47(R47) AGS INITIALIZATION STORAGE. -PAD LOADED-            (2D)
002028:
002029: E4,1416                        AGSK               ERASE    +1
002030:
002031:
002032:                                                                                                  #           LUNAR LANDING STORAGE. -PAD LOADED-                          (6D)
002033:
002034: E4,1420                        TLAND              ERASE    +1                                    #  I(2)  NOMINAL TIME OF LANDING
002035: E4,1422                        /LAND/             ERASE    +1                                    #  B(2) LUNAR RADIUS AT LANDING SITE
002036: E4,1424                        RLS                ERASE    +5                                    #  I(6) LANDING SITE VECTOR -MOON REF
002037:
002038:
002039:                                                                                                  #           INTEGRATION STORAGE.                                         (102D)
002040:
002041: E4,1432                        PBODY              ERASE    +101D                                 #  I(1)
002042:
002043: E4,1600  E4,1433               ALPHAV             EQUALS   PBODY      +1                         #  I(6)
002044: E4,1600  E4,1441               BETAV              EQUALS   ALPHAV     +6                         #  I(6)
002045: E4,1600  E4,1447               PHIV               EQUALS   BETAV      +6                         #  I(6)
002046: E4,1600  E4,1455               PSIV               EQUALS   PHIV       +6                         #  I(6)
002047: E4,1600  E4,1463               FV                 EQUALS   PSIV       +6                         #  I(6)    PERTURBING ACCELERATIONS
002048: E4,1600  E4,1471               ALPHAM             EQUALS   FV         +6                         #  I(2)
002049: E4,1600  E4,1473               BETAM              EQUALS   ALPHAM     +2                         #  I(2)
002050: E4,1600  E4,1475               TAU.               EQUALS   BETAM      +2                         #  I(2)
002051: E4,1600  E4,1477               DT/2               EQUALS   TAU.       +2                         #  I(2)
002052: E4,1600  E4,1501               H                  EQUALS   DT/2       +2                         #  I(2)
002053: E4,1600  E4,1503               GMODE              EQUALS   H          +2                         #  I(1)
002054: E4,1600  E4,1504               IRETURN            EQUALS   GMODE      +1                         #  I(1)
002055: E4,1600  E4,1505               NORMGAM            EQUALS   IRETURN    +1                         #  I(1)
002056: E4,1600  E4,1506               RPQV               EQUALS   NORMGAM    +1
002057: E4,1600  E4,1514               ORIGEX             EQUALS   RPQV       +6                         #  I(1)
002058: E4,1600  E4,1514               KEPRTN             EQUALS   ORIGEX                                #  I(1)
002059: E4,1600  E4,1515               RQVV               EQUALS   ORIGEX     +1                         #  I(6)
002060: E4,1600  E4,1523               RPSV               EQUALS   RQVV       +6                         #  I(6)
002061: E4,1600  E4,1531               XKEPNEW            EQUALS   RPSV       +6                         #  I(2)
002062: E4,1600  E4,1533               VECTAB             EQUALS   XKEPNEW    +2                         #  I(36D)
002063: E4,1600  E4,1576               VECTABND           EQUALS   VECTAB     +35D                       #  END MARK
002064:
002065:
002066:
002067:                                                                                                  #           THESE PROBABLY CAN SHARE MID-COURSE VARIABLES.               (6D)
002068:
002069: E4,1600  E4,1541               VACX               EQUALS   VECTAB     +6                         #  I(2)
002070: E4,1600  E4,1543               VACY               EQUALS   VACX       +2                         #  I(2)
002071: E4,1600  E4,1545               VACZ               EQUALS   VACY       +2                         #  I(2)
002072:
002073:                                                                                                  #           SERVICER STORAGE  (USED BY ALL POWERED FLIGHT PROGS.)        (18D)
002074:
002075: E4,1600  E4,1547               XNBPIP             EQUALS   VECTAB     +12D                       #  I(6)
002076: E4,1600  E4,1555               YNBPIP             EQUALS   XNBPIP     +6                         #  I(6)
002077: E4,1600  E4,1563               ZNBPIP             EQUALS   YNBPIP     +6                         #  I(6)
002078:
002079:
002080:                                                                                                  #           SOME VERB 82 STORAGE                                         (4D)
002081:
002082: E4,1600  E4,1521               HAPOX              EQUALS   RQVV       +4                         #  I(2)
002083: E4,1600  E4,1523               HPERX              EQUALS   HAPOX      +2                         #  I(2)
002084:
002085:
002086:                                                                                                  #           V82 STORAGE                                                  (6D)
002087:
002088: E4,1600  E4,1571               VONE'              EQUALS   VECTAB     +30D                       #  I(6)TMP  NORMAL VELOCITY VONE /SQRT. MU
002089:
002090:                                                                                                  #           R31(V83) STORAGE. -SHARES WITH INTEGRATION STORAGE-          (28D)
002091:
002092: E4,1600  E4,1506               BASETHV            EQUALS   RPQV                                  #  I(6)     BASE VEL VECTOR THIS VEH
002093:
002094:
002095: E4,1600  E4,1515               BASETIME           EQUALS   RQVV                                  #  I(2)     TIME ASSOC WITH BASE VECS
002096: E4,1600  E4,1517               ORIG               EQUALS   RQVV       +2                         #  I(1)     =0 FOR EARTH =2 FOR MOON
002097: E4,1600  E4,1520               STATEXIT           EQUALS   RQVV       +3                         #  I(1)     STQ ADDRESS FOR STATEXTP
002098: E4,1600  E4,1521               BASEOTV            EQUALS   RQVV       +4                         #  I(6)     BASE VEL VECTOR OTHER VEH
002099:
002100:
002101: E4,1600  E4,1541               BASEOTP            EQUALS   VECTAB     +6                         #  I(6)     BASE POS VECTOR OTHER VEH
002102:
002103:
002104: E4,1600  E4,1571               BASETHP            EQUALS   VECTAB     +30D                       #  I(6)     BASE POS VECTOR THIS VEH
002105:
002106:
002107:
002108:                                                                                                  #           KEPLER STORAGE. (KEPLER IS CALLED BY PRECISION INTEGRATION AND (6D)
002109:                                                                                                  #           CONICS)
002110:
002111: E4,1600                        XMODULO            ERASE    +5                                    #  I(2)
002112: E4,1606  E4,1602               TMODULO            EQUALS   XMODULO    +2                         #  I(2)
002113: E4,1606  E4,1604               EPSILONT           EQUALS   TMODULO    +2                         #  I(2)
002114:
002115:
002116:                                                                                                  #           VERB 83 STORAGE.                                             (18D)
002117:
002118: E4,1606                        RANGE              ERASE    +17D                                  #  I(2)DSP NOUN 54 DISTANCE TO OPTICAL SUBJ
002119: E4,1630  E4,1610               RRATE              EQUALS   RANGE      +2                         #  I(2)DSP NOUN 54 RATE OF APPROACH.
002120: E4,1630  E4,1612               RTHETA             EQUALS   RRATE      +2                         #  I(2)DSP NOUN 54.
002121: E4,1630  E4,1614               RONE               EQUALS   RTHETA     +2                         #  I(6)TMP VECTOR STORAGE.  (SCRATCH)
002122: E4,1630  E4,1622               VONE               EQUALS   RONE       +6                         #  I(6)TMP VECTOR STORAGE.  (SCRATCH)
002123:
002124:
002125: E4,1630  E4,1606               WWPOS              =        RANGE                                 #  NOUN 99 (V45)
002126: E4,1630  E4,1610               WWVEL              =        RRATE                                 #  NOUN 99 (V45)
002127:                                                                                                  #           V82 STORAGE. (CANNOT OVERLAY RONE OR VONE)                   (11D) TWO SEPARATE LOCATIONS
002128:
002129: E4,1630  E4,1541               V82FLAGS           EQUALS   VECTAB     +6                         #   (1) FOR V82 BITS.
002130: E4,1630  E4,1542               TFF                EQUALS   V82FLAGS   +1                         #  I(2)
002131: E4,1630  E4,1544               -TPER              EQUALS   TFF        +2                         #  I(2)
002132:
002133:
002134: E4,1630  E4,1606               HPERMIN            EQUALS   RANGE                                 #  I(2) SET TO 300KFT OR 35KFT FOR SR30.1
002135: E4,1630  E4,1610               RPADTEM            EQUALS   HPERMIN    +2                         #  I(2) PAD OR LANDING RADIUS FOR SR30.1
002136: E4,1630  E4,1612               TSTART82           EQUALS   RPADTEM    +2                         #  I(2) TEMP TIME STORAGE FOR V82.
002137:
002138:
002139:
002140:                                                                                                  #           VARIOUS DISPLAY REGISTERS                                    (6D)     NOUN 84; P76
002141:
002142: E4,1630                        DELVOV             ERASE    +5D                                   #  (6)
002143:
002144:
002145:                                                                                                  #           ALIGNMENT PLANETARY-INERTIAL TRANSFORMATION STORAGE.         (18D)
002146:
002147:                                                                                                  #                  UNSHARED WHILE LM ON LUNAR SURFACE.
002148:
002149: E4,1636                        GSAV               ERASE    +17D                                  #  I(6)
002150: E4,1660  E4,1644               YNBSAV             EQUALS   GSAV       +6                         #  I(6)
002151: E4,1660  E4,1652               ZNBSAV             EQUALS   YNBSAV     +6                         #  I(6)
002152: E4,1660  E4,1660               STARVSAV           EQUALS   ZNBSAV     +6                         #  I(6)
002153:
002154:
002155:
002156:                                                                                                  #           KALCMANU STORAGE. CAN OVERLAY GSAV.                          (18D)
002157:
002158: E4,1660  E4,1636               MFS                EQUALS   GSAV                                  #  I(18)
002159: E4,1660  E4,1636               MFI                EQUALS   MFS                                   #  I
002160: E4,1660  E4,1636               KEL                EQUALS   MFS                                   #  I(18)
002161: E4,1660  E4,1636               E01                EQUALS   MFS                                   #  I(6)
002162: E4,1660  E4,1644               E02                EQUALS   E01        +6                         #  I(6)
002163:
002164:                                                                                                  #           LR VEL BEAM VECTORS.                                         (26D)
002165:
002166:                                                                                                  #           CAN OVERLAY GSAV WITH CARE, USED DURING POWERED DESCENT ONLY.
002167:
002168: E4,1660  E4,1636               VZBEAMNB           EQUALS   GSAV                                  #  I(6) LR VELOCITY BEAMS IN NB COORDS.
002169: E4,1660  E4,1644               VYBEAMNB           EQUALS   VZBEAMNB   +6                         #  I(6)
002170: E4,1660  E4,1652               VXBEAMNB           EQUALS   VYBEAMNB   +6                         #  I(6) PRESERVE Z,Y,X ORDER.
002171:
002172:
002173: E4,1660  E4,1660               LRVTIME            =        VXBEAMNB   +6                         #  B(2)     LR
002174: E4,1660  E4,1662               LRXCDU             =        LRVTIME    +2                         #  B(1)     LR
002175: E4,1660  E4,1663               LRYCDU             =        LRXCDU     +1                         #  B(1)     LR
002176: E4,1660  E4,1664               LRZCDU             =        LRYCDU     +1                         #  B(1)     LR
002177: E4,1660  E4,1665               PIPTEM             =        LRZCDU     +1                         #  B(3)     LR
002178:
002179:
002180:                                                                                                  #           P32-P35, P72-P75 STORAGE.                                    (40D)
002181:
002182: E4,1660                        T1TOT2             ERASE    +1                                    #   (2)     TIME FROM CSI TO CDH
002183: E4,1662                        T2TOT3             ERASE    +1                                    #   (2)
002184: E4,1664                        ELEV               ERASE    +1                                    #   (2)
002185: E4,1666                        DELVLVC            ERASE    +5                                    #  I(6) DELTA VELOCITY - LOCAL VERTICAL COO
002186: E4,1674  E4,1666               DELVSLV            =        DELVLVC                               #  (TEMP STORAGE OF SAME VECTOR)   -RDINATE
002187: E4,1674                        UP1                ERASE    +5                                    #   (6)
002188: E4,1702                        DELVEET1           ERASE    +5                                    #  I(6)     DV CSI IN REF
002189: E4,1710                        DELVEET2           ERASE    +5                                    #  I(6)     DV CSH IN REF
002190: E4,1716                        RACT1              ERASE    +5                                    #   (6)     POS VEC OF ACTIVE AT CSI TIME
002191: E4,1724                        RACT2              ERASE    +5                                    #   (6)     POS VEC OF ACTIVE AT CDH TIME
002192: E4,1732                        RTX1               ERASE                                          #  I(1) X1  -2 FOR EARTH, -10 FOR MOON
002193: E4,1733                        RTX2               ERASE                                          #  I(1) X2 FOR SHIFT-EARTH 0, MOON 2
002194: E4,1734                        RTSR1/MU           ERASE    +1                                    #  (2)      SQ ROOT 1/MU STORAGE
002195: E4,1736                        RTMU               ERASE    +1                                    #  (2)      MU STORAGE
002196:
002197:
002198:
002199:                                                                                                  #           (THE FOLLOWING ERASABLES OVERLAY PORTIONS OF THE PREVIOUS SECTION)
002200:
002201: E4,1740  E4,1660               +MGA               EQUALS   T1TOT2                                #   (2) S-S + MID GIM ANGL TO DELVEET3
002202:
002203:
002204: E4,1740  E4,1674               UNRM               EQUALS   UP1                                   #  I(6) S-S
002205:
002206:
002207: E4,1740  E4,1716               DVLOS              EQUALS   RACT1                                 #  I(6) S-S DELTA VELOCITY,LOS COORD-DISPLA
002208: E4,1740  E4,1724               ULOS               EQUALS   RACT2                                 #  I(6) S-S UNIT LINE OF SIGHT VECTOR
002209:
002210:
002211: E4,1740  E4,1734               NOMTPI             EQUALS   RTSR1/MU                              #  (2) S-S NOMINAL TPI TIME FOR RECYCLE
002212:
002213:
002214:                                                                                                  #           SOME P30 STORAGE.                                            (4D)
002215:
002216: E4,1740  E4,1660               HAPO               EQUALS   T1TOT2                                #  I(2)
002217: E4,1740  E4,1662               HPER               EQUALS   HAPO       +2                         #  I(2)
002218:
002219:
002220:
002221:                                                                                                  #           SOME P38-P39,P78-79 STORAGE.                                 (6D)
002222:
002223: E4,1740  E4,1716               DELTAR             EQUALS   DVLOS                                 #  I(2)
002224: E4,1740  E4,1720               DELTTIME           EQUALS   DELTAR     +2                         #  I(2) TIME REPRESENTATION OF DELTAR
002225: E4,1740  E4,1722               TARGTIME           EQUALS   DELTTIME   +2                         #  I(2) TINT MINUS DELTTIME
002226:
002227: E4,1740  E4,1716               TINTSOI            EQUALS   DELTAR                                #  I(2) TIME OF INTERCEPT FOR SOI PHASE
002228:
002229:
002230:
002231:                                                                                                  #           THE FOLLOWING ARE ERASABLE LOADS DURING A PERFORMANCE TEST.
002232:
002233: E4,1740  E4,1400               TRANSM1            =        WRENDPOS                              #  E4,1400
002234: E4,1740  E4,1422               ALFDK              =        /LAND/
002235:
002236:
002237:                                                                                                  #  ******* THE FOLLOWING SECTIONS OVERLAY V83 AND DISPLAY STORAGE *******
002238:
002239:
002240:                                                                                                  #           V47(R47)AGS INITIALIZATION PROGRAM STORAGE. (OVERLAYS V83)   (14D)
002241:
002242: E4,1740  E4,1606               AGSBUFF            EQUALS   RANGE                                 #  B(14D)
002243: E4,1740  E4,1623               AGSBUFFE           EQUALS   AGSBUFF    +13D                       #  ENDMARK
002244:
002245:
002246:                                                                                                  #           R36 OUT-OF-PLANE RENDEZVOUS DISPLAY STORAGE. (OVERLAYS V83)  (12D)
002247:
002248: E4,1740  E4,1614               RPASS36            EQUALS   RONE                                  #  I(6) S-S
002249: E4,1740  E4,1622               UNP36              EQUALS   RPASS36    +6                         #  I(6) S-S
002250:
002251:
002252:                                                                                                  #           S-BAND ANTENNA GIMBAL ANGLES. DISPLAYED BY R05(V64).(OVERLAYS V83) (10D)
002253:                                                                                                  #                 (OPERATES DURING P00 ONLY)
002254:
002255: E4,1740  E4,1606               ALPHASB            EQUALS   RANGE                                 #  B(2)DSP NOUN 51.  PITCH ANGLE.
002256: E4,1740  E4,1610               BETASB             EQUALS   ALPHASB    +2                         #  B(2)DSP NOUN 51.  YAW ANGLE.
002257: E4,1740  E4,1612               RLM                EQUALS   BETASB     +2                         #  I(6)S S/C POSITION VECTOR.
002258:
002259:                                                                                                  #           **** USED IN S-BAND ANTENNA FOR LM ****
002260:
002261: E4,1740  E4,1610               YAWANG             EQUALS   BETASB
002262: E4,1740  E4,1606               PITCHANG           EQUALS   ALPHASB
002263:
002264:
002265:                                                                                                  #           NOUN 56 DATA - COMPUTED AND DISPLAYED BY VERB 85.            (4)
002266:
002267: E4,1740  E4,1606               RR-AZ              EQUALS   PITCHANG                              #  I(2) ANGLE BETWEEN LOS AND X-Z PLANE.
002268: E4,1740  E4,1610               RR-ELEV            EQUALS   RR-AZ      +2                         #  I(2) ANGLE BETWEEN LOS AND Y-Z PLANE.
002269:
002270:                                                                                                  #           R04(V62) RADAR TEST STORAGE.                         (8D)
002271:                                                                                                  #           R04 IS RESTRICTED TO P00.
002272:
002273: E4,1740  E4,1606               RSTACK             EQUALS   RANGE                                 #  B(8) BUFFER FOR R04 NOUNS.
002274:
002275:
002276:
002277:                                                                                                  #           INITVEL STORAGE.  ALSO USED BY P31,P34,P35,P74,P75,P10,P11,MIDGIM,S40.1 AND S40.9. (18D)
002278:
002279:                                                                                                  #                   (POSSIBLY RINIT & VINIT CAN OVERLAY DELVEET1 & 2 ABOVE)
002280:
002281: E4,1740                        RINIT              ERASE    +5                                    #  I(6) ACTIVE VEHICLE POSITION
002282: E4,1746                        VINIT              ERASE    +5                                    #  I(6) ACTIVE VEHICLE VELOCITY
002283: E4,1754                        DELLT4             ERASE    +1                                    #  I(2) TIME DIFFERENCE
002284: E4,1756                        VIPRIME            ERASE    +5                                    #  I(6) NEW VEL REQUIRED AT INITIAL RADIUS.
002285:
002286:                                                                                                  #           PADLOADED ERASABLES FOR P20/P22                              (6D)
002287:
002288: E4,1764                        RANGEVAR           ERASE    +1                                    #  I(2) RR RANGE ERROR VARIANCE
002289: E4,1766                        RATEVAR            ERASE    +1                                    #  I(2) RR RANGE-RATE ERROR VARIANCE
002290: E4,1770                        RVARMIN            ERASE    +2                                    #  I(3) MINIMUM RANGE ERROR VARIANCE
002291: E4,1773                        VVARMIN            ERASE    +1                                    #  I(2) MINIMUM RANGE-RATE ERROR VARIANCE
002292:
002293:
002294:
002295:                                                                                                  #           SOME R04(V62)-R77 RADAR TEST STORAGE                         (6D)
002296:
002297: E4,1775  E4,1521               RTSTDEX            EQUALS   HAPOX                                 #  (1)
002298: E4,1775  E4,1522               RTSTMAX            =        RTSTDEX    +1                         #  (1)
002299: E4,1775  E4,1523               RTSTBASE           =        RTSTMAX    +1                         #  (1)
002300: E4,1775  E4,1524               RTSTLOC            =        RTSTBASE   +1                         #  (1)
002301: E4,1775  E4,1524               RSTKLOC            =        RTSTLOC
002302: E4,1775  E4,1525               RSAMPDT            =        RTSTLOC    +1                         #  (1)
002303: E4,1775  E4,1526               RFAILCNT           =        RSAMPDT    +1                         #  (1)
002304:
002305:
002306:                                                                                                  #          LPS20.1 STORAGE
002307:
002308:                                                                                                  #  (12D)
002309:
002310:
002311: E4,1775     1104               LMPOS              EQUALS   SAMPLSUM                              #  I(6)TEMP.  STORAGE FOR LM POS. VECTOR.
002312: E4,1775  E7,1434               LMVEL              EQUALS   LOSVEL                                #  I(6)TEMP.  STORAGE FOR LM VEL. VECTOR.
002313:
002314:
002315: E4,1775                        END-E4             EQUALS                                         #  FIRST UNUSED LOCATION IN E4
002316:
002317:                                                                                                  #           EBANK-5 ASSIGNMENTS
002318:
002319: E5,1400                                           SETLOC   2400
002320:
002321:                                                                                                  #           W-MATRIX. ESSENTIALLY UNSHARABLE.            (162D)
002322:
002323: E5,1400                        W                  ERASE    +161D
002324: E5,1642  E5,1642               ENDW               EQUALS   W          +162D
002325:
002326:
002327:
002328:                                                                                                  #  *******  OVERLAY NUMBER 1 IN EBANK 5  *******
002329:
002330:                                                                                                  #           SOME VARIABLES FOR SECOND DPS GUIDANCE                       (34D)
002331:
002332: E5,1642  E5,1400               CG                 =        W                                     #  I(18D) GUIDANCE
002333: E5,1642  E5,1422               RANGEDSP           =        CG         +18D                       #  B(2)     DISPLAY
002334: E5,1642  E5,1424               DELTAH             =        RANGEDSP   +2                         #  B(2)    DISPLAY
002335: E5,1642  E5,1426               OUTOFPLN           =        DELTAH     +2                         #  B(2)    DISPLAY
002336:
002337:                                                                                                  #           ALIGNMENT/SYSTEST/CALCSMSC COMMON STORAGE.                   (36D)
002338:
002339: E5,1642  E5,1642               XSM                EQUALS   ENDW                                  #  B(6)
002340: E5,1642  E5,1650               YSM                EQUALS   XSM        +6                         #  B(6)
002341: E5,1642  E5,1656               ZSM                EQUALS   YSM        +6                         #  B(6)
002342:
002343: E5,1642  E5,1664               XDC                EQUALS   ZSM        +6                         #  B(6)
002344: E5,1642  E5,1672               YDC                EQUALS   XDC        +6                         #  B(6)
002345: E5,1642  E5,1700               ZDC                EQUALS   YDC        +6                         #  B(6)
002346:
002347: E5,1642  E5,1664               XNB                =        XDC
002348: E5,1642  E5,1672               YNB                =        YDC
002349: E5,1642  E5,1700               ZNB                =        ZDC
002350:
002351:                                                                                                  #           OVERLAYS WITHIN ALIGNMENT/SYSTEST/CALCSMSC COMMON STORAGE.   (4D)
002352:
002353: E5,1642  E5,1644               -COSB              EQUALS   XSM        +2                         #  (2)TMP
002354: E5,1642  E5,1646               SINB               EQUALS   -COSB      +2                         #  (2)TMP
002355:
002356:                                                                                                  #           ALIGNMENT/SYSTEST COMMON STORAGE.                    (31D)
002357:
002358: E5,1642  E5,1706               STARAD             EQUALS   ZDC        +6                         #  I(18D)TMP
002359: E5,1642  E5,1730               STAR               EQUALS   STARAD     +18D                       #  I(6)
002360: E5,1642  E5,1736               GCTR               EQUALS   STAR       +6                         #  B(1)
002361: E5,1642  E5,1737               OGC                EQUALS   GCTR       +1                         #  I(2)
002362: E5,1642  E5,1741               IGC                EQUALS   OGC        +2                         #  I(2)
002363: E5,1642  E5,1743               MGC                EQUALS   IGC        +2                         #  I(2)
002364:
002365:                                                                                                  #           P57 ALIGNMENT (OVERLAY OF ALIGNMENT/SYSTEST COMMON STORAGE)  (12D)
002366:
002367: E5,1642  E5,1706               GACC               =        STARAD                                #   (6) SS
002368: E5,1642  E5,1714               GOUT               =        STARAD     +6                         #   (6) SS
002369:
002370:
002371:                                                                                                  #           OVERLAYS WITHIN ALIGNMENT/SYSTEST COMMON STORAGE             (24D)
002372:
002373: E5,1642  E5,1706               VEARTH             EQUALS   STARAD                                #   (6)TMP
002374: E5,1642  E5,1714               VSUN               EQUALS   VEARTH     +6                         #   (6)TMP
002375: E5,1642  E5,1722               VMOON              EQUALS   VSUN       +6                         #   (6)TMP
002376: E5,1642  E5,1730               SAX                EQUALS   VMOON      +6                         #   (6)TMP
002377:
002378:
002379:                                                                                                  #           P50'S,R50'S Q STORES.                                        (2D)
002380:
002381: E5,1642  E5,1745               QMIN               EQUALS   MGC        +2                         #  B(1)TMP
002382: E5,1642  E5,1746               QMAJ               EQUALS   QMIN       +1                         #  B(1)TMP
002383:
002384:
002385:                                                                                                  #         **** USED IN P50S ****   (SCATTERED OVERLAYS)
002386: E5,1642  E5,1706               XSCI               EQUALS   STARAD
002387: E5,1642  E5,1714               YSCI               EQUALS   XSCI       +6
002388: E5,1642  E5,1714               ZSCI               EQUALS   YSCI
002389: E5,1642  E5,1706               CULTRIX            EQUALS   VEARTH                                #  VEARTH, VSUN, VMOON
002390: E5,1642  E5,1722               VEC1               EQUALS   STARAD     +12D
002391: E5,1642  E5,1730               VEC2               EQUALS   STAR
002392:
002393:
002394:
002395:                                                                                                  #           ALIGNMENT STORAGE.                                           (23D)
002396:
002397: E5,1642  E5,1747               OGCT               EQUALS   QMAJ       +1                         #  I(6)
002398: E5,1642  E5,1755               BESTI              EQUALS   OGCT       +6                         #  I(1)
002399: E5,1642  E5,1756               BESTJ              EQUALS   BESTI      +1
002400: E5,1642  E5,1757               STARIND            EQUALS   BESTJ      +1
002401:                                                                                                  #     RETAIN THE ORDER OF STARSAV1 TO STARSAV2 +5 FOR DOWNLINK PURPOSES.
002402: E5,1642  E5,1760               STARSAV1           EQUALS   STARIND    +1                         #  I(6)
002403: E5,1642  E5,1766               STARSAV2           EQUALS   STARSAV1   +6                         #  I(6)
002404: E5,1642  E5,1774               TALIGN             EQUALS   STARSAV2   +6                         #  B(2) TIME OF IMU ALIGNMENT  (DOWNLINKED)
002405:                                                                                                  #                VEL/C     EQUALS  STARSAV2  +6            I(6)TMP  (NOT USED IN LEM)
002406:
002407:
002408: E5,1642                        ZPRIME             =        22D
002409: E5,1642                        PDA                =        22D
002410: E5,1642                        COSTH              =        16D
002411: E5,1642                        SINTH              =        18D
002412: E5,1642                        THETA              =        20D
002413: E5,1642                        STARM              =        32D
002414:
002415:                                                                                                  #  *******  OVERLAY NUMBER 2 IN EBANK 5  *******
002416:
002417:
002418:                                                                                                  #           CONICS ROUTINE STORAGE.                       (85D)
002419:
002420: E5,1642  E5,1642               DELX               EQUALS   ENDW                                  #  I(2)TMP
002421: E5,1642  E5,1644               DELT               EQUALS   DELX       +2                         #  I(2)TMP
002422: E5,1642  E5,1646               URRECT             EQUALS   DELT       +2                         #  I(6)TMP
002423: E5,1642                        RCNORM             EQUALS   34D                                   #  I(2) TMP
002424: E5,1642  E3,1552               XPREV              EQUALS   XKEP                                  #  I(2)TMP
002425: E5,1642  E5,1654               R1VEC              EQUALS   URRECT     +6                         #  I(6) TMP
002426: E5,1642  E5,1662               R2VEC              EQUALS   R1VEC      +6                         #  I(6)TMP
002427: E5,1642  E5,1670               TDESIRED           EQUALS   R2VEC      +6                         #  I(2)TMP
002428: E5,1642  E5,1672               GEOMSGN            EQUALS   TDESIRED   +2                         #  I(1)TMP
002429: E5,1642  E5,1673               UN                 EQUALS   GEOMSGN    +1                         #  I(6)TMP
002430: E5,1642  E5,1701               VTARGTAG           EQUALS   UN         +6                         #  I(1)TMP
002431: E5,1642  E5,1702               VTARGET            EQUALS   VTARGTAG   +1                         #  I(6)TMP
002432: E5,1642  E5,1710               RTNLAMB            EQUALS   VTARGET    +6                         #  I(1)TMP
002433: E5,1642  E5,1711               U2                 EQUALS   RTNLAMB    +1                         #  I(6)TMP
002434: E5,1642  E5,1717               MAGVEC2            EQUALS   U2         +6                         #  I(2)TMP
002435: E5,1642  E5,1721               UR1                EQUALS   MAGVEC2    +2                         #  I(6)TMP
002436: E5,1642  E5,1727               SNTH               EQUALS   UR1        +6                         #  I(2)TMP
002437: E5,1642  E5,1731               CSTH               EQUALS   SNTH       +2                         #  I(2)TMP
002438: E5,1642  E5,1733               1-CSTH             EQUALS   CSTH       +2                         #  I(2)TMP
002439: E5,1642  E5,1735               CSTH-RHO           EQUALS   1-CSTH     +2                         #  I(2)TMP
002440: E5,1642  E5,1737               P                  EQUALS   CSTH-RHO   +2                         #  I(2)TMP
002441: E5,1642  E5,1741               R1A                EQUALS   P          +2                         #  I(2)TMP
002442: E5,1642  E5,1654               RVEC               EQUALS   R1VEC                                 #  I(6)TMP
002443: E5,1642  E5,1743               VVEC               EQUALS   R1A        +2                         #  I(6)TMP
002444: E5,1642  E5,1710               RTNTT              EQUALS   RTNLAMB                               #  I(1)TMP
002445: E5,1642  E5,1751               ECC                EQUALS   VVEC       +6                         #  I(2)TMP
002446: E5,1642  E5,1710               RTNTR              EQUALS   RTNLAMB                               #  I(1)TMP
002447: E5,1642  E5,1710               RTNAPSE            EQUALS   RTNLAMB                               #  I(1)TMP
002448: E5,1642  E5,1717               R2                 EQUALS   MAGVEC2                               #  I(2)TMP
002449: E5,1642  E5,1753               RTNPRM             EQUALS   ECC        +2                         #  I(1)TMP
002450: E5,1642  E5,1754               SGNRDOT            EQUALS   RTNPRM     +1                         #  I(1)TMP
002451: E5,1642  E5,1755               RDESIRED           EQUALS   SGNRDOT    +1                         #  I(2)TMP
002452: E5,1642  E5,1757               DELDEP             EQUALS   RDESIRED   +2                         #  I(2)TMP
002453: E5,1642  E5,1761               DEPREV             EQUALS   DELDEP     +2                         #  I(2)TMP
002454: E5,1642  E5,1757               TERRLAMB           EQUALS   DELDEP                                #  I(2)TMP
002455: E5,1642  E5,1761               TPREV              EQUALS   DEPREV                                #  I(2)TMP
002456: E5,1642  E5,1763               EPSILONL           EQUALS   DEPREV     +2                         #  I(2)TMP
002457: E5,1642  E5,1765               COGA               EQUALS   EPSILONL   +2                         #  I(2) COTAN OF INITIAL FLIGHT PATH ANGLE.
002458: E5,1642  E5,1765               INDEP              EQUALS   COGA                                  #       USED BY SUBROUTINE'ITERATOR'.
002459:
002460:                                                                                                  #  *******  OVERLAY NUMBER 3 IN EBANK 5  *******
002461:
002462:                                                                                                  #           INCORP STORAGE.                               (18D)
002463:
002464: E5,1642  E5,1642               ZI                 EQUALS   ENDW                                  #  I(18)TMP
002465:
002466:                                                                                                  #           INCORP/L SR22.3 STORAGE.                                     (21D)
002467:
002468: E5,1642  E5,1664               DELTAX             EQUALS   ZI         +18D                       #  I(18)
002469: E5,1642  E5,1706               VARIANCE           EQUALS   DELTAX     +18D                       #  I(3)
002470:
002471:                                                                                                  #           MEASUREMENT INCORPORATION -R22- STORAGE.                     (49D)
002472:
002473: E5,1642  E5,1711               GRP2SVQ            EQUALS   VARIANCE   +3                         #  I(1)TMP QSAVE FOR RESTARTS
002474: E5,1642  E5,1712               OMEGAM1            EQUALS   GRP2SVQ    +1                         #  I(6)
002475: E5,1642  E5,1720               OMEGAM2            EQUALS   OMEGAM1    +6                         #  I(6)
002476: E5,1642  E5,1726               OMEGAM3            EQUALS   OMEGAM2    +6                         #  I(6)
002477: E5,1642  E5,1734               HOLDW              EQUALS   OMEGAM3    +6                         #  I(18)
002478: E5,1642  E5,1756               TDPOS              EQUALS   HOLDW      +18D                       #  I(6)
002479: E5,1642  E5,1764               TDVEL              EQUALS   TDPOS      +6                         #  I(6)
002480:
002481:
002482: E5,1642  E5,1664               TRIPA              EQUALS   DELTAX                                #  I(3)TMP
002483: E5,1642  E5,1667               TEMPVAR            EQUALS   TRIPA      +3                         #  I(3)TMP
002484:
002485:
002486:
002487:
002488:                                                                                                  #           INCORPORATION/INTEGRATION Q STORAGE.                         (1D)
002489:
002490: E5,1642  E5,1772               EGRESS             EQUALS   TDVEL      +6                         #  I(1)
002491:
002492:
002493:
002494:                                                                                                  #           P30/P31 STORAGE.                                             (1D) AND ONE OVERLAY
002495:
002496: E5,1642  E5,1773               P30EXIT            EQUALS   EGRESS     +1                         #  B(1)TMP
002497:
002498:
002499: E5,1642  E5,1773               ORIGIN             EQUALS   P30EXIT                               #  I(1)TMP  INDEX DURING INITVEL
002500:
002501:
002502:                                                                                                  #           SYSTEM TEST ERASABLES.  CAN OVERLAY W MATRIX. (127D)
002503:
002504:                                                                                                  #  *******  OVERLAY NUMBER 0 IN EBANK 5  *******
002505:
002506:
002507: E5,1642  E5,1400               AZIMUTH            EQUALS   W                                     #  2
002508: E5,1642  E5,1402               LATITUDE           EQUALS   AZIMUTH    +2                         #  2
002509: E5,1642  E5,1404               ERVECTOR           EQUALS   LATITUDE   +2                         #  6
002510: E5,1642  E5,1412               LENGTHOT           EQUALS   ERVECTOR   +6                         #  1
002511: E5,1642  E5,1413               LOSVEC             EQUALS   LENGTHOT   +1                         #  6
002512: E5,1642  E5,1414               NDXCTR             EQUALS   LOSVEC     +1                         #  1
002513: E5,1642  E5,1415               PIPINDEX           EQUALS   NDXCTR     +1                         #  1
002514: E5,1642  E5,1416               POSITON            EQUALS   PIPINDEX   +1                         #  1
002515: E5,1642  E5,1417               QPLACE             EQUALS   POSITON    +1                         #  1
002516: E5,1642  E5,1420               QPLACES            EQUALS   QPLACE     +1                         #  1
002517: E5,1642  E5,1421               SOUTHDR            EQUALS   QPLACES    +1                         #  7
002518: E5,1642  E5,1430               TEMPTIME           EQUALS   SOUTHDR    +7                         #  2
002519: E5,1642  E5,1432               TMARK              EQUALS   TEMPTIME   +2                         #  2
002520: E5,1642  E5,1434               GENPL              EQUALS   TMARK      +2
002521: E5,1642  E5,1434               CDUTIMEI           =        GENPL
002522: E5,1642  E5,1436               CDUTIMEF           =        GENPL      +2
002523: E5,1642  E5,1440               CDUDANG            =        GENPL      +4
002524: E5,1642  E5,1441               CDUREADF           =        GENPL      +5
002525: E5,1642  E5,1442               CDUREADI           =        GENPL      +6
002526: E5,1642  E5,1443               CDULIMIT           =        GENPL      +7
002527:
002528: E5,1642  E5,1440               TEMPADD            =        GENPL      +4
002529: E5,1642  E5,1441               TEMP               =        GENPL      +5
002530: E5,1642  E5,1442               NOBITS             =        GENPL      +6
002531: E5,1642  E5,1443               CHAN               =        GENPL      +7
002532:
002533: E5,1642  E5,1444               LOS1               =        GENPL      +8D
002534: E5,1642  E5,1452               LOS2               =        GENPL      +14D
002535:
002536: E5,1642  E5,1460               CALCDIR            EQUALS   GENPL      +20D
002537: E5,1642  E5,1461               CDUFLAG            EQUALS   GENPL      +21D
002538: E5,1642  E5,1462               GYTOBETQ           EQUALS   GENPL      +22D
002539: E5,1642  E5,1463               OPTNREG            EQUALS   GENPL      +23D
002540: E5,1642  E5,1464               SAVE               EQUALS   GENPL      +24D                       #  THREE  ONSEC LOC
002541: E5,1642  E5,1467               SFCONST1           EQUALS   GENPL      +27D
002542: E5,1642  E5,1470               TIMER              EQUALS   GENPL      +28D
002543:
002544: E5,1642  E5,1472               DATAPL             EQUALS   GENPL      +30D
002545: E5,1642  E5,1434               RDSP               EQUALS   GENPL                                 #  FIX LA ER   POSSIBLY KEEP1
002546: E5,1642  E5,1534               MASKREG            EQUALS   GENPL      +64D
002547: E5,1642  E5,1536               CDUNDX             EQUALS   GENPL      +66D
002548: E5,1642  E5,1537               RESULTCT           EQUALS   GENPL      +67D
002549: E5,1642  E5,1542               COUNTPL            EQUALS   GENPL      +70D
002550:
002551: E5,1642  E5,1543               CDUANG             EQUALS   GENPL      +71D
002552:
002553: E5,1642  E5,1434               AINLA              =        GENPL                                 #  110 DE  OR 156 OCT LOCATIONS
002554:
002555: E5,1642  E5,1434               WANGO              EQUALS   AINLA                                 #  VERT E ATE
002556: E5,1642  E5,1436               WANGI              EQUALS   AINLA      +2D                        #  HORIZO TAL ERATE
002557: E5,1642  E5,1440               WANGT              EQUALS   AINLA      +4D                        #  T
002558: E5,1642  E5,1440               TORQNDX            =        WANGT
002559: E5,1642  E5,1442               DRIFTT             EQUALS   AINLA      +6D
002560: E5,1642  E5,1444               ALX1S              EQUALS   AINLA      +8D
002561: E5,1642  E5,1445               CMPX1              EQUALS   AINLA      +9D                        #  IND
002562: E5,1642  E5,1446               ALK                EQUALS   AINLA      +10D                       #  GAINS
002563: E5,1642  E5,1462               VLAUNS             EQUALS   AINLA      +22D
002564: E5,1642  E5,1464               WPLATO             EQUALS   AINLA      +24D
002565: E5,1642  E5,1470               INTY               EQUALS   AINLA      +28D                       #  SOUTH  IP INTE
002566: E5,1642  E5,1472               ANGZ               EQUALS   AINLA      +30D                       #  EAST A IS
002567: E5,1642  E5,1474               INTZ               EQUALS   AINLA      +32D                       #  EAST P P I
002568: E5,1642  E5,1476               ANGY               EQUALS   AINLA      +34D                       #  SOUTH
002569: E5,1642  E5,1500               ANGX               EQUALS   AINLA      +36D                       #  VE
002570: E5,1642  E5,1502               DRIFTO             EQUALS   AINLA      +38D                       #  VERT
002571: E5,1642  E5,1504               DRIFTI             EQUALS   AINLA      +40D                       #  SOU
002572: E5,1642  E5,1510               VLAUN              EQUALS   AINLA      +44D
002573: E5,1642  E5,1512               ACCWD              EQUALS   AINLA      +46D
002574: E5,1642  E5,1520               POSNV              EQUALS   AINLA      +52D
002575: E5,1642  E5,1522               DPIPAY             EQUALS   AINLA      +54D                       #  SOUTH
002576: E5,1642  E5,1526               DPIPAZ             EQUALS   AINLA      +58D                       #  NORTH  IP INCREMENT
002577: E5,1642  E5,1530               ALTIM              EQUALS   AINLA      +60D
002578: E5,1642  E5,1531               ALTIMS             EQUALS   AINLA      +61D                       #   INDEX
002579: E5,1642  E5,1532               ALDK               EQUALS   AINLA      +62D                       #   TIME  ONSTAN
002580: E5,1642  E5,1550               DELM               EQUALS   AINLA      +76D
002581: E5,1642  E5,1560               WPLATI             EQUALS   AINLA      +84D
002582: E5,1642  E5,1562               GEOCOMPS           EQUALS   AINLA      +86D
002583: E5,1642  E5,1563               ERCOMP             EQUALS   AINLA      +87D
002584: E5,1642  E5,1571               ZERONDX            EQUALS   AINLA      +93D
002585:
002586: E5,1642  E5,1452               THETAN             =        ALK        +4
002587: E5,1642  E5,1460               FILDELV            EQUALS   THETAN     +6                         #   AGS ALIGNMENT STORAGE
002588: E5,1642  E5,1462               INTVEC             EQUALS   FILDELV    +2
002589: E5,1642  E5,1572               1SECXT             =        AINLA      +94D
002590: E5,1642  E5,1573               ASECXT             =        AINLA      +95D
002591: E5,1642  E5,1574               PERFDLAY           EQUALS   AINLA      +96D                       #  B(2) DELAY TIME BEF. START DRIFT MEASURE
002592: E5,1642  E5,1576               OVFLOWCK           EQUALS   AINLA      +98D                       #  (1) SET MEANS OVERFLOW IN IMU PERF TEST
002593:                                                                                                  #      AND CAUSES TERMINATION
002594:
002595:
002596: E5,1642  E5,1774               END-E5             EQUALS   STARSAV2   +6                         #  *** FIRST FREE LOCATION IN E5***
002597:
002598:                                                                                                  #           EBANK-6 ASSIGNMENTS.
002599:
002600: E6,1400                                           SETLOC   3000
002601:
002602:                                                                                                  #           DAP    PAD-LOADED    DATA.                          (10D)
002603:
002604:                                                                                                  #    ALL OF THE FOLLOWING EXCEPT PITTIME AND ROLLTIME ARE INITIALIZED IN FRESH START TO PERMIT IMMEDIATE USE OF DAP
002605:
002606: E6,1400                        HIASCENT           ERASE                                          #  (1) MASS AFTER STAGING, SCALE AT B16 KG.
002607: E6,1401                        ROLLTIME           ERASE                                          #  (1) TIME TO TRIM Z GIMBAL IN R03, CSEC.
002608: E6,1402                        PITTIME            ERASE                                          #  (1) TIME TO TRIM Y GIMBAL IN R03, CSEC.
002609: E6,1403                        DKTRAP             ERASE                                          #  (1) DAP STATE            (POSSIBLE 77001
002610: E6,1404                        DKOMEGAN           ERASE                                          #  (1)   ESTIMATOR PARA-      (VALUES 00012
002611: E6,1405                        DKKAOSN            ERASE                                          #  (1)      METERS FOR THE           00074
002612: E6,1406                        LMTRAP             ERASE                                          #  (1)         DOCKED AND            77001
002613: E6,1407                        LMOMEGAN           ERASE                                          #  (1)            LEM-ALONE CASES    00000
002614: E6,1410                        LMKAOSN            ERASE                                          #  (1)               RESPECTIVELY    00074
002615: E6,1411                        DKDB               ERASE                                          #  (1) WIDTH OF DEADBAND FOR DOCKED RCS
002616:                                                                                                  #      AUTOPILOT (DB=1.4DEG IN FRESH START)
002617:                                                                                                  #      DEADBAND = PI/DKDB RAD.
002618:
002619:                                                                                                  #  AXIS TRANSFORMATION MATRIX - GIMBAL TO PILOT AXES:                    (5D)
002620:
002621: E6,1412                        M11                ERASE                                          #  SCALED AT 1
002622: E6,1413                        M21                ERASE                                          #  SCALED AT 1
002623: E6,1414                        M31                ERASE
002624: E6,1415                        M22                ERASE                                          #  SCALED AT 1.
002625: E6,1416                        M32                ERASE                                          #  SCALED AT 1.
002626:
002627:                                                                                                  #  ANGLE MEASUREMENTS.                                                   (31D)
002628:
002629: E6,1417                        OMEGAP             ERASE    +4                                    #  BODY-AXIS ROT. RATES SCALED AT PI/4 AND
002630: E6,1424  E6,1420               OMEGAQ             EQUALS   OMEGAP     +1                         #  BODY-AXIS ACCELERATIONS SCALED AT PI/8
002631: E6,1424  E6,1421               OMEGAR             EQUALS   OMEGAP     +2
002632:                                                                                                  #     RETAIN THE ORDER OF ALPHAQ AND ALPHAR FOR DOWNLINK PURPOSES.
002633: E6,1424  E6,1422               ALPHAQ             EQUALS   OMEGAP     +3
002634: E6,1424  E6,1423               ALPHAR             EQUALS   OMEGAP     +4
002635: E6,1424                        OMEGAU             ERASE    +1
002636: E6,1426  E6,1425               OMEGAV             =        OMEGAU     +1
002637:
002638: E6,1426                        TRAPEDP            ERASE    +5
002639: E6,1434  E6,1427               TRAPEDQ            =        TRAPEDP    +1
002640: E6,1434  E6,1430               TRAPEDR            =        TRAPEDP    +2
002641: E6,1434  E6,1431               NPTRAPS            =        TRAPEDP    +3
002642: E6,1434  E6,1432               NQTRAPS            =        TRAPEDP    +4
002643: E6,1434  E6,1433               NRTRAPS            =        TRAPEDP    +5
002644: E6,1434  E6,1543               EDOTP              =        EDOT
002645: E6,1434                        EDOTQ              ERASE    +1
002646: E6,1436  E6,1435               EDOTR              =        EDOTQ      +1                         #   MANY SHARING NAMES
002647: E6,1436  E6,1434               QRATEDIF           EQUALS   EDOTQ                                 #  ALTERNATIVE NAMES:
002648:
002649: E6,1436  E6,1435               RRATEDIF           EQUALS   EDOTR                                 #  DELETE WHEN NO. OF REFERENCES = 0
002650:
002651: E6,1436  E6,1424               URATEDIF           EQUALS   OMEGAU
002652: E6,1436  E6,1425               VRATEDIF           EQUALS   OMEGAV
002653: E6,1436                        OLDXFORP           ERASE    +2                                    #  STORED CDU READINGS FOR STATE
002654: E6,1441  E6,1437               OLDYFORP           EQUALS   OLDXFORP   +1                         #  DERIVATIONS: SCALED AT PI RADIANS (2'S)
002655: E6,1441  E6,1440               OLDZFORQ           EQUALS   OLDXFORP   +2
002656:
002657: E6,1441                        SUMRATEQ           ERASE    +1                                    #  SUM OF UN-WEIGHTED JETRATE TERMS
002658: E6,1443  E6,1442               SUMRATER           EQUALS   SUMRATEQ   +1                         #  SCALED AT PI/4 RADIANS/SECOND
002659:
002660:                                                                                                  #  OTHER VARIABLES.                                                      (5D)
002661:
002662: E6,1443                        OLDPMIN            ERASE                                          #  THESE THREE USED IN MIN IMPULSE MODE.
002663: E6,1444                        OLDQRMIN           ERASE
002664: E6,1445  E6,1734               TEMP31             EQUALS   DAPTEMP1
002665:
002666: E6,1445                        SAVEHAND           ERASE    +1
002667: E6,1447                        1/2JTSP            ERASE
002668: E6,1450                        PERROR             ERASE
002669: E6,1451                        QERROR             ERASE
002670: E6,1452                        RERROR             ERASE
002671:                                                                                                  #  JET STATE CHANGE VARIABLES- TIME (TOFJTCHG),JET BITS WRITTEN NOW      (10D)
002672:                                                                                                  #    (JTSONNOW), AND JET BITS WRITTEN AT T6 RUPT (JTSATCHG).
002673:
002674: E6,1453                        NXT6ADR            ERASE
002675: E6,1454                        T6NEXT             ERASE    +1
002676: E6,1456                        T6FURTHA           ERASE    +1
002677: E6,1460                        NEXTP              ERASE    +2
002678: E6,1463  E6,1461               NEXTU              =        NEXTP      +1
002679: E6,1463  E6,1462               NEXTV              =        NEXTP      +2
002680: E6,1463                        -2JETLIM           ERASE    +1                                    #  RATE COMMAND 4-JET RATE DIFFERENCE LIMIT
002681: E6,1465  E6,1464               -RATEDB            EQUALS   -2JETLIM   +1                         #  AND RATE DEADBAND FOR ASCENT OR DESCENT
002682: E6,1465                        ZEROOR1            ERASE
002683:
002684: E6,1466  E6,1464               TARGETDB           EQUALS   -RATEDB                               #  MAN. CONTROL TARGET DB COMPLEMENT.
002685:
002686:                                                                                                  #      *** Q,R AXIS ERASABLES ***                                        (3)
002687:
002688: E6,1466     5015               PBIT               EQUALS   BIT10
002689: E6,1466     5014               QRBIT              EQUALS   BIT11
002690: E6,1466                        UERROR             ERASE    +1                                    #  U,V-AXES ATT ERROR FOR RCS CONTROL LAWS
002691: E6,1470  E6,1467               VERROR             =        UERROR     +1
002692: E6,1470                        RETJADR            ERASE
002693:
002694: E6,1471  E6,1737               TEMPNUM            EQUALS   DAPTEMP4
002695: E6,1471  E6,1740               NUMBERT            EQUALS   DAPTEMP5
002696: E6,1471  E6,1741               ROTINDEX           EQUALS   DAPTEMP6
002697: E6,1471  E6,1734               ROTEMP1            EQUALS   DAPTEMP1
002698: E6,1471  E6,1735               ROTEMP2            EQUALS   DAPTEMP2
002699: E6,1471                        AXISCTR            ERASE
002700: E6,1472  E6,1736               POLYTEMP           EQUALS   DAPTEMP3
002701: E6,1472                        SENSETYP           ERASE
002702: E6,1473  E6,1734               ABSTJ              EQUALS   DAPTEMP1                              #  ABS VALUE OF JET-FIRING TIME
002703: E6,1473  E6,1734               ABSEDOTP           EQUALS   DAPTEMP1
002704: E6,1473  E6,1734               ANYTRANS           EQUALS   DAPTEMP1
002705:
002706: E6,1473  E6,1745               DPSBURN            EQUALS   DAPTREG4                              #  USED WITH SNUFFBIT.  VERY TEMPORARY.
002707:
002708:                                                                                                  #  TRIM GIMBAL CONTROL LAW ERASABLES:                            (11D)
002709:
002710: E6,1473  E6,1734               GTSTEMPS           EQUALS   DAPTEMP1                              #  GTS IS PART OF THE JASK.
002711: E6,1473  E6,1736               SHFTFLAG           EQUALS   GTSTEMPS   +2                         #  COUNT HIGH ORDER ZERO BITS FOR SHIFTING.
002712:
002713: E6,1473  E6,1737               ININDEX            EQUALS   GTSTEMPS   +3                         #  INDEX FOR SHIFT LOOP.
002714:
002715: E6,1473  E6,1471               SAVESR             EQUALS   AXISCTR                               #  CANNOT BE A DAPTEMP - GTS USES THEM ALL.
002716:
002717: E6,1473  E6,1741               SCRATCH            EQUALS   GTSTEMPS   +5                         #  ERASABLE FOR ROOTCYCL
002718: E6,1473  E6,1742               HALFARG            EQUALS   GTSTEMPS   +6
002719:
002720: E6,1473  E6,1734               K2THETA            EQUALS   GTSTEMPS                              #  D.P. K(2)THETA AND NEGUSUM
002721: E6,1473  E6,1736               A2CNTRAL           EQUALS   GTSTEMPS   +2                         #  D.P. ALPHA(2), AT PI(2)/164 RAD/SEC(2)
002722: E6,1473  E6,1740               KCENTRAL           EQUALS   GTSTEMPS   +4                         #  S.P. K FROM KQ OR KR, AT PI/2(8)
002723: E6,1473  E6,1740               OMEGA.K            EQUALS   KCENTRAL                              #  D.P. OMEGA*K   OVERLAYS K AND K(2)
002724: E6,1473  E6,1741               K2CNTRAL           EQUALS   GTSTEMPS   +5                         #  S.P. K(2) FROM Q OR R, AT PI(2)/2(16)
002725: E6,1473  E6,1742               WCENTRAL           EQUALS   GTSTEMPS   +6                         #  S.P. OMEGA, AT PI/4 RAD/SEC
002726: E6,1473  E6,1743               ACENTRAL           EQUALS   GTSTEMPS   +7                         #  S.P. ALPHA, AT PI/8 RAD/SEC(2)
002727: E6,1473  E6,1744               DEL                EQUALS   GTSTEMPS   +8D                        #  S.P. SGN FUNCTION VALUE
002728:
002729: E6,1473  E6,1745               QRCNTR             EQUALS   GTSTEMPS   +9D                        #  INDEX FOR GTS LOOP THROUGH Q,R AXES.
002730:
002731: E6,1473                        FUNCTION           ERASE    +1                                    #  D.P. WORD FOR DRIVE FUNCTION
002732:
002733: E6,1475                        SCRATCHX           ERASE    +2                                    #  SCRATCH AREA FOR DVOVSUB ROUTINE.
002734: E6,1500  E6,1476               SCRATCHY           EQUALS   SCRATCHX   +1
002735: E6,1500  E6,1477               SCRATCHZ           EQUALS   SCRATCHX   +2
002736:
002737: E6,1500                        NEGUQ              ERASE    +2                                    #  NEGATIVE OF Q-AXIS GIMBAL DRIVE
002738:                                                                                                  #                                NEGUQ +1               DEFINED AND USED ELSEWHERE
002739: E6,1503  E6,1502               NEGUR              EQUALS   NEGUQ      +2                         #  NEGATIVE OF R-AXIS GIMBAL DRIVE
002740:
002741: E6,1503                        KQ                 ERASE    +3                                    #  .3ACCDOTQ SCALED AT PI/2(8)
002742: E6,1507  E6,1504               KQ2                EQUALS   KQ         +1                         #  KQ2 = KQ*KQ
002743: E6,1507  E6,1505               KRDAP              EQUALS   KQ         +2                         #  .3 ACCDOTR SCALED AT PI/2(8)
002744: E6,1507  E6,1506               KR2                EQUALS   KQ         +3                         #  KR2 = KR*KR
002745:
002746: E6,1507                        ACCDOTQ            ERASE    +3                                    #  Q-JERK SCALED AT PI/2(7) UNSIGNED
002747: E6,1513  E6,1510               QACCDOT            EQUALS   ACCDOTQ    +1                         #  Q-JERK SCALED AT PI/2(7) SIGNED
002748: E6,1513  E6,1511               ACCDOTR            EQUALS   ACCDOTQ    +2                         #  R-JERK SCALED AT PI/2(7) UNSIGNED
002749: E6,1513  E6,1512               RACCDOT            EQUALS   ACCDOTQ    +3                         #  R-JERK SCALED AT PI/2(7) SIGNED
002750:
002751: E6,1513  E6,1451               QDIFF              EQUALS   QERROR                                #  ATTITUDE ERRORS:
002752: E6,1513  E6,1452               RDIFF              EQUALS   RERROR                                #  SCALED AT PI RADIANS
002753:
002754:
002755:
002756:
002757:                                                                                                  #  TORQUE VECTOR RECONSTRUCTION VARIABLES:                               (18D)
002758:
002759: E6,1513  E6,1742               JETRATE            EQUALS   DAPTREG1
002760: E6,1513  E6,1743               JETRATEQ           EQUALS   JETRATE    +1                         #  THE LAST CONTROL SAMPLE PERIOD OF 100 MS
002761: E6,1513  E6,1744               JETRATER           EQUALS   JETRATE    +2                         #  SCALED AT PI/4 RADIANS/SECOND
002762:
002763:
002764: E6,1513                        NO.PJETS           ERASE    +2
002765: E6,1516  E6,1514               NO.UJETS           =        NO.PJETS   +1
002766: E6,1516  E6,1515               NO.VJETS           =        NO.UJETS   +1
002767: E6,1516                        TJP                ERASE    +2
002768: E6,1521  E6,1517               TJU                =        TJP        +1
002769: E6,1521  E6,1520               TJV                =        TJP        +2
002770:
002771: E6,1521                        L,PVT-CG           ERASE
002772: E6,1522                        1JACC              ERASE    +4                                    #  ACCELERATIONS DUE TO 1 JET TORQUING
002773: E6,1527  E6,1523               1JACCQ             EQUALS   1JACC      +1                         #  SCALED AT PI/4 RADIANS/SECOND
002774: E6,1527  E6,1524               1JACCR             EQUALS   1JACC      +2
002775: E6,1527  E6,1525               1JACCU             EQUALS   1JACC      +3                         #  FOR U,V-AXES THE SCALE FACTOR IS  DIFF:
002776: E6,1527  E6,1526               1JACCV             EQUALS   1JACC      +4                         #  SCALED AT PI/2 RADIANS/SECOND (FOR ASC)
002777:
002778: E6,1527                        PJUMPADR           ERASE
002779:
002780:                                                                                                  #  ASCENT VARIABLES:                                                     (10D)
002781:
002782: E6,1530                        SKIPU              ERASE    +1
002783: E6,1532  E6,1531               SKIPV              =        SKIPU      +1
002784:                                                                                                  #  THE FOLLOWING LM DAP ERASABLES ARE ZEROED IN THE STARTDAP SECTION OF THE DAPIDLER PROGRAM AND THE COASTASC
002785:                                                                                                  #  SECTION OF THE AOSTASK.  THE ORDER MUST BE PRESERVED FOR THE INDEXING METHODS WHICH ARE EMPLOYED IN THOSE
002786:                                                                                                  #  SECTIONS AND ELSEWHERE.
002787:
002788: E6,1532                        AOSQ               ERASE    +5                                    #  OFFSET ACC. ESTIMATES, UPDATED IN D.P.,
002789: E6,1540  E6,1534               AOSR               EQUALS   AOSQ       +2                         #  AND SCALED AT PI/2.
002790: E6,1540  E6,1536               AOSU               EQUALS   AOSQ       +4                         #  UV-AXES OFFSET ACC. FROMED BY VECTOR
002791: E6,1540  E6,1537               AOSV               EQUALS   AOSQ       +5                         #  ADDITION OF Q,R.  AT PI/2 RAD/SEC(2).
002792:
002793: E6,1540                        AOSQTERM           ERASE    +1                                    #  (.1-.05K)AOS
002794: E6,1542  E6,1541               AOSRTERM           EQUALS   AOSQTERM   +1                         #  SCALED AT PI/4 RADIANS/SECOND.
002795:
002796:                                                                                                  #  FOR TJET LAW SUBROUTINE:                                              (TEMPS ONLY)
002797:
002798:                                                                                                  # NUMBERT        EQUALS          DAPTEMP5                  DEFINED IN QRAXIS.
002799: E6,1542  E6,1734               EDOTSQ             EQUALS   DAPTEMP1
002800: E6,1542  E6,1735               ROTSENSE           EQUALS   DAPTEMP2
002801: E6,1542  E6,1736               FIREFCT            EQUALS   DAPTEMP3                              #  LOOKED AT BY PAXIS.
002802: E6,1542  E6,1737               TTOAXIS            EQUALS   DAPTEMP4
002803: E6,1542  E6,1741               ADRSDIF2           EQUALS   DAPTEMP6
002804: E6,1542  E6,1742               HOLDQ              EQUALS   DAPTREG1
002805: E6,1542  E6,1743               ADRSDIF1           EQUALS   DAPTREG2
002806: E6,1542  E6,1744               HH                 EQUALS   DAPTREG3                              #  DOUBLE PRECISION
002807:
002808:                                                                                                  #  HH +1         EQUALS          DAPTREG4
002809: E6,1542                        E                  ERASE    +1
002810: E6,1544  E6,1543               EDOT               EQUALS   E          +1
002811:
002812:                                                                                                  #  INPUT TO TJET LAW (PERMANENT ERASABLES).                              (48D)
002813:
002814: E6,1544  E6,1517               TJETU              =        TJU                                   #  EQUATE NAMES.  INDEXED BY -1, 0, +1.
002815: E6,1544                        BLOCKTOP           ERASE    +47D
002816: E6,1624  E6,1564               1/ANET1            =        BLOCKTOP   +16D                       #  THESE 8 PARAMETERS ARE SET UP BY 1/ACCS
002817: E6,1624  E6,1565               1/ANET2            =        1/ANET1    +1                         #  FOR MINIMUM JETS ABOUT THE U-AXIS WHEN
002818: E6,1624  E6,1570               1/ACOAST           =        1/ANET1    +4                         #  EDOT IS POSITIVE.  TJETLAW INDEXES BY
002819: E6,1624  E6,1572               ACCFCTZ1           =        1/ANET1    +6                         #  ADRSDIFF FROM THESE REGISTERS TO PICK UP
002820: E6,1624  E6,1573               ACCFCTZ5           =        1/ANET1    +7                         #  PARAMETERS FOR THE PROPER AXIS, NUMBER
002821: E6,1624  E6,1576               FIREDB             =        1/ANET1    +10D                       #  OF JETS AND SIGN OF EDOT.  THERE ARE 48
002822: E6,1624  E6,1600               COASTDB            =        1/ANET1    +12D                       #  REGISTERS IN ALL IN THIS BLOCK.
002823: E6,1624  E6,1602               AXISDIST           =        1/ANET1    +14D                       #  FOUR NOT REFERENCED (P-AXIS) ARE FILLED
002824:                                                                                                  #    IN BY THE FOLLOWING:
002825: E6,1624  E6,1544               ACCSWU             =        BLOCKTOP                              #  SET BY 1/ACCS TO SHOW WHETHER MAXIMUM
002826: E6,1624  E6,1545               ACCSWV             =        ACCSWU     +1                         #  JETS ARE REQUIRED BECAUSE OF AOS.
002827: E6,1624  E6,1552               FLAT               =        BLOCKTOP   +6                         #  WIDTH OF MINIMUM IMPULSE ZONE.
002828: E6,1624  E6,1553               ZONE3LIM           =        BLOCKTOP   +7                         #  HEIGHT OF MINIMUM IMPULSE ZONE(AT 4 SEC)
002829:
002830:
002831:
002832:                                                                                                  #  VARIABLES FOR GTS-QRAXIS CONTROL EXCHANGE.                            (4)
002833:
002834: E6,1624                        ALLOWGTS           ERASE                                          #  INSERT INTO UNUSED LOCATION
002835: E6,1625                        COTROLER           ERASE                                          #  INDICATES WHICH CONTROL SYSTEM TO USE.
002836: E6,1626                        QGIMTIMR           ERASE    +2                                    #  Q-GIMBAL DRIVE ITMER, DECISECONDS.
002837: E6,1631  E6,1627               INGTS              EQUALS   QGIMTIMR   +1                         #  INDICATOR OF CURRENT GTS CONTROL.
002838: E6,1631  E6,1630               RGIMTIMR           EQUALS   QGIMTIMR   +2                         #  R-GIMBAL DRIVE TIMER, DECISECONDS.
002839:
002840:                                                                                                  #  PLEASE RETAIN THE ORDER OF CDUXD THRU CDUZD FOR DOWNLINK PURPOSES.
002841:
002842:                                                                                                  #           KALCMANU:DAP INTERFACE.                                      (9D)
002843:
002844: E6,1631                        ACCSET             ERASE                                          #  INDICATES 1/ACCS HAS BEEN SET UP
002845: E6,1632                        CDUXD              ERASE    +2                                    #  CDU DESIRED REGISTERS:
002846: E6,1635  E6,1633               CDUYD              EQUALS   CDUXD      +1                         #  SCALED AT PI RADIANS (180 DEGREES)
002847: E6,1635  E6,1634               CDUZD              EQUALS   CDUXD      +2                         #  (STORE IN 2S COMPLEMENT)
002848:
002849: E6,1635                        DELCDUX            ERASE    +2                                    #  NEGATIVE OF DESIRED 100MS CDU INCREMENT:
002850: E6,1640  E6,1636               DELCDUY            EQUALS   DELCDUX    +1                         #  SCALED AT PI RADIANS (180 DEGREES)
002851: E6,1640  E6,1637               DELCDUZ            EQUALS   DELCDUX    +2                         #  (STORE IN 2S COMPLEMENT)
002852:
002853:                                                                                                  #     RETAIN THE ORDER OF OMEGAPD TO OMEGARD FOR DOWNLINK PURPOSES.
002854: E6,1640                        OMEGAPD            ERASE    +2                                    #  ATTITUDE MANEUVER DESIRED RATES:
002855: E6,1643  E6,1641               OMEGAQD            EQUALS   OMEGAPD    +1                         #  (NOT EXPLICITLY REFERENCED IN GTS CNTRL)
002856: E6,1643  E6,1642               OMEGARD            EQUALS   OMEGAPD    +2                         #  SCALED AT PI/4 RADIANS/SECOND
002857:
002858:                                                                                                  #  KALCMANU STORAGE.                                                     (24D)
002859:
002860: E6,1643                        MIS                ERASE    +23D                                  #  I(18D)
002861: E6,1673  E6,1665               COF                EQUALS   MIS        +18D                       #  I(6)
002862:
002863:
002864:                                                                                                  #           KALCMANU STORAGE.                                             (33D)
002865:
002866: E6,1673                        BCDU               ERASE    +30D                                  #  B(3)
002867: E6,1732  E6,1676               KSPNDX             EQUALS   BCDU       +3                         #  B(1)
002868: E6,1732  E6,1677               KDPNDX             EQUALS   KSPNDX     +1                         #  B(1)
002869:
002870: E6,1732  E6,1700               TMIS               EQUALS   KDPNDX     +1                         #  I(18) MUST BE IN SAME BANK AS RCS DAP
002871: E6,1732  E6,1722               COFSKEW            EQUALS   TMIS       +18D                       #  I(6)  MUST BE IN SAME BANK AS RCS DAP
002872: E6,1732  E6,1730               CAM                EQUALS   COFSKEW    +6                         #  I(2)  MUST BE IN SAME BANK AS RCS DAP
002873:
002874:
002875: E6,1732                        AM                 ERASE    +1                                    #  I(2) THIS WAS ONCE IN E5 OVERLAYING OGC
002876:
002877:
002878:                                                                                                  #  FIRST-ORDER OVERLAYS IN KALCMANU                                      (25D)
002879:
002880: E6,1734  E6,1700               KV1                EQUALS   TMIS                                  #  I(6)
002881: E6,1734  E6,1700               MFISYM             EQUALS   TMIS                                  #  I
002882: E6,1734  E6,1700               TMFI               EQUALS   TMIS                                  #  I
002883: E6,1734  E6,1700               NCDU               EQUALS   TMIS                                  #  B
002884: E6,1734  E6,1703               NEXTIME            EQUALS   TMIS       +3                         #  B
002885: E6,1734  E6,1704               TTEMP              EQUALS   TMIS       +4                         #  B
002886: E6,1734  E6,1706               KV2                EQUALS   TMIS       +6                         #  I(6)
002887: E6,1734  E6,1706               BIASTEMP           EQUALS   TMIS       +6                         #  B
002888: E6,1734  E6,1714               KV3                EQUALS   TMIS       +12D                       #  I(6)
002889: E6,1734  E6,1714               OGF                EQUALS   TMIS       +12D                       #  I
002890:
002891: E6,1734  E6,1722               BRATE              EQUALS   COFSKEW                               #  B
002892: E6,1734  E6,1722               IG                 EQUALS   COFSKEW                               #  I
002893:
002894: E6,1734  E6,1730               TM                 EQUALS   CAM                                   #  B
002895:
002896:                                                                                                  #  SECOND-ORDER OVERLAYS IN KALCMANU                                     (24D)
002897:
002898: E6,1734  E6,1700               K1                 =        KV1
002899: E6,1734  E6,1706               K2                 =        KV2
002900: E6,1734  E6,1714               K3                 =        KV3
002901: E6,1734  E6,1700               P21                EQUALS   KV1                                   #  I(2)
002902: E6,1734  E6,1702               D21                EQUALS   KV1        +2                         #  I(2)
002903: E6,1734  E6,1704               G21                EQUALS   KV1        +4                         #  I(2)
002904: E6,1734  E6,1706               C2SQP              EQUALS   KV2                                   #  I(2)
002905: E6,1734  E6,1710               C2SQM              EQUALS   KV2        +2                         #  I(2)
002906: E6,1734  E6,1712               C2PP               EQUALS   KV2        +4                         #  I(2)
002907: E6,1734  E6,1714               C2MP               EQUALS   KV3                                   #  I(2)
002908: E6,1734  E6,1716               C1PP               EQUALS   KV3        +2                         #  I(2)
002909: E6,1734  E6,1720               C1MP               EQUALS   KV3        +4                         #  I(2)
002910:
002911: E6,1734  E6,1722               VECQTEMP           =        COFSKEW
002912:
002913: E6,1734  E6,1632               DCDU               =        CDUXD
002914: E6,1734  E6,1635               DELDCDU            =        DELCDUX
002915: E6,1734  E6,1636               DELDCDU1           =        DELCDUY
002916: E6,1734  E6,1637               DELDCDU2           =        DELCDUZ
002917:
002918:
002919:                                                                                                  #  *  *  *  *  *  *  *  *  *  *  *  *  *  *  *  *  *  *  *  *  *  *  *  *
002920:
002921:                                                                                                  #  STORAGE FOR FINDCDUW
002922:
002923:                                                                                                  #           OVERLAYING KALCMANU STORAGE:                                 (26D)
002924:
002925: E6,1734  E6,1643               ECDUW              EQUALS   MIS
002926: E6,1734  E6,1643               ECDUWUSR           EQUALS   ECDUW                                 #  B(1)TMP
002927: E6,1734  E6,1644               QCDUWUSR           EQUALS   ECDUWUSR   +1                         #  I(1)TMP
002928: E6,1734  E6,1645               NDXCDUW            EQUALS   QCDUWUSR   +1                         #  B(1)TMP
002929: E6,1734  E6,1646               FLAGOODW           EQUALS   NDXCDUW    +1                         #  B(1)TMP
002930: E6,1734  E6,1647               UNFC/2             EQUALS   FLAGOODW   +1                         #  I(6)IN
002931: E6,1734  E6,1655               UNWC/2             EQUALS   UNFC/2     +6                         #  I(6)IN
002932: E6,1734  E6,1663               UNFV/2             EQUALS   UNWC/2     +6                         #  I(6) S-S
002933: E6,1734  E6,1663               UNFVX/2            =        UNFV/2
002934: E6,1734  E6,1665               UNFVY/2            =        UNFV/2     +2
002935: E6,1734  E6,1667               UNFVZ/2            =        UNFV/2     +4
002936: E6,1734  E6,1671               -DELGMB            EQUALS   UNFV/2     +6                         #  B(3)TMP
002937:
002938:                                                                                                  #           DEFINED IN THE WORK AREA:                                    (18D)
002939:
002940: E6,1734                        UNX/2              =        0
002941: E6,1734                        UNY/2              =        6
002942: E6,1734                        UNZ/2              =        14
002943:
002944:                                                                                                  #  END OF FINDCDUW ERASABLES
002945:
002946:                                                                                                  #  *  *  *  *  *  *  *  *  *  *  *  *  *  *  *  *  *  *  *  *  *  *  *  *
002947:
002948:                                                                                                  #  THE FOLLOWING ARE THE DAP REPLACEMENTS FOR THE ITEMPS AND RUPTREGS,NEEDED BECAUSE DAP IS NOW A TOB,JASK,JAB,TOSK
002949:                                                                                                  #  ...ANYWAY, THE DAP CAN NOW BE INTERRUPTED.                            (16D)
002950:
002951: E6,1734                        DAPTEMP1           ERASE    +15D
002952: E6,1754  E6,1735               DAPTEMP2           EQUALS   DAPTEMP1   +1
002953: E6,1754  E6,1736               DAPTEMP3           EQUALS   DAPTEMP1   +2
002954: E6,1754  E6,1737               DAPTEMP4           EQUALS   DAPTEMP1   +3
002955: E6,1754  E6,1740               DAPTEMP5           EQUALS   DAPTEMP1   +4
002956: E6,1754  E6,1741               DAPTEMP6           EQUALS   DAPTEMP1   +5
002957: E6,1754  E6,1742               DAPTREG1           EQUALS   DAPTEMP1   +6
002958: E6,1754  E6,1743               DAPTREG2           EQUALS   DAPTEMP1   +7
002959: E6,1754  E6,1744               DAPTREG3           EQUALS   DAPTEMP1   +8D
002960:
002961: E6,1754  E6,1745               DAPTREG4           EQUALS   DAPTEMP1   +9D
002962: E6,1754  E6,1746               DAPTREG5           EQUALS   DAPTEMP1   +10D
002963: E6,1754  E6,1747               DAPTREG6           EQUALS   DAPTEMP1   +11D
002964:
002965: E6,1754  E6,1746               DAPARUPT           EQUALS   DAPTEMP1   +10D
002966: E6,1754  E6,1747               DAPLRUPT           EQUALS   DAPARUPT   +1
002967: E6,1754  E6,1750               DAPBQRPT           EQUALS   DAPARUPT   +2
002968: E6,1754  E6,1752               DAPZRUPT           EQUALS   DAPARUPT   +4
002969:
002970:                                                                                                  #  (DAPZRUPT IS ALSO JASK-IN-PROGRESS FLAG)
002971:
002972:
002973:
002974:                                                                                                  #           NEEDLER(ATTITUDE ERROR EIGHT BALL DISPLAY) STORAGE.          (6D)
002975:
002976: E6,1754     0061               T5TEMP             EQUALS   ITEMP1
002977: E6,1754     0063               DINDX              EQUALS   ITEMP3
002978: E6,1754                        AK                 ERASE    +2                                    #  NEEDLER ATTITUDE INPUTS, SCALED AT 180
002979: E6,1757  E6,1755               AK1                EQUALS   AK         +1                         #  DEGREES.  P,Q,R AXES IN AK,AK1,AK2.
002980: E6,1757  E6,1756               AK2                EQUALS   AK         +2
002981:
002982: E6,1757                        EDRIVEX            ERASE    +2                                    #  NEEDLER DISPLAY REGS AT 1800 DEGREES.
002983: E6,1762  E6,1760               EDRIVEY            EQUALS   EDRIVEX    +1                         #  SO THAT 384 BITS REPRESENT 42 3/16 DEG.
002984: E6,1762  E6,1761               EDRIVEZ            EQUALS   EDRIVEX    +2
002985:
002986:
002987:                                                                                                  #           INITVEL STORAGE.  ALSO USED BY P31,P34,P35,P74,P75,S40.1 AND DOWNLINKED. (6D)
002988:
002989: E6,1762                        DELVEET3           ERASE    +5                                    #  I(6)     DELTA V IN INERTIAL
002990:
002991:
002992:                                                                                                  #           P32-P33 STORAGE.                                             (2)
002993:
002994: E6,1770                        TCDH               ERASE    +1                                    #   I(2) T2 CDH TIME IN C.S. ALSO DWNLINKED
002995:
002996:
002997: E6,1772  E4,1733               END-E6             EQUALS   RTX2                                  #  LAST LOCATION USED IN E6.
002998:
002999:                                                                                                  #                  EBANK-7 ASSIGNMENTS
003000:
003001: E7,1400                                           SETLOC   3400
003002:
003003:
003004:                                                                                                  #           P35 CONSTANTS.         -PAD LOADED-                          (4D)
003005:
003006: E7,1400                        ATIGINC            ERASE    +1                                    #  B(2)PL  *MUST BE AT 1400 FOR SYSTEMSTEST
003007: E7,1402                        PTIGINC            ERASE    +1                                    #  B(2)PL
003008:
003009:
003010:                                                                                                  #           AOTMARK STORAGE.       -PAD LOADED-                          (6D)
003011:
003012: E7,1404                        AOTAZ              ERASE    +2                                    #  B(3)PL
003013: E7,1407                        AOTEL              ERASE    +2                                    #  B(3)PL
003014:
003015:
003016:                                                                                                  #           LANDING RADAR.         -PAD LOADED-                          (10D)
003017:
003018: E7,1412                        LRALPHA            ERASE    +4                                    #  B(1)    POS1 X ROTATION      * MUST *
003019: E7,1417  E7,1413               LRBETA1            EQUALS   LRALPHA    +1                         #  B(1)    POS1 Y ROTATION    *  BE  *
003020: E7,1417  E7,1414               LRALPHA2           EQUALS   LRBETA1    +1                         #  B(1)    POS2 X ROTATION    *  IN  *
003021: E7,1417  E7,1415               LRBETA2            EQUALS   LRALPHA2   +1                         #  B(1)    POS2 Y ROTATION    * ORDER *
003022: E7,1417  E7,1416               HANGLE             EQUALS   LRBETA2    +1                         #  B(1)
003023:
003024:                                                                                                  #           THROTTLE STORAGE.      -PAD LOADED-                          (1D)
003025:
003026: E7,1417                        PIF                ERASE                                          #  B(2)   THROTTLE
003027: E7,1420                        ZOOMTDP            ERASE    +1
003028: E7,1422  E7,1421               ZOOMTIME           EQUALS   ZOOMTDP    +1                         #  B(1)PL TIME OF DPS THROTTLE-UP COMMAND
003029:
003030:                                                                                                  #           LANDING RADAR      -PAD LOADED-                              (2D)
003031:
003032:                                                                                                  #           P30-P40 INTERFACE UNSHARED.                   (2D)
003033:
003034: E7,1422                        TIG(AS)            ERASE    +1                                    #  B(2)
003035: E7,1424                        TIG                ERASE    +1                                    #  B(2)
003036:
003037:                                                                                                  #           P30-P40 INTERFACE UNSHARED.                                  (3D)
003038:
003039: E7,1426                        TTOGO              ERASE    +1                                    #  B(2)
003040: E7,1430  E7,1426               TFI                EQUALS   TTOGO
003041: E7,1430                        WHICH              ERASE                                          #  B(1)
003042:
003043:
003044:                                                                                                  #           LPS20.1 STORAGE     -ALL ARE PRM -                           (9D)
003045:
003046: E7,1431                        LS21X              ERASE                                          #  I(1)
003047: E7,1432                        UNUSED8            ERASE
003048: E7,1433                        LOSCOUNT           ERASE                                          #  B(1)
003049: E7,1434                        LOSVEL             ERASE    +5                                    #  I(6)
003050: E7,1442                        MLOSV              ERASE    +1                                    #  I(2) MAGNITUDE OF LOS, METERS B-29
003051:
003052:
003053:
003054:                                                                                                  #           L SR22.3 (RENDEZVOUS NAVIGATION) STORAGE.                    (4D)
003055:
003056:                                                                                                  #     RETAIN THE ORDER OF AIG TO TRKMKCNT FOR DOWNLINK PURPOSES.
003057: E7,1444                        AIG                ERASE                                          #  B(1)OUT  GIMGAL ANGLES
003058: E7,1445                        AMG                ERASE                                          #  B(1)OUT  (MUST BE
003059: E7,1446                        AOG                ERASE                                          #  B(1)OUT   CONSECUTIVE)
003060:
003061: E7,1447                        TRKMKCNT           ERASE                                          #  B(1)TMP  TEMPORARY MARK STORAGE.
003062: E7,1450  E7,1447               MARKCTR            =        TRKMKCNT
003063:
003064:
003065:                                                                                                  #           P32-P35, P72-P75 STORAGE.  -PERMANENT-                       (6)
003066:
003067: E7,1450                        NORMEX             ERASE                                          #  B(1) PRM SAVE FOR Q
003068: E7,1451                        QSAVED             ERASE                                          #  B(1) PRM SAVE FOR Q
003069: E7,1452                        RTRN               ERASE                                          #  B(1) PRM SAVE FOR Q
003070: E7,1453                        NN                 ERASE    +1                                    #  B(2)
003071: E7,1455                        SUBEXIT            ERASE                                          #  B(1) PRM SAVE Q
003072:
003073:
003074: E7,1456                        E7OVERLA           EQUALS                                         #           START OF E7 OVERLAYS
003075:
003076: E7,1456  E7,1456               WHOCARES           EQUALS   E7OVERLA                              #  A DUMMY FOR E-BANK INSENSITIVE 2CADRS.
003077:
003078:                                                                                                  #  *******  OVERLAY NUMBER 0 IN EBANK 7  *******
003079:
003080:
003081:
003082:                                                                                                  #  RENDEZVOUS GUIDANCE STORAGE -P32....P35-                              (89D)
003083:
003084: E7,1456  E7,1564               TSTRT              EQUALS   DELDV                                 #  MIDCOURSE START TIME
003085: E7,1456  E7,1560               TDEC2              EQUALS   DELVCSI                               #  TEMP STORAGE FOR INTEGRATION TIME INPUT
003086: E7,1456  E7,1562               KT                 EQUALS   DELVTPI                               #  TEMP STORAGE FOR MIDCOURSE DELTA TIME
003087: E7,1456                        VACT1              ERASE    +5D                                   #  VELOCITY VECTOR OF ACTIVE  AT CSI TIME
003088: E7,1464                        RPASS1             ERASE    +5D                                   #  POSITION VECTOR OF PASSIVE AT CSI TIME
003089: E7,1472                        VPASS1             ERASE    +5D                                   #  VELOCITY VECTOR OF PASSIVE AT CSI TIME
003090: E7,1500                        VACT2              ERASE    +5D                                   #  VELOCITY VECTOR OF ACTIVE  AT CDH TIME
003091: E7,1506                        RPASS2             ERASE    +5D                                   #  POSITION VECTOR OF PASSIVE AT CDH TIME
003092: E7,1514                        VPASS2             ERASE    +5D                                   #  VELOCITY VECTOR OF PASSIVE AT CDH TIME
003093: E7,1522                        RACT3              ERASE    +5D                                   #  POSITION VECTOR OF ACTIVE  AT TPI TIME
003094: E7,1530                        VACT3              ERASE    +5D                                   #  VELOCITY VECTOR OF ACTIVE  AT TPI TIME
003095: E7,1536                        RPASS3             ERASE    +5D                                   #  POSITION VECTOR OF PASSIVE AT TPI TIME
003096: E7,1544                        VPASS3             ERASE    +5D                                   #  VELOCITY VECTOR OF PASSIVE AT TPI TIME
003097: E7,1552                        VACT4              ERASE    +5D                                   #  VELOCITY VECTOR OF ACTIVE  AT INTERCEPT
003098: E7,1560  E7,1530               UNVEC              EQUALS   VACT3                                 #  CDHMVR UNIT VECTOR TEMP STORAGE.
003099: E7,1560                        DELVCSI            ERASE    +1D                                   #  THRUST VALUE AT CSI
003100: E7,1562                        DELVTPI            ERASE    +1D                                   #  THRUST VALUE AT TPI OR MID
003101: E7,1564                        DELDV              ERASE    +1D
003102: E7,1566  E7,1562               DELVMID            EQUALS   DELVTPI
003103: E7,1566                        DIFFALT            ERASE    +1D                                   #  ALT DIFFERENCE AT CDH
003104: E7,1570                        POSTCSI            ERASE    +1                                    #  PERIGEE ALTITUDE AFTER CSI MANEUVER
003105: E7,1572                        POSTCDH            ERASE    +1                                    #  PERIGEE ALTITUDE AFTER CDH MANEUVER
003106: E7,1574                        POSTTPI            ERASE    +1                                    #  PERIGEE ALTITUDE AFTER TPI MANEUVER
003107: E7,1576  E7,1574               LOOPCT             EQUALS   POSTTPI                               #  CSI NEWTON ITERATION COUNTER
003108: E7,1576  E7,1572               HAFPA1             EQUALS   POSTCDH                               #  HALF PERIOD
003109: E7,1576                        GAMPREV            ERASE    +1                                    #  PREVIOUS GAMMA
003110: E7,1600  E7,1562               DVPREV             EQUALS   DELVTPI                               #  PREVIOUS DELVCSI
003111: E7,1600                        CSIALRM            ERASE    +1                                    #  FIRST SOLUTION ALARM
003112: E7,1602                        VERBNOUN           ERASE
003113: E7,1603  E7,1600               TITER              EQUALS   CSIALRM                               #  ITERATION COUNTER
003114: E7,1603                        RDOTV              ERASE    +1
003115: E7,1605  E7,1472               VAPREC             EQUALS   VPASS1                                #  I(6) S-S PREC VEC FOR NOM TPI TIME(ACT V
003116: E7,1605  E7,1464               RAPREC             EQUALS   RPASS1                                #  I(6) S-S PREC VEC FOR NOM TPI TIME(ACT V
003117: E7,1605  E7,1514               VPPREC             EQUALS   VPASS2                                #  I(6) S-S PREC VEC FOR NOM TPI TIME(PASS
003118: E7,1605  E7,1506               RPPREC             EQUALS   RPASS2                                #  I(6) S-S PREC VEC FOR NOM TPI TIME(PASS
003119: E7,1605  E7,1562               DELEL              EQUALS   DELVTPI                               #  I(2) S-S
003120: E7,1605  E7,1564               DELTEE             EQUALS   DELDV                                 #  I(2)S-S
003121: E7,1605  E7,1560               SECMAX             EQUALS   DELVCSI                               #  I(2) S-S MAX STOP SIZE FOR ROUTINE
003122: E7,1605  E7,1574               DELTEEO            EQUALS   POSTTPI                               #  I(2) S-S BACK VALUES OF DELTA TIME
003123: E7,1605                        CENTANG            ERASE    +1                                    #  I(2) S-S CENTRAL ANGLE COVERED(TPI-TPF)
003124:
003125:                                                                                                  #          P34-P35 STORAGE.  DOWNLINKED.
003126:
003127:                                                                                                  #  (2D)
003128:
003129: E7,1607  E7,1564               DELVTPF            EQUALS   DELDV                                 #  I(2) DELTA V FOR TPF
003130:
003131:                                                                                                  #           SOME P47 STORAGE                                             (6D)
003132:
003133: E7,1607                        DELVIMU            ERASE    +5                                    #  I(6)DSP NOUN 83 FOR P47 DELTA V (IMU)
003134:
003135:
003136:                                                                                                  #           P30-P40 COMMON STORAGE.                                      (3D)
003137:
003138: E7,1615                        TPASS4             ERASE    +1                                    #  INTERCEPT TIME
003139: E7,1617                        QTEMP              ERASE                                          #  I(1)TMP COMMON RETURN SAVE REGISTER.
003140:
003141:
003142:
003143:                                                                                                  #           P32,33,34 STORAGE.                                            (6D)
003144:
003145: E7,1620                        TCSI               ERASE    +1                                    #  B(2) TMP CSI TIME IN CENTISECONDS
003146: E7,1622                        TTPI               ERASE    +1                                    #  B(2) TMP TPI TIME IN CENTISECONDS
003147: E7,1624                        TTPIO              ERASE    +1                                    #  B(2) TMP TTPI STORAGE FOR RECYCLE
003148:
003149:
003150:                                                                                                  #           P30,P40 INTERFACE.                                            (21D)
003151:
003152: E7,1626                        RTIG               ERASE    +19D                                  #  I(6)TMP
003153: E7,1652  E7,1634               VTIG               EQUALS   RTIG       +6                         #  I(6)TMP
003154: E7,1652  E7,1642               DELVSIN            EQUALS   VTIG       +6                         #  I(6)TMP
003155: E7,1652  E7,1650               DELVSAB            EQUALS   DELVSIN    +6                         #  I(2)TMP
003156: E7,1652  E7,1650               VGDISP             =        DELVSAB
003157:
003158:
003159: E7,1652                        QTEMP1             ERASE                                          #  I(1)TMP HOLDS RETURN.
003160: E7,1653  E7,1652               RGEXIT             EQUALS   QTEMP1                                #  SAVE Q
003161: E7,1653  E7,1652               SAVQR52            EQUALS   QTEMP1
003162:
003163:
003164:                                                                                                  #           INITVEL STORAGE.  (IN OVERLAY 0 AND OVERLAY 1.                (2D)
003165:                                                                                                  #                  (CALLS LAMBERT, CONIC SUBROUTINES)
003166:
003167: E7,1653  E7,1552               VTPRIME            EQUALS   VACT4                                 #  TOTAL VELOCITY AT DESIRED RADIUS
003168: E7,1653  E7,1603               ITCTR              EQUALS   RDOTV                                 #  ITERATION COUNTER
003169: E7,1653                        COZY4              ERASE    +1                                    #  COS OF ANGLE WHEN ROTATION STARTS
003170: E7,1655  E7,1564               X1INPUT            EQUALS   DELDV                                 #  X1 TEMP STORAGE
003171: E7,1655  E7,1576               INTIME             EQUALS   GAMPREV                               #  TIME OF RINIT
003172:
003173:
003174:
003175:                                                                                                  #           PERIAPO STORAGE. (2D)                                 (2D)
003176:
003177: E7,1655                        XXXALT             ERASE    +1                                    #  RADIUS TO LAUNCH PAD OR LANDING SIGHT
003178:
003179: E7,1657  E7,1657               END-IN/M           EQUALS   XXXALT     +2                         #  NEXT AVAIL ERASABLE AFTER INITVEL/MIDGIM
003180:
003181:                                                                                                  #           S40.1 STORAGE.                                               (19D)
003182:
003183: E7,1657                        BDT                ERASE    +18D                                  #  I(6) IN
003184: E7,1702  E7,1665               UT                 EQUALS   BDT        +6                         #  I(6)OUT THRUST DIRECTION
003185: E7,1702  E7,1673               VGTIG              EQUALS   UT         +6                         #  I(6)OUT
003186: E7,1702  E7,1673               VGPREV             =        VGTIG
003187:                                                                                                  #          S40.9 STORAGE.                                                (16D)
003188:
003189: E7,1702                        VG                 ERASE    +15D                                  #  I(6)TMP
003190: E7,1722  E7,1710               VRPREV             EQUALS   VG         +6                         #  I(6)TMP
003191: E7,1722  E7,1716               TNIT               EQUALS   VRPREV     +6                         #  I(2)TMP TIME SIMCE LAST CALL TO S40.9
003192: E7,1722  E7,1720               TNITPREV           EQUALS   TNIT       +2                         #  I(2)TMP PREVIOUS INIT.
003193:
003194:
003195:                                                                                                  #          P40 STORAGE.                                                  (6D)
003196:
003197:                                                                                                  #               F,MDOT,AND TDECAY MUST BE CONTIGUOUS FOR VLOAD.
003198: E7,1722                        F                  ERASE    +5                                    #  I(2)TMP  S40.1 GENERATES THIS FOR S40.3
003199: E7,1730  E7,1724               MDOT               EQUALS   F          +2                         #  I(2)TMP MASS CHNG RATE, KG/CS AT 2**3.
003200: E7,1730  E7,1726               TDECAY             EQUALS   MDOT       +2                         #  I(2)IN  DELTA-T TAILOFF, (2**28)CS.
003201:
003202:
003203:
003204:                                                                                                  #           MIDTOAV1(2) STORAGE.  (CALLED BY P40,P41,P42)                (1D)
003205:
003206: E7,1730                        IRETURN1           ERASE                                          #  B(1)     RETURN FROM MIDTOAV1 AND 2
003207:
003208:
003209:                                                                                                  #  ******* OVERLAY  NUMBER 1 IN EBANK 7  *******
003210:
003211:
003212:
003213:                                                                                                  #           P35-P40 INTERFACE.                                           (6D)
003214:
003215: E7,1731  E7,1472               VPASS4             EQUALS   VPASS1                                #  I(6)TMP VELOCITY OF PASSIVE AT INTERCEPT
003216:
003217:
003218:                                                                                                  #           INITVEL OVERLAYS RENDESVOUS GUIDANCE (LISTED IN OVERLAY O)
003219:
003220:                                                                                                  #           SOME P38-39,P78-79 STORAGE.                                  (2D)
003221:
003222: E7,1731  E7,1615               TINT               EQUALS   TPASS4                                #  I(2) TIME OF INTERCEPT
003223:
003224:
003225:                                                                                                  #           LAT - LONG TEMPORARIES. CAN OVERLAY WITH S40.1               (3D)
003226:
003227: E7,1731  E7,1657               ERADM              EQUALS   BDT                                   #  I(2)
003228: E7,1731  E7,1661               INCORPEX           EQUALS   ERADM      +2                         #  I(1)
003229:
003230:
003231:                                                                                                  #           LRS24.1 STORAGE. (CAN SHARE WITH P30'S)                      (40D)
003232:
003233: E7,1731  E7,1662               RLMSRCH            EQUALS   INCORPEX   +1                         #  I(6) TMP LM POSITION VECTOR
003234: E7,1731  E7,1670               VXRCM              EQUALS   RLMSRCH    +6                         #  I(6)    CM V X R VECTOR
003235: E7,1731  E7,1676               LOSDESRD           EQUALS   VXRCM      +6                         #  I(6)    DESIRED LOS VECTOR
003236: E7,1731  E7,1704               UXVECT             EQUALS   LOSDESRD   +6                         #  I(6)    X-AXIS SRCH PATTERN COORDS
003237: E7,1731  E7,1712               UYVECT             EQUALS   UXVECT     +6                         #  I(6)    Y-AXIS SRCH PATTERN COORDS
003238: E7,1731  E7,1720               DATAGOOD           EQUALS   UYVECT     +6                         #  B(1)DSP FOR R1 - ALL 1-S WHEN LOCKON
003239: E7,1731  E7,1721               OMEGDISP           EQUALS   DATAGOOD   +1                         #  B(2)    ANGLE OMEGA DISPLAYED IN R2
003240: E7,1731  E7,1721               OMEGAD             =        OMEGDISP                              #          PINBALL DEFINITION.
003241: E7,1731  E7,1723               NSRCHPNT           EQUALS   OMEGDISP   +2                         #  B(1)TMP SEARCH PATTERN POINT COUNTER.
003242: E7,1731  E7,1724               SAVLEMV            EQUALS   NSRCHPNT   +1                         #  I(6)S-S SAVES LOSVEL
003243:
003244:
003245:
003246:
003247:                                                                                                  #  ******* OVERLAY NUMBER 2 IN EBANK 7  *******
003248:
003249:
003250:
003251:                                                                                                  #           INCORP STORAGE IN E7.                                        (47D)
003252:
003253: E7,1731  E7,1456               TX789              EQUALS   E7OVERLA                              #  I(6)
003254: E7,1731  E7,1464               GAMMA              EQUALS   TX789      +6                         #  I(3)
003255: E7,1731  E7,1467               OMEGA              EQUALS   GAMMA      +3                         #  I(18)
003256: E7,1731  E7,1511               BVECTOR            EQUALS   OMEGA      +18D                       #  I(18)
003257: E7,1731  E7,1533               DELTAQ             EQUALS   BVECTOR    +18D                       #  I(2)
003258:                                                                                                  #           AOTMARK STORAGE                                              (3D)
003259:
003260: E7,1731  E7,1535               MARKCNTR           EQUALS   DELTAQ     +2                         #  I(1)
003261: E7,1731  E7,1536               XYMARK             EQUALS   MARKCNTR   +1                         #  B(1)
003262: E7,1731  E7,1537               MKDEX              EQUALS   XYMARK     +1                         #  B(1)TMP INDEX FOR AOTMARK
003263:
003264:
003265:                                                                                                  #           PLANET STORAGE.                                              (8D)
003266:
003267: E7,1731  E7,1540               PLANVEC            EQUALS   MKDEX      +1                         #  (6) REFER VECTOR OF PLANET
003268: E7,1731  E7,1546               TSIGHT             EQUALS   PLANVEC    +6                         #  (2) TIME OF MARK OR EST TIME OF MARK
003269:
003270:
003271:
003272:                                                                                                  #           LRS22.3 STORAGE. (CAN SHARE WITH P30'S AND OVERLAY LRS24.1   (30D).
003273:
003274: E7,1731  E7,1662               LGRET              EQUALS   INCORPEX   +1                         #  I(1) TMP
003275: E7,1731  E7,1662               RDRET              EQUALS   LGRET                                 #  B(1)  TEMP RETURN.
003276: E7,1731  E7,1662               IGRET              EQUALS   RDRET                                 #  B(1)  TEMP RETURN.
003277: E7,1731  E7,1663               MX                 EQUALS   RDRET      +1                         #  I(6)
003278: E7,1731  E7,1671               MY                 EQUALS   MX         +6                         #  I(6)
003279: E7,1731  E7,1677               MZ                 EQUALS   MY         +6                         #  I(6)
003280: E7,1731  E7,1663               E0                 EQUALS   MX                                    #  I(2)
003281: E7,1731  E7,1665               E1                 EQUALS   MX         +2                         #  I(2)
003282: E7,1731  E7,1667               E2                 EQUALS   MX         +4                         #  I(2)
003283: E7,1731  E7,1671               E3                 EQUALS   E2         +2                         #  I(2)
003284: E7,1731  E7,1705               SCALSHFT           EQUALS   MZ         +6                         #  B(1) SCALE SHIFT FOR EARTH/MOON
003285: E7,1731  E7,1706               RXZ                EQUALS   SCALSHFT   +1                         #  I(2)
003286: E7,1731  E7,1710               ULC                EQUALS   RXZ        +2                         #  I(6)
003287: E7,1731  E7,1716               SINTHETA           EQUALS   ULC        +6                         #  I(2)
003288:
003289:                                                                                                  #      ***** IN OVERLAY ONE *****
003290:
003291: E7,1731  E7,1732               N49FLAG            EQUALS   LRS22.1X                              #  B(1)S    FLAG INDICATING V0649 RESPONSE
003292:
003293:
003294:                                                                                                  #           LRS22.1 STORAGE. (MUST NOT SHARE WITH P30'S)                 (13D)
003295:
003296:                                                                                                  #           (OUTPUTS ARE TO LRS22.3)
003297:
003298: E7,1731  E7,1720               RDOTM              EQUALS   SINTHETA   +2                         #  B(2)OUT  RANGE-RATE READING
003299: E7,1731  E7,1722               RRTRUN             EQUALS   RDOTM      +2                         #  B(2)OUT  RR TRUNION ANGLE
003300: E7,1731  E7,1724               RRSHAFT            EQUALS   RRTRUN     +2                         #  B(2)OUT RRSHAFT ANGLE
003301:                                                                                                  #           RETAIN THE ORDER OF MKTIME TO RM FOR DOWNLINK PURPOSES
003302: E7,1731  E7,1726               MKTIME             EQUALS   RRSHAFT    +2                         #  B(2)OUT  TIME OF RR READING
003303: E7,1731  E7,1730               RM                 EQUALS   MKTIME     +2                         #  I(2)OUT  RANGE READING
003304: E7,1731  E7,1732               LRS22.1X           EQUALS   RM         +2                         #  B(1)TMP
003305: E7,1731  E7,1733               RRBORSIT           EQUALS   LRS22.1X   +1                         #  I(6) TMP RADAR BORESIGHT VECTOR.
003306: E7,1731  E7,1741               RDOTMSAV           EQUALS   RRBORSIT   +6                         #  B(2) S    RR RANGE-RATE(FPS)
003307:
003308:
003309:                                                                                                  #           LRS22.1  (SAME AS PREVIOUS SECTION) ALSO DOWNLINK FOR RR  (R29)(8D) CANNOT SHARE WITH L.A.D.
003310:
003311: E7,1731  E7,1743               TANGNB             EQUALS   RDOTMSAV   +2                         #  B(2)TMP  RR GIMBAL ANGLES
003312:
003313:
003314:
003315:
003316:                                                                                                  #           P21 STORAGE                                                  (2D)
003317:
003318: E7,1731  E7,1745               P21TIME            EQUALS   TANGNB     +2                         #  I(2)TMP
003319:
003320:
003321:                                                                                                  #           KALCMANU, VECPOINT STORAGE.  CALLED BY R63, R61, R65.         (12D)
003322:
003323: E7,1731     1247               SCAXIS             EQUALS   /AF/
003324: E7,1731     1255               POINTVSM           EQUALS   SCAXIS     +6                         #  I(6)
003325:
003326:
003327:                                                                                                  #  *******  OVERLAY NUMBER 3 IN EBANK 7  *******
003328:
003329:
003330:                                                                                                  #           BURN PROG STORAGE.                                           (2D)
003331:
003332: E7,1731  E7,1456               SAVET-30           EQUALS   E7OVERLA                              #  B(2)TMP TIG-30 RESTART
003333:
003334:
003335:                                                                                                  #           CROSS-PRODUCT STEERING ACTUAL                                (6D)
003336: E7,1731  E7,1460               UASTEER            EQUALS   SAVET-30   +2
003337: E7,1731  E7,1763               UDSTEER            EQUALS   LASTLADW   +3
003338: E7,1731  E7,1771               S40EXIT            =        UDSTEER    +6
003339: E7,1731  E7,1772               VGBODY             =        S40EXIT    +1                         #  B(6)OUT SET.BY S41.1 VG LEM, SC.COORDS
003340: E7,1731  E7,1772               DELVCTL            =        VGBODY
003341:
003342:                                                                                                  #           SERVICER STORAGE.                                            (69D)
003343:
003344: E7,1731  E7,1466               DVTOTAL            EQUALS   UASTEER    +6                         #  B(2) DISPLAY NOUN
003345: E7,1731  E7,1470               ABDVCONV           EQUALS   DVTOTAL    +2                         #  I(2)
003346: E7,1731  E7,1472               DVCNTR             EQUALS   ABDVCONV   +2                         #  B(1)
003347: E7,1731  E7,1473               TGO                EQUALS   DVCNTR     +1                         #  B(2)
003348: E7,1731  E7,1475               R                  EQUALS   TGO        +2                         #  I(6)
003349: E7,1731  E7,1475               UNITGOBL           EQUALS   R                                     #  I(6)
003350: E7,1731  E7,1503               V                  EQUALS   R          +6
003351: E7,1731  E7,1503               DELVREF            EQUALS   V                                     #  I(6)
003352: E7,1731  E7,1511               HCALC              EQUALS   DELVREF    +6                         #  B(2)     LR
003353:
003354: E7,1731  E7,1513               ABVELINT           EQUALS   HCALC      +2                         #  B(2)
003355: E7,1731  E7,1515               ABVEL              EQUALS   ABVELINT   +2                         #  B(2) DISPLAY
003356: E7,1731  E7,1517               HDOTDISP           EQUALS   ABVEL      +2                         #  B(2) DISPLAY
003357: E7,1731  E7,1521               TTFDISP            EQUALS   HDOTDISP   +2                         #  B(2) DISPLAY
003358:
003359:
003360: E7,1731  E7,1523               UNIT/R/            EQUALS   TTFDISP    +2                         #  I(6)
003361:                                                                                                  #           (THE FOLLOWING SERVICER ERASABLES CAN BE SHARED WITH SECOND DPS GUIDANCE STORAGE)
003362:
003363: E7,1731  E7,1531               RN1                EQUALS   UNIT/R/    +6                         #  B(6)
003364: E7,1731  E7,1537               VN1                EQUALS   RN1        +6                         #  I(6)                      (IN ORDER  )
003365: E7,1731  E7,1545               PIPTIME1           EQUALS   VN1        +6                         #  B(2)                      (   FOR    )
003366: E7,1731  E7,1547               GDT1/2             EQUALS   PIPTIME1   +2                         #  I(6)                      (  COPY    )
003367: E7,1731  E7,1555               MASS1              EQUALS   GDT1/2     +6                         #  I(2)                      (  CYCLE   )
003368: E7,1731  E7,1557               R1S                EQUALS   MASS1      +2                         #  I(6)
003369: E7,1731  E7,1565               V1S                EQUALS   R1S        +6                         #  I(6)
003370:
003371:                                                                                                  #           ALIGNMENT/S40.2.3 COMMON STORAGE.                            (18D)
003372:
003373: E7,1731  E7,1573               XSMD               EQUALS   V1S        +6                         #  I(6)
003374: E7,1731  E7,1601               YSMD               EQUALS   XSMD       +6                         #  I(6)
003375: E7,1731  E7,1607               ZSMD               EQUALS   YSMD       +6                         #  I(6)
003376:
003377: E7,1731  E7,1573               XSCREF             =        XSMD
003378: E7,1731  E7,1601               YSCREF             =        YSMD
003379:
003380: E7,1731  E7,1607               ZSCREF             =        ZSMD
003381:
003382: E7,1731  E7,1615               END-ALIG           EQUALS   ZSMD       +6                         #  NEXT AVAIL ERASABLE AFTER ALIGN/S40.2,3
003383:
003384:                                                                                                  #  *******  OVERLAY NUMBER 4 IN EBANK 7  *******
003385:
003386:
003387:                                                                                                  #           AUTO-OPTICS STORAGE.  -R52-                                  (1)
003388:
003389: E7,1731  E7,1456               XNB1               =        WHOCARES                              #  THESE WHOCARES THINGS ARE REFERENCED.
003390: E7,1731  E7,1456               YNB1               =        WHOCARES                              #  BUT NOT USED IN SUNDANCE
003391: E7,1731  E7,1456               ZNB1               =        WHOCARES
003392:
003393:
003394:                                                                                                  #  VARIABLES FOR SECOND DPS GUIDANCE (THE LUNAR LANDING)                 (84D)
003395:
003396:                                                                                                  #  THESE ERASABLES MAY BE SHARED WITH CARE
003397:
003398: E7,1731  E7,1531               OURTEMPS           =        RN1                                   #  OVERLAY LAST PART OF SERVICER
003399: E7,1731  E7,1531               RGU                =        OURTEMPS                              #  I(6)    GUIDANCE
003400: E7,1731  E7,1540               LANDTEMP           =        OURTEMPS   +7                         #  B(6)     GUIDANCE
003401: E7,1731  E7,1546               TTF/8TMP           =        LANDTEMP   +6                         #  B(2)    GUIDANCE
003402: E7,1731  E7,1550               TABLTTF            =        TTF/8TMP   +2                         #  B(2)    GUIDANCE
003403: E7,1731  E7,1550               FCODD              =        TABLTTF                               #  B(2)    THROTTLE
003404: E7,1731  E7,1552               FP                 =        FCODD      +2                         #  B(2)    THROTTLE
003405: E7,1731  E7,1561               TPIPOLD            =        TABLTTF    +9D                        #  B(2)    GUIDANCE
003406: E7,1731  E7,1563               AZINCR             =        TPIPOLD    +2                         #  B(2)    GUIDANCE
003407: E7,1731  E7,1565               ELINCR             =        AZINCR     +2                         #  B(2)    GUIDANCE
003408: E7,1731  E7,1567               KEEP-2             =        ELINCR     +2                         #  B(2)    TO PREVENT PIPTIME1 OVERLAY
003409: E7,1731  E7,1567               /AFC/              =        TPIPOLD    +6                         #  B(2)    GUIDANCE AND  THROTTLE
003410: E7,1731  E7,1571               ANGTERM            =        /AFC/      +2                         #  I(6) GUIDANCE
003411: E7,1731  E7,1573               GOBLTIME           =        ANGTERM    +2                         #  B(2) NOMINAL TIG FOR CALC. OF GOBLATE.
003412:
003413:
003414: E7,1731  E7,1606               E2DPS              EQUALS   OURPERMS
003415:
003416:
003417:
003418:                                                                                                  #  THESE ERASABLES MUST NOT OVERLAY GOBLTIME OR SERVICER
003419: E7,1731  E7,1577               PIFPSET            =        GOBLTIME   +4                         #  B(1)    THROTTLE
003420: E7,1731  E7,1600               RTNHOLD            =        PIFPSET    +1                         #  B(1)    THROTTLE
003421: E7,1731  E7,1601               FWEIGHT            =        RTNHOLD    +1                         #  B(2)    THROTTLE
003422: E7,1731  E7,1603               PSEUDO55           =        FWEIGHT    +2                         #  B(1)   THROTTLE DOWNLINK
003423: E7,1731  E7,1604               TTHROT             =        PSEUDO55   +1                         #  B(1)    THROTTLE
003424:
003425:
003426:
003427:                                                                                                  #  THESE ERASABLES SHOULD NOT BE SHARED DURING P63, P64, P65, P66, P67
003428:
003429: E7,1731  E7,1537               WCHPHOLD           =        VN1                                   #  B(1)    GUIDANCE
003430:
003431: E7,1731  E7,1606               OURPERMS           =        TTHROT     +2                         #  MUSTN'T OVERLAY OURTEMPS OR SERVICER
003432: E7,1731  E7,1606               WCHPHASE           =        OURPERMS                              #  B(1)    GUIDANCE
003433: E7,1731  E7,1607               FLPASS0            =        WCHPHASE   +1                         #  B(1)    GUIDANCE
003434: E7,1731  E7,1610               TARGTDEX           =        FLPASS0    +1                         #  B(1)    GUIDANCE
003435: E7,1731  E7,1611               TPIP               =        TARGTDEX   +1                         #  B(2)
003436: E7,1731  E7,1613               VGU                =        TPIP       +2                         #  B(6)    GUIDANCE
003437: E7,1731  E7,1621               WM                 =        VGU        +6                         #  I(6) TMP - LUNAR ROTATION VECTOR (SM)
003438: E7,1731  E7,1627               LAND               =        WM         +6                         #  B(6)    GUIDANCE    CONTIGUOUS
003439: E7,1731  E7,1635               TTF/8              =        LAND       +6                         #  B(2)    GUIDANCE     CONTIGUOUS
003440: E7,1731  E7,1637               ACG                =        TTF/8      +2                         #  I(6) GUIDANCE
003441: E7,1731  E7,1645               JLING              =        ACG        +6                         #  I(6) GUIDANCE
003442: E7,1731  E7,1653               ELINCR1            =        JLING      +6                         #  B(1)    GUIDANCE
003443: E7,1731  E7,1654               AZINCR1            =        ELINCR1    +1                         #  B(1)     GUIDANCE
003444: E7,1731  E7,1655               ZERLINA            =        AZINCR1    +1                         #  B(1)     GUIDANCE
003445: E7,1731  E7,1656               ELVIRA             =        ZERLINA    +1                         #  B(1)     GUIDANCE
003446: E7,1731  E7,1657               FCOLD              =        ELVIRA     +1                         #  B(1)    THROTTLE
003447: E7,1731  E7,1660               LRADRET            =        FCOLD      +1                         #  B(1)    LR
003448: E7,1731  E7,1661               VSELECT            =        LRADRET    +1                         #  B(1)    LR
003449: E7,1731  E7,1662               HBEAMNB            =        VSELECT    +1                         #  I(6) LANDING RADAR
003450: E7,1731  E7,1670               VMEAS              =        HBEAMNB    +6                         #  B(2)    LR
003451: E7,1731  E7,1672               HMEAS              =        VMEAS      +2                         #  B(2)    LR
003452: E7,1731  E7,1674               VN2                =        HMEAS      +2                         #  B(6)    LR
003453: E7,1731  E7,1674               GNUR               =        VN2                                   #  B(6)     LR
003454: E7,1731  E7,1674               GNUV               =        VN2                                   #  B(6)     LR
003455: E7,1731  E7,1674               LRADRET1           =        VN2                                   #  B(1)     LR
003456: E7,1731  E7,1702               FUNNYDSP           =        VN2        +6                         #  B(2)    DISPLAY
003457: E7,1731  E7,1704               VHORIZ             =        FUNNYDSP   +2                         #  I(2) DISPLAY
003458: E7,1731  E7,1706               EOURPERM           EQUALS   VHORIZ     +2                         #  NEXT AVAILABLE ERASABLE AFTER OURPERMS
003459:
003460:
003461:                                                                                                  #  (ERASABLES WHICH OVERLAY THE ABOVE BLOCK)
003462:
003463: E7,1731  E7,1653               VDGVERT            =        ELINCR1                               #  B(2)    P65,66
003464: E7,1731  E7,1655               NIGNLOOP           =        ZERLINA                               #  B(1)    IGNALG
003465: E7,1731  E7,1656               NGUIDSUB           =        ELVIRA                                #  B(1)    IGNALG
003466: E7,1731  E7,1655               RODCOUNT           =        ZERLINA                               #  B(1)    P66
003467: E7,1731  E7,1656               WCHVERT            =        ELVIRA                                #  B(1)    P65,66,67
003468: E7,1731  E7,1702               FUELNEED           =        FUNNYDSP                              #  B(1)    DISPLAY
003469: E7,1731  E7,1702               TREDES             =        FUNNYDSP                              #  B(1)    DISPLAY
003470: E7,1731  E7,1703               LOOKANGL           =        FUNNYDSP   +1                         #  B(1)    DISPLAY
003471:
003472:
003473:                                                                                                  #  ERASABLES CONVENIENTLY DEFINABLE IN THE WORK AREA
003474:
003475: E7,1731                        PROJ               =        18D                                   #  I(2)    GUIDANCE
003476: E7,1731                        UNLRB/2            =        20D                                   #  I(6)    GUIDANCE (DURING P64 ONLY)
003477: E7,1731                        UNLR/2             =        20D                                   #  I(6)    GUIDANCE
003478:
003479:
003480:                                                                                                  #  THE END OF THE LUNAR LANDING ERASABLES
003481:
003482:
003483:
003484:                                                                                                  #           R12    (FOR LUNAR LANDING)                                   (6D)
003485:
003486: E7,1731     0156               LRLCTR             EQUALS   MPAC       +2                         #  B(1) LR DATA TEST
003487: E7,1731     0156               LRRCTR             EQUALS   MPAC       +2                         #  B(1)
003488: E7,1731     0156               LRMCTR             EQUALS   MPAC       +2                         #  B(1)
003489: E7,1731     0156               LRSCTR             EQUALS   MPAC       +2                         #  B(1)
003490:
003491:
003492:
003493:                                                                                                  #           LANDING ANALOGS DISPLAY STORAGE.                             (40D)
003494:
003495: E7,1731  E7,1706               UHYP               EQUALS   RXZ                                   #  B(6)PRM SM UNIT VECTOR
003496: E7,1731  E7,1714               UHZP               EQUALS   UHYP       +6                         #  B(6)PRM SM UNIT VECTOR
003497: E7,1731  E7,1722               VHY                EQUALS   UHZP       +6                         #  B(1)PRM VHY=VMP.UHYP   (AN ORDER)
003498: E7,1731  E7,1723               VHZ                EQUALS   VHY        +1                         #  B(1)PRM VHZ=VMP.UHZP   (-ED PAIR)
003499: E7,1731  E7,1724               DELVS              EQUALS   VHZ        +1                         #  B(6)PRM DELVS = WMXR
003500: E7,1731  E7,1732               VVECT              EQUALS   DELVS      +6                         #  B(3)PRM UPDATED S.P. VELOCITY VECTOR
003501: E7,1731  E7,1735               ALTBITS            EQUALS   VVECT      +3                         #  B(2)PRM ALTITUDE IN BIT UNITS, 2.34FT/BT
003502: E7,1731  E7,1737               RUNIT              EQUALS   ALTBITS    +2                         #  B(3)PRM SM HALF-UNIT R VECTOR
003503: E7,1731  E7,1745               LATVMETR           EQUALS   RUNIT      +6                         #  B(1)PRM LATVEL MONITOR METER  (AN ORDER)
003504: E7,1731  E7,1746               FORVMETR           EQUALS   LATVMETR   +1                         #  B(1)PRM FORVEL MONITOR METER  (-ED PAIR)
003505: E7,1731  E7,1747               ALTRATE            EQUALS   FORVMETR   +1                         #  B(1)PRM ALTITUDE RATE IN BIT UNITS
003506: E7,1731  E7,1750               LATVEL             EQUALS   ALTRATE    +1                         #  B(1)PRM LATERAL VELOCITY   (AN ORDER)
003507: E7,1731  E7,1751               FORVEL             EQUALS   LATVEL     +1                         #  B(1)PRM FORWARD VELOCITY   (-ED PAIR)
003508: E7,1731  E7,1752               TRAKLATV           EQUALS   FORVEL     +1                         #  B(1)PRM MONITOR FLG 4 LATVEL  (AN ORDER)
003509: E7,1731  E7,1753               TRAKFWDV           EQUALS   TRAKLATV   +1                         #  B(1)PRM MONIT. FLAG FOR FORVEL (ED PAIR)
003510: E7,1731  E7,1754               ALTSAVE            EQUALS   TRAKFWDV   +1                         #  B(2)PRM ALTITUDE IN BIT UNITS
003511: E7,1731  E7,1756               LADQSAVE           EQUALS   ALTSAVE    +2                         #  B(1)PRM SAVE Q IN LANDISP
003512: E7,1731  E7,1757               DALTRATE           EQUALS   LADQSAVE   +1                         #  B(1)PRM ALTITUDE RATE ERROR CORRECTION
003513: E7,1731  E7,1760               DT                 EQUALS   DALTRATE   +1                         #  B(1)PRM TIME 1 MINUS (PIPTIME +1)
003514: E7,1731  E7,1760               LASTLADW           EQUALS   DT                                    #  ONLY A TAG TO SIGNIFY LAST L.A.D. WORD
003515:
003516:
003517:                                                                                                  #  *******  OVERLAY NUMBER 5 IN EBANK 7  *******
003518:
003519:
003520:
003521:                                                                                                  #           ASCENT GUIDANCE ERASABLES.                                   (23D)
003522:
003523: E7,1731  E7,1615               RCO                EQUALS   END-ALIG                              #  I(2)TMP  TARGET RADIUS AND OUT-OF-PLANE
003524: E7,1731  E7,1617               YCO                EQUALS   RCO        +2                         #  I(2)TMP  DISTANCE, SCALED AT 2(24).
003525: E7,1731  E7,1621               RDOTD              EQUALS   YCO        +2                         #  I(2)TMP  TARGET VELOCITY COMPONENTS
003526: E7,1731  E7,1623               YDOTD              EQUALS   RDOTD      +2                         #  I(2)TMP SCALING IS 2(7)M/CS.
003527: E7,1731  E7,1625               ZDOTD              EQUALS   YDOTD      +2                         #  I(2)TMP
003528: E7,1731  E7,1627               XRANGE             EQUALS   ZDOTD      +2                         #  B(2)TMP
003529: E7,1731  E7,1631               APO                EQUALS   XRANGE     +2                         #  B(2)TMP  APOLUNE ALTITUDE DESIRED - M.
003530:                                                                                                  #           SCALED AT 2(2().
003531: E7,1731  E7,1633               AT                 EQUALS   APO        +2                         #  I(2)TMP  ENGINE DATA -- THRUST ACC.*2(9)
003532: E7,1731  E7,1635               VE                 EQUALS   AT         +2                         #  I(2)TMP  EXHAUST VELOCITY * 2(7)M/CS.
003533: E7,1731  E7,1637               TTO                EQUALS   VE         +2                         #  I(2)TMP  TAILOFF TIME * 2(17)CS.
003534: E7,1731  E7,1641               TBUP               EQUALS   TTO        +2                         #  I(2)TMP  (M/MDOT) * 2(17)CS.
003535: E7,1731  E7,1643               1/DV1              EQUALS   TBUP       +2                         #  B(2)TMP  ATMAG
003536: E7,1731  E7,1645               1/DV2              EQUALS   1/DV1      +2                         #  B(2)TMP  ATMAG
003537: E7,1731  E7,1647               1/DV3              EQUALS   1/DV2      +2                         #  B(2)TMP  ATMAG
003538: E7,1731  E7,1651               QAXIS              EQUALS   1/DV3      +2                         #  B(6)
003539: E7,1731  E7,1657               /R/MAG             EQUALS   QAXIS      +6                         #  I(2)TMP
003540: E7,1731  E7,1661               LAXIS              EQUALS   /R/MAG     +2                         #  I(6)TMP
003541: E7,1731  E7,1667               ZAXIS1             EQUALS   LAXIS      +6                         #  I(6)TMP  SYSTEM (R,L,Z).
003542: E7,1731  E7,1675               RDOT               EQUALS   ZAXIS1     +6                         #  I(2)TMP  RADIAL RATE *2 (-7).
003543: E7,1731  E7,1677               YDOT               EQUALS   RDOT       +2                         #  I(2)TMP  VEL. NORMAL TO REF. PLANE*2(-7)
003544: E7,1731  E7,1701               ZDOT               EQUALS   YDOT       +2                         #  I(2)TMP  DOWN RANGE VEL *2(-7).
003545: E7,1731  E7,1703               GEFF               EQUALS   ZDOT       +2                         #  I(2)TMP  EFFECTIVE GRAVITY
003546: E7,1731  E7,1705               Y                  EQUALS   GEFF       +2                         #  I(2)TMP  OUT-OF-PLANE DIST *2(24)M
003547: E7,1731  E7,1707               DRDOT              EQUALS   Y          +2                         #  I(2)TMP  RDOTD - RDOT
003548: E7,1731  E7,1711               DYDOT              EQUALS   DRDOT      +2                         #  I(2)TMP  YDOTD - YDOT
003549: E7,1731  E7,1713               DZDOT              EQUALS   DYDOT      +2                         #  I(2)TMP  ZDOTD - ZDOT
003550: E7,1731  E7,1715               PCONS              EQUALS   DZDOT      +2                         #  I(2)TMP  CONSTANT IN ATR EQUATION
003551: E7,1731  E7,1717               YCONS              EQUALS   PCONS      +2                         #  I(2)TMP  CONSTANT IN ATY EQUATION
003552: E7,1731  E7,1721               PRATE              EQUALS   YCONS      +2                         #  I(2)TMP  RATE COEFF. IN ATR EQUATION
003553: E7,1731  E7,1723               YRATE              EQUALS   PRATE      +2                         #  I(2)TMP  RATE COEFF. IN ATY EQUATION
003554: E7,1731  E7,1731               ATY                EQUALS   YRATE      +6                         #  I(2)TMP  OUT-OF-PLANE THRUST COMP.*2(9)
003555: E7,1731  E7,1733               ATR                EQUALS   ATY        +2                         #  I(2)TMP  RADIAL THRUST COMP.*2(9)
003556: E7,1731  E7,1735               ATP                EQUALS   ATR        +2                         #  I(2)TMP  DOWN-RANGE THRUST COMP
003557: E7,1731  E7,1737               YAW                EQUALS   ATP        +2                         #  I(2)TMP
003558: E7,1731  E7,1741               PITCH              EQUALS   YAW        +2                         #  I(2)RMP
003559: E7,1731  E7,1743               ENGOFFDT           EQUALS   PITCH      +2                         #  B(1)TMP PROTECTION OFENGOFF1 CALL
003560: E7,1731  E7,1744               VGVECT             EQUALS   ENGOFFDT   +1                         #  I(6)OUT  VELOCITY-TO-BE-GAINED
003561: E7,1731  E7,1752               TXO                EQUALS   VGVECT     +6                         #  I(2)TMP  TIME AT WHICH X-AXIS OVERRIDE
003562:
003563:                                                                                                  #  END OF THE ASCENT GUIDANCE ERASABLES.
003564:
003565:                                                                                                  #  P10-P11 ERASABLES.
003566: E7,1731  E7,1426               P1XTMIN            EQUALS   TTOGO
003567: E7,1731  E7,1662               P1XITCNT           EQUALS   INCORPEX   +1
003568: E7,1731  E7,1663               RCSMINT            =        P1XITCNT   +1
003569: E7,1731  E7,1671               P1XDELTT           =        RCSMINT    +6
003570: E7,1731  E7,1673               TCSITPF            =        P1XDELTT   +2
003571: E7,1731  E7,1675               RLSBRCS            =        TCSITPF    +2
003572: E7,1731  E7,1703               RLEMT2             =        RLSBRCS    +6
003573: E7,1731  E7,1705               VCSMINT            =        RLEMT2     +2
003574: E7,1731  E7,1713               INJANGLE           =        VCSMINT    +6
003575: E7,1731  E7,1715               INJALT             =        INJANGLE   +2
003576: E7,1731  E7,1717               P1XVVER            =        INJALT     +2
003577: E7,1731  E7,1721               P1XVHOR            =        P1XVVER    +2
003578: E7,1731  E7,1723               RP1XROT            =        P1XVHOR    +2
003579: E7,1731  E7,1731               VP1XROT            =        RP1XROT    +6
003580: E7,1731  E7,1737               P1XMAX             =        VP1XROT    +6
003581: E7,1731  E7,1741               TPITIME            =        P1XMAX     +2
003582: E7,1731  E7,1743               INJTIME            =        TPITIME    +2
003583: E7,1731  E7,1745               CDHDELH            =        INJTIME    +2
003584: E7,1731  E7,1747               ULVEC              =        CDHDELH    +2
003585: E7,1731  E7,1755               P1XDT              =        ULVEC      +6
003586: E7,1731  E7,1757               TPIANGLE           =        P1XDT      +2
003587: E7,1731  E7,1761               UNVEC2             =        TPIANGLE   +2
003588: E7,1731  E7,1767               P11VTPF            =        UNVEC2     +6
003589:
003590:                                                                                                  #           VARIOUS DISPLAY REGISTERS.  BALLANGS                         (3D)
003591:
003592: E7,1731  E7,1775               FDAIX              EQUALS   VGBODY     +3                         #  I(1)
003593: E7,1731  E7,1776               FDAIY              =        FDAIX      +1                         #  I(1)
003594: E7,1731  E7,1777               FDAIZ              =        FDAIY      +1                         #  I(1)
003595:
003596:
003597:                                                                                                  #  THE FOLLOWING CARDS KEEP THE ASSEMBLER HAPPY UNTIL THE SYMBOLS ARE DELETED FROM THE PINBALL NOUN TABLES.
003598:
003599: E7,1731  0000007               CPHIXATT           EQUALS   SPARE
003600:
003601: E7,1731  E7,1731               CURSOR             EQUALS   END-E7.0
003602: E7,1731  E7,1731               SPIRAL             EQUALS   END-E7.0
003603: E7,1731  E7,1731               POSCODE            EQUALS   END-E7.0
003604:
003605: E7,1731  E7,1731               LANDLAT            EQUALS   END-E7.0
003606: E7,1731  E7,1731               LANDLONG           EQUALS   END-E7.0
003607: E7,1731  E7,1731               LANDALT            EQUALS   END-E7.0
003608:
003609: E7,1731  E7,1731               END-E7.0           EQUALS   IRETURN1   +1                         #  FIRST UNUSED LOCATION IN E7 OVERLAY 0
003610: E7,1731  E7,1733               END-E7.1           EQUALS   N49FLAG    +1                         #  FIRST UNUSED LOCATION IN E7 OVERLAY 1
003611: E7,1731  E7,1747               END-E7.2           EQUALS   P21TIME    +2                         #  FIRST UNUSED LOCATION IN E7 OVERLAY 2
003612: E7,1731  E7,1771               END-E7.3           EQUALS   P11VTPF    +2                         #  FIRST UNUSED LOCATION IN E7 OVERLAY 3
003613: E7,1731     4000               END-E7.4           EQUALS   FDAIZ      +1                         #  FIRST UNUSED LOCATION IN E7 OVERLAY 4
003614: E7,1731  E7,1754               END-E7.5           EQUALS   TXO        +2                         #  FIRST UNUSED LOCATION IN E7 OVERLAY 5
003615: E7,1731                        END-E7             EQUALS   3777                                  #  **LAST LOCATION USED IN E7 **

End of include-file ERASABLE_ASSIGNMENTS.agc.  Parent file is MAIN.agc


