
Source Code


000002:                                                                                                  ## Copyright:   Public domain.
000003:                                                                                                  ## Filename:    EXECUTIVE.agc
000004:                                                                                                  ## Purpose:     A section of a reconstructed, mixed version of Sundance
000005:                                                                                                  ##              It is part of the reconstructed source code for the Lunar
000006:                                                                                                  ##              Module's (LM) Apollo Guidance Computer (AGC) for Apollo 9.
000007:                                                                                                  ##              No original listings of this program are available;
000008:                                                                                                  ##              instead, this file was created via disassembly of dumps
000009:                                                                                                  ##              of various revisions of Sundance core rope modules.
000010:                                                                                                  ## Assembler:   yaYUL
000011:                                                                                                  ## Contact:     Ron Burkey <info@sandroid.org>.
000012:                                                                                                  ## Website:     www.ibiblio.org/apollo/index.html
000013:                                                                                                  ## Mod history: 2020-06-17 MAS  Created from Luminary 69.
000014:
000015:                                                                                                  ## Sundance 292
000016:
000017:    5142                                           BLOCK    02
000018:                                                                                                  #           TO ENTER A JOB REQUEST REQUIRING NO VAC AREA:
000019:
000020:    5142                                           COUNT*   $$/EXEC
000021:    5142           00004        NOVAC              INHINT
000022:    5143           65234                           AD       FAKEPRET                              #  LOC(MPAC +6) - LOC(QPRET)
000023:    5144           54063                           TS       NEWPRIO                               #  PRIORITY OF NEW JOB + NOVAC C(FIXLOC)
000024:
000025:    5145           00006                           EXTEND
000026:    5146           50002                           INDEX    Q                                     #  Q WILL BE UNDISTURBED THROUGHOUT.
000027:    5147           30001                           DCA      0                                     #  2CADR OF JOB ENTERED.
000028:    5150           52066                           DXCH     NEWLOC
000029:    5151           35233                           CAF      EXECBANK
000030:    5152           56004                           XCH      FBANK
000031:    5153           54061                           TS       EXECTEM1
000032:    5154           12444                           TCF      NOVAC2                                #  ENTER EXECUTIVE BANK.
000033:
000034:                                                                                                  #           TO ENTER A JOB REQUEST REQUIRING A VAC AREA - E.G., ALL (PARTIALLY) INTERPRETIVE JOBS.
000035:
000036:    5155           00004        FINDVAC            INHINT
000037:    5156           54063                           TS       NEWPRIO
000038:    5157           00006                           EXTEND
000039:    5160           50002                           INDEX    Q
000040:    5161           30001                           DCA      0
000041:    5162           52066        SPVACIN            DXCH     NEWLOC
000042:    5163           35233                           CAF      EXECBANK
000043:    5164           56004                           XCH      FBANK
000044:    5165           12422                           TCF      FINDVAC2                              #  OFF TO EXECUTIVE SWITCHED-BANK.
000045:
000046:                                                                                                  #           TO ENTER A FINDVAC WITH THE PRIORITY IN NEWPRIO TO THE 2CADR ARRIVING IN A AND L:
000047:
000048:                                                                                                  #           USERS OF SPVAC MUST INHINT BEFORE STORING IN NEWPRIO.
000049:
000050:    5166           56002        SPVAC              XCH      Q
000051:    5167           67720                           AD       NEG2
000052:    5170           56002                           XCH      Q
000053:    5171           15162                           TCF      SPVACIN
000054:
000055:                                                                                                  #           TO SUSPEND A BASIC JOB SO A HIGHER PRIORITY JOB MAY BE SERVICED:
000056:
000057:    5172           22002        CHANG1             LXCH     Q
000058:    5173           35233                           CAF      EXECBANK
000059:    5174           56006                           XCH      BBANK
000060:    5175           12523                           TCF      CHANJOB
000061:
000062:                                                                                                  #           TO SUSPEND AN INTERPRETIVE JOB:
000063:
000064:    5176           40164        CHANG2             CS       LOC                                   #  NEGATIVE LOC SHOWS JOB = INTERPRETIVE.
000065:                                                                                                  #           ITRACE (4) REFERS TO "CHANG2".
000066:    5177           54001                           TS       L
000067:
000068:    5200           35233                 +2        CAF      EXECBANK
000069:    5201           54006                           TS       BBANK
000070:    5202           12522                           TCF      CHANJOB    -1
000071:
000072:                                                                                                  #           TO VOLUNTARILY SUSPEND A JOB UNTIL THE COMPLETION OF SOME ANTICIPATED EVENT (I/O EVENT ETC.):
000073:
000074:    5203           54164        JOBSLEEP           TS       LOC
000075:    5204           35233                           CAF      EXECBANK
000076:    5205           54004                           TS       FBANK
000077:    5206           12613                           TCF      JOBSLP1
000078:
000079:                                                                                                  #           TO AWAKEN A JOB PUT TO SLEEP IN THE ABOVE FASHION:
000080:
000081:    5207           00004        JOBWAKE            INHINT
000082:    5210           54065                           TS       NEWLOC
000083:    5211           45025                           CS       TWO                                   #  EXIT IS VIA FINDVAC/NOVAC PROCEDURES.
000084:    5212           26002                           ADS      Q
000085:    5213           35233                           CAF      EXECBANK
000086:    5214           56004                           XCH      FBANK
000087:    5215           12640                           TCF      JOBWAKE2
000088:
000089:                                                                                                  #           TO CHANGE THE PRIORITY OF A JOB CURRENTLY UNDER EXECUTION:
000090:
000091:    5216           00004        PRIOCHNG           INHINT                                         #  NEW PRIORITY ARRIVES IN A. RETURNS TO
000092:    5217           54063                           TS       NEWPRIO                               #  CALLER AS SOON AS NEW JOB PRIORITY IS
000093:    5220           35233                           CAF      EXECBANK                              #  HIGHEST.  PREPARE FOR POSSIBLE BASIC-
000094:    5221           56006                           XCH      BBANK                                 #  STYLE CHANGE-JOB.
000095:    5222           54165                           TS       BANKSET
000096:    5223           30002                           CA       Q
000097:    5224           12707                           TCF      PRIOCH2
000098:
000099:                                                                                                  #           TO REMOVE A JOB FROM EXECUTIVE CONSIDERATIONS:
000100:
000101:    5225           35233        ENDOFJOB           CAF      EXECBANK
000102:    5226           54004                           TS       FBANK
000103:    5227           12720                           TCF      ENDJOB1
000104:
000105:    5230           30061        ENDFIND            CA       EXECTEM1                              #  RETURN TO CALLER AFTER JOB ENTRY
000106:    5231           54004                           TS       FBANK                                 #  COMPLETE.
000107:    5232           16715                           TCF      Q+2
000108:    5233           02422        EXECBANK           CADR     FINDVAC2
000109:
000110:    5234           00110        FAKEPRET           ADRES    MPAC       -36D                       #  LOC(MPAC +6) - LOC(QPRET)
000111:
000112:                                                                                                  #           LOCATE AN AVAILABLE VAC AREA.
000113:
000114: 01,2422                                           BANK     01
000115: 01,2422                                           COUNT*   $$/EXEC
000116: 01,2422           54061        FINDVAC2           TS       EXECTEM1                              #  (SAVE CALLER'S BANK FIRST.)
000117: 01,2423           10400                           CCS      VAC1USE
000118: 01,2424           12437                           TCF      VACFOUND
000119: 01,2425           10454                           CCS      VAC2USE
000120: 01,2426           12437                           TCF      VACFOUND
000121: 01,2427           10530                           CCS      VAC3USE
000122: 01,2430           12437                           TCF      VACFOUND
000123: 01,2431           10604                           CCS      VAC4USE
000124: 01,2432           12437                           TCF      VACFOUND
000125: 01,2433           10660                           CCS      VAC5USE
000126: 01,2434           12437                           TCF      VACFOUND
000127: 01,2435           05713                           TC       ABORT
000128: 01,2436           01201                           OCT      1201                                  #  NO VAC AREAS.
000129:
000130: 01,2437           65025        VACFOUND           AD       TWO                                   #  RESERVE THIS VAC AREA BY STORING A ZERO
000131: 01,2440           22007                           ZL                                             #  IN ITS VAC USE REGISTER AND STORE THE
000132: 01,2441           50000                           INDEX    A                                     #  ADDRESS OF THE FIRST WORD OF IT IN THE
000133: 01,2442           21777                           LXCH     0          -1                         #  LOW NINE BITS OF THE PRIORITY WORD.
000134: 01,2443           26063                           ADS      NEWPRIO
000135:
000136: 01,2444           35030        NOVAC2             CAF      ZERO                                  #  NOVAC ENTERS HERE. FIND A CORE SET.
000137: 01,2445           54064                           TS       LOCCTR
000138: 01,2446           32453                           CAF      NO.CORES                              #  SEVEN SETS OF ELEVEN REGISTERS EACH.
000139: 01,2447           54062        NOVAC3             TS       EXECTEM2
000140: 01,2450           50064                           INDEX    LOCCTR
000141: 01,2451           10167                           CCS      PRIORITY                              #  EACH PRIORITY REGISTER CONTAINS -0 IF
000142: 01,2452           12513                           TCF      NEXTCORE                              #  THE CORRESPONDING CORE SET IS AVAILABLE.
000143: 01,2453           00006        NO.CORES           DEC      6          B-14
000144: 01,2454           12513                           TCF      NEXTCORE                              #  AN ACTIVE JOB HAS A POSITIVE PRIORITY
000145:                                                                                                  #  BUT A DORMANT JOB'S PRIORITY IS NEGATIVE
000146:
000147: 01,2455           30063        CORFOUND           CA       NEWPRIO                               #  SET THE PRIORITY OF THIS JOB IN THE CORE
000148: 01,2456           50064                           INDEX    LOCCTR                                #  SET'S PRIORITY REGISTER AND SET THE
000149: 01,2457           54167                           TS       PRIORITY                              #  JOB'S PUSH-DOWN POINTER AT THE BEGINNING
000150: 01,2460           75054                           MASK     LOW9                                  #  OF THE WORK AREA AND OVERFLOW INDICATOR
000151: 01,2461           50064                           INDEX    LOCCTR
000152: 01,2462           54166                           TS       PUSHLOC                               #  OFF TO PREPARE FOR INTERPRETIVE PROGRAMS
000153:
000154: 01,2463           10064                           CCS      LOCCTR                                #  IF CORE SET ZERO IS BEING LOADED, SET UP
000155: 01,2464           12500                           TCF      SETLOC                                #  OVFIND AND FIXLOC IMMEDIATELY.
000156: 01,2465           54121                           TS       OVFIND
000157: 01,2466           30166                           CA       PUSHLOC
000158: 01,2467           54120                           TS       FIXLOC
000159:
000160: 01,2470           10067        SPECTEST           CCS      NEWJOB                                #  SEE IF ANY ACTIVE JOBS WAITING (RARE).
000161: 01,2471           12500                           TCF      SETLOC                                #  MUST BE AWAKENED BUT UNCHANGED JOB.
000162: 01,2472           05723                           TC       CCSHOLE
000163: 01,2473           05723                           TC       CCSHOLE
000164: 01,2474           54067                           TS       NEWJOB                                #  +0 SHOWS ACTIVE JOB ALREADY SET.
000165: 01,2475           52066                           DXCH     NEWLOC
000166: 01,2476           52165                           DXCH     LOC
000167: 01,2477           15230                           TCF      ENDFIND
000168:
000169: 01,2500           52066        SETLOC             DXCH     NEWLOC                                #  SET UP THE LOCATION REGISTERS FOR THIS
000170: 01,2501           50064                           INDEX    LOCCTR
000171: 01,2502           52165                           DXCH     LOC
000172: 01,2503           50067                           INDEX    NEWJOB                                #  THIS INDEX INSTRUCTION INSURES THAT THE
000173: 01,2504           40167                           CS       PRIORITY                              #  HIGHEST ACTIVE PRIORITY WILL BE COMPARED
000174: 01,2505           60063                           AD       NEWPRIO                               #  WITH THE NEW PRIORITY TO SEE IF NEWJOB
000175: 01,2506           00006                           EXTEND                                         #  SHOULD BE SET TO SIGNAL A SWITCH.
000176: 01,2507           65230                           BZMF     ENDFIND
000177: 01,2510           30064                           CA       LOCCTR                                #  LOCCTR IS LEFT SET AT THIS CORE SET IF
000178: 01,2511           54067                           TS       NEWJOB                                #  THE CALLER WANTS TO LOAD ANY MPAC
000179: 01,2512           15230                           TCF      ENDFIND                               #  REGISTERS, ETC.
000180:
000181: 01,2513           32650        NEXTCORE           CAF      COREINC
000182: 01,2514           26064                           ADS      LOCCTR
000183: 01,2515           10062                           CCS      EXECTEM2
000184: 01,2516           12447                           TCF      NOVAC3
000185: 01,2517           05713                           TC       ABORT                                 #  NO CORE SETS.
000186: 01,2520           01202                           OCT      1202
000187:
000188:                                                                                                  #           THE FOLLOWING ROUTINE SWAPS CORE SET 0 WITH THAT WHOSE RELATIVE ADDRESS IS IN NEWJOB.
000189:
000190: 01,2521           22164                 -2        LXCH     LOC
000191: 01,2522           30165                 -1        CAE      BANKSET                               #  BANKSET, NOT BBANK, HAS RIGHT CONTENTS.
000192: 01,2523           00004        CHANJOB            INHINT
000193: 01,2524           00006                           EXTEND
000194: 01,2525           04007                           ROR      SUPERBNK                              #  PICK UP CURRENT SBANK FOR BBCON
000195: 01,2526           56001                           XCH      L                                     #  LOC IN A AND BBCON IN L.
000196: 01,2527           50067                 +4        INDEX    NEWJOB                                #  SWAP LOC AND BANKSET.
000197: 01,2530           52165                           DXCH     LOC
000198: 01,2531           52165                           DXCH     LOC
000199:
000200: 01,2532           30165                           CAE      BANKSET
000201: 01,2533           00006                           EXTEND
000202: 01,2534           01007                           WRITE    SUPERBNK                              #  SET SBANK FOR NEW JOB.
000203: 01,2535           52155                           DXCH     MPAC                                  #  SWAP MULTI-PURPOSE ACCUMULATOR AREAS.
000204: 01,2536           50067                           INDEX    NEWJOB
000205: 01,2537           52155                           DXCH     MPAC
000206: 01,2540           52155                           DXCH     MPAC
000207: 01,2541           52157                           DXCH     MPAC       +2
000208: 01,2542           50067                           INDEX    NEWJOB
000209: 01,2543           52157                           DXCH     MPAC       +2
000210: 01,2544           52157                           DXCH     MPAC       +2
000211: 01,2545           52161                           DXCH     MPAC       +4
000212: 01,2546           50067                           INDEX    NEWJOB
000213: 01,2547           52161                           DXCH     MPAC       +4
000214: 01,2550           52161                           DXCH     MPAC       +4
000215: 01,2551           52163                           DXCH     MPAC       +6
000216: 01,2552           50067                           INDEX    NEWJOB
000217: 01,2553           52163                           DXCH     MPAC       +6
000218: 01,2554           52163                           DXCH     MPAC       +6
000219:
000220: 01,2555           35030                           CAF      ZERO
000221: 01,2556           56121                           XCH      OVFIND                                #  MAKE PUSHLOC NEGATIVE IF OVFIND NZ.
000222: 01,2557           00006                           EXTEND
000223: 01,2560           12563                           BZF      +3
000224: 01,2561           40166                           CS       PUSHLOC
000225: 01,2562           54166                           TS       PUSHLOC
000226:
000227: 01,2563           52167                           DXCH     PUSHLOC
000228: 01,2564           50067                           INDEX    NEWJOB
000229: 01,2565           52167                           DXCH     PUSHLOC
000230: 01,2566           52167                           DXCH     PUSHLOC                               #  SWAPS PUSHLOC AND PRIORITY.
000231: 01,2567           35054                           CAF      LOW9                                  #  SET FIXLOC TO BASE OF VAC AREA.
000232: 01,2570           70167                           MASK     PRIORITY
000233: 01,2571           54120                           TS       FIXLOC
000234:
000235: 01,2572           10166                           CCS      PUSHLOC                               #  SET OVERFLOW INDICATOR ACCORDING TO
000236: 01,2573           35030                           CAF      ZERO
000237: 01,2574           12601                           TCF      ENDPRCHG   -1
000238:
000239: 01,2575           40166                           CS       PUSHLOC
000240: 01,2576           54166                           TS       PUSHLOC
000241: 01,2577           35026                           CAF      ONE
000242: 01,2600           56121                           XCH      OVFIND
000243: 01,2601           54067                           TS       NEWJOB
000244:
000245: 01,2602           00003        ENDPRCHG           RELINT
000246: 01,2603           52165                           DXCH     LOC                                   #  BASIC JOBS HAVE POSITIVE ADDRESSES, SO
000247: 01,2604           00006                           EXTEND                                         #  DISPATCH WITH A DTCB.
000248: 01,2605           62607                           BZMF     +2                                    #  IF INTERPRETIVE, SET UP EBANK, ETC.
000249: 01,2606           52006                           DTCB
000250:
000251: 01,2607           40000                           COM                                            #  EPILOGUE TO JOB CHANGE FOR INTERPRETIVE
000252: 01,2610           65026                           AD       ONE
000253: 01,2611           54164                           TS       LOC                                   #  RESUME.
000254: 01,2612           16024                           TCF      INTRSM
000255:
000256:                                                                                                  #           COMPLETE JOBSLEEP PREPARATIONS.
000257:
000258: 01,2613           00004        JOBSLP1            INHINT
000259: 01,2614           40167                           CS       PRIORITY                              #  NNZ PRIORITY SHOWS JOB ASLEEP.
000260: 01,2615           54167                           TS       PRIORITY
000261: 01,2616           36050                           CAF      LOW7
000262: 01,2617           70006                           MASK     BBANK
000263: 01,2620           00006                           EXTEND
000264: 01,2621           04007                           ROR      SUPERBNK                              #  SAVE OLD SUPERBANK VALUE.
000265: 01,2622           54165                           TS       BANKSET
000266: 01,2623           45030                           CS       ZERO
000267: 01,2624           54131        JOBSLP2            TS       BUF        +1                         #  HOLDS - HIGHEST PRIORITY.
000268: 01,2625           12735                           TCF      EJSCAN                                #  SCAN FOR HIGHEST PRIORITY ALA ENDOFJOB.
000269:
000270: 01,2626           00004        NUCHANG2           INHINT                                         #  QUICK... DONT LET NEWJOB CHANGE TO +0.
000271: 01,2627           10067                           CCS      NEWJOB
000272: 01,2630           12633                           TCF      +3                                    #  NEWJOB STILL PNZ
000273: 01,2631           00003                           RELINT                                         #  NEW JOB HAS CHANGED TO +0. WAKE UP JOB
000274: 01,2632           13027                           TCF      ADVAN      +2                         #  VIA NUDIRECT. (VERY RARE CASE.)
000275:
000276: 01,2633           35025                           CAF      TWO
000277: 01,2634           00006                           EXTEND
000278: 01,2635           05011                           WOR      DSALMOUT                              #  TURN ON ACTIVITY LIGHT
000279: 01,2636           52165                           DXCH     LOC                                   #  AND SAVE ADDRESS INFO FOR BENEFIT OF
000280: 01,2637           12527                           TCF      CHANJOB    +4                         #   POSSIBLE SLEEPING JOB.
000281:
000282:                                                                                                  #           TO WAKE UP A JOB, EACH CORE SET IS FOUND TO LOCATE ALL JOBS WHICH ARE ASLEEP. IF THE FCADR IN THE
000283:                                                                                                  #  LOC REGISTER OF ANY SUCH JOB MATCHES THAT SUPPLIED BY THE CALLER, THAT JOB IS AWAKENED. IF NO JOB IS FOUND,
000284:                                                                                                  #  LOCCTR IS SET TO -1 AND NO FURTHER ACTION TAKES PLACE.
000285:
000286: 01,2640           54061        JOBWAKE2           TS       EXECTEM1
000287: 01,2641           35030                           CAF      ZERO                                  #  BEGIN CORE SET SCAN.
000288: 01,2642           54064                           TS       LOCCTR
000289: 01,2643           32453                           CAF      NO.CORES
000290: 01,2644           54062        JOBWAKE4           TS       EXECTEM2
000291: 01,2645           50064                           INDEX    LOCCTR
000292: 01,2646           10167                           CCS      PRIORITY
000293: 01,2647           12652                           TCF      JOBWAKE3                              #  ACTIVE JOB - CHECK NEXT CORE SET.
000294: 01,2650           00014        COREINC            DEC      12         B-14                       #  12 REGISTERS PER CORE SET.
000295: 01,2651           12661                           TCF      WAKETEST                              #  SLEEPING JOB - SEE IF CADR MATCHES.
000296:
000297: 01,2652           32650        JOBWAKE3           CAF      COREINC
000298: 01,2653           26064                           ADS      LOCCTR
000299: 01,2654           10062                           CCS      EXECTEM2
000300: 01,2655           12644                           TCF      JOBWAKE4
000301: 01,2656           45026                           CS       ONE                                   #  EXIT IF SLEEPING JOB NOT FOUND.
000302: 01,2657           54064                           TS       LOCCTR
000303: 01,2660           15230                           TCF      ENDFIND
000304:
000305: 01,2661           40065        WAKETEST           CS       NEWLOC
000306: 01,2662           50064                           INDEX    LOCCTR
000307: 01,2663           60164                           AD       LOC
000308: 01,2664           00006                           EXTEND
000309: 01,2665           12667                           BZF      +2                                    #  IF MATCH.
000310: 01,2666           12652                           TCF      JOBWAKE3                              #  EXAMINE NEXT CORE SET IF NO MATCH.
000311:
000312: 01,2667           50064                           INDEX    LOCCTR                                #  RE-COMPLEMENT PRIORITY TO SHOW JOB AWAKE
000313: 01,2670           40167                           CS       PRIORITY
000314: 01,2671           54063                           TS       NEWPRIO
000315: 01,2672           50064                           INDEX    LOCCTR
000316: 01,2673           54167                           TS       PRIORITY
000317:
000318: 01,2674           44362                           CS       FBANKMSK                              #  MAKE UP THE 2CADR OF THE WAKE ADDRESS
000319: 01,2675           70065                           MASK     NEWLOC                                #  USING THE CADR IN NEWLOC AND THE EBANK
000320: 01,2676           65014                           AD       2K                                    #  HALF OF BBANK SAVED IN BANKSET.
000321: 01,2677           56065                           XCH      NEWLOC
000322: 01,2700           74362                           MASK     FBANKMSK
000323: 01,2701           50064                           INDEX    LOCCTR
000324: 01,2702           60165                           AD       BANKSET
000325: 01,2703           54066                           TS       NEWLOC     +1
000326:
000327: 01,2704           10064                           CCS      LOCCTR                                #  SPECIAL TREATMENT IF THIS JOB WAS
000328: 01,2705           12500                           TCF      SETLOC                                #  ALREADY IN THE RUN (0) POSITION.
000329: 01,2706           12470                           TCF      SPECTEST
000330:
000331:                                                                                                  #           PRIORITY CHANGE.  CHANGE THE CONTENTS OF PRIORITY AND SCAN FOR THE JOB OF HIGHEST PRIORITY.
000332:
000333: 01,2707           54164        PRIOCH2            TS       LOC
000334: 01,2710           35030                           CAF      ZERO                                  #  SET FLAG TO TELL ENDJOB SCANNER IF THIS
000335: 01,2711           54130                           TS       BUF                                   #  JOB IS STILL HIGHEST PRIORITY.
000336: 01,2712           35054                           CAF      LOW9
000337: 01,2713           70167                           MASK     PRIORITY
000338: 01,2714           60063                           AD       NEWPRIO
000339: 01,2715           54167                           TS       PRIORITY
000340: 01,2716           40000                           COM
000341: 01,2717           12624                           TCF      JOBSLP2                               #  AND TO EJSCAN.
000342:
000343:                                                                                                  #           RELEASE THIS CORE SET AND VAC AREA AND SCAN FOR THE JOB OF HIGHEST ACTIVE PRIORITY.
000344:
000345: 01,2720           00004        ENDJOB1            INHINT
000346: 01,2721           45030                           CS       ZERO
000347: 01,2722           54131                           TS       BUF        +1
000348: 01,2723           56167                           XCH      PRIORITY
000349: 01,2724           75054                           MASK     LOW9
000350: 01,2725           54001                           TS       L
000351:
000352: 01,2726           45234                           CS       FAKEPRET
000353: 01,2727           60001                           AD       L
000354:
000355: 01,2730           00006                           EXTEND
000356: 01,2731           62735                           BZMF     EJSCAN                                #  NOVAC ENDOFJOB
000357:
000358: 01,2732           10001                           CCS      L
000359: 01,2733           50000                           INDEX    A
000360: 01,2734           54000                           TS       0
000361:
000362: 01,2735           10203        EJSCAN             CCS      PRIORITY   +12D
000363: 01,2736           03002                           TC       EJ1
000364: 01,2737           05723                           TC       CCSHOLE
000365: 01,2740           12741                           TCF      +1
000366:
000367: 01,2741           10217                           CCS      PRIORITY   +24D                       #  EXAMINE EACH PRIORITY REGISTER TO FIND
000368: 01,2742           03002                           TC       EJ1                                   #  THE JOB OF HIGHEST ACTIVE PRIORITY.
000369: 01,2743           05723                           TC       CCSHOLE
000370: 01,2744           12745                           TCF      +1
000371:
000372: 01,2745           10233                           CCS      PRIORITY   +36D
000373: 01,2746           03002                           TC       EJ1
000374: 01,2747           67610        -CCSPR             -CCS     PRIORITY
000375: 01,2750           12751                           TCF      +1
000376:
000377: 01,2751           10247                           CCS      PRIORITY   +48D
000378: 01,2752           03002                           TC       EJ1
000379: 01,2753           05723                           TC       CCSHOLE
000380: 01,2754           12755                           TCF      +1
000381:
000382: 01,2755           10263                           CCS      PRIORITY   +60D
000383: 01,2756           03002                           TC       EJ1
000384: 01,2757           05723                           TC       CCSHOLE
000385: 01,2760           12761                           TCF      +1
000386:
000387: 01,2761           10277                           CCS      PRIORITY   +72D
000388: 01,2762           03002                           TC       EJ1
000389: 01,2763           05723                           TC       CCSHOLE
000390: 01,2764           12765                           TCF      +1
000391:
000392:                                                                                                  #           EVALUATE THE RESULTS OF THE SCAN.
000393:
000394: 01,2765           10131                           CCS      BUF        +1                         #  SEE IF THERE ARE ANY ACTIVE JOBS WAITING
000395: 01,2766           05723                           TC       CCSHOLE
000396: 01,2767           05723                           TC       CCSHOLE
000397:
000398: 01,2770           12772                           TCF      +2
000399: 01,2771           13017                           TCF      DUMMYJOB
000400: 01,2772           10130                           CCS      BUF                                   #  BUF IS ZERO IF THIS IS A PRIOCHNG AND
000401: 01,2773           12775                           TCF      +2                                    #  CHANGED PRIORITY IS STILL HIGHEST.
000402: 01,2774           12601                           TCF      ENDPRCHG   -1
000403:
000404: 01,2775           50000                           INDEX    A                                     #  OTHERWISE, SET NEWJOB TO THE RELATIVE
000405: 01,2776           27777                           CAF      0          -1                         #  ADDRESS OF THE NEW JOB'S CORE SET.
000406: 01,2777           62747                           AD       -CCSPR
000407: 01,3000           54067                           TS       NEWJOB
000408: 01,3001           12521                           TCF      CHANJOB    -2
000409:
000410: 01,3002           54132        EJ1                TS       BUF        +2
000411: 01,3003           60131                           AD       BUF        +1                         #  - OLD HIGH PRIORITY.
000412: 01,3004           10000                           CCS      A
000413: 01,3005           40132                           CS       BUF        +2
000414: 01,3006           13012                           TCF      EJ2                                   #  NEW HIGH PRIORITY.
000415: 01,3007           13010                           NOOP
000416: 01,3010           50002                           INDEX    Q
000417: 01,3011           00002                           TC       2                                     #  PROCEED WITH SEARCH.
000418:
000419: 01,3012           54131        EJ2                TS       BUF        +1
000420: 01,3013           00006                           EXTEND
000421: 01,3014           22130                           QXCH     BUF                                   #  FOR LOCATING CCS PRIORITY + X INSTR.
000422: 01,3015           50130                           INDEX    BUF
000423: 01,3016           00002                           TC       2
000424:
000425:                                                                                                  #           IDLING AND COMPUTER ACTIVITY (GREEN) LIGHT MAINTENANCE. THE IDLING ROUTINE IS NOT A JOB IN ITSELF,
000426:                                                                                                  #  BUT RATHER A SUBROUTINE OF THE EXECUTIVE.
000427:
000428: 01,3017     1361                                  EBANK=   SELFRET                               #  SELF-CHECK STORAGE IN EBANK.
000429:
000430: 01,3017           45030        DUMMYJOB           CS       ZERO                                  #  SET NEWJOB TO -0 FOR IDLING.
000431: 01,3020           54067                           TS       NEWJOB
000432: 01,3021           00003                           RELINT
000433: 01,3022           45025                           CS       TWO                                   #  TURN OFF THE ACTIVITY LIGHT.
000434: 01,3023           00006                           EXTEND
000435: 01,3024           03011                           WAND     DSALMOUT
000436: 01,3025           10067        ADVAN              CCS      NEWJOB                                #  IS A NEWJOB ACTIVE?
000437: 01,3026           12626                           TCF      NUCHANG2                              #  YES... ONE REQUIRING A CHANGE JOB.
000438: 01,3027           35025                           CAF      TWO                                   #  NEW JOB ALREADY IN POSITION FOR
000439: 01,3030           13036                           TCF      NUDIRECT                              #  EXECUTION.
000440:
000441: 01,3031           31361                           CA       SELFRET
000442: 01,3032           54001                           TS       L                                     #  PUT RETURN ADDRESS IN L.
000443: 01,3033           33035                           CAF      SELFBANK
000444: 01,3034           15236                           TCF      SUPDXCHZ   +1                         #   AND DISPATCH JOB.
000445:
000446: 01,3035     1361                                  EBANK=   SELFRET
000447: 01,3035           66102        SELFBANK           BBCON    SELFCHK
000448:
000449: 01,3036           00006        NUDIRECT           EXTEND                                         #  TURN THE GREEN LIGHT BACK ON.
000450: 01,3037           05011                           WOR      DSALMOUT
000451: 01,3040           52165                           DXCH     LOC                                   #  JOBS STARTED IN THIS FASHION MUST BE
000452: 01,3041           15235                           TCF      SUPDXCHZ
000453:
000454:    5235                                           BLOCK    2                                     #  IN FIXED-FIXED SO OTHERS MAY USE.
000455:
000456:    5235                                           COUNT*   $$/EXEC
000457:                                                                                                  #  SUPDXCHZ - ROUTINE TO TRANSFER TO SUPERBANK.
000458:                                                                                                  #  CALLING SEQUENCE
000459:                                                                                                  #                TCF     SUPDXCHZ        WITH 2CADR OF DESIRED LOCATION IN A + L.
000460:
000461:    5235           56001        SUPDXCHZ           XCH      L                                     #  BASIC.
000462:    5236           00006                 +1        EXTEND
000463:    5237           01007                           WRITE    SUPERBNK
000464:    5240           54006                           TS       BBANK
000465:    5241           00001                           TC       L
000466:
000467:    5242           77677        NEG100             OCT      77677

End of include-file EXECUTIVE.agc.  Parent file is MAIN.agc


