
Source Code


000002:                                                                                                  ## Copyright:   Public domain.
000003:                                                                                                  ## Filename:    FINDCDUW_-_GUIDAP_INTERFACE.agc
000004:                                                                                                  ## Purpose:     A section of a reconstructed, mixed version of Sundance
000005:                                                                                                  ##              It is part of the reconstructed source code for the Lunar
000006:                                                                                                  ##              Module's (LM) Apollo Guidance Computer (AGC) for Apollo 9.
000007:                                                                                                  ##              No original listings of this program are available;
000008:                                                                                                  ##              instead, this file was created via disassembly of dumps
000009:                                                                                                  ##              of various revisions of Sundance core rope modules.
000010:                                                                                                  ## Assembler:   yaYUL
000011:                                                                                                  ## Contact:     Ron Burkey <info@sandroid.org>.
000012:                                                                                                  ## Website:     www.ibiblio.org/apollo/index.html
000013:                                                                                                  ## Mod history: 2020-06-17 MAS  Created from Luminary 69.
000014:
000015:                                                                                                  ## Sundance 292
000016:
000017:                                                                                                  #  PROGRAM NAME:   FINDCDUW
000018:
000019:                                                                                                  #  MOD NUMBER:     1         68 07 15
000020:
000021:                                                                                                  #  MOD AUTHOR:     KLUMPP
000022:
000023:                                                                                                  #  OBJECTS OF MOD: 1.        TO SUPPLY COMMANDED GIMBAL ANGLES FOR NOUN 22.
000024:                                                                                                  #                  2.        TO MAINTAIN CORRECT AND CURRENT THRUST
000025:                                                                                                  #                            DIRECTION DATA IN ALL MODES.  THIS IS DONE BY
000026:                                                                                                  #                            FETCHING FOR THE THRUST DIRECTION FILTER THE
000027:                                                                                                  #                            CDUD'S IN PNGCS-AUTO, THE CDU'S IN ALL OTHER
000028:                                                                                                  #                            MODES.
000029:                                                                                                  #                  3.        TO SUBSTITUTE A STOPRATE FOR THE NORMAL
000030:                                                                                                  #                            AUTOPILOT COMMANDS WHENEVER
000031:                                                                                                  #                            1) NOT IN PNGCS-AUTO, OR
000032:                                                                                                  #                            2) ENGINE IS OFF.
000033:
000034:                                                                                                  #  FUNCTIONAL DESCRIPTION:
000035:
000036:                                                                                                  #  FINDCDUW PROVIDES THE INTERFACES BETWEEN THE VARIOUS POWERED FLITE GUIDANCE PROGRAMS
000037:                                                                                                  #  AND THE DIGITAL AUTOPILOT.  THE INPUTS TO FINDCDUW ARE THE THRUST COMMAND VECTOR
000038:                                                                                                  #  AND THE WINDOW COMMAND VECTOR, AND THE OUTPUTS ARE THE GIMBAL ANGLE
000039:                                                                                                  #  INCREMENTS, THE COMMANDED ATTITUDE ANGLE RATES, AND THE COMMANDED
000040:                                                                                                  #  ATTITUDE LAG ANGLES (WHICH ACCOUNT FOR THE ANGLES BY WHICH THE BODY WILL
000041:                                                                                                  #  LAG BEHIND A RAMP COMMAND IN ATTITUDE ANGLE DUE TO THE FINITE ANGULAR
000042:                                                                                                  #  ACCELERATIONS AVAILABLE).
000043:
000044:                                                                                                  #  FINDCDUW ALINES THE ESTIMATED THRUST VECTOR FROM THE THRUST DIRECTION
000045:                                                                                                  #  FILTER WITH THE THRUST COMMAND VECTOR, AND, WHEN  XOVINHIB  SET,
000046:                                                                                                  #  ALINES THE +Z HALF OF THE LM ZX PLANE WITH THE WINDOW COMMAND VECTOR.
000047:
000048:                                                                                                  #  SPECIFICATIONS:
000049:
000050:                                                                                                  #  INITIALIZATION: A SINGLE INTERPRETIVE CALL TO  INITCDUW  IS REQUIRED
000051:                                                                                                  #                  BEFORE EACH GUIDED MANEUVER USING FINDCDUW.
000052:
000053:                                                                                                  #  CALL:           INTERPRETIVE CALL TO FINDCDUW WITH THE THRUST COMMAND
000054:                                                                                                  #                  VECTOR IN MPAC.  INTERPRETIVE CALL TO FINDCDUW -2 WITH
000055:                                                                                                  #                  THE THRUST COMMAND VECTOR IN UNFC/2 AND NOT IN MPAC.
000056:
000057:                                                                                                  #  RETURNS:        NORMAL INTERPRETIVE IN ALL CASES
000058:
000059:                                                                                                  #                  1.       NORMALLY ALL AUTOPILOT CMDS ARE ISSUED.
000060:
000061:                                                                                                  #                  2.       IF NOT PNGCS AUTO, DO STOPRATE AND RETURN
000062:                                                                                                  #                           WITHOUT ISSUING AUTOPILOT CMDS.
000063:
000064:                                                                                                  #                  3.       IF ENGINE OFF, DO STOPRATE AND RETURN WITHOUT
000065:                                                                                                  #                           ISSUING AUTOPILOT CMDS.
000066:
000067:                                                                                                  #  ALARMS:         00401 IF INPUTS DETERMINE AN ATTITUDE IN GIMBAL LOCK.
000068:                                                                                                  #                           FINDCDUW DRIVES CDUXD AND CDUYD TO THE RQD VALUES,
000069:                                                                                                  #                           BUT DRIVES CDUZD ONLY TO THE GIMBAL LOCK CONE.
000070:                                                                                                  #                  00402 IF UNFC/2 OR UNWC/2 PRODUCE OVERFLOW WHEN
000071:                                                                                                  #                           UNITIZED USING NORMUNIT.  FINDCDUW ISSUES
000072:                                                                                                  #                           STOPRATE AS ONLY INPUT TO AUTOPILOT.
000073:
000074:                                                                                                  #  INPUTS:         UNFC/2   THRUST COMMAND VECTOR, NEED NOT BE SEMI-UNIT.
000075:                                                                                                  #                  UNWC/2   WINDOW COMMAND VECTOR, NEED NOT BE SEMI-UNIT.
000076:                                                                                                  #                  XOVINHIB FLAG DENOTING X AXIS OVERRIDE INHIBITED.
000077:                                                                                                  #                  CSMDOCKD FLAG DENOTING CSM DOCKED.
000078:                                                                                                  #                  STEERSW  FLAG DENOTING INSUFF THRUST FOR THRUST DIR FLTR.
000079:
000080:                                                                                                  #  OUTPUTS:        DELCDUX,Y,Z
000081:                                                                                                  #                  OMEGAPD,+1,+2
000082:                                                                                                  #                  DELPEROR,+1,+2
000083:                                                                                                  #                  CPHI,+1,+2 FOR NOUN22
000084:
000085:                                                                                                  #  DEBRIS:         FINDCDUW DESTROYS SINCDUX,Y,Z AND COSCDUX,Y,Z BY
000086:                                                                                                  #                  WRITING INTO THESE LOCATIONS THE SINES AND COSINES
000087:                                                                                                  #                  OF THE CDUD'S IN PNGCS-AUTO, OF THE CDU'S OTHERWISE.
000088:
000089:                                                                                                  #  INITIALIZATION FOR FINDCDUW
000090:
000091: 30,3213                                           BANK     30
000092: 30,2000                                           SETLOC   FCDUW
000093: 30,2000                                           BANK
000094:
000095: 30,3213  E6,1643                                  EBANK=   ECDUW
000096:
000097: 30,3213                                           COUNT*   $$/FCDUW
000098:
000099: 30,3213           77775        INITCDUW           VLOAD
000100: 30,3214           06231                                    UNITX
000101: 30,3215           03264                           STORE    UNFV/2
000102: 30,3216           03256                           STORE    UNWC/2
000103: 30,3217           77616                           RVQ
000104:
000105:                                                                                                  #  FINDCDUW PRELIMINARIES
000106:
000107: 30,3220           77775                           VLOAD                                          #  FINDCDUW -2: ENTRY WHEN UNFC/2 PRE-STORD
000108: 30,3221           03250                                    UNFC/2                                #  INPUT VECTORS NEED NOT BE SEMI-UNIT
000109: 30,3222           40200        FINDCDUW           BOV      SETPD                                 #  FINDCDUW: ENTRY WHEN UNFC/2 IN MPAC
000110: 30,3223           61222                                    FINDCDUW                              #  INTERPRETER NOW INITIALIZED
000111: 30,3224           00023                                    22                                    #  LOCS 0 THRU 21 FOR DIRECTION COSINE MAT
000112: 30,3225           77420                           STQ      EXIT
000113: 30,3226           03244                                    QCDUWUSR                              #  SAVE RETURN ADDRESS
000114:
000115:                                                                                                  #  MORE HAUSKEEPING
000116: 30,3227           33632                           CA       ECDUWL
000117: 30,3230           56003                           XCH      EBANK                                 #  SET EBANK
000118: 30,3231           55643                           TS       ECDUWUSR                              #  SAVE USER'S EBANK
000119:
000120: 30,3232           31102                           CA       DAPBOOLS
000121: 30,3233           75012                           MASK     CSMDOCKD                              #  CSMDOCKD MUST NOT BE BIT15
000122: 30,3234           10000                           CCS      A
000123: 30,3235           35026                           CA       ONE                                   #  INDEX IF CSM DOCKED
000124: 30,3236           55645                           TS       NDXCDUW
000125:
000126: 30,3237           31102                           CA       DAPBOOLS
000127: 30,3240           75016                           MASK     XOVINHIB                              #  XOVINHIB MUST NOT BE BIT15
000128: 30,3241           55646                           TS       FLAGOODW                              #  FLAGOODW = ANY PNZ NUMBER IF XOV INHIBTD
000129:
000130:                                                                                                  #  FETCH BASIC DATA
000131:
000132: 30,3242           00004                           INHINT                                         #  RELINT AT PAUTNO (TC INTPRET)
000133:
000134: 30,3243           31632                           CA       CDUXD                                 #  PNGCS AUTO: FETCH CDUXD,CDUYD,CDUZD
000135: 30,3244           54772                           TS       CDUSPOTX
000136: 30,3245           31633                           CA       CDUYD
000137: 30,3246           54766                           TS       CDUSPOTY
000138: 30,3247           31634                           CA       CDUZD
000139: 30,3250           54770                           TS       CDUSPOTZ
000140:
000141: 30,3251           00003                           RELINT
000142:
000143:                                                                                                  #  FETCH INPUTS
000144:
000145: 30,3252           06014                           TC       INTPRET                               #  ENTERING THRUST CMD STILL IN MPAC
000146: 30,3253           77634                           RTB
000147: 30,3254           21672                                    NORMUNIT
000148: 30,3255           24001                           STOVL    UNX/2                                 #  SEMI-UNIT THRUST CMD AS INITIAL UNX/2
000149: 30,3256           03256                                    UNWC/2
000150: 30,3257           77634                           RTB
000151: 30,3260           21672                                    NORMUNIT
000152: 30,3261           24015                           STOVL    UNZ/2                                 #  SEMI-UNIT WINDOW CMD AS INITIAL UNZ/2
000153: 30,3262           01212                                    DELV
000154: 30,3263           45004                           BOVB     CALL
000155: 30,3264           61622                                    NOATTCNT                              #  AT LEAST ONE ENTERING CMD VCT ZERO
000156: 30,3265           47373                                    TRG*SMNB
000157: 30,3266           53414                           BOFF     UNIT                                  #  YIELDS UNIT(DELV) IN VEH COORDS FOR FLTR
000158: 30,3267           01344                                    STEERSW
000159: 30,3270           61303                                    AFTRFLTR                              #  IF UNIT DELV OVERFLOWS, SKIP FILTER
000160:
000161:                                                                                                  #  THRUST DIRECTION FILTER
000162:
000163: 30,3271           77776                           EXIT
000164:
000165: 30,3272           31665                           CA       UNFVY/2                               #  FOR RESTARTS, UNFV/2 ALWAYS INTACT, MPAC
000166: 30,3273           22157                           LXCH     MPAC       +3                         #        RENEWED AFTER RETURN FROM CALLER,
000167: 30,3274           03527                           TC       FLTRSUB                               #        TWO FILTER UPDATES MAY BE DONE.
000168: 30,3275           55665                           TS       UNFVY/2                               #  UNFV/2 NEED NOT BE EXACTLY SEMI-UNIT.
000169:
000170: 30,3276           31667                           CA       UNFVZ/2
000171: 30,3277           22161                           LXCH     MPAC       +5
000172: 30,3300           03527                           TC       FLTRSUB
000173: 30,3301           55667                           TS       UNFVZ/2
000174:
000175: 30,3302           06014                           TC       INTPRET                               #  COMPLETES FILTER
000176:
000177:                                                                                                  #  FIND A SUITABLE WINDOW POINTING VECTOR
000178:
000179: 30,3303           46135        AFTRFLTR           SLOAD    BHIZ                                  #  IF XOV NOT INHIBITED, GO FETCH ZNB
000180: 30,3304           03247                                    FLAGOODW
000181: 30,3305           61311                                    FETCHZNB
000182: 30,3306           45175                           VLOAD    CALL
000183: 30,3307           00015                                    UNZ/2
000184: 30,3310           61546                                    UNWCTEST
000185:
000186: 30,3311           77775        FETCHZNB           VLOAD
000187: 30,3312           02164                                    ZNBPIP
000188: 30,3313           34015                           STCALL   UNZ/2
000189: 30,3314           61546                                    UNWCTEST
000190:
000191: 30,3315           57575                           VLOAD    VCOMP                                 #  Z AND -X CAN'T BOTH PARALLEL UNFC/2
000192: 30,3316           02150                                    XNBPIP
000193: 30,3317           00015                           STORE    UNZ/2
000194:
000195:                                                                                                  #  COMPUTE THE REQUIRED DIRECTION COSINE MATRIX
000196:
000197: 30,3320           45175        DCMCL              VLOAD    CALL
000198: 30,3321           00001                                    UNX/2
000199: 30,3322           61570                                    DCMCL1
000200: 30,3323           77624                           CALL
000201: 30,3324           61556                                    DCMCL2
000202: 30,3325           77624                           CALL
000203: 30,3326           44331                                    TRNSPSPD
000204: 30,3327           45160                           AXC,1    CALL
000205: 30,3330           00000                                    0
000206: 30,3331           44650                                    DCMTOCDU
000207: 30,3332           77434                           RTB      EXIT
000208: 30,3333           21516                                    V1STO2S
000209:
000210:                                                                                                  #  LIMIT THE MIDDLE GIMBAL ANGLE & COMPUTE THE UNLIMITED GIMBAL ANGLE CHGS
000211:
000212: 30,3334           30156                           CA       MPAC       +2                         #  LIMIT THE MGA
000213: 30,3335           54001                           TS       L                                     #  CAN'T LXCH: NEED UNLIMITED MGA FOR ALARM
000214: 30,3336           33643                           CA       CDUZDLIM
000215: 30,3337           03601                           TC       LIMITSUB                              #  YIELDS LIMITED MGA. 1 BIT ERROR POSSIBLE
000216: 30,3340           56156                           XCH      MPAC       +2                         #       BECAUSE USING 2'S COMP. WHO CARES?
000217: 30,3341           00006                           EXTEND
000218: 30,3342           60156                           SU       MPAC       +2                         #  THIS BETTER YIELD ZERO
000219: 30,3343           10000                           CCS      A
000220: 30,3344           13627                           TCF      ALARMMGA
000221: 30,3345           13347                           TCF      +2
000222: 30,3346           13627                           TCF      ALARMMGA
000223:
000224: 30,3347           00004        MGARET             INHINT                                         #  RELINT AT TC INTPRET AFTER TCQCDUW
000225:
000226: 30,3350           35025                           CA       TWO
000227: 30,3351           54142        DELGMBLP           TS       TEM2
000228:
000229: 30,3352           50142                           INDEX    TEM2
000230: 30,3353           31632                           CA       CDUXD
000231: 30,3354           00006                           EXTEND
000232: 30,3355           50142                           INDEX    TEM2
000233: 30,3356           20154                           MSU      MPAC
000234: 30,3357           50142                           INDEX    TEM2
000235: 30,3360           55671                           TS       -DELGMB                               #  -UNLIMITED GIMBAL ANGLE CHGS, 1'S, PI
000236: 30,3361           10142                           CCS      TEM2
000237: 30,3362           13351                           TCF      DELGMBLP
000238:
000239:                                                                                                  #  LIMIT THE ATTITUDE ANGLE CHANGES
000240:
000241:                                                                                                  #  THIS SECTION LIMITS THE ATTITUDE ANGLE CHANGES ABOUT A SET OF ORTHOGONAL VEHICLE AXES X,YPRIME,ZPRIME.
000242:                                                                                                  #  THESE AXES COINCIDE WITH THE COMMANDED VEHICLE AXES IF AND ONLY IF CDUXD IS ZERO.  THE PRIME SYSTEM IS
000243:                                                                                                  #  THE COMMANDED VEHICLE SYSTEM ROTATED ABOUT THE X AXIS TO BRING THE Z AXIS INTO ALINEMENT WITH THE MIDDLE GIMBAL
000244:                                                                                                  #  AXIS.  ATTITUDE ANGLE CHANGES IN THE PRIME SYSTEM ARE RELATED TO SMALL GIMBAL ANGLE CHANGES BY:
000245:
000246:                                                                                                  #  * -DELATTX      *   * 1  SIN(CDUZD)  0 * * -DELGMBX *
000247:                                                                                                  #  *               *   *                  * *          *
000248:                                                                                                  #  * -DELATTYPRIME * = * 0  COS(CDUZD)  0 * * -DELGMBY *
000249:                                                                                                  #  *               *   *                  * *          *
000250:                                                                                                  #  * -DELATTZPRIME *   * 0  0           1 * * -DELGMBZ *
000251:
000252: 30,3363           23673                           LXCH     -DELGMB    +2                         #  SAME AS -DELATTZPRIME UNLIMITED
000253: 30,3364           51645                           INDEX    NDXCDUW
000254: 30,3365           33637                           CA       DAZMAX
000255: 30,3366           03601                           TC       LIMITSUB
000256: 30,3367           55673                           TS       -DELGMB    +2                         #  -DELGMBZ
000257:
000258: 30,3370           31672                           CA       -DELGMB    +1
000259: 30,3371           00006                           EXTEND
000260: 30,3372           70746                           MP       COSCDUZ                               #  YIELDS -DELATTYPRIME/2 UNLIMITED
000261: 30,3373           54001                           TS       L
000262: 30,3374           51645                           INDEX    NDXCDUW
000263: 30,3375           33641                           CA       DAY/2MAX
000264: 30,3376           03601                           TC       LIMITSUB
000265: 30,3377           00006                           EXTEND
000266: 30,3400           10746                           DV       COSCDUZ
000267: 30,3401           57672                           XCH      -DELGMB    +1                         #  -DELGMBY, FETCHING UNLIMITED VALUE
000268:
000269: 30,3402           00006                           EXTEND
000270: 30,3403           70740                           MP       SINCDUZ
000271: 30,3404           20001                           DDOUBL
000272: 30,3405           54142                           TS       TEM2                                  #  YIELDS +DELATTX UNLIMITD, MAG < 180 DEG,
000273: 30,3406           61671                           AD       -DELGMB                               #        BASED ON UNLIMITED DELGMBY.
000274: 30,3407           54001                           TS       L                                     #        ONE BIT ERROR IF OPERANDS IN MSU
000275: 30,3410           51645                           INDEX    NDXCDUW                               #        OF MIXED SIGNS.  WHO CARES?
000276: 30,3411           33637                           CA       DAXMAX
000277: 30,3412           03601                           TC       LIMITSUB
000278: 30,3413           54143                           TS       TEM3                                  #  SAVE LIMITED +DELATTX
000279: 30,3414           11646                           CCS      FLAGOODW
000280: 30,3415           30143                           CA       TEM3                                  #  FETCH IT BACK CHGING SIGN IF WINDOW GOOD
000281: 30,3416           00006                           EXTEND
000282: 30,3417           60142                           SU       TEM2
000283: 30,3420           55671                           TS       -DELGMB
000284:
000285:                                                                                                  #  COMPUTE COMMANDED ATTITUDE RATES
000286:
000287:                                                                                                  #  * OMEGAPD *   * -2  -4 SINCDUZ          +0         * * -DELGMBX *
000288:                                                                                                  #  *         *   *                                    * *          *
000289:                                                                                                  #  * OMEGAQD * = * +0  -8 COSCDUZ COSCDUX  -4 SINCDUX * * -DELGMBY *
000290:                                                                                                  #  *         *   *                                    * *          *
000291:                                                                                                  #  * OMEGARD *   * +0  +8 COSCDUZ SINCDUX  -4 COSCDUX * * -DELGMBZ *
000292:
000293:                                                                                                  #  ATTITUDE ANGLE RATES IN UNITS OF PI/4 RAD/SEC = K TRIG FCNS IN UNITS OF 2 X GIMBAL ANGLE RATES IN UNITS OF
000294:                                                                                                  #  PI/2 RAD/SEC.  THE CONSTANTS ARE BASED ON DELGMB BEING THE GIMBAL ANGLE CHANGES IN UNITS OF PI RADIANS,
000295:                                                                                                  #  AND 2 SECONDS BEING THE COMPUTATION PERIOD (THE PERIOD BETWEEN SUCCESSIVE PASSES THRU FINDCDUW).
000296:
000297: 30,3421           41671                           CS       -DELGMB
000298: 30,3422           55640                           TS       OMEGAPD
000299: 30,3423           41672                           CS       -DELGMB    +1
000300: 30,3424           00006                           EXTEND
000301: 30,3425           70740                           MP       SINCDUZ
000302: 30,3426           20001                           DDOUBL
000303: 30,3427           27640                           ADS      OMEGAPD
000304: 30,3430           27640                           ADS      OMEGAPD
000305:
000306: 30,3431           41672                           CS       -DELGMB    +1
000307: 30,3432           00006                           EXTEND
000308: 30,3433           70750                           MP       COSCDUX
000309: 30,3434           20001                           DDOUBL
000310: 30,3435           00006                           EXTEND
000311: 30,3436           70746                           MP       COSCDUZ
000312: 30,3437           55641                           TS       OMEGAQD
000313: 30,3440           41673                           CS       -DELGMB    +2
000314: 30,3441           00006                           EXTEND
000315: 30,3442           70742                           MP       SINCDUX
000316: 30,3443           27641                           ADS      OMEGAQD
000317: 30,3444           27641                           ADS      OMEGAQD
000318: 30,3445           27641                           ADS      OMEGAQD
000319:
000320: 30,3446           31672                           CA       -DELGMB    +1
000321: 30,3447           00006                           EXTEND
000322: 30,3450           70742                           MP       SINCDUX
000323: 30,3451           20001                           DDOUBL
000324: 30,3452           00006                           EXTEND
000325: 30,3453           70746                           MP       COSCDUZ
000326: 30,3454           55642                           TS       OMEGARD
000327: 30,3455           41673                           CS       -DELGMB    +2
000328: 30,3456           00006                           EXTEND
000329: 30,3457           70750                           MP       COSCDUX
000330: 30,3460           27642                           ADS      OMEGARD
000331: 30,3461           27642                           ADS      OMEGARD
000332: 30,3462           27642                           ADS      OMEGARD
000333:
000334:                                                                                                  #  FINAL TRANSFER
000335:
000336: 30,3463           35025                           CA       TWO
000337: 30,3464           54142        CDUWXFR            TS       TEM2
000338: 30,3465           50142                           INDEX    TEM2
000339: 30,3466           31671                           CA       -DELGMB
000340: 30,3467           00006                           EXTEND
000341: 30,3470           73644                           MP       DT/DELT                               #  RATIO OF DAP INTERVAL TO CDUW INTERVAL
000342: 30,3471           03615                           TC       ONESTO2S
000343: 30,3472           50142                           INDEX    TEM2
000344: 30,3473           55635                           TS       DELCDUX                               #  ANGLE INTERFACE
000345:
000346: 30,3474           50142                           INDEX    TEM2
000347: 30,3475           11640                           CCS      OMEGAPD
000348: 30,3476           65026                           AD       ONE
000349: 30,3477           13501                           TCF      +2
000350: 30,3500           65026                           AD       ONE
000351: 30,3501           00006                           EXTEND                                         #  WE NOW HAVE ABS(OMEGAPD,QD,RD)
000352: 30,3502           50142                           INDEX    TEM2
000353: 30,3503           71640                           MP       OMEGAPD
000354: 30,3504           00006                           EXTEND
000355: 30,3505           75014                           MP       BIT11                                 #  1/16
000356: 30,3506           00006                           EXTEND
000357: 30,3507           50142                           INDEX    TEM2                                  #                   2
000358: 30,3510           11522                           DV       1JACC                                 #  UNITS PI/4 RAD/SEC
000359: 30,3511           54001                           TS       L
000360: 30,3512           33641                           CA       DELERLIM
000361: 30,3513           03601                           TC       LIMITSUB
000362: 30,3514           50142                           INDEX    TEM2
000363: 30,3515           55301                           TS       DELPEROR                              #  LAG ANGLE = OMEGA ABS(OMEGA)/2 ACCEL
000364: 30,3516           10142                           CCS      TEM2
000365: 30,3517           13464                           TCF      CDUWXFR
000366: 30,3520           00003                           RELINT
000367:
000368:                                                                                                  #  HAUSKEEPING AND RETURN
000369:
000370: 30,3521           31643        TCQCDUW            CA       ECDUWUSR
000371: 30,3522           54003                           TS       EBANK                                 #  RETURN USER'S EBANK
000372:
000373: 30,3523           06014                           TC       INTPRET
000374: 30,3524           52001                           SETPD    GOTO
000375: 30,3525           00001                                    0
000376: 30,3526           03244                                    QCDUWUSR                              #  NORMAL AND ABNORMAL RETURN TO USER
000377:
000378:                                                                                                  #  THRUST VECTOR FILTER SUBROUTINE
000379:
000380: 30,3527           00006        FLTRSUB            EXTEND
000381: 30,3530           22142                           QXCH     TEM2
000382: 30,3531           54143                           TS       TEM3                                  #  SAVE ORIGINAL OFFSET
000383: 30,3532           40000                           COM                                            #  ONE MCT, NO WDS, CAN BE SAVED IF NEG OF
000384: 30,3533           60001                           AD       L                                     #       ORIG OFFSET ARRIVES IN A, BUT IT'S
000385: 30,3534           00006                           EXTEND                                         #       NOT WORTH THE INCREASED OBSCURITY.
000386: 30,3535           73633                           MP       GAINFLTR
000387: 30,3536           54001                           TS       L                                     #  INCR TO OFFSET, UNLIMITED
000388: 30,3537           33634                           CA       DUNFVLIM                              #  SAME LIMIT FOR Y AND Z
000389: 30,3540           03601                           TC       LIMITSUB                              #  YIELDS INCR TO OFFSET, LIMITED
000390: 30,3541           60143                           AD       TEM3                                  #  ORIGINAL OFFSET
000391: 30,3542           54001                           TS       L                                     #  TOTAL OFFSET, UNLIMITED
000392: 30,3543           33635                           CA       UNFVLIM                               #  SAME LIMIT FOR Y AND Z
000393: 30,3544           03601                           TC       LIMITSUB                              #  YIELDS TOTAL OFFSET, LIMITED
000394: 30,3545           00142                           TC       TEM2
000395:
000396:                                                                                                  #  SUBR TO TEST THE ANGLE BETWEEN THE PROPOSED WINDOW AND THRUST CMD VCTS
000397:
000398: 30,3546           63441        UNWCTEST           DOT      DSQ
000399: 30,3547           00001                                    UNX/2
000400: 30,3550           50025                           DSU      BMN
000401: 30,3551           21637                                    DOTSWFMX
000402: 30,3552           61320                                    DCMCL
000403: 30,3553           43531                           SSP      RVQ                                   #  RVQ FOR ALT CHOICE IF DOT MAGN TOO LARGE
000404: 30,3554           03247                                    FLAGOODW                              #       ZEROING WINDOW GOOD FLAG
000405: 30,3555           00000                                    0
000406:
000407: 30,3556           74345        DCMCL2             DLOAD    VXSC
000408: 30,3557           03270                                    UNFVZ/2                               #  MUST BE SMALL
000409: 30,3560           00015                                    UNZ/2                                 #  -UNZ/2 FIRST ITERATION
000410: 30,3561           74325                           PDDL     VXSC                                  #  EXCHANGE -UNFVZ/2 UNZ/2 FOR UNFVY/2
000411: 30,3562           03266                                    UNFVY/2                               #  MUST BE SMALL
000412: 30,3563           00007                                    UNY/2
000413: 30,3564           76455                           VAD      VSL1
000414: 30,3565           53445                           BVSU     UNIT                                  #  YIELDS -UNFVY/2 UNY/2-UNFVZ/2 UNZ/2
000415: 30,3566           00001                                    UNX/2
000416: 30,3567           00001                           STORE    UNX/2
000417:
000418: 30,3570           47276        DCMCL1             VCOMP    VXV
000419: 30,3571           00015                                    UNZ/2
000420: 30,3572           77656                           UNIT
000421: 30,3573           00007                           STORE    UNY/2                                 #  UNY/2 FIRST ITERATION
000422: 30,3574           47276                           VCOMP    VXV
000423: 30,3575           00001                                    UNX/2
000424: 30,3576           77772                           VSL1
000425: 30,3577           00015                           STORE    UNZ/2
000426: 30,3600           77616                           RVQ
000427:
000428:                                                                                                  #  LIMITSUB LIMITS THE MAGNITUDE OF THE POSITIVE OR NEGATIVE VARIABLE
000429:                                                                                                  #  ARRIVING IN L TO THE POSITIVE LIMIT ARRIVING IN A.
000430:                                                                                                  #  THE SIGNED LIMITED VARIABLE IS RETURNED IN A.
000431:
000432:                                                                                                  #  VERSION COURTESY HUGH BLAIR-SMITH
000433:
000434: 30,3601           54141        LIMITSUB           TS       TEM1
000435: 30,3602           35030                           CA       ZERO
000436: 30,3603           00006                           EXTEND
000437: 30,3604           10141                           DV       TEM1
000438: 30,3605           10000                           CCS      A
000439: 30,3606           22141                           LXCH     TEM1
000440: 30,3607           13611                           TCF      +2
000441: 30,3610           13613                           TCF      +3
000442: 30,3611           30001                           CA       L
000443: 30,3612           00002                           TC       Q
000444: 30,3613           40141                           CS       TEM1
000445: 30,3614           00002                           TC       Q
000446:
000447:                                                                                                  #  SUBROUTINE TO CONVERT 1'S COMP SP TO 2'S COMP
000448:
000449: 30,3615           10000        ONESTO2S           CCS      A
000450: 30,3616           65026                           AD       ONE
000451: 30,3617           00002                           TC       Q
000452: 30,3620           40000                           CS       A
000453: 30,3621           00002                           TC       Q
000454:
000455:                                                                                                  #  NO ATTITUDE CONTROL
000456:
000457: 30,3622           05646        NOATTCNT           TC       ALARM
000458: 30,3623           00402                           OCT      00402                                 #  NO ATTITUDE CONTROL
000459:
000460: 30,3624           04655                 +2        TC       BANKCALL
000461: 30,3625           40244                           FCADR    STOPRATE
000462: 30,3626           13521                           TCF      TCQCDUW                               #  RETURN TO USER SKIPPING AUTOPILOT CMDS
000463:
000464:                                                                                                  #  MIDDLE GIMBAL ANGLE ALARM
000465:
000466: 30,3627           05646        ALARMMGA           TC       ALARM
000467: 30,3630           00401                           OCT      00401
000468: 30,3631           13347                           TCF      MGARET
000469:
000470:                                                                                                  # ************************************************************************
000471:                                                                                                  #  CONSTANTS
000472:                                                                                                  # ************************************************************************
000473:
000474:                                                                                                  #  ADDRESS CONSTANTS
000475:
000476: 30,3632           03243        ECDUWL             ECADR    ECDUW
000477:
000478:                                                                                                  #  THRUST DIRECTION FILTER CONSTANTS
000479:
000480: 30,3633           06315        GAINFLTR           DEC      .2                                    #  GAIN FILTER
000481:
000482: 30,3634           00071        DUNFVLIM           DEC      .007       B-1                        #  7 MR MAX CHG IN F DIR IN VEH IN 2 SECS.
000483:                                                                                                  #  THIS DOES NOT ALLOW FOR S/C ROT RATE.
000484:
000485: 30,3635           02041        UNFVLIM            DEC      .129       B-1                        #  129 MR MAX THRUST OFFSET.  105 MR TRAVEL
000486:                                                                                                  #  +10MR DEFL+5MR MECH MOUNT+9MR ABLATION.
000487:
000488:                                                                                                  #  CONSTANTS RELATED TO GIMBAL ANGLE COMPUTATIONS
000489:
000490: 30,3636           01673        DOTSWFMX           DEC      .93302     B-4                        #  LIM COLNRTY OF UNWC/2 & UNFC/2 TO 85 DEG
000491:                                                                                                  #  LOWER PART COMES FROM NEXT CONSTANT
000492:
000493: 30,3637           03434        DAXMAX             DEC      .11111111111                            #  DELATTX LIM TO 20 DEG IN 2 SECS, 1'S, PI
000494: 30,3640           00266                           DEC      .0111111111                            #  2 DEG WHEN CSM DOCKED
000495:
000496: 30,3641           01616        DAY/2MAX           DEC      .05555555555                            #  LIKEWISE FOR DELATTY
000497: 30,3642           00133                           DEC      .0055555555
000498:
000499: 30,3643  30,3637               DAZMAX             =        DAXMAX                                #  LIKEWISE FOR DELATTZ
000500:
000501: 30,3643           14344        CDUZDLIM           DEC      .3888888888                            #  70 DEG LIMIT FOR MGA, 1'S, PI
000502:
000503:                                                                                                  #  CONSTANTS FOR DATA TRANSFER
000504:
000505: 30,3644           01463        DT/DELT            DEC      .05                                   #  .1 SEC/2 SEC WHICH IS THE AUTOPILOT
000506:                                                                                                  #  CONTROL SAMPLE PERIOD/COMPUTATION PERIOD
000507:
000508: 30,3645  30,3641               DELERLIM           =        DAY/2MAX                              #  10 DEG LIMIT FOR LAG ANGLES, 1'S, PI
000509:
000510:

End of include-file FINDCDUW_-_GUIDAP_INTERFACE.agc.  Parent file is MAIN.agc


