
Source Code


000002:                                                                                                  ## Copyright:   Public domain.
000003:                                                                                                  ## Filename:    FRESH_START_AND_RESTART.agc
000004:                                                                                                  ## Purpose:     A section of a reconstructed, mixed version of Sundance
000005:                                                                                                  ##              It is part of the reconstructed source code for the Lunar
000006:                                                                                                  ##              Module's (LM) Apollo Guidance Computer (AGC) for Apollo 9.
000007:                                                                                                  ##              No original listings of this program are available;
000008:                                                                                                  ##              instead, this file was created via disassembly of dumps
000009:                                                                                                  ##              of various revisions of Sundance core rope modules.
000010:                                                                                                  ## Assembler:   yaYUL
000011:                                                                                                  ## Contact:     Ron Burkey <info@sandroid.org>.
000012:                                                                                                  ## Website:     www.ibiblio.org/apollo/index.html
000013:                                                                                                  ## Mod history: 2020-06-17 MAS  Created from Luminary 69.
000014:
000015:                                                                                                  ## Sundance 292
000016:
000017: 10,2000                                           BANK     10
000018: 05,2000                                           SETLOC   FRANDRES
000019: 05,2000                                           BANK
000020:
000021: 05,2264  E3,1400                                  EBANK=   LST1
000022:
000023: 05,2264                                           COUNT*   $$/START                              #  FRESH AND RESTART
000024: 05,2264           00004        SLAP1              INHINT                                         #  FRESH START. COMES HERE FROM PINBALL.
000025: 05,2265           02676                           TC       STARTSUB                              #  SUBROUTINE DOES MOST OF THE WORK.
000026:
000027: 05,2266           12273        STARTSW            TCF      SKIPSIM                               #  PATCH....TCF STARTSIM...FOR SIMULATION
000028: 05,2267           35011        STARTSIM           CAF      BIT14
000029: 05,2270           05155                           TC       FINDVAC
000030: 05,2271           77777        SIM2CADR           OCT      77777                                 #  PATCH 2CADR (AND EBANK DESIGNATION) OF
000031: 05,2272           77777                           OCT      77777                                 #  SIMULATION START ADDRESS.
000032:
000033: 05,2273           35010        SKIPSIM            CAF      BIT15                                 #  TURN OFF ALL DSPTAB+11D LAMPS ONLY ON
000034: 05,2274           55037                           TS       DSPTAB     +11D                       #  REQUESTED FRESH START.
000035:
000036: 05,2275           35030                           CA       ZERO
000037: 05,2276           55365                           TS       ERCOUNT
000038: 05,2277           54375                           TS       FAILREG
000039: 05,2300           54376                           TS       FAILREG    +1
000040: 05,2301           54377                           TS       FAILREG    +2
000041: 05,2302           55205                           TS       REDOCTR
000042:
000043: 05,2303           44703                           CS       PRIO12
000044: 05,2304           55315                           TS       DSRUPTSW
000045:
000046: 05,2305           35024        DOFSTART           CAF      FOUR
000047: 05,2306           55275                           TS       RCSFLAGS                              #  INITIALIZE ATTITUDE ERROR DISPLAYS.
000048: 05,2307           34367                           CA       PRIO30
000049: 05,2310           54366                           TS       RESTREG                               #  SUPER BANK PRIORITY FOR DISPLAYS.
000050:
000051: 05,2311           35030                           CA       ZERO
000052: 05,2312           55245                           TS       ABDELV                                #  DAP INITIALIZATION
000053: 05,2313           55246                           TS       ABDELV     +1
000054: 05,2314           54774                           TS       RASFLAG
000055: 05,2315           54371                           TS       NVSAVE
000056: 05,2316           55072                           TS       EBANKTEM
000057: 05,2317           55264                           TS       CH5MASK
000058: 05,2320           55265                           TS       CH6MASK
000059: 05,2321           55300                           TS       PVALVEST                              #  FOR RCS FAILURE MONITOR
000060: 05,2322           55360                           TS       ERESTORE                              #  ***** MUST NOT BE REMOVED FROM DOFSTART
000061: 05,2323           55362                           TS       SMODE                                 #  ***** MUST NOT BE REMOVED FROM DOFSTART
000062: 05,2324           54332                           TS       DNLSTCOD                              #  SELECT POO DOWNLIST
000063: 05,2325           55330                           TS       AGSWORD                               #  ALLOW AGS INITIALIZATION
000064: 05,2326           55501                           TS       UPSVFLAG                              #  ZERO UPDATE STATE VECTOR REQUEST FLAGWRD
000065: 05,2327           00006                           EXTEND
000066: 05,2330           01005                           WRITE    CHAN5                                 #  TURN OFF RCS JETS.
000067: 05,2331           00006                           EXTEND
000068: 05,2332           01006                           WRITE    CHAN6                                 #  TURN OFF RCS JETS.
000069: 05,2333           00006                           EXTEND
000070: 05,2334           01012                           WRITE    CHAN12
000071: 05,2335           00006                           EXTEND
000072: 05,2336           01013                           WRITE    CHAN13
000073: 05,2337           00006                           EXTEND
000074: 05,2340           01014                           WRITE    CHAN14
000075: 05,2341           35011                           CAF      BIT14                                 #  INSURE ENGINE IS OFF.
000076: 05,2342           00006                           EXTEND
000077: 05,2343           01011                           WRITE    DSALMOUT
000078: 05,2344           02422                           TC       MR.KLEAN
000079:
000080: 05,2345           45030                           CS       ZERO
000081: 05,2346           54055                           TS       THRUST
000082: 05,2347           55012                           TS       MODREG
000083:
000084: 05,2350           33130                           CAF      IM30INIF                              #  FRESH START IMU INITIALIZATION.
000085: 05,2351           55304                           TS       IMODES30
000086:
000087: 05,2352           35746                           CAF      WIDEDB
000088: 05,2353           55356                           TS       DB
000089: 05,2354           35024                           CAF      FOUR
000090: 05,2355           55331                           TS       RATEINDX                              #  INITIALIZE KALCMANU RATE
000091: 05,2356           32672                           CA       BOOLSTRT
000092: 05,2357           55102                           TS       DAPBOOLS
000093: 05,2360           35065                           CAF      EBANK6
000094: 05,2361           54003                           TS       EBANK
000095: 05,2362  E6,1400                                  EBANK=   HIASCENT
000096:
000097: 05,2362           32675                           CAF      FULLAPS                               #  INITIALIZE MAXIMUM ASCENT MASS FOR USE
000098: 05,2363           55400                           TS       HIASCENT                              #    BY 1/ACCS UNTIL THE PAD LOAD IS DONE.
000099: 05,2364           32673                           CA       77001OCT                              #      LOAD DAP FILTER GAINS PAD LOAD
000100: 05,2365           55403                           TS       DKTRAP                                #     TO BEST PRESENT ESTIMATE OF GOODIES
000101: 05,2366           55406                           TS       LMTRAP                                #  .14 DEG
000102: 05,2367           32674                           CA       60DEC
000103: 05,2370           55405                           TS       DKKAOSN
000104: 05,2371           55410                           TS       LMKAOSN                               #  6 SEC GAIN FOR ALPHA
000105: 05,2372           35030                           CA       ZERO
000106: 05,2373           55407                           TS       LMOMEGAN                              #  UNITY GAIN
000107: 05,2374           34375                           CA       TEN
000108: 05,2375           55404                           TS       DKOMEGAN                              #  1 SEC GAIN FOR OMEGA
000109: 05,2376           35076                           CAF      IM33INIT
000110: 05,2377           65021                           AD       BIT6                                  #  KEEP BOTH DAP AND ERROR-NEEDLES DISPLAY
000111: 05,2400           55305                           TS       IMODES33                              #    OFF UNTIL ICDU ZERO IS FINISHED.
000112:
000113: 05,2401           00006                           EXTEND                                         #  INITIALIZE SWITCHES ONLY ON FRESH START.
000114: 05,2402           33135                           DCA      SWINIT
000115: 05,2403           52075                           DXCH     STATE
000116: 05,2404           00006                           EXTEND
000117: 05,2405           33137                           DCA      SWINIT     +2
000118: 05,2406           52077                           DXCH     STATE      +2
000119: 05,2407           00006                           EXTEND
000120: 05,2410           33141                           DCA      SWINIT     +4
000121: 05,2411           52101                           DXCH     STATE      +4
000122: 05,2412           00006                           EXTEND
000123: 05,2413           33143                           DCA      SWINIT     +6
000124: 05,2414           52103                           DXCH     STATE      +6
000125: 05,2415           00006                           EXTEND
000126: 05,2416           33145                           DCA      SWINIT     +8
000127: 05,2417           52105                           DXCH     STATE      +8
000128:
000129: 05,2420           04674        ENDRSTRT           TC       POSTJUMP                              #  NOW IN ANOTHER BANK.
000130: 05,2421           03021                           CADR     DUMMYJOB   +2                         #  PICKS UP AT RELINT.   (DONT ZERO NEWJOB)
000131:
000132: 05,2422           00006        MR.KLEAN           EXTEND
000133: 05,2423           35030                           DCA      NEG0
000134: 05,2424           52755                           DXCH     -PHASE2
000135: 05,2425           00006        POOKLEAN           EXTEND
000136: 05,2426           35030                           DCA      NEG0
000137: 05,2427           52761                           DXCH     -PHASE4
000138: 05,2430           00006        V37KLEAN           EXTEND
000139: 05,2431           35030                           DCA      NEG0
000140: 05,2432           52753                           DXCH     -PHASE1
000141: 05,2433           00006                           EXTEND
000142: 05,2434           35030                           DCA      NEG0
000143: 05,2435           52757                           DXCH     -PHASE3
000144: 05,2436           00006                           EXTEND
000145: 05,2437           35030                           DCA      NEG0
000146: 05,2440           52763                           DXCH     -PHASE5
000147: 05,2441           00006                           EXTEND
000148: 05,2442           35030                           DCA      NEG0
000149: 05,2443           52765                           DXCH     -PHASE6
000150: 05,2444           00002                           TC       Q
000151:
000152:                                                                                                  #           COMES HERE FROM LOCATION 4000, GOJAM. RESTART ANY PROGRAMS WHIC
000153:
000154: 05,2445  E3,1400                                  EBANK=   LST1                                  #  H MAY HAVE BEEN RUNNING AT THE TIME.
000155: 05,2445           25205        GOPROG             INCR     REDOCTR                               #  ADVANCE RESTART COUNTER.
000156:
000157: 05,2446           22002                           LXCH     Q
000158: 05,2447           00006                           EXTEND
000159: 05,2450           04007                           ROR      SUPERBNK
000160: 05,2451           53433                           DXCH     RSBBQ
000161: 05,2452           31037                           CA       DSPTAB     +11D
000162: 05,2453           75023                           MASK     BIT4
000163: 05,2454           00006                           EXTEND
000164: 05,2455           12461                           BZF      +4
000165: 05,2456           65021                           AD       BIT6                                  #  SET ERROR COUNTER ENABLE
000166: 05,2457           00006                           EXTEND
000167: 05,2460           05012                           WOR      CHAN12                                #  ISS WAS IN COARS ALIGN SO GO BACK TO
000168: 05,2461           02676                           TC       STARTSUB
000169:
000170:                                                                                                  #                                             ERASCHK TEMPORARILY STORES THE CONTENTS OF TWO ERASABLE LOCATIONS, X
000171:                                                                                                  #                                             AND X+1 INTO SKEEP5 AND SKEEP6. IT ALSO STORES X INTO SKEEP7 AND
000172:                                                                                                  #                                             ERESTORE. IF ERASCHK IS INTERRUPTED BY A RESTART, C(ERESTORE) SHOULD
000173:                                                                                                  #                                             EQUAL C(SKEEP7),AND BE A + NUMBER LESS THAN 2000 OCT. OTHERWISE
000174:                                                                                                  #                                             C(ERESTORE) SHOULD EQUAL +0.
000175:
000176: 05,2462           34362                           CAF      HI5
000177: 05,2463           71360                           MASK     ERESTORE
000178: 05,2464           00006                           EXTEND
000179: 05,2465           12467                           BZF      +2                                    #  IF ERESTORE NOT = +0 OR +N LESS THAN 2K,
000180: 05,2466           12305                           TCF      DOFSTART                              #  DOUBT E MEMORY AND DO A FRESH START.
000181: 05,2467           41360                           CS       ERESTORE
000182: 05,2470           00006                           EXTEND
000183: 05,2471           12506                           BZF      DORSTART                              #  = +0 CONTINUE WITH RESTART.
000184: 05,2472           61377                           AD       SKEEP7
000185: 05,2473           00006                           EXTEND
000186: 05,2474           12476                           BZF      +2                                    #  = SKEEP7, RESTORE E MEMORY.
000187: 05,2475           12305                           TCF      DOFSTART                              #  NOT = SKEEP7, DOUBE E MEM,DO FRESH START.
000188: 05,2476           31374                           CA       SKEEP4
000189: 05,2477           54003                           TS       EBANK                                 #  EBANK OF E MEMORY THAT WAS UNDER TEST.
000190: 05,2500           00006                           EXTEND                                         #  (NOT DXCH SINCE THIS MIGHT HAPPEN AGAIN)
000191: 05,2501           31376                           DCA      SKEEP5
000192: 05,2502           51377                           INDEX    SKEEP7
000193: 05,2503           52001                           DXCH     0000                                  #  E MEMORY RESTORED.
000194: 05,2504           35030                           CA       ZERO
000195: 05,2505           55360                           TS       ERESTORE
000196: 05,2506           35010        DORSTART           CA       BIT15                                 #  TEST OSC FAIL BIT TO SEE IF WE HAVE
000197: 05,2507           00006                           EXTEND                                         #  HAD A POWER TRANSIENT.  IF SO, ATTEMPT
000198: 05,2510           03033                           WAND     CHAN33                                #  A RESTART.  IF NOT, CHACK THE PRESENT
000199: 05,2511           00006                           EXTEND                                         #  STATE OF AGC WARNING.
000200: 05,2512           12520                           BZF      LIGHTSET
000201:
000202: 05,2513           35011                           CA       BIT14                                 #  IF AGC WARNING ON (BIT = 0), DO A FRESH
000203: 05,2514           00006                           EXTEND                                         #  START ON THE ASSUMPTION THAT WE'RE IN A
000204: 05,2515           02033                           RAND     CHAN33                                #  RESTART LOOP.
000205: 05,2516           00006                           EXTEND
000206: 05,2517           12305                           BZF      DOFSTART
000207:
000208: 05,2520           35022        LIGHTSET           CAF      BIT5                                  #  CHECK FOR MARK REJECT AND ERROR RESET
000209: 05,2521           00006                           EXTEND
000210: 05,2522           02016                           RAND     NAVKEYIN
000211: 05,2523           00006                           EXTEND
000212: 05,2524           12532                           BZF      NONAVKEY                              #  NO MARK REJECT
000213: 05,2525           00006                           EXTEND
000214: 05,2526           00015                           READ     MNKEYIN                               #  CHECK IF KEYS 2M AND 5M ON
000215: 05,2527           63127                           AD       -ELR                                  #  MAIN DSKY KEYCODE (BITS 1-5)
000216: 05,2530           00006                           EXTEND
000217: 05,2531           12305                           BZF      DOFSTART
000218:
000219: 05,2532           30774        NONAVKEY           CA       RASFLAG
000220: 05,2533           76050                           MASK     LOW7
000221: 05,2534           54774                           TS       RASFLAG
000222: 05,2535           10000                           CCS      A
000223: 05,2536           12540                           TCF      +2
000224: 05,2537           02663                           TC       NOORBINT
000225:
000226: 05,2540           33132                           CA       9,6,4                                 #  LEAVE PROG ALARM, GIMBAL LOCK, NO ATT
000227: 05,2541           71037                           MASK     DSPTAB     +11D                       #  LAMPS INTACT ON HARDWARE RESTART
000228: 05,2542           65010                           AD       BIT15
000229: 05,2543           57037                           XCH      DSPTAB     +11D
000230: 05,2544           33117                           CAF      IFAILINH                              #  LEAVE IMU FAILURE INHIBITS INTACT ON
000231: 05,2545           71304                           MASK     IMODES30                              #  HARDWARE RESTART. RESET ALL FAILURE
000232: 05,2546           63131                           AD       IM30INIR                              #  CODES.
000233: 05,2547           55304                           TS       IMODES30
000234:
000235: 05,2550           31330                           CA       AGSWORD                               #  BE SURE OF CORRECT DOWNLIST
000236: 05,2551           54332                           TS       DNLSTCOD
000237:
000238: 05,2552           45024                           CS       ACCSOKAY
000239: 05,2553           71102                           MASK     DAPBOOLS
000240: 05,2554           55102                           TS       DAPBOOLS
000241:
000242: 05,2555           35023                           CA       BIT4                                  #  TURN ON THROTTLE COUNTER
000243: 05,2556           00006                           EXTEND
000244: 05,2557           05014                           WOR      CHAN14                                #  TURN ON THRUST DRIVE
000245: 05,2560           40101                           CS       FLAGWRD5
000246: 05,2561           75020                           MASK     ENGONBIT
000247: 05,2562           10000                           CCS      A
000248: 05,2563           12612                           TCF      GOPROG3
000249: 05,2564           35012                           CAF      BIT13
000250: 05,2565           00006                           EXTEND
000251: 05,2566           05011                           WOR      DSALMOUT                              #  TURN ENGINE ON
000252: 05,2567           12612                           TCF      GOPROG3
000253:
000254: 05,2570           02725        ENEMA              TC       STARTSB2
000255: 05,2571           35030                           CAF      ZERO
000256: 05,2572           54774                           TS       RASFLAG
000257: 05,2573           02663                           TC       NOORBINT
000258:
000259: 05,2574           30035                           CA       CDUT
000260: 05,2575           04524                           TC       MAGSUB
000261: 05,2576           57777                           DEC      -.5
000262: 05,2577           12602                           TCF      +3                                    #  IF MODE 2.
000263:
000264: 05,2600           35030                           CAF      ZERO
000265: 05,2601           12603                           TCF      +2
000266: 05,2602           35013                           CAF      ANTENBIT
000267: 05,2603           57101                           XCH      RADMODES
000268: 05,2604           77712                           MASK     -BIT12
000269: 05,2605           27101                           ADS      RADMODES
000270:
000271: 05,2606           37667                           CAF      PRIO27
000272: 05,2607           05142                           TC       NOVAC
000273: 05,2610  E6,1532                                  EBANK=   AOSQ
000274: 05,2610           02305 40066                     2CADR    1/ACCSET
000275:
000276: 05,2612           35031        GOPROG3            CAF      NUMGRPS                               #  VERIFY PHASE TABLE AGREEMENTS
000277: 05,2613           54161        PCLOOP             TS       MPAC       +5
000278: 05,2614           60000                           DOUBLE
000279: 05,2615           00006                           EXTEND
000280: 05,2616           50000                           INDEX    A
000281: 05,2617           30753                           DCA      -PHASE1                               #  COMPLEMENT INTO A, DIRECT INTO L.
000282: 05,2620           00006                           EXTEND
000283: 05,2621           06001                           RXOR     LCHAN                                 #  RESULT MUST BE -0 FOR AGREEMENT.
000284: 05,2622           10000                           CCS      A
000285:
000286: 05,2623           12660                           TCF      PTBAD                                 #  RESTART FAILURE.
000287: 05,2624           12660                           TCF      PTBAD
000288: 05,2625           12660                           TCF      PTBAD
000289:
000290: 05,2626           10161                           CCS      MPAC       +5                         #  PROCESS ALL RESTART GROUPS.
000291: 05,2627           12613                           TCF      PCLOOP
000292:
000293: 05,2630           54162                           TS       MPAC       +6                         #  SET TO +0.
000294: 05,2631           05361                           TC       MMDSPLAY                              #  DISPLAY MAJOR MODE
000295:
000296: 05,2632           00004                           INHINT                                         #  RELINT DONE IN MMDSPLAY
000297:
000298: 05,2633           35031                           CAF      NUMGRPS                               #  SEE IF ANY GROUPS RUNNING.
000299: 05,2634           54161        NXTRST             TS       MPAC       +5
000300: 05,2635           60000                           DOUBLE
000301: 05,2636           50000                           INDEX    A
000302: 05,2637           10753                           CCS      PHASE1
000303: 05,2640           12642                           TCF      PACTIVE                               #  PNZ - GROUP ACTIVE.
000304: 05,2641           12647                           TCF      PINACT                                #  +0 - GROUP NOT RUNNING.
000305:
000306: 05,2642           54154        PACTIVE            TS       MPAC
000307: 05,2643           24154                           INCR     MPAC                                  #  ABS OF PHASE.
000308: 05,2644           24162                           INCR     MPAC       +6                         #  INDICATE GROUP DEMANDS PRESENT.
000309: 05,2645           32671                           CA       RACTCADR
000310: 05,2646           04661                           TC       SWCALL                                #  MUST RETURN TO SWRETURN.
000311:
000312: 05,2647           10161        PINACT             CCS      MPAC       +5                         #  PROCESS ALL RESTART GROUPS.
000313: 05,2650           12634                           TCF      NXTRST
000314:
000315: 05,2651           10162                           CCS      MPAC       +6                         #  NO, CHECK PHASE ACTIVITY FLAG
000316: 05,2652           12420                           TCF      ENDRSTRT                              #  PHASE ACTIVE
000317: 05,2653           35010                           CAF      BIT15                                 #  IS MODE -0
000318: 05,2654           71012                           MASK     MODREG
000319: 05,2655           00006                           EXTEND
000320: 05,2656           14106                           BZF      GOTOPOOH                              #  NO
000321: 05,2657           12420                           TCF      ENDRSTRT                              #  YES
000322: 05,2660           05646        PTBAD              TC       ALARM                                 #  SET ALARM TO SHOW PHASE TABLE FAILURE.
000323: 05,2661           01107                           OCT      1107
000324:
000325: 05,2662           12305                           TCF      DOFSTART                              #  IN R2).
000326:
000327: 05,2663           45011        NOORBINT           CS       INTF2BIT
000328: 05,2664           70101                           MASK     FLAGWRD5
000329: 05,2665           54101                           TS       FLAGWRD5
000330: 05,2666           00002                           TC       Q
000331:
000332:                                                                                                  #  ******** ****** ******
000333:
000334:                                                                                                  #  DO NOT USE GOPROG2 OR ENEMA WITHOUT CONSULTING POOH PEOPLE
000335:
000336: 05,2667  05,2570               GOPROG2            EQUALS   ENEMA
000337: 05,2667     5012               OCT10000           =        BIT13
000338:
000339: 05,2667     4367               OCT30000           =        PRIO30
000340: 05,2667           32001        OCT32001           OCT      32001
000341: 05,2670           07777        OCT7777            OCT      7777
000342: 05,2671           03314        RACTCADR           CADR     RESTARTS
000343: 05,2672           21312        BOOLSTRT           OCT      21312
000344: 05,2673           77001        77001OCT           OCT      77001                                 #  .14 DEG SCALED AT 4.5 DEG
000345: 05,2674           00074        60DEC              DEC      60         B-14
000346: 05,2675           02357        FULLAPS            DEC      5050       B-16                       #  NOMINAL FULL ASCENT MASS -- 2(16) KG.
000347:
000348:                                                                                                  #           INITIALIZATION COMMON TO BOTH FRESH START AND RESTART.
000349:
000350: 05,2676  E6,1532                                  EBANK=   AOSQ
000351: 05,2676           35065        STARTSUB           CAF      EBANK6
000352: 05,2677           54003                           TS       EBANK
000353:
000354: 05,2700           35030                           CAF      ZERO
000355: 05,2701           55631                           TS       ACCSET
000356: 05,2702           55460                           TS       NEXTP
000357: 05,2703           55461                           TS       NEXTU
000358: 05,2704           55462                           TS       NEXTV
000359:
000360: 05,2705           33120                           CAF      LDNPHAS1                              #  SET POINTER SO NEXT 20MS DOWNRUPT WILL
000361: 05,2706           54335                           TS       DNTMGOTO                              #  CAUSE THE CURRENT DOWNLIST TO BE
000362:                                                                                                  #  INTERRUPTED AND START SENDING FROM THE
000363:                                                                                                  #  BEGINNING OF THE CURRENT DOWNLIST.
000364: 05,2707           35021                           CAF      BIT6
000365: 05,2710           00006                           EXTEND
000366: 05,2711           02033                           RAND     CHAN33
000367: 05,2712           63133                           AD       RMODINIT
000368: 05,2713           55101                           TS       RADMODES
000369:
000370: 05,2714           35006                           CAF      POSMAX
000371: 05,2715           54026                           TS       TIME3
000372: 05,2716           67720                           AD       MINUS2
000373: 05,2717           54027                           TS       TIME4
000374: 05,2720           67721                           AD       NEGONE
000375: 05,2721           54030                           TS       TIME5
000376:
000377: 05,2722           00006                           EXTEND                                         #  SET T5RUPT FOR DAPIDLER PROGRAM.
000378: 05,2723           33116                           DCA      IDLEADR
000379: 05,2724           53277                           DXCH     T5ADR
000380:
000381: 05,2725           33126        STARTSB2           CAF      OCT30001                              #  DURING SOFTWARE RESTART, DO NOT DISTURB
000382: 05,2726           00006                           EXTEND                                         #  ENGINE ON, OFF AND ISS WARNING.
000383: 05,2727           03011                           WAND     DSALMOUT
000384:
000385: 05,2730           45016                           CS       XOVINHIB
000386: 05,2731           71102                           MASK     DAPBOOLS
000387: 05,2732           55102                           TS       DAPBOOLS
000388:
000389: 05,2733           33124                           CAF      OCT27470                              #  DURING SOFTWARE RESTART, DO NOT DISTURB
000390: 05,2734           00006                           EXTEND                                         #  IMU FLAGS.  (COURSE ALIGN ENABLE, ZERO
000391: 05,2735           03012                           WAND     CHAN12                                #  IMU CDUS, ENABLE IMU COUNTER) AND GIMBAL
000392:                                                                                                  #  TRIM DRIVES. LEAVE RR LOCKON ENABLE
000393:                                                                                                  #  ALONE.
000394:
000395: 05,2736           33125                           CAF      OCT74160                              #  DURING SOFTWARE RESTART, DO NOT DUSTURB
000396: 05,2737           00006                           EXTEND                                         #  TELEMETRY FLAGS, RESET TRAP FLAGS, AND
000397: 05,2740           03013                           WAND     CHAN13                                #  ENABLE T6RUPT FLAG.
000398:
000399: 05,2741           35013                           CAF      BIT12                                 #  REENABLE RUPT10 (RUPT QUICKLY
000400: 05,2742           00006                           EXTEND                                         #    RESUMES EXCEPT DURING P64)
000401: 05,2743           05013                           WOR      CHAN13
000402:
000403: 05,2744           35021                           CAF      BIT6                                  #  DURING SOFTWARE RESTART, DO NOT DISTURB
000404: 05,2745           00006                           EXTEND                                         #  GYRO ENABLE FLAG.
000405: 05,2746           03014                           WAND     CHAN14
000406:
000407: 05,2747           42667                           CS       OCT32001                              #  DURING SOFTWARE RESTART,CLEAR TURNON,
000408: 05,2750           71101                           MASK     RADMODES                              #  REPOSITION,CDU ZERO AND REMODE BITS
000409: 05,2751           55101                           TS       RADMODES                              #  IN RADMODES,SINCE TASKS ASSOCIATED
000410:                                                                                                  #  WITH THESE BITS HAVE BEEN KILLED
000411:
000412: 05,2752  E3,1400                                  EBANK=   LST1
000413: 05,2752           35057                           CAF      STARTEB
000414: 05,2753           54003                           TS       EBANK                                 #  SET FOR E3
000415:
000416: 05,2754           35007                           CAF      NEG1/2                                #  INITIALIZE WAITLIST DELTA-TS.
000417: 05,2755           55407                           TS       LST1       +7
000418: 05,2756           55406                           TS       LST1       +6
000419: 05,2757           55405                           TS       LST1       +5
000420: 05,2760           55404                           TS       LST1       +4
000421: 05,2761           55403                           TS       LST1       +3
000422: 05,2762           55402                           TS       LST1       +2
000423: 05,2763           55401                           TS       LST1       +1
000424: 05,2764           55400                           TS       LST1
000425:
000426: 05,2765           45306                           CS       ENDTASK
000427: 05,2766           55410                           TS       LST2
000428: 05,2767           55412                           TS       LST2       +2
000429: 05,2770           55414                           TS       LST2       +4
000430: 05,2771           55416                           TS       LST2       +6
000431:
000432: 05,2772           55420                           TS       LST2       +8D
000433: 05,2773           55422                           TS       LST2       +10D
000434: 05,2774           55424                           TS       LST2       +12D
000435: 05,2775           55426                           TS       LST2       +14D
000436: 05,2776           55430                           TS       LST2       +16D
000437: 05,2777           45307                           CS       ENDTASK    +1
000438: 05,3000           55411                           TS       LST2       +1
000439: 05,3001           55413                           TS       LST2       +3
000440: 05,3002           55415                           TS       LST2       +5
000441: 05,3003           55417                           TS       LST2       +7
000442: 05,3004           55421                           TS       LST2       +9D
000443: 05,3005           55423                           TS       LST2       +11D
000444: 05,3006           55425                           TS       LST2       +13D
000445: 05,3007           55427                           TS       LST2       +15D
000446: 05,3010           55431                           TS       LST2       +17D
000447:
000448: 05,3011           45030                           CS       ZERO                                  #  MAKE ALL EXECUTIVE REGISTER SETS
000449: 05,3012           54167                           TS       PRIORITY                              #  AVAILABLE.
000450: 05,3013           54203                           TS       PRIORITY   +12D
000451: 05,3014           54217                           TS       PRIORITY   +24D
000452: 05,3015           54233                           TS       PRIORITY   +36D
000453: 05,3016           54247                           TS       PRIORITY   +48D
000454: 05,3017           54263                           TS       PRIORITY   +60D
000455: 05,3020           54277                           TS       PRIORITY   +72D
000456:
000457: 05,3021           55315                           TS       DSRUPTSW
000458: 05,3022           54067                           TS       NEWJOB                                #  SHOWS NO ACTIVE JOBS.
000459:
000460: 05,3023           33122                           CAF      VAC1ADRC                              #  MAKE ALL VAC AREAS AVAILABLE.
000461: 05,3024           54400                           TS       VAC1USE
000462: 05,3025           63123                           AD       LTHVACA
000463: 05,3026           54454                           TS       VAC2USE
000464: 05,3027           63123                           AD       LTHVACA
000465: 05,3030           54530                           TS       VAC3USE
000466: 05,3031           63123                           AD       LTHVACA
000467: 05,3032           54604                           TS       VAC4USE
000468: 05,3033           63123                           AD       LTHVACA
000469: 05,3034           54660                           TS       VAC5USE
000470:
000471: 05,3035           45026                           CS       ONE
000472: 05,3036           55316                           TS       DIDFLG
000473:
000474: 05,3037           34375                           CAF      TEN
000475: 05,3040           54154        DSPOFF             TS       MPAC                                  #  R1,R2,R3).
000476: 05,3041           45013                           CS       BIT12
000477: 05,3042           50154                           INDEX    MPAC
000478: 05,3043           55024                           TS       DSPTAB
000479: 05,3044           10154                           CCS      MPAC
000480: 05,3045           13040                           TCF      DSPOFF
000481:
000482: 05,3046           55332                           TS       DELAYLOC
000483: 05,3047           55333                           TS       DELAYLOC   +1
000484:
000485: 05,3050           55334                           TS       DELAYLOC   +2
000486: 05,3051           55074                           TS       R1SAVE
000487: 05,3052           54045                           TS       INLINK
000488: 05,3053           54777                           TS       DSPCNT
000489: 05,3054           55043                           TS       CADRSTOR
000490: 05,3055           55014                           TS       REQRET
000491: 05,3056           55016                           TS       CLPASS
000492: 05,3057           55013                           TS       DSPLOCK
000493: 05,3060           55021                           TS       MONSAVE                               #  KILL MONITOR
000494: 05,3061           55022                           TS       MONSAVE1
000495: 05,3062           55002                           TS       VERBREG
000496: 05,3063           55003                           TS       NOUNREG
000497: 05,3064           55044                           TS       DSPLIST
000498: 05,3065           55314                           TS       MARKSTAT
000499: 05,3066           55045                           TS       EXTVBACT                              #  MAKE EXTENDED VERBS AVAILABLE
000500: 05,3067           55306                           TS       IMUCADR
000501: 05,3070           55307                           TS       OPTCADR
000502: 05,3071           55310                           TS       RADCADR
000503: 05,3072           55311                           TS       ATTCADR
000504: 05,3073           55321                           TS       LGYRO
000505: 05,3074           54100                           TS       FLAGWRD4                              #  KILL INTERFACE DISPLAYS
000506: 05,3075           35033                           CAF      NOUTCON
000507: 05,3076           55017                           TS       NOUT
000508:
000509: 05,3077           45023                           CS       NORRMBIT                              #  ENABLE R25.
000510: 05,3100           70101                           MASK     FLAGWRD5
000511: 05,3101           54101                           TS       FLAGWRD5
000512:
000513: 05,3102           45026                           CS       ONE
000514: 05,3103           55103                           TS       SAMPLIM
000515: 05,3104           35021                           CAF      BIT6
000516: 05,3105           71305                           MASK     IMODES33                              #  LEAVE BIT 6 UNCHANGED
000517: 05,3106           65076                           AD       IM33INIT                              #  NO PIP OR TM FAILS.BIT6=0 IN THIS WORD.
000518: 05,3107           55305                           TS       IMODES33
000519:
000520: 05,3110           33121                           CAF      LESCHK                                #  SELF CHECK GO-TO REGISTER.
000521: 05,3111           55361                           TS       SELFRET
000522:
000523: 05,3112           44372                           CS       VD1
000524: 05,3113           55000                           TS       DSPCOUNT
000525:
000526: 05,3114           00002                           TC       Q
000527: 05,3115  E6,1532                                  EBANK=   AOSQ
000528: 05,3115           02067 34066  IDLEADR            2CADR    DAPIDLER
000529: 05,3117           00035        IFAILINH           OCT      35
000530: 05,3120           03155        LDNPHAS1           GENADR   DNPHASE1
000531: 05,3121           03336        LESCHK             GENADR   SELFCHK
000532: 05,3122           00400        VAC1ADRC           ADRES    VAC1USE
000533: 05,3123           00054        LTHVACA            DEC      44         B-14
000534:
000535: 05,3124           27470        OCT27470           OCT      27470
000536:
000537: 05,3125           74160        OCT74160           OCT      74160
000538: 05,3126           30001        OCT30001           OCT      30001
000539: 05,3127     5057               STARTEB            EQUALS   EBANK3
000540: 05,3127     5031               NUMGRPS            EQUALS   FIVE
000541: 05,3127           77755        -ELR               OCT      -22                                   #  -ERROR LIGHT RESET KEY CODE.
000542: 05,3130           37411        IM30INIF           OCT      37411                                 #  INHIBITS IMU FAIL FOR 5 SEC AND PIP ISSW
000543: 05,3131           37400        IM30INIR           OCT      37400
000544: 05,3132     5076               IM33INIT           =        PRIO16                                #  NO PIP OR TM FAIL SIGNALS.
000545: 05,3132           00450        9,6,4              OCT      450
000546: 05,3133           00102        RMODINIT           OCT      00102
000547: 05,3134           00000        SWINIT             OCT      0
000548: 05,3135           00000                           OCT      0
000549: 05,3136           00000                           OCT      0
000550: 05,3137           00000                           OCT      0
000551: 05,3140           00000                           OCT      0
000552: 05,3141           00000                           OCT      0
000553: 05,3142           00000                           OCT      0
000554: 05,3143           00100                           OCT      00100
000555:
000556: 05,3144           00000                           OCT      0
000557: 05,3145           00010                           OCT      00010
000558:
000559:                                                                                                  #  PROGRAM NAME    GOTOPOOH                   ASSEMBLY       SUNDANCE
000560:                                                                                                  #  LOG SECTION     FRESH START AND RESTART
000561:
000562:                                                                                                  #  FUNCTIONAL DESCRIPTION
000563:
000564:                                                                                                  #        FLASH V 37 ON DSKY %MM CHANGE REQUEST "
000565:
000566:                                                                                                  #  INPUT/OUTPUT INFORMATION
000567:
000568:                                                                                                  #        A. CALLING SEQUENCE        TC GOTOPOOH
000569:
000570:                                                                                                  #        B. ERASABLE INITIALIZATION       NONE
000571:
000572:                                                                                                  #        C. OUTPUT FLASH V 37 ON DSKY
000573:
000574:                                                                                                  #        D. DEBRIS       L
000575:
000576:                                                                                                  #  PROGRAM ANALYSIS
000577:
000578:                                                                                                  #        A. SUBROUTINES CALLED PRIODSPR,  LINUS
000579:
000580:                                                                                                  #        B. NORMAL EXIT        TCF ENDOFJOB
000581:
000582:                                                                                                  #        C. ALARM AND ABORT EXITS       NONE
000583:
000584:    4106                                           BLOCK    02
000585:    4000                                           SETLOC   FFTAG10
000586:    4000                                           BANK
000587:
000588:    4106                                           COUNT*   $$/P00
000589:
000590:    4106           05413        GOTOPOOH           TC       PHASCHNG                              #  RESTART GOTOPOOH
000591:    4107           00014                           OCT      14
000592:
000593:    4110           04674                           TC       POSTJUMP
000594:    4111           10000                           CADR     GOPOOFIX
000595:    4112           00024        OCT24              MM       20         B-14
000596:    4113           00031        OCT31              MM       25         B-14
000597:
000598: 20,2000                                           BANK     20
000599: 04,2000                                           SETLOC   VERB37
000600: 04,2000                                           BANK
000601:
000602: 04,2000                                           COUNT*   $$/P00                                #  VERB 37 AND P00 IN BANK 4.
000603: 04,2000           32006        GOPOOFIX           CAF      V37N99
000604: 04,2001           04655                           TC       BANKCALL
000605: 04,2002           20406                           CADR     GOFLASH
000606: 04,2003           12000                           TCF      -3
000607: 04,2004           12000                           TCF      -4
000608: 04,2005           12000                           TCF      -5
000609:
000610: 04,2006           11343        V37N99             VN       3799
000611:
000612:                                                                                                  #  PROGRAM NAME          V37                     ASSEMBLY SUNDANCE
000613:
000614:                                                                                                  #  LOG SECTION     FRESH START AND RESTART
000615:
000616:                                                                                                  #  FUNCTIONAL DESCRIPTION
000617:
000618:                                                                                                  #        1. CHECK IF NEW PROGRAM ALLOWED. IF BIT 1 OF FLAGWRD2(NODOFLAG) IS SET, AN ALARM 1520 IS CALLED.
000619:                                                                                                  #        2. CHECK FOR VALIDITY OF PROGRAM SELECTED. IF AN INVALID PROGRAM  IS SELECTED, THE OPERATOR ERROR LIGHT IS
000620:                                                                                                  #           SET AND CURRENT ACTIVITY, IF ANY, CONTINUES.
000621:                                                                                                  #        3. SERVICER IS TERMINATED IF IT HAS BEEN RUNNING.
000622:                                                                                                  #        4. INSTALL IS EXECUTED TO AVOID INTERRUPTING INTEGRATION.
000623:                                                                                                  #        5. THE ENGINE IS TURNED OFF AND THE DAP IS INITIALIZED FOR COAST.
000624:                                                                                                  #        6. TRACK AND UPDATE FLAGS ARE SET TO ZERO.
000625:                                                                                                  #        7. DISPLAY SYSTEM IS RELEASED.
000626:                                                                                                  #        8. THE FOLLOWING ARE PERFORMED FOR EACH OF THE THREE CASES.
000627:                                                                                                  #           A. PROGRAM SELECTED IS P00.
000628:                                                                                                  #              1. RENDEZVOUS AND P25 FLAGS ARE RESET.(KILL P20 AND P25)
000629:                                                                                                  #              2. STATINT1     IS SCHEDULED BY SETTING RESTART GROUP 2.
000630:                                                                                                  #              3. MAJOR MODE 00 IS STORED IN THE MODE REGISTER (MODREG).
000631:                                                                                                  #              4. SUPERBANK 3 IS SELECTED.
000632:                                                                                                  #              5. NODOFLAG IS RESET.
000633:                                                                                                  #              6. ALL RESTART GROUPS EXCEPT GROUP 2 ARE CLEARED. CONTROL ISTRANSFERRED TO RESTART PROGRAM (GOPROG2)
000634:                                                                                                  #                 WHICH CAUSES ALL CURRENT ACTIVITY TO BE DISCONTINUED AND A 9 MINUTE INTEGRATION CYCLE TO BE
000635:                                                                                                  #                 INITIATED.
000636:                                                                                                  #           B. PROGRAM SELECTED IS P20 OR P25.
000637:                                                                                                  #              1. IF THE CURRENT MAJOR MODE IS THE SAME AS THE SELECTED NEWPROGRAM, THE PROGRAM IS RE-INITIALIZED
000638:                                                                                                  #                 VIA V37XEQ, ALL RESTART GROUPS, EXCEPT GROUP 4 ARE CLEARED.
000639:                                                                                                  #              2. IF THE CURRENT MAJOR MODE IS NOT EQUAL TO THE NEW REQUEST, A CHECK IS MADE TO SEE IF THE REQUEST-
000640:                                                                                                  #                 ED MAJOR MODE HAS BEEN RUNNING IN THE BACKGROUND,
000641:                                                                                                  #                 AND IF IT HAS, NO NEW PROGRAM IS SCHEDULED, THE EXISTING
000642:                                                                                                  #                 P20 OR P25 IS RESTARTED TO CONTINUE, AND ITS M M IS SET.
000643:                                                                                                  #              3. CONTROL IS TRANSFERRED TO GOPROG2.
000644:                                                                                                  #           C. PROGRAM SELECTED IS NEITHER P00,P20, NOR P25
000645:                                                                                                  #              1. V37XEQ IS SCHEDULED (AS A JOB) BY SETTING RESTART GROUP 4
000646:                                                                                                  #              2. ALL CURRENT ACTIVITY EXCEPT RENDEZVOUS AND TRACKING IS DISCONTINUED BY CLEARING ALL RESTART
000647:                                                                                                  #                 GROUPS. IF THE RENDEZVOUS OR THE P25 FLAG IS ON, GROUP 2 IS NOT CLEARED, ALLOWING THESE PROGRAMS
000648:                                                                                                  #                 TO CONTINUE.
000649:
000650:                                                                                                  #  INPUT/OUTPUT INFORMATION
000651:
000652:                                                                                                  #        A. CALLING SEQUENCE
000653:
000654:                                                                                                  #            CONTROL IS DIRECTED TO V37 BY THE VERBFAN ROUTINE.
000655:                                                                                                  #               VERBFAN GOES TO C(VERBTAB+C(VERBREG)). VERB 37 = MMCHANG.
000656:                                                                                                  #               MMCHANG EXECUTES A   TC POSTJUMP, CADR V37.
000657:
000658:                                                                                                  #        B. ERASABLE INITIALIZATION      NONE
000659:
000660:                                                                                                  #        C. OUTPUT
000661:
000662:                                                                                                  #            MAJOR MODE CHANGE
000663:
000664:                                                                                                  #        D. DEBRIS
000665:                                                                                                  #             MMNUMBER, MPAC +1, MINDEX, BASETEMP +C(MINDEX), FLAGWRD0, FLAGWRD1, FLAGWRD2, MODREG, GOLOC -1,
000666:                                                                                                  #             GOLOC, GOLOC +1, GOLOC +2, BASETEMP, -PHASE2, PHASE2, -PHASE4
000667:
000668:                                                                                                  #  PROGRAM ANALYSIS
000669:
000670:                                                                                                  #        A. SUBROUTINES CALLED
000671:                                                                                                  #             ALARM, RELDSP, PINBRNCH, INTSTALL, ENGINOF2, ALLCOAST, V37KLEAN, GOPROG2, FALTON, FINDVAC, SUPERSW,
000672:                                                                                                  #             DSPMM
000673:
000674:                                                                                                  #        B. NORMAL EXIT        TC ENDOFJOB
000675:
000676:                                                                                                  #        C. ALARMS      1520 (MAJOR MODE CHANGE NOT PERMITTED)
000677:
000678: 04,2007           54776        V37                TS       MMNUMBER                              #  SAVE MAJOR MODE
000679: 04,2010           34367                           CAF      PRIO30                                #  RESTART AT PINBALL PRIORITY
000680: 04,2011           54366                           TS       RESTREG
000681:
000682: 04,2012           31304                           CA       IMODES30                              #  IS IMU BEINB INITIALIZED
000683: 04,2013           75021                           MASK     BIT6
000684: 04,2014           10000                           CCS      A
000685: 04,2015           12025                           TCF      CANTROO
000686:
000687: 04,2016           30776                           CA       MMNUMBER                              #  IS NEW REQUEST POO
000688: 04,2017           00006                           EXTEND
000689: 04,2020           12062                           BZF      ISSERVON                              #  YES, CHECK SERVICER STATUS
000690:
000691: 04,2021           40076                           CS       FLAGWRD2                              #  NO, IS NODO V37 FLAG SET
000692: 04,2022           75026                           MASK     NODOBIT
000693: 04,2023           10000                           CCS      A
000694: 04,2024           12032                           TCF      CHECKTAB                              #  NO
000695: 04,2025           05646        CANTROO            TC       ALARM
000696: 04,2026           01520                           OCT      1520
000697:
000698: 04,2027           04471        V37BAD             TC       RELDSP                                #  RELEASES DISPLAY FROM ASTRONAUT
000699:
000700: 04,2030           04674                           TC       POSTJUMP                              #  BRING BACK LAST NORMAL DISPLAY IF THERE
000701: 04,2031           20746                           CADR     PINBRNCH                              #  WAS ONE. OTHERWISE DO AN EOJ.
000702:
000703: 04,2032           00004        CHECKTAB           INHINT
000704: 04,2033           37665                           CAF      PRIO25
000705: 04,2034           54063                           TS       NEWPRIO
000706:
000707: 04,2035           40776                           CS       MMNUMBER                              #  IS P70 REQUESTED?
000708: 04,2036           62316                           AD       DEC70
000709: 04,2037           00006                           EXTEND
000710: 04,2040           12307                           BZF      SETUP70                               #  YES
000711: 04,2041           65026                           AD       ONE                                   #  IS P71 REQUESTED?
000712: 04,2042           00006                           EXTEND
000713: 04,2043           12313                           BZF      SETUP71                               #  YES
000714: 04,2044           00003                           RELINT
000715:
000716: 04,2045           32413                           CA       NOV37MM                               #  INDEX FOR MM TABLES.
000717:
000718: 04,2046           54155        AGAINMM            TS       MPAC       +1
000719: 04,2047           50155                           NDX      MPAC       +1
000720: 04,2050           32357                           CA       PREMM1                                #  OBTAIN WHICH MM THIS IS FOR
000721: 04,2051           76050                           MASK     LOW7
000722: 04,2052           40000                           COM
000723: 04,2053           60776                           AD       MMNUMBER
000724: 04,2054           10000                           CCS      A
000725: 04,2055           10155                           CCS      MPAC       +1                         #  IF GR, SEE IF ANY MORE IN LIST
000726: 04,2056           12046                           TCF      AGAINMM                               #  YES, GET NEXT ONE
000727: 04,2057           12242                           TCF      V37NONO                               #  LAST TIME OR PASSED MM
000728:
000729: 04,2060           30155                           CA       MPAC       +1
000730: 04,2061           54775                           TS       MINDEX                                #  SAVE INDEX FOR LATER
000731:
000732: 04,2062           40103        ISSERVON           CS       FLAGWRD7                              #  V37 FLAG SET - I.E. IS SERVICER GOING
000733: 04,2063           75021                           MASK     V37FLBIT
000734: 04,2064           10000                           CCS      A
000735: 04,2065           12073                           TCF      CANV37                                #  NO
000736:
000737: 04,2066           05575                           TC       DOWNFLAG                              #  YES, TURN OFF THE AVERAGE FLAG AND
000738: 04,2067           00163                           ADRES    AVEGFLAG                              #  WAIT FOR SERVICER TO RETURN TO CANV37.
000739:
000740: 04,2070           32305                           CAF      CANV37AD
000741: 04,2071           55262                           TS       OUTROUTE
000742:
000743: 04,2072           15225                           TCF      ENDOFJOB
000744:
000745: 04,2073           05575        CANV37             TC       DOWNFLAG
000746: 04,2074           00162                           ADRES    V37FLAG
000747:
000748: 04,2075           35030                           CAF      ZERO
000749: 04,2076           00006                           EXTEND
000750: 04,2077           01007                           WRITE    SUPERBNK
000751:
000752: 04,2100           32304                           CAF      ROOAD
000753: 04,2101           54374                           TS       TEMPFLSH
000754:
000755: 04,2102           05413                           TC       PHASCHNG
000756: 04,2103           00014                           OCT      14
000757:
000758:
000759: 04,2104           06014        ROO                TC       INTPRET
000760:
000761: 04,2105           77624                           CALL                                           #  WAIT FOR INTEGRATION TO FINISH
000762: 04,2106           27362                                    INTSTALL
000763: 04,2107           77776        DUMMYAD            EXIT
000764:
000765: 04,2110           05575                           TC       DOWNFLAG
000766: 04,2111           00124                           ADRES    3AXISFLG                              #  RESET 3-AXIS FLAG
000767:
000768: 04,2112           10776                           CCS      MMNUMBER                              #  IS THIS A POOH REQUEST
000769: 04,2113           12230                           TCF      NOUVEAU                               #  NO, PICK UP NEW PROGRAM
000770:
000771: 04,2114           04471        POOH               TC       RELDSP                                #  RELEASE DISPLAY SYSTEM
000772:
000773: 04,2115           00004                           INHINT
000774:
000775: 04,2116           04737                           TC       IBNKCALL
000776: 04,2117           51061                           CADR     CLRADMOD                              #  CLRADMOD DOES AN INHINT.
000777:
000778: 04,2120           45026                           CS       NODOBIT                               #  TURN OFF NODOFLAG.
000779: 04,2121           70076                           MASK     FLAGWRD2
000780: 04,2122           54076                           TS       FLAGWRD2
000781:
000782: 04,2123           35031                           CA       FIVE                                  #  SET RESTART FOR STATEINT1
000783: 04,2124           54001                           TS       L
000784: 04,2125           40000                           COM
000785: 04,2126           52755                           DXCH     -PHASE2
000786:
000787: 04,2127           42306                           CS       OCT700                                #  TURN OFF P20,P25,IMU IN USE FLAG
000788: 04,2130           70074                           MASK     FLAGWRD0
000789: 04,2131           54074                           TS       FLAGWRD0                              #                         RENDFLG
000790:
000791: 04,2132           35030                           CAF      DNLADP00
000792:
000793: 04,2133           54332        SEUDOPOO           TS       DNLSTCOD                              #  SET UP APPROPRIATE DOWNLIST CODE
000794: 04,2134           55330                           TS       AGSWORD                               #   (CURRENT LIST WILL BE COMPLETED BEFORE
000795:                                                                                                  #     NEW ONE IS STARTED)
000796: 04,2135           04737                           TC       IBNKCALL
000797: 04,2136           75546                           CADR     ENGINOF1
000798:
000799: 04,2137           04737                           TC       IBNKCALL                              #  INSURE ALLCOAST.
000800: 04,2140           40263                           CADR     ALLCOAST                              #  DOES A RESTORDB.
000801:
000802: 04,2141           04737                           TC       IBNKCALL
000803: 04,2142           40244                           CADR     STOPRATE
000804:
000805: 04,2143           45045                           CS       OCT120                                #  TURN OFF TRACK, UPDATE FLAGS
000806: 04,2144           55072                           TS       EBANKTEM
000807: 04,2145           70075                           MASK     FLAGWRD1
000808: 04,2146           54075                           TS       FLAGWRD1
000809:
000810: 04,2147           04737                           TC       IBNKCALL                              #  KILL GROUPS 1,3,5,6
000811: 04,2150           12430                           CADR     V37KLEAN
000812:
000813: 04,2151           10776                           CCS      MMNUMBER                              #  IS IT POOH
000814: 04,2152           12161                           TCF      RENDVOO                               #  NO
000815: 04,2153           04737        GOMOD              TC       IBNKCALL                              #  REDUNDANT EXCEPT FOR GROUP 4
000816: 04,2154           12425                           CADR     POOKLEAN
000817:
000818: 04,2155           30776                           CA       MMNUMBER
000819: 04,2156           55012                           TS       MODREG
000820:
000821: 04,2157           04674        GOGOPROG           TC       POSTJUMP
000822: 04,2160           12570                           CADR     GOPROG2
000823:
000824: 04,2161           40776        RENDVOO            CS       MMNUMBER                              #  IS NEW PROGRAM P22
000825: 04,2162           64112                           AD       OCT24                                 #  IS NEW PROGRAM = P20 OR P25
000826: 04,2163           00006                           EXTEND
000827: 04,2164           12202                           BZF      RENDNOO                               #  YES
000828: 04,2165           65031                           AD       FIVE                                  #  25
000829: 04,2166           00006                           EXTEND
000830: 04,2167           12202                           BZF      RENDNOO                               #  YES
000831:
000832: 04,2170           32244                           CA       OCT500                                #  NO, IS EITHER P20 OR P25 RUNNING
000833: 04,2171           70074                           MASK     FLAGWRD0
000834: 04,2172           10000                           CCS      A
000835: 04,2173           12177                           TCF      POOFIZZ                               #  YES, LEAVE GROUP 2 TO PICK UP P20 OR P25
000836:
000837: 04,2174           00006        KILL2              EXTEND                                         #  NO, KILL 2
000838: 04,2175           35030                           DCA      NEG0
000839:
000840: 04,2176           52755                           DXCH     -PHASE2
000841:
000842: 04,2177           32303        POOFIZZ            CAF      V37QCAD                               #  RESTART POINT FOR V37XEQ
000843: 04,2200           54374                           TS       TEMPFLSH
000844:
000845: 04,2201           12157                           TCF      GOGOPROG
000846:
000847: 04,2202           41012        RENDNOO            CS       MODREG
000848: 04,2203           64112                           AD       OCT24
000849: 04,2204           00006                           EXTEND
000850: 04,2205           12174                           BZF      KILL2                                 #  P20 OR P25 ON TOP OF P20 OR P25 -
000851:
000852: 04,2206           65031                           AD       FIVE
000853: 04,2207           00006                           EXTEND
000854: 04,2210           12174                           BZF      KILL2
000855:
000856: 04,2211           32244                           CA       OCT500
000857: 04,2212           70074                           MASK     FLAGWRD0
000858: 04,2213           60776                           AD       MMNUMBER
000859: 04,2214           40000                           COM
000860: 04,2215           62246                           AD       P20REG                                #  IS IT 20 AND IS RENDEZVOUS FLAG ON
000861: 04,2216           00006                           EXTEND
000862: 04,2217           12224                           BZF      STATQUO                               #  YES
000863: 04,2220           62245                           AD       OCT305                                #  IS IT 25 AND IS P25 BIT ON
000864: 04,2221           00006                           EXTEND
000865: 04,2222           12224                           BZF      STATQUO                               #  YES, LEAVE AS IS
000866: 04,2223           12174                           TCF      KILL2
000867:
000868: 04,2224           40075        STATQUO            CS       FLAGWRD1                              #  SET TRACKFLAG
000869: 04,2225           75045                           MASK     OCT120                                #      UPDATE FLAG
000870: 04,2226           26075                           ADS      FLAGWRD1
000871:
000872: 04,2227           12153                           TCF      GOMOD
000873:
000874: 04,2230           32244        NOUVEAU            CAF      OCT500                                #  IS P20 OR P25 FLAG SET
000875: 04,2231           70074                           MASK     FLAGWRD0
000876: 04,2232           10000                           CCS      A
000877: 04,2233           12236                           TCF      +3                                    #  YES
000878: 04,2234           05575                           TC       DOWNFLAG                              #  NO,RESET IMUINUSE FLAG
000879: 04,2235           00007                           ADRES    IMUSE
000880:
000881: 04,2236           50775                           INDEX    MINDEX
000882: 04,2237           32414                           CAF      DNLADMM1                              #  OBTAIN APPROPRIATE DOWNLIST ADDRESS
000883:
000884: 04,2240           00004                           INHINT
000885: 04,2241           12133                           TCF      SEUDOPOO
000886:
000887: 04,2242           04376        V37NONO            TC       FALTON                                #  COME HERE IF MM REQUESTED DOESNT EXIST
000888:
000889: 04,2243           12027                           TCF      V37BAD
000890:
000891: 04,2244     5023               OCT00010           EQUALS   BIT4
000892: 04,2244           00500        OCT500             OCT      500                                   #  BITS 7 AND 9
000893: 04,2245           00305        OCT305             OCT      305
000894: 04,2246           00124        P20REG             OCT      124
000895:
000896: 04,2247           00004        V37XEQ             INHINT
000897: 04,2250           50775                           INDEX    MINDEX
000898: 04,2251           32357                           CAF      PREMM1                                #  OBTAIN PRIO, EBANK, AND MM
000899: 04,2252           55061                           TS       MMTEMP
000900: 04,2253           54020                           TS       CYR                                   #  SHIFT RIGHT TO BITS 14 - 10
000901:
000902: 04,2254           30020                           CA       CYR
000903: 04,2255           77677                           MASK     PRIO37
000904: 04,2256           55063                           TS       PHSPRDT4                              #  PRESET GROUP 4 RESTART PRIORITY
000905: 04,2257           54063                           TS       NEWPRIO                               #  STORE PRIO FOR SPVAC
000906:
000907: 04,2260           31061                           CA       MMTEMP                                #  OBTAIN EBANK - BITS 8, 9, 10 OF MMTEMP.
000908: 04,2261           00006                           EXTEND
000909: 04,2262           75017                           MP       BIT8
000910: 04,2263           75032                           MASK     LOW3
000911: 04,2264           54001                           TS       L
000912:
000913: 04,2265           50775                           INDEX    MINDEX
000914: 04,2266           32323                           CAF      FCADRMM1
000915: 04,2267           55062                           TS       BASETEMP                              #  MAKE BBCON BY ADDING HI5 OF FCADR
000916: 04,2270           74362                           MASK     HI5
000917: 04,2271           26001                           ADS      L
000918:
000919: 04,2272           31062                           CA       BASETEMP                              #  OBTAIN GENADR PORTION OF 2CADR.
000920: 04,2273           75062                           MASK     LOW10
000921: 04,2274           65014                           AD       BIT11
000922:
000923: 04,2275           05166                           TC       SPVAC
000924:
000925: 04,2276           31061        V37XEQC            CA       MMTEMP                                #  UPON RETURN FROM FINDVAC PLACE THE
000926: 04,2277           76050                           MASK     LOW7                                  #  NEW MM IN MODREG (THE LOW 7 BITS OF
000927: 04,2300           05354                           TC       NEWMODEA                              #  PHSPRDT1)
000928:
000929: 04,2301           04471                           TC       RELDSP                                #  RELEASE DISPLAY
000930: 04,2302           05225                           TC       ENDOFJOB                              #  AND EXIT
000931:
000932: 04,2303     1061               MMTEMP             EQUALS   PHSPRDT3
000933: 04,2303     1062               BASETEMP           EQUALS   TBASE4
000934: 04,2303           10252        V37QCAD            CADR     V37XEQ     +3
000935: 04,2304           10107        ROOAD              CADR     DUMMYAD
000936: 04,2305           10073        CANV37AD           CADR     CANV37
000937:
000938: 04,2306           00700        OCT700             OCT      700
000939:
000940: 04,2307           00006        SETUP70            EXTEND
000941: 04,2310           32320                           DCA      P70CADR
000942: 04,2311           05166                 +2        TC       SPVAC
000943: 04,2312           14243                           TCF      JAMTERM
000944:
000945: 04,2313           00006        SETUP71            EXTEND
000946: 04,2314           32322                           DCA      P71CADR
000947: 04,2315           12311                           TCF      SETUP70    +2
000948:
000949: 04,2316           00106        DEC70              DEC      70         B-14
000950: 04,2317  E7,1475                                  EBANK=   R
000951: 04,2317           03201 64067  P70CADR            2CADR    P70
000952: 04,2321  E7,1475                                  EBANK=   R
000953: 04,2321           03504 64067  P71CADR            2CADR    P71
000954:
000955:                                                                                                  #  FOR VERB 37 TWO TABLES ARE MAINTAINED. EACH TABLE HAS AN ENTRY FOR EACH
000956:                                                                                                  #  MAJOR MODE THAT CAN BE STARTED FROM THE KEYBOARD. THE ENTRIES ARE PUT
000957:                                                                                                  #  INTO THE TABLE WITH THE ENTRY FOR THE HIGHEST MAJOR MODE COMING FIRST,
000958:
000959:                                                                                                  #  TO THE LOWEST MAJOR MODE WHICH IS THE LAST ENTRY IN EACH TABLE.
000960:
000961:                                                                                                  #           THE FCADRMM TABLE CONTAINS THE FCADR OF THE STARTING JOB OF
000962:                                                                                                  #  THE MAJOR MODE.   FOR EXAMPLE,
000963:
000964:                                                                                                  #                                          FCADRMM1 FCADR   P79             START OF P 79
000965:                                                                                                  #                                                   FCADR   PROG18          START OF P 18
000966:                                                                                                  #                                                   FCADR   P01             START OF P 01
000967:
000968:                                                                                                  #  NOTE,    THE FIRST ENTRY MUST BE LABLED FCADRMM1.
000969:                                                                                                  #  ----
000970:
000971: 04,2323           71635        FCADRMM1           FCADR    P79
000972: 04,2324           71414                           FCADR    P78
000973: 04,2325           72661                           FCADR    P75
000974: 04,2326           72505                           FCADR    P74
000975: 04,2327           72257                           FCADR    P73
000976: 04,2330           72122                           FCADR    P72
000977: 04,2331           64671                           FCADR    P63LM
000978: 04,2332           32000                           FCADR    PROG52
000979: 04,2333           30740                           FCADR    P51
000980: 04,2334           75421                           FCADR    P47LM
000981: 04,2335           75373                           FCADR    P42LM
000982: 04,2336           75255                           FCADR    P41LM
000983: 04,2337           75133                           FCADR    P40LM
000984: 04,2340           71630                           FCADR    P39
000985: 04,2341           71411                           FCADR    P38
000986: 04,2342           72655                           FCADR    P35
000987: 04,2343           72503                           FCADR    P34
000988: 04,2344           72255                           FCADR    P33
000989: 04,2345           72120                           FCADR    P32
000990: 04,2346           71254                           FCADR    P31LM
000991: 04,2347           72021                           FCADR    P30
000992: 04,2350           50353                           FCADR    PROG25
000993: 04,2351           51116                           FCADR    PROG21
000994: 04,2352           50000                           FCADR    PROG20
000995: 04,2353           60000                           FCADR    P12LM
000996: 04,2354           64003                           FCADR    P11
000997: 04,2355           64000                           FCADR    P10
000998: 04,2356           77507                           FCADR    P06
000999:                                                                                                  #           THE PREMM TABLE CONTAINS THE E-BANK,MAJOR MODE, AND PRIORITY
001000:                                                                                                  #  INFORMATION, IT IS IN THE FOLLOWING FORM,
001001:
001002:                                                                                                  #           PPP PPE EEM MMM MMM
001003:
001004:                                                                                                  #           WHERE THE 7 M BITS CONTAIN THE MAJOR MODE NUMBER
001005:                                                                                                  #                      3 E BITS CONTAIN THE E-BANK NUMBER
001006:                                                                                                  #                      5 P BITS CONTAIN THE PRIORITY AT WHICH THE JOB IS
001007:                                                                                                  #                          TO BE STARTED
001008:
001009:                                                                                                  #           FOR EXAMPLE,
001010:
001011:                                                                                                  #                                          PREMM1   OCT     67213           PRIORITY      33
001012:                                                                                                  #                                                                           E-BANK         5
001013:                                                                                                  #                                                                           MAJOR MODE    11
001014:                                                                                                  #                                                   OCT     25437           PRIORITY       12
001015:                                                                                                  #                                                                           E-BANK         6
001016:                                                                                                  #                                                                           MAJOR MODE    31
001017:
001018:                                                                                                  #  NOTE,    THE FIRST ENTRY MUST BE LABELED PREMM1
001019: 04,2357           27717        PREMM1             OCT      27717                                 #  MM 79  EBANK 7  PRIO 13
001020: 04,2360           27716                           OCT      27716                                 #  MM 78  EBANK 7  PRIO 13
001021: 04,2361           27713                           OCT      27713                                 #  MM 75  EBANK 7  PRIO 13
001022: 04,2362           27712                           OCT      27712                                 #  MM 74  EBANK 7  PRIO 13
001023: 04,2363           27711                           OCT      27711                                 #  MM 73  EBANK 7  PRIO 13
001024: 04,2364           27710                           OCT      27710                                 #  MM 72  EBANK 7  PRIO 13
001025: 04,2365           27677                           OCT      27677                                 #  MM 63  EBANK 7  PRIO 13
001026: 04,2366           27264                           OCT      27264                                 #  MM 52  EBANK 5  PRIO 13
001027: 04,2367           27263                           OCT      27263                                 #  MM 51  EBANK 5  PRIO 13
001028: 04,2370           27657                           OCT      27657                                 #  MM 47  EBANK 7  PRIO 13
001029: 04,2371           27652                           OCT      27652                                 #  MM 42  EBANK 7  PRIO 13
001030: 04,2372           27651                           OCT      27651                                 #  MM 41  EBANK 7  PRIO 13
001031: 04,2373           27650                           OCT      27650                                 #  MM 40  EBANK 7  PRIO 13
001032: 04,2374           27647                           OCT      27647                                 #  MM 39  EBANK 7  PRIO 13
001033: 04,2375           27646                           OCT      27646                                 #  MM 38  EBANK 7  PRIO 13
001034: 04,2376           27643                           OCT      27643                                 #  MM 35  EBANK 7  PRIO 13
001035: 04,2377           27642                           OCT      27642                                 #  MM 34  EBANK 7  PRIO 13
001036: 04,2400           27641                           OCT      27641                                 #  MM 33  EBANK 7  PRIO 13
001037: 04,2401           27640                           OCT      27640                                 #  MM 32  EBANK 7  PRIO 13
001038: 04,2402           27637                           OCT      27637                                 #  MM 31  EBANK 7  PRIO 13
001039: 04,2403           27636                           OCT      27636                                 #  MM 30  EBANK 7  PRIO 13
001040: 04,2404           27631                           OCT      27631                                 #  MM 25  EBANK 7  PRIO 13
001041: 04,2405           27625                           OCT      27625                                 #  MM 21  EBANK 7  PRIO 13
001042: 04,2406           27624                           OCT      27624                                 #  MM 20  EBANK 7  PRIO 13
001043: 04,2407           27614                           OCT      27614                                 #  MM 12  EBANK 7  PRIO 13
001044: 04,2410           27613                           OCT      27613                                 #  MM 11  EBANK 7  PRIO 13
001045: 04,2411           27612                           OCT      27612                                 #  MM 10  EBANK 7  PRIO 13
001046: 04,2412           27006                           OCT      27006                                 #  MM 06  EBANK 4  PRIO 13
001047:
001048:                                                                                                  #  NOTE,     THE FOLLOWING CONSTANT IS THE NUMBER OF ENTRIES IN EACH OF
001049:                                                                                                  #  ----      THE ABOVE LISTS-1(IE, THE NUMBER OF MAJOR MODES(EXCEPT P00)
001050:                                                                                                  #            THAT CAN BE CALLED FROM THE KEYBOARD MINUS ONE)
001051:
001052: 04,2413           00033        NOV37MM            DEC      27         B-14                       #  MM'S -1
001053:
001054: 04,2414           00002        DNLADMM1           ADRES    RENDEZVU                              #  P79
001055: 04,2415           00002                           ADRES    RENDEZVU                              #  P78
001056: 04,2416           00002                           ADRES    RENDEZVU                              #  P75
001057: 04,2417           00002                           ADRES    RENDEZVU                              #  P74
001058: 04,2420           00002                           ADRES    RENDEZVU                              #  P73
001059: 04,2421           00002                           ADRES    RENDEZVU                              #  P72
001060: 04,2422           00003                           ADRES    POWERED                               #  P63
001061: 04,2423           00000                           ADRES    COSTALIN                              #  P52
001062: 04,2424           00000                           ADRES    COSTALIN                              #  P51
001063: 04,2425           00003                           ADRES    POWERED                               #  P47
001064: 04,2426           00003                           ADRES    POWERED                               #  P42
001065: 04,2427           00003                           ADRES    POWERED                               #  P41
001066: 04,2430           00003                           ADRES    POWERED                               #  P40
001067: 04,2431           00002                           ADRES    RENDEZVU                              #  P39
001068: 04,2432           00002                           ADRES    RENDEZVU                              #  P38
001069: 04,2433           00002                           ADRES    RENDEZVU                              #  P35
001070: 04,2434           00002                           ADRES    RENDEZVU                              #  P34
001071: 04,2435           00002                           ADRES    RENDEZVU                              #  P33
001072: 04,2436           00002                           ADRES    RENDEZVU                              #  P32
001073: 04,2437           00002                           ADRES    RENDEZVU                              #  P31LM
001074: 04,2440           00002                           ADRES    RENDEZVU                              #  P30
001075: 04,2441           00002                           ADRES    RENDEZVU                              #  P25
001076: 04,2442           00002                           ADRES    RENDEZVU                              #  P21
001077: 04,2443           00002                           ADRES    RENDEZVU                              #  P20
001078: 04,2444           00003                           ADRES    POWERED                               #  P12
001079: 04,2445           00002                           ADRES    RENDEZVU                              #  P11
001080: 04,2446           00002                           ADRES    RENDEZVU                              #  P10
001081: 04,2447           00000                           ADRES    COSTALIN                              #  P06
001082: 04,2450     5030               DNLADP00           =        ZERO
001083: 04,2450                        COSTALIN           =        0
001084: 04,2450                        AGSUPDAT           =        1
001085: 04,2450                        RENDEZVU           =        2
001086: 04,2450                        POWERED            =        3
001087:


001089:
001090: 13,2000                                           BANK     13
001091: 13,2000                                           SETLOC   INTINIT
001092: 13,2000                                           BANK
001093:
001094: 13,2000                                           COUNT*   $$/INTIN
001095:
001096: 13,2000  E3,1554                                  EBANK=   RRECTCSM
001097:
001098:                                                                                                  #  THIS ROUTINE DOES THE POO INTEGRATION
001099:
001100: 13,2000           43014        STATEUP            SET      BOF                                   #  EXTRAPOLATE CM STATE VECTOR
001101: 13,2001           01474                                    VINTFLAG
001102: 13,2002           04347                                    SURFFLAG                              #  ALSO 6X6 W-MATRIX IF LM ON LUNAR
001103: 13,2003           26010                                    DOINT                                 #       SURFACE AND W-MATRIX VALID
001104: 13,2004           43014                           BOF      SET                                   #       FOR RENDEZVOUS NAVIGATION.
001105: 13,2005           02756                                    RENDWFLG
001106: 13,2006           26010                                    DOINT
001107: 13,2007           01476                                    DIM0FLAG
001108: 13,2010           45014        DOINT              CLEAR    CALL
001109: 13,2011           01667                                    PRECIFLG                              #  ENGAGES 4-TIME STEP LOGIC IN INTEGRATION
001110: 13,2012           27105                                    INTEGRV                               #  WHEN MODREG = 0
001111:
001112: 13,2013           77745                           DLOAD
001113: 13,2014           01571                                    TETCSM
001114: 13,2015           34041                           STCALL   TDEC1
001115: 13,2016           27362                                    INTSTALL
001116: 13,2017           45014                           CLEAR    CALL                                  #  EXTRAPOLATE LM STATE VECTOR
001117: 13,2020           01674                                    VINTFLAG
001118: 13,2021           26622                                    SETIFLGS
001119: 13,2022           43014                           BON      BOF                                   #  ALSO 9X9 W-MATRIX IF W IS VALID
001120: 13,2023           04307                                    SURFFLAG
001121: 13,2024           26032                                    DOINT2
001122: 13,2025           02756                                    RENDWFLG
001123: 13,2026           26032                                    DOINT2
001124: 13,2027           43014                           SET      SET
001125: 13,2030           01476                                    DIM0FLAG
001126: 13,2031           01475                                    D6OR9FLG
001127: 13,2032           45014        DOINT2             SET      CALL
001128: 13,2033           01467                                    PRECIFLG                              #  DISENGAGE 4 TIME STEP LOGIC IN INTEG.
001129: 13,2034           27105                                    INTEGRV
001130: 13,2035           77614        NO-INT             CLRGO
001131: 13,2036           01236                                    NODOFLAG
001132: 13,2037           26610                                    ENDINT
001133:
001134:
001135:                                                                                                  #  THISVINT IS CALLED BY MIDTOAV1 AND 2
001136:
001137: 13,2040           43414        THISVINT           CLEAR    RVQ
001138: 13,2041           01674                                    VINTFLAG

End of include-file FRESH_START_AND_RESTART.agc.  Parent file is MAIN.agc


