
Source Code


000002:                                                                                                  ## Copyright:   Public domain.
000003:                                                                                                  ## Filename:    GENERAL_LAMBERT_AIMPOINT_GUIDANCE.agc
000004:                                                                                                  ## Purpose:     A section of a reconstructed, mixed version of Sundance
000005:                                                                                                  ##              It is part of the reconstructed source code for the Lunar
000006:                                                                                                  ##              Module's (LM) Apollo Guidance Computer (AGC) for Apollo 9.
000007:                                                                                                  ##              No original listings of this program are available;
000008:                                                                                                  ##              instead, this file was created via disassembly of dumps
000009:                                                                                                  ##              of various revisions of Sundance core rope modules.
000010:                                                                                                  ## Assembler:   yaYUL
000011:                                                                                                  ## Contact:     Ron Burkey <info@sandroid.org>.
000012:                                                                                                  ## Website:     www.ibiblio.org/apollo/index.html
000013:                                                                                                  ## Mod history: 2020-06-17 MAS  Created from Luminary 69.
000014:
000015:                                                                                                  ## Sundance 292
000016:
000017:                                                                                                  #  GENERAL LAMBERT AIMPOINT GUIDANCE **
000018:                                                                                                  #  WRITTEN BY RAMA M AIYAWAR
000019:
000020:                                                                                                  #  PROGRAM P-31 DESCRIPTION **
000021:
000022:                                                                                                  #  1.    TO ACCEPT TARGETING PARAMETERS OBTAINED FROM A SOURCE EXTERNAL
000023:                                                                                                  #        TO THE LEM AND COMPUTE THERE FROM THE REQUIRED-VELOCITY AND
000024:                                                                                                  #        OTHER INITIAL CONDITIONS REQUIRED BY LM FOR DESIRED MANEUVER.
000025:                                                                                                  #        THE TARGETING PARAMETERS ARE TIG (TIME OF IGNITION), TARGET
000026:                                                                                                  #        VECTOR (RTARG), AND THE TIME FROM TIG UNTIL THE TARGET IS
000027:                                                                                                  #        REACHED(DELLT4), DESIRED TIME OF FLIGHT FROM RINIT TO RTARG..
000028:
000029:                                                                                                  #  ASSUMPTIONS **
000030:
000031:                                                                                                  #  1.    THE TARGET PARAMETERS MAY HAVE BEEN LOADED PRIOR TO THE
000032:                                                                                                  #        EXECUTION OF THIS PROGRAM.
000033:                                                                                                  #  2.    THIS PROGRAM IS APPLICABLE IN EITHER EARTH OR LUNAR ORBIT.
000034:                                                                                                  #  3.    THIS PROGRAM IS DESIGNED FOR ONE-MAN OPERATION, AND SHOULD
000035:                                                                                                  #        BE SELECTED BY THE ASTRONAUT BY DSKY ENTRY V37 E31.
000036:
000037:                                                                                                  #  SUBROUTINES USED **
000038:                                                                                                  #
000039:                                                                                                  #  MANUPARM, TTG/N35, R02BOTH, MIDGIM, DISPMGA, FLAGDOWN, BANKCALL,
000040:                                                                                                  #  GOTOPOOH, ENDOFJOB, PHASCHNG, GOFLASHR, GOFLASH.
000041:
000042:                                                                                                  #  MANUPARM      CALCULATES APOGEE, PERIGEE ALTITUDES AND DELTAV DESIRED
000043:                                                                                                  #                FOR THE MANEUVER.
000044:
000045:                                                                                                  #  TTG/N35       CLOCKTASK - UPDATES CLOCK.
000046:
000047:                                                                                                  #  MIDGIM        CALCULATES MIDDLE GIMBAL ANGLE FOR DISPLAY.
000048:
000049:                                                                                                  #  R02BOTH       IMU - STATUS CHECK ROUTINE.
000050:
000051:                                                                                                  #  DISPLAYS USED IN P-31LM **
000052:
000053:                                                                                                  #  V06N33        DISPLAY SOTRED TIG (IN HRS. MINS. SECS)
000054:                                                                                                  #  V06N42        DISPLAY APOGEE, PERIGEE, DELTAV.
000055:                                                                                                  #  V16N35        DISPLAY TIME FROM TIG.
000056:                                                                                                  #  V06N45        TIME FROM IGNITION AND MIDDLE GIMBAL ANGLE.
000057:
000058:                                                                                                  #  ERASABLE INITIALIZATION REQUIRED **
000059:
000060:                                                                                                  #  TIG           TIME OF IGNITION                DP      (B+28) CS.
000061:
000062:                                                                                                  #  DELLT4        DESIRED TIME OF FLIGHT          DP      (B+28) CS
000063:                                                                                                  #                FROM RINIT TO RTARG.
000064:                                                                                                  #  RTARG         RADIUS VECTOR OF TARGET POSITION VECTOR
000065:                                                                                                  #                RADIUS VECTOR   SCALED TO  (B+29)METERS IF EARTH ORBIT
000066:                                                                                                  #                RADIUS VECTOR SCALED TO    (B+27)METERS IF MOON ORBIT
000067:
000068:                                                                                                  #  OUTPUT **
000069:
000070:                                                                                                  #  HAPO          APOGEE ALTITUDE
000071:                                                                                                  #  HPER          PERIGEE ALTITUDE
000072:                                                                                                  #  VGDISP        MAG.OF DELTAV FOR DISPLAY ,SCALING      B+7 M/CS EARTH
000073:                                                                                                  #                MAG.OF DELTAV FOR DISPLAY, SCALING      B+5 M/CS MOON
000074:                                                                                                  #  MIDGIM        MIDDLE GIMBAL ANGLE
000075:                                                                                                  #  XDELVFLG      RESETS XDELVFLG FOR LAMBERT VG COMPUTATIONS
000076:
000077:                                                                                                  #  ALARMS OR ABORTS      NONE **
000078:
000079:                                                                                                  #  RESTARTS ARE VIA GROUP 4 **
000080:
000081: 34,2000                                           SETLOC   GLM
000082: 34,2000                                           BANK
000083:
000084: 34,3254  E7,1455                                  EBANK=   SUBEXIT
000085:
000086: 34,3254                                           COUNT*   $$/P31
000087: 34,3254           05413        P31LM              TC       PHASCHNG
000088: 34,3255           05024                           OCT      05024
000089: 34,3256           13000                           OCT      13000
000090:
000091: 34,3257           33342                           CAF      V06N33*                               #  TIG
000092: 34,3260           04655                           TC       BANKCALL
000093: 34,3261           20406                           CADR     GOFLASH
000094: 34,3262           14106                           TCF      GOTOPOOH
000095: 34,3263           13265                           TCF      +2
000096: 34,3264           13257                           TCF      -5
000097:
000098: 34,3265           06014                           TC       INTPRET
000099: 34,3266           77624                           CALL
000100: 34,3267           71345                                    P31INT
000101: 34,3270           77776                           EXIT
000102:
000103: 34,3271           33343                           CAF      V06N42*                               #  HAPO, HPER, VGDISP
000104: 34,3272           04655                           TC       BANKCALL
000105: 34,3273           20544                           CADR     GOFLASHR
000106: 34,3274           14106                           TCF      GOTOPOOH
000107: 34,3275           13302                           TCF      +5
000108: 34,3276           13271                           TCF      -5
000109: 34,3277           05413                           TC       PHASCHNG
000110: 34,3300           00014                           OCT      00014
000111: 34,3301           05225                           TC       ENDOFJOB
000112:
000113: 34,3302           04655                           TC       BANKCALL
000114: 34,3303           72465                           CADR     COMPTGO
000115: 34,3304           33344                           CAF      V16N35
000116: 34,3305           03311                           TC       VNPOOH2
000117: 34,3306           35006                           CAF      POSMAX
000118: 34,3307           55175                           TS       DISPDEX
000119: 34,3310           03325                           TC       P31EXIT
000120:
000121: 34,3311           00006        VNPOOH2            EXTEND
000122: 34,3312           23452                           QXCH     RTRN
000123: 34,3313           55602                           TS       VERBNOUN
000124: 34,3314           31602                           CA       VERBNOUN
000125: 34,3315           04655                           TCR      BANKCALL
000126: 34,3316           20544                           CADR     GOFLASHR
000127: 34,3317           04106                           TC       GOTOPOOH
000128: 34,3320           01452                           TC       RTRN
000129: 34,3321           13314                           TCF      -5
000130: 34,3322           05413                           TC       PHASCHNG
000131: 34,3323           00014                           OCT      00014
000132: 34,3324           05225                           TC       ENDOFJOB
000133:
000134: 34,3325           04655        P31EXIT            TC       BANKCALL
000135: 34,3326           11064                           CADR     R02BOTH
000136: 34,3327           06014                           TC       INTPRET
000137: 34,3330           41575                           VLOAD    PUSH
000138: 34,3331           03363                                    DELVEET3
000139: 34,3332           77624                           CALL
000140: 34,3333           20002                                    MIDGIM
000141: 34,3334           77624                           CALL
000142: 34,3335           72000                                    REVN1645
000143: 34,3336           77776                           EXIT
000144: 34,3337           05575                           TC       DOWNFLAG
000145: 34,3340           00045                           ADRES    XDELVFLG
000146: 34,3341           04106                           TC       GOTOPOOH
000147:
000148: 34,3342           01441        V06N33*            VN       0633
000149: 34,3343           01452        V06N42*            VN       0642
000150: 34,3344           04043        V16N35             VN       1635
000151:
000152: 34,3345           71220        P31INT             STQ      DLOAD
000153: 34,3346           03617                                    QTEMP
000154: 34,3347           03425                                    TIG
000155: 34,3350           34041                           STCALL   TDEC1                                 #  INTEGRATE STATE VECTORS TO TIG
000156: 34,3351           27030                                    LEMPREC
000157: 34,3352           77330                           SXA,1    VLOAD
000158: 34,3353           02773                                    P30EXIT
000159: 34,3354           00025                                    VATT1
000160: 34,3355           26347                           STOVL    VINIT
000161: 34,3356           00017                                    RATT1
000162: 34,3357           02341                           STORE    RINIT
000163: 34,3360           67201                           SETPD    SLOAD
000164: 34,3361           00001                                    0D
000165: 34,3362           14423                                    P31ZERO
000166: 34,3363           41525                           PDDL     PUSH                                  #  E4 AND NUMIT = 0
000167: 34,3364           31410                                    P31ANGLE
000168: 34,3365           77624                           CALL
000169: 34,3366           22022                                    INITVEL
000170: 34,3367           77350                           LXA,1    VLOAD
000171: 34,3370           02773                                    P30EXIT
000172: 34,3371           03363                                    DELVEET3
000173: 34,3372           77646                           ABVAL
000174: 34,3373           27651                           STOVL    VGDISP
000175: 34,3374           02357                                    VIPRIME
000176: 34,3375           26744                           STOVL    VVEC
000177: 34,3376           02341                                    RINIT
000178: 34,3377           36655                           STCALL   RVEC
000179: 34,3400           46116                                    PERIAPO
000180: 34,3401           77745                           DLOAD
000181: 34,3402           00005                                    4D
000182: 34,3403           16261                           STODL    HAPO
000183: 34,3404           00011                                    8D
000184: 34,3405           36263                           STCALL   HPER
000185: 34,3406           03617                                    QTEMP
000186:
000187: 34,3407           01616 07071  P31ANGLE           2DEC     .0555555555
000188: 34,3411  26,2422               P31ZERO            =        1BITDP
000189:
000190:
000191:

End of include-file GENERAL_LAMBERT_AIMPOINT_GUIDANCE.agc.  Parent file is MAIN.agc


