
Source Code


000002:                                                                                                  ## Copyright:   Public domain.
000003:                                                                                                  ## Filename:    GIMBAL_LOCK_AVOIDANCE.agc
000004:                                                                                                  ## Purpose:     A section of a reconstructed, mixed version of Sundance
000005:                                                                                                  ##              It is part of the reconstructed source code for the Lunar
000006:                                                                                                  ##              Module's (LM) Apollo Guidance Computer (AGC) for Apollo 9.
000007:                                                                                                  ##              No original listings of this program are available;
000008:                                                                                                  ##              instead, this file was created via disassembly of dumps
000009:                                                                                                  ##              of various revisions of Sundance core rope modules.
000010:                                                                                                  ## Assembler:   yaYUL
000011:                                                                                                  ## Contact:     Ron Burkey <info@sandroid.org>.
000012:                                                                                                  ## Website:     www.ibiblio.org/apollo/index.html
000013:                                                                                                  ## Mod history: 2020-06-17 MAS  Created from Luminary 69.
000014:
000015:                                                                                                  ## Sundance 302
000016: 15,2000                                           BANK     15
000017:
000018: 22,2000                                           SETLOC   KALCMON1
000019: 22,2000                                           BANK
000020:
000021:                                                                                                  #  DETECTING GIMBAL LOCK
000022: 22,2740  22,2740               LOCSKIRT           EQUALS   NOGIMLOC
000023:
000024: 22,2740           77614        NOGIMLOC           SET
000025: 22,2741           01074                                    CALCMAN3
000026: 22,2742           70740        WCALC              LXC,1    DLOAD*
000027: 22,2743           01331                                    RATEINDX                              #  CHOOSE THE DESIRED MANEUVER RATE
000028: 22,2744           04766                                    ARATE,1                               #  FROM A LIST OF FOUR
000029: 22,2745           45002                           SR4      CALL                                  #  COMPUTE THE INCREMENTAL ROTATION MATRIX
000030: 22,2746           44523                                    DELCOMP                               #  DEL CORRESPONDING TO A 1 SEC ROTATION
000031:                                                                                                  #  ABOUT COF
000032: 22,2747           74343                           DLOAD*   VXSC
000033: 22,2750           04766                                    ARATE,1
000034: 22,2751           03266                                    COF
000035: 22,2752           17323                           STODL    BRATE                                 #  COMPONENT MANEUVER RATES 45 DEG/SEC
000036: 22,2753           03333                                    AM
000037: 22,2754           55605                           DMP      DDV*
000038: 22,2755           04776                                    ANGLTIME
000039: 22,2756           04766                                    ARATE,1
000040: 22,2757           77661                           SR
000041: 22,2760           20606                                    5
000042: 22,2761           03331                           STORE    TM                                    #  MANEUVER EXECUTION TIME SCALED AS T2
000043: 22,2762           77614                           SETGO
000044: 22,2763           01035                                    CALCMAN2                              #  0(OFF) = CONTINUE MANEUVER
000045: 22,2764           45004                                    NEWANGL    +1                         #  1(ON) = START MANEUVER
000046:
000047:                                                                                                  #  THE FOUR SELECTABLE FREE FALL MANEUVER RATES SELECTED BY
000048:                                                                                                  #  LOADING RATEINDX WITH 0, 2, 4, 6, RESPECTIVELY
000049:
000050: 22,2765           00221 24255  ARATE              2DEC     .0088888888                            #  = 0.2 DEG/SEC         $ 22.5 DEG/SEC
000051:
000052: 22,2767           00554 02660                     2DEC     .0222222222                            #  = 0.5 DEG/SEC         $ 22.5 DEG/SEC
000053:
000054: 22,2771           02660 13301                     2DEC     .0888888888                            #  = 2.0 DEG/SEC         $ 22.5 DEG/SEC
000055:
000056: 22,2773           16161 30707                     2DEC     .4444444444                            #  = 10.0 DEG/SEC        $ 22.5 DEG/SEC
000057:
000058: 22,2775           00003 04000  ANGLTIME           2DEC     .0001907349                            #  = 100B-19 FUDGE FACTOR TO CONVERT
000059:                                                                                                  #  MANEUVER ANGLE TO MANEUVER TIME
000060:
000061:

End of include-file GIMBAL_LOCK_AVOIDANCE.agc.  Parent file is MAIN.agc


