
Source Code


000002:                                                                                                  ## Copyright:   Public domain.
000003:                                                                                                  ## Filename:    GROUND_TRACKING_DETERMINATION_PROGRAM_-_P21.agc
000004:                                                                                                  ## Purpose:     A section of a reconstructed, mixed version of Sundance
000005:                                                                                                  ##              It is part of the reconstructed source code for the Lunar
000006:                                                                                                  ##              Module's (LM) Apollo Guidance Computer (AGC) for Apollo 9.
000007:                                                                                                  ##              No original listings of this program are available;
000008:                                                                                                  ##              instead, this file was created via disassembly of dumps
000009:                                                                                                  ##              of various revisions of Sundance core rope modules.
000010:                                                                                                  ## Assembler:   yaYUL
000011:                                                                                                  ## Contact:     Ron Burkey <info@sandroid.org>.
000012:                                                                                                  ## Website:     www.ibiblio.org/apollo/index.html
000013:                                                                                                  ## Mod history: 2020-06-17 MAS  Created from Luminary 69.
000014:
000015:                                                                                                  ## Sundance 302
000016:
000017:                                                                                                  #  GROUND TRACKING DETERMINATION PROGRAM P21
000018:                                                                                                  #  PROGRAM DESCRIPTION
000019:                                                                                                  #  MOD NO - 1
000020:                                                                                                  #  MOD BY - N. M. NEVILLE
000021:
000022:                                                                                                  #  FUNCTIONAL DECRIPTION -
000023:
000024:                                                                                                  #  TO PROVIDE THE ASTRONAUT DETAILS OF THE LM OR CSM GROUND TRACK WITHOUT
000025:                                                                                                  #  THE NEED FOR GROUND COMMUNICATION (REQUESTED BY DSKY).
000026:                                                                                                  #  CALLING SEQUENCE -
000027:
000028:                                                                                                  #        ASTRONAUT REQUEST THROUGH DSKY V37E21E
000029:                                                                                                  #  SUBROUTINES CALLED -
000030:
000031:                                                                                                  #  GOPERF4
000032:                                                                                                  #  GOFLASH
000033:                                                                                                  #  THISPREC
000034:                                                                                                  #  OTHPREC
000035:                                                                                                  #  LAT-LONG
000036:
000037:                                                                                                  #  NORMAL EXIT MODES -
000038:
000039:                                                                                                  #  ASTRONAUT REQUEST TROUGH DSKY TO TERMINATE PROGRAM V34E
000040:                                                                                                  #  ALARM OR ABORT EXIT MODES -
000041:
000042:                                                                                                  #  NONE
000043:                                                                                                  #  OUTPUT -
000044:
000045:                                                                                                  #  OCTAL DISPLAY OF OPTION CODE AND VEHICLE WHOSE GROUND TRACK IS TO BE
000046:                                                                                                  #  COMPUTED
000047:                                                                                                  #        OPTION CODE     00002
000048:                                                                                                  #        THIS            00001
000049:                                                                                                  #        OTHER           00002
000050:                                                                                                  #  DECIMAL DISPLAY OF TIME TO BE INTEGRATED TO HOURS , MINUTES , SECONDS
000051:                                                                                                  #  DECIMAL DISPLAY OF LAT,LONG,ALT
000052:
000053:                                                                                                  #  ERASABLE INITIALIZATION REQUIRED
000054:
000055:                                                                                                  #  AX0           2DEC    4.652459653 E-5 RADIANS         %68-69 CONSTANTS"
000056:
000057:                                                                                                  #  -AY0          2DEC    2.147535898 E-5 RADIANS
000058:
000059:                                                                                                  #  AZ0           2DEC    .7753206164     REVOLUTIONS
000060:                                                                                                  #  FOR LUNAR ORBITS 504LM VECTOR IS NEEDED
000061:
000062:                                                                                                  #  504LM         2DEC    -2.700340600 E-5 RADIANS
000063:
000064:                                                                                                  #  504LM _2      2DEC    -7.514128400 E-4 RADIANS
000065:
000066:                                                                                                  #  504LM _4      2DEC    _2.553198641 E-4 RADIANS
000067:
000068:                                                                                                  #  NONE
000069:                                                                                                  #  DEBRIS
000070:
000071:                                                                                                  #  CENTRALS-A,Q,L
000072:                                                                                                  #  OTHER - THOSE USED BY THE ABOVE LISTED SUBROUTINES
000073:                                                                                                  #  SEE LEMPREC, LAT-LONG
000074:
000075: 34,3411  30,2000                                  SBANK=   LOWSUPER                              #  FOR LOW 2CADR'S.
000076:
000077: 33,2000                                           BANK     33
000078: 24,2000                                           SETLOC   P20S
000079: 24,2000                                           BANK
000080:
000081: 24,3116  E7,1745                                  EBANK=   P21TIME
000082: 24,3116                                           COUNT*   $$/P21
000083: 24,3116           35026        PROG21             CAF      ONE
000084: 24,3117           55156                           TS       OPTION2                               #  ASSUMED VEHICLE IS LM, R2 = 00001
000085: 24,3120           35025                           CAF      BIT2                                  #  OPTION 2
000086: 24,3121           04655                           TC       BANKCALL
000087: 24,3122           20542                           CADR     GOPERF4
000088: 24,3123           04106                           TC       GOTOPOOH                              #  TERMINATE
000089: 24,3124           03126                           TC       +2                                    #  PROCEED VALUE OF ASSUMED VEHICLE OK
000090: 24,3125           03120                           TC       -5                                    #  R2 LOADED THROUGH DSKY
000091: 24,3126           33217        P21PROG1           CAF      V6N34                                 #  LOAD DESIRED TIME OF LAT-LONG.
000092: 24,3127           04655                           TC       BANKCALL
000093: 24,3130           20406                           CADR     GOFLASH
000094: 24,3131           04106                           TC       GOTOPOOH                              #  TERM
000095: 24,3132           03134                           TC       +2                                    #  PROCEED VALUES OK
000096: 24,3133           03126                           TC       -5                                    #  TIME LOADED THROUGH DSKY
000097: 24,3134           06014                           TC       INTPRET
000098: 24,3135           77745                           DLOAD
000099: 24,3136           01047                                    DSPTEM1
000100: 24,3137           03746                           STORE    P21TIME
000101: 24,3140           45335                           SLOAD    DSU
000102: 24,3141           01157                                    OPTION2
000103: 24,3142           11215                                    P21ONENN
000104: 24,3143           71230                           BHIZ     DLOAD
000105: 24,3144           51157                                    P21PROG2                              #  VEHICLE TO BE INTEGRATED IS LEM
000106: 24,3145           03746                                    P21TIME                               #  VEHICLE TO BE INTEGRATED IS CSM
000107: 24,3146           34041                           STCALL   TDEC1                                 #  INTEGRATE TO TIME SPECIFIED IN TDEC
000108: 24,3147           27014                                    OTHPREC                               #  ADJUST UNITS FOR LAT-LONG ROUTINE
000109: 24,3150           46135        P21PROGA           SLOAD    BHIZ
000110: 24,3151           00050                                    X2
000111: 24,3152           51165                                    P21PROG3
000112: 24,3153           43175                           VLOAD    SETGO
000113: 24,3154           00001                                    RATT
000114: 24,3155           01423                                    LUNAFLAG
000115: 24,3156           51170                                    P21PROG4
000116: 24,3157           77745        P21PROG2           DLOAD
000117: 24,3160           03746                                    P21TIME
000118: 24,3161           34041                           STCALL   TDEC1
000119: 24,3162           27030                                    THISPREC
000120: 24,3163           77650                           GOTO
000121: 24,3164           51150                                    P21PROGA
000122: 24,3165           43175        P21PROG3           VLOAD    CLEAR
000123: 24,3166           00001                                    RATT
000124: 24,3167           01663                                    LUNAFLAG
000125: 24,3170           16034        P21PROG4           STODL    ALPHAV
000126: 24,3171           00015                                    TAT
000127: 24,3172           45014                           CLEAR    CALL
000128: 24,3173           00662                                    ERADFLAG
000129: 24,3174           26323                                    LAT-LONG
000130: 24,3175           77776                           EXIT
000131: 24,3176           33216                           CAF      V06N43                                #  DISPLAY LAT,LONG,ALT
000132: 24,3177           04655                           TC       BANKCALL                              #  LAT,LONG = 1/2 REVS B0
000133: 24,3200           20406                           CADR     GOFLASH                               #  ALT = KM B14
000134: 24,3201           04106                           TC       GOTOPOOH                              #  TERM
000135: 24,3202           04106                           TC       GOTOPOOH
000136: 24,3203           06014                           TC       INTPRET                               #  V32E RECYCLE
000137: 24,3204           43345                           DLOAD    DAD
000138: 24,3205           03746                                    P21TIME
000139: 24,3206           11213                                    600SEC                                #  600 SECONDS OR 10 MIN
000140: 24,3207           01047                           STORE    DSPTEM1
000141: 24,3210           77634                           RTB
000142: 24,3211           51126                                    P21PROG1
000143: 24,3212           00003 25140  600SEC             2DEC     60000      B-28                       #  10 MIN
000144:
000145: 24,3214           00001        P21ONENN           OCT      00001                                 #  NEEDED TO DETERMINE VEHICLE
000146: 24,3215           00000                           OCT      00000                                 #  TO BE INTEGRATED
000147: 24,3216           01453        V06N43             VN       00643
000148: 24,3217           01442        V6N34              VN       00634
000149:
000150:

End of include-file GROUND_TRACKING_DETERMINATION_PROGRAM_-_P21.agc.  Parent file is MAIN.agc


