
Source Code


000002:                                                                                                  ## Copyright:   Public domain.
000003:                                                                                                  ## Filename:    IMU_COMPENSATION_PACKAGE.agc
000004:                                                                                                  ## Purpose:     A section of a reconstructed, mixed version of Sundance
000005:                                                                                                  ##              It is part of the reconstructed source code for the Lunar
000006:                                                                                                  ##              Module's (LM) Apollo Guidance Computer (AGC) for Apollo 9.
000007:                                                                                                  ##              No original listings of this program are available;
000008:                                                                                                  ##              instead, this file was created via disassembly of dumps
000009:                                                                                                  ##              of various revisions of Sundance core rope modules.
000010:                                                                                                  ## Assembler:   yaYUL
000011:                                                                                                  ## Contact:     Ron Burkey <info@sandroid.org>.
000012:                                                                                                  ## Website:     www.ibiblio.org/apollo/index.html
000013:                                                                                                  ## Mod history: 2020-06-17 MAS  Created from Luminary 69.
000014:
000015:                                                                                                  ## Sundance 302
000016: 07,2622                                           BANK     7
000017: 06,2000                                           SETLOC   IMUCOMP
000018: 06,2000                                           BANK
000019:
000020: 06,3277  E3,1460                                  EBANK=   NBDX
000021:
000022: 06,3277                                           COUNT*   $$/ICOMP
000023: 06,3277           33531        1/PIPA             CAF      LGCOMP                                #  SAVE EBANK OF CALLING PROGRAM
000024: 06,3300           56003                           XCH      EBANK
000025: 06,3301           54163                           TS       MODE
000026:
000027: 06,3302           11477                           CCS      GCOMPSW                               #  BYPASS IF GCOMPSW NEGATIVE
000028: 06,3303           13306                           TCF      +3
000029: 06,3304           13306                           TCF      +2
000030: 06,3305           13422                           TCF      IRIG1                                 #  RETURN
000031:
000032: 06,3306           35024        1/PIPA1            CAF      FOUR                                  #  PIPAZ, PIPAY, PIPAX
000033: 06,3307           54132                           TS       BUF        +2
000034:
000035: 06,3310           50132                           INDEX    BUF        +2
000036: 06,3311           31453                           CA       PIPASCF                               #  (P.P.M.) X 2(-9)
000037: 06,3312           00006                           EXTEND
000038: 06,3313           50132                           INDEX    BUF        +2
000039: 06,3314           71211                           MP       DELVX                                 #  (PP) X 2(+14) NOW (PIPA PULSES) X 2(+5)
000040: 06,3315           54002                           TS       Q                                     #  SAVE MAJOR PART
000041:
000042: 06,3316           30001                           CA       L                                     #  MINOR PART
000043: 06,3317           00006                           EXTEND
000044: 06,3320           75021                           MP       BIT6                                  #  SCALE 2(+9)   SHIFT RIGHT 9
000045: 06,3321           50132                           INDEX    BUF        +2
000046: 06,3322           55212                           TS       DELVX      +1                         #  FRACTIONAL PIPA PULSES SCALED 2(+14)
000047:
000048: 06,3323           30002                           CA       Q                                     #  MAJOR PART
000049: 06,3324           00006                           EXTEND
000050: 06,3325           75021                           MP       BIT6                                  #  SCALE 2(+9)   SHIFT RIGHT 9
000051: 06,3326           50132                           INDEX    BUF        +2
000052: 06,3327           21212                           DAS      DELVX                                 #  (PIPAI) + (PIPAI)(SFE)
000053:


000057: 06,3330           50132                           INDEX    BUF        +2
000058: 06,3331           41452                           CS       PIPABIAS                              #  (PIPA PULSES)/(CS) X 2(-5)             *
000059: 06,3332           00006                           EXTEND
000060: 06,3333           71075                           MP       1/PIPADT                              #  (CS) X 2(+8) NOW (PIPA PULSES) X 2(+3) *
000061: 06,3334           00006                           EXTEND
000062: 06,3335           75023                           MP       BIT4                                  #  SCALE 2(+11) SHIFT RIGHT 11            *
000063: 06,3336           50132                           INDEX    BUF        +2
000064: 06,3337           21212                           DAS      DELVX                                 #  (PIPAI) + (PIPAI)(SFE) - (BIAS)(DELTAT)
000065:
000066: 06,3340           10132                           CCS      BUF        +2                         #  PIPAZ, PIPAY, PIPAX
000067: 06,3341           67721                           AD       NEG1
000068: 06,3342           13307                           TCF      1/PIPA1    +1
000069: 06,3343           13344                           NOOP                                           #  LESS THAN ZERO IMPOSSIBLE
000070:
000071: 06,3344           55477        IRIGCOMP           TS       GCOMPSW                               #  INDICATE COMMANDS 2 PULSES OR LESS.
000072: 06,3345           54130                           TS       BUF                                   #  INDEX COUNTER . IRIGX, IRIGY, IRIGZ.
000073:
000074: 06,3346           00006        IRIGX              EXTEND
000075: 06,3347           41212                           DCS      DELVX                                 #  (PIPA PULSES) X 2(+14)
000076: 06,3350           52155                           DXCH     MPAC
000077: 06,3351           31463                           CA       ADIAX                                 #  (GYRO PULSES)/(PIPA PULSE) X 2(-6)            *
000078: 06,3352           03425                           TC       GCOMPSUB                              #  -(ADIAX)(PIPAX)          (GYRO PULSES) X 2(+14)
000079:
000080: 06,3353           00006                           EXTEND                                         #
000081: 06,3354           41214                           DCS      DELVY                                 #        (PIPA PULSES) X 2(+14)
000082: 06,3355           52155                           DXCH     MPAC                                  #
000083: 06,3356           41466                           CS       ADSRAX                                #        (GYRO PULSES)/(PIPA PULSE) X 2(-6)      *
000084: 06,3357           03425                           TC       GCOMPSUB                              #        -(ADSRAX)(PIPAY)   (GYRO PULSES) X 2(+14)
000085:
000086: 06,3360           41460                           CS       NBDX                                  #  (GYRO PULSES)/(CS) X 2(-5)
000087: 06,3361           03454                           TC       DRIFTSUB                              #  -(NBOX)(DELTAT)   (GYRO PULSES) X 2(+14)
000088:
000089: 06,3362           00006        IRIGY              EXTEND
000090: 06,3363           41214                           DCS      DELVY                                 #  (PIPA PULSES) X 2(+14)
000091: 06,3364           52155                           DXCH     MPAC
000092: 06,3365           31464                           CA       ADIAY                                 #  (GYRO PULSES)/(PIPA PULSE) X 2(-6)            *
000093: 06,3366           03425                           TC       GCOMPSUB                              #  -(ADIAY)(PIPAY)          (GYRO PULSES) X 2(+14)
000094:
000095: 06,3367           00006                           EXTEND
000096: 06,3370           41216                           DCS      DELVZ                                 #  (PIPA PULSES) X 2(+14)
000097: 06,3371           52155                           DXCH     MPAC
000098: 06,3372           41467                           CS       ADSRAY                                #  (GYRO PULSES)/(PIPA PULSE) X 2(-6)            *
000099: 06,3373           03425                           TC       GCOMPSUB                              #  +(ADSRAY)(PIPAZ)              (GYRO PULSES) X 2(+14)
000100:
000101: 06,3374           41461                           CS       NBDY                                  #  (GYRO PULSES)/(CS) X 2(-5)
000102: 06,3375           03454                           TC       DRIFTSUB                              #  -(NBDY)(DELTAT)   (GYRO PULSES) X 2(+14)
000103:
000104: 06,3376           00006        IRIGZ              EXTEND
000105: 06,3377           41214                           DCS      DELVY                                 #  (PIPA PULSES) X 2(+14)
000106: 06,3400           52155                           DXCH     MPAC
000107: 06,3401           31470                           CA       ADSRAZ                                #  (GYRO PULSES)/(PIPA PULSE) X 2(-6)            *
000108: 06,3402           03425                           TC       GCOMPSUB                              #  -(ADSRAZ)(PIPAY)        (GYRO PULSES) X 2(+14)
000109:
000110: 06,3403           00006                           EXTEND
000111: 06,3404           41216                           DCS      DELVZ                                 #  (PIPA PULSES) X 2(+14)
000112: 06,3405           52155                           DXCH     MPAC
000113: 06,3406           31465                           CA       ADIAZ                                 #  (GYRO PULSES)/(PIPA PULSE) X 2(-6)            *
000114: 06,3407           03425                           TC       GCOMPSUB                              #  -(ADIAZ)(PIPAZ)          (GYRO PULSES) X 2(+14)
000115:
000116: 06,3410           31462                           CA       NBDZ                                  #  (GYRO PULSES)/(CS) X 2(-5)
000117: 06,3411           03454                           TC       DRIFTSUB                              #  +(NBDZ)(DELTAT)   (GYRO PULSES) X 2(+14)
000118:
000119: 06,3412           11477                           CCS      GCOMPSW                               #  ARE GYRO COMMANDS GREATER THAN 2 PULSES
000120: 06,3413           13415                           TCF      +2                                    #  YES   SEND OUT GYRO TORQUING COMMANDS.
000121: 06,3414           13422                           TCF      IRIG1                                 #  NO    RETURN
000122:
000123: 06,3415           35101                           CA       PRIO21                                #  PRIO GREATER THAN SERVICER
000124: 06,3416           05142                           TC       NOVAC                                 #  SEND OUT GYRO TORQUING COMMANDS.
000125: 06,3417  E3,1460                                  EBANK=   NBDX
000126: 06,3417           03507 14063                     2CADR    1/GYRO
000127:
000128: 06,3421           00003                           RELINT
000129: 06,3422           30163        IRIG1              CA       MODE                                  #  RESTORE CALLERS EBANK
000130: 06,3423           54003                           TS       EBANK
000131: 06,3424           14670                           TCF      SWRETURN
000132:
000133: 06,3425           56154        GCOMPSUB           XCH      MPAC                                  #  ADIA OR ADSRA COEFFICIENT ARRIVES IN A
000134: 06,3426           00006                           EXTEND                                         #  C(MPAC) = (PIPA PULSES) X 2(+14)
000135: 06,3427           70154                           MP       MPAC                                  #  (GYRO PULSES)/(PIPA PULSE) X 2(-6)            *
000136: 06,3430           52123                           DXCH     VBUF                                  #  NOW = (GYRO PULSES) X 2(+8)                   *
000137:
000138: 06,3431           30155                           CA       MPAC       +1                         #  MINOR PART PIPA PULSES
000139: 06,3432           00006                           EXTEND
000140: 06,3433           70154                           MP       MPAC                                  #  ADIA OR ADSRA
000141: 06,3434           54001                           TS       L
000142: 06,3435           35030                           CAF      ZERO
000143: 06,3436           20123                           DAS      VBUF                                  #  NOW = (GYRO PULSES) X 2(+8)                   *
000144:
000145: 06,3437           30122                           CA       VBUF                                  #  PARTIAL RESULT - MAJOR
000146: 06,3440           00006                           EXTEND
000147: 06,3441           75016                           MP       BIT9                                  #  SCALE 2(+6)   SHIFT RIGHT 6                   *
000148: 06,3442           50130                           INDEX    BUF                                   #  RESULT = (GYRO PULSES) X 2(+14)
000149: 06,3443           21472                           DAS      GCOMP                                 #  HI(ADIA)(PIPAI) OR HI(ADSRA)(PIPAI)
000150:
000151: 06,3444           30123                           CA       VBUF       +1                         #  PARTIAL RESULT - MINOR
000152: 06,3445           00006                           EXTEND
000153: 06,3446           75016                           MP       BIT9                                  #  SCALE 2(+6)   SHIFT RIGHT 6                   *
000154: 06,3447           54001                           TS       L
000155: 06,3450           35030                           CAF      ZERO
000156: 06,3451           50130                           INDEX    BUF                                   #  RESULT = (GYRO PULSES) X 2(+14)
000157: 06,3452           21472                           DAS      GCOMP                                 #  (ADIA)(PIPAI) OR (ADSRA)(PIPAI)
000158:
000159: 06,3453           00002                           TC       Q
000160:
000161: 06,3454           00006        DRIFTSUB           EXTEND
000162: 06,3455           22131                           QXCH     BUF        +1
000163:
000164: 06,3456           00006                           EXTEND                                         #  C(A) = NBD    (GYRO PULSES)/(CS) X 2(-5)
000165: 06,3457           71075                           MP       1/PIPADT                              #  (CS) X 2(+8)  NOW (GYRO PULSES) X 2(+3)
000166: 06,3460           22155                           LXCH     MPAC       +1                         #  SAVE FOR FRACTIONAL COMPENSATION
000167: 06,3461           00006                           EXTEND
000168: 06,3462           75023                           MP       BIT4                                  #  SCALE 2(+11)  SHIFT RIGHT 11
000169: 06,3463           50130                           INDEX    BUF
000170: 06,3464           21472                           DAS      GCOMP                                 #  HI(NBD)(DELTAT)       (GYRO PULSES) X 2(+14)
000171:
000172: 06,3465           30155                           CA       MPAC       +1                         #  NOW MINOR PART
000173: 06,3466           00006                           EXTEND
000174: 06,3467           75023                           MP       BIT4                                  #  SCALE 2(+11)          SHIFT RIGHT 11
000175: 06,3470           54001                           TS       L
000176: 06,3471           35030                           CAF      ZERO
000177: 06,3472           50130                           INDEX    BUF                                   #  ADD IN FRACTIONAL COMPENSATION
000178: 06,3473           21472                           DAS      GCOMP                                 #  (NBD)(DELTAT)         (GYRO PULSES) X 2(+14)
000179:
000180: 06,3474           35025        DRFTSUB2           CAF      TWO                                   #  PIPAX, PIPAY, PIPAZ
000181: 06,3475           60130                           AD       BUF
000182: 06,3476           56130                           XCH      BUF
000183: 06,3477           50000                           INDEX    A
000184: 06,3500           11471                           CCS      GCOMP                                 #  ARE GYRO COMMANDS 1 PULSE OR GREATER
000185: 06,3501           13503                           TCF      +2                                    #  YES
000186: 06,3502           00131                           TC       BUF        +1                         #  NO
000187:
000188: 06,3503           73553                           MASK     COMPCHK                               #  DEC -1
000189: 06,3504           10000                           CCS      A                                     #  ARE GYRO COMMANDS GREATER THAN 2 PULSES
000190: 06,3505           55477                           TS       GCOMPSW                               #  YES - SET GCOMPSW POSITIVE
000191: 06,3506           00131                           TC       BUF        +1                         #  NO
000192:
000193: 06,3507           35024        1/GYRO             CAF      FOUR                                  #  PIPAZ, PIPAY, PIPAX
000194: 06,3510           54130                           TS       BUF
000195:
000196: 06,3511           50130                           INDEX    BUF                                   #  SCALE GYRO COMMANDS FOR IMUPULSE
000197: 06,3512           31472                           CA       GCOMP      +1                         #  FRACTIONAL PULSES
000198: 06,3513           00006                           EXTEND
000199: 06,3514           75017                           MP       BIT8                                  #  SHIFT RIGHT 7
000200: 06,3515           50130                           INDEX    BUF
000201: 06,3516           55472                           TS       GCOMP      +1                         #  FRACTIONAL PULSES SCALED
000202:
000203: 06,3517           35030                           CAF      ZERO                                  #  SET GCOMP = 0 FOR DAS INSTRUCTION
000204: 06,3520           50130                           INDEX    BUF
000205: 06,3521           57471                           XCH      GCOMP                                 #  GYRO PULSES
000206: 06,3522           00006                           EXTEND
000207: 06,3523           75017                           MP       BIT8                                  #  SHIFT RIGHT 7
000208: 06,3524           50130                           INDEX    BUF
000209: 06,3525           21472                           DAS      GCOMP                                 #  ADD THESE TO FRACTIONAL PULSES ABOVE
000210:
000211: 06,3526           10130                           CCS      BUF                                   #  PIPAZ, PIPAY, PIPAX
000212: 06,3527           67721                           AD       NEG1
000213: 06,3530           13510                           TCF      1/GYRO     +1
000214: 06,3531           01471        LGCOMP             ECADR    GCOMP                                 #  LESS THAN ZERO IMPOSSIBLE
000215:
000216: 06,3532           33531                           CAF      LGCOMP
000217: 06,3533           04655                           TC       BANKCALL
000218: 06,3534           17234                           CADR     IMUPULSE                              #  CALL GYRO TORQUING ROUTINE
000219: 06,3535           04655                           TC       BANKCALL
000220: 06,3536           17625                           CADR     IMUSTALL                              #  WAIT FOR PULSES TO GET OUT
000221: 06,3537           15225                           TCF      ENDOFJOB                              #  TEMPORARY
000222:
000223: 06,3540           35024        GCOMP1             CAF      FOUR                                  #  PIPAZ, PIPAY, PIPAX
000224: 06,3541           54130                           TS       BUF
000225:
000226: 06,3542           50130                           INDEX    BUF                                   #  RESCALE
000227: 06,3543           31472                           CA       GCOMP      +1
000228: 06,3544           00006                           EXTEND
000229: 06,3545           75017                           MP       BIT8                                  #  SHIFT MINOR PART LEFT 7 - MAJOR PART = 0
000230: 06,3546           50130                           INDEX    BUF
000231: 06,3547           23472                           LXCH     GCOMP      +1                         #  BITS 8-14 OF MINOR PART WERE = 0
000232:
000233: 06,3550           10130                           CCS      BUF                                   #  PIPAZ, PIPAY, PIPAX
000234: 06,3551           67721                           AD       NEG1
000235: 06,3552           13541                           TCF      GCOMP1     +1
000236: 06,3553           77776        COMPCHK            DEC      -1         B-14                       #  LESS THAN ZERO IMPOSSIBLE
000237: 06,3554           15225                           TCF      ENDOFJOB
000238:
000239: 06,3555           11477        NBDONLY            CCS      GCOMPSW                               #  BYPASS IF GCOMPSW NEGATIVE
000240: 06,3556           13561                           TCF      +3
000241: 06,3557           13561                           TCF      +2
000242: 06,3560           15225                           TCF      ENDOFJOB
000243:
000244: 06,3561           00004                           INHINT
000245: 06,3562           10076                           CCS      FLAGWRD2                              #  PREREAD T3RUPT MAY COINCIDE
000246: 06,3563           15225                           TCF      ENDOFJOB
000247: 06,3564           15225                           TCF      ENDOFJOB
000248: 06,3565           13566                           TCF      +1
000249:
000250: 06,3566           30025                           CA       TIME1                                 #  (CS) X 2(+14)
000251: 06,3567           57075                           XCH      1/PIPADT                              #  PREVIOUS TIME
000252: 06,3570           00003                           RELINT
000253: 06,3571           40000                           COM
000254: 06,3572           61075                           AD       1/PIPADT                              #  PRESENT TIME - PREVIOUS TIME
000255: 06,3573           10000        NBD2               CCS      A                                     #  CALCULATE ELAPSED TIME
000256: 06,3574           65026                           AD       ONE                                   #  NO TIME1 OVERFLOW
000257: 06,3575           13602                           TCF      NBD3                                  #  RESTORE TIME DIFFERENCE AND JUMP
000258: 06,3576           13600                           TCF      +2                                    #  TIME1 OVERFLOW
000259: 06,3577           15225                           TCF      ENDOFJOB                              #  IF ELAPSED TIME = 0  (DIFFERENCE = -0)
000260:
000261: 06,3600           40000                           COM                                            #  CALCULATE ABSOLUTE DIFFERENCE
000262: 06,3601           65006                           AD       POSMAX
000263:
000264: 06,3602           00006        NBD3               EXTEND                                         #  C(A) = DELTAT         (CS) X 2(+14)
000265: 06,3603           75015                           MP       BIT10                                 #  SHIFT RIGHT 5
000266: 06,3604           52123                           DXCH     VBUF
000267: 06,3605           00006                           EXTEND
000268: 06,3606           30123                           DCA      VBUF
000269: 06,3607           52155                           DXCH     MPAC                                  #  DELTAT NOW SCALED (CS) X 2(+19)
000270:
000271: 06,3610           35030                           CAF      ZERO
000272: 06,3611           55477                           TS       GCOMPSW                               #  INDICATE COMMANDS 2 PULSES OR LESS
000273: 06,3612           54130                           TS       BUF                                   #  PIPAX, PIPAY, PIPAZ
000274:
000275: 06,3613           41460                           CS       NBDX                                  #  (GYRO PULSES)/(CS) X 2(-5)
000276: 06,3614           03632                           TC       FBIASSUB                              #  -(NBDX)(DELTAT)    (GYRO PULSES) X 2(+14)
000277:
000278: 06,3615           00006                           EXTEND
000279: 06,3616           40123                           DCS      VBUF
000280: 06,3617           52155                           DXCH     MPAC                                  #  DELTAT SCALED (CS) X 2(+19)
000281: 06,3620           31461                           CA       NBDY                                  #  (GYRO PULSES)/(CS) X 2(-5)
000282: 06,3621           03632                           TC       FBIASSUB                              #  -(NBDY)(DELTAT)    (GYRO PULSES) X 2(+14)
000283:
000284: 06,3622           00006                           EXTEND
000285: 06,3623           40123                           DCS      VBUF
000286: 06,3624           52155                           DXCH     MPAC                                  #  DELTAT SCALED (CS) X 2(+19)
000287: 06,3625           41462                           CS       NBDZ                                  #  (GYRO PULSES)/(CS) X 2(-5)
000288: 06,3626           03632                           TC       FBIASSUB                              #  +(NBDZ)(DELTAT)    (GYRO PULSES) X 2 (+14)
000289:
000290: 06,3627           11477                           CCS      GCOMPSW                               #  ARE GYRO COMMANDS GREATER THAN 2 PULSES
000291: 06,3630           13507                           TCF      1/GYRO                                #  YES
000292: 06,3631           15225                           TCF      ENDOFJOB                              #  NO
000293:
000294: 06,3632           56002        FBIASSUB           XCH      Q
000295: 06,3633           54131                           TS       BUF        +1
000296:
000297: 06,3634           30002                           CA       Q                                     #  NBD SCALED (GYRO PULSES)/(CS) X 2(-5)
000298: 06,3635           00006                           EXTEND
000299: 06,3636           70154                           MP       MPAC                                  #  DELTAT SCALED (CS) X 2(+19)
000300: 06,3637           50130                           INDEX    BUF
000301: 06,3640           21472                           DAS      GCOMP                                 #  HI(NBD)(DELTAT)       (GYRO PULSES) X 2(+14)
000302:
000303: 06,3641           30002                           CA       Q                                     #  NOW FRACTIONAL PART
000304: 06,3642           00006                           EXTEND
000305: 06,3643           70155                           MP       MPAC       +1
000306: 06,3644           54001                           TS       L
000307: 06,3645           35030                           CAF      ZERO
000308: 06,3646           50130                           INDEX    BUF
000309: 06,3647           21472                           DAS      GCOMP                                 #  (NBD)(DELTAT)         (GYRO PULSES) X 2(+14)
000310:
000311: 06,3650           13474                           TCF      DRFTSUB2                              #  CHECK MAGNITUDE OF COMPENSATION
000312:
000313: 06,3651           35025        NORMBIAS           CAF      TWO
000314: 06,3652           05501                           TC       NEWPHASE
000315: 06,3653           00005                           OCT      5
000316: 06,3654           00004                           INHINT
000317: 06,3655           35011                           CAF      PRIO20
000318: 06,3656           05155                           TC       FINDVAC
000319: 06,3657  E7,1472                                  EBANK=   DVCNTR
000320: 06,3657           02355 66067                     2CADR    NORMLIZE
000321:
000322: 06,3661           04655        LASTBIAS           TC       BANKCALL
000323: 06,3662           17204                           CADR     PIPUSE
000324:
000325: 06,3663           11477                           CCS      GCOMPSW
000326: 06,3664           13667                           TCF      +3
000327: 06,3665           13667                           TCF      +2
000328: 06,3666           15225                           TCF      ENDOFJOB
000329:
000330: 06,3667           37670                           CAF      PRIO31                                #  2 SECONDS SCALED (CS) X 2(+8)
000331: 06,3670           57075                           XCH      1/PIPADT
000332: 06,3671           40000                           COM
000333: 06,3672           61234                           AD       PIPTIME    +1
000334: 06,3673           13573                           TCF      NBD2
000335:
000336: 06,3674           33531        GCOMPZER           CAF      LGCOMP                                #  ROUTINE TO ZERO GCOMP BEFORE FIRST
000337: 06,3675           56003                           XCH      EBANK                                 #  CALL TO 1/PIPA
000338: 06,3676           54163                           TS       MODE
000339:
000340: 06,3677           35030                           CAF      ZERO
000341: 06,3700           55477                           TS       GCOMPSW
000342: 06,3701           55471                           TS       GCOMP
000343: 06,3702           55472                           TS       GCOMP      +1
000344: 06,3703           55473                           TS       GCOMP      +2
000345: 06,3704           55474                           TS       GCOMP      +3
000346: 06,3705           55475                           TS       GCOMP      +4
000347: 06,3706           55476                           TS       GCOMP      +5
000348:
000349: 06,3707           30163                           CA       MODE
000350: 06,3710           54003                           TS       EBANK
000351: 06,3711           14670                           TCF      SWRETURN                              #  RETURN TO CALLER

End of include-file IMU_COMPENSATION_PACKAGE.agc.  Parent file is MAIN.agc


