
Source Code


000002:                                                                                                  ## Copyright:   Public domain.
000003:                                                                                                  ## Filename:    INFLIGHT_ALIGNMENT_ROUTINES.agc
000004:                                                                                                  ## Purpose:     A section of a reconstructed, mixed version of Sundance
000005:                                                                                                  ##              It is part of the reconstructed source code for the Lunar
000006:                                                                                                  ##              Module's (LM) Apollo Guidance Computer (AGC) for Apollo 9.
000007:                                                                                                  ##              No original listings of this program are available;
000008:                                                                                                  ##              instead, this file was created via disassembly of dumps
000009:                                                                                                  ##              of various revisions of Sundance core rope modules.
000010:                                                                                                  ## Assembler:   yaYUL
000011:                                                                                                  ## Contact:     Ron Burkey <info@sandroid.org>.
000012:                                                                                                  ## Website:     www.ibiblio.org/apollo/index.html
000013:                                                                                                  ## Mod history: 2020-06-17 MAS  Created from Luminary 69.
000014:
000015:                                                                                                  ## Sundance 302
000016:
000017: 22,3644                                           BANK     22
000018: 23,2000                                           SETLOC   INFLIGHT
000019: 23,2000                                           BANK
000020:
000021: 23,2757  E5,1642                                  EBANK=   XSM
000022:
000023:                                                                                                  #  CALCGTA COMPUTES THE GYRO TORQUE ANGLES REQUIRED TO BRING THE STABLE MEMBER INTO THE DESIRED ORIENTATION.
000024:
000025:                                                                                                  #  THE INPUT IS THE DESIRED STABLE MEMBER COORDINATES REFERRED TO PRESENT STABLE MEMBER COORDINATES. THE THREE
000026:                                                                                                  #  HALF-UNIT VECTORS ARE STORED AT XDC, YDC, AND ZDC.
000027:
000028:                                                                                                  #  THE OUTPUTS ARE THE THREE GYRO TORQUING ANGLES TO BE APPLIED TO THE Y, Z, AND X GYROS AND ARE STORED DP AT IGC,
000029:                                                                                                  #  MGC, AND OGC RESPECTIVELY.
000030:
000031: 23,2757                                           COUNT*   $$/INFLT
000032: 23,2757           71220        CALCGTA            ITA      DLOAD                                 #  PUSHDOWN  00-03,16D-27D,34D-37D
000033: 23,2760           00051                                    S2                                    #  XDC = (XD1 XD2 XD3)
000034: 23,2761           02665                                    XDC                                   #  YDC = (YD1 YD2 YD3)
000035: 23,2762           65325                           PDDL     PDDL                                  #  ZDC = (ZD1 ZD2 ZD3)
000036: 23,2763           06233                                    HI6ZEROS
000037: 23,2764           02671                                    XDC        +4
000038: 23,2765           55476                           DCOMP    VDEF
000039: 23,2766           77656                           UNIT
000040: 23,2767           14027                           STODL    ZPRIME                                #  ZP = UNIT(-XD3 0 XD1) = (ZP1 ZP2 ZP3)
000041: 23,2770           00027                                    ZPRIME
000042:
000043: 23,2771           77742                           SR1
000044: 23,2772           14023                           STODL    SINTH                                 #  SIN(IGC) = ZP1
000045: 23,2773           00033                                    ZPRIME     +4
000046: 23,2774           77742                           SR1
000047: 23,2775           34021                           STCALL   COSTH                                 #  COS(IGC) = ZP3
000048: 23,2776           47030                                    ARCTRIG
000049:
000050: 23,2777           16742                           STODL    IGC                                   #  Y GYRO TORQUING ANGLE   FRACTION OF REV.
000051: 23,3000           02667                                    XDC        +2
000052: 23,3001           77742                           SR1
000053: 23,3002           14023                           STODL    SINTH                                 #  SIN(MGC) = XD2
000054: 23,3003           00027                                    ZPRIME
000055:
000056: 23,3004           65205                           DMP      PDDL
000057: 23,3005           02671                                    XDC        +4                         #  PD00 = (ZP1)(XD3)
000058: 23,3006           00033                                    ZPRIME     +4
000059:
000060: 23,3007           45205                           DMP      DSU
000061: 23,3010           02665                                    XDC                                   #  MPAC = (ZP3)(XD1)
000062: 23,3011           77626                           STADR
000063: 23,3012           43756                           STCALL   COSTH                                 #  COS(MGC) = MPAC - PD00
000064: 23,3013           47030                                    ARCTRIG
000065: 23,3014           26744                           STOVL    MGC                                   #  Z GYRO TORQUING ANGLE   FRACTION OF REV.
000066: 23,3015           00027                                    ZPRIME
000067: 23,3016           77641                           DOT
000068: 23,3017           02701                                    ZDC
000069: 23,3020           24021                           STOVL    COSTH                                 #  COS(OGC) = ZP . ZDC
000070: 23,3021           00027                                    ZPRIME
000071: 23,3022           77641                           DOT
000072: 23,3023           02673                                    YDC
000073: 23,3024           34023                           STCALL   SINTH                                 #  SIN(OGC) = ZP . YDC
000074: 23,3025           47030                                    ARCTRIG
000075:
000076: 23,3026           36740                           STCALL   OGC                                   #  X GYRO TORQUING ANGLE   FRACTION OF REV.
000077: 23,3027           00051                                    S2
000078:
000079:                                                                                                  #  ARCTRIG COMPUTES AN ANGLE GIVEN THE SINE AND COSINE OF THIS ANGLE.
000080:
000081:                                                                                                  #  THE INPUTS ARE SIN/4 AND COS/4 STORED DP AT SINTH AND COSTH.
000082:
000083:                                                                                                  #  THE OUTPUT IS THE CALCULATED ANGLE BETWEEN +.5 AND -.5 REVOLUTIONS AND STORED AT THETA. THE OUTPUT IS ALSO
000084:                                                                                                  #  AVAILABLE AT MPAC.
000085:
000086: 23,3030           51545        ARCTRIG            DLOAD    ABS                                   #  PUSHDOWN  16D-21D
000087: 23,3031           00023                                    SINTH
000088: 23,3032           50025                           DSU      BMN
000089: 23,3033           07246                                    QTSN45                                #  ABS(SIN/4) - SIN(45)/4
000090: 23,3034           47043                                    TRIG1                                 #  IF (-45,45) OR (135,-135)
000091:
000092: 23,3035           72545                           DLOAD    SL1                                   #  (45,135) OR (-135,-45)
000093: 23,3036           00021                                    COSTH
000094: 23,3037           75326                           ACOS     SIGN
000095: 23,3040           00023                                    SINTH
000096: 23,3041           00025                           STORE    THETA                                 #  X = ARCCOS(COS) WITH SIGN(SIN)
000097: 23,3042           77616                           RVQ
000098:
000099: 23,3043           72545        TRIG1              DLOAD    SL1                                   #  (-45,45) OR (135,-135)
000100: 23,3044           00023                                    SINTH
000101: 23,3045           77736                           ASIN
000102: 23,3046           14025                           STODL    THETA                                 #  X = ARCSIN(SIN) WITH SIGN(SIN)
000103: 23,3047           00021                                    COSTH
000104: 23,3050           77640                           BMN
000105: 23,3051           47054                                    TRIG2                                 #  IF (135,-135)
000106:
000107: 23,3052           43545                           DLOAD    RVQ
000108: 23,3053           00025                                    THETA                                 #  X = ARCSIN(SIN)   (-45,45)
000109:
000110: 23,3054           75345        TRIG2              DLOAD    SIGN                                  #  (135,-135)
000111: 23,3055           06231                                    HIDPHALF
000112: 23,3056           00023                                    SINTH
000113: 23,3057           77625                           DSU
000114: 23,3060           00025                                    THETA
000115: 23,3061           00025                           STORE    THETA                                 #  X = .5 WITH SIGN(SIN) - ARCSIN(SIN)
000116: 23,3062           77616                           RVQ                                            #        (+) - (+) OR (-) - (-)
000117:
000118:                                                                                                  #      SMNB, NBSM, AND AXISROT, WHICH USED TO APPEAR HERE, HAVE BEEN
000119:                                                                                                  #  COMBINED IN A ROUTINE CALLED AX*SR*T, WHICH APPEARS AMONG THE POWERED
000120:                                                                                                  #  FLIGHT SUBROUTINES.
000121:
000122:                                                                                                  #  CALCGA COMPUTES THE CDU DRIVING ANGLES REQUIRED TO BRING THE STABLE MEMBER INTO THE DESIRED ORIENTATION.
000123:
000124:                                                                                                  #  THE INPUTS ARE  1) THE NAVIGATION BASE COORDINATES REFERRED TO ANY COORDINATE SYSTEM. THE THREE HALF-UNIT
000125:                                                                                                  #  VECTORS ARE STORED AT XNB, YNB, AND ZNB. 2) THE DESIRED STABLE MEMBER COORDINATES REFERRED TO THE SAME
000126:                                                                                                  #  COORDINATE SYSTEM ARE STORED AT XSM, YSM, AND ZSM.
000127:
000128:                                                                                                  #  THE OUTPUTS ARE THE THREE CDU DRIVING ANGLES AND ARE STORED SP AT THETAD, THETAD +1, AND THETAD +2.
000129:
000130: 23,3063           77601        CALCGA             SETPD                                          #  PUSHDOWN  00-05, 16D-21D, 34D-37D
000131: 23,3064           00001                                    0
000132: 23,3065           47375                           VLOAD    VXV
000133: 23,3066           02665                                    XNB                                   #  XNB = OGA (OUTER GIMBAL AXIS)
000134: 23,3067           02651                                    YSM                                   #  YSM = IGA (INNER GIMBAL AXIS)
000135: 23,3070           41456                           UNIT     PUSH                                  #  PD0 = UNIT(OGA X IGA) = MGA
000136:
000137: 23,3071           44041                           DOT      ITA
000138: 23,3072           02701                                    ZNB
000139: 23,3073           00051                                    S2
000140: 23,3074           24021                           STOVL    COSTH                                 #  COS(OG) = MGA . ZNB
000141: 23,3075           00001                                    0
000142: 23,3076           77641                           DOT
000143: 23,3077           02673                                    YNB
000144: 23,3100           34023                           STCALL   SINTH                                 #  SIN(OG) = MGA . YNB
000145: 23,3101           47030                                    ARCTRIG
000146: 23,3102           26740                           STOVL    OGC
000147: 23,3103           00001                                    0
000148:
000149: 23,3104           50235                           VXV      DOT                                   #  PROVISION FOR MG ANGLE OF 90 DEGREES
000150: 23,3105           02665                                    XNB
000151: 23,3106           02651                                    YSM
000152: 23,3107           77752                           SL1
000153: 23,3110           24021                           STOVL    COSTH                                 #  COS(MG) = IGA . (MGA X OGA)
000154: 23,3111           02651                                    YSM
000155: 23,3112           77641                           DOT
000156: 23,3113           02665                                    XNB
000157: 23,3114           34023                           STCALL   SINTH                                 #  SIN(MG) = IGA . OGA
000158: 23,3115           47030                                    ARCTRIG
000159: 23,3116           02744                           STORE    MGC
000160:
000161: 23,3117           45246                           ABS      DSU
000162: 23,3120           07250                                    .166...
000163: 23,3121           77644                           BPL
000164: 23,3122           47143                                    GIMLOCK1                              #  IF ANGLE GREATER THAN 60 DEGREES
000165:
000166: 23,3123           50375        CALCGA1            VLOAD    DOT
000167: 23,3124           02657                                    ZSM
000168: 23,3125           00001                                    0
000169: 23,3126           24021                           STOVL    COSTH                                 #  COS(IG) = ZSM . MGA
000170: 23,3127           02643                                    XSM
000171: 23,3130           45441                           DOT      STADR
000172: 23,3131           43754                           STCALL   SINTH                                 #  SIN(IG) = XSM . MGA
000173: 23,3132           47030                                    ARCTRIG
000174:
000175: 23,3133           26742                           STOVL    IGC
000176: 23,3134           02740                                    OGC
000177: 23,3135           43034                           RTB      BONCLR
000178: 23,3136           21516                                    V1STO2S
000179: 23,3137           00200                                    CPHIFLAG
000180: 23,3140           00051                                    S2
000181: 23,3141           35207                           STCALL   THETAD
000182: 23,3142           00051                                    S2
000183:
000184: 23,3143           77776        GIMLOCK1           EXIT
000185: 23,3144           05646                           TC       ALARM
000186: 23,3145           00401                           OCT      00401
000187: 23,3146           05563                           TC       UPFLAG                                #  GIMBAL LOCK HAS OCCURED
000188: 23,3147           00056                           ADRES    GLOKFAIL
000189:
000190: 23,3150           06014                           TC       INTPRET
000191: 23,3151           77650                           GOTO
000192: 23,3152           47123                                    CALCGA1
000193:
000194:                                                                                                  #  AXISGEN COMPUTES THE COORDINATES OF ONE COORDINATE SYSTEM REFERRED TO ANOTHER COORDINATE SYSTEM.
000195:
000196:                                                                                                  #  THE INPUTS ARE  1) THE STAR1 VECTOR REFERRED TO COORDINATE SYSTEM A STORED AT STARAD.  2) THE STAR2 VECTOR
000197:                                                                                                  #  REFERRED TO COORDINATE SYSTEM A STORED AT STARAD +6.  3) THE STAR1 VECTOR REFERRED TO COORDINATE SYSTEM B STORED
000198:                                                                                                  #  AT LOCATION 6 OF THE VAC AREA.  4) THE STAR2 VECTOR REFERRED TO COORDINATE SYSTEM B STORED AT LOCATION 12D OF
000199:                                                                                                  #  THE VAC AREA.
000200:
000201:                                                                                                  #  THE OUTPUT DEFINES COORDINATE SYSTEM A REFERRED TO COORDINATE SYSTEM B. THE THREE HALF-UNIT VECTORS ARE STORED
000202:                                                                                                  #  AT LOCATIONS XDC, XDC +6, XDC +12D, AND STARAD, STARAD +6, STARAD +12D.
000203:
000204: 23,3153           66370        AXISGEN            AXT,1    SSP                                   #  PUSHDOWN 00-30D,34D-37D
000205: 23,3154           02714                                    STARAD     +6
000206: 23,3155           00051                                    S1
000207: 23,3156           02700                                    STARAD     -6
000208:
000209: 23,3157           77601                           SETPD
000210: 23,3160           00001                                    0
000211: 23,3161           46773        AXISGEN1           VLOAD*   VXV*                                  #  06D   UA = S1
000212: 23,3162           02723                                    STARAD     +12D,1                     #         STARAD +00D   UB = S1
000213: 23,3163           02731                                    STARAD     +18D,1
000214: 23,3164           77656                           UNIT                                           #  12D   VA = UNIT(S1 X S2)
000215: 23,3165           06731                           STORE    STARAD     +18D,1                     #         STARAD +06D   VB = UNIT(S1 X S2)
000216: 23,3166           77773                           VLOAD*
000217: 23,3167           02723                                    STARAD     +12D,1
000218:
000219: 23,3170           76433                           VXV*     VSL1
000220: 23,3171           02731                                    STARAD     +18D,1                     #  18D   WA = UA X VA
000221: 23,3172           06737                           STORE    STARAD     +24D,1                     #         STARAD +12D   WB = UB X VB
000222:
000223: 23,3173           77700                           TIX,1
000224: 23,3174           47161                                    AXISGEN1
000225:
000226: 23,3175           66160                           AXC,1    SXA,1
000227: 23,3176           00006                                    6
000228: 23,3177           00036                                    30D
000229:
000230: 23,3200           66370                           AXT,1    SSP
000231: 23,3201           00022                                    18D
000232: 23,3202           00051                                    S1
000233: 23,3203           00006                                    6
000234:
000235: 23,3204           66374                           AXT,2    SSP
000236: 23,3205           00006                                    6
000237: 23,3206           00052                                    S2
000238: 23,3207           00002                                    2
000239:
000240: 23,3210           76720        AXISGEN2           XCHX,1   VLOAD*
000241: 23,3211           00036                                    30D                                   #  X1=-6 X2=+6   X1=-6 X2=+4     X1=-6 X2=+2
000242: 23,3212           00001                                    0,1
000243:
000244: 23,3213           62757                           VXSC*    PDVL*                                 #  J=(UA)(UB1)   J=(UA)(UB2)     J=(UA)(UB3)
000245: 23,3214           75062                                    STARAD     +6,2
000246: 23,3215           00007                                    6,1
000247: 23,3216           77757                           VXSC*
000248: 23,3217           75054                                    STARAD     +12D,2
000249: 23,3220           30031                           STOVL*   24D                                   #  K=(VA)(VB1)   J=(VA)(VB2)     J=(VA)(VB3)
000250: 23,3221           00015                                    12D,1
000251:
000252: 23,3222           53357                           VXSC*    VAD
000253: 23,3223           75046                                    STARAD     +18D,2                     #  L=(WA)(WB1)   J=(WA)(WB2)     J=(WA)(WB3)
000254: 23,3224           76455                           VAD      VSL1
000255: 23,3225           00031                                    24D
000256: 23,3226           53520                           XCHX,1   UNIT
000257: 23,3227           00036                                    30D
000258: 23,3230           06707                           STORE    XDC        +18D,1                     #  XDC = L+J+K   YDC = L+J+K     ZDC = L+J+K
000259:
000260: 23,3231           77700                           TIX,1
000261: 23,3232           47233                                    AXISGEN3
000262:
000263: 23,3233           77704        AXISGEN3           TIX,2
000264: 23,3234           47210                                    AXISGEN2
000265:
000266: 23,3235           77775                           VLOAD
000267: 23,3236           02665                                    XDC
000268: 23,3237           26707                           STOVL    STARAD
000269: 23,3240           02673                                    YDC
000270: 23,3241           26715                           STOVL    STARAD     +6
000271: 23,3242           02701                                    ZDC
000272: 23,3243           02723                           STORE    STARAD     +12D
000273:
000274: 23,3244           77616                           RVQ
000275:
000276: 23,3245           05520 26075  QTSN45             2DEC     .1768
000277:
000278: 23,3247           05252 25253  .166...            2DEC     .1666666667
000279:


000281:

End of include-file INFLIGHT_ALIGNMENT_ROUTINES.agc.  Parent file is MAIN.agc


