
Source Code


000002:                                                                                                  ## Copyright:   Public domain.
000003:                                                                                                  ## Filename:    INTER-BANK_COMMUNICATION.agc
000004:                                                                                                  ## Purpose:     A section of a reconstructed, mixed version of Sundance
000005:                                                                                                  ##              It is part of the reconstructed source code for the Lunar
000006:                                                                                                  ##              Module's (LM) Apollo Guidance Computer (AGC) for Apollo 9.
000007:                                                                                                  ##              No original listings of this program are available;
000008:                                                                                                  ##              instead, this file was created via disassembly of dumps
000009:                                                                                                  ##              of various revisions of Sundance core rope modules.
000010:                                                                                                  ## Assembler:   yaYUL
000011:                                                                                                  ## Contact:     Ron Burkey <info@sandroid.org>.
000012:                                                                                                  ## Website:     www.ibiblio.org/apollo/index.html
000013:                                                                                                  ## Mod history: 2020-06-17 MAS  Created from Luminary 69.
000014:                                                                                                  ##              2021-05-30 ABS  ISWCALLL -> ISWCALL
000015:
000016:                                                                                                  ## Sundance 292
000017:
000018:                                                                                                  #           THE FOLLOWING ROUTINE CAN BE USED TO CALL A SUBROUTINE IN ANOTHER BANK. IN THE BANKCALL VERSION, THE
000019:                                                                                                  #  CADR OF THE SUBROUTINE IMMEDIATELY FOLLOWS THE TC BANKCALL INSTRUCTION, WITH C(A) AND C(L) PRESERVED.
000020:
000021:    4655                                           BLOCK    02
000022:    4655                                           COUNT*   $$/BANK
000023:    4655           52134        BANKCALL           DXCH     BUF2                                  #  SAVE INCOMING A,L.
000024:    4656           50002                           INDEX    Q                                     #  PICK UP CADR.
000025:    4657           30000                           CA       0
000026:    4660           24002                           INCR     Q                                     #  SO WE RETURN TO THE LOC. AFTER THE CADR.
000027:
000028:                                                                                                  #            SWCALL IS IDENTICAL TO BANKCALL, EXCEPT THAT THE CADR ARRIVES IN A.
000029:
000030:    4661           54001        SWCALL             TS       L
000031:    4662           22004                           LXCH     FBANK                                 #  SWITCH BANKS, SAVING RETURN.
000032:    4663           75062                           MASK     LOW10                                 #  GET SUB-ADDRESS OF CADR.
000033:    4664           56002                           XCH      Q                                     #  A,L NOW CONTAINS DP RETURN.
000034:    4665           52134                           DXCH     BUF2                                  #  RESTORING INPUTS IF THIS IS A BANKCALL.
000035:    4666           50002                           INDEX    Q
000036:    4667           02000                           TC       10000                                 #  SETTING Q TO SWRETURN.
000037:
000038:    4670           56134        SWRETURN           XCH      BUF2       +1                         #  COMES HERE TO RETURN TO CALLER. C(A,L)
000039:    4671           56004                           XCH      FBANK                                 #  ARE PRESERVED FOR RETURN.
000040:    4672           56134                           XCH      BUF2       +1
000041:    4673           00133                           TC       BUF2
000042:
000043:                                                                                                  #           THE FOLLOWING ROUTINE CAN BE USED AS A UNILATERAL JUMP WITH C(A,L) PRESERVED AND THE CADR IMMEDIATELY
000044:                                                                                                  #  FOLLOWING THE TC POSTJUMP INSTRUCTION.
000045:
000046:    4674           56002        POSTJUMP           XCH      Q                                     #  SAVE INCOMING C(A).
000047:    4675           50000                           INDEX    A                                     #  GET CADR.
000048:    4676           30000                           CA       0
000049:
000050:                                                                                                  #            BANKJUMP IS THE SAME AS POSTJUMP, EXCEPT THAT THE CADR ARRIVES IN A.
000051:
000052:    4677           54004        BANKJUMP           TS       FBANK
000053:    4700           75062                           MASK     LOW10
000054:    4701           56002                           XCH      Q                                     #  RESTORING INPUT C(A) IF THIS WAS A
000055:    4702           50002        Q+10000            INDEX    Q                                     #  POSTJUMP.
000056:    4703           12000        PRIO12             TCF      10000                                 #  PRIO12 = TCF  10000 = 12000
000057:
000058:                                                                                                  #            THE FOLLOWING ROUTINE GETS THE RETURN CADR SAVED BY SWCALL OR BANKCALL AND LEAVES IT IN A.
000059:
000060:    4704           35062        MAKECADR           CAF      LOW10
000061:    4705           70133                           MASK     BUF2
000062:    4706           60134                           AD       BUF2       +1
000063:    4707           00002                           TC       Q
000064:
000065:                                                                                                  #           THE FOLLOWING ROUTINE OBTAINS THE ONE WORD AT THE ADDRESS ARRIVING IN A, AND LEAVES IT IN A.  ENTER
000066:                                                                                                  #  WITH THE CADR IN A, AT DATACALL WITH JUNK IN L IF NOT SWITCHING SUPERBANKS, OTHERWISE AT SUPDACAL WITH SUPERBANK
000067:                                                                                                  #  BITS IN BITS 7-5 IN L (BITS 15-8 AND 4-1 MAY BE JUNK).  DEBRIS = MTEMP.  INHINTS FOR ABOUT 165 MUSEC.
000068:
000069:    4710           54001        DATACALL           TS       L                                     #  SAVE CADR (SOLE INPUT HERE).
000070:    4711           00006                           EXTEND
000071:    4712           00007                           READ     SUPERBNK                              #  THIS PROLOGUE MAKES SUPERSWITCH VACUOUS.
000072:    4713           56001                           XCH      L                                     #  CADR IN A, SUPERBITS IN L.
000073:
000074:    4714           54135        SUPDACAL           TS       MPTEMP
000075:    4715           56004                           XCH      FBANK                                 #  SET FBANK FOR DATA.
000076:    4716           00006                           EXTEND
000077:    4717           04007                           ROR      SUPERBNK                              #  SAVE FBANK IN BITS 15-11, AND
000078:    4720           56135                           XCH      MPTEMP                                #   SUPERBANK IN BITS 7-5.
000079:    4721           75062                           MASK     LOW10
000080:    4722           56001                           XCH      L                                     #  SAVE REL. ADR. IN BANK, FETCH SUPERBITS.
000081:    4723           00004                           INHINT                                         #  BECAUSE RUPT DOES NOT SAVE SUPERBANK.
000082:    4724           00006                           EXTEND
000083:    4725           01007                           WRITE    SUPERBNK                              #  SET SUPERBANK FOR DATA.
000084:    4726           50001                           INDEX    L
000085:    4727           32000                           CA       10000                                 #  PINBALL (FIX MEM DISP) PREVENTS DCA HERE
000086:    4730           56135                           XCH      MPTEMP                                #  SAVE 1ST WD, FETCH OLD FBANK AND SBANK.
000087:    4731           00006                           EXTEND
000088:    4732           01007                           WRITE    SUPERBNK                              #  RESTORE SUPERBANK.
000089:    4733           00003                           RELINT
000090:    4734           54004                           TS       FBANK                                 #  RESTORE FBANK.
000091:    4735           30135                           CA       MPTEMP                                #  RECOVER FIRST WORD OF DATA.
000092:    4736           00002                           RETURN                                         #  24 WDS. DATACALL 516 MU, SUPDACAL 432 MU
000093:
000094:                                                                                                  #           THE FOLLOWING ROUTINES ARE IDENTICAL TO BANKCALL AND SWCALL EXCEPT THAT THEY ARE USED IN INTERRUPT.
000095:
000096:    4737           52073        IBNKCALL           DXCH     RUPTREG3                              #  USES RUPTREG3,4 FOR DP RETURN ADDRESS.
000097:    4740           50002                           INDEX    Q
000098:    4741           30000                           CAF      0
000099:    4742           24002                           INCR     Q
000100:
000101:    4743           54001        ISWCALL            TS       L
000102:    4744           22004                           LXCH     FBANK
000103:    4745           75062                           MASK     LOW10
000104:    4746           56002                           XCH      Q
000105:    4747           52073                           DXCH     RUPTREG3
000106:    4750           50002                           INDEX    Q
000107:    4751           02000                           TC       10000
000108:
000109:    4752           56073        ISWRETRN           XCH      RUPTREG4
000110:    4753           56004                           XCH      FBANK
000111:    4754           56073                           XCH      RUPTREG4
000112:    4755           00072                           TC       RUPTREG3
000113:
000114:                                                                                                  #           THE FOLLOWING SUBROUTINES PROVIDE TO THE BASIC PROGRAMMER ENTRY INTO AND RETURN FROM ANY INTERPRETIVE
000115:                                                                                                  #  CODING WHICH DOES NOT USE THE ENTERING CONTENTS OF Q AND WHICH RETURNS VIA DANZIG. C(A) AND C(L) ARE SAVED.
000116:
000117:                                                                                                  #  USER'S RESPONSIBILITY TO FILL IN ADVANCE THE APPROPRIATE OPERAND AND ADDRESS REGISTERS USED BY THE
000118:                                                                                                  #  INTERPRETIVE CODING SUCH AS MPAC, BUF, ADDRWD, ETC.; AND TO CONFIRM THAT THE INTERPRETIVE CODING MEETS THE
000119:                                                                                                  #  ABOVE RESTRICTIONS WITH RESPECT TO Q AND DANZIG.
000120:
000121:                                                                                                  #  USEPRET AND USPRCADR MUST NOT BE USED IN INTERRUPT.
000122:
000123:                                                                                                  #  1. USEPRET ACCESSES INTERPRETIVE CODING WHICH CAN BE ENTERED WITHOUT CHANGING FBANK.
000124:                                                                                                  #     THE CALLING SEQUENCE IS AS FOLLOWS:
000125:
000126:                                                                                                  #                                          L         TC     USEPRET
000127:                                                                                                  #                                          L+1       TC,TCF INTPRETX       TC,TCF MEANS TC OR TCF
000128:                                                                                                  #                                                                          INTPRETX IS THE INTERPRETIVE CODING
000129:                                                                                                  #                                                                          RETURN IS TO L+2
000130:
000131:                                                                                                  #  2. USPRCADR ACCESSES INTERPRETIVE CODING IN OTHER THAN THE USER'S FBANK.  THE CALLING SEQUENCE IS AS FOLLOWS:
000132:                                                                                                  #        L       TC      USPRCADR
000133:                                                                                                  #        L+1     CADR    INTPRETX        INTPRETX IS THE INTERPRETIVE CODING
000134:                                                                                                  #                                        RETURN IS TO L+2
000135:
000136:    4756           56002        USEPRET            XCH      Q                                     #  FETCH Q, SAVING A
000137:    4757           54164                           TS       LOC                                   #  L+1 TO LOC
000138:    4760           30006                           CA       BBANK
000139:    4761           54165                           TS       BANKSET                               #  USER'S BBANK TO BANKSET
000140:    4762           35017                           CA       BIT8
000141:    4763           54023                           TS       EDOP                                  #  EXIT INSTRUCTION TO EDOP
000142:    4764           30002                           CA       Q                                     #  RETRIEVE ORIGINAL A
000143:    4765           00164                           TC       LOC
000144:
000145:    4766           54164        USPRCADR           TS       LOC                                   #  SAVE A
000146:    4767           35017                           CA       BIT8
000147:    4770           54023                           TS       EDOP                                  #  EXIT INSTRUCTION TO EDOP
000148:    4771           30006                           CA       BBANK
000149:    4772           54165                           TS       BANKSET                               #  USER'S BBANK TO BANKSET
000150:    4773           50002                           INDEX    Q
000151:    4774           30000                           CA       0
000152:    4775           54004                           TS       FBANK                                 #  INTERPRETIVE BANK TO FBANK
000153:    4776           75062                           MASK     LOW10                                 #  YIELDS INTERPRETIVE RELATIVE ADDRESS
000154:    4777           56002                           XCH      Q                                     #  INTERPRETIVE ADDRESS TO Q, FETCHING L+1
000155:    5000           56164                           XCH      LOC                                   #  L+1 TO LOC, RETRIEVING ORIGINAL A
000156:    5001           14702                           TCF      Q+10000
000157:
000158:                                                                                                  #  THERE ARE FOUR POSSIBLE SETTINGS FOR CHANNEL 07.  (CHANNEL 07 CONTAINS THE SUPERBANK SETTING.)
000159:
000160:                                                                                                  #                                        PSEUDO-FIXED      OCTAL PSEUDO
000161:                                                                                                  #  SUPERBANK     SETTING S-REG. VALUE    BANK NUMBERS      ADDRESSES
000162:                                                                                                  #  ----------    ------- ------------     ------------      ------------
000163:                                                                                                  #  SUPERBANK 3     0XX    2000 - 3777       30 - 37       70000 - 107777         (WHERE XX CAN BE ANYTHING AND
000164:                                                                                                  #                                                                                WILL USUALLY BE SEEN AS 11)
000165:                                                                                                  #  SUPERBANK 4     100    2000 - 3777       40 - 47      110000 - 127777         (AS FAR AS IT CAN BE SEEN,
000166:                                                                                                  #                                                                                ONLY BANKS 40-43 WILL EVER BE
000167:                                                                                                  #                                                                                AND ARE PRESENTLY AVAILABLE)
000168:                                                                                                  #  SUPERBANK 5     101    2000 - 3777       50 - 57      130000 - 147777         (PRESENTLY NOT AVAILABLE TO
000169:                                                                                                  #                                                                                THE USER)
000170:                                                                                                  #  SUPERBANK 6     110    2000 - 3777       60 - 67      150000 - 167777         (PRESENTLY NOT AVAILABLE TO
000171:                                                                                                  #                                                                                THE USER)
000172:                                                                                                  #  *** THIS ROUTINE MAY BE CALLED BY ANY PROGRAM LOCATED IN BANKS 00 - 27.  I.E., NO PROGRAM LIVING IN ANY
000173:                                                                                                  #  SUPERBANK SHOULD USE SUPERSW. ***
000174:
000175:                                                                                                  #  SUPERSW MAY BE CALLED IN THIS FASHION:
000176:                                                                                                  #        CAF     ABBCON          WHERE   -- ABBCON   BBCON  SOMETHIN  --
000177:                                                                                                  #        TCR     SUPERSW         (THE SUPERBNK BITS ARE IN THE BBCON)
000178:                                                                                                  #        ...       ...
000179:                                                                                                  #         .         .
000180:                                                                                                  #         .         .
000181:                                                                                                  #  OR IN THIS FASHION:
000182:                                                                                                  #        CAF     SUPERSET        WHERE SUPERSET IS ONE OF THE FOUR AVAILABLE
000183:                                                                                                  #        TCR     SUPERSW         SUPERBANK BIT CONSTANTS:
000184:                                                                                                  #        ...       ...                                   SUPER011 OCTAL  60
000185:                                                                                                  #         .         .                                    SUPER100 OCTAL 100
000186:                                                                                                  #         .         .                                    SUPER101 OCTAL 120
000187:                                                                                                  #                                                        SUPER110 OCTAL 140
000188:
000189:    5002           00006        SUPERSW            EXTEND
000190:    5003           01007                           WRITE    SUPERBNK                              #  WRITE BITS 7-6-5 OF THE ACCUMULATOR INTO
000191:                                                                                                  #  CHANNEL 07
000192:    5004           00002                           TC       Q                                     #  TC TO INSTRUCTION FOLLOWING
000193:                                                                                                  #   TC SUPERSW
000194:

End of include-file INTER-BANK_COMMUNICATION.agc.  Parent file is MAIN.agc


