
Source Code


000002:                                                                                                  ## Copyright:   Public domain.
000003:                                                                                                  ## Filename:    INTER-BANK_COMMUNICATION.agc
000004:                                                                                                  ## Purpose:     A section of a reconstructed, mixed version of Sundance
000005:                                                                                                  ##              It is part of the reconstructed source code for the Lunar
000006:                                                                                                  ##              Module's (LM) Apollo Guidance Computer (AGC) for Apollo 9.
000007:                                                                                                  ##              No original listings of this program are available;
000008:                                                                                                  ##              instead, this file was created via disassembly of dumps
000009:                                                                                                  ##              of various revisions of Sundance core rope modules.
000010:                                                                                                  ## Assembler:   yaYUL
000011:                                                                                                  ## Contact:     Ron Burkey <info@sandroid.org>.
000012:                                                                                                  ## Website:     www.ibiblio.org/apollo/index.html
000013:                                                                                                  ## Mod history: 2020-06-17 MAS  Created from Luminary 69.
000014:
000015:                                                                                                  ## Sundance 292
000016:
000017:                                                                                                  #           THE FOLLOWING ROUTINE CAN BE USED TO CALL A SUBROUTINE IN ANOTHER BANK. IN THE BANKCALL VERSION, THE
000018:                                                                                                  #  CADR OF THE SUBROUTINE IMMEDIATELY FOLLOWS THE TC BANKCALL INSTRUCTION, WITH C(A) AND C(L) PRESERVED.
000019:
000020:    4655                                           BLOCK    02
000021:    4655                                           COUNT*   $$/BANK
000022:    4655           52134        BANKCALL           DXCH     BUF2                                  #  SAVE INCOMING A,L.
000023:    4656           50002                           INDEX    Q                                     #  PICK UP CADR.
000024:    4657           30000                           CA       0
000025:    4660           24002                           INCR     Q                                     #  SO WE RETURN TO THE LOC. AFTER THE CADR.
000026:
000027:                                                                                                  #            SWCALL IS IDENTICAL TO BANKCALL, EXCEPT THAT THE CADR ARRIVES IN A.
000028:
000029:    4661           54001        SWCALL             TS       L
000030:    4662           22004                           LXCH     FBANK                                 #  SWITCH BANKS, SAVING RETURN.
000031:    4663           75062                           MASK     LOW10                                 #  GET SUB-ADDRESS OF CADR.
000032:    4664           56002                           XCH      Q                                     #  A,L NOW CONTAINS DP RETURN.
000033:    4665           52134                           DXCH     BUF2                                  #  RESTORING INPUTS IF THIS IS A BANKCALL.
000034:    4666           50002                           INDEX    Q
000035:    4667           02000                           TC       10000                                 #  SETTING Q TO SWRETURN.
000036:
000037:    4670           56134        SWRETURN           XCH      BUF2       +1                         #  COMES HERE TO RETURN TO CALLER. C(A,L)
000038:    4671           56004                           XCH      FBANK                                 #  ARE PRESERVED FOR RETURN.
000039:    4672           56134                           XCH      BUF2       +1
000040:    4673           00133                           TC       BUF2
000041:
000042:                                                                                                  #           THE FOLLOWING ROUTINE CAN BE USED AS A UNILATERAL JUMP WITH C(A,L) PRESERVED AND THE CADR IMMEDIATELY
000043:                                                                                                  #  FOLLOWING THE TC POSTJUMP INSTRUCTION.
000044:
000045:    4674           56002        POSTJUMP           XCH      Q                                     #  SAVE INCOMING C(A).
000046:    4675           50000                           INDEX    A                                     #  GET CADR.
000047:    4676           30000                           CA       0
000048:
000049:                                                                                                  #            BANKJUMP IS THE SAME AS POSTJUMP, EXCEPT THAT THE CADR ARRIVES IN A.
000050:
000051:    4677           54004        BANKJUMP           TS       FBANK
000052:    4700           75062                           MASK     LOW10
000053:    4701           56002                           XCH      Q                                     #  RESTORING INPUT C(A) IF THIS WAS A
000054:    4702           50002        Q+10000            INDEX    Q                                     #  POSTJUMP.
000055:    4703           12000        PRIO12             TCF      10000                                 #  PRIO12 = TCF  10000 = 12000
000056:
000057:                                                                                                  #            THE FOLLOWING ROUTINE GETS THE RETURN CADR SAVED BY SWCALL OR BANKCALL AND LEAVES IT IN A.
000058:
000059:    4704           35062        MAKECADR           CAF      LOW10
000060:    4705           70133                           MASK     BUF2
000061:    4706           60134                           AD       BUF2       +1
000062:    4707           00002                           TC       Q
000063:
000064:                                                                                                  #           THE FOLLOWING ROUTINE OBTAINS THE ONE WORD AT THE ADDRESS ARRIVING IN A, AND LEAVES IT IN A.  ENTER
000065:                                                                                                  #  WITH THE CADR IN A, AT DATACALL WITH JUNK IN L IF NOT SWITCHING SUPERBANKS, OTHERWISE AT SUPDACAL WITH SUPERBANK
000066:                                                                                                  #  BITS IN BITS 7-5 IN L (BITS 15-8 AND 4-1 MAY BE JUNK).  DEBRIS = MTEMP.  INHINTS FOR ABOUT 165 MUSEC.
000067:
000068:    4710           54001        DATACALL           TS       L                                     #  SAVE CADR (SOLE INPUT HERE).
000069:    4711           00006                           EXTEND
000070:    4712           00007                           READ     SUPERBNK                              #  THIS PROLOGUE MAKES SUPERSWITCH VACUOUS.
000071:    4713           56001                           XCH      L                                     #  CADR IN A, SUPERBITS IN L.
000072:
000073:    4714           54135        SUPDACAL           TS       MPTEMP
000074:    4715           56004                           XCH      FBANK                                 #  SET FBANK FOR DATA.
000075:    4716           00006                           EXTEND
000076:    4717           04007                           ROR      SUPERBNK                              #  SAVE FBANK IN BITS 15-11, AND
000077:    4720           56135                           XCH      MPTEMP                                #   SUPERBANK IN BITS 7-5.
000078:    4721           75062                           MASK     LOW10
000079:    4722           56001                           XCH      L                                     #  SAVE REL. ADR. IN BANK, FETCH SUPERBITS.
000080:    4723           00004                           INHINT                                         #  BECAUSE RUPT DOES NOT SAVE SUPERBANK.
000081:    4724           00006                           EXTEND
000082:    4725           01007                           WRITE    SUPERBNK                              #  SET SUPERBANK FOR DATA.
000083:    4726           50001                           INDEX    L
000084:    4727           32000                           CA       10000                                 #  PINBALL (FIX MEM DISP) PREVENTS DCA HERE
000085:    4730           56135                           XCH      MPTEMP                                #  SAVE 1ST WD, FETCH OLD FBANK AND SBANK.
000086:    4731           00006                           EXTEND
000087:    4732           01007                           WRITE    SUPERBNK                              #  RESTORE SUPERBANK.
000088:    4733           00003                           RELINT
000089:    4734           54004                           TS       FBANK                                 #  RESTORE FBANK.
000090:    4735           30135                           CA       MPTEMP                                #  RECOVER FIRST WORD OF DATA.
000091:    4736           00002                           RETURN                                         #  24 WDS. DATACALL 516 MU, SUPDACAL 432 MU
000092:
000093:                                                                                                  #           THE FOLLOWING ROUTINES ARE IDENTICAL TO BANKCALL AND SWCALL EXCEPT THAT THEY ARE USED IN INTERRUPT.
000094:
000095:    4737           52073        IBNKCALL           DXCH     RUPTREG3                              #  USES RUPTREG3,4 FOR DP RETURN ADDRESS.
000096:    4740           50002                           INDEX    Q
000097:    4741           30000                           CAF      0
000098:    4742           24002                           INCR     Q
000099:
000100:    4743           54001        ISWCALLL           TS       L
000101:    4744           22004                           LXCH     FBANK
000102:    4745           75062                           MASK     LOW10
000103:    4746           56002                           XCH      Q
000104:    4747           52073                           DXCH     RUPTREG3
000105:    4750           50002                           INDEX    Q
000106:    4751           02000                           TC       10000
000107:
000108:    4752           56073        ISWRETRN           XCH      RUPTREG4
000109:    4753           56004                           XCH      FBANK
000110:    4754           56073                           XCH      RUPTREG4
000111:    4755           00072                           TC       RUPTREG3
000112:
000113:                                                                                                  #           THE FOLLOWING SUBROUTINES PROVIDE TO THE BASIC PROGRAMMER ENTRY INTO AND RETURN FROM ANY INTERPRETIVE
000114:                                                                                                  #  CODING WHICH DOES NOT USE THE ENTERING CONTENTS OF Q AND WHICH RETURNS VIA DANZIG. C(A) AND C(L) ARE SAVED.
000115:
000116:                                                                                                  #  USER'S RESPONSIBILITY TO FILL IN ADVANCE THE APPROPRIATE OPERAND AND ADDRESS REGISTERS USED BY THE
000117:                                                                                                  #  INTERPRETIVE CODING SUCH AS MPAC, BUF, ADDRWD, ETC.; AND TO CONFIRM THAT THE INTERPRETIVE CODING MEETS THE
000118:                                                                                                  #  ABOVE RESTRICTIONS WITH RESPECT TO Q AND DANZIG.
000119:
000120:                                                                                                  #  USEPRET AND USPRCADR MUST NOT BE USED IN INTERRUPT.
000121:
000122:                                                                                                  #  1. USEPRET ACCESSES INTERPRETIVE CODING WHICH CAN BE ENTERED WITHOUT CHANGING FBANK.
000123:                                                                                                  #     THE CALLING SEQUENCE IS AS FOLLOWS:
000124:
000125:                                                                                                  #                                          L         TC     USEPRET
000126:                                                                                                  #                                          L+1       TC,TCF INTPRETX       TC,TCF MEANS TC OR TCF
000127:                                                                                                  #                                                                          INTPRETX IS THE INTERPRETIVE CODING
000128:                                                                                                  #                                                                          RETURN IS TO L+2
000129:
000130:                                                                                                  #  2. USPRCADR ACCESSES INTERPRETIVE CODING IN OTHER THAN THE USER'S FBANK.  THE CALLING SEQUENCE IS AS FOLLOWS:
000131:                                                                                                  #        L       TC      USPRCADR
000132:                                                                                                  #        L+1     CADR    INTPRETX        INTPRETX IS THE INTERPRETIVE CODING
000133:                                                                                                  #                                        RETURN IS TO L+2
000134:
000135:    4756           56002        USEPRET            XCH      Q                                     #  FETCH Q, SAVING A
000136:    4757           54164                           TS       LOC                                   #  L+1 TO LOC
000137:    4760           30006                           CA       BBANK
000138:    4761           54165                           TS       BANKSET                               #  USER'S BBANK TO BANKSET
000139:    4762           35017                           CA       BIT8
000140:    4763           54023                           TS       EDOP                                  #  EXIT INSTRUCTION TO EDOP
000141:    4764           30002                           CA       Q                                     #  RETRIEVE ORIGINAL A
000142:    4765           00164                           TC       LOC
000143:
000144:    4766           54164        USPRCADR           TS       LOC                                   #  SAVE A
000145:    4767           35017                           CA       BIT8
000146:    4770           54023                           TS       EDOP                                  #  EXIT INSTRUCTION TO EDOP
000147:    4771           30006                           CA       BBANK
000148:    4772           54165                           TS       BANKSET                               #  USER'S BBANK TO BANKSET
000149:    4773           50002                           INDEX    Q
000150:    4774           30000                           CA       0
000151:    4775           54004                           TS       FBANK                                 #  INTERPRETIVE BANK TO FBANK
000152:    4776           75062                           MASK     LOW10                                 #  YIELDS INTERPRETIVE RELATIVE ADDRESS
000153:    4777           56002                           XCH      Q                                     #  INTERPRETIVE ADDRESS TO Q, FETCHING L+1
000154:    5000           56164                           XCH      LOC                                   #  L+1 TO LOC, RETRIEVING ORIGINAL A
000155:    5001           14702                           TCF      Q+10000
000156:
000157:                                                                                                  #  THERE ARE FOUR POSSIBLE SETTINGS FOR CHANNEL 07.  (CHANNEL 07 CONTAINS THE SUPERBANK SETTING.)
000158:
000159:                                                                                                  #                                        PSEUDO-FIXED      OCTAL PSEUDO
000160:                                                                                                  #  SUPERBANK     SETTING S-REG. VALUE    BANK NUMBERS      ADDRESSES
000161:                                                                                                  #  ----------    ------- ------------     ------------      ------------
000162:                                                                                                  #  SUPERBANK 3     0XX    2000 - 3777       30 - 37       70000 - 107777         (WHERE XX CAN BE ANYTHING AND
000163:                                                                                                  #                                                                                WILL USUALLY BE SEEN AS 11)
000164:                                                                                                  #  SUPERBANK 4     100    2000 - 3777       40 - 47      110000 - 127777         (AS FAR AS IT CAN BE SEEN,
000165:                                                                                                  #                                                                                ONLY BANKS 40-43 WILL EVER BE
000166:                                                                                                  #                                                                                AND ARE PRESENTLY AVAILABLE)
000167:                                                                                                  #  SUPERBANK 5     101    2000 - 3777       50 - 57      130000 - 147777         (PRESENTLY NOT AVAILABLE TO
000168:                                                                                                  #                                                                                THE USER)
000169:                                                                                                  #  SUPERBANK 6     110    2000 - 3777       60 - 67      150000 - 167777         (PRESENTLY NOT AVAILABLE TO
000170:                                                                                                  #                                                                                THE USER)
000171:                                                                                                  #  *** THIS ROUTINE MAY BE CALLED BY ANY PROGRAM LOCATED IN BANKS 00 - 27.  I.E., NO PROGRAM LIVING IN ANY
000172:                                                                                                  #  SUPERBANK SHOULD USE SUPERSW. ***
000173:
000174:                                                                                                  #  SUPERSW MAY BE CALLED IN THIS FASHION:
000175:                                                                                                  #        CAF     ABBCON          WHERE   -- ABBCON   BBCON  SOMETHIN  --
000176:                                                                                                  #        TCR     SUPERSW         (THE SUPERBNK BITS ARE IN THE BBCON)
000177:                                                                                                  #        ...       ...
000178:                                                                                                  #         .         .
000179:                                                                                                  #         .         .
000180:                                                                                                  #  OR IN THIS FASHION:
000181:                                                                                                  #        CAF     SUPERSET        WHERE SUPERSET IS ONE OF THE FOUR AVAILABLE
000182:                                                                                                  #        TCR     SUPERSW         SUPERBANK BIT CONSTANTS:
000183:                                                                                                  #        ...       ...                                   SUPER011 OCTAL  60
000184:                                                                                                  #         .         .                                    SUPER100 OCTAL 100
000185:                                                                                                  #         .         .                                    SUPER101 OCTAL 120
000186:                                                                                                  #                                                        SUPER110 OCTAL 140
000187:
000188:    5002           00006        SUPERSW            EXTEND
000189:    5003           01007                           WRITE    SUPERBNK                              #  WRITE BITS 7-6-5 OF THE ACCUMULATOR INTO
000190:                                                                                                  #  CHANNEL 07
000191:    5004           00002                           TC       Q                                     #  TC TO INSTRUCTION FOLLOWING
000192:                                                                                                  #   TC SUPERSW
000193:

End of include-file INTER-BANK_COMMUNICATION.agc.  Parent file is MAIN.agc


