
Source Code


000002:                                                                                                  ## Copyright:   Public domain.
000003:                                                                                                  ## Filename:    INTERRUPT_LEAD_INS.agc
000004:                                                                                                  ## Purpose:     A section of a reconstructed, mixed version of Sundance
000005:                                                                                                  ##              It is part of the reconstructed source code for the Lunar
000006:                                                                                                  ##              Module's (LM) Apollo Guidance Computer (AGC) for Apollo 9.
000007:                                                                                                  ##              No original listings of this program are available;
000008:                                                                                                  ##              instead, this file was created via disassembly of dumps
000009:                                                                                                  ##              of various revisions of Sundance core rope modules.
000010:                                                                                                  ## Assembler:   yaYUL
000011:                                                                                                  ## Contact:     Ron Burkey <info@sandroid.org>.
000012:                                                                                                  ## Website:     www.ibiblio.org/apollo/index.html
000013:                                                                                                  ## Mod history: 2020-06-17 MAS  Created from Luminary 69.
000014:
000015:                                                                                                  ## Sundance 292
000016:
000017:    4000                                           SETLOC   4000
000018:
000019:    4000                                           COUNT*   $$/RUPTS                              #  FIX-FIX LEAD INS
000020:    4000           00004                           INHINT                                         #  GO
000021:    4001           34054                           CAF      GOBB
000022:    4002           56006                           XCH      BBANK
000023:    4003           12445                           TCF      GOPROG
000024:
000025:    4004           52011                           DXCH     ARUPT                                 #  T6RUPT
000026:    4005           00006                           EXTEND
000027:    4006           35750                           DCA      T6ADR
000028:    4007           52006                           DTCB
000029:
000030:    4010           52011                           DXCH     ARUPT                                 #  T5RUPT - AUTOPILOT
000031:    4011           40030                           CS       TIME5
000032:    4012           65044                           AD       .5SEC
000033:    4013           14065                           TCF      T5RUPT
000034:
000035:    4014           52011                           DXCH     ARUPT                                 #  T3RUPT
000036:    4015           34056                           CAF      T3RPTBB
000037:    4016           56006                           XCH      BBANK
000038:    4017           13212                           TCF      T3RUPT
000039:
000040:    4020           52011                           DXCH     ARUPT                                 #  T4RUPT
000041:    4021           34063                           CAF      T4RPTBB
000042:    4022           56006                           XCH      BBANK
000043:    4023           12000                           TCF      T4RUPT
000044:
000045:    4024           52011                           DXCH     ARUPT                                 #  KEYRUPT1
000046:    4025           34057                           CAF      KEYRPTBB
000047:    4026           56006                           XCH      BBANK
000048:    4027           13104                           TCF      KEYRUPT1
000049:
000050:    4030           52011                           DXCH     ARUPT                                 #  KEYRUPT2
000051:    4031           34060                           CAF      MKRUPTBB
000052:    4032           56006                           XCH      BBANK
000053:    4033           12357                           TCF      MARKRUPT
000054:
000055:    4034           52011                           DXCH     ARUPT                                 #  UPRUPT
000056:    4035           34057                           CAF      UPRPTBB
000057:    4036           56006                           XCH      BBANK
000058:    4037           13127                           TCF      UPRUPT
000059:
000060:    4040           52011                           DXCH     ARUPT                                 #  DOWNRUPT
000061:    4041           34061                           CAF      DWNRPTBB
000062:    4042           56006                           XCH      BBANK
000063:    4043           13146                           TCF      DODOWNTM
000064:
000065:    4044           52011                           DXCH     ARUPT                                 #  RADAR RUPT
000066:    4045           34062                           CAF      RDRPTBB
000067:    4046           56006                           XCH      BBANK
000068:    4047           13122                           TCF      RADAREAD
000069:
000070:    4050           52011                           DXCH     ARUPT                                 #  RUPT10 IS USED ONLY BY LANDING GUIDANCE
000071:    4051           34064                           CA       RUPT10BB
000072:    4052           56006                           XCH      BBANK
000073:    4053           12000                           TCF      PITFALL
000074:
000075:
000076:    4054  E3,1400                                  EBANK=   LST1                                  #  RESTART USES E0, E3
000077:    4054           12003        GOBB               BBCON    GOPROG
000078:
000079:    4055     0025                                  EBANK=   TIME1
000080:    4055           04000        T6RPTBB            BBCON    RESUME                                #  ***FIX LATER***
000081:
000082:    4056  E3,1400                                  EBANK=   LST1
000083:    4056           02003        T3RPTBB            BBCON    T3RUPT
000084:
000085:    4057     0073                                  EBANK=   KEYTEMP1
000086:    4057           10000        KEYRPTBB           BBCON    KEYRUPT1
000087:
000088:    4060  E7,1404                                  EBANK=   AOTAZ
000089:    4060           16007        MKRUPTBB           BBCON    MARKRUPT
000090:
000091:    4061     4057               UPRPTBB            =        KEYRPTBB
000092:
000093:    4061     0340                                  EBANK=   DNTMBUFF
000094:    4061           12000        DWNRPTBB           BBCON    DODOWNTM
000095:
000096:    4062     1101                                  EBANK=   RADMODES
000097:    4062           52002        RDRPTBB            BBCON    RADAREAD
000098:
000099:    4063  E6,1412                                  EBANK=   M11
000100:    4063           14006        T4RPTBB            BBCON    T4RUPT
000101:
000102:    4064  E7,1656                                  EBANK=   ELVIRA
000103:    4064           42007        RUPT10BB           BBCON    PITFALL
000104:
000105:    4065           00006        T5RUPT             EXTEND
000106:    4066           65334                           BZMF     NOQBRSM
000107:    4067           00006                           EXTEND
000108:    4070           31277                           DCA      T5ADR
000109:    4071           52006                           DTCB

End of include-file INTERRUPT_LEAD_INS.agc.  Parent file is MAIN.agc


