
Source Code


000002:                                                                                                  ## Copyright:   Public domain.
000003:                                                                                                  ## Filename:    INTEGRATION_INITIALIZATION.agc
000004:                                                                                                  ## Purpose:     A section of a reconstructed, mixed version of Sundance
000005:                                                                                                  ##              It is part of the reconstructed source code for the Lunar
000006:                                                                                                  ##              Module's (LM) Apollo Guidance Computer (AGC) for Apollo 9.
000007:                                                                                                  ##              No original listings of this program are available;
000008:                                                                                                  ##              instead, this file was created via disassembly of dumps
000009:                                                                                                  ##              of various revisions of Sundance core rope modules.
000010:                                                                                                  ## Assembler:   yaYUL
000011:                                                                                                  ## Contact:     Ron Burkey <info@sandroid.org>.
000012:                                                                                                  ## Website:     www.ibiblio.org/apollo/index.html
000013:                                                                                                  ## Mod history: 2020-06-17 MAS  Created from Luminary 69.
000014:
000015:                                                                                                  ## Sundance 302
000016:
000017:                                                                                                  #  1.0 INTRODUCTION
000018:                                                                                                  #  ----------------
000019:
000020:                                                                                                  #  FROM A USERS POINT OF VIEW, ORBITAL INTEGRATION IS ESSENTIALLY THE SAME AS THE 278 INTEGRATION
000021:                                                                                                  #  PROGRAM. THE SAME ENTRANCES TO THE PROGRAM WILL BE MAINTAINED, THE SAME STALLING ROUTINE WILL BE USED AND
000022:                                                                                                  #  OUTPUT WILL STILL BE VIA THE PUSHLIST. THE PRIMARY DIFFERENCES TO A USER INVOLVE THE ADDED CAPABILITY OF
000023:                                                                                                  #  TERMINATING INTEGRATION AT A SPECIFIC FINAL RADIUS AND THE DIFFERENCE IN STATE VECTOR SCALING INSIDE AND OUT-
000024:                                                                                                  #  SIDE THE LUNAR SPHERE OF INFLUENCE.
000025:
000026:                                                                                                  #  IN ORDER TO MAKE THE CSM(LEM)PREC AND CSM(LEM)CONIC ENTRANCES SIMILAR TO FLIGHT 278, THE INTEGRATION PROGRAM
000027:                                                                                                  #  WILL ITSELF SET THE FINAL RADIUS (RFINAL) TO 0 SO THAT REACHING THE DESIRED TIME ONLY WILL TERMINATE
000028:                                                                                                  #  INTEGRATION. THE DP REGISTER RFINAL MUST BE SET BY USERS OF INTEGRVS AND INTEGRV, AND MUST BE DONE AFTER THE
000029:                                                                                                  #  CALL TC INTSTALL.
000030:
000031:                                                                                                  #  WHEN THE LM IS ON THE LUNAR SURFACE (INDICATED BY LUNAR SURFACE FLAG SET) CALLS TO LEMCONIC, LEMPREC, AND
000032:                                                                                                  #  INTEGRV WITH VINFLAG = 0 WILL RESULT IN THE USE OF THE PLANETARY INERTIAL ORIENTATION SUBROUTINES TO PROVIDE
000033:                                                                                                  #  BOTH THE LMS POSITION AND VELOCITY IN THE REFERENCE COORDINATE  SYSTEM.
000034:                                                                                                  #  THE PROGRAM WILL PROVIDE OUTPUT AS IF INTEGRATION WAS USED. THAT IS, THE PUSHLIST WILL BE SET AS NOTED BELOW AND
000035:                                                                                                  #  THE PERMANENT STATE VECTOR UPDATED WHEN SPECIFIED BY AN INTEGRV CALL.
000036:
000037:                                                                                                  #  USERS OF INTEGRVS DESIRING INTEGRATION (INTYPFLG = 0) SHOULD NOTE THAT THE OBLATENESS PERTURBATION COMPUTATION
000038:                                                                                                  #  IN LUNAR ORBIT IS TIME DEPENDENT. THEREFORE, THE USER SHOULD SUPPLY AN INITIAL STATE VECTOR VALID AT SOME REAL
000039:                                                                                                  #  TIME AND THE DESIRED TIME (TDEC1) ALSO AT SOME REAL TIME. FOR CONIC ,,INTEGRATION,, THE USER MAY STILL USE ZERO
000040:                                                                                                  #  AS THE INITIAL TIME AND DELTA TIME AS THE DESIRED TIME.
000041:
000042:                                                                                                  #  2.0 GENERAL DESCRIPTION
000043:                                                                                                  #  -----------------------
000044:
000045:                                                                                                  #  THE INTEGRATION PROGRAM OPERATES AS A CLOSED INTERPRETIVE SUBROUTINE AND PERFORMS THESE FUNCTIONS---
000046:                                                                                                  #     1) INTEGRATES (PRECISION OR CONIC) EITHER CSM OR LM STATE VECTOR
000047:                                                                                                  #     2) INTEGRATES THE W-MATRIX
000048:                                                                                                  #     3) PERMANENT OR TEMPORARY UPDATE OF THE STATE VECTOR
000049:
000050:                                                                                                  #  THERE ARE SIX ENTRANCES TO THE INTEGRATION PROGRAM. FOUR OF THESE (CSMPREC, LEMPREC, CSMCONIC, LEMCONIC) SET
000051:                                                                                                  #  ALL THE FLAGS REQUIRED IN THE INTEGRATION PROGRAM ITSELF TO CAUSE THE PRECISION OR CONIC INTEGRATION (KEPLER) OF
000052:                                                                                                  #  THE LM OR CSM STATE VECTOR, AS THE NAMES SUGGEST. ONE ENTRANCE (INTEGRVS) PERMITS THE CALLING PROGRAM TO
000053:                                                                                                  #  PROVIDE A STATE VECTOR TO BE INTEGRATED. THE CALLING PROGRAM MUST SET THE FLAGS INDICATING (1) PRECISION OR
000054:                                                                                                  #  CONIC INTEGRATION, (2) IN OR OUT OF LUNAR SPHERE, (3) MIDCOURSE OR NOT, AND THE INTEGRATION PROGRAM COMPLETES
000055:                                                                                                  #  THE FLAG SETTING TO BYPASS W-MATRIX INTEGRATION. THE LAST ENTRANCE (INTEGRV, USED IN GENERAL BY THE
000056:                                                                                                  #  NAVIGATION PROGRAMS) PERMITS THE CALLER TO SET FIVE FLAGS (NOT MOONFLAG OR MIDFLAG) BUT NOT TO INPUT A STATE
000057:                                                                                                  #  VECTOR. ANY PROGRAM WHICH CALLS INTEGRVS OR INTEGRV MUST CALL INTSTALL BEFORE IT SETS THE INTEGRATION FLAGS
000058:                                                                                                  #  AND/OR STATE VECTOR.
000059:
000060:                                                                                                  #  THREE SETS OF 42 REGISTERS AND 2 FLAGS ARE USED FOR THE STATE VECTORS. TWO SETS, WHICH MAY NOT BE OVERLAYED, ARE
000061:                                                                                                  #  USED FOR THE PERMANENT STATE VECTORS FOR THE CSM AND LM. THE THIRD SET, WHICH MAY BE OVERLAYED WHEN INTEGRATION
000062:                                                                                                  #  IS NOT BEING DONE, IS USED IN THE COMPUTATIONS.
000063:
000064:                                                                                                  #  THE PERMANENT STATE VECTORS WILL BE PERIODICALLY UPDATED SO THAT THE VECTORS WILL NOT BE OLDER THAN 4 TIMESTEPS.
000065:                                                                                                  #  THE PERMANENT STATE VECTORS WILL ALSO BE UPDATED WHENEVER THE W-MATRIX IS INTEGRATED OR WHEN A CALLER OF INTEGRV
000066:                                                                                                  #  SETS STATEFLG (THE NAVIGATION PROGRAMS P20, P22.)
000067:
000068:                                                                                                  #  APPENDIX B OF THE USERS GUIDE LISTS THE STATE VECTOR QUANTITIES.
000069:
000070:                                                                                                  #  2.1 RESTARTS
000071:
000072:                                                                                                  #  PHASE CHANGES WILL BE MADE IN THE INTEGRATION PROGRAM ONLY FOR THE INTEGRV ENTRANCE (I.E., WHEN THE W-MATRIX IS
000073:                                                                                                  #  INTEGRATED OR PERMANENT STATE VECTOR IS UPDATED.) THE GROUP NUMBER USED WILL BE THAT FOR THE P20-25 PROGRAMS
000074:                                                                                                  #  (I.E., GROUP2) SINCE THE INTEGRV ENTRANCE WILL ONLY BE USED BY THESE PROGRAMS. IF A RESTART OCCURS DURING AN
000075:                                                                                                  #  INTEGRATION OF THE STATE VECTOR ONLY, THE RECOVERY WILL BE TO THE LAST PHASE IN THE CALLING PROGRAM. CALLING
000076:                                                                                                  #  PROGRAMS WHICH USE THE INTEGRV OR INTEGRVS ENTRANCE OF INTEGRATION SHOULD ENSURE THAT IF PHASE CHANGING IS DONE
000077:                                                                                                  #  THAT IT IS PRIOR TO SETTING THE INTEGRATION INPUTS IN THE PUSHLIST.
000078:                                                                                                  #  THIS IS BECAUSE THE PUSHLIST IS LOST DURING A RESTART.
000079:
000080:                                                                                                  #  2.2 SCALING
000081:
000082:                                                                                                  #  THE INTEGRATION ROUTINE WILL MAINTAIN THE PERMANENT MEMORY STATE VECTORS IN THE SCALING AND UNITS DEFINED IN
000083:                                                                                                  #  APPENDIX B OF THE USERS GUIDE. THE SCALING OF THE OUTPUT POSITION VECTORDEPENDS ON THE ORIGIN OF THE COORDINATE
000084:                                                                                                  #   SYSTEM AT THE DESIRED INTEGRATION TIME. THE COORDINATE SYSTEM TRANSFORMATION WILL BE DONE AUTOMATICALLY ON
000085:                                                                                                  #  MULTIPLE TIMESTEP ENCKE INTEGRATION ONLY. THUS IT IS POSSIBLE TO HAVE OUTPUT FROM SUCCESSIVE INTEGRATIONS IN
000086:                                                                                                  #  DIFFERENT SCALING.
000087:                                                                                                  #  HOWEVER, RATT, VATT WILL ALWAYS BE SCALED THE SAME.
000088:
000089:                                                                                                  #  3.0 INPUT/OUTPUT
000090:                                                                                                  #  ----------------
000091:
000092:                                                                                                  #  PROGRAM INPUTS ARE THE FLAGS DESCRIBED IN APPENDIX A AND THE PERMANENT STATE VECTOR QUANTITIES DESCRIBED IN AP-
000093:                                                                                                  #  PENDIX B OF THE USERS GUIDE, PLUS THE DESIRED TIME TO INTEGRATE TO IN TDEC1 (A PUSH LIST LOCATION).
000094:                                                                                                  #  FOR INTEGRVS, THE RCV,VCV, TET OF THE TEMPORARY STATE VECTOR MUST BE SET, PLUS MOONFLAG AND MIDFLAG
000095:
000096:                                                                                                  #  FOR SIMULATION THE FOLLOWING QUANTITIES MUST BE PRESET ---
000097:                                                                                                  #                                                             EARTH  MOON
000098:                                                                                                  #                                                              29     27
000099:                                                                                                  #     RRECTCSM(LEM)  - RECTIFIED POSITION VECTOR      METERS  2      2
000100:
000101:                                                                                                  #                                                              7      5
000102:                                                                                                  #     VRECTCSM(LEM)  - RECTIFIED VELOCITY VECTOR      M/CSEC  2      2
000103:
000104:                                                                                                  #                                                              28     28
000105:                                                                                                  #     TETCSM(LEM)    - TIME STATE VECTOR IS VALID     CSEC    2      2
000106:                                                                                                  #                      CUSTOMARILY 0, BUT NOTE LUNAR
000107:                                                                                                  #                      ORBIT DEPENDENCE ON REAL TIME.
000108:
000109:                                                                                                  #                                                              22     18
000110:                                                                                                  #     DELTAVCSM(LEM) - POSITION DEVIATION             METERS  2      2
000111:                                                                                                  #                      0 IF TCCSM(LEM) = 0
000112:
000113:                                                                                                  #                                                              3      -1
000114:                                                                                                  #     NUVCSM(LEM)    - VELOCITY DEVIATION             M/CSEC  2      2
000115:                                                                                                  #                      0 IF TCCSM(LEM) = 0
000116:                                                                                                  #                                                              29     27
000117:                                                                                                  #     RCVCSM(LEM)    - CONIC POSITION                 METERS  2      2
000118:                                                                                                  #                      EQUALS RRECTCSM(LEM) IF
000119:                                                                                                  #                      TCCSM(LEM) = 0
000120:
000121:                                                                                                  #                                                              7      5
000122:                                                                                                  #     VCVCSM(LEM)    - CONIC VELOCITY                 M/CSEC  2      2
000123:                                                                                                  #                      EQUALS VRECTCSM(LEM) IF
000124:                                                                                                  #                      TCCSM(LEM) = 0
000125:
000126:                                                                                                  #                                                              28     28
000127:                                                                                                  #     TCCSM(LEM)     - TIME SINCE RECTIFICATION       CSECS   2      2
000128:                                                                                                  #                      CUSTOMARILY 0
000129:
000130:                                                                                                  #                                                      1/2     17     16
000131:                                                                                                  #     XKEPCSM(LEM)   - ROOT OF KEPLERS EQUATION       M       2      2
000132:                                                                                                  #                      0 IF TCCSM(LEM) = 0
000133:
000134:                                                                                                  #     CMOONFLG       - PERMANENT FLAGS CORRESPONDING          0      0
000135:                                                                                                  #     CMIDFLAG         TO MOONFLAG AND MIDFLAG                0,1    0,1
000136:                                                                                                  #     LMOONFLG         C = CSM, L = LM                        0      0
000137:                                                                                                  #     LMIDFLG                                                 0,1    0,1
000138:
000139:                                                                                                  #     SURFFLAG       - LUNAR SURFACE FLAG                     0,1    0,1
000140:
000141:                                                                                                  #  IN ADDITION, IF (L)CMIDFLAG IS SET, THE INITIAL INPUT VALUES FOR LUNAR
000142:                                                                                                  #  SOLAR EPHEMERIDES SUBROUTINE AND PLANETARY INERTIAL ORIENTATION SUB-
000143:                                                                                                  #  ROUTINE MUST BE PRESET.
000144:
000145:                                                                                                  #  OUTPUT
000146:                                                                                                  #  AFTER EVERY CALL TO INTEGRATION
000147:                                                                                                  #                                                             EARTH  MOON
000148:                                                                                                  #                                                              29     29
000149:                                                                                                  #      0D   RATT   POSITION                           METERS  2      2
000150:                                                                                                  #                                                              7      7
000151:                                                                                                  #      6D   VATT   VELOCITY                           M/CSEC  2      2
000152:                                                                                                  #                                                              28     28
000153:                                                                                                  #      12D  TAT    TIME                                       2      2
000154:                                                                                                  #                                                              29     27
000155:                                                                                                  #      14D  RATT1  POSITION                           METERS  2      2
000156:                                                                                                  #                                                              7      5
000157:                                                                                                  #      20D  VATT1  VELOCITY                           M/CSEC  2      2
000158:                                                                                                  #                                                      3   2   36     30
000159:                                                                                                  #      26D  MU(P)  MU                                 M /CS   2      2
000160:
000161:                                                                                                  #      X1          MUTABLE ENTRY                              -2     -10D
000162:
000163:                                                                                                  #      X2          COORDINT
000164:                                                                                                  #      X2          COORDINATE SYSTEM ORIGEN                   0      2
000165:                                                                                                  #                  (THIS, NOT MOONFLAG, SHOULD BE
000166:                                                                                                  #                  USED TO DETERMINE ORIGIN.)
000167:
000168:                                                                                                  #  IN ADDITION TO THE ABOVE, THE PERMANENT STATE VECTOR IS UPDATED WHENEVER
000169:                                                                                                  #  STATEFLG WAS SET AND WHENEVER A W-MATRIX IS TO BE INTEGRATED. THE PUSH
000170:                                                                                                  #  COUNTER IS SET TO 0 AND OVERFLOW IS CLEARED BEFORE RETURNING TO THE
000171:                                                                                                  #  CALLING PROGRAM.
000172:
000173:                                                                                                  #  4.0 CALLING SEQUENCES AND SAMPLE CODE
000174:                                                                                                  #  -------------------------------------
000175:
000176:                                                                                                  #     A) PRECISION ORBITAL INTEGRATION. CSMPREC,LEMPREC ENTRANCES
000177:                                                                                                  #           L-X    STORE TIME TO 95T5791T5 T  95 PUS  L9ST (T4531)
000178:                                                                                                  #           L      CALL
000179:                                                                                                  #           L+1           CSMPREC (OR LEMPREC)
000180:                                                                                                  #           L+2    RETURN
000181:                                                                                                  #        INPUT                                                         28
000182:                                                                                                  #           TDEC1 (PD 32D) TIME TO INTEGRATE TO...CENTISECONDS SCALED 2
000183:                                                                                                  #        OUTPUT
000184:                                                                                                  #           THE DATA LISTED IN SECTION 3.0 PLUS
000185:                                                                                                  #           RQVV   POSITION VECTOR OF VEHICLE WITH RESPECT TO SECONDARY
000186:                                                                                                  #           BODY... METERS B-29 ONLY IF MIDFLAG = DIMOFLAG = 1
000187:                                                                                                  #     B) CONIC INTEGRATION. CSMCONIC, LEMCONIC ENTRANCES
000188:                                                                                                  #           L-X    STORE TIME IN PUSH LIST (TDEC1)
000189:                                                                                                  #           L      CALL
000190:                                                                                                  #           L+1           CSMCONIC (OR LEMCONIC)
000191:                                                                                                  #        INPUT/OUTPUT
000192:                                                                                                  #           SAME AS PRECISION INTEGRATION, EXCEPT RQVV NOT SET
000193:                                                                                                  #     C) INTEGRATE GIVEN STATE VECTOR. INTEGRVS ENTRANCE
000194:                                                                                                  #                  CALL
000195:                                                                                                  #                         INTSTALL
000196:                                                                                                  #                  VLOAD
000197:                                                                                                  #                         POSITION VECTOR
000198:                                                                                                  #                  STOVL  RCV
000199:                                                                                                  #                         VELOCITY VECTOR
000200:                                                                                                  #                  STODL  VCV
000201:                                                                                                  #                         TIME STATE VECTOR VALID
000202:                                                                                                  #                  STODL  TET
000203:                                                                                                  #                         FINAL RADIUS
000204:                                                                                                  #                  STORE  RFINAL
000205:                                                                                                  #                  SET(CLEAR)  SET(CLEAR)
000206:                                                                                                  #                              INTYPFLAG
000207:                                                                                                  #                              MOONFLAG
000208:                                                                                                  #                  SET(CLEAR)  DLOAD
000209:                                                                                                  #                              DESIRED TIME
000210:                                                                                                  #                  STCALL      TDEC1
000211:                                                                                                  #                              INTEGRVS
000212:                                                                                                  #        INPUT
000213:                                                                                                  #           RCV    POSITION VECTOR                  METERS
000214:                                                                                                  #           VCV    VELOCITY VECTOR                  M/CSEC
000215:                                                                                                  #           TET    TIME OF STATE VECTOR(MAY = 0)    CSEC B-28
000216:                                                                                                  #           TDEC1  TIME TO INTEGRATE TO             CSEC B-28 (PD 32D)
000217:                                                                                                  #                        (MAY BE INCREMENT IF TET=0)
000218:                                                                                                  #        OUTPUT
000219:                                                                                                  #           SAME AS FOR PRECISION OR CONIC INTEGRATION,
000220:                                                                                                  #           DEPENDING ON INTYPFLG.
000221:                                                                                                  #     D) INTEGRATE STATE VECTOR.INTGRV ENTRANCE
000222:                                                                                                  #           L-X    STORE TIME IN PUSH LIST (TDEC1) (MAY BE DONE AFTER CALL TO INTSTALL)
000223:                                                                                                  #           L-8    CALL
000224:                                                                                                  #           L-7
000225:                                                                                                  #           L-6    SET(CLEAR) SET(CLEAR)
000226:                                                                                                  #           L-5               VINTFLAG   1=CSM, 0=LM
000227:                                                                                                  #           L-4               INTYPFLAG  1=CONIC, 0=PRECISION
000228:                                                                                                  #           L-3    SET(CLEAR) SET(CLEAR)
000229:                                                                                                  #           L-2               DIMOFLAG   1=W-MATRIX, 0=NO W-MATRIX
000230:                                                                                                  #           L-1               D6OR9FLG   1=9X9, 0=6X6
000231:                                                                                                  #           L      SET        DLOAD
000232:                                                                                                  #           L+1               STATEFLG   DESIRE PERMANENT UPDATE
000233:                                                                                                  #           L+2               FINAL RAD. OF STATE VECTOR
000234:                                                                                                  #           L+3    STCALL     RFINAL
000235:                                                                                                  #           L+4               INTEGRV
000236:                                                                                                  #           L      CALL                  NORMAL USE-- WILL UPDATE STATE
000237:                                                                                                  #           L+1               INTEGRV    VECTOR IF DIMOFLAG=1.(STATEFLG IS
000238:                                                                                                  #           L+2    RETURN                ALWAYS RESET IN INTEGRATION AFTER
000239:                                                                                                  #                                        IT IS USED.)
000240:                                                                                                  #        INPUT
000241:                                                                                                  #           TDEC1 (PD 32D) TIME TO INTEGRATE TO    CSEC B-28
000242:                                                                                                  #        OUTPUT
000243:                                                                                                  #           SAME AS FOR PRECISION OR CONIC INTEGRATION
000244:                                                                                                  #        THE PROGRAM WILL SET MOONFLAG, MIDFLAG DEPENDING ON
000245:                                                                                                  #        THE PERMANENT STATE VECTOR REPRESENTATION.
000246:
000247: 11,2312                                           BANK     11
000248: 13,2000                                           SETLOC   INTINIT
000249: 13,2000                                           BANK
000250: 13,2562  E3,1554                                  EBANK=   RRECTCSM
000251: 13,2562                                           COUNT*   $$/INTIN
000252: 13,2562           05413        STATEINT           TC       PHASCHNG
000253: 13,2563           00052                           OCT      00052
000254: 13,2564           35067                           CAF      PRIO5
000255: 13,2565           05155                           TC       FINDVAC
000256: 13,2566  E3,1554                                  EBANK=   RRECTCSM
000257: 13,2566           02571 26063                     2CADR    STATINT1
000258:
000259: 13,2570           05321                           TC       TASKOVER
000260: 13,2571           06014        STATINT1           TC       INTPRET
000261: 13,2572           47014                           BONCLR   RTB
000262: 13,2573           04612                                    QUITFLAG                              #  KILL INTEGRATION UNTIL NEXT POO.
000263: 13,2574           26610                                    ENDINT
000264: 13,2575           21454                                    LOADTIME
000265: 13,2576           00041                           STORE    TDEC1
000266: 13,2577           77624                           CALL
000267: 13,2600           27362                                    INTSTALL
000268: 13,2601           45014                           SET      CALL
000269: 13,2602           01076                                    NODOFLAG
000270: 13,2603           26622                                    SETIFLGS
000271: 13,2604           77650                           GOTO
000272: 13,2605           26000                                    STATEUP
000273: 13,2606           00003 25140  600SECS            2DEC     60000      B-28
000274:
000275: 13,2610           77414        ENDINT             CLEAR    EXIT
000276: 13,2611           01672                                    STATEFLG
000277: 13,2612           05413                           TC       PHASCHNG
000278: 13,2613           20032                           OCT      20032
000279: 13,2614           00006                           EXTEND
000280: 13,2615           32607                           DCA      600SECS
000281: 13,2616           05337                           TC       LONGCALL
000282: 13,2617  E3,1626                                  EBANK=   RRECTHIS
000283: 13,2617           02562 26063                     2CADR    STATEINT
000284:
000285: 13,2621           05225                           TC       ENDOFJOB
000286: 13,2622           43014        SETIFLGS           SET      CLEAR
000287: 13,2623           01472                                    STATEFLG
000288: 13,2624           01673                                    INTYPFLG
000289: 13,2625           43014                           CLEAR    CLEAR
000290: 13,2626           01676                                    DIM0FLAG
000291: 13,2627           01675                                    D6OR9FLG
000292: 13,2630           77616                           RVQ
000293:
000294:                                                                                                  #  ATOPCSM TRANSFERS RRECT TO RRECT +41 TO RRECTCSM TO RRECTCSM +41
000295:
000296:                                                                                                  #  CALLING SEQUENCE
000297:                                                                                                  #     L   CALL
000298:                                                                                                  #     L+1       ATOPCSM
000299:
000300:                                                                                                  #  NORMAL EXIT AT L+2
000301:
000302: 13,2631           47020        ATOPCSM            STQ      RTB
000303: 13,2632           00051                                    S2
000304: 13,2633           26644                                    MOVEACSM
000305: 13,2634           45014                           SET      CALL
000306: 13,2635           04063                                    CMOONFLG
000307: 13,2636           26066                                    SVDWN1
000308: 13,2637           43014                           BON      CLRGO
000309: 13,2640           00303                                    MOONFLAG
000310: 13,2641           00051                                    S2
000311: 13,2642           04223                                    CMOONFLG
000312: 13,2643           00051                                    S2
000313: 13,2644           03007        MOVEACSM           TC       SETBANK
000314: 13,2645           55500                           TS       DIFEQCNT                              #  INITIALIZE INDEX
000315: 13,2646           51500                           INDEX    DIFEQCNT
000316: 13,2647           31502                           CA       RRECT
000317: 13,2650           51500                           INDEX    DIFEQCNT
000318: 13,2651           55554                           TS       RRECTCSM
000319: 13,2652           11500                           CCS      DIFEQCNT                              #  IS TRANSFER COMPLETE
000320: 13,2653           12645                           TCF      MOVEACSM   +1                         #  NO-LOOP
000321: 13,2654           06035                           TC       DANZIG                                #  COMPLETE - RETURN
000322:
000323:
000324:                                                                                                  #  PTOACSM TRANSFERS RRECTCSM TO RRECTCSM +41 TO RRECT TO RRECT +41
000325:
000326:                                                                                                  #  CALLING SEQUENCE
000327:                                                                                                  #     L   CALL
000328:                                                                                                  #              PTOACSM
000329:
000330:                                                                                                  #  NORMAL EXIT AT L+2
000331: 13,2655           43034        PTOACSM            RTB      BON
000332: 13,2656           26673                                    MOVEPCSM
000333: 13,2657           04303                                    CMOONFLG
000334: 13,2660           26666                                    SETMOON
000335: 13,2661           66214        CLRMOON            CLEAR    SSP
000336: 13,2662           00263                                    MOONFLAG
000337: 13,2663           02033                                    PBODY
000338: 13,2664           00000                                    0
000339: 13,2665           77616                           RVQ
000340: 13,2666           66214        SETMOON            SET      SSP
000341: 13,2667           00063                                    MOONFLAG
000342: 13,2670           02033                                    PBODY
000343: 13,2671           00002                                    2
000344: 13,2672           77616                           RVQ
000345: 13,2673           03007        MOVEPCSM           TC       SETBANK
000346: 13,2674           55500                           TS       DIFEQCNT
000347: 13,2675           51500                           INDEX    DIFEQCNT
000348: 13,2676           31554                           CA       RRECTCSM
000349: 13,2677           51500                           INDEX    DIFEQCNT
000350: 13,2700           55502                           TS       RRECT
000351: 13,2701           11500                           CCS      DIFEQCNT
000352: 13,2702           12674                           TCF      MOVEPCSM   +1
000353: 13,2703           06035                           TC       DANZIG
000354:
000355:
000356:                                                                                                  #  ATOPLEM TRANSFERS RRECT TO RRECT +41 TO RRECTLEM TO RRECTLEM +41
000357:
000358: 13,2704           47020        ATOPLEM            STQ      RTB
000359: 13,2705           00051                                    S2
000360: 13,2706           26717                                    MOVEALEM
000361: 13,2707           45014                           SET      CALL
000362: 13,2710           04064                                    LMOONFLG
000363: 13,2711           26042                                    SVDWN2
000364: 13,2712           43014                           BON      CLRGO
000365: 13,2713           00303                                    MOONFLAG
000366: 13,2714           00051                                    S2
000367: 13,2715           04224                                    LMOONFLG
000368: 13,2716           00051                                    S2
000369: 13,2717           03007        MOVEALEM           TC       SETBANK
000370: 13,2720           55500                           TS       DIFEQCNT
000371: 13,2721           51500                           INDEX    DIFEQCNT
000372: 13,2722           31502                           CA       RRECT
000373: 13,2723           51500                           INDEX    DIFEQCNT
000374: 13,2724           55626                           TS       RRECTLEM
000375: 13,2725           11500                           CCS      DIFEQCNT
000376: 13,2726           12720                           TCF      MOVEALEM   +1
000377: 13,2727           06035                           TC       DANZIG
000378:
000379:
000380:                                                                                                  #  PTOALEM TRANSFERS RRECTLEM TO RRECTLEM +41 TO RRECT TO RRECT +41
000381:
000382: 13,2730           47014        PTOALEM            BON      RTB
000383: 13,2731           04307                                    SURFFLAG
000384: 13,2732           26751                                    USEPIOS
000385: 13,2733           26740                                    MOVEPLEM
000386: 13,2734           52014                           BON      GOTO
000387: 13,2735           04304                                    LMOONFLG
000388: 13,2736           26666                                    SETMOON
000389: 13,2737           26661                                    CLRMOON
000390: 13,2740           03007        MOVEPLEM           TC       SETBANK
000391: 13,2741           55500                           TS       DIFEQCNT
000392: 13,2742           51500                           INDEX    DIFEQCNT
000393: 13,2743           31626                           CA       RRECTLEM
000394: 13,2744           51500                           INDEX    DIFEQCNT
000395: 13,2745           55502                           TS       RRECT
000396: 13,2746           11500                           CCS      DIFEQCNT
000397: 13,2747           12741                           TCF      MOVEPLEM   +1
000398: 13,2750           06035                           TC       DANZIG
000399:
000400:
000401: 13,2751           77201        USEPIOS            SETPD    VLOAD
000402: 13,2752           00001                                    0
000403: 13,2753           02025                                    RLS
000404: 13,2754           41525                           PDDL     PUSH
000405: 13,2755           00041                                    TDEC1
000406: 13,2756           15517                           STODL    TET
000407: 13,2757           23757                                    5/8
000408: 13,2760           77624                           CALL
000409: 13,2761           51220                                    RP-TO-R
000410: 13,2762           25535                           STOVL    RCV
000411: 13,2763           22270                                    ZUNIT
000412: 13,2764           14001                           STODL    0D
000413: 13,2765           01517                                    TET
000414: 13,2766           14007                           STODL    6D
000415: 13,2767           23757                                    5/8
000416: 13,2770           77624                           CALL
000417: 13,2771           51220                                    RP-TO-R
000418: 13,2772           74235                           VXV      VXSC
000419: 13,2773           01535                                    RCV
000420: 13,2774           27006                                    OMEGMOON
000421: 13,2775           25543                           STOVL    VCV
000422: 13,2776           22276                                    ZEROVEC
000423: 13,2777           01521                           STORE    TDELTAV
000424: 13,3000           67174                           AXT,2    SXA,2
000425: 13,3001           00002                                    2
000426: 13,3002           02032                                    PBODY
000427: 13,3003           35527                           STCALL   TNUV
000428: 13,3004           27130                                    A-PCHK
000429:
000430: 13,3005           07112 06620  OMEGMOON           2DEC*    2.66169947 E-8        B+23*
000431:
000432: 13,3007           33013        SETBANK            CAF      INTBANK
000433: 13,3010           54006                           TS       BBANK
000434: 13,3011           33432                           CAF      FORTYONE
000435: 13,3012           00002                           TC       Q
000436: 13,3013  E3,1554                                  EBANK=   RRECTCSM
000437: 13,3013           26063        INTBANK            BBCON    INTEGRV
000438:
000439:
000440:                                                                                                  #  SPECIAL PURPOSE ENTRIES TO ORBITAL INTEGRATION. THESE ROUTINES PROVIDE ENTRANCES TO INTEGRATION WITH
000441:                                                                                                  #  APPROPRIATE SWITCHES SET OR CLEARED FOR THE DESIRED INTEGRATION.
000442:
000443:                                                                                                  #  CSMPREC AND LEMPREC PERFORM ORBIT INTEGRATION BY THE ENCKE METHOD TO THE TIME INDICATED IN TDEC1
000444:                                                                                                  #  ACCELERATIONS DUE TO OBLATENESS ARE INCLUDED. NO W-MATRIX INT. IS DONE.
000445:                                                                                                  #  THE PERMANENT STATE VECTOR IS NOT UPDATED.
000446:                                                                                                  #  CSMCONIC AND LEMCONIC PERFORM ORBIT INTEG. BY KEPLERS METHOD TO THE TIME INDICATED IN TDEC1
000447:                                                                                                  #  NO DISTURBING ACCELERATIONS ARE INCLUDED. IN THE PROGRAM FLOW THE GIVEN
000448:                                                                                                  #  STATE VECTOR IS RECTIFIED BEFORE SOLUTION OF KEPLERS EQUATION
000449:
000450:                                                                                                  #  THE ROUTINES ASSUME THAT THE CSM (LEM) STATE VECTOR IN P-MEM IS VALID.
000451:                                                                                                  #  SWITCHES SET PRIOR TO ENTRY TO THE MAIN INTEG. PROG ARE AS FOLLOWS
000452:                                                                                                  #              CSMPREC  CSMCONIC   LEMPREC  LEMCONIC
000453:                                                                                                  #  VINTFLAG    SET        SET       CLEAR    CLEAR
000454:                                                                                                  #  INTYPFLG    CLEAR      SET       CLEAR    SET
000455:                                                                                                  #  DIM0FLAG    CLEAR      CLEAR     CLEAR    CLEAR
000456:
000457:
000458:                                                                                                  #  CALLING SEQUENCE
000459:                                                                                                  #     L-X  STORE TDEC1
000460:                                                                                                  #     L    CALL       (STCALL TDEC1)
000461:                                                                                                  #    L+1         CSMPREC (CSMCONIC, LEMPREC, LEMCONIC)
000462:
000463:                                                                                                  #  NORMAL EXIT TO L+2
000464:
000465:
000466:                                                                                                  #  SUBROUTINES CALLED
000467:                                                                                                  #    INTEGRV1
000468:                                                                                                  #    PRECOUT FOR CSMPREC AND LEMPREC
000469:                                                                                                  #    CONICOUT  FOR CSMCONIC AND LEMCONIC
000470:
000471:
000472:                                                                                                  #  OUTPUT - SEE PAGE 2 OF THIS LOG SECTION
000473:                                                                                                  #  INPUT
000474:                                                                                                  #   TDEC1   TIME TO INTEGRATE TO . CSECS B-28
000475: 13,3014           45020        CSMPREC            STQ      CALL
000476: 13,3015           00046                                    X1
000477: 13,3016           27362                                    INTSTALL
000478: 13,3017           43130                           SXA,1    SET
000479: 13,3020           02104                                    IRETURN
000480: 13,3021           01474                                    VINTFLAG
000481:
000482: 13,3022           43014        IFLAGP             SET      CLEAR
000483: 13,3023           01467                                    PRECIFLG
000484: 13,3024           01676                                    DIM0FLAG
000485: 13,3025           77614                           CLRGO
000486: 13,3026           01633                                    INTYPFLG
000487: 13,3027           27107                                    INTEGRV1
000488: 13,3030           45020        LEMPREC            STQ      CALL
000489: 13,3031           00046                                    X1
000490: 13,3032           27362                                    INTSTALL
000491: 13,3033           43130                           SXA,1    CLRGO
000492: 13,3034           02104                                    IRETURN
000493: 13,3035           01634                                    VINTFLAG
000494: 13,3036           27022                                    IFLAGP
000495:
000496: 13,3037           45020        CSMCONIC           STQ      CALL
000497: 13,3040           00046                                    X1
000498: 13,3041           27362                                    INTSTALL
000499: 13,3042           43130                           SXA,1    SET
000500: 13,3043           02104                                    IRETURN
000501: 13,3044           01474                                    VINTFLAG
000502: 13,3045           43014        IFLAGC             CLEAR    SETGO
000503: 13,3046           01676                                    DIM0FLAG
000504: 13,3047           01433                                    INTYPFLG
000505: 13,3050           27107                                    INTEGRV1
000506: 13,3051           45020        LEMCONIC           STQ      CALL
000507: 13,3052           00046                                    X1
000508: 13,3053           27362                                    INTSTALL
000509: 13,3054           43130                           SXA,1    CLRGO
000510: 13,3055           02104                                    IRETURN
000511: 13,3056           01634                                    VINTFLAG
000512: 13,3057           27045                                    IFLAGC
000513:
000514: 13,3060           66214        INTEGRVS           SET      SSP
000515: 13,3061           01467                                    PRECIFLG
000516: 13,3062           02033                                    PBODY
000517: 13,3063           00000                                    0
000518: 13,3064           66214                           BOF      SSP
000519: 13,3065           00343                                    MOONFLAG
000520: 13,3066           27071                                    +3
000521: 13,3067           02033                                    PBODY
000522: 13,3070           00002                                    2
000523: 13,3071           77220                           STQ      VLOAD
000524: 13,3072           02104                                    IRETURN
000525: 13,3073           22276                                    ZEROVEC
000526: 13,3074           01521                           STORE    TDELTAV
000527: 13,3075           35527                           STCALL   TNUV
000528: 13,3076           23340                                    RECTIFY
000529: 13,3077           43014                           CLEAR    SET
000530: 13,3100           01676                                    DIM0FLAG
000531: 13,3101           04062                                    NEWIFLG
000532: 13,3102           77614                           SETGO
000533: 13,3103           04020                                    RPQFLAG
000534: 13,3104           27121                                    ALOADED
000535:                                                                                                  #  INTEGRV IS AN ENTRY TO ORBIT INTEGRATION WHICH PERMITS THE CALLER ,
000536:                                                                                                  #  NORMALLY THE NAVIGATION PROGRAM ,TO SET THE INTEG. FLAGS. THE ROUTINE
000537:                                                                                                  #  IS ENTERED AT INTEGRV1 BY CSMPREC ET.AL. AND AT ALOADED BY INTEGRVS.
000538:                                                                                                  #  THE ROUTINE SETS UP A-MEMORY IF ENTERED AT INTEGRV,1 AND SETS THE INTEG.
000539:                                                                                                  #  PROGRAM FOR PRECISION OR CONIC
000540:
000541:                                                                                                  #  THE CALLER MUST FIRST CALL INTSTALL TO CHECK IF INTEG. IS IN USE BEFORE
000542:                                                                                                  #  SETTING ANY FLAGS.
000543:                                                                                                  #  THE FLAGS WHICH SHOULD BE SET OR CLEARED ARE
000544:                                                                                                  #    VINTFLAG    (IGNORED WHEN ENTERED FROM INTEGRVS)
000545:                                                                                                  #    INTYPFLG
000546:                                                                                                  #    DIM0FLAG
000547:                                                                                                  #    D6OR9FLG
000548:                                                                                                  #  CALLING SEQUENCE
000549:                                                                                                  #    L-X    CALL
000550:                                                                                                  #    L-Y          INTSTALL
000551:                                                                                                  #    L-1    SET OR CLEAR ALL FOUR FLAGS. ALSO CAN SET STATEFLG IF DESIRED
000552:                                                                                                  #           AND DIM0FLAG IS CLEAR.
000553:                                                                                                  #    L      CALL
000554:                                                                                                  #    L+1          INTEGRV
000555:                                                                                                  #  INITIALIZATION
000556:                                                                                                  #    FLAGS AS ABOVE
000557:                                                                                                  #    STORE TIME TO INTEGRATE TO IN TDEC1
000558:                                                                                                  #  OUTPUT
000559:                                                                                                  #    RATT   AS
000560:                                                                                                  #    VATT      DEFINED
000561:                                                                                                  #    TAT               BEFORE
000562:
000563:
000564: 13,3105           77620        INTEGRV            STQ
000565: 13,3106           02104                                    IRETURN
000566: 13,3107           43014        INTEGRV1           SET      SET
000567: 13,3110           04060                                    RPQFLAG
000568: 13,3111           04062                                    NEWIFLG
000569: 13,3112           77731        INTEGRV2           SSP
000570: 13,3113           00053                                    QPRET
000571: 13,3114           27121                                    ALOADED
000572: 13,3115           52014                           BON      GOTO
000573: 13,3116           01714                                    VINTFLAG
000574: 13,3117           26655                                    PTOACSM
000575: 13,3120           26730                                    PTOALEM
000576: 13,3121           77745        ALOADED            DLOAD
000577: 13,3122           00041                                    TDEC1
000578: 13,3123           01121                           STORE    TDEC
000579: 13,3124           52014                           BOFF     GOTO
000580: 13,3125           01753                                    INTYPFLG
000581: 13,3126           27227                                    TESTLOOP
000582: 13,3127           27213                                    RVCON
000583: 13,3130           77414        A-PCHK             BOFCLR   EXIT
000584: 13,3131           01652                                    STATEFLG
000585: 13,3132           27152                                    RECTOUT
000586: 13,3133           05413                           TC       PHASCHNG
000587: 13,3134           04022                           OCT      04022
000588: 13,3135           40774                           CS       RASFLAG                               #  PHASE CHANGE HAS OCCURRED BETWEEN
000589: 13,3136           75020                           MASK     REINTBIT                              #  INTSTALL AND INTWAKE
000590: 13,3137           26774                           ADS      RASFLAG
000591: 13,3140           06014                           TC       INTPRET
000592: 13,3141           77731                           SSP
000593: 13,3142           00053                                    QPRET
000594: 13,3143           27150                                    PHEXIT
000595: 13,3144           52014                           BON      GOTO
000596: 13,3145           01714                                    VINTFLAG
000597: 13,3146           26631                                    ATOPCSM
000598: 13,3147           26704                                    ATOPLEM
000599: 13,3150           77624        PHEXIT             CALL
000600: 13,3151           11054                                    GRP2PC
000601: 13,3152           45001        RECTOUT            SETPD    CALL
000602: 13,3153           00001                                    0
000603: 13,3154           23340                                    RECTIFY
000604: 13,3155           53775                           VLOAD    VSL*
000605: 13,3156           01503                                    RRECT
000606: 13,3157           57576                                    0,2
000607: 13,3160           53715                           PDVL     VSL*                                  #  RATT TO PD0
000608: 13,3161           01511                                    VRECT
000609: 13,3162           57576                                    0,2
000610: 13,3163           63325                           PDDL     PDVL                                  #  VATT TO PD6    TAT TO PD12
000611: 13,3164           01517                                    TET
000612: 13,3165           01503                                    RRECT
000613: 13,3166           64715                           PDVL     PDDL*
000614: 13,3167           01511                                    VRECT
000615: 13,3170           54040                                    MUEARTH,2
000616: 13,3171           76006                           PUSH     AXT,1
000617: 13,3172           77765                           DEC      -10        B-14
000618: 13,3173           76014                           BON      AXT,1
000619: 13,3174           00303                                    MOONFLAG
000620: 13,3175           27177                                    +2
000621: 13,3176           77775                           DEC      -2         B-14
000622: 13,3177           40001        INTEXIT            SETPD    BOV
000623: 13,3200           00001                                    0
000624: 13,3201           27202                                    +1
000625: 13,3202           43014                           CLEAR    CLEAR
000626: 13,3203           04676                                    AVEMIDSW                              #  ALLOW UPDATE OF DOWNLINK STATE VECTOR
000627: 13,3204           01667                                    PRECIFLG
000628: 13,3205           77535                           SLOAD    EXIT
000629: 13,3206           02105                                    IRETURN
000630: 13,3207           30154                           CA       MPAC
000631: 13,3210           50120                           INDEX    FIXLOC
000632: 13,3211           54052                           TS       QPRET
000633: 13,3212           03400                           TC       INTWAKE
000634:                                                                                                  #  RVCON SETS UP ORBIT INTEGRATION TO DO A CONIC SOLUTION FOR POSITION AND
000635:                                                                                                  #  VELOCITY FOR THE INTERVAL (TET-TDEC)
000636:
000637: 13,3213           45345        RVCON              DLOAD    DSU
000638: 13,3214           01121                                    TDEC
000639: 13,3215           01517                                    TET
000640: 13,3216           36076                           STCALL   TAU.
000641: 13,3217           23340                                    RECTIFY
000642: 13,3220           77624                           CALL
000643: 13,3221           22312                                    KEPPREP
000644: 13,3222           43345                           DLOAD    DAD
000645: 13,3223           01551                                    TC
000646: 13,3224           01517                                    TET
000647: 13,3225           35517                           STCALL   TET
000648: 13,3226           27152                                    RECTOUT
000649:
000650:                                                                                                  #           TESTLOOP
000651:
000652: 13,3227           43014        TESTLOOP           BOF      CLRGO
000653: 13,3230           04752                                    QUITFLAG
000654: 13,3231           27234                                    +3
000655: 13,3232           01632                                    STATEFLG
000656: 13,3233           27177                                    INTEXIT                               #  STOP INTEGRATION
000657: 13,3234           73001                 +3        SETPD    LXA,2
000658: 13,3235           00013                                    10D
000659: 13,3236           02032                                    PBODY
000660: 13,3237           51575                           VLOAD    ABVAL
000661: 13,3240           01535                                    RCV
000662: 13,3241           43006                           PUSH     CLEAR                                 #  RC TO 10D
000663: 13,3242           00262                                    MIDFLAG
000664: 13,3243           50023                           DSU*     BMN                                   #  MIDFLAG=0 IF R G.T. RMP
000665: 13,3244           55466                                    RME,2
000666: 13,3245           27250                                    +3
000667: 13,3246           77614                           SET
000668: 13,3247           00062                                    MIDFLAG
000669: 13,3250           41345        NORFINAL           DLOAD    DMP
000670: 13,3251           00013                                    10D
000671: 13,3252           00043                                    34D
000672: 13,3253           55762                           SR1R     DDV*
000673: 13,3254           54040                                    MUEARTH,2
000674: 13,3255           41366                           SQRT     DMP
000675: 13,3256           23672                                    .3D
000676: 13,3257           40442                           SR3      SR4                                   #  DT   IS TRUNCATED TO A MULTIPLE
000677: 13,3260           54345                           DLOAD    SL
000678: 13,3261           00155                                    MPAC
000679: 13,3262           20220                                    15D                                   #        OF 128 CSECS.
000680: 13,3263           40006                           PUSH     BOV
000681: 13,3264           27311                                    MAXDT
000682: 13,3265           50021                           BDSU     BMN
000683: 13,3266           27361                                    DT/2MAX
000684: 13,3267           27311                                    MAXDT
000685: 13,3270           45345        DT/2COMP           DLOAD    DSU
000686: 13,3271           01121                                    TDEC
000687: 13,3272           01517                                    TET
000688: 13,3273           54234                           RTB      SL
000689: 13,3274           21510                                    SGNAGREE
000690: 13,3275           20211                                    8D
000691: 13,3276           02100                           STORE    DT/2                                  #  B-19
000692: 13,3277           51400                           BOV      ABS
000693: 13,3300           27315                                    GETMAXDT
000694: 13,3301           50025                           DSU      BMN                                   #  IS TIME TO INTEG. TO GR THAN MAXTIME
000695: 13,3302           00015                                    12D
000696: 13,3303           27321                                    P00HCHK
000697: 13,3304           75345        USEMAXDT           DLOAD    SIGN
000698: 13,3305           00015                                    12D
000699: 13,3306           02100                                    DT/2
000700: 13,3307           36100                           STCALL   DT/2
000701: 13,3310           27321                                    P00HCHK
000702: 13,3311           65345        MAXDT              DLOAD    PDDL                                  #  EXCHANGE DT/2MAX WITH COMPUTED MAX.
000703: 13,3312           27361                                    DT/2MAX
000704: 13,3313           77650                           GOTO
000705: 13,3314           27270                                    DT/2COMP
000706: 13,3315           77634        GETMAXDT           RTB
000707: 13,3316           21656                                    SIGNMPAC
000708: 13,3317           36100                           STCALL   DT/2
000709: 13,3320           27304                                    USEMAXDT
000710: 13,3321           51545        P00HCHK            DLOAD    ABS
000711: 13,3322           02100                                    DT/2
000712: 13,3323           50025                           DSU      BMN
000713: 13,3324           27357                                    DT/2MIN
000714: 13,3325           27130                                    A-PCHK
000715: 13,3326           46135                           SLOAD    BHIZ
000716: 13,3327           01013                                    MODREG
000717: 13,3330           27333                                    +3
000718: 13,3331           77650                           GOTO
000719: 13,3332           23153                                    TIMESTEP
000720: 13,3333           77614                           BON                                            #  WAS THIS CALL VIA CSM(LEM)PREC
000721: 13,3334           01707                                    PRECIFLG
000722: 13,3335           23153                                    TIMESTEP                              #  YES
000723: 13,3336           45345                           DLOAD    DSU
000724: 13,3337           02100                                    DT/2
000725: 13,3340           00015                                    12D
000726: 13,3341           43040                           BMN      BOFCLR
000727: 13,3342           27130                                    A-PCHK
000728: 13,3343           04242                                    NEWIFLG
000729: 13,3344           23153                                    TIMESTEP
000730: 13,3345           45345                           DLOAD    DSU
000731: 13,3346           01121                                    TDEC
000732: 13,3347           01517                                    TET
000733: 13,3350           40525                           PDDL     SR4
000734: 13,3351           02100                                    DT/2                                  #  IS 4(DT) LS (TDEC - TET)
000735: 13,3352           44322                           SR2R     BDSU                                  #  NO
000736: 13,3353           52040                           BMN      GOTO
000737: 13,3354           27177                                    INTEXIT
000738: 13,3355           23153                                    TIMESTEP
000739: 13,3356           00000 01400  DT/2MIN            2DEC     3          B-20
000740:
000741: 13,3360           14152 00000  DT/2MAX            2DEC     4000       E2         B-20
000742:
000743: 13,3362           77776        INTSTALL           EXIT
000744: 13,3363           05563                           TC       UPFLAG
000745: 13,3364           00114                           ADRES    INTFLG2
000746: 13,3365           35030                           CAF      ZERO
000747: 13,3366           54001        ALLSTALL           TS       L
000748: 13,3367           30774                           CA       RASFLAG
000749: 13,3370           50001                           INDEX    L
000750: 13,3371           73463                           MASK     INTBITAB                              #  IS THIS STALL AREA FREE
000751: 13,3372           00006                           EXTEND
000752: 13,3373           13441                           BZF      OKTOGRAB                              #  YES
000753: 13,3374           50001                           INDEX    L
000754: 13,3375           33460                           CAF      WAKESTAL
000755: 13,3376           05203                           TC       JOBSLEEP
000756: 13,3377           77776        INTWAKE0           EXIT
000757:
000758: 13,3400           40774        INTWAKE            CS       RASFLAG                               #  IS THIS INTSTALLED ROUTINE TO BE
000759: 13,3401           75020                           MASK     REINTBIT                              #       RESTARTED
000760: 13,3402           10000                           CCS      A
000761: 13,3403           03420                           TC       INTWAKE1                              #  NO
000762:
000763: 13,3404           50120                           INDEX    FIXLOC
000764: 13,3405           30052                           CA       QPRET
000765: 13,3406           55056                           TS       TBASE2                                #  YES, DONT RESTART WITH SOMEONE ELSES Q
000766:
000767: 13,3407           05413                           TC       PHASCHNG
000768: 13,3410           04022                           OCT      04022
000769:
000770: 13,3411           31056                           CA       TBASE2
000771: 13,3412           50120                           INDEX    FIXLOC
000772: 13,3413           54052                           TS       QPRET
000773:
000774: 13,3414           35020                           CAF      REINTBIT
000775: 13,3415           70774                           MASK     RASFLAG
000776: 13,3416           00006                           EXTEND
000777: 13,3417           13444                           BZF      GOBAC                                 #  DONT INTWAKE IF WE CAME HERE VIA RESTART
000778:
000779: 13,3420           05575        INTWAKE1           TC       DOWNFLAG
000780: 13,3421           00114                           ADRES    INTFLG2
000781: 13,3422           35030                           CAF      ZERO
000782: 13,3423           54154        WAKE               TS       STALTEM                               #  INDEX OF ANY STALL USER
000783: 13,3424           50154        WAKE1              INDEX    STALTEM
000784: 13,3425           33460                           CAF      WAKESTAL
000785: 13,3426           00004                           INHINT
000786: 13,3427           05207                           TC       JOBWAKE
000787: 13,3430           10064                           CCS      LOCCTR
000788: 13,3431           13424                           TCF      WAKE1                                 #  MAY BE MORE TO WAKE UP
000789: 13,3432           00051        FORTYONE           DEC      41         B-14
000790: 13,3433           50154                           INDEX    STALTEM
000791: 13,3434           43463                           CS       INTBITAB
000792: 13,3435           70774                           MASK     RASFLAG
000793: 13,3436           54774                           TS       RASFLAG                               #  RELEASE STALL AREA
000794: 13,3437           00003                           RELINT
000795: 13,3440           13444                           TCF      GOBAC
000796: 13,3441           50001        OKTOGRAB           INDEX    L                                     #  NO, WAIT UNTIL AVAILABLE
000797: 13,3442           35011                           CAF      INTFLBIT
000798: 13,3443           26774                           ADS      RASFLAG
000799: 13,3444           06014        GOBAC              TC       INTPRET
000800: 13,3445           77616                           RVQ
000801: 13,3446           77776        ERASTAL1           EXIT
000802: 13,3447           35026                           CAF      ONE
000803: 13,3450           13366                           TCF      ALLSTALL
000804: 13,3451           77776        ERASTAL2           EXIT
000805: 13,3452           35025                           CAF      TWO
000806: 13,3453           13366                           TCF      ALLSTALL
000807: 13,3454           35026        ERASWAK1           CAF      ONE
000808: 13,3455           13423                           TCF      WAKE
000809: 13,3456           35025        ERASWAK2           CAF      TWO
000810: 13,3457           13423                           TCF      WAKE
000811: 13,3460           27363        WAKESTAL           CADR     INTSTALL   +1
000812: 13,3461           27447                           CADR     ERASTAL1   +1
000813: 13,3462           27452                           CADR     ERASTAL2   +1
000814: 13,3463     0154               STALTEM            EQUALS   MPAC
000815: 13,3463           20100        INTBITAB           OCT      20100
000816: 13,3464           10040                           OCT      10040
000817: 13,3465           04020                           OCT      04020
000818:
000819:                                                                                                  #  AVETOMID
000820:
000821:                                                                                                  #  THIS ROUTINE PERFORMS THE TRANSITION FROM A THRUSTING PHASE TO THE COAST
000822:                                                                                                  #  PHASE BY INITIALIZING THIS VEHICLES PERMANENT STATE VECTOR WITH THE
000823:                                                                                                  #  VALUES LEFT BY THE AVERAGEG ROUTINE IN RN,VN,PIPTIME.
000824:
000825:                                                                                                  #  BEFORE THIS IS DONE THE W-MATRIX, IF ITS  VALID (ORWFLAG OR RENDWFLG IS
000826:                                                                                                  #  SET) IS INTEGRATED FORWARD TO PIPTIME WITH THE PRE-THRUST STATE VECTOR.
000827:
000828:                                                                                                  #  IN ADDITION, THE OTHER VEHICLE IS INTEGRATED (PERMANENT) TO PIPTIME.
000829:
000830:                                                                                                  #  FINALLY TRKMKCNT IS ZEROED
000831:
000832: 13,2000                                           SETLOC   INTINIT
000833: 13,2000                                           BANK
000834:
000835: 13,3466                                           COUNT*   $$/INTIN
000836: 13,3466           43020        AVETOMID           STQ      BON
000837: 13,3467           02772                                    EGRESS
000838: 13,3470           02716                                    RENDWFLG
000839: 13,3471           27541                                    INT/W                                 #  W-MATRIX VALID ,GO INTEGRATE IT
000840: 13,3472           77614                           BON
000841: 13,3473           01711                                    ORBWFLAG
000842: 13,3474           27541                                    INT/W                                 #  W-MATRIX VALID ,GO INTEGRATE IT
000843:
000844: 13,3475           45145        OTHERS             DLOAD    CALL                                  #  GET SET FOR OTHER VEHICLE INTEGRATION
000845: 13,3476           01234                                    PIPTIME                               #  DESIRED TIME
000846: 13,3477           27362                                    INTSTALL
000847: 13,3500           45014                           SET      CALL
000848: 13,3501           01474                                    VINTFLAG                              #  CM
000849: 13,3502           26622                                    SETIFLGS                              #  SETS UP NONE W-MAT. PERMANENT INTEG.
000850: 13,3503           43014                           BOF      CLEAR
000851: 13,3504           02747                                    COMPUTER
000852: 13,3505           27507                                    +2                                    #  COMPUTER IS LM ,INTEG CM
000853: 13,3506           01674                                    VINTFLAG                              #  COMPUTER IS CM ,INTEG LM
000854: 13,3507           34041                           STCALL   TDEC1
000855: 13,3510           27105                                    INTEGRV
000856:
000857: 13,3511           45174                           AXT,2    CALL                                  #  NOW MOVE PROPERLY SCALE RN,UN AS WELL AS
000858: 13,3512           00002                                    2                                     #  PIPTIME TO INTEGRATION ERASABLES.
000859: 13,3513           27362                                    INTSTALL
000860: 13,3514           77014                           BON      AXT,2
000861: 13,3515           04304                                    MOONTHIS
000862: 13,3516           27520                                    +2
000863: 13,3517           00000                                    0
000864: 13,3520           53775                           VLOAD    VSR*
000865: 13,3521           01220                                    RN
000866: 13,3522           57176                                    0,2
000867: 13,3523           01503                           STORE    RRECT
000868: 13,3524           15535                           STODL    RCV
000869: 13,3525           01234                                    PIPTIME
000870: 13,3526           25517                           STOVL    TET
000871: 13,3527           01226                                    VN
000872: 13,3530           45057                           VSR*     CALL
000873: 13,3531           57176                                    0,2
000874: 13,3532           23354                                    MINIRECT                              #  FINISH SETTING UP STATE VECTOR
000875: 13,3533           66234                           RTB      SSP
000876: 13,3534           26717                                    MOVATHIS                              #  PUT TEMP STATE VECTOR INTO PERMANENT
000877: 13,3535           03450                                    TRKMKCNT
000878: 13,3536           00000                                    0
000879: 13,3537           77650                           GOTO
000880: 13,3540           46736                                    FAZAB5
000881:
000882: 13,3541           45145        INT/W              DLOAD    CALL
000883: 13,3542           01234                                    PIPTIME                               #  INTEGRATE W THRU BURN
000884: 13,3543           27362                                    INTSTALL
000885: 13,3544           43014                           SET      SET
000886: 13,3545           01476                                    DIM0FLAG                              #  DO W-MATRIX
000887: 13,3546           04476                                    AVEMIDSW                              #  SO WONT CLOBBER RN,VN,PIPTIME
000888: 13,3547           43014                           SET      CLEAR
000889: 13,3550           01475                                    D6OR9FLG                              #  9X9 FOR LM
000890: 13,3551           01674                                    VINTFLAG                              #  LM
000891: 13,3552           43014                           BOF      SET
000892: 13,3553           02747                                    COMPUTER
000893: 13,3554           27560                                    +4                                    #  LM TO DO
000894: 13,3555           01474                                    VINTFLAG
000895: 13,3556           77614                           CLEAR
000896: 13,3557           01675                                    D6OR9FLG                              #  6X6 FOR CM
000897: 13,3560           34041                           STCALL   TDEC1
000898: 13,3561           27105                                    INTEGRV
000899: 13,3562           77650                           GOTO
000900: 13,3563           27475                                    OTHERS                                #  NOW GO DO THE OTHER VEHICLE
000901:
000902:                                                                                                  #  MIDTOAV1
000903:
000904:                                                                                                  #  THIS ROUTINE INTEGRATES (PRECISION) TO THE TIME SPECIFIED IN TDEC1.
000905:                                                                                                  #  IF, AT THE END OF AN INTEGRATION TIME STEP, CURRENT TIME PLUS A DELTA
000906:                                                                                                  #  TIME (SEE TIMEDELT.....BASED ON THE COMPUTATUON TIME FOR ONE TIME STEP)
000907:                                                                                                  #  IS GREATER THAN THE DESIRED TIME, ALARM 1703 IS SET AND THE INTEGRATION
000908:                                                                                                  #  IS DONE TO THE CURRENT TIME.
000909:                                                                                                  #  RETURN IS IN BASIC TO THE RETURN ADDRESS PLUS ONE.
000910:
000911:                                                                                                  #  IF THE INTEGRATION IS FINISHED TO THE DESIRED TIME, RETURN IS IN BASIC
000912:                                                                                                  #  TO THE RETURN ADDRESS
000913:
000914:                                                                                                  #  IN EITHER CASE , BEFORE RETURNING, THE EXTRAPOLATED STATE VECTOR IS TRAN
000915:                                                                                                  #  FERRED FROM R,VATT TO R,VN1-PIPTIME1 IS SET TO THE FINISHING INTEGRA-
000916:                                                                                                  #  TION TIME AND MPAC IS SET TO THE DELTA TIME---
000917:                                                                                                  #                                    TAT MINUS CURRENT TIME.
000918:
000919:
000920:                                                                                                  #  MIDTOAV2
000921:
000922:                                                                                                  #  THIS ROUTINE INTEGRATES THIS VEHICLES STATE VECTOR TO THE CURRENT TIME.
000923:                                                                                                  #  NO INPUTS ARE REQUIRED OF THE CALLER. RETURN IS IN BASIC TO THE RETURN
000924:                                                                                                  #  ADDRESS WITH THE ABOVE TRANSFERS TO R,VN1-PIPTIME1-AND MPAC DONE
000925:
000926: 13,3564  E7,1730                                  EBANK=   IRETURN1
000927: 13,3564           43020        MIDTOAV2           STQ      CLRGO                                 #  INTEGRATE TO PRESENT TIME PLUS TIMEDELT
000928: 13,3565           03730                                    IRETURN1
000929: 13,3566           04634                                    MID1FLAG
000930: 13,3567           27603                                    ENTMID2
000931:
000932: 13,3570           43020        MIDTOAV1           STQ      SET                                   #   INTEGRATE TO TDEC1
000933: 13,3571           03730                                    IRETURN1
000934: 13,3572           04474                                    MID1FLAG
000935: 13,3573           43234                           RTB      DAD                                   #  INITIAL CHECK, IS TDEC1 IN THE FUTURE
000936: 13,3574           21454                                    LOADTIME
000937: 13,3575           27702                                    TIMEDELT
000938: 13,3576           51021                           BDSU     BPL
000939: 13,3577           00041                                    TDEC1
000940: 13,3600           27607                                    ENTMID1                               #   Y5S
000941: 13,3601           77624                           CALL
000942: 13,3602           27670                                    NOTIME                                #  NO, SET ALARM, SWITCH TO MIDTOAV2
000943:
000944: 13,3603           43234        ENTMID2            RTB      DAD
000945: 13,3604           21454                                    LOADTIME
000946: 13,3605           27702                                    TIMEDELT
000947: 13,3606           00041                           STORE    TDEC1
000948:
000949: 13,3607           77624        ENTMID1            CALL
000950: 13,3610           27362                                    INTSTALL
000951: 13,3611           45014                           CLEAR    CALL
000952: 13,3612           01676                                    DIM0FLAG                              #  NO W-MATRIX
000953: 13,3613           26040                                    THISVINT
000954: 13,3614           43014                           CLEAR    SET
000955: 13,3615           01673                                    INTYPFLG
000956: 13,3616           04475                                    MIDAVFLG                              #  LET INTEG. KNOW THE CALL IS FOR MIDTOAV.
000957: 13,3617           77624                           CALL
000958: 13,3620           27105                                    INTEGRV                               #   GO INTEGRATE
000959: 13,3621           77214                           CLEAR    VLOAD
000960: 13,3622           04675                                    MIDAVFLG
000961: 13,3623           00001                                    RATT
000962: 13,3624           27532                           STOVL    RN1
000963: 13,3625           00007                                    VATT
000964: 13,3626           17540                           STODL    VN1
000965: 13,3627           00015                                    TAT
000966: 13,3630           03546                           STORE    PIPTIME1
000967: 13,3631           77776                           EXIT
000968:
000969: 13,3632           00004                           INHINT
000970: 13,3633           00006                           EXTEND
000971: 13,3634           40025                           DCS      TIME2
000972: 13,3635           20155                           DAS      MPAC
000973: 13,3636           07231                           TC       TPAGREE
000974:
000975: 13,3637           31730                           CA       IRETURN1
000976: 13,3640           04677                           TC       BANKJUMP
000977: 13,3641           47014        CKMID2             BOF      RTB
000978: 13,3642           04754                                    MID1FLAG
000979: 13,3643           27660                                    MID2
000980: 13,3644           21454                                    LOADTIME
000981: 13,3645           44215                           DAD      BDSU
000982: 13,3646           27702                                    TIMEDELT
000983: 13,3647           01121                                    TDEC
000984: 13,3650           45044                           BPL      CALL
000985: 13,3651           27227                                    TESTLOOP                              #  YES
000986: 13,3652           27670                                    NOTIME
000987:
000988: 13,3653           43234        TIMEINC            RTB      DAD
000989: 13,3654           21454                                    LOADTIME
000990: 13,3655           27702                                    TIMEDELT
000991: 13,3656           35121                           STCALL   TDEC
000992: 13,3657           27227                                    TESTLOOP
000993:
000994: 13,3660           45345        MID2               DLOAD    DSU
000995: 13,3661           01121                                    TDEC
000996: 13,3662           01517                                    TET
000997: 13,3663           45246                           ABS      DSU
000998: 13,3664           27700                                    3CSECS
000999:
001000: 13,3665           52040                           BMN      GOTO
001001: 13,3666           27130                                    A-PCHK
001002: 13,3667           27653                                    TIMEINC
001003:
001004: 13,3670           77414        NOTIME             CLEAR    EXIT                                  #  TOO LATE
001005: 13,3671           04674                                    MID1FLAG
001006: 13,3672           25730                           INCR     IRETURN1                              #  SET ERROR EXIT  (CALLOC +2)
001007: 13,3673           05646                           TC       ALARM                                 #  INSUFFICIENT TIME FOR INTEGRATION --
001008: 13,3674           01703                           OCT      1703                                  #     TIG WILL BE SLIPPED...
001009: 13,3675           06014                           TC       INTPRET
001010: 13,3676           77616                           RVQ
001011:
001012: 13,3677           00000 00003  3CSECS             2DEC     3          B-28
001013:
001014: 13,3701           00000 01750  TIMEDELT           2DEC     1000       B-28
001015:


001017:
001018: 27,3313                                           BANK     27
001019: 04,2000                                           SETLOC   UPDATE2
001020: 04,2000                                           BANK
001021: 04,2775     0301                                  EBANK=   INTWAKUQ
001022:
001023: 04,2775                                           COUNT*   $$/INTIN
001024:
001025: 04,2775     0301               INTWAKUQ           =        INTWAK1Q                              #  TEMPORARY UNTIL NAME OF INTWAK1Q IS CHNG
001026:
001027: 04,2775           00003        INTWAKEU           RELINT
001028: 04,2776           00006                           EXTEND
001029: 04,2777           22301                           QXCH     INTWAKUQ                              #  SAVE Q FOR RETURN
001030:
001031: 04,3000           06014                           TC       INTPRET
001032:
001033: 04,3001           53135                           SLOAD    BZE                                   #  IS THIS A CSM/LEM STATE VECTOR UPDATE
001034: 04,3002           01502                                    UPSVFLAG                              #  REQUEST. IF NOT GO TO INTWAKUP.
001035: 04,3003           11042                                    INTWAKUP
001036:
001037: 04,3004           77775                           VLOAD                                          #  MOVE RRECT(6) AND VRECT(6) INTO
001038: 04,3005           01503                                    RRECT                                 #       RCV(6)   AND VCV(6)   RESPECTIVELY.
001039: 04,3006           25535                           STOVL    RCV
001040: 04,3007           01511                                    VRECT                                 #  NOW GO TO 'RECTIFY +13D' TO
001041: 04,3010           77624                           CALL                                           #  STORE VRECT INTO VCV  AND ZERO OUT
001042: 04,3011           23355                                    RECTIFY    +13D                       #  TDELTAV(6),TNUV(6),TC(2) AND XKEP(2)
001043: 04,3012           51535                           SLOAD    ABS                                   #  COMPARE ABSOLUTE VALUE OF 'UPSVFLAG'
001044: 04,3013           01502                                    UPSVFLAG                              #  TO 'UPDATE MOON STATE VECTOR CODE'
001045: 04,3014           53025                           DSU      BZE                                   #  TO DETERMINE WHETHER THE STATE VECTOR TO
001046: 04,3015           11053                                    UPMNSVCD                              #  BE UPDATED IS IN THE EARTH OR LUNAR
001047: 04,3016           11023                                    INTWAKEM                              #  SPHERE OF INFLUENCE.........
001048: 04,3017           43174                           AXT,2    CLRGO                                 #  EARTH SPHERE OF INFLUENCE.
001049: 04,3020           00000                           DEC      0          B-14
001050: 04,3021           00223                                    MOONFLAG
001051: 04,3022           11026                                    INTWAKEC
001052: 04,3023           43174        INTWAKEM           AXT,2    SET                                   #  LUNAR SPHERE OF INFLUENCE.
001053: 04,3024           00002                           DEC      2          B-14
001054: 04,3025           00063                                    MOONFLAG
001055: 04,3026           50135        INTWAKEC           SLOAD    BMN                                   #  COMMON CODING AFTER X2 INITIALIZED AND
001056:                                                                                                  #  MOONFLAG SET (OR CLEARED).
001057: 04,3027           01502                                    UPSVFLAG                              #  IS THIS A REQUEST FOR A LEM OR CSM
001058: 04,3030           11036                                    INTWAKLM                              #   STATE VECTOR UPDATE......
001059: 04,3031           77624                           CALL                                           #  UPDATE CSM STATE VECTOR
001060: 04,3032           26631                                    ATOPCSM
001061:
001062: 04,3033           52014                           CLEAR    GOTO
001063: 04,3034           01671                                    ORBWFLAG
001064: 04,3035           11040                                    INTWAKEX
001065:
001066: 04,3036           77624        INTWAKLM           CALL                                           #  UPDATE  LM STATE VECTOR
001067: 04,3037           26704                                    ATOPLEM
001068:
001069: 04,3040           77614        INTWAKEX           CLEAR
001070: 04,3041           02676                                    RENDWFLG
001071:
001072: 04,3042           45131        INTWAKUP           SSP      CALL                                  #  REMOVE :UPDATE STATE VECTOR INDICATOR:
001073: 04,3043           01502                                    UPSVFLAG
001074: 04,3044           00000                                    0
001075: 04,3045           27377                                    INTWAKE0                              #  RELEASE :GRAB: OF ORBIT INTEG
001076: 04,3046           77776                           EXIT
001077:
001078: 04,3047           05413                           TC       PHASCHNG
001079: 04,3050           04026                           OCT      04026
001080: 04,3051           00301                           TC       INTWAKUQ
001081:
001082: 04,3052           00002        UPMNSVCD           OCT      2
001083: 04,3053           00000                           OCT      0
001084:
001085:
001086: 04,3054           77420        GRP2PC             STQ      EXIT
001087: 04,3055           02711                                    GRP2SVQ
001088: 04,3056           05413                           TC       PHASCHNG
001089: 04,3057           04022                           OCT      04022
001090: 04,3060           06014                           TC       INTPRET
001091: 04,3061           77650                           GOTO
001092: 04,3062           02711                                    GRP2SVQ
001093:
001094:


001106: 32,3672                                           BANK     32
001107: 32,2000                                           SETLOC   P40S2
001108: 32,2000                                           BANK
001109:
001110: 32,3672                                           COUNT*   $$/P40
001111:
001112: 32,3672           00041                 -1        STORE    TDEC1
001113: 32,3673           77620        TIGINT             STQ
001114: 32,3674           03730                                    IRETURN1
001115: 32,3675           77624                           CALL
001116: 32,3676           27030                                    LEMPREC
001117: 32,3677           77775                           VLOAD
001118: 32,3700           00001                                    RATT
001119: 32,3701           27532                           STOVL    RN1
001120: 32,3702           00007                                    VATT
001121: 32,3703           17540                           STODL    VN1
001122: 32,3704           00015                                    TAT
001123: 32,3705           03546                           STORE    PIPTIME1
001124: 32,3706           77650                           GOTO
001125: 32,3707           03730                                    IRETURN1

End of include-file INTEGRATION_INITIALIZATION.agc.  Parent file is MAIN.agc


