
Source Code


000002:                                                                                                  ## Copyright:   Public domain.
000003:                                                                                                  ## Filename:    INTERPRETER.agc
000004:                                                                                                  ## Purpose:     A section of a reconstructed, mixed version of Sundance
000005:                                                                                                  ##              It is part of the reconstructed source code for the Lunar
000006:                                                                                                  ##              Module's (LM) Apollo Guidance Computer (AGC) for Apollo 9.
000007:                                                                                                  ##              No original listings of this program are available;
000008:                                                                                                  ##              instead, this file was created via disassembly of dumps
000009:                                                                                                  ##              of various revisions of Sundance core rope modules.
000010:                                                                                                  ## Assembler:   yaYUL
000011:                                                                                                  ## Contact:     Ron Burkey <info@sandroid.org>.
000012:                                                                                                  ## Website:     www.ibiblio.org/apollo/index.html
000013:                                                                                                  ## Mod history: 2020-06-17 MAS  Created from Luminary 69.
000014:
000015:                                                                                                  ## Sundance 292
000016:
000017:                                                                                                  #  SECTION 1  DISPATCHER
000018:
000019:                                                                                                  #           ENTRY TO THE INTERPRETER. INTPRET SETS LOC TO THE FIRST  INSTRUCTION, BANKSET TO THE BBANK OF THE
000020:                                                                                                  #  OBJECT INTERPRETIVE PROGRAM, AND INTBIT15 TO THE BIT15 CONTENTS OF FBANK. INTERPRETIVE PROGRAMS MAY BE IN
000021:                                                                                                  #  VIRTUALLY ALL BANKS PRESENT UNDER ANY SUPER-BANK SETTING, WITH THE RESTRICTION THAT PROGRAMS IN HIGH BANKS
000022:                                                                                                  #  (BIT15 OF FBANK = 1) DO NOT REFER TO LOWBANKS, AND VICE-VERSA. THE INTERPRETER DOES NOT SWITCH SUPERBANKS.
000023:                                                                                                  #  E-BANK SWITCHING OCCURS WHENEVER GENERAL ERASABLE (100 - 3777) IS ADDRESSED.
000024:
000025:    6014                                           BLOCK    03
000026:
000027:    6014                                           COUNT*   $$/INTER
000028:    6014           00006        INTPRET            EXTEND                                         #  SET LOC TO THE WORD FOLLOWING THE TC.
000029:    6015           22164                           QXCH     LOC
000030:
000031:    6016           30006                 +2        CA       BBANK                                 #  INTERPRETIVE BRANCHES FINISH HERE.
000032:    6017           54165                           TS       BANKSET
000033:    6020           75010                           MASK     BIT15                                 #  GET 15TH BIT FOR INDEXABLE ADDRESSES.
000034:    6021           54115                           TS       INTBIT15
000035:
000036:    6022           54023                           TS       EDOP                                  #  MAKE SURE NO INSTRUCTIONS LEFT OVER
000037:
000038:    6023           16044                           TCF      NEWOPS                                #  PICK UP OP CODE PAIR AND BEGIN.
000039:
000040:
000041:    6024           22006        INTRSM             LXCH     BBANK                                 #  RESUME SUSPENDED INTERPRETIVE JOB
000042:    6025           16016                           TCF      INTPRET    +2
000043:                                                                                                  #           DLOAD LOADS MPAC, MPAC +1, LEAVING ZERO IN MPAC +2.
000044:
000045:    6026           00006        DLOAD              EXTEND
000046:    6027           50116                           INDEX    ADDRWD
000047:    6030           30001                           DCA      0                                     #  LOAD DP C(C(ADDRWD)) INTO MPAC,MPAX +1
000048:    6031           52155        SLOAD2             DXCH     MPAC
000049:    6032           35030                           CAF      ZERO                                  #  ZERO MPAC +2
000050:
000051:                                                                                                  #           AT THE END OF MOST INSTRUCTIONS, CONTROL IS GIVEN TO DANZIG TO DISPATCH THE NEXT OPERATION.
000052:
000053:    6033           54156                           TS       MPAC       +2                         #  AND DECLARE DP MODE
000054:
000055:    6034           54163        NEWMODE            TS       MODE                                  #  PROLOGUE FOR MODE-CHANGING INSTRUCTIONS.
000056:
000057:    6035           30165        DANZIG             CA       BANKSET                               #  SET BBANK BEFORE TESTING NEWJOB SO THAT
000058:    6036           54006                           TS       BBANK                                 #  IT MAY BE SAVED DIRECTLY BY CHANJOB.
000059:
000060:    6037           10023        NOIBNKSW           CCS      EDOP                                  #  SEE IF AN ORDER CODE IS LEFT OVER FROM
000061:    6040           16053                           TCF      OPJUMP                                #  THE LAST PAIR RETRIEVED. IF SO, EXECUTE.
000062:                                                                                                  #  EDOP IS SET TO ZERO ON ITS RE-EDITING.
000063:
000064:    6041           10067                           CCS      NEWJOB                                #  SEE IF A JOB OF HIGHER PRIORITY IS
000065:    6042           15176                           TCF      CHANG2                                #  PRESENT, AND IF SO, CHANGE JOBS.
000066:
000067:    6043           24164                           INCR     LOC                                   #  ADVANCE THE LOCATION COUNTER.
000068:                                                                                                  #           ITRACE (1) REFERS TO "NEWOPS".
000069:    6044           50164        NEWOPS             INDEX    LOC                                   #  ENTRY TO BEGIN BY PICKING OP CODE PAIR.
000070:    6045           30000                           CA       0                                     #  MAY BE AN OPCODE PAIR OR A STORE CODE.
000071:    6046           10000                           CCS      A                                     #  TEST SIGN AND GET DABS(A).
000072:    6047           16336                           TCF      DOSTORE                               #  PROCESS STORE CODE.
000073:
000074:    6050           00177        LOW7               OCT      177
000075:
000076:    6051           54023                           TS       EDOP                                  #  OP CODE PAIR. LEAVE THE OTHER IN EDOP
000077:    6052           76050                           MASK     LOW7                                  #  WHERE  CCS EDOP  WILL HONOR IT NEXT.
000078:
000079:    6053           54020        OPJUMP             TS       CYR                                   #  LOWWD ENTERS HERE IF A RIGHT-HAND OP
000080:    6054           10020                           CCS      CYR                                   #  CODE IS TO BE PROCESSED. TEST PREFICES.
000081:    6055           16223                           TCF      OPJUMP2                               #  TEST SECOND PREFIX BIT.
000082:
000083:    6056           16717                           TCF      EXIT                                  #  +0 OP CODE IS EXIT.
000084:
000085:                                                                                                  #           PROCESS ADDRESSES WHICH MAY BE DIRECT, INDEXED, OR REFERENCE THE PUSHDOWN LIST.
000086:
000087:    6057           75026        ADDRESS            MASK     BIT1                                  #  SEE IF ADDRESS IS INDEXED. CYR CONTAINED
000088:    6060           10000                           CCS      A                                     #  400XX, SO BIT 1 IS NOW AS IT WAS IN CYR.
000089:    6061           16122                           TCF      INDEX                                 #  FORM INDEXED ADDRESS.
000090:
000091:    6062           50164        DIRADRES           INDEX    LOC                                   #  LOOK AHEAD TO NEXT WORD TO SEE IF
000092:    6063           40001        OCT40001           CS       1                                     #  ADDRESS IS GIVEN.
000093:    6064           10000                           CCS      A
000094:    6065           16171                           TCF      PUSHUP                                #  IF NOT.
000095:
000096:    6066           77773        NEG4               DEC      -4         B-14
000097:
000098:    6067           24164                           INCR     LOC                                   #  IF SO, TO SHOW WE PICKED UP A WORD.
000099:    6070           54116                           TS       ADDRWD
000100:
000101:                                                                                                  #           FINAL DIGESTION OF DIRECT ADDRESSES OF OP CODES WITH 01 PREFIX IS DONE HERE. IN EACH CASE, THE
000102:                                                                                                  #  REQUIRED 12-BIT SUB-ADDRESS IS LEFT IN ADDRWD, WITH ANY REQUIRED E OR F BANK SWITCHING DONE. ADDRESSES LESS
000103:                                                                                                  #  THAN 45D ARE TAKEN TO BE RELATIVE TO THE WORK AREA. THE OP CODE IS NOW IN BITS 1-5 OF CYR WITH BIT 14 = 1.
000104:
000105:
000106:    6071           66225                           AD       -ENDVAC                               #  SEE IF ADDRESS RELATIVE TO WORK AREA.
000107:    6072           10000                           CCS      A
000108:    6073           67714                           AD       -ENDERAS                              #  IF NOT, SEE IF IN GENERAL ERASABLE.
000109:    6074           16101                           TCF      IERASTST
000110:
000111:    6075           30120        NETZERO            CA       FIXLOC                                #  IF SO, LEAVE THE MODIFIED ADDRESS IN
000112:    6076           26116                           ADS      ADDRWD                                #  ADDRWD AND DISPATCH.
000113:    6077           50020        ITR15              INDEX    CYR                                   #  THIS INDEX MAKES THE NEXT INSTRUCTION
000114:    6100           76247                           7        INDJUMP    -1                         #  TCF INDJUMP + OP, EDITING CYR.
000115:
000116:    6101           00006        IERASTST           EXTEND
000117:    6102           66112                           BZMF     GEADDR                                #  GO PROCESS GENERAL-ERASABLE ADDRESS.
000118:
000119:    6103           75062                           MASK     LOW10                                 #  FIXED BANK ADDRESS. RESTORE AND ADD B15.
000120:    6104           65062                           AD       LOW10                                 #  SWITCH BANKS AND LEAVE SUBADDRESS IN
000121:    6105           56116                           XCH      ADDRWD                                #  ADDRWD FOR OPERAND RETRIEVAL. (THIS
000122:    6106           60115                           AD       INTBIT15                              #  METHOD PRECLUDES USE OF THE LAST
000123:    6107           54004                           TS       FBANK                                 #  LOCATION IN EACH FBANK.)
000124:    6110           50020        ITR12              INDEX    CYR
000125:    6111           76247                           7        INDJUMP    -1
000126:
000127:    6112           74371        GEADDR             MASK     LOW8
000128:    6113           65057                           AD       OCT1400
000129:    6114           56116                           XCH      ADDRWD
000130:    6115           54003                           TS       EBANK
000131:    6116           50020        ITR10              INDEX    CYR
000132:    6117           76247                           7        INDJUMP    -1
000133:
000134:                                                                                                  #           THE FOLLOWING ROUTINE PROCESSES INTERPRETIVE INDEXED ADDRESSES. AN INTERPRETER INDEX REGISTER MAY
000135:                                                                                                  #  CONTAIN THE ADDRESS OF ANY ERASABLE REGISTER (0-42 BEING RELATIVE TO THE VAC AREA) OR ANY INTERPRETIVE PROGRAM
000136:                                                                                                  #  BANK, OR ANY INTEGER IN THAT RANGE.
000137:
000138:    6120           37705        DODLOAD*           CAF      DLOAD*                                #  STODL* COMES HERE TO PROCESS LOAD ADR.
000139:    6121           54020                           TS       CYR                                   #  (STOVL* ENTERS HERE).
000140:
000141:    6122           30120        INDEX              CA       FIXLOC                                #  SET UP INDEX LOCATION.
000142:    6123           54130                           TS       INDEXLOC
000143:    6124           24164                           INCR     LOC                                   #  (ADDRESS ALWAYS GIVEN).
000144:    6125           50164                           INDEX    LOC
000145:    6126           40000                           CS       0
000146:    6127           10000                           CCS      A                                     #  INDEX 2 IF ADDRESS STORED COMPLEMENTED.
000147:    6130           24130                           INCR     INDEXLOC
000148:    6131           16132                           NOOP
000149:
000150:    6132           54116                           TS       ADDRWD                                #  14 BIT ADDRESS TO ADDRWD.
000151:    6133           77713                           MASK     HIGH4                                 #  IF ADDRESS GREATER THAN 2K, ADD INTBIT15
000152:    6134           00006                           EXTEND
000153:    6135           16140                           BZF      INDEX2
000154:    6136           30115                           CA       INTBIT15
000155:    6137           26116                           ADS      ADDRWD
000156:
000157:    6140           50130        INDEX2             INDEX    INDEXLOC
000158:    6141           40046                           CS       X1
000159:    6142           26116                           ADS      ADDRWD                                #  DO AUGMENT, IGNORING AND CORRECTING OVF.
000160:
000161:    6143           77715                           MASK     HIGH9                                 #  SEE IF ADDRESS IS IN WORK AREA.
000162:    6144           00006                           EXTEND
000163:    6145           16160                           BZF      INDWORK
000164:    6146           77713                           MASK     HIGH4                                 #  SEE IF IN FIXED BANK.
000165:    6147           00006                           EXTEND
000166:    6150           16162                           BZF      INDERASE
000167:
000168:    6151           30116                           CA       ADDRWD                                #  IN FIXED - SWITCH BANKS AND CREATE
000169:    6152           54004                           TS       FBANK                                 #  SUB-ADDRESS.
000170:    6153           75062                           MASK     LOW10
000171:    6154           65014                           AD       2K
000172:    6155           54116                           TS       ADDRWD
000173:    6156           50020        ITR11              INDEX    CYR
000174:    6157           36247                           3        INDJUMP    -1
000175:
000176:    6160           30120        INDWORK            CA       FIXLOC                                #  MAKE ADDRWD RELATIVE TO WORK AREA.
000177:    6161           16166                           TCF      ITR13      -1
000178:
000179:    6162           35057        INDERASE           CA       OCT1400
000180:    6163           56116                           XCH      ADDRWD
000181:    6164           54003                           TS       EBANK
000182:    6165           74371                           MASK     LOW8
000183:    6166           26116                 -1        ADS      ADDRWD
000184:    6167           50020        ITR13              INDEX    CYR
000185:    6170           36247                           3        INDJUMP    -1
000186:
000187:                                                                                                  #           PUSH-UP ROUTINES. WHEN NO OPERAND ADDRESS IS GIVEN, THE APPROPRIATE OPERAND IS TAKEN FROM THE PUSH-DOWN
000188:                                                                                                  #  LIST. IN MOST CASES THE MODE OF THE RESULT (VECTOR OR SCALAR) OF THE LAST ARITHMETIC OPERATION PERFORMED
000189:                                                                                                  #  IS THE SAME AS THE TYPE OF OPERAND DESIRED (ALL ADD/SUBTRACT ETC.). EXCEPTIONS TO THIS GENERAL RULE ARE LISTED
000190:                                                                                                  #  BELOW (NOTE THAT IN EVERY CASE THE MODE REGISTER IS LEFT INTACT):
000191:
000192:                                                                                                  #           1.  VXSC AND V/SC WANT THE OPPOSITE TYPE OF OPERAND, E.G., IF THE LAST OPERATION YIELDED A VECTOR
000193:                                                                                                  #  RESULT, VXSC WANTS A SCALAR.
000194:
000195:                                                                                                  #           2.  THE LOAD CODES SHOULD LOAD THE ACCUMULATOR INDEPENDENT OF THE RESULT OF THE LAST OPERATION. THIS
000196:                                                                                                  #  INCLUDES VLOAD, DLOAD, TLOAD, PDDL, AND PDVL (NO PUSHUP WITH SLOAD).
000197:
000198:                                                                                                  #           3.  SOME ARITHMETIC OPERATIONS REQUIRE A STANDARD TYPE OF OPERAND REGARDLESS OF THE PREVIOUS OPERATION.
000199:                                                                                                  #  THIS INCLUDES SIGN WANTING DP AND TAD REQUIRING TP.
000200:
000201:    6171           34372        PUSHUP             CAF      OCT23                                 #  IF THE LOW 5 BITS OF CYR ARE LESS THAN
000202:    6172           70020                           MASK     CYR                                   #  20, THIS OP REQUIRES SPECIAL ATTENTION.
000203:    6173           66176                           AD       -OCT10                                #  (NO -0).
000204:    6174           10000                           CCS      A
000205:    6175           16207                           TCF      REGUP                                 #  FOR ALL CODES GREATER THAN OCT 7.
000206:
000207:    6176           77767        -OCT10             OCT      -10
000208:
000209:    6177           66066                           AD       NEG4                                  #  WE NOW HAVE 7 - OP CODE(MOD4). SEE IF
000210:    6200           10000                           CCS      A                                     #  THE OP CODE (MOD4) IS THREE (REVERSE).
000211:    6201           50000                           INDEX    A                                     #  NO - THE MODE IS DEFINITE. PICK UP THE
000212:    6202           46220                           CS       NO.WDS
000213:    6203           16211                           TCF      REGUP      +2
000214:
000215:    6204           50163                           INDEX    MODE                                  #  FOR VXSC AND V/SC WE WANT THE REQUIRED
000216:    6205           46216                           CS       REVCNT                                #  PUSHLOC DECREMENT WITHOUT CHANGING THE
000217:    6206           16211                           TCF      REGUP      +2                         #  MODE AT THIS TIME.
000218:
000219:    6207           50163        REGUP              INDEX    MODE                                  #  MOST ALL OP CODES PUSHUP HERE.
000220:    6210           46220                           CS       NO.WDS
000221:    6211           26166                 +2        ADS      PUSHLOC
000222:    6212           54116                           TS       ADDRWD
000223:    6213           50020        ITR14              INDEX    CYR
000224:    6214           76247                           7        INDJUMP    -1                         #  (THE INDEX MAKES THIS A TCF.)
000225:
000226:    6215           00002                           OCT      2                                     #  REVERSE PUSHUP DECREMENT. VECTOR TAKES 2
000227:    6216           00006        REVCNT             OCT      6                                     #  WORDS, SCALAR TAKES 6.
000228:    6217           00006                           OCT      6
000229:    6220           00002        NO.WDS             OCT      2                                     #  CONVENTIONAL DECREMENT IS 6 WORDS VECTOR
000230:    6221           00003        OCTAL3             OCT      3                                     #  2 IN DP, AND 3 IN TP.
000231:    6222           00006                           OCT      6
000232:
000233:                                                                                                  #           TEST THE SECOND PREFIX BIT TO SEE IF THIS IS A MISCELLANEOUS OR A UNARY/SHORT SHIFT OPERATION.
000234:
000235:    6223           10020        OPJUMP2            CCS      CYR                                   #  TEST SECOND PREFIX BIT.
000236:    6224           16237                           TCF      OPJUMP3                               #  TEST THIRD BIT TO SEE IF UNARY OR SHIFT.
000237:
000238:    6225           77722        -ENDVAC            DEC      -45        B-14
000239:
000240:                                                                                                  #           THE FOLLOWING ROUTINE PROCESSES ADDRESSES OF SUFFIX CLASS 10. THEY ARE BASICALLY WORK AREA ADDRESSES
000241:                                                                                                  #  IN THE RANGE 0 - 52, ERASABLE ECADR CONSTANTS FROM 100 - 3777, AND FCADRS ABOVE THAT. ALL 15 BITS ARE AVAILABLE
000242:                                                                                                  #  IN CONTRAST TO SUFFIX 1, IN WHICH ONLY THE LOW ORDER 14 ARE AVAILABLE.
000243:
000244:    6226           24164        15BITADR           INCR     LOC                                   #  (ENTRY HERE FROM STCALL).
000245:    6227           50164                           INDEX    LOC                                   #  PICK UP ADDRESS WORD.
000246:    6230           30000                           CA       0
000247:    6231           54117                           TS       POLISH                                #  WE MAY NEED A SUBADDRESS LATER.
000248:
000249:    6232           35063                           CAF      LOW7+2K                               #  THESE INSTRUCTIONS ARE IN BANK 1.
000250:    6233           54004                           TS       FBANK
000251:    6234           70020                           MASK     CYR
000252:    6235           50000        ITR7               INDEX    A
000253:    6236           16310                           TCF      MISCJUMP
000254:
000255:                                                                                                  #           COMPLETE THE DISPATCHING OF UNARY AND SHORT SHIFT OPERATIONS.
000256:
000257:    6237           54004        OPJUMP3            TS       FBANK                                 #  CALL IN BANK 0 (BITS 11-15 OF A ARE 0.)
000258:                                                                                                  #           ITRACE (6) REFERS TO "OPJUMP3".
000259:    6240           10020                           CCS      CYR                                   #  TEST THIRD PREFIX BIT.
000260:    6241           50000                           INDEX    A                                     #  THE DECREMENTED UNARY CODE IS IN BITS
000261:    6242           12000                           TCF      UNAJUMP                               #  1-4 OF A (ZERO, EXIT, HAS BEEN DETECTED)
000262:
000263:    6243           10163                           CCS      MODE                                  #  ITS A SHORT SHIFT CODE. SEE IF PRESENT
000264:    6244           12017                           TCF      SHORTT                                #  SCALAR OR VECTOR.
000265:    6245           12017                           TCF      SHORTT
000266:    6246           12121                           TCF      SHORTV                                #  CALLS THE APPROPRIATE ROUTINE.
000267:
000268:
000269:    6247     4362               FBANKMSK           EQUALS   BANKMASK
000270:    6247           00122        LVBUF              ADRES    VBUF
000271:
000272:                                                                                                  #           THE FOLLOWING IS THE JUMP TABLE FOR OP CODES WHICH MAY HAVE INDEXABLE ADDRESSES OR MAY PUSH UP.
000273:
000274:    6250           16461        INDJUMP            TCF      VLOAD                                 #  00 - LOAD MPAC WITH A VECTOR.
000275:    6251           17045                           TCF      TAD                                   #  01 - TRIPLE PRECISION ADD TO MPAC.
000276:    6252           17627                           TCF      SIGN                                  #  02 - COMPLEMENT MPAC (V OR SC) IF X NEG.
000277:    6253           17353                           TCF      VXSC                                  #  03 - VECTOR TIMES SCALAR.
000278:    6254           16657                           TCF      CGOTO                                 #  04 - COMPUTED GO TO.
000279:    6255           16444                           TCF      TLOAD                                 #  05 - LOAD MPAC WITH TRIPLE PRECISION.
000280:    6256           16026                           TCF      DLOAD                                 #  06 - LOAD MPAC WITH A DP SCALAR.
000281:    6257           17576                           TCF      V/SC                                  #  07 - VECTOR DIVIDED BY SCALAR.
000282:
000283:    6260           16455                           TCF      SLOAD                                 #  10 - LOAD MPACIN SINGLE PRECISION.
000284:    6261           16574                           TCF      SSP                                   #  11 - SET SINGLE PRECISION INTO X.
000285:    6262           16477                           TCF      PDDL                                  #  12 - PUSH DOWN MPAC AND RE-LOAD IN DP.
000286:    6263           17306                           TCF      MXV                                   #  13 - MATRIX POST-MULTIPLIED BY VECTOR.
000287:    6264           16533                           TCF      PDVL                                  #  14 - PUSH DOWN AND VECTOR LOAD.
000288:    6265           16602                           TCF      CCALL                                 #  15 - COMPUTED CALL.
000289:    6266           17311                           TCF      VXM                                   #  16 - MATRIX PRE-MULTIPLIED BY VECTOR.
000290:    6267           17570                           TCF      TSLC                                  #  17 - NORMALIZE MPAC (SCALAR ONLY).
000291:
000292:    6270           17546                           TCF      DMPR                                  #  20 - DP MULTIPLY AND ROUND.
000293:    6271           17551                           TCF      DDV                                   #  21 - DP DIVIDE BY.
000294:    6272           17555                           TCF      BDDV                                  #  22 - DP DIVIDE INTO.
000295:    6273           17573                           TCF      GSHIFT                                #  23 - GENERAL SHIFT INSTRUCTION.
000296:    6274           16725                           TCF      VAD                                   #  24 - VECTOR ADD.
000297:    6275           16723                           TCF      VSU                                   #  25 - VECTOR SUBTRACT.
000298:    6276           17012                           TCF      BVSU                                  #  26 - VECTOR SUBTRACT FROM.
000299:    6277           17303                           TCF      DOT                                   #  27 - VECTOR DOT PRODUCT.
000300:
000301:    6300           17432                           TCF      VXV                                   #  30 - VECTOR CROSS PRODUCT.
000302:    6301           17377                           TCF      VPROJ                                 #  31 - VECTOR PROJECTION.
000303:    6302           16761                           TCF      DSU                                   #  32 - DP SUBTRACT.
000304:    6303           17036                           TCF      BDSU                                  #  33 - DP SUBTRACT FROM.
000305:    6304           16751                           TCF      DAD                                   #  34 - DP ADD.
000306:    6305           16305                           TCF      +0                                    #  35 - AVAILABLE
000307:    6306           17544                           TCF      DMP1                                  #  36 - DP MULTIPLY.
000308:    6307           17565                           TCF      SETPD                                 #  37 - SET PUSH DOWN POINTER (DIRECT ONLY)
000309:
000310:                                                                                                  #  CODES 10 AND 14 MUST NOT PUSH UP. CODE 04 MAY BE USED FOR VECTOR DECLARE BEFORE PUSHUP IF DESIRED.
000311:
000312:                                                                                                  #           THE FOLLOWING JUMP TABLE APPLIES TO INDEX, BRANCH, AND MISCELLANEOUS INSTRUCTIONS.
000313:
000314:    6310           12165        MISCJUMP           TCF      AXT                                   #  00 - ADDRESS TO INDEX TRUE.
000315:    6311           12172                           TCF      AXC                                   #  01 - ADDRESS TO INDEX COMPLEMENTED.
000316:    6312           12175                           TCF      LXA                                   #  02 - LOAD INDEX FROM ERASABLE.
000317:    6313           12201                           TCF      LXC                                   #  03 - LOAD INDEX FROM COMPLEMENT OF ERAS.
000318:    6314           12205                           TCF      SXA                                   #  04 - STORE INDEX IN ERASABLE.
000319:    6315           12213                           TCF      XCHX                                  #  05 - EXCHANGE INDEX WITH ERASABLE.
000320:    6316           12227                           TCF      INCR                                  #  06 - INCREMENT INDEX REGISTER.
000321:    6317           12236                           TCF      TIX                                   #  07 - TRANSFER ON INDEX.
000322:
000323:    6320           12221                           TCF      XAD                                   #  10 - INDEX REGISTER ADD FROM ERASABLE.
000324:    6321           12232                           TCF      XSU                                   #  11 - INDEX SUBTRACT FROM ERASABLE.
000325:    6322           12310                           TCF      BZE/GOTO                              #  12 - BRANCH ZERO AND GOTO.
000326:    6323           12315                           TCF      BPL/BMN                               #  13 - BRANCH PLUS AND BRANCH MINUS.
000327:    6324           12270                           TCF      RTB/BHIZ                              #  14 - RETURN TO BASIC AND BRANCH HI ZERO.
000328:    6325           12330                           TCF      CALL/ITA                              #  15 - CALL AND STORE QPRET.
000329:    6326           12337                           TCF      SW/                                   #  16 - SWITCH INSTRUCTIONS AND AVAILABLE.
000330:    6327           12300                           TCF      BOV(B)                                #  17 - BRANCH ON OVERFLOW TO BASIC OR INT.
000331:
000332:                                                                                                  #           THE FOLLOWING JUMP TABLE APPIES TO UNARY INSTRUCTIONS.
000333:
000334:    6330                                           COUNT*   $$/INTER
000335: 00,2000                                           BANK     0                                     #  00 - EXIT - DETECTED EARLIER.
000336: 00,2000           13207        UNAJUMP            TCF      SQRT                                  #  01 - SQUARE ROOT.
000337: 00,2001           13527                           TCF      SINE                                  #  02 - SIN.
000338: 00,2002           13516                           TCF      COSINE                                #  03 - COS.
000339: 00,2003           13607                           TCF      ARCSIN                                #  04 - ARC SIN.
000340: 00,2004           13611                           TCF      ARCCOS                                #  05 - ARC COS.
000341: 00,2005           13174                           TCF      DSQ                                   #  06 - DP SQUARE.
000342: 00,2006           12116                           TCF      ROUND                                 #  07 - ROUND TO DP.
000343:
000344: 00,2007           17642                           TCF      COMP                                  #  10 - COMPLEMENT VECTOR OR SCALAR.
000345: 00,2010           13232                           TCF      VDEF                                  #  11 - VECTOR DEFINE.
000346: 00,2011           13023                           TCF      UNIT                                  #  12 - UNIT VECTOR.
000347: 00,2012           13176                           TCF      ABVALABS                              #  13 - LENGTH OF VECTOR OR MAG OF SCALAR.
000348: 00,2013           13245                           TCF      VSQ                                   #  14 - SQUARE OF LENGTH OF VECTOR.
000349: 00,2014           16330                           TCF      STADR                                 #  15 - PUSH UP ON STORE CODE.
000350: 00,2015           13274                           TCF      RVQ                                   #  16 - RETURN VIA QPRET.
000351: 00,2016           13247                           TCF      PUSH                                  #  17 - PUSH MPAC DOWN.
000352:
000353:                                                                                                  #  SECTION 2  LOAD AND STORE PACKAGE.
000354:
000355:                                                                                                  #           A SET OF EIGHT STORE CODES IS PROVIDED AS THE PRIMARY METHOD OF STORING THE MULTI-PURPOSE
000356:                                                                                                  #  ACCUMULATOR (MPAC). IF IN THE DANZIG SECTION LOC REFERS TO AN ALGEBRAICALLY POSITIVE WORD, IT IS TAKEN AS A
000357:                                                                                                  #  STORE CODE WITH A CORRESPONDING ERASABLE ADDRESS. MOST OF THESE CODES ARE TWO ADDRESS, SPECIFYING THAT THE WORD
000358:                                                                                                  #  FOLLOWING THE STORE CODE IS TO BE USED AS AN ADDRESS FROM WHICH TO RE-LOAD MPAC. FOUR OPTIONS ARE AVAILABLE:
000359:
000360:                                                                                                  #           1. STORE               STORE MPAC. THE E ADDRESS MAY BE INDEXED.
000361:                                                                                                  #           2. STODL               STORE MPAC AND RE-LOAD IT IN DP WITH THE NEXT ADDRESS (THE LOAD MAY BE INDEXED).
000362:                                                                                                  #           3. STOVL               STORE MPAC AND RE-LOAD A VECTOR (AS ABOVE).
000363:                                                                                                  #           4. STCALL              STORE AND DO A CALL (BOTH ADDRESSES MUST BE DIRECT HERE).
000364:
000365:                                                                                                  #           STODL AND STOVL WILL TAKE FROM THE PUSH-DOWN LIST IF NO LOAD ADDRESS IS GIVEN.
000366:
000367:    6330                                           BLOCK    3
000368:
000369:    6330                                           COUNT*   $$/INTER
000370:    6330           30165        STADR              CA       BANKSET                               #  THE STADR CODE (PUSHUP UP ON STORE
000371:    6331           54004                           TS       FBANK                                 #  ADDRESS) ENTERS HERE.
000372:    6332           24164                           INCR     LOC
000373:    6333           50164        ITR1               INDEX    LOC                                   #  THE STORECODE WAS STORED COMPLEMENTED TO
000374:    6334           40000                           CS       0                                     #  MAKE IT LOOK LIKE AN OPCODE PAIR.
000375:    6335           67721                           AD       NEGONE                                #  (YUL CANT REMOVE 1 BECAUSE OF EARLY CCS)
000376:
000377:    6336           54116        DOSTORE            TS       ADDRWD
000378:    6337           74370                           MASK     LOW11                                 #  ENTRY FROM DISPATCHER. SAVE THE ERASABLE
000379:    6340           56116                           XCH      ADDRWD                                #  ADDRESS AND JUMP ON THE STORE CODE NO.
000380:    6341           77674                           MASK     B12T14
000381:    6342           00006                           EXTEND
000382:    6343           75022                           MP       BIT5                                  #  EACH TRANSFER VECTOR ENTRY IS TWO WORDS.
000383:    6344           50000                           INDEX    A
000384:    6345           16346                           TCF      STORJUMP
000385:
000386:                                                                                                  #           STORE CODE JUMP TABLE. CALLS THE APPROPRIATE STORING ROUTINE AND EXITS TO DANZIG OR TO ADDRESS WITH
000387:                                                                                                  #  A SUPPLIED OPERATION CODE.
000388:
000389:                                                                                                  #           STORE STORE,1 AND STORE,2 RETURN TO DANZIG, THUS RESETTING THE EBANK TO ITS STATE AT INTPRET.
000390:
000391:    6346           06376        STORJUMP           TC       STORE                                 #  STORE.
000392:    6347           16035                           TCF      DANZIG                                #  PICK UP NEW OP CODE(S).
000393:    6350           06370                           TC       STORE,1
000394:    6351           16035                           TCF      DANZIG
000395:    6352           06373                           TC       STORE,2
000396:    6353           16035                           TCF      DANZIG
000397:
000398:    6354           06376                           TC       STORE                                 #  STODL.
000399:    6355           16434                           TCF      DODLOAD
000400:
000401:    6356           06376                           TC       STORE                                 #  STODL WITH INDEXED LOAD ADDRESS.
000402:    6357           16120                           TCF      DODLOAD*
000403:
000404:    6360           06376                           TC       STORE                                 #  STOVL.
000405:    6361           16437                           TCF      DOVLOAD
000406:
000407:    6362           06376                           TC       STORE                                 #  STOVL WITH INDEXED LOAD ADDRESS.
000408:    6363           16442                           TCF      DOVLOAD*
000409:    6364           06376                           TC       STORE                                 #  STOTC.
000410:    6365           35036                           CAF      CALLCODE
000411:    6366           54020                           TS       CYR
000412:    6367           16226                           TCF      15BITADR                              #  GET A 15 BIT ADDRESS.
000413:
000414:                                                                                                  #           STORE CODE ADDRESS PROCESSOR.
000415:
000416:    6370           50120        STORE,1            INDEX    FIXLOC
000417:    6371           40046                           CS       X1
000418:    6372           16375                           TCF      PRESTORE
000419:
000420:    6373           50120        STORE,2            INDEX    FIXLOC
000421:    6374           40047                           CS       X2
000422:    6375           26116        PRESTORE           ADS      ADDRWD                                #  RESULTANT ADDRESS IS IN ERASABLE.
000423:
000424:    6376           40116        STORE              CS       ADDRWD
000425:    6377           65042                           AD       DEC45
000426:    6400           10000                           CCS      A                                     #  DOES THE ADDRESS POINT TO THE WORK AREA?
000427:    6401           30120                           CA       FIXLOC                                #  YES.
000428:    6402           16407                           TCF      AHEAD5
000429:    6403           35057                           CA       OCT1400                               #  NO. SET EBANK & MAKE UP SUBADDRESS.
000430:    6404           56116                           XCH      ADDRWD
000431:    6405           54003                           TS       EBANK
000432:    6406           74371                           MASK     LOW8
000433:    6407           26116        AHEAD5             ADS      ADDRWD
000434:
000435:                                                                                                  #           STORING ROUTINES. STORE DP, TP, OR VECTOR AS INDICATED BY MODE.
000436:
000437:    6410           00006        STARTSTO           EXTEND                                         #  MPAC,+1 MUST BE STORED IN ANY EVENT.
000438:                                                                                                  #           ITRACE (5) REFERS TO "STARTSTO".
000439:    6411           30155                           DCA      MPAC
000440:    6412           50116                           INDEX    ADDRWD
000441:    6413           52001                           DXCH     0
000442:
000443:    6414           10163                           CCS      MODE
000444:    6415           16430                           TCF      TSTORE
000445:    6416           00002                           TC       Q
000446:
000447:    6417           00006        VSTORE             EXTEND
000448:    6420           30160                           DCA      MPAC       +3
000449:    6421           50116                           INDEX    ADDRWD
000450:    6422           52003                           DXCH     2
000451:
000452:    6423           00006                           EXTEND
000453:    6424           30162                           DCA      MPAC       +5
000454:    6425           50116                           INDEX    ADDRWD
000455:    6426           52005                           DXCH     4
000456:    6427           00002                           TC       Q
000457:
000458:    6430           30156        TSTORE             CA       MPAC       +2
000459:    6431           50116                           INDEX    ADDRWD
000460:    6432           54002                           TS       2
000461:    6433           00002                           TC       Q
000462:
000463:                                                                                                  #           ROUTINES TO BEGIN PROCESSING OF THE SECOND ADDRESS ASSOCIATED WITH ALL STORE-TYPE CODES EXCEPT STORE
000464:                                                                                                  #  ITSELF.
000465:
000466:    6434           37704        DODLOAD            CAF      DLOADCOD
000467:    6435           54020                           TS       CYR
000468:    6436           16062                           TCF      DIRADRES                              #  GO GET A DIRECT ADDRESS.
000469:
000470:    6437           35010        DOVLOAD            CAF      VLOADCOD
000471:    6440           54020                           TS       CYR
000472:    6441           16062                           TCF      DIRADRES
000473:
000474:    6442           36063        DOVLOAD*           CAF      VLOAD*
000475:    6443           16121                           TCF      DODLOAD*   +1                         #  PROLOGUE TO INDEX ROUTINE.
000476:
000477:                                                                                                  #           THE FOLLOWING LOAD INSTRUCTIONS ARE PROVIDED FOR LOADING THE MULTI-PURPOSE ACCUMULATOR MPAC.
000478:
000479:    6444           50116        TLOAD              INDEX    ADDRWD
000480:    6445           30002                           CA       2                                     #  LOAD A TRIPLE PRECISION ARGUMENT INTO
000481:    6446           54156                           TS       MPAC       +2                         #  THE FIRST THREE MPAC REGISTERS, WITH THE
000482:    6447           00006                           EXTEND                                         #  CONTENTS OF THE OTHER FOUR IRRELEVANT.
000483:    6450           50116                           INDEX    ADDRWD
000484:    6451           30001                           DCA      0
000485:    6452           52155                           DXCH     MPAC
000486:    6453           35026        TMODE              CAF      ONE
000487:    6454           16034                           TCF      NEWMODE                               #  DECLARE TRIPLE PRECISION MODE.
000488:
000489:    6455           22007        SLOAD              ZL                                             #  LOAD A SINGLE PRECISION NUMBER INTO
000490:    6456           50116                           INDEX    ADDRWD                                #  MPAC, SETTING MPAC+1,2 TO ZERO. THE
000491:    6457           30000                           CA       0                                     #  CONTENTS OF THE REMAINING MPAC REGISTERS
000492:    6460           16031                           TCF      SLOAD2                                #  ARE IRRELEVANT.
000493:
000494:    6461           00006        VLOAD              EXTEND                                         #  LOAD A DOUBLE PRECISION VECTOR INTO
000495:    6462           50116                           INDEX    ADDRWD                                #  MPAC,+1, MPAC+3,4, AND MPAC+5,6. THE
000496:    6463           30001                           DCA      0                                     #  CONTENTS OF MPAC +2 ARE IRRELEVANT.
000497:    6464           52155                           DXCH     MPAC
000498:
000499:    6465           00006        ENDVLOAD           EXTEND                                         #  PDVL COMES HERE TO FINISH UP FOR DP, TP.
000500:    6466           50116                           INDEX    ADDRWD
000501:    6467           30003                           DCA      2
000502:    6470           52160                           DXCH     MPAC       +3
000503:
000504:    6471           00006                 +4        EXTEND                                         #  TPDVL FINISHES HERE.
000505:    6472           50116                           INDEX    ADDRWD
000506:    6473           30005                           DCA      4
000507:    6474           52162                           DXCH     MPAC       +5
000508:
000509:    6475           45026        VMODE              CS       ONE                                   #  DECLARE VECTOR MODE.
000510:    6476           16034                           TCF      NEWMODE
000511:
000512:                                                                                                  #           THE FOLLOWING INSTRUCTIONS ARE PROVIDED FOR STORING OPERANDS IN THE PUSHDOWN LIST:
000513:
000514:                                                                                                  #           1.  PUSH               PUSHDOWN AND NO LOAD.
000515:                                                                                                  #           2.  PDDL               PUSHDOWN AND DOUBLE PRECISION LOAD.
000516:                                                                                                  #           3.  PDVL               PUSHDOWN AND VECTOR LOAD.
000517:
000518:    6477           00006        PDDL               EXTEND
000519:    6500           50116                           INDEX    ADDRWD                                #  LOAD MPAC,+1, PUSHING THE FORMER
000520:    6501           30001                           DCA      0                                     #  CONTENTS DOWN.
000521:    6502           52155                           DXCH     MPAC
000522:    6503           50166                           INDEX    PUSHLOC
000523:    6504           52001                           DXCH     0
000524:
000525:    6505           50163                           INDEX    MODE                                  #  ADVANCE THE PUSHDOWN POINTER APPRO-
000526:    6506           36220                           CAF      NO.WDS                                #  PRIATELY.
000527:    6507           26166                           ADS      PUSHLOC
000528:
000529:    6510           10163                           CCS      MODE
000530:    6511           16526                           TCF      ENDTPUSH
000531:    6512           16524                           TCF      ENDDPUSH
000532:
000533:    6513           54163                           TS       MODE                                  #  NOW DP.
000534:    6514           54156        ENDVPUSH           TS       MPAC       +2
000535:    6515           52160                           DXCH     MPAC       +3                         #  PUSH DOWN THE REST OF THE VECTOR HERE.
000536:    6516           50166                           INDEX    PUSHLOC
000537:    6517           51775                           DXCH     0          -4
000538:
000539:    6520           52162                           DXCH     MPAC       +5
000540:    6521           50166                           INDEX    PUSHLOC
000541:    6522           51777                           DXCH     0          -2
000542:
000543:    6523           16035                           TCF      DANZIG
000544:
000545:    6524           54156        ENDDPUSH           TS       MPAC       +2                         #  SET MPAC +2 TO ZERO AND EXIT ON DP.
000546:    6525           16035                           TCF      DANZIG
000547:
000548:    6526           54163        ENDTPUSH           TS       MODE
000549:    6527           56156                           XCH      MPAC       +2                         #  ON TRIPLE, SET MPAC +2 TO ZERO, PUSHING
000550:    6530           50166                 +2        INDEX    PUSHLOC                               #  DOWN THE OLD CONTENTS
000551:    6531           53777                           TS       0          -1
000552:    6532           16035                           TCF      DANZIG
000553:
000554:                                                                                                  #           PDVL - PUSHDOWN AND VECTOR LOAD.
000555:
000556:    6533           00006        PDVL               EXTEND                                         #  RELOAD MPAC AND PUSH DOWN ITS CONTENTS.
000557:    6534           50116                           INDEX    ADDRWD
000558:    6535           30001                           DCA      0
000559:    6536           52155                           DXCH     MPAC
000560:    6537           50166                           INDEX    PUSHLOC
000561:    6540           52001                           DXCH     0
000562:
000563:    6541           50163                           INDEX    MODE                                  #  ADVANCE THE PUSHDOWN POINTER.
000564:    6542           36220                           CAF      NO.WDS
000565:    6543           26166                           ADS      PUSHLOC
000566:
000567:    6544           10163                           CCS      MODE                                  #  TEST PAST MODE.
000568:    6545           16564                           TCF      TPDVL
000569:    6546           16465                           TCF      ENDVLOAD                              #  JUST LOAD LAST FOUR REGISTERS ON DP.
000570:
000571:    6547           00006        VPDVL              EXTEND                                         #  PUSHDOWN AND RE-LOAD LAST TWO COMPONENTS
000572:    6550           50116                           INDEX    ADDRWD
000573:    6551           30003                           DCA      2
000574:    6552           52160                           DXCH     MPAC       +3
000575:    6553           50166                           INDEX    PUSHLOC
000576:    6554           51775                           DXCH     0          -4
000577:
000578:    6555           00006                           EXTEND
000579:    6556           50116                           INDEX    ADDRWD
000580:    6557           30005                           DCA      4
000581:    6560           52162                           DXCH     MPAC       +5
000582:    6561           50166                           INDEX    PUSHLOC
000583:    6562           51777                           DXCH     0          -2
000584:
000585:    6563           16035                           TCF      DANZIG
000586:
000587:    6564           00006        TPDVL              EXTEND                                         #  ON TP, WE MUST LOAD THE Y COMPONENT
000588:    6565           50116                           INDEX    ADDRWD                                #  BEFORE STORING MPAC +2 IN CASE THIS IS A
000589:    6566           30003                           DCA      2                                     #  PUSHUP.
000590:    6567           52160                           DXCH     MPAC       +3
000591:
000592:    6570           30156                           CA       MPAC       +2
000593:    6571           50166                           INDEX    PUSHLOC                               #  IN DP.
000594:    6572           53777                           TS       0          -1
000595:    6573           16471                           TCF      ENDVLOAD   +4
000596:
000597:                                                                                                  #           SSP (STORE SINGLE PRECISION) IS EXECUTED HERE.
000598:
000599:    6574           24164        SSP                INCR     LOC                                   #  PICK UP THE WORD FOLLOWING THE GIVEN
000600:    6575           50164                           INDEX    LOC                                   #  ADDRESS AND STORE IT AT X.
000601:    6576           30000                           CA       0
000602:    6577           50116        STORE1             INDEX    ADDRWD                                #  SOME INDEX AND MISCELLANEOUS OPS END
000603:    6600           54000                           TS       0                                     #  HERE.
000604:    6601           16035                           TCF      DANZIG
000605:
000606:                                                                                                  #  SEQUENCE CHANGING AND SUBROUTINE CALLING OPTIONS.
000607:
000608:                                                                                                  #           THE FOLLOWING OPERATIONS ARE AVAILABLE FOR SEQUENCING CHANGING, BRANCHING, AND CALLING SUBROUTINES:
000609:
000610:                                                                                                  #           1.  GOTO               GO TO.
000611:                                                                                                  #           2.  CALL               CALL SUBROUTINE SETTING QPRET.
000612:                                                                                                  #           3.  CGOTO              COMPUTED GO TO.
000613:                                                                                                  #           4.  CCALL              COMPUTED CALL.
000614:                                                                                                  #           7.  BPL                BRANCH IF MPAC POSITIVE OR ZERO.
000615:                                                                                                  #           8.  BZE                BRANCH IF MPAC ZERO.
000616:                                                                                                  #           9.  BMN                BRANCH IF MPAC NEGATIVE NON-ZERO.
000617:
000618:    6602           24164        CCALL              INCR     LOC                                   #  MAINTAIN LOC FOR QPRET COMPUTATION.
000619:    6603           50164                           INDEX    LOC
000620:    6604           30000                           CAF      0                                     #  GET BASE ADDRESS OF CADR LIST.
000621:    6605           50116                           INDEX    ADDRWD
000622:    6606           60000                           AD       0                                     #  ADD INCREMENT.
000623:    6607           54004                           TS       FBANK                                 #  SELECT DESIRED CADR.
000624:    6610           75062                           MASK     LOW10
000625:    6611           50000                           INDEX    A
000626:    6612           32000                           CAF      10000
000627:    6613           54117                           TS       POLISH
000628:
000629:    6614           30165        CALL               CA       BANKSET                               #  FOR ANY OF THE CALL OPTIONS, MAKE UP THE
000630:    6615           74362                           MASK     BANKMASK                              #  ADDRESS OF THE NEXT OP-CODE PAIR/STORE
000631:    6616           64362                           AD       BANKMASK                              #  CODE AND LEAVE IT IN QPRET.  NOTE THAT
000632:    6617           60164                           AD       LOC                                   #  BANKMASK = -(2000 - 1).
000633:    6620           50120                           INDEX    FIXLOC
000634:    6621           54052                           TS       QPRET
000635:
000636:    6622           30117        GOTO               CA       POLISH                                #  BASIC BRANCHING SEQUENCE.
000637:    6623           77713                 +1        MASK     HIGH4
000638:    6624           00006                           EXTEND
000639:    6625           16636                           BZF      GOTOERS                               #  SEE IF ADDRESS POINTS TO FIXED OR ERAS.
000640:    6626           30165                 +4        CA       BANKSET                               #  SET EBANK PART OF BBANK. NEXT, SET UP
000641:    6627           54006                           TS       BBANK                                 #  FBANK. THE COMBINATION IS PICKED UP &
000642:    6630           30117                           CA       POLISH                                #  PUT INTO BANKSET AT INTPRET +2.
000643:    6631           54004                           TS       FBANK
000644:    6632           75062                           MASK     LOW10
000645:    6633           65014                           AD       2K
000646:    6634           54164                           TS       LOC
000647:    6635           16016                           TCF      INTPRET    +2
000648:
000649:    6636  E3,1400                                  EBANK=   1400                                  #  SO YUL DOESN'T CUSS THE "CA 1400" BELOW.
000650:
000651:    6636           30117        GOTOERS            CA       POLISH                                #  THE GIVEN ADDRESS IS IN ERASABLE - SEE
000652:    6637           66225                           AD       -ENDVAC                               #  IF RELATIVE TO THE WORK AREA.
000653:    6640           10000                           CCS      A
000654:    6641           30117                           CA       POLISH                                #  GENERAL ERASABLE.
000655:    6642           16651                           TCF      GOTOGE
000656:
000657:    6643           30120                           CA       FIXLOC                                #  WORK AREA.
000658:    6644           60117                           AD       POLISH
000659:    6645           50000                           INDEX    A                                     #  USE THE GIVEN ADDRESS AS THE ADDRESS OF
000660:    6646           30000                           CA       0                                     #  THE BRANCH ADDRESS.
000661:    6647           54117                           TS       POLISH
000662:    6650           16623                           TCF      GOTO       +1                         #  ALLOWS ARBITRARY INDIRECTNESS LEVELS.
000663:
000664:    6651           54003        GOTOGE             TS       EBANK
000665:    6652           74371                           MASK     LOW8
000666:    6653           50000                           INDEX    A                                     #  USE THE GIVEN ADDRESS AS THE ADDRESS OF
000667:    6654           31400                           CA       1400                                  #  THE BRANCH ADDRESS.
000668:    6655           54117                           TS       POLISH
000669:    6656           16623                           TCF      GOTO       +1
000670:
000671:    6657           50164        CGOTO              INDEX    LOC                                   #  COMPUTED GO TO. PICK UP ADDRESS OF CADR
000672:    6660           30001                           CA       1                                     #  LIST.
000673:    6661           50116                           INDEX    ADDRWD                                #  ADD MODIFIER.
000674:    6662           60000                           AD       0
000675:    6663           54004                           TS       FBANK                                 #  SELECT GOTO ADDRESS.
000676:    6664           75062                           MASK     LOW10
000677:    6665           50000                           INDEX    A
000678:    6666           32000                           CA       10000
000679:    6667           54117                           TS       POLISH
000680:    6670           16623                           TCF      GOTO       +1                         #  WITH ADDRESS IN A.
000681:
000682:    6671           30165        SWBRANCH           CA       BANKSET                               #  SWITCH INSTRUCTIONS WHICH ELECT TO
000683:    6672           54004                           TS       FBANK                                 #  BRANCH COME HERE TO DO SO.
000684:    6673           50164                           INDEX    LOC
000685:    6674           30001                           CA       1
000686:    6675           54117                           TS       POLISH
000687:    6676           16623                           TCF      GOTO       +1
000688:
000689:                                                                                                  #           TRIPLE PRECISION BRANCHING ROUTINE. IF CALLING TC IS AT L, RETURN IS AS FOLLOWS:
000690:
000691:                                                                                                  #           L+1  IF MPAC IS GREATER THAN ZERO.
000692:                                                                                                  #           L+2  IF MPAC IS EQUAL TO +0 OR -0.
000693:                                                                                                  #           L+3  IF MPAC IS LESS THAN ZERO.
000694:
000695:
000696:    6677           10154        BRANCH             CCS      MPAC
000697:    6700           00002                           TC       Q
000698:    6701           16703                           TCF      +2                                    #  ON ZERO.
000699:    6702           16715                           TCF      NEG
000700:
000701:    6703           10155                           CCS      MPAC       +1
000702:    6704           00002                           TC       Q
000703:    6705           16707                           TCF      +2
000704:    6706           16715                           TCF      NEG
000705:
000706:    6707           10156                           CCS      MPAC       +2
000707:    6710           00002                           TC       Q
000708:    6711           16713                           TCF      +2
000709:    6712           16715                           TCF      NEG
000710:
000711:    6713           50002        Q+1                INDEX    Q
000712:    6714           00001                           TC       1
000713:
000714:    6715           50002        NEG                INDEX    Q                                     #  IF FIRST NON-ZERO REGISTER WAS NEGATIVE.
000715:    6716           00002                           TC       2
000716:
000717:
000718:    6717     6715               Q+2                =        NEG
000719:
000720:                                                                                                  #           ITRACE (3) REFERS TO "EXIT".
000721:    6717           30165        EXIT               CA       BANKSET                               #  RESTORE USER'S BANK SETTING, AND LEAVE
000722:    6720           54006                           TS       BBANK                                 #  INTERPRETIVE MODE.
000723:    6721           50164                           INDEX    LOC
000724:    6722           00001                           TC       1
000725:
000726:                                                                                                  #  SECTION 3 - ADD/SUBTRACT PACKAGE.
000727:
000728:                                                                                                  #           THE FOLLOWING OPERATIONS ARE PROVIDED FOR ADDING TO AND SUBTRACTING FROM THE MULTI-PURPOSE ACCUMULATOR
000729:                                                                                                  #  MPAC:
000730:
000731:                                                                                                  #           1.  DAD                DOUBLE PRECISION ADD.
000732:                                                                                                  #           2.  DSU                DOUBLE PRECISION SUBTRACT.
000733:                                                                                                  #           3.  BDSU               DOUBLE PRECISION SUBTRACT FROM.
000734:
000735:                                                                                                  #           4.  TAD                TRIPLE PRECISION ADD.
000736:
000737:                                                                                                  #           5.  VAD                VECTOR ADD.
000738:                                                                                                  #           6.  VSU                VECTOR SUBTRACT.
000739:                                                                                                  #           7.  BVSU               VECTOR SUBTRACT FROM.
000740:
000741:                                                                                                  #  THE INTERPRETIVE OVERFLOW INDICATOR OVFIND IS SET NON-ZERO IF OVERFLOW OCCURS IN ANY OF THE ABOVE.
000742:
000743:    6723           35010        VSU                CAF      BIT15                                 #  CHANGES 0 TO DCS.
000744:    6724           16726                           TCF      +2
000745:
000746:    6725           34367        VAD                CAF      PRIO30                                #  CHANGES 0 TO DCA.
000747:    6726           26116                           ADS      ADDRWD
000748:    6727           00006                           EXTEND
000749:    6730           50116                           INDEX    ADDRWD
000750:    6731           00003                           READ     HISCALAR                              #  DCA  2   OR   DCS  2
000751:    6732           20160                           DAS      MPAC       +3
000752:    6733           00006                           EXTEND                                         #  CHECK OVERFLOW.
000753:    6734           16736                           BZF      +2
000754:    6735           06770                           TC       OVERFLWY
000755:
000756:    6736           00006                           EXTEND
000757:    6737           50116                           INDEX    ADDRWD
000758:    6740           00005                           READ     CHAN5                                 #  DCA  4  OR  DCS  4
000759:    6741           20162                           DAS      MPAC       +5
000760:    6742           00006                           EXTEND
000761:    6743           16745                           BZF      +2
000762:    6744           06765                           TC       OVERFLWZ
000763:
000764:    6745           00006                           EXTEND
000765:    6746           50116                           INDEX    ADDRWD
000766:    6747           00001                           READ     LCHAN                                 #  DCA  0  OR  DCS  0
000767:    6750           16754                           TCF      ENDVXV
000768:
000769:    6751           00006        DAD                EXTEND
000770:    6752           50116                           INDEX    ADDRWD
000771:    6753           30001                           DCA      0
000772:    6754           20155        ENDVXV             DAS      MPAC                                  #  VXV FINISHES HERE.
000773:    6755           00006                           EXTEND
000774:    6756           16035                           BZF      DANZIG
000775:
000776:    6757           06773        SETOVF             TC       OVERFLOW
000777:    6760           16035                           TCF      DANZIG
000778:
000779:    6761           00006        DSU                EXTEND
000780:    6762           50116                           INDEX    ADDRWD
000781:    6763           40001                           DCS      0
000782:    6764           16754                           TCF      ENDVXV
000783:
000784:    6765           54001        OVERFLWZ           TS       L                                     #  ENTRY FOR THIRD COMPONENT.
000785:    6766           35031                           CAF      FIVE
000786:    6767           16772                           TCF      +3
000787:
000788:    6770           54001        OVERFLWY           TS       L                                     #  ENTRY FOR SECOND COMPONENT.
000789:    6771           36221                           CAF      THREE
000790:    6772           56001                           XCH      L
000791:
000792:    6773           50000        OVERFLOW           INDEX    A                                     #  ENTRY FOR 1ST COMP OR DP (L=0).
000793:    6774           45007                           CS       LIMITS                                #  PICK UP POSMAX OR NEGMAX.
000794:    6775           54130                           TS       BUF
000795:    6776           00006                           EXTEND
000796:    6777           24000                           AUG      A                                     #  FORCE OVERFLOW.
000797:    7000           50001                           INDEX    L
000798:    7001           26155                           ADS      MPAC       +1
000799:    7002           54007                           TS       7
000800:    7003           35030                           CAF      ZERO
000801:    7004           60130                           AD       BUF
000802:    7005           50001                           INDEX    L
000803:    7006           26154                           ADS      MPAC
000804:    7007           54007                           TS       7
000805:    7010           00002                           TC       Q                                     #  NO OVERFLOW EXIT.
000806:    7011           17126                           TCF      SETOVF2                               #  SET OVFIND AND EXIT.
000807:
000808:    7012           00006        BVSU               EXTEND
000809:    7013           50116                           INDEX    ADDRWD
000810:    7014           30003                           DCA      2
000811:    7015           52160                           DXCH     MPAC       +3
000812:    7016           00006                           EXTEND
000813:    7017           40001                           DCOM
000814:    7020           20160                           DAS      MPAC       +3
000815:    7021           00006                           EXTEND
000816:    7022           17024                           BZF      +2
000817:    7023           06770                           TC       OVERFLWY
000818:
000819:    7024           00006                           EXTEND
000820:    7025           50116                           INDEX    ADDRWD
000821:    7026           30005                           DCA      4
000822:    7027           52162                           DXCH     MPAC       +5
000823:    7030           00006                           EXTEND
000824:    7031           40001                           DCOM
000825:    7032           20162                           DAS      MPAC       +5
000826:    7033           00006                           EXTEND
000827:    7034           17036                           BZF      +2
000828:    7035           06765                           TC       OVERFLWZ
000829:
000830:    7036           00006        BDSU               EXTEND
000831:    7037           50116                           INDEX    ADDRWD
000832:    7040           30001                           DCA      0
000833:    7041           52155                           DXCH     MPAC
000834:    7042           00006                           EXTEND
000835:    7043           40001                           DCOM
000836:    7044           16754                           TCF      ENDVXV
000837:
000838:                                                                                                  #           TRIPLE PRECISION ADD ROUTINE.
000839:
000840:    7045           00006        TAD                EXTEND
000841:    7046           50116                           INDEX    ADDRWD
000842:    7047           30002                           DCA      1                                     #  ADD MINOR PARTS FIRST.
000843:    7050           20156                           DAS      MPAC       +1
000844:    7051           50116                           INDEX    ADDRWD
000845:    7052           60000                           AD       0
000846:    7053           60154                           AD       MPAC
000847:    7054           54154                           TS       MPAC
000848:    7055           16035                           TCF      DANZIG
000849:
000850:    7056           16757                           TCF      SETOVF                                #  SET OVFIND IF SUCH OCCURS.
000851:
000852:                                                                                                  #  ARITHMETIC SUBROUTINES REQUIRED IN FIXED-FIXED.
000853:
000854:                                                                                                  #           1.  DMPSUB     DOUBLE PRECISION MULTIPLY. MULTIPLY THE CONTENTS OF MPAC,+1 BY THE DP WORD WHOSE ADDRESS
000855:                                                                                                  #                          IS IN ADDRWD AND LEAVE A TRIPLE PRECISION RESULT IN MPAC.
000856:                                                                                                  #           2.  ROUNDSUB   ROUND THE TRIPLE PRECISON CONTENTS OF MPAC TO DOUBLE PRECISION.
000857:                                                                                                  #           3.  DOTSUB     TAKE THE DOT PRODUCT OF THE VECTOR IN MPAC AND THE VECTOR WHOSE ADDRESS IS IN ADDRWD
000858:                                                                                                  #                          AND LEAVE THE TRIPLE PRECISION RESULT IN MPAC.
000859:                                                                                                  #           4.  POLY       USING THE CONTENTS OF MPAC AS A DP ARGUMENT, EVALUATE THE POLYNOMIAL WHOSE DEGREE AND
000860:                                                                                                  #                          COEFFICIENTS IMMEDIATELY FOLLOW THE TC POLY INSTRUCTION (SEE ROUTINE FOR DETAILS.)
000861:
000862:
000863:    7057           50002        DMP                INDEX    Q                                     #  BASIC SUBROUTINE FOR USE BY PINBALL, ETC
000864:    7060           30000                           CAF      0                                     #  ADRES OF ARGUMENT FOLLOWS  TC DMP  .
000865:    7061           24002                           INCR     Q
000866:    7062           54116                 -1        TS       ADDRWD                                #  (PROLOGUE FOR SETTING ADDRWD.)
000867:
000868:    7063           50116        DMPSUB             INDEX    ADDRWD                                #  GET MINOR PART OF OPERAND AT C(ADDRWD).
000869:    7064           30001                           CA       1
000870:    7065           54156                           TS       MPAC       +2                         #  THIS WORKS FOR SQUARING MPAC AS WELL.
000871:    7066           35030                           CAF      ZERO                                  #  SET MPAC +1 TO ZERO SO WE CAN ACCUMULATE
000872:    7067           56155                           XCH      MPAC       +1                         #  THE PARTIAL PRODUCTS WITH DAS
000873:    7070           54135                           TS       MPTEMP                                #  INSTRUCTIONS.
000874:    7071           00006                           EXTEND
000875:    7072           70156                           MP       MPAC       +2                         #  MINOR OF MPAC X MINOR OF C(ADDRWD).
000876:
000877:    7073           56156                           XCH      MPAC       +2                         #  DISCARD MINOR PART OF ABOVE RESULT AND
000878:    7074           00006                           EXTEND                                         #  FORM MAJOR OF MPAC X MINOR OF C(ADDRWD).
000879:    7075           70154                           MP       MPAC
000880:    7076           20156                           DAS      MPAC       +1                         #  GUARANTEED NO OVERFLOW.
000881:
000882:    7077           50116                           INDEX    ADDRWD                                #  GET MAJOR PART OF ARGUMENT AT C(ADDRWD).
000883:    7100           30000                           CA       0
000884:    7101           56135                           XCH      MPTEMP                                #  SAVE AND BRING OUT MINOR OF MPAC.
000885:    7102           00006        DMPSUB2            EXTEND
000886:    7103           70135                           MP       MPTEMP                                #  MAJOR OF C(ADDRWD) X MINOR OF MPAC.
000887:    7104           20156                           DAS      MPAC       +1                         #  ACCUMULATE, SETTING A TO NET OVERFLOW.
000888:
000889:    7105           56154                           XCH      MPAC                                  #  SETTING MPAC TO 0 OR +-1.
000890:    7106           00006                           EXTEND
000891:    7107           70135                           MP       MPTEMP                                #  MAJOR OF MPAC X MAJOR OF C(ADDRWD).
000892:    7110           20155                           DAS      MPAC                                  #  GUARANTEED NO OVERFLOW.
000893:    7111           00002                           TC       Q                                     #  49 MCT = .573 MS. INCLUDING RETURN.
000894:
000895:                                                                                                  #           ROUND MPAC TO DOUBLE PRECISION, SETTING OVFIND ON THE RARE EVENT OF OVERFLOW.
000896:
000897:    7112           35030        ROUNDSUB           CAF      ZERO                                  #  SET MPAC +2 = 0 FOR SCALARS AND CHANGE
000898:    7113           54163                 +1        TS       MODE                                  #  MODE TO DP.
000899:
000900:    7114           56156        VROUND             XCH      MPAC       +2                         #  BUT WE NEEDNT TAKE THE TIME FOR VECTORS.
000901:    7115           60000                           DOUBLE
000902:    7116           54001                           TS       L
000903:    7117           00002                           TC       Q
000904:
000905:    7120           60155                           AD       MPAC       +1                         #  ADD ROUNDING BIT IF MPAC +2 WAS GREATER
000906:    7121           54155                           TS       MPAC       +1                         #  THAN .5 IN MAGNITUDE.
000907:    7122           00002                           TC       Q
000908:
000909:    7123           60154                           AD       MPAC                                  #  PROPAGATE INTERFLOW.
000910:    7124           54154                           TS       MPAC
000911:    7125           00002                           TC       Q
000912:
000913:    7126           54121        SETOVF2            TS       OVFIND                                #  (RARE).
000914:    7127           00002                           TC       Q
000915:
000916:                                                                                                  #           THE DOT PRODUCT SUBROUTINE USUALLY FORMS THE DOT PRODUCT OF THE VECTOR IN MPAC WITH A STANDARD SIX
000917:                                                                                                  #  REGISTER VECTOR WHOSE ADDRESS IS IN ADDRWD. IN THIS CASE C(DOTINC) ARE SET TO 2. VXM, HOWEVER, SETS C(DOTINC) TO
000918:                                                                                                  #  6 SO THAT DOTSUB DOTS MPAC WITH A COLUMN VECTOR OF THE MATRIX IN QUESTION IN THIS CASE.
000919:
000920:
000921:    7130           35025        PREDOT             CAF      TWO                                   #  PROLOGUE TO SET DOTINC TO 2.
000922:    7131           54136                           TS       DOTINC
000923:
000924:    7132           00006        DOTSUB             EXTEND
000925:    7133           22137                           QXCH     DOTRET                                #  SAVE RETURN.
000926:    7134           07063                           TC       DMPSUB                                #  DOT X COMPONENTS.
000927:    7135           52160                           DXCH     MPAC       +3                         #  POSITION Y COMPONENT OF MPAC FOR
000928:    7136           52155                           DXCH     MPAC                                  #  MULTIPLICATION WHILE SAVING RESULT IN
000929:    7137           52131                           DXCH     BUF                                   #  THREE WORD BUFFER, BUF.
000930:    7140           30156                           CA       MPAC       +2
000931:    7141           54132                           TS       BUF        +2
000932:
000933:    7142           30136                           CA       DOTINC                                #  ADVANCE ADDRWD TO Y COMPONENT OF
000934:    7143           26116                           ADS      ADDRWD                                #  OTHER ARGUMENT.
000935:    7144           07063                           TC       DMPSUB
000936:    7145           52156                           DXCH     MPAC       +1                         #  ACCUMULATE PARTIAL PRODUCTS.
000937:    7146           20132                           DAS      BUF        +1
000938:    7147           60154                           AD       MPAC
000939:    7150           60130                           AD       BUF
000940:    7151           54130                           TS       BUF
000941:    7152           17154                           TCF      +2
000942:    7153           54121                           TS       OVFIND                                #  IF OVERFLOW OCCURS.
000943:
000944:    7154           52162                           DXCH     MPAC       +5                         #  MULTIPLY Z COMPONENTS.
000945:    7155           52155                           DXCH     MPAC
000946:    7156           30136                           CA       DOTINC
000947:    7157           26116                           ADS      ADDRWD
000948:    7160           07063                           TC       DMPSUB
000949:    7161           52132        ENDDOT             DXCH     BUF        +1                         #  LEAVE FINAL ACCUMULATION IN MPAC.
000950:    7162           20156                           DAS      MPAC       +1
000951:    7163           60154                           AD       MPAC
000952:    7164           60130                           AD       BUF
000953:    7165           54154                           TS       MPAC
000954:    7166           00137                           TC       DOTRET
000955:
000956:    7167           06773                           TC       OVERFLOW                              #  ON OVERFLOW HERE.
000957:    7170           00137                           TC       DOTRET
000958:
000959:                                                                                                  #  DOUBLE PRECISION POLYNOMIAL EVALUATOR
000960:
000961:                                                                                                  #                                     N        N-1
000962:                                                                                                  #           THIS ROUTINE EVALUATES A X  + A   X    + ... + A X + A  LEAVING THE DP RESULT IN MPAC ON EXIT.
000963:                                                                                                  #                                   N      N-1              1     0
000964:
000965:                                                                                                  #  THE ROUTINE HAS TWO ENTRIES
000966:
000967:                                                                                                  #           1. ENTRY THRU POWRSERS. THE COEFFICIENTS MAY BE EITHER IN FIXED OR ERASABLE, THE CALL IS BY
000968:                                                                                                  #              TC POWRSERS, AND THE RETURN IS TO LOC(TC POWRSERS)+1. THE ENTERING DATA MUST BE AS FOLLOWS
000969:
000970:                                                                                                  #                                          A        SP     LOC-3           ADDRESS FOR REFERENCING COEF TABLE
000971:                                                                                                  #                                          L        SP     N-1             N IS THE DEGREE OF THE POWER SERIES
000972:                                                                                                  #                                          MPAC     DP     X               ARGUMENT
000973:
000974:                                                                                                  #                                          LOC-2N   DP     A(0)
000975:                                                                                                  #                                                   ...
000976:                                                                                                  #                                          LOC      DP     A(N)
000977:
000978:                                                                                                  #           2. ENTRY THRU POLY. THE CALL TO POLY AND THE ENTERING DATA MUST BE AS FOLLOWS
000979:
000980:                                                                                                  #                                          MPAC     DP     X               ARGUMENT
000981:                                                                                                  #                                          LOC      TC     POLY
000982:                                                                                                  #                                          LOC+1    SP     N-1
000983:                                                                                                  #                                          LOC+2    DP     A(0)
000984:                                                                                                  #                                                   ...
000985:                                                                                                  #                                          LOC+2N+2 DP     A(N)            RETURN IS TO LOC+2N+4
000986:
000987:    7171           00006        POWRSERS           EXTEND
000988:    7172           22141                           QXCH     POLYRET                               #  RETURN ADDRESS
000989:    7173           54117                           TS       POLISH                                #  POWER SERIES ADDRESS
000990:    7174           22140                           LXCH     POLYCNT                               #  N-1 TO COUNTER
000991:    7175           17206                           TCF      POLYCOM                               #  SKIP SET UP BY POLY
000992:
000993:    7176           50002        POLY               INDEX    Q
000994:    7177           30000                           CAF      0
000995:    7200           54140                           TS       POLYCNT                               #  N-1 TO COUNTER
000996:    7201           60000                           DOUBLE
000997:    7202           60002                           AD       Q
000998:    7203           54117                           TS       POLISH                                #  L(A(N))-3 TO POLISH
000999:    7204           65031                           AD       FIVE
001000:    7205           54141                           TS       POLYRET                               #  STORE RETURN ADDRESS
001001:
001002:    7206           36247        POLYCOM            CAF      LVBUF                                 #  INCOMING X WILL BE MOVED TO VBUF, SO
001003:    7207           54116                           TS       ADDRWD                                #  SET ADDRWD SO DMPSUB WILL MPY BY VBUF.
001004:
001005:    7210           00006                           EXTEND
001006:    7211           50117                           INDEX    POLISH
001007:    7212           30004                           DCA      3
001008:    7213           52155                           DXCH     MPAC                                  #  LOAD A(N) INTO MPAC,
001009:    7214           52123                           DXCH     VBUF                                  #  SAVING X IN VBUF
001010:    7215           17221                           TCF      POLY2
001011:
001012:    7216           54140        POLYLOOP           TS       POLYCNT                               #  SAVE DECREMENTED LOOP COUNTER
001013:    7217           45025                           CS       TWO
001014:    7220           26117                           ADS      POLISH                                #  REGRESS COEFFICIENT POINTER
001015:
001016:    7221           07063        POLY2              TC       DMPSUB                                #  MULTIPLY BY X
001017:    7222           00006                           EXTEND
001018:    7223           50117                           INDEX    POLISH
001019:    7224           30002                           DCA      1                                     #  ADD IN NEXT COEFFICIENT
001020:    7225           20155                           DAS      MPAC                                  #  USERS RESPONSIBILITY TO ASSURE NO OVFLOW
001021:
001022:    7226           10140                           CCS      POLYCNT
001023:    7227           17216                           TCF      POLYLOOP
001024:    7230           00141                           TC       POLYRET                               #  RETURN CALLER
001025:
001026:                                                                                                  #           MISCELLANEOUS MULTI-PRECISION ROUTINES REQUIRED IN FIXED-FIXED BUT NOT USED BY THE INTERPRETER.
001027:
001028:    7231           22002        TPAGREE            LXCH     Q                                     #  FORCE SIGN AGREEMENT AMONG THE TRIPLE
001029:    7232           06677                           TC       BRANCH                                #  PRECISION CONTENTS OF MPAC.  RETURNING
001030:    7233           17237                           TCF      ARG+                                  #  WITH SIGNUM OF THE INPUT IN A.
001031:    7234           17257                           TCF      ARGZERO
001032:
001033:    7235           45006                           CS       POSMAX                                #  IF NEGATIVE.
001034:    7236           17240                           TCF      +2
001035:
001036:    7237           35006        ARG+               CAF      POSMAX
001037:    7240           54002                           TS       Q
001038:    7241           00006                           EXTEND
001039:    7242           24000                           AUG      A                                     #  FORMS +-1.0.
001040:    7243           60156                           AD       MPAC       +2
001041:    7244           54156                           TS       MPAC       +2
001042:    7245           35030                           CAF      ZERO
001043:    7246           60002                           AD       Q
001044:    7247           60155                           AD       MPAC       +1
001045:    7250           54155                           TS       MPAC       +1
001046:    7251           35030                           CAF      ZERO
001047:    7252           60002                           AD       Q                                     #  Q STILL HAS POSMAX OR NEGMAX IN IT.
001048:    7253           60154                           AD       MPAC
001049:    7254           54154        ARGZERO2           TS       MPAC                                  #  ALWAYS SKIPPING UNLESS ARGZERO.
001050:    7255           54155                           TS       MPAC       +1
001051:    7256           00001                           TC       L                                     #  RETURN VIA L.
001052:
001053:    7257           54156        ARGZERO            TS       MPAC       +2                         #  SET ALL THREE MPAC REGISTERS TO ZERO.
001054:    7260           17254                           TCF      ARGZERO2
001055:
001056:                                                                                                  #           SHORTMP MULTIPLIES THE TP CONTENTS OF MPAC BY THE SINGLE PRECISION NUMBER ARRIVING IN A.
001057:
001058:    7261           54135        SHORTMP            TS       MPTEMP
001059:    7262           00006                           EXTEND
001060:    7263           70156                           MP       MPAC       +2
001061:    7264           54156                           TS       MPAC       +2
001062:    7265           35030        SHORTMP2           CAF      ZERO                                  #  SO SUBSEQUENT DAS WILL WORK.
001063:    7266           56155                           XCH      MPAC       +1
001064:    7267           17102                           TCF      DMPSUB2
001065:
001066:                                                                                                  #         DMPNSUB MULTIPLIES THE DP FRACTION ARRIVING IN MPAC BY THE SP
001067:                                                                                                  #  INTEGER ARRIVING IN A.  THE DP PRODUCT DEPARTS BOTH IN MPAC AND IN
001068:                                                                                                  #  A AND L.  NOTE THAT DMPNSUB NORMALLY INCREASES THE MAGNITUDE OF THE
001069:                                                                                                  #  CONTENTS OF MPAC.  THE CUSTOMER MUST INSURE THAT B(A) X B(MPAC,MPAC+1)
001070:                                                                                                  #  AND B(A) X B(MPAC) ARE LESS THAN 1 IN MAGNITUDE, WHERE B, AS IS OBVIOUS,
001071:                                                                                                  #  INDICATES THE ARRIVING CONTENTS.
001072:
001073:    7270           54135        DMPNSUB            TS       DMPNTEMP
001074:    7271           00006                           EXTEND
001075:    7272           70155                           MP       MPAC       +1
001076:    7273           52155                           DXCH     MPAC                                  #  LOW PRODUCT TO MPAC, HIGH FACTOR TO A
001077:    7274           00006                           EXTEND
001078:    7275           70135                           MP       DMPNTEMP
001079:    7276           30001                           CA       L
001080:    7277           26154                           ADS      MPAC                                  #  COMPLETING THE PRODUCT IN MPAC
001081:    7300           00006                           EXTEND
001082:    7301           30155                           DCA      MPAC                                  #  BRINGING THE PRODUCT INTO A AND L
001083:    7302           00002                           TC       Q
001084:
001085:                                                                                                  #  MISCELLANEOUS VECTOR OPERATIONS. INCLUDED HERE ARE THE FOLLOWING:
001086:
001087:                                                                                                  #           1.  DOT                DP VECTOR DOT PRODUCT.
001088:                                                                                                  #           2.  VXV                DP VECTOR CROSS PRODUCT.
001089:                                                                                                  #           3.  VXSC               DP VECTOR TIMES SCALAR.
001090:                                                                                                  #           4.  V/SC               DP VECTOR DIVIDED BY SCALAR.
001091:                                                                                                  #           5.  VPROJ              DP VECTOR PROJECTION. ( (MPAC.X)MPAC ).
001092:                                                                                                  #           6.  VXM                DP VECTOR POST-MULTIPLIED BY MATRIX.
001093:                                                                                                  #           7.  MXV                DP VECTOR PRE-MULTIPLIED BY MATRIX.
001094:
001095:
001096:    7303           07130        DOT                TC       PREDOT                                #  DO THE DOT PRODUCT AND EXIT, CHANGING
001097:    7304           35030        DMODE              CAF      ZERO                                  #  THE MODE TO DP SCALAR.
001098:    7305           16034                           TCF      NEWMODE
001099:
001100:
001101:    7306           35025        MXV                CAF      TWO                                   #  SET UP MATINC AND DOTINC FOR ROW
001102:    7307           54140                           TS       MATINC                                #  VECTORS.
001103:    7310           17314                           TCF      VXM/MXV                               #  GO TO COMMON PORTION.
001104:
001105:    7311           44375        VXM                CS       TEN                                   #  SET MATINC AND DOTINC TO REFER TO MATRIX
001106:    7312           54140                           TS       MATINC                                #  AS THREE COLUMN VECTORS.
001107:    7313           36216                           CAF      SIX
001108:
001109:                                                                                                  #           COMMON PORTION OF MXV AND VXM.
001110:
001111:    7314           54136        VXM/MXV            TS       DOTINC
001112:                                                                                                  #           ITRACE (2) REFERS TO "VXM/MXV".
001113:    7315           07504                           TC       MPACVBUF                              #  SAVE VECTOR IN MPAC FOR FURTHER USE.
001114:
001115:    7316           07132                           TC       DOTSUB                                #  GO DOT TO GET X COMPONENT OF ANSWER.
001116:    7317           00006                           EXTEND
001117:    7320           30123                           DCA      VBUF                                  #  MOVE MPAC VECTOR BACK INTO MPAC, SAVING
001118:    7321           52155                           DXCH     MPAC                                  #  NEW X COMPONENT IN BUF2.
001119:    7322           52134                           DXCH     BUF2
001120:    7323           00006                           EXTEND
001121:    7324           30125                           DCA      VBUF       +2
001122:    7325           52160                           DXCH     MPAC       +3
001123:    7326           00006                           EXTEND
001124:    7327           30127                           DCA      VBUF       +4
001125:    7330           52162                           DXCH     MPAC       +5
001126:    7331           30140                           CA       MATINC                                #  INITIALIZE ADDRWD FOR NEXT DOT PRODUCT.
001127:    7332           26116                           ADS      ADDRWD                                #  FORMS BASE ADDRESS OF NEXT COLUMN(ROW).
001128:
001129:    7333           07132                           TC       DOTSUB
001130:    7334           52123                           DXCH     VBUF                                  #  MOVE GIVEN VECTOR BACK TO MPAC, SAVING Y
001131:    7335           52155                           DXCH     MPAC                                  #  COMPONENT OF ANSWER IN VBUF +2.
001132:    7336           52125                           DXCH     VBUF       +2
001133:    7337           52160                           DXCH     MPAC       +3
001134:    7340           52127                           DXCH     VBUF       +4
001135:    7341           52162                           DXCH     MPAC       +5
001136:    7342           30140                           CA       MATINC                                #  FORM ADDRESS OF LAST COLUMN OR ROW.
001137:    7343           26116                           ADS      ADDRWD
001138:
001139:    7344           07132                           TC       DOTSUB
001140:    7345           52134                           DXCH     BUF2                                  #  ANSWER NOW COMPLETE. PUT COMPONENTS INTO
001141:    7346           52155                           DXCH     MPAC                                  #  PROPER MPAC REGISTERS.
001142:    7347           52162                           DXCH     MPAC       +5
001143:    7350           52125                           DXCH     VBUF       +2
001144:    7351           52160                           DXCH     MPAC       +3
001145:    7352           16035                           TCF      DANZIG                                #  EXIT.
001146:
001147:                                                                                                  #           VXSC - VECTOR TIMES SCALAR.
001148:
001149:    7353           10163        VXSC               CCS      MODE                                  #  TEST PRESENT MODE.
001150:    7354           17402                           TCF      DVXSC                                 #  SEPARATE ROUTINE WHEN SCALAR IS IN MPAC.
001151:    7355           17402                           TCF      DVXSC
001152:
001153:    7356           07063        VVXSC              TC       DMPSUB                                #  COMPUTE X COMPONENT
001154:    7357           07114                           TC       VROUND                                #  AND ROUND IT.
001155:    7360           52160                           DXCH     MPAC       +3                         #  PUT Y COMPONENT INTO MPAC SAVING MPAC IN
001156:    7361           52155                           DXCH     MPAC                                  #  MPAC +3.
001157:    7362           52160                           DXCH     MPAC       +3
001158:
001159:    7363           07063                           TC       DMPSUB                                #  DO SAME FOR Y AND Z COMPONENTS.
001160:    7364           07114                           TC       VROUND
001161:    7365           52162                           DXCH     MPAC       +5
001162:    7366           52155                           DXCH     MPAC
001163:    7367           52162                           DXCH     MPAC       +5
001164:
001165:    7370           07063                           TC       DMPSUB
001166:    7371           07114                           TC       VROUND
001167:    7372           52155        VROTATEX           DXCH     MPAC                                  #  EXIT USED TO RESTORE MPAC AFTER THIS
001168:    7373           52162                           DXCH     MPAC       +5                         #  TYPE OF ROTATION. CALLED BY VECTOR SHIFT
001169:    7374           52160                           DXCH     MPAC       +3                         #  RIGHT, V/SC, ETC.
001170:    7375           52155                           DXCH     MPAC
001171:    7376           16035                           TCF      DANZIG
001172:
001173:                                                                                                  #           DP VECTOR PROJECTION ROUTINE.
001174:
001175:    7377           07130        VPROJ              TC       PREDOT                                #  (MPAC.X)MPAC IS COMPUTED AND LEFT IN
001176:    7400           45024                           CS       FOUR                                  #  MPAC. DO DOT AND FALL INTO DVXSC.
001177:    7401           26116                           ADS      ADDRWD
001178:
001179:                                                                                                  #           VXSC WHEN SCALAR ARRIVES IN MPAC AND VECTOR IS AT X.
001180:
001181:    7402           00006        DVXSC              EXTEND                                         #  SAVE SCALAR IN MPAC +3 AND GET X
001182:    7403           30155                           DCA      MPAC                                  #  COMPONENT OF ANSWER.
001183:    7404           52160                           DXCH     MPAC       +3
001184:    7405           07063                           TC       DMPSUB
001185:    7406           07114                           TC       VROUND
001186:
001187:    7407           35025                           CAF      TWO                                   #  ADVANCE ADDRWD TO Y COMPONENT OF X.
001188:    7410           26116                           ADS      ADDRWD
001189:    7411           00006                           EXTEND
001190:    7412           30160                           DCA      MPAC       +3                         #  PUT SCALAR BACK INTO MPAC AND SAVE
001191:    7413           52155                           DXCH     MPAC                                  #  X RESULT IN MPAC +5.
001192:    7414           52162                           DXCH     MPAC       +5
001193:    7415           07063                           TC       DMPSUB
001194:    7416           07114                           TC       VROUND
001195:
001196:    7417           35025                           CAF      TWO
001197:    7420           26116                           ADS      ADDRWD                                #  TO Z COMPONENT.
001198:    7421           52160                           DXCH     MPAC       +3                         #  BRING SCALAR BACK, PUTTING Y RESULT IN
001199:    7422           52155                           DXCH     MPAC                                  #  THE PROPER PLACE.
001200:    7423           52160                           DXCH     MPAC       +3
001201:    7424           07063                           TC       DMPSUB
001202:    7425           07114                           TC       VROUND
001203:
001204:    7426           52155                           DXCH     MPAC                                  #  PUT Z COMPONENT IN PROPER PLACE, ALSO
001205:    7427           52162                           DXCH     MPAC       +5                         #  POSITIONING X.
001206:    7430           52155                           DXCH     MPAC
001207:
001208:    7431           16475                           TCF      VMODE                                 #  MODE HAS CHANGED TO VECTOR.
001209:
001210:                                                                                                  #           THE VECTOR CROSS PRODUCT ROUTINE CALCULATES (X M -X M ,X M -X M ,X M -X M ) WHERE M IS THE VECTOR IN
001211:                                                                                                  #                                                         3 2  2 3  1 3  3 1  2 1  1 2
001212:                                                                                                  #  MPAC AND X THE VECTOR AT THE GIVEN ADDRESS.
001213:
001214:
001215:    7432           00006        VXV                EXTEND
001216:    7433           30162                           DCA      MPAC       +5                         #  FORM UP M3X1, LEAVING M1 IN VBUF.
001217:    7434           52155                           DXCH     MPAC
001218:    7435           52123                           DXCH     VBUF
001219:    7436           07063                           TC       DMPSUB                                #  BY X1.
001220:
001221:    7437           00006                           EXTEND
001222:    7440           40160                           DCS      MPAC       +3                         #  CALCULATE -X1M2, SAVING X1M3 IN VBUF +2.
001223:    7441           52155                           DXCH     MPAC
001224:    7442           52125                           DXCH     VBUF       +2
001225:    7443           07063                           TC       DMPSUB
001226:
001227:    7444           35025                           CAF      TWO                                   #  ADVANCE ADDRWD TO X2.
001228:    7445           26116                           ADS      ADDRWD
001229:    7446           00006                           EXTEND
001230:    7447           40162                           DCS      MPAC       +5                         #  PREPARE TO GET -X2M3, SAVING -X1M2 IN
001231:    7450           52155                           DXCH     MPAC                                  #  MPAC +5.
001232:    7451           52162                           DXCH     MPAC       +5
001233:    7452           07063                           TC       DMPSUB
001234:
001235:    7453           00006                           EXTEND
001236:    7454           30123                           DCA      VBUF                                  #  GET X2M1, SAVING -X2M3 IN VBUF +4.
001237:    7455           52155                           DXCH     MPAC
001238:    7456           52127                           DXCH     VBUF       +4
001239:    7457           07063                           TC       DMPSUB
001240:
001241:    7460           35025                           CAF      TWO                                   #  ADVANCE ADDRWD TO X3.
001242:    7461           26116                           ADS      ADDRWD
001243:    7462           00006                           EXTEND
001244:    7463           40123                           DCS      VBUF                                  #  GET -X3M1, ADDING X2M1 TO MPAC +5 TO
001245:    7464           52155                           DXCH     MPAC                                  #  COMPLETE THE Z COMPONENT OF THE ANSWER.
001246:    7465           20162                           DAS      MPAC       +5
001247:
001248:    7466           00006                           EXTEND
001249:    7467           17471                           BZF      +2
001250:    7470           06765                           TC       OVERFLWZ
001251:
001252:    7471           07063                           TC       DMPSUB
001253:    7472           52125                           DXCH     VBUF       +2                         #  MOVE X1M3 TO MPAC +3 SETTING UP FOR X3M2
001254:    7473           52160                           DXCH     MPAC       +3                         #  AND ADD -X3M1 TO MPAC +3 TO COMPLETE THE
001255:    7474           52155                           DXCH     MPAC                                  #  Y COMPONENT OF THE RESULT.
001256:    7475           20160                           DAS      MPAC       +3
001257:
001258:    7476           00006                           EXTEND
001259:    7477           17501                           BZF      +2
001260:    7500           06770                           TC       OVERFLWY
001261:
001262:    7501           07063                           TC       DMPSUB
001263:    7502           52127                           DXCH     VBUF       +4                         #  GO ADD -X2M3 TO X3M2 TO COMPLETE THE X
001264:    7503           16754                           TCF      ENDVXV                                #  COMPONENT (TAIL END OF DAD).
001265:
001266:                                                                                                  #           THE MPACVBUF SUBROUTINE SAVES THE VECTOR IN MPAC IN VBUF WITHOUT CLOBBERING MPAC.
001267:
001268:    7504           00006        MPACVBUF           EXTEND                                         #  CALLED BY MXV, VXM, AND UNIT.
001269:    7505           30155                           DCA      MPAC
001270:    7506           52123                           DXCH     VBUF
001271:    7507           00006                           EXTEND
001272:    7510           30160                           DCA      MPAC       +3
001273:    7511           52125                           DXCH     VBUF       +2
001274:    7512           00006                           EXTEND
001275:    7513           30162                           DCA      MPAC       +5
001276:    7514           52127                           DXCH     VBUF       +4
001277:    7515           00002                           TC       Q                                     #  RETURN TO CALLER.
001278:
001279:
001280:                                                                                                  #           DOUBLE PRECISION SIGN AGREE ROUTINE. ARRIVE WITH INPUT IN A+L. OUTPUT IS IN A + L.
001281:
001282:    7516           10000        ALSIGNAG           CCS      A                                     #  TEST UPPER PART.
001283:    7517           17523                           TCF      UPPOS                                 #  IT IS POSITIVE
001284:    7520           00002                           TC       Q                                     #  ZERO
001285:    7521           17533                           TCF      UPNEG                                 #  NEGATIVE
001286:    7522           00002                           TC       Q                                     #  ZERO
001287:
001288:    7523           56001        UPPOS              XCH      L                                     #  SAVE DECREMENTED UPPER PART.
001289:    7524           65011                           AD       HALF
001290:    7525           65011                           AD       HALF
001291:    7526           54000                           TS       A                                     #  SKIPS ON OVERFLOW
001292:    7527           17531                           TCF      +2
001293:    7530           24001                           INCR     L                                     #  RESTORE UPPER TO ROIGINAL VALUE
001294:    7531           56001                           XCH      L                                     #  SWAP A + L BACK.
001295:    7532           00002                           TC       Q
001296:
001297:    7533           56001        UPNEG              XCH      L                                     #  SAVE COMPLEMENTED + DECREMENTED UPPER PT
001298:    7534           65010                           AD       NEGMAX
001299:    7535           67721                           AD       NEGONE
001300:    7536           54000                           TS       A
001301:    7537           17541                           TCF      +2                                    #  DONT INCREMENT IF NO OVERFLOW.
001302:    7540           24001                           INCR     L
001303:    7541           56001                           XCH      L
001304:    7542           40000                           COM                                            #  MAKE NEGATIVE AGAIN.
001305:    7543           00002                           TC       Q
001306:
001307:                                                                                                  #           INTERPRETIVE INSTRUCTIONS WHOSE EXECUTION CONSISTS OF PRINCIPALLY CALLING SUBROUTINES.
001308:
001309:    7544           07063        DMP1               TC       DMPSUB                                #  DMP INSTRUCTION.
001310:    7545           16035                           TCF      DANZIG
001311:
001312:    7546           07063        DMPR               TC       DMPSUB
001313:    7547           07113                           TC       ROUNDSUB   +1                         #  (C(A) = +0).
001314:    7550           16035                           TCF      DANZIG
001315:
001316:    7551           00006        DDV                EXTEND
001317:    7552           50116                           INDEX    ADDRWD                                #  MOVE DIVIDEND INTO BUF.
001318:    7553           30001                           DCA      0
001319:    7554           17561                           TCF      BDDV       +4
001320:
001321:    7555           00006        BDDV               EXTEND                                         #  MOVE DIVISOR INTO MPAC SAVING MPAC, THE
001322:    7556           50116                           INDEX    ADDRWD                                #  DIVIDEND, IN BUF.
001323:    7557           30001                           DCA      0
001324:    7560           52155                           DXCH     MPAC
001325:    7561           52131                 +4        DXCH     BUF
001326:    7562           35030                           CAF      ZERO                                  #  DIVIDE ROUTINES IN BANK 0.
001327:    7563           54004                           TS       FBANK
001328:    7564           12353                           TCF      DDV/BDDV
001329:
001330:    7565           30116        SETPD              CA       ADDRWD                                #  MUST SET TO WORK AREA, OR EBANK TROUBLE.
001331:    7566           54166                           TS       PUSHLOC
001332:    7567           16037                           TCF      NOIBNKSW                              #  NO FBANK SWITCH REQUIRED.
001333:
001334:    7570           35030        TSLC               CAF      ZERO                                  #  SHIFTING ROUTINES LOCATED IN BANK 00.
001335:    7571           54004                           TS       FBANK
001336:    7572           12172                           TCF      TSLC2
001337:
001338:    7573           36050        GSHIFT             CAF      LOW7                                  #  USED AS MASK AT GENSHIFT. THIS PROCESSES
001339:    7574           54004                           TS       FBANK                                 #  ANY SHIFT INSTRUCTION (EXCEPT TSLC) WITH
001340:    7575           12214                           TCF      GENSHIFT                              #  AN ADDRESS (ROUTINES IN BANK 0).
001341:
001342:                                                                                                  #           THE FOLLOWING IS THE PROLOGUE TO V/SC. IF THE PRESENT MODE IS VECTOR, IT SAVES THE SCALAR AT X IN BUF
001343:                                                                                                  #  AND CALLS THE V/SC ROUTINE IN BANK 0. IF THE PRESENT MODE IS SCALAR, IT MOVES THE VECTOR AT X INTO MPAC, SAVING
001344:                                                                                                  #  THE SCALAR IN MPAC IN BUF BEFORE CALLING THE V/SC ROUTINE IN BANK 0.
001345:
001346:    7576           10163        V/SC               CCS      MODE
001347:    7577           17610                           TCF      DV/SC                                 #  MOVE VECTOR INTO MPAC.
001348:    7600           17610                           TCF      DV/SC
001349:
001350:    7601           00006        VV/SC              EXTEND
001351:    7602           50116                           INDEX    ADDRWD
001352:    7603           30001                           DCA      0
001353:    7604           52131        V/SC1              DXCH     BUF                                   #  IN BOTH CASES, VECTOR IS NOW IN MPAC AND
001354:    7605           35030                           CAF      ZERO                                  #  SCALAR IN BUF.
001355:    7606           54004                           TS       FBANK
001356:    7607           12654                           TCF      V/SC2
001357:
001358:    7610           00006        DV/SC              EXTEND
001359:    7611           50116                           INDEX    ADDRWD
001360:    7612           30003                           DCA      2
001361:    7613           52160                           DXCH     MPAC       +3
001362:    7614           00006                           EXTEND
001363:    7615           50116                           INDEX    ADDRWD
001364:    7616           30005                           DCA      4
001365:    7617           52162                           DXCH     MPAC       +5
001366:
001367:    7620           45026                           CS       ONE                                   #  CHANGE MODE TO VECTOR.
001368:    7621           54163                           TS       MODE
001369:
001370:    7622           00006                           EXTEND
001371:    7623           50116                           INDEX    ADDRWD
001372:    7624           30001                           DCA      0
001373:    7625           52155                           DXCH     MPAC
001374:    7626           17604                           TCF      V/SC1                                 #  FINISH PROLOGUE AT COMMON SECTION.
001375:
001376:                                                                                                  #           SIGN AND COMPLEMENT INSTRUCTIONS.
001377:
001378:    7627           50116        SIGN               INDEX    ADDRWD                                #  CALL COMP INSTRUCTION IF WORD AT X IS
001379:    7630           10000                           CCS      0                                     #  NEGATIVE NON-ZERO.
001380:    7631           16035                           TCF      DANZIG
001381:    7632           17634                           TCF      +2
001382:    7633           17642                           TCF      COMP                                  #  DO THE COMPLEMENT.
001383:
001384:    7634           50116                           INDEX    ADDRWD
001385:    7635           10001        CCSL               CCS      1
001386:    7636           16035                           TCF      DANZIG
001387:    7637           16035                           TCF      DANZIG
001388:    7640           17642                           TCF      COMP
001389:    7641           16035                           TCF      DANZIG
001390:    7642           00006        COMP               EXTEND                                         #  COMPLEMENT DP MPAC IN EVERY CASE.
001391:    7643           40155                           DCS      MPAC
001392:    7644           52155                           DXCH     MPAC
001393:
001394:    7645           10163                           CCS      MODE                                  #  EITHER COMPLEMENT MPAC +3 OR THE REST OF
001395:    7646           17657                           TCF      DCOMP                                 #  THE VECTOR ACCUMULATOR.
001396:    7647           17657                           TCF      DCOMP
001397:
001398:    7650           00006                           EXTEND                                         #  VECTOR COMPLEMENT.
001399:    7651           40160                           DCS      MPAC       +3
001400:    7652           52160                           DXCH     MPAC       +3
001401:    7653           00006                           EXTEND
001402:    7654           40162                           DCS      MPAC       +5
001403:    7655           52162                           DXCH     MPAC       +5
001404:    7656           16035                           TCF      DANZIG
001405:
001406:    7657           40156        DCOMP              CS       MPAC       +2
001407:    7660           54156                           TS       MPAC       +2
001408:    7661           16035                           TCF      DANZIG
001409:
001410:                                                                                                  #           THE FOLLOWING SHORT SHIFT CODES REQUIRE NO ADDRESS WORD:
001411:
001412:                                                                                                  #           1.  SR1 TO SR4         SCALAR SHIFT RIGHT.
001413:                                                                                                  #           2.  SR1R TO SR4R       SCALAR SHIFT RIGHT AND ROUND.
001414:                                                                                                  #           3.  SL1 TO SL4         SCALAR SHIFT LEFT.
001415:                                                                                                  #           4.  SL1R TO SL4R       SCALAR SHIFT LEFT AND ROUND.
001416:
001417:                                                                                                  #           5.  VSR1 TO VSR8       VECTOR SHIFT RIGHT (ALWAYS ROUNDS).
001418:                                                                                                  #           6.  VSL1 TO VSL8       VECTOR SHIFT LEFT (NEVER ROUNDS).
001419:
001420:                                                                                                  #           THE FOLLOWING CODES REQUIRE AN ADDRESS WHICH MAY BE INDEXED:*
001421:
001422:                                                                                                  #           1.  SR                 SCALAR SHIFT RIGHT.
001423:                                                                                                  #           2.  SRR                SCALAR SHIFT RIGHT AND ROUND.
001424:                                                                                                  #           3.  SL                 SCALAR SHIFT LEFT.
001425:                                                                                                  #           4.  SLR                SCALAR SHIFT LEFT AND ROUND.
001426:
001427:                                                                                                  #           5.  VSR                VECTOR SHIFT RIGHT.
001428:                                                                                                  #           6.  VSL                VECTOR SHIFT LEFT.
001429:
001430:                                                                                                  #  *  IF THE ADDRESS IS INDEXED, AND THE INDEX MODIFICATION RESULTS IN A NEGATIVE SHIFT COUNT, A SHIFT OF THE
001431:                                                                                                  #  ABSOLUTE VALUE OF THE COUNT IS DONE IN THE OPPOSITE DIRECTION.
001432:
001433:
001434: 00,2017                                           BANK     00
001435:
001436: 00,2017                                           COUNT*   $$/INTER
001437: 00,2017           36216        SHORTT             CAF      SIX                                   #  SCALAR SHORT SHIFTS COME HERE. THE SHIFT
001438: 00,2020           70020                           MASK     CYR                                   #  COUNT-1 IS NOW IN BITS 2-3 OF CYR. THE
001439: 00,2021           54021                           TS       SR                                    #  ROUNDING BIT IS IN BIT1 AT THIS POINT.
001440:
001441: 00,2022           10020                           CCS      CYR                                   #  SEE IF RIGHT OR LEFT SHIFT DESIRED.
001442: 00,2023           12101                           TCF      TSSL                                  #  SHIFT LEFT.
001443:
001444: 00,2024           00024        SRDDV              DEC      20         B-14                       #  MPTEMP SETTING FOR SR BEFORE DDV.
001445:
001446: 00,2025           50021        TSSR               INDEX    SR                                    #  GET SHIFTING BIT.
001447: 00,2026           35011                           CAF      BIT14
001448: 00,2027           54135                           TS       MPTEMP
001449:
001450: 00,2030           10020                           CCS      CYR                                   #  SEE IF A ROUND IS DESIRED.
001451: 00,2031           02050        RIGHTR             TC       MPACSRND                              #  YES - SHIFT RIGHT AND ROUND.
001452: 00,2032           16034                           TCF      NEWMODE                               #  SET MODE TO DP (C(A) = 0).
001453: 00,2033           30135        MPACSHR            CA       MPTEMP                                #  DO A TRIPLE PRECISION SHIFT RIGHT.
001454: 00,2034           00006                           EXTEND
001455: 00,2035           70156                           MP       MPAC       +2
001456: 00,2036           54156                 +3        TS       MPAC       +2                         #  (EXIT FROM SQRT AND ABVAL).
001457: 00,2037           30135                           CA       MPTEMP
001458: 00,2040           00006                           EXTEND
001459: 00,2041           70154                           MP       MPAC                                  #  SHIFT MAJOR PART INTO A,L AND PLACE IN
001460: 00,2042           52155                           DXCH     MPAC                                  #  MPAC,+1.
001461: 00,2043           30135                           CA       MPTEMP
001462: 00,2044           00006                           EXTEND
001463: 00,2045           70001                           MP       L                                     #  ORIGINAL C(MPAC +1).
001464: 00,2046           20156                           DAS      MPAC       +1                         #  GUARANTEED NO OVERFLOW.
001465: 00,2047           16035                           TCF      DANZIG
001466:
001467:                                                                                                  #           MPAC SHIFT RIGHT AND ROUND SUBROUTINES.
001468:
001469: 00,2050           30156        MPACSRND           CA       MPAC       +2                         #  WE HAVE TO DO ALL THREE MULTIPLIES SINCE
001470: 00,2051           00006                           EXTEND                                         #  MPAC +1 AND MPAC +2 MIGHT HAVE SIGN
001471: 00,2052           70135                           MP       MPTEMP                                #  DISAGREEMENT WITH A SHIFT RIGHT OF 1.
001472: 00,2053           56155                           XCH      MPAC       +1
001473: 00,2054           00006                           EXTEND
001474: 00,2055           70135                           MP       MPTEMP
001475: 00,2056           56155                           XCH      MPAC       +1                         #  TRIAL MINOR PART.
001476: 00,2057           60001                           AD       L
001477:
001478: 00,2060           60000        VSHR2              DOUBLE                                         #  (FINISH VECTOR COMPONENT SHIFT RIGHT
001479: 00,2061           54156                           TS       MPAC       +2                         #  AND ROUND.
001480: 00,2062           12064                           TCF      +2
001481: 00,2063           26155                           ADS      MPAC       +1                         #  GUARANTEED NO OVERFLOW.
001482:
001483: 00,2064           35030                           CAF      ZERO
001484: 00,2065           54156                           TS       MPAC       +2
001485: 00,2066           56154                           XCH      MPAC                                  #  SETTING TO ZERO SO FOLLOWING DAS WORKS.
001486: 00,2067           00006                           EXTEND
001487: 00,2070           70135                           MP       MPTEMP
001488: 00,2071           20155                           DAS      MPAC                                  #  AGAIN NO OVERFLOW.
001489: 00,2072           00002                           TC       Q
001490:
001491: 00,2073           30135        VSHRRND            CA       MPTEMP                                #  ENTRY TO SHIFT RIGHT AND ROUND MPAC WHEN
001492: 00,2074           00006                           EXTEND                                         #  MPAC CONTAINS A VECTOR COMPONENT.
001493: 00,2075           70155                           MP       MPAC       +1
001494: 00,2076           54155                           TS       MPAC       +1
001495: 00,2077           56001                           XCH      L
001496: 00,2100           12060                           TCF      VSHR2                                 #  GO ADD ONE IF NECESSARY AND FINISH.
001497:
001498:                                                                                                  #           ROUTINE FOR SHORT SCALAR SHIFT LEFT (AND MAYBE ROUND).
001499:
001500: 00,2101           30021        TSSL               CA       SR                                    #  GET SHIFT COUNT FOR SR.
001501: 00,2102           54135                 +1        TS       MPTEMP
001502:
001503: 00,2103           00006                 +2        EXTEND                                         #  ENTRY HERE FROM SL FOR SCALARS.
001504: 00,2104           30156                           DCA      MPAC       +1                         #  SHIFTING LEFT ONE PLACE AT A TIME IS
001505: 00,2105           20156                           DAS      MPAC       +1                         #  FASTER THAN DOING THE WHOLE SHIFT WITH
001506: 00,2106           60154                           AD       MPAC                                  #  MULTIPLIES ASSUMING THAT FREQUENCY OF
001507: 00,2107           60154                           AD       MPAC                                  #  SHIFT COUNTS GOES DOWN RAPIDLY AS A
001508: 00,2110           54154                           TS       MPAC                                  #  FUNCTION OF THEIR MAGNITUDE.
001509: 00,2111           12113                           TCF      +2
001510: 00,2112           54121                           TS       OVFIND                                #  OVERFLOW. (LEAVES OVERFLOW-CORRECTED
001511:                                                                                                  #  RESULT ANYWAY).
001512: 00,2113           10135                           CCS      MPTEMP                                #  LOOP ON DECREMENTED SHIFT COUNT.
001513: 00,2114           12102                           TCF      TSSL       +1
001514:
001515: 00,2115           10020                           CCS      CYR                                   #  SEE IF ROUND WANTED.
001516: 00,2116           07112        ROUND              TC       ROUNDSUB                              #  YES - ROUND AND EXIT.
001517: 00,2117           16035                           TCF      DANZIG                                #  SL LEAVES A ZERO IN CYR FOR NO ROUND.
001518: 00,2120           16035                           TCF      DANZIG                                #  NO - EXIT IMMEDIATL
001519:
001520:                                                                                                  #  VECTOR SHIFTING ROUTINES.
001521:
001522: 00,2121           35032        SHORTV             CAF      LOW3                                  #  SAVE 3 BIT SHIFT COUNT - 1 WITHOUT
001523: 00,2122           70020                           MASK     CYR                                   #  EDITING CYR.
001524: 00,2123           54135                           TS       MPTEMP
001525: 00,2124           10020                           CCS      CYR                                   #  SEE IF LEFT OR RIGHT SHIFT.
001526: 00,2125           12145                           TCF      VSSL                                  #  VECTOR SHIFT LEFT.
001527: 00,2126           00176        OCT176             OCT      176                                   #  USED IN PROCESSED SHIFTS WITH - COUNT.
001528:
001529: 00,2127           50135        VSSR               INDEX    MPTEMP                                #  (ENTRY FROM SR). PICK UP SHIFTING BIT.
001530: 00,2130           35011                           CAF      BIT14                                 #  MPTEMP CONTAINS THE SHIFT COUNT - 1.
001531: 00,2131           54135                           TS       MPTEMP
001532: 00,2132           02073                           TC       VSHRRND                               #  SHIFT X COMPONENT.
001533:
001534: 00,2133           52155                           DXCH     MPAC                                  #  SWAP X AND Y COMPONENTS.
001535: 00,2134           52160                           DXCH     MPAC       +3
001536: 00,2135           52155                           DXCH     MPAC
001537: 00,2136           02073                           TC       VSHRRND                               #  SHIFT Y COMPONENT.
001538:
001539: 00,2137           52155                           DXCH     MPAC                                  #  SWAP Y AND Z COMPONENTS.
001540: 00,2140           52162                           DXCH     MPAC       +5
001541: 00,2141           52155                           DXCH     MPAC
001542: 00,2142           02073                           TC       VSHRRND                               #  SHIFT Z COMPONENT.
001543:
001544: 00,2143           17372                           TCF      VROTATEX                              #  RESTORE COMPONENTS TO PROPER PLACES.
001545:
001546:                                                                                                  #  VECTOR SHIFT LEFT - DONE ONE PLACE AT A TIME.
001547:
001548: 00,2144           54135                 -1        TS       MPTEMP                                #  SHIFTING LOOP.
001549:
001550: 00,2145           00006        VSSL               EXTEND
001551: 00,2146           30155                           DCA      MPAC
001552: 00,2147           20155                           DAS      MPAC
001553: 00,2150           00006                           EXTEND
001554: 00,2151           12153                           BZF      +2
001555: 00,2152           06773                           TC       OVERFLOW
001556:
001557: 00,2153           00006                           EXTEND
001558: 00,2154           30160                           DCA      MPAC       +3
001559: 00,2155           20160                           DAS      MPAC       +3
001560: 00,2156           00006                           EXTEND
001561: 00,2157           12161                           BZF      +2
001562: 00,2160           06770                           TC       OVERFLWY
001563:
001564: 00,2161           00006                           EXTEND
001565: 00,2162           30162                           DCA      MPAC       +5
001566: 00,2163           20162                           DAS      MPAC       +5
001567: 00,2164           00006                           EXTEND
001568: 00,2165           12167                           BZF      +2
001569: 00,2166           06765                           TC       OVERFLWZ
001570:
001571: 00,2167           10135                           CCS      MPTEMP                                #  LOOP ON DECREMENTED SHIFT COUNTER.
001572: 00,2170           12144                           TCF      VSSL       -1
001573: 00,2171           16035                           TCF      DANZIG                                #  EXIT.
001574:
001575:                                                                                                  #           TSLC - TRIPLE SHIFT LEFT AND COUNT. SHIFTS MPAC LEFT UNTIL GREATER THAN .5 IN MAGNITUDE, LEAVING
001576:                                                                                                  #  THE COMPLEMENT OF THE NUMBER OF SHIFTS REQUIRED IN X.
001577:
001578: 00,2172           54135        TSLC2              TS       MPTEMP                                #  START BY ZEROING SHIFT COUNT (IN A NOW).
001579: 00,2173           06677                           TC       BRANCH                                #  EXIT WITH NO SHIFTING IF ARGUMENT ZERO.
001580: 00,2174           12176                           TCF      +2
001581: 00,2175           12212                           TCF      ENDTSLC                               #  STORES ZERO SHIFT COUNT IN THIS CASE.
001582:
001583: 00,2176           07231                           TC       TPAGREE                               #  MAY CAUSE UPSHIFT OF ONE EXTRA PLACE.
001584:
001585: 00,2177           30154                           CA       MPAC                                  #  BEGIN NORMALIZATION LOOP.
001586: 00,2200           12207                           TCF      TSLCTEST
001587:
001588: 00,2201           24135        TSLCLOOP           INCR     MPTEMP                                #  INCREMENT SHIFT COUNTER.
001589: 00,2202           00006                           EXTEND
001590: 00,2203           30156                           DCA      MPAC       +1
001591: 00,2204           20156                           DAS      MPAC       +1
001592: 00,2205           60154                           AD       MPAC
001593: 00,2206           26154                           ADS      MPAC
001594: 00,2207           60000        TSLCTEST           DOUBLE                                         #  SEE IF (ANOTHER) SHIFT IS REQUIRED.
001595: 00,2210           54000                           OVSK
001596: 00,2211           12201                           TCF      TSLCLOOP                              #  YES - INCREMENT COUNT AND SHIFT AGAIN.
001597:
001598: 00,2212           40135        ENDTSLC            CS       MPTEMP
001599: 00,2213           16577                           TCF      STORE1                                #  STORE SHIFT COUNT AND RETURN TO DANZIG.
001600:
001601:                                                                                                  #           THE FOLLOWING ROUTINES PROCESSES THE GENERAL SHIFT INSTRUCTIONS SR, SRR, SL, AND SLR.
001602:                                                                                                  #  THE GIVEN ADDRESS IS DECODED AS FOLLOWS:
001603:
001604:                                                                                                  #           BITS 1-7    SHIFT COUNT (SUBADDRESS) LESS THAN 125 DECIMAL.
001605:                                                                                                  #           BIT 8       PSEUDO SIGN BIT (DETECTS CHANGE IN SIGN IN INDEXED SHIFTS).
001606:                                                                                                  #           BIT 9       0 FOR LEFT SHIFT, AND 1 FOR RIGHT SHIFT.
001607:                                                                                                  #           BIT 10      1 FOR TERMINAL ROUND ON SCALAR SHIFTS, 0 OTHERWISE.
001608:                                                                                                  #           BITS 11-13  0.
001609:                                                                                                  #           BIT 14      1.
001610:                                                                                                  #           BIT 15      0.
001611:
001612:                                                                                                  #  THE ABOVE ENCODING IS DONE BY THE YUL SYSTEM.
001613:
001614: 00,2214           70116        GENSHIFT           MASK     ADDRWD                                #  GET SHIFT COUNT, TESTING FOR ZERO.
001615: 00,2215           10000                           CCS      A                                     #  (ARRIVES WITH C(A) = LOW7).
001616: 00,2216           12224                           TCF      GENSHFT2                              #  IF NON-ZERO, PROCEED WITH DECREMENTED CT
001617:
001618: 00,2217           35015                           CAF      BIT10                                 #  ZERO SHIFT COUNT. NO SHIFTS NEEDED BUT
001619: 00,2220           70116                           MASK     ADDRWD                                #  WE MIGHT HAVE TO ROUND MPAC ON SLR AND
001620: 00,2221           10000                           CCS      A                                     #  SRR (SCALAR ONLY).
001621: 00,2222           07112                           TC       ROUNDSUB
001622: 00,2223           16035                           TCF      DANZIG
001623:
001624: 00,2224           54135        GENSHFT2           TS       MPTEMP                                #  DECREMENTED SHIFT COUNT TO MPTEMP.
001625: 00,2225           35017                           CAF      BIT8                                  #  TEST MEANING OF LOW SEVEN BIT COUNT IN
001626: 00,2226           00006                           EXTEND                                         #  MPTEMP NOW.
001627: 00,2227           70116                           MP       ADDRWD
001628: 00,2230           76221                           MASK     LOW2                                  #  JUMPS ON SHIFT DIRECTION (BIT8) AND
001629: 00,2231           50000                           INDEX    A
001630: 00,2232           12233                           TCF      +1                                    #  ORIGINAL SHIFT DIRECTION (BIT 9).
001631: 00,2233           12332                           TCF      RIGHT-                                #  NEGATIVE SHIFT COUNT FOR SL OR SLR.
001632: 00,2234           12342                           TCF      LEFT                                  #  SL OR SLR.
001633: 00,2235           12336                           TCF      LEFT-                                 #  NEGATIVE SHIFT COUNT WITH SR OR SRR.
001634:
001635:                                                                                                  #           GENERAL SHIFT RIGHT.
001636:
001637: 00,2236           10163        RIGHT              CCS      MODE                                  #  SEE IF VECTOR OR SCALAR.
001638: 00,2237           12277                           TCF      GENSCR
001639: 00,2240           12277                           TCF      GENSCR
001640:
001641: 00,2241           30135                           CA       MPTEMP                                #  SEE IF SHIFT COUNT LESS THAN 14D.
001642: 00,2242           63726        VRIGHT2            AD       NEG12
001643: 00,2243           00006                           EXTEND
001644: 00,2244           62127                           BZMF     VSSR                                  #  IF SO, BRANCH AND SHIFT IMMEDIATELY.
001645:
001646: 00,2245           67721                           AD       NEGONE                                #  IF NOT, REDUCE MPTEMP BY A TOTAL OF 14,
001647: 00,2246           54135                           TS       MPTEMP                                #  AND DO A SHIFT RIGHT AND ROUND BY 14.
001648: 00,2247           35030                           CAF      ZERO                                  #  THE ROUND AT THIS STAGE MAY INTRODUCE A
001649: 00,2250           54001                           TS       L                                     #  ONE BIT ERROR IN A SHIFT RIGHT 15D.
001650: 00,2251           56154                           XCH      MPAC
001651: 00,2252           56155                           XCH      MPAC       +1
001652: 00,2253           02272                           TC       SETROUND                              #  X COMPONENT NOW SHIFTED, SO MAKE UP THE
001653: 00,2254           20155                           DAS      MPAC                                  #  ROUNDING QUANTITY (0 IN A AND 0 OR +-1
001654:                                                                                                  #  IN L).
001655: 00,2255           56157                           XCH      MPAC       +3                         #  REPEAT THE ABOVE PROCESS FOR Y AND Z.
001656: 00,2256           56160                           XCH      MPAC       +4
001657: 00,2257           02272                           TC       SETROUND
001658: 00,2260           20160                           DAS      MPAC       +3                         #  NO OVERFLOW ON THESE ADDS.
001659:
001660: 00,2261           56161                           XCH      MPAC       +5
001661: 00,2262           56162                           XCH      MPAC       +6
001662: 00,2263           02272                           TC       SETROUND
001663: 00,2264           20162                           DAS      MPAC       +5
001664:
001665: 00,2265           10135                           CCS      MPTEMP                                #  SEE IF DONE, DOING FINAL DECREMENT.
001666: 00,2266           54135                           TS       MPTEMP
001667: 00,2267           12242                           TCF      VRIGHT2
001668: 00,2270           04604        BIASLO             DEC      .2974      B-1                        #  SQRT CONSTANT
001669:
001670: 00,2271           16035                           TCF      DANZIG
001671:
001672:
001673: 00,2272           60000        SETROUND           DOUBLE                                         #  MAKES UP ROUNDING QUANTITY FROM ARRIVING
001674: 00,2273           54156                           TS       MPAC       +2                         #  C(A). L IS ZERO INITIALLY.
001675: 00,2274           35030                           CAF      ZERO
001676: 00,2275           56001                           XCH      L
001677: 00,2276           00002                           TC       Q                                     #  RETURN AND DO THE DAS, RESETTING L TO 0.
001678:
001679:                                                                                                  #           PROCESS SR AND SRR FOR SCALARS.
001680:
001681: 00,2277           30135        GENSCR             CA       MPTEMP                                #  SEE IF THE ORIGINAL SHIFT COUNT WAS LESS
001682: 00,2300           63726                 +1        AD       NEG12                                 #  THAN 14D.
001683: 00,2301           00006                           EXTEND
001684: 00,2302           62322                           BZMF     DOSSHFT                               #  DO THE SHIFT IMMEDIATELY IF SO.
001685:
001686: 00,2303           67721                 +4        AD       NEGONE                                #  IF NOT, DECREMENT SHIFT COUNT BY 14D AND
001687: 00,2304           54135                           TS       MPTEMP                                #  SHIFT MPAC RIGHT 14 PLACES.
001688: 00,2305           35030                           CAF      ZERO
001689: 00,2306           56154                           XCH      MPAC
001690: 00,2307           56155                           XCH      MPAC       +1
001691: 00,2310           54156                           TS       MPAC       +2
001692: 00,2311           10135                           CCS      MPTEMP                                #  SEE IF FINISHED, DO FINAL DECREMENT.
001693: 00,2312           54135                           TS       MPTEMP
001694: 00,2313           02300                           TC       GENSCR     +1
001695: 00,2314           22650        SLOPEHI            DEC      .5884                                 #  SQRT CONSTANT.
001696: 00,2315           35015                           CAF      BIT10                                 #  FINISHED WITH SHIFT.  SEE IF ROUND
001697: 00,2316           70116                           MASK     ADDRWD                                #  WANTED.
001698: 00,2317           10000                           CCS      A
001699: 00,2320           07112                           TC       ROUNDSUB
001700: 00,2321           16035                           TCF      DANZIG                                #  DO SO AND/OR EXIT.
001701:
001702: 00,2322           50135        DOSSHFT            INDEX    MPTEMP                                #  PICK UP SHIFTING BIT.
001703: 00,2323           35011                           CAF      BIT14
001704: 00,2324           54135                           TS       MPTEMP
001705: 00,2325           35015                           CAF      BIT10                                 #  SEE IF TERMINAL ROUND DESIRED.
001706: 00,2326           70116                           MASK     ADDRWD
001707: 00,2327           10000                           CCS      A
001708: 00,2330           12031                           TCF      RIGHTR                                #  YES.
001709: 00,2331           12033                           TCF      MPACSHR                               #  JUST SHIFT RIGHT.
001710:
001711:                                                                                                  #           PROCESS THE RIGHT- (SL(R) WITH A NEGATIVE COUNT), LEFT-, AND LEFT OPTIONS.
001712:
001713: 00,2332           40135        RIGHT-             CS       MPTEMP                                #  GET ABSOLUTE VALUE - 1 OF SHIFT COUNT
001714: 00,2333           62126                           AD       OCT176                                #  UNDERSTANDING THAT BIT8 (PSEUDO-SIGN)
001715: 00,2334           54135                           TS       MPTEMP                                #  WAS 1 INITIALLY.
001716: 00,2335           12236                           TCF      RIGHT                                 #  DO NORMAL SHIFT RIGHT.
001717:
001718: 00,2336           42126        LEFT-              CS       OCT176                                #  SAME PROLOGUE TO LEFT FOR INDEXED RIGHT
001719: 00,2337           60135                           AD       MPTEMP                                #  SHIFTS WHOSE NET SHIFT COUNT IS NEGATIVE
001720: 00,2340           40000                           COM
001721: 00,2341           54135                           TS       MPTEMP
001722:
001723: 00,2342           10163        LEFT               CCS      MODE                                  #  SINCE LEFT SHIFTING IS SONE ONE PLACE AT
001724: 00,2343           12346                           TCF      GENSCL                                #  A TIME, NO COMPARISON WITH 14 NEED BE
001725: 00,2344           12346                           TCF      GENSCL                                #  DONE. FOR SCALARS, SEE IF TERMINAL ROUND
001726: 00,2345           12145                           TCF      VSSL                                  #  DESIRED. FOR VECTORS, SHIFT IMMEDIATELY.
001727:
001728: 00,2346           40116        GENSCL             CS       ADDRWD                                #  PUT ROUNDING BIT (BIT 10 OF ADDRWD) INTO
001729: 00,2347           00006                           EXTEND                                         #  BIT 15 OF CYR WHERE THE ROUNDING BIT OF
001730: 00,2350           75021                           MP       BIT6                                  #  A SHORT SHIFT LEFT WOULD BE
001731: 00,2351           54020                           TS       CYR
001732: 00,2352           12103                           TCF      TSSL       +2                         #  DO THE SHIFT.
001733:
001734:                                                                                                  #           SCALAR DIVISION INSTRUCTIONS, DDV AND BDDV, ARE EXECUTED HERE. AT THIS POINT, THE DIVIDEND IS IN MPAC
001735:                                                                                                  #  AND THE DIVISOR IN BUF.
001736:
001737: 00,2353           45026        DDV/BDDV           CS       ONE                                   #  INITIALIZATION.
001738: 00,2354           54136                           TS       DVSIGN                                #  +-1 FOR POSITIVE QUOTIENT - -0 FOR NEG.
001739: 00,2355           54137                           TS       DVNORMCT                              #  DIVIDEND NORMALIZATION COUNT.
001740: 00,2356           54140                           TS       MAXDVSW                               #  NEAR-ONE DIVIDE FLAG.
001741:
001742: 00,2357           10130                           CCS      BUF                                   #  FORCE BUF POSITIVE WITH THE MAJOR PART
001743: 00,2360           12516                           TCF      BUFPOS                                #  NON-ZERO.
001744: 00,2361           12363                           TCF      +2
001745: 00,2362           12531                           TCF      BUFNEG
001746:
001747: 00,2363           54156        BUFZERO            TS       MPAC       +2                         #  ZERO THIS.
001748: 00,2364           07231                           TC       TPAGREE                               #  FORCE SIGN AGREEMENT BEFORE OVERFLOW
001749:
001750: 00,2365           10154                           CCS      MPAC                                  #  TEST TO SEE IF MPAC NON-ZERO.  (TOO BIG)
001751: 00,2366           12414                           TCF      OVF+                                  #  MAJOR PART OF DIVIDEND IS POSITIVE NON-0
001752: 00,2367           12371                           TCF      +2
001753: 00,2370           12413                           TCF      OVF+       -1                         #  MAJOR PART OF DIVIDEND IS NEG. NON-ZERO
001754:
001755: 00,2371           56131                           XCH      BUF        +1                         #  SHIFT DIVIDEND AND DIVISOR LEFT 14.
001756: 00,2372           56130                           XCH      BUF
001757: 00,2373           56155                           XCH      MPAC       +1
001758: 00,2374           56154                           XCH      MPAC
001759: 00,2375           10130                           CCS      BUF                                   #  TRY AGAIN ON FORMER MINOR PART.
001760: 00,2376           12422                           TCF      BUF+
001761: 00,2377           12401                           TCF      +2                                    #  OVERFLOW ON ZERO DIVISOR.
001762: 00,2400           12416                           TCF      BUF-
001763:
001764: 00,2401           40154                           CS       MPAC                                  #  SIGN OF MPAC DETERMINES SIGN OF RESULT.
001765: 00,2402           00006        SGNDVOVF           EXTEND
001766: 00,2403           62405                           BZMF     +2
001767: 00,2404           24136                           INCR     DVSIGN                                #  NEGMAX IN MPAC PERHAPS.
001768: 00,2405           35006        DVOVF              CAF      POSMAX                                #  ON DIVISION OVERFLOW OF ANY SORT, SET
001769: 00,2406           54154                           TS       MPAC                                  #  SET DP MPAC TO +-POSMAX.
001770: 00,2407           02630                           TC       FINALDV    +3
001771: 00,2410           35026                           CAF      ONE                                   #  SET OVERFLOW INDICATOR AND EXIT.
001772: 00,2411           54121                           TS       OVFIND
001773: 00,2412           06035                           TC       DANZIG
001774:
001775: 00,2413           24136                 -1        INCR     DVSIGN
001776: 00,2414           40131        OVF+               CS       BUF        +1                         #  LOAD LOWER ORDER PART OF DIVISOR.
001777: 00,2415           12402                           TCF      SGNDVOVF                              #  GET SIGN OF RESULT.
001778:
001779: 00,2416           00006        BUF-               EXTEND                                         #  IF BUF IS NEGATIVE, COMPLEMENT IT AND
001780: 00,2417           40131                           DCS      BUF                                   #  MAINTAIN DVSIGN FOR FINAL QUOTIENT SIGN.
001781: 00,2420           52131                           DXCH     BUF
001782: 00,2421           24136                           INCR     DVSIGN                                #  NOW -0.
001783:
001784: 00,2422           10154        BUF+               CCS      MPAC                                  #  FORCE MPAC POSITIVE, CHECKING FOR ZERO
001785: 00,2423           12437                           TCF      MPAC+                                 #  DIVIDEND IN THE PROCESS.
001786: 00,2424           12426                           TCF      +2
001787: 00,2425           12433                           TCF      MPAC-
001788: 00,2426           10155                           CCS      MPAC       +1
001789: 00,2427           12437                           TCF      MPAC+
001790: 00,2430           16035                           TCF      DANZIG                                #  EXIT IMMEDIATELY ON ZERO DIVIDEND.
001791: 00,2431           12433                           TCF      MPAC-
001792: 00,2432           16035                           TCF      DANZIG
001793:
001794: 00,2433           00006        MPAC-              EXTEND                                         #  FORCE MPAC POSITIVE AS BUF IN BUF-.
001795: 00,2434           40155                           DCS      MPAC
001796: 00,2435           52155                           DXCH     MPAC
001797: 00,2436           24136                           INCR     DVSIGN                                #  NOW +1 OR -0.
001798:
001799: 00,2437           40154        MPAC+              CS       MPAC                                  #  CHECK FOR DIVISION OVERFLOW. IF THE
001800: 00,2440           67721                           AD       NEGONE                                #  MAJOR PART OF THE DIVIDEND IS LESS THAN
001801: 00,2441           60130                           AD       BUF                                   #  THE MAJOR PART OF THE DIVISOR BY AT
001802: 00,2442           10000                           CCS      A                                     #  LEAST TWO, WE CAN PROCEED IMMEDIATELY
001803: 00,2443           12505                           TCF      DVNORM                                #  WITHOUT NORMALIZATION PRODUCING A DVMAX.
001804: 00,2444           60001        -1/2+2             OCT      60001                                 #  USED IN SQRTSUB.
001805:
001806: 00,2445           12446                           TCF      +1                                    #  IF THE ABOVE DOES NOT HOLD, FORCE SIGN
001807: 00,2446           35011                           CAF      HALF                                  #  AGREEMENT IN NUMERATOR AND DENOMINATOR
001808: 00,2447           60000                           DOUBLE                                         #  TO FACILITATE OVERFLOW AND NEAR-ONE
001809: 00,2450           60155                           AD       MPAC       +1                         #  CHECKING.
001810: 00,2451           54155                           TS       MPAC       +1
001811: 00,2452           35030                           CAF      ZERO
001812: 00,2453           65006                           AD       POSMAX
001813: 00,2454           26154                           ADS      MPAC
001814:
001815: 00,2455           35011                           CAF      HALF                                  #  SAME FOR BUF.
001816: 00,2456           60000                           DOUBLE
001817: 00,2457           60131                           AD       BUF        +1
001818: 00,2460           54131                           TS       BUF        +1
001819: 00,2461           35030                           CAF      ZERO
001820: 00,2462           65006                           AD       POSMAX
001821: 00,2463           26130                           ADS      BUF
001822:
001823: 00,2464           40154                           CS       MPAC                                  #  CHECK MAGNITUDE OF SIGN-CORRECTED
001824: 00,2465           60130                           AD       BUF                                   #  OPERANDS.
001825: 00,2466           10000                           CCS      A
001826: 00,2467           12505                           TCF      DVNORM                                #  DIVIDE OK - WILL NOT BECOME MAXDV CASE.
001827: 00,2470           00133        LBUF2              ADRES    BUF2
001828: 00,2471           12405                           TCF      DVOVF                                 #  DIVISOR NOT LESS THAN DIVIDEND - OVF.
001829:
001830: 00,2472           54140                           TS       MAXDVSW                               #  IF THE MAJOR PARTS OF THE DIVIDEND AND
001831: 00,2473           40155                           CS       MPAC       +1                         #  DIVISOR ARE EQUAL, A SPECIAL APPROXIMA-
001832: 00,2474           60131                           AD       BUF        +1                         #  TION IS USED (PROVIDED THE DIVISION IS
001833: 00,2475           00006                           EXTEND                                         #  POSSIBLE, OF COURSE).
001834: 00,2476           62405                           BZMF     DVOVF
001835: 00,2477           12505                           TCF      DVNORM                                #  IF NO OVERFLOW.
001836:
001837: 00,2500           00006        BUFNORM            EXTEND                                         #  ADD -1 TO AUGMENT SHIFT COUNT AND SHIFT
001838: 00,2501           24137                           AUG      DVNORMCT                              #  LEFT ONE PLACE.
001839: 00,2502           00006                           EXTEND
001840: 00,2503           30131                           DCA      BUF
001841: 00,2504           20131                           DAS      BUF
001842:
001843: 00,2505           30130        DVNORM             CA       BUF                                   #  SEE IF DIVISOR NORMALIZED YET.
001844: 00,2506           60000                           DOUBLE
001845: 00,2507           54000                           OVSK
001846: 00,2510           12500                           TCF      BUFNORM                               #  NO - SHIFT LEFT ONE AND TRY AGAIN.
001847:
001848: 00,2511           52155                           DXCH     MPAC                                  #  CALL DIVIDEND NORMALIZATION SEQUENCE
001849: 00,2512           50137                           INDEX    DVNORMCT                              #  PRIOR TO DOING THE DIVIDE.
001850: 00,2513           02565                           TC       MAXTEST
001851:
001852: 00,2514           54156                           TS       MPAC       +2                         #  RETURNS WITH DIVISION DONE AND C(A) = 0.
001853: 00,2515           16035                           TCF      DANZIG
001854:
001855: 00,2516           10000        BUFPOS             CCS      A
001856: 00,2517           12422                           TCF      BUF+                                  #  TO BUF+ IF BUF IS GREATER THAN +1.
001857:
001858: 00,2520           40131                           CS       BUF        +1                         #  IF BUF IS +1, FORCING SIGN AGREEMENT
001859: 00,2521           00006                           EXTEND                                         #  MAY CAUSE BUF TO BECOME ZERO.
001860: 00,2522           62422                           BZMF     BUF+                                  #  BRANCH IF SIGNS AGREE.
001861:
001862: 00,2523           35011                           CA       HALF                                  #  SIGNS DISAGREE.  FORCE AGREEMENT.
001863: 00,2524           60000                 +6        DOUBLE
001864: 00,2525           26131                           ADS      BUF        +1
001865: 00,2526           35030                           CA       ZERO
001866: 00,2527           54130                           TS       BUF
001867: 00,2530           12363                           TCF      BUFZERO
001868:
001869:
001870: 00,2531           10000        BUFNEG             CCS      A
001871: 00,2532           12416                           TCF      BUF-                                  #  TO BUF- IF BUF IS LESS THAN -1.
001872:
001873: 00,2533           30131                           CA       BUF        +1                         #  IF BUF IS -1, FORCING SIGN AGREEMENT
001874: 00,2534           00006                           EXTEND                                         #  MAY CAUSE BUF TO BECOME ZERO.
001875: 00,2535           62416                           BZMF     BUF-                                  #  BRANCH IF SIGNS AGREE.
001876:
001877: 00,2536           45011                           CS       HALF                                  #  SIGNS DISAGREE.  FORCE AGREEMENT.
001878: 00,2537           12524                           TCF      BUFPOS     +6
001879:
001880:                                                                                                  #           THE FOLLOWING ARE PROLOGUES TO SHIFT THE DIVIDEND ARRIVING IN A AND L BEFORE THE DIVIDE.
001881:
001882: 00,2540           22021                 -21D      LXCH     SR                                    #  SPECIAL PROLOGUE FOR UNIT WHEN THE
001883: 00,2541           00006                           EXTEND                                         #  LENGTH OF THE ARGUMENT WAS NOT LESS THAN
001884: 00,2542           75011                           MP       HALF                                  #  .5. IN THIS CASE, EACH COMPONENT MUST BE
001885: 00,2543           56001                           XCH      L                                     #  SHIFTED RIGHT ONE TO PRODUCE A HALF-UNIT
001886: 00,2544           60021                           AD       SR                                    #  VECTOR.
001887: 00,2545           56001                           XCH      L
001888: 00,2546           12571                           TCF      GENDDV     +1                         #  WITH DP DIVIDEND IN A,L.
001889:
001890: 00,2547           20001                           DDOUBL                                         #  PROLOGUE WHICH NORMALIZES THE DIVIDEND
001891: 00,2550           20001                           DDOUBL                                         #  WHEN IT IS KNOWN THAT NO DIVISION
001892: 00,2551           20001                           DDOUBL                                         #  OVERFLOW WILL OCCUR.
001893: 00,2552           20001                           DDOUBL
001894: 00,2553           20001                           DDOUBL
001895: 00,2554           20001                           DDOUBL
001896: 00,2555           20001                           DDOUBL
001897: 00,2556           20001                           DDOUBL
001898: 00,2557           20001                           DDOUBL
001899: 00,2560           20001                           DDOUBL
001900: 00,2561           20001                           DDOUBL
001901: 00,2562           20001                           DDOUBL
001902: 00,2563           20001                           DDOUBL
001903: 00,2564           52155                           DXCH     MPAC
001904:
001905: 00,2565           10140        MAXTEST            CCS      MAXDVSW                               #  0 IF MAJORS MIGHT BE =, -1 OTHERWISE.
001906: 00,2566           06552        BIASHI             DEC      .4192      B-1                        #  SQRT CONSTANTS
001907:
001908: 00,2567           12642                           TCF      MAXDV                                 #  CHECK TO SEE IF THEY ARE NOW EQUAL.
001909:
001910:                                                                                                  #           THE FOLLOWING IS A GENERAL PURPOSE DOUBLE PRECISION DIVISION ROUTINE. IT DIVIDES MPAC BY BUF AND LEAVES
001911:                                                                                                  #  THE RESULT IN MPAC. THE FOLLOWING CONDITIONS MUST BE SATISFIED:
001912:
001913:                                                                                                  #           1.  THE DIVISOR (BUF) MUST BE POSITIVE AND NOT LESS THAN .5.
001914:
001915:                                                                                                  #           2.  THE DIVIDEND (MPAC) MUST BE POSITIVE WITH THE MAJOR PART OF MPAC STRICTLY LESS THAN THAT OF BUF
001916:                                                                                                  #  (A SPECIAL APPROXIMATION, MAXDV, IS USED WHEN THE MAJOR PARTS ARE EQUAL).
001917:
001918:                                                                                                  #           UNDERSTANDING THAT A/B = Q + S(R/B) WHERE S = 2(-14) AND Q AND R ARE QUOTIENT AND REMAINDER, RESPEC-
001919:                                                                                                  #  TIVELY, THE FOLLOWING APPROXIMATION IS OBTAINED BY MULTIPLYING ABOVE AND BELOW BY C - SD AND NEGLECTING TERMS OF
001920:                                                                                                  #  ORDER S-SQUARED (POSSIBLY INTRODUCING ERROR INTO THE LOW TWO BITS OF THE RESULT). SIGN AGREEMENT IS UNNECESSARY.
001921:
001922:                                                                                                  #           A + SB .      (R - QD)                                             A + SB
001923:                                                                                                  #           ------ = Q + S(------) WHERE Q AND R ARE QUOTIENT AND REMAINDER OF ------ RESPECTIVELY.
001924:                                                                                                  #           C + SD        (  C   )                                                C
001925:
001926:
001927: 00,2570           52155        GENDDV             DXCH     MPAC                                  #  WE NEED A AND B ONLY FOR FIRST DV.
001928: 00,2571           00006                 +1        EXTEND                                         #  (SPECIAL UNIT PROLOGUE ENTERS HERE).
001929: 00,2572           10130                           DV       BUF                                   #  A NOW CONTAINS Q AND L, R.
001930: 00,2573           52155                           DXCH     MPAC
001931:
001932: 00,2574           40154                           CS       MPAC                                  #  FORM DIVIDEND FOR MINOR PART OF RESULT.
001933: 00,2575           00006                           EXTEND
001934: 00,2576           70131                           MP       BUF        +1
001935: 00,2577           60155                           AD       MPAC       +1                         #  OVERFLOW AT THIS POINT IS POSITIVE SINCE
001936: 00,2600           54000                           OVSK                                           #  R IS POSITIVE IN EVERY CASE.
001937: 00,2601           12606                           TCF      +5
001938:
001939: 00,2602           00006                           EXTEND                                         #  OVERFLOW CAN BE REMOVED BY SUBTRACTING C
001940: 00,2603           60130                           SU       BUF                                   #  (BUF) ONCE SINCE R IS ALWAYS LESS THAN C
001941: 00,2604           24154                           INCR     MPAC                                  #  IN THIS CASE. INCR COMPENSATES SUBTRACT.
001942: 00,2605           12610                           TCF      +DOWN                                 #  (SINCE C(A) IS STILL POSITIVE).
001943:
001944: 00,2606           00006                 +5        EXTEND                                         #  C(A) CAN BE MADE LESS THAN C IN MAGNI-
001945: 00,2607           62620                           BZMF     -UP                                   #  TUDE BY DIMINISHING IT BY C (SINCE C IS
001946:                                                                                                  #  NOT LESS THAN .5) UNLESS C(A) = 0.
001947:
001948: 00,2610           00006        +DOWN              EXTEND
001949: 00,2611           60130                           SU       BUF                                   #  IF POSITIVE, REDUCE ONLY IF NECESSARY
001950: 00,2612           00006                           EXTEND                                         #  SINCE THE COMPENSATING INCR MIGHT CAUSE
001951: 00,2613           12616                           BZF      +3                                    #  OVERFLOW.
001952: 00,2614           00006                           EXTEND                                         #  DONT SUBTRACT UNLESS RESULT IS POSITIVE
001953: 00,2615           62624                           BZMF     ENDMAXDV                              #  OR ZERO.
001954:
001955: 00,2616           24154                 +3        INCR     MPAC                                  #  KEEP SUBTRACT HERE AND COMPENSATE.
001956: 00,2617           12625                           TCF      FINALDV
001957:
001958: 00,2620           00006        -UP                EXTEND                                         #  IF ZERO, SET MINOR PART OF RESULT TO
001959: 00,2621           12630                           BZF      FINALDV    +3                         #  ZERO.
001960:
001961: 00,2622           00006                           EXTEND                                         #  IF NEGATIVE, ADD C TO A, SUBTRACTING ONE
001962: 00,2623           26154                           DIM      MPAC                                  #  TO COMPENSATE. DIM IS OK HERE SINCE THE
001963: 00,2624           60130        ENDMAXDV           AD       BUF                                   #  MAJOR PART NEVER GOES NEGATIVE.
001964:
001965: 00,2625           22007        FINALDV            ZL                                             #  DO DV TO OBTAIN MINOR PART OF RESULT.
001966: 00,2626           00006                           EXTEND
001967: 00,2627           10130                           DV       BUF
001968: 00,2630           54155                 +3        TS       MPAC       +1
001969:
001970: 00,2631           10136                           CCS      DVSIGN                                #  LEAVE RESULT POSITIVE UNLESS C(DVSIGN)=
001971: 00,2632           00002                           TC       Q                                     #  -0.
001972: 00,2633           00002                           TC       Q
001973: 00,2634           00002                           TC       Q
001974:
001975: 00,2635           00006                           EXTEND
001976: 00,2636           40155                           DCS      MPAC
001977: 00,2637           52155                           DXCH     MPAC
001978: 00,2640           35030                           CAF      ZERO                                  #  SO WE ALWAYS RETURN WITH C(A) = 0.
001979: 00,2641           00002                           TC       Q
001980:
001981:                                                                                                  #           IF THE MAJOR PARTS OF THE DIVISOR AND DIVIDEND ARE EQUAL, BUT THE MINOR PARTS ARE SUCH THAT THE
001982:                                                                                                  #  DIVIDEND IS STRICTLY LESS THAN THE DIVISOR IN MAGNITUDE, THE FOLLOWING APPROXIMATION IS USED. THE ASSUMPTIONS
001983:                                                                                                  #  ARE THE SAME AS THE GENERAL ROUTINE WITH THE ADDITION THAT SIGN AGREEMENT IS NECESSARY (B, C, & D POSITIVE).
001984:
001985:                                                                                                  #                  C + SB .          (C + B - D)
001986:                                                                                                  #                  ------ = 37777 + S(---------)
001987:                                                                                                  #                  C + SD            (    C    )
001988:
001989:                                                                                                  #           THE DIVISION MAY BE PERFORMED IMMEDIATELY SINCE B IS STRICTLY LESS THAN D AND C IS NOT LESS THAN .5.
001990:
001991:
001992: 00,2642           40154        MAXDV              CS       MPAC                                  #  SEE IF MAXDV CASE STILL HOLDS AFTER
001993: 00,2643           60130                           AD       BUF                                   #  NORMALIZATION.
001994: 00,2644           00006                           EXTEND
001995: 00,2645           12647                           BZF      +2
001996: 00,2646           12570                           TCF      GENDDV                                #  MPAC NOW LESS THAN BUF - DIVIDE AS USUAL
001997:
001998: 00,2647           35006                 +2        CAF      POSMAX                                #  SET MAJOR PART OF RESULT.
001999: 00,2650           54154                           TS       MPAC
002000:
002001: 00,2651           40131                           CS       BUF        +1                         #  FORM DIVIDEND OF MINOR PART OF RESULT.
002002: 00,2652           60155                           AD       MPAC       +1
002003: 00,2653           12624                           TCF      ENDMAXDV                              #  GO ADD C AND DO DIVIDE, ATTACHING SIGN
002004:                                                                                                  #  BEFORE EXITING.
002005:
002006:                                                                                                  #           VECTOR DIVIDED BY SCALAR, V/SC, IS EXECUTED HERE. THE VECTOR IS NOW IN MPAC WITH SCALAR IN BUF.
002007:
002008: 00,2654           45026        V/SC2              CS       ONE                                   #  INITIALIZE DIVIDEND NORMALIZATION COUNT
002009: 00,2655           54137                           TS       DVNORMCT                              #  AND DIVISION SIGN REGISTER.
002010: 00,2656           54127                           TS       VBUF       +5
002011:
002012: 00,2657           03010                           TC       VECAGREE                              #  FORCE SIGN AGREEMENT IN VECTOR
002013:
002014: 00,2660           52131                           DXCH     BUF
002015: 00,2661           07516                           TC       ALSIGNAG                              #  SIGN AGREE BUF
002016: 00,2662           52131                           DXCH     BUF
002017: 00,2663           10130                           CCS      BUF                                   #  FORCE DIVISOR POSITIVE WITH MAJOR PART
002018: 00,2664           12721                           TCF      /BUF+                                 #  NON-ZERO (IF POSSIBLE).
002019: 00,2665           12667                           TCF      +2
002020: 00,2666           12715                           TCF      /BUF-
002021:
002022: 00,2667           56131                           XCH      BUF        +1                         #  SHIFT VECTOR AND SCALAR LEFT 14.
002023: 00,2670           56130                           XCH      BUF
002024: 00,2671           56155                           XCH      MPAC       +1
002025: 00,2672           56154                           XCH      MPAC
002026: 00,2673           00006                           EXTEND                                         #  CHECK FOR OVERFLOW IN EACH CASE.
002027: 00,2674           12676                           BZF      +2
002028: 00,2675           12405                           TCF      DVOVF
002029:
002030: 00,2676           56160                           XCH      MPAC       +4
002031: 00,2677           56157                           XCH      MPAC       +3
002032: 00,2700           00006                           EXTEND
002033: 00,2701           12703                           BZF      +2
002034: 00,2702           12405                           TCF      DVOVF
002035:
002036: 00,2703           56162                           XCH      MPAC       +6
002037: 00,2704           56161                           XCH      MPAC       +5
002038: 00,2705           00006                           EXTEND
002039: 00,2706           12710                           BZF      +2
002040: 00,2707           12405                           TCF      DVOVF
002041:
002042: 00,2710           10130                           CCS      BUF
002043: 00,2711           12721                           TCF      /BUF+
002044: 00,2712           12405                           TCF      DVOVF                                 #  ZERO DIVISOR - OVERFLOW.
002045: 00,2713           12715                           TCF      /BUF-
002046: 00,2714           12405                           TCF      DVOVF
002047:
002048: 00,2715           00006        /BUF-              EXTEND                                         #  ON NEGATIVE, COMPLEMENT BUF AND MAINTAIN
002049: 00,2716           40131                           DCS      BUF                                   #  DVSIGN IN VBUF +5.
002050: 00,2717           52131                           DXCH     BUF
002051: 00,2720           24127                           INCR     VBUF       +5
002052:
002053: 00,2721           00006        /BUF+              EXTEND
002054: 00,2722           30131                           DCA      BUF                                   #  LEAVE ABS(ORIG DIVISOR) IN BUF2
002055: 00,2723           52134                           DXCH     BUF2                                  #  FOR OVERFLOW TESTING
002056: 00,2724           12732                           TCF      /NORM                                 #  NORMALIZE DIVISOR IN BUF.
002057:
002058: 00,2725           00006        /NORM2             EXTEND                                         #  IF LESS THAN .5, AUGMENT DVNORMCT AND
002059: 00,2726           24137                           AUG      DVNORMCT                              #  DOUBLE DIVISOR.
002060: 00,2727           00006                           EXTEND
002061: 00,2730           30131                           DCA      BUF
002062: 00,2731           20131                           DAS      BUF
002063:
002064: 00,2732           30130        /NORM              CA       BUF                                   #  SEE IF DIVISOR NORMALIZED.
002065: 00,2733           60000                           DOUBLE
002066: 00,2734           54000                           OVSK
002067: 00,2735           12725                           TCF      /NORM2                                #  DOUBLE AND TRY AGAIN IF NOT.
002068:
002069: 00,2736           02750                           TC       V/SCDV                                #  DO X COMPONENT DIVIDE.
002070: 00,2737           52160                           DXCH     MPAC       +3                         #  SUPPLY ARGUMENTS IN USUAL SEQUENCE.
002071: 00,2740           52155                           DXCH     MPAC
002072: 00,2741           52160                           DXCH     MPAC       +3
002073:
002074: 00,2742           02750                           TC       V/SCDV                                #  Y COMPONENT.
002075: 00,2743           52162                           DXCH     MPAC       +5
002076: 00,2744           52155                           DXCH     MPAC
002077: 00,2745           52162                           DXCH     MPAC       +5
002078:
002079: 00,2746           02750                           TC       V/SCDV                                #  Z COMPONENT.
002080: 00,2747           17372                           TCF      VROTATEX                              #  GO RE-ARRANGE COMPONENTS BEFORE EXIT.
002081:
002082:                                                                                                  #           SUBROUTINE USED BY V/SC TO DIVIDE VECTOR COMPONENT IN MPAC,+1 BY THE SCALAR GIVEN IN BUF.
002083:
002084: 00,2750           30127        V/SCDV             CA       VBUF       +5                         #  REFLECTS SIGN OF SCALAR.
002085: 00,2751           54136                           TS       DVSIGN
002086:
002087: 00,2752           10154                           CCS      MPAC                                  #  FORCE MPAC POSITIVE, EXITING ON ZERO.
002088: 00,2753           12767                           TCF      /MPAC+
002089: 00,2754           12756                           TCF      +2
002090: 00,2755           12763                           TCF      /MPAC-
002091:
002092: 00,2756           10155                           CCS      MPAC       +1
002093: 00,2757           12767                           TCF      /MPAC+
002094: 00,2760           00002                           TC       Q
002095: 00,2761           12763                           TCF      /MPAC-
002096: 00,2762           00002                           TC       Q
002097:
002098: 00,2763           00006        /MPAC-             EXTEND                                         #  USUAL COMPLEMENTING AND SETTING OF SIGN.
002099: 00,2764           40155                           DCS      MPAC
002100: 00,2765           52155                           DXCH     MPAC
002101: 00,2766           24136                           INCR     DVSIGN
002102:
002103: 00,2767           45026        /MPAC+             CS       ONE                                   #  INITIALIZE NEAR-ONE SWITCH.
002104: 00,2770           54140                           TS       MAXDVSW
002105:
002106: 00,2771           40154                           CS       MPAC                                  #  CHECK POSSIBLE OVERFLOW.
002107: 00,2772           60133                           AD       BUF2                                  #  UNNORMALIZED INPUT DIVISOR.
002108: 00,2773           10000                           CCS      A
002109: 00,2774           13004                           TCF      DDVCALL                               #  NOT NEAR-ONE
002110: 00,2775           12777                           TCF      +2                                    #  +0 IS JUST POSSIBLE
002111: 00,2776           12405                           TCF      DVOVF                                 #  NO HOPE
002112: 00,2777           54140                           TS       MAXDVSW                               #  SIGNAL POSSIBLE NEAR-ONE CASE
002113: 00,3000           40155                           CS       MPAC       +1                         #  SEE IF DIVISION CAN BE DONE
002114: 00,3001           60134                           AD       BUF2       +1
002115: 00,3002           00006                           EXTEND
002116: 00,3003           62405                           BZMF     DVOVF
002117:
002118: 00,3004           52155        DDVCALL            DXCH     MPAC                                  #  CALL PRE-DIVIDE NORMALIZATION.
002119: 00,3005           50137                           INDEX    DVNORMCT
002120: 00,3006           12565                           TCF      MAXTEST
002121:
002122: 00,3007           32506        SLOPELO            DEC      .8324
002123:
002124: 00,3010           56002        VECAGREE           XCH      Q                                     #  SAVE Q IN A
002125: 00,3011           52155                           DXCH     MPAC
002126: 00,3012           07516                           TC       ALSIGNAG                              #  SIGNAGREE MPAC
002127: 00,3013           52155                           DXCH     MPAC
002128: 00,3014           52160                           DXCH     MPAC       +3
002129: 00,3015           07516                           TC       ALSIGNAG                              #  SIGN AGREE MPAC +3
002130: 00,3016           52160                           DXCH     MPAC       +3
002131: 00,3017           52162                           DXCH     MPAC       +5
002132: 00,3020           07516                           TC       ALSIGNAG                              #  SIGNAGREE MPAC +5
002133: 00,3021           52162                           DXCH     MPAC       +5
002134: 00,3022           00000                           TC       A
002135:
002136:                                                                                                  #           THE FOLLOWING ROUTINE EXECUTES THE UNIT INSTRUCTION, WHICH TAKES THE UNIT OF THE VECTOR IN MPAC.
002137:
002138: 00,3023           03010        UNIT               TC       VECAGREE                              #  FORCE SIGN AGREEMENT IN VECTOR
002139: 00,3024           07504                           TC       MPACVBUF                              #  SAVE ARGUMENT IN VBUF
002140: 00,3025           35030                           CAF      ZERO                                  #  MUST SENSE OVERFLOW IN FOLLOWING DOT.
002141: 00,3026           56121                           XCH      OVFIND
002142: 00,3027           54141                           TS       TEM1
002143: 00,3030           03317                           TC       VSQSUB                                #  DOT MPAC WITH ITSELF.
002144: 00,3031           30141                           CA       TEM1
002145: 00,3032           56121                           XCH      OVFIND
002146: 00,3033           00006                           EXTEND
002147: 00,3034           13036                           BZF      +2
002148: 00,3035           12405                           TCF      DVOVF
002149: 00,3036           00006                           EXTEND
002150: 00,3037           30155                           DCA      MPAC                                  #  LEAVE THE SQUARE OF THE LENGTH OF THE
002151: 00,3040           50120                           INDEX    FIXLOC                                #  ARGUMENT IN LVSQUARE.
002152: 00,3041           52043                           DXCH     LVSQUARE
002153:
002154: 00,3042           03343                           TC       SQRTSUB                               #  GO TAKE THE NORMALIZED SQUARE ROOT.
002155:
002156: 00,3043           10154                           CCS      MPAC                                  #  CHECK FOR UNIT OVERFLOW.
002157: 00,3044           13051                           TCF      +5                                    #  MPAC IS NOT LESS THAN .5 UNLESS
002158: 00,3045           54001                           TS       L
002159: 00,3046           50120                           INDEX    FIXLOC
002160: 00,3047           52045                           DXCH     LV
002161: 00,3050           12405                           TCF      DVOVF                                 #  INPUT TO SQRTSUB WAS 0.
002162:
002163: 00,3051           44331                           CS       FOURTEEN                              #  SEE IF THE INPUT WAS SO SMALL THE THE
002164: 00,3052           60135                           AD       MPTEMP                                #  FIRST TWO REGISTERS OF THE SQUARE WERE 0
002165: 00,3053           10000                           CCS      A
002166: 00,3054           40000                           COM                                            #  IF SO, SAVE THE NEGATIVE OF THE SHIFT
002167: 00,3055           13133                           TCF      SMALL                                 #  COUNT -15D.
002168:
002169: 00,3056           13065                           TCF      LARGE                                 #  (THIS IS USUALLY THE CASE.)
002170:
002171: 00,3057           45034                           CS       THIRTEEN                              #  IF THE SHIFT COUNT WAS EXACTLY 14, SET
002172: 00,3060           54135                           TS       MPTEMP                                #  THE PRE-DIVIDE NORM COUNT TO -13D.
002173:
002174: 00,3061           30154                           CA       MPAC                                  #  SHIFT THE LENGTH RIGHT 14 BEFORE STORING
002175: 00,3062           54001        SMALL2             TS       L                                     #  (SMALL EXITS TO THIS POINT).
002176: 00,3063           35030                           CAF      ZERO
002177: 00,3064           13112                           TCF      LARGE2                                #  GO TO STORE LENGTH AND PROCEED.
002178:
002179: 00,3065           10135        LARGE              CCS      MPTEMP                                #  MOST ALL CASES COME HERE.
002180: 00,3066           13074                           TCF      LARGE3                                #  SEE IF NO NORMALIZATION WAS REQUIRED BY
002181:
002182: 00,3067           42024                           CS       SRDDV                                 #  SQRT, AND IF SO, SET UP FOR A SHIFT
002183: 00,3070           54135                           TS       MPTEMP                                #  RIGHT 1 BEFORE DIVIDING TO PRODUCE
002184: 00,3071           00006                           EXTEND                                         #  THE DESIRED HALF UNIT VECTOR.
002185: 00,3072           30155                           DCA      MPAC
002186: 00,3073           13112                           TCF      LARGE2
002187:
002188: 00,3074           40000        LARGE3             COM                                            #  LEAVE NEGATIVE OF SHIFT COUNT-1 FOR
002189: 00,3075           54135                           TS       MPTEMP                                #  PREDIVIDE LEFT SHIFT.
002190:
002191: 00,3076           40000                           COM                                            #  PICK UP REQUIRED SHIFTING BIT TO UNNORM-
002192: 00,3077           50000                           INDEX    A                                     #  ALIZE THE SQRT RESULT.
002193: 00,3100           35011                           CAF      BIT14
002194: 00,3101           54130                           TS       BUF
002195: 00,3102           00006                           EXTEND
002196: 00,3103           70155                           MP       MPAC       +1
002197: 00,3104           56130                           XCH      BUF
002198: 00,3105           00006                           EXTEND                                         #  (UNNORMALIZE THE SQRT FOR LV).
002199: 00,3106           70154                           MP       MPAC
002200: 00,3107           56001                           XCH      L
002201: 00,3110           60130                           AD       BUF
002202: 00,3111           56001                           XCH      L
002203:
002204: 00,3112           50120        LARGE2             INDEX    FIXLOC
002205: 00,3113           52045                           DXCH     LV                                    #  LENGTH NOW STORED IN WORK AREA.
002206:
002207: 00,3114           45026                           CS       ONE
002208: 00,3115           54140                           TS       MAXDVSW                               #  NO MAXDV CASES IN UNIT.
002209:
002210: 00,3116           52123                           DXCH     VBUF                                  #  PREPARE X COMPONENT FOR DIVIDE, SETTING
002211: 00,3117           52155                           DXCH     MPAC                                  #  LENGTH OF VECTOR AS DIVISOR IN BUF.
002212: 00,3120           52131                           DXCH     BUF
002213: 00,3121           03151                           TC       UNITDV
002214:
002215: 00,3122           52125                           DXCH     VBUF       +2                         #  DO Y AND Z IN USUAL FASHION SO WE CAN
002216: 00,3123           52155                           DXCH     MPAC                                  #  EXIT THROUGH VROTATEX.
002217: 00,3124           52160                           DXCH     MPAC       +3
002218: 00,3125           03151                           TC       UNITDV
002219:
002220: 00,3126           52127                           DXCH     VBUF       +4
002221: 00,3127           52155                           DXCH     MPAC
002222: 00,3130           52162                           DXCH     MPAC       +5
002223: 00,3131           03151                           TC       UNITDV
002224: 00,3132           17372                           TCF      VROTATEX                              #  AND EXIT.
002225:
002226:                                                                                                  #           IF THE LENGTH OF THE ARGUMENT VECTOR WAS LESS THAN 2(-28), EACH COMPONENT MUST BE SHIFTED LEFT AT LEAST
002227:                                                                                                  #  14 PLACES BEFORE THE DIVIDE. NOTE THAT IN THIS CASE, THE MAJOR PART OF EACH COMPONENT IS ZERO.
002228:
002229: 00,3133           54135        SMALL              TS       MPTEMP                                #  NEGATIVE OF PRE-DIVIDE SHIFT COUNT.
002230:
002231: 00,3134           35030                           CAF      ZERO                                  #  SHIFT EACH COMPONENT LEFT 14.
002232: 00,3135           56123                           XCH      VBUF       +1
002233: 00,3136           56122                           XCH      VBUF
002234: 00,3137           56125                           XCH      VBUF       +3
002235: 00,3140           56124                           XCH      VBUF       +2
002236: 00,3141           56127                           XCH      VBUF       +5
002237: 00,3142           56126                           XCH      VBUF       +4
002238:
002239: 00,3143           40135                           CS       MPTEMP
002240: 00,3144           50000                           INDEX    A
002241: 00,3145           35011                           CAF      BIT14
002242: 00,3146           00006                           EXTEND
002243: 00,3147           70154                           MP       MPAC
002244: 00,3150           13062                           TCF      SMALL2
002245:
002246: 00,3151     5034               THIRTEEN           =        OCT15
002247: 00,3151     4331               FOURTEEN           =        OCT16
002248: 00,3151     4331               OCT16              =        R1D1
002249:
002250:                                                                                                  #           THE FOLLOWING ROUTINE SETS UP THE CALL TO THE DIVIDE ROUTINES.
002251:
002252: 00,3151           10154        UNITDV             CCS      MPAC                                  #  FORCE MPAC POSITIVE IF POSSIBLE, SETTING
002253: 00,3152           13170                           TCF      UMPAC+                                #  DVSIGN ACCORDING TO THE SIGN OF MPAC
002254: 00,3153           13155                           TCF      +2                                    #  SINCE THE DIVISOR IS ALWAYS POSITIVE
002255: 00,3154           13162                           TCF      UMPAC-                                #  HERE.
002256:
002257: 00,3155           10155                           CCS      MPAC       +1
002258: 00,3156           13170                           TCF      UMPAC+
002259: 00,3157           00002                           TC       Q                                     #  EXIT IMMEDIATELY ON ZERO.
002260: 00,3160           13162                           TCF      UMPAC-
002261: 00,3161           00002                           TC       Q
002262:
002263: 00,3162           45030        UMPAC-             CS       ZERO                                  #  IF NEGATIVE, SET -0 IN DVSIGN FOR FINAL
002264: 00,3163           54136                           TS       DVSIGN                                #  COMPLEMENT.
002265: 00,3164           00006                           EXTEND
002266: 00,3165           40155                           DCS      MPAC                                  #  PICK UP ABSOLUTE VALUE OF ARG AND JUMP.
002267: 00,3166           50135                           INDEX    MPTEMP
002268: 00,3167           12564                           TCF      MAXTEST    -1
002269:
002270: 00,3170           54136        UMPAC+             TS       DVSIGN                                #  SET DVSIGN FOR POSITIVE QUOTIENT.
002271: 00,3171           52155                           DXCH     MPAC
002272: 00,3172           50135                           INDEX    MPTEMP
002273: 00,3173           12564                           TCF      MAXTEST    -1
002274:
002275:                                                                                                  #           MISCELLANEOUS UNARY OPERATIONS.
002276:
002277: 00,3174           03300        DSQ                TC       DSQSUB                                #  SQUARE THE DP CONTENTS OF MPAC.
002278: 00,3175           16035                           TCF      DANZIG
002279:
002280: 00,3176           10163        ABVALABS           CCS      MODE                                  #  ABVAL OR ABS INSTRUCTION.
002281: 00,3177           13226                           TCF      ABS                                   #  DO ABS ON SCALAR.
002282: 00,3200           13226                           TCF      ABS
002283:
002284: 00,3201           03317        ABVAL              TC       VSQSUB                                #  DOT MPAC WITH ITSELF.
002285: 00,3202           22163                           LXCH     MODE                                  #  MODE IS NOW DP (L ZERO AFTER DAS).
002286:
002287: 00,3203           00006                           EXTEND                                         #  STORE SQUARE OF LENGTH IN WORK AREA.
002288: 00,3204           30155                           DCA      MPAC
002289: 00,3205           50120                           INDEX    FIXLOC
002290: 00,3206           52043                           DXCH     LVSQUARE
002291:
002292:                                                                                                  #  PROGRAM DESCRIPTION- SUBROUTINE SQRT
002293:                                                                                                  #  FUNCTIONAL DESCRIPTION-DOUBLE PRECISION SQUARE ROOT ROUTINE
002294:                                                                                                  #      THIS PROGRAM TAKES THE SQUARE ROOT OF THE 27 OR 28 MOST SIGNIFICANT BITS IN THE TRIPLE PRECISION SET OF
002295:                                                                                                  #      NUMBERS-MPAC,MPAC+1,AND MPAC+2.  THE ROOT IS RETURNED DOUBLE        PRECISION IN MPAC AND MPAC+1.
002296:                                                                                                  #  WARNING- THIS SUBROUTINE USES A TRIPLE PRECISION INPUT. THE PROGRAMMER  MUST ASSURE THE CONTENTS OF MPAC+2
002297:                                                                                                  #      ESPECIALLY IF THE CONTENTS OF MPAC IS SMALL OR ZERO.  FOR DETAILS SEE STG MEMO NO.949.
002298:                                                                                                  #  CALLING SEQUENCE- IN INTERPRETIVE MODE I.E., FOLLOWING TC  INTPRET,SQRT   NO ADDRESS IS ALLOWED
002299:                                                                                                  #  INPUT SCALING  THE BINARY POINT IS ASSUMED TO THE RIGHT OF BIT 15. THE  ANSWER IS RETURNED WITH THE SAME SCALING
002300:                                                                                                  #  SUBROUTINES- GENSCR,MPACSHR, SQRTSUB,ABORT
002301:                                                                                                  #  ABORT EXIT MODE- ABORTS ON NEGATIVE INPUT -1.2X10E-4 (77775  OCTAL)     OR LESS.
002302:                                                                                                  #      DISPLAYS ERROR CODE 1302
002303:                                                                                                  #                  TC   ABORT
002304:                                                                                                  #                  OCT  1302
002305:                                                                                                  #  DEBRIS -  LOCATIONS BUF,MPTEMP,ADDRWD ARE USED
002306: 00,3207           03343        SQRT               TC       SQRTSUB                               #  TAKE THE SQUARE ROOT OF MPAC.
002307: 00,3210           10135                           CCS      MPTEMP                                #  RETURNED NORMALIZED SQUARE ROOT. SEE IF
002308: 00,3211           13213                           TCF      +2                                    #  ANY UN-NORMALIZATION REQUIRED AND EXIT
002309: 00,3212           16035                           TCF      DANZIG                                #  IF NOT.
002310:
002311: 00,3213           63726                           AD       NEG12                                 #  A RIGHT SHIFT OF MORE THAN 13 COULD BE
002312: 00,3214           00006                           EXTEND                                         #  REQUIRED IF INPUT WAS ZERO IN MPAC,+1.
002313: 00,3215           63221                           BZMF     SQRTSHFT                              #  GOES HERE IN MOST CASES.
002314: 00,3216           22007                           ZL                                             #  IF A LONG SHIFT IS REQUIRED, GO TO
002315: 00,3217           22116                           LXCH     ADDRWD                                #  GENERAL RIGHT SHIFT ROUTINES.
002316: 00,3220           12303                           TCF      GENSCR     +4                         #  ADDRWD WAS ZERO TO PREVENT ROUND.
002317:
002318: 00,3221           50135        SQRTSHFT           INDEX    MPTEMP                                #  SELECT SHIFTING BIT AND EXIT THROUGH
002319: 00,3222           35010                           CAF      BIT15                                 #  SHIFT ROUTINES.
002320: 00,3223           54135                           TS       MPTEMP
002321: 00,3224           35030                           CAF      ZERO                                  #  TO ZERO MPAC +2 IN THE PROCESS.
002322: 00,3225           12036                           TCF      MPACSHR    +3
002323:
002324: 00,3226           06677        ABS                TC       BRANCH                                #  TEST SIGN OF MPAC AND COMPLEMENT IF
002325: 00,3227           16035                           TCF      DANZIG
002326: 00,3230           16035                           TCF      DANZIG
002327: 00,3231           17642                           TCF      COMP
002328:
002329: 00,3232           45024        VDEF               CS       FOUR                                  #  VECTOR DEFINE - ESSENTIALLY TREATS
002330: 00,3233           26166                           ADS      PUSHLOC                               #  SCALAR IN MPAC AS X COMPONENT, PUSHES UP
002331: 00,3234           00006                           EXTEND                                         #  FOR Y AND THEN AGAIN FOR Z.
002332: 00,3235           50000                           INDEX    A
002333: 00,3236           30003                           DCA      2
002334: 00,3237           52160                           DXCH     MPAC       +3
002335: 00,3240           00006                           EXTEND
002336: 00,3241           50166                           INDEX    PUSHLOC
002337: 00,3242           30001                           DCA      0
002338: 00,3243           52162                           DXCH     MPAC       +5
002339: 00,3244           16475                           TCF      VMODE                                 #  MODE IS NON VECTOR.
002340:
002341: 00,3245           03317        VSQ                TC       VSQSUB                                #  DOT MPAC WITH ITSELF.
002342: 00,3246           17304                           TCF      DMODE                                 #  MODE IS NOW DP.
002343:
002344: 00,3247           00006        PUSH               EXTEND                                         #  PUSH DOWN MPAC LEAVING IT LOADED.
002345: 00,3250           30155                           DCA      MPAC
002346: 00,3251           50166                           INDEX    PUSHLOC                               #  PUSH DOWN FIRST TWO REGISTERS IN EACH
002347: 00,3252           52001                           DXCH     0
002348:
002349: 00,3253           50163                           INDEX    MODE                                  #  INCREMENT PUSHDOWN POINTER.
002350: 00,3254           36220                           CAF      NO.WDS
002351: 00,3255           26166                           ADS      PUSHLOC
002352:
002353: 00,3256           10163                           CCS      MODE
002354: 00,3257           13272                           TCF      TPUSH                                 #  PUSH DOWN MPAC +2.
002355: 00,3260           16035                           TCF      DANZIG                                #  DONE FOR DP.
002356:
002357: 00,3261           00006                           EXTEND                                         #  ON VECTOR, PUSH DOWN Y AND Z COMPONENTS.
002358: 00,3262           30160                           DCA      MPAC       +3
002359: 00,3263           50166                           INDEX    PUSHLOC
002360: 00,3264           51775                           DXCH     0          -4
002361: 00,3265           00006                           EXTEND
002362: 00,3266           30162                           DCA      MPAC       +5
002363: 00,3267           50166                           INDEX    PUSHLOC
002364: 00,3270           51777                           DXCH     0          -2
002365: 00,3271           16035                           TCF      DANZIG
002366:
002367: 00,3272           30156        TPUSH              CA       MPAC       +2
002368: 00,3273           16530                           TCF      ENDTPUSH   +2
002369:
002370: 00,3274           50120        RVQ                INDEX    FIXLOC                                #  RVQ - RETURN IVA QPRET.
002371: 00,3275           30052                           CA       QPRET
002372: 00,3276           54117                           TS       POLISH
002373: 00,3277           16626                           TCF      GOTO       +4                         #  (ASSUME QPRET POINTS TO FIXED ONLY.)
002374:
002375:                                                                                                  #           THE FOLLOWING SUBROUTINES ARE USED IN SQUARING MPAC, IN BOTH THE SCALAR AND VECTOR SENSE. THEY ARE
002376:                                                                                                  #  SPECIAL CASES OF DMPSUB AND DOTSUB, PUT IN TO SAVE SOME TIME.
002377:
002378: 00,3300           30155        DSQSUB             CA       MPAC       +1                         #  SQUARES THE SCALAR CONTENTS OF MPAC.
002379: 00,3301           00006                           EXTEND
002380: 00,3302           70000                           SQUARE
002381: 00,3303           54156                           TS       MPAC       +2
002382: 00,3304           35030                           CAF      ZERO                                  #  FORM 2(CROSS TERM).
002383: 00,3305           56155                           XCH      MPAC       +1
002384: 00,3306           00006                           EXTEND
002385: 00,3307           70154                           MP       MPAC
002386: 00,3310           20001                           DDOUBL                                         #  AND MAYBE OVERFLOW.
002387: 00,3311           20156                           DAS      MPAC       +1                         #  AND SET A TO NET OVERFLOW.
002388: 00,3312           56154                           XCH      MPAC
002389: 00,3313           00006                           EXTEND
002390: 00,3314           70000                           SQUARE
002391: 00,3315           20155                           DAS      MPAC
002392: 00,3316           00002                           TC       Q
002393:
002394: 00,3317           00006        VSQSUB             EXTEND                                         #  DOTS THE VECTOR IN MPAC WITH ITSELF.
002395: 00,3320           22137                           QXCH     DOTRET
002396: 00,3321           03300                           TC       DSQSUB                                #  SQUARE THE X COMPONENT.
002397: 00,3322           52160                           DXCH     MPAC       +3
002398: 00,3323           52155                           DXCH     MPAC
002399: 00,3324           52131                           DXCH     BUF                                   #  SO WE CAN END IN DOTSUB.
002400: 00,3325           30156                           CA       MPAC       +2
002401: 00,3326           54132                           TS       BUF        +2
002402:
002403: 00,3327           03300                           TC       DSQSUB                                #  SQUARE Y COMPONENT.
002404: 00,3330           52156                           DXCH     MPAC       +1
002405: 00,3331           20132                           DAS      BUF        +1
002406: 00,3332           60154                           AD       MPAC
002407: 00,3333           60130                           AD       BUF
002408: 00,3334           54130                           TS       BUF
002409: 00,3335           13337                           TCF      +2
002410: 00,3336           54121                           TS       OVFIND                                #  IF OVERFLOW.
002411:
002412: 00,3337           52162                           DXCH     MPAC       +5
002413: 00,3340           52155                           DXCH     MPAC
002414: 00,3341           03300                           TC       DSQSUB                                #  SQUARE Z COMPONENT.
002415: 00,3342           17161                           TCF      ENDDOT                                #  END AS IN DOTSUB.
002416:
002417:                                                                                                  #           DOUBLE PRECISION SQUARE ROOT ROUTINE. TAKE THE SQUARE ROOT OF THE TRIPLE PRECISION (MPAC +2 USED ONLY
002418:                                                                                                  #  IN NORMALIZATION) CONTENTS OF MPAC AND LEAVE THE NORMALIZED RESULT IN MPAC (C(MPAC) GREATER THAN OR EQUAL TO
002419:                                                                                                  #  .5). THE RIGHT SHIFT COUNT (TO UNNORMALIZE) IS LEFT IN MPTEMP.
002420:
002421:
002422: 00,3343           35030        SQRTSUB            CAF      ZERO                                  #  START BY ZEROING RIGHT SHIFT COUNT.
002423: 00,3344           54135                           TS       MPTEMP
002424:
002425: 00,3345           10154                           CCS      MPAC                                  #  CHECK FOR POSITIVE ARGUMENT, SHIFTING
002426: 00,3346           13404                           TCF      SMPAC+                                #  FIRST SIGNIFICANT MPAC REGISTER INTO
002427: 00,3347           13351                           TCF      +2                                    #  MPAC ITSELF.
002428: 00,3350           13373                           TCF      SQRTNEG                               #  SEE IF MAG OF ARGUMENT LESS THAN 10(-4).
002429:
002430: 00,3351           56156                           XCH      MPAC       +2                         #  MPAC IS ZERO - SHIFT LEFT 14.
002431: 00,3352           56155                           XCH      MPAC       +1
002432: 00,3353           54154                           TS       MPAC
002433: 00,3354           35032                           CAF      SEVEN                                 #  AUGMENT RIGHT SHIFT COUNTER.
002434: 00,3355           54135                           TS       MPTEMP
002435:
002436: 00,3356           10154                           CCS      MPAC                                  #  SEE IF MPAC NOW PNZ.
002437: 00,3357           13404                           TCF      SMPAC+
002438: 00,3360           13362                           TCF      +2
002439: 00,3361           13376                           TCF      ZEROANS                               #  NEGATIVE BUT LESS THAN 10(-4) IN MAG.
002440:
002441: 00,3362           56155                           XCH      MPAC       +1                         #  ZERO - SHIFT LEFT 14 AGAIN.
002442: 00,3363           54154                           TS       MPAC
002443: 00,3364           35032                           CAF      SEVEN                                 #  AUGMENT RIGHT SHIFT COUNTER.
002444: 00,3365           26135                           ADS      MPTEMP
002445:
002446: 00,3366           10154                           CCS      MPAC
002447: 00,3367           13404                           TCF      SMPAC+
002448: 00,3370           00002                           TC       Q                                     #  SQRT(0) = 0.
002449: 00,3371           13376                           TCF      ZEROANS
002450: 00,3372           13452                           TCF      FIXROOT                               #  DO NOT LEAVE SQRTSUB WITH -0 IN MPAC.
002451:
002452:
002453: 00,3373           10000        SQRTNEG            CCS      A                                     #  ARGUMENT IS NEGATIVE, BUT SEE IF SIGN-
002454: 00,3374           13402                           TCF      SQRTABRT                              #  CORRECTED ARGUMENT IS LESS THAN 10(-4)
002455:
002456: 00,3375           10155                           CCS      MPAC       +1                         #  IN MAGNITUDE. IF SO, CALL ANSWER ZERO.
002457: 00,3376           35030        ZEROANS            CAF      ZERO                                  #  FORCE ANSWER TO ZERO HERE.
002458: 00,3377           13452                           TCF      FIXROOT
002459: 00,3400           13402                           TCF      SQRTABRT
002460: 00,3401           13452                           TCF      FIXROOT
002461:
002462: 00,3402           05713        SQRTABRT           TC       ABORT
002463: 00,3403           01302                           OCT      1302
002464:
002465: 00,3404           62444        SMPAC+             AD       -1/2+2                                #  SEE IF ARGUMENT GREATER THAN OR EQUAL TO
002466: 00,3405           00006                           EXTEND                                         #  .5.
002467: 00,3406           63455                           BZMF     SRTEST                                #  IF SO, SEE IF LESS THAN .25.
002468:
002469: 00,3407           52155                           DXCH     MPAC                                  #  WE WILL TAKE THE SQUARE ROOT OF MPAC/2.
002470: 00,3410           22021                           LXCH     SR                                    #  SHIFT RIGHT 1 AND GO TO THE SQRT ROUTINE
002471: 00,3411           00006                           EXTEND
002472: 00,3412           75011                           MP       HALF
002473: 00,3413           52155                           DXCH     MPAC
002474: 00,3414           56021                           XCH      SR
002475: 00,3415           26155                           ADS      MPAC       +1                         #  GUARANTEED NO OVERFLOW.
002476:
002477: 00,3416           32314        ARGHI              CAF      SLOPEHI                               #  ARGUMENT BETWEEN .25 AND .5. GET A
002478: 00,3417           00006                           EXTEND                                         #  LINEAR APPROXIMATION FOR THIS RANGE.
002479: 00,3420           70154                           MP       MPAC
002480: 00,3421           62566                           AD       BIASHI                                #  X0/2 = (MPAC/2)(SLOPEHI) + BIASHI/2.
002481:
002482: 00,3422           54130                 +4        TS       BUF                                   #  X0/2 (ARGLO ENTERS HERE).
002483: 00,3423           30154                           CA       MPAC                                  #  SINGLE-PRECISION THROUGHOUT.
002484: 00,3424           22007                           ZL
002485: 00,3425           00006                           EXTEND
002486: 00,3426           10130                           DV       BUF                                   #  (MPAC/2)/(X0/2)
002487: 00,3427           00006                           EXTEND
002488: 00,3430           75011                           MP       HALF
002489: 00,3431           26130                           ADS      BUF                                   #  X1 = X0/2 + .5(MPAC/2)/(X0/2).
002490:
002491: 00,3432           00006                           EXTEND
002492: 00,3433           75011                           MP       HALF                                  #  FORM UP X1/2.
002493: 00,3434           52155                           DXCH     MPAC                                  #  SAVE AND BRING OUT ARGUMENT.
002494: 00,3435           00006                           EXTEND                                         #  TAKE DP QUOTIENT WITH X1.
002495: 00,3436           10130                           DV       BUF
002496: 00,3437           54131                           TS       BUF        +1                         #  SAVE MAJOR PART OF QUOTIENT.
002497: 00,3440           35030                           CAF      ZERO                                  #  FORM MINOR PART OF QUOTIENT USING
002498: 00,3441           56001                           XCH      L                                     #  (REMAINDER,0).
002499: 00,3442           00006                           EXTEND
002500: 00,3443           10130                           DV       BUF
002501: 00,3444           54001                           TS       L                                     #  IN PREPARATION FOR DAS.
002502: 00,3445           30131                           CA       BUF        +1
002503: 00,3446           20155                           DAS      MPAC                                  #  X2 = X1/2 + (MPAC/2)X1
002504:
002505: 00,3447           00006                           EXTEND                                         #  OVERFLOWS IF ARG. NEAR POSMAX.
002506: 00,3450           13454                           BZF      TCQBNK00
002507: 00,3451           35006                           CAF      POSMAX
002508: 00,3452           54154        FIXROOT            TS       MPAC
002509: 00,3453           54155                           TS       MPAC       +1
002510: 00,3454           00002        TCQBNK00           TC       Q                                     #  RETURN TO CALLER TO UNNORMALIZE, ETC.
002511:
002512: 00,3455           65012        SRTEST             AD       QUARTER                               #  ARGUMENT WAS LESS THAN .5, SEE IF LESS
002513: 00,3456           00006                           EXTEND                                         #  THAN .25.
002514: 00,3457           63501                           BZMF     SQRTNORM                              #  IF SO, BEGIN NORMALIZATION.
002515:
002516: 00,3460           52155                           DXCH     MPAC                                  #  IF BETWEEN .5 AND .25, SHIFT RIGHT 1 AND
002517: 00,3461           22021                           LXCH     SR                                    #  START AT ARGLO.
002518: 00,3462           00006                           EXTEND
002519: 00,3463           75011                           MP       HALF
002520: 00,3464           52155                           DXCH     MPAC
002521: 00,3465           56021                           XCH      SR
002522: 00,3466           26155                           ADS      MPAC       +1                         #  NO OVERFLOW.
002523:
002524: 00,3467           33007        ARGLO              CAF      SLOPELO                               #  (NORMALIZED) ARGUMENT BETWEEN .125 AND
002525: 00,3470           00006                           EXTEND                                         #  .25
002526: 00,3471           70154                           MP       MPAC
002527: 00,3472           62270                           AD       BIASLO
002528: 00,3473           13422                           TCF      ARGHI      +4                         #  BEGIN SQUARE ROOT.
002529:
002530: 00,3474           00006        SQRTNM2            EXTEND                                         #  SHIFT LEFT 2 AND INCREMENT RIGHT SHIFT
002531: 00,3475           30156                           DCA      MPAC       +1                         #  COUNT (FOR TERMINAL UNNORMALIZATION).
002532: 00,3476           20156                           DAS      MPAC       +1
002533: 00,3477           60154                           AD       MPAC
002534: 00,3500           26154                           ADS      MPAC                                  #  (NO OVERFLOW).
002535:
002536: 00,3501           24135        SQRTNORM           INCR     MPTEMP                                #  FIRST TIME THROUGH, JUST SHIFT LEFT 1
002537: 00,3502           00006                           EXTEND                                         #  (PUTS IN EFFECTIVE RIGHT SHIFT SINCE
002538: 00,3503           30156                           DCA      MPAC       +1                         #  WE WANT MPAC/2).
002539: 00,3504           20156                           DAS      MPAC       +1
002540: 00,3505           60154                           AD       MPAC
002541: 00,3506           26154                           ADS      MPAC                                  #  (AGAIN NO OVERFLOW).
002542: 00,3507           60000                           DOUBLE
002543: 00,3510           54022                           TS       CYL
002544:
002545: 00,3511           10022        NORMTEST           CCS      CYL                                   #  SEE IF ARGUMENT NOW NORMALIZED AT
002546: 00,3512           10022                           CCS      CYL                                   #  GREATER THAN .125.
002547: 00,3513           13474                           TCF      SQRTNM2                               #  NO - SHIFT LEFT 2 MORE AND TRY AGAIN.
002548: 00,3514           13416                           TCF      ARGHI                                 #  YES - NOW BETWEEN .5 AND .25.
002549: 00,3515           13467                           TCF      ARGLO                                 #  ARGUMENT NOW BETWEEN .25 AND .125.
002550:
002551:                                                                                                  #  TRIGONOMETRIC FUNCTION PACKAGE.
002552:
002553:                                                                                                  #           THE FOLLOWING TRIGONOMETRIC FUNCTIONS ARE AVAILABLE AS INTERPRETIVE OPERATIONS:
002554:
002555:                                                                                                  #           1.  SIN                COMPUTES (1/2)SINE(2 PI MPAC).
002556:                                                                                                  #           2.  COS                COMPUTES (1/2)COSINE(2 PI MPAC).
002557:
002558:                                                                                                  #           3.  ASIN               COMPUTES (1/2PI)ARCSINE(2 MPAC).
002559:                                                                                                  #           4.  ACOS               COMPUTES (1/2PI)ARCCOSINE(2 MPAC).
002560:
002561:                                                                                                  #  SIN-ASIN AND COS-ACOS ARE MUTUALLY INVERSE, IE SIN(ASIN(X)) = X.
002562:
002563:
002564: 00,3516           06677        COSINE             TC       BRANCH                                #  FINDS COSINE USING THE IDENTITY
002565: 00,3517           13522                           TCF      +3                                    #  COS(X) = SIN(PI/2 - ABS(X)).
002566: 00,3520           13525                           TCF      PRESINE
002567: 00,3521           13525                           TCF      PRESINE
002568:
002569: 00,3522           00006                 +3        EXTEND
002570: 00,3523           40155                           DCS      MPAC
002571: 00,3524           52155                           DXCH     MPAC
002572:
002573: 00,3525           35012        PRESINE            CAF      QUARTER                               #  PI/2 SCALED.
002574: 00,3526           26154                           ADS      MPAC
002575:
002576:
002577: 00,3527           52155        SINE               DXCH     MPAC                                  #  DOUBLE ARGUMENT.
002578: 00,3530           20001                           DDOUBL
002579: 00,3531           54000                           OVSK                                           #  SEE IF OVERFLOW PRESENT.
002580: 00,3532           13535                           TCF      +3                                    #  IF NOT, ARGUMENT OK AS IS.
002581:
002582: 00,3533           00006                           EXTEND                                         #  IF SO, WE LOST (OR GAINED) PI, SO
002583: 00,3534           40001                           DCOM                                           #  COMPLEMENT MPAC USING THE IDENTITY
002584:                                                                                                  #  SIN(X-(+)PI) = SIN(-X).
002585: 00,3535           52155                 +3        DXCH     MPAC
002586: 00,3536           30154                           CA       MPAC                                  #  SEE IF ARGUMENT GREATER THAN .5 IN
002587: 00,3537           60000                           DOUBLE                                         #  MAGNITUDE. IF SO, REDUCE IT TO LESS THAN
002588: 00,3540           54001                           TS       L                                     #  .5 (+-PI/2 SCALED) AS FOLLOWS:
002589: 00,3541           13552                           TCF      SN1
002590:
002591: 00,3542           50000                           INDEX    A                                     #  IF POSITIVE, FORM PI - X, IF NEGATIVE
002592: 00,3543           35010                           CAF      NEG1/2     +1                         #  USE -PI - X.
002593: 00,3544           60000                           DOUBLE
002594: 00,3545           00006                           EXTEND
002595: 00,3546           60154                           SU       MPAC                                  #  GUARANTEED NO OVERFLOW.
002596: 00,3547           54154                           TS       MPAC
002597: 00,3550           40155                           CS       MPAC       +1
002598: 00,3551           54155                           TS       MPAC       +1
002599:
002600: 00,3552           00006        SN1                EXTEND                                         #  SET UP TO EVALUATE HASTINGS POLYNOMIAL
002601: 00,3553           30155                           DCA      MPAC
002602: 00,3554           52134                           DXCH     BUF2
002603: 00,3555           03300                           TC       DSQSUB                                #  SQUARE MPAC.
002604:
002605: 00,3556           07176                           TC       POLY                                  #  EVALUATE FOURTH ORDER POLYNOMIAL.
002606: 00,3557           00003                           DEC      3          B-14
002607: 00,3560           14441 37325                     2DEC     +.3926990796
002608:
002609: 00,3562           53250 60764                     2DEC     -.6459637111
002610:
002611: 00,3564           12146 21276                     2DEC     +.318758717
002612:
002613: 00,3566           75466 71471                     2DEC     -.074780249
002614:
002615: 00,3570           00236 32757                     2DEC     +.009694988
002616:
002617: 00,3572           32470                           CAF      LBUF2                                 #  MULTIPLY BY ARGUMENT AND SHIFT LEFT 2.
002618: 00,3573           07062                           TC       DMPSUB     -1
002619:
002620: 00,3574           00006                           EXTEND
002621: 00,3575           30156                           DCA      MPAC       +1
002622: 00,3576           20156                           DAS      MPAC       +1
002623: 00,3577           60154                           AD       MPAC
002624: 00,3600           26154                           ADS      MPAC                                  #  NEITHER SHIFT OVERFLOWS.
002625: 00,3601           00006                           EXTEND
002626: 00,3602           30156                           DCA      MPAC       +1
002627: 00,3603           20156                           DAS      MPAC       +1
002628: 00,3604           60154                           AD       MPAC
002629: 00,3605           26154                           ADS      MPAC
002630: 00,3606           16035                           TCF      DANZIG
002631:
002632:                                                                                                  #           ARCSIN/ARCCOS ROUTINE.
002633:
002634: 00,3607           33630        ARCSIN             CAF      LASINEX                               #  COMPUTE ARCSIN BY USING THE IDENTITY
002635: 00,3610           13612                           TCF      +2                                    #  ARCSIN(X) = PI/2 - ARCCOS(X).
002636:
002637: 00,3611           33712        ARCCOS             CAF      LDANZIG                               #  (EXITS IMMEDIATELY).
002638: 00,3612           54136                           TS       ESCAPE
002639: 00,3613           06677                           TC       BRANCH                                #  TEST SIGN OF INPUT.
002640: 00,3614           13624                           TCF      ACOSST                                #  START IMMEDIATELY IF POSITIVE.
002641: 00,3615           13724                           TCF      ACOSZERO                              #  ARCCOS(0) = PI/2 = .25.
002642: 00,3616           00006                           EXTEND                                         #  IF NEGATIVE, USE THE IDENTITY
002643: 00,3617           40155                           DCS      MPAC                                  #  ARCCOS(X) = PI - ARCCOS(-X), FORCING
002644: 00,3620           52155                           DXCH     MPAC                                  #  ARGUMENT POSITIVE.
002645: 00,3621           33727                           CAF      TCSUBTR                               #  SET EXIT  TO DO ABOVE BEFORE
002646: 00,3622           56136                           XCH      ESCAPE                                #  ARCSIN/ARCCOS CONSIDERATIONS.
002647: 00,3623           54137                           TS       ESCAPE2
002648:
002649: 00,3624           45011        ACOSST             CS       HALF                                  #  TEST MAGNITUDE OF INPUT.
002650: 00,3625           60154                           AD       MPAC
002651: 00,3626           10000                           CCS      A
002652: 00,3627           13720                           TCF      ACOSOVF                               #  THIS IS PROBABLY AN OVERFLOW CASE.
002653:
002654: 00,3630           13706        LASINEX            TCF      ASINEX
002655:
002656: 00,3631           13641                           TCF      ACOSST2                               #  NO OVERFLOW - PROCEED.
002657:
002658: 00,3632           10155                           CCS      MPAC       +1                         #  IF MAJOR PART IS .5, CALL ANSWER 0
002659: 00,3633           35030                           CAF      ZERO                                  #  UNLESS MINOR PART NEGATIVE.
002660: 00,3634           13636                           TCF      ACOS=0
002661:
002662: 00,3635           13641                           TCF      ACOSST2
002663:
002664: 00,3636           54155        ACOS=0             TS       MPAC       +1
002665: 00,3637           54154                           TS       MPAC
002666: 00,3640           00136                           TC       ESCAPE
002667:
002668: 00,3641           00006        ACOSST2            EXTEND                                         #  NOW THAT ARGUMENT IS IN PROPER RANGE,
002669: 00,3642           40155                           DCS      MPAC                                  #  BEGIN COMPUTATION. USE HASTINGS
002670: 00,3643           65011                           AD       HALF                                  #  APPROXIMATION ARCCOS(X) = SQRT(1-X)P(X)
002671: 00,3644           52155                           DXCH     MPAC                                  #  IN A SCALED VERSION WHERE P(X) IS A
002672: 00,3645           52134                           DXCH     BUF2                                  #  SEVENTH ORDER POLYNOMIAL.
002673:
002674: 00,3646           03343                           TC       SQRTSUB                               #  RETURNS WITH NORMALIZED SQUARE ROOT.
002675:
002676: 00,3647           10135                           CCS      MPTEMP                                #  SEE IF UN-NORMALIZATION REQUIRED.
002677: 00,3650           13713                           TCF      ACOSSHR                               #  IF SO.
002678:
002679: 00,3651           52155        ACOS3              DXCH     MPAC                                  #  SET UP FOR POLYNOMIAL EVALUATION.
002680: 00,3652           52134                           DXCH     BUF2
002681: 00,3653           52155                           DXCH     MPAC
002682:
002683: 00,3654           07176                           TC       POLY
002684: 00,3655           00006                           DEC      6          B-14
002685: 00,3656           13240 23630                     2DEC     +.353553385                            #  COEFFICIENTS ARE C 2(+I)/PISQRT(2) WHERE
002686:
002687: 00,3660           74721 47775                     2DEC*    -.0483017006 B+1*                       #                  I
002688:
002689: 00,3662           02440 20237                     2DEC*    +.0200273085 B+2*                       #     WHERE C STANDS FOR ORIGINAL COEFFS.
002690:
002691: 00,3664           75067 70742                     2DEC*    -.0112931863 B+3*
002692:
002693: 00,3666           03436 26756                     2DEC*    +.00695311612 B+4*
002694:
002695: 00,3670           74037 57640                     2DEC*    -.00384617957 B+5*
002696:
002697: 00,3672           03046 07143                     2DEC*    +.001501297736 B+6*
002698:
002699: 00,3674           76654 42244                     2DEC*    -.000284160334 B+7*
002700:
002701:
002702: 00,3676           32470                           CAF      LBUF2                                 #  DO FINAL MULTIPLY AND GO TO ANY
002703: 00,3677           07062                           TC       DMPSUB     -1                         #  EPILOGUE SEQUENCES.
002704: 00,3700           00136                           TC       ESCAPE
002705:
002706: 00,3701           00006        SUBTR              EXTEND                                         #  EPILOGUE FOR NEGATIVE INPUTS TO ARCCOS.
002707: 00,3702           40155                           DCS      MPAC
002708: 00,3703           65011                           AD       HALF                                  #  FORMS PI - ARCCOS(-X) = ARCCOS(X).
002709: 00,3704           52155                           DXCH     MPAC
002710: 00,3705           00137                           TC       ESCAPE2                               #  GO TO POSSIBLE ARCSIN EPILOGUE.
002711:
002712: 00,3706           00006        ASINEX             EXTEND
002713: 00,3707           40155                           DCS      MPAC                                  #  ARCSIN EPILOGUE - GET ARCSIN(X)
002714: 00,3710           65012                           AD       QUARTER                               #  = PI/2 - ARCCOS(X).
002715: 00,3711           52155                           DXCH     MPAC
002716: 00,3712           16035        LDANZIG            TCF      DANZIG
002717:
002718: 00,3713           50000        ACOSSHR            INDEX    A                                     #  THE SHIFT RIGHT IS LESS THAN 14 SINCE
002719: 00,3714           35011                           CAF      BIT14                                 #  THE INPUT WAS NON-ZERO DP.
002720: 00,3715           54135                           TS       MPTEMP
002721: 00,3716           02073                           TC       VSHRRND                               #  DP SHIFT RIGHT AND ROUND.
002722: 00,3717           13651                           TCF      ACOS3                                 #  PROCEED.
002723:
002724: 00,3720           00006        ACOSOVF            EXTEND                                         #  IF MAJOR PART WAS ONLY 1 MORE THAN .5,
002725: 00,3721           13636                           BZF      ACOS=0                                #  CALL ANSWER ZERO.
002726:
002727: 00,3722           05713        ACOSABRT           TC       ABORT
002728: 00,3723           01301                           OCT      1301
002729:
002730: 00,3724           35012        ACOSZERO           CAF      QUARTER                               #  ACOS(0) = PI/2.
002731: 00,3725           13637                           TCF      ACOS=0     +1                         #  SET MPAC AND EXIT VIA ESCAPE.
002732:
002733: 00,3726           77763        NEG12              DEC      -12        B-14
002734: 00,3727           13701        TCSUBTR            TCF      SUBTR
002735:
002736:                                                                                                  #           THE FOLLOWING INSTRUCTIONS ARE AVAILABLE FOR SETTING, MODIFYING, AND BRANCHING ON INDEX REGISTERS:
002737:
002738:                                                                                                  #           1.  AXT                ADDRESS TO INDEX TRUE.
002739:                                                                                                  #           1.  AXC                ADDRESS TO INDEX COMPLEMENTED.
002740:                                                                                                  #           3.  LXA                LOAD INDEX FROM ERASABLE.
002741:                                                                                                  #           4.  LXC                LOAD INDEX COMPLEMENTED FROM ERASABLE.
002742:                                                                                                  #           5.  SXA                STORE INDEX IN ERASABLE.
002743:                                                                                                  #           6.  XCHX               EXCHANGE INDEX REIGSTER WITH ERASABLE.
002744:
002745:                                                                                                  #           7.  INCR               INCREMENT INDEX REGISTER.
002746:                                                                                                  #           8.  XAD                ERASABLE ADD TO INDEX REGISTER.
002747:                                                                                                  #           9.  XSU                ERASABLE SUBTRACT FROM INDEX REGISTER.
002748:
002749:                                                                                                  #          10.  TIX                BRANCH ON INDEX REGISTER AND DECREMENT.
002750:
002751: 01,2165                                           BANK     01
002752:
002753: 01,2165                                           COUNT*   $$/INTER
002754: 01,2165           02262        AXT                TC       TAGSUB                                #  SELECT APPROPRIATE INDEX REGISTER.
002755: 01,2166           30117                           CA       POLISH
002756: 01,2167           50130        XSTORE             INDEX    INDEXLOC                              #  CONTAINS C(FIXLOC) OR C(FIXLOC)+1.
002757: 01,2170           54046                           TS       X1
002758: 01,2171           16035                           TCF      DANZIG
002759:
002760: 01,2172           02262        AXC                TC       TAGSUB
002761: 01,2173           40117                           CS       POLISH
002762: 01,2174           02167                           TC       XSTORE
002763:
002764: 01,2175           02250        LXA                TC       15ADRERS                              #  LOAD INDEX REGISTER FROM ERASABLE.
002765: 01,2176           50117                           INDEX    POLISH
002766: 01,2177           30000                           CA       0
002767: 01,2200           12167                           TCF      XSTORE
002768:
002769: 01,2201           02250        LXC                TC       15ADRERS                              #  LOAD NDX REG FROM ERASABLE COMPLEMENTED.
002770: 01,2202           50117                           INDEX    POLISH
002771: 01,2203           40000                           CS       0
002772: 01,2204           12167                           TCF      XSTORE
002773:
002774: 01,2205           02250        SXA                TC       15ADRERS                              #  STORE INDEX REGISTER IN ERASABLE.
002775: 01,2206           50130                           INDEX    INDEXLOC
002776: 01,2207           30046                           CA       X1
002777: 01,2210           50117        MSTORE1            INDEX    POLISH
002778: 01,2211           54000                           TS       0
002779: 01,2212           16035                           TCF      DANZIG
002780:
002781: 01,2213           02250        XCHX               TC       15ADRERS                              #  EXCHANGE INDEX REGISTER WITH ERASABLE.
002782: 01,2214           50117                           INDEX    POLISH
002783: 01,2215           30000                           CA       0
002784: 01,2216           50130                           INDEX    INDEXLOC
002785: 01,2217           56046                           XCH      X1
002786: 01,2220           12210                           TCF      MSTORE1
002787:
002788: 01,2221           02250        XAD                TC       15ADRERS                              #  ADD ERASABLE TO INDEX REGISTER.
002789: 01,2222           50117                           INDEX    POLISH
002790: 01,2223           30000                           CA       0
002791: 01,2224           50130        XAD2               INDEX    INDEXLOC
002792: 01,2225           26046                           ADS      X1                                    #  IGNORING OVERFLOWS.
002793: 01,2226           16035                           TCF      DANZIG
002794:
002795: 01,2227           02262        INCR               TC       TAGSUB                                #  INCREMENT INDEX REGISTER.
002796: 01,2230           30117                           CA       POLISH
002797: 01,2231           12224                           TCF      XAD2
002798:
002799: 01,2232           02250        XSU                TC       15ADRERS                              #  SUBTRACT ERASABLE FROM INDEX REGISTER.
002800: 01,2233           50117                           INDEX    POLISH
002801: 01,2234           40000                           CS       0
002802: 01,2235           12224                           TCF      XAD2
002803:
002804: 01,2236           02262        TIX                TC       TAGSUB                                #  BRANCH AND DECREMENT ON INDEX.
002805: 01,2237           50130                           INDEX    INDEXLOC
002806: 01,2240           40050                           CS       S1
002807: 01,2241           50130                           INDEX    INDEXLOC
002808: 01,2242           60046                           AD       X1
002809: 01,2243           00006                           EXTEND                                         #  NO OPERATION IF DECREMENTED INDEX IS
002810: 01,2244           66035                           BZMF     DANZIG                                #  NEGATIVE OR ZERO.
002811:
002812: 01,2245           50130        DOTIXBR            INDEX    INDEXLOC
002813: 01,2246           56046                           XCH      X1                                    #  IGNORING OVERFLOWS.
002814:
002815: 01,2247           16622                           TCF      GOTO                                  #  DO THE BRANCH USING THE CADR IN POLISH.
002816:
002817:                                                                                                  #           SUBROUTINE TO CONVERT AN ERASABLE ADDRESS (11 BITS) TO AN EBANK SETTING AND SUBADDRESS.
002818:
002819: 01,2250           40117        15ADRERS           CS       POLISH
002820: 01,2251           65042                           AD       DEC45
002821: 01,2252           10000                           CCS      A                                     #  DOES THE ADDRESS POINT TO THE WORK AREA?
002822: 01,2253           30120                           CA       FIXLOC                                #  YES.  ADD FIXLOC.  EBANK OK AS IS.
002823: 01,2254           12261                           TCF      +5
002824:
002825: 01,2255           35057                           CA       OCT1400                               #  NO.  SET EBANK & MAKE UP SUBADDRESS.
002826: 01,2256           56117                           XCH      POLISH
002827: 01,2257           54003                           TS       EBANK
002828: 01,2260           74371                           MASK     LOW8
002829: 01,2261           26117                 +5        ADS      POLISH                                #  FALL INTO TAGSUB, AND RETURN VIA Q.
002830:
002831:                                                                                                  #           SUBROUTINE WHICH SETS THE ADDRESS OF THE SPECIFIED INDEX IN INDEXLOC. (ACTUALLY, THE ADDRESS -38D.)
002832:
002833: 01,2262           30120        TAGSUB             CA       FIXLOC
002834: 01,2263           54130                           TS       INDEXLOC
002835:
002836: 01,2264           10020                           CCS      CYR                                   #  BIT 15 SPECIFIES INDEX.
002837: 01,2265           24130                           INCR     INDEXLOC                              #  0 MEANS USE X2.
002838: 01,2266           00002                           TC       Q
002839: 01,2267           00002                           TC       Q                                     #  1 FOR X1.
002840:
002841:                                                                                                  #           MISCELLANEOUS OPERATION CODES WITH DIRECT ADDRESSES. INCLUDED HERE ARE:
002842:
002843:                                                                                                  #           1.  ITA                STORE QPRET (RETURN ADDRESS) IN ERASABLE.
002844:                                                                                                  #           2.  CALL               CALL A SUBROUTINE, LEAVING RETURN IN QPRET.
002845:                                                                                                  #           3.  RTB                RETURN TO BASIC LANGUAGE AT THE GIVEN ADDRESS.
002846:                                                                                                  #           4.  BHIZ               BRANCH IF THE HIGH ORDER OF MPAC IS ZERO (SINGLE PRECISION).
002847:                                                                                                  #           5.  BOV                BRANCH ON OVERFLOW.
002848:                                                                                                  #           6.  GOTO               SIMPLE SEQUENCE CHANGE.
002849:
002850: 01,2270           10020        RTB/BHIZ           CCS      CYR
002851: 01,2271           30117        RTB                CA       POLISH
002852: 01,2272           14677                           TCF      BANKJUMP                              #  CALL BASIC ROUTINE.
002853:
002854: 01,2273           10154        BHIZ               CCS      MPAC
002855: 01,2274           16035                           TCF      DANZIG
002856: 01,2275           16622                           TCF      GOTO
002857: 01,2276           16035                           TCF      DANZIG
002858: 01,2277           16622                           TCF      GOTO
002859:
002860: 01,2300           10121        BOV(B)             CCS      OVFIND                                #  BRANCH ON OVERFLOW TO BASIC OR INTERP.
002861: 01,2301           12303                           TCF      +2
002862: 01,2302           16035                           TCF      DANZIG
002863: 01,2303           54121                           TS       OVFIND
002864: 01,2304           10020                           CCS      CYR
002865: 01,2305           12271                           TCF      RTB                                   #  IF BASIC.
002866: 01,2306           00360        B5TOBB             OCT      360
002867: 01,2307           16622                           TCF      GOTO
002868:
002869: 01,2310           10020        BZE/GOTO           CCS      CYR                                   #  SEE WHICH OP-CODE IS DESIRED.
002870: 01,2311           06677                           TC       BRANCH                                #  DO BZE.
002871: 01,2312           16035                           TCF      DANZIG
002872: 01,2313           16622                           TCF      GOTO                                  #  DO GOTO.
002873: 01,2314           16035                           TCF      DANZIG
002874:
002875: 01,2315           10020        BPL/BMN            CCS      CYR
002876: 01,2316           12324                           TCF      BPL
002877: 01,2317           12000        5B10               DEC      5          B+10                       #  SHIFTS OP CODE IN SWITCH INSTRUCTION ADR
002878:
002879: 01,2320           06677                           TC       BRANCH                                #  DO BMN.
002880: 01,2321           16035                           TCF      DANZIG
002881: 01,2322           16035                           TCF      DANZIG
002882: 01,2323           16622                           TCF      GOTO                                  #  ONLY IF NNZ.
002883:
002884: 01,2324           06677        BPL                TC       BRANCH
002885: 01,2325           16622                           TCF      GOTO                                  #  IF POSITIVE OR ZERO.
002886: 01,2326           16622                           TCF      GOTO
002887: 01,2327           16035                           TCF      DANZIG
002888:
002889: 01,2330           10020        CALL/ITA           CCS      CYR
002890: 01,2331           16614                           TCF      CALL
002891:
002892: 01,2332           05723                           TC       CCSHOLE
002893: 01,2333           02250                           TC       15ADRERS                              #  STORE QPRET. (TAGSUB AFTER 15ADRERS IS
002894: 01,2334           50120                           INDEX    FIXLOC                                #  SLOW IN THIS CASE, BUT SAVES STORAGE.)
002895: 01,2335           30052                           CA       QPRET
002896: 01,2336           12210                           TCF      MSTORE1
002897:
002898:                                                                                                  #           THE FOLLOWING OPERATIONS ARE AVAILABLE FOR ALTERING AND TESTING INTERPRETIVE SWITCHES:
002899:
002900:                                                                                                  #  00       BONSET                 SET A SWITCH AND DO A GOTO IF IT WAS ON.
002901:                                                                                                  #  01       SETGO                  SET A SWITCH AND DO A GOTO.
002902:                                                                                                  #  02       BOFSET                 SET A SWITCH AND DOA GOTO IF IT WAS OFF
002903:                                                                                                  #  03       SET                    SET A SWITCH.
002904:
002905:                                                                                                  #  04       BONINV                 INVERT A SWITCH AND BRANCH IF IT WAS ON.
002906:                                                                                                  #  05       INVGO                  INVERT A SWITCH AND DO A GOTO.
002907:                                                                                                  #  06       BOFINV                 INVERT A SWITCH AND BRANCH IF IT WAS OFF
002908:                                                                                                  #  07       INVERT                 INVERT A SWITCH.
002909:
002910:                                                                                                  #  10       BONCLR                 CLEAR A SWITCH AND BRANCH IF IT WAS ON.
002911:                                                                                                  #  11       CLRGO                  CLEAR A SWITCH AND DO A GOTO.
002912:                                                                                                  #  12       BOFCLR                 CLEAR A SWITCH AND BRANCH IF IT WAS OFF.
002913:                                                                                                  #  13       CLEAR                  CLEAR A SWITCH.
002914:
002915:                                                                                                  #  14       BON                    BRANCH IF A SWITCH WAS ON.
002916:                                                                                                  #  16       BOFF                   BRANCH IF A SWITCH WAS OFF.
002917:
002918:
002919:                                                                                                  #           THE ADDRESS SUPPLIED WITH THE SWITCH INSTRUCTION IS INTERPRETED AS FOLLOWS:
002920:
002921:                                                                                                  #           BITS 1-4    SWITCH BIT NUMBER (1-15).
002922:                                                                                                  #           BITS 5-8    SWITCH OPERATION NUMBER.
002923:                                                                                                  #           BITS 9-     SWITCH WORD NUMBER (UP TO 64 SWITCH WORDS).
002924:
002925:                                                                                                  #           THE ADDRESS ITSELF IS MADE UP BY THE YUL SYSTEM ASSEMBLER. THE BRANCH INSTRUCTIONS REQUIRE TWO
002926:                                                                                                  #  ADDRESSES, THE SECOND TAKEN AS THE DIRECT (OR INDIRECT IF IN ERASABLE) ADDRESS OF THE BRANCH.
002927:
002928:
002929: 01,2337           35035        SWITCHES           CAF      LOW4                                  #  LEAVE THE SWITCH BIT IN  SWBIT  .
002930: 01,2340           70117                           MASK     POLISH
002931: 01,2341           50000                           INDEX    A
002932: 01,2342           35010                           CAF      BIT15                                 #  (NUMBER FROM LEFT TO RIGHT.)
002933: 01,2343           54131                           TS       SWBIT
002934:
002935: 01,2344           35020                           CAF      BIT7                                  #  LEAVE THE SWITCH NUMBER IN SWWORD.
002936: 01,2345           00006                           EXTEND
002937: 01,2346           70117                           MP       POLISH
002938: 01,2347           54130                           TS       SWWORD
002939:
002940: 01,2350           00004                           INHINT                                         #  DURING SWITCH CHANGE SO RUPT CAN USE TOO
002941: 01,2351           50000                           INDEX    A                                     #  LEAVE THE SWITCH WORD ITSELF IN L.
002942: 01,2352           30074                           CA       STATE
002943: 01,2353           54002                           TS       Q                                     #  Q WILL BE USED AS A CHANNEL.
002944: 01,2354           35014                           CAF      BIT11
002945: 01,2355           00006                           EXTEND                                         #  DISPATCH SWITCH BIT OPERATION AS IN BITS
002946: 01,2356           70117                           MP       POLISH                                #  7-8 OF POLISH.
002947: 01,2357           72417                           MASK     B3TOB4                                #  GETS 4X2-BIT CODE.
002948: 01,2360           50000                           INDEX    A
002949: 01,2361           12362                           TCF      +1
002950:
002951: 01,2362           30131                 +1        CA       SWBIT                                 #  00 - SET SWITCH IN QUESTION.
002952: 01,2363           00006                           EXTEND
002953: 01,2364           04002                           ROR      QCHAN
002954: 01,2365           12374                           TCF      SWSTORE
002955:
002956: 01,2366           30131                 +5        CA       SWBIT                                 #  01 - INVERT SWITCH.
002957: 01,2367           00006                           EXTEND
002958: 01,2370           06002                           RXOR     QCHAN
002959: 01,2371           12374                           TCF      SWSTORE
002960:
002961: 01,2372           40131                 +9D       CS       SWBIT                                 #  10 - CLEAR.
002962: 01,2373           70002                           MASK     Q
002963: 01,2374           50130        SWSTORE            INDEX    SWWORD
002964: 01,2375           54074                           TS       STATE                                 #  NEW SWITCH WORD.
002965:
002966: 01,2376           00003                 +13D      RELINT                                         #  11 - NOOP.
002967: 01,2377           35012                           CAF      BIT13
002968: 01,2400           00006                           EXTEND                                         #  DISPATCH SEQUCE CHANGING OR BRANCHING
002969: 01,2401           70117                           MP       POLISH                                #  CODE.
002970: 01,2402           72417                           MASK     B3TOB4
002971: 01,2403           50000                           INDEX    A
002972: 01,2404           12405                           TCF      +1                                    #  ORIGINALLY STORED IN BITS 5-6.
002973:
002974: 01,2405           40002                 +1        CS       Q                                     #  00 - BRANCH IF ON.
002975: 01,2406           70131        TEST               MASK     SWBIT
002976: 01,2407           10000                           CCS      A
002977: 01,2410           12420                           TCF      SWSKIP
002978:
002979: 01,2411           16671                 +5        TCF      SWBRANCH                              #  01 - GO TO.
002980:
002981: 01,2412           12420                           TCF      SWSKIP                                #  HERE ONLY ON BIT 15.
002982:
002983: 01,2413           05723                           TC       CCSHOLE
002984: 01,2414           05723                           TC       CCSHOLE
002985:
002986: 01,2415           30002                 +9D       CA       Q                                     #  10 - BRANCH IF OFF.
002987: 01,2416           12406                           TCF      TEST
002988:
002989: 01,2417           00014        B3TOB4             OCT      0014
002990: 01,2420           24164        SWSKIP             INCR     LOC
002991:
002992: 01,2421  01,2337               SW/                EQUALS   SWITCHES
002993:
002994: 01,2421           16035                 +13D      TCF      DANZIG                                #  11 - NOOP.

End of include-file INTERPRETER.agc.  Parent file is MAIN.agc


