
Source Code


000002:                                                                                                  ## Copyright:   Public domain.
000003:                                                                                                  ## Filename:    KEYRUPT,_UPRUPT.agc
000004:                                                                                                  ## Purpose:     A section of a reconstructed, mixed version of Sundance
000005:                                                                                                  ##              It is part of the reconstructed source code for the Lunar
000006:                                                                                                  ##              Module's (LM) Apollo Guidance Computer (AGC) for Apollo 9.
000007:                                                                                                  ##              No original listings of this program are available;
000008:                                                                                                  ##              instead, this file was created via disassembly of dumps
000009:                                                                                                  ##              of various revisions of Sundance core rope modules.
000010:                                                                                                  ## Assembler:   yaYUL
000011:                                                                                                  ## Contact:     Ron Burkey <info@sandroid.org>.
000012:                                                                                                  ## Website:     www.ibiblio.org/apollo/index.html
000013:                                                                                                  ## Mod history: 2020-06-17 MAS  Created from Luminary 69.
000014:                                                                                                  ##              2021-05-30 ABS  UPCK -> UPOK
000015:
000016:                                                                                                  ## Sundance 292
000017:
000018: 14,3734                                           BANK     14
000019: 04,2000                                           SETLOC   KEYRUPT
000020: 04,2000                                           BANK
000021: 04,3104                                           COUNT*   $$/KEYUP
000022:
000023: 04,3104           54016        KEYRUPT1           TS       BANKRUPT
000024: 04,3105           56002                           XCH      Q
000025: 04,3106           54012                           TS       QRUPT
000026: 04,3107           04412                           TC       LODSAMPT                              #  TIME IS SNATCHED IN RUPT FOR NOUN 65.
000027: 04,3110           34360                           CAF      LOW5
000028: 04,3111           00006                           EXTEND
000029: 04,3112           02015                           RAND     MNKEYIN                               #  CHECK IF KEYS 5M-1M ON
000030: 04,3113           54073        KEYCOM             TS       RUPTREG4
000031: 04,3114           40101                           CS       FLAGWRD5
000032: 04,3115           75010                           MASK     DSKYFBIT
000033: 04,3116           26101                           ADS      FLAGWRD5
000034:
000035: 04,3117           34367        ACCEPTUP           CAF      CHRPRIO                               #  (NOTE: RUPTREG4 = KEYTEMP1)
000036: 04,3120           05142                           TC       NOVAC
000037: 04,3121     1000                                  EBANK=   DSPCOUNT
000038: 04,3121           02212 60102                     2CADR    CHARIN
000039:
000040: 04,3123           30073                           CA       RUPTREG4
000041: 04,3124           50064                           INDEX    LOCCTR
000042: 04,3125           54154                           TS       MPAC                                  #  LEAVE 5 BIT KEY CDE IN MPAC FOR CHARIN
000043: 04,3126           05330                           TC       RESUME
000044:
000045:                                                                                                  #  UPRUPT PROGRAM
000046:
000047: 04,3127           54016        UPRUPT             TS       BANKRUPT
000048: 04,3130           56002                           XCH      Q
000049: 04,3131           54012                           TS       QRUPT
000050: 04,3132           04412                           TC       LODSAMPT                              #  TIME IS SNATCHED IN RUPT FOR NOUN 65.
000051: 04,3133           35030                           CAF      ZERO
000052: 04,3134           56045                           XCH      INLINK
000053: 04,3135           54073                           TS       KEYTEMP1
000054: 04,3136           35024                           CAF      BIT3                                  #  TURN ON UPACT LIGHT
000055: 04,3137           00006                           EXTEND                                         #  (BIT 3 OF CHANNEL 11)
000056: 04,3140           05011                           WOR      DSALMOUT
000057: 04,3141           34360        UPRPT1             CAF      LOW5                                  #  TEST FOR TRIPLE CHAR REDUNDANCY
000058: 04,3142           70073                           MASK     KEYTEMP1                              #  LOW5 OF WORD
000059: 04,3143           56073                           XCH      KEYTEMP1                              #  LOW5 INTO KEYTEMP1
000060: 04,3144           00006                           EXTEND
000061: 04,3145           75015                           MP       BIT10                                 #  SHIFT RIGHT 5
000062: 04,3146           54734                           TS       KEYTEMP2
000063: 04,3147           74360                           MASK     LOW5                                  #  MID 5
000064: 04,3150           63204                           AD       HI10
000065: 04,3151           03201                           TC       UPTEST
000066: 04,3152           35015                           CAF      BIT10
000067: 04,3153           00006                           EXTEND
000068: 04,3154           70734                           MP       KEYTEMP2                              #  SHIFT RIGHT 5
000069: 04,3155           74360                           MASK     LOW5                                  #  HIGH 5
000070: 04,3156           40000                           COM
000071: 04,3157           03201                           TC       UPTEST
000072:
000073: 04,3160           43207        UPOK               CS       ELRCODE                               #  CODE IS GOOD. IF CODE = 'ERROR RESET',
000074: 04,3161           60073                           AD       KEYTEMP1                              #  CLEAR UPLOCKFL(SET BIT4 OF FLAGWRD7 = 0)
000075: 04,3162           00006                           EXTEND                                         #  IF CODE DOES NOT = 'ERROR RESET', ACCEPT
000076: 04,3163           13171                           BZF      CLUPLOCK                              #  CODE ONLY IF UPLOCKFL IS CLEAR (=0).
000077:
000078: 04,3164           35023                           CAF      UPLOCBIT                              #  TEST UPLOCKFL FOR 0 OR 1
000079: 04,3165           70103                           MASK     FLAGWRD7
000080: 04,3166           10000                           CCS      A
000081: 04,3167           05330                           TC       RESUME                                #  UPLOCKFL = 1
000082: 04,3170           03117                           TC       ACCEPTUP                              #  UPLOCKFL = 0
000083:
000084: 04,3171           45023        CLUPLOCK           CS       UPLOCBIT                              #  CLEAR UPLOCKFL (I.E., SET BIT 4 OF )
000085: 04,3172           70103                           MASK     FLAGWRD7                              #  FLAGWRD7 = 0)
000086: 04,3173           54103                           TS       FLAGWRD7
000087: 04,3174           03117                           TC       ACCEPTUP
000088:
000089:                                                                                                  #  CODE IS BAD
000090: 04,3175           40103        TMFAIL2            CS       FLAGWRD7                              #  LOCK OUT FURTHER UPLINK ACTIVITY
000091: 04,3176           75023                           MASK     UPLOCBIT                              #  (BY SETTING UPLOCKFL = 1) UNTIL
000092: 04,3177           26103                           ADS      FLAGWRD7                              #  'ERROR RESET' IS SENT VIA UPLINK.
000093: 04,3200           05330                           TC       RESUME
000094: 04,3201           60073        UPTEST             AD       KEYTEMP1
000095: 04,3202           10000                           CCS      A
000096: 04,3203           03175                           TC       TMFAIL2
000097: 04,3204           77740        HI10               OCT      77740
000098: 04,3205           03175                           TC       TMFAIL2
000099: 04,3206           00002                           TC       Q
000100:
000101: 04,3207           00022        ELRCODE            OCT      22
000102:
000103:                                                                                                  #  'UPLINK ACTIVITY LIGHT' IS TURNED OFF BY .....
000104:                                                                                                  #        1.      VBRELDSP
000105:                                                                                                  #        2.      ERROR RESET
000106:                                                                                                  #        3.      UPDATE PROGRAM (P27) ENTERED BY V70,V71,V72,AND V73.
000107:                                                                                                  #                                     -
000108:                                                                                                  #  THE RECEPTION OF A BAD CODE (I.E  CCC FAILURE) LOCKS OUT FURTHER UPLINK ACTIVITY BY SETTING BIT4 OF FLAGWRD7 = 1.
000109:                                                                                                  #  THIS INDICATION WILL BE TRANSFERRED TO THE GROUND BY THE DOWNLINK WHICH DOWNLINKS ALL FLAGWORDS.
000110:                                                                                                  #  WHEN UPLINK ACTIVITY IS LOCKED OUT, IT CAN BE ALLOWED WHEN THE GROUND UPLINKS AND 'ERROR RESET' CODE.
000111:                                                                                                  #  (IT IS RECOMMENDED THAT THE 'ERROR LIGHT RESET' CODE IS PRECEEDED BY 16 BITS THE FIRST OF WHICH IS 1 FOLLOWED
000112:                                                                                                  #  BY 15 ZEROES.  THIS WILL ELIMINATE EXTRANEOUS BITS FROM INLINK WHICH MAY HAVE BEEN LEFT OVER FROM THE ORIGINAL
000113:                                                                                                  #  FAILURE)
000114:
000115:                                                                                                  #  UPLINK ACTIVITY IS ALSO ALLOWED (UNLOCKED) DURING FRESH START WHEN FRESH START SETS BIT4 OF FLAGWRD7 = 0.

End of include-file KEYRUPT,_UPRUPT.agc.  Parent file is MAIN.agc


