
Source Code


000002:                                                                                                  ## Copyright:   Public domain.
000003:                                                                                                  ## Filename:    LUNAR_LANDING_GUIDANCE_EQUATIONS.agc
000004:                                                                                                  ## Purpose:     A section of a reconstructed, mixed version of Sundance
000005:                                                                                                  ##              It is part of the reconstructed source code for the Lunar
000006:                                                                                                  ##              Module's (LM) Apollo Guidance Computer (AGC) for Apollo 9.
000007:                                                                                                  ##              No original listings of this program are available;
000008:                                                                                                  ##              instead, this file was created via disassembly of dumps
000009:                                                                                                  ##              of various revisions of Sundance core rope modules.
000010:                                                                                                  ## Assembler:   yaYUL
000011:                                                                                                  ## Contact:     Ron Burkey <info@sandroid.org>.
000012:                                                                                                  ## Website:     www.ibiblio.org/apollo/index.html
000013:                                                                                                  ## Mod history: 2020-06-17 MAS  Created from Luminary 69.
000014:
000015:                                                                                                  ## Sundance 292
000016:
000017: 31,2417  E7,1606                                  EBANK=   E2DPS
000018:
000019: 31,2417                                           COUNT*   $$/F2DPS
000020:
000021:                                                                                                  #  ****************************************************************************************************************
000022:                                                                                                  #  LUNAR LANDING FLIGHT SEQUENCE TABLES
000023:                                                                                                  #  ****************************************************************************************************************
000024:
000025:                                                                                                  #  FLIGHT SEQUENCE TABLES ARE ARRANGED BY PHASE.   THEY ARE REFERENCED USING AS AN INDEX THE REGISTER WCHPHASE:
000026:                                                                                                  #                                                   WCHPHASE  -1  --->  DISPLAY ROUTINES
000027:                                                                                                  #                                                   WCHPHASE  +0  --->  ROUTINE FOR STARTING NEW GUIDANCE PHASES
000028:                                                                                                  #                                                   WCHPHASE  +1  --->  GUIDANCE EQUATIONS
000029:                                                                                                  #                                                   WCHPHASE  +2  --->  WINDOW VECTOR COMPUTATIONS
000030:                                                                                                  #                                                   WCHPHASE  +3  --->  EXIT CRITERION
000031:                                                                                                  #                                                   WCHPHASE  +4  --->  POST GUIDANCE EQUATION COMPUTATIONS
000032:                                                                                                  #                                                   WCHPHASE  +5  --->  INDICES FOR REFERENCING TARGET PARAMETERS
000033:                                                                                                  #                                                   WCHPHASE  +6  --->  AUGMENT FOR TTF/8
000034:
000035:                                                                                                  #  ***************************************************************************************************************
000036:
000037:                                                                                                  #  IGNITION ALGORITHM:
000038:                                                                                                  #  -1  NO DISPLAYS
000039: 31,2417           12563        IGNALG             TCF      TTFINCR                               #  +0
000040: 31,2420           13045                           TCF      TTF/8CL                               #  +1
000041: 31,2421           13171                           TCF      EXGSUB                                #  +2
000042: 31,2422           00000                           DEC      0          B-14                       #  +3
000043: 31,2423           12770                           TCF      CGCALC                                #  +4
000044: 31,2424           00000                           OCT      0                                     #  +5
000045: 31,2425           02506                           DEC      108        E2         B-17            #  +6
000046:
000047:
000048:                                                                                                  #  BRAKING QUADRATIC:
000049: 31,2426           13306                           TCF      P63DISPS                              #  -1
000050: 31,2427           12563        BRAKQUAD           TCF      TTFINCR                               #  +0
000051: 31,2430           13045                           TCF      TTF/8CL                               #  +1
000052: 31,2431           13205                           TCF      EXBRAK                                #  +2
000053: 31,2432           77405                           DEC      -20        E2         B-17            #  +3
000054: 31,2433           12770                           TCF      CGCALC                                #  +4
000055: 31,2434           00000                           OCT      0                                     #  +5
000056: 31,2435           00000                           DEC      0          B-14                       #  +6
000057:
000058:                                                                                                  #  BRAKING LINEAR:
000059: 31,2436           13306                           TCF      P63DISPS                              #  -1
000060: 31,2437           12553        BRAKLING           TCF      LINSET                                #  +0
000061: 31,2440           13036                           TCF      LINGUID                               #  +1
000062: 31,2441           13205                           TCF      EXBRAK                                #  +2
000063: 31,2442           77746                           DEC      -2         E2         B-17            #  +3
000064: 31,2443           13014                           TCF      RGVGCALC                              #  +4
000065: 31,2444           00000                           OCT      0                                     #  +5
000066: 31,2445           00000                           DEC      0          B-14                       #  +6
000067:
000068:                                                                                                  #  APPROACH QUADRATIC:
000069: 31,2446           13312                           TCF      P64DISPS                              #  -1
000070: 31,2447           12543        APPRQUAD           TCF      STARTP64                              #  +0
000071: 31,2450           13045                           TCF      TTF/8CL                               #  +1
000072: 31,2451           13211                           TCF      EXNORM                                #  +2
000073: 31,2452           77602                           DEC      -10        E2         B-17            #  +3
000074: 31,2453           12636                           TCF      REDESIG                               #  +4
000075: 31,2454           00030                           OCT      30                                    #  +5
000076: 31,2455           74110                           DEC      -158       E2         B-17            #  +6
000077:
000078:                                                                                                  #  APPROACH LINEAR:
000079: 31,2456           13312                           TCF      P64DISPS                              #  -1
000080: 31,2457           12553        APPRLING           TCF      LINSET                                #  +0
000081: 31,2460           13036                           TCF      LINGUID                               #  +1
000082: 31,2461           13211                           TCF      EXNORM                                #  +2
000083: 31,2462           77746                           DEC      -2         E2         B-17            #  +3
000084: 31,2463           13014                           TCF      RGVGCALC                              #  +4
000085: 31,2464           00030                           OCT      30                                    #  +5
000086: 31,2465           00000                           DEC      0          B-14                       #  +6
000087:
000088:                                                                                                  #  VERTICAL:
000089: 31,2466           13335                           TCF      VERTDISP                              #  -1
000090: 31,2467           12534        VERTICAL           TCF      P65START                              #  +0
000091: 31,2470           13352                           TCF      VERTGUID                              #  +1
000092: 31,2471           13262                           TCF      EXVERT                                #  +2
000093: 31,2472           37777                           OCT      37777                                 #  +3
000094: 31,2473           13014                           TCF      RGVGCALC                              #  +4
000095:
000096:                                                                                                  #  ****************************************************************************************************************
000097:                                                                                                  #  ENTRY POINTS:   ?GUIDSUB FOR THE IGNITION ALGORITHM, LUNLAND FOR SERVOUT
000098:                                                                                                  #  ****************************************************************************************************************
000099:
000100:                                                                                                  #  IGNITION ALGORITHM ENTRY:  DELIVERS N PASSES OF QUADRATIC QUIDANCE
000101:
000102: 31,2474           77776        ?GUIDSUB           EXIT
000103: 31,2475           35026                           CAF      ONE                                   #  N = 2
000104: 31,2476           55656        GUIDSUB            TS       NGUIDSUB
000105: 31,2477           12505                           TCF      GUILDRET
000106:
000107:
000108:                                                                                                  #  NORMAL ENTRY:  CONTROL COMES HERE FROM SERVOUT
000109:
000110: 31,2500           05373        LUNLAND            TC       2PHSCHNG
000111: 31,2501           00035                           OCT      00035                                 #  GROUP 5:  RETAIN ONLY PIPA TASK
000112: 31,2502           05022                           OCT      05022                                 #  GROUP 2:  PROTECT GUIDANCE WITH PRIO 21
000113: 31,2503           21000                           OCT      21000                                 #        JUST HIGHER THAN SERVICER'S PRIORITY
000114:
000115: 31,2504           02171                           TC       GUILDEN
000116:
000117:                                                                                                  #  ****************************************************************************************************************
000118:                                                                                                  #  INITIALIZATION FOR THIS PASS
000119:                                                                                                  #  ****************************************************************************************************************
000120:
000121: 31,2505                                           COUNT*   $$/F2DPS
000122:
000123: 31,2505           51606        GUILDRET           INDEX    WCHPHASE
000124: 31,2506           30005                           CA       5
000125: 31,2507           55610                           TS       TARGTDEX
000126: 31,2510           40000                           COM
000127: 31,2511           50120                           INDEX    FIXLOC
000128: 31,2512           54046                           TS       X1
000129:
000130: 31,2513           00006                           EXTEND
000131: 31,2514           31612                           DCA      TPIP
000132: 31,2515           53562                           DXCH     TPIPOLD
000133:
000134: 31,2516           03562                           TC       FASTCHNG
000135:
000136: 31,2517           00006                           EXTEND
000137: 31,2520           31234                           DCA      PIPTIME
000138: 31,2521           53612                           DXCH     TPIP
000139:
000140: 31,2522           00006                           EXTEND
000141: 31,2523           31636                           DCA      TTF/8
000142: 31,2524           53547                           DXCH     TTF/8TMP
000143:
000144: 31,2525           11607                           CCS      FLPASS0
000145: 31,2526           12563                           TCF      TTFINCR
000146:
000147: 31,2527           51606        BRSPOT1            INDEX    WCHPHASE
000148: 31,2530           30006                           CA       6
000149: 31,2531           27546                           ADS      TTF/8TMP
000150: 31,2532           51606                           INDEX    WCHPHASE
000151: 31,2533           10000                           TCF      0
000152:
000153:                                                                                                  #  ****************************************************************************************************************
000154:                                                                                                  #  ROUTINES TO START NEW PHASES
000155:                                                                                                  #  ****************************************************************************************************************
000156:
000157: 31,2534           05351        P65START           TC       NEWMODEX
000158: 31,2535           00101                           DEC      65         B-14
000159: 31,2536           45025                           CS       TWO
000160: 31,2537           55656                           TS       WCHVERT
000161: 31,2540           05575                           TC       DOWNFLAG                              #  PERMIT X-AXIS OVERRIDE
000162: 31,2541           17140                           CADR     XOVINFLG
000163:
000164: 31,2542           12563                           TCF      TTFINCR
000165:
000166:
000167: 31,2543           05351        STARTP64           TC       NEWMODEX
000168: 31,2544           00100                           DEC      64         B-14
000169: 31,2545           35013                           CA       BIT12                                 #  ENABLE RUPT10
000170: 31,2546           00006                           EXTEND
000171: 31,2547           05013                           WOR      CHAN13
000172: 31,2550           05575                           TC       DOWNFLAG                              #  INITIALIZE REDESIGNATION FLAG
000173: 31,2551           00143                           ADRES    REDFLAG
000174: 31,2552           12563                           TCF      TTFINCR
000175:
000176:                                                                                                  #  ****************************************************************************************************************
000177:                                                                                                  #  SET LINEAR GUIDANCE COEFFICIENTS
000178:                                                                                                  #  ****************************************************************************************************************
000179:
000180: 31,2553           06014        LINSET             TC       INTPRET
000181: 31,2554           51775                           VLOAD    VSU*                                  #  -        -     -
000182: 31,2555           03640                                    ACG                                   #  JLING = (ACG - ADG)/TTF
000183: 31,2556           23571                                    ADG,1
000184: 31,2557           77741                           V/SC
000185: 31,2560           03547                                    TTF/8TMP                              #  TTF/8 NOT YET UPDATED
000186: 31,2561           03646                           STORE    JLING                                 #  JLING IS IN UMITS OF 2(-18) M/CS/CS/CS
000187: 31,2562           77776                           EXIT
000188:
000189:                                                                                                  #                                              (CONTINUE TO TTFINCR)
000190:
000191:                                                                                                  #  ****************************************************************************************************************
000192:                                                                                                  #  INCREMENT TTF/8, UPDATE LAND FOR LUNAR ROTATION, DO OTHER USEFUL THINGS
000193:                                                                                                  #  ****************************************************************************************************************
000194:
000195:                                                                                                  #             TTFINCR COMPUTATIONS ARE AS FOLLOWS:-
000196:
000197:                                                                                                  #                       TTF/8 UPDATED FOR TIME SINCE LAST PASS:
000198:
000199:                                                                                                  #                                  TTF/8 = TTF/8 + (TPIP - TPIPOLD)/8
000200:
000201:                                                                                                  #                       LANDING SITE VECTOR UPDATED FOR LUNAR ROTATION:
000202:
000203:                                                                                                  #                                  -                  -      -                      -
000204:                                                                                                  #                                  LAND = /LAND/ UNIT(LAND - LAND(TPIP - TPIPOLD) * WM)
000205:
000206:                                                                                                  #                       SLANT RANGE TO LANDING SITE, FOR DISPLAY:
000207:
000208:                                                                                                  #                                                   -      -
000209:                                                                                                  #                                  RANGEDSP = ABVAL(LAND - R)
000210:
000211: 31,2563           06014        TTFINCR            TC       INTPRET
000212: 31,2564           45345                           DLOAD    DSU
000213: 31,2565           03612                                    TPIP
000214: 31,2566           03562                                    TPIPOLD
000215: 31,2567           41461                           SLR      PUSH                                  #  SHIFT SCALES DELTA TIME TO 2(17) CSECS
000216: 31,2570           21214                                    11D
000217: 31,2571           47361                           VXSC     VXV
000218: 31,2572           03630                                    LAND
000219: 31,2573           03622                                    WM
000220: 31,2574           47045                           BVSU     RTB
000221: 31,2575           03630                                    LAND
000222: 31,2576           21672                                    NORMUNIT
000223: 31,2577           76561                           VXSC     VSL1
000224: 31,2600           02023                                    /LAND/
000225: 31,2601           03541                           STORE    LANDTEMP
000226: 31,2602           51451                           VSU      ABVAL
000227: 31,2603           03476                                    R
000228: 31,2604           02423                           STORE    RANGEDSP
000229: 31,2605           47375                           VLOAD    VXV
000230: 31,2606           03476                                    R
000231: 31,2607           03622                                    WM
000232: 31,2610           70455                           VAD      VSR2                                  #  RESCALE TO UNITS OF 2(9) M/CS
000233: 31,2611           03504                                    V
000234: 31,2612           17572                           STODL    ANGTERM
000235: 31,2613           77776                           EXIT
000236:
000237: 31,2614           52155                           DXCH     MPAC
000238: 31,2615           21547                           DAS      TTF/8TMP                              #  NOW HAVE INCREMENTED TTF/8 IN TTF/8TMP
000239:
000240: 31,2616           03562                           TC       FASTCHNG
000241:
000242: 31,2617           00006                           EXTEND
000243: 31,2620           31547                           DCA      TTF/8TMP
000244: 31,2621           53636                           DXCH     TTF/8
000245:
000246: 31,2622           00006                           EXTEND
000247: 31,2623           31541                           DCA      LANDTEMP
000248: 31,2624           53630                           DXCH     LAND
000249: 31,2625           00006                           EXTEND
000250: 31,2626           31543                           DCA      LANDTEMP   +2
000251: 31,2627           53632                           DXCH     LAND       +2
000252: 31,2630           00006                           EXTEND
000253: 31,2631           31545                           DCA      LANDTEMP   +4
000254: 31,2632           53634                           DXCH     LAND       +4
000255:
000256: 31,2633           03535                           TC       TDISPSET
000257:
000258: 31,2634           51606        BRSPOT2            INDEX    WCHPHASE
000259: 31,2635           10004                           TCF      4
000260:
000261:                                                                                                  #  ****************************************************************************************************************
000262:                                                                                                  #  LANDING SITE PERTURBATION EQUATIONS
000263:                                                                                                  #  ****************************************************************************************************************
000264:
000265: 31,2636           03562        REDESIG            TC       FASTCHNG
000266: 31,2637           30102                           CA       FLAGWRD6                              #  IS REDFLAG SET?
000267: 31,2640           75021                           MASK     REDFLBIT
000268: 31,2641           10000                           CCS      A
000269: 31,2642           12645                           TCF      +3
000270: 31,2643           55653                           TS       ELINCR1
000271: 31,2644           55654                           TS       AZINCR1
000272:
000273: 31,2645           31702                           CA       TREDES                                #  YES:  HAS TREDES REACHED ZERO?
000274: 31,2646           00006                           EXTEND
000275: 31,2647           12770                           BZF      CGCALC                                #  YES:  SKIP REDESIGNATION LOGIC
000276:
000277: 31,2650           00004                           INHINT
000278: 31,2651           31653                           CA       ELINCR1
000279: 31,2652           55565                           TS       ELINCR
000280: 31,2653           31654                           CA       AZINCR1
000281: 31,2654           55563                           TS       AZINCR
000282: 31,2655           03562                           TC       FASTCHNG
000283:
000284: 31,2656           35030                           CA       ZERO
000285: 31,2657           55653                           TS       ELINCR1
000286: 31,2660           55654                           TS       AZINCR1
000287: 31,2661           00003                           RELINT
000288: 31,2662           55566                           TS       ELINCR     +1
000289: 31,2663           55564                           TS       AZINCR     +1
000290:
000291: 31,2664           06014                           TC       INTPRET
000292: 31,2665           77201                           SETPD    VLOAD
000293: 31,2666           00001                                    0
000294: 31,2667           03630                                    LAND
000295: 31,2670           47051                           VSU      RTB                                   #                  -      -
000296: 31,2671           03476                                    R                                     #  PUSH DOWN UNIT (LAND - R)
000297: 31,2672           21672                                    NORMUNIT
000298: 31,2673           76521                           MXV      VSL1
000299: 31,2674           02150                                    XNBPIP
000300: 31,2675           14025                           STODL    20D
000301: 31,2676           00025                                    20D
000302: 31,2677           44205                           DMP      BDSU
000303: 31,2700           03566                                    ELINCR
000304: 31,2701           00031                                    24D
000305: 31,2702           74525                           PDDL     VSR1
000306: 31,2703           03564                                    AZINCR
000307: 31,2704           65215                           DAD      PDDL
000308: 31,2705           00027                                    22D
000309: 31,2706           00031                                    24D
000310: 31,2707           43205                           DMP      DAD
000311: 31,2710           03566                                    ELINCR
000312: 31,2711           00025                                    20D
000313: 31,2712           61266                           VDEF     VXM
000314: 31,2713           02150                                    XNBPIP
000315: 31,2714           71206                           PUSH     DLOAD
000316: 31,2715           00001                                    0
000317: 31,2716           77625                           DSU
000318: 31,2717           23707                                    DEPRCRIT
000319: 31,2720           71240                           BMN      DLOAD
000320: 31,2721           62724                                    REDES1
000321: 31,2722           23707                                    DEPRCRIT
000322: 31,2723           00001                           STORE    0
000323: 31,2724           45345        REDES1             DLOAD    DSU
000324: 31,2725           03630                                    LAND
000325: 31,2726           03476                                    R
000326: 31,2727           74271                           DDV      VXSC
000327: 31,2730           00001                                    0
000328: 31,2731           53455                           VAD      UNIT
000329: 31,2732           03476                                    R
000330: 31,2733           76561                           VXSC     VSL1
000331: 31,2734           02023                                    /LAND/
000332: 31,2735           03541                           STORE    LANDTEMP
000333: 31,2736           47051                           VSU      RTB
000334: 31,2737           03476                                    R
000335: 31,2740           21672                                    NORMUNIT
000336: 31,2741           72441                           DOT      SL1
000337: 31,2742           02150                                    XNBPIP
000338: 31,2743           67476                           VCOMP    ASIN
000339: 31,2744           77776                           EXIT                                           #  LOOKANGL WILL BE COMPUTED AT RGVGCALC
000340:
000341: 31,2745           33655                           CAF      360DEGS
000342: 31,2746           07261                           TC       SHORTMP
000343:
000344: 31,2747           35011                           CAF      BIT14
000345: 31,2750           54001                           TS       L
000346: 31,2751           35030                           CAF      ZERO
000347: 31,2752           20155                           DAS      MPAC
000348: 31,2753           52155                           DXCH     MPAC
000349: 31,2754           07516                           TC       ALSIGNAG
000350: 31,2755           55703                           TS       GEFF
000351:
000352: 31,2756           03562                           TC       FASTCHNG
000353:
000354: 31,2757           00006                           EXTEND
000355: 31,2760           31541                           DCA      LANDTEMP
000356: 31,2761           53630                           DXCH     LAND
000357: 31,2762           00006                           EXTEND
000358: 31,2763           31543                           DCA      LANDTEMP   +2
000359: 31,2764           53632                           DXCH     LAND       +2
000360: 31,2765           00006                           EXTEND
000361: 31,2766           31545                           DCA      LANDTEMP   +4
000362: 31,2767           53634                           DXCH     LAND       +4
000363:
000364:                                                                                                  #  ***************************************************************************************************************
000365:                                                                                                  #  ERECT GUIDANCE-STABLE MEMBER TRANSFORMATION MATRIX
000366:                                                                                                  #  ***************************************************************************************************************
000367:
000368: 31,2770           06014        CGCALC             TC       INTPRET
000369: 31,2771           53575                           VLOAD    UNIT
000370: 31,2772           03630                                    LAND
000371:
000372: 31,2773           26401                           STOVL    CG                                    #  FIRST ROW
000373: 31,2774           03572                                    ANGTERM
000374: 31,2775           53361                           VXSC     VAD                                   #  REMEMBER THAT ANGTERM IS DOUBLE-SIZED
000375: 31,2776           03636                                    TTF/8
000376: 31,2777           03630                                    LAND
000377: 31,3000           47051                           VSU      RTB
000378: 31,3001           03476                                    R
000379: 31,3002           21672                                    NORMUNIT
000380: 31,3003           47035                           VXV      RTB
000381: 31,3004           03630                                    LAND
000382: 31,3005           21672                                    NORMUNIT
000383: 31,3006           26407                           STOVL    CG         +6                         #  SECOND ROW
000384: 31,3007           02401                                    CG
000385: 31,3010           76435                           VXV      VSL1
000386: 31,3011           02407                                    CG         +6
000387: 31,3012           02415                           STORE    CG         +14
000388: 31,3013           77776                           EXIT
000389:
000390:
000391:                                                                                                  #  ****************************************************************************************************************
000392:                                                                                                  #  COMPUTE STATE IN GUIDANCE COORDINATES
000393:                                                                                                  #  ****************************************************************************************************************
000394:
000395:                                                                                                  #             RGVGCALC COMPUTATIONS ARE AS FOLLOWS:-
000396:
000397:                                                                                                  #                      VELOCITY RELATIVE TO THE SURFACE:
000398:
000399:                                                                                                  #                                  -         -   -   -
000400:                                                                                                  #                                  ANGTERM = V + R * WM
000401:
000402:                                                                                                  #                      STATE IN GUIDANCE COORDINATES:
000403:
000404:                                                                                                  #                                  -     *   -   -
000405:                                                                                                  #                                  RGU = CG (R - LAND)
000406:
000407:                                                                                                  #                                  -     *   -   -    -
000408:                                                                                                  #                                  VGU = CG (V - WM * R)
000409:
000410:                                                                                                  #                      HORIZONTAL VELOCITY FOR DISPLAY:
000411:
000412:                                                                                                  #                                  VHORIZ = 8 ABVAL (0, VG , VG )
000413:                                                                                                  #                                                         2    1
000414:
000415:                                                                                                  #                      DEPRESSION ANGLE FOR DISPLAY:
000416:
000417:                                                                                                  #                                                         -   -     -
000418:                                                                                                  #                                  LOOKANGL = ARCSIN(UNIT(R - LAND).XMBPIP)
000419:
000420: 31,3014           06014        RGVGCALC           TC       INTPRET                               #  ENTER HERE TO RECOMPUTE RG AND VG
000421: 31,3015           52375                           VLOAD    VSU
000422: 31,3016           03476                                    R                                     #            -   -
000423: 31,3017           03630                                    LAND                                  #  PUSH DOWN R - LAND
000424: 31,3020           76521                           MXV      VSL1
000425: 31,3021           02401                                    CG
000426: 31,3022           27532                           STOVL    RGU
000427: 31,3023           03572                                    ANGTERM
000428: 31,3024           77721                           MXV
000429: 31,3025           02401                                    CG                                    #  NO SHIFT SINCE ANGTERM IS DOUBLE SIZED
000430: 31,3026           03614                           STORE    VGU
000431: 31,3027           55525                           PDDL     VDEF                                  #  FORM (0,VG ,VG ) IN UNITS OF 2(10) M/CS
000432: 31,3030           06233                                    ZEROVECS                              #            2   1
000433: 31,3031           52446                           ABVAL    SL3
000434: 31,3032           17705                           STODL    VHORIZ                                #  VHORIZ FOR DISPLAY DURING P65, P66, P67
000435: 31,3033           77776                           EXIT
000436:
000437: 31,3034           51606        BRSPOT3            INDEX    WCHPHASE
000438: 31,3035           10001                           TCF      1
000439:
000440:                                                                                                  # ****************************************************************************************************************
000441:                                                                                                  #  LINEAR GUIDANCE EQUATION
000442:                                                                                                  # ****************************************************************************************************************
000443:
000444: 31,3036           06014        LINGUID            TC       INTPRET
000445: 31,3037           74375                           VLOAD    VXSC                                  #  -     -     -
000446: 31,3040           03646                                    JLING                                 #  ACG = ADG + JLING TTF
000447: 31,3041           03636                                    TTF/8
000448: 31,3042           52053                           VAD*     GOTO
000449: 31,3043           23571                                    ADG,1
000450: 31,3044           63135                                    AFCCALC    +2
000451:
000452:                                                                                                  # ****************************************************************************************************************
000453:                                                                                                  #  TTF/4 COMPUTATION
000454:                                                                                                  # ****************************************************************************************************************
000455:
000456: 31,3045           00006        TTF/8CL            EXTEND
000457: 31,3046           51610                           INDEX    TARGTDEX
000458: 31,3047           33617                           DCA      JDG2TTF                               #  A(3) = 8 JDG  TO TABLTTF
000459: 31,3050           53557                           DXCH     TABLTTF    +6                         #              2
000460: 31,3051           00006                           EXTEND
000461: 31,3052           51610                           INDEX    TARGTDEX
000462: 31,3053           33615                           DCA      ADG2TTF                               #  A(2) = 6 ADG  TO TABLTTF
000463: 31,3054           53555                           DXCH     TABLTTF    +4                         #              2
000464: 31,3055           00006                           EXTEND
000465: 31,3056           31620                           DCA      VGU        +4
000466: 31,3057           52155                           DXCH     MPAC
000467: 31,3060           33667                           CAF      3/4DP
000468: 31,3061           07261                           TC       SHORTMP
000469: 31,3062           00006                           EXTEND
000470: 31,3063           51610                           INDEX    TARGTDEX
000471: 31,3064           33613                           DCA      VDG2TTF
000472: 31,3065           20155                           DAS      MPAC
000473: 31,3066           52155                           DXCH     MPAC                                  #  A(1) = (6 VGU  + 18 VDG )/8 TO TABLTTF
000474: 31,3067           53553                           DXCH     TABLTTF    +2                         #               2         2
000475: 31,3070           00006                           EXTEND
000476: 31,3071           41536                           DCS      RGU        +4
000477: 31,3072           52155                           DXCH     MPAC
000478: 31,3073           00006                           EXTEND
000479: 31,3074           51610                           INDEX    TARGTDEX
000480: 31,3075           33603                           DCA      RDG        +4
000481: 31,3076           20155                           DAS      MPAC
000482: 31,3077           33664                           CAF      3/8
000483: 31,3100           07261                           TC       SHORTMP
000484: 31,3101           52155                           DXCH     MPAC                                  #  A(0) = -24 (RGU  - RDG )/64 TO TABLTTF
000485: 31,3102           53551                           DXCH     TABLTTF                               #                 2      2
000486:
000487: 31,3103           35017                           CA       BIT8
000488: 31,3104           55560                           TS       TABLTTF    +10                        #  FRACTIONAL PRECISION FOR TTF TO TABLE
000489:
000490: 31,3105           00006                           EXTEND
000491: 31,3106           31636                           DCA      TTF/8
000492: 31,3107           52155                           DXCH     MPAC                                  #  LOADS TTF/8 (INITIAL GUESS) INTO MPAC
000493: 31,3110           00006                           EXTEND
000494: 31,3111           33651                           DCA      TABLTTFL
000495: 31,3112           03416                           TC       ROOTPSRS                              #  YIELDS TTF/8 IN MPAC
000496:
000497: 31,3113           00006                           EXTEND
000498: 31,3114           30155                           DCA      MPAC                                  #  FETCH TTF/8 KEEPING IT IN MPAC
000499: 31,3115           53636                           DXCH     TTF/8                                 #  CORRECTED TTF/8
000500:
000501: 31,3116           03535                           TC       TDISPSET
000502:
000503:                                                                                                  #                                               (CONTINUE TO QUADGUID)
000504:
000505:                                                                                                  #  ****************************************************************************************************************
000506:                                                                                                  #  MAIN GUIDANCE EQUATION
000507:                                                                                                  #  ****************************************************************************************************************
000508:
000509:                                                                                                  #                       AS PUBLISHED:-
000510:
000511:                                                                                                  #                                                -     -        -     -
000512:                                                                                                  #                                  -     -     6(VDG + VG)   12(RDG - RG)
000513:                                                                                                  #                                  ACG = ADG + ----------- + ------------
000514:                                                                                                  #                                                  TTF         (TTF)(TTF)
000515:
000516:                                                                                                  #                       AS HERE PROGRAMMED:-
000517:
000518:                                                                                                  #                                              -     -
000519:                                                                                                  #                                       3 (1/4(RDG - RG)   -     - )
000520:                                                                                                  #                                       - (------------- + VDG + VG)
000521:                                                                                                  #                                 -     4 (    TTF/8               )   -
000522:                                                                                                  #                                 ACG = ---------------------------- + ADG
000523:                                                                                                  #                                                  TTF/8
000524:
000525: 31,3117           06014        QUADGUID           TC       INTPRET
000526: 31,3120           52373                           VLOAD*   VSU
000527: 31,3121           23577                                    RDG,1
000528: 31,3122           03532                                    RGU
000529: 31,3123           70541                           V/SC     VSR2
000530: 31,3124           03636                                    TTF/8
000531: 31,3125           53253                           VAD*     VAD
000532: 31,3126           23605                                    VDG,1
000533: 31,3127           03614                                    VGU
000534: 31,3130           74341                           V/SC     VXSC
000535: 31,3131           03636                                    TTF/8
000536: 31,3132           23670                                    3/4DP
000537: 31,3133           77653        AFCCALC            VAD*
000538: 31,3134           23571                                    ADG,1                                 #  CURRENT TARGET ACCELERATION
000539: 31,3135           03640                           STORE    ACG
000540: 31,3136           76505        AFCCALC1           VXM      VSL1                                  #  VERTGUID COMES HERE
000541: 31,3137           02401                                    CG
000542: 31,3140           70315                           PDVL     V/SC
000543: 31,3141           01236                                    GDT/2
000544: 31,3142           23663                                    GSCALE
000545: 31,3143           45445                           BVSU     STADR
000546: 31,3144           74527                           STORE    UNFC/2                                #  UNFC/2 NEED NOT BE UNITIZED
000547: 31,3145           77646                           ABVAL
000548: 31,3146           03570        AFCCALC2           STORE    /AFC/                                 #  MAGNITUDE OF AFC FOR THROTTLE
000549: 31,3147           77776                           EXIT
000550: 31,3150           03562                           TC       FASTCHNG
000551:
000552: 31,3151           25607                           INCR     FLPASS0                               #  INCREMENT PASS COUNTER
000553:
000554:                                                                                                  #                                              (CONTINUE TO EXTLOGIC)
000555:
000556:                                                                                                  #  ****************************************************************************************************************
000557:                                                                                                  #  PREPARE TO EXIT
000558:                                                                                                  #  ****************************************************************************************************************
000559:
000560:                                                                                                  #  DECIDE (1) HOW TO EXIT, AND (2) WHETHER TO SWITCH PHASES
000561:
000562: 31,3152           51606        EXTLOGIC           INDEX    WCHPHASE
000563: 31,3153           40003                           CS       3
000564: 31,3154           61635                           AD       TTF/8
000565: 31,3155           00006                           EXTEND
000566: 31,3156           51606                           INDEX    WCHPHASE
000567: 31,3157           60002                           BZMF     2
000568:
000569: 31,3160           31606                           CA       WCHPHASE                              #  PREPARE FOR PHASE SWITCHING LOGIC
000570: 31,3161           55537                           TS       WCHPHOLD
000571:
000572: 31,3162           03562                           TC       FASTCHNG
000573:
000574: 31,3163           31537                           CA       WCHPHOLD
000575: 31,3164           65023                           AD       BIT4
000576: 31,3165           22007                           ZL                                             #  +0
000577: 31,3166           53607                           DXCH     WCHPHASE                              #  ADVANCING WCHPHASE AND RESETTING FLPASS0
000578: 31,3167           51537                           INDEX    WCHPHOLD
000579: 31,3170           10002                           TCF      2
000580:
000581:                                                                                                  #  ****************************************************************************************************************
000582:                                                                                                  #  ROUTINES FOR EXITING FROM LANDING GUIDANCE
000583:
000584:                                                                                                  #  ****************************************************************************************************************
000585:
000586:                                                                                                  #  1.        EXGSUB IS THE RETURN WHEN GUIDSUB IS CALLED BY THE IGNITION ALGORITHM.
000587:
000588:                                                                                                  #  2.        EXBRAK IN THE EXIT USED DURING THE BRAKING PHASE.   IN THIS CASE UNIT(R) IS THE WINDOW POINTING VECTOR.
000589:
000590:                                                                                                  #  3.        EXNORM IS THE EXIT USED AT OTHER TIMES DURING THE BURN.
000591:
000592:                                                                                                  #           (EXOVFLOW IS A SUBROUTINE OF EXBRAK AND EXNORM CALLED WHEN OVERFLOW OCCURRED ANYWHERE IN GUIDANCE.)
000593:
000594: 31,3171           11656        EXGSUB             CCS      NGUIDSUB
000595: 31,3172           12476                           TCF      GUIDSUB
000596: 31,3173           25655                           INCR     NIGNLOOP
000597: 31,3174           45022                           CS       BIT5
000598: 31,3175           61655                           AD       NIGNLOOP
000599: 31,3176           00006                           EXTEND
000600: 31,3177           63202                           BZMF     +3
000601: 31,3200           05646                           TC       ALARM
000602: 31,3201           01412                           OCT      01412
000603:
000604: 31,3202           06014                 +3        TC       INTPRET
000605: 31,3203           77650                           GOTO
000606: 31,3204           64762                                    DDUMCALC
000607:
000608: 31,3205           06014        EXBRAK             TC       INTPRET
000609: 31,3206           52175                           VLOAD    GOTO
000610: 31,3207           03524                                    UNIT/R/
000611: 31,3210           63256                                    STEER?
000612:
000613: 31,3211           06014        EXNORM             TC       INTPRET
000614: 31,3212           52375                           VLOAD    VSU
000615: 31,3213           03630                                    LAND
000616: 31,3214           03476                                    R
000617: 31,3215           77634                           RTB
000618: 31,3216           21672                                    NORMUNIT
000619: 31,3217           00025                           STORE    20D                                   #  UNIT(LAND - R) IS TENTATIVE CHOICE
000620: 31,3220           50235                           VXV      DOT
000621: 31,3221           02150                                    XNBPIP
000622: 31,3222           02407                                    CG         +6
000623: 31,3223           00023                           STORE    18D                                   #  PROJ 1/8 REAL SIZE
000624: 31,3224           50025                           DSU      BMN
000625: 31,3225           23711                                    PROJMAX
000626: 31,3226           63232                                    +4
000627: 31,3227           52175                           VLOAD    GOTO
000628: 31,3230           00025                                    20D
000629: 31,3231           63256                                    STEER?
000630: 31,3232           77745                           DLOAD
000631: 31,3233           00023                                    18D
000632: 31,3234           51025                           DSU      BPL
000633: 31,3235           23713                                    PROJMIN
000634: 31,3236           63242                                    +4
000635: 31,3237           52175                           VLOAD    GOTO
000636: 31,3240           02415                                    CG         +12D
000637: 31,3241           63256                                    STEER?
000638: 31,3242           45345                           DLOAD    DSU
000639: 31,3243           00023                                    18D
000640: 31,3244           23711                                    PROJMAX
000641: 31,3245           65361                           VXSC     PDDL
000642: 31,3246           02415                                    CG         +12D
000643: 31,3247           00023                                    18D
000644: 31,3250           74225                           DSU      VXSC
000645: 31,3251           23713                                    PROJMIN
000646: 31,3252           00025                                    20D
000647: 31,3253           77651                           VSU
000648: 31,3254           77741                           V/SC
000649: 31,3255           23715                                    PROJDIV
000650:
000651: 31,3256           03256        STEER?             STORE    UNWC/2
000652: 31,3257           77414                           BOFF     EXIT                                  #  IF STEERSW DOWN NO OUTPUTS
000653: 31,3260           01344                                    STEERSW
000654: 31,3261           63274                                    DISPEXIT   -1
000655:
000656: 31,3262           30121        EXVERT             CA       OVFIND                                #  IF OVERFLOW ANYWHERE IN GUIDANCE
000657: 31,3263           00006                           EXTEND                                         #    DON'T CALL THROTTLE OR FINDCDUW
000658: 31,3264           13270                           BZF      +4
000659:
000660: 31,3265           05646        EXOVFLOW           TC       ALARM                                 #  SOUND THE ALARM NON-ABORTIVELY.
000661: 31,3266           01410                           OCT      01410
000662:
000663: 31,3267           13275                           TCF      DISPEXIT
000664:
000665: 31,3270           02235        GDUMP1             TC       THROTTLE
000666: 31,3271           06014                           TC       INTPRET
000667: 31,3272           77624                           CALL
000668: 31,3273           61220                                    FINDCDUW   -2
000669: 31,3274           77776                           EXIT
000670:
000671:                                                                                                  #                                                    (CONTINUE TO DISPEXIT)
000672:
000673:
000674:                                                                                                  #  ****************************************************************************************************************
000675:                                                                                                  #  GUIDANCE LOOP DISPLAYS
000676:                                                                                                  #  ****************************************************************************************************************
000677:
000678: 31,3275           00006        DISPEXIT           EXTEND                                         #  KILL GROUP 2:  DISPLAYS WILL BE
000679: 31,3276           35030                           DCA      NEG0                                  #    RESTORED BY NEXT GUIDANCE CYCLE
000680: 31,3277           52755                           DXCH     -PHASE2
000681:
000682: 31,3300           40104                           CS       FLAGWRD8                              #  IF FLUNDISP SET, NO DISPLAY THIS PASS
000683: 31,3301           75015                           MASK     FLUNDBIT
000684: 31,3302           00006                           EXTEND
000685: 31,3303           13311                           BZF      ENDLLJOB                              #  TO PICK UP THE TAG
000686:
000687: 31,3304           51606                           INDEX    WCHPHASE
000688: 31,3305           07777                           TCF      0          -1
000689:
000690: 31,3306           33716        P63DISPS           CAF      V06N63
000691: 31,3307           04655        DISPCOMN           TC       BANKCALL
000692: 31,3310           20364                           CADR     GODSPR
000693:
000694: 31,3311           15225        ENDLLJOB           TCF      ENDOFJOB
000695:
000696: 31,3312           40102        P64DISPS           CS       FLAGWRD6                              #  NO:   IS REDFLAG SET?
000697: 31,3313           75021                           MASK     REDFLBIT
000698: 31,3314           00006                           EXTEND
000699: 31,3315           13333                           BZF      REDES-OK                              #  YES:  DO STATIC DISPLAY
000700:
000701: 31,3316           33717                           CAF      V06N64                                #  OTHERWISE USE FLASHING DISPLAY
000702: 31,3317           04655                           TC       BANKCALL
000703:
000704: 31,3320           20375                           CADR     REFLASHR
000705: 31,3321           14106                           TCF      GOTOPOOH                              #  TERMINATE
000706: 31,3322           13325                           TCF      P64CEED                               #  PROCEED    PERMIT REDESIGNATIONS
000707: 31,3323           13312                           TCF      P64DISPS                              #  RECYCLE
000708:
000709: 31,3324           13311                           TCF      ENDLLJOB                              #  TO PICK UP THE TAG
000710:
000711: 31,3325           35030        P64CEED            CAF      ZERO
000712: 31,3326           55653                           TS       ELINCR1
000713: 31,3327           55654                           TS       AZINCR1
000714:
000715: 31,3330           05563                           TC       UPFLAG                                #  ENABLE REDESIGNATION LOGIC
000716: 31,3331           00143                           ADRES    REDFLAG
000717:
000718: 31,3332           15225                           TCF      ENDOFJOB
000719:
000720: 31,3333           33717        REDES-OK           CAF      V06N64
000721: 31,3334           13307                           TCF      DISPCOMN
000722:
000723:
000724: 31,3335           35024        VERTDISP           CAF      FOUR
000725: 31,3336           04655                           TC       BANKCALL
000726: 31,3337           66736                           CADR     ALTCHK
000727: 31,3340           13350                           TCF      VERTDSP2
000728:
000729: 31,3341           33720                           CAF      V06N60
000730: 31,3342           04655                           TC       BANKCALL
000731: 31,3343           20375                           CADR     REFLASHR
000732: 31,3344           14106                           TCF      GOTOPOOH
000733: 31,3345           12000                           TCF      LANDJUNK
000734: 31,3346           13335                           TCF      VERTDISP
000735:
000736: 31,3347           13311                           TCF      ENDLLJOB
000737:
000738: 31,3350           33720        VERTDSP2           CAF      V06N60
000739: 31,3351           13307                           TCF      DISPCOMN
000740:
000741:                                                                                                  #  ****************************************************************************************************************
000742:                                                                                                  #  GUIDANCE FOR VERTICAL DESCENT
000743:                                                                                                  #  ****************************************************************************************************************
000744:
000745: 31,3352           11656        VERTGUID           CCS      WCHVERT
000746: 31,3353           13275                           TCF      DISPEXIT                              #  POSITIVE   P67, WHICH SKIPS ALL GUIDANCE
000747: 31,3354           13371                           TCF      P66VERT                               #  +0
000748:
000749:                                                                                                  #           THE P65 GUIDANCE EQUATION IS AS FOLLOWS:-
000750:
000751:                                                                                                  #                            -         -
000752:                                                                                                  #                      -     VDGVERT - VGU          -
000753:                                                                                                  #                      ACG = -------------  , WHERE VDGVERT = (-3FPS,0,0)
000754:                                                                                                  #                               TAUVERT
000755:
000756: 31,3355           00006        P65VERT            EXTEND                                         #  NEGATIVE
000757: 31,3356           43703                           DCS      +3FPS
000758: 31,3357           53654                           DXCH     VDGVERT
000759: 31,3360           06014                           TC       INTPRET
000760: 31,3361           65375                           VLOAD    PDDL
000761: 31,3362           06233                                    ZEROVECS
000762: 31,3363           03654                                    VDGVERT
000763: 31,3364           52266                           VDEF     VSU                                   #  FORM (VDGVERT,0,0), LEAVING DP 0 IN PDL
000764: 31,3365           03614                                    VGU
000765:
000766: 31,3366           52141                           V/SC     GOTO
000767: 31,3367           23657                                    TAUVERT
000768: 31,3370           63136                                    AFCCALC1
000769:
000770:
000771:                                                                                                  #           THE R.O.D. EQUATION IS AS FOLLOWS:-
000772:
000773:                                                                                                  #                             (VDGVERTX - VGUX)/TAUVERT - GMOON
000774:                                                                                                  #                     /AFC/ = ---------------------------------
000775:                                                                                                  #                                       UNIT/R/ . XNB
000776:
000777: 31,3371           57655        P66VERT            XCH      RODCOUNT                              #  RESTART COULD CAUSE RODCOUNTS TO BE LOST
000778: 31,3372           00006                           EXTEND
000779: 31,3373           73701                           MP       +1FPS
000780: 31,3374           21654                           DAS      VDGVERT
000781: 31,3375           03562                           TC       FASTCHNG
000782: 31,3376           06014                           TC       INTPRET
000783: 31,3377           45345                           DLOAD    DSU
000784: 31,3400           03654                                    VDGVERT
000785: 31,3401           03614                                    VGU
000786: 31,3402           45271                           DDV      DSU
000787: 31,3403           23661                                    TAUROD
000788: 31,3404           23700                                    MOONG
000789: 31,3405           50315                           PDVL     DOT                                   #  HAVE ACC IN UNITS OF 2(-2) M/CS/CS
000790: 31,3406           02150                                    XNBPIP
000791: 31,3407           03524                                    UNIT/R/
000792: 31,3410           45465                           BDDV     STADR
000793: 31,3411           74207                           STORE    /AFC/
000794: 31,3412           77404                           BOVB     EXIT
000795: 31,3413           63265                                    EXOVFLOW
000796: 31,3414           02235                           TC       THROTTLE
000797: 31,3415           13275                           TCF      DISPEXIT
000798:
000799:
000800:                                                                                                  #  ****************************************************************************************************************
000801:                                                                                                  #  REDESIGNATOR TRAP
000802:                                                                                                  #  ****************************************************************************************************************
000803:
000804: 21,2000                                           BANK     21
000805: 21,2000                                           SETLOC   F2DPS*21
000806: 21,2000                                           BANK
000807:
000808: 21,2000                                           COUNT*   $$/F2DPS
000809:
000810: 21,2000           56016        PITFALL            XCH      BANKRUPT
000811: 21,2001           00006                           EXTEND
000812: 21,2002           22012                           QXCH     QRUPT
000813:
000814: 21,2003           05365                           TC       CHECKMM                               #  IF NOT IN P64, NO REASON TO CONTINUE
000815: 21,2004           00100                           DEC      64         B-14
000816:
000817: 21,2005           15330                           TCF      RESUME
000818:
000819: 21,2006           00006                           EXTEND
000820: 21,2007           00031                           READ     CHAN31
000821: 21,2010           40000                           COM
000822: 21,2011           72071                           MASK     ALL4BITS
000823: 21,2012           55656                           TS       ELVIRA
000824: 21,2013           35025                           CAF      TWO
000825: 21,2014           55655                           TS       ZERLINA
000826: 21,2015           35031                           CAF      FIVE
000827: 21,2016           05243                           TC       TWIDDLE
000828: 21,2017           02024                           ADRES    REDESMON
000829: 21,2020           15330                           TCF      RESUME
000830:


000832:
000833:                                                                                                  #  REDESIGNATION MONITOR (INITIATED BY PITFALL)
000834:
000835:
000836: 21,2021           55655        PREMON1            TS       ZERLINA
000837: 21,2022           35032        PREMON2            CAF      SEVEN
000838: 21,2023           05274                           TC       VARDELAY
000839: 21,2024           00006        REDESMON           EXTEND
000840: 21,2025           00031                           READ     31
000841: 21,2026           40000                           COM
000842: 21,2027           72071                           MASK     ALL4BITS
000843: 21,2030           57656                           XCH      ELVIRA
000844: 21,2031           54001                           TS       L
000845: 21,2032           11656                           CCS      ELVIRA                                #  DO ANY BITS APPEAR THIS PASS?
000846: 21,2033           12022                           TCF      PREMON2                               #    Y: CONTINUE MONITOR
000847:
000848: 21,2034           10001                           CCS      L                                     #    N: ANY LAST PASS?
000849: 21,2035           12044                           TCF      COUNT'EM                              #       Y: COUNT 'EM, RESET RUPT, TERMINATE
000850: 21,2036           11655                           CCS      ZERLINA                               #       N: HAS ZERLINA REACHED ZERO YET?
000851: 21,2037           12021                           TCF      PREMON1                               #          N: DIMINISH ZERLINA, CONTINUE
000852: 21,2040           35013        RESETRPT           CAF      BIT12                                 #          Y: RESET RUPT, TERMINATE
000853: 21,2041           00006                           EXTEND
000854: 21,2042           05013                           WOR      CHAN13
000855: 21,2043           15321                           TCF      TASKOVER
000856:
000857: 21,2044           30001        COUNT'EM           CA       L
000858: 21,2045           75021                           MASK     -AZBIT
000859: 21,2046           10000                           CCS      A
000860: 21,2047           42072        -AZ                CS       AZEACH
000861: 21,2050           27654                           ADS      AZINCR1
000862: 21,2051           30001                           CA       L
000863: 21,2052           75022                           MASK     +AZBIT
000864: 21,2053           10000                           CCS      A
000865: 21,2054           32072        +AZ                CA       AZEACH
000866: 21,2055           27654                           ADS      AZINCR1
000867: 21,2056           30001                           CA       L
000868:
000869: 21,2057           75026                           MASK     -ELBIT
000870: 21,2060           10000                           CCS      A
000871: 21,2061           42073        -EL                CS       ELEACH
000872: 21,2062           27653                           ADS      ELINCR1
000873: 21,2063           30001                           CA       L
000874: 21,2064           75025                           MASK     +ELBIT
000875: 21,2065           10000                           CCS      A
000876: 21,2066           32073        +EL                CA       ELEACH
000877: 21,2067           27653                           ADS      ELINCR1
000878: 21,2070           12040                           TCF      RESETRPT
000879:
000880:
000881:                                                                                                  #  THESE EQUIVALENCIES ARE BASED ON GSOP CHAPTER 4, REVISION 16 OF P64LM
000882:
000883: 21,2071     5025               +ELBIT             =        BIT2                                  #  -PITCH
000884:
000885:
000886: 21,2071     5026               -ELBIT             =        BIT1                                  #  +PITCH
000887:
000888:
000889: 21,2071     5022               +AZBIT             =        BIT5
000890:
000891:
000892: 21,2071     5021               -AZBIT             =        BIT6
000893:
000894: 21,2071           00063        ALL4BITS           OCT      00063
000895:
000896:
000897: 21,2072           01074        AZEACH             DEC      .03491                                #  2 DEGREES
000898:
000899:
000900: 21,2073           00217        ELEACH             DEC      .00873                                #  1/2 DEGREE
000901:
000902:
000903:                                                                                                  #  ****************************************************************************************************************
000904:                                                                                                  #  R.O.D. TRAP
000905:                                                                                                  #  ************************************************************************
000906:
000907: 21,2074                                           BANK     21
000908: 21,2000                                           SETLOC   RODTRAP
000909: 21,2000                                           BANK
000910: 21,2074                                           COUNT*   $$/F2DPS                              #  ****************************************
000911:
000912: 21,2074           75020        DESCBITS           MASK     BIT7                                  #  COME HERE FROM MARKRUPT CODING WITH BIT
000913: 21,2075           10000                           CCS      A                                     #    7 OR 6 OF CHANNEL 16 IN A: BIT 7 MEANS
000914: 21,2076           45025                           CS       TWO                                   #    - RATE INCREMENT, BIT 6 + INCREMENT
000915: 21,2077           65026                           AD       ONE
000916: 21,2100           27655                           ADS      RODCOUNT
000917:
000918: 21,2101           15330                           TCF      RESUME                                #  TRAP IS RESET WHEN SWITCH IS RELEASED
000919:


000921:
000922:
000923: 31,3416                                           BANK     31
000924: 31,2000                                           SETLOC   F2DPS*31
000925: 31,2000                                           BANK
000926:
000927: 31,3416                                           COUNT*   $$/F2DPS
000928:
000929:                                                                                                  #  ****************************************************************************************************************
000930:                                                                                                  #  DOUBLE PRECISION ROOT FINDER SUBROUTINE (BY ALLAN KLUMPP)
000931:                                                                                                  #  ****************************************************************************************************************
000932:
000933:                                                                                                  #                                                          N        N-1
000934:                                                                                                  #           ROOTPSRS FINDS ONE ROOT OF THE POWER SERIES A X  + A   X    + ... + A X + A
000935:                                                                                                  #                                                        N      N-1              1     0
000936:
000937:                                                                                                  #  USING NEWTON'S METHOD STARTING WITH AN INITIAL GUESS FOR THE ROOT.  THE ENTERING DATA MUST BE AS FOLLOWS:
000938:
000939:                                                                                                  #                                          A        SP     LOC-3            ADRES FOR REFERENCING PWR COF TABL
000940:                                                                                                  #                                          L        SP     N-1              N IS THE DEGREE OF THE POWER SERIES
000941:                                                                                                  #                                          MPAC     DP     X                INITIAL GUESS FOR ROOT
000942:
000943:                                                                                                  #                                          LOC-2N   DP     A(0)
000944:                                                                                                  #                                                   ...
000945:                                                                                                  #                                          LOC      DP     A(N)
000946:                                                                                                  #                                          LOC+2    SP     PRECROOT         PREC RQD OF ROOT (AS FRACT OF 1ST GUESS)
000947:
000948:                                                                                                  #  THE DP RESULT IS LEFT IN MPAC UPON EXIT, AND A SP COUNT OF THE ITERATIONS TO CONVERGENCE IS LEFT IN MPAC+2.
000949:                                                                                                  #  RETURN IS NORMALLY TO LOC(TC ROOTPSRS)+3.   IF ROOTPSRS FAILS TO CONVERGE IN 32 PASSES, RETURN IS TO LOC+1 AND
000950:                                                                                                  #  OUTPUTS ARE NOT TO BE TRUSTED.
000951:
000952:                                                                                                  #           PRECAUTION: ROOTPSRS MAKES NO CHECKS FOR OVERFLOW OR FOR IMPROPER USAGE. IMPROPER USAGE COULD
000953:                                                                                                  #  PRECLUDE CONVERGENCE OR REQUIRE EXCESSIVE ITERATIONS. AS A SPECIFIC EXAMPLE, ROOTPSRS FORMS A DERIVATIVE
000954:                                                                                                  #  COEFFICIENT TABLE BY MULTIPLYING EACH A(I) BY I, WHERE I RANGES FROM 1 TO N. IF AN ELEMENT OF THE DERIVATIVE
000955:                                                                                                  #  COEFFICIENT TABLE = 1 OR > 1 IN MAGNITUDE, ONLY THE EXCESS IS RETAINED. ROOTPSRS MAY CONVERGE ON THE CORRECT
000956:                                                                                                  #  ROOT NONETHELESS, BUT IT MAY TAKE AN EXCESSIVE NUMBER OF ITERATIONS. THEREFORE THE USER SHOULD RECOGNIZE:
000957:
000958:                                                                                                  #  1. USER'S RESPONSIBILITY TO ASSURE THAT I X A(I) < 1 IN MAGNITUDE FOR ALL I.
000959:
000960:                                                                                                  #  2. USER'S RESPONSIBILITY TO ASSURE OVERFLOW WILL NOT OCCUR IN EVALUATING EITHER THE RESIDUAL OR THE DERIVATIVE
000961:                                                                                                  #     POWER SERIES.   THIS OVERFLOW WOULD BE PRODUCED BY SUBROUTINE POWRSERS, CALLED BY ROOTPSRS, AND MIGHT NOT
000962:                                                                                                  #     PRECLUDE EVENTUAL CONVERGENCE.
000963:
000964:                                                                                                  #  3. AT PRESENT, ERASABLE LOCATIONS ARE RESERVED ONLY FOR N UP TO 5.  AN N IN EXCESS OF 5 WILL PRODUCE CHAOS.
000965:                                                                                                  #     ALL ERASABLES USED BY ROOTPSRS ARE UNSWITCHED LOCATED IN THE REGION FROM MPAC-33 OCT TO MPAC+7.
000966:
000967:                                                                                                  #  4. THE ITERATION COUNT RETURNED IN MPAC+2 MAY BE USED TO DETECT ABNORMAL PERFORMANCE.
000968:
000969:                                                                                                  #                                                                          STORE ENTERING DATA, INITLIZE ERASABLES
000970:
000971: 31,3416           00006        ROOTPSRS           EXTEND
000972: 31,3417           22132                           QXCH     RETROOT                               #  RETURN ADRES
000973: 31,3420           54117                           TS       PWRPTR                                #  PWR TABL POINTER
000974: 31,3421           52160                           DXCH     MPAC       +3                         #  PWR TABL ADRES, N-1
000975: 31,3422           33534                           CA       DERTABLL
000976: 31,3423           54141                           TS       DERPTR                                #  DER TABL POINTER
000977: 31,3424           54161                           TS       MPAC       +5                         #  DER TABL ADRES
000978: 31,3425           10160                           CCS      MPAC       +4                         #  NO POWER SERIES OF DEGREE 1 OR LESS
000979: 31,3426           54162                           TS       MPAC       +6                         #  N-2
000980: 31,3427           35030                           CA       ZERO                                  #  MODE USED AS ITERATION COUNTER. MODE
000981: 31,3430           54163                           TS       MODE                                  #  MUST BE POS SO ABS WON'T COMP MPAC+3 ETC
000982:
000983:                                                                                                  #  COMPUTE CRITERION TO STOP ITERATING
000984:
000985: 31,3431           00006                           EXTEND
000986: 31,3432           30155                           DCA      MPAC                                  #  FETCH ROOT GUESS, KEEPING IT IN MPAC
000987: 31,3433           52127                           DXCH     ROOTPS                                #  AND IN ROOTPS
000988: 31,3434           50157                           INDEX    MPAC       +3                         #  PWR TABL ADRES
000989: 31,3435           30005                           CA       5                                     #  PRECROOT TO A
000990: 31,3436           07261                           TC       SHORTMP                               #  YIELDS DP PRODUCT IN MPAC
000991: 31,3437           04766                           TC       USPRCADR
000992: 31,3440           01226                           CADR     ABS                                   #  YIELDS ABVAL OF CRITERION ON DX IN MPAC
000993: 31,3441           52155                           DXCH     MPAC
000994: 31,3442           52125                           DXCH     DXCRIT                                #  CRITERION
000995:
000996:                                                                                                  #  SET UP DER COF TABL
000997:
000998: 31,3443           00006                           EXTEND
000999: 31,3444           50117                           INDEX    PWRPTR
001000: 31,3445           30004                           DCA      3
001001: 31,3446           52155                           DXCH     MPAC                                  #  A(N) TO MPAC
001002:
001003: 31,3447           30160                           CA       MPAC       +4                         #  N-1 TO A
001004:
001005: 31,3450           54140        DERCLOOP           TS       PWRCNT                                #  LOOP COUNTER
001006: 31,3451           65026                           AD       ONE
001007: 31,3452           07270                           TC       DMPNSUB                               #  YIELDS DERCOF = I X A(I) IN MPAC
001008: 31,3453           00006                           EXTEND
001009: 31,3454           50117                           INDEX    PWRPTR
001010: 31,3455           30002                           DCA      1
001011: 31,3456           52155                           DXCH     MPAC                                  #  A(I-1) TO MPAC, FETCHING DERCOF
001012: 31,3457           50141                           INDEX    DERPTR
001013: 31,3460           52004                           DXCH     3                                     #  DERCOF TO DER TABL
001014: 31,3461           45025                           CS       TWO
001015: 31,3462           26117                           ADS      PWRPTR                                #  DECREMENT PWR POINTER
001016: 31,3463           45025                           CS       TWO
001017: 31,3464           26141                           ADS      DERPTR                                #  DECREMENT DER POINTER
001018: 31,3465           10140                           CCS      PWRCNT
001019: 31,3466           13450                           TCF      DERCLOOP
001020:
001021:
001022:                                                                                                  #  CONVERGE ON ROOT
001023:
001024: 31,3467           00006        ROOTLOOP           EXTEND
001025: 31,3470           30127                           DCA      ROOTPS                                #  FETCH CURRENT ROOT
001026: 31,3471           52155                           DXCH     MPAC                                  #  LEAVE IN MPAC
001027: 31,3472           00006                           EXTEND
001028: 31,3473           30162                           DCA      MPAC       +5                         #  LOAD A, L WITH DER TABL ADRES, N-2
001029: 31,3474           07171                           TC       POWRSERS                              #  YIELDS DERIVATIVE IN MPAC
001030:
001031: 31,3475           00006                           EXTEND
001032: 31,3476           30127                           DCA      ROOTPS
001033: 31,3477           52155                           DXCH     MPAC                                  #  CURRENT ROOT TO MPAC, FETCHING DERIVTIVE
001034: 31,3500           52131                           DXCH     BUF                                   #  LEAVE DERIVATIVE IN BUF AS DIVISOR
001035: 31,3501           00006                           EXTEND
001036: 31,3502           30160                           DCA      MPAC       +3                         #  LOAD A, L WITH PWR TABL ADRES, N-1
001037: 31,3503           07171                           TC       POWRSERS                              #  YIELDS RESIDUAL IN MPAC
001038:
001039: 31,3504           04766                           TC       USPRCADR
001040: 31,3505           00353                           CADR     DDV/BDDV                              #  YIELDS -DX IN MPAC
001041:
001042: 31,3506           00006                           EXTEND
001043: 31,3507           40155                           DCS      MPAC                                  #  FETCH DX, LEAVING -DX IN MPAC
001044: 31,3510           20127                           DAS      ROOTPS                                #  CORRECTED ROOT NOW IN ROOTPS
001045:
001046: 31,3511           04766                           TC       USPRCADR
001047: 31,3512           01226                           CADR     ABS                                   #  YIELDS ABS(DX) IN MPAC
001048: 31,3513           00006                           EXTEND
001049: 31,3514           40125                           DCS      DXCRIT
001050: 31,3515           20155                           DAS      MPAC                                  #  ABS(DX)-ABS(DXCRIT) IN MPAC
001051:
001052: 31,3516           24163                           INCR     MODE                                  #  INCREMENT ITERATION COUNTER
001053:
001054: 31,3517           10154                           CCS      MPAC                                  #  TEST HI ORDER DX
001055: 31,3520           13467                           TCF      ROOTLOOP
001056: 31,3521           13523                           TCF      TESTLODX
001057: 31,3522           13527                           TCF      ROOTSTOR
001058: 31,3523           10155        TESTLODX           CCS      MPAC       +1                         #  TEST LO ORDER DX
001059: 31,3524           13467                           TCF      ROOTLOOP
001060: 31,3525           13527                           TCF      ROOTSTOR
001061: 31,3526           13527                           TCF      ROOTSTOR
001062: 31,3527           52127        ROOTSTOR           DXCH     ROOTPS
001063: 31,3530           52155                           DXCH     MPAC
001064: 31,3531           30163                           CA       MODE
001065: 31,3532           54156                           TS       MPAC       +2                         #  STORE SP ITERATION COUNT IN MPAC+2
001066: 31,3533           00132                           TC       RETROOT
001067:
001068:
001069: 31,3534           00147        DERTABLL           ADRES    DERCOFN    -3
001070:
001071:                                                                                                  #  ****************************************************************************************************************
001072:                                                                                                  #  TRASHY LITTLE SUBROUTINES
001073:                                                                                                  #  ****************************************************************************************************************
001074:
001075: 31,3535           31635        TDISPSET           CA       TTF/8
001076: 31,3536           00006                           EXTEND
001077: 31,3537           75023                           MP       TSCALINV
001078: 31,3540           53522                           DXCH     TTFDISP
001079:
001080: 31,3541           31635                           CA       TTF/8
001081: 31,3542           00006                           EXTEND
001082: 31,3543           73654                           MP       SCTTFDSP
001083: 31,3544           54001                           TS       L
001084: 31,3545           63652                           AD       99+LINT
001085: 31,3546           00006                           EXTEND
001086: 31,3547           63560                           BZMF     +11
001087: 31,3550           40001                           CS       L
001088: 31,3551           63653                           AD       -LINT
001089: 31,3552           00006                           EXTEND
001090: 31,3553           63556                           BZMF     +3
001091: 31,3554           55702                           TS       TREDES
001092: 31,3555           00002                           TC       Q
001093:
001094: 31,3556           35030                           CA       ZERO
001095: 31,3557           13554                           TCF      -3
001096:
001097: 31,3560           33652                           CA       99+LINT
001098: 31,3561           13551                           TCF      -10
001099:
001100:
001101:                                                                                                  #  ****************************************************************************************************************
001102:                                                                                                  #  SPECIALIZED "PHASCHNG" SUBROUTINE
001103:                                                                                                  #  ****************************************************************************************************************
001104:
001105: 31,3562  E3,1440                                  EBANK=   PHSNAME2
001106: 31,3562           35057        FASTCHNG           CA       EBANK3                                #  SPECIALIZED 'PHASCHNG' ROUTINE
001107: 31,3563           56003                           XCH      EBANK
001108: 31,3564           52002                           DXCH     L
001109: 31,3565           55440                           TS       PHSNAME2
001110: 31,3566           22003                           LXCH     EBANK
001111:
001112: 31,3567  E7,1606                                  EBANK=   E2DPS
001113: 31,3567           00000                           TC       A
001114:
001115:
001116:                                                                                                  #  ****************************************************************************************************************
001117:                                                                                                  #  PARAMETER TABLE INDIRECT ADDRESSES
001118:                                                                                                  #  ****************************************************************************************************************
001119:
001120: 31,3570  31,3576               RDG                =        RBRFG
001121: 31,3570  31,3604               VDG                =        VBRFG
001122: 31,3570  31,3570               ADG                =        ABRFG
001123: 31,3570  31,3612               VDG2TTF            =        VBRFG*
001124: 31,3570  31,3614               ADG2TTF            =        ABRFG*
001125: 31,3570  31,3616               JDG2TTF            =        JBRFG*
001126:
001127:                                                                                                  #  ****************************************************************************************************************
001128:                                                                                                  #  LUNAR LANDING CONSTANTS
001129:                                                                                                  #  ***************************************************************************************************************
001130:
001131:                                                                                                  #           LUNAR LANDING TARGET PARAMETERS
001132:
001133: 31,3570           77767 40017  ABRFG              2DEC*    -3.43285501 E-5        B+4
001134: 31,3572           00000 00000                     2DEC*    +0.00000000 E+0        B+4*
001135: 31,3574           77670 42003                     2DEC*    -2.74418853 E-4        B+4*
001136:
001137: 31,3576           00003 01474  RBRFG              2DEC*    +3.12375000 E+3        B-24*
001138: 31,3600           00000 00000                     2DEC*    +0.00000000 E+0        B-24*
001139: 31,3602           77765 57010                     2DEC     -1.07834375 E+4        B-24*
001140:
001141: 31,3604           77770 43727  VBRFG              2DEC*    -4.92340088 E-1        B-10*
001142: 31,3606           00000 00000                     2DEC*    +0.00000000 E+0        B-10*
001143: 31,3610           00034 35205                     2DEC*    +1.80714798 E+0        B-10*
001144:
001145: 31,3612           00101 01653  VBRFG*             2DEC*    +4.06608200 E+0        B-10*
001146: 31,3614           77120 54025  ABRFG*             2DEC*    -1.64651359 E-3        B+4*
001147: 31,3616           77614 54061  JBRFG*             2DEC*    -2.69203326 E-8        B+18*
001148:
001149: 31,3620           00000 14622  AAPFG              2DEC*    +1.52399999 E-6        B+4*
001150: 31,3622           00000 00000                     2DEC*    +0.00000000 E+0        B+4*
001151: 31,3624           77772 71633                     2DEC*    -1.98119999 E-5        B+4*
001152:
001153: 31,3626           00000 00570  RAPFG              2DEC*    +2.35092239 E+1        B-24*
001154: 31,3630           00000 00000                     2DEC*    +0.00000000 E+0        B-24*
001155: 31,3632           77777 77767                     2DEC*    -5.28319999 E-1        B-24*
001156:
001157: 31,3634           77777 73122  VAPFG              2DEC*    -9.44879999 E-3        B-10*
001158: 31,3636           00000 00000                     2DEC*    +0.00000000 E+0        B-10*
001159: 31,3640           00000 02017                     2DEC*    +3.96239999 E-3        B-10*
001160:
001161: 31,3642           00000 04441  VAPFG*             2DEC*    +8.91539999 E-3        B-10*
001162: 31,3644           77740 72650  AAPFG*             2DEC*    -1.18871999 E-4        B+04*
001163: 31,3646           00547 23052  JAPFG*             2DEC*    +8.37250411 E-8        B+18*
001164:
001165: 31,3650           01553        TABLTTFL           ADRES    TABLTTF    +3                         #  ADDRESS FOR REFERENCING TTF TABLE
001166: 31,3651           00002                           DEC      2          B-14                       #  DEGREE - ONE
001167:
001168:
001169: 31,3652     5023               TSCALINV           =        BIT4
001170:
001171:
001172: 31,3652           00167        99+LINT            DEC      +119       B-14
001173:
001174:
001175: 31,3653           77753        -LINT              DEC      -20        B-14
001176:
001177:
001178: 31,3654           02437        SCTTFDSP           DEC      .08                                   #  RESCALES FROM 2(-17) CS TO WHOLE SECONDS
001179:
001180:
001181: 31,3655           00550        360DEGS            DEC      +360       B-14
001182:
001183:
001184: 31,3656           01130 00000  TAUVERT            2DEC     600        B-14
001185:
001186:
001187: 31,3660           02260 00000  TAUROD             2DEC     300        B-12
001188:
001189:
001190: 31,3662           01440 00000  GSCALE             2DEC     100        B-11
001191:
001192:
001193: 31,3664           14000        3/8                DEC      .375000000
001194:
001195:
001196: 31,3665           25252 25253  2/3DP              2DEC     .666666667
001197:
001198:
001199: 31,3667           30000 00000  3/4DP              2DEC     .750000000
001200:
001201:
001202: 31,3671           00000 00000  WMREF              2DEC     0.0
001203: 31,3673           00162 12155                     2DEC*    .26616994890062991 E-7        B+18*           #  RAD/CS.
001204: 31,3675           00000 00000                     2DEC     0.0
001205:
001206:
001207: 31,3677           77765 53556  MOONG              2DEC     -1.6226    E-4        B2
001208:
001209:
001210: 31,3701           01437        +1FPS              DEC      .3048      E-2        B+4
001211:
001212:
001213: 31,3702           00000 04535  +3FPS              2DEC     +0.9144    E-2        B-10
001214:
001215:
001216: 31,3704           00000 07633  +5FPS              2DEC     +1.524     E-2        B-10
001217:
001218:
001219: 31,3706           77656 42436  DEPRCRIT           2DEC     -.02       B-2                        #  DEPRESSION ANGLE CRITERION
001220:
001221:
001222: 31,3710           01541 20646  PROJMAX            2DEC     .42262     B-3                        #  SIN(25')/8 TO COMPARE WITH PROJ
001223:
001224:
001225: 31,3712           01022 02016  PROJMIN            2DEC     .25882     B-3                        #  SIN(15')/8 TO COMPARE WITH PROJ
001226:
001227:
001228: 31,3714           00517 16630  PROJDIV            2DEC     .1638      B-3
001229:
001230:
001231: 31,3716           01477        V06N63             VN       0663                                  #  P63
001232:
001233: 31,3717           01500        V06N64             VN       0664                                  #  P64
001234:
001235: 31,3720           01474        V06N60             VN       0660                                  #  P65, P66, P67
001236:
001237:                                                                                                  #  ****************************************************************************************************************
001238:                                                                                                  #  ****************************************************************************************************************

End of include-file LUNAR_LANDING_GUIDANCE_EQUATIONS.agc.  Parent file is MAIN.agc


