
Source Code


000002:                                                                                                  ## Copyright:   Public domain.
000003:                                                                                                  ## Filename:    P-AXIS_RCS_AUTOPILOT.agc
000004:                                                                                                  ## Purpose:     A section of a reconstructed, mixed version of Sundance
000005:                                                                                                  ##              It is part of the reconstructed source code for the Lunar
000006:                                                                                                  ##              Module's (LM) Apollo Guidance Computer (AGC) for Apollo 9.
000007:                                                                                                  ##              No original listings of this program are available;
000008:                                                                                                  ##              instead, this file was created via disassembly of dumps
000009:                                                                                                  ##              of various revisions of Sundance core rope modules.
000010:                                                                                                  ## Assembler:   yaYUL
000011:                                                                                                  ## Contact:     Ron Burkey <info@sandroid.org>.
000012:                                                                                                  ## Website:     www.ibiblio.org/apollo/index.html
000013:                                                                                                  ## Mod history: 2020-06-17 MAS  Created from Luminary 69.
000014:
000015:                                                                                                  ## Sundance 302
000016:
000017: 16,2444                                           BANK     16
000018: 16,2000                                           SETLOC   DAPS1
000019: 16,2000                                           BANK
000020:
000021: 16,2444  E6,1450                                  EBANK=   PERROR
000022: 16,2444                                           COUNT*   $$/DAPP
000023:
000024:                                                                                                  #  THE FOLLOWING T5RUPT ENTRY BEGINS THE PROGRAM WHICH CONTROLS THE P-AXIS ACTION OF THE LEM USING THE RCS JETS.
000025:                                                                                                  #  THE NOMINAL TIME BETWEEN THE P-AXIS RUPTS IS 100 MS IN ALL NON-IDLING MODES OF THE DAP.
000026:
000027: 16,2444           37701        PAXIS              CA       MS100
000028: 16,2445           54030                           TS       TIME5                                 #  *** NECESSARY IN ORDER TO ALLOW SYN-
000029:                                                                                                  #  CHRONIZATION WITH OTHER INTERRUPTS ***
000030:
000031: 16,2446           22016                           LXCH     BANKRUPT                              #  INTERRUPT LEAD IN (CONTINUED)
000032: 16,2447           00006                           EXTEND
000033: 16,2450           22012                           QXCH     QRUPT
000034:
000035:                                                                                                  #  CHECK IF DAP PASS IS PERMISSIBLE
000036:
000037: 16,2451           11752                           CCS      DAPZRUPT                              #  IF DAPZRUPT POSITIVE, DAP (JASK) IS
000038: 16,2452           05713                           TC       ABORT                                 #     STILL IN PROGRESS AND A RESTART IS
000039: 16,2453           02000                           OCT      02000                                 #    CALLED FOR.  IT IS NEVER ZERO.
000040:
000041: 16,2454           02043                           TC       CHEKBITS                              #  RETURN IS TO I+1 IF DAP SHOULD STAY ON.
000042:
000043:                                                                                                  #  ***** KALCMANU-DAP AND "RATE-HOLD"-DAP INTERFACE *****
000044:
000045:                                                                                                  #  THE FOLLOWING SECTION IS EXECUTED EVERY 100 MS (10 TIMES A SECOND) WITHIN THE P-AXIS REACTION CONTROL SYSTEM
000046:                                                                                                  #  AUTOPILOT (WHENEVER THE DAP IS IN OPERATION).
000047:
000048: 16,2455           31632                           CA       CDUXD
000049: 16,2456           00006                           EXTEND
000050: 16,2457           21635                           MSU      DELCDUX
000051: 16,2460           02475                           TC       1STOTWOS
000052: 16,2461           55632                           TS       CDUXD
000053: 16,2462           31633                           CA       CDUYD
000054: 16,2463           00006                           EXTEND
000055: 16,2464           21636                           MSU      DELCDUY
000056: 16,2465           02475                           TC       1STOTWOS
000057: 16,2466           55633                           TS       CDUYD
000058: 16,2467           31634                           CA       CDUZD
000059: 16,2470           00006                           EXTEND
000060: 16,2471           21637                           MSU      DELCDUZ
000061: 16,2472           02475                           TC       1STOTWOS
000062: 16,2473           55634                           TS       CDUZD
000063:                                                                                                  #  RATELOOP COMPUTES JETRATEQ, JETRATER, AND 1JACC*NO. PJETS IN ITEMP1.
000064:                                                                                                  #   RETURNS TO BACKP.
000065:
000066:                                                                                                  #   JETRATE = 1JACC*NO.PJETS*TJP   (NOTE TJ IS THE TIME FIRED DURING CSP)
000067:                                                                                                  #   JETRATEQ = 1JACCQ(TJU*NO.UJETS - TJV*NO.VJETS)
000068:                                                                                                  #   JETRATER = 1JACCR(TJU*NO.UJETS + TJV*NO.VJETS)
000069:
000070: 16,2474           13705                           TCF      RATELOOP
000071: 16,2475           10000        1STOTWOS           CCS      A
000072: 16,2476           65026                           AD       ONE
000073: 16,2477           00002                           TC       Q
000074: 16,2500           40000                           CS       A
000075: 16,2501           00002                           TC       Q
000076: 16,2502           00006        SUBDIVDE           EXTEND                                         #  OVERFLOW PROCTION ROUTINE TO GIVE
000077: 16,2503           71736                           MP       DAPTEMP3                              #  POSMAX OR NEGMAX IF THE DIVIDE WOULD
000078: 16,2504           21425                           DAS      OMEGAU                                #  OVERFLOW
000079:
000080: 16,2505           11424                 +3        CCS      OMEGAU
000081: 16,2506           12510                           TCF      +2
000082: 16,2507           12520                           TCF      DIVIDER
000083: 16,2510           62531                           AD       -OCT630
000084: 16,2511           00006                           EXTEND
000085: 16,2512           62520                           BZMF     DIVIDER
000086:
000087: 16,2513           11424                           CCS      OMEGAU
000088: 16,2514           35006                           CA       POSMAX                                #  45 DEG/SEC
000089: 16,2515           00002                           TC       Q
000090: 16,2516           45006                           CS       POSMAX
000091: 16,2517           00002                           TC       Q
000092:
000093: 16,2520           53425        DIVIDER            DXCH     OMEGAU
000094: 16,2521           00006                           EXTEND
000095: 16,2522           10061                           DV       ITEMP1
000096: 16,2523           00002                           TC       Q
000097:
000098: 16,2524           54007        OVERSUB            TS       7                                     #  RETURNS A UNCHANGED OR LIMITED TO
000099: 16,2525           00002                           TC       Q                                     #    POSMAX OR NEGMAX IF A HAS OVERFLOW
000100: 16,2526           50000                           INDEX    A
000101: 16,2527           45007                           CS       BIT15      -1
000102: 16,2530           00002                           TC       Q
000103:
000104: 16,2531           77147        -OCT630            OCT      77147
000105:
000106: 16,2532           31734        BACKP              CA       DAPTEMP1
000107: 16,2533           00006                           EXTEND
000108: 16,2534           71522                           MP       1JACC
000109: 16,2535           55742                           TS       JETRATE
000110:
000111:                                                                                                  #  BEGINNING OF THE RATE DERIVATION
000112:                                                                                                  #  OMEGAP,Q,R      BODY RATES SCALED AT PI/4
000113:                                                                                                  #  TRAPER,Q,R      BODY ANGLE ERRORS FROM PREDICTED ANGLE (PI/40)
000114:                                                                                                  #  NP(QR)TRAPS     NUMBER OF TIMES ANGLE ERROR HAS BEEN ACCUMULATED
000115:                                                                                                  #  AOSQ(R)TERM     CHANGE IN RATE DUE TO OFFSET ACCELLERATION.  (PI/4)
000116:                                                                                                  #  JETRATE,Q,R     CHANGE IN RATE DUE TO  JET   ACCELLERATION.  (PI/4)
000117:                                                                                                  #  TRAPSIZE        NEGATIVE LIMIT OF MAGNITUDE OF TRAPEDP, ECT.
000118:                                                                                                  #  OMEGAU          DP-TEMPORARY STORAGE
000119:                                                                                                  #      OMEGA = OMEGA + JETRATE + AOSTERM (+TRAPED/NTRAPS IF TRAPED BIG)
000120:
000121: 16,2536           30032                           CAE      CDUX
000122: 16,2537           54001                           TS       L
000123: 16,2540           00006                           EXTEND
000124: 16,2541           21436                           MSU      OLDXFORP                              #  SCALED AT PI
000125: 16,2542           23436                           LXCH     OLDXFORP
000126: 16,2543           55734                           TS       DAPTEMP1
000127: 16,2544           33664                           CA       1/40
000128: 16,2545           54061                           TS       ITEMP1
000129: 16,2546           41742                           CS       JETRATE
000130: 16,2547           00006                           EXTEND
000131: 16,2550           75011                           MP       BIT14
000132: 16,2551           27426                           ADS      TRAPEDP
000133: 16,2552           31743                           CA       JETRATEQ
000134: 16,2553           61540                           AD       AOSQTERM
000135: 16,2554           00006                           EXTEND
000136: 16,2555           77707                           MP       -BIT14
000137: 16,2556           27427                           ADS      TRAPEDQ
000138: 16,2557           31744                           CA       JETRATER
000139: 16,2560           61541                           AD       AOSRTERM
000140: 16,2561           00006                           EXTEND
000141: 16,2562           77707                           MP       -BIT14
000142: 16,2563           27430                           ADS      TRAPEDR
000143:
000144: 16,2564           30033                           CA       CDUY
000145: 16,2565           54001                           TS       L
000146: 16,2566           00006                           EXTEND
000147: 16,2567           21437                           MSU      OLDYFORP                              #  SCALED AT PI
000148: 16,2570           23437                           LXCH     OLDYFORP
000149: 16,2571           55735                           TS       DAPTEMP2
000150: 16,2572           00006                           EXTEND
000151: 16,2573           71412                           MP       M11                                   #  M11 SCALED AT 1
000152: 16,2574           61734                           AD       DAPTEMP1
000153: 16,2575           53425                           DXCH     OMEGAU
000154:
000155: 16,2576           02505                           TC       SUBDIVDE   +3                         #  RETURNS WITH CDU-RATE AT PI/4
000156:
000157: 16,2577           00006                           EXTEND
000158: 16,2600           61417                           SU       OMEGAP
000159: 16,2601           27426                           ADS      TRAPEDP
000160: 16,2602           02524                           TC       OVERSUB
000161: 16,2603           55426                           TS       TRAPEDP
000162: 16,2604           30034                           CA       CDUZ
000163: 16,2605           54001                           TS       L
000164: 16,2606           00006                           EXTEND
000165: 16,2607           21440                           MSU      OLDZFORQ
000166: 16,2610           55736                           TS       DAPTEMP3
000167: 16,2611           23440                           LXCH     OLDZFORQ
000168: 16,2612           31413                           CA       M21
000169: 16,2613           00006                           EXTEND
000170: 16,2614           71735                           MP       DAPTEMP2
000171: 16,2615           53425                           DXCH     OMEGAU
000172: 16,2616           31415                           CA       M22
000173: 16,2617           02502                           TC       SUBDIVDE
000174:
000175: 16,2620           00006                           EXTEND
000176: 16,2621           61420                           SU       OMEGAQ
000177: 16,2622           27427                           ADS      TRAPEDQ
000178: 16,2623           02524                           TC       OVERSUB
000179: 16,2624           55427                           TS       TRAPEDQ
000180: 16,2625           31414                           CA       M31
000181: 16,2626           00006                           EXTEND
000182: 16,2627           71735                           MP       DAPTEMP2
000183: 16,2630           53425                           DXCH     OMEGAU
000184: 16,2631           31416                           CA       M32
000185:
000186: 16,2632           02502                           TC       SUBDIVDE
000187:
000188: 16,2633           00006                           EXTEND
000189: 16,2634           61421                           SU       OMEGAR
000190: 16,2635           27430                           ADS      TRAPEDR
000191: 16,2636           02524                           TC       OVERSUB
000192: 16,2637           55430                           TS       TRAPEDR                               #  TRAPEDS HAVE ALL BEEN COMPUTED
000193: 16,2640           31102                           CA       DAPBOOLS                              #  PICK UP PAD LOADED STATE ESTIMATOR GAINS
000194: 16,2641           75012                           MASK     CSMDOCKD
000195: 16,2642           00006                           EXTEND
000196: 16,2643           12651                           BZF      LMONLY
000197: 16,2644           00006                           EXTEND                                         #  DOCKED
000198: 16,2645           31405                           DCA      DKOMEGAN
000199: 16,2646           52062                           DXCH     ITEMP1
000200: 16,2647           31403                           CA       DKTRAP
000201: 16,2650           12655                           TCF      +5
000202: 16,2651           00006        LMONLY             EXTEND                                         #  UNDOCKED
000203: 16,2652           31410                           DCA      LMOMEGAN
000204: 16,2653           52062                           DXCH     ITEMP1
000205: 16,2654           31406                           CA       LMTRAP
000206: 16,2655           54063                 +5        TS       ITEMP3
000207:
000208: 16,2656           11426                           CCS      TRAPEDP
000209: 16,2657           12661                           TCF      +2
000210: 16,2660           12676                           TCF      SMALPDIF
000211: 16,2661           60063                           AD       ITEMP3                                #  TRAPSIZE > ABOUT 77001 %-1.4DEG/SEC"
000212: 16,2662           00006                           EXTEND
000213: 16,2663           62676                           BZMF     SMALPDIF
000214: 16,2664           22007                           ZL
000215: 16,2665           23426                           LXCH     TRAPEDP
000216: 16,2666           35030                           CA       ZERO
000217: 16,2667           00006                           EXTEND
000218: 16,2670           11431                           DV       NPTRAPS
000219: 16,2671           27417                           ADS      OMEGAP
000220: 16,2672           02524                           TC       OVERSUB
000221: 16,2673           55417                           TS       OMEGAP
000222: 16,2674           30061                           CA       ITEMP1                                #  ABOUT 10 OR 0 FOR DOCKED OR UNDOCKED
000223: 16,2675           55431                           TS       NPTRAPS
000224: 16,2676           25431        SMALPDIF           INCR     NPTRAPS
000225: 16,2677           31742        P-RATE             CA       JETRATE
000226: 16,2700           27417                           ADS      OMEGAP
000227: 16,2701           02524                           TC       OVERSUB
000228: 16,2702           55417                           TS       OMEGAP
000229:
000230: 16,2703           11427                           CCS      TRAPEDQ
000231: 16,2704           12706                           TCF      +2
000232: 16,2705           12735                           TCF      Q-RATE
000233: 16,2706           60063                           AD       ITEMP3                                #  TRAPSIZE > ABOUT 77001 %-1.4DEG/SEC"
000234: 16,2707           00006                           EXTEND
000235: 16,2710           62735                           BZMF     Q-RATE
000236: 16,2711           22007                           ZL
000237: 16,2712           23427                           LXCH     TRAPEDQ
000238: 16,2713           35030                           CA       ZERO
000239: 16,2714           00006                           EXTEND
000240: 16,2715           11432                           DV       NQTRAPS
000241: 16,2716           55734                           TS       DAPTEMP1                              #  SAVE FOR OFFSET ESTIMATE
000242: 16,2717           27441                           ADS      SUMRATEQ
000243: 16,2720           31734                           CA       DAPTEMP1
000244: 16,2721           27420                           ADS      OMEGAQ
000245: 16,2722           02524                           TC       OVERSUB
000246: 16,2723           55420                           TS       OMEGAQ
000247: 16,2724           30061                           CA       ITEMP1                                #  ABOUT 10 OR 0 FOR DOCKED OR UNDOCKED
000248: 16,2725           57432                           XCH      NQTRAPS
000249: 16,2726           60062                           AD       ITEMP2                                #  KAOS > ABOUT 60D %N/N_60"
000250: 16,2727           57734                           XCH      DAPTEMP1
000251: 16,2730           00006                           EXTEND
000252: 16,2731           75031                           MP       FIVE
000253: 16,2732           00006                           EXTEND
000254: 16,2733           11734                           DV       DAPTEMP1
000255: 16,2734           27532                           ADS      AOSQ
000256: 16,2735           25432        Q-RATE             INCR     NQTRAPS
000257: 16,2736           31743                           CA       JETRATEQ
000258: 16,2737           61540                           AD       AOSQTERM
000259: 16,2740           27420                           ADS      OMEGAQ
000260: 16,2741           02524                           TC       OVERSUB
000261: 16,2742           55420                           TS       OMEGAQ
000262:
000263: 16,2743           11430                           CCS      TRAPEDR
000264: 16,2744           12746                           TCF      +2
000265: 16,2745           12775                           TCF      R-RATE
000266: 16,2746           60063                           AD       ITEMP3                                #  TRAPSIZE > ABOUT 77001 %-1.4DEG/SEC"
000267: 16,2747           00006                           EXTEND
000268: 16,2750           62775                           BZMF     R-RATE
000269: 16,2751           22007                           ZL
000270: 16,2752           23430                           LXCH     TRAPEDR
000271: 16,2753           35030                           CA       ZERO
000272: 16,2754           00006                           EXTEND
000273: 16,2755           11433                           DV       NRTRAPS
000274: 16,2756           55735                           TS       DAPTEMP2                              #  SAVE FOR OFFSET ESTIMATE
000275: 16,2757           27442                           ADS      SUMRATER
000276: 16,2760           31735                           CA       DAPTEMP2
000277: 16,2761           27421                           ADS      OMEGAR
000278: 16,2762           02524                           TC       OVERSUB
000279: 16,2763           55421                           TS       OMEGAR
000280: 16,2764           30061                           CA       ITEMP1                                #  ABOUT 10 OR 0 FOR DOCKED OR UNDOCKED
000281: 16,2765           57433                           XCH      NRTRAPS
000282: 16,2766           60062                           AD       ITEMP2                                #  KAOS > ABOUT 60D %N/N_60"
000283: 16,2767           57735                           XCH      DAPTEMP2
000284: 16,2770           00006                           EXTEND
000285: 16,2771           75031                           MP       FIVE
000286: 16,2772           00006                           EXTEND
000287: 16,2773           11735                           DV       DAPTEMP2
000288: 16,2774           27534                           ADS      AOSR
000289: 16,2775           25433        R-RATE             INCR     NRTRAPS
000290: 16,2776           31744                           CA       JETRATER
000291: 16,2777           61541                           AD       AOSRTERM
000292: 16,3000           27421                           ADS      OMEGAR
000293: 16,3001           02524                           TC       OVERSUB
000294: 16,3002           55421                           TS       OMEGAR
000295:
000296:                                                                                                  #  END OF RATE DERIVATION
000297:                                                                                                  #   BEGIN OFFSET ESTIMATER
000298:                                                                                                  #    IN POWERED FLIGHT, AOSTASK WILL BE CALLED EVERY 2 SECONDS.
000299:                                                                                                  #    AOS = AOS + K*SUMRATE
000300:
000301: 16,3003           41102                           CS       DAPBOOLS
000302: 16,3004           75017                           MASK     DRIFTBIT
000303: 16,3005           10000                           CCS      A
000304: 16,3006           13017                           TCF      WORKTIME
000305: 16,3007           55422                           TS       ALPHAQ                                #  ZERO THE OFFSET ACCELERATION VALUES.
000306: 16,3010           55423                           TS       ALPHAR
000307: 16,3011           55540                           TS       AOSQTERM
000308: 16,3012           55541                           TS       AOSRTERM
000309: 16,3013           55532                           TS       AOSQ
000310: 16,3014           55534                           TS       AOSR
000311: 16,3015           13041                           TCF      PAXFILT
000312: 16,3016           00074        KAOS               DEC      60         B-14
000313: 16,3017           31510        WORKTIME           CA       QACCDOT
000314: 16,3020           00006                           EXTEND
000315: 16,3021           75036                           MP       CALLCODE                              #  OCTAL 00032 IS DECIMAL .1 AT 2(6).
000316: 16,3022           21533                           DAS      AOSQ
000317: 16,3023           31532                           CA       AOSQ
000318: 16,3024           55422                           TS       ALPHAQ
000319: 16,3025           00006                           EXTEND
000320: 16,3026           73662                           MP       200MS                                 #  .2 AT 1
000321: 16,3027           55540                           TS       AOSQTERM
000322: 16,3030           31512                           CA       RACCDOT
000323: 16,3031           00006                           EXTEND
000324: 16,3032           75036                           MP       CALLCODE                              #  OCTAL 00032 IS DECIMAL .1 AT 2(6).
000325: 16,3033           21535                           DAS      AOSR
000326: 16,3034           31534                           CA       AOSR
000327: 16,3035           55423                           TS       ALPHAR
000328: 16,3036           00006                           EXTEND
000329: 16,3037           73662                           MP       200MS                                 #  .2 AT 1
000330: 16,3040           55541                           TS       AOSRTERM
000331:
000332: 16,3041           52011        PAXFILT            DXCH     ARUPT
000333: 16,3042           53747                           DXCH     DAPARUPT
000334: 16,3043           33054                           CA       SUPERJOB                              #  SETTING UP THE SUPERJOB
000335: 16,3044           56017                           XCH      BRUPT
000336: 16,3045           22012                           LXCH     QRUPT
000337: 16,3046           53751                           DXCH     DAPBQRPT
000338: 16,3047           33053                           CA       SUPERADR
000339: 16,3050           52016                           DXCH     ZRUPT
000340: 16,3051           53753                           DXCH     DAPZRUPT
000341: 16,3052           15335                           TCF      NOQBRSM    +1                         #  RELINT (JUST IN CASE) AND RESUME, IN THE
000342:                                                                                                  #    FORM OF A JASK, AT SUPERJOB.
000343:
000344: 16,3053           03055        SUPERADR           GENADR   SUPERJOB   +1
000345:
000346:                                                                                                  #  COUNT DOWN GIMBAL DRIVE TIMERS AND TURN OFF DRIVES IF REQUIRED.
000347:
000348: 16,3054           11626        SUPERJOB           CCS      QGIMTIMR                              #  Q-AXIS GIMBAL DRIVE TIMER
000349: 16,3055           13063                           TCF      DECQTIMR                              #    POSITIVE- COUNTING DOWN
000350: 16,3056           13067                           TCF      TURNOFFQ                              #    NEGATIVE- DRIVE SHOULD BE ENDED
000351: 16,3057           11630        CHKRTIMR           CCS      RGIMTIMR                              #    NEGATIVE- INACTIVE
000352: 16,3060           13065                           TCF      DECRTIMR                              #   (NEG ZERO - IMPOSSIBLE)
000353: 16,3061           13077                           TCF      TURNOFFR                              #  REPEATED (ABOVE) FOR R AXIS.
000354:
000355: 16,3062           01527                           TC       PJUMPADR
000356:
000357: 16,3063           55626        DECQTIMR           TS       QGIMTIMR                              #  COUNT TIMERS DOWN TO POS ZERO.
000358: 16,3064           13057                           TCF      CHKRTIMR
000359: 16,3065           55630        DECRTIMR           TS       RGIMTIMR
000360: 16,3066           13062                           TCF      CHKRTIMR   +3
000361:
000362: 16,3067           55500        TURNOFFQ           TS       NEGUQ                                 #  HALT DRIVES.
000363: 16,3070           55510                           TS       QACCDOT
000364: 16,3071           45057                           CS       QGIMBITS
000365: 16,3072           00006                           EXTEND
000366: 16,3073           03012                           WAND     CHAN12
000367: 16,3074           35010                           CAF      NEGMAX
000368: 16,3075           55626                           TS       QGIMTIMR
000369: 16,3076           13057                           TCF      CHKRTIMR
000370: 16,3077           55502        TURNOFFR           TS       NEGUR
000371: 16,3100           55512                           TS       RACCDOT
000372: 16,3101           45070                           CS       RGIMBITS
000373: 16,3102           00006                           EXTEND
000374: 16,3103           03012                           WAND     CHAN12
000375: 16,3104           35010                           CAF      NEGMAX
000376: 16,3105           55630                           TS       RGIMTIMR
000377: 16,3106           13062                           TCF      CHKRTIMR   +3
000378: 16,3107     5057               QGIMBITS           EQUALS   OCT1400                               #  BITS 9 AND 10 (OF CHANNEL 12).
000379: 16,3107     5070               RGIMBITS           EQUALS   PRIO6                                 #  BITS 11 AND 12 (OF CHANNEL 12).
000380: 16,3107           32234        SKIPPAXS           CA       CHKVISAD
000381: 16,3110           55527                           TS       PJUMPADR
000382: 16,3111           13670                           TCF      QRAXIS                                #  GO TO QRAXIS OR TO GTS.
000383:
000384:                                                                                                  #  Y-Z TRANSLATION
000385:
000386:                                                                                                  #  INPUT:   BITS 9-12 OF CH31 (FROM TRANSLATION CONTROLER)
000387:
000388:                                                                                                  #  OUTPUT:  NEXTP
000389:
000390:                                                                                                  #    NEXTP IS THE CHANNEL 6 CODE OF JETS FOR THE DESIRED TRANSLATION.
000391:                                                                                                  #    IF THERE ARE FAILURES IN THE DESIRED POLICY, THEN
000392:                                                                                                  #       (1) FOR DIAGONAL TRANS:  UNFAILED PAIR
000393:                                                                                                  #                                ALARM (IF NO PAIR)
000394:                                                                                                  #       (2) FOR PRINCIPAL TRANS: TRY TO TACK WITH DIAGONAL PAIRS
000395:                                                                                                  #                                ALARM (IF DIAGONAL PAIRS ARE FAILED)
000396:
000397: 16,3112           00006        CHKVISFZ           EXTEND
000398: 16,3113           00031                           READ     CHAN31
000399: 16,3114           40000                           CS       A
000400: 16,3115           73655                           MASK     07400OCT
000401: 16,3116           00006                           EXTEND
000402: 16,3117           13157                           BZF      TSNEXTP
000403: 16,3120           00006                           EXTEND
000404: 16,3121           75020                           MP       BIT7
000405: 16,3122           50000                           INDEX    A
000406: 16,3123           33634                           CA       INDXYZ
000407: 16,3124           55741                           TS       ROTINDEX
000408: 16,3125           36216        TRYUORV            CA       SIX
000409: 16,3126           03613                           TC       SELECTYZ
000410: 16,3127           46216                           CS       SIX
000411: 16,3130           61740                           AD       NUMBERT
000412: 16,3131           00006                           EXTEND
000413: 16,3132           13156                           BZF      TSNEXTP    -1
000414: 16,3133           45031                           CS       FIVE
000415: 16,3134           61741                           AD       ROTINDEX
000416: 16,3135           00006                           EXTEND
000417: 16,3136           63150                           BZMF     ALTERYZ
000418: 16,3137           41740                           CS       NUMBERT
000419: 16,3140           65024                           AD       FOUR
000420: 16,3141           00006                           EXTEND
000421: 16,3142           63156                           BZMF     TSNEXTP    -1
000422: 16,3143           05646        ABORTYZ            TC       ALARM
000423: 16,3144           02001                           OCT      02001
000424: 16,3145           25465                           INCR     ZEROOR1
000425: 16,3146           35030                           CA       ZERO
000426: 16,3147           13157                           TCF      TSNEXTP
000427: 16,3150           25465        ALTERYZ            INCR     ZEROOR1
000428: 16,3151           31465                           CA       ZEROOR1
000429: 16,3152           75026                           MASK     BIT1
000430: 16,3153           65024                           AD       FOUR
000431: 16,3154           27741                           ADS      ROTINDEX
000432: 16,3155           13125                           TCF      TRYUORV
000433: 16,3156           31736                           CA       POLYTEMP
000434: 16,3157           55460        TSNEXTP            TS       NEXTP
000435:
000436:                                                                                                  #  STATE LOGIC
000437:                                                                                                  #    CHECK IN ORDER:             IF ON
000438:                                                                                                  #    LPDPHASE                    GO TO PURGENCY
000439:                                                                                                  #    PULSES                      MINIMUM PULSE LOGIC
000440:                                                                                                  #    DETENT(BIT15 CH31)          RATE COMMAND
000441:                                                                                                  #    GO TO PURGENCY
000442:
000443: 16,3160           35012                           CA       BIT13                                 #  CHECK STICK IF IN ATT. HOLD.
000444: 16,3161           00006                           EXTEND
000445: 16,3162           02031                           RAND     CHAN31
000446: 16,3163           00006                           EXTEND
000447: 16,3164           13172                           BZF      MANMODE
000448:
000449: 16,3165           31102                           CA       DAPBOOLS
000450: 16,3166           75016                           MASK     XOVINHIB
000451: 16,3167           10000                           CCS      A
000452: 16,3170           13513                           TCF      PURGENCY                              #  ATTITUDE STEER DURING VISIBILITY PHASE
000453:
000454: 16,3171           13234                           TCF      DETENTCK
000455: 16,3172           35010        MANMODE            CA       PULSES                                #  PULSES IS ONE FOR PULSE MODE
000456: 16,3173           71102                           MASK     DAPBOOLS
000457: 16,3174           00006                           EXTEND
000458: 16,3175           13234                           BZF      DETENTCK                              #  BRANCH FOR RATE COMMAND
000459:
000460: 16,3176           35030                           CA       ZERO
000461: 16,3177           55450                           TS       PERROR
000462:
000463:                                                                                                  #  MINIMUM IMPULSE MODE
000464:
000465: 16,3200           30032                           CA       CDUX
000466: 16,3201           55632                           TS       CDUXD
000467:
000468: 16,3202           11443                           CCS      OLDPMIN
000469: 16,3203           13217                           TCF      CHECKP
000470:
000471: 16,3204           35024        FIREP              CA       BIT3
000472: 16,3205           00006                           EXTEND
000473: 16,3206           02031                           RAND     CHAN31
000474: 16,3207           00006                           EXTEND
000475: 16,3210           13227                           BZF      +XMIN
000476:
000477: 16,3211           35023                           CA       BIT4
000478: 16,3212           00006                           EXTEND
000479: 16,3213           02031                           RAND     CHAN31
000480: 16,3214           00006                           EXTEND
000481: 16,3215           13225                           BZF      -XMIN
000482:
000483: 16,3216           13472                           TCF      JETSOFF
000484:
000485: 16,3217           00006        CHECKP             EXTEND
000486: 16,3220           00031                           READ     CHAN31
000487: 16,3221           40000                           CS       A
000488: 16,3222           75743                           MASK     OCT14
000489: 16,3223           55443                           TS       OLDPMIN
000490: 16,3224           13472                           TCF      JETSOFF
000491:
000492: 16,3225           44375        -XMIN              CS       TEN                                   #  ANYTHING LESS THAN 14MS.  CORRECTED
000493: 16,3226           13230                           TCF      +2                                    #    IN JET SELECTION ROUTINE
000494: 16,3227           34375        +XMIN              CA       TEN
000495: 16,3230           55516                           TS       TJP
000496: 16,3231           35026                           CA       ONE
000497: 16,3232           55443                           TS       OLDPMIN
000498: 16,3233           13401                           TCF      PJETSLEC   -6
000499:
000500:                                                                                                  #                                        MANUAL RATE COMMAND MODE
000501:                                                                                                  #                                        ========================
000502:                                                                                                  #                                          BY ROBERT F. STENGEL
000503:
000504:                                                                                                  #  THIS MODE PROVIDES RCAH MANUAL CONTROL THRU 2 CONTROL LAWS:                    1) DIRECT RATE AND 2) PSEUDO-AUTO.
000505:                                                                                                  #  THE DIRECT RATE MODE AFFORDS IMMEDIATE CONTROL WITHOUT OVERSHOOT. THE PSEUDO-AUTO MODE PROVIDES PRECISE
000506:                                                                                                  #  RATE CONTROL AND ATTITUDE HOLD.
000507:
000508:                                                                                                  #  IN DIRECT RATE, JETS ARE FIRED WHEN STICK POSITION CHANGES BY A FIXED NUMBER OF INCREMENTS IN ONE DAP CYCLE.
000509:                                                                                                  #  THE 'BREAKOUT LEVEL' IS .6 D/S FOR LM-ONLY AND .3 D/S FOR CSM-DOCKED. THIS LAW NULLS THE RATE ERROR TO WITHIN
000510:                                                                                                  #  THE 'TARGET DEADBAND', WHICH EQUALS THE BREAKOUT LEVEL.
000511:                                                                                                  #  IN PSEUDO-AUTO, BODY-FIXED RATE AND ATTITUDE ERRORS ARE SUPPLIED TO TJETLAW, WHICH EXERCISES CONTROL.
000512:                                                                                                  #  CONTROL SWITCHES FROM DIRECT RATE TO PSEUDO-AUTO IF THE TARGET DB IS ACHIEVED OR IF TIME IN (1) EXCEEDS 4 SEC.
000513:                                                                                                  #  IF THE INITIAL COMMAND DOES NOT EXCEED THE BREAKOUT LEVEL, CONTROL GOES TO PSEUDO-AUTO IMMEDIATELY.
000514:
000515:                                                                                                  #  SINCE P-AXIS CONTROL IS SEPARATE FROM Q,R AXES CONTROL, IT IS POSSIBLE TO USE (1) IN P-AXIS AND (2) IN Q,R AXES,
000516:                                                                                                  #  OR VICE VERSA.  THIS ALLOWS A DEGREE OF ATTITUDE HOLD IN UNCONTROLLED AXES.  DUE TO U,V CONTROL, HOWEVER, Q AND
000517:                                                                                                  #  R AXES ARE COUPLED AND MUST USE THE SAME CONTROL LAW.
000518:
000519:                                                                                                  #  HAND CONTROLLER COMMANDS ARE SCALED BY A LINEAR/QUADRATIC LAW. FOR THE LM-ALONE, MAXIMUM COMMANDED RATES ARE 20
000520:                                                                                                  #  AND 4 D/S IN NORMAL AND FINE SCALING; HOWEVER, STICK SENSITIVITY AT ZERO COUNTS (OBTAINED AT A STICK DEFLECTION
000521:                                                                                                  #  OF 2 DEGREES FROM THE CENTERED POSITION) IS .5 OR .1 D/S PER DEGREE. NORMAL AND FINE SCALINGS FOR THE CSM-DOCKED
000522:                                                                                                  #  CASE IS AUTOMATICALLY SET TO 1/10 THE ABOVE VALUES. SCALING IS DETERMINED IN ROUTINE 3.
000523:                                                                                                  #  ZEROENBL      ENABLES COUNTERS SO THEY CAN BE READ NEXT TIME
000524:                                                                                                  #  JUSTOUT       FIRST DETECTION OF OUT OF DETENT (BY OURRCBIT)
000525:
000526: 16,3234           35010        DETENTCK           CAF      BIT15                                 #  CHECK OUT-OF-DETENT BIT.
000527: 16,3235           00006                           EXTEND
000528: 16,3236           02031                           RAND     CHAN31
000529: 16,3237           00006                           EXTEND
000530: 16,3240           13320                           BZF      RHCMOVED                              #  BRANCH IF OUT OF DETENT.
000531: 16,3241           35013                           CAF      OURRCBIT                              #  IN DETENT. CHECK THE RATE COMMAND BIT.
000532: 16,3242           71102                           MASK     DAPBOOLS
000533: 16,3243           00006                           EXTEND
000534: 16,3244           13513                           BZF      PURGENCY                              #  BRANCH IF NOT IN RATE COMMAND LAST PASS.
000535:
000536:                                                                                                  #  ........................................................................
000537:
000538: 16,3245           35012                           CAF      BIT13                                 #  CHECK FOR ATTITUDE HOLD.
000539: 16,3246           00006                           EXTEND
000540: 16,3247           02031                           RAND     CHAN31
000541: 16,3250           00006                           EXTEND
000542: 16,3251           13342                           BZF      JOEY                                  #  BRANCH IF IN ATTITUDE HOLD.
000543:
000544: 16,3252           11417                           CCS      OMEGAP
000545: 16,3253           13257                           TCF      +4
000546: 16,3254           13264                           TCF      RATEDONE
000547: 16,3255           13257                           TCF      +2
000548: 16,3256           13264                           TCF      RATEDONE
000549: 16,3257           61464                           AD       -RATEDB
000550: 16,3260           00006                           EXTEND                                         #  BRANCH IF P-AXIS RATE > RATEDB.
000551: 16,3261           63264                           BZMF     RATEDONE
000552:
000553: 16,3262           35030                           CAF      ZERO
000554: 16,3263           13342                           TCF      JOEY
000555:
000556: 16,3264           45013        RATEDONE           CS       OURRCBIT                              #  MANUAL COMMAND AND DAMPING COMPLETED IN
000557: 16,3265           00004                           INHINT                                         #  ALL AXES.
000558: 16,3266           71102                           MASK     DAPBOOLS
000559: 16,3267           55102                           TS       DAPBOOLS
000560:
000561:                                                                                                  #  READ CDUS INTO CDU DESIRED REGISTERS
000562:
000563: 16,3270           30032                           CA       CDUX                                  #  (X-AXIS OVERRIDE)
000564: 16,3271           55632                           TS       CDUXD
000565: 16,3272           13513                           TCF      PURGENCY
000566:
000567: 16,3273           55450                           TS       PERROR
000568: 16,3274           35013        JUSTOUT            CA       OURRCBIT                              #  INITIALIZATION - FIRST MANUAL PASS.
000569: 16,3275           00004                           INHINT
000570: 16,3276           27102                           ADS      DAPBOOLS
000571: 16,3277           00003                           RELINT
000572: 16,3300           35030                           CA       ZERO
000573: 16,3301           54042                           TS       Q-RHCCTR
000574: 16,3302           54044                           TS       R-RHCCTR
000575: 16,3303           03305                           TC       ZEROENBL
000576: 16,3304           13472                           TCF      JETSOFF
000577: 16,3305           22044        ZEROENBL           LXCH     R-RHCCTR
000578: 16,3306           30042                           CA       Q-RHCCTR
000579: 16,3307           53446                           DXCH     SAVEHAND
000580: 16,3310           35030                           CA       ZERO
000581: 16,3311           54043                           TS       P-RHCCTR
000582: 16,3312           54042                           TS       Q-RHCCTR
000583: 16,3313           54044                           TS       R-RHCCTR
000584: 16,3314           33663                           CA       BITS8,9
000585: 16,3315           00006                           EXTEND
000586: 16,3316           05013                           WOR      CHAN13                                #  COUNTERS ZEROED AND ENABLED
000587: 16,3317           00002                           TC       Q
000588:
000589: 16,3320           35020        RHCMOVED           CA       RHCSCALE
000590: 16,3321           71102                           MASK     DAPBOOLS
000591: 16,3322           10000                           CCS      A
000592: 16,3323           33657                           CA       -1.0D/S
000593: 16,3324           63660                           AD       -0.4D/S
000594: 16,3325           55464                           TS       -RATEDB
000595:
000596: 16,3326           35013                           CA       OURRCBIT                              #  P CONTROL
000597: 16,3327           71102                           MASK     DAPBOOLS
000598: 16,3330           00006                           EXTEND
000599: 16,3331           13273                           BZF      JUSTOUT    -1
000600:
000601: 16,3332           35020                           CA       RHCSCALE                              #  LINEAR CONTROLLER SCALING
000602: 16,3333           71102                           MASK     DAPBOOLS
000603: 16,3334           10000                           CCS      A
000604: 16,3335           35734                           CA       143DEC                                #  SCALE P-RHCCTR FOR 20D/S MAX (177D)
000605: 16,3336           64254                           AD       34DEC                                 #  SCALE P-RHCCTR FOR 4D/S MAX (34D)
000606: 16,3337           00006                           EXTEND
000607: 16,3340           70043                           MP       P-RHCCTR
000608: 16,3341           30001                           CA       L
000609:
000610: 16,3342           00006        JOEY               EXTEND                                         #  FORM THE RATE ERROR.
000611: 16,3343           61417                           SU       OMEGAP
000612: 16,3344           55543                           TS       EDOTP
000613: 16,3345           11543                           CCS      EDOTP
000614: 16,3346           13351                           TCF      +3
000615: 16,3347           13351                           TCF      +2
000616: 16,3350           13351                           TCF      +1
000617: 16,3351           55734                           TS       ABSEDOTP
000618: 16,3352           61464                           AD       TARGETDB
000619: 16,3353           00006                           EXTEND
000620: 16,3354           63303                           BZMF     ZEROENBL   -2
000621: 16,3355           03305                           TC       ZEROENBL
000622:
000623: 16,3356           30032        PEGI               CA       CDUX                                  #  DIRECT RATE CONTROL.
000624: 16,3357           55632                           TS       CDUXD
000625: 16,3360           31543                           CA       EDOTP
000626: 16,3361           00006                           EXTEND
000627: 16,3362           71447                           MP       1/2JTSP                               #  1/2JTSP SCALED AT 2EXP(7)/PI
000628: 16,3363           20001                           DAS      A
000629: 16,3364           20001                           DAS      A
000630: 16,3365           02524                           TC       OVERSUB
000631: 16,3366           00006                           EXTEND
000632: 16,3367           77670                           MP       25/32                                 #  A CONTAINS TJET SCALED AT 2EXP(4)(16/25)
000633: 16,3370           55516                           TS       TJP                                   #  4.JET TIME
000634: 16,3371           31734                           CA       ABSEDOTP
000635: 16,3372           61463                           AD       -2JETLIM                              #  COMPARING DELTA RATE WITH 2 JET LIMIT
000636: 16,3373           00006                           EXTEND
000637: 16,3374           63377                           BZMF     +3
000638:
000639: 16,3375           36216                           CA       SIX
000640: 16,3376           13406                           TCF      +8D
000641: 16,3377           31516                           CA       TJP
000642: 16,3400           27516                           ADS      TJP
000643:
000644:                                                                                                  #  GOES TO PJETSLEC FOR TWO JETS
000645:
000646:                                                                                                  #  P-JET-SELECTION-ROUTINE (ROTATION)
000647:
000648:                                                                                                  #  INPUT:        NUMBERT         4,5,6 FOR WHICH PAIR OR 4 JETS
000649:                                                                                                  #                TJP             + FOR +P ROTATION
000650:
000651:                                                                                                  #  OUTPUT:       CHANNEL 6
000652:                                                                                                  #                PJUMPADR        FOR P-AXIS SKIP
000653:                                                                                                  #                (JTLST CALL)    (SMALL TJP)
000654:
000655:                                                                                                  #  ORDER OF POLICIES TRIED IN CASE OF FAILURE.
000656:                                                                                                  #        +P      -P
000657:                                                                                                  #        7,15    8,16
000658:                                                                                                  #        4,12    3,11
000659:                                                                                                  #        4,7     8,11
000660:                                                                                                  #        7,12    11,16
000661:                                                                                                  #        12,15   3,16
000662:                                                                                                  #        4,15    3,8
000663:                                                                                                  #        ALARM   ALARM
000664:
000665: 16,3401           35022                           CA       AORBSYST
000666: 16,3402           71102                           MASK     DAPBOOLS
000667: 16,3403           10000                           CCS      A
000668: 16,3404           35026                           CA       ONE
000669: 16,3405           65024                           AD       FOUR
000670: 16,3406           55740                           TS       NUMBERT
000671: 16,3407           35026        PJETSLEC           CA       ONE
000672: 16,3410           54001                           TS       L
000673: 16,3411           11516                           CCS      TJP
000674: 16,3412           13417                           TCF      +5
000675: 16,3413           13472                           TCF      JETSOFF
000676: 16,3414           13416                           TCF      +2
000677: 16,3415           13472                           TCF      JETSOFF
000678: 16,3416           22007                           ZL
000679: 16,3417           65026                           AD       ONE
000680: 16,3420           55734                           TS       ABSTJ
000681: 16,3421           23741                           LXCH     ROTINDEX
000682: 16,3422           03573                           TC       SELECTP
000683: 16,3423           46216                           CS       SIX
000684: 16,3424           61740                           AD       NUMBERT
000685: 16,3425           00006                           EXTEND
000686: 16,3426           13430                           BZF      +2
000687:
000688: 16,3427           45025                           CS       TWO
000689: 16,3430           65024                           AD       FOUR
000690: 16,3431           55513                           TS       NO.PJETS
000691: 16,3432           31736                           CA       POLYTEMP
000692: 16,3433           05752                           TC       WRITEP
000693: 16,3434           41734                           CS       ABSTJ
000694: 16,3435           63654                           AD       +150MST6
000695: 16,3436           00006                           EXTEND
000696: 16,3437           63670                           BZMF     QRAXIS                                #  GO TO QRAXIS OR TO GTS.
000697:
000698: 16,3440           63634                           AD       -136MST6
000699: 16,3441           00006                           EXTEND
000700: 16,3442           63447                           BZMF     +5
000701:
000702: 16,3443           27734                           ADS      ABSTJ
000703: 16,3444           51741                           INDEX    ROTINDEX
000704: 16,3445           33665                           CA       MINTIMES
000705: 16,3446           55516                           TS       TJP
000706:
000707: 16,3447           31734                           CA       ABSTJ
000708: 16,3450           22007                           ZL
000709: 16,3451           00004                           INHINT
000710: 16,3452           53457                           DXCH     T6FURTHA
000711: 16,3453           04737                           TC       IBNKCALL
000712: 16,3454           36674                           CADR     JTLST
000713: 16,3455           33667                           CA       PSKIPADR
000714: 16,3456           55527                           TS       PJUMPADR
000715:
000716: 16,3457           03461                           TC       ALTSYST
000717: 16,3460           13670                           TCF      QRAXIS
000718:
000719: 16,3461           31102        ALTSYST            CA       DAPBOOLS                              #  ALTERNATE P-AXIS JETS
000720: 16,3462           54001                           TS       L
000721: 16,3463           35022                           CA       AORBSYST
000722: 16,3464           00006                           EXTEND
000723: 16,3465           06001                           RXOR     LCHAN
000724: 16,3466           55102                           TS       DAPBOOLS
000725: 16,3467           00003                           RELINT
000726: 16,3470           00002                           TC       Q
000727:
000728: 16,3471           03461        DKALT              TC       ALTSYST
000729:
000730: 16,3472           05751        JETSOFF            TC       WRITEP     -1
000731: 16,3473           35030                           CA       ZERO
000732: 16,3474           55516                           TS       TJP
000733: 16,3475           13670                           TCF      QRAXIS
000734:
000735:                                                                                                  #  (NOTE -- M13 = 1 IDENTICALLY IMPLIES NULL MULTIPLICATION.)
000736:
000737: 16,3476           30033        CALCPERR           CA       CDUY                                  #  P-ERROR CALCULATION.
000738: 16,3477           00006                           EXTEND
000739: 16,3500           21633                           MSU      CDUYD                                 #  CDU VALUE - ANGLE DESIRED (Y-AXIS)
000740: 16,3501           00006                           EXTEND
000741: 16,3502           71412                           MP       M11                                   #  (CDUY-CDUYD)M11 SCALED AT PI RADIANS
000742: 16,3503           57542                           XCH      E                                     #  SAVE FIRST TERM (OF TWO)
000743: 16,3504           30032                           CA       CDUX                                  #  THIRD COMPONENT
000744: 16,3505           00006                           EXTEND
000745: 16,3506           21632                           MSU      CDUXD                                 #  CDU VALUE - ANGLE DESIRED (X-AXIS)
000746:                                                                                                  #                EXTEND
000747:                                                                                                  #                MP      M13
000748: 16,3507           61301                           AD       DELPEROR                              #  KALCMANU INERFACE ERROR
000749: 16,3510           27542                           ADS      E                                     #  SAVE SUM OF TERMS.  COULD BE OVERFLOW.
000750: 16,3511           57450                           XCH      PERROR                                #  SAVE P-ERROR FOR EIGHT-BALL DISPLAY.
000751: 16,3512           00002                           TC       Q                                     #  RETURN TO CALLER
000752:
000753:                                                                                                  #  P-AXIS URGENCY FUNCTION CALCULATION.
000754: 16,3513           03476        PURGENCY           TC       CALCPERR                              #  CALCULATE P-AXIS ERRORS.
000755: 16,3514           41640                           CS       OMEGAPD                               #  THIS CODING IS COMMON TO BOTH LM DAP AND
000756: 16,3515           61417                           AD       OMEGAP                                #  SPS-BACKUP MODE.
000757: 16,3516           55543                           TS       EDOTP                                 #  EDOTP = OMEGAP - OMEGAPD AT PI/4 RAD/SEC
000758:
000759: 16,3517           45026                           CS       ONE
000760: 16,3520           55471                           TS       AXISCTR
000761: 16,3521           31102                           CA       DAPBOOLS
000762: 16,3522           75012                           MASK     CSMDOCKD
000763: 16,3523           00006                           EXTEND
000764: 16,3524           13541                           BZF      HEADTJET
000765: 16,3525           00004                           INHINT                                         #  IF CSMDOCKD = 1, GO TO DOCKED RCS LOGIC
000766: 16,3526           04737                           TC       IBNKCALL
000767: 16,3527           37526                           CADR     SPSRCS
000768:
000769: 16,3530           31516                           CA       TJP
000770: 16,3531           00006                           EXTEND
000771: 16,3532           13471                           BZF      DKALT                                 #  IF TJP = ZERO, CHANGE AORBSYST.
000772: 16,3533           00003                           RELINT
000773: 16,3534           41740                           CS       NUMBERT
000774: 16,3535           66216                           AD       SIX
000775: 16,3536           00006                           EXTEND                                         #  IF NUMBERT = 6 BYPASS AORBSYST CHECK
000776: 16,3537           13407                           BZF      PJETSLEC                              #     AND USE FOUR JETS,  OTHERWISE,
000777: 16,3540           13401                           TCF      PJETSLEC   -6                         #     SELECT AORBSYST AND USE TWO JETS
000778: 16,3541           35030        HEADTJET           CA       ZERO
000779: 16,3542           55472                           TS       SENSETYP
000780: 16,3543           00004                           INHINT
000781: 16,3544           04737                           TC       IBNKCALL
000782: 16,3545           37035                           CADR     TJETLAW
000783: 16,3546           00003                           RELINT
000784:
000785: 16,3547           41736                           CS       FIREFCT
000786: 16,3550           63564                           AD       -FOURDEG
000787: 16,3551           00006                           EXTEND
000788: 16,3552           63401                           BZMF     PJETSLEC   -6
000789: 16,3553           11516                           CCS      TJP
000790: 16,3554           13556                           TCF      +2
000791: 16,3555           13472                           TCF      JETSOFF
000792: 16,3556           63563                           AD       -160MST6
000793: 16,3557           00006                           EXTEND
000794: 16,3560           63401                           BZMF     PJETSLEC   -6
000795: 16,3561           36216                           CA       SIX
000796: 16,3562           13406                           TCF      PJETSLEC   -1
000797: 16,3563           77377        -160MST6           DEC      -256       B-14
000798: 16,3564           75117        -FOURDEG           DEC      -.08888
000799:
000800: 16,3565           33660        LOWSCALE           CA       -0.4D/S
000801: 16,3566           55464                           TS       -RATEDB
000802: 16,3567           41542                           CS       E
000803: 16,3570           00006                           EXTEND
000804: 16,3571           61543                           SU       EDOTP
000805: 16,3572           13345                           TCF      JOEY       +3
000806:
000807:                                                                                                  #  JET POLICY CONSTRUCTION SUBROUTINE
000808:
000809:                                                                                                  #  INPUT:        ROTINDEX, NUMBERT
000810:
000811:                                                                                                  #  OUTPUT:       POLYTEMP (JET POLICY)
000812:
000813:                                                                                                  #  THIS SUBROUTINE SELECT A SUBSET OF THE DESIRED JETS WHICH HAS NO FAILURE
000814:
000815: 16,3573           36216        SELECTP            CA       SIX
000816: 16,3574           55737                           TS       TEMPNUM
000817: 16,3575           51740                           INDEX    NUMBERT
000818: 16,3576           33625                           CA       TYPEP
000819: 16,3577           51741                           INDEX    ROTINDEX
000820: 16,3600           73616                           MASK     JETSALL
000821: 16,3601           55736                           TS       POLYTEMP
000822: 16,3602           71265                           MASK     CH6MASK
000823: 16,3603           10000                           CCS      A
000824: 16,3604           13606                           TCF      +2
000825: 16,3605           00002                           TC       Q
000826: 16,3606           11737                           CCS      TEMPNUM
000827: 16,3607           13613                           TCF      +4
000828: 16,3610           05646                           TC       ALARM
000829: 16,3611           02003                           OCT      02003
000830: 16,3612           13472                           TCF      JETSOFF                               #  *****TCF ALARMJET *********************
000831: 16,3613           55740        SELECTYZ           TS       NUMBERT
000832: 16,3614           13574                           TCF      SELECTP    +1
000833: 16,3615           13145        -1                 TCF      ABORTYZ    +2
000834: 16,3616           00252        JETSALL            OCT      00252
000835: 16,3617           00125                           OCT      00125                                 #  +P
000836: 16,3620           00140                           OCT      00140                                 #  -Y
000837: 16,3621           00006                           OCT      00006                                 #  -Z
000838: 16,3622           00220                           OCT      00220                                 #  +Y
000839: 16,3623           00011                           OCT      00011                                 #  +Z
000840: 16,3624           00151                           OCT      00151                                 #  +V
000841: 16,3625           00146        TYPEP              OCT      00146                                 #  -U
000842: 16,3626           00226                           OCT      00226                                 #  -V
000843: 16,3627           00231                           OCT      00231                                 #  +U
000844: 16,3630           00151                           OCT      00151                                 #  +V
000845: 16,3631           00132                           OCT      00132                                 #  1-3
000846: 16,3632           00245                           OCT      00245                                 #  2-4
000847: 16,3633           00377                           OCT      00377                                 #  ALL
000848: 16,3634  16,3634               INDXYZ             =        -136MST6
000849: 16,3634           77445        -136MST6           DEC      -218       B-14
000850: 16,3635           00004                           DEC      4          B-14
000851: 16,3636           00002                           DEC      2          B-14
000852: 16,3637           07776                           OCT      07776
000853: 16,3640           00005                           DEC      5          B-14
000854: 16,3641           00011                           DEC      9          B-14
000855: 16,3642           00012                           DEC      10         B-14
000856: 16,3643           07776                           OCT      07776
000857: 16,3644           00003                           DEC      3          B-14
000858: 16,3645           00010                           DEC      8          B-14
000859: 16,3646           00007                           DEC      7          B-14
000860: 16,3647           07776                           OCT      07776                                 #  THESE INDEXES OF MASK JETSALL WILL
000861: 16,3650           07776                           OCT      07776                                 #  CHANGE THE INSTRUCTION AT SELECTP +4
000862: 16,3651           07776                           OCT      07776                                 #  TO BE    TC  JETSALL -1
000863: 16,3652           07776                           OCT      07776                                 #  ONLY USED FOR TRANSLATION FAILURE
000864: 16,3653           07776                           OCT      07776
000865: 16,3654           00360        +150MST6           DEC      240        B-14
000866: 16,3655           07400        07400OCT           OCT      07400
000867:
000868:                                                                                                  #  T-JET LAW FIXED CONSTANTS
000869:
000870: 16,3656           00266        NORMSCL            OCT      266
000871: 16,3657           77223        -1.0D/S            DEC      -364       B-14
000872: 16,3660           77556        -0.4D/S            DEC      -145       B-14
000873: 16,3661           74631        -100MS             DEC      -.1
000874: 16,3662           06315        200MS              DEC      .2
000875: 16,3663     5734               143DEC             =        OCT217
000876: 16,3663     7670               25/32              =        PRIO31                                #  (DEC .78125)
000877: 16,3663           00600        BITS8,9            OCTAL    00600
000878: 16,3664           00632        1/40               DEC      .02500
000879: 16,3665           77751        MINTIMES           DEC      -22        B-14
000880: 16,3666           00026                           DEC      22         B-14
000881: 16,3667           03107        PSKIPADR           GENADR   SKIPPAXS
000882:
000883:                                                                                                  #  GOES TO Q,R-AXES RCS AUTOPILOT
000884: 16,3670           41642        QRAXIS             CS       OMEGARD
000885: 16,3671           61421                           AD       OMEGAR
000886: 16,3672           02524                           TC       OVERSUB
000887: 16,3673           55435                           TS       EDOTR
000888: 16,3674           41641                           CS       OMEGAQD
000889: 16,3675           61420                           AD       OMEGAQ
000890: 16,3676           02524                           TC       OVERSUB
000891: 16,3677           55434                           TS       EDOTQ
000892: 16,3700           00006                           EXTEND
000893: 16,3701           33704                           DCA      QERRCALL
000894: 16,3702           52006                           DTCB
000895:
000896: 16,3703  E6,1532                                  EBANK=   AOSQ
000897: 16,3703           02000 36106  QERRCALL           2CADR    CALLQERR

End of include-file P-AXIS_RCS_AUTOPILOT.agc.  Parent file is MAIN.agc


