
Source Code


000002:                                                                                                  ## Copyright:   Public domain.
000003:                                                                                                  ## Filename:    P12.agc
000004:                                                                                                  ## Purpose:     A section of a reconstructed, mixed version of Sundance
000005:                                                                                                  ##              It is part of the reconstructed source code for the Lunar
000006:                                                                                                  ##              Module's (LM) Apollo Guidance Computer (AGC) for Apollo 9.
000007:                                                                                                  ##              No original listings of this program are available;
000008:                                                                                                  ##              instead, this file was created via disassembly of dumps
000009:                                                                                                  ##              of various revisions of Sundance core rope modules.
000010:                                                                                                  ## Assembler:   yaYUL
000011:                                                                                                  ## Contact:     Ron Burkey <info@sandroid.org>.
000012:                                                                                                  ## Website:     www.ibiblio.org/apollo/index.html
000013:                                                                                                  ## Mod history: 2020-06-17 MAS  Created from Luminary 69.
000014:
000015:                                                                                                  ## Sundance 292
000016:
000017: 24,3220                                           BANK     24
000018: 30,2000                                           SETLOC   P12
000019: 30,2000                                           BANK
000020:
000021: 30,2000  E7,1472                                  EBANK=   DVCNTR
000022: 30,2000                                           COUNT*   $$/P12
000023:
000024: 30,2000           04655        P12LM              TC       BANKCALL
000025: 30,2001           11064                           CADR     R02BOTH                               #  CHECK THE STATUS OF THE IMU.
000026:
000027: 30,2002           05563                           TC       UPFLAG
000028: 30,2003           00141                           ADRES    MUNFLAG
000029:
000030: 30,2004           05563                           TC       UPFLAG
000031: 30,2005           00211                           ADRES    FLP70
000032:
000033: 30,2006           05563                           TC       UPFLAG
000034: 30,2007           00177                           ADRES    SURFFLAG
000035:
000036: 30,2010           00006                           EXTEND
000037: 30,2011           31423                           DCA      TIG(AS)
000038: 30,2012           53425                           DXCH     TIG
000039:
000040: 30,2013           33202                           CAF      V06N33A
000041: 30,2014           04655                           TC       BANKCALL                              #  FLASH TIG
000042: 30,2015           20406                           CADR     GOFLASH
000043: 30,2016           14106                           TCF      GOTOPOOH
000044: 30,2017           12021                           TCF      +2                                    #  PROCEED
000045: 30,2020           12013                           TCF      -5                                    #  ENTER
000046:
000047: 30,2021           06014                           TC       INTPRET
000048: 30,2022           51575                           VLOAD    ABVAL
000049: 30,2023           02025                                    RLS
000050: 30,2024           77652                           SL3
000051: 30,2025           02023                           STORE    /LAND/
000052: 30,2026           77731                           SSP
000053: 30,2027           00053                                    QPRET
000054: 30,2030           60070                                    P12LMB
000055:
000056: 30,2031           77745        P12INIT            DLOAD                                          #  INITIALIZE ENGINE DATA.  USED FOR P12 AND
000057: 30,2032           25637                                    (1/DV)A                               #  P71.
000058: 30,2033           03650                           STORE    1/DV3
000059: 30,2034           03646                           STORE    1/DV2
000060: 30,2035           17644                           STODL    1/DV1
000061: 30,2036           25643                                    (AT)A
000062: 30,2037           17634                           STODL    AT
000063: 30,2040           25647                                    (TBUP)A
000064: 30,2041           17642                           STODL    TBUP
000065: 30,2042           25657                                    ATDECAY*
000066: 30,2043           17640                           STODL    TTO
000067: 30,2044           25653                                    APSVEX
000068: 30,2045           03636                           STORE    VE
000069: 30,2046           43345        COMMINIT           DLOAD    DAD                                   #  INITIALIZE TARGET DATA. USED BY P12, P70
000070: 30,2047           25631                                    HINJECT                               #  AND P71 IF IT DOES NOT FOLLOW P70.
000071: 30,2050           02023                                    /LAND/
000072: 30,2051           17616                           STODL    RCO
000073: 30,2052           06233                                    HI6ZEROS
000074: 30,2053           03753                           STORE    TXO
000075: 30,2054           03620                           STORE    YCO
000076: 30,2055           03622                           STORE    RDOTD
000077: 30,2056           17624                           STODL    YDOTD
000078: 30,2057           25633                                    ABTVINJ2                              #  TENTATIVELY STORE LOW INJECTION VELOCITY
000079: 30,2060           27626                           STOVL    ZDOTD
000080: 30,2061           01730                                    V-OTHER
000081: 30,2062           64235                           VXV      MXV
000082: 30,2063           01722                                    R-OTHER
000083: 30,2064           01736                                    REFSMMAT
000084: 30,2065           77656                           UNIT
000085: 30,2066           03652                           STORE    QAXIS
000086:
000087: 30,2067           77616                           RVQ
000088:
000089: 30,2070           77745        P12LMB             DLOAD
000090: 30,2071           25661                                    (TGO)A                                #  SET TGO TO AN INITIAL NOMINAL VALUE.
000091: 30,2072           17474                           STODL    TGO
000092: 30,2073           03425                                    TIG
000093: 30,2074           34041                           STCALL   TDEC1
000094: 30,2075           27030                                    LEMPREC                               #  ROTATE THE STATE VECTORS TO THE
000095: 30,2076           64375                           VLOAD    MXV                                   #  IGNITION TIME.
000096: 30,2077           00007                                    VATT
000097: 30,2100           01736                                    REFSMMAT
000098: 30,2101           77772                           VSL1
000099: 30,2102           27566                           STOVL    V1S                                   #  COMPUTE V1S = VEL(TIG)*2(-7) M/CS.
000100: 30,2103           00001                                    RATT
000101: 30,2104           52521                           MXV      VSL6
000102: 30,2105           01736                                    REFSMMAT
000103: 30,2106           37476                           STCALL   R                                     #  COMPUTE R = POS(TIG)*2(-24) M.
000104: 30,2107           67200                                    MUNGRAV                               #  COMPUTE GDT1/2(TIG)*2(-7)M/CS.
000105: 30,2110           53575                           VLOAD    UNIT
000106: 30,2111           03476                                    R
000107: 30,2112           37524                           STCALL   UNIT/R/                               #  COMPUTE UNIT/R/ FOR YCOMP.
000108: 30,2113           61101                                    YCOMP
000109: 30,2114           57461                           SR       DCOMP
000110: 30,2115           20606                                    5D
000111: 30,2116           17630                           STODL    XRANGE                                #  INITIALIZE XRANGE FOR NOUN 76.
000112: 30,2117           20212                                    (APO)
000113: 30,2120           03632                           STORE    APO                                   #  INITIALIZE APO FOR NOUN 76.
000114: 30,2121           77776                           EXIT
000115:
000116: 30,2122           05413                           TC       PHASCHNG
000117: 30,2123           04024                           OCT      04024
000118:
000119: 30,2124           33201        NEWLOAD            CAF      V06N76                                #  FLASH CROSS-RANGE AND APOLUNE VALUES.
000120: 30,2125           04655                           TC       BANKCALL
000121: 30,2126           20406                           CADR     GOFLASH
000122: 30,2127           14106                           TCF      GOTOPOOH
000123: 30,2130           12132                           TCF      +2                                    #  PROCEED
000124: 30,2131           12124                           TCF      NEWLOAD                               #  ENTER NEW DATA.
000125:
000126: 30,2132           32204                           CAF      P12ADRES
000127: 30,2133           55430                           TS       WHICH
000128:
000129: 30,2134           06014                           TC       INTPRET
000130: 30,2135           54345                           DLOAD    SL
000131: 30,2136           03630                                    XRANGE
000132: 30,2137           20206                                    5D
000133: 30,2140           77615                           DAD
000134: 30,2141           03706                                    Y
000135: 30,2142           17620                           STODL    YCO
000136: 30,2143           03632                                    APO                                   #  RA = APO + /LAND/
000137: 30,2144           77661                           SL
000138: 30,2145           20206                                    5D
000139: 30,2146           41415                           DAD      PUSH                                  #  RA*2(-24) IN MPAC AND PDL
000140: 30,2147           02023                                    /LAND/
000141: 30,2150           65205                           DMP      PDDL                                  #  2 RA MU*2(-62) IN PDL, LOAD RA
000142: 30,2151           20210                                    MUM(-37)
000143: 30,2152           41215                           DAD      DMP                                   #  (RA+RP)*2(-24)
000144: 30,2153           03616                                    RCO                                   #  RP(RA+RP)*2(-48)
000145: 30,2154           03616                                    RCO
000146: 30,2155           75465                           BDDV     SQRT                                  #  2 MU RA/RP(RA+RP)*2(-14)=ZDOTD(2)
000147: 30,2156           77626                           STADR
000148: 30,2157           50151                           STOVL    ZDOTD
000149: 30,2160           03524                                    UNIT/R/
000150: 30,2161           53361                           VXSC     VAD
000151: 30,2162           20206                                    28.5FPS
000152: 30,2163           03566                                    V1S
000153: 30,2164           03504                           STORE    V                                     #  V(TIPOVER) = V(IGN) + 57FPS (UNIT/R/)
000154: 30,2165           43014                           SET      SETGO
000155: 30,2166           04464                                    FLPI
000156: 30,2167           04421                                    FLVR
000157: 30,2170           60266                                    ASCENT
000158: 30,2171           77776        P12RET             EXIT
000159: 30,2172           05413                           TC       PHASCHNG
000160: 30,2173           04024                           OCT      04024
000161:
000162: 30,2174           05575                           TC       DOWNFLAG
000163: 30,2175           00213                           ADRES    FLPI
000164:
000165: 30,2176           00004                           INHINT
000166: 30,2177           04737                           TC       IBNKCALL
000167: 30,2200           40223                           CADR     PFLITEDB
000168: 30,2201           00003                           RELINT
000169:
000170: 30,2202           04674                           TC       POSTJUMP
000171: 30,2203           74133                           CADR     BURNBABY
000172:
000173:
000174: 30,2204           02000        P12ADRES           REMADR   P12TABLE                              #  NOT IN SAME BANK.
000175: 30,2205           00026 07363  28.5FPS            2DEC     .08685     B-6                        #  EXPECTED RDOT AT TIPOVER
000176:
000177: 30,2207           00072 16206  MUM(-37)           2DEC*    4.9027780  E8         B-37*
000178:
000179: 30,2211           00001 26227  (APO)              2DEC     55597.5    B-29                       #  30 N.M. EXPRESSED IN METERS.

End of include-file P12.agc.  Parent file is MAIN.agc


