
Source Code


000002:                                                                                                  ## Copyright:   Public domain.
000003:                                                                                                  ## Filename:    P20-P25.agc
000004:                                                                                                  ## Purpose:     A section of a reconstructed, mixed version of Sundance
000005:                                                                                                  ##              It is part of the reconstructed source code for the Lunar
000006:                                                                                                  ##              Module's (LM) Apollo Guidance Computer (AGC) for Apollo 9.
000007:                                                                                                  ##              No original listings of this program are available;
000008:                                                                                                  ##              instead, this file was created via disassembly of dumps
000009:                                                                                                  ##              of various revisions of Sundance core rope modules.
000010:                                                                                                  ## Assembler:   yaYUL
000011:                                                                                                  ## Contact:     Ron Burkey <info@sandroid.org>.
000012:                                                                                                  ## Website:     www.ibiblio.org/apollo/index.html
000013:                                                                                                  ## Mod history: 2020-06-17 MAS  Created from Luminary 69.
000014:                                                                                                  ##              2021-05-30 ABS  Replaced use of various descriptive *BIT symbols
000015:                                                                                                  ##                              with less descriptive BIT* symbols to match
000016:                                                                                                  ##                              Luminary 69.
000017:
000018:                                                                                                  ## Sundance 302
000019:
000020:                                                                                                  #  RENDEZVOUS NAVIGATION PROGRAM 20
000021:                                                                                                  #  PROGRAM DESCRIPTION
000022:                                                                                                  #  MOD NO - 2
000023:                                                                                                  #  BY  P. VOLANTE
000024:                                                                                                  #  FUNCTIONAL DESCRIPTION
000025:
000026:                                                                                                  #    THE PURPOSE OF THIS PROGRAM IS TO CONTROL THE RENDEZVOUS RADAR FROM
000027:                                                                                                  #  STARTUP THROUGH ACQUISITION AND LOCKON TO THE CSM AND TO UPDATE EITHER
000028:                                                                                                  #  THE LM OR CSM STATE VECTOR (AS SPECIFIED BY THE ASTRONAUT BY DSKY ENTRY)
000029:                                                                                                  #  ON THE BASIS OF THE RR TRACKING DATA.
000030:                                                                                                  #  CALLING SEQUENCE -
000031:
000032:                                                                                                  #  ASTRONAUT REQUEST THROUGH DSKY V37E20E
000033:                                                                                                  #  SUBROUTINES CALLED
000034:                                                                                                  #    R02BOTH (IMU STATUS CHECK)               FLAGUP
000035:                                                                                                  #    GOFLASH (PINBALL-DISPLAY)                FLAGDOWN
000036:                                                                                                  #    R23LEM  (MANUAL ACQUISITION)             BANKCALL
000037:                                                                                                  #    LS201   (LOS DETERMINATION)              TASKOVER
000038:                                                                                                  #    LS202   (RANGE LIMIT TEST)
000039:                                                                                                  #    R61LEM  (PREFERRED TRACKING ATTITUDE)
000040:                                                                                                  #    R21LEM  (RR DESIGNATE)                   ENDOFJOB
000041:                                                                                                  #    R22LEM  (DATA READ)                      GOPERF1
000042:                                                                                                  #    R31LEM  (RENDEZVOUS PARAMETER DISPLAY)
000043:                                                                                                  #    PRIOLARM (PRIORITY DISPLAY)
000044:                                                                                                  #  NORMAL EXIT MODES-
000045:                                                                                                  #    P20 MAY BE TERMINATED IN TWO WAYS-ASTRONAUT SELECTION OF IDLING
000046:                                                                                                  #  PROGRAM (P00) BY KEYING V37E00E OR BY KEYING IN V56E
000047:                                                                                                  #  ALARM OR ABORT EXIT MODES-
000048:                                                                                                  #    RANGE GREATER THAN 400 NM DISPLAY
000049:                                                                                                  #  OUTPUT
000050:                                                                                                  #    TRKMKCNT = NO OF RENDEZVOUS TRACKING MARKS TAKEN (COUNTER)
000051:                                                                                                  #  ERASABLE INITIALIZATION REQUIRED
000052:                                                                                                  #  FLAGS SET + RESET
000053:                                                                                                  #    SRCHOPT,RNDVZFLG,ACMODFLG,VEHUPFLG,UPDATFLG,TRACKFLG,
000054:                                                                                                  #  DEBRIS
000055:                                                                                                  #    CENTRALS-A,Q,L
000056: 25,2053  30,2000                                  SBANK=   LOWSUPER                              #  FOR LOW 2CADR'S.
000057:
000058: 33,2000                                           BANK     33
000059: 24,2000                                           SETLOC   P20S
000060: 24,2000                                           BANK
000061:
000062: 24,2000  E7,1433                                  EBANK=   LOSCOUNT
000063: 24,2000                                           COUNT*   $$/P20
000064: 24,2000           05373        PROG20             TC       2PHSCHNG
000065: 24,2001           00004                           OCT      4
000066: 24,2002           05022                           OCT      05022
000067: 24,2003           26000                           OCT      26000                                 #  PRIORITY 26
000068:
000069: 24,2004           00004                           INHINT
000070: 24,2005           45017                           CS       SURFFBIT
000071: 24,2006           70104                           MASK     FLAGWRD8
000072: 24,2007           54104                           TS       FLAGWRD8
000073: 24,2010           00003                           RELINT
000074:
000075: 24,2011           05575                           TC       DOWNFLAG                              #  RESET VEHUPFLG- LM STATE VECTOR
000076: 24,2012           00026                           ADRES    VEHUPFLG                              #  TO BE UPDATED
000077: 24,2013           04655        PROG20A            TC       BANKCALL
000078: 24,2014           11064                           CADR     R02BOTH
000079: 24,2015           05563                           TC       UPFLAG
000080: 24,2016           00027                           ADRES    UPDATFLG                              #  SET UPDATE FLAG
000081: 24,2017           05563                           TC       UPFLAG
000082: 24,2020           00031                           ADRES    TRACKFLG                              #  SET TRACK FLAG
000083: 24,2021           05563                           TC       UPFLAG
000084: 24,2022           00010                           ADRES    RNDVZFLG                              #  SET RENDEZVOUS FLAG
000085: 24,2023           05575                           TC       DOWNFLAG
000086: 24,2024           00037                           ADRES    SRCHOPTN                              #  INSURE SEARCH OPTION OFF
000087:
000088: 24,2025           05575                           TC       DOWNFLAG                              #  ALSO MANUAL ACQUISITION FLAG RESET
000089: 24,2026           00040                           ADRES    ACMODFLG
000090: 24,2027           05575                           TC       DOWNFLAG                              #  TURN OFF R04FLAG TO ENSURE GETTING
000091: 24,2030           00063                           ADRES    R04FLAG                               #  ALARM 521 IF CANT READ RADAR
000092: 24,2031           05575                           TC       DOWNFLAG                              #  ENSURE R25 GIMBAL MONITOR IS ENABLED
000093: 24,2032           00126                           ADRES    NORRMON                               #  (RESET NORRMON FLAG)
000094: 24,2033           06014                           TC       INTPRET
000095: 24,2034           77624                           CALL
000096: 24,2035           50257                                    UPPSV
000097: 24,2036           77776                           EXIT
000098: 24,2037           05413        P20LEM1            TC       PHASCHNG
000099: 24,2040           04022                           OCT      04022
000100: 24,2041           35030                           CAF      ZERO                                  #  ZERO MARK COUNTER
000101: 24,2042           55447                           TS       MARKCTR
000102: 24,2043           06014                           TC       INTPRET                               #  LOS DETERMINATION ROUTINE
000103: 24,2044           77634                           RTB
000104: 24,2045           21454                                    LOADTIME
000105: 24,2046           34041                           STCALL   TDEC1
000106: 24,2047           53521                                    LPS20.1
000107: 24,2050           77624                           CALL
000108: 24,2051           53560                                    LPS20.2                               #  TEST RANGE R/UTINE
000109: 24,2052           77776                           EXIT
000110: 24,2053           50154                           INDEX    MPAC
000111: 24,2054           02055                           TC       +1
000112: 24,2055           02065                           TC       P20LEMA                               #  NORMAL RETURN WITHIN 400 N M
000113: 24,2056           32253        526ALARM           CAF      ALRM526                               #  ERROR EXIT - RANGE > 400 N. MI.
000114: 24,2057           04655                           TC       BANKCALL
000115: 24,2060           21443                           CADR     PRIOLARM
000116: 24,2061           06000                           TC       GOTOV56                               #  TERMINATE EXITS P20 VIA V56 CODING
000117: 24,2062           02056                           TC       -4                                    #  PROC (ILLEGAL
000118: 24,2063           02037                           TC       P20LEM1                               #  ENTER RECYCLE
000119: 24,2064           05225                           TC       ENDOFJOB
000120:
000121:
000122: 24,2065           05413        P20LEMA            TC       PHASCHNG
000123: 24,2066           04022                           OCT      04022
000124: 24,2067           02653                           TC       LUNSFCHK                              #  CHECK LUNAR SURFACE FLAG (P22 FLAG)
000125: 24,2070           02073                           TC       P20LEMB
000126: 24,2071           04655                           TC       BANKCALL
000127: 24,2072           46037                           CADR     R61LEM                                #  PREFERRED TRACKING ATTITUDE ROUTINE
000128: 24,2073           05413        P20LEMB            TC       PHASCHNG
000129: 24,2074           05022                           OCT      05022                                 #  RESTART AT PRIORITY 10 TO ALLOW V37
000130: 24,2075           10000                           OCT      10000                                 #  REQUESTED PROGRAM TO RUN FIRST
000131: 24,2076           37666                           CAF      PRIO26                                #  RESTORE PRIORITY 26
000132: 24,2077           05216                           TC       PRIOCHNG
000133: 24,2100           35025        P20LEMB7           CAF      BIT2                                  #  IS RR AUTO MODE DISCRETE PRESENT
000134: 24,2101           00006                           EXTEND
000135: 24,2102           02033                           RAND     CHAN33
000136:
000137: 24,2103           00006                           EXTEND
000138: 24,2104           12141                           BZF      P20LEMB3                              #  YES - DO AUTOMATIC ACQUISITION (R21)
000139:
000140: 24,2105           44112        P20LEMB5           CS       OCT24                                 #  RADAR NOT IN AUTO CHECK IF
000141: 24,2106           61012                           AD       MODREG                                #  MAJOR MODE IS 20
000142: 24,2107           00006                           EXTEND
000143: 24,2110           12124                           BZF      P20LEMB6                              #  BRANCH - YES-OK TO DO PLEASE PERFORM
000144:
000145: 24,2111           30075                           CA       FLAGWRD1                              #  IS THE TRACK FLAG SET
000146: 24,2112           75022                           MASK     TRACKBIT
000147: 24,2113           00006                           EXTEND
000148: 24,2114           12207                           BZF      P20LMWT1                              #   BRANCH - NO - WAIT FOR IT TO BE SET
000149: 24,2115           32255                           CAF      ALRM514                               #  TRACK FLAG SET-FLASH PRIORITY ALARM 514-
000150: 24,2116           04655                           TC       BANKCALL                              #  RADAR GOES OUT OF AUTO MODE WHILE IN USE
000151: 24,2117           21443                           CADR     PRIOLARM
000152: 24,2120           06000                           TC       GOTOV56                               #  TERMINATE EXITS VIA V56
000153: 24,2121           02100                           TC       P20LEMB7                              #  PROCEED AND ENTER BOTH GO BACK
000154: 24,2122           02100                           TC       P20LEMB7                              #  TO CHECK AUTO MODE AGAIN
000155: 24,2123           05225                           TC       ENDOFJOB
000156: 24,2124           32254        P20LEMB6           CAF      OCT201                                #  REQUEST RR AUTO MODE SELECTION
000157: 24,2125           04655                           TC       BANKCALL
000158: 24,2126           20532                           CADR     GOPERF1
000159: 24,2127           06000                           TC       GOTOV56                               #  TERMINATE EXITS P20 VIA V56 CODING
000160: 24,2130           02073                           TC       P20LEMB                               #  PROCEED CHECKS AUTO MODE DISCRETE AGAIN
000161: 24,2131           02653                           TC       LUNSFCHK                              #  ENTER INDICATES MANUAL ACQUISITION (R23)
000162: 24,2132           02137                           TC       P20LEMB2                              #  YES - R23 NOT ALLOWED-TURN ON OPR ERROR
000163: 24,2133           02762                           TC       R23LEM                                #  NO - DO MANUAL ACQUISITION
000164:
000165:
000166: 24,2134           05563        P20LEMB1           TC       UPFLAG                                #  RETURN FROM R23 - LOCKON ACHIEVED
000167: 24,2135           00040                           ADRES    ACMODFLG                              #  SET MANUAL FLAG AND GO BACK TO CHECK
000168: 24,2136           02073                           TC       P20LEMB                               #  RR AUTO MODE
000169:
000170:
000171: 24,2137           04376        P20LEMB2           TC       FALTON                                #  TURNS ON OPERATOR ERROR LIGHT ON DSKY
000172: 24,2140           02073                           TC       P20LEMB                               #  AND GOES BACK TO CHECK AUTO MODE
000173:
000174:
000175: 24,2141           41101        P20LEMB3           CS       RADMODES                              #  ARE RR CDUS BEING ZEROED
000176: 24,2142           75012                           MASK     BIT13                                 #  (BIT 13 RADMODES EQUAL ONE)
000177: 24,2143           00006                           EXTEND
000178: 24,2144           12156                           BZF      P20LEMB4                              #  BRANCH - YES - WAIT
000179: 24,2145           34367                           CAF      BIT13-14                              #  IS SEARCH OR MANUAL ACQUISITION FLAG SET
000180: 24,2146           70076                           MASK     FLAGWRD2
000181: 24,2147           00006                           EXTEND
000182: 24,2150           12162                           BZF      P20LEMC                               #  ZERO MEANS AUTOMATIC RR ACQUISTION
000183: 24,2151           05575                           TC       DOWNFLAG                              #  RESET TO AUTO MODE
000184: 24,2152           00037                           ADRES    SRCHOPTN
000185: 24,2153           05575                           TC       DOWNFLAG
000186:
000187: 24,2154           00040                           ADRES    ACMODFLG
000188: 24,2155           02177                           TC       P20LEMWT                              #  WAIT 2.5 SECONDS THEN GO TO RR DATA READ
000189:
000190:
000191: 24,2156           32252        P20LEMB4           CAF      250DEC
000192: 24,2157           04655                           TC       BANKCALL                              #  WAIT 2.5 SECONDS WHILE RR CDUS ARE BEING
000193: 24,2160           01730                           CADR     DELAYJOB                              #  ZEROED-THEN GO BACK AND CHECK AGAIN
000194: 24,2161           02141                           TC       P20LEMB3
000195:
000196: 24,2162           05413        P20LEMC            TC       PHASCHNG
000197: 24,2163           04022                           OCT      04022
000198: 24,2164           30074                           CAE      FLAGWRD0                              #  IS THE RENDEZVOUS FLAG SET
000199: 24,2165           75020                           MASK     RNDVZBIT
000200: 24,2166           00006                           EXTEND
000201: 24,2167           15225                           BZF      ENDOFJOB                              #  NO - EXIT P20
000202: 24,2170           30075                           CAE      FLAGWRD1                              #  IS TRACK FLAG SET  (BIT 5 FLAGWORD 1)
000203: 24,2171           75022                           MASK     TRACKBIT
000204: 24,2172           00006                           EXTEND
000205: 24,2173           12232                           BZF      P20LEMD                               #  BRANCH-TRACK FLAG NOT ON-WAIT 15 SECONDS
000206: 24,2174           05563        P20LEMF            TC       UPFLAG
000207: 24,2175           00041                           ADRES    LOSCMFLG
000208: 24,2176           02661                           TC       R21LEM
000209:
000210:
000211: 24,2177           32252        P20LEMWT           CAF      250DEC
000212: 24,2200           00004                           INHINT
000213: 24,2201           05243                           TC       TWIDDLE                               #  USE INSTEAD OF WAITLIST SINCE SAME BANK
000214: 24,2202           02212                           ADRES    P20LEMC1                              #  WAIT 2.5 SECONDS
000215: 24,2203           30075                           CAE      FLAGWRD1                              #  IS TRACK FLAG SET
000216: 24,2204           75022                           MASK     TRACKBIT
000217: 24,2205           00006                           EXTEND
000218: 24,2206           15225                           BZF      ENDOFJOB                              #  NO-EXIT WITHOUT DOING 2.7 PHASE CHANGE
000219: 24,2207           05413        P20LMWT1           TC       PHASCHNG
000220: 24,2210           40072                           OCT      40072
000221: 24,2211           05225                           TC       ENDOFJOB
000222:
000223:
000224: 24,2212           30074        P20LEMC1           CAE      FLAGWRD0                              #  IS RENDEZVOUS FLAG SET
000225:
000226: 24,2213           75020                           MASK     RNDVZBIT
000227: 24,2214           00006                           EXTEND
000228: 24,2215           15321                           BZF      TASKOVER                              #  NO - EXIT P20/R22
000229: 24,2216           30075                           CAE      FLAGWRD1                              #  IS TRACK FLAG SET
000230: 24,2217           75022                           MASK     TRACKBIT
000231: 24,2220           00006                           EXTEND
000232: 24,2221           12227                           BZF      P20LEMC2                              #  NO-DONT SCHEDULE R22 JOB
000233: 24,2222           37666                           CAF      PRIO26                                #  YES-SCHEDULE R22 JOB (RR DATA READ)
000234: 24,2223           05155                           TC       FINDVAC
000235: 24,2224  E7,1433                                  EBANK=   LOSCOUNT
000236: 24,2224           02441 50067                     2CADR    R22LEM
000237: 24,2226           05321                           TC       TASKOVER
000238:
000239:
000240: 24,2227           05271        P20LEMC2           TC       FIXDELAY                              #  TRACK FLAG NOT SET ,WAIT 15 SECONDS
000241: 24,2230           02734                           DEC      1500       B-14                       #  AND CHECK AGAIN
000242:
000243: 24,2231           02212                           TC       P20LEMC1
000244:
000245: 24,2232           32647        P20LEMD            CAF      1500DEC
000246: 24,2233           05243                           TC       TWIDDLE                               #  WAITLIST FOR 15 SECONDS
000247: 24,2234           02236                           ADRES    P20LEMD1
000248: 24,2235           05225                           TC       ENDOFJOB
000249:
000250:
000251: 24,2236           30075        P20LEMD1           CAE      FLAGWRD1                              #  IS TRACK FLAG SET
000252: 24,2237           75022                           MASK     TRACKBIT
000253: 24,2240           10000                           CCS      A
000254: 24,2241           12245                           TCF      P20LEMD2                              #  YES-SCHEDULE DESIGNATE JOB
000255: 24,2242           05271                           TC       FIXDELAY                              #  NO-WAIT 15 SECONDS
000256: 24,2243           02734                           DEC      1500       B-14
000257: 24,2244           02236                           TC       P20LEMD1
000258:
000259:
000260: 24,2245           37666        P20LEMD2           CAF      PRIO26                                #  SCHEDULE JOB TO DO R21
000261: 24,2246           05155                           TC       FINDVAC
000262: 24,2247  E7,1433                                  EBANK=   LOSCOUNT
000263: 24,2247           02174 50067                     2CADR    P20LEMF                               #  START AT PERM. MEMORY INTEGRATION
000264: 24,2251           05321                           TC       TASKOVER
000265:
000266:
000267: 24,2252           00372        250DEC             DEC      250        B-14
000268: 24,2253           00526        ALRM526            OCT      00526
000269: 24,2254           00201        OCT201             OCT      00201
000270: 24,2255           00514        ALRM514            OCT      514
000271: 24,2256           00074        MAXTRIES           DEC      60         B-14
000272:
000273: 24,2257           45020        UPPSV              STQ      CALL                                  #  UPDATES PERMANENT STATE VECTORS
000274: 24,2260           03431                                    LS21X                                 #   TO PRESENT TIME
000275: 24,2261           27362                                    INTSTALL
000276: 24,2262           77624                           CALL
000277: 24,2263           26622                                    SETIFLGS
000278: 24,2264           43014                           BOF      SET                                   #  IF W-MATRIX INVALID,DONT INTEGRATE IT
000279: 24,2265           02756                                    RENDWFLG
000280: 24,2266           50277                                    UPPSV1
000281: 24,2267           01476                                    DIM0FLAG                              #  SET DIMOFLAG TO INTEGRATE W-MATRIX
000282: 24,2270           43014                           BON      SET
000283: 24,2271           04307                                    SURFFLAG                              #  IF ON LUNAR SURFACE W IS 6X6
000284: 24,2272           50274                                    UPPSV5
000285: 24,2273           01475                                    D6OR9FLG                              #  OTHERWISE 9X9
000286: 24,2274           77614        UPPSV5             BOF
000287: 24,2275           00747                                    VEHUPFLG
000288: 24,2276           50321                                    UPPSV3
000289: 24,2277           47014        UPPSV1             SET      RTB                                   #  CSM STATE BEING CORRECTED
000290: 24,2300           01474                                    VINTFLAG
000291: 24,2301           21454                                    LOADTIME
000292: 24,2302           34041                           STCALL   TDEC1                                 #  INTEGRATE CSM STATE WITH W-MATRIX
000293: 24,2303           27105                                    INTEGRV
000294: 24,2304           77624                           CALL                                           #  GROUP 2 PHASE CHANGE
000295: 24,2305           11054                                    GRP2PC                                #  TO PROTECT INTEGRATION
000296: 24,2306           77624                           CALL
000297: 24,2307           27362                                    INTSTALL
000298: 24,2310           43145                           DLOAD    CLEAR                                 #  GET TETCSM TO STORE IN TDEC FOR LM INT.
000299: 24,2311           01571                                    TETCSM
000300: 24,2312           01674                                    VINTFLAG
000301: 24,2313           77624        UPPSV4             CALL                                           #  INTEGRATE OTHER VEHICLE
000302: 24,2314           26622                                    SETIFLGS                              #   WITHOUT W-MATRIX
000303: 24,2315           34041                           STCALL   TDEC1
000304: 24,2316           27105                                    INTEGRV
000305: 24,2317           77650                           GOTO
000306: 24,2320           03431                                    LS21X
000307:
000308:
000309: 24,2321           47014        UPPSV3             CLEAR    RTB
000310: 24,2322           01674                                    VINTFLAG
000311: 24,2323           21454                                    LOADTIME
000312: 24,2324           34041                           STCALL   TDEC1                                 #  INTEGRATE LM STATE WITH W-MATRIX
000313: 24,2325           27105                                    INTEGRV
000314: 24,2326           77624                           CALL
000315: 24,2327           11054                                    GRP2PC
000316: 24,2330           77624                           CALL
000317: 24,2331           27362                                    INTSTALL
000318: 24,2332           71214                           SET      DLOAD
000319: 24,2333           01474                                    VINTFLAG
000320:
000321: 24,2334           01643                                    TETLEM                                #  GET TETLEM TO STORE IN TDEC FOR CSM INT.
000322: 24,2335           77650                           GOTO
000323: 24,2336           50313                                    UPPSV4
000324:
000325:
000326: 24,2337  E7,1433                                  EBANK=   LOSCOUNT
000327: 24,2337                                           COUNT*   $$/P22
000328:
000329: 24,2337           05373        PROG22             TC       2PHSCHNG
000330: 24,2340           00004                           OCT      4
000331: 24,2341           05022                           OCT      05022
000332: 24,2342           06000                           OCT      06000
000333:
000334: 24,2343           00004                           INHINT
000335: 24,2344           40104                           CS       FLAGWRD8
000336: 24,2345           75017                           MASK     SURFFBIT
000337: 24,2346           26104                           ADS      FLAGWRD8
000338: 24,2347           00003                           RELINT
000339:
000340: 24,2350           05563                           TC       UPFLAG
000341: 24,2351           00026                           ADRES    VEHUPFLG
000342:
000343: 24,2352           02013                           TC       PROG20A
000344:
000345:                                                                                                  #  PROGRAM DESCRIPTION
000346:                                                                                                  #  PREFERRED TRACKING ATTITUDE PROGRAM P25
000347:                                                                                                  #  MOD NO - 3
000348:                                                                                                  #  BY  P. VOLANTE
000349:                                                                                                  #  FUNCTIONAL DESCRIPTION
000350:
000351:                                                                                                  #    THE PURPOSE OF THIS PROGRAM IS TO COMPUTE THE PREFERRED TRACKING
000352:                                                                                                  #  ATTITUDE OF THE LM TO CONTINUOUSLY POINT THE LM TRACKING BEACON AT THE
000353:                                                                                                  #  CSM AND TO PERFORM THE MANEUVER TO THE PREFERRED TRACKING ATTITUDE AND
000354:                                                                                                  #  CONTINUOUSLY MAINTAIN THIS ATTITUDE WITHIN PRESCRIBED LIMITS
000355:                                                                                                  #  CALLING SEQUENCE -
000356:                                                                                                  #    ASTRONAUT REQUEST THROUGH DSKY V37E25E
000357:                                                                                                  #  SUBROUTINES CALLED -
000358:                                                                                                  #    BANKCALL                      FLAGUP
000359:                                                                                                  #    R02BOTH  (IMU STATUS CHECK)   ENDOFJOB
000360:                                                                                                  #    R61LEM   (PREF TRK ATT ROUT)  WAITLIST
000361:                                                                                                  #    TASKOVER                      FINDVAC
000362:                                                                                                  #  NORMAL EXIT MODES  -
000363:                                                                                                  #    P25 MAY BE TERMINATED IN TWO WAYS-ASTRONAUT SELECTION OF IDLING
000364:                                                                                                  #  PROGRAM(P00) BY KEYING V37E00E OR BY KEYING IN V56E
000365:                                                                                                  #  ALARM OR ABORT EXIT MODES -
000366:                                                                                                  #    NONE
000367:                                                                                                  #  OUTPUT
000368:                                                                                                  #  ERASABLE INITIALIZATION REQUIRED
000369:                                                                                                  #  FLAGS SET + RESET
000370:                                                                                                  #    TRACKFLG,P25FLAG
000371:                                                                                                  #  DEBRIS
000372:                                                                                                  #    NONE
000373: 24,2353  E7,1433                                  EBANK=   LOSCOUNT
000374: 24,2353                                           COUNT*   $$/P25
000375: 24,2353           05373        PROG25             TC       2PHSCHNG
000376: 24,2354           00004                           OCT      4                                     #  MAKE GROUP 4 INACTIVE (VERB 37)
000377: 24,2355           05022                           OCT      05022
000378: 24,2356           26000                           OCT      26000                                 #  PRIORITY 26
000379:
000380: 24,2357           04655                           TC       BANKCALL
000381: 24,2360           11064                           CADR     R02BOTH                               #  IMU STATUS CHECK
000382: 24,2361           05563                           TC       UPFLAG
000383: 24,2362           00031                           ADRES    TRACKFLG                              #  SET TRACK FLAG
000384: 24,2363           05563                           TC       UPFLAG
000385: 24,2364           00006                           ADRES    P25FLAG                               #  SET P25FLAG
000386: 24,2365           04655                           TC       BANKCALL
000387: 24,2366           46037                           CADR     R61LEM
000388: 24,2367           35016        P25LEM1            CAF      P25FLBIT
000389: 24,2370           70074                           MASK     STATE                                 #  IS P25FLAG SET
000390: 24,2371           00006                           EXTEND
000391: 24,2372           15225                           BZF      ENDOFJOB
000392: 24,2373           35022                           CAF      TRACKBIT                              #  IS TRACKFLAG SET?
000393: 24,2374           70075                           MASK     STATE      +1
000394: 24,2375           00006                           EXTEND
000395: 24,2376           12422                           BZF      P25LMWT1                              #  NO-SKIP PHASE CHANGE AND WAIT 1 MINUTE
000396: 24,2377           06014                           TC       INTPRET
000397: 24,2400           77634                           RTB
000398: 24,2401           21454                                    LOADTIME
000399: 24,2402           34041                           STCALL   TDEC1
000400: 24,2403           53521                                    LPS20.1
000401: 24,2404           77624                           CALL
000402: 24,2405           47251                                    CDUTRIG
000403: 24,2406           45175                           VLOAD    CALL
000404: 24,2407           01105                                    RRTARGET
000405: 24,2410           47413                                    *SMNB*
000406: 24,2411           65545                           DLOAD    ACOS
000407: 24,2412           00162                                    MPAC       +5
000408: 24,2413           50025                           DSU      BMN
000409: 24,2414           10436                                    30DEGS
000410: 24,2415           50437                                    P25OK
000411: 24,2416           77776                           EXIT
000412:
000413: 24,2417           02365                           TC       P25LEM1    -2                         #  THEN GO CHECK FLAGS
000414: 24,2420           05413        P25LEMWT           TC       PHASCHNG
000415: 24,2421           00112                           OCT      00112
000416: 24,2422           32434        P25LMWT1           CAF      60SCNDS
000417: 24,2423           00004                           INHINT
000418: 24,2424           05243                           TC       TWIDDLE                               #  WAIT ONE MINUTE THEN CHECK AGAIN
000419: 24,2425           02427                           ADRES    P25LEM2
000420: 24,2426           05225                           TC       ENDOFJOB
000421: 24,2427           35074        P25LEM2            CAF      PRIO14
000422: 24,2430           05155                           TC       FINDVAC
000423: 24,2431  E7,1433                                  EBANK=   LOSCOUNT
000424: 24,2431           02367 50067                     2CADR    P25LEM1
000425: 24,2433           05321                           TC       TASKOVER
000426: 24,2434           13560        60SCNDS            DEC      6000       B-14
000427: 24,2435           02525 12525  30DEGS             2DEC     .083333333
000428: 24,2437           77776        P25OK              EXIT
000429: 24,2440           02420                           TC       P25LEMWT
000430:
000431:                                                                                                  #  DATA READ ROUTINE 22 (LEM)
000432:                                                                                                  #  PROGRAM DESCRIPTION
000433:                                                                                                  #  MOD NO - 2
000434:                                                                                                  #  BY P VOLANTE
000435:                                                                                                  #  FUNCTIONAL DESCRIPTION
000436:
000437:                                                                                                  #    TO PROCESS AUTOMATIC RR MARK DATA TO UPDATE THE STATE VECTOR OF EITHER
000438:                                                                                                  #  LM OR CSM AS DEFINED IN THE RENDEZVOUS NAVIGATION PROGRAM (P20)
000439:                                                                                                  #  CALLING SEQUENCE -
000440:                                                                                                  #           TC     BANKCALL
000441:                                                                                                  #           CADR   R22LEM
000442:                                                                                                  #  SUBROUTINES CALLED -
000443:                                                                                                  #    LSR22.1           GOFLASH        WAITLIST
000444:                                                                                                  #    LSR22.2           PRIOLARM       BANKCALL
000445:                                                                                                  #    LSR22.3           R61LEM
000446:                                                                                                  #  NORMAL EXIT MODES-
000447:                                                                                                  #    R22 WILL CONTINUE TO RECYCLE,UPDATING STATE VECTORS WITH RADAR DATA
000448:                                                                                                  #  UNTIL P20 CEASES TO OPERATE (RENDEZVOUS FLAG SET TO ZERO) AT WHICH TIME
000449:                                                                                                  #  R22 WILL TERMINATE SELF.
000450:                                                                                                  #  ALARM OR ABORT EXIT MODES-
000451:                                                                                                  #    PRIORITY ALARM
000452:                                                                                                  #  PRIORITY ALARM 525 LOS NOT WITHIN 3 DEGREE LIMIT
000453:                                                                                                  #  OUTPUT
000454:                                                                                                  #    SEE OUTPUT FROM LSR22.3
000455:                                                                                                  #  ERASABLE INITIALIZATION REQUIRED
000456:                                                                                                  #    SEE LSR22.1,LSR22.2,LSR22.3
000457:                                                                                                  #  FLAGS SET + RESET
000458:                                                                                                  #    NOANGFLG
000459:                                                                                                  #  DEBRIS
000460:                                                                                                  #    SEE LSR22.1,LSR22.2,LSR22.3
000461: 24,2441  E7,1732                                  EBANK=   LRS22.1X
000462: 24,2441                                           COUNT*   $$/R22
000463: 24,2441           05413        R22LEM             TC       PHASCHNG
000464: 24,2442           00152                           OCT      00152
000465: 24,2443           35020                           CAF      RNDVZBIT                              #  IS RENDESVOUS FLAG SET?
000466: 24,2444           70074                           MASK     STATE
000467: 24,2445           00006                           EXTEND
000468: 24,2446           15225                           BZF      ENDOFJOB                              #  NO-EXIT R22 AND P20
000469: 24,2447           35022                           CAF      TRACKBIT                              #  IS TRACKFLAG SET?
000470: 24,2450           70075                           MASK     STATE      +1
000471: 24,2451           00006                           EXTEND
000472: 24,2452           12617                           BZF      R22WAIT                               #  NO WAIT
000473: 24,2453           35011        R22LEM12           CAF      BIT14                                 #  IS RR AUTO TRACK ENABLE DISCRETE STILL
000474: 24,2454           00006                           EXTEND                                         #  ON (A MONITOR REPOSITION BY R25 CLEARSIT
000475: 24,2455           02012                           RAND     CHAN12
000476: 24,2456           00006                           EXTEND
000477: 24,2457           12065                           BZF      P20LEMA                               #  NO - RETURN TO P20
000478: 24,2460           35025                           CAF      BIT2                                  #  YES
000479: 24,2461           00006                           EXTEND                                         #  IS RR AUTO MODE DISCRETE PRESENT
000480: 24,2462           02033                           RAND     CHAN33
000481:
000482: 24,2463           00006                           EXTEND
000483: 24,2464           12466                           BZF      +2                                    #  YES CONTINUE
000484: 24,2465           02105                           TC       P20LEMB5                              #  NO - SET IT
000485: 24,2466           41101                           CS       RADMODES                              #  ARE RR CDUS BEING ZEROED
000486: 24,2467           75012                           MASK     BIT13                                 #  (BIT 13 RADMODES EQUAL ONE)
000487: 24,2470           00006                           EXTEND
000488: 24,2471           12617                           BZF      R22WAIT                               #  CDUS BEING ZEROED
000489: 24,2472           04655                           TC       BANKCALL                              #  YES READ DATA + CALCULATE LOS
000490: 24,2473           53574                           CADR     LRS22.1                               #  DATA READ SUBROUTINE
000491: 24,2474           50154                           INDEX    MPAC
000492: 24,2475           02476                           TC       +1
000493: 24,2476           02517                           TC       R22LEM2                               #  NORMAL RETURN (GOOD DATA)
000494: 24,2477           02162                           TC       P20LEMC                               #  COULD NOT READ RADAR-TRY TO REDESIGNATE
000495: 24,2500           32644                           CAF      ALRM525                               #  RR LOS NOT WITHIN 3 DEGREES (ALARM)
000496: 24,2501           04655                           TC       BANKCALL
000497: 24,2502           21443                           CADR     PRIOLARM
000498: 24,2503           06000                           TC       GOTOV56                               #  TERMINATE EXITS P20 VIA V56 CODING
000499: 24,2504           02507                           TC       R22LEM1                               #  PROC (DISPLAY DELTA THETA)
000500: 24,2505           02500                           TC       -5                                    #  ENTER (ILLEGAL OPTION)
000501: 24,2506           05225                           TC       ENDOFJOB
000502:
000503:
000504: 24,2507           05413        R22LEM1            TC       PHASCHNG
000505: 24,2510           04022                           OCT      04022
000506: 24,2511           32645                           CAF      V06N05                                #  DISPLAY DELTA THETA
000507: 24,2512           04655                           TC       BANKCALL
000508: 24,2513           20417                           CADR     PRIODSP
000509: 24,2514           06000                           TC       GOTOV56                               #  TERMINATE EXITS P20 VIA V56 CODING
000510: 24,2515           02517                           TC       R22LEM2                               #  PROC (OK CONTINUE)
000511: 24,2516           02162                           TC       P20LEMC                               #  ENTER(RECYCLE)
000512: 24,2517           05413        R22LEM2            TC       PHASCHNG
000513: 24,2520           04022                           OCT      04022
000514: 24,2521           02653                           TC       LUNSFCHK                              #  CHECK IF ON LUNAR SURFACE (P22FLAG SET)
000515: 24,2522           02537                           TC       R22LEM3                               #  YES-BYPASS FLAG CHECKS AND LRS22.2
000516: 24,2523           30075                           CA       FLAGWRD1                              #  IS TRACK FLAG SET
000517: 24,2524           75022                           MASK     TRACKBIT
000518: 24,2525           00006                           EXTEND
000519: 24,2526           12617                           BZF      R22WAIT                               #  NO - WAIT
000520: 24,2527           04655                           TC       BANKCALL                              #  YES
000521: 24,2530           53746                           CADR     LRS22.2                               #  CHECKS RR BORESIGHT WITHIN 30 DEG OF +Z
000522: 24,2531           50154                           INDEX    MPAC
000523: 24,2532           02533                           TC       +1
000524: 24,2533           02537                           TC       R22LEM3                               #  NORMAL RETURN(LOS WITHIN 30 OF Z-AXIS)
000525: 24,2534           04655                           TC       BANKCALL
000526: 24,2535           46037                           CADR     R61LEM
000527: 24,2536           02617                           TC       R22WAIT                               #  NOT WITHIN 30 DEG OF Z-AXIS
000528: 24,2537           40075        R22LEM3            CS       FLAGWRD1                              #  SHOULD WE BYPASS STATE VECTOR UPDATE
000529: 24,2540           75021                           MASK     NOUPFBIT                              #  (IS NO UPDATE FLAG SET?)
000530:
000531: 24,2541           00006                           EXTEND
000532: 24,2542           12611                           BZF      R22LEM42                              #  BRANCH-YES
000533: 24,2543           30075                           CA       FLAGWRD1                              #  IS UPDATE FLAG SET
000534: 24,2544           75020                           MASK     UPDATBIT
000535: 24,2545           00006                           EXTEND
000536: 24,2546           12617                           BZF      R22WAIT                               #  UPDATE FLAG NOT SET
000537: 24,2547           37666                           CAF      PRIO26                                #  INSURE HIGH PRIO IN RESTART
000538: 24,2550           55057                           TS       PHSPRDT2
000539:
000540: 24,2551           06014                           TC       INTPRET
000541: 24,2552           77650                           GOTO
000542: 24,2553           54425                                    LSR22.3
000543: 24,2554           77776        R22LEM93           EXIT                                           #  NORMAL EXIT FROM LSR22.3
000544: 24,2555           12610                           TCF      R22LEM44
000545: 24,2556           77776        R22LEM96           EXIT
000546: 24,2557           35030                           CAF      ZERO                                  #  SET N49FLAG = ZERO TO INDICATE
000547: 24,2560           55732                           TS       N49FLAG                               #  V06 N49 DISPLAY HASNT BEEN ANSWERED
000548: 24,2561           05413                           TC       PHASCHNG
000549: 24,2562           04022                           OCT      04022                                 #  TO PROTECT DISPLAY
000550: 24,2563           37666                           CAF      PRIO26                                #  PROTECT DISPLAY
000551: 24,2564           05216                           TC       PRIOCHNG
000552:
000553: 24,2565           32646                           CAF      V06N49NB
000554: 24,2566           04655                           TC       BANKCALL                              #  EXCESSIVE STATE VECTOR UPDATE - FLASH
000555: 24,2567           20414                           CADR     PRIODSPR                              #  VERB 06 NOUN 49 R1=DELTA R, R2=DELTA V
000556: 24,2570           02621                           TC       N49TERM                               #  TERMINATE - EXIT R22 AND P20
000557: 24,2571           02624                           TC       N49PROC                               #  PROCEED - N49FLAG = -1
000558: 24,2572           02627                           TC       N49RECYC                              #  RECYCLE - N49FLAG = + VALUE
000559: 24,2573           37664                           CAF      PRIO24
000560: 24,2574           05216                           TC       PRIOCHNG
000561: 24,2575           06014                           TC       INTPRET
000562: 24,2576           00155                           STORE    MPAC
000563: 24,2577           53135                           SLOAD    BZE                                   #  LOOP TO CHECK IF FLAG
000564: 24,2600           03733                                    N49FLAG
000565: 24,2601           50576                                    -3                                    #  SETTING CHANGED-BRANCH - NO
000566: 24,2602           45040                           BMN      CALL
000567: 24,2603           50632                                    R22LEM7                               #  PROCEED
000568: 24,2604           11054                                    GRP2PC                                #  PHASE CHANGE AND
000569: 24,2605           77650                           GOTO                                           #  GO TO INCORPORATE DATA.
000570: 24,2606           55351                                    ASTOK
000571: 24,2607           77776                           EXIT                                           #  DISPLAY ANSWERED BY RECYCLE
000572: 24,2610           25447        R22LEM44           INCR     MARKCTR                               #  INCREMENT COUNT OF MARKS INCORPORATED.
000573: 24,2611           02653        R22LEM42           TC       LUNSFCHK                              #  CHECK IF ON LUNAR SURFACE (P22FLAG SET)
000574: 24,2612           02615                           TC       R22LEM46                              #  YES - WAIT 2 SECONDS
000575:
000576: 24,2613           32651        R22LEM45           CAF      45SECNDS
000577: 24,2614           02200                           TC       P20LEMWT   +1
000578:
000579: 24,2615           32652        R22LEM46           CAF      30SECNDS
000580: 24,2616           02200                           TC       P20LEMWT   +1
000581:
000582: 24,2617           32647        R22WAIT            CAF      1500DEC
000583: 24,2620           02200                           TC       P20LEMWT   +1
000584:
000585: 24,2621           45026        N49TERM            CS       ONE
000586: 24,2622           55732                           TS       N49FLAG
000587: 24,2623           06000                           TC       GOTOV56
000588:
000589: 24,2624           35026        N49PROC            CAF      ONE
000590: 24,2625           55732                           TS       N49FLAG
000591: 24,2626           05225                           TC       ENDOFJOB
000592:
000593: 24,2627           45026        N49RECYC           CS       ONE
000594: 24,2630           55732                           TS       N49FLAG
000595: 24,2631           02441                           TC       R22LEM
000596:
000597: 24,2632           77776        R22LEM7            EXIT
000598: 24,2633           05225                           TC       ENDOFJOB
000599:
000600: 24,2634           05413        R22RSTRT           TC       PHASCHNG                              #  IF A RESTART OCCURS WHILE READING RADAR
000601: 24,2635           00152                           OCT      00152                                 #  COME HERE TO TAKE A RANGE-RATE READING
000602: 24,2636           04655                           TC       BANKCALL                              #  WHICH ISNT USED TO PREVENT TAKING A BAD
000603: 24,2637           53055                           CADR     RRRDOT                                #  READING AND TRYING TO INCORPORATE THE
000604: 24,2640           04655                           TC       BANKCALL                              #  BAD DATA
000605: 24,2641           17623                           CADR     RADSTALL                              #  WAIT FOR READ COMPLETE
000606: 24,2642           02162                           TC       P20LEMC                               #  COULD NOT READ RADAR - TRY TO REDESIGNATE
000607: 24,2643           02441                           TC       R22LEM                                #  READ SUCCESSFUL - CONTINUE AT R22
000608:
000609: 24,2644           00525        ALRM525            OCT      00525
000610: 24,2645           01405        V06N05             VN       00605
000611: 24,2646           01461        V06N49NB           VN       00649
000612: 24,2647           02734        1500DEC            DEC      1500       B-14
000613: 24,2650           00120        80DEC              DEC      80         B-14
000614: 24,2651           10624        45SECNDS           DEC      4500       B-14
000615: 24,2652           05670        30SECNDS           DEC      3000       B-14
000616:                                                                                                  #  LUNSFCHK-CLOSED SUBROUTINE TO CHECK IF ON LUNAR SURFACE (P22FLAG)
000617:                                                                                                  #           RETURNS TO CALLER +1 IF P22FLAG SET
000618:                                                                                                  #                   TO CALLER +2 IF P22FLAG NOT SET
000619:
000620:
000621: 24,2653                                           COUNT*   $$/P22
000622: 24,2653           40104        LUNSFCHK           CS       FLAGWRD8                              #  CHECK IF ON LUNAR SURFACE
000623: 24,2654           75017                           MASK     SURFFBIT                              #  IS SURFFLAG SET?
000624: 24,2655           00006                           EXTEND                                         #  BRANCH - P22FLAG SET
000625: 24,2656           12660                           BZF      +2
000626: 24,2657           24002                           INCR     Q                                     #  NOT SET
000627: 24,2660           00002                           TC       Q                                     #  RETURN
000628:
000629:                                                                                                  #  RR DESIGNATE ROUTINE (R21LEM)
000630:                                                                                                  #  PROGRAM DESCRIPTION
000631:                                                                                                  #  MOD NO - 2
000632:                                                                                                  #  BY P VOLANTE
000633:                                                                                                  #  FUNCTIONAL DESCRIPTION
000634:
000635:                                                                                                  #    TO POINT THE RENDEZVOUS RADAR AT THE CSM UNTIL AUTOMATIC ACQUISITION
000636:                                                                                                  #  OF THE CSM IS ACCOMPLISHED BY THE RADAR. ROUTINE IS CALLED BY P20.
000637:                                                                                                  #  CALLING SEQUENCE -
000638:                                                                                                  #           TC     BANKCALL
000639:                                                                                                  #           CADR   R21LEM
000640:                                                                                                  #  SUBROUTINES CALLED -
000641:                                                                                                  #    FINDVAC        FLAGUP           ENDOFJOB        PRIOLARM
000642:                                                                                                  #    NOVAC          INTPRET          LPS20.1         PHASCHNG
000643:                                                                                                  #    WAITLIST       JOBSLEEP         JOBWAKE         FLAGDOWN
000644:                                                                                                  #    TASKOVER       BANKCALL         RADSTALL        RRDESSM
000645:                                                                                                  #  NORMAL EXIT MODES
000646:                                                                                                  #    WHEN LOCK-ON IS ACHIEVED,BRANCH WILL BE TO P20 WHERE R22 (DATA READ
000647:                                                                                                  #  WILL BE SELECTED OR A NEED FOR A MANEUVER(BRANCH TO P20LEMA)
000648:                                                                                                  #  ALARM OR ABORT EXIT MODES-
000649:                                                                                                  #    PRIORITY ALARM 503 WHEN LOCK-ON HASN:T BEEN ACHIEVED AFTER 30SECS -
000650:                                                                                                  #  THIS REQUIRES ASTRONAUT INTERFACE- SELECTION OF SEARCH OPTION OF
000651:                                                                                                  #  ACQUISITION
000652:                                                                                                  #  OUTPUT
000653:                                                                                                  #    SEE LPS20.1,RRDESSM
000654:                                                                                                  #  ERASABLE INITIALIZATION REQUIRED
000655:                                                                                                  #    RRTARGET,RADMODES ARE USED BY LPS20.1 AND RRDESSM
000656:                                                                                                  #  FLAGS SET + RESET
000657:                                                                                                  #    LOSCMFLG      LOKONSW
000658:                                                                                                  #  DEBRIS
000659:                                                                                                  #    SEE LPS20.1,RRDESSM
000660: 24,2661  E7,1433                                  EBANK=   LOSCOUNT
000661: 24,2661                                           COUNT*   $$/R21
000662: 24,2661           32256        R21LEM             CAF      MAXTRIES                              #  ALLOW 60 PASSES (APPROX 45 SECS.) TO
000663: 24,2662           55117                           TS       DESCOUNT                              #  DESIGNATE AND LOCKON
000664: 24,2663           45011                           CS       BIT14                                 #  REMOVE RR SELF TRACK ENABLE
000665: 24,2664           00006                           EXTEND
000666: 24,2665           03012                           WAND     CHAN12
000667: 24,2666           35024        R21LEM2            CAF      FOUR
000668: 24,2667           55433                           TS       LOSCOUNT
000669: 24,2670           02653                           TC       LUNSFCHK
000670: 24,2671           02673                           TC       +2
000671: 24,2672           02712                           TC       R21LEM1
000672: 24,2673           41101                           CS       RADMODES
000673: 24,2674           75013                           MASK     BIT12
000674: 24,2675           00006                           EXTEND
000675: 24,2676           12712                           BZF      R21LEM1
000676: 24,2677           35011                           CAF      BIT14
000677: 24,2700           00004                           INHINT
000678: 24,2701           27101                           ADS      RADMODES
000679: 24,2702           35025                           CAF      TWO
000680: 24,2703           05252                           TC       WAITLIST
000681: 24,2704  E7,1433                                  EBANK=   LOSCOUNT
000682: 24,2704           02162 52067                     2CADR    REMODE
000683: 24,2706           00003                           RELINT
000684: 24,2707           04655                           TC       BANKCALL
000685: 24,2710           17623                           CADR     RADSTALL
000686: 24,2711           02712                           TC       +1
000687: 24,2712           06014        R21LEM1            TC       INTPRET
000688: 24,2713           77634                           RTB
000689: 24,2714           21454                                    LOADTIME
000690: 24,2715           34041                           STCALL   TDEC1                                 #  LOS DETERMINATION ROUTINE
000691: 24,2716           53521                                    LPS20.1
000692: 24,2717           77776                           EXIT
000693: 24,2720           05563        R21LEM3            TC       UPFLAG                                #  SET LOKONSW TO RADAR-ON DESIRED
000694: 24,2721           00012                           ADRES    LOKONSW
000695: 24,2722           06014                           TC       INTPRET
000696: 24,2723           77624                           CALL                                           #  INPUT (RRTARGET UPDATED BY LPS20.1)
000697: 24,2724           52352                                    RRDESSM                               #  DESIGNATE ROUTINE
000698: 24,2725           77776                           EXIT
000699: 24,2726           02753                           TC       R21LEM4                               #  LOS NOT IN MODE 2 COVERAGE
000700:                                                                                                  #  ON LUNAR SURFACE
000701: 24,2727           02065                           TC       P20LEMA                               #  VEHICLE MANEUVER REQUIRED.
000702: 24,2730           04655                           TC       BANKCALL                              #  NO VEHICLE MANEUVER REQUIRED
000703: 24,2731           17623                           CADR     RADSTALL                              #  WAIT FOR DESIGNATE COMPLETE - LOCKON OR
000704: 24,2732           02734                           TC       +2                                    #  BADEND-LOCKON NOT ACHIEVED IN 60 TRIES
000705: 24,2733           02743                           TC       R21END                                #  EXIT ROUTINE RETURN TO P20 (LOCK-ON)
000706: 24,2734           32751        R21-503            CAF      ALRM503                               #  ISSUE ALARM 503
000707: 24,2735           04655                           TC       BANKCALL
000708: 24,2736           21443                           CADR     PRIOLARM
000709: 24,2737           06000                           TC       GOTOV56                               #  TERMINATE EXITS P20 VIA V56 CODING
000710: 24,2740           02746                           TC       R21SRCH                               #  PROC
000711: 24,2741           02661                           TC       R21LEM
000712: 24,2742           05225                           TC       ENDOFJOB
000713: 24,2743           05575        R21END             TC       DOWNFLAG
000714: 24,2744           00041                           ADRES    LOSCMFLG                              #  RESET LOSCMFLG
000715: 24,2745           02177                           TC       P20LEMWT                              #  EXIT R21 TO PERFORM DATA READ
000716: 24,2746           05413        R21SRCH            TC       PHASCHNG
000717: 24,2747           04022                           OCT      04022
000718: 24,2750           03033                           TC       R24LEM                                #  SEARCH ROUTINE
000719: 24,2751           00503        ALRM503            OCT      00503
000720: 24,2752           00527        ALRM527            OCT      527
000721:
000722:
000723: 24,2753           32752        R21LEM4            CAF      ALRM527                               #  ALARM 527-LOS NOT IN MODE 2 COVERAGE
000724: 24,2754           04655                           TC       BANKCALL                              #  ON LUNAR SURFACE
000725: 24,2755           21443                           CADR     PRIOLARM
000726:
000727: 24,2756           06000                           TC       GOTOV56                               #  TERMINATE EXITS P20 VIA V56 CODING
000728: 24,2757           02712                           TC       R21LEM1
000729: 24,2760           02753                           TC       -5                                    #  ENTER
000730: 24,2761           05225                           TC       ENDOFJOB
000731:
000732:                                                                                                  #  MANUAL ACQUISITION ROUTINE R23LEM
000733:                                                                                                  #  PROGRAM DESCRIPTION
000734:                                                                                                  #  MOD NO - 2
000735:                                                                                                  #  BY P VOLANTE
000736:                                                                                                  #  FUNCTIONAL DESCRIPTION
000737:
000738:                                                                                                  #    TO ACQUIRE THE CSM BY MANUAL OPERATION OF THE RENDEZVOUS RADAR
000739:                                                                                                  #  CALLING SEQUENCE -
000740:                                                                                                  #           TC     R23LEM
000741:                                                                                                  #  SUBROUTINES CALLED
000742:                                                                                                  #    BANKCALL        R61LEM
000743:                                                                                                  #    SETMINDB        GOPERF1
000744:                                                                                                  #  NORMAL EXIT MODES -
000745:                                                                                                  #    IN RESPONSE TO THE GOPERF1 ,SELECTION OF ENTER WILL RECYCLE R23
000746:                                                                                                  #                               ,SELECTION OF PROC  WILL CONTINUE R23
000747:                                                                                                  #                               ,SELECTION OF TERM  WILL TERMINATE R23 +P20
000748:                                                                                                  #  ALARM OR ABORT EXIT MODES -
000749:                                                                                                  #    SEE NORMAL EXIT MODES ABOVE
000750:                                                                                                  #  OUTPUT
000751:                                                                                                  #    N.A.
000752:                                                                                                  #  ERASABLE INITIALIZATION REQUIRED-
000753:                                                                                                  #    ACMODFLG MUST BE SET TO 1 (MANUAL MODE)
000754: 24,2762     1154                                  EBANK=   GENRET
000755: 24,2762                                           COUNT*   $$/R23
000756: 24,2762           05563        R23LEM             TC       UPFLAG                                #  SET NO ANGLE MONITOR FLAG
000757: 24,2763           00126                           ADRES    NORRMON
000758: 24,2764           00004                           INHINT
000759: 24,2765           04737                           TC       IBNKCALL                              #  SELECT MINIMUM DEADBAND
000760: 24,2766           40221                           CADR     SETMINDB
000761: 24,2767           00003                           RELINT
000762: 24,2770           35011        R23LEM1            CAF      BIT14                                 #  ENABLE TRACKER
000763: 24,2771           00006                           EXTEND
000764: 24,2772           05012                           WOR      CHAN12
000765: 24,2773           33032                           CAF      OCT205
000766: 24,2774           04655                           TC       BANKCALL
000767: 24,2775           20532                           CADR     GOPERF1
000768: 24,2776           03023                           TC       R23LEM2                               #  TERMINATE
000769: 24,2777           03001                           TC       R23LEM11                              #  PROCEDE
000770: 24,3000           03026                           TC       R23LEM3                               #  ENTER- DO ANOTHER MANUVER
000771: 24,3001           00004        R23LEM11           INHINT
000772: 24,3002           04737                           TC       IBNKCALL                              #  RESTORE DEADBAND TO
000773: 24,3003           40204                           CADR     RESTORDB                              #  ASTRONAUT SELECTED VALUE
000774: 24,3004           04540                           TC       RRLIMCHK                              #  YES - CHECK IF ANTENNA IS WITHIN LIMITS
000775: 24,3005           00035                           ADRES    CDUT
000776: 24,3006           03013                           TC       OUTOFLIM                              #  NOT WITHIN LIMITS
000777: 24,3007           00003                           RELINT
000778: 24,3010           05575                           TC       DOWNFLAG                              #  CLEAR NO ANGLE MONITOR FLAG
000779: 24,3011           00126                           ADRES    NORRMON
000780: 24,3012           02134                           TC       P20LEMB1                              #  RADAR IS LOCKED ON CONTINUE IN P20
000781: 24,3013           00003        OUTOFLIM           RELINT
000782:
000783: 24,3014           33031                           CAF      OCT501PV
000784: 24,3015           04655                           TC       BANKCALL                              #  ISSUE ALARM - RR ANTENNA NOT WITHIN
000785: 24,3016           21443                           CADR     PRIOLARM                              #  LIMITS
000786: 24,3017           03023                           TC       R23LEM2                               #  TERMINATE - EXIT R23 TO R00 (GO TO POOH)
000787: 24,3020           03014                           TC       OUTOFLIM   +1                         #  PROCEED ILLEGAL
000788: 24,3021           03026                           TC       R23LEM3                               #  RECYCLE- DO ANOTHER MANUVER
000789: 24,3022           05225                           TC       ENDOFJOB
000790: 24,3023           05575        R23LEM2            TC       DOWNFLAG                              #  CLEAR NO ANGLE MONITOR FLAG
000791: 24,3024           00126                           ADRES    NORRMON
000792: 24,3025           06000                           TC       GOTOV56                               #  AND EXIT VIA V56
000793: 24,3026           04655        R23LEM3            TC       BANKCALL
000794: 24,3027           46037                           CADR     R61LEM
000795: 24,3030           02770                           TC       R23LEM1
000796:
000797: 24,3031           00501        OCT501PV           OCT      501
000798: 24,3032           00205        OCT205             OCT      205
000799:
000800:                                                                                                  #  SEARCH ROUTINE R24LEM
000801:                                                                                                  #  PROGRAM DESCRIPTION
000802:                                                                                                  #  MOD NO - 2
000803:                                                                                                  #  BY  P. VOLANTE
000804:                                                                                                  #  FUNCTIONAL DESCRIPTION
000805:
000806:                                                                                                  #    TO ACQUIRE THE CSM BY A SEARCH PATTERN WHEN THE RENDEZVOUS RADAR HAS
000807:                                                                                                  #  FAILED TO ACQUIRE THE CSM IN THE AUTOMATIC TRACKING MODE AND TO ALLOW
000808:                                                                                                  #  THE ASTRONAUT TO CONFIRM THAT REACQUISITION HAS NOT BEEN BY SIDELOBE.
000809:                                                                                                  #  CALLING SEQUENCE
000810:                                                                                                  #           CAF    PRIONN
000811:                                                                                                  #           TC     FINDVAC
000812:                                                                                                  #           EBANK= DATAGOOD
000813:                                                                                                  #           2CADR  R24LEM
000814:                                                                                                  #  SUBROUTINES CALLED
000815:                                                                                                  #    FLAGUP        FLAGDOWN      BANKCALL
000816:                                                                                                  #    R61LEM        GOFLASHR      FINDVAC
000817:                                                                                                  #    ENDOFJOB      NOVAC         LSR24.1
000818:                                                                                                  #  NORMAL EXIT MODES-
000819:                                                                                                  #    ASTRONAUT RESPONSE TO DISPLAY OF OMEGA AND DATAGOOD.HE CAN EITHER
000820:                                                                                                  #  REJECT BY TERMINATING (SEARCH OPTION AND RESELECTING P20) OR ACCEPT BY
000821:                                                                                                  #  PROCEEDING (EXIT ROUTINE AND RETURN TO AUTO MODE IN P20)
000822:                                                                                                  #  ALARM OR ABORT EXIT MODES-
000823:                                                                                                  #    SEE NORMAL EXIT MODES ABOVE
000824:                                                                                                  #  OUTPUT -
000825:                                                                                                  #    SEE OUTPUT FROM LSR24.1 + R61LEM
000826:                                                                                                  #  ERASABLE INITIALIZATION REQUIRED
000827:                                                                                                  #    SEE INPUT FOR LSR24.1
000828:                                                                                                  #  FLAGS SET + RESET
000829:                                                                                                  #    SRCHOPT,ACMODFLG
000830: 24,3033  E7,1720                                  EBANK=   DATAGOOD
000831: 24,3033                                           COUNT*   $$/R24
000832: 24,3033           05563        R24LEM             TC       UPFLAG
000833: 24,3034           00037                           ADRES    SRCHOPTN                              #  SET SRCHOPT FLAG
000834: 24,3035           35030        R24LEM1            CAF      ZERO
000835: 24,3036           55720                           TS       DATAGOOD                              #  ZERO OUT DATA INDICATOR
000836: 24,3037           55721                           TS       OMEGAD                                #  ZERO OMEGA DISPLAY REGS
000837: 24,3040           55722                           TS       OMEGAD     +1                         #  ZERO OMEGA DISPLAY REGS
000838: 24,3041           05413        R24LEM2            TC       PHASCHNG
000839: 24,3042           04022                           OCT      04022
000840: 24,3043           33115                           CAF      V16N80
000841: 24,3044           04655                           TC       BANKCALL
000842: 24,3045           20414                           CADR     PRIODSPR
000843: 24,3046           06000                           TC       GOTOV56
000844: 24,3047           03053                           TC       R24END                                #  PROCEED EXIT R24 TO P20LEM1
000845:
000846:
000847: 24,3050           03071                           TC       R24LEM3                               #  RECYCLE - CALL R61 TO MANEUVER S/C
000848:
000849: 24,3051           04655                           TC       BANKCALL
000850: 24,3052           55362                           CADR     LRS24.1
000851: 24,3053           00004        R24END             INHINT
000852: 24,3054           06005                           TC       KILLTASK
000853: 24,3055           55575                           CADR     CALLDGCH
000854: 24,3056           00003                           RELINT
000855: 24,3057           03061                           TC       CLRADMOD                              #  CLEAR BITS 10 & 15 OF RADMODES.
000856: 24,3060           02037                           TC       P20LEM1                               #  AND GO TO 400 MI. RANGE CHECK IN P20.
000857:
000858: 24,3061           43114        CLRADMOD           CS       BIT10+15
000859: 24,3062           00004                           INHINT
000860: 24,3063           71101                           MASK     RADMODES
000861: 24,3064           55101                           TS       RADMODES
000862: 24,3065           45025                           CS       BIT2                                  #  DISABLE RR ERROR COUNTERS
000863: 24,3066           00006                           EXTEND
000864: 24,3067           03012                           WAND     CHAN12                                #  USER WILL RELINT
000865:
000866: 24,3070           00002                           TC       Q
000867:
000868: 24,3071           05413        R24LEM3            TC       PHASCHNG
000869: 24,3072           04022                           OCT      04022
000870: 24,3073           00004                           INHINT
000871: 24,3074           06005                           TC       KILLTASK
000872: 24,3075           52556                           CADR     STDESIG                               #  KILL WAITLIST FOR NEXT POINT IN PATTERN
000873: 24,3076           00003                           RELINT                                         #  HALF SECOND DESIGNATE LOOP
000874: 24,3077           03061                           TC       CLRADMOD
000875: 24,3100           45025                           CS       BIT2
000876: 24,3101           00006                           EXTEND
000877: 24,3102           03012                           WAND     CHAN12
000878: 24,3103           02653                           TC       LUNSFCHK                              #  CHECK IF ON LUNAR SURFACE
000879: 24,3104           03041                           TC       R24LEM2                               #  YES-DONT DO ATTITUDE MANEUVER
000880: 24,3105           05563                           TC       UPFLAG
000881: 24,3106           00152                           ADRES    MANUFLAG
000882: 24,3107           04655                           TC       BANKCALL                              #  CALL R61 TO DO PREFERRED TRACKING
000883: 24,3110           46037                           CADR     R61LEM                                #  ATTITUDE MANEUVER
000884: 24,3111           05575                           TC       DOWNFLAG
000885: 24,3112           00152                           ADRES    MANUFLAG
000886: 24,3113           03041                           TC       R24LEM2                               #  AND GO BACK TO PUT UP V16 N80 DISPLAY
000887:
000888: 24,3114           41000        BIT10+15           OCT      41000
000889: 24,3115           04120        V16N80             VN       01680
000890:
000891:                                                                                                  #  PREFERRED TRACKING ATTITUDE ROUTINE R61LEM
000892:                                                                                                  #  PROGRAM DESCRIPTION
000893:                                                                                                  #  MOD NO : 3                      DATE : 4-11-67
000894:                                                                                                  #  MOD BY : P VOLANTE  SDC
000895:
000896:
000897:                                                                                                  #  FUNCTIONAL DESCRIPTION-
000898:                                                                                                  #    TO COMPUTE THE PREFERRED TRACKING ATTITUDE OF THE LM TO ENABLE RR
000899:                                                                                                  #  TRACKING OF THE CSM AND TO PERFORM THE MANEUVER TO THE PREFERRED
000900:                                                                                                  #  ATTITUDE.
000901:                                                                                                  #  CALLING SEQUENCE-
000902:                                                                                                  #           TC     BANKCALL
000903:                                                                                                  #           CADR   R61LEM
000904:                                                                                                  #  SUBROUTINES CALLED
000905:                                                                                                  #      LPS20.1       VECPOINT
000906:                                                                                                  #      KALCMAN3
000907:
000908:
000909:                                                                                                  #  NORMAL EXIT MODES-
000910:                                                                                                  #    NORMAL RETURN IS TO CALLER + 1
000911:                                                                                                  #  ALARM OR ABORT EXIT MODES-
000912:                                                                                                  #    TERMINATE P20 + R61 BY BRANCHING TO P20END IF BOTH TRACKFLAG +
000913:                                                                                                  #  RENDEZVOUS FLAG ARE NOT SET.
000914:                                                                                                  #  OUTPUT -
000915:                                                                                                  #    SEE OUTPUT FOR LPS20.1 + ATTITUDE MANEUVER ROUTINE (R60)
000916:                                                                                                  #  ERASABLE INITIALIZATION REQUIRED
000917:                                                                                                  #    GENRET USED TO SAVE Q FOR RETURN
000918:                                                                                                  #  FLAGS SET + RESET
000919:                                                                                                  #    3AXISFLG
000920:                                                                                                  #  DEBRIS
000921:                                                                                                  #    SEE SUBROUTINES
000922: 23,2000                                           SETLOC   R61
000923: 23,2000                                           BANK
000924: 23,2037  E7,1433                                  EBANK=   LOSCOUNT
000925: 23,2037                                           COUNT*   $$/R61
000926: 23,2037           04704        R61LEM             TC       MAKECADR
000927: 23,2040           55154                           TS       GENRET
000928: 23,2041           05413                           TC       PHASCHNG
000929: 23,2042           04022                           OCT      04022
000930: 23,2043           35022        R61C+L01           CAF      TRACKBIT                              #  TRACKFLAG
000931: 23,2044           70075                           MASK     STATE      +1
000932: 23,2045           00006                           EXTEND
000933: 23,2046           12076                           BZF      R61C+L1                               #  NOT SET
000934: 23,2047           06014        R61C+L03           TC       INTPRET                               #  SET
000935: 23,2050           77775                           VLOAD
000936: 23,2051           06225                                    HIUNITZ
000937: 23,2052           01250                           STORE    SCAXIS                                #  TRACK AXIS UNIT VECTOR
000938: 23,2053           77634                           RTB
000939: 23,2054           21454                                    LOADTIME                              #  PRESENT TIME
000940: 23,2055           34041                           STCALL   TDEC1
000941: 23,2056           53521                                    LPS20.1                               #  LOS DETERMINATION + VEH ATTITUDE
000942: 23,2057           77775                           VLOAD
000943: 23,2060           01105                                    RRTARGET
000944: 23,2061           01256                           STORE    POINTVSM                              #  DIRECTION IN WHICH TRACK AXIS IS TO BE
000945: 23,2062           77414                           CLEAR    EXIT
000946: 23,2063           02671                                    3AXISFLG
000947: 23,2064           05563                           TC       UPFLAG
000948: 23,2065           00077                           ADRES    PDSPFLAG                              #  SET PRIORITY DISPLAY FLAG
000949: 23,2066           04655                           TC       BANKCALL
000950: 23,2067           54103                           CADR     R60LEM
000951: 23,2070           05413                           TC       PHASCHNG
000952: 23,2071           04022                           OCT      04022
000953: 23,2072           05575                           TC       DOWNFLAG
000954: 23,2073           00077                           ADRES    PDSPFLAG                              #  RESET PRIORITY DISPLAY FLAG
000955:
000956: 23,2074           31154        R61C+L4            CAE      GENRET
000957: 23,2075           14677                           TCF      BANKJUMP                              #  EXIT R61
000958: 23,2076           32103        R61C+L1            CAF      BIT7+9PV                              #  IS RENDEZVOUS OR P25FLAG SET
000959: 23,2077           70074                           MASK     STATE
000960: 23,2100           00006                           EXTEND
000961: 23,2101           15225                           BZF      ENDOFJOB                              #  NO-EXIT ROUTINE AND PROGRAM.
000962: 23,2102           02074                           TC       R61C+L4                               #  YES EXIT ROUTINE
000963: 23,2103           00500        BIT7+9PV           OCT      00500
000964:


000966:
000967:    4524                                           BLOCK    02
000968:    4000                                           SETLOC   RADARFF
000969:    4000                                           BANK
000970:
000971:    4524  E7,1433                                  EBANK=   LOSCOUNT
000972:    4524                                           COUNT*   $$/RRSUB
000973:
000974:                                                                                                  #  THE FOLLOWING SUBROUTINE RETURNS TO CALLER + 2 IF THE ABSOLUTE VALUE OF VALUE OF C(A) IS GREATER THAN THE
000975:                                                                                                  #  NEGATIVE OF THE NUMBER AT CALLER +1. OTHERWISE IT RETURNS TO CALLER +3. MAY BE CALLED IN RUPT OR UNDER EXEC.
000976:
000977:    4524           00006        MAGSUB             EXTEND
000978:    4525           64527                           BZMF     +2
000979:    4526           14530                           TCF      +2
000980:    4527           40000                           COM
000981:
000982:    4530           50002                           INDEX    Q
000983:    4531           60000                           AD       0
000984:    4532           00006                           EXTEND
000985:    4533           64536                           BZMF     +3
000986:
000987:    4534           50002                           INDEX    Q
000988:    4535           00001                           TC       1
000989:
000990:    4536           50002                           INDEX    Q
000991:    4537           00002                           TC       2
000992:
000993:                                                                                                  #  PROGRAM NAME_  RRLIMCHK                                                  ARE IN THE LIMITS OF THE CURRENT MODE.
000994:
000995:                                                                                                  #  FUNCTIONAL DESCRIPTION_
000996:                                                                                                  #  RRLIMCHK CHECKS RR DESIRED GIMBAL ANGLES TO SEE IF THEY ARE WITHIN
000997:                                                                                                  #  THE LIMITS OF THE CURRENT MODE. INITIALLY THE DESIRED TRUNNION AND
000998:                                                                                                  #  SHAFT ANGLES ARE STORED IN ITEMP1 AND ITEMP2. THE CURRENT RR
000999:                                                                                                  #  ANTENNAE MODE (RADMODES BIT 12) IS CHECKED WHICH IS = 0 FOR
001000:                                                                                                  #  MODE 1 AND =1 FOR MODE 2.
001001:                                                                                                  #  MODE 1 - THE TRUNNION ANGLE IS CHECKED AT MAGSUB TO SEE IF IT IS
001002:                                                                                                  #  BETWEEN -55 AND +55 DEGREES. IF NOT, RETURN TO L +2. IF WITHIN LIMITS,
001003:                                                                                                  #  THE SHAFT ANGLE IS CHECKED TO SEE IF IT IS BETWEEN -70 AND +59 DEGREES.
001004:                                                                                                  #  IF NOT, RETURN TO L +2. IF IN LIMITS, RETURN TO L +3.
001005:                                                                                                  #  MODE 2 - THE SHAFT ANGLE IS CHECKED AT MAGSUB TO SEE IF IT IS
001006:                                                                                                  #  BETWEEN -139 AND -25 DEGREES. IF NOT, RETURN TO L +2. IF WITHIN
001007:                                                                                                  #  LIMITS, THE TRUNNION ANGLE IS CHECKED TO SEE IF IT IS BETWEEN +125
001008:                                                                                                  #  AND -125 (+235) DEGREES. IF NOT, RETURN TO L +2. IF IN LIMITS, RETURN
001009:                                                                                                  #  TO L +3.
001010:
001011:                                                                                                  #  CALLING SEQUENCE:
001012:                                                                                                  #  L  TC  RRLIMCHK (WITH INTERRUPT INHIBITED)
001013:                                                                                                  #  L +1  ADRES  T,S  (DESIRED TRUNNION ANGLE ADDRESS)
001014:
001015:                                                                                                  #  ERASABLE INITIALIZATION REQUIRED:
001016:                                                                                                  #  RADMODES, MODEA, MODEB (OR DESIRED TRUNNION AND SHAFT
001017:                                                                                                  #  ANGLES ELSEWHERE IN CONSECUTIVE LOCATIONS - UNSWITCHED ERASABLE OR
001018:                                                                                                  #  CURRENT EBANK).
001019:
001020:                                                                                                  #  SUBROUTINES CALLED_  MAGSUB
001021:
001022:                                                                                                  #  JOBS OR TASKS INITIATED_  NONE
001023:
001024:                                                                                                  #  ALARMS_  NONE
001025:
001026:                                                                                                  #  EXIT_  L + 2 (EITHER OR BOTH ANGLES NOT WITHIN LIMITS OF CURRENT MODE)
001027:                                                                                                  #  L + 3 (BOTH ANGLES WITHIN LIMITS OF CURRENT MODE)
001028:
001029:    4540           00006        RRLIMCHK           EXTEND
001030:    4541           50002                           INDEX    Q
001031:    4542           50000                           INDEX    0
001032:    4543           30001                           DCA      0
001033:    4544           24002                           INCR     Q
001034:    4545           52062                           DXCH     ITEMP1
001035:    4546           22002                           LXCH     Q                                     #  L(CALLER +2) TO L.
001036:
001037:    4547           35013                           CAF      BIT12                                 #  SEE WHICH MODE RR IS IN.
001038:    4550           71101                           MASK     RADMODES
001039:    4551           10000                           CCS      A
001040:    4552           14565                           TCF      MODE2CHK
001041:
001042:    4553           30061                           CA       ITEMP1                                #  MODE 1 IS DEFINED AS
001043:
001044:    4554           04524                           TC       MAGSUB                                #      1. ABS(T) L 55 DEGS.
001045:    4555           66161                           DEC      -.30555                               #      2. ABS(S + 5.5 DEGS) L 64.5 DEGS
001046:    4556           00001                           TC       L                                     #          (SHAFT LIMITS AT +59, -70 DEGS)
001047:
001048:    4557           34577                           CAF      5.5DEGS
001049:    4560           60062                           AD       ITEMP2                                #  S
001050:    4561           04524                           TC       MAGSUB
001051:    4562           64420                           DEC      -.35833                               #  64.5 DEGS
001052:    4563           00001                           TC       L
001053:    4564           04575                           TC       RRLIMOK                               #  IN LIMITS.
001054:
001055:    4565           34600        MODE2CHK           CAF      82DEGS                                #  MODE 2 IS DEFINED AS
001056:    4566           60062                           AD       ITEMP2                                #      1. ABS(T) G 125 DEGS.
001057:    4567           04524                           TC       MAGSUB                                #      2. ABS(S + 82 DEGS) L 57 DEGS
001058:    4570           65673                           DEC      -.31667                               #          (SHAFT LIMITS AT -25, -139 DEGS)
001059:    4571           00001                           TC       L
001060:
001061:    4572           30061                           CA       ITEMP1
001062:    4573           04524                           TC       MAGSUB
001063:    4574           51615                           DEC      -.69444                               #  125 DEGS
001064:
001065:    4575           50001        RRLIMOK            INDEX    L
001066:    4576           00001                           TC       L                                     #  ( = TC 1 )
001067:
001068:    4577           00765        5.5DEGS            DEC      .03056
001069:    4600           16450        82DEGS             DEC      .45556
001070:
001071:                                                                                                  #  PROGRAM NAME_  SETTRKF                                                  . IF EITHER:
001072:
001073:                                                                                                  #  FUNCTIONAL DESCRIPTION_
001074:                                                                                                  #  SETTRKF UPDATES THE TRACKER FAIL LAMP ON THE DSKY.                      HER THE ALT OR VEL INFORMATION.
001075:                                                                                                  #  INITIALLY THE LAMP TEST FLAG (IMODES33 BIT 1) IS CHECKED.
001076:                                                                                                  #  IF A LAMP TEST IS IN PROGRESS, THE PROGRAM EXITS TO L +1.
001077:                                                                                                  #  IF NO LAMP TEST THE FOLLOWING IS CHECKED SEQUENTIALLY_
001078:                                                                                                  #  1) RR CDU:S BEING ZEROED, RR CDU OK, AND RR NOT IN
001079:                                                                                                  #  AUTO MODE (RADMODES BITS 13, 7, 2).
001080:                                                                                                  #  2) LR VEL DATA FAIL AND NO LR POS DATA (RADMODES BITS
001081:                                                                                                  #  8,5)
001082:                                                                                                  #  3) NO RR DATA (RADMODES BIT 4)
001083:                                                                                                  #  THE ABSENCE OF ALL THREE SIMULTANEOUSLY IN (1), THE PRESENCE OF BOTH
001084:                                                                                                  #  IN (2), AND THE PRESENCE OF (3) RESULTS IN EITHER THE TRACKER FAIL
001085:                                                                                                  #  LAMP (DSPTAB +11D BIT 8) BEING TURNED ON OR LEFT ON. OTHERWISE,
001086:                                                                                                  #  THE TRACKER FAIL LAMP IS TURNED OFF OR IS LEFT OFF. THEREFORE, THE
001087:                                                                                                  #  TRACKER FAIL LAMP IS TURNED ON IF_
001088:                                                                                                  #  A ) RR CDU FAILED WITH RR IN AUTO MODE AND RR CDU:S NOT BEING ZEROED.
001089:                                                                                                  #  B) N SAMPLES OF LR DATA COULD NOT BE TAKEN IN 2N TRIES WITH
001090:                                                                                                  #  EITHER THE ALT OR VEL INFORMATION
001091:                                                                                                  #  C) N SAMPLES OF RR DATA COULD NOT BE OBTAINED FROM 2N TRIES
001092:                                                                                                  #  WITH EITHER THE AL
001093:
001094:                                                                                                  #  CALLING SEQUENCE:
001095:                                                                                                  #  L  TC  SETTRKF
001096:
001097:                                                                                                  #  ERASABLE INITIALIZATION REQUIRED: IMODES33, RADMODES, DSPTAB +11D
001098:                                                                                                  #  SUBROUTINES CALLED_  NONE
001099:
001100:                                                                                                  #  JOBS OR TASKS INITIATED_  NONE
001101:
001102:                                                                                                  #  ALARMS_  TRACKER FAIL LAMP
001103:
001104:                                                                                                  #  EXIT_  L +1 (ALWAYS)                                                    ED.
001105:
001106:    4601           35026        SETTRKF            CAF      BIT1                                  #  NO ACTION IF DURING LAMP TEST.
001107:    4602           71305                           MASK     IMODES33
001108:    4603           10000                           CCS      A
001109:    4604           00002                           TC       Q
001110:
001111:    4605           34654                           CAF      13,7,2                                #  SEE IF CDU FAILED.
001112:    4606           71101                           MASK     RADMODES
001113:    4607           00006                           EXTEND
001114:    4610           14634                           BZF      TRKFLON                               #  CONDITION 3 ABOVE.
001115:
001116:    4611           00006                           EXTEND
001117:    4612           00013                           READ     CHAN13
001118:    4613           75032                           MASK     LOW3
001119:    4614           54001                           TS       L
001120:    4615           75024                           MASK     BIT3
001121:    4616           00006                           EXTEND
001122:    4617           14631                           BZF      RRCHECK
001123:
001124:    4620           35032                           CAF      LOW3
001125:    4621           00006                           EXTEND
001126:    4622           06001                           RXOR     LCHAN
001127:    4623           10000                           CCS      A
001128:    4624           14651                           TCF      LRVELCHK
001129:
001130:    4625           41101        LRALTCHK           CS       RADMODES
001131:    4626           75022                           MASK     LRALTBIT
001132:    4627           00006        LRCHECK            EXTEND
001133:    4630           14634                           BZF      TRKFLON
001134:
001135:    4631           35023        RRCHECK            CAF      BIT4                                  #  SEE IF RR DATA FAILED.
001136:    4632           71101                           MASK     RADMODES
001137:
001138:    4633           10000                           CCS      A
001139:    4634           35017        TRKFLON            CAF      BIT8
001140:    4635           61037                           AD       DSPTAB     +11D                       #  HALF ADD DESIRED AND PRESENT STATES.
001141:    4636           75017                           MASK     BIT8
001142:    4637           00006                           EXTEND
001143:    4640           16716                           BZF      TCQ                                   #  NO CHANGE.
001144:
001145:    4641           54001        FLIP               TS       L
001146:    4642           31037                           CA       DSPTAB     +11D                       #  CANT USE LXCH DSPTAB +11D (RESTART PROB)
001147:    4643           00006                           EXTEND
001148:    4644           06001                           RXOR     LCHAN
001149:    4645           75006                           MASK     POSMAX
001150:    4646           65010                           AD       BIT15
001151:    4647           55037                           TS       DSPTAB     +11D
001152:    4650           00002                           TC       Q
001153:
001154:    4651           41101        LRVELCHK           CS       RADMODES
001155:    4652           75017                           MASK     LRVELBIT
001156:    4653           14627                           TCF      LRCHECK
001157:
001158:    4654           10102        13,7,2             OCT      10102
001159:    4655                        ENDRMODF           EQUALS
001160:


001162:
001163:                                                                                                  #  PROGRAM NAME_  RRTURNON
001164:
001165:                                                                                                  #  FUNCTIONAL DESCRIPTION_
001166:
001167:                                                                                                  #  RRTURNON IS THE TURN-ON SEQUENCE WHICH, ALONG WITH
001168:                                                                                                  #  RRZEROSB, ZEROS THE CDU:S AND DETERMINES THE RR MODE.
001169:                                                                                                  #  INITIALLY, CONTROL IS TRANSFERRED TO RRZEROSB FOR THE
001170:                                                                                                  #  ACTUAL TURN-ON SEQUENCE. UPON RETURN THE PROGRAM
001171:                                                                                                  #  WAITS 1 SECOND BEFORE REMOVING THE TURN-ON FLAG
001172:                                                                                                  #  (RADMODES BIT1) SO THE REPOSITION ROUTINE WON:T
001173:                                                                                                  #  INITIATE PROGRAM ALARM 00501. A CHECK IS THEN MADE
001174:                                                                                                  #  TO SEE IF A PROGRAM IS USING THE RR (STATE BIT 7). IF
001175:                                                                                                  #  SO, THE PROGRAM EXITS TO ENDRADAR SO THAT THE RR CDU
001176:                                                                                                  #  FAIL FLAG (RADMODES BIT 7) CAN BE CHECKED BEFORE
001177:                                                                                                  #  RETURNING TO THE WAITING PROGRAM. IF NOT, THE PROGRAM EXITS
001178:                                                                                                  #  TO TASKOVER.
001179:
001180:                                                                                                  #  CALLING SEQUENCE: WAITLIST TASK FROM RRAUTCHK IF THE RR POWER ON AUTO
001181:                                                                                                  #  BIT (CHAN 33 BIT 2) CHANGES TO 0 AND NO PROGRAM WAS USING
001182:                                                                                                  #  THE RR (STATE BIT 7).
001183:
001184:                                                                                                  #  ERASABLE INITIALIZATION REQUIRED:
001185:                                                                                                  #  RADMODES, STATE
001186:
001187:                                                                                                  #  SUBROUTINES CALLED_  RRZEROSB, FIXDELAY, TASKOVER, ENDRADAR
001188:
001189:                                                                                                  #  JOBS OR TASKS INITIATED_
001190:                                                                                                  #  NONE
001191:
001192:                                                                                                  #  ALARMS_  NONE (SEE RRZEROSB)
001193:
001194:                                                                                                  #  EXIT_  TASKOVER, ENDRADAR (WAITING PROGRAM)
001195:
001196: 24,3116                                           BANK     24
001197: 25,2000                                           SETLOC   P20S1
001198: 25,2000                                           BANK
001199:
001200: 25,2053  E7,1433                                  EBANK=   LOSCOUNT
001201: 25,2053                                           COUNT*   $$/RSUB
001202: 25,2053           02062        RRTURNON           TC       RRZEROSB
001203: 25,2054           05271                           TC       FIXDELAY                              #  WAIT 1 SEC BEFORE REMOVING TURN ON FLAG
001204: 25,2055           00144                           DEC      100        B-14                       #  SO A MONITOR REPOSITION WONT ALARM.
001205: 25,2056           45026                           CS       BIT1
001206: 25,2057           71101                           MASK     RADMODES
001207: 25,2060           55101                           TS       RADMODES
001208: 25,2061           15321                           TCF      TASKOVER
001209:
001210:                                                                                                  #  PROGRAM NAME_  RRZEROSB
001211:
001212:                                                                                                  #  FUNCTIONAL DESCRIPTION_
001213:                                                                                                  #  RRZEROSB IS A CLOSED SUBROUTINE TO ZERO THE RR CDU:S,
001214:                                                                                                  #  DETERMINE THE RR MODE, AND TURNS ON THE TRACKER FAIL
001215:                                                                                                  #  LAMP IF REQUIRED. INITIALLY THE RR CDU ZERO BIT (CHAN 12
001216:                                                                                                  #  BIT 1) IS SET. FOLLOWING A 20 MILLISECOND WAIT, THE LGC
001217:                                                                                                  #  RR CDU COUNTERS (OPTY, OPTX) ARE SET = 0 AFTER
001218:                                                                                                  #  WHICH THE RR CDU ZERO DISCRETE (CHAN 12 BIT 1) IS
001219:                                                                                                  #  REMOVED. A 4 SECOND WAIT IS SET TO ALL THE RR CDU:S
001220:                                                                                                  #  TO REPEAT THE ACTUAL TRUNNION AND SHAFT ANGLES. THE
001221:                                                                                                  #  RR CDU ZERO FLAG (RADMODES BIT 13) IS REMOVED. THE
001222:                                                                                                  #  CONTENTS OF OPTY IS THEN CHECKED TO SEE IF THE TRUNNION
001223:                                                                                                  #  ANGLE IS LESS THAN 90 DEGREES. IF NOT, BIT 12 OF
001224:                                                                                                  #  RADMODES IS SET = 1 TO INDICATE RR ANTENNA MODE 2.
001225:                                                                                                  #  IF LESS THAN 90 DEGREES, BIT 12 OF RADMODES IS SET = 0 TO
001226:                                                                                                  #  INDICATE RR ANTENNA MODE 1. SETTRKF IS THEN CALLED TO
001227:                                                                                                  #  SEE IF THE TRACKER FAIL LAMP SHOULD BE TURNED ON.
001228:
001229:                                                                                                  #  CALLING SEQUENCE: L  TC  RRZEROSB (FROM RRTURNON AND RRZERO)
001230:                                                                                                  #  ERASABLE INITIALIZATION REQUIRED:
001231:                                                                                                  #  RADMODES (BIT 13 SET), DSPTAB +11D
001232:
001233:                                                                                                  #  SUBROUTINES CALLED_  FIXDELAY, MAGSUB, SETTRKF
001234:
001235:                                                                                                  #  JOBS OR TASKS INITIATED_
001236:                                                                                                  #  NONE
001237:
001238:                                                                                                  #  ALARMS_  TRACKER FAIL
001239:
001240:                                                                                                  #  EXIT_  L +1 (ALWAYS)
001241:
001242: 25,2062           00006        RRZEROSB           EXTEND
001243: 25,2063           22111                           QXCH     RRRET
001244: 25,2064           35026                           CAF      BIT1                                  #  BIT 13 OF RADMODES MUST BE SET BEFORE
001245: 25,2065           00006                           EXTEND                                         #  COMING HERE.
001246: 25,2066           05012                           WOR      CHAN12                                #  TURN ON ZERO RR CDU
001247: 25,2067           05271                           TC       FIXDELAY
001248: 25,2070           00002                           DEC      2          B-14
001249:
001250: 25,2071           35030                           CAF      ZERO
001251: 25,2072           54035                           TS       CDUT
001252: 25,2073           54036                           TS       CDUS
001253: 25,2074           45026                           CS       ONE                                   #  REMOVE ZEROING BIT.
001254: 25,2075           00006                           EXTEND
001255: 25,2076           03012                           WAND     CHAN12
001256: 25,2077           05271                           TC       FIXDELAY
001257: 25,2100           01750                           DEC      1000       B-14                       #  RESET FAIL INHIBIT IN 10 SECS - D.281
001258:
001259: 25,2101           45012                           CS       BIT13                                 #  REMOVE ZEROING IN PROCESS BIT.
001260:
001261: 25,2102           71101                           MASK     RADMODES
001262: 25,2103           55101                           TS       RADMODES
001263:
001264: 25,2104           30035                           CA       CDUT
001265: 25,2105           04524                           TC       MAGSUB
001266: 25,2106           57777                           DEC      -.5
001267: 25,2107           12112                           TCF      +3                                    #  IF MODE 2.
001268:
001269: 25,2110           35030                           CAF      ZERO
001270: 25,2111           12113                           TCF      +2
001271: 25,2112           35013                           CAF      BIT12
001272: 25,2113           57101                           XCH      RADMODES
001273: 25,2114           77712                           MASK     -BIT12
001274: 25,2115           27101                           ADS      RADMODES
001275:
001276: 25,2116           04601                           TC       SETTRKF                               #  TRACKER LAMP MIGHT GO ON NOW.
001277:
001278: 25,2117           00111                           TC       RRRET                                 #  DONE.
001279:
001280: 25,2120     7712               -BIT12             EQUALS   -1/8                                  #  IN SPROOT
001281:
001282:                                                                                                  #  PROGRAM NAME_  DORREPOS
001283:                                                                                                  #  FUNCTIONAL DESCRIPTION_
001284:                                                                                                  #  DORREPOS IS A SEQUENCE OF TASKS TO DRIVE THE RENDEZVOUS RADAR
001285:                                                                                                  #  TO A SAFE POSITION. INITIALLY SETRRECR IS CALLED WHERE THE RR
001286:                                                                                                  #  ERROR COUNTERS (CHAN 12 BIT 2) ARE ENABLED AND LASTYCMD
001287:                                                                                                  #  AND LASTXCMD SET = 0 TO INDICATE THE DIFFERENCE BETWEEN THE
001288:                                                                                                  #  DESIRED STATE AND PRESENT STATE OF THE COMMANDS. THE RR
001289:                                                                                                  #  TURN-ON FLAG (RADMODES BIT 1) IS CHECKED AND IF NOT PRESENT,
001290:                                                                                                  #  PROGRAM ALARM 00501 IS REQUESTED BEFORE CONTINUING. IN EITHER
001291:                                                                                                  #  CASE, FOLLOWING A 20 MILLISECOND WAIT THE PROGRAM CHECKS THE CURRENT
001292:                                                                                                  #  RR ANTENNA MODE (RADMODES BIT 12). RRTONLY IS THEN CALLED
001293:                                                                                                  #  TO DRIVE THE TRUNNION ANGLE TO 0 DEGREES IF IN MODE 1 AND TO 180
001294:                                                                                                  #  DEGREES IF IN MODE 2. UPON RETURN, THE CURRENT RR ANTENNA
001295:                                                                                                  #  MODE (RADMODES BIT 12) IS AGAIN CHECKED. RRSONLY IS THEN
001296:                                                                                                  #  CALLED TO DRIVE THE SHAFT ANGLE TO 0 DEGREES IF IN MODE 1 AND TO
001297:                                                                                                  #  -90 DEGREES IF IN MODE 2. IF DURING RRTONLY OR RRSONLY A
001298:                                                                                                  #  REMODE HAS BEEN REQUESTED (RADMODES BIT 14), AND ALWAYS
001299:                                                                                                  #  FOLLOWING COMPLETION OF RRSONLY, CONTROL IS TRANSFERRED TO
001300:                                                                                                  #  REPOSRPT. HERE THE REPOSITION FLAG (RADMODES BIT 11) IS
001301:                                                                                                  #  REMOVED. A CHECK IS THEN MADE ON THE DESIGNATE FLAG (RADMODES
001302:                                                                                                  #  BIT 10). IF PRESENT, CONTROL IS TRANSFERRED TO BEGDES. IF NOT PRESENT
001303:                                                                                                  #  INDICATING NO FURTHER ANTENNA CONTROL REQUIRED, THE RR ERROR
001304:                                                                                                  #  COUNTER BIT (CHAN 12 BIT 2) IS REMOVED AND THE ROUTINE EXITS TO
001305:                                                                                                  #  TASKOVER.
001306:
001307:                                                                                                  #  CALLING SEQUENCE:
001308:                                                                                                  #  WAITLIST CALL FROM RRGIMON IF TRUNNION AND SHAFT CDU ANGLES
001309:                                                                                                  #  NOT WITHIN LIMITS OF CURRENT MODE.
001310:
001311:                                                                                                  #  ERASABLE INITIALIZATION REQUIRED:
001312:                                                                                                  #  RADMODES
001313:
001314:                                                                                                  #  SUBROUTINES CALLED_
001315:                                                                                                  #  RRTONLY, RRSONLY, BEGDES (EXIT)
001316:
001317:                                                                                                  #  JOBS OR TASKS INITIATED_
001318:                                                                                                  #  NONE
001319:
001320:                                                                                                  #  ALARMS-  NONE
001321:
001322:                                                                                                  #  EXIT_  TASKOVER, BEGDES
001323:
001324: 25,2120           02147        DORREPOS           TC       SETRRECR                              #  SET UP RR CDU ERROR COUNTERS.
001325:
001326:                                                                                                  #  ALARM 501 DELETED IN DANCE 279 PER PCR 97.
001327:
001328: 25,2121           05271                           TC       FIXDELAY
001329: 25,2122           00002                           DEC      2          B-14
001330:
001331: 25,2123           35013                           CAF      BIT12                                 #  MANEUVER TRUNNION ANGLE TO NOMINAL POS.
001332:
001333: 25,2124           71101                           MASK     RADMODES
001334: 25,2125           10000                           CCS      A
001335: 25,2126           35010                           CAF      BIT15                                 #  0 FOR MODE 1 AND 180 FOR MODE 2.
001336: 25,2127           02220                           TC       RRTONLY
001337:
001338: 25,2130           35013                           CAF      BIT12                                 #  NOW PUT SHAFT IN RIGHT POSITION.
001339: 25,2131           71101                           MASK     RADMODES
001340: 25,2132           10000                           CCS      A
001341: 25,2133           45011                           CS       HALF                                  #  -90 FOR MODE 2.
001342: 25,2134           02223                           TC       RRSONLY
001343:
001344: 25,2135           45014        REPOSRPT           CS       REPOSBIT                              #  RETURNS HERE FROM RR1AXIS IF REMODE
001345:                                                                                                  #  REQUESTED DURING REPOSITION.
001346: 25,2136           71101                           MASK     RADMODES                              #  REMOVE REPOSITION BIT.
001347: 25,2137           55101                           TS       RADMODES
001348: 25,2140           75015                           MASK     BIT10                                 #  SEE IF SOMEONE IS WAITING TO DESIGNATE.
001349: 25,2141           10000                           CCS      A
001350: 25,2142           12547                           TCF      BEGDES
001351: 25,2143           45025                           CS       BIT2                                  #  IF NO FURTHER ANTENNA CONTROL REQUIRED,
001352: 25,2144           00006                           EXTEND                                         #  REMOVE ERROR COUNTER ENABLE.
001353: 25,2145           03012                           WAND     CHAN12
001354: 25,2146           15321                           TCF      TASKOVER
001355:
001356: 25,2147           35025        SETRRECR           CAF      BIT2                                  #  SET UP RR ERROR COUNTERS.
001357: 25,2150           00006                           EXTEND
001358: 25,2151           02012                           RAND     CHAN12
001359: 25,2152           10000                           CCS      A                                     #  DO NOT CLEAR LAST COMMAND IF
001360: 25,2153           00002                           TC       Q                                     #  ERROR COUNTERS ARE ENABLED.
001361:
001362: 25,2154           55322                           TS       LASTYCMD
001363: 25,2155           55323                           TS       LASTXCMD
001364: 25,2156           35025                           CAF      BIT2
001365: 25,2157           00006                           EXTEND
001366: 25,2160           05012                           WOR      CHAN12                                #  ENABLE RR CDU ERROR COUNTERS.
001367: 25,2161           00002                           TC       Q
001368:
001369:                                                                                                  #  PROGRAM NAME_  REMODE                                                   IVES SHAFT TO -45, AND FINALLY DRIVES
001370:
001371:                                                                                                  #  FUNCTIONAL DESCRIPTION_                                                 S DONE WITH SINGLE AXIS ROTATIONS (SEE
001372:                                                                                                  #  REMODE IS THE GENERAL REMODING SUBROUTINE. IT DRIVES THE
001373:                                                                                                  #  TRUNNION ANGLE TO 0 DEGREES IF THE CURRENT MODE IS MODE 1,
001374:                                                                                                  #  180 DEGREES FOR MODE 2, THEN DRIVES THE SHAFT ANGLE TO -45
001375:                                                                                                  #  DEGREES, AND FINALLY DRIVES THE TRUNNION ANGLE TO -130 DEGREES,
001376:                                                                                                  #  TO PLACE THE RR IN MODE 2, -50 DEGREES FOR MODE 1, BEFORE
001377:                                                                                                  #  INITIATING 2-AXIS CONTROL. ALL REMODING IS DONE WITH SINGLE
001378:                                                                                                  #  AXIS ROTATIONS (RR1AXIS). INITIALLY THE RR ANTENNA MODE FLAG
001379:                                                                                                  #  (RADMODES BIT 12) IS CHECKED. CONTROL IS THEN TRANSFERRED TO
001380:                                                                                                  #  RRTONLY TO DRIVE THR TRUNNION ANGLE TO 0 DEGREES IF IN MODE 1
001381:                                                                                                  #  OR 180 DEGREES IF IN MODE 2. RRSONLY IS THEN CALLED TO DRIVE
001382:                                                                                                  #  THE SHAFT ANGLE TO -45 DEGREES. THE RR ANTENNA MODE FLAG
001383:                                                                                                  #  (RADMODES BIT 12) IS CHECKED AGAIN. CONTROL IS AGAIN
001384:                                                                                                  #  TRANSFERRED TO RRTONLY TO DRIVE THE TRUNNION ANGLE TO -130
001385:                                                                                                  #  DEGREES TO PLACE THE RR IN MODE 2 IF CURRENTLY IN MODE 1 OR TO
001386:                                                                                                  #  -50 DEGREES IF IN MODE 2 TO PLACE THE RR IN MODE 1. RMODINV
001387:                                                                                                  #  IS THEN CALLED TO SET RADMODES BIT 12 TO INDICATE THE NEW
001388:                                                                                                  #  RR ANTENNA MODE. THE REMODE FLAG (RADMODES BIT 14)
001389:                                                                                                  #  IS REMOVED TO INDICATE THAT REMODING IS COMPLETE. THE PROGRAM
001390:                                                                                                  #  THEN EXITS TO STDESIG TO BEGIN 2-AXIS CONTROL.
001391:
001392:                                                                                                  #  CALLING SEQUENCE:
001393:                                                                                                  #  FROM BEGDES WHEN REMODE FLAG (RADMODES BIT 14) IS SET.
001394:                                                                                                  #  THIS FLAG MAY BE SET IN RRDESSM AND RRDESNB IF RRLIMCHK
001395:                                                                                                  #  DETERMINES THAT THE DESIRED ANGLES ARE WITHIN THE LIMITS OF THE
001396:                                                                                                  #  OTHER MODE.
001397:
001398:                                                                                                  #  ERASABLE INITIALIZATION REQUIRED:
001399:                                                                                                  #  RADMODES
001400:
001401:                                                                                                  #  SUBROUTINES CALLED_
001402:                                                                                                  #  RRTONLY, RRSONLY, RMODINV (ACTUALLY PART OF)
001403:
001404:                                                                                                  #  JOBS OR TASKS INITIATED_
001405:                                                                                                  #  NONE
001406:
001407:                                                                                                  #  ALARMS_  NONE
001408:
001409:                                                                                                  #  EXIT_  STDESIG
001410:
001411: 25,2162           35013        REMODE             CAF      BIT12                                 #  DRIVE TRUNNION TO 0 (180).
001412: 25,2163           71101                           MASK     RADMODES                              #  (ERROR COUNTER ALREADY ENABLED)
001413: 25,2164           10000                           CCS      A
001414: 25,2165           35010                           CAF      BIT15
001415: 25,2166           02220                           TC       RRTONLY
001416:
001417: 25,2167           37711                           CAF      -45DEGSR
001418: 25,2170           02223                           TC       RRSONLY
001419:
001420: 25,2171           41101                           CS       RADMODES
001421: 25,2172           75013                           MASK     BIT12
001422: 25,2173           10000                           CCS      A
001423: 25,2174           32211                           CAF      -80DEGSR                              #  GO TO T = -130 (-50).
001424: 25,2175           62210                           AD       -50DEGSR
001425: 25,2176           02220                           TC       RRTONLY
001426:
001427: 25,2177           02212                           TC       RMODINV
001428:
001429: 25,2200           45011                           CS       BIT14                                 #  END OF REMODE.
001430: 25,2201           71101                           MASK     RADMODES
001431: 25,2202           55101                           TS       RADMODES
001432:
001433: 25,2203           35015                           CAF      BIT10                                 #  WAS REMODE CALLED DURING DESIGNATE
001434: 25,2204           71101                           MASK     RADMODES                              #  (BIT10 RADMODES = 1)
001435: 25,2205           00006                           EXTEND
001436: 25,2206           13511                           BZF      RGOODEND                              #  NO-RETURN TO CALLER WAITING IN RADSTALL
001437: 25,2207           02556                           TC       STDESIG                               #  YES - RETURN TO DESIGNATE
001438: 25,2210     7711               -45DEGSR           =        13,14,15
001439: 25,2210           67070        -50DEGSR           DEC      -.27778
001440: 25,2211           61615        -80DEGSR           DEC      -.44444
001441:
001442: 25,2212           23101        RMODINV            LXCH     RADMODES                              #  INVERT THE MODE STATUS.
001443: 25,2213           35013                           CAF      BIT12
001444: 25,2214           00006                           EXTEND
001445: 25,2215           06001                           RXOR     LCHAN
001446: 25,2216           55101                           TS       RADMODES
001447: 25,2217           00002                           TC       Q
001448:
001449:                                                                                                  #  PROGRAM NAMES_  RRTONLY, RRSONLY
001450:
001451:                                                                                                  #  FUNCTIONAL DESCRIPTION_
001452:                                                                                                  #  RRTONLY AND RRSONLY ARE SUBROUTINES FOR DOING SINGLE AXIS
001453:                                                                                                  #  RR MANEUVERS FOR REMODE AND REPOSITION. IT DRIVES TO
001454:                                                                                                  #  WITHIN 1 DEGREE. INITIALLY, AT RR1AX2, THE REMODE AND REPOSITION
001455:                                                                                                  #  FLAGS (RADMODES BITS 14, 11) ARE CHECKED. IF BOTH EXIST,
001456:                                                                                                  #  THE PROGRAM EXITS TO REPOSRPT (SEE DORREPOS). THIS INDICATES
001457:                                                                                                  #  THAT SOMEONE POSSIBLY REQUESTED A DESIGNATE (RADMODES BIT 10)
001458:                                                                                                  #  WHICH REQUIRES A REMODE (RADMODES BIT 14) AND THAT A
001459:                                                                                                  #  REPOSITION IS IN PROGRESS (RADMODES BIT 11). IF NONE
001460:                                                                                                  #  OR ONLY ONE OF THE FLAGS EXIST, REMODE OR REPOSITION, MAGSUB
001461:                                                                                                  #  IS CALLED TO SEE IF THE APPROPRIATE ANGLE IS WITHIN 1 DEGREE. IF YES,
001462:                                                                                                  #  CONTROL RETURNS TO THE CALLING ROUTINE. IF NOT, CONTROL IS
001463:                                                                                                  #  TRANSFERRED TO RROUT FOR SINGLE AXIS MANEUVERS WITH THE OTHER
001464:                                                                                                  #  ANGLE SET = 0. FOLLOWING A .5 SECOND WAIT, THE ABOVE PROCEDURE IS
001465:                                                                                                  #  REPEATED.
001466:
001467:                                                                                                  #  CALLING SEQUENCE: L-1 CAF *ANGLE* (DESIRED ANGLE SCALED PI)
001468:                                                                                                  #  L  TC  RRTONLY (TRUNNION ONLY)
001469:                                                                                                  #  RRSONLY (SHAFT ONLY)
001470:                                                                                                  #  RRTONLY IS CALLED BY PREPOS29;
001471:                                                                                                  #  RRTONLY AND RRSONLY ARE CALLED BY DORREPOS AND REMODE
001472:
001473:                                                                                                  #  ERASABLE INITIALIZATION REQUIRED:
001474:                                                                                                  #  C(A) = DESIRED ANGLE, RADMODES
001475:
001476:                                                                                                  #  SUBROUTINES CALLED_
001477:                                                                                                  #  FIXDELAY, REPOSRPT, MAGSUB, RROUT
001478:
001479:                                                                                                  #  JOBS OR TASKS INITIATED_
001480:                                                                                                  #  NONE
001481:
001482:                                                                                                  #  ALARMS_  NONE
001483:
001484:                                                                                                  #  EXIT_  REPOSRPT (REMODE AND REPOSITION FLAGS PRESENT - RADMODES
001485:                                                                                                  #  BITS 14, 11)
001486:                                                                                                  #  L+1  (ANGLE WITHIN ONE DEGREE OR RR OUT OF AUTO MODE)
001487:
001488: 25,2220           54112        RRTONLY            TS       RDES                                  #  DESIRED TRUNION ANGLE.
001489: 25,2221           35030                           CAF      ZERO
001490: 25,2222           12225                           TCF      RR1AXIS
001491:
001492: 25,2223           54112        RRSONLY            TS       RDES                                  #  SHAFT COMMANDS ARE UNRESOLVED SINCE THIS
001493: 25,2224           35026                           CAF      ONE                                   #  ROUTINE ENTERED ONLY WHEN T = 0 OR 180.
001494:
001495: 25,2225           54113        RR1AXIS            TS       RRINDEX
001496: 25,2226           00006                           EXTEND
001497: 25,2227           22111                           QXCH     RRRET
001498: 25,2230           12233                           TCF      RR1AX2
001499:
001500: 25,2231           05271        NXTRR1AX           TC       FIXDELAY
001501: 25,2232           00062                           DEC      50         B-14                       #  2 SAMPLES PER SECOND.
001502:
001503: 25,2233           41101        RR1AX2             CS       RADMODES                              #  IF SOMEONE REQUESTES AS DESIGNATE WHICH
001504: 25,2234           77662                           MASK     PRIO22                                #  REQUIRES A REMODE AND A REPOSITION IS IN
001505: 25,2235           00006                           EXTEND                                         #  PROGRESS, INTERRUPT IT AND START THE
001506: 25,2236           12135                           BZF      REPOSRPT                              #  REMODE IMMEDIATELY.
001507:
001508: 25,2237           30112                           CA       RDES
001509: 25,2240           00006                           EXTEND
001510: 25,2241           50113                           INDEX    RRINDEX
001511: 25,2242           20035                           MSU      CDUT
001512: 25,2243           54061                           TS       ITEMP1                                #  SAVE ERROR SIGNAL.
001513: 25,2244           00006                           EXTEND
001514: 25,2245           72264                           MP       RRSPGAIN                              #  TRIES TO NULL .7 OF ERROR OVER NEXT .5
001515: 25,2246           54001                           TS       L
001516: 25,2247           31101                           CA       RADMODES
001517: 25,2250           75025                           MASK     BIT2
001518: 25,2251           56061                           XCH      ITEMP1                                #  STORE RR-OUT-OF-AUTO-MODE BIT.
001519: 25,2252           04524                           TC       MAGSUB                                #  SEE IF WITHIN ONE DEGREE.
001520: 25,2253           77644                           DEC      -.00555                               #  SCALED IN HALF-REVS.
001521:
001522: 25,2254           10061                           CCS      ITEMP1                                #  NO.  IF RR OUT OF AUTO MODE, EXIT.
001523: 25,2255           00111                           TC       RRRET                                 #  RETURN TO CALLER.
001524:
001525: 25,2256           10113                           CCS      RRINDEX                               #  COMMAND FOR OTHER AXIS IS ZERO.
001526: 25,2257           12261                           TCF      +2                                    #  SETTING A TO 0.
001527: 25,2260           56001                           XCH      L
001528: 25,2261           53113                           DXCH     TANG
001529:
001530: 25,2262           02265                           TC       RROUT
001531:
001532: 25,2263           12231                           TCF      NXTRR1AX                              #  COME BACK IN .5 SECONDS.
001533:
001534: 25,2264           22715        RRSPGAIN           DEC      .59062                                #  NULL .7 ERROR IN .5 SEC.
001535:
001536:                                                                                                  #  PROGRAM NAME_  RROUT                                                    RROR COUNTER SCALING. RROUT LIMITS THEM
001537:
001538:                                                                                                  #  FUNCTIONAL DESCRIPTION_
001539:                                                                                                  #  RROUT RECEIVES RR GYRO COMMANDS IN TANG, TANG +1 IN RR
001540:                                                                                                  #  ERROR COUNTER SCALING. RROUT THEN LIMITS THEM AND
001541:                                                                                                  #  GENERATES COMMANDS TO THE CDU TO ADJUST THE ERROR COUNTERS
001542:                                                                                                  #  TO THE DESIRED VALUES. INITIALLY MAGSUB CHECKS THE MAGNITUDE OF
001543:                                                                                                  #  THE COMMAND (SHAFT ON 1ST PASS) TO SEE IF IT IS GREATER THAN
001544:                                                                                                  #  384 PULSES. IF NOT, CONTROL IS TRANSFERRED TO RROUTLIM TO
001545:                                                                                                  #  LIMIT THE COMMAND TO +384 OR -384 PULSES. THE DIFFERENCE IS
001546:                                                                                                  #  THEN CALCULATED BETWEEN THE DESIRED STATE AND THE PRESENT STATE OF
001547:                                                                                                  #  THE ERROR COUNTER AS RECORDED IN LASTYCMD AND LASTXCMD.
001548:                                                                                                  #  THE RESULT IS STORED IN OPTXCMD (1ST PASS) AND OPTYCMD (2ND
001549:                                                                                                  #  PASS). FOLLOWING THE SECOND PASS, FOR THE TRUNNION COMMAND, THE
001550:                                                                                                  #  OCDUT AND OCDUS ERROR COUNTER DRIVE BITS (CHAN 14 BITS 12, 11)
001551:                                                                                                  #  ARE SET. THIS PROGRAM THEN EXITS TO THE CALLING PROGRAM.
001552:
001553:                                                                                                  #  CALLING SEQUENCE:
001554:                                                                                                  #  L TC RROUT (WITH RUPT INHIBITED) RROUT IS CALLED BY
001555:                                                                                                  #  RRTONLY, RRSONLY, AND DODES
001556:
001557:                                                                                                  #  ERASABLE INITIALIZATION REQUIRED:
001558:                                                                                                  #  TANG, TANG +1 (DESIRED COMMANDS), LASTYCMD, LASTXCMD
001559:                                                                                                  #  (1ST PASS = 0), RR ERROR COUNTER ENABLE SET (CHAN 12 BIT 2).
001560:
001561:                                                                                                  #  SUBROUTINES CALLED_
001562:                                                                                                  #  MAGSUB
001563:
001564:                                                                                                  #  JOBS OR TASKS INITIATED_
001565:                                                                                                  #  NONE
001566:
001567:                                                                                                  #  ALARMS_  NONE
001568:
001569:                                                                                                  #  EXIT_  L+1 (ALWAYS)                                                     SIRED VALUES. RUPT MUST BE INHIBITED.
001570:
001571: 25,2265           22002        RROUT              LXCH     Q                                     #  SAVE RETURN.
001572: 25,2266           35026                           CAF      ONE                                   #  LOOP TWICE.
001573: 25,2267           54062        RROUT2             TS       ITEMP2
001574: 25,2270           50000                           INDEX    A
001575: 25,2271           31112                           CA       TANG
001576: 25,2272           54061                           TS       ITEMP1                                #  SAVE SIGN OF COMMAND FOR LIMITING.
001577:
001578: 25,2273           04524                           TC       MAGSUB                                #  SEE IF WITHIN LMITS.
001579: 25,2274           77177        -RRLIMIT           DEC      -384       B-14
001580: 25,2275           12314                           TCF      RROUTLIM                              #  LIMIT COMMAND TO MAG OF 384.
001581:
001582: 25,2276           30061        SETRRCTR           CA       ITEMP1                                #  COUNT OUT DIFFERENCE BETWEEN DESIRED
001583: 25,2277           50062                           INDEX    ITEMP2                                #  STATE AND PRESENT STATE AS RECORDED IN
001584: 25,2300           57322                           XCH      LASTYCMD                              #  LASTYCMD AND LASTXCMD
001585: 25,2301           40000                           COM
001586:
001587: 25,2302           60061                           AD       ITEMP1
001588: 25,2303           65027                           AD       NEG0                                  #  PREVENT +0 IN OUTCOUNTER
001589: 25,2304           50062                           INDEX    ITEMP2
001590: 25,2305           54053                           TS       CDUTCMD
001591:
001592: 25,2306           10062                           CCS      ITEMP2                                #  PROCESS BOTH INPUTS.
001593: 25,2307           12267                           TCF      RROUT2
001594:
001595: 25,2310           35070                           CAF      PRIO6                                 #  ENABLE COUNTERS.
001596: 25,2311           00006                           EXTEND
001597: 25,2312           05014                           WOR      CHAN14                                #  PUT ON CDU DRIVES S AND T
001598: 25,2313           00001                           TC       L                                     #  RETURN.
001599:
001600: 25,2314           10061        RROUTLIM           CCS      ITEMP1                                #  LIMIT COMMAND TO ABS VAL OF 384.
001601: 25,2315           42274                           CS       -RRLIMIT
001602: 25,2316           12320                           TCF      +2
001603: 25,2317           32274                           CA       -RRLIMIT
001604: 25,2320           54061                           TS       ITEMP1
001605: 25,2321           12277                           TCF      SETRRCTR   +1
001606:
001607:                                                                                                  #           ROUTINE TO ZERO THE RR CDUS AND DETERMINE THE ANTENNA MODE.
001608:
001609: 25,2322           32351        RRZERO             CAF      BIT11+1                               #  SEE IF MONITOR REPOSITION OR NOT IN AUTO
001610: 25,2323           71101                           MASK     RADMODES                              #  IF SO, DONT RE-ZERO CDUS.
001611: 25,2324           10000                           CCS      A
001612: 25,2325           13464                           TCF      RADNOOP                               #  (IMMEDIATE TASK TO RGOODEND).
001613:
001614: 25,2326           00004                           INHINT
001615: 25,2327           45012                           CS       BIT13                                 #  SET FLAG TO SHOW ZEROING IN PROGRESS.
001616: 25,2330           71101                           MASK     RADMODES
001617: 25,2331           65012                           AD       BIT13
001618: 25,2332           55101                           TS       RADMODES
001619:
001620: 25,2333           35026                           CAF      ONE
001621: 25,2334           05252                           TC       WAITLIST
001622: 25,2335  E7,1433                                  EBANK=   LOSCOUNT
001623: 25,2335           02347 52067                     2CADR    RRZ2
001624:
001625: 25,2337           41101                           CS       RADMODES                              #  SEE IF IN AUTO MODE.
001626: 25,2340           75025                           MASK     BIT2
001627: 25,2341           10000                           CCS      A
001628: 25,2342           12345                           TCF      ROADBACK
001629: 25,2343           05646                           TC       ALARM                                 #  AUTO DISCRETE NOT PRESENT - TRYING
001630: 25,2344           00510                           OCT      510
001631: 25,2345           00003        ROADBACK           RELINT
001632: 25,2346           14670                           TCF      SWRETURN
001633:
001634: 25,2347           02062        RRZ2               TC       RRZEROSB                              #  COMMON TO TURNON AND RRZERO.
001635: 25,2350           13502                           TCF      ENDRADAR
001636:
001637: 25,2351           02001        BIT11+1            OCT      02001
001638:
001639:                                                                                                  #  PROGRAM NAME_  RRDESSM                                                  R (HALF-UNIT) IN RRTARGET. REMODES IF
001640:
001641:                                                                                                  #  FUNCTIONAL DESCRIPTION_
001642:                                                                                                  #  THIS INTERPRETIVE ROUTINE WILL DESIGNATE, IF DESIRED ANGLES ARE
001643:                                                                                                  #  WITHIN THE LIMITS OF EITHER MODE, TO A LINE-OF SIGHT (LOS) VECTOR
001644:                                                                                                  #  (HALF-UNIT) KNOWN WITH RESPECT TO THE STABLE MEMBER PRESENT
001645:                                                                                                  #  ORIENTATION. INITIALLY THE IMU CDU:S ARE READ AND CONTROL
001646:                                                                                                  #  TRANSFERRED TO SMNB TO TRANSFORM THE LOS VECTOR FROM STABLE
001647:                                                                                                  #  MEMBER TO NAVIGATION BASE COORDINATES (SEE STG MEMO -699)
001648:                                                                                                  #  RRANGLES IS THEN CALLED TO CALCULATE THE RR GIMBAL ANGLES,
001649:                                                                                                  #  TRUNNION AND SHAFT, FOR BOTH THE PRESENT AND ALTERNATE MODE.
001650:                                                                                                  #  RRLIMCHK IS CALLED TO SEE IF THE ANGLES CALCULATED FOR THE
001651:                                                                                                  #  PRESENT MODE ARE WITHIN LIMITS. IF WITHIN LIMITS, THE RETURN
001652:                                                                                                  #  LOCATION IS INCREMENTED, INASMUCH AS NO VEHICLE MANEUVER IS
001653:                                                                                                  #  REQUIRED, BEFORE EXITING TO STARTDES. IF NOT WITHIN LIMITS OF THE
001654:                                                                                                  #  CURRENT MODE, TRYSWS IS CALLED. FOLLOWING INVERTING OF THE RR
001655:                                                                                                  #  ANTENNA MODE FLAG (RADMODES BIT 12), RRLIMCHK IS CALLED
001656:                                                                                                  #  TO SEE IF THE ANGLES CALCULATED FOR THE ALTERNATE MODE ARE WITHIN
001657:                                                                                                  #  LIMITS. IF YES, THE RR ANTENNA MODE FLAG IS AGAIN INVERTED,
001658:                                                                                                  #  THE REMODE FLAG (RADMODES BIT 14) SET, AND THE RETURN LOCATION
001659:                                                                                                  #  INCREMENTED, TO INDICATE NO VEHICLE MANEUVER IS REQUIRED, BEFORE
001660:                                                                                                  #  EXITING TO STARTDES. IF THESE ANGLES ARE NOT WITHIN LIMITS
001661:                                                                                                  #  OF THE ALTERNATE MODE, THE RR ANTENNA MODE FLAG (RADMODES
001662:                                                                                                  #  BIT 12) IS INVERTED BEFORE RETURNING DIRECTLY TO THE CALLING PROGRAM
001663:                                                                                                  #  TO INDICATE THAT A VEHICLE MANEUVER IS REQUIRED.
001664:
001665:                                                                                                  #  CALLING SEQUENCE:
001666:                                                                                                  #  L  STCALL  RRTARGET  (LOS HALF-UNIT VECTOR IN SM COORDINATES)
001667:                                                                                                  #  L+1  RRDESSM
001668:                                                                                                  #  L+2  BASIC  (VEHICLE MANEUVER REQUIRED)
001669:                                                                                                  #  L+3  BASIC  (NO VEHICLE MANEUVER REQUIRED)
001670:
001671:                                                                                                  #  ERASABLE INITIALIZATION REQUIRED:
001672:                                                                                                  #  RRTARGET, RADMODES
001673:
001674:                                                                                                  #  SUBROUTINES CALLED_
001675:                                                                                                  #  READCDUS, SMNB, RRANGLES, RRLIMCHK, TRYSWS (ACTUALLY
001676:                                                                                                  #  PART OF), RMODINV
001677:
001678:                                                                                                  #  JOBS OR TASKS INITIATED_
001679:                                                                                                  #     NONE
001680:
001681:                                                                                                  #  ALARMS_  NONE
001682:
001683:                                                                                                  #  EXIT_  L+2 (NEITHER SET OF ANGLES ARE WITHIN LIMITS OF RELATED MODE)
001684:                                                                                                  #  STARTDES (DESIGNATE POSSIBLE AT PRESENT VEHICLE ATTITUDE-RETURNS
001685:                                                                                                  #  TO L+3 FROM STARTDES)                                                   CAN BE DONE IN PRESENT VEH ATTITUDE.
001686:
001687: 25,2352           43020        RRDESSM            STQ      CLEAR
001688: 25,2353           01116                                    DESRET
001689: 25,2354           00271                                    RRNBSW
001690: 25,2355           77624                           CALL                                           #  COMPUTES SINES AND COSINES, ORDER Y Z X
001691: 25,2356           47251                                    CDUTRIG
001692: 25,2357           45175                           VLOAD    CALL                                  #  LOAD VECTOR AND CALL TRANSFORMATION
001693: 25,2360           01105                                    RRTARGET
001694: 25,2361           47413                                    *SMNB*
001695:
001696: 25,2362           77624                           CALL                                           #  GET RR GIMBAL ANGLES IN PRESENT AND
001697: 25,2363           26105                                    RRANGLES                              #  ALTERNATE MODE.
001698: 25,2364           77776                           EXIT
001699:
001700: 25,2365           00004                           INHINT
001701: 25,2366           04540                           TC       RRLIMCHK
001702: 25,2367           01112                           ADRES    MODEA                                 #  CONFIGURATION FOR CURRENT MODE.
001703: 25,2370           02373                           TC       +3                                    #  NOT IN CURRENT MODE
001704: 25,2371           25116        OKDESSM            INCR     DESRET                                #  INCREMENT SAYS NO VEHICLE MANEUVER REQ.
001705: 25,2372           02405                           TC       STARTDES                              #  SHOW DESIGNATE REQUIRED
001706: 25,2373           40104                           CS       FLAGWRD8
001707: 25,2374           75017                           MASK     SURFFBIT                              #  CHECK IF ON LUNAR SURFACE (SURFFLAG=P22F
001708: 25,2375           00006                           EXTEND
001709: 25,2376           12431                           BZF      NORDSTAL                              #  BRANCH-YES-CANNOT DESIGNATE IN MODE 2
001710: 25,2377           02434                           TC       TRYSWS
001711:
001712:
001713: 25,2400           40104        LUNDESCH           CS       FLAGWRD8                              #  OVERFLOW RETURN FROM RRANGLES
001714: 25,2401           75017                           MASK     SURFFBIT                              #  CHECK IF ON LUNAR SURFACE
001715: 25,2402           00006                           EXTEND
001716: 25,2403           12431                           BZF      NORDSTAL                              #  BRANCH-YES-RETURN TO CALLER - ALARM 527
001717: 25,2404           02444                           TC       NODESSM                               #  NOT ON MOON-CALL FOR ATTITUDE MANEUVER
001718:
001719:                                                                                                  #  PROGRAM NAME_  STARTDES                                                 STORED AS A HALF-UNIT VECTOR IN RRTARGET
001720:
001721:                                                                                                  #  FUNCTIONAL DESCRIPTION_                                                 CKON IS DESIRED. BIT14 OF RADMODES IS
001722:                                                                                                  #  STARTDES IS ENTERED WHEN WE ARE READY TO BEGIN DESIGNATION.             OR REPOSITION OPERATION. IN THIS
001723:                                                                                                  #  BIT 14 OF RADMODES IS ALREADY SET IF A REMODE IS REQUIRED.              THE REPOSITION WILL BE INTERRUPTED.
001724:                                                                                                  #  AT THIS TIME, THE RR ANTENNA MAY BE IN A REPOSITION                     GINS.
001725:                                                                                                  #  OPERATION. IN THIS CASE, IF A REMODE IS REQUIRED IT MAY HAVE
001726:                                                                                                  #  ALREADY BEGUN BUT IN ANY CASE THE REPOSITION WILL BE INTERRUPTED.
001727:                                                                                                  #  OTHERWISE, THE REPOSITION WILL BE COMPLETED BEFORE 2-AXIS
001728:                                                                                                  #  DESIGNATION BEGINS. INITIALLY DESCOUNT IS SET = 60 TO INDICATE
001729:                                                                                                  #  THAT 30 SECONDS WILL BE ALLOWED FOR THE RR DATA GOOD INBIT
001730:                                                                                                  #  (CHAN 33 BIT 4) IF LOCK-ON IS DESIRED (STATE BIT 5). BIT 10
001731:                                                                                                  #  OF RADMODES IS SET TO SHOW THAT A DESIGNATE IS REQUIRED.
001732:                                                                                                  #  THE REPOSITION FLAG (RADMODES BIT 11) IS CHECKED. IF SET,
001733:                                                                                                  #  THE PROGRAM EXITS TO L+3 OF THE CALLING PROGRAM (SEE RRDESSM
001734:                                                                                                  #  AND RRDESNB). THE PROGRAM WILL BEGIN DESIGNATING TO THE DESIRED
001735:                                                                                                  #  ANGLES FOLLOWING THE REPOSITION OR REMODE IF ONE WAS
001736:                                                                                                  #  REQUESTED. IF THE REPOSITION FLAG IS NOT SET, SETRRECR IS CALLED
001737:                                                                                                  #  WHICH SETS THE RR ERROR COUNTER ENABLE BIT (CHAN 12 BIT 2)
001738:                                                                                                  #  AND SETS LASTYCMD AND LASTXCMD = 0 TO INDICATE THE
001739:                                                                                                  #  DIFFERENCE BETWEEN THE PRESENT AND DESIRED STATE OF THE ERROR
001740:                                                                                                  #  COUNTERS. A 20 MILLISECOND WAITLIST CALL IS SET FOR BEGDES
001741:                                                                                                  #  AFTER WHICH THE PROGRAM EXITS TO L+3 OF THE CALLING PROGRAM.
001742:
001743:                                                                                                  #  CALLING SEQUENCE:
001744:                                                                                                  #  FROM RRDESSM AND RRDESNB WHEN ANGLES WITHIN LIMITS.
001745:
001746:                                                                                                  #  ERASABLE INITIALIZATION REQUIRED:
001747:                                                                                                  #  RADMODES, (SEE DODES)
001748:
001749:                                                                                                  #  SUBROUTINES CALLED_
001750:                                                                                                  #  SETRRECR, WAITLIST
001751:
001752:                                                                                                  #  JOBS OR TASKS INITIATED_
001753:                                                                                                  #  BEGDES
001754:
001755:                                                                                                  #  ALARMS_  NONE
001756:
001757:                                                                                                  #  EXIT_  L+3 OF CALLING PROGRAM (SEE RRDESSM)
001758:                                                                                                  #  L+2 OF CALLING PROGRAM (SEE RRDESNB)
001759:
001760: 25,2405           25116        STARTDES           INCR     DESRET
001761: 25,2406           41101                           CS       RADMODES
001762: 25,2407           75015                           MASK     BIT10
001763: 25,2410           27101                           ADS      RADMODES
001764: 25,2411           75014                           MASK     BIT11                                 #  SEE IF REPOSITION IN PROGRESS.
001765: 25,2412           10000                           CCS      A
001766: 25,2413           12421                           TCF      DESRETRN                              #  ECTR ALREADY SET UP.
001767:
001768: 25,2414           02147                           TC       SETRRECR                              #  SET UP ERROR COUNTERS.
001769: 25,2415           35025                           CAF      TWO
001770: 25,2416           05252                           TC       WAITLIST
001771: 25,2417  E7,1433                                  EBANK=   LOSCOUNT
001772: 25,2417           02547 52067                     2CADR    BEGDES
001773:
001774: 25,2421           31310        DESRETRN           CA       RADCADR                               #  FIRST PASS THRU DESIGNATE
001775: 25,2422           00006                           EXTEND
001776: 25,2423           12425                           BZF      DESRTRN                               #  YES   SET EXIT
001777: 25,2424           05225                           TC       ENDOFJOB                              #  NO
001778: 25,2425           00003        DESRTRN            RELINT
001779: 25,2426           25116                           INCR     DESRET
001780: 25,2427           31116                           CA       DESRET
001781: 25,2430           14677                           TCF      BANKJUMP
001782:
001783: 25,2431           35030        NORDSTAL           CAF      ZERO                                  #  ZERO RADCADR TO WIPE  OUT ANYONE
001784: 25,2432           55310                           TS       RADCADR                               #  WAITING IN RADSTALL SINCE WE ARE NOW
001785: 25,2433           12425                           TCF      DESRTRN                               #  RETURNING TO P20 AND MAY DO NEW RADSTALL
001786:
001787:                                                                                                  #           SEE IF RRDESSM CAN BE ACCOMPLISHED AFTER A REMODE.
001788:
001789: 25,2434           02212        TRYSWS             TC       RMODINV                               #  (NOTE RUPT INHIBIT)
001790: 25,2435           04540                           TC       RRLIMCHK                              #  TRY DIFFERENT MODE.
001791: 25,2436           01114                           ADRES    MODEB
001792: 25,2437           12444                           TCF      NODESSM                               #  VEHICLE MANEUVER REQUIRED.
001793:
001794: 25,2440           02212                           TC       RMODINV                               #  RESET BIT12
001795: 25,2441           35011                           CAF      BIT14                                 #  SET FLAG FOR REMODE.
001796: 25,2442           27101                           ADS      RADMODES
001797:
001798: 25,2443           12371                           TCF      OKDESSM
001799:
001800: 25,2444           02212        NODESSM            TC       RMODINV                               #  RE-INVERT MODE AND RETURN
001801: 25,2445           25116                           INCR     DESRET                                #  TO CALLER +2
001802: 25,2446           12431                           TCF      NORDSTAL
001803:
001804: 25,2447           00074        MAXTRYS            DEC      60         B-14
001805:
001806:                                                                                                  #           DESIGNATE TO SPECIFIC RR GIMBAL ANGLES (INDEPENDENT OF VEHICLE MOTION). ENTER WITH DESIRED ANGLES IN
001807:                                                                                                  #  TANG AND TANG +1.
001808:
001809: 25,2450           04704        RRDESNB            TC       MAKECADR
001810: 25,2451           55116                           TS       DESRET
001811:
001812: 25,2452           32447                           CA       MAXTRYS                               #  SET TIME LIMIT COUNTER
001813: 25,2453           55117                           TS       DESCOUNT                              #  FOR DESIGNATE
001814: 25,2454           00004                           INHINT                                         #  SEE IF CURRENT MODE OK.
001815: 25,2455           02514                           TC       RRLIMNB                               #  DO SPECIAL V41 LIMIT CHECK
001816: 25,2456           01112                           ADRES    TANG
001817: 25,2457           12474                           TCF      TRYSWN                                #  SEE IF IN OTHER MODE.
001818:
001819: 25,2460           00003        OKDESNB            RELINT
001820: 25,2461           00006                           EXTEND
001821: 25,2462           31113                           DCA      TANG
001822: 25,2463           53744                           DXCH     TANGNB
001823: 25,2464           06014                           TC       INTPRET
001824:
001825: 25,2465           77624                           CALL                                           #  GET LOS IN NB COORDS.
001826: 25,2466           46000                                    RRNB
001827: 25,2467           01105                           STORE    RRTARGET
001828:
001829: 25,2470           77414                           SET      EXIT
001830: 25,2471           00071                                    RRNBSW
001831:
001832: 25,2472           00004                           INHINT
001833: 25,2473           12406                           TCF      STARTDES   +1
001834: 25,2474           02212        TRYSWN             TC       RMODINV                               #  SEE IF OTHER MODE WILL DO.
001835: 25,2475           02514                           TC       RRLIMNB                               #  DO SPECIAL V41 LIMIT CHECK
001836: 25,2476           01112                           ADRES    TANG
001837: 25,2477           12504                           TCF      NODESNB                               #  NOT POSSIBLE.
001838:
001839: 25,2500           02212                           TC       RMODINV
001840: 25,2501           35011                           CAF      BIT14                                 #  CALL FOR REMODE.
001841: 25,2502           27101                           ADS      RADMODES
001842: 25,2503           12460                           TCF      OKDESNB
001843:
001844: 25,2504           35026        NODESNB            CAF      ONE
001845: 25,2505           05252                           TC       WAITLIST
001846: 25,2506  E7,1433                                  EBANK=   LOSCOUNT
001847: 25,2506           03516 52067                     2CADR    RDBADEND
001848:
001849: 25,2510           02212                           TC       RMODINV                               #  REINVERT MODE BIT.
001850: 25,2511           05646                           TC       ALARM                                 #  BAD INPUT ANGLES.
001851: 25,2512           00502                           OCT      502
001852: 25,2513           12426                           TCF      DESRTRN    +1                         #  AVOID 503 ALARM.
001853:
001854: 25,2514           50002        RRLIMNB            INDEX    Q                                     #  THIS ROUTINE IS IDENTICAL TO RRLIMCHK
001855: 25,2515           30000                           CAF      0                                     #  EXCEPT THAT THE MODE 1 SHAFT LOWER
001856: 25,2516           24002                           INCR     Q                                     #  LIMIT IS -85 INSTEAD OF -70 DEGREES
001857: 25,2517           00006                           EXTEND
001858:
001859: 25,2520           50000                           INDEX    A                                     #  READ GIMBAL ANGLES INTO ITEMP STORAGE
001860: 25,2521           30001                           DCA      0
001861: 25,2522           52062                           DXCH     ITEMP1
001862: 25,2523           22002                           LXCH     Q                                     #  L(CALLER +2) TO L
001863:
001864: 25,2524           35013                           CAF      BIT12                                 #  SEE WHICH MODE RR IS IN
001865: 25,2525           71101                           MASK     RADMODES
001866: 25,2526           10000                           CCS      A
001867: 25,2527           14565                           TCF      MODE2CHK                              #  MODE 2 CAN USE RRLIMCHK CODING
001868: 25,2530           30061                           CA       ITEMP1
001869: 25,2531           04524                           TC       MAGSUB                                #  MODE 1 IS DEFINED AS
001870: 25,2532           66161                           DEC      -.30555                               #    1. ABS(T) L 55 DEGS
001871: 25,2533           00001                           TC       L                                     #    2  SHAFT LIMITS AT +59, -85 DEGS
001872:
001873: 25,2534           30062                           CA       ITEMP2                                #  LOAD SHAFT ANGLE
001874: 25,2535           00006                           EXTEND
001875: 25,2536           62544                           BZMF     NEGSHAFT                              #  IF NEGATIVE SHAFT ANGLE, ADD 20.5 DEGS
001876: 25,2537           64577                           AD       5.5DEGS
001877: 25,2540           04524        SHAFTLIM           TC       MAGSUB
001878: 25,2541           64420                           DEC      -.35833                               #  64.5 DEGREES
001879: 25,2542           00001                           TC       L                                     #  NOT IN LIMITS
001880: 25,2543           04575                           TC       RRLIMOK                               #  IN LIMITS
001881: 25,2544           62546        NEGSHAFT           AD       20.5DEGS                              #  MAKE NEGATIVE SHAFT LIMIT -85 DEGREES
001882: 25,2545           12540                           TCF      SHAFTLIM
001883:
001884:
001885: 25,2546           03512        20.5DEGS           DEC      .11389
001886:
001887:                                                                                                  #  PROGRAM NAME_  BEGDES
001888:
001889:                                                                                                  #  FUNCTIONAL DESCRIPTION_
001890:                                                                                                  #  BEGDES CHECKS VARIOUS DESIGNATE REQUESTS AND REQUESTS THE
001891:                                                                                                  #  ACTUAL RR DESIGNATION. INITIALLY A CHECK IS MADE TO SEE IF A
001892:                                                                                                  #  REMODE (RADMODES BIT 14) IS REQUESTED OR IN PROGRESS. IF SO,
001893:                                                                                                  #  CONTROL IS TRANSFERRED TO STDESIG AFTER ROUTINE REMODE IS
001894:                                                                                                  #  EXECUTED. IF NO REMODE, STDESIG IS IMMEDIATELY CALLED WHERE
001895:                                                                                                  #  FIRST THE REPOSITION FLAG (RADMODES BIT 11) IS CHECKED. IF
001896:                                                                                                  #  PRESENT, THE DESIGNATE FLAG (RADMODES BIT 10) IS REMOVED
001897:                                                                                                  #  AFTER WHICH THE PROGRAM EXITS TO RDBADEND. IF THE REPOSITION
001898:                                                                                                  #  FLAG IS NOT PRESENT, THE CONTINUOUS DESIGNATE FLAG (RADMODES
001899:                                                                                                  #  BIT 15) IS CHECKED. IF PRESENT, ON EXECUTIVE CALL IS IMMEDIATELY
001900:                                                                                                  #  MADE FOR DODES AFTER WHICH A .5 SECOND WAIT IS INITIATED BEFORE
001901:                                                                                                  #  REPEATING AT STDESIG. IF THE RR SEARCH ROUTINE (LRS24.1) IS DESIGNATING
001902:                                                                                                  #  TO A NEW POINT (NEWPTFLG SET) THE CURRENT DESIGNATE TASK IS TERMINATED.
001903:                                                                                                  #  IF CONTINUOUS DESIGNATE IS NOT WANTED, THE DESIGNATE FLAG (RADMODES
001904:                                                                                                  #  BIT 10) IS CHECKED. IF NOT PRESENT, THE PROGRAM EXITS TO ENDRADAR TO
001905:                                                                                                  #  CHECK RR CDU FAIL BEFORE RETURNING TO THE CALLING PROGRAM. IF DESIGNATE
001906:                                                                                                  #  IS STILL REQUIRED, DESCOUNT IS CHECKED TO SEE IF THE 30 SECONDS HAS
001907:                                                                                                  #  EXPIRED BEFORE RECEIVING THE RR DATA GOOD (CHAN 33 BIT 4)
001908:                                                                                                  #  SIGNAL. IF OUT OF TIME, PROGRAM ALARM 00503 IS REQUESTED, THE
001909:                                                                                                  #  RR AUTO TRACKER ENABLE AND RR ERROR COUNTER ENABLE
001910:                                                                                                  #  (CHAN 12 BITS 14,2) BITS REMOVED, AND THE DESIGNATE FLAG
001911:                                                                                                  #  (RADMODES BIT 10) REMOVED BEFORE EXITING TO RDBADEND. IF
001912:                                                                                                  #  TIME HAS NOT EXPIRED, DESCOUNT IS DECREMENTED, THE
001913:                                                                                                  #  EXECUTIVE CALL MADE FOR DODES, AND A .5 SECOND WAIT INITIATED
001914:                                                                                                  #  BEFORE REPEATING THIS PROCEDURE AT STDESIG.
001915:
001916:                                                                                                  #  CALLING SEQUENCE:
001917:                                                                                                  #  WAITLIST CALL FROM STARTDES
001918:                                                                                                  #  TCF BEGDES FROM DORREPOS
001919:                                                                                                  #  TC STDESIG RETURNING, FROM REMODE
001920:
001921:                                                                                                  #  ERASABLE INITIALIZATION REQUIRED:
001922:                                                                                                  #  DESCOUNT, RADMODES
001923:
001924:                                                                                                  #  SUBROUTINES CALLED_
001925:                                                                                                  #  ENDRADAR, FINDVAC
001926:
001927:                                                                                                  #  JOBS OR TASKS INITIATED_  DODES
001928:
001929:                                                                                                  #  ALARMS_  PROGRAM ALARM 00503 (30 SECONDS HAVE EXPIRED) WITH NO RR DATA
001930:                                                                                                  #  GOOD (CHAN 33 BIT 4) RECEIVED WHEN LOCK-ON (STATE BIT 5) WAS REQUESTED.
001931:
001932:                                                                                                  #  EXIT_  TASKOVER (SEARCH PATTERN DESIGNATING TO NEW POINT)
001933:                                                                                                  #  ENDRADAR (NO DESIGNATE - RADMODES BIT 10)
001934:                                                                                                  #  RDBADEND (REPOSITION OR 30 SECONDS EXPIRED)
001935:
001936: 25,2547           41101        BEGDES             CS       RADMODES
001937:
001938: 25,2550           75011                           MASK     BIT14
001939: 25,2551           10000                           CCS      A
001940: 25,2552           02556                           TC       STDESIG
001941: 25,2553           02162                           TC       REMODE
001942: 25,2554           05271        DESLOOP            TC       FIXDELAY                              #  2 SAMPLES PER SECOND.
001943: 25,2555           00062                           DEC      50         B-14
001944:
001945: 25,2556           35014        STDESIG            CAF      BIT11
001946: 25,2557           71101                           MASK     RADMODES                              #  SEE IF GIMBAL LIMIT MONITOR HAS FOUND US
001947: 25,2560           10000                           CCS      A                                     #  OUT OF BOUNDS. IF SO, THIS BIT SHOWS A
001948: 25,2561           12613                           TCF      BADDES                                #  REPOSITION TO BE IN PROGRESS.
001949:
001950: 25,2562           11101                           CCS      RADMODES                              #  SEE IF CONTINUOUS DESIGNATE WANTED.
001951: 25,2563           12566                           TCF      +3                                    #  IF SO, DONT CHECK BIT 10 TO SEE IF IN
001952: 25,2564           12566                           TCF      +2                                    #  LIMITS BUT GO RIGHT TO FINDVAC ENTRY.
001953: 25,2565           12620                           TCF      MOREDES    +1
001954:
001955: 25,2566           41101                           CS       RADMODES                              #  IF NON-CONTINUOUS, SEE IF END OF
001956: 25,2567           75015                           MASK     BIT10                                 #  PROBLEM (DATA GOOD IF LOCK-ON WANTED OR
001957: 25,2570           10000                           CCS      A                                     #  WITHIN LIMITS IF NOT). IF SO, EXIT AFTER
001958: 25,2571           13502                           TCF      ENDRADAR                              #  CHECKING RR CDU FAIL.
001959:
001960: 25,2572           35013                           CAF      LOSCMBIT
001961: 25,2573           70076                           MASK     FLAGWRD2
001962: 25,2574           00006                           EXTEND
001963: 25,2575           12606                           BZF      STDESIG1
001964: 25,2576           11433                           CCS      LOSCOUNT
001965: 25,2577           02605                           TC       STDESIG1   -1
001966:
001967: 25,2600           37666                           CAF      PRIO26
001968: 25,2601           05155                           TC       FINDVAC
001969: 25,2602  E7,1433                                  EBANK=   LOSCOUNT
001970: 25,2602           02666 50067                     2CADR    R21LEM2
001971: 25,2604           05321                           TC       TASKOVER
001972:
001973: 25,2605           55433                           TS       LOSCOUNT
001974: 25,2606           11117        STDESIG1           CCS      DESCOUNT                              #  SEE IF THE TINE LIMIT HAS EXPIRED
001975: 25,2607           12617                           TCF      MOREDES
001976:
001977: 25,2610           42625                           CS       B14+B2                                #  IF OUT OF TIME, REMOVE ECR ENABLE + TRKR
001978: 25,2611           00006                           EXTEND
001979: 25,2612           03012                           WAND     CHAN12
001980: 25,2613           45015        BADDES             CS       BIT10                                 #  REMOVE DESIGNATE FLAG.
001981: 25,2614           71101                           MASK     RADMODES
001982: 25,2615           55101                           TS       RADMODES
001983: 25,2616           13516                           TCF      RDBADEND
001984:
001985: 25,2617           55117        MOREDES            TS       DESCOUNT
001986: 25,2620           37666                           CAF      PRIO26                                #  UPDATE GYRO TORQUE COMMANDS.
001987: 25,2621           05155                           TC       FINDVAC
001988: 25,2622  E7,1433                                  EBANK=   LOSCOUNT
001989: 25,2622           02626 52067                     2CADR    DODES
001990:
001991: 25,2624           12554                           TCF      DESLOOP
001992:
001993: 25,2625           20002        B14+B2             OCT      20002
001994:
001995:                                                                                                  #  PROGRAM NAME_  DODES
001996:
001997:                                                                                                  #  FUNCTIONAL DESCRIPTION_
001998:                                                                                                  #  DODES CALCULATES AND REQUESTS ISSUANCE OF RR GYRO TORQUE
001999:                                                                                                  #  COMMANDS. INITIALLY THE CURRENT RR CDU ANGLES ARE STORED AND
002000:                                                                                                  #  THE LOS HALF-UNIT VECTOR TRANSFORMED FROM STABLE MEMBER TO
002001:                                                                                                  #  NAVIGATION BASE COORDINATES VIA SMNB IF NECESSARY. THE
002002:                                                                                                  #  SHAFT AND TRUNNION COMMANDS ARE THEN CALCULATED AS FOLLOWS_
002003:                                                                                                  #  + SHAFT = LOS  . (COS(S), 0, -SIN (S)) (DOT PRODUCT)
002004:                                                                                                  #  -TRUNNION = LOS  . (SIN (T) SIN (S), COS (T), SIN (T) COS (S) )
002005:                                                                                                  #  THE SIGN OF THE SHAFT COMMAND IS THEN REVERSED IF IN MODE 2
002006:                                                                                                  #  (RADMODES BIT 12) BECAUSE A RELAY IN THE RR REVERSES THE
002007:                                                                                                  #  POLARITY OF THE COMMAND. AT RRSCALUP EACH COMMAND IS
002008:                                                                                                  #  SCALED AND IF EITHER, OR BOTH, OF THE COMMANDS IS GREATER THAN
002009:                                                                                                  #  .5 DEGREES, MPAC +1 IS SET POSITIVE. IF A CONTINUOUS DESIGNATE
002010:                                                                                                  #  (RADMODES BIT 15) IS DESIRED AND THE SEARCH ROUTINE IS NOT OPERATING,
002011:                                                                                                  #  THE RR AUTO TRACKER ENABLE BIT (CHAN 12 BIT 14) IS CLEARED AND RROUT
002012:                                                                                                  #  CALLED TO PUT OUT THE COMMANDS PROVIDED NO REPOSITION (RADMODES BIT 11)
002013:                                                                                                  #  IS IN PROGRESS. IF A CONTINUOUS DESIGNATE AND THE SEARCH ROUTINE IS
002014:                                                                                                  #  OPERATING (SRCHOPT FLAG SET) THE TRACK ENABLE IS NOT CLEARED. IF NO
002015:                                                                                                  #  CONTINUOUS DESIGNATE AND BOTH COMMANDS ARE NOT LESS THAN .5 DEGREES AS
002016:                                                                                                  #  INDICATED BY MPAC +1, THE RR AUTO TRACKER ENABLE BIT (CHAN 12 BIT 14) IS
002017:                                                                                                  #  CLEARED AND RROUT CALLED TO PUT OUT THE COMMANDS PROVIDED NO REPOSITION
002018:                                                                                                  #  (RADMODES BIT 11) IS IN PROGRESS. IF BOTH COMMANDS ARE LESS THAN .5
002019:                                                                                                  #  DEGREES AS INDICATED BY MPAC+1, THE RR AUTO TRACKER ENABLE BIT
002020:                                                                                                  #  (CHAN 12 BIT 14) IS CLEARED AND RROUT CALLED TO PUT OUT THE
002021:                                                                                                  #  COMMANDS PROVIDED NO REPOSITION (RADMODES BIT 11) IS IN
002022:                                                                                                  #  PROGRESS. IF BOTH COMMANDS ARE LESS THAN .5 DEGREES, THE
002023:                                                                                                  #  LOCK-ON FLAG (STATE BIT 5) IS CHECKED. IF NOT PRESENT, THE
002024:                                                                                                  #  DESIGNATE FLAG (RADMODES BIT 10) IS CLEARED, THE RR ERROR
002025:                                                                                                  #  COUNTER ENABLE BIT (CHAN 12 BIT 2) IS CLEARED, AND ENDOFJOB
002026:                                                                                                  #  CALLED. IF LOCK-ON IS DESIRED, THE RR AUTO TRACKER (CHAN 12
002027:                                                                                                  #  BIT 14) IS ENABLED FOLLOWED BY A CHECK OF THE RECEIPT OF THE
002028:                                                                                                  #  RR DATA GOOD (CHAN 33 BIT 4) SIGNAL. IF RR DATA GOOD
002029:                                                                                                  #  PRESENT, THE DESIGNATE FLAG (RADMODES BIT 10) IS CLEARED,
002030:                                                                                                  #  THE RR ERROR COUNTER ENABLE BIT (CHAN 12 BIT 2) IS CLEARED,
002031:                                                                                                  #  AND ENDOFJOB CALLED. IF RR DATA GOOD IS NOT PRESENT, RROUT
002032:                                                                                                  #  IS CALLED TO PUT OUT THE COMMANDS PROVIDED NO REPOSITION
002033:                                                                                                  #  (RADMODES BIT 11) IS IN PROGRESS AFTER WHICH THE JOB IS TERMINATED
002034:                                                                                                  #  VIA ENDOFJOB.
002035:
002036:                                                                                                  #  CALLING SEQUENCE:
002037:                                                                                                  #  EXECUTIVE CALL EVERY .5 SECONDS FROM BEGDES.
002038:
002039:                                                                                                  #  ERASABLE INITIALIZATION REQUIRED:
002040:                                                                                                  #  RRTARGET (HALF-UNIT LOS VECTOR IN EITHER SM OR NB COORDINATES),
002041:                                                                                                  #  LOKONSW (STATE BIT 5), RRNBSW (STATE BIT 6), RADMODES
002042:
002043:                                                                                                  #  SUBROUTINES CALLED_
002044:                                                                                                  #  READCDUS, SMNB, CDULOGIC, MAGSUB, RROUT
002045:
002046:                                                                                                  #  JOBS OR TASKS INITIATED_
002047:                                                                                                  #  NONE
002048:
002049:                                                                                                  #  ALARMS_  NONE
002050:
002051:                                                                                                  #  EXIT_  ENDOFJOB (ALWAYS)
002052:
002053: 25,2626           00006        DODES              EXTEND
002054: 25,2627           30036                           DCA      CDUT
002055: 25,2630           53113                           DXCH     TANG
002056:
002057: 25,2631           06014                           TC       INTPRET
002058:
002059: 25,2632           77201                           SETPD    VLOAD
002060: 25,2633           00001                                    0
002061: 25,2634           01105                                    RRTARGET
002062: 25,2635           74214                           BON      VXSC
002063: 25,2636           00311                                    RRNBSW
002064: 25,2637           52651                                    DONBRD                                #  TARGET IN NAV-BASE COORDINATES
002065: 25,2640           03443                                    MLOSV                                 #  MULTIPLY UNIT LOS BY MAGNITUDE
002066: 25,2641           63372                           VSL1     PDVL
002067: 25,2642           03435                                    LOSVEL
002068: 25,2643           53361                           VXSC     VAD                                   #  ADD ONE SECOND RELATIVE VELOCITY TO LOS
002069: 25,2644           13044                                    MCTOMS
002070: 25,2645           45056                           UNIT     CALL
002071: 25,2646           47251                                    CDUTRIG
002072: 25,2647           77624                           CALL
002073: 25,2650           47413                                    *SMNB*
002074:
002075: 25,2651           00041        DONBRD             STORE    32D
002076: 25,2652           77735                           SLOAD
002077: 25,2653           01114                                    TANG       +1
002078: 25,2654           41434                           RTB      PUSH                                  #  SHAFT COMMAND = V(32D).(COS(S), 0,
002079: 25,2655           21457                                    CDULOGIC                              #       (-SIN(S)).
002080: 25,2656           65356                           SIN      PDDL                                  #  SIN(S) TO 0 AND COS(S) TO 2.
002081: 25,2657           41546                           COS      PUSH
002082: 25,2660           65205                           DMP      PDDL
002083: 25,2661           00041                                    32D
002084: 25,2662           00045                                    36D
002085: 25,2663           44205                           DMP      BDSU
002086: 25,2664           00001                                    0
002087: 25,2665           77626                           STADR
002088: 25,2666           76663                           STORE    TANG       +1                         #  SHAFT COMMAND
002089:
002090: 25,2667           47135                           SLOAD    RTB
002091: 25,2670           01113                                    TANG
002092: 25,2671           21457                                    CDULOGIC
002093: 25,2672           71406                           PUSH     COS                                   #  COS(T) TO 4.
002094: 25,2673           73525                           PDDL     SIN
002095: 25,2674           41206                           PUSH     DMP                                   #  SIN(T) TO 6.
002096: 25,2675           00003                                    2
002097:
002098: 25,2676           65352                           SL1      PDDL                                  #  DEFINE VECTOR U = (SIN(T)SIN(S))
002099: 25,2677           00005                                    4                                     #                    (COS(T)      )
002100: 25,2700           41325                           PDDL     DMP                                   #                    (SIN(T)COS(S))
002101: 25,2701           00007                                    6
002102: 25,2702           00001                                    0
002103: 25,2703           55552                           SL1      VDEF
002104: 25,2704           77441                           DOT      EXIT                                  #  DOT U WITH LOS TO GET TRUNNION COMMAND.
002105: 25,2705           00041                                    32D
002106:
002107:                                                                                                  #           AT THIS POINT WE HAVE A ROTATION VECTOR IN DISH AXES LYING IN THE TS PLANE. CONVERT THIS TO A
002108:                                                                                                  #  COMMANDED RATE AND ENABLE THE TRACKER IF WE ARE WITHIN .5 DEGREES OF THE TARGET.
002109:
002110: 25,2706           40154                           CS       MPAC                                  #  DOT WAS NEGATIVE OF DESIRED ANGLE.
002111: 25,2707           00006                           EXTEND
002112: 25,2710           73040                           MP       RDESGAIN                              #  SCALING ON INPUT ANGLE WAS 4 RADIANS.
002113: 25,2711           55112                           TS       TANG                                  #  TRUNNION COMMAND.
002114: 25,2712           41101                           CS       RADMODES                              #  A RELAY IN THE RR REVERSES POLARITY OF
002115: 25,2713           75013                           MASK     BIT12                                 #  THE SHAFT COMMANDS IN MODE 2 SO THAT A
002116: 25,2714           00006                           EXTEND                                         #  POSITIVE TORQUE APPLIED TO THE SHAFT
002117: 25,2715           12720                           BZF      +3                                    #  GYRO CAUSES A POSITIVE CHANGE IN THE
002118: 25,2716           31113                           CA       TANG       +1                         #  SHAFT ANGLE. COMPENSATE FOR THIS SWITCH
002119: 25,2717           12721                           TCF      +2                                    #  BY CHANGING THE POLARITY OF OUR COMMAND.
002120: 25,2720           41113                 +3        CS       TANG       +1
002121: 25,2721           00006                           EXTEND
002122: 25,2722           73040                           MP       RDESGAIN                              #  SCALING ON INPUT ANGLE WAS 4 RADIANS.
002123: 25,2723           55113                           TS       TANG       +1                         #  SHAFT COMMAND.
002124: 25,2724           06014                           TC       INTPRET
002125:
002126: 25,2725           41345                           DLOAD    DMP
002127: 25,2726           00003                                    2                                     #  COS(S).
002128: 25,2727           00005                                    4                                     #  COS(T).
002129: 25,2730           65352                           SL1      PDDL                                  #  Z COMPONENT OF URR.
002130: 25,2731           65276                           DCOMP    PDDL                                  #  Y COMPONENT = -SIN(T).
002131: 25,2732           00001                                    0                                     #  SIN(S).
002132: 25,2733           72405                           DMP      SL1
002133: 25,2734           00005                                    4                                     #  COS(T).
002134: 25,2735           43066                           VDEF     BON                                   #  FORM URR IN NB AXES.
002135: 25,2736           00311                                    RRNBSW                                #  BYPASS NBSM CONVERSION IN VERB 41.
002136: 25,2737           52742                                    +3
002137: 25,2740           77624                           CALL
002138: 25,2741           47415                                    *NBSM*                                #  GET URR IN SM AXES.
002139: 25,2742           77441                           DOT      EXIT
002140: 25,2743           01105                                    RRTARGET                              #  GET COSINE OF ANGLE BETWEEN RR AND LOS.
002141:
002142: 25,2744           00006                           EXTEND
002143: 25,2745           43042                           DCS      COS1/2DG
002144: 25,2746           20155                           DAS      MPAC                                  #  DIFFERENCE OF COSINES, SCALED B-2.
002145: 25,2747           10154                           CCS      MPAC
002146: 25,2750           35030                           CA       ZERO                                  #  IF COS ERROR BIGGER, ERROR IS SMALLER.
002147: 25,2751           12753                           TCF      +2
002148: 25,2752           35026                           CA       ONE
002149: 25,2753           54155                           TS       MPAC       +1                         #  ZERO IF RR IS POINTED OK, ONE IF NOT.
002150:
002151:                                                                                                  #           SEE IF TRACKER SHOULD BE ENABLED OR DISABLED.
002152:
002153: 25,2754           11101                           CCS      RADMODES                              #  IF CONTINUOUS DESIGNATE WANTED, PUT OUT
002154: 25,2755           12760                           TCF      SIGNLCHK                              #  COMMANDS WITHOUT CHECKING MAGNITUDE OF
002155: 25,2756           12760                           TCF      SIGNLCHK                              #  ERROR SIGNALS
002156: 25,2757           13011                           TCF      DORROUT
002157: 25,2760           10155        SIGNLCHK           CCS      MPAC       +1                         #  SEE IF BOTH AXES WERE WITHIN .5 DEGS.
002158: 25,2761           12771                           TCF      DGOODCHK
002159: 25,2762           40074                           CS       STATE                                 #  IF WITHIN LIMITS AND NO LOCK-ON WANTED,
002160: 25,2763           75022                           MASK     LOKONBIT                              #  PROBLEM IS FINISHED.
002161: 25,2764           10000                           CCS      A
002162: 25,2765           12776                           TCF      RRDESDUN
002163:
002164: 25,2766           35011                           CAF      BIT14                                 #  ENABLE THE TRACKER.
002165: 25,2767           00006                           EXTEND
002166: 25,2770           05012                           WOR      CHAN12
002167:
002168: 25,2771           35023        DGOODCHK           CAF      BIT4                                  #  SEE IF DATA GOOD RECEIVED YET
002169: 25,2772           00006                           EXTEND
002170: 25,2773           02033                           RAND     CHAN33
002171: 25,2774           10000                           CCS      A
002172: 25,2775           13011                           TCF      DORROUT
002173:
002174: 25,2776           00004        RRDESDUN           INHINT
002175: 25,2777           45015                           CS       BIT10                                 #  WHEN PROBLEM DONE, REMOVE BIT 10 SO NEXT
002176: 25,3000           71101                           MASK     RADMODES                              #  WAITLIST TASK WE WILL GO TO RGOODEND.
002177: 25,3001           55101                           TS       RADMODES
002178: 25,3002           00003                           RELINT
002179:
002180: 25,3003           05575                           TC       DOWNFLAG                              #  RESET LOSCMFLG TO PREVENT A
002181: 25,3004           00041                           ADRES    LOSCMFLG                              #  RECOMPUTATION OF LOS AFTER DATA GOOD
002182: 25,3005           45025                           CS       BIT2                                  #  TURN OFF ENABLE RR ERROR COUNTER
002183: 25,3006           00006                           EXTEND
002184: 25,3007           03012                           WAND     CHAN12
002185: 25,3010           15225                           TCF      ENDOFJOB                              #  WITH ECTR DISABLED.
002186:
002187: 25,3011           06014        DORROUT            TC       INTPRET
002188: 25,3012           77614                           BOFF                                           #  IF NOT IN P20/P22 BUT V41,DON'T DO
002189: 25,3013           00350                                    RNDVZFLG                              #  VELOCITY CORRECTION.
002190: 25,3014           53031                                    NOTP20
002191: 25,3015           74375                           VLOAD    VXSC                                  #  MULTIPLY UNIT LOS BY MAGNITUDE
002192: 25,3016           01105                                    RRTARGET
002193: 25,3017           03443                                    MLOSV
002194: 25,3020           41572                           VSL1     PUSH
002195: 25,3021           74375                           VLOAD    VXSC                                  #  ADD .5 SEC. OF VELOCITY
002196: 25,3022           03435                                    LOSVEL                                #  TO LOS VECTOR
002197: 25,3023           13044                                    MCTOMS
002198: 25,3024           53362                           VSR1     VAD
002199: 25,3025           77656                           UNIT
002200: 25,3026           15105                           STODL    RRTARGET                              #  STORE VELOCITY-CORRECTED LOS (UNIT)
002201:
002202: 25,3027           00045                                    36D
002203: 25,3030           03443                           STORE    MLOSV                                 #  AND STORE MAGNITUDE
002204: 25,3031           77776        NOTP20             EXIT
002205: 25,3032           00004                           INHINT
002206: 25,3033           41101                           CS       RADMODES                              #  PUT OUT COMMAND UNLESS MONITOR
002207: 25,3034           75014                           MASK     BIT11                                 #  REPOSITION HAS TAKEN OVER.
002208: 25,3035           10000                           CCS      A
002209: 25,3036           02265                           TC       RROUT
002210:
002211: 25,3037           15225                           TCF      ENDOFJOB
002212:
002213:
002214: 25,3040           21122        RDESGAIN           DEC      .53624                                #  TRIES TO NULL .5 ERROR IN .5 SEC.
002215: 25,3041           07777 33005  COS1/2DG           2DEC     .999961923 B-2                        #  COSINE OF 0.5 DEGREES.
002216: 25,3043           00000 14400  MCTOMS             2DEC     100        B-22
002217:
002218:                                                                                                  #  RADAR READ INITIALIZATION
002219:
002220:                                                                                                  #  RADAR DATA ARE READ BY A BANKCALL FOR THE APPROPRIATE LEAD-IN BELOW.
002221:
002222: 25,3045           03065        LRALT              TC       INITREAD   -1                         #  ONE SAMPLE PER READING.
002223: 25,3046           00017        ALLREAD            OCT      17
002224:
002225: 25,3047           03066        LRVELZ             TC       INITREAD
002226: 25,3050           00016                           OCT      16
002227:
002228: 25,3051           03066        LRVELY             TC       INITREAD
002229: 25,3052           00015                           OCT      15
002230:
002231: 25,3053           03066        LRVELX             TC       INITREAD
002232: 25,3054           00014                           OCT      14
002233:
002234: 25,3055           03065        RRRDOT             TC       INITREAD   -1
002235: 25,3056           00012                           OCT      12
002236:
002237: 25,3057           03065        RRRANGE            TC       INITREAD   -1
002238: 25,3060           00011                           OCT      11
002239:
002240:                                                                                                  #  LRVEL IS THE ENTRY TO THE LR VELOCITY READ ROUTINE WHEN 5 SAMPLES ARE
002241:                                                                                                  #  WANTED. ENTER WITH C(A)= 0,2,4 FOR LRVELZ,LRVELY,LRVELX RESP.
002242:
002243: 25,3061           55110        LRVEL              TS       TIMEHOLD                              #  STORE VBEAM INDEX HERE MOMEMTARILY
002244: 25,3062           35031                           CAF      FIVE                                  #  SPECIFY FIVE SAMPLES
002245: 25,3063           51110                           INDEX    TIMEHOLD
002246: 25,3064           13047                           TCF      LRVELZ
002247:
002248: 25,3065           35026                 -1        CAF      ONE                                   #  ENTRY TO TAKE ONLY 1 SAMPLE.
002249: 25,3066           00004        INITREAD           INHINT
002250:
002251: 25,3067           55110                           TS       TIMEHOLD                              #  GET DT OF MIDPOINT OF NOMINAL SAMPLING
002252: 25,3070           00006                           EXTEND                                         #  INTERVAL (ASSUMES NO BAD SAMPLES WILL BE
002253: 25,3071           75024                           MP       BIT3                                  #  ENCOUNTERED).
002254: 25,3072           53111                           DXCH     TIMEHOLD
002255:
002256: 25,3073           10000                           CCS      A
002257: 25,3074           55114                           TS       NSAMP
002258: 25,3075           65026                           AD       ONE
002259:                                                                                                  #           INSERT FOLLOWING INSTRUCTION TO GET 2N TRIES FOR N SAMPLES.
002260:                                                                                                  #                                                   DOUBLE
002261: 25,3076           55103                           TS       SAMPLIM
002262:
002263: 25,3077           33121                           CAF      DGBITS                                #  READ CURRENT VALUE OF DATA GOOD BITS.
002264: 25,3100           00006                           EXTEND
002265: 25,3101           02033                           RAND     CHAN33
002266: 25,3102           55116                           TS       OLDATAGD
002267:
002268: 25,3103           43046                           CS       ALLREAD
002269: 25,3104           00006                           EXTEND
002270: 25,3105           03013                           WAND     CHAN13                                #  REMOVE ALL RADAR BITS
002271:
002272: 25,3106           50002                           INDEX    Q
002273: 25,3107           30000                           CAF      0
002274: 25,3110           00006                           EXTEND
002275: 25,3111           05013                           WOR      CHAN13                                #  SET NEW RADAR BITS
002276:
002277: 25,3112           00006                           EXTEND
002278: 25,3113           30025                           DCA      TIME2
002279: 25,3114           21111                           DAS      TIMEHOLD                              #  TIME OF NOMINAL MIDPOINT.
002280:
002281: 25,3115           35030                           CAF      ZERO
002282: 25,3116           54001                           TS       L
002283: 25,3117           53105                           DXCH     SAMPLSUM
002284: 25,3120           12345                           TCF      ROADBACK
002285:
002286: 25,3121           00230        DGBITS             OCT      230
002287:
002288:                                                                                                  #  RADAR RUPT READER
002289:
002290:                                                                                                  #  THIS ROUTINE STARTS FROM A RADARUPT. IT READS THE DATA $ LOTS MORE.
002291:
002292: 25,2000                                           SETLOC   RADARUPT
002293: 25,2000                                           BANK
002294:
002295: 25,3122                                           COUNT*   $$/RRUPT
002296: 25,3122           00006        RADAREAD           EXTEND                                         #  MUST SAVE SBANK BECAUSE OF RUPT EXITS
002297: 25,3123           04007                           ROR      SUPERBNK                              #  VIA TASKOVER (BADEND OR GOODEND.
002298: 25,3124           54016                           TS       BANKRUPT
002299: 25,3125           00006                           EXTEND
002300: 25,3126           22012                           QXCH     QRUPT
002301:
002302: 25,3127           35032                           CAF      SEVEN
002303: 25,3130           00006                           EXTEND
002304: 25,3131           02013                           RAND     CHAN13
002305: 25,3132           55341                           TS       DNINDEX
002306: 25,3133           30046                           CA       RNRAD
002307: 25,3134           51341                           INDEX    DNINDEX
002308: 25,3135           55336                           TS       DNRRANGE   -1
002309:
002310: 25,3136           00006        ANGLREAD           EXTEND
002311: 25,3137           30036                           DCA      OPTY
002312: 25,3140           53107                           DXCH     OPTYHOLD                              #  SAVE RAW CDU ANGLES
002313:
002314: 25,3141           11103        TRYCOUNT           CCS      SAMPLIM
002315: 25,3142           13160                           TCF      PLENTY
002316: 25,3143           13147                           TCF      NOMORE
002317: 25,3144           05646                           TC       ALARM
002318: 25,3145           00520                           OCT      520
002319: 25,3146           05330                           TC       RESUME
002320:
002321: 25,3147           40077        NOMORE             CS       FLAGWRD3                              #  CHECK R04FLAG.
002322: 25,3150           75016                           MASK     R04FLBIT                              #  IF 1,R04 IS RUNNING. DO NOT ALARM-
002323: 25,3151           00006                           EXTEND
002324: 25,3152           13155                           BZF      BADRAD
002325:
002326: 25,3153           05646                           TC       ALARM                                 #  P20 WANTS THE ALARM.
002327: 25,3154           00521                           OCT      521
002328: 25,3155           45026        BADRAD             CS       ONE
002329: 25,3156           55103                           TS       SAMPLIM
002330: 25,3157           03514                           TC       RDBADEND   -2
002331: 25,3160           55103        PLENTY             TS       SAMPLIM
002332: 25,3161           35024                           CAF      BIT3
002333: 25,3162           00006                           EXTEND
002334: 25,3163           02013                           RAND     CHAN13                                #  TO FIND OUT WHICH RADAR
002335: 25,3164           00006                           EXTEND
002336:
002337: 25,3165           13245                           BZF      RENDRAD
002338:
002339: 25,3166           31101        LRPOSCHK           CA       RADMODES                              #  SEE IF LR IN DESIRED POSITION.
002340: 25,3167           00006                           EXTEND
002341: 25,3170           06033                           RXOR     CHAN33
002342: 25,3171           75021                           MASK     BIT6
002343: 25,3172           00006                           EXTEND
002344: 25,3173           13177                           BZF      VELCHK
002345:
002346: 25,3174           05646                           TC       ALARM
002347: 25,3175           00522                           OCT      522
002348: 25,3176           03155                           TC       BADRAD
002349:
002350: 25,3177           36221        VELCHK             CAF      BIN3                                  #  = 00003 OCT
002351: 25,3200           00006                           EXTEND
002352: 25,3201           06013                           RXOR     CHAN13                                #  RESET ACTIVITY BIT
002353: 25,3202           76221                           MASK     BIN3
002354: 25,3203           00006                           EXTEND
002355: 25,3204           13241                           BZF      LRHEIGHT                              #  TAKE A LR RANGE READING
002356:
002357: 25,3205           35006                           CAF      POSMAX
002358: 25,3206           70046                           MASK     RNRAD
002359: 25,3207           63417                           AD       LVELBIAS
002360: 25,3210           54001                           TS       L
002361: 25,3211           30046                           CAE      RNRAD
002362: 25,3212           60000                           DOUBLE
002363: 25,3213           75026                           MASK     BIT1
002364: 25,3214           52064                           DXCH     ITEMP3
002365:
002366: 25,3215           03334                           TC       R77CHECK
002367:
002368: 25,3216           35017                           CAF      BIT8                                  #  DATA GOOD ISNT CHECKED UNTIL AFTER READ-
002369: 25,3217           03367                           TC       DGCHECK                               #  ING DATA SO SOME RADAR TESTS WILL WORK
002370:                                                                                                  #  INDEPENDENT OF DATA GOOD.
002371:
002372: 25,3220           11114                           CCS      NSAMP
002373: 25,3221           03231                           TC       NOEND
002374: 25,3222           45026        GOODRAD            CS       ONE
002375: 25,3223           55103                           TS       SAMPLIM
002376: 25,3224           40061                           CS       ITEMP1                                #  WHEN ENOUGH GOOD DATA HAS BEEN GATHERED,
002377: 25,3225           71101                           MASK     RADMODES                              #  RESET DATA FAIL FLAGS FOR SETTRKF.
002378: 25,3226           55101                           TS       RADMODES
002379: 25,3227           04601                           TC       SETTRKF                               #  LAMP MIGHT GO OFF IF DATA JUST GOOD.
002380: 25,3230           03507                           TC       RGOODEND   -2
002381:
002382: 25,3231           55114        NOEND              TS       NSAMP
002383: 25,3232           11103        RESAMPLE           CCS      SAMPLIM                               #  SEE IF ANY MORE TRIES SHOULD BE MADE.
002384: 25,3233           13235                           TCF      +2
002385: 25,3234           13406                           TCF      DATAFAIL                              #  N SAMPLES NOT AVAILABLE.
002386: 25,3235           35023                           CAF      BIT4                                  #  RESET ACTIVITY BIT.
002387: 25,3236           00006                           EXTEND
002388:
002389: 25,3237           05013                           WOR      CHAN13                                #  RESET ACTIVITY BIT
002390: 25,3240           05330                           TC       RESUME
002391:
002392:
002393: 25,3241           35022        LRHEIGHT           CAF      BIT5
002394: 25,3242           54061                           TS       ITEMP1                                #  (POSITION OF DATA GOOD BIT IN CHAN 33)
002395:
002396: 25,3243           35016                           CAF      BIT9
002397: 25,3244           03267                           TC       SCALECHK   -1
002398:
002399: 25,3245           35014        RENDRAD            CAF      BIT11                                 #  MAKE SURE ANTENNA HAS NOT GONE OUT OF
002400: 25,3246           71101                           MASK     RADMODES                              #  LIMITS.
002401: 25,3247           10000                           CCS      A
002402: 25,3250           13155                           TCF      BADRAD
002403:
002404: 25,3251           41101                           CS       RADMODES                              #  BE SURE RR CDU HASNT FAILED.
002405: 25,3252           75020                           MASK     BIT7
002406: 25,3253           10000                           CCS      A
002407: 25,3254           13155                           TCF      BADRAD
002408:
002409: 25,3255           35023                           CAF      BIT4                                  #  SEE IF DATA HAS BEEN GOOD.
002410: 25,3256           54061                           TS       ITEMP1                                #  (POSITION OF DATA GOOD BIT IN CHAN 33)
002411:
002412: 25,3257           35026                           CAF      BIT1                                  #  SEE IF RR RDOT.
002413: 25,3260           00006                           EXTEND
002414: 25,3261           02013                           RAND     CHAN13
002415: 25,3262           54002                           TS       Q                                     #  FOR LATER TESTING.
002416: 25,3263           10000                           CCS      A
002417: 25,3264           13266                           TCF      +2
002418: 25,3265           13300                           TCF      RADIN                                 #  NO SCALE CHECK FOR RR RDOT.
002419: 25,3266           35024                           CAF      BIT3
002420: 25,3267           54001                           TS       L
002421:
002422: 25,3270           00006        SCALECHK           EXTEND
002423: 25,3271           02033                           RAND     CHAN33                                #  SCALE STATUS NOW
002424: 25,3272           56001                           XCH      L
002425: 25,3273           71101                           MASK     RADMODES                              #  SCALE STATUS BEFORE
002426: 25,3274           00006                           EXTEND
002427: 25,3275           06001                           RXOR     LCHAN                                 #  SEE IF THEY DIFFER
002428: 25,3276           10000                           CCS      A
002429: 25,3277           03320                           TC       SCALCHNG                              #  THEY DIFFER
002430:
002431: 25,3300           35006        RADIN              CAF      POSMAX
002432: 25,3301           70046                           MASK     RNRAD
002433: 25,3302           54064                           TS       ITEMP4
002434:
002435: 25,3303           30046                           CAE      RNRAD
002436: 25,3304           60000                           DOUBLE
002437: 25,3305           75026                           MASK     BIT1
002438: 25,3306           54063                           TS       ITEMP3
002439:
002440: 25,3307           10002                           CCS      Q                                     #  SEE IF RR RDOT.
002441: 25,3310           13341                           TCF      SCALADJ                               #  NO, BUT SCALE CHANGING MAY BE NEEDED.
002442:
002443: 25,3311           00006                           EXTEND                                         #  IF RR RANGE RATE, THROW OUT BIAS.
002444: 25,3312           43421                           DCS      RDOTBIAS
002445: 25,3313           20064        DASAMPL            DAS      ITEMP3
002446: 25,3314           03334        DGCHECK2           TC       R77CHECK
002447: 25,3315           30061                           CA       ITEMP1                                #  SEE THAT DATA HAS BEEN GOOD BEFORE AND
002448: 25,3316           03370                           TC       DGCHECK    +1                         #  AFTER TAKING SAMPLE.
002449: 25,3317           03222                           TC       GOODRAD
002450:
002451: 25,3320           23101        SCALCHNG           LXCH     RADMODES
002452: 25,3321           65026                           AD       BIT1
002453: 25,3322           00006                           EXTEND
002454: 25,3323           06001                           RXOR     LCHAN
002455: 25,3324           55101                           TS       RADMODES
002456: 25,3325           33121                           CAF      DGBITS                                #  UPDATE LAST VALUE OF DATA GOOD BITS.
002457: 25,3326           00006                           EXTEND
002458: 25,3327           02033                           RAND     CHAN33
002459: 25,3330           55116                           TS       OLDATAGD
002460: 25,3331           05563                           TC       UPFLAG                                #  SET RNGSCFLG
002461: 25,3332           00120                           ADRES    RNGSCFLG                              #  FOR LRS24.1
002462: 25,3333           13155                           TCF      BADRAD
002463:
002464:                                                                                                  #  R77 MUST IGNORE DATA FAILS SO AS NOT TO DISTURB THE ASTRONAUT.
002465:
002466: 25,3334           35014        R77CHECK           CA       R77FLBIT
002467: 25,3335           70101                           MASK     FLAGWRD5
002468: 25,3336           10000                           CCS      A
002469: 25,3337           03507                           TC       RGOODEND   -2
002470: 25,3340           00002                           TC       Q
002471:
002472:                                                                                                  #           THE FOLLOWING ROUTINE INCORPORATES RR RANGE AND LR ALT SCALE INFORMATION AND LEAVES DATA AT LO SCALE.
002473:
002474: 25,3341           10001        SCALADJ            CCS      L                                     #  L HAS SCALE INBIT FOR THIS RADAR.
002475: 25,3342           13344                           TCF      +2                                    #  ON HIGH SCALE.
002476: 25,3343           13314                           TCF      DGCHECK2
002477:
002478: 25,3344           52064                           DXCH     ITEMP3
002479: 25,3345           20001                           DDOUBL
002480: 25,3346           20001                           DDOUBL
002481: 25,3347           20001                           DDOUBL
002482: 25,3350           52064                           DXCH     ITEMP3
002483:
002484: 25,3351           35024                           CAF      BIT3                                  #  SEE IF LR OR RR.
002485: 25,3352           00006                           EXTEND
002486: 25,3353           02013                           RAND     13
002487: 25,3354           00006                           EXTEND                                         #  IF RR, NO MORE ACTION REQUIRED.
002488: 25,3355           13314                           BZF      DGCHECK2
002489:
002490: 25,3356           33416                           CAF      LRRATIO                               #  IF LR, CONVERT TO LO SCALING.
002491: 25,3357           00006                           EXTEND
002492: 25,3360           70064                           MP       ITEMP4
002493: 25,3361           54064                           TS       ITEMP4
002494: 25,3362           35030                           CAF      ZERO                                  #  (SO SUBSEQUENT DAS WILL BE OK)
002495: 25,3363           56063                           XCH      ITEMP3
002496: 25,3364           00006                           EXTEND
002497: 25,3365           73416                           MP       LRRATIO
002498: 25,3366           13313                           TCF      DASAMPL
002499:
002500: 25,3367           54061        DGCHECK            TS       ITEMP1                                #  UPDATE DATA GOOD BIT IN OLDATAGD AND
002501: 25,3370           00006                           EXTEND                                         #  MAKE SURE IT WAS ON BEFORE AND AFTER THE
002502: 25,3371           02033                           RAND     CHAN33                                #  SAMPLE WAS TAKEN BEFORE RETURNING. IF
002503: 25,3372           54001                           TS       L                                     #  NOT, GOES TO RESAMPLE TO TRY AGAIN. IF
002504: 25,3373           40061                           CS       ITEMP1                                #  MAX NUMBER OF TRIES HAS BEEN REACHED,
002505: 25,3374           71116                           MASK     OLDATAGD                              #  THE BIT CORRESPONDING TO THE DATA GOOD
002506: 25,3375           60001                           AD       L                                     #  WHICH FAILED TO APPEAR IS IN ITEMP1 AND
002507: 25,3376           57116                           XCH      OLDATAGD                              #  CAN BE USED TO SET RADMODES WHICH VIA
002508: 25,3377           70061                           MASK     ITEMP1                                #  SETTRKF SETS THE TRACKER FAIL LAMP.
002509: 25,3400           60001                           AD       L
002510: 25,3401           10000                           CCS      A                                     #  SHOULD BOTH BE ZERO.
002511: 25,3402           03232                           TC       RESAMPLE
002512: 25,3403           52064                           DXCH     ITEMP3                                #  IF DATA GOOD BEFORE AND AFTER, ADD TO
002513: 25,3404           21105                           DAS      SAMPLSUM                              #  ACCUMULATION.
002514: 25,3405           00002                           TC       Q
002515:
002516: 25,3406           40061        DATAFAIL           CS       ITEMP1                                #  IN THE ABOVE CASE, SET RADMODES BIT
002517: 25,3407           71101                           MASK     RADMODES                              #  SHOWING SOME RADAR DATA FAILED.
002518: 25,3410           60061                           AD       ITEMP1
002519: 25,3411           55101                           TS       RADMODES
002520:
002521: 25,3412           52064                           DXCH     ITEMP3                                #  IF WE HAVE BEEN UNABLE TO GATHER N
002522: 25,3413           53105                           DXCH     SAMPLSUM                              #  SAMPLES, USE LAST ONE ONLY.
002523:
002524: 25,3414           04601                           TC       SETTRKF
002525:
002526: 25,3415           13147                           TCF      NOMORE
002527:
002528: 25,3416           23773        LRRATIO            DEC      4.9977     B-3
002529: 25,3417           47777        LVELBIAS           DEC      -12288     B-14                       #  LANDING RADAR BIAS FOR 153.6 KC.
002530: 25,3420           00001 01150  RDOTBIAS           2DEC     17000      B-28                       #  BIAS COUNT FOR RR RANGE RATE
002531:
002532:                                                                                                  #  THIS ROUTINE CHANGES THE LR POSITION, AND CHECKS THAT IT GOT THERE.
002533:
002534: 25,2000                                           SETLOC   P20S1
002535: 25,2000                                           BANK
002536:
002537: 25,3422                                           COUNT*   $$/RSUB
002538: 25,3422           00004        LRPOS2             INHINT
002539:
002540: 25,3423           45021                           CS       BIT6                                  #  DESIRED LR POSITION IS NOW 2.
002541: 25,3424           71101                           MASK     RADMODES
002542: 25,3425           65021                           AD       BIT6
002543: 25,3426           55101                           TS       RADMODES
002544:
002545: 25,3427           35020                           CAF      BIT7
002546: 25,3430           00006                           EXTEND
002547: 25,3431           02033                           RAND     33                                    #  SEE IF ALREADY THERE.
002548: 25,3432           00006                           EXTEND
002549: 25,3433           13464                           BZF      RADNOOP
002550:
002551: 25,3434           35012                           CAF      BIT13
002552: 25,3435           00006                           EXTEND
002553: 25,3436           05012                           WOR      CHAN12                                #  COMMAND TO POSITION 2
002554:
002555: 25,3437           33501                           CAF      6SECS                                 #  START SCANNING FOR INBIT AFTER 7 SECS.
002556: 25,3440           05252                           TC       WAITLIST
002557: 25,3441  E7,1433                                  EBANK=   LOSCOUNT
002558: 25,3441           03477 52067                     2CADR    LRPOSCAN
002559:
002560: 25,3443           02345                           TC       ROADBACK
002561:
002562: 25,3444           55103        LRPOSNXT           TS       SAMPLIM
002563: 25,3445           05271                           TC       FIXDELAY                              #  SCAN ONCE PER SECOND 15 TIMES MAX AFTER
002564: 25,3446           00144                           DEC      100        B-14                       #  INITIAL DELAY OF 7 SECONDS.
002565:
002566: 25,3447           35020                           CAF      BIT7                                  #  SEE IF LR POS2 IS ON
002567: 25,3450           00006                           EXTEND
002568: 25,3451           02033                           RAND     CHAN33
002569: 25,3452           00006                           EXTEND
002570: 25,3453           13471                           BZF      LASTLRDT                              #  IF THERE, WAIT FINAL SECOND FOR BOUNCE.
002571:
002572: 25,3454           11103                           CCS      SAMPLIM                               #  SEE IF MAX TIME UP.
002573: 25,3455           13444                           TCF      LRPOSNXT
002574:
002575: 25,3456           45012                           CS       BIT13                                 #  IF TIME UP, DISABLE COMMAND AND ALARM.
002576: 25,3457           00006                           EXTEND
002577: 25,3460           03012                           WAND     CHAN12
002578:
002579: 25,3461           05646                           TC       ALARM                                 #  LR ANTENNA DIDNT MAKE IT.
002580: 25,3462           00523                           OCT      523
002581: 25,3463           13516                           TCF      RDBADEND
002582:
002583: 25,3464           35026        RADNOOP            CAF      ONE                                   #  NO FURTHER ACTION REQUESTED.
002584: 25,3465           05252                           TC       WAITLIST
002585: 25,3466  E7,1433                                  EBANK=   LOSCOUNT
002586: 25,3466           03511 52067                     2CADR    RGOODEND
002587:
002588: 25,3470           02345                           TC       ROADBACK
002589:
002590: 25,3471           05271        LASTLRDT           TC       FIXDELAY                              #  WAIT ONE SECOND AFTER RECEIPT OF INBIT
002591: 25,3472           00144                           DEC      100        B-14                       #  TO WAIT FOR ANTENNA BOUNCE TO DIE OUT.
002592:
002593: 25,3473           45012                           CS       BIT13                                 #  REMOVE COMMAND
002594: 25,3474           00006                           EXTEND
002595: 25,3475           03012                           WAND     CHAN12
002596: 25,3476           13511                           TCF      RGOODEND
002597:
002598: 25,3477           35022        LRPOSCAN           CAF      BIT5                                  #  SET UP FOR 15 SAMPLES.
002599: 25,3500           13444                           TCF      LRPOSNXT
002600:
002601: 25,3501           01130        6SECS              DEC      600        B-14
002602:
002603:                                                                                                  #           SEQUENCES TO TERMINATE RR OPERATIONS.
002604:
002605: 25,3502           35020        ENDRADAR           CAF      BIT7                                  #  PROLOG TO CHECK RR CDU FAIL BEFORE END.
002606: 25,3503           71101                           MASK     RADMODES
002607: 25,3504           10000                           CCS      A
002608: 25,3505           13511                           TCF      RGOODEND
002609: 25,3506           13516                           TCF      RDBADEND
002610: 25,3507           45030                 -2        CS       ZERO                                  #  RGOODEND WHEN NOT UNDER WAITLIST CONTROL
002611: 25,3510           54734                           TS       RUPTAGN
002612:
002613: 25,3511           35025        RGOODEND           CAF      TWO
002614: 25,3512           04674                           TC       POSTJUMP
002615: 25,3513           17576                           CADR     GOODEND
002616:
002617: 25,3514           45030                 -2        CS       ZERO                                  #  RDBADEND WHEN NOT UNDER WAITLIST.
002618: 25,3515           54734                           TS       RUPTAGN
002619: 25,3516           35025        RDBADEND           CAF      TWO
002620: 25,3517           04674                           TC       POSTJUMP
002621: 25,3520           17573                           CADR     BADEND
002622:
002623: 25,3521     6221               BIN3               EQUALS   THREE
002624:
002625:                                                                                                  #  PROGRAM NAME_ LPS20.1 VECTOR EXTRAPOLATION AND LOS COMPUTATION
002626:                                                                                                  #  MOD. NO.  2      BY  J.D. COYNE    SDC    DATE   12-7-66
002627:
002628:
002629:                                                                                                  #  FUNCTIONAL DESCRIPTION_
002630:
002631:                                                                                                  #  1) EXTRAPOLATE THE LEM AND CSM VECTORS IN ACCORDANCE WITH THE TIME REFERED TO IN CALLER + 1.
002632:                                                                                                  #  2) COMPUTES THE LOS VECTOR TO THE CSM, CONVERTS IT TO STABLE MEMBER COORDINATES AND STORES IT IN RRTARGET.
002633:                                                                                                  #  3) COMPUTES THE MAGNITUDE OF THE LOS VECTOR AND STORES IT IN MLOSV
002634:
002635:
002636:                                                                                                  #  CALLING SEQUENCE       CALL
002637:                                                                                                  #                                LPS20.1
002638:
002639:                                                                                                  #  SUBROUTINES CALLED_
002640:
002641:                                                                                                  #  LEMPREC,CSMPREC
002642:
002643:
002644:                                                                                                  #  NORMAL EXIT_ RETURN TO CALLER + 2
002645:
002646:
002647:                                                                                                  #  ERROR EXITS_ NONE
002648:
002649:
002650:                                                                                                  #  ALARMS_ NONE
002651:
002652:
002653:                                                                                                  #  OUTPUT_
002654:
002655:                                                                                                  #  LOS VECTOR (HALF UNIT) IN SM COORDINATES STORED IN RRTARGET
002656:                                                                                                  #  MAGNITUDE OF THE LOS VECTOR (METERS SCALED B-29) STORED IN MSLOV
002657:                                                                                                  #  RRNBSW CLEARED
002658:
002659:
002660:                                                                                                  #  INITIALIZED ERASEABLE
002661:
002662:                                                                                                  #  TDEC1 MUST CONTAIN THE TIME FOR EXTRAPOLATION
002663:                                                                                                  #  SEE ORBITAL INTEGRATION ROUTINE
002664:
002665:
002666:                                                                                                  #  DEBRIS_
002667:
002668:                                                                                                  #  MPAC DESTROYED BY THIS ROUTINE
002669:
002670: 23,2104                                           BANK     23
002671: 25,2000                                           SETLOC   P20S1
002672: 25,2000                                           BANK
002673:
002674: 25,3521                                           COUNT*   $$/LPS20
002675:
002676: 25,3521           45020        LPS20.1            STQ      CALL
002677: 25,3522           03431                                    LS21X
002678: 25,3523           27051                                    LEMCONIC                              #  EXTRAPOLATE LEM
002679: 25,3524           77775                           VLOAD
002680: 25,3525           00001                                    RATT
002681: 25,3526           25105                           STOVL    LMPOS                                 #  SAVE LM POSITION B-29
002682: 25,3527           00007                                    VATT
002683: 25,3530           17435                           STODL    LMVEL                                 #  SAVE LM VELOCITY B-7
002684: 25,3531           00015                                    TAT
002685: 25,3532           34041        CSMINT             STCALL   TDEC1
002686: 25,3533           27037                                    CSMCONIC                              #   EXTRAPOLATE CSM
002687: 25,3534           52375                           VLOAD    VSU                                   #  COMPUTE RELATIVE VELOCITY V(CSM) - V(LM)
002688: 25,3535           00007                                    VATT
002689: 25,3536           03435                                    LMVEL
002690: 25,3537           76521                           MXV      VSL1
002691: 25,3540           01736                                    REFSMMAT
002692: 25,3541           27435                           STOVL    LOSVEL
002693: 25,3542           00001                                    RATT
002694: 25,3543           47051                           VSU      RTB
002695: 25,3544           01105                                    LMPOS
002696: 25,3545           21670                                    NORMUNX1
002697: 25,3546           76521                           MXV      VSL1
002698: 25,3547           01736                                    REFSMMAT                              #  CONVERT TO STABLE MEMBER
002699: 25,3550           15105                           STODL    RRTARGET
002700: 25,3551           00045                                    36D                                   #  SAVE MAGNITUDE OF LOS VECTOR FOR
002701: 25,3552           77657                           SL*
002702: 25,3553           20201                                    0,1
002703: 25,3554           03443                           STORE    MLOSV                                 #  VELOCITY CORRECTION IN DESIGNATE
002704: 25,3555           77614                           CLRGO
002705: 25,3556           00231                                    RRNBSW
002706: 25,3557           03431                                    LS21X
002707:
002708:                                                                                                  #  PROGRAM NAME_ LPS20.2 400 NM RANGE CHECK
002709:                                                                                                  #  MOD. NO. 2   BY J.D. COYNE    SDC    DATE  12-7-66
002710:
002711:
002712:                                                                                                  #  FUNCTIONAL DESCRIPTION_
002713:
002714:                                                                                                  #  COMPARES THE MAGNITUDE OF THE LOS VECTOR TO 400 NM
002715:
002716:
002717:                                                                                                  #  CALLING SEQUENCE       CALL
002718:                                                                                                  #                                LPS20.2
002719:
002720:
002721:                                                                                                  #  SUBROUTINES CALLED_ NONE
002722:
002723:
002724:                                                                                                  #  NORMAL EXIT _ RETURN TO CALLER +1, MPAC EQ 0 (RANGE 400NM OR LESS.)
002725:
002726:
002727:                                                                                                  #  ERROR EXITS _ RETURN TO CALLER +1, MPAC EQ 1 (RANGE GREATER THAN 400NM)
002728:
002729:
002730:                                                                                                  #  ALARMS_ NONE
002731:
002732:
002733:                                                                                                  #  OUTPUT_ NONE
002734:
002735:
002736:                                                                                                  #  INITIALIZED ERASEABLE_
002737:
002738:                                                                                                  #  PDL 36D MUST CONTAIN THE MAGNITUDE OF THE VECTOR
002739:                                                                                                  #  DEBRIS
002740:
002741:                                                                                                  #  MPAC DESTROYED BY THIS ROUTINE
002742:
002743: 25,2000                                           SETLOC   P20S1
002744: 25,2000                                           BANK
002745: 25,3560                                           COUNT*   $$/LPS20
002746:
002747: 25,3560           45345        LPS20.2            DLOAD    DSU
002748: 25,3561           03443                                    MLOSV                                 #  MAGNITUDE OF LOS
002749: 25,3562           13573                                    FHNM                                  #  OVER 400NM  _
002750: 25,3563           77644                           BPL
002751: 25,3564           53567                                    TOFAR
002752: 25,3565           43535                           SLOAD    RVQ
002753: 25,3566           06233                                    ZERO/SP
002754: 25,3567           43535        TOFAR              SLOAD    RVQ
002755: 25,3570           13572                                    ONE/SP
002756: 25,3571           00001        ONE/SP             DEC      1          B-14
002757:
002758: 25,3572           00026 23337  FHNM               2DEC     740798     B-29                       #  400 NAUTICAL MILES IN METERS B-20
002759:
002760:                                                                                                  #  PROGRAM NAME: LRS22.1 (DATA READ SUBROUTINE 1)
002761:                                                                                                  #  MOD. NO.: 1       BY:  P. VOLANTE  SDC           DATE:  11-15-66
002762:
002763:
002764:                                                                                                  #  FUNCTIONAL DESCRIPTION
002765:
002766:                                                                                                  #  1) READS RENDEZVOUS RADAR RANGE AND RANGE-RATE,TRUNION AND SHAFT ANGLES,THREE CDU VALUES AND TIME. CONVERTS THIS
002767:                                                                                                  #  DATA AND LEAVES IT FOR THE MEASUREMENT INCORPORATION ROUTINE (LSR22.3). CHECKS FOR THE RR DATA GOOD DISCRETE,FOR
002768:                                                                                                  #  RR REPOSITION AND RR CDU FAIL
002769:
002770:                                                                                                  #  2) COMPARES RADAR LOS WITH LOS COMPUTED FROM STATE VECTORS TO SEE IF THEY ARE WITHIN THREE DEGREES
002771:
002772:
002773:                                                                                                  #  CALLING SEQUENCE: BANKCALL FOR LRS22.1
002774:
002775:
002776:                                                                                                  #  SUBROUTINES CALLED:
002777:
002778:                                                                                                  #         RRRDOT   LPS20.1
002779:                                                                                                  #         RRRANGE  BANKCALL
002780:                                                                                                  #         RADSTALL CDULOGIC
002781:                                                                                                  #         RRNB     SMNB
002782:                                                                                                  #  NORMAL EXIT: RETURN TO CALLER+1 WITH MPAC SET TO +0
002783:
002784:
002785:                                                                                                  #  ERROR EXITS: RETURN TO CALLER+1 WITH ERROR CODE STORED IN MPAC AS FOLLOWS:
002786:
002787:                                                                                                  #               00001-ERROR EXIT 1-RR DATA NO GOOD (NO RR DATA GOOD DISCRETE OR RR CDU FAIL OR RR REPOSITION)
002788:                                                                                                  #               00002-ERROR EXIT 2-RR LOS NOT WITHIN THREE DEGREES OF LOS COMPUTED FROM STATE VECTORS
002789:
002790:
002791:                                                                                                  #  ALARMS:  521-COULD NOT READ RADAR DATA (RR DATA GOOD DISCRETE NOT PRESENT BEFORE AND AFTER READING THE RADAR)
002792:                                                                                                  #   (THIS ALARM IS ISSUED BY THE RADAREAD SUBROUTINE WHICH IS ENTERED FROM A RADARUPT)
002793:
002794:
002795:                                                                                                  #  OUTPUT: RRLOSVEC- THE RR LINE-OF-SIGHT VECTOR(USED BY LRS22.2)-A HALF-UNIT VECTOR
002796:                                                                                                  #          RM- THE RR RANGE READING(TO THE CSM) DP, IN METERS SCALED B-29(USED BY LRS22.2 AND LRS22.3)
002797:
002798:                                                                                                  #     ALL OF THE FOLLOWING OUTPUTS ARE USED BY LRS22.3:
002799:
002800:                                                                                                  #          RDOTM- THE RR RANGE-RATE READING,DP, IN METERS PER CENTISECOND, SCALED B-7
002801:                                                                                                  #          RRTRUN-RR TRUNION ANGLE,DP,IN REVOLUTIONS,SCALED B0
002802:                                                                                                  #          RRSHAFT-RR SHAFT ANGLE,DP,IN REVOLUTIONS,SCALED B0
002803:                                                                                                  #          AIG,AMG,AOG-THE CDU ANGLES,THREE SP WORDS
002804:                                                                                                  #          MKTIME-THE TIME OF THE RR READING,DP,IN CENTISECONDS
002805:
002806:
002807:                                                                                                  #  ERASABLE INITIALIZATION REQUIRED:
002808:
002809:                                                                                                  #     RNRAD,THE RADAR READ COUNTER FROM WHICH IS OBTAINED:
002810:
002811:                                                                                                  #      1)RR RANGE SCALED 9.38 FT. PER BIT ON THE LOW SCALE AND 75.04 FT. PER BIT ON THE HIGH SCALE
002812:                                                                                                  #      2)RR RANGE RATE,SCALED .6278 FT./SEC. PER BIT
002813:
002814:                                                                                                  #     THE CDU ANGLES FROM CDUX,CDUY,CDUZ AND TIME1 AND TIME2
002815:
002816:
002817:                                                                                                  #  DEBRIS:  LRS22.1X,A,L,Q,PUSHLIST
002818:
002819: 32,2671                                           BANK     32
002820: 25,2000                                           SETLOC   LRS22
002821: 25,2000                                           BANK
002822: 25,3574                                           COUNT*   $$/LRS22
002823:
002824: 25,3574           04704        LRS22.1            TC       MAKECADR
002825: 25,3575           55732                           TS       LRS22.1X
002826: 25,3576           05575                           TC       DOWNFLAG
002827: 25,3577           00120                           ADRES    RNGSCFLG
002828: 25,3600           00004                           INHINT
002829: 25,3601           35024                           CAF      BIT3
002830: 25,3602           00006                           EXTEND                                         #  GET RR RANGE SCALE
002831: 25,3603           02033                           RAND     CHAN33                                #  FROM CHANNEL 33 BIT 3
002832: 25,3604           54001                           TS       L
002833: 25,3605           45024                           CS       BIT3                                  #  AND SET IN RADMODES BIT3
002834: 25,3606           71101                           MASK     RADMODES
002835: 25,3607           60001                           AD       L
002836: 25,3610           55101                           TS       RADMODES
002837: 25,3611           00003                           RELINT
002838: 25,3612           04655        READRDOT           TC       BANKCALL
002839: 25,3613           53055                           CADR     RRRDOT                                #  READ RANGE-RATE (ONE SAMPLE)
002840: 25,3614           04655                           TC       BANKCALL
002841: 25,3615           17623                           CADR     RADSTALL                              #  WAIT FOR DATA READ COMPLETION
002842: 25,3616           13735                           TCF      EREXIT1                               #  COULD NOT READ RADAR-ERROR EXIT 1
002843:
002844: 25,3617           00004                           INHINT                                         #  NO INTERRUPTS WHILE READING TIME AND CDU
002845: 25,3620           00006                           EXTEND
002846: 25,3621           31105                           DCA      SAMPLSUM                              #  SAVE RANGE-RATE READING
002847: 25,3622           53742                           DXCH     RDOTMSAV
002848: 25,3623           00006                           EXTEND
002849: 25,3624           30034                           DCA      CDUY                                  #  SAVE ICDU ANGLES
002850: 25,3625           53445                           DXCH     AIG
002851: 25,3626           30032                           CA       CDUX
002852: 25,3627           55446                           TS       AOG
002853: 25,3630           00006                           EXTEND
002854: 25,3631           30025                           DCA      TIME2                                 #   SAVE TIME
002855: 25,3632           53727                           DXCH     MKTIME                                #  SAVE TIME OF CDY READINGS IN MPAC
002856: 25,3633           00006                           EXTEND
002857: 25,3634           30036                           DCA      CDUT                                  #  SAVE TRUNION AND SHAFT ANGLES FOR RRNB
002858: 25,3635           53113                           DXCH     TANG
002859:
002860: 25,3636           00003                           RELINT
002861: 25,3637           04655                           TC       BANKCALL
002862: 25,3640           53057                           CADR     RRRANGE                               #  READ RR RANGE (ONE SAMPLE)
002863: 25,3641           04655                           TC       BANKCALL
002864: 25,3642           17623                           CADR     RADSTALL                              #  WAIT FOR READ COMPLETE
002865: 25,3643           03731                           TC       CHEXERR                               #  CHECK FOR ERRORS DURING READ
002866: 25,3644           06014                           TC       INTPRET
002867: 25,3645           54345                           DLOAD    SL
002868: 25,3646           03742                                    RDOTMSAV                              #  CONVERT RDOT UNITS AND SCALING
002869: 25,3647           20217                                    14D                                   #  FT./SECOND PER BIT
002870: 25,3650           77675                           DMPR                                           #  START WITH READING SCALED B-28, -.6278
002871: 25,3651           13741                                    RDOTCONV                              #  END WITH METERS/CENTISECOND, B-7
002872: 25,3652           17721                           STODL    RDOTM                                 #  STORE FOR USE BY LSR22.3
002873: 25,3653           01113                                    TANG
002874: 25,3654           03744                           STORE    TANGNB
002875: 25,3655           47135                           SLOAD    RTB
002876: 25,3656           01113                                    TANG                                  #  GET TRUNION ANGLE
002877: 25,3657           21457                                    CDULOGIC                              #  CONVERT TO DP ONES COMP. IN REVOLUTIONS
002878: 25,3660           03723                           STORE    RRTRUN                                #  AND SAVE FOR TMI ROUTINE (LSR22.3)
002879: 25,3661           47135                           SLOAD    RTB
002880: 25,3662           01114                                    TANG       +1                         #  DITTO FOR SHAFT ANGLE
002881: 25,3663           21457                                    CDULOGIC
002882: 25,3664           17725                           STODL    RRSHAFT
002883: 25,3665           01105                                    SAMPLSUM
002884: 25,3666           66405                           DMP      SL2R                                  #  CONVERT UNITS AND SCALING OF RANGE
002885: 25,3667           13743                                    RANGCONV                              #  PER BIT, END WITH METERS,SCALED -29
002886: 25,3670           37731                           STCALL   RM
002887: 25,3671           46000                                    RRNB                                  #  COMPUTE RADAR LOS USING RRNB
002888: 25,3672           17734                           STODL    RRBORSIT                              #  AND SAVE
002889: 25,3673           03727                                    MKTIME
002890: 25,3674           34041                           STCALL   TDEC1                                 #  GET STATE VECTOR LOS AT TIME OF CDU READ
002891: 25,3675           53521                                    LPS20.1
002892: 25,3676           77776                           EXIT
002893: 25,3677           31444                           CA       AIG                                   #  STORE IMU CDU ANGLES AT MARKTIME
002894: 25,3700           54766                           TS       CDUSPOT                               #  IN CDUSPOT FOR TRG*SMNB
002895: 25,3701           31445                           CA       AMG
002896: 25,3702           54770                           TS       CDUSPOT    +2
002897: 25,3703           31446                           CA       AOG
002898: 25,3704           54772                           TS       CDUSPOT    +4
002899: 25,3705           06014                           TC       INTPRET
002900: 25,3706           45175                           VLOAD    CALL                                  #  LOAD VECTOR AND CALL TRANSFORMATION
002901: 25,3707           01105                                    RRTARGET
002902: 25,3710           47373                                    TRG*SMNB                              #  ROTATE LOS AT MARKTIME FROM SM TO NB.
002903: 25,3711           77641                           DOT                                            #  DOT WITH RADAR LOS TO GET ANGLE
002904: 25,3712           03734                                    RRBORSIT
002905: 25,3713           65552                           SL1      ACOS                                  #  BETWEEN THEM
002906: 25,3714           01047                           STORE    DSPTEM1                               #  STORE FOR POSSIBLE DISPLAY
002907: 25,3715           50025                           DSU      BMN                                   #  IS IT LESS THAN 3 DEGREES
002908: 25,3716           13745                                    THREEDEG
002909: 25,3717           53724                                    NORMEXIT                              #  YES-NORMAL EXIT
002910:
002911:
002912: 25,3720           77776                           EXIT                                           #  ERROR EXIT 2
002913: 25,3721           35025                           CAF      BIT2                                  #  SET ERROR CODE
002914: 25,3722           54154                           TS       MPAC
002915: 25,3723           13727                           TCF      OUT22.1
002916:
002917: 25,3724           77776        NORMEXIT           EXIT                                           #  NORMAL EXIT-SET MPAC EQUAL ZERO
002918: 25,3725           35030                           CAF      ZERO
002919: 25,3726           54154                           TS       MPAC
002920: 25,3727           31732        OUT22.1            CAE      LRS22.1X                              #  EXIT FROM LRS22.1
002921: 25,3730           04677                           TC       BANKJUMP
002922: 25,3731           30101        CHEXERR            CAE      FLAGWRD5
002923: 25,3732           75015                           MASK     RNGSCBIT
002924: 25,3733           10000                           CCS      A                                     #  CHECK IF RANGE SCALE CHANGED
002925: 25,3734           13612                           TCF      READRDOT                              #  YES-TAKE ANOTHER READING
002926:
002927: 25,3735           35026        EREXIT1            CA       BIT1                                  #  SET ERROR CODE
002928: 25,3736           54154                           TS       MPAC
002929: 25,3737           03727                           TC       OUT22.1
002930:
002931: 25,3740           70123 40702  RDOTCONV           2DEC     -.0019135344 B7                         #  CONVERTS RR RDOT READING TO M/CS AT 2(7)
002932: 25,3742           13337 10776  RANGCONV           2DEC     2.859024   B-3                        #  CONVERTS RR RANGE READING TO M. AT 2(-29
002933: 25,3744           00210 21042  THREEDEG           2DEC     .008333333                            #  THREE DEGREES,SCALED  REVS,B0
002934: 25,3746     1104               RRLOSVEC           EQUALS   RRTARGET
002935:
002936:                                                                                                  #  PROGRAM NAME - LRS22.2 (DATA READ SUBROUTINE 2)
002937:
002938:
002939:                                                                                                  #  MOD. NO. : 1       BY: P VOLANTE  SDC           DATE  4-11-67
002940:
002941:                                                                                                  #  FUNCTIONAL DESCRIPTION-
002942:


002944:                                                                                                  #     2) CHECKS IF THE RR LOS (I.E. THE RADAR BORESIGHT VECTOR) IS WITHIN 30 DEGREES OF THE LM +Z AXIS
002945:
002946:
002947:                                                                                                  #  CALLING SEQUENCE- BANKCALL FOR LRS22.2
002948:
002949:
002950:                                                                                                  #  SUBROUTINES CALLED: G+N,AUTO   SETMAXDB
002951:                                                                                                  #  NORMAL EXIT - RETURN TO CALLER WITH MPAC SET TO +0 (VIA SWRETURN)
002952:
002953:
002954:                                                                                                  #  ERROR EXIT - RETURN TO CALLER WITH MPAC SET TO 00001 -RADAR LOS NOT WITHIN 30 DEGREES OF LM +Z AXIS
002955:
002956:
002957:                                                                                                  #  ALARMS - NONE                                                            IN THE AUTO MODE
002958:
002959:
002960:                                                                                                  #  ERASABLE INITIALIZATION REQUIRED -
002961:                                                                                                  #       RRLOSVEC - THE RR LINE-OF-SIGHT VECTOR-A HALF UNIT VECTOR COMPUTED BY LRS22.1
002962:                                                                                                  #       RM - RR RANGE, METERS B-29, FROM LRS22.1
002963:                                                                                                  #       BIT 14 CHANNEL 31 -INDICATES AUTOPILOT IS IN AUTO MODE
002964:
002965:
002966:                                                                                                  #  DEBRIS -  A,L,Q MPAC -PUSHLIST AND PUSHLOC ARE NOT CHANGED BY THIS ROUTINE
002967:
002968: 25,2000                                           SETLOC   P20S1
002969: 25,2000                                           BANK
002970: 25,3746           04704        LRS22.2            TC       MAKECADR
002971: 25,3747           55732                           TS       LRS22.1X
002972: 25,3750           06014                           TC       INTPRET
002973:                                                                                                  #  CHECK IF RR LOS IS WITHIN 30 DEG OF
002974: 25,3751           65545        30DEGCHK           DLOAD    ACOS                                  #  THE SPACECRAFT +Z AXIS
002975: 25,3752           03740                                    RRBORSIT   +4                         #  BY TAKING ARCCOS OF Z-COMP. OF THE RR
002976:                                                                                                  #  LOS VECTOR,A HALF UNIT VECTOR
002977:                                                                                                  #  IN NAV BASE AXES)
002978: 25,3753           50025                           DSU      BMN
002979: 25,3754           13770                                    30DEG
002980: 25,3755           53762                                    OKEXIT                                #  NORMAL EXIT-WITHIN 30 DEG.
002981: 25,3756           77776                           EXIT                                           #  ERROR EXIT-NOT WITHIN 30 DEG.
002982: 25,3757           35026                           CAF      BIT1                                  #  SET ERROR CODE IN MPAC
002983: 25,3760           54154                           TS       MPAC
002984: 25,3761           13765                           TCF      OUT22.2
002985: 25,3762           77776        OKEXIT             EXIT                                           #  NORMAL EXIT-SET MPAC = ZERO
002986:
002987: 25,3763           35030                           CAF      ZERO
002988: 25,3764           54154                           TS       MPAC
002989: 25,3765           31732        OUT22.2            CAE      LRS22.1X
002990: 25,3766           04677                           TC       BANKJUMP
002991:
002992: 25,3767           02525 12525  30DEG              2DEC     .083333333                            #  THIRTY DEGREES,SCALED REVS,B0
002993:
002994:                                                                                                  #  PROGRAM NAME - LSR22.3                                                  DATE - 29 MAY 1967
002995:                                                                                                  #  MOD. NO 3                                                               LOG SECTION - P20-25
002996:                                                                                                  #  MOD. BY - DANFORTH                                                      ASSEMBLY LEMP20S REV 10
002997:
002998:                                                                                                  #  FUNCTIONAL DESCRIPTION
002999:
003000:                                                                                                  #  THIS ROUTINE COMPUTES THE B-VECTORS AND DELTA Q FOR EACH OF THE QUANTITIES MEASURED BY THE RENDEZVOUS
003001:                                                                                                  #  RADAR.(RANGE,RANGE RATE,SHAFT AND TRUNNION ANGLES). THE ROUTINE CALLS THE INCORP1 AND INCORP2 ROUTINES
003002:                                                                                                  #  WHICH COMPUTE THE DEVIATIONS AND CORRECT THE STATE VECTOR.
003003:
003004:                                                                                                  #  CALLING SEQUENCE
003005:                                                                                                  #  THIS ROUTINE IS PART OF P20 RENDEZVOUS NAVIGATION FOR THE LM COMPUTER O NLY. THE ROUTINE IS ENTERED FROM
003006:                                                                                                  #  R22LEM  ONLY AND RETURNS DIRECTLY TO R22LEM  FOLLOWING SUCCESSFUL INCORPORATION OF MEASURED DATA. IF THE
003007:                                                                                                  #  COMPUTED STATE VECTOR DEVIATIONS EXCEED THE MAXIMUM PERMITTED. THE ROUTINE RETURNS TO R22LEM  TO DISPLAY
003008:                                                                                                  #  THE DEVIATIONS. IF THE ASTRONAUT ACCEPTS THE DATA R22LEM  RETURNS TO    LSR22.3 TO INCORPORATE THE
003009:                                                                                                  #  DEVIATIONS INTO THE STATE VECTOR. IF THE ASTRONAUT REJECTS THE DEVIATIONS, NO MORE MEASUREMENTS ARE
003010:                                                                                                  #  PROCESSED FOR THIS MARK,I.E.,R22LEM  GETS THE NEXT MARK.
003011:
003012:
003013:                                                                                                  #  SUBROUTINES CALLED
003014:                                                                                                  #   WLINIT     LGCUPDTE     INTEGRV     INCORP1     ARCTAN
003015:                                                                                                  #   GETULC     RARARANG     INCORP2     NBSM        INTSTALL
003016:
003017:                                                                                                  #  OUTPUT
003018:                                                                                                  #   CORRECTED LM OR CSM STATE VECTOR (PERMANENT)
003019:                                                                                                  #   NUMBER OF MARKS INCORPORATED IN MARKCTR
003020:                                                                                                  #   MAGNITUDE OF POSITION DEVIATION (FOR DISPLAY) IN R22DISP METERS B-29
003021:                                                                                                  #   MAGNITUDE OF VELOCITY DEVIATION (FOR DISPLAY) IN R22DISP +2 M/CSEC B-7
003022:                                                                                                  #   UPDATED W-MATRIX
003023:
003024:
003025:                                                                                                  #  ERASABLE INITIALIZATION REQUIRED
003026:                                                                                                  #   LM AND CSM STATE VECTORS
003027:                                                                                                  #   W-MATRIX
003028:                                                                                                  #   MARK TIME IN MKTIME
003029:                                                                                                  #   RADAR RANGE IN RM METERS B-29
003030:                                                                                                  #         RANGE RATE IN RDOTM METERS/CSES B-7
003031:                                                                                                  #         SHAFT ANGLE IN RRSHAFT REVS.B0
003032:                                                                                                  #         TRUNNION ANGLE IN RRTRUN REVS. B0
003033:                                                                                                  #   GIMBAL ANGLES  INNER IN AIG
003034:                                                                                                  #                  MIDDLE IN AMG
003035:                                                                                                  #                  OUTER IN AOG
003036:                                                                                                  #   REFSMMAT
003037:                                                                                                  #   RENDWFLG
003038:                                                                                                  #   NOANGFLG
003039:                                                                                                  #   VEHUPFLG
003040:
003041:                                                                                                  #  DEBRIS
003042:                                                                                                  #   PUSHLIST--ALL
003043:                                                                                                  #   MX, MY, MZ  (VECTORS)
003044:
003045:                                                                                                  #   ULC,RXZ,SINTHETA,LGRET,RDRET,BVECTOR,W.IND,X78T
003046:
003047: 13,2161                                           BANK     13
003048: 26,2000                                           SETLOC   P20S3
003049: 26,2000                                           BANK
003050:
003051: 26,2425  E7,1433                                  EBANK=   LOSCOUNT
003052: 26,2425                                           COUNT*   $$/LSR22
003053: 26,2425           77624        LSR22.3            CALL
003054: 26,2426           11054                                    GRP2PC
003055: 26,2427           43014                           BON      SET
003056: 26,2430           04307                                    SURFFLAG                              #  ARE WE ON LUNAR SURFACE
003057: 26,2431           55134                                    LSR22.4                               #  YES
003058: 26,2432           02466                                    DMENFLG
003059: 26,2433           45014                           BOFF     CALL
003060: 26,2434           00747                                    VEHUPFLG
003061: 26,2435           54467                                    DOLEM
003062: 26,2436           27362                                    INTSTALL
003063: 26,2437           45014                           CLEAR    CALL                                  #  LM PRECISION INTEGRATION
003064: 26,2440           01674                                    VINTFLAG
003065: 26,2441           26622                                    SETIFLGS
003066: 26,2442           77624                           CALL
003067: 26,2443           55176                                    INTGRCAL
003068: 26,2444           77624                           CALL
003069: 26,2445           11054                                    GRP2PC
003070: 26,2446           77624                           CALL
003071: 26,2447           27362                                    INTSTALL
003072: 26,2450           43014                           CLEAR    BOFF
003073: 26,2451           01676                                    DIM0FLAG
003074: 26,2452           02756                                    RENDWFLG
003075: 26,2453           54457                                    NOTWCSM
003076: 26,2454           43014                           SET      SET                                   #  CSM WITH W-MATRIX INTEGRATION
003077: 26,2455           01476                                    DIM0FLAG
003078: 26,2456           01475                                    D6OR9FLG
003079: 26,2457           43014        NOTWCSM            SET      CLEAR
003080: 26,2460           01474                                    VINTFLAG
003081: 26,2461           01673                                    INTYPFLG
003082: 26,2462           45014                           SET      CALL
003083: 26,2463           01472                                    STATEFLG
003084: 26,2464           55176                                    INTGRCAL
003085: 26,2465           77650                           GOTO
003086: 26,2466           54517                                    MARKTEST
003087: 26,2467           77624        DOLEM              CALL
003088: 26,2470           27362                                    INTSTALL
003089: 26,2471           45014                           SET      CALL
003090: 26,2472           01474                                    VINTFLAG
003091: 26,2473           26622                                    SETIFLGS
003092: 26,2474           77624                           CALL
003093: 26,2475           55176                                    INTGRCAL
003094:
003095: 26,2476           77624                           CALL
003096: 26,2477           11054                                    GRP2PC
003097: 26,2500           77624                           CALL
003098: 26,2501           27362                                    INTSTALL
003099: 26,2502           43014                           CLEAR    BOFF
003100: 26,2503           01676                                    DIM0FLAG
003101: 26,2504           02756                                    RENDWFLG
003102: 26,2505           54511                                    NOTWLEM
003103: 26,2506           43014                           SET      SET                                   #  LM WITH W-MATRIX INTEGRATION
003104: 26,2507           01476                                    DIM0FLAG
003105: 26,2510           01475                                    D6OR9FLG
003106: 26,2511           43014        NOTWLEM            CLEAR    CLEAR
003107: 26,2512           01673                                    INTYPFLG
003108: 26,2513           01674                                    VINTFLAG
003109: 26,2514           45014                           SET      CALL
003110: 26,2515           01472                                    STATEFLG
003111: 26,2516           55176                                    INTGRCAL
003112: 26,2517           45014        MARKTEST           BON      CALL                                  #  HAS W-MATRIX BEEN INVALIDATED
003113: 26,2520           02716                                    RENDWFLG                              #  HAS W-MATRIX BEEN INVALIDATED
003114: 26,2521           54523                                    RANGEBQ
003115: 26,2522           55205                                    WLINIT                                #  YES - REINITIALIZE
003116:
003117: 26,2523           43174        RANGEBQ            AXT,2    BON                                   #  CLEAR X2.
003118: 26,2524           00000                                    0
003119: 26,2525           04304                                    LMOONFLG                              #  IS MOON SPHERE OF INFLUENCE
003120: 26,2526           54531                                    SETX2                                 #  YES. STORE ZERO IN SCALSHFT REGISTER
003121: 26,2527           77714                           INCR,2
003122: 26,2530           00002                                    2
003123: 26,2531           45134        SETX2              SXA,2    CALL
003124: 26,2532           03705                                    SCALSHFT                              #  0-MOON. 2-EARTH
003125: 26,2533           11054                                    GRP2PC
003126: 26,2534           77624                           CALL                                           #  BEGIN COMPUTING THE B-VECTORS, DELTAQ
003127: 26,2535           55252                                    GETULC                                #  B-VECTORS FOR RANGE
003128: 26,2536           57414                           BON      VCOMP                                 #  B0, COMP. IF LM BEING CORRECTED
003129: 26,2537           00707                                    VEHUPFLG
003130: 26,2540           54541                                    +1
003131: 26,2541           27512                           STOVL    BVECTOR
003132: 26,2542           06233                                    ZEROVECS
003133: 26,2543           03520                           STORE    BVECTOR    +6                         #  B1
003134:
003135: 26,2544           17526                           STODL    BVECTOR    +12D                       #  B2
003136: 26,2545           00045                                    36D
003137: 26,2546           44257                           SRR*     BDSU
003138: 26,2547           56174                                    2,2                                   #  SHIFT FROM EARTH/MOON SPHERE TO B-29
003139: 26,2550           03731                                    RM                                    #  RM - (MAGNITUDE RCSM-RLM)
003140: 26,2551           77657                           SLR*
003141: 26,2552           56574                                    2,2                                   #  SHIFT TO EARTH/MOON SPHERE
003142: 26,2553           17534                           STODL    DELTAQ                                #  EARTH B-29. MOON B-27
003143: 26,2554           00045                                    36D                                   #  RLC B-29/B-27
003144: 26,2555           63501                           NORM     DSQ                                   #  NORMALIZE AND SQUARE
003145: 26,2556           00047                                    X1
003146: 26,2557           53605                           DMP      SR*
003147: 26,2560           02365                                    RANGEVAR                              #  MULTIPLY BY RANGEVAR(B12) THEN
003148: 26,2561           20577                                    0          -2,1                       #  UNNORMALIZE
003149: 26,2562           53657                           SR*      SR*
003150: 26,2563           20601                                    0,1
003151: 26,2564           57176                                    0,2
003152: 26,2565           47057                           SR*      RTB
003153: 26,2566           57176                                    0,2
003154: 26,2567           21531                                    TPMODE
003155: 26,2570           02707                           STORE    VARIANCE                              #  B-40
003156: 26,2571           76276                           DCOMP    TAD
003157: 26,2572           02371                                    RVARMIN                               #    B-40
003158: 26,2573           72240                           BMN      TLOAD
003159: 26,2574           54577                                    QOK
003160: 26,2575           02371                                    RVARMIN                               #    B-40
003161: 26,2576           02707                           STORE    VARIANCE
003162: 26,2577           77624        QOK                CALL
003163: 26,2600           55321                                    LGCUPDTE
003164:
003165: 26,2601           77624                           CALL
003166: 26,2602           11054                                    GRP2PC
003167: 26,2603           77624                           CALL                                           #  B-VECTOR,DELTAQ FOR RANGE RATE
003168: 26,2604           55252                                    GETULC
003169: 26,2605           53725                           PDDL     SR*                                   #  GET RLC SCALED B-29/B-27
003170: 26,2606           00045                                    36D                                   #  AND SHIFT TO B-23
003171: 26,2607           57205                                    0          -7,2
003172: 26,2610           24045                           STOVL    36D                                   #  THEN STORE BACK IN 36D
003173: 26,2611           57414                           BON      VCOMP                                 #  B1, COMP. IF LM BEING CORRECTED
003174: 26,2612           00707                                    VEHUPFLG
003175: 26,2613           54614                                    +1
003176: 26,2614           77761                           VXSC
003177: 26,2615           00045                                    36D                                   #  B1 = RLC (B-24/B-22)
003178: 26,2616           27520                           STOVL    BVECTOR    +6
003179: 26,2617           01653                                    NUVLEM
003180: 26,2620           53257                           VSR*     VAD
003181: 26,2621           57170                                    6,2                                   #  SHIFT FOR EARTH/MOON SPHERE
003182: 26,2622           01667                                    VCVLEM                                #  EARTH B-7. MOON B-5
003183: 26,2623           53715                           PDVL     VSR*                                  #  VL TO PD6
003184: 26,2624           01601                                    NUVCSM
003185:
003186: 26,2625           57170                                    6,2                                   #  SHIFT FOR EARTH/MOON SPHERE
003187: 26,2626           52255                           VAD      VSU
003188: 26,2627           01615                                    VCVCSM
003189: 26,2630           50315                           PDVL     DOT                                   #  VC - VL = VLC TO PD6
003190: 26,2631           00001                                    0
003191: 26,2632           00007                                    6
003192: 26,2633           53606                           PUSH     SRR*                                  #  RDOT B-8/B-6 TO PD12
003193: 26,2634           56174                                    2,2                                   #  SHIFT FROM EARTH/MOON SPHERE TO B-8
003194: 26,2635           57316                           DSQ      DMPR                                  #  RDOT**2 B-16 X RATEVAR B12
003195: 26,2636           02367                                    RATEVAR
003196: 26,2637           41275                           DMPR     DMP
003197: 26,2640           00045                                    36D
003198: 26,2641           00045                                    36D
003199: 26,2642           47112                           VSL4     RTB
003200: 26,2643           21531                                    TPMODE
003201: 26,2644           02707                           STORE    VARIANCE
003202: 26,2645           63545                           DLOAD    DSQ
003203: 26,2646           00045                                    36D
003204: 26,2647           47005                           DMP      RTB
003205: 26,2650           02374                                    VVARMIN
003206: 26,2651           21531                                    TPMODE
003207: 26,2652           00037                           STORE    30D
003208: 26,2653           76276                           DCOMP    TAD
003209: 26,2654           02707                                    VARIANCE
003210: 26,2655           72244                           BPL      TLOAD
003211: 26,2656           54661                                    +3
003212: 26,2657           00037                                    30D
003213: 26,2660           02707                           STORE    VARIANCE
003214: 26,2661           60545        VOK                DLOAD    SR2                                   #  RDOT(PD12) FROM B-8/B-6
003215: 26,2662           53725                           PDDL     SLR*                                  #  TO B-10/B-8
003216: 26,2663           03721                                    RDOTM                                 #  SHIFT TO EARTH/MOON SPHERE
003217: 26,2664           56577                                    0          -1,2                       #  B-7 TO B-10/B-8
003218: 26,2665           77625                           DSU
003219: 26,2666           77675                           DMPR
003220: 26,2667           00045                                    36D
003221: 26,2670           27534                           STOVL    DELTAQ                                #    B-33
003222: 26,2671           00001                                    0                                     #  NOW GET B0
003223: 26,2672           47235                           VXV      VXV                                   #  (ULC X VLC) X ULC
003224: 26,2673           57414                           BON      VCOMP                                 #  B0, COMP. IF LM BEING CORRECTED
003225: 26,2674           00707                                    VEHUPFLG
003226: 26,2675           54676                                    +1
003227: 26,2676           53604                           BOVB     VSR*
003228: 26,2677           57702                                    TCDANZIG
003229: 26,2700           57203                                    0          -5,2                       #  SCALED B-5
003230: 26,2701           52000                           BOV      GOTO
003231: 26,2702           54704                                    VOK1
003232: 26,2703           54706                                    VOK2
003233: 26,2704           77775        VOK1               VLOAD
003234: 26,2705           06233                                    ZEROVECS
003235: 26,2706           27512        VOK2               STOVL    BVECTOR
003236: 26,2707           06233                                    ZEROVECS
003237: 26,2710           37526                           STCALL   BVECTOR    +12D
003238: 26,2711           55321                                    LGCUPDTE
003239:
003240: 26,2712           77624                           CALL
003241: 26,2713           11054                                    GRP2PC
003242: 26,2714           77414                           BON      EXIT                                  #  ARE ANGLES TO BE DONE
003243: 26,2715           04307                                    SURFFLAG
003244: 26,2716           55132                                    RENDEND                               #  NO
003245: 26,2717  E7,1444                                  EBANK=   AIG
003246: 26,2717           33251        MXMYMZ             CAF      AIGBANK
003247: 26,2720           54006                           TS       BBANK
003248: 26,2721           31444                           CA       AIG                                   #  YES, COMPUTE  MX, MY, MZ
003249: 26,2722           54766                           TS       CDUSPOT
003250: 26,2723           31445                           CA       AMG
003251: 26,2724           54770                           TS       CDUSPOT    +2
003252: 26,2725           31446                           CA       AOG
003253: 26,2726           54772                           TS       CDUSPOT    +4                         #  GIMBL ANGLES NOW IN CDUSPOT FOR TRG*NBSM
003254: 26,2727           06014                           TC       INTPRET
003255: 26,2730           45175                           VLOAD    CALL
003256: 26,2731           06231                                    UNITX
003257: 26,2732           47406                                    TRG*NBSM
003258: 26,2733           76505                           VXM      VSL1
003259: 26,2734           01736                                    REFSMMAT
003260: 26,2735           27664                           STOVL    MX
003261: 26,2736           06227                                    UNITY
003262:
003263: 26,2737           77624                           CALL
003264: 26,2740           47415                                    *NBSM*
003265: 26,2741           76505                           VXM      VSL1
003266: 26,2742           01736                                    REFSMMAT
003267: 26,2743           27672                           STOVL    MY
003268: 26,2744           06225                                    UNITZ
003269: 26,2745           77624                           CALL
003270: 26,2746           47415                                    *NBSM*
003271: 26,2747           76505                           VXM      VSL1
003272: 26,2750           01736                                    REFSMMAT
003273: 26,2751           37700        SHAFTBQ            STCALL   MZ
003274: 26,2752           55301                                    RADARANG
003275: 26,2753           77624                           CALL
003276: 26,2754           11054                                    GRP2PC
003277: 26,2755           50375                           VLOAD    DOT                                   #  COMPUTE DELTAQ,B VECTORS FOR SHAFT ANG.
003278: 26,2756           03711                                    ULC
003279: 26,2757           03664                                    MX
003280: 26,2760           77752                           SL1
003281: 26,2761           24023                           STOVL    SINTH                                 #  18D
003282: 26,2762           03711                                    ULC
003283: 26,2763           72441                           DOT      SL1
003284: 26,2764           03700                                    MZ
003285: 26,2765           34021                           STCALL   COSTH                                 #  16D
003286: 26,2766           26464                                    ARCTAN
003287: 26,2767           41221                           BDSU     DMP
003288: 26,2770           03725                                    RRSHAFT
003289: 26,2771           15361                                    2PI/8
003290: 26,2772           41472                           SL3R     PUSH
003291: 26,2773           52545                           DLOAD    SL3
003292: 26,2774           01701                                    X789
003293: 26,2775           44257                           SRR*     BDSU                                  #  SHIFT FROM -5/-3 TO B0
003294: 26,2776           56176                                    0,2
003295: 26,2777           53605                           DMP      SRR*
003296: 26,3000           03707                                    RXZ
003297: 26,3001           21601                                    0,1                                   #  SHIFT TO EARTH/MOON SPHERE
003298: 26,3002           27534                           STOVL    DELTAQ                                #  EARTH B-29. MOON B-27
003299: 26,3003           03711                                    ULC
003300: 26,3004           76435                           VXV      VSL1
003301: 26,3005           03672                                    MY
003302: 26,3006           77656                           UNIT
003303: 26,3007           57414                           BOFF     VCOMP                                 #  B0, COMP. IF CSM BEING CORRECTED
003304: 26,3010           00747                                    VEHUPFLG
003305: 26,3011           55012                                    +1
003306: 26,3012           27512                           STOVL    BVECTOR
003307: 26,3013           06233                                    ZEROVECS
003308: 26,3014           03520                           STORE    BVECTOR    +6
003309: 26,3015           17526                           STODL    BVECTOR    +12D
003310: 26,3016           03707                                    RXZ
003311: 26,3017           53657                           SR*      SRR*                                  #  SHIFT FROM EARTH/MOON SPHERE TO B-25
003312: 26,3020           20577                                    0          -2,1
003313:
003314: 26,3021           56176                                    0,2
003315: 26,3022           03526                           STORE    BVECTOR    +12D
003316: 26,3023           77735                           SLOAD
003317: 26,3024           02007                                    SHAFTVAR
003318: 26,3025           41215                           DAD      DMP
003319: 26,3026           15356                                    IMUVAR                                #  RAD**2 B12
003320: 26,3027           03707                                    RXZ
003321: 26,3030           41257                           SRR*     DMP
003322: 26,3031           21601                                    0,1                                   #  SHIFT TO EARTH/MOON SPHERE
003323: 26,3032           03707                                    RXZ
003324: 26,3033           53657                           SR*      SR*
003325: 26,3034           20577                                    0          -2,1
003326: 26,3035           57176                                    0,2
003327: 26,3036           47057                           SR*      RTB
003328: 26,3037           57176                                    0,2
003329: 26,3040           21531                                    TPMODE                                #  STORE VARIANCE TRIPLE PRECISION
003330: 26,3041           36707                           STCALL   VARIANCE                              #  B-40
003331: 26,3042           55321                                    LGCUPDTE
003332:
003333: 26,3043           77624                           CALL
003334: 26,3044           11054                                    GRP2PC
003335: 26,3045           77624        TRUNBQ             CALL
003336: 26,3046           55301                                    RADARANG
003337: 26,3047           77624                           CALL
003338: 26,3050           11054                                    GRP2PC
003339: 26,3051           47375                           VLOAD    VXV
003340: 26,3052           03711                                    ULC
003341: 26,3053           03672                                    MY
003342: 26,3054           47372                           VSL1     VXV
003343: 26,3055           03711                                    ULC
003344: 26,3056           77772                           VSL1                                           #  (ULC X MY) X ULC
003345: 26,3057           57414                           BOFF     VCOMP                                 #  B0, COMP. IF CSM BEING CORRECTED
003346: 26,3060           00747                                    VEHUPFLG
003347: 26,3061           55062                                    +1
003348: 26,3062           27512                           STOVL    BVECTOR
003349: 26,3063           06233                                    ZEROVECS
003350: 26,3064           03520                           STORE    BVECTOR    +6
003351: 26,3065           17526                           STODL    BVECTOR    +12D
003352: 26,3066           03707                                    RXZ
003353: 26,3067           53657                           SR*      SRR*                                  #  SHIFT FROM EARTH/MOON SPHERE TO B-25
003354: 26,3070           20577                                    0          -2,1
003355: 26,3071           56176                                    0,2
003356: 26,3072           03530                           STORE    BVECTOR    +14D
003357: 26,3073           77735                           SLOAD
003358: 26,3074           02010                                    TRUNVAR
003359: 26,3075           41215                           DAD      DMP
003360: 26,3076           15356                                    IMUVAR
003361: 26,3077           03707                                    RXZ
003362: 26,3100           41257                           SRR*     DMP
003363: 26,3101           21601                                    0,1                                   #  SHIFT TO EARTH/MOON SPHERE
003364:
003365: 26,3102           03707                                    RXZ
003366: 26,3103           53657                           SR*      SR*
003367: 26,3104           20577                                    0          -2,1
003368: 26,3105           57176                                    0,2
003369: 26,3106           47057                           SR*      RTB
003370: 26,3107           57176                                    0,2
003371: 26,3110           21531                                    TPMODE                                #  STORE VARIANCE TRIPLE PRECISION
003372: 26,3111           16707                           STODL    VARIANCE
003373: 26,3112           03717                                    SINTHETA
003374: 26,3113           44336                           ASIN     BDSU                                  #  SIN THETA IN PD6
003375: 26,3114           03723                                    RRTRUN
003376: 26,3115           56405                           DMP      SL3R
003377: 26,3116           15361                                    2PI/8
003378: 26,3117           52525                           PDDL     SL3
003379: 26,3120           01703                                    X789       +2
003380: 26,3121           44257                           SRR*     BDSU                                  #  SHIFT FROM -5/-3 TO B0
003381: 26,3122           56176                                    0,2
003382: 26,3123           53605                           DMP      SRR*
003383: 26,3124           03707                                    RXZ
003384: 26,3125           21601                                    0,1
003385: 26,3126           37534                           STCALL   DELTAQ                                #  EARTH B-29. MOON B-27
003386: 26,3127           55321                                    LGCUPDTE
003387: 26,3130           77624                           CALL
003388: 26,3131           11054                                    GRP2PC
003389: 26,3132           77650        RENDEND            GOTO
003390: 26,3133           50554                                    R22LEM93
003391:                                                                                                  #  FUNCTIONAL DESCRIPTION
003392:
003393:                                                                                                  #  LSR22.4 IS THE ENTRY TO PERFORM LUNAR SURFACE NAVIGATION FOR THE LM
003394:                                                                                                  #  COMPUTER ONLY. THIS ROUTINE COMPUTES THE B-VECTORS AND DELTA Q FOR RANGE
003395:                                                                                                  #  AND RANGE RATE MEASURED BY THE RENDEZVOUS RADAR
003396:
003397:                                                                                                  #  SUBROUTINES CALLED
003398:                                                                                                  #   INSTALL   LGCUPDTE  INCORP1   RP-TO-R
003399:                                                                                                  #   INTEGRV   GETULC    INCORP2
003400:
003401:                                                                                                  #  OUTPUT
003402:                                                                                                  #   CORRECTED CSM STATE VECTOR (PERMANENT)
003403:                                                                                                  #   NUMBER OF MARKS INCORPORATED IN MARKCTR
003404:                                                                                                  #   MAGNITUDE OF POSITION DEVIATION (FOR DISPLAY) IN R22DISP METERS B-29
003405:                                                                                                  #   MAGNITUDE OF VELOCITY DEVIATION (FOR DISPLAY) IN R22DISP +2 M/CSEC B-7
003406:                                                                                                  #   UPDATED W-MATRIX
003407:
003408:                                                                                                  #  ERASABLE INITIALIZATION REQUIRED
003409:                                                                                                  #   LM AND CSM STATE VECTORS
003410:                                                                                                  #   W-MATRIX
003411:                                                                                                  #   MARK TIME IN MKTIME
003412:                                                                                                  #   RADAR RANGE IN RM METERS B-29
003413:                                                                                                  #         RANGE RATE IN RDOTM METERS/CSEC B-7
003414:                                                                                                  #   VEHUPFLG
003415:
003416: 26,3134           77624        LSR22.4            CALL
003417: 26,3135           27362                                    INTSTALL
003418: 26,3136           43014                           SET      CLEAR
003419: 26,3137           01472                                    STATEFLG
003420: 26,3140           01674                                    VINTFLAG                              #  CALL TO GET LM POS + VEL IN REF COORD.
003421: 26,3141           77624                           CALL
003422: 26,3142           55176                                    INTGRCAL
003423: 26,3143           77624                           CALL
003424: 26,3144           11054                                    GRP2PC
003425: 26,3145           45014                           CLEAR    CALL
003426: 26,3146           02666                                    DMENFLG                               #  SET MATRIX SIZE TO 6X6 FOR INCORP
003427: 26,3147           27362                                    INTSTALL
003428: 26,3150           46145                           DLOAD    BHIZ                                  #  IS THIS FIRST TIME THROUGH
003429: 26,3151           03450                                    MARKCTR
003430: 26,3152           55165                                    INITWMX6                              #  YES. INITIALIZE 6X6 W-MATRIX
003431: 26,3153           43014                           CLEAR    SET
003432: 26,3154           01675                                    D6OR9FLG
003433: 26,3155           01476                                    DIM0FLAG
003434: 26,3156           43014                           SET      CLEAR
003435: 26,3157           01474                                    VINTFLAG
003436: 26,3160           01673                                    INTYPFLG
003437: 26,3161           77624                           CALL
003438: 26,3162           55176                                    INTGRCAL
003439: 26,3163           77650                           GOTO
003440: 26,3164           54523                                    RANGEBQ
003441:
003442: 26,3165           77624        INITWMX6           CALL
003443: 26,3166           55205                                    WLINIT                                #  INITIALIZE W-MATRIX
003444: 26,3167           45014                           SET      CALL
003445: 26,3170           01474                                    VINTFLAG
003446: 26,3171           26622                                    SETIFLGS
003447: 26,3172           77624                           CALL
003448: 26,3173           55176                                    INTGRCAL
003449: 26,3174           77650                           GOTO
003450: 26,3175           54523                                    RANGEBQ
003451:
003452:                                                                                                  #  THIS ROUTINE CLEARS RFINAL (DP) AND CALLS INTEGRV
003453:
003454: 26,3176           71220        INTGRCAL           STQ      DLOAD
003455: 26,3177           03662                                    IGRET
003456: 26,3200           03727                                    MKTIME
003457: 26,3201           34041                           STCALL   TDEC1
003458: 26,3202           27105                                    INTEGRV
003459: 26,3203           77650                           GOTO
003460: 26,3204           03662                                    IGRET
003461:
003462:                                                                                                  #  THIS ROUTINE INITIALIZES THE W-MATRIX BY ZEROING ALL W THEN SETTING
003463:                                                                                                  #  DIAGONAL ELEMENTS TO INITIAL STORED VALUES.
003464:
003465: 26,3205  E5,1400                                  EBANK=   W
003466:
003467: 26,3205           77776        WLINIT             EXIT
003468: 26,3206           33250                           CAF      WBANK
003469: 26,3207           54006                           TS       BBANK
003470: 26,3210           33357                           CAF      WSIZE
003471: 26,3211           55257                           TS       W.IND
003472: 26,3212           35030                           CAF      ZERO
003473: 26,3213           51257                           INDEX    W.IND
003474: 26,3214           55400                           TS       W
003475: 26,3215           11257                           CCS      W.IND
003476: 26,3216           03211                           TC       -5
003477: 26,3217           33251                           CAF      AIGBANK                               #  RESTORE EBANK 7
003478: 26,3220           54006                           TS       BBANK
003479: 26,3221           06014                           TC       INTPRET
003480: 26,3222           54335                           SLOAD    SR                                    #  SHIFT TO B-19 SCALE
003481: 26,3223           02001                                    WRENDPOS
003482: 26,3224           20606                                    5
003483: 26,3225           02401                           STORE    W
003484: 26,3226           02411                           STORE    W          +8D
003485: 26,3227           02421                           STORE    W          +16D
003486: 26,3230           77735                           SLOAD
003487: 26,3231           02002                                    WRENDVEL
003488: 26,3232           02511                           STORE    W          +72D
003489: 26,3233           02521                           STORE    W          +80D
003490: 26,3234           02531                           STORE    W          +88D
003491: 26,3235           77735                           SLOAD
003492: 26,3236           02003                                    WSHAFT
003493: 26,3237           02621                           STORE    W          +144D
003494: 26,3240           77735                           SLOAD
003495: 26,3241           02004                                    WTRUN
003496: 26,3242           02631                           STORE    W          +152D
003497: 26,3243           66214                           SET      SSP                                   #  SET RENDWFLG - W-MATRIX VALID
003498: 26,3244           02476                                    RENDWFLG
003499: 26,3245           03450                                    MARKCTR                               #  SET MARK COUNTER EQUAL ZERO
003500: 26,3246           00000                                    0
003501: 26,3247           77616                           RVQ
003502:
003503: 26,3250  E5,1400                                  EBANK=   W
003504:
003505: 26,3250           54065        WBANK              BBCON    WLINIT
003506: 26,3251  E7,1444                                  EBANK=   AIG
003507: 26,3251           54067        AIGBANK            BBCON    LSR22.3
003508:
003509:                                                                                                  #  GETULC
003510:
003511:                                                                                                  #  THIS SUBROUTINE COMPUTES THE RELATIVE POSITION VECTOR BETWEEN THE CSM
003512:                                                                                                  #  AND THE LM, LEAVING THE UNIT VECTOR IN THE PUSHLIST AND MPAC AND THE
003513:                                                                                                  #  MAGNITUDE IN 36D.
003514:
003515: 26,3252           77201        GETULC             SETPD    VLOAD
003516: 26,3253           00001                                    0
003517: 26,3254           01645                                    DELTALEM
003518: 26,3255           77754                           LXA,2
003519: 26,3256           03705                                    SCALSHFT                              #  LOAD X2 WITH SCALE SHIFT
003520: 26,3257           53257                           VSR*     VAD
003521: 26,3260           57165                                    9D,2                                  #  SHIFT FOR EARTH/MOON SPHERE
003522: 26,3261           01661                                    RCVLEM
003523: 26,3262           53715                           PDVL     VSR*
003524: 26,3263           01573                                    DELTACSM
003525: 26,3264           57165                                    9D,2                                  #  SHIFT FOR EARTH/MOON SPHERE
003526: 26,3265           52255                           VAD      VSU
003527: 26,3266           01607                                    RCVCSM
003528: 26,3267           41434                           RTB      PUSH                                  #  USE NORMUNIT TO PRESERVE ACCURACY
003529: 26,3270           21670                                    NORMUNX1
003530: 26,3271           17711                           STODL    ULC
003531: 26,3272           00045                                    36D
003532: 26,3273           77657                           SL*                                            #  ADJUST MAGNITUDE FROM NORMUNIT
003533: 26,3274           20201                                    0,1
003534: 26,3275           24045                           STOVL    36D                                   #  ULC IN PD0 AND MPAC,RLC IN 36D
003535: 26,3276           03711                                    ULC
003536: 26,3277           77616                           RVQ
003537:
003538: 26,3300           43406                           PUSH     RVQ
003539:
003540:                                                                                                  #  RADARANG
003541:
003542:                                                                                                  #  THIS SUBROUTINE COMPUTES SINTHETA = -ULC DOT MY
003543:                                                                                                  #  RXZ = (SQRT (1-SINTHETA**2))RLC
003544:                                                                                                  #  OUTPUT
003545:                                                                                                  #   ULC IN ULC, PD0
003546:                                                                                                  #   RLC IN PD36D
003547:                                                                                                  #   SIN THETA IN SINTHETA AND PD6
003548:                                                                                                  #   RXZ NORM IN RXZ (N IN X1)
003549: 26,3301           45020        RADARANG           STQ      CALL
003550: 26,3302           03662                                    RDRET
003551: 26,3303           55252                                    GETULC
003552: 26,3304           50276                           VCOMP    DOT
003553: 26,3305           03672                                    MY
003554: 26,3306           41572                           SL1R     PUSH                                  #  SIN THETA TO PD6
003555: 26,3307           03717                           STORE    SINTHETA
003556: 26,3310           44316                           DSQ      BDSU
003557: 26,3311           06223                                    DP1/4TH                               #  1 - (SIN THETA)**2
003558:
003559: 26,3312           41366                           SQRT     DMP
003560: 26,3313           00045                                    36D
003561: 26,3314           60352                           SL1      NORM
003562: 26,3315           00047                                    X1                                    #  SET SHIFT COUNTER IN X1
003563: 26,3316           03707                           STORE    RXZ
003564: 26,3317           77650                           GOTO                                           #  EXIT
003565: 26,3320           03662                                    RDRET
003566: 26,3321           45020        LGCUPDTE           STQ      CALL
003567: 26,3322           03662                                    LGRET
003568: 26,3323           46242                                    INCORP1
003569: 26,3324           51575                           VLOAD    ABVAL
003570: 26,3325           02673                                    DELTAX     +6
003571: 26,3326           53754                           LXA,2    SRR*
003572: 26,3327           03705                                    SCALSHFT                              #  0 - MOON.  2 - EARTH
003573: 26,3330           56174                                    2,2                                   #  SET VEL DISPLAY TO B-7
003574: 26,3331           25051                           STOVL    R22DISP    +2
003575: 26,3332           02665                                    DELTAX
003576: 26,3333           53646                           ABVAL    SRR*
003577: 26,3334           56174                                    2,2                                   #  SET POS DISPLAY TO B-29
003578: 26,3335           01047                           STORE    R22DISP
003579: 26,3336           54335                           SLOAD    SR
003580: 26,3337           02005                                    RMAX
003581: 26,3340           20613                                    10D
003582: 26,3341           50025                           DSU      BMN
003583: 26,3342           01047                                    R22DISP
003584: 26,3343           50556                                    R22LEM96                              #  GO DISPLAY
003585: 26,3344           45335                           SLOAD    DSU
003586: 26,3345           02006                                    VMAX
003587: 26,3346           01051                                    R22DISP    +2                         #  VMAX MINUS VEL. DEVIATION
003588: 26,3347           77640                           BMN
003589: 26,3350           50556                                    R22LEM96                              #  GO DISPLAY
003590: 26,3351           77624        ASTOK              CALL
003591: 26,3352           46452                                    INCORP2
003592: 26,3353           77650                           GOTO
003593: 26,3354           03662                                    LGRET
003594: 26,3355           00103 03370  IMUVAR             2DEC     E-6        B12                        #  RAD**2
003595:
003596: 26,3357           00241        WSIZE              DEC      161        B-14
003597: 26,3360           31103 36652  2PI/8              2DEC     3.141592653 B-2
003598: 26,3362  E7,1433                                  EBANK=   LOSCOUNT
003599:
003600:                                                                                                  #  PROGRAM NAME LRS24.1   RR SEARCH ROUTINE
003601:                                                                                                  #  MOD NO  0        BY  P VOLANTE  SDC          DATE 1-15-67
003602:
003603:
003604:                                                                                                  #  FUNCTIONAL DESCRIPTION
003605:
003606:                                                                                                  #  DRIVES THE RENDEZVOUS RADAR IN A HEXAGONAL SEARCH PATTERN ABOUT THE LOS TO THE CSM (COMPUTED FROM THE CSM AND LM
003607:                                                                                                  #  STATE VECTORS) CHECKING FOR THE DATA GOOD DISCRETE AND MONITORING THE ANGLE BETWEEN THE RADAR BORESIGHT AND THE
003608:                                                                                                  #  LM +Z AXIS. IF THIS ANGLE EXCEEDS 30 DEGREES THE PREFERRED TRACKING ATTITUDE ROUTINE IS CALLED TO PERFORM AN
003609:                                                                                                  #  ATTITUDE MANEUVER.
003610:
003611:
003612:                                                                                                  #  CALLING SEQUENCE - BANKCALL FOR LRS24.1
003613:
003614:
003615:                                                                                                  #  SUBROUTINES CALLED
003616:
003617:                                                                                                  #        LEMCONIC      R61LEM
003618:                                                                                                  #        CSMCONIC      RRDESSM
003619:                                                                                                  #        JOBDELAY      FLAGDOWN
003620:                                                                                                  #        WAITLIST      FLAGUP
003621:                                                                                                  #        RRNB          BANKCALL
003622:
003623:
003624:                                                                                                  #  EXIT -  TO ENDOFJOB WHEN THE SEARCH FLAG (SRCHOPT) IS NOT SET
003625:
003626:
003627:                                                                                                  #  OUTPUT
003628:
003629:                                                                                                  #      DATAGOOD (SP)-FOR DISPLAY IN R1- 00000 INDICATES NO LOCKON
003630:                                                                                                  #                                       11111 INDICATES LOCKON ACHIEVED
003631:                                                                                                  #      OMEGAD   (SP)-FOR DISPLAY IN R2- ANGLE BETWEEN RR BORESIGHT VECTOR AND THE SPACECRAFT +Z AXIS
003632:
003633:                                                                                                  #  ERASABLE INITIALIZATION REQUIRED
003634:                                                                                                  #     SEARCH FLAG MUST BE SET
003635:                                                                                                  #     LM AND CSM STATE VECTORS AND REFSMMAT MATRIX
003636:                                                                                                  #  DEBRIS
003637:
003638:                                                                                                  #     RLMSRCH      UXVECT
003639:                                                                                                  #     VXRLM        UYVECT
003640:                                                                                                  #     LOSDESRD     NSRCHPNT
003641:                                                                                                  #     DATAGOOD     OMEGAD
003642:                                                                                                  #     MPAC         PUSHLIST
003643:
003644: 26,3362                                           COUNT*   $$/LRS24
003645: 26,3362           35030        LRS24.1            CAF      ZERO
003646: 26,3363           55723                           TS       NSRCHPNT                              #  SET SEARCH PATTERN POINT COUNTER TO ZERO
003647: 26,3364           35011        CHKSRCH            CAF      BIT14                                 #  ISSUE AUTO TRACK ENABLE TO RADAR
003648: 26,3365           00006                           EXTEND
003649:
003650: 26,3366           05012                           WOR      CHAN12
003651: 26,3367           35011                           CAF      SRCHOBIT                              #  CHECK IF SEARCH STILL REQUESTED
003652: 26,3370           70076                           MASK     FLAGWRD2                              #  (SRCHOPT FLAG SET)
003653: 26,3371           00006                           EXTEND
003654: 26,3372           15225                           BZF      ENDOFJOB                              #  NO-TERMINATE JOB
003655:
003656: 26,3373           35011                           CAF      MANUFBIT
003657: 26,3374           70103                           MASK     FLAGWRD7
003658: 26,3375           10000                           CCS      A
003659: 26,3376           05225                           TC       ENDOFJOB
003660:
003661: 26,3377           33645                           CAF      6SECONDS                              #  SCHEDULE TASK TO DRIVE RADAR TO NEXT PT.
003662: 26,3400           00004                           INHINT
003663: 26,3401           05252                           TC       WAITLIST                              #  IN 6 SECONDS
003664: 26,3402  E7,1433                                  EBANK=   LOSCOUNT
003665: 26,3402           03575 54067                     2CADR    CALLDGCH
003666: 26,3404           00003                           RELINT
003667: 26,3405           41101                           CS       RADMODES                              #  IS REMODE IN PROGRESS
003668: 26,3406           75011                           MASK     BIT14                                 #  (BIT 14 RADMODES = 1)
003669: 26,3407           00006                           EXTEND
003670: 26,3410           15225                           BZF      ENDOFJOB                              #  YES- WAIT SIX SECONDS
003671: 26,3411           06014                           TC       INTPRET
003672:
003673: 26,3412           77634                           RTB
003674: 26,3413           21454                                    LOADTIME
003675: 26,3414           34041        LRS24.11           STCALL   TDEC1
003676: 26,3415           27051                                    LEMCONIC                              #  EXTRAPOLATE LM STATE VECTOR
003677: 26,3416           77775                           VLOAD
003678: 26,3417           00001                                    RATT
003679: 26,3420           27663                           STOVL    RLMSRCH                               #  SAVE LEM POSITION
003680: 26,3421           00007                                    VATT
003681: 26,3422           17725                           STODL    SAVLEMV                               #  SAVE LEM VELOCITY
003682: 26,3423           00015                                    TAT
003683: 26,3424           34041                           STCALL   TDEC1                                 #  EXTRAPOLATE CSM STATE VECTOR
003684: 26,3425           27037                                    CSMCONIC                              #  EXTRAPOLATE CSM STATE VECTOR
003685: 26,3426           52375                           VLOAD    VSU                                   #  LOS VECTOR = R(CSM)-R(LM)
003686: 26,3427           00001                                    RATT
003687: 26,3430           03663                                    RLMSRCH
003688: 26,3431           77656                           UNIT
003689: 26,3432           27677                           STOVL    LOSDESRD                              #  STORE DESIRED LOS
003690: 26,3433           00007                                    VATT                                  #  COMPUTE UNIT(V(CM) CROSS R(CM))
003691: 26,3434           47256                           UNIT     VXV
003692: 26,3435           00001                                    RATT
003693: 26,3436           77656                           UNIT
003694: 26,3437           03671                           STORE    VXRCM
003695: 26,3440           52375                           VLOAD    VSU
003696: 26,3441           00007                                    VATT
003697: 26,3442           03725                                    SAVLEMV
003698: 26,3443           76521                           MXV      VSL1                                  #  CONVERT FROM REFERENCE TO STABLE MEMBER
003699: 26,3444           01736                                    REFSMMAT
003700: 26,3445           03725                           STORE    SAVLEMV                               #  VLC = V(CSM) - V(LM)
003701: 26,3446           53135                           SLOAD    BZE                                   #  CHECK IF N=0
003702: 26,3447           03724                                    NSRCHPNT
003703:
003704: 26,3450           55570                                    DESGLOS                               #  YES-DESIGNATE ALONG LOS
003705: 26,3451           53025                           DSU      BZE                                   #  IS N=1
003706: 26,3452           15643                                    ONEOCT                                #  YES-CALCULATE X AND Y AXES OF
003707: 26,3453           55555                                    CALCXY                                #  SEARCH PATTERN COORDINATE SYSTEM
003708: 26,3454           77775                           VLOAD                                          #  NO-ROTATE X-Y AXES TO NEXT SEARCH POINT
003709: 26,3455           03705                                    UXVECT
003710: 26,3456           24015                           STOVL    UXVECTPR                              #  SAVE ORIGINAL X AND Y VECTORS
003711: 26,3457           03713                                    UYVECT                                #  UXPRIME = ORIGINAL UX
003712: 26,3460           00023                           STORE    UYVECTPR                              #  UYPRIME = ORIGINAL UY
003713: 26,3461           77761                           VXSC
003714: 26,3462           15637                                    SIN60DEG                              #  UX =(COS 60)UXPR +(SIN 60)UYPR
003715: 26,3463           27705                           STOVL    UXVECT
003716: 26,3464           00015                                    UXVECTPR
003717: 26,3465           53361                           VXSC     VAD
003718: 26,3466           06231                                    COS60DEG
003719: 26,3467           03705                                    UXVECT
003720: 26,3470           77656                           UNIT
003721: 26,3471           27705                           STOVL    UXVECT
003722: 26,3472           00015                                    UXVECTPR                              #  UY=(-SIN 60)UXPR +(COS 60)UYPR
003723: 26,3473           77761                           VXSC
003724: 26,3474           15637                                    SIN60DEG
003725: 26,3475           27713                           STOVL    UYVECT
003726: 26,3476           00023                                    UYVECTPR
003727: 26,3477           52361                           VXSC     VSU
003728: 26,3500           06231                                    COS60DEG
003729: 26,3501           03713                                    UYVECT
003730: 26,3502           77656                           UNIT
003731: 26,3503           03713                           STORE    UYVECT
003732: 26,3504           53361        OFFCALC            VXSC     VAD                                   #  OFFSET VECTOR = K(UY)
003733: 26,3505           15641                                    OFFSTFAC                              #  LOS VECTOR + OFFSET VECTOR DEFINES
003734: 26,3506           03677                                    LOSDESRD                              #  DESIRED POINT IN SEARCH PATTERN
003735: 26,3507           64256                           UNIT     MXV
003736: 26,3510           01736                                    REFSMMAT                              #  CONVERT TO STABLE MEMBER COORDINATES
003737: 26,3511           77772                           VSL1
003738: 26,3512           25105        CONTDESG           STOVL    RRTARGET
003739: 26,3513           03725                                    SAVLEMV
003740: 26,3514           03435                           STORE    LOSVEL
003741: 26,3515           77776                           EXIT
003742: 26,3516           00004                           INHINT
003743: 26,3517           06005                           TC       KILLTASK                              #  KILL ANY PRESENTLY WAITLISTED TASK
003744: 26,3520           52556                           CADR     DESLOOP    +2                         #  WHICH WOULD DESIGNATE TO THE LAST
003745:
003746: 26,3521           40103                           CS       FLAGWRD7
003747: 26,3522           75011                           MASK     MANUFBIT
003748: 26,3523           00006                           EXTEND
003749: 26,3524           15225                           BZF      ENDOFJOB
003750:                                                                                                  #  POINT IN THE PATTERN
003751: 26,3525           45010        CONTDES2           CS       BIT15
003752: 26,3526           71101                           MASK     RADMODES                              #  SET BIT 15 OF RADMODES TO INDICATE
003753: 26,3527           65010                           AD       BIT15                                 #  A CONTINUOUS DESIGNATE WANTED
003754: 26,3530           55101                           TS       RADMODES
003755: 26,3531           00003                           RELINT
003756: 26,3532           06014                           TC       INTPRET
003757:
003758: 26,3533           77624                           CALL
003759: 26,3534           52352                                    RRDESSM                               #  DESIGNATE RADAR TO RRTARGET VECTOR
003760:
003761:
003762: 26,3535           77776                           EXIT
003763: 26,3536           03627                           TC       LIMALARM                              #  LOS NOT IN MODE 2 COVERAGE (P22)
003764: 26,3537           03627                           TC       LIMALARM                              #  VEHICLE MANEUVER REQUIRED (P20)
003765:
003766:
003767:                                                                                                  #  COMPUTE OMEGA,ANGLE BETWEEN RR LOS AND
003768:                                                                                                  #  SPACECRAFT +Z AXIS
003769: 26,3540           00004                           INHINT
003770: 26,3541           00006        OMEGCALC           EXTEND
003771: 26,3542           30036                           DCA      CDUT
003772: 26,3543           53744                           DXCH     TANGNB
003773: 26,3544           00003                           RELINT
003774: 26,3545           06014                           TC       INTPRET
003775: 26,3546           77624                           CALL
003776: 26,3547           46000                                    RRNB
003777: 26,3550           65545                           DLOAD    ACOS                                  #  OMEGA IS ARCCOSINE OF Z-COMPONENT OF
003778: 26,3551           00045                                    36D                                   #  VECTOR COMPUTED BY RRNB (LEFT AT 32D)
003779: 26,3552           03722                           STORE    OMEGDISP                              #  STORE FOR DISPLAY IN R2
003780: 26,3553           77776                           EXIT
003781: 26,3554           05225                           TC       ENDOFJOB
003782:
003783:                                                                                                  #  CALCULATE X AND Y VECTORS FOR SEARCH PATTERN COORDINATE SYSTEM
003784:
003785:
003786: 26,3555           47375        CALCXY             VLOAD    VXV
003787: 26,3556           03671                                    VXRCM
003788: 26,3557           03677                                    LOSDESRD
003789: 26,3560           77656                           UNIT
003790: 26,3561           27705                           STOVL    UXVECT                                #  UX = (VLM X RLM) X LOS
003791: 26,3562           03677                                    LOSDESRD
003792: 26,3563           53435                           VXV      UNIT
003793: 26,3564           03705                                    UXVECT
003794: 26,3565           03713                           STORE    UYVECT                                #  UY = LOS X UX
003795: 26,3566           77650                           GOTO
003796: 26,3567           55504                                    OFFCALC
003797:
003798:
003799: 26,3570           64375        DESGLOS            VLOAD    MXV                                   #  WHEN N= 0,DESIGNATE ALONG LOS
003800: 26,3571           03677                                    LOSDESRD
003801: 26,3572           01736                                    REFSMMAT                              #  CONVERT LOS FROM REFERENCE TO SM COORDS
003802: 26,3573           52172                           VSL1     GOTO
003803: 26,3574           55512                                    CONTDESG
003804:
003805:
003806: 26,3575           30074        CALLDGCH           CAE      FLAGWRD0                              #  IS RENDEZVOUS FLAG SET
003807: 26,3576           75020                           MASK     RNDVZBIT
003808: 26,3577           00006                           EXTEND
003809: 26,3600           15321                           BZF      TASKOVER                              #  NO-EXIT R24
003810: 26,3601           37665                           CAF      PRIO25                                #  YES-SCHEDULE JOB TO DRIVE RADAR TO NEXT
003811: 26,3602           05155                           TC       FINDVAC                               #  POINT IN SEARCH PATTERN
003812: 26,3603  E7,1662                                  EBANK=   RLMSRCH
003813: 26,3603           03606 54067                     2CADR    DATGDCHK
003814: 26,3605           05321                           TC       TASKOVER
003815:
003816:
003817: 26,3606           35023        DATGDCHK           CAF      BIT4
003818: 26,3607           00006                           EXTEND                                         #  CHECK IF DATA GOOD DISCRETE PRESENT
003819: 26,3610           02033                           RAND     CHAN33
003820: 26,3611           00006                           EXTEND
003821: 26,3612           13621                           BZF      STORE1S                               #  YES- GO TO STORE 11111 FOR DISPLAY IN R1
003822: 26,3613           46216                           CS       SIX
003823: 26,3614           61723                           AD       NSRCHPNT                              #  IS N GREATER THAN 6
003824: 26,3615           00006                           EXTEND
003825: 26,3616           13362                           BZF      LRS24.1                               #  YES - RESET N = 0 AND START AROUND AGAIN
003826: 26,3617           25723                           INCR     NSRCHPNT                              #  NO-SET N = N+1 AN GO TO
003827: 26,3620           13364                           TCF      CHKSRCH                               #  NEXT POINT IN PATTERN
003828:
003829:
003830: 26,3621           33635        STORE1S            CAF      ALL1S                                 #  STORE 11111 FOR DISPLAY IN R1
003831: 26,3622           55720                           TS       DATAGOOD
003832:
003833: 26,3623           00004                           INHINT
003834: 26,3624           06005                           TC       KILLTASK                              #  DELETE DESIGNATE TASK FROM
003835: 26,3625           52556                           CADR     DESLOOP    +2                         #  WAITLIST USING KILLTASK
003836: 26,3626           05225                           TC       ENDOFJOB
003837:
003838: 26,3627           05646        LIMALARM           TC       ALARM                                 #  ISSUE ALARM 527- LOS NOT IN MODE2
003839: 26,3630           00527                           OCT      527                                   #  COVERAGE IN P22 OR VEHICLE MANEUVER
003840: 26,3631           00004                           INHINT                                         #  REQUIRED IN P20
003841: 26,3632           06005                           TC       KILLTASK                              #  KILL WAITLIST CALL FOR NEXT
003842: 26,3633           55575                           CADR     CALLDGCH                              #  POINT IN SEARCH PATTERN
003843: 26,3634           05225                           TC       ENDOFJOB
003844:
003845:
003846: 26,3635           25547        ALL1S              DEC      11111      B-14
003847: 26,3636           33555 01106  SIN60DEG           2DEC     .86603
003848: 26,3640  23,2230               COS60DEG           =        DPHALF                                #  (2DEC   .50)
003849: 26,3640                        UXVECTPR           EQUALS   12D                                   #  PREVIOUS
003850: 26,3640                        UYVECTPR           EQUALS   18D
003851: 26,3640                        RLMUNIT            EQUALS   12D
003852: 26,3640           01642 11045  OFFSTFAC           2DEC     0.05678                               #  TANGENT OF 3.25 DEGREES
003853: 26,3642           00001        ONEOCT             OCT      00001                                 #  ****  NOTE-THESE TWO CONSTANTS MUST ****
003854: 26,3643           00000 00454  3SECONDS           2DEC     300        B-28                       #  ****  BE IN THIS ORDER BECAUSE      ****
003855:                                                                                                  #  ****  ONEOCT NEEDS A LOWER ORDER    ****
003856:                                                                                                  #  ****  WORD OF ZEROES                ****
003857: 26,3645           01130        6SECONDS           DEC      600        B-14
003858: 26,3646           00062        DEC50              DEC      50         B-14
003859:                                                                                                  #  ********************************
003860:
003861:                                                                                                  #  TEST PROGRAM FOR LSR22.3 --- TO BE REMOVED
003862:                                                                                                  #  ********************************
003863:
003864: 27,2140                                           BANK     27
003865:
003866: 27,2140  E7,1444                                  EBANK=   AIG
003867: 27,2140                                           COUNT*   $$/RTEST
003868: 27,2140           35030        TEST22.3           CAF      ZERO
003869: 27,2141           55125                           TS       LONG
003870: 27,2142           06014        LOOP22.3           TC       INTPRET
003871: 27,2143           70744                           LXC,2    DLOAD*
003872: 27,2144           01125                                    LONG
003873: 27,2145           62413                                    JOBOVER    +1,2
003874: 27,2146           03445                           STORE    AIG
003875: 27,2147           77743                           DLOAD*
003876: 27,2150           62412                                    JOBOVER    +2,2
003877: 27,2151           03446                           STORE    AMG
003878: 27,2152           77743                           DLOAD*
003879:
003880: 27,2153           62410                                    JOBOVER    +4,2
003881: 27,2154           03727                           STORE    MKTIME
003882: 27,2155           77743                           DLOAD*
003883: 27,2156           62406                                    JOBOVER    +6,2
003884: 27,2157           03731                           STORE    RM
003885: 27,2160           77743                           DLOAD*
003886: 27,2161           62404                                    JOBOVER    +8D,2
003887: 27,2162           03721                           STORE    RDOTM
003888: 27,2163           77743                           DLOAD*
003889: 27,2164           62402                                    JOBOVER    +10D,2
003890: 27,2165           03725                           STORE    RRSHAFT
003891: 27,2166           77743                           DLOAD*
003892: 27,2167           62400                                    JOBOVER    +12D,2
003893: 27,2170           03723                           STORE    RRTRUN
003894: 27,2171           77624                           CALL
003895: 27,2172           54425                                    LSR22.3
003896: 27,2173           77776        22.3ENT            EXIT
003897: 27,2174           31125                           CA       LONG
003898: 27,2175           62204                           AD       DEC13T
003899: 27,2176           55125                           TS       LONG
003900: 27,2177           11126                           CCS      LONG       +1
003901: 27,2200           02202                           TC       +2
003902: 27,2201           30000        STOP22.3           CA       A
003903: 27,2202           55126                           TS       LONG       +1
003904: 27,2203           02142                           TC       LOOP22.3
003905: 27,2204           00015        DEC13T             DEC      13         B-14
003906:
003907: 27,2205  26,3362               JOBOVER            EQUALS   LRS24.1                               #  ****  TEMPORARY DEFINITION ******
003908:
003909:                                                                                                  #  END OF TEST PROGRAM
003910:                                                                                                  #   ****************************************
003911: 27,2205  23,2232               ZERO/SP            EQUALS   HI6ZEROS
003912:


003914:    4655                                           BLOCK    02
003915:    6000                                           SETLOC   FFTAG5
003916:    6000                                           BANK
003917:    6000                                           COUNT*   $$/P20
003918:    6000           00006        GOTOV56            EXTEND                                         #  P20 TERMINATES BY GOTOV56 INSTEAD OF
003919:    6001           36004                           DCA      VB56CADR                              #  GOTOPOOH
003920:    6002           15235                           TCF      SUPDXCHZ
003921:    6003  E7,1456                                  EBANK=   WHOCARES
003922:    6003           03002 66107  VB56CADR           2CADR    TRMTRACK
003923:


003925:
003926:                                                                                                  #  W-MATRIX MONITOR
003927:
003928: 31,2000                                           BANK     31
003929: 37,2000                                           SETLOC   VB45
003930: 37,2000                                           BANK
003931: 37,3077                                           COUNT*   $$/EXTVB
003932:
003933: 37,3077  E4,1606                                  EBANK=   WWPOS
003934:
003935: 37,3077           06716        V45CALL            TC       UNK7766
003936: 37,3100           06014                           TC       INTPRET
003937: 37,3101           77624                           CALL
003938: 37,3102           77161                                    V45WW
003939: 37,3103           77776                           EXIT
003940: 37,3104           33234        V06N99DS           CAF      V06N99
003941: 37,3105           04655                           TC       BANKCALL
003942: 37,3106           20245                           CADR     GOXDSPFR
003943: 37,3107           15561                           TCF      ENDEXT
003944: 37,3110           03120                           TC       V06N9933
003945: 37,3111           03115                           TC       +4
003946: 37,3112           35024                           CAF      BIT3
003947: 37,3113           05553                           TC       BLANKET
003948: 37,3114           05225                           TC       ENDOFJOB
003949: 37,3115           05563                 +4        TC       UPFLAG
003950: 37,3116           00160                           ADRES    V45FLAG
003951: 37,3117           03104                           TC       V06N99DS
003952:
003953: 37,3120           06014        V06N9933           TC       INTPRET
003954: 37,3121           77414                           BON      EXIT
003955: 37,3122           03707                                    V45FLAG
003956: 37,3123           77125                                    +2
003957: 37,3124           15561                           TCF      ENDEXT
003958: 37,3125           41345                           DLOAD    DMP
003959:
003960: 37,3126           02207                                    WWPOS
003961: 37,3127           37236                                    1/SQRT3
003962: 37,3130           72412                           SL4      SL1
003963: 37,3131           14001                           STODL    0D
003964: 37,3132           02211                                    WWVEL
003965: 37,3133           77605                           DMP
003966: 37,3134           37236                                    1/SQRT3
003967: 37,3135           00003                           STORE    2D
003968: 37,3136           72014                           BON      LXA,1
003969: 37,3137           04307                                    SURFFLAG
003970: 37,3140           77150                                    V45SURF
003971: 37,3141           00000                                    0D
003972: 37,3142           72130                           SXA,1    LXA,1
003973: 37,3143           02000                                    WRENDPOS
003974: 37,3144           00002                                    2D
003975: 37,3145           52130                           SXA,1    GOTO
003976: 37,3146           02001                                    WRENDVEL
003977: 37,3147           77156                                    V45CLRF
003978: 37,3150           66150        V45SURF            LXA,1    SXA,1
003979: 37,3151           00000                                    0D
003980: 37,3152           02000                                    WRENDPOS
003981: 37,3153           66150                           LXA,1    SXA,1
003982: 37,3154           00002                                    2D
003983: 37,3155           02001                                    WRENDVEL
003984: 37,3156           77414        V45CLRF            CLEAR    EXIT
003985: 37,3157           02676                                    RENDWFLG
003986: 37,3160           15561                           TCF      ENDEXT
003987: 37,3161           40020        V45WW              STQ      BOV
003988: 37,3162           00051                                    S2
003989: 37,3163           77164                                    +1
003990: 37,3164           45014                           CLEAR    CALL
003991: 37,3165           03667                                    V45FLAG
003992: 37,3166           27362                                    INTSTALL
003993: 37,3167           71331                           SSP      DLOAD
003994: 37,3170           00051                                    S1
003995: 37,3171           00006                           DEC      6          B-14
003996: 37,3172           06233                                    ZEROVECS
003997: 37,3173           02207                           STORE    WWPOS
003998: 37,3174           02211                           STORE    WWVEL
003999: 37,3175           77770                           AXT,1
004000: 37,3176           00066                           DEC      54         B-14
004001: 37,3177           47573        NXPOSVEL           VLOAD*   VSQ
004002: 37,3200           02467                                    W          +54D,1
004003: 37,3201           77615                           DAD
004004: 37,3202           02207                                    WWPOS
004005: 37,3203           02207                           STORE    WWPOS
004006: 37,3204           47573                           VLOAD*   VSQ
004007: 37,3205           02555                                    W          +108D,1
004008: 37,3206           77615                           DAD
004009: 37,3207           02211                                    WWVEL
004010:
004011: 37,3210           02211                           STORE    WWVEL
004012: 37,3211           75500                           TIX,1    SQRT
004013: 37,3212           77177                                    NXPOSVEL
004014: 37,3213           16211                           STODL    WWVEL
004015: 37,3214           02207                                    WWPOS
004016: 37,3215           77766                           SQRT
004017: 37,3216           02207                           STORE    WWPOS
004018: 37,3217           52000                           BOV      GOTO
004019: 37,3220           77222                                    +2
004020: 37,3221           77226                                    V45XXX
004021: 37,3222           77745                           DLOAD
004022: 37,3223           06241                                    DPPOSMAX
004023: 37,3224           02207                           STORE    WWPOS
004024: 37,3225           02211                           STORE    WWVEL
004025: 37,3226           66150        V45XXX             LXA,1    SXA,1
004026: 37,3227           00051                                    S2
004027: 37,3230           00052                                    QPRET
004028: 37,3231           77776                           EXIT
004029: 37,3232           04674                           TC       POSTJUMP
004030: 37,3233           27400                           CADR     INTWAKE
004031:
004032: 37,3234           01543        V06N99             VN       0699
004033: 37,3235           22363 11620  1/SQRT3            2DEC     0.5773502
004034:
004035:                                                                                                  #  RADMODES BIT DEFINITIONS
004036: 37,3237     5011               REMODBIT           =        BIT14                                 #  ANTENNA MODE CHANGE REQUESTED FLAG
004037: 37,3237     5013               ANTENBIT           =        BIT12                                 #  RR ANTENNA MODE FLAG
004038: 37,3237     5014               REPOSBIT           =        BIT11                                 #  RR REPOSITION TAKING PLACE FLAG
004039: 37,3237     5017               LRVELBIT           =        BIT8                                  #  LR VELOCITY DATA FAIL FLAG
004040: 37,3237     5020               RCDUFBIT           =        BIT7                                  #  RR CDU FAIL OCCURRED FLAG
004041: 37,3237     5022               LRALTBIT           =        BIT5                                  #  LR ALTITUDE DATA FAIL FLAG
004042: 37,3237     5025               AUTOMBIT           =        BIT2                                  #  RR AUTO MODE DISCRETE FLAG

End of include-file P20-P25.agc.  Parent file is MAIN.agc


