
Source Code


000002:                                                                                                  ## Copyright:   Public domain.
000003:                                                                                                  ## Filename:    P30,P37.agc
000004:                                                                                                  ## Purpose:     A section of a reconstructed, mixed version of Sundance
000005:                                                                                                  ##              It is part of the reconstructed source code for the Lunar
000006:                                                                                                  ##              Module's (LM) Apollo Guidance Computer (AGC) for Apollo 9.
000007:                                                                                                  ##              No original listings of this program are available;
000008:                                                                                                  ##              instead, this file was created via disassembly of dumps
000009:                                                                                                  ##              of various revisions of Sundance core rope modules.
000010:                                                                                                  ## Assembler:   yaYUL
000011:                                                                                                  ## Contact:     Ron Burkey <info@sandroid.org>.
000012:                                                                                                  ## Website:     www.ibiblio.org/apollo/index.html
000013:                                                                                                  ## Mod history: 2020-06-17 MAS  Created from Luminary 69.
000014:
000015:                                                                                                  ## Sundance 292
000016:
000017:                                                                                                  #  PROGRAM DESCRIPTION P30       DATE 3-6-67
000018:
000019:                                                                                                  #  MOD.1 BY RAMA AIYAWAR
000020:                                                                                                  #  FUNCTIONAL DESCRIPTION
000021:                                                                                                  #        ACCEPT ASTRONAUT INPUTS OF TIG,DELV(LV)
000022:                                                                                                  #        CALL IMU STATUS CHECK ROUTINE (R02)
000023:                                                                                                  #        DISPLAY TIME TO GO, APOGEE, PERIGEE, DELV(MAG), MGA AT IGN
000024:                                                                                                  #        REQUEST BURN PROGRAM
000025:
000026:                                                                                                  #  CALLING SEQUENCE VIA JOB FROM V37
000027:
000028:                                                                                                  #  EXIT VIA V37 CALL OR TO GOTOPOOH (V34E)
000029:
000030:                                                                                                  #  SUBROUTINE CALLS -    FLAGUP, PHASCHNG, BANKCALL, ENDOFJOB, GOFLASH, GOFLASHR
000031:                                                                                                  #                        GOPERF3R, INTPRET, BLANKET, GOTOPOOH, R02BOTH, S30.1,
000032:                                                                                                  #                        TTG/N35, MIDGIM, DISPMGA
000033:
000034:                                                                                                  #  ERASABLE INITIALIZATION - STATE VECTOR
000035:
000036:                                                                                                  #  OUTPUT-RINIT, VINIT, +MGA, VTIG, RTIG, DELVSIN, DELVSAB, DELVSLV, HAPO,
000037:                                                                                                  #         HPER, TTOGO
000038:
000039:                                                                                                  #  DEBRIS- A,L, MPAC, PUSHLIST
000040:
000041: 32,2671                                           BANK     32
000042: 35,2000                                           SETLOC   P30S
000043: 35,2000                                           BANK
000044: 35,2000  E4,1660                                  EBANK=   +MGA
000045: 35,2000                                           COUNT*   $$/P30
000046:
000047: 35,2000           77420        REVN1645           STQ      EXIT                                  #  TRKMKCNT, TTOGO, +MGA
000048: 35,2001           03652                                    QTEMP1
000049:
000050: 35,2002           02465                           TC       COMPTGO
000051: 35,2003           33632                           CAF      V16N45
000052: 35,2004           04655                           TC       BANKCALL
000053: 35,2005           20544                           CADR     GOFLASHR
000054: 35,2006           04106                           TC       GOTOPOOH
000055: 35,2007           02014                           TC       +5
000056: 35,2010           02003                           TC       -5
000057: 35,2011           05413                           TC       PHASCHNG
000058: 35,2012           00014                           OCT      00014
000059: 35,2013           05225                           TC       ENDOFJOB
000060:
000061: 35,2014           35026                           CAF      ONE
000062: 35,2015           55175                           TS       DISPDEX
000063: 35,2016           06014                           TC       INTPRET
000064: 35,2017           77650                           GOTO
000065: 35,2020           03652                                    QTEMP1
000066:
000067: 35,2021           05563        P30                TC       UPFLAG                                #  SET UPDATE FLAG
000068: 35,2022           00027                           ADRES    UPDATFLG
000069: 35,2023           05563                           TC       UPFLAG                                #  SET TRACK FLAG
000070: 35,2024           00031                           ADRES    TRACKFLG
000071:
000072: 35,2025           32114        P30N33             CAF      V06N33                                #  T OF IGN
000073: 35,2026           04655                           TC       BANKCALL
000074: 35,2027           20544                           CADR     GOFLASHR
000075: 35,2030           14106                           TCF      GOTOPOOH
000076: 35,2031           12036                           TCF      +5
000077: 35,2032           12025                           TCF      -5
000078: 35,2033           05413                           TC       PHASCHNG
000079: 35,2034           00014                           OCT      00014
000080: 35,2035           05225                           TC       ENDOFJOB
000081:
000082: 35,2036           32115                           CAF      V06N82                                #  DISPLAY DELTA V (LV)
000083: 35,2037           04655                           TC       BANKCALL
000084: 35,2040           20406                           CADR     GOFLASH
000085: 35,2041           14106                           TCF      GOTOPOOH
000086: 35,2042           12044                           TCF      +2
000087: 35,2043           12036                           TCF      -5
000088:
000089: 35,2044           05575                           TC       DOWNFLAG                              #  RESET UPDATE FLAG
000090: 35,2045           00027                           ADRES    UPDATFLG
000091: 35,2046           06014                           TC       INTPRET
000092: 35,2047           77624                           CALL
000093: 35,2050           70000                                    S30.1
000094: 35,2051           77745                           DLOAD
000095: 35,2052           00005                                    4D
000096: 35,2053           16261                           STODL    HAPO
000097: 35,2054           00011                                    8D
000098: 35,2055           02263                           STORE    HPER
000099: 35,2056           77414                           SET      EXIT
000100: 35,2057           00470                                    UPDATFLG
000101: 35,2060           32116        PARAM30            CAF      V06N42                                #  DISPLAY APOGEE,PERIGEE ,DELTA V
000102: 35,2061           04655                           TC       BANKCALL
000103: 35,2062           20406                           CADR     GOFLASH
000104: 35,2063           04106                           TC       GOTOPOOH
000105: 35,2064           12066                           TCF      +2
000106: 35,2065           12060                           TCF      PARAM30
000107:
000108: 35,2066           35012                           CAF      REFSMBIT
000109: 35,2067           70077                           MASK     FLAGWRD3
000110: 35,2070           00006                           EXTEND
000111: 35,2071           12102                           BZF      MINMGA
000112:
000113: 35,2072           06014                           TC       INTPRET
000114: 35,2073           77214                           SET      VLOAD
000115: 35,2074           01072                                    AVFLAG
000116: 35,2075           03643                                    DELVSIN
000117: 35,2076           45006                           PUSH     CALL
000118: 35,2077           20002                                    MIDGIM
000119: 35,2100           77650                           GOTO
000120: 35,2101           72107                                    DISPMANV
000121:
000122: 35,2102           06014        MINMGA             TC       INTPRET
000123: 35,2103           43345                           DLOAD    DAD
000124: 35,2104           33645                                    DP-.01
000125: 35,2105           33645                                    DP-.01
000126: 35,2106           02261                           STORE    +MGA
000127: 35,2107           77624        DISPMANV           CALL
000128: 35,2110           72000                                    REVN1645
000129: 35,2111           77414                           SET      EXIT
000130: 35,2112           01067                                    XDELVFLG
000131:
000132: 35,2113           04106                           TC       GOTOPOOH
000133:
000134: 35,2114           01441        V06N33             VN       0633
000135: 35,2115           01522        V06N82             VN       0682
000136: 35,2116           01452        V06N42             VN       0642
000137: 35,2117           01455        V06N45             VN       0645
000138:
000139:                                                                                                  #  PROGRAM DESCRIPTION S30.1     DATE 9NOV66
000140:
000141:                                                                                                  #  MOD NO 1                      LOG SECTION P30,P37
000142:                                                                                                  #  MOD BY RAMA AIYAWAR **
000143:
000144:                                                                                                  #  FUNCTIONAL DESCRIPTION
000145:                                                                                                  #        BASED ON STORED TARGET PARAMETERS(R OF IGNITION (RTIG), V OF
000146:                                                                                                  #        IGNITION(VTIG), TIME OF IGNITION (TIG)),COMPUTE PERIGEE ALTITUDE
000147:                                                                                                  #        APOGEE ALTITUDE AND DELTAV REQUIRED(DELVSIN).
000148:
000149:                                                                                                  #  CALLING SEQUENCE
000150:                                                                                                  #        L       CALL
000151:                                                                                                  #        L+1             S30.1
000152:
000153:                                                                                                  #  NORMAL EXIT MODE
000154:                                                                                                  #        AT L+2 OR CALLING SEQUENCE (GOTO L+2)
000155:
000156:                                                                                                  #  SUBROUTINES CALLED
000157:                                                                                                  #        LEMPREC
000158:                                                                                                  #        PERIAPO
000159:
000160:                                                                                                  #  ALARM OR ABORT EXIT MODES
000161:                                                                                                  #                NONE
000162:
000163:                                                                                                  #  ERASABLE INITIALIZATION REQUIRED
000164:                                                                                                  #        TIG             TIME OF IGNITION                DP B28CS
000165:                                                                                                  #        DELVSLV         SPECIFIED DELTA-V IN LOCAL VERT.
000166:                                                                                                  #                        COORDS. OF ACTIVE VEHICLE AT
000167:                                                                                                  #                TIME OF IGNITION        VECTOR B+7 METERS/CS
000168:
000169:                                                                                                  #  OUTPUT
000170:                                                                                                  #        RTIG    POSITION AT TIG         VECTOR  B+29 METERS
000171:                                                                                                  #        VTIG    VELOCITY AT TIG         VECTOR  B+29 METERS/CS
000172:                                                                                                  #        PDL 4D  APOGEE ALTITUDE         DP      B+29 M ,  B+27 METERS.
000173:                                                                                                  #        HAPO    APOGEE ALTITUDE         DP      B+29 METERS
000174:                                                                                                  #        PDL 8D  PERIGEE ALTITUDE        DP      B+29 M ,  B+27 METERS.
000175:                                                                                                  #        HPER    PERIGEE ALTITUDE        DP      B+29 METERS
000176:                                                                                                  #        DELVSIN    SPECIFIED DELTA-V IN INERTIAL
000177:                                                                                                  #                   COORD. OF ACTIVE VEHICLE AT
000178:                                                                                                  #                TIME OF IGNITION        VECTOR  B+7 METERS/CS
000179:                                                                                                  #        DELVSAB MAG. OF DELVSIN         VECTOR  B+7 METERS/CS
000180:
000181:                                                                                                  #  DEBRIS        QTEMP   TEMP.ERASABLE
000182:                                                                                                  #                QPRET, MPAC
000183:                                                                                                  #                PUSHLIST
000184:
000185: 34,2000                                           SETLOC   P30S1
000186: 34,2000                                           BANK
000187:
000188: 34,2000                                           COUNT*   $$/S30S
000189:
000190: 34,2000           71220        S30.1              STQ      DLOAD
000191: 34,2001           03617                                    QTEMP
000192: 34,2002           03425                                    TIG                                   #  TIME IGNITION SCALED AT 2(+28)CS
000193: 34,2003           34041                           STCALL   TDEC1
000194: 34,2004           27030                                    LEMPREC                               #  ENCKE ROUTINE FOR LEM
000195:
000196: 34,2005           77775                           VLOAD
000197: 34,2006           00017                                    RATT1
000198: 34,2007           02655                           STORE    RVEC
000199: 34,2010           03627                           STORE    RTIG                                  #  RADIUS VECTOR AT IGNITION TIME
000200: 34,2011           57456                           UNIT     VCOMP
000201: 34,2012           27643                           STOVL    DELVSIN                               #  ZRF/LV IN DELVSIN SCALED AT 2
000202: 34,2013           00025                                    VATT1                                 #  VELOCITY VECTOR AT TIG, SCALED 2(7) M/CS
000203: 34,2014           03635                           STORE    VTIG
000204: 34,2015           53435                           VXV      UNIT
000205: 34,2016           03627                                    RTIG
000206: 34,2017           77601                           SETPD
000207: 34,2020           00001                                    0
000208: 34,2021           47206                           PUSH     VXV                                   #  YRF/LV PDL 0 SCALED AT 2
000209: 34,2022           03643                                    DELVSIN
000210: 34,2023           63372                           VSL1     PDVL
000211: 34,2024           63315                           PDVL     PDVL                                  #  YRF/LV PDL 6 SCALED AT 2
000212: 34,2025           03643                                    DELVSIN                               #  ZRF/LV PDL 12D SCALED AT 2
000213: 34,2026           02267                                    DELVSLV
000214: 34,2027           76505                           VXM      VSL1
000215: 34,2030           00001                                    0
000216: 34,2031           03643                           STORE    DELVSIN                               #  DELTAV IN INERT. COOR. SCALED TO B+7M/CS
000217: 34,2032           77646                           ABVAL
000218: 34,2033           27651                           STOVL    DELVSAB                               #  DELTA V MAG.
000219: 34,2034           03635                                    VTIG                                  #  (FOR PERIAPO)
000220: 34,2035           77655                           VAD                                            #  VREQUIRED = VTIG + DELVSIN (FOR PERIAPO)
000221: 34,2036           03643                                    DELVSIN
000222: 34,2037           36744                           STCALL   VVEC
000223: 34,2040           46116                                    PERIAPO
000224: 34,2041           77650                           GOTO
000225: 34,2042           03617                                    QTEMP
000226:
000227:

End of include-file P30,P37.agc.  Parent file is MAIN.agc


