
Source Code


000002:                                                                                                  ## Copyright:   Public domain.
000003:                                                                                                  ## Filename:    P34-P35,_P74-P75.agc
000004:                                                                                                  ## Purpose:     A section of a reconstructed, mixed version of Sundance
000005:                                                                                                  ##              It is part of the reconstructed source code for the Lunar
000006:                                                                                                  ##              Module's (LM) Apollo Guidance Computer (AGC) for Apollo 9.
000007:                                                                                                  ##              No original listings of this program are available;
000008:                                                                                                  ##              instead, this file was created via disassembly of dumps
000009:                                                                                                  ##              of various revisions of Sundance core rope modules.
000010:                                                                                                  ## Assembler:   yaYUL
000011:                                                                                                  ## Contact:     Ron Burkey <info@sandroid.org>.
000012:                                                                                                  ## Website:     www.ibiblio.org/apollo/index.html
000013:                                                                                                  ## Mod history: 2020-06-17 MAS  Created from Luminary 69.
000014:
000015:                                                                                                  ## Sundance 292
000016:
000017:                                                                                                  #  TRANSFER PHASE INITIATION (TPI) PROGRAMS (P34 AND P74)
000018:
000019:                                                                                                  #  MOD NO -1                     LOG SECTION - P32-P35, P72-P75
000020:                                                                                                  #  MOD BY WHITE.P                DATE  1JUNE67
000021:
000022:                                                                                                  #  PURPOSE
000023:
000024:                                                                                                  #        (1)     TO CALCULATE THE REQUIRED DELTA V AND OTHER INITIAL CONDITIONS
000025:                                                                                                  #                REQUIRED BY THE ACTIVE VEHICLE FOR EXECUTION OF THE TRANSFER
000026:                                                                                                  #                PHASE INITIATION (TPI) MANEUVER, GIVEN -
000027:
000028:                                                                                                  #                (A)     TIME OF IGNITION TIG (TPI) OR THE ELEVATION ANGLE (E) OF
000029:                                                                                                  #                        THE ACTIVE/PASSIVE VEHICLE LOS AT TIG (TPI).
000030:
000031:                                                                                                  #                (B)     CENTRAL ANGLE OF TRANSFER (CENTANG) FROM TIG (TPI) TO
000032:                                                                                                  #                        INTERCEPT TIME (TIG (TPF)).
000033:
000034:                                                                                                  #        (2)     TO CALCULATE TIG (TPI) GIVEN E OR E GIVEN TIG (TPI).
000035:
000036:                                                                                                  #        (3)     TO CALCULATE THESE PARAMETERS BASED UPON MANEUVER DATA
000037:                                                                                                  #                APPROVED AND KEYED INTO THE DSKY BY THE ASTRONAUT.
000038:
000039:                                                                                                  #        (4)     TO DISPLAY TO THE ASTRONAUT AND THE GROUND CERTAIN DEPENDENT
000040:                                                                                                  #                VARIABLES ASSOCIATED WITH THE MANEUVER FOR APPROVAL BY THE
000041:                                                                                                  #                ASTRONAUT/GROUND.
000042:
000043:                                                                                                  #        (5)     TO STORE THE TPI TARGET PARAMETERS FOR USE BY THE DESIRED
000044:                                                                                                  #                THRUSTING PROGRAM.
000045:
000046:                                                                                                  #  ASSUMPTIONS
000047:
000048:                                                                                                  #        (1)     LM ONLY - THIS PROGRAM IS BASED UPON PREVIOUS COMPLETION OF
000049:                                                                                                  #                THE CONSTANT DELTA ALTITUDE (CDH) PROGRAM (P33/P73).
000050:                                                                                                  #                THEREFORE -
000051:
000052:                                                                                                  #                (A)     AT A SELECTED TPI TIME (NOW IN STORAGE) THE LINE OF SIGHT
000053:                                                                                                  #                        BETWEEN THE ACTIVE AND PASSIVE VEHICLES WAS SELECTED TO BE
000054:                                                                                                  #                        A PRESCRIBED ANGLE (E) (NOW IN STORAGE) FROM THE
000055:                                                                                                  #                        HORIZONTAL PLANE DEFINED BY THE ACTIVE VEHICLE POSITION.
000056:
000057:                                                                                                  #                (B)     THE TIME BETWEEN CDH IGNITION AND TPI IGNITION WAS
000058:                                                                                                  #                        COMPUTED TO BE GREATER THAN 10 MINUTES.
000059:
000060:                                                                                                  #                (C)     THE VARIATION OF THE ALTITUDE DIFFERENCE BETWEEN THE
000061:                                                                                                  #                        ORBITS WAS MINIMIZED.
000062:
000063:                                                                                                  #                (D)     THE PERICENTER ALTITUDES OF ORBITS FOLLOWING CSI AND
000064:                                                                                                  #                        CDH WERE COMPUTED TO BE GREATER THAN 35,000 FT FOR LUNAR
000065:                                                                                                  #                        ORBIT OR 85 NM FOR EARTH ORBIT.
000066:
000067:                                                                                                  #                (E)     THE CSI AND CDH MANEUVERS WERE ASSUMED TO BE PARALLEL TO
000068:                                                                                                  #                        THE PLANE OF THE PASSIVE VEHICLE ORBIT.  HOWEVER, CREW
000069:                                                                                                  #                        MODIFICATION OF DELTA V (LV) COMPONENTS MAY HAVE RESULTED
000070:                                                                                                  #                        IN AN OUT-OF-PLANE MANEUVER.
000071:
000072:                                                                                                  #        (2)     STATE VECTOR UPDATED BY P27 ARE DISALLOWED DURING AUTOMATIC
000073:                                                                                                  #                STATE VECTOR UPDATING INITIATED BY P20 (SEE ASSUMPTION (4)).
000074:
000075:                                                                                                  #        (3)     THIS PROGRAM MUST BE DONE OVER A TRACKING STATION FOR REAL
000076:                                                                                                  #                TIME GROUND PARTICIPATION IN DATA INPUT AND OUTPUT.  COMPUTED
000077:                                                                                                  #                VARIABLES MAY BE STORED FOR LATER VERIFICATION BY THE GROUND.
000078:                                                                                                  #                THESE STORAGE CAPABILITIES ARE LIMITED ONLY TO THE PARAMETERS
000079:                                                                                                  #                FOR ONE THRUSTING MANEUVER AT A TIME EXCEPT FOR CONCENTRIC
000080:                                                                                                  #                FLIGHT PLAN MANEUVER SEQUENCES.
000081:
000082:                                                                                                  #        (4)     THE RENDEZVOUS RADAR MAY OR MAY NOT BE USED TO UPDATE THE LM
000083:                                                                                                  #                OR CSM STATE VECTORS FOR THIS PROGRAM.  IF RADAR USE IS
000084:                                                                                                  #                DESIRED THE RADAR WAS TURNED ON AND LOCKED ON THE CSM BY
000085:                                                                                                  #                PREVIOUS SELECTION OF P20.  RADAR SIGHTING MARKS WILL BE MADE
000086:                                                                                                  #                AUTOMATICALLY APPROXIMATELY ONCE A MINUTE WHEN ENABLED BY THE
000087:                                                                                                  #                TRACK AND UPDATE FLAGS (SEE P20).  THE RENDEZVOUS TRACKING
000088:                                                                                                  #                MARK COUNTER IS ZEROED BY THE SELECTION OF P20 AND AFTER EACH
000089:                                                                                                  #                THRUSTING MANEUVER.
000090:
000091:                                                                                                  #        (5)     THE ISS NEED NOT BE ON TO COMPLETE THIS PROGRAM.
000092:
000093:                                                                                                  #        (6)     THE OPERATION OF THE PROGRAM UTILIZES THE FOLLOWING FLAGS -
000094:
000095:                                                                                                  #                        ACTIVE VEHICLE FLAG - DESIGNATES THE VEHICLE WHICH IS
000096:                                                                                                  #                        DOING RENDEZVOUS THRUSTING MANEUVERS TO THE PROGRAM WHICH
000097:                                                                                                  #                        CALCULATES THE MANEUVER PARAMETERS.  SET AT THE START OF
000098:                                                                                                  #                        EACH RENDEZVOUS PRE-THRUSTING PROGRAM.
000099:
000100:                                                                                                  #                        FINAL FLAG - SELECTS FINAL PROGRAM DISPLAYS AFTER CREW HAS
000101:                                                                                                  #                        SELECTED THE FINAL MANEUVER COMPUTATION CYCLE.
000102:
000103:                                                                                                  #                        EXTERNAL DELTA V FLAG - DESIGNATES THE TYPE OF STEERING
000104:                                                                                                  #                        REQUIRED FOR EXECUTION OF THIS MANEUVER BY THE THRUSTING
000105:                                                                                                  #                        PROGRAM SELECTED AFTER COMPLETION OF THIS PROGRAM.
000106:
000107:                                                                                                  #        (7)     ONCE THE PARAMETWRS REQUIRED FOR COMPUTION OF THE MANEUVER
000108:                                                                                                  #                HAVE BEEN COMPLETELY SPECIFIED, THE VALUE OF THE ACTIVE
000109:                                                                                                  #                VEHICLE CENTRAL ANGLE OF TRANSFER IS COMPUTED AND STORED.
000110:                                                                                                  #                THIS NUMBER WILL BE AVAILABLE FOR DISPLAY TO THE ASTRONAUT
000111:                                                                                                  #                THROUGH THE USE OF V06N52.
000112:
000113:                                                                                                  #                THE ASTRONAUT WILL CALL THIS DISPLAY TO VERIFY THAT THE
000114:                                                                                                  #                CENTRAL ANGLE OF TRANSFER OF THE ACTIVE VEHICLE IS NOT WITHIN
000115:                                                                                                  #                170 TO 190 DEGREES.  IF THE ANGLE IS WITHIN THIS ZONE THE
000116:                                                                                                  #                ASTRONAUT SHOULD REASSESS THE INPUT TARGETING PARAMETERS BASED
000117:                                                                                                  #                UPON DELTA V AND EXPECTED MANEUVER TIME.
000118:
000119:                                                                                                  #        (8)     THIS PROGRAM IS SELECTED BY THE ASTRONAUT BY DSKY ENTRY -
000120:
000121:                                                                                                  #                        P34 IF THIS VEHICLE IS ACTIVE VEHICLE.
000122:
000123:                                                                                                  #                        P74 IF THIS VEHICLE IS PASSIVE VEHICLE.
000124:
000125:                                                                                                  #  INPUT
000126:
000127:                                                                                                  #        (1)     TTPI    TIME OF THE TPI MANEUVER
000128:                                                                                                  #        (2)     ELEV    DESIRED LOS ANGLE AT TPI
000129:                                                                                                  #        (3)     CENTANG ORBITAL CENTRAL ANGLE OF THE PASSIVE VEHICLE DURING
000130:                                                                                                  #                        TRANSFER FROM TPI TO TIME OF INTERCEPT
000131:
000132:                                                                                                  #  OUTPUT
000133:
000134:                                                                                                  #        (1)     TRKMKCNT        NUMBER OF MARKS
000135:                                                                                                  #        (2)     TTOGO           TIME TO GO
000136:                                                                                                  #        (3)     +MGA            MIDDLE GIMBAL ANGLE
000137:                                                                                                  #        (4)     TTPI            COMPUTED TIME OF TPI MANEUVER
000138:                                                                                                  #                 OR
000139:                                                                                                  #                ELEV            COMPUTED LOS ANGLE AT TPI
000140:                                                                                                  #        (5)     POSTTPI         PERIGEE ALTITUDE AFTER THE TPI MANEUVER
000141:                                                                                                  #        (6)     DELVTPI         MAGNITUDE OF DELTA V AT TPI
000142:                                                                                                  #        (7)     DELVTPF         MAGNITUDE OF DELTA V AT INTERCEPT
000143:                                                                                                  #        (8)     DVLOS           DELTA VELOCITY AT TPI - LINE OF SIGHT
000144:                                                                                                  #        (9)     DELVLVC         DELTA VELOCITY AT TPI - LOCAL VERTICAL COORDINATES
000145:
000146:                                                                                                  #  DOWNLINK
000147:
000148:                                                                                                  #        (1)     TTPI            TIME OF THE TPI MANEUVER
000149:                                                                                                  #        (2)     TIG             TIME OF THE TPI MANEUVER
000150:                                                                                                  #        (3)     ELEV            DESIRED LOS ANGLE AT TPI
000151:                                                                                                  #        (4)     CENTANG         ORBITAL CENTRAL ANGLE OF THE PASSIVE VEHICLE DURING
000152:                                                                                                  #                                TRANSFER FROM TPI TO TIME OF INTERCEPT
000153:                                                                                                  #        (5)     DELVEET3        DELTA VELOCITY AT TPI - REFERENCE COORDINATES
000154:                                                                                                  #        (6)     TPASS4          TIME OF INTERCEPT
000155:
000156:                                                                                                  #  COMMUNICATION TO THRUSTING PROGRAMS
000157:
000158:                                                                                                  #        (1)     TIG             TIME OF THE TPI MANEUVER
000159:                                                                                                  #        (2)     RTARG           OFFSET TARGET POSITION
000160:                                                                                                  #        (3)     TPASS4          TIME OF INTERCEPT
000161:                                                                                                  #        (4)     XDELVFLG        RESET TO INDICATE LAMBERT (AIMPOINT) VG COMPUTATION
000162:
000163:                                                                                                  #  SUBROUTINES USED
000164:
000165:                                                                                                  #        AVFLAGA
000166:                                                                                                  #        AVFLAGP
000167:                                                                                                  #        VNPOOH
000168:                                                                                                  #        DISPLAYE
000169:                                                                                                  #        SELECTMU
000170:                                                                                                  #        PRECSET
000171:                                                                                                  #        S33/34.1
000172:                                                                                                  #        ALARM
000173:                                                                                                  #        BANKCALL
000174:                                                                                                  #        GOFLASH
000175:                                                                                                  #        GOTOPOOH
000176:                                                                                                  #        TIMETHET
000177:                                                                                                  #        S34/35.2
000178:                                                                                                  #        PERIAPO1
000179:                                                                                                  #        SHIFTR1
000180:                                                                                                  #        S34/35.5
000181:                                                                                                  #        VN1645
000182:
000183: 35,2000                                           SETLOC   CSI/CDH
000184: 35,2000                                           BANK
000185: 35,2503  E7,1455                                  EBANK=   SUBEXIT
000186: 35,2503                                           COUNT*   $$/P3474
000187: 35,2503           02405        P34                TC       AVFLAGA
000188: 35,2504           02506                           TC       P34/P74A
000189: 35,2505           02412        P74                TC       AVFLAGP
000190: 35,2506           33625        P34/P74A           CAF      V06N37                                #  TTPI
000191: 35,2507           03614                           TC       VNPOOH
000192: 35,2510           03573                           TC       DISPLAYE                              #  ELEV AND CENTANG
000193: 35,2511           06014                           TC       INTPRET
000194: 35,2512           71214                           CLEAR    DLOAD
000195: 35,2513           01270                                    ETPIFLAG
000196: 35,2514           03623                                    TTPI
000197: 35,2515           17425                           STODL    TIG
000198: 35,2516           02265                                    ELEV
000199: 35,2517           43054                           BZE      SET
000200: 35,2520           72522                                    P34/P74B
000201: 35,2521           01070                                    ETPIFLAG
000202: 35,2522           77624        P34/P74B           CALL
000203: 35,2523           20045                                    SELECTMU
000204: 35,2524                        DELELO             EQUALS   26D
000205: 35,2524           43145        P34/P74C           DLOAD    SET
000206: 35,2525           06233                                    ZEROVECS
000207: 35,2526           03460                                    ITSWICH
000208: 35,2527           43014                           BON      CLEAR
000209: 35,2530           01310                                    ETPIFLAG
000210: 35,2531           72533                                    SWCHSET
000211: 35,2532           03660                                    ITSWICH
000212: 35,2533           02335        SWCHSET            STORE    NOMTPI
000213: 35,2534           43345        INTLOOP            DLOAD    DAD
000214: 35,2535           03623                                    TTPI
000215: 35,2536           02335                                    NOMTPI
000216: 35,2537           34041                           STCALL   TDEC1
000217: 35,2540           46150                                    PRECSET
000218: 35,2541           77624                           CALL
000219: 35,2542           72721                                    S33/34.1
000220: 35,2543           77454                           BZE      EXIT
000221: 35,2544           72555                                    SWCHCLR
000222: 35,2545           05646                           TC       ALARM
000223: 35,2546           00611                           OCT      611
000224: 35,2547           35056                           CAF      V05N09
000225: 35,2550           04655                           TC       BANKCALL
000226: 35,2551           20406                           CADR     GOFLASH
000227: 35,2552           04106                           TC       GOTOPOOH
000228: 35,2553           02506                           TC       P34/P74A                              #  PROCEED
000229: 35,2554           02545                           TC       -7                                    #  V32
000230:
000231: 35,2555           43014        SWCHCLR            BONCLR   BON
000232: 35,2556           03600                                    ITSWICH
000233: 35,2557           72534                                    INTLOOP
000234: 35,2560           01310                                    ETPIFLAG
000235: 35,2561           72565                                    P34/P74D                              #  DISPLAY TTPI
000236: 35,2562           77776                           EXIT
000237: 35,2563           03573                           TC       DISPLAYE                              #  DISPLAY ELEV AND CENTANG
000238: 35,2564           02570                           TC       P34/P74E
000239: 35,2565           77776        P34/P74D           EXIT
000240: 35,2566           33625                           CAF      V06N37                                #  TTPI
000241: 35,2567           03614                           TC       VNPOOH
000242: 35,2570           06014        P34/P74E           TC       INTPRET
000243: 35,2571           71201                           SETPD    DLOAD
000244: 35,2572           00001                                    0D
000245: 35,2573           02333                                    RTX1
000246: 35,2574           14047                           STODL    X1
000247: 35,2575           03606                                    CENTANG
000248: 35,2576           71406                           PUSH     COS
000249: 35,2577           16732                           STODL    CSTH
000250: 35,2600           77756                           SIN
000251: 35,2601           26730                           STOVL    SNTH
000252: 35,2602           03537                                    RPASS3
000253: 35,2603           77657                           VSR*
000254: 35,2604           57176                                    0,2
000255: 35,2605           26655                           STOVL    RVEC
000256: 35,2606           03545                                    VPASS3
000257: 35,2607           43057                           VSR*     SET
000258: 35,2610           57176                                    0,2
000259: 35,2611           03466                                    RVSW
000260: 35,2612           36744                           STCALL   VVEC
000261: 35,2613           24732                                    TIMETHET
000262: 35,2614           77745                           DLOAD
000263: 35,2615           03623                                    TTPI
000264: 35,2616           03577                           STORE    INTIME                                #  FOR INITVEL
000265: 35,2617           77615                           DAD
000266: 35,2620           00037                                    T                                     #  RENDEZVOUS TIME
000267: 35,2621           37616                           STCALL   TPASS4                                #  FOR INITVEL
000268: 35,2622           73243                                    S34/35.2
000269: 35,2623           51575                           VLOAD    ABVAL
000270: 35,2624           03363                                    DELVEET3
000271: 35,2625           27563                           STOVL    DELVTPI
000272: 35,2626           03473                                    VPASS4
000273: 35,2627           51451                           VSU      ABVAL
000274: 35,2630           03553                                    VTPRIME
000275: 35,2631           27565                           STOVL    DELVTPF
000276: 35,2632           03523                                    RACT3
000277: 35,2633           45115                           PDVL     CALL
000278: 35,2634           02357                                    VIPRIME
000279: 35,2635           46106                                    PERIAPO1
000280: 35,2636           77624                           CALL
000281: 35,2637           46216                                    SHIFTR1
000282: 35,2640           17575                           STODL    POSTTPI
000283: 35,2641           03623                                    TTPI
000284: 35,2642           03425                           STORE    TIG
000285: 35,2643           77776                           EXIT
000286: 35,2644           33627                           CAF      V06N58
000287: 35,2645           03614                           TC       VNPOOH
000288: 35,2646           06014                           TC       INTPRET
000289: 35,2647           77624                           CALL
000290: 35,2650           73442                                    S34/35.5
000291: 35,2651           77624                           CALL
000292: 35,2652           73505                                    VN1645
000293: 35,2653           77650                           GOTO
000294: 35,2654           72524                                    P34/P74C
000295:                                                                                                  #  RENDEZVOUS MID-COURSE MANEUVER PROGRAMS (P35 AND P75)
000296:
000297:                                                                                                  #  MOD NO -1                     LOG SECTION - P32-P35, P72-P75
000298:                                                                                                  #  MOD BY WHITE.P                DATE  1JUNE67
000299:
000300:                                                                                                  #  PURPOSE
000301:
000302:                                                                                                  #        (1)     TO CALCULATE THE REQUIRED DELTA V AND OTHER INITIAL CONDITIONS
000303:                                                                                                  #                REQUIRED BY THE ACTIVE VEHICLE FOR EXECUTION OF THE NEXT
000304:                                                                                                  #                MIDCOURSE CORRECTION OF THE TRANSFER PHASE OF AN ACTIVE
000305:                                                                                                  #                VEHICLE RENDEZVOUS.
000306:
000307:                                                                                                  #        (2)     TO DISPLAY TO THE ASTRONAUT AND THE GROUND CERTAIN DEPENDENT
000308:                                                                                                  #                VARIABLES ASSOCIATED WITH THE MANEUVER FOR APPROVAL BY THE
000309:                                                                                                  #                ASTRONAUT/GROUND.
000310:
000311:                                                                                                  #        (3)     TO STORE THE TPM TARGET PARAMETERS FOR USE BY THE DESIRED
000312:                                                                                                  #                THRUSTING PROGRAM.
000313:
000314:                                                                                                  #  ASSUMPTIONS
000315:
000316:                                                                                                  #        (1)     THE ISS NEED NOT BE ON TO COMPLETE THIS PROGRAM.
000317:
000318:                                                                                                  #        (2)     STATE VECTOR UPDATES BY P27 ARE DISALLOWED DURING AUTOMATIC
000319:                                                                                                  #                STATE VECTOR UPDATING INITIATED BY P20 (SEE ASSUMPTION (3)).
000320:
000321:                                                                                                  #        (3)     THE RENDEZVOUS RADAR IS ON AND IS LOCKED ON THE CSM.  THIS WAS
000322:                                                                                                  #                DONE DURING PREVIOUS SELECTION OF P20.  RADAR SIGHTING MARKS
000323:                                                                                                  #                WILL BE MADE AUTOMATICALLY APPROXIMATELY ONCE A MINUTE WHEN
000324:                                                                                                  #                ENABLED BY THE TRACK AND UPDATE FLAGS (SEE P20).  THE
000325:                                                                                                  #                RENDEZVOUS TRACKING MARK COUNTER IS ZEROED BY THE SELECTION OF
000326:                                                                                                  #                P20 AND AFTER EACH THRUSTING MANEUVER.
000327:
000328:                                                                                                  #        (4)     THE OPERATION OF THE PROGRAM UTILIZES THE FOLLOWING FLAGS -
000329:
000330:                                                                                                  #                        ACTIVE VEHICLE FLAG - DESIGNATES THE VEHICLE WHICH IS
000331:                                                                                                  #                        DOING RENDEZVOUS THRUSTING MANEUVERS TO THE PROGRAM WHICH
000332:                                                                                                  #                        CALCULATES THE MANEUVER PARAMETERS.  SET AT THE START OF
000333:                                                                                                  #                        EACH RENDEZVOUS PRE-THRUSTING PROGRAM.
000334:
000335:                                                                                                  #                        FINAL FLAG - SELECTS FINAL PROGRAM DISPLAYS AFTER CREW HAS
000336:                                                                                                  #                        SELECTED THE FINAL MANEUVER COMPUTATION CYCLE.
000337:
000338:                                                                                                  #                        EXTERNAL DELTA V FLAG - DESIGNATES THE TYPE OF STEERING
000339:                                                                                                  #                        REQUIRED FOR EXECUTION OF THIS MANEUVER BY THE THRUSTING
000340:                                                                                                  #                        PROGRAM SELECTED AFTER COMPLETION OF THIS PROGRAM.
000341:
000342:                                                                                                  #        (5)     THE TIME OF INTERCEPT (T(INT)) WAS DEFINED BY PREVIOUS
000343:                                                                                                  #                COMPLETION OF THE TRANSFER PHASE INITIATION (TPI) PROGRAM
000344:                                                                                                  #                (P34/P74) AND IS PRESENTLY AVAILABLE IN STORAGE.
000345:
000346:                                                                                                  #        (6)     ONCE THE PARAMETERS REQUIRED FOR COMPUTION OF THE MANEUVER
000347:                                                                                                  #                HAVE BEEN COMPLETELY SPECIFIED, THE VALUE OF THE ACTIVE
000348:                                                                                                  #                VEHICLE CENTRAL ANGLE OF TRANSFER IS COMPUTED AND STORED.
000349:                                                                                                  #                THIS NUMBER WILL BE AVAILABLE FOR DISPLAY TO THE ASTRONAUT
000350:                                                                                                  #                THROUGH THE USE OF V06N52.
000351:
000352:                                                                                                  #                THE ASTRONAUT WILL CALL THIS DISPLAY TO VERIFY THAT THE
000353:                                                                                                  #                CENTRAL ANGLE OF TRANSFER OF THE ACTIVE VEHICLE IS NOT WITHIN
000354:                                                                                                  #                170 TO 190 DEGREES.  IF THE ANGLE IS WITHIN THIS ZONE THE
000355:                                                                                                  #                ASTRONAUT SHOULD REASSESS THE INPUT TARGETING PARAMETERS BASED
000356:                                                                                                  #                UPON DELTA V AND EXPECTED MANEUVER TIME.
000357:
000358:                                                                                                  #        (7)     THIS PROGRAM IS SELECTED BY THE ASTRONAUT BY DSKY ENTRY -
000359:
000360:                                                                                                  #                        P35 IF THIS VEHICLE IS ACTIVE VEHICLE.
000361:
000362:                                                                                                  #                        P75 IF THIS VEHICLE IS PASSIVE VEHICLE.
000363:
000364:                                                                                                  #  INPUT
000365:
000366:                                                                                                  #        (1)     TPASS4          TIME OF INTERCEPT - SAVED FROM P34/P74
000367:                                                                                                  #  OUTPUT
000368:
000369:                                                                                                  #        (1)     TRKMKCNT        NUMBER OF MARKS
000370:                                                                                                  #        (2)     TTOGO           TIME TO GO
000371:                                                                                                  #        (3)     +MGA            MIDDLE GIMBAL ANGLE
000372:                                                                                                  #        (4)     DVLOS           DELTA VELOCITY AT MID - LINE OF SIGHT
000373:                                                                                                  #        (5)     DELVLVC         DELTA VELOCITY AT MID - LOCAL VERTICAL COORDINATES
000374:
000375:                                                                                                  #  DOWNLINK
000376:
000377:                                                                                                  #        (1)     TIG             TIME OF THE TPM MANEUVER
000378:                                                                                                  #        (2)     DELVEET3        DELTA VELOCITY AT TPM - REFERENCE COORDINATES
000379:                                                                                                  #        (3)     TPASS4          TIME OF INTERCEPT
000380:                                                                                                  #  COMMUNICATION TO THRUSTING PROGRAMS
000381:
000382:                                                                                                  #        (1)     TIG             TIME OF THE TPM MANEUVER
000383:                                                                                                  #        (2)     RTARG           OFFSET TARGET POSITION
000384:                                                                                                  #        (3)     TPASS4          TIME OF INTERCEPT
000385:                                                                                                  #        (4)     XDELVFLG        RESET TO INDICATE LAMBERT (AIMPOINT) VG COMPUTATION
000386:
000387:                                                                                                  #  SUBROUTINES USED
000388:
000389:                                                                                                  #        AVFLAGA
000390:                                                                                                  #        AVFLAGP
000391:                                                                                                  #        LOADTIME
000392:                                                                                                  #        SELECTMU
000393:                                                                                                  #        PRECSET
000394:                                                                                                  #        S34/35.1
000395:                                                                                                  #        S34/35.2
000396:                                                                                                  #        S34/35.5
000397:                                                                                                  #        VN1645
000398:
000399: 35,2655                                           COUNT*   $$/P3575
000400: 35,2655  E7,1562                                  EBANK=   KT
000401:
000402: 35,2655           02405        P35                TC       AVFLAGA
000403: 35,2656           00006                           EXTEND
000404: 35,2657           31401                           DCA      ATIGINC
000405: 35,2660           02664                           TC       P35/P75A
000406: 35,2661           02412        P75                TC       AVFLAGP
000407: 35,2662           00006                           EXTEND
000408: 35,2663           31403                           DCA      PTIGINC
000409: 35,2664           53563        P35/P75A           DXCH     KT
000410: 35,2665           06014                           TC       INTPRET
000411: 35,2666           77634                           RTB
000412: 35,2667           21454                                    LOADTIME
000413: 35,2670           03565                           STORE    TSTRT
000414: 35,2671           77615                           DAD
000415: 35,2672           03563                                    KT
000416: 35,2673           37425                           STCALL   TIG
000417: 35,2674           20045                                    SELECTMU
000418: 35,2675           77745        P35/P75B           DLOAD
000419: 35,2676           03425                                    TIG
000420: 35,2677           03577                           STORE    INTIME                                #  FOR INITVEL
000421: 35,2700           34041                           STCALL   TDEC1
000422: 35,2701           46150                                    PRECSET                               #  ADVANCE BOTH VEHICLES
000423: 35,2702           77624                           CALL
000424: 35,2703           73231                                    S34/35.1                              #  GET NORM AND LOS FOR TRANSFORM
000425: 35,2704           77624                           CALL
000426: 35,2705           73243                                    S34/35.2                              #  GET DELTA V(LV)
000427: 35,2706           77624                           CALL
000428: 35,2707           73442                                    S34/35.5
000429: 35,2710           77624                           CALL
000430: 35,2711           73505                                    VN1645
000431: 35,2712           77634                           RTB
000432: 35,2713           21454                                    LOADTIME
000433: 35,2714           03565                           STORE    TSTRT
000434: 35,2715           77615                           DAD
000435: 35,2716           03563                                    KT
000436: 35,2717           37425                           STCALL   TIG
000437: 35,2720           72675                                    P35/P75B
000438:                                                                                                  #  ..... S33/34.1 .....
000439:
000440: 35,2721           66220        S33/34.1           STQ      SSP
000441: 35,2722           03450                                    NORMEX
000442: 35,2723           03601                                    TITER
000443: 35,2724           40000                           OCT      40000
000444: 35,2725           40345                           DLOAD    SETPD
000445: 35,2726           33636                                    MAX250
000446: 35,2727           00001                                    0D
000447: 35,2730           27561                           STOVL    SECMAX
000448: 35,2731           03523                                    RACT3
000449: 35,2732           27465                           STOVL    RAPREC
000450: 35,2733           03531                                    VACT3
000451: 35,2734           27473                           STOVL    VAPREC
000452: 35,2735           03537                                    RPASS3
000453: 35,2736           27507                           STOVL    RPPREC
000454: 35,2737           03545                                    VPASS3
000455: 35,2740           03515                           STORE    VPPREC
000456: 35,2741           77624        ELCALC             CALL
000457: 35,2742           73231                                    S34/35.1                              #  NORMAL AND LOS
000458: 35,2743           63235                           VXV      PDVL
000459: 35,2744           03523                                    RACT3                                 #  (RA*VA)*RA 0D
000460: 35,2745           53515                           PDVL     UNIT                                  #  ULOS AT 6D
000461: 35,2746           03523                                    RACT3
000462: 35,2747           46315                           PDVL     VPROJ                                 #  XCHNJ AND UP
000463: 35,2750           51352                           VSL2     BVSU
000464: 35,2751           02325                                    ULOS
000465: 35,2752           63256                           UNIT     PDVL                                  #  UP AT 0D
000466: 35,2753           63241                           DOT      PDVL                                  #  UP.UN*RA AT 0D
000467: 35,2754           00001                                    0D                                    #  UP IN MPAC
000468: 35,2755           75241                           DOT      SIGN
000469: 35,2756           02325                                    ULOS
000470: 35,2757           65552                           SL1      ACOS
000471: 35,2760           50315                           PDVL     DOT                                   #  EA AT 0D
000472: 35,2761           02325                                    ULOS
000473: 35,2762           03523                                    RACT3
000474: 35,2763           71244                           BPL      DLOAD
000475: 35,2764           72767                                    TESTY
000476: 35,2765           06241                                    DPPOSMAX
000477: 35,2766           41425                           DSU      PUSH
000478: 35,2767           71214        TESTY              BOFF     DLOAD
000479: 35,2770           03740                                    ITSWICH
000480: 35,2771           73216                                    ELEX
000481: 35,2772           03563                                    DELEL
000482: 35,2773           14033                           STODL    DELELO
000483: 35,2774           77625                           DSU
000484: 35,2775           02265                                    ELEV
000485: 35,2776           03563                           STORE    DELEL
000486: 35,2777           45246                           ABS      DSU
000487: 35,3000           33642                                    ELEPS
000488: 35,3001           77640                           BMN
000489: 35,3002           73226                                    TIMEX                                 #  COMMERCIALS EVERYWHERE
000490: 35,3003           70535        FIGTIME            SLOAD    SR1
000491: 35,3004           03601                                    TITER
000492: 35,3005           72030                           BHIZ     LXA,1
000493: 35,3006           03450                                    NORMEX                                #  TOO MANY ITERATIONS
000494: 35,3007           00154                                    MPAC
000495: 35,3010           77330                           SXA,1    VLOAD
000496: 35,3011           03600                                    TITER
000497: 35,3012           03537                                    RPASS3
000498: 35,3013           65256                           UNIT     PDDL
000499: 35,3014           00045                                    36D
000500: 35,3015           53515                           PDVL     UNIT
000501: 35,3016           03523                                    RACT3
000502: 35,3017           77725                           PDDL
000503: 35,3020           41525                           PDDL     PUSH
000504: 35,3021           00045                                    36D
000505: 35,3022           77621                           BDSU
000506: 35,3023           00015                                    12D
000507: 35,3024           14037                           STODL    30D                                   #  RP - RA MAGNITUDES
000508: 35,3025           06231                                    DPHALF
000509: 35,3026           41425                           DSU      PUSH
000510: 35,3027           02265                                    ELEV
000511: 35,3030           50165                           SIGN     BMN
000512: 35,3031           00037                                    30D
000513: 35,3032           03450                                    NORMEX
000514: 35,3033           71545                           DLOAD    COS
000515: 35,3034           56205                           DMP      DDV
000516: 35,3035           00017                                    14D
000517: 35,3036           00015                                    12D
000518: 35,3037           77676                           DCOMP                                          #  SINCE COS(180-A)=-COS A
000519: 35,3040           00035                           STORE    28D
000520: 35,3041           44246                           ABS      BDSU
000521: 35,3042           06231                                    DPHALF
000522: 35,3043           77240                           BMN      VLOAD
000523: 35,3044           03450                                    NORMEX
000524: 35,3045           02275                                    UNRM
000525: 35,3046           53435                           VXV      UNIT
000526: 35,3047           00007                                    6D                                    #  UN*RA
000527: 35,3050           41241                           DOT      DMP
000528: 35,3051           03531                                    VACT3
000529: 35,3052           00015                                    12D
000530: 35,3053           47315                           PDVL     VXV
000531: 35,3054           00001                                    0D
000532: 35,3055           03545                                    VPASS3
000533: 35,3056           53435                           VXV      UNIT
000534: 35,3057           00001                                    0D                                    #  (RP*VP)*RP
000535: 35,3060           41241                           DOT      DMP
000536: 35,3061           03545                                    VPASS3
000537: 35,3062           00017                                    14D
000538: 35,3063           77621                           BDSU
000539: 35,3064           63301                           NORM     PDVL                                  #  NORMALIZED WA - WP 12D
000540: 35,3065           00047                                    X1
000541: 35,3066           00007                                    6D
000542: 35,3067           50235                           VXV      DOT
000543: 35,3070           00001                                    0D
000544: 35,3071           02275                                    UNRM                                  #  RA*RP.UN 14D
000545: 35,3072           50315                           PDVL     DOT
000546: 35,3073           00001                                    0D
000547: 35,3074           00007                                    6D
000548: 35,3075           65552                           SL1      ACOS
000549: 35,3076           77765                           SIGN
000550: 35,3077           43225                           DSU      DAD                                   #  ALPHA PI
000551: 35,3100           06231                                    DPHALF
000552: 35,3101           02265                                    ELEV
000553: 35,3102           65525                           PDDL     ACOS
000554: 35,3103           00035                                    28D
000555: 35,3104           75221                           BDSU     SIGN
000556: 35,3105           06231                                    DPHALF
000557: 35,3106           00037                                    30D                                   #  CONTAINS RP-RA
000558: 35,3107           77615                           DAD
000559: 35,3110           56205                           DMP      DDV
000560: 35,3111           33634                                    TWOPI
000561: 35,3112           77605                           DMP
000562: 35,3113           41257                           SL*      DMP
000563: 35,3114           20176                                    0          -3,1
000564: 35,3115           51406                           PUSH     ABS
000565: 35,3116           50025                           DSU      BMN
000566: 35,3117           03561                                    SECMAX
000567: 35,3120           73124                                    OKMAX
000568: 35,3121           75345                           DLOAD    SIGN                                  #  REPLACE TIME WITH MAX TIME SIGNED
000569: 35,3122           03561                                    SECMAX
000570: 35,3123           77606                           PUSH
000571: 35,3124           51135        OKMAX              SLOAD    BPL                                   #  TEST FIRST ITERATION
000572: 35,3125           03601                                    TITER
000573: 35,3126           73134                                    REPETE
000574: 35,3127           71331                           SSP      DLOAD
000575: 35,3130           03601                                    TITER
000576: 35,3131           37777                           OCT      37777
000577: 35,3132           77650                           GOTO
000578: 35,3133           73172                                    STORDELT
000579: 35,3134           41345        REPETE             DLOAD    DMP
000580: 35,3135           03563                                    DELEL
000581: 35,3136           00033                                    DELELO
000582: 35,3137           71244                           BPL      DLOAD
000583: 35,3140           73150                                    NEXTES
000584: 35,3141           03561                                    SECMAX
000585: 35,3142           77605                           DMP
000586: 35,3143           33640                                    THIRD
000587: 35,3144           17561                           STODL    SECMAX
000588: 35,3145           70446                           ABS      SR1                                   #  CROSSED OVER SOLUTION
000589: 35,3146           52076                           DCOMP    GOTO                                  #  DT=(-SIGN(DTO)//DT//)/2
000590: 35,3147           73160                                    RESIGN
000591: 35,3150           51545        NEXTES             DLOAD    ABS
000592: 35,3151           03563                                    DELEL
000593: 35,3152           51525                           PDDL     ABS
000594: 35,3153           00033                                    DELELO
000595: 35,3154           77625                           DSU
000596: 35,3155           71240                           BMN      DLOAD
000597: 35,3156           73163                                    REVERS                                #  WRONG DIRECTION
000598: 35,3157           77646                           ABS
000599: 35,3160           52165        RESIGN             SIGN     GOTO
000600: 35,3161           03575                                    DELTEEO
000601: 35,3162           73172                                    STORDELT
000602: 35,3163           57545        REVERS             DLOAD    DCOMP
000603: 35,3164           03575                                    DELTEEO
000604: 35,3165           70406                           PUSH     SR1
000605: 35,3166           03575                           STORE    DELTEEO
000606: 35,3167           77615                           DAD
000607: 35,3170           77650                           GOTO
000608: 35,3171           73173                                    ADTIME
000609: 35,3172           03575        STORDELT           STORE    DELTEEO
000610: 35,3173           77615        ADTIME             DAD
000611: 35,3174           02335                                    NOMTPI                                #  SUM OF DELTA T:S
000612: 35,3175           02335                           STORE    NOMTPI
000613: 35,3176           63375                           VLOAD    PDVL
000614: 35,3177           03473                                    VAPREC
000615: 35,3200           03465                                    RAPREC
000616: 35,3201           77624                           CALL
000617: 35,3202           73402                                    GOINT
000618: 35,3203           77624                           CALL
000619: 35,3204           46172                                    ACTIVE                                #  STORE NEW RACT3 VACT3
000620: 35,3205           63375                           VLOAD    PDVL
000621: 35,3206           03515                                    VPPREC
000622: 35,3207           03507                                    RPPREC
000623: 35,3210           77624                           CALL
000624: 35,3211           73402                                    GOINT
000625: 35,3212           77624                           CALL
000626: 35,3213           46202                                    PASSIVE                               #  STORE NEW RPASS3 VPASS3
000627: 35,3214           77650                           GOTO
000628: 35,3215           72741                                    ELCALC
000629: 35,3216           43345        ELEX               DLOAD    DAD
000630: 35,3217           03623                                    TTPI
000631: 35,3220           02335                                    NOMTPI
000632: 35,3221           17623                           STODL    TTPI
000633: 35,3222           77614                           BON
000634: 35,3223           01310                                    ETPIFLAG
000635: 35,3224           73226                                    TIMEX
000636: 35,3225           02265                           STORE    ELEV
000637: 35,3226           52145        TIMEX              DLOAD    GOTO
000638: 35,3227           06233                                    ZEROVECS
000639: 35,3230           03450                                    NORMEX
000640:
000641:                                                                                                  #  ..... S34/35.1 .....
000642:
000643:                                                                                                  #  COMPUTE UNIT NORMAL AND LINE OF SIGHT VECTORS GIVEN THE ACTIVE AND
000644:                                                                                                  #  PASSIVE POS AND VEL AT TIME T3
000645:
000646: 35,3231           52375        S34/35.1           VLOAD    VSU
000647: 35,3232           03537                                    RPASS3
000648: 35,3233           03523                                    RACT3
000649: 35,3234           41456                           UNIT     PUSH
000650: 35,3235           26325                           STOVL    ULOS
000651: 35,3236           03523                                    RACT3
000652: 35,3237           53435                           VXV      UNIT
000653: 35,3240           03531                                    VACT3
000654: 35,3241           02275                           STORE    UNRM
000655: 35,3242           77616                           RVQ
000656:
000657:                                                                                                  #  ..... S34/35.2 .....
000658:
000659:                                                                                                  #  ADVANCE PASSIVE VEH TO RENDEZVOUS TIME AND GET REQ VEL FROM LAMBERT
000660:
000661: 35,3243           77220        S34/35.2           STQ      VLOAD
000662: 35,3244           03450                                    NORMEX
000663: 35,3245           03545                                    VPASS3
000664: 35,3246           65315                           PDVL     PDDL
000665: 35,3247           03537                                    RPASS3
000666: 35,3250           03577                                    INTIME
000667: 35,3251           65325                           PDDL     PDDL
000668: 35,3252           03616                                    TPASS4
000669: 35,3253           06233                                    ZEROVECS
000670: 35,3254           45006                           PUSH     CALL
000671: 35,3255           73406                                    INTINT                                #  GET TARGET VECTOR
000672: 35,3256           25772        S3435.25           STOVL    RTARG
000673: 35,3257           00007                                    VATT
000674: 35,3260           27473                           STOVL    VPASS4
000675: 35,3261           01772                                    RTARG
000676:                                                                                                  #  COMPUTE PHI = PI + (ACOS(UNIT RA.UNIT RP) - PI)SIGN(RA*RP.U)
000677: 35,3262           63256                           UNIT     PDVL                                  #  UNIT RP
000678: 35,3263           03523                                    RACT3
000679: 35,3264           41456                           UNIT     PUSH                                  #  UNIT RA
000680: 35,3265           50235                           VXV      DOT
000681: 35,3266           00001                                    0D
000682: 35,3267           02275                                    UNRM                                  #  RA*RP.U
000683: 35,3270           77715                           PDVL
000684: 35,3271           72441                           DOT      SL1                                   #  UNIT RA.UNIT RP
000685: 35,3272           00001                                    0D
000686: 35,3273           75326                           ACOS     SIGN
000687: 35,3274           43244                           BPL      DAD
000688: 35,3275           73277                                    NOPIE
000689: 35,3276           06241                                    DPPOSMAX                              #  REASONABLE TWO PI
000690: 35,3277           15770        NOPIE              STODL    ACTCENT
000691: 35,3300           03616                                    TPASS4
000692: 35,3301           77625                           DSU
000693: 35,3302           03577                                    INTIME
000694: 35,3303           02355                           STORE    DELLT4
000695: 35,3304           45135                           SLOAD    CALL
000696: 35,3305           33644                                    DECTWO
000697: 35,3306           22002                                    PREINITV
000698: 35,3307           77624                           CALL
000699: 35,3310           73367                                    LOMAT
000700: 35,3311           64375                           VLOAD    MXV
000701: 35,3312           03363                                    DELVEET3
000702: 35,3313           00001                                    0D
000703: 35,3314           77772                           VSL1
000704: 35,3315           36267                           STCALL   DELVLVC
000705: 35,3316           03450                                    NORMEX
000706:
000707:                                                                                                  #  ..... S34/35.3 .....
000708:
000709: 35,3317           45020        S34/35.3           STQ      CALL
000710: 35,3320           03450                                    NORMEX
000711: 35,3321           73367                                    LOMAT                                 #  GET MATRIX IN PUSH LIST
000712: 35,3322           61375                           VLOAD    VXM
000713: 35,3323           02267                                    DELVLVC                               #  NEW DEL V TPI
000714: 35,3324           00001                                    0D
000715: 35,3325           77772                           VSL1
000716: 35,3326           03363                           STORE    DELVEET3                              #  SAVE FOR TRANSFORM
000717: 35,3327           63255                           VAD      PDVL
000718: 35,3330           03531                                    VACT3                                 #  NEW V REQ
000719: 35,3331           03523                                    RACT3
000720: 35,3332           65325                           PDDL     PDDL
000721: 35,3333           03425                                    TIG
000722: 35,3334           03616                                    TPASS4
000723: 35,3335           41525                           PDDL     PUSH
000724: 35,3336           06241                                    DPPOSMAX
000725: 35,3337           77624                           CALL                                           #  INTEG. FOR NEW TARGET VEC
000726: 35,3340           73406                                    INTINT
000727: 35,3341           77775                           VLOAD
000728: 35,3342           00001                                    RATT
000729: 35,3343           01772                           STORE    RTARG
000730: 35,3344           41575        NOVRWRT            VLOAD    PUSH
000731: 35,3345           02325                                    ULOS
000732: 35,3346           57435                           VXV      VCOMP
000733: 35,3347           02275                                    UNRM
000734: 35,3350           41456                           UNIT     PUSH
000735: 35,3351           76435                           VXV      VSL1
000736: 35,3352           02325                                    ULOS
000737: 35,3353           77715                           PDVL
000738: 35,3354           64315                           PDVL     MXV
000739: 35,3355           03363                                    DELVEET3
000740: 35,3356           00001                                    0D
000741: 35,3357           77772                           VSL1
000742: 35,3360           36317                           STCALL   DVLOS
000743: 35,3361           03450                                    NORMEX
000744:
000745:                                                                                                  #  ..... S34/35.4 .....
000746:
000747: 35,3362           40220        S34/35.4           STQ      SETPD                                 #  NO ASTRONAUT OVERWRITE
000748: 35,3363           03450                                    NORMEX
000749: 35,3364           00001                                    0D
000750: 35,3365           77650                           GOTO
000751: 35,3366           73344                                    NOVRWRT
000752:
000753:                                                                                                  #  ..... LOMAT     .....
000754:
000755: 35,3367           57575        LOMAT              VLOAD    VCOMP
000756: 35,3370           02275                                    UNRM
000757: 35,3371           24007                           STOVL    6D                                    #  Y
000758: 35,3372           03523                                    RACT3
000759: 35,3373           57456                           UNIT     VCOMP
000760: 35,3374           00015                           STORE    12D
000761: 35,3375           76435                           VXV      VSL1
000762: 35,3376           02275                                    UNRM                                  #  Z*-Y
000763: 35,3377           00001                           STORE    0D
000764: 35,3400           43401                           SETPD    RVQ
000765: 35,3401           00023                                    18D
000766: 35,3402           65325        GOINT              PDDL     PDDL                                  #  DO
000767: 35,3403           06233                                    ZEROVECS                              #        NOT
000768: 35,3404           02335                                    NOMTPI
000769: 35,3405           41406                           PUSH     PUSH                                  #                ORDER OR INSERT BEFORE INTINT
000770: 35,3406           45020        INTINT             STQ      CALL
000771: 35,3407           03452                                    RTRN
000772: 35,3410           27362                                    INTSTALL
000773: 35,3411           71214                           CLEAR    DLOAD
000774: 35,3412           01673                                    INTYPFLG
000775: 35,3413           43054                           BZE      SET
000776: 35,3414           73416                                    +2
000777: 35,3415           01473                                    INTYPFLG
000778: 35,3416           45545                           DLOAD    STADR
000779: 35,3417           63736                           STODL    TDEC1
000780: 35,3420           73014                           SET      LXA,2
000781: 35,3421           00063                                    MOONFLAG
000782: 35,3422           02333                                    RTX2
000783: 35,3423           43014                           BON      CLEAR
000784: 35,3424           04303                                    CMOONFLG
000785: 35,3425           73427                                    ALLSET
000786: 35,3426           00263                                    MOONFLAG
000787: 35,3427           25517        ALLSET             STOVL    TET
000788: 35,3430           77657                           VSR*
000789: 35,3431           57176                                    0,2
000790: 35,3432           25535                           STOVL    RCV
000791: 35,3433           77657                           VSR*
000792: 35,3434           57176                                    0,2
000793: 35,3435           35543                           STCALL   VCV
000794: 35,3436           27060                                    INTEGRVS
000795: 35,3437           52175                           VLOAD    GOTO
000796: 35,3440           00001                                    RATT
000797: 35,3441           03452                                    RTRN
000798:
000799:                                                                                                  #  ..... S34/35.5 .....
000800:                                                                                                  #  SUBROUTINES USED
000801:                                                                                                  #        BANKCALL
000802:                                                                                                  #        GOFLASH
000803:                                                                                                  #        GOTOPOOH
000804:                                                                                                  #        S34/35.3
000805:                                                                                                  #        S34/35.4
000806:                                                                                                  #        VNPOOH
000807:
000808: 35,3442           43020        S34/35.5           STQ      BON
000809: 35,3443           03455                                    SUBEXIT
000810: 35,3444           01311                                    FINALFLG
000811: 35,3445           73451                                    FLAGON
000812: 35,3446           52014                           SET      GOTO
000813: 35,3447           00470                                    UPDATFLG
000814: 35,3450           73475                                    FLAGOFF
000815: 35,3451           77414        FLAGON             CLEAR    EXIT
000816: 35,3452           03274                                    NTARGFLG
000817: 35,3453           33631                 +2        CAF      V06N81
000818: 35,3454           04655                           TC       BANKCALL
000819: 35,3455           20406                           CADR     GOFLASH
000820: 35,3456           04106                           TC       GOTOPOOH
000821: 35,3457           03464                           TC       +5                                    #  PRO
000822: 35,3460           06014                           TC       INTPRET
000823: 35,3461           77414                           SET      EXIT
000824: 35,3462           03074                                    NTARGFLG
000825: 35,3463           03453                           TC       FLAGON     +2
000826:
000827: 35,3464           06014                           TC       INTPRET
000828: 35,3465           45014                           BOFF     CALL
000829: 35,3466           03354                                    NTARGFLG
000830: 35,3467           73471                                    NOCHG
000831: 35,3470           73317                                    S34/35.3
000832: 35,3471           77214        NOCHG              CLEAR    VLOAD
000833: 35,3472           01267                                    XDELVFLG
000834: 35,3473           03363                                    DELVEET3
000835: 35,3474           03643                           STORE    DELVSIN
000836: 35,3475           77624        FLAGOFF            CALL
000837: 35,3476           73362                                    S34/35.4
000838: 35,3477           77776                           EXIT
000839: 35,3500           33630                           CAF      V06N59
000840: 35,3501           03614                           TC       VNPOOH
000841: 35,3502           06014                           TC       INTPRET
000842: 35,3503           77650                           GOTO
000843: 35,3504           03455                                    SUBEXIT
000844:
000845:                                                                                                  #  ..... VN1645    .....
000846:
000847:                                                                                                  #  SUBROUTINES USED
000848:                                                                                                  #        P3XORP7X
000849:                                                                                                  #        GET+MGA
000850:                                                                                                  #        BANKCALL
000851:                                                                                                  #        DELAYJOB
000852:                                                                                                  #        COMPTGO
000853:                                                                                                  #        GOFLASHR
000854:                                                                                                  #        GOTOPOOH
000855:                                                                                                  #        FLAGUP
000856:
000857: 35,3505           71220        VN1645             STQ      DLOAD
000858: 35,3506           03455                                    SUBEXIT
000859: 35,3507           33645                                    DP-.01
000860: 35,3510           02261                           STORE    +MGA                                  #  MGA = -.01
000861: 35,3511           71214                           BOFF     DLOAD
000862: 35,3512           01351                                    FINALFLG
000863: 35,3513           73533                                    GET45
000864: 35,3514           33645                                    DP-.01
000865: 35,3515           77615                           DAD
000866: 35,3516           33645                                    DP-.01
000867: 35,3517           02261                           STORE    +MGA                                  #  MGA = -.02
000868: 35,3520           77414                           BOFF     EXIT
000869: 35,3521           01742                                    REFSMFLG
000870: 35,3522           73533                                    GET45
000871: 35,3523           03606                           TC       P3XORP7X
000872: 35,3524           03526                           TC       +2                                    #  P3X
000873: 35,3525           03534                           TC       GET45      +1                         #  P7X
000874: 35,3526           06014                           TC       INTPRET
000875: 35,3527           41575                           VLOAD    PUSH
000876: 35,3530           03643                                    DELVSIN
000877: 35,3531           77624                           CALL                                           #  COMPUTE MGA
000878: 35,3532           20007                                    GET+MGA
000879: 35,3533           77776        GET45              EXIT
000880: 35,3534           02465                           TC       COMPTGO                               #  INITIATE TASK TO UPDATE TTOGO
000881: 35,3535           31455                           CA       SUBEXIT
000882: 35,3536           55451                           TS       QSAVED
000883: 35,3537           35047                           CAF      1SEC
000884: 35,3540           04655                           TC       BANKCALL
000885: 35,3541           01730                           CADR     DELAYJOB
000886: 35,3542           33632                           CAF      V16N45                                #  TRKMKCNT, TTOGO, +MGA
000887: 35,3543           04655                           TC       BANKCALL
000888: 35,3544           20406                           CADR     GOFLASH
000889: 35,3545           03550                           TC       KILCLOCK                              #  TERMINATE
000890: 35,3546           03553                           TC       N45PROC                               #  PROCEED
000891: 35,3547           03563                           TC       CLUPDATE                              #  RECYCLE - RETURN FOR INITIAL COMPUTATION
000892: 35,3550           33633        KILCLOCK           CA       TWOPI
000893: 35,3551           55175                           TS       DISPDEX
000894: 35,3552           04106                           TC       GOTOPOOH
000895: 35,3553           40076        N45PROC            CS       FLAGWRD2
000896: 35,3554           75021                           MASK     BIT6
000897: 35,3555           00006                           EXTEND
000898: 35,3556           13550                           BZF      KILCLOCK                              #  FINALFLG IS SET-FLASH V37-AWAIT NEW PGM
000899: 35,3557           05413                           TC       PHASCHNG
000900: 35,3560           04024                           OCT      04024
000901: 35,3561           05563                           TC       UPFLAG                                #  SET
000902: 35,3562           00047                           ADRES    FINALFLG                              #  FINALFLG
000903: 35,3563           33633        CLUPDATE           CA       TWOPI
000904: 35,3564           55175                           TS       DISPDEX
000905: 35,3565           05413                           TC       PHASCHNG
000906: 35,3566           04024                           OCT      04024
000907: 35,3567           06014                           TC       INTPRET
000908: 35,3570           52014                           CLEAR    GOTO
000909: 35,3571           00670                                    UPDATFLG
000910: 35,3572           03451                                    QSAVED
000911:
000912:                                                                                                  #  ..... DISPLAYE  .....
000913:
000914:                                                                                                  #  SUBROUTINES USED
000915:                                                                                                  #        BANKCALL
000916:                                                                                                  #        GOFLASHR
000917:                                                                                                  #        GOTOPOOH
000918:                                                                                                  #        BLANKET
000919:                                                                                                  #        ENDOFJOB
000920:
000921: 35,3573           00006        DISPLAYE           EXTEND
000922: 35,3574           23450                           QXCH     NORMEX
000923: 35,3575           33626                           CAF      V06N55
000924: 35,3576           04655                           TCR      BANKCALL
000925: 35,3577           20544                           CADR     GOFLASHR
000926: 35,3600           14106                           TCF      GOTOPOOH
000927: 35,3601           01450                           TC       NORMEX
000928: 35,3602           13575                           TCF      -5
000929: 35,3603           35026                           CAF      BIT1                                  #  BLANK R1
000930: 35,3604           05553                           TCR      BLANKET
000931: 35,3605           15225                           TCF      ENDOFJOB
000932:
000933:                                                                                                  #  ..... P3XORP7X  .....
000934:
000935: 35,3606           37715        P3XORP7X           CAF      HIGH9
000936: 35,3607           71012                           MASK     MODREG
000937: 35,3610           00006                           EXTEND
000938: 35,3611           13613                           BZF      +2
000939: 35,3612           24002                           INCR     Q
000940: 35,3613           00002                           RETURN
000941:
000942:                                                                                                  #  ..... VNPOOH   .....
000943:
000944:                                                                                                  #  SUBROUTINES USED
000945:                                                                                                  #        BANKCALL
000946:                                                                                                  #        GOFLASH
000947:                                                                                                  #        GOTOPOOH
000948:
000949: 35,3614           00006        VNPOOH             EXTEND
000950: 35,3615           23452                           QXCH     RTRN
000951: 35,3616           55602                           TS       VERBNOUN
000952: 35,3617           31602                           CA       VERBNOUN
000953: 35,3620           04655                           TCR      BANKCALL
000954: 35,3621           20406                           CADR     GOFLASH
000955: 35,3622           14106                           TCF      GOTOPOOH
000956: 35,3623           01452                           TC       RTRN
000957: 35,3624           13617                           TCF      -5
000958:
000959:                                                                                                  #  ..... CONSTANTS .....
000960:
000961: 35,3625           01445        V06N37             VN       0637
000962: 35,3626           01467        V06N55             VN       0655
000963: 35,3627           01472        V06N58             VN       0658
000964: 35,3630           01473        V06N59             VN       0659
000965: 35,3631           01521        V06N81             VN       0681
000966: 35,3632           04055        V16N45             VN       1645
000967: 35,3633           14441 37325  TWOPI              2DEC     6.283185307 B-4
000968:
000969: 35,3635           00001 20650  MAX250             2DEC     25         E3
000970:
000971: 35,3637           12525 12525  THIRD              2DEC     .333333333
000972:
000973: 35,3641           00004 21505  ELEPS              2DEC     .27777777  E-3
000974: 35,3643           00002        DECTWO             OCT      2
000975: 35,3644           77777        DP-.01             OCT      77777                                 #  CONSTANTS
000976: 35,3645           61337                           OCT      61337                                 #  ADJACENT      -.01 FOR MGA DSP
000977:
000978:


000980:
000981:                                                                                                  #  ..... INITVEL .....
000982:
000983:                                                                                                  #  MOD NO -1                     LOG SECTION - P34-P35, P74-P75
000984:                                                                                                  #  MOD BY WHITE.P                DATE  21NOV67
000985:
000986:                                                                                                  #  FUNCTIONAL DESCRIPTION
000987:
000988:                                                                                                  #        THIS SUBROUTINE COMPUTES THE REQUIRED INITIAL VELOCITY VECTOR FOR
000989:                                                                                                  #        A TRAJECTORY OF SPECIFIED TRANSFER TIME BETWEEN SPECIFIED INITIAL
000990:                                                                                                  #        AND TARGET POSITIONS.  THE TRAJECTORY MAY BE EITHER CONIC OR
000991:                                                                                                  #        PRECISION DEPENDING ON AN INPUT PARAMETER (NAMELY, NUMBER OF
000992:                                                                                                  #        OFFSETS).  IN ADDITION, IN THE PRECISION TRAJECTORY CASE, THE
000993:                                                                                                  #        SUBROUTINE ALSO COMPUTES AN OFFSET TARGET VECTOR, TO BE USED
000994:                                                                                                  #        DURING PURE-CONIC CROSS-PRODUCT STEERING.  THE OFFSET TARGET
000995:                                                                                                  #        VECTOR IS THE TERMINAL POSITION VECTOR OF A CONIC TRAJECTORY WHICH
000996:                                                                                                  #        HAS THE SAME INITIAL STATE AS A PRECISION TRAJECTORY WHOSE
000997:                                                                                                  #        TERMINAL POSITION VECTOR IS THE SPECIFIED TARGET VECTOR.
000998:
000999:                                                                                                  #        IN ORDER TO AVOID THE INHERENT SINGULARITIES IN THE 180 DEGREE
001000:                                                                                                  #        TRANSFER CASE WHEN THE (TRUE OR OFFSET) TARGET VECTOR MAY BE
001001:                                                                                                  #        SLIGHTLY OUT OF THE ORBITAL PLANE, THIS SUBROUTINE ROTATES THIS
001002:                                                                                                  #        VECTOR INTO A PLANE DEFINED BY THE INPUT INITIAL POSITION VECTOR
001003:                                                                                                  #        AND ANOTHER INPUT VECTOR (USUALLY THE INITIAL VELOCITY VECTOR),
001004:                                                                                                  #        WHENEVER THE INPUT TARGET VECTOR LIES INSIDE A CONE WHOSE VERTEX
001005:                                                                                                  #        IS THE ORIGIN OF COORDINATES, WHOSE AXIS IS THE 180 DEGREE
001006:                                                                                                  #        TRANSFER DIRECTION, AND WHOSE CONE ANGLE IS SPECIFIED BY THE USER.
001007:
001008:                                                                                                  #        THE LAMBERT SUBROUTINE IS UTILIZED FOR THE CONIC COMPUTATIONS AND
001009:                                                                                                  #        THE COASTING INTEGRATION SUBROUTINE IS UTILIZED FOR THE PRECISION
001010:                                                                                                  #        TRAJECTORY COMPUTATIONS.
001011:
001012:                                                                                                  #  CALLING SEQUENCE
001013:
001014:                                                                                                  #        L       CALL
001015:                                                                                                  #        L+1             INITVEL
001016:                                                                                                  #        L+2     (RETURN - ALWAYS)
001017:
001018:                                                                                                  #  INPUT
001019:
001020:                                                                                                  #        (1)     RINIT           INITIAL POSITION RADIUS VECTOR
001021:                                                                                                  #        (2)     VINIT           INITIAL POSITION VELOCITY VECTOR
001022:                                                                                                  #        (3)     RTARG           TARGET POSITION RADIUS VECTOR
001023:                                                                                                  #        (4)     DELLT4          DESIRED TIME OF FLIGHT FROM RINIT TO RTARG
001024:                                                                                                  #        (5)     INTIME          TIME OF RINIT
001025:                                                                                                  #        (6)     0D              NUMBER OF ITERATIONS OF LAMBERT/INTEGRVS
001026:                                                                                                  #        (7)     2D              ANGLE TO 180 DEGREES WHEN ROTATION STARTS
001027:                                                                                                  #        (8)     X1              -2 FOR EARTH, -10D FOR LUNAR
001028:                                                                                                  #        (9)     B29FLAG         CLEAR IF EARTH IS CENTRAL BODY
001029:                                                                                                  #        PUSHLOC SET AT 4D
001030:
001031:                                                                                                  #  OUTPUT
001032:
001033:                                                                                                  #        (1)     RTARG           OFFSET TARGET POSITION VECTOR
001034:                                                                                                  #        (2)     VIPRIME         MANEUVER VELOCITY REQUIRED
001035:                                                                                                  #        (3)     VTPRIME         VELOCITY AT TARGET AFTER MANEUVER
001036:                                                                                                  #        (4)     DELVEET3        DELTA VELOCITY REQUIRED FOR MANEUVER
001037:
001038:                                                                                                  #  SUBROUTINES USED
001039:
001040:                                                                                                  #        LAMBERT
001041:                                                                                                  #        INTSTALL
001042:                                                                                                  #        INTEGRVS
001043:
001044: 11,2000                                           SETLOC   INTVEL
001045: 11,2000                                           BANK
001046:
001047: 11,2000                                           COUNT*   $$/INITV
001048: 11,2000           01252 25253  EPSFOUR            2DEC     .0416666666
001049:
001050: 11,2002           43001        PREINITV           SETPD    CLEAR
001051: 11,2003           00001                                    0
001052: 11,2004           00275                                    B29FLAG
001053: 11,2005           63325                           PDDL     PDVL
001054: 11,2006           22001                                    EPSFOUR
001055: 11,2007           03523                                    RACT3
001056: 11,2010           26341                           STOVL    RINIT
001057: 11,2011           03531                                    VACT3
001058: 11,2012           02347                           STORE    VINIT
001059: 11,2013           43160                           AXC,1    BOFF
001060: 11,2014           00002                                    2D
001061: 11,2015           04343                                    CMOONFLG
001062: 11,2016           22022                                    INITVEL
001063: 11,2017           74014                           SET      AXC,1
001064: 11,2020           00075                                    B29FLAG
001065: 11,2021           00012                                    10D
001066:
001067: 11,2022           77614        INITVEL            SET                                            #  COGA GUESS NOT AVAILABLE
001068: 11,2023           00475                                    GUESSW
001069: 11,2024           77620        HAVEGUES           STQ
001070: 11,2025           03452                                    RTRN
001071: 11,2026           43130                           SXA,1    BOFF
001072: 11,2027           03564                                    X1INPUT
001073: 11,2030           00355                                    B29FLAG
001074: 11,2031           22043                                    INITVEL1
001075: 11,2032           72575                           VLOAD    VSL2
001076: 11,2033           02341                                    RINIT                                 #  B29
001077: 11,2034           26341                           STOVL    RINIT                                 #  B27
001078: 11,2035           02347                                    VINIT                                 #  B7
001079: 11,2036           77752                           VSL2
001080: 11,2037           26347                           STOVL    VINIT                                 #  B5
001081: 11,2040           01772                                    RTARG
001082: 11,2041           77752                           VSL2
001083: 11,2042           01772                           STORE    RTARG
001084:                                                                                                  #  INITIALIZATION
001085:
001086: 11,2043           71331        INITVEL1           SSP      DLOAD                                 #  SET ITCTR TO -1,LOAD MPAC WITH E4 (PL 2D)
001087: 11,2044           03604                                    ITCTR
001088: 11,2045           77776                                    0          -1
001089: 11,2046           70546                           COSINE   SR1                                   #  CALCULATE COSINE (E4)   (+2)
001090: 11,2047           17654                           STODL    COZY4                                 #  SET COZY4 TO COSINE (E4)          (PL 0D)
001091: 11,2050           67154                           LXA,2    SXA,2
001092: 11,2051           00154                                    MPAC
001093: 11,2052           02701                                    VTARGTAG                              #  SET VTARGTAG TO 0D (SP)
001094: 11,2053           77775                           VLOAD
001095: 11,2054           02341                                    RINIT
001096: 11,2055           26655                           STOVL    R1VEC                                 #  R1VEC EQ RINIT
001097: 11,2056           01772                                    RTARG
001098: 11,2057           16663                           STODL    R2VEC                                 #  R2VEC EQ RTARG
001099: 11,2060           02355                                    DELLT4
001100: 11,2061           02671                           STORE    TDESIRED                              #  TDESIRED EQ DELLT4
001101: 11,2062           77201                           SETPD    VLOAD
001102: 11,2063           00001                                    0D                                    #  INITIALIZE PL TO 0D
001103: 11,2064           02341                                    RINIT                                 #  MPAC EQ RINIT (+29)
001104: 11,2065           41456                           UNIT     PUSH                                  #  UNIT(RI) (+1)                     (PL 6D)
001105: 11,2066           53435                           VXV      UNIT
001106: 11,2067           02347                                    VINIT                                 #  MPAC EQ UNIT(RI) X VI   (+8)
001107: 11,2070           26674                           STOVL    UN
001108: 11,2071           01772                                    RTARG
001109: 11,2072           50256                           UNIT     DOT                                   #  TEMP=URT.URI (+2)                 (PL 0D)
001110: 11,2073           43015                           DAD      CLEAR
001111: 11,2074           03654                                    COZY4
001112: 11,2075           03665                                    NORMSW
001113: 11,2076           03654                           STORE    COZY4
001114: 11,2077           43044        INITVEL2           BPL      SET
001115: 11,2100           22122                                    INITVEL3                              #  UN CALCULATED IN LAMBERT
001116: 11,2101           03465                                    NORMSW
001117:
001118:                                                                                                  #  ROTATE RC INTO YC PLANE - SET UNIT NORMAL TO YC
001119:
001120: 11,2102           41575                           VLOAD    PUSH                                  #                                    (PL 6D)
001121: 11,2103           02663                                    R2VEC                                 #  RC TO 6D (+29)
001122: 11,2104           63246                           ABVAL    PDVL                                  #  RC TO MPAC, ABVAL(RC) (+29) TO OD (PL 2D)
001123: 11,2105           46206                           PUSH     VPROJ                                 #                                    (PL 8D)
001124: 11,2106           02674                                    UN
001125: 11,2107           51352                           VSL2     BVSU
001126: 11,2110           74256                           UNIT     VXSC                                  #                                    (PL 0D)
001127: 11,2111           77772                           VSL1
001128: 11,2112           02663                           STORE    R2VEC
001129: 11,2113           67351                           TLOAD    SLOAD
001130: 11,2114           22276                                    ZEROVEC
001131: 11,2115           03604                                    ITCTR
001132: 11,2116           77244                           BPL      VLOAD
001133: 11,2117           22122                                    INITVEL3
001134: 11,2120           02663                                    R2VEC
001135: 11,2121           01772                           STORE    RTARG
001136: 11,2122           63345        INITVEL3           DLOAD    PDVL                                  #                                    (PL 2D)
001137: 11,2123           22001                                    EPSFOUR                               #  POSITIVE VALUE
001138: 11,2124           02674                                    UN
001139: 11,2125           50235                           VXV      DOT                                   #                                    (PL 2D)
001140: 11,2126           02655                                    R1VEC
001141: 11,2127           02663                                    R2VEC
001142: 11,2130           71244                           BPL      DLOAD                                 #                                    (PL 0D)
001143: 11,2131           22133                                    INITVEL4
001144: 11,2132           41476                           DCOMP    PUSH                                  #                                    (PL 2D)
001145: 11,2133           67154        INITVEL4           LXA,2    SXA,2
001146: 11,2134           00000                                    0D
001147: 11,2135           02672                                    GEOMSGN
001148:                                                                                                  #  SET INPUTS UP FOR LAMBERT
001149:
001150: 11,2136           43131                           SSP      BOFF
001151: 11,2137           00027                                    ITERCTR
001152: 11,2140           00024                                    20D
001153: 11,2141           03752                                    AVEGFLAG
001154: 11,2142           22146                                    +4
001155: 11,2143           77731                           SSP
001156: 11,2144           00027                                    ITERCTR
001157: 11,2145           00005                                    5
001158: 11,2146           45150                           LXA,1    CALL
001159: 11,2147           03564                                    X1INPUT
001160:                                                                                                  #   OPERATE THE LAMBERT CONIC ROUTINE (COASTFLT SUBROUTINE)
001161:
001162: 11,2150           25254                                    LAMBERT
001163:
001164:                                                                                                  #        DELETE THRU 4521
001165:                                                                                                  #  ARRIVED AT SOLUTION IS GOOD ENOUGH ACCORDING TO SLIGHTLY WIDER BOUNDS.
001166:
001167: 11,2151           77214                           CLEAR    VLOAD
001168: 11,2152           00675                                    GUESSW
001169: 11,2153           02744                                    VVEC
001170:
001171:                                                                                                  #  STORE CALCULATED INITIAL VELOCITY REQUIRED IN VIPRIME
001172:
001173: 11,2154           16357                           STODL    VIPRIME                               #  INITIAL VELOCITY REQUIRED (+7)
001174:
001175:                                                                                                  #     IF NUMIT IS ZERO, CONTINUE AT INITVELB, OTHERWISE
001176:                                                                                                  #  SET UP INPUTS FOR ENCKE INTEGRATION (INTEGRVS).
001177:
001178: 11,2155           02702                                    VTARGTAG
001179: 11,2156           45030                           BHIZ     CALL
001180: 11,2157           22237                                    INITVEL7
001181: 11,2160           27362                                    INTSTALL
001182:
001183: 11,2161           63154                           LXA,2    INCR,2
001184: 11,2162           03564                                    X1INPUT
001185: 11,2163           00002                                    2D
001186: 11,2164           43135                           SLOAD    CLEAR
001187: 11,2165           00050                                    X2
001188: 11,2166           00263                                    MOONFLAG
001189: 11,2167           43030                           BHIZ     SET
001190: 11,2170           22172                                    INITVEL5
001191: 11,2171           00063                                    MOONFLAG
001192: 11,2172           77775        INITVEL5           VLOAD
001193: 11,2173           02341                                    RINIT
001194: 11,2174           02655                           STORE    R1VEC
001195: 11,2175           25535                           STOVL    RCV
001196: 11,2176           02357                                    VIPRIME
001197: 11,2177           15543                           STODL    VCV
001198: 11,2200           03577                                    INTIME
001199: 11,2201           01517                           STORE    TET
001200: 11,2202           43015                           DAD      CLEAR
001201: 11,2203           02355                                    DELLT4
001202: 11,2204           01673                                    INTYPFLG
001203: 11,2205           34041                           STCALL   TDEC1
001204: 11,2206           27060                                    INTEGRVS
001205: 11,2207           77775                           VLOAD
001206: 11,2210           00025                                    VATT1
001207: 11,2211           02703                           STORE    VTARGET
001208:                                                                                                  #  IF ITERATION COUNTER (ITCTR) EQ NO. ITERATIONS (NUMIT), CONTINUE AT
001209:                                                                                                  #  INITVELC, OTHERWISE REITERATE LAMBERT AND ENCKE
001210:
001211: 11,2212           63154                           LXA,2    INCR,2
001212: 11,2213           03603                                    ITCTR
001213: 11,2214           00001                                    1D                                    #  INCREMENT ITCTR
001214: 11,2215           55134                           SXA,2    XSU,2
001215: 11,2216           03603                                    ITCTR
001216: 11,2217           02701                                    VTARGTAG
001217: 11,2220           46135                           SLOAD    BHIZ                                  #  IF SP(MPAC) EQ 0, CONTINUE AT INITVELC
001218: 11,2221           00050                                    X2
001219: 11,2222           22234                                    INITVEL6
001220:
001221:                                                                                                  #  OFFSET CONIC TARGET VECTOR
001222:
001223: 11,2223           52375                           VLOAD    VSU
001224: 11,2224           01772                                    RTARG
001225: 11,2225           00017                                    RATT1
001226: 11,2226           77655                           VAD
001227: 11,2227           02663                                    R2VEC
001228: 11,2230           16663                           STODL    R2VEC
001229: 11,2231           03654                                    COZY4
001230: 11,2232           77650                           GOTO
001231: 11,2233           22077                                    INITVEL2                              #  CONTINUE ITERATING AT INITVEL2
001232:                                                                                                  #  COMPUTE THE DELTA VELOCITY
001233:
001234: 11,2234           77775        INITVEL6           VLOAD
001235: 11,2235           02663                                    R2VEC
001236: 11,2236           01772                           STORE    RTARG
001237: 11,2237           52375        INITVEL7           VLOAD    VSU
001238: 11,2240           02357                                    VIPRIME
001239: 11,2241           02347                                    VINIT
001240: 11,2242           27363                           STOVL    DELVEET3                              #  DELVEET3 = VIPRIME-VINIT (+7)
001241: 11,2243           02703                                    VTARGET
001242: 11,2244           03553                           STORE    VTPRIME
001243: 11,2245           70414                           BOFF     VSR2
001244: 11,2246           00355                                    B29FLAG
001245: 11,2247           22262                                    INITVELX
001246: 11,2250           27553                           STOVL    VTPRIME
001247: 11,2251           02357                                    VIPRIME
001248: 11,2252           77742                           VSR2
001249: 11,2253           26357                           STOVL    VIPRIME
001250: 11,2254           01772                                    RTARG
001251: 11,2255           77742                           VSR2
001252: 11,2256           25772                           STOVL    RTARG
001253: 11,2257           03363                                    DELVEET3
001254: 11,2260           77742                           VSR2
001255: 11,2261           03363                           STORE    DELVEET3
001256: 11,2262           72001        INITVELX           SETPD    LXA,1
001257: 11,2263           00001                                    0D
001258: 11,2264           03564                                    X1INPUT
001259: 11,2265           77650                           GOTO
001260: 11,2266           03452                                    RTRN
001261:
001262:                                                                                                  #  ..... END OF INITVEL ROUTINE .....
001263:
001264:                                                                                                  #  ..... MIDGIM .....
001265:
001266:                                                                                                  #  MOD NO. 0, BY WILLMAN, SUBROUTINE RENDGUID, LOG P34-P35, P74-P75
001267:                                                                                                  #   REVISION 03, 17 FEB 67
001268:
001269:                                                                                                  #  IF THE ACTIVE VEHICLE IS DOING THE COMPUTATION, MIDGIM COMPUTES
001270:                                                                                                  #  THE POSITIVE MIDDLE GIMBAL ANGLE OF THE ACTIVE VEHICLE TO THE INPUT
001271:                                                                                                  #  DELTA VELOCITY VECTOR (0D IN PUSH LIST), OTHERWISE
001272:                                                                                                  #  MIDGIM CONVERTS THE INPUT DELTA VELOCITY VECTOR FROM INERTIAL COORDIN-
001273:                                                                                                  #  ATES TO LOCAL VERTICAL COORDINATES OF THE ACTIVE VEHICLE.
001274:
001275:                                                                                                  #  .. INPUTS ..
001276:
001277:                                                                                                  #        NAME    MEANING                                         UNITS/SCALING/MODE
001278:
001279:                                                                                                  #        AVFLAG  INT FLAG - 0 IS CSM ACTIVE, 1 IS LEM ACTIVE                     BIT
001280:                                                                                                  #       COMPUTER INT FLAG - 0 IS LEM COMPUTER, 1 IS CSM COMPUTER                 BIT
001281:                                                                                                  #        RINIT   ACTIVE VEHICLE RADIUS VECTOR                    METERS/CSEC (+7) VT
001282:                                                                                                  #        VINIT   ACTIVE VEHICLE VELOCITY VECTOR                  METERS/CSEC (+7) VT
001283:                                                                                                  #        0D(PL)  ACTIVE VEHICLE DELTA VELOCITY VECTOR            METERS/CSEC (+7) VT
001284:
001285:                                                                                                  #  .. OUTPUTS ..
001286:
001287:                                                                                                  #     NAME       MEANING                                         UNITS/SCALING/MODE
001288:
001289:                                                                                                  #     +MGA       + MIDDLE GIMBAL ANGLE                           REVOLUTIONS (+0) DP
001290:                                                                                                  #     DELVLVC    DELTA VELOCITY VECTOR IN LV COORD.              METERS/CSEC (+7) VT
001291:                                                                                                  #     MGLVFLAG   INT FLAG - 0 IS +MGA COMPUTED, 1 IS DELVLVC COMP.       -       BIT
001292:
001293:                                                                                                  #  .. CALLING SEQUENCE ..
001294:
001295:                                                                                                  #        L       CALL
001296:                                                                                                  #        L+1             MIDGIM
001297:                                                                                                  #        L+2     (RETURN - ALWAYS)
001298:
001299:                                                                                                  #  .. NO SUBROUTINES CALLED ..
001300:
001301:                                                                                                  #  .. DEBRIS - ERASEABLE TEMPORARY USAGE
001302:
001303:                                                                                                  #        A,Q,L, PUSH LIST, MPAC.
001304:
001305:                                                                                                  #  .. ALARMS - NONE ..
001306:
001307:                                                                                                  #  MIDDLE GIMBAL ANGLE COMPUTATION.
001308:
001309: 10,2000                                           SETLOC   MIDDGIM
001310: 10,2000                                           BANK
001311:
001312: 10,2000                                           COUNT*   $$/MIDG
001313:
001314: 10,2000           20000 00000  HALFREV            2DEC     1          B-1
001315:
001316: 10,2002           43014        MIDGIM             BON      BOFF
001317: 10,2003           01312                                    AVFLAG
001318: 10,2004           20022                                    MIDGIM1
001319: 10,2005           02747                                    COMPUTER
001320: 10,2006           20025                                    GET.LVC
001321:                                                                                                  #  COMPUTE +MGA IF AVFLAG AND COMPUTER HAVE OPPOSITE VALUES.
001322: 10,2007           53575        GET+MGA            VLOAD    UNIT                                  #  (PL 0D) V (+7) TO MPAC, UNITIZE  UV (+1)
001323: 10,2010           72441                           DOT      SL1                                   #  DOT UV WITH Y(STABLE MEMBER) AND RESCALE
001324: 10,2011           01744                                    REFSMMAT   +6                         #   FROM +2 TO +1 FOR ASIN ROUTINE
001325: 10,2012           51136                           ARCSIN   BPL
001326: 10,2013           20017                                    SETMGA
001327: 10,2014           43215                           DAD      DAD                                   #  CONVERT -MGA TO +MGA BY
001328: 10,2015           20001                                    HALFREV                               #  ADDING ONE REVOLUTION
001329: 10,2016           20001                                    HALFREV
001330: 10,2017           02261        SETMGA             STORE    +MGA
001331: 10,2020           43414                           CLR      RVQ                                   #  CLEAR MGLVFLAG TO INDICATE +MGA CALC
001332: 10,2021           02675                                    MGLVFLAG                              #      AND EXIT
001333: 10,2022           77614        MIDGIM1            BOFF
001334: 10,2023           02747                                    COMPUTER
001335: 10,2024           20007                                    GET+MGA
001336:                                                                                                  #  COMPUTE DELVLVC IF AVFLAG AND COMPUTER HAVE SAME VALUES.
001337: 10,2025           53575        GET.LVC            VLOAD    UNIT                                  #  (PL 6D) R (+29) IN MPAC, UNITIZE UR
001338: 10,2026           02341                                    RINIT
001339: 10,2027           77676                           VCOMP                                          #  U(-R)
001340: 10,2030           00023                           STORE    18D                                   #  U(-R) TO 18D
001341: 10,2031           53435                           VXV      UNIT                                  #  U(-R)*V EQ V*U(R), U(V*R)
001342: 10,2032           02347                                    VINIT
001343: 10,2033           00015                           STORE    12D                                   #  U(V*R) TO 12D
001344: 10,2034           53435                           VXV      UNIT                                  #  U(V*R)*U(-R), U((V*R)*(-R))
001345: 10,2035           00023                                    18D
001346: 10,2036           24007                           STOVL    6D                                    #  TRANSFORMATION MATRIX IS IN 6D (+1)
001347: 10,2037           00001                                    0D                                    #  DELTA V (+7) IN 0D
001348: 10,2040           76521                           MXV      VSL1                                  #  CONVERT FROM INER COOR TO LV COOR (+8)
001349: 10,2041           00007                                    6D                                    #  AND SCALE +7 IN MPAC
001350: 10,2042           02267                           STORE    DELVLVC                               #  STORE IN DELVLVC (+7)
001351: 10,2043           43414                           SET      RVQ                                   #  SET MGLVFLAG TO INDICATE LVC CALC
001352: 10,2044           02475                                    MGLVFLAG                              #  AND EXIT
001353:
001354:                                                                                                  #  ..... END OF MIDGIM ROUTINE .....
001355:
001356:
001357: 10,2045           77160        SELECTMU           AXC,1    AXT,2
001358: 10,2046           00002                                    2D
001359: 10,2047           00000                                    0D
001360: 10,2050           77614                           BOFF
001361: 10,2051           04343                                    CMOONFLG
001362: 10,2052           20056                                    SETMUER
001363: 10,2053           77160                           AXC,1    AXT,2
001364: 10,2054           00012                                    10D
001365: 10,2055           00002                                    2D
001366: 10,2056           66143        SETMUER            DLOAD*   SXA,1
001367: 10,2057           10762                                    MUTABLE    +4,1
001368: 10,2060           02332                                    RTX1
001369: 10,2061           22335                           STODL*   RTSR1/MU
001370: 10,2062           10754                                    MUTABLE    -2,1
001371: 10,2063           54214                           BOFF     SR
001372: 10,2064           04343                                    CMOONFLG
001373: 10,2065           20067                                    RTRNMU
001374: 10,2066           20607                                    6D
001375: 10,2067           02337        RTRNMU             STORE    RTMU
001376: 10,2070           43134                           SXA,2    CLEAR
001377: 10,2071           02333                                    RTX2
001378: 10,2072           01271                                    FINALFLG
001379: 10,2073           43014                           SET      SET
001380: 10,2074           00470                                    UPDATFLG
001381: 10,2075           00472                                    TRACKFLG
001382: 10,2076           77650                           GOTO
001383: 10,2077           73505                                    VN1645
001384:
001385:                                                                                                  #  ..... PERIAPO .....
001386:
001387:                                                                                                  #  MOD NO -1                     LOG SECTION - P34-P35, P74-P75
001388:                                                                                                  #  MOD BY WHITE.P                DATE 18JAN68
001389:
001390:                                                                                                  #  FUNCTIONAL DESCRIPTION
001391:
001392:                                                                                                  #        THIS SUBROUTINE COMPUTES THE TWO BODY APOCENTER AND PERICENTER
001393:                                                                                                  #        ALTITUDES GIVEN THE POSITION AND VELOCITY VECTORS FOR A POINT ON
001394:                                                                                                  #        THE TRAJECTORY AND THE PRIMARY BODY.
001395:
001396:                                                                                                  #        SETRAD IS CALLED TO  DETERMINE THE RADIUS OF THE PRIMARY BODY.
001397:
001398:                                                                                                  #        APSIDES IS CALLED TO SOLVE FOR THE TWO BODY RADII OF APOCENTER AND
001399:                                                                                                  #        PERICENTER AND THE ECCENTRICITY OF THE TRAJECTORY.
001400:
001401:                                                                                                  #  CALLING SEQUENCE
001402:
001403:                                                                                                  #        L       CALL
001404:                                                                                                  #        L+1             PERIAPO
001405:                                                                                                  #        L+2     (RETURN - ALWAYS)
001406:
001407:                                                                                                  #  INPUT
001408:
001409:                                                                                                  #        (1)     RVEC    POSITION VECTOR IN METERS
001410:                                                                                                  #                        SCALE FACTOR - EARTH +29, MOON +27
001411:                                                                                                  #        (2)     VVEC    VELOCITY VECTOR IN METERS/CENTISECOND
001412:                                                                                                  #                        SCALE FACTOR - EARTH +7, MOON +5
001413:                                                                                                  #        (3)     X1      PRIMARY BODY INDICATOR
001414:                                                                                                  #                        EARTH -2, MOON -10
001415:
001416:                                                                                                  #  OUTPUT
001417:
001418:                                                                                                  #        (1)     2D      APOCENTER RADIUS IN METERS
001419:                                                                                                  #                        SCALE FACTOR - EARTH +29, MOON +27
001420:                                                                                                  #        (2)     4D      APOCENTER ALTITUDE IN METERS
001421:                                                                                                  #                        SCALE FACTOR - EARTH +29, MOON P27
001422:                                                                                                  #        (3)     6D      PERICENTER RADIUS IN METERS
001423:                                                                                                  #                        SCALE FACTOR - EARTH +29, MOON +27
001424:                                                                                                  #        (4)     8D      PERICENTER ALTITUDE IN METERS
001425:                                                                                                  #                        SCALE FACTOR - EARTH +29, MOON +27
001426:                                                                                                  #        (5)     ECC     ECCENTRICITY OF CONIC TRAJECTORY
001427:                                                                                                  #                        SCALE FACTOR - +3
001428:                                                                                                  #        (6)     XXXALT  RADIUS OF THE PRIMARY BODY IN METERS
001429:                                                                                                  #                        SCALE FACTOR - EARTH +29, MOON +27
001430:                                                                                                  #        (7)     PUSHLOC EQUALS 10D
001431:
001432:                                                                                                  #  SUBROUTINES USED
001433:
001434:                                                                                                  #        SETRAD
001435:                                                                                                  #        APSIDES
001436:
001437: 23,2000                                           SETLOC   APOPERI
001438: 23,2000                                           BANK
001439:
001440: 23,2104                                           COUNT*   $$/PERAP
001441:
001442: 23,2104           00302 17755  RPAD               2DEC     6373338    B-29                       #  STANDARD RADIUS OF PAD 37-B.
001443:                                                                                                  #  = 20 909 901.57 FT
001444:
001445: 23,2106           53754        PERIAPO1           LXA,2    VSR*
001446: 23,2107           02333                                    RTX2
001447: 23,2110           57176                                    0,2
001448: 23,2111           26744                           STOVL    VVEC
001449: 23,2112           53750                           LXA,1    VSR*
001450: 23,2113           02332                                    RTX1
001451: 23,2114           57176                                    0,2
001452: 23,2115           02655                           STORE    RVEC
001453: 23,2116           45020        PERIAPO            STQ      CALL
001454: 23,2117           03450                                    NORMEX
001455: 23,2120           46134                                    SETRAD
001456: 23,2121           37656                           STCALL   XXXALT
001457: 23,2122           25726                                    APSIDES
001458: 23,2123           41401                           SETPD    PUSH                                  #  2D = APOCENTER RADIUS         B29 OR B27
001459: 23,2124           00003                                    2D
001460: 23,2125           65225                           DSU      PDDL                                  #  4D = APOGEE ALTITUDE          B29 OR B27
001461: 23,2126           03656                                    XXXALT
001462: 23,2127           00001                                    0D
001463: 23,2130           45206                           PUSH     DSU                                   #  6D = PERICENTER RADIUS        B29 OR B27
001464: 23,2131           03656                                    XXXALT
001465: 23,2132           52006                           PUSH     GOTO                                  #  8D = PERIGEE ALTITUDE         B29 OR B27
001466: 23,2133           03450                                    NORMEX
001467:
001468:                                                                                                  #  SETRAD
001469:
001470: 23,2134           41545        SETRAD             DLOAD    PUSH
001471: 23,2135           06105                                    RPAD
001472: 23,2136           63130                           SXA,1    INCR,2
001473: 23,2137           00047                                    X2
001474: 23,2140           00002                                    2D
001475: 23,2141           46135                           SLOAD    BHIZ
001476: 23,2142           00050                                    X2
001477: 23,2143           46147                                    SETRADX
001478: 23,2144           51575                           VLOAD    ABVAL
001479: 23,2145           02025                                    RLS
001480: 23,2146           77725                           PDDL
001481: 23,2147           43545        SETRADX            DLOAD    RVQ
001482:
001483:                                                                                                  #  PRECSET
001484:
001485: 23,2150           77620        PRECSET            STQ
001486: 23,2151           03450                                    NORMEX
001487: 23,2152           37561                           STCALL   TDEC2
001488: 23,2153           27030                                    LEMPREC
001489: 23,2154           77624                           CALL
001490: 23,2155           46166                                    LEMSTORE
001491: 23,2156           77745                           DLOAD
001492: 23,2157           03561                                    TDEC2
001493: 23,2160           34041                           STCALL   TDEC1
001494: 23,2161           27014                                    CSMPREC
001495: 23,2162           77624                           CALL
001496: 23,2163           46176                                    CSMSTORE
001497: 23,2164           77650                           GOTO
001498: 23,2165           03450                                    NORMEX
001499: 23,2166           43175        LEMSTORE           VLOAD    BOFF
001500: 23,2167           00001                                    RATT
001501: 23,2170           01352                                    AVFLAG
001502: 23,2171           46202                                    PASSIVE
001503: 23,2172           27523        ACTIVE             STOVL    RACT3
001504: 23,2173           00007                                    VATT
001505: 23,2174           03531                           STORE    VACT3
001506: 23,2175           77616                           RVQ
001507: 23,2176           43175        CSMSTORE           VLOAD    BOFF
001508: 23,2177           00001                                    RATT
001509: 23,2200           01352                                    AVFLAG
001510: 23,2201           46172                                    ACTIVE
001511: 23,2202           27537        PASSIVE            STOVL    RPASS3
001512: 23,2203           00007                                    VATT
001513: 23,2204           03545                           STORE    VPASS3
001514: 23,2205           77616                           RVQ
001515:
001516:                                                                                                  #  VECSHIFT
001517: 23,2206           53754        VECSHIFT           LXA,2    VSR*
001518: 23,2207           02333                                    RTX2
001519: 23,2210           57176                                    0,2
001520: 23,2211           63350                           LXA,1    PDVL
001521: 23,2212           02332                                    RTX1
001522: 23,2213           63257                           VSR*     PDVL
001523: 23,2214           57176                                    0,2
001524: 23,2215           77616                           RVQ
001525:
001526:                                                                                                  #  SHIFTR1
001527:
001528: 23,2216           53754        SHIFTR1            LXA,2    SL*
001529: 23,2217           02333                                    RTX2
001530: 23,2220           57576                                    0,2
001531: 23,2221           77616                           RVQ
001532:


001534:
001535:                                                                                                  #  PROGRAM DESCRIPTION
001536:                                                                                                  #  SUBROUTINE NAME       R36     OUT-OF-PLANE RENDEZVOUS ROUTINE
001537:                                                                                                  #  MOD NO. 0             DATE    22 DECEMBER 67
001538:                                                                                                  #  MOD BY N.M.NEVILLE    LOG SECTION EXTENDED VERBS
001539:                                                                                                  #  FUNCTIONAL DESCRIPTION
001540:
001541:                                                                                                  #  TO DISPLAY AT ASTRONAUT REQUEST LGC CALCULATED RENDEZVOUS
001542:                                                                                                  #  OUT-OF-PLANE PARAMETERS (Y , YDOT , PSI). (REQUESTED BY DSKY).
001543:
001544:                                                                                                  #  CALLING SEQUENCE
001545:
001546:                                                                                                  #  ASTRONAUT REQUEST THROUGH DSKY V 90 E
001547:
001548:                                                                                                  #  SUBROUTINES CALLED
001549:
001550:                                                                                                  #  EXDSPRET
001551:                                                                                                  #  GOMARKF
001552:                                                                                                  #  CSMPREC
001553:                                                                                                  #  LEMPREC
001554:                                                                                                  #  SGNAGREE
001555:                                                                                                  #  LOADTIME
001556:
001557:                                                                                                  #  NORMAL EXIT MODES
001558:
001559:                                                                                                  #  ASTRONAUT REQUEST THROUGH DSKY TO TERMINATE PROGRAM V 34 E
001560:
001561:                                                                                                  #  ALARM OR ABORT EXIT MODES
001562:
001563:                                                                                                  #  NONE
001564:
001565:                                                                                                  #  OUTPUT
001566:
001567:                                                                                                  #  DECIMAL DISPLAY OF TIME , Y , YDOT AND PSI
001568:
001569:                                                                                                  #  DISPLAYED VALUES Y , YDOT , AND PSI , ARE STORED IN ERASABLE
001570:                                                                                                  #  REGISTERS RANGE , RRATE AND RTHETA RESPECTIVELY.
001571:
001572:                                                                                                  #  ERASABLE INITIALIZATION REQUIRED
001573:
001574:                                                                                                  #  CSM AND LEM STATE VECTORS
001575:
001576:                                                                                                  #  DEBRIS
001577:
001578:                                                                                                  #  CENTRALS A,Q,L
001579:                                                                                                  #  OTHER THOSE USED BY THE ABOVE LISTED SUBROUTINES
001580:
001581: 20,2204                                           BANK     20
001582: 04,2000                                           SETLOC   R36LM
001583: 04,2000                                           BANK
001584: 04,2530  E4,1614                                  EBANK=   RPASS36
001585:
001586: 04,2530                                           COUNT*   $$/R36
001587:
001588: 04,2530           22007        R36                ZL
001589: 04,2531           35030                           CAF      ZERO                                  #  SET TIME OF EVENT TO ZERO FOR FIRST
001590: 04,2532           53053                           DXCH     DSPTEMX                               #  DISPLAY
001591: 04,2533           32661                           CAF      V06N16N
001592: 04,2534           04655                           TC       BANKCALL
001593: 04,2535           20226                           CADR     GOMARKF
001594: 04,2536           15561                           TCF      ENDEXT                                #  TERMINATE
001595: 04,2537           12541                           TCF      +2                                    #  PROCEED
001596: 04,2540           12533                           TCF      -5                                    #  RECYCLE FOR ASTRONAUT INPUT TIME
001597: 04,2541           53053                           DXCH     DSPTEMX
001598: 04,2542           00006                           EXTEND
001599: 04,2543           12650                           BZF      LREGCHK                               #  A-REG ZERO GOTO CHECK L-REG FOR ZERO
001600: 04,2544           52155        ASTROTIM           DXCH     MPAC                                  #  A-REG NON-ZERO, TIME = ASTRO INPUT TIME
001601: 04,2545           06014                           TC       INTPRET
001602: 04,2546           77634                           RTB
001603: 04,2547           21662                                    DPMODE
001604: 04,2550           34041        R36INT             STCALL   TDEC1
001605: 04,2551           27014                                    OTHPREC
001606: 04,2552           63375                           VLOAD    PDVL
001607: 04,2553           00007                                    VATT
001608: 04,2554           00001                                    RATT                                  #  -
001609: 04,2555           02215                           STORE    RPASS36                               #  R
001610: 04,2556           63256                           UNIT     PDVL                                  #   P
001611: 04,2557           53435                           VXV      UNIT                                  #  -
001612: 04,2560           77626                           STADR
001613: 04,2561           61554                           STODL    UNP36                                 #  U
001614: 04,2562           00015                                    TAT
001615: 04,2563           34041                           STCALL   TDEC1
001616: 04,2564           27030                                    THISPREC
001617: 04,2565           63375                           VLOAD    PDVL                                  #                  -
001618: 04,2566           00007                                    VATT                                  #  VELOCITY VECTOR V             00D
001619: 04,2567           00001                                    RATT                                  #                   A
001620: 04,2570           77725                           PDDL
001621: 04,2571           00015                                    TAT                                   #  SAVE TIME IN LOCATION 30D FOR REDISPLAY
001622: 04,2572           24037                           STOVL    30D                                   #                  -
001623: 04,2573           41406                           PUSH     PUSH                                  #  POSITION VECTOR R  IN 06D AND 12D
001624: 04,2574           63245                           BVSU     PDVL                                  #                   A   -   -
001625: 04,2575           02215                                    RPASS36                               #  LINE OF SIGHT VECTOR R - R    12D
001626: 04,2576           72441                           DOT      SL1                                   #                        P   A
001627: 04,2577           02223                                    UNP36                                 #      -   -
001628: 04,2600           26207                           STOVL    RANGE                                 #  Y = U . R
001629: 04,2601           00001                                    00D                                   #           A
001630: 04,2602           72441                           DOT      SL1
001631: 04,2603           02223                                    UNP36                                 #  .   -   -
001632: 04,2604           26211                           STOVL    RRATE                                 #  Y = U . V
001633: 04,2605           00007                                    06D                                   #  -        A  -
001634: 04,2606           41456                           UNIT     PUSH                                  #  U  = UNIT ( R  )              18D
001635: 04,2607           47235                           VXV      VXV                                   #   RA          A
001636: 04,2610           00001                                    00D                                   #   -    -     -     -
001637: 04,2611           00023                                    18D                                   #  (U  X V ) X U   = U
001638: 04,2612           53552                           VSL2     UNIT                                  #    RA   A     RA    A
001639: 04,2613           24001                           STOVL    00D                                   #  UNIT HORIZONTAL IN FORWARD DIR. 00D
001640: 04,2614           00023                                    18D
001641: 04,2615           74241                           DOT      VXSC                                  #  -
001642: 04,2616           00015                                    12D                                   #  U
001643: 04,2617           77752                           VSL2                                           #   L
001644: 04,2620           53445                           BVSU     UNIT
001645: 04,2621           50206                           PUSH     DOT                                   #  LOS PROJECTED INTO HORIZONTAL  12D
001646: 04,2622           00001                                    00D                                   #  PLANE
001647: 04,2623           65552                           SL1      ARCCOS                                #               -   -
001648: 04,2624           26213                           STOVL    RTHETA                                #  PSI = ARCCOS(U . U )
001649: 04,2625           50235                           VXV      DOT                                   #                A   L
001650: 04,2626           00001                                    00D
001651: 04,2627           71244                           BPL      DLOAD
001652: 04,2630           10635                                    R36TAG2
001653: 04,2631           22307                                    LODPMAX
001654: 04,2632           77625                           DSU
001655: 04,2633           02213                                    RTHETA
001656: 04,2634           02213                           STORE    RTHETA
001657: 04,2635           47145        R36TAG2            DLOAD    RTB
001658: 04,2636           00037                                    30D
001659: 04,2637           21510                                    SGNAGREE
001660: 04,2640           01053                           STORE    DSPTEMX
001661: 04,2641           77776                           EXIT
001662: 04,2642           32662                           CAF      V06N90N                               #   DISPLAY Y , YDOT , AND PSI
001663: 04,2643           04655                           TC       BANKCALL
001664: 04,2644           20226                           CADR     GOMARKF
001665: 04,2645           15561                           TCF      ENDEXT                                #  TERMINATE
001666: 04,2646           15561                           TCF      ENDEXT                                #  PROCEED , END OF PROGRAM
001667: 04,2647           12533                           TCF      R36        +3                         #  REDISPLAY OUTPUT
001668: 04,2650           56001        LREGCHK            XCH      L
001669: 04,2651           00006                           EXTEND
001670: 04,2652           12655                           BZF      ENTTIM2                               #  L-REG ZERO, SET TIME = PRESENT TIME
001671: 04,2653           56001                           XCH      L                                     #  L-REG NON ZERO, TIME = ASTRO INPUT TIME
001672: 04,2654           12544                           TCF      ASTROTIM
001673: 04,2655           06014        ENTTIM2            TC       INTPRET
001674: 04,2656           52034                           RTB      GOTO
001675: 04,2657           21454                                    LOADTIME
001676: 04,2660           10550                                    R36INT
001677: 04,2661           01420        V06N16N            VN       00616
001678: 04,2662           01532        V06N90N            VN       00690

End of include-file P34-P35,_P74-P75.agc.  Parent file is MAIN.agc


