
Source Code


000002:                                                                                                  ## Copyright:   Public domain.
000003:                                                                                                  ## Filename:    P40-P47.agc
000004:                                                                                                  ## Purpose:     A section of a reconstructed, mixed version of Sundance
000005:                                                                                                  ##              It is part of the reconstructed source code for the Lunar
000006:                                                                                                  ##              Module's (LM) Apollo Guidance Computer (AGC) for Apollo 9.
000007:                                                                                                  ##              No original listings of this program are available;
000008:                                                                                                  ##              instead, this file was created via disassembly of dumps
000009:                                                                                                  ##              of various revisions of Sundance core rope modules.
000010:                                                                                                  ## Assembler:   yaYUL
000011:                                                                                                  ## Contact:     Ron Burkey <info@sandroid.org>.
000012:                                                                                                  ## Website:     www.ibiblio.org/apollo/index.html
000013:                                                                                                  ## Mod history: 2020-06-17 MAS  Created from Luminary 69.
000014:                                                                                                  ##              2021-05-30 ABS  Aligned TCF BURNBABY and TCF B*RNB*B* to field
000015:                                                                                                  ##                              boundaries and surrounding comments to match.
000016:                                                                                                  ##                              TGDCALC -> TGOCALC
000017:
000018:                                                                                                  ## Sundance 306
000019:
000020:                                                                                                  #  PROGRAM DESCRIPTION  P40BOTH    DECEMBER 22, 1966
000021:                                                                                                  #  MOD 03 BY PETER ADLER           MARCH 3, 1967
000022:                                                                                                  #  CALLED VIA JOB FROM V37E
000023:
000024:                                                                                                  #  FUNCTIONAL DESCRIPTION
000025:
000026:                                                                                                  #           1)  TO COMPUTE A PREFERRED IMU ORIENTATION AND A PREFERRED VEHICLE ATTITUDE FOR A LM DPS
000027:                                                                                                  #               THRUSTING MANEUVER.
000028:


000030:
000031:                                                                                                  #           3)  TO DO THE VEHICLE MANEUVER TO THE THRUSTING ATTITUDE.
000032:
000033:                                                                                                  #           4)  TO CONTROL THE PGNCS DURING COUNTDOWN, IGNITION, THRUSTING, AND THRUST TERMINATION OF A
000034:                                                                                                  #               PGNCS CONTROLLED DPS MANEUVER.
000035:
000036:                                                                                                  #           5)  IN POSTBURN--ZERO RENDEZVOUS COUNTER, MAINTAIN VG CALCULATIONS FOR POSSIBLE RCS MANEUVER,
000037:                                                                                                  #                            SET MAXIMUM DEADBAND IN DAP, RESET STEERLAW CSTEER TO ZERO.
000038:
000039:                                                                                                  #           NOTE:  P42, WHICH IS IN THIS LOG SECTION, DOES THE SAME FOR AN APS BURN, AND P41 DOES 1-3 FOR
000040:                                                                                                  #                  RCS PLUS DISPLAYS PARAMETERS FOR MANUAL CONTROL.
000041:
000042:                                                                                                  #  SUBROUTINES USED
000043:
000044:                                                                                                  #           R02      IMU STATUS CHECK
000045:                                                                                                  #           S40.1    COMPUTATION OF THRUST DIRECTION
000046:                                                                                                  #           S40.13   LENGTH OF BURN
000047:                                                                                                  #           S40.2,3  PREFERRED IMU ORIENATTION
000048:                                                                                                  #           S40.8    X PRODUCT STEERING
000049:                                                                                                  #           S40.9    LAMBERT VTOGAIN
000050:                                                                                                  #           R60LEM   ATTITUDE MANEUVER
000051:                                                                                                  #           LEMPREC  EXTRAPOLATE STATE VECTOR
000052:                                                                                                  #           PREREAD  AVERAGE G, SERVICER
000053:                                                                                                  #           ALLCOAST DAP COASTING INITIALIZATION
000054:                                                                                                  #           CLOKTASK ERGO CLOCKJOB--COUNT DOWN
000055:                                                                                                  #           PHASCHNG, INTPRET, FLAGUP, FLAGDOWN, WAITLIST, LONGCALL, GOFLASH, GOFLASHR, GOPERF1, ALARM,
000056:                                                                                                  #           PRIOLARM, GOTOPOOH, ENDOFJOB, BANKCALL, SETMAXDB, SETMINDB, CHECKMM, FLATOUT, OUTFLAT,
000057:                                                                                                  #           KILLTASK, SGNAGREE, TPAGREE, ETC.
000058:
000059:                                                                                                  #  RESTARTS VIA GROUP 4
000060:
000061:                                                                                                  #  DISPLAYS
000062:
000063:                                                                                                  #           V50N25  203 A/P TO PGNCS, AUTO THROTTLE MODE, AUTO ATTITUDE CONTROL
000064:                                                                                                  #           V06N40  TTI, VG, DELTAVM (DISPLAYED ONCE/SECOND BY CLOKTASK)
000065:                                                                                                  #           V50N99  PLEASE PERFORM ENGINE ON ENABLE
000066:                                                                                                  #           V06N40  TG (TIME TO GO TO CUTOFF), VG, DELTAVM--ONCE/SECOND
000067:                                                                                                  #           V16N40  FINAL VALUES OF TG, VG, DELTAVM
000068:                                                                                                  #           V16N85  COMP OF VG (BODY AXES) FOR POSS. RCS MANUAL MANEUVER
000069:                                                                                                  #           V05N09  POSSIBLE ALARMS
000070:                                                                                                  #           V50N07  PLEASE SELECT P00
000071:
000072:                                                                                                  #           VIA R30
000073:
000074:                                                                                                  #           V06N44  HAPO, PERI, TFF
000075:                                                                                                  #           V06N35  TIME TO PERIGEE, HMS
000076:
000077:                                                                                                  #  ALARM OR ABORT EXIT MODES
000078:
000079:                                                                                                  #           PROGRAM ALARM, FLASHING DISPLAY OF ALARM CODE 1706 IF P40 SELECTED WITH DESCENT UNIT STAGED.
000080:                                                                                                  #           V34E (TERMINATE) IS THE ONLY RESPONSE ACCEPTED. TC GOTOPOOH.
000081:
000082:                                                                                                  #           PROGRAM ALARM, FLASH CODE 1703:  TIG LESS THAN 45 SECS AWAY.  V34E=  GOTOPOOH OR V33E=  SLIP
000083:                                                                                                  #           TIG BY 45 SECS.
000084:
000085:                                                                                                  #  ERASABLE INITIALIZATION
000086:                                                                                                  #  DEBRIS
000087:                                                                                                  #  OUTPUT
000088:
000089:                                                                                                  #           SEE SUBROUTINES E.G.:  S40.1, S40.2,3, S40.13, S40.8, S40.9, TRIMGIMB
000090:                                                                                                  #           XDELVFLG = 1 FOR EXT DELV COMPUTATION
000091:                                                                                                  #                    = 0 FOR AIMPT (LAMBERT) COMP
000092:
000093: 27,2253                                           COUNT*   $$/P40
000094: 27,2253  E7,1430                                  EBANK=   WHICH
000095:
000096: 36,3133                                           BANK     36
000097: 36,2000                                           SETLOC   P40S
000098: 36,2000                                           BANK
000099:
000100: 36,3133           33114        P40LM              CAF      P40ADRES                              #  INITIALIZATION FOR BURNBABY.
000101: 36,3134           55430                           TS       WHICH
000102:
000103: 36,3135           00006                           EXTEND
000104: 36,3136           00030                           READ     CHAN30
000105: 36,3137           40000                           COM
000106: 36,3140           75025                           MASK     BIT2
000107: 36,3141           00006                           EXTEND
000108: 36,3142           13714                           BZF      P40ALM
000109: 36,3143           04655                           TC       BANKCALL                              #  GO DO IMU STATUS CHECK ROUTINE.
000110: 36,3144           11064                           CADR     R02BOTH
000111:
000112: 36,3145           41102                           CS       DAPBOOLS                              #  INITIALIZE DVMON
000113: 36,3146           75012                           MASK     CSMDOCKD
000114: 36,3147           10000                           CCS      A
000115: 36,3150           33757                           CAF      THRESH1
000116: 36,3151           63761                           AD       THRESH3
000117: 36,3152           55201                           TS       DVTHRUSH
000118: 36,3153           35026                           CAF      ONE
000119: 36,3154           55202                           TS       AUXFLAG
000120: 36,3155           35024                           CAF      FOUR
000121: 36,3156           55472                           TS       DVCNTR
000122:
000123: 36,3157           06014                           TC       INTPRET                               #  LOAD CONSTANTS FOR DPS BURN
000124: 36,3160           43175                           VLOAD    CLEAR                                 #  LOAD F, MDOT, TDECAY
000125: 36,3161           35725                                    FDPS
000126: 36,3162           02663                                    NOTHROTL
000127: 36,3163           03723                           STORE    F
000128: 36,3164           77624        P40IN              CALL
000129: 36,3165           56253                                    S40.1                                 #  COMPUTES UT AND VGTIG
000130: 36,3166           77624                           CALL
000131: 36,3167           56416                                    S40.2,3                               #  COMPUTES PREFERRED IMU ORIENTATION
000132: 36,3170           77776                           EXIT
000133:
000134: 36,3171           00004                           INHINT
000135: 36,3172           04737                           TC       IBNKCALL
000136: 36,3173           40223                           CADR     PFLITEDB                              #  ZERO ATTITUDE ERRORS, SET DB TO ONE DEG.
000137:
000138: 36,3174           03176                           TC       P40SXT4
000139:
000140:
000141:                                                                                                  #            ***********************
000142: 36,3175           12133                           TCF      BURNBABY
000143:                                                                                                  #            ***********************
000144:
000145:
000146: 36,3176           00006        P40SXT4            EXTEND
000147: 36,3177           23153                           QXCH     P40/RET
000148: 36,3200           00003        P41MANU            RELINT
000149:
000150: 36,3201           05575                           TC       DOWNFLAG                              #  CLEAR 3AXISFLG -- R60 WILL USE VECPOINT.
000151: 36,3202           00124                           ADRES    3AXISFLG
000152:
000153: 36,3203           04655                           TC       BANKCALL
000154: 36,3204           54103                           CADR     R60LEM                                #  DO ATTITUDE MANEUVER ROUTINE
000155: 36,3205           01153                           TC       P40/RET
000156:
000157:
000158: 36,3206  E7,1447                                  EBANK=   TRKMKCNT
000159: 36,3206           35062        POSTBURN           CA       LOW10
000160: 36,3207           55175                           TS       DISPDEX
000161: 36,3210           00006                           EXTEND
000162: 36,3211           32040                           DCA      ACADN85
000163: 36,3212           53253                           DXCH     AVEGEXIT
000164: 36,3213           33763                           CAF      V16N40
000165: 36,3214           04655                           TC       BANKCALL
000166: 36,3215           20544                           CADR     GOFLASHR
000167: 36,3216           03241                           TC       TERM40
000168: 36,3217           13224                           TCF      TIGNOW
000169: 36,3220           03206                           TC       POSTBURN
000170:
000171: 36,3221           05413        P40PHS1            TC       PHASCHNG
000172: 36,3222           00014                           OCT      00014
000173: 36,3223           15225                           TCF      ENDOFJOB
000174:
000175: 36,3224           00004        TIGNOW             INHINT
000176: 36,3225           04737                           TC       IBNKCALL
000177: 36,3226           40232                           CADR     ZATTEROR
000178: 36,3227           04737                           TC       IBNKCALL
000179: 36,3230           40221                           CADR     SETMINDB
000180: 36,3231           00003                           RELINT
000181: 36,3232           33764                           CAF      V16N85B
000182: 36,3233           04655                           TC       BANKCALL
000183: 36,3234           20375                           CADR     REFLASHR
000184: 36,3235           03241                           TC       TERM40
000185: 36,3236           13241                           TCF      TERM40
000186: 36,3237           03232                           TC       -5
000187:
000188: 36,3240           13221                           TCF      P40PHS1
000189:
000190: 36,3241           00006        TERM40             EXTEND
000191: 36,3242           32071                           DCA      SERVCADR
000192: 36,3243           53253                           DXCH     AVEGEXIT
000193: 36,3244           35030                           CAF      ZERO
000194: 36,3245           55447                           TS       TRKMKCNT                              #       ZERO RENDZVS CNTERS
000195: 36,3246           35062                           CA       LOW10
000196: 36,3247           55175                           TS       DISPDEX
000197: 36,3250           00004                           INHINT
000198: 36,3251           04737                           TC       IBNKCALL
000199: 36,3252           40204                           CADR     RESTORDB
000200: 36,3253           00003                           RELINT
000201: 36,3254           04106                           TC       GOTOPOOH
000202:
000203: 36,3255  E7,1430                                  EBANK=   WHICH
000204: 36,3255                                           COUNT*   $$/P41
000205: 36,3255           33115        P41LM              CAF      P41ADRES                              #  INITIALIZATION FOR BURNBABY
000206: 36,3256           55430                           TS       WHICH
000207:
000208: 36,3257           04655                           TC       BANKCALL
000209: 36,3260           11064                           CADR     R02BOTH
000210:
000211: 36,3261           06014                           TC       INTPRET                               #  BOTH LM
000212: 36,3262           71214                           BON      DLOAD                                 #  IF NJETSFLAG IS SET, LOAD 2 JET F
000213: 36,3263           00700                                    NJETSFLG
000214: 36,3264           75270                                    P41FJET1
000215: 36,3265           35733                                    FRCS4                                 #  IF NJETSFLAG IS CLEAR, LOAD 4 JET F
000216:
000217: 36,3266           37723        P41FJET            STCALL   F
000218: 36,3267           75273                                    P41IN
000219: 36,3270           77745        P41FJET1           DLOAD
000220:
000221: 36,3271           35735                                    FRCS2
000222: 36,3272           03723                           STORE    F
000223:
000224: 36,3273           77624        P41IN              CALL
000225: 36,3274           56253                                    S40.1                                 #  BOTH
000226: 36,3275           77624        P41NORM            CALL
000227: 36,3276           56416                                    S40.2,3                               #  CALCULATE PREFERRED IMU ORIENTATION AND
000228: 36,3277           77776                           EXIT                                           #  SET PFRATFLG.
000229:
000230: 36,3300           00004                           INHINT
000231: 36,3301           04737                           TC       IBNKCALL
000232: 36,3302           40232                           CADR     ZATTEROR                              #  ZERO ATTITUDE ERRORS
000233: 36,3303           04737                           TC       IBNKCALL
000234: 36,3304           40221                           CADR     SETMINDB                              #  SET 0.3 DEGREE DEADBAND
000235: 36,3305           03176                           TC       P40SXT4
000236:
000237: 36,3306           06014                           TC       INTPRET
000238: 36,3307           45175                           VLOAD    CALL                                  #  TRANSFORM VELOCITY-TO-BE-GAINED AT TIG
000239: 36,3310           03674                                    VGTIG                                 #  FROM REFERENCE COORDINATES TO LM BODY-
000240: 36,3311           57307                                    S41.1                                 #  AXIS COORDINATES FOR V16N85 DISPLAY.
000241: 36,3312           03773                           STORE    VGBODY                                #  (SCALED AT 2 (+7) METERS/CENTISECOND)
000242: 36,3313           77776                           EXIT
000243:
000244: 36,3314           33764                           CAF      V16N85B
000245: 36,3315           04655                           TC       BANKCALL
000246: 36,3316           20361                           CADR     GODSPRET
000247:
000248:
000249: 36,3317           35067                           CAF      PRIO5
000250: 36,3320           55175                           TS       DISPDEX                               #  FOR SAFETY ONLY
000251: 36,3321           05155                           TC       FINDVAC
000252: 36,3322  E7,1673                                  EBANK=   VGPREV
000253: 36,3322           03344 74067                     2CADR    DYNMDISP
000254:
000255: 36,3324           05373                           TC       2PHSCHNG
000256: 36,3325           00076                           OCT      00076                                 #  GROUP 6 RESTARTS AT REDO6.7
000257: 36,3326           04024                           OCT      04024                                 #  GROUP 4 RESTARTS HERE
000258:
000259:                                                                                                  #            ***********************
000260: 36,3327           12142                           TCF      B*RNB*B*
000261:                                                                                                  #            ***********************
000262:
000263:
000264: 36,3330           35047        BLNKWAIT           CAF      1SEC
000265: 36,3331           04655                           TC       BANKCALL
000266: 36,3332           01730                           CADR     DELAYJOB
000267:
000268: 36,3333           31175        REDO6.7            CA       DISPDEX                               #  ON A RESTART, DO NOT PUT UP DISPLAY IF
000269: 36,3334           65025                           AD       TWO                                   #  BLANKING (BETWEEN TIG-35 AND TIG-30)
000270:
000271:                                                                                                  #            ***********************
000272:
000273:
000274: 36,3335           00006                           EXTEND
000275: 36,3336           13330                           BZF      BLNKWAIT
000276:
000277: 36,3337           33764                           CAF      V16N85B
000278: 36,3340           04655                           TC       BANKCALL
000279: 36,3341           20361                           CADR     GODSPRET
000280:
000281: 36,3342           35067                           CAF      PRIO5
000282: 36,3343           05216                           TC       PRIOCHNG
000283:
000284: 36,3344           31175        DYNMDISP           CA       DISPDEX                               #  A NON-POSITIVE DISPDEX INDICATES PAST
000285: 36,3345           00006                           EXTEND                                         #  TIG-35, SO SERVICER WILL BE DOING THE
000286: 36,3346           65225                           BZMF     ENDOFJOB                              #  UPDATING OF NOUN 85. STOP DYNMDISP.
000287: 36,3347           06014                           TC       INTPRET
000288: 36,3350           45175                           VLOAD    CALL
000289: 36,3351           03674                                    VGPREV
000290: 36,3352           57307                                    S41.1
000291: 36,3353           03773                           STORE    VGBODY
000292: 36,3354           77776                           EXIT
000293: 36,3355           35047                           CAF      1SEC
000294: 36,3356           04655                           TC       BANKCALL
000295: 36,3357           01730                           CADR     DELAYJOB
000296: 36,3360           13344                           TCF      DYNMDISP
000297:
000298: 36,3361           06014        CALCN85            TC       INTPRET
000299: 36,3362           77624                           CALL
000300: 36,3363           75607                                    UPDATEVG
000301: 36,3364           45175                           VLOAD    CALL
000302: 36,3365           03674                                    VGPREV
000303: 36,3366           57307                                    S41.1
000304: 36,3367           03773                           STORE    VGBODY
000305: 36,3370           77776                           EXIT
000306: 36,3371           04674                           TC       POSTJUMP
000307: 36,3372           66351                           CADR     SERVEXIT
000308:
000309: 36,3373                                           COUNT*   $$/P42
000310: 36,3373  E7,1430                                  EBANK=   WHICH
000311:
000312: 36,3373           33116        P42LM              CAF      P42ADRES                              #  INITIALIZATION FOR BURNBABY.
000313: 36,3374           55430                           TS       WHICH
000314:
000315: 36,3375           00006                           EXTEND
000316: 36,3376           00030                           READ     CHAN30
000317: 36,3377           40000                           COM
000318: 36,3400           75025                           MASK     BIT2
000319: 36,3401           10000                           CCS      A
000320: 36,3402           03714                           TC       P40ALM
000321: 36,3403           04655                           TC       BANKCALL
000322: 36,3404           11064                           CADR     R02BOTH
000323: 36,3405           33760                           CAF      THRESH2                               #  INITIALIZE DVMON
000324: 36,3406           55201                           TS       DVTHRUSH
000325: 36,3407           35026                           CAF      ONE
000326: 36,3410           55202                           TS       AUXFLAG
000327: 36,3411           35024                           CAF      FOUR
000328: 36,3412           55472                           TS       DVCNTR
000329:
000330: 36,3413           06014                           TC       INTPRET
000331: 36,3414           77214                           SET      VLOAD                                 #  LOAD FAPS, MDOTAPS, AND ATDECAY INTO
000332: 36,3415           01072                                    AVFLAG                                #  F, MDOT, AND TDECAY BY VECTOR LOAD.
000333: 36,3416           35737                                    FAPS
000334: 36,3417           37723                           STCALL   F
000335: 36,3420           75164                                    P40IN
000336:
000337: 36,3421  E7,1430                                  EBANK=   WHICH
000338:
000339: 36,3421                                           COUNT*   $$/P47
000340: 36,3421           04655        P47LM              TC       BANKCALL
000341: 36,3422           11064                           CADR     R02BOTH
000342: 36,3423           06014                           TC       INTPRET
000343: 36,3424           43234                           RTB      DAD
000344: 36,3425           21454                                    LOADTIME
000345: 36,3426           35745                                    SEC60DP
000346: 36,3427           03425                           STORE    TIG
000347: 36,3430           77776                           EXIT
000348:
000349: 36,3431           00006                           EXTEND
000350: 36,3432           33745                           DCA      SEC60DP
000351: 36,3433           05337                           TC       LONGCALL
000352: 36,3434  E7,1430                                  EBANK=   WHICH
000353: 36,3434           03445 74067                     2CADR    STARTP47
000354:
000355: 36,3436           00003                           RELINT
000356: 36,3437           06014                           TC       INTPRET
000357: 36,3440           45145                           DLOAD    CALL
000358: 36,3441           03425                                    TIG
000359: 36,3442           65672                                    TIGINT     -1
000360: 36,3443           77776                           EXIT
000361:
000362: 36,3444           15225                           TCF      ENDOFJOB
000363:
000364: 36,3445           05413        STARTP47           TC       PHASCHNG
000365: 36,3446           05014                           OCT      05014
000366: 36,3447           77777                           OCT      77777
000367:
000368: 36,3450           00006                           EXTEND
000369: 36,3451           33767                           DCA      ACADN83
000370: 36,3452           53253                           DXCH     AVEGEXIT
000371: 36,3453           35011                           CAF      PRIO20
000372: 36,3454           05155                           TC       FINDVAC
000373: 36,3455  E7,1607                                  EBANK=   DELVIMU
000374: 36,3455           03511 74067                     2CADR    P47BODY
000375: 36,3457           12372                           TCF      REDO4.2                               #  CHECKS PHASE 5 AND GOES TO PREREAD
000376:                                                                                                  #  SEE TIG-30 IN BURNBABY.
000377:
000378: 36,3460           06014        CALCN83            TC       INTPRET
000379: 36,3461           53375                           VLOAD    VAD
000380: 36,3462           03773                                    DELVCTL
000381: 36,3463           03504                                    DELVREF
000382: 36,3464           03643                           STORE    DELVSIN                               #  TEMP STORAGE FOR RESTARTS
000383:
000384: 36,3465           77624                           CALL
000385: 36,3466           57307                                    S41.1
000386: 36,3467           03610                           STORE    DELVIMU
000387: 36,3470           77776                           EXIT
000388: 36,3471           05413                           TC       PHASCHNG
000389: 36,3472           10035                           OCT      10035                                 #  REREADAC AND HERE
000390:
000391: 36,3473           06014                           TC       INTPRET
000392: 36,3474           77775                           VLOAD
000393: 36,3475           03643                                    DELVSIN
000394: 36,3476           03773                           STORE    DELVCTL
000395: 36,3477           77776                           EXIT
000396:
000397: 36,3500           04674                           TC       POSTJUMP
000398: 36,3501           66351                           CADR     SERVEXIT
000399:
000400: 36,3502           33765        P47BOD             CAF      V1683
000401: 36,3503           04655                           TC       BANKCALL
000402: 36,3504           20544                           CADR     GOFLASHR
000403: 36,3505           04106                           TC       GOTOPOOH
000404: 36,3506           04106                           TC       GOTOPOOH
000405:
000406: 36,3507           13511                           TCF      P47BODY
000407:
000408: 36,3510           13221                           TCF      P40PHS1
000409:
000410: 36,3511           06014        P47BODY            TC       INTPRET
000411: 36,3512           77775                           VLOAD
000412: 36,3513           06233                                    HI6ZEROS
000413: 36,3514           03610                           STORE    DELVIMU
000414: 36,3515           03773                           STORE    DELVCTL
000415: 36,3516           77776                           EXIT
000416: 36,3517           03502                           TC       P47BOD
000417:
000418: 36,3520                                           COUNT*   $$/P40
000419: 36,3520           31474        IMPLBURN           CA       TGO        +1
000420: 36,3521           05243                           TC       TWIDDLE
000421: 36,3522           03537                           ADRES    ENGOFTSK
000422: 36,3523           05575                           TC       DOWNFLAG                              #  TURN OFF IGNFLAG
000423: 36,3524           00153                           ADRES    IGNFLAG
000424: 36,3525           05575                           TC       DOWNFLAG                              #  TURN OFF ASTNFLG
000425: 36,3526           00154                           ADRES    ASTNFLAG
000426: 36,3527           05575                           TC       DOWNFLAG                              #  TURN OFF IMPULSW
000427: 36,3530           00044                           ADRES    IMPULSW
000428: 36,3531           05413                           TC       PHASCHNG                              #  RESTART PROTECT ENGOFTSK (ENGINOFF)
000429: 36,3532           40114                           OCT      40114
000430:
000431: 36,3533           05271                           TC       FIXDELAY                              #  WAIT HALF A SECOND
000432: 36,3534           00062                           DEC      50         B-14
000433:
000434: 36,3535           02643                           TC       NOULLAGE                              #  TURN OFF ULLAGE
000435:
000436: 36,3536           05321                           TC       TASKOVER
000437:
000438: 36,3537           04737        ENGOFTSK           TC       IBNKCALL                              #  THIS CODING ALLOWS ENGINOFF ET AL TO BE
000439: 36,3540           75542                           CADR     ENGINOFF                              #  USED BOTH BY WAITLIST AND BY TC IBNKCALL
000440: 36,3541           05321                           TC       TASKOVER
000441:
000442: 36,3542           34703        ENGINOFF           CAF      PRIO12                                #  MUST BE LOWER PRIO THAN CLOCKJOB
000443: 36,3543           05155                           TC       FINDVAC
000444: 36,3544  E7,1447                                  EBANK=   TRKMKCNT
000445: 36,3544           03206 74067                     2CADR    POSTBURN
000446:
000447: 36,3546           40103        ENGINOF1           CS       FLAGWRD7                              #  SET THE IDLE BIT.
000448: 36,3547           75020                           MASK     IDLEFBIT
000449: 36,3550           26103                           ADS      FLAGWRD7
000450:
000451: 36,3551           02643                           TC       NOULLAGE
000452:
000453: 36,3552           00006                           EXTEND
000454: 36,3553           30025                           DCA      TIME2
000455: 36,3554           53355                           DXCH     TEVENT
000456:
000457: 36,3555           35026        ENGINOF2           CAF      BIT1
000458: 36,3556           05252                           TC       WAITLIST
000459: 36,3557  E6,1420                                  EBANK=   OMEGAQ
000460: 36,3557           03604 74066                     2CADR    COASTSET
000461:
000462: 36,3561           44367        ENGINOF3           CS       PRIO30                                #  ENGINOF3 IS USED AS A PRE-ENGINE ARM
000463: 36,3562           00006                           EXTEND                                         #  SUBROUTINE.
000464: 36,3563           02011                           RAND     DSALMOUT
000465: 36,3564           65011                           AD       PRIO20                                #  TURN OFF THE ENGINE - DPS OR APS
000466: 36,3565           00006                           EXTEND
000467: 36,3566           01011                           WRITE    DSALMOUT
000468:
000469: 36,3567           45020                           CS       ENGONBIT                              #  INSURE ENGONFLG IS CLEAR.
000470: 36,3570           70101                           MASK     FLAGWRD5
000471: 36,3571           54101                           TS       FLAGWRD5
000472:
000473: 36,3572           41102                           CS       DAPBOOLS                              #  TURN OFF TRIM GIMBAL
000474: 36,3573           75011                           MASK     USEQRJTS
000475: 36,3574           27102                           ADS      DAPBOOLS
000476:
000477: 36,3575           45012                           CS       HIRTHROT                              #  ZERO AUTO-THROTTLE WHENEVER THE ENGINE
000478: 36,3576           55417                           TS       PIF
000479: 36,3577           54055                           TS       THRUST                                #  IS TURNED OFF.
000480: 36,3600           35023                           CAF      BIT4                                  #  THE HARDWARE DOES SO ONLY WHEN THE
000481: 36,3601           00006                           EXTEND                                         #  ENGINE IS DISARMED.
000482: 36,3602           05014                           WOR      CHAN14
000483:
000484: 36,3603           04752                           TC       ISWRETRN
000485:
000486: 36,3604           04737        COASTSET           TC       IBNKCALL                              #  DO DAP COASTING INITIALIZATION
000487: 36,3605           40263                           CADR     ALLCOAST
000488: 36,3606           05321                           TC       TASKOVER
000489:
000490: 36,3607  E6,1420                                  EBANK=   OMEGAQ
000491: 36,3607           45020        UPDATEVG           STQ      CALL
000492: 36,3610           03652                                    QTEMP1
000493: 36,3611           56440                                    S40.8                                 #  X-PRODUCT STEERING
000494: 36,3612           43014                           BON      BOFSET
000495: 36,3613           01307                                    XDELVFLG
000496: 36,3614           03652                                    QTEMP1
000497: 36,3615           01045                                    CYCLESW
000498: 36,3616           03652                                    QTEMP1
000499: 36,3617           77776                           EXIT
000500:
000501: 36,3620           10755                           CCS      PHASE2
000502: 36,3621           13634                           TCF      ENDSTEER                              #  GROUP 2 ACTIVE --> LAMBERT STILL GOING.
000503:
000504: 36,3622           35012                           CAF      PRIO10
000505: 36,3623           00004                           INHINT
000506: 36,3624           05155                           TC       FINDVAC
000507: 36,3625  E7,1702                                  EBANK=   VG
000508: 36,3625           03071 56067                     2CADR    S40.9                                 #  LAMBERT VTOGAIN
000509:
000510: 36,3627           05373                           TC       2PHSCHNG
000511: 36,3630           00172                           OCT      00172                                 #  2.17SPOT FOR S40.9
000512: 36,3631           10035                           OCT      10035                                 #  HERE AND REREADAC AFTER RESTART
000513:
000514: 36,3632           05575                           TC       DOWNFLAG
000515: 36,3633           00043                           ADRES    CYCLESW                               #  VG CALCULATION OMITTED
000516: 36,3634           06014        ENDSTEER           TC       INTPRET
000517: 36,3635           77650                           GOTO
000518: 36,3636           03652                                    QTEMP1
000519:
000520: 36,3637           06014        STEERING           TC       INTPRET
000521:
000522: 36,3640           77624                           CALL
000523: 36,3641           75607                                    UPDATEVG
000524: 36,3642           77776                           EXIT
000525:
000526: 36,3643  E7,1472                                  EBANK=   DVCNTR
000527: 36,3643           00004        NSTEER             INHINT
000528: 36,3644           35066                           CA       EBANK7
000529: 36,3645           54003                           TS       EBANK
000530:                                                                                                  #  PHASE CHANGE IN SERVERICER NEEDED HERE *********************************
000531: 36,3646           40076                           CS       FLAGWRD2                              #  CHECK IMPULSE SWITCH.  IT IS SET EITHER
000532: 36,3647           75016                           MASK     IMPULBIT                              #  BY S40.13 IF TBURN<6 SECS OR BY S40.8 IF
000533: 36,3650           10000                           CCS      A                                     #  STEERING IS ALMOST DONE.
000534:
000535: 36,3651           13656                           TCF      +5                                    #  IMPULSW = 0    EXIT
000536:
000537: 36,3652           40103                           CS       FLAGWRD7                              #  IMPULSW = 1    WHY?  CHECK IDLEFLAG
000538: 36,3653           75020                           MASK     IDLEFBIT                              #      (IDLEFLAG = 0 --> DVMON ON)
000539: 36,3654           10000                           CCS      A
000540: 36,3655           13660                           TCF      +3                                    #  DVMON ON-->THRUSTING-->IMPULSW VIA S40.8
000541: 36,3656           04674                           TC       POSTJUMP                              #  DVMON OFF-->IMPULSW ON VIA S40.13-->EXIT
000542: 36,3657           66351                           CADR     SERVEXIT
000543:
000544: 36,3660           05575                           TC       DOWNFLAG                              #  TURN OFF IMPULSW
000545: 36,3661           00044                           ADRES    IMPULSW
000546:
000547: 36,3662           05563                           TC       UPFLAG
000548: 36,3663           00161                           ADRES    IDLEFLAG                              #  TURN OFF DVMON
000549:
000550: 36,3664           00004                           INHINT
000551: 36,3665           00006                           EXTEND
000552: 36,3666           31425                           DCA      TIG
000553: 36,3667           52155                           DXCH     MPAC
000554: 36,3670           00006                           EXTEND
000555: 36,3671           40025                           DCS      TIME2
000556: 36,3672           20155                           DAS      MPAC
000557: 36,3673           07231                           TC       TPAGREE
000558: 36,3674           30155                           CAE      MPAC       +1
000559: 36,3675           10000                           CCS      A
000560: 36,3676           13701                           TCF      +3
000561: 36,3677           13701                           TCF      +2
000562: 36,3700           35030                           CAF      ZERO
000563: 36,3701           65026                           AD       ONE
000564: 36,3702           56001                           XCH      L
000565: 36,3703           35030                           CAF      ZERO
000566: 36,3704           53474                           DXCH     TGO
000567: 36,3705           31474                           CA       TGO        +1
000568: 36,3706           05243                           TC       TWIDDLE
000569: 36,3707           03537                           ADRES    ENGOFTSK
000570: 36,3710           05373                           TC       2PHSCHNG
000571: 36,3711           40114                           OCT      40114                                 #  ENGOFTSK (ENGINOFF)
000572: 36,3712           00035                           OCT      00035                                 #  SERVICER--REREADAC
000573:
000574: 36,3713           15225                           TCF      ENDOFJOB
000575:
000576: 36,3714           05646        P40ALM             TC       ALARM                                 #  ASTRONAUT DOESN'T AGREE WITH STAGE
000577: 36,3715           01706                           OCT      01706                                 #  VERIFY DISCRETE.  HE HAS SELECTED P40,
000578: 36,3716           35056                           CAF      V05N09                                #  BUT THE DAP THINKS THAT THE DESCENT UNIT
000579: 36,3717           04655                           TC       BANKCALL                              #  IS GONE--A SITUATION THAT WOULD MAKE A
000580: 36,3720           20406                           CADR     GOFLASH                               #  DPS BURN EXCEEDINGLY DIFFICULT.
000581:
000582: 36,3721           14106                           TCF      GOTOPOOH                              #  V34E  TERMINATE
000583: 36,3722           13716                           TCF      -4                                    #  V33E  PROCEED  (ILLEGAL)
000584: 36,3723           13716                           TCF      -5                                    #        RECYCLE  (ILLEGAL)
000585:
000586:                                                                                                  #  ************************************************************************
000587:
000588: 36,3724           01050 33423  FDPS               2DEC     4.319223   B-7                        #  9710.0 LBS FORCE IN NEWTONS
000589: 36,3726           00022 07742  MDOTDPS            2DEC     0.00891025 B-3                        #  32.62 LBS/SEC IN KGS/CS.
000590: 36,3730           77777 77731  DTDECAY            2DEC     -38        B-28
000591:
000592: 36,3732           00026 30630  FRCS4              2DEC     0.177929   B-7                        #  400 LBS FORCE IN NEWTONS
000593: 36,3734           00013 14314  FRCS2              2DEC     0.0889645  B-7                        #  200 LBS FORCE IN NEWTONS
000594:
000595: 36,3736           00307 10516  FAPS               2DEC     1.5568     B-7                        #  3500 LBS FORCE IN NEWTONS
000596: 36,3740           00151 07074  MDOTAPS            2DEC     0.05137812 B-3                        #  11.32 LBS/SEC IN KGS/CS
000597: 36,3742           77777 77765  ATDECAY            2DEC     -10        B-28
000598:
000599: 36,3744           00000        SEC60DP            OCT      00000                                 #  DON'T SEPARATE
000600: 36,3745           13560        SEC60              DEC      6000       B-14                       #  DON'T SEPARATE
000601: 36,3746           00000        SEC15DP            OCT      00000                                 #  DON'T SEPARATE
000602: 36,3747           02734        SEC15              DEC      1500       B-14                       #  DON'T SEPARATE
000603: 36,3750           00000 05670  SEC30DP            2DEC     3000       B-28
000604: 36,3752           00000        SEC45DP            OCT      00000                                 #  DON'T MOVE FROM JUST BEFORE SEC45
000605: 36,3753           10624        SEC45              DEC      4500       B-14
000606: 36,3754           00000        5SECDP             OCT      00000                                 #  DON'T MOVE FROM JUST BEFORE 5SEC
000607: 36,3755           00764        5SEC               DEC      500        B-14
000608: 36,3756           05050        26SECS             DEC      2600       B-14
000609: 36,3757           00030        THRESH1            DEC      24         B-14
000610: 36,3760           00464        THRESH2            DEC      308        B-14
000611: 36,3761           00014        THRESH3            DEC      12         B-14
000612: 36,3762     5012               HIRTHROT           =        BIT13
000613: 36,3762           00203        P40A/PMD           OCT      00203
000614: 36,3763           04050        V16N40             VN       1640
000615: 36,3764           04125        V16N85B            VN       1685
000616: 36,3765           04123        V1683              VN       1683
000617: 36,3766     5047               SEC01              =        1SEC
000618: 36,3766  36,2037               ACADN85            =        P41TABLE   +2
000619:
000620: 36,3766  E7,1607                                  EBANK=   DELVIMU
000621: 36,3766           03460 74067  ACADN83            2CADR    CALCN83
000622:


000624:
000625:                                                                                                  #  *************************************************
000626:
000627:                                                                                                  #  PROGRAM DESCRIPTION S40.1       DATE15NOV66
000628:                                                                                                  #  MOD N02         LOG SECTION  P40-P47
000629:                                                                                                  #  MOD BY ZELDIN AND ADAPTED BY TALAYCO
000630:                                                                                                  #  FUNCTIONAL DESCRIPTION
000631:                                                                                                  #           COMPUTE INITIAL THRUST DIRECTION(UT) AND INITIAL VALUE OF VG
000632:                                                                                                  #           VECTOR(VGTIG).
000633:                                                                                                  #  CALLING SEQUENCE
000634:                                                                                                  #         L CALL
000635:                                                                                                  #       L+1        S40.1
000636:                                                                                                  #  NORMAL EXIT MODE
000637:                                                                                                  #           AT L+2 OF CALLING SEQUENCE (GOTO L+2)  NORMAL RETURN OR
000638:                                                                                                  #           ERROR RETURN IF NOSOFLAG =1
000639:                                                                                                  #  SUBROUTINES CALLED
000640:                                                                                                  #           LEMPREC
000641:                                                                                                  #           INITVEL
000642:                                                                                                  #           CALCGRAV
000643:                                                                                                  #           MIDGIM
000644:                                                                                                  #  ALARM OR ABORT EXIT MODES
000645:                                                                                                  #       L+2 OF CALLING SEQUENCE,UNSOLVABLE CONIC IF NOSOFLAG=1
000646:                                                                                                  #  ERASABLE INITIALIZATION REQUIRED
000647:                                                                                                  #                  WEIGHT/G  ANTICIPATED VEHICLE MASS         DP  B16KGM
000648:                                                                                                  #           XDELVFLG       1=DELTA-V MANEUVER,0=AIMPT STEER
000649:                                                                                                  #            F         THRUST FOR ENGINE USED
000650:                                                                                                  #        IF DELTA-V MANEUVER
000651:                                                                                                  #           DELVSIN   SPECIFIED DELTA-V REQUIRED IN
000652:                                                                                                  #                     INERTIAL COORDS. OF ACTIVE VEHICLE
000653:                                                                                                  #                     AT TIME OF IGNITION                 VECTOR B7M/CS
000654:                                                                                                  #           DELVSAB   MAG. OF DELVSIN                     DP     B7M/CS
000655:                                                                                                  #           RTIG      POSITION AT TIME OF IGNITION       VECTOR B29M
000656:                                                                                                  #           VTIG      VELOCITY AT TIME OF IGNITION       VECTOR B7M/CS
000657:                                                                                                  #        IF AIMPT STEER
000658:                                                                                                  #           TIG       TIME OF IGNITION                    DP     B28CS
000659:                                                                                                  #           RTARG     POSITION TARGET TIME               VECTOR B29M
000660:                                                                                                  #           CSTEER    C FOR STEER LAW                     DP     B2
000661:                                                                                                  #           DLTARG    TARGET TIME-IGNITION TIME          DP     B28CS
000662:                                                                                                  #  OUTPUT
000663:                                                                                                  #        UT           DESIRED THRUST DIRECTION            VECT. B2M/(CS.CS)
000664:                                                                                                  #        VGTIG        INITIAL VALUE OF VELOCITY
000665:                                                                                                  #                     TO BE GAINED (INERT. COORD.)        VECTOR B7M/CS
000666:                                                                                                  #        DELVLVC      VGTIG IN LOC. VERT. COORDS.                B7M/CS
000667:                                                                                                  #           BDT   V REQUIRED AT TIG -V REQUIRED AT (TIG-2SEC)
000668:                                                                                                  #           -GDT  FOR S40.13                                   VECT  B7M/CS
000669:                                                                                                  #        RTIG         CALC IN S40.1B(AIMPT) FOR S40.2,3  VECTOR B29M
000670:                                                                                                  #                     POSITION AT TIME OF IGNITION
000671:                                                                                                  #  DEBRIS      QTEMP1
000672:                                                                                                  #        MPAC,QPRET
000673:                                                                                                  #        PUSHLIST
000674:
000675: 14,2000                                           BANK     14
000676: 27,2000                                           SETLOC   P40S1
000677: 27,2000                                           BANK
000678:
000679: 27,2253                                           COUNT*   $$/S40.1
000680: 27,2253           44014        S40.1              CLEAR    STQ
000681: 27,2254           03264                                    FIRSTFLG
000682: 27,2255           03617                                    QTEMP
000683: 27,2256           77614        DELVTEST           BOFF
000684: 27,2257           01347                                    XDELVFLG
000685: 27,2260           56345                                    S40.1B
000686: 27,2261           77201        CALCTHET           SETPD    VLOAD
000687: 27,2262           00001                                    0
000688: 27,2263           03635                                    VTIG
000689: 27,2264           02347                           STORE    VINIT
000690: 27,2265           53435                           VXV      UNIT
000691: 27,2266           03627                                    RTIG
000692: 27,2267           27666                           STOVL    UT                                    #  UP IN UT
000693: 27,2270           03627                                    RTIG
000694: 27,2271           02341                           STORE    RINIT
000695: 27,2272           65236                           VSQ      PDDL
000696: 27,2273           00045                                    36D
000697: 27,2274           56205                           DMP      DDV
000698: 27,2275           16415                                    THETACON
000699: 27,2276           41205                           DMP      DMP
000700: 27,2277           03651                                    DELVSAB
000701: 27,2300           01244                                    WEIGHT/G
000702: 27,2301           77671                           DDV
000703: 27,2302           03723                                    F
000704: 27,2303           24017                           STOVL    14D
000705: 27,2304           03643                                    DELVSIN
000706:
000707: 27,2305           74241                           DOT      VXSC
000708: 27,2306           03666                                    UT
000709: 27,2307           03666                                    UT
000710: 27,2310           41552                           VSL2     PUSH                                  #  (DELTAV.UP)UP SCALED AT 2(+7) P.D.L. 0
000711: 27,2311           65245                           BVSU     PDDL                                  #  DELTA VP SCALED AT 2(+7) P.D.L. 6
000712: 27,2312           03643                                    DELVSIN
000713: 27,2313           00017                                    14D
000714: 27,2314           63356                           SIN      PDVL
000715: 27,2315           00007                                    6D
000716: 27,2316           53435                           VXV      UNIT
000717: 27,2317           03666                                    UT
000718: 27,2320           45561                           VXSC     STADR
000719: 27,2321           50103                           STOVL    VGTIG                                 #  UNIT(VPXUP)SIN(THETAT/2) IN VGTIG.
000720: 27,2322           65256                           UNIT     PDDL                                  #  UNIT(DELTA VP) IN P.D.L. 6
000721: 27,2323           00017                                    14D
000722: 27,2324           74346                           COS      VXSC
000723: 27,2325           74255                           VAD      VXSC
000724: 27,2326           03674                                    VGTIG
000725: 27,2327           00045                                    36D
000726: 27,2330           53352                           VSL2     VAD
000727: 27,2331           77626                           STADR
000728: 27,2332           74103                           STORE    VGTIG                                 #  VG IGNITION SCALED AT 2(+7) M/CS
000729:
000730: 27,2333           77656                           UNIT
000731: 27,2334           27666                           STOVL    UT                                    #  THRUST DIRECTION SCALED AT 2(+1)
000732: 27,2335           03674                                    VGTIG
000733: 27,2336           45006                           PUSH     CALL
000734: 27,2337           20025                                    GET.LVC                               #  VGTIG IN LV COOR AT 2(+7) M/CS IN DELVLVC
000735: 27,2340           77775                           VLOAD
000736: 27,2341           06233                                    ZEROVECS
000737: 27,2342           03660                           STORE    BDT
000738: 27,2343           77650                           GOTO
000739: 27,2344           03617                                    QTEMP
000740: 27,2345           77745        S40.1B             DLOAD
000741: 27,2346           03425                                    TIG
000742: 27,2347           00041                           STORE    TDEC1
000743: 27,2350           77621                           BDSU
000744: 27,2351           03616                                    TPASS4
000745: 27,2352           36355                           STCALL   DELLT4                                #  INTERCEPT TIME - TIG.
000746: 27,2353           27030                                    LEMPREC
000747: 27,2354           40375                           VLOAD    SETPD                                 #  LOAD STATE VECTOR AT TIG FOR INITVEL.
000748: 27,2355           00001                                    RATT
000749: 27,2356           00001                                    0
000750: 27,2357           03627                           STORE    RTIG
000751: 27,2360           26341                           STOVL    RINIT
000752: 27,2361           00007                                    VATT
000753: 27,2362           02347                           STORE    VINIT
000754: 27,2363           65345                           DLOAD    PDDL                                  #  NUMIT = 0
000755: 27,2364           06233                                    ZEROVECS
000756: 27,2365           16411                                    EPS1
000757: 27,2366           43214                           BOFF     DAD
000758: 27,2367           03745                                    NORMSW
000759: 27,2370           56372                                    SMALLEPS
000760: 27,2371           16413                                    EPS2                                  #  EPSILON4 = 10 DEGREES OR 45 DEGREES.
000761: 27,2372           74006        SMALLEPS           PUSH     AXC,1
000762: 27,2373           00002                                    2
000763: 27,2374           77624                           CALL
000764: 27,2375           22022                                    INITVEL
000765: 27,2376           41575                           VLOAD    PUSH
000766: 27,2377           03363                                    DELVEET3                              #  VGTIG = VR - VN.
000767: 27,2400           03674                           STORE    VGTIG
000768: 27,2401           77656                           UNIT                                           #  UT = UNIT (VGTIG)
000769: 27,2402           17666                           STODL    UT
000770: 27,2403           00045                                    36D
000771: 27,2404           37651                           STCALL   VGDISP                                #  CONVERT VGTIG (IN PUSHLIST ) TO LOCAL
000772: 27,2405           20025                                    GET.LVC                               #  VERTICAL COORDINATES.
000773: 27,2406           77650                           GOTO
000774: 27,2407           03617                                    QTEMP
000775:
000776: 27,2410           00707 03434  EPS1               2DEC*    2.777777778 E-2*                       #  10 DEGREES AT 1 REVOLUTION.
000777:
000778: 27,2412           03070 34344  EPS2               2DEC*    9.722222222 E-2*                       #  35 DEGREES AT 1 REVOLUTION.
000779: 27,2414           00024 13714  THETACON           2DEC     .31830989  B-8
000780:
000781:                                                                                                  #  SUBROUTINE NAME: S40.2,3        MOD. NO. 3 DATE: APRIL 4, 1967
000782:
000783:                                                                                                  #  MODIFICATION BY: JONATHAN D. ADDELSTON (ADAMS ASSOCIATES)
000784:
000785:                                                                                                  #  MOD. NO. 4:  JULY 18, 1967:  PETER ADLER (MIT/IL)
000786:
000787:                                                                                                  #  MOD. NO. 5:  OCTOBER 18, 1967:  PETER ADLER (MIT/IL)
000788:
000789:                                                                                                  #  ORIGINALLY BY: SAYDEAN ZELDIN (MIT INSTRUMENTATION LAB) AND RICHARD TALAYCO (SYSTEM DEVELOPMENT CORP)
000790:
000791:                                                                                                  #  S40.2,3 COMPUTES "POINTVSM" WHICH IS THE HALF-UNIT DESIRED THRUST VECTOR IN STABLE-MEMBER COORDINATES FROM "UT"
000792:                                                                                                  #  WHICH IS THE SAME VECTOR IN REFERENCE COORDINATES.  IT DETERMINES THE CORRECT VALUES FOR "SCAXIS" USING THE +X
000793:                                                                                                  #  AXIS FOR DPS, APS, AND RCS BURNS.  THE "WINGS-LEVEL HEADS-UP" LM ORIENTATION IS THEN COMPUTED IN REFERENCE
000794:                                                                                                  #  COORDINATES.  THESE VECTORS ALSO DEFINE THE "PREFERRED IMU ORIENTATION".  UPON COMPLETION OF THIS CALCULATION,
000795:                                                                                                  #  THE "PREFERRED ATTITUDE COMPUTED" FLAG IS SET (PFRATFLG).
000796:
000797:
000798:                                                                                                  #  CALLING SEQUENCE:
000799:                                                                                                  #                                          L        CALL                   INTERPRETIVE CALL.
000800:                                                                                                  #                                          L +1            S40.2,3
000801:                                                                                                  #                                          L +2    (RETURN)                GIMBAL ANGLE VECTOR IN MPAC.
000802:
000803:                                                                                                  #  SUBROUTINES CALLED:  NONE.
000804:
000805:                                                                                                  #  NORMAL RETURN:  L +2 (SEE CALLING SEQUENCE ABOVE).
000806:
000807:                                                                                                  #  ALARM/ABORT MODES:  NONE.
000808:
000809:                                                                                                  #  INPUT:
000810:
000811:                                                                                                  #           1. REFSMMAT            MATRIX FROM REFERENCE TO STABLE-MEMBER COORDINATES SCALED AT 2.
000812:                                                                                                  #           2. UT                  HALF-UNIT DESIRED THRUST DIRECTION.
000813:                                                                                                  #           3. RTIG                POSITION AT TIG IN REFERENCE COORDINATES.
000814:
000815:                                                                                                  #  OUTPUT:
000816:
000817:                                                                                                  #           1. : XSCREF :          WINGS-LEVEL HEADS-UP LM ORIENTATION
000818:                                                                                                  #              : YSCREF :          IN REFERENCE COORDINATES
000819:                                                                                                  #              : ZSCREF :          (PREFERRED IMU ORIENTATION).
000820:                                                                                                  #           2. POINTVSM            DESIRED THRUST DIRECTION IN STABLE-MEMBER COORDINATES.
000821:                                                                                                  #           3. SCAXIS              HALF-UNIT OF AXIS TO ALIGN IN STABLE-MEMBER COORDINATES.
000822:                                                                                                  #           4. PFRATFLG            INTERPRETIVE FLAG.  ON:  PREFERRED ORIENTATION COMPUTED; OFF:  NOT COMPUTED.
000823:
000824:                                                                                                  #  DEBRIS:  NONE.
000825:
000826:
000827: 27,2416                                           COUNT*   $$/S40.2
000828: 27,2416           77775        S40.2,3            VLOAD                                          #  UT: DESIRED THRUST DIRECTION (HALF-UNIT)
000829: 27,2417           03666                                    UT                                    #  (PUT INTO TOP OF PUSH-DOWN-LIST.)
000830: 27,2420           76521                           MXV      VSL1                                  #  TRANSFORM THRUST DIRECTION TO STABLE-
000831: 27,2421           01736                                    REFSMMAT                              #  MEMBER FROM REFERENCE COORDS (RESCALE).
000832: 27,2422           25256                           STOVL    POINTVSM                              #  SAVE FOR "VECPOINT" ROUTINE (LEMMANU).
000833: 27,2423           06231                                    UNITX                                 #  SCAXIS SET TO +X, FOR P40 AND P42 AND
000834: 27,2424           25250                           STOVL    SCAXIS                                #  FOR P41 IF RCS NOT -X,+Y,-Y,+Z,-Z.
000835:
000836: 27,2425           03666                                    UT                                    #  ASSUME +X BURN ALWAYS, EVEN FOR RCS.
000837: 27,2426           03574        PLUSX              STORE    XSCREF                                #  XSCREF = UT (DESIRED THRUST DIRECTION.)
000838: 27,2427           53435                           VXV      UNIT                                  #  RTIG = POSITION AT TIME-OF-IGNITION.
000839: 27,2430           03627                                    RTIG                                  #  YSCREF = UNIT(UT X RTIG)
000840: 27,2431           03602                           STORE    YSCREF
000841: 27,2432           76435                           VXV      VSL1                                  #  COMPUTE (YSCREF X XSCREF),BUT FOR A
000842: 27,2433           03574                                    XSCREF                                #  RIGHT HANDED SYSTEM, NEED (X CROSS Y).
000843: 27,2434           77676                           VCOMP                                          #  ZSCREF = - (YSCREF X XSCREF)
000844: 27,2435           03610                           STORE    ZSCREF                                #         = + (XSCREF X YSCREF)
000845:
000846: 27,2436           43414                           SET      RVQ
000847: 27,2437           01073                                    PFRATFLG
000848:
000849:                                                                                                  #  SUBROUTINE S40.8
000850:
000851:                                                                                                  #  MODIFIED APRIL 3, 1968  BY  PETER ADLER    MIT/IL
000852:
000853:                                                                                                  #  DESCRIPTION
000854:
000855:                                                                                                  #       S40.8 UPDATES THE VELOCITY-TO-BE-GAINED VECTOR, VG, (AND FOR LAMBERT TARGETTED BURNS ALSO EXTRAPOLATES VG
000856:                                                                                                  #  USING THE BDT VECTOR)  COMPUTES THE TIME FOR ISSUING THE ENGINE OFF COMMAND, TGO, AND CALLS THE ROUTINE
000857:                                                                                                  #  "FINDCDUW", WHICH GENERATES STEERING COMMANDS FOR THE DAP.
000858:
000859:                                                                                                  #  CALLING SEQUENCE
000860:
000861:                                                                                                  #  L-1      CALL
000862:                                                                                                  #  L               S40.8
000863:                                                                                                  #  L+1                      INTERPRETIVE RETURN
000864:
000865:                                                                                                  #  ALARM
000866:
000867:                                                                                                  #       IF VG . DELVREF IS NEGATIVE (VG AND DELVREF OVER 90 DEGREES APART), BYPASS TGO AND STEERING COMPUTATIONS
000868:                                                                                                  #  AND SET ALARM 1407.  RETURN TO CALLER NORMALLY.
000869:
000870:                                                                                                  #  INPUT AND INITIALIZATION
000871:
000872:                                                                                                  #  VGPREV          REFERENCE       2(7) M/CS
000873:                                                                                                  #  DELVREF         REFERENCE       2(7) M/CS
000874:                                                                                                  #  BDT             REFERENCE       2(7) M/CS
000875:                                                                                                  #  TDECAY          TAIL-OFF TIME   2(28)  CS
000876:                                                                                                  #  XDELVFLG        1 = EXTERNAL DELTA-V;  0 = LAMBERT (AIMPOINT)
000877:                                                                                                  #  STEERSW         1 = DO STEERING AND TGO COMPUTATIONS; 0 = VG UPDATE ONLY
000878:                                                                                                  #  FIRSTFLG        1 = GONE TO LAMBERT AT LEAST ONCE;  0 = HAVEN'T GONE TO LAMBERT YET
000879:
000880:                                                                                                  #  NOTE:  VGTIG EQUALS VGPREV
000881:
000882:                                                                                                  #  OUTPUT
000883:
000884:                                                                                                  #  STEERSW         SEE INPUT
000885:                                                                                                  #  IMPULSW         1 = ENGINE OFF IN TGO CENTISECONDS;  0 = CONTINUE BURN
000886:                                                                                                  #  TGO             TIME TO CUT-OFF 2(28)   CS
000887:                                                                                                  #  SEE FINDCDUW FOR STEERING OUTPUTS.
000888:
000889:                                                                                                  #  SUBROUTINE CALLED
000890:
000891:                                                                                                  #       FINDCDUW
000892:
000893:                                                                                                  #  DEBRIS
000894:
000895:                                                                                                  #       MPACS, PUSHLIST
000896:
000897: 27,2440                                           COUNT*   $$/S40.8
000898:
000899: 27,2440  E6,1420                                  EBANK=   OMEGAQ
000900: 27,2440           43175        S40.8              VLOAD    BON
000901: 27,2441           03674                                    VGPREV
000902: 27,2442           01307                                    XDELVFLG
000903: 27,2443           56450                                    VGNEW
000904: 27,2444           53214                           BOFF     VAD
000905: 27,2445           03344                                    FIRSTFLG
000906: 27,2446           56450                                    VGNEW
000907: 27,2447           03660                                    BDT
000908: 27,2450           77651        VGNEW              VSU
000909: 27,2451           03504                                    DELVREF
000910: 27,2452           03703        VGAIN*             STORE    VG                                    #  VELOCITY TO BE GAINED SCALED AT (7)M/CS
000911: 27,2453           76521                           MXV      VSL1
000912: 27,2454           01736                                    REFSMMAT
000913: 27,2455           77656                           UNIT
000914: 27,2456           03764                           STORE    UDSTEER
000915: 27,2457           77214                           BON      VLOAD
000916: 27,2460           03304                                    FIRSTFLG
000917: 27,2461           56464                                    BDTOK
000918: 27,2462           06233                                    HI6ZEROS
000919: 27,2463           03660                           STORE    BDT
000920: 27,2464           77745        BDTOK              DLOAD
000921: 27,2465           00045                                    36D
000922: 27,2466           03651                           STORE    VGDISP
000923: 27,2467           44001        TGOCALC            SETPD    STQ
000924: 27,2470           00001                                    0
000925: 27,2471           03771                                    S40EXIT
000926: 27,2472           77775                           VLOAD
000927: 27,2473           03703                                    VG
000928: 27,2474           27674                           STOVL    VGPREV
000929: 27,2475           03504                                    DELVREF
000930: 27,2476           57414                           BOFF     VCOMP
000931: 27,2477           01344                                    STEERSW
000932: 27,2500           03771                                    S40EXIT
000933: 27,2501           77656                           UNIT
000934: 27,2502           41441                           DOT      PUSH
000935: 27,2503           03703                                    VG
000936: 27,2504           56244                           BPL      DDV
000937: 27,2505           56627                                    ALARMIT                               #  DELV IS MORE THAN 90 DEGREES FROM VG.
000938: 27,2506           16646                                    2VEXHUST
000939: 27,2507           41215                           DAD      DMP
000940: 27,2510           06231                                    DPHALF
000941: 27,2511           56261                           SR       DDV
000942: 27,2512           20613                                    10D
000943: 27,2513           00045                                    36D
000944: 27,2514           43205                           DMP      DAD
000945: 27,2515           16644                                    -FOURDT
000946: 27,2516           03727                                    TDECAY
000947: 27,2517           03474                           STORE    TGO
000948: 27,2520           77615                           DAD
000949: 27,2521           01234                                    PIPTIME
000950: 27,2522           17425                           STODL    TIG
000951: 27,2523           03474                                    TGO
000952:
000953: 27,2524           51025                           DSU      BPL
000954: 27,2525           16650                                    FOURSECS                              #  400 CS
000955: 27,2526           56533                                    FINDCDUD
000956: 27,2527           43014                           SET      CLRGO
000957: 27,2530           01066                                    IMPULSW
000958: 27,2531           01224                                    STEERSW
000959: 27,2532           03771                                    S40EXIT
000960:
000961: 27,2533           44001        FINDCDUD           SETPD    STQ
000962: 27,2534           00001                                    0
000963: 27,2535           03771                                    S40EXIT
000964: 27,2536           77634                           RTB
000965: 27,2537           66533                                    TMPTOSPT
000966: 27,2540           45175                           VLOAD    CALL
000967: 27,2541           03764                                    UDSTEER
000968: 27,2542           47373                                    TRG*SMNB
000969: 27,2543           03764                           STORE    UDSTEER
000970: 27,2544           77775                           VLOAD
000971: 27,2545           01212                                    DELV
000972: 27,2546           45056                           UNIT     CALL
000973: 27,2547           47413                                    *SMNB*
000974: 27,2550           64451                           VSU      VSR3
000975: 27,2551           03461                                    UASTEER
000976: 27,2552           53455                           VAD      UNIT
000977: 27,2553           03461                                    UASTEER
000978: 27,2554           03461                           STORE    UASTEER
000979: 27,2555           47375                           VLOAD    VXV
000980: 27,2556           03461                                    UASTEER
000981: 27,2557           03764                                    UDSTEER
000982: 27,2560           00013                           STORE    10D
000983: 27,2561           41446                           ABVAL    PUSH
000984: 27,2562           50025                           DSU      BMN
000985: 27,2563           16654                                    SIN20DEG
000986: 27,2564           56576                                    SCALPROD
000987: 27,2565           77745                           DLOAD
000988: 27,2566           51025                           DSU      BPL
000989: 27,2567           16652                                    SIN45DEG
000990: 27,2570           56627                                    ALARMIT
000991: 27,2571           53575                           VLOAD    UNIT
000992: 27,2572           00013                                    10D
000993: 27,2573           76561                           VXSC     VSL1
000994: 27,2574           16654                                    SIN20DEG
000995: 27,2575           00013                           STORE    10D
000996:
000997: 27,2576           74375        SCALPROD           VLOAD    VXSC
000998: 27,2577           00013                                    10D
000999: 27,2600           16640                                    1/PI
001000: 27,2601           00013                           STORE    10D
001001: 27,2602           45001                           SETPD    CALL
001002: 27,2603           00001                                    0
001003: 27,2604           56655                                    CALCCMD
001004: 27,2605           53375                           VLOAD    VAD
001005: 27,2606           00025                                    20D
001006: 27,2607           00767                                    CDUSPOT
001007: 27,2610           77434                           RTB      EXIT
001008: 27,2611           21516                                    V1STO2S
001009:
001010: 27,2612           52155                           DXCH     MPAC
001011: 27,2613           53210                           DXCH     CTHETA
001012: 27,2614           31632                           CA       CDUXD
001013: 27,2615           55206                           TS       CPHI
001014:
001015: 27,2616           35012                           CAF      BIT13
001016: 27,2617           00006                           EXTEND
001017: 27,2620           02031                           RAND     CHAN31
001018: 27,2621           00006                           EXTEND
001019: 27,2622           12632                           BZF      S40.8XIT
001020:
001021: 27,2623           00006                           EXTEND
001022: 27,2624           31210                           DCA      CTHETA
001023: 27,2625           53634                           DXCH     CDUYD
001024: 27,2626           12632                           TCF      S40.8XIT
001025:
001026: 27,2627           77776        ALARMIT            EXIT
001027: 27,2630           05646                           TC       ALARM
001028: 27,2631           01407                           OCT      01407
001029: 27,2632           31176        S40.8XIT           CAE      TEMPR60
001030: 27,2633           54003                           TS       EBANK
001031: 27,2634           06014                           TC       INTPRET
001032: 27,2635           77650                           GOTO
001033: 27,2636           03771                                    S40EXIT
001034:
001035: 27,2637           24276 14076  1/PI               2DEC     0.3183099  B1
001036: 27,2641           00002 00545  UNUSEDC1           2OCT     00002      00545
001037:
001038: 27,2643           77715 77777  -FOURDT            2DEC     -800       B-18                       #  -4 (200 CS.)  B(-18)
001039: 27,2645           17000 00000  2VEXHUST           2DEC     3000       E-2        B-6
001040: 27,2647           00000 00620  FOURSECS           2DEC     400        B-28                       #  400 CS SCALED AT 2(+28)CS
001041: 27,2651           05520 11006  SIN45DEG           2DEC     0.7071     B-2
001042: 27,2653           02572 00505  SIN20DEG           2DEC     0.34229    B-2
001043:
001044: 27,2655           41345        CALCCMD            DLOAD    DMP
001045: 27,2656           00015                                    12D
001046: 27,2657           00751                                    COSCDUX
001047: 27,2660           41325                           PDDL     DMP
001048: 27,2661           00017                                    14D
001049: 27,2662           00743                                    SINCDUX
001050: 27,2663           77621                           BDSU
001051: 27,2664           77671                           DDV
001052: 27,2665           00747                                    COSCDUZ
001053: 27,2666           00025                           STORE    20D
001054: 27,2667           57545                           DLOAD    DCOMP
001055: 27,2670           00773                                    CDUSPOTX
001056: 27,2671           14031                           STODL    24D
001057: 27,2672           00015                                    12D
001058: 27,2673           65205                           DMP      PDDL
001059: 27,2674           00743                                    SINCDUX
001060: 27,2675           00017                                    14D
001061: 27,2676           43205                           DMP      DAD
001062: 27,2677           00751                                    COSCDUX
001063: 27,2700           77752                           SL1
001064: 27,2701           00027                           STORE    22D
001065: 27,2702           77616                           RVQ
001066:
001067:                                                                                                  #  NAME     S40.13 - TIMEBURN
001068:                                                                                                  #  FUNCTION        (1) DETERMINE WHETHER A GIVEN COMBINATION OF VELOCITY TO
001069:                                                                                                  #                  BE GAINED AND ENGINE CHOICE RESULT IN A BURN TIME
001070:                                                                                                  #                  SUFFICIENT TO ALLOW STEERING AT THE VEHICLE DURING THE
001071:                                                                                                  #                  BURN
001072:                                                                                                  #                  (2) THE MAGNITUDE OF THE RESULTING BURN TIME -- IF IT
001073:                                                                                                  #                  IS SHORT --  AND THE ASSOCIATED TIME OF THE ENGINE OFF
001074:                                                                                                  #                  SIGNAL
001075:                                                                                                  #  CALLING SEQUENCE  VIA FINDVAC AS A NEW JOB
001076:                                                                                                  #  INPUT           VGTIG VELOCITY TO BE GAINED VECTOR (METERS/CS) AT +7
001077:                                                                                                  #                  WEIGHT/G MASS OF VEHICLE IN KGM AT +16
001078:                                                                                                  #                  F  APS ENGINE THRUST IN M.NEWTONS AT +7
001079:                                                                                                  #                  AND ALSO FOR RCS ENGINE
001080:                                                                                                  #                  MDOT RATE OF DECREASE OF VEHICLE MASS DURING ENGINE
001081:                                                                                                  #                  BURN IN KILOGRAMS/CS  AT +3 . THIS SCALING MAY
001082:                                                                                                  #                  REQUIRE MODIFICATION FOR SATURN BURNS.
001083:                                                                                                  #           ENG1FLAG     SWITCH TO DECIDE WHETHER APS OR DPS ENGINE IS USED
001084:                                                                                                  #                   =0   DPS
001085:                                                                                                  #                   =1   APS
001086:                                                                                                  #  OUTPUT          IMPULSW  ZERO FOR STEERING
001087:                                                                                                  #                           ONE FOR ATTITUDE HOLD
001088:                                                                                                  #                  NOTHROTL  ZERO FOR THROTTLING
001089:                                                                                                  #                            ONE  TO INHIBIT THROTTLING
001090:                                                                                                  #                  TGO  TIME TO BURN IN CS
001091:                                                                                                  #           THE QUANTITY M.NEWTON = 10000 NEWTONS WILL BE USED TO EXPRESS
001092:                                                                                                  #                  FORCE
001093:
001094:
001095: 27,2703  E7,1473                                  EBANK=   TGO
001096: 27,2703                                           COUNT*   $$/40.13
001097: 27,2703           06014        S40.13             TC       INTPRET
001098: 27,2704           43001                           SETPD    CLEAR
001099: 27,2705           00001                                    00D
001100: 27,2706           01266                                    IMPULSW                               #  ASSUME NO STEERING UNTIL FOUND OTHERWISE
001101: 27,2707           51575                           VLOAD    ABVAL
001102: 27,2710           03674                                    VGTIG                                 #  VELOCITY TO BE GAINED AT +7
001103: 27,2711           41325                           PDDL     DMP                                   #  00D = MAG OF VGTIG AT +7
001104: 27,2712           17056                                    7SEC                                  #  700 CS AT + 18
001105: 27,2713           17060                                    FRCS2B3
001106: 27,2714           62471                           DDV      SL2                                   #  SCALE
001107: 27,2715           01244                                    WEIGHT/G
001108: 27,2716           41421                           BDSU     PUSH
001109: 27,2717           43014                           BOFF     SET
001110: 27,2720           00743                                    APSFLAG
001111: 27,2721           56771                                    S40.13D                               #  FOR DPS ENGINE
001112: 27,2722           02463                                    NOTHROTL
001113: 27,2723           56345                           DLOAD    DDV                                   #  00D = MAG OF VGTIG CORRECTED
001114: 27,2724           17040                                    K1VAL                                 #  M.NEWTONS-CS AT +24
001115: 27,2725           01244                                    WEIGHT/G
001116: 27,2726           50021                           BDSU     BMN
001117:
001118: 27,2727           00001                                    00D
001119: 27,2730           56753                                    S40.131                               #  TGO LESS THAN 100 CS
001120: 27,2731           41325                           PDDL     DMP                                   #  02D = TEMP1 AT +7
001121: 27,2732           03725                                    MDOT
001122:
001123:                                                                                                  #  MDOT REPRESENTS THE RATE OF DECREASE OF VEHICLE MASS DURING ENGINE
001124:                                                                                                  #  BURN IN KILOGRAMS/CS .  WHEN  SATURN IS USED , THE SCALING MAY
001125:                                                                                                  #  REQUIRE ADJUSTMENT
001126:
001127: 27,2733           17050                                    3.5SEC                                #  350 CS AT +14
001128: 27,2734           65221                           BDSU     PDDL
001129: 27,2735           01244                                    WEIGHT/G
001130: 27,2736           03723                                    F
001131: 27,2737           60405                           DMP      SR2                                   #  SCALE
001132: 27,2740           17052                                    5SECS
001133: 27,2741           41471                           DDV      PUSH                                  #  04D = TEMP2
001134: 27,2742           51021                           BDSU     BPL
001135: 27,2743           00003                                    02D
001136: 27,2744           56771                                    S40.13D
001137: 27,2745           55345                           DLOAD    BDDV
001138: 27,2746           43205                           DMP      DAD
001139: 27,2747           17052                                    5SECS
001140: 27,2750           17046                                    1SEC2D                                #  100 CS AT +14
001141: 27,2751           77650                           GOTO
001142: 27,2752           56761                                    S40.132
001143: 27,2753           41345        S40.131            DLOAD    DMP
001144: 27,2754           01244                                    WEIGHT/G
001145: 27,2755           41542                           SR1      PUSH
001146: 27,2756           56215                           DAD      DDV
001147: 27,2757           17042                                    K2VAL                                 #  M.NEWTON CS AT +24
001148: 27,2760           17044                                    K3VAL                                 #  M.NEWTON CS AT +10
001149: 27,2761           77414        S40.132            SET      EXIT
001150: 27,2762           01066                                    IMPULSW
001151: 27,2763           07231        S40.132*           TC       TPAGREE
001152: 27,2764           30154                           CA       MPAC
001153: 27,2765           56001                           XCH      L
001154: 27,2766           35030                           CA       ZERO
001155: 27,2767           53474                           DXCH     TGO
001156: 27,2770           13013                           TCF      S40.134
001157:
001158: 27,2771           41345        S40.13D            DLOAD    DMP                                   #  FOR DPS ENGINE
001159: 27,2772           00001                                    00D
001160: 27,2773           01244                                    WEIGHT/G
001161: 27,2774           43006                           PUSH     BON
001162: 27,2775           00703                                    APSFLAG
001163: 27,2776           57034                                    APSTGO
001164: 27,2777           43071                           DDV      CLEAR
001165: 27,3000           17062                                    S40.136
001166: 27,3001           02663                                    NOTHROTL
001167: 27,3002           41400                           BOV      PUSH
001168:
001169: 27,3003           57016                                    S40.130V
001170: 27,3004           51025        S40.137            DSU      BPL
001171: 27,3005           17054                                    6SEC                                  #  600.0 CS AT +14
001172: 27,3006           57024                                    S40.138
001173: 27,3007           52015                           DAD      GOTO
001174: 27,3010           17054                                    6SEC
001175: 27,3011           56761                                    S40.132
001176: 27,3012           77776        S40.133            EXIT
001177: 27,3013           05413        S40.134            TC       PHASCHNG
001178: 27,3014           00003                           OCT      00003
001179: 27,3015           05225                           TC       ENDOFJOB
001180: 27,3016           40545        S40.130V           DLOAD    SR4                                   #  RECOMPUTE TGO IN TIME2 UNITS
001181: 27,3017           77671                           DDV
001182: 27,3020           17064                                    S40.136_                              #  S40.136 SHIFTED LEFT 10
001183: 27,3021           03474                           STORE    TGO
001184: 27,3022           77776                           EXIT
001185: 27,3023           13013                           TCF      S40.134                               #  REJOIN COMMON CODING FOR RESTART PROTECT
001186:
001187: 27,3024           51025        S40.138            DSU      BPL
001188: 27,3025           17066                                    89SECS
001189: 27,3026           57031                                    STORETGO
001190: 27,3027           77614                           SET
001191: 27,3030           02463                                    NOTHROTL
001192: 27,3031           77745        STORETGO           DLOAD                                          #  LOAD TGO AT 2(14)
001193: 27,3032           77776                           EXIT
001194: 27,3033           12763                           TCF      S40.132*
001195:
001196: 27,3034           52071        APSTGO             DDV      GOTO
001197: 27,3035           17070                                    FAPSB9
001198: 27,3036           57032                                    STORETGO   +1
001199: 27,3037           00000 07621  K1VAL              2DEC     124.54     B-23                       #  2800 LB-SEC
001200: 27,3041           00000 00762  K2VAL              2DEC     31.138     B-24                       #  700  LB-SEC
001201: 27,3043           00030 35052  K3VAL              2DEC     1.556802   B-10                       #  FAPS ( 3500 LBS THRUST)
001202: 27,3045           00144 00000  1SEC2D             2DEC     100.0      B-14                       #  100.0 CS AT +14
001203: 27,3047           01274 00000  3.5SEC             2DEC     350.0      B-13                       #  350 CS AT +13
001204: 27,3051           00764 00000  5SECS              2DEC     500.0      B-14                       #  500.0 CS AT +14
001205: 27,3053           01130 00000  6SEC               2DEC     600.0      B-14                       #  600.0 CS AT +14
001206: 27,3055           00000 01274  7SEC               2DEC     700.0                                 #  700.0 CS
001207: 27,3057           26614 05221  FRCS2B3            2DEC     0.08896    B3                         #  200 LBS FORCE IN NEWTONS
001208: 27,3061           00016 36237  S40.136            2DEC     .4671      B-9                        #  .4671 M NEWTONS (DPS)
001209: 27,3063           35711 35663  S40.136_           2DEC     .4671      B+1                        #  S40.136 SHIFTED LEFT 10.
001210: 27,3065           21304 00000  89SECS             2DEC     8900.0     B-14
001211: 27,3067           00061 32124  FAPSB9             2DEC     1.5568     B-9                        #  3500 LBS FORCE IN NEWTONS
001212:                                                                                                  #  FUNCTION    (1) GENERATES REQUIRED VELOCITY AND VELOCITY-TO-BE-GAINED
001213:                                                                                                  #              VECTORS FOR USE DURING AIMPOINT MANEUVERS EVERY TWO
001214:                                                                                                  #              COMPUTATION CYCLES (4 SECONDS).
001215:                                                                                                  #              (2) UPDATES THE B VECTOR WHICH IS USED IN THE FINAL
001216:                                                                                                  #              CALCULATION OF EXTRAPOLATING THE VELOCITY-TO-BE-GAINED
001217:                                                                                                  #              THROUGH ONE 2-SECOND INTERVAL INTO THE FUTURE.
001218:                                                                                                  #  CALLING SEQ VIA FINDVAC AS NEW JOB.
001219:
001220:                                                                                                  #  INPUT       RN       - ACTIVE VEHICLE RADIUS VECTOR IN METERS AT +29.
001221:                                                                                                  #              VN       - ACTIVE VEHICLE VELOCITY VECTOR IN METERS/CS AT +7
001222:                                                                                                  #              VRPREV   - LAST COMPUTED VELOCITY REQUIRED VECTOR IN
001223:                                                                                                  #                         METERS/CS AT +7.
001224:                                                                                                  #              TIG      - TIME OF IGNITION IN CS AT +28.
001225:                                                                                                  #              DLTARG   - COMPUTATION CYCLE INTERVAL = 200 CS AT +28.
001226:                                                                                                  #              PIPTIME  - TIME OF RN AND VN IN CS AT +28.
001227:                                                                                                  #              GDT/2    - HALF OF VELOCITY GAINED IN DELTA T TIME DUE TO
001228:                                                                                                  #                         ACCERERATION OF GRAVITY IN METERS/CS AT +7.
001229:                                                                                                  #              DELVREF  - CHANGE IN VELOCITY DURING LAST 2 SEC IN
001230:                                                                                                  #                         METERS/CS AT +7.
001231:                                                                                                  #  OUTPUT      VGPREV   - VELOCITY TO BE GAINED VECTOR IN METERS/CS AT +7.
001232:                                                                                                  #              VGDISP   - MAG OF VGPREV FOR DISPLAY PURPOSES.
001233:                                                                                                  #              VRPREV   - VELOCITY REQUIRED VECTOR IN METERS/CS AT +7.
001234:                                                                                                  #              BDT      - B VECTOR IN METERS/CS AT +7.
001235:                                                                                                  #  SUBROUTINES USED  -  INITVEL
001236:
001237: 27,3071  E7,1673                                  EBANK=   VGPREV
001238: 27,3071                                           COUNT*   $$/S40.9
001239: 27,3071           06014        S40.9              TC       INTPRET
001240: 27,3072           77201                           SETPD    VLOAD
001241: 27,3073           00001                                    00D
001242: 27,3074           01220                                    RN                                    #  ACTIVE VEHICLE RADIUS VECTOR AT T1
001243: 27,3075           26341                           STOVL    RINIT
001244: 27,3076           01226                                    VN                                    #  ACTIVE VEHICLE VELOCITY VECTOR AT T1
001245: 27,3077           16347                           STODL    VINIT
001246: 27,3100           01234                                    PIPTIME
001247: 27,3101           03717                           STORE    TNIT
001248: 27,3102           77621                           BDSU
001249: 27,3103           03616                                    TPASS4
001250: 27,3104           02355                           STORE    DELLT4                                #  T2 - T1
001251: 27,3105           71214                           SET      DLOAD
001252: 27,3106           01072                                    AVFLAG                                #  SET AVFLAG FOR LEM ACTIVE
001253: 27,3107           06233                                    HI6ZEROS
001254: 27,3110           77725                           PDDL
001255: 27,3111           16411                                    EPS1
001256: 27,3112           43214                           BOFF     DAD                                   #  EPSILON4 = 10 OR 45 DEGREES.
001257: 27,3113           03745                                    NORMSW
001258: 27,3114           57116                                    EPSSMALL
001259: 27,3115           16413                                    EPS2
001260: 27,3116           74006        EPSSMALL           PUSH     AXC,1
001261: 27,3117           00002                                    2
001262: 27,3120           45014        S40.92             BOFSET   CALL
001263: 27,3121           03044                                    FIRSTFLG
001264: 27,3122           57224                                    INITINIT
001265: 27,3123           22024                                    HAVEGUES
001266: 27,3124           52375                           VLOAD    VSU
001267: 27,3125           02357                                    VIPRIME
001268: 27,3126           03711                                    VRPREV
001269: 27,3127           45325                           PDDL     DSU
001270: 27,3130           03717                                    TNIT
001271: 27,3131           03721                                    TNITPREV
001272:
001273: 27,3132           55261                           SL       BDDV
001274: 27,3133           20223                                    18D
001275: 27,3134           17223                                    100B10
001276: 27,3135           77761                           VXSC
001277: 27,3136           76451                           VSU      VSL1
001278: 27,3137           01236                                    GDT/2
001279: 27,3140           03660                           STORE    BDT
001280:
001281: 27,3141           53575        GETGOBL            VLOAD    UNIT                                  #  CALCULATE OBLATENESS TERM.
001282: 27,3142           01220                                    RN
001283: 27,3143           45345                           DLOAD    DSU
001284: 27,3144           01234                                    PIPTIME                               #               2
001285: 27,3145           03574                                    GOBLTIME                              #  G    = -(MU/R )(UNITGOBL)(T - TIG)
001286: 27,3146           56205                           DMP      DDV                                   #   OBL
001287: 27,3147           17231                                    EARTHMU
001288: 27,3150           00043                                    34D                                   #  34D = /RN/ (2) FROM UNIT OPERATION.
001289: 27,3151           53361                           VXSC     VAD
001290: 27,3152           03476                                    UNITGOBL
001291: 27,3153           03363                                    DELVEET3                              #  OUTPUT FROM INITVEL VG = VR - VN
001292: 27,3154           03363                           STORE    DELVEET3                              #  VG = VR + GOBL - VN
001293: 27,3155           77646        NOGOBL             ABVAL
001294: 27,3156           17651                           STODL    VGDISP
001295: 27,3157           03717                                    TNIT
001296: 27,3160           03721                           STORE    TNITPREV
001297: 27,3161           77776                           EXIT
001298: 27,3162           05413                           TC       PHASCHNG
001299: 27,3163           05022                           OCT      05022
001300: 27,3164           14000                           OCT      14000
001301: 27,3165           06014                           TC       INTPRET
001302: 27,3166           77775                           VLOAD
001303: 27,3167           02357                                    VIPRIME                               #  VR(T)
001304: 27,3170           03711                           STORE    VRPREV
001305: 27,3171           77776                           EXIT
001306: 27,3172           05413                           TC       PHASCHNG
001307: 27,3173           05022                           OCT      05022
001308: 27,3174           14000                           OCT      14000
001309: 27,3175           06014                           TC       INTPRET
001310: 27,3176           77214                           BON      VLOAD
001311: 27,3177           01305                                    CYCLESW
001312: 27,3200           57206                                    S40.91
001313: 27,3201           03363                                    DELVEET3
001314: 27,3202           03674                           STORE    VGPREV
001315: 27,3203           52014                           SET      GOTO
001316: 27,3204           01065                                    CYCLESW
001317: 27,3205           57216                                    ENDS40.9
001318: 27,3206           53375        S40.91             VLOAD    VAD                                   #  EXTRAPOLATE FOR V TO GAIN
001319: 27,3207           03363                                    DELVEET3
001320: 27,3210           03660                                    BDT
001321:
001322: 27,3211           77651                           VSU
001323: 27,3212           03504                                    DELVREF
001324: 27,3213           03674                           STORE    VGPREV
001325: 27,3214           77646                           ABVAL
001326: 27,3215           03651                           STORE    VGDISP                                #  FOR DISPLAY PURPOSES
001327: 27,3216           77776        ENDS40.9           EXIT
001328: 27,3217           05413                           TC       PHASCHNG
001329: 27,3220           00002                           OCT      2
001330: 27,3221           05225                           TC       ENDOFJOB
001331: 27,3222           03100 00000  100B10             2DEC     100        B-10
001332: 27,3224           77624        INITINIT           CALL
001333: 27,3225           22024                                    HAVEGUES
001334: 27,3226           77650                           GOTO
001335: 27,3227           57141                                    GETGOBL
001336:
001337: 27,3230           55340 61710  EARTHMU            2DEC*    -3.986032  E10        B-36*           #  M(3)/CS(2)
001338:
001339:                                                                                                  #  MOD 0     24 FEB 67     PETER ADLER
001340:                                                                                                  #  FUNCTION:
001341:                                                                                                  #           TRIMS DPS ENGINE TO MINIMIZE THRUST/CG OFFSET. ENGINE IS GIMBALLED TO FULL + PITCH AND + ROLL (TO LOCK)
001342:                                                                                                  #           FOR REFERENCE AND IS THEN BROUGHT BACK TO TRIM POSITION BY RUNNING FOR THE PROPER TIMES (TO BE
001343:                                                                                                  #           SPECIFIED BY GAEC) IN - PITCH AND - ROLL.
001344:                                                                                                  #  CALLING SEQUENCE:
001345:                                                                                                  #           VIA WAITLIST FROM R03
001346:                                                                                                  #  INPUT:
001347:                                                                                                  #           PITTIME     TIME TO RUN FROM FULL + PITCH TO TRIM  (CS)
001348:                                                                                                  #           ROLLTIME    TIME TO RUN FROM FULL + ROLL  TO TRIM  (CS)
001349:                                                                                                  #  SUBROUTINES USED:
001350:                                                                                                  #           WAITLIST, FIXDELAY, VARDELAY, FLAGUP, FLAGDOWN, NOVAC
001351:
001352: 27,3232                                           COUNT*   $$/S40.6
001353: 27,3232  E6,1401                                  EBANK=   ROLLTIME                              #  OCTAL MASKS:  PRIO5=05000 EBANK5=02400
001354:
001355: 27,3232           05575        TRIMGIMB           TC       DOWNFLAG                              #  GMBDRVSW FLAG IS SET WHEN EITHER ROLL OR
001356: 27,3233           00137                           ADRES    GMBDRVSW                              #  PITCH IS COMPLETED, WHICHEVER IS FIRST.
001357:
001358: 27,3234           35065                           CAF      EBANK6
001359: 27,3235           56003                           XCH      EBANK
001360: 27,3236           54061                           TS       ITEMP1
001361:
001362: 27,3237           45067                           CS       PRIO5                                 #  TURN OFF - PITCH, - ROLL, IF ON.
001363: 27,3240           00006                           EXTEND
001364: 27,3241           03012                           WAND     CHAN12
001365: 27,3242           35064                           CAF      EBANK5                                #  TURN ON + PITCH, + ROLL.
001366: 27,3243           00006                           EXTEND
001367: 27,3244           05012                           WOR      CHAN12
001368: 27,3245           05271                           TC       FIXDELAY                              #  WAIT ONE MINUTE TO MAKE SURE ENGINE IS
001369: 27,3246           13560                           DEC      6000       B-14                       #  AT FULL + PITCH AND FULL + ROLL
001370: 27,3247           45064                           CS       EBANK5                                #  TURN OFF + PITCH, + ROLL.
001371: 27,3250           00006                           EXTEND
001372: 27,3251           03012                           WAND     CHAN12
001373: 27,3252           35067                           CAF      PRIO5                                 #  TURN ON - PITCH, - ROLL.
001374: 27,3253           00006                           EXTEND
001375: 27,3254           05012                           WOR      CHAN12
001376: 27,3255           31402                           CAE      PITTIME                               #  GET TIME TO SHUT OFF - PITCH AND SET UP
001377: 27,3256           05243                           TC       TWIDDLE                               #  TWIDDLE-TASK TO TURN IT OFF THEN
001378:
001379: 27,3257           03300                           ADRES    PITCHOFF
001380:
001381: 27,3260           31401                           CAE      ROLLTIME                              #  GET TIME TO SHUT OFF - ROLL AND GO AWAY
001382: 27,3261           05274                           TC       VARDELAY                              #  UNTIL THEN
001383: 27,3262           45013                           CS       BIT12
001384: 27,3263           00006                           EXTEND
001385: 27,3264           03012                           WAND     CHAN12                                #  SHUT OFF ROLL
001386: 27,3265           30102        ROLLOVER           CA       FLAGWRD6                              #  IF HERE INLINE (ROLL DONE) IS PITCH DONE
001387: 27,3266           75015                           MASK     GMBDRBIT                              #  IF HERE FROM PITCHOFF, IS ROLL DONE?
001388: 27,3267           00006                           EXTEND
001389: 27,3270           13304                           BZF      PITCHOFF   +4                         #  NO.  SET FLAG, ROLL OR PITCH DONE.
001390: 27,3271           30061                           CA       ITEMP1
001391: 27,3272           54003                           TS       EBANK
001392: 27,3273           35012                           CAF      PRIO10                                #  RETURN TO R03
001393: 27,3274           05142                           TC       NOVAC
001394: 27,3275  E7,1456                                  EBANK=   WHOCARES
001395: 27,3275           02171 40067                     2CADR    TRIMDONE
001396: 27,3277           05321                           TC       TASKOVER
001397: 27,3300           45015        PITCHOFF           CS       BIT10
001398: 27,3301           00006                           EXTEND
001399: 27,3302           03012                           WAND     CHAN12                                #  SHUT OFF PITCH
001400: 27,3303           13265                           TCF      ROLLOVER                              #  SEE IF ROLL HAS FINISHED ALSO.
001401: 27,3304           05563                           TC       UPFLAG                                #  ROLL DONE; OR PITCH DONE; BUT NOT BOTH.
001402: 27,3305           00137                           ADRES    GMBDRVSW
001403: 27,3306           05321                           TC       TASKOVER
001404:
001405:                                                                                                  #  SUBROUTINE NAME: S41.1          MOD. NO. 0  DATE: FEBRUARY 28, 1967
001406:
001407:                                                                                                  #                          MOD. NO. 1  DATE: JANUARY 23, 1968: BY PETER ADLER (MIT/IL)
001408:
001409:                                                                                                  #  AUTHOR: JONATHAN D. ADDELSTON (ADAMS ASSOCIATES)
001410:
001411:                                                                                                  #  S41.1 PERFORMS THE COORDINATE SYSTEM TRANFORMATION FROM THE REFERENCE FRAME TO THE BODY OF THE LM.
001412:                                                                                                  #  SPECIFICALLY, IT IS USED TO TRANSFORM A VELOCITY (SCALED AT 2(+7) METERS/CENTISECOND) FROM REFERENCE TO LM AXIS
001413:                                                                                                  #  COORDINATES.  FIRST THE VECTOR IS TRANSFORMED TO THE STABLE MEMBER COORDINATES BY THE MATRIX REFSMMAT.  THIS
001414:                                                                                                  #  LEAVES THE VECTOR IN MPAC, SCALED AT 2(+8) METERS/CENTISECOND.  THEN
001415:                                                                                                  #  THE SUBROUTINE CDUTRIG IS CALLED TO SET UP THE DOUBLE-PRECISION CDU VECTOR ALONG WITH ITS SINES AND COSINES.
001416:                                                                                                  #  THE VECTOR IS THEN TRANSFORMED FROM STABLE MEMBER COORDINATES TO SPACECRAFT (OR LM) COORDINATES BY THE
001417:                                                                                                  #  SUBROUTINE *SMNB*.  FINALLY( THE VECTOR IS RESCALED TO 2(+7) METERS/CENTISECOND, AND CONTROL IS RETURNED TO THE
001418:                                                                                                  #  CALLER WITH C(MPAC) = VELOCITY(LM).
001419:
001420:
001421:                                                                                                  #  CALLING SEQUENCE:
001422:                                                                                                  #                                          L        VLOAD  CALL
001423:                                                                                                  #                                          L +1            VELOCITY(REF)   SCALED AT 2(+7)M/CS IN REFERENCE COORDS.
001424:                                                                                                  #                                          L +2            S41.1
001425:                                                                                                  #                                          L +3     STORE  VELOCITY(LM)    SCALED AT 2(+7)M/CS IN LM BODY AXIS SYS.
001426:
001427:                                                                                                  #  SUBROUTINES CALLED:
001428:
001429:                                                                                                  #           1.  CDUTRIG,
001430:                                                                                                  #                  WHICH CALLS CDULOGIC.
001431:                                                                                                  #           2.  *SMNB*
001432:
001433:                                                                                                  #  NORMAL RETURN: L +3 (SEE CALLING SEQUENCE, ABOVE.)
001434:
001435:                                                                                                  #  ALARM/ABORT MODES: NONE.
001436:
001437:                                                                                                  #  RESTART PROTECTION: NONE.
001438:
001439:                                                                                                  #  INPUT:
001440:
001441:                                                                                                  #           1.  REFSMMAT.
001442:                                                                                                  #           2.  CDUX, CDUY, CDUZ.
001443:                                                                                                  #           3.  VELOCITY (REF) IN MPAC.
001444:
001445:                                                                                                  #  OUTPUT:
001446:
001447:                                                                                                  #           1.  CDUSPOT:  DOUBLE PRECISION CDU VECTOR, ORDERED Y,Z,X.
001448:                                                                                                  #           2.  SINCDU:   HALF SINES OF CDUSPOT COMPONENTS.
001449:                                                                                                  #           3.  COSCDU:   HALF COSINES OF CDUSPOT COMPONENTS.
001450:                                                                                                  #           4.  MPAC:     VELOCITY(LM) (SCALED AT 2(+7) METERS/CENTISECOND)
001451:
001452:                                                                                                  #  DEBRIS: NONE.
001453:
001454:                                                                                                  #  CHECKOUT STATUS:  CODED.
001455:
001456: 27,3307                                           COUNT*   $$/S41.1
001457: 27,3307           76521        S41.1              MXV      VSL1                                  #  CONVERT VECTOR IN MPAC FROM REF AT 2(+7)
001458: 27,3310           01736                                    REFSMMAT                              #  TO SM AND RESCALE DUE TO HALFUNIT MATRIX
001459: 27,3311           77650                           GOTO                                           #  CONVERT TO BODY AT 2(+7) USING PRESENT
001460: 27,3312           47370                                    CDU*SMNB                              #  CDU ANGLES.  CDU*SMNB WILL RETURN
001461:                                                                                                  #  VIA RVQ TO THE CALLER OF S41.1

End of include-file P40-P47.agc.  Parent file is MAIN.agc


