
Source Code


000002:                                                                                                  ## Copyright:   Public domain.
000003:                                                                                                  ## Filename:    P51-P53.agc
000004:                                                                                                  ## Purpose:     A section of a reconstructed, mixed version of Sundance
000005:                                                                                                  ##              It is part of the reconstructed source code for the Lunar
000006:                                                                                                  ##              Module's (LM) Apollo Guidance Computer (AGC) for Apollo 9.
000007:                                                                                                  ##              No original listings of this program are available;
000008:                                                                                                  ##              instead, this file was created via disassembly of dumps
000009:                                                                                                  ##              of various revisions of Sundance core rope modules.
000010:                                                                                                  ## Assembler:   yaYUL
000011:                                                                                                  ## Contact:     Ron Burkey <info@sandroid.org>.
000012:                                                                                                  ## Website:     www.ibiblio.org/apollo/index.html
000013:                                                                                                  ## Mod history: 2020-06-17 MAS  Created from Luminary 69.
000014:
000015:                                                                                                  ## Sundance 302
000016:
000017:                                                                                                  #  PROGRAM NAME- PROG52                                                                   DATE- JAN 9, 1967
000018:                                                                                                  #  MOD NO- 0                                                                              LOG SECTION- P51-P53
000019:                                                                                                  #  MODIFICATION BY- LONSKE                                                                ASSEMBLY- SUNDANCE REV 46
000020:
000021:                                                                                                  #  FUNCTIONAL DESCRIPTION-
000022:
000023:                                                                                                  #       ALIGNS THE IMU TO ONE OF THREE ORIENTATIONS SELECTED BY THE ASTRONAUT. THE PRESENT IMU ORIENTATION IS KNOWN
000024:                                                                                                  #  AND IS STORED IN REFSMMAT. THE THREE POSSIBLE ORIENTATIONS MAY BE_
000025:
000026:                                                                                                  #       (A) PREFERRED ORIENTATION
000027:
000028:                                                                                                  #        AN OPTIMUM ORIENTATION FOR A PREVIOUSLY CALCULATED MANUEVER. THIS ORIENTATION MUST BE CALCULATED AND
000029:                                                                                                  #       STORED BY A PREVIOUSLY SELECTED PROGRAM.
000030:
000031:                                                                                                  #       (B) NOMINAL ORIENTATION
000032:
000033:                                                                                                  #           X   =  UNIT ( R )
000034:                                                                                                  #           -SM
000035:
000036:                                                                                                  #           Y  =  UNIT (V X R)
000037:                                                                                                  #            SM
000038:
000039:                                                                                                  #           Z   =  UNIT (X   X  Y  )
000040:                                                                                                  #            SM           SM     SM
000041:
000042:                                                                                                  #           WHERE_
000043:                                                                                                  #            R = THE GEOCENTRIC RADIUS VECTOR AT TIME T(ALIGN) SELECTED BY THE ASTRONAUT
000044:                                                                                                  #            -
000045:
000046:                                                                                                  #            V = THE INERTIAL VELOCITY VECTOR AT TIME T(ALIGN) SELECTED BY THE ASTRONAUT
000047:                                                                                                  #            -
000048:
000049:                                                                                                  #       (C) REFSMMAT ORIENTATION
000050:
000051:                                                                                                  #           (D)  LANDING SITE - THIS IS NOT AVAILIBLE IN SUNDANCE
000052:
000053:                                                                                                  #        THIS SELECTION CORRECTS THE PRESENT IMU ORIENTATION. THE PRESENT ORIENTATION DIFFERS FROM THAT TO WHICH IT
000054:                                                                                                  #       WAS LAST ALIGNED ONLY DUE TO GYRO DRIFT(I.E. NEITHER GIMBAL LOCK NOR IMU POWER INTERRUPTION HAS OCCURED
000055:                                                                                                  #       SINCE THE LAST ALIGNMENT).
000056:
000057:                                                                                                  #       AFTER A IMU ORIENTATION HAS BEEN SELECTED ROUTINE S52.2 IS OPERATED TO COMPUTE THE GIMBAL ANGLES USING THE
000058:                                                                                                  #  NEW ORIENTATION AND THE PRESENT VEHICLE ATTITUDE. CAL52A THEN USES THESE ANGLES, STORED IN THETAD,+1,+2, TO
000059:                                                                                                  #  COARSE ALIGN THE IMU. THE STAR SELECTION ROUTINE, R56, IS THEN OPERATED. IF 2 STARS ARE NOT AVAILABLE AN ALARM
000060:                                                                                                  #  IS FLASHED TO NOTIFY THE ASTRONAUT. AT THIS POINT THE ASTRONAUT WILL MANUEVER THE VEHICLE AND SELECT 2 STARS
000061:                                                                                                  #  EITHER MANUALLY OR AUTOMATICALLY. AFTER 2 STARS HAVE BEEN SELECTED THE IMU IS FINE ALIGNED USING ROUTINE R51. IF
000062:                                                                                                  #  THE RENDEZVOUS NAVIGATION PROCESS IS OPERATING(INDICATED BY RNDVZFLG) P20 IS DISPLAYED. OTHERWISE P00 IS
000063:                                                                                                  #  REQUESTED.
000064:
000065:                                                                                                  #  CALLING SEQUENCE-
000066:
000067:                                                                                                  #       THE PROGRAM IS CALLED BY THE ASTRONAUT BY DSKY ENTRY.
000068:
000069:                                                                                                  #  SUBROUTINES CALLED-
000070:
000071:                                                                                                  #      1. FLAGDOWN      7. S52.2           13. NEWMODEX
000072:                                                                                                  #      2. R02BOTH       8. CAL53A          14. PRIOLARM
000073:                                                                                                  #      3. GOPERF4       9. FLAGUP
000074:                                                                                                  #      4. MATMOVE      10. R56
000075:                                                                                                  #      5. GOFLASH      11. R51
000076:                                                                                                  #      6. S52.3        12. GOPERF3
000077:
000078:                                                                                                  #  NORMAL EXIT MODES-
000079:
000080:                                                                                                  #      EXITS TO ENDOFJOB
000081:
000082:                                                                                                  #  ALARM OR ABORT EXIT MODES-
000083:
000084:                                                                                                  #      NONE
000085:
000086:                                                                                                  #  OUTPUT-
000087:
000088:                                                                                                  #      THE FOLLOWING MAY BE FLASHED ON THE DSKY
000089:                                                                                                  #         1. IMU ORIENTATION CODE
000090:                                                                                                  #         2. ALARM CODE 215 -PREFERRED IMU ORIENTATION NOT SPECIFIED
000091:                                                                                                  #         3. TIME OF NEXT IGNITION
000092:                                                                                                  #         4. GIMBAL ANGLES
000093:                                                                                                  #         5. ALARM CODE 405 -TWO STARS NOT AVAILABLE
000094:                                                                                                  #         6. PLEASE PERFORM P00
000095:                                                                                                  #      THE MODE DISPLAY MAY BE CHANGED TO 20
000096:
000097:                                                                                                  #  ERASABLE INITIALIZATION REQUIRED-
000098:
000099:                                                                                                  #      PFRATFLG SHOULD BE SET IF A PREFERRED ORIENTATION HAS BEEN COMPUTED.IF IT HAS BEEN COMPUTED IT IS STORED IN
000100:                                                                                                  #      XSMD,YSMD,ZSMD.
000101:                                                                                                  #      RNDVZFLG INDICATES WHETHER THE RENDEZVOUS NAVIGATION PROCESS IS OPERATING.
000102:
000103:                                                                                                  #  DEBRIS-
000104:
000105:                                                                                                  #      WORK AREA
000106: 33,3736                                           BANK     33
000107: 15,2000                                           SETLOC   P50S
000108: 15,2000                                           BANK
000109:
000110: 15,2000  E5,1755                                  EBANK=   BESTI
000111: 15,2000                                           COUNT*   $$/P52
000112: 15,2000           04655        PROG52             TC       BANKCALL
000113: 15,2001           11064                           CADR     R02BOTH                               #  IMU STATUS CHECK
000114: 15,2002           35023                           CAF      PFRATBIT
000115: 15,2003           70076                           MASK     FLAGWRD2                              #  IS PFRATFLG SET?
000116: 15,2004           10000                           CCS      A
000117:
000118: 15,2005           02010                           TC       P52A                                  #  YES
000119: 15,2006           35025                           CAF      BIT2                                  #  NO
000120: 15,2007           02011                           TC       P52A       +1
000121: 15,2010           35026        P52A               CAF      BIT1
000122: 15,2011           55156                           TS       OPTION2
000123: 15,2012           35026        P52B               CAF      BIT1
000124: 15,2013           04655                           TC       BANKCALL                              #  FLASH OPTION CODE AND ORIENTATION CODE
000125: 15,2014           20611                           CADR     GOPERF4R                              #  FLASH V04N06
000126: 15,2015           04106                           TC       GOTOPOOH
000127: 15,2016           12023                           TCF      +5                                    #  V33-PROCEED
000128: 15,2017           02012                           TC       P52B                                  #  NEW CODE - NEW ORIENTATION CODE INPUT
000129: 15,2020           05413                           TC       PHASCHNG                              #  DISPLAY RETURN
000130: 15,2021           00014                           OCT      00014
000131: 15,2022           05225                           TC       ENDOFJOB
000132:
000133: 15,2023           31156                           CA       OPTION2
000134: 15,2024           76221                           MASK     THREE
000135: 15,2025           50000                           INDEX    A
000136: 15,2026           02027                           TC       +1
000137: 15,2027           02035                           TC       P52T
000138: 15,2030           02136                           TC       P52J
000139: 15,2031           02035                           TC       P52T
000140: 15,2032           06014        P52E               TC       INTPRET
000141: 15,2033           77650                           GOTO
000142: 15,2034           32132                                    P52F
000143: 15,2035           00006        P52T               EXTEND
000144: 15,2036           35030                           DCA      NEG0
000145: 15,2037           53047                           DXCH     DSPTEM1
000146: 15,2040           32156                           CAF      V06N34*
000147: 15,2041           04655                           TC       BANKCALL
000148: 15,2042           20406                           CADR     GOFLASH
000149: 15,2043           04106                           TC       GOTOPOOH
000150: 15,2044           02046                           TC       +2
000151: 15,2045           02040                           TC       -5
000152: 15,2046           11046                           CCS      DSPTEM1
000153: 15,2047           12055                           TCF      P52V
000154: 15,2050           12052                           TCF      +2                                    #  IF TIME ZERO OR NEG USE TIME2
000155: 15,2051           12052                           TCF      +1
000156: 15,2052           00006                           EXTEND
000157: 15,2053           30025                           DCA      TIME2
000158: 15,2054           53047                           DXCH     DSPTEM1
000159: 15,2055           31156        P52V               CA       OPTION2
000160: 15,2056           75025                           MASK     BIT2
000161: 15,2057           10000                           CCS      A
000162: 15,2060           02104                           TC       P52W
000163:
000164: 15,2061           32157        LSDISP             CAF      V06N89*                               #  DISPLAY LAT,LONG/2, ALT
000165: 15,2062           04655                           TC       BANKCALL
000166: 15,2063           20406                           CADR     GOFLASH
000167: 15,2064           04106                           TC       GOTOPOOH                              #  VB34 TERMINATE
000168: 15,2065           02067                           TC       +2                                    #  VB33 PROCEED
000169: 15,2066           02061                           TC       LSDISP                                #  VB32 RECYCLE
000170:
000171: 15,2067           06014                           TC       INTPRET                               #  OPTION 4 - GET LS ORIENTATION
000172: 15,2070           43014                           SET      SET
000173: 15,2071           00462                                    ERADFLAG
000174: 15,2072           01463                                    LUNAFLAG
000175: 15,2073           45145                           DLOAD    CALL
000176: 15,2074           01047                                    DSPTEM1
000177: 15,2075           26374                                    LALOTORV
000178: 15,2076           53575                           VLOAD    UNIT                                  #  COMPUTE LANDING SITE ORIENT (XSMD)
000179: 15,2077           02034                                    ALPHAV
000180: 15,2100           37574                           STCALL   XSMD
000181: 15,2101           33217                                    LSORIENT
000182: 15,2102           77650                           GOTO
000183: 15,2103           32111                                    P52D
000184:
000185:                                                                                                  #  START ALIGNMENT
000186:
000187: 15,2104           06014        P52W               TC       INTPRET
000188: 15,2105           77745                           DLOAD
000189: 15,2106           01047                                    DSPTEM1                               #  PICK UP ALIGN TIME
000190: 15,2107           77624                           CALL                                           #  COMPUTE NOMINAL IMU
000191: 15,2110           31166                                    S52.3                                 #   ORIENTATION
000192: 15,2111           77624        P52D               CALL                                           #  READ VEHICLE ATTITUDE AND
000193: 15,2112           31134                                    S52.2                                 #   COMPUTE GIMBAL ANGLES
000194: 15,2113           77776                           EXIT
000195: 15,2114           32155                           CAF      V06N22*
000196: 15,2115           04655                           TC       BANKCALL                              #  DISPLAY GIMBAL ANGLES
000197: 15,2116           20406                           CADR     GOFLASH
000198: 15,2117           04106                           TC       GOTOPOOH
000199: 15,2120           02124                           TC       REGCOARS                              #  V33-PROCEED, SEE IF GYRO TORQUE COARSE
000200: 15,2121           06014                           TC       INTPRET                               #  RECYCLE - VEHICLE HAS BEEN MANUEVERED
000201: 15,2122           77650                           GOTO
000202: 15,2123           32111                                    P52D
000203: 15,2124           06014        REGCOARS           TC       INTPRET
000204: 15,2125           77624                           CALL                                           #  DO COARSE ALIGN
000205: 15,2126           30572                                    CAL53A                                #   ROUTINE
000206: 15,2127           43014                           SET      CLEAR
000207: 15,2130           01462                                    REFSMFLG
000208: 15,2131           01273                                    PFRATFLG
000209: 15,2132           77624        P52F               CALL
000210: 15,2133           30317                                    R51
000211: 15,2134           77776        P52OUT             EXIT
000212: 15,2135           04106                           TC       GOTOPOOH
000213: 15,2136           35023        P52J               CAF      PFRATBIT
000214: 15,2137           70076                           MASK     FLAGWRD2
000215: 15,2140           10000                           CCS      A
000216: 15,2141           02152                           TC       P52H
000217:
000218: 15,2142           05646                           TC       ALARM
000219: 15,2143           00215                           OCT      215
000220: 15,2144           35056                           CAF      VB05N09
000221: 15,2145           04655                           TC       BANKCALL
000222: 15,2146           20406                           CADR     GOFLASH
000223: 15,2147           04106                           TC       GOTOPOOH
000224: 15,2150           02144                           TC       -4
000225: 15,2151           02012                           TC       P52B
000226:
000227: 15,2152           06014        P52H               TC       INTPRET                               #  PREFERRED OPTION, GO COMPUTE GIMBALS
000228: 15,2153           77650                           GOTO
000229: 15,2154           32111                                    P52D
000230:
000231: 15,2155     5056               VB05N09            =        V05N09
000232: 15,2155           01426        V06N22*            VN       00622
000233: 15,2156           01442        V06N34*            VN       634
000234:
000235: 15,2157           01531        V06N89*            VN       0689
000236:
000237:                                                                                                  #  NAME -S50 ALIAS  LOCSAM
000238:                                                                                                  #  BY
000239:                                                                                                  #  VINCENT
000240:                                                                                                  #  FUNCTION - COMPUTE INPUTS FOR PICAPAR  AND PLANET
000241:
000242:                                                                                                  #           DEFINE
000243:
000244:
000245:                                                                                                  #           U    = UNIT( SUN WRT EARTH)
000246:                                                                                                  #            ES
000247:
000248:                                                                                                  #           U    =UNIT( MOON WRT EARTH)
000249:                                                                                                  #            EM
000250:
000251:                                                                                                  #           R    =POSITION VECTOR OF LEM
000252:                                                                                                  #            L
000253:
000254:                                                                                                  #           R    =MEAN DISTANCE (384402KM) BETWEEN EARTH AND MOON
000255:                                                                                                  #            EM
000256:
000257:                                                                                                  #           P    =RATIO   R   /(DISTANCE SUN TO EARTH)    >.00257125
000258:                                                                                                  #                           EM
000259:
000260:                                                                                                  #           R    =EQUATORIAL RADIUSS (6378.166KM) OF EARTH
000261:                                                                                                  #            E
000262:
000263:                                                                                                  #           LOCSAM  COMPUTES IN EARTH INFLUENCE
000264:
000265:
000266:                                                                                                  #       VSUN   =   U
000267:                                                                                                  #                   ES
000268:
000269:                                                                                                  #      VEARTH  =   -UNIT( R  )
000270:                                                                                                  #                          L
000271:
000272:                                                                                                  #      VMOON   =    UNIT(R  .U   - R  )
000273:                                                                                                  #                         EM  EM    L
000274:
000275:                                                                                                  #      CSUN    =   COS 90
000276:
000277:                                                                                                  #      CEARTH  =    COS(5 + ARCSIN(R /MAG(R )))
000278:                                                                                                  #                                   E      L
000279:
000280:                                                                                                  #      CMOON   =    COS 5
000281:
000282:
000283:                                                                                                  #  INPUT -  TIME IN MPAC
000284:                                                                                                  #  OUTPUT - LISTED ABOVE
000285:                                                                                                  #  SUBROUTINES -LSPOS,LEMPREC
000286:                                                                                                  #  DEBRIS - VAC AREA ,TSIGHT
000287:
000288: 14,2000                                           SETLOC   P50S1
000289: 14,2000                                           BANK
000290: 14,2000  E5,1642                                  EBANK=   XSM
000291:
000292: 14,2000                                           COUNT*   $$/LOSAM
000293:
000294: 14,2000  14,2000               S50                =        LOCSAM
000295: 14,2000           77620        LOCSAM             STQ
000296: 14,2001           02745                                    QMIN
000297: 14,2002           37547                           STCALL   TSIGHT
000298: 14,2003           33236                                    LSPOS
000299: 14,2004           77745                           DLOAD
000300: 14,2005           03547                                    TSIGHT
000301: 14,2006           34041                           STCALL   TDEC1
000302: 14,2007           27030                                    LEMPREC
000303: 14,2010           61131                           SSP      TIX,2
000304: 14,2011           00052                                    S2
000305: 14,2012           00000                                    0
000306: 14,2013           30035                                    MOONCNTR
000307: 14,2014           74375        EARTCNTR           VLOAD    VXSC
000308: 14,2015           02723                                    VMOON
000309: 14,2016           30106                                    RSUBEM
000310: 14,2017           52372                           VSL1     VSU
000311: 14,2020           00001                                    RATT
000312: 14,2021           77656                           UNIT
000313: 14,2022           26723                           STOVL    VMOON
000314: 14,2023           00001                                    RATT
000315: 14,2024           57456                           UNIT     VCOMP
000316: 14,2025           16707                           STODL    VEARTH
000317: 14,2026           30112                                    RSUBE
000318: 14,2027           77624                           CALL
000319: 14,2030           30067                                    OCCOS
000320: 14,2031           14017                           STODL    CEARTH
000321: 14,2032           30076                                    CSS5
000322: 14,2033           34023                           STCALL   CMOON
000323: 14,2034           30062                                    ENDSAM
000324: 14,2035           74375        MOONCNTR           VLOAD    VXSC
000325: 14,2036           02723                                    VMOON
000326: 14,2037           30104                                    ROE
000327: 14,2040           53445                           BVSU     UNIT
000328: 14,2041           02715                                    VSUN
000329: 14,2042           26715                           STOVL    VSUN
000330: 14,2043           02723                                    VMOON
000331: 14,2044           53361                           VXSC     VAD
000332: 14,2045           30106                                    RSUBEM
000333: 14,2046           00001                                    RATT
000334: 14,2047           57456                           UNIT     VCOMP
000335: 14,2050           26707                           STOVL    VEARTH
000336: 14,2051           00001                                    RATT
000337: 14,2052           57456                           UNIT     VCOMP
000338:
000339: 14,2053           16723                           STODL    VMOON
000340: 14,2054           30110                                    RSUBM
000341: 14,2055           77624                           CALL
000342: 14,2056           30067                                    OCCOS
000343: 14,2057           14023                           STODL    CMOON
000344: 14,2060           30076                                    CSS5
000345: 14,2061           00017                           STORE    CEARTH
000346: 14,2062           77745        ENDSAM             DLOAD
000347: 14,2063           30100                                    CSSUN
000348: 14,2064           00021                           STORE    CSUN
000349: 14,2065           77650                           GOTO
000350: 14,2066           02745                                    QMIN
000351: 14,2067           70471        OCCOS              DDV      SR1
000352: 14,2070           00045                                    36D
000353: 14,2071           43336                           ASIN     DAD
000354: 14,2072           30102                                    5DEGREES
000355: 14,2073           70546                           COS      SR1
000356: 14,2074           77616                           RVQ
000357: 14,2075                        CEARTH             =        14D
000358: 14,2075                        CSUN               =        16D
000359: 14,2075                        CMOON              =        18D
000360: 14,2075           07760 14473  CSS5               2DEC     .2490475                              #  (COS 5)/4
000361: 14,2077           04000 00000  CSSUN              2DEC     .125                                  #  (COS 60)/4
000362: 14,2101           00343 21616  5DEGREES           2DEC     .013888889                            #     SCALED IN REVS
000363:
000364: 14,2103           00052 04047  ROE                2DEC     .00257125
000365: 14,2105           26723 00450  RSUBEM             2DEC     384402000  B-29
000366: 14,2107           00065 01265  RSUBM              2DEC     1738090    B-29
000367: 14,2111           00302 24533  RSUBE              2DEC     6378166    B-29
000368:
000369:                                                                                                  #  PROGRAM NAME - R56              DATE  DEC 20 66
000370:                                                                                                  #  MOD 1                           LOG SECTION P51-P53
000371:                                                                                                  #                                  ASSEMBLY  SUNDISK  REV40
000372:                                                                                                  #  BY KEN VINCENT
000373:
000374:                                                                                                  #  FUNCTION
000375:                                                                                                  #    THIS PROGRAM READ THE IMU-CDUS AND COMPUTES THE VEHICLE ORIENTATION
000376:                                                                                                  #  WITH RESPECT TO INERTIAL SPACE. IT THEN COMPUTES THE SHAFT AXIS (SAX)
000377:                                                                                                  #  WITH RESPECT TO REFERENCE INERTIAL. EACH STAR IN THE CATALOG IS TESTED
000378:                                                                                                  #  TO DETERMINE IF IT IS OCCULTED BY EITHER THE EARTH,SUN OR MOON. IF A
000379:                                                                                                  #  STAR IS NOT OCCULTED  THEN IT IS PAIRED WITH ALL STAR OF LOWER INDEX.
000380:                                                                                                  #  THE PAIRED STAR  IS TESTED FOR OCCULTATION. PAIRS OF STARS THAT PASS
000381:                                                                                                  #  THE OCCULTATION TESTS ARE TESTED FOR GOOD SEPARATION.A PAIR OF STARS
000382:                                                                                                  #  HAVE GOOD SEPERATION IF THE ANGLE BETWEEN THEM IS LESS THAN 100 DEGREES
000383:                                                                                                  #  AND MORE THAN 50 DEGREES. THOSE PAIRS WITH GOOD SEPARATION
000384:                                                                                                  #  ARE THEN TESTED TO SEE IF THEY LIE IN CURRENT FIELD OF VIEW.(WITHIN
000385:                                                                                                  #  50 DEGREESOF SAX).THE PAIR WITH MAX SEPARATION IS CHOSEN FROM
000386:                                                                                                  #  THOSE WITH GOOD SEPARATION,AND     IN FIELD OF VIEW.
000387:
000388:                                                                                                  #  CALLING SEQUENCE
000389:                                                                                                  #  L        TC     BANKCALL
000390:                                                                                                  #  L+1      CADR   R56
000391:                                                                                                  #  L+2      ERROR RETURN - NO STARS IN FIELD OF VIEW
000392:                                                                                                  #  L+3      NORMAL RETURN
000393:
000394:                                                                                                  #  OUTPUT
000395:                                                                                                  #  BESTI,BESTJ -SINGLE PREC,INTEGERS,STAR NUMBERS TIMES 6
000396:                                                                                                  #  VFLAG - FLAG BIT  SET IMPLIES NO STARS IN FIELD OF VIEW
000397:
000398:                                                                                                  #  INITIALIZATION
000399:                                                                                                  #  1)A CALL TO LOCSAM MUST BE MADE
000400:
000401:                                                                                                  #  DEBRIS
000402:                                                                                                  #  WORK AREA
000403:                                                                                                  #  X,Y,ZNB
000404:                                                                                                  #  SINCDU,COSCDU
000405:                                                                                                  #  STARAD - STAR +5
000406: 14,2113  14,2113               R56                =        PICAPAR
000407: 14,2113                                           COUNT*   $$/R56
000408: 14,2113           04704        PICAPAR            TC       MAKECADR
000409: 14,2114           55745                           TS       QMIN
000410: 14,2115           06014                           TC       INTPRET
000411: 14,2116           77624                           CALL
000412: 14,2117           47251                                    CDUTRIG
000413: 14,2120           77624                           CALL
000414: 14,2121           30667                                    CALCSMSC
000415: 14,2122           77601                           SETPD
000416: 14,2123           00001                                    0
000417: 14,2124           71214                           SET      DLOAD                                 #  VFLAG = 1
000418: 14,2125           01465                                    VFLAG
000419:
000420: 14,2126           22276                                    DPZERO
000421: 14,2127           26756                           STOVL    BESTI
000422: 14,2130           02665                                    XNB
000423: 14,2131           63361                           VXSC     PDVL
000424: 14,2132           22274                                    HALFDP
000425: 14,2133           02701                                    ZNB
000426: 14,2134           74370                           AXT,1    VXSC
000427: 14,2135           00344                                    228D                                  #  X1 = 37 X 6 + 6
000428: 14,2136           22274                                    HALFDP
000429: 14,2137           77655                           VAD
000430: 14,2140           53505                           VXM      UNIT
000431: 14,2141           01736                                    REFSMMAT
000432: 14,2142           02731                           STORE    SAX                                   #  SAX = SHAFT AXIS
000433: 14,2143           66331                           SSP      SSP                                   #  S1=S2=6
000434: 14,2144           00051                                    S1
000435: 14,2145           00006                                    6
000436: 14,2146           00052                                    S2
000437: 14,2147           00006                                    6
000438: 14,2150           52100        PIC1               TIX,1    GOTO                                  #  MAJOR STAR
000439: 14,2151           30153                                    PIC2
000440: 14,2152           30270                                    PICEND
000441: 14,2153           50373        PIC2               VLOAD*   DOT
000442: 14,2154           31734                                    CATLOG,1
000443: 14,2155           02731                                    SAX
000444: 14,2156           50025                           DSU      BMN
000445: 14,2157           30267                                    CSS33
000446: 14,2160           30150                                    PIC1
000447: 14,2161           77754                           LXA,2
000448: 14,2162           00046                                    X1
000449: 14,2163           52104        PIC3               TIX,2    GOTO
000450: 14,2164           30166                                    PIC4
000451: 14,2165           30150                                    PIC1
000452: 14,2166           50373        PIC4               VLOAD*   DOT
000453: 14,2167           46043                                    CATLOG,2
000454: 14,2170           02731                                    SAX
000455: 14,2171           50025                           DSU      BMN
000456: 14,2172           30267                                    CSS33
000457: 14,2173           30163                                    PIC3
000458: 14,2174           47773                           VLOAD*   DOT*
000459: 14,2175           31734                                    CATLOG,1
000460: 14,2176           46043                                    CATLOG,2
000461: 14,2177           51025                           DSU      BPL
000462: 14,2200           30265                                    CSS40
000463: 14,2201           30163                                    PIC3
000464: 14,2202           45173                           VLOAD*   CALL
000465: 14,2203           31734                                    CATLOG,1
000466: 14,2204           30242                                    OCCULT
000467: 14,2205           77614                           BON
000468: 14,2206           01710                                    CULTFLAG
000469: 14,2207           30150                                    PIC1
000470:
000471: 14,2210           45173                           VLOAD*   CALL
000472: 14,2211           46043                                    CATLOG,2
000473: 14,2212           30242                                    OCCULT
000474: 14,2213           77614                           BON
000475: 14,2214           01710                                    CULTFLAG
000476: 14,2215           30163                                    PIC3
000477: 14,2216           77614        STRATGY            BONCLR
000478: 14,2217           01605                                    VFLAG
000479: 14,2220           30235                                    NEWPAR
000480: 14,2221           65120                           XCHX,1   XCHX,2
000481: 14,2222           02755                                    BESTI
000482: 14,2223           02756                                    BESTJ
000483: 14,2224           47773        STRAT              VLOAD*   DOT*
000484: 14,2225           31734                                    CATLOG,1
000485: 14,2226           46043                                    CATLOG,2
000486: 14,2227           43006                           PUSH     BOFINV
000487: 14,2230           01545                                    VFLAG
000488: 14,2231           30221                                    STRAT      -3
000489: 14,2232           45345                           DLOAD    DSU
000490: 14,2233           77644                           BPL
000491: 14,2234           30163                                    PIC3
000492: 14,2235           67130        NEWPAR             SXA,1    SXA,2
000493: 14,2236           02755                                    BESTI
000494: 14,2237           02756                                    BESTJ
000495: 14,2240           77650                           GOTO
000496: 14,2241           30163                                    PIC3
000497: 14,2242           51321        OCCULT             MXV      BVSU
000498: 14,2243           02707                                    CULTRIX
000499: 14,2244           00017                                    CSS
000500: 14,2245           77654                           BZE
000501: 14,2246           30261                                    CULTED
000502: 14,2247           75240                           BMN      SIGN
000503: 14,2250           30261                                    CULTED
000504: 14,2251           00160                                    MPAC       +3
000505: 14,2252           75240                           BMN      SIGN
000506: 14,2253           30261                                    CULTED
000507: 14,2254           00162                                    MPAC       +5
000508: 14,2255           43040                           BMN      CLRGO
000509: 14,2256           30261                                    CULTED
000510: 14,2257           01630                                    CULTFLAG
000511: 14,2260           00052                                    QPRET
000512: 14,2261           77614        CULTED             SETGO
000513: 14,2262           01430                                    CULTFLAG
000514: 14,2263           00052                                    QPRET
000515: 14,2264  0000016               CSS                =        CEARTH
000516: 14,2264           05110 35052  CSS40              2DEC     .16070                                #  COS 50 / 4
000517: 14,2266           05110 35052  CSS33              2DEC     .16070                                #   COS 50 / 4
000518: 14,2270           77414        PICEND             BOFF     EXIT
000519:
000520: 14,2271           01745                                    VFLAG
000521: 14,2272           30274                                    PICGXT
000522: 14,2273           02315                           TC       PICBXT
000523: 14,2274           73150        PICGXT             LXA,1    LXA,2
000524: 14,2275           02755                                    BESTI
000525: 14,2276           02756                                    BESTJ
000526: 14,2277           47775                           VLOAD    DOT*
000527: 14,2300           02731                                    SAX
000528: 14,2301           31734                                    CATLOG,1
000529: 14,2302           47715                           PDVL     DOT*
000530: 14,2303           02731                                    SAX
000531: 14,2304           46043                                    CATLOG,2
000532: 14,2305           77625                           DSU
000533: 14,2306           66044                           BPL      SXA,1
000534: 14,2307           30313                                    PICNSWP
000535: 14,2310           02756                                    BESTJ
000536: 14,2311           77734                           SXA,2
000537: 14,2312           02755                                    BESTI
000538: 14,2313           77776        PICNSWP            EXIT
000539: 14,2314           25745                           INCR     QMIN
000540: 14,2315           31745        PICBXT             CA       QMIN
000541: 14,2316           04661                           TC       SWCALL
000542: 14,2317                        VPD                =        0D
000543: 14,2317                        V0                 =        6D
000544: 14,2317                        V1                 =        12D
000545: 14,2317                        V2                 =        18D
000546: 14,2317                        V3                 =        24D
000547: 14,2317                        DP0                =        30D
000548: 14,2317                        DP1                =        32D
000549:
000550:                                                                                                  #  NAME-R51  FINE ALIGN
000551:                                                                                                  #  FUNCTION-TO ALIGN THE STABLE MEMBER TO REFSMMAT
000552:                                                                                                  #  CALLING SEQ- CALL  R51
000553:                                                                                                  #  INPUT -  REFSMMAT
000554:                                                                                                  #  OUTPUT- GYRO TORQUE PULSES
000555:                                                                                                  #  SUBROUTINES -LOCSAM,PICAPAR,R52,R53,R54,R55
000556: 14,2317                                           COUNT*   $$/R51
000557: 14,2317           77620        R51                STQ
000558: 14,2320           02746                                    QMAJ
000559: 14,2321           77776        R51.1              EXIT
000560: 14,2322           35034        R51C               CAF      OCT15
000561: 14,2323           04655                           TC       BANKCALL
000562: 14,2324           20532                           CADR     GOPERF1
000563: 14,2325           04106                           TC       GOTOPOOH
000564: 14,2326           02330                           TC       +2                                    #  V33E
000565: 14,2327           02353                           TC       R51E                                  #  ENTER
000566: 14,2330           06014                           TC       INTPRET
000567: 14,2331           43234                           RTB      DAD
000568: 14,2332           21454                                    LOADTIME
000569: 14,2333           30465                                    TSIGHT1
000570: 14,2334           77624                           CALL
000571: 14,2335           30000                                    LOCSAM
000572: 14,2336           77776                           EXIT
000573: 14,2337           04655                           TC       BANKCALL
000574: 14,2340           30113                           CADR     R56
000575: 14,2341           02343                           TC       R51I
000576: 14,2342           02353        R51F               TC       R51E
000577: 14,2343           05646        R51I               TC       ALARM
000578: 14,2344           00405                           OCT      405
000579: 14,2345           35056                           CAF      VB05N09
000580: 14,2346           04655                           TC       BANKCALL
000581: 14,2347           20406                           CADR     GOFLASH
000582: 14,2350           04106                           TC       GOTOPOOH
000583: 14,2351           02353                           TC       R51E
000584: 14,2352           02322                           TC       R51C
000585: 14,2353           35030        R51E               CAF      ZERO
000586: 14,2354           55757                           TS       STARIND
000587: 14,2355           06014        R51.2              TC       INTPRET
000588: 14,2356           77776        R51.3              EXIT
000589: 14,2357           05413                           TC       PHASCHNG
000590: 14,2360           05024                           OCT      05024
000591: 14,2361           13000                           OCT      13000
000592: 14,2362           06014                           TC       INTPRET
000593: 14,2363           77624                           CALL
000594: 14,2364           31210                                    R52                                   #  AOP WILL MAKE CALLS TO SIGHTING
000595: 14,2365           77776                           EXIT
000596: 14,2366           04655                           TC       BANKCALL
000597: 14,2367           16000                           CADR     AOTMARK
000598: 14,2370           04655                           TC       BANKCALL
000599: 14,2371           17621                           CADR     OPTSTALL
000600:
000601: 14,2372           05730                           TC       CURTAINS
000602: 14,2373           11757                           CCS      STARIND
000603: 14,2374           12376                           TCF      +2
000604: 14,2375           02447                           TC       R51.4
000605: 14,2376           06014                           TC       INTPRET
000606: 14,2377           77775                           VLOAD
000607: 14,2400           02715                                    STARAD     +6
000608: 14,2401           02767                           STORE    STARSAV2
000609: 14,2402           77776                           EXIT
000610: 14,2403           05413                           TC       PHASCHNG
000611: 14,2404           05024                           OCT      05024
000612: 14,2405           13000                           OCT      13000
000613: 14,2406           06014                           TC       INTPRET
000614: 14,2407           45145                           DLOAD    CALL
000615: 14,2410           03547                                    TSIGHT
000616: 14,2411           32160                                    PLANET
000617: 14,2412           53521                           MXV      UNIT
000618: 14,2413           01736                                    REFSMMAT
000619: 14,2414           26715                           STOVL    STARAD     +6
000620: 14,2415           03541                                    PLANVEC
000621: 14,2416           53521                           MXV      UNIT
000622: 14,2417           01736                                    REFSMMAT
000623: 14,2420           26707                           STOVL    STARAD
000624: 14,2421           02761                                    STARSAV1
000625: 14,2422           24007                           STOVL    6D
000626: 14,2423           02767                                    STARSAV2
000627: 14,2424           34015                           STCALL   12D
000628: 14,2425           30521                                    R54                                   #  STAR DATA TEST
000629: 14,2426           45014                           BOFF     CALL
000630: 14,2427           00354                                    FREEFLAG
000631: 14,2430           30436                                    R51K
000632: 14,2431           47153                                    AXISGEN
000633: 14,2432           77624                           CALL
000634: 14,2433           30466                                    R55                                   #  GYRO TORQUE
000635: 14,2434           77614                           CLEAR
000636: 14,2435           01273                                    PFRATFLG
000637: 14,2436           77776        R51K               EXIT
000638: 14,2437           35743        R51P63             CAF      OCT14
000639: 14,2440           04655                           TC       BANKCALL
000640: 14,2441           20532                           CADR     GOPERF1
000641: 14,2442           04106                           TC       GOTOPOOH
000642: 14,2443           02322                           TC       R51C
000643: 14,2444           06014                           TC       INTPRET
000644: 14,2445           77650                           GOTO
000645: 14,2446           02746                                    QMAJ
000646: 14,2447           06014        R51.4              TC       INTPRET
000647: 14,2450           77775                           VLOAD
000648: 14,2451           02715                                    STARAD     +6
000649: 14,2452           02761                           STORE    STARSAV1
000650: 14,2453           45145                           DLOAD    CALL
000651:
000652: 14,2454           03547                                    TSIGHT
000653: 14,2455           32160                                    PLANET
000654: 14,2456           03541                           STORE    PLANVEC
000655: 14,2457           77731                           SSP
000656: 14,2460           02760                                    STARIND
000657: 14,2461           00001                                    1
000658: 14,2462           77650                           GOTO
000659: 14,2463           30356                                    R51.3
000660: 14,2464           00002 06240  TSIGHT1            2DEC     36000      B-28                       #  6 MIN TO MARKING
000661:
000662:                                                                                                  #  R55  GYRO TORQUE
000663:                                                                                                  #  FUNCTION-COMPUTE AND SEND GYRO PULSES
000664:                                                                                                  #  CALLING SEQ- CALL R55
000665:                                                                                                  #  INPUT- X,Y,ZDC- REFSMMAT WRT PRESENT STABLE MEMBER
000666:                                                                                                  #  OUTPUT- GYRO PULSES
000667:                                                                                                  #  SUBROUTINES- CALCGTA,GOFLASH,GODSPR,IMUFINE, IMUPULSE,GOPERF1
000668: 14,2466                                           COUNT*   $$/R55
000669: 14,2466           77620        R55                STQ
000670: 14,2467           02745                                    QMIN
000671: 14,2470           77624                           CALL
000672: 14,2471           46757                                    CALCGTA
000673: 14,2472           77776        PULSEM             EXIT
000674: 14,2473           32517        R55.1              CAF      V06N93
000675: 14,2474           04655                           TC       BANKCALL
000676: 14,2475           20406                           CADR     GOFLASH
000677: 14,2476           04106                           TC       GOTOPOOH
000678: 14,2477           02501                           TC       R55.2
000679: 14,2500           02514                           TC       R55RET
000680: 14,2501           05413        R55.2              TC       PHASCHNG
000681: 14,2502           00214                           OCT      00214
000682: 14,2503           32520                           CA       R55CDR
000683: 14,2504           04655                           TC       BANKCALL
000684: 14,2505           17234                           CADR     IMUPULSE
000685: 14,2506           04655                           TC       BANKCALL
000686: 14,2507           17625                           CADR     IMUSTALL
000687: 14,2510           05730                           TC       CURTAINS
000688: 14,2511           05413                           TC       PHASCHNG
000689: 14,2512           05024                           OCT      05024
000690: 14,2513           13000                           OCT      13000
000691: 14,2514           06014        R55RET             TC       INTPRET
000692: 14,2515           77650                           GOTO
000693: 14,2516           02745                                    QMIN
000694: 14,2517           01535        V06N93             VN       0693
000695: 14,2520           02737        R55CDR             ECADR    OGC
000696: 14,2521  14,2521               R54                =        CHKSDATA
000697:                                                                                                  #  ROUTINE NAME- CHKSDATA                                                                 DATE- JAN 9, 1967
000698:                                                                                                  #  MOD NO- 0                                                                              LOG SECTION- P51-P53
000699:                                                                                                  #  MODIFICATION BY- LONSKE                                                                ASSEMBLY-
000700:
000701:                                                                                                  #  FUNCTIONAL DESCRIPTION - CHECKS THE VALIDITY OF A PAIR OF STAR SIGHTINGS. WHEN A PAIR OF STAR SIGHTINGS ARE MADE
000702:                                                                                                  #  BY THE ASTRONAUT THIS ROUTINE OPERATES AND CHECKS THE OBSERVED SIGHTINGS AGAINST STORED STAR VECTORS IN THE
000703:                                                                                                  #  COMPUTER TO INSURE A PROPER SIGHTING WAS MADE. THE FOLLOWING COMPUTATIONS ARE PERFORMED_
000704:
000705:                                                                                                  #                  OS1 = OBSERVED STAR 1 VECTOR
000706:                                                                                                  #                  OS2 = OBSERVED STAR 2 VECTOR
000707:                                                                                                  #                  SS1 = STORED STAR 1 VECTOR
000708:                                                                                                  #                  SS2 = STORED STAR 2 VECTOR
000709:                                                                                                  #                  A1  = ARCCOS(OS1 - OS2)
000710:                                                                                                  #                  A2  = ARCCOS(SS1 - SS2)
000711:                                                                                                  #                  A   = ABS(2(A1 - A2))
000712:
000713:                                                                                                  #  THE ANGULAR DIFFERENCE IS DISPLAYED FOR ASTRONAUT ACCEPTENCE
000714:                                                                                                  #  EXIT MODE 1. FREEFLAG SET  IMPLIES  ASTRONAUT WANTS TO PROCEED
000715:                                                                                                  #            2. FREEFLAG RESET IMPLIES ASTRONAUT WANTS TO RECYCLE          ERANCE)
000716:                                                                                                  #  OUTPUT - 1.VERB 6,NOUN 3- DISPLAYS ANGULAR DIFFERENCE BETWEEN 2 SETS OF STARS.
000717:                                                                                                  #           2.STAR VECTORS FROM STAR CATALOG ARE LEFT IN 6D AND 12D.
000718:
000719:                                                                                                  #  ERASABLE INITIALIZATION REQUIRED -
000720:                                                                                                  #           1.MARK VECTORS ARE STORED IN STARAD AND STARAD +6.
000721:                                                                                                  #           2.CATALOG VECTORS ARE STORED IN 6D AND 12D.
000722:                                                                                                  #  DEBRIS -
000723: 14,2521                                           COUNT*   $$/R54
000724: 14,2521           43020        CHKSDATA           STQ      SET
000725: 14,2522           02745                                    QMIN
000726: 14,2523           00074                                    FREEFLAG
000727: 14,2524           77760        CHKSAB             AXC,1                                          #  SET X1 TO STORE EPHEMERIS DATA
000728: 14,2525           02706                                    STARAD
000729:
000730: 14,2526           47773        CHKSB              VLOAD*   DOT*                                  #  CAL. ANGLE THETA
000731: 14,2527           00001                                    0,1
000732: 14,2530           00007                                    6,1
000733: 14,2531           65552                           SL1      ACOS
000734: 14,2532           00025                           STORE    THETA
000735: 14,2533           43014                           BOFF     INVERT                                #  BRANCH TO CHKSD IF THIS IS 2ND PASS
000736: 14,2534           00354                                    FREEFLAG
000737: 14,2535           30545                                    CHKSD
000738: 14,2536           00174                                    FREEFLAG                              #  CLEAR FREEFLAG
000739: 14,2537           71360                           AXC,1    DLOAD                                 #  SET X1 TO MARK ANGLES
000740: 14,2540           00006                                    6D
000741: 14,2541           00025                                    THETA
000742: 14,2542           00023                           STORE    18D
000743: 14,2543           77650                           GOTO
000744: 14,2544           30526                                    CHKSB                                 #  RETURN TO CAL. 2ND ANGLE
000745: 14,2545           45345        CHKSD              DLOAD    DSU
000746: 14,2546           00025                                    THETA
000747: 14,2547           00023                                    18D
000748: 14,2550           47046                           ABS      RTB                                   #  COMPUTE POS DIFF
000749: 14,2551           21510                                    SGNAGREE
000750: 14,2552           01047                           STORE    NORMTEM1
000751: 14,2553           77414                           SET      EXIT
000752: 14,2554           00074                                    FREEFLAG
000753: 14,2555           32571                           CAF      VB6N5
000754: 14,2556           04655                           TC       BANKCALL
000755: 14,2557           20406                           CADR     GOFLASH
000756: 14,2560           14106                           TCF      GOTOPOOH
000757: 14,2561           02566                           TC       CHKSDA                                #  PROCEED
000758: 14,2562           06014                           TC       INTPRET
000759: 14,2563           52014                           CLEAR    GOTO
000760: 14,2564           00274                                    FREEFLAG
000761: 14,2565           02745                                    QMIN
000762: 14,2566           06014        CHKSDA             TC       INTPRET
000763:
000764: 14,2567           77650                           GOTO
000765: 14,2570           02745                                    QMIN
000766: 14,2571           01405        VB6N5              VN       605
000767:                                                                                                  #  NAME - CAL53A
000768:                                                                                                  #  FUNCTION -COMPUTE DESIRED GIMBAL ANGLES AND COARSE ALIGN IF NECESSARY
000769:                                                                                                  #  CALLING SEQUENCE - CALL CAL53A
000770:                                                                                                  #  INPUT - X,Y,ZSMD ,CDUX,Y,Z
000771:                                                                                                  #          DESIRED GIMBAL ANGLES - THETAD,+1,+2
000772:                                                                                                  #  OUTPUT - THE IMU COORDINATES ARE STORED IN REFSMMAT
000773:                                                                                                  #  SUBROUTINES - S52.2, IMUCOARSE , IMUFINE
000774: 14,2572                                           COUNT*   $$/R50
000775: 14,2572           45020        CAL53A             STQ      CALL
000776: 14,2573           00035                                    29D
000777: 14,2574           31134                                    S52.2                                 #  MAKE ONE FINAL COMP OF GIMBLE ANGLES
000778: 14,2575           66234                           RTB      SSP
000779: 14,2576           30653                                    RDCDUS                                #  READ CDUS
000780: 14,2577           00051                                    S1
000781: 14,2600           00001                                    1
000782: 14,2601           40370                           AXT,1    SETPD
000783: 14,2602           00003                                    3
000784: 14,2603           00005                                    4
000785: 14,2604           70543        CALOOP             DLOAD*   SR1
000786: 14,2605           01212                                    THETAD     +3D,1
000787: 14,2606           70523                           PDDL*    SR1
000788: 14,2607           00005                                    4,1
000789: 14,2610           51425                           DSU      ABS
000790: 14,2611           45206                           PUSH     DSU
000791: 14,2612           30652                                    DEGREE1
000792: 14,2613           71240                           BMN      DLOAD
000793: 14,2614           30626                                    CALOOP1
000794: 14,2615           51025                           DSU      BPL
000795: 14,2616           30653                                    DEG359
000796: 14,2617           30626                                    CALOOP1
000797: 14,2620           77624        COARFINE           CALL
000798: 14,2621           31106                                    COARSE
000799: 14,2622           77624                           CALL
000800: 14,2623           31123                                    NCOARSE
000801: 14,2624           77650                           GOTO
000802: 14,2625           30630                                    FINEONLY
000803: 14,2626           77700        CALOOP1            TIX,1
000804: 14,2627           30604                                    CALOOP
000805: 14,2630           75160        FINEONLY           AXC,1    AXC,2
000806: 14,2631           02642                                    XSM
000807: 14,2632           01735                                    REFSMMAT
000808: 14,2633           77624                           CALL
000809: 14,2634           30637                                    MATMOVE
000810: 14,2635           77650                           GOTO
000811: 14,2636           00035                                    29D
000812: 14,2637           77773        MATMOVE            VLOAD*                                         #  TRANSFER MATRIX
000813: 14,2640           00001                                    0,1
000814:
000815: 14,2641           10001                           STORE    0,2
000816: 14,2642           77773                           VLOAD*
000817: 14,2643           00007                                    6D,1
000818: 14,2644           10007                           STORE    6D,2
000819: 14,2645           77773                           VLOAD*
000820: 14,2646           00015                                    12D,1
000821: 14,2647           10015                           STORE    12D,2
000822: 14,2650           77616                           RVQ
000823: 14,2651           00056        DEGREE1            DEC      46         B-14                       #  1 DEG SCALED CDU/2
000824: 14,2652           37722        DEG359             DEC      16338      B-14                       #  359 DEG SCALED CDU/2
000825: 14,2653           00004        RDCDUS             INHINT                                         #  READ CDUS
000826: 14,2654           30032                           CA       CDUX
000827: 14,2655           50120                           INDEX    FIXLOC
000828: 14,2656           54001                           TS       1
000829: 14,2657           30033                           CA       CDUY
000830: 14,2660           50120                           INDEX    FIXLOC
000831: 14,2661           54002                           TS       2
000832: 14,2662           30034                           CA       CDUZ
000833: 14,2663           50120                           INDEX    FIXLOC
000834: 14,2664           54003                           TS       3
000835: 14,2665           00003                           RELINT
000836: 14,2666           06035                           TC       DANZIG                                #                                        +
000837: 14,2667                                           COUNT*   $$/INFLT
000838: 14,2667           77760        CALCSMSC           AXC,1
000839: 14,2670           02664                                    XNB
000840:
000841: 14,2671           41345        XNBNDX             DLOAD    DMP
000842: 14,2672           00737                                    SINCDUY
000843: 14,2673           00747                                    COSCDUZ
000844: 14,2674           77676                           DCOMP
000845: 14,2675           70525                           PDDL     SR1
000846: 14,2676           00741                                    SINCDUZ
000847: 14,2677           41325                           PDDL     DMP
000848: 14,2700           00745                                    COSCDUY
000849: 14,2701           00747                                    COSCDUZ
000850: 14,2702           76466                           VDEF     VSL1
000851: 14,2703           04001                           STORE    0,1
000852: 14,2704           41345                           DLOAD    DMP
000853: 14,2705           00743                                    SINCDUX
000854: 14,2706           00741                                    SINCDUZ
000855: 14,2707           77752                           SL1
000856: 14,2710           00033                           STORE    26D
000857: 14,2711           77605                           DMP
000858: 14,2712           00737                                    SINCDUY
000859: 14,2713           41325                           PDDL     DMP
000860: 14,2714           00751                                    COSCDUX
000861: 14,2715           00745                                    COSCDUY
000862: 14,2716           77625                           DSU
000863: 14,2717           41325                           PDDL     DMP
000864: 14,2720           00743                                    SINCDUX
000865:
000866: 14,2721           00747                                    COSCDUZ
000867: 14,2722           77676                           DCOMP
000868: 14,2723           41325                           PDDL     DMP
000869: 14,2724           00751                                    COSCDUX
000870: 14,2725           00737                                    SINCDUY
000871: 14,2726           41325                           PDDL     DMP
000872: 14,2727           00745                                    COSCDUY
000873: 14,2730           00033                                    26D
000874: 14,2731           55415                           DAD      VDEF
000875: 14,2732           77772                           VSL1
000876: 14,2733           04015                           STORE    14,1
000877: 14,2734           76433                           VXV*     VSL1
000878: 14,2735           00001                                    0,1
000879: 14,2736           04007                           STORE    6,1
000880: 14,2737           77616                           RVQ
000881:
000882:                                                                                                  #  NAME - P51 - IMU ORIENTATION DETERMINATION
000883:                                                                                                  #           MOD.NO.1  23 JAN 67                                                             LOG SECTION - P51-P53
000884:                                                                                                  #  MOD BY STURLAUGSON                                                                      ASSEMBLY SUNDANCE REV56
000885:
000886:                                                                                                  #  FUNCTIONAL DESCRIPTION
000887:
000888:                                                                                                  #       DETERMINES THE INERTIAL ORIENTATION OF THE IMU. THE PROGRAM IS SELECTED BY DSKY ENTRY. THE SIGHTING
000889:                                                                                                  #  (AOTMARK)ROUTINE IS CALLED TO COLLECT AND PROCESS MARKED-STAR DATA. AOTMARK(R53) RETURNS THE STAR NUMBER AND THE
000890:                                                                                                  #  STAR LOS VECTOR IN STARAD+6. TWO STARS ARE THUS SIGHTED. THE ANGLE BETWEEN THE TWO STARS IS THEN CHECKED AT
000891:                                                                                                  #  CHKSDATA(R54). REFSMMAT IS THEN COMPUTED AT AXISGEN.
000892:
000893:                                                                                                  #  CALLING SEQUENCE
000894:
000895:                                                                                                  #    THE PROGRAM IS CALLED BY THE ASTRONAUT BY DSKY ENTRY.
000896:
000897:                                                                                                  #  SUBROUTINES CALLED.
000898:
000899:                                                                                                  #       GOPERF3
000900:                                                                                                  #       GOPERF1
000901:                                                                                                  #       GODSPR
000902:                                                                                                  #       IMUCOARS
000903:                                                                                                  #       IMUFIN20
000904:                                                                                                  #       AOTMARK(R53)
000905:                                                                                                  #       CHKSDATA(R54)
000906:                                                                                                  #       MKRELEAS
000907:                                                                                                  #       AXISGEN
000908:                                                                                                  #       MATMOVE
000909:
000910:                                                                                                  #  ALARMS
000911:
000912:                                                                                                  #       NONE.
000913:
000914:                                                                                                  #  ERASABLE INITIALIZATION
000915:
000916:                                                                                                  #       IMU ZERO FLAG SHOULD BE SET.
000917:
000918:                                                                                                  #  OUTPUT
000919:
000920:                                                                                                  #       REFSMMAT
000921:                                                                                                  #       REFSMFLG
000922:
000923:                                                                                                  #  DEBRIS
000924:
000925:                                                                                                  #       WORK AREA
000926:                                                                                                  #       STARAD
000927:                                                                                                  #       STARIND
000928:                                                                                                  #       BESTI
000929:                                                                                                  #       BESTJ
000930:
000931: 14,2740                                           COUNT*   $$/P51
000932: 14,2740           04655        P51                TC       BANKCALL                              #  IS ISS ON - IF NOT, IMUCHK WILL SEND
000933: 14,2741           33205                           CADR     IMUCHK                                #  ALARM CODE 210 AND EXIT VIA GOTOPOOH.
000934:
000935: 14,2742           35034                           CAF      PRFMSTAQ
000936: 14,2743           04655                           TC       BANKCALL
000937: 14,2744           20532                           CADR     GOPERF1
000938: 14,2745           04106                           TC       GOTOPOOH                              #  TERM.
000939: 14,2746           12774                           TCF      P51B                                  #  V33
000940: 14,2747           05413                           TC       PHASCHNG
000941: 14,2750           05024                           OCT      05024
000942: 14,2751           13000                           OCT      13000
000943: 14,2752           35030                           CAF      P51ZERO
000944: 14,2753           55206                           TS       THETAD                                #  ZERO THE GIMBALS
000945: 14,2754           55207                           TS       THETAD     +1
000946: 14,2755           55210                           TS       THETAD     +2
000947: 14,2756           33104                           CAF      V6N22
000948: 14,2757           04655                           TC       BANKCALL
000949: 14,2760           20361                           CADR     GODSPRET
000950: 14,2761           33105                           CAF      V41K                                  #  NOW DISPLAY COARSE ALIGN VERB 41
000951: 14,2762           04655                           TC       BANKCALL
000952: 14,2763           20361                           CADR     GODSPRET
000953: 14,2764           06014                           TC       INTPRET
000954: 14,2765           77624                           CALL
000955: 14,2766           31106                                    COARSE
000956: 14,2767           77776                           EXIT
000957: 14,2770           05413                           TC       PHASCHNG
000958: 14,2771           05024                           OCT      05024
000959: 14,2772           13000                           OCT      13000
000960: 14,2773           12742                           TCF      P51        +2
000961:
000962: 14,2774           05413        P51B               TC       PHASCHNG
000963: 14,2775           00014                           OCT      00014
000964: 14,2776           06014                           TC       INTPRET
000965: 14,2777           77624                           CALL
000966: 14,3000           31123                                    NCOARSE
000967: 14,3001           40331                           SSP      SETPD
000968: 14,3002           02760                                    STARIND                               #  INDEX-STAR 1 OR 2
000969: 14,3003           00000                                    0
000970: 14,3004           00001                                    0
000971: 14,3005           77776        P51C               EXIT
000972: 14,3006           05413                           TC       PHASCHNG
000973: 14,3007           05024                           OCT      05024
000974: 14,3010           13000                           OCT      13000
000975: 14,3011           04655                           TC       BANKCALL
000976: 14,3012           16000                           CADR     AOTMARK                               #  R53
000977: 14,3013           04655                           TC       BANKCALL
000978: 14,3014           17621                           CADR     AOTSTALL
000979: 14,3015           05730                           TC       CURTAINS
000980: 14,3016           11757                           CCS      STARIND
000981: 14,3017           13025                           TCF      P51D       +1
000982:
000983: 14,3020           06014                           TC       INTPRET
000984: 14,3021           77775                           VLOAD
000985: 14,3022           02715                                    STARAD     +6
000986: 14,3023           02761                           STORE    STARSAV1
000987: 14,3024           77776        P51D               EXIT
000988: 14,3025           05413                           TC       PHASCHNG
000989: 14,3026           05024                           OCT      05024
000990: 14,3027           13000                           OCT      13000
000991: 14,3030           11757                           CCS      STARIND
000992: 14,3031           13046                           TCF      P51E
000993: 14,3032           05413                           TC       PHASCHNG
000994: 14,3033           05024                           OCT      05024
000995: 14,3034           13000                           OCT      13000
000996: 14,3035           06014                           TC       INTPRET
000997: 14,3036           45145                           DLOAD    CALL
000998: 14,3037           03547                                    TSIGHT
000999: 14,3040           32160                                    PLANET
001000: 14,3041           03541                           STORE    PLANVEC
001001: 14,3042           77776                           EXIT
001002: 14,3043           35026                           CAF      BIT1
001003: 14,3044           55757                           TS       STARIND
001004: 14,3045           13006                           TCF      P51C       +1                         #  DO SECOND STAR
001005: 14,3046           05413        P51E               TC       PHASCHNG
001006: 14,3047           05024                           OCT      05024
001007: 14,3050           13000                           OCT      13000
001008: 14,3051           06014                           TC       INTPRET
001009: 14,3052           45145                           DLOAD    CALL
001010: 14,3053           03547                                    TSIGHT
001011: 14,3054           32160                                    PLANET
001012: 14,3055           24015                           STOVL    12D
001013: 14,3056           03541                                    PLANVEC
001014: 14,3057           24007                           STOVL    6D
001015: 14,3060           02761                                    STARSAV1
001016: 14,3061           26707                           STOVL    STARAD
001017: 14,3062           02767                                    STARSAV2
001018: 14,3063           36715                           STCALL   STARAD     +6
001019: 14,3064           30521                                    CHKSDATA                              #  CHECK STAR ANGLES IN STARAD AND
001020: 14,3065           77414                           BON      EXIT
001021: 14,3066           00314                                    FREEFLAG
001022: 14,3067           31071                                    P51G
001023: 14,3070           02742                           TC       P51        +2
001024: 14,3071           77624        P51G               CALL
001025: 14,3072           47153                                    AXISGEN                               #  COME BACK WITH REFSMMAT IN XDC
001026: 14,3073           75160                           AXC,1    AXC,2
001027: 14,3074           02664                                    XDC
001028: 14,3075           01735                                    REFSMMAT
001029: 14,3076           77624                           CALL
001030: 14,3077           30637                                    MATMOVE
001031: 14,3100           77614                           SET
001032: 14,3101           01462                                    REFSMFLG
001033:
001034: 14,3102           77776                           EXIT
001035: 14,3103           04106                           TC       GOTOPOOH                              #  FINIS
001036: 14,3104     5034               PRFMSTAQ           =        OCT15
001037: 14,3104     5030               P51ZERO            =        ZERO
001038: 14,3104     5031               P51FIVE            =        FIVE
001039: 14,3104           01426        V6N22              VN       0622
001040: 14,3105           12200        V41K               VN       4100
001041: 14,3106           77776        COARSE             EXIT
001042: 14,3107           04655                           TC       BANKCALL
001043: 14,3110           16711                           CADR     IMUCOARS
001044: 14,3111           04655                           TC       BANKCALL
001045: 14,3112           17625                           CADR     IMUSTALL
001046: 14,3113           05730                           TC       CURTAINS
001047: 14,3114           04655                           TC       BANKCALL
001048: 14,3115           17121                           CADR     IMUFINE
001049: 14,3116           04655                           TC       BANKCALL
001050: 14,3117           17625                           CADR     IMUSTALL
001051: 14,3120           05730                           TC       CURTAINS
001052: 14,3121           06014                           TC       INTPRET
001053: 14,3122           77616                           RVQ
001054: 14,3123           77776        NCOARSE            EXIT
001055: 14,3124           30025                           CA       TIME1
001056: 14,3125           55075                           TS       1/PIPADT
001057: 14,3126           06014                           TC       INTPRET
001058: 14,3127           77775                           VLOAD
001059: 14,3130           22276                                    ZEROVEC
001060: 14,3131           01472                           STORE    GCOMP
001061: 14,3132           43414                           SET      RVQ
001062: 14,3133           01060                                    DRIFTFLG
001063:
001064:                                                                                                  #  NAME-S52.2
001065:                                                                                                  #  FUNCTION-COMPUTE GIMBAL ANGLES FOR DESIRED SM AND PRESENT VEHICLE
001066:                                                                                                  #  CALL-  CALL  S52.2
001067:                                                                                                  #  INPUT- X,Y,ZSMD
001068:                                                                                                  #  OUTPUT- OGC,IGC,MGC,THETAD,+1,+2
001069:                                                                                                  #  SUBROUTINES-CDUTRIG,CALCSMSC,MATMOVE,CALCGA
001070: 14,3134                                           COUNT*   $$/S52.1
001071: 14,3134           77620        S52.2              STQ
001072: 14,3135           02746                                    QMAJ
001073: 14,3136           77624                           CALL
001074: 14,3137           47251                                    CDUTRIG
001075: 14,3140           77624                           CALL
001076: 14,3141           30667                                    CALCSMSC
001077: 14,3142           66370                           AXT,1    SSP
001078: 14,3143           00022                                    18D
001079: 14,3144           00051                                    S1
001080: 14,3145           00006                                    6D
001081: 14,3146           61373        S52.2A             VLOAD*   VXM
001082: 14,3147           02707                                    XNB        +18D,1
001083: 14,3150           01736                                    REFSMMAT
001084: 14,3151           77656                           UNIT
001085: 14,3152           06707                           STORE    XNB        +18D,1
001086: 14,3153           77700                           TIX,1
001087: 14,3154           31146                                    S52.2A
001088: 14,3155           75160        S52.2.1            AXC,1    AXC,2
001089: 14,3156           03573                                    XSMD
001090: 14,3157           02642                                    XSM
001091: 14,3160           77624                           CALL
001092: 14,3161           30637                                    MATMOVE
001093: 14,3162           77624                           CALL
001094: 14,3163           47063                                    CALCGA
001095: 14,3164           77650                           GOTO
001096: 14,3165           02746                                    QMAJ
001097:
001098:                                                                                                  #  NAME-S52.3
001099:                                                                                                  #  FUNCTION  XSMD= UNIT R
001100:                                                                                                  #            YSMD= UNIT(V X R)
001101:                                                                                                  #            ZSMD= UNIT(XSMD X YSMD)
001102:                                                                                                  #  CALL     DLOAD  CALL
001103:                                                                                                  #                  TALIGN
001104:                                                                                                  #                  S52.3
001105:                                                                                                  #  INPUT-   TIME OF ALIGNMENT IN MPAC
001106:                                                                                                  #  OUTPUT-  X,Y,ZSMD
001107:                                                                                                  #  SUBROUTINES- CSMCONIC
001108: 14,3166                                           COUNT*   $$/S52.3
001109: 14,3166           77620        S52.3              STQ
001110: 14,3167           02746                                    QMAJ
001111: 14,3170           34041                           STCALL   TDEC1
001112: 14,3171           27051                                    LEMCONIC
001113: 14,3172           77601                           SETPD
001114: 14,3173           00001                                    0
001115: 14,3174           53575                           VLOAD    UNIT
001116: 14,3175           00001                                    RATT
001117: 14,3176           27574                           STOVL    XSMD
001118: 14,3177           00007                                    VATT
001119: 14,3200           53435                           VXV      UNIT
001120: 14,3201           00001                                    RATT
001121: 14,3202           27602                           STOVL    YSMD
001122: 14,3203           03574                                    XSMD
001123: 14,3204           53435                           VXV      UNIT
001124: 14,3205           03602                                    YSMD
001125: 14,3206           37610                           STCALL   ZSMD
001126: 14,3207           02746                                    QMAJ
001127:
001128:                                                                                                  #  NAME    -R52 (AUTOMATIC OPTICS POSITIONING ROUTINE)
001129:
001130:                                                                                                  #  FUNCTION-POINT THE AOT OPTIC AXIS BY MANEUVERING THE LEM TO A NAVIGATION
001131:                                                                                                  #           STAR SELECTED BY ALIGNMENT PROGRAMS OR DSKY INPUT
001132:
001133:                                                                                                  #  CALLING -CALL R52
001134:
001135:                                                                                                  #  INPUT   -BESTI AND BESTJ (STAR CODES TIMES 6)
001136:                                                                                                  #  OUTPUT  -STAR CODE IN BITS1-6, DETENT CODE IN BITS 7-9
001137:                                                                                                  #           (NO CHECK IS MADE TO INSURE THE DETENT  CODE TO BE VALID)
001138:                                                                                                  #           POINTVSM-1/2 UNIT NAV STAR VEC IN SM
001139:                                                                                                  #           SCAXIS-AOT OPTIC AXIS VEC IN NB X-Z PLANE
001140:
001141:                                                                                                  #  SUBROUT -R60LEM
001142:
001143: 14,3210                                           COUNT*   $$/R52
001144: 14,3210           77420        R52                STQ      EXIT
001145: 14,3211           03652                                    SAVQR52
001146: 14,3212           51757                           INDEX    STARIND
001147: 14,3213           31755                           CA       BESTI                                 #  PICK UP STARCODE DETERMINED BY R56
001148: 14,3214           00006                           EXTEND
001149: 14,3215           73306                           MP       1/6TH
001150: 14,3216           65017                           AD       BIT8                                  #  SET DETENT POSITION 2
001151: 14,3217           54735                           TS       STARCODE                              #  SCALE AND STORE IN STARCODE
001152:
001153: 14,3220           33307        R52A               CAF      V01N70
001154: 14,3221           04655                           TC       BANKCALL
001155: 14,3222           20406                           CADR     GOFLASH                               #  DISPLAY STARCODE AND WAIT FOR RESPONSE
001156: 14,3223           04106                           TC       GOTOPOOH                              #  V34-TERMINATE
001157: 14,3224           13226                           TCF      R52B                                  #  V33-PROCEED TO ORIENT LEM
001158: 14,3225           13220                           TCF      R52A                                  #  ENTER-SELECT NEW STARCODE-RECYCLE
001159:
001160: 14,3226           05575        R52B               TC       DOWNFLAG
001161: 14,3227           00124                           ADRES    3AXISFLG                              #  BIT6 OF FLAGWRD5 ZERO TO ALLOW VECPOINT
001162: 14,3230           30735                           CA       STARCODE                              #  GRAB DETENT CODE
001163: 14,3231           77715                           MASK     HIGH9
001164: 14,3232           00006                           EXTEND
001165: 14,3233           63220                           BZMF     R52A                                  #  DONT ALLOW ZERO CODE-RECYCLE
001166: 14,3234           75016                           MASK     BIT9                                  #  SEE IF CODE 4 OR 5
001167: 14,3235           10000                           CCS      A
001168: 14,3236           13255                           TCF      GETAZEL                               #  CODE 4 OR 5-GET CALIBRATION AZ EL
001169: 14,3237  E7,1536                                  EBANK=   XYMARK
001170: 14,3237           35066                           CA       EBANK7
001171: 14,3240           54003                           TS       EBANK
001172: 14,3241           37715                           CAF      HIGH9                                 #  FORWARD DETENT, INDEX DETENT AND GRAB
001173: 14,3242           70735                           MASK     STARCODE                              #  AZIMUTH  ANGLE AND ELV = 45 DEG
001174: 14,3243           00006                           EXTEND
001175: 14,3244           75016                           MP       BIT9                                  #  SHIFT DETENT TO BITS1-2 FOR INDEX
001176: 14,3245           50000                           INDEX    A
001177: 14,3246           31403                           CA       AOTAZ      -1                         #  PICK UP AZ CORRESPONDING TO DETENT
001178:
001179: 14,3247           54001                           TS       L
001180: 14,3250  E5,1642                                  EBANK=   XSM
001181: 14,3250           35064                           CA       EBANK5                                #  CHANGE TO EBANK5 BUT DONT DISTURB L
001182: 14,3251           54003                           TS       EBANK
001183: 14,3252           35012                           CA       BIT13                                 #  SET ELV TO 45 DEG
001184: 14,3253           56001                           XCH      L                                     #  SET C(A)=AZ, C(L)=45 DEG
001185: 14,3254           13265                           TCF      AZEL                                  #  GO COMP OPTIC AXIS
001186:
001187: 14,3255           33310        GETAZEL            CAF      V06N87                                #  CODE 4 OR 5-GET AZ AND EL FROM ASTRO
001188: 14,3256           04655                           TC       BANKCALL
001189: 14,3257           20406                           CADR     GOFLASH
001190: 14,3260           04106                           TC       GOTOPOOH                              #  V34-TERMINATE
001191: 14,3261           13263                           TCF      +2                                    #  PROCEED-CALC OPTIC AXIS
001192: 14,3262           13255                           TCF      GETAZEL                               #  ENTER-RECYCLE
001193:
001194: 14,3263           00006                           EXTEND
001195: 14,3264           31350                           DCA      AZ                                    #  PICK UP AZ AND EL IN SP 2S COMP
001196: 14,3265           50120        AZEL               INDEX    FIXLOC                                #  JAM AZ AND EL IN 8 AND 9 OF VAC
001197: 14,3266           52011                           DXCH     8D
001198: 14,3267           06014                           TC       INTPRET
001199: 14,3270           77624                           CALL                                           #  GO COMPUTE OPTIC AXIS AND STORE IN
001200: 14,3271           16170                                    OANB                                  #  SCAXIS IN NB COORDS
001201: 14,3272           45034                           RTB      CALL
001202: 14,3273           21454                                    LOADTIME
001203: 14,3274           32160                                    PLANET
001204: 14,3275           53521                           MXV      UNIT
001205: 14,3276           01736                                    REFSMMAT
001206: 14,3277           01256                           STORE    POINTVSM                              #  STORE FOR VECPOINT
001207:
001208: 14,3300           77776                           EXIT
001209: 14,3301           04655                           TC       BANKCALL
001210: 14,3302           54103                           CADR     R60LEM                                #  GO TORQUE LEM OPTIC AXIS TO STAR LOS
001211:
001212: 14,3303           06014                           TC       INTPRET                               #  RETURN FROM KALCMANU
001213: 14,3304           77650                           GOTO
001214: 14,3305           03652                                    SAVQR52                               #  RETURN TO CALLER
001215:
001216: 14,3306           05253        1/6TH              DEC      .1666667
001217: 14,3307           00306        V01N70             VN       0170
001218: 14,3310           01527        V06N87             VN       687
001219:
001220:                                                                                                  #  NAME -    PLANET
001221:                                                                                                  #  FUNCTION -TO PROVIDE THE REFERENCE VECTOR FOR THE SIGHTED CELESTIAL
001222:                                                                                                  #            BODY. STARS ARE FETCHED FROM THE CATALOG,SUN,EARTH AND
001223:                                                                                                  #            MOON ARE COMPUTED BY LOCSAM,PLANET VECTORS ARE ENTERED
001224:                                                                                                  #            BY DSDY INPUT
001225:                                                                                                  #  CALL  -  CALL
001226:                                                                                                  #                  PLANET
001227:                                                                                                  #  INPUT -  TIME IN MPAC
001228:                                                                                                  #  OUTPUT - VECTOR  IN MPAC
001229:                                                                                                  #  SUBROUTINES - LOCSAM
001230:                                                                                                  #  DEBRIS - VAC ,STARAD - STARAD +17
001231:
001232: 15,2000                                           SETLOC   P50S
001233: 15,2000                                           BANK
001234: 15,2160                                           COUNT*   $$/P51
001235:
001236: 15,2160           03547        PLANET             STORE    TSIGHT
001237: 15,2161           77420                           STQ      EXIT
001238: 15,2162           02736                                    GCTR
001239: 15,2163           47715                           CS       HIGH9
001240: 15,2164           70735                           MASK     AOTCODE
001241: 15,2165           00006                           EXTEND
001242: 15,2166           76216                           MP       REVCNT
001243: 15,2167           56001                           XCH      L
001244: 15,2170           51757                           INDEX    STARIND
001245: 15,2171           55755                           TS       BESTI
001246: 15,2172           10000                           CCS      A
001247: 15,2173           12207                           TCF      NOTPLAN
001248: 15,2174           32246                           CAF      VNPLANV
001249: 15,2175           04655                           TC       BANKCALL
001250: 15,2176           20406                           CADR     GOFLASH
001251: 15,2177           02174                           TC       -3
001252: 15,2200           02202                           TC       +2
001253: 15,2201           02174                           TC       -5
001254: 15,2202           06014                           TC       INTPRET
001255: 15,2203           53575                           VLOAD    UNIT
001256: 15,2204           02707                                    STARAD
001257: 15,2205           77650                           GOTO
001258: 15,2206           02736                                    GCTR
001259: 15,2207           40000        NOTPLAN            CS       A
001260: 15,2210           62245                           AD       DEC227
001261: 15,2211           00006                           EXTEND
001262: 15,2212           62223                           BZMF     CALSAM1
001263: 15,2213           51757                           INDEX    STARIND
001264: 15,2214           31755                           CA       BESTI
001265: 15,2215           50120                           INDEX    FIXLOC
001266: 15,2216           54046                           TS       X1
001267: 15,2217           06014                           TC       INTPRET
001268: 15,2220           52173                           VLOAD*   GOTO
001269: 15,2221           31734                                    CATLOG,1
001270:
001271: 15,2222           02736                                    GCTR
001272: 15,2223           06014        CALSAM1            TC       INTPRET
001273: 15,2224           45145        CALSAM             DLOAD    CALL
001274: 15,2225           03547                                    TSIGHT
001275: 15,2226           30000                                    LOCSAM
001276: 15,2227           77340                           LXC,1    VLOAD
001277: 15,2230           02757                                    STARIND
001278: 15,2231           02707                                    VEARTH
001279: 15,2232           24001                           STOVL    0D
001280: 15,2233           02715                                    VSUN
001281: 15,2234           26707                           STOVL    VEARTH
001282: 15,2235           00001                                    0D
001283: 15,2236           02715                           STORE    VSUN
001284: 15,2237           70143                           DLOAD*   LXC,1
001285: 15,2240           02756                                    BESTI,1
001286: 15,2241           00154                                    MPAC
001287: 15,2242           52173                           VLOAD*   GOTO
001288: 15,2243           02343                                    STARAD     -228D,1
001289: 15,2244           02736                                    GCTR
001290: 15,2245           00343        DEC227             DEC      227        B-14
001291: 15,2246           01530        VNPLANV            VN       0688
001292: 15,2247  33,2430               PIPSRINE           =        PIPASR     +3                         #  EBANK NOT 4 SO DONT LOAD PIPTIME1
001293:
001294:                                                                                                  #  GRAVITY VECTOR DETERMINATION ROUTINE
001295:                                                                                                  #  BY KEN VINCENT
001296:                                                                                                  #  FOR DETAILED DESCRIPTION SEE 504GSOP 5.6.3.2.5
001297:                                                                                                  #  THIS PROGRAM FINDS THE DIRECTION OF THE MOONS GRAVITY
001298:                                                                                                  #  WHILE THE LM IS ON THE MOONS SURFACE. IT WILL BE USED
001299:                                                                                                  #  FOR LUNAR SURFACE ALIGNMENT. THE GRAVITY VECTOR IS
001300:                                                                                                  #  DETERMINED BY READING THE PIPAS WITH THE IMU AT TWO
001301:                                                                                                  #  PARTICULAR ORIONTATIONS. THE TWO READINGS ARE AVERAGED
001302:                                                                                                  #  AND UNITIZED AND TRANSFORMED TO NB COORDINATES. THE TWO
001303:                                                                                                  #  ORIENTATION WERE CHOSEN TO REDUCE BIAS ERRORS IN THE
001304:                                                                                                  #  READINGS.
001305:
001306:                                                                                                  #  CALL-
001307:                                                                                                  #           TC     BANKCALL
001308:                                                                                                  #           CADR   GVDETER
001309:                                                                                                  #  INPUTS-
001310:                                                                                                  #           PIPAS,CDUS
001311:                                                                                                  #  OUTPUTS-
001312:                                                                                                  #           STARSAV1 = UNIT GRAVITY
001313:                                                                                                  #           GSAV     =   DITTO
001314:                                                                                                  #           GRAVBIT  = 1
001315:                                                                                                  #  SUBROUTINES-
001316:                                                                                                  #           PIPASR,IMUCOARS,IMUFINE,IMUSTALL,1/PIPA,DELAYJOB,CDUTRIG,
001317:                                                                                                  #           *NBSM* ,*SNMB*, CALCGA,FOFLASH
001318:                                                                                                  #  DEBRIS-
001319:                                                                                                  #           VAC,SAC,STARAD,XSM,XNB,THETAD,DELV,COSCDU,SINCDU
001320: 15,2247           45024        GVDETER            CS       BIT3                                  #  JAM 45 DEG IN DESIRED GIMBAL ANGLES
001321: 15,2250           55207                           TS       THETAD     +1
001322: 15,2251           40000                           COM
001323: 15,2252           55210                           TS       THETAD     +2
001324: 15,2253           55206                           TS       THETAD
001325: 15,2254           06014                           TC       INTPRET
001326: 15,2255           45014                           CLEAR    CALL
001327: 15,2256           01662                                    REFSMFLG
001328: 15,2257           32345                                    LUNG
001329:                                                                                                  #  FIND  GIMBAL ANGLES WHICH ROTATE SM 180DEG  ABOUT  G VEC
001330:
001331:                                                                                                  #   DEFINE G COOR SYS
001332:                                                                                                  #                       -
001333:                                                                                                  #                       X    UNIT G
001334:                                                                                                  #                   *   -               -
001335:                                                                                                  #                   M=  Y =  UNITEZSM * X )
001336:                                                                                                  #                       -         -     -
001337:                                                                                                  #                       Z    UNIT(X   * Y )
001338:                                                                                                  #   THEN   ROTATED  SM WRT  PRESENT IS
001339:
001340:
001341:                                                                                                  #                      1,  0 , 0
001342:                                                                                                  #            *      *T            *          *         *
001343:                                                                                                  #           XSM =   M  0, -1 , 0  M  = 2  (X X ) - 1/2 I  *
001344:
001345:                                                                                                  #                                           I J
001346:                                                                                                  #                      0,  0 ,-1
001347:
001348:                                                                                                  #   ALSO   NB WRT PRES SM  IS
001349:
001350:                                                                                                  #                 *      *   *
001351:                                                                                                  #                XNB = NBSM  I
001352:                                                                                                  #                             *     *
001353:                                                                                                  #   GIMBAL ANGLES  = CALCGA( XSM , XNB )
001354:
001355: 15,2000                                           SETLOC   P50S
001356: 15,2000                                           BANK
001357: 15,2260                                           COUNT*   $$/P57
001358: 15,2260           66370                           AXT,1    SSP                                   #  X1=18
001359: 15,2261           00022                                    18D                                   #  S1= 6
001360: 15,2262           00051                                    S1                                    #  X2, -2
001361: 15,2263           00006                                    6D
001362: 15,2264           77744                           LXC,2
001363: 15,2265           00050                                    S1
001364: 15,2266           45173        GRAVEL             VLOAD*   CALL
001365: 15,2267           55511                                    XUNIT      -6,2
001366: 15,2270           47415                                    *NBSM*                                #  SIN AND COS COMPUTED IN LUNG
001367: 15,2271           06707                           STORE    XNB        +18D,1
001368: 15,2272           77775                           VLOAD
001369: 15,2273           02731                                    STAR
001370: 15,2274           73744                           LXC,2    VXSC*                                 #  COMPLEMENT- UNITX  ARE BACKWARD -
001371: 15,2275           00047                                    X2
001372: 15,2276           75040                                    STAR       +6,2                       #  OUTER PRODUCT
001373: 15,2277           71152                           VSL2     LXC,2
001374: 15,2300           00047                                    X2
001375: 15,2301           63047                           VSU*     INCR,2
001376: 15,2302           55511                                    XUNIT      -6,2
001377: 15,2303           00002                                    2D
001378: 15,2304           06665                           STORE    XSM        +18D,1
001379: 15,2305           45100                           TIX,1    CALL
001380: 15,2306           32266                                    GRAVEL
001381: 15,2307           47063                                    CALCGA
001382: 15,2310           74575                           VLOAD    VSR1
001383: 15,2311           02715                                    GOUT
001384: 15,2312           36723                           STCALL   STARAD     +12D
001385: 15,2313           32345                                    LUNG
001386: 15,2314           74575                           VLOAD    VSR1
001387: 15,2315           02715                                    GOUT
001388: 15,2316           53455                           VAD      UNIT
001389: 15,2317           02723                                    STARAD     +12D
001390: 15,2320           02761                           STORE    STARSAV1
001391: 15,2321           77641                           DOT
001392: 15,2322           02237                                    GSAV
001393: 15,2323           65552                           SL1      ACOS
001394: 15,2324           01047                           STORE    DSPTEM1
001395:
001396: 15,2325           77776                           EXIT
001397:
001398: 15,2326           32444                           CA       DISGRVER
001399: 15,2327           04655                           TC       BANKCALL
001400: 15,2330           20406                           CADR     GOFLASH
001401: 15,2331           04106                           TC       GOTOPOOH
001402: 15,2332           02334                           TC       PROGRAV                               #  VB33-PROCEED
001403: 15,2333           02326                           TC       -5                                    #  VB32-RECYCLE
001404:
001405: 15,2334           05413        PROGRAV            TC       PHASCHNG
001406: 15,2335           05024                           OCT      05024
001407: 15,2336           13000                           OCT      13000
001408: 15,2337           06014                           TC       INTPRET
001409: 15,2340           77775                           VLOAD
001410: 15,2341           02761                                    STARSAV1
001411: 15,2342           02237                           STORE    GSAV
001412: 15,2343           77776                           EXIT
001413: 15,2344           03170                           TC       P57OPT3
001414:
001415: 15,2345           77220        LUNG               STQ      VLOAD
001416: 15,2346           02745                                    QMIN
001417: 15,2347           22276                                    ZEROVEC
001418: 15,2350           02707                           STORE    GACC
001419: 15,2351           77776                           EXIT
001420: 15,2352           05413                           TC       PHASCHNG
001421: 15,2353           05024                           OCT      05024
001422: 15,2354           13000                           OCT      13000
001423: 15,2355           04655                           TC       BANKCALL
001424: 15,2356           16711                           CADR     IMUCOARS
001425: 15,2357           04655                           TC       BANKCALL
001426: 15,2360           17625                           CADR     IMUSTALL
001427: 15,2361           05730                           TC       CURTAINS
001428: 15,2362           04655                           TC       BANKCALL
001429: 15,2363           17121                           CADR     IMUFINE
001430: 15,2364           04655                           TC       BANKCALL
001431: 15,2365           17625                           CADR     IMUSTALL
001432: 15,2366           05730                           TC       CURTAINS
001433: 15,2367           32443                           CA       T/2SEC
001434: 15,2370           55736                           TS       GCTR
001435: 15,2371           37670                           CA       PRIO31
001436: 15,2372           55075                           TS       1/PIPADT
001437: 15,2373           04655                           TC       BANKCALL
001438: 15,2374           15674                           CADR     GCOMPZER                              #  INITIALIZE COMPENSATION
001439:
001440: 15,2375           05413                           TC       PHASCHNG
001441: 15,2376           05024                           OCT      05024
001442: 15,2377           13000                           OCT      13000
001443: 15,2400           04655                           TC       BANKCALL                              #   DONT NEED TO INHINY  THIS USED TO
001444: 15,2401           66430                           CADR     PIPSRINE                              #  INITIALIZE PIPAS  DONT USE DATA
001445:
001446: 15,2402           77776        GREED              EXIT                                           #  = MASK 7776 IN BASIC SO DONT CARE
001447: 15,2403           35050                           CAF      2SECS
001448: 15,2404           04655                           TC       BANKCALL                              #  SET UP 2 SEC TASK TO READ PIPAS
001449: 15,2405           01730                           CADR     DELAYJOB
001450:
001451: 15,2406           25736                           INCR     GCTR
001452: 15,2407           00004                           INHINT
001453: 15,2410           04655                           TC       BANKCALL
001454: 15,2411           66430                           CADR     PIPSRINE
001455: 15,2412           00003                           RELINT
001456: 15,2413           04655                           TC       BANKCALL
001457: 15,2414           15277                           CADR     1/PIPA
001458: 15,2415           06014                           TC       INTPRET
001459: 15,2416           53375                           VLOAD    VAD
001460: 15,2417           01212                                    DELV
001461: 15,2420           02707                                    GACC
001462: 15,2421           02707                           STORE    GACC                                  #  ACCUMULATE G VECTOR
001463: 15,2422           50135                           SLOAD    BMN
001464: 15,2423           02737                                    GCTR
001465: 15,2424           32402                                    GREED
001466: 15,2425           53575                           VLOAD    UNIT
001467: 15,2426           02707                                    GACC
001468: 15,2427           36731                           STCALL   STAR
001469: 15,2430           47251                                    CDUTRIG                               #  TRANSFORM IN NB COOR  AND  STORE
001470: 15,2431           77624                           CALL                                           #   IN OUTPUT
001471: 15,2432           47413                                    *SMNB*
001472: 15,2433           02715                           STORE    GOUT
001473: 15,2434           77776                           EXIT
001474: 15,2435           05413                           TC       PHASCHNG
001475: 15,2436           05024                           OCT      05024
001476: 15,2437           13000                           OCT      13000
001477: 15,2440           06014                           TC       INTPRET
001478: 15,2441           77650                           GOTO
001479: 15,2442           02745                                    QMIN
001480: 15,2443           77751        T/2SEC             DEC      -22        B-14
001481: 15,2444           01405        DISGRVER           VN       0605
001482:
001483:                                                                                                  #  NAME  GYROTRIM
001484:
001485:                                                                                                  #  THIS PROGRAM COMPUTES AND SENDS GYRO COMMANDS WHICH CAUSE THE CDUS
001486:                                                                                                  #    TO ATTAIN A PRESCRIBED SET OF ANGLES. THIS ROUTINE ASSUMES THE
001487:                                                                                                  #    VEHICLES ATTITUDE REMAINS STATIONARY DURING ITS OPERATION.
001488:
001489:                                                                                                  #  CALL     CALL
001490:                                                                                                  #                  GYROTRIM
001491:
001492:                                                                                                  #  INPUT    THETAD,+1,+2 = DESIRED CDU ANGLES
001493:                                                                                                  #           CDUX,CDUY,CDUZ
001494:
001495:                                                                                                  #  OUTPUT - GYRO TORQUE PULSES
001496:
001497:                                                                                                  #  SUBROUTINES- TRG*NBSM,*NBSM*,CDUTRIG,AXISGEN,CALCGTA,IMUFINE
001498:                                                                                                  #               IMPULSE,IMUSTALL
001499:                                                                                                  #             -         -        -        *           *     -
001500:                                                                                                  #  DEBRIS -  CDUSPOT ,SINCDU ,COSCDU , STARAD ,VAC , XDC , OGC
001501: 15,2445                                           COUNT*   $$/P57
001502: 15,2445           71220        GYROTRIM           STQ      DLOAD
001503: 15,2446           02745                                    QMIN
001504: 15,2447           01207                                    THETAD
001505: 15,2450           65325                           PDDL     PDDL
001506: 15,2451           01211                                    THETAD     +2
001507: 15,2452           01210                                    THETAD     +1
001508: 15,2453           77666                           VDEF
001509: 15,2454           24767                           STOVL    CDUSPOT
001510: 15,2455           22274                                    XUNIT
001511: 15,2456           77624                           CALL
001512: 15,2457           47406                                    TRG*NBSM
001513: 15,2460           26707                           STOVL    STARAD
001514: 15,2461           22272                                    YUNIT
001515: 15,2462           77624                           CALL
001516: 15,2463           47415                                    *NBSM*
001517: 15,2464           36715                           STCALL   STARAD     +6
001518: 15,2465           47251                                    CDUTRIG
001519: 15,2466           77624                           CALL
001520: 15,2467           30667                                    CALCSMSC
001521: 15,2470           77775                           VLOAD
001522: 15,2471           02665                                    XNB
001523: 15,2472           24007                           STOVL    6D
001524: 15,2473           02673                                    YNB
001525: 15,2474           34015                           STCALL   12D
001526: 15,2475           47153                                    AXISGEN
001527: 15,2476           77624                           CALL
001528: 15,2477           46757                                    CALCGTA
001529: 15,2500           77776                           EXIT
001530: 15,2501           04655        JUSTTRIM           TC       BANKCALL
001531: 15,2502           17121                           CADR     IMUFINE
001532: 15,2503           04655                           TC       BANKCALL
001533:
001534: 15,2504           17625                           CADR     IMUSTALL
001535: 15,2505           05730                           TC       CURTAINS
001536: 15,2506           32517                           CA       GYRCDR
001537: 15,2507           04655                           TC       BANKCALL
001538: 15,2510           17234                           CADR     IMUPULSE
001539: 15,2511           04655                           TC       BANKCALL
001540: 15,2512           17625                           CADR     IMUSTALL
001541: 15,2513           05730                           TC       CURTAINS
001542: 15,2514           06014                           TC       INTPRET
001543: 15,2515           77650                           GOTO
001544: 15,2516           02745                                    QMIN
001545: 15,2517           02737        GYRCDR             ECADR    OGC
001546:
001547: 15,2520           04024        V16N20             VN       1620
001548: 15,2521           01405        V06N05*            VN       0605
001549: 15,2522           01427        V06N23             VN       0623
001550: 15,2523           01424        V06N20             VN       0620
001551:
001552:                                                                                                  #  PERFORM STAR AQUISITION AND STAR SIGHTINGS
001553:
001554: 15,2524           35026        2STARS             CAF      BIT1                                  #  INITALIZE STARIND
001555: 15,2525           02527                           TC       +2                                    #  ONE FOR 1ST STAR, ZERO FOR 2ND STAR
001556: 15,2526           35030        1STAR              CAF      ZERO
001557: 15,2527           55757                           TS       STARIND
001558:
001559: 15,2530           04655                           TC       BANKCALL                              #  GO TO AOTMARK FOR SIGHTING
001560: 15,2531           16000                           CADR     AOTMARK
001561: 15,2532           04655                           TC       BANKCALL
001562: 15,2533           17621                           CADR     AOTSTALL                              #  SLEEP TILL SIGHTING DONE
001563: 15,2534           05730                           TC       CURTAINS                              #  BADEND RETURN FROM AOTMARK
001564:
001565: 15,2535           47715                           CS       HIGH9                                 #  GRAB STARCODE FOR INDEX
001566: 15,2536           70735                           MASK     AOTCODE
001567: 15,2537           00006                           EXTEND
001568: 15,2540           76216                           MP       REVCNT                                #  JUST 6
001569: 15,2541           50120                           INDEX    FIXLOC
001570: 15,2542           54046                           TS       X1                                    #  CODE X 6 FOR CATLOG STAR INDEX
001571: 15,2543           51757                           INDEX    STARIND
001572: 15,2544           55755                           TS       BESTI
001573:
001574: 15,2545           11757                           CCS      STARIND
001575: 15,2546           02557                           TC       ASTAR
001576: 15,2547           06014                           TC       INTPRET
001577: 15,2550           77773                           VLOAD*
001578: 15,2551           31734                                    CATLOG,1
001579: 15,2552           26731                           STOVL    VEC2                                  #  STORE 2ND CATALOG VEC (REF)
001580: 15,2553           02715                                    STARAD     +6
001581: 15,2554           02767                           STORE    STARSAV2                              #  2ND STAR IN SM
001582: 15,2555           77776                           EXIT
001583:
001584: 15,2556           02567                           TC       SURFLINE
001585:
001586: 15,2557           06014        ASTAR              TC       INTPRET
001587: 15,2560           77773                           VLOAD*
001588: 15,2561           31734                                    CATLOG,1
001589: 15,2562           26723                           STOVL    VEC1
001590: 15,2563           02715                                    STARAD     +6
001591: 15,2564           02761                           STORE    STARSAV1                              #  1ST OBSERVED STAR (SM)
001592: 15,2565           77776                           EXIT
001593: 15,2566           02526                           TC       1STAR                                 #  GO GET 2ND STAR SIGHTING
001594:
001595:                                                                                                  #  DO FINE OR COARSE ALIGNMENT OF IMU
001596:
001597: 15,2567           35030        SURFLINE           CAF      ZERO
001598: 15,2570           55757                           TS       STARIND
001599: 15,2571           06014                           TC       INTPRET
001600: 15,2572           77131                           SSP      AXT,2
001601: 15,2573           00052                                    S2
001602: 15,2574           00006                                    6
001603: 15,2575           00014                                    12D
001604: 15,2576           47173        WRTDESIR           VLOAD*   RTB
001605: 15,2577           75040                                    VEC1       +12D,2                     #  PICK UP VEC IN REF, TRANS TO DESIRED SH
001606: 15,2600           32745                                    UPDATFRF
001607: 15,2601           77614                           BON
001608: 15,2602           00314                                    FREEFLAG
001609: 15,2603           32774                                    MFREF
001610: 15,2604           53521        WRTDSBAK           MXV      UNIT
001611: 15,2605           03574                                    XSMD
001612: 15,2606           12723                           STORE    STARAD     +12D,2                     #  VEC IN SM
001613: 15,2607           77704                           TIX,2
001614: 15,2610           32576                                    WRTDESIR
001615: 15,2611           77774                           AXT,2
001616: 15,2612           00014                                    12D
001617: 15,2613           47173        WRTDESR2           VLOAD*   RTB
001618: 15,2614           75002                                    STARSAV1   +12D,2
001619: 15,2615           32745                                    UPDATFRF
001620: 15,2616           77614                           BON
001621: 15,2617           00314                                    FREEFLAG
001622: 15,2620           33004                                    CALCANG
001623: 15,2621           10023        DOALIGN            STORE    18D,2
001624: 15,2622           45104                           TIX,2    CALL
001625: 15,2623           32613                                    WRTDESR2
001626: 15,2624           30521                                    R54                                   #  DO CHKSDATA
001627: 15,2625           77624                           CALL
001628: 15,2626           47153                                    AXISGEN
001629: 15,2627           77624                           CALL
001630: 15,2630           46757                                    CALCGTA
001631: 15,2631           40175        5DEGTEST           VLOAD    BOV                                   #  IF ANGLES GREATER THAN 5 DEGS, DO COARSE
001632: 15,2632           02740                                    OGC
001633: 15,2633           32634                                    SURFSUP
001634: 15,2634           02750        SURFSUP            STORE    OGCT
001635: 15,2635           40141                           V/SC     BOV
001636: 15,2636           30102                                    5DEGREES
001637: 15,2637           32724                                    COATRIM
001638: 15,2640           52131                           SSP      GOTO
001639: 15,2641           02746                                    QMIN
001640: 15,2642           32644                                    SURFDISP
001641: 15,2643           32501                                    JUSTTRIM                              #  ANGLES LESS THAN 5 DEG, DO GYRO TORQ
001642:
001643: 15,2644           77776        SURFDISP           EXIT
001644: 15,2645           05413                           TC       PHASCHNG
001645: 15,2646           05024                           OCT      05024                                 #  STORE REFSMMAT ,SET REFSMFLG   AND
001646: 15,2647           13000                           OCT      13000                                 #  DISPLAY ORIGINAL  TORQ ANGLES
001647: 15,2650           06014                           TC       INTPRET
001648: 15,2651           75160                           AXC,1    AXC,2
001649: 15,2652           03573                                    XSMD
001650: 15,2653           01735                                    REFSMMAT
001651: 15,2654           45014                           SET      CALL
001652: 15,2655           01462                                    REFSMFLG
001653: 15,2656           30637                                    MATMOVE
001654: 15,2657           45001                           SETPD    CALL
001655: 15,2660           00001                                    0D
001656: 15,2661           47251                                    CDUTRIG
001657: 15,2662           45174                           AXT,2    CALL
001658: 15,2663           00014                                    12D
001659: 15,2664           30667                                    CALCSMSC
001660: 15,2665           61373        REFMF              VLOAD*   VXM
001661: 15,2666           75070                                    STARAD,2
001662: 15,2667           01736                                    REFSMMAT
001663: 15,2670           77656                           UNIT
001664: 15,2671           47006                           PUSH     RTB
001665: 15,2672           21454                                    LOADTIME
001666: 15,2673           45006                           PUSH     CALL
001667: 15,2674           51245                                    R-TO-RP
001668: 15,2675           77731                           SSP
001669: 15,2676           00052                                    S2
001670: 15,2677           00006                                    6
001671: 15,2700           12261                           STORE    STARVSAV,2
001672: 15,2701           77304                           TIX,2    VLOAD
001673: 15,2702           32665                                    REFMF
001674: 15,2703           02750                                    OGCT
001675: 15,2704           02740                           STORE    OGC
001676: 15,2705           77776                           EXIT
001677:
001678: 15,2706           33012                           CAF      DISPGYRO                              #  DISPLAY GYRO TORQ ANGLES V 06N93
001679: 15,2707           04655                           TC       BANKCALL
001680: 15,2710           20406                           CADR     GOFLASH
001681: 15,2711           04106                           TC       GOTOPOOH                              #  V34-TERMINATE
001682: 15,2712           04106                           TC       GOTOPOOH                              #  VB33-PROCEED TO COARSE OR FINE
001683: 15,2713           41155                           CS       OPTION1                               #  VB32-RECYCLE, MAYBE RE-ALIGN
001684: 15,2714           75025                           MASK     BIT2
001685: 15,2715           10000                           CCS      A
001686: 15,2716           04106                           TC       GOTOPOOH                              #  IF OPTION ZERO DO FINISHH
001687: 15,2717           31155                           CA       OPTION1
001688: 15,2720           75026                           MASK     BIT1
001689: 15,2721           10000                           CCS      A
001690: 15,2722           02526                           TC       1STAR
001691: 15,2723           02524                           TC       2STARS
001692:
001693:                                                                                                  #  COARSE AND FINE ALIGN IMU
001694: 15,2724           75160        COATRIM            AXC,1    AXC,2
001695: 15,2725           02664                                    XDC
001696: 15,2726           02642                                    XSM
001697: 15,2727           77624                           CALL
001698: 15,2730           30637                                    MATMOVE
001699: 15,2731           77624                           CALL
001700: 15,2732           47251                                    CDUTRIG
001701: 15,2733           77624                           CALL
001702: 15,2734           30667                                    CALCSMSC
001703: 15,2735           77624                           CALL
001704: 15,2736           47063                                    CALCGA
001705: 15,2737           77624                           CALL
001706: 15,2740           31106                                    COARSE
001707: 15,2741           77624                           CALL
001708: 15,2742           32445                                    GYROTRIM
001709: 15,2743           77650                           GOTO
001710: 15,2744           32644                                    SURFDISP
001711:
001712: 15,2745           45024        UPDATFRF           CS       FREEFBIT
001713: 15,2746           70074                           MASK     FLAGWRD0
001714: 15,2747           54074                           TS       FLAGWRD0
001715:
001716: 15,2750           35012                           CAF      REFSMBIT
001717: 15,2751           70077                           MASK     FLAGWRD3
001718: 15,2752           10000                           CCS      A
001719: 15,2753           35024                           CAF      BIT3
001720: 15,2754           61155                           AD       OPTION1
001721: 15,2755           50000                           INDEX    A
001722: 15,2756           35017                           CAF      BIT8
001723: 15,2757           51757                           INDEX    STARIND
001724: 15,2760           72770                           MASK     FREEFTAB
001725: 15,2761           10000                           CCS      A
001726: 15,2762           02766                           TC       +4
001727: 15,2763           35024                           CAF      FREEFBIT
001728: 15,2764           60074                           AD       FLAGWRD0
001729: 15,2765           54074                           TS       FLAGWRD0
001730:
001731: 15,2766           25757                           INCR     STARIND
001732: 15,2767           16035                           TCF      DANZIG
001733:
001734: 15,2770           00052        FREEFTAB           OCT      00052
001735: 15,2771           00077                           OCT      00077
001736: 15,2772           00042                           OCT      00042
001737: 15,2773           00063                           OCT      00063
001738:
001739: 15,2774           41401        MFREF              SETPD    PUSH
001740: 15,2775           00001                                    0
001741: 15,2776           41434                           RTB      PUSH
001742: 15,2777           21454                                    LOADTIME
001743: 15,3000           77624                           CALL
001744: 15,3001           51220                                    RP-TO-R
001745: 15,3002           77650                           GOTO
001746: 15,3003           32604                                    WRTDSBAK
001747:
001748: 15,3004           77624        CALCANG            CALL
001749: 15,3005           47251                                    CDUTRIG
001750: 15,3006           77624                           CALL
001751: 15,3007           47415                                    *NBSM*
001752: 15,3010           77650                           GOTO
001753: 15,3011           32621                                    DOALIGN
001754:
001755: 15,3012           01535        DISPGYRO           VN       0693
001756:
001757:                                                                                                  #  LUNAR SURFACE IMU ALIGNMENT PROGRAM
001758:
001759: 15,3013           04655        P57                TC       BANKCALL                              #  IS ISS ON - IF NOT, IMUCHK WILL SEND
001760: 15,3014           33205                           CADR     IMUCHK                                #  ALARM CODE 210 AND EXIT VIA GOTOPOOH.
001761:
001762: 15,3015           06014                           TC       INTPRET
001763: 15,3016           43145                           DLOAD    BOFF
001764: 15,3017           22276                                    ZEROVEC                               #  LOAD ZERO FOR DISPLAY IF ASCNTFLG IS
001765: 15,3020           03355                                    ASCNTFLG                              #  NOT SET
001766: 15,3021           33024                                    P57A
001767: 15,3022           77745                           DLOAD
001768: 15,3023           03425                                    TIG                                   #  LOAD ASCENT TIME FOR DISPLAY
001769: 15,3024           01047        P57A               STORE    DSPTEM1
001770: 15,3025           77776                           EXIT
001771: 15,3026           33204        P57AA              CAF      V06N34                                #  DISPLAY TALIGN, TALIGN : DSPTEM1
001772: 15,3027           04655                           TC       BANKCALL
001773: 15,3030           20406                           CADR     GOFLASH
001774: 15,3031           03026                           TC       P57AA                                 #  V34-TERMINATE
001775: 15,3032           03034                           TC       +2                                    #  V33-PROCEED
001776: 15,3033           03026                           TC       P57AA                                 #  VB32-RECYCLE
001777:
001778: 15,3034           06014                           TC       INTPRET
001779: 15,3035           46145                           DLOAD    BHIZ
001780: 15,3036           01047                                    DSPTEM1
001781: 15,3037           33042                                    P57B
001782: 15,3040           77650                           GOTO
001783: 15,3041           33045                                    P57D
001784: 15,3042           77634        P57B               RTB
001785: 15,3043           21454                                    LOADTIME                              #  LOAD CURRENT TIME
001786: 15,3044           01047                           STORE    DSPTEM1
001787: 15,3045           34041        P57D               STCALL   TDEC1
001788: 15,3046           27030                                    LEMPREC                               #  COMPUTE DESIRED IMU ORIENTATION STORE
001789: 15,3047           53575                           VLOAD    UNIT                                  #  IN  X,Y,ZSMD
001790: 15,3050           00001                                    RATT
001791: 15,3051           37574                           STCALL   XSMD
001792: 15,3052           33217                                    LSORIENT
001793: 15,3053           43170        PACKOPTN           AXT,1    BOFF                                  #  PACK FLAG BITS FOR OPTION DISPLAY
001794: 15,3054           00000                                    0
001795: 15,3055           01742                                    REFSMFLG                              #  REFSMFLG
001796: 15,3056           33061                                    +3                                    #  CLEAR-JUST ZERO
001797: 15,3057           77710                           INCR,1                                         #  SET
001798: 15,3060           00100                                    100
001799: 15,3061           62014                           BOFF     INCR,1
001800: 15,3062           03356                                    ATTFLAG                               #  ATTFLG
001801: 15,3063           33065                                    +2                                    #  CLEAR-JUST ZERO
001802: 15,3064           00010                                    10                                    #  SET
001803: 15,3065           62014                           BOFF     INCR,1
001804: 15,3066           03355                                    ASCNTFLG                              #  ASCNTFLG
001805: 15,3067           33071                                    +2                                    #  CLEAR-JUST ZERO
001806: 15,3070           00001                                    1                                     #  SET
001807: 15,3071           77530                           SXA,1    EXIT
001808: 15,3072           01156                                    OPTION1    +1
001809:
001810: 15,3073           35030                           CAF      ZERO
001811: 15,3074           55155                           TS       OPTION1                               #  JAM 00000 IN OPTION1 FOR CHECK LIST
001812:
001813: 15,3075           33203        DSPOPTN            CAF      VB04N06                               #  DISPLAY OPTION CODE AND FLAG BITS
001814: 15,3076           04655                           TC       BANKCALL
001815: 15,3077           20406                           CADR     GOFLASH
001816: 15,3100           03075                           TC       DSPOPTN                               #  VB34-TERMINATE
001817: 15,3101           03103                           TC       +2                                    #  V33-PROCEED
001818: 15,3102           03075                           TC       DSPOPTN                               #  V32-RECYCLE
001819:
001820: 15,3103           05413                           TC       PHASCHNG
001821: 15,3104           05024                           OCT      05024
001822: 15,3105           13000                           OCT      13000
001823: 15,3106           31155                           CA       OPTION1                               #  SEE IF OPTION 2 OR 3
001824: 15,3107           75025                           MASK     BIT2
001825: 15,3110           10000                           CCS      A
001826: 15,3111           03163                           TC       BYLMATT
001827:
001828: 15,3112           06014                           TC       INTPRET
001829: 15,3113           43014                           BON      BON
001830: 15,3114           01702                                    REFSMFLG
001831: 15,3115           33130                                    GETLMATT                              #  SET, GO COMPUTE LM ATTITUDE
001832: 15,3116           03316                                    ATTFLAG                               #  CLEAR-CHECK ATTFLAG FOR STORED ATTITUDE.
001833: 15,3117           33145                                    P57OPT0                               #  ALLFLG SET
001834: 15,3120           77776                           EXIT
001835: 15,3121           33202        BADOPTN            CAF      BADOPT
001836: 15,3122           04655                           TC       BANKCALL
001837: 15,3123           21443                           CADR     PRIOLARM
001838: 15,3124           03121                           TC       BADOPTN
001839: 15,3125           03121                           TC       BADOPTN
001840: 15,3126           03075                           TC       DSPOPTN
001841: 15,3127           05225                           TC       ENDOFJOB
001842:
001843:                                                                                                  #  BRANCH TO ALIGNMENT OPTION
001844:
001845: 15,3130           77624        GETLMATT           CALL
001846: 15,3131           47251                                    CDUTRIG                               #  GET SIN AND COS OF CDUS
001847: 15,3132           77624                           CALL
001848: 15,3133           30667                                    CALCSMSC                              #  GET YNB IN SM
001849: 15,3134           61375                           VLOAD    VXM
001850: 15,3135           02673                                    YNB
001851: 15,3136           01736                                    REFSMMAT                              #   YNB TO REF
001852: 15,3137           77656                           UNIT
001853: 15,3140           26245                           STOVL    YNBSAV
001854: 15,3141           02701                                    ZNB
001855: 15,3142           53505                           VXM      UNIT
001856: 15,3143           01736                                    REFSMMAT                              #  ZNB TO REF
001857: 15,3144           02253                           STORE    ZNBSAV
001858:
001859: 15,3145           77775        P57OPT0            VLOAD
001860: 15,3146           02245                                    YNBSAV                                #  Y ATTITUDE VEC
001861: 15,3147           26723                           STOVL    VEC1
001862: 15,3150           02253                                    ZNBSAV                                #  Z ATTITUDE VEC
001863: 15,3151           26731                           STOVL    VEC2
001864: 15,3152           22272                                    YUNIT
001865: 15,3153           26761                           STOVL    STARSAV1
001866: 15,3154           22270                                    ZUNIT
001867: 15,3155           02767                           STORE    STARSAV2
001868: 15,3156           77776                           EXIT
001869: 15,3157           41155                           CS       OPTION1
001870: 15,3160           75026                           MASK     BIT1                                  #  SEE IF OPTION 1 OR 3
001871: 15,3161           10000                           CCS      A
001872: 15,3162           02567                           TC       SURFLINE
001873:
001874: 15,3163           41155        BYLMATT            CS       OPTION1                               #  SEE IF OPTION 1 OR 3
001875: 15,3164           75026                           MASK     BIT1
001876: 15,3165           10000                           CCS      A
001877: 15,3166           02524                           TC       2STARS
001878: 15,3167           02247                           TC       GVDETER
001879:
001880:                                                                                                  #  OPTION 3, GET LANDING SITE VEC AND ONE STAR SIGHTING
001881:
001882: 15,3170           06014        P57OPT3            TC       INTPRET
001883: 15,3171           57575                           VLOAD    VCOMP
001884: 15,3172           02025                                    RLS                                   #  LANDING SITE VEC
001885: 15,3173           77656                           UNIT
001886: 15,3174           02723                           STORE    VEC1
001887: 15,3175           77776                           EXIT
001888: 15,3176           31155                           CA       OPTION1
001889: 15,3177           75025                           MASK     BIT2
001890: 15,3200           02526                           TC       1STAR
001891: 15,3201           02567                           TC       SURFLINE
001892:
001893: 15,3202           00701        BADOPT             OCT      00701                                 #  **** TEMP ****
001894: 15,3203           01006        VB04N06            VN       406
001895: 15,3204           01442        V06N34             VN       634
001896:
001897:                                                                                                  #  CHECK IMODES30 TO VARIFY IMU IS ON
001898:
001899: 15,3205           41304        IMUCHK             CS       IMODES30
001900: 15,3206           75016                           MASK     BIT9
001901: 15,3207           10000                           CCS      A                                     #  IS IMU ON
001902: 15,3210           13214                           TCF      +4                                    #  YES
001903:
001904: 15,3211           05646                           TC       ALARM                                 #  NO, SEND ALARM AND EXIT
001905: 15,3212           00210                           OCT      210
001906: 15,3213           04106                           TC       GOTOPOOH
001907:
001908: 15,3214           05563                           TC       UPFLAG
001909: 15,3215           00007                           ADRES    IMUSE                                 #  SET IMUSE FLAG
001910:
001911: 15,3216           04670                           TC       SWRETURN
001912:
001913: 15,3217           71220        LSORIENT           STQ      DLOAD
001914: 15,3220           02746                                    QMAJ
001915: 15,3221           01047                                    DSPTEM1
001916: 15,3222           34041                           STCALL   TDEC1
001917: 15,3223           27014                                    CSMPREC
001918: 15,3224           47375                           VLOAD    VXV
001919: 15,3225           00001                                    0D
001920: 15,3226           00007                                    6D
001921: 15,3227           53435                           VXV      UNIT
001922: 15,3230           03574                                    XSMD
001923: 15,3231           03610                           STORE    ZSMD
001924: 15,3232           53435                           VXV      UNIT
001925: 15,3233           03574                                    XSMD
001926: 15,3234           37602                           STCALL   YSMD
001927: 15,3235           02746                                    QMAJ

End of include-file P51-P53.agc.  Parent file is MAIN.agc


