
Source Code


000002:                                                                                                  ## Copyright:   Public domain.
000003:                                                                                                  ## Filename:    P70-P71.agc
000004:                                                                                                  ## Purpose:     A section of a reconstructed, mixed version of Sundance
000005:                                                                                                  ##              It is part of the reconstructed source code for the Lunar
000006:                                                                                                  ##              Module's (LM) Apollo Guidance Computer (AGC) for Apollo 9.
000007:                                                                                                  ##              No original listings of this program are available;
000008:                                                                                                  ##              instead, this file was created via disassembly of dumps
000009:                                                                                                  ##              of various revisions of Sundance core rope modules.
000010:                                                                                                  ## Assembler:   yaYUL
000011:                                                                                                  ## Contact:     Ron Burkey <info@sandroid.org>.
000012:                                                                                                  ## Website:     www.ibiblio.org/apollo/index.html
000013:                                                                                                  ## Mod history: 2020-06-17 MAS  Created from Luminary 69.
000014:
000015:                                                                                                  ## Sundance 292
000016:
000017: 21,2102                                           BANK     21
000018: 32,2000                                           SETLOC   R11
000019: 32,2000                                           BANK
000020:
000021: 32,3137  E7,1472                                  EBANK=   DVCNTR
000022: 32,3137                                           COUNT*   $$/R11
000023:
000024: 32,3137           05271        ROSEN              TC       FIXDELAY
000025: 32,3140           00062                           DEC      50         B-14
000026:
000027: 32,3141           40102                           CS       FLAGWRD6
000028: 32,3142           75022                           MASK     KILLRBIT
000029: 32,3143           00006                           EXTEND
000030: 32,3144           15321                           BZF      TASKOVER
000031:
000032: 32,3145           41012        P71NOW?            CS       MODREG                                #  YES.  ARE WE IN P71 NOW?
000033: 32,3146           63160                           AD       MODE71
000034: 32,3147           00006                           EXTEND
000035: 32,3150           15321                           BZF      TASKOVER                              #  YES.  EXIT.
000036:
000037: 32,3151           00006                           EXTEND                                         #  NO.  IS AN ABORT STAGE COMMANDED?
000038: 32,3152           00030                           READ     CHAN30
000039: 32,3153           54001                           TS       L
000040: 32,3154           75023                           MASK     BIT4
000041: 32,3155           10000                           CCS      A
000042: 32,3156           13166                           TCF      P70NOW?                               #  NO.
000043:
000044: 32,3157           05351                           TC       NEWMODEX
000045: 32,3160           00107        MODE71             DEC      71         B-14
000046:
000047: 32,3161           37665        STRTABRT           CAF      PRIO25
000048: 32,3162           05155                           TC       FINDVAC
000049: 32,3163  E7,1430                                  EBANK=   WHICH
000050: 32,3163           03204 64067                     2CADR    ABORTJOB
000051:
000052: 32,3165           13137                           TCF      ROSEN
000053:
000054: 32,3166           41012        P70NOW?            CS       MODREG                                #  NO. ARE WE IN P70 NOW?
000055: 32,3167           63177                           AD       MODE70
000056: 32,3170           00006                           EXTEND
000057: 32,3171           13137                           BZF      ROSEN                                 #  YES.  CHECK AGAIN IN 50MS.
000058:
000059: 32,3172           40001                           CS       L                                     #  NO.  IS AN ABORT COMMANDED?
000060: 32,3173           75026                           MASK     BIT1
000061: 32,3174           00006                           EXTEND
000062: 32,3175           13137                           BZF      ROSEN                                 #  NO.
000063:
000064: 32,3176           05351                           TC       NEWMODEX                              #  YES.
000065: 32,3177           00106        MODE70             DEC      70         B-14
000066: 32,3200           13161                           TCF      STRTABRT
000067:
000068: 32,3201                                           BANK     32
000069: 32,2000                                           SETLOC   ABORTS
000070: 32,2000                                           BANK
000071:
000072: 32,3201                                           COUNT*   $$/P70
000073:
000074:
000075: 32,3201           03576        P70                TC       LEGAL?
000076: 32,3202           05351                           TC       NEWMODEX
000077: 32,3203           00106                           DEC      70         B-14
000078:
000079: 32,3204           00006        ABORTJOB           EXTEND                                         #  LOAD TEVENT FOR THE DOWNLINK.
000080: 32,3205           30025                           DCA      TIME2
000081: 32,3206           53355                           DXCH     TEVENT
000082:
000083: 32,3207           05373                           TC       2PHSCHNG
000084: 32,3210           00001                           OCT      00001
000085: 32,3211           00002                           OCT      00002
000086:
000087: 32,3212           05373                           TC       2PHSCHNG
000088: 32,3213           00003                           OCT      00003
000089: 32,3214           00006                           OCT      00006
000090:
000091: 32,3215           05413                           TC       PHASCHNG
000092: 32,3216           07024                           OCT      07024
000093: 32,3217           25000                           OCT      25000
000094: 32,3220  E7,1430                                  EBANK=   WHICH
000095: 32,3220           03225 64067                     2CADR    GOABORT
000096:
000097: 32,3222           00004                           INHINT
000098: 32,3223           04674                           TC       POSTJUMP
000099: 32,3224           12570                           CADR     GOPROG2
000100:
000101: 32,3225           05413        GOABORT            TC       PHASCHNG
000102: 32,3226           04024                           OCT      04024
000103:
000104: 32,3227           36216                           CAF      SIX                                   #  SET UP R60 FOR A 10 DEG/SEC MANUV. RATE.
000105: 32,3230           55331                           TS       RATEINDX
000106:
000107: 32,3231           35010                           CAF      LRBYBIT
000108: 32,3232           55263                           TS       LRSTAT
000109:
000110: 32,3233           00006                           EXTEND
000111: 32,3234           33671                           DCA      SVEXITAD
000112: 32,3235           53253                           DXCH     AVEGEXIT
000113:
000114: 32,3236           36221                           CAF      THREE                                 #  INITIALIZE FOR POWERED DOWNLIST.
000115: 32,3237           54332                           TS       DNLSTCOD
000116: 32,3240           55330                           TS       AGSWORD
000117:
000118: 32,3241           05575                           TC       DOWNFLAG
000119: 32,3242           00155                           ADRES    SWANDISP
000120: 32,3243           05563                           TC       UPFLAG
000121: 32,3244           00211                           ADRES    FLP70
000122: 32,3245           05575                           TC       DOWNFLAG
000123: 32,3246           17140                           CADR     XOVINFLG
000124:
000125: 32,3247           05365                           TC       CHECKMM
000126: 32,3250           00106                           DEC      70         B-14
000127: 32,3251           13510                           TCF      P71RET
000128:
000129: 32,3252           33662        P70INIT            CAF      P70ADR
000130: 32,3253           55430                           TS       WHICH
000131:
000132: 32,3254           06014                           TC       INTPRET
000133: 32,3255           77624                           CALL
000134: 32,3256           65611                                    TGOCOMP
000135: 32,3257           77745                           DLOAD
000136: 32,3260           01244                                    MASS
000137: 32,3261           56206                           PUSH     DDV
000138: 32,3262           25635                                    MDOTDPS*
000139: 32,3263           17642                           STODL    TBUP
000140: 32,3264           70471                           DDV      SR1
000141: 32,3265           25641                                    K(1/DV)
000142: 32,3266           03644                           STORE    1/DV1
000143: 32,3267           03646                           STORE    1/DV2
000144: 32,3270           03650                           STORE    1/DV3
000145: 32,3271           77665                           BDDV
000146: 32,3272           25645                                    K(AT)
000147: 32,3273           17634                           STODL    AT
000148: 32,3274           25655                                    DTDECAY*
000149: 32,3275           17640                           STODL    TTO
000150: 32,3276           25651                                    DPSVEX
000151: 32,3277           03636                           STORE    VE                                    #  INITIALIZE DPS EXHAUST VELOCITY
000152: 32,3300           45014                           SET      CALL
000153: 32,3301           04467                                    FLAP
000154: 32,3302           60046                                    COMMINIT
000155:
000156: 32,3303           45345        INJTARG            DLOAD    DSU
000157: 32,3304           03474                                    TGO
000158: 32,3305           25627                                    50SECS
000159: 32,3306           77444                           BPL      EXIT
000160: 32,3307           65376                                    UPTHROT
000161:
000162: 32,3310           00004                           INHINT
000163: 32,3311           04737                           TC       IBNKCALL
000164: 32,3312           75546                           CADR     ENGINOF1
000165: 32,3313           00003                           RELINT
000166:
000167: 32,3314           03413                           TC       ZONEZERO
000168:
000169: 32,3315           06014        ABRTGUID           TC       INTPRET
000170: 32,3316           45014                           SET      CALL
000171: 32,3317           04470                                    FLIC
000172: 32,3320           60266                                    ASCENT
000173:
000174: 32,3321           77775        ABORTIGN           VLOAD
000175: 32,3322           03250                                    UNFC/2
000176: 32,3323           25256                           STOVL    POINTVSM
000177: 32,3324           06231                                    UNITX
000178: 32,3325           01250                           STORE    SCAXIS
000179: 32,3326           77414                           CLEAR    EXIT
000180: 32,3327           02663                                    NOTHROTL
000181:
000182: 32,3330           05413                           TC       PHASCHNG
000183: 32,3331           04024                           OCT      04024
000184:
000185: 32,3332           05575                           TC       DOWNFLAG
000186: 32,3333           00124                           ADRES    3AXISFLG
000187:
000188: 32,3334           00004                           INHINT
000189: 32,3335           04737                           TC       IBNKCALL
000190: 32,3336           40221                           CADR     SETMINDB
000191:
000192: 32,3337           05575                           TC       DOWNFLAG
000193: 32,3340           00217                           ADRES    FLIC
000194:
000195: 32,3341           04655                           TC       BANKCALL
000196: 32,3342           54103                           CADR     R60LEM
000197:
000198: 32,3343           04655                           TC       BANKCALL
000199: 32,3344           75064                           CADR     P40AUTO
000200:
000201: 32,3345           35030                           CAF      ZERO
000202: 32,3346           55466                           TS       DVTOTAL
000203: 32,3347           55467                           TS       DVTOTAL    +1
000204:
000205: 32,3350           06014                           TC       INTPRET
000206: 32,3351           77624                           CALL
000207: 32,3352           61213                                    INITCDUW
000208: 32,3353           77776                           EXIT
000209:
000210: 32,3354           33621                           CAF      6.5SEC
000211: 32,3355           00004                           INHINT
000212: 32,3356           05252                           TC       WAITLIST
000213: 32,3357  E7,1472                                  EBANK=   DVCNTR
000214: 32,3357           02376 74067                     2CADR    ULLGTASK
000215:
000216: 32,3361           33620                           CAF      5.0SEC
000217: 32,3362           05252                           TC       WAITLIST
000218: 32,3363  E7,1426                                  EBANK=   TTOGO
000219: 32,3363           02402 74067                     2CADR    TIG-5
000220:
000221: 32,3365           00006                           EXTEND
000222: 32,3366           30025                           DCA      TIME2
000223: 32,3367           53425                           DXCH     TIG
000224: 32,3370           00006                           EXTEND
000225: 32,3371           33623                           DCA      10SECS
000226: 32,3372           21425                           DAS      TIG
000227: 32,3373           04655                           TC       BANKCALL
000228: 32,3374           74655                           CADR     STCLOK3
000229:
000230: 32,3375           13407                           TCF      UPTHROT1
000231:
000232: 32,3376           77414        UPTHROT            SET      EXIT
000233: 32,3377           04461                                    FLVR
000234:
000235: 32,3400           00004                           INHINT
000236: 32,3401           35026                           CAF      ONE
000237: 32,3402           05252                           TC       WAITLIST
000238: 32,3403  E7,1472                                  EBANK=   DVCNTR
000239: 32,3403           02566 74067                     2CADR    ZOOM
000240:
000241: 32,3405           04655                 -2        TC       BANKCALL                              #  VERIFY THAT THE PANEL SWITCHES
000242: 32,3406           75064                           CADR     P40AUTO                               #  ARE PROPERLY SET.
000243:
000244: 32,3407           00006        UPTHROT1           EXTEND                                         #  SET SERVICER TO CALL ASCENT GUIDANCE.
000245: 32,3410           33667                           DCA      ATMAGAD
000246: 32,3411           53253                           DXCH     AVGEXIT
000247:
000248: 32,3412           15225                           TCF      ENDOFJOB
000249:
000250:
000251: 32,3413           06014        ZONEZERO           TC       INTPRET
000252: 32,3414           77731                           SSP
000253: 32,3415           01263                                    OUTROUTE
000254: 32,3416           65424                           CADR     ZONE0RET
000255: 32,3417           77414                           CLEAR    EXIT
000256: 32,3420           03672                                    AVEGFLAG
000257:
000258: 32,3421           05413                           TC       PHASCHNG
000259: 32,3422           00004                           OCT      00004
000260:
000261: 32,3423           15225                           TCF      ENDOFJOB
000262:
000263: 32,3424           05413        ZONE0RET           TC       PHASCHNG
000264: 32,3425           05024                           OCT      05024
000265: 32,3426           20000                           OCT      20000
000266:
000267: 32,3427           06014                           TC       INTPRET
000268: 32,3430           43234                           RTB      DAD
000269: 32,3431           21454                                    LOADTIME
000270: 32,3432           25625                                    80SEC
000271: 32,3433           03546                           STORE    PIPTIME1                              #  STORE TEMPORARILY IN PIPTIME1.
000272: 32,3434           34041                           STCALL   TDEC1
000273: 32,3435           27030                                    LEMPREC
000274: 32,3436           77775                           VLOAD
000275: 32,3437           00007                                    VATT
000276: 32,3440           03540                           STORE    VN1                                   #  STORE VTIG TEMPORARILY IN VN1.
000277: 32,3441           76521                           MXV      VSL1
000278: 32,3442           01736                                    REFSMMAT
000279: 32,3443           27504                           STOVL    V
000280: 32,3444           00001                                    RATT
000281: 32,3445           03532                           STORE    RN1                                   #  STORE RTIG TEMPORARILY IN RN1.
000282: 32,3446           52521                           MXV      VSL6
000283: 32,3447           01736                                    REFSMMAT
000284: 32,3450           37476                           STCALL   R
000285: 32,3451           67200                                    MUNGRAV
000286: 32,3452           45014                           SET      CALL
000287: 32,3453           04471                                    FLZONE0
000288: 32,3454           60266                                    ASCENT
000289: 32,3455           77776        PREBRET1           EXIT
000290: 32,3456           05413                           TC       PHASCHNG
000291: 32,3457           04024                           OCT      04024
000292: 32,3460           06014                           TC       INTPRET
000293: 32,3461           76505                           VXM      VSL1
000294: 32,3462           01736                                    REFSMMAT
000295: 32,3463           03643                           STORE    DELVSIN
000296: 32,3464           77646                           ABVAL
000297: 32,3465           27651                           STOVL    DELVSAB
000298: 32,3466           03532                                    RN1
000299: 32,3467           27627                           STOVL    RTIG
000300: 32,3470           03540                                    VN1
000301: 32,3471           17635                           STODL    VTIG
000302: 32,3472           03546                                    PIPTIME1
000303: 32,3473           03425                           STORE    TIG
000304: 32,3474           43014                           SET      CLEAR
000305: 32,3475           01067                                    XDELVFLG
000306: 32,3476           03267                                    MUNFLAG
000307: 32,3477           77776                           EXIT
000308:
000309: 32,3500           05351                           TC       NEWMODEX
000310: 32,3501           00050                           DEC      40         B-14
000311: 32,3502           04674                           TC       POSTJUMP
000312: 32,3503           75133                           CADR     P40LM
000313:
000314: 32,3504           03576        P71                TC       LEGAL?
000315: 32,3505           05351                           TC       NEWMODEX
000316: 32,3506           00107                           DEC      71         B-14
000317: 32,3507           13204                           TCF      ABORTJOB
000318:
000319: 32,3510           33663        P71RET             CAF      P71ADR
000320: 32,3511           55430                           TS       WHICH
000321:
000322: 32,3512           05563                           TC       UPFLAG
000323: 32,3513           00144                           ADRES    KILLROSE
000324:
000325: 32,3514           06014                           TC       INTPRET
000326: 32,3515           77624                           CALL
000327: 32,3516           60031                                    P12INIT
000328: 32,3517           77776                           EXIT
000329:
000330: 32,3520           00006                           EXTEND
000331: 32,3521           00030                           READ     CHAN30
000332: 32,3522           40000                           COM
000333: 32,3523           75023                           MASK     BIT4
000334: 32,3524           10000                           CCS      A
000335: 32,3525           13561                           TCF      ABRTSTAG
000336:
000337: 32,3526           00004                           INHINT
000338: 32,3527           04737                           TC       IBNKCALL
000339: 32,3530           75546                           CADR     ENGINOF1
000340: 32,3531           00003                           RELINT
000341:
000342: 32,3532           35025                           CAF      BIT2
000343: 32,3533           00006                           EXTEND
000344: 32,3534           02030                           RAND     CHAN30
000345: 32,3535           10000                           CCS      A
000346: 32,3536           13545                           TCF      STAGED
000347:
000348: 32,3537           33664                           CAF      OCT206
000349: 32,3540           04655                           TC       BANKCALL
000350: 32,3541           20532                           CADR     GOPERF1
000351: 32,3542           14106                           TCF      GOTOPOOH
000352: 32,3543           13545                           TCF      STAGED
000353: 32,3544           13537                           TCF      -5
000354:
000355: 32,3545           33665        STAGED             CAF      OCT207
000356: 32,3546           04655                           TC       BANKCALL
000357: 32,3547           20532                           CADR     GOPERF1
000358: 32,3550           14106                           TCF      GOTOPOOH
000359: 32,3551           13553                           TCF      +2
000360: 32,3552           13315                           TCF      ABRTGUID
000361:
000362: 32,3553           00004                           INHINT
000363: 32,3554           35026                           CAF      ONE
000364: 32,3555           05252                           TC       WAITLIST
000365: 32,3556  E7,1472                                  EBANK=   DVCNTR
000366: 32,3556           02446 74067                     2CADR    IGNITION
000367:
000368: 32,3560           13407                           TCF      UPTHROT1
000369:
000370: 32,3561           06014        ABRTSTAG           TC       INTPRET
000371: 32,3562           77614                           BOFF
000372: 32,3563           04747                                    FLAP
000373: 32,3564           65572                                    NEWTIME
000374: 32,3565           72545                           DLOAD    SL1
000375: 32,3566           03474                                    TGO
000376: 32,3567           03474                           STORE    TGO
000377: 32,3570           77634                           RTB
000378: 32,3571           65405                                    UPTHROT1   -2
000379:
000380: 32,3572           77624        NEWTIME            CALL
000381: 32,3573           65611                                    TGOCOMP                               #  IF FLAP=0, TGO=T-TIG
000382: 32,3574           77650                           GOTO
000383: 32,3575           65303                                    INJTARG
000384:
000385:                                                                                                  #  ************************************************************************
000386:
000387: 32,3576           40105        LEGAL?             CS       FLAGWRD9                              #  ARE THE ABORTS ENABLED?
000388: 32,3577           75016                           MASK     LETABBIT
000389: 32,3600           10000                           CCS      A
000390: 32,3601           13607                           TCF      ABORTALM
000391:
000392: 32,3602           40103                           CS       FLAGWRD7                              #  IS SERVICER ON THE AIR?
000393: 32,3603           75022                           MASK     AVEGFBIT
000394: 32,3604           10000                           CCS      A
000395: 32,3605           13607                           TCF      ABORTALM
000396: 32,3606           00002                           TC       Q                                     #  YES. ALL IS WELL.
000397:
000398: 32,3607           04674        ABORTALM           TC       POSTJUMP
000399: 32,3610           75714                           CADR     P40ALM
000400:
000401:                                                                                                  #  ************************************************************************
000402:
000403: 32,3611           45234        TGOCOMP            RTB      DSU
000404: 32,3612           21454                                    LOADTIME
000405: 32,3613           03425                                    TIG
000406: 32,3614           77661                           SL
000407: 32,3615           20214                                    11D
000408: 32,3616           03474                           STORE    TGO
000409: 32,3617           77616                           RVQ
000410:
000411:                                                                                                  #  ************************************************************************
000412:
000413: 32,3620           00764        5.0SEC             DEC      500        B-14
000414:
000415: 32,3621           01212        6.5SEC             DEC      650        B-14
000416:
000417: 32,3622           00000 01750  10SECS             2DEC     1000       B-28
000418:
000419: 32,3624           00000 17500  80SEC              2DEC     8000       B-28
000420:
000421: 32,3626           01161 00000  50SECS             2DEC     5000       B-17
000422:
000423: 32,3630           00021 33400  HINJECT            2DEC     18288      B-24                       #  60,000 FEET EXPRESSED IN METERS.
000424:
000425: 32,3632           04143 27611  ABTVINJ2           2DEC     +16.77924013 B-7
000426:
000427: 32,3634           11075 16051  MDOTDPS*           2DEC     0.1425     B1
000428:
000429:
000430: 32,3636           04031 23146  (1/DV)A            2DEC     16.20      B-7                        #  2 SECONDS WORTH OF INITIAL ASCENT
000431:
000432:                                                                                                  #  STAGE ACCELERATION -- INVERTED (M/CS)
000433:                                                                                                  #  1) PREDICATED ON A LIFTOFF MASS OF
000434:                                                                                                  #     4869.9 KG (SNA-8-D-027  7/11/68)
000435:                                                                                                  #  2) PREDICATED ON A CONTRIBUTION TO VEH-
000436:                                                                                                  #     ICLE ACCELERATION FROM RCS THRUSTERS
000437:                                                                                                  #     EQUIV. TO 1 JET ON CONTINUOUSLY.
000438: 32,3640           33025 16051  K(1/DV)            2DEC     432.67     B-9                        #  DPS ENGINE THRUST IN NEWTONS / 100 CS.
000439:
000440: 32,3642           05034 27135  (AT)A              2DEC     3.086      E-4        B9              #  INITIAL ASC. STG. ACCELERATION ** M/CS.
000441:                                                                                                  #  ASSUMPTIONS SAME AS FOR (1/DV)A.
000442:
000443: 32,3644           00507 25605  K(AT)              2DEC     .02                                   #  SCALING CONSTANT
000444:
000445: 32,3646           27774 34000  (TBUP)A            2DEC     98279      B-17                       #  ESTIMATED BURN-UP TIME OF THE ASCENT STG
000446:                                                                                                  #  ASSUMPTIONS SAME AS FOR (1/DV)A WITH THE
000447:                                                                                                  #  ADDITIONAL ASSUMPTION THAT NET MASS-FLOW
000448:                                                                                                  #  RATE = 5.299 KG/SEC = 5.135 (APS) +
000449:                                                                                                  #  .164 (1 RCS JET).
000450:
000451:                                                                                                  #  *** THE ORDER OF THE FOLLOWING TWO CONSTANTS MUST NOT BE CHANGED *******
000452:
000453: 32,3650           07270 10464  DPSVEX             2DEC     2943.96    E-2        B-7             #  9942 FT/SEC IN M/CS.
000454:
000455: 32,3652           07404 32650  APSVEX             2DEC     3003.78    E-2        B-7             #  9684 FT/SEC IN M/CS.
000456:
000457: 32,3654           00004 22000  DTDECAY*           2DEC     36.5       B-17
000458:
000459: 32,3656           00001 21146  ATDECAY*           2DEC     12.3       B-17
000460:
000461: 32,3660           12771 00000  (TGO)A             2DEC     45000      B-17
000462:
000463: 32,3662           02077        P70ADR             REMADR   P70TABLE
000464: 32,3663           02115        P71ADR             REMADR   P71TABLE
000465:
000466: 32,3664           00206        OCT206             OCT      206
000467: 32,3665           00207        OCT207             OCT      207
000468:
000469:                                                                                                  #  ************************************************************************
000470: 32,3666  E7,1472                                  EBANK=   DVCNTR
000471: 32,3666           02213 60067  ATMAGAD            2CADR    ATMAG
000472:
000473: 32,3670  E7,1472                                  EBANK=   DVCNTR
000474: 32,3670           02351 66067  SVEXITAD           2CADR    SERVEXIT

End of include-file P70-P71.agc.  Parent file is MAIN.agc


