
Source Code


000002:                                                                                                  ## Copyright:   Public domain.
000003:                                                                                                  ## Filename:    PHASE_TABLE_MAINTENANCE.agc
000004:                                                                                                  ## Purpose:     A section of a reconstructed, mixed version of Sundance
000005:                                                                                                  ##              It is part of the reconstructed source code for the Lunar
000006:                                                                                                  ##              Module's (LM) Apollo Guidance Computer (AGC) for Apollo 9.
000007:                                                                                                  ##              No original listings of this program are available;
000008:                                                                                                  ##              instead, this file was created via disassembly of dumps
000009:                                                                                                  ##              of various revisions of Sundance core rope modules.
000010:                                                                                                  ## Assembler:   yaYUL
000011:                                                                                                  ## Contact:     Ron Burkey <info@sandroid.org>.
000012:                                                                                                  ## Website:     www.ibiblio.org/apollo/index.html
000013:                                                                                                  ## Mod history: 2020-06-17 MAS  Created from Luminary 69.
000014:
000015:                                                                                                  ## Sundance 292
000016:
000017:                                                                                                  #  SUBROUTINE TO UPDATE THE PROGRAM NUMBER DISPLAY ON THE DSKY.
000018:
000019: 43,3724                                           COUNT*   $$/PHASE
000020:    5351                                           BLOCK    02
000021:    4000                                           SETLOC   FFTAG1
000022:    4000                                           BANK
000023:
000024:    5351           50002        NEWMODEX           INDEX    Q                                     #  UPDATE MODREG. ENTRY FOR MODE IN FIXED.
000025:    5352           30000                           CAF      0
000026:    5353           24002                           INCR     Q
000027:
000028:    5354           57012        NEWMODEA           XCH      MODREG                                #  ENTRY FOR MODE IN A
000029:    5355           40000                           COM                                            #  IF NO CHANGE IN MODE, RETURN IMMEDIATELY
000030:    5356           61012                           AD       MODREG
000031:    5357           00006                           EXTEND
000032:    5360           16716                           BZF      TCQ
000033:
000034:    5361           35364        MMDSPLAY           CAF      +3                                    #  DISPLAY MAJOR MODE.
000035:    5362           22006        PREBJUMP           LXCH     BBANK                                 #  PUTS BBANK IN L
000036:    5363           14677                           TCF      BANKJUMP                              #  PUTS Q INTO A
000037:    5364           20100                           CADR     SETUPDSP
000038:
000039:                                                                                                  #  RETURN TO CALLER +3 IF MODE = THAT AT CALLER +1. OTHERWISE RETURN TO CALLER +2.
000040:
000041:    5365           50002        CHECKMM            INDEX    Q
000042:    5366           40000                           CS       0
000043:    5367           61012                           AD       MODREG
000044:    5370           00006                           EXTEND
000045:    5371           16715                           BZF      Q+2
000046:    5372           16713                           TCF      Q+1                                   #  NO MATCH
000047:
000048:    5373     6716               TCQ                =        Q+2        +1
000049:


000051:
000052: 14,3734                                           BANK     14
000053: 10,2000                                           SETLOC   PHASETAB
000054: 10,2000                                           BANK
000055:
000056: 10,2100                                           COUNT*   $$/PHASE
000057: 10,2100           00004        SETUPDSP           INHINT
000058: 10,2101           52071                           DXCH     RUPTREG1                              #  SAVE CALLER-S RETURN 2CADR
000059: 10,2102           34367                           CAF      PRIO30                                #    EITHER A TASK OR JOB CAN COME TO
000060: 10,2103           05142                           TC       NOVAC                                 #    NEWMODE X
000061: 10,2104     1012                                  EBANK=   MODREG
000062: 10,2104           03636 60102                     2CADR    DSPMMJOB
000063:
000064: 10,2106           52071                           DXCH     RUPTREG1
000065: 10,2107           00003                           RELINT
000066: 10,2110           52006                           DXCH     Z                                     #  RETURN
000067:
000068: 10,2111  40,3636               DSPMMJOB           EQUALS   DSPMMJB
000069:


000071:
000072:    5373                                           BLOCK    02
000073:    4000                                           SETLOC   FFTAG1
000074:    4000                                           BANK
000075:
000076:                                                                                                  #  PHASCHNG IS THE MAIN WAY OF MAKING PHASE CHANGES FOR RESTARTS.  THERE ARE THREE FORMS OF PHASCHNG, KNOWN AS TYPE
000077:                                                                                                  #  A, TYPE B, AND TYPE C. THEY ARE ALL CALLED AS FOLLOWS, WHERE OCT XXXXX CONTAINS THE PHASE INFORMATION,
000078:                                                                                                  #                TC      PHASCHNG
000079:                                                                                                  #                OCT     XXXXX
000080:                                                                                                  #  TYPE A IS CONCERNED WITH FIXED PHASE CHANGES, THAT IS, PHASE INFORMATION THAT IS STORED PERMANENTLY.  THESE
000081:                                                                                                  #  OPTIONS ARE, WHERE G STANDS FOR A GROUP AND .X FOR THE PHASE,
000082:                                                                                                  #        G.0             INACTIVE, WILLNOT PERMIT A GROUP G RESTART
000083:                                                                                                  #        G.1             WILL CAUSE THE LAST DISPLAY TO BE REACTIVATED, USED MAINLY IN MANNED FLIGHTS
000084:                                                                                                  #        G.EVEN          A DOUBLE TABLE RESTART, CAN CAUSE ANY COMBINATION OF TWO JOBS, TASKS, AND/OR
000085:                                                                                                  #                        LONGCALL TO BE RESTARTED.
000086:                                                                                                  #        G.ODD NOT .1    A SINGLE TABLE RESTART, CAN CAUSE EITHER A JOB, TASK, OR LONGCALL RESTART
000087:
000088:                                                                                                  #  THIS INFORMATION IS PUT INTO THE OCTAL WORD AFTER TC PHASCHNG AS FOLLOWS
000089:                                                                                                  #        TL0 00P PPP PPP GGG                                               ,
000090:                                                                                                  #  WHERE EACH LETTER OR NUMBER STANDS FOR A BIT.  THE G:S STAND FOR THE GROUP, OCTAL 1-7, THE P:S FOR THE PHASE,
000091:                                                                                                  #  OCTAL 0 - 127.  0:S MUST BE 0.              IF ONE WISHES TO HAVE THE TBASE OF GROUP G TO BE SET AT THIS TIME,
000092:                                                                                                  #  T IS SET TO 1, OTHERWISE IT IS SET TO 0.  SIMIARLY IF ONE WISHES TO SET LONGBASE, THEN L IS SET TO 1, OTHERWISE
000093:                                                                                                  #  IT IS SET TO 0.  SOME EXAMPLES,
000094:                                                                                                  #                TC      PHASCHNG        THIS WILL CAUSE GROUP 3 TO BE SET TO 0,
000095:                                                                                                  #                OCT     00003           MAKING GROUP 3 INACTIVE
000096:
000097:                                                                                                  #                TC      PHASCHNG        IF A RESTART OCCURS THIS WOULD CAUSE
000098:                                                                                                  #                OCT     00012           GROUP 2 TO RESTART THE LAST DISPLAY
000099:
000100:                                                                                                  #                TC      PHASCHNG        THIS SETS THE TBASE OF GROUP 4 AND IN
000101:                                                                                                  #                OCT     40064           CASE OF A RESTART WOULD START UP THE TWO
000102:                                                                                                  #                                        THINGS LOCATED IN THE DOUBLE 4.6 RESTART
000103:                                                                                                  #                                        LOCATION
000104:                                                                                                  #                TC      PHASCHNG        THIS SETS LONGBASE AND UPON A RESTART
000105:                                                                                                  #                OCT     20135           CAUSES 5.13 TO BE RESTARTED (SINCE
000106:                                                                                                  #                                        LONGBASE WAS SET THIS SINGLE ENTRY
000107:                                                                                                  #                                        SHOULD BE A LONGCALL)
000108:
000109:                                                                                                  #                TC      PHASCHNG        SINCE BOTH TBASE4 AND LONGBASE ARE SET,
000110:                                                                                                  #                OCT     60124           4.12 SHOULD CONTAIN BOTH A TASK AND A
000111:                                                                                                  #                                        LONGCALL TO BE RESTARTED
000112:
000113:                                                                                                  #  TYPE C PHASCHNG CONTAINS THE VARIABLE TYPE OF PHASCHNG INFORMATION. INSTEAD OF THE INFORMATION BEING IN A
000114:                                                                                                  #  PERMANENT FORM, ONE STORES THE DESIRED RESTART INFORMATION IN A VARIABKE LOCATION. THE BITS ARE AS FOLLOWS,
000115:                                                                                                  #        TL0 1AD XXX CJW GGG
000116:                                                                                                  #  WHERE EACH LETTER OR NUMBER STANDS FOR A BIT.  THE G:S STAND FOR THE GROUP, OCTAL 1 - 7.  IF THE RESTART IS TO
000117:                                                                                                  #  BE BY WAITLIST, W IS SET TO 1, IF IT IS A JOB, J IS SET TO 1, IF IT IS A LONGCALL, C IS SET TO 1.  ONLY ONE OF
000118:                                                                                                  #  THESE THREE BITS MAY BE SET.  X:S ARE IGNORED  1 MUST BE 1, AND 0 MUST BE 0.  AGAIN T STANDS FOR THE TBASE,
000119:                                                                                                  #  AND L FOR LONGBASE.  THE BITS A AND D ARE CONCERNED WITH THE VARIABLE INFORMATION. IF D IS SET TO 1, A PRIORITY
000120:                                                                                                  #  OR DELTA TIME WILL BE READ FROM THE NEXT LOCATION AFTER THE OCTAL INFORMATION, IF THIS IS TO BE INDIRECT, THAT
000121:                                                                                                  #  IS, THE NAME OF A LOCATION COMT+INING THE INFORMATION (DELTA TIME ONLY), THEN THIS IS GIVEN AS THE -GENADR OF
000122:                                                                                                  #  THAT LOCATION WHICH CONTAINS THE DELTA TIME.  IF THE OLD PRIORITY OR DELTA TIME IS TO BE USED, THAT WHICH IS
000123:                                                                                                  #  ALREADY IN THE VARIABLE STORAGE, THEN D IS SET TO 0. NEXT THE A BIT IS USED.  IF IT IS SET TO 0, THE ADDRESS
000124:                                                                                                  #  THAT WOULD BE RESTARTED DURING A RESTART IS THE NEXT LOCATION AFTER  THE PHASE INFORMATION, THAT IS, EITHER
000125:                                                                                                  #  (TC PHASCHNG) +2 OR +3, DEPENDING ON WHETHER D HAD BEEN SET OR NOT.  IF A IS SET TO 1, THEN THE ADDRESS THAT
000126:                                                                                                  #  WOULD BE RESTARTED IS THE 2CADR THAT IS READ FROM THE NEXT TWO LOCATIONS.  EXAMPLES,
000127:                                                                                                  #        AD      TC      PHASCHNG        THIS WOULD CAUSE LOCATION AD +3 TO BE
000128:                                                                                                  #        AD+1    OCT     05023           RESTARTED BY GROUP THREE WITH A PRIORITY
000129:                                                                                                  #        AD+2    OCT     23000           OF 23.  NOTE UPON RETURNING IT WOULD
000130:                                                                                                  #        AD+3                            ALSO GO TO AD+3
000131:
000132:                                                                                                  #        AD      TC      PHASCHNG        GROUP 1 WOULD CAUSE CAUSE CALLCALL TO
000133:                                                                                                  #        AD+1    OCT     27441           BE STARTED AS A LONGCALL FROM THE TIME
000134:                                                                                                  #        AD+2    -GENADR DELTIME         STORED IN LONGBASE (LONGBASE WAS SET) BY
000135:                                                                                                  #        AD+3    2CADR   CALLCALL        A DELTA TIME STORED IN DELTIME.  THE
000136:                                                                                                  #        AD+4                            BBCON OF THE 2CADR SHOULD CONTAIN THE E
000137:                                                                                                  #        AD+5                            BANK OF DELTIME.  PHASCHNG RETURNS TO
000138:                                                                                                  #                                        LOCATION AD+5
000139:
000140:                                                                                                  #  NOTE THAT IF A VARIABLE PRIORITY IS GIVEN FOR A JOB, THE JOB WILL BE RESTARTED AS A NOVAC IF THE PRIORITY IS
000141:                                                                                                  #  NEGATIVE, AS A FINDVAC IF THE PRIORITY IS POSITIVE.
000142:
000143:                                                                                                  #  TYPE B PHASCHNG IS A COMBINATION OF VARIABLE AND FIXED PHASE CHANGES. IT WILL START UP A JOB AS INDICATED
000144:                                                                                                  #  BELOW AND ALSO START UP ONE FIXED RESTART, THAT IS EITHER AN G.1 OR A G.ODD OR THE FIRST ENTRY OF G.EVEN
000145:                                                                                                  #  DOUBLE ENTRY.  THE BIT INFORMATION IS AS FOLLOWS,
000146:                                                                                                  #        TL1 DAP PPP PPP GGG
000147:                                                                                                  #  WHERE EACH LETTER OR NUMBER STANDS FOR A BIT.  THE G:S STAND FOR THE GROUP, OCTAL 1 - 7. THE P:S FOR THE FIXED
000148:                                                                                                  #  PHASE INFORMATION, OCTAL 0 - 127. 1 MUST BE 1.  AND AGAIN T STANDS FOR THE TBASE AND L FOR LONGBASE. D THIS
000149:                                                                                                  #  TIME STANDS ONLY FOR PRIORITY SINCE THIS WILL BE CONSIDERED A JOB, AND IT MUST BE GIVEN DIRECTLY IF GIVEN.
000150:                                                                                                  #  AGAIN A STANDS FOR THE ADDRESS OF THE LOCATION TO BE RESTARTED, 1 IF THE 2CADR IS GIVEN, OR 0 IF IT IS TO BE
000151:                                                                                                  #  THE NEXT LOCATION.  (THE RETURN LOCATION OF PHASCHNG) EXAMPLES,
000152:                                                                                                  #        AD      TC      PHASCHNG        TBASE IS SET AND A RESTART CAUSE GROUP 3
000153:                                                                                                  #        AD+1    OCT     56043           TO START THE JOB AJOBAJOB WITH PRIORITY
000154:                                                                                                  #        AD+2    OCT     31000           31 AND THE FIRST ENTRY OF 3.4SPOT (WE CAN
000155:                                                                                                  #        AD+3    2CADR   AJOBAJOB        ASSUME IT IS A TASK SINCE WE SET TBASE3)
000156:                                                                                                  #        AD+4                            UPON RETURN FROM PHASCHNG CONTROL WOULD
000157:                                                                                                  #        AD+5                            GO TO AD+5
000158:
000159:                                                                                                  #        AD      TC      PHASCHNG        UPON A RESTART THE LAST DISPLAY WOULD BE
000160:                                                                                                  #        AD+1    OCT     10015           RESTARTED AND A JOB WITH THE PREVIOUSLY
000161:                                                                                                  #        AD+2                            STORED PRIORITY WOULD BE BEGUN AT AD+2
000162:                                                                                                  #                                        BY MEANS OF GROUP 5
000163:                                                                                                  #  THE NOVAC-FINDVAC CHOICE FOR JOBS HOLDS HERE ALSO - NEGATIVE PRIORITY CAUSES A NOVAC CALL, POSITIVE A FINDVAC.
000164:
000165:                                                                                                  #  SUMMARY OF BITS
000166:                                                                                                  #        TYPE A          TL0 00P PPP PPP GGG
000167:                                                                                                  #        TYPE B          TL1 DAP PPP PPP GGG
000168:                                                                                                  #        TYPE C          TL0 1AD XXX CJW GGG
000169:
000170:                                                                                                  #  2PHSCHNG IS USED WHEN ONE WISHES TO START UP A GROUP OR CHANGE A GROUP WHILE UNDER THE CONTROL OF A DIFFERENT
000171:                                                                                                  #  GROUP. FOR EXAMPLE, CHANGE THE PHASE OF GROUP 3 WHILE THE PORTION OF THE PROGRAM IS UNDER GROUP 5. ALL 2PHSCHNG
000172:                                                                                                  #  CALLS ARE MADE IN THE FOLLOWING MANNER,
000173:                                                                                                  #                TC      2PHSCHNG
000174:                                                                                                  #                OCT     XXXXX
000175:                                                                                                  #                OCT     YYYYY
000176:                                                                                                  #  WHERE OCT XXXXX MUST BE OF TYPE A AND OCT YYYYY MAY BE OF EITHER TYPE A OR TYPE B OR TYPEC.  THERE IS ONE
000177:                                                                                                  #  DIFFERENCE --- NOTE- IF LONGBASE IS TO BE SET THIS INFORMATION IS GIVEN IN THE OCT YYYYY INFORMATION, IT WILL
000178:                                                                                                  #  BE DISREGARDED IF GIVEN WITH THE OCT XXXXX INFORMATION.  A COUPLE OF EXAMPLES MAY HELP,
000179:                                                                                                  #        AD      TC      2PHSCHNG        SET TBASE3 AND IF A RESTART OCCURS START
000180:                                                                                                  #        AD+1    OCT     40083           THE TWO ENTRIES IN 3.8 TABLE LOCATION
000181:                                                                                                  #        AD+2    OCT     05025           THIS IS OF TYPE C, SET THE JOB TO BE
000182:                                                                                                  #        AD+3    OCT     18000           TO BE LOCATION AD+4, WITH A PRIORITY 18,
000183:                                                                                                  #        AD+4                            FOR GROUP 5 PHASE INFORMATION
000184:
000185:    5373                                           COUNT*   $$/PHASE
000186:    5373           00004        2PHSCHNG           INHINT                                         #  THE ENTRY FOR A DOUBLE PHASE CHANGE
000187:    5374           50002                           NDX      Q
000188:    5375           30000                           CA       0
000189:    5376           24002                           INCR     Q
000190:    5377           54072                           TS       TEMPP2
000191:
000192:    5400           75032                           MASK     OCT7
000193:    5401           60000                           DOUBLE
000194:    5402           54071                           TS       TEMPG2
000195:
000196:    5403           30072                           CA       TEMPP2
000197:    5404           75100                           MASK     OCT17770                              #  NEED ONLY 1770, BUT WHY GET A NEW CONST.
000198:    5405           00006                           EXTEND
000199:    5406           75013                           MP       BIT12
000200:    5407           56072                           XCH      TEMPP2
000201:
000202:    5410           75010                           MASK     BIT15
000203:    5411           54066                           TS       TEMPSW2                               #  INDICATES WHETHER TO SET TBASE OR NOT
000204:
000205:    5412           15416                           TCF      PHASCHNG   +3
000206:
000207:    5413           00004        PHASCHNG           INHINT
000208:    5414           35026                           CA       ONE                                   #  INDICATESWE CAME FROM A PHASCHNG ENTRY
000209:    5415           54066                           TS       TEMPSW2
000210:
000211:    5416           50002                           NDX      Q
000212:    5417           30000                           CA       0
000213:    5420           24002                           INCR     Q
000214:    5421           54065                           TS       TEMPSW
000215:
000216:    5422           00006                           EXTEND
000217:    5423           35426                           DCA      ADRPCHN2                              #  OFF TO SWITCHED BANK
000218:    5424           52006                           DTCB
000219:
000220:    5425  E3,1400                                  EBANK=   LST1
000221:    5425           02111 20103  ADRPCHN2           2CADR    PHSCHNG2
000222:
000223:    5427           22073        ONEORTWO           LXCH     TEMPBBCN
000224:    5430           22006                           LXCH     BBANK
000225:    5431           22073                           LXCH     TEMPBBCN
000226:
000227:    5432           75074                           MASK     OCT14000                              #  SEE WHAT KIND OF PHASE CHANGE IT IS
000228:    5433           10000                           CCS      A
000229:    5434           15475                           TCF      CHECKB                                #  IT IS OF TYPE :B:
000230:
000231:    5435           30062                           CA       TEMPP
000232:    5436           75020                           MASK     BIT7
000233:    5437           10000                           CCS      A                                     #  SHALL WE USE THE OLD PRIORITY
000234:    5440           15462                           TCF      GETPRIO                               #  NO GET A NEW PRIORITY (OR DELTA T)
000235:
000236:    5441           50061        OLDPRIO            NDX      TEMPG                                 #  USE THE OLD PRIORITY (OR DELTA T)
000237:    5442           31053                           CA       PHSPRDT1   -2
000238:    5443           54070                           TS       TEMPPR
000239:
000240:    5444           30062        CON1               CA       TEMPP                                 #  SEE IF A 2CADR IS GIVEN
000241:    5445           75017                           MASK     BIT8
000242:    5446           10000                           CCS      A
000243:    5447           15466                           TCF      GETNEWNM
000244:
000245:    5450           30002                           CA       Q
000246:    5451           54063                           TS       TEMPNM
000247:    5452           30006                           CA       BB
000248:    5453           00006                           EXTEND                                         #  PICK UP USERS SUPERBANK
000249:    5454           04007                           ROR      SUPERBNK
000250:    5455           54064                           TS       TEMPBB
000251:
000252:    5456           35461        TOCON2             CA       CON2ADR                               #  BACK TO SWITCHED BANK
000253:    5457           22073                           LXCH     TEMPBBCN
000254:    5460           52006                           DTCB
000255:
000256:    5461           02177        CON2ADR            GENADR   CON2
000257:
000258:    5462           50002        GETPRIO            NDX      Q                                     #  DON:T CARE IF DIRECT OR INDIRECT
000259:    5463           30000                           CA       0                                     #  LEAVE THAT DECISION TO RESTARTS
000260:    5464           24002                           INCR     Q                                     #  OBTAIN RETURN ADDRESS
000261:    5465           15443                           TCF      CON1       -1
000262:
000263:    5466           00006        GETNEWNM           EXTEND
000264:    5467           50002                           INDEX    Q
000265:    5470           30001                           DCA      0
000266:    5471           52064                           DXCH     TEMPNM
000267:    5472           35025                           CA       TWO
000268:    5473           26002                           ADS      Q                                     #  OBTAIN RETURN ADDRESS
000269:
000270:    5474           15456                           TCF      TOCON2
000271:
000272:    5475     5074               OCT14000           EQUALS   PRIO14
000273:    5475     0061               TEMPG              EQUALS   ITEMP1
000274:    5475     0062               TEMPP              EQUALS   ITEMP2
000275:    5475     0063               TEMPNM             EQUALS   ITEMP3
000276:    5475     0064               TEMPBB             EQUALS   ITEMP4
000277:    5475     0065               TEMPSW             EQUALS   ITEMP5
000278:    5475     0066               TEMPSW2            EQUALS   ITEMP6
000279:    5475     0070               TEMPPR             EQUALS   RUPTREG1
000280:    5475     0071               TEMPG2             EQUALS   RUPTREG2
000281:    5475     0072               TEMPP2             EQUALS   RUPTREG3
000282:
000283:    5475     0073               TEMPBBCN           EQUALS   RUPTREG4
000284:    5475  0000006               BB                 EQUALS   BBANK
000285:


000287:
000288: 14,3734                                           BANK     14
000289: 10,2000                                           SETLOC   PHASETAB
000290: 10,2000                                           BANK
000291:
000292: 10,2111  E3,1436                                  EBANK=   PHSNAME1
000293: 10,2111                                           COUNT*   $$/PHASE
000294: 10,2111           22073        PHSCHNG2           LXCH     TEMPBBCN
000295: 10,2112           30065                           CA       TEMPSW
000296: 10,2113           75032                           MASK     OCT7
000297: 10,2114           60000                           DOUBLE
000298: 10,2115           54061                           TS       TEMPG
000299:
000300: 10,2116           30065                           CA       TEMPSW
000301: 10,2117           75100                           MASK     OCT17770
000302: 10,2120           00006                           EXTEND
000303: 10,2121           75013                           MP       BIT12
000304: 10,2122           54062                           TS       TEMPP
000305:
000306: 10,2123           30065                           CA       TEMPSW
000307: 10,2124           74105                           MASK     OCT60000
000308: 10,2125           56065                           XCH      TEMPSW
000309: 10,2126           75074                           MASK     OCT14000
000310: 10,2127           10000                           CCS      A
000311: 10,2130           15427                           TCF      ONEORTWO
000312:
000313: 10,2131           30062                           CA       TEMPP                                 #  START STORING THE PHASE INFORMATION
000314: 10,2132           50061                           NDX      TEMPG
000315: 10,2133           54751                           TS       PHASE1     -2
000316:
000317: 10,2134           10066        BELOW1             CCS      TEMPSW2                               #  IS IT A PHASCHNG OR A 2PHSCHNG
000318: 10,2135           12151                           TCF      BELOW2                                #  IT:S A PHASCHNG
000319:
000320: 10,2136           12137                           TCF      +1                                    #  IT:S A 2PHSCHNG
000321: 10,2137           40072                           CS       TEMPP2
000322: 10,2140           22072                           LXCH     TEMPP2
000323: 10,2141           50071                           NDX      TEMPG2
000324: 10,2142           52751                           DXCH     -PHASE1    -2
000325:
000326: 10,2143           10066                           CCS      TEMPSW2
000327: 10,2144           12145                           NOOP                                           #  CAN:T GET HERE
000328: 10,2145           12151                           TCF      BELOW2
000329:
000330: 10,2146           40025                           CS       TIME1
000331: 10,2147           50071                           NDX      TEMPG2
000332: 10,2150           55052                           TS       TBASE1     -2
000333:
000334: 10,2151           10065        BELOW2             CCS      TEMPSW                                #  SEE IF WE SHOULD SET TBASE OR LONGBASE
000335: 10,2152           12165                           TCF      BELOW3                                #  SET LONGBASE ONLY
000336: 10,2153           12170                           TCF      BELOW4                                #  SET NEITHER
000337:
000338: 10,2154           40025                           CS       TIME1                                 #  SET TBASE TO BEGIN WITH
000339: 10,2155           50061                           NDX      TEMPG
000340: 10,2156           55052                           TS       TBASE1     -2
000341:
000342: 10,2157           30065                           CA       TEMPSW                                #  SHALL WE NOW SET LONGBASE
000343: 10,2160           62163                           AD       BIT14COM
000344: 10,2161           10000                           CCS      A
000345: 10,2162           12163                           NOOP                                           #  ***** CANT GET HERE *****
000346: 10,2163           17777        BIT14COM           OCT      17777                                 #  ***** CANT GET HERE *****
000347: 10,2164           12170                           TCF      BELOW4                                #  NO WE NEED ONLY SET TBASE
000348:
000349: 10,2165           00006        BELOW3             EXTEND                                         #  SET LONGBASE
000350: 10,2166           30025                           DCA      TIME2
000351: 10,2167           53163                           DXCH     LONGBASE
000352:
000353: 10,2170           40062        BELOW4             CS       TEMPP                                 #  AND STORE THE FINAL PART OF THE PHASE
000354: 10,2171           50061                           NDX      TEMPG
000355: 10,2172           54750                           TS       -PHASE1    -2
000356:
000357: 10,2173           30002                           CA       Q
000358: 10,2174           22073                           LXCH     TEMPBBCN
000359: 10,2175           00003                           RELINT
000360: 10,2176           52006                           DTCB
000361: 10,2177           22073        CON2               LXCH     TEMPBBCN
000362:
000363: 10,2200           30062                           CA       TEMPP
000364: 10,2201           50061                           NDX      TEMPG
000365: 10,2202           54751                           TS       PHASE1     -2
000366:
000367: 10,2203           30070                           CA       TEMPPR
000368: 10,2204           50061                           NDX      TEMPG
000369: 10,2205           55053                           TS       PHSPRDT1   -2
000370:
000371: 10,2206           00006                           EXTEND
000372: 10,2207           30064                           DCA      TEMPNM
000373: 10,2210           50061                           NDX      TEMPG
000374: 10,2211           53435                           DXCH     PHSNAME1   -2
000375:
000376: 10,2212           12134                           TCF      BELOW1
000377:


000379:
000380:    5475                                           BLOCK    02
000381:    4000                                           SETLOC   FFTAG1
000382:    4000                                           BANK
000383:
000384:    5475                                           COUNT*   $$/PHASE
000385:    5475           75013        CHECKB             MASK     BIT12                                 #  SINCE THIS IS OF TYPE B, THIS BIT SHOULD
000386:    5476           10000                           CCS      A                                     #   BE HERE IF WE ARE TO GET A NEW PRIORITY
000387:    5477           15462                           TCF      GETPRIO                               #  IT IS, SO GET NEW PRIORITY
000388:
000389:    5500           15441                           TCF      OLDPRIO                               #  IT ISN:T, USE THE OLD PRIORITY
000390:
000391:                                                                                                  #  PROGRAM DESCRIPTION: NEWPHASE                                           DATE: 11 NOV 1966
000392:                                                                                                  #  MOD: 1                                                                  ASSEMBLY: SUNBURST REV
000393:                                                                                                  #  MOD BY: COPPS                                                           LOG SECTION: PHASE TABLE MAINTENANCE
000394:                                                                                                  #  FUNCTIONAL DESCRIPTION:
000395:                                                                                                  #                NEWPHASE IS THE QUICK WAY TO MAKE A NON VARIABLE PHASE CHANGE. IT INCLUDES THE OPTION OF SETTING
000396:                                                                                                  #           TBASE OF THE GROUP. IF TBASE IS TO BE SET, -C(TIME1) IS STORED IN THE TBASE TABLE AS FOLLOWS:
000397:
000398:                                                                                                  #                   (L-1) TBASE0
000399:                                                                                                  #                   (L)   TBASE1 (IF GROUP=1)
000400:                                                                                                  #                   (L+1)
000401:                                                                                                  #                   (L+2) TBASE2 (IF GROUP=2)
000402:                                                                                                  #                   -----
000403:                                                                                                  #                   (L+6) TBASE4 (IF GROUP=4)
000404:                                                                                                  #                   (L+7)
000405:                                                                                                  #                   (L+8) TBASE5 (IF GROUP=5)
000406:
000407:                                                                                                  #           IN ANY CASE, THE NEGATIVE OF THE PHASE, FOLLOWED (IN THE NEXT REGISTER)  BY THE PHASE, IF STORED IN THE
000408:                                                                                                  #           PHASE TABLE AS FOLLOWS:
000409:
000410:                                                                                                  #                   (L)   -PHASE1 (IF GROUP=1)
000411:                                                                                                  #                   (L+1) PHASE1
000412:                                                                                                  #                   (L+2) -PHASE2 (IF GROUP=2)
000413:                                                                                                  #                   (L+3) PHASE2
000414:                                                                                                  #                   -----
000415:                                                                                                  #                   (L+7) PHASE 4
000416:                                                                                                  #                   (L+8) -PHASE5 (IF GROUP=5)
000417:                                                                                                  #                   (L+9) PHASE5
000418:
000419:                                                                                                  #  CALLING SEQUENCE:
000420:                                                                                                  #                EXAMPLE IS FOR PLACING A PHASE OF FIVE INTO GROUP THREE:
000421:
000422:                                                                                                  #           1) IF TBASE IS NOT TO BE SET:
000423:                                                                                                  #                                          L-1      CA     FIVE
000424:                                                                                                  #                                          L        TC     NEWPHASE
000425:                                                                                                  #                                          L+1      OCT    00003
000426:
000427:                                                                                                  #           2) IF TBASE IS TO BE SET:
000428:                                                                                                  #                                          L-1      CS     FIVE
000429:                                                                                                  #                                          L        TC     NEWPHASE
000430:                                                                                                  #                                          L+1      OCT    00003
000431:
000432:                                                                                                  #  SUBROUTINES CALLED: NONE
000433:
000434:                                                                                                  #  NORMAL EXIT MODE: AT L+2 OF CALLING SEQUENCE
000435:
000436:                                                                                                  #  ALARM OR ABORT EXITS: NONE
000437:
000438:                                                                                                  #  OUTPUT: PHASE TABLE AND TBASE TABLE UPDATED
000439:
000440:                                                                                                  #  ERASABLE INITIALIZATION REQ,D: NONE
000441:
000442:                                                                                                  #  DEBRIS: A,L,TEMPG
000443:
000444:                                                                                                  #  ***WARNING*** THIS PROGRAM IS TO BE PLACED IN FIXED-FIXED AND UNSWITCHED ERASABLE.
000445:
000446:    4000                                           SETLOC   FFTAG1
000447:    4000                                           BANK
000448:
000449:    5501                                           COUNT*   $$/PHASE
000450:    5501           00004        NEWPHASE           INHINT
000451:
000452:    5502           54001                           TS       L                                     #  SAVE FOR FURTHER USE
000453:
000454:    5503           50002                           NDX      Q                                     #  OBTAIN THE GROUP NUMBER
000455:    5504           30000                           CA       0
000456:    5505           24002                           INCR     Q                                     #  OBTAIN THE RETURN ADDRESS
000457:    5506           60000                           DOUBLE                                         #  SAVE THE GROUP IN A FORM USED FOR
000458:    5507           54061                           TS       TEMPG                                 #  INDEXING
000459:
000460:    5510           10001                           CCS      L                                     #  SEE IF WE ARE TO SET TBASE
000461:    5511           15520                           TCF      +7                                    #  NO, THE DELTA T WAS POSITIVE
000462:    5512           15520                           TCF      +6
000463:
000464:    5513           24000        NUFAZ+10           INCR     A                                     #  SET TBASE AND STORE PHASE CORRECTLY
000465:    5514           54001                           TS       L
000466:
000467:    5515           40025                           CS       TIME1                                 #  SET TBASE
000468:    5516           50061                           NDX      TEMPG
000469:    5517           55052                           TS       TBASE1     -2
000470:
000471:    5520           40001                           CS       L                                     #  NOW PUT THE PHASE IN THE RIGHT TABLE LOC
000472:    5521           50061                           NDX      TEMPG
000473:    5522           52751                           DXCH     -PHASE1    -2
000474:
000475:    5523           00003                           RELINT
000476:    5524           00002                           TC       Q                                     #  NOW RETURN TO CALLER

End of include-file PHASE_TABLE_MAINTENANCE.agc.  Parent file is MAIN.agc


