
Source Code


000002:                                                                                                  ## Copyright:   Public domain.
000003:                                                                                                  ## Filename:    PINBALL_NOUN_TABLES.agc
000004:                                                                                                  ## Purpose:     A section of a reconstructed, mixed version of Sundance
000005:                                                                                                  ##              It is part of the reconstructed source code for the Lunar
000006:                                                                                                  ##              Module's (LM) Apollo Guidance Computer (AGC) for Apollo 9.
000007:                                                                                                  ##              No original listings of this program are available;
000008:                                                                                                  ##              instead, this file was created via disassembly of dumps
000009:                                                                                                  ##              of various revisions of Sundance core rope modules.
000010:                                                                                                  ## Assembler:   yaYUL
000011:                                                                                                  ## Contact:     Ron Burkey <info@sandroid.org>.
000012:                                                                                                  ## Website:     www.ibiblio.org/apollo/index.html
000013:                                                                                                  ## Mod history: 2020-06-17 MAS  Created from Luminary 69.
000014:
000015:                                                                                                  ## Sundance 306
000016:
000017:                                                                                                  #  THE FOLLOWING REFERS TO THE NOUN TABLES
000018:
000019:
000020:                                                                                                  #  COMPONENT CODE NUMBER           INTERPRETATION
000021:
000022:                                                                                                  #  00000                           1 COMPONENT
000023:                                                                                                  #  00001                           2 COMPONENT
000024:                                                                                                  #  00010                           3 COMPONENT
000025:                                                                                                  #  X1XXX                           BIT 4 = 1. DECIMAL ONLY
000026:                                                                                                  #  1XXXX                           BIT 5 = 1. NO LOAD
000027:                                                                                                  #  END OF COMPONENT CODE NUMBERS
000028:
000029:
000030:                                                                                                  #  SF ROUTINE CODE NUMBER          INTERPRETATION
000031:
000032:                                                                                                  #  00000    OCTAL ONLY
000033:                                                                                                  #  00001    STRAIGHT FRACTIONAL
000034:                                                                                                  #  00010    CDU DEGREES (XXX.XX)
000035:                                                                                                  #  00011    ARITHMETIC SF
000036:                                                                                                  #  00100    ARITH DP1   OUT (MULT BY 2EXP14 AT END)   IN (STRAIGHT)
000037:                                                                                                  #  00101    ARITH DP2   OUT (STRAIGHT)                IN (SL 7 AT END)
000038:                                                                                                  #  00110    LANDING RADAR POSITION (+0000X)
000039:                                                                                                  #  00111    ARITH DP3   OUT (SL 7 AT END)        IN ( STRAIGHT)
000040:                                                                                                  #  01000    WHOLE HOURS IN R1, WHOLE MINUTES (MOD 60) IN R2,
000041:                                                                                                  #              SECONDS (MOD 60) 0XX.XX IN R3. *** ALARMS IF USED WITH OCTAL
000042:                                                                                                  #  01001    MINUTES (MOD 60) IN D1D2, D3 BLANK, SECONDS (MOD 60) IN D4D5
000043:                                                                                                  #                          LIMITS TO 59B59 IF MAG EXCEEDS THIS VALUE.
000044:                                                                                                  #                          ALARMS IF USED WITH OCTAL  ********  IN (ALARM)
000045:                                                                                                  #  01010    ARITH DP4   OUT (STRAIGHT)                  IN (SL 3 AT END)
000046:                                                                                                  #  01011    ARITH1 SF   OUT(MULT BY 2EXP14 AT END)    IN(STRAIGHT)
000047:                                                                                                  #  01100    2 INTEGERS IN D1D2, D4D5, D3 BLANK.
000048:                                                                                                  #                          ALARMS IF USED WITH OCTAL  ********  IN (ALARM)
000049:                                                                                                  #  01101    360-CDU DEGREES (XXX.XX)
000050:                                                                                                  #  END OF SF ROUTINE CODE NUMBERS
000051:
000052:
000053:                                                                                                  #  SF CONSTANT CODE NUMBER         INTERPRETATION
000054:
000055:                                                                                                  #  00000                           WHOLE                       USE ARITH
000056:                                                                                                  #  00000                           DP TIME SEC (XXX.XX SEC)    USE ARITHDP1
000057:                                                                                                  #  00000                           LR POSITION (+0000X)     USE LR POSITION
000058:                                                                                                  #  00001                           SPARE
000059:                                                                                                  #  00010                           CDU DEGREES              USE CDU DEGREES
000060:                                                                                                  #  00010                           360-CDU DEGREES      USE 360-CDU DEGREES
000061:                                                                                                  #  00011                           DP DEGREES (90) XX.XXX DEG  USE ARITHDP3
000062:                                                                                                  #  00100                           DP DEGREES (360) XXX.XX DEG USE ARITHDP4
000063:                                                                                                  #  00101                           DEGREES (180) XXX.XX DEG    USE ARITH
000064:                                                                                                  #  00101                           OPTICAL TRACKER AZIMUTH ANGLE(XXX.XXDEG)
000065:                                                                                                  #                                                              USE ARITHDP1
000066:                                                                                                  #  00110                           WEIGHT2 (XXXXX. LBS)        USE ARITH1
000067:
000068:                                                                                                  #  00111                           POSITION5 (XXX.XX NAUTICAL MILES)
000069:                                                                                                  #                                                              USE ARITHDP3
000070:                                                                                                  #  01000                           POSITION4 (XXXX.X NAUTICAL MILES)
000071:                                                                                                  #                                                              USE ARITHDP3
000072:                                                                                                  #  01001                           VELOCITY2 (XXXXX. FT/SEC)   USE ARITHDP4
000073:                                                                                                  #  01010                           VELOCITY3 (XXXX.X FT/SEC)   USE ARITHDP3
000074:                                                                                                  #  01011                           ELEVATION DEGREES(89.999MAX) USE ARITH
000075:                                                                                                  #  01100                           RENDEZVOUS RADAR RANGE (XXX.XX NAUT MI)
000076:                                                                                                  #                                                              USE ARITHDP1
000077:                                                                                                  #  01101                           RENDEZVOUS RADAR RANGE RATE(XXXXX.FT/SEC
000078:                                                                                                  #                                                              USE ARITHDP1
000079:                                                                                                  #  01110                           LANDING RADAR ALTITUDE(XXXXX.FEET)
000080:                                                                                                  #                                                              USE ARITHDP1
000081:                                                                                                  #  01111                           INITIAL/FINAL ALTITUDE(XXXXX.FEET)
000082:                                                                                                  #                                                              USE ARITHDP1
000083:                                                                                                  #  10000                           ALTITUDE RATE(XXXXX.FT/SEC)    USE ARITH
000084:                                                                                                  #  10001                           FORWARD/LATERAL VELOCITY(XXXXX.FEET/SEC)
000085:                                                                                                  #                                                                 USE ARITH
000086:                                                                                                  #  10010                           ROTATIONAL HAND CONTROLLER ANGLE RATES
000087:                                                                                                  #                                        XXXXX.DEG/SEC            USE ARITH
000088:                                                                                                  #  10011                           LANDING RADAR VELX(XXXXX.FEET/SEC)
000089:                                                                                                  #                                                              USE ARITHDP1
000090:                                                                                                  #  10100                           LANDING RADAR VELY(XXXXX.FEET/SEC)
000091:                                                                                                  #                                                              USE ARITHDP1
000092:                                                                                                  #  10101                           LANDING RADAR VELZ(XXXXX.FEET/SEC)
000093:                                                                                                  #                                                              USE ARITHDP1
000094:                                                                                                  #  10110                           POSITION7 (XXXX.X NAUT MI)  USE ARITHDP4
000095:                                                                                                  #  10111                           TRIM DEGREES2 (XXX.XX DEG)  USE ARITH
000096:                                                                                                  #  11000                           COMPUTED ALTITUDE (XXXXX. FEET)
000097:                                                                                                  #                                                              USE ARITHDP1
000098:                                                                                                  #  11001                           DP DEGREES (XXXX.X DEG)     USE ARITHDP3
000099:                                                                                                  #  11010                           POSITION9 (XXX.XX NAUT MI)  USE ARITHDP4
000100:                                                                                                  #  11011                           VELOCITY4 (XXXX.X FT/SEC)   USE ARITHDP2
000101:                                                                                                  #  END OF SF CONSTANT CODE NUMBERS
000102:
000103:
000104:                                                                                                  #  FOR GREATER THAN SINGLE PRECISION SCALES, PUT ADDRESS OF MAJOR PART INTO
000105:                                                                                                  #  NOUN TABLES.
000106:                                                                                                  #  OCTAL LOADS PLACE +0 INTO MAJOR PART, DATA INTO MINOR PART.
000107:                                                                                                  #  OCTAL DISPLAYS SHOW MINOR PART ONLY.
000108:                                                                                                  #  TO GET AT BOTH MAJOR AND MINOR PARTS(IN OCTAL), USE NOUN 01.
000109:
000110:
000111:                                                                                                  #  A NOUN MAY BE DECLARED :DECIMAL ONLY: BY MAKING BIT4=1 OF ITS COMPONENT
000112:                                                                                                  #  CODE NUMBER. IF THIS NOUN IS USED WITH ANY OCTAL DISPLAY VERB, OR IF
000113:                                                                                                  #  DATA IS LOADED IN OCTAL, IT ALARMS.
000114:
000115:                                                                                                  #  IN LOADING AN :HOURS, MINUTES, SECONDS: NOUN, ALL 3 WORDS MUST BE
000116:                                                                                                  #  LOADED, OR ALARM.
000117:                                                                                                  #  ALARM IF AN ATTEMPT IS MADE TO LOAD :SPLIT MINUTES/SECONDS: (MMBSS).
000118:
000119:                                                                                                  #  THIS IS USED FOR DISPLAY ONLY.
000120:
000121:                                                                                                  #  THE FOLLOWING ROUTINES ARE FOR READING THE NOUN TABLES AND THE SF TABLES
000122:                                                                                                  #  (WHICH ARE IN A SEPARATE BANK FROM THE REST OF PINBALL). THESE READING
000123:                                                                                                  #  ROUTINES ARE IN THE SAME BANK AS THE TABLES. THEY ARE CALLED BY DXCH Z.
000124:
000125:
000126:                                                                                                  #  LODNNTAB LOADS NNADTEM WITH THE NNADTAB ENTRY, NNTYPTEM WITH THE
000127:                                                                                                  #  NNTYPTAB ENTRY. IF THE NOUN IS MIXED, IDAD1TEM IS LOADED WITH THE FIRST
000128:                                                                                                  #  IDADDTAB ENTRY, IDAD2TEM THE SECOND IDADDTAB ENTRY, IDAD3TEM THE THIRD
000129:                                                                                                  #  IDADDTAB ENTRY, RUTMXTEM WITH THE RUTMXTAB ENTRY. MIXBR IS SET FOR
000130:                                                                                                  #  MIXED OR NORMAL NOUN.
000131:
000132: 06,3277                                           BANK     6
000133: 42,2000                                           SETLOC   PINBALL3
000134: 42,2000                                           BANK
000135: 42,2064                                           COUNT*   $$/NOUNS
000136: 42,2064           52152        LODNNTAB           DXCH     IDAD2TEM                              #  SAVE RETURN INFO IN IDAD2TEM, IDAD3TEM.
000137: 42,2065           51003                           INDEX    NOUNREG
000138: 42,2066           32135                           CAF      NNADTAB
000139: 42,2067           54146                           TS       NNADTEM
000140: 42,2070           51003                           INDEX    NOUNREG
000141: 42,2071           32301                           CAF      NNTYPTAB
000142: 42,2072           54147                           TS       NNTYPTEM
000143: 42,2073           41003                           CS       NOUNREG
000144: 42,2074           65041                           AD       MIXCON
000145: 42,2075           00006                           EXTEND
000146: 42,2076           62102                           BZMF     LODMIXNN                              #  NOUN NUMBER G/E FIRST MIXED NOUN
000147: 42,2077           35026                           CAF      ONE                                   #  NOUN NUMBER L/ FIRST MIXED NOUN
000148: 42,2100           54140                           TS       MIXBR                                 #  NORMAL.  +1 INTO MIXBR.
000149: 42,2101           02120                           TC       LODNLV
000150: 42,2102           35025        LODMIXNN           CAF      TWO                                   #  MIXED.  +2 INTO MIXBR.
000151: 42,2103           54140                           TS       MIXBR
000152: 42,2104           51003                           INDEX    NOUNREG
000153: 42,2105           33041                           CAF      RUTMXTAB   -40D                       #  FIRST MIXED NOUN = 40.
000154: 42,2106           54153                           TS       RUTMXTEM
000155: 42,2107           35062                           CAF      LOW10
000156: 42,2110           70146                           MASK     NNADTEM
000157: 42,2111           54002                           TS       Q                                     #  TEMP
000158: 42,2112           50000                           INDEX    A
000159: 42,2113           32625                           CAF      IDADDTAB
000160: 42,2114           54150                           TS       IDAD1TEM                              #  LOAD IDAD1TEM WITH FIRST IDADDTAB ENTRY
000161: 42,2115           00006                           EXTEND
000162: 42,2116           50002                           INDEX    Q                                     #  LOAD IDAD2TEM WITH 2ND IDADDTAB ENTRY
000163: 42,2117           32627                           DCA      IDADDTAB   +1                         #  LOAD IDAD3TEM WITH 3RD IDADDTAB ENTRY.
000164: 42,2120           52152        LODNLV             DXCH     IDAD2TEM                              #  PUT RETURN INFO INTO A, L.
000165: 42,2121           52006                           DXCH     Z
000166:
000167: 42,2122     5041               MIXCON             =        OCT50                                 #  (DEC 40)
000168:                                                                                                  #  GTSFOUT LOADS SFTEMP1, SFTEMP2 WITH THE DP SFOUTAB ENTRIES.
000169:
000170: 42,2122           52124        GTSFOUT            DXCH     SFTEMP1                               #  2X(SFCONUM) ARRIVES IN SFTEMP1.
000171:
000172: 42,2123           00006                           EXTEND
000173: 42,2124           50000                           INDEX    A
000174: 42,2125           32536                           DCA      SFOUTAB
000175: 42,2126           52124        SFCOM              DXCH     SFTEMP1
000176: 42,2127           52006                           DXCH     Z
000177:
000178:
000179:                                                                                                  #  GTSFIN LOADS SFTEMP1, SFTEMP2 WITH THE DP SFINTAB ENTRIES.
000180:
000181: 42,2130           52124        GTSFIN             DXCH     SFTEMP1                               #  2X(SFCONUM) ARRIVES IN SFTEMP1.
000182: 42,2131           00006                           EXTEND
000183: 42,2132           50000                           INDEX    A
000184: 42,2133           32446                           DCA      SFINTAB
000185: 42,2134           12126                           TCF      SFCOM
000186:
000187:                                                                                                  #  NN  NORMAL NOUNS
000188: 42,2135           00000        NNADTAB            OCT      00000                                 #  00 NOT IN USE
000189: 42,2136           40000                           OCT      40000                                 #  01 SPECIFY MACHINE ADDRESS (FRACTIONAL)
000190: 42,2137           40000                           OCT      40000                                 #  02 SPECIFY MACHINE ADDRESS (WHOLE)
000191: 42,2140           40000                           OCT      40000                                 #  03 SPECIFY MACHINE ADDRESS (DEGREES)
000192: 42,2141           00000                           OCT      0                                     #  04 SPARE
000193: 42,2142           01046                           ECADR    DSPTEM1                               #  05 ANGULAR ERROR/DIFFERENCE
000194: 42,2143           01155                           ECADR    OPTION1                               #  06 OPTION CODE
000195: 42,2144           01004                           ECADR    XREG                                  #  07 ECADR OF WORD TO BE MODIFIED
000196:                                                                                                  #     ONES FOR BITS TO BE MODIFIED
000197:                                                                                                  #     1 TO SET OR 0 TO RESET SELECTED BITS
000198: 42,2145           01363                           ECADR    ALMCADR                               #  08 ALARM DATA
000199: 42,2146           00375                           ECADR    FAILREG                               #  09 ALARM CODES
000200: 42,2147           77776                           OCT      77776                                 #  10 CHANNEL TO BE SPECIFIED
000201: 42,2150           00000                           OCT      00000                                 #  11 SPARE
000202: 42,2151           00000                           OCT      00000                                 #  12 SPARE
000203: 42,2152           00000                           OCT      00000                                 #  13 SPARE
000204: 42,2153           01052                           ECADR    DSPTEMX                               #  14 CHECKLIST
000205:                                                                                                  #        (USED BY EXTENDED VERBS ONLY)
000206: 42,2154           77777                           OCT      77777                                 #  15 INCREMENT MACHINE ADDRESS
000207: 42,2155           01052                           ECADR    DSPTEMX                               #  16 TIME OF EVENT (HRS,MIN,SEC)
000208: 42,2156           01347                           ECADR    CPHIX                                 #  17 ASTRONAUT TOTAL ATTITUDE
000209: 42,2157           03775                           ECADR    FDAIX                                 #  18 AUTO MANEUVER BALL ANGLES
000210: 42,2160           03775                           ECADR    FDAIX                                 #  19 BYPASS ATTITUDE TRIM MANEUVER
000211: 42,2161           00032                           ECADR    CDUX                                  #  20 ICDU ANGLES
000212: 42,2162           00037                           ECADR    PIPAX                                 #  21 PIPAS
000213: 42,2163           01206                           ECADR    THETAD                                #  22 NEW ICDU ANGLES
000214: 42,2164           00000                           OCT      00000                                 #  23 SPARE
000215: 42,2165           01052                           ECADR    DSPTEM2    +1                         #  24 DELTA TIME FOR AGC CLOCK(HRS,MIN,SEC)
000216: 42,2166           01046                           ECADR    DSPTEM1                               #  25 CHECKLIST
000217:                                                                                                  #        (USED WITH PLEASE PERFORM ONLY)
000218: 42,2167           01046                           ECADR    DSPTEM1                               #  26 PRIO/DELAY, ADRES, BBCON
000219: 42,2170           01362                           ECADR    SMODE                                 #  27 SELF TEST ON/OFF SWITCH
000220: 42,2171           00000                           OCT      00000                                 #  28 SPARE
000221: 42,2172           01352                           ECADR    LRFLAGS                               #  29 LANDING RADAR FLAG STATUS
000222: 42,2173           03620                           ECADR    TCSI                                  #  30 TIG OF CSI (HRS,MIN,SEC)
000223: 42,2174           03370                           ECADR    TCDH                                  #  31 TIG OF CDH (HRS,MIN,SEC)
000224: 42,2175           02144                           ECADR    -TPER                                 #  32 TIME TO PERIGEE (HRS,MIN,SEC)
000225: 42,2176           03424                           ECADR    TIG                                   #  33 TIME OF IGNITION (HRS,MIN(SEC)
000226: 42,2177           01046                           ECADR    DSPTEM1                               #  34 TIME OF EVENT (HRS,MIN,SEC)
000227: 42,2200           03426                           ECADR    TTOGO                                 #  35 TIME TO GO TO EVENT (HRS,MIN,SEC)
000228: 42,2201           00024                           ECADR    TIME2                                 #  36 TIME OF AGC CLOCK (HRS,MIN,SEC)
000229: 42,2202           03622                           ECADR    TTPI                                  #  37 TIG OF TPI (HRS,MIN,SEC)
000230: 42,2203           00000                           OCT      00000                                 #  38 SPARE
000231: 42,2204           00000                           OCT      00000                                 #  39 SPARE
000232:                                                                                                  #  END OF NNADTAB FOR NORMAL NOUNS
000233:
000234:
000235:                                                                                                  #  NN  MIXED NOUNS
000236: 42,2205           64000                           OCT      64000                                 #  40 TIME TO IGNITION/CUTOFF
000237:                                                                                                  #     VG
000238:                                                                                                  #     DELTA V (ACCUMULATED)
000239: 42,2206           02003                           OCT      02003                                 #  41 TARGET  AZIMUTH
000240:                                                                                                  #             ELEVATION
000241: 42,2207           24006                           OCT      24006                                 #  42 APOGEE
000242:                                                                                                  #     PERIGEE
000243:                                                                                                  #     DELTA V (REQUIRED)
000244: 42,2210           24011                           OCT      24011                                 #  43 LATITUDE
000245:                                                                                                  #     LONGITUDE
000246:                                                                                                  #     ALTITUDE
000247: 42,2211           64014                           OCT      64014                                 #  44 APOGEE
000248:                                                                                                  #     PERIGEE
000249:                                                                                                  #     TFF
000250: 42,2212           64017                           OCT      64017                                 #  45 MARKS
000251:                                                                                                  #     TTI OF NEXT BURN
000252:                                                                                                  #     MGA
000253: 42,2213           00022                           OCT      00022                                 #  46 AUTOPILOT CONFIGURATION
000254: 42,2214           22025                           OCT      22025                                 #  47 LEM WEIGHT
000255:                                                                                                  #     CSM WEIGHT
000256: 42,2215           22030                           OCT      22030                                 #  48 GIMBAL PITCH TRIM
000257:                                                                                                  #     GIMBAL ROLL TRIM
000258: 42,2216           22033                           OCT      22033                                 #  49 DELTA R
000259:                                                                                                  #     DELTA V
000260: 42,2217           64036                           OCT      64036                                 #  50 DELTA ALTITUDE CDH
000261:                                                                                                  #     DELTA TIME CDH-CSI
000262:                                                                                                  #     DELTA TIME TPI-CDH
000263: 42,2220           22041                           OCT      22041                                 #  51 S-BAND ANTENNA PITCH
000264:                                                                                                  #                    YAW
000265: 42,2221           00044                           OCT      00044                                 #  52 CENTRAL ANGLE OF ACTIVE VEHICLE
000266: 42,2222           24047                           OCT      24047                                 #  53 DELTA V (CSI OR TPI)
000267:                                                                                                  #     DELTA V (CDH OR TPF)
000268:                                                                                                  #     CROSS RANGE
000269: 42,2223           24052                           OCT      24052                                 #  54 RANGE
000270:                                                                                                  #     RANGE RATE
000271:                                                                                                  #     THETA
000272: 42,2224           24055                           OCT      24055                                 #  55 NO. OF APSIDAL CROSSINGS
000273:                                                                                                  #     ELEVATION ANGLE
000274:                                                                                                  #     CENTRAL ANGLE
000275: 42,2225           24060                           OCT      24060                                 #  56 NO. OF APSIDAL CROSSINGS
000276:                                                                                                  #     ELEVATION ANGLE
000277:                                                                                                  #     DELTA H CDH
000278: 42,2226           20063                           OCT      20063                                 #  57 DELTA R
000279: 42,2227           24066                           OCT      24066                                 #  58 PERIGEE ALT
000280:                                                                                                  #     DELTA V TPI
000281:                                                                                                  #     DELTA V TPF
000282: 42,2230           24071                           OCT      24071                                 #  59 DELTA VELOCITY LOS
000283: 42,2231           24074                           OCT      24074                                 #  60 HORIZONTAL VELOCITY
000284:                                                                                                  #     ALTITUDE RATE
000285:                                                                                                  #     COMPUTED ALTITUDE
000286: 42,2232           64077                           OCT      64077                                 #  61 TIME TO GO IN BRAKING PHASE
000287:                                                                                                  #     TIME TO IGNITION
000288:                                                                                                  #     CROSS RANGE DISTANCE
000289: 42,2233           64102                           OCT      64102                                 #  62 ABSOLUTE VALUE OF VELOCITY
000290:                                                                                                  #     TIME TO IGNITION
000291:                                                                                                  #     DELTA V (ACCUMULATED)
000292: 42,2234           24105                           OCT      24105                                 #  63 ABSOLUTE VALUE OF VELOCITY
000293:                                                                                                  #     ALTITUDE RATE
000294:                                                                                                  #     COMPUTED ALTITUDE
000295: 42,2235           64110                           OCT      64110                                 #  64 TIME LEFT FOR REDESIGNATION-LPD ANGLE
000296:                                                                                                  #     ALTITUDE RATE
000297:                                                                                                  #     COMPUTED ALTITUDE
000298: 42,2236           24113                           OCT      24113                                 #  65 SAMPLED AGC TIME (HRS,MIN,SEC)
000299:                                                                                                  #     (FETCHED IN INTERRUPT)
000300: 42,2237           62116                           OCT      62116                                 #  66 LR RANGE
000301:                                                                                                  #        POSITION
000302: 42,2240           04121                           OCT      04121                                 #  67 LRVX
000303:                                                                                                  #     LRVY
000304:                                                                                                  #     LRVZ
000305: 42,2241           64124                           OCT      64124                                 #  68 SLANT RANGE TO LANDING SIGHT
000306:                                                                                                  #     TIME TO GO IN BRAKING PHASE
000307:                                                                                                  #     LR ALTITUDE - COMPUTED ALTITUDE
000308: 42,2242           24127                           OCT      24127                                 #  69 DELTA V LAST
000309:                                                                                                  #     DELTA V DVMON
000310:                                                                                                  #     DELTA V TOTAL
000311: 42,2243           04132                           OCT      04132                                 #  70 AOT DETENT CODE/STAR CODE
000312: 42,2244           04135                           OCT      04135                                 #  71 AOT DETENT CODE/STAR CODE
000313: 42,2245           02140                           OCT      02140                                 #  72 RR  360 - TRUNNION ANGLE
000314:                                                                                                  #         SHAFT ANGLE
000315: 42,2246           02143                           OCT      02143                                 #  73 NEW RR  360 - TRUNNION ANGLE
000316:                                                                                                  #             SHAFT ANGLE
000317: 42,2247           64146                           OCT      64146                                 #  74 TIME TO IGNITION
000318:                                                                                                  #     YAWAFTER VEHICLE RISE
000319:                                                                                                  #     PITCH AFTER VEHICLE RISE
000320: 42,2250           64151                           OCT      64151                                 #  75 TIME TO IGNITION
000321:                                                                                                  #     DELTA V (ACCUMULATED)
000322:                                                                                                  #     COMPUTED ALTITUDE
000323: 42,2251           22154                           OCT      22154                                 #  76 CROSS-RANGE DISTANCE
000324:                                                                                                  #     APOCYNTHION ALTITUDE
000325: 42,2252           62157                           OCT      62157                                 #  77 TIME TO ENGINE CUTOFF
000326:                                                                                                  #     VELOCITY NORMAL TO CSM PLANE
000327:
000328: 42,2253           02162                           OCT      02162                                 #  78 RR RANGE
000329:                                                                                                  #        RANGE RATE
000330: 42,2254           24165                           OCT      24165                                 #  79 CURSOR ANGLE
000331:                                                                                                  #     SPIRAL ANGLE
000332:                                                                                                  #     POSITION CODE
000333: 42,2255           02170                           OCT      02170                                 #  80 DATA INDICATOR
000334:                                                                                                  #     OMEGA
000335: 42,2256           24173                           OCT      24173                                 #  81 DELTA V (LV)
000336: 42,2257           24176                           OCT      24176                                 #  82 DELTA V (LV)
000337: 42,2260           24201                           OCT      24201                                 #  83 DELTA V (BODY)
000338: 42,2261           24204                           OCT      24204                                 #  84 DELTA V (OTHER VEHICLE)
000339: 42,2262           24207                           OCT      24207                                 #  85 VG (BODY)
000340: 42,2263           24212                           OCT      24212                                 #  86 VG (LV)
000341: 42,2264           02215                           OCT      02215                                 #  87 BACKUP OPTICS LOS AZIMUTH
000342:                                                                                                  #                       ELEVATION
000343: 42,2265           24220                           OCT      24220                                 #  88 HALF UNIT SUN OR PLANET VECTOR
000344: 42,2266           24223                           OCT      24223                                 #  89 LANDMARK LATITUDE
000345:                                                                                                  #              LONGITUDE/2
000346:                                                                                                  #              ALTITUDE
000347: 42,2267           24226                           OCT      24226                                 #  90 Y
000348:                                                                                                  #     Y DOT
000349:                                                                                                  #     PSI
000350: 42,2270           64231                           OCT      64231                                 #  91 TPI ALTITUDE
000351:                                                                                                  #     TIME FROM LAUNCH TO TPI
000352:                                                                                                  #     ANGLE FROM LAUNCH TO TPI
000353: 42,2271           64234                           OCT      64234                                 #  92 TIME FROM LAUNCH TO TPF
000354:                                                                                                  #     ANGLE FROM LAUNCH TO TPF
000355: 42,2272           04237                           OCT      04237                                 #  93 DELTA GYRO ANGLES
000356: 42,2273           64242                           OCT      64242                                 #  94 CSI ALTITUDE
000357:                                                                                                  #     TIME FROM LAUNCH TO CSI
000358:                                                                                                  #     ANGLE FROM LAUNCH TO CSI
000359: 42,2274           04245                           OCT      04245                                 #  95 PREFERRED ATTITUDE ICDU ANGLES
000360: 42,2275           04250                           OCT      04250                                 #  96 +X-AXIS ATTITUDE ICDU ANGLES
000361: 42,2276           04253                           OCT      04253                                 #  97 SYSTEM TEST INPUTS
000362: 42,2277           04256                           OCT      04256                                 #  98 SYSTEM TEST RESULTS
000363: 42,2300           22261                           OCT      22261                                 #  99 RMS IN POSITION
000364:                                                                                                  #     RMS IN VELOCITY
000365:                                                                                                  #  END OF NNADTAB FOR MIXED NOUNS
000366:
000367:
000368:                                                                                                  #  NN        NORMAL NOUNS
000369: 42,2301           00000        NNTYPTAB           OCT      00000                                 #  00 NOT IN USE
000370: 42,2302           04040                           OCT      04040                                 #  01 3COMP  FRACTIONAL
000371: 42,2303           04140                           OCT      04140                                 #  02 3COMP  WHOLE
000372: 42,2304           04102                           OCT      04102                                 #  03 3COMP  CDU DEGREES
000373: 42,2305           00000                           OCT      00000                                 #  04        SPARE
000374: 42,2306           00504                           OCT      00504                                 #  05 1COMP  DPDEG(360)
000375: 42,2307           02000                           OCT      02000                                 #  06 2COMP  OCTAL ONLY
000376: 42,2310           04000                           OCT      04000                                 #  07 3COMP  OCTAL ONLY
000377: 42,2311           04000                           OCT      04000                                 #  08 3COMP  OCTAL ONLY
000378: 42,2312           04000                           OCT      04000                                 #  09 3COMP  OCTAL ONLY
000379: 42,2313           00000                           OCT      00000                                 #  10 1COMP  OCTAL ONLY
000380: 42,2314           00000                           OCT      00000                                 #  11        SPARE
000381: 42,2315           00000                           OCT      00000                                 #  12        SPARE
000382: 42,2316           00000                           OCT      00000                                 #  13        SPARE
000383:
000384: 42,2317           04140                           OCT      04140                                 #  14 3COMP  WHOLE
000385: 42,2320           00000                           OCT      00000                                 #  15 1COMP  OCTAL ONLY
000386: 42,2321           24400                           OCT      24400                                 #  16 3COMP  HMS (DEC ONLY)
000387: 42,2322           04102                           OCT      04102                                 #  17 3COMP  CDU DEG
000388: 42,2323           04102                           OCT      04102                                 #  18 3COMP  CDU DEG
000389: 42,2324           04102                           OCT      04102                                 #  19 3COMP  CDU DEG
000390: 42,2325           04102                           OCT      04102                                 #  20 3COMP  CDU DEGREES
000391: 42,2326           04140                           OCT      04140                                 #  21 3COMP  WHOLE
000392: 42,2327           04102                           OCT      04102                                 #  22 3COMP  CDU DEGREES
000393: 42,2330           00000                           OCT      00000                                 #  23        SPARE
000394: 42,2331           24400                           OCT      24400                                 #  24 3COMP  HMS (DEC ONLY)
000395: 42,2332           04140                           OCT      04140                                 #  25 3COMP  WHOLE
000396: 42,2333           04000                           OCT      04000                                 #  26 3COMP  OCTAL ONLY
000397: 42,2334           00140                           OCT      00140                                 #  27 1COMP  WHOLE
000398: 42,2335           00000                           OCT      00000                                 #  28        SPARE
000399: 42,2336           00000                           OCT      00000                                 #  29 1COMP  OCTAL ONLY
000400: 42,2337           24400                           OCT      24400                                 #  30 3COMP  HMS (DEC ONLY)
000401: 42,2340           24400                           OCT      24400                                 #  31 3COMP  HMS (DEC ONLY)
000402: 42,2341           24400                           OCT      24400                                 #  32 3COMP  HMS (DEC ONLY)
000403: 42,2342           24400                           OCT      24400                                 #  33 3COMP  HMS (DEC ONLY)
000404: 42,2343           24400                           OCT      24400                                 #  34 3COMP  HMS (DEC ONLY)
000405: 42,2344           24400                           OCT      24400                                 #  35 3COMP  HMS (DEC ONLY)
000406: 42,2345           24400                           OCT      24400                                 #  36 3COMP  HMS (DEC ONLY)
000407: 42,2346           24400                           OCT      24400                                 #  37 3COMP  HMS (DEC ONLY)
000408: 42,2347           00000                           OCT      00000                                 #  38        SPARE
000409: 42,2350           00000                           OCT      00000                                 #  39        SPARE
000410:                                                                                                  #  END OF NNTYPTAB FOR NORMAL NOUNS
000411:
000412:
000413:                                                                                                  #  NN   MIXED NOUNS
000414: 42,2351           24500                           OCT      24500                                 #  40 3COMP  MIN/SEC, VEL3, VEL3
000415:                                                                                                  #            (NO LOAD, DEC ONLY)
000416: 42,2352           00542                           OCT      00542                                 #  41 2COMP  CDU DEG, ELEV DEG
000417: 42,2353           24410                           OCT      24410                                 #  42 3COMP  POS4, POS4, VEL3
000418:                                                                                                  #            (DEC ONLY)
000419: 42,2354           20204                           OCT      20204                                 #  43 3COMP  DPDEG(360), DPDEG(360), POS4
000420:                                                                                                  #            (DEC ONLY)
000421: 42,2355           00410                           OCT      00410                                 #  44 3COMP  POS4, POS4, MIN/SEC
000422:                                                                                                  #            (NO LOAD, DEC ONLY)
000423: 42,2356           10000                           OCT      10000                                 #  45 3COMP  WHOLE, MIN/SEC, DPDEG(360)
000424:                                                                                                  #            (NO LOAD, DEC ONLY)
000425: 42,2357           00000                           OCT      00000                                 #  46 1COMP  OCTAL ONLY
000426: 42,2360           00306                           OCT      00306                                 #  47 2COMP WEIGHT2 FOR EACH
000427:                                                                                                  #            (DEC ONLY)
000428: 42,2361           01367                           OCT      01367                                 #  48 2COMP  TRIM DEG2 FOR EACH
000429:                                                                                                  #            (DEC ONLY)
000430: 42,2362           00510                           OCT      00510                                 #  49 2COMP  POS4, VEL3
000431:                                                                                                  #            (DEC ONLY)
000432: 42,2363           00010                           OCT      00010                                 #  50 3COMP  POS4, MIN/SEC, MIN/SEC
000433:                                                                                                  #            (NO LOAD, DEC ONLY)
000434: 42,2364           00204                           OCT      00204                                 #  51 2COMP  DPDEG(360), DPDEG(360)
000435:                                                                                                  #            (DEC ONLY)
000436: 42,2365           00004                           OCT      00004                                 #  52 1COMP  DPDEG(360)
000437: 42,2366           20512                           OCT      20512                                 #  53 3COMP  VEL3, VEL3, POS4
000438:                                                                                                  #            (DEC ONLY)
000439: 42,2367           10507                           OCT      10507                                 #  54 3COMP  POS5, VEL3, DPDEG(360)
000440:                                                                                                  #            (DEC ONLY)
000441: 42,2370           10200                           OCT      10200                                 #  55 3COMP  WHOLE, DPDEG(360), DPDEG(360)
000442:                                                                                                  #            (DEC ONLY)
000443: 42,2371           20200                           OCT      20200                                 #  56 3COMP  WHOLE, DPDEG(360), POS4
000444:                                                                                                  #            (DEC ONLY)
000445: 42,2372           00010                           OCT      00010                                 #  57 1COMP  POS4
000446:                                                                                                  #            (DEC ONLY)
000447: 42,2373           24510                           OCT      24510                                 #  58 3COMP  POS4, VEL3, VEL3
000448:                                                                                                  #            (DEC ONLY)
000449: 42,2374           24512                           OCT      24512                                 #  59 3COMP  VEL3 FOR EACH
000450:                                                                                                  #            (DEC ONLY)
000451: 42,2375           60512                           OCT      60512                                 #  60 3COMP  VEL3, VEL3, COMP ALT
000452:                                                                                                  #            (DEC ONLY)
000453: 42,2376           54000                           OCT      54000                                 #  61 3COMP  MIN/SEC, MIN/SEC, POS7
000454:                                                                                                  #            (NO LOAD, DEC ONLY)
000455: 42,2377           24012                           OCT      24012                                 #  62 3COMP  VEL3, MIN/SEC, VEL3
000456:                                                                                                  #            (NO LOAD, DEC ONLY)
000457: 42,2400           60512                           OCT      60512                                 #  63 3COMP  VEL3, VEL3, COMP ALT
000458:                                                                                                  #            (DEC ONLY)
000459: 42,2401           60500                           OCT      60500                                 #  64 3COMP  2INT, VEL3, COMP ALT
000460:                                                                                                  #            (NO LOAD, DEC ONLY)
000461: 42,2402           00000                           OCT      00000                                 #  65 3COMP  HMS (DEC ONLY)
000462: 42,2403           00016                           OCT      00016                                 #  66 2COMP  LANDING RADAR ALT, POSITION
000463:                                                                                                  #            (NO LOAD, DEC ONLY)
000464: 42,2404           53223                           OCT      53223                                 #  67 3COMP LANDING RADAR VELX, Y, Z
000465: 42,2405           60026                           OCT      60026                                 #  68 3COMP  POS7, MIN/SEC, COMP ALT
000466:                                                                                                  #            (NO LOAD, DEC ONLY)
000467: 42,2406           24000                           OCT      24000                                 #  69 3COMP  WHOLE, WHOLE, VEL3
000468:                                                                                                  #            (DEC ONLY)
000469: 42,2407           00000                           OCT      0                                     #  70 3COMP  OCTAL ONLY FOR EACH
000470: 42,2410           00000                           OCT      0                                     #  71 3COMP  OCTAL ONLY FOR EACH
000471: 42,2411           00102                           OCT      00102                                 #  72 2COMP  360-CDU DEG, CDU DEG
000472: 42,2412           00102                           OCT      00102                                 #  73 2COMP  360-CDU DEG, CDU DEG
000473: 42,2413           10200                           OCT      10200                                 #  74 3COMP  MIN/SEC, DPDEG(360), DPDEG(360)
000474:                                                                                                  #            (NO LOAD, DEC ONLY)
000475: 42,2414           60500                           OCT      60500                                 #  75 3COMP  MIN/SEC, VEL3, COMP ALT
000476:                                                                                                  #            (NO LOAD, DEC ONLY)
000477: 42,2415           00410                           OCT      00410                                 #  76 3COMP  POS4, POS4
000478:                                                                                                  #            (DEC ONLY)
000479: 42,2416           00500                           OCT      00500                                 #  77 2COMP  MIN/SEC, VEL3
000480:                                                                                                  #            (NO LOAD, DEC ONLY)
000481: 42,2417           00654                           OCT      00654                                 #  78 2 COMP  RR RANGE, RR RANGE RATE
000482: 42,2420           00102                           OCT      00102                                 #  79 3COMP  CDU DEG, CDU DEG, WHOLE
000483:                                                                                                  #            (DEC ONLY)
000484: 42,2421           00200                           OCT      00200                                 #  80 2COMP  WHOLE, DPDEG(360)
000485: 42,2422           24512                           OCT      24512                                 #  81 3COMP  VEL3 FOR EACH
000486:                                                                                                  #            (DEC ONLY)
000487: 42,2423           24512                           OCT      24512                                 #  82 3COMP  VEL3 FOR EACH
000488:
000489:                                                                                                  #            (DEC ONLY)
000490: 42,2424           24512                           OCT      24512                                 #  83 3COMP  VEL3 FOR EACH
000491:                                                                                                  #            (DEC ONLY)
000492: 42,2425           24512                           OCT      24512                                 #  84 3COMP  VEL3 FOR EACH
000493:                                                                                                  #            (DEC ONLY)
000494: 42,2426           24512                           OCT      24512                                 #  85 3COMP  VEL3 FOR EACH
000495:                                                                                                  #            (DEC ONLY)
000496: 42,2427           24512                           OCT      24512                                 #  86 3COMP  VEL3 FOR EACH
000497:                                                                                                  #            (DEC ONLY)
000498: 42,2430           00102                           OCT      00102                                 #  87 2COMP  CDU DEG FOR EACH
000499: 42,2431           00000                           OCT      0                                     #  88 3COMP  FRAC FOR EACH
000500:                                                                                                  #             (DEC ONLY)
000501: 42,2432           16143                           OCT      16143                                 #  89 3COMP  DPDEG(90), DPDEG(90), POS5
000502:                                                                                                  #            (DEC ONLY)
000503: 42,2433           10507                           OCT      10507                                 #  90 3COMP  POS5, VEL3, DPDEG(360)
000504:                                                                                                  #            (DEC ONLY)
000505: 42,2434           62010                           OCT      62010                                 #  91 3COMP  POS4, MIN/SEC, DPDEG(XXXX.X)
000506:                                                                                                  #            (NO LOAD, DEC ONLY)
000507: 42,2435           62000                           OCT      62000                                 #  92 3COMP  SPARE, MIN/SEC, DPDEG(XXXX.X)
000508:                                                                                                  #            (NO LOAD, DEC ONLY)
000509: 42,2436           06143                           OCT      06143                                 #  93 3COMP  DPDEG(90) FOR EACH
000510: 42,2437           62010                           OCT      62010                                 #  94 3COMP  POS4, MIN/SEC, DPDEG(XXXX.X)
000511:                                                                                                  #            (NO LOAD, DEC ONLY)
000512: 42,2440           04102                           OCT      04102                                 #  95 3COMP  CDU DEG FOR EACH
000513: 42,2441           04102                           OCT      04102                                 #  96 3COMP  CDU DEG FOR EACH
000514: 42,2442           00000                           OCT      00000                                 #  97 3COMP  WHOLE FOR EACH
000515: 42,2443           00000                           OCT      00000                                 #  98 3COMP  WHOLE, FRAC, WHOLE
000516: 42,2444           01572                           OCT      01572                                 #  99 3COMP  POS9, VEL4
000517:                                                                                                  #            (DEC ONLY)
000518:                                                                                                  #  END OF NNTYPTAB FOR MIXED NOUNS
000519:
000520:
000521: 42,2445           00006        SFINTAB            OCT      00006                                 #  WHOLE, DP TIME (SEC)
000522: 42,2446           03240                           OCT      03240
000523: 42,2447           00000                           OCT      00000                                 #  SPARE
000524: 42,2450           00000                           OCT      00000
000525: 42,2451           00000                           OCT      00000                                 #  CDU DEGREES, 360-CDU DEGREES
000526: 42,2452           00000                           OCT      00000                                 #      (SFCONS IN DEGINSF)
000527: 42,2453           10707                           OCT      10707                                 #  DP DEGREES (90)
000528: 42,2454           03435                           OCT      03435                                 #          UPPED BY 1
000529: 42,2455           13070                           OCT      13070                                 #  DP DEGREES (360) (POINT BETWN BITS 11-12)
000530: 42,2456           34345                           OCT      34345                                 #          UPPED BY 1
000531: 42,2457           00005                           OCT      00005                                 #  DEGREES (180)
000532: 42,2460           21616                           OCT      21616
000533: 42,2461           26113                           OCT      26113                                 #  WEIGHT2
000534: 42,2462           31713                           OCT      31713
000535: 42,2463           00070                           OCT      00070                                 #  POSITION5
000536: 42,2464           20460                           OCT      20460
000537: 42,2465           01065                           OCT      01065                                 #  POSITION4
000538: 42,2466           05740                           OCT      05740
000539: 42,2467           11414                           OCT      11414                                 #  VELOCITY2       (POINT BETWN BITS 11-12)
000540: 42,2470           31463                           OCT      31463
000541: 42,2471           07475                           OCT      07475                                 #  VELOCITY3
000542:
000543: 42,2472           16051                           OCT      16051
000544: 42,2473           00001                           OCT      00001                                 #  ELEVATION DEGREES
000545: 42,2474           03434                           OCT      03434
000546: 42,2475           00047                           OCT      00047                                 #  RENDEZVOUS RADAR RANGE
000547: 42,2476           21135                           OCT      21135
000548: 42,2477           77766                           OCT      77766                                 #  RENDEZVOUS RADAR RANGE RATE
000549: 42,2500           50711                           OCT      50711
000550: 42,2501           00005                           OCT      00005                                 #  LANDING RADAR ALTITUDE
000551: 42,2502           24733                           OCT      24733
000552: 42,2503           00002                           OCT      00002                                 #  INITIAL/FINAL ALTITUDE
000553: 42,2504           23224                           OCT      23224
000554: 42,2505           00014                           OCT      00014                                 #  ALTITUDE RATE
000555: 42,2506           06500                           OCT      06500
000556: 42,2507           00012                           OCT      00012                                 #  FORWARD/LATERAL VELOCITY
000557: 42,2510           36455                           OCT      36455
000558: 42,2511           04256                           OCT      04256                                 #  ROT HAND CONT ANGLE RATE
000559: 42,2512           07071                           OCT      07071
000560: 42,2513           77766 60557                     2DEC*    -1.552795030 E5         B-28*           #  LANDING RADAR VELX
000561: 42,2515           00005 01114                     2DEC*    .8250825087 E5         B-28*           #  LANDING RADAR VELY
000562: 42,2517           00007 01247                     2DEC*    1.153668673 E5         B-28*           #  LANDING RADAR VELZ
000563: 42,2521           04324                           OCT      04324                                 #  POSITION7
000564: 42,2522           27600                           OCT      27600
000565: 42,2523           00036                           OCT      00036                                 #  TRIM DEGREES2
000566: 42,2524           20440                           OCT      20440
000567: 42,2525           00035                           OCT      00035                                 #  COMPUTED ALTITUDE
000568: 42,2526           30400                           OCT      30400
000569: 42,2527           23420                           OCT      23420                                 #  DP DEGREES
000570: 42,2530           00000                           OCT      00000
000571: 42,2531           16102 14000                     2DEC     1852       E3         B-22            #  POSITION 9
000572: 42,2533           07475 16051                     2DEC     30.48      B-7                        #  VELOCITY4
000573:
000574:                                                                                                  #  END OF SFINTAB
000575:
000576:
000577: 42,2535           05174        SFOUTAB            OCT      05174                                 #  WHOLE, DP TIME (SEC)
000578: 42,2536           13261                           OCT      13261
000579: 42,2537           00000                           OCT      00000                                 #  SPARE
000580: 42,2540           00000                           OCT      00000
000581: 42,2541           00000                           OCT      00000                                 #  CDU DEGREES, 360-CDU DEGREES
000582: 42,2542           00000                           OCT      00000                                 #      (SFCONS IN DEGOUTSF, 360-CDUO)
000583: 42,2543           00714                           OCT      00714                                 #  DP DEGREES (90) (POINT BETWN BITS 7-8)
000584: 42,2544           31463                           OCT      31463
000585: 42,2545           13412                           OCT      13412                                 #  DP DEGREES (360)
000586: 42,2546           07534                           OCT      07534
000587: 42,2547           05605                           OCT      05605                                 #  DEGREES (180)
000588: 42,2550           03656                           OCT      03656
000589:
000590: 42,2551           00001                           OCT      00001                                 #  WEIGHT2
000591: 42,2552           16170                           OCT      16170
000592: 42,2553           00441                           OCT      00441                                 #  POSITION5
000593: 42,2554           34306                           OCT      34306
000594: 42,2555           07176                           OCT      07176                                 #  POSITION4       (POINT BETWN BITS 7-8)
000595: 42,2556           21603                           OCT      21603
000596: 42,2557           15340                           OCT      15340                                 #  VELOCITY2
000597: 42,2560           15340                           OCT      15340
000598: 42,2561           01031                           OCT      01031                                 #  VELOCITY3       (POINT BETWN BITS 7-8)
000599: 42,2562           21032                           OCT      21032
000600: 42,2563           34631                           OCT      34631                                 #  ELEVATION DEGREES
000601: 42,2564           23146                           OCT      23146
000602: 42,2565           00636                           OCT      00636                                 #  RENDEZVOUS RADAR RANGE
000603: 42,2566           14552                           OCT      14552
000604: 42,2567           74552                           OCT      74552                                 #  RENDEZVOUS RADAR RANGE RATE
000605: 42,2570           70307                           OCT      70307
000606: 42,2571           05521                           OCT      05521                                 #  LANDING RADAR ALTITUDE
000607: 42,2572           30260                           OCT      30260
000608: 42,2573           14226                           OCT      14226                                 #  INITIAL/FINAL ALTITUDE
000609: 42,2574           31757                           OCT      31757
000610: 42,2575           02476                           OCT      02476                                 #  ALTITUDE RATE
000611: 42,2576           05531                           OCT      05531
000612: 42,2577           02727                           OCT      02727                                 #  FORWARD/LATERAL VELOCITY
000613: 42,2600           16415                           OCT      16415
000614: 42,2601           00007                           OCT      00007                                 #  ROT HAND CONT ANGLE RATE
000615: 42,2602           13734                           OCT      13734
000616: 42,2603           74477 50643                     2DEC     -.6440     E-5        B14             #  LANDING RADAR VELX
000617: 42,2605           06265 16004                     2DEC     1.212      E-5        B14             #  LANDING RADAR VELY
000618: 42,2607           04426 31433                     2DEC     .8668      E-5        B14             #  LANDING RADAR VELZ
000619: 42,2611           34772                           OCT      34772                                 #  POSITION7
000620: 42,2612           07016                           OCT      07016
000621: 42,2613           01030                           OCT      01030                                 #  TRIM DEGREES2
000622: 42,2614           33675                           OCT      33675
000623: 42,2615           01046                           OCT      01046                                 #  COMPUTED ALTITUDE
000624: 42,2616           15700                           OCT      15700
000625: 42,2617           00321                           OCT      00321                                 #  DP DEGREES
000626: 42,2620           26706                           OCT      26706
000627: 42,2621           11036 06144                     2DEC     .283092873                            #  POSITION 9
000628: 42,2623           01031 21032                     2DEC     .032808399                            #  VELOCITY4
000629:                                                                                                  #  END OF SFOUTAB
000630:
000631:
000632:                                                                                                  #  NN    SF CONSTANT             SF ROUTINE
000633:
000634: 42,2625           03426        IDADDTAB           ECADR    TTOGO                                 #  40 MIN/SEC                          M/S
000635:
000636: 42,2626           03650                           ECADR    VGDISP                                #  40 VEL3                             DP3
000637: 42,2627           03466                           ECADR    DVTOTAL                               #  40 VEL3                             DP3
000638: 42,2630           01046                           ECADR    DSPTEM1                               #  41 CDU DEG                          CDU
000639: 42,2631           01047                           ECADR    DSPTEM1    +1                         #  41 ELEV DEG                         ARTH
000640: 42,2632           00000                           OCT      0                                     #  41 SPARE COMPONENT
000641: 42,2633           02260                           ECADR    HAPO                                  #  42 POS4                             DP3
000642: 42,2634           02262                           ECADR    HPER                                  #  42 POS4                             DP3
000643: 42,2635           03650                           ECADR    VGDISP                                #  42 VEL3                             DP3
000644: 42,2636           01123                           ECADR    LAT                                   #  43 DPDEG(360)                       DP4
000645: 42,2637           01125                           ECADR    LONG                                  #  43 DPDEG(360)                       DP4
000646: 42,2640           01127                           ECADR    ALT                                   #  43 POS4                             DP3
000647: 42,2641           02121                           ECADR    HAPOX                                 #  44 POS4                             DP3
000648: 42,2642           02123                           ECADR    HPERX                                 #  44 POS4                             DP3
000649: 42,2643           02142                           ECADR    TFF                                   #  44 MIN/SEC                          M/S
000650: 42,2644           03447                           ECADR    TRKMKCNT                              #  45 WHOLE                            ARTH
000651: 42,2645           03426                           ECADR    TTOGO                                 #  45 MIN/SEC                          M/S
000652: 42,2646           02260                           ECADR    +MGA                                  #  45 DPDEG(360)                       DP4
000653: 42,2647           01353                           ECADR    DAPDATR1                              #  46 OCTAL ONLY                       OCT
000654: 42,2650           00000                           OCT      0                                     #  46 SPARE COMPONENT
000655: 42,2651           00000                           OCT      0                                     #  46 SPARE COMPONENT
000656: 42,2652           01335                           ECADR    LEMMASS                               #  47 WEIGHT2                         ARTH1
000657: 42,2653           01336                           ECADR    CSMMASS                               #  47 WEIGHT2                         ARTH1
000658: 42,2654           00000                           OCT      0                                     #  47 SPARE COMPONENT
000659: 42,2655           03002                           ECADR    PITTIME                               #  48 TRIM DEG2                        ARTH
000660: 42,2656           03001                           ECADR    ROLLTIME                              #  48 TRIM DEG2                        ARTH
000661: 42,2657           00000                           OCT      0                                     #  48 SPARE COMPONENT
000662: 42,2660           01046                           ECADR    R22DISP                               #  49 POS4                             DP3
000663: 42,2661           01050                           ECADR    R22DISP    +2                         #  49 VEL3                             DP3
000664: 42,2662           00000                           OCT      00000                                 #  49 SPARE COMPONENT
000665: 42,2663           03566                           ECADR    DIFFALT                               #  50 POS4                             DP3
000666: 42,2664           02260                           ECADR    T1TOT2                                #  50 MIN/SEC                          M/S
000667: 42,2665           02262                           ECADR    T2TOT3                                #  50 MIN/SEC                          M/S
000668: 42,2666           02206                           ECADR    ALPHASB                               #  51 DPDEG(360)                       DP4
000669: 42,2667           02210                           ECADR    BETASB                                #  51 DPDEG(360)                       DP4
000670: 42,2670           00000                           OCT      0                                     #  51 SPARE COMPONENT
000671: 42,2671           01767                           ECADR    ACTCENT                               #  52 DPDEG(360)                       DP4
000672: 42,2672           00000                           OCT      00000                                 #  52 SPARE COMPONENT
000673: 42,2673           00000                           OCT      00000                                 #  52 SPARE COMPONENT
000674: 42,2674           03562                           ECADR    DELVTPI                               #  53 VEL3                             DP3
000675: 42,2675           03564                           ECADR    DELVTPF                               #  53 VEL3                             DP3
000676: 42,2676           03737                           ECADR    P1XMAX                                #  53 POS4                             DP3
000677: 42,2677           02206                           ECADR    RANGE                                 #  54 POS5                             DP1
000678: 42,2700           02210                           ECADR    RRATE                                 #  54 VEL3                             DP3
000679: 42,2701           02212                           ECADR    RTHETA                                #  54 DPDEG(360)                       DP4
000680: 42,2702           03453                           ECADR    NN                                    #  55 WHOLE                            ARTH
000681: 42,2703           02264                           ECADR    ELEV                                  #  55 DPDEG(360)                       DP4
000682: 42,2704           03605                           ECADR    CENTANG                               #  55 DPDEG(360)                       DP4
000683: 42,2705           03453                           ECADR    NN                                    #  56 WHOLE                            ARTH
000684: 42,2706           02264                           ECADR    ELEV                                  #  56 DPDEG(360)                       DP4
000685: 42,2707           03745                           ECADR    CDHDELH                               #  56 POS4                             DP3
000686: 42,2710           02316                           ECADR    DELTAR                                #  57 POS4                             DP3
000687: 42,2711           00000                           OCT      0                                     #  57 SPARE COMPONENT
000688: 42,2712           00000                           OCT      0                                     #  57 SPARE COMPONENT
000689: 42,2713           03574                           ECADR    POSTTPI                               #  58 POS4                             DP3
000690: 42,2714           03562                           ECADR    DELVTPI                               #  58 VEL3                             DP3
000691: 42,2715           03564                           ECADR    DELVTPF                               #  58 VEL3                             DP3
000692: 42,2716           02316                           ECADR    DVLOS                                 #  59 VEL3                             DP3
000693: 42,2717           02320                           ECADR    DVLOS      +2                         #  59 VEL3                             DP3
000694: 42,2720           02322                           ECADR    DVLOS      +4                         #  59 VEL3                             DP3
000695: 42,2721           03704                           ECADR    VHORIZ                                #  60 VEL3                             DP3
000696: 42,2722           03517                           ECADR    HDOTDISP                              #  60 VEL3                             DP3
000697: 42,2723           03511                           ECADR    HCALC                                 #  60 COMP ALT                         DP1
000698: 42,2724           03521                           ECADR    TTFDISP                               #  61 MIN/SEC                          M/S
000699: 42,2725           03426                           ECADR    TTOGO                                 #  61 MIN/SEC                          M/S
000700: 42,2726           02426                           ECADR    OUTOFPLN                              #  61 POS7                             DP4
000701: 42,2727           03515                           ECADR    ABVEL                                 #  62 VEL3                             DP3
000702: 42,2730           03426                           ECADR    TTOGO                                 #  62 MIN/SEC                          M/S
000703: 42,2731           03466                           ECADR    DVTOTAL                               #  62 VEL3                             DP3
000704: 42,2732           03515                           ECADR    ABVEL                                 #  63 VEL3                             DP3
000705: 42,2733           03517                           ECADR    HDOTDISP                              #  63 VEL3                             DP3
000706: 42,2734           03511                           ECADR    HCALC                                 #  63 COMP ALT                         DP1
000707: 42,2735           03702                           ECADR    FUNNYDSP                              #  64 2INT                             2INT
000708: 42,2736           03517                           ECADR    HDOTDISP                              #  64 VEL3                             DP3
000709: 42,2737           03511                           ECADR    HCALC                                 #  64 COMP ALT                         DP1
000710: 42,2740           00013                           ECADR    SAMPTIME                              #  65 HMS (MIXED ONLY TO KEEP CODE 65) HMS
000711: 42,2741           00013                           ECADR    SAMPTIME                              #  65 HMS                              HMS
000712: 42,2742           00013                           ECADR    SAMPTIME                              #  65 HMS                              HMS
000713: 42,2743           02214                           ECADR    RSTACK     +6                         #  66 LANDING RADAR ALT                DP1
000714: 42,2744           00000                           OCT      0                                     #  66 LR POSITION                     LRPOS
000715: 42,2745           00000                           OCT      0                                     #  66 SPARE COMPONENT
000716: 42,2746           02206                           ECADR    RSTACK                                #  67 LANDING RADAR VELX               DP1
000717: 42,2747           02210                           ECADR    RSTACK     +2                         #  67 LANDING RADAR VELY               DP1
000718: 42,2750           02212                           ECADR    RSTACK     +4                         #  67 LANDING RADAR VELZ               DP1
000719: 42,2751           02422                           ECADR    RANGEDSP                              #  68 POS7                             DP4
000720: 42,2752           03521                           ECADR    TTFDISP                               #  68 MIN/SEC                          M/S
000721: 42,2753           02424                           ECADR    DELTAH                                #  68 COMP ALT                         DP1
000722: 42,2754           01245                           ECADR    ABDELV                                #  69 WHOLE                            ARTH
000723: 42,2755           01201                           ECADR    DVTHRUSH                              #  69 WHOLE                            ARTH
000724: 42,2756           03466                           ECADR    DVTOTAL                               #  69 VEL3                             DP3
000725: 42,2757           00735                           ECADR    AOTCODE                               #  70 OCTAL ONLY                       OCT
000726: 42,2760           00736                           ECADR    AOTCODE    +1                         #  70 OCTAL ONLY                       OCT
000727: 42,2761           00737                           ECADR    AOTCODE    +2                         #  70 OCTAL ONLY                       OCT
000728: 42,2762           00735                           ECADR    AOTCODE                               #  71 OCTAL ONLY                       OCT
000729: 42,2763           00736                           ECADR    AOTCODE    +1                         #  71 OCTAL ONLY                       OCT
000730: 42,2764           00737                           ECADR    AOTCODE    +2                         #  71 OCTAL ONLY                       OCT
000731: 42,2765           00035                           ECADR    CDUT                                  #  72 360-CDU DEG                   360-CDU
000732: 42,2766           00036                           ECADR    CDUS                                  #  72 CDU DEG                          CDU
000733: 42,2767           00000                           OCT      0                                     #  72 SPARE COMPONENT
000734: 42,2770           01112                           ECADR    TANG                                  #  73 360-CDU DEG                   360-CDU
000735: 42,2771           01113                           ECADR    TANG       +1                         #  73 CDU DEG                          CDU
000736: 42,2772           00000                           OCT      0                                     #  73 SPARE COMPONENT
000737: 42,2773           03426                           ECADR    TTOGO                                 #  74 MIN/SEC                          M/S
000738: 42,2774           03737                           ECADR    YAW                                   #  74 DPDEG(360)                       DP4
000739: 42,2775           03741                           ECADR    PITCH                                 #  74 DPDEG(360)                       DP4
000740: 42,2776           03426                           ECADR    TTOGO                                 #  75 MIN/SEC                          M/S
000741: 42,2777           03466                           ECADR    DVTOTAL                               #  75 VEL3                             DP3
000742: 42,3000           03511                           ECADR    HCALC                                 #  75 COMP ALT                         DP1
000743: 42,3001           03627                           ECADR    XRANGE                                #  76 POS4                             DP3
000744: 42,3002           03631                           ECADR    APO                                   #  76 POS4                             DP3
000745: 42,3003           00000                           OCT      0                                     #  76 SPARE COMPONENT
000746: 42,3004           03426                           ECADR    TTOGO                                 #  77 MIN/SEC                          M/S
000747: 42,3005           03677                           ECADR    YDOT                                  #  77 VEL3                             DP3
000748: 42,3006           00000                           OCT      0                                     #  77 SPARE COMPONENT
000749: 42,3007           02206                           ECADR    RSTACK                                #  78 RR RANGE                         DP1
000750: 42,3010           02210                           ECADR    RSTACK     +2                         #  78 RR RANGE RATE                    DP1
000751: 42,3011           00000                           OCT      00000                                 #  78 SPARE COMPONENT
000752: 42,3012           03731                           ECADR    CURSOR                                #  79 CDU DEG                          CDU
000753: 42,3013           03731                           ECADR    SPIRAL                                #  79 CDU DEG                          CDU
000754: 42,3014           03731                           ECADR    POSCODE                               #  79 WHOLE                            ARTH
000755: 42,3015           03720                           ECADR    DATAGOOD                              #  80 WHOLE                            ARTH
000756: 42,3016           03721                           ECADR    OMEGAD                                #  80 DPDEG(360)                       DP4
000757: 42,3017           00000                           OCT      0                                     #  80 SPARE COMPONENT
000758: 42,3020           02266                           ECADR    DELVLVC                               #  81 VEL3                             DP3
000759: 42,3021           02270                           ECADR    DELVLVC    +2                         #  81 VEL3                             DP3
000760: 42,3022           02272                           ECADR    DELVLVC    +4                         #  81 VEL3                             DP3
000761: 42,3023           02266                           ECADR    DELVLVC                               #  82 VEL3                             DP3
000762: 42,3024           02270                           ECADR    DELVLVC    +2                         #  82 VEL3                             DP3
000763: 42,3025           02272                           ECADR    DELVLVC    +4                         #  82 VEL3                             DP3
000764: 42,3026           03607                           ECADR    DELVIMU                               #  83 VEL3                             DP3
000765: 42,3027           03611                           ECADR    DELVIMU    +2                         #  83 VEL3                             DP3
000766: 42,3030           03613                           ECADR    DELVIMU    +4                         #  83 VEL3                             DP3
000767: 42,3031           02230                           ECADR    DELVOV                                #  84 VEL3                             DP3
000768: 42,3032           02232                           ECADR    DELVOV     +2                         #  84 VEL3                             DP3
000769: 42,3033           02234                           ECADR    DELVOV     +4                         #  84 VEL3                             DP3
000770: 42,3034           03772                           ECADR    VGBODY                                #  85 VEL3                             DP3
000771: 42,3035           03774                           ECADR    VGBODY     +2                         #  85 VEL3                             DP3
000772: 42,3036           03776                           ECADR    VGBODY     +4                         #  85 VEL3                             DP3
000773: 42,3037           02266                           ECADR    DELVLVC                               #  86 VEL3                             DP3
000774: 42,3040           02270                           ECADR    DELVLVC    +2                         #  86 VEL3                             DP3
000775: 42,3041           02272                           ECADR    DELVLVC    +4                         #  86 VEL3                             DP3
000776: 42,3042           01347                           ECADR    AZ                                    #  87 CDU DEG                          CDU
000777: 42,3043           01350                           ECADR    EL                                    #  87 CDU DEG                          CDU
000778: 42,3044           00000                           OCT      0                                     #  87 SPARE COMPONENT
000779: 42,3045           02706                           ECADR    STARAD                                #  88 FRAC                             FRAC
000780: 42,3046           02710                           ECADR    STARAD     +2                         #  88 FRAC                             FRAC
000781: 42,3047           02712                           ECADR    STARAD     +4                         #  88 FRAC                             FRAC
000782: 42,3050           03731                           ECADR    LANDLAT                               #  89 DPDEG(90)                        DP3
000783: 42,3051           03731                           ECADR    LANDLONG                              #  89 DPDEG(90)                        DP3
000784: 42,3052           03731                           ECADR    LANDALT                               #  89 POS5                             DP1
000785: 42,3053           02206                           ECADR    RANGE                                 #  90 POS5                             DP1
000786: 42,3054           02210                           ECADR    RRATE                                 #  90 VEL3                             DP3
000787: 42,3055           02212                           ECADR    RTHETA                                #  90 DPDEG(360)                       DP4
000788: 42,3056           03715                           ECADR    INJALT                                #  91 POS4                             DP3
000789: 42,3057           03741                           ECADR    TPITIME                               #  91 MIN/SEC                          M/S
000790: 42,3060           03757                           ECADR    TPIANGLE                              #  91 DPDEG(XXXX.X)                    DP3
000791: 42,3061           00007                           ECADR    SPARE                                 #  92 SPARE COMPONENT
000792: 42,3062           03743                           ECADR    INJTIME                               #  92 MIN/SEC                          M/S
000793: 42,3063           03713                           ECADR    INJANGLE                              #  92 DPDEG(XXXX.X)                    DP3
000794: 42,3064           02737                           ECADR    OGC                                   #  93 DPDEG(90)                        DP3
000795: 42,3065           02741                           ECADR    OGC        +2                         #  93 DPDEG(90)                        DP3
000796: 42,3066           02743                           ECADR    OGC        +4                         #  93 DPDEG(90)                        DP3
000797: 42,3067           03715                           ECADR    INJALT                                #  94 POS4                             DP3
000798: 42,3070           03743                           ECADR    INJTIME                               #  94 MIN/SEC                          M/S
000799: 42,3071           03713                           ECADR    INJANGLE                              #  94 DPDEG(XXXX.X)                    DP3
000800: 42,3072           01206                           ECADR    CPHI                                  #  95 CDU DEG                          CDU
000801: 42,3073           01207                           ECADR    CTHETA                                #  95 CDU DEG                          CDU
000802: 42,3074           01210                           ECADR    CPSI                                  #  95 CDU DEG                          CDU
000803: 42,3075           00007                           ECADR    CPHIXATT                              #  96 CDU DEG                          CDU
000804: 42,3076           00010                           ECADR    CPHIXATT   +1                         #  96 CDU DEG                          CDU
000805: 42,3077           00011                           ECADR    CPHIXATT   +2                         #  96 CDU DEG                          CDU
000806: 42,3100           01046                           ECADR    DSPTEM1                               #  97 WHOLE                            ARTH
000807: 42,3101           01047                           ECADR    DSPTEM1    +1                         #  97 WHOLE                            ARTH
000808: 42,3102           01050                           ECADR    DSPTEM1    +2                         #  97 WHOLE                            ARTH
000809: 42,3103           01051                           ECADR    DSPTEM2                               #  98 WHOLE                            ARTH
000810: 42,3104           01052                           ECADR    DSPTEM2    +1                         #  98 FRAC                             FRAC
000811: 42,3105           01053                           ECADR    DSPTEM2    +2                         #  98 WHOLE                            ARTH
000812: 42,3106           02206                           ECADR    WWPOS                                 #  99 POS9                             DP4
000813: 42,3107           02210                           ECADR    WWVEL                                 #  99 VEL4                             DP2
000814: 42,3110           00000                           OCT      0                                     #  99 SPARE COMPONENT
000815:                                                                                                  #  END OF IDADDTAB
000816:
000817:                                                                                                  #  NN  SF ROUTINES
000818:
000819: 42,3111           16351        RUTMXTAB           OCT      16351                                 #  40 M/S, DP3, DP3
000820: 42,3112           00142                           OCT      00142                                 #  41 CDU, ARTH
000821: 42,3113           16347                           OCT      16347                                 #  42 DP3, DP3, DP3
000822: 42,3114           16512                           OCT      16512                                 #  43 DP4, DP4, DP3
000823: 42,3115           22347                           OCT      22347                                 #  44 DP3, DP3, M/S
000824: 42,3116           24443                           OCT      24443                                 #  45 ARTH, M/S, DP4
000825: 42,3117           00000                           OCT      00000                                 #  46 OCT
000826: 42,3120           00553                           OCT      00553                                 #  47 ARITH1, ARITH1
000827: 42,3121           00143                           OCT      00143                                 #  48 ARTH, ARTH
000828: 42,3122           00347                           OCT      00347                                 #  49 DP3, DP3
000829: 42,3123           22447                           OCT      22447                                 #  50 DP3, M/S, M/S
000830: 42,3124           00512                           OCT      00512                                 #  51 DP4, DP4
000831: 42,3125           00012                           OCT      00012                                 #  52 DP4
000832: 42,3126           16347                           OCT      16347                                 #  53 DP3, DP3, DP3
000833: 42,3127           24344                           OCT      24344                                 #  54 DP1, DP3, DP4
000834: 42,3130           24503                           OCT      24503                                 #  55 ARTH, DP4, DP4
000835: 42,3131           16503                           OCT      16503                                 #  56 ARTH, DP4, DP3
000836: 42,3132           00007                           OCT      00007                                 #  57 DP3
000837: 42,3133           16347                           OCT      16347                                 #  58 DP3, DP3, DP3
000838: 42,3134           16347                           OCT      16347                                 #  59 DP3, DP3, DP3
000839: 42,3135           10347                           OCT      10347                                 #  60 DP3, DP3, DP1
000840: 42,3136           24451                           OCT      24451                                 #  61 M/S, M/S, DP4
000841: 42,3137           16447                           OCT      16447                                 #  62 DP3, M/S, DP3
000842: 42,3140           10347                           OCT      10347                                 #  63 DP3, DP3, DP1
000843: 42,3141           10354                           OCT      10354                                 #  64 2INT, DP3, DP1
000844: 42,3142           20410                           OCT      20410                                 #  65 HMS, HMS, HMS
000845: 42,3143           00304                           OCT      00304                                 #  66 DP1, LRPOS
000846: 42,3144           10204                           OCT      10204                                 #  67 DP1, DP1, DP1
000847: 42,3145           10452                           OCT      10452                                 #  68 DP4, M/S, DP1
000848: 42,3146           16143                           OCT      16143                                 #  69 ARTH, ARTH, DP3
000849: 42,3147           00000                           OCT      0                                     #  70 OCT, OCT, OCT
000850: 42,3150           00000                           OCT      0                                     #  71 OCT, OCT, OCT
000851: 42,3151           00115                           OCT      00115                                 #  72 360-CDU, CDU
000852: 42,3152           00115                           OCT      00115                                 #  73 360-CDU, CDU
000853: 42,3153           24511                           OCT      24511                                 #  74M/S, DP4, DP4
000854: 42,3154           10351                           OCT      10351                                 #  75 M/S, DP3, DP1
000855: 42,3155           00347                           OCT      00347                                 #  76 DP3, DP3
000856: 42,3156           00351                           OCT      00351                                 #  77 M/S, DP3
000857: 42,3157           00204                           OCT      00204                                 #  78 DP1, DP1
000858: 42,3160           06102                           OCT      06102                                 #  79 CDU, CDU, ARTH
000859: 42,3161           00503                           OCT      00503                                 #  80 ARTH, DP4
000860: 42,3162           16347                           OCT      16347                                 #  81 DP3, DP3, DP3
000861: 42,3163           16347                           OCT      16347                                 #  82 DP3, DP3, DP3
000862: 42,3164           16347                           OCT      16347                                 #  83 DP3, DP3, DP3
000863: 42,3165           16347                           OCT      16347                                 #  84 DP3, DP3, DP3
000864: 42,3166           16347                           OCT      16347                                 #  85 DP3, DP3, DP3
000865: 42,3167           16347                           OCT      16347                                 #  86 DP3, DP3, DP3
000866: 42,3170           00102                           OCT      00102                                 #  87 CDU, CDU
000867: 42,3171           02041                           OCT      02041                                 #  88 FRAC FOR EACH
000868: 42,3172           10347                           OCT      10347                                 #  89 DP3, DP3, DP1
000869: 42,3173           24344                           OCT      24344                                 #  90 DP1, DP3, DP4
000870: 42,3174           16447                           OCT      16447                                 #  91 DP3, M/S, DP3
000871: 42,3175           16441                           OCT      16441                                 #  92 M/S, DP3
000872: 42,3176           16347                           OCT      16347                                 #  93 DP3, DP3, DP3
000873: 42,3177           16447                           OCT      16447                                 #  94 DP3, M/S, DP3
000874: 42,3200           04102                           OCT      04102                                 #  95 CDU, CDU, CDU
000875: 42,3201           04102                           OCT      04102                                 #  96 CDU, CDU, CDU
000876: 42,3202           06143                           OCT      06143                                 #  97 ARTH, ARTH, ARTH
000877: 42,3203           06043                           OCT      06043                                 #  98 ARTH, FRAC, ARTH
000878: 42,3204           00252                           OCT      00252                                 #  99 DP4, DP2
000879:                                                                                                  #  END OF RUTMXTAB
000880:
000881:
000882: 42,3205  30,2000                                  SBANK=   LOWSUPER
000883:

End of include-file PINBALL_NOUN_TABLES.agc.  Parent file is MAIN.agc


