
Source Code


000002:                                                                                                  ## Copyright:   Public domain.
000003:                                                                                                  ## Filename:    PINBALL_GAME__BUTTONS_AND_LIGHTS.agc
000004:                                                                                                  ## Purpose:     A section of a reconstructed, mixed version of Sundance
000005:                                                                                                  ##              It is part of the reconstructed source code for the Lunar
000006:                                                                                                  ##              Module's (LM) Apollo Guidance Computer (AGC) for Apollo 9.
000007:                                                                                                  ##              No original listings of this program are available;
000008:                                                                                                  ##              instead, this file was created via disassembly of dumps
000009:                                                                                                  ##              of various revisions of Sundance core rope modules.
000010:                                                                                                  ## Assembler:   yaYUL
000011:                                                                                                  ## Contact:     Ron Burkey <info@sandroid.org>.
000012:                                                                                                  ## Website:     www.ibiblio.org/apollo/index.html
000013:                                                                                                  ## Mod history: 2020-06-17 MAS  Created from Luminary 69.
000014:                                                                                                  ##              2021-05-30 ABS  RCDUFBIT -> BIT7 to match Luminary 69.
000015:
000016:                                                                                                  ## Sundance 306
000017:
000018:                                                                                                  #  PROGRAM NAME - KEYBOARD AND DISPLAY PROGRAM
000019:                                                                                                  #  MOD NO - 4      DATE - 27 APRIL 1967      ASSEMBLY - PINDANCE REV 18
000020:                                                                                                  #  MOD BY - FILENE
000021:                                                                                                  #  LOG SECTION - PINBALL GAME  BUTTONS AND LIGHTS
000022:
000023:                                                                                                  #  FUNCTIONAL DESCRIPTION-
000024:
000025:                                                                                                  #     THE KEYBOARD AND DISPLAY SYSTEM PROGRAM OPERATES UNDER EXECUTIVE
000026:                                                                                                  #  CONTROL AND PROCESSES INFORMATION EXCHANGED BETWEEN THE AGC AND THE
000027:                                                                                                  #  COMPUTER OPERATOR.  THE INPUTS TO THE PROGRAM ARE FROM THE KEYBOARD,
000028:                                                                                                  #  FROM INTERNAL PROGRAMS, AND FROM THE UPLINK.
000029:                                                                                                  #     THE LANGUAGE OF COMMUNICATION WITH THE PROGRAM IS A PAIR OF WORDS
000030:                                                                                                  #  KNOWN AS VERB AND NOUN.  EACH OF THESE IS REPRESENTED BY A 2 CHARACTER
000031:                                                                                                  #  DECIMAL NUMBER.  THE VERB CODE INDICATES WHAT ACTION IS TO BE TAKEN, THE
000032:                                                                                                  #  NOUN CODE INDICATES TO WHAT THIS ACTION IS APPLIED.  NOUNS USUALLY
000033:                                                                                                  #  REFER TO A GROUP OF ERASABLE REGISTERS.
000034:
000035:                                                                                                  #  VERBS ARE GROUPED INTO DISPLAYS, LOADS, MONITORS (DISPLAYS THAT ARE
000036:                                                                                                  #  UPDATED ONCE PER SECOND), SPECIAL FUNCTIONS, AND EXTENDED VERBS(THESE
000037:                                                                                                  #  ARE OUTSIDE OF THE DOMAIN OF PINBALL AND CAN BE FOUND UNDER LOG SECTION
000038:                                                                                                  #  :EXTENDED VERBS:).
000039:                                                                                                  #  A LIST OF VERBS AND NOUNS IS GIVEN IN LOG SECTION :ASSEMBLY AND
000040:                                                                                                  #  OPERATION INFORMATION:.
000041:


000076:
000077:                                                                                                  #  CALLING SEQUENCES-
000078:
000079:                                                                                                  #  KEYBOARD:
000080:                                                                                                  #     EACH DEPRESSION OF A KEYBOARD BUTTON ACTIVATES INTERRUPT KEYRUPT1
000081:                                                                                                  #  AND PLACES THE 5 BIT KEY CODE INTO CHANNEL 15.  KEYRUPT1 PLACES THE KEY
000082:                                                                                                  #  CODE INTO MPAC, ENTERS AN EXECUTIVE REQUEST FOR THE KEYBOARD AND DISPLAY
000083:                                                                                                  #  PROGRAM (AT :CHARIN:), AND EXECUTES A RESUME.
000084:
000085:                                                                                                  #  UPLINK:
000086:                                                                                                  #     EACH WORD RECEIVED BY THE UPLINK ACTIVATES INTERRUPT UPRUPT WHICH
000087:                                                                                                  #  PLACES THE 5 BIT KEY CODE INTO MPAC, ENTERS AN EXECUTIVE REQUEST FOR THE
000088:                                                                                                  #  KEYBOARD AND DISPLAY PROGRAM (AT:CHARIN:) AND EXECUTES A RESUME.
000089:
000090:                                                                                                  #  INTERNAL PROGRAMS:
000091:                                                                                                  #     INTERNAL PROGRAMS CALL PINBALL AT :NVSUB: WITH THE DESIRED VERB/NOUN
000092:                                                                                                  #  CODE IN A (LOW 7 BITS FOR NOUN, NEXT 7 BITS FOR VERB).  DETAILS
000093:                                                                                                  #  DESCRIBED ON REMARKS CARDS JUST BEFORE :NVSUB: AND :NVSBWAIT: (SEE
000094:                                                                                                  #  SYMBOL TABLE FOR PAGE NUMBERS).
000095:
000096:                                                                                                  #  NORMAL EXIT MODES -
000097:                                                                                                  #     IF PINBALL WAS CALLED BY EXTERNAL ACTION, THERE ARE FOUR EXITS:
000098:                                                                                                  #           1) ALL BUT (2), (3), AND (4) EXIT DIRECTLY TO ENDOFJOB.
000099:                                                                                                  #           2) EXTENDED VERBS GO TO THE EXTENDED VERB FAN AS PART OF THE
000100:                                                                                                  #              PINBALL EXECUTIVE JOB WITH PRIORITY 30000.  IT IS THE
000101:                                                                                                  #              RESPONSIBILITY OF THE EXTENDED VERB CALLED TO EVENTUALLY
000102:                                                                                                  #              CHANGE PRIORITY (IF NECESSARY) AND DO AN ENDOFJOB.
000103:                                                                                                  #              ALSO PINBALL IS A NOVAC JOB. EBANK SET FOR COMMON.
000104:                                                                                                  #           3) VERB 37. CHANGE OF PROGRAM (MAJOR MODE) CALLS :V37: IN THE
000105:                                                                                                  #              SERVICE ROUTINES AS PART OF THE PINBALL EXEC JOB WITH PRIO
000106:                                                                                                  #              30000.  THE NEW PROGRAM CODE (MAJOR MODE) IS LEFT IN A.
000107:                                                                                                  #           4) KEY RELEASE BUTTON CALLS :PINBRNCH: IN THE DISPLAY INTERFACE
000108:                                                                                                  #              ROUTINES AS PART OF THE PINBALL EXEC JOB WITH PRIO 30000 IF
000109:                                                                                                  #              THE KEY RELEASE LIGHT IS OFF AND :CADRSTOR: IS NOT +0.
000110:
000111:                                                                                                  #     IF PINBALL WAS CALLED BY INTERNAL PROGRAMS, EXIT FROM PINBALL IS BACK
000112:                                                                                                  #  TO CALLING ROUTINE.  DETAILS DESCRIBED IN REMARKS CARDS JUST BEFORE
000113:                                                                                                  #  :NVSUB: AND :NVSBWAIT: (SEE SYMBOL TABLE FOR PAGE NUMBERS).
000114:
000115:
000116:                                                                                                  #  ALARM OR ABORT EXIT MODES-
000117:
000118:                                                                                                  #  EXTERNAL INITIATION:
000119:                                                                                                  #     IF SOME IMPROPER SEQUENCE OF KEY CODES IS DETECTED, THE OPERATOR
000120:                                                                                                  #  ERROR LIGHT IS TURNED ON AND EXIT IS TO :ENDOFJOB:.
000121:
000122:                                                                                                  #  INTERNAL PROGRAM INITIATION:
000123:                                                                                                  #     IF AN ILLEGAL V/N COMBINATION IS ATTEMPTED, AN ABORT IS CAUSED
000124:                                                                                                  #  (WITH OCTAL 01501).
000125:                                                                                                  #     IF A SECOND ATTEMPT IS MADE TO GO TO SLEEP IN PINBALL, AN ABORT IS
000126:                                                                                                  #  CAUSED (WITH OCTAL 01206). THERE ARE TWO WAYS TO GO TO SLEEP IN PINBALL:
000127:                                                                                                  #           1) ENDIDLE OR DATAWAIT.
000128:                                                                                                  #           2) NVSBWAIT, PRENVBSY, OR NVSUBUSY.
000129:
000130:                                                                                                  #  CONDITIONS LEADING TO THE ABOVE ARE DESCRIBED IN FORTHCOMING MIT/IL
000131:                                                                                                  #  E-REPORT DESCRIBING KEYBOARD AND DISPLAY OPERATION FOR 278.
000132:
000133:
000134:                                                                                                  #  OUTPUT-
000135:
000136:                                                                                                  #     INFORMATION TO BE SENT TO THE DISPLAY PANEL IS LEFT IN THE :DSPTAB:
000137:                                                                                                  #  BUFFERS REGISTERS (UNDER EXEC CONTROL).  :DSPOUT: (A PART OF T4RUPT)
000138:                                                                                                  #  HANDLES THE PLACING OF THE :DSPTAB: INFORMATION INTO OUTPUT CHANNEL 10
000139:                                                                                                  #  IN INTERRUPT.
000140:
000141:
000142:                                                                                                  #  ERASABLE INITIALIZATION-
000143:
000144:                                                                                                  #     FRESH START AND RESTART INITIALIZE THE NECESSARY E REGISTERS FOR
000145:                                                                                                  #  PINBALL IN :STARTSUB:.   REGISTERS ARE:  DSPTAB BUFFER, CADRSTOR,
000146:                                                                                                  #  REQRET, CLPASS, DSPLOCK, MONSAVE, MONSAVE1, VERBREG, NOUNREG, DSPLIST,
000147:                                                                                                  #  DSPCOUNT, NOUT.
000148:
000149:                                                                                                  #  A COMPLETE LIST OF ALL THE ERASABLES (BOTH RESERVED AND TEMPORARIES) FOR
000150:                                                                                                  #  PINBALL IS GIVEN BELOW.
000151:
000152:
000153:                                                                                                  #  THE FOLLOWING ARE OF GENERAL INTEREST-
000154:
000155:                                                                                                  #     REMARKS CARDS PRECEDE THE REFERENCED SYMBOL DEFINITION.  SEE SYMBOL
000156:                                                                                                  #  TABLE TO FIND APPROPRIATE PAGE NUMBERS.
000157:
000158:                                                                                                  #     NVSUB   CALLING POINT FOR INTERNAL USE OF PINBALL.
000159:                                                                                                  #               OF RELATED INTEREST   NVSBWAIT
000160:                                                                                                  #                                     NVSUBUSY
000161:                                                                                                  #                                     PRENVBSY
000162:
000163:                                                                                                  #     ENDIDLE   ROUTINE FOR INTERNAL PROGRAMS WISHING TO GO TO SLEEP WHILE
000164:                                                                                                  #               AWAITING OPERATORS RESPONSE.
000165:
000166:                                                                                                  #     DSPMM   ROUTINE BY WHICH AN INTERNAL PROGRAM MAY DISPLAY A DECIMAL
000167:                                                                                                  #             PROGRAM CODE (MAJOR MODE) IN THE PROGRAM (MAJOR MODE) LIGHTS.
000168:                                                                                                  #             (DSPMM DOES NOT DISPLAY DIRECTLY BUT ENTERS EXEC REQUEST
000169:                                                                                                  #             FOR DSPMMJB WITH PRIO 30000 AND RETURNS TO CALLER.)
000170:
000171:                                                                                                  #     BLANKSUB   ROUTINE BY WHICH AN INTERNAL PROGRAM MAY BLANK ANY
000172:                                                                                                  #                COMBINATION OF THE DISPLAY REGISTERS R1, R2, R3.
000173:
000174:                                                                                                  #     JAMTERM   ROUTINES BY WHICH AN INTERNAL PROGRAM MAY PERFORM THE
000175:                                                                                                  #     JAMPROC   TERMINATE (V 34) OR PROCEED (V 33) FUNCTION.
000176:
000177:                                                                                                  #     MONITOR   VERBS FOR PERIODIC ( 1 PER SEC) DISPLAY.
000178:
000179:                                                                                                  #     PLEASE PERFORM, PLEASE MARK SITUATIONS
000180:                                                                                                  #                  REMARKS DESCRIBING HOW AN INTERNAL ROUTINE SHOULD HANDLE
000181:                                                                                                  #                  THESE SITUATIONS CAN BE FOUND JUST BEFORE :NVSUB: (SEE
000182:                                                                                                  #                  SYMBOL TABLE FOR PAGE NUMBER).
000183:
000184:                                                                                                  #     THE NOUN TABLE FORMAT IS DESCRIBED ON A PAGE OF REMARKS CARDS JUST
000185:                                                                                                  #     BEFORE :DSPABC: (SEE SYMBOL TABLE FOR PAGE NUMBER).
000186:
000187:                                                                                                  #     THE NOUN TABLES THEMSELVES ARE FOUND IN LOG SECTION :PINBALL NOUN
000188:                                                                                                  #     TABLES:.
000189:
000190:
000191:                                                                                                  #  FOR FURTHER DETAILS ABOUT OPERATION OF THE KEYBOARD AND DISPLAY SYSTEM
000192:                                                                                                  #  PROGRAM, SEE THE MISSION PLAN AND/OR MIT/IL E-2129
000193:                                                                                                  #  DESCRIBING KEYBOARD AND DISPLAY OPERATION FOR 278.
000194:


000200:
000201:                                                                                                  #  THE FOLLOWING QUOTATION IS PROVIDED THROUGH THE COURTESY OF THE AUTHORS.
000202:
000203:                                                                                                  #        ::IT WILL BE PROVED TO THY FACE THAT THOU HAST MEN ABOUT THEE THAT
000204:                                                                                                  #  USUALLY TALK OF A NOUN AND A VERB, AND SUCH ABOMINABLE WORDS AS NO
000205:                                                                                                  #  CHRISTIAN EAR CAN ENDURE TO HEAR.::
000206:
000207:                                                                                                  #                       HENRY 6, ACT 2, SCENE 4
000208:


000211:
000212:                                                                                                  #  THE FOLLOWING ASSIGNMENTS FOR PINBALL ARE MADE ELSEWHERE
000213:
000214:
000215:                                                                                                  #  RESERVED FOR PINBALL EXECUTIVE ACTION
000216:
000217:                                                                                                  #  DSPCOUNT ERASE                  DISPLAY POSITION INDICATOR
000218:                                                                                                  #  DECBRNCH ERASE                  +DEC, - DEC, OCT INDICATOR
000219:                                                                                                  #  VERBREG  ERASE                  VERB CODE
000220:                                                                                                  #  NOUNREG  ERASE                  NOUN CODE
000221:                                                                                                  #  XREG     ERASE                  R1 INPUT BUFFER
000222:                                                                                                  #  YREG     ERASE                  R2 INPUT BUFFER
000223:                                                                                                  #  ZREG     ERASE                  R3 INPUT BUFFER
000224:                                                                                                  #  XREGLP   ERASE                  LO PART OF XREG (FOR DEC CONV ONLY)
000225:                                                                                                  #  YREGLP   ERASE                  LO PART OF YREG (FOR DEC CONV ONLY)
000226:                                                                                                  #  HITEMOUT =      YREGLP          TEMP FOR DISPLAY OF HRS, MIN, SEC
000227:                                                                                                  #                                           MUST = LOTEMOUT-1.
000228:                                                                                                  #  ZREGLP   ERASE                  LO PART OF ZREG (FOR DEC CONV ONLY)
000229:                                                                                                  #  LOTEMOUT =      ZREGLP          TEMP FOR DISPLAY OF HRS, MIN, SEC
000230:                                                                                                  #                                           MUST = HITEMOUT+1.
000231:                                                                                                  #  MODREG   ERASE                  MODE CODE
000232:                                                                                                  #  DSPLOCK  ERASE                  KEYBOARD/SUBROUTINE CALL INTERLOCK
000233:                                                                                                  #  REQRET   ERASE                  RETURN REGISTER FOR LOAD
000234:                                                                                                  #  LOADSTAT ERASE                  STATUS INDICATOR FOR LOADTST
000235:                                                                                                  #  CLPASS   ERASE                  PASS INDICATOR CLEAR
000236:                                                                                                  #  NOUT     ERASE                  ACTIVITY COUNTER FOR DSPTAB
000237:                                                                                                  #  NOUNCADR ERASE                  MACHINE CADR FOR NOUN
000238:                                                                                                  #  MONSAVE  ERASE                  N/V CODE FOR MONITOR. (= MONSAVE1-1)
000239:                                                                                                  #  MONSAVE1 ERASE                  NOUNCADR FOR MONITOR (MATBS) =MONSAVE+1
000240:                                                                                                  #  MONSAVE2 ERASE                  NVMONOPT OPTIONS
000241:                                                                                                  #  DSPTAB   ERASE          +13D    0-10,DISPLAY PANEL BUFFER.11-13,C RELAYS
000242:                                                                                                  #  CADRSTOR ERASE                  ENDIDLE STORAGE
000243:                                                                                                  #  NVQTEM   ERASE                  NVSUB STORAGE FOR CALLING ADDRESS
000244:                                                                                                  #                                  MUST = NVBNKTEM-1
000245:                                                                                                  #  NVBNKTEM ERASE                  NVSUB STORAGE FOR CALLING BANK
000246:                                                                                                  #                                  MUST = NVQTEM+1
000247:                                                                                                  #  VERBSAVE ERASE                  NEEDED FOR RECYCLE
000248:                                                                                                  #  DSPLIST  ERASE                  WAITING REG FOR DSP SYST INTERNAL USE
000249:                                                                                                  #  EXTVBACT REASE                  EXTENDED VERB ACTIVITY INTERLOCK
000250:                                                                                                  #  DSPTEM1  ERASE          +2      BUFFER STORAGE AREA 1 (MOSTLY FOR TIME)
000251:                                                                                                  #  DSPTEM2  ERASE          +2      BUFFER STORAGE AREA 2 (MOSTLY FOR DEG)
000252:                                                                                                  #  END OF ERASABLES RESERVED FOR PINBALL EXECUTIVE ACTION
000253:
000254:
000255:                                                                                                  #  TEMPORARIES FOR PINBALL EXECUTIVE ACTION
000256:
000257:                                                                                                  #  DSEXIT   =      INTB15+         RETURN FOR DSPIN
000258:                                                                                                  #  EXITEM   =      INTB15+         RETURN FOR SCALE FACTOR ROUTINE SELECT
000259:                                                                                                  #  BLANKRET =      INTB15+         RETURN FOR 2BLANK
000260:
000261:                                                                                                  #  WRDRET   =      INTBIT15        RETURN FOR 5BLANK
000262:                                                                                                  #  WDRET    =      INTBIT15        RETURN FOR DSPWD
000263:                                                                                                  #  DECRET   =      INTBIT15        RETURN FOR PUTCOM(DEC LOAD)
000264:                                                                                                  #  21/22REG =      INTBIT15        TEMP FOR CHARIN
000265:
000266:                                                                                                  #  UPDATRET =      POLISH          RETURN FOR UPDATNN, UPDATVB
000267:                                                                                                  #  CHAR     =      POLISH          TEMP FOR CHARIN
000268:                                                                                                  #  ERCNT    =      POLISH          COUNTER FOR ERROR LIGHT RESET
000269:                                                                                                  #  DECOUNT  =      POLISH          COUNTER FOR SCALING AND DISPLAY (DEC)
000270:
000271:                                                                                                  #  SGNON    =      VBUF            TEMP FOR +,- ON
000272:                                                                                                  #  NOUNTEM  =      VBUF            COUNTER FOR MIXNOUN FETCH
000273:                                                                                                  #  DISTEM   =      VBUF            COUNTER FOR OCTAL DISPLAY VERBS
000274:                                                                                                  #  DECTEM   =      VBUF            COUNTER FOR FETCH (DEC DISPLAY VERBS)
000275:
000276:                                                                                                  #  SGNOFF   =      VBUF    +1      TEMP FOR +,- ON
000277:                                                                                                  #  NVTEMP   =      VBUF    +1      TEMP FOR NVSUB
000278:                                                                                                  #  SFTEMP1  =      VBUF    +1      STORAGE FOR SF CONST HI PART(=SFTEMP2-1)
000279:                                                                                                  #  HITEMIN  =      VBUF    +1      TEMP FOR LOAD OF HRS, MIN, SEC
000280:                                                                                                  #                                           MUST = LOTEMIN-1.
000281:                                                                                                  #  CODE     =      VBUF    +2      FOR DSPIN
000282:                                                                                                  #  SFTEMP2  =      VBUF    +2      STORAGE FOR SF CONST LO PART(=SFTEMP1+1)
000283:                                                                                                  #  LOTEMIN  =      VBUF    +2      TEMP FOR LOAD OF HRS, MIN, SEC
000284:                                                                                                  #                                           MUST = HITEMIN+1.
000285:                                                                                                  #  MIXTEMP  =      VBUF    +3      FOR MIXNOUN DATA
000286:                                                                                                  #  SIGNRET  =      VBUF    +3      RETURN FOR +,- ON
000287:
000288:                                                                                                  #  ALSO MIXTEMP+1 = VBUF+4, MIXTEMP+2 = VBUF+5.
000289:
000290:                                                                                                  #  ENTRET   =      DOTINC          EXIT FROM ENTER
000291:
000292:                                                                                                  #  WDCNT    =      DOTRET          CHAR COUNTER FOR DSPWD
000293:                                                                                                  #  INREL    =      DOTRET          INPUT BUFFER SELECTOR ( X,Y,Z, REG )
000294:
000295:                                                                                                  #  DSPMMTEM =      MATINC          DSPCOUNT SAVE FOR DSPMM
000296:                                                                                                  #  MIXBR    =      MATINC          INDICATOR FOR MIXED OR NORMAL NOUN
000297:
000298:                                                                                                  #  TEM1     ERASE                  EXEC TEMP
000299:                                                                                                  #  DSREL    =      TEM1            REL ADDRESS FOR DSPIN
000300:
000301:                                                                                                  #  TEM2     ERASE                  EXEC TEMP
000302:                                                                                                  #  DSMAG    =      TEM2            MAGNITUDE STORE FOR DSPIN
000303:                                                                                                  #  IDADDTEM =      TEM2            MIXNOUN INDIRECT ADDRESS STORAGE
000304:
000305:                                                                                                  #  TEM3     ERASE                  EXEC TEMP
000306:                                                                                                  #  COUNT    =      TEM3            FOR DSPIN
000307:
000308:                                                                                                  #  TEM4     ERASE                  EXEC TEMP
000309:                                                                                                  #  LSTPTR   =      TEM4            LIST POINTER FOR GRABUSY
000310:                                                                                                  #  RELRET   =      TEM4            RETURN FOR RELDSP
000311:                                                                                                  #  FREERET  =      TEM4            RETURN FOR FREEDSP
000312:                                                                                                  #  DSPWDRET =      TEM4            RETURN FOR DSPSIGN
000313:                                                                                                  #  SEPSCRET =      TEM4            RETURN FOR SEPSEC
000314:                                                                                                  #  SEPMNRET =      TEM4            RETURN FOR SEPMIN
000315:
000316:                                                                                                  #  TEM5     ERASE                  EXEC TEMP
000317:                                                                                                  #  NOUNADD  =      TEM5            TEMP STORAGE FOR NOUN ADDRESS
000318:
000319:                                                                                                  #  NNADTEM  ERASE                  TEMP FOR NOUN ADDRESS TABLE ENTRY
000320:                                                                                                  #  NNTYPTEM ERASE                  TEMP FOR NOUN TYPE TABLE ENTRY
000321:                                                                                                  #  IDAD1TEM ERASE                  TEMP FOR INDIR ADRESS TABLE ENTRY(MIXNN)
000322:                                                                                                  #                                  MUST = IDAD2TEM-1, = IDAD3TEM-2.
000323:                                                                                                  #  IDAD2TEM ERASE                  TEMP FOR INDIR ADRESS TABLE ENTRY(MIXNN)
000324:                                                                                                  #                                  MUST = IDAD1TEM+1, = IDAD3TEM-1.
000325:                                                                                                  #  IDAD3TEM ERASE                  TEMP FOR INDIR ADRESS TABLE ENTRY(MIXNN)
000326:                                                                                                  #                                  MUST = IDAD1TEM+2, = IDAD2TEM+1.
000327:                                                                                                  #  RUTMXTEM ERASE                  TEMP FOR SF ROUT TABLE ENTRY(MIXNN ONLY)
000328:                                                                                                  #  END OF TEMPORARIES FOR PINBALL EXECUTIVE ACTION
000329:
000330:
000331:                                                                                                  #  ADDITIONAL TEMPORARIES FOR PINBALL EXECUTIVE ACTION
000332:
000333:                                                                                                  #  MPAC, THRU MPAC +6
000334:                                                                                                  #  BUF, +1, +2
000335:                                                                                                  #  BUF2, +1, +2
000336:                                                                                                  #  MPTEMP
000337:                                                                                                  #  ADDRWD
000338:                                                                                                  #    END OF ADDITIONAL TEMPS FOR PINBALL EXEC ACTION
000339:
000340:
000341:                                                                                                  #  RESERVED FOR PINBALL INTERRUPT ACTION
000342:
000343:                                                                                                  #  DSPCNT   ERASE                  COUNTER FOR DSPOUT
000344:                                                                                                  #  UPLOCK   ERASE                  BIT1 = UPLINK INTERLOCK (ACTIVATED BY
000345:                                                                                                  #                                                                          RECEPTION OF A BAD MESSAGE IN UPLINK)
000346:                                                                                                  #  END OF ERASABLES RESERVED FOR PINBALL INTERRUPT ACTION
000347:
000348:
000349:                                                                                                  #  TEMPORARIES FOR PINBALL INTERRUPT ACTION
000350:
000351:                                                                                                  #  KEYTEMP1 =      WAITEXIT        TEMP FOR KEYRUPT, UPRUPT
000352:                                                                                                  #  DSRUPTEM =      WAITEXIT        TEMP FOR DSPOUT
000353:                                                                                                  #  KEYTEMP2 =      RUPTAGN         TEMP FOR KEYRUPT, UPRUPT
000354:                                                                                                  #  END OF TEMPORARIES FOR PINBALL INTERRUPT ACTION
000355:
000356:                                                                                                  #  THE INPUT CODES ASSUMED FOR THE KEYBOARD ARE,
000357:                                                                                                  #  0        10000
000358:                                                                                                  #  1        00001
000359:                                                                                                  #  9        01001
000360:                                                                                                  #  VERB     10001
000361:                                                                                                  #  ERROR RES10010
000362:                                                                                                  #  KEY RLSE 11001
000363:                                                                                                  #  +        11010
000364:                                                                                                  #  -        11011
000365:                                                                                                  #  ENTER    11100
000366:                                                                                                  #  CLEAR    11110
000367:                                                                                                  #  NOUN     11111


000369:
000370:
000371:                                                                                                  #  OUTPUT FORMAT FOR DISPLAY PANEL. SET OUT0 TO  AAAABCCCCCDDDDD.
000372:                                                                                                  #  A-S SELECT A RELAYWORD. THIS DETERMINES WHICH PAIR OF CHARACTERS ARE
000373:                                                                                                  #  ENERGIZED.
000374:                                                                                                  #  B FOR SPECIAL RELAYS SUCH AS SIGNS ETC.
000375:                                                                                                  #  C-S  5 BIT RELAY CODE FOR LEFT CHAR OF PAIR SELECTED BY RELAYWORD
000376:                                                                                                  #  D-S  5 BIT RELAY CODE FOR RIGHTCHAR OF PAIR SELECTED BY RELAYWORD.
000377:
000378:                                                                                                  #  THE PANEL APPEARS AS FOLLOWS,
000379:                                                                                                  #  MD1    MD2                         (MAJOR MODE)
000380:                                                                                                  #  VD1    VD2 (VERB)    ND1    ND2    (NOUN)
000381:                                                                                                  #  R1D1   R1D2   R1D3   R1D4   R1D5   (R1)
000382:                                                                                                  #  R2D1   R2D2   R2D3   R2D4   R2D5   (R2)
000383:                                                                                                  #  R3D1   R3D2   R3D3   R3D4   R3D5   (R3)
000384:
000385:                                                                                                  #  EACH OF THESE IS GIVEN A DSPCOUNT NUMBER FOR USE WITHIN COMPUTATION ONLY
000386:                                                                                                  #  MD1   25     R2D1  11         ALL ARE OCTAL
000387:                                                                                                  #  MD2   24     R2D2  10
000388:                                                                                                  #  VD1   23     R2D3   7
000389:                                                                                                  #  VD2   22     R2D4   6
000390:                                                                                                  #  ND1   21     R2D5   5
000391:                                                                                                  #  ND2   20     R3D1   4
000392:                                                                                                  #  R1D1  16     R3D2   3
000393:                                                                                                  #  R1D2  15     R3D3   2
000394:                                                                                                  #  R1D3  14     R3D4   1
000395:                                                                                                  #  R1D4  13     R3D5   0
000396:                                                                                                  #  R1D5  12
000397:
000398:
000399:                                                                                                  #  THERE IS AN 11 REGISTER TABLE (DSPTAB) FOR THE DISPLAY PANEL.
000400:
000401:                                                                                                  #  DSPTAB RELAYWD       BIT11     BITS 10-6     BITS 5-1
000402:                                                                                                  #  RELADD
000403:                                                                                                  #  10     1011                    MD1  (25)     MD2  (24)
000404:                                                                                                  #  9      1010                    VD1  (23)     VD2  (22)
000405:                                                                                                  #  8      1001                    ND1  (21)     ND2  (20)
000406:                                                                                                  #  7      1000                                  R1D1 (16)
000407:                                                                                                  #  6      0111          +R1       R1D2 (15)     R1D3 (14)
000408:                                                                                                  #  5      0110          -R1       R1D4 (13)     R1D5 (12)
000409:                                                                                                  #  4      0101          +R2       R2D1 (11)     R2D2 (10)
000410:                                                                                                  #  3      0100          -R2       R2D3 (7)      R2D4 (6)
000411:                                                                                                  #  2      0011                    R2D5 (5)      R3D1 (4)
000412:                                                                                                  #  1      0010          +R3       R3D2 (3)      R3D3 (2)
000413:                                                                                                  #  0      0001          -R3       R3D4 (1)      R3D5 (0)
000414:                                                                                                  #         0000   NO RELAYWORD
000415:
000416:
000417:                                                                                                  #  THE 5 BIT OUTPUT RELAY CODES ARE:
000418:                                                                                                  #  BLANK      00000
000419:                                                                                                  #  0          10101
000420:                                                                                                  #  1          00011
000421:                                                                                                  #  2          11001
000422:                                                                                                  #  3          11011
000423:                                                                                                  #  4          01111
000424:                                                                                                  #  5          11110
000425:                                                                                                  #  6          11100
000426:                                                                                                  #  7          10011
000427:                                                                                                  #  8          11101
000428:                                                                                                  #  9          11111
000429:
000430:
000431:                                                                                                  #  OUTPUT BITS USED BY PINBALL:
000432:
000433:                                                                                                  #             KEY RELEASE LIGHT    - BIT 5 OF CHANNEL 11
000434:                                                                                                  #             VERB/NOUN FLASH      - BIT 6 OF CHANNEL 11
000435:                                                                                                  #             OPERATOR ERROR LIGHT - BIT 7 OF CHANNEL 11
000436:


000440:
000441:                                                                                                  #  START OF EXECUTIVE SECTION OF PINBALL
000442:
000443: 40,2212                                           BANK     40
000444: 40,2000                                           SETLOC   PINBALL1
000445: 40,2000                                           BANK
000446:
000447: 40,2212                                           COUNT*   $$/PIN
000448: 40,2212           35026        CHARIN             CAF      ONE                                   #  BLOCK DISPLAY SYST
000449: 40,2213           57013                           XCH      DSPLOCK                               #  MAKE DSP SYST BUSY, BUT SAVE OLD
000450: 40,2214           54115                           TS       21/22REG                              #  C(DSPLOCK) FOR ERROR LIGHT RESET.
000451: 40,2215           11043                           CCS      CADRSTOR                              #  ALL KEYS EXCEPT ER TURN ON KR LITE IF
000452: 40,2216           02220                           TC       +2                                    #  CADRSTOR IS FULL.  THIS REMINDS OPERATOR
000453: 40,2217           02225                           TC       CHARIN2                               #  TO RE-ESTABLISH A FLASHING DISPLAY
000454: 40,2220           42271                           CS       ELRCODE1                              #  WHICH HE HAS OBSCURED WITH DISPLAYS OF
000455: 40,2221           60154                           AD       MPAC                                  #  HIS OWN (SEE REMARKS PRECEDING ROUTINE
000456: 40,2222           00006                           EXTEND                                         #  VBRELDSP).
000457: 40,2223           12225                           BZF      CHARIN2
000458: 40,2224           04406                           TC       RELDSPON
000459: 40,2225           56154        CHARIN2            XCH      MPAC
000460: 40,2226           54117                           TS       CHAR
000461: 40,2227           50000                           INDEX    A
000462: 40,2230           02231                           TC       +1                                    #  INPUT CODE     FUNCTION
000463: 40,2231           03537                           TC       CHARALRM                              #  0
000464: 40,2232           02310                           TC       NUM                                   #  1
000465: 40,2233           02310                           TC       NUM                                   #  2
000466: 40,2234           02310                           TC       NUM                                   #  3
000467: 40,2235           02310                           TC       NUM                                   #  4
000468: 40,2236           02310                           TC       NUM                                   #  5
000469: 40,2237           02310                           TC       NUM                                   #  6
000470: 40,2240           02310                           TC       NUM                                   #  7
000471: 40,2241           02274                           TC       89TEST                                #  10                 8
000472: 40,2242           02274                           TC       89TEST                                #  11                 9
000473: 40,2243           03537                           TC       CHARALRM                              #  12
000474: 40,2244           03537                           TC       CHARALRM                              #  13
000475: 40,2245           03537                           TC       CHARALRM                              #  14
000476: 40,2246           03537                           TC       CHARALRM                              #  15
000477: 40,2247           03537                           TC       CHARALRM                              #  16
000478: 40,2250           03537                           TC       CHARALRM                              #  17
000479: 40,2251           02306                           TC       NUM        -2                         #  20                 0
000480: 40,2252           02467                           TC       VERB                                  #  21                 VERB
000481: 40,2253           03705                           TC       ERROR                                 #  22                 ERROR LIGHT RESET
000482: 40,2254           03537                           TC       CHARALRM                              #  23
000483: 40,2255           03537                           TC       CHARALRM                              #  24
000484: 40,2256           03537                           TC       CHARALRM                              #  25
000485: 40,2257           03537                           TC       CHARALRM                              #  26
000486: 40,2260           03537                           TC       CHARALRM                              #  27
000487: 40,2261           03537                           TC       CHARALRM                              #  30
000488: 40,2262           03563                           TC       VBRELDSP                              #  31                 KEY RELEASE
000489: 40,2263           02522                           TC       POSGN                                 #  32                 +
000490: 40,2264           02507                           TC       NEGSGN                                #  33                 -
000491: 40,2265           02272                           TC       ENTERJMP                              #  34                 ENTER
000492: 40,2266           03537                           TC       CHARALRM                              #  35
000493: 40,2267           02602                           TC       CLEAR                                 #  36                 CLEAR
000494: 40,2270           02503                           TC       NOUN                                  #  37                 NOUN
000495:
000496:
000497: 40,2271           00022        ELRCODE1           OCT      22
000498: 40,2272           04674        ENTERJMP           TC       POSTJUMP
000499: 40,2273           62002                           CADR     ENTER
000500:
000501: 40,2274           11000        89TEST             CCS      DSPCOUNT
000502: 40,2275           02301                           TC       +4                                    #  +
000503: 40,2276           02301                           TC       +3                                    #  +0
000504: 40,2277           05225                           TC       ENDOFJOB                              #  - BLOCK DATA IN IF DSPCOUNT IS - OR -0
000505: 40,2300           05225                           TC       ENDOFJOB                              #  -0
000506: 40,2301           36221                           CAF      THREE
000507: 40,2302           71001                           MASK     DECBRNCH
000508: 40,2303           10000                           CCS      A
000509: 40,2304           02310                           TC       NUM                                   #  IF DECBRNCH IS +, 8 OR 9 OK
000510: 40,2305           03537                           TC       CHARALRM                              #  IF DECBRNCH IS +0, REJECT 8 OR 9
000511:
000512:
000513:                                                                                                  #  NUM ASSEMBLES OCTAL 3 BITS AT A TIME. FOR DECIMAL IT CONVERTS INCOMING
000514:                                                                                                  #  WORD AS A FRACTION, KEEPING RESULTS TO DP.
000515:                                                                                                  #  OCTAL RESULTS ARE LEFT IN XREG, YREG, OR ZREG. HI PART OF DEC IN XREG,
000516:                                                                                                  #  YREG, ZREG. THE LOW PARTS IN XREGLP, YREGLP, OR ZREGLP)
000517:                                                                                                  #  DECBRNCH IS LEFT AT +0 FOR OCT, +1 FOR + DEC, +2 FOR - DEC.
000518:                                                                                                  #  IF DSPCOUNT WAS LEFT -, NO MORE DATA IS ACCEPTED.
000519:
000520: 40,2306           35030                           CAF      ZERO
000521: 40,2307           54117                           TS       CHAR
000522: 40,2310           11000        NUM                CCS      DSPCOUNT
000523: 40,2311           02315                           TC       +4                                    #  +
000524: 40,2312           02315                           TC       +3                                    #  +0
000525: 40,2313           02314                           TC       +1                                    #  -BLOCK DATA IN IF DSPCOUNT IS -
000526: 40,2314           05225                           TC       ENDOFJOB                              #  -0
000527: 40,2315           02437                           TC       GETINREL
000528: 40,2316           11016                           CCS      CLPASS                                #  IF CLPASS IS + OR +0, MAKE IT +0.
000529: 40,2317           35030                           CAF      ZERO
000530: 40,2320           55016                           TS       CLPASS
000531: 40,2321           02322                           TC       +1
000532: 40,2322           50117                           INDEX    CHAR
000533: 40,2323           34072                           CAF      RELTAB
000534: 40,2324           74360                           MASK     LOW5
000535: 40,2325           54124                           TS       CODE
000536: 40,2326           31000                           CA       DSPCOUNT
000537: 40,2327           54143                           TS       COUNT
000538: 40,2330           03435                           TC       DSPIN
000539: 40,2331           36221                           CAF      THREE
000540: 40,2332           71001                           MASK     DECBRNCH
000541: 40,2333           10000                           CCS      A                                     #  +0, OCTAL.  +1, + DEC.  +2, - DEC.
000542: 40,2334           02345                           TC       DECTOBIN                              #  +
000543: 40,2335           50137                           INDEX    INREL                                 #  +0 OCTAL
000544: 40,2336           57002                           XCH      VERBREG
000545: 40,2337           54022                           TS       CYL
000546: 40,2340           40022                           CS       CYL
000547: 40,2341           40022                           CS       CYL
000548: 40,2342           56022                           XCH      CYL
000549: 40,2343           60117                           AD       CHAR
000550: 40,2344           02362                           TC       ENDNMTST
000551: 40,2345           50137        DECTOBIN           INDEX    INREL
000552: 40,2346           57002                           XCH      VERBREG
000553: 40,2347           54154                           TS       MPAC                                  #  SUM X 2EXP-14 IN MPAC
000554: 40,2350           35030                           CAF      ZERO
000555: 40,2351           54155                           TS       MPAC       +1
000556: 40,2352           34375                           CAF      TEN                                   #  10 X 2EXP-14
000557: 40,2353           07261                           TC       SHORTMP                               #  10SUM X 2EXP-28 IN MPAC, MPAC+1
000558: 40,2354           56155                           XCH      MPAC       +1
000559: 40,2355           60117                           AD       CHAR
000560: 40,2356           54155                           TS       MPAC       +1
000561: 40,2357           02362                           TC       ENDNMTST                              #  NO OF
000562: 40,2360           26154                           ADS      MPAC                                  #  OF MUST BE 5TH CHAR
000563: 40,2361           02400                           TC       DECEND
000564: 40,2362           50137        ENDNMTST           INDEX    INREL
000565: 40,2363           55002                           TS       VERBREG
000566: 40,2364           41000                           CS       DSPCOUNT
000567: 40,2365           50137                           INDEX    INREL
000568: 40,2366           62430                           AD       CRITCON
000569: 40,2367           00006                           EXTEND
000570: 40,2370           12372                           BZF      ENDNUM                                #  -0, DSPCOUNT = CRITCON
000571: 40,2371           02425                           TC       MORNUM                                #  - , DSPCOUNT G/ CRITCON
000572: 40,2372           36221        ENDNUM             CAF      THREE
000573: 40,2373           71001                           MASK     DECBRNCH
000574: 40,2374           10000                           CCS      A
000575: 40,2375           02400                           TC       DECEND
000576: 40,2376           41000        ENDALL             CS       DSPCOUNT                              #  BLOCK NUMIN BY PLACING DSPCOUNT
000577: 40,2377           02426                           TC       MORNUM     +1                         #  NEGATIVELY
000578: 40,2400           45026        DECEND             CS       ONE
000579: 40,2401           60137                           AD       INREL
000580: 40,2402           00006                           EXTEND
000581: 40,2403           62376                           BZMF     ENDALL                                #  IF INREL=0,1(VBREG,NNREG), LEAVE WHOLE
000582: 40,2404           07057                           TC       DMP                                   #  IF INREL=2,3,4(R1,R2,R3),CONVERT TO FRAC
000583:                                                                                                  #  MULT SUM X 2EXP-28 IN MPAC, MPAC+1 BY
000584: 40,2405           02435                           ADRES    DECON                                 #  2EXP14/10EXP5. GIVES(SUM/10EXP5)X2EXP-14
000585: 40,2406           36221                           CAF      THREE                                 #  IN MPAC, +1, +2.
000586: 40,2407           71001                           MASK     DECBRNCH
000587: 40,2410           50000                           INDEX    A
000588: 40,2411           02411                           TC       +0
000589: 40,2412           02416                           TC       +DECSGN
000590: 40,2413           00006                           EXTEND                                         #  - CASE
000591: 40,2414           40156                           DCS      MPAC       +1
000592: 40,2415           52156                           DXCH     MPAC       +1
000593: 40,2416           56156        +DECSGN            XCH      MPAC       +2
000594: 40,2417           50137                           INDEX    INREL
000595: 40,2420           55005                           TS       XREGLP     -2
000596: 40,2421           56155                           XCH      MPAC       +1
000597: 40,2422           50137                           INDEX    INREL
000598: 40,2423           55002                           TS       VERBREG
000599: 40,2424           02376                           TC       ENDALL
000600: 40,2425           11000        MORNUM             CCS      DSPCOUNT                              #  DECREMENT DSPCOUNT
000601: 40,2426           55000                           TS       DSPCOUNT
000602: 40,2427           05225                           TC       ENDOFJOB
000603:
000604: 40,2430           00022        CRITCON            OCT      22                                    #  (DEC 18)
000605: 40,2431           00020                           OCT      20                                    #  (DEC 16)
000606: 40,2432           00012                           OCT      12                                    #  (DEC 10)
000607: 40,2433           00005                           OCT      5
000608: 40,2434           00000                           OCT      0
000609:
000610: 40,2435           05174 13261  DECON              2DEC     1          E-5        B14             #  2EXP14/10EXP5 = .16384 DEC
000611:
000612:
000613:                                                                                                  #  GETINREL GETS PROPER DATA REG REL ADDRESS FOR CURRENT C(DSPCOUNT) AND
000614:                                                                                                  #  PUTS IN INTO INREL. +0 VERBREG, 1 NOUNREG, 2 XREG, 3 YREG, 4 ZREG.
000615:
000616: 40,2437           51000        GETINREL           INDEX    DSPCOUNT
000617: 40,2440           32443                           CAF      INRELTAB
000618: 40,2441           54137                           TS       INREL                                 #  (A TEMP, REG)
000619: 40,2442           00002                           TC       Q
000620:
000621: 40,2443           00004        INRELTAB           OCT      4                                     #  R3D5 (DSPCOUNT = 0)
000622: 40,2444           00004                           OCT      4                                     #  R3D4           =(1)
000623: 40,2445           00004                           OCT      4                                     #  R3D3           =(2)
000624: 40,2446           00004                           OCT      4                                     #  R3D2           =(3)
000625: 40,2447           00004                           OCT      4                                     #  R3D1           =(4)
000626: 40,2450           00003                           OCT      3                                     #  R2D5           =(5)
000627: 40,2451           00003                           OCT      3                                     #  R2D4           =(6)
000628: 40,2452           00003                           OCT      3                                     #  R2D3           =(7)
000629: 40,2453           00003                           OCT      3                                     #  R2D2           =(8D)
000630: 40,2454           00003                           OCT      3                                     #  R2D1           =(9D)
000631: 40,2455           00002                           OCT      2                                     #  R1D5           =(10D)
000632: 40,2456           00002                           OCT      2                                     #  R1D4           =(11D)
000633: 40,2457           00002                           OCT      2                                     #  R1D3           =(12D)
000634: 40,2460           00002                           OCT      2                                     #  R1D2           =(13D)
000635: 40,2461           00002                           OCT      2                                     #  R1D1           =(14D)
000636: 40,2462           05723                           TC       CCSHOLE                               #  NO DSPCOUNT NUMBER = 15D
000637: 40,2463           00001                           OCT      1                                     #  ND2            =(16D)
000638: 40,2464           00001                           OCT      1                                     #  ND1            =(17D)
000639: 40,2465           00000                           OCT      0                                     #  VD2            =(18D)
000640: 40,2466           00000                           OCT      0                                     #  VD1            =(19D)
000641:
000642: 40,2467           35030        VERB               CAF      ZERO
000643: 40,2470           55002                           TS       VERBREG
000644: 40,2471           34372                           CAF      VD1
000645: 40,2472           55000        NVCOM              TS       DSPCOUNT
000646: 40,2473           02714                           TC       2BLANK
000647: 40,2474           35026                           CAF      ONE
000648: 40,2475           55001                           TS       DECBRNCH                              #  SET FOR DEC V/N CODE
000649: 40,2476           35030                           CAF      ZERO
000650: 40,2477           55014                           TS       REQRET                                #  SET FOR ENTPAS0
000651: 40,2500           34231                           CAF      ENDINST                               #  IF DSPALARM OCCURS BEFORE FIRST ENTPAS0
000652: 40,2501           54136                           TS       ENTRET                                #  OR NVSUB, ENTRET MUST ALREADY BE SET
000653:                                                                                                  #  TO TC ENDOFJOB
000654: 40,2502           05225                           TC       ENDOFJOB
000655: 40,2503           35030        NOUN               CAF      ZERO
000656: 40,2504           55003                           TS       NOUNREG
000657: 40,2505           34373                           CAF      ND1                                   #  ND1, OCT 21 (DEC 17)
000658: 40,2506           02472                           TC       NVCOM
000659:
000660:
000661: 40,2507           02561        NEGSGN             TC       SIGNTEST
000662: 40,2510           02546                           TC       -ON
000663: 40,2511           35025                           CAF      TWO
000664: 40,2512           50137        BOTHSGN            INDEX    INREL                                 #  SET DEC COMP BIT TO 1 (IN DECBRNCH)
000665: 40,2513           65020                           AD       BIT7                                  #  BIT 5 FOR R1,  BIT 4 FOR R2,
000666: 40,2514           27001                           ADS      DECBRNCH                              #  BIT 3 FOR R3.
000667: 40,2515           11016        FIXCLPAS           CCS      CLPASS                                #  IF CLPASS IS + OR +0, MAKE IT +0.
000668: 40,2516           35030                           CAF      ZERO
000669: 40,2517           55016                           TS       CLPASS
000670: 40,2520           02521                           TC       +1
000671: 40,2521           05225                           TC       ENDOFJOB
000672:
000673: 40,2522           02561        POSGN              TC       SIGNTEST
000674: 40,2523           02526                           TC       +ON
000675: 40,2524           35026                           CAF      ONE
000676: 40,2525           02512                           TC       BOTHSGN
000677:
000678: 40,2526           22002        +ON                LXCH     Q
000679: 40,2527           02437                           TC       GETINREL
000680: 40,2530           50137                           INDEX    INREL
000681: 40,2531           32554                           CAF      SGNTAB     -2
000682: 40,2532           54123                           TS       SGNOFF
000683: 40,2533           65026                           AD       ONE
000684: 40,2534           54122                           TS       SGNON
000685: 40,2535           35030        SGNCOM             CAF      ZERO
000686: 40,2536           54124                           TS       CODE
000687: 40,2537           56123                           XCH      SGNOFF
000688: 40,2540           03517                           TC       11DSPIN
000689: 40,2541           35014                           CAF      BIT11
000690: 40,2542           54124                           TS       CODE
000691: 40,2543           56122                           XCH      SGNON
000692: 40,2544           03517                           TC       11DSPIN
000693: 40,2545           00001                           TC       L
000694: 40,2546           22002        -ON                LXCH     Q
000695: 40,2547           02437                           TC       GETINREL
000696: 40,2550           50137                           INDEX    INREL
000697: 40,2551           32554                           CAF      SGNTAB     -2
000698: 40,2552           54122                           TS       SGNON
000699: 40,2553           65026                           AD       ONE
000700: 40,2554           54123                           TS       SGNOFF
000701: 40,2555           02535                           TC       SGNCOM
000702:
000703: 40,2556           00005        SGNTAB             OCT      5                                     #  -R1
000704: 40,2557           00003                           OCT      3                                     #  -R2
000705: 40,2560           00000                           OCT      0                                     #  -R3
000706:
000707:
000708: 40,2561           22002        SIGNTEST           LXCH     Q                                     #  ALLOWS +,- ONLY WHEN DSPCOUNT=R1D1,
000709: 40,2562           36221                           CAF      THREE                                 #  R2D1, OR R3D1. ALLOWS ONLY FIRST OF
000710: 40,2563           71001                           MASK     DECBRNCH                              #  CONSECUTIVE +/- CHARACTERS.
000711: 40,2564           10000                           CCS      A                                     #  IF LOW2 BITS OF DECBRNCH NOT= 0, SIGN
000712: 40,2565           05225                           TC       ENDOFJOB                              #  FOR THIS WORD ALREADY IN. REJECT.
000713: 40,2566           44331                           CS       R1D1
000714: 40,2567           02575                           TC       SGNTST1
000715: 40,2570           44332                           CS       R2D1
000716: 40,2571           02575                           TC       SGNTST1
000717: 40,2572           44333                           CS       R3D1
000718: 40,2573           02575                           TC       SGNTST1
000719: 40,2574           05225                           TC       ENDOFJOB                              #  NO MATCH FOUND. SIGN ILLEGAL
000720: 40,2575           61000        SGNTST1            AD       DSPCOUNT
000721: 40,2576           00006                           EXTEND
000722: 40,2577           12601                           BZF      +2                                    #  MATCH FOUND
000723: 40,2600           00002                           TC       Q
000724: 40,2601           00001                           TC       L                                     #  SIGN LEGAL
000725:
000726:
000727:                                                                                                  #  CLEAR BLANKS WHICH R1, R2, R3 IS CURRENT OR LAST TO BE DISPLAYED(PERTINE
000728:                                                                                                  #  NT XREG,YREG,ZREG IS CLEARED). SUCCESSIVE CLEARS TAKE CARE OF EACH RX
000729:                                                                                                  #  L/ RC UNTIL R1 IS DONE. THEN NO FURTHER ACTION
000730:
000731:                                                                                                  #  THE SINGLE COMPONENT LOAD VERBS ALLOW ONLY THE SINGLE RC THAT IS
000732:                                                                                                  #  APPROPRIATE TO BE CLEARED.
000733:
000734:                                                                                                  #  CLPASS   +0  PASS0, CAN BE BACKED UP
000735:                                                                                                  #           +NZ  HIPASS, CAN BE BACKED UP
000736:                                                                                                  #           -NZ  PASS0, CANNOT BE BACKED UP
000737:
000738: 40,2602           11000        CLEAR              CCS      DSPCOUNT
000739: 40,2603           65026                           AD       ONE
000740: 40,2604           02606                           TC       +2
000741: 40,2605           65026                           AD       ONE
000742: 40,2606           50000                           INDEX    A                                     #  DO NOT CHANGE DSPCOUNT BECAUSE MAY LATER
000743: 40,2607           32443                           CAF      INRELTAB                              #  FAIL LEGALTST.
000744: 40,2610           54137                           TS       INREL                                 #  MUST SET INREL, EVEN FOR HIPASS.
000745: 40,2611           11016                           CCS      CLPASS
000746: 40,2612           02620                           TC       CLPASHI                               #  +
000747: 40,2613           02615                           TC       +2                                    #  +0    IF CLPASS IS +0 OR -, IT IS PASS0
000748: 40,2614           02615                           TC       +1                                    #  -
000749: 40,2615           30137                           CA       INREL
000750: 40,2616           02642                           TC       LEGALTST
000751: 40,2617           02635                           TC       CLEAR1
000752: 40,2620           10137        CLPASHI            CCS      INREL
000753: 40,2621           54137                           TS       INREL
000754: 40,2622           02642                           TC       LEGALTST
000755: 40,2623           32712                           CAF      DOUBLK     +2                         #  +3 TO - NUMBER. BACKS DATA REQUESTS.
000756: 40,2624           27014                           ADS      REQRET
000757: 40,2625           30137                           CA       INREL
000758: 40,2626           54125                           TS       MIXTEMP                               #  TEMP STORAGE FOR INREL
000759: 40,2627           00006                           EXTEND
000760: 40,2630           27002                           DIM      VERBREG                               #  DECREMENT VERB AND RE-DISPLAY
000761: 40,2631           04655                           TC       BANKCALL
000762: 40,2632           62340                           CADR     UPDATVB
000763: 40,2633           30125                           CA       MIXTEMP
000764: 40,2634           54137                           TS       INREL                                 #  RESTORE INREL
000765: 40,2635           02640        CLEAR1             TC       CLR5
000766: 40,2636           25016                           INCR     CLPASS                                #  ONLY IF CLPASS IS + OR +0,
000767: 40,2637           05225                           TC       ENDOFJOB                              #  SET FOR HIGHER PASS.
000768: 40,2640           22002        CLR5               LXCH     Q                                     #  USES 5BLANK  BUT AVOIDS ITS TC GETINREL
000769: 40,2641           02653                           TC       5BLANK     +2
000770: 40,2642           67720        LEGALTST           AD       NEG2
000771: 40,2643           10000                           CCS      A
000772: 40,2644           00002                           TC       Q                                     #  LEGAL  INREL G/ 2
000773: 40,2645           05723                           TC       CCSHOLE
000774: 40,2646           05225                           TC       ENDOFJOB                              #  ILLEGAL   INREL= 0,1
000775: 40,2647           00002                           TC       Q                                     #  LEGAL    INREL = 2
000776:
000777:
000778:                                                                                                  #  5BLANK BLANKS 5 CHAR DISPLAY WORD IN R1, R2, OR R3. IT ALSO ZEROES XREG,
000779:                                                                                                  #  YREG, OR ZREG.PLACE ANY + DSPCOUNT NUMBER FOR PERTINENT RC INTO DSPCOUNT
000780:                                                                                                  #  DSPCOUNT IS LEFT SET TO LEFT MOST DSP NUMB FOR RC JUST BLANKED.
000781:
000782: 40,2650           55000                           TS       DSPCOUNT                              #  NEEDED FOR BLANKSUB
000783: 40,2651           22002        5BLANK             LXCH     Q
000784: 40,2652           02437                           TC       GETINREL
000785: 40,2653           35030                           CAF      ZERO
000786: 40,2654           50137                           INDEX    INREL
000787: 40,2655           55002                           TS       VERBREG                               #  ZERO X, Y, Z REG.
000788: 40,2656           50137                           INDEX    INREL
000789: 40,2657           55005                           TS       XREGLP     -2
000790: 40,2660           54124                           TS       CODE
000791: 40,2661           50137                           INDEX    INREL                                 #  ZERO PERTINENT DEC COMP BIT.
000792: 40,2662           45020                           CS       BIT7                                  #  PROTECT OTHERS
000793: 40,2663           71001                           MASK     DECBRNCH
000794: 40,2664           72713                           MASK     BRNCHCON                              #  ZERO LOW 2 BITS.
000795: 40,2665           55001                           TS       DECBRNCH
000796: 40,2666           50137                           INDEX    INREL
000797: 40,2667           32703                           CAF      SINBLANK   -2                         #  BLANK ISOLATED CHAR SEPARATELY
000798: 40,2670           54143                           TS       COUNT
000799: 40,2671           03435                           TC       DSPIN
000800: 40,2672           50137        5BLANK1            INDEX    INREL
000801: 40,2673           32706                           CAF      DOUBLK     -2
000802: 40,2674           55000                           TS       DSPCOUNT
000803: 40,2675           02714                           TC       2BLANK
000804: 40,2676           45025                           CS       TWO
000805: 40,2677           27000                           ADS      DSPCOUNT
000806: 40,2700           02714                           TC       2BLANK
000807: 40,2701           50137                           INDEX    INREL
000808: 40,2702           34327                           CAF      R1D1       -2
000809: 40,2703           55000                           TS       DSPCOUNT                              #  SET DSPCOUNT TO LEFT MOST DSP NUMBER
000810: 40,2704           00001                           TC       L                                     #  OF REG. JUST BLANKED
000811:
000812: 40,2705           00016        SINBLANK           OCT      16                                    #  DEC 14
000813: 40,2706           00005                           OCT      5
000814: 40,2707           00004                           OCT      4
000815: 40,2710           00015        DOUBLK             OCT      15                                    #  DEC 13
000816: 40,2711           00011                           OCT      11                                    #  DEC 9
000817: 40,2712           00003                           OCT      3
000818:
000819: 40,2713           77774        BRNCHCON           OCT      77774
000820:
000821:                                                                                                  #  2BLANK BLANKS TWO CHAR. PLACE DSP NUMBER OF LEFT CHAR  OF THE PAIR INTO
000822:                                                                                                  #  DSPCOUNT. THIS NUMBER IS LEFT IN DSPCOUNT
000823:
000824: 40,2714           31000        2BLANK             CA       DSPCOUNT
000825: 40,2715           54021                           TS       SR
000826: 40,2716           42727                           CS       BLANKCON
000827: 40,2717           00004                           INHINT
000828: 40,2720           50021                           INDEX    SR
000829: 40,2721           57024                           XCH      DSPTAB
000830: 40,2722           00006                           EXTEND
000831: 40,2723           62725                           BZMF     +2                                    #  IF OLD CONTENTS -, NOUT OK
000832: 40,2724           25017                           INCR     NOUT                                  #  IF OLD CONTENTS +, +1 TO NOUT
000833: 40,2725           00003                           RELINT                                         #  IF -,NOUT OK
000834: 40,2726           00002                           TC       Q
000835: 40,2727           04000        BLANKCON           OCT      4000
000836:
000837:                                                                                                  #  ENTER PASS 0 IS THE EXECUTE FUNCTION. HIGHER ORDER ENTERS ARE TO LOAD
000838:                                                                                                  #  DATA. THE SIGN OF REQRET DETERMINES THE PASS, + FOR PASS 0,- FOR HIGHER
000839:                                                                                                  #  PASSES.
000840:
000841:
000842:                                                                                                  #  MACHINE CADR TO BE SPECIFIED (MCTBS) NOUNS DESIRE AN ECADR TO BE LOADED
000843:                                                                                                  #  WHEN USED WITH LOAD VERBS, MONITOR VERBS, OR DISPLAY VERBS (EXCEPT
000844:                                                                                                  #  VERB = FIXED MEMORY DISPLAY, WHICH REQUIRES AN FCADR).
000845:
000846:
000847: 41,2000                                           BANK     41
000848: 41,2000                                           SETLOC   PINBALL2
000849: 41,2000                                           BANK
000850:
000851: 41,2000                                           COUNT*   $$/PIN
000852: 41,2000           03537        NVSUBB             TC       NVSUB1                                #  STANDARD LEAD INS. DONT MOVE.
000853: 41,2001           02773        LOADLV1            TC       LOADLV
000854:                                                                                                  #  END OF STANDARD LEAD INS.
000855:
000856:
000857: 41,2002           35030        ENTER              CAF      ZERO
000858: 41,2003           55016                           TS       CLPASS
000859: 41,2004           34231                           CAF      ENDINST
000860: 41,2005           54136                           TS       ENTRET
000861: 41,2006           11014                           CCS      REQRET
000862: 41,2007           02035                           TC       ENTPAS0                               #  IF +, PASS 0
000863: 41,2010           02035                           TC       ENTPAS0                               #  IF +, PASS 0
000864: 41,2011           02012                           TC       +1                                    #  IF -, NOT PASS 0
000865: 41,2012           32033        ENTPASHI           CAF      MMADREF
000866: 41,2013           61014                           AD       REQRET                                #  IF L/ 2 CHAR IN FOR MM CODE, ALARM
000867: 41,2014           00006                           EXTEND                                         #  AND RECYCLE(DECIDE AT MMCHANG+1).
000868: 41,2015           12027                           BZF      ACCEPTWD
000869: 41,2016           36221                           CAF      THREE                                 #  IF DEC, ALARM IF L/ 5 CHAR IN FOR DATA,
000870: 41,2017           71001                           MASK     DECBRNCH                              #  BUT LEAVE REQRET - AND FLASH ON, SO
000871: 41,2020           10000                           CCS      A                                     #  OPERATOR CAN SUPPLY MISSING NUMERICAL
000872: 41,2021           02023                           TC       +2                                    #  CHARACTERS AND CONTINUE.
000873: 41,2022           02027                           TC       ACCEPTWD                              #  OCTAL. ANY NUMBER OF CHAR OK.
000874: 41,2023           11000                           CCS      DSPCOUNT
000875: 41,2024           02351                           TC       GODSPALM                              #  LESS THAN 5 CHAR DEC(DSPCOUNT IS +)
000876: 41,2025           02351                           TC       GODSPALM                              #  LESS THAN 5 CHAR DEC(DSPCOUNT IS +)
000877: 41,2026           02027                           TC       +1                                    #  5 CHAR IN (DSPCOUNT IS -)
000878: 41,2027           41014        ACCEPTWD           CS       REQRET                                #  5 CHAR IN (DSPCOUNT IS -)
000879: 41,2030           55014                           TS       REQRET                                #  SET REQRET +.
000880: 41,2031           04445                           TC       FLASHOFF
000881: 41,2032           01014                           TC       REQRET
000882:
000883: 41,2033     0136               ENTEXIT            =        ENTRET
000884:
000885: 41,2033           03424        MMADREF            ADRES    MMCHANG    +1                         #  ASSUMES TC REQMM AT MMCHANG.
000886:
000887: 41,2034           00034        LOWVERB            DEC      28         B-14                       #  LOWER VERB THAT AVOIDS NOUN TEST.
000888:
000889: 41,2035           35030        ENTPAS0            CAF      ZERO                                  #   NOUN VERB SUB ENTERS HERE
000890: 41,2036           55001                           TS       DECBRNCH
000891: 41,2037           44372                           CS       VD1                                   #  BLOCK FURTHER NUM CHAR, SO THAT STRAY
000892: 41,2040           55000                           TS       DSPCOUNT                              #  CHAR DO NOT GET INTO VERB OR NOUN LTS.
000893: 41,2041           41002        TESTVB             CS       VERBREG                               #  IF VERB IS G/E LOWVB, SKIP NOUN TEST.
000894: 41,2042           55042                           TS       VERBSAVE                              #  SAVE VERB FOR POSSIBLE RECYCLE.
000895: 41,2043           62034                           AD       LOWVERB                               #  LOWVERB - VB
000896: 41,2044           00006                           EXTEND
000897: 41,2045           62133                           BZMF     VERBFAN                               #  VERB G/E LOWVERB
000898: 41,2046           00006        TESTNN             EXTEND                                         #  VERB L/ LOWVERB
000899: 41,2047           32114                           DCA      LODNNLOC                              #  SWITCH BANKS TO NOUN TABLE READING
000900: 41,2050           52006                           DXCH     Z                                     #  ROUTINE.
000901: 41,2051           50140                           INDEX    MIXBR
000902: 41,2052           02052                           TC       +0
000903: 41,2053           02055                           TC       +2                                    #  NORMAL
000904: 41,2054           02221                           TC       MIXNOUN                               #  MIXED
000905: 41,2055           10146                           CCS      NNADTEM                               #  NORMAL
000906: 41,2056           02131                           TC       VERBFAN    -2                         #       NORMAL IF +
000907: 41,2057           02351                           TC       GODSPALM                              #  NOT IN USE   IF +0
000908: 41,2060           02064                           TC       REQADD                                #  SPECIFY MACHINE CADR IF -
000909: 41,2061           25020                           INCR     NOUNCADR                              #  AUGMENT MACHINE CADR IF -0
000910: 41,2062           04323                           TC       SETNADD                               #  ECADR FROM NOUNCADR. SETS EB, NOUNADD.
000911: 41,2063           02120                           TC       INTMCTBS   +2
000912: 41,2064           35010        REQADD             CAF      BIT15                                 #  SET CLPASS FOR PASS0 ONLY
000913: 41,2065           55016                           TS       CLPASS
000914: 41,2066           44231                           CS       ENDINST                               #  TEST IF REACHED HERE FROM INTERNAL OR
000915: 41,2067           60136                           AD       ENTEXIT                               #              FROM EXTERNAL
000916: 41,2070           00006                           EXTEND
000917: 41,2071           12073                           BZF      +2                                    #  EXTERNAL MACH CADR TO BE SPECIFIED
000918: 41,2072           02116                           TC       INTMCTBS
000919: 41,2073           02307                           TC       REQDATZ                               #  EXTERNAL MACH CADR TO BE SPECIFIED
000920: 41,2074           11001                           CCS      DECBRNCH                              #  ALARM AND RECYCLE IF DECIMAL USED
000921: 41,2075           04157                           TC       ALMCYCLE                              #  FOR MCTBS.
000922: 41,2076           44372                           CS       VD1                                   #  OCTAL USED  OK
000923: 41,2077           55000                           TS       DSPCOUNT                              #  BLOCK NUM CHAR IN
000924: 41,2100           11043                           CCS      CADRSTOR
000925: 41,2101           02104                           TC       +3                                    #  EXTERNAL MCTBS DISPLAY WILL LEAVE FLASH
000926: 41,2102           02105                           TC       USEADD                                #  ON IF ENDIDLE NOT = +0.
000927: 41,2103           02104                           TC       +1
000928: 41,2104           04441                           TC       FLASHON
000929: 41,2105           57006        USEADD             XCH      ZREG
000930: 41,2106           04315                           TC       SETNCADR                              #  ECADR INTO NOUNCADR. SET EB, NOUNADD.
000931: 41,2107           00006                           EXTEND
000932: 41,2110           32114                           DCA      LODNNLOC                              #  SWITCH BANKS TO NOUN TABLE READING
000933: 41,2111           52006                           DXCH     Z                                     #  ROUTINE.
000934: 41,2112           02133                           TC       VERBFAN
000935:
000936: 41,2113     1000                                  EBANK=   DSPCOUNT
000937: 41,2113           02064 64102  LODNNLOC           2CADR    LODNNTAB
000938:
000939:
000940: 41,2115           77772        NEG5               OCT      77772
000941:
000942: 41,2116           30156        INTMCTBS           CA       MPAC       +2                         #  INTERNAL MACH CADR TO BE SPECIFIED.
000943: 41,2117           04315                           TC       SETNCADR                              #  ECADR INTO NOUNCADR. SET EB, NOUNADD.
000944: 41,2120           45031                           CS       FIVE                                  #  NVSUB CALL LEFT CADR IN MPAC+2 FOR MACH
000945: 41,2121           61002                           AD       VERBREG                               #  CADR TO BE SPECIFIED.
000946: 41,2122           00006                           EXTEND
000947: 41,2123           12133                           BZF      VERBFAN                               #  DONT DISPLAY CADR IF VB = 05.
000948: 41,2124           34333                           CAF      R3D1                                  #  VB NOT = 05. DISPLAY CADR.
000949: 41,2125           55000                           TS       DSPCOUNT
000950: 41,2126           31020                           CA       NOUNCADR
000951: 41,2127           03356                           TC       DSPOCTWD
000952: 41,2130           02133                           TC       VERBFAN
000953:
000954: 41,2131           65026                           AD       ONE
000955: 41,2132           04315                           TC       SETNCADR                              #  ECADR INTO NOUNCADR. SETS EB, NOUNADD.
000956: 41,2133           42145        VERBFAN            CS       LST2CON
000957: 41,2134           61002                           AD       VERBREG                               #  VERB-LST2CON
000958: 41,2135           10000                           CCS      A
000959: 41,2136           65026                           AD       ONE                                   #  VERB G/ LST2CON
000960: 41,2137           02141                           TC       +2
000961: 41,2140           02146                           TC       VBFANDIR                              #  VERB L/ LST2CON
000962: 41,2141           54154                           TS       MPAC
000963: 41,2142           04471                           TC       RELDSP                                #  RELEASE DISPLAY SYST
000964: 41,2143           04674                           TC       POSTJUMP                              #  GO TO GOEXTVB WITH VB-40 IN MPAC.
000965: 41,2144           66000                           CADR     GOEXTVB
000966: 41,2145           00050        LST2CON            DEC      40         B-14                       #  FIRST LIST2 VERB (EXTENDED VERB)
000967:
000968: 41,2146           51002        VBFANDIR           INDEX    VERBREG
000969: 41,2147           32151                           CAF      VERBTAB
000970: 41,2150           04677                           TC       BANKJUMP
000971:
000972: 41,2151           62351        VERBTAB            CADR     GODSPALM                              #  VB00 ILLEGAL
000973: 41,2152           62365                           CADR     DSPA                                  #  VB01 DISPLAY OCT COMP 1 (R1)
000974: 41,2153           62373                           CADR     DSPB                                  #  VB02 DISPLAY OCT COMP 2 (R1)
000975: 41,2154           62400                           CADR     DSPC                                  #  VB03 DISPLAY OCT COMP 3 (R1)
000976: 41,2155           62360                           CADR     DSPAB                                 #  VB04 DISPLAY OCT COMP 1,2 (R1,R2)
000977: 41,2156           62353                           CADR     DSPABC                                #  VB05 DISPLAY OCT COMP 1,2,3 (R1,R2,R3)
000978: 41,2157           62521                           CADR     DECDSP                                #  VB06 DECIMAL DISPLAY
000979: 41,2160           61104                           CADR     DSPDPDEC                              #  VB07 DP DECIMAL DISPLAY (R1,R2)
000980: 41,2161           62351                           CADR     GODSPALM                              #  VB08 SPARE
000981: 41,2162           62351                           CADR     GODSPALM                              #  VB09 SPARE
000982: 41,2163           61533                           CADR     DSPALARM                              #  VB10 SPARE
000983: 41,2164           63223                           CADR     MONITOR                               #  VB11 MONITOR OCT COMP 1 (R1)
000984: 41,2165           63223                           CADR     MONITOR                               #  VB12 MONITOR OCT COMP 2 (R1)
000985: 41,2166           63223                           CADR     MONITOR                               #  VB13 MONITOR OCT COMP 3 (R1)
000986: 41,2167           63223                           CADR     MONITOR                               #  VB14 MONITOR OCT COMP 1,2 (R1,R2)
000987: 41,2170           63223                           CADR     MONITOR                               #  VB15 MONITOR OCT COMP 1,2,3 (R1,R2,R3)
000988: 41,2171           63223                           CADR     MONITOR                               #  VB16 MONITOR DECIMAL
000989: 41,2172           63223                           CADR     MONITOR                               #  VB17 MONITOR DP DEC  (R1,R2)
000990: 41,2173           62351                           CADR     GODSPALM                              #  VB18 SPARE
000991: 41,2174           62351                           CADR     GODSPALM                              #  VB19 SPARE
000992: 41,2175           62351                           CADR     GODSPALM                              #  VB20 SPARE
000993: 41,2176           62730                           CADR     ALOAD                                 #  VB21 LOAD COMP 1 (R1)
000994: 41,2177           62741                           CADR     BLOAD                                 #  VB22 LOAD COMP 2 (R2)
000995: 41,2200           62756                           CADR     CLOAD                                 #  VB23 LOAD COMP 3 (R3)
000996: 41,2201           62701                           CADR     ABLOAD                                #  VB24 LOAD COMP 1,2 (R1,R2)
000997: 41,2202           62614                           CADR     ABCLOAD                               #  VB25 LOAD COMP 1,2,3 (R1,R2,R3)
000998: 41,2203           62351                           CADR     GODSPALM                              #  VB26 SPARE
000999: 41,2204           63346                           CADR     DSPFMEM                               #  VB27 FIXED MEMORY DISPLAY
001000:                                                                                                  #  THE FOLLOWING VERBS MAKE NO NOUN TEST
001001: 41,2205           62351                           CADR     GODSPALM                              #  VB28 SPARE
001002: 41,2206           62351                           CADR     GODSPALM                              #  VB29 SPARE
001003: 41,2207           63461        REQEXLOC           CADR     VBRQEXEC                              #  VB30 REQUEST EXECUTIVE
001004: 41,2210           63505                           CADR     VBRQWAIT                              #  VB31 REQUEST WAITLIST
001005: 41,2211           61561                           CADR     VBRESEQ                               #  VB32 RESEQUENCE
001006: 41,2212           61544                           CADR     VBPROC                                #  VB33 PROCEED WITHOUT DATA
001007: 41,2213           61552                           CADR     VBTERM                                #  VB34 TERMINATE CURRENT TEST OR LOAD REQ
001008: 41,2214           63606                           CADR     VBTSTLTS                              #  VB35 TEST LIGHTS
001009: 41,2215           12264                           CADR     SLAP1                                 #  VB36 FRESH START
001010: 41,2216           63423                           CADR     MMCHANG                               #  VB37 CHANGE MAJOR MODE
001011: 41,2217           62351                           CADR     GODSPALM                              #  VB38 SPARE
001012: 41,2220           62351                           CADR     GODSPALM                              #  VB39 SPARE
001013:
001014:
001015:                                                                                                  #  THE LIST2 VERBFAN IS LOCATED IN THE EXTENDED VERB BANK.
001016:
001017:                                                                                                  #  NNADTAB CONTAINS A RELATIVE ADDRESS, IDADDREL(IN LOW 10 BITS), REFERRING
001018:                                                                                                  #  TO WHERE 3 CONSECUTIVE ADDRESSES ARE STORED (IN IDADDTAB).
001019:                                                                                                  #  MIXNOUN GETS DATA AND STORES IN MIXTEMP,+1,+2. IT SETS NOUNADD FOR
001020:                                                                                                  #   MIXTEMP.
001021:
001022: 41,2221           10146        MIXNOUN            CCS      NNADTEM
001023: 41,2222           02226                           TC       +4                                    #  +  IN USE
001024: 41,2223           02351                           TC       GODSPALM                              #  +0  NOT IN USE
001025: 41,2224           02226                           TC       +2                                    #  -  IN USE
001026: 41,2225           02226                           TC       +1                                    #  -0  IN USE
001027: 41,2226           46216                           CS       SIX
001028: 41,2227           61002                           AD       VERBREG
001029: 41,2230           00006                           EXTEND
001030: 41,2231           62233                           BZMF     +2                                    #  VERB L/E 6
001031: 41,2232           02133                           TC       VERBFAN                               #  AVOID MIXNOUN SWAP IF VB NOT = DISPLAY
001032: 41,2233           35025                           CAF      TWO
001033: 41,2234           54117        MIXNN1             TS       DECOUNT
001034: 41,2235           62260                           AD       MIXAD
001035: 41,2236           54145                           TS       NOUNADD                               #  SET NOUNADD TO MIXTEMP + K
001036: 41,2237           50117                           INDEX    DECOUNT                               #  GET IDADDTAB ENTRY FOR COMPONENT K
001037: 41,2240           30150                           CA       IDAD1TEM                              #  OF NOUN.
001038: 41,2241           54122                           TS       NOUNTEM
001039:                                                                                                  #  TEST FOR DP(FOR OCT DISPLAY). IF SO, GET
001040:                                                                                                  #    MINOR PART ONLY.
001041: 41,2242           03031                           TC       SFRUTMIX                              #  GET SF ROUT NUMBER IN A
001042: 41,2243           02261                           TC       DPTEST
001043: 41,2244           02246                           TC       MIXNN2                                #  NO DP
001044: 41,2245           24122                           INCR     NOUNTEM                               #  DP GET MINOR PART
001045: 41,2246           30122        MIXNN2             CA       NOUNTEM
001046: 41,2247           74370                           MASK     LOW11                                 #  ESUBK (NO DP) OR (ESUBK)+1     FOR DP
001047: 41,2250           04325                           TC       SETEBANK                              #  SET EBANK, LEAVE EADRES IN A.
001048: 41,2251           50000                           INDEX    A                                     #  PICK UP C(ESUBK)  NOT DP
001049: 41,2252           30000                           CA       0                                     #  OR C((ESUBK)+1)  FOR DP MINOR PART
001050: 41,2253           50145                           INDEX    NOUNADD
001051: 41,2254           56000                           XCH      0                                     #  STORE IN MIXTEM + K
001052: 41,2255           10117                           CCS      DECOUNT
001053: 41,2256           02234                           TC       MIXNN1
001054: 41,2257           02133                           TC       VERBFAN
001055:
001056: 41,2260           00125        MIXAD              TC       MIXTEMP
001057:
001058:
001059:                                                                                                  #  DPTEST   ENTER WITH SF ROUT NUMBER IN A.
001060:                                                                                                  #           RETURNS TO L+1 IF NO DP.
001061:                                                                                                  #           RETURNS TO L+2 IF DP.
001062:
001063: 41,2261           50000        DPTEST             INDEX    A
001064: 41,2262           12263                           TCF      +1
001065: 41,2263           00002                           TC       Q                                     #  OCTAL ONLY  NO DP
001066: 41,2264           00002                           TC       Q                                     #  FRACT NO DP
001067: 41,2265           00002                           TC       Q                                     #  DEG  NO DP
001068: 41,2266           00002                           TC       Q                                     #  ARITH  NO DP
001069: 41,2267           12301                           TCF      DPTEST1                               #  DP1OUT
001070: 41,2270           12301                           TCF      DPTEST1                               #  DP2OUT
001071: 41,2271           00002                           TC       Q                                     #  LRPOSOUT NO DP (DATA IN CHANNEL 33)
001072: 41,2272           12301                           TCF      DPTEST1                               #  DP3OUT
001073: 41,2273           00002                           TC       Q                                     #  HMS   NO DP
001074: 41,2274           00002                           TC       Q                                     #  M/S   NO DP
001075: 41,2275           12301                           TCF      DPTEST1                               #  DP4OUT
001076: 41,2276           00002                           TC       Q                                     #  ARITH1   NO DP
001077: 41,2277           00002                           TC       Q                                     #  2INTOUT  NO DP TO GET HI PART IN MPAC
001078: 41,2300           00002                           TC       Q                                     #  360-CDU   NO DP
001079: 41,2301           50002        DPTEST1            INDEX    Q
001080: 41,2302           00001                           TC       1                                     #  RETURN TO L+2
001081:
001082:
001083: 41,2303           34331        REQDATX            CAF      R1D1
001084: 41,2304           12310                           TCF      REQCOM
001085: 41,2305           34332        REQDATY            CAF      R2D1
001086: 41,2306           12310                           TCF      REQCOM
001087: 41,2307           34333        REQDATZ            CAF      R3D1
001088: 41,2310           55000        REQCOM             TS       DSPCOUNT
001089: 41,2311           40002                           CS       Q
001090: 41,2312           55014                           TS       REQRET
001091: 41,2313           04655                           TC       BANKCALL
001092: 41,2314           60651                           CADR     5BLANK
001093: 41,2315           04441                           TC       FLASHON
001094: 41,2316           00136        ENDRQDAT           TC       ENTEXIT
001095:
001096: 41,2317           55003                           TS       NOUNREG
001097: 41,2320           56002        UPDATNN            XCH      Q
001098: 41,2321           54117                           TS       UPDATRET
001099: 41,2322           00006                           EXTEND
001100: 41,2323           32114                           DCA      LODNNLOC                              #  SWITCH BANKS TO NOUN TABLE READING
001101: 41,2324           52006                           DXCH     Z                                     #  ROUTINE.
001102: 41,2325           10146                           CCS      NNADTEM
001103: 41,2326           65026                           AD       ONE                                   #  NORMAL
001104: 41,2327           12332                           TCF      PUTADD
001105: 41,2330           12333                           TCF      PUTADD     +1                         #  MCTBS  DONT CHANGE NOUNADD
001106: 41,2331           12333                           TCF      PUTADD     +1                         #  MCTBI  DONT CHANGE NOUNADD
001107: 41,2332           04315        PUTADD             TC       SETNCADR                              #  ECADR INTO NOUNCADR. SETS EB, NOUNADD.
001108: 41,2333           34373                           CAF      ND1
001109: 41,2334           55000                           TS       DSPCOUNT
001110: 41,2335           31003                           CA       NOUNREG
001111: 41,2336           12345                           TCF      UPDAT1
001112:
001113: 41,2337           55002                           TS       VERBREG
001114: 41,2340           56002        UPDATVB            XCH      Q
001115: 41,2341           54117                           TS       UPDATRET
001116: 41,2342           34372                           CAF      VD1
001117: 41,2343           55000                           TS       DSPCOUNT
001118: 41,2344           31002                           CA       VERBREG
001119: 41,2345           04674        UPDAT1             TC       POSTJUMP                              #  CANT USE SWCALL TO GO TO DSPDECVN,SINCE
001120: 41,2346           61432                           CADR     GOVNUPDT                              #  UPDATVB CAN ITSELF BE CALLED BY SWCALL.
001121: 41,2347           00117                           TC       UPDATRET
001122:
001123:
001124: 41,2350           04157        GOALMCYC           TC       ALMCYCLE                              #  NEEDED BECAUSE BANKJUMP CANT HANDLE F/F.
001125:
001126:
001127: 41,2351           04674        GODSPALM           TC       POSTJUMP
001128: 41,2352           61533                           CADR     DSPALARM
001129:
001130:                                                                                                  #           NOUN   TABLES
001131:                                                                                                  #  NOUN CODE L/40, NORMAL NOUN CASE.  NOUN CODE G/E 40, MIXED NOUN CASE.
001132:                                                                                                  #  FOR NORMAL CASE, NNADTAB CONTAINS ONE       ECADR     FOR EACH NOUN.
001133:                                                                                                  #  +0 INDICATES NOUN NOT USED.   - ENTRY INDICATES MACHINE CADR(E OR F) TO
001134:                                                                                                  #  BE SPECIFIED. -1 INDICATES CHANNEL TO BE SPECIFIED. -0 INDICATES AUGMENT
001135:                                                                                                  #  OF LAST MACHINE CADR SUPPLIED.
001136:
001137:                                                                                                  #  FOR MIXED CASE, NNADTAB CONTAINS ONE INDIRECT ADDRESS(IDADDREL) IN LOW
001138:                                                                                                  #  10 BITS, AND THE COMPONENT CODE NUMBER IN THE HIGH 5 BITS.
001139:
001140:                                                                                                  #  NNTYPTAB IS A PACKED TABLE OF THE FORM MMMMMNNNNNPPPPP.
001141:
001142:                                                                                                  #  FOR THE NORMAL CASE, M-S ARE THE COMPONENT CODE NUMBER.
001143:                                                                                                  #                       N-S ARE THE SF ROUTINE CODE NUMBER.
001144:                                                                                                  #                       P-S ARE THE SF CONSTANT CODE NUMBER.
001145:
001146:                                                                                                  #  MIXED CASE,M-S ARE THE SF CONSTANT3 CODE NUMBER     3 COMPONENT CASE
001147:                                                                                                  #             N-S ARE THE SF CONSTANT2 CODE NUMBER
001148:                                                                                                  #             P-S ARE THE SF CONSTANT1 CODE NUMBER
001149:                                                                                                  #             N-S ARE THE SF CONSTANT2 CODE NUMBER     2 COMPONENT CASE
001150:                                                                                                  #             P-S ARE THE SF CONSTANT1 CODE NUMBER
001151:                                                                                                  #             P-S ARE THE SF CONSTANT1 CODE NUMBER      1 COMPONENT CASE
001152:
001153:                                                                                                  #  THERE IS ALSO AN INDIRECT ADDRESS TABLE(IDADDTAB) FOR MIXED CASE ONLY.
001154:                                                                                                  #  EACH ENTRY CONTAINS ONE ECADR.    IDADDREL IS THE RELATIVE ADDRESS OF
001155:                                                                                                  #  THE FIRST OF THESE ENTRIES.
001156:                                                                                                  #  THERE IS ONE ENTRY IN THIS TABLE FOR EACH COMPONENT OF A MIXED NOUN
001157:                                                                                                  #  THEY ARE LISTED IN ORDER OF ASCENDING K.
001158:
001159:                                                                                                  #  THERE IS ALSO A SCALE FACTOR ROUTINE NUMBER TABLE( RUTMXTAB ) FOR MIXED
001160:                                                                                                  #  CASE ONLY. THERE IS ONE ENTRY PER MIXED NOUN. THE FORM IS,
001161:                                                                                                  #        QQQQQRRRRRSSSSS
001162:                                                                                                  #  Q-S ARE THE SF ROUTINE 3 CODE NUMBER     3 COMPONENT CASE
001163:                                                                                                  #  R-S ARE THE SF ROUTINE 2 CODE NUMBER
001164:                                                                                                  #  S-S ARE THE SF ROUTINE 1 CODE NUMBER
001165:                                                                                                  #  R-S ARE THE SF ROUTINE 2 CODE NUMBER     2 COMPONENT CASE
001166:                                                                                                  #  S-S ARE THE SF ROUTINE 1 CODE NUMBER
001167:
001168:
001169:                                                                                                  #  IN OCTAL DISPLAY AND LOAD (OCT OR DEC) VERBS, EXCLUDE USE OF VERBS WHOSE
001170:                                                                                                  #  COMPONENT NUMBER IS GREATER THAN THE NUMBER OF COMPONENTS IN NOUN.
001171:                                                                                                  #  (ALL MACHINE ADDRESS TO BE SPECIFIED NOUNS ARE 3 COMPONENT.)
001172:
001173:
001174:                                                                                                  #  IN MULTI-COMPONENT LOAD VERBS, NO MIXING OF OCTAL AND DECIMAL DATA
001175:                                                                                                  #  COMPONENT WORDS IS ALLOWED. ALARM IF VIOLATION.
001176:
001177:                                                                                                  #  IN DECIMAL LOADS OF DATA, 5 NUMERICAL CHARACTERS MUST BE KEYED IN
001178:                                                                                                  #  BEFORE EACH ENTER. IF NOT, ALARM.
001179:
001180:                                                                                                  #           DISPLAY  VERBS
001181: 41,2353           45025        DSPABC             CS       TWO
001182: 41,2354           02424                           TC       COMPTEST
001183: 41,2355           50145                           INDEX    NOUNADD
001184: 41,2356           40002                           CS       2
001185: 41,2357           56132                           XCH      BUF        +2
001186: 41,2360           45026        DSPAB              CS       ONE
001187: 41,2361           02424                           TC       COMPTEST
001188: 41,2362           50145                           INDEX    NOUNADD
001189: 41,2363           40001                           CS       1
001190: 41,2364           56131                           XCH      BUF        +1
001191: 41,2365           02443        DSPA               TC       DECTEST
001192: 41,2366           02466                           TC       TSTFORDP
001193: 41,2367           50145                           INDEX    NOUNADD
001194: 41,2370           40000                           CS       0
001195: 41,2371           56130        DSPCOM1            XCH      BUF
001196: 41,2372           02405                           TC       DSPCOM2
001197: 41,2373           45026        DSPB               CS       ONE
001198: 41,2374           02437                           TC       DCOMPTST
001199: 41,2375           50145                           INDEX    NOUNADD
001200: 41,2376           40001                           CS       1
001201: 41,2377           02371                           TC       DSPCOM1
001202: 41,2400           45025        DSPC               CS       TWO
001203: 41,2401           02437                           TC       DCOMPTST
001204: 41,2402           50145                           INDEX    NOUNADD
001205: 41,2403           40002                           CS       2
001206: 41,2404           02371                           TC       DSPCOM1
001207: 41,2405           45025        DSPCOM2            CS       TWO                                   #  A  B  C  AB ABC
001208: 41,2406           61002                           AD       VERBREG                               #  -1 -0 +1 +2 +3    IN A
001209: 41,2407           10000                           CCS      A                                     #  +0 +0 +0 +1 +2     IN A AFTER CCS
001210: 41,2410           02413                           TC       DSPCOM3
001211: 41,2411           00136                           TC       ENTEXIT
001212: 41,2412           02413                           TC       +1
001213: 41,2413           54122        DSPCOM3            TS       DISTEM                                #  +0,+1,+2 INTO DISTEM
001214: 41,2414           50000                           INDEX    A
001215: 41,2415           34331                           CAF      R1D1
001216: 41,2416           55000                           TS       DSPCOUNT
001217: 41,2417           50122                           INDEX    DISTEM
001218: 41,2420           40130                           CS       BUF
001219: 41,2421           03356                           TC       DSPOCTWD
001220: 41,2422           56122                           XCH      DISTEM
001221: 41,2423           02407                           TC       DSPCOM2    +2
001222:
001223:                                                                                                  #  COMPTEST ALARMS IF COMPONENT NUMBER OF VERB(LOAD OR OCT DISPLAY) IS
001224:                                                                                                  #  GREATER THAN THE HIGHEST COMPONENT NUMBER OF NOUN.
001225: 41,2424           54123        COMPTEST           TS       SFTEMP1                               #  - VERB COMP
001226: 41,2425           22002                           LXCH     Q
001227: 41,2426           02513        COMPTST1           TC       GETCOMP
001228: 41,2427           04343                           TC       LEFT5
001229: 41,2430           76221                           MASK     THREE                                 #  NOUN COMP
001230: 41,2431           60123                           AD       SFTEMP1                               #  NOUN COMP - VERB COMP
001231: 41,2432           10000                           CCS      A
001232: 41,2433           00001                           TC       L                                     #  NOUN COMP G/ VERB COMP
001233: 41,2434           05723                           TC       CCSHOLE
001234: 41,2435           02351                           TC       GODSPALM                              #  NOUN COMP L/ VERB COMP
001235: 41,2436           00001        NDCMPTST           TC       L                                     #  NOUN COMP = VERB COMP
001236:
001237:
001238:                                                                                                  #  DCOMPTST ALARMS IF DECIMAL ONLY BIT (BIT4 OF COMP CODE NUMBER) = 1.
001239:                                                                                                  #  IF NOT, IT PERFORMS REGULAR COMPTEST.
001240: 41,2437           54123        DCOMPTST           TS       SFTEMP1                               #  - VERB COMP
001241: 41,2440           22002                           LXCH     Q
001242: 41,2441           02443                           TC       DECTEST
001243: 41,2442           02426                           TC       COMPTST1
001244:
001245: 41,2443           00006        DECTEST            EXTEND                                         #  ALARMS IF DEC ONLY BIT = 1 (BIT4 OF COMP
001246: 41,2444           22156                           QXCH     MPAC       +2                         #  CODE NUMBER). RETURNS IF NOT.
001247: 41,2445           02513                           TC       GETCOMP
001248: 41,2446           75011                           MASK     BIT14
001249: 41,2447           10000                           CCS      A
001250: 41,2450           02351                           TC       GODSPALM
001251: 41,2451           00156                           TC       MPAC       +2
001252:
001253:
001254: 41,2452           22002        DCTSTCYC           LXCH     Q                                     #  ALARMS AND RECYCLES IF DEC ONLY BIT = 1
001255: 41,2453           02513                           TC       GETCOMP                               #  ( BIT4 OF COMP CODE NUMBER). RETURNS
001256: 41,2454           75011                           MASK     BIT14                                 #  IF NOT.  USED BY LOAD VERBS.
001257: 41,2455           10000                           CCS      A
001258: 41,2456           04157                           TC       ALMCYCLE
001259: 41,2457           00001                           TC       L
001260:
001261:
001262:                                                                                                  #  NOUNTEST ALARMS IF NO-LOAD BIT (BIT5 OF COMP CODE NUMBER) = 1.
001263:                                                                                                  #  IF NOT, IT RETURNS.
001264: 41,2460           22002        NOUNTEST           LXCH     Q
001265: 41,2461           02513                           TC       GETCOMP
001266: 41,2462           10000                           CCS      A
001267: 41,2463           00001                           TC       L
001268: 41,2464           00001                           TC       L
001269: 41,2465           02351                           TC       GODSPALM
001270:
001271:
001272: 41,2466           22002        TSTFORDP           LXCH     Q                                     #  TEST FOR DP. IF SO, GET MINOR PART ONLY.
001273: 41,2467           30146                           CA       NNADTEM
001274: 41,2470           65026                           AD       ONE                                   #  IF NNADTEM = -1, CHANNEL TO BE SPECIFIED
001275: 41,2471           00006                           EXTEND
001276: 41,2472           12504                           BZF      CHANDSP
001277: 41,2473           50140                           INDEX    MIXBR
001278: 41,2474           02474                           TC       +0
001279: 41,2475           02477                           TC       +2                                    #  NORMAL
001280: 41,2476           00001                           TC       L                                     #  MIXED CASE ALREADY HANDLED IN MIXNOUN
001281: 41,2477           03023                           TC       SFRUTNOR
001282: 41,2500           02261                           TC       DPTEST
001283: 41,2501           00001                           TC       L                                     #  NO DP
001284: 41,2502           24145                           INCR     NOUNADD                               #  DP    E+1 INTO NOUNADD FOR MINOR PART.
001285: 41,2503           00001                           TC       L
001286:
001287:
001288: 41,2504           00006        CHANDSP            EXTEND
001289: 41,2505           51020                           INDEX    NOUNCADR
001290: 41,2506           00000                           READ     0
001291: 41,2507           40000                           CS       A
001292: 41,2510           12371                           TCF      DSPCOM1
001293:
001294:
001295: 41,2511           00147        COMPICK            ADRES    NNTYPTEM
001296: 41,2512           00146                           ADRES    NNADTEM
001297:
001298: 41,2513           50140        GETCOMP            INDEX    MIXBR                                 #  NORMAL                MIXED
001299: 41,2514           32510                           CAF      COMPICK    -1                         #  ADRES NNTYPTEM        ADRES NNADTEM
001300: 41,2515           50000                           INDEX    A
001301: 41,2516           30000                           CA       0                                     #  C(NNTYPTEM)           C(NNADTEM)
001302: 41,2517           74362                           MASK     HI5                                   #  GET HI5 OF NNTYPTAB(NORM)OF NNADTAB (MIX)
001303: 41,2520           00002                           TC       Q
001304:
001305:
001306: 41,2521           02513        DECDSP             TC       GETCOMP
001307: 41,2522           04343                           TC       LEFT5
001308: 41,2523           76221                           MASK     THREE
001309: 41,2524           54117                           TS       DECOUNT                               #  COMP NUMBER INTO DECOUNT
001310: 41,2525           54122        DSPDCGET           TS       DECTEM                                #  PICKS UP DATA
001311: 41,2526           60145                           AD       NOUNADD                               #  DECTEM 1COMP +0, 2COMP +1, 3COMP +2
001312: 41,2527           50000                           INDEX    A
001313: 41,2530           40000                           CS       0
001314: 41,2531           50122                           INDEX    DECTEM
001315: 41,2532           57004                           XCH      XREG                                  #  CANT USE BUF SINCE DMP USES IT.
001316: 41,2533           10122                           CCS      DECTEM
001317: 41,2534           02525                           TC       DSPDCGET                              #  MORE TO GET
001318: 41,2535           35030        DSPDCPUT           CAF      ZERO                                  #  DISPLAYS DATA
001319: 41,2536           54155                           TS       MPAC       +1                         #  DECOUNT 1COMP +0, 2COMP +1, 3COMP +2
001320: 41,2537           54156                           TS       MPAC       +2
001321: 41,2540           50117                           INDEX    DECOUNT
001322: 41,2541           34331                           CAF      R1D1
001323: 41,2542           55000                           TS       DSPCOUNT
001324: 41,2543           50117                           INDEX    DECOUNT
001325: 41,2544           41004                           CS       XREG
001326: 41,2545           54154                           TS       MPAC
001327: 41,2546           03044                           TC       SFCONUM                               #  2X ( SF CON NUMB ) IN A
001328: 41,2547           54123                           TS       SFTEMP1
001329: 41,2550           00006                           EXTEND                                         #  SWITCH BANKS TO SF CONSTANT TABLE
001330: 41,2551           32563                           DCA      GTSFOUTL                              #     READING ROUTINE.
001331: 41,2552           52006                           DXCH     Z                                     #  LOADS SFTEMP1, SFTEMP2.
001332: 41,2553           50140                           INDEX    MIXBR
001333: 41,2554           02554                           TC       +0
001334: 41,2555           02560                           TC       DSPSFNOR
001335: 41,2556           03031                           TC       SFRUTMIX
001336: 41,2557           02573                           TC       DECDSP3
001337:
001338: 41,2560           03023        DSPSFNOR           TC       SFRUTNOR
001339: 41,2561           02573                           TC       DECDSP3
001340:
001341: 41,2562     1000                                  EBANK=   DSPCOUNT
001342: 41,2562           02122 64102  GTSFOUTL           2CADR    GTSFOUT
001343:
001344:
001345:
001346: 41,2564           04655        DSPDCEND           TC       BANKCALL                              #  ALL SFOUT ROUTINES END HERE
001347: 41,2565           61341                           CADR     DSPDECWD
001348: 41,2566           10117                           CCS      DECOUNT
001349: 41,2567           02571                           TC       +2
001350: 41,2570           00136                           TC       ENTEXIT
001351: 41,2571           54117                           TS       DECOUNT
001352: 41,2572           02535                           TC       DSPDCPUT                              #  MORE TO DISPLAY
001353:
001354: 41,2573           50000        DECDSP3            INDEX    A
001355: 41,2574           32576                           CAF      SFOUTABR
001356: 41,2575           04677                           TC       BANKJUMP
001357:
001358: 41,2576           61531        SFOUTABR           CADR     PREDSPAL                              #  ALARM IF DEC DISP WITH OCTAL ONLY NOUN
001359: 41,2577           62564                           CADR     DSPDCEND
001360: 41,2600           60730                           CADR     DEGOUTSF
001361: 41,2601           61012                           CADR     ARTOUTSF
001362: 41,2602           61023                           CADR     DP1OUTSF
001363: 41,2603           61030                           CADR     DP2OUTSF
001364: 41,2604           60750                           CADR     LRPOSOUT
001365: 41,2605           61032                           CADR     DP3OUTSF
001366: 41,2606           65205                           CADR     HMSOUT
001367: 41,2607           65260                           CADR     M/SOUT
001368: 41,2610           61030                           CADR     DP2OUTSF
001369: 41,2611           61017                           CADR     AROUT1SF
001370: 41,2612           61045                           CADR     2INTOUT
001371: 41,2613           60736                           CADR     360-CDUO
001372: 41,2614                        ENDRTOUT           EQUALS
001373:
001374:
001375:                                                                                                  #          THE FOLLOWING IS ATYPICAL SF ROUTINE . IT USES MPAC. LEAVES RESU
001376:                                                                                                  #  LTS IN MPAC, MPAC+1. ENDS WITH TC DSPDCEND
001377:
001378: 40,2730                                           SETLOC   BLANKCON   +1
001379:
001380: 40,2730                                           COUNT*   $$/PIN
001381:                                                                                                  #     DEGOUTSF SCALES BY .18 THE LOW 14 BITS OF ANGLE , ADDING .18 FOR
001382:                                                                                                  #  NUMBERS IN THE NEGATIVE (AGC) RANGE.
001383:
001384: 40,2730           35030        DEGOUTSF           CAF      ZERO
001385: 40,2731           54156                           TS       MPAC       +2                         #  SET INDEX FOR FULL SCALE
001386: 40,2732           02765                           TC       FIXRANGE
001387: 40,2733           02735                           TC       +2                                    #  NO AUGMENT NEEDED (SFTEMP1 AND 2 ARE 0)
001388: 40,2734           02760                           TC       SETAUG                                #  SET AUGMENTER ACCORDING TO C(MPAC +2)
001389: 40,2735           02776                           TC       DEGCOM
001390:
001391:                                                                                                  #  360-CDUO COMPUTES 360 - CDU ANGLE IN MPAC, STORES RESULT IN MPAC AND
001392:                                                                                                  #  GOES TO DEGOUTSF.
001393:
001394: 40,2736           02740        360-CDUO           TC       360-CDU
001395: 40,2737           02730                           TC       DEGOUTSF
001396:
001397: 40,2740           30154        360-CDU            CA       MPAC
001398: 40,2741           75006                           MASK     POSMAX                                #  IF ANGLE IS 0 OR 180 DEGREES, DO NOTHING
001399: 40,2742           00006                           EXTEND
001400: 40,2743           12747                           BZF      360-CDUE
001401: 40,2744           40154                           CS       MPAC                                  #  COMPUTE 360 DEGREES MINUS ANGLE
001402: 40,2745           65026                           AD       ONE
001403: 40,2746           54154                           TS       MPAC
001404: 40,2747           00002        360-CDUE           TC       Q
001405:
001406:                                                                                                  #  LRPOSOUT DISPLAYS +0,1,2,OR 3 (WHOLE) FOR CHANNEL 33,BITS 7-6 = 11,10,
001407:                                                                                                  #  01,00 RESPECTIVELY.
001408:
001409: 40,2750           00006        LRPOSOUT           EXTEND
001410: 40,2751           00033                           READ     CHAN33
001411: 40,2752           00006                           EXTEND
001412: 40,2753           75015                           MP       BIT10                                 #  BITS 7-6 TO BITS 2-1
001413: 40,2754           40000                           COM
001414: 40,2755           76221                           MASK     THREE
001415: 40,2756           54154                           TS       MPAC
001416: 40,2757           03012                           TC       ARTOUTSF                              #  DISPLAY AS WHOLE
001417:
001418: 40,2760           00006        SETAUG             EXTEND                                         #  LOADS SFTEMP1 AND SFTEMP2 WITH THE
001419: 40,2761           50156                           INDEX    MPAC       +2                         #  DP AUGMENTER CONSTANT
001420: 40,2762           33007                           DCA      DEGTAB
001421: 40,2763           52124                           DXCH     SFTEMP1
001422: 40,2764           00002                           TC       Q
001423:
001424: 40,2765           10154        FIXRANGE           CCS      MPAC                                  #  IF MPAC IS + RETURN TO L+1
001425: 40,2766           00002                           TC       Q                                     #  IF MPAC IS - RETURN TO L+2 AFTER
001426: 40,2767           00002                           TC       Q                                     #  MASKING OUT THE SIGN BIT
001427: 40,2770           12771                           TCF      +1
001428:
001429: 40,2771           45010                           CS       BIT15
001430: 40,2772           70154                           MASK     MPAC
001431: 40,2773           54154                           TS       MPAC
001432: 40,2774           50002                           INDEX    Q
001433: 40,2775           00001                           TC       1
001434:
001435: 40,2776           00006        DEGCOM             EXTEND                                         #  LOADS MULTIPLIER , DOES SHORTMP, AND
001436: 40,2777           50156                           INDEX    MPAC       +2                         #  ADDS AUGMENTER.
001437: 40,3000           33007                           DCA      DEGTAB
001438: 40,3001           52155                           DXCH     MPAC                                  #  ADJUSTED ANGLE IN A
001439: 40,3002           07261                           TC       SHORTMP
001440: 40,3003           52124                           DXCH     SFTEMP1
001441: 40,3004           20155                           DAS      MPAC
001442: 40,3005           03015                           TC       SCOUTEND
001443:
001444:
001445: 40,3006           05605        DEGTAB             OCT      05605                                 #  HI PART OF     .18
001446: 40,3007           03656                           OCT      03656                                 #  LOW PART OF    .18
001447: 40,3010           16314                           OCT      16314                                 #  HI PART OF     .45
001448: 40,3011           31463                           OCT      31463                                 #  LO PART OF     .45
001449:
001450: 40,3012           52124        ARTOUTSF           DXCH     SFTEMP1                               #  ASSUMES POINT AT LEFT OF DP SFCON
001451: 40,3013           52155                           DXCH     MPAC
001452: 40,3014           04427                           TC       PRSHRTMP                              #  IF C(A) = -0, SHORTMP FAILS TO GIVE -0.
001453: 40,3015           04674        SCOUTEND           TC       POSTJUMP
001454: 40,3016           62564                           CADR     DSPDCEND
001455:
001456: 40,3017           52124        AROUT1SF           DXCH     SFTEMP1                               #  ASSUMES POINT BETWEEN HI AND LO PARTS OF
001457: 40,3020           52155                           DXCH     MPAC                                  #  DP SFCON. SHIFTS RESULTS LEFT 14, BY
001458: 40,3021           04427                           TC       PRSHRTMP                              #  TAKING RESULTS FROM MPAC+1, MPAC+2.
001459: 40,3022           03024                           TC       L14/OUT
001460:
001461:
001462: 40,3023           03036        DP1OUTSF           TC       DPOUT                                 #  SCALES MPAC, MPAC +1 BY DP SCALE FACTOR
001463: 40,3024           56156        L14/OUT            XCH      MPAC       +2                         #  IN SFTEMP1, SFTEMP2. THEN SCALE RESULT
001464: 40,3025           56155                           XCH      MPAC       +1                         #  BY B14.
001465: 40,3026           54154                           TS       MPAC
001466: 40,3027           03015                           TC       SCOUTEND
001467:
001468:
001469: 40,3030           03036        DP2OUTSF           TC       DPOUT                                 #  SCALES MPAC, MPAC +1 BY DP SCALE FACTOR
001470: 40,3031           03015                           TC       SCOUTEND
001471:
001472:
001473: 40,3032           03036        DP3OUTSF           TC       DPOUT                                 #  ASSUMES POINT BETWEEN BITS 7-8 OF HIGH
001474: 40,3033           36216                           CAF      SIX                                   #  LEFT BY 7, ROUNDS MPAC+2 INTO MPAC+1.
001475: 40,3034           03266                           TC       TPLEFTN                               #  SHIFT LEFT 7.
001476: 40,3035           03015                           TC       SCOUTEND
001477:
001478: 40,3036     0162               MPAC+6             =        MPAC       +6                         #  USE MPAC +6 INSTEAD OF OVFIND
001479:
001480: 40,3036           56002        DPOUT              XCH      Q
001481: 40,3037           54162                           TS       MPAC+6
001482: 40,3040           03062                           TC       READLO                                #  GET FRESH DATA FOR BOTH HI AND LO.
001483: 40,3041           07231                           TC       TPAGREE                               #  MAKE DP DATA AGREE
001484: 40,3042           07057                           TC       DMP
001485: 40,3043           00123                           ADRES    SFTEMP1
001486: 40,3044           00162                           TC       MPAC+6
001487:                                                                                                  #  THE FOLLOWING ROUTINE DISPLAYS TWO CONTIGUOUS SP POSITIVE INTEGERS
001488:                                                                                                  #  AS TWO POSITIVE DECIMAL INTEGERS IN RXD1-RXD2 AND RXD4-RXD5 (RXD3 IS
001489:                                                                                                  #  BLANKED). THE INTEGER IN THE LOWER NUMBERED ADDRESS IS DISPLAYED IN
001490:                                                                                                  #  RXD1-RXD2.
001491:
001492: 40,3045           02651        2INTOUT            TC       5BLANK                                #  TO BLANK RXD3
001493: 40,3046           02526                           TC       +ON                                   #  TURN ON + SIGN
001494: 40,3047           30154                           CA       MPAC
001495: 40,3050           03421                           TC       DSPDECVN                              #  DISPLAY 1ST INTEGER (LIKE VERB AND NOUN)
001496: 40,3051           46221                           CS       THREE
001497: 40,3052           50117                           INDEX    DECOUNT
001498: 40,3053           64331                           AD       R1D1                                  #  RXD4
001499: 40,3054           55000                           TS       DSPCOUNT
001500: 40,3055           03062                           TC       READLO                                #  GET 2ND INTEGER
001501: 40,3056           30155                           CA       MPAC       +1
001502: 40,3057           03421                           TC       DSPDECVN                              #  DISPLAY 2ND INTEGER (LIKE VERB AND NOUN)
001503: 40,3060           04674                           TC       POSTJUMP
001504: 40,3061           62566                           CADR     DSPDCEND   +2
001505:
001506:
001507:                                                                                                  #  READLO PICKS UP FRESH DATA FOR BOTH HI AND LO AND LEAVES IT IN
001508:                                                                                                  #  MPAC, MPAC+1. THIS IS NEEDED FOR TIME DISPLAY. IT ZEROES MPAC+2, BUT
001509:                                                                                                  #  DOES NOT FORCE TPAGREE.
001510:
001511: 40,3062           56002        READLO             XCH      Q
001512: 40,3063           54144                           TS       TEM4
001513: 40,3064           50140                           INDEX    MIXBR
001514: 40,3065           03065                           TC       +0
001515: 40,3066           03102                           TC       RDLONOR
001516: 40,3067           50117                           INDEX    DECOUNT
001517: 40,3070           30150                           CA       IDAD1TEM                              #  GET IDADDTAB ENTRY FOR COMP K OF NOUN.
001518: 40,3071           74370                           MASK     LOW11                                 #  E SUBK
001519: 40,3072           04325                           TC       SETEBANK                              #  SET EB, LEAVE EADRES IN A.
001520: 40,3073           00006        READLO1            EXTEND                                         #  MIXED         NORMAL
001521: 40,3074           50000                           INDEX    A                                     #  C(ESUBK)      C(E)
001522: 40,3075           30001                           DCA      0                                     #  C((E SUBK)+1)      C(E+1)
001523: 40,3076           52155                           DXCH     MPAC
001524: 40,3077           35030                           CAF      ZERO
001525: 40,3100           54156                           TS       MPAC       +2
001526: 40,3101           00144                           TC       TEM4
001527: 40,3102           30145        RDLONOR            CA       NOUNADD                               #  E
001528: 40,3103           03073        ENDRDLO            TC       READLO1
001529:
001530:
001531: 42,3205                                           BANK     42
001532: 42,2000                                           SETLOC   PINBALL3
001533: 42,2000                                           BANK
001534:
001535: 42,3205                                           COUNT*   $$/PIN
001536: 42,3205           04655        HMSOUT             TC       BANKCALL                              #  READ FRESH DATA FOR HI AND LO INTO MPAC,
001537: 42,3206           61062                           CADR     READLO                                #  MPAC+1.
001538: 42,3207           07231                           TC       TPAGREE                               #  MAKE DP DATA AGREE
001539: 42,3210           03374                           TC       SEPSECNR                              #  LEAVE FRACT SEC/60 IN MPAC, MPAC+1.LEAVE
001540:                                                                                                  #  WHOLE MIN IN BIT13 OF LOTEMOUT AND ABOVE
001541: 42,3211           07057                           TC       DMP                                   #  USE ONLY FRACT SEC/60 MOD 60
001542: 42,3212           03246                           ADRES    SECON2                                #  MULT BY .06
001543: 42,3213           34333                           CAF      R3D1                                  #  GIVES CENTI-SEC/10EXP5 MOD 60
001544: 42,3214           55000                           TS       DSPCOUNT
001545: 42,3215           04655                           TC       BANKCALL                              #  DISPLAY SEC MOD 60
001546: 42,3216           61341                           CADR     DSPDECWD
001547: 42,3217           03412                           TC       SEPMIN                                #  REMOVE REST OF SECONDS
001548: 42,3220           33250                           CAF      MINCON2                               #  LEAVE FRACT MIN/60 IN MPAC+1. LEAVE
001549: 42,3221           56154                           XCH      MPAC                                  #  WHOLE HOURS IN MPAC.
001550: 42,3222           55010                           TS       HITEMOUT                              #  SAVE WHOLE HOURS.
001551: 42,3223           33251                           CAF      MINCON2    +1
001552: 42,3224           56155                           XCH      MPAC       +1                         #  USE ONLY FRACT MIN/60 MOD 60
001553: 42,3225           04427                           TC       PRSHRTMP                              #  IF C(A) = -0, SHORTMP FAILS TO GIVE -0.
001554:                                                                                                  #  MULT BY .0006
001555: 42,3226           34332                           CAF      R2D1                                  #  GIVES MIN/10EXP5 MOD 60
001556: 42,3227           55000                           TS       DSPCOUNT
001557: 42,3230           04655                           TC       BANKCALL                              #  DISPLAY MIN MOD 60
001558: 42,3231           61341                           CADR     DSPDECWD
001559: 42,3232           00006                           EXTEND                                         #  MINUTES, SECONDS HAVE BEEN REMOVED
001560: 42,3233           33255                           DCA      HRCON1
001561: 42,3234           52155                           DXCH     MPAC
001562: 42,3235           31010                           CA       HITEMOUT                              #  USE WHOLE HOURS
001563: 42,3236           04427                           TC       PRSHRTMP                              #  IF C(A) = -0, SHORTMP FAILS TO GIVE -0.
001564:                                                                                                  #  MULT BY .16384
001565: 42,3237           34331                           CAF      R1D1                                  #  GIVES HOURS/10EXP5
001566: 42,3240           55000                           TS       DSPCOUNT
001567: 42,3241           04655                           TC       BANKCALL                              #  USE REGULAR DSPDECWD, WITH ROUND OFF.
001568: 42,3242           61341                           CADR     DSPDECWD
001569: 42,3243           00136                           TC       ENTEXIT
001570:
001571: 42,3244           25660 31742  SECON1             2DEC*    1.666666666 E-4        B12*            #   2EXP12/6000
001572:
001573: 42,3246           01727        SECON2             OCT      01727                                 #  .06 FOR SECONDS DISPLAY
001574: 42,3247           01217                           OCT      01217
001575: 42,3250           00011        MINCON2            OCT      00011                                 #  .0006 FOR MINUTES DISLPAY
001576: 42,3251           32445                           OCT      32445
001577: 42,3252           02104        MINCON1            OCT      02104                                 #  .066..66 UPPED BY 2EXP-28
001578: 42,3253           10422                           OCT      10422
001579: 42,3254           05174 13261  HRCON1             2DEC     .16384
001580:
001581: 42,3256           00000                           OCT      00000
001582: 42,3257           00062        RNDCON             OCT      00062                                 #  .5 SEC
001583:
001584:
001585: 42,3260           04655        M/SOUT             TC       BANKCALL                              #  READ FRESH DATA FOR HI AND LO INTO MPAC,
001586: 42,3261           61062                           CADR     READLO                                #  MPAC+1.
001587: 42,3262           07231                           TC       TPAGREE                               #  MAKE DP DATA AGREE
001588: 42,3263           10154                           CCS      MPAC                                  #  IF MAG OF (MPAC, MPAC+1) G/ 59 M 59 S,
001589: 42,3264           03266                           TC       +2                                    #  DISPLAY 59B59, WITH PROPER SIGN.
001590: 42,3265           03317                           TC       M/SNORM                               #  MPAC = +0. L/ 59M58.5S
001591: 42,3266           63354                           AD       M/SCON1                               #  - HI PART OF (59M58.5S) +1  FOR CCS
001592: 42,3267           10000                           CCS      A                                     #  MAG OF MPAC - HI PART OF (59M58.5S)
001593: 42,3270           03303                           TC       M/SLIMIT                              #  G/ 59M58.5S
001594: 42,3271           03317                           TC       M/SNORM                               #  ORIGINAL MPAC = -0. L/ 59M58.5S
001595: 42,3272           03317                           TC       M/SNORM                               #  L/ 59M58.5S
001596: 42,3273           10155                           CCS      MPAC       +1                         #  MAG OF MPAC = HI PART OF 59M58.5S
001597: 42,3274           03276                           TC       +2
001598: 42,3275           03317                           TC       M/SNORM                               #  MPAC+1 = +0. L/ 59M58.5S
001599: 42,3276           63355                           AD       M/SCON2                               #  - LO PART OF (59M58.5S) +1  FOR CCS
001600: 42,3277           10000                           CCS      A                                     #  MAG OF MPAC+1 - LO PART OF (59M58.5S)
001601: 42,3300           03303                           TC       M/SLIMIT                              #  G/ 59M58.5S
001602: 42,3301           03317                           TC       M/SNORM                               #  ORIGINAL MPAC+1 = -0. L/ 59M58.5S
001603: 42,3302           03317                           TC       M/SNORM                               #  L/ 59M58.5S
001604: 42,3303           10154        M/SLIMIT           CCS      MPAC                                  #  = 59M58.5S    LIMIT
001605: 42,3304           33357                           CAF      M/SCON3                               #  MPAC CANNOT BE +/- 0 AT THIS POINT.
001606: 42,3305           03314                           TC       +LIMIT                                #  FORCE MPAC, MPAC+1 TO +/- 59M59.5S
001607: 42,3306           43357                           CS       M/SCON3
001608: 42,3307           54154                           TS       MPAC                                  #  WILL DISPLAY 59M59S IN DSPDECNR
001609: 42,3310           43360                           CS       M/SCON3    +1
001610: 42,3311           54155        LIMITCOM           TS       MPAC       +1
001611: 42,3312           33356                           CAF      NORMADR                               #  SET RETURN TO M/SNORM+1.
001612: 42,3313           03375                           TC       SEPSECNR   +1
001613: 42,3314           54154        +LIMIT             TS       MPAC
001614: 42,3315           33360                           CAF      M/SCON3    +1
001615: 42,3316           03311                           TC       LIMITCOM
001616: 42,3317           03361        M/SNORM            TC       SEPSEC                                #  LEAVE FRACT SEC/60 IN MPAC,MPAC+1. LEAVE
001617:                                                                                                  #  WHOLE MIN IN BIT13 OF LOTEMOUT AND ABOVE
001618: 42,3320           33352                           CAF      HISECON                               #  USE ONLY FRACT SEC/60 MOD 60
001619: 42,3321           07261                           TC       SHORTMP                               #  MULT BY .6 + 2EXP-14
001620: 42,3322           46221                           CS       THREE                                 #  GIVES SEC/100 MOD 60
001621: 42,3323           27000                           ADS      DSPCOUNT                              #  DSPCOUNT ALREADY SET TO RXD1
001622: 42,3324           04655                           TC       BANKCALL                              #  DISPLAY SEC MOD 60 IN D4D5.
001623: 42,3325           61401                           CADR     DSPDC2NR
001624: 42,3326           35030                           CAF      ZERO
001625: 42,3327           54124                           TS       CODE
001626: 42,3330           45025                           CS       TWO
001627: 42,3331           50117                           INDEX    DECOUNT
001628: 42,3332           64331                           AD       R1D1                                  #  RXD3
001629: 42,3333           54143                           TS       COUNT
001630: 42,3334           04655                           TC       BANKCALL                              #  BLANK MIDDLE CHAR
001631: 42,3335           61435                           CADR     DSPIN
001632: 42,3336           03412                           TC       SEPMIN                                #  REMOVE REST OF SECONDS
001633: 42,3337           56155                           XCH      MPAC       +1                         #  LEAVE FRACT MIN/60 IN MPAC+1
001634: 42,3340           00006                           EXTEND                                         #  USE ONLY FRACT MIN/60 MOD 60
001635: 42,3341           73353                           MP       HIMINCON                              #  MULT BY .6 + 2EXP-7
001636: 42,3342           52155                           DXCH     MPAC                                  #  GIVES MIN/100 MOD 60
001637: 42,3343           50117                           INDEX    DECOUNT
001638: 42,3344           34331                           CAF      R1D1                                  #  RXD1
001639: 42,3345           55000                           TS       DSPCOUNT
001640: 42,3346           04655                           TC       BANKCALL                              #  DISPLAY MIN MOD 60 IN D1D2.
001641: 42,3347           61401                           CADR     DSPDC2NR
001642: 42,3350           04674                           TC       POSTJUMP
001643: 42,3351           62566                           CADR     DSPDCEND   +2
001644:
001645: 42,3352           23147        HISECON            OCT      23147                                 #  .6 + 2EXP-14
001646: 42,3353           23346        HIMINCON           OCT      23346                                 #  .6 + 2EXP-7
001647:
001648: 42,3354           77753        M/SCON1            OCT      77753                                 #  - HI PART OF (59M58.5S) +1
001649: 42,3355           41126        M/SCON2            OCT      41126                                 #  - LO PART OF (59M58.5S) +1
001650: 42,3356           03320        NORMADR            ADRES    M/SNORM    +1
001651: 42,3357           00025        M/SCON3            OCT      00025                                 #  59M 59.5S
001652: 42,3360           37016                           OCT      37016
001653:
001654:
001655: 42,3361           10155        SEPSEC             CCS      MPAC       +1                         #  IF +, ROUND BY ADDING .5 SEC
001656: 42,3362           13371                           TCF      POSEC                                 #  IF -, ROUND BY SUBTRACTING .5 SEC
001657: 42,3363           13371                           TCF      POSEC                                 #  FINDS TIME IN MPAC, MPAC+1
001658: 42,3364           13365                           TCF      +1                                    #  ROUNDS OFF BY +/- .5 SEC
001659: 42,3365           00006                           EXTEND                                         #  LEAVES WHOLE MIN IN BIT13 OF
001660: 42,3366           43257                           DCS      RNDCON     -1                         #  LOTEMOUT AND ABOVE.
001661: 42,3367           20155        SEPSEC1            DAS      MPAC                                  #  LEAVES FRACT SEC/60 IN MPAC, MPAC+1.
001662: 42,3370           13374                           TCF      SEPSECNR
001663: 42,3371           00006        POSEC              EXTEND
001664: 42,3372           33257                           DCA      RNDCON     -1
001665: 42,3373           13367                           TCF      SEPSEC1
001666: 42,3374           56002        SEPSECNR           XCH      Q                                     #  THIS ENTRY AVOIDS ROUNDING BY .5 SEC
001667: 42,3375           54144                           TS       SEPSCRET
001668: 42,3376           07057                           TC       DMP                                   #  MULT BY 2EXP12/6000
001669: 42,3377           03244                           ADRES    SECON1                                #  GIVES FRACT SEC/60 IN BIT12 OF MPAC+1
001670: 42,3400           00006                           EXTEND                                         #  AND BELOW.
001671: 42,3401           30155                           DCA      MPAC                                  #  SAVE MINUTES AND HOURS
001672: 42,3402           53011                           DXCH     HITEMOUT
001673: 42,3403           04416                           TC       TPSL1
001674: 42,3404           04416                           TC       TPSL1                                 #  GIVES FRACT SEC/60 IN MPAC+1, MPAC+2.
001675: 42,3405           35030                           CAF      ZERO
001676: 42,3406           56156                           XCH      MPAC       +2                         #  LEAVE FRACT SEC/60 IN MPAC, MPAC+1.
001677: 42,3407           56155                           XCH      MPAC       +1
001678: 42,3410           56154                           XCH      MPAC
001679: 42,3411           00144                           TC       SEPSCRET
001680:
001681:
001682: 42,3412           56002        SEPMIN             XCH      Q                                     #  FINDS WHOLE MINUTES IN BIT13
001683: 42,3413           54144                           TS       SEPMNRET                              #  OF LOTEMOUT AND ABOVE.
001684: 42,3414           31011                           CA       LOTEMOUT                              #  REMOVES REST OF SECONDS.
001685: 42,3415           00006                           EXTEND                                         #  LEAVES FRACT MIN/60 IN MPAC+1.
001686: 42,3416           75024                           MP       BIT3                                  #  LEAVES WHOLE HOURS IN MPAC.
001687: 42,3417           00006                           EXTEND                                         #  SR 12, THROW AWAY LP.
001688: 42,3420           75012                           MP       BIT13                                 #  SR 2, TAKE FROM LP. = SL 12.
001689: 42,3421           22155                           LXCH     MPAC       +1                         #  THIS FORCES BITS 12-1 TO 0 IF +,
001690:                                                                                                  #  FORCES BITS 12-1 TO 1 IF -.
001691: 42,3422           31010                           CA       HITEMOUT
001692: 42,3423           54154                           TS       MPAC
001693: 42,3424           07057                           TC       DMP                                   #  MULT BY 1/15
001694: 42,3425           03252                           ADRES    MINCON1                               #  GIVES FRACT MIN/60 IN MPAC+1.
001695: 42,3426           00144        ENDSPMIN           TC       SEPMNRET                              #  GIVES WHOLE HOURS IN MPAC.
001696:
001697:
001698:                                                                                                  #  THIS IS A SPECIAL PURPOSE VERB FOR DISPLAYING A DOUBLE PRECISION AGC
001699:                                                                                                  #  WORD AS 10 DECIMAL DIGITS ON THE AGC DISPLAY PANEL.  IT CAN BE USED WITH
001700:                                                                                                  #  ANY NOUN, EXCEPT MIXED NOUNS. IT DISPLAYS THE CONTENTS
001701:                                                                                                  #  OF THE REGISTER NOUNADD IS POINTING TO .  IF USED WITH NOUNS WHICH ARE
001702:                                                                                                  #  INHERENTLY NOT DP SUCH AS THE CDU COUNTERS THE DISPLAY WILL BE GARBAGE.
001703:                                                                                                  #  DISPLAY IS IN R1 AND R2 ONLY WITH THE SIGN IN R1.
001704:
001705:
001706: 40,3104                                           SETLOC   ENDRDLO    +1
001707:
001708: 40,3104                                           COUNT*   $$/PIN
001709: 40,3104           50140        DSPDPDEC           INDEX    MIXBR
001710: 40,3105           03105                           TC       +0
001711: 40,3106           03110                           TC       +2                                    #  NORMAL NOUN
001712: 40,3107           03533                           TC       DSPALARM
001713: 40,3110           00006                           EXTEND
001714: 40,3111           50145                           INDEX    NOUNADD
001715: 40,3112           30001                           DCA      0
001716: 40,3113           52155                           DXCH     MPAC
001717: 40,3114           34331                           CAF      R1D1
001718: 40,3115           55000                           TS       DSPCOUNT
001719: 40,3116           35030                           CAF      ZERO
001720: 40,3117           54156                           TS       MPAC       +2
001721: 40,3120           07231                           TC       TPAGREE
001722: 40,3121           03406                           TC       DSP2DEC
001723: 40,3122           00136        ENDDPDEC           TC       ENTEXIT
001724:
001725:                                                                                                  #  LOAD VERBS           IF ALARM CONDITION IS DETECTED DURING EXECUTE,
001726:                                                                                                  #  CHECK FAIL LIGHT IS TURNED ON AND ENDOFJOB. IF ALARM CONDITION IS
001727:                                                                                                  #  DETECTED DURING ENTER OF DATA, CHECK FAIL IS TURNED ON AND IT RECYCLES
001728:                                                                                                  #  TO EXECUTE  OF ORIGINAL LOAD VERB. RECYCLE CAUSED BY  1) DECIMAL MACHINE
001729:                                                                                                  #  CADR  2) MIXTURE OF OCTAL/DECIMAL DATA  3) OCTAL DATA INTO DECIMAL
001730:                                                                                                  #  ONLY NOUN  4) DEC DATA INTO OCT ONLY NOUN  5) DATA TOO LARGE FOR SCALE
001731:                                                                                                  #  6) FEWER THAN 3 DATA WORDS LOADED FOR HRS, MIN, SEC NOUN.8(2)-(6) ALARM
001732:                                                                                                  #  AND RECYCLE OCCUR AT FINAL ENTER OF SET. (1) ALARM AND RECYCLE OCCUR AT
001733:                                                                                                  #  ENTER OF CADR.
001734:
001735:
001736: 41,2614                                           SETLOC   ENDRTOUT
001737:
001738: 41,2614                                           COUNT*   $$/PIN
001739: 41,2614           45025        ABCLOAD            CS       TWO
001740: 41,2615           02424                           TC       COMPTEST
001741: 41,2616           02460                           TC       NOUNTEST                              #  TEST IF NOUN CAN BE LOADED.
001742: 41,2617           33003                           CAF      VBSP1LD
001743: 41,2620           02337                           TC       UPDATVB    -1
001744: 41,2621           02303                           TC       REQDATX
001745: 41,2622           33004                           CAF      VBSP2LD
001746: 41,2623           02337                           TC       UPDATVB    -1
001747: 41,2624           02305                           TC       REQDATY
001748: 41,2625           33005                           CAF      VBSP3LD
001749: 41,2626           02337                           TC       UPDATVB    -1
001750: 41,2627           02307                           TC       REQDATZ
001751:
001752:
001753: 41,2630           46216        PUTXYZ             CS       SIX                                   #  TEST THAT THE 3 DATA WORDS LOADED ARE
001754: 41,2631           03006                           TC       ALLDC/OC                              #  ALL DEC OR ALL OCT.
001755: 41,2632           00006                           EXTEND
001756: 41,2633           32114                           DCA      LODNNLOC                              #  SWITCH BANKS TO NOUN TABLE READING
001757: 41,2634           52006                           DXCH     Z                                     #  ROUTINE.
001758: 41,2635           35030                           CAF      ZERO                                  #  X COMP
001759: 41,2636           03072                           TC       PUTCOM
001760: 41,2637           50145                           INDEX    NOUNADD
001761: 41,2640           54000                           TS       0
001762: 41,2641           35026                           CAF      ONE                                   #  Y COMP
001763: 41,2642           03072                           TC       PUTCOM
001764: 41,2643           50145                           INDEX    NOUNADD
001765: 41,2644           54001                           TS       1
001766: 41,2645           35025                           CAF      TWO                                   #  Z COMP
001767: 41,2646           03072                           TC       PUTCOM
001768: 41,2647           50145                           INDEX    NOUNADD
001769: 41,2650           54002                           TS       2
001770: 41,2651           45032                           CS       SEVEN                                 #  IF NOUN 7 HAS JUST BEEN LOADED, SET
001771: 41,2652           61003                           AD       NOUNREG                               #   FLAG BITS AS SPECIFIED.
001772: 41,2653           00006                           EXTEND
001773: 41,2654           12656                           BZF      +2
001774: 41,2655           02773                           TC       LOADLV
001775: 41,2656           31004                           CA       XREG                                  #  ECADR OF FLAG WORD.
001776: 41,2657           04316                           TC       SETNCADR   +1                         #   SET EBANK, NOUNADD.
001777: 41,2660           31006                           CA       ZREG                                  #  ZERO TO RESET BITS, NON-ZERO TO SET BITS
001778: 41,2661           00004                           INHINT
001779: 41,2662           00006                           EXTEND
001780: 41,2663           12672                           BZF      BITSOFF
001781: 41,2664           50145                           INDEX    NOUNADD
001782: 41,2665           40000                           CS       0
001783: 41,2666           71005                           MASK     YREG                                  #  BITS TO BE PROCESSED.
001784: 41,2667           50145                           INDEX    NOUNADD
001785: 41,2670           26000                           ADS      0                                     #  SET BITS.
001786: 41,2671           02677                           TC       BITSOFF1
001787: 41,2672           41005        BITSOFF            CS       YREG                                  #  BITS TO BE PROCESSED.
001788: 41,2673           50145                           INDEX    NOUNADD
001789: 41,2674           70000                           MASK     0
001790: 41,2675           50145                           INDEX    NOUNADD
001791: 41,2676           54000                           TS       0                                     #  RESET BITS.
001792: 41,2677           00003        BITSOFF1           RELINT
001793: 41,2700           02773                           TC       LOADLV
001794:
001795: 41,2701           45026        ABLOAD             CS       ONE
001796: 41,2702           02424                           TC       COMPTEST
001797: 41,2703           02460                           TC       NOUNTEST                              #  TEST IF NOUN CAN BE LOADED.
001798: 41,2704           33003                           CAF      VBSP1LD
001799: 41,2705           02337                           TC       UPDATVB    -1
001800: 41,2706           02303                           TC       REQDATX
001801: 41,2707           33004                           CAF      VBSP2LD
001802: 41,2710           02337                           TC       UPDATVB    -1
001803: 41,2711           02305                           TC       REQDATY
001804: 41,2712           45031        PUTXY              CS       FIVE                                  #  TEST THAT THE 2 DATA WORDS LOADED ARE
001805: 41,2713           03006                           TC       ALLDC/OC                              #  ALL DEC OR ALL OCT.
001806: 41,2714           00006                           EXTEND
001807: 41,2715           32114                           DCA      LODNNLOC                              #  SWITCH BANKS TO NOUN TABLE READING
001808: 41,2716           52006                           DXCH     Z                                     #  ROUTINE.
001809: 41,2717           35030                           CAF      ZERO                                  #  X COMP
001810: 41,2720           03072                           TC       PUTCOM
001811: 41,2721           50145                           INDEX    NOUNADD
001812: 41,2722           54000                           TS       0
001813: 41,2723           35026                           CAF      ONE                                   #  Y COMP
001814: 41,2724           03072                           TC       PUTCOM
001815: 41,2725           50145                           INDEX    NOUNADD
001816: 41,2726           54001                           TS       1
001817: 41,2727           02773                           TC       LOADLV
001818:
001819: 41,2730           02303        ALOAD              TC       REQDATX
001820: 41,2731           00006                           EXTEND
001821: 41,2732           32114                           DCA      LODNNLOC                              #  SWITCH BANKS TO NOUN TABLE READING
001822: 41,2733           52006                           DXCH     Z                                     #  ROUTINE.
001823: 41,2734           35030                           CAF      ZERO                                  #  X COMP
001824: 41,2735           03072                           TC       PUTCOM
001825: 41,2736           50145                           INDEX    NOUNADD
001826: 41,2737           54000                           TS       0
001827: 41,2740           02773                           TC       LOADLV
001828:
001829: 41,2741           45026        BLOAD              CS       ONE
001830: 41,2742           02424                           TC       COMPTEST
001831: 41,2743           35010                           CAF      BIT15                                 #  SET CLPASS FOR PASS0 ONLY
001832: 41,2744           55016                           TS       CLPASS
001833: 41,2745           02305                           TC       REQDATY
001834: 41,2746           00006                           EXTEND
001835: 41,2747           32114                           DCA      LODNNLOC                              #  SWITCH BANKS TO NOUN TABLE READING
001836: 41,2750           52006                           DXCH     Z                                     #  ROUTINE.
001837: 41,2751           35026                           CAF      ONE
001838: 41,2752           03072                           TC       PUTCOM
001839: 41,2753           50145                           INDEX    NOUNADD
001840: 41,2754           54001                           TS       1
001841: 41,2755           02773                           TC       LOADLV
001842:
001843: 41,2756           45025        CLOAD              CS       TWO
001844: 41,2757           02424                           TC       COMPTEST
001845: 41,2760           35010                           CAF      BIT15                                 #  SET CLPASS FOR PASS0 ONLY
001846: 41,2761           55016                           TS       CLPASS
001847: 41,2762           02307                           TC       REQDATZ
001848: 41,2763           00006                           EXTEND
001849: 41,2764           32114                           DCA      LODNNLOC                              #  SWITCH BANKS TO NOUN TABLE READING
001850: 41,2765           52006                           DXCH     Z                                     #  ROUTINE.
001851: 41,2766           35025                           CAF      TWO
001852: 41,2767           03072                           TC       PUTCOM
001853: 41,2770           50145                           INDEX    NOUNADD
001854: 41,2771           54002                           TS       2
001855: 41,2772           02773                           TC       LOADLV
001856:
001857: 41,2773           35030        LOADLV             CAF      ZERO
001858: 41,2774           55001                           TS       DECBRNCH
001859: 41,2775           45030                           CS       ZERO
001860: 41,2776           55015                           TS       LOADSTAT
001861: 41,2777           44372                           CS       VD1                                   #  TO BLOCK NUMERICAL CHARACTERS AND
001862: 41,3000           55000                           TS       DSPCOUNT                              #  CLEARS AFTER A COMPLETED LOAD
001863: 41,3001           04674                           TC       POSTJUMP                              #  AFTER COMPLETED LOAD, GO TO RECALTST
001864: 41,3002           61651                           CADR     RECALTST                              #  TO SEE IF THERE IS RECALL FROM ENDIDLE.
001865:
001866: 41,3003           00025        VBSP1LD            DEC      21         B-14                       #  VB21 = ALOAD
001867: 41,3004           00026        VBSP2LD            DEC      22         B-14                       #  VB22 = BLOAD
001868: 41,3005           00027        VBSP3LD            DEC      23         B-14                       #  VB23 = CLOAD
001869:
001870:
001871: 41,3006           54117        ALLDC/OC           TS       DECOUNT                               #  TESTS THAT DATA WORDS LOADED ARE EITHER
001872: 41,3007           41001                           CS       DECBRNCH                              #  ALL DEC OR ALL OCT. ALARMS IF NOT.
001873: 41,3010           54021                           TS       SR
001874: 41,3011           40021                           CS       SR
001875: 41,3012           40021                           CS       SR                                    #  SHIFTED RIGHT 2
001876: 41,3013           10000                           CCS      A                                     #  DEC COMP BITS IN LOW 3
001877: 41,3014           13016                           TCF      +2                                    #  SOME ONES IN LOW 3
001878: 41,3015           00002                           TC       Q                                     #  ALL ZEROS. ALL OCTAL.  OK
001879: 41,3016           60117                           AD       DECOUNT                               #  DEC COMP = 7 FOR 3COMP, =6 FOR 2COMP
001880: 41,3017           00006                           EXTEND                                         #  (BUT IT HAS BEEN DECREMENTED BY CCS)
001881: 41,3020           13022                           BZF      +2                                    #  MUST MATCH 6 FOR 3COMP, 5 FOR 2COMP.
001882: 41,3021           04157                           TC       ALMCYCLE                              #  ALARM AND RECYCLE.
001883: 41,3022           00002        GOQ                TC       Q                                     #  ALL REQUIRED ARE DEC.  OK
001884:
001885:
001886: 41,3023           56002        SFRUTNOR           XCH      Q                                     #  GETS SF ROUTINE NUMBER FOR NORMAL CASE
001887: 41,3024           54114                           TS       EXITEM                                #  CANT USE L FOR RETURN. TSTFORDP USES L.
001888: 41,3025           34361                           CAF      MID5
001889: 41,3026           70147                           MASK     NNTYPTEM
001890: 41,3027           04334                           TC       RIGHT5
001891: 41,3030           00114                           TC       EXITEM                                #  SF ROUTINE NUMBER IN A
001892:
001893: 41,3031           56002        SFRUTMIX           XCH      Q                                     #  GETS SF ROUTINE NUMBER FOR MIXED CASE
001894: 41,3032           54114                           TS       EXITEM
001895: 41,3033           50117                           INDEX    DECOUNT
001896: 41,3034           33063                           CAF      DISPLACE                              #  PUT TC GOQ, TC RIGHT5, OR TC LEFT5 IN L
001897: 41,3035           54001                           TS       L
001898: 41,3036           50117                           INDEX    DECOUNT
001899: 41,3037           34360                           CAF      LOW5                                  #  LOW5, MID5, OR HI5 IN A
001900: 41,3040           70153                           MASK     RUTMXTEM                              #  GET HI5, MID5, OR LOW5 OF RUTMXTAB ENTRY
001901: 41,3041           50001                           INDEX    L
001902: 41,3042           00000                           TC       0
001903:                                                                                                  #  DO TC GOQ(DECOUNT=0), DO TC RIGHT5(DECOUNT=1), DO TC LEFT5(DECOUNT=2).
001904: 41,3043           00114        SFRET1             TC       EXITEM                                #  SF ROUTINE NUMBER IN A
001905:
001906: 41,3044           56002        SFCONUM            XCH      Q                                     #  GETS 2X(SF CONSTANT NUMBER)
001907: 41,3045           54114                           TS       EXITEM
001908: 41,3046           50140                           INDEX    MIXBR
001909: 41,3047           03047                           TC       +0
001910: 41,3050           03066                           TC       CONUMNOR                              #  NORMAL NOUN
001911: 41,3051           50117                           INDEX    DECOUNT                               #  MIXED NOUN
001912: 41,3052           33063                           CAF      DISPLACE
001913: 41,3053           54001                           TS       L                                     #  PUT TC GOQ, TC RIGHT5, OR TC LEFT5 IN L
001914: 41,3054           50117                           INDEX    DECOUNT
001915: 41,3055           34360                           CAF      LOW5
001916: 41,3056           70147                           MASK     NNTYPTEM
001917: 41,3057           50001                           INDEX    L
001918: 41,3060           00000                           TC       0
001919:                                                                                                  #  DO TC GOQ(DECOUNT=0), DO TC RIGHT5(DECOUNT=1), DO TC LEFT5(DECOUNT=2).
001920: 41,3061           60000        SFRET              DOUBLE                                         #  2X(SF CONSTANT NUMBER ) IN A
001921: 41,3062           00114                           TC       EXITEM
001922:
001923: 41,3063           03022        DISPLACE           TC       GOQ
001924: 41,3064           04334                           TC       RIGHT5
001925: 41,3065           04343                           TC       LEFT5
001926:
001927: 41,3066           34360        CONUMNOR           CAF      LOW5                                  #  NORMAL NOUN ALWAYS GETS LOW 5 OF
001928: 41,3067           70147                           MASK     NNTYPTEM                              #  NNTYPTAB FOR SF CONUM.
001929: 41,3070           60000                           DOUBLE
001930: 41,3071           00114                           TC       EXITEM                                #  2X( SF CONSTANT NUMBER) IN A
001931:
001932:
001933: 41,3072           54117        PUTCOM             TS       DECOUNT
001934: 41,3073           56002                           XCH      Q
001935: 41,3074           54115                           TS       DECRET
001936: 41,3075           35030                           CAF      ZERO
001937: 41,3076           54162                           TS       MPAC+6
001938: 41,3077           50117                           INDEX    DECOUNT
001939: 41,3100           57007                           XCH      XREGLP
001940: 41,3101           54155                           TS       MPAC       +1
001941: 41,3102           50117                           INDEX    DECOUNT
001942: 41,3103           57004                           XCH      XREG
001943: 41,3104           54154                           TS       MPAC
001944: 41,3105           50140                           INDEX    MIXBR
001945: 41,3106           03106                           TC       +0
001946: 41,3107           03134                           TC       PUTNORM                               #  NORMAL NOUN
001947:                                                                                                  #  IF MIXNOUN, PLACE ADDRESS FOR COMPONENT K INTO NOUNADD, SET EBANK BITS.
001948: 41,3110           50117                           INDEX    DECOUNT                               #  GET IDADDTAB ENTRY FOR COMPONENT K
001949: 41,3111           30150                           CA       IDAD1TEM                              #          OF NOUN.
001950: 41,3112           74370                           MASK     LOW11                                 #  (ECADR)SUBK FOR CURRENT COMP OF NOUN
001951: 41,3113           04315                           TC       SETNCADR                              #  ECADR INTO NOUNCADR. SETS EB, NOUNADD.
001952: 41,3114           00006                           EXTEND                                         #  C(NOUNADD) IN A UPON RETURN
001953: 41,3115           60117                           SU       DECOUNT                               #  PLACE (ESUBK)-K INTO NOUNADD
001954: 41,3116           54145                           TS       NOUNADD
001955: 41,3117           11001                           CCS      DECBRNCH
001956: 41,3120           03167                           TC       PUTDECSF                              #  +  DEC
001957: 41,3121           02452                           TC       DCTSTCYC                              #  +0 OCTAL
001958: 41,3122           03031                           TC       SFRUTMIX                              #  TEST IF DEC ONLY BIT = 1. IF SO,
001959: 41,3123           02261                           TC       DPTEST                                #  ALARM AND RECYCLE. IF NOT, CONTINUE.
001960: 41,3124           03152                           TC       PUTCOM2                               #  NO DP
001961:                                                                                                  #  TEST FOR DP SCALE FOR OCT LOAD. IF SO,
001962:                                                                                                  #  +0 INTO MAJOR PART. SET NOUNADD FOR
001963:                                                                                                  #  LOADING OCTAL WORD INTO MINOR PART.
001964: 41,3125           24145        PUTDPCOM           INCR     NOUNADD                               #  DP  (ESUBK)-K+1  OR  E+1
001965: 41,3126           30145                           CA       NOUNADD                               #  NOUNADD NOW SET FOR MINOR PART
001966: 41,3127           26117                           ADS      DECOUNT                               #  (ESUBK)+1  OR  E+1  INTO DECOUNT
001967: 41,3130           35030                           CAF      ZERO                                  #  NOUNADD SET FOR MINOR PART
001968: 41,3131           50117                           INDEX    DECOUNT
001969: 41,3132           53777                           TS       0          -1                         #  ZERO MAJOR PART(ESUBK OR E)
001970: 41,3133           03152                           TC       PUTCOM2
001971:
001972: 41,3134           04323        PUTNORM            TC       SETNADD                               #  ECADR FROM NOUNCADR. SETS EB, NOUNADD.
001973: 41,3135           11001                           CCS      DECBRNCH
001974: 41,3136           03167                           TC       PUTDECSF                              #  +  DEC
001975: 41,3137           02452                           TC       DCTSTCYC                              #  +0 OCTAL
001976: 41,3140           03023                           TC       SFRUTNOR                              #  TEST IF DEC ONLY BIT = 1. IF SO,
001977: 41,3141           02261                           TC       DPTEST                                #  ALARM AND RECYCLE. IF NOT, CONTINUE.
001978: 41,3142           03146                           TC       PUTCOM2    -4                         #  NO DP
001979: 41,3143           35030                           CAF      ZERO                                  #  DP
001980: 41,3144           54117                           TS       DECOUNT
001981: 41,3145           03125                           TC       PUTDPCOM
001982:
001983: 41,3146           30146                           CA       NNADTEM
001984: 41,3147           65026                           AD       ONE                                   #  IF NNADTEM = -1, CHANNEL TO BE SPECIFIED
001985: 41,3150           00006                           EXTEND
001986: 41,3151           13156                           BZF      CHANLOAD
001987: 41,3152           56154        PUTCOM2            XCH      MPAC
001988: 41,3153           00115                           TC       DECRET
001989:
001990: 41,3154     1000                                  EBANK=   DSPCOUNT
001991: 41,3154           02130 64102  GTSFINLC           2CADR    GTSFIN
001992:
001993:
001994:
001995: 41,3156           45032        CHANLOAD           CS       SEVEN                                 #  DONT LOAD CHAN 7. (IT = SUPERBANK).
001996: 41,3157           61020                           AD       NOUNCADR
001997: 41,3160           00006                           EXTEND
001998: 41,3161           12773                           BZF      LOADLV
001999: 41,3162           30154                           CA       MPAC
002000: 41,3163           00006                           EXTEND
002001: 41,3164           51020                           INDEX    NOUNCADR
002002: 41,3165           01000                           WRITE    0
002003: 41,3166           02773                           TC       LOADLV
002004:
002005:
002006:                                                                                                  #  PUTDECSF FINDS MIXBR AND DECOUNT STILL SET FROM PUTCOM
002007:
002008: 41,3167           03044        PUTDECSF           TC       SFCONUM                               #  2X(SF CON NUMB) IN A
002009: 41,3170           54123                           TS       SFTEMP1
002010: 41,3171           00006                           EXTEND                                         #  SWITCH BANKS TO SF CONSTANT TABLE
002011: 41,3172           33155                           DCA      GTSFINLC                              #  READING ROUTINE.
002012: 41,3173           52006                           DXCH     Z                                     #  LOADS SFTEMP1, SFTEMP2.
002013: 41,3174           50140                           INDEX    MIXBR
002014: 41,3175           03175                           TC       +0
002015: 41,3176           03201                           TC       PUTSFNOR
002016: 41,3177           03031                           TC       SFRUTMIX
002017: 41,3200           03202                           TC       PUTDCSF2
002018: 41,3201           03023        PUTSFNOR           TC       SFRUTNOR
002019:
002020: 41,3202           50000        PUTDCSF2           INDEX    A
002021: 41,3203           33205                           CAF      SFINTABR
002022: 41,3204           04677                           TC       BANKJUMP                              #  SWITCH BANKS FOR EXPANSHION ROOM
002023: 41,3205           62350        SFINTABR           CADR     GOALMCYC                              #  ALARM AND RECYCLE IF DEC LOAD
002024:                                                                                                  #  WITH OCTAL ONLY NOUN.
002025: 41,3206           61221                           CADR     BINROUND
002026: 41,3207           61123                           CADR     DEGINSF
002027: 41,3210           61211                           CADR     ARTHINSF
002028: 41,3211           61227                           CADR     DPINSF
002029: 41,3212           61254                           CADR     DPINSF2
002030: 41,3213           61533                           CADR     DSPALARM                              #  LRPOSOUT CANT BE LOADED.
002031: 41,3214           61227                           CADR     DPINSF                                #  SAME AS ARITHDP1
002032: 41,3215           65427                           CADR     HMSIN
002033: 41,3216           61533                           CADR     DSPALARM                              #  MIN/SEC CANT BE LOADED.
002034: 41,3217           61261                           CADR     DPINSF4
002035: 41,3220           61224                           CADR     ARTIN1SF
002036: 41,3221           61533                           CADR     DSPALARM                              #  2INTOUT CANT BE LOADED.
002037: 41,3222           61123                           CADR     DEGINSF                               #  TESTS AT END FOR 360-CDU
002038: 41,3223                        ENDRUTIN           EQUALS
002039:
002040:
002041:                                                                                                  #  SCALE FACTORS FOR THOSE ROUTINES NEEDING THEM ARE AVAILABLE IN SFTEMP1.
002042:                                                                                                  #  ALL SFIN ROUTINES USE MPAC MPAC+1. LEAVE RESULT IN A. END WITH TC DECRET
002043:
002044:
002045: 40,3123                                           SETLOC   ENDDPDEC   +1
002046:
002047: 40,3123                                           COUNT*   $$/PIN
002048:                                                                                                  #  DEGINSF APPLIES 1000/180 =5.55555(10) = 5.43434(8)
002049:
002050: 40,3123           07057        DEGINSF            TC       DMP                                   #  SF ROUTINE FOR DEC DEGREES
002051: 40,3124           03207                           ADRES    DEGCON1                               #  MULT BY 5.5  5(10)X2EXP-3
002052: 40,3125           10155                           CCS      MPAC       +1                         #  THIS ROUNDS OFF MPAC+1 BEFORE SHIFT
002053: 40,3126           35014                           CAF      BIT11                                 #  LEFT 3, AND CAUSES 360.00 TO OF/UF
002054: 40,3127           03131                           TC       +2                                    #  WHEN SHIFTED LEFT AND ALARM.
002055: 40,3130           45014                           CS       BIT11
002056: 40,3131           60155                           AD       MPAC       +1
002057: 40,3132           03300                           TC       2ROUND     +2
002058: 40,3133           04416                           TC       TPSL1                                 #  LEFT 1
002059: 40,3134           04416        DEGINSF2           TC       TPSL1                                 #  LEFT 2
002060: 40,3135           03307                           TC       TESTOFUF
002061: 40,3136           04416                           TC       TPSL1                                 #  RETURNS IF NO OF/UF (LEFT3)
002062: 40,3137           10154                           CCS      MPAC
002063: 40,3140           03144                           TC       SIGNFIX                               #  IF+, GO TO SIGNFIX
002064: 40,3141           03144                           TC       SIGNFIX                               #  IF +0, GO TO SIGNFIX
002065: 40,3142           40000                           COM                                            #  IF -,  USE -MAGNITUDE +1
002066: 40,3143           54154                           TS       MPAC                                  #  IF -0, USE +0
002067: 40,3144           10162        SIGNFIX            CCS      MPAC+6
002068: 40,3145           03203                           TC       SGNTO1                                #  IF OVERFLOW
002069: 40,3146           03156                           TC       ENDSCALE                              #  NO OVERFLOW/UNDERFLOW
002070: 40,3147           10154                           CCS      MPAC                                  #  IF UF FORCE SIGN TO 0 EXCEPT -180
002071: 40,3150           05723                           TC       CCSHOLE
002072: 40,3151           03201                           TC       NEG180
002073: 40,3152           03153                           TC       +1
002074: 40,3153           56154                           XCH      MPAC
002075: 40,3154           75006                           MASK     POSMAX
002076: 40,3155           54154                           TS       MPAC
002077: 40,3156           50140        ENDSCALE           INDEX    MIXBR                                 #  IF ROUTINE NO. IS NOT CDU DEGREES,
002078: 40,3157           03157                           TC       +0                                    #   THEN THIS IS 360 - CDU DEGREES
002079: 40,3160           03163                           TC       +3                                    #   AND ANGLE IN MPAC MUST BE REPLACED
002080: 40,3161           03173                           TC       SFMIXCAL                              #   BY 360 DEGREES MINUS ITSELF.
002081: 40,3162           03164        MIXBACK            TC       +2
002082: 40,3163           03176                           TC       SFNORCAL
002083: 40,3164           40000        NORBACK            CS       A
002084: 40,3165           65025                           AD       BIT2
002085: 40,3166           00006                           EXTEND
002086: 40,3167           13171                           BZF      +2
002087: 40,3170           02740                           TC       360-CDU
002088: 40,3171           04674        ENDSCAL1           TC       POSTJUMP
002089: 40,3172           63152                           CADR     PUTCOM2
002090:
002091: 40,3173           04655        SFMIXCAL           TC       BANKCALL
002092: 40,3174           63031                           CADR     SFRUTMIX
002093: 40,3175           03162                           TC       MIXBACK
002094:
002095: 40,3176           04655        SFNORCAL           TC       BANKCALL
002096: 40,3177           63023                           CADR     SFRUTNOR
002097: 40,3200           03164                           TC       NORBACK
002098:
002099: 40,3201           45006        NEG180             CS       POSMAX
002100: 40,3202           03155                           TC       ENDSCALE   -1
002101:
002102: 40,3203           40154        SGNTO1             CS       MPAC                                  #  IF OF FORCE SIGN TO 1
002103: 40,3204           75006                           MASK     POSMAX
002104: 40,3205           40000                           CS       A
002105: 40,3206           03155                           TC       ENDSCALE   -1
002106:
002107: 40,3207           26161 30707  DEGCON1            2DEC     5.555555555 B-3
002108:
002109:
002110: 40,3211           07057        ARTHINSF           TC       DMP                                   #  SCALES MPAC, +1 BY SFTEMP1, SFTEMP2.
002111: 40,3212           00123                           ADRES    SFTEMP1                               #  ASSUMES POINT BETWEEN HI AND LO PARTS
002112: 40,3213           56156                           XCH      MPAC       +2                         #  OF SFCON. SHIFTS RESULTS LEFT BY 14.
002113: 40,3214           56155                           XCH      MPAC       +1                         #  (BY TAKING RESULTS FROM MPAC+1, MPAC+2)
002114: 40,3215           56154                           XCH      MPAC
002115: 40,3216           00006                           EXTEND
002116: 40,3217           13221                           BZF      BINROUND
002117: 40,3220           04157                           TC       ALMCYCLE                              #  TOO LARGE A LOAD. ALARM AND RECYCLE.
002118: 40,3221           03276        BINROUND           TC       2ROUND
002119: 40,3222           03307                           TC       TESTOFUF
002120: 40,3223           03171                           TC       ENDSCAL1                              #  RETURNS IF NO OF/UF
002121:
002122: 40,3224           07057        ARTIN1SF           TC       DMP                                   #  SCALES MPAC, +1 BY SFTEMP1, SFTEMP2.
002123: 40,3225           00123                           ADRES    SFTEMP1                               #  ROUNDS MPAC+1 INTO MPAC.
002124: 40,3226           03221                           TC       BINROUND
002125:
002126:
002127: 40,3227           07057        DPINSF             TC       DMP                                   #  SCALES MPAC, MPAC +1 BY SFTEMP1,
002128: 40,3230           00123                           ADRES    SFTEMP1                               #  SFTEMP2.  STORES LOW PART OF RESULT
002129: 40,3231           56156                           XCH      MPAC       +2                         #  IN (E SUBK) +1 OR E+1
002130: 40,3232           60000                           DOUBLE
002131: 40,3233           54156                           TS       MPAC       +2
002132: 40,3234           35030                           CAF      ZERO
002133: 40,3235           60155                           AD       MPAC       +1
002134: 40,3236           03300                           TC       2ROUND     +2
002135: 40,3237           03307                           TC       TESTOFUF
002136: 40,3240           50140                           INDEX    MIXBR                                 #  RETURNS IF NO OF/UF
002137: 40,3241           03241                           TC       +0
002138: 40,3242           03252                           TC       DPINORM
002139: 40,3243           30117                           CA       DECOUNT                               #  MIXED NOUN
002140: 40,3244           60145        DPINCOM            AD       NOUNADD                               #       MIXED              NORMAL
002141: 40,3245           54002                           TS       Q                                     #    E SUBK            E
002142: 40,3246           56155                           XCH      MPAC       +1
002143: 40,3247           50002                           INDEX    Q
002144: 40,3250           54001                           TS       1                                     #  PLACE LOW PART IN
002145: 40,3251           03171                           TC       ENDSCAL1                              #  (E SUBK) +1    MIXED
002146:
002147: 40,3252           35030        DPINORM            CAF      ZERO                                  #  E +1         NORMAL
002148: 40,3253           03244                           TC       DPINCOM
002149:
002150:
002151: 40,3254           07057        DPINSF2            TC       DMP                                   #  ASSUMES POINT BETWEEN BITS 7-8 OF HIGH
002152: 40,3255           00123                           ADRES    SFTEMP1                               #  PART OF SF CONST. DPINSF2 SHIFTS RESULTS
002153: 40,3256           36216                           CAF      SIX                                   #  LEFT BY 7, ROUNDS MPAC+2 INTO MPAC+1
002154: 40,3257           03266                           TC       TPLEFTN                               #  SHIFT LEFT 7.
002155: 40,3260           03231                           TC       DPINSF     +2
002156:
002157: 40,3261           07057        DPINSF4            TC       DMP                                   #  ASSUMES POINT BETWEEN BITS 11-12 OF HIGH
002158: 40,3262           00123                           ADRES    SFTEMP1                               #  PART OF SF CONST. DPINSF2 SHIFTS RESULTS
002159: 40,3263           35025                           CAF      TWO                                   #  LEFT BY 3, ROUNDS MPAC+2 INTO MPAC+1.
002160: 40,3264           03266                           TC       TPLEFTN                               #  SHIFT LEFT 3.
002161: 40,3265           03231                           TC       DPINSF     +2
002162:
002163:
002164: 40,3266           56002        TPLEFTN            XCH      Q                                     #  SHIFTS MPAC, +1, +2 LEFT N. SETS OVFIND
002165: 40,3267           54124                           TS       SFTEMP2                               #  TO +1 FOR OF, -1 FOR UF.
002166: 40,3270           56002                           XCH      Q                                     #  CALL WITH N-1 IN A.
002167: 40,3271           54123        LEFTNCOM           TS       SFTEMP1                               #      LOOP TIME .37 MSEC.
002168: 40,3272           04416                           TC       TPSL1
002169: 40,3273           10123                           CCS      SFTEMP1
002170: 40,3274           03271                           TC       LEFTNCOM
002171: 40,3275           00124                           TC       SFTEMP2
002172:
002173:
002174: 40,3276           56155        2ROUND             XCH      MPAC       +1
002175: 40,3277           60000                           DOUBLE
002176: 40,3300           54155                           TS       MPAC       +1
002177: 40,3301           00002                           TC       Q                                     #  IF MPAC+1 DOES NOT OF/UF
002178: 40,3302           60154                           AD       MPAC
002179: 40,3303           54154                           TS       MPAC
002180: 40,3304           00002                           TC       Q                                     #  IF MPAC DOES NOT OF/UF
002181: 40,3305           54162                           TS       MPAC+6
002182: 40,3306           00002        2RNDEND            TC       Q
002183:
002184:
002185: 40,3307           10162        TESTOFUF           CCS      MPAC+6                                #  RETURNS IF NO OF/UF
002186: 40,3310           04157                           TC       ALMCYCLE                              #  OF   ALARM AND RECYCLE.
002187: 40,3311           00002                           TC       Q
002188: 40,3312           04157                           TC       ALMCYCLE                              #  UF   ALARM AND RECYCLE.
002189:
002190:
002191: 42,3427                                           SETLOC   ENDSPMIN   +1
002192:
002193: 42,3427                                           COUNT*   $$/PIN
002194: 42,3427           03550        HMSIN              TC       ALL3DEC                               #  IF ALL 3 WORDS WERE NOT LOADED, ALARM.
002195: 42,3430           07057                           TC       DMP                                   #  XREG, XREGLP (=HOURS) WERE ALREADY PUT
002196: 42,3431           03511                           ADRES    WHOLECON                              #  INTO MPAC, MPAC+1.
002197: 42,3432           03520                           TC       RND/TST                               #  ROUND OFF TO WHOLE HRS IN MPAC+1.
002198: 42,3433           35030                           CAF      ZERO                                  #  ALARM IF MPAC NON ZERO (G/ 16383 ).
002199: 42,3434           54156                           TS       MPAC       +2
002200: 42,3435           33513                           CAF      HRCON
002201: 42,3436           54154                           TS       MPAC
002202: 42,3437           33514                           CAF      HRCON      +1
002203: 42,3440           56155                           XCH      MPAC       +1
002204: 42,3441           07261                           TC       SHORTMP
002205: 42,3442           03531                           TC       MPACTST                               #  ALARM IF MPAC NON ZERO (G/ 745)
002206: 42,3443           52156                           DXCH     MPAC       +1                         #  STORE HOURS CONTRIBUTION
002207: 42,3444           52124                           DXCH     HITEMIN
002208: 42,3445           31005                           CA       YREG                                  #  PUT YREG, YREGLP INTO MPAC, +1.
002209: 42,3446           23010                           LXCH     YREGLP
002210: 42,3447           52155                           DXCH     MPAC
002211: 42,3450           07057                           TC       DMP
002212: 42,3451           03511                           ADRES    WHOLECON
002213: 42,3452           03520                           TC       RND/TST                               #  ROUND OFF TO WHOLE MIN IN MPAC+1
002214: 42,3453           43516                           CS       59MIN                                 #  ALARM IF MPAC NON ZERO (G/16383)
002215: 42,3454           03536                           TC       SIZETST                               #  ALARM IF MPAC+1 G/ 59MIN
002216: 42,3455           56155                           XCH      MPAC       +1
002217: 42,3456           00006                           EXTEND
002218: 42,3457           73515                           MP       MINCON                                #  LEAVES MINUTES CONTRIBUTION IN A,L
002219: 42,3460           20124                           DAS      HITEMIN                               #  ADD IN MINUTES CONTRIBUTION
002220: 42,3461           00006                           EXTEND                                         #  IF THIS DAS OVERFLOWS, G/ 745 HR,39MIN
002221: 42,3462           13464                           BZF      +2
002222: 42,3463           04157                           TC       ALMCYCLE
002223: 42,3464           31006                           CA       ZREG                                  #  PUT ZREG, ZREGLP INTO MPAC, +1.
002224: 42,3465           23011                           LXCH     ZREGLP
002225: 42,3466           52155                           DXCH     MPAC
002226: 42,3467           07057                           TC       DMP
002227: 42,3470           03511                           ADRES    WHOLECON
002228: 42,3471           03520                           TC       RND/TST                               #  ROUND OFF TO WHOLE CENTI-SEC IN MPAC+1
002229: 42,3472           43517                           CS       59.99SEC                              #  ALARM IF MPAC NON ZERO (G/163.83 SEC)
002230: 42,3473           03536                           TC       SIZETST                               #  ALARM IF MPAC+1 G/59.99 SEC
002231: 42,3474           52124                           DXCH     HITEMIN                               #  ADD IN SECONDS CONTRIBUTION
002232: 42,3475           20155                           DAS      MPAC                                  #  IF THIS DAS OVERFLOWS,
002233: 42,3476           00006                           EXTEND                                         #  G/ 745 HR, 39 MIN, 14.55 SEC.
002234: 42,3477           13501                           BZF      +2
002235: 42,3500           04157                           TC       ALMCYCLE                              #  ALARM AND RECYCLE
002236: 42,3501           35030                           CAF      ZERO
002237: 42,3502           54156                           TS       MPAC       +2
002238: 42,3503           07231                           TC       TPAGREE
002239: 42,3504           52155                           DXCH     MPAC
002240: 42,3505           50145                           INDEX    NOUNADD
002241: 42,3506           52001                           DXCH     0
002242: 42,3507           04674                           TC       POSTJUMP
002243: 42,3510           62773                           CADR     LOADLV
002244:
002245: 42,3511           00006        WHOLECON           OCT      00006                                 #  (10EXP5/2EXP14)2EXP14
002246: 42,3512           03240                           OCT      03240
002247: 42,3513           00025        HRCON              OCT      00025                                 #  1 HOUR IN CENTI-SEC
002248: 42,3514           37100                           OCT      37100
002249: 42,3515           13560        MINCON             OCT      13560                                 #  1 MINUTE IN CENTI-SEC
002250: 42,3516           00073        59MIN              OCT      00073                                 #  59 AS WHOLE
002251: 42,3517           13557        59.99SEC           OCT      13557                                 #  5999 CENTI-SEC
002252:
002253:
002254: 42,3520           56156        RND/TST            XCH      MPAC       +2                         #  ROUNDS MPAC+2 INTO MPAC+1.
002255: 42,3521           60000                           DOUBLE                                         #  ALARMS IF MPAC NOT 0
002256: 42,3522           54156                           TS       MPAC       +2
002257: 42,3523           35030                           CAF      ZERO
002258: 42,3524           60155                           AD       MPAC       +1
002259: 42,3525           54155                           TS       MPAC       +1
002260: 42,3526           35030                           CAF      ZERO
002261: 42,3527           60154                           AD       MPAC                                  #  CANT OVFLOW
002262: 42,3530           56154                           XCH      MPAC
002263: 42,3531           10154        MPACTST            CCS      MPAC                                  #  ALARM IF MPAC NON ZERO
002264: 42,3532           04157                           TC       ALMCYCLE                              #  ALARM AND RECYCLE.
002265: 42,3533           00002                           TC       Q
002266: 42,3534           04157                           TC       ALMCYCLE                              #  ALARM AND RECYCLE.
002267: 42,3535           00002                           TC       Q
002268:
002269: 42,3536           54156        SIZETST            TS       MPAC       +2                         #  CALLED WITH - CON IN A
002270: 42,3537           10155                           CCS      MPAC       +1                         #  GET MAG OF MPAC+1
002271: 42,3540           65026                           AD       ONE
002272: 42,3541           13543                           TCF      +2
002273: 42,3542           65026                           AD       ONE
002274: 42,3543           60156                           AD       MPAC       +2
002275: 42,3544           00006                           EXTEND                                         #  MAG OF MPAC+1 - CON
002276: 42,3545           63547                           BZMF     +2
002277: 42,3546           04157                           TC       ALMCYCLE                              #  MAG OF MPAC+1 G/ CON. ALARM AND RECYCLE.
002278: 42,3547           00002                           TC       Q                                     #  MAG OF MPAC+1 L/= CON
002279:
002280:
002281:                                                                                                  #  ALL3DEC TESTS THAT ALL 3 WORDS ARE LOADED IN DEC (FOR HMSIN).
002282:                                                                                                  #  ALARM IF NOT. (TEST THAT BITS 3,4,5 OF DECBRNCH ARE ALL = 1)
002283: 42,3550           43555        ALL3DEC            CS       OCT34BAR                              #  GET BITS 3,4,5 IN A
002284: 42,3551           71001                           MASK     DECBRNCH                              #  GET BITS 3,4,5 OF DECBRNCH IN A
002285: 42,3552           63555                           AD       OCT34BAR                              #  BITS 3,4,5 OF DECBRNCH MUST ALL = 1
002286: 42,3553           10000                           CCS      A
002287: 42,3554           03560                           TC       FORCEV25
002288: 42,3555           77743        OCT34BAR           OCT      77743
002289: 42,3556           03560                           TC       FORCEV25
002290: 42,3557           00002                           TC       Q
002291:
002292: 42,3560           44113        FORCEV25           CS       OCT31                                 #  FORCE VERB 25 TO BE EXECUTED BY RECYCLE
002293: 42,3561           55042                           TS       VERBSAVE                              #   IN CASE OPERATOR EXECUTED A LOWER LOAD
002294: 42,3562           04157                           TC       ALMCYCLE                              #   VERB.  ALARM AND RECYCLE.
002295: 42,3563                        ENDHMSS            EQUALS
002296:
002297:                                                                                                  #  MONITOR ALLOWS OTHER KEYBOARD ACTIVITY. IT IS ENDED BY VERB TERMINATE,
002298:                                                                                                  #  VERB PROCEED WITHOUT DATA, VERB RESEQUENCE,
002299:                                                                                                  #  ANOTHER MONITOR, OR ANY NVSUB CALL THAT PASSES THE DSPLOCK (PROVIDED
002300:                                                                                                  #  THAT THE OPERATOR HAS SOMEHOW ALLOWED THE ENDING OF A MONITOR WHICH
002301:                                                                                                  #  HE HAS INITIATED THROUGH THE KEYBOARD).
002302:
002303:                                                                                                  #  MONITOR ACTION IS SUSPENDED, BUT NOT ENDED, BY ANY KEYBOARD ACTION,
002304:                                                                                                  #  EXCEPT ERROR LIGHT RESET. IT BEGINS AGAIN WHEN KEY RELEASE IS PERFORMED.
002305:                                                                                                  #  MONITOR SAVES THE NOUN AND APPROPRIATE DISPLAY VERB IN MONSAVE. IT SAVES
002306:                                                                                                  #  NOUNCADR IN MONSAVE1, IF NOUN = MACHINE CADR TO BE SPECIFIED. BIT 15 OF
002307:                                                                                                  #  MONSAVE1 IS THE KILL MONITOR SIGNAL (KILLER BIT). BIT 14 OF MONSAVE1
002308:                                                                                                  #  INDICATES THE CURRENT MONITOR WAS EXTERNALLY INITIATED (EXTERNAL
002309:                                                                                                  #  MONITOR BIT). IT IS TURNED OFF BY RELDSP AND KILMONON.
002310:
002311:                                                                                                  #  MONSAVE INDICATES IF MONITOR IS ON(+=ON, +0=OFF)
002312:                                                                                                  #  IF MONSAVE IS +, MONITOR ENTERS NO REQUEST, BUT TURNS KILLER BIT OFF.
002313:                                                                                                  #  IF MONSAVE IS +0, MONITOR ENTERS REQUEST AND TURNS KILLER BIT OFF.
002314:
002315:                                                                                                  #  NVSUB (IF EXTERNAL MONITOR BIT IS OFF), VB=PROCEED WITHOUT DATA,
002316:                                                                                                  #  VB=RESEQUENCE, AND VB=TERMINATE TURN KILL MONITOR BIT ON.
002317:
002318:                                                                                                  #  IF KILLER BIT IS ON, MONREQ ENTERS NO FURTHER REQUESTS, ZEROS MONSAVE
002319:                                                                                                  #  AND MONSAVE1 (TURNING OFF KILLER BIT AND EXTERNAL MONITOR BIT).
002320:
002321:                                                                                                  #  MONITOR DOSENT TEST FOR MATBS SINCE NVSUB CAN HANDLE INTERNAL MATBS NOW
002322: 41,3223                                           SETLOC   ENDRUTIN
002323:
002324: 41,3223                                           COUNT*   $$/PIN
002325: 41,3223           43232        MONITOR            CS       BIT15/14
002326: 41,3224           71020                           MASK     NOUNCADR
002327: 41,3225           54155        MONIT1             TS       MPAC       +1                         #  TEMP STORAGE
002328: 41,3226           40136                           CS       ENTEXIT
002329: 41,3227           64231                           AD       ENDINST
002330: 41,3230           10000                           CCS      A
002331: 41,3231           03240                           TC       MONIT2
002332: 41,3232           60000        BIT15/14           OCT      60000
002333: 41,3233           03240                           TC       MONIT2
002334: 41,3234           35011                           CAF      BIT14                                 #  EXTERNALLY INITIATED MONITOR,
002335: 41,3235           26155                           ADS      MPAC       +1                         #  SET BIT 14 FOR MONSAVE1.
002336: 41,3236           35030                           CAF      ZERO
002337: 41,3237           55023                           TS       MONSAVE2                              #  ZERO NVMONOPT OPTIONS
002338: 41,3240           36050        MONIT2             CAF      LOW7
002339: 41,3241           71002                           MASK     VERBREG
002340: 41,3242           04343                           TC       LEFT5
002341: 41,3243           54022                           TS       CYL
002342: 41,3244           40022                           CS       CYL
002343: 41,3245           56022                           XCH      CYL
002344: 41,3246           61003                           AD       NOUNREG
002345: 41,3247           54154                           TS       MPAC                                  #  TEMP STORAGE
002346: 41,3250           35030                           CAF      ZERO
002347: 41,3251           55013                           TS       DSPLOCK                               #  +0 INTO DSPLOCK SO MONITOR CAN RUN.
002348: 41,3252           11043                           CCS      CADRSTOR                              #  TURN OFF KR LITE IF CADRSTOR AND DSPLIST
002349: 41,3253           03255                           TC       +2                                    #  ARE BOTH EMPTY. (LITE COMES ON IF NEW
002350: 41,3254           04514                           TC       RELDSP1                               #  MONITOR IS KEYED IN OVER OLD MONITOR.)
002351: 41,3255           00004                           INHINT
002352: 41,3256           11021                           CCS      MONSAVE
002353: 41,3257           03264                           TC       +5                                    #  IF MONSAVE WAS +, NO REQUEST
002354: 41,3260           35026                           CAF      ONE                                   #  IF MONSAVE WAS 0, REQUEST MONREQ
002355: 41,3261           05252                           TC       WAITLIST
002356: 41,3262     1000                                  EBANK=   DSPCOUNT
002357: 41,3262           03270 62102                     2CADR    MONREQ
002358:
002359: 41,3264           52155                           DXCH     MPAC                                  #  PLACE MONITOR VERB AND NOUN INTO MONSAVE
002360: 41,3265           53022                           DXCH     MONSAVE                               #  ZERO THE KILL MONITOR BIT
002361: 41,3266           00003                           RELINT                                         #  SET UP EXTERNAL MONITOR BIT
002362: 41,3267           00136                           TC       ENTRET
002363:
002364:
002365: 41,3270           04412        MONREQ             TC       LODSAMPT                              #  CALLED BY WAITLIST
002366: 41,3271           11022                           CCS      MONSAVE1                              #  TIME IS SNATCHED IN RUPT FOR NOUN 65
002367: 41,3272           03276                           TC       +4                                    #  IF KILLER BIT = 0, ENTER REQUESTS
002368: 41,3273           03276                           TC       +3                                    #  IF KILLER BIT = 0, ENTER REQUESTS
002369: 41,3274           03307                           TC       KILLMON                               #  IF KILLER BIT = 1, NO REQUESTS
002370: 41,3275           03307                           TC       KILLMON                               #  IF KILLER BIT = 1, NO REQUESTS
002371: 41,3276           33313                           CAF      MONDEL
002372: 41,3277           05252                           TC       WAITLIST                              #  ENTER WAITLIST REQUEST FOR MONREQ
002373: 41,3300     1000                                  EBANK=   DSPCOUNT
002374: 41,3300           03270 62102                     2CADR    MONREQ
002375:
002376: 41,3302           34367                           CAF      CHRPRIO
002377: 41,3303           05142                           TC       NOVAC                                 #  ENTER EXEC REQUEST FOR MONDO
002378: 41,3304     1000                                  EBANK=   DSPCOUNT
002379: 41,3304           03314 62102                     2CADR    MONDO
002380:
002381: 41,3306           05321                           TC       TASKOVER
002382:
002383: 41,3307           35030        KILLMON            CAF      ZERO                                  #  ZERO MONSAVE AND TURN KILLER BIT OFF
002384: 41,3310           55021                           TS       MONSAVE
002385: 41,3311           55022                           TS       MONSAVE1                              #  TURN OFF KILL MONITOR BIT.
002386: 41,3312           05321                           TC       TASKOVER                              #  TURN OFF EXTERNAL MONITOR BIT.
002387: 41,3313           00144        MONDEL             OCT      144                                   #  FOR 1 SEC MONITOR INTERVALS
002388:
002389:
002390: 41,3314           11022        MONDO              CCS      MONSAVE1                              #  CALLED BY EXEC
002391: 41,3315           03321                           TC       +4                                    #  IF KILLER BIT = 0, CONTINUE
002392: 41,3316           03321                           TC       +3                                    #  IF KILLER BIT = 0, CONTINUE
002393: 41,3317           05225                           TC       ENDOFJOB                              #  IN CASE TERMINATE CAME SINCE LAST MONREQ
002394: 41,3320           05225                           TC       ENDOFJOB                              #  IN CASE TERMINATE CAME SINCE LAST MONREQ
002395: 41,3321           11013                           CCS      DSPLOCK
002396: 41,3322           03344                           TC       MONBUSY                               #  NVSUB IS BUSY
002397: 41,3323           36050                           CAF      LOW7
002398: 41,3324           71021                           MASK     MONSAVE
002399: 41,3325           02317                           TC       UPDATNN    -1                         #  PLACE NOUN INTO NOUNREG AND DISPLAY IT
002400: 41,3326           34156                           CAF      MID7
002401: 41,3327           71021                           MASK     MONSAVE                               #  CHANGE MONITOR VERB TO DISPLAY VERB
002402: 41,3330           63342                           AD       MONREF                                #  -DEC10, STARTING IN BIT8
002403: 41,3331           54023                           TS       EDOP                                  #  RIGHT 7
002404: 41,3332           30023                           CA       EDOP
002405: 41,3333           55002                           TS       VERBREG
002406: 41,3334           33343                           CAF      MONBACK                               #  SET RETURN TO PASTEVB AFTER DATA DISPLAY
002407: 41,3335           54136                           TS       ENTRET
002408: 41,3336           43232                           CS       BIT15/14
002409: 41,3337           71022                           MASK     MONSAVE1                              #  PUT ECADR INTO MPAC +2. INTMCTBS WILL
002410: 41,3340           54156                           TS       MPAC       +2                         #  DISPLAY IT AND SET NOUNCADR, NOUNADD,
002411: 41,3341           02046        ENDMONDO           TC       TESTNN                                #  EBANK.
002412:


002414:
002415:    4136                                           BLOCK    2
002416:
002417:    4000                                           SETLOC   FFTAG8
002418:    4000                                           BANK
002419:
002420:    4136                                           COUNT*   $$/PIN
002421:    4136           34156        PASTEVB            CAF      MID7
002422:    4137           71023                           MASK     MONSAVE2                              #  NVMONOPT PASTE OPTION
002423:    4140           00006                           EXTEND
002424:    4141           14143                           BZF      +2
002425:    4142           04144                           TC       PASTEOPT                              #  PASTE PLEASE VERB FOR NVMONOPT
002426:    4143           31021                           CA       MONSAVE                               #  PASTE MONITOR VERB - PASTE OPTION IS 0
002427:    4144           54023        PASTEOPT           TS       EDOP                                  #  RIGHT 7
002428:    4145           30023                           CA       EDOP                                  #  PLACE MONITOR VERB OR PLEASE VERB INTO
002429:    4146           04655                           TC       BANKCALL                              #   VERBREG AND DISPLAY IT.
002430:    4147           62337                           CADR     UPDATVB    -1
002431:    4150           35030                           CAF      ZERO                                  #  ZERO REQRET SO THAT PASTED VERBS CAN
002432:    4151           55014                           TS       REQRET                                #   BE EXECUTED BY OPERATOR.
002433:    4152           31023                           CA       MONSAVE2
002434:    4153           04267                           TC       BLANKSUB                              #  PROCESS NVMONOPT BLANK OPTION IF ANY
002435:    4154           04155                           TC       +1
002436:    4155           05225        ENDPASTE           TC       ENDOFJOB
002437:
002438:    4156           37600        MID7               OCT      37600
002439:


002441:
002442: 41,3342                                           SETLOC   ENDMONDO   +1
002443: 41,3342                                           COUNT*   $$/PIN
002444: 41,3342           75377        MONREF             OCT      75377                                 #  -DEC10, STARTING IN BIT8
002445: 41,3343           04136        MONBACK            ADRES    PASTEVB
002446:
002447: 41,3344           04406        MONBUSY            TC       RELDSPON                              #  TURN KEY RELEASE LIGHT
002448: 41,3345           05225                           TC       ENDOFJOB
002449:                                                                                                  #  DSPFMEM IS USED TO DISPLAY (IN OCTAL) ANY FIXED REGISTER.
002450:                                                                                                  #  IT IS USED WITH NOUN = MACHINE CADR TO BE SPECIFIED. THE FCADR OF THE
002451:                                                                                                  #  DESIRED LOCATION IS THEN PUNCHED IN. IT HANDLES F/F (FCADR 4000-7777)
002452:
002453:                                                                                                  #  FOR BANKS L/E 27, THIS IS ENOUGH.
002454:
002455:                                                                                                  #  FOR BANKS G/E 30, THE THIRD COMPONENT OF NOUN 26 (PRIO, ADRES, BBCON)
002456:                                                                                                  #  MUST BE PRELOADED WITH THE DESIRED SUPERBANK BITS (BITS 5,6,7).
002457:                                                                                                  #           V23N26 SHOULD BE USED.
002458:
002459:                                                                                                  #  SUMMARY
002460:                                                                                                  #  FOR BANKS L/E 27,                          V27N01E(FCADR)E
002461:                                                                                                  #  FOR BANKS G/E 30,    V23N26E(SUPERBITS)E   V27N01E(FCADR)E
002462:
002463: 41,3346           34331        DSPFMEM            CAF      R1D1                                  #  IF F/F, DATACALL USES BANK 02 OR 03.
002464: 41,3347           55000                           TS       DSPCOUNT
002465: 41,3350           31050                           CA       DSPTEM1    +2                         #  SUPERBANK BITS WERE PRELOADED INTO
002466: 41,3351           54001                           TS       L                                     #  3RD COMPONENT OF NOUN 26.
002467: 41,3352           31020                           CA       NOUNCADR                              #  ORIGINAL FCADR LOADED STILL IN NOUNCADR.
002468: 41,3353           04714                           TC       SUPDACAL                              #  CALL WITH FCADR IN A, SUPERBITS IN L.
002469: 41,3354           03356                           TC       DSPOCTWD
002470: 41,3355           05225        ENDSPF             TC       ENDOFJOB
002471:
002472:                                                                                                  #  WORD DISPLAY ROUTINES
002473:
002474: 40,3313                                           SETLOC   TESTOFUF   +4
002475: 40,3313                                           COUNT*   $$/PIN
002476: 40,3313           56002        DSPSIGN            XCH      Q
002477: 40,3314           54144                           TS       DSPWDRET
002478: 40,3315           10154                           CCS      MPAC
002479: 40,3316           03326                           TC       +8D
002480: 40,3317           03326                           TC       +7
002481: 40,3320           65026                           AD       ONE
002482: 40,3321           54154                           TS       MPAC
002483: 40,3322           02546                           TC       -ON
002484: 40,3323           40155                           CS       MPAC       +1
002485: 40,3324           54155                           TS       MPAC       +1
002486: 40,3325           00144                           TC       DSPWDRET
002487: 40,3326           02526                           TC       +ON
002488: 40,3327           00144                           TC       DSPWDRET
002489:
002490: 40,3330           00006        DSPRND             EXTEND                                         #  ROUND BY 5 EXP-6
002491: 40,3331           33374                           DCA      DECROUND   -1
002492: 40,3332           20155                           DAS      MPAC
002493: 40,3333           00006                           EXTEND
002494: 40,3334           13340                           BZF      +4
002495: 40,3335           00006                           EXTEND
002496: 40,3336           35006                           DCA      DPOSMAX
002497: 40,3337           52155                           DXCH     MPAC
002498: 40,3340           00002                           TC       Q
002499:
002500:                                                                                                  #  DSPDECWD CONVERTS C( MPAC, MPAC+1) INTO A SIGN AND 5 CHAR DECIMAL
002501:                                                                                                  #  STARTING IN LOC SPECIFIED IN DSPCOUNT. IT ROUNDS BY 5 EXP-6.
002502:
002503: 40,3341           56002        DSPDECWD           XCH      Q
002504: 40,3342           54115                           TS       WDRET
002505: 40,3343           03313                           TC       DSPSIGN
002506: 40,3344           03330                           TC       DSPRND
002507: 40,3345           35024                           CAF      FOUR
002508: 40,3346           54137        DSPDCWD1           TS       WDCNT
002509: 40,3347           34375                           CAF      BINCON
002510: 40,3350           07261                           TC       SHORTMP
002511: 40,3351           50154        TRACE1             INDEX    MPAC
002512: 40,3352           34072                           CAF      RELTAB
002513: 40,3353           74360                           MASK     LOW5
002514: 40,3354           54124                           TS       CODE
002515: 40,3355           35030                           CAF      ZERO
002516: 40,3356           56156                           XCH      MPAC       +2
002517: 40,3357           56155                           XCH      MPAC       +1
002518: 40,3360           54154                           TS       MPAC
002519: 40,3361           57000                           XCH      DSPCOUNT
002520: 40,3362           54143        TRACE1S            TS       COUNT
002521: 40,3363           10000                           CCS      A                                     #  DECREMENT DSPCOUNT EXCEPT AT +0
002522: 40,3364           55000                           TS       DSPCOUNT
002523: 40,3365           03435                           TC       DSPIN
002524: 40,3366           10137                           CCS      WDCNT
002525: 40,3367           03346                           TC       DSPDCWD1
002526: 40,3370           44372                           CS       VD1
002527: 40,3371           55000                           TS       DSPCOUNT
002528: 40,3372           00115                           TC       WDRET
002529:
002530: 40,3373           00000                           OCT      00000
002531: 40,3374           02476        DECROUND           OCT      02476
002532:
002533:                                                                                                  #  DSPDECNR CONVERTS C( MPAC,MPAC+1) INTO A SIGN AND 5 CHAR DECIMAL
002534:                                                                                                  #  STARTING IN LOC SPECIFIED IN DSPCOUNT. IT DOES NOT ROUND
002535:
002536: 40,3375           56002        DSPDECNR           XCH      Q
002537: 40,3376           54115                           TS       WDRET
002538: 40,3377           03313                           TC       DSPSIGN
002539: 40,3400           03345                           TC       DSPDCWD1   -1
002540:
002541:                                                                                                  #  DSPDC2NR CONVERTS C( MPAC,MPAC+1) INTO A SIGN AND 2 CHAR DECIMAL
002542:                                                                                                  #  STARTING IN LOC SPECIFIED IN DSPCOUNT. IT DOES NOT ROUND
002543:
002544: 40,3401           56002        DSPDC2NR           XCH      Q
002545: 40,3402           54115                           TS       WDRET
002546: 40,3403           03313                           TC       DSPSIGN
002547: 40,3404           35026                           CAF      ONE
002548: 40,3405           03346                           TC       DSPDCWD1
002549:
002550:
002551:                                                                                                  #  DSP2DEC CONVERTS C(MPAC) AND C(MPAC+1) INTO A SIGN AND 10 CHAR DECIMAL
002552:                                                                                                  #  STARTING IN THE LOC SPECIFIED IN DSPCOUNT.
002553:
002554: 40,3406           56002        DSP2DEC            XCH      Q
002555: 40,3407           54115                           TS       WDRET
002556: 40,3410           35030                           CAF      ZERO
002557: 40,3411           54124                           TS       CODE
002558: 40,3412           36221                           CAF      THREE
002559: 40,3413           03517                           TC       11DSPIN                               #  -R2 OFF
002560: 40,3414           35024                           CAF      FOUR
002561: 40,3415           03517                           TC       11DSPIN                               #  +R2 OFF
002562: 40,3416           03313                           TC       DSPSIGN
002563: 40,3417           34332                           CAF      R2D1
002564: 40,3420           03346        END2DEC            TC       DSPDCWD1
002565:
002566:
002567:                                                                                                  #  DSPDECVN DISPLAYS C(A) UPON ENTRY AS A 2 CHAR DECIMAL BEGINNING IN THE
002568:                                                                                                  #  DSP LOC SPECIFIED IN DSPCOUNT.
002569:                                                                                                  #  C(A) SHOULD BE IN FORM N X 2EXP-14. THIS IS SCALED TO FORM N/100 BEFORE
002570:                                                                                                  #  DISPLAY CONVERSION.
002571:
002572: 40,3421           00006        DSPDECVN           EXTEND
002573: 40,3422           73431                           MP       VNDSPCON                              #  MULT BY .01
002574: 40,3423           22154                           LXCH     MPAC                                  #  TAKE RESULTS FROM L.(MULT BY 2EXP14).
002575: 40,3424           35030                           CAF      ZERO
002576: 40,3425           54155                           TS       MPAC       +1
002577: 40,3426           56002                           XCH      Q
002578: 40,3427           54115                           TS       WDRET
002579: 40,3430           03404                           TC       DSPDC2NR   +3                         #  NO SIGN, NO ROUND, 2 CHAR
002580:
002581: 40,3431           00244        VNDSPCON           OCT      00244                                 #  .01 ROUNDED UP
002582:
002583:
002584: 40,3432           03421        GOVNUPDT           TC       DSPDECVN                              #  THIS IS NOT FOR GENERAL USE. REALLY PART
002585: 40,3433           04674                           TC       POSTJUMP                              #  OF UPDATVB.
002586: 40,3434           62347                           CADR     UPDAT1     +2
002587:
002588: 40,3435                        ENDECVN            EQUALS
002589:
002590:
002591: 41,3356                                           SETLOC   ENDSPF     +1
002592: 41,3356                                           COUNT*   $$/PIN
002593:                                                                                                  #  DSPOCTWD DISPLAYS C(A) UPON ENTRY AS A 5 CHAR OCT STARTING IN THE DSP
002594:                                                                                                  #  CHAR SPECIFIED IN DSPCOUNT. IT STOPS AFTER 5 CHAR HAVE BEEN DISPLAYED.
002595:
002596: 41,3356           54022        DSPOCTWD           TS       CYL
002597: 41,3357           56002                           XCH      Q
002598: 41,3360           54115                           TS       WDRET                                 #  MUST USE SAME RETURN AS DSP2BIT.
002599: 41,3361           35011                           CAF      BIT14                                 #  TO BLANK SIGNS
002600: 41,3362           27000                           ADS      DSPCOUNT
002601: 41,3363           35024                           CAF      FOUR
002602: 41,3364           54137        WDAGAIN            TS       WDCNT
002603: 41,3365           40022                           CS       CYL
002604: 41,3366           40022                           CS       CYL
002605: 41,3367           40022                           CS       CYL
002606: 41,3370           40000                           CS       A
002607: 41,3371           75032                           MASK     DSPMSK
002608: 41,3372           50000                           INDEX    A
002609: 41,3373           34072                           CAF      RELTAB
002610: 41,3374           74360                           MASK     LOW5
002611: 41,3375           54124                           TS       CODE
002612: 41,3376           57000                           XCH      DSPCOUNT
002613: 41,3377           54143                           TS       COUNT
002614: 41,3400           10000                           CCS      A                                     #  DECREMENT DSPCOUNT EXCEPT AT +0
002615: 41,3401           55000                           TS       DSPCOUNT
002616: 41,3402           04674                           TC       POSTJUMP
002617: 41,3403           61525                           CADR     DSPOCTIN
002618: 41,3404           10137        OCTBACK            CCS      WDCNT
002619: 41,3405           03364                           TC       WDAGAIN                               #  +
002620: 41,3406           44372        DSPLV              CS       VD1                                   #  TO BLOCK NUMERICAL CHARACTERS, CLEARS,
002621: 41,3407           55000                           TS       DSPCOUNT                              #  AND SIGNS AFTER A COMPLETED DISPLAY.
002622: 41,3410           00115                           TC       WDRET
002623:
002624: 41,3411     5032               DSPMSK             =        SEVEN
002625:
002626:
002627:                                                                                                  #  DSP2BIT DISPLAYS C(A) UPON ENTRY AS A 2 CHAR OCT BEGINNING IN THE DSP
002628:                                                                                                  #  LOC SPECIFIED IN DSPCOUNT BY PRE CYCLING RIGHT C(A) AND USING THE LOGIC
002629:                                                                                                  #  OF THE 5 CHAR OCTAL DISPLAY
002630:
002631: 41,3411           54020        DSP2BIT            TS       CYR
002632: 41,3412           56002                           XCH      Q
002633: 41,3413           54115                           TS       WDRET
002634: 41,3414           35026                           CAF      ONE
002635: 41,3415           54137                           TS       WDCNT
002636: 41,3416           40020                           CS       CYR
002637: 41,3417           40020                           CS       CYR
002638: 41,3420           56020                           XCH      CYR
002639: 41,3421           54022                           TS       CYL
002640: 41,3422           03371                           TC       WDAGAIN    +5
002641:
002642:
002643:                                                                                                  #  FOR DSPIN PLACE 0/25 OCT INTO COUNT, 5 BIT RELAY CODE INTO CODE. BOTH
002644:                                                                                                  #  ARE DESTROYED. IF BIT14 OF COUNT IS 1, SIGN IS BLANKED WITH LEFT CHAR.
002645:                                                                                                  #  FOR DSPIN1 PLACE 0,1 INTO BIT11 OF CODE, 2 INTO COUNT, REL ADDRESS OF
002646:                                                                                                  #  DSPTAB ENTRY INTO DSREL.
002647:
002648: 40,3435                                           SETLOC   ENDECVN
002649:
002650: 40,3435                                           COUNT*   $$/PIN
002651: 40,3435           56002        DSPIN              XCH      Q                                     #  CANT USE L FOR RETURN, SINCE MANY OF THE
002652: 40,3436           54114                           TS       DSEXIT                                #  ROUTINES CALLING DSPIN USE L AS RETURN.
002653: 40,3437           34360                           CAF      LOW5
002654: 40,3440           70143                           MASK     COUNT
002655: 40,3441           54021                           TS       SR
002656: 40,3442           56021                           XCH      SR
002657: 40,3443           54141                           TS       DSREL
002658: 40,3444           35026                           CAF      BIT1
002659: 40,3445           70143                           MASK     COUNT
002660: 40,3446           10000                           CCS      A
002661: 40,3447           03451                           TC       +2                                    #  LEFT IF COUNT IS ODD
002662: 40,3450           03461                           TC       DSPIN1     -1                         #  RIGHT IF COUNT IS EVEN
002663: 40,3451           56124                           XCH      CODE
002664: 40,3452           04352                           TC       SLEFT5                                #  DOES NOT USE CYL
002665: 40,3453           54124                           TS       CODE
002666: 40,3454           35011                           CAF      BIT14
002667: 40,3455           70143                           MASK     COUNT
002668: 40,3456           10000                           CCS      A
002669: 40,3457           35025                           CAF      TWO                                   #  BIT14 = 1, BLANK SIGN
002670: 40,3460           65026                           AD       ONE                                   #  BIT14 = 0, LEAVE SIGN ALONE
002671: 40,3461           54143                           TS       COUNT                                 #  +0 INTO COUNT FOR RIGHT
002672:                                                                                                  #  +1 INTO COUNT FOR LEFT(SIGN LEFT ALONE)
002673:                                                                                                  #  +3 INTO COUNT FOR LEFT(TO BLANK SIGN)
002674: 40,3462           00004        DSPIN1             INHINT
002675: 40,3463           50141                           INDEX    DSREL
002676: 40,3464           11024                           CCS      DSPTAB
002677: 40,3465           03467                           TC       +2                                    #  IF +
002678: 40,3466           05723                           TC       CCSHOLE
002679: 40,3467           65026                           AD       ONE                                   #  IF -
002680: 40,3470           54142                           TS       DSMAG
002681: 40,3471           50143                           INDEX    COUNT
002682: 40,3472           73513                           MASK     DSMSK
002683: 40,3473           00006                           EXTEND
002684: 40,3474           60124                           SU       CODE
002685: 40,3475           00006                           EXTEND
002686: 40,3476           13511                           BZF      DSLV                                  #  SAME
002687: 40,3477           50143        DFRNT              INDEX    COUNT
002688: 40,3500           43513                           CS       DSMSK                                 #  MASK WITH 77740,76037,75777, OR 74037
002689: 40,3501           70142                           MASK     DSMAG
002690: 40,3502           60124                           AD       CODE
002691: 40,3503           40000                           CS       A
002692: 40,3504           50141                           INDEX    DSREL
002693: 40,3505           57024                           XCH      DSPTAB
002694: 40,3506           00006                           EXTEND
002695: 40,3507           63511                           BZMF     DSLV                                  #  DSPTAB ENTRY WAS -
002696: 40,3510           25017                           INCR     NOUT                                  #  DSPTAB ENTRY WAS +
002697: 40,3511           00003        DSLV               RELINT
002698: 40,3512           00114                           TC       DSEXIT
002699:
002700: 40,3513           00037        DSMSK              OCT      37
002701: 40,3514           01740                           OCT      1740
002702: 40,3515           02000                           OCT      2000
002703: 40,3516           03740                           OCT      3740
002704:
002705:
002706:                                                                                                  #  FOR 11DSPIN, PUT REL ADDRESSS OF DSPTAB ENTRY INTO A, 1 IN BIT11 OR 0 IN
002707:                                                                                                  #  BIT11 OF CODE.
002708:
002709: 40,3517           54141        11DSPIN            TS       DSREL
002710: 40,3520           35025                           CAF      TWO
002711: 40,3521           54143                           TS       COUNT
002712: 40,3522           56002                           XCH      Q                                     #  MUST USE SAME RETURN AS DSPIN
002713: 40,3523           54114                           TS       DSEXIT
002714: 40,3524           03462                           TC       DSPIN1
002715:
002716:
002717: 40,3525           03435        DSPOCTIN           TC       DSPIN                                 #  SO DSPOCTWD DOESNT USE SWCALL
002718: 40,3526           33530                           CAF      +2
002719: 40,3527           04677                           TC       BANKJUMP
002720: 40,3530           63404        ENDSPOCT           CADR     OCTBACK
002721:
002722:                                                                                                  #  DSPALARM FINDS TC NVSUBEND IN ENTRET FOR NVSUB INITIATED ROUTINES.
002723:                                                                                                  #  ABORT WITH 01501.
002724:                                                                                                  #  DSPALARM FINDS TC ENDOFJOB IN ENTRET FOR KEYBOARD INITIATED ROUTINES.
002725:                                                                                                  #  DO TC ENTRET.
002726:
002727: 40,3531           44372        PREDSPAL           CS       VD1
002728: 40,3532           55000                           TS       DSPCOUNT
002729: 40,3533           43543        DSPALARM           CS       NVSBENDL
002730: 40,3534           60136                           AD       ENTEXIT
002731: 40,3535           00006                           EXTEND
002732: 40,3536           13541                           BZF      CHARALRM   +2
002733: 40,3537           04376        CHARALRM           TC       FALTON                                #  NOT NVSUB INITIATED. TURN ON OPR ERROR
002734: 40,3540           05225                           TC       ENDOFJOB
002735: 40,3541           05713                           TC       ABORT
002736: 40,3542           01501                           OCT      01501
002737: 40,3543           04214        NVSBENDL           TC       NVSUBEND
002738:


002740:
002741:                                                                                                  #  ALMCYCLE TURNS ON CHECK FAIL LIGHT, REDISPLAYS THE ORIGINAL VERB THAT
002742:                                                                                                  #  WAS EXECUTED, AND RECYCLES TO EXECUTE THE ORIGINAL VERB/NOUN COMBINATION
002743:                                                                                                  #  THAT WAS LAST EXECUTED. USED FOR BAD DATA DURING LOAD VERBS AND BY
002744:                                                                                                  #  MCTBS. ALSO BY MMCHANG IF 2 NUMERICAL CHARACTERS WERE NOT PUNCHED IN
002745:                                                                                                  #  FOR MM CODE.
002746:
002747:    4157                                           SETLOC   MID7       +1
002748:    4157                                           COUNT*   $$/PIN
002749:    4157           04376        ALMCYCLE           TC       FALTON                                #  TURN ON CHECK FAIL LIGHT.
002750:    4160           41042                           CS       VERBSAVE                              #  GET ORIGINAL VERB THAT WAS EXECUTED
002751:    4161           55014                           TS       REQRET                                #  SET FOR ENTPAS0
002752:    4162           04655                           TC       BANKCALL                              #  PUTS ORIGINAL VERB INTO VERBREG AND
002753:    4163           62337                           CADR     UPDATVB    -1                         #  DISPLAYS IT IN VERB LIGHTS.
002754:    4164           04674                           TC       POSTJUMP
002755:    4165           62002        ENDALM             CADR     ENTER
002756:


002758:
002759:                                                                                                  #  MMCHANG USES NOUN DISPLAY UNTIL ENTER. THEN IT USES MODE DISP.
002760:                                                                                                  #  IT GOES TO MODROUT WITH THE NEW M M CODE IN A, BUT NOT DISPLAYED IN
002761:                                                                                                  #  MM LIGHTS.
002762:                                                                                                  #  IT DEMANDS 2 NUMERICAL CHARACTERS BE PUNCHED IN FOR NEW MM CODE.
002763:                                                                                                  #  IF NOT, IT RECYCLES.
002764:
002765: 41,3423                                           SETLOC   DSP2BIT    +10D
002766:
002767: 41,3423                                           COUNT*   $$/PIN
002768: 41,3423           03445        MMCHANG            TC       REQMM                                 #  ENTPASHI ASSUMES THE TC REQMM AT MMCHANG
002769:                                                                                                  #  IF THIS MOVES AT ALL, MUST CHANGE
002770:                                                                                                  #  MMADREF AT ENTPASHI.
002771: 41,3424           35022                           CAF      BIT5                                  #  OCT20 = ND2.
002772: 41,3425           61000                           AD       DSPCOUNT                              #  DSPCOUNT MUST = -ND2.
002773: 41,3426           00006                           EXTEND                                         #  DEMAND THAT 2 NUM CHAR WERE PUNCHED IN.
002774: 41,3427           13431                           BZF      +2
002775: 41,3430           04157                           TC       ALMCYCLE                              #  DSPCOUNT NOT= -ND2. ALARM AND RECYCLE.
002776: 41,3431           35030                           CAF      ZERO                                  #  DSPCOUNT = -ND2.
002777: 41,3432           57003                           XCH      NOUNREG
002778: 41,3433           54154                           TS       MPAC
002779: 41,3434           34373                           CAF      ND1
002780: 41,3435           55000                           TS       DSPCOUNT
002781: 41,3436           04655                           TC       BANKCALL
002782: 41,3437           60714                           CADR     2BLANK
002783: 41,3440           44372                           CS       VD1                                   #  BLOCK NUM CHAR IN
002784: 41,3441           55000                           TS       DSPCOUNT
002785: 41,3442           30154                           CA       MPAC
002786: 41,3443           04674                           TC       POSTJUMP
002787: 41,3444           10007                           CADR     MODROUTB                              #  GO THRU STANDARD LOC.
002788:
002789:
002790: 41,3445  04,2007               MODROUTB           =        V37
002791: 41,3445           40002        REQMM              CS       Q
002792: 41,3446           55014                           TS       REQRET
002793: 41,3447           34373                           CAF      ND1
002794: 41,3450           55000                           TS       DSPCOUNT
002795: 41,3451           35030                           CAF      ZERO
002796: 41,3452           55003                           TS       NOUNREG
002797: 41,3453           04655                           TC       BANKCALL
002798: 41,3454           60714                           CADR     2BLANK
002799: 41,3455           04441                           TC       FLASHON
002800: 41,3456           35026                           CAF      ONE
002801: 41,3457           55001                           TS       DECBRNCH                              #  SET FOR DEC
002802: 41,3460           00136                           TC       ENTEXIT
002803:
002804:
002805:                                                                                                  #  VBRQEXEC ENTERS REQUEST TO EXEC     FOR ANY ADDRESS WITH ANY PRIORITY.
002806:                                                                                                  #  IT DOES ENDOFJOB AFTER ENTERING REQUEST. DISPLAY SYST IS RELEASED.
002807:                                                                                                  #  IT ASSUMES NOUN 26 HAS BEEN PRELOADED WITH
002808:                                                                                                  #  COMPONENT 1  PRIORITY(BITS 10-14) BIT1=0 FOR NOVAC, BIT1=1 FOR FINDVAC.
002809:                                                                                                  #  COMPONENT 2  JOB ADRES (12 BIT )
002810:                                                                                                  #  COMPONENT 3  BBCON
002811:
002812: 41,3461           35026        VBRQEXEC           CAF      BIT1
002813: 41,3462           71046                           MASK     DSPTEM1
002814: 41,3463           10000                           CCS      A
002815: 41,3464           03503                           TC       SETVAC                                #  IF BIT1 = 1, FINDVAC
002816: 41,3465           34363                           CAF      TCNOVAC                               #  IF BIT1 = 0, NOVAC
002817: 41,3466           54154        REQEX1             TS       MPAC                                  #  TC NOVAC  OR  TC FINDVAC INTO MPAC
002818: 41,3467           45026                           CS       BIT1
002819: 41,3470           71046                           MASK     DSPTEM1
002820: 41,3471           54160                           TS       MPAC       +4                         #  PRIO INTO MPAC+4 AS A TEMP
002821: 41,3472           04471        REQUESTC           TC       RELDSP
002822: 41,3473           34231                           CA       ENDINST
002823: 41,3474           54157                           TS       MPAC       +3                         #  TC ENDOFJOB INTO MPAC+3
002824: 41,3475           00006                           EXTEND
002825: 41,3476           31050                           DCA      DSPTEM1    +1                         #  JOB ADRES INTO MPAC+1
002826: 41,3477           52156                           DXCH     MPAC       +1                         #  BBCON INTO MPAC+2
002827: 41,3500           30160                           CA       MPAC       +4                         #  PRIO IN A
002828: 41,3501           00004                           INHINT
002829: 41,3502           00154                           TC       MPAC
002830:
002831: 41,3503           34366        SETVAC             CAF      TCFINDVC
002832: 41,3504           03466                           TC       REQEX1
002833:
002834:                                                                                                  #  VBRQWAIT ENTERS REQUEST TO WAITLIST FOR ANY ADDRESS WITH ANY DELAY.
002835:                                                                                                  #  IT DOES ENDOFJOB AFTER ENTERING REQUEST.DISPLAY SYST IS RELEASED.
002836:                                                                                                  #  IT ASSUMES NOUN 26 HAS BEEN PRELOADED WITH
002837:                                                                                                  #  COMPONENT 1  DELAY (LOW BITS)
002838:                                                                                                  #  COMPONENT 2  TASK ADRES (12 BIT)
002839:                                                                                                  #  COMPONENT 3  BBCON
002840:
002841: 41,3505           34364        VBRQWAIT           CAF      TCWAIT
002842: 41,3506           54154                           TS       MPAC                                  #  TC WAITLIST INTO MPAC
002843: 41,3507           31046                           CA       DSPTEM1                               #  TIME DELAY
002844: 41,3510           03471        ENDRQWT            TC       REQUESTC   -1
002845:
002846:                                                                                                  #  REQUESTC WILL PUT TASK ADRES INTO MPAC+1, BBCON INTO MPAC+2,
002847:                                                                                                  #  TC ENDOFJOB INTO MPAC+3. IT WILL TAKE TIME DELAY OUT OF MPAC+4 AND
002848:                                                                                                  #  LEAVE IT IN A, INHINT AND TC MPAC.
002849:
002850: 40,3544                                           SETLOC   NVSBENDL   +1
002851: 40,3544                                           COUNT*   $$/PIN
002852: 40,3544           35026        VBPROC             CAF      ONE                                   #  PROCEED WITHOUT DATA
002853: 40,3545           55015                           TS       LOADSTAT
002854: 40,3546           04216                           TC       KILMONON                              #  TURN ON KILL MONITOR BIT
002855: 40,3547           04471                           TC       RELDSP
002856: 40,3550           04445                           TC       FLASHOFF
002857: 40,3551           03651                           TC       RECALTST                              #  SEE IF THERE IS ANY RECALL FROM ENDIDLE
002858:
002859:
002860: 40,3552           45026        VBTERM             CS       ONE
002861: 40,3553           03545                           TC       VBPROC     +1                         #  TERM VERB SETS LOADSTAT NEG
002862:
002863:                                                                                                  #  PROCKEY PERFORMS THE SAME FUNCTION AS VBPROC.  IT MUST BE CALLED UNDER
002864:                                                                                                  #  EXECUTIVE CONTROL, WITH CHRPRIO.
002865:
002866: 40,3554           35030        PROCKEY            CAF      ZERO                                  #  SET REQRET FOR ENTER PASS 0.
002867: 40,3555           55014                           TS       REQRET
002868: 40,3556           44372                           CS       VD1                                   #  BLOCK NUMERICAL CHARACTERS, SIGNS, CLEAR
002869: 40,3557           55000                           TS       DSPCOUNT
002870: 40,3560           03544                           TC       VBPROC
002871:
002872:
002873:                                                                                                  #  VBRESEQ WAKES ENDIDLE AT SAME LINE AS FINAL ENTER OF LOAD (L+3).
002874:                                                                                                  #  (MAIN USE IS INTENDED AS RESPONSE TO INTERNALLY INITIATED FLASHING
002875:                                                                                                  #   DISPLAYS IN ENDIDLE. SHOULD NOT BE USED WITH LOAD VERBS,PLEASE PERFORM,
002876:                                                                                                  #   OR PLEASE MARK VERBS BECAUSE THEY ALREADY USE L+3 IN ANOTHER CONTEXT.)
002877:
002878: 40,3561           45030        VBRESEQ            CS       ZERO                                  #  MAKE IT LOOK LIKE DATA IN.
002879: 40,3562           03545                           TC       VBPROC     +1
002880:
002881:
002882:                                                                                                  #  FLASH IS TURNED OFF BY PROCEED WITHOUT DATA, TERMINATE, RESEQUENCE,
002883:                                                                                                  #  END OF LOAD.
002884:
002885:                                                                                                  #  KEY RELEASE ROUTINE
002886:
002887:                                                                                                  #  THIS ROUTINE ALWAYS TURNS OFF THE UPACT LIGHT AND ALWAYS CLEARS DSPLOCK.
002888:
002889:                                                                                                  #  THE HIGHEST PRIORITY FUNCTION OF THE KEY RELEASE BUTTON IS THE
002890:                                                                                                  #  UNSUSPENDING OF A SUSPENDED MONITOR WHICH WAS EXTERNALLY INITIATED.
002891:                                                                                                  #  THIS FUNCTION IS ACCOMPLISHED BY CLEARING DSPLOCK AND TURNING OFF
002892:                                                                                                  #  THE KEY RELEASE LIGHT IF BOTH DSPLIST AND CADRSTOR ARE EMPTY.
002893:
002894:                                                                                                  #  IF NO SUCH MONITOR EXISTS, THEN RELDSP IS EXECUTED TO CLEAR DSPLOCK
002895:                                                                                                  #  AND THE EXTERNAL MONITOR BIT (FREEING THE DISPLAY SYSTEM FOR INTERNAL
002896:                                                                                                  #  USE), TURN OFF THE KEY RELEASE LIGHT, AND WAKE UP ANY JOB IN DSPLIST.
002897:
002898:                                                                                                  #  IN ADDITION IF THERE IS A JOB IN ENDIDLE, THEN CONTROL IS TRANSFERRED
002899:                                                                                                  #  TO PINBRNCH (IN DISPLAY INTERFACE ROUTINE) TO RE-EXECUTE THE SERIES OF
002900:                                                                                                  #  NVSUB CALLS ETC. THAT PRECEDED THE ENDIDLE CALL STILL AWAITING RESPONSE.
002901:                                                                                                  #  THIS FEATURE IS INTENDED FOR USE WHEN THE OPERATOR HAS BEEN REQUESTED TO
002902:                                                                                                  #  RESPOND TO SOME INTERNAL ACTION THAT USED ENDIDLE, BUT HE HAS WRITTEN
002903:                                                                                                  #  OVER THE INFORMATION ON THE DISPLAY PANEL BY SOME DISPLAYS OF HIS OWN
002904:                                                                                                  #  INITIATION WHICH DO NOT SERVE AS RESPONSES. HITTING KEY RLSE WILL
002905:                                                                                                  #  RE-ESTABLISH THE DISPLAYS TO THE STATE THEY WERE IN BEFORE HE OBSCURED
002906:                                                                                                  #  THEM, SO THAT HE CAN SEE THE WAITING REQUEST.  THIS WORKS ONLY FOR
002907:                                                                                                  #  INTERNAL PROGRAMS THAT USED ENDIDLE THROUGH MARGARETS DISPLAY
002908:                                                                                                  #  SUBROUTINES.
002909:
002910: 40,3563           45024        VBRELDSP           CS       BIT3
002911: 40,3564           00006                           EXTEND
002912: 40,3565           03011                           WAND     DSALMOUT                              #  TURN OFF UPACT LITE
002913: 40,3566           10115                           CCS      21/22REG                              #  OLD DSPLOCK
002914: 40,3567           35011                           CAF      BIT14
002915: 40,3570           71022                           MASK     MONSAVE1                              #  EXTERNAL MONITOR BIT (EMB)
002916: 40,3571           10000                           CCS      A
002917: 40,3572           03601                           TC       UNSUSPEN                              #  OLD DSPLOCK AND EMB BOTH 1, UNSUSPEND.
002918: 40,3573           04471        TSTLTS4            TC       RELDSP                                #  NOT UNSUSPENDING EXTERNAL MONITOR,
002919: 40,3574           11043                           CCS      CADRSTOR                              #   RELEASE DISPLAY SYSTEM AND
002920: 40,3575           03577                           TC       +2                                    #   DO RE-ESTABLISH IF CADRSTOR IS FULL.
002921: 40,3576           05225                           TC       ENDOFJOB
002922: 40,3577           04674                           TC       POSTJUMP
002923: 40,3600           20746                           CADR     PINBRNCH
002924: 40,3601           35030        UNSUSPEN           CAF      ZERO                                  #  EXTERNAL MONITOR IS SUSPENDED,
002925: 40,3602           55013                           TS       DSPLOCK                               #   JUST UNSUSPEND IT BY CLEARING DSPLOCK.
002926: 40,3603           11043                           CCS      CADRSTOR                              #   TURN KEY RELEASE LIGHT OFF IF BOTH
002927: 40,3604           05225                           TC       ENDOFJOB                              #   CADRSTOR AND DSPLIST ARE EMPTY.
002928: 40,3605           04514                           TC       RELDSP1
002929: 40,3606           05225                           TC       ENDOFJOB
002930:
002931: 40,3607                        ENDRELDS           EQUALS
002932:


002934:
002935:                                                                                                  #  NVSUB IS USED FOR SUB ROUTINE CALLS FROM WITHIN COMPUTER. IT CAN BE
002936:                                                                                                  #  USED TO CALL THE COMBINATION OF ANY DISPLAY, LOAD, OR MONITOR VERB
002937:                                                                                                  #  TOGETHER WITH ANY NOUN AVAILABLE TO THE KEYBOARD.
002938:                                                                                                  #  PLACE 0VVVVVVVNNNNNNN INTO A.
002939:                                                                                                  #  V-S ARE THE 7 BIT VERB CODE.  N-S ARE THE 7 BIT NOUN CODE.
002940:
002941:                                                                                                  #  IF NVSUB IS CALLED WITH THE FOLLOWING NEGATIVE NUMBERS (RATHER THAN THE
002942:                                                                                                  #  VERB-NOUN CODE) IN A, THEN THE DISPLAY IS BLANKED AS FOLLOWS-
002943:                                                                                                  #   -4 FULL BLANK, -3 LEAVE MODE, -2 LEAVE MODE AND VERB, -1 BLANK R-S ONLY
002944:
002945:                                                                                                  #  NVSUB CAN BE USED WITH MACH CADR TO BE SPEC BY PLACING THE CADR INTO
002946:                                                                                                  #  MPAC+2 BEFORE THE STANDARD NVSUB CALL.
002947:
002948:                                                                                                  #   NVSUB RETURNS TO 2+ CALLING LOC AFTER PERFORMING TASK, IF DISPLAY
002949:                                                                                                  #  SYSTEM IS AVAILABLE. THE NEW NOUN AND VERB CODES ARE DISPLAYED.
002950:                                                                                                  #  IF V:S =0, THE NEW NOUN CODE IS DISPLAYED ONLY(RETURN WITH NO FURTHER
002951:                                                                                                  #  ACTION). IF N-S =0, THE NEW VERB CODE IS DISPLAYED ONLY(RETURN WITH NO
002952:                                                                                                  #  FURTHER ACTION).
002953:
002954:                                                                                                  #  IT RETURNS TO 1+ CALLING LOC WITHOUT PERFORMING TASK, IF DISPLAY
002955:                                                                                                  #  SYSTEM IS BLOCKED (NOTHING IS DISPLAYED IN THIS CASE).
002956:                                                                                                  #  IT DOES TC ABORT (WITH OCT 01501) IF IT ENCOUNTERS A DISPLAY PROGRAM
002957:                                                                                                  #  ALARM CONDITION BEFORE RETURN TO CALLER.
002958:
002959:                                                                                                  #  THE DISPLAY SYSTEM IS BLOCKED BY THE DEPRESSION OF ANY
002960:                                                                                                  #  KEY, EXCEPT ERROR LIGHT RESET
002961:                                                                                                  #  IT IS RELEASED BY THE KEY RELEASE BUTTON, ALL EXTENDED VERBS,
002962:                                                                                                  #  PROCEED WITHOUT DATA, TERMINATE, RESEQUENCE, INITIALIZE EXECUTIVE,
002963:                                                                                                  #  RECALL PART OF RECALTST IF ENDIDLE WAS USED,
002964:                                                                                                  #  VB = REQUEST EXECUTIVE, VB = REQUEST WAITLIST,
002965:                                                                                                  #  MONITOR SET UP.
002966:
002967:                                                                                                  #  THE DISPLAY SYSTEM IS ALSO BLOCKED BY THE EXTERNAL MONITOR BIT, WHICH
002968:                                                                                                  #  INDICATES AN EXTERNALLY INITIATED MONITOR IS RUNNING (SEE MONITOR)
002969:
002970:                                                                                                  #  A NVSUB CALL THAT PASSES DSPLOCK AND THE EXTERNAL MONITOR BIT ENDS OLD
002971:                                                                                                  #  MONITOR.
002972:
002973:                                                                                                  #  DSPLOCK IS THE INTERLOCK FOR USE OF KEYBOARD AND DISPLAY SYSTEM WHICH
002974:                                                                                                  #  LOCKS OUT INTERNAL USE WHENEVER THERE IS EXTERNAL KEYBOARD ACTION.
002975:
002976:                                                                                                  #  NVSUB SHOULD BE USED TWICE IN SUCCESSION FOR :PLEASE PERFORM: SITUATIONS
002977:                                                                                                  #  (SIMILARLY FOR PLEASE MARK). FIRST PLACE THE CODED NUMBER FOR WHAT
002978:                                                                                                  #  ACTION IS DESIRED OF OPERATOR INTO THE REGISTERS REFERRED TO BY THE
002979:                                                                                                  #  :CHECKLIST: NOUN. GO TO NVSUB WITH A DISPLAY VERB AND THE :CHECKLIST:
002980:                                                                                                  #  NOUN. GO TO NVSUB AGAIN WITH THE :PLEASE PERFORM: VERB AND ZEROS IN THE
002981:                                                                                                  #  LOW 7 BITS. THIS :PASTES UP: THE :PLEASE PERFORM: VERB INTO THE VERB
002982:                                                                                                  #  LIGHTS.
002983:
002984:                                                                                                  #  NVMONOPT IS AN ENTRY SIMILAR TO NVSUB, BUT REQUIRING AN ADDITIONAL
002985:                                                                                                  #  PARAMETER IN L. IT SHOULD BE USED ONLY WITH A MONITOR VERB-NOUN CODE IN
002986:                                                                                                  #  A. AFTER EACH MONITOR DISPLAY A *PLEASE* VERB WILL BE PASTED IN THE VERB
002987:                                                                                                  #  LIGHTS OR DATA WILL BE BLANKED (OR BOTH) ACCORDING TO THE OPTIONS
002988:                                                                                                  #  SPECIFIED IN L. IF BITS 8-14 OF L ARE OTHER THAN ZERO, THEN THEY WILL
002989:                                                                                                  #  BE INTERPRETED AS A VERB CODE AND PASTED IN THE VERB LIGHTS. (THIS VERB
002990:                                                                                                  #  CODE SHOULD DESIGNATE ONE OF THE *PLEASE* VERBS.) IF BITS 1-3 OF L ARE
002991:                                                                                                  #  OTHER THAN ZERO, THEN THEY WILL BE USED TO BLANK DATA BY BEING FED TO
002992:                                                                                                  #  BLANKSUB. IF NVMONOPT IS USED WITH A VERB OTHER THAN A MONITOR VERB,
002993:                                                                                                  #  THE PARAMETER IN L HAS NO EFFECT.
002994:
002995:                                                                                                  #  NVSUB IN FIXED-FIXED PLACES 2+CALLING LOC INTO NVQTEM, TC NVSUBEND INTO
002996:                                                                                                  #  ENTRET. (THIS WILL RESTORE OLD CALLING BANK BITS)
002997:
002998:    4166                                           SETLOC   ENDALM     +1
002999:
003000:    4166                                           COUNT*   $$/PIN
003001:    4166           22007        NVSUB              LXCH     7                                     #  ZERO NVMONOPT OPTIONS
003002:    4167           54123        NVMONOPT           TS       NVTEMP
003003:    4170           35011                           CAF      BIT14
003004:    4171           71022                           MASK     MONSAVE1                              #  EXTERNAL MONITOR BIT
003005:    4172           61013                           AD       DSPLOCK
003006:    4173           10000                           CCS      A
003007:    4174           00002                           TC       Q                                     #  DSP SYST BLOCKED. RET TO 1+ CALLING LOC
003008:    4175           35026                           CAF      ONE                                   #  DSP SYST AVAILABLE
003009:    4176           60002        NVSBCOM            AD       Q
003010:    4177           55040                           TS       NVQTEM                                #  2+ CALLING LOC INTO NVQTEM
003011:    4200           23023                           LXCH     MONSAVE2                              #  STORE NVMONOPT OPTIONS
003012:    4201           04216                           TC       KILMONON                              #  TURN ON KILL MONITOR BIT
003013:    4202           34213        NVSUBCOM           CAF      NVSBBBNK
003014:
003015:    4203           56006                           XCH      BBANK
003016:    4204           00006                           EXTEND                                         #  SAVE OLD SUPERBITS
003017:    4205           04007                           ROR      SUPERBNK
003018:    4206           55041                           TS       NVBNKTEM
003019:    4207           34213                           CAF      PINSUPBT
003020:    4210           00006                           EXTEND
003021:    4211           01007                           WRITE    SUPERBNK
003022:    4212           02000                           TC       NVSUBB                                #  GO TO NVSUB1 THRU STANDARD LOC
003023:    4213     1000                                  EBANK=   DSPCOUNT
003024:    4213           62102        NVSBBBNK           BBCON    NVSUB1
003025:
003026:    4214     4213               PINSUPBT           =        NVSBBBNK                              #  CONTAINS THE PINBALL SUPERBITS.
003027:
003028:    4214           53041        NVSUBEND           DXCH     NVQTEM                                #  NVBNKTEM MUST = NVQTEM+1
003029:    4215           05235                           TC       SUPDXCHZ                              #  DTCB WITH SUPERBIT SWITCHING
003030:


003032:
003033: 41,3511                                           SETLOC   ENDRQWT    +1
003034:
003035: 41,3511                                           COUNT*   $$/PIN
003036:                                                                                                  #  BLANKDSP BLANKS DISPLAY ACCORDING TO OPTION NUMBER IN NVTEMP AS FOLLOWS
003037:                                                                                                  #   -4 FULL BLANK, -3 LEAVE MODE, -2 LEAVE MODE AND VERB, -1 BLANK R-S ONLY
003038:
003039: 41,3511           65032        BLANKDSP           AD       SEVEN                                 #  7,8,9,OR 10 (A HAD 0,1,2,OR 3)
003040: 41,3512           00004                           INHINT
003041: 41,3513           54124                           TS       CODE                                  #  BLANK SPECIFIED DSPTABS
003042: 41,3514           45013                           CS       BIT12
003043: 41,3515           50124                           INDEX    CODE
003044: 41,3516           57024                           XCH      DSPTAB
003045: 41,3517           10000                           CCS      A
003046: 41,3520           25017                           INCR     NOUT
003047: 41,3521           03522                           TC       +1
003048: 41,3522           10124                           CCS      CODE
003049: 41,3523           03513                           TC       BLANKDSP   +2
003050: 41,3524           00003                           RELINT
003051: 41,3525           50123                           INDEX    NVTEMP
003052: 41,3526           03533                           TC       +5
003053: 41,3527           03530                           TC       +1                                    #  NVTEMP HAS -4 (NEVER TOUCH MODREG)
003054: 41,3530           55002                           TS       VERBREG                               #             -3
003055: 41,3531           55003                           TS       NOUNREG                               #             -2
003056: 41,3532           55016                           TS       CLPASS                                #             -1
003057: 41,3533           44372                           CS       VD1
003058: 41,3534           55000                           TS       DSPCOUNT
003059: 41,3535           04445                           TC       FLASHOFF                              #  PROTECT AGAINST INVISIBLE FLASH
003060: 41,3536           03561                           TC       ENTSET     -2                         #  ZEROS REQRET
003061:
003062: 41,3537           33563        NVSUB1             CAF      ENTSET                                #  IN BANK
003063: 41,3540           54136                           TS       ENTRET                                #  SET RETURN TO NVSUBEND
003064: 41,3541           10123                           CCS      NVTEMP                                #  WHAT NOW
003065: 41,3542           03546                           TC       +4                                    #  NORMAL NVSUB CALL (EXECUTE VN OR PASTE)
003066: 41,3543           02351                           TC       GODSPALM
003067: 41,3544           03511                           TC       BLANKDSP                              #  BLANK DISPLAY AS SPECIFIED
003068: 41,3545           02351                           TC       GODSPALM
003069: 41,3546           36050                           CAF      LOW7
003070: 41,3547           70123                           MASK     NVTEMP
003071: 41,3550           54157                           TS       MPAC       +3                         #  TEMP FOR NOUN (CANT USE MPAC. DSPDECVN
003072: 41,3551           30123                           CA       NVTEMP                                #                  USES MPAC, +1, +2
003073: 41,3552           54023                           TS       EDOP                                  #  RIGHT 7
003074: 41,3553           30023                           CA       EDOP
003075: 41,3554           54160                           TS       MPAC       +4                         #  TEMP FOR VERB (CANT USE MPAC+1. DSPDECVN
003076:                                                                                                  #                 USES MPAC, +1, +2).
003077: 41,3555           10157                           CCS      MPAC       +3                         #  TEST NOUN
003078: 41,3556           03564                           TC       NVSUB2                                #  IF NOUN NOT +0, GO ON
003079: 41,3557           30160                           CA       MPAC       +4
003080: 41,3560           02337                           TC       UPDATVB    -1                         #  IF NOUN = +0, DISPLAY VERB . THEN RETURN
003081: 41,3561           35030                           CAF      ZERO                                  #  ZERO REQRET SO THAT PASTED VERBS CAN
003082: 41,3562           55014                           TS       REQRET                                #  BE EXECUTED BY OPERATOR.
003083: 41,3563           04214        ENTSET             TC       NVSUBEND
003084: 41,3564           10160        NVSUB2             CCS      MPAC       +4                         #  TEST VERB
003085: 41,3565           03571                           TC       +4                                    #  IF VERB NOT +0, GO ON
003086: 41,3566           30157                           CA       MPAC       +3
003087: 41,3567           02317                           TC       UPDATNN    -1                         #  IF VERB = +0, DISPLAY NOUN. THEN RETURN
003088: 41,3570           04214                           TC       NVSUBEND
003089: 41,3571           30156                           CA       MPAC       +2                         #  TEMP FOR MACH CADR TO BE SPEC. (DSPDECVN
003090: 41,3572           54161                           TS       MPAC       +5                         #               USES MPAC, +1, +2)
003091: 41,3573           30160                           CA       MPAC       +4
003092: 41,3574           02337                           TC       UPDATVB    -1                         #  IF BOTH NOUN AND VERB NOT +0, DISPLAY
003093: 41,3575           30157                           CA       MPAC       +3                         #  BOTH AND GO TO ENTPAS0.
003094: 41,3576           02317                           TC       UPDATNN    -1
003095: 41,3577           35030                           CAF      ZERO
003096: 41,3600           55015                           TS       LOADSTAT                              #  SET FOR WAITING FOR DATA CONDITION
003097: 41,3601           55016                           TS       CLPASS
003098: 41,3602           55014                           TS       REQRET                                #  SET REQRET FOR PASS 0.
003099: 41,3603           30161                           CA       MPAC       +5                         #  RESTORES MACH CADR TO BE SPEC TO MPAC+2
003100: 41,3604           54156                           TS       MPAC       +2                         #  FOR USE IN INTMCTBS (IN ENTPAS0).
003101: 41,3605           02035        ENDNVSB1           TC       ENTPAS0
003102:


003104:
003105:                                                                                                  #  IF INTERNAL MACH CADR TO BE SPECIFIED, MPAC+2 WILL BE PLACED INTO
003106:                                                                                                  #  NOUNCADR IN ENTPAS0 (INTMCTBS ).
003107:
003108:
003109:    4216                                           SETLOC   NVSUBEND   +2
003110:    4216                                           COUNT*   $$/PIN
003111:                                                                                                  #  FORCE BIT 15 OF MONSAVE1 TO 1.
003112:    4216           35010        KILMONON           CAF      BIT15                                 #     THIS IS THE KILL MONITOR BIT.
003113:    4217           55022                           TS       MONSAVE1                              #  TURN OFF BIT 14, THE EXTERNAL
003114:                                                                                                  #   MONITOR BIT.
003115:    4220           00002                           TC       Q
003116:
003117:
003118:                                                                                                  #  LOADSTAT  +0 INACTIVE(WAITING FOR DATA). SET BY NVSUB
003119:                                                                                                  #            +1  PROCEED NO DATA. SET BY SPECIAL VERB
003120:                                                                                                  #           -1 TERMINATE   SET BY SPECIAL VERB
003121:                                                                                                  #           -0    DATA IN      SET BY END OF LOAD ROUTINE
003122:                                                                                                  #              OR RESEQUENCE   SET BY VERB 32
003123:
003124:
003125:                                                                                                  #  L  TC ENDIDLE  (FIXED FIXED)
003126:                                                                                                  #  ROUTINES THAT REQUEST LOADS THROUGH NVSUB SHOULD USE ENDIDLE WHILE
003127:                                                                                                  #  WAITING FOR THE DATA TO BE LOADED. ENDIDLE PUTS CURRENT JOB TO SLEEP.
003128:                                                                                                  #  ENDIDLE CANNOT BE CALLED FROM ERASABLE OR F/F MEMORY,
003129:                                                                                                  #  SINCE JOBSLEEP AND JOBWAKE CAN HANDLE ONLY FIXED BANKS.
003130:                                                                                                  #  RECALTST TESTS LOADSTAT AND WAKES JOB UP TO,
003131:                                                                                                  #  L+1      FOR TERMINATE
003132:                                                                                                  #  L+2      FOR PROCEED WITHOUT DATA
003133:                                                                                                  #  L+3      FOR DATA IN, OR RESEQUENCE
003134:                                                                                                  #  IT DOES NOTHING IF LOADSTAT INDICATES WAITING FOR DATA.
003135:
003136:
003137:                                                                                                  #  ENDIDLE ABORTS (WITH CODE 01206) IF A SECOND JOB ATTEMPTS TO GO TO SLEEP
003138:                                                                                                  #  IN PINBALL. IN PARTICULAR, IF AN ATTEMPT IS MADE TO GO TO ENDIDLE WHEN
003139:                                                                                                  #  1) CADRSTOR NOT= +0. THIS IS THE CASE WHERE THE CAPACITY OF ENDIDLE IS
003140:                                                                                                  #  EXCEEDED. (+-NZ INDICATE A JOB IS ALREADY ASLEEP DUE TO ENDIDLE.)
003141:                                                                                                  #  2) DSPLIST NOT= +0. THIS INDICATES A JOB IS ALREADY ASLEEP DUE TO
003142:                                                                                                  #  NVSUBUSY.
003143:
003144:    4221           22002        ENDIDLE            LXCH     Q                                     #  RETURN ADDRESS INTO L.
003145:    4222           04232                           TC       ISCADR+0                              #  ABORT IF CADRSTOR NOT= +0
003146:    4223           04236                           TC       ISLIST+0                              #  ABORT IF DSPLIST NOT= +0
003147:    4224           30001                           CA       L                                     #  DONT SET DSPLOCK TO 1 SO CAN USE
003148:    4225           75062                           MASK     LOW10                                 #  ENDIDLE WITH NVSUB INITIATED MONITOR.
003149:    4226           60004                           AD       FBANK                                 #  SAME STRATEGY FOR CADR AS MAKECADR.
003150:    4227           55043                           TS       CADRSTOR
003151:    4230           05203                           TC       JOBSLEEP
003152:
003153:
003154:    4231           05225        ENDINST            TC       ENDOFJOB
003155:
003156:
003157:    4232           11043        ISCADR+0           CCS      CADRSTOR                              #  ABORTS (CODE 01206) IF CADRSTOR NOT= +0.
003158:    4233           04241                           TC       DSPABORT                              #  RETURNS IF CADRSTOR = +0.
003159:    4234           00002                           TC       Q
003160:    4235           04241                           TC       DSPABORT
003161:
003162:    4236           11044        ISLIST+0           CCS      DSPLIST                               #  ABORTS (CODE 01206) IF DSPLIST NOT= +0.
003163:    4237           04241                           TC       DSPABORT                              #  RETURNS IF DSPLIST = +0.
003164:    4240           00002                           TC       Q
003165:    4241           05713        DSPABORT           TC       ABORT
003166:    4242           01206                           OCT      01206
003167:
003168:
003169:                                                                                                  #  JAMTERM ALLOWS PROGRAMS TO PERFORM THE TERMINATE FUNCTION.
003170:                                                                                                  #  IT DOES ENDOFJOB.
003171:
003172:    4243           34213        JAMTERM            CAF      PINSUPBT
003173:    4244           00006                           EXTEND
003174:    4245           01007                           WRITE    SUPERBNK
003175:    4246           34254                           CAF      34DEC
003176:    4247           55014                           TS       REQRET                                #  LEAVE ENTER SET FOR ENTPASS0.
003177:    4250           44372                           CS       VD1
003178:    4251           55000                           TS       DSPCOUNT
003179:    4252           04674                           TC       POSTJUMP
003180:    4253           61552                           CADR     VBTERM
003181:
003182:    4254           00042        34DEC              DEC      34         B-14
003183:
003184:
003185:                                                                                                  #  JAMPROC ALLOWS PROGRAMS TO PERFORM THE PROCEED/PROCEED WITHOUT DATA
003186:                                                                                                  #  FUNCTION. IT DOES ENDOFJOB.
003187:
003188:    4255           34213        JAMPROC            CAF      PINSUPBT
003189:    4256           00006                           EXTEND
003190:    4257           01007                           WRITE    SUPERBNK
003191:    4260           34266                           CAF      33DEC
003192:    4261           55014                           TS       REQRET                                #  LEAVE ENTER SET FOR ENTPASS0.
003193:    4262           44372                           CS       VD1
003194:    4263           55000                           TS       DSPCOUNT
003195:    4264           04674                           TC       POSTJUMP
003196:    4265           61544                           CADR     VBPROC
003197:
003198:    4266           00041        33DEC              DEC      33         B-14
003199:
003200:
003201:                                                                                                  #  BLANKSUB BLANKS ANY COMBINATION OF R1, R2, R3.
003202:                                                                                                  #  CALL WITH BLANKING CODE IN A.
003203:                                                                                                  #  BIT1=1 BLANKS R1, BIT2=1 BLANKS R2, BIT3=1 BLANKS R3.
003204:                                                                                                  #  ANY COMBINATION OF THESE BITS IS ACCEPTED.
003205:
003206:                                                                                                  #  DSPCOUNT IS RESTORED TO STATE IT WAS IN BEFORE BLANKSUB WAS EXECUTED.
003207:
003208:    4267           75032        BLANKSUB           MASK     SEVEN
003209:    4270           54123                           TS       NVTEMP                                #  STORE BLANKING CODE IN NVTEMP.
003210:    4271           35011                           CAF      BIT14
003211:    4272           71022                           MASK     MONSAVE1                              #  EXTERNAL MONITOR BIT
003212:    4273           61013                           AD       DSPLOCK
003213:    4274           10000                           CCS      A
003214:    4275           00002                           TC       Q                                     #  DSP SYST BLOCKED. RET TO 1+ CALLING LOC
003215:    4276           24002                           INCR     Q                                     #  DSP SYST AVAILABLE
003216:                                                                                                  #  SET RETURN FOR 2+ CALLING LOC
003217:    4277           10123                           CCS      NVTEMP
003218:    4300           14302                           TCF      +2
003219:    4301           00002                           TC       Q                                     #  NOTHING TO BLANK. RET TO 2+ CALLING LOC
003220:    4302           22002                           LXCH     Q                                     #  SET RETURN FOR 2 + CALLING LOC
003221:    4303           34314                           CAF      BLNKBBNK
003222:    4304           56006                           XCH      BBANK
003223:    4305           00006                           EXTEND
003224:    4306           04007                           ROR      SUPERBNK                              #  SAVE OLD SUPERBITS.
003225:    4307           52131                           DXCH     BUF
003226:    4310           34213                           CAF      PINSUPBT
003227:    4311           00006                           EXTEND
003228:    4312           01007                           WRITE    SUPERBNK
003229:    4313           03607                           TC       BLNKSUB1
003230:
003231:    4314     1000                                  EBANK=   DSPCOUNT
003232:    4314           60102        BLNKBBNK           BBCON    BLNKSUB1
003233:    4315                        ENDBLFF            EQUALS
003234:


003236:
003237: 40,3607                                           SETLOC   ENDRELDS
003238: 40,3607                                           COUNT*   $$/PIN
003239: 40,3607           31000        BLNKSUB1           CA       DSPCOUNT                              #  SAVE OLD DSPCOUNT FOR LATER RESTORATION
003240: 40,3610           54132                           TS       BUF        +2
003241: 40,3611           35026                           CAF      BIT1                                  #  TEST BIT1. SEE IF R1 TO BE BLANKED.
003242: 40,3612           03631                           TC       TESTBIT
003243: 40,3613           34331                           CAF      R1D1
003244: 40,3614           02650                           TC       5BLANK     -1
003245: 40,3615           35025                           CAF      BIT2                                  #  TEST BIT 2. SEE IF R2 TO BE BLANKED.
003246: 40,3616           03631                           TC       TESTBIT
003247: 40,3617           34332                           CAF      R2D1
003248: 40,3620           02650                           TC       5BLANK     -1
003249: 40,3621           35024                           CAF      BIT3                                  #  TEST BIT3. SEE IF R3 TO BE BLANKED.
003250: 40,3622           03631                           TC       TESTBIT
003251: 40,3623           34333                           CAF      R3D1
003252: 40,3624           02650                           TC       5BLANK     -1
003253: 40,3625           30132                           CA       BUF        +2                         #  RESTORE DSPCOUNT TO STATE IT HAD
003254: 40,3626           55000                           TS       DSPCOUNT                              #       BEFORE BLANKSUB.
003255: 40,3627           52131                           DXCH     BUF                                   #  CALL L+2 DIRECTLY.
003256: 40,3630           05236                           TC       SUPDXCHZ   +1                         #  DTCB WITH SUPERBIT SWITCHING
003257:
003258: 40,3631           70123        TESTBIT            MASK     NVTEMP                                #  NVTEMP CONTAINS BLANKING CODE.
003259: 40,3632           10000                           CCS      A
003260: 40,3633           00002                           TC       Q                                     #  IF CURRENT BIT = 1, RETURN TO L+1.
003261: 40,3634           50002                           INDEX    Q                                     #  IF CURRENT BIT = 0, RETURN TO L+3.
003262: 40,3635           00002                           TC       2
003263:
003264: 40,3636                        ENDBSUB1           EQUALS
003265:


003267:
003268:                                                                                                  #  DSPMM DOES NOT DISPLAY MODREG DIRECTLY. IT PUTS IN EXEC REQUEST WITH
003269:                                                                                                  #  PRIO 30000 FOR DSPMMJB AND RETURNS TO CALLER.
003270:
003271:                                                                                                  #  IF MODREG CONTAINS -0, DSPMMJB BLANKS THE MODE LIGHTS.
003272:
003273:                                                                                                  #  DSPMM MUST BE IN BANK 27 OR LOWER, SO IT CAN BE CALLED VIA BANKCALL.
003274:
003275: 07,2622                                           BANK     7
003276: 04,2000                                           SETLOC   PINBALL4
003277: 04,2000                                           BANK
003278:
003279: 04,2510                                           COUNT*   $$/PIN
003280: 04,2510           56002        DSPMM              XCH      Q
003281: 04,2511           54154                           TS       MPAC
003282: 04,2512           00004                           INHINT
003283: 04,2513           34367                           CAF      CHRPRIO
003284: 04,2514           05142                           TC       NOVAC
003285: 04,2515     1000                                  EBANK=   DSPCOUNT
003286: 04,2515           03636 60102                     2CADR    DSPMMJB
003287:
003288: 04,2517           00003                           RELINT
003289: 04,2520           00154        ENDSPMM            TC       MPAC
003290:


003292:
003293:                                                                                                  #  DSPMM  PLACE MAJOR MODE CODE INTO MODREG
003294:
003295: 40,3636                                           SETLOC   ENDBSUB1
003296:
003297: 40,3636                                           COUNT*   $$/PIN
003298: 40,3636           34374        DSPMMJB            CAF      MD1                                   #  GETS HERE THRU DSPMM
003299: 40,3637           57000                           XCH      DSPCOUNT
003300: 40,3640           54140                           TS       DSPMMTEM                              #  SAVE DSPCOUNT
003301: 40,3641           11012                           CCS      MODREG
003302: 40,3642           65026                           AD       ONE
003303: 40,3643           03421                           TC       DSPDECVN                              #  IF MODREG IS + OR +0, DISPLAY MODREG
003304: 40,3644           03646                           TC       +2                                    #  IF MODREG IS -NZ, DO NOTHING
003305: 40,3645           02714                           TC       2BLANK                                #  IF MODREG IS -0, BLANK MM
003306: 40,3646           56140                           XCH      DSPMMTEM                              #  RESTORE DSPCOUNT
003307: 40,3647           55000                           TS       DSPCOUNT
003308: 40,3650           05225                           TC       ENDOFJOB
003309:
003310:
003311:                                                                                                  #  RECALTST IS ENTERED DIRECTLY AFTER DATA IS LOADED (OR RESEQUENCE VERB IS
003312:                                                                                                  #  EXECUTED), TERMINATE VERB IS EXECUTED, OR PROCEED WITHOUT DATA VERB IS
003313:                                                                                                  #  EXECUTED. IT WAKES UP JOB THAT DID TC ENDIDLE.
003314:
003315:                                                                                                  #  IF CADRSTOR NOT= +0, IT PUTS +0 INTO DSPLOCK, AND TURNS OFF KEY RLSE
003316:                                                                                                  #  LIGHT IF DSPLIST IS EMPTY (LEAVES KEY RLSE LIGHT ALONE IF NOT EMPTY).
003317:
003318: 40,3651           11043        RECALTST           CCS      CADRSTOR
003319: 40,3652           03654                           TC       RECAL1
003320: 40,3653           05225                           TC       ENDOFJOB                              #  NORMAL EXIT IF KEYBOARD INITIATED
003321: 40,3654           35030        RECAL1             CAF      ZERO
003322: 40,3655           57043                           XCH      CADRSTOR
003323: 40,3656           00004                           INHINT
003324: 40,3657           05207                           TC       JOBWAKE
003325: 40,3660           11015                           CCS      LOADSTAT
003326: 40,3661           03703                           TC       DOPROC                                #  + PROCEED WITHOUT DATA
003327: 40,3662           05225                           TC       ENDOFJOB                              #  PATHALOGICAL CASE EXIT
003328: 40,3663           03701                           TC       DOTERM                                #  - TERMINATE
003329: 40,3664           35025                           CAF      TWO                                   #  -0 DATA IN OR RESEQUENCE
003330: 40,3665           50064        RECAL2             INDEX    LOCCTR
003331: 40,3666           60164                           AD       LOC                                   #  LOC IS + FOR BASIC JOBS
003332: 40,3667           50064                           INDEX    LOCCTR
003333: 40,3670           54164                           TS       LOC
003334: 40,3671           31003                           CA       NOUNREG                               #  SAVE VERB IN MPAC, NOUN IN MPAC+1 AT
003335: 40,3672           54001                           TS       L                                     #  TIME OF RESPONSE TO ENDIDLE FOR
003336: 40,3673           31002                           CA       VERBREG                               #  POSSIBLE LATER TESTING BY JOB THAT HAS
003337: 40,3674           50064                           INDEX    LOCCTR                                #  BEEN WAKED UP.
003338: 40,3675           52155                           DXCH     MPAC
003339: 40,3676           00003                           RELINT
003340: 40,3677           04471        RECAL3             TC       RELDSP
003341: 40,3700           05225                           TC       ENDOFJOB
003342:
003343: 40,3701           35030        DOTERM             CAF      ZERO
003344: 40,3702           03665                           TC       RECAL2
003345:
003346: 40,3703           35026        DOPROC             CAF      ONE
003347: 40,3704           03665                           TC       RECAL2
003348:


003350:
003351:                                                                                                  #  MISCELLANEOUS SERVICE ROUTINES IN FIXED/FIXED
003352:
003353:
003354:    4315                                           SETLOC   ENDBLFF
003355:
003356:    4315                                           COUNT*   $$/PIN
003357:                                                                                                  #  SETNCADR       E CADR ARRIVES IN A. IT IS STORED IN NOUNCADR. EBANK BITS
003358:                                                                                                  #                 ARE SET. E ADRES IS DERIVED AND PUT INTO NOUNADD.
003359:
003360:    4315           55020        SETNCADR           TS       NOUNCADR                              #  STORE ECADR
003361:    4316           54003                           TS       EBANK                                 #  SET EBANK BITS
003362:    4317           74371                           MASK     LOW8
003363:    4320           65057                           AD       OCT1400
003364:    4321           54145                           TS       NOUNADD                               #  PUT E ADRES INTO NOUNADD
003365:    4322           00002                           TC       Q
003366:
003367:
003368:                                                                                                  #  SETNADD        GETS E CADR FROM NOUNCADR, SETS EBANK BITS, DERIVES
003369:                                                                                                  #                 E ADRES AND PUTS IT INTO NOUNADD.
003370:
003371:    4323           31020        SETNADD            CA       NOUNCADR
003372:    4324           14316                           TCF      SETNCADR   +1
003373:
003374:
003375:                                                                                                  #  SETEBANK       E CADR ARRIVES IN A. EBANK BITS ARE SET. E ADRES IS
003376:                                                                                                  #                 DERIVED AND LEFT IN A.
003377:
003378:    4325           54003        SETEBANK           TS       EBANK                                 #  SET EBANK BITS
003379:    4326           74371                           MASK     LOW8
003380:    4327           65057                           AD       OCT1400                               #  E ADRES LEFT IN A
003381:    4330           00002                           TC       Q
003382:
003383:
003384:    4331           00016        R1D1               OCT      16                                    #  THESE 3 CONSTANTS FORM A PACKED TABLE.
003385:    4332           00011        R2D1               OCT      11                                    #  DONT SEPARATE.
003386:    4333           00004        R3D1               OCT      4
003387:
003388:    4334           54020        RIGHT5             TS       CYR
003389:    4335           40020                           CS       CYR
003390:    4336           40020                           CS       CYR
003391:    4337           40020                           CS       CYR
003392:    4340           40020                           CS       CYR
003393:    4341           56020                           XCH      CYR
003394:    4342           00002                           TC       Q
003395:
003396:    4343           54022        LEFT5              TS       CYL
003397:    4344           40022                           CS       CYL
003398:    4345           40022                           CS       CYL
003399:    4346           40022                           CS       CYL
003400:    4347           40022                           CS       CYL
003401:    4350           56022                           XCH      CYL
003402:    4351           00002                           TC       Q
003403:
003404:    4352           60000        SLEFT5             DOUBLE
003405:    4353           60000                           DOUBLE
003406:    4354           60000                           DOUBLE
003407:    4355           60000                           DOUBLE
003408:    4356           60000                           DOUBLE
003409:    4357           00002                           TC       Q
003410:
003411:
003412:    4360           00037        LOW5               OCT      37                                    #  THESE 3 CONSTANTS FORM A PACKED TABLE.
003413:    4361           01740        MID5               OCT      1740                                  #  DONT SEPARATE.
003414:    4362           76000        HI5                OCT      76000                                 #  MUST STAY HERE
003415:
003416:    4363           05142        TCNOVAC            TC       NOVAC
003417:    4364           05252        TCWAIT             TC       WAITLIST
003418:    4365           05321        TCTSKOVR           TC       TASKOVER
003419:    4366           05155        TCFINDVC           TC       FINDVAC
003420:
003421:
003422:    4367           30000        CHRPRIO            OCT      30000                                 #  EXEC PRIORITY OF CHARIN
003423:
003424:
003425:    4370           03777        LOW11              OCT      3777
003426:    4371     4370               B12-1              EQUALS   LOW11
003427:    4371           00377        LOW8               OCT      377
003428:
003429:
003430:    4372           00023        VD1                OCT      23                                    #  THESE 3 CONSTANTS FORM A PACKED TABLE.
003431:    4373           00021        ND1                OCT      21                                    #  DONT SEPARATE.
003432:    4374           00025        MD1                OCT      25
003433:
003434:    4375           00012        BINCON             DEC      10         B-14
003435:
003436:    4376           35020        FALTON             CA       BIT7                                  #  TURN ON OPERATOR ERROR LIGHT
003437:    4377           00006                           EXTEND
003438:    4400           05011                           WOR      DSALMOUT                              #  BIT 7 OF CHANNEL 11
003439:    4401           00002                           TC       Q
003440:
003441:    4402           45020        FALTOF             CS       BIT7                                  #  TURN OFF OPERATOR ERROR LIGHT
003442:    4403           00006                           EXTEND
003443:    4404           03011                           WAND     DSALMOUT                              #  BIT 7 OF CHANNEL 11
003444:    4405           00002                           TC       Q
003445:
003446:    4406           35022        RELDSPON           CAF      BIT5                                  #  TURN ON KEY RELEASE LIGHT
003447:    4407           00006                           EXTEND
003448:    4410           05011                           WOR      DSALMOUT                              #  BIT 5 OF CHANNEL 11
003449:    4411           00002                           TC       Q
003450:
003451:    4412           00006        LODSAMPT           EXTEND
003452:    4413           30025                           DCA      TIME2
003453:    4414           52014                           DXCH     SAMPTIME
003454:    4415           00002                           TC       Q
003455:
003456:
003457:    4416           00006        TPSL1              EXTEND                                         #  SHIFTS MPAC, +1, +2 LEFT 1
003458:    4417           30156                           DCA      MPAC       +1                         #  LEAVES OVFIND SET TO +/- 1 FOR OF/UF
003459:    4420           20156                           DAS      MPAC       +1
003460:    4421           60154                           AD       MPAC
003461:    4422           26154                           ADS      MPAC
003462:    4423           54007                           TS       7                                     #  TS A DOES NOT CHANGE A ON OF/UF.
003463:    4424           00002                           TC       Q                                     #  NO NET OF/UF
003464:    4425           54162                           TS       MPAC+6                                #  MPAC +6 SET TO +/-1 FOR OF/UF
003465:    4426           00002                           TC       Q
003466:
003467:
003468:                                                                                                  #  IF MPAC, +1 ARE EACH +NZ OR +0 AND C(A)=-0, SHORTMP WRONGLY GIVES +0.
003469:                                                                                                  #  IF MPAC, +1 ARE EACH -NZ OR -0 AND C(A)=+0, SHORTMP WRONGLY GIVES +0.
003470:                                                                                                  #  PRSHRTMP FIXES FIRST CASE ONLY, BY MERELY TESTING C(A) AND IF IT = -0,
003471:                                                                                                  #  SETTING RESULT TO -0.
003472:                                                                                                  #   (DO NOT USE PRSHRTMP UNLESS MPAC, +1 ARE EACH +NZ OR +0, AS THEY ARE
003473:                                                                                                  #   WHEN THEY CONTAIN TH E SF CONSTANTS.)
003474:
003475:    4427           54135        PRSHRTMP           TS       MPTEMP
003476:    4430           10000                           CCS      A
003477:    4431           30135                           CA       MPTEMP                                #  C(A) +, DO REGULAR SHORTMP
003478:    4432           17262                           TCF      SHORTMP    +1                         #  C(A) +0, DO REGULAR SHORTMP
003479:    4433           14431                           TCF      -2                                    #  C(A) -, DO REGULAR SHORTMP
003480:    4434           45030                           CS       ZERO                                  #  C(A) -0, FORCE RESULT TO -0 AND RETURN.
003481:    4435           54154                           TS       MPAC
003482:    4436           54155                           TS       MPAC       +1
003483:    4437           54156                           TS       MPAC       +2
003484:    4440           00002                           TC       Q
003485:
003486:
003487:    4441           35021        FLASHON            CAF      BIT6                                  #  TURN ON V/N FLASH
003488:    4442           00006                           EXTEND                                         #  BIT 6 OF CHANNEL 11
003489:    4443           05011                           WOR      DSALMOUT
003490:    4444           00002                           TC       Q
003491:
003492:
003493:    4445           45021        FLASHOFF           CS       BIT6                                  #  TURN OFF V/N FLASH
003494:    4446           00006                           EXTEND
003495:    4447           03011                           WAND     DSALMOUT                              #  BIT 6 OF CHANNEL 11
003496:    4450           00002                           TC       Q
003497:
003498:                                                                                                  #  INTERNAL USE OF KEYBOARD AND DISPLAY PROGRAM
003499:
003500:                                                                                                  #  USER MUST SCHEDULE CALLS TO NVSUB SO THAT THERE IS NO CONFLICT OF USE OR
003501:                                                                                                  #  CONFUSION TO OPERATOR. THE OLD GRABLOCK (INTERNAL/INTERNAL INTERLOCK)
003502:                                                                                                  #  HAS BEEN REMOVED AND THE INTERNAL USER NO LONGER HAS THE PROTECTION THIS
003503:                                                                                                  #  OFFERED.
003504:
003505:                                                                                                  #  THERE ARE TWO WAYS A JOB CAN BE PUT TO SLEEP BY THE KEYBOARD + DISPLAY
003506:                                                                                                  #  PROGRAM.    1) BY ENDIDLE
003507:                                                                                                  #              2) BY NVSUBUSY
003508:                                                                                                  #  THE BASIC CONVENTION IS THAT ONLY ONE JOB WILL BE PERMITTED ASLEEP VIA
003509:                                                                                                  #  THE KEYBOARD + DISPLAY PROGRAM AT A TIME. IF A JOB ATTEMPTS TO GO TO
003510:                                                                                                  #  SLEEP BY MEANS OF (1) OR (2) AND THERE IS ALREADY A JOB ASLEEP THAT WAS
003511:                                                                                                  #  PUT TO SLEEP BY (1) OR (2), THEN AN ABORT IS CAUSED.
003512:
003513:
003514:                                                                                                  #  THE CALLING SEQUENCE FOR NVSUB IS
003515:                                                                                                  #           CAF    V/N
003516:                                                                                                  #  L        TC     NVSUB
003517:                                                                                                  #  L+1      RETURN HERE IF OPERATOR HAS INTERVENED
003518:                                                                                                  #  L+2      RETURN HERE AFTER EXECUTION
003519:
003520:
003521:                                                                                                  #        A ROUTINE CALLED  NVSUBUSY IS PROVIDED (USE IS OPTIONAL)  TO PUT
003522:                                                                                                  #  YOUR JOB TO SLEEP UNTIL THE OPERATOR RELEASES THE KEYBOARD + DISPLAY
003523:                                                                                                  #  SYSTEM. NVSUBUSY ALSO TURNS ON THE KEY RELEASE LIGHT.
003524:                                                                                                  #  NVSUBUSY CANNOT BE CALLED FROM ERASABLE OR F/F MEMORY,
003525:                                                                                                  #  SINCE JOBSLEEP AND JOBWAKE CAN HANDLE ONLY FIXED BANKS.
003526:
003527:
003528:                                                                                                  #         THE CALLING SEQUENCE IS
003529:                                                                                                  #           CAF    WAKEFCADR
003530:                                                                                                  #           TC     NVSUBUSY
003531:
003532:
003533:                                                                                                  #  .
003534:
003535:
003536:                                                                                                  #  NVSUBUSY IS INTENDED FOR USE WHEN AN INTERNAL PROGRAM FINDS THE OPERATOR
003537:                                                                                                  #  IS USING THE KEYBOARD + DISPLAY PROGRAM (BY HIS OWN INITIATION). IT IS
003538:                                                                                                  #  NOT INTENDED FOR USE WHEN ONE INTERNAL PROGRAM FINDS ANOTHER INTERNAL
003539:                                                                                                  #  PROGRAM USING THE KEYBOARD + DISPLAY PROGRAM.
003540:
003541:
003542:                                                                                                  #  NVSUBUSY ABORTS (WITH CODE 01206) IF A SECOND JOB ATTEMPTS TO GO TO
003543:                                                                                                  #  SLEEP IN PINBALL. IN PARTICULAR, IF AN ATTEMPT IS MADE TO GO TO NVSUBUSY
003544:                                                                                                  #  WHEN
003545:                                                                                                  #  1) DSPLIST NOT= +0. THIS IS THE CASE WHERE THE CAPACITY OF THE DSPLIST
003546:                                                                                                  #     IS EXCEEDED.
003547:                                                                                                  #  2) CADRSTOR NOT= +0. THIS INDICATES THAT A JOB IS ALREADY USING
003548:                                                                                                  #  ENDIDLE. (+-NZ INDICATE A JOB IS ALREADY ASLEEP DUE TO ENDIDLE.)
003549:
003550:    4451           44456        PRENVBSY           CS       2K+3                                  #  SPECIAL ENTRANCE FOR ROUTINES IN FIXED
003551:    4452           60002                           AD       Q                                     #  BANKS ONLY DESIRING THE FCADR OF(LOC
003552:    4453           60004                           AD       FBANK                                 #  FROM WHICH THE TC PRENVBSY WAS DONE) -2
003553:    4454           04674        NVSUBUSY           TC       POSTJUMP                              #  TO BE ENTERED.
003554:    4455           10521                           CADR     NVSUBSY1
003555:    4456           02003        2K+3               OCT      2003
003556:
003557:                                                                                                  #  NVSUBSY1 MUST BE IN BANK 27 OR LOWER, SO IT WILL PUT CALLER TO SLEEP
003558:                                                                                                  #  WITH HIS PROPER SUPERBITS.
003559:
003560: 04,2521                                           SETLOC   ENDSPMM    +1
003561: 04,2521                                           COUNT*   $$/PIN
003562: 04,2521           54001        NVSUBSY1           TS       L
003563: 04,2522           04232                           TC       ISCADR+0                              #  ABORT IF CADRSTOR NOT= +0.
003564: 04,2523           04236                           TC       ISLIST+0                              #  ABORT IF DSPLIST NOT= +0.
003565: 04,2524           04406                           TC       RELDSPON
003566: 04,2525           30001                           CA       L
003567: 04,2526           55044                           TS       DSPLIST
003568: 04,2527           05203        ENDNVBSY           TC       JOBSLEEP
003569:
003570:
003571:                                                                                                  #  NVSBWAIT IS A SPECIAL ENTRANCE FOR ROUTINES IN FIXED BANKS ONLY. IF
003572:                                                                                                  #  SYSTEM IS NOT BUSY, IT EXECUTES V/N AND RETURNS TO L+1 (L= LOC FROM
003573:                                                                                                  #  WHICH THE TC NVSBWAIT WAS DONE). IF SYSTEM IS BUSY, IT PUTS CALLING JOB
003574:                                                                                                  #  TO SLEEP WITH L-1 GOING INTO LIST FOR EVENTUAL WAKING UP WHEN SYSTEM
003575:                                                                                                  #  IS NOT BUSY.
003576:
003577:    4457                                           SETLOC   NVSUBUSY   +3
003578:    4457                                           COUNT*   $$/PIN
003579:    4457           22007        NVSBWAIT           LXCH     7                                     #  ZERO NVMONOPT OPTIONS
003580:    4460           54123                           TS       NVTEMP
003581:    4461           35011                           CAF      BIT14
003582:    4462           71022                           MASK     MONSAVE1                              #  EXTERNAL MONITOR BIT
003583:    4463           61013                           AD       DSPLOCK
003584:    4464           10000                           CCS      A
003585:    4465           14467                           TCF      NVSBWT1                               #  BUSY
003586:    4466           14176                           TCF      NVSBCOM                               #  FREE. NVSUB WILL SAVE L+1 FOR RETURN
003587:                                                                                                  #  AFTER EXECUTION.
003588:    4467           24002        NVSBWT1            INCR     Q                                     #  L+2. PRENVBSY WILL PUT L-1 INTO LIST AND
003589:    4470           14451                           TCF      PRENVBSY                              #  GO TO SLEEP.
003590:
003591:
003592:                                                                                                  #  RELDSP IS USED BY VBPROC, VBTERM, VBRQEXEC, VBRQWAIT, VBRELDSP, EXTENDED
003593:                                                                                                  #  VERB DISPATCHER, VBRESEQ, RECALTST.
003594:                                                                                                  #  RELDSP1 IS USED BY MONITOR SET UP, VBRELDSP.
003595:    4471           56002        RELDSP             XCH      Q                                     #  SET DSPLOCK TO +0, TURN RELDSP LIGHT
003596:    4472           54144                           TS       RELRET                                #  OFF, SEARCH DSPLIST
003597:    4473           45011                           CS       BIT14
003598:    4474           00004                           INHINT
003599:    4475           71022                           MASK     MONSAVE1
003600:    4476           55022                           TS       MONSAVE1                              #  TURN OFF EXTERNAL MONITOR BIT
003601:    4477           11044                           CCS      DSPLIST
003602:    4500           04502                           TC       +2
003603:    4501           04505                           TC       RELDSP2                               #  LIST EMPTY
003604:    4502           35030                           CAF      ZERO
003605:    4503           57044                           XCH      DSPLIST
003606:    4504           05207                           TC       JOBWAKE
003607:    4505           00003        RELDSP2            RELINT
003608:    4506           45022                           CS       BIT5                                  #  TURN OFF KEY RELEASE LIGHT
003609:    4507           00006                           EXTEND                                         #  (BIT 5 OF CHANNEL 11)
003610:    4510           03011                           WAND     DSALMOUT
003611:    4511           35030                           CAF      ZERO
003612:    4512           55013                           TS       DSPLOCK
003613:    4513           00144                           TC       RELRET
003614:    4514           56002        RELDSP1            XCH      Q                                     #  SET DSPLOCK TO +0. NO DSPLIST SEARCH.
003615:    4515           54144                           TS       RELRET                                #  TURN KEY RLSE LIGHT OFF IF DSPLIST IS
003616:                                                                                                  #  EMPTY. LEAVE KEY RLSE LIGHT ALONE IF
003617:                                                                                                  #  DSPLIST IS NOT EMPTY.
003618:    4516           11044                           CCS      DSPLIST
003619:    4517           04521                           TC       +2                                    #  +  NOT EMPTY. LEAVE KEY RLSE LIGHT ALONE
003620:    4520           04505                           TC       RELDSP2                               #  +0 EMPTY. TURN OFF KEY RLSE LIGHT
003621:    4521           35030                           CAF      ZERO                                  #  -  NOT EMPTY. LEAVE KEY RLSE LIGHT ALONE
003622:    4522           55013                           TS       DSPLOCK
003623:    4523           00144                           TC       RELRET
003624:
003625:
003626:    4524                        ENDPINBF           EQUALS
003627:
003628:                                                                                                  #  PINTEST IS NEEDED FOR AUTO CHECK OF PINBALL.
003629:
003630:    4524  43,2002               PINTEST            EQUALS   LST2FAN
003631:


003633:
003634:                                                                                                  #  VBTSTLTS TURNS ON ALL DISPLAY PANEL LIGHTS. AFTER 5 SEC, IT TURNS
003635:                                                                                                  #  OFF THE CAUTION AND STATUS LIGHTS.
003636:
003637: 41,3606                                           SETLOC   ENDNVSB1   +1
003638:
003639: 41,3606                                           COUNT*   $$/PIN
003640: 41,3606           00004        VBTSTLTS           INHINT
003641: 41,3607           45026                           CS       BIT1                                  #  SET BIT 1 OF IMODES33 SO IMUMON WONT
003642: 41,3610           71305                           MASK     IMODES33                              #  TURN OUT ANY LAMPS.
003643: 41,3611           65026                           AD       BIT1
003644: 41,3612           55305                           TS       IMODES33
003645:
003646: 41,3613           33651                           CAF      TSTCON1                               #  TURN ON UPLINK ACTIVITY, TEMP, KEY RLSE,
003647: 41,3614           00006                           EXTEND                                         #  V/N FLASH, OPERATOR ERROR.
003648: 41,3615           05011                           WOR      DSALMOUT
003649: 41,3616           33652                           CAF      TSTCON2                               #  TURN ON NO ATT, GIMBAL LOCK, TRACKER,
003650: 41,3617           55037                           TS       DSPTAB     +11D                       #  PROG ALM.
003651: 41,3620           35015                           CAF      BIT10                                 #  TURN ON TEST ALARM OUTBIT
003652: 41,3621           00006                           EXTEND
003653: 41,3622           05013                           WOR      CHAN13
003654: 41,3623           34375                           CAF      TEN
003655: 41,3624           54117        TSTLTS1            TS       ERCNT
003656: 41,3625           43647                           CS       FULLDSP
003657: 41,3626           50117                           INDEX    ERCNT
003658: 41,3627           55024                           TS       DSPTAB
003659: 41,3630           10117                           CCS      ERCNT
003660: 41,3631           03624                           TC       TSTLTS1
003661: 41,3632           43650                           CS       FULLDSP1
003662: 41,3633           55025                           TS       DSPTAB     +1                         #  TURN ON 3 PLUS SIGNS
003663: 41,3634           55030                           TS       DSPTAB     +4
003664: 41,3635           55032                           TS       DSPTAB     +6
003665: 41,3636           35033                           CAF      ELEVEN
003666: 41,3637           55017                           TS       NOUT
003667: 41,3640           00003                           RELINT
003668: 41,3641           33654                           CAF      SHOLTS
003669: 41,3642           00004                           INHINT
003670: 41,3643           05252                           TC       WAITLIST
003671: 41,3644     1024                                  EBANK=   DSPTAB
003672: 41,3644           03655 62102                     2CADR    TSTLTS2
003673:
003674: 41,3646           05225                           TC       ENDOFJOB                              #  DSPLOCK IS LEFT BUSY (FROM KEYBOARD
003675:                                                                                                  #  ACTION) UNTIL TSTLTS3 TO INSURE THAT
003676:                                                                                                  #  LIGHTS TEST WILL BE SEEN.
003677:
003678:
003679: 41,3647           05675        FULLDSP            OCT      05675                                 #  DISPLAY ALL 8:S
003680: 41,3650           07675        FULLDSP1           OCT      07675                                 #  DISPLAY ALL 8:S AND +
003681: 41,3651           00175        TSTCON1            OCT      00175
003682:                                                                                                  #  UPLINK ACTIVITY, TEMP, KEY RLSE,
003683:                                                                                                  #  V/N FLASH, OPERATOR ERROR.
003684: 41,3652           40650        TSTCON2            OCT      40650                                 #  DSPTAB+11D  BITS 4,6,8,9.
003685:                                                                                                  #  NO ATT, GIMBAL LOCK, TRACKER, PROG ALM.
003686: 41,3653           00115        TSTCON3            OCT      00115                                 #  CHAN 11  BITS 1, 3, 4, 7.
003687:                                                                                                  #  UPLINK ACTIVITY, TEMP, OPERATOR ERROR.
003688: 41,3654           00764        SHOLTS             OCT      764                                   #  5 SEC
003689:
003690:
003691: 41,3655           34367        TSTLTS2            CAF      CHRPRIO                               #  CALLED BY WAITLIST
003692: 41,3656           05142                           TC       NOVAC
003693: 41,3657     1024                                  EBANK=   DSPTAB
003694: 41,3657           03662 62102                     2CADR    TSTLTS3
003695:
003696: 41,3661           05321                           TC       TASKOVER
003697:
003698:
003699: 41,3662           43653        TSTLTS3            CS       TSTCON3                               #  CALLED BY EXECUTIVE
003700: 41,3663           00004                           INHINT
003701: 41,3664           00006                           EXTEND                                         #  TURN OFF  UPLINK ACTIVITY, TEMP,
003702: 41,3665           03011                           WAND     DSALMOUT                              #  OPERATOR ERROR.
003703: 41,3666           45015                           CS       BIT10                                 #  TURN OFF TEST ALARM OUTBIT
003704: 41,3667           00006                           EXTEND
003705: 41,3670           03013                           WAND     CHAN13
003706: 41,3671           35023                           CAF      BIT4                                  #  MAKE NO ATT FOLLOW BIT 4 OF CHANNEL 12
003707: 41,3672           00006                           EXTEND                                         #    (NO ATT LIGHT ON IF IN COARSE ALIGN)
003708: 41,3673           02012                           RAND     CHAN12
003709: 41,3674           65010                           AD       BIT15                                 #  TURN OFF AUTO, HOLD, FREE, SPARE,
003710: 41,3675           55037                           TS       DSPTAB     +11D                       #  GIMBAL LOCK, SPARE, TRACKER, PROG ALM
003711: 41,3676           43721                           CS       13-11,1                               #  SET BITS TO INDICATE ALL LAMPS OUT. TEST
003712: 41,3677           71305                           MASK     IMODES33                              #  LIGHTS COMPLETE.
003713: 41,3700           65076                           AD       PRIO16
003714: 41,3701           55305                           TS       IMODES33
003715:
003716: 41,3702           43723                           CS       OCT55000
003717: 41,3703           71304                           MASK     IMODES30
003718: 41,3704           65075                           AD       PRIO15                                #  15000.
003719: 41,3705           55304                           TS       IMODES30
003720:
003721: 41,3706           43722                           CS       RFAILS2
003722: 41,3707           71101                           MASK     RADMODES
003723: 41,3710           65020                           AD       BIT7
003724: 41,3711           55101                           TS       RADMODES
003725:
003726: 41,3712           00003                           RELINT
003727:
003728: 41,3713           04655                           TC       BANKCALL                              #  REDISPLAY C(MODREG)
003729: 41,3714           10510                           CADR     DSPMM
003730: 41,3715           04216                           TC       KILMONON                              #  TURN ON KILL MONITOR BIT.
003731: 41,3716           04445                           TC       FLASHOFF                              #  TURN OFF V/N FLASH.
003732: 41,3717           04674                           TC       POSTJUMP                              #  DOES RELDSP AND GOES TO PINBRNCH IF
003733: 41,3720           61573                           CADR     TSTLTS4                               #   ENDIDLE IS AWAITING OPERATOR RESPONSE.
003734: 41,3721           16001        13-11,1            OCT      16001
003735: 41,3722           00330        RFAILS2            OCT      330                                   #  RADAR CDU AND DATA FAIL FLAGS.
003736: 41,3723           55000        OCT55000           OCT      55000
003737: 41,3724                        ENDPINS2           EQUALS
003738:
003739:                                                                                                  #  ERROR LIGHT RESET (RSET) TURNS OFF,
003740:                                                                                                  #  UPLINK ACTIVITY, AUTO, HOLD, FREE, OPERATOR ERROR,
003741:                                                                                                  #  PROG ALM, TRACKER FAIL.
003742:                                                                                                  #  LEAVES GIMBAL LOCK AND NO ATT ALONE.
003743:                                                                                                  #  IT ALSO ZEROES THE :TEST ALARM: OUT BIT, WHICH TURNS OFF STBY,RESTART.
003744:                                                                                                  #  IT ALSO SETS :CAUTION RESET: TO 1.
003745:                                                                                                  #  IT ALSO FORCES BIT 12 OF ALL DSPTAB ENTRIES TO 1.
003746:
003747: 40,3705                                           SETLOC   DOPROC     +2
003748: 40,3705                                           COUNT*   $$/PIN
003749: 40,3705           56115        ERROR              XCH      21/22REG                              #  RESTORE ORIGINAL C(DSPLOCK). THUS ERROR
003750: 40,3706           55013                           TS       DSPLOCK                               #  LIGHT RESET LEAVES DSPLOCK UNCHANGED.
003751: 40,3707           00004                           INHINT
003752: 40,3710           35015                           CAF      BIT10                                 #  TURN ON :CAUTION RESET: OUTBIT
003753: 40,3711           00006                           EXTEND
003754: 40,3712           05011                           WOR      DSALMOUT                              #  BIT10 CHAN 11
003755: 40,3713           33774                           CAF      GL+NOATT                              #  LEAVE GIMBAL LOCK AND NO ATT INTACT,
003756: 40,3714           71037                           MASK     DSPTAB     +11D                       #  TURNING OFF AUTO, HOLD, FREE,
003757: 40,3715           65010                           AD       BIT15                                 #  PROG ALARM, AND TRACKER.
003758: 40,3716           55037                           TS       DSPTAB     +11D
003759: 40,3717           45076                           CS       PRIO16                                #  RESET FAIL BITS WHICH GENERATE PROG
003760: 40,3720           71305                           MASK     IMODES33                              #  ALARM SO THAT IF THE FAILURE STILL
003761: 40,3721           65076                           AD       PRIO16                                #  EXISTS, THE ALARM WILL COME BACK.
003762: 40,3722           55305                           TS       IMODES33
003763: 40,3723           45015                           CS       BIT10
003764: 40,3724           71304                           MASK     IMODES30
003765: 40,3725           65015                           AD       BIT10
003766: 40,3726           55304                           TS       IMODES30
003767:
003768: 40,3727           43773                           CS       RFAILS
003769: 40,3730           71101                           MASK     RADMODES
003770: 40,3731           65020                           AD       BIT7
003771: 40,3732           55101                           TS       RADMODES
003772:
003773: 40,3733           45015                           CS       BIT10                                 #  TURN OFF :TEST ALARM: OUTBIT.
003774: 40,3734           00006                           EXTEND
003775: 40,3735           03013                           WAND     CHAN13
003776: 40,3736           43772                           CS       ERCON                                 #  TURN OFF UPLINK ACTIVITY,
003777: 40,3737           00006                           EXTEND                                         #  OPERATOR ERROR.
003778: 40,3740           03011                           WAND     DSALMOUT
003779: 40,3741           34375        TSTAB              CAF      BINCON                                #  (DEC 10)
003780: 40,3742           54117                           TS       ERCNT                                 #  ERCNT = COUNT
003781: 40,3743           00004                           INHINT
003782: 40,3744           50117                           INDEX    ERCNT
003783: 40,3745           11024                           CCS      DSPTAB
003784: 40,3746           65026                           AD       ONE
003785: 40,3747           03754                           TC       ERPLUS
003786: 40,3750           65026                           AD       ONE
003787: 40,3751           40000        ERMINUS            CS       A
003788: 40,3752           73775                           MASK     NOTBIT12
003789: 40,3753           03757                           TC       ERCOM
003790: 40,3754           40000        ERPLUS             CS       A
003791: 40,3755           73775                           MASK     NOTBIT12
003792: 40,3756           40000                           CS       A                                     #  MIGHT WANT TO RESET CLPASS, DECBRNCH,
003793: 40,3757           50117        ERCOM              INDEX    ERCNT                                 #  ETC.
003794: 40,3760           55024                           TS       DSPTAB
003795: 40,3761           00003                           RELINT
003796: 40,3762           10117                           CCS      ERCNT
003797: 40,3763           03742                           TC       TSTAB      +1
003798: 40,3764           35030                           CAF      ZERO
003799: 40,3765           54375                           TS       FAILREG
003800: 40,3766           54376                           TS       FAILREG    +1
003801: 40,3767           54377                           TS       FAILREG    +2
003802: 40,3770           55357                           TS       SFAIL
003803: 40,3771           05225                           TC       ENDOFJOB
003804:
003805: 40,3772           00104        ERCON              OCT      104                                   #  CHAN 11 BITS 3,7.
003806:                                                                                                  #  UPLINK ACTIVITY, AND OPERATOR ERROR.
003807: 40,3773           00330        RFAILS             OCT      330                                   #  RADAR CDU AND DATA FAIL FLAGS.
003808: 40,3774           00050        GL+NOATT           OCT      00050                                 #  NO ATT AND GIMBAL LOCK LAMPS
003809: 40,3775           73777        NOTBIT12           OCT      73777
003810:
003811:
003812: 40,3776                        ENDPINS1           EQUALS
003813:
003814:
003815: 40,3776  30,2000                                  SBANK=   LOWSUPER

End of include-file PINBALL_GAME__BUTTONS_AND_LIGHTS.agc.  Parent file is MAIN.agc


