
Source Code


000002:                                                                                                  ## Copyright:   Public domain.
000003:                                                                                                  ## Filename:    PLANETARY_INERTIAL_ORIENTATION.agc
000004:                                                                                                  ## Purpose:     A section of a reconstructed, mixed version of Sundance
000005:                                                                                                  ##              It is part of the reconstructed source code for the Lunar
000006:                                                                                                  ##              Module's (LM) Apollo Guidance Computer (AGC) for Apollo 9.
000007:                                                                                                  ##              No original listings of this program are available;
000008:                                                                                                  ##              instead, this file was created via disassembly of dumps
000009:                                                                                                  ##              of various revisions of Sundance core rope modules.
000010:                                                                                                  ## Assembler:   yaYUL
000011:                                                                                                  ## Contact:     Ron Burkey <info@sandroid.org>.
000012:                                                                                                  ## Website:     www.ibiblio.org/apollo/index.html
000013:                                                                                                  ## Mod history: 2020-06-17 MAS  Created from Luminary 69.
000014:
000015:                                                                                                  ## Sundance 302
000016:
000017:                                                                                                  #  ..... RP-TO-R SUBROUTINE .....
000018:                                                                                                  #  SUBROUTINE TO CONVERT RP (VECTOR IN PLANETARY COORDINATE SYSTEM, EITHER
000019:                                                                                                  #   EARTH-FIXED OR MOON-FIXED) TO R (SAME VECTOR IN THE BASIC REF. SYSTEM)
000020:
000021:                                                                                                  #        R = MT(T)*(RP + LP X RP)        MT = M MATRIX TRANSPOSE
000022:
000023:                                                                                                  #  CALLING SEQUENCE
000024:                                                                                                  #        L       CALL
000025:                                                                                                  #        L+1             RP-TO-R
000026:
000027:                                                                                                  #  SUBROUTINES USED
000028:                                                                                                  #        EARTHMX,MOONMX,EARTHL
000029:
000030:                                                                                                  #        ITEMS AVAILABLE FROM LAUNCH DATA
000031:                                                                                                  #                504LM = THE LIBRATION VECTOR L OF THE MOON AT TIME TIMSUBL,EXPRESSED
000032:                                                                                                  #                        IN THE MOON-FIXED COORD. SYSTEM         RADIANS B0
000033:
000034:                                                                                                  #        ITEMS NECESSARY FOR SUBR. USED (SEE DESCRIPTION OF SUBR.)
000035:
000036:                                                                                                  #  INPUT
000037:                                                                                                  #        MPAC= 0 FOR EARTH, NON-ZERO FOR MOON
000038:                                                                                                  #        0-5D= RP VECTOR
000039:                                                                                                  #        6-7D= TIME
000040:
000041:                                                                                                  #  OUTPUT
000042:                                                                                                  #        MPAC = R VECTOR METERS B-29 FOR EARTH, B-27 FOR MOON
000043:
000044: 24,2000                                           SETLOC   PLANTIN
000045: 24,2000                                           BANK
000046:
000047: 24,3220                                           COUNT*   $$/LUROT
000048:
000049: 24,3220           46020        RP-TO-R            STQ      BHIZ
000050: 24,3221           00050                                    RPREXIT
000051: 24,3222           51235                                    RPTORA
000052: 24,3223           77624                           CALL                                           #  COMPUTE M MATRIX FOR MOON
000053: 24,3224           51275                                    MOONMX                                #  LP=LM FOR MOON  RADIANS B0
000054: 24,3225           77775                           VLOAD
000055: 24,3226           02011                                    504LM
000056: 24,3227           53235        RPTORB             VXV      VAD
000057: 24,3230           00001                                    504RPR
000058: 24,3231           00001                                    504RPR
000059: 24,3232           52105                           VXM      GOTO
000060: 24,3233           00025                                    MMATRIX                               #  MPAC=R=MT(T)*(RP+LPXRP)
000061: 24,3234           51263                                    RPRPXXXX                              #  RESET PUSHLOC TO 0 BEFORE EXITING
000062: 24,3235           77624        RPTORA             CALL                                           #  EARTH COMPUTATIONS
000063: 24,3236           51447                                    EARTHMX                               #  M MATRIX B-1
000064: 24,3237           77624                           CALL
000065: 24,3240           51501                                    EARTHL                                #  L VECTOR RADIANS B0
000066: 24,3241           76521                           MXV      VSL1                                  #  LP=M(T)*L  RAD B-0
000067: 24,3242           00025                                    MMATRIX
000068: 24,3243           77650                           GOTO
000069: 24,3244           51227                                    RPTORB
000070:
000071:                                                                                                  #  ..... R-TO-RP SUBROUTINE .....
000072:                                                                                                  #  SUBROUTINE TO CONVERT R (VECTOR IN REFERENCE COORD. SYSTEM) TO RP
000073:                                                                                                  #  (VECTOR IN PLANETARY COORD SYSTEM) EITHER EARTH-FIXED OR MOON-FIXED
000074:
000075:                                                                                                  #        RP = M(T)*(R - L X R)
000076:
000077:                                                                                                  #  CALLING SEQUENCE
000078:                                                                                                  #        L       CALL
000079:                                                                                                  #        L+1             R-TO-RP
000080:
000081:                                                                                                  #  SUBROUTINES USED
000082:                                                                                                  #        EARTHMX,MOONMX,EARTHL
000083:
000084:                                                                                                  #  INPUT
000085:                                                                                                  #        MPAC= 0 FOR EARTH,NON-ZERO FOR MOON
000086:                                                                                                  #        0-5D= R VECTOR
000087:                                                                                                  #        6-7D= TIME
000088:
000089:                                                                                                  #        ITEMS AVAILABLE FROM LAUNCH DATA
000090:                                                                                                  #                504LM = THE LIBRATION VECTOR L OF THE MOON AT TIME TIMSUBL,EXPRESSED
000091:                                                                                                  #                        IN THE MOON-FIXED COORD. SYSTEM   RADIANS B0
000092:
000093:                                                                                                  #        ITEMS NECESSARY FOR SUBROUTINES USED (SEE DESCRIPTION OF SUBR.)
000094:
000095:                                                                                                  #  OUTPUT
000096:                                                                                                  #        MPAC = RP VECTOR METERS B-29 FOR EARTH, B-27 FOR MOON
000097:
000098: 24,3245           46020        R-TO-RP            STQ      BHIZ
000099: 24,3246           00050                                    RPREXIT
000100: 24,3247           51267                                    RTORPA
000101: 24,3250           77624                           CALL
000102: 24,3251           51275                                    MOONMX
000103: 24,3252           61375                           VLOAD    VXM
000104: 24,3253           02011                                    504LM                                 #  LP=LM
000105: 24,3254           00025                                    MMATRIX
000106: 24,3255           77772                           VSL1                                           #   L=MT(T)*LP  RADIANS B0
000107: 24,3256           51235        RTORPB             VXV      BVSU
000108: 24,3257           00001                                    504RPR
000109: 24,3260           00001                                    504RPR
000110: 24,3261           77721                           MXV                                            #  M(T)*(R-LXR) B-2
000111: 24,3262           00025                                    MMATRIX
000112: 24,3263           40372        RPRPXXXX           VSL1     SETPD
000113: 24,3264           00001                                    0D
000114: 24,3265           77650                           GOTO
000115: 24,3266           00050                                    RPREXIT
000116: 24,3267           77624        RTORPA             CALL                                           #  EARTH COMPUTATIONS
000117: 24,3270           51447                                    EARTHMX
000118: 24,3271           77624                           CALL
000119: 24,3272           51501                                    EARTHL
000120: 24,3273           77650                           GOTO                                           #  MPAC=L=(-AX,-AY,0) RAD B-0
000121: 24,3274           51256                                    RTORPB
000122:
000123:                                                                                                  #  ..... MOONMX SUBROUTINE .....
000124:                                                                                                  #  SUBROUTINE TO COMPUTE THE TRANSFORMATION MATRIX M FOR THE MOON
000125:
000126:                                                                                                  #  CALLING SEQUENCE
000127:                                                                                                  #        L       CALL
000128:                                                                                                  #        L+1             MOONMX
000129:
000130:                                                                                                  #  SUBROUTINES USED
000131:                                                                                                  #        NEWANGLE
000132:
000133:                                                                                                  #  INPUT
000134:                                                                                                  #        6-7D= TIME
000135:
000136:                                                                                                  #        ITEMS AVAILABLE FROM LAUNCH DATA
000137:                                                                                                  #                BSUBO,BDOT
000138:                                                                                                  #                TIMSUBO,NODIO,NODDOT,FSUBO,FDOT
000139:                                                                                                  #                COSI= COS(I)    B-1
000140:                                                                                                  #                SINI= SIN(I)    B-1
000141:                                                                                                  #                  I IS THE ANGLE BETWEEN THE MEAN LUNAR EQUATORIAL PLANE AND THE
000142:                                                                                                  #                  PLANE OF THE ECLIPTIC (1 DEGREE 32.1 MINUTES)
000143:
000144:                                                                                                  #  OUTPUT
000145:                                                                                                  #        MMATRIX= 3X3 M MATRIX B-1       (STORED IN VAC AREA)
000146:
000147: 24,3275           40220        MOONMX             STQ      SETPD
000148: 24,3276           00051                                    EARTHMXX
000149: 24,3277           00011                                    8D
000150: 24,3300           77770                           AXT,1                                          #  B REQUIRES SL 0, SL 5 IN NEWANGLE
000151: 24,3301           00005                                    5
000152: 24,3302           65345                           DLOAD    PDDL                                  #  PD 10D        8-9D=BSUBO
000153: 24,3303           11531                                    BSUBO                                 #                10-11D=BDOT
000154: 24,3304           11523                                    BDOT
000155: 24,3305           45006                           PUSH     CALL                                  #  PD 12D
000156: 24,3306           51422                                    NEWANGLE                              #  EXIT WITH PD 8D AND MPAC= B   REVS B0
000157: 24,3307           71406                           PUSH     COS                                   #  PD 10D
000158: 24,3310           14041                           STODL    COB                                   #  PD 8D         COS(B) B-1
000159: 24,3311           77756                           SIN                                            #                SIN(B) B-1
000160: 24,3312           14043                           STODL    SOB                                   #  SETUP INPUT FOR NEWANGLE
000161: 24,3313           11527                                    FSUBO                                 #                        8-9D=FSUBO
000162: 24,3314           41525                           PDDL     PUSH                                  #  PD 10D THEN 12D       10-11D=FDOT
000163: 24,3315           11521                                    FDOT
000164: 24,3316           45170                           AXT,1    CALL                                  #  F REQUIRES SL 1, SL 6 IN NEWANGLE
000165: 24,3317           00004                                    4
000166: 24,3320           51422                                    NEWANGLE                              #  EXIT WITH PD 8D AND MPAC= F REVS B0
000167: 24,3321           14027                           STODL    AVECTR     +2                         #  SAVE F TEMP
000168: 24,3322           11525                                    NODIO                                 #                        8-9D=NODIO
000169: 24,3323           41525                           PDDL     PUSH                                  #  PD 10D THEN 12D       10-11D=NODDOT
000170: 24,3324           11517                                    NODDOT                                #                        MPAC=T
000171: 24,3325           45170                           AXT,1    CALL                                  #  NODE REQUIRES SL 0, SL 5 IN NEWANGLE
000172: 24,3326           00005                                    5
000173: 24,3327           51422                                    NEWANGLE                              #  EXIT WITH PD 8D AND MPAC= NODI REVS B0
000174: 24,3330           71406                           PUSH     COS                                   #  PD 10D        8-9D= NODI REVS B0
000175: 24,3331           77606                           PUSH                                           #  PD 12D        10-11D= COS(NODI) B-1
000176: 24,3332           00025                           STORE    AVECTR
000177: 24,3333           76405                           DMP      SL1R
000178: 24,3334           00041                                    COB                                   #                         COS(NODI) B-1
000179: 24,3335           14035                           STODL    BVECTR     +2                         #  PD 10D  20-25D=AVECTR= COB*SIN(NODI)
000180: 24,3336           76405                           DMP      SL1R                                  #                         SOB*SIN(NODI)
000181: 24,3337           00043                                    SOB
000182: 24,3340           14037                           STODL    BVECTR     +4                         #  PD 8D
000183: 24,3341           41556                           SIN      PUSH                                  #  PD 10D                -SIN(NODI) B-1
000184: 24,3342           77676                           DCOMP                                          #          26-31D=BVECTR= COB*COS(NODI)
000185: 24,3343           14033                           STODL    BVECTR                                #  PD 8D                  SOB*COS(NODI)
000186: 24,3344           00027                                    AVECTR     +2                         #  MOVE F FROM TEMP LOC. TO 504F
000187: 24,3345           14007                           STODL    504F
000188: 24,3346           76405                           DMP      SL1R
000189: 24,3347           00041                                    COB
000190: 24,3350           14027                           STODL    AVECTR     +2
000191: 24,3351           00011                                    SINNODI                               #  8-9D=SIN(NODI) B-1
000192: 24,3352           76405                           DMP      SL1R
000193: 24,3353           00043                                    SOB
000194: 24,3354           14031                           STODL    AVECTR     +4                         #                         0
000195: 24,3355           06233                                    HI6ZEROS                              #        8-13D= CVECTR= -SOB  B-1
000196: 24,3356           57525                           PDDL     DCOMP                                 #  PD 10D                COB
000197: 24,3357           00043                                    SOB
000198: 24,3360           63325                           PDDL     PDVL                                  #  PD 12D THEN PD 14D
000199: 24,3361           00041                                    COB
000200: 24,3362           00033                                    BVECTR
000201: 24,3363           63361                           VXSC     PDVL                                  #  PD 20D        BVECTR*SINI  B-2
000202: 24,3364           11515                                    SINI
000203: 24,3365           00011                                    CVECTR
000204: 24,3366           53361                           VXSC     VAD                                   #  PD 14D        CVECTR*COSI  B-2
000205: 24,3367           11513                                    COSI
000206: 24,3370           77772                           VSL1
000207: 24,3371           24041                           STOVL    MMATRIX    +12D                       #  PD 8D  M2=BVECTR*SINI+CVECTR*COSI  B-1
000208: 24,3372           63361                           VXSC     PDVL                                  #  PD 14D
000209: 24,3373           11515                                    SINI                                  #                CVECTR*SINI  B-2
000210: 24,3374           00033                                    BVECTR
000211: 24,3375           52361                           VXSC     VSU                                   #  PD 8D         BVECTR*COSI  B-2
000212: 24,3376           11513                                    COSI
000213: 24,3377           65372                           VSL1     PDDL                                  #  PD 14D
000214: 24,3400           00007                                    504F                                  #  8-13D=DVECTR=BVECTR*COSI-CVECTR*SINI  B-1
000215: 24,3401           74346                           COS      VXSC
000216: 24,3402           00011                                    DVECTR
000217: 24,3403           73525                           PDDL     SIN                                   #  PD 20D  14-19D= DVECTR*COSF  B-2
000218: 24,3404           00007                                    504F
000219: 24,3405           52361                           VXSC     VSU                                   #  PD 14D          AVECTR*SINF  B-2
000220: 24,3406           00025                                    AVECTR
000221: 24,3407           77772                           VSL1
000222: 24,3410           14033                           STODL    MMATRIX    +6                         #  M1= AVECTR*SINF-DVECTR*COSF  B-1
000223: 24,3411           00007                                    504F
000224: 24,3412           74356                           SIN      VXSC                                  #  PD 8D
000225: 24,3413           71525                           PDDL     COS                                   #  PD 14D  8-13D=DVECTR*SINF B-2
000226: 24,3414           00007                                    504F
000227: 24,3415           53361                           VXSC     VAD                                   #  PD 8D         AVECTR*COSF B-2
000228: 24,3416           00025                                    AVECTR
000229: 24,3417           57572                           VSL1     VCOMP
000230: 24,3420           34025                           STCALL   MMATRIX                               #  M0= -(AVECTR*COSF+DVECTR*SINF)  B-1
000231: 24,3421           00051                                    EARTHMXX
000232:
000233:                                                                                                  #  COMPUTE X=X0+(XDOT)(T+T0)
000234:                                                                                                  #  8-9D= XO (REVS B-0), PUSHLOC SET AT 12D
000235:                                                                                                  #  10-11D=XDOT (REVS/CSEC) SCALED B+23 FOR WEARTH,B+28 FOR NODDOT AND BDOT
000236:                                                                                                  #                        AND B+27 FOR FDOT
000237:                                                                                                  #   X1=DIFFERENCE IN 23 AND SCALING OF XDOT,=0 FOR WEARTH,5 FOR NODDOT AND
000238:                                                                                                  #                                        BDOT AND 4 FOR FDOT
000239:                                                                                                  #  6-7D=T (CSEC B-28), TIMSUBO= (CSEC B-42 TRIPLE PREC.)
000240:
000241: 24,3422           54345        NEWANGLE           DLOAD    SR                                    #  ENTER PD 12D
000242: 24,3423           00007                                    6D
000243: 24,3424           20617                                    14D
000244: 24,3425           72371                           TAD      TLOAD                                 #  CHANGE MODE TO TP
000245: 24,3426           01707                                    TIMSUBO
000246: 24,3427           00155                                    MPAC
000247: 24,3430           14017                           STODL    TIMSUBM                               #  T+T0 CSEC B-42
000248: 24,3431           00020                                    TIMSUBM    +1
000249: 24,3432           77605                           DMP                                            #  PD 10D        MULT BY XDOT IN 10-11D
000250: 24,3433           43257                           SL*      DAD                                   #  PD 8D         ADD XO IN 8-9D AFTER SHIFTING
000251: 24,3434           20206                                    5,1                                   #                SUCH THAT SCALING IS B-0
000252: 24,3435           67206                           PUSH     SLOAD                                 #  PD 10D  SAVE PARTIAL (X0+XDOT*T) IN 8-9D
000253: 24,3436           00017                                    TIMSUBM
000254: 24,3437           41261                           SL       DMP
000255: 24,3440           20212                                    9D
000256: 24,3441           00013                                    10D                                   #  XDOT
000257: 24,3442           43257                           SL*      DAD                                   #  PD 8D         SHIFT SUCH THAT THIS PART OF X
000258: 24,3443           20213                                    10D,1                                 #                IS SCALED REVS/CSEC B-0
000259: 24,3444           77600                           BOV                                            #  TURN OFF OVERFLOW IF SET BY SHIFT
000260: 24,3445           51446                                    +1                                    #  INSTRUCTION BEFORE EXITING
000261: 24,3446           77616                           RVQ                                            #  MPAC=X= X0+(XDOT)(T+T0)  REVS B0
000262:
000263:                                                                                                  #  ..... EARTHMX SUBROUTINE .....
000264:                                                                                                  #  SUBROUTINE TO COMPUTE THE TRANSFORMATION MATRIX M FOR THE EARTH
000265:
000266:                                                                                                  #  CALLING SEQUENCE
000267:                                                                                                  #        L       CALL
000268:                                                                                                  #        L+1             EARTHMX
000269:
000270:                                                                                                  #  SUBROUTINES USED
000271:                                                                                                  #        NEWANGLE
000272:
000273:                                                                                                  #  INPUT
000274:                                                                                                  #        INPUT AVAILABLE FROM LAUNCH DATA        AZO  REVS B-0
000275:                                                                                                  #                                                TEPHEM  CSEC B-42
000276:                                                                                                  #        6-7D= TIME CSEC B-28
000277:
000278:                                                                                                  #  OUTPUT
000279:                                                                                                  #        MMATRIX= 3X3 M MATRIX B-1       (STORED IN VAC AREA)
000280:
000281: 24,3447           40220        EARTHMX            STQ      SETPD                                 #  SET 8-9D=AZO
000282: 24,3450           00051                                    EARTHMXX
000283: 24,3451           00011                                    8D                                    #  10-11D=WEARTH
000284: 24,3452           77770                           AXT,1                                          #  FOR SL 5, AND SL 10 IN NEWANGLE
000285: 24,3453           00000                                    0
000286: 24,3454           65345                           DLOAD    PDDL                                  #  LEAVING PD SET AT 12D FOR NEWANGLE
000287: 24,3455           01712                                    AZO
000288: 24,3456           11533                                    WEARTH
000289: 24,3457           45006                           PUSH     CALL
000290: 24,3460           51422                                    NEWANGLE
000291: 24,3461           41401                           SETPD    PUSH                                  #  18-19D=504AZ
000292: 24,3462           00023                                    18D                                   #                         COS(AZ)   SIN(AZ)     0
000293: 24,3463           65346                           COS      PDDL                                  #  20-37D=  MMATRIX=     -SIN(AZ)   COS(AZ)     0    B-1
000294: 24,3464           00023                                    504AZ                                 #                            0         0        1
000295: 24,3465           65356                           SIN      PDDL
000296: 24,3466           06233                                    HI6ZEROS
000297: 24,3467           73525                           PDDL     SIN
000298: 24,3470           00023                                    504AZ
000299: 24,3471           65276                           DCOMP    PDDL
000300: 24,3472           00023                                    504AZ
000301: 24,3473           63346                           COS      PDVL
000302: 24,3474           06233                                    HI6ZEROS
000303: 24,3475           41525                           PDDL     PUSH
000304: 24,3476           06231                                    HIDPHALF
000305: 24,3477           77650                           GOTO
000306: 24,3500           00051                                    EARTHMXX
000307:
000308:                                                                                                  #  ..... EARTHL SUBROUTINE .....
000309:                                                                                                  #  SUBROUTINE TO COMPUTE L VECTOR FOR EARTH
000310:
000311:                                                                                                  #  CALLING SEQUENCE
000312:                                                                                                  #        L       CALL
000313:                                                                                                  #        L+1             EARTHL
000314:
000315:                                                                                                  #  INPUT
000316:                                                                                                  #        AXO,AYO SET AT LAUNCH TIME WITH AYO IMMEDIATELY FOLLOWING AXO IN CORE
000317:
000318:                                                                                                  #  OUTPUT
000319:                                                                                                  #                -AX
000320:                                                                                                  #        MPAC=   -AY     RADIANS B-0
000321:                                                                                                  #                  0
000322:
000323: 24,3501           57545        EARTHL             DLOAD    DCOMP
000324: 24,3502           01716                                    AXO
000325: 24,3503           14017                           STODL    504LPL
000326: 24,3504           01714                                    -AYO
000327: 24,3505           14021                           STODL    504LPL     +2
000328: 24,3506           06233                                    HI6ZEROS
000329: 24,3507           24023                           STOVL    504LPL     +4
000330: 24,3510           00017                                    504LPL
000331: 24,3511           77616                           RVQ
000332:
000333:                                                                                                  #  CONSTANTS AND ERASABLE ASSIGNMENTS
000334:
000335: 24,3512           17775 01734  COSI               2DEC     .99964115  B-1                        #  COS(1 DEG 32.1 MIN) B-1
000336: 24,3514           00333 16153  SINI               2DEC     .02678760  B-1                        #  SIN(1 DEG 32.1 MIN) B-1
000337: 24,3516           77665 42175  NODDOT             2DEC     -.457335143 E-2                        #  REVS/CSEC B+28=-1.07047016 E-8  RAD/SEC
000338: 24,3520           22211 00265  FDOT               2DEC     .570862491                            #  REVS/CSEC B+27= 2.67240019 E-6  RAD/SEC
000339:
000340: 24,3522           77777 77767  BDOT               2DEC     -3.07500412 E-8                        #  REVS/CSEC B+28=-7.19756666 E-14 RAD/SEC
000341: 24,3524           41215 66331  NODIO              2DEC     -.960101269                            #  REVS B-O    = -6.03249419  RAD
000342: 24,3526           15237 26751  FSUBO              2DEC     .415998375                            #  REVS B-O    =  2.61379488  RAD
000343: 24,3530           02052 35713  BSUBO              2DEC     .0651205006                            #  REVS B-O    =  0.409164173 RAD
000344: 24,3532           37116 32630  WEARTH             2DEC     .973561855                            #  REVS/CSEC B+23=7.29211515 E-5 RAD/SEC
000345:
000346: 24,3534  11,2273               1B1                =        DP1/2                                 #  1  SCALED B-1
000347: 24,3534  0000050               RPREXIT            =        S1                                    #  R-TO-RP AND RP-TO-R SUBR EXIT
000348: 24,3534  0000051               EARTHMXX           =        S2                                    #  EARTHMX,MOONMX SUBR. EXITS
000349: 24,3534                        504RPR             =        0D                                    #  6 REGS        R OR RP VECTOR
000350: 24,3534                        SINNODI            =        8D                                    #  2             SIN(NODI)
000351: 24,3534                        DVECTR             =        8D                                    #  6             D VECTOR MOON
000352: 24,3534                        CVECTR             =        8D                                    #  6             C VECTR MOON
000353: 24,3534                        504AZ              =        18D                                   #  2            AZ
000354: 24,3534                        TIMSUBM            =        14D                                   #  3             TIME SUB M (MOON) T+T0 IN GETAZ
000355: 24,3534                        504LPL             =        14D                                   #  6             L OR LP VECTOR
000356: 24,3534                        AVECTR             =        20D                                   #  6             A VECTOR (MOON)
000357: 24,3534                        BVECTR             =        26D                                   #  6             B VECTOR (MOON)
000358: 24,3534                        MMATRIX            =        20D                                   #  18            M MATRIX
000359: 24,3534                        COB                =        32D                                   #  2             COS(B) B-1
000360: 24,3534                        SOB                =        34D                                   #  2             SIN(B) B-1
000361: 24,3534                        504F               =        6D                                    #  2             F(MOON)
000362:

End of include-file PLANETARY_INERTIAL_ORIENTATION.agc.  Parent file is MAIN.agc


