
Source Code


000002:                                                                                                  ## Copyright:   Public domain.
000003:                                                                                                  ## Filename:    POWERED_FLIGHT_SUBROUTINES.agc
000004:                                                                                                  ## Purpose:     A section of a reconstructed, mixed version of Sundance
000005:                                                                                                  ##              It is part of the reconstructed source code for the Lunar
000006:                                                                                                  ##              Module's (LM) Apollo Guidance Computer (AGC) for Apollo 9.
000007:                                                                                                  ##              No original listings of this program are available;
000008:                                                                                                  ##              instead, this file was created via disassembly of dumps
000009:                                                                                                  ##              of various revisions of Sundance core rope modules.
000010:                                                                                                  ## Assembler:   yaYUL
000011:                                                                                                  ## Contact:     Ron Burkey <info@sandroid.org>.
000012:                                                                                                  ## Website:     www.ibiblio.org/apollo/index.html
000013:                                                                                                  ## Mod history: 2020-06-17 MAS  Created from Luminary 69.
000014:
000015:                                                                                                  ## Sundance 302
000016:
000017: 14,3375                                           BANK     14                                    #  SAME FBANK AS THE FINDCDUD SUB-PROGRAM
000018: 23,2000                                           SETLOC   POWFLITE
000019: 23,2000                                           BANK
000020:
000021: 23,3251     0142                                  EBANK=   DEXDEX
000022: 23,3251                                           COUNT*   $$/POWFL
000023:
000024:                                                                                                  #      CDUTRIG, CDUTRIG1, CDUTRIG2, AND CD*TR*GS ALL COMPUTE THE SINES AND
000025:                                                                                                  #  COSINES OF THREE 2'S COMPLEMENT ANGLES AND PLACE THE RESULT, DOUBLE
000026:                                                                                                  #  PRECISION, IN THE SAME ORDER AS THE INPUTS, AT SINCDU AND COSCDU.   AN
000027:                                                                                                  #  ADDITIONAL OUTPUT IS THE 1'S COMPLEMENT ANGLES AT CDUSPOT.   THESE
000028:                                                                                                  #  ROUTINES GO OUT OF THEIR WAY TO LEAVE THE MPAC AREA AS THEY FIND IT,
000029:                                                                                                  #  EXCEPT FOR THE GENERALLY UNIMPORTANT MPAC +2.  THEY DIFFER ONLY IN
000030:                                                                                                  #  WHERE THEY GET THE ANGLES, AND IN METHOD OF CALLING.
000031:
000032:                                                                                                  #      CDUTRIG (AND CDUTRIG1, WHICH CAN BE CALLED IN BASIC) COMPUTE THE
000033:                                                                                                  #  SINES AND COSINES FROM THE CURRENT CONTENTS OF THE CDU REGISTERS.
000034:                                                                                                  #  THE CONTENTS OF CDUTEMP, ETC., ARE NOT TOUCHED SO THAT THEY MAY
000035:                                                                                                  #  CONTINUE TO FORM A CONSISTENT SET WITH THE LATEST PIPA READINGS.
000036:
000037:                                                                                                  #      CDUTRIG1 IS LIKE CDUTRIG EXCEPT THAT IT CAN BE CALLED IN BASIC.
000038:
000039:                                                                                                  #      CD*TR*GS FINDS CDU VALUES IN CDUSPOT RATHER THAN IN CDUTEMP.   THIS
000040:                                                                                                  #  ALLOWS USERS TO MAKE TRANSFORMATIONS USING ARBITRARY ANGLES, OR REAL
000041:                                                                                                  #  ANGLES IN AN ORDER OTHER THAN X Y Z.   A CALL TO THIS ROUTINE IS
000042:                                                                                                  #  NECESSARY IN PREPARATION FOR A CALL TO AX*SR*T IN EITHER OF ITS TWO
000043:                                                                                                  #  MODES (SMNB OR NBSM).   SINCE AX*SR*T EXPECTS TO FIND THE SINES AND
000044:                                                                                                  #  COSINES IN THE ORDER Y Z X THE ANGLES MUST HAVE BEEN PLACED IN CDUSPOT
000045:                                                                                                  #  IN THIS ORDER.   CD*TR*GS NEED NOT BE REPEATED WHEN AX*SR*T IS CALLED
000046:                                                                                                  #  MORE THAN ONCE, PROVIDED THE ANGLES HAVE NOT CHANGED.   NOTE THAT SINCE
000047:                                                                                                  #  IT CLOBBERS BUF2 (IN THE SINE AND COSINE ROUTINES) CD*TR*GS CANNOT BE
000048:                                                                                                  #  CALLED USING BANKCALL.   SORRY.
000049:
000050:                                                                                                  #      CD*TR*G IS LIKE CD*TR*GS EXCEPT THAT IT CAN BE CALLED IN
000051:                                                                                                  #  INTERPRETIVE.
000052:
000053: 23,3251           77776        CDUTRIG            EXIT
000054: 23,3252           03261                           TC       CDUTRIGS
000055: 23,3253           06014                           TC       INTPRET
000056: 23,3254           77616                           RVQ
000057:
000058: 23,3255           77776        CD*TR*G            EXIT
000059: 23,3256           03267                           TC       CD*TR*GS
000060: 23,3257           06014                           TC       INTPRET
000061: 23,3260           77616                           RVQ
000062:
000063: 23,3261           30032        CDUTRIGS           CA       CDUX
000064: 23,3262           54772                           TS       CDUSPOT    +4
000065: 23,3263           30033                           CA       CDUY
000066: 23,3264           54766                           TS       CDUSPOT
000067: 23,3265           30034                           CA       CDUZ
000068: 23,3266           54770                           TS       CDUSPOT    +2
000069:
000070: 23,3267           00006        CD*TR*GS           EXTEND
000071: 23,3270           22142                           QXCH     TEM2
000072: 23,3271           35024                           CAF      FOUR
000073: 23,3272           76216        TR*GL**P           MASK     SIX                                   #  MAKE IT EVEN AND SMALLER
000074: 23,3273           54143                           TS       TEM3
000075: 23,3274           50143                           INDEX    TEM3
000076: 23,3275           30766                           CA       CDUSPOT
000077: 23,3276           52155                           DXCH     MPAC                                  #  STORING 2'S COMP ANGLE, LOADING MPAC
000078: 23,3277           52127                           DXCH     VBUF       +4                         #  STORING MPAC FOR LATER RESTORATION
000079: 23,3300           04766                           TC       USPRCADR
000080: 23,3301           21457                           CADR     CDULOGIC
000081: 23,3302           00006                           EXTEND
000082: 23,3303           30155                           DCA      MPAC
000083: 23,3304           50143                           INDEX    TEM3
000084: 23,3305           52767                           DXCH     CDUSPOT                               #  STORING 1'S COMPLEMENT ANGLE
000085: 23,3306           04766                           TC       USPRCADR
000086: 23,3307           01516                           CADR     COSINE
000087: 23,3310           52155                           DXCH     MPAC
000088: 23,3311           50143                           INDEX    TEM3
000089: 23,3312           52745                           DXCH     COSCDU                                #  STORING COSINE
000090: 23,3313           00006                           EXTEND
000091: 23,3314           50143                           INDEX    TEM3
000092: 23,3315           30767                           DCA      CDUSPOT                               #  LOADING 1'S COMPLEMENT ANGLE
000093: 23,3316           04766                           TC       USPRCADR
000094: 23,3317           01530                           CADR     SINE       +1                         #  SINE +1 EXPECTS ARGUMENT IN A AND L
000095: 23,3320           52127                           DXCH     VBUF       +4                         #  BRINGING UP PRIOR MPAC TO BE RESTORED
000096: 23,3321           52155                           DXCH     MPAC
000097: 23,3322           50143                           INDEX    TEM3
000098: 23,3323           52737                           DXCH     SINCDU
000099: 23,3324           10143                           CCS      TEM3
000100: 23,3325           13272                           TCF      TR*GL**P
000101: 23,3326           00142                           TC       TEM2
000102:                                                                                                  #  ****************************************************************************************************************
000103:                                                                                                  #      QUICTRIG, INTENDED FOR GUIDANCE CYCLE USE WHERE TIME IS CRITICAL, IS A MUCH FASTER VERSION OF CD*TR*GS.
000104:                                                                                                  #  QUICTRIG COMPUTES AND STORES THE SINES AND COSINES OF THE 2'S COMPLEMENT ANGLES AT CDUSPOT, CDUSPOT +2,
000105:                                                                                                  #  AND CDUSPOT +4.   UNLIKE CD*TR*GS, QUICTRIG DOES NOT LEAVE THE 1'S COMPLEMENT VERSIONS OF THE ANGLES IN
000106:                                                                                                  #  CDUSPOT.   QUICTRIG'S EXECUTION TIME IS 4.1 MS;  THIS IS 10 TIMES AS FAST AS CD*TR*GS.    QUICTRIG MAY BE
000107:                                                                                                  #  CALLED FROM INTERPRETIVE AS AN RTB OP-CODE, OR FROM BASIC VIA BANKCALL OR IBNKCALL.
000108:
000109: 23,3327           00006        QUICTRIG           EXTEND
000110: 23,3330           22142                           QXCH     TEM2
000111: 23,3331           35024                           CAF      FOUR
000112: 23,3332           76216                 +4        MASK     SIX
000113: 23,3333           54143                           TS       TEM3
000114: 23,3334           50143                           INDEX    TEM3
000115: 23,3335           30766                           CA       CDUSPOT
000116: 23,3336           05103                           TC       SPSIN
000117: 23,3337           00006                           EXTEND
000118: 23,3340           75011                           MP       BIT14                                 #  SCALE DOWN TO MATCH INTERPRETER OUTPUTS
000119: 23,3341           50143                           INDEX    TEM3
000120: 23,3342           52737                           DXCH     SINCDU
000121: 23,3343           50143                           INDEX    TEM3
000122: 23,3344           30766                           CA       CDUSPOT
000123: 23,3345           05102                           TC       SPCOS
000124: 23,3346           00006                           EXTEND
000125: 23,3347           75011                           MP       BIT14
000126: 23,3350           50143                           INDEX    TEM3
000127: 23,3351           52745                           DXCH     COSCDU
000128: 23,3352           10143                           CCS      TEM3
000129: 23,3353           13332                           TCF      QUICTRIG   +3
000130: 23,3354           00142                           TC       TEM2
000131:
000132:                                                                                                  #  ****************************************************************************************************************
000133:                                                                                                  #      THESE INTERFACE ROUTINES MAKE IT POSSIBLE TO CALL AX*SR*T, ETC., IN
000134:                                                                                                  #  INTERPRETIVE.  LATER, WHERE POSSIBLE, THEY WILL BE ELIMINATED.
000135:
000136:                                                                                                  #      NBSM WILL BE THE FIRST TO GO.   IT SHOULD NOT BE USED.
000137:
000138: 23,3355           77620        NBSM               STQ
000139: 23,3356           00047                                    X2
000140: 23,3357           76740                           LXC,1    VLOAD*
000141: 23,3360           00050                                    S1                                    #  BASE ADDRESS OF THE CDU ANGLES IS IN S1
000142: 23,3361           00001                                    0,1
000143: 23,3362           24767                           STOVL    CDUSPOT
000144: 23,3363           00041                                    32D                                   #  VECTOR TO BE TRANSFORMED IS IN 32D
000145: 23,3364           77624                           CALL
000146: 23,3365           47406                                    TRG*NBSM
000147: 23,3366           34041                           STCALL   32D                                   #  SINCE THERE'S NO STGOTO
000148: 23,3367           00047                                    X2
000149:
000150:                                                                                                  #      THESE INTERFACE ROUTINES ARE PERMANENT.   ALL RESTORE USER'S EBANK
000151:                                                                                                  #  SETTING.   ALL ARE STRICT INTERPRETIVE SUBROUTINES, CALLED USING "CALL",
000152:                                                                                                  #  RETURNING VIA QPRET.   ALL EXPECT AND RETURN THE VECTOR TO BE TRANSFOR-
000153:                                                                                                  #  MED INTERPRETER-STYLE IN MPAC; COMPONENTS AT MPAC, MPAC +3, AND MPAC +5.
000154:
000155:                                                                                                  #       TRG*SMNB AND TRG*NBSM BOTH EXPECT TO SEE THE 2'S COMPLEMENT ANGLES
000156:                                                                                                  #  AT CDUSPOT (ORDER Y Z X, AT CDUSPOT, CDUSPOT +2, AND CDUSPOT +4; ODD
000157:                                                                                                  #  LOCATIONS NEED NOT BE ZEROED).   TRG*NBSM DOES THE NB TO SM TRANSFOR-
000158:                                                                                                  #  MATION;  TRG*SMNB, VICE VERSA.
000159:
000160:                                                                                                  #      CDU*NBSM DOES ITS TRANSFORMATION USING THE PRESENT CONTENTS OF
000161:                                                                                                  #  THE CDU COUNTERS.   OTHERWISE IT IS LIKE TRG*NBSM.
000162:
000163:                                                                                                  #      CDU*SMNB IS THE COMPLEMENT OF CDU*NBSM.
000164:
000165: 23,3370           77776        CDU*SMNB           EXIT
000166: 23,3371           03261                           TC       CDUTRIGS
000167: 23,3372           13375                           TCF      C*MM*N1
000168:
000169: 23,3373           77776        TRG*SMNB           EXIT
000170: 23,3374           03267                           TC       CD*TR*GS
000171: 23,3375           07504        C*MM*N1            TC       MPACVBUF                              #  AX*SR*T EXPECTS VECTOR IN VBUF
000172: 23,3376           46221                           CS       THREE                                 #  SIGNAL FOR SM TO NB TRANSFORMATION
000173: 23,3377           03417        C*MM*N2            TC       AX*SR*T
000174: 23,3400           06014                           TC       INTPRET
000175: 23,3401           43575                           VLOAD    RVQ
000176: 23,3402           00123                                    VBUF
000177:
000178: 23,3403           77776        CDU*NBSM           EXIT
000179: 23,3404           03261                           TC       CDUTRIGS
000180: 23,3405           13410                           TCF      C*MM*N3
000181:
000182: 23,3406           77776        TRG*NBSM           EXIT
000183: 23,3407           03267                           TC       CD*TR*GS
000184: 23,3410           07504        C*MM*N3            TC       MPACVBUF                              #  FOR AX*SR*T
000185: 23,3411           36221                           CA       THREE                                 #  SIGNAL FOR NB TO SM TRANSFORMATION
000186: 23,3412           13377                           TCF      C*MM*N2
000187:
000188:                                                                                                  #      *NBSM* AND *SMNB* EXPECT TO SEE THE SINES AND COSINES (AT SINCDU
000189:                                                                                                  #  AND COSCDU) RATHER THAN THE ANGLES THEMSELVES.   OTHERWISE THEY ARE
000190:                                                                                                  #  LIKE TRG*NBSM AND TRG*SMNB.
000191:
000192:                                                                                                  #       NOTE THAT JUST AS CD*TR*GS NEED BE CALLED ONLY ONCE FOR EACH SERIES
000193:                                                                                                  #  OF TRANSFORMATIONS USING THE SAME ANGLES, SO TOO ONLY ONE OF TRG*NBSM
000194:                                                                                                  #  AND TRG*SMNB NEED BE CALLED FOR EACH SERIES.   FOR SUBSEQUENT TRANSFOR-
000195:                                                                                                  #  MATIONS USE *NBSM* AND *SMNB*.
000196:
000197: 23,3413           77776        *SMNB*             EXIT
000198: 23,3414           13375                           TCF      C*MM*N1
000199:
000200: 23,3415           77776        *NBSM*             EXIT
000201: 23,3416           13410                           TCF      C*MM*N3
000202:
000203:                                                                                                  #        AX*SR*T COMBINES THE OLD SMNB AND NBSM.   FOR THE NB TO SM
000204:                                                                                                  #  TRANSFORMATION, ENTER WITH +3 IN A.   FOR SM TO NB, ENTER WITH -3.
000205:                                                                                                  #  THE VECTOR TO BE TRANSFORMED ARRIVES, AND IS RETURNED, IN VBUF.
000206:                                                                                                  #  AX*SR*T EXPECTS TO FIND THE SINES AND COSINES OF THE ANGLES OF ROTATION
000207:                                                                                                  #  AT SINCDU AND COSCDU, IN THE ORDER Y Z X.  A CALL TO CD*TR*GS, WITH
000208:                                                                                                  #  THE 2'S COMPLEMENT ANGLES (ORDER Y Z X) AT CDUSPOT, WILL TAKE CARE OF
000209:                                                                                                  #  THIS.  HERE IS A SAMPLE CALLING SEQUENCE:-
000210:                                                                                                  #                TC      CDUTRIGS
000211:                                                                                                  #                CS      THREE           ("CA THREE" FOR NBSM)
000212:                                                                                                  #                TC      AX*SR*T
000213:                                                                                                  #  THE CALL TO CD*TR*GS NEED NOT BE REPEATED, WHEN AX*SR*T IS CALLED MORE
000214:                                                                                                  #  THAN ONCE, UNLESS THE ANGLES HAVE CHANGED.
000215:
000216:                                                                                                  #      AX*SR*T IS GUARANTEED SAFE ONLY FOR VECTORS OF MAGNITUDE LESS THAN
000217:                                                                                                  #  UNITY.   A LOOK AT THE CASE IN WHICH A VECTOR OF GREATER MAGNITUDE
000218:                                                                                                  #  HAPPENS TO LIE ALONG AN AXIS OF THE SYSTEM TO WHICH IT IS TO BE TRANS-
000219:                                                                                                  #  FORMED CONVINCES ONE THAT THIS IS A RESTRICTION WHICH MUST BE ACCEPTED.
000220:
000221: 23,3417           54142        AX*SR*T            TS       DEXDEX                                #  WHERE IT BECOMES THE INDEX OF INDEXES
000222: 23,3420           00006                           EXTEND
000223: 23,3421           22145                           QXCH     RTNSAVER
000224:
000225: 23,3422           10142        R*TL**P            CCS      DEXDEX                                #                +3 --> 0        -3 --> 2
000226: 23,3423           40142                           CS       DEXDEX                                #  THUS:         +2 --> 1        -2 --> 1
000227: 23,3424           66221                           AD       THREE                                 #                +1 --> 2        -1 --> 0
000228: 23,3425           00006                           EXTEND
000229: 23,3426           50000                           INDEX    A
000230: 23,3427           33506                           DCA      INDEXI
000231: 23,3430           52144                           DXCH     DEXI
000232:
000233: 23,3431           35026                           CA       ONE
000234: 23,3432           54130                           TS       BUF
000235: 23,3433           00006                           EXTEND
000236: 23,3434           50143                           INDEX    DEX1
000237: 23,3435           40123                           DCS      VBUF
000238: 23,3436           13440                           TCF      LOOP1                                 #  REALLY BE A SUBTRACT, AND VICE VERSA
000239:
000240: 23,3437           52131        LOOP2              DXCH     BUF                                   #  LOADING VECTOR COMPONENT, STORING INDEX
000241: 23,3440           52155        LOOP1              DXCH     MPAC
000242: 23,3441           33504                           CA       SINSLOC
000243: 23,3442           60143                           AD       DEX1
000244: 23,3443           54116                           TS       ADDRWD
000245:
000246: 23,3444           07063                           TC       DMPSUB                                #  MULTIPLY BY SIN(CDUANGLE)
000247: 23,3445           10142                           CCS      DEXDEX
000248: 23,3446           52155                           DXCH     MPAC                                  #  NBSM CASE
000249: 23,3447           13452                           TCF      +3
000250: 23,3450           00006                           EXTEND                                         #  SMNB CASE
000251: 23,3451           40155                           DCS      MPAC
000252: 23,3452           52134                           DXCH     TERM1TMP
000253:
000254: 23,3453           36216                           CA       SIX                                   #  SINCDU AND COSCDU (EACH 6 WORDS) MUST
000255: 23,3454           26116                           ADS      ADDRWD                                #    BE CONSECUTIVE AND IN THAT ORDER
000256:
000257: 23,3455           00006                           EXTEND
000258: 23,3456           50130                           INDEX    BUF
000259: 23,3457           50143                           INDEX    DEX1
000260: 23,3460           30123                           DCA      VBUF
000261: 23,3461           52155                           DXCH     MPAC
000262: 23,3462           07063                           TC       DMPSUB                                #  MULTIPLY BY COS(CDUANGLE)
000263: 23,3463           52155                           DXCH     MPAC
000264: 23,3464           20134                           DAS      TERM1TMP
000265: 23,3465           52134                           DXCH     TERM1TMP
000266: 23,3466           20001                           DDOUBL
000267: 23,3467           50130                           INDEX    BUF
000268: 23,3470           50143                           INDEX    DEX1
000269: 23,3471           52123                           DXCH     VBUF
000270: 23,3472           52131                           DXCH     BUF                                   #  LOADING INDEX, STORING VECTOR COMPONENT
000271:
000272: 23,3473           10000                           CCS      A                                     #  'CAUSE THAT'S WHERE THE INDEX NOW IS
000273: 23,3474           13437                           TCF      LOOP2
000274:
000275: 23,3475           00006                           EXTEND
000276: 23,3476           26142                           DIM      DEXDEX                                #  DECREMENT MAGNITUDE PRESERVING SIGN
000277:
000278: 23,3477           10142        TSTPOINT           CCS      DEXDEX                                #  ONLY THE BRANCHING FUNCTION IS USED
000279: 23,3500           13422                           TCF      R*TL**P
000280: 23,3501           00145                           TC       RTNSAVER
000281: 23,3502           13422                           TCF      R*TL**P
000282: 23,3503           00145                           TC       RTNSAVER
000283:
000284: 23,3504           00736        SINSLOC            ADRES    SINCDU                                #  FOR USE IN SETTING ADDRWD
000285:
000286: 23,3505           00004        INDEXI             DEC      4          B-14                       #  **********   DON'T   **********
000287: 23,3506           00002                           DEC      2          B-14                       #  **********   TOUCH   **********
000288: 23,3507           00000                           DEC      0          B-14                       #  **********   THESE   **********
000289: 23,3510           00004                           DEC      4          B-14                       #  ********** CONSTANTS **********
000290:
000291:                                                                                                  #  ****************************************************************************************************************
000292:                                                                                                  #  THIS SUBROUTINE COMPUTES INCREMENTAL CHANGES IN CDU(GIMBAL) ANGLES FROM INCREMENTAL CHANGES ABOUT SM AXES. IT
000293:                                                                                                  #  REQUIRES SM INCREMENTS AS A DP VECTOR SCALED AT ONE REVOLUTION(DTHETASM,+2,+4).  SIN,COS(CDUY,Z,X) ARE IN
000294:                                                                                                  #  SINCDU,+2,+4 AND COSCDU,+2,+4 RESPECTIVELY,SCALED TO ONE HALF. CDU INCREENTS ARE PLACED IN DCDU,+2,+4 SCALED TO
000295:                                                                                                  #  ONE REVOLUTION.
000296:
000297:                                                                                                  #         *  COS(IGA)SEC(MGA)          0           -SIN(IGA)SEC(MGA) *
000298:                                                                                                  #         *                                                          *
000299:                                                                                                  #         * -COS(IGA)TAN(MGA)          1            SIN(IGA)TAN(MGA) *
000300:                                                                                                  #         *                                                          *
000301:                                                                                                  #         *      SIN(IGA)              0                COS(IGA)     *
000302:
000303: 14,3375                                           BANK     14
000304: 23,2000                                           SETLOC   POWFLIT1
000305: 23,2000                                           BANK
000306: 23,3511           41345        SMCDURES           DLOAD    DMP
000307: 23,3512           01267                                    DTHETASM
000308: 23,3513           00745                                    COSCDUY
000309:
000310: 23,3514           41325                           PDDL     DMP
000311: 23,3515           01273                                    DTHETASM   +4
000312: 23,3516           00737                                    SINCDUY
000313:
000314: 23,3517           77621                           BDSU
000315: 23,3520           77671                           DDV
000316: 23,3521           00747                                    COSCDUZ
000317: 23,3522           03233                           STORE    DCDU
000318:
000319: 23,3523           72405                           DMP      SL1                                   #  SCALE
000320: 23,3524           00741                                    SINCDUZ
000321: 23,3525           77621                           BDSU
000322:
000323: 23,3526           01271                                    DTHETASM   +2
000324: 23,3527           17235                           STODL    DCDU       +2
000325: 23,3530           01267                                    DTHETASM
000326:
000327: 23,3531           65205                           DMP      PDDL
000328: 23,3532           00737                                    SINCDUY
000329: 23,3533           01273                                    DTHETASM   +4
000330:
000331: 23,3534           43205                           DMP      DAD
000332: 23,3535           00745                                    COSCDUY
000333: 23,3536           77752                           SL1
000334: 23,3537           03237                           STORE    DCDU       +4
000335: 23,3540           77616                           RVQ
000336:

End of include-file POWERED_FLIGHT_SUBROUTINES.agc.  Parent file is MAIN.agc


