
Source Code


000002:                                                                                                  ## Copyright:   Public domain.
000003:                                                                                                  ## Filename:    R30.agc
000004:                                                                                                  ## Purpose:     A section of a reconstructed, mixed version of Sundance
000005:                                                                                                  ##              It is part of the reconstructed source code for the Lunar
000006:                                                                                                  ##              Module's (LM) Apollo Guidance Computer (AGC) for Apollo 9.
000007:                                                                                                  ##              No original listings of this program are available;
000008:                                                                                                  ##              instead, this file was created via disassembly of dumps
000009:                                                                                                  ##              of various revisions of Sundance core rope modules.
000010:                                                                                                  ## Assembler:   yaYUL
000011:                                                                                                  ## Contact:     Ron Burkey <info@sandroid.org>.
000012:                                                                                                  ## Website:     www.ibiblio.org/apollo/index.html
000013:                                                                                                  ## Mod history: 2020-06-17 MAS  Created from Luminary 69.
000014:
000015:                                                                                                  ## Sundance 302
000016:
000017:                                                                                                  #  SUBROUTINE NAME:  V82CALL
000018:                                                                                                  #  MOD NO: 0                                                             DATE: 16 FEB 67
000019:                                                                                                  #  MOD BY: RR BAIRNSFATHER                                               LOG SECTION:  R30
000020:                                                                                                  #  MOD NO: 1     MOD BY:  RR BAIRNSFATHER        DATE: 11 APR 67         SR30.1 CHANGED TO ALLOW MONITOR OPERN
000021:                                                                                                  #  MOD NO: 2     MOD BY  ALONSO                  DATE: 11 DEC 67         VB82 PROGRAM REWRITTEN
000022:                                                                                                  #  MOD NO: 3     MOD BY  ALONSO                  DATE: 26 MAR 68         PROG MOD TO HANDLE DIF EARTH/MOON SCALE
000023:
000024:                                                                                                  #  NEW FUNCTIONAL DESCRIPTION:   CALLED BY VERB 82 ENTER.  PRIORITY 10
000025:                                                                                                  #  USED THROUGHOUT.              CALCULATE AND DISPLAY ORBITAL PARAMETERS
000026:
000027:                                                                                                  #  1.    IF AVERAGE G IS OFF:
000028:                                                                                                  #                FLASH DISPLAY V04N06.  R2 INDICATES WHICH SHIP'S STATE VECTOR IS
000029:                                                                                                  #                        TO BE UPDATED.  INITIAL CHOICE IS THIS SHIP (R2=1).  ASTRONAUT
000030:                                                                                                  #                        CAN CHANGE TO OTHER SHIP BY V22EXE, WHERE X NOT EQ 1.
000031:                                                                                                  #                SELECTED STATE VECTOR UPDATED BY THISPREC (OTHPREC).
000032:                                                                                                  #                CALLS SR30.1 (WHICH CALLS TFFCONMU + TFFRP/RA) TO CALCULATE
000033:                                                                                                  #                        RPER (PERIGEE RADIUS), RAPO (APOGEE RADIUS), HPER (PERIGEE
000034:                                                                                                  #                        HEIGHT ABOVE LAUNCH PAD OR LUNAR LANDING SITE), HAPO (APOGEE
000035:                                                                                                  #                        HEIGHT AS ABOVE), TPER (TIME TO PERIGEE), TFF (TIME TO
000036:                                                                                                  #                        INTERSECT 300 KFT ABOVE PAD OR 35KFT ABOVE LANDING SITE).
000037:                                                                                                  #                FLASH MONITOR V16N44 (HAPO, HPER, TFF).  TFF IS -59M59S IF IT WAS
000038:                                                                                                  #                        NOT COMPUTABLE, OTHERWISE IT INCREMENTS ONCE PER SECOND.
000039:                                                                                                  #                        ASTRONAUT HAS OPTION TO MONITOR TPER BY KEYING IN N 32 E.
000040:                                                                                                  #                        DISPLAY IS IN HMS, IS NEGATIVE (AS WAS TFF), AND INCREMENTS
000041:                                                                                                  #                        ONCE PER SECOND ONLY IF TFF DISPLAY WAS -59M59S.
000042:                                                                                                  #        2.      IF AVERAGE G IS ON:
000043:                                                                                                  #                        CALLS SR30.1 APPROX EVERY TWO SECS.  STATE VECTOR IS ALWAYS
000044:                                                                                                  #                                FOR THIS VEHICLE.  V82 DOES NOT DISTURB STATE VECTOR.  RESULTS
000045:                                                                                                  #                                OF SR30.1 ARE RAPO, RPER, HAPO, HPER, TPER, TFF.
000046:                                                                                                  #                        FLASH MONITOR V16N44 (HAPO, HPER, TFF).
000047:                                                                                                  #        ADDENDUM:  HAPO AND HPER SHOULD BE CHANGED TO READ HAPOX AND HPERX IN THE
000048:                                                                                                  #                ABOVE REMARKS.
000049:
000050:                                                                                                  #  CALLING SEQUENCE: VERB 82 ENTER.
000051:
000052:                                                                                                  #  SUBROUTINES CALLED:   SR30.1, GOXDSPF
000053:                                                                                                  #                        MAYBE - THISPREC, OTHPREC, LOADTIME, DELRSPL
000054:
000055:                                                                                                  #  NORMAL EXIT MODES:  TC ENDEXT
000056:
000057:                                                                                                  #  ALARMS:  NONE
000058:
000059:                                                                                                  #  OUTPUT:       HAPOX   (-29) M
000060:                                                                                                  #                HPERX   (-29) M
000061:                                                                                                  #                RAPO    (-29) M EARTH
000062:                                                                                                  #                        (-27) M MOON
000063:                                                                                                  #                RPER    (-29) M EARTH
000064:                                                                                                  #                        (-27) M MOON
000065:                                                                                                  #                TFF     (-28) CS        CONTAINS NEGATIVE QUANTITY
000066:                                                                                                  #                -TPER   (-28) CS        CONTAINS NEGATIVE QUANTITY
000067:
000068:                                                                                                  #  ERASABLE INITIALIZATION REQUIRED:  STATE VECTOR.
000069:
000070:                                                                                                  #  DEBRIS:       QPRET, RONE, VONE, TFF/RTMU, HPERMIN, RPADTEM, V82EMFLG.
000071:                                                                                                  #                MAYBE:  TSTART82, V82FLAGS, TDEC1.
000072:
000073: 13,2323  E4,1521                                  EBANK=   HAPOX
000074: 31,2000                                           BANK     31
000075: 22,2000                                           SETLOC   R30LOC
000076: 22,2000                                           BANK
000077: 22,3236                                           COUNT*   $$/R30
000078:
000079: 22,3236           06014        V82CALL            TC       INTPRET
000080: 22,3237           52014                           BON      GOTO
000081: 22,3240           03712                                    AVEGFLAG
000082: 22,3241           45472                                    V82GON                                #  IF AVERAGE G ON
000083: 22,3242           45243                                    V82GOFF                               #  IF AVERAGE G OFF
000084:
000085: 22,3243           77776        V82GOFF            EXIT                                           #  ALLOW ASTRONAUT TO SELECT VEHICLE
000086: 22,3244           35025                           CAF      TWO                                   #  DESIRED FOR ORBITAL PARAMETERS
000087: 22,3245           55155                           TS       OPTION1                               #  CALCULATION AND DISPLAY.
000088: 22,3246           35026                           CAF      ONE
000089: 22,3247           55156                           TS       OPTION1    +1
000090: 22,3250           33315                           CAF      OPTIONVN                              #  V 04 N 06
000091: 22,3251           04655                           TC       BANKCALL
000092: 22,3252           20226                           CADR     GOXDSPF
000093: 22,3253           05561                           TC       ENDEXT                                #  TERMINATE
000094: 22,3254           03256                           TC       +2                                    #  PROCEED
000095: 22,3255           03250                           TC       -5                                    #  DATA IN.  OPTION1+1 = 1 FOR THIS VEHICLE.
000096:                                                                                                  #                UNEQ 1 FOR OTHER VEHICLE.
000097: 22,3256           00004                           INHINT
000098: 22,3257           35023                           CAF      BIT4                                  #  80 MS
000099: 22,3260           05252                           TC       WAITLIST
000100: 22,3261  E4,1542                                  EBANK=   TFF
000101: 22,3261           03435 44064                     2CADR    TICKTEST
000102:
000103: 22,3263           00003                           RELINT
000104: 22,3264           33317        V82GOFLP           CAF      TFFBANK                               #  MAJOR RECYCLE LOOP ENTRY
000105: 22,3265           54003                           TS       EBANK
000106: 22,3266           35030                           CAF      ZERO
000107: 22,3267           55541                           TS       V82FLAGS                              #  ZERO FLAGS FOR TICKTEST. INHIBITS
000108:                                                                                                  #  DECREMENTING OF TFF AND -TPER.
000109: 22,3270           00004                           INHINT
000110: 22,3271           35012                           CAF      PRIO10
000111: 22,3272           05155                           TC       FINDVAC                               #  V82GOFF1 WILL EXECUTE STATE VECTOR
000112: 22,3273  E4,1542                                  EBANK=   TFF                                   #  UPDATE AND ORBIT CALCULATIONS FOR
000113: 22,3273           03320 44064                     2CADR    V82GOFF1                              #  SELECTED VEHICLE ABOUT PROPER BODY.
000114:
000115: 22,3275           00003                           RELINT
000116: 22,3276           36221        V82STALL           CAF      THREE                                 #  STALL IN THIS LOOP AND WITHOLD V 16 N 44
000117: 22,3277           71541                           MASK     V82FLAGS                              #  UNTIL STATE VECTOR UPDATE SETS ONE OF
000118: 22,3300           10000                           CCS      A                                     #  OUR FLAG BITS.
000119: 22,3301           03306                           TC       FLAGGON                               #  EXIT FROM STALL LOOP.
000120: 22,3302           35047                           CAF      1SEC
000121: 22,3303           04655                           TC       BANKCALL
000122: 22,3304           01730                           CADR     DELAYJOB
000123: 22,3305           03276                           TC       V82STALL
000124:
000125: 22,3306           06716        FLAGGON            TC       UNK7766
000126: 22,3307           33316                           CAF      V16N44                                #  MONITOR HAPO,HPER,TFF.
000127: 22,3310           04655                           TC       BANKCALL
000128: 22,3311           20226                           CADR     GOXDSPF
000129: 22,3312           05642                           TC       B5OFF                                 #  TERM  THIS TELLS TICKTEST TO KILL ITSELF
000130: 22,3313           05642                           TC       B5OFF                                 #  PROCEED   DITTO
000131: 22,3314           03264                           TC       V82GOFLP                              #  RECYCLE   RECOMPUTE STATE VECT + DISPLAY
000132:
000133: 22,3315           01006        OPTIONVN           VN       406
000134: 22,3316           04054        V16N44             VN       1644
000135: 22,3317           02142        TFFBANK            ECADR    TFF
000136:
000137: 22,3320           06014        V82GOFF1           TC       INTPRET
000138: 22,3321           77634                           RTB
000139: 22,3322           21454                                    LOADTIME
000140: 22,3323           00041                           STORE    TDEC1                                 #  TIME FOR STATE VECTOR UPDATE.
000141: 22,3324           02213                           STORE    TSTART82                              #  TIME FOR INTERNAL USE.
000142: 22,3325           77776                           EXIT
000143: 22,3326           41156                           CS       OPTION1    +1                         #  1 FOR THIS VEHICLE, NOT 1 FOR OTHER.
000144: 22,3327           65026                           AD       ONE
000145: 22,3330           00006                           EXTEND
000146: 22,3331           13357                           BZF      THISSHIP
000147: 22,3332           06014        OTHSHIP            TC       INTPRET
000148: 22,3333           77624                           CALL                                           #  CALL STATE VECTOR UPDATE FOR OTHER SHIP.
000149: 22,3334           27014                                    OTHPREC
000150: 22,3335           77775        BOTHSHIP           VLOAD                                          #  MOVE RESULTS INTO TFFCONIC STORAGE AREAS
000151: 22,3336           00001                                    RATT                                  #  TO BE CALLED BY SR30.1.
000152: 22,3337           02215                           STORE    RONE                                  #  RATT AT (-29)M FOR EARTH OR MOON
000153: 22,3340           77656                           UNIT
000154: 22,3341           25760                           STOVL    UNITR
000155: 22,3342           00007                                    VATT
000156: 22,3343           02223                           STORE    VONE                                  #  VATT AT (-7)M/CS FOR EARTH OR MOON
000157: 22,3344           77743                           DLOAD*
000158: 22,3345           72410                                    RTMUE,2                               #  X2 IS 0 FOR EARTH CENTERED STATE VEC
000159: 22,3346           00037                           STORE    TFF/RTMU                              #  X2 IS 2 FOR MOON
000160: 22,3347           77743                           DLOAD*                                         #  AS LEFT BY THISPREC OR OTHPREC.
000161: 22,3350           72404                                    MINPERE,2
000162: 22,3351           02207                           STORE    HPERMIN                               #  TFFRTMU, HPERMIN AND RPADTEM ARE ALL
000163: 22,3352           46135                           SLOAD    BHIZ                                  #  EARTH/MOON PARAMETERS AS SET HERE.
000164: 22,3353           00050                                    X2
000165: 22,3354           45374                                    EARTHPAD
000166: 22,3355           77650                           GOTO
000167: 22,3356           45377                                    MOONPAD
000168: 22,3357           06014        THISSHIP           TC       INTPRET
000169: 22,3360           77624                           CALL                                           #  CALL STATE VECTOR UPDATE FOR THIS SHIP.
000170: 22,3361           27030                                    THISPREC
000171: 22,3362           77650                           GOTO
000172: 22,3363           45335                                    BOTHSHIP
000173:
000174:                                                                                                  #  THE FOLLOWING CONSTANTS ARE PAIRWISE INDEXED.  DO NOT SEPARATE PAIRS.
000175: 22,3364           02547 34337  RTMUM              2DEC*    2.21422176 E4         B-18*
000176: 22,3366           30276 04773  RTMUE              2DEC*    1.996504951 E5         B-18*
000177:
000178: 22,3370           00000 12326  MINPERM            2DEC     10668      B-29                       #  35 KFT MIN PERIGEE HEIGHT FOR MOON(-29)M
000179:
000180: 22,3372           00002 31230  MINPERE            2DEC     91440      B-29                       #  300 KFT (-29)M FOR EARTH
000181:
000182: 22,3374           52145        EARTHPAD           DLOAD    GOTO                                  #  PAD 37-B RADIUS.  SCALED AT (-29)M.
000183: 22,3375           06105                                    RPAD
000184: 22,3376           45402                                    BOTHPAD
000185:
000186: 22,3377           51575        MOONPAD            VLOAD    ABVAL                                 #  COMPUTE MOON PAD RADIUS FROM RLS VECTOR.
000187: 22,3400           02025                                    RLS                                   #  SCALED AT (-27)M.
000188: 22,3401           77722                           SR2R
000189: 22,3402           02211        BOTHPAD            STORE    RPADTEM
000190: 22,3403           77624                           CALL
000191: 22,3404           45572                                    SR30.1                                #  CALCULATE ORBITAL PARAMETERS
000192: 22,3405           77634                           RTB
000193: 22,3406           21454                                    LOADTIME
000194: 22,3407           77625                           DSU
000195: 22,3410           02213                                    TSTART82                              #  PRESENT TIME - TIME V82GOFF1 BEGAN
000196: 22,3411           02213                           STORE    TSTART82                              #                  SAVE IT
000197: 22,3412           53145                           DLOAD    BZE                                   #  SR30.1 SETS -TPER=0 IF HPER L/
000198: 22,3413           02145                                    -TPER                                 #  HPERMIN (300 OR 35) KFT.
000199: 22,3414           45425                                    TICKTIFF                              #  (-TPER = 0)
000200: 22,3415           43345        TICKTPER           DLOAD    DAD                                   #  (-TPER NON ZERO) TFF WAS NOT COMPUTED,
000201: 22,3416           02145                                    -TPER                                 #  BUT WAS SET TO 59M59S.  DONT TICK TFF, DO
000202: 22,3417           02213                                    TSTART82                              #  TICK -TPER.  DISPLAY BOTH.
000203: 22,3420           02145                           STORE    -TPER                                 #  -TPER CORRECTED FOR TIME SINCE V82GOFF1
000204: 22,3421           77776                           EXIT                                           #  BEGAN.
000205: 22,3422           35026                           CAF      BIT1
000206: 22,3423           55541                           TS       V82FLAGS                              #  INFORMS TICKTEST TO INCREMENT ONLY -TPER
000207: 22,3424           05225                           TC       ENDOFJOB
000208:
000209: 22,3425           43345        TICKTIFF           DLOAD    DAD                                   #  (-TPER=0) TFF WAS COMPUTED.  TICK TFF.
000210: 22,3426           02143                                    TFF                                   #  DO NOT TICK -TPER.  DISPLAY TFF, BUT NOT
000211: 22,3427           02213                                    TSTART82                              #  -TPER.
000212: 22,3430           02143                           STORE    TFF                                   #  TFF CORRECTED FOR TIME SINCE V82GOFF1
000213: 22,3431           77776                           EXIT                                           #  BEGAN.
000214: 22,3432           35025                           CAF      BIT2
000215: 22,3433           55541                           TS       V82FLAGS                              #  INFORMS TICKTEST TO INCREMENT ONLY TFF.
000216: 22,3434           05225                           TC       ENDOFJOB
000217:
000218: 22,3435           35022        TICKTEST           CAF      BIT5                                  #  THIS WAITLIST PROGRAM PERPETUATES ITSELF
000219: 22,3436           71045                           MASK     EXTVBACT                              #  ONCE A SEC UNTIL BIT 5 OF EXTVBACT =0.
000220: 22,3437           10000                           CCS      A
000221: 22,3440           03446                           TC       DOTICK
000222: 22,3441           37665                           CAF      PRIO25
000223: 22,3442           05142                           TC       NOVAC                                 #  TERMINATE V 82.  CANT CALL ENDEXT IN RUPT.
000224: 22,3443     1045                                  EBANK=   EXTVBACT
000225: 22,3443           05561 04062                     2CADR    ENDEXT
000226:
000227: 22,3445           05321                           TC       TASKOVER
000228: 22,3446           35047        DOTICK             CAF      1SEC                                  #  RE-REQUEST TICKTEST.
000229: 22,3447           05252                           TC       WAITLIST
000230: 22,3450  E4,1542                                  EBANK=   TFF
000231: 22,3450           03435 44064                     2CADR    TICKTEST
000232:
000233: 22,3452           36221                           CAF      THREE
000234: 22,3453           71541                           MASK     V82FLAGS
000235: 22,3454           50000                           INDEX    A
000236: 22,3455           03456                           TC       +1
000237: 22,3456           05321                           TC       TASKOVER                              #  IF NO FLAGBITS SET DONT CHANGE TFF OR
000238:                                                                                                  #  -TPER, BUT CONTINUE LOOP.
000239: 22,3457           03465                           TC       TPERTICK                              #  ONLY BIT 1 SET.  INCR -TPER BY 1 SEC.
000240: 22,3460           35047        TFFTICK            CAF      1SEC                                  #  ONLY BIT 2 SET.  INCR TFF BY 1 SEC.
000241: 22,3461           54001                           TS       L
000242: 22,3462           35030                           CAF      ZERO
000243: 22,3463           21543                           DAS      TFF
000244: 22,3464           05321                           TC       TASKOVER
000245: 22,3465           35047        TPERTICK           CAF      1SEC
000246: 22,3466           54001                           TS       L
000247: 22,3467           35030                           CAF      ZERO
000248: 22,3470           21545                           DAS      -TPER
000249: 22,3471           05321                           TC       TASKOVER
000250:
000251: 22,3472           77776        V82GON             EXIT                                           #  AVERAGE G ON.  USE CURRENT STATE VECTOR
000252: 22,3473           00004                           INHINT                                         #  FOR ORBITAL PARAMETER CALCULATIONS.
000253: 22,3474           35071                           CAF      PRIO7                                 #  LESS THAN LAMBERT
000254: 22,3475           05155                           TC       FINDVAC                               #  V82GON1 WILL PERFORM ORBIT CALCULATIONS
000255: 22,3476  E4,1542                                  EBANK=   TFF                                   #  ABOUT PROPER BODY APPROX ONCE PER SEC.
000256: 22,3476           03513 44064                     2CADR    V82GON1
000257:
000258: 22,3500           00003                           RELINT
000259: 22,3501           35047                           CAF      1SEC                                  #  WITHOLD V16 N44 UNTIL FIRST ORBIT CALC
000260: 22,3502           04655                           TC       BANKCALL                              #  IS DONE.  NOTE:  V82GON1 (PRIO7, FINDVAC
000261: 22,3503           01730                           CADR     DELAYJOB                              #  JOB) IS COMPLETED BEFORE V82GON (PRIO7,
000262: 22,3504           06716                           TC       UNK7766                               #  NOVAC JOB).
000263: 22,3505           33316        V82REDSP           CAF      V16N44                                #  MONITOR HAPO, HPER, TFF
000264: 22,3506           04655                           TC       BANKCALL
000265: 22,3507           20226                           CADR     GOXDSPF
000266: 22,3510           05642                           TC       B5OFF                                 #  TERM THIS TELLS V82GON1 TO KILL ITSELF.
000267: 22,3511           05642                           TC       B5OFF                                 #  PROC DITTO.
000268: 22,3512           03505                           TC       V82REDSP                              #  RECYCLE
000269:
000270: 22,3513           06014        V82GON1            TC       INTPRET                               #  THIS EXEC PROGRAM PERPETUATES ITSELF
000271:                                                                                                  #  ONCE A SEC UNTIL BIT 5 OF EXTVBACT =0.
000272: 22,3514           52175                           VLOAD    GOTO                                  #  HOLDS OFF CCS NEWJOB BETWEEN RN AND
000273: 22,3515           01220                                    RN                                    #  VN FETCH SO RN, VN ARE FROM SAME
000274: 22,3516           45517                                    NEXTLINE                              #  STATE VECTOR UPDATE.
000275: 22,3517           26215        NEXTLINE           STOVL    RONE                                  #  RN AT (-29)M FOR EARTH OR MOON
000276: 22,3520           01226                                    VN
000277: 22,3521           02223                           STORE    VONE                                  #  VN AT (-7)M/CS FOR EARTH OR MOON
000278: 22,3522           52014                           BON      GOTO
000279: 22,3523           04304                                    MOONTHIS                              #  FLAG INDICATES BODY ABOUT WHICH ORBITAL
000280: 22,3524           45526                                    MOONGON                               #  CALCULATIONS ARE TO BE PERFORMED.
000281: 22,3525           45540                                    EARTHGON                              #  IF SET - MOON, IF RESET - EARTH.
000282:
000283: 22,3526           77745        MOONGON            DLOAD
000284: 22,3527           05365                                    RTMUM                                 #  LUNAR PARAMETERS LOADED HERE FOR SR30.1
000285: 22,3530           14037                           STODL    TFF/RTMU
000286: 22,3531           05371                                    MINPERM
000287: 22,3532           02207                           STORE    HPERMIN
000288: 22,3533           51575                           VLOAD    ABVAL
000289: 22,3534           02025                                    RLS                                   #  SCALED AT (-27)M.
000290: 22,3535           77722                           SR2R
000291: 22,3536           77650                           GOTO
000292: 22,3537           45546                                    V82GON2
000293: 22,3540           77745        EARTHGON           DLOAD
000294: 22,3541           05367                                    RTMUE                                 #  EARTH PARAMETERS LOADED HERE FOR SR30.1
000295: 22,3542           14037                           STODL    TFF/RTMU
000296: 22,3543           05373                                    MINPERE
000297: 22,3544           16207                           STODL    HPERMIN
000298: 22,3545           06105                                    RPAD
000299: 22,3546           02211        V82GON2            STORE    RPADTEM                               #  COMMON CODE FOR EARTH & MOON.
000300: 22,3547           77624                           CALL
000301: 22,3550           45572                                    SR30.1
000302: 22,3551           77776                           EXIT
000303: 22,3552           05365                           TC       CHECKMM
000304: 22,3553           00013                           DEC      11         B-14
000305: 22,3554           03562                           TC       V82GON3
000306: 22,3555           06014                           TC       INTPRET
000307: 22,3556           45145                           DLOAD    CALL
000308: 22,3557           02143                                    TFF
000309: 22,3560           45561                                    V82GON3    -1
000310: 22,3561           77776                           EXIT
000311: 22,3562           35022        V82GON3            CAF      BIT5
000312: 22,3563           71045                           MASK     EXTVBACT                              #  SEE IF ASTRONAUT HAS SIGNALLED TERMINATE
000313: 22,3564           00006                           EXTEND
000314: 22,3565           15561                           BZF      ENDEXT                                #  YES, TERMINATE VB 82 LOOP
000315: 22,3566           35047                           CAF      1SEC
000316: 22,3567           04655                           TC       BANKCALL                              #  WAIT ONE SECOND BEFORE REPEATING
000317: 22,3570           01730                           CADR     DELAYJOB                              #  ORBITAL PARAMETER COMPUTATION.
000318: 22,3571           03513                           TC       V82GON1
000319:
000320: 22,3572  22,3562               SPLRET             =        V82GON3
000321:
000322:                                                                                                  #  SUBROUTINE NAME: SR30.1
000323:                                                                                                  #  MOD NO: 0                                                             DATE: 16 FEB 67
000324:                                                                                                  #  MOD BY: RR BAIRNSFATHER                                               LOG SECTION: R32
000325:                                                                                                  #  MOD NO: 1     MOD BY: RR BAIRNSFATHER         DATE: 11 APR 67         SR30.1 CHANGED TO ALLOW MONITOR OPERN
000326:                                                                                                  #  MOD NO: 2     MOD BY: RR BAIRNSFATHER         DATE: 14 APR 67         ADD OVFL CK FOR RAPO
000327:                                                                                                  #  MOD NO: 3     MOD BY ALONSO                   DATE: 11 DEC 67         SUBROUTINE REWRITTEN
000328:                                                                                                  #  MOD NO: 4     MOD BY ALONSO                   DATE: 26 MAR 68         PROG MOD TO HANDLE DIF EARTH/MOON SCALE
000329:                                                                                                  #  MOD NO: 5     MOD BY: RR BAIRNSFATHER         DATE: 6 AUG 68          OVFL CK FOR HAPO & HPER. VOIDS MOD #2.
000330:
000331:                                                                                                  #  NEW FUNCTIONAL DESCRIPTION:  ORBITAL PARAMETERS DISPLAY FOR NOUNS 32 AND 44.
000332:                                                                                                  #  SR30.1 CALLS TFFCONMU AND TFFRP/RA TO CALCULATE RPER (PERIGEE RADIUS),
000333:                                                                                                  #  RAPO (APOGEE RADIUS), HPER (PERIGEE HEIGHT ABOVE LAUNCH PAD OR LUNAR
000334:                                                                                                  #  LANDING SITE), HAPO (APOGEE HEIGHT AS ABOVE), TPER (TIME TO PERIGEE),
000335:                                                                                                  #  TFF (TIME TO INTERSECT 300 KFT ABOVE PAD OR 35KFT ABOVE LANDING SITE).
000336:                                                                                                  #  IF HPER IS GREATER THAN OR EQUAL TO HPERMIN, CALCULATES TPER AND STORES
000337:                                                                                                  #  NEGATIVE IN -TPER.  OTHERWISE STORES +0 IN -TPER.  WHENEVER TPER IS
000338:                                                                                                  #  CALCULATED, TFF IS NOT COMPUTABLE AND DEFAULTS TO -59MIN 59SEC.  IF HAPO
000339:                                                                                                  #  WOULD EXCEED 9999.9 NM, IT IS LIMITED TO THAT VALUE FOR DISPLAY.
000340:
000341:                                                                                                  #  ADDENDUM:     HAPO AND HPER SHOULD BE CHANGED TO READ HAPOX AND HPERX IN THE
000342:                                                                                                  #                ABOVE REMARKS.
000343:
000344:                                                                                                  #  CALLING SEQUENCE:     CALL
000345:                                                                                                  #                                SR30.1
000346:
000347:                                                                                                  #  SUBROUTINES CALLED:   TFFCONMU, TFFRP/RA, CALCTPER, CALCTFF
000348:
000349:                                                                                                  #  NORMAL EXIT MODE:     CALLING LINE +1 (STILL IN INTERPRETIVE MODE)
000350:
000351:                                                                                                  #  ALARMS:       NONE
000352:
000353:                                                                                                  #  OUTPUT:       RAPO    (-29) M EARTH   APOGEE RADIUS   EARTH CENTERED COORD.
000354:                                                                                                  #                        (-27) M MOON                    MOON CENTERED COORD.
000355:                                                                                                  #                RPER    (-29) M EARTH   PERIGEE RADIUS  EARTH CENTERED COORD.
000356:                                                                                                  #                        (-27) M MOON                    MOON CENTERED COORD.
000357:                                                                                                  #                HAPOX   (-29) M         APOGEE ALTITUDE ABOVE PAD OR LAND. SITE MAX VALUE LIMITED TO 9999.9 NM.
000358:                                                                                                  #                HPERX   (-29) M         PERIGEE ALT. ABOVE PAD OR LAND. SITE    MAX VALUE LIMITED TO 9999.9 NM.
000359:                                                                                                  #                TFF     (-28) CS        TIME TO 300KFT OR 35KFT ALTITUDE
000360:                                                                                                  #                -TPER   (-28) CS        TIME TO PERIGEE
000361:
000362:                                                                                                  #  ERASABLE INITIALIZATION REQUIRED -
000363:                                                                                                  #        TFF/RTMU        (+17) EARTH     RECIPROCAL OF PROPER GRAV CONSTANT FOR
000364:                                                                                                  #                        (+14) MOON      EARTH OR MOON = 1/SQRT(MU).
000365:                                                                                                  #        RONE            (-29) M         STATE VECTOR
000366:                                                                                                  #        VONE            (-7)  M/CS      STATE VECTOR
000367:                                                                                                  #        RPADTEM         (-29) M EARTH   RADIUS OF LAUNCH PAD OR LUNAR LANDING
000368:                                                                                                  #                        (-27) M MOON    SITE.
000369:                                                                                                  #        HPERMIN         (-29) M EARTH   (300 OR 35) KFT MINIMUM PERIGEE ALTITUDE
000370:                                                                                                  #                        (-27) M MOON    ABOVE LAUNCH PAD OR LUNAR LANDING SITE.
000371:                                                                                                  #        V82EMFLG        (INT SW BIT)    RESET FOR EARTH, SET FOR MOON.
000372:
000373:                                                                                                  #  DEBRIS:       QPRET, PDL, S2
000374:
000375: 22,3572                                           COUNT*   $$/SR30S
000376:
000377: 22,3572           44001        SR30.1             SETPD    STQ                                   #  INITIALIZE PUSHDOWN LIST.
000378: 22,3573           00001                                    0
000379: 22,3574           00051                                    S2
000380:                                                                                                  #  SR30.1 INPUT: RONE AT (-29)M EARTH/MOON
000381:                                                                                                  #                VONE AT (-7)M/CS
000382:                                                                                                  #  TFFCONMU, TFFRP/RA, CALCTPER AND CALCTFF
000383:                                                                                                  #  CALLS REQUIRE:
000384:                                                                                                  #  EARTH CENTERED (NO RESCALING REQUIRED)
000385:                                                                                                  #        RONE SCALED TO B-29 M
000386:                                                                                                  #        VONE SCALED TO B-7  M/CS
000387:                                                                                                  #  MOON CENTERED (RESCALING REQUIRED)
000388:                                                                                                  #        RONE SCALED TO B-27 M
000389:                                                                                                  #        VONE SCALED TO B-5  M/CS
000390: 22,3575           77624                           CALL
000391: 22,3576           57314                                    TFFCONMU
000392: 22,3577           77624                           CALL                                           #  TFFRP/RA COMPUTES RAPO,RPER.
000393: 22,3600           57360                                    TFFRP/RA
000394:                                                                                                  #  RETURNS WITH RAPO IN D(MPAC).
000395: 22,3601           40015                           DAD      BOV
000396: 22,3602           14423                                    1BITDP
000397: 22,3603           45637                                    MAXCHK
000398: 22,3604           45345                           DLOAD    DSU
000399: 22,3605           00021                                    RAPO
000400: 22,3606           02211                                    RPADTEM
000401: 22,3607           16122        STORHAPO           STODL    HAPOX
000402: 22,3610           00017                                    RPER
000403: 22,3611           77625                           DSU
000404: 22,3612           02211                                    RPADTEM                               #  GIVES HPER AT (-29)M EARTH, (-27)M MOON.
000405: 22,3613           02124        STORHPER           STORE    HPERX                                 #  STORE (RPER - RPADTEM) INTO HPERX.
000406: 22,3614           51025                           DSU      BPL                                   #  HPERMIN AT (-29)M FOR EARTH, (-27)M MOON
000407: 22,3615           02207                                    HPERMIN                               #  IF HPER L/ HPERMIN (300 OR 35) KFT,
000408: 22,3616           45622                                    DOTPER                                #  THEN ZERO INTO -TPER.
000409: 22,3617           52145                           DLOAD    GOTO                                  #  OTHERWISE CALCULATE TPER.
000410: 22,3620           06233                                    HI6ZEROS
000411: 22,3621           45626                                    SKIPTPER
000412: 22,3622           45145        DOTPER             DLOAD    CALL
000413: 22,3623           00017                                    RPER
000414: 22,3624           57412                                    CALCTPER
000415: 22,3625           77676                           DCOMP                                          #  TPER IS PUT NEG INTO -TPER.
000416: 22,3626           16145        SKIPTPER           STODL    -TPER
000417: 22,3627           02207                                    HPERMIN                               #  HPERMIN AT (-29)M FOR EARTH, (-27)M MOON
000418: 22,3630           45015                           DAD      CALL
000419: 22,3631           02211                                    RPADTEM                               #  RPADTEM AT (-29)M FOR EARTH, (-27)M MOON
000420: 22,3632           57415                                    CALCTFF                               #  GIVES 59M59S FOR TFF IF RPER G/
000421: 22,3633           77676                           DCOMP                                          #  HPERMIN + RPADTEM.  (TPER WAS NON ZERO)
000422: 22,3634           02143                           STORE    TFF                                   #  OTHERWISE COMPUTES TFF.       (GOTO)
000423: 22,3635           77650                           GOTO
000424: 22,3636           00051                                    S2
000425:
000426: 22,3637           52145        MAXCHK             DLOAD    GOTO                                  #  IF C(MPAC) > 9999.9 NM, MPAC = 9999.9 NM
000427: 22,3640           05643                                    MAXNM
000428: 22,3641           45607                                    STORHAPO
000429:
000430: 22,3642           01065 05603  MAXNM              2OCT     01065      05603
000431:
000432:

End of include-file R30.agc.  Parent file is MAIN.agc


