
Source Code


000002:                                                                                                  ## Copyright:   Public domain.
000003:                                                                                                  ## Filename:    RADAR_LEADIN_ROUTINES.agc
000004:                                                                                                  ## Purpose:     A section of a reconstructed, mixed version of Sundance
000005:                                                                                                  ##              It is part of the reconstructed source code for the Lunar
000006:                                                                                                  ##              Module's (LM) Apollo Guidance Computer (AGC) for Apollo 9.
000007:                                                                                                  ##              No original listings of this program are available;
000008:                                                                                                  ##              instead, this file was created via disassembly of dumps
000009:                                                                                                  ##              of various revisions of Sundance core rope modules.
000010:                                                                                                  ## Assembler:   yaYUL
000011:                                                                                                  ## Contact:     Ron Burkey <info@sandroid.org>.
000012:                                                                                                  ## Website:     www.ibiblio.org/apollo/index.html
000013:                                                                                                  ## Mod history: 2020-06-17 MAS  Created from Luminary 69.
000014:
000015:                                                                                                  ## Sundance 302
000016:
000017: 25,2000                                           BANK     25
000018: 25,2000                                           SETLOC   RRLEADIN
000019: 25,2000                                           BANK
000020:
000021: 25,2000  E4,1606                                  EBANK=   RSTACK
000022:
000023:                                                                                                  #  RADAR SAMPLING LOOP.
000024:
000025: 25,2000                                           COUNT*   $$/RLEAD
000026: 25,2000           11525        RADSAMP            CCS      RSAMPDT                               #  TIMES NORMAL ONCE-PER-SECOND SAMPLING.
000027: 25,2001           12003                           TCF      +2
000028: 25,2002           15321                           TCF      TASKOVER                              #  +0 INSERTED MANUALLY TERMINATES TEST.
000029:
000030: 25,2003           05252                           TC       WAITLIST
000031: 25,2004  E4,1606                                  EBANK=   RSTACK
000032: 25,2004           02000 52064                     2CADR    RADSAMP
000033:
000034: 25,2006           37665                           CAF      PRIO25
000035: 25,2007           05142                           TC       NOVAC
000036: 25,2010  E4,1606                                  EBANK=   RSTACK
000037: 25,2010           02020 52064                     2CADR    DORSAMP
000038:
000039: 25,2012           35011                           CAF      BIT14                                 #  FOR CYCLIC SAMPLING, RTSTDEX=
000040: 25,2013           00006                           EXTEND                                         #  RTSTLOC/2 + RTSTBASE
000041: 25,2014           71524                           MP       RTSTLOC
000042: 25,2015           61523                           AD       RTSTBASE                              #  0 FOR RR, 2 FOR LR.
000043: 25,2016           55521                           TS       RTSTDEX
000044: 25,2017           15321                           TCF      TASKOVER
000045:
000046:                                                                                                  #  DO THE ACTUAL RADAR SAMPLE.
000047:
000048: 25,2020           02040        DORSAMP            TC       VARADAR                               #  SELECTS VARIABLE RADAR CHANNEL.
000049: 25,2021           04655                           TC       BANKCALL
000050: 25,2022           17623                           CADR     RADSTALL
000051:
000052: 25,2023           25526                           INCR     RFAILCNT                              #  ADVANCE FAIL COUNTER BUT ACCEPT BAD DATA
000053:
000054: 25,2024           00004        DORSAMP2           INHINT
000055: 25,2025           53105                           DXCH     SAMPLSUM
000056: 25,2026           51524                           INDEX    RTSTLOC
000057: 25,2027           53607                           DXCH     RSTACK
000058:
000059: 25,2030           41524                           CS       RTSTLOC                               #  CYCLE RTSTLOC.
000060: 25,2031           61522                           AD       RTSTMAX
000061: 25,2032           00006                           EXTEND
000062:
000063: 25,2033           12036                           BZF      +3
000064: 25,2034           31524                           CA       RTSTLOC
000065: 25,2035           65025                           AD       TWO                                   #  STORAGE IS DP
000066: 25,2036           55524                           TS       RTSTLOC
000067: 25,2037           15225                           TCF      ENDOFJOB                              #  CONTINUOUS SAMPLING AND 2N TRIES - GONE.
000068:
000069:                                                                                                  #  VARIABLE RADAR DATA CALLER FOR ONE MEASUREMENT ONLY.
000070:
000071: 25,2040           35026        VARADAR            CAF      ONE                                   #  WILL BE SENT TO RADAR ROUTINE IN A BY
000072: 25,2041           54133                           TS       BUF2                                  #  SWCALL.
000073: 25,2042           51521                           INDEX    RTSTDEX
000074: 25,2043           32045                           CAF      RDRLOCS
000075: 25,2044           14661                           TCF      SWCALL                                #  NOT TOUCHING Q.
000076:
000077: 25,2045           53057        RDRLOCS            CADR     RRRANGE                               #  = 0
000078: 25,2046           53055                           CADR     RRRDOT                                #  = 1
000079: 25,2047           53053                           CADR     LRVELX                                #  = 2
000080: 25,2050           53051                           CADR     LRVELY                                #  = 3
000081: 25,2051           53047                           CADR     LRVELZ                                #  = 4
000082: 25,2052           53045                           CADR     LRALT                                 #  = 5
000083:
000084:

End of include-file RADAR_LEADIN_ROUTINES.agc.  Parent file is MAIN.agc


