
Source Code


000002:                                                                                                  ## Copyright:   Public domain.
000003:                                                                                                  ## Filename:    RCS_FAILURE_MONITOR.agc
000004:                                                                                                  ## Purpose:     A section of a reconstructed, mixed version of Sundance
000005:                                                                                                  ##              It is part of the reconstructed source code for the Lunar
000006:                                                                                                  ##              Module's (LM) Apollo Guidance Computer (AGC) for Apollo 9.
000007:                                                                                                  ##              No original listings of this program are available;
000008:                                                                                                  ##              instead, this file was created via disassembly of dumps
000009:                                                                                                  ##              of various revisions of Sundance core rope modules.
000010:                                                                                                  ## Assembler:   yaYUL
000011:                                                                                                  ## Contact:     Ron Burkey <info@sandroid.org>.
000012:                                                                                                  ## Website:     www.ibiblio.org/apollo/index.html
000013:                                                                                                  ## Mod history: 2020-06-17 MAS  Created from Luminary 69.
000014:
000015:                                                                                                  ## Sundance 302
000016:
000017:                                                                                                  #  PROGRAM DESCRIPTION
000018:
000019:                                                                                                  #  AUTHOR:  J S MILLER
000020:
000021:                                                                                                  #  MODIFIED 6 MARCH 1968 BY P S WEISSMAN TO SET UP JOB FOR 1/ACCS WHEN THE MASKS ARE CHANGED.
000022:
000023:                                                                                                  #       THIS ROUTINE IS ATTACHED TO T4RUPT, AND IS ENTERED EVERY 480 MS.  ITS FUNCTION IS TO EXAMINE THE LOW 8 BITS
000024:                                                                                                  #  OF CHANNEL 32 TO SEE IF ANY ISOLATION-VALVE CLOSURE BITS HAVE APPEARED OR DISAPPEARED (THE CREW IS WARNED OF JET
000025:                                                                                                  #  FAILURES BY LAMPS LIT BY THE GRUMMAN FAILURE-DETECTION CIRCUITRY; THEY MAY RESPOND BY OPERATING SWITCHES WHICH
000026:                                                                                                  #  ISOLATE PAIRS OF JETS FROM THE PROPELLANT TANKS AND SET BITS IN CHANNEL 32).  IN THE EVENT THAT CHANNEL 32 BITS
000027:                                                                                                  #  DIFFER FROM 'PVALVEST', THE RECORD OF ACTIONS TAKEN BY THIS ROUTINE, THE APPROPRIATE BITS IN 'CH5MASK' &
000028:                                                                                                  #  'CH6MASK', USED BY THE DAP JET-SELECTION LOGIC, ARE UPDATED, AS IS 'PVALVEST'.  TO SPEED UP & SHORTEN THE
000029:                                                                                                  #  ROUTINE, NO MORE THAN ONE CHANGE IS ACCEPTED PER ENTRY.  THE HIGHEST-NUMBERED BIT IN CHANNEL 32 WHICH REQUIRES
000030:                                                                                                  #  ACTION IS THE ONE PROCESSED.
000031:
000032:                                                                                                  #       THE CODING IN THE FAILURE MONITOR HAS BEEN WRITTEN SO AS TO HAVE ALMOST COMPLETE RESTART PROTECTION.  FOR
000033:                                                                                                  #  EXAMPLE, NO ASSUMPTION IS MADE WHEN SETTING A 'CH5MASK' BIT TO 1 THAT THE PREVIOUS STATE IS 0, ALTHOUGH IT OF
000034:                                                                                                  #  COURSE SHOULD BE.  ONE CASE WHICH MAY BE SEEN TO EVADE PROTECTION IS THE OCCURRENCE OF A RESTART AFTER UPDATING
000035:                                                                                                  #  ONE OR BOTH DAP MASK-WORDS BUT BEFORE UPDATING 'PVALVEST', COUPLED WITH A CHANGE IN THE VALVE-BIT BACK TO ITS
000036:                                                                                                  #  FORMER STATE.  THE CONSEQUENCE OF THIS IS THAT THE NEXT ENTRY WOULD NOT SEE THE CHANGE INCOMPLETELY INCORP-
000037:                                                                                                  #  ORATED BY THE LAST PASS (BECAUSE IT WENT AWAY AT JUST THE RIGHT TIME), BUT THE DAP MASK-WORDS WILL BE INCORRECT.
000038:                                                                                                  #  THIS COMBINATION OF EVENTS SEEMS QUITE REMOTE, BUT NOT IMPOSSIBLE UNLESS THE CREW OPERATES THE SWITCHES AT HALF-
000039:                                                                                                  #  SECOND INTERVALS OR LONGER.  IN ANY EVENT, A DISAGREEMENT BETWEEN REALITY AND THE DAP MASKS WILL BE CURED IF
000040:                                                                                                  #  THE MISINTERPRETED SWITCH IS REVERSED AND THEN RESTORED TO ITS CORRECT POSITION (SLOWLY).
000041:
000042:                                                                                                  #  CALLING SEQUENCE:
000043:
000044:                                                                                                  #           TCF    RCSMONIT        (IN INTERRUPT MODE, EVERY 480 MS.)
000045:
000046:                                                                                                  #  EXIT:  TCF  RCSMONEX  (ALL PATHS EXIT VIA SUCH AN INSTRUCTION)
000047: 06,3153  06,3260               RCSMONEX           EQUALS   STAGEMON
000048:
000049:                                                                                                  #  ERASABLE INITIALIZATION REQUIRED:
000050:
000051:                                                                                                  #           VIA FRESH START:  PVALVEST          = +0  (ALL JETS ENABLED)
000052:                                                                                                  #                             CH5MASK, CH6MASK  = +0  (ALL JETS OK)
000053:
000054:                                                                                                  #  OUTPUT:  CH5MASK & CH6MASK UPDATED  (1'S WHERE JETS NOT TO BE USED, IN CHANNEL 5 & 6 FORMAT)
000055:                                                                                                  #           PVALTEST UPDATED  (1,S WHEN VALVE CLOSURES HAVE BEEN TRANSLATED INTO CH5MASK & CH6MASK; CHAN 32 FORMAT)
000056:                                                                                                  #           JOB TO DO 1/ACCS.
000057:
000058:                                                                                                  #  DEBRIS:  A, L, Q AND DEBRIS OF NOVAC.
000059:
000060:                                                                                                  #  SUBROUTINE CALLED:  NOVAC.
000061:
000062: 06,3153     1264                                  EBANK=   CH5MASK
000063:
000064: 23,2000                                           BANK     23
000065: 06,2000                                           SETLOC   RCSMONT
000066: 06,2000                                           BANK
000067:
000068: 06,3153                                           COUNT*   $$/T4RCS
000069:
000070: 06,3153  06,3153               RCSMONIT           EQUALS   RCSMON
000071:
000072: 06,3153           45030        RCSMON             CS       ZERO
000073: 06,3154           00006                           EXTEND
000074: 06,3155           06032                           RXOR     CHAN32                                #  PICK UP + INVERT INVERTED CHANNEL 32.
000075: 06,3156           74371                           MASK     LOW8                                  #  KEEP JET-FAIL BITS ONLY.
000076: 06,3157           54002                           TS       Q
000077:
000078: 06,3160           41300                           CS       PVALVEST                              #        -   -
000079: 06,3161           70002                           MASK     Q                                     #  FORM PC + PC.
000080: 06,3162           54001                           TS       L                                     #    (P = PREVIOUS ISOLATION VALVE STATE,
000081: 06,3163           40002                           CS       Q                                     #     C = CURRENT VALVE STATE (CH32)).
000082: 06,3164           71300                           MASK     PVALVEST
000083: 06,3165           26001                           ADS      L                                     #  RESULT NZ INDICATES ACTION REQUIRED.
000084:
000085: 06,3166           00006                           EXTEND
000086: 06,3167           13260                           BZF      RCSMONEX                              #  QUIT IF NO ACTION REQUIRED.
000087:
000088: 06,3170           00006                           EXTEND
000089: 06,3171           75020                           MP       BIT7                                  #  MOVE BITS 8 - 1 OF A TO 14 - 7 OF L.
000090: 06,3172           56001                           XCH      L                                     #  ZERO TO L IN THE PROCESS.
000091:
000092: 06,3173           24001                 -3        INCR     L
000093: 06,3174           60000                           DOUBLE                                         #  BOUND TO GET OVERFLOW IN THIS LOOP,
000094: 06,3175           54000                           OVSK                                           #  SINCE WE ASSURED INITIAL NZ IN A.
000095: 06,3176           13173                           TCF      -3
000096:
000097: 06,3177           50001                           INDEX    L
000098: 06,3200           35016                           CA       BIT8       -1                         #  SAVE THE RELEVANT BIT (8 - 1).
000099: 06,3201           54002                           TS       Q
000100: 06,3202           71300                           MASK     PVALVEST                              #  LOOK AT PREVIOUS VALVE STATE BIT.
000101: 06,3203           10000                           CCS      A
000102: 06,3204           13220                           TCF      VOPENED                               #  THE VALVE HAS JUST BEEN OPENED.
000103:
000104: 06,3205           41264                           CS       CH5MASK                               #  THE VALVE HAS JUST BEEN CLOSED.
000105: 06,3206           50001                           INDEX    L
000106: 06,3207           73237                           MASK     5FAILTAB
000107: 06,3210           27264                           ADS      CH5MASK                               #  SET INHIBIT BIT FOR CHANNEL 5 JET.
000108:
000109: 06,3211           41265                           CS       CH6MASK
000110: 06,3212           50001                           INDEX    L
000111: 06,3213           73247                           MASK     6FAILTAB
000112: 06,3214           27265                           ADS      CH6MASK                               #  SET INGIBIT BIT FOR CHANNEL 6 JET.
000113:
000114: 06,3215           30002                           CA       Q
000115: 06,3216           27300                           ADS      PVALVEST                              #  RECORD ACTION TAKEN.
000116:
000117: 06,3217           13233                           TCF      1/ACCFIX                              #  SET UP 1/ACCJOB AND EXIT.
000118:
000119: 06,3220           50001        VOPENED            INDEX    L                                     #  A VALVE HAS JUST BEEN OPENED.
000120: 06,3221           43237                           CS       5FAILTAB
000121: 06,3222           71264                           MASK     CH5MASK
000122: 06,3223           55264                           TS       CH5MASK                               #  REMOVE INHIBIT BIT FOR CHANNEL 5 JET.
000123:
000124: 06,3224           50001                           INDEX    L
000125: 06,3225           43247                           CS       6FAILTAB
000126: 06,3226           71265                           MASK     CH6MASK
000127: 06,3227           55265                           TS       CH6MASK                               #  REMOVE INHIBIT BIT FOR CHANNEL 6 JET.
000128:
000129: 06,3230           40002                           CS       Q
000130: 06,3231           71300                           MASK     PVALVEST
000131: 06,3232           55300                           TS       PVALVEST                              #  RECORD ACTION TAKEN.
000132:
000133: 06,3233           37667        1/ACCFIX           CAF      PRIO27                                #  SET UP 1/ACCS SO THAT THE SWITCH CURVES
000134: 06,3234           05142                           TC       NOVAC                                 #    FOR TJETLAW CAN BE MODIFIED IF CH5MASK
000135: 06,3235  E6,1532                                  EBANK=   AOSQ                                  #    HAS BEEN ALTERED.
000136: 06,3235           02312 40006                     2CADR    1/ACCJOB
000137:
000138: 06,3237           13260                           TCF      RCSMONEX                              #  EXIT.
000139:
000140: 06,3240                        5FAILTAB           EQUALS   -1                                    #  CH 5 JET BIT CORRESPONDING TO CH 32 BIT:
000141: 06,3240           00040                           OCT      00040                                 #  8
000142: 06,3241           00020                           OCT      00020                                 #  7
000143: 06,3242           00100                           OCT      00100                                 #  6
000144: 06,3243           00200                           OCT      00200                                 #  5
000145: 06,3244           00010                           OCT      00010                                 #  4
000146: 06,3245           00001                           OCT      00001                                 #  3
000147: 06,3246           00004                           OCT      00004                                 #  2
000148: 06,3247           00002                           OCT      00002                                 #  1
000149:
000150: 06,3250                        6FAILTAB           EQUALS   -1                                    #  CH 6 JET BIT CORRESPONDING TO CH 32 BIT:
000151: 06,3250           00010                           OCT      00010                                 #  8
000152: 06,3251           00020                           OCT      00020                                 #  7
000153: 06,3252           00004                           OCT      00004                                 #  6
000154: 06,3253           00200                           OCT      00200                                 #  5
000155: 06,3254           00001                           OCT      00001                                 #  4
000156: 06,3255           00002                           OCT      00002                                 #  3
000157: 06,3256           00040                           OCT      00040                                 #  2
000158: 06,3257           00100                           OCT      00100                                 #  1

End of include-file RCS_FAILURE_MONITOR.agc.  Parent file is MAIN.agc


