
Source Code


000002:                                                                                                  ## Copyright:   Public domain.
000003:                                                                                                  ## Filename:    RTB_OP_CODES.agc
000004:                                                                                                  ## Purpose:     A section of a reconstructed, mixed version of Sundance
000005:                                                                                                  ##              It is part of the reconstructed source code for the Lunar
000006:                                                                                                  ##              Module's (LM) Apollo Guidance Computer (AGC) for Apollo 9.
000007:                                                                                                  ##              No original listings of this program are available;
000008:                                                                                                  ##              instead, this file was created via disassembly of dumps
000009:                                                                                                  ##              of various revisions of Sundance core rope modules.
000010:                                                                                                  ## Assembler:   yaYUL
000011:                                                                                                  ## Contact:     Ron Burkey <info@sandroid.org>.
000012:                                                                                                  ## Website:     www.ibiblio.org/apollo/index.html
000013:                                                                                                  ## Mod history: 2020-06-17 MAS  Created from Luminary 69.
000014:
000015:                                                                                                  ## Sundance 302
000016:
000017: 22,3644                                           BANK     22
000018: 10,2000                                           SETLOC   RTBCODES
000019: 10,2000                                           BANK
000020:
000021: 10,3454  E5,1664                                  EBANK=   XNB
000022: 10,3454                                           COUNT*   $$/RTB
000023:
000024:                                                                                                  #  LOAD TIME2, TIME1 INTO MPAC:
000025:
000026: 10,3454           00006        LOADTIME           EXTEND
000027: 10,3455           30025                           DCA      TIME2
000028: 10,3456           16031                           TCF      SLOAD2
000029:
000030:                                                                                                  #  CONVERT THE SINGLE PRECISION 2'S COMPLEMENT NUMBER ARRIVING IN MPAC (SCALED IN HALF-REVOLUTIONS) TO A
000031:                                                                                                  #  DP 1'S COMPLEMENT NUMBER SCALED IN REVOLUTIONS.
000032:
000033: 10,3457           10154        CDULOGIC           CCS      MPAC
000034: 10,3460           35030                           CAF      ZERO
000035: 10,3461           13464                           TCF      +3
000036: 10,3462           13463                           NOOP
000037: 10,3463           45011                           CS       HALF
000038:
000039: 10,3464           54155                           TS       MPAC       +1
000040: 10,3465           35030                           CAF      ZERO
000041: 10,3466           56154                           XCH      MPAC
000042: 10,3467           00006                           EXTEND
000043: 10,3470           75011                           MP       HALF
000044: 10,3471           20155                           DAS      MPAC
000045: 10,3472           16035                           TCF      DANZIG                                #  MODE IS ALREADY AT DOUBLE-PRECISION
000046:
000047:                                                                                                  #  READ THE PIPS INTO MPAC WITHOUT CHANGING THEM:
000048:
000049: 10,3473           00004        READPIPS           INHINT
000050: 10,3474           30037                           CA       PIPAX
000051: 10,3475           54154                           TS       MPAC
000052: 10,3476           30040                           CA       PIPAY
000053: 10,3477           54157                           TS       MPAC       +3
000054: 10,3500           30041                           CA       PIPAZ
000055: 10,3501           00003                           RELINT
000056: 10,3502           54161                           TS       MPAC       +5
000057:
000058: 10,3503           35030                           CAF      ZERO
000059: 10,3504           54155                           TS       MPAC       +1
000060: 10,3505           54160                           TS       MPAC       +4
000061: 10,3506           54162                           TS       MPAC       +6
000062:
000063: 10,3507           16475        VECMODE            TCF      VMODE
000064:
000065:                                                                                                  #  FORCE TP SIGN AGREEMENT IN MPAC:
000066:
000067: 10,3510           07231        SGNAGREE           TC       TPAGREE
000068: 10,3511           16035                           TCF      DANZIG
000069:
000070:                                                                                                  #  CONVERT THE DP 1'S COMPLEMENT ANGLE SCALED IN REVOLUTIONS TO A SINGLE PRECISION 2'S COMPLEMENT ANGLE
000071:                                                                                                  #  SCALED IN HALF-REVOLUTIONS.
000072:
000073: 10,3512           03542        1STO2S             TC       1TO2SUB
000074: 10,3513           35030                           CAF      ZERO
000075: 10,3514           54155                           TS       MPAC       +1
000076: 10,3515           16034                           TCF      NEWMODE
000077:
000078:                                                                                                  #  DO 1STO2S ON A VECTOR OF ANGLES:
000079:
000080: 10,3516           03542        V1STO2S            TC       1TO2SUB                               #  ANSWER ARRIVES IN A AND MPAC.
000081:
000082: 10,3517           52162                           DXCH     MPAC       +5
000083: 10,3520           52155                           DXCH     MPAC
000084: 10,3521           03542                           TC       1TO2SUB
000085: 10,3522           54156                           TS       MPAC       +2
000086:
000087: 10,3523           52160                           DXCH     MPAC       +3
000088: 10,3524           52155                           DXCH     MPAC
000089: 10,3525           03542                           TC       1TO2SUB
000090: 10,3526           54155                           TS       MPAC       +1
000091:
000092: 10,3527           30161                           CA       MPAC       +5
000093: 10,3530           54154                           TS       MPAC
000094:
000095: 10,3531           35026        TPMODE             CAF      ONE                                   #  MODE IS TP.
000096: 10,3532           16034                           TCF      NEWMODE
000097:
000098:                                                                                                  #  V1STO2S FOR 2 COMPONENT VECTOR. USED BY RR.
000099:
000100: 10,3533           03542        2V1STO2S           TC       1TO2SUB
000101: 10,3534           52160                           DXCH     MPAC       +3
000102: 10,3535           52155                           DXCH     MPAC
000103: 10,3536           03542                           TC       1TO2SUB
000104: 10,3537           54001                           TS       L
000105: 10,3540           30157                           CA       MPAC       +3
000106: 10,3541           16031                           TCF      SLOAD2
000107:
000108:                                                                                                  #  SUBROUTINE TO DO DOUBLING AND 1'S TO 2'S CONVERSION:
000109:
000110: 10,3542           52155        1TO2SUB            DXCH     MPAC                                  #  FINAL MPAC +1 UNSPECIFIED.
000111: 10,3543           20001                           DDOUBL
000112: 10,3544           10000                           CCS      A
000113: 10,3545           65026                           AD       ONE
000114: 10,3546           13550                           TCF      +2
000115: 10,3547           40000                           COM                                            #  THIS WAS REVERSE OF MSU.
000116:
000117: 10,3550           54154                           TS       MPAC                                  #  AND SKIP ON OVERFLOW.
000118: 10,3551           00002                           TC       Q
000119:
000120: 10,3552           50000                           INDEX    A                                     #  OVERFLOW UNCORRECT AND IN MSU.
000121: 10,3553           35007                           CAF      LIMITS
000122: 10,3554           26154                           ADS      MPAC
000123: 10,3555           00002                           TC       Q
000124:                                                                                                  #  SUBROUTINE TO INCREMENT CDUS
000125: 10,3556           33571        INCRCDUS           CAF      LOCTHETA
000126: 10,3557           54130                           TS       BUF                                   #  PLACE ADRES(THETA) IN BUF.
000127: 10,3560           30154                           CAE      MPAC                                  #  INCREMENT IN 1S COMPL.
000128: 10,3561           03572                           TC       CDUINC
000129:
000130: 10,3562           24130                           INCR     BUF
000131: 10,3563           30157                           CAE      MPAC       +3
000132: 10,3564           03572                           TC       CDUINC
000133:
000134: 10,3565           24130                           INCR     BUF
000135: 10,3566           30161                           CAE      MPAC       +5
000136: 10,3567           03572                           TC       CDUINC
000137:
000138: 10,3570           13507                           TCF      VECMODE
000139:
000140: 10,3571           01206        LOCTHETA           ADRES    THETAD
000141:
000142:                                                                                                  #  THE FOLLOWING ROUTINE INCREMENTS IN 2S COMPLEMENT THE REGISTER WHOSE ADDRESS IS IN BUF BY THE 1S COMPL.
000143:                                                                                                  #  QUANTITY FOUND IN TEM2.  THIS MAY BE USED TO INCREMENT DESIRED IMU AND OPTICS CDU ANGLES OR ANY OTHER 2S COMPL.
000144:                                                                                                  #  (+0 UNEQUAL TO -0) QUANTITY.  MAY BE CALLED BY BANKCALL/SWCALL.
000145:
000146: 10,3572           54142        CDUINC             TS       TEM2                                  #  1S COMPL.QUANT. ARRIVES IN ACC.  STORE IT
000147: 10,3573           50130                           INDEX    BUF
000148: 10,3574           10000                           CCS      0                                     #  CHANGE 2S COMPL. ANGLE(IN BUF)INTO 1S
000149: 10,3575           65026                           AD       ONE
000150: 10,3576           13602                           TCF      +4
000151: 10,3577           65026                           AD       ONE
000152: 10,3600           65026                           AD       ONE                                   #  OVERFLOW HERE IF 2S COMPL. IS 180 DEG.
000153: 10,3601           40000                           COM
000154:
000155: 10,3602           60142                           AD       TEM2                                  #  SULT MOVES FROM 2ND TO 3D QUAD.(OR BACK)
000156: 10,3603           10000                           CCS      A                                     #  BACK TO 2S COMPL.
000157: 10,3604           65026                           AD       ONE
000158: 10,3605           13607                           TCF      +2
000159: 10,3606           40000                           COM
000160: 10,3607           54142                           TS       TEM2                                  #  STORE 14BIT QUANTITY WITH PRESENT SIGN
000161: 10,3610           13614                           TCF      +4
000162: 10,3611           50000                           INDEX    A                                     #   SIGN.
000163: 10,3612           35007                           CAF      LIMITS                                #  FIX IT, BY ADDING IN 37777 OR 40000
000164: 10,3613           60142                           AD       TEM2
000165:
000166: 10,3614           50130                           INDEX    BUF
000167: 10,3615           54000                           TS       0                                     #  STORE NEW ANGLE IN 2S COMPLEMENT.
000168: 10,3616           00002                           TC       Q
000169:
000170:                                                                                                  #  RTB TO TORQUE GYROS, EXCEPT FOR THE CALL TO IMUSTALL. ECADR OF COMMANDS ARRIVES IN X1.
000171:
000172: 10,3617           50120        PULSEIMU           INDEX    FIXLOC                                #  ADDRESS OF GYRO COMMANDS SHOULD BE IN X1
000173: 10,3620           30046                           CA       X1
000174: 10,3621           04655                           TC       BANKCALL
000175: 10,3622           17234                           CADR     IMUPULSE
000176: 10,3623           16035                           TCF      DANZIG
000177:
000178:                                                                                                  #  EACH ROUTINE TAKES A 3X3 MATRIX STORED IN DOUBLE PRECISION IN A FIXED AREA OF ERASABLE MEMORY AND REPLACES IT
000179:                                                                                                  #  WITH THE TRANSPOSE MATRIX. TRANSP1 USES LOCATIONS XNB+0,+1 THROUGH XNB+16D, 17D AND TRANSP2 USES LOCATIONS
000180:                                                                                                  #  XNB1+0,+1 THROUGH XNB1+16D, 17D. EACH MATRIX IS STORED BY ROWS.
000181:
000182: 10,3624           02664        XNBEB              ECADR    XNB
000183: 10,3625           03456        XNB1EB             ECADR    XNB1
000184:
000185: 10,3626  E5,1664                                  EBANK=   XNB
000186:
000187: 10,3626           33624        TRANSP1            CAF      XNBEB
000188: 10,3627           54003                           TS       EBANK
000189: 10,3630           53667                           DXCH     XNB        +2
000190: 10,3631           53673                           DXCH     XNB        +6
000191: 10,3632           53667                           DXCH     XNB        +2
000192:
000193: 10,3633           53671                           DXCH     XNB        +4
000194: 10,3634           53701                           DXCH     XNB        +12D
000195: 10,3635           53671                           DXCH     XNB        +4
000196:
000197: 10,3636           53677                           DXCH     XNB        +10D
000198: 10,3637           53703                           DXCH     XNB        +14D
000199: 10,3640           53677                           DXCH     XNB        +10D
000200: 10,3641           16035                           TCF      DANZIG
000201:
000202: 10,3642  E7,1456                                  EBANK=   XNB1
000203:
000204: 10,3642           33625        TRANSP2            CAF      XNB1EB
000205: 10,3643           54003                           TS       EBANK
000206: 10,3644           53461                           DXCH     XNB1       +2
000207: 10,3645           53465                           DXCH     XNB1       +6
000208: 10,3646           53461                           DXCH     XNB1       +2
000209:
000210: 10,3647           53463                           DXCH     XNB1       +4
000211: 10,3650           53473                           DXCH     XNB1       +12D
000212: 10,3651           53463                           DXCH     XNB1       +4
000213:
000214: 10,3652           53471                           DXCH     XNB1       +10D
000215: 10,3653           53475                           DXCH     XNB1       +14D
000216: 10,3654           53471                           DXCH     XNB1       +10D
000217: 10,3655           16035                           TCF      DANZIG
000218:
000219:                                                                                                  #  THE SUBROUTINE SIGNMPAC SETS C(MPAC, MPAC +1) TO SIGN(MPAC).
000220:                                                                                                  #  FOR THIS, ONLY THE CONTENTS OF MPAC ARE EXAMINED.  ALSO +0 YIELDS POSMAX AND -0 YIELDS NEGMAX.
000221:
000222:                                                                                                  #  ENTRY MAY BE BY EITHER OF THE FOLLOWING:
000223:                                                                                                  #        1.      LIMIT THE SIZE OF MPAC ON INTERPRETIVE OVERFLOW:
000224:                                                                                                  #                ENTRY:          BOVB
000225:                                                                                                  #                                        SIGNMPAC
000226:                                                                                                  #        2.      GENERATE IN MPAC THE SIGNUM FUNCTION OF MPAC:
000227:                                                                                                  #                ENTRY:          RTB
000228:                                                                                                  #                                        SIGNMPAC
000229:                                                                                                  #  IN EITHER CASE, RETURN IS TO THE NEXT INTERPRETIVE INSTRUCTION IN THE CALLING SEQUENCE.
000230:
000231: 10,3656           00006        SIGNMPAC           EXTEND
000232: 10,3657           35006                           DCA      DPOSMAX
000233: 10,3660           52155                           DXCH     MPAC
000234: 10,3661           10000                           CCS      A
000235: 10,3662           35030        DPMODE             CAF      ZERO                                  #  SETS MPAC +2 TO ZERO IN THE PROCESS
000236: 10,3663           16033                           TCF      SLOAD2     +2
000237: 10,3664           13665                           TCF      +1
000238: 10,3665           00006                           EXTEND
000239: 10,3666           45006                           DCS      DPOSMAX
000240: 10,3667           16031                           TCF      SLOAD2
000241:
000242:                                                                                                  #  RTB OP CODE NORMUNIT IS LIKE INTERPRETIVE INSTRUCTION UNIT, EXCEPT THAT IT CAN BE DEPENDED ON NOT TO BLOW
000243:                                                                                                  #  UP WHEN THE VECTOR BEING UNITIZED IS VERY SMALL -- IT WILL BLOW UP WHEN ALL COMPONENTS ARE ZERO.  IF NORMUNIT
000244:                                                                                                  #  IS USED AND THE UPPER ORDER HALVES OF ALL COMPONENTS ARE ZERO, THE MAGNITUDE RETURNED IN 36D WILL BE TOO LARGE
000245:                                                                                                  #  BY A FACTOR OF 2(13) AND THE SQUARED MAGNITUDE RETURNED AT 34D WILL BE TOO BIG BY A FACTOR OF 2(26).
000246:
000247: 10,3670           35026        NORMUNX1           CAF      ONE
000248: 10,3671           13673                           TCF      NORMUNIT   +1
000249: 10,3672           35030        NORMUNIT           CAF      ZERO
000250: 10,3673           60120                           AD       FIXLOC
000251: 10,3674           54156                           TS       MPAC       +2
000252: 10,3675           04655                           TC       BANKCALL                              #  GET SIGN AGREEMENT IN ALL COMPONENTS
000253: 10,3676           01010                           CADR     VECAGREE
000254: 10,3677           10154                           CCS      MPAC
000255: 10,3700           13734                           TCF      NOSHIFT
000256: 10,3701           13703                           TCF      +2
000257: 10,3702           13734                           TCF      NOSHIFT
000258: 10,3703           10157                           CCS      MPAC       +3
000259: 10,3704           13734                           TCF      NOSHIFT
000260: 10,3705           13707                           TCF      +2
000261: 10,3706           13734                           TCF      NOSHIFT
000262: 10,3707           10161                           CCS      MPAC       +5
000263: 10,3710           13734                           TCF      NOSHIFT
000264: 10,3711           13713                           TCF      +2
000265: 10,3712           13734                           TCF      NOSHIFT
000266: 10,3713           30155                           CA       MPAC       +1                         #  SHIFT ALL COMPONENTS LEFT 13
000267: 10,3714           00006                           EXTEND
000268: 10,3715           75011                           MP       BIT14
000269: 10,3716           20155                           DAS      MPAC                                  #  DAS GAINS A LITTLE ACCURACY
000270: 10,3717           30160                           CA       MPAC       +4
000271: 10,3720           00006                           EXTEND
000272: 10,3721           75011                           MP       BIT14
000273: 10,3722           20160                           DAS      MPAC       +3
000274: 10,3723           30162                           CA       MPAC       +6
000275: 10,3724           00006                           EXTEND
000276: 10,3725           75011                           MP       BIT14
000277: 10,3726           20162                           DAS      MPAC       +5
000278: 10,3727           35034                           CAF      THIRTEEN
000279: 10,3730           50156                           INDEX    MPAC       +2
000280: 10,3731           54045                           TS       37D
000281: 10,3732           04674        OFFTUNIT           TC       POSTJUMP
000282: 10,3733           01024                           CADR     UNIT       +1                         #  SKIP THE "TC VECAGREE" DONE AT UNIT
000283:
000284: 10,3734           35030        NOSHIFT            CAF      ZERO
000285: 10,3735           13730                           TCF      OFFTUNIT   -2
000286:
000287:                                                                                                  #  RTB VECSGNAG ... FORCES SIGN AGREEMENT OF VECTOR IN MPAC.
000288:
000289: 10,3736           04655        VECSGNAG           TC       BANKCALL
000290: 10,3737           01010                           CADR     VECAGREE
000291: 10,3740           06035                           TC       DANZIG

End of include-file RTB_OP_CODES.agc.  Parent file is MAIN.agc


