
Source Code


000002:                                                                                                  ## Copyright:   Public domain.
000003:                                                                                                  ## Filename:    S-BAND_ANTENNA_FOR_LM.agc
000004:                                                                                                  ## Purpose:     A section of a reconstructed, mixed version of Sundance
000005:                                                                                                  ##              It is part of the reconstructed source code for the Lunar
000006:                                                                                                  ##              Module's (LM) Apollo Guidance Computer (AGC) for Apollo 9.
000007:                                                                                                  ##              No original listings of this program are available;
000008:                                                                                                  ##              instead, this file was created via disassembly of dumps
000009:                                                                                                  ##              of various revisions of Sundance core rope modules.
000010:                                                                                                  ## Assembler:   yaYUL
000011:                                                                                                  ## Contact:     Ron Burkey <info@sandroid.org>.
000012:                                                                                                  ## Website:     www.ibiblio.org/apollo/index.html
000013:                                                                                                  ## Mod history: 2020-06-17 MAS  Created from Luminary 69.
000014:
000015:                                                                                                  ## Sundance 306
000016:
000017:                                                                                                  #  SUBROUTINE NAME: R05 - S-BAND ANTENNA FOR LM
000018:
000019:                                                                                                  #  MOD0 BY T. JAMES
000020:                                                                                                  #  MOD1 BY P. SHAKIR
000021:
000022:                                                                                                  #  FUNCTIONAL DESCRIPTION
000023:
000024:                                                                                                  #        THE S-BAND ANTENNA ROUTINE, R05, COMPUTES AND DISPLAYS THE PITCH AND
000025:                                                                                                  #  YAW ANTENNA GIMBAL ANGLES REQUIRED TO POINT THE LM STEERABLE ANTENNA
000026:                                                                                                  #  TOWARD THE CENTER OF THE EARTH.  THIS ROUTINE IS SELECTED BY THE ASTRO-
000027:                                                                                                  #  NAUT VIA DSKY ENTRY DURING COASTING FLIGHT OR WHEN THE LM IS ON THE MOON
000028:                                                                                                  #  SURFACE.  THE EARTH OR MOON REFERENCE COORDINATE SYSTEM IS USED DEPENDING
000029:                                                                                                  #  ON WHETHER THE LM IS ABOUT TO ENTER OR HAS ALREADY ENTERED THE MOON
000030:                                                                                                  #  SPHERE OF INFLUENCE, RESPECTIVELY
000031:
000032:                                                                                                  #  TO CALL SUBROUTINE, ASTRONAUT KEYS IN V 64 E
000033:
000034:                                                                                                  #  SUBROUTINES CALLED-
000035:                                                                                                  #        R02BOTH
000036:                                                                                                  #        INTPRET
000037:                                                                                                  #        LOADTIME
000038:                                                                                                  #        LEMCONIC
000039:                                                                                                  #        LUNPOS
000040:                                                                                                  #        CDUTRIG
000041:                                                                                                  #        *SMNB*
000042:                                                                                                  #        BANKCALL
000043:                                                                                                  #        B5OFF
000044:                                                                                                  #        ENDOFJOB
000045:                                                                                                  #        BLANKET
000046:
000047:                                                                                                  #  RETURNS WITH
000048:                                                                                                  #        PITCH ANGLE IN PITCHANG  REV. B0
000049:                                                                                                  #        YAW ANGLE IN YAWANG  REV. B0
000050:
000051:                                                                                                  #  ERASABLES USED
000052:                                                                                                  #        PITCHANG
000053:                                                                                                  #        YAWANG
000054:                                                                                                  #        RLM
000055:                                                                                                  #        VAC AREA
000056:
000057: 41,3724                                           BANK     41
000058: 42,2000                                           SETLOC   SBAND
000059: 42,2000                                           BANK
000060:
000061: 42,3563  E7,1456                                  EBANK=   WHOCARES
000062: 42,3563                                           COUNT*   $$/R05
000063: 42,3563           35022        SBANDANT           CAF      BIT5
000064: 42,3564           27045                           ADS      EXTVBACT
000065: 42,3565           04655                           TC       BANKCALL
000066: 42,3566           11064                           CADR     R02BOTH                               #  CHECK IF IMU IS ON AND ALIGNED
000067: 42,3567           06014                           TC       INTPRET
000068: 42,3570           45034                           RTB      CALL
000069: 42,3571           21454                                    LOADTIME                              #  PICK UP CURRENT TIME
000070: 42,3572           47251                                    CDUTRIG
000071: 42,3573           34041                           STCALL   TDEC1                                 #  ADVANCE INTEGRATION TO TIME IN TDEC1
000072: 42,3574           27051                                    LEMCONIC                              #  USING CONIC INTEGRATION
000073: 42,3575           77775                           VLOAD
000074: 42,3576           00001                                    RATT
000075: 42,3577           02213                           STORE    RLM
000076: 42,3600           77745                           DLOAD
000077: 42,3601           00015                                    TAT
000078: 42,3602           77624        CONV3              CALL
000079: 42,3603           33236                                    LUNPOS                                #  UNIT POSITION VECTOR FROM EARTH TO MOON
000080: 42,3604           57455                           VAD      VCOMP
000081: 42,3605           02213                                    RLM
000082: 42,3606           76521                           MXV      VSL1                                  #  TRANSFORM REF. COORDINATE SYSTEM TO
000083: 42,3607           01736                                    REFSMMAT                              #  STABLE MEMBER B-1 X B-1 X B+1 = B-1
000084: 42,3610           71206                           PUSH     DLOAD                                 #  8D
000085: 42,3611           06233                                    HI6ZEROS
000086: 42,3612           02207                           STORE    PITCHANG
000087: 42,3613           26211                           STOVL    YAWANG                                #  ZERO OUT ANGLES
000088: 42,3614           02213                                    RLM
000089: 42,3615           77624                           CALL
000090: 42,3616           47413                                    *SMNB*
000091: 42,3617           02213                           STORE    RLM                                   #  PRE-MULTIPLY RLM BY (NBSA) MATRIX(B0)
000092: 42,3620           63256                           UNIT     PDVL
000093: 42,3621           02213                                    RLM
000094: 42,3622           72431                           VPROJ    VSL2                                  #  PROJECTION OF R ONTO LM XZ PLANE
000095: 42,3623           06227                                    HIUNITY
000096: 42,3624           40045                           BVSU     BOV                                   #  CLEAR OVERFLOW INDICATOR IF ON
000097: 42,3625           02213                                    RLM
000098: 42,3626           65627                                    COVCNV
000099: 42,3627           40056        COVCNV             UNIT     BOV                                   #  EXIT ON OVERFLOW
000100: 42,3630           65707                                    SBANDEX
000101: 42,3631           47206                           PUSH     VXV                                   #  URP VECTOR B-1
000102: 42,3632           06225                                    HIUNITZ
000103: 42,3633           57572                           VSL1     VCOMP                                 #  UZ X URP = -(URP X UZ)
000104: 42,3634           02213                           STORE    RLM                                   #  X VEC B-1
000105: 42,3635           77646                           ABVAL
000106: 42,3636           26207                           STOVL    PITCHANG
000107: 42,3637           02213                                    RLM
000108: 42,3640           72441                           DOT      SL1                                   #  SGN(X.UY) UNSCALED
000109: 42,3641           06227                                    HIUNITY
000110: 42,3642           16213                           STODL    RLM
000111: 42,3643           02207                                    PITCHANG
000112: 42,3644           67565                           SIGN     ASIN                                  #  ASIN((SGN(X.UY))ABV(X)) REV B0
000113: 42,3645           02213                                    RLM
000114: 42,3646           26207                           STOVL    PITCHANG
000115: 42,3647           00017                                    URP
000116: 42,3650           72441                           DOT      SL1
000117: 42,3651           06225                                    HIUNITZ
000118: 42,3652           71244                           BPL      DLOAD
000119: 42,3653           65660                                    NOADJUST                              #  YES, -90 TO +90
000120: 42,3654           06231                                    HIDPHALF
000121: 42,3655           77625                           DSU
000122: 42,3656           02207                                    PITCHANG
000123: 42,3657           02207                           STORE    PITCHANG
000124: 42,3660           47375        NOADJUST           VLOAD    VXV
000125: 42,3661           00011                                    UR                                    #  Z = (UR X URP)
000126: 42,3662           00017                                    URP
000127: 42,3663           77772                           VSL1
000128: 42,3664           02213                           STORE    RLM                                   #  Z VEC B-1
000129: 42,3665           73545                           DLOAD    SIN
000130: 42,3666           02207                                    PITCHANG
000131: 42,3667           76561                           VXSC     VSL1
000132: 42,3670           06225                                    HIUNITZ
000133: 42,3671           14011                           STODL    UR
000134: 42,3672           02207                                    PITCHANG
000135: 42,3673           74346                           COS      VXSC
000136: 42,3674           06231                                    HIUNITX                               #  (UX COS ALPHA) - (UZ SIN ALPHA)
000137: 42,3675           52372                           VSL1     VSU
000138: 42,3676           00011                                    UR
000139: 42,3677           72441                           DOT      SL1                                   #  YAW.Z
000140: 42,3700           02213                                    RLM
000141: 42,3701           24011                           STOVL    UR
000142: 42,3702           02213                                    RLM
000143: 42,3703           75246                           ABVAL    SIGN
000144: 42,3704           00011                                    UR
000145: 42,3705           77736                           ASIN
000146: 42,3706           02211                           STORE    YAWANG
000147: 42,3707           77776        SBANDEX            EXIT
000148: 42,3710           33725                           CAF      V06N51                                #  DISPLAY ANGLES
000149: 42,3711           04655                           TC       BANKCALL
000150: 42,3712           20245                           CADR     GOMARKFR
000151: 42,3713           05642                           TC       B5OFF                                 #  TERMINATE
000152: 42,3714           05225                           TC       ENDOFJOB                              #  PROCEED
000153: 42,3715           05225                           TC       ENDOFJOB                              #  RECYCLE
000154: 42,3716           35024                           CAF      BIT3                                  #  IMMEDIATE RETURN
000155: 42,3717           05553                           TC       BLANKET                               #  BLANK R3
000156: 42,3720           31045                           CA       EXTVBACT
000157: 42,3721           75022                           MASK     BIT5                                  #  IS BIT5 STILL ON
000158: 42,3722           00006                           EXTEND
000159: 42,3723           15561                           BZF      ENDEXT                                #  NO
000160: 42,3724           03565                           TC       SBANDANT   +2                         #  YES, CONTINUE DISPLAYING ANGLES
000161: 42,3725           01463        V06N51             VN       0651
000162:
000163: 42,3726                        UR                 EQUALS   8D
000164: 42,3726                        URP                EQUALS   14D
000165: 42,3726  30,2000                                  SBANK=   LOWSUPER

End of include-file S-BAND_ANTENNA_FOR_LM.agc.  Parent file is MAIN.agc


