
Source Code


000002:                                                                                                  ## Copyright:   Public domain.
000003:                                                                                                  ## Filename:    SERVICER.agc
000004:                                                                                                  ## Purpose:     A section of a reconstructed, mixed version of Sundance
000005:                                                                                                  ##              It is part of the reconstructed source code for the Lunar
000006:                                                                                                  ##              Module's (LM) Apollo Guidance Computer (AGC) for Apollo 9.
000007:                                                                                                  ##              No original listings of this program are available;
000008:                                                                                                  ##              instead, this file was created via disassembly of dumps
000009:                                                                                                  ##              of various revisions of Sundance core rope modules.
000010:                                                                                                  ## Assembler:   yaYUL
000011:                                                                                                  ## Contact:     Ron Burkey <info@sandroid.org>.
000012:                                                                                                  ## Website:     www.ibiblio.org/apollo/index.html
000013:                                                                                                  ## Mod history: 2020-06-17 MAS  Created from Luminary 69.
000014:
000015:                                                                                                  ## Sundance 292
000016:
000017: 33,2000                                           BANK     33
000018: 33,2000                                           SETLOC   SERVICES
000019: 33,2000                                           BANK
000020:
000021: 33,2000  E7,1472                                  EBANK=   DVCNTR
000022:                                                                                                  #  *************************************   PREREAD   **************************************************************
000023:
000024:
000025: 33,2000                                           COUNT*   $$/SERV
000026:
000027: 33,2000           35032        PREREAD            CAF      SEVEN                                 #  5.7 SPOT TO SKIP LASTBIAS AFTER
000028: 33,2001           05501                           TC       NEWPHASE                              #  RESTART.
000029: 33,2002           00005                           OCT      5
000030: 33,2003           35101                           CAF      PRIO21
000031: 33,2004           05142                           TC       NOVAC
000032: 33,2005  E3,1460                                  EBANK=   NBDX
000033: 33,2005           03661 14063                     2CADR    LASTBIAS                              #  DO LAST GYRO COMPENSATION IN FREE FALL
000034:
000035: 33,2007           02430        BIBIBIAS           TC       PIPASR     +3                         #  CLEAR + READ PIPS LAST TIME IN FRE5+F133
000036:                                                                                                  #  DO NOT DESTROY VALUE OF PIPTIME1
000037:
000038: 33,2010           05563                           TC       UPFLAG
000039: 33,2011           00162                           ADRES    V37FLAG                               #  SET V37FLAG AND AVEGFLAG (BITS 5 AND 6
000040: 33,2012           05563                           TC       UPFLAG                                #     OF FLAGWRD7)
000041: 33,2013           00163                           ADRES    AVEGFLAG
000042:
000043: 33,2014           05575                           TC       DOWNFLAG                              #  RESET DRIFTFLAG
000044: 33,2015           00036                           ADRES    DRIFTFLG
000045:
000046: 33,2016           35024                           CAF      FOUR                                  #  INITIALIZE DV MONITOR
000047: 33,2017           55472                           TS       DVCNTR
000048: 33,2020           55261                           TS       PIPAGE
000049: 33,2021           55260                           TS       STOPDVC
000050:
000051: 33,2022           35010                           CAF      LRBYBIT
000052: 33,2023           55263                           TS       LRSTAT
000053:
000054: 33,2024           32354                           CAF      ENDJBCAD                              #  POINT OUTROUTE TO END-OF-JOB.
000055: 33,2025           55262                           TS       OUTROUTE
000056:
000057: 33,2026           37662                           CAF      PRIO22
000058: 33,2027           05155                           TC       FINDVAC                               #  TO FIRST ENTRY TO AVERAGE G.
000059: 33,2030  E7,1472                                  EBANK=   DVCNTR
000060: 33,2030           02355 66067                     2CADR    NORMLIZE
000061:
000062: 33,2032           35050                           CAF      2SECS                                 #  WAIT TWO SECONDS FOR READACCS
000063: 33,2033           05252                           TC       WAITLIST
000064: 33,2034  E7,1472                                  EBANK=   DVCNTR
000065: 33,2034           02042 66067                     2CADR    READACCS
000066:
000067: 33,2036           45025                           CS       TWO                                   #  5.2SPOT FOR REREADAC AND NORMLIZE
000068: 33,2037           05501                           TC       NEWPHASE
000069: 33,2040           00005                           OCT      5
000070:
000071: 33,2041           15321                           TCF      TASKOVER
000072:
000073:                                                                                                  #  *************************************   READACCS   *************************************************************
000074: 33,2042           40102        READACCS           CS       FLAGWRD6
000075: 33,2043           75017                           MASK     MUNFLBIT
000076: 33,2044           10000                           CCS      A
000077: 33,2045           12061                           TCF      PIPSDONE   -1
000078:
000079: 33,2046           40103                           CS       FLAGWRD7
000080: 33,2047           75014                           MASK     SWANDBIT
000081: 33,2050           10000                           CCS      A
000082: 33,2051           12057                           TCF      SWANDOFF
000083:
000084: 33,2052           35743                           CAF      TWELVE
000085: 33,2053           05252                           TC       WAITLIST
000086: 33,2054  E7,1523                                  EBANK=   UNIT/R/
000087: 33,2054           02102 42067                     2CADR    LANDISP
000088:
000089: 33,2056           12061                           TCF      PIPSDONE   -1
000090:
000091: 33,2057           04737        SWANDOFF           TC       IBNKCALL
000092: 33,2060           43027                           CADR     DISPRSET
000093:
000094: 33,2061           02425                           TC       PIPASR                                #  READ THE PIPAS.
000095:
000096: 33,2062           35031        PIPSDONE           CA       FIVE
000097: 33,2063           05501                           TC       NEWPHASE
000098: 33,2064           00005                           OCT      5
000099: 33,2065           35026        REDO5.5            CAF      ONE
000100: 33,2066           55261                           TS       PIPAGE
000101:
000102: 33,2067           35032                           CAF      SEVEN                                 #  SET PIPCTR FOR 4X/SEC RATE.
000103: 33,2070           55257                           TS       PIPCTR
000104:
000105: 33,2071           40103                           CS       FLAGWRD7
000106: 33,2072           75022                           MASK     AVEGFBIT
000107: 33,2073           10000                           CCS      A
000108: 33,2074           02121                           TC       AVEGOUT                               #  AVEGFLAG DOWN - SET UP FINAL EXIT
000109:
000110: 33,2075           35050        MAKEACCS           CAF      2SECS
000111: 33,2076           05243                           TC       TWIDDLE
000112: 33,2077           02042                           ADRES    READACCS
000113:
000114: 33,2100           41263                           CS       LRSTAT
000115: 33,2101           75010                           MASK     LRBYBIT
000116: 33,2102           00006                           EXTEND
000117: 33,2103           12107                           BZF      STRTSERV
000118:
000119: 33,2104           33215                           CAF      1.95SECS
000120: 33,2105           05243                           TC       TWIDDLE
000121: 33,2106           02542                           ADRES    LRHTASK
000122:
000123: 33,2107           35011        STRTSERV           CA       PRIO20
000124: 33,2110           05155                           TC       FINDVAC
000125: 33,2111  E7,1472                                  EBANK=   DVCNTR
000126: 33,2111           02127 66067                     2CADR    SERVICER                              #  SET UP SERVICER JOB
000127:
000128: 33,2113           05413                           TC       PHASCHNG
000129: 33,2114           40045                           OCT      40045
000130:
000131: 33,2115           35016                           CA       BIT9
000132: 33,2116           00006                           EXTEND
000133: 33,2117           05011                           WOR      DSALMOUT                              #  TURN ON TEST CONNECTOR OUTBIT
000134:
000135: 33,2120           15321                           TCF      TASKOVER
000136:
000137: 33,2121           00006        AVEGOUT            EXTEND
000138: 33,2122           32126                           DCA      AVOUTCAD                              #  SET UP FINAL SERVICER EXIT
000139: 33,2123           53253                           DXCH     AVGEXIT
000140:
000141: 33,2124           12107                           TCF      STRTSERV                              #  END TASK WITHOUT CALLING READACCS
000142:
000143:
000144: 33,2125  E7,1472                                  EBANK=   DVCNTR
000145: 33,2125           02307 66067  AVOUTCAD           2CADR    AVGEND
000146:
000147:                                                                                                  #  *************************************   SERVICER   *************************************************************
000148:
000149: 33,2127           05413        SERVICER           TC       PHASCHNG                              #  RESTART REREADAC + SERVICER
000150: 33,2130           16035                           OCT      16035
000151: 33,2131           20000                           OCT      20000
000152: 33,2132  E7,1472                                  EBANK=   DVCNTR
000153: 33,2132           02140 66067                     2CADR    GETABVAL
000154:
000155: 33,2134           37670                           CAF      PRIO31                                #  INITIALIZE 1/PIPADT IN CASE RESTART HAS
000156: 33,2135           55075                           TS       1/PIPADT                              #  CAUSED LASTBIAS TO BE SKIPPED.
000157:
000158:
000159: 33,2136           04655                           TC       BANKCALL                              #  PIPA COMPENSATION CALL
000160: 33,2137           15277                           CADR     1/PIPA
000161:
000162: 33,2140           06014        GETABVAL           TC       INTPRET
000163: 33,2141           51575                           VLOAD    ABVAL
000164: 33,2142           01212                                    DELV
000165: 33,2143           01246                           STORE    ABDELV                                #  ABDELV = CM/SEC*2(-14).
000166: 33,2144           77605                           DMP
000167: 33,2145           27114                                    KPIP
000168: 33,2146           03471                           STORE    ABDVCONV                              #  ABDVCONV = M/CS * 2(-5).
000169: 33,2147           76014        MASSMON            BON      AXT,1                                 #  ARE WE ON THE SURFACE?
000170: 33,2150           04307                                    SURFFLAG
000171: 33,2151           66171                                    MOONSPOT                              #  YES:  BYPASS MASS MESS
000172: 33,2152           00000                                    0
000173: 33,2153           43071                           DDV      BON                                   #  NO:   WHICH VEX SHOULD BE USED?
000174: 33,2154           27140                                    1SEC(7)
000175: 33,2155           00703                                    APSFLAG
000176: 33,2156           66161                                    +3
000177: 33,2157           77770                           AXT,1
000178: 33,2160           00002                                    2
000179: 33,2161           15250                           STODL    /AF/                                  #  /AF/ = MAGNITUDE DV/DT
000180: 33,2162           03471                                    ABDVCONV
000181: 33,2163           55702                           VSR4     DDV*
000182: 33,2164           27144                                    APSVEX1
000183: 33,2165           43205                           DMP      DAD
000184: 33,2166           01244                                    MASS
000185: 33,2167           01244                                    MASS
000186: 33,2170           03556                           STORE    MASS1
000187:
000188: 33,2171           50545        MOONSPOT           DLOAD    VSR6
000189: 33,2172           03471                                    ABDVCONV
000190: 33,2173           77615                           DAD
000191: 33,2174           03467                                    DVTOTAL
000192: 33,2175           03467                           STORE    DVTOTAL                               #  UPDATE DVTOTAL FOR DISPLAY
000193:
000194: 33,2176           45034                           RTB      CALL
000195: 33,2177           66533                                    TMPTOSPT
000196: 33,2200           47255                                    CD*TR*G
000197: 33,2201           45160                           AXC,1    CALL
000198: 33,2202           02147                                    XNBPIP
000199: 33,2203           30671                                    XNBNDX
000200:
000201: 33,2204           45014        AVERAGEG           BON      CALL
000202: 33,2205           03307                                    MUNFLAG
000203: 33,2206           67145                                    MUNRVG
000204: 33,2207           67057                                    CALCRVG
000205: 33,2210           77776                           EXIT
000206:
000207: 33,2211           05413        GOSERV             TC       PHASCHNG
000208: 33,2212           10035                           OCT      10035
000209:
000210: 33,2213           02416        COPYCYCL           TC       COPYCYC
000211:
000212: 33,2214           05575                           TC       DOWNFLAG                              #  CLEAR STEERSW PRIOR TO DVMON.
000213: 33,2215           00042                           ADRES    STEERSW
000214:
000215: 33,2216           35020                           CAF      IDLEFBIT                              #  IS THE IDLE FLAG SET?
000216: 33,2217           70103                           MASK     FLAGWRD7
000217: 33,2220           10000                           CCS      A
000218: 33,2221           12266                           TCF      USEJETS                               #  IDLEFLAG = 1, HENCE SET AUXFLAG TO 0.
000219:
000220: 33,2222           00004        DVMON              INHINT
000221: 33,2223           41201                           CS       DVTHRUSH
000222: 33,2224           61245                           AD       ABDELV
000223: 33,2225           00006                           EXTEND
000224: 33,2226           62257                           BZMF     LOTHRUST
000225:
000226: 33,2227           04737                           TC       IBNKCALL
000227: 33,2230           74643                           CADR     NOULLAGE
000228:
000229: 33,2231           40076                           CS       FLAGWRD2                              #  SET STEERSW.
000230: 33,2232           75014                           MASK     STEERBIT
000231: 33,2233           26076                           ADS      FLAGWRD2
000232:
000233: 33,2234           31260        DVCNTSET           CA       STOPDVC                               #  UPDATE MAXIMUM NOW THAT
000234: 33,2235           55472                           TS       DVCNTR                                #  THRUXT HAS BEEN DETECTED.
000235:
000236: 33,2236           30075                           CA       FLAGWRD1
000237: 33,2237           75023                           MASK     GIMBFBIT
000238: 33,2240           00006                           EXTEND
000239: 33,2241           12266                           BZF      USEJETS
000240:
000241: 33,2242           30075                           CA       FLAGWRD1                              #  BRANCH IF APSFLAG IS SET.
000242: 33,2243           75013                           MASK     APSFLBIT
000243: 33,2244           10000                           CCS      A
000244: 33,2245           12266                           TCF      USEJETS
000245:
000246: 33,2246           35016                           CA       BIT9                                  #  CHECK GIMBAL FAIL BIT
000247: 33,2247           00006                           EXTEND
000248: 33,2250           02032                           RAND     CHAN32
000249: 33,2251           00006                           EXTEND
000250: 33,2252           12266                           BZF      USEJETS
000251:
000252: 33,2253           45011        USEGTS             CS       USEQRJTS
000253: 33,2254           71102                           MASK     DAPBOOLS
000254: 33,2255           55102                           TS       DAPBOOLS
000255: 33,2256           12272                           TCF      SERVOUT
000256:
000257: 33,2257           11472        LOTHRUST           CCS      DVCNTR
000258: 33,2260           12265                           TCF      DECCNTR
000259:
000260: 33,2261           05413                           TC       PHASCHNG
000261: 33,2262           10035                           OCT      10035
000262:
000263: 33,2263           04674                           TC       POSTJUMP
000264: 33,2264           74606                           CADR     COMFAIL
000265:
000266: 33,2265           55472        DECCNTR            TS       DVCNTR
000267:
000268: 33,2266           00004        USEJETS            INHINT
000269: 33,2267           41102                           CS       DAPBOOLS
000270: 33,2270           75011                           MASK     USEQRJTS
000271: 33,2271           27102                           ADS      DAPBOOLS
000272: 33,2272           00003        SERVOUT            RELINT
000273: 33,2273           04655                           TC       BANKCALL
000274: 33,2274           40315                           CADR     1/ACCS
000275:
000276: 33,2275           30167                           CA       PRIORITY
000277: 33,2276           75054                           MASK     LOW9
000278: 33,2277           54166                           TS       PUSHLOC
000279: 33,2300           22007                           ZL
000280: 33,2301           52121                           DXCH     FIXLOC                                #  FIXLOC AND OVFIND
000281:
000282: 33,2302           05413                           TC       PHASCHNG
000283: 33,2303           10035                           OCT      10035
000284: 33,2304           00006                           EXTEND                                         #  EXIT TO SELECTED ROUTINE WHETHER THERE
000285: 33,2305           31253                           DCA      AVGEXIT                               #  IS THRUST OR NOT.  THE STATE OF STEERSW
000286: 33,2306           52006                           DXCH     Z                                     #  WILL CONVEY THIS INFORMATION.
000287:
000288: 33,2307           31234        AVGEND             CA       PIPTIME    +1                         #  FINAL AVERAGE G EXIT
000289: 33,2310           55075                           TS       1/PIPADT                              #  SET UP FREE FALL GYRO COMPENSATION.
000290:
000291: 33,2311           05563                           TC       UPFLAG                                #  SET DRIFT FLAG.
000292: 33,2312           00036                           ADRES    DRIFTFLG
000293:
000294: 33,2313           04655                           TC       BANKCALL
000295: 33,2314           17221                           CADR     PIPFREE
000296:
000297: 33,2315           45016                           CS       BIT9
000298: 33,2316           00006                           EXTEND
000299: 33,2317           03011                           WAND     DSALMOUT
000300:
000301: 33,2320           05373                           TC       2PHSCHNG
000302:
000303: 33,2321           00005                           OCT      5                                     #  GROUP 5 OFF
000304: 33,2322           05022                           OCT      05022                                 #  GROUP 2 ON
000305: 33,2323           20000                           OCT      20000
000306:
000307: 33,2324           06014                           TC       INTPRET
000308: 33,2325           77624                           CALL
000309: 33,2326           27466                                    AVETOMID
000310: 33,2327           43014                           BON      BOFF
000311: 33,2330           00310                                    RNDVZFLG
000312: 33,2331           66345                                    AVG2.7
000313: 33,2332           00346                                    P25FLAG
000314: 33,2333           66341                                    GRP2OFF
000315: 33,2334           77776                           EXIT
000316:
000317: 33,2335           05413                           TC       PHASCHNG
000318: 33,2336           40112                           OCT      40112
000319:
000320: 33,2337           31262        AVERTRN            CA       OUTROUTE                              #  RETURN TO DESIRED POINT.
000321: 33,2340           04677                           TC       BANKJUMP
000322:
000323: 33,2341           77776        GRP2OFF            EXIT
000324: 33,2342           05413                           TC       PHASCHNG
000325: 33,2343           00002                           OCT      00002
000326: 33,2344           12337                           TCF      AVERTRN
000327:
000328: 33,2345           77776        AVG2.7             EXIT
000329: 33,2346           05413                           TC       PHASCHNG
000330: 33,2347           40072                           OCT      40072
000331: 33,2350           12337                           TCF      AVERTRN
000332:
000333: 33,2351  33,2337               OUTGOAVE           =        AVERTRN
000334:
000335: 33,2351  E7,1555               DVCNTR1            =        MASS1
000336:
000337: 33,2351           05413        SERVEXIT           TC       PHASCHNG
000338: 33,2352           00035                           OCT      00035
000339:
000340: 33,2353           15225                 +2        TCF      ENDOFJOB
000341:
000342: 33,2354           66353        ENDJBCAD           CADR     SERVEXIT   +2
000343:
000344:                                                                                                  #  NORMLIZE AND COPYCYCL
000345:
000346: 33,2355           06014        NORMLIZE           TC       INTPRET
000347: 33,2356           77745                           DLOAD
000348: 33,2357           01244                                    MASS
000349: 33,2360           27556                           STOVL    MASS1
000350: 33,2361           06231                                    UNITX
000351: 33,2362           03461                           STORE    UASTEER
000352: 33,2363           77214                           BOFF     VLOAD
000353: 33,2364           03347                                    MUNFLAG
000354: 33,2365           66410                                    NORMLIZ1
000355: 33,2366           03540                                    VN1
000356: 33,2367           76521                           MXV      VSL1
000357: 33,2370           01736                                    REFSMMAT
000358: 33,2371           27504                           STOVL    V
000359: 33,2372           03532                                    RN1
000360: 33,2373           52521                           MXV      VSL6
000361: 33,2374           01736                                    REFSMMAT
000362: 33,2375           37476                           STCALL   R
000363: 33,2376           67200                                    MUNGRAV
000364: 33,2377           77214                           BON      VLOAD
000365: 33,2400           04702                                    FLP70
000366: 33,2401           66406                                    ASCSPOT
000367: 33,2402           03504                                    V
000368: 33,2403           53435                           VXV      UNIT
000369: 33,2404           03476                                    R
000370: 33,2405           03707                           STORE    UHYP
000371: 33,2406           77776        ASCSPOT            EXIT
000372: 33,2407           12414                           TCF      NORMLIZ2
000373:
000374: 33,2410           45175        NORMLIZ1           VLOAD    CALL
000375: 33,2411           03532                                    RN1
000376: 33,2412           67010                                    CALCGRAV
000377: 33,2413           77776                           EXIT
000378:
000379: 33,2414           02416        NORMLIZ2           TC       COPYCYC
000380: 33,2415           05225                           TC       ENDOFJOB
000381:
000382:
000383: 33,2416           00006        COPYCYC            EXTEND
000384: 33,2417           22157                           QXCH     COPEXIT
000385: 33,2420           34374                           CAF      OCT25
000386: 33,2421           05623                           TC       GENTRAN
000387: 33,2422           01531                           ADRES    RN1
000388: 33,2423           01217                           ADRES    RN
000389: 33,2424           00157                           TC       COPEXIT
000390:
000391: 33,2425     0157               COPEXIT            =        MPAC       +3
000392:
000393:                                                                                                  #  ******************* PIPA READER ********************
000394:
000395:                                                                                                  #                  MOD NO. 00  BY D. LICKLY  DEC.9 1966
000396:
000397:
000398:                                                                                                  #  FUNCTIONAL DESCRIPTION
000399:
000400:                                                                                                  #     SUBROUTINE TO READ PIPA COUNTERS, TRYING TO BE VERY CAREFUL SO THAT IT WILL BE RESTARTABLE.
000401:                                                                                                  #     PIPA READINGS ARE STORED IN THE VECTOR DELV. THE HIGH ORDER PART OF EACH COMPONENT CONTAINS THE PIPA READING,
000402:                                                                                                  #     RESTARTS BEGIN AT REREADAC.
000403:
000404:
000405:                                                                                                  #     AT THE END OF THE PIPA READER THE CDUS ARE READ AND STORED AS A
000406:                                                                                                  #  VECTOR IN CDUTEMP.  THE HIGH ORDER PART OF EACH COMPONENT CONTAINS
000407:                                                                                                  #  THE CDU READING IN 2S COMP IN THE ORDER CDUX,Y,Z.  THE THRUST
000408:                                                                                                  #  VECTOR ESTIMATOR IN FINDCDUD REQUIRES THE CDUS BE READ AT PIPTIME.
000409:
000410:                                                                                                  #  CALLING SEQUENCE AND EXIT
000411:
000412:                                                                                                  #     CALL VIA TC, ISWCALL, ETC.
000413:
000414:                                                                                                  #     EXIT IS VIA Q.
000415:
000416:
000417:
000418:
000419:                                                                                                  #  INPUT
000420:
000421:                                                                                                  #     INPUT IS THROUGH THE COUNTERS PIPAX, PIPAY, PIPAZ, AND TIME2.
000422:
000423:
000424:                                                                                                  #  OUTPUT
000425:
000426:                                                                                                  #     HIGH ORDER COMPONENTS OF THE VECTOR DELV CONTAIN THE PIPA READINGS.
000427:                                                                                                  #     PIPTIME CONTAINS TIME OF PIPA READING.
000428:
000429:
000430:                                                                                                  #  DEBRIS (ERASABLE LOCATIONS DESTROYED BY PROGRAM)
000431:
000432:                                                                                                  #           TEMX   TEMY   TEMZ   PIPAGE
000433:
000434: 33,2425           00006        PIPASR             EXTEND
000435:
000436: 33,2426           30025                           DCA      TIME2
000437: 33,2427           53546                           DXCH     PIPTIME1                              #  CURRENT TIME POSITIVE VALUE
000438: 33,2430           45030                 +3        CS       ZERO                                  #  INITIALIZE THESE AT NEG. ZERO.
000439: 33,2431           55254                           TS       TEMX
000440: 33,2432           55255                           TS       TEMY
000441: 33,2433           55256                           TS       TEMZ
000442:
000443: 33,2434           35030                           CA       ZERO
000444: 33,2435           55215                           TS       DELVZ                                 #  OTHER DELVS OK INCLUDING LOW ORDER
000445: 33,2436           55213                           TS       DELVY
000446: 33,2437           55261                           TS       PIPAGE                                #  SHOW PIPA READING IN PROGRESS
000447:
000448: 33,2440           00006        REPIP1             EXTEND
000449: 33,2441           40040                           DCS      PIPAX                                 #  X AND Y PIPS READ
000450: 33,2442           53255                           DXCH     TEMX
000451: 33,2443           52040                           DXCH     PIPAX                                 #  PIPAS SET TO NEG ZERO AS READ.
000452: 33,2444           55211                           TS       DELVX
000453: 33,2445           23213                           LXCH     DELVY
000454:
000455: 33,2446           40041        REPIP3             CS       PIPAZ                                 #  REPEAT PROCESS FOR Z PIP
000456: 33,2447           57256                           XCH      TEMZ
000457: 33,2450           56041                           XCH      PIPAZ
000458: 33,2451           55215        DODELVZ            TS       DELVZ
000459:
000460: 33,2452           30032        REPIP4             CA       CDUX                                  #  READ CDUS INTO HIGH ORDER CDUTEMPS
000461: 33,2453           55167                           TS       CDUTEMPX
000462: 33,2454           30033                           CA       CDUY
000463: 33,2455           55170                           TS       CDUTEMPY
000464: 33,2456           30034                           CA       CDUZ
000465: 33,2457           55171                           TS       CDUTEMPZ
000466: 33,2460           31211                           CA       DELVX
000467: 33,2461           55172                           TS       PIPATMPX
000468: 33,2462           31213                           CA       DELVY
000469: 33,2463           55173                           TS       PIPATMPY
000470: 33,2464           31215                           CA       DELVZ
000471: 33,2465           55174                           TS       PIPATMPZ
000472:
000473: 33,2466           00002                           TC       Q
000474:
000475:
000476: 33,2467           10763        REREADAC           CCS      PHASE5
000477: 33,2470           12472                           TCF      +2
000478: 33,2471           15321                           TCF      TASKOVER
000479:
000480: 33,2472           11261                           CCS      PIPAGE
000481: 33,2473           12042                           TCF      READACCS                              #  PIP READING NOT STARTED. GO TO BEGINNING
000482:
000483:
000484: 33,2474           32532                           CAF      DONEADR                               #  SET UP RETURN FROM PIPASR
000485: 33,2475           54002                           TS       Q
000486:
000487: 33,2476           11215                           CCS      DELVZ
000488: 33,2477           12452                           TCF      REPIP4                                #  Z DONE, GO DO CDUS
000489: 33,2500           12503                           TCF      +3                                    #  Z NOT DONE, CHECK Y.
000490: 33,2501           12452                           TCF      REPIP4
000491: 33,2502           12452                           TCF      REPIP4
000492:
000493: 33,2503           22007                           ZL
000494: 33,2504           11213                           CCS      DELVY
000495: 33,2505           12510                           TCF      +3
000496: 33,2506           12517                           TCF      CHKTEMX                               #  Y NOT DONE, CHECK X.
000497: 33,2507           12510                           TCF      +1
000498: 33,2510           22041                           LXCH     PIPAZ                                 #  Y DONE, ZERO Z PIP.
000499:
000500: 33,2511           11256                           CCS      TEMZ
000501: 33,2512           41256                           CS       TEMZ                                  #  TEMZ NOT = -0, CONTAINS -PIPAZ VALUE.
000502: 33,2513           12451                           TCF      DODELVZ
000503: 33,2514           12512                           TCF      -2
000504: 33,2515           23215                           LXCH     DELVZ                                 #  TEMZ = -0, L HAS ZPIP VALUE.
000505: 33,2516           12452                           TCF      REPIP4
000506:
000507: 33,2517           11254        CHKTEMX            CCS      TEMX                                  #  HAS THIS CHANGED
000508: 33,2520           41254                           CS       TEMX                                  #  YES
000509: 33,2521           12524                           TCF      +3                                    #  YES
000510: 33,2522           12520                           TCF      -2                                    #  YES
000511: 33,2523           12440                           TCF      REPIP1                                #  NO
000512: 33,2524           55211                           TS       DELVX
000513:
000514: 33,2525           41255                           CS       TEMY
000515: 33,2526           55213                           TS       DELVY
000516:
000517: 33,2527           45030                           CS       ZERO                                  #  ZERO X AND Y PIPS
000518: 33,2530           52040                           DXCH     PIPAX                                 #  L STILL ZERO FROM ABOVE
000519:
000520: 33,2531           12446                           TCF      REPIP3
000521:
000522: 33,2532           02062        DONEADR            GENADR   PIPSDONE
000523:
000524: 33,2533           31170        TMPTOSPT           CA       CDUTEMPY                              #  THIS SUBROUTINE, CALLED BY AN RTB FROM
000525: 33,2534           54766                           TS       CDUSPOTY                              #  INTERPRETIVE, LOADS THE CDUS CORRESPON-
000526: 33,2535           31171                           CA       CDUTEMPZ                              #  DING TO PIPTIME INTO THE CDUSPOT VECTOR.
000527: 33,2536           54770                           TS       CDUSPOTZ
000528: 33,2537           31167                           CA       CDUTEMPX
000529: 33,2540           54772                           TS       CDUSPOTX
000530: 33,2541           16035                           TCF      DANZIG
000531:
000532:                                                                                                  #  LRHTASK IS A WAITLIST TASK SET BY READACCS DURING THE DESCENT BRAKING
000533:                                                                                                  #  PHASE WHEN THE ALT TO THE LUNAR SURFACE IS LESS THAN 25,000 FT.  THIS
000534:                                                                                                  #  TASK CLEARS THE ALTITUDE MEASUREMENT MADE DISCRETE AND INITIATES THE
000535:                                                                                                  #  LANDING RADAR MEASUREMENT JOB (LRHJOB) TO TAKE A ALTITUDE MEASUREMENT
000536:                                                                                                  #  50 MS PRIOR TO THE NEXT READACCS TASK.
000537:
000538: 33,2542           35021        LRHTASK            CA       READLBIT
000539: 33,2543           71263                           MASK     LRSTAT                                #  IS READLR FLAG SET?
000540: 33,2544           00006                           EXTEND
000541: 33,2545           15321                           BZF      TASKOVER                              #  NO.  BYPASS LR READ.
000542:
000543: 33,2546           41263                           CS       LRSTAT
000544: 33,2547           75015                           MASK     NOLRRBIT                              #  IS LR READ INHIBITED?
000545: 33,2550           00006                           EXTEND
000546: 33,2551           15321                           BZF      TASKOVER                              #  YES.  BYPASS LR READ.
000547:
000548: 33,2552           37672                           CA       PRIO32                                #  LR READ OK   SET JOB TO DO IT
000549: 33,2553           05142                           TC       NOVAC                                 #  ABOUT 50 MS PRIOR TO PIPA READ
000550: 33,2554  E7,1672                                  EBANK=   HMEAS
000551: 33,2554           03621 66067                     2CADR    LRHJOB
000552:
000553: 33,2556           05321                           TC       TASKOVER
000554:
000555:
000556:                                                                                                  #  HIGATASK IS ENTERED APPROXIMATELY 6 SECS PRIOR TO HIGATE DURING THE
000557:                                                                                                  #  DESCENT PHASE.  HIGATASK SETS THE HIGATE FLAG (BIT11) AND THE LR INHIBIT
000558:                                                                                                  #  FLAG (BIT10) IN LRSTAT.  THE HIGATJOB IS SET UP TO REPOSITION THE LR
000559:                                                                                                  #  ANTENNA FROM POSITION 1 TO POSITION 2.  IF THE REPOSITIONING IS
000560:                                                                                                  #  SUCCESSFUL THE ALT BEAM AND VELOCITY BEAMS ARE TRANSFORMED TO THE NEW
000561:                                                                                                  #  ORIENTATION IN NB COORDINATES AND STORED IN ERASABLE.
000562:
000563: 33,2557           00004        HIGATASK           INHINT
000564: 33,2560           45065                           CS       PRIO3                                 #  SET HIGATE AND LR INHIBIT FLAGS
000565: 33,2561           71263                           MASK     LRSTAT
000566: 33,2562           65065                           AD       PRIO3
000567: 33,2563           55263                           TS       LRSTAT
000568: 33,2564           37672                           CAF      PRIO32
000569: 33,2565           05155                           TC       FINDVAC                               #  SET LR POSITIONING JOB (POS2)
000570: 33,2566  E7,1672                                  EBANK=   HMEAS
000571: 33,2566           03653 66067                     2CADR    HIGATJOB
000572: 33,2570           00003                           RELINT
000573: 33,2571           12641                           TCF      CONTSERV                              #  CONTINUE SERVICER
000574:
000575:                                                                                                  #    MUNRETRN IS THE RETURN LOC FROM SPECIAL AVE G ROUTINE (MUNRVG)
000576:
000577: 33,2572           77776        MUNRETRN           EXIT
000578:
000579: 33,2573           35016                           CAF      XORFLBIT                              #  WERE WE BELOW 30000 FT LAST PASS?
000580: 33,2574           71263                           MASK     LRSTAT
000581: 33,2575           00006                           EXTEND
000582: 33,2576           12761                           BZF      XORCHK                                #  NO - TEST THIS PASS
000583:
000584: 33,2577           41263                           CS       LRSTAT
000585: 33,2600           75010                           MASK     LRBYBIT
000586: 33,2601           00006                           EXTEND
000587: 33,2602           12645                           BZF      COPYCYC1                              #  BYPASS LR LOGIC IF BIT15 IS SET.
000588:
000589: 33,2603           35021                           CA       READLBIT                              #  SEE IF ALT < 35000 FT LAST CYCLE
000590: 33,2604           71263                           MASK     LRSTAT
000591: 33,2605           00006                           EXTEND
000592: 33,2606           12772                           BZF      25KCHK                                #  ALT WAS > 35000 FT LAST CYCLE   CHK NOW
000593:
000594: 33,2607           35014        HITEST             CAF      PSTHIBIT                              #  CHECK FOR HIGATE
000595: 33,2610           71263                           MASK     LRSTAT
000596: 33,2611           00006                           EXTEND
000597: 33,2612           12626                           BZF      HIGATCHK                              #  NOT AT HIGATE LAST CYCLE-CHK THIS CYCLE
000598:
000599: 33,2613           35020        POS2CHK            CAF      BIT7                                  #  VERIFY LR IN POS2
000600: 33,2614           00006                           EXTEND
000601: 33,2615           02033                           RAND     CHAN33
000602: 33,2616           00006                           EXTEND
000603: 33,2617           13256                           BZF      UPDATCHK                              #  IT IS-CHECK FOR LR UPDATE
000604: 33,2620           35012                           CAF      BIT13                                 #  NOT IN POS2-MAYBE REPOSITIONING
000605: 33,2621           00006                           EXTEND
000606: 33,2622           02012                           RAND     CHAN12
000607: 33,2623           00006                           EXTEND
000608: 33,2624           12637                           BZF      LRPOSALM                              #  LR NOT IN POS2 OR REPOSITIONING-BAD
000609: 33,2625           12641                           TCF      CONTSERV                              #  LR BEING REPOSITIONED-CONTINUE SERV
000610:
000611: 33,2626           41635        HIGATCHK           CS       TTF/8                                 #  IS TTF > CRITERION?
000612: 33,2627           63216                           AD       RPCRTIME
000613:
000614: 33,2630           00006                           EXTEND
000615: 33,2631           62557                           BZMF     HIGATASK                              #  IF UXBXP > QSW, THEN REPOSITION
000616:
000617: 33,2632           35021        POS1CHK            CAF      BIT6                                  #  HIGATE NOT IN SIGHT-DO POS1 CHK
000618: 33,2633           00006                           EXTEND
000619: 33,2634           02033                           RAND     33
000620: 33,2635           00006                           EXTEND
000621: 33,2636           13256                           BZF      UPDATCHK                              #  LR IN POS1-CHECK FOR LR UPDATE
000622:
000623: 33,2637           05646        LRPOSALM           TC       ALARM                                 #  LR NOT IN PROPER POS-ALARM-BYPASS UPDATE
000624: 33,2640           00511                           OCT      511                                   #  AND CONTINUE SERVICER
000625: 33,2641           00004        CONTSERV           INHINT
000626: 33,2642           43255                           CS       BITS4-7
000627: 33,2643           71263                           MASK     LRSTAT                                #  CLEAR LR MEASUREMENT MADE DISCRETES.
000628: 33,2644           55263                           TS       LRSTAT
000629:
000630: 33,2645           05413        COPYCYC1           TC       PHASCHNG
000631: 33,2646           10035                           OCT      10035
000632:
000633: 33,2647           06014                           TC       INTPRET                               #  INTPRET DOES A RELINT.
000634: 33,2650           61375                           VLOAD    VXM
000635: 33,2651           03566                                    V1S
000636: 33,2652           01736                                    REFSMMAT
000637: 33,2653           77772                           VSL1
000638: 33,2654           03540                           STORE    VN1                                   #  TEMP. REF. VELOCITY VECTOR*2(7)M/CS.
000639: 33,2655           77646                           ABVAL
000640: 33,2656           27516                           STOVL    ABVEL
000641: 33,2657           03560                                    R1S
000642: 33,2660           60505                           VXM      VSR4
000643: 33,2661           01736                                    REFSMMAT
000644: 33,2662           03532                           STORE    RN1                                   #  TEMP. REF. POSITION VECTOR*2(29)M.
000645: 33,2663           77656                           UNIT
000646: 33,2664           01760                           STORE    UNITR
000647: 33,2665           47014                           BOFF     RTB
000648: 33,2666           04742                                    FLP70
000649: 33,2667           66671                                    +2
000650: 33,2670           66726                                    COPYCYC3
000651: 33,2671           53575                           VLOAD    UNIT
000652: 33,2672           03560                                    R1S
000653: 33,2673           76435                           VXV      VSL1
000654: 33,2674           03707                                    UHYP
000655: 33,2675           27715                           STOVL    UHZP                                  #  DOWNRANGE HALF-UNIT VECTOR FOR R10.
000656: 33,2676           03622                                    WM
000657: 33,2677           72435                           VXV      VSL2
000658: 33,2700           03560                                    R1S
000659: 33,2701           17725                           STODL    DELVS
000660: 33,2702           00045                                    36D
000661: 33,2703           77625                           DSU
000662: 33,2704           02023                                    /LAND/
000663: 33,2705           03512                           STORE    HCALC                                 #  NEW HCALC*2(24)M.
000664: 33,2706           77605                           DMP
000665: 33,2707           27134                                    ALTCONV
000666: 33,2710           27736                           STOVL    ALTBITS                               #  ALTITUDE FOR R10 IN BIT UNITS.
000667: 33,2711           03566                                    V1S
000668: 33,2712           56236                           VSQ      DDV
000669: 33,2713           00045                                    36D
000670: 33,2714           75205                           DMP      SIGN
000671: 33,2715           27136                                    ARCONV1
000672: 33,2716           03520                                    HDOTDISP
000673: 33,2717           77776        COPYCYC2           EXIT                                           #  LEAVE ALTITUDE RATE COMPENSATION IN MPAC
000674: 33,2720           35031                           CAF      FIVE
000675: 33,2721           05623                           TC       GENTRAN
000676: 33,2722           01523                           ADRES    UNIT/R/
000677: 33,2723           01737                           ADRES    RUNIT
000678:
000679: 33,2724           30154                           CA       MPAC
000680: 33,2725           55757                           TS       DALTRATE
000681:
000682: 33,2726           35033        COPYCYC3           CAF      ELEVEN
000683: 33,2727           05623                           TC       GENTRAN
000684: 33,2730           01557                           ADRES    R1S
000685: 33,2731           01475                           ADRES    R
000686:
000687: 33,2732           55172                           TS       PIPATMPX
000688: 33,2733           55173                           TS       PIPATMPY
000689: 33,2734           55174                           TS       PIPATMPZ
000690:
000691: 33,2735           12213                           TCF      COPYCYCL                              #  COMPLETE THE COYPCYCL.
000692:
000693:                                                                                                  #      ALTCHK COMPARES CURRENT ALTITUDE (IN HCALC) WITH A SPECIFIED ALTITUDE FROM A TABLE BEGINNING AT ALTCRIT.
000694:                                                                                                  #  ITS CALLING SEQUENCE IS AS FOLLOWS:-
000695:
000696:                                                                                                  #         L        CAF    N
000697:                                                                                                  #         L+1      TC     BANKCALL
000698:                                                                                                  #         L+2      CADR   ALTCHK
000699:                                                                                                  #         L+3      RETURN HERE IF HCALC STILL > SPECIFIED CRITERION.   C(L) = +0.
000700:                                                                                                  #         L+4      RETURN HERE IF HCALC < OR = SPECIFIED CRITERION.   C(A) = C(L) = +0
000701:
000702:                                                                                                  #  ALTCHK MUST BE BANKCALLED EVEN FROM ITS OWN BANK.   N IS THE LOCATION, RELATIVE TO THE TAG ALTCRIT,
000703:                                                                                                  #  OF THE BEGINNING OF THE DP CONSTANT TO BE USED AS A CRITERION.
000704:
000705: 33,2736           00006        ALTCHK             EXTEND
000706: 33,2737           50000                           INDEX    A
000707: 33,2740           32752                           DCA      ALTCRIT
000708: 33,2741           52156                           DXCH     MPAC       +1
000709: 33,2742           00006                           EXTEND
000710: 33,2743           41512                           DCS      HCALC
000711: 33,2744           20156                           DAS      MPAC       +1
000712: 33,2745           06703                           TC       BRANCH     +4
000713: 33,2746           35030                           CAF      ZERO                                  #  BETTER THAN A NOOP, PERHAPS
000714: 33,2747           24133                           INCR     BUF2
000715: 33,2750           14670                           TCF      SWRETURN
000716:
000717: 33,2751  33,2751               ALTCRIT            =        25KFT
000718:
000719: 33,2751           00007 16100  25KFT              2DEC     7620       B-24                       #  (0)
000720: 33,2753           00004 16700  15KFT              2DEC     4572       B-24                       #  (2)
000721: 33,2755           00000 00364  50FT               2DEC     15.24      B-24                       #  (4)
000722: 33,2757           00010 35600  30KFT              2DEC     9144       B-24                       #  (6)
000723:
000724:
000725: 33,2761           36216        XORCHK             CAF      SIX                                   #  ARE WE BELOW 30000 FT?
000726: 33,2762           04655                           TC       BANKCALL
000727: 33,2763           66736                           CADR     ALTCHK
000728: 33,2764           12641                           TCF      CONTSERV                              #  CONTINUE LR UPDATE
000729: 33,2765           05563                           TC       UPFLAG                                #  YES: INHIBIT X-AXIS OVERRIDE
000730: 33,2766           17140                           CADR     XOVINFLG
000731: 33,2767           05563                           TC       UPFLAG
000732: 33,2770           22377                           CADR     XORFLG
000733: 33,2771           12641                           TCF      CONTSERV                              #  CONTINUE LR UPDATE
000734:
000735:
000736: 33,2772           35030        25KCHK             CAF      ZERO                                  #  ARE WE BELOW 25000 FT?
000737:
000738: 33,2773           04655                           TC       BANKCALL
000739: 33,2774           66736                           CADR     ALTCHK
000740: 33,2775           12641                           TCF      CONTSERV
000741: 33,2776           35021                           CAF      READLBIT                              #  SET READLR FLAG TO ENABLE LR READING.
000742: 33,2777           27263        SETLRSTT           ADS      LRSTAT
000743: 33,3000           12641                           TCF      CONTSERV
000744:
000745: 33,3001           35025        15KCHK             CAF      TWO                                   #  ARE WE BELOW 15000 FT?
000746:
000747: 33,3002           04655                           TC       BANKCALL
000748: 33,3003           66736                           CADR     ALTCHK
000749: 33,3004           12641                           TCF      CONTSERV
000750: 33,3005           23661                           LXCH     VSELECT
000751: 33,3006           35022                           CAF      READVBIT
000752: 33,3007           12777                           TCF      SETLRSTT
000753:
000754:                                                                                                  #  *********************************************************************************************************
000755:
000756:
000757: 33,3010           63256        CALCGRAV           UNIT     PDVL                                  #  SAVE UNIT/R/ IN PUSHLIST            (18)
000758: 33,3011           06233                                    ZEROVECS
000759: 33,3012           27476                           STOVL    UNITGOBL
000760: 33,3013           41560                           AXC,1    PUSH
000761: 33,3014           00002                                    2
000762: 33,3015           01760                           STORE    UNITR
000763: 33,3016           74014                           BON      AXC,1
000764: 33,3017           04304                                    LMOONFLG
000765: 33,3020           67046                                    CALCGRV1
000766: 33,3021           00000                                    0
000767: 33,3022           41441                           DOT      PUSH
000768: 33,3023           01714                                    UNITW
000769: 33,3024           44316                           DSQ      BDSU
000770: 33,3025           27124                                    DP1/20
000771: 33,3026           56325                           PDDL     DDV
000772: 33,3027           27126                                    RESQ
000773: 33,3030           00043                                    34D                                   #  (RN)SQ
000774: 33,3031           00041                           STORE    32D                                   #  TEMP FOR (RE/RN)SQ
000775: 33,3032           41205                           DMP      DMP
000776: 33,3033           27130                                    20J
000777: 33,3034           65361                           VXSC     PDDL
000778: 33,3035           01760                                    UNITR
000779: 33,3036           41205                           DMP      DMP
000780: 33,3037           27132                                    2J
000781: 33,3040           00041                                    32D
000782: 33,3041           53361                           VXSC     VAD
000783: 33,3042           01714                                    UNITW
000784: 33,3043           77626                           STADR
000785: 33,3044           74301                           STORE    UNITGOBL
000786: 33,3045           41455                           VAD      PUSH                                  #  MPAC = UNIT GRAVITY VECTOR.         (18)
000787: 33,3046           60345        CALCGRV1           DLOAD    NORM                                  #  PERFORM A NORMALIZATION ON RMAGSQ IN
000788: 33,3047           00043                                    34D                                   #  ORDER TO BE ABLE TO SCALE THE MU FOR
000789: 33,3050           00050                                    X2                                    #  MAXIMUM PRECISION.
000790: 33,3051           53663                           BDDV*    SLR*
000791: 33,3052           27116                                    -MUDT,1
000792: 33,3053           56623                                    0          -21D,2
000793: 33,3054           45561                           VXSC     STADR
000794: 33,3055           74227                           STORE    GDT1/2                                #  SCALED AT 2(+7) M/CS
000795: 33,3056           77616                           RVQ
000796:
000797: 33,3057           61375        CALCRVG            VLOAD    VXM
000798: 33,3060           01212                                    DELV
000799: 33,3061           01736                                    REFSMMAT
000800: 33,3062           76561                           VXSC     VSL1
000801: 33,3063           27112                                    KPIP1
000802: 33,3064           03504                           STORE    DELVREF
000803: 33,3065           41562                           VSR1     PUSH
000804: 33,3066           41455                           VAD      PUSH                                  #  (DV-OLDGDT)/2 TO PD SCALED AT 2(+7)M/CS
000805:
000806: 33,3067           01236                                    GDT/2
000807: 33,3070           65255                           VAD      PDDL                                  #                                      (18)
000808: 33,3071           01226                                    VN
000809: 33,3072           03546                                    PIPTIME1
000810: 33,3073           54225                           DSU      SL
000811: 33,3074           01234                                    PIPTIME
000812: 33,3075           20207                                    6D
000813: 33,3076           77761                           VXSC
000814: 33,3077           44055                           VAD      STQ
000815: 33,3100           01220                                    RN
000816: 33,3101           00037                                    31D
000817: 33,3102           37532                           STCALL   RN1                                   #  TEMP STORAGE OF RN SCALED 2(+29)M
000818: 33,3103           67010                                    CALCGRAV
000819:
000820: 33,3104           53255                           VAD      VAD
000821: 33,3105           77655                           VAD
000822: 33,3106           01226                                    VN
000823: 33,3107           37540                           STCALL   VN1                                   #  TEMP STORAGE OF VN SCALED 2(+7)M/CS
000824: 33,3110           00037                                    31D
000825:
000826: 33,3111           00321 26706  KPIP1              2DEC     .0128                                 #  SCALES DELV TO UNITS OF 2(7) M/CS.
000827: 33,3113           03215 27057  KPIP               2DEC     .1024                                 #  SCALES DELV TO UNITS OF 2(4) M/CS.
000828:
000829:                                                                                                  #  *** THE ORDER OF THE FOLLOWING TWO CONSTANTS MUST BE PRESERVED *********
000830:
000831: 33,3115           61377 55754  -MUDT              2DEC*    -7.9720645 E+12       B-44*
000832: 33,3117           77644 65556  -MUDT1             2DEC*    -9.8055560 E+10       B-44*
000833:
000834: 33,3121           00000 31000  UNUSEDF3           2DEC     12800      B-28
000835:
000836: 33,3123           01463 06315  DP1/20             2DEC     0.05
000837: 33,3125           00002 11777  RESQ               2DEC*    40.6809913 E12        B-58*
000838: 33,3127           01023 37155  20J                2DEC     3.24692010 E-2
000839: 33,3131           00065 06244  2J                 2DEC     3.24692010 E-3
000840: 33,3133           02633 26756  ALTCONV            2DEC     1.40206802 B-4                        #  CONVERTS M*2(-24) TO BIT UNITS *2(-28).
000841: 33,3135           24402 26003  ARCONV1            2DEC     656.167979 B-10                       #  CONV. ALTRATE COMP. TO BIT UNITS<
000842: 33,3137           31000 00000  1SEC(7)            2DEC     100        B-7
000843: 33,3141           60763 72204  DPSVEX1            2DEC     -3004.75757 E-2        B-6
000844: 33,3143           60663 44215  APSVEX1            2DEC     -3030.0259 E-2        B-6
000845: 33,3145  30,3161               200B17             =        2SEC(17)
000846:
000847:                                                                                                  # ****************************************************************************************************************
000848:
000849:                                                                                                  #  MUNRVG IS A SPECIAL AVERAGE G INTEGRATION ROUTINE USED BY THRUSTING
000850:                                                                                                  #  PROGRAMS WHICH FUNCTION IN THE VICINITY OF AN ASSUMED SPHERICAL MOON.
000851:                                                                                                  #  THE INPUT AND OUTPUT QUANTITIES ARE REFERENCED TO THE STABLE MEMBER
000852:                                                                                                  #  COORDINATE SYSTEM.
000853:
000854: 33,3145           74375        MUNRVG             VLOAD    VXSC
000855: 33,3146           01212                                    DELV
000856: 33,3147           27214                                    KPIP2
000857: 33,3150           53206                           PUSH     VAD                                   #  1ST PUSH: DELV IN UNITS OF 2(8) M/CS
000858: 33,3151           01236                                    GDT/2
000859: 33,3152           53206                           PUSH     VAD                                   #  2ND PUSH: (DELV + GDT)/2, UNITS OF 2(7)
000860: 33,3153           03504                                    V                                     #                                      (12)
000861: 33,3154           53361                           VXSC     VAD
000862: 33,3155           21162                                    200B17
000863: 33,3156           03476                                    R
000864: 33,3157           37560                           STCALL   R1S                                   #  STORE R SCALED AT 2(+24)M.
000865: 33,3160           67200                                    MUNGRAV
000866:
000867: 33,3161           53255                           VAD      VAD
000868: 33,3162           77655                           VAD                                            #                                      (0)
000869: 33,3163           03504                                    V
000870: 33,3164           03566                           STORE    V1S                                   #  STORE V SCALED AT 2(+7)M/CS.
000871: 33,3165           77646                           ABVAL
000872: 33,3166           27514                           STOVL    ABVELINT                              #  STORE SPEED FOR LR AND DISPLAYS.
000873: 33,3167           03524                                    UNIT/R/
000874: 33,3170           72441                           DOT      SL1
000875: 33,3171           03566                                    V1S
000876: 33,3172           17520                           STODL    HDOTDISP                              #  HDOT = V. UNIT(R)*2(7)M/CS.
000877: 33,3173           00045                                    36D
000878: 33,3174           77625                           DSU
000879: 33,3175           02023                                    /LAND/
000880: 33,3176           37512                           STCALL   HCALC                                 #  FOR NOW, DISPLAY WHETHER POS OR NEG
000881: 33,3177           66572                                    MUNRETRN
000882: 33,3200           77656        MUNGRAV            UNIT                                           #  AT 36D HAVE ABVAL(R), AT 34D R.R
000883: 33,3201           17524                           STODL    UNIT/R/
000884: 33,3202           00043                                    34D
000885: 33,3203           55301                           NORM     BDDV
000886: 33,3204           00050                                    X2
000887: 33,3205           27120                                    -MUDT1
000888: 33,3206           74257                           SLR*     VXSC
000889: 33,3207           56611                                    0          -11D,2
000890: 33,3210           03524                                    UNIT/R/
000891: 33,3211           03550                           STORE    GDT1/2                                #  1/2GDT SCALED AT 2(7) M/CS.
000892: 33,3212           77616                           RVQ
000893:
000894: 33,3213           00150 33343  KPIP2              2DEC     .0064                                 #  SCALES DELV TO UNITS OF 2(8) M/CS.
000895: 33,3215           00303        1.95SECS           DEC      195        B-14
000896: 33,3216           77664        RPCRTIME           DEC      -6         E2         B-17
000897: 33,3217           05463 06315  0.175              2DEC     0.175
000898: 33,3221           04753 20510  0.155              2DEC     0.155
000899: 33,3223           35056 21351  LRWH               2DEC     0.4545454545 B1
000900: 33,3225           76643 50641  VSCAL3             2DEC     -4.72441006 B-7                        #  15.5 FT/SEC AT 2(7) M/CS
000901: 33,3227           00004 34035  6.25               2DEC     .01905     B-6                        #  6.25 FT/SEC AT 2(6) M/CS
000902: 33,3231           00012 15300  LRHMAX             2DEC     170688     B-28
000903: 33,3233           00014 20000  2SEC(18)           2DEC     200        B-18
000904: 33,3235           00000 00310  2SEC(28)           2OCT     00000      00310                      #  2SEC AT 2(28)
000905:
000906: 33,3237           65363 64451  HSCAL              2DEC     -.3288792                             #  SCALES 1.079 FT/BIT TO 2(22)M.
000907:
000908:                                                                                                  #  ***** THE SEQUENCE OF THE FOLLOWING CONSTANTS MUST BE PRESERVED ********
000909: 33,3241           21241 03216  VZSCAL             2DEC     +.5410829105                            #  SCALES .8668 FT/SEC/BIT TO 2(18) M/CS.
000910: 33,3243           30153 23101  VYSCAL             2DEC     +.7565672446                            #  SCALES 1.212 FT/SEC/BIT TO 2(18) M/CS.
000911: 33,3245           63105 61733  VXSCAL             2DEC     -.4020043770                            #  SCALES -.644 FT/SEC/BIT TO 2(18) M/CS.
000912:
000913: 33,3247           26314 31463  LRWVZ              2DEC     0.7
000914: 33,3251           26314 31463  LRWVY              2DEC     0.7
000915: 33,3253           14631 23146  LRWVX              2DEC     0.4
000916:
000917: 33,3255           00110        BITS4-7            OCT      110
000918:
000919:                                                                                                  #  LRSTAT BIT DEFINITIONS
000920: 33,3256     5010               LRBYBIT            =        BIT15                                 #  LR UPDATE BYPASS FLAG
000921: 33,3256     5014               PSTHIBIT           =        BIT11                                 #  PAST HIGATE FLAG
000922: 33,3256     5015               NOLRRBIT           =        BIT10                                 #  LANDING RADAR REPOSITIONING FLAG
000923: 33,3256     5016               XORFLBIT           =        BIT9                                  #  X-AXIS OVERRIDE LIMIT FLAG
000924: 33,3256     5020               VELDABIT           =        BIT7                                  #  LR VELOCITY MEASUREMENT MADE FLAG
000925: 33,3256     5021               READLBIT           =        BIT6                                  #  OK TO READ LR RANGE DATA FLAG
000926: 33,3256     5022               READVBIT           =        BIT5                                  #  OK TO READ LR VELOCITY DATA FLAG
000927: 33,3256     5023               RNGEDBIT           =        BIT4                                  #  LR ALTITUDE MEASUREMENT MADE FLAG
000928:
000929:                                                                                                  #  THE FOLLOWING DEFINITIONS ALLOW LRSTAT AND
000930: 33,3256                        XOVINFLG           =        11872D                                #  X-AXIS OVERRIDE FLAG
000931: 33,3256                        LRBYPASS           =        13561D                                #  LANDING RADAR BYPASS FLAG
000932: 33,3256                        XORFLG             =        13567D                                #  X-AXIS OVERRIDE LIMIT FLAG
000933:
000934: 33,3256           35015        UPDATCHK           CAF      NOLRRBIT                              #  SEE IF LR UPDATE INHIBITED.
000935: 33,3257           71263                           MASK     LRSTAT
000936: 33,3260           10000                           CCS      A
000937: 33,3261           12641                           TCF      CONTSERV                              #  IT IS-NO LR UPDATE
000938: 33,3262           35023                           CAF      RNGEDBIT                              #  NO INHIBIT - SEE ALT MEAS. THIS CYCLE.
000939: 33,3263           71263                           MASK     LRSTAT
000940: 33,3264           00006                           EXTEND
000941: 33,3265           13360                           BZF      VMEASCHK                              #  NO ALT MEAS THIS CYCLE-CHECK FOR VEL
000942:
000943: 33,3266           06014        POSUPDAT           TC       INTPRET
000944: 33,3267           61375                           VLOAD    VXM
000945: 33,3270           03663                                    HBEAMNB                               #  RANGE VECTOR IN NB COORDINATES AT 2(22)M
000946: 33,3271           02150                                    XNBPIP                                #  CONVERT TO SM COORDINATES AT 2(23)M
000947: 33,3272           40372                           VSL1     SETPD
000948: 33,3273           00001                                    0
000949: 33,3274           41241                           DOT      DMP
000950: 33,3275           03524                                    UNIT/R/                               #  ALTITUDE AT 2(24)M
000951: 33,3276           03673                                    HMEAS
000952: 33,3277           41261                           SL       DMP
000953: 33,3300           20207                                    6D
000954: 33,3301           27240                                    HSCAL
000955: 33,3302           41425                           DSU      PUSH
000956: 33,3303           03512                                    HCALC
000957: 33,3304           16425                           STODL    DELTAH
000958: 33,3305           03512                                    HCALC
000959: 33,3306           43205                           DMP      DAD
000960: 33,3307           27220                                    0.175
000961: 33,3310           26756                                    50FT
000962: 33,3311           51525                           PDDL     ABS
000963: 33,3312           02425                                    DELTAH
000964: 33,3313           56204                           BOVB     DDV
000965: 33,3314           57702                                    TCDANZIG
000966: 33,3315           77776                           EXIT
000967:
000968: 33,3316           24156                           INCR     LRLCTR
000969: 33,3317           10121                           CCS      OVFIND
000970: 33,3320           13560                           TCF      HFAIL                                 #  DELTA H TOO LARGE
000971:
000972: 33,3321           30075                           CA       FLAGWRD1
000973: 33,3322           75026                           MASK     HINHFBIT
000974: 33,3323           10000                           CCS      A
000975: 33,3324           13360                           TCF      VMEASCHK                              #  UPDATE INHIBITED - TEST VELOCITY ANYWAY
000976:
000977: 33,3325           06014                           TC       INTPRET                               #  DO POSITION UPDATE
000978:
000979: 33,3326           56345                           DLOAD    DDV
000980: 33,3327           03512                                    HCALC                                 #  RESCALE H TO 2(28)M
000981: 33,3330           27232                                    LRHMAX
000982: 33,3331           44204                           BOVB     BDSU
000983: 33,3332           67360                                    VMEASCHK
000984: 33,3333           17722                                    NEARONE
000985: 33,3334           56205                           DMP      DDV
000986: 33,3335           02425                                    DELTAH
000987: 33,3336           27224                                    LRWH
000988: 33,3337           53361                           VXSC     VAD
000989: 33,3340           03524                                    UNIT/R/
000990: 33,3341           03560                                    R1S
000991: 33,3342           03675                           STORE    GNUR
000992: 33,3343           77776                           EXIT
000993:
000994: 33,3344           05413                           TC       PHASCHNG
000995: 33,3345           10035                           OCT      10035
000996:
000997: 33,3346           35031                           CA       FIVE
000998: 33,3347           05623                           TC       GENTRAN
000999: 33,3350           01674                           ADRES    GNUR
001000: 33,3351           01557                           ADRES    R1S
001001: 33,3352           00003                           RELINT
001002:
001003: 33,3353           06014                           TC       INTPRET
001004: 33,3354           45175                           VLOAD    CALL
001005: 33,3355           03560                                    R1S
001006: 33,3356           67200                                    MUNGRAV
001007: 33,3357           77776                           EXIT
001008:
001009: 33,3360           05413        VMEASCHK           TC       PHASCHNG                              #  RESTART AT NEXT LOCATION
001010: 33,3361           10035                           OCT      10035
001011: 33,3362           35020                           CAF      VELDABIT                              #  IS V READING AVAILABLE?
001012: 33,3363           71263                           MASK     LRSTAT
001013: 33,3364           00006                           EXTEND
001014: 33,3365           13544                           BZF      VALTCHK                               #  NO   SEE IF V READING TO BE TAKEN
001015:
001016: 33,3366           41661        VELUPDAT           CS       VSELECT                               #  PROCESS VELOCITY DATA
001017: 33,3367           60000                           DOUBLE
001018: 33,3370           54001                           TS       L                                     #  -2 VSELECT IN L
001019: 33,3371           60001                           AD       L
001020: 33,3372           60001                           AD       L                                     #  -6 VSELECT IN A
001021: 33,3373           50120                           INDEX    FIXLOC
001022: 33,3374           52047                           DXCH     X1                                    #  X1 = -6 VSELECT, X2 = -2 VSELECT
001023:
001024:
001025: 33,3375           35014                           CA       EBANK4
001026: 33,3376           54003                           TS       EBANK
001027: 33,3377  E4,1662                                  EBANK=   LRXCDU
001028:
001029: 33,3377           31665                           CA       PIPTEM                                #  STORE DELV IN MPAC
001030: 33,3400           22007                           ZL
001031: 33,3401           52155                           DXCH     MPAC
001032:
001033: 33,3402           31666                           CA       PIPTEM     +1
001034: 33,3403           22007                           ZL
001035: 33,3404           52160                           DXCH     MPAC       +3
001036:
001037: 33,3405           31667                           CA       PIPTEM     +2
001038: 33,3406           22007                           ZL
001039: 33,3407           52162                           DXCH     MPAC       +5
001040:
001041: 33,3410           31663                           CA       LRYCDU                                #  STORE LRCDUS IN CDUSPOTS
001042: 33,3411           54766                           TS       CDUSPOT
001043: 33,3412           31664                           CA       LRZCDU
001044: 33,3413           54770                           TS       CDUSPOT    +2
001045: 33,3414           31662                           CA       LRXCDU
001046: 33,3415           54772                           TS       CDUSPOT    +4
001047:
001048: 33,3416           45026                           CS       ONE
001049: 33,3417           54163                           TS       MODE                                  #  CHANGE STORE MODE TO VECTOR
001050:
001051: 33,3420           35066                           CA       EBANK7
001052: 33,3421           54003                           TS       EBANK                                 #  RESTORE EBANK 7
001053: 33,3422  E7,1472                                  EBANK=   DVCNTR
001054:
001055: 33,3422           30120                           CA       FIXLOC
001056: 33,3423           54166                           TS       PUSHLOC                               #  SET PD TO ZERO
001057:
001058: 33,3424           06014                           TC       INTPRET
001059: 33,3425           45113                           PDVL*    CALL
001060: 33,3426           02237                                    VZBEAMNB,1                            #  CONVERT VBEAM FROM NB TO SM
001061: 33,3427           47406                                    TRG*NBSM
001062: 33,3430           77715                           PDVL
001063: 33,3431           65361                           VXSC     PDDL
001064: 33,3432           27112                                    KPIP1                                 #  SCALE DELV TO 2(7) M/CS AND PUSH
001065: 33,3433           02261                                    LRVTIME                               #  TIME OF DELV AT 2(28)CS
001066: 33,3434           56225                           DSU      DDV
001067: 33,3435           01234                                    PIPTIME                               #  TU - T(N-1)
001068: 33,3436           27236                                    2SEC(28)
001069: 33,3437           76561                           VXSC     VSL1                                  #  G(N-1)(TU - T(N-1))
001070: 33,3440           01236                                    GDT/2                                 #  SCALED AT 2(7) M/CS
001071: 33,3441           53255                           VAD      VAD                                   #  PUSH UP FOR DELV
001072: 33,3442           03504                                    DELVREF
001073: 33,3443           47315                           PDVL     VXV
001074: 33,3444           03476                                    R
001075: 33,3445           03622                                    WM
001076: 33,3446           77655                           VAD
001077: 33,3447           65241                           DOT      PDDL
001078: 33,3450           00001                                    0
001079: 33,3451           03671                                    VMEAS
001080: 33,3452           40661                           SL       DMP*
001081: 33,3453           20213                                    10D
001082: 33,3454           50535                                    VZSCAL,2
001083: 33,3455           65225                           DSU      PDDL
001084: 33,3456           00007                                    6
001085: 33,3457           41246                           ABS      DMP
001086: 33,3460           27222                                    0.155
001087: 33,3461           65215                           DAD      PDDL
001088: 33,3462           27230                                    6.25
001089: 33,3463           00007                                    6
001090: 33,3464           44246                           ABS      BDSU
001091: 33,3465           77776                           EXIT
001092:
001093: 33,3466           24156                           INCR     LRMCTR
001094: 33,3467           06677                           TC       BRANCH
001095: 33,3470           13514                           TCF      VUPDAT
001096: 33,3471           13472                           TCF      VFAIL                                 #  DELTA V TOO LARGE     ALARM
001097:
001098: 33,3472           40156        VFAIL              CS       LRSCTR                                #    DELTA Q LARGE
001099: 33,3473           00006                           EXTEND                                         #  IF S = 0, DO NOT TURN ON TRACKER FAIL
001100: 33,3474           13501                           BZF      NOLITE
001101: 33,3475           60156                           AD       LRMCTR                                #  M-S
001102: 33,3476           77717                           MASK     NEG3                                  #  TEST FOR M-S > 3
001103: 33,3477           00006                           EXTEND                                         #  IF M-S > 3, THEN TWO OR MORE OF THE
001104: 33,3500           13501                           BZF      +1                                    #    LAST FOUR V READINGS WERE BAD,
001105:                                                                                                  #                TCF             NOLITE                  #   SO TURN ON VELOCITY FAIL LIGHT
001106:
001107:                                                                                                  #                TC              UPFLAG                  # AND SET BIT TO TURN ON TRACKER FAIL LITE
001108:                                                                                                  #                ADRES           VFLSHFLG
001109:
001110: 33,3501           30156        NOLITE             CA       LRMCTR                                #  SET S = M
001111: 33,3502           54156                           TS       LRSCTR
001112:
001113: 33,3503           40074                           CS       FLAGWRD0
001114: 33,3504           75015                           MASK     VORIDBIT
001115: 33,3505           00006                           EXTEND
001116: 33,3506           13520                           BZF      VUPDAT1
001117:
001118: 33,3507           11661                           CCS      VSELECT                               #  TEST FOR Z COMPONENT
001119: 33,3510           13544                           TCF      VALTCHK                               #  NOT Z, DO NOT SET VX INHIBIT
001120:
001121: 33,3511           35025                           CAF      TWO
001122: 33,3512           55661                           TS       VSELECT
001123: 33,3513           13544                           TCF      VALTCHK
001124:
001125: 33,3514           30074        VUPDAT             CA       FLAGWRD0
001126: 33,3515           75014                           MASK     VINHFBIT
001127: 33,3516           10000                           CCS      A
001128: 33,3517           13544                           TCF      VALTCHK                               #  UPDATE INHIBITED
001129:
001130: 33,3520           06014        VUPDAT1            TC       INTPRET
001131: 33,3521           56345                           DLOAD    DDV
001132: 33,3522           03514                                    ABVELINT
001133: 33,3523           27226                                    VSCAL3
001134: 33,3524           43204                           BOVB     DAD
001135: 33,3525           67544                                    VALTCHK
001136: 33,3526           17722                                    NEARONE
001137: 33,3527           41203                           DMP*     DMP
001138: 33,3530           50527                                    LRWVZ,2
001139: 33,3531           77761                           VXSC
001140: 33,3532           77655                           VAD
001141: 33,3533           03566                                    V1S                                   #  ADD WEIGHTED DELTA V TO VELOCITY
001142: 33,3534           03675                           STORE    GNUV
001143: 33,3535           77776                           EXIT
001144:
001145: 33,3536           05413                           TC       PHASCHNG                              #  DO NOT RE-UPDATE
001146: 33,3537           10035                           OCT      10035
001147:
001148: 33,3540           35031                           CA       FIVE
001149: 33,3541           05623                           TC       GENTRAN                               #  STORE NEW VELOCITY VECTOR
001150: 33,3542           01674                           ADRES    GNUV
001151: 33,3543           01565                           ADRES    V1S
001152:
001153: 33,3544  33,3544               ENDVDAT            =        VALTCHK
001154:
001155: 33,3544           05413        VALTCHK            TC       PHASCHNG                              #  DO NOT REPEAT ABOVE
001156: 33,3545           10035                           OCT      10035
001157:
001158: 33,3546           35022                           CAF      READVBIT                              #  TEST READVEL TO SEE IF VELOCITY READING
001159: 33,3547           71263                           MASK     LRSTAT                                #  IS DESIRED.
001160: 33,3550           00006                           EXTEND
001161: 33,3551           13001                           BZF      15KCHK                                #  TES - READ VELOCITY
001162:
001163: 33,3552           00004        READV              INHINT
001164: 33,3553           37672                           CAF      PRIO32                                #  SET UP JOB TO READ VELOCITY BEAMS.
001165: 33,3554           05142                           TC       NOVAC
001166: 33,3555  E7,1672                                  EBANK=   HMEAS
001167: 33,3555           03573 66067                     2CADR    LRVJOB
001168:
001169: 33,3557           12641                           TCF      CONTSERV                              #  CONTINUE WITH SERVICER
001170:
001171: 33,3560           40156        HFAIL              CS       LRRCTR
001172: 33,3561           00006                           EXTEND
001173: 33,3562           13567                           BZF      NORLITE                               #  IF R = 0, DO NOT TURN ON TRK FAIL
001174: 33,3563           60156                           AD       LRLCTR
001175: 33,3564           77717                           MASK     NEG3
001176: 33,3565           00006                           EXTEND                                         #  IF L-R LT 4, DO NOT TURN ON TRK FAIL
001177: 33,3566           13567                           BZF      +1
001178:                                                                                                  #                 TCF             NORLITE
001179:
001180:                                                                                                  #                 TC              UPFLAG                  # AND SET BIT TO TURN ON TRACKER FAIL LITE
001181:                                                                                                  #                 ADRES           HFLSHFLG
001182:
001183: 33,3567           30156        NORLITE            CA       LRLCTR
001184: 33,3570           54156                           TS       LRRCTR                                #  SET R = L
001185: 33,3571           54156                           TS       LRMCTR
001186:
001187: 33,3572           13360                           TCF      VMEASCHK
001188:
001189:
001190:                                                                                                  #  ********************************************************************************************************
001191:                                                                                                  #     LRVJOB IS SET WHEN THE LEM IS BELOW 15000 FT DURING THE LANDING PHASE
001192:                                                                                                  #     THIS JOB INITIALIZES THE LANDING RADAR READ ROUTINE FOR 5 VELOCITY
001193:                                                                                                  #     SAMPLES AND GOES TO SLEEP WHILE THE SAMPLING IS DONE-ABOUT 500 MS.
001194:                                                                                                  #     WITH A GOODEND RETURN THE DATA IS STORED IN VMEAS AND BIT7 OF LRSTAT
001195:                                                                                                  #     IS SET.  THE GIMBAL ANGLES ARE READ ABOUT MIDWAY IN THE SAMPLING .
001196:
001197:
001198: 33,3573           00004        LRVJOB             INHINT
001199: 33,3574           33735                           CA       24MS                                  #  SET TASK TO READ CDUS + PIPAS
001200: 33,3575           05252                           TC       WAITLIST
001201: 33,3576  E4,1660                                  EBANK=   LRVTIME
001202: 33,3576           03635 66064                     2CADR    RDGIMS
001203:
001204: 33,3600           11661                           CCS      VSELECT                               #  SEQUENCE LR VEL BEAM SELECTOR
001205: 33,3601           13603                           TCF      +2
001206: 33,3602           35025                           CAF      TWO                                   #  IF ZERO-RESET TO TWO
001207: 33,3603           55661                           TS       VSELECT
001208: 33,3604           60000                           DOUBLE                                         #  2XVSELECT USED FOR VBEAM INDEX IN LRVEL
001209: 33,3605           04655                           TC       BANKCALL                              #  GO INITIALIZE LR VEL READ ROUTINE
001210: 33,3606           53061                           CADR     LRVEL
001211: 33,3607           04655                           TC       BANKCALL                              #  PUT LRVJOB TO SLEEP ABOUT 500 MS
001212: 33,3610           17623                           CADR     RADSTALL
001213: 33,3611           05225                           TC       ENDOFJOB
001214:
001215: 33,3612           00006                           EXTEND                                         #  GOOD RETURN-STOW AWAY VMEAS
001216: 33,3613           31105                           DCA      SAMPLSUM
001217: 33,3614           53671                           DXCH     VMEAS
001218:
001219: 33,3615           41263                           CS       LRSTAT                                #  SET BIT TO INDICATE VELOCITY
001220: 33,3616           75020                           MASK     VELDABIT                              #  MEASUREMENT MADE.
001221: 33,3617           27263                           ADS      LRSTAT
001222:
001223: 33,3620           05225                           TC       ENDOFJOB
001224:
001225:                                                                                                  #  LRHJOB IS SET BY LRHTASK WHEN LEM IS BELOW 25000 FT.  THIS JOB
001226:                                                                                                  #  INITIALIZES THE LR READ ROUTINE FOR AN ALT MEASUREMENT AND GOES TO
001227:                                                                                                  #  SLEEP WHILE THE SAMPLING IS DONE-ABOUT 95 MS.  WITH A GOODEND RETURN
001228:                                                                                                  #  THE ALT DATA IS STORED IN HMEAS AND BIT7 OF LRSTAT IS SET.
001229:
001230: 33,3621           04655        LRHJOB             TC       BANKCALL                              #  INITIATE LR ALT MEASUREMENT
001231: 33,3622           53045                           CADR     LRALT
001232: 33,3623           04655                           TC       BANKCALL                              #  LRHJOB TO SLEEP ABOUT 95MS
001233: 33,3624           17623                           CADR     RADSTALL
001234: 33,3625           05225                           TC       ENDOFJOB
001235:
001236: 33,3626           00006                           EXTEND
001237: 33,3627           31105                           DCA      SAMPLSUM                              #  GOOD RETURN-STORE AWAY LRH DATA
001238: 33,3630           53673                           DXCH     HMEAS                                 #  LRH DATA 1.079 FT/BIT
001239:
001240: 33,3631           41263                           CS       LRSTAT                                #  SET BIT TO INDICATE RANGE
001241: 33,3632           75023                           MASK     RNGEDBIT                              #  MEASUREMENT MADE.
001242: 33,3633           27263                           ADS      LRSTAT
001243: 33,3634           05225                           TC       ENDOFJOB                              #  TERMINATE LRHJOB
001244:
001245:                                                                                                  #      RDGIMS  IS A TASK SET UP BY LRVJOB TO PICK UP THE IMU CDUS AND TIME
001246:                                                                                                  #      AT ABOUT THE MIDPOINT OF THE LR VEL READ ROUTINE WHEN 5 VEL SAMPLES
001247:                                                                                                  #      ARE SPECIFIED.
001248:
001249: 33,3635  E4,1660                                  EBANK=   LRVTIME
001250: 33,3635           00006        RDGIMS             EXTEND
001251: 33,3636           30025                           DCA      TIME2                                 #  PICK UP TIME2,TIME1
001252: 33,3637           53661                           DXCH     LRVTIME                               #     AND SAVE IN LRVTIME
001253:
001254: 33,3640           00006                           EXTEND
001255: 33,3641           30033                           DCA      CDUX                                  #  PICK UP CDUX AND CDUY
001256: 33,3642           53663                           DXCH     LRXCDU                                #     AND SAVE IN LRXCDU AND LRYCDU
001257:
001258: 33,3643           30034                           CA       CDUZ
001259: 33,3644           55664                           TS       LRZCDU                                #  SAVE CDUZ IN LRZCDU
001260:
001261: 33,3645           30037                           CA       PIPAX
001262: 33,3646           55665                           TS       PIPTEM                                #  SAVE PIPAX IN PIPTEM
001263:
001264: 33,3647           00006                           EXTEND
001265: 33,3650           30041                           DCA      PIPAY                                 #  PICK UP PIPAY AND PIPAZ
001266: 33,3651           53667                           DXCH     PIPTEM     +1                         #     AND SAVE IN PIPTEM +1 AND PIPTEM +2
001267: 33,3652           05321                           TC       TASKOVER
001268:
001269:                                                                                                  #     HIGATJOB IS SET APPROXIMATELY 6 SECONDS PRIOR TO HIGH GATE DURING
001270:                                                                                                  #     THE DESCENT BURN PHASE OF LUNAR LANDING.  THIS JOB INITIATES THE
001271:                                                                                                  #     LANDING RADAR REPOSITIONING ROUTINE AND GOES TO SLEEP UNTIL THE
001272:                                                                                                  #     LR ANTENNA MOVES FROM POSITION 1 TO POSITION 2.  IF THE LR ANTENNA
001273:                                                                                                  #     ACHIEVES POSITION 2 WITHIN 22 SECONDS THE ALTITUDE AND VELOCITY
001274:                                                                                                  #     BEAM VECTORS  ARE RECOMPUTED TO REFLECT THE NEW ORIENTATION WITH
001275:                                                                                                  #     RESPECT TO THE NB.  BIT10 OF LRSTAT IS CLEARED TO ALLOW LR
001276:                                                                                                  #     MEASUREMENTS AND THE JOB TERMINATES.
001277:
001278: 33,3653           04655        HIGATJOB           TC       BANKCALL                              #  START LRPOS2 JOB
001279: 33,3654           53422                           CADR     LRPOS2
001280: 33,3655           04655                           TC       BANKCALL                              #  PUT HIGATJOB TO SLEEP UNTIL JOB IS DONE
001281: 33,3656           17623                           CADR     RADSTALL
001282: 33,3657           05225                           TC       ENDOFJOB                              #  BAD END
001283:
001284: 33,3660           03673                           TC       SETPOS2                               #  LR IN POS2 - SET UP TRANSFORMATIONS
001285:
001286: 33,3661           45015                           CS       NOLRRBIT                              #  RESET NOLRREAD FLAG TO ENABLE LR READING
001287: 33,3662           71263                           MASK     LRSTAT
001288: 33,3663           55263                           TS       LRSTAT
001289: 33,3664           05225                           TC       ENDOFJOB
001290:
001291: 33,3665           04704        SETPOS1            TC       MAKECADR                              #  MUST BE CALLED BY BANKCALL
001292: 33,3666           55674                           TS       LRADRET1                              #  SAVE RETURN CADR, SINCE BUF2 CLOBBERED
001293:
001294: 33,3667           35030                           CA       ZERO                                  #  INDEX FOR LRALPHA,LRBETA IN POS 1.
001295:
001296:                                                                                                  #                 TS              LRLCTR                  # SET L,M,R, ANS S TO ZERO
001297:                                                                                                  #                 TS              LRMCTR
001298:                                                                                                  #                 TS              LRRCTR
001299:                                                                                                  #                 TS              LRSCTR
001300: 33,3670           03674                           TC       SETPOS                                #  CONTINUE WITH COMPUTATIONS
001301:
001302: 33,3671           31674                           CA       LRADRET1
001303: 33,3672           04677                           TC       BANKJUMP                              #  RETURN TO CALLER
001304:
001305:
001306: 33,3673           35025        SETPOS2            CA       TWO                                   #  INDEX FOR POS2
001307: 33,3674           00006        SETPOS             EXTEND
001308: 33,3675           50000                           INDEX    A
001309: 33,3676           31413                           DCA      LRALPHA                               #  LRALPHA IN A, LRBETA IN L
001310: 33,3677           54772                           TS       CDUSPOT    +4                         #  ROTATION ABOUT X
001311: 33,3700           22766                           LXCH     CDUSPOT                               #  ROTATION ABOUT Y
001312: 33,3701           35030                           CA       ZERO
001313: 33,3702           54770                           TS       CDUSPOT    +2                         #  ZERO ROTATION ABOUT Z.
001314:
001315: 33,3703           00006                           EXTEND
001316: 33,3704           23660                           QXCH     LRADRET                               #  SAVE RETURN
001317:
001318: 33,3705           06014                           TC       INTPRET
001319: 33,3706           45175                           VLOAD    CALL
001320: 33,3707           06227                                    UNITY                                 #  CONVERT UNITY(ANTENNA) TO NB
001321: 33,3710           47373                                    TRG*SMNB
001322: 33,3711           26245                           STOVL    VYBEAMNB
001323: 33,3712           06231                                    UNITX                                 #  CONVERT UNITX(ANTENNA) TO NB
001324: 33,3713           77624                           CALL
001325: 33,3714           47413                                    *SMNB*
001326: 33,3715           02253                           STORE    VXBEAMNB
001327: 33,3716           76435                           VXV      VSL1
001328: 33,3717           02245                                    VYBEAMNB
001329: 33,3720           16237                           STODL    VZBEAMNB                              #  Z = X * Y
001330: 33,3721           03417                                    HANGLE
001331: 33,3722           41434                           RTB      PUSH
001332: 33,3723           21457                                    CDULOGIC
001333: 33,3724           65356                           SIN      PDDL
001334: 33,3725           65346                           COS      PDDL
001335: 33,3726           06233                                    ZEROVECS
001336: 33,3727           55525                           PDDL     VDEF
001337: 33,3730           45076                           VCOMP    CALL
001338: 33,3731           47413                                    *SMNB*                                #  CONVERT TO NB
001339: 33,3732           03663                           STORE    HBEAMNB
001340: 33,3733           77776                           EXIT
001341: 33,3734           01660                           TC       LRADRET
001342:
001343: 33,3735           00030        24MS               DEC      24         B-14

End of include-file SERVICER.agc.  Parent file is MAIN.agc


