
Source Code


000002:                                                                                                  ## Copyright:   Public domain.
000003:                                                                                                  ## Filename:    SERVICE_ROUTINES.agc
000004:                                                                                                  ## Purpose:     A section of a reconstructed, mixed version of Sundance
000005:                                                                                                  ##              It is part of the reconstructed source code for the Lunar
000006:                                                                                                  ##              Module's (LM) Apollo Guidance Computer (AGC) for Apollo 9.
000007:                                                                                                  ##              No original listings of this program are available;
000008:                                                                                                  ##              instead, this file was created via disassembly of dumps
000009:                                                                                                  ##              of various revisions of Sundance core rope modules.
000010:                                                                                                  ## Assembler:   yaYUL
000011:                                                                                                  ## Contact:     Ron Burkey <info@sandroid.org>.
000012:                                                                                                  ## Website:     www.ibiblio.org/apollo/index.html
000013:                                                                                                  ## Mod history: 2020-06-17 MAS  Created from Luminary 69.
000014:
000015:                                                                                                  ## Sundance 292
000016:
000017:    7722                                           BLOCK    3
000018:    6000                                           SETLOC   FFTAG6
000019:    6000                                           BANK
000020:    7722                                           COUNT*   $$/FLAG
000021:
000022:    7722           50002                 -2        INDEX    Q
000023:    7723           30000                           CA       0
000024:    7724           54001        UPENT2             TS       L                                     #  WHICH FLAGWORD IS IT
000025:    7725           75032                           MASK     OCT7
000026:    7726           56001                           XCH      L                                     #  SAVE IN L FOR INDEXING
000027:
000028:    7727           77716                           MASK     OCT77770                              #  OBTAIN THE BIT INFORMATION
000029:    7730           00004                           INHINT                                         #  PREVENT INTERUPTS
000030:    7731           54061                           TS       ITEMP1                                #  STORE THE BIT INFORMATION TEMPORARIALY
000031:
000032:    7732           50001                           NDX      L
000033:    7733           40074                           CS       FLAGWRD0
000034:    7734           70061                           MASK     ITEMP1
000035:    7735           50001                           NDX      L
000036:    7736           26074                           ADS      FLAGWRD0
000037:    7737           00003                           RELINT                                         #  RELEASE INTERUPT INHIBIT
000038:
000039:    7740           24002                           INCR     Q                                     #  OBTAIN THE CORRECT RETURN ADDRESS
000040:    7741           00002                           TC       Q                                     #  RETURN
000041:
000042:    7742           50002                 -2        INDEX    Q
000043:    7743           30000                           CA       0
000044:    7744           54001        DOWNENT2           TS       L                                     #  WHICH FLAGWORD IS IT
000045:    7745           75032                           MASK     OCT7
000046:    7746           56001                           XCH      L                                     #  SAVE IN L FOR INDEXING
000047:
000048:    7747           77716                           MASK     OCT77770                              #  OBTAIN THE BIT INFORMATION
000049:    7750           40000                           COM                                            #  START TO PROCESS THE INFORMATION
000050:
000051:    7751           00004                           INHINT                                         #  PREVENT INTERUPTS
000052:    7752           50001                           NDX      L
000053:    7753           70074                           MASK     FLAGWRD0
000054:    7754           50001                           NDX      L
000055:    7755           54074                           TS       FLAGWRD0
000056:    7756           00003                           RELINT                                         #  RELEASE INTERUPT INHIBIT
000057:
000058:    7757           24002                           INCR     Q                                     #  OBTAIN THE CORRECT RETURN ADDRESS
000059:    7760           00002                           TC       Q                                     #  RETURN
000060:
000061:    7761     5032               OCT7               EQUALS   SEVEN
000062:
000063:                                                                                                  #      UPFLAG AND DOWNFLAG ARE ENTIRELY GENERAL FLAG SETTING AND CLEARING SUBROUTINES.   USING THEM, WHETHER OR
000064:                                                                                                  #  NOT IN INTERRUPT, ONE MAY SET OR CLEAR ANY SINGLE, NAMED BIT IN ANY ERASABLE REGISTER, SUBJECT OF COURSE TO
000065:                                                                                                  #  EBANK SETTING.   A "NAMED" BIT, AS THE WORD IS USED HERE, IS ANY BIT WITH A NAME FORMALLY ASSIGNED BY THE YUL
000066:                                                                                                  #  ASSEMBLER.
000067:
000068:                                                                                                  #      AT PRESENT THE ONLY NAMED BITS ARE THOSE IN THE FLAGWORDS.   ASSEMBLER CHANGES WILL MAKE IT POSSIBLE TO
000069:                                                                                                  #  NAME ANY BIT IN ERASABLE MEMORY.
000070:
000071:                                                                                                  #      CALLING SEQUENCES ARE AS FOLLOWS :-
000072:                                                                                                  #                TC      UPFLAG                  TC      DOWNFLAG
000073:                                                                                                  #                ADRES   NAME OF FLAG            ADRES   NAME OF FLAG
000074:
000075:                                                                                                  #      RETURN IS TO THE LOCATION FOLLOWING THE "ADRES" ABOUT .58 MS AFTER THE "TC".
000076:
000077:                                                                                                  #      UPON RETURN A CONTAINS THE CURRENT FLAGWRD SETTING.
000078:
000079:    5563                                           BLOCK    02
000080:    4000                                           SETLOC   FFTAG1
000081:    4000                                           BANK
000082:    5563                                           COUNT*   $$/FLAG
000083:
000084:    5563           30002        UPFLAG             CA       Q
000085:    5564           05601                           TC       DEBIT
000086:    5565           40000                           COM                                            #  +(15 - BIT)
000087:    5566           00006                           EXTEND
000088:    5567           04001                           ROR      LCHAN                                 #  SET BIT
000089:    5570           50061        COMFLAG            INDEX    ITEMP1
000090:    5571           54074                           TS       FLAGWRD0
000091:    5572           22063                           LXCH     ITEMP3
000092:    5573           00003                           RELINT
000093:    5574           00001                           TC       L
000094:
000095:    5575           30002        DOWNFLAG           CA       Q
000096:    5576           05601                           TC       DEBIT
000097:    5577           70001                           MASK     L                                     #  RESET BIT
000098:    5600           15570                           TCF      COMFLAG
000099:
000100:    5601           65026        DEBIT              AD       ONE                                   #  GET DE BITS
000101:    5602           00004                           INHINT
000102:    5603           54063                           TS       ITEMP3
000103:    5604           35035                           CA       LOW4                                  #  DEC15
000104:    5605           54061                           TS       ITEMP1
000105:    5606           50063                           INDEX    ITEMP3
000106:    5607           27777                           CA       0          -1                         #  ADRES
000107:    5610           54001                           TS       L
000108:    5611           35030                           CA       ZERO
000109:    5612           00006                           EXTEND
000110:    5613           10061                           DV       ITEMP1                                #  A = FLAGWRD, L = (15 - BIT)
000111:    5614           52062                           DXCH     ITEMP1
000112:    5615           50061                           INDEX    ITEMP1
000113:    5616           30074                           CA       FLAGWRD0
000114:    5617           54001                           TS       L                                     #  CURRENT STATE
000115:    5620           50062                           INDEX    ITEMP2
000116:    5621           45010                           CS       BIT15                                 #  -(15 - BIT)
000117:    5622           00002                           TC       Q
000118:
000119:                                                                                                  #  DELAYJOB - A GENERAL ROUTINE TO DELAY A JOB A SPECIFIC AMOUNT OF TIME BEFORE PICKING UP AGAIN.
000120:
000121:                                                                                                  #  ENTRANCE REQUIREMENTS ...
000122:                                                                                                  #                CAF     DT              DELAY JOB FOR DT CENTISECS
000123:                                                                                                  #                TC      BANKCALL
000124:                                                                                                  #                CADR    DELAYJOB
000125:
000126: 06,3712                                           BANK     06
000127: 00,2000                                           SETLOC   DLAYJOB
000128: 00,2000                                           BANK
000129:
000130:                                                                                                  #  THIS MUST REMAIN IN BANK 0 *****************************************
000131:
000132: 00,3730                                           COUNT*   $$/DELAY
000133: 00,3730           00004        DELAYJOB           INHINT
000134: 00,3731           54002                           TS       Q                                     #  STORE DELAY DT IN Q FOR DLY -1 IN
000135:
000136: 00,3732           35025                           CAF      DELAYNUM                              #  WAITLIST
000137: 00,3733           54070        DELLOOP            TS       RUPTREG1
000138: 00,3734           50000                           INDEX    A
000139: 00,3735           31332                           CA       DELAYLOC                              #  IS THIS DELAYLOC AVAILABLE
000140: 00,3736           00006                           EXTEND
000141: 00,3737           13744                           BZF      OK2DELAY                              #  YES
000142:
000143: 00,3740           10070                           CCS      RUPTREG1                              #  NO, TRY NEXT DELAYLOC
000144: 00,3741           13733                           TCF      DELLOOP
000145:
000146: 00,3742           05713                           TC       ABORT                                 #  NO AVAILABLE LOCS.
000147: 00,3743           01104                           OCT      1104
000148:
000149: 00,3744           33764        OK2DELAY           CA       TCSLEEP                               #  SET WAITLIST IMMEDIATE RETURN
000150: 00,3745           54061                           TS       WAITEXIT
000151:
000152: 00,3746           30004                           CA       FBANK
000153: 00,3747           60070                           AD       RUPTREG1                              #  STORE BBANK FOR TASK CALL
000154: 00,3750           54001                           TS       L
000155:
000156: 00,3751           33765                           CAF      WAKECAD                               #  STORE CADR FOR TASK CALL
000157: 00,3752           15260                           TCF      DLY2       -1                         #  DLY IS IN WAITLIST ROUTINE
000158:
000159: 00,3753           04704        TCGETCAD           TC       MAKECADR                              #  GET CALLERS FCADR
000160:
000161: 00,3754           50070                           INDEX    RUPTREG1
000162: 00,3755           55332                           TS       DELAYLOC                              #  SAVE DELAY CADRS
000163:
000164: 00,3756           05203                           TC       JOBSLEEP
000165:
000166: 00,3757           35030        WAKER              CAF      ZERO
000167: 00,3760           50006                           INDEX    BBANK
000168: 00,3761           57332                           XCH      DELAYLOC                              #  MAKE DELAYLOC AVAILABLE
000169: 00,3762           05207                           TC       JOBWAKE
000170:
000171: 00,3763           05321                           TC       TASKOVER
000172:
000173: 00,3764           03751        TCSLEEP            GENADR   TCGETCAD   -2
000174: 00,3765           03757        WAKECAD            GENADR   WAKER
000175:
000176:                                                                                                  #  GENTRAN, A BLOCK TRANSFER ROUTINE.
000177:
000178:                                                                                                  #  WRITTEN BY D. EYLES
000179:                                                                                                  #  MOD 1 BY KERNAN                               UTILITYM REV 17 11/18/67
000180:
000181:                                                                                                  #  MOD 2 BY SCHULENBERG (REMOVE RELINT) SKIPPER REV 4 2/28/68
000182:
000183:                                                                                                  #           THIS ROUTINE IS USEFULL FOR TRANSFERING N CONSECUTIVE ERASABLE OR FIXED QUANTITIES TO SOME OTHER N
000184:                                                                                                  #  CONSECUTIVE ERASABLE LOCATIONS.  IF BOTH BLOCKS OF DATA ARE IN SWITCHABLE EBANKS, THEY MUST BE IN THE SAME ONE.
000185:
000186:                                                                                                  #           GENTRAN IS CALLABLE IN A JOB AS WELL AS A RUPT.  THE CALLING SEQUENCE IS:
000187:                                                                                                  #                                          I        CA    N-1              # OF QUANTITIES MINUS ONE.
000188:                                                                                                  #                                          I +1     TC    GENTRAN          IN FIXED-FIXED.
000189:                                                                                                  #                                          I +2     ADRES L                STARTING ADRES OF DATA TO BE MOVED.
000190:                                                                                                  #                                          I +3     ADRES M                STARTING ADRES OF DUPLICATION BLOCK.
000191:                                                                                                  #                                          I +4                            RETURNS HERE.
000192:
000193:                                                                                                  #           GENTRAN TAKES 25 MCT'S (300 MICROSECONDS) PER ITEM + 5 MCT'S (60 MICS) FOR ENTERING AND EXITING.
000194:                                                                                                  #           A, L AND ITEMP1 ARE NOT PRESERVED.
000195:
000196:    5623                                           BLOCK    02
000197:    4000                                           SETLOC   FFTAG4
000198:    4000                                           BANK
000199:
000200:    5623     0061                                  EBANK=   ITEMP1
000201:
000202:    5623                                           COUNT*   $$/TRAN
000203:
000204:    5623           00004        GENTRAN            INHINT
000205:    5624           54061                           TS       ITEMP1                                #  SAVE N-1.
000206:    5625           50002                           INDEX    Q                                     #  C(Q) = ADRES L.
000207:    5626           60000                           AD       0                                     #  ADRES (L + N - 1).
000208:    5627           50000                           INDEX    A
000209:    5630           30000                           CA       0                                     #  C(ABOVE).
000210:    5631           54001                           TS       L                                     #  SAVE DATA.
000211:    5632           30061                           CA       ITEMP1
000212:    5633           50002                           INDEX    Q
000213:    5634           60001                           AD       1                                     #  ADRES (M + N - 1).
000214:    5635           50000                           INDEX    A
000215:    5636           22000                           LXCH     0                                     #  STUFF IT.
000216:    5637           10061                           CCS      ITEMP1                                #  LOOP UNTIL N-1 = 0.
000217:    5640           15624                           TCF      GENTRAN    +1
000218:    5641           16715                           TCF      Q+2                                   #  RETURN TO CALLER.
000219:
000220:                                                                                                  #  B5OFF   ZERO BIT 5 OF EXTVBACT, WHICH IS SET BY TESTXACT.
000221:                                                                                                  #           MAY BE USED AS NEEDED BY ANY EXTENDED VERB WHICH HAS DONE TESTXACT
000222:
000223:    5642                                           COUNT*   $$/EXTVB
000224:
000225:    5642           45022        B5OFF              CS       BIT5
000226:    5643           71045                           MASK     EXTVBACT
000227:    5644           55045                           TS       EXTVBACT
000228:    5645           05225                           TC       ENDOFJOB
000229:


000234:    5646     6716               UNK7766            EQUALS   TCQ

End of include-file SERVICE_ROUTINES.agc.  Parent file is MAIN.agc


