
Source Code


000002:                                                                                                  ## Copyright:   Public domain.
000003:                                                                                                  ## Filename:    SINGLE_PRECISION_SUBROUTINES.agc
000004:                                                                                                  ## Purpose:     A section of a reconstructed, mixed version of Sundance
000005:                                                                                                  ##              It is part of the reconstructed source code for the Lunar
000006:                                                                                                  ##              Module's (LM) Apollo Guidance Computer (AGC) for Apollo 9.
000007:                                                                                                  ##              No original listings of this program are available;
000008:                                                                                                  ##              instead, this file was created via disassembly of dumps
000009:                                                                                                  ##              of various revisions of Sundance core rope modules.
000010:                                                                                                  ## Assembler:   yaYUL
000011:                                                                                                  ## Contact:     Ron Burkey <info@sandroid.org>.
000012:                                                                                                  ## Website:     www.ibiblio.org/apollo/index.html
000013:                                                                                                  ## Mod history: 2020-06-17 MAS  Created from Luminary 69.
000014:
000015:                                                                                                  ## Sundance 292
000016:
000017:    5102                                           BLOCK    02
000018:
000019:                                                                                                  #  SINGLE PRECISION SINE AND COSINE
000020:
000021:    5102                                           COUNT*   $$/INTER
000022:    5102           65011        SPCOS              AD       HALF                                  #  ARGUMENTS SCALED AT PI
000023:    5103           55076        SPSIN              TS       TEMK
000024:    5104           15106                           TCF      SPT
000025:    5105           41076                           CS       TEMK
000026:    5106           60000        SPT                DOUBLE
000027:    5107           55076                           TS       TEMK
000028:    5110           15121                           TCF      POLLEY
000029:    5111           57076                           XCH      TEMK
000030:    5112           51076                           INDEX    TEMK
000031:    5113           65007                           AD       LIMITS
000032:    5114           40000                           COM
000033:    5115           61076                           AD       TEMK
000034:    5116           55076                           TS       TEMK
000035:    5117           15121                           TCF      POLLEY
000036:    5120           15137                           TCF      ARG90
000037:    5121           00006        POLLEY             EXTEND
000038:    5122           71076                           MP       TEMK
000039:    5123           55077                           TS       SQ
000040:    5124           00006                           EXTEND
000041:    5125           75055                           MP       C5/2
000042:    5126           67710                           AD       C3/2
000043:    5127           00006                           EXTEND
000044:    5130           71077                           MP       SQ
000045:    5131           67671                           AD       C1/2
000046:    5132           00006                           EXTEND
000047:    5133           71076                           MP       TEMK
000048:    5134           20001                           DDOUBL
000049:    5135           55076                           TS       TEMK
000050:    5136           00002                           TC       Q
000051:    5137           50000        ARG90              INDEX    A
000052:    5140           45007                           CS       LIMITS
000053:    5141           00002                           TC       Q                                     #  RESULT SCALED AT 1
000054:
000055:

End of include-file SINGLE_PRECISION_SUBROUTINES.agc.  Parent file is MAIN.agc


