
Source Code


000002:                                                                                                  ## Copyright:   Public domain.
000003:                                                                                                  ## Filename:    STABLE_ORBIT_-_P38-P39.agc
000004:                                                                                                  ## Purpose:     A section of a reconstructed, mixed version of Sundance
000005:                                                                                                  ##              It is part of the reconstructed source code for the Lunar
000006:                                                                                                  ##              Module's (LM) Apollo Guidance Computer (AGC) for Apollo 9.
000007:                                                                                                  ##              No original listings of this program are available;
000008:                                                                                                  ##              instead, this file was created via disassembly of dumps
000009:                                                                                                  ##              of various revisions of Sundance core rope modules.
000010:                                                                                                  ## Assembler:   yaYUL
000011:                                                                                                  ## Contact:     Ron Burkey <info@sandroid.org>.
000012:                                                                                                  ## Website:     www.ibiblio.org/apollo/index.html
000013:                                                                                                  ## Mod history: 2020-06-17 MAS  Created from Luminary 69.
000014:
000015:                                                                                                  ## Sundance 292
000016:
000017:                                                                                                  #  STABLE ORBIT RENDEZVOUS PROGRAMS (P38 AND P78)
000018:
000019:                                                                                                  #  MOD NO -1             LOG SECTION - STABLE ORBIT - P38-P39
000020:                                                                                                  #  MOD BY RUDNICKI.S     DATE 25JAN68
000021:
000022:                                                                                                  #  FUNCTIONAL DESCRIPTION
000023:
000024:                                                                                                  #        P38 AND P78 CALCULATE THE REQUIRED DELTA V AND OTHER INITIAL
000025:                                                                                                  #        CONDITIONS REQUIRED BY THE AGC TO (1) PUT THE ACTIVE VEHICLE
000026:                                                                                                  #        ON A TRANSFER TRAJECTORY THAT INTERCEPTS THE PASSIVE VEHICLE
000027:                                                                                                  #        ORBIT A GIVEN DISTANCE, DELTA R, EITHER AHEAD OF OR BEHIND THE
000028:                                                                                                  #        PASSIVE VEHICLE AND (2) ACTUALLY PLACE THE ACTIVE VEHICLE IN THE
000029:                                                                                                  #        PASSIVE VEHICLE ORBIT WITH A DELTA R SEPARATION BETWEEN THE TWO
000030:                                                                                                  #        VEHICLES
000031:
000032:                                                                                                  #  CALLING SEQUENCE
000033:
000034:                                                                                                  #        ASTRONAUT REQUEST THRU DSKY
000035:
000036:                                                                                                  #        V37E38E         IF THIS VEHICLE IS ACTIVE VEHICLE
000037:                                                                                                  #        V37E78E         IF OTHER VEHICLE IS ACTIVE VEHICLE
000038:
000039:                                                                                                  #  INPUT
000040:
000041:                                                                                                  #        (1)     SOI MANEUVER
000042:
000043:                                                                                                  #                (A)  TIG        TIME OF SOI MANEUVER
000044:                                                                                                  #                (B)  CENTANG    ORBITAL CENTRAL ANGLE OF THE PASSIVE VEHICLE
000045:                                                                                                  #                                DURING TRANSFER FROM TIG TO TIME OF INTERCEPT
000046:                                                                                                  #                (C)  DELTAR     THE DESIRED SEPARATION OF THE TWO VEHICLES
000047:                                                                                                  #                                SPECIFIED AS A DISTANCE ALONG THE PASSIVE VEHICLE
000048:                                                                                                  #                                ORBIT
000049:                                                                                                  #                (D)  OPTION     EQUALS 1 FOR SOI
000050:
000051:                                                                                                  #        (2)     SOR MANEUVER
000052:
000053:                                                                                                  #                (A)  TIG        TIME OF SOR MANEUVER
000054:                                                                                                  #                (B)  CENTANG    AN OPTIONAL RESPECIFICATION OF 1 (B) ABOVE
000055:                                                                                                  #                (C)  OPTION     EQUALS 2 FOR SOR
000056:                                                                                                  #                (D)  DELTTIME   THE TIME REQUIRED TO TRAVERSE DELTA R WHEN
000057:                                                                                                  #                                TRAVELING AT A VELOCITY EQUAL TO THE HORIZONTAL
000058:                                                                                                  #                                VELOCITY OF THE PASSIVE VEHICLE - SAVED FROM
000059:                                                                                                  #                                SOI PHASE
000060:                                                                                                  #                (E)  TINT       TIME OF INTERCEPT (SOI) - SAVED FROM SOI PHASE
000061:
000062:                                                                                                  #  OUTPUT
000063:
000064:                                                                                                  #        (1)  TRKMKCNT   NUMBER OF MARKS
000065:                                                                                                  #        (2)  TTOGO      TIME TO GO
000066:                                                                                                  #        (3)  +MGA       MIDDLE GIMBAL ANGLE
000067:                                                                                                  #        (4)  DSPTEM1    TIME OF INTERCEPT OF PASSIVE VEHICLE ORBIT
000068:                                                                                                  #                        (FOR SOI ONLY)
000069:                                                                                                  #        (5)  POSTTPI    PERIGEE ALTITUDE OF ACTIVE VEHICLE ORBIT AFTER
000070:                                                                                                  #                        THE SOI (SOR) MANEUVER
000071:                                                                                                  #        (6)  DELVTPI    MAGNITUDE OF DELTA V AT SOI (SOR) TIME
000072:                                                                                                  #        (7)  DELVTPF    MAGNITUDE OF DELTA V AT INTERCEPT TIME
000073:                                                                                                  #        (8)  DELVLVC    DELTA VELOCITY AT SOI (AND SOR) - LOCAL VERTICAL
000074:                                                                                                  #                        COORDINATES
000075:
000076:                                                                                                  #  SUBROUTINES USED
000077:
000078:                                                                                                  #        AVFLAGA
000079:                                                                                                  #        AVFLAGP
000080:                                                                                                  #        VNDSPLY
000081:                                                                                                  #        BANKCALL
000082:                                                                                                  #        GOFLASHR
000083:                                                                                                  #        GOTOPOOH
000084:                                                                                                  #        BLANKET
000085:                                                                                                  #        ENDOFJOB
000086:                                                                                                  #        PREC/TT
000087:                                                                                                  #        SELECTMU
000088:                                                                                                  #        INTRPVP
000089:                                                                                                  #        MAINRTNE
000090:
000091: 04,2663                                           BANK     04
000092: 34,2000                                           SETLOC   STBLEORB
000093: 34,2000                                           BANK
000094:
000095: 34,3411  E7,1455                                  EBANK=   SUBEXIT
000096: 34,3411                                           COUNT*   $$/P3879
000097:
000098: 34,3411           04655        P38                TC       BANKCALL
000099: 34,3412           72405                           CADR     AVFLAGA                               #  THIS VEHICLE ACTIVE
000100: 34,3413           03416                           TC       +3
000101: 34,3414           04655        P78                TC       BANKCALL
000102: 34,3415           72412                           CADR     AVFLAGP                               #  OTHER VEHICLE ACTIVE
000103: 34,3416           33745                           CAF      V06N33SR                              #  DISPLAY TIG
000104: 34,3417           03734                           TC       VNDSPLY
000105: 34,3420           33746                           CAF      V06N55SR                              #  DISPLAY CENTANG
000106: 34,3421           04655                           TCR      BANKCALL
000107: 34,3422           20544                           CADR     GOFLASHR
000108: 34,3423           14106                           TCF      GOTOPOOH                              #  TERMINATE
000109: 34,3424           13431                           TCF      +5                                    #  PROCEED
000110: 34,3425           13420                           TCF      -5                                    #  RECYCLE
000111: 34,3426           36221                           CAF      THREE                                 #  IMMEDIATE RETURN - BLANK R1, R2
000112: 34,3427           05553                           TCR      BLANKET
000113: 34,3430           15225                           TCF      ENDOFJOB
000114: 34,3431           35031                           CAF      FIVE
000115: 34,3432           55155                           TS       OPTION1
000116: 34,3433           35026                           CAF      ONE
000117: 34,3434           55156                           TS       OPTION2                               #  OPTION CODE IS SET TO 1
000118: 34,3435           33747                           CAF      V04N06SR                              #  DISPLAY OPTION CODE - 1 = SOI, 2 = SOR
000119: 34,3436           04655                           TCR      BANKCALL
000120: 34,3437           20544                           CADR     GOFLASHR
000121: 34,3440           14106                           TCF      GOTOPOOH                              #  TERMINATE
000122: 34,3441           13446                           TCF      +5                                    #  PROCEED
000123: 34,3442           13435                           TCF      -5                                    #  RECYCLE
000124: 34,3443           35024                           CAF      BIT3                                  #  IMMEDIATE RETURN - BLANK R3
000125: 34,3444           05553                           TCR      BLANKET
000126: 34,3445           15225                           TCF      ENDOFJOB
000127: 34,3446           06014                           TC       INTPRET
000128: 34,3447           70535                           SLOAD    SR1
000129: 34,3450           01157                                    OPTION2
000130: 34,3451           71230                           BHIZ     DLOAD
000131: 34,3452           71460                                    OPTN1
000132: 34,3453           03616                                    TINT
000133: 34,3454           02317                           STORE    TINTSOI                               #  STORE FOR SOR PHASE
000134: 34,3455           77614                           CLRGO
000135: 34,3456           01230                                    OPTNSW                                #  OPTNSW; ON = SOI, OFF = SOR
000136: 34,3457           71504                                    JUNCTN1
000137: 34,3460           45014        OPTN1              SET      CALL                                  #  SOI
000138: 34,3461           01070                                    OPTNSW
000139: 34,3462           71667                                    PREC/TT
000140: 34,3463           77615                           DAD
000141: 34,3464           03425                                    TIG
000142: 34,3465           03616                           STORE    TINT                                  #  TI = TIG + TF
000143: 34,3466           01047                           STORE    DSPTEM1
000144: 34,3467           77776                           EXIT
000145: 34,3470           33750                           CAF      V06N57SR                              #  DISPLAY DELTA R
000146: 34,3471           04655                           TCR      BANKCALL
000147: 34,3472           20544                           CADR     GOFLASHR
000148: 34,3473           14106                           TCF      GOTOPOOH                              #  TERMINATE
000149: 34,3474           13501                           TCF      +5                                    #  PROCEED
000150: 34,3475           13470                           TCF      -5                                    #  RECYCLE
000151: 34,3476           36216                           CAF      SIX                                   #  IMMEDIATE RETURN - BLANK R2, R3
000152: 34,3477           05553                           TCR      BLANKET
000153: 34,3500           15225                           TCF      ENDOFJOB
000154: 34,3501           33751                 +5        CAF      V06N34SR                              #  DISPLAY TIME OF INTERCEPT
000155: 34,3502           03734                           TC       VNDSPLY
000156: 34,3503           06014                           TC       INTPRET
000157: 34,3504           45014        JUNCTN1            CLEAR    CALL
000158: 34,3505           04266                                    P39/79SW
000159: 34,3506           20045                                    SELECTMU                              #  SELECT MU, CLEAR FINALFLG, GO TO VN1645
000160: 34,3507           77624        RECYCLE            CALL
000161: 34,3510           71667                                    PREC/TT
000162: 34,3511           71214                           BOFF     DLOAD
000163: 34,3512           01350                                    OPTNSW
000164: 34,3513           71533                                    OPTN2
000165: 34,3514           03616                                    TINT
000166: 34,3515           34041                           STCALL   TDEC1                                 #  PRECISION UPDATE PASSIVE VEHICLE TO
000167: 34,3516           71720                                    INTRPVP                               #     INTERCEPT TIME
000168: 34,3517           53575                           VLOAD    UNIT
000169: 34,3520           00001                                    RATT                                  #  RP/(RP)
000170: 34,3521           47315                           PDVL     VXV
000171: 34,3522           00007                                    VATT
000172: 34,3523           60246                           ABVAL    NORM                                  #  (VP X RP/(RP))
000173: 34,3524           00047                                    X1
000174: 34,3525           56325                           PDDL     DDV
000175: 34,3526           02317                                    DELTAR
000176: 34,3527           77657                           SL*                                            #  DELTA R / (VP X RP/RP)
000177: 34,3530           20172                                    0          -7,1
000178: 34,3531           36321                           STCALL   DELTTIME                              #  DELTA T = (RP) DELTA R / (VP X RP)
000179: 34,3532           71537                                    JUNCTN2
000180: 34,3533           43345        OPTN2              DLOAD    DAD
000181: 34,3534           02317                                    TINTSOI
000182: 34,3535           00037                                    T
000183: 34,3536           03616                           STORE    TINT                                  #  TI = TI + TF
000184: 34,3537           45345        JUNCTN2            DLOAD    DSU
000185: 34,3540           03616                                    TINT
000186: 34,3541           02321                                    DELTTIME
000187: 34,3542           02323                           STORE    TARGTIME                              #  TT = TI - DELTA T
000188:
000189:                                                                                                  #  .... MAINRTNE ....
000190:
000191:                                                                                                  #  SUBROUTINES USED
000192:
000193:                                                                                                  #        S3435.25
000194:                                                                                                  #        PERIAPO1
000195:                                                                                                  #        SHIFTR1
000196:                                                                                                  #        VNDSPLY
000197:                                                                                                  #        BANKCALL
000198:                                                                                                  #        GOFLASH
000199:                                                                                                  #        GOTOPOOH
000200:                                                                                                  #        VN1645
000201:
000202: 34,3543           34041        MAINRTNE           STCALL   TDEC1                                 #  PRECISION UPDATE PASSIVE VEHICLE TO
000203: 34,3544           71720                                    INTRPVP                               #     TARGET TIME
000204: 34,3545           77745                           DLOAD
000205: 34,3546           03425                                    TIG
000206: 34,3547           03577                           STORE    INTIME
000207: 34,3550           77331                           SSP      VLOAD
000208: 34,3551           03451                                    NORMEX
000209: 34,3552           71556                                    TEST3979
000210: 34,3553           00001                                    RATT
000211: 34,3554           77624                           CALL
000212: 34,3555           73256                                    S3435.25
000213: 34,3556           43014        TEST3979           BOFF     BON
000214: 34,3557           04346                                    P39/79SW
000215: 34,3560           71567                                    MAINRTN1
000216: 34,3561           01311                                    FINALFLG
000217: 34,3562           71565                                    P39P79
000218: 34,3563           77614                           SET
000219: 34,3564           00470                                    UPDATFLG
000220: 34,3565           77776        P39P79             EXIT
000221: 34,3566           03614                           TC       DSPLY81                               #  FOR P39 AND P79
000222: 34,3567           51575        MAINRTN1           VLOAD    ABVAL
000223: 34,3570           03363                                    DELVEET3
000224: 34,3571           27563                           STOVL    DELVTPI                               #  DELTA V
000225: 34,3572           03473                                    VPASS4
000226: 34,3573           51451                           VSU      ABVAL
000227: 34,3574           03553                                    VTPRIME
000228: 34,3575           27565                           STOVL    DELVTPF                               #  DELTA V (FINAL) = V'T - VT
000229: 34,3576           03523                                    RACT3
000230: 34,3577           45115                           PDVL     CALL
000231: 34,3600           02357                                    VIPRIME
000232: 34,3601           46106                                    PERIAPO1                              #  GET PERIGEE ALTITUDE
000233: 34,3602           77624                           CALL
000234: 34,3603           46216                                    SHIFTR1
000235: 34,3604           03575                           STORE    POSTTPI
000236: 34,3605           43014                           BON      SET
000237: 34,3606           01311                                    FINALFLG
000238: 34,3607           71611                                    DSPLY58
000239: 34,3610           00470                                    UPDATFLG
000240: 34,3611           77776        DSPLY58            EXIT
000241: 34,3612           33752                           CAF      V06N58SR                              #  DISPLAY HP, DELTA V, DELTA V (FINAL)
000242: 34,3613           03734                           TC       VNDSPLY
000243: 34,3614           33753        DSPLY81            CAF      V06N81SR                              #  DISPLAY DELTA V (LV)
000244: 34,3615           03734                           TC       VNDSPLY
000245: 34,3616           06014                           TC       INTPRET
000246: 34,3617           77214                           CLEAR    VLOAD
000247: 34,3620           01267                                    XDELVFLG
000248: 34,3621           03363                                    DELVEET3
000249: 34,3622           37643                           STCALL   DELVSIN
000250: 34,3623           73505                                    VN1645                                #  DISPLAY TRKMKCNT, TTOGO, +MGA
000251: 34,3624           52014                           BON      GOTO
000252: 34,3625           04306                                    P39/79SW
000253: 34,3626           71662                                    P39/P79B
000254: 34,3627           71507                                    RECYCLE
000255:
000256:                                                                                                  #  STABLE ORBIT MIDCOURSE PROGRAM (P39 AND P79)
000257:
000258:                                                                                                  #  MOD NO -1             LOG SECTION - STABLE ORBIT - P38-P39
000259:                                                                                                  #  MOD BY RUDNICKI.S     DATE 25JAN68
000260:
000261:                                                                                                  #  FUNCTIONAL DESCRIPTION
000262:
000263:                                                                                                  #        P39 AND P79 CALCULATE THE REQUIRED DELTA V AND OTHER INITIAL
000264:                                                                                                  #        CONDITIONS REQUIRED BY THE AGC TO MAKE A MIDCOURSE CORRECTION
000265:                                                                                                  #        MANEUVER AFTER COMPLETING THE SOI MANEUVER BUT BEFORE MAKING
000266:                                                                                                  #        THE SOR MANEUVER
000267:
000268:                                                                                                  #  CALLING SEQUENCE
000269:
000270:                                                                                                  #        ASTRONAUT REQUEST THRU DSKY
000271:
000272:                                                                                                  #        V37E39E         IF THIS VEHICLE IS ACTIVE VEHICLE
000273:                                                                                                  #        V37E79E         IF OTHER VEHICLE IS ACTIVE VEHICLE
000274:
000275:                                                                                                  #  INPUT
000276:
000277:                                                                                                  #        (1)  TPASS4     TIME OF INTERCEPT - SAVED FROM P38/P78
000278:                                                                                                  #        (2)  TARGTIME   TIME THAT PASSIVE VEHICLE IS AT INTERCEPT POINT -
000279:                                                                                                  #                        SAVED FROM P38/P78
000280:
000281:                                                                                                  #  OUTPUT
000282:
000283:                                                                                                  #        (1)  TRKMKCNT   NUMBER OF MARKS
000284:                                                                                                  #        (2)  TTOGO      TIME TO GO
000285:                                                                                                  #        (3)  +MGA       MIDDLE GIMBAL ANGLE
000286:                                                                                                  #        (4)  DELVLVC    DELTA VELOCITY AT MID - LOCAL VERTICAL COORDINATES
000287:
000288:                                                                                                  #  SUBROUTINES USED
000289:
000290:                                                                                                  #        AVFLAGA
000291:                                                                                                  #        AVFLAGP
000292:                                                                                                  #        LOADTIME
000293:                                                                                                  #        SELECTMU
000294:                                                                                                  #        PRECSET
000295:                                                                                                  #        S34/35.1
000296:                                                                                                  #        MAINRTNE
000297:
000298: 34,3630           04655        P39                TC       BANKCALL
000299: 34,3631           72405                           CADR     AVFLAGA                               #  THIS VEHICLE ACTIVE
000300: 34,3632           00006                           EXTEND
000301: 34,3633           31401                           DCA      ATIGINC
000302: 34,3634           03641                           TC       P39/P79A
000303: 34,3635           04655        P79                TC       BANKCALL
000304: 34,3636           72412                           CADR     AVFLAGP                               #  OTHER VEHICLE ACTIVE
000305: 34,3637           00006                           EXTEND
000306: 34,3640           31403                           DCA      PTIGINC
000307: 34,3641           53563        P39/P79A           DXCH     KT                                    #  TIME TO PREPARE FOR BURN
000308: 34,3642           06014                           TC       INTPRET
000309: 34,3643           43234                           RTB      DAD
000310: 34,3644           21454                                    LOADTIME
000311: 34,3645           03563                                    KT
000312: 34,3646           37425                           STCALL   TIG
000313: 34,3647           20045                                    SELECTMU                              #  SELECT MU, CLEAR FINALFLG, GO TO VN1645
000314: 34,3650           43145        P39/P79C           DLOAD    SET
000315: 34,3651           03425                                    TIG
000316: 34,3652           04066                                    P39/79SW
000317: 34,3653           34041                           STCALL   TDEC1                                 #  PRECISION UPDATE ACTIVE AND PASSIVE
000318: 34,3654           46150                                    PRECSET                               #     VEHICLES TO TIG
000319: 34,3655           77624                           CALL
000320: 34,3656           73231                                    S34/35.1                              #  GET UNIT NORMAL
000321: 34,3657           52145                           DLOAD    GOTO
000322: 34,3660           02323                                    TARGTIME
000323: 34,3661           71543                                    MAINRTNE                              #  CALCULATE DELTA V AND DELTA V (LV)
000324:
000325: 34,3662           43234        P39/P79B           RTB      DAD
000326: 34,3663           21454                                    LOADTIME
000327: 34,3664           03563                                    KT
000328: 34,3665           37425                           STCALL   TIG                                   #  TIG = T (PRESENT) + PREPARATION TIME
000329: 34,3666           71650                                    P39/P79C
000330:
000331:                                                                                                  #  .... PREC/TT ....
000332:                                                                                                  #  SUBROUTINES USED
000333:
000334:                                                                                                  #        PRECSET
000335:                                                                                                  #        TIMETHET
000336:                                                                                                  #        S34/35.1
000337:
000338: 34,3667           71220        PREC/TT            STQ      DLOAD
000339: 34,3670           03452                                    RTRN
000340: 34,3671           03425                                    TIG
000341: 34,3672           34041                           STCALL   TDEC1                                 #  PRECISION UPDATE ACTIVE AND PASSIVE
000342: 34,3673           46150                                    PRECSET                               #     VEHICLES TO TIG
000343: 34,3674           53775                           VLOAD    VSR*
000344: 34,3675           03537                                    RPASS3
000345: 34,3676           57176                                    0,2
000346: 34,3677           16655                           STODL    RVEC
000347: 34,3700           03606                                    CENTANG
000348: 34,3701           71406                           PUSH     COS
000349: 34,3702           16732                           STODL    CSTH
000350: 34,3703           43156                           SIN      SET
000351: 34,3704           03466                                    RVSW
000352: 34,3705           26730                           STOVL    SNTH
000353: 34,3706           03545                                    VPASS3
000354: 34,3707           77657                           VSR*
000355: 34,3710           57176                                    0,2
000356: 34,3711           36744                           STCALL   VVEC                                  #  GET TRANSFER TIME BASED ON CENTANG OF
000357: 34,3712           24732                                    TIMETHET                              #     PASSIVE VEHICLE
000358: 34,3713           77624                           CALL
000359: 34,3714           73231                                    S34/35.1                              #  GET UNIT NORMAL
000360: 34,3715           52145                           DLOAD    GOTO
000361: 34,3716           00037                                    T
000362: 34,3717           03452                                    RTRN
000363:
000364:                                                                                                  #  .... INTRPVP ....
000365:                                                                                                  #  SUBROUTINES USED
000366:
000367:                                                                                                  #        CSMPREC
000368:                                                                                                  #        LEMPREC
000369: 34,3720           43020        INTRPVP            STQ      BOFF                                  #  PRECISION UPDATE PASSIVE VEHICLE TO
000370: 34,3721           03452                                    RTRN                                  #     TDEC1
000371: 34,3722           01352                                    AVFLAG
000372: 34,3723           71730                                    OTHERV
000373: 34,3724           77624                           CALL
000374: 34,3725           27014                                    CSMPREC
000375: 34,3726           77650                           GOTO
000376: 34,3727           03452                                    RTRN
000377: 34,3730           77624        OTHERV             CALL
000378: 34,3731           27030                                    LEMPREC
000379: 34,3732           77650                           GOTO
000380: 34,3733           03452                                    RTRN
000381:
000382:                                                                                                  #  .... VNDSPLY ....
000383:                                                                                                  #  SUBROUTINES USED
000384:
000385:                                                                                                  #        BANKCALL
000386:                                                                                                  #        GOFLASH
000387:                                                                                                  #        GOTOPOOH
000388:
000389: 34,3734           00006        VNDSPLY            EXTEND                                         #  FLASH DISPLAY
000390: 34,3735           23452                           QXCH     RTRN
000391: 34,3736           55602                           TS       VERBNOUN
000392: 34,3737           31602                           CA       VERBNOUN
000393: 34,3740           04655                           TCR      BANKCALL
000394: 34,3741           20406                           CADR     GOFLASH
000395: 34,3742           14106                           TCF      GOTOPOOH                              #  TERMINATE
000396: 34,3743           01452                           TC       RTRN                                  #  PROCEED
000397: 34,3744           13737                           TCF      -5                                    #  RECYCLE
000398: 34,3745           01441        V06N33SR           VN       0633
000399: 34,3746           01467        V06N55SR           VN       0655
000400: 34,3747           01006        V04N06SR           VN       0406
000401: 34,3750           01471        V06N57SR           VN       0657
000402: 34,3751           01442        V06N34SR           VN       0634
000403: 34,3752           01472        V06N58SR           VN       0658
000404: 34,3753           01521        V06N81SR           VN       0681
000405:
000406:
000407:

End of include-file STABLE_ORBIT_-_P38-P39.agc.  Parent file is MAIN.agc


