
Source Code


000002:                                                                                                  ## Copyright:   Public domain.
000003:                                                                                                  ## Filename:    SYSTEM_TEST_STANDARD_LEAD_INS.agc
000004:                                                                                                  ## Purpose:     A section of a reconstructed, mixed version of Sundance
000005:                                                                                                  ##              It is part of the reconstructed source code for the Lunar
000006:                                                                                                  ##              Module's (LM) Apollo Guidance Computer (AGC) for Apollo 9.
000007:                                                                                                  ##              No original listings of this program are available;
000008:                                                                                                  ##              instead, this file was created via disassembly of dumps
000009:                                                                                                  ##              of various revisions of Sundance core rope modules.
000010:                                                                                                  ## Assembler:   yaYUL
000011:                                                                                                  ## Contact:     Ron Burkey <info@sandroid.org>.
000012:                                                                                                  ## Website:     www.ibiblio.org/apollo/index.html
000013:                                                                                                  ## Mod history: 2020-06-17 MAS  Created from Luminary 69.
000014:
000015:                                                                                                  ## Sundance 292
000016: 22,3236  E5,1642                                  EBANK=   XSM
000017:
000018: 33,2000                                           BANK     33
000019: 04,2000                                           SETLOC   E/PROG
000020: 04,2000                                           BANK
000021:
000022: 04,2450                                           COUNT*   $$/P07
000023:
000024:                                                                                                  #  SPECIAL PROGRAMS TO EASE THE PANGS OF ERASABLE MEMORY PROGRAMS.
000025:
000026:                                                                                                  #  E/BKCALL      FOR DOING BANKCALLS FROM AND RETURNING TO ERASABLE.
000027:
000028:                                                                                                  #  THIS ROUTINE IS CALLABLE FROM ERASABLE OR FIXED.  LIKE BANKCALL, HOWEVER, SWITCHING BETWEEN S3 AND S4
000029:                                                                                                  #  IS NOT POSSIBLE.
000030:
000031:                                                                                                  #  THE CALLING SEQUENCE IS:
000032:
000033:                                                                                                  #        TC      BANKCALL
000034:                                                                                                  #        CADR    E/BKCALL
000035:                                                                                                  #        CADR    ROUTINE         WHERE YOU WANT TO GO IN FIXED.
000036:                                                                                                  #        RETURN HERE FROM DISPLAY TERMINATE, BAD STALL OR TC Q.
000037:                                                                                                  #        RETURN HERE FROM DISPLAY PROCEED OR GOOD RETURN FROM STALL.
000038:                                                                                                  #        RETURN HERE FROM DISPLAY ENTER OR RECYCLE.
000039:
000040:                                                                                                  #  THIS ROUTINE REQUIRES TWO ERASABLES (EBUF2, +1) IN UNSWITCHED WHICH ARE UNSHARED BY INTERRUPTS AND
000041:                                                                                                  #  OTHER EMEMORY PROGRAMS.
000042:
000043:                                                                                                  #  A + L ARE PRESERVED THROUGH BANKCALL AND E/BKCALL.
000044:
000045: 04,2450           52134        E/BKCALL           DXCH     BUF2                                  #  SAVE A,L AND GET DP RETURN.
000046: 04,2451           52302                           DXCH     EBUF2                                 #  SAVE DP RETURN.
000047: 04,2452           24301                           INCR     EBUF2                                 #  RETURN +1 BECAUSE DOUBLE CADR.
000048: 04,2453           30006                           CA       BBANK
000049: 04,2454           75062                           MASK     LOW10                                 #  GET CURRENT EBANK.  (SBANK SOMEDAY)
000050: 04,2455           26302                           ADS      EBUF2      +1                         #  FORM BBCON.  (WAS FBANK)
000051: 04,2456           50301                           NDX      EBUF2
000052: 04,2457           27777                           CA       0          -1                         #  GET CADR OF ROUTINE.
000053: 04,2460           04661                           TC       SWCALL                                #  GO TO ROUTINE, SETTING Q TO SWRETURN
000054:                                                                                                  #  AND RESTORING A + L.
000055: 04,2461           02465                           TC       +4                                    #  TX Q, V34, OR BAD STALL RETURN.
000056: 04,2462           02464                           TC       +2                                    #  PROCEED OR GOOD STALL RETURN.
000057: 04,2463           24301                           INCR     EBUF2                                 #  ENTER OR RECYCLE RETURN.
000058: 04,2464           24301                           INCR     EBUF2
000059: 04,2465           52302        E/SWITCH           DXCH     EBUF2
000060: 04,2466           52006                           DTCB
000061:
000062:                                                                                                  #  E/CALL        FOR CALLING A FIXED MEMORY INTERPRETIVE SUBROUTINE FROM ERASABLE AND RETURNING TO ERASABLE.
000063:
000064:                                                                                                  #  THE CALLING SEQUENCE IS...
000065:
000066:                                                                                                  #        RTB
000067:                                                                                                  #                E/CALL
000068:                                                                                                  #        CADR    ROUTINE                 THE INTERPRETIVE SUBROUTINE YOU WANT.
000069:                                                                                                  #                                        RETURNS HERE IN INTERPRETIVE.
000070:
000071: 04,2467           22164        E/CALL             LXCH     LOC                                   #  ADRES -1 OF CADR.
000072: 04,2470           50001                           INDEX    L
000073: 04,2471           30001                           CA       L                                     #  CADR IN A.
000074: 04,2472           24001                           INCR     L
000075: 04,2473           24001                           INCR     L                                     #  RETURN ADRES IN L.
000076: 04,2474           52302                           DXCH     EBUF2                                 #  STORE CADR AND RETURN.
000077: 04,2475           06014                           TC       INTPRET
000078: 04,2476           77624                           CALL
000079: 04,2477           00301                                    EBUF2                                 #  INDIRECTLY EXECUTE ROUTINE.  IT MUST
000080: 04,2500           77776                           EXIT                                           #  LEAVE VIA RVQ OR EQUIVALENT.
000081: 04,2501           22302                           LXCH     EBUF2      +1                         #  PICK UP RETURN.
000082: 04,2502           16015                           TCF      INTPRET    +1                         #  SET LOC AND RETURN TO CALLER.
000083:
000084:                                                                                                  #  E/JOBWAK      FOR WAKING UP ERASABLE MEMORY JOBS.
000085:
000086:                                                                                                  #  THIS ROUTINE MUST BE CALLED IN INTERRUPT OR WITH INTERRUPTS INHIBITED.
000087:
000088:                                                                                                  #  THE CALLING SEQUENCE IS:
000089:
000090:                                                                                                  #        INHINT
000091:                                                                                                  #          .
000092:                                                                                                  #          .
000093:                                                                                                  #        CA      WAKEADR         ADDRESS OF SLEEPING JOB
000094:                                                                                                  #        TC      IBNKCALL
000095:                                                                                                  #        CADR    E/JOBWAK
000096:                                                                                                  #          .                     RETURNS HERE
000097:                                                                                                  #          .
000098:                                                                                                  #          .
000099:                                                                                                  #        RELINT                  IF YOU DID AN INHINT.
000100:
000101: 33,2000                                           BANK     33
000102: 04,2000                                           SETLOC   E/PROG
000103: 04,2000                                           BANK
000104:
000105: 04,2503                                           COUNT*   $$/P07
000106:
000107: 04,2503           05207        E/JOBWAK           TC       JOBWAKE                               #  ARRIVE IWTH ADRES IN A.
000108: 04,2504           45014                           CS       BIT11
000109: 04,2505           50064                           NDX      LOCCTR
000110: 04,2506           26164                           ADS      LOC                                   #  KNOCK FIXED MEMORY BIT OUT OF ADRES.
000111: 04,2507           00072                           TC       RUPTREG3                              #  RETURN
000112:

End of include-file SYSTEM_TEST_STANDARD_LEAD_INS.agc.  Parent file is MAIN.agc


