
Source Code


000002:                                                                                                  ## Copyright:   Public domain.
000003:                                                                                                  ## Filename:    T6-RUPT_PROGRAMS.agc
000004:                                                                                                  ## Purpose:     A section of a reconstructed, mixed version of Sundance
000005:                                                                                                  ##              It is part of the reconstructed source code for the Lunar
000006:                                                                                                  ##              Module's (LM) Apollo Guidance Computer (AGC) for Apollo 9.
000007:                                                                                                  ##              No original listings of this program are available;
000008:                                                                                                  ##              instead, this file was created via disassembly of dumps
000009:                                                                                                  ##              of various revisions of Sundance core rope modules.
000010:                                                                                                  ## Assembler:   yaYUL
000011:                                                                                                  ## Contact:     Ron Burkey <info@sandroid.org>.
000012:                                                                                                  ## Website:     www.ibiblio.org/apollo/index.html
000013:                                                                                                  ## Mod history: 2020-06-17 MAS  Created from Luminary 69.
000014:
000015:                                                                                                  ## Sundance 302
000016:
000017:                                                                                                  #  PROGRAM NAMES:        (1) T6JOBCHK    MOD. NO. 5      OCTOBER 2, 1967
000018:                                                                                                  #                        (2) DOT6RUPT
000019:                                                                                                  #  MODIFICATION BY:      LOWELL G HULL (A.C.ELECTRONICS)
000020:
000021:                                                                                                  #  THESE PROGRAMS ENABLE THE LM DAP TO CONTROL THE THRUST TIMES OF THE REACTION CONTROL SYSTEM JETS BY USING TIME6.
000022:                                                                                                  #  SINCE THE LM DAP MAINTAINS EXCLUSIVE CONTROL OVER TIME6 AND ITS INTERRUPTS, THE FOLLOWING CONVENTIONS HAVE BEEN
000023:                                                                                                  #  ESTABLISHED AND MUST NOT BE TAMPERED WITH:
000024:                                                                                                  #        1.      NO NUMBER IS EVER PLACED INTO TIME6 EXCEPT BY LM DAP.
000025:                                                                                                  #        2.      NO PROGRAM OTHER THAN LM DAP ENABLES THE TIME6 COUNTER.
000026:                                                                                                  #        3.      TO USE TIME6, THE FOLLOWING SEQUENCE IS ALWAYS EMPLOYED:
000027:                                                                                                  #                A.      A POSITIVE (NON-ZERO) NUMBER IS STORED IN TIME6.
000028:                                                                                                  #                B.      THE TIME6 CLOCK IS ENABLED.
000029:                                                                                                  #                C.      TIME6 IS INTERROGATED AND IS:
000030:                                                                                                  #                        I.      NEVER FOUND NEGATIVE (NON-ZERO) OR +0.
000031:                                                                                                  #                        II.     SOMETIMES FOUND POSITIVE (BETWEEN 1 AND 240D) INDICATING THAT IT IS ACTIVE.
000032:                                                                                                  #                        III.    SOMETIMES FOUND POSMAX INDICATING THAT IT IS INACTIVE AND NOT ENABLED.
000033:                                                                                                  #                        IV.     SOMETIMES FOUND NEGATIVE ZERO INDICATING THAT:
000034:                                                                                                  #                                A.      A T6RUPT IS ABOUT TO OCCUR AT THE NEXT DINC, OR
000035:                                                                                                  #                                B.      A T6RUPT IS WAITING IN THE PRIORITY CHAIN, OR
000036:                                                                                                  #                                C.      A T6RUPT IS IN PROCESS NOW.
000037:                                                                                                  #        4)      ALL PROGRAMS WHICH OPERATE IN EITHER INTERRUPT MODE OR WITH INTERRUPT INHIBITED MUST CALL T6JOBCHK
000038:                                                                                                  #                EVERY 5 MILLISECONDS TO PROCESS A POSSIBLE WAITING T6RUPT BEFORE IT CAN BE HONORED BY THE HARDWARE.
000039:                                                                                                  #       (5.      PROGRAM JTLST, IN Q,R-AXES, HANDLES THE INPUT LIST.)
000040:
000041:                                                                                                  #  T6JOBCHK CALLING SEQUENCE:
000042:                                                                                                  #                L       TC      T6JOBCHK
000043:                                                                                                  #                L+1     (RETURN)
000044:
000045:                                                                                                  #  DOT6RUPT CALLING SEQUENCE:
000046:                                                                                                  #                        DXCH    ARUPT           T6RUPT LEAD IN AT LOCATION 4004.
000047:                                                                                                  #                        EXTEND
000048:                                                                                                  #                        DCA     T6ADR
000049:                                                                                                  #                        DTCB
000050:
000051:                                                                                                  #  SUBROUTINES CALLED:   DOT6RUPT CALLS T6JOBCHK.
000052:
000053:                                                                                                  #  NORMAL EXIT MODES:    T6JOBCHK RETURNS TO L +1.
000054:                                                                                                  #                        DOT6RUPT TRANSFERS CONTROL TO RESUME.
000055:
000056:                                                                                                  #  ALARM/ABORT MODES:    NONE.
000057:
000058:                                                                                                  #  INPUT:        TIME6           NXT6ADR         OUTPUT:         TIME6           NXT6ADR         CHANNEL 5
000059:                                                                                                  #                T6NEXT          T6NEXT +1                       T6NEXT          T6NEXT +1       CHANNEL 6
000060:                                                                                                  #                T6FURTHA        T6FURTHA +1                     T6FURTHA        T6FURTHA +1     BIT15/CH13
000061:
000062:                                                                                                  #  DEBRIS:       T6JOBCHK CLOBBERS A.  DOT6RUPT CLOBBERS NOTHING.
000063:
000064:    5745                                           BLOCK    02
000065: 16,2000                                           BANK     16
000066: 16,2000                                           SETLOC   DAPS1
000067: 16,2000                                           BANK
000068: 16,2000  E6,1454                                  EBANK=   T6NEXT
000069: 16,2000                                           COUNT*   $$/DAPT6
000070:
000071: 16,2000           10031        T6JOBCHK           CCS      TIME6                                 #  CHECK TIME6 FOR WAITING T6RUPT:
000072: 16,2001           00002                           TC       Q                                     #  NONE: CLOCK COUTING DOWN.
000073: 16,2002           05723                           TC       CCSHOLE
000074: 16,2003           02003                           TC       T6JOBCHK   +3
000075:
000076:                                                                                                  #  CONTROL PASSES TO T6JOB ONLY WHEN C(TIME6) = -0 (I.E. WHEN A T6RUPT MUST BE PROCESSED).
000077:
000078: 16,2004           35006        T6JOB              CAF      POSMAX                                #  DISABLE CLOCK: NEEDED SINCE RUPT OCCURS
000079: 16,2005           00006                           EXTEND                                         #  1 DINC AFTER T6 = 77777. FOR 625 MUSECS
000080: 16,2006           03013                           WAND     CHAN13                                #  MUST NOT HAVE T6 = +0 WITH ENABLE SET
000081:
000082: 16,2007           35006                           CA       POSMAX
000083: 16,2010           22007                           ZL
000084: 16,2011           53457                           DXCH     T6FURTHA
000085: 16,2012           53455                           DXCH     T6NEXT
000086: 16,2013           23453                           LXCH     NXT6ADR
000087: 16,2014           54031                           TS       TIME6
000088:
000089: 16,2015           67677                           AD       PRIO37
000090: 16,2016           54000                           TS       A
000091: 16,2017           12023                           TCF      ENABLET6
000092: 16,2020           35006                           CA       POSMAX
000093: 16,2021           54031                           TS       TIME6
000094: 16,2022           12034                           TCF      GOCH56
000095: 16,2023           35010        ENABLET6           CA       BIT15
000096: 16,2024           00006                           EXTEND
000097: 16,2025           05013                           WOR      CHAN13
000098: 16,2026           31454                           CA       T6NEXT
000099: 16,2027           67677                           AD       PRIO37
000100: 16,2030           54000                           TS       A
000101: 16,2031           12034                           TCF      GOCH56
000102: 16,2032           35006                           CA       POSMAX
000103: 16,2033           55454                           TS       T6NEXT
000104: 16,2034           50001        GOCH56             INDEX    L
000105: 16,2035           15751                           TCF      WRITEP     -1
000106:


000108:
000109:    5745                                           BLOCK    02
000110:    4000                                           SETLOC   FFTAG9
000111:    4000                                           BANK
000112:    5745  E6,1632                                  EBANK=   CDUXD
000113:    5745                                           COUNT*   $$/DAPT6
000114:
000115:    5745           00155        NARROWDB           OCTAL    00155                                 #  0.3 DEGREE SCALED AT 45.
000116:    5746           03434        WIDEDB             OCTAL    03434                                 #  5.0 DEGREES SCALED AT 45.
000117:
000118:    5747  E6,1454                                  EBANK=   T6NEXT
000119:    5747           02036 34106  T6ADR              2CADR    DOT6RUPT                              #  2CADR OF INTERRUPT PROCESSOR.
000120:
000121:    5751           31460                           CA       NEXTP
000122:    5752           00006        WRITEP             EXTEND
000123:    5753           01006                           WRITE    CHAN6
000124:    5754           00002                           TC       Q
000125:
000126:    5755           31461                           CA       NEXTU
000127:    5756           54001        WRITEU             TS       L
000128:    5757           45772                           CS       00314OCT
000129:    5760           00006                           EXTEND
000130:    5761           02005                           RAND     CHAN5
000131:    5762           60001                           AD       L
000132:    5763           00006                           EXTEND
000133:    5764           01005                           WRITE    CHAN5
000134:    5765           00002                           TC       Q
000135:
000136:    5766           31462                           CA       NEXTV
000137:    5767           54001        WRITEV             TS       L
000138:    5770           35772                           CA       00314OCT
000139:    5771           15760                           TCF      -9D
000140:    5772           00314        00314OCT           OCT      00314
000141:


000143:
000144: 16,2036                                           BANK     16
000145: 16,2000                                           SETLOC   DAPS1
000146: 16,2000                                           BANK
000147:
000148: 16,2036  E6,1454                                  EBANK=   T6NEXT
000149: 16,2036                                           COUNT*   $$/DAPT6
000150:
000151: 16,2036           22016        DOT6RUPT           LXCH     BANKRUPT                              #  (INTERRUPT LEAD INS CONTINUED)
000152: 16,2037           00006                           EXTEND
000153: 16,2040           22012                           QXCH     QRUPT
000154:
000155: 16,2041           02000                           TC       T6JOBCHK                              #  CALL T6JOBCHK.
000156:
000157: 16,2042           15330                           TCF      RESUME                                #  END TIME6 INTERRUPT PROCESSOR.
000158:

End of include-file T6-RUPT_PROGRAMS.agc.  Parent file is MAIN.agc


