
Source Code


000002:                                                                                                  ## Copyright:   Public domain.
000003:                                                                                                  ## Filename:    THE_LUNAR_LANDING.agc
000004:                                                                                                  ## Purpose:     A section of a reconstructed, mixed version of Sundance
000005:                                                                                                  ##              It is part of the reconstructed source code for the Lunar
000006:                                                                                                  ##              Module's (LM) Apollo Guidance Computer (AGC) for Apollo 9.
000007:                                                                                                  ##              No original listings of this program are available;
000008:                                                                                                  ##              instead, this file was created via disassembly of dumps
000009:                                                                                                  ##              of various revisions of Sundance core rope modules.
000010:                                                                                                  ## Assembler:   yaYUL
000011:                                                                                                  ## Contact:     Ron Burkey <info@sandroid.org>.
000012:                                                                                                  ## Website:     www.ibiblio.org/apollo/index.html
000013:                                                                                                  ## Mod history: 2020-06-17 MAS  Created from Luminary 69.
000014:
000015:                                                                                                  ## Sundance 292
000016:
000017: 32,2671                                           BANK     32
000018: 32,2000                                           SETLOC   F2DPS*32
000019: 32,2000                                           BANK
000020:
000021: 32,2671  E7,1606                                  EBANK=   E2DPS
000022:
000023:                                                                                                  #        ****************************************
000024:                                                                                                  #        P63: THE LUNAR LANDING, BRAKING PHASE
000025:                                                                                                  #        ****************************************
000026:
000027: 32,2671                                           COUNT*   $$/P63
000028:
000029: 32,2671           05413        P63LM              TC       PHASCHNG
000030: 32,2672           04024                           OCT      04024
000031:
000032: 32,2673           04655                           TC       BANKCALL                              #  DO IMU STATUS CHECK ROUTINE R02
000033: 32,2674           11064                           CADR     R02BOTH
000034:
000035: 32,2675           33114                           CAF      P63ADRES                              #  INITIALIZE WHICH FOR BURNBABY
000036: 32,2676           55430                           TS       WHICH
000037:
000038: 32,2677           33115                           CAF      IGNADRES                              #  INITIALIZE WCHPHASE AND FLPASSO
000039: 32,2700           22007                           ZL                                             #    FOR IGNITION ALGORITHM
000040: 32,2701           53607                           DXCH     WCHPHASE
000041:
000042:
000043: 32,2702           06014        FLAGORGY           TC       INTPRET                               #  DIONYSIAN FLAG WAVING
000044: 32,2703           43014                           CLEAR    CLEAR
000045: 32,2704           02663                                    NOTHROTL
000046: 32,2705           02671                                    3AXISFLG
000047: 32,2706           43014                           CLEAR    CLEAR
000048: 32,2707           00264                                    VINHFLG
000049: 32,2710           00676                                    HINHFLG
000050: 32,2711           43014                           SET      SET
000051: 32,2712           03464                                    SWANDISP
000052: 32,2713           03067                                    MUNFLAG
000053:
000054:                                                                                                  #  ****************************************
000055:
000056: 32,2714           77201        IGNALG1            SETPD    VLOAD                                 #  FIRST SET UP INPUTS FOR RP-TO-R:-
000057: 32,2715           00001                                    0                                     #        AT 0D LANDING SITE IN MOON FIXED FRAME
000058: 32,2716           02025                                    RLS                                   #        AT 6D ESTIMATED TIME OF LANDING
000059: 32,2717           41525                           PDDL     PUSH                                  #        MPAC NON-ZERO TO INDICATE LUNAR CASE
000060: 32,2720           02021                                    TLAND
000061: 32,2721           37612                           STCALL   TPIP                                  #  ALSO SET TPIP FOR FIRST GUIDANCE PASS
000062: 32,2722           51220                                    RP-TO-R
000063: 32,2723           64312                           VSL4     MXV
000064: 32,2724           01736                                    REFSMMAT
000065: 32,2725           17630                           STODL    LAND
000066: 32,2726           02021                                    TLAND
000067: 32,2727           77625                           DSU
000068: 32,2730           25120                                    GUIDDURN
000069: 32,2731           34041                           STCALL   TDEC1                                 #  INTEGRATE STATE FORWARD TO THAT TIME
000070: 32,2732           27030                                    LEMPREC
000071: 32,2733           64375                           VLOAD    MXV
000072: 32,2734           23672                                    WMREF
000073: 32,2735           01736                                    REFSMMAT
000074: 32,2736           17622                           STODL    WM
000075: 32,2737           23672                                    WMREF
000076: 32,2740           03656                           STORE    NIGNLOOP
000077: 32,2741           03636                           STORE    TTF/8
000078:
000079: 32,2742           77745        IGNALOOP           DLOAD
000080: 32,2743           00015                                    TAT
000081: 32,2744           25234                           STOVL    PIPTIME
000082: 32,2745           00025                                    VATT1
000083: 32,2746           01543                           STORE    VCV
000084: 32,2747           74521                           MXV      VSR1
000085: 32,2750           01736                                    REFSMMAT
000086: 32,2751           27504                           STOVL    V
000087: 32,2752           00017                                    RATT1
000088: 32,2753           01535                           STORE    RCV
000089: 32,2754           64312                           VSL4     MXV
000090: 32,2755           01736                                    REFSMMAT
000091: 32,2756           37476                           STCALL   R
000092: 32,2757           67200                                    MUNGRAV
000093: 32,2760           35236                           STCALL   GDT/2
000094: 32,2761           62474                                    ?GUIDSUB                              #  WHICH DELIVERS N PASSES OF GUIDANCE
000095:
000096:                                                                                                  #  DDUMCALC IS PROGRAMMED AS FOLLOWS:-
000097:                                                                                                  #                                          2                                           -
000098:                                                                                                  #               (RIGNZ - RGU )/16 + 16(RGU  )KIGNY/B8 + (RGU - RIGNX)KIGNX/B4 + (ABVAL(VGU) - VIGN)KIGNV/B4
000099:                                                                                                  #                           2             1                 0
000100:                                                                                                  #        DDUM = -------------------------------------------------------------------------------------------
000101:                                                                                                  #                                                 10
000102:                                                                                                  #                                                2   (VGU - 16 VGU KIGNX/B4)
000103:                                                                                                  #                                                        2        0
000104:                                                                                                  #  THE NUMERATOR IS SCALED IN METERS AT 2(28).  THE DENOMINATOR IS A VELOCITY IN UNITS OF 2(10) M/CS.
000105:                                                                                                  #  THE QUOTIENT IS THUS A TIME IN UNITS OF 2(18) CENTISECONDS.  THE FINAL SHIFT RESCALES TO UNITS OF 2(28) CS.
000106:                                                                                                  #  THERE IS NO DAMPING FACTOR.  THE CONSTANTS KIGNX/B4, KIGNY/B8 AND KIGNV/B4 ARE ALL NEGATIVE IN SIGN.
000107:
000108: 32,2762           45345        DDUMCALC           DLOAD    DSU                                   #  FORM DENOMINATOR FIRST
000109: 32,2763           25130                                    RIGNZ
000110: 32,2764           03536                                    RGU        +4
000111: 32,2765           63525                           PDDL     DSQ
000112: 32,2766           03534                                    RGU        +2
000113: 32,2767           65275                           DMPR     PDDL
000114: 32,2770           25134                                    KIGNY
000115: 32,2771           03532                                    RGU
000116: 32,2772           56225                           DSU      DDV
000117: 32,2773           25126                                    RIGNX
000118: 32,2774           25132                                    1/KIGNX
000119: 32,2775           51515                           PDVL     ABVAL
000120: 32,2776           03614                                    VGU
000121: 32,2777           57225                           DSU      DMPR
000122: 32,3000           25124                                    VIGN
000123: 32,3001           25136                                    KIGNV
000124: 32,3002           43215                           DAD      DAD
000125: 32,3003           44415                           DAD      SR4R
000126: 32,3004           54271                           DDV      SRR
000127: 32,3005           03620                                    VGU        +4
000128: 32,3006           21615                                    12D
000129:
000130: 32,3007           43206                           PUSH     DAD
000131: 32,3010           01234                                    PIPTIME
000132: 32,3011           14041                           STODL    TDEC1                                 #  STORE NEW GUESS FOR NEXT INTEGRATION
000133: 32,3012           45246                           ABS      DSU
000134: 32,3013           25122                                    DDUMCRIT
000135: 32,3014           45040                           BMN      CALL
000136: 32,3015           65031                                    DDUMGOOD
000137: 32,3016           27362                                    INTSTALL
000138: 32,3017           43014                           SET      SET
000139: 32,3020           01473                                    INTYPFLG
000140: 32,3021           00063                                    MOONFLAG
000141: 32,3022           71214                           CLEAR    DLOAD
000142: 32,3023           00262                                    MIDFLAG
000143: 32,3024           01234                                    PIPTIME
000144: 32,3025           35517                           STCALL   TET
000145: 32,3026           27060                                    INTEGRVS
000146: 32,3027           77650                           GOTO
000147: 32,3030           64742                                    IGNALOOP
000148:
000149: 32,3031           45345        DDUMGOOD           DLOAD    DSU
000150: 32,3032           00041                                    TDEC1
000151: 32,3033           03421                                    ZOOMTDP
000152: 32,3034           27425                           STOVL    TIG                                   #  COMPUTE DISTANCE LANDING SITE WILL BE
000153: 32,3035           03476                                    R                                     #        OUT OF LM'S ORBITAL PLANE AT IGNITION:
000154: 32,3036           53435                           VXV      UNIT                                  #        SIGN IS + IF LANDING SITE IS TO THE
000155: 32,3037           03504                                    V                                     #        RIGHT, NORTH; - IF TO THE LEFT, SOUTH.
000156: 32,3040           72441                           DOT      SL1
000157: 32,3041           03630                                    LAND
000158: 32,3042           26427        R60INIT            STOVL    OUTOFPLN                              #  INITIALIZATION FOR CALCMANU
000159: 32,3043           03250                                    UNFC/2
000160: 32,3044           25256                           STOVL    POINTVSM
000161: 32,3045           06231                                    UNITX
000162: 32,3046           01250                           STORE    SCAXIS
000163: 32,3047           77776                           EXIT
000164:                                                                                                  #  ****************************************
000165:
000166: 32,3050           05413        IGNALGRT           TC       PHASCHNG                              #  PREVENT REPEATING IGNALG
000167: 32,3051           04024                           OCT      04024
000168:
000169: 32,3052           04655                           TC       BANKCALL
000170: 32,3053           75053                           CADR     GOASTCLK
000171:
000172: 32,3054           35743                           CAF      OCT14
000173: 32,3055           04655                           TC       BANKCALL
000174: 32,3056           20532                           CADR     GOPERF1
000175: 32,3057           14106                           TCF      GOTOPOOH
000176: 32,3060           13062                           TCF      P63SPOT2
000177: 32,3061           13066                           TCF      +5
000178:
000179: 32,3062           06014        P63SPOT2           TC       INTPRET
000180: 32,3063           77624                           CALL
000181: 32,3064           30317                                    R51
000182: 32,3065           77776                           EXIT
000183:
000184: 32,3066           00004                           INHINT
000185: 32,3067           04737                           TC       IBNKCALL
000186: 32,3070           40223                           CADR     PFLITEDB
000187: 32,3071           00003                           RELINT
000188:
000189: 32,3072           04655                           TC       BANKCALL
000190: 32,3073           54103                           CADR     R60LEM
000191:
000192: 32,3074           05413                           TC       PHASCHNG                              #  PREVENT RECALLING R60
000193: 32,3075           04024                           OCT      04024
000194:
000195: 32,3076           35021        P63SPOT3           CA       BIT6                                  #  IS THE LR ANTENNA IN POSITION 1 YET
000196: 32,3077           00006                           EXTEND
000197: 32,3100           02033                           RAND     CHAN33
000198: 32,3101           00006                           EXTEND
000199: 32,3102           13110                           BZF      P63SPOT4                              #  BRANCH IF ANTENNA ALREADY IN POSITION 1
000200:
000201: 32,3103           33116                           CAF      CODE500                               #  ASTRONAUT:    PLEASE CRANK THE
000202: 32,3104           04655                           TC       BANKCALL                              #                SILLY THING AROUND
000203: 32,3105           20532                           CADR     GOPERF1
000204: 32,3106           14106                           TCF      GOTOPOOH                              #  TERMINATE
000205: 32,3107           13076                           TCF      P63SPOT3                              #  PROCEED       SEE IF HE'S LYING
000206:
000207: 32,3110           04655        P63SPOT4           TC       BANKCALL                              #  ENTER         INITIALIZE LANDING RADAR
000208: 32,3111           67665                           CADR     SETPOS1
000209:
000210: 32,3112           04674                           TC       POSTJUMP                              #  OFF TO SEE THE WIZARD ...
000211: 32,3113           74133                           CADR     BURNBABY
000212:
000213:                                                                                                  #        ----------------------------------------
000214:
000215:                                                                                                  #  CONSTANTS FOR P63LM AND IGNALG
000216:
000217: 32,3114           02061        P63ADRES           GENADR   P63TABLE
000218:
000219: 32,3115           02417        IGNADRES           GENADR   IGNALG
000220:
000221: 32,3116           00500        CODE500            OCT      00500
000222:
000223: 32,3117           00003 26600  GUIDDURN           2DEC     +60800     B-28
000224: 32,3121           00000 00024  DDUMCRIT           2DEC     +20        B-28                       #  CRITERION FOR IGNALG CONVERGENCE
000225:
000226: 32,3123           00417 16641  VIGN               2DEC*    +1.69664345 E+1        B-10*
000227: 32,3125           77736 63511  RIGNX              2DEC*    -3.41873750 E+4        B-24*
000228: 32,3127           77126 65060  RIGNZ              2DEC*    -4.35548938 E+5        B-24*
000229: 32,3131           71463 46314  1/KIGNX            2DEC*    -1.99999999 E-1        B+0*
000230: 32,3133           77777 74571  KIGNY              2DEC*    -0.02430170 E-6        B+8*
000231: 32,3135           76647 77777  KIGNV              2DEC     -384       E2         B-20
000232:
000233:                                                                                                  #        ----------------------------------------
000234:
000235:                                                                                                  #        ****************************************
000236:                                                                                                  #        LANDING CONFIRMATION
000237:                                                                                                  #        ****************************************
000238:
000239: 31,2000                                           BANK     31
000240: 31,2000                                           SETLOC   F2DPS*31
000241: 31,2000                                           BANK
000242:
000243: 31,2000                                           COUNT*   $$/P6567
000244:
000245: 31,2000           05563        LANDJUNK           TC       UPFLAG
000246: 31,2001           00175                           ADRES    FLUNDISP
000247: 31,2002           03562                           TC       FASTCHNG
000248: 31,2003           05413                           TC       PHASCHNG
000249: 31,2004           00005                           OCT      00005
000250:
000251: 31,2005           00004                           INHINT
000252: 31,2006           04737                           TC       IBNKCALL
000253: 31,2007           75561                           CADR     ENGINOF3
000254:
000255: 31,2010           05563                           TC       UPFLAG
000256: 31,2011           22371                           CADR     LRBYPASS
000257:
000258: 31,2012           06014                           TC       INTPRET                               #  TO INTERPRETIVE AS TIME IS NOT CRITICAL
000259: 31,2013           72234                           RTB      TLOAD
000260: 31,2014           30653                                    RDCDUS
000261: 31,2015           00002                                    1D
000262: 31,2016           03233                           STORE    CDUXD
000263: 31,2017           43014                           SET      SET
000264: 31,2020           04067                                    SURFFLAG
000265: 31,2021           03072                                    KILLROSE
000266: 31,2022           43014                           CLEAR    CLEAR
000267: 31,2023           03672                                    AVEGFLAG
000268: 31,2024           03664                                    SWANDISP
000269: 31,2025           72575                           VLOAD    VSL2
000270: 31,2026           01220                                    RN
000271: 31,2027           16034                           STODL    ALPHAV
000272: 31,2030           01234                                    PIPTIME
000273: 31,2031           45014                           SET      CALL
000274: 31,2032           01463                                    LUNAFLAG
000275: 31,2033           26323                                    LAT-LONG
000276: 31,2034           77201                           SETPD    VLOAD                                 #  COMPUTE RLS AND STORE IT AWAY
000277: 31,2035           00001                                    0
000278: 31,2036           01220                                    RN
000279: 31,2037           65352                           VSL2     PDDL
000280: 31,2040           01234                                    PIPTIME
000281: 31,2041           45006                           PUSH     CALL
000282: 31,2042           51245                                    R-TO-RP
000283: 31,2043           02025                           STORE    RLS
000284: 31,2044           77776                           EXIT
000285: 31,2045           32062                           CAF      V06N43*                               #  ASTRONAUT:  NOW LOOK WHERE YOU ENDED UP
000286: 31,2046           04655                           TC       BANKCALL
000287: 31,2047           20406                           CADR     GOFLASH
000288: 31,2050           14106                           TCF      GOTOPOOH                              #  TERMINATE
000289: 31,2051           12053                           TCF      +2                                    #  PROCEED
000290: 31,2052           12045                           TCF      -5                                    #  RECYCLE
000291:
000292: 31,2053           32063                           CAF      OCT501
000293: 31,2054           04655                           TC       BANKCALL
000294: 31,2055           20532                           CADR     GOPERF1
000295: 31,2056           14106                           TCF      GOTOPOOH
000296: 31,2057           12061                           TCF      +2
000297: 31,2060           12053                           TCF      -5
000298:
000299: 31,2061           14106                           TCF      GOTOPOOH                              #  ASTRONAUT:  PLEASE SELECT P57
000300:
000301: 31,2062           01453        V06N43*            VN       0643
000302: 31,2063           00501        OCT501             OCT      501
000303: 31,2064           00071        OCT71              OCT      71
000304:
000305:                                                                                                  #        ****************************************
000306:                                                                                                  #        LANDING TEST PROGRAM
000307:                                                                                                  #        ****************************************
000308:
000309: 31,2065           32234        LANDTEST           CA       VERTADR
000310: 31,2066           55606                           TS       WCHPHASE
000311: 31,2067           55607                           TS       FLPASS0
000312: 31,2070           55656                           TS       WCHVERT
000313:
000314: 31,2071           06014                           TC       INTPRET
000315: 31,2072           64375                           VLOAD    MXV
000316: 31,2073           23672                                    WMREF
000317: 31,2074           01736                                    REFSMMAT
000318: 31,2075           17622                           STODL    WM
000319: 31,2076           35122                                    LUNLANAD
000320: 31,2077           25253                           STOVL    AVEGEXIT
000321: 31,2100           03532                                    RGU
000322: 31,2101           74256                           UNIT     VXSC
000323: 31,2102           22167                                    LANDSCAL
000324: 31,2103           03630                           STORE    LAND
000325: 31,2104           43046                           ABVAL    SET
000326: 31,2105           03470                                    IDLEFLAG
000327: 31,2106           26023                           STOVL    /LAND/
000328: 31,2107           06231                                    UNITX
000329: 31,2110           26401                           STOVL    CG
000330: 31,2111           06227                                    UNITY
000331: 31,2112           26407                           STOVL    CG         +6
000332: 31,2113           06225                                    UNITZ
000333: 31,2114           02415                           STORE    CG         +12D
000334: 31,2115           47014                           SET      RTB
000335: 31,2116           03067                                    MUNFLAG
000336: 31,2117           21454                                    LOADTIME
000337: 31,2120           03612                           STORE    TPIP
000338: 31,2121           77776                           EXIT
000339:
000340: 31,2122           00004                           INHINT
000341: 31,2123           35026                           CAF      ONE
000342: 31,2124           05252                           TC       WAITLIST
000343: 31,2125  E7,1472                                  EBANK=   DVCNTR
000344: 31,2125           02000 66067                     2CADR    PREREAD
000345:
000346: 31,2127           35012                           CAF      BIT13
000347: 31,2130           00006                           EXTEND
000348: 31,2131           02011                           RAND     DSALMOUT
000349: 31,2132           10000                           CCS      A
000350: 31,2133           12144                           TCF      TSTENGON
000351:
000352: 31,2134           04737                           TC       IBNKCALL
000353: 31,2135           74647                           CADR     ONULLAGE
000354:
000355: 31,2136           35052                           CAF      3SECS
000356: 31,2137           05243                           TC       TWIDDLE
000357: 31,2140           02155                           ADRES    TESTIGN
000358:
000359: 31,2141           35054                           CAF      LOW9
000360: 31,2142           04655                           TC       BANKCALL
000361: 31,2143           01730                           CADR     DELAYJOB
000362:
000363: 31,2144           00004        TSTENGON           INHINT
000364: 31,2145           45017                           CS       DRIFTBIT
000365: 31,2146           71102                           MASK     DAPBOOLS
000366: 31,2147           55102                           TS       DAPBOOLS
000367:
000368: 31,2150           35030                           CAF      ZERO
000369: 31,2151           55607                           TS       FLPASS0
000370:
000371: 31,2152           32170                           CAF      TESTDB
000372: 31,2153           55356                           TS       DB
000373: 31,2154           15225                           TCF      ENDOFJOB
000374:
000375: 31,2155           44367        TESTIGN            CS       PRIO30
000376: 31,2156           00006                           EXTEND
000377: 31,2157           02011                           RAND     DSALMOUT
000378: 31,2160           65012                           AD       BIT13
000379: 31,2161           00006                           EXTEND
000380: 31,2162           01011                           WRITE    DSALMOUT
000381: 31,2163           05563                           TC       UPFLAG
000382: 31,2164           00123                           ADRES    ENGONFLG
000383: 31,2165           15321                           TCF      TASKOVER
000384:
000385: 31,2166           06502 26500  LANDSCAL           2DEC     0.207196475
000386: 31,2170           00554        TESTDB             DEC      0.02222

End of include-file THE_LUNAR_LANDING.agc.  Parent file is MAIN.agc


