
Source Code


000002:                                                                                                  ## Copyright:   Public domain.
000003:                                                                                                  ## Filename:    TRIM_GIMBAL_CONTROL_SYSTEM.agc
000004:                                                                                                  ## Purpose:     A section of a reconstructed, mixed version of Sundance
000005:                                                                                                  ##              It is part of the reconstructed source code for the Lunar
000006:                                                                                                  ##              Module's (LM) Apollo Guidance Computer (AGC) for Apollo 9.
000007:                                                                                                  ##              No original listings of this program are available;
000008:                                                                                                  ##              instead, this file was created via disassembly of dumps
000009:                                                                                                  ##              of various revisions of Sundance core rope modules.
000010:                                                                                                  ## Assembler:   yaYUL
000011:                                                                                                  ## Contact:     Ron Burkey <info@sandroid.org>.
000012:                                                                                                  ## Website:     www.ibiblio.org/apollo/index.html
000013:                                                                                                  ## Mod history: 2020-06-17 MAS  Created from Luminary 69.
000014:
000015:                                                                                                  ## Sundance 302
000016:
000017: 21,3055                                           BANK     21
000018: 21,3055  E6,1451                                  EBANK=   QDIFF
000019: 21,2000                                           SETLOC   DAPS4
000020: 21,2000                                           BANK
000021:
000022: 21,3055                                           COUNT*   $$/DAPGT
000023:
000024:                                                                                                  #  CONTROL REACHES THIS POINT UNDER EITHER OF THE FOLLOWING TWO CONDITIONS ONCE THE DESCENT ENGINE AND THE DIGITAL
000025:                                                                                                  #  AUTOPILOT ARE BOTH ON:
000026:                                                                                                  #        A) THE TRIM GIMBAL CONTROL LAW WAS ON DURING THE PREVIOUS Q,R-AXIS TIME5 INTERRUPT (OR THE DAPIDLER
000027:                                                                                                  #           INITIALIZATION WAS SET FOR TRIM GIMBAL CONTROL AND THIS IS THE FIRST PASS), OR
000028:                                                                                                  #        B) THE Q,R-AXES RCS AUTOPILOT DETERMINED THAT THE VEHICLE WAS ENTERING (OR HAD JUST ENTERED) A COAST
000029:                                                                                                  #           ZONE WITH A SMALL OFFSET ANGULAR ACCELERATION.
000030:                                                                                                  #  GTS IS THE ENTRY TO THE GIMBAL TRIM SYSTEM FOR CONTROLLING ATTITUDE ERRORS AND RATES AS WELL AS ACCELERATIONS.
000031:
000032: 21,3055           37721        GTS                CAF      NEGONE                                #  MAKE THE NEXT PASS THROUGH THE DAP BE
000033: 21,3056           55625                           TS       COTROLER                              #        THROUGH RCS CONTROL,
000034: 21,3057           35024                           CAF      FOUR                                  #        AND ENSURE THAT IT IS NOT A SKIP.
000035: 21,3060           55530                           TS       SKIPU
000036: 21,3061           55531                           TS       SKIPV
000037:
000038: 21,3062           35025                           CAF      TWO
000039: 21,3063           55627                           TS       INGTS                                 #  SET INDICATOR OF GTS CONTROL POSITIVE.
000040: 21,3064           55626                           TS       QGIMTIMR                              #  SET TIMERS TO 200 MSEC TO AVOID BOTH
000041: 21,3065           55630                           TS       RGIMTIMR                              #  RUNAWAY AND INTERFERENCE BY NULLING.
000042:
000043:                                                                                                  #  THE DRIVE SETTING ALGORITHM
000044:
000045:                                                                                                  #        DEL = SGN(OMEGA*K + ALPHA*ABS(ALPHA)/2).
000046:
000047:                                                                                                  #        NEGUSUM = ERROR.K(2) + DEL(OMEGA.K.DEL + ALPHA(2)/2)(3/2) + ALPHA(OMEGA.K.DEL + ALPHA(2)/3)
000048:
000049:                                                                                                  #        DRIVE = -SGN(NEGUSUM)
000050:
000051: 21,3066           30021                           CA       SR                                    #  SAVE THE SR.  SHIFT IT LEFT TO CORRECT
000052: 21,3067           60000                           AD       A                                     #  FOR THE RIGHT SHIFT DUE TO EDITING.
000053: 21,3070           55471                           TS       SAVESR
000054:
000055: 21,3071           35025        GTSGO+DN           CAF      TWO                                   #  SET INDEXER FOR R-AXIS CALCULATIONS.
000056: 21,3072           55745                           TS       QRCNTR
000057: 21,3073           31534                           CA       AOSR
000058: 21,3074           00006                           EXTEND
000059: 21,3075           75024                           MP       BIT3
000060: 21,3076           31435                           CA       EDOTR
000061: 21,3077           13106                           TCF      GTSQAXIS
000062:
000063: 21,3100           35030        GOQTRIMG           CAF      ZERO                                  #  SET INDEXER FOR Q-AXIS CALCULATIONS
000064: 21,3101           55745                           TS       QRCNTR
000065: 21,3102           31532                           CA       AOSQ
000066: 21,3103           00006                           EXTEND
000067: 21,3104           75024                           MP       BIT3
000068: 21,3105           31434                           CA       EDOTQ
000069: 21,3106           53743        GTSQAXIS           DXCH     WCENTRAL
000070: 21,3107           00006                           EXTEND
000071: 21,3110           51745                           INDEX    QRCNTR                                #  PICK UP K AND K(2) FOR THIS AXIS
000072: 21,3111           31504                           DCA      KQ
000073: 21,3112           53741                           DXCH     KCENTRAL
000074:
000075: 21,3113           11745                           CCS      QRCNTR
000076: 21,3114           50000                           INDEX    A                                     #  QDIFF, RDIFF ARE STORED IN D.P.
000077: 21,3115           31451                           CAE      QDIFF
000078:
000079: 21,3116           00006        ALGORTHM           EXTEND                                         #  Q(R)DIFF IS THETA (ERROR) SCALED AT PI.
000080: 21,3117           71741                           MP       K2CNTRAL                              #  FORM K(2)*THETA IN D.P.
000081: 21,3120           23734                           LXCH     K2THETA
000082: 21,3121           00006                           EXTEND                                         #  FORM K(2)*THETA*SF2 IN D.P.
000083: 21,3122           75016                           MP       BIT9
000084: 21,3123           53735                           DXCH     K2THETA
000085: 21,3124           00006                           EXTEND
000086: 21,3125           75016                           MP       BIT9
000087: 21,3126           27735                           ADS      K2THETA    +1
000088:
000089: 21,3127           31742                           CAE      WCENTRAL                              #  GET OMEGA
000090: 21,3130           00006                           EXTEND
000091: 21,3131           71740                           MP       KCENTRAL                              #  FORM K*OMEGA IN D.P.
000092: 21,3132           23740                           LXCH     OMEGA.K
000093: 21,3133           00006                           EXTEND                                         #  FORM OMEGA*K*SF1 IN D.P.
000094: 21,3134           75013                           MP       BIT12
000095: 21,3135           53741                           DXCH     OMEGA.K
000096: 21,3136           00006                           EXTEND
000097: 21,3137           75013                           MP       BIT12
000098: 21,3140           27741                           ADS      OMEGA.K    +1
000099:
000100: 21,3141           31743                           CAE      ACENTRAL                              #  FORM ALPHA(2)/2 IN D.P.
000101: 21,3142           00006                           EXTEND
000102: 21,3143           70000                           SQUARE
000103: 21,3144           53737                           DXCH     A2CNTRAL
000104:
000105: 21,3145           31743                           CAE      ACENTRAL                              #  GET ALPHA*ABS(ALPHA)/2, IF ALPHA GREATER
000106:                                                                                                  #  THAN 0. OTHERWISE TAKE NEGATIVE OF ABOVE
000107: 21,3146           00006                           EXTEND
000108: 21,3147           63153                           BZMF     +4
000109: 21,3150           00006                           EXTEND
000110: 21,3151           31737                           DCA      A2CNTRAL
000111: 21,3152           13155                           TCF      +3
000112: 21,3153           00006                           EXTEND
000113: 21,3154           41737                           DCS      A2CNTRAL
000114: 21,3155           53474                           DXCH     FUNCTION                              #  SAVE AS SGN(ALPHA)*ALPHA(2)/2
000115: 21,3156           00006                           EXTEND
000116: 21,3157           31741                           DCA      OMEGA.K
000117: 21,3160           21474                           DAS      FUNCTION                              #  FORM FUNCT1
000118:
000119: 21,3161           11473                           CCS      FUNCTION                              #  DEL = +1 FOR FUNCT1 GREATER THAN ZERO.
000120: 21,3162           13166                           TCF      POSFNCT1                              #  OTHERWISE DEL = -1
000121: 21,3163           13165                           TCF      +2
000122: 21,3164           13170                           TCF      NEGFNCT1
000123:
000124: 21,3165           11474                           CCS      FUNCTION   +1                         #  USE LOW ORDER WORD SINCE HIGH IS ZERO
000125: 21,3166           35026        POSFNCT1           CAF      BIT1
000126: 21,3167           13171                           TCF      +2
000127: 21,3170           45026        NEGFNCT1           CS       BIT1
000128: 21,3171           55744                           TS       DEL
000129:
000130: 21,3172           11744                           CCS      DEL                                   #  MAKE OMEGA*K REALLY DEL*OMEGA*K
000131: 21,3173           13200                           TCF      FUNCT2                                #  (NOTHING NEED BE DONE)
000132: 21,3174           13200                           TCF      FUNCT2
000133: 21,3175           00006                           EXTEND
000134: 21,3176           41741                           DCS      OMEGA.K
000135: 21,3177           53741                           DXCH     OMEGA.K                               #  CHANGE SIGN OF OMEGA*K
000136:
000137: 21,3200           00006        FUNCT2             EXTEND
000138: 21,3201           31741                           DCA      OMEGA.K
000139: 21,3202           53474                           DXCH     FUNCTION                              #  DEL*OMEGA*K
000140: 21,3203           00006                           EXTEND
000141: 21,3204           31737                           DCA      A2CNTRAL
000142: 21,3205           21474                           DAS      FUNCTION                              #  DEL*OMEGA*K + ALPHA(2)/2
000143: 21,3206           31736        FUNCT3             CAE      A2CNTRAL                              #  CALCULATE (2/3)*ALPHA(2)/2 = ALPHA(2)/3
000144: 21,3207           00006                           EXTEND
000145: 21,3210           73302                           MP       .66667
000146: 21,3211           53737                           DXCH     A2CNTRAL
000147: 21,3212           56001                           XCH      L
000148: 21,3213           00006                           EXTEND
000149: 21,3214           73302                           MP       .66667
000150: 21,3215           27737                           ADS      A2CNTRAL   +1
000151: 21,3216           54001                           TS       L
000152: 21,3217           13221                           TCF      +2
000153: 21,3220           27736                           ADS      A2CNTRAL
000154: 21,3221           53741                           DXCH     OMEGA.K                               #  DEL*OMEGA*K + ALPHA(2)/3 = G
000155: 21,3222           21737                           DAS      A2CNTRAL
000156: 21,3223           31736                           CAE      A2CNTRAL                              #  G*ALPHA IN D.P.
000157: 21,3224           00006                           EXTEND
000158: 21,3225           71743                           MP       ACENTRAL
000159: 21,3226           53737                           DXCH     A2CNTRAL
000160: 21,3227           56001                           XCH      L
000161: 21,3230           00006                           EXTEND
000162: 21,3231           71743                           MP       ACENTRAL
000163: 21,3232           27737                           ADS      A2CNTRAL   +1
000164: 21,3233           54001                           TS       L
000165: 21,3234           13236                           TCF      +2
000166: 21,3235           27736                           ADS      A2CNTRAL
000167:
000168: 21,3236           53737                           DXCH     A2CNTRAL                              #  FIRST AND THIRD TERMS
000169: 21,3237           21735                           DAS      K2THETA                               #  SUMMED IN D.P.
000170:
000171: 21,3240           13410                           TCF      RSTOFGTS
000172:
000173:                                                                                                  #  THE WRCHN12 SUBROUTINE SETS BITS 9,10,11,12 OF CHANNEL 12 ON THE BASIS OF THE CONTENTS OF NEGUQ,NEGUR WHICH ARE
000174:                                                                                                  #  THE NEGATIVES OF THE DESIRED ACCELERATION CHANGES.  ACDT+C12 SETS Q(R)ACCDOT TO REFLECT THE NEW DRIVES.
000175:
000176:                                                                                                  #  WARNING:  ACDT+C12 AND WRCHN12 MUST BE CALLED WITH INTERRUPT INHIBITED.
000177:
000178: 21,3241           07400        BGIM               OCTAL    07400
000179: 21,3242     0066               CHNL12             EQUALS   ITEMP6
000180: 21,3242           31102        ACDT+C12           CA       DAPBOOLS
000181: 21,3243           75011                           MASK     USEQRJTS
000182: 21,3244           00006                           EXTEND
000183: 21,3245           13251                           BZF      +4
000184: 21,3246           35030                           CAF      ZERO
000185: 21,3247           55500                           TS       NEGUQ
000186: 21,3250           55502                           TS       NEGUR
000187:
000188: 21,3251           41500                           CS       NEGUQ
000189: 21,3252           00006                           EXTEND                                         #  GIMBAL DRIVE REQUESTS.
000190: 21,3253           71507                           MP       ACCDOTQ
000191: 21,3254           23510                           LXCH     QACCDOT
000192: 21,3255           41502                           CS       NEGUR
000193: 21,3256           00006                           EXTEND
000194: 21,3257           71511                           MP       ACCDOTR
000195: 21,3260           23512                           LXCH     RACCDOT
000196:
000197: 21,3261           11500                           CCS      NEGUQ
000198: 21,3262           35015                           CAF      BIT10
000199: 21,3263           13265                           TCF      +2
000200: 21,3264           35016                           CAF      BIT9
000201: 21,3265           54066                           TS       CHNL12
000202:
000203: 21,3266           11502                           CCS      NEGUR
000204: 21,3267           35013                           CAF      BIT12
000205: 21,3270           13272                           TCF      +2
000206: 21,3271           35014                           CAF      BIT11
000207: 21,3272           26066                           ADS      CHNL12                                #  (STORED RESULT NOT USED AT PRESENT)
000208:
000209: 21,3273           43241                           CS       BGIM
000210: 21,3274           00006                           EXTEND
000211: 21,3275           03012                           WAND     CHAN12
000212: 21,3276           30066                           CA       CHNL12
000213: 21,3277           00006                           EXTEND
000214: 21,3300           05012                           WOR      CHAN12
000215:
000216: 21,3301           00002                           TC       Q                                     #  RETURN TO CALLER.
000217:
000218: 21,3302                                           BANK     21
000219: 21,3302  E6,1451                                  EBANK=   QDIFF
000220: 21,2000                                           SETLOC   DAPS4
000221: 21,2000                                           BANK
000222:
000223:                                                                                                  #  SUBROUTINE TIMEGMBL:  MOD 0, OCTOBER 1967, CRAIG WORK
000224:
000225:                                                                                                  #  TIMEGMBL COMPUTES THE DRIVE TIME NEEDED FOR THE TRIM GIMBAL TO POSITION THE DESCENT ENGINE NOZZLE SO AS TO NULL
000226:                                                                                                  #  THE OFFSET ANGULAR ACCELERATION ABOUT THE Q (OR R) AXIS.  INSTEAD OF USING AOSQ(R), TIMEGMBL USES .4*AOSQ(R),
000227:                                                                                                  #  SCALED AT PI/8.                         FOR EACH AXIS, THE DRIVE TIME IS COMPUTED AS ABS(ALPHA/ACCDOT).  A ZERO
000228:                                                                                                  #  ALPHA OR ACCDOT OR A ZERO QUOTIENT TURNS OFF THE GIMBAL DRIVE IMMEDIATELY.  OTHERWISE, THE GIMBAL IS TURNED ON
000229:                                                                                                  #  DRIVING IN THE CORRECT DIRECTION. THE Q(R)GIMTIMR IS SET TO TERMINATE THE DRIVE AND Q(R)ACCDOT
000230:                                                                                                  #  IS STORED TO REFLECT THE NEW ACCELERATION DERIVATIVE.  NEGUQ(R) WILL CONTAIN +1,+0,-1 FOR A Q(R)ACCDOT VALUE
000231:                                                                                                  #  WHICH IS NEGATIVE, ZERO, OR POSITIVE.
000232:
000233:                                                                                                  #  INPUTS:       AOSQ,AOSR, SCALED AT P1/2, AND ACCDOTQ, ACCDOTR AT PI/2(7).     PI/2(7).
000234:
000235:                                                                                                  #  OUTPUTS:      NEW GIMBAL DRIVE BITS IN CHANNEL 12,NEGUQ,NEGUR,QACCDOT AND RACCDOT, THE LAST SCALED AT PI/2(7).
000236:                                                                                                  #                Q(R)GIMTIMR WILL BE SET TO TIME AND TERMINATE GIMBAL DRIVE(S)
000237:
000238:                                                                                                  #  DEBRIS:       A,L,Q, ITEMPS 2,3,6, RUPTREG2 AND ACDT+C12 DEBRIS.
000239:
000240:                                                                                                  #  EXITS:        VIA TC Q.
000241:
000242:                                                                                                  #  ALARMS, ABORTS, :  NONE
000243:
000244:                                                                                                  #  SUBROUTINES:  ACDT+C12, IBNKCALL
000245:
000246:                                                                                                  #  WARNING:      THIS SUBROUTINE WRITES INTO CHANNEL 12 AND USES THE ITEMPS.  THEREFORE IT MAY ONLY BE CALLED WITH
000247:                                                                                                  #  INTERRUPT INHIBITED.
000248:
000249:                                                                                                  #  ERASABLE STORAGE CONFIGURATION (NEEDED BY THE INDEXING METHODS):
000250:                                                                                                  #        NEGUQ           ERASE   +2              NEGATIVE OF Q-AXIS GIMBAL DRIVE
000251:                                                                                                  #        (SPWORD)        EQUALS  NEGUQ +1        ANY S.P. ERASABLE NUMBER, NOW THRSTCMD
000252:                                                                                                  #        NEGUR           EQUALS  NEGUQ +2        NEGATIVE OF R-AXIS GIMBAL DRIVE
000253:
000254:                                                                                                  #        ACCDOTQ         ERASE   +2              Q-JERK TERM SCALED AT PI/2(7) RAD/SEC(3)
000255:                                                                                                  #        (SPWORD)        EQUALS  ACCDOTQ +1      ANY S.P. ERASABLE NUMBER NOW QACCDOT
000256:                                                                                                  #        ACCDOTR         EQUALS  ACCDOTQ +2      R-JERK TERM SCALED AT PI/2(7) RAD/SEC(3)
000257:                                                                                                  #                                                ACCDOTQ, ACCDOTR ARE MAGNITUDES.
000258:                                                                                                  #        AOSQ            ERASE   +4              Q-AXIS ACC., D.P. AT PI/2 R/SEC(2)
000259:                                                                                                  #        AOSR            EQUALS  AOSQ +2         R-AXIS ACCELERATION SCALED AT PI/2 R/S2
000260:
000261: 21,3302     0066               QRNDXER            EQUALS   ITEMP6
000262: 21,3302           25253        .66667             DEC      .66667
000263: 21,3303           23146        OCT23146           OCTAL    23146                                 #  DECIMAL .6
000264: 21,3304     0063               NZACCDOT           EQUALS   ITEMP3
000265:
000266: 21,3304           35026        TIMEGMBL           CAF      ONE                                   #  INITIALIZE ALLOWGTS.
000267: 21,3305           55624                           TS       ALLOWGTS
000268:
000269: 21,3306           35025                           CAF      TWO                                   #  SET UP LOOP FOR R AXIS.
000270: 21,3307           22002                           LXCH     Q                                     #  SAVE RETURN ADDRESS.
000271: 21,3310           22071                           LXCH     RUPTREG2
000272: 21,3311           13313                           TCF      +2
000273: 21,3312           35030        TIMQGMBL           CAF      ZERO                                  #  NOW DO THE Q-AXIS
000274: 21,3313           54066                           TS       QRNDXER
000275: 21,3314           50066                           INDEX    QRNDXER
000276: 21,3315           31507                           CA       ACCDOTQ                               #  ACCDOT IS PRESUMED TO BE AT PI/2(7).
000277: 21,3316           00006                           EXTEND
000278: 21,3317           63367                           BZMF     TGOFFNOW                              #  IS ACCDOT LESS THAN OR EQUAL TO 0?
000279: 21,3320           54063                           TS       NZACCDOT                              #  NO.  STORE NON-ZERO, POSITIVE ACCDOT.
000280:
000281: 21,3321           50066        ALPHATRY           INDEX    QRNDXER
000282: 21,3322           41532                           CS       AOSQ
000283: 21,3323           00006                           EXTEND
000284: 21,3324           13367                           BZF      TGOFFNOW                              #  IS ALPHA ZERO?
000285:
000286: 21,3325           54002                           TS       Q                                     #  SAVE A COPY OF -AOS.
000287: 21,3326           00006                           EXTEND                                         #  NO.  RESCALE FOR TIMEGMBL USE.
000288: 21,3327           73303                           MP       OCT23146                              #  OCTAL 23146 IS DECIMAL .6
000289: 21,3330           60002                           AD       Q                                     #  -1.6*AOS AT PI/2 = -.4*AOS AT PI/8.
000290: 21,3331           54001                           TS       L                                     #  WAS THERE OVERFLOW?
000291: 21,3332           13337                           TCF      SETNEGU                               #  NO.  COMPUTE DRIVE TIME.
000292:
000293: 21,3333           40000                           CS       A                                     #  RECOVER  -SGN(AOS) IN THE A REGISTER.
000294: 21,3334           50066                           INDEX    QRNDXER                               #  YES.  START DRIVE WITHOUT WAITLIST.
000295: 21,3335           57500                           XCH      NEGUQ
000296: 21,3336           13373                           TCF      NOTALLOW                              #  KNOCK DOWN THE ALLOWGTS FLAG.
000297:
000298: 21,3337           00006        SETNEGU            EXTEND
000299: 21,3340           63345                           BZMF     POSALPH
000300:
000301: 21,3341           40000                           COM
000302: 21,3342           54062                           TS       ITEMP2                                #  STORE -ABS(.4*AOS) SCALED AT PI/8.
000303: 21,3343           45026                           CS       BIT1
000304: 21,3344           13347                           TCF      POSALPH    +2
000305: 21,3345           54062        POSALPH            TS       ITEMP2                                #  STORE -ABS(.4*AOS) SCALED AT PI/8.
000306: 21,3346           35026                           CA       BIT1
000307: 21,3347           50066                 +2        INDEX    QRNDXER                               #  SGN(AOS) INTO NEGU
000308: 21,3350           55500                           TS       NEGUQ                                 #  STORE SGN(APLHA) AS NEGU
000309:
000310: 21,3351           30063                           CA       NZACCDOT
000311: 21,3352           00006                           EXTEND
000312: 21,3353           75013                           MP       BIT12                                 #  2*ACCDOT, SCALED AT PI/8.
000313: 21,3354           60062                           AD       ITEMP2                                #  -ABS(ALPHA) + 2*ACCDOT, AT PI/8.
000314: 21,3355           00006                           EXTEND
000315: 21,3356           63373                           BZMF     NOTALLOW                              #  IS DRIVE TIME MORE THAN TWO SECONDS?
000316: 21,3357           40062                           CS       ITEMP2                                #  NO.  COMPUTE DRIVE TIME.
000317: 21,3360           00006                           EXTEND                                         #  ABS(ALPHA) AT PI/8.
000318: 21,3361           73407                           MP       OCT00240                              #  DECIMAL 10/1024
000319: 21,3362           00006                           EXTEND                                         #  QUOTIENT IS DRIVE TIME AT WAITLIST.
000320: 21,3363           10063                           DV       NZACCDOT                              #  ABS(ALPHA)/ACCDOT AT 2(14)/100
000321: 21,3364           00006                           EXTEND
000322: 21,3365           13367                           BZF      TGOFFNOW                              #  DRIVE TIME MUST BE GREATER THAN ZERO.
000323:
000324: 21,3366           13401                           TCF      DRIVEON
000325:
000326: 21,3367           35030        TGOFFNOW           CAF      ZERO                                  #  TURN OFF GIMBAL NOW.
000327: 21,3370           50066                           INDEX    QRNDXER
000328: 21,3371           55500                           TS       NEGUQ
000329:
000330: 21,3372           13403                           TCF      DONEYET
000331:
000332: 21,3373           34113        NOTALLOW           CAF      OCT31
000333: 21,3374           50066                           INDEX    QRNDXER
000334: 21,3375           55626                           TS       QGIMTIMR
000335: 21,3376           35030                           CAF      ZERO                                  #  DRIVE TIME IS MORE THAN 2 SECONDS, SO
000336: 21,3377           55624                           TS       ALLOWGTS                              #  DO NOT PERMIT FURTHER GTS ATTITUDE-RATE
000337:                                                                                                  #  CONTROL UNTIL AOSTASK APPROVES.
000338: 21,3400           13403                           TCF      DONEYET                               #  NO WAITLIST CALL IS MADE.
000339:
000340: 21,3401           50066        DRIVEON            INDEX    QRNDXER
000341: 21,3402           55626                           TS       QGIMTIMR                              #  CHOOSE Q OR R AXIS.
000342:
000343: 21,3403           10066        DONEYET            CCS      QRNDXER
000344: 21,3404           13312                           TCF      TIMQGMBL
000345:
000346: 21,3405           03242                           TC       ACDT+C12                              #  TURN OF CHANNEL BITS, SET Q(R)ACCDOTS.
000347:
000348: 21,3406           00071                           TC       RUPTREG2                              #  RETURN TO CALLER.
000349:
000350: 21,3407           00240        OCT00240           OCTAL    00240                                 #  DECIMAL 10/1024
000351:
000352:                                                                                                  #  THE FOLLOWING SECTION IS A CONTINUATION OF THE TRIM GIMBAL CONTROL FROM THE LAST GTS ENTRY.  THE QUANTITY NEGUSUM
000353:                                                                                                  #  IS COMPUTED FOR EACH AXIS (Q,R), .707*DEL*FUNCTION(3/2) + K2THETA = NEGUSUM.  NEW DRIVES ARE ENTERED TO CH 12.
000354:
000355: 21,3410           11473        RSTOFGTS           CCS      FUNCTION
000356: 21,3411           13430                           TCF      GOODARG                               #  FUNCTION IS POSITIVE.  GET 3/2 POWER.
000357: 21,3412           13414                           TCF      +2                                    #  HIGH ORDER WORD IS ZERO.  TRY THE LOWER.
000358: 21,3413           13541                           TCF      NEGUSUM                               #  NEGATIVE.  USE ZERO FOR 3/2 POWER.
000359:
000360: 21,3414           41474                           CS       FUNCTION   +1                         #  IF ARG IS LESS THAN 2(-18), THEN THE 3/2
000361: 21,3415           65014                           AD       BIT11                                 #  POWER IS LESS THAN 2(-27).  USE ZERO.
000362: 21,3416           00006                           EXTEND
000363: 21,3417           63421                           BZMF     ZEROHIGH                              #  BRANCH IF ARG NOT LESS THAN 2(-18).
000364:
000365: 21,3420           13541                           TCF      NEGUSUM
000366:
000367: 21,3421           34331        ZEROHIGH           CA       FOURTEEN                              #  ARG LESS THAN 2(-14) MEANS 3/2 POWER
000368:                                                                                                  #  WILL BE LESS THAN 2(-21).
000369: 21,3422           55736                           TS       SHFTFLAG
000370:
000371: 21,3423           35025                           CA       TWO
000372: 21,3424           55737                           TS       ININDEX                               #  INITIALIZE THE SHIFT LOOP.
000373:
000374:                                                                                                  #  COLLECT THE 14 MOST SIGNIFICANT BITS OF
000375: 21,3425           57474                           XCH      FUNCTION   +1                         #  THE 28 INTO THE HIGH ORDER WORD.
000376: 21,3426           57473                           XCH      FUNCTION
000377: 21,3427           13443                           TCF      SCALLOOP
000378: 21,3430           35743        GOODARG            CA       TWELVE
000379: 21,3431           55737                           TS       ININDEX                               #  INITIALIZE THE SHIFT LOOP.
000380: 21,3432           35030                           CA       ZERO                                  #  THERE ARE SIGNIFICANT BITS IN THE HIGH
000381: 21,3433           55736                           TS       SHFTFLAG                              #  ORDER WORD, SO SET SHFTFLAG TO ZERO.
000382:
000383: 21,3434           13443                           TCF      SCALLOOP
000384:
000385: 21,3435           31473        SCALSTRT           CA       FUNCTION
000386: 21,3436           13460                           TCF      SCALDONE
000387:
000388: 21,3437           37720        MULBUSH            CA       NEG2                                  #  IF ARG IS NOT LESS THAN 1/4, INDEX IS
000389: 21,3440           27737                           ADS      ININDEX                               #  ZERO, INDICATING NO SHIFT NEEDED.
000390: 21,3441           00006                           EXTEND                                         #  BRANCH IF ARG IS NOT LESS THAN 1/4.
000391: 21,3442           63435                           BZMF     SCALSTRT                              #  OTHERWISE COMPARE ARG WITH A REFERENCE
000392:                                                                                                  #  WHICH IS 4 TIMES LARGER THAN THE LAST.
000393: 21,3443           41473        SCALLOOP           CS       FUNCTION
000394: 21,3444           51737                           INDEX    ININDEX
000395: 21,3445           65010                           AD       BIT15                                 #  REFERENCE MAGNITUDE LESS OR EQUAL TO 1/4
000396: 21,3446           00006                           EXTEND
000397: 21,3447           63437                           BZMF     MULBUSH                               #  IF ARG IS NOT LESS THAN REFERENCE, GO
000398:                                                                                                  #  AROUND THE MULBERRY BUSH ONCE MORE.
000399: 21,3450           51737                           INDEX    ININDEX
000400: 21,3451           35010                           CA       BIT15                                 #  THIS IS THE SCALE MAGNITUDE
000401: 21,3452           56002                           XCH      Q                                     #  2**(-ININDEX) IS THE SHIFT DIVISOR.
000402: 21,3453           00006                           EXTEND                                         #  RESCALE ARGUMENT.
000403: 21,3454           31474                           DCA      FUNCTION
000404: 21,3455           00006                           EXTEND
000405: 21,3456           10002                           DV       Q
000406: 21,3457           55473                           TS       FUNCTION                              #  ININDEX AND SHFTFLAG PRESERVE INFO FOR
000407:                                                                                                  #  RESCALING AFTER ROOT PROCESS.
000408: 21,3460           00006        SCALDONE           EXTEND                                         #  AFTER 3/2 POWER IS TAKEN, SCALE FACTOR
000409: 21,3461           75012                           MP       BIT13                                 #  OF SQRT(1/2) WILL BE NEEDED, SO FACTOR
000410: 21,3462           55742                           TS       HALFARG                               #  OF 1/2 IS INCLUDED NOW, BEFORE SQRT.
000411:
000412: 21,3463           33567                           CA       STARTER                               #  INITIAL GUESS FOR SQRT ALGORITHM.
000413: 21,3464           03570                           TC       ROOTCYCL
000414: 21,3465           03570                           TC       ROOTCYCL
000415: 21,3466           03570                           TC       ROOTCYCL
000416:
000417: 21,3467           00006                           EXTEND                                         #  SQRT(1/2)*SQRT(ARG) IN A.
000418: 21,3470           71473                           MP       FUNCTION                              #  SQRT(1/2)*ARG*SQRT(ARG) IN A,L.
000419: 21,3471           53474                           DXCH     FUNCTION
000420:
000421: 21,3472           31736        DOSHIFT            CA       SHFTFLAG                              #  HOW MANY SHIFT BITS ARE THERE?
000422: 21,3473           61737                           AD       ININDEX                               #  2**(-ININDEX) WAS SHIFT DIVISOR.
000423: 21,3474           54021                           TS       SR
000424: 21,3475           60021                           AD       SR                                    #  THIS MANY SHIFTS ARE REQUIRED.
000425: 21,3476           54002        SAVESHFT           TS       Q                                     #  Q BOUNDS ARE ZERO AND 24 (DECIMAL).
000426: 21,3477           00006                           EXTEND
000427: 21,3500           63526                           BZMF     SUMNEGU                               #  BRANCH IF SHIFTING IS UNNECESSARY.
000428:
000429: 21,3501           44331                           CS       FOURTEEN
000430: 21,3502           60002                           AD       Q
000431: 21,3503           00006                           EXTEND                                         #  Q = 0(MOD 3), SO A REG IS NON-ZERO.
000432: 21,3504           63511                           BZMF     MINISHIFT                             #  BRANCH IF SMALL SHIFT SUFFICES.
000433:
000434: 21,3505           54002        MAXISHIFT           TS       Q                                     #  14 BIT SHIFT RIGHT NOW.
000435: 21,3506           35030                           CA       ZERO
000436: 21,3507           57473                           XCH      FUNCTION
000437: 21,3510           55474                           TS       FUNCTION   +1
000438:
000439: 21,3511           50002        MINISHIFT           INDEX    Q                                     #  C(Q) ARE GREATER THAN ZERO.
000440: 21,3512           35010                           CA       BIT15
000441: 21,3513           54002                           TS       Q                                     #  2**(-Q) WILL BE SHIFT MULTIPLIER.
000442: 21,3514           00006                           EXTEND
000443: 21,3515           71474                           MP       FUNCTION   +1
000444: 21,3516           56001                           XCH      L
000445: 21,3517           35030                           CA       ZERO
000446: 21,3520           53474                           DXCH     FUNCTION                              #  LOWER WORD SHIFTED NOW.
000447: 21,3521           00006                           EXTEND
000448: 21,3522           63526                           BZMF     SUMNEGU                               #  BRANCH IF UPPER WORD WAS ZERO.
000449: 21,3523           00006                           EXTEND                                         #  SHIFT UPPER WORD.
000450: 21,3524           70002                           MP       Q
000451: 21,3525           21474                           DAS      FUNCTION                              #  NO OVERFLOW POSSIBLE.
000452:
000453: 21,3526           41744        SUMNEGU            CS       DEL                                   #  INCLUDE DEL FACTOR IN PRODUCT TERM.
000454: 21,3527           00006                           EXTEND
000455: 21,3530           63534                           BZMF     SUMTERMS
000456:
000457: 21,3531           00006                           EXTEND                                         #  DEL FACTOR IS MINUS ONE.
000458: 21,3532           41474                           DCS      FUNCTION
000459: 21,3533           13540                           TCF      NEGUSUM    -1                         #  NOW ADD IN THE K2THETA TERM.
000460:
000461: 21,3534           00006        SUMTERMS           EXTEND
000462: 21,3535           13541                           BZF      NEGUSUM                               #  BRANCH IF DEL IS ZERO.
000463:
000464: 21,3536           00006                           EXTEND                                         #  DEL FACTOR IS +1.
000465: 21,3537           31474                           DCA      FUNCTION
000466: 21,3540           21735                           DAS      K2THETA                               #  NOW ADD IN THE K2THETA TERM.
000467: 21,3541           11734        NEGUSUM            CCS      K2THETA                               #  TEST SIGN OF HIGH ORDER PART.
000468: 21,3542           13546                           TCF      NEGDRIVE
000469: 21,3543           13545                           TCF      +2
000470: 21,3544           13550                           TCF      POSDRIVE
000471:
000472: 21,3545           11735                           CCS      K2THETA    +1                         #  SIGN TEST FOR LOW ORDER PART.
000473: 21,3546           35026        NEGDRIVE           CA       BIT1
000474: 21,3547           13551                           TCF      +2                                    #  STOP GIMBAL DRIVE FOR A ZERO NEGUSUM.
000475: 21,3550           45026        POSDRIVE           CS       BIT1
000476: 21,3551           51745                           INDEX    QRCNTR
000477: 21,3552           55500                           TS       NEGUQ
000478:
000479: 21,3553           11745                           CCS      QRCNTR                                #  HAVE BOTH AXES BEEN PROCESSED?
000480: 21,3554           13100                           TCF      GOQTRIMG                              #  NO.  DO Q AXIS NEXT.
000481:
000482: 21,3555           00004                           INHINT
000483: 21,3556           03242                           TC       ACDT+C12
000484: 21,3557           00003                           RELINT
000485:
000486: 21,3560           31471                           CA       SAVESR                                #  RESTORE THE SR
000487: 21,3561           54021                           TS       SR
000488:
000489: 21,3562           00006        GOCLOSE            EXTEND                                         #  TERMINATE THE JASK.
000490: 21,3563           33566                           DCA      CLOSEADR
000491: 21,3564           52006                           DTCB
000492:
000493: 21,3565  E6,1532                                  EBANK=   AOSQ
000494: 21,3565           03021 36106  CLOSEADR           2CADR    CLOSEOUT                              #  TERMINATE THE JASK.
000495:
000496: 21,3567     5743               TWELVE             EQUALS   OCT14
000497: 21,3567           20761        STARTER            DEC      .53033                                #  INITIAL VALUE FOR SQRT ALGORITHM.
000498:
000499:                                                                                                  #  SUBROUTINE ROOTCYCL:  BY CRAIG WORK,3 APRIL 68
000500:
000501:                                                                                                  #  ROOTCYCL IS A SUBROUTINE WHICH EXECUTES ONE NEWTON SQUARE ROOT ALGORITHM ITERATION.  THE INITIAL GUESS AT THE
000502:                                                                                                  #  SQUARE ROOT IS PRESUMED TO BE IN THE A REGISTER AND ONE-HALF THE SQUARE IS TAKEN FROM HALFARG.  THE NEW APPROXI-
000503:                                                                                                  #  MATION TO THE SQUARE ROOT IS RETURNED IN THE A REGISTER.  DEBRIS:  A,L,SR,SCRATCH.   ROOTCYCL IS CALLED FROM
000504:                                                                                                  #  LOCATION (LOC) BY A TC ROOTCYCL, AND RETURNS (TC Q) TO LOC +1.
000505:
000506:                                                                                                  #  WARNING:  IF THE INITIAL GUESS IS NOT GREATER THAN THE SQUARE, DIVIDE OR ADD OVERFLOW IS A REAL POSSIBILITY.
000507:
000508: 21,3570           55741        ROOTCYCL           TS       SCRATCH                               #  STORE X
000509: 21,3571           54021                           TS       SR                                    #  X/2 NOW IN SR
000510: 21,3572           31742                           CA       HALFARG                               #  ARG/2 IN THE A REG
000511: 21,3573           22007                           ZL                                             #  PREPARE FOR DIVISION
000512: 21,3574           00006                           EXTEND
000513: 21,3575           11741                           DV       SCRATCH                               #  (ARG/X)/2
000514: 21,3576           60021                           AD       SR                                    #  (X + ARG/X)/2 IN THE A REG
000515: 21,3577           00002                           TC       Q
000516:
000517:

End of include-file TRIM_GIMBAL_CONTROL_SYSTEM.agc.  Parent file is MAIN.agc


