
Source Code


000002:                                                                                                  ## Copyright:   Public domain.
000003:                                                                                                  ## Filename:    UPDATE_PROGRAM.agc
000004:                                                                                                  ## Purpose:     A section of a reconstructed, mixed version of Sundance
000005:                                                                                                  ##              It is part of the reconstructed source code for the Lunar
000006:                                                                                                  ##              Module's (LM) Apollo Guidance Computer (AGC) for Apollo 9.
000007:                                                                                                  ##              No original listings of this program are available;
000008:                                                                                                  ##              instead, this file was created via disassembly of dumps
000009:                                                                                                  ##              of various revisions of Sundance core rope modules.
000010:                                                                                                  ## Assembler:   yaYUL
000011:                                                                                                  ## Contact:     Ron Burkey <info@sandroid.org>.
000012:                                                                                                  ## Website:     www.ibiblio.org/apollo/index.html
000013:                                                                                                  ## Mod history: 2020-06-17 MAS  Created from Luminary 69.
000014:
000015:                                                                                                  ## Sundance 306
000016:
000017:                                                                                                  #  PROGRAM NAME:   P27
000018:                                                                                                  #  WRITTEN BY:     KILROY/ DE WOLF
000019:
000020:                                                                                                  #  MOD NO:         6
000021:                                                                                                  #  MOD BY:         KILROY
000022:                                                                                                  #  DATE:           01DEC67
000023:
000024:                                                                                                  #  LOG SECTION:    UPDATE PROGRAM.
000025:
000026:                                                                                                  #  FUNCT. DESCR:   P27 (THE UPDATE PROGRAM) PROCESSES COMMANDS AND DATA
000027:                                                                                                  #                      INSERTIONS REQUESTED BY THE GROUND VIA UPLINK.
000028:                                                                                                  #                      THE P27 PROGRAM WILL ACCEPT UPDATES
000029:                                                                                                  #                      ONLY DURING P00 FOR THE LM, AND ONLY DURING P00,
000030:                                                                                                  #                      P02, AND FRESH START FOR THE CSM
000031:
000032:                                                                                                  #  CALLING SEQ:    PROGRAM IS INITIATED BY UPLINK ENTRY OF VERBS 70, 71, 72 AND 73.
000033:
000034:                                                                                                  #  SUBROUTINES:    TESTXACT, NEWMODEX, NEWMODEX +3, GOXDSPF, BANKCALL, FINDVAC, INTPRET, INTSTALL, TPAGREE,
000035:                                                                                                  #                  INTWAKEU, ENDEXT, POSTJUMP, FALTON, NEWPHASE, PHASCHNG
000036:
000037:                                                                                                  #  NORMAL EXIT:    TC ENDEXT
000038:
000039:                                                                                                  #  ALARM/ABORT:    TC FALTON FOLLOWED BY TC ENDEXT
000040:
000041:                                                                                                  #  RESTARTS:       P27 IS RESTART PROTECTED IN TWO WAYS...
000042:                                                                                                  #                  1. PRIOR TO VERIFLAG INVERSION(WHICH IS CAUSED BY THE GROUND/ASTRONAUT'S VERIFICATION OF UPDATE
000043:                                                                                                  #                     DATA BY SENDING A V33E WHEN V21N02 IS FLASHING)---
000044:                                                                                                  #                     NO PROTECTION EXCEPT PRE-P27 MODE IS RESTORED, COAST + ALIGN DOWNLIST IS SELECTED AND UPLINK
000045:                                                                                                  #                     ACTIVITY LIGHT IS TURNED OFF.(JUST AS IF A V34E WAS SENT DURING P27 DATA LOADS).
000046:                                                                                                  #                     V70,V71,V72 OR V73 WILL HAVE TO BE COMPLETELY RESENT BY USER.
000047:                                                                                                  #                  2. AFTER VERIFLAG INVERSION(WHEN UPDATE OF THE SPECIFIED ERASABLES IS BEING PERFORMED)---
000048:                                                                                                  #                     PROTECTED AGAINST RESTARTS.
000049:
000050:                                                                                                  #  DEBRIS:         UPBUFF   (20D)  TEMP STORAGE FOR ADDRESSES AND CONTENTS.
000051:                                                                                                  #                  UPVERB   (1)    VERB NUMBER MINUS 70D (E.G. FOR V72, UPVERB = 72D - 70D = 2)
000052:                                                                                                  #                  UPOLDMOD (1)    FOR MAJOR MODE INTERRUPTED BY P27.
000053:                                                                                                  #                  COMPNUMB (1)    TOTAL NUMBER OF COMPONENTS TO BE TRANSMITTED.
000054:                                                                                                  #                  UPCOUNT  (1)    ACTUAL NUMBER OF COMPONENTS RECEIVED.
000055:                                                                                                  #                  UPTEMP   (1)    SCRATCH, BUT USUALLY CONTAINS COMPONENT NUMBER TO BE CHANGED DURING VERIFY CYCLE
000056:
000057:                                                                                                  #  INPUT:
000058:
000059:                                                                                                  #   ENTRY:           DESCRIPTION
000060:
000061:                                                                                                  #   V70EXXXXXEXXXXXE (LIFTOFF TIME INCREMENT) DOUBLE PRECISION OCTAL TIME INCREMENT, XXXXX XXXXX,
000062:                                                                                                  #                    IS ADDED TO TEPHEM, SUBTRACTED FROM AGC CLOCK(TIME2,TIME1), SUBTRACTED FROM CSM STATE
000063:                                                                                                  #                    VECTOR TIME(TETCSM) AND SUBTRACTED FROM LEM STATE VECTOR TIME(TETLEM).
000064:                                                                                                  #                    THE DP OCTAL TIME INCREMENT IS SCALED AT 2(28).
000065:                                                                                                  #   V71EIIEAAAAE     (CONTIGUOUS BLOCK UPDATE) II-2 OCTAL COMPONENTS,XXXXX,
000066:                                                                                                  #   XXXXXE           ARE LOADED INTO ERASABLE STARTING AT ECADR, AAAA.
000067:                                                                                                  #  XXXXXE            IT IS .GE. 3 .AND. .LE. 20D.,
000068:                                                                                                  #                    AND (AAAA + II -3) DOES NOT PRODUCE AN ADDRESS IN THE
000069:                                                                                                  #  9 NEXT BANK
000070:                                                                                                  #    .               SCALING IS SAME AS INTERNAL REGISTERS.
000071:
000072:                                                                                                  #   V72EIIE          (SCATTER UPDATE) (II-1)/2 OCTAL COMPONENTS,XXXXX, ARE
000073:                                                                                                  #   AAAAEXXXXXE      LOADED INTO ERASABLE LOCATIONS, AAAA.
000074:                                                                                                  #   AAAAEXXXXXE      II IS .GE. 3 .AND. .LE. 19D, AND MUST BE ODD.
000075:                                                                                                  #    .               SCALING IS SAME AS INTERNAL REGISTERS.
000076:
000077:                                                                                                  #   V73EXXXXXEXXXXXE (OCTAL CLOCK INCREMENT) DOUBLE PRECISION OCTAL TIME
000078:                                                                                                  #                    INCREMENT XXXXX XXXXX, IS ADDED TO THE AGC CLOCK, IN
000079:                                                                                                  #                    CENTISECONDS SCALED AT (2)28.
000080:                                                                                                  #                    THIS LOAD IS THE OCTAL EQUIVALENT OF V55.
000081:
000082:                                                                                                  #  OUTPUT:         IN ADDITION TO THE ABOVE REGISTER LOADS, ALL UPDATES
000083:                                                                                                  #                  COMPLEMENT BIT3 OF FLAGWORD7.
000084:
000085:                                                                                                  #  ADDITIONAL NOTES: VERB 71, JUST DEFINED ABOVE WILL BE USED TO PERFORM BUT NOT LIMITED TO THE FOLLOWING UPDATES--
000086:                                                                                                  #                  1. CSM/LM STATE VECTOR UPDATE
000087:                                                                                                  #                  2. REFSMMAT UPDATE
000088:
000089:                                                                                                  #           THE FOLLOWING COMMENTS DELINEATE EACH SPECIAL UPDATE----
000090:
000091:                                                                                                  #  1. CSM/LM STATE VECTOR UPDATE (ALL DATA ENTRIES IN OCTAL)
000092:
000093:                                                                                                  #  ENTRIES:        DATA DEFINITION:                                        SCALE FACTORS:
000094:                                                                                                  #  V71E            CONTIGUOUS BLOCK UPDATE VERB
000095:                                                                                                  #     21E          NUMBER OF COMPONENTS FOR STATE VECTOR UPDATE
000096:                                                                                                  #   AAAAE          ECADR OF 'UPSVFLAG'
000097:                                                                                                  #  XXXXXE          STATE VECTOR IDENTIFIER: 00001 FOR CSM, 77776 FOR LEM - EARTH SPHERE OF INFLUENCE SCALING
000098:                                                                                                  #                                           00002 FOR CSM, 77775 FOR LEM - LUNAR SPHERE OF INFLUENCE SCALING
000099:                                                                                                  #  XXXXXEXXXXXE    X POSITION
000100:                                                                                                  #  XXXXXEXXXXXE    Y POSITION
000101:                                                                                                  #  XXXXXEXXXXXE    Z POSITION
000102:                                                                                                  #  XXXXXEXXXXXE    X VELOCITY
000103:                                                                                                  #  XXXXXEXXXXXE    Y VELOCITY
000104:                                                                                                  #  XXXXXEXXXXXE    Z VELOCITY
000105:                                                                                                  #  XXXXXEXXXXXE    TIME FROM AGC CLOCK ZERO
000106:                                                                                                  #  V33E            VERB 33 TO SIGNAL THAT THE STATE VECTOR IS READY TO BE STORED.
000107:
000108:                                                                                                  #  2. REFSMMAT(ALL DATA ENTRIES IN OCTAL)
000109:                                                                                                  #  ENTRIES:        DATA DEFINITIONS:                                       SCALE FACTORS:
000110:                                                                                                  #  V71E            CONTIGUOUS BLOCK UPDATE VERB
000111:                                                                                                  #     24E          NUMBER OF COMPONENTS FOR REFSMMAT UPDATE
000112:                                                                                                  #   AAAAE          ECADR OF 'REFSMMAT'
000113:                                                                                                  #  XXXXXEXXXXXE    ROW 1 COLUMN 1                                          2(-1)
000114:                                                                                                  #  XXXXXEXXXXXE    ROW 1 COLUMN 2                                          2(-1)
000115:                                                                                                  #  XXXXXEXXXXXE    ROW 1 COLUMN 3                                          2(-1)
000116:                                                                                                  #  XXXXXEXXXXXE    ROW 2 COLUMN 1                                          2(-1)
000117:                                                                                                  #  XXXXXEXXXXXE    ROW 2 COLUMN 2                                          2(-1)
000118:                                                                                                  #  XXXXXEXXXXXE    ROW 2 COLUMN 3                                          2(-1)
000119:                                                                                                  #  XXXXXEXXXXXE    ROW 3 COLUMN 1                                          2(-1)
000120:                                                                                                  #  XXXXXEXXXXXE    ROW 3 COLUMN 2                                          2(-1)
000121:                                                                                                  #  XXXXXEXXXXXE    ROW 3 COLUMN 3                                          2(-1)
000122:                                                                                                  #  V33E            VERB 33 TO SIGNAL THAT REFSMMAT IS READY TO BE STORED.
000123:
000124:
000125: 07,3701                                           BANK     07
000126: 43,2000                                           SETLOC   EXTVERBS
000127: 43,2000                                           BANK
000128:
000129: 43,3724  E3,1706                                  EBANK=   TEPHEM
000130:
000131: 43,3724                                           COUNT*   $$/P27
000132: 43,3724           35030        V70UPDAT           CAF      UP70                                  #  COMES HERE ON V70E
000133: 43,3725           13733                           TCF      V73UPDAT   +1
000134:
000135: 43,3726           35026        V71UPDAT           CAF      UP71                                  #  COMES HERE ON V71E
000136: 43,3727           13733                           TCF      V73UPDAT   +1
000137:
000138: 43,3730           35025        V72UPDAT           CAF      UP72                                  #  COMES HERE ON V72E
000139: 43,3731           13733                           TCF      V73UPDAT   +1
000140:
000141: 43,3732           36221        V73UPDAT           CAF      UP73                                  #  COMES HERE ON V73E
000142:
000143: 43,3733           54300                 +1        TS       UPVERBSV                              #  SAVE UPVERB UNTIL IT'S OK TO ENTER P27
000144:
000145: 43,3734           02076                           TC       TESTXACT                              #  GRAB DISPLAY IF AVAILABLE, OTHERWISE
000146:                                                                                                  #  TURN*OPERATOR ERROR* ON AND TERMINATEJOB
000147:
000148: 43,3735           31012                           CA       MODREG                                #  CHECK IF UPDATE ALLOWED
000149: 43,3736           00006                           EXTEND                                         #  FIRST CHECK FOR MODREG = +0, -0
000150: 43,3737           13741                           BZF      +2                                    #  (+0 = P00, -0 = FRESHSTART)
000151: 43,3740           03751                           TC       CKMDMORE                              #  NOW CHECK FOR PROGRAM WHICH CAN BE
000152:                                                                                                  #                                          INTERRUPTED BY P27.
000153:
000154: 43,3741           31012                           CAE      MODREG                                #  UPDATE ALLOWED.
000155: 43,3742           54303                           TS       UPOLDMOD                              #  SAVE CURRENT MAJOR MODE
000156: 43,3743           30300                           CAE      UPVERBSV                              #  SET UPVERB TO INDICATE TO P27
000157:
000158: 43,3744           54304                           TS       UPVERB                                #  WHICH EXTENDED VERB CALLED IT.
000159:
000160: 43,3745           35026                           CAF      ONE
000161: 43,3746           54305                           TS       UPCOUNT                               #  INITIALIZE UPCOUNT TO 1
000162:
000163: 43,3747           04674                           TC       POSTJUMP                              #  LEAVE EXTENDED VERB BANK AND
000164: 43,3750           11210                           CADR     UPPART2                               #  GO TO UPDATE PROGRAM (P27) BANK.
000165:
000166: 43,3751           40101        CKMDMORE           CS       FLAGWRD5
000167: 43,3752           75017                           MASK     BIT8                                  #  CHECK IF COMPUTER IS LGC
000168: 43,3753           10000                           CCS      A                                     #  IS COMPUTER LGC OR AGC
000169: 43,3754           13762        UPERLEM            TCF      UPERROR                               #  ERROR- IT'S THE LEM + MODE IS NOT POO.
000170: 43,3755           46221                           CS       THREE
000171: 43,3756           71012                           MASK     MODREG
000172: 43,3757           10000                           CCS      A
000173: 43,3760           13762        UPERCMC            TCF      UPERROR                               #  ERROR- IT'S THE CMC AND MODE IS NOT
000174:                                                                                                  #                                          P00 OR P02.
000175: 43,3761           00002                           TC       Q                                     #  ALLOW UPDATE TO PROCEED
000176: 43,3762           04674        UPERROR            TC       POSTJUMP                              #  TURN ON 'OPERATOR ERROR' LIGHT
000177: 43,3763           11623                           CADR     UPERROUT   +2                         #  GO TO COMMON UPDATE PROGRAM EXIT
000178:
000179: 43,3764     5030               UP70               EQUALS   ZERO
000180: 43,3764     5026               UP71               EQUALS   ONE
000181: 43,3764     5025               UP72               EQUALS   TWO
000182: 43,3764     6221               UP73               EQUALS   THREE
000183:


000185:
000186: 04,3210                                           BANK     04
000187: 04,2000                                           SETLOC   UPDATE2
000188: 04,2000                                           BANK
000189:
000190: 04,3210                                           COUNT*   $$/P27
000191:
000192: 04,3210                        UPPART2            EQUALS                                         #  UPDATE PROGRAM - PART 2
000193:
000194: 04,3210           05413                           TC       PHASCHNG                              #  SET RESTART GROUP 6 TO RESTORE OLD MODE
000195: 04,3211           07026                           OCT      07026                                 #  AND DOWNLIST AND EXIT IF RESTART OCCURS.
000196: 04,3212           30000                           OCT      30000                                 #  PRIORITY SAME AS CHRPRIO
000197: 04,3213     0306                                  EBANK=   UPBUFF
000198: 04,3213           03553 10100                     2CADR    UPOUT      +1
000199:
000200: 04,3215           35026                           CAF      ONE
000201: 04,3216           54332                           TS       DNLSTCOD                              #  DOWNLIST
000202:
000203: 04,3217           05351                           TC       NEWMODEX                              #  SET MAJOR MODE = 27
000204: 04,3220           00033                           DEC      27         B-14
000205:
000206: 04,3221           50304                           INDEX    UPVERB                                #  BRANCH DEPENDING ON WHETHER THE UPDATE
000207: 04,3222           13223                           TCF      +1                                    #  VERB REQUIRES A FIXED OR VARIABLE NUMBER
000208: 04,3223           13226                           TCF      +3                                    #  V70 FIXED.               (OF COMPONENTS.
000209: 04,3224           13231                           TCF      OHWELL1                               #  V71 VARIABLE - GO GET NO. OF COMPONENTS
000210: 04,3225           13231                           TCF      OHWELL1                               #  V72 VARIABLE - GO GET NO. OF COMPONENTS
000211: 04,3226           35025                           CA       TWO                                   #  V73 (AND V70) FIXED
000212: 04,3227           54302                           TS       COMPNUMB                              #  SET NUMBER OF COMPONENTS TO 2.
000213: 04,3230           13254                           TCF      OHWELL2                               #  GO GET THE TWO UPDATE COMPONENTS
000214:
000215: 04,3231           33330        OHWELL1            CAF      ADUPBUFF                              #  * REQUEST USER TO SEND NUMBER *
000216: 04,3232           54156                           TS       MPAC       +2                         #  * OF COMPONENTS PARAMETER(II).*
000217: 04,3233           33331                 +2        CAF      UPLOADNV                              #  (CK4V32 RETURNS HERE IF V32 ENCOUNTERED)
000218: 04,3234           04655                           TC       BANKCALL                              #  DISPLAY A FLASHING V21N01
000219: 04,3235           20226                           CADR     GOXDSPF                               #  TO REQUEST II.
000220: 04,3236           13553                           TCF      UPOUT4                                #  V34 TERMINATE UPDATE (P27) RETURN
000221: 04,3237           13233                           TCF      OHWELL1    +2
000222: 04,3240           03317                           TC       CK4V32                                #  DATA OR V32 RETURN
000223: 04,3241           45025                           CS       BIT2
000224: 04,3242           60306                           AD       UPBUFF                                #  IS II (NUMBER OF COMPONENTS PARAMETER)
000225: 04,3243           00006                           EXTEND                                         #  .GE. 3 AND .LE. 20D.
000226: 04,3244           63231                           BZMF     OHWELL1
000227: 04,3245           40306                           CS       UPBUFF
000228: 04,3246           64374                           AD       UP21
000229: 04,3247           00006                           EXTEND
000230: 04,3250           63231                           BZMF     OHWELL1
000231: 04,3251           30306                           CAE      UPBUFF
000232: 04,3252           54302                           TS       COMPNUMB                              #  SAVE II IN COMPNUMB
000233:
000234:                                                                                                  #           UPBUFF LOADING SEQUENCE
000235:
000236: 04,3253           24305                           INCR     UPCOUNT                               #  INCREMENT COUNT OF COMPONENTS RECEIVED.
000237: 04,3254           33333        OHWELL2            CAF      ADUPBFM1                              #  CALCULATE LOCATION(ECADR) IN UPBUFF
000238: 04,3255           60305                           AD       UPCOUNT                               #  WHERE NEXT COMPONENT SHOULD BE STORED.
000239: 04,3256           54156                 +2        TS       MPAC       +2                         #  PLACE ECADR INTO R3.
000240: 04,3257           33331                 +3        CAF      UPLOADNV                              #  (CK4V32 RETURNS HERE IF V32 ENCOUNTERED)
000241: 04,3260           04655                           TC       BANKCALL                              #  DISPLAY A FLASHING V21N01
000242: 04,3261           20226                           CADR     GOXDSPF                               #  TO REQUEST DATA.
000243: 04,3262           13553                           TCF      UPOUT4                                #  V34 TERMINATE UPDATE (P27) RETURN.
000244: 04,3263           13257                           TCF      OHWELL2    +3                         #  V33 PROCEED RETURN
000245: 04,3264           03317                           TC       CK4V32                                #  DATA OR V32 RETURN
000246: 04,3265           40305                           CS       UPCOUNT                               #  HAVE WE FINISHED RECEIVING ALL
000247: 04,3266           60302                           AD       COMPNUMB                              #  THE DATA WE EXPECTED.
000248: 04,3267           00006                           EXTEND
000249: 04,3270           63272                           BZMF     UPVERIFY                              #  YES- GO TO VERIFICATION SEQUENCE
000250: 04,3271           13253                           TCF      OHWELL2    -1                         #  NO- REQUEST ADDITIONAL DATA.
000251:
000252:                                                                                                  #           VERIFY SEQUENCE
000253:
000254: 04,3272           33327        UPVERIFY           CAF      ADUPTEMP                              #  PLACE ECADR WHERE COMPONENT NO. INDEX
000255: 04,3273           54156                           TS       MPAC       +2                         #  IS TO BE STORED INTO R3.
000256: 04,3274           33332                           CAF      UPVRFYNV                              #  (CK4V32 RETURNS HERE IF V32 ENCOUNTERED)
000257: 04,3275           04655                           TC       BANKCALL                              #  DISPLAY A FLASHING V21N02 TO REQUEST
000258: 04,3276           20226                           CADR     GOXDSPF                               #  DATA CORRECTION OR VERIFICATION.
000259: 04,3277           13553                           TCF      UPOUT4                                #  V34 TERMINATE UPDATE (P27) RETURN
000260: 04,3300           13334                           TCF      UPSTORE                               #  V33 DATA SENT IS GOOD.  GO STORE IT.
000261: 04,3301           03317                           TC       CK4V32                                #  COMPONENT NO. INDEX OR V32 RETURN
000262: 04,3302           10301                           CCS      UPTEMP                                #  DOES THE COMPONENT NO. INDEX JUST SENT
000263: 04,3303           13307                           TCF      +4                                    #  SPECIFY A LEGAL COMPONENT NUMBER?
000264: 04,3304           13272                           TCF      UPVERIFY                              #  NO, IT IS NOT POSITIVE NONZERO
000265: 04,3305           13272                           TCF      UPVERIFY
000266: 04,3306           13272                           TCF      UPVERIFY
000267: 04,3307           40301                           CS       UPTEMP
000268: 04,3310           60302                           AD       COMPNUMB
000269: 04,3311           65026                           AD       BIT1
000270: 04,3312           00006                           EXTEND
000271: 04,3313           63272                           BZMF     UPVERIFY                              #  NO
000272: 04,3314           33333                           CAF      ADUPBFM1                              #  YES- BASED ON THE COMPONENT NO. INDEX
000273: 04,3315           60301                           AD       UPTEMP                                #  CALCULATE THE ECADR OF LOCATION IN
000274: 04,3316           13256                           TCF      OHWELL2    +2                         #  UPBUFF WHICH USER WANTS TO CHANGE.
000275:
000276: 04,3317  04,3553               UPOUT4             EQUALS   UPOUT      +1                         #  COMES HERE ON V34 TO TERMINATE UPDATE
000277:
000278:                                                                                                  #           CHECK FOR VERB 32 SEQUENCE
000279:
000280: 04,3317           40154        CK4V32             CS       MPAC                                  #  ON DATA RETURN FROM 'GOXDSPF'
000281: 04,3320           65021                           AD       BIT6                                  #  ON DATA RETURN FROM "GOXDSP"& THE CON-
000282: 04,3321           00006                           EXTEND                                         #  TENTS OF MPAC = VERB.  SO TEST FOR V32.
000283: 04,3322           13324                           BZF      +2
000284: 04,3323           00002                           TC       Q                                     #  IT'S NOT A V32, IT'S DATA.  PROCEED.
000285: 04,3324           46216                           CS       SIX
000286: 04,3325           60002                           AD       Q
000287: 04,3326           00000                           TC       A                                     #  V32 ENCOUNTERED - GO BACK AND GET DATA
000288:
000289: 04,3327           00301        ADUPTEMP           ADRES    UPTEMP                                #  ADDRESS OF TEMP STORAGE FOR CORRECTIONS
000290: 04,3330           00306        ADUPBUFF           ADRES    UPBUFF                                #  ADDRESS OF UPDATE DATA STORAGE BUFFER
000291: 04,3331           05201        UPLOADNV           VN       2101                                  #  VERB 21 NOUN 01
000292: 04,3332           05202        UPVRFYNV           VN       2102                                  #  VERB 21 NOUN 02
000293: 04,3333           00305        ADUPBFM1           ADRES    UPBUFF     -1                         #  SAME AS ADUPBUFF BUT LESS 1
000294: 04,3334     4374               UP21               =        MD1                                   #  DEC 21 = MAX NO OF COMPONENTS +1
000295: 04,3334     5031               UPDTPHAS           EQUALS   FIVE
000296:
000297:                                                                                                  #           PRE-STORE AND FAN TO APPROPRIATE BRANCH SEQUENCE
000298:
000299: 04,3334                        UPSTORE            EQUALS                                         #  GROUND HAS VERIFIED UPDATE. STORE DATA.
000300:
000301: 04,3334           00004                           INHINT
000302:
000303: 04,3335           30103                           CAE      FLAGWRD7                              #  INVERT VERIFLAG(BIT 3 OF FLAGWRD7) TO
000304: 04,3336           56001                           XCH      L                                     #  INDICATE TO THE GROUND(VIA DOWNLINK)
000305: 04,3337           35024                           CAF      VERIFBIT                              #  THAT THE V33 (WHICH THE GROUND SENT TO
000306: 04,3340           00006                           EXTEND                                         #  VERIFY THE UPDATE) HAS BEEN SUCCESSFULLY
000307: 04,3341           06001                           RXOR     LCHAN                                 #  RECEIVED BY THE UPDATE PROGRAM
000308: 04,3342           54103                           TS       FLAGWRD7
000309:
000310: 04,3343           05413                           TC       PHASCHNG                              #  SET RESTART GROUP 6 TO REDO THE UPDATE
000311: 04,3344           04026                           OCT      04026                                 #  DATA STORE IF A RESTART OCCURS.
000312: 04,3345           00004                           INHINT                                         #  (BECAUSE PHASCHNG DID A RELINT)
000313:
000314: 04,3346           50304                           INDEX    UPVERB                                #  GO TO UPFNDVAC IF INSTALL IS REQUIRED,
000315: 04,3347           13350                           TCF      +1                                    #  THAT IS, IF IT'S A V70 - V72.
000316: 04,3350           13361                           TCF      UPFNDVAC
000317: 04,3351           13361                           TCF      UPFNDVAC
000318: 04,3352           13361                           TCF      UPFNDVAC
000319:
000320:                                                                                                  #           VERB 73 BRANCH
000321: 04,3353           00006        UPEND73            EXTEND                                         #  V73-PERFORM DP OCTAL AGC CLOCK INCREMENT
000322:
000323: 04,3354           30307                           DCA      UPBUFF
000324: 04,3355           52317                           DXCH     UPBUFF     +8D
000325: 04,3356           03405                           TC       TIMEDIDL
000326: 04,3357           04376                           TC       FALTON                                #  ERROR- TURN ON *OPERATOR ERROR* LIGHT
000327: 04,3360           03553                           TC       UPOUT      +1                         #  GO TO COMMON UPDATE PROGRAM EXIT
000328:
000329: 04,3361           34367        UPFNDVAC           CAF      CHRPRIO                               #  (USE EXTENDED VERB PRIORITY)
000330: 04,3362           05155                           TC       FINDVAC                               #  GET VAC AREA FOR 'CALL INTSTALL'
000331: 04,3363  E3,1706                                  EBANK=   TEPHEM
000332: 04,3363           03366 10103                     2CADR    UPJOB                                 #  (NOTE: THIS WILL ALSO SET EBANK FOR
000333:
000334: 04,3365           05225                           TC       ENDOFJOB                              #  'TEPHEM' UPDATE BY V70)
000335:
000336: 04,3366           06014        UPJOB              TC       INTPRET                               #  THIS COULD BE A STATE VECTOR UPDATE--SO
000337: 04,3367           77624                           CALL                                           #  WAIT(PUT JOB TO SLEEP) IF ORBIT INT(OI)
000338: 04,3370           27362                                    INTSTALL                              #  IS IN PROGRESS--OR--GRAB OI AND RETURN
000339:                                                                                                  #  TO UPWAKE IF OI IS NOT IN PROGRESS.
000340:
000341: 04,3371           77776        UPWAKE             EXIT
000342:
000343: 04,3372           05413                           TC       PHASCHNG                              #  RESTART PROTECT(GROUP 6)
000344: 04,3373           04026                           OCT      04026
000345:
000346: 04,3374           00004                           INHINT
000347: 04,3375           40774                           CS       RASFLAG                               #  SET INTEGRATION RESTART BIT
000348: 04,3376           75020                           MASK     REINTBIT
000349: 04,3377           26774                           ADS      RASFLAG
000350: 04,3400                        UPPART3            EQUALS
000351:
000352: 04,3400           50304                           INDEX    UPVERB                                #  BRANCH TO THE APPROPRIATE UPDATE VERB
000353: 04,3401           13402                           TCF      +1                                    #  ROUTINE TO ACTUALLY PERFORM THE UPDATE
000354: 04,3402           13564                           TCF      UPEND70                               #  V70
000355: 04,3403           13450                           TCF      UPEND71                               #  V71
000356: 04,3404           13506                           TCF      UPEND72                               #  V72
000357:
000358:                                                                                                  #           ROUTINE TO INCREMENT CLOCK(TIME2,TIME1) WITH CONTENTS OF DP WORD AT UPBUFF.
000359:
000360: 04,3405           00006        TIMEDIDL           EXTEND
000361: 04,3406           22301                           QXCH     UPTEMP                                #  SAVE Q FOR RETURN
000362: 04,3407           35030                           CAF      ZERO                                  #  ZERO AND SAVE TIME2,TIME1
000363: 04,3410           22007                           ZL
000364: 04,3411           52025                           DXCH     TIME2
000365: 04,3412           52331                           DXCH     UPBUFF     +18D                       #  STORE IN CASE OF OVERFLOW
000366:
000367: 04,3413           35031                           CAF      UPDTPHAS                              #  DO
000368: 04,3414           54001                           TS       L                                     #  A
000369: 04,3415           40000                           COM                                            #  QUICK
000370: 04,3416           52765                           DXCH     -PHASE6                               #  PHASCHNG
000371: 04,3417           00004        TIMEDIDR           INHINT
000372:
000373: 04,3420           35030                           CAF      ZERO
000374: 04,3421           22007                           ZL                                             #  PICK UP INCREMENTER(AND ZERO
000375: 04,3422           54156                           TS       MPAC       +2                         #  IT IN CASE OF RESTARTS) AND
000376: 04,3423           52317                           DXCH     UPBUFF     +8D                        #  STORE IT
000377: 04,3424           52155                           DXCH     MPAC                                  #  INTO MPAC FOR TPAGREE.
000378:
000379: 04,3425           00006                           EXTEND
000380: 04,3426           30331                           DCA      UPBUFF     +18D
000381: 04,3427           20155                           DAS      MPAC                                  #  FORM SUM IN MPAC
000382: 04,3430           00006                           EXTEND
000383: 04,3431           13440                           BZF      DELTAOK                               #  TEST FOR OVERFLOW
000384: 04,3432           35030                           CAF      ZERO
000385: 04,3433           52331                           DXCH     UPBUFF     +18D                       #  OVERFLOW, RESTORE OLD VALUE OF CLOCK
000386: 04,3434           20025                           DAS      TIME2                                 #  AND TURN ON OPERATOR ERROR
000387:
000388: 04,3435           05413                           TC       PHASCHNG                              #  RESTART PROTECT(GROUP 6)
000389: 04,3436           04026                           OCT      04026
000390:
000391: 04,3437           00301                           TC       UPTEMP                                #  GO TO ERROR EXIT
000392:
000393: 04,3440           07231        DELTAOK            TC       TPAGREE                               #  FORCE SIGN AGREEMENT
000394: 04,3441           52155                           DXCH     MPAC
000395: 04,3442           20025                           DAS      TIME2                                 #  INCREMENT TIME2,TIME1
000396:
000397: 04,3443           05413                           TC       PHASCHNG                              #  RESTART PROTECT(GROUP 6)
000398: 04,3444           04026                           OCT      04026
000399:
000400: 04,3445           00004                           INHINT
000401: 04,3446           50301                           INDEX    UPTEMP                                #  (CODED THIS WAY FOR RESTART PROTECTION)
000402: 04,3447           00001                           TC       1                                     #  NORMAL RETURN
000403:
000404:                                                                                                  #           VERB 71 BRANCH
000405:
000406: 04,3450           43504        UPEND71            CS       ENDSAFE
000407: 04,3451           60307                           AD       UPBUFF     +1
000408: 04,3452           00006                           EXTEND
000409: 04,3453           63621                           BZMF     UPERROUT
000410:
000411: 04,3454           30307                           CAE      UPBUFF     +1                         #  SET EBANK
000412: 04,3455           54003                           TS       EBANK                                 #     AND
000413: 04,3456           74371                           MASK     LOW8                                  #  CALCULATE
000414: 04,3457           54301                           TS       UPTEMP                                #  S-REG VALUE OF RECEIVING AREA
000415:
000416: 04,3460           67717                           AD       NEG3                                  #  IN THE PROCESS OF
000417: 04,3461           60302                           AD       COMPNUMB                              #  PERFORMING
000418: 04,3462           00006                           EXTEND                                         #  THIS UPDATE
000419: 04,3463           13471                           BZF      STORLP71                              #  WILL WE
000420: 04,3464           75016                           MASK     BIT9                                  #  OVERFLOW
000421: 04,3465           10000                           CCS      A                                     #  INTO THE NEXT EBANK....
000422: 04,3466           13621                           TCF      UPERROUT                              #  YES
000423:
000424: 04,3467           37717                           CA       NEG3                                  #  NO- CALCULATE NUMBER OF
000425: 04,3470           60302                           AD       COMPNUMB                              #  WORDS TO BE STORED MINUS ONE
000426: 04,3471           54154        STORLP71           TS       MPAC                                  #  SAVE NO. OF WORDS REMAINING MINUS ONE
000427: 04,3472           50000                           INDEX    A                                     #  TAKE NEXT UPDATE WORD FROM
000428: 04,3473           30310                           CA       UPBUFF     +2                         #  UPBUFF AND
000429: 04,3474           22000                           LXCH     A                                     #  SAVE IT IN L
000430: 04,3475           30154                           CA       MPAC                                  #  CALCULATE NEXT
000431: 04,3476           60301                           AD       UPTEMP                                #  RECEIVING ADDRESS
000432: 04,3477           50000                           INDEX    A
000433: 04,3500  E3,1400                                  EBANK=   1400
000434: 04,3500           23400                           LXCH     1400                                  #  UPDATE THE REGISTER BY CONTENTS OF L
000435: 04,3501  E3,1706                                  EBANK=   TEPHEM
000436: 04,3501           10154                           CCS      MPAC                                  #  ARE THERE ANY WORDS LEFT TO BE STORED
000437: 04,3502           13471                           TCF      STORLP71                              #  YES
000438: 04,3503           13552                           TCF      UPOUT                                 #  NO- THEN EXIT UPDATE PROGRAM
000439: 04,3504           01074        ENDSAFE            ADRES    R1SAVE
000440: 04,3505           13552                           TCF      UPOUT                                 #  NO- EXIT UPDATE(HERE WHEN COMPNUMB = 3)
000441:
000442:                                                                                                  #           VERB 72 BRANCH
000443:
000444: 04,3506           35026        UPEND72            CAF      BIT1                                  #  HAVE AN ODD NO. OF COMPONENTS
000445: 04,3507           70302                           MASK     COMPNUMB                              #  BEEN SENT FOR A V72 UPDATE ...
000446: 04,3510           10000                           CCS      A
000447: 04,3511           13513                           TCF      +2                                    #  YES
000448: 04,3512           13621                           TCF      UPERROUT                              #  ERROR- SHOULD BE ODD NO. OF COMPONENTS
000449: 04,3513           00003                           RELINT
000450: 04,3514           45025                           CS       BIT2
000451: 04,3515           60302                           AD       COMPNUMB
000452: 04,3516           54154        LMLOOP72           TS       MPAC
000453: 04,3517           50000                           INDEX    A
000454: 04,3520           30306                           CAE      UPBUFF
000455: 04,3521           56001                           XCH      L
000456: 04,3522           43504                           CS       ENDSAFE
000457: 04,3523           60001                           AD       L
000458: 04,3524           00006                           EXTEND
000459: 04,3525           63621                           BZMF     UPERROUT
000460: 04,3526           10154                           CCS      MPAC
000461: 04,3527           10000                           CCS      A
000462: 04,3530           13516                           TCF      LMLOOP72
000463: 04,3531           00004                           INHINT
000464: 04,3532           45025                           CS       BIT2
000465: 04,3533           60302                           AD       COMPNUMB
000466: 04,3534           54154        LDLOOP72           TS       MPAC                                  #  NOW PERFORM THE UPDATE
000467: 04,3535           50000                           INDEX    A
000468: 04,3536           30307                           CAE      UPBUFF     +1                         #  PICK UP NEXT UPDATE WORD
000469: 04,3537           22000                           LXCH     A
000470: 04,3540           10154                           CCS      MPAC                                  #  SET POINTER TO ECADR (MUST BE CCS)
000471: 04,3541           54154                           TS       MPAC
000472: 04,3542           50000                           INDEX    A
000473: 04,3543           30307                           CAE      UPBUFF     +1                         #  PICK UP NEXT ECADR OF REG TO BE UPDATED
000474: 04,3544           54003                           TS       EBANK                                 #  SET EBANK
000475: 04,3545           74371                           MASK     LOW8                                  #  ISOLATE RELATIVE ADDRESS
000476: 04,3546           50000                           INDEX    A
000477: 04,3547  E3,1400                                  EBANK=   1400
000478: 04,3547           23400                           LXCH     1400                                  #  UPDATE THE REGISTER BY CONTENTS OF L
000479: 04,3550  E3,1706                                  EBANK=   TEPHEM
000480: 04,3550           10154                           CCS      MPAC                                  #  ARE WE THROUGH THE V72 UPDATE...
000481: 04,3551           13534                           TCF      LDLOOP72                              #  NO
000482:
000483:                                                                                                  #           NORMAL FINISH OF P27
000484:
000485: 04,3552                        UPOUT              EQUALS
000486: 04,3552           02775                           TC       INTWAKEU                              #  RELEASE GRAB OF ORBITAL INTEGRATION
000487: 04,3553           30303                 +1        CAE      UPOLDMOD                              #  RESTORE PRIOR P27 MODE
000488: 04,3554           05354                           TC       NEWMODEX   +3
000489: 04,3555           35030                           CAF      ZERO
000490: 04,3556           54332                           TS       DNLSTCOD
000491: 04,3557           03626                           TC       UPACTOFF                              #  TURN OFF 'UPLINK ACTIVITY' LIGHT
000492:
000493: 04,3560           35030                           CAF      ZERO                                  #  KILL GROUP 6.
000494: 04,3561           05501                           TC       NEWPHASE
000495: 04,3562           00006                           OCT      6
000496:
000497: 04,3563           05561                           TC       ENDEXT                                #  EXTENDED VERB EXIT
000498:
000499:                                                                                                  #           VERB 70 BRANCH
000500:
000501: 04,3564           00006        UPEND70            EXTEND                                         #  V70 DOES THE FOLLOWING WITH DP DELTA
000502: 04,3565           40307                           DCS      UPBUFF                                #  TIME IN UPBUFF
000503: 04,3566           52317                           DXCH     UPBUFF     +8D
000504: 04,3567           03405                           TC       TIMEDIDL                              #  DECREMENT AGC CLOCK
000505:
000506: 04,3570           03621                           TC       UPERROUT                              #  ERROR WHILE DECREMENTING CLOCK -- EXIT
000507:
000508: 04,3571  E3,1706                                  EBANK=   TEPHEM
000509: 04,3571           00006                           EXTEND
000510: 04,3572           40307                           DCS      UPBUFF                                #  COPY DECREMENTERS FOR
000511: 04,3573           52321                           DXCH     UPBUFF     +10D                       #  RESTART PROTECTION
000512: 04,3574           00006                           EXTEND
000513: 04,3575           40307                           DCS      UPBUFF
000514: 04,3576           52323                           DXCH     UPBUFF     +12D
000515:
000516: 04,3577           05413                           TC       PHASCHNG                              #  RESTART PROTECT(GROUP 6)
000517: 04,3600           04026                           OCT      04026
000518:
000519: 04,3601           35030                           CAF      ZERO
000520: 04,3602           22007                           ZL
000521: 04,3603           52321                           DXCH     UPBUFF     +10D                       #  DECREMENT CSM STATE VECTOR TIME
000522: 04,3604           21571                           DAS      TETCSM
000523:
000524: 04,3605           35030                           CAF      ZERO
000525: 04,3606           22007                           ZL
000526: 04,3607           52323                           DXCH     UPBUFF     +12D                       #  DECREMENT LEM STATE VECTOR TIME
000527: 04,3610           21643                           DAS      TETLEM
000528:
000529: 04,3611           35030                           CAF      ZERO
000530: 04,3612           22007                           ZL
000531: 04,3613           52307                           DXCH     UPBUFF
000532: 04,3614           21710                           DAS      TEPHEM     +1                         #  INCREMENT TP TEPHEM
000533: 04,3615           27706                           ADS      TEPHEM
000534:
000535: 04,3616           05413                           TC       PHASCHNG                              #  RESTART PROTECT(GROUP 6)
000536: 04,3617           04026                           OCT      04026
000537:
000538: 04,3620     0306                                  EBANK=   UPBUFF
000539: 04,3620           03552                           TC       UPOUT                                 #  GO TO STANDARD UPDATE PROGRAM EXIT
000540:
000541:
000542:                                                                                                  #           ERROR SEQUENCE
000543:
000544: 04,3621           04376        UPERROUT           TC       FALTON                                #  TURN ON *OPERATOR ERROR* LIGHT
000545: 04,3622           13552                           TCF      UPOUT                                 #  GO TO COMMON UPDATE PROGRAM EXIT
000546:
000547: 04,3623           04376                 +2        TC       FALTON                                #  TURN ON 'OPERATOR ERROR' LIGHT
000548: 04,3624           03626                           TC       UPACTOFF                              #  TURN OFF'UPLINK ACTIVITY'LIGHT
000549: 04,3625           05561                           TC       ENDEXT                                #  EXTENDED VERB EXIT
000550:                                                                                                  #  (THE PURPOSE OF UPERROUT +2 EXIT IS
000551:                                                                                                  #  TO PROVIDE AN ERROR EXIT WHICH DOES NOT
000552:                                                                                                  #  RESET ANY RESTART GROUPS)
000553:
000554:                                                                                                  #           :UPACTOFF: IS A ROUTINE TO TURN OFF UPLINK ACTIVITY LIGHT ON ALL EXITS FROM UPDATE PROGRAM (P27).
000555:
000556: 04,3626           45024        UPACTOFF           CS       BIT3
000557: 04,3627           00006                           EXTEND                                         #  TURN OFF UPLINK ACTIVITY LIGHT
000558: 04,3630           03011                           WAND     DSALMOUT                              #  (BIT 3 OF CHANNEL 11)
000559: 04,3631           00002                           TC       Q
000560:

End of include-file UPDATE_PROGRAM.agc.  Parent file is MAIN.agc


