
Source Code


000002:                                                                                                  ## Copyright:   Public domain.
000003:                                                                                                  ## Filename:    ALARM_AND_ABORT.agc
000004:                                                                                                  ## Purpose:     A section of Comanche revision 045.
000005:                                                                                                  ##              It is part of the reconstructed source code for the
000006:                                                                                                  ##              second release of the flight software for the Command
000007:                                                                                                  ##              Module's (CM) Apollo Guidance Computer (AGC) for Apollo 10.
000008:                                                                                                  ##              The code has been recreated from a copy of Comanche 055. It
000009:                                                                                                  ##              has been adapted such that the resulting bugger words
000010:                                                                                                  ##              exactly match those specified for Comanche 45 in NASA drawing
000011:                                                                                                  ##              2021153D, which gives relatively high confidence that the
000012:                                                                                                  ##              reconstruction is correct.
000013:                                                                                                  ## Assembler:   yaYUL
000014:                                                                                                  ## Contact:     Ron Burkey <info@sandroid.org>.
000015:                                                                                                  ## Website:     www.ibiblio.org/apollo/index.html
000016:                                                                                                  ## Mod history: 2020-12-06 MAS  Created from Comanche 44.
000017:


000019:                                                                                                  #  THE FOLLOWING SUBROUTINE MAY BE CALLED TO DISPLAY A NON-ABORTIVE ALARM CONDITION.  IT MAY BE CALLED
000020:                                                                                                  #  EITHER IN INTERRUPT OR UNDER EXECUTIVE CONTROL.
000021:
000022:                                                                                                  #  CALLING SEQUENCE IS AS FOLLOWS:
000023:                                                                                                  #                TC      ALARM
000024:                                                                                                  #                OCT     NNNNN
000025:                                                                                                  #                                        (RETURNS HERE)
000026:
000027:    5650                                           BLOCK    02
000028:    4000                                           SETLOC   FFTAG7
000029:    4000                                           BANK
000030:
000031:    5650     0375                                  EBANK=   FAILREG
000032:
000033:    5650                                           COUNT    02/ALARM
000034:
000035:                                                                                                  #  ALARM TURNS ON THE PROGRAM ALARM LIGHT, BUT DOES NOT DISPLAY.
000036:
000037:    5650           00004        ALARM              INHINT
000038:
000039:    5651           30002                           CA       Q
000040:    5652           55363        ALARM2             TS       ALMCADR
000041:    5653           50002                           INDEX    Q
000042:    5654           30000                           CA       0
000043:    5655           54001        BORTENT            TS       L
000044:
000045:    5656           30006        PRIOENT            CA       BBANK
000046:    5657           00006                 +1        EXTEND
000047:    5660           04007                           ROR      SUPERBNK                              #  ADD SUPER BITS.
000048:    5661           55364                           TS       ALMCADR    +1
000049:
000050:    5662           30002        LARMENT            CA       Q                                     #  STORE RETURN FOR ALARM
000051:    5663           54061                           TS       ITEMP1
000052:
000053:    5664           30164                           CA       LOC
000054:    5665           54057                           TS       LOCALARM
000055:    5666           30165                           CA       BANKSET
000056:    5667           54060                           TS       BANKALRM
000057:
000058:    5670           10375        CHKFAIL1           CCS      FAILREG                               #  IS ANYTHING IN FAILREG
000059:    5671           15674                           TCF      CHKFAIL2                              #  YES TRY NEXT REG
000060:    5672           22375                           LXCH     FAILREG
000061:    5673           15706                           TCF      PROGLARM                              #  TURN ALARM LIGHT ON FOR FIRST ALARM
000062:
000063:    5674           10376        CHKFAIL2           CCS      FAILREG    +1
000064:    5675           15700                           TCF      FAIL3
000065:    5676           22376                           LXCH     FAILREG    +1
000066:    5677           15711                           TCF      MULTEXIT
000067:
000068:    5700           30377        FAIL3              CA       FAILREG    +2


000070:    5701           74777                           MASK     POSMAX
000071:    5702           10000                           CCS      A
000072:    5703           15715                           TCF      MULTFAIL
000073:    5704           22377                           LXCH     FAILREG    +2
000074:    5705           15711                           TCF      MULTEXIT
000075:
000076:    5706           41036        PROGLARM           CS       DSPTAB     +11D
000077:    5707           77765                           MASK     OCT40400
000078:    5710           27036                           ADS      DSPTAB     +11D
000079:
000080:    5711           56061        MULTEXIT           XCH      ITEMP1                                #  OBTAIN RETURN ADDRESS IN A
000081:    5712           00003                           RELINT
000082:    5713           50000                           INDEX    A
000083:    5714           00001                           TC       1
000084:
000085:    5715           30001        MULTFAIL           CA       L
000086:    5716           65001                           AD       BIT15
000087:    5717           54377                           TS       FAILREG    +2
000088:
000089:    5720           15711                           TCF      MULTEXIT
000090:
000091:                                                                                                  #  PRIOLARM DISPLAYS V05N09 VIA PRIODSPR WITH 3 RETURNS TO THE USER FROM THE ASTRONAUT AT CALL LOC +1,+2,+3 AND
000092:                                                                                                  #  AN IMMEDIATE RETURN TO THE USER AT CALL LOC +4.  EXAMPLE FOLLOWS,
000093:                                                                                                  #                CAF     OCTXX           ALARM CODE
000094:                                                                                                  #                TC      BANKCALL
000095:                                                                                                  #                CADR    PRIOLARM
000096:
000097:                                                                                                  #                ...     ...
000098:                                                                                                  #                ...     ...
000099:                                                                                                  #                ...     ...             ASTRONAUT RETURN
000100:                                                                                                  #                TC      PHASCHNG        IMMEDIATE RETURN TO USER.  RESTART
000101:                                                                                                  #                OCT     X.1             PHASE CHANGE FOR PRIO DISPLAY
000102:
000103: 10,3766                                           BANK     10
000104: 10,2000                                           SETLOC   DISPLAYS
000105: 10,2000                                           BANK
000106:
000107: 10,3766                                           COUNT    10/DSPLA
000108: 10,3766           00004        PRIOLARM           INHINT                                         #  * * * KEEP IN DISPLAY ROUTINES BANK
000109: 10,3767           54001                           TS       L                                     #  SAVE ALARM CODE
000110:
000111: 10,3770           30133                           CA       BUF2                                  #  2 CADR OF PRIOLARM USER
000112: 10,3771           55363                           TS       ALMCADR
000113: 10,3772           30134                           CA       BUF2       +1
000114: 10,3773           05657                           TC       PRIOENT    +1                         #  * LEAVE L ALONE
000115: 10,3774           77467        -2SEC              DEC      -200       B-14                       #  *** DONT MOVE
000116: 10,3775           35050                           CAF      V05N09
000117: 10,3776           12726                           TCF      PRIODSPR
000118:


000120:
000121:    5721                                           BLOCK    02
000122:    6000                                           SETLOC   FFTAG13
000123:    6000                                           BANK
000124:
000125:    7755                                           COUNT    02/ALARM
000126:
000127:    7755           00004        BAILOUT            INHINT
000128:    7756           30002                           CA       Q
000129:    7757           55363                           TS       ALMCADR
000130:
000131:    7760           04662                           TC       BANKCALL
000132:    7761           40000                           CADR     VAC5STOR
000133:
000134:    7762           51363                           INDEX    ALMCADR
000135:    7763           30000                           CAF      0
000136:    7764           05655                           TC       BORTENT
000137:    7765           40400        OCT40400           OCT      40400
000138:
000139:    7766           00004                           INHINT
000140:    7767           35016        WHIMPER            CA       TWO
000141:    7770           60005                           AD       Z
000142:    7771           54017                           TS       BRUPT
000143:    7772           50017                           RESUME
000144:    7773           04701                           TC       POSTJUMP                              #  RESUME SENDS CONTROL HERE
000145:    7774           12651                           CADR     ENEMA
000146:
000147:    4000                                           SETLOC   FFTAG7
000148:    4000                                           BANK
000149:
000150:    5721           00004        POODOO             INHINT
000151:    5722           30002                           CA       Q
000152:    5723           55363                           TS       ALMCADR
000153:
000154:    5724           04662                           TC       BANKCALL
000155:    5725           40000                           CADR     VAC5STOR                              #  STORE ERASABLES FOR DEBUGGING PURPOSES.
000156:
000157:    5726           51363                           INDEX    ALMCADR
000158:    5727           30000                           CAF      0
000159:    5730           05655        ABORT2             TC       BORTENT
000160:    5731           77770        OCT77770           OCT      77770                                 #  DONT MOVE
000161:    5732           35012                           CA       V37FLBIT                              #  IS AVERAGE G ON
000162:    5733           70103                           MASK     FLAGWRD7
000163:    5734           10000                           CCS      A
000164:    5735           07766                           TC       WHIMPER    -1                         #  YES.  DONT DO POODOO.  DO BAILOUT.
000165:


000167:    5736           04662                           TC       BANKCALL
000168:    5737           12501                           CADR     MR.KLEAN
000169:    5740           07767                           TC       WHIMPER
000170:
000171:    5741           00004        CCSHOLE            INHINT
000172:    5742           30002                           CA       Q
000173:    5743           55363                           TS       ALMCADR
000174:    5744           04662                           TC       BANKCALL
000175:    5745           40000                           CADR     VAC5STOR
000176:    5746           35750                           CA       OCT1103
000177:    5747           05730                           TC       ABORT2
000178:    5750           01103        OCT1103            OCT      1103
000179:    5751           00004        CURTAINS           INHINT
000180:    5752           30002                           CA       Q
000181:    5753           05652                           TC       ALARM2
000182:    5754           00217        OCT217             OCT      00217
000183:    5755           01363                           TC       ALMCADR                               #  RETURN TO USER
000184:
000185:    5756     5217               DOALARM            EQUALS   ENDOFJOB
000186:
000187:                                                                                                  #  CALLING SEQUENCE FOR VARALARM
000188:
000189:                                                                                                  #                CAF     (ALARM)
000190:                                                                                                  #                TC      VARALARM
000191:
000192:                                                                                                  #  VARALARM TURNS ON PROGRAM ALARM LIGHT BUT DOES NOT DISPLAY
000193:
000194:    5756           00004        VARALARM           INHINT
000195:
000196:    5757           54001                           TS       L                                     #  SAVE USERS ALARM CODE
000197:
000198:    5760           30002                           CA       Q                                     #  SAVE USERS Q
000199:    5761           55363                           TS       ALMCADR
000200:
000201:    5762           05656                           TC       PRIOENT
000202:    5763           00014        OCT14              OCT      14                                    #  DONT MOVE
000203:
000204:    5764           01363                           TC       ALMCADR                               #  RETURN TO USER
000205:
000206:    5765     7755               ABORT              EQUALS   BAILOUT                               #  *** TEMPORARY UNTIL ABORT CALLS OUT

End of include-file ALARM_AND_ABORT.agc.  Parent file is MAIN.agc


