
Source Code


000002:                                                                                                  ## Copyright:   Public domain.
000003:                                                                                                  ## Filename:    AUTOMATIC_MANEUVERS.agc
000004:                                                                                                  ## Purpose:     A section of Comanche revision 045.
000005:                                                                                                  ##              It is part of the reconstructed source code for the
000006:                                                                                                  ##              second release of the flight software for the Command
000007:                                                                                                  ##              Module's (CM) Apollo Guidance Computer (AGC) for Apollo 10.
000008:                                                                                                  ##              The code has been recreated from a copy of Comanche 055. It
000009:                                                                                                  ##              has been adapted such that the resulting bugger words
000010:                                                                                                  ##              exactly match those specified for Comanche 45 in NASA drawing
000011:                                                                                                  ##              2021153D, which gives relatively high confidence that the
000012:                                                                                                  ##              reconstruction is correct.
000013:                                                                                                  ## Assembler:   yaYUL
000014:                                                                                                  ## Contact:     Ron Burkey <info@sandroid.org>.
000015:                                                                                                  ## Website:     www.ibiblio.org/apollo/index.html
000016:                                                                                                  ## Mod history: 2020-12-06 MAS  Created from Comanche 44.
000017:


000019: 21,3250                                           BANK     21
000020: 21,2000                                           SETLOC   DAPS3
000021: 21,2000                                           BANK
000022:
000023: 21,3250                                           COUNT    21/DAPAM
000024:
000025: 21,3250  E6,1510                                  EBANK=   KMPAC
000026: 21,3250           00006        AHFNOROT           EXTEND
000027: 21,3251           00031                           READ     CHAN31
000028: 21,3252           75002                           MASK     BIT14
000029: 21,3253           00006                           EXTEND
000030: 21,3254           63272                           BZMF     FREECONT
000031: 21,3255           31501                           CA       RCSFLAGS                              #  SEE IF RATE FILTER HAS BEEN INITIALIZED
000032: 21,3256           75002                           MASK     BIT14
000033: 21,3257           10000                           CCS      A                                     #  IF SO, PROCEED WITH ATTITUDE CONTROL
000034: 21,3260           12534                           TCF      REINIT                                #  IF NOT, RECYCLE TO INITIALIZE FILTER
000035:                                                                                                  #  AUTOMATIC CONTROL YET
000036: 21,3261           00006                           EXTEND
000037: 21,3262           00031                           READ     CHAN31
000038: 21,3263           75003                           MASK     BIT13
000039: 21,3264           00006                           EXTEND
000040: 21,3265           63372                           BZMF     HOLDFUNC
000041:
000042: 21,3266           31332        AUTOCONT           CA       HOLDFLAG                              #  IF HOLDFLAG IS +, GO TO GRABANG.
000043: 21,3267           00006                           EXTEND                                         #  OTHERWISE, GO TO ATTHOLD.
000044: 21,3270           63322                           BZMF     ATTHOLD
000045: 21,3271           13376                           TCF      GRABANG
000046:
000047:                                                                                                  #  MINIMUM IMPULSE CONTROL
000048:
000049: 21,3272           35017        FREECONT           CAF      ONE
000050: 21,3273           55332                           TS       HOLDFLAG                              #  RESET HOLDFLAG
000051:                                                                                                  #  INHIBIT AUTOMATIC STEERING
000052: 21,3274           00006                           EXTEND
000053: 21,3275           00032                           READ     CHAN32
000054: 21,3276           54001                           TS       L
000055: 21,3277           40000                           COM
000056: 21,3300           73036                           MASK     MANROT
000057: 21,3301           71633                           MASK     CHANTEMP
000058: 21,3302           23633                           LXCH     CHANTEMP
000059: 21,3303           03130                           TC       STICKCHK
000060: 21,3304           51656                           INDEX    RMANNDX
000061: 21,3305           33316                           CA       MINTAU                                #  MINTAU        +0
000062: 21,3306           55561                           TS       TAU                                   #                +1      +14MS MINIMUM IMPULSE
000063: 21,3307           51657                           INDEX    PMANNDX                               #                +2      -14MS TIME
000064: 21,3310           33316                           CA       MINTAU                                #                +3      +0
000065: 21,3311           55562                           TS       TAU1
000066: 21,3312           51660                           INDEX    YMANNDX
000067: 21,3313           33316                           CA       MINTAU


000069: 21,3314           55563                           TS       TAU2
000070: 21,3315           13067                           TCF      T6PROGM
000071:
000072: 21,3316           00000        MINTAU             DEC      0          B-14
000073: 21,3317           00027                           DEC      23         B-14                       #  = 14MS
000074: 21,3320           77750                           DEC      -23        B-14                       #  = -14MS
000075: 21,3321           00000                           DEC      0          B-14
000076:


000078:                                                                                                  #  CALCULATION OF ATTITUDE ERRORS-
000079:                                                                                                  #        -    *     -      -          -
000080:                                                                                                  #        AK = AMGB (CDUX - THETADX) + BIAS
000081:
000082:                                                                                                  #  IE    *AK *   * 1        SIN(PSI)        0    ** CDUX - THETADX *    *BIAS *
000083:                                                                                                  #        *   *   *                               **                *    *     *
000084:                                                                                                  #        *AK1* = * 0   COS(PSI)COS(PHI)  SIN(PHI)** CDUY - THETADY *  + *BIAS1*
000085:                                                                                                  #        *   *   *                               **                *    *     *
000086:                                                                                                  #        *AK2*   * 0  -COS(PSI)SIN(PHI)  COS(PHI)** CDUZ - THETADZ *    *BIAS2*
000087:
000088:                                                                                                  #  THE BIASES ARE ADDED ONLY WHILE PERFORMING AUTOMATIC MANEUVERS (ESP KALCMANU) TO PROVIDE ADDITIONAL LEAD
000089:                                                                                                  #  AND PREVENT OVERSHOOT WHEN STARTING AN AUTOMATIC MANEUVER.  NORMALLY THE REQUIRED LEAD IS ONLY 1-2 DEGREES.
000090:                                                                                                  #  BUT DURING HIGH RATE MANEUVERS IT CAN BE AS MUCH AS 7 DEGREES.  THE BIASES ARE COMPUTED BY KALCMANU AND REMAIN
000091:                                                                                                  #  FIXED UNTIL THE MANEUVER IS COMPLETED AT WHICH TIME THEY ARE RESET TO ZERO.
000092:
000093: 21,3322           30032        ATTHOLD            CA       CDUX
000094: 21,3323           00006                           EXTEND
000095: 21,3324           21572                           MSU      THETADX
000096: 21,3325           55567                           TS       ERRORX
000097: 21,3326           30033                           CA       CDUY
000098: 21,3327           00006                           EXTEND
000099: 21,3330           21573                           MSU      THETADY
000100: 21,3331           55502                           TS       T5TEMP
000101: 21,3332           00006                           EXTEND
000102: 21,3333           71640                           MP       AMGB1
000103: 21,3334           27567                           ADS      ERRORX
000104: 21,3335           31502                           CA       T5TEMP
000105: 21,3336           00006                           EXTEND
000106: 21,3337           71641                           MP       AMGB4
000107: 21,3340           55570                           TS       ERRORY
000108: 21,3341           31502                           CA       T5TEMP
000109: 21,3342           00006                           EXTEND
000110: 21,3343           71643                           MP       AMGB7
000111: 21,3344           55571                           TS       ERRORZ
000112: 21,3345           30034                           CA       CDUZ
000113: 21,3346           00006                           EXTEND
000114: 21,3347           21574                           MSU      THETADZ
000115: 21,3350           55502                           TS       T5TEMP
000116: 21,3351           00006                           EXTEND
000117: 21,3352           71642                           MP       AMGB5
000118: 21,3353           27570                           ADS      ERRORY
000119: 21,3354           31502                           CA       T5TEMP
000120: 21,3355           00006                           EXTEND
000121: 21,3356           71644                           MP       AMGB8
000122: 21,3357           27571                           ADS      ERRORZ
000123: 21,3360           41332                           CS       HOLDFLAG
000124: 21,3361           00006                           EXTEND


000126: 21,3362           63441                           BZMF     JETS
000127: 21,3363           31564                           CA       BIAS                                  #  AD BIASES ONLY IF PERFORMING AUTOMATIC
000128: 21,3364           27567                           ADS      ERRORX
000129: 21,3365           31565                           CA       BIAS1
000130: 21,3366           27570                           ADS      ERRORY
000131: 21,3367           31566                           CA       BIAS2
000132: 21,3370           27571                           ADS      ERRORZ
000133: 21,3371           13441                           TCF      JETS
000134:
000135: 21,3372           11332        HOLDFUNC           CCS      HOLDFLAG
000136: 21,3373           13376                           TCF      +3
000137: 21,3374           13322                           TCF      ATTHOLD
000138: 21,3375           13376                           TCF      +1
000139: 21,3376           35021        GRABANG            CAF      ZERO                                  #  ZERO WBODYS AND BIASES
000140: 21,3377           55525                           TS       WBODY
000141: 21,3400           55526                           TS       WBODY      +1
000142: 21,3401           55527                           TS       WBODY1
000143: 21,3402           55530                           TS       WBODY1     +1
000144: 21,3403           55531                           TS       WBODY2
000145: 21,3404           55532                           TS       WBODY2     +1
000146: 21,3405           55564                           TS       BIAS
000147: 21,3406           55565                           TS       BIAS1
000148: 21,3407           55566                           TS       BIAS2
000149:
000150: 21,3410           31501                           CA       RCSFLAGS
000151: 21,3411           73037                           MASK     OCT16000
000152: 21,3412           00006                           EXTEND                                         #  IS RATE DAMPING COMPLETED
000153: 21,3413           13421                           BZF      ENDDAMP                               #  IF SO, GO TO ENDDAMP
000154: 21,3414           35021                           CAF      ZERO                                  #  OTHERWISE, ZERO ERRORS
000155: 21,3415           55567                           TS       ERRORX
000156: 21,3416           55570                           TS       ERRORY
000157: 21,3417           55571                           TS       ERRORZ
000158: 21,3420           13441                           TCF      JETS
000159:
000160: 21,3421           55332        ENDDAMP            TS       HOLDFLAG                              #  SET HOLDFLAG +0
000161: 21,3422           00006                           EXTEND
000162: 21,3423           30033                           DCA      CDUX                                  #  PICK UP CDU ANGLES FOR ATTITUDE HOLD
000163: 21,3424           53573                           DXCH     THETADX                               #  REFERENCES
000164: 21,3425           30034                           CA       CDUZ
000165: 21,3426           55574                           TS       THETADZ
000166: 21,3427           13322                           TCF      ATTHOLD
000167:


000169:                                                                                                  #  JET SWITCHING LOGIC AND CALCULATION OF REQUIRED ROTATION COMMANDS
000170:
000171:                                                                                                  #  DETERMINE THE LOCATION OF THE RATE ERROR AND THE ATTITUDE ERROR RELATIVE TO THE SWITCHING LOGIC IN THE PHASE
000172:                                                                                                  #  PLANE.
000173:
000174:                                                                                                  #  COMPUTE THE CHANGE IN RATE CORRESPONDING TO THE ATTITUDE ERROR NECESSARY TO DRIVE THE THE S/C INTO THE
000175:                                                                                                  #  APPROPRIATE DEADZONE.
000176:
000177:                                                                                                  #                                      .
000178:                                                                                                  #    R22                          RATE . ERROR
000179:                                                                                                  #         WL+H                         .
000180:                                                                                                  #  *********************************   .                                 ***** SWITCH LINES ENCLOSING DEADZONES
000181:                                                                                                  #    R23  WL                        *  .
000182:                                                                                                  #  --------------------------------- * .                                 ----- DESIRED RATE LINES
000183:                                                                                                  #    R23  WL-H       -                *.
000184:                                                                                                  #  ****************** -                .                                 R20, R21, R22, ETC REGIONS IN PHASE
000185:                                                                                                  #                    * -               .* R18      R20       R21         PLANE FOF COMPUTING DESIRED RESPONSE
000186:                                                                                                  #                     *                . *
000187:                                                                                                  #                      *-              .  *
000188:                                                                                                  #    R22             R24*-    R23      .   *
000189:                                                                                                  #                        *-            .    *
000190:                                                                                                  #                         *            .     *
000191:                                                                                                  #                          + -ADB      .      * AF              ATTITUDE
000192:                                                                                                  #  .........................+--+---------------+--+........................
000193:                                                                                                  #                            AF *      .     +ADB  +             ERROR
000194:                                                                                                  #                                *     .            *
000195:                                                                                                  #                                 *    .            -*
000196:                                                                                                  #                                  *   .             -*
000197:                                                                                                  #                                   *  .              -*
000198:                                                                                                  #                                    * .                *
000199:                                                                                                  #                                     *.               - *
000200:                                                                                                  #                                      .                - *****************
000201:                                                                                                  #                                      .*                -
000202:                                                                                                  #                                      . * --------------------------------
000203:                                                                                                  #                                      .  *
000204:                                                                                                  #                                      .   ********************************
000205:                                                                                                  #                                      .
000206:                                                                                                  #                        FIG. 1  PHASE PLANE SWITCHING LOGIC
000207:
000208:                                                                                                  #  CONSTANTS FOR JET SWITCHING LOGIC
000209:
000210: 21,3430           00114        WLH/SLOP           DEC      .00463                                #  = WL+H/SLOPE = .83333 DEG     $180
000211: 21,3431           00055        WL-H/SLP           DEC      .00277                                #  = WL-H/SLOPE = .5 DEG         $180
000212: 21,3432           00022 06426  WLH                2DEC     .0011111111                            #  = WL+H = 0.5 DEG/SEC          $450
000213:
000214: 21,3434           00012 35415  WLMH               2DEC     .0006666666                            #  = WL-H = 0.3 DEG/SEC          $450
000215:
000216: 21,3436           00016 22021  WL                 2DEC     .0008888888                            #  = WL   = 0.4 DEG/SEC          $450
000217:


000219: 21,3440           12173        SLOPE2             DEC      .32                                   #  = 0.8 DEG/SEC/DEG             $450/180
000220: 21,3441           31655        JETS               CA       ADB
000221: 21,3442           65015                           AD       FOUR                                  #  AF = FLAT REGION = .044 DEG
000222: 21,3443           55502                           TS       T5TEMP                                #  ADB+AF
000223: 21,3444           35016                           CAF      TWO
000224: 21,3445           55506        JLOOP              TS       SPNDX
000225: 21,3446           60000                           DOUBLE
000226: 21,3447           55507                           TS       DPNDX
000227: 21,3450           00006                           EXTEND
000228: 21,3451           50000                           INDEX    A
000229: 21,3452           31534                           DCA      ADOT
000230: 21,3453           53516                           DXCH     EDOT
000231: 21,3454           31332                           CA       HOLDFLAG                              #  HOLDFLAG = +0 MEANS THAT DAP IS IN
000232: 21,3455           00006                           EXTEND                                         #  ATTITUDE HOLD AND RATE DAMPING IS OVER.
000233: 21,3456           13463                           BZF      INHOLD                                #  IF THIS IS THE CASE, BYPASS ADDITION
000234:                                                                                                  #  OF WBODY AND GO TO INHOLD
000235: 21,3457           00006                           EXTEND
000236: 21,3460           51507                           INDEX    DPNDX
000237: 21,3461           41526                           DCS      WBODY
000238: 21,3462           21516                           DAS      EDOT                                  #  = ADOT-WBODY
000239: 21,3463           51506        INHOLD             INDEX    SPNDX
000240: 21,3464           31567                           CA       ERRORX
000241: 21,3465           55517                           TS       AERR                                  #  AERR = BIAS + AK
000242:
000243: 21,3466           11515                           CCS      EDOT
000244: 21,3467           13477                           TCF      POSVEL
000245: 21,3470           13472                           TCF      SIGNCK1
000246: 21,3471           13507                           TCF      NEGVEL
000247: 21,3472           11516        SIGNCK1            CCS      EDOT       +1
000248: 21,3473           13477                           TCF      POSVEL
000249: 21,3474           13477                           TCF      POSVEL
000250: 21,3475           13507                           TCF      NEGVEL
000251: 21,3476           13507                           TCF      NEGVEL
000252: 21,3477           00006        POSVEL             EXTEND
000253: 21,3500           31516                           DCA      EDOT
000254: 21,3501           53521                           DXCH     EDOTVEL
000255: 21,3502           31502                           CA       T5TEMP
000256: 21,3503           55523                           TS       ADBVEL                                #  +(ADB+AF)
000257: 21,3504           31517                           CA       AERR
000258: 21,3505           55522                           TS       AERRVEL
000259: 21,3506           03516                           TC       J6.
000260: 21,3507           00006        NEGVEL             EXTEND
000261: 21,3510           41516                           DCS      EDOT
000262: 21,3511           53521                           DXCH     EDOTVEL
000263: 21,3512           41502                           CS       T5TEMP
000264: 21,3513           55523                           TS       ADBVEL                                #  -(ADB+AF)
000265: 21,3514           41517                           CS       AERR
000266: 21,3515           55522                           TS       AERRVEL
000267:
000268: 21,3516           00006        J6.                EXTEND


000270: 21,3517           61655                           SU       ADB
000271: 21,3520           63430                           AD       WLH/SLOP
000272: 21,3521           00006                           EXTEND
000273: 21,3522           63551                           BZMF     J8
000274:
000275: 21,3523           41502                           CS       T5TEMP                                #  (ADB+AF)
000276: 21,3524           61522                           AD       AERRVEL
000277: 21,3525           00006                           EXTEND
000278: 21,3526           63530                           BZMF     +2
000279: 21,3527           13542                           TCF      J7
000280: 21,3530           00006                           EXTEND
000281: 21,3531           41521                           DCS      EDOTVEL
000282: 21,3532           00006                           EXTEND
000283: 21,3533           11654                           DV       SLOPE
000284: 21,3534           00006                           EXTEND
000285: 21,3535           61522                           SU       AERRVEL
000286: 21,3536           61655                           AD       ADB
000287: 21,3537           00006                           EXTEND
000288: 21,3540           63630                           BZMF     J18
000289: 21,3541           13704                           TCF      J23
000290:
000291: 21,3542           43431        J7                 CS       WL-H/SLP
000292: 21,3543           00006                           EXTEND
000293: 21,3544           61502                           SU       T5TEMP                                #  (ADB+AF)
000294: 21,3545           61522                           AD       AERRVEL
000295: 21,3546           00006                           EXTEND
000296: 21,3547           63634                           BZMF     J20
000297: 21,3550           13645                           TCF      J21
000298:
000299: 21,3551           00006        J8                 EXTEND
000300: 21,3552           43433                           DCS      WLH
000301: 21,3553           53514                           DXCH     WTEMP
000302: 21,3554           00006                           EXTEND
000303: 21,3555           31521                           DCA      EDOTVEL
000304: 21,3556           21514                           DAS      WTEMP
000305: 21,3557           11513                           CCS      WTEMP
000306: 21,3560           13673                           TCF      J22
000307: 21,3561           13563                           TCF      SIGNCK2
000308: 21,3562           13567                           TCF      NJ22
000309: 21,3563           11514        SIGNCK2            CCS      WTEMP      +1
000310: 21,3564           13673                           TCF      J22
000311: 21,3565           13673                           TCF      J22
000312: 21,3566           13567                           TCF      NJ22
000313:
000314: 21,3567           00006        NJ22               EXTEND
000315: 21,3570           31521                           DCA      EDOTVEL
000316: 21,3571           00006                           EXTEND
000317: 21,3572           11654                           DV       SLOPE
000318: 21,3573           61502                           AD       T5TEMP                                #  (ADB+AF)
000319: 21,3574           61522                           AD       AERRVEL


000321: 21,3575           10000                           CCS      A
000322: 21,3576           13704                           TCF      J23
000323: 21,3577           13704                           TCF      J23
000324: 21,3600           13602                           TCF      +2
000325: 21,3601           13704                           TCF      J23
000326:
000327: 21,3602           00006                           EXTEND
000328: 21,3603           43435                           DCS      WLMH                                  #  WL - H
000329: 21,3604           53514                           DXCH     WTEMP
000330: 21,3605           00006                           EXTEND
000331: 21,3606           31521                           DCA      EDOTVEL
000332: 21,3607           21514                           DAS      WTEMP
000333: 21,3610           11513                           CCS      WTEMP
000334: 21,3611           13704                           TCF      J23
000335: 21,3612           13614                           TCF      SIGNCK3
000336: 21,3613           13620                           TCF      NJ23
000337: 21,3614           11514        SIGNCK3            CCS      WTEMP      +1
000338: 21,3615           13704                           TCF      J23
000339: 21,3616           13704                           TCF      J23
000340: 21,3617           13620                           TCF      NJ23
000341:
000342: 21,3620           31522        NJ23               CA       AERRVEL
000343: 21,3621           61502                           AD       T5TEMP                                #  (ADB+AF)
000344: 21,3622           63431                           AD       WL-H/SLP
000345: 21,3623           10000                           CCS      A
000346: 21,3624           13716                           TCF      J24
000347: 21,3625           13716                           TCF      J24
000348: 21,3626           13673                           TCF      J22
000349: 21,3627           13673                           TCF      J22
000350:
000351: 21,3630           00006        J18                EXTEND
000352: 21,3631           41516                           DCS      EDOT
000353: 21,3632           53511                           DXCH     KMPAC
000354: 21,3633           13727                           TCF      JTIME
000355:
000356: 21,3634           41517        J20                CS       AERR
000357: 21,3635           61523                           AD       ADBVEL
000358: 21,3636           00006                           EXTEND
000359: 21,3637           73440                           MP       SLOPE2                                #  (HYSTERESIS SLOPE)
000360: 21,3640           53511                           DXCH     KMPAC
000361: 21,3641           00006                           EXTEND
000362: 21,3642           41516                           DCS      EDOT
000363: 21,3643           21511                           DAS      KMPAC
000364: 21,3644           13727                           TCF      JTIME
000365:
000366: 21,3645           11515        J21                CCS      EDOT
000367: 21,3646           13664                           TCF      JP
000368: 21,3647           13651                           TCF      SIGNCK4
000369: 21,3650           13655                           TCF      JN
000370: 21,3651           11516        SIGNCK4            CCS      EDOT       +1


000372: 21,3652           13664                           TCF      JP
000373: 21,3653           13664                           TCF      JP
000374: 21,3654           13655                           TCF      JN
000375: 21,3655           00006        JN                 EXTEND
000376: 21,3656           41516                           DCS      EDOT
000377: 21,3657           53511                           DXCH     KMPAC
000378: 21,3660           00006                           EXTEND
000379: 21,3661           33437                           DCA      WL
000380: 21,3662           21511                           DAS      KMPAC
000381: 21,3663           13727                           TCF      JTIME
000382:
000383: 21,3664           00006        JP                 EXTEND
000384: 21,3665           41516                           DCS      EDOT
000385: 21,3666           53511                           DXCH     KMPAC
000386: 21,3667           00006                           EXTEND
000387: 21,3670           43437                           DCS      WL
000388: 21,3671           21511                           DAS      KMPAC
000389: 21,3672           13727                           TCF      JTIME
000390:
000391: 21,3673           11515        J22                CCS      EDOT
000392: 21,3674           13655                           TCF      JN
000393: 21,3675           13677                           TCF      SIGNCK5
000394: 21,3676           13664                           TCF      JP
000395: 21,3677           11516        SIGNCK5            CCS      EDOT       +1
000396: 21,3700           13655                           TCF      JN
000397: 21,3701           13655                           TCF      JN
000398: 21,3702           13664                           TCF      JP
000399: 21,3703           13664                           TCF      JP
000400:
000401: 21,3704           51506        J23                INDEX    SPNDX
000402: 21,3705           45003                           CS       BIT13                                 #  RESET RATE DAMPING FLAG
000403: 21,3706           71501                           MASK     RCSFLAGS                              #  BIT13 FOR ROLL  (SPNDX = 0)
000404: 21,3707           55501                           TS       RCSFLAGS                              #  BIT12 FOR PITCH (SPNDX = 1)
000405:                                                                                                  #  BIT11 FOR YAW   (SPNDX = 2)
000406:
000407: 21,3710           51506                           INDEX    SPNDX
000408: 21,3711           33033                           CAF      OCT01400                              #  IS THERE TO BE A FORCED FIRING ON THIS
000409: 21,3712           71501                           MASK     RCSFLAGS                              #  AXIS
000410: 21,3713           00006                           EXTEND
000411: 21,3714           13750                           BZF      DOJET      +2                         #  NO, GO TO DOJET +2 AND DO NOTHING
000412:
000413: 21,3715           13630                           TCF      J18                                   #  YES, GO TO J18 AND FORCE A FIRING
000414:
000415: 21,3716           41517        J24                CS       AERR
000416: 21,3717           00006                           EXTEND
000417: 21,3720           61523                           SU       ADBVEL
000418: 21,3721           00006                           EXTEND
000419: 21,3722           73440                           MP       SLOPE2                                #  (HYSTERESIS SLOPE)
000420: 21,3723           53511                           DXCH     KMPAC
000421: 21,3724           00006                           EXTEND


000423: 21,3725           41516                           DCS      EDOT
000424: 21,3726           21511                           DAS      KMPAC
000425:


000427:                                                                                                  #  COMPUTE THE JET ON TIME NECESSARY TO ACCOMPLISH THE DESIRED CHANGE IN RATE, IE
000428:
000429:                                                                                                  #             T  = J/M(DELTA W)
000430:                                                                                                  #              J
000431:
000432:                                                                                                  #        DELTA W = DESIRED CHANGE IN S/C ANGULAR RATE AS DETERMINED BY THE
000433:                                                                                                  #                  SWITCHING LOGIC, AT THIS POINT STORED IN KMPAC.
000434:
000435:                                                                                                  #            J/M = S/C INERTIA TO TORQUE 9ATIO SCALED BY
000436:                                                                                                  #                        (57.3/450)(B24/1600)(1/.8)
000437:                                                                                                  #                  FOR 1 JET OPERATION  (M = 700 FT-LB).
000438:                                                                                                  #                  IE J/M = J(SLUG-FTFT) X 0.00000085601606
000439:
000440:                                                                                                  #                  THE CORRESPONDING COMPUTER VARIABLES ESTABLISHED BY
000441:                                                                                                  #                  KEYBOARD ENTRY ARE
000442:                                                                                                  #                        J/M  (ROLL)
000443:                                                                                                  #                        J/M1 (PITCH)
000444:                                                                                                  #                        J/M2 (YAW)
000445:
000446:                                                                                                  #             T  = JET ON-TIME    SCALED 16384/1600 SEC
000447:                                                                                                  #              J
000448:
000449:                                                                                                  #                  THE COMPUTER VARIABLES ARE
000450:                                                                                                  #                        TAU  (ROLL)
000451:                                                                                                  #                        TAU1 (PITCH)
000452:                                                                                                  #                        TAU2 (YAW)
000453:
000454: 21,3727           51506        JTIME              INDEX    SPNDX                                 #  PICK UP S/C INERTIA/TORQUE RATIO
000455: 21,3730           31623                           CA       J/M                                   #  SCALED (57.3/450)(B24/1600)
000456: 21,3731           02042                           TC       SMALLMP                               #  FOR 1-JET OPERATION
000457: 21,3732           35005                           CA       BIT11
000458: 21,3733           02042                           TC       SMALLMP
000459: 21,3734           11510                           CCS      KMPAC
000460: 21,3735           13741                           TCF      +4
000461: 21,3736           13745                           TCF      TAUNORM
000462: 21,3737           13743                           TCF      +4
000463: 21,3740           13745                           TCF      TAUNORM
000464: 21,3741           34777                           CA       POSMAX
000465: 21,3742           13746                           TCF      DOJET
000466: 21,3743           35001                           CA       NEGMAX
000467: 21,3744           13746                           TCF      DOJET
000468:
000469: 21,3745           31511        TAUNORM            CA       KMPAC      +1
000470: 21,3746           51506        DOJET              INDEX    SPNDX
000471: 21,3747           55561                           TS       TAU
000472: 21,3750           11506                           CCS      SPNDX
000473: 21,3751           13445                           TCF      JLOOP
000474: 21,3752           13757                           TCF      T6PROG
000475:


000477: 21,3753           35021        ZEROCMDS           CAF      ZERO
000478: 21,3754           55561                           TS       TAU
000479: 21,3755           55562                           TS       TAU1
000480: 21,3756           55563                           TS       TAU2
000481: 21,3757           00006        T6PROG             EXTEND                                         #  WHEN THE ROTATION COMMANDS (TAUS)
000482: 21,3760           33764                           DCA      JETADDR                               #  HAVE BEEN DETERMINED
000483: 21,3761           53313                           DXCH     T5LOC                                 #  RESET T5LOC FOR PHASE3
000484: 21,3762           15333                           TCF      RESUME
000485:
000486: 21,3763  E6,1510                                  EBANK=   KMPAC
000487: 21,3763           02552 36066  JETADDR            2CADR    JETSLECT
000488:

End of include-file AUTOMATIC_MANEUVERS.agc.  Parent file is MAIN.agc


