
Source Code


000002:                                                                                                  ## Copyright:   Public domain.
000003:                                                                                                  ## Filename:    INTER-BANK_COMMUNICATION.agc
000004:                                                                                                  ## Purpose:     A section of Comanche revision 045.
000005:                                                                                                  ##              It is part of the reconstructed source code for the
000006:                                                                                                  ##              second release of the flight software for the Command
000007:                                                                                                  ##              Module's (CM) Apollo Guidance Computer (AGC) for Apollo 10.
000008:                                                                                                  ##              The code has been recreated from a copy of Comanche 055. It
000009:                                                                                                  ##              has been adapted such that the resulting bugger words
000010:                                                                                                  ##              exactly match those specified for Comanche 45 in NASA drawing
000011:                                                                                                  ##              2021153D, which gives relatively high confidence that the
000012:                                                                                                  ##              reconstruction is correct.
000013:                                                                                                  ## Assembler:   yaYUL
000014:                                                                                                  ## Contact:     Ron Burkey <info@sandroid.org>.
000015:                                                                                                  ## Website:     www.ibiblio.org/apollo/index.html
000016:                                                                                                  ## Mod history: 2020-12-06 MAS  Created from Comanche 44.
000017:


000019:                                                                                                  #  THE FOLLOWING ROUTINE CAN BE USED TO CALL A SUBROUTINE IN ANOTHER BANK. IN THE BANKCALL VERSION, THE
000020:                                                                                                  #  CADR OF THE SUBROUTINE IMMEDIATELY FOLLOWS THE TC BANKCALL INSTRUCTION, WITH C(A) AND C(L) PRESERVED.
000021:
000022:    4662                                           BLOCK    02
000023:    4662                                           COUNT    02/BANK
000024:
000025:    4662           52134        BANKCALL           DXCH     BUF2                                  #  SAVE INCOMING A,L.
000026:    4663           50002                           INDEX    Q                                     #  PICK UP CADR.
000027:    4664           30000                           CA       0
000028:    4665           24002                           INCR     Q                                     #  SO WE RETURN TO THE LOC. AFTER THE CADR.
000029:
000030:                                                                                                  #  SWCALL IS  IDENTICAL TO BANKCALL, EXCEPT THAT THE CADR ARRIVES IN A.
000031:
000032:    4666           54001        SWCALL             TS       L
000033:    4667           22004                           LXCH     FBANK                                 #  SWITCH BANKS, SAVING RETURN.
000034:    4670           75054                           MASK     LOW10                                 #  GET SUB-ADDRESS OF CADR.
000035:    4671           56002                           XCH      Q                                     #  A,L NOW CONTAINS DP RETURN.
000036:    4672           52134                           DXCH     BUF2                                  #  RESTORING INPUTS IF THIS IS A BANKCALL.
000037:    4673           50002                           INDEX    Q
000038:    4674           02000                           TC       10000                                 #  SETTING Q TO SWRETURN.
000039:
000040:    4675           56134        SWRETURN           XCH      BUF2       +1                         #  COMES HERE TO RETURN TO CALLER. C(A,L)
000041:    4676           56004                           XCH      FBANK                                 #  ARE PRESERVED FOR RETURN.
000042:    4677           56134                           XCH      BUF2       +1
000043:    4700           00133                           TC       BUF2
000044:
000045:                                                                                                  #  THE FOLLOWING ROUTINE CAN BE USED AS A UNILATERAL JUMP WITH C(A,L) PRESERVED AND THE CADR IMMEDIATELY
000046:                                                                                                  #  FOLLOWING THE TC POSTJUMP INSTRUCTION.
000047:
000048:    4701           56002        POSTJUMP           XCH      Q                                     #  SAVE INCOMING C(A).
000049:    4702           50000                           INDEX    A                                     #  GET CADR.
000050:    4703           30000                           CA       0
000051:
000052:                                                                                                  #  BANKJUMP IS THE SAME AS POSTJUMP, EXCEPT THAT THE CADR ARRIVES IN A.
000053:
000054:    4704           54004        BANKJUMP           TS       FBANK
000055:    4705           75054                           MASK     LOW10
000056:    4706           56002                           XCH      Q                                     #  RESTORING INPUT C(A) IF THIS WAS A
000057:    4707           50002        Q+10000            INDEX    Q                                     #  POSTJUMP.
000058:    4710           12000        PRIO12             TCF      10000                                 #  PRIO12 = TCF  10000 = 12000
000059:


000061:                                                                                                  #  THE FOLLOWING ROUTINE GETS THE RETURN CADR SAVED BY SWCALL OR BANKCALL AND LEAVES IT IN A.
000062:
000063:    4711           35054        MAKECADR           CAF      LOW10
000064:    4712           70133                           MASK     BUF2
000065:    4713           60134                           AD       BUF2       +1
000066:    4714           00002                           TC       Q
000067:
000068:    4715           54135        SUPDACAL           TS       MPTEMP
000069:    4716           56004                           XCH      FBANK                                 #  SET FBANK FOR DATA.
000070:    4717           00006                           EXTEND
000071:    4720           04007                           ROR      SUPERBNK                              #  SAVE FBANK IN BITS 15-11, AND
000072:    4721           56135                           XCH      MPTEMP                                #  SUPERBANK IN BITS 7-5.
000073:    4722           75054                           MASK     LOW10
000074:    4723           56001                           XCH      L                                     #  SAVE REL. ADR. IN BANK, FETCH SUPERBITS.
000075:    4724           00004                           INHINT                                         #  BECAUSE RUPT DOES NOT SAVE SUPERBANK.
000076:    4725           00006                           EXTEND
000077:    4726           01007                           WRITE    SUPERBNK                              #  SET SUPERBANK FOR DATA.
000078:    4727           50001                           INDEX    L
000079:    4730           32000                           CA       10000                                 #  PINBALL (FIX MEM DISP) PREVENTS DCA HERE
000080:    4731           56135                           XCH      MPTEMP                                #  SAVE 1ST WD, FETCH OLD FBANK AND SBANK.
000081:    4732           00006                           EXTEND
000082:    4733           01007                           WRITE    SUPERBNK                              #  RESTORE SUPERBANK.
000083:    4734           00003                           RELINT
000084:    4735           54004                           TS       FBANK                                 #  RESTORE FBANK.
000085:    4736           30135                           CA       MPTEMP                                #  RECOVER FIRST WORD OF DATA.
000086:    4737           00002                           RETURN                                         #  24 WDS. DATACALL 516 MU, SUPDACAL 432 MU
000087:


000089:                                                                                                  #  THE FOLLOWING ROUTINES ARE IDENTICAL TO BANKCALL AND SWCALL EXCEPT THAT THEY ARE USED IN INTERRUPT.
000090:
000091:    4740           52073        IBNKCALL           DXCH     RUPTREG3                              #  USES RUPTREG3,4 FOR DP RETURN ADDRESS.
000092:    4741           50002                           INDEX    Q
000093:    4742           30000                           CAF      0
000094:    4743           24002                           INCR     Q
000095:
000096:    4744           54001        ISWCALL            TS       L
000097:    4745           22004                           LXCH     FBANK
000098:    4746           75054                           MASK     LOW10
000099:    4747           56002                           XCH      Q
000100:    4750           52073                           DXCH     RUPTREG3
000101:    4751           50002                           INDEX    Q
000102:    4752           02000                           TC       10000
000103:
000104:    4753           56073        ISWRETRN           XCH      RUPTREG4
000105:    4754           56004                           XCH      FBANK
000106:    4755           56073                           XCH      RUPTREG4
000107:    4756           00072                           TC       RUPTREG3
000108:
000109:                                                                                                  #  2. USPRCADR ACCESSES INTERPRETIVE CODING IN OTHER THAN THE USER'S FBANK.  THE CALLING SEQUENCE IS AS FOLLOWS:
000110:                                                                                                  #        L       TC      USPRCADR
000111:                                                                                                  #        L+1     CADR    INTPRETX        INTPRETX IS THE INTERPRETIVE CODING
000112:                                                                                                  #                                        RETURN IS TO L+2
000113:
000114:    4757           54164        USPRCADR           TS       LOC                                   #  SAVE A
000115:    4760           35010                           CA       BIT8
000116:    4761           54023                           TS       EDOP                                  #  EXIT INSTRUCTION TO EDOP
000117:    4762           30006                           CA       BBANK
000118:    4763           54165                           TS       BANKSET                               #  USER'S BBANK TO BANKSET
000119:    4764           50002                           INDEX    Q
000120:    4765           30000                           CA       0
000121:    4766           54004                           TS       FBANK                                 #  INTERPRETIVE BANK TO FBANK
000122:    4767           75054                           MASK     LOW10                                 #  YIELDS INTERPRETIVE RELATIVE ADDRESS
000123:    4770           56002                           XCH      Q                                     #  INTERPRETIVE ADDRESS TO Q, FETCHING L+1
000124:    4771           56164                           XCH      LOC                                   #  L+1 TO LOC, RETRIEVING ORIGINAL A
000125:    4772           14707                           TCF      Q+10000
000126:


000128:                                                                                                  #  THERE ARE FOUR POSSIBLE SETTINGS FOR CHANNEL 07.  (CHANNEL 07 CONTAINS THE SUPERBANK SETTING.)
000129:
000130:                                                                                                  #                                        PSEUDO-FIXED     OCTAL PSEUDO
000131:                                                                                                  #  SUPERBANK     SETTING S-REG. VALUE    BANK NUMBERS     ADDRESSES
000132:                                                                                                  #  ----------    ------- ------------     ------------     ------------
000133:                                                                                                  #  SUPERBANK 3     0XX    2000 - 3777       30 - 37       70000 - 107777         (WHERE XX CAN BE ANYTHING AND
000134:                                                                                                  #                                                                                WILL USUALLY BE SEEN AS 11)
000135:                                                                                                  #  SUPERBANK 4     100    2000 - 3777       40 - 47      110000 - 127777         (AS FAR AS IT CAN BE SEEN,
000136:                                                                                                  #                                                                                ONLY BANKS 40-43 WILL EVER BE
000137:                                                                                                  #                                                                                AND ARE PRESENTLY AVAILABLE)
000138:                                                                                                  #  SUPERBANK 5     101    2000 - 3777       50 - 57      130000 - 147777         (PRESENTLY NOT AVAILABLE TO
000139:                                                                                                  #                                                                                THE USER)
000140:                                                                                                  #  SUPERBANK 6     110    2000 - 3777       60 - 67      150000 - 167777         (PRESENTLY NOT AVAILABLE TO
000141:                                                                                                  #                                                                                THE USER)
000142:                                                                                                  #  *** THIS ROUTINE MAY BE CALLED BY ANY PROGRAM LOCATED IN BANKS 00 - 27.  I.E., NO PROGRAM LIVING IN ANY
000143:                                                                                                  #  SUPERBANK SHOULD USE SUPERSW. ***
000144:
000145:                                                                                                  #  SUPERSW MAY BE CALLED IN THIS FASHION:
000146:                                                                                                  #        CAF     ABBCON          WHERE -- ABBCON  BBCON  SOMETHIN --
000147:                                                                                                  #        TCR     SUPERSW         (THE SUPERBNK BITS ARE IN THE BBCON)
000148:                                                                                                  #        ...       ...
000149:                                                                                                  #         .         .
000150:                                                                                                  #         .         .
000151:                                                                                                  #  OR IN THIS FASHION:
000152:                                                                                                  #        CAF     SUPERSET        WHERE SUPERSET IS ONE OF THE FOUR AVAILABLE
000153:                                                                                                  #        TCR     SUPERSW         SUPERBANK BIT CONSTANTS:
000154:                                                                                                  #        ...       ...                   SUPER011 OCTAL  60
000155:                                                                                                  #         .         .                    SUPER100 OCTAL 100
000156:                                                                                                  #         .         .                    SUPER101 OCTAL 120
000157:                                                                                                  #                                        SUPER110 OCTAL 140
000158:
000159:    4773           00006        SUPERSW            EXTEND
000160:    4774           01007                           WRITE    SUPERBNK                              #  WRITE BITS 7-6-5 OF THE ACCUMULATOR INTO
000161:                                                                                                  #  CHANNEL 07
000162:    4775           00002                           TC       Q                                     #  TC TO INSTRUCTION FOLLOWING
000163:                                                                                                  #        TC SUPERSW
000164:
000165:
000166:

End of include-file INTER-BANK_COMMUNICATION.agc.  Parent file is MAIN.agc


