
Source Code


000002:                                                                                                  ## Copyright:   Public domain.
000003:                                                                                                  ## Filename:    LATITUDE_LONGITUDE_SUBROUTINES.agc
000004:                                                                                                  ## Purpose:     A section of Comanche revision 045.
000005:                                                                                                  ##              It is part of the reconstructed source code for the
000006:                                                                                                  ##              second release of the flight software for the Command
000007:                                                                                                  ##              Module's (CM) Apollo Guidance Computer (AGC) for Apollo 10.
000008:                                                                                                  ##              The code has been recreated from a copy of Comanche 055. It
000009:                                                                                                  ##              has been adapted such that the resulting bugger words
000010:                                                                                                  ##              exactly match those specified for Comanche 45 in NASA drawing
000011:                                                                                                  ##              2021153D, which gives relatively high confidence that the
000012:                                                                                                  ##              reconstruction is correct.
000013:                                                                                                  ## Assembler:   yaYUL
000014:                                                                                                  ## Contact:     Ron Burkey <info@sandroid.org>.
000015:                                                                                                  ## Website:     www.ibiblio.org/apollo/index.html
000016:                                                                                                  ## Mod history: 2020-12-06 MAS  Created from Comanche 44.
000017:


000019:                                                                                                  #  SUBROUTINE TO CONVERT RAD VECTOR AT GIVEN TIME TO LAT,LONG AND ALT
000020:
000021:                                                                                                  #  CALLING SEQUENCE
000022:                                                                                                  #        L-1     CALL
000023:                                                                                                  #        L               LAT-LONG
000024:
000025:                                                                                                  #  SUBROUTINES USED
000026:                                                                                                  #        R-TO-RP, ARCTAN, SETGAMMA, SETRE
000027:
000028:                                                                                                  #  ERASABLE INIT. REQ.
000029:                                                                                                  #        AXO, -AYO, AZO, TEPHEM (SET AT LAUNCH TIME)
000030:                                                                                                  #        ALPHAV = POSITION VECTOR METERS B-29
000031:                                                                                                  #        MPAC -- TIME (CSECS B-28)
000032:                                                                                                  #        ERADFLAG =1, TO COMPUTE EARTH RADIUS, =0 FOR FIXED EARTH RADIUS
000033:                                                                                                  #        LUNAFLAG=0 FOR EARTH, 1 FOR MOON
000034:
000035:                                                                                                  #  OUTPUT
000036:                                                                                                  #        LATITUDE IN LAT         (REVS. B-0)
000037:                                                                                                  #        LONGITUDE IN LONG       (REVS. B-0)
000038:                                                                                                  #        ALTITUDE IN ALT METERS  B-29
000039:
000040: 30,3750                                           BANK     30
000041: 13,2000                                           SETLOC   LATLONG
000042: 13,2000                                           BANK
000043:
000044: 13,2370                                           COUNT    13/LT-LG
000045:
000046: 13,2370  E4,1551                                  EBANK=   ALPHAV
000047: 13,2370           40220        LAT-LONG           STQ      SETPD
000048: 13,2371           02242                                    INCORPEX
000049: 13,2372           00001                                    0D
000050: 13,2373           24007                           STOVL    6D                                    #  SAVE TIME IN 6-7D FOR R-TO-RP
000051: 13,2374           02152                                    ALPHAV
000052: 13,2375           51406                           PUSH     ABVAL                                 #  0-5D= R FOR R-TO-RP
000053: 13,2376           16310                           STODL    ALPHAM                                #  ABS. VALUE OF R FOR ALT FORMULA BELOW
000054: 13,2377           11563                                    ZEROVEC                               #  SET MPAC=0 FOR EARTH, NON-ZERO FOR MOON
000055: 13,2400           71414                           BOFF     COS                                   #  USE COS(0) TO GET NON-ZERO IN MPAC
000056: 13,2401           01743                                    LUNAFLAG                              #  0=EARTH, 1=MOON
000057: 13,2402           26403                                    CALLRTRP
000058: 13,2403           77624        CALLRTRP           CALL
000059: 13,2404           55371                                    R-TO-RP                               #  RP VECTOR CONVERTED FROM R B-29
000060: 13,2405           77656                           UNIT                                           #  UNIT RP B-1
000061: 13,2406           36152                           STCALL   ALPHAV                                #  U2= 1/2 SINL FOR SETRE SUBR BELOW
000062: 13,2407           26571                                    SETGAMMA                              #        SET GAMMA=B2/A2 FOR EARTH, =1 FOR MOON
000063: 13,2410           77624                           CALL                                           #        SCALED B-1
000064: 13,2411           26601                                    SETRE                                 #  CALC RE METERS B-29
000065: 13,2412           63545                           DLOAD    DSQ
000066: 13,2413           02152                                    ALPHAV
000067: 13,2414           63525                           PDDL     DSQ
000068: 13,2415           02154                                    ALPHAV     +2


000070: 13,2416           75415                           DAD      SQRT
000071: 13,2417           76405                           DMP      SL1R
000072: 13,2420           00011                                    GAMRP
000073: 13,2421           14021                           STODL    COSTH                                 #  COS(LAT) B-1
000074: 13,2422           02156                                    ALPHAV     +4
000075: 13,2423           34023                           STCALL   SINTH                                 #  SIN(LAT) B-1
000076: 13,2424           26531                                    ARCTAN
000077: 13,2425           15104                           STODL    LAT                                   #  LAT B0
000078: 13,2426           02152                                    ALPHAV
000079: 13,2427           14021                           STODL    COSTH                                 #  COS(LONG) B-1
000080: 13,2430           02154                                    ALPHAV     +2
000081: 13,2431           34023                           STCALL   SINTH                                 #  SIN(LONG) B-1
000082: 13,2432           26531                                    ARCTAN
000083: 13,2433           15106                           STODL    LONG                                  #  LONG. REVS B-0 IN RANGE -1/2 TO 1/2
000084: 13,2434           02310                                    ALPHAM
000085: 13,2435           77625                           DSU                                            #  ALT= R-RE METERS B-29
000086: 13,2436           02241                                    ERADM
000087: 13,2437           35110                           STCALL   ALT                                   #  EXIT WITH ALT METERS B-29
000088: 13,2440           02242                                    INCORPEX


000090:                                                                                                  #  SUBROUTINE TO CONVERT LAT,LONG,ALT AT GIVEN TIME TO RADIUS VECTOR
000091:
000092:                                                                                                  #  CALLING SEQUENCE
000093:                                                                                                  #        L-1     CALL
000094:                                                                                                  #        L               LALOTORV
000095:
000096:                                                                                                  #  SUBROUTINES USED
000097:                                                                                                  #        SETGAMMA, SETRE, RP-TO-R
000098:
000099:                                                                                                  #  ERASABLE INIT. REQ.
000100:                                                                                                  #        AXO, AYO, AZO, TEPHEM SET AT LAUNCH TIME
000101:                                                                                                  #        LAT -- LATITUDE         (REVS B0)
000102:                                                                                                  #        LONG -- LONGITUDE       (REVS B0)
000103:                                                                                                  #        ALT -- ALTITUDE         (METERS) B-29
000104:                                                                                                  #        MPAC -- TIME            (CSECS B-28)
000105:                                                                                                  #        ERADFLAG =1 TO COMPUTE EARTH RADIUS, =0 FOR FIXED EARTH RADIUS
000106:                                                                                                  #        LUNAFLAG=0 FOR EARTH, 1 FOR MOON
000107:
000108:                                                                                                  #  OUTPUT
000109:                                                                                                  #        R-VECTOR IN ALPHAV      (METERS B-29)
000110:
000111: 13,2441           40220        LALOTORV           STQ      SETPD                                 #  LAT,LONG,ALT TO R VECTOR
000112: 13,2442           02242                                    INCORPEX
000113: 13,2443           00001                                    0D
000114: 13,2444           34007                           STCALL   6D                                    #      6-7D = TIME FOR RP-TO-R
000115: 13,2445           26571                                    SETGAMMA                              #     GAMMA = B2/A2 FOR EARTH, 1 FOR MOON B-1
000116: 13,2446           73545                           DLOAD    SIN                                   #            COS(LONG)COS(LAT) IN MPAC
000117: 13,2447           01104                                    LAT                                   #  UNIT  RP = SIN(LONG)COS(LAT)    2-3D
000118: 13,2450           65275                           DMPR     PDDL                                  #  PD 2      GAMMA*SIN(LAT)       0-1D
000119: 13,2451           00011                                    GAMRP
000120: 13,2452           01104                                    LAT                                   #      0-1D = GAMMA*SIN(LAT) B-2
000121: 13,2453           65346                           COS      PDDL                                  #  PD4 2-3D= COS(LAT) B-1 TEMPORARILY
000122: 13,2454           01106                                    LONG
000123: 13,2455           57356                           SIN      DMPR                                  #  PD 2
000124: 13,2456           71525                           PDDL     COS                                   #  PD 4 2-3D= SIN(LONG)COS(LAT) B-2
000125: 13,2457           01104                                    LAT
000126: 13,2460           71525                           PDDL     COS                                   #  PD 6 4-5D= COS(LAT) B-1 TEMPORARILY
000127: 13,2461           01106                                    LONG
000128: 13,2462           55475                           DMPR     VDEF                                  #  PD4 MPAC = COS(LONG)COS(LAT) B-2
000129: 13,2463           41456                           UNIT     PUSH                                  #      0-5D = UNIT RP FOR RP-TO-R SUBR.
000130: 13,2464           36152                           STCALL   ALPHAV                                #  ALPHAV +4= SINL FOR SETRE SUBR.
000131: 13,2465           26601                                    SETRE                                 #  RE METERS B-29
000132: 13,2466           43145                           DLOAD    BOFF                                  #  SET MPAC = 0 FOR EARTH, NON-ZERO FOR MOON
000133: 13,2467           11563                                    ZEROVEC
000134: 13,2470           01743                                    LUNAFLAG
000135: 13,2471           26473                                    CALLRPRT
000136: 13,2472           77746                           COS                                            #  USE COS(0) TO GET NON-ZERO IN MPAC
000137: 13,2473           77624        CALLRPRT           CALL
000138: 13,2474           55344                                    RP-TO-R                               #  EXIT WITH UNIT R VECTOR IN MPAC
000139: 13,2475           16152                           STODL    ALPHAV
000140: 13,2476           02241                                    ERADM


000142: 13,2477           74215                           DAD      VXSC                                  #  (RE + ALT)(UNIT R) METERS B-30
000143: 13,2500           01110                                    ALT
000144: 13,2501           02152                                    ALPHAV
000145: 13,2502           77772                           VSL1                                           #  R METERS B-29
000146: 13,2503           36152                           STCALL   ALPHAV                                #  EXIT WITH R IN METERS B-29
000147: 13,2504           02242                                    INCORPEX
000148:
000149:                                                                                                  #  SUBROUTINE TO COMPUTE EARTH RADIUS
000150:
000151:                                                                                                  #  INPUT
000152:                                                                                                  #        1/2 SIN LAT IN ALPHAV +4
000153:
000154:                                                                                                  #  OUTPUT
000155:                                                                                                  #        EARTH RADIUS IN ERADM AND MPAC (METERS B-29)
000156:
000157: 13,2505           63545        GETERAD            DLOAD    DSQ
000158: 13,2506           02156                                    ALPHAV     +4                         #  SIN**2(L)
000159: 13,2507           44352                           SL1      BDSU
000160: 13,2510           11561                                    DP1/2                                 #  COS**2(L)
000161: 13,2511           44275                           DMPR     BDSU
000162: 13,2512           26526                                    EE
000163: 13,2513           11561                                    DP1/2
000164: 13,2514           75465                           BDDV     SQRT
000165: 13,2515           26522                                    B2XSC
000166: 13,2516           77622                           SR4R
000167: 13,2517           02241                           STORE    ERADM
000168: 13,2520           77616                           RVQ
000169:
000170:                                                                                                  #  THE FOLLOWING CONSTANTS WERE COMPUTED WITH A=6378166, B=6356784 METERS
000171:                                                                                                  #  B2XSC = B**2 SCALED B-51
000172:                                                                                                  #  B2/A2 = B**2/A**2 SCALED B-1
000173:                                                                                                  #  EE = (1-B**2/A**2) SCALED B-0
000174:
000175: 13,2521           00446 00305  B2XSC              2DEC     .0179450689                            #  B**2 SCALED B-51
000176:
000177: 13,2523  04,3560               DP1/2              =        XUNIT
000178: 13,2523           17711 05254  B2/A2              2DEC     .9933064884 B-1                        #  GAMMA= B**2/A**2 B-1
000179:
000180: 13,2525           00155 25250  EE                 2DEC     6.6935116  E-3                        #  (1-B**2/A**2) B-0
000181:
000182: 13,2527           00302 17755  ERAD               2DEC     6373338    B-29                       #  PAD RADIUS
000183:


000185:                                                                                                  #  ARCTAN SUBROUTINE
000186:
000187:                                                                                                  #  CALLING SEQUENCE
000188:                                                                                                  #        SIN THETA IN SINTH B-1
000189:                                                                                                  #        COS THETA IN COSTH B-1
000190:                                                                                                  #        CALL ARCTAN
000191:
000192:                                                                                                  #  OUTPUT
000193:                                                                                                  #        ARCTAN THETA IN MPAC AND THETA B-0 IN RANGE -1/2 TO +1/2
000194:
000195: 13,2531           77600        ARCTAN             BOV
000196: 13,2532           26533                                    CLROVFLW
000197: 13,2533           63545        CLROVFLW           DLOAD    DSQ
000198: 13,2534           00023                                    SINTH
000199: 13,2535           63525                           PDDL     DSQ
000200: 13,2536           00021                                    COSTH
000201: 13,2537           77615                           DAD
000202: 13,2540           75454                           BZE      SQRT
000203: 13,2541           26557                                    ARCTANXX                              #  ATAN=0/0  SET THETA=0
000204: 13,2542           40065                           BDDV     BOV
000205: 13,2543           00023                                    SINTH
000206: 13,2544           26564                                    ATAN=90
000207: 13,2545           67542                           SR1      ASIN
000208: 13,2546           00025                           STORE    THETA
000209: 13,2547           50125                           PDDL     BMN
000210: 13,2550           00021                                    COSTH
000211: 13,2551           26553                                    NEGCOS
000212: 13,2552           43545                           DLOAD    RVQ
000213: 13,2553           57545        NEGCOS             DLOAD    DCOMP
000214: 13,2554           43244                           BPL      DAD
000215: 13,2555           26561                                    NEGOUT
000216: 13,2556           11561                                    DP1/2
000217: 13,2557           00025        ARCTANXX           STORE    THETA
000218: 13,2560           77616                           RVQ
000219:
000220: 13,2561           52025        NEGOUT             DSU      GOTO
000221: 13,2562           11561                                    DP1/2
000222: 13,2563           26557                                    ARCTANXX
000223: 13,2564           75345        ATAN=90            DLOAD    SIGN
000224: 13,2565           11607                                    LODP1/4
000225: 13,2566           00023                                    SINTH
000226: 13,2567           00025                           STORE    THETA
000227: 13,2570           77616                           RVQ
000228:
000229: 13,2571  04,3562               2DZERO             =        DPZERO
000230:


000232:                                                                                                  #  ..... SETGAMMA SUBROUTINE .....
000233:                                                                                                  #  SUBROUTINE TO SET GAMMA FOR THE LAT-LONG AND LALOTORV SUBROUTINES
000234:
000235:                                                                                                  #  GAMMA = B**2/A**2 FOR EARTH (B-1)
000236:                                                                                                  #  GAMMA = 1 FOR MOON (B-1)
000237:
000238:                                                                                                  #  CALLING SEQUENCE
000239:                                                                                                  #        L       CALL
000240:                                                                                                  #        L+1             SETGAMMA
000241:
000242:                                                                                                  #  INPUT
000243:                                                                                                  #        LUNAFLAG=0 FOR EARTH, =1 FOR MOON
000244:
000245:                                                                                                  #  OUTPUT
000246:                                                                                                  #        GAMMA IN GAMRP (B-1)
000247:
000248: 13,2571           43145        SETGAMMA           DLOAD    BOFF                                  #  BRANCH FOR EARTH
000249: 13,2572           26524                                    B2/A2                                 #  EARTH GAMMA
000250: 13,2573           01743                                    LUNAFLAG
000251: 13,2574           26577                                    SETGMEX
000252: 13,2575           77735                           SLOAD
000253: 13,2576           11561                                    1B1                                   #  MOON GAMMA
000254: 13,2577           00011        SETGMEX            STORE    GAMRP
000255: 13,2600           77616                           RVQ
000256: 13,2601                        GAMRP              =        8D
000257:


000259:                                                                                                  #  ..... SETRE SUBROUTINE .....
000260:                                                                                                  #  SUBROUTINE TO SET RE (EARTH OR MOON RADIUS)
000261:
000262:                                                                                                  #        RE = RM FOR MOON
000263:                                                                                                  #        RE = RREF FOR FIXED EARTH RADIUS OR COMPUTED RF FOR FISCHER ELLIPSOID
000264:
000265:                                                                                                  #  CALLING SEQUENCE
000266:                                                                                                  #        L       CALL
000267:                                                                                                  #        L+1             SETRE
000268:
000269:                                                                                                  #  SUBROUTINES USED
000270:                                                                                                  #        GETERAD
000271:
000272:                                                                                                  #  INPUT
000273:                                                                                                  #        ERADFLAG = 0 FOR FIXED RE, 1 FOR COMPUTED RE
000274:                                                                                                  #        ALPHAV +4 = 1/2 SINL IF GETERAD IS CALLED
000275:                                                                                                  #        LUNAFLAG = 0 FOR EARTH, =1 FOR MOON
000276:
000277:                                                                                                  #  OUTPUT
000278:                                                                                                  #        ERADM = 504RM FOR MOON (METERS B-29)
000279:                                                                                                  #        ERADM = ERAD OR COMPUTED RF FOR EARTH (METERS B-29)
000280:
000281: 13,2601           71220        SETRE              STQ      DLOAD
000282: 13,2602           00051                                    SETREX
000283: 13,2603           26626                                    504RM
000284: 13,2604           71214                           BON      DLOAD                                 #  BRANCH FOR MOON
000285: 13,2605           01703                                    LUNAFLAG
000286: 13,2606           26616                                    TSTRLSRM
000287: 13,2607           26530                                    ERAD
000288: 13,2610           45014                           BOFF     CALL                                  #  ERADFLAG=0 FOR FIXED RE, 1 FOR COMPUTED
000289: 13,2611           00742                                    ERADFLAG
000290: 13,2612           26614                                    SETRXX
000291: 13,2613           26505                                    GETERAD
000292: 13,2614           36241        SETRXX             STCALL   ERADM                                 #  EXIT WITH RE OR RM METERS B-29
000293: 13,2615           00051                                    SETREX
000294: 13,2616           77214        TSTRLSRM           BON      VLOAD                                 #  ERADFLAG=0, SET R0=RLS
000295: 13,2617           00702                                    ERADFLAG                              #          =1      R0=RM
000296: 13,2620           26614                                    SETRXX
000297: 13,2621           02026                                    RLS
000298: 13,2622           64446                           ABVAL    SR2R                                  #  SCALE FROM B-27 TO B-29
000299: 13,2623           77650                           GOTO
000300: 13,2624           26614                                    SETRXX
000301: 13,2625  0000051               SETREX             =        S2
000302: 13,2625           00065 01265  504RM              2DEC     1738090    B-29                       #  METERS B-29 (MOON RADIUS)
000303:
000304:
000305:
000306:

End of include-file LATITUDE_LONGITUDE_SUBROUTINES.agc.  Parent file is MAIN.agc


