
Source Code


000002:                                                                                                  ## Copyright:   Public domain.
000003:                                                                                                  ## Filename:    P40-P47.agc
000004:                                                                                                  ## Purpose:     A section of Comanche revision 045.
000005:                                                                                                  ##              It is part of the reconstructed source code for the
000006:                                                                                                  ##              second release of the flight software for the Command
000007:                                                                                                  ##              Module's (CM) Apollo Guidance Computer (AGC) for Apollo 10.
000008:                                                                                                  ##              The code has been recreated from a copy of Comanche 055. It
000009:                                                                                                  ##              has been adapted such that the resulting bugger words
000010:                                                                                                  ##              exactly match those specified for Comanche 45 in NASA drawing
000011:                                                                                                  ##              2021153D, which gives relatively high confidence that the
000012:                                                                                                  ##              reconstruction is correct.
000013:                                                                                                  ## Assembler:   yaYUL
000014:                                                                                                  ## Contact:     Ron Burkey <info@sandroid.org>.
000015:                                                                                                  ## Website:     www.ibiblio.org/apollo/index.html
000016:                                                                                                  ## Mod history: 2020-12-06 MAS  Created from Comanche 44.
000017:                                                                                                  ##              2020-12-23 MAS  Implemented the COM-4 anomaly fix in S40.1.
000018:                                                                                                  ##              2020-12-24 RSB  Beefed-up the annotation justifying reconstruction.
000019:


000021:                                                                                                  #  PROGRAM DESCRIPTION ** P40CSM **
000022:
000023: 35,3504  E6,1466                                  EBANK=   DAPDATR1
000024: 31,3700                                           BANK     31
000025: 24,2000                                           SETLOC   P40S
000026: 24,2000                                           BANK
000027:
000028: 24,2073                                           COUNT    24/P40
000029:
000030: 24,2073           05560        P40CSM             TC       DOWNFLAG
000031: 24,2074           00023                           ADRES    ENG2FLAG
000032:
000033: 24,2075           06006                           TC       INTPRET
000034: 24,2076           43135                           SLOAD    BOFF
000035: 24,2077           03425                                    ECSTEER                               #  IS THIS AN EXTERNAL DELTA V BURN
000036: 24,2100           01347                                    XDELVFLG
000037: 24,2101           50104                                    P40S/C                                #  NO    CSTEER = ECSTEER
000038: 24,2102           77745                           DLOAD                                          #  YES   CSTEER = ZERO
000039: 24,2103           15335                                    HI6ZEROS
000040: 24,2104           17703        P40S/C             STODL    CSTEER
000041: 24,2105           10411                                    FENG                                  #  SET UP THRUST FOR P40 20,000 LBS
000042: 24,2106           17727        P40S/F             STODL    F                                     #  P41 ENTERS HERE
000043: 24,2107           03413                                    TIG                                   #  ORIGINAL TIG MAY BE SLIPPED BY P40S/SV
000044: 24,2110           03450                           STORE    NOMTIG                                #  SET ORIGINAL TIME OF IGNITION FOR S40.9
000045:
000046: 24,2111           77776                           EXIT
000047: 24,2112           04662                           TC       BANKCALL
000048: 24,2113           17653                           CADR     R02BOTH                               #  IMU STATUS CHECK
000049:
000050: 24,2114           06006        P40PVA             TC       INTPRET
000051: 24,2115           77624                           CALL
000052: 24,2116           34020                                    S40.1                                 #  COMPUTE VGTIG,UT
000053: 24,2117           77624                           CALL
000054: 24,2120           51574                                    S40.2,3                               #  COMPUTE PREFERRED ATTITUDE
000055: 24,2121           77414                           SET      EXIT
000056: 24,2122           01073                                    PFRATFLG
000057: 24,2123           02303        P40SXTY            TCR      SETMINDB   -1                         #  NARROW DEADBAND FOR MANEUVER (EBANK6)
000058: 24,2124           00003                           RELINT
000059: 24,2125           04662                           TC       BANKCALL
000060: 24,2126           56000                           CADR     R60CSM                                #  ATTITUDE MANEUVER
000061: 24,2127           45017                           CS       ONE                                   #  FOR UPDATEVG
000062: 24,2130           55742                           TS       NBRCYCLS
000063: 24,2131           05546                           TC       UPFLAG
000064: 24,2132           00155                           ADRES    TIMRFLAG                              #  ALLOW CLOCKTASK
000065:
000066: 24,2133           02326                           TC       P41/P40
000067: 24,2134           02343                           TC       P41/DSP                               #  P41
000068:
000069: 24,2135           32425        P40TTOG            CAF      V06N40                                #  INITIALIZE FOR CLOCKTASK WHICH IS CALLED


000071: 24,2136           55145                           TS       NVWORD1                               #  BELOW
000072:
000073: 24,2137           06006                           TC       INTPRET
000074: 24,2140           51575                           VLOAD    ABVAL                                 #  FOR R2
000075: 24,2141           03721                                    VGTIG
000076: 24,2142           17773                           STODL    VGDISP
000077: 24,2143           15335                                    HI6ZEROS
000078: 24,2144           03426                           STORE    DVTOTAL
000079: 24,2145           77776                           EXIT
000080:
000081: 24,2146           00006                           EXTEND
000082: 24,2147           33061                           DCA      STEERADS                              #  SET FOR UPDATEVG AND TEST FOR STEERING
000083: 24,2150           53223                           DXCH     AVEGEXIT                              #  AFTER AVERAGE G
000084:
000085: 24,2151           32420        P40GMB             CAF      P40CKLS2                              #  (4.1 PROTECTION)
000086: 24,2152           04662                           TC       BANKCALL
000087: 24,2153           21045                           CADR     GOPERF1
000088: 24,2154           12275                           TCF      POST41                                #  V34
000089: 24,2155           12435                           TCF      TST,TRIM                              #  V33
000090: 24,2156           45017        TRIMONLY           CS       BIT1                                  #  SET MRKRTEMP FOR GIMBAL TRIM (-1)
000091: 24,2157           55445                 +1        TS       MRKRTMP                               #  ENTRY FROM TST,TRIM
000092:
000093: 24,2160           35021                           CAF      ZERO                                  #  SET CNTR      +0 FOR RESTART LOGIC IN S40.6
000094: 24,2161           55447                           TS       CNTR                                  #        +0 SAYS NORMAL ENTRY.
000095:                                                                                                  #        +1 (PRE40.6) SAYS RESTART ENTRY
000096:
000097: 24,2162           35017                           CAF      ONE
000098: 24,2163           05245                           TC       WAITLIST
000099: 24,2164  E6,1466                                  EBANK=   DAPDATR1
000100: 24,2164           02252 40066                     2CADR    S40.6
000101:
000102: 24,2166           11445                           CCS      MRKRTMP                               #  TEST TO FIND TIME TO WAIT FOR GIMBAL TEST
000103: 24,2167           32417                           CAF      18SEC                                 #  PLUS, DELAY FOR 18 SECONDS
000104: 24,2170           12172                           TCF      +2                                    #  HOLE
000105: 24,2171           33064                           CAF      5SEC                                  #  DELAY FOR TRIM ONLY TASK
000106: 24,2172           04662                           TC       BANKCALL
000107: 24,2173           01732                           CADR     DELAYJOB
000108: 24,2174           05372                           TC       2PHSCHNG
000109: 24,2175           40026                           OCT      40026                                 #  6.2 = PRE40.6(-0CS), CLOKTASK(100CS)
000110: 24,2176           00234                           OCT      00234                                 #  4.23 = P40S/SV (PRIO12)
000111: 24,2177           35017        P40S/RS            CAF      ONE
000112: 24,2200           05245                           TC       WAITLIST                              #  P41/SDP
000113: 24,2201  E7,1412                                  EBANK=   TIG
000114: 24,2201           03260 50067                     2CADR    CLOKTASK
000115:
000116: 24,2203           00003                           RELINT
000117:
000118: 24,2204           03366        P40S/SV            TCR      E7SETTER                              #  JOB, 4.23 PRETECTS, PRIO12
000119: 24,2205  E7,1412                                  EBANK=   TIG


000121: 24,2205           06006                           TC       INTPRET
000122: 24,2206           45345                           DLOAD    DSU
000123: 24,2207           03413                                    TIG
000124: 24,2210           10416                                    SEC29.96
000125: 24,2211           00041                           STORE    TDEC1
000126:
000127: 24,2212           77624                           CALRB                                          #  RETURN IN BASIC
000128: 24,2213           27553                                    MIDTOAV1
000129: 24,2214           12216                           TCF      +2
000130: 24,2215           02237                           TC       P40SNEWM                              #  INTEGRATION TIME GREATER THAN ALLOWED
000131: 24,2216           00006        P40SET             EXTEND
000132: 24,2217           30155                           DCA      MPAC                                  #  DELTA TIME TO PREREAD (INT.INIT.)
000133: 24,2220           53673                           DXCH     P40TMP
000134: 24,2221           00006                           EXTEND
000135: 24,2222           43064                           DCS      5SECDP                                #  FOR TTGBLNK
000136: 24,2223           21673                           DAS      P40TMP
000137: 24,2224           00006                           EXTEND
000138: 24,2225           31673                           DCA      P40TMP
000139: 24,2226           05342                           TC       LONGCALL
000140: 24,2227  E7,1412                                  EBANK=   TIG
000141: 24,2227           02437 50067                     2CADR    TIGBLNK
000142:
000143: 24,2231           05412                           TC       PHASCHNG
000144: 24,2232           20214                           OCT      20214                                 #  4.21 = TIGBLNK (P40TMP CS)
000145:
000146: 24,2233           15217                           TCF      ENDOFJOB
000147: 24,2234           04662        P40BLNKR           TC       BANKCALL
000148: 24,2235           20703                           CADR     CLEANDSP                              #  REMOVE RESIDUE
000149: 24,2236           15217                           TCF      ENDOFJOB
000150: 24,2237  E7,1412                                  EBANK=   TIG
000151: 24,2237           00006        P40SNEWM           EXTEND
000152: 24,2240           31246                           DCA      PIPTIME1
000153: 24,2241           53413                           DXCH     TIG                                   #  SET NEW TIG FOR 06 40
000154: 24,2242           00006                           EXTEND
000155: 24,2243           32416                           DCA      SEC29.96
000156: 24,2244           21413                           DAS      TIG
000157: 24,2245           12216                           TCF      P40SET                                #  FOR LONGCALL OF TIG-30 (OR -35)
000158:
000159: 24,2246  E6,1466                                  EBANK=   DAPDATR1
000160: 24,2246           32426        POSTBURN           CAF      V16N40
000161: 24,2247           04662                           TC       BANKCALL
000162: 24,2250           20704                           CADR     REFLASH
000163: 24,2251           12275                           TCF      POST41                                #  V34 GO FINISH
000164: 24,2252           12254                           TCF      P40RCS                                #  PROCEED
000165: 24,2253           12246                           TCF      POSTBURN                              #  RECYCLE
000166: 24,2254           00006        P40RCS             EXTEND                                         #  V99N40 ENTERS HERE ON A P40 BYPASS SPS
000167: 24,2255           32462                           DCA      ACADN85
000168: 24,2256           53223                           DXCH     AVEGEXIT
000169: 24,2257           35042                           CAF      2SECS                                 #  WAIT FOR CALCN85 VIA AVEGEXIT
000170: 24,2260           04662                           TC       BANKCALL


000172: 24,2261           01732                           CADR     DELAYJOB
000173:
000174: 24,2262           02303        P40MINDB           TCR      SETMINDB   -1
000175: 24,2263           00003                           RELINT
000176: 24,2264           05412        TIGNOW             TC       PHASCHNG
000177: 24,2265           05024                           OCT      05024                                 #  TYPE C GROUP 4 BELOW FOR NOUN 85
000178: 24,2266           20000                           OCT      20000                                 #  PRIO 20
000179: 24,2267           32424                           CAF      V16N85B
000180: 24,2270           04662                           TC       BANKCALL
000181: 24,2271           20704                           CADR     REFLASH
000182: 24,2272           12275                           TCF      POST41                                #  FINISH P40/P41
000183: 24,2273           12275                           TCF      POST41                                #  V03 PROCEED WITH REST OF THE CLEAN-UP
000184: 24,2274           12264                           TCF      TIGNOW                                #  V32 NOT GSOP RESPONSE BUT REDISPLAY N85
000185:
000186: 24,2275           00006        POST41             EXTEND
000187: 24,2276           32460                           DCA      SERVCADR
000188: 24,2277           53223                           DXCH     AVEGEXIT
000189: 24,2300           14106                           TCF      GOTOPOOH
000190:
000191: 24,2301           00056        MINDB              DEC      46         B-14
000192: 24,2302           00707        MAXDB              DEC      455        B-14
000193: 24,2303  E6,1466                                  EBANK=   DAPDATR1
000194: 24,2303           00004                 -1        INHINT
000195: 24,2304           30032        SETMINDB           CA       CDUX                                  #  ROUTINE FOR SETTING
000196: 24,2305           55572                           TS       THETADX                               #  THE MINIMUM DEADBAND
000197: 24,2306           00006                           EXTEND                                         #  IN AUTOPILOT
000198: 24,2307           30034                           DCA      CDUY
000199: 24,2310           53574                           DXCH     THETADY
000200: 24,2311           32301                           CA       MINDB                                 #  SHOULD BE CALLED UNDER
000201: 24,2312           55655                           TS       ADB                                   #  INTERRUPT INHIBITED
000202: 24,2313           45014                           CS       BIT4                                  #  EBANK = E6
000203: 24,2314           71466                           MASK     DAPDATR1
000204: 24,2315           55466                           TS       DAPDATR1
000205: 24,2316           00002                           TC       Q
000206:
000207: 24,2317  E6,1466                                  EBANK=   DAPDATR1
000208: 24,2317           00004                 -1        INHINT
000209: 24,2320           32302        SETMAXDB           CA       MAXDB                                 #  ROUTINE FOR SETTING
000210: 24,2321           55655                           TS       ADB                                   #  THE MAXIMUM DEADBAND IN AUTOPILOT
000211: 24,2322           41466                           CS       DAPDATR1
000212: 24,2323           75014                           MASK     BIT4                                  #  SHOULD BE CALLED UNDER
000213: 24,2324           27466                           ADS      DAPDATR1                              #  INTERRUPT INHIBITED
000214: 24,2325           00002                           TC       Q                                     #  EBANK = E6
000215:


000217:                                                                                                  #  PROGRAM DESCRIPTION ** P41CSM **
000218:
000219: 27,2000                                           SETLOC   P40S2
000220: 27,2000                                           BANK
000221:
000222: 27,2614  E6,1466                                  EBANK=   DAPDATR1
000223: 27,2614                                           COUNT    24/P41
000224:
000225: 27,2614           05546        P41CSM             TC       UPFLAG
000226: 27,2615           00023                           ADRES    ENG2FLAG                              #  SET FOR RCS
000227:
000228: 27,2616           06006                           TC       INTPRET
000229: 27,2617           77745                           DLOAD
000230: 27,2620           15335                                    HI6ZEROS                              #  FOR P41 CSTEER =0
000231: 27,2621           03703                           STORE    CSTEER
000232:
000233: 27,2622           43145                           DLOAD    BON
000234: 27,2623           10413                                    FRCS2                                 #  2JET THRUST FOR S40.1
000235: 27,2624           00700                                    NJETSFLG
000236: 27,2625           50106                                    P40S/F                                #  NJETS = 1 2-JET
000237: 27,2626           52015                           DAD      GOTO                                  #  NJETS = 0 4-JET
000238: 27,2627           10413                                    FRCS2
000239: 27,2630           50106                                    P40S/F
000240:
000241: 24,2000                                           SETLOC   P40S
000242: 24,2000                                           BANK
000243:
000244: 24,2326           41011        P41/P40            CS       MODREG
000245: 24,2327           75017                           MASK     ONE                                   #  P41EXITS AT CALL LOC +1
000246: 24,2330           00006                           EXTEND
000247: 24,2331           12333                           BZF      +2                                    #  P41
000248: 24,2332           24002                           INCR     Q                                     #  P40 EXITS AT CALL LOC +2
000249: 24,2333           00002                           TC       Q
000250:
000251: 24,2334           35002        TTG/0              CAF      PRIO20                                #  TASK (4.4 PROTECTS IN P41)
000252: 24,2335           05134                           TC       NOVAC
000253: 24,2336  E6,1466                                  EBANK=   DAPDATR1
000254: 24,2336           02264 50066                     2CADR    TIGNOW
000255:
000256: 24,2340           05560        P40CLK             TC       DOWNFLAG
000257: 24,2341           00155                           ADRES    TIMRFLAG
000258:
000259: 24,2342           15324                           TCF      TASKOVER
000260:
000261: 24,2343           32423        P41/DSP            CAF      V06N85B                               #  SET UP FOR NONFLASH V 06 N85 BY CLOCKJOB
000262: 24,2344           55145                           TS       NVWORD1
000263:
000264: 24,2345           06006                           TC       INTPRET


000266: 24,2346           77624                           CALL                                           #  COMPUTE
000267: 24,2347           50370                                    P40CNV85                              #        VGTIG IN CTRL COORDS
000268: 24,2350           77776                           EXIT
000269: 24,2351           00006                           EXTEND                                         #  DO CONTROL COORD CALCULATION AFTER AVEG
000270: 24,2352           32462                           DCA      ACADN85
000271: 24,2353           53223                           DXCH     AVEGEXIT
000272: 24,2354           05372                           TC       2PHSCHNG
000273: 24,2355           40036                           OCT      40036                                 #  6.3=CLOKTASK(100CS)
000274: 24,2356           00234                           OCT      234                                   #  4.23=P40S/SV(PRIO12)
000275:
000276: 24,2357           12177                           TCF      P40S/RS
000277: 24,2360           32424        P41REDSP           CAF      V16N85B                               #  ENTER FROM P41 SIDE OF TIGAVEG
000278: 24,2361           55145                           TS       NVWORD1                               #  REDISPLAY NONFLASHING
000279: 24,2362           32416                           CAF      SEC29.96   +1
000280: 24,2363           05245                           TC       WAITLIST
000281: 24,2364  E6,1466                                  EBANK=   DAPDATR1
000282: 24,2364           02334 50066                     2CADR    TTG/0
000283:
000284: 24,2366           45015                           CS       BIT3                                  #  4.4 = TTG/0(2996CS), PRECHECK(-0CS)
000285: 24,2367           12566                           TCF      TTGPHS
000286: 24,2370           40220        P40CNV85           STQ      SETPD
000287: 24,2371           03730                                    QTEMP1
000288: 24,2372           00001                                    0
000289: 24,2373           41575                           VLOAD    PUSH
000290: 24,2374           03721                                    VGPREV                                #  EQUALS VGTIG (TARGETTING INPUT)
000291: 24,2375           77624                           CALL
000292: 24,2376           45431                                    S41.1
000293: 24,2377           37665                           STCALL   VGBODY
000294: 24,2400           03730                                    QTEMP1
000295:
000296: 24,2401  E6,1466                                  EBANK=   DAPDATR1
000297: 24,2401           06006        CALCN85            TC       INTPRET
000298: 24,2402           77624                           CALL
000299: 24,2403           51104                                    UPDATEVG                              #  NEW VG, S40.8 (+MAYBE S40.9)
000300: 24,2404           77624                           CALL
000301: 24,2405           50370                                    P40CNV85                              #  COMPUTE VGBODY
000302: 24,2406           77776                           EXIT
000303: 24,2407           03215                           TC       SERVXT
000304: 24,2410           02217 06650  FENG               2DEC     9.1188544  B-7                        #  SPS THRUST (20500LBS), SC.AT B+7 NEWT/E4
000305:
000306: 24,2412           00013 06112  FRCS2              2DEC     .087437837 B-7                        #  RCS ULLAGE (199.6COS10 LBS), SC.AT
000307:
000308:                                                                                                  #        B+7 NEWTONS/E+4
000309: 24,2414           04700        SEC24.96           DEC      2496       B-14
000310: 24,2415           00000 05664  SEC29.96           2DEC     2996       B-28
000311:
000312: 24,2417           03410        18SEC              DEC      1800       B-14
000313: 24,2420           00204        P40CKLS2           OCT      204
000314: 24,2421           37730        40CST5             OCT      37730                                 #  40 CS FOR THE T5 CLOCK
000315: 24,2422     4377               OCT12              =        TEN


000317: 24,2422           04123        V1683              VN       1683
000318: 24,2423           01525        V06N85B            VN       0685
000319: 24,2424           04125        V16N85B            VN       1685
000320: 24,2425           01450        V06N40             VN       0640
000321: 24,2426           04050        V16N40             VN       1640
000322: 24,2427           00027        OCT27/24           OCT      27
000323: 24,2430           00053        OCT53              OCT      53
000324: 24,2431           00035        OCT35              OCT      35
000325: 24,2432  E6,1466                                  EBANK=   DAPDATR1
000326: 24,2432           03153 12066  T5IDL24            2CADR    T5IDLOC
000327:
000328: 24,2434           00026        3MDOT              DEC      86.6175796 B-16                       #  3SEC MASS LOSS (63.8 LBS/SEC), SC.AT
000329:                                                                                                  #  B+16 KG/SEC (NOTE, EMDOT IS PAD-LOADED,
000330:                                                                                                  #  BUT 3MDOT IS NOT A CRITICAL QUANTITY, SO
000331:                                                                                                  #  IT CAN REMAIN IN FIXED MEMORY)
000332: 24,2435           35017        TST,TRIM           CAF      BIT1                                  #  SET UP FOR GIMB DRIVE TEST AND TRIM (+1)
000333: 24,2436           12157                           TCF      TRIMONLY   +1
000334: 24,2437           33064        TIGBLNK            CAF      5SEC                                  #  CALL TIGAVEG IN FIVE SEC AT TIG-30
000335: 24,2440           05245                           TC       WAITLIST
000336: 24,2441  E7,1412                                  EBANK=   TIG
000337: 24,2441           02555 50067                     2CADR    TIGAVEG
000338:
000339: 24,2443           35021                           CAF      ZERO                                  #  DISABLE HERE, NOT IN P40BLNKR
000340: 24,2444           55145                           TS       NVWORD1
000341:
000342: 24,2445           35066                           CAF      PRIO14
000343: 24,2446           05134                           TC       NOVAC
000344: 24,2447  E7,1412                                  EBANK=   TIG
000345: 24,2447           02234 50067                     2CADR    P40BLNKR                              #  DONT PROTECT-RESTARTS BLANK DSKY
000346:
000347: 24,2451           44362                           CS       OCT37                                 #  4.37 = TIGAVEG (500CS)
000348: 24,2452           04114        P40TSK             TC       NEWPHASE
000349: 24,2453           00004                           OCT      4
000350: 24,2454           05324                           TC       TASKOVER
000351:
000352: 24,2455  E7,1412                                  EBANK=   TIG
000353: 24,2455           02511 50067  ACADN83            2CADR    CALCN83
000354:
000355: 24,2457  E7,1412                                  EBANK=   TIG
000356: 24,2457           03226 76067  SERVCADR           2CADR    SERVEXIT
000357:
000358: 24,2461  E6,1466                                  EBANK=   DAPDATR1
000359: 24,2461           02401 50066  ACADN85            2CADR    CALCN85
000360:


000362:                                                                                                  #  PROGRAM DESCRIPTION ** P47CSM **
000363:
000364: 24,2463                                           COUNT    24/P47
000365:
000366: 24,2463  E7,1412                                  EBANK=   TIG
000367: 24,2463           04662        P47CSM             TC       BANKCALL                              #  IMU STATUS CHECK
000368: 24,2464           17653                           CADR     R02BOTH
000369: 24,2465           06006                           TC       INTPRET
000370: 24,2466           77624                           CALRB
000371: 24,2467           27543                                    MIDTOAV2
000372: 24,2470           30155                           CA       MPAC       +1                         #  DELTA TIME TO RPEREAD (LESS THAN 1000
000373: 24,2471           55672                           TS       P40TMP                                #        CS, WITH A TPAGREE, INT.INIT.)
000374: 24,2472           05245                           TC       WAITLIST
000375: 24,2473  E7,1412                                  EBANK=   TIG
000376: 24,2473           02500 50067                     2CADR    TIGON                                 #  TIGON IS REQUIRED TO MATHCHTAT AND AVEG
000377:
000378: 24,2475           05412                           TC       PHASCHNG
000379: 24,2476           40574                           OCT      40574                                 #  A, 4.57 = TIGON (P40TMP CS)
000380: 24,2477           15217                           TCF      ENDOFJOB
000381:
000382: 24,2500  E7,1672                                  EBANK=   P40TMP
000383: 24,2500           00006        TIGON              EXTEND
000384: 24,2501           32456                           DCA      ACADN83
000385: 24,2502           53223                           DXCH     AVEGEXIT
000386: 24,2503           34371                           CAF      PRIO30                                #  FORCE ZEROING OF N83 BEFORE SERVICER
000387: 24,2504           05134                           TC       NOVAC
000388: 24,2505  E7,1412                                  EBANK=   TIG
000389: 24,2505           02534 50067                     2CADR    P47BODY
000390:
000391: 24,2507           45016                           CS       BIT2                                  #  4.2 = PRECHECK (-0CS), P47BODY (PRIO30)
000392: 24,2510           12566                           TCF      TTGPHS
000393:
000394: 24,2511  E7,1412                                  EBANK=   TIG
000395: 24,2511           06006        CALCN83            TC       INTPRET
000396: 24,2512           77601                           SETPD                                          #  SET UP PUSHLIST FOR S41.1
000397: 24,2513           00001                                    0
000398: 24,2514           53375                           VLOAD    VAD
000399: 24,2515           03665                                    DELVCTL
000400: 24,2516           03433                                    DELVREF
000401: 24,2517           03460                           STORE    DV47TEMP                              #  FOR COPYCYCLE BELOW
000402: 24,2520           45006                           PUSH     CALL
000403: 24,2521           45431                                    S41.1
000404: 24,2522           37675                           STCALL   DELVIMU
000405: 24,2523           70542                                    S11.1                                 #  CALC. VI, H, HDOT FOR NOUN 62
000406: 24,2524           77776                           EXIT
000407: 24,2525           05412                           TC       PHASCHNG
000408: 24,2526           10035                           OCT      10035


000410: 24,2527           35022                           CAF      FIVE
000411: 24,2530           05606                           TC       GENTRAN
000412: 24,2531           01457                           ADRES    DV47TEMP
000413: 24,2532           01664                           ADRES    DELVCTL
000414:
000415: 24,2533           03215                           TC       SERVXT
000416: 24,2534           06006        P47BODY            TC       INTPRET
000417: 24,2535           77775                           VLOAD
000418: 24,2536           15335                                    HI6ZEROS
000419: 24,2537           03675                           STORE    DELVIMU                               #  CLEAR DISPLAY AND ACCUMULATOR STORAGE
000420: 24,2540           03665                           STORE    DELVCTL                               #  UPON INITIATION OR-ENTER-RESPONSE
000421: 24,2541           77776                           EXIT
000422: 24,2542           35067        P47BOD             CAF      PRIO15                                #  LOWER PRIO THAN CALCN83 (20)
000423: 24,2543           05210                           TC       PRIOCHNG                              #        TO PREVENT INTERRUPTION OF CALCN83
000424: 24,2544           05412                           TC       PHASCHNG
000425: 24,2545           05024                           OCT      05024                                 #  TYPE C GROUP 4 BELOW FOR NOUN 83
000426: 24,2546           15000                           OCT      15000                                 #  PRIO 15
000427: 24,2547           32422        P47/DSP            CAF      V1683
000428: 24,2550           04662                           TC       BANKCALL
000429: 24,2551           20720                           CADR     GOFLASH
000430: 24,2552           04106                           TC       GOTOPOOH
000431: 24,2553           04106                           TC       GOTOPOOH
000432: 24,2554           12534                           TCF      P47BODY                               #  RECYCLE - CLEAR ACCUMULATED VELOCITY
000433:


000435:                                                                                                  #  ROUTINE ** TIG-30 ** DESCRIPTION
000436:
000437: 24,2555  E7,1412                                  EBANK=   TIG
000438: 24,2555                                           COUNT    24/P40
000439:
000440: 24,2555           02326        TIGAVEG            TC       P41/P40                               #  TASK (4.37 PROTECTS)
000441: 24,2556           12360                           TCF      P41REDSP                              #  P41
000442:
000443: 24,2557           32425                           CAF      V06N40                                #  UNBLANK DISPLAY
000444: 24,2560           55145                           TS       NVWORD1
000445:
000446: 24,2561           32414                           CAF      SEC24.96
000447: 24,2562           05245                           TC       WAITLIST
000448: 24,2563  E7,1412                                  EBANK=   TIG
000449: 24,2563           02574 50067                     2CADR    TIG-5
000450:
000451: 24,2565           46211                           CS       SIX                                   #  4.6 = TIG-5 (2496CS), PRECHECK (-0CS)
000452: 24,2566           04114        TTGPHS             TC       NEWPHASE                              #  ENTRY FROM P41REDSP (P41) WITH A=-4, OR
000453: 24,2567           00004                           OCT      4                                     #        FROM TIGON    (P47) WITH A=-2
000454:
000455: 24,2570           10763        PRECHECK           CCS      PHASE5                                #  HAS SERVICER BEEN RESTARTED
000456: 24,2571           15324                           TCF      TASKOVER                              #  YES, DONT START ANOTHER ONE
000457: 24,2572           04701                           TC       POSTJUMP
000458: 24,2573           76700                           CADR     PREREAD
000459:


000461:                                                                                                  #  ROUTINE ** TIG-5 ** DESCRIPTION
000462:
000463: 24,2574  E7,1412                                  EBANK=   TIG
000464: 24,2574           33064        TIG-5              CAF      5SEC
000465: 24,2575           05245                           TC       WAITLIST
000466: 24,2576  E6,1466                                  EBANK=   DAPDATR1
000467: 24,2576           02612 50066                     2CADR    TIG-0
000468:
000469: 24,2600           45007                           CS       BIT9                                  #  WILL CAUSE V99 FLASH
000470: 24,2601           55145                           TS       NVWORD1
000471:
000472: 24,2602           05372                           TC       2PHSCHNG
000473: 24,2603           40074                           OCT      40074                                 #  A, 4.7 = TIG-0 (500CS)
000474: 24,2604           00033                           OCT      00033                                 #  A, 3.3 = S40.13 (PRIO20)
000475:
000476: 24,2605           35002                           CAF      PRIO20
000477: 24,2606           05147                           TC       FINDVAC
000478: 24,2607  E7,1427                                  EBANK=   TGO
000479: 24,2607           02424 34067                     2CADR    S40.13
000480:
000481: 24,2611           15324                           TCF      TASKOVER
000482:


000484:                                                                                                  #  ROUTINES ** TIG-0 ** AND ** IGNITION ** DESCRIPTION
000485:
000486: 24,2612  E6,1466                                  EBANK=   DAPDATR1                              #  TASK, 4.7 PHASE, OR 4.77 (-0CS) IN R40
000487: 24,2612           40103        TIG-0              CS       FLAGWRD7                              #  SET IGN FLAG
000488: 24,2613           75003                           MASK     BIT13
000489: 24,2614           26103                           ADS      FLAGWRD7
000490:
000491: 24,2615           30103                           CAE      FLAGWRD7                              #  CHECK ASTN FLAG FOR V99 RESPONSE
000492: 24,2616           75004                           MASK     BIT12
000493: 24,2617           00006                           EXTEND
000494: 24,2620           15324                           BZF      TASKOVER                              #  WAIT FOR V99P
000495:
000496: 24,2621           32425                           CAF      V06N40                                #  CLEAR THE V99 (IN CASE OF A RESTART
000497: 24,2622           55145                           TS       NVWORD1                               #        DURING THE V99 SEQUENCE)
000498:
000499: 24,2623           05412                           TC       PHASCHNG                              #  V99P HAS COME ALREADY, DO IGNITION NOW
000500: 24,2624           00614                           OCT      00614                                 #  A, 4.61 = IGNITION (-0CS) TBASE OLD
000501:
000502: 24,2625           30032        IGNITION           CAE      CDUX                                  #  SAVE FOR ROLL DAP REFERENCE OGAD
000503: 24,2626           55450                           TS       OGAD                                  #        V99PJOB (CLOCKJOB) SETS UP IGNITION
000504: 24,2627           00006                           EXTEND                                         #        TASK (4.61 PROTECTION)
000505: 24,2630           30025                           DCA      TIME2                                 #        FOR RESTARTS
000506: 24,2631           53337                           DXCH     TEVENT
000507: 24,2632           40101                           CS       FLAGWRD5                              #  SET ENGONFLG
000508: 24,2633           75011                           MASK     BIT7
000509: 24,2634           26101                           ADS      FLAGWRD5
000510: 24,2635           35003        SPSON              CAF      BIT13                                 #  TURN ON SPS ENGINE
000511: 24,2636           00006                           EXTEND
000512: 24,2637           05011                           WOR      DSALMOUT
000513:
000514: 24,2640           35007        IMPULCHK           CAF      BIT9                                  #  CHECK FOR IMPULSIVE BURN
000515: 24,2641           70076                           MASK     FLAGWRD2
000516: 24,2642           10000                           CCS      A
000517: 24,2643           12733                           TCF      IMPLBURN                              #  IMPULSIVE
000518: 24,2644           40102                           CS       FLAGWRD6                              #  NON-IMPULSIVE, SET STRULLSW FOR STEERULL
000519: 24,2645           75003                           MASK     BIT13
000520: 24,2646           26102                           ADS      FLAGWRD6
000521:
000522: 24,2647           44105        PREPTVC            CS       OCT60000                              #  RESET T5 BITS
000523: 24,2650           70102                           MASK     FLAGWRD6
000524: 24,2651           54102                           TS       FLAGWRD6
000525:
000526: 24,2652           00006                           EXTEND                                         #  KILL RCS
000527: 24,2653           32433                           DCA      T5IDL24
000528: 24,2654           53313                           DXCH     T5LOC
000529:
000530: 24,2655           46214                           CS       THREE                                 #  4.3 = DOTVCON (40CS)
000531: 24,2656           04114                           TC       NEWPHASE
000532: 24,2657           00004                           OCT      4
000533:


000535: 24,2660           05267                           TC       FIXDELAY
000536: 24,2661           00050                           DEC      40         B-14                       #  0.4 SECOND DELAY FOR THRUST BUILDUP
000537:
000538: 24,2662           45017        DOTVCON            CS       BIT1                                  #  SET TVCPHASE = TVCDAPON CALL (FRESHDAP)
000539: 24,2663           55644                           TS       TVCPHASE
000540: 24,2664           35021                           CAF      ZERO                                  #  SET TVCEXECUTIVE PHASE
000541: 24,2665           55651                           TS       TVCEXPHS
000542: 24,2666           44105                           CS       OCT60000                              #  SET T5 BITS TO INDICATE TVC TAKEOVER ....
000543: 24,2667           70102                           MASK     FLAGWRD6                              #        BITS 15,14 = 10
000544: 24,2670           65001                           AD       BIT15
000545: 24,2671           54102                           TS       FLAGWRD6
000546:
000547: 24,2672           36214                           CAF      THREE                                 #  6.3 = CLOKTASK (100CS), DROPPING PRE40.6
000548: 24,2673           54001                           TS       L                                     #        WHICH IS HANDLED NOW BY REDOTVC
000549: 24,2674           40000                           COM
000550: 24,2675           52765                           DXCH     -PHASE6
000551:
000552: 24,2676           00006                           EXTEND                                         #  STORE RCS ATTITUDE ERRORS FOR USE IN
000553: 24,2677           41571                           DCS      ERRORY                                #  INITIALIZING TVC ATTITUDE ERRORS
000554: 24,2700           53703                           DXCH     ERRBTMP
000555:
000556: 24,2701           45022                           CS       FIVE                                  #  4.5 = DOSTRULL (160 CS)
000557: 24,2702           04114                           TC       NEWPHASE
000558: 24,2703           00004                           OCT      4
000559:
000560: 24,2704           34777                           CAF      POSMAX                                #  SET TIME5 FOR STARTING RIGHT AWAY
000561: 24,2705           54030                           TS       TIME5
000562: 24,2706           00006                           EXTEND
000563: 24,2707           33067                           DCA      TVCON2C                               #  (TVCDAPON)
000564: 24,2710           53313                           DXCH     T5LOC                                 #  (KILLS RCS DAP)
000565:
000566: 24,2711           05267                           TC       FIXDELAY                              #  0.4 + 1.6 = 2.0 SEC FOR ULLAGE-OFF AND
000567: 24,2712           00240                           DEC      160        B-14                       #        STEERING (IF NON-IMPULSIVE)
000568:
000569: 24,2713           35003        DOSTRULL           CAF      BIT13                                 #  CHECK STRULLSW FOR IMPULSIVE BURN
000570: 24,2714           70102                           MASK     FLAGWRD6
000571: 24,2715           10000                           CCS      A
000572: 24,2716           02724                           TCR      STEERULL                              #  NON-IMPULSIVE, STEERING AND ULLAGE OFF
000573: 24,2717           02727                           TCR      ULAGEOFF                              #  ULLAGE OFF (ONLY, OR AGAIN)
000574:
000575: 24,2720           00006                           EXTEND
000576: 24,2721           35021                           DCA      NEG0                                  #  KILL GROUP 4 (DP NEG0 = -0,+0)
000577: 24,2722           52761                           DXCH     -PHASE4
000578:
000579: 24,2723           15324        ENDIGN             TCF      TASKOVER
000580:
000581: 24,2724           40076        STEERULL           CS       FLAGWRD2                              #  SET STEERSW
000582: 24,2725           75005                           MASK     BIT11
000583: 24,2726           26076                           ADS      FLAGWRD2
000584:


000586:
000587: 24,2727           35021        ULAGEOFF           CAF      ZERO
000588: 24,2730           00006                           EXTEND
000589: 24,2731           01005                           WRITE    CHAN5                                 #  ZERO CHANNEL 5
000590: 24,2732           00002                           TC       Q
000591:
000592: 24,2733           45003        IMPLBURN           CS       BIT13                                 #  RESET STRULLSW (COULD BE AN IMPULSIVE
000593: 24,2734           70102                           MASK     FLAGWRD6                              #        ENGINE FAIL)
000594: 24,2735           54102                           TS       FLAGWRD6
000595:
000596: 24,2736           03366                           TCR      E7SETTER
000597:
000598: 24,2737  E7,1412                                  EBANK=   TIG
000599: 24,2737           00006                           EXTEND                                         #  PREPARE FOR R1 OF V06N40 (CLOCKTASK)
000600: 24,2740           31430                           DCA      TGO
000601: 24,2741           53413                           DXCH     TIG
000602: 24,2742           00006                           EXTEND
000603: 24,2743           30025                           DCA      TIME2
000604: 24,2744           21413                           DAS      TIG
000605:
000606: 24,2745           05372                           TC       2PHSCHNG
000607: 24,2746           40153                           OCT      40153                                 #  A,3.15 = ENGINOFF (TGO+1)....NOTE GROUP
000608: 24,2747           07014                           OCT      07014                                 #  C, DELTAT AND 2CADR FOLLOW FOR TASK BELO
000609: 24,2750           77777                           DEC      -0         B-14                       #  -0 CS
000610: 24,2751  E6,1466                                  EBANK=   DAPDATR1
000611: 24,2751           02757 50066                     2CADR    IMPLCONT
000612:
000613: 24,2753           31430                           CAE      TGO        +1                         #  (TPAGREE IN S40.13, LESS THAN 600CS)
000614: 24,2754           05245                           TC       WAITLIST
000615: 24,2755  E7,1427                                  EBANK=   TGO
000616: 24,2755           02766 50067                     2CADR    ENGINOFF
000617:
000618: 24,2757           45007        IMPLCONT           CS       BIT9                                  #  RESET IMPULSW, ENGINOFF IS NOW SET UP
000619: 24,2760           70076                           MASK     FLAGWRD2
000620: 24,2761           54076                           TS       FLAGWRD2
000621:
000622: 24,2762           03371                           TCR      E6SETTER
000623: 24,2763  E6,1466                                  EBANK=   DAPDATR1
000624:
000625: 24,2763           35021                           CAF      ZERO                                  #  SET UP V97VCNTR IN CASE ENGINOFF (MASS-
000626: 24,2764           55444                           TS       V97VCNTR                              #        BACK) ARRIVES BEFORE TVCDAPON
000627:
000628: 24,2765           12647                           TCF      PREPTVC
000629:
000630: 24,2766  E7,1427                                  EBANK=   TGO                                   #  E7 FORCED BY 3.15SPOT VARIABLE DELTA-T
000631: 24,2766           03371        ENGINOFF           TCR      E6SETTER                              #  TASK, 3.15 PHASE (TGO+1 CS)   GET E6
000632: 24,2767  E6,1466                                  EBANK=   DAPDATR1
000633: 24,2767           31474                           CAE      CSMMASS
000634: 24,2770           55652                           TS       MASSTMP                               #  COPYCYCLE FOR MASSBACK


000636: 24,2771           05372                           TC       2PHSCHNG
000637: 24,2772           00003                           OCT      00003                                 #  KILL GROUP 3 PROTECTION OF ENGINOFF, DO
000638: 24,2773           40634                           OCT      40634                                 #  A, 4.63 = DOSPSOFF (-0CS)
000639: 24,2774           03017        DOSPSOFF           TCR      SPSOFF                                #  SHUTDOWN SPS, MASS UPDATES, ETC.
000640: 24,2775           42427                           CS       OCT27/24                              #  (OCTAL 27)
000641: 24,2776           04114                           TC       NEWPHASE
000642: 24,2777           00004                           OCT      4                                     #  4.27 = DOTVCRCS (250 CS)
000643:
000644: 24,3000           05267                           TC       FIXDELAY                              #  2.5 SECOND DELAY FOR SPS TAILOFF
000645: 24,3001           00372                           DEC      250        B-14
000646:
000647: 24,3002           02320        DOTVCRCS           TCR      SETMAXDB                              #  WIDE DEADBAND FOR CUTOFF TRANSIENT
000648:
000649: 24,3003           04740                           TC       IBNKCALL                              #  SET UP RCS DAP (KILLS TVCDAPS, SETS T5
000650: 24,3004           42024                           CADR     RCSDAPON                              #        BITS, WAITS 0.6SEC FOR TVCEXEC DIE)
000651:
000652: 24,3005           04740                           TC       IBNKCALL                              #  UPDATE WEIGHT/G AND MASS-PROPERTIES FOR
000653: 24,3006           13366                           CADR     MASSPROP                              #        RCS DAP STARTUP IN 0.6 SECONDS
000654:
000655: 24,3007           03071                           TCR      TVCZAP                                #  WIPE OUT TVC, TURN OFF CLOKTASK
000656:
000657: 24,3010           05412                           TC       PHASCHNG
000658: 24,3011           00354                           OCT      00354                                 #  A, 4.35 = POSTBURN (NOVAC, PRIO12)
000659: 24,3012           34710                           CAF      PRIO12                                #  SET UP POSTBURN V16N40 JOB
000660: 24,3013           05134                           TC       NOVAC
000661: 24,3014  E6,1466                                  EBANK=   DAPDATR1                              #  (SET MAXDB IN POST41)
000662: 24,3014           02246 50066                     2CADR    POSTBURN
000663:
000664: 24,3016           15324                           TCF      TASKOVER
000665:
000666: 24,3017  E6,1466                                  EBANK=   DAPDATR1
000667: 24,3017           00006        SPSOFF             EXTEND                                         #  ESTABLISH SPSOFF TEVENT
000668: 24,3020           30025                           DCA      TIME2
000669: 24,3021           53337                           DXCH     TEVENT
000670: 24,3022           45011                           CS       BIT7                                  #  RESET ENGONFLG
000671: 24,3023           70101                           MASK     FLAGWRD5
000672: 24,3024           54101                           TS       FLAGWRD5                              #  (RESTARTS WILL SHUT DOWN SPS NOW)
000673: 24,3025           45003                           CS       BIT13                                 #  SHUT DOWN SPS ENGINE
000674: 24,3026           00006                           EXTEND
000675: 24,3027           03011                           WAND     DSALMOUT
000676:
000677: 24,3030           35002                           CAF      BIT14                                 #  ISSUE SIV CUTOFF COMMAND
000678: 24,3031           00006                           EXTEND                                         #  FOR POSSIBLE BACK-UP USE
000679: 24,3032           05012                           WOR      CHAN12
000680: 24,3033           31444        MASSBACK           CAE      V97VCNTR                              #  RESTORE PART OF PRE-DECREMENTED MASS
000681:                                                                                                  #        V97VCNTR = VCNTR UNLESS V97 IS
000682:                                                                                                  #        ACTIVE.  ONLY V97VCNTR IS THEN RIGHT
000683: 24,3034           00006                           EXTEND                                         #  VCNTR COUNTS 1/2-SECONDS IN TVC EXEC
000684: 24,3035           70110                           MP       EMDOT                                 #        MDOT, SC.AT B+3 KG/CS
000685: 24,3036           22000                           LXCH     A


000687: 24,3037           00006                           EXTEND
000688: 24,3040           75041                           MP       1SEC                                  #  DEC 100
000689: 24,3041           61652                           AD       MASSTMP                               #  CORRECTION IS ACCURATE TO 5 CS OF FLOW
000690: 24,3042           55474                           TS       CSMMASS                               #        (1.44 KG OR 0.4 BITS)
000691:
000692: 24,3043           31644                           CA       TVCPHASE                              #  CHECK IF OK FOR TRIM UPDATE
000693: 24,3044           65017                           AD       ONE                                   #        THESE CHECKS ARE ONLY NEEDED
000694: 24,3045           00006                           EXTEND                                         #        FOR A LESS THAN 0.4 SEC BURN
000695: 24,3046           13057                           BZF      BTRIMR                                #  NO.  INITIALIZATION NOT COMPLETE
000696: 24,3047           40102                           CS       FLAGWRD6                              #  YES, CHECK IF TVC
000697: 24,3050           74105                           MASK     OCT60000
000698: 24,3051           00006                           EXTEND
000699: 24,3052           63057                           BZMF     BTRIMR                                #  NO, NOT TVC YET
000700: 24,3053           31601        BESTTRIM           CAE      DELPBAR                               #  UPDATE TRIMS WITH DELFILTER VALUES
000701: 24,3054           55423                           TS       PACTOFF
000702: 24,3055           31603                           CAE      DELYBAR
000703: 24,3056           55424                           TS       YACTOFF
000704: 24,3057           00002        BTRIMR             TC       Q
000705: 24,3060  E6,1466                                  EBANK=   DAPDATR1
000706: 24,3060           03205 50066  STEERADS           2CADR    STEERING
000707:
000708: 24,3062           37703        .6SECT5            OCT      37703
000709: 24,3063           00000        5SECDP             DEC      0          B-14                       #  MAKE DP 5SEC
000710: 24,3064           00764        5SEC               DEC      500        B-14
000711: 24,3065           02202        OCT02202           OCT      02202                                 #  BITS 2, 8, 11 FOR CHANNEL 12 TVC/OPTICS
000712: 24,3066  E6,1466                                  EBANK=   DAPDATR1
000713: 24,3066           02153 36066  TVCON2C            2CADR    TVCDAPON
000714:
000715: 24,3070           00004                 -1        INHINT
000716: 24,3071           43065        TVCZAP             CS       OCT02202                              #  DISABLE TVC AND OPT ERR CNTRS, REENGAGE
000717: 24,3072           00006                           EXTEND                                         #        OPTICS DAC
000718: 24,3073           03012                           WAND     CHAN12
000719: 24,3074           45017                           CS       BIT1                                  #  ENABLE T4RUPT OPTICS MONITOR .... PERMIT
000720: 24,3075           55303                           TS       OPTIND                                #        OPTICS-ZERO BUT NOT OPTICS-DRIVE
000721: 24,3076           35021                           CAF      ZERO                                  #  CLEAR NVWORD1 IN CASE CLOCKJOB WAITING
000722: 24,3077           55145                           TS       NVWORD1
000723: 24,3100           45005                           CS       BIT11                                 #  CLEAR TIMRFLAG TO STOP CLOKTASK
000724: 24,3101           70103                           MASK     FLAGWRD7
000725: 24,3102           54103                           TS       FLAGWRD7
000726: 24,3103           00002                           TC       Q
000727: 24,3104  E6,1466                                  EBANK=   DAPDATR1
000728: 24,3104           43020        UPDATEVG           STQ      BON
000729: 24,3105           03730                                    QTEMP1
000730: 24,3106           01307                                    XDELVFLG
000731: 24,3107           51133                                    CALL40.8
000732:
000733: 24,3110           50135                           SLOAD    BMN
000734: 24,3111           03343                                    NBRCYCLS
000735: 24,3112           51137                                    SETUP.9


000737:
000738: 24,3113           53375                           VLOAD    VAD
000739: 24,3114           03345                                    DELVSUM
000740: 24,3115           03433                                    DELVREF
000741: 24,3116           03353                           STORE    DELVSUMP
000742: 24,3117           77776                           EXIT
000743: 24,3120           35017                           CA       ONE
000744: 24,3121           61742                           AD       NBRCYCLS
000745: 24,3122           55743                           TS       NBRCYCLP
000746:
000747: 24,3123           05412                           TC       PHASCHNG                              #  TYPE B RESTART BELOW AND 5.3 REREADACCS
000748: 24,3124           10035                           OCT      10035
000749:
000750: 24,3125           31743                           CA       NBRCYCLP
000751: 24,3126           55742                           TS       NBRCYCLS
000752: 24,3127           06006                           TC       INTPRET
000753: 24,3130           77775                           VLOAD
000754: 24,3131           03353                                    DELVSUMP
000755: 24,3132           03345                           STORE    DELVSUM
000756:
000757: 24,3133           77624        CALL40.8           CALL
000758: 24,3134           34150                                    S40.8
000759: 24,3135           77650                           GOTO
000760: 24,3136           03730                                    QTEMP1
000761:
000762: 24,3137           67214        SETUP.9            BON      SLOAD
000763: 24,3140           01310                                    FIRSTFLG
000764: 24,3141           51154                                    SURELY.9
000765: 24,3142           03344                                    NBRCYCLP
000766: 24,3143           74301                           NORM     VXSC                                  #  (NORM HANDLES ZERO PROPERLY)
000767: 24,3144           00047                                    X1
000768: 24,3145           03705                                    BDT
000769: 24,3146           53257                           VSR*     VAD
000770: 24,3147           20563                                    0          -14D,1
000771: 24,3150           03646                                    VGTEMP
000772: 24,3151           77651                           VSU
000773: 24,3152           03345                                    DELVSUM
000774: 24,3153           03721                           STORE    VGPREV
000775: 24,3154           77776        SURELY.9           EXIT
000776: 24,3155           35003                           CAF      PRIO10
000777: 24,3156           05147                           TC       FINDVAC
000778: 24,3157  E6,1466                                  EBANK=   DAPDATR1
000779: 24,3157           02277 34066                     2CADR    S40.9
000780:
000781: 24,3161           05372                           TC       2PHSCHNG
000782: 24,3162           00051                           OCT      00051                                 #  A, 1.5 = REDO40.9, PRIO 10
000783: 24,3163           10035                           OCT      10035
000784: 24,3164           06006                           TC       INTPRET
000785: 24,3165           77775                           VLOAD
000786: 24,3166           01171                                    RN                                    #  ACTIVE VEHICLE RADIUS VECTOR AT T1
000787: 24,3167           27570                           STOVL    RINIT


000789: 24,3170           01177                                    VN                                    #  ACTIVE VEHICLE VELOCITY VECTOR AT T1
000790: 24,3171           17576                           STODL    VINIT
000791: 24,3172           01205                                    PIPTIME
000792: 24,3173           03474                           STORE    TNIT
000793: 24,3174           77621                           BDSU
000794: 24,3175           03656                                    TPASS4
000795: 24,3176           27423                           STOVL    DELLT4
000796: 24,3177           15335                                    HI6ZEROS
000797: 24,3200           17345                           STODL    DELVSUM
000798: 24,3201           15335                                    HI6ZEROS
000799: 24,3202           03343                           STORE    NBRCYCLS
000800: 24,3203           77650                           GOTO
000801: 24,3204           51133                                    CALL40.8
000802: 24,3205  E6,1466                                  EBANK=   DAPDATR1
000803: 24,3205           06006        STEERING           TC       INTPRET
000804: 24,3206           77624                           CALL
000805: 24,3207           51104                                    UPDATEVG
000806: 24,3210           77776                           EXIT
000807: 24,3211           35007                           CAF      BIT9                                  #  CHECK IMPULSW
000808: 24,3212           70076                           MASK     FLAGWRD2
000809: 24,3213           10000                           CCS      A
000810: 24,3214           13217                           TCF      +3                                    #  PRE-IGNITE, REQUEST ENG-OFF, OR POST-OFF
000811: 24,3215           04701        SERVXT             TC       POSTJUMP
000812: 24,3216           77226                           CADR     SERVEXIT
000813: 24,3217           35003                           CAF      BIT13                                 #  CHECK ENGINE-ON/-OFF
000814: 24,3220           00006                           EXTEND
000815: 24,3221           02011                           RAND     DSALMOUT
000816: 24,3222           00006                           EXTEND
000817: 24,3223           13215                           BZF      SERVXT                                #  ENGINE-OFF, SO PRE-IGNITE OR POST-OFF
000818: 24,3224           03366                           TCR      E7SETTER
000819: 24,3225  E7,1412                                  EBANK=   TIG
000820: 24,3225           00004                           INHINT
000821: 24,3226           00006                           EXTEND
000822: 24,3227           31413                           DCA      TIG
000823: 24,3230           52155                           DXCH     MPAC
000824: 24,3231           00006                           EXTEND
000825: 24,3232           40025                           DCS      TIME2
000826: 24,3233           20155                           DAS      MPAC
000827: 24,3234           07224                           TCR      DPAGREE
000828: 24,3235           30155                           CAE      MPAC       +1                         #  (LESS THAN 6 (OR 4) SECONDS TO GO)
000829: 24,3236           10000                           CCS      A                                     #  PROTECT AGAINST NEG/ZRO W.L. CALL
000830: 24,3237           13242                           TCF      +3
000831: 24,3240           13242                           TCF      +2
000832: 24,3241           35021                           CAF      ZERO
000833: 24,3242           65017                           AD       ONE
000834: 24,3243           56001                           XCH      L
000835: 24,3244           35021                           CA       ZERO
000836: 24,3245           53430                           DXCH     TGO
000837: 24,3246           31430                           CA       TGO        +1
000838: 24,3247           05245                           TC       WAITLIST


000840: 24,3250  E7,1427                                  EBANK=   TGO
000841: 24,3250           02766 50067                     2CADR    ENGINOFF
000842:
000843: 24,3252           05372                           TC       2PHSCHNG
000844: 24,3253           40153                           OCT      40153                                 #  A, 3.15 = ENGINOFF (TGO+1) .... NOTE GROUP
000845: 24,3254           10035                           OCT      10035                                 #  B, 5.3 = REREADAC, AND START BELOW
000846: 24,3255           05560                           TC       DOWNFLAG                              #  CLEAR IMPULSW, ENGINOFF IS NOW SET UP
000847: 24,3256           00044                           ADRES    IMPULSW                               #  RESTARTS OK
000848: 24,3257           13215                           TCF      SERVXT
000849:


000851:                                                                                                  #  ROUTINE ** CLOKTASK ** DESCRIPTION
000852:
000853: 24,3260  E7,1412                                  EBANK=   TIG
000854: 24,3260           35005        CLOKTASK           CAF      BIT11                                 #  IS TIMRFLAG SET
000855: 24,3261           70103                           MASK     FLAGWRD7
000856: 24,3262           10000                           CCS      A
000857: 24,3263           13267                           TCF      CLOCKON
000858: 24,3264           05412                           TC       PHASCHNG
000859: 24,3265           00006                           OCT      00006                                 #  KILL RESTART
000860: 24,3266           05324                           TC       TASKOVER
000861:
000862: 24,3267           00006        CLOCKON            EXTEND
000863: 24,3270           30025                           DCA      TIME2
000864: 24,3271           53661                           DXCH     TTOGO
000865: 24,3272           00006                           EXTEND
000866: 24,3273           41413                           DCS      TIG
000867: 24,3274           21661                           DAS      TTOGO
000868:
000869: 24,3275           35041        SETCLOCK           CAF      1SEC
000870: 24,3276           05245                           TC       WAITLIST
000871: 24,3277  E7,1412                                  EBANK=   TIG
000872: 24,3277           03260 50067                     2CADR    CLOKTASK
000873:
000874: 24,3301           11145                           CCS      NVWORD1
000875: 24,3302           13305                           TCF      +3
000876: 24,3303           13315                           TCF      SETTB6
000877:
000878: 24,3304           13305                           TCF      +1
000879: 24,3305           42423                           CS       V06N85B                               #  CHECK FOR V06N85B (P41)
000880: 24,3306           61145                           AD       NVWORD1
000881: 24,3307           00006                           EXTEND
000882: 24,3310           13320                           BZF      SETUPDYN                              #  V06N85, SO UPDATE N85 FOR DYNAMIC DISP
000883:
000884: 24,3311           37664                           CAF      PRIO27
000885: 24,3312           05134                           TC       NOVAC
000886: 24,3313  E6,1466                                  EBANK=   DAPDATR1
000887: 24,3313           03332 50066                     2CADR    CLOCKJOB
000888:
000889: 24,3315           40025        SETTB6             CS       TIME1                                 #  SET GROUP6 TIMEBASE
000890: 24,3316           55065                           TS       TBASE6
000891: 24,3317           15324                           TCF      TASKOVER
000892:
000893: 24,3320           37664        SETUPDYN           CAF      PRIO27                                #  SET UP A JOB TO UPDATE N85 (FOR P41=V06)
000894: 24,3321           05147                           TC       FINDVAC
000895: 24,3322  E6,1466                                  EBANK=   DAPDATR1
000896: 24,3322           03325 50066                     2CADR    DYNDISP
000897:
000898: 24,3324           13315                           TCF      SETTB6                                #  CLOSE OUT CLOCKTASK


000900: 24,3325           06006        DYNDISP            TC       INTPRET                               #  UPDATE N85 FOR A DYNAMIC V06N85 IN P41.
000901: 24,3326           77624                           CALL                                           #        PRIOR TO BLANKING AND AVEG (V16N85)
000902: 24,3327           50370                                    P40CNV85
000903: 24,3330           77776                           EXIT
000904: 24,3331           13342                           TCF      CKNVWRD1
000905:


000907:                                                                                                  #  ROUTINE ** CLOCKJOB ** DESCRIPTION
000908:
000909: 24,3332  E6,1466                                  EBANK=   DAPDATR1
000910: 24,3332           30032        CLOCKJOB           CA       CDUX
000911: 24,3333           54772                           TS       CDUSPOTX
000912: 24,3334           30033                           CA       CDUY
000913: 24,3335           54766                           TS       CDUSPOTY
000914: 24,3336           30034                           CA       CDUZ
000915: 24,3337           54770                           TS       CDUSPOTZ
000916: 24,3340           04662                           TC       BANKCALL
000917: 24,3341           47555                           CADR     QUICTRIG
000918: 24,3342           00004        CKNVWRD1           INHINT
000919: 24,3343           11145                           CCS      NVWORD1                               #  DETERMINE FUNCTION, INDICATED BY NVWORD1
000920: 24,3344           13363                           TCF      NOFLASH
000921: 24,3345           15217                           TCF      ENDOFJOB
000922: 24,3346           13355                           TCF      ENGREQST                              #  SPS ENGINE-ON-ENABLE V99 FLASH
000923: 24,3347           32425        FAILDSP            CAF      V06N40                                #  SPS ENGINE-FAILED V97 FLASH
000924: 24,3350           04662                           TC       BANKCALL
000925: 24,3351           20715                           CADR     CLOCPLAY
000926: 24,3352           13432                           TCF      V97T                                  #  TERMINATE
000927: 24,3353           13465                           TCF      V97P                                  #  PROCEED
000928: 24,3354           13514                           TCF      V97E                                  #  ENTER
000929:
000930: 24,3355           32425        ENGREQST           CAF      V06N40
000931: 24,3356           04662                           TC       BANKCALL
000932: 24,3357           20715                           CADR     CLOCPLAY
000933: 24,3360           13402                           TCF      V99T                                  #  TERMINATE
000934: 24,3361           13410                           TCF      V99P                                  #  PROCEED
000935: 24,3362           13374                           TCF      V99E                                  #  ENTER
000936:
000937: 24,3363           31145        NOFLASH            CAE      NVWORD1                               #  DISPLAY NVWORD1 NORMALLY
000938: 24,3364           04662                           TC       BANKCALL
000939: 24,3365           20707                           CADR     REGODSP
000940:
000941: 24,3366           35060        E7SETTER           CAF      EBANK7
000942: 24,3367           54003                           TS       EBANK
000943: 24,3370  E7,1412                                  EBANK=   TIG
000944: 24,3370           00002                           TC       Q
000945:
000946: 24,3371           35057        E6SETTER           CAF      EBANK6                                #  SET UP EBANK6
000947: 24,3372           54003                           TS       EBANK
000948: 24,3373  E6,1466                                  EBANK=   DAPDATR1
000949: 24,3373           00002                           TC       Q
000950:
000951: 24,3374  E6,1466                                  EBANK=   DAPDATR1
000952: 24,3374           05372        V99E               TC       2PHSCHNG
000953: 24,3375           00006                           OCT      00006                                 #  KILL PRE40.6/CLOKTASK PROTECTION
000954: 24,3376           05024                           OCT      05024                                 #  C, PRIORITY NEXT, JOB BELOW


000956: 24,3377           27000                           OCT      27000
000957: 24,3400           03070        V99EJOB            TCR      TVCZAP     -1                         #  WIPE OUT TVC, CLOKTASK
000958: 24,3401           12254                           TCF      P40RCS                                #  V16N85 POST-BURN OPERATIONS
000959:
000960: 24,3402  E6,1466                                  EBANK=   DAPDATR1
000961: 24,3402           05372        V99T               TC       2PHSCHNG                              #  (ENTRY FROM V97T FLOW TOO)
000962: 24,3403           00006                           OCT      00006                                 #  KILL PRE40.6/CLOKTASK PROTECTION
000963: 24,3404           05024                           OCT      05024                                 #  C, PRIORITY NEXT, JOB BELOW
000964: 24,3405           27000                           OCT      27000
000965: 24,3406           03070        V99TJOB            TCR      TVCZAP     -1                         #  WIPE OUT TVC, CLOKTASK
000966: 24,3407           12275                           TCF      POST41                                #  AVEGEXIT, SETMAXDB, GOTOPOOH
000967:
000968: 24,3410           00004        V99P               INHINT
000969: 24,3411           30103                           CAE      FLAGWRD7                              #  CHECK ASTN FLAG FOR PRIOR V99P
000970: 24,3412           75004                           MASK     BIT12
000971: 24,3413           10000                           CCS      A
000972: 24,3414           13427                           TCF      V99P/TIG                              #  YES, THIS MUST BE A RESTART ENTRY
000973:
000974: 24,3415           35004        ASTNV99P           CAF      BIT12                                 #  SET ASTN FLAG
000975: 24,3416           26103                           ADS      FLAGWRD7
000976: 24,3417           30103                           CAE      FLAGWRD7                              #  CHECK IGN FLAG FOR TIG-0 ARRIVAL
000977: 24,3420           75003                           MASK     BIT13
000978: 24,3421           00006                           EXTEND
000979: 24,3422           13427                           BZF      V99P/TIG                              #  NO, CLEAR THE V99 AND WAIT FOR TIG-0
000980:
000981: 24,3423           35017        ENDV99PI           CAF      BIT1                                  #  TIG-0 HAS COME ALREADY
000982: 24,3424           05245                           TC       WAITLIST                              #  SET UP IGNITION HERE
000983: 24,3425  E6,1466                                  EBANK=   DAPDATR1
000984: 24,3425           02625 50066                     2CADR    IGNITION
000985:
000986: 24,3427           32425        V99P/TIG           CAF      V06N40                                #  CLEAR THE V99 FLASH AND WAIT FOR TIG-0
000987: 24,3430           55145                           TS       NVWORD1
000988: 24,3431           15217        ENDV99P            TCF      ENDOFJOB
000989:
000990: 24,3432  E6,1474                                  EBANK=   CSMMASS
000991: 24,3432           05372        V97T               TC       2PHSCHNG
000992: 24,3433           00006                           OCT      00006                                 #  KILL GROUP 6 (CLOKTASK)
000993: 24,3434           40674                           OCT      40674                                 #  A, 4.67 = V97TTASK (-0 CS), TBASE NOW
000994: 24,3435           35017                           CAF      BIT1
000995: 24,3436           05235                           TC       TWIDDLE
000996: 24,3437           03441                           ADRES    V97TTASK                              #  KEEP EBANK6 FOR MASSES, SPSOFF, ETC.
000997: 24,3440           15217                           TCF      ENDOFJOB
000998:
000999: 24,3441  E6,1474                                  EBANK=   CSMMASS
001000: 24,3441           35021        V97TTASK           CAF      ZERO                                  #  DISABLE CLOCKJOB
001001: 24,3442           55145                           TS       NVWORD1
001002: 24,3443           32434                           CAF      3MDOT                                 #  3 SECONDS OF MDOT (2-4 SEC ENGFAIL
001003: 24,3444           61474                           AD       CSMMASS                               #        DETECTION) NOT LOST BECAUSE THRUST
001004: 24,3445           55652                           TS       MASSTMP                               #        FAILED.  COPYCYCLE FOR MASSBACK


001006: 24,3446           05412                           TC       PHASCHNG
001007: 24,3447           05014                           OCT      05014                                 #  C, DELTAT NEXT, TASK BELOW, IN
001008: 24,3450           77777                           DEC      -0         B-14                       #  -0 CS
001009:
001010: 24,3451           03017                           TCR      SPSOFF                                #  SHUTDOWN SPS ENGINE, MASS UPDATE, ETC.
001011: 24,3452           05412                           TC       PHASCHNG
001012: 24,3453           00714                           OCT      00714                                 #  A, 4.71 = V97TRCS (250 CS), TBASE OLD
001013: 24,3454           05267                           TC       FIXDELAY                              #  DELAY 2.5 SECONDS FOR (POSSIBLE) TAIL-
001014: 24,3455           00372                           DEC      250        B-14                       #        OFF (FALSE THRUST-LOSS)
001015:
001016: 24,3456  E6,1466                                  EBANK=   DAPDATR1
001017: 24,3456           04740        V97TRCS            TC       IBNKCALL                              #  RCS DAP IN 0.6SEC, SETTING T5 BITS TO
001018: 24,3457           42024                           CADR     RCSDAPON                              #        KILL TVCEXEC/TVCROLLDAP STARTS
001019: 24,3460           37664                           CAF      PRIO27                                #  SET UP V99T FOR TVCZAP AND POST41 (SET-
001020: 24,3461           05134                           TC       NOVAC                                 #        MAXDB AND GOTOPOOH)
001021: 24,3462  E6,1466                                  EBANK=   DAPDATR1                              #  EBANK6 FOR SETMAXDB IN POST41
001022: 24,3462           03402 50066                     2CADR    V99T
001023:
001024: 24,3464           15324        ENDV97T            TCF      TASKOVER
001025:
001026: 24,3465  E6,1444                                  EBANK=   V97VCNTR
001027: 24,3465           05412        V97P               TC       PHASCHNG
001028: 24,3466           40734                           OCT      40734                                 #  A, 4.73 = V97PTASK (-0 CS), TBASE NOW
001029: 24,3467           35017                           CAF      BIT1
001030: 24,3470           05235                           TC       TWIDDLE
001031: 24,3471           03473                           ADRES    V97PTASK
001032: 24,3472           15217                           TCF      ENDOFJOB
001033:
001034: 24,3473  E6,1444                                  EBANK=   V97VCNTR
001035: 24,3473           31444        V97PTASK           CAE      V97VCNTR                              #  GET MASS UPDATES (TVCEXEC) GOING AGAIN
001036: 24,3474           55643                           TS       VCNTR                                 #        (ERRORS IF FLASE THRUST-LOSS AND/OR
001037:                                                                                                  #        POOR SYNCH OF MANUAL ENGINE-ON AND
001038:                                                                                                  #        THE VERB 97 PROCEED)
001039: 24,3475           32425                           CAF      V06N40                                #  REDISPLAY V06N40
001040: 24,3476           55145                           TS       NVWORD1
001041: 24,3477           05546                           TC       UPFLAG                                #  SET IDLEFAIL TO ALLOW R41-BYPASS, IN
001042: 24,3500           00030                           ADRES    IDLEFAIL                              #        CASE OF UNFAVORABLE S40.8 SYNCH
001043: 24,3501           05546                           TC       UPFLAG                                #  SET STEERSW TO RE-ENABLE STEERING
001044: 24,3502           00042                           ADRES    STEERSW
001045: 24,3503           05412                           TC       PHASCHNG
001046: 24,3504           00134                           OCT      00134                                 #  A, 4.13 = R40ENABL (200 CS), TBASE OLD
001047: 24,3505           05267                           TC       FIXDELAY                              #  WAIT 2 SECONDS, THEN
001048: 24,3506           00310                           DEC      200        B-14
001049:
001050: 24,3507  E7,1777                                  EBANK=   WHOCARES
001051: 24,3507           05560        R40ENABL           TC       DOWNFLAG                              #  RE-ENABLE R40 BY CLEARING IDLEFAIL
001052: 24,3510           00030                           ADRES    IDLEFAIL
001053: 24,3511           05412                           TC       PHASCHNG
001054: 24,3512           00004                           OCT      00004                                 #  KILL GROUP 4


001056: 24,3513           15324        ENDV97P            TCF      TASKOVER
001057:
001058: 24,3514  E7,1777                                  EBANK=   WHOCARES
001059: 24,3514           05412        V97E               TC       PHASCHNG
001060: 24,3515           40534                           OCT      40534                                 #  A, 4.53 = V97ETASK (-0 CS), TBASE NOW
001061: 24,3516           35017                           CAF      BIT1
001062: 24,3517           05245                           TC       WAITLIST
001063: 24,3520  E7,1412                                  EBANK=   TIG
001064: 24,3520           03523 50067                     2CADR    V97ETASK
001065:
001066: 24,3522           15217                           TCF      ENDOFJOB
001067:
001068: 24,3523  E7,1412                                  EBANK=   TIG
001069: 24,3523           44112        V97ETASK           CS       OCT24                                 #  FORCE R1 OF V06N40 TO READ  59X59
001070: 24,3524           55412                           TS       TIG
001071: 24,3525           32425                           CAF      V06N40                                #  REDISPLAY V06N40
001072: 24,3526           55145                           TS       NVWORD1
001073: 24,3527           03371                           TCR      E6SETTER                              #  RETURN TO EBANK6 FOR REST OF V97ETASK
001074: 24,3530  E6,1474                                  EBANK=   CSMMASS
001075: 24,3530           32434                           CAF      3MDOT                                 #  3 SECONDS OF MDOT (2-4 SEC ENGFAIL
001076: 24,3531           61474                           AD       CSMMASS                               #        DETECTION) NOT LOST BECAUSE THRUST
001077: 24,3532           55652                           TS       MASSTMP                               #        FAILED....COPYCYCLE FOR MASSBACK
001078: 24,3533           05412                           TC       PHASCHNG
001079: 24,3534           00754                           OCT      00754                                 #  A, 4.75 = SPSOFF97 (-0 CS), TBASE OLD
001080: 24,3535           03017        SPSOFF97           TCR      SPSOFF
001081: 24,3536           05412                           TC       PHASCHNG
001082: 24,3537           00114                           OCT      00114                                 #  A, 4.11 = V97E40.6 (250 CS), TBASE OLD
001083: 24,3540           05267                           TC       FIXDELAY                              #  DELAY 2.5 SECONDS FOR (POSSIBLE) TAIL-
001084: 24,3541           00372                           DEC      250        B-14                       #        OFF (FALSE THRUST-LOSS)
001085:
001086: 24,3542  E6,1466                                  EBANK=   DAPDATR1
001087: 24,3542           35017        V97E40.6           CAF      BIT1
001088: 24,3543           05245                           TC       WAITLIST
001089: 24,3544  E6,1447                                  EBANK=   CNTR
001090: 24,3544           02241 40066                     2CADR    PRE40.6                               #  USE S40.6 RESTART ENTRY TO TRIM ENGINE
001091:
001092: 24,3546           04740                           TC       IBNKCALL                              #  RCS DAP IN 0.6SEC, SETTING T5 BITS TO
001093: 24,3547           42024                           CADR     RCSDAPON                              #        KILL TVCEXEC/TVCROLLDAP STARTS.
001094:                                                                                                  #        LEAVE NARROW DEADBAND FOR REIGNITE
001095:
001096: 24,3550           05372                           TC       2PHSCHNG
001097: 24,3551           00026                           OCT      00026                                 #  A, 6.2 = PRE40.6 (-0 CS), CLOKTASK (1 SEC)
001098: 24,3552           05014                           OCT      05014                                 #  C, DELTAT NEXT, TASK BELOW, IN
001099: 24,3553           77777                           DEC      -0         B-14                       #  -0 CS
001100:
001101: 24,3554           45066        QUICKIGN           CS       PRIO14                                #  CLEAR ASTNFLAG AND SET IGNFLAG FOR
001102: 24,3555           70103                           MASK     FLAGWRD7                              #        IMMEDIATE V99 RESPONSE
001103: 24,3556           65003                           AD       BIT13
001104: 24,3557           54103                           TS       FLAGWRD7
001105: 24,3560           05267                           TC       FIXDELAY                              #  DELAY TO ALLOW TIME FOR PRE40.6


001107: 24,3561           00036                           DEC      30         B-14
001108:
001109: 24,3562           45007        V99FLASH           CS       BIT9                                  #  CAUSE V99 TO FLASH
001110: 24,3563           55145                           TS       NVWORD1
001111: 24,3564           05372                           TC       2PHSCHNG
001112: 24,3565           40774                           OCT      40774                                 #  A, 4.77 = TIG-0 (-0 CS) TBASE FOR PREPTVC
001113: 24,3566           00033                           OCT      00033                                 #  A, 3.3 = S40.13 (PRIO 20)
001114: 24,3567           35002                           CAF      PRIO20                                #  SET UP TIMEBURN
001115: 24,3570           05147                           TC       FINDVAC
001116: 24,3571  E7,1427                                  EBANK=   TGO
001117: 24,3571           02424 34067                     2CADR    S40.13
001118:
001119: 24,3573           15324        ENDV97E            TCF      TASKOVER                              #  WAIT FOR CLOCKJOB (IMMEDIATE) REACTION
001120:                                                                                                  #        TO FLASHING V99 RESPONSE
001121:
001122:                                                                                                  #  MOD NO2                               LOG SECTION P40-P47
001123:                                                                                                  #  MOD BY ZELDIN
001124:
001125:                                                                                                  #  FUNCTIONAL DESCRIPTION
001126:                                                                                                  #        COMPUTE INITIAL THRUST DIRECTION(UT) AND INITIAL VALUE OF VG
001127:                                                                                                  #        VECTOR(VGTIG).
001128:
001129:                                                                                                  #  CALLING SEQUENCE
001130:                                                                                                  #        L       CALL
001131:                                                                                                  #        L+1             S40.1
001132:
001133:                                                                                                  #  NORMAL EXIT MODE
001134:                                                                                                  #        AT L+2 OF CALLING SEQUENCE (GOTO L+2) NORMAL RETURN OR
001135:                                                                                                  #        ERROR RETURN IF NOSOFLAG =1
001136:
001137:                                                                                                  #  SUBROUTINES CALLED
001138:                                                                                                  #        CSMPREC
001139:                                                                                                  #        INITVEL
001140:                                                                                                  #        CALCGRAV
001141:                                                                                                  #        MIDGIM
001142:
001143:                                                                                                  #  ALARM OR ABORT EXIT MODES
001144:                                                                                                  #        L+2 OF CALLING SEQUENCE, UNSOLVABLE CONIC IF NOSOFLAG=1
001145:
001146:                                                                                                  #  ERASABLE INITIALIZATION REQUIRED
001147:                                                                                                  #        WEIGHT/G        ANTICIPATED MAG. OF VEHICLE MASS        SP B16 KGM
001148:                                                                                                  #        XDELVFLG        1=DELTA-V MANEUVER, 0=AIMPT STEER
001149:                                                                                                  #    IF DELTA-V MANEUVER
001150:                                                                                                  #        DELVSIN         SPECIFIED DELTA-V REQUIRED IN
001151:                                                                                                  #                        INERTIAL COORDS. OF ACTIVE VEHICLE
001152:                                                                                                  #                        AT TIME OF IGNITION             VECTOR B7 M/CS
001153:                                                                                                  #        DELVSAB         MAG. OF DELVSIN                 DP B7 M/CS
001154:                                                                                                  #        RTIG            POSITION AT TIME OF IGNITION    VECTOR B29 M
001155:                                                                                                  #        VTIG            VELOCITY AT TIME OF IGNITION    VECTOR B7 M/CS
001156:                                                                                                  #        CSTEER = 0                                      DP
001157:                                                                                                  #    IF AIMPOINT STEERING
001158:                                                                                                  #    IF AIMPT STEER
001159:                                                                                                  #        TIG             TIME OF IGNITION                DP B28 CS
001160:                                                                                                  #        RTARG           POSITION TARGET TIME            VECTOR B29 M
001161:                                                                                                  #        CSTEER = ECSTEER (GR 0)                         DP B1


001163:                                                                                                  #        TPASS4 - TIME OF ARRIVAL AT AIMPOINT
001164:
001165:                                                                                                  #  OUTPUT
001166:                                                                                                  #        UT              1/2 UNIT VECTOR ALIGNED WITH THRUST DIRECTION IN REF COOR
001167:                                                                                                  #        VGTIG           INITIAL VALUE OF VELOCITY
001168:                                                                                                  #                        TO BE GAINED (INERT. COORD.)            VECTOR B7 M/CS
001169:                                                                                                  #        DELVLVC         VGTIG IN LOC. VERT. COORDS.             B7 M/CS
001170:                                                                                                  #        F               NOMINAL THRUST FOR ENG USED FOR S40.13  DP B7 M-NEWT
001171:                                                                                                  #        BDT             V REQUIRED AT TIG -V REQUIRED AT (TIG-2SEC)
001172:                                                                                                  #        -GDT            FOR S40.13                              VECT B7 M/CS
001173:                                                                                                  #        RTIG            CALC IN S40.1B (AIMPT) FOR S40.2,3      VECTOR B29M
001174:                                                                                                  #                        POSITION AT TIME OF IGNITION
001175:
001176:                                                                                                  #  DEBRIS        QTEMP1
001177:                                                                                                  #                MPAC, QPRET
001178:                                                                                                  #                PUSHLIST
001179:                                                                                                  #                RTX2,RTX1
001180:
001181: 14,2011                                           BANK     14
001182: 16,2000                                           SETLOC   P40S1
001183: 16,2000                                           BANK
001184:
001185: 16,2020                                           COUNT    16/S40.1
001186:
001187: 16,2020           77214        S40.1              SET      VLOAD
001188: 16,2021           01070                                    FIRSTFLG
001189: 16,2022           11563                                    LO6ZEROS
001190: 16,2023           03705                           STORE    BDT
001191: 16,2024           43020                           STQ      BOF
001192: 16,2025           03657                                    QTEMP
001193: 16,2026           01347                                    XDELVFLG
001194: 16,2027           34113                                    S40.1B                                #  LAMBERT


001260: 16,2030           45001                           SETPD    CALL                                  #  EXTERNAL DELTA V
001261: 16,2031           00001                                    0
001262: 16,2032           35715                                    S40.1A                                #  JUMP TO END OF BANK TO CALCULATE DELVSAB
001263:                                                                                                  #        THUS PERMITTING MODULE-ONLY CHANGE
001264: 16,2033           03576                           STORE    VINIT
001265: 16,2034           53435                           VXV      UNIT
001266: 16,2035           03632                                    RTIG
001267: 16,2036           27713                           STOVL    UT                                    #  UP IN UT
001268: 16,2037           03632                                    RTIG
001269: 16,2040           03570                           STORE    RINIT
001270: 16,2041           65236                           VSQ      PDDL
001271: 16,2042           00045                                    36D
001272: 16,2043           56205                           DMP      DDV
001273: 16,2044           34147                                    THETACON
001274: 16,2045           41205                           DMP      DMP
001275: 16,2046           03654                                    DELVSAB
001276: 16,2047           03076                                    WEIGHT/G
001277: 16,2050           77671                           DDV


001279: 16,2051           03727                                    F
001280: 16,2052           24017                           STOVL    14D
001281: 16,2053           03646                                    DELVSIN
001282:
001283: 16,2054           74241                           DOT      VXSC
001284: 16,2055           03713                                    UT
001285: 16,2056           03713                                    UT
001286: 16,2057           41552                           VSL2     PUSH                                  #  (DELTAV.UP)UP SCALED AT 2(+7) P.D.L. 0
001287: 16,2060           65245                           BVSU     PDDL                                  #  DELTA VP SCALED AT 2(+7) P.D.L. 6
001288: 16,2061           03646                                    DELVSIN
001289: 16,2062           00017                                    14D
001290: 16,2063           63356                           SIN      PDVL
001291: 16,2064           00007                                    6D
001292: 16,2065           53435                           VXV      UNIT
001293: 16,2066           03713                                    UT
001294: 16,2067           45561                           VXSC     STADR
001295: 16,2070           50056                           STOVL    VGTIG                                 #  UNIT(VPXUP)SIN(THETAT) IN VGTIG
001296: 16,2071           65256                           UNIT     PDDL                                  #  UNIT(DELTA VP) IN P.D.L. 6
001297: 16,2072           00017                                    14D
001298: 16,2073           74346                           COS      VXSC
001299: 16,2074           74255                           VAD      VXSC
001300: 16,2075           03721                                    VGTIG
001301: 16,2076           00045                                    36D
001302: 16,2077           53352                           VSL2     VAD
001303: 16,2100           77626                           STADR
001304: 16,2101           74056                           STORE    VGTIG                                 #  VG IGNITION SCALED AT 2(+7) M/CS
001305:
001306: 16,2102           77656                           UNIT
001307: 16,2103           27713                           STOVL    UT                                    #  THRUST DIRECTION SCALED AT 2(+1)
001308: 16,2104           03721                                    VGTIG
001309: 16,2105           43006                           PUSH     SET
001310: 16,2106           01072                                    AVFLAG
001311: 16,2107           77624                           CALL
001312: 16,2110           10647                                    MIDGIM                                #  VGTIG IN LV COOR AT 2(+7)M/CS IN DELVLVC
001313: 16,2111           77650                           GOTO
001314: 16,2112           03657                                    QTEMP
001315: 16,2113           45345        S40.1B             DLOAD    DSU                                   #  LAMBERT
001316: 16,2114           03413                                    TIG
001317: 16,2115           36001                                    TWODT
001318: 16,2116           14041                           STODL    TDEC1
001319: 16,2117           03656                                    TPASS4
001320: 16,2120           77625                           DSU
001321: 16,2121           00041                                    TDEC1
001322: 16,2122           37423                           STCALL   DELLT4
001323: 16,2123           61651                                    AGAIN
001324: 16,2124           77775                           VLOAD
001325: 16,2125           03612                                    VIPRIME
001326: 16,2126           17713                           STODL    UT
001327: 16,2127           03413                                    TIG
001328: 16,2130           00041                           STORE    TDEC1


001330: 16,2131           77621                           BDSU
001331: 16,2132           03656                                    TPASS4
001332: 16,2133           37423                           STCALL   DELLT4
001333: 16,2134           61651                                    AGAIN
001334: 16,2135           41575                           VLOAD    PUSH
001335: 16,2136           03646                                    DELVEET3
001336: 16,2137           03721                           STORE    VGTIG
001337: 16,2140           45014                           SET      CALL
001338: 16,2141           01072                                    AVFLAG
001339: 16,2142           10647                                    MIDGIM
001340: 16,2143           52001                           SETPD    GOTO
001341: 16,2144           00001                                    0
001342: 16,2145           61704                                    CALCUT
001343:
001344: 16,2146           00024 13714  THETACON           2DEC     .31830989  B-8
001345:
001346: 30,2000                                           SETLOC   P40S3
001347: 30,2000                                           BANK
001348:
001349: 30,3645                                           COUNT    24/S40.1
001350:
001351: 30,3645           04000 00000  EP4(45)H           2DEC     .125
001352:
001353: 30,3647           00707 03434  EP4(10)H           2DEC     .027777777
001354:
001355: 30,3651           45020        AGAIN              STQ      CALL
001356: 30,3652           03730                                    QTEMP1
001357: 30,3653           27071                                    THISPREC
001358: 30,3654           66134                           SXA,2    SXA,1
001359: 30,3655           03746                                    RTX2
001360: 30,3656           03745                                    RTX1
001361: 30,3657           77775                           VLOAD
001362: 30,3660           00001                                    RATT
001363: 30,3661           03632                           STORE    RTIG
001364: 30,3662           27570                           STOVL    RINIT
001365: 30,3663           00007                                    VATT
001366: 30,3664           03640                           STORE    VTIG
001367: 30,3665           03576                           STORE    VINIT
001368: 30,3666           67201                           SETPD    SLOAD
001369: 30,3667           00001                                    0
001370: 30,3670           15335                                    HI6ZEROS
001371: 30,3671           43125                           PDDL     BON
001372: 30,3672           21646                                    EP4(45)H
001373: 30,3673           03705                                    NORMSW
001374: 30,3674           61677                                    +3
001375: 30,3675           77745                           DLOAD
001376: 30,3676           21650                                    EP4(10)H
001377: 30,3677           45006                           PUSH     CALL
001378: 30,3700           22000                                    INITVEL
001379: 30,3701           52001                           SETPD    GOTO


001381: 30,3702           00001                                    0
001382: 30,3703           03730                                    QTEMP1
001383: 30,3704           45175        CALCUT             VLOAD    CALL
001384: 30,3705           03632                                    RTIG
001385: 30,3706           77352                                    CALCGRAV                              #  GDELTAT IN MPAC AT 2(+7) M/CS
001386: 30,3707           70372                           VSL1     V/SC
001387: 30,3710           21747                                    200CS                                 #  G AT 2(-5) M/CS. CS
001388: 30,3711           52315                           PDVL     VSU
001389: 30,3712           03612                                    VIPRIME
001390: 30,3713           03713                                    UT
001391: 30,3714           52341                           V/SC     VSU
001392: 30,3715           21747                                    200CS
001393: 30,3716           72561                           VXSC     VSL2
001394: 30,3717           03703                                    CSTEER
001395: 30,3720           24015                           STOVL    12D                                   #  B.C SCALED AT 2(-5) PDL 12D
001396: 30,3721           03721                                    VGTIG
001397: 30,3722           41456                           UNIT     PUSH                                  #  UG PDL 0 SCALED AT 2(+1)
001398:
001399: 30,3723           74241                           DOT      VXSC
001400: 30,3724           00015                                    12D
001401: 30,3725           00001                                    0
001402: 30,3726           51352                           VSL2     BVSU
001403: 30,3727           00015                                    12D
001404: 30,3730           14015                           STODL    12D                                   #  Q PDL 12D SCALED AT 2(-5)
001405: 30,3731           03727                                    F
001406: 30,3732           56261                           SRR      DDV
001407: 30,3733           21605                                    4
001408: 30,3734           03076                                    WEIGHT/G
001409: 30,3735           63316                           DSQ      PDVL                                  #  F/MASS SQUARED PDL 6 AT 2(-10)M/(CS.CS)
001410: 30,3736           00015                                    12D
001411: 30,3737           77636                           VSQ
001412: 30,3740           75421                           BDSU     SQRT
001413: 30,3741           76561                           VXSC     VSL1
001414: 30,3742           53455                           VAD      UNIT
001415: 30,3743           00015                                    12D
001416: 30,3744           37713                           STCALL   UT
001417: 30,3745           03657                                    QTEMP
001418: 30,3746           01440 00000  200CS              2DEC     200        B-12
001419:


001421:                                                                                                  #  PROGRAM DESCRIPTION S40.2,3           DATE 15,NOV,66
001422:                                                                                                  #  MOD NO 2                              LOG SECTION P40-P47
001423:                                                                                                  #  MOD BY ZELDIN
001424:
001425:                                                                                                  #  FUNCTIONAL DESCRIPTION
001426:                                                                                                  #
001427:                                                                                                  #        COMPUTE GIMBAL ANGLES IF THRUSTING OCCURRED WITH PRESENT IMU
001428:                                                                                                  #        ORIENTATION, WINGS LEVEL SPACECRAFT, HEADS UP
001429:                                                                                                  #        COMPUTE X AXIS OF ENGINE BELL
001430:                                                                                                  #        COMPUTE PREFERRED IMU ORIENTATION (XSCREF)
001431:                                                                                                  #        FOR THIS CALCULATION, ASSUME X AXIS OF SC ALONG UT INITIALLY,
001432:                                                                                                  #        YSC=UNIT(XXR), ZSC=UNIT(XX(XXR)) AND ROTATE ENGINE BELL ALONG UT
001433:                                                                                                  #        NEW SC AXES WILL BE APPROX. WINGS LEVEL AND NEW SC AXES IN REF.
001434:                                                                                                  #        COORDS. WILL BE PREFERRED IMU ORIENTATION.
001435:                                                                                                  #        COMPUTE DESIRED THRUST DIRECTION IN SM COORDS.
001436:
001437:                                                                                                  #  CALLING SEQUENCE
001438:                                                                                                  #        L       CALL
001439:                                                                                                  #        L+1             S40.2,3
001440:
001441:                                                                                                  #  NORMAL EXIT MODE
001442:                                                                                                  #        AT L+2 OF CALLING SEQUENCE (GOTO L+2)
001443:
001444:                                                                                                  #  SUBROUTINES CALLED
001445:                                                                                                  #        CALCGA
001446:
001447:                                                                                                  #  ALARM OR ABORT MODES
001448:                                                                                                  #        NONE
001449:
001450:                                                                                                  #  ERASABLE INITIALIZATION REQUIRED
001451:                                                                                                  #        PACTOFF         TOTAL PITCH TRIM ANGLE          SP AT 1.0795111 REV.
001452:                                                                                                  #        YACTOFF         TOTAL YAW   TRIM ANGLE          SP AT 1.0795111 REV.
001453:                                                                                                  #        UT              DESIRED THRUST DIRECTION        VECT. B2 M/(CS.CS)
001454:                                                                                                  #        RTIG            POSITION AT TIME OF IGNITION    VECT. B29 M
001455:                                                                                                  #        ENG2FLAG        ON=RCS  OFF=SPS
001456:
001457:                                                                                                  #  OUTPUT
001458:                                                                                                  #        SCAXIS          UNIT VECT. ALIGNED WITH ENG BELL IN SC COOR     B1
001459:                                                                                                  #        XSCREF          UNIT VECTORS ALIGNED WITH PREFERRED IMU         B1
001460:                                                                                                  #        YSCREF
001461:                                                                                                  #        ZSCREF
001462:                                                                                                  #        GIMBAL ANGLES IN THETAD
001463:                                                                                                  #        POINTVSM        UNIT VECT ALONG DESIRED THRUST DIRECTION IN SM  B1
001464:
001465:                                                                                                  #  DEBRIS
001466:                                                                                                  #        PUSHLIST, QPRET, MPAC
001467:                                                                                                  #        QTEMP   TEMP. ERASABLE
001468:
001469: 24,3574                                           BANK     24
001470: 24,2000                                           SETLOC   P40S
001471: 24,2000                                           BANK
001472: 24,3574                                           COUNT*   $$/S40.2
001473: 24,3574           64375        S40.2,3            VLOAD    MXV
001474: 24,3575           03713                                    UT
001475: 24,3576           01736                                    REFSMMAT
001476: 24,3577           44172                           VSL1     STQ
001477: 24,3600           03657                                    QTEMP
001478: 24,3601           03357                           STORE    POINTVSM                              #  THRUST IN SM AT 2
001479: 24,3602           43001                           SETPD    BON
001480: 24,3603           00001                                    0


001482: 24,3604           00704                                    ENG2FLAG
001483: 24,3605           51715                                    S40.2,3B
001484: 24,3606           77745                           DLOAD
001485: 24,3607           15335                                    HI6ZEROS
001486: 24,3610           67206                           PUSH     SLOAD                                 #  ZERO PDL 0
001487: 24,3611           03025                                    YACTOFF
001488: 24,3612           72405                           DMP      SL1
001489: 24,3613           11754                                    TRIMSCAL
001490: 24,3614           41415                           DAD      PUSH
001491: 24,3615           11756                                    YBIAS
001492: 24,3616           65346                           COS      PDDL                                  #  COS(Y +Y0) PDL 2
001493: 24,3617           41556                           SIN      PUSH                                  #  SIN(Y +Y0) PDL 4
001494: 24,3620           77735                           SLOAD
001495: 24,3621           03024                                    PACTOFF
001496: 24,3622           72405                           DMP      SL1
001497: 24,3623           11754                                    TRIMSCAL
001498: 24,3624           41415                           DAD      PUSH
001499: 24,3625           11760                                    PBIAS
001500: 24,3626           65346                           COS      PDDL                                  #  COS(P +P0) PDL 6
001501: 24,3627           41556                           SIN      PUSH                                  #  SIN(P +P0) PDL 8D
001502: 24,3630           14323                           STODL    ZSCREF                                #  SIN(P +P0)
001503: 24,3631           00007                                    6
001504: 24,3632           72405                           DMP      SL1
001505: 24,3633           00005                                    4
001506: 24,3634           65276                           DCOMP    PDDL                                  #  -SIN(Y+Y0)COS(P+P0) PDL 10
001507: 24,3635           00007                                    6
001508: 24,3636           72405                           DMP      SL1
001509: 24,3637           00003                                    2
001510: 24,3640           77666                           VDEF
001511:
001512: 24,3641           14307                           STODL    XSCREF                                #  PD POINTER AT 6 NEW SC X AXIS SCALED AT
001513: 24,3642           00323                                    ZSCREF
001514: 24,3643           72405                           DMP      SL1
001515: 24,3644           00005                                    4
001516: 24,3645           41325                           PDDL     DMP
001517: 24,3646           00323                                    ZSCREF
001518: 24,3647           00003                                    2
001519: 24,3650           57552                           SL1      DCOMP
001520: 24,3651           77666                           VDEF
001521:
001522: 24,3652           14323                           STODL    ZSCREF                                #  PD POINTER AT 4 NEW SC Z AXIS SCALED AT 2
001523: 24,3653           77666                           VDEF
001524:
001525: 24,3654           14315                           STODL    YSCREF                                #  PD POINTER AT 0 NEW SC Y AXIS SCALED AT 2
001526: 24,3655           00323                                    ZSCREF
001527: 24,3656           65325                           PDDL     PDDL
001528: 24,3657           00315                                    YSCREF
001529: 24,3660           00307                                    XSCREF
001530: 24,3661           77666                           VDEF


001532: 24,3662           27351                           STOVL    SCAXIS                                #  ENGINE BELL SCALED AT 2
001533: 24,3663           03713                                    UT
001534: 24,3664           53515                           PDVL     UNIT
001535: 24,3665           03632                                    RTIG
001536: 24,3666           57435                           VXV      VCOMP
001537: 24,3667           00001                                    0
001538: 24,3670           41456                           UNIT     PUSH
001539: 24,3671           77624                           CALL
001540: 24,3672           51734                                    TSTRXUT
001541: 24,3673           57435                           VXV      VCOMP
001542: 24,3674           00001                                    0
001543: 24,3675           63372                           VSL1     PDVL                                  #  2 RF/SC IN PDL 12D
001544: 24,3676           00307                                    XSCREF
001545: 24,3677           76505                           VXM      VSL1
001546: 24,3700           00001                                    0
001547: 24,3701           24307                           STOVL    XSCREF                                #  X OF PREF IMU,X OF SC IN REF COOR. AT 2
001548: 24,3702           00315                                    YSCREF
001549: 24,3703           76505                           VXM      VSL1
001550: 24,3704           00001                                    0
001551: 24,3705           24315                           STOVL    YSCREF                                #  Y OF PREF.IMU,Y OF SC IN REF COOR. AT 2
001552: 24,3706           00323                                    ZSCREF
001553: 24,3707           76505                           VXM      VSL1
001554: 24,3710           00001                                    0
001555: 24,3711           00323                           STORE    ZSCREF                                #  Z OF PREF. IMU,Z OF SC IN REF COOR. AT 2
001556: 24,3712           52001                           SETPD    GOTO
001557: 24,3713           00001                                    0
001558: 24,3714           03657                                    QTEMP
001559: 24,3715           77775        S40.2,3B           VLOAD
001560: 24,3716           15333                                    UNITX
001561: 24,3717           27351                           STOVL    SCAXIS
001562: 24,3720           03713                                    UT
001563: 24,3721           00307                           STORE    XSCREF
001564: 24,3722           53435                           VXV      UNIT
001565: 24,3723           03632                                    RTIG
001566: 24,3724           34007                           STCALL   6D
001567: 24,3725           51734                                    TSTRXUT
001568: 24,3726           00315                           STORE    YSCREF
001569: 24,3727           57435                           VXV      VCOMP
001570: 24,3730           00307                                    XSCREF
001571: 24,3731           77772                           VSL1
001572: 24,3732           34323                           STCALL   ZSCREF                                #  ZNB AXIS IN REF COOR
001573: 24,3733           03657                                    QTEMP
001574: 24,3734           46145        TSTRXUT            DLOAD    BHIZ
001575: 24,3735           00045                                    36D
001576: 24,3736           51741                                    BADVCTOR
001577: 24,3737           43575                           VLOAD    RVQ
001578: 24,3740           00007                                    6D
001579: 24,3741           53575        BADVCTOR           VLOAD    UNIT
001580: 24,3742           03632                                    RTIG
001581: 24,3743           53515                           PDVL     UNIT


001583: 24,3744           03640                                    VTIG
001584: 24,3745           53322                           VSR3     VAD
001585: 24,3746           53435                           VXV      UNIT
001586: 24,3747           03713                                    UT
001587: 24,3750           77676                           VCOMP
001588: 24,3751           00007                           STORE    6D
001589: 24,3752           77616                           RVQ
001590: 24,3753           21215 12215  TRIMSCAL           2DEC     1.07975111 B-1
001591:
001592: 24,3755           00053 07423  YBIAS              2DEC     +.00263888889                            #  YAW   MECH BIAS (+0.95 DEG, THRUST ON)
001593:
001594: 24,3757           77636 44653  PBIAS              2DEC     -.00597222222                            #  PITCH MECH BIAS (-2.15 DEG, THRUST ON)
001595:
001596:                                                                                                  #  REFERENCE, TRW 68.6520.3.3-40 27 FEB, 1968
001597:
001598:                                                                                                  #  PROGRAM DESCRIPTION S41.1             DATE 8 DEC 66
001599:                                                                                                  #  MOD NO 1                              LOG SECTION P40-P47
001600:                                                                                                  #  MOD BY ZELDIN
001601:
001602:                                                                                                  #  FUNCTIONAL DESCRIPTION
001603:
001604:                                                                                                  #        COMPUTE VELOCITY TO BE GAINED INITIALLY IN REF COORDS.
001605:                                                                                                  #        TO CONTROL COORDS.
001606:
001607:                                                                                                  #  CALLING SEQUENCE
001608:
001609:                                                                                                  #        L       CALL
001610:                                                                                                  #        L+1             S41.1
001611:
001612:                                                                                                  #  NORMAL EXIT MODE
001613:                                                                                                  #
001614:                                                                                                  #        AT L +2 OF CALLING SEQUENCE
001615:
001616:                                                                                                  #  SUBROUTINES CALLED:
001617:
001618:                                                                                                  #        CALCSMSC
001619:                                                                                                  #        CDUTRIG
001620:
001621:                                                                                                  #  ALARM OR ABORT MODES
001622:
001623:                                                                                                  #        NONE
001624:
001625:                                                                                                  #  ERASABLE INITIALIZATION REQUIRED
001626:
001627:                                                                                                  #        VG IN REF. COORD. PDL L POINTER AT L+5.  S41.1 WILL RETURN WITH
001628:                                                                                                  #        POINTER AT L (L MUST BE LESS THAN OR = TO 14D)
001629:
001630:                                                                                                  #  OUTPUT
001631:
001632:                                                                                                  #        MPAC CONTAINS VG IN CONTROL COORDS              VECT. B7 M/CS
001633:
001634:                                                                                                  #  DEBRIS:
001635:
001636:                                                                                                  #        QTEMP           TEMP ERASABLE
001637:                                                                                                  #        QPRET
001638:
001639: 24,3761                                           COUNT    22/S41.1
001640:
001641: 22,2000                                           SETLOC   P40S5
001642: 22,2000                                           BANK
001643:
001644: 22,3431           45020        S41.1              STQ      CALL
001645: 22,3432           03657                                    QTEMP
001646: 22,3433           47477                                    CDUTRIG
001647: 22,3434           77775                           VLOAD
001648: 22,3435           45121                           MXV      CALL
001649: 22,3436           01736                                    REFSMMAT
001650: 22,3437           47644                                    *SMNB*


001652: 22,3440           74321                           MXV      VXSC
001653: 22,3441           05003                                    QUADROT
001654: 22,3442           05446                                    TENBNK14                              #  VG IN CONTROL COORD IN MPAC SCALED AT
001655: 22,3443           52072                           VSL5     GOTO                                  #  VG IN CONTROL COORDS. IN MPAC AT 2(+7)
001656: 22,3444           03657                                    QTEMP
001657: 22,3445           24000 00000  TENBNK14           2DEC     10.        B-4
001658:


001660:                                                                                                  #  NAME          S40.8 - CROSS PRODUCT STEERING
001661:                                                                                                  #  FUNCTION      (1) UPDATES THE VELOCITY-TO-BE-GAINED VECTOR.
001662:                                                                                                  #                (2) GENERATES ANGULAR RATE STEERING COMMANDS FOR AUTOPILOT.
001663:                                                                                                  #                (3) ESTABLISHES ENGINE CUT-OFF SIGNALS AT APPROPRIATE TIMES.
001664:                                                                                                  #                (4) INITIATES THRUST-FAIL ROUTINE, R40
001665:                                                                                                  #  CALLING SEQ   CALL S40.8
001666:                                                                                                  #  INPUT         VGPREV  -       LAST VALUE OF THE VELOCITY-TO-BE-GAINED VECTOR
001667:                                                                                                  #                                PRIOR TO UPDATING IN METERS/CS AT +7.
001668:                                                                                                  #                DELVREF -       CHANGE IN VEHICLE VELOCITY SINCE LAST MEASUMEMENT
001669:                                                                                                  #                                IN METERS/CS AT +7.
001670:                                                                                                  #                BDT     -       EFFECT OF RATE OF CHANGE OF REQUIRED VELOCITY AND
001671:                                                                                                  #                                GRAVITY DURING DT UPON VELOCITY-TO-BE-GAINED IN
001672:                                                                                                  #                                METERS/CS AT +7.
001673:                                                                                                  #                CSTEER  -       A SCALAR OF THE STEERING LAW, SC.AT B+1, USED FOR
001674:                                                                                                  #                                SPS AIMPOINT STEERING MANEUVERS
001675:                                                                                                  #                IDLEFAIL -      A FLAG TO INHIBIT (IDLE) THE THRUST-FAIL ROUTINE
001676:                                                                                                  #                STEERSW -       A SWITCH TO PRECLUDE NEEDLESS CONDUCT OF STEERING
001677:                                                                                                  #                REFSMMAT, DAPDATR1, PIPTIME
001678:                                                                                                  #                EREPFRAC, ETDECAY, KPRIMEDT FOR TVC
001679:                                                                                                  #  OUTPUT        TTOGO   -       TIME REMAINING FOR ENGINE BURN IN CS AT +28
001680:                                                                                                  #                OMEGAC  -       DP VECTOR RATE COMMAND, SC.AT 1/(2TVCDT) REVS/SEC
001681:                                                                                                  #                VG, VGPREV, VGDISP, TGO, TIG, SCALED AS NOTED IN CODING
001682:                                                                                                  #                STEERSW, IMPULSW, NVWORD1
001683:                                                                                                  #                REPFRAC, CNTR, VCNTR, VCNTRTMP FOR TVC (R40 INTERFACING)
001684:                                                                                                  #  DEBRIS        OMEGAXC, +1
001685:                                                                                                  #  SUBROUTINES USED      -       *SMNB*, ALARM
001686:
001687: 16,2000                                           SETLOC   P40S1
001688: 16,2000                                           BANK
001689: 16,2150  E6,1466                                  EBANK=   DAPDATR1
001690: 16,2150                                           COUNT    16/S40.8
001691:
001692: 16,2150           44001        S40.8              SETPD    STQ
001693: 16,2151           00001        SPBIT1                      00D
001694: 16,2152           03657                                    QTEMP
001695: 16,2153           51375                           VLOAD    BVSU                                  #  CONSTRUCT DELVG, SC.AT B+7 M/CS
001696: 16,2154           03433                                    DELVREF
001697: 16,2155           03705                                    BDT
001698: 16,2156           77655                           VAD
001699: 16,2157           03721                                    VGPREV
001700: 16,2160           03460                           STORE    VG                                    #  VELOCITY-TO-BE-GAINED, SC.AT B+7 M/CS
001701:
001702: 16,2161           77646                           ABVAL
001703: 16,2162           03773                           STORE    VGDISP                                #  FOR DISPLAY PURPOSES
001704: 16,2163           77776                           EXIT
001705: 16,2164           05412                           TC       PHASCHNG
001706: 16,2165           10035                           OCT      10035                                 #  TYPE B RESTART BELOW AND 5.3 REREADAC
001707:
001708: 16,2166           06006                           TC       INTPRET
001709: 16,2167           77775                           VLOAD


001711: 16,2170           03460                                    VG
001712: 16,2171           03721                           STORE    VGPREV
001713: 16,2172           77214                           BOFF     VLOAD
001714: 16,2173           01344                                    STEERSW                               #  SKIP TGO AND CROSS-PRODUCT
001715: 16,2174           03657                                    QTEMP
001716: 16,2175           03433                                    DELVREF
001717: 16,2176           41446                           ABVAL    PUSH                                  #  CHECK FOR LOTHRUST
001718: 16,2177           41335                           SLOAD    DMP
001719: 16,2200           01354                                    DVTHRESH                              #  SC.AT B-2 M/CS
001720: 16,2201           36011                                    DPB-9
001721: 16,2202           77621                           BDSU
001722: 16,2203           77440                           BMN      EXIT
001723: 16,2204           40222                                    LOTHRUST
001724: 16,2205           31466                           CAE      DAPDATR1                              #  ENABLE TVCDAP CG TRACKING
001725: 16,2206           75002                           MASK     BIT14
001726: 16,2207           10000                           CCS      A
001727: 16,2210           35017                           CAF      BIT1
001728: 16,2211           50000                           INDEX    A                                     #  LM-OFF, LM-ON VALUE
001729: 16,2212           31421                           CAE      EREPFRAC
001730: 16,2213           55642                           TS       REPFRAC
001731:
001732: 16,2214           06006                           TC       INTPRET
001733: 16,2215           51375        TGOCALC            VLOAD    BVSU                                  #  GET DELVG
001734: 16,2216           03433                                    DELVREF
001735: 16,2217           03705                                    BDT
001736: 16,2220           77656                           UNIT
001737: 16,2221           41441                           DOT      PUSH                                  #  (00D)
001738: 16,2222           03460                                    VG
001739: 16,2223           56244                           BPL      DDV                                   #  ANGLE SHOULD BE GREATER THAN PI/2
001740: 16,2224           40214                                    INCRSVG                               #        DISPLAY ALARM IF NOT
001741: 16,2225           36005                                    2VEXHUST
001742: 16,2226           41215                           DAD      DMP                                   #  (DOT PRODUCT UP FROM 00D)
001743: 16,2227           11561                                    LODPHALF
001744: 16,2230           70501                           NORM     SR1
001745: 16,2231           00047                                    X1
001746: 16,2232           60325                           PDDL     NORM
001747: 16,2233           00045                                    36D                                   #  (MAG DELVG)
001748: 16,2234           00050                                    X2
001749: 16,2235           77665                           BDDV
001750: 16,2236           53664                           XSU,2    SL*
001751: 16,2237           00046                                    X1
001752: 16,2240           57607                                    0          -9D,2
001753: 16,2241           41405                           DMP      PUSH                                  #  (00D)
001754: 16,2242           36003                                    -FOURDT
001755: 16,2243           54335                           SLOAD    SR
001756: 16,2244           03013                                    ETDECAY                               #  ETDECAY SC.AT B+14 CS
001757: 16,2245           20617                                    14D
001758: 16,2246           45421                           BDSU     STADR
001759: 16,2247           74347                           STORE    TGO                                   #  TIME TO GO IN CS. AT +28
001760: 16,2250           77615                           DAD


001762: 16,2251           01205                                    PIPTIME
001763: 16,2252           17413                           STODL    TIG
001764: 16,2253           03430                                    TGO
001765: 16,2254           50025                           DSU      BMN
001766: 16,2255           36007                                    FOURSEC
001767: 16,2256           40201                                    S40.81
001768:
001769: 16,2257           74375        XPRODUCT           VLOAD    VXSC
001770: 16,2260           03705                                    BDT
001771: 16,2261           03703                                    CSTEER
001772: 16,2262           52352                           VSL2     VSU
001773: 16,2263           03433                                    DELVREF
001774: 16,2264           63256                           UNIT     PDVL
001775: 16,2265           03460                                    VG
001776: 16,2266           47256                           UNIT     VXV
001777: 16,2267           45121                           MXV      CALL
001778: 16,2270           01736                                    REFSMMAT                              #  (REFSMMAT/2)
001779: 16,2271           47644                                    *SMNB*
001780: 16,2272           77761                           VXSC
001781: 16,2273           03235                                    KPRIMEDT                              #  (KPRIMEDT SCIAT PI/8 RAD)
001782: 16,2274           03126        OMEGACLC           STORE    OMEGAC
001783: 16,2275           77650                           GOTO
001784: 16,2276           03657                                    QTEMP
001785:
001786: 17,2000                                           SETLOC   DAPS7
001787: 17,2000                                           BANK
001788: 17,2000                                           COUNT    17/S40.8
001789:
001790: 17,2000           00000 00310  TWODT              2DEC     200.0      B-28                       #  2 SEC
001791:
001792: 17,2002           77715 77777  -FOURDT            2DEC     -800       B-18                       #  -4(200CS), SC.AT B+18CS (-4 FOR SCALING)
001793:
001794: 17,2004           17602 25124  2VEXHUST           2DEC     63.020792  B-7                        #  2(10338.0564 FPS), SC.AT B+7 M/CS
001795:
001796: 17,2006           00000 00620  FOURSEC            2DEC     400.0      B-28                       #  4 SEC
001797:
001798: 17,2010           00040 00000  DPB-9              2DEC     1          B-9
001799:
001800: 20,2000                                           SETLOC   DAPS6
001801: 20,2000                                           BANK
001802:
001803: 20,2201                                           COUNT    20/S40.8
001804:
001805: 20,2201           77214        S40.81             SET      VLOAD                                 #  TGO LESS THAN 4 SECONDS
001806: 20,2202           01066                                    IMPULSW                               #  FOR ENGINE-OFF CALL
001807: 20,2203           15335                                    HI6ZEROS
001808: 20,2204           03126        RATEZRO            STORE    OMEGAC                                #  TVC TO ATTITUDE HOLD
001809: 20,2205           77776                           EXIT
001810: 20,2206           34777                           CAF      POSMAX                                #  INHIBIT SWITCHOVER/TVC EG TRACKING
001811: 20,2207           55447                           TS       CNTR


001813: 20,2210           06006                           TC       INTPRET
001814: 20,2211           52014                           CLEAR    GOTO
001815: 20,2212           01264                                    STEERSW                               #  RESTARTS OK
001816: 20,2213           03657                                    QTEMP
001817: 20,2214           77776        INCRSVG            EXIT                                           #  ALARM INDICATING THAT THRUST IS POINTING
001818: 20,2215           05650                           TC       ALARM                                 #  IN WRONG DIRECTION.
001819: 20,2216           01407                           OCT      01407
001820: 20,2217           06006                           TC       INTPRET
001821: 20,2220           77650                           GOTO
001822: 20,2221           03657                                    QTEMP
001823:
001824: 20,2222           77214        LOTHRUST           BON      VLOAD                                 #  THRUST FAILURE (LO-OR-NO) INDICATED
001825: 20,2223           00711                                    IDLEFAIL                              #  SET BY V97P.  ALLOWS 1 BYPASS IN CASE OF
001826: 20,2224           03657                                    QTEMP                                 #        UNFAVORABLE S40.8 SYNCH
001827: 20,2225           15335                                    HI6ZEROS                              #  START OF ENGINE-FAIL (R40) OPERATIONS
001828: 20,2226           03126                           STORE    OMEGAC                                #  PUT TVC IN ATTITUDE HOLD
001829: 20,2227           77776                           EXIT
001830:
001831: 20,2230           45021                           CS       ZERO
001832: 20,2231           55643                           TS       VCNTR                                 #  KILL CSMMASS UPDATING
001833: 20,2232           55653                           TS       VCNTRTMP                              #  (TVCEXEC LOGIC REQUIRES THIS TOO)
001834: 20,2233           55642                           TS       REPFRAC                               #  KILL TVCDAP CG TRIM TRACKING
001835: 20,2234           55145                           TS       NVWORD1                               #  SET UP ENGINE-FAIL V97FLASH (CLOCKJOB)
001836:
001837: 20,2235           06006                           TC       INTPRET
001838: 20,2236           52014                           CLEAR    GOTO                                  #  INHIBIT STEERING AND TGO CALC (MANUAL
001839: 20,2237           01264                                    STEERSW                               #        SHUTDOWN IF NOT SET UP AGAIN)
001840: 20,2240           03657                                    QTEMP                                 #  RESTARTS OK
001841:


001843:                                                                                                  #  NAME          S40.9 - VTOGAIN (AIMPOINT MANEUVERS ONLY)
001844:                                                                                                  #  FUNCTION      (1) GENERATES REQUIRED VELOCITY AND VELOCITY-TO-BE-GAINED
001845:                                                                                                  #                VECTORS FOR USE DURING AIMPOINT MANEUVERS
001846:                                                                                                  #                (2) UPDATES THE B VECTOR WHICH IS USED IN THE FINAL
001847:                                                                                                  #                CALCULATION OF EXTRAPOLATING THE VELOCITY-TO-BE-GAINED
001848:                                                                                                  #  CALLING SEQ   VIA FINDVAC AS NEW JOB.
001849:                                                                                                  #  INPUT         RNIT    -       ACTIVE VEHICLE RADIUS VECTOR IN METERS AT +29.
001850:                                                                                                  #                VNIT    -       ACTIVE VEHICLE VELOCITY VECTOR IN METERS/CS AT +7
001851:                                                                                                  #                VRPREV  -       LAST COMPUTED VELOCITY REQUIRED VECTOR IN
001852:                                                                                                  #                                METERS/CS AT +7.
001853:                                                                                                  #                NOMTIG  -       TIME OF IGN.  USED IN TARGETTING ROUTINES %+28"
001854:                                                                                                  #                DELLT4  -       TRANSFER TIME FROM PIPTIME TO TARGET %+28"
001855:                                                                                                  #                TNIT    -       TIME OF RNIT AND VNIT IN CS AT +28
001856:                                                                                                  #                GDT/2   -       HALF OF VELOCITY GAINED IN DELTA T TIME DUE TO
001857:                                                                                                  #                                ACCERERATION OF GRAVITY IN METERS/CS AT +7.
001858:                                                                                                  #                DELVREF -       CHANGE IN VELOCITY DURING LAST 2 SEC IN
001859:                                                                                                  #                                METERS/CS AT +7.
001860:                                                                                                  #                NORMSW          SET=CENTRAL ANGLE BETWEEN RTARG AND RTIG IS BETWEEN
001861:                                                                                                  #                                165 TO 195 DEGREES
001862:                                                                                                  #                                RESET=CENTRAL ANGLE OUTSIDE CONE DESCRIBED ABOVE
001863:                                                                                                  #  OUTPUT        VGTEMP  -       VELOCITY TO BE GAINED VECTOR IN METERS/CS AT +7.
001864:                                                                                                  #                COGA    -       INPUT OF INITIAL GUESS FOR LAMBERT FROM S40.1 O
001865:                                                                                                  #                                OR PREVIOUS PASS THRU S40.9
001866:                                                                                                  #                GOBL/2  -       OBLATENESS TERM IN AVG GRAV CALC-GOBL*RSQ/MU
001867:                                                                                                  #                VRPREV  -       VELOCITY REQUIRED VECTOR IN METERS/CS AT +7.
001868:                                                                                                  #                BDT     -       B VECTOR IN METERS/CS AT +7.
001869:                                                                                                  #  SUBROUTINES USED -    INITVEL
001870:
001871: 16,2000                                           SETLOC   P40S1
001872: 16,2000                                           BANK
001873:
001874: 16,2277  E6,1742                                  EBANK=   NBRCYCLS
001875: 16,2277                                           COUNT    16/S40.9
001876:
001877: 16,2277           06006        S40.9              TC       INTPRET
001878: 16,2300           71201                           SETPD    DLOAD
001879: 16,2301           00001                                    00D
001880: 16,2302           11563                                    LO6ZEROS
001881: 16,2303           77725                           PDDL
001882: 16,2304           34421                                    EP4(45)L
001883: 16,2305           71214                           BON      DLOAD
001884: 16,2306           03705                                    NORMSW
001885: 16,2307           34311                                    +2
001886: 16,2310           34423                                    EP4(10)L
001887: 16,2311           77606                           PUSH
001888: 16,2312           45014                           CLEAR    CALL
001889: 16,2313           00675                                    GUESSW
001890: 16,2314           22002                                    HAVEGUES
001891: 16,2315           77776                           EXIT
001892: 16,2316           05412                           TC       PHASCHNG                              #  SAVE TIME BY NOT REDOING LAMBERT CALCS
001893: 16,2317           05021                           OCT      05021                                 #  C, PRIORITY NEXT, JOB BELOW


001895: 16,2320           10000                           OCT      10000
001896: 16,2321           06006                           TC       INTPRET
001897: 16,2322           77614        ENDLAMB            BON
001898: 16,2323           01310                                    FIRSTFLG
001899: 16,2324           34342                                    FIRSTTME
001900: 16,2325           52375                           VLOAD    VSU
001901: 16,2326           03612                                    VIPRIME
001902: 16,2327           03466                                    VRPREV
001903: 16,2330           45325                           PDDL     DSU
001904: 16,2331           03474                                    TNIT
001905: 16,2332           03476                                    TNITPREV
001906: 16,2333           55261                           SL       BDDV
001907: 16,2334           20222                                    17D
001908: 16,2335           34415                                    200CSHI
001909: 16,2336           77761                           VXSC
001910: 16,2337           76451                           VSU      VSL1
001911: 16,2340           01207                                    GDT/2
001912: 16,2341           03705                           STORE    BDT
001913: 16,2342           57535        FIRSTTME           SLOAD    DCOMP
001914: 16,2343           03747                                    RTX2
001915: 16,2344           77640                           BMN
001916: 16,2345           34362                                    MOONCASE
001917: 16,2346           53575                           VLOAD    UNIT
001918: 16,2347           01171                                    RN
001919: 16,2350           45345                           DLOAD    DSU
001920: 16,2351           01205                                    PIPTIME
001921: 16,2352           03450                                    NOMTIG
001922: 16,2353           56205                           DMP      DDV
001923: 16,2354           34417                                    EARTHMU
001924: 16,2355           00043                                    34D
001925: 16,2356           53361                           VXSC     VAD
001926: 16,2357           01215                                    GOBL/2
001927: 16,2360           03646                                    VGTEMP                                #  NOTE  NO TEST IS MADE TO SUBTRACT GOBL
001928: 16,2361           03646                           STORE    VGTEMP                                #  INSIDE 165-195 DEGREE CONE AREA.
001929: 16,2362           77776        MOONCASE           EXIT
001930: 16,2363           05412                           TC       PHASCHNG
001931: 16,2364           04021                           OCT      04021                                 #  C, JOB BELOW
001932:
001933: 16,2365           06006        COPY40.9           TC       INTPRET
001934: 16,2366           77745                           DLOAD
001935: 16,2367           03474                                    TNIT
001936: 16,2370           27476                           STOVL    TNITPREV
001937: 16,2371           03612                                    VIPRIME
001938: 16,2372           03466                           STORE    VRPREV
001939: 16,2373           77414                           CLEAR    EXIT
001940: 16,2374           01270                                    FIRSTFLG
001941: 16,2375           45017                 -2        CS       ONE                                   #  REDO40.9 (RESTART) ENTRY TO END S40.9
001942: 16,2376           55742                           TS       NBRCYCLS
001943: 16,2377           05412        ENDS40.9           TC       PHASCHNG
001944: 16,2400           00001                           OCT      00001


001946: 16,2401           15217                           TCF      ENDOFJOB
001947:
001948: 16,2402           06006        REDO40.9           TC       INTPRET                               #  S40.9 RESTARTS COME HERE TO GRACEFULLY
001949: 16,2403           77775                           VLOAD                                          #        TERMINATE S40.9 SO THAT IT CAN BE
001950: 16,2404           11563                                    LO6ZEROS                              #        SET UP WITH LATEST R,V,T NEXT PASS
001951: 16,2405           17345                           STODL    DELVSUM                               #        (TYPE C PHASE POINTS '04021' WILL
001952: 16,2406           11563                                    LO6ZEROS                              #        FORCE NORMAL S40.9 TERMINATIONS,
001953: 16,2407           27343                           STOVL    NBRCYCLS                              #        RATHER THAN LOSE TIME OF BRAND NEW
001954: 16,2410           03721                                    VGPREV                                #        PASS -- QUICK OLD DATA BETTER THAN
001955: 16,2411           03646                           STORE    VGTEMP                                #        NONE) NOW CAN GO THRU SETUP.9
001956: 16,2412           77776                           EXIT                                           #        WITHOUT DISTURBING VGPREV
001957: 16,2413           12375                           TCF      ENDS40.9   -2                         #  STORE 0,0 COVERED NBRCYCLS,P -- FIX UP S
001958:
001959: 16,2414           01440 00000  200CSHI            2DEC     200        B-12
001960:
001961: 16,2416           55340 61710  EARTHMU            2DEC*    -3.986032  E10        B-36*
001962:
001963: 16,2420           04000 00000  EP4(45)L           2DEC     .125
001964:
001965: 16,2422           00707 03434  EP4(10)L           2DEC     .027777777
001966:


001968:                                                                                                  #  NAME                  S40.13 - TIMEBURN
001969:
001970:                                                                                                  #  FUNCTION              (1) DETERMINE WHETHER A GIVEN COMBINATION OF VELOCITY-TO-
001971:                                                                                                  #                        BE-GAINED AND ENGINE CHOICE RESULT IN A BURN TIME SUFFICIENT
001972:                                                                                                  #                        TO ALLOW STEERING AT THE VEHICLE DURING THE BURN, AND
001973:                                                                                                  #                        (2) THE MAGNITUDE OF RESULTING BURN TIME - IF IT IS SHORT -
001974:                                                                                                  #                        AND THE ASSOCIATED TIME OF THE ENGINE-OFF SIGNAL.
001975:
001976:                                                                                                  #  CALLING SEQ           VIA FINDVAC AS NEW JOB.
001977:
001978:                                                                                                  #  INPUT                 VGTIG - VELOCITY TO BE GAINED VECTOR (METERS/C.S.) AT +7
001979:                                                                                                  #                        WEIGHT/G - MASS OF VEHICLE IN KGM AT TIG
001980:                                                                                                  #                        F - ENGINE THRUST IN M.NEWTONS AT +7
001981:                                                                                                  #                        MDOT -  RATE OF DECREASE OF VEHICLE MASS DURING ENGINE BURN
001982:                                                                                                  #                                IN KILOGRAMS/CENTISECOND AT +3.  THIS SCALING MAY
001983:                                                                                                  #                                REQUIRE MODIFICATION FOR SATURN BURNS.
001984:
001985:                                                                                                  #  OUTPUT                IMPULSW -       ZERO FOR STEERING
001986:                                                                                                  #                                -       ONE FOR ATTITUDE HOLD
001987:                                                                                                  #                        TGO     -       TIME TO BURN IN CENTISECONDS AT +14
001988:                                                                                                  #                        THE QUANTITY M.NEWTON SHALL BE USED TO EXPRESS WEIGHT IN TERMS OF
001989:                                                                                                  #                        (KILOGRAM*METER)/(CENTISECOND*CENTISECOND)
001990:                                                                                                  #                        (1) M.NEWTON = (10000) NEWTONS
001991:
001992: 16,2424  E7,1427                                  EBANK=   TGO
001993: 16,2424                                           COUNT    16/40.13
001994:
001995: 16,2424           06006        S40.13             TC       INTPRET
001996: 16,2425           43001                           SETPD    SET
001997: 16,2426           00001                                    00D
001998: 16,2427           01066                                    IMPULSW                               #  ASSUME NO STEERING UNTIL FOUND OTHERWISE
001999: 16,2430           51575                           VLOAD    ABVAL
002000: 16,2431           03721                                    VGTIG                                 #  VELOCITY TO BE GAINED AT +7
002001: 16,2432           77776                           EXIT
002002: 16,2433           35011                           CAF      BIT7                                  #  TEST +X TRANSLATION
002003: 16,2434           00006                           EXTEND
002004: 16,2435           06031                           RXOR     CHAN31
002005: 16,2436           75011                           MASK     BIT7
002006: 16,2437           00006                           EXTEND
002007: 16,2440           12522                           BZF      NOTADDUL
002008: 16,2441           06006                           TC       INTPRET
002009: 16,2442           56325                           PDDL     DDV                                   #  00D = MAG OF VGTIG AT +7
002010: 16,2443           36025                                    S40.135                               #  COMPENSATION FOR 2 JET ULLAGE AT +24
002011: 16,2444           03076                                    WEIGHT/G                              #  MASS IN KGMS AT +16
002012: 16,2445           72414                           BON      SL1                                   #  DOUBLE CORRECTION IF FOUR JETS
002013: 16,2446           00700                                    NJETSFLG
002014: 16,2447           34450                                    S40.130
002015: 16,2450           77621        S40.130            BDSU
002016: 16,2451           56325                           PDDL     DDV                                   #  00D = MAG OF VGTIG CORRECTED FOR ULLAGE
002017: 16,2452           01770                                    K1VAL                                 #  M.NETWON-CS AT +24
002018: 16,2453           03076                                    WEIGHT/G
002019: 16,2454           50021                           BDSU     BMN
002020: 16,2455           00001                                    00D
002021: 16,2456           34501                                    S40.131                               #  TGO LESS THAN 100 CS
002022: 16,2457           41325                           PDDL     DMP                                   #  02D = TEMP1 AT +7


002024: 16,2460           00111                                    EMDOT                                 #  SPS FLOW RATE SC.AT B+3 KG/CS (SP, NOTE)
002025: 16,2461           36021                                    3.5SEC                                #  350 CS AT +14
002026: 16,2462           65221                           BDSU     PDDL
002027: 16,2463           03076                                    WEIGHT/G
002028: 16,2464           01772                                    FANG
002029: 16,2465           60405                           DMP      SR2
002030: 16,2466           36023                                    5SECOND                               #  500 CS AT +14
002031: 16,2467           41471                           DDV      PUSH                                  #  04D = TEMP2
002032: 16,2470           51021                           BDSU     BPL
002033: 16,2471           00003                                    02D
002034: 16,2472           34515                                    S40.133                               #  TGO GREATER THAN 600 CS
002035: 16,2473           55345                           DLOAD    BDDV
002036: 16,2474           43205                           DMP      DAD
002037: 16,2475           36023                                    5SECOND                               #  500 CS AT +14
002038: 16,2476           36017                                    1SEC2D                                #  100 CS AT +14
002039: 16,2477           77650                           GOTO
002040: 16,2500           34506                                    S40.132
002041: 16,2501           41345        S40.131            DLOAD    DMP                                   #  TGO LESS THAN 100 CS
002042: 16,2502           03076                                    WEIGHT/G
002043: 16,2503           56215                           DAD      DDV
002044: 16,2504           36013                                    K2VAL                                 #  M.NEWTON-CS AT +24
002045: 16,2505           36015                                    K3VAL                                 #  M.NEWTONS AT +10
002046: 16,2506           77776        S40.132            EXIT
002047: 16,2507  E7,1427                                  EBANK=   TGO
002048: 16,2507           07226                           TC       TPAGREE
002049: 16,2510           30154                           CA       MPAC
002050: 16,2511           56001                           XCH      L
002051: 16,2512           35021                           CA       ZERO
002052: 16,2513           53430                           DXCH     TGO                                   #  TGO IN CS AT +28
002053: 16,2514           02517                           TC       S40.134
002054: 16,2515           77414        S40.133            CLEAR    EXIT                                  #  WILL STEER VEHICLE
002055: 16,2516           01266                                    IMPULSW
002056: 16,2517           05412        S40.134            TC       PHASCHNG                              #  KILL GROUP 3
002057: 16,2520           00003                           OCT      3
002058:
002059: 16,2521           15217                           TCF      ENDOFJOB
002060:
002061: 16,2522           06006        NOTADDUL           TC       INTPRET
002062: 16,2523           77650                           GOTO
002063: 16,2524           34451                                    S40.130    +1                         #  DO NOT COMPENSATE FOR 7 SEC OF ULLAGE
002064: 17,2000                                           SETLOC   DAPS7
002065: 17,2000                                           BANK
002066:
002067: 17,2012                                           COUNT    17/40.13
002068:
002069: 17,2012  E3,1767               K1VAL              =        EK1VAL                                #  DP PAD LOAD B+23 NEWTON-SEC/E+2
002070: 17,2012           00000 15715  K2VAL              2DEC     222.411081 B-23                       #   5000 LB-SEC, SC.AT B+23 NEWTON-SEC/E+2
002071: 17,2014           00552 37144  K3VAL              2DEC     11.3429651 B-9                        #  25500 LBS, SC.AT B+9 NEWTONS/E+4
002072: 17,2016           00144 00000  1SEC2D             2DEC     100.0      B-14                       #  100.0 CS AT +14


002074: 17,2020           01274 00000  3.5SEC             2DEC     350.0      B-13                       #  350.0 CS AT +13
002075:
002076: 17,2022           00764 00000  5SECOND            2DEC     500.0      B-14                       #  500 CS AT +14
002077:
002078: 17,2024           00000 04263  S40.135            2DEC     69.6005183 B-23                       #  IMPULSE FROM 7.96 SECS OF 2-JET FIRING
002079:                                                                                                  #        7.96 (199.6)COS(10) LB-SEC, SC.AT
002080:                                                                                                  #        B+23 NEWTON-SEC/E+2 (7 SEC ULLAGE
002081:                                                                                                  #        TO GO, PLUS 0.96 SEC FROM PIPTIME)
002082:


002084:                                                                                                  #  NAME          S40.6 GIMBAL DRIVE TEST AND/OR GIMBAL TRIM
002085:                                                                                                  #  MOD NO 5                              DATE 9 MARCH, 1967
002086:                                                                                                  #  MOD BY ENGEL                          LOG SECTION P40-P47
002087:
002088:                                                                                                  #  FUNCTIONAL DESCRIPTION
002089:                                                                                                  #        GIMBAL DRIVE TEST....0,+2,-2,0 DEGREE ENGINE COMMANDS, AT 2 SECOND
002090:                                                                                                  #                INTERVALS, FIRST IN PITCH, THEN IN YAW.  ASTRONAUT VERIFICATION
002091:                                                                                                  #                OF GIMBAL MOTION ON GPI
002092:                                                                                                  #        GIMBAL TRIM....AFTER A 4 SECOND DELAY, ENGINE COMMANDED TO
002093:                                                                                                  #                PRE-COMPUTED TRIM POSITION.  ASTRONAUT VERIFICATION ON GPI.
002094:                                                                                                  #        PRE40.6....RESTART ENTRY TO RE-DO S40.6, ONLY IF RCS IS ON - IF TVC
002095:                                                                                                  #                IS NOT ON - PRIMARILY TO GET ACTUATORS TRIMMED FOR IGNITION.
002096:                                                                                                  #                BYPASS 4 SEC DELAY.  SPEED IS CRITICAL NEAR IGNITION.
002097:                                                                                                  #                IF TVC IS ON (TVCDAPON OR LATER) THEN REDOTVC WILL TAKE CARE
002098:                                                                                                  #                OF RESTARTING ACTUATORS.
002099:
002100:                                                                                                  #  CALLING SEQUENCE....
002101:                                                                                                  #        WAITLIST, WITH 2CADR FOR S40.6 (OR PRE40.6), WITH EBANK= CNTR
002102:
002103:                                                                                                  #  NORMAL EXIT MODE - FIXDELAY, TASKOVER
002104:
002105:                                                                                                  #  SUBROUTINES CALLED....
002106:                                                                                                  #        OUTPUT (INTERNAL)
002107:                                                                                                  #        FIXDELAY
002108:
002109:                                                                                                  #  ALARM OR ABORT EXIT MODES - NONE
002110:
002111:                                                                                                  #  ERASEABLE INITIALIZATION REQUIRED
002112:                                                                                                  #        CNTR = +0, NORMALLY SET BY THE P40 CALL AT TST,TRIM
002113:                                                                                                  #        MRKRTMP...POSITIVE FOR GIMBAL DRIVE TEST AND GIMBAL TRIM (BOTH)
002114:                                                                                                  #                   NEGATIVE FOR GIMBAL TRIM ONLY
002115:                                                                                                  #        PACTOFF, YACTOFF SC.AT 85.41 ARCSEC/BIT (V48N48 P, YTRIM)
002116:                                                                                                  #        ..SC CONT.. SWITCH AT ..CMC.. (A/P CONTROL SWITCH AT ..GNC..)
002117:                                                                                                  #        ACTIVE SPS GIMBAL MOTOR POWER(S), PITCH, YAW
002118:
002119:                                                                                                  #  OUTPUT
002120:                                                                                                  #        TVCYAW, TVCPITCH (BITS RELEASED)
002121:                                                                                                  #        TVC ENABLE AND OPTICS ERROR COUNTER ENABLE
002122:
002123:                                                                                                  #  DEBRIS
002124:                                                                                                  #        TEMPR60, CNTR
002125:
002126: 17,2026                                           BANK     17
002127: 20,2000                                           SETLOC   DAPS6
002128: 20,2000                                           BANK
002129:
002130: 20,2241  E6,1447                                  EBANK=   CNTR
002131: 20,2241                                           COUNT    20/S40.6
002132:
002133: 20,2241           40102        PRE40.6            CS       FLAGWRD6                              #  RESTART ENTRY TO S40.6 (DO NOT PERMIT
002134: 20,2242           74105                           MASK     OCT60000                              #        IF TVC, BITS 15,|4 = 1,0)
002135: 20,2243           00006                           EXTEND
002136: 20,2244           62246                           BZMF     +2
002137: 20,2245           15324                           TCF      TASKOVER                              #  TVC, REDOTVC WILL REESTABLISH INTERFACE
002138:
002139: 20,2246           45017                           CS       BIT1                                  #  RCS, SO DO S40.6, GIMTRIM ONLY


002141: 20,2247           55445                           TS       MRKRTMP
002142:
002143: 20,2250           35017                           CAF      BIT1                                  #  FOR REVISED S40.6 TIMING FOR RESTARTS...
002144: 20,2251           55447                           TS       CNTR                                  #  TO INDICATE A RESTART ENTRY (CNTR IS
002145:                                                                                                  #        NORMALLY +0, BY S40.6)
002146:
002147: 20,2252  E6,1447                                  EBANK=   CNTR
002148: 20,2252           45021        S40.6              CS       ZERO                                  #  INHIBIT OPTICS ACTIVITY
002149: 20,2253           55303                           TS       OPTIND
002150:
002151: 20,2254           45016                           CS       BIT2                                  #  DISENABLE OPTICS ERROR COUNTERS (ZERO,
002152: 20,2255           00006                           EXTEND                                         #        AND INHIBIT PULSE TRANSMISSION -
002153: 20,2256           03012                           WAND     CHAN12                                #        NORMAL STATE)
002154:
002155: 20,2257           32344                           CAF      OCT02200                              #  TVC ENABLE (SPS SERVO AMPS SEE DAC
002156: 20,2260           00006                           EXTEND                                         #        VOLTAGES) AND DISENGAGE OPTICS/DAC
002157: 20,2261           05012                           WOR      CHAN12
002158:
002159: 20,2262           05267                           TC       FIXDELAY                              #  60MS PROCEDURAL DELAY (40MS MINIMUM) FOR
002160: 20,2263           00006                           DEC      6          B-14                       #        RELAY LATCHING
002161:
002162: 20,2264           35016                           CAF      BIT2                                  #  ENABLE OPTICS ERROR COUNTERS
002163: 20,2265           00006                           EXTEND
002164: 20,2266           05012                           WOR      CHAN12
002165:
002166: 20,2267           05267                           TC       FIXDELAY                              #  20MS PROCEDURAL DELAY (4MS MINIMUM) FOR
002167: 20,2270           00002                           DEC      2          B-14                       #        RELAY LATCHING
002168:
002169: 20,2271           11447        RSTRTST            CCS      CNTR                                  #  CHECK FOR RESTART ENTRY (PRE40.6)
002170: 20,2272           12332                           TCF      GIMTRIM    +2                         #  RESTART ENTRY....BYPASS 4 SECOND DELAY
002171:                                                                                                  #        TST,TRIM SETS +0 ON NORMAL ENTRY
002172:
002173: 20,2273           31445                           CAE      MRKRTMP                               #  CHECK FOR TEST/TRIM OR TRIM ONLY
002174: 20,2274           55447                           TS       CNTR                                  #        MRKRTMP SAVES CNTR FOR RESTARTS
002175: 20,2275           00006                           EXTEND
002176: 20,2276           62330                           BZMF     GIMTRIM                               #  (TRIM ONLY)
002177:
002178: 20,2277           45021        GDTSETUP           CS       ZERO                                  #  GIMBAL DRIVE TEST SETUP, FOR PITCH
002179: 20,2300           55447                           TS       CNTR
002180:
002181: 20,2301           32346        GIMDTEST           CAF      +2ACTDEG                              #  GIMBAL DRIVE TEST, 1ST INCREMENT
002182: 20,2302           02315                           TC       OUTPUT                                #        (LEAVES GIMBAL AT +2 DEG)
002183: 20,2303           32345                           CAF      -4ACTDEG                              #  2ND INCREMENT (LEAVES GIMBAL AT -2)
002184: 20,2304           02315                           TC       OUTPUT
002185: 20,2305           32346                           CAF      +2ACTDEG                              #  3RD INCREMENT (LEAVES GIMBAL AT -0)
002186: 20,2306           02315                           TC       OUTPUT
002187:
002188: 20,2307           41447                           CS       CNTR                                  #  CHECK FOR COMPLETION OF YAW TEST


002190: 20,2310           10000                           CCS      A
002191: 20,2311           12330                           TCF      GIMTRIM                               #  COMPLETED, GO TO GIMBAL TRIM ROUTINE
002192: 20,2312           45017                           CS       BIT1                                  #  SET UP YAW TEST
002193: 20,2313           55447                           TS       CNTR
002194: 20,2314           12301                           TCF      GIMDTEST                              #  FOR YAW TEST
002195:
002196: 20,2315           00006        OUTPUT             EXTEND                                         #  OUTPUT THE INCREMENT....SAVE Q
002197: 20,2316           23146                           QXCH     TEMPR60
002198:
002199: 20,2317           51447                           INDEX    CNTR
002200: 20,2320           54054                           TS       TVCPITCH
002201:
002202: 20,2321           51447                           INDEX    CNTR
002203: 20,2322           35005                           CAF      BIT11
002204: 20,2323           00006                           EXTEND
002205: 20,2324           05014                           WOR      CHAN14
002206:
002207: 20,2325           05267                           TC       FIXDELAY                              #  WAIT 2SEC, WHILE ASTRONAUT VERIFIES
002208: 20,2326           00310                           DEC      200        B-14                       #        GIMBAL MOTION ON GPI
002209: 20,2327           01146                           TC       TEMPR60
002210:
002211: 20,2330           05267        GIMTRIM            TC       FIXDELAY                              #  WAIT 4 SECONDS BEFORE GIMBAL TRIM
002212: 20,2331           00620                           DEC      400        B-14
002213:
002214: 20,2332           45021                 +2        CS       ZERO                                  #  PICK UP TRIM VALUES AND OUTPUT THEM
002215: 20,2333           61423                           AD       PACTOFF                               #        (AVOID +0) ENTRY POINT FROM RSTRTST
002216: 20,2334           54054                           TS       TVCPITCH                              #        ON A RESTART, TO AVOID 4SEC DELAY
002217: 20,2335           45021                           CS       ZERO
002218: 20,2336           61424                           AD       YACTOFF
002219: 20,2337           54053                           TS       TVCYAW
002220:
002221: 20,2340           35062                           CAF      PRIO6                                 #  RELEASE THE COUNTERS, BITS 11,12
002222: 20,2341           00006                           EXTEND
002223: 20,2342           05014                           WOR      CHAN14
002224:
002225: 20,2343           15324        ENDS40.6           TCF      TASKOVER
002226:
002227: 20,2344           02200        OCT02200           OCT      02200                                 #  BITS 8,11 FOR CHANNEL 12 TVC/OPTICS
002228: 20,2345           77527        -4ACTDEG           DEC      -168       B-14                       #  -2(+2ACTDEG), WHOLE BITS, NO ROUNDUP
002229: 20,2346           00124        +2ACTDEG           DEC      +84        B-14                       #  +2 DEG, SC.AT 85.41 ARCSEC/BIT (+84D)
002230:
002231:                                                                                                  #  CALLED BY ..DONOUN46.. (VERB 48), OR DIRECTLY BY ..FRESHDAP.. (RCS DAP) VIA IBNKCALL
002232:
002233: 20,2347                                           COUNT    20/S41.2
002234:
002235: 20,2347           31466        S41.2              CA       DAPDATR1


002237: 20,2350           76214                           MASK     THREE
002238: 20,2351           60000                           AD       A
002239: 20,2352           55130                           TS       RATEINDX
002240:
002241: 20,2353           00004                           INHINT
002242: 20,2354           31466                           CAE      DAPDATR1                              #  IS LEM ATTACHED (BITS 14,13 OF DAPDATR1
002243: 20,2355           74371                           MASK     PRIO30                                #        =10)
002244: 20,2356           67705                           AD       -BIT14                                #  (OCT57777)
002245: 20,2357           00006                           EXTEND
002246: 20,2360           12365                           BZF      TOGETHER                              #  YES
002247:
002248: 20,2361           45016                           CS       BIT2                                  #  NO, UNSET FLAG
002249: 20,2362           70103                           MASK     FLAGWRD7
002250: 20,2363           54103                           TS       FLAGWRD7
002251:
002252: 20,2364           12370                           TCF      +4
002253:
002254: 20,2365           40103        TOGETHER           CS       FLAGWRD7                              #  ATTACHED, SET FLAG FOR INTEGRATION
002255: 20,2366           75016                           MASK     BIT2
002256: 20,2367           26103                           ADS      FLAGWRD7
002257:
002258: 20,2370           00003                           RELINT
002259:
002260: 20,2371           31466                           CA       DAPDATR1
002261: 20,2372           75014                           MASK     BIT4
002262: 20,2373           00006                           EXTEND
002263: 20,2374           62376                           BZMF     +2                                    #  DEC 46 MEANS NARROW DB
002264: 20,2375           32476                           CA       DEC409
002265: 20,2376           62477                           AD       DEC46                                 #  DEC 455 MEANS WIDE DB
002266: 20,2377           55655                           TS       ADB
002267:
002268: 20,2400           31466                           CA       DAPDATR1
002269: 20,2401           75011                           MASK     BIT7                                  #  QUAD BD
002270: 20,2402           00006                           EXTEND
002271: 20,2403           62405                           BZMF     +2
002272: 20,2404           35017                           CA       ONE
002273: 20,2405           55631                           TS       XTRANS
002274: 20,2406           31466                           CA       DAPDATR1
002275: 20,2407           75006                           MASK     BIT10                                 #  QUAD AC
002276: 20,2410           00006                           EXTEND
002277: 20,2411           62413                           BZMF     +2
002278: 20,2412           45017                           CS       ONE
002279: 20,2413           27631                           ADS      XTRANS
002280:
002281: 20,2414           00004                           INHINT
002282: 20,2415           00006                           EXTEND
002283: 20,2416           12423                           BZF      +5                                    #  CLEAR NJETSFLG (4 JETS, OR NO JETS)
002284: 20,2417           40075                           CS       FLAGWRD1                              #  SET NJETSFLG (2 JETS, AC OR BD QUADS)
002285: 20,2420           75001                           MASK     BIT15                                 #  NJETSFLG = 1 FOR 2 JET ULLAGE (AC OR BD)
002286: 20,2421           26075                           ADS      FLAGWRD1


002288: 20,2422           12426                           TCF      +4
002289: 20,2423           45001                           CS       BIT15                                 #  NJETSFLG = 0 FOR 4 JET (OR 0 JET) ULLAGE
002290: 20,2424           70075                           MASK     FLAGWRD1
002291: 20,2425           54075                           TS       FLAGWRD1
002292: 20,2426           00003                           RELINT
002293: 20,2427           31467                           CA       DAPDATR2
002294: 20,2430           75003                           MASK     BIT13
002295: 20,2431           00006                           EXTEND
002296: 20,2432           62434                           BZMF     +2
002297: 20,2433           12435                           TCF      +2
002298: 20,2434           45017                           CS       ONE
002299: 20,2435           40000                           COM
002300: 20,2436           55630                           TS       ACORBD                                #  MINUS FOR A-C, PLUS FOR B-D
002301:
002302: 20,2437           31467                           CA       DAPDATR2
002303: 20,2440           75006                           MASK     BIT10
002304: 20,2441           10000                           CCS      A
002305: 20,2442           12446                           TCF      +4
002306: 20,2443           35017                           CA       ONE
002307: 20,2444           55626                           TS       RACFAIL
002308: 20,2445           12456                           TCF      BDFAIL
002309: 20,2446           35021                           CA       ZERO
002310: 20,2447           55626                           TS       RACFAIL
002311: 20,2450           31467                           CA       DAPDATR2
002312: 20,2451           75014                           MASK     BIT4
002313: 20,2452           10000                           CCS      A
002314: 20,2453           12456                           TCF      BDFAIL
002315: 20,2454           45017                           CS       ONE
002316: 20,2455           55626                           TS       RACFAIL
002317: 20,2456           31467        BDFAIL             CA       DAPDATR2
002318: 20,2457           75011                           MASK     BIT7
002319: 20,2460           10000                           CCS      A
002320: 20,2461           12465                           TCF      +4
002321: 20,2462           35017                           CA       ONE
002322: 20,2463           55627                           TS       RBDFAIL
002323: 20,2464           00002                           TC       Q
002324: 20,2465           35021                           CA       ZERO
002325: 20,2466           55627                           TS       RBDFAIL
002326: 20,2467           31467                           CA       DAPDATR2
002327: 20,2470           75017                           MASK     BIT1
002328: 20,2471           10000                           CCS      A
002329: 20,2472           00002                           TC       Q
002330: 20,2473           45017                           CS       ONE
002331: 20,2474           55627                           TS       RBDFAIL
002332: 20,2475           00002                           TC       Q
002333:
002334:                                                                                                  #  DAPFIG ENTRY VIA TC POSTJUMP AS JOB FROM ..STABLISH.. (VERB 46)
002335:
002336: 42,3606                                           BANK     42
002337: 42,2000                                           SETLOC   EXTVBS


002339: 42,2000                                           BANK
002340:
002341: 42,3606           45007        DAPFIG             CS       BIT9                                  #  TURN OFF SIVB TAKEOVER
002342: 42,3607           00006                           EXTEND
002343: 42,3610           03012                           WAND     CHAN12
002344: 42,3611           31466                           CAE      DAPDATR1                              #  DETERMINE VEHICLE CONFIGURATION
002345: 42,3612           00006                           EXTEND
002346: 42,3613           75015                           MP       BIT3                                  #        RIGHT SHIFT 4 OCTAL DIGITS
002347: 42,3614           76214                           MASK     THREE                                 #        (IN CASE BIT 15 IS USED)
002348: 42,3615           50000                           INDEX    A
002349: 42,3616           13617                           TCF      +1                                    #        BRANCH BASED ON CONFIG....
002350:
002351: 42,3617           13631                           TCF      NODAPUP                               #  CM.......ACTIVATE NODAP
002352: 42,3620           13624                           TCF      RCSDAPUP                              #        CSM......ACTIVATE RCSDAP
002353: 42,3621           13624                           TCF      RCSDAPUP                              #        CSM/LEM..ACTIVATE RCSDAP
002354: 42,3622           04701                           TC       POSTJUMP
002355: 42,3623           67215                           CADR     SATSTKON
002356: 42,3624           00004        RCSDAPUP           INHINT                                         #  CALL TO ACTIVATE RCSDAP, AND RETURN
002357: 42,3625           04740                           TCR      IBNKCALL
002358: 42,3626           42024                           CADR     RCSDAPON
002359: 42,3627           00003                           RELINT
002360: 42,3630           13646                           TCF      ENDFIG                                #  CAME IN VIA V46, GO OUT VIA GOPIN
002361: 42,3631           00006        NODAPUP            EXTEND                                         #  T5 IDLE FOR NODAP (DONT WORRY ABOUT T)
002362: 42,3632           33651                           DCA      T5IDLDAP
002363: 42,3633           53313                           DXCH     T5LOC
002364: 42,3634           05560                           TC       DOWNFLAG                              #  RESET T5-USAGE FLAGS FOR NODAP
002365: 42,3635           00132                           ADRES    DAPBIT1                               #  BIT 15 FLAG 6 = 0
002366: 42,3636           05560                           TC       DOWNFLAG
002367: 42,3637           00133                           ADRES    DAPBIT2                               #  BIT 14 FLAG 6 = 0
002368: 42,3640           00004                           INHINT
002369: 42,3641           04740                           TC       IBNKCALL                              #  ZERO JET CHANNELS IN 14 MS AND THEN
002370: 42,3642           42632                           CADR     ZEROJET                               #  LEAVE THE T6 CLOCK DISABLED.
002371: 42,3643           00003                           RELINT
002372: 42,3644           35017                           CAF      BIT1                                  #  KILL KALCMANU JOB
002373: 42,3645           55332                           TS       HOLDFLAG
002374: 42,3646           04701        ENDFIG             TC       POSTJUMP                              #  CAME IN VIA V46, GO OUT VIA GOPIN
002375: 42,3647           66121                           CADR     GOPIN
002376: 42,3650  E6,1423                                  EBANK=   PACTOFF
002377: 42,3650           03153 12106  T5IDLDAP           2CADR    T5IDLOC
002378:
002379: 42,3652  30,2000                                  SBANK=   LOWSUPER
002380: 17,2026                                           BANK     17
002381: 20,2000                                           SETLOC   DAPS6
002382: 20,2000                                           BANK
002383:
002384: 20,2476           00631        DEC409             DEC      409        B-14
002385: 20,2477           00056        DEC46              DEC      46         B-14
002386:


002388:
002389:                                                                                                  #  CALLED BY ..DONOUN47.. (VERB 48), OR DIRECTLY BY ..FRESHDAP.. (RCS DAP)
002390: 20,2500           31470        S40.14             CAE      IXX                                   #  RCS ENTRY
002391: 20,2501           00006                           EXTEND
002392: 20,2502           72525                           MP       CONTONE
002393: 20,2503           55623                           TS       J/M
002394:
002395: 20,2504           31471                           CA       IAVG
002396: 20,2505           00006                           EXTEND
002397: 20,2506           72525                           MP       CONTONE
002398: 20,2507           55624                           TS       J/M1
002399:
002400: 20,2510           55625                           TS       J/M2
002401:
002402: 20,2511           00006                           EXTEND
002403: 20,2512           32527                           DCA      CONTTWO
002404: 20,2513           00006                           EXTEND
002405: 20,2514           11470                           DV       IXX
002406: 20,2515           55620                           TS       KMJ
002407:
002408: 20,2516           00006                           EXTEND
002409: 20,2517           32527                           DCA      CONTTWO
002410: 20,2520           00006                           EXTEND
002411: 20,2521           11471                           DV       IAVG
002412: 20,2522           55621                           TS       KMJ1
002413:
002414: 20,2523           55622                           TS       KMJ2
002415:
002416: 20,2524           00002                           TC       Q
002417:
002418: 20,2525           25137        CONTONE            DEC      .662034                               #  2PI/M
002419: 20,2526           00023 12522  CONTTWO            2DEC     .00118
002420:
002421: 20,2530                                           COUNT    24/TVNG
002422:
002423: 31,3700                                           BANK     31
002424: 24,2000                                           SETLOC   P40S
002425: 24,2000                                           BANK
002426:
002427: 24,3761           37405        POS-2.5            OCT      37405
002428: 24,3762  E6,1466                                  EBANK=   DAPDATR1
002429: 24,3762           02014 42066  RCSCADR            2CADR    RCSUP
002430:
002431: 24,3764           37704        6SECT5             OCT      37704
002432: 24,3765                                           COUNT    21/RCSUP
002433:
002434: 20,2530                                           BANK     20
002435:
002436: 21,2000                                           SETLOC   DAPS3
002437: 21,2000                                           BANK
002438:


002440:
002441: 21,2014           22016        RCSUP              LXCH     BANKRUPT
002442: 21,2015           00006                           EXTEND
002443: 21,2016           22012                           QXCH     QRUPT
002444:
002445: 21,2017           02024                           TCR      RCSDAPON                              #  ACTIVATE RCS DAP
002446:
002447: 21,2020           15333                           TCF      RESUME
002448:
002449: 21,2021  E6,1466                                  EBANK=   DAPDATR1
002450: 21,2021           02122 42066  RCSADDR            2CADR    RCSATT
002451:
002452: 21,2023           37704        0.6SECT5           OCT      37704
002453:
002454:                                                                                                  #  RCSDAPON ENTRY MUST BE UNDER INT-INHIBIT
002455: 21,2024           32023        RCSDAPON           CAF      0.6SECT5                              #  0.6 SEC ALLOWS TVCEXEC/ROLLDAP TO DIE
002456: 21,2025           54030                 +1        TS       TIME5                                 #  ENTRY FROM ROOTOPOO
002457: 21,2026           55465                           TS       T5PHASE                               #  WILL CAUSE FRESHDAP (+1)
002458:
002459: 21,2027           41501                           CS       RCSFLAGS                              #  SET BIT3 TO REINITIALIZE FDAI ERROR
002460: 21,2030           75015                           MASK     BIT3                                  #        DISPLAY, IN CASE SC CONT SWITCH
002461: 21,2031           27501                           ADS      RCSFLAGS                              #        IN SCS NOT GNC (GUIDEMODE PRIMARY)
002462:
002463: 21,2032           00006                           EXTEND
002464: 21,2033           32022                           DCA      RCSADDR                               #  (RCSATT)
002465: 21,2034           53313                           DXCH     T5LOC
002466:
002467: 21,2035           44105                           CS       OCT60000                              #  SET BITS 15,14 TO 01 TO INDICATE
002468: 21,2036           70102                           MASK     FLAGWRD6                              #        T5 TAKEOVER BY RCSDAP
002469: 21,2037           65002                           AD       BIT14
002470: 21,2040           54102                           TS       FLAGWRD6                              #  KILLS TVCEXEC AND ROLLDAP STARTS
002471:
002472: 21,2041           00002                           TC       Q                                     #  RETURN TO CALLER (TVCDAPOF OR RCSDAPUP)
002473:
002474:

End of include-file P40-P47.agc.  Parent file is MAIN.agc


