
Source Code


000002:                                                                                                  ## Copyright:   Public domain.
000003:                                                                                                  ## Filename:    P61-P67.agc
000004:                                                                                                  ## Purpose:     A section of Comanche revision 045.
000005:                                                                                                  ##              It is part of the reconstructed source code for the
000006:                                                                                                  ##              second release of the flight software for the Command
000007:                                                                                                  ##              Module's (CM) Apollo Guidance Computer (AGC) for Apollo 10.
000008:                                                                                                  ##              The code has been recreated from a copy of Comanche 055. It
000009:                                                                                                  ##              has been adapted such that the resulting bugger words
000010:                                                                                                  ##              exactly match those specified for Comanche 45 in NASA drawing
000011:                                                                                                  ##              2021153D, which gives relatively high confidence that the
000012:                                                                                                  ##              reconstruction is correct.
000013:                                                                                                  ## Assembler:   yaYUL
000014:                                                                                                  ## Contact:     Ron Burkey <info@sandroid.org>.
000015:                                                                                                  ## Website:     www.ibiblio.org/apollo/index.html
000016:                                                                                                  ## Mod history: 2020-12-06 MAS  Created from Comanche 44.
000017:


000019:                                                                                                  #  PROGRAM:      P61
000020:                                                                                                  #  MOD NO.:      0       MAR. 13, 1967
000021:                                                                                                  #  MOD BY:       R. HIRSCHKOP
000022:                                                                                                  #  MOD NO: 1     MOD BY:  RR BAIRNSFATHER        DATE: 22 JUN 67         RESTARTS.
000023:                                                                                                  #  MOD NO: 2     MOD BY:  RR BAIRNSFATHER        DATE: 17 JAN 68         COLOSSUS GSOP CHANGES.
000024:                                                                                                  #  MOD NO: 3     MOD BY:  RR BAIRNSFATHER        DATE:  8 MAY 68         DELETE CMSM MANEUVER (PCR 50)
000025:                                                                                                  #  FUNCTION:     TO CALCULATE AND DISPLAY EMS INITIALIZATION DATA
000026:                                                                                                  #  CALLING SEQUENCE-  BY V37
000027:                                                                                                  #  EXIT-         TO P62
000028:                                                                                                  #  SUBROUTINE CALLS-  S61.1, S61.3, GOFLASH, FLAGUP, R02BOTH
000029:                                                                                                  #  ERASABLE INITIALIZATION:
000030:                                                                                                  #        EMSALT (-29) M          .05G ALTITUDE ABOVE FISCHER ELLIPSOID   PAD LOADED.
000031:                                                                                                  #        ALFAPAD /180            HYPERSONIC CM TRIM ANGLE OF ATTACK      PAD LOADED
000032:                                                                                                  #  OUTPUT:       THE FOLLOWING REGISTERS ARE WRITTEN IN FOR USE BY DISPLAYS
000033:                                                                                                  #                GMAX    100 GMAX (-14) G,S      MAXIMUM ACCELERATION
000034:                                                                                                  #                VPRED   (-7) M/CS               PREDICTED VELOCITY AT 400K FT
000035:                                                                                                  #                GAMMAEI GAMMA/360               PREDICTED GAMMA    AT 400K FT
000036:                                                                                                  #                RTGO    THETAH/360              RANGE ANGLE TO SPLASH FROM EMSALT       EMSALT IS PAD LOADED
000037:                                                                                                  #                VIO     (-7) M/CS               INERTIAL VELOCITY AT       EMSALT       EMSALT IS PAD LOADED
000038:                                                                                                  #                TTE     (-28) CS                TIME TO                    EMSALT       EMSALT IS PAD LOADED
000039:                                                                                                  #                LAT(SPL) /360                   TARGET LOCATION                         LEFT BY DSKY
000040:                                                                                                  #                LNG(SPL) /360                   TARGET LOCATION                         LEFT BY DSKY
000041:                                                                                                  #                HEADSUP (0)                     +1 = LIFT DOWN, -1 = LIFT UP            LEFT BY DSKY
000042:                                                                                                  #  DEBRIS:       SEE SUBROUTINES.
000043:
000044: 26,2217                                           BANK     26
000045: 26,2000                                           SETLOC   P60S
000046: 26,2000                                           BANK
000047:
000048: 26,2217  E6,1661                                  EBANK=   AOG
000049:
000050: 26,2217                                           COUNT*   $$/P61
000051:
000052: 26,2217           35002        P61                CA       BIT14                                 #  EXTENDED VERB SHOULD BE FREE THIS CLOSE
000053: 26,2220           55044                           TS       EXTVBACT                              #  TO V37
000054:                                                                                                  #  LOCK OUT EXTENDED VERBS SO CAN USE TFF
000055:                                                                                                  #  ROUTINES.  EXT VERB ERASE IS USED
000056:
000057: 26,2221           45017                           CS       ONE                                   #  REMOVE IF HEADSUP EVER ON UPLINK DATA
000058: 26,2222           55726                           TS       HEADSUP                               #  PRELOAD
000059:
000060: 26,2223           02544                           TC       S61.1                                 #  CHECK STATE VECTOR AND IMU ORIENTATION
000061:                                                                                                  #  RV 60GENRET. DOES PHASCHNG, GROUP 4.
000062:
000063: 26,2224           32425                           CA       V06N61                                #  LAT(SPL)      LNG(SPL)        HEADSUP
000064:                                                                                                  #  XXX.XX DEG    XXX.XX DEG      XXXXX.
000065: 26,2225           04662                           TC       BANKCALL
000066: 26,2226           21057                           CADR     GOFLASHR
000067: 26,2227           04106                           TC       GOTOPOOH


000069: 26,2230           02235                           TC       P61.4
000070: 26,2231           02224                           TC       -5
000071:
000072: 26,2232           05412        P61.3              TC       PHASCHNG
000073: 26,2233           00014                           OCT      00014
000074:
000075: 26,2234           05217                           TC       ENDOFJOB
000076:
000077: 26,2235           22007        P61.4              ZL
000078: 26,2236           11726                           CCS      HEADSUP                               #  C(HEADSUP)= +1/-1
000079: 26,2237           35002                           CA       BIT14                                 #  IF HEADSUP POS,ROLLC =180 DEG.(LIFT DWN)
000080: 26,2240           12241                           NOOP                                           #  IF HEADSUP NEG,ROLLC =0 (LIFT UP)
000081: 26,2241           53716                           DXCH     ROLLC                                 #  ROLLC IS USED BY S62.3: GIM ANG AT .05G
000082:
000083: 26,2242           06006                           TC       INTPRET
000084: 26,2243           77745        NEWRNVN            DLOAD
000085: 26,2244           01205                                    PIPTIME                               #  SAVE TIME OF RN,VN TO DETERMINE IF AN
000086: 26,2245           37651                           STCALL   MM                                    #  UPDATE HAS OCCURRED
000087: 26,2246           52063                                    STARTEN1                              #  INITIALIZE
000088: 26,2247           77775                           VLOAD
000089: 26,2250           01171                                    RN
000090: 26,2251           02327                           STORE    RONE
000091: 26,2252           77656                           UNIT
000092: 26,2253           26343                           STOVL    URONE
000093: 26,2254           01177                                    VN
000094: 26,2255           02335                           STORE    VONE
000095: 26,2256           53435                           VXV      UNIT
000096: 26,2257           02343                                    URONE
000097: 26,2260           03502                           STORE    UNI
000098: 26,2261           45345        DUMPP61            DLOAD    DSU
000099: 26,2262           03651                                    MM                                    #  INITIAL VALUE OF PIPTIME
000100: 26,2263           01205                                    PIPTIME
000101: 26,2264           45040                           BMN      CALRB
000102: 26,2265           54243                                    NEWRNVN                               #  UPDATED... GO TRY AGAIN
000103: 26,2266           54651                                    S61.2                                 #  GET DISPLAY DATA FOR N60 AND N63
000104:                                                                                                  #  AND RETURN IN BASIC, BELOW.
000105: 26,2267           05536        P61.1              TC       CLEARMRK
000106: 26,2270           32424                           CA       V06N60                                #  GMAX          VPRED           GAMMAEI
000107:                                                                                                  #  XXX.XX G      XXXXX. FPS      XXX.XX DEG
000108: 26,2271           04662                           TC       BANKCALL
000109: 26,2272           20720                           CADR     GOFLASH
000110:
000111: 26,2273           04106                           TC       GOTOPOOH
000112: 26,2274           02276                           TC       P61.2                                 #  PROCEED
000113: 26,2275           02270                           TC       -5
000114:
000115: 26,2276           06006        P61.2              TC       INTPRET                               #  CORRECT TTE FOR TIME LAPSE DURING
000116:                                                                                                  #  ABOVE DISPLAY.
000117: 26,2277           45234                           RTB      DSU
000118: 26,2300           45510                                    LOADTIME                              #  CURRENT TIME.


000120: 26,2301           03651                                    MM                                    #  PIPTIME FOR RONE & VONE.
000121: 26,2302           77615                           DAD
000122: 26,2303           03733                                    TTE1                                  #  NEGATIVE OF FREE FALL TIME.
000123: 26,2304           03727                           STORE    TTE                                   #  DECREMENTED
000124:
000125: 26,2305           77776                           EXIT
000126:
000127: 26,2306           32426                           CA       V06N63                                #  RTGO          VIO             TTE
000128:                                                                                                  #  XXXX.X NM     XXXXX. FPS      XXBXX M,S
000129: 26,2307           04662                           TC       BANKCALL
000130: 26,2310           20720                           CADR     GOFLASH
000131: 26,2311           04106                           TC       GOTOPOOH
000132: 26,2312           02314                           TC       +2
000133: 26,2313           02276                           TC       P61.2                                 #  REDO
000134:
000135:                                                                                                  #                .... THEN FALL INTO P62


000137:
000138:                                                                                                  #  PROGRAM-      P62
000139:                                                                                                  #  MOD NO.-      0       MAR. 13, 1967
000140:                                                                                                  #  MOD BY-       R. HIRSCHKOP
000141:                                                                                                  #  MOD NO:  1    MOD BY:  RR BAIRNSFATHER        DATE: 21 MAR 67
000142:                                                                                                  #  MOD NO:  2    MOD BY:  RR BAIRNSFATHER        DATE: 22 JUN 67         RESTARTS.
000143:                                                                                                  #  MOD NO:  3    MOD BY:  RR BAIRNSFATHER        DATE: 17 JAN 68         COLOSSUS GSOP CHANGES.
000144:                                                                                                  #  MOD NO:  4    MOD BY:  RR BAIRNSFATHER        DATE:  8 MAY 68         MOVE START OF DESIRED GIMBAL CALC.
000145:                                                                                                  #  FUNCTION-     1) TO NOTIFY CREW WHEN GNC SYSTEM IS PREPARED FOR CM/SM SEPARATION
000146:                                                                                                  #                2) TO ORIENT THE CM TO THE CORRECT ATTITUDE FOR ATMOSPHERIC ENTRY
000147:                                                                                                  #  CALLING SEQUENCE-  BY V37 OR DIRECTLY FROM P61
000148:                                                                                                  #  EXIT-         TO P63
000149:                                                                                                  #  ERASABLE INITIALIZATION:
000150:                                                                                                  #        ALFAPAD                                         LEFT BY PAD LOAD
000151:                                                                                                  #        LADPAD                                          LEFT BY PAD LOAD
000152:                                                                                                  #        LODPAD                                          LEFT BY PAD LOAD
000153:                                                                                                  #        LAT(SPL)        (MAY BE CHANGED BELOW)          LEFT BY DSKY, VIA P61
000154:                                                                                                  #        LNG(SPL)        (MAY BE CHANGED BELOW)          LEFT BY DSKY, VIA P61
000155:                                                                                                  #        HEADSUP         (MAY BE CHANGED BELOW)          LEFT BY DSKY, VIA P61
000156:                                                                                                  #  SUBROUTINE CALLS:  NEWMODEX, S61.1, CM/DAPIC, CM/DAPON, R02BOTH, GOPERF1, GOFLASH, GODSPR
000157:
000158: 26,2314                                           COUNT*   $$/P62
000159:
000160: 26,2314           05354                           TC       NEWMODEX                              #  MODE CHANGE IF CAME FROM P61.
000161: 26,2315           00076                           MM       62         B-14                       #  MODE CHANGE AUTOMATIC VIA V 37.
000162: 26,2316           35017                           CA       ONE
000163: 26,2317           54332                           TS       DNLSTCOD
000164:
000165: 26,2320           02544        P62                TC       S61.1                                 #  CHECK STATE VECTOR AND IMU ORIENTATION.
000166:
000167: 26,2321           06006                           TC       INTPRET
000168: 26,2322           47131                           SSP      RTB
000169: 26,2323           03325                                    POSEXIT
000170: 26,2324           54401                                    P62.3                                 #  CALCULATE DESIRED .05G GIMBAL ANGLES,
000171:                                                                                                  #  WITHOUT DISPLAY.
000172: 26,2325           41672                                    CM/DAPIC                              #  START CM/POSE AND BODY RATE CALC
000173:
000174:                                                                                                  #  DOES 2PHSCHNG, OCT 40116, OCT 05024, OCT 13000.
000175:                                                                                                  #  CM/DAPIC SETS EBANK = EBAOG
000176:                                                                                                  #  AND RETURNS IN BASIC TO P62.2.
000177: 26,2326           00006        P62.2              EXTEND
000178: 26,2327           32432                           DCA      POSECADR                              #  CONTINUE WITH CM/POSE AFTER AV G.
000179: 26,2330           53223                           DXCH     AVEGEXIT
000180:
000181: 26,2331           34270                           CAF      OCT41                                 #  REQUEST SEPARATION
000182: 26,2332           04662                           TC       BANKCALL
000183: 26,2333           21125                           CADR     GOPERF1R
000184: 26,2334           04106                           TC       GOTOPOOH
000185: 26,2335           02340                           TC       +3                                    #  PROCEED


000187:                                                                                                  #  NOTE:  NODOFLAG WILL BE SET IN CM/DAPON. <<<
000188: 26,2336           02331                           TC       -5                                    #  ENTER
000189: 26,2337           02232                           TC       P61.3                                 #  FOR PHASCHNG AND ENDOFJOB.
000190:
000191: 26,2340           04701                 +3        TC       POSTJUMP
000192: 26,2341           41612                           CADR     CM/DAPON                              #  DISABLE RCS DAP, ENABLE ENTRY DAP AND
000193:                                                                                                  #  DO ATTITUDE HOLD.
000194:
000195:                                                                                                  #  WILL IDLE UNTIL CM/POSE DOES ONE UPDATE.
000196:                                                                                                  #  CM/DAPON DOES NO PHASCHNG.
000197:
000198: 26,2342           32425        P62.1              CA       V06N61                                #  LAT(SPL)      LNG(SPL)        HEADSUP
000199:                                                                                                  #  XXX.XX DEG    XXX.XX DEG      0000X.
000200:
000201:                                                                                                  #  TERMINATE ATTITUDE HOLD.  SET UP COMMANDS:
000202:                                                                                                  #  ROLLC, ALFACOM, BETACOM.  BEGIN MANUVER TO
000203:                                                                                                  #  ENTRY ATTITUDE.
000204:
000205: 26,2343           04662                           TC       BANKCALL
000206: 26,2344           20720                           CADR     GOFLASH
000207: 26,2345           02342                           TC       -3
000208: 26,2346           02350                           TC       +2
000209: 26,2347           02342                           TC       -5
000210:
000211: 26,2350           05412                           TC       PHASCHNG
000212: 26,2351           04024                           OCT      04024                                 #  USE ENTRYVN FOR DISPLAY BELOW.
000213:                                                                                                  #  EBANK WAS SET IN CM/DAPON TO EBAOG
000214:
000215: 26,2352           11726                           CCS      HEADSUP                               #  C(HEADSUP) = +/- 1
000216: 26,2353           35002                           CA       BIT14                                 #  IF HEADSUP POS, ROLLC=180 DEG (LIFT DWN)
000217: 26,2354           12355                           NOOP                                           #  IF HEADSUP NEG, ROLLC=0 DEG (LIFT UP)
000218: 26,2355           55715                           TS       ROLLC
000219: 26,2356           31411                           CA       ALFAPAD                               #  NOMINAL ALFATRIM PAD LOADED, NEG. NO.
000220: 26,2357           22007                           ZL
000221: 26,2360           53604                           DXCH     ALFACOM                               #  SET ALFACOM = ALFA TRIM, BETACOM=0
000222:
000223: 26,2361           35017                           CA       ONE                                   #  PERMITS EXDAP2 TO CHANGE FLAG TO +0
000224: 26,2362           55727                           TS       P63FLAG                               #  AS INDICATOR.  STARTS UP P63.
000225:
000226: 26,2363           35052                           CA       V06N22                                #  SET UP DISPLAY FOR CDU DESIRED VALUES
000227: 26,2364           55263                           TS       ENTRYVN                               #  FROM ENTRY ATTITUDE CALC, THAT IS
000228:                                                                                                  #  ALREADY GOING.
000229: 26,2365           05546                           TC       UPFLAG                                #  TURN ON ENTRY DISPLAY
000230: 26,2366           00134                           ADRES    ENTRYDSP                              #  ENTRYDSP = 92D BIT 13 FLAG 6
000231:                                                                                                  #  SKIP


000233: 26,2367           41700                           CS       CMDAPMOD                              #  GO DIRECTLY TO P63 IF BODY ATTITUDE
000234: 26,2370           75017                           MASK     ONE                                   #  IS SUCH THAT THE DELAY TASK: WAKEP62
000235: 26,2371           00006                           EXTEND                                         #  WILL BE OMITTED.
000236: 26,2372           12421                           BZF      P63.1                                 #  DISABLE GRP 4, GO TO ENDOFJOB.
000237:                                                                                                  #  (IE, CONTINUE IF CMDAPMOD = -1, OR +0)
000238: 26,2373           02405                           TC       P63
000239:
000240:                                                                                                  #  PUT JOB TO SLEEP UNTIL VEHICLE MANUVER HAS
000241:                                                                                                  #  REDUCED ALFA TO +/-45 DEG. CONSIDER REMAINING
000242:                                                                                                  #  65 DEG (25 DEG IF ALFA NEG) TO ALFA TRIM TO
000243:                                                                                                  #  OCCUR AT 3 DEG/SEC, AND TERMINATE P62 AT THAT
000244:                                                                                                  #  TIME.
000245:
000246:                                                                                                  #  TASK WAKEP62 IS CALLED FROM ENTRY DAP.
000247: 26,2374           35065        WAKEP62            CA       PRIO13
000248: 26,2375           05134                           TC       NOVAC
000249: 26,2376  E6,1661                                  EBANK=   AOG
000250: 26,2376           02405 54066                     2CADR    P63
000251:
000252: 26,2400           05324                           TC       TASKOVER
000253:
000254:                                                                                                  #  EACH 2 SEC, CALCULATE GIMBAL ANGLES FOR ENTRY CON-
000255:                                                                                                  #  DITIONS THAT WILL HOLD IF REORIENTATION WERE MADE
000256:                                                                                                  #  AT PRESENT RN, VN.  COME HERE FROM CM/POSE AND ALSO
000257:                                                                                                  #  IN KEPLER PHASE OF ENTRY.
000258:
000259: 26,2401           52131        P62.3              SSP      GOTO                                  #  SET RETURN ADDRESS SO THAT ROUTINE
000260: 26,2402           00053                                    QPRET                                 #  GOES DIRECTLY TO ENTRY GUIDANCE EXIT
000261: 26,2403           53576                                    ENDEXIT                               #  THAT DOES ENTRY DISPLAY, GRP 5.
000262: 26,2404           20376                                    S62.3                                 #  PUT DESIRED CDU VALUES IN CPHI'S FOR
000263:                                                                                                  #  N22 DISPLAY.
000264:


000266:                                                                                                  #        P63
000267:                                                                                                  #  PROGRAM-      P63
000268:                                                                                                  #  MOD NO.-      0       MAR. 13, 1967
000269:                                                                                                  #  MOD BY-       R. HIRSCHKOP
000270:                                                                                                  #  MOD NO: 1     MOD BY: RR BAIRNSFATHER         DATE: 22 JIN 67         RESTARTS.
000271:                                                                                                  #  MOD NO: 2     MOD BY: RR BAIRNSFATHER         DATE: 14 JUL 67         REVISED RESTARTS
000272:                                                                                                  #  FUNCTION-     1) TO INITIALIZE THE ENTRY EQUATIONS
000273:                                                                                                  #                2) TO CONTINUE TO HOLD THE CM TO THE CORRECT ATTITUDE WITH RESPECT TO THE ATMOSPHERE FOR
000274:                                                                                                  #                   THE ONSET OF ENTRY DECELERATION.  ROLL ANGLE IS LIFT UP/DOWN AS SPECIFIED BY HEADSUP.
000275:                                                                                                  #                3) TO SENSE .05 G
000276:                                                                                                  #  CALLING SEQUENCE-  DIRECTLY FROM P62
000277:                                                                                                  #  EXIT-         TO ENDOFJOB
000278:                                                                                                  #  SUBROUTINE CALLS-  NEWMODEX, GODSPR
000279:
000280: 26,2405                                           COUNT*   $$/P63
000281:
000282: 26,2405           05354        P63                TC       NEWMODEX
000283: 26,2406           00077                           MM       63         B-14
000284:
000285:                                                                                                  #  ARRIVE WITH EBANK = AOG.
000286:
000287: 26,2407           32430                           CA       ENTCADR                               #  CONTINUE AT STARTENT AFTER CM/POSE.
000288:
000289:                                                                                                  #  AT END OF STARTENT, CHANGE ADDRESS IN GOTOADDR
000290:                                                                                                  #  TO CONTINUE AT SCALEPOP THEREAFTER.
000291:
000292: 26,2410           55724                           TS       POSEXIT
000293:
000294: 26,2411           32427                           CA       V06N64                                #  G             VI              R TO SPLSH
000295:                                                                                                  #  XXX.XX G      XXXXX. FPS      XXXX.X NM
000296: 26,2412           55263                           TS       ENTRYVN                               #  FOR DISPLAY CALL IN OVERNOUT.
000297:
000298: 26,2413           45017                           CS       ONE                                   #  IN CASE FLAG IS LEFT AT +1 BY DAP.  THE
000299: 26,2414           55727                           TS       P63FLAG                               #  -1 ASSURES THAT EXO-ATM DAP WILL NOT
000300:                                                                                                  #  CALL P63 OUT OF SEQUENCE IN P66.
000301:
000302: 26,2415           05412                           TC       PHASCHNG                              #  THIS IS REQUIRED TO PRESERVE CLEANDSP
000303: 26,2416           00004                           OCT      00004                                 #  RETURN IN EVENT OF AN EXTENDED VERB..
000304:
000305: 26,2417           04662                           TC       BANKCALL                              #  FLUSH 'N22' DISPLAY, IF ON. (OMIT
000306: 26,2420           20703                           CADR     CLEANDSP                              #  DISPLAY DURING 'STARTENT' PASS.)
000307:
000308: 26,2421           05412        P63.1              TC       PHASCHNG
000309: 26,2422           00004                           OCT      00004                                 #  DISABLE.  DISPLAY RESTARTED VIA ENTRY.
000310:
000311: 26,2423           05217                           TC       ENDOFJOB
000312:
000313: 26,2424           01474        V06N60             VN       0660
000314: 26,2425           01475        V06N61             VN       0661
000315: 26,2426           01477        V06N63             VN       0663


000317: 26,2427           01500        V06N64             VN       0664
000318: 26,2430           52000        ENTCADR            CADR     STARTENT
000319:
000320: 26,2431  E7,1451                                  EBANK=   RTINIT                                #  TO CARY OVER INTO ENTRY STEERING.
000321: 26,2431           03467 76067  POSECADR           2CADR    CM/POSE
000322:


000324:                                                                                                  #  PROGRAM-      P64
000325:                                                                                                  #  MOD NO.-      1       SEPT. 19, 1967
000326:                                                                                                  #  MOD BY-       R. HIRSCHKOP
000327:                                                                                                  #  MOD NO: 2     MOD BY: RR BAIRNSFATHER         DATE: 8 MAY 68          REVISED COMMENTS FOR COLOSSUS
000328:                                                                                                  #  FUNCTION-     1.  TO START ENTRY GUIDANCE AT .05G SELECTING ROLL ATTITUDE, CONSTANT DRAG LEVEL, AND
000329:                                                                                                  #                    DRAG THRESHOLD, KA, WHICH ARE KEYED TO THE .05G POINT.
000330:                                                                                                  #                2.  SELECT FINAL PHASE P67 IF V < 27000 FPS WHEN .2G OCCURS.
000331:                                                                                                  #                3.  ITERATE FOR UP-CONTROL SOLUTION P65 IF V > 27000 FPS AND IF ALTITUDE RATE AND DRAG
000332:                                                                                                  #                    LEVEL CONDITIONS ARE SATISFIED.  ENTER P65 WHEN CONSTANT DRAG CONTROLLER HAS BROUGHT RANGE
000333:                                                                                                  #                    AS PREDICTED TO WITHIN 25 NM OF DESIRED RANGE.
000334:                                                                                                  #                4.  SELECT FINAL PHASE  P67  IF NO UP-CONTROL SOLUTION EXISTS WITH VL > 18000 FPS.
000335:                                                                                                  #  CALLING SEQUENCE-  BY RTB FROM REENTRY CONTROL
000336:                                                                                                  #  EXIT-         BACK TO REENTRY CONTROL
000337:                                                                                                  #  SUBROUTINE CALLS-  NEWMODEX
000338:
000339: 25,2000                                           BANK     25
000340: 26,2000                                           SETLOC   P60S1
000341: 26,2000                                           BANK
000342:
000343:                                                                                                  #  THIS DISPLAY IS CALLED EACH PASS THROUGH STEERING.  RESTART PROTECTION IS VIA STEERING.
000344:
000345: 26,2433                                           COUNT*   $$/P64
000346:
000347: 26,2433           05354        P64                TC       NEWMODEX                              #  ENTER VIA RTB WHEN .05G IS EXCEEDED.
000348: 26,2434           00100                           MM       64         B-14
000349: 26,2435           32440                           CA       V06N68                                #  ROLLC         VI              HDOT
000350:                                                                                                  #  XXX.XX DEG    XXXXX. FPS      XXXXX. FPS
000351: 26,2436           55263                           TS       ENTRYVN                               #  DISPLAY VIA OVERNOUT.
000352:
000353: 26,2437           06030                           TC       DANZIG                                #  ... AND CONTINUE IN INITROLL ...
000354: 26,2440           01504        V06N68             VN       0668
000355:


000357:                                                                                                  #  PROGRAM:      P65
000358:                                                                                                  #  MOD NO:  0    MOD BY:  RR BAIRNSFATHER        DATE:  17 JAN 68        COLOSSUS GSOP ADDITION.
000359:                                                                                                  #  FUNCTION:     TO CONTINUE ENTRY GUIDANCE, USING THE UP-CONTROL PHASE TO STEER TO A CONTROLLED EXIT
000360:                                                                                                  #                CONDITION.  THIS PHASE TERMINATES  A) IF D < Q7 FPSS, GO TO P66   ,
000361:                                                                                                  #                                                   B) IF RDOT NEG, AND IF V < VL +500 FPS, GO TO P67.
000362:                                                                                                  #  CALLING SEQUENCE:  BY RTB FROM REENTRY CONTROL
000363:                                                                                                  #  EXIT:         BACK TO REENTRY CONTROL, OR TO ENDOFJOB.
000364:                                                                                                  #  SUBROUTINE CALLS:  NEWMODEX
000365:
000366: 26,2441                                           COUNT*   $$/P65
000367:
000368: 26,2441           05354        P65                TC       NEWMODEX                              #  ENTER VIA RTB WHEN RANGE < 25 N M OF
000369: 26,2442           00101                           MM       65         B-14                       #  TARGET.
000370:
000371: 26,2443           35065                           CA       PRIO13
000372: 26,2444           05134                           TC       NOVAC
000373: 26,2445     1263                                  EBANK=   ENTRYVN
000374: 26,2445           02457 54062                     2CADR    P65.1
000375:
000376: 26,2447           05372                           TC       2PHSCHNG                              #  2 PHASE CHG REQUIRED TO PREVENT RE-
000377: 26,2450           00554                           OCT      00554                                 #  STARTING FLASHING DISPLAY TWICE.
000378: 26,2451           10035                           OCT      10035                                 #  4.55 SPOT AND SERVICER, HERE.
000379: 26,2452           06006                           TC       INTPRET
000380: 26,2453           47131                           SSP      RTB
000381: 26,2454           03646                                    GOTOADDR                              #  CHANGE ENTRY MODE TO UPCONTRL.
000382: 26,2455           53035                                    UPCONTRL
000383: 26,2456           52120                                    REFAZE10                              #  GO HERE TO REESTABLISH ENTRY SEQUENCER.
000384:                                                                                                  #  AND CONTINUE AT UPCONTRL...
000385:
000386: 26,2457           05560        P65.1              TC       DOWNFLAG
000387: 26,2460           00134                           ADRES    ENTRYDSP                              #  ENTRYDSP = 92D BIT 13 FLAG 6
000388:
000389: 26,2461           32473                           CA       V16N69                                #  ROLLC         DL (Q7)         VL
000390: 26,2462           04662                           TC       BANKCALL                              #  XXX.XX DEG    XXX.XX G        XXXXX. FPS
000391: 26,2463           21057                           CADR     GOFLASHR
000392: 26,2464           02461                           TC       -3                                    #  NODOFLAG IS SET..
000393: 26,2465           02470                           TC       +3
000394: 26,2466           02461                           TC       -5
000395: 26,2467           02232                           TC       P61.3                                 #  EST. GRP 4 FOR DSPLAY AND DO ENDOFJOB
000396:                                                                                                  #  IF PROCEED, CONTINUE.
000397: 26,2470           05546                           TC       UPFLAG
000398: 26,2471           00134                           ADRES    ENTRYDSP                              #  ENTRYDSP = 92D BIT 13 FLAG 6
000399:
000400: 26,2472           02421                           TC       P63.1                                 #  DISABLE GRP 4,START UP ENTRY DISPLAY
000401:                                                                                                  #  N06V68 VIA OVERNOUT, AS USED IN P64.
000402: 26,2473           04105        V16N69             VN       1669
000403:


000405:                                                                                                  #  PROGRAM:      P66
000406:                                                                                                  #  MOD NO: 0     MOD BY: RR BAIRNSFATHER         DATE: 17 JAN 68         COLOSSUS GSOP ADDITIONS.
000407:                                                                                                  #  FUNCTION:     KEEP CM ATTITUDE IN TRIM TO THE RELATIVE VELOCITY VECTOR.  ENTRY GUIDANCE STOPS GENERATING
000408:                                                                                                  #                ROLL COMMANDS UNTIL DRAG BUILDS UP TO Q7+0.5 FPSS.
000409:                                                                                                  #  CALLING SEQUENCE:  VIA RTB FROM REENTRY CONTROL.
000410:                                                                                                  #  EXIT:         BACK TO REENTRY CONTROL.
000411:                                                                                                  #  SUBROUTINE CALLS:  NEWMODEX
000412:
000413: 26,2474                                           COUNT*   $$/P66
000414:
000415: 26,2474           05354        P66                TC       NEWMODEX                              #  ENTER VIA RTB WHEN D < Q7 FPSS
000416: 26,2475           00102                           MM       66         B-14
000417:
000418: 26,2476           35052                           CA       V06N22                                #  OGA           IGA             MGA
000419:                                                                                                  #  XXX.XX DEG    XXX.XX DEG      XXX.XX DEG
000420: 26,2477           02503                           TC       P66END                                #  IN CASE CAME FROM P65, GO DISABLE GRP4,
000421:                                                                                                  #  AND SET ENTRYDSP TO DO DISPLAY VIA
000422:                                                                                                  #  OVERNOUT.
000423:
000424:                                                                                                  #  ... AND CONTINUE AT KEP2
000425:


000427:                                                                                                  #  P67
000428:
000429:                                                                                                  #  PROGRAM-      P67
000430:                                                                                                  #  MOD NO.-      0       MAR. 16, 1967
000431:                                                                                                  #  MOD BY-       R. HIRSCHKOP
000432:                                                                                                  #  FUNCTION-     TO TERMINATE STEERING WHEN THE CM VELOCITY WRT EARTH = 1000 FT/SEC
000433:                                                                                                  #  CALLING SEQUENCE-
000434:                                                                                                  #  EXIT-         TO POOH
000435:                                                                                                  #  SUBROUTINE CALLS-  GOFLASH
000436:
000437:                                                                                                  #  THIS DISPLAY IS CALLED EACH PASS THROUGH STEERING.  RESTART PROTECTION IS VIA STEERING.
000438:
000439: 26,2500                                           COUNT*   $$/P67
000440:
000441: 26,2500           05354        P67                TC       NEWMODEX                              #  ENTER VIA RTB
000442: 26,2501           00103                           MM       67         B-14
000443: 26,2502           32511                           CA       V06N66                                #  ROLLC         XRNGERR         DNRNGERR
000444:                                                                                                  #  XXX.XX DEG    XXXX.X NM       XXXX.X NM
000445: 26,2503           55263        P66END             TS       ENTRYVN                               #  DISPLAY VIA OVERNOUT.
000446:
000447: 26,2504           05546                           TC       UPFLAG                                #  (IN CASE CAME FROM P65.  ENTRY DISPLAY
000448: 26,2505           00134                           ADRES    ENTRYDSP                              #  WILL FLUSH FLASHING DISP.  IF STILL ON)
000449:                                                                                                  #  BIT 13 FLAG 6
000450: 26,2506           05412        KILLGRP4           TC       PHASCHNG                              #  DISABLE GRP4, IN CASE CAME FROM HUNTEST.
000451: 26,2507           00004                           OCT      00004                                 #  (COME TO KILLGRP4 VIA RTB, RET TO CALLER)
000452:
000453: 26,2510           06030                           TC       DANZIG                                #  ... AND CONTINUE AT PREDICT3 ...
000454:
000455: 26,2511           01502        V06N66             VN       0666
000456:
000457: 26,2512                                           BANK     26
000458: 26,2000                                           SETLOC   P60S2
000459: 26,2000                                           BANK
000460:
000461: 26,2512           32543        P67.1              CA       V16N67                                #  RTOGO         LAT             LONG
000462:                                                                                                  #  XXXX.X NM     XXX.XX DEG      XXX.XX DEG
000463: 26,2513           04662                           TC       BANKCALL
000464: 26,2514           20720                           CADR     GOFLASH
000465: 26,2515           02520                           TC       +3                                    #  EFFECTIVE GOTOPOOH
000466: 26,2516           02520                           TC       +2
000467: 26,2517           02512                           TC       P67.1                                 #  REDO
000468:
000469: 26,2520           46214                           CS       THREE                                 #  TURN OFF ENTRY DAP
000470: 26,2521           00004                           INHINT
000471: 26,2522           70102                           MASK     CM/FLAGS                              #  CM/DSTBY, GAMDIFSW
000472: 26,2523           54102                           TS       CM/FLAGS
000473: 26,2524           00003                           RELINT
000474: 26,2525           00006                           EXTEND
000475: 26,2526           32643                           DCA      SERVCAD2
000476:


000478: 26,2527           53223                           DXCH     AVEGEXIT
000479:
000480: 26,2530           14106                           TCF      GOTOPOOH
000481:


000483: 26,2531           43175        P67.2              VLOAD    CLEAR                                 #  CALC PRESENT LAT, LONG, ALT.
000484: 26,2532           01171                                    RN
000485: 26,2533           00662                                    ERADFLAG                              #  USE PAD RAD FOR ALT. (NOT SEEN ANYWAY)
000486: 26,2534           16152                           STODL    ALPHAV
000487: 26,2535           01205                                    PIPTIME                               #  USE TIME OF RN
000488: 26,2536           45014                           CLEAR    CALL
000489: 26,2537           01663                                    LUNAFLAG
000490: 26,2540           26370                                    LAT-LONG
000491: 26,2541           77634        P67.3              RTB                                            #  ENTRY EXIT THAT OMITS DISPLAY.
000492: 26,2542           53611                                    SERVNOUT
000493:
000494: 26,2543           04103        V16N67             VN       1667
000495: 26,2544     4270               OCT41              =        33DEC
000496: 26,2544  26,2642               SERVCAD2           =        SERVCAD1
000497:


000499:                                                                                                  #  SUBROUTINE NAME:      S61.1
000500:                                                                                                  #  MOD NO:       0                                       DATE:           21 FEB 67
000501:                                                                                                  #  MOD BY:       RR BAIRNSFATHER                         LOG SECTION:    P61-P67
000502:                                                                                                  #  MOD NO:       1       MOD BY: RR BAIRNSFATHER         DATE:           22 JUN 67       RESTARTS.
000503:
000504:                                                                                                  #  FUNCTIONAL DESCRIPTION:       CALLED BY BOTH P61 AND P62
000505:                                                                                                  #        FIRST, TEST TO SEE IF  AVERAGEG  IS ON.  IF NOT, UPDATE THE STATE VECTOR TO PRESENT TIME + TOLERANCE
000506:                                                                                                  #        AND TURN ON  AVERAGEG  AT THAT TIME, AND CONTINUE.  OTHERWISE CONTINUE:  SEE IF IMU Y AXIS IS
000507:                                                                                                  #        WITHIN 30 DEG OF V*R.  IF YES, EXIT SUBROUTINE S61.1.  IF NO, SEE IF -Y AXIS OF IMU IS WITHIN
000508:                                                                                                  #        30 DEG OF V*R.  IF YES, DISPLAY ALARM:  01427   IMU REVERSED.
000509:                                                                                                  #                        IF NO, DISPLAY ALARM:   01426   IMU UNSATISFACTORY.
000510:                                                                                                  #        IN EITHER OF THESE LAST 2 CASES, WAIT 10 SEC AND THEN EXIT SUBROUTINE S61.1.
000511:
000512:                                                                                                  #  REMARK:       THERE WILL BE A SHORT 10 SEC DELAY IF AN ALARM EXIT IS TAKEN.  THE DELAY FOR INTEGRATION IS
000513:                                                                                                  #                AS SHORT AS CAN BE MADE, BUT IS ARBITRARY SINCE IT DEPENDS ON THE AGE OF THE STATE VECTOR.
000514:
000515:                                                                                                  #  CALLING SEQUENCE:     CALL
000516:                                                                                                  #                                S61.1
000517:
000518:                                                                                                  #                        C(MPAC) UNSPECIFIED
000519:                                                                                                  #                        PUSHLOC UNSPECIFIED
000520:
000521:                                                                                                  #  SUBROUTINES CALLED:   LOADTIME, CSMPREC, TPAGREE,
000522:                                                                                                  #                        WAITLIST, JOBSLEEP, JOBWAKE, PREREAD, ALARM, GODSPR, BANKCALL, DELAYJOB
000523:
000524:                                                                                                  #  NORMAL EXIT MODES:    RVQ
000525:
000526:                                                                                                  #  ALARMS:       01426   IMU UNSATISFACTORY
000527:                                                                                                  #                01427   IMU REVERSED
000528:
000529:                                                                                                  #  OUTPUT:       POSSIBLE ALARMS
000530:                                                                                                  #                POSSIBLY TDEC1, RATT, VATT, RN, VN
000531:
000532:                                                                                                  #  ERASABLE INITIALIZATION REQUIRED:
000533:                                                                                                  #        AVEGFLAG                AVERAGEG ON OR OFF                              LEFT BY SERVICER
000534:                                                                                                  #        PIPTIME   (-28) CS      TIME OF PIPA UPDATE                             LEFT BY READACCS
000535:                                                                                                  #        RN        (-29) M       STATE VECTOR                                    LEFT BY AVERAGEG
000536:                                                                                                  #        VN        (-7) M/CS     STATE VECTOR                                    LEFT BY AVERAGEG
000537:                                                                                                  #        REFSMMAT  (-1)          .5 REF TO SM MATRIX                             LEFT BY LAST IMU ALIGNMENT
000538:
000539:                                                                                                  #  DEBRIS:       QPRET
000540:                                                                                                  #                POSSIBLY PIPTIME1, RATT, VATT, TDEC1, RN1, VN1, QTEMP, X1       IF UPDATED
000541:                                                                                                  #                PUSH LIST LOCS USED BY CSMPREC
000542:
000543: 26,2544  E6,1661                                  EBANK=   AOG                                   #  FOR 60GENRET, S61DT
000544: 26,2544                                           BANK     26
000545: 26,2000                                           SETLOC   P60S3
000546: 26,2000                                           BANK
000547:
000548: 26,2544                                           COUNT*   $$/S61.1
000549:
000550: 26,2544           00006        S61.1              EXTEND
000551: 26,2545           23773                           QXCH     60GENRET                              #  SAVE RET ADDR IN EB 6
000552: 26,2546           04662                           TC       BANKCALL
000553: 26,2547           17653                           CADR     R02BOTH
000554: 26,2550           06006                           TC       INTPRET


000556: 26,2551           45014                           BON      CALRB
000557: 26,2552           00716                                    AVEGFLAG                              #  IS AVERAGEG ON
000558: 26,2553           54604                                    S61.1A                                #  YES
000559: 26,2554           27543                                    MIDTOAV2                              #  GET FUTURE STATE VECTOR SOON AS CAN
000560:
000561: 26,2555           30155                           CA       MPAC       +1                         #  RETURN INHINTED ***
000562: 26,2556           55774                           TS       S61DT                                 #  FOR RESTART.
000563: 26,2557           05245                           TC       WAITLIST
000564: 26,2560  E7,1431                                  EBANK=   DVCNTR
000565: 26,2560           02565 54067                     2CADR    S61.1C
000566:
000567: 26,2562           05412                           TC       PHASCHNG
000568: 26,2563           40434                           OCT      40434
000569: 26,2564           05217                           TC       ENDOFJOB
000570:
000571: 26,2565           35065        S61.1C             CA       PRIO13
000572: 26,2566           05147                           TC       FINDVAC
000573: 26,2567  E6,1661                                  EBANK=   AOG
000574: 26,2567           02603 54066                     2CADR    S61.1A     -1
000575:
000576: 26,2571           00006                           EXTEND
000577: 26,2572           32643                           DCA      SERVCAD1                              #  HE WHO STARTS AVERAGEG MUST SERVICE
000578: 26,2573           53223                           DXCH     AVEGEXIT                              #  THE EXIT.
000579:
000580: 26,2574           05372                           TC       2PHSCHNG
000581: 26,2575           00454                           OCT      00454
000582: 26,2576           00415                           OCT      00415
000583:
000584: 26,2577           35060                           CA       EBENTRY                               #  SET EB= 7 FOR PREREAD.
000585: 26,2600           54003                           TS       EBANK
000586:
000587: 26,2601           04701                           TC       POSTJUMP
000588: 26,2602           76700                           CADR     PREREAD                               #  PREREAD DOES TC TASKOVER.
000589:
000590: 26,2603           06006                           TC       INTPRET
000591: 26,2604           77204        S61.1A             BOVB     VLOAD
000592: 26,2605           57352                                    TCDANZIG                              #  TURN OFF OVFIND, IF ON
000593: 26,2606           01177                                    VN                                    #  VN    (-7) M/CS
000594: 26,2607           64235                           VXV      MXV
000595: 26,2610           01171                                    RN                                    #  RN    (-29) M
000596: 26,2611           01736                                    REFSMMAT                              #  .5 UNIT MATRIX
000597: 26,2612           71256                           UNIT     DLOAD
000598: 26,2613           00160                                    MPAC       +3                         #  GET COS(THETA)/2
000599: 26,2614           43240                           BMN      DAD
000600: 26,2615           54622                                    S61.1B                                #  DO TEST ON -YSM
000601: 26,2616           14645                                    C(30)LIM                              #  = 1.0 -.5 COS(30)
000602: 26,2617           47004                           BOVB     RTB
000603: 26,2620           54641                                    RETRN1
000604: 26,2621           54626                                    RETRN3


000606: 26,2622           43276        S61.1B             DCOMP    DAD
000607: 26,2623           14645                                    C(30)LIM                              #  = 1.0 - .5 COS(30)
000608: 26,2624           77404                           BOVB     EXIT
000609: 26,2625           54631                                    RETRN2
000610:
000611: 26,2626           05650        RETRN3             TC       ALARM
000612: 26,2627           01426                           OCT      01426                                 #  IMU UNSATISFACTORY
000613: 26,2630           02633                           TC       RETRN2     +2
000614:
000615: 26,2631           05650        RETRN2             TC       ALARM
000616: 26,2632           01427                           OCT      01427                                 #  IMU REVERSED
000617:
000618: 26,2633           35050                 +2        CAF      V05N09
000619: 26,2634           04662                           TC       BANKCALL
000620: 26,2635           20676                           CADR     GODSPR                                #  DO DISPLAY
000621: 26,2636           32646                           CA       10SECS
000622: 26,2637           04662                           TC       BANKCALL
000623: 26,2640           01732                           CADR     DELAYJOB
000624:
000625: 26,2641           01773        RETRN1             TC       60GENRET
000626:
000627: 26,2642  E7,1431                                  EBANK=   DVCNTR
000628: 26,2642           03226 76067  SERVCAD1           2CADR    SERVEXIT
000629:
000630: 26,2644           22111 17335  C(30)LIM           2DEC     .566985                               #  = 1.0 - .5 COS(30)
000631:
000632: 26,2646           01750        10SECS             DEC      1000       B-14                       #  1000 CS
000633: 26,2647           00000 13560  60SECDP            2DEC     6000       B-28                       #  6000 CS
000634:


000636:                                                                                                  #  PROGRAM NAME:         S61.2                   DATE:           14 FEB 67
000637:                                                                                                  #  MOD NO:       1                               LOG SECTION:    P61-P67
000638:                                                                                                  #  MOD BY:       MORTH / BAIRNSFATHER
000639:                                                                                                  #  MOD NO: 2     MOD BY: MORTH/BAIRNSFATHER      DATE: 11 MAY 67         ADD 2ND ITER FOR ERAD AT 400K FT.
000640:                                                                                                  #  MOD NO: 3     MOD BY: RR BAIRNSFATHER         DATE: 21 NOV 67         VARIABLE MU ADDED.
000641:                                                                                                  #  MOD NO: 4     MOD BY: RR BAIRNSFATHER         DATE: 21 MAR 68         DIFFERENT EARTH/MOON SCALES IN TFF'S
000642:
000643:                                                                                                  #  FUNCTIONAL DESCRIPTION:  CALLED BY P61.  PROVIDES DISPLAYS FOR NOUNS  N60  AND  N63 .
000644:                                                                                                  #        PROGRAM CALCULATES ENTRY DISPLAY OF MAXIMUM ACCELERATION EXPECTED  (GMAX)  AND ALSO THE EXPECTED
000645:                                                                                                  #        INERTIAL VELOCITY (VPRED) AND ENTRY ANGLE  (GAMMAEI)  THAT WILL OBTAIN AT 400K FT ABOVE THE FISCHER
000646:                                                                                                  #        ELLIPSOID.  PROGRAM ALSO CALCULATES A SECOND DISPLAY RELATIVE TO THE  EMSALT  ABOVE FISCHER ELLIPSOID
000647:                                                                                                  #        AND CONSISTS OF RANGE TO SPLASH FROM NOW  (RTGO) , PREDICTED INERTIAL VELOCITY  (VIO) , AND THE TIME TO
000648:                                                                                                  #        GO FROM NOW  (TTE) .
000649:
000650:                                                                                                  #  CALLING SEQUENCE:     CALL
000651:                                                                                                  #                                S61.2
000652:                                                                                                  #                        C(MPAC) UNSPECIFIED
000653:                                                                                                  #                        PUSHLOC WILL BE SET TO ZERO.
000654:
000655:                                                                                                  #  SUBROUTINES CALLED:   TFFCONIC, CALCTFF, TFF/TRIG, FISHCALC, GETERAD, VGAMCALC
000656:
000657:                                                                                                  #  NORMAL EXIT MODES:    RTB   P61.1
000658:
000659:                                                                                                  #  ALARMS:       NONE
000660:
000661:                                                                                                  #  OUTPUT:       THE FOLLOWING REGISTERS ARE WRITTEN IN FOR USE BY DISPLAYS
000662:                                                                                                  #                GMAX    100 GMAX (-14) G,S      MAXIMUM ACCELERATION
000663:                                                                                                  #                VPRED   (-7) M/CS               PREDICTED VELOCITY AT 400K FT
000664:                                                                                                  #                GAMMAEI GAMMA/360               PREDICTED GAMMA    AT 400K FT
000665:                                                                                                  #                                                FOR TM, DP(GAMMAEI) = (GAMMAEI, RTGO) / 360
000666:                                                                                                  #                RTGO    THETAH/360              RANGE ANGLE TO SPLASH FROM EMSALT       EMSALT IS PAD LOADED
000667:                                                                                                  #                VIO     (-7) M/CS               INERTIAL VELOCITY AT      EMSALT        EMSALT IS PAD LOADED
000668:                                                                                                  #                TTE     (-28) CS                TIME TO                    EMSALT       EMSALT IS PAD LOADED
000669:                                                                                                  #                PUSHLOC = 0
000670:                                                                                                  #                CONIC PARAMETERS STORED IN VAC AREA (SEE TFF SUBROUTINES)
000671:
000672:                                                                                                  #  ERASABLE INITIALIZATION REQUIRED:
000673:                                                                                                  #                RONE    (-29) M                 STATE VECTOR                            LEFT BY USER
000674:                                                                                                  #                VONE    (-7) M/CS               STATE VECTOR                            LEFT BY USER
000675:                                                                                                  #                URONE   UR/2                                                            LEFT BY USER
000676:                                                                                                  #                UNI     (-1)                    UNIT NORMAL V*R                         LEFT BY ENTRY / P61
000677:                                                                                                  #                THETAH  THETAH/360              RANGE ANGLE                             LEFT BY ENTRY / P61
000678:                                                                                                  #                UNITW   (0)                     UNIT POLAR VECTOR                       LEFT BY PAD LOAD
000679:                                                                                                  #                EMSALT  (-29) M                 EMS INTERFACE ALTITUDE                  LEFT BY PAD LOAD
000680:                                                                                                  #                                                ORBITAL REENTRY: 284643 FT, LUNAR REENTRY: 297431 FT.
000681:
000682:                                                                                                  #  DEBRIS:       QPRET,
000683:                                                                                                  #                ALL PDL LOCATIONS ABOVE 12D, INCLUDING X1,X2,S1,S2
000684:                                                                                                  #                ALSO PDL+0 ... PDL+5, WHERE INITIAL PUSHLOC = PDL
000685:


000687:                                                                                                  #  THE FOLLOWING PUSH LIST LOCATIONS HAVE BEEN RESERVED FOR TFF ROUTINES AND ARE REPEATED HERE FOR CONVENIENCE.
000688:                                                                                                  #  OF COURSE FOR S61.2 USAGE, EARTH ORIGIN SCALING IS USED.
000689:
000690:                                                                                                  #                                BELOW   E:  IS USED FOR EARTH ORIGIN SCALE
000691:                                                                                                  #                                        M:  IS USED FOR MOON ORIGIN SCALE
000692:
000693:                                                                                                  #        RTERM   =       18D             TERMINAL RADIUS M       E:  (-29)       M:  (-27)
000694:                                                                                                  #        NRTERM  =       16D             TERMINAL RADIUS M       E:  (-29+NR)
000695:                                                                                                  #                                                                M:  (-27+NR)
000696:                                                                                                  #        RMAG1   =       12D             PRESENT RADIUS M        E:  (-29)       M:  (-27)
000697:                                                                                                  #        NRMAG   =       32D             PRESENT RADIUS M        E:  (-29+NR)
000698:                                                                                                  #                                                                M:  (-27+NR)
000699:                                                                                                  #        SDELF/2                         SIN(THETA) / 2
000700:                                                                                                  #        CDELF/2 =       14D             COS(THETA) / 2
000701:                                                                                                  #        TFFX    =       34D             X, ARGUMENT OF SERIES T(X).
000702:                                                                                                  #        TFFTEM  =       36D             ARG FOR TRANSFER ANGLE CALCULATION.
000703:                                                                                                  #        TFFNP   =       28D             LC P M                  E:  (-38+2NR)   M:  (-36+2NR)
000704:                                                                                                  #        TFF/RTMU=       30D             1/SQRT(MU)              E:  (17)        M:  (14)
000705:                                                                                                  #        TFFVSQ  =       20D             -(VN.VN/MU)     1/M     E:  (20)        M:  (18)
000706:


000708: 34,3763                                           BANK     34
000709: 26,2000                                           SETLOC   P60S2
000710: 26,2000                                           BANK
000711:
000712: 26,2651                                           COUNT*   $$/S61.2
000713:                                                                                                  #  PDL LEFT AT ZERO BY TARGETNG
000714:
000715: 26,2651           45345        S61.2              DLOAD    DSU
000716: 26,2652           02020                                    EMSALT
000717: 26,2653           15001                                    290KFT
000718: 26,2654           71244                           BPL      DLOAD
000719: 26,2655           54775                                    LUNENT
000720: 26,2656           17354                                    1/RTMU                                #  ESTABLISH MU FOR ORBITAL ENTRIES
000721: 26,2657           77624        CALLCON            CALL
000722: 26,2660           56757                                    TFFCONIC                              #  FILL VAC AREA WITH CONIC PARAMETERS
000723:
000724: 26,2661           45145                           DLOAD    CALL
000725: 26,2662           15021                                    RTRIAL                                #  1ST GUESS AT TERMINAL RADIUS  (-29)
000726: 26,2663           57067                                    CALCTFF                               #  SAVES MPAC IN RTERM           (18D)
000727:
000728: 26,2664           77624                           CALL                                           #  CALC SDELF/2, CDELF/2
000729: 26,2665           56631                                    TFF/TRIG                              #  RETURN WITH S(THETA) IN MPAC
000730:
000731: 26,2666           77624                           CALL                                           #  GET FISCHER RADIUS            (-29) M
000732: 26,2667           55030                                    FISHCALC                              #  ANS IN MPAC AND IN ERADM.
000733:
000734: 26,2670           45015                           DAD      CALL
000735: 26,2671           02020                                    EMSALT
000736: 26,2672           57067                                    CALCTFF                               #  SAVES MPAC IN RTERM           (18D)
000737:
000738: 26,2673           77676                           DCOMP                                          #  NEGATIVE AS IN COUNTDOWN.
000739: 26,2674           03733                           STORE    TTE1                                  #  DECR TTE FROM BASE TTE1.  (RESTART)
000740:                                                                                                  #  DNLIST AND DSKY WILL USE TTE.
000741: 26,2675           37727                           STCALL   TTE                                   #  LET MISS CONTRL DECR BY ELAPSED TIME
000742:                                                                                                  #  TTE= TIME FROM NOW TO EMSALT +FISCHER
000743:
000744: 26,2676           56631                                    TFF/TRIG                              #  S(THETA) IN MPAC ON RETURNING
000745:                                                                                                  #  AND THETA= RANGE FROM NOW TO EMSALT
000746:
000747: 26,2677           77624                           CALL
000748: 26,2700           55030                                    FISHCALC
000749: 26,2701           77624                           CALL
000750: 26,2702           56664                                    VRCALC
000751: 26,2703           77624                           CALL
000752: 26,2704           56651                                    DISPTARG
000753: 26,2705           77624                           CALL
000754: 26,2706           56651                                    DISPTARG
000755: 26,2707           37714                           STCALL   RTGO


000757: 26,2710           55051                                    VGAMCALC
000758:
000759: 26,2711           77605                           DMP                                            #  MPAC = GAMMA
000760:                                                                                                  #  PDL0 HAS VGAM.
000761: 26,2712           43265                           BDDV     DAD
000762: 26,2713           15027                                    VEMSCON                               #  -HS D 180/PI (-14)
000763: 26,2714           00001                                    0                                     #  VGAM FROM PDL0.
000764: 26,2715           17725                           STODL    VIO                                   #  PREDICTED VELOCITY AT EMSALT.
000765:
000766:                                                                                                  #  GAMMA AND VGAM AT 300K FT ARE REQUIRED BY GMAX
000767:                                                                                                  #  ALGORITHM.
000768:
000769: 26,2716           02241                                    ERADM                                 #  EARTH RADIUS FROM GETERAD (-29) M
000770:                                                                                                  #  = FISCHER RADIUS (-29)
000771:
000772: 26,2717           77615                           DAD
000773: 26,2720           06462                                    300KFT                                #  M (-29)
000774: 26,2721           34023                           STCALL   RTERM                                 #  TERMINAL RADIUS M (-29)
000775:
000776: 26,2722           55046                                    PREVGAM                               #  VGAMCALC WITH NEW RTERM
000777:
000778:                                                                                                  #  VBAR = (V(FPS) - 36KF/S) / 20KF/S
000779:                                                                                                  #  GMAX = (4/(1 + 4.8 VBARSQ))(GAM - 6.05 - 2.4 VBARSQ) - 10(L/D - .3) + 10      ASSUME L/D = 0.3, BANK =0.
000780:
000781:                                                                                                  #  GMAXCALC
000782: 26,2723           45325                           PDDL     DSU                                   #  GAM TO PDL2
000783: 26,2724           00001                                    0                                     #  VGAM IS IN PDL0 (-7)
000784: 26,2725           15005                                    36KFT/S                               #  (-7) M/CS
000785: 26,2726           63471                           DDV      DSQ
000786: 26,2727           15007                                    20KFT/S                               #  (-6) M/CS
000787: 26,2730           00001                           STORE    0                                     #  VBARSQ (-2) TO PDL0
000788:
000789: 26,2731           43205                           DMP      DAD
000790: 26,2732           15011                                    KR1
000791:                                                                                                  #  GAM, POS DOWN, FROM PDL2
000792: 26,2733           41215                           DAD      DMP
000793: 26,2734           15013                                    -6.05DEG
000794: 26,2735           15015                                    KR2
000795: 26,2736           77725                           PDDL                                           #  XCH PDL+0 FOR VBARSQ (-2)
000796: 26,2737           43271                           DDV      DAD
000797: 26,2740           15025                                    KR4
000798: 26,2741           17366                                    DP2(-4)
000799: 26,2742           77665                           BDDV
000800:                                                                                                  #  NUM FROM PDL+0
000801: 26,2743           51015                           DAD      BPL
000802: 26,2744           15017                                    KR3
000803: 26,2745           54750                                    +3
000804: 26,2746           77745                           DLOAD
000805: 26,2747           15335                                    HI6ZEROS
000806: 26,2750           17722                           STODL    GMAX                                  #  100 GMAX (-14)


000808:                                                                                                  #  DISPLAY USES GMAX AS SP, SO LO WORD IS WRITTEN OVER BY VPRED.
000809: 26,2751           02241                                    ERADM                                 #  = FISCHER RADIUS (-29) M
000810: 26,2752           45015                           DAD      CALL                                  #  2 ND ITERATION FOR FISCHER RADIUS
000811: 26,2753           15023                                    400KFT
000812: 26,2754           57067                                    CALCTFF                               #  ESTABLISH TRANSFER ANGLE DATA.
000813: 26,2755           77624                           CALL
000814: 26,2756           56631                                    TFF/TRIG                              #  GET SIN, COS DELF
000815: 26,2757           77624                           CALL
000816: 26,2760           55030                                    FISHCALC                              #  GET CORRESPONDING FISCHER RADIUS.
000817:
000818: 26,2761           73015                           DAD      LXA,2                                 #  SAVE HI-WORD FOR DOWNLIST.
000819: 26,2762           15023                                    400KFT                                #  M (-29)
000820: 26,2763           03713                                    RTGO                                  #  (RANGE ANGLE FROM EMSALT) / 360
000821: 26,2764           34023                           STCALL   RTERM
000822: 26,2765           55046                                    PREVGAM                               #  VGAMCALC WITH NEW RTERM
000823:
000824: 26,2766           67076                           DCOMP    SXA,2                                 #  HI-WORD OF EACH ON DOWNLIST.
000825: 26,2767           00155                                    MPAC       +1
000826: 26,2770           17771                           STODL    GAMMAEI                               #  CONIC GAMMA/360 AT 400K FT.   (HI-WORD)
000827:                                                                                                  #  CONIC RTGO/360 FROM EMSALT   (LOW-WORD)
000828:                                                                                                  #  FOR TM, DP(GAMMAEI) = (GAMMA, RTGO) / 360
000829:
000830:                                                                                                  #  VGAM FROM PDL+0 (-7)
000831: 26,2771           77626                           STADR
000832: 26,2772           74010                           STORE    VPRED                                 #  CONIC VELOCITY AT 400K FT
000833:
000834: 26,2773           77634                           RTB
000835: 26,2774           54267                                    P61.1
000836:                                                                                                  #  PDL BACK TO ZERO.
000837:
000838: 26,2775           52145        LUNENT             DLOAD    GOTO
000839: 26,2776           06456                                    1/RTMUE                               #  ESTABLISH MU FOR LUNAR TYPE ENTRIES
000840: 26,2777           54657                                    CALLCON
000841: 26,3000           00002 26244  290KFT             2DEC     88392.0    B-29
000842:
000843: 26,3002           00052 05716  KTETA1             2DEC*    .421844723 E2         B-14*           #  1100 2PI/16384(163.84)
000844:
000845: 26,3004           33335 05707  36KFT/S            2DEC     109.728    B-7                        #  (-7) M/CS = 36 KFT/S (-7)
000846:
000847: 26,3006           36365 30244  20KFT/S            2DEC     121.92     B-7                        #  (-6) M/CS = 2 20KFT/S (-7)
000848:
000849: 26,3010           77113 42770  KR1                2DEC     -.026666667                            #  = -2.4 4 / 360
000850:
000851: 26,3012           77354 65030  -6.05DEG           2DEC     -.016805556                            #  = -6.05 / 360
000852:
000853: 26,3014           21450 00001  KR2                2DEC     .54931641                             #  = (360/4) 100 (-14) = 9000 B-14
000854:
000855: 26,3016           01750 00000  KR3                2DEC     1000       B-14                       #  = 100 (10.0) (-14) G,S


000857:                                                                                                  #  ASSUMES L/D = 0.3, BANK =0.
000858: 26,3020           00305 04541  RTRIAL             2DEC     6460097.18 B-29                       #  RPAD +284643 FT =21 194 545 FT
000859:                                                                                                  #  RPAD DEFINED AS 20 909 901.57 FT =6 373 338 M
000860: 26,3022           00003 27040  400KFT             2DEC     121920     B-29                       #  METERS
000861:
000862:                                                                                                  #  300KFT        2DEC    91440 B-29      (-29) M
000863:
000864:                                                                                                  #  EMSALT        2DEC    86759.2 B-29    284643 FT (-29) M       (ORBITAL REENTRY)
000865:
000866:                                                                                                  #  EMSALT        2DEC    90657 B-29      297431 FT (-29) M       (LUNAR REENTRY)
000867:
000868: 26,3024           32525 12525  KR4                2DEC     .833333333
000869:
000870: 26,3026  23,2461               300KFT             EQUALS   MINPERE
000871: 26,3026           77777 76601  VEMSCON            2DEC     -.0389676  B-14                       #  = -HS D / 2 PI (-14)  M SQ / CS SQ
000872:
000873:                                                                                                  #  = -16369      .05G    32.2    .3048   .3048/2 PI      (-14)
000874:


000876:                                                                                                  #  SUBROUTINE NAME:  FISHCALC    (USED BY S61.2)         DATE:           01.21.67
000877:                                                                                                  #  MOD NO: 0                                             LOG SECTION:    P61-P67
000878:                                                                                                  #  MOD BY: MORTH / BAIRNSFATHER
000879:                                                                                                  #  MOD NO: 1     MOD BY: RR BAIRNSFATHER                 DATE:           11 MAY 67       INCLUDE GETERAD CALL
000880:
000881:                                                                                                  #  FUNCTIONAL DESCRIPTION:  GIVEN THE PRESENT POSITION, UNITR, CALCULATE A NEW UNITR THAT IS ROTATED THROUGH
000882:                                                                                                  #        TRANSFER ANGLE, THETA, ALONG TRAJECTORY.  THEN CALCULATE SIN(LAT) AND USE TO OBTAIN FISCHER RADIUS.
000883:
000884:                                                                                                  #        SINCE FISHCALC USES UNI (LEFT BY ENTRY) EARTH SCALING IS ASSUMED.  (WILL IMPROVE FOR SUITABLE TENNANT)
000885:
000886:                                                                                                  #  CALLING SEQUENCE:     CALL
000887:                                                                                                  #                                FISHCALC
000888:                                                                                                  #        ENTER WITH .5 SIN(THETA) IN MPAC.
000889:                                                                                                  #        PUSHLOC IS AT PDL+0, AN ARBITRARY BASE VALUE IF LEQ 8D
000890:
000891:                                                                                                  #  SUBROUTINES CALLED:  GET ERAD
000892:
000893:                                                                                                  #  NORMAL EXIT MODE:  RVQ
000894:
000895:                                                                                                  #  EXIT MODES:   NONE
000896:
000897:                                                                                                  #  OUTPUT:       ERADM (-29) M IN MPAC ON RETURNING
000898:                                                                                                  #                NEW UNIT VECTOR NOT SAVED.
000899:                                                                                                  #                SIN(LAT) NOT SAVED.
000900:                                                                                                  #                PUSHLOC AT PDL+0
000901:
000902:                                                                                                  #  ERASEABLE INITIALIZATION REQUIRED:
000903:                                                                                                  #                SDELF/2         =SIN(THETA) / 2, IN MPAC                LEFT BY TFF/TRIG
000904:                                                                                                  #                CDELF/2         =COS(THETA) / 2, STORED IN PDL 14D      LEFT BY TFF/TRIG
000905:                                                                                                  #                RONE            (-29) M                                 LEFT BY USER
000906:                                                                                                  #                VONE            (-7) M/CS                               LEFT BY USER
000907:                                                                                                  #                URONE           UR/2                                    LEFT BY USER
000908:                                                                                                  #                UNI             .5 UNIT(V*R)                            LEFT BY ENTRY / P61
000909:                                                                                                  #                UNITW           UNIT NORTH POLE                         LEFT BY PAD LOAD
000910:
000911:                                                                                                  #  DEBRIS:       QPRET, PDL+0 ... PDL+5
000912:                                                                                                  #  -      -          -
000913: 26,3030           47315        FISHCALC           PDVL     VXV                                   #  URPR = UR CDELF + UHOR SDELF
000914: 26,3031           02343                                    URONE
000915: 26,3032           03502                                    UNI
000916: 26,3033           76561                           VXSC     VSL1
000917:                                                                                                  #  SIN(THETA) / 2 FROM PDL+0
000918: 26,3034           74315                           PDVL     VXSC                                  #  TO PDL+0, +5
000919: 26,3035           02343                                    URONE
000920: 26,3036           00017                                    CDELF/2                               #  COS(THETA) / 2
000921: 26,3037           45455                           VAD      STADR
000922: 26,3040           74235                           STORE    URH                                   #  FOR USE IN RTGO FROM EMS DISPLAY
000923: 26,3041           72441                           DOT      SL1
000924: 26,3042           01714                                    UNITW                                 #  FULL UNIT VECTOR      UNIT NORTH
000925: 26,3043           02156                           STORE    ALPHAV     +4                         #  = .5 SIN(LAT)
000926: 26,3044           77650        DUMPFISH           GOTO
000927: 26,3045           26505                                    GETERAD                               #  SAVES FISCHER RAD (-29) M IN ERADM AND
000928:                                                                                                  #  IN MPAC.  RETURNS TO CALLER VIQ QPRET.
000929:


000931:                                                                                                  #  SUBROUTINE NAME:  VGAMCALC    (USED BY S61.2)                         DATE:           01.21.67
000932:                                                                                                  #  MOD NO: 0                                                             LOG SECTION:    P61-P67
000933:                                                                                                  #  MOD BY: MORTH / BAIRNSFATHER
000934:                                                                                                  #  MOD NO: 1     MOD BY: RR BAIRNSFATHER         DATE: 11 APR 67
000935:                                                                                                  #  MOD NO: 2     MOD BY: RR BAIRNSFATHER         DATE: 21 NOV 67         VARIABLE MU ADDED.
000936:                                                                                                  #  MOD NO: 3     MOD BY: RR BAIRNSFATHER         DATE: 21 MAR 68         ACCEPT DIFFERENT EARTH/MOON SCALE
000937:
000938:                                                                                                  #  FUNCTIONAL DESCRIPTION:  EARTH CENTERED VIS VIVA CALCULATION OF TERMINAL VELOCITY AND GAMMA (REL TO
000939:                                                                                                  #        HORIZONTAL) GIVEN THE SCALAR QUANTITIES:  PRESENT RADIUS AND VELOCITY AND THE TERMINAL RADIUS.
000940:                                                                                                  #        THE USER MUST APPEND PROPER SIGN TO GAMMA, SINCE IT IS CALCULATED AS A POSITIVE NUMBER.
000941:                                                                                                  #        THE EQUATIONS ARE
000942:
000943:                                                                                                  #                VGAM = SQRT(VN VN/MU + 2(RN-RTERM)/(RN RTERM) ) RTMU
000944:
000945:                                                                                                  #                COSGAM = H / RTERM VGAM = SQRT (LCP) / (RTERM VGAM/RTMU)
000946:
000947:                                                                                                  #        VGAMCALC ASSUMES THAT THE TERMINAL RADIUS IS LESS THAN THE PRESENT RADIUS.  BOTH CALCTFF AND CALCTPER
000948:                                                                                                  #        MAKE THIS ASSUMPTION.
000949:
000950:                                                                                                  #  CALLING SEQUENCE:     CALL                    STCALL  RTERM
000951:                                                                                                  #                                VGAMCALC                PREVGAM
000952:                                                                                                  #        PUSHLOC AT PDL+0, ARBITRARY IF LEQ 12D
000953:                                                                                                  #        C(MPAC) UNSPECIFIED                     C(MPAC)=NEW RTERM
000954:
000955:                                                                                                  #  SUBROUTINES CALLED:  NONE
000956:
000957:                                                                                                  #  NORMAL EXIT MODE:  RVQ
000958:
000959:                                                                                                  #  ALARMS:       NONE
000960:                                                                                                  #
000961:                                                                                                  #  OUTPUT:       GAMMA / 360 IN MPAC, POSITIVE NUMBER
000962:                                                                                                  #                VGAM    E: (-7)   M: (-5)       M/CS IN PDL+0
000963:                                                                                                  #                PUSHLOC AT PDL+2
000964:
000965:                                                                                                  #  ERASABLE INITIALIZATION REQD:
000966:                                                                                                  #        TFF/RTMU  E: (17)   M: (14)     1/SQRT(MU)                              LEFT BY TFFCONIC.
000967:                                                                                                  #        RMAG1     E: (-29)  M: (-27)    M  PRESENT RADIUS LENGTH                LEFT BY TFFCONIC
000968:                                                                                                  #        NRMAG     E: (-29+NR)           M  NORM LENGTH OF PRESENT POSITION      LEFT BY TFFCONIC
000969:                                                                                                  #                  M: (-27+NR)
000970:                                                                                                  #        RTERM     E: (-29)  M: (-27)    M  TERMINAL RADIUS LENGTH               LEFT BY CALCTFF
000971:                                                                                                  #        NRTERM    E: (-29+NR)           M  NORM LENGTH OF TERMINAL RADIUS       LEFT BY CALCTFF
000972:                                                                                                  #                  M: (-27+NR)
000973:                                                                                                  #        TFFVSQ    E: (20)   M: (18)   1/M  -(V SQ/MU): PRESENT VELOCITY, NORM   LEFT BY TFFCONIC
000974:                                                                                                  #        TFFNP     E: (-38+2NR)          M  LCP, SEMI-LATUS RECTUM, WEIGHT NR    LEFT BY TFFCONIC
000975:                                                                                                  #                  M: (-36+2NR)
000976:
000977:                                                                                                  #  DEBRIS:       QPRET, PDL+0 ... PDL+3
000978:                                                                                                  #                RTERM, NRTERM IF PREVGAM ENTERED.


000980:
000981: 26,3046           77657        PREVGAM            SL*                                            #  ENTER WITH NEW RTERM IN MPAC
000982:                                                                                                  #  E: (-29)  M: (-27)
000983: 26,3047           20201                                    0,1                                   #  X1 = -NR
000984: 26,3050           00021                           STORE    NRTERM                                #  RTERM M               E: (-29+NR)     M: (-27+NR)
000985:
000986: 26,3051           41345        VGAMCALC           DLOAD    DMP
000987: 26,3052           00041                                    NRMAG                                 #  RMAG M                E: (-29+NR)     M: (-27+NR)
000988: 26,3053           00021                                    NRTERM                                #  RTERM M               E: (-29+NR)     M: (-27+NR)
000989: 26,3054           45325                           PDDL     DSU                                   #  RMAG RTERM M          E: (-58+2NR)    M: (-54+2NR)
000990: 26,3055           00041                                    NRMAG                                 #  RMAG M                E: (-29+NR)     M: (-27+NR)
000991: 26,3056           00021                                    NRTERM                                #  RTERM M               E: (-29+NR)     M: (-27+NR)
000992: 26,3057           56257                           SL*      DDV                                   #  2(RN-RTERM)           E: (-30+NR)     M: (-28+NR)
000993: 26,3060           20171                                    0          -8D,1                      #  (-8+NR)
000994:                                                                                                  #  PUSH UP PRODUCT.
000995: 26,3061           77625                           DSU
000996: 26,3062           00025                                    TFFVSQ                                #  -(V SQ/MU)            E: (20)         M: (18)
000997: 26,3063           41566                           SQRT     PUSH                                  #  SAVE VGAM/RT(MU) FOR NOW.     E: (10) M: (9)
000998: 26,3064           65271                           DDV      PDDL                                  #  XCH PDL+0, LEAVING VGAM FOR OUTPUT.
000999:                                                                                                  #  VGAM TO PDL M/CS      E: (-7)         M: (-2)
001000: 26,3065           00037                                    TFF/RTMU                              #                        E: (17)         M: (14)
001001: 26,3066           65205                           DMP      PDDL                                  #  RTERM VGAM/RTMU       E: (-19+NR)     M: (-18+NR)
001002: 26,3067           00021                                    NRTERM                                #  RTERM M               E: (-29+NR)     M: (-27+NR)
001003: 26,3070           00035                                    TFFNP                                 #  LC P =H.H/MU M        E: (-38+2NR)    M: (-36+2NR)
001004: 26,3071           56366                           SQRT     DDV                                   #                        E: (-19+NR)     M: (-18+NR)
001005:                                                                                                  #  PUSH UP DEN           E: (-19+NR)     M: (-18+NR)
001006:                                                                                                  #  USE DDV OVFL AS LIMITER (|COS| <1.0)
001007: 26,3072           65542                           SR1      ACOS
001008: 26,3073           77616        DUMPVGAM           RVQ
001009:                                                                                                  #  CALLER MUST SUPPLY OWN SIGN ...
001010:                                                                                                  #                        22W     27MS
001011:


001013:                                                                                                  #  SUBROUTINE NAME:      TFF/TRIG        (USED BY S61.2)         DATE            01.17.67
001014:                                                                                                  #  MOD NO: 0                                                     LOG SECTION:    P61-P67
001015:                                                                                                  #  MOD BY: RR BAIRNSFATHER
001016:                                                                                                  #  MOD NO: 1     MOD BY: RR BAIRNSFATHER         DATE: 14 APR 67
001017:                                                                                                  #  MOD NO: 2     MOD BY: RR BAIRNSFATHER         DATE: 21 MAR 68         ACCEPT DIFFERENT EARTH/MOON SCALE
001018:
001019:                                                                                                  #  FUNCTIONAL DESCRIPTION:  USED BY ENTRY DISPLAY TO CALCULATE SIN(THETA), COS(THETA) FROM DATA LEFT IN
001020:                                                                                                  #        PDL BY TFF SUBROUTINES.  THE EQNS ARE
001021:
001022:                                                                                                  #                COS(THETA) = 1-2 ABS(ARG) / (RN RTERM (1+X) )
001023:                                                                                                  #                                                2
001024:                                                                                                  #                SIN(THETA) = SGN(ARG) SQRT(1-COS (THETA) )
001025:
001026:                                                                                                  #        WHERE THETA = TRANSFER ANGLE
001027:                                                                                                  #        AND     ARG = P Z ABS(Z)                        IF ALFA ZZ LEQ 1
001028:                                                                                                  #                ARG = (P / ALFA) SGN(Q1 + R 1/Z)        IF ALFA Z Z G 1
001029:                                                                                                  #        AND  ARG  HAS BEEN AFFIXED WITH THE SIGN OF SIN(THETA).
001030:
001031:                                                                                                  #  CALLING SEQUENCE:     CALL
001032:                                                                                                  #                                TFF/TRIG
001033:                                                                                                  #                PUSHLOC AT PDL+0, ARBITRARY IF NOT EQ 14D
001034:                                                                                                  #                C(MPAC) UNSPECIFIED
001035:
001036:                                                                                                  #  SUBROUTINES CALLED:  NONE
001037:
001038:                                                                                                  #  NORMAL EXIT MODES:  RVQ
001039:
001040:                                                                                                  #  ALARMS:       NONE
001041:
001042:                                                                                                  #  OUTPUT:       C(MPAC) = .5 SIN(THETA)
001043:                                                                                                  #                CDELF/2 = .5 COS(THETA)         (IN PDL 14D)
001044:                                                                                                  #                PUSHLOC AT PDL+0
001045:
001046:                                                                                                  #  ERASABLE INITIALIZATION REQUIRED:
001047:                                                                                                  #                TFFX                    X                                       LEFT BY CALCTFF OR CALCTPER
001048:                                                                                                  #                TFFTEM  E: (-59+2NR)    ARG                                     LEFT BY CALCTFF OR CALCTPER
001049:                                                                                                  #                        M: (-55+2NR)    WHERE ARG = LCP ZZ SGN(DELF) OR ARG = LCP/ALFA SGN(DELF)
001050:                                                                                                  #                NRTERM  E: (-29+NR)     M  NORM LENGTH OF TERMINAL RADIUS       LEFT BY CALCTFF OR CALCTPER
001051:                                                                                                  #                        M: (-27+NR)
001052:                                                                                                  #                NRMAG   E: (-29+NR)     M  NORM LENGTH OF PRESENT POSITION      LEFT BY TFFCONIC
001053:                                                                                                  #                        M: (-27+NR)
001054:
001055:                                                                                                  #  DEBRIS:       QPRET, CDELF/2
001056:
001057: 27,2631                                           BANK     27
001058: 27,2000                                           SETLOC   P60S5
001059: 27,2000                                           BANK
001060: 27,2631           70545        TFF/TRIG           DLOAD    SR1
001061: 27,2632           00043                                    TFFX
001062: 27,2633           41215                           DAD      DMP
001063: 27,2634           15333                                    HIDPHALF
001064: 27,2635           00041                                    NRMAG                                 #  RMAG M                E: (-29+NR)     M: (-27+NR)
001065: 27,2636           55205                           DMP      BDDV
001066: 27,2637           00021                                    NRTERM                                #  RTERM M               E: (-29+NR)     M: (-27+NR)
001067: 27,2640           00045                                    TFFTEM                                #  P ZSQ OR P/ALFA       E: (-59+2NR)    M: (-55+2NR)
001068: 27,2641           44246                           ABS      BDSU                                  #  THE SIGN IS FOR SDELF.
001069: 27,2642           15333                                    HIDPHALF
001070: 27,2643           00017                           STORE    CDELF/2                               #  .5 COS(THETA)
001071: 27,2644           57516                           DSQ      DCOMP                                 #  KEEP HONEST FOR SQRT.


001073: 27,2645           75415                           DAD      SQRT
001074: 27,2646           15325                                    HIDP1/4
001075: 27,2647           43565        DUMPTRIG           SIGN     RVQ
001076: 27,2650           00045                                    TFFTEM                                #  AFFIX SIGN(DELE/2)
001077:                                                                                                  #  RETURN WITH .5 SIN(THETA) IN MPAC
001078:
001079:                                                                                                  #                        16W     15MS
001080:
001081: 27,2651           77620        DISPTARG           STQ                                            #  C(MPAC) = TRGO ESTIMATE
001082: 27,2652           03373                                    60GENRET
001083: 27,2653           45205                           DMP      DSU
001084: 27,2654           15003                                    KTETA1
001085: 27,2655           03733                                    TTE1
001086: 27,2656           37606                           STCALL   DTEAROT
001087: 27,2657           46225                                    EARROT2
001088: 27,2660           77624                           CALL
001089: 27,2661           56664                                    VRCALC
001090: 27,2662           77650                           GOTO
001091: 27,2663           03373                                    60GENRET
001092: 27,2664           50375        VRCALC             VLOAD    DOT
001093: 27,2665           03542                                    URH
001094: 27,2666           03474                                    RT
001095: 27,2667           65512                           SL2      ACOS
001096: 27,2670           77616                           RVQ
001097:
001098:                                                                                                  #  END OF PROGRAM S61.2
001099:


001101:                                                                                                  #  PROGRAM DESCRIPTION S62.3     DATE 10JAN67
001102:                                                                                                  #  MOD NO 1                      LOG SECTION P60-P67
001103:                                                                                                  #  MOD BY ZELDIN
001104:                                                                                                  #  MOD NO: 2     MOD BY: RR BAIRNSFATHER         DATE: 15 MAY 67         CHANGED TO REF COORDS.
001105:                                                                                                  #  MOD NO: 3     MOD BY: RR BAIRNSFATHER         DATE: 17 JAN 68         ALFAPAD CHANGES MADE.
001106:
001107:                                                                                                  #  FUNCTIONAL DESCRIPTION
001108:
001109:                                                                                                  #        COMPUTE DESIRED GIMBOL ANGLES FOR ENTRY ATTITUDE
001110:                                                                                                  #        THE FOLLOWING TRAJECTORY TRIAD IS AVAILABLE IN MEMORY AND IS COMPUTED EACH 2 SECONDS BY CM/POSE IN
001111:                                                                                                  #        REFERENCE COORDINATES (V = VELOCITY RELATIVE TO EARTH) :
001112:
001113:                                                                                                  #                UXA = -UNIT(V)
001114:                                                                                                  #                UYA =  UNIT(V*R)
001115:                                                                                                  #                UZA =  UXA*UYA
001116:
001117:                                                                                                  #        GENERATE A DESIRED BODY TRIAD FOR TRIMMED FLIGHT WITH RESPECT TO THE RELATIVE VELOCITY VECTOR, USING
001118:                                                                                                  #        ROLL COMMAND AND TRIM ANGLE OF ATTACK:
001119:
001120:                                                                                                  #                UXD = UNIT(UYD*UXA) SIN(ALFATRIM) + UXA COS(ALFATRIM)
001121:                                                                                                  #                UYD = UYA COS(ROLLC) + UZA SIN(ROLLC)
001122:                                                                                                  #                UZD = UXD * UYD
001123:
001124:                                                                                                  #        USE THE DESIRED SET (IN REFERENCE COORDS) AND REFSMMAT TO CALL  CALCGA  AND OBTAIN GIMBAL ANGLES
001125:                                                                                                  #        IN 2S, C IN MPAC, +2 AND THETAD, +2.
001126:
001127:                                                                                                  #  CALLING SEQUENCE
001128:
001129:                                                                                                  #        L       CALL
001130:                                                                                                  #        L+1             S62.3
001131:
001132:                                                                                                  #  NORMAL EXIT MODE
001133:
001134:                                                                                                  #        RETURN VIA QPRET DIRECTLY FROM CALCGA.
001135:
001136:                                                                                                  #  SUBROUTINES CALLED
001137:
001138:                                                                                                  #        CALCGA
001139:
001140:                                                                                                  #  ALARM OR ABORT MODES
001141:
001142:                                                                                                  #        NONE
001143:
001144:                                                                                                  #  ERASABLE INITIALIZATION REQUIRED
001145:
001146:                                                                                                  #        ROLLC   ROLL COMMAND            DP 1:S COMP AT 1REV
001147:                                                                                                  #        ALFAPAD SP 1S,C / 180           LEFT BY PAD LOAD        ALFATRIM IS NEGATIVE.
001148:                                                                                                  #        UXA/2   REF COORDS              LEFT BY CM/POSE
001149:                                                                                                  #        UYA/2   REF COORDS              LEFT BY CM/POSE
001150:                                                                                                  #        UZA/2   REF COORDS              LEFT BY CM/POSE
001151:
001152:                                                                                                  #  OUTPUT
001153:                                                                                                  #
001154:                                                                                                  #        CPHI    GIMBAL ANGLES (O,I,M) 2:S COMP TP (O,I,M)/180
001155:
001156:                                                                                                  #  DEBRIS
001157:
001158:                                                                                                  #        QTEMP, QPRET, PUSHLIST
001159:
001160: 10,2376                                           BANK     10
001161: 10,2000                                           SETLOC   P60S4
001162: 10,2000                                           BANK


001164: 10,2376                                           COUNT*   $$/S62.3
001165:
001166: 10,2376           67201        S62.3              SETPD    SLOAD
001167: 10,2377           00001                                    0
001168: 10,2400           03012                                    ALFAPAD                               #  ALFATRIM / 180, ALFA IS NEG.
001169: 10,2401           41542                           SR1      PUSH
001170: 10,2402           65346                           COS      PDDL                                  #  XCH PDL, COS TO PDL0
001171: 10,2403           65356                           SIN      PDDL                                  #  SIN TO PDL2
001172: 10,2404           03316                                    ROLLC
001173: 10,2405           74346                           COS      VXSC
001174: 10,2406           03550                                    UYA/2                                 #                                REF COORDS
001175: 10,2407           73525                           PDDL     SIN                                   #  PUSH VECTOR INTO PDL4,.9
001176: 10,2410           03316                                    ROLLC
001177: 10,2411           53361                           VXSC     VAD
001178: 10,2412           03556                                    UZA/2                                 #                                REF COORDS
001179:                                                                                                  #  VECTOR FROM PDL4, 9
001180: 10,2413           77772                           VSL1
001181: 10,2414           02722                           STORE    YNB                                   #  = UYD                         REF COORDS
001182:
001183: 10,2415           76435                           VXV      VSL1
001184: 10,2416           03542                                    UXA/2                                 #                                REF COORDS
001185: 10,2417           65361                           VXSC     PDDL
001186:                                                                                                  #  SIN TRIM FROM PDL2
001187:                                                                                                  #  XCH PDL0 FOR COS TRIM
001188: 10,2420           53361                           VXSC     VAD
001189: 10,2421           03542                                    UXA/2                                 #                                REF COORDS
001190:                                                                                                  #  FROM PDL0
001191: 10,2422           77772                           VSL1
001192: 10,2423           02714                           STORE    XNB                                   #  X SC AXIS (.5 UNIT)           REF COORDS
001193:
001194: 10,2424           76435                           VXV      VSL1
001195: 10,2425           02722                                    YNB
001196: 10,2426           26730                           STOVL    ZNB                                   #  Z SC IN REF COOR. SCALED AT 2
001197: 10,2427           01736                                    REFSMMAT
001198: 10,2430           26672                           STOVL    XSM
001199: 10,2431           01744                                    REFSMMAT   +6
001200: 10,2432           26700                           STOVL    YSM
001201: 10,2433           01752                                    REFSMMAT   +12D
001202: 10,2434           02706                           STORE    ZSM
001203:
001204: 10,2435           52014                           CLEAR    GOTO
001205: 10,2436           00260                                    CPHIFLAG                              #  CAUSE CALCGA TO STORE ANS IN TP CPHI
001206: 10,2437           47311                                    CALCGA
001207:                                                                                                  #  CALCGA WILL RETURN TO ORIGINAL CALLER
001208:                                                                                                  #  VIA QPRET WITH 2,S COMP. ANGLES IN CPHI
001209:
001210:
001211:

End of include-file P61-P67.agc.  Parent file is MAIN.agc


