
Source Code


000002:                                                                                                  ## Copyright:   Public domain.
000003:                                                                                                  ## Filename:    POWERED_FLIGHT_SUBROUTINES.agc
000004:                                                                                                  ## Purpose:     A section of Comanche revision 045.
000005:                                                                                                  ##              It is part of the reconstructed source code for the
000006:                                                                                                  ##              second release of the flight software for the Command
000007:                                                                                                  ##              Module's (CM) Apollo Guidance Computer (AGC) for Apollo 10.
000008:                                                                                                  ##              The code has been recreated from a copy of Comanche 055. It
000009:                                                                                                  ##              has been adapted such that the resulting bugger words
000010:                                                                                                  ##              exactly match those specified for Comanche 45 in NASA drawing
000011:                                                                                                  ##              2021153D, which gives relatively high confidence that the
000012:                                                                                                  ##              reconstruction is correct.
000013:                                                                                                  ## Assembler:   yaYUL
000014:                                                                                                  ## Contact:     Ron Burkey <info@sandroid.org>.
000015:                                                                                                  ## Website:     www.ibiblio.org/apollo/index.html
000016:                                                                                                  ## Mod history: 2020-12-06 MAS  Created from Comanche 44.
000017:


000019: 14,3423                                           BANK     14                                    #  SAME FBANK AS THE FINDCDUD SUB-PROGRAM
000020: 23,2000                                           SETLOC   POWFLITE
000021: 23,2000                                           BANK
000022:
000023: 23,3477     0142                                  EBANK=   DEXDEX
000024: 23,3477                                           COUNT*   $$/POWFL
000025:
000026:                                                                                                  #  CDUTRIG, CDUTRIG1, CDUTRIG2, AND CD*TR*GS ALL COMPUTE THE SINES AND
000027:                                                                                                  #  COSINES OF THREE 2'S COMPLEMENT ANGLES AND PLACE THE RESULT, DOUBLE
000028:                                                                                                  #  PRECISION, IN THE SAME ORDER AS THE INPUTS, AT SINCDU AND COSCDU.  AN
000029:                                                                                                  #  ADDITIONAL OUTPUT IS THE 1'S COMPLEMENT ANGLES AT CDUSPOT.  THESE
000030:                                                                                                  #  ROUTINES GO OUT OF THEIR WAY TO LEAVE THE MPAC AREA AS THEY FIND IT,
000031:                                                                                                  #  EXCEPT FOR THE GENERALLY UNIMPORTANT MPAC +2.  THEY DIFFER ONLY IN
000032:                                                                                                  #  WHERE THEY GET THE ANGLES, AND IN METHOD OF CALLING.
000033:
000034:                                                                                                  #  CDUTRIG (AND CDUTRIG1, WHICH CAN BE CALLED IN BASIC) COMPUTE THE
000035:                                                                                                  #  SINES AND COSINES FROM THE CURRENT CONTENTS OF THE CDU REGISTERS.
000036:                                                                                                  #  THE CONTENTS OF CDUTEMP, ETC., ARE NOT TOUCHED SO THAT THEY MAY
000037:                                                                                                  #  CONTINUE TO FORM A CONSISTENT SET WITH THE LATEST PIPA READINGS.
000038:
000039:                                                                                                  #  CDUTRIG1 IS LIKE CDUTRIG EXCEPT THAT IT CAN BE CALLED IN BASIC.
000040:
000041:                                                                                                  #  CD*TR*GS FINDS CDU VALUES IN CDUSPOT RATHER THAN IN CDUTEMP.  THIS
000042:                                                                                                  #  ALLOWS USERS TO MAKE TRANSFORMATIONS USING ARBITRARY ANGLES, OR REAL
000043:                                                                                                  #  ANGLES IN AN ORDER OTHER THAN X Y Z.  A CALL TO THIS ROUTINE IS
000044:                                                                                                  #  NECESSARY IN PREPARATION FOR A CALL TO AX*SR*T IN EITHER OF ITS TWO
000045:                                                                                                  #  MODES (SMNB OR NBSM).  SINCE AX*SR*T EXPECTS TO FIND THE SINES AND
000046:                                                                                                  #  COSINES IN THE ORDER Y Z X THE ANGLES MUST HAVE BEEN PLACED IN CDUSPOT
000047:                                                                                                  #  IN THIS ORDER.  CD*TR*GS NEED NOT BE REPEATED WHEN AX*SR*T IS CALLED
000048:                                                                                                  #  MORE THAN ONCE, PROVIDED THE ANGLES HAVE NOT CHANGED.  NOTE THAT SINCE
000049:                                                                                                  #  IT CLOBBERS BUF2 (IN THE SINE AND COSINE ROUTINES) CD*TR*GS CANNOT BE
000050:                                                                                                  #  CALLED USING BANKCALL.  SORRY.
000051:
000052:                                                                                                  #  CD*TR*G IS LIKE CD*TR*GS EXCEPT THAT IT CAN BE CALLED IN
000053:                                                                                                  #  INTERPRETIVE.
000054:
000055: 23,3477           77776        CDUTRIG            EXIT
000056: 23,3500           03507                           TC       CDUTRIGS
000057: 23,3501           06006                           TC       INTPRET
000058: 23,3502           77616                           RVQ
000059:
000060: 23,3503           77776        CD*TR*G            EXIT
000061: 23,3504           03515                           TC       CD*TR*GS
000062: 23,3505           06006                           TC       INTPRET
000063: 23,3506           77616                           RVQ
000064:
000065: 23,3507           30032        CDUTRIGS           CA       CDUX
000066: 23,3510           54772                           TS       CDUSPOT    +4
000067: 23,3511           30033                           CA       CDUY
000068: 23,3512           54766                           TS       CDUSPOT


000070: 23,3513           30034                           CA       CDUZ
000071: 23,3514           54770                           TS       CDUSPOT    +2
000072:
000073: 23,3515           00006        CD*TR*GS           EXTEND
000074: 23,3516           22142                           QXCH     TEM2
000075: 23,3517           35015                           CAF      FOUR
000076: 23,3520           76211        TR*GL**P           MASK     SIX                                   #  MAKE IT EVEN AND SMALLER
000077: 23,3521           54143                           TS       TEM3
000078: 23,3522           50143                           INDEX    TEM3
000079: 23,3523           30766                           CA       CDUSPOT
000080: 23,3524           52155                           DXCH     MPAC                                  #  STORING 2'S COMP ANGLE, LOADING MPAC
000081: 23,3525           52127                           DXCH     VBUF       +4                         #  STORING MPAC FOR LATER RESTORATION
000082: 23,3526           04757                           TC       USPRCADR
000083: 23,3527           45513                           CADR     CDULOGIC
000084: 23,3530           00006                           EXTEND
000085: 23,3531           30155                           DCA      MPAC
000086: 23,3532           50143                           INDEX    TEM3
000087: 23,3533           52767                           DXCH     CDUSPOT                               #  STORING 1'S COMPLEMENT ANGLE
000088: 23,3534           04757                           TC       USPRCADR
000089: 23,3535           01516                           CADR     COSINE
000090: 23,3536           52155                           DXCH     MPAC
000091: 23,3537           50143                           INDEX    TEM3
000092: 23,3540           52745                           DXCH     COSCDU                                #  STORING COSINE
000093: 23,3541           00006                           EXTEND
000094: 23,3542           50143                           INDEX    TEM3
000095: 23,3543           30767                           DCA      CDUSPOT                               #  LOADING 1'S COMPLEMENT ANGLE
000096: 23,3544           04757                           TC       USPRCADR
000097: 23,3545           01530                           CADR     SINE       +1                         #  SINE +1 EXPECTS ARGUMENT IN A AND L
000098: 23,3546           52127                           DXCH     VBUF       +4                         #  BRINGING UP PRIOR MPAC TO BE RESTORED
000099: 23,3547           52155                           DXCH     MPAC
000100: 23,3550           50143                           INDEX    TEM3
000101: 23,3551           52737                           DXCH     SINCDU
000102: 23,3552           10143                           CCS      TEM3
000103: 23,3553           13520                           TCF      TR*GL**P
000104: 23,3554           00142                           TC       TEM2


000106:                                                                                                  #  ****************************************************************************************************************
000107:                                                                                                  #  QUICTRIG, INTENDED FOR GUIDANCE CYCLE USE WHERE TIME IS CRITICAL, IS A MUCH FASTER VERSION OF CD*TR*GS.
000108:                                                                                                  #  QUICTRIG COMPUTES AND STORES THE SINES AND COSINES OF THE 2'S COMPLEMENT ANGLES AT CDUSPOT, CDUSPOT +2,
000109:                                                                                                  #  AND CDUSPOT +4.  UNLIKE CD*TR*GS, QUICTRIG DOES NOT LEAVE THE 1'S COMPLEMENT VERSIONS OF THE ANGLES IN
000110:                                                                                                  #  CDUSPOT.  QUICTRIG'S EXECUTION TIME IS 4.1 MS;    THIS IS 10 TIMES AS FAST AS CD*TR*GS.    QUICTRIG MAY BE
000111:                                                                                                  #  CALLED FROM INTERPRETIVE AS AN RTB OP-CODE, OR FROM BASIC VIA BANKCALL OR IBNKCALL.
000112:
000113: 23,3555           00004        QUICTRIG           INHINT                                         #  INHINT SINCE DAP USES THE SAME TEMPS
000114: 23,3556           00006                           EXTEND
000115: 23,3557           22061                           QXCH     ITEMP1
000116: 23,3560           35015                           CAF      FOUR
000117: 23,3561           76211                 +4        MASK     SIX
000118: 23,3562           54062                           TS       ITEMP2
000119: 23,3563           50062                           INDEX    ITEMP2
000120: 23,3564           30766                           CA       CDUSPOT
000121: 23,3565           05075                           TC       SPSIN
000122: 23,3566           00006                           EXTEND
000123: 23,3567           75002                           MP       BIT14                                 #  SCALE DOWN TO MATCH INTERPRETER OUTPUTS
000124: 23,3570           50062                           INDEX    ITEMP2
000125: 23,3571           52737                           DXCH     SINCDU
000126: 23,3572           50062                           INDEX    ITEMP2
000127: 23,3573           30766                           CA       CDUSPOT
000128: 23,3574           05074                           TC       SPCOS
000129: 23,3575           00006                           EXTEND
000130: 23,3576           75002                           MP       BIT14
000131: 23,3577           50062                           INDEX    ITEMP2
000132: 23,3600           52745                           DXCH     COSCDU
000133: 23,3601           10062                           CCS      ITEMP2
000134: 23,3602           13561                           TCF      QUICTRIG   +4
000135: 23,3603           30061                           CA       ITEMP1
000136: 23,3604           00003                           RELINT
000137: 23,3605           00000                           TC       A


000139:                                                                                                  # ****************************************************************************************************************
000140:                                                                                                  #  THESE INTERFACE ROUTINES MAKE IT POSSIBLE TO CALL AX*SR*T, ETC., IN
000141:                                                                                                  #  INTERPRETIVE.  LATER, WHERE POSSIBLE, THEY WILL BE ELIMINATED.
000142:
000143:                                                                                                  #  NBSM WILL BE THE FIRST TO GO.  IT SHOULD NOT BE USED.
000144:
000145: 23,3606           77620        NBSM               STQ
000146: 23,3607           00047                                    X2
000147: 23,3610           76740                           LXC,1    VLOAD*
000148: 23,3611           00050                                    S1                                    #  BASE ADDRESS OF THE CDU ANGLES IS IN S1
000149: 23,3612           00001                                    0,1
000150: 23,3613           24767                           STOVL    CDUSPOT
000151: 23,3614           00041                                    32D                                   #  VECTOR TO BE TRANSFORMED IS IN 32D
000152: 23,3615           77624                           CALL
000153: 23,3616           47637                                    TRG*NBSM
000154: 23,3617           34041                           STCALL   32D                                   #  SINCE THERE'S NO STGOTO
000155: 23,3620           00047                                    X2
000156:
000157:                                                                                                  #  THESE INTERFACE ROUTINES ARE PERMANENT.  ALL RESTORE USER'S EBANK
000158:                                                                                                  #  SETTING. ALL ARE STRICT INTERPRETIVE SUBROUTINES, CALLED USING "CALL",
000159:                                                                                                  #  RETURNING VIA QPRET.  ALL EXPECT AND RETURN THE VECTOR TO BE TRANSFOR-
000160:                                                                                                  #  MED INTERPRETER-STYLE IN MPAC; COMPONENTS AT MPAC, MPAC +3, AND MPAC +5.
000161:
000162:                                                                                                  #  TRG*SMNB AND TRG*NBSM BOTH EXPECT TO SEE THE 2'S COMPLEMENT ANGLES
000163:                                                                                                  #  AT CDUSPOT (ORDER Y Z X, AT CDUSPOT, CDUSPOT +2, AND CDUSPOT +4; ODD
000164:                                                                                                  #  LOCATIONS NEED NOT BE ZEROED).  TRG*NBSM DOES THE NB TO SM TRANSFOR-
000165:                                                                                                  #  MATION; TRG*SMNB, VICE VERSA.
000166:
000167:                                                                                                  #  CDU*NBSM DOES ITS TRANSFORMATION USING THE PRESENT CONTENTS OF
000168:                                                                                                  #  THE CDU COUNTERS.  OTHERWISE IT IS LIKE TRG*NBSM.
000169:
000170:                                                                                                  #  CDU*SMNB IS THE COMPLEMENT OF CDU*NBSM.
000171:
000172: 23,3621           77776        CDU*SMNB           EXIT
000173: 23,3622           03507                           TC       CDUTRIGS
000174: 23,3623           13626                           TCF      C*MM*N1
000175:
000176: 23,3624           77776        TRG*SMNB           EXIT
000177: 23,3625           03515                           TC       CD*TR*GS
000178: 23,3626           07501        C*MM*N1            TC       MPACVBUF                              #  AX*SR*T EXPECTS VECTOR IN VBUF
000179: 23,3627           46214                           CS       THREE                                 #  SIGNAL FOR SM TO NB TRANSFORMATION
000180: 23,3630           03650        C*MM*N2            TC       AX*SR*T
000181: 23,3631           06006                           TC       INTPRET
000182: 23,3632           43575                           VLOAD    RVQ
000183: 23,3633           00123                                    VBUF
000184:
000185: 23,3634           77776        CDU*NBSM           EXIT
000186: 23,3635           03507                           TC       CDUTRIGS
000187:


000189:
000190: 23,3636           13641                           TCF      C*MM*N3
000191:
000192: 23,3637           77776        TRG*NBSM           EXIT
000193: 23,3640           03515                           TC       CD*TR*GS
000194: 23,3641           07501        C*MM*N3            TC       MPACVBUF                              #  FOR AX*SR*T
000195: 23,3642           36214                           CA       THREE                                 #  SIGNAL FOR NB TO SM TRANSFORMATION
000196: 23,3643           13630                           TCF      C*MM*N2
000197:
000198:                                                                                                  #  *NBSM* AND *SMNB* EXPECT TO SEE THE SINES AND COSINES (AT SINCDU
000199:                                                                                                  #  AND COSCDU) RATHER THAN THE ANGLES THEMSELVES.  OTHERWISE THEY ARE
000200:                                                                                                  #  LIKE TRG*NBSM AND TRG*SMNB.
000201:
000202:                                                                                                  #  NOTE THAT JUST AS CD*TR*GS NEED BE CALLED ONLY ONCE FOR EACH SERIES
000203:                                                                                                  #  OF TRANSFORMATIONS USING THE SAME ANGLES, SO TOO ONLY ONE OF TRG*NBSM
000204:                                                                                                  #  AND TRG*SMNB NEED BE CALLED FOR EACH SERIES.  FOR SUBSEQUENT TRANSFOR-
000205:                                                                                                  #  MATIONS USE *NBSM* AND *SMNB*.
000206:
000207: 23,3644           77776        *SMNB*             EXIT
000208: 23,3645           13626                           TCF      C*MM*N1
000209:
000210: 23,3646           77776        *NBSM*             EXIT
000211: 23,3647           13641                           TCF      C*MM*N3
000212:
000213:                                                                                                  #  AX*SR*T COMBINES THE OLD SMNB AND NBSM.  FOR THE NB TO SM
000214:                                                                                                  #  TRANSFORMATION, ENTER WITH +3 IN A.  FOR SM TO NB, ENTER WITH -3.
000215:                                                                                                  #  THE VECTOR TO BE TRANSFORMED ARRIVES, AND IS RETURNED, IN VBUF.
000216:                                                                                                  #  AX*SR*T EXPECTS TO FIND THE SINES AND COSINES OF THE ANGLES OF ROTATION
000217:                                                                                                  #  AT SINCDU AND COSCDU, IN THE ORDER Y Z X.  A CALL TO CD*TR*GS, WITH
000218:                                                                                                  #  THE 2'S COMPLEMENT ANGLES (ORDER Y Z X) AT CDUSPOT, WILL TAKE CARE OF
000219:                                                                                                  #  THIS.  HERE IS A SAMPLE CALLING SEQUENCE:-
000220:                                                                                                  #                TC      CDUTRIGS
000221:                                                                                                  #                CS      THREE           ("CA THREE" FOR NBSM)
000222:                                                                                                  #                TC      AX*SR*T
000223:                                                                                                  #  THE CALL TO CD*TR*GS NEED NOT BE REPEATED, WHEN AX*SR*T IS CALLED MORE
000224:                                                                                                  #  THAN ONCE, UNLESS THE ANGLES HAVE CHANGED.
000225:
000226:                                                                                                  #  AX*SR*T IS GUARANTEED SAFE ONLY FOR VECTORS OF MAGNITUDE LESS THAN
000227:                                                                                                  #  UNITY.  A LOOK AT THE CASE IN WHICH A VECTOR OF GREATER MAGNITUDE
000228:                                                                                                  #  HAPPENS TO LIE ALONG AN AXIS OF THE SYSTEM TO WHICH IT IS TO BE TRANS-
000229:                                                                                                  #  FORMED CONVINCES ONE THAT THIS IS A RESTRICTION WHICH MUST BE ACCEPTED.
000230:
000231: 23,3650           54142        AX*SR*T            TS       DEXDEX                                #  WHERE IT BECOMES THE INDEX OF INDEXES
000232: 23,3651           00006                           EXTEND
000233: 23,3652           22145                           QXCH     RTNSAVER
000234:
000235: 23,3653           10142        R*TL**P            CCS      DEXDEX                                #                +3 --> 0        -3 --> 2
000236: 23,3654           40142                           CS       DEXDEX                                #  THUS:         +2 --> 1        -2 --> 1
000237: 23,3655           66214                           AD       THREE                                 #                +1 --> 2        -1 --> 0


000239: 23,3656           00006                           EXTEND
000240: 23,3657           50000                           INDEX    A
000241: 23,3660           33737                           DCA      INDEXI
000242: 23,3661           52144                           DXCH     DEXI
000243:
000244: 23,3662           35017                           CA       ONE
000245: 23,3663           54130                           TS       BUF
000246: 23,3664           00006                           EXTEND
000247: 23,3665           50143                           INDEX    DEX1
000248: 23,3666           40123                           DCS      VBUF
000249: 23,3667           13671                           TCF      LOOP1                                 #  REALLY BE A SUBTRACT, AND VICE VERSA
000250:
000251: 23,3670           52131        LOOP2              DXCH     BUF                                   #  LOADING VECTOR COMPONENT, STORING INDEX
000252:
000253: 23,3671           52155        LOOP1              DXCH     MPAC
000254: 23,3672           33735                           CA       SINESLOC
000255: 23,3673           60143                           AD       DEX1
000256: 23,3674           54116                           TS       ADDRWD
000257:
000258: 23,3675           07056                           TC       DMPSUB                                #  MULTIPLY BY SIN(CDUANGLE)
000259: 23,3676           10142                           CCS      DEXDEX
000260: 23,3677           52155                           DXCH     MPAC                                  #  NBSM CASE
000261: 23,3700           13703                           TCF      +3
000262: 23,3701           00006                           EXTEND                                         #  SMNB CASE
000263: 23,3702           40155                           DCS      MPAC
000264: 23,3703           52134                           DXCH     TERM1TMP
000265:
000266: 23,3704           36211                           CA       SIX                                   #  SINCDU AND COSCDU (EACH 6 WORDS) MUST
000267: 23,3705           26116                           ADS      ADDRWD                                #        BE CONSECUTIVE AND IN THAT ORDER
000268:
000269: 23,3706           00006                           EXTEND
000270: 23,3707           50130                           INDEX    BUF
000271: 23,3710           50143                           INDEX    DEX1
000272: 23,3711           30123                           DCA      VBUF
000273: 23,3712           52155                           DXCH     MPAC
000274: 23,3713           07056                           TC       DMPSUB                                #  MULTIPLY BY COS(CDUANGLE)
000275: 23,3714           52155                           DXCH     MPAC
000276: 23,3715           20134                           DAS      TERM1TMP
000277: 23,3716           52134                           DXCH     TERM1TMP
000278: 23,3717           20001                           DDOUBL
000279: 23,3720           50130                           INDEX    BUF
000280: 23,3721           50143                           INDEX    DEX1
000281: 23,3722           52123                           DXCH     VBUF
000282: 23,3723           52131                           DXCH     BUF                                   #  LOADING INDEX, STORING VECTOR COMPONENT
000283: 23,3724           10000                           CCS      A                                     #  'CAUSE THAT'S WHERE THE INDEX NOW IS
000284: 23,3725           13670                           TCF      LOOP2
000285:
000286: 23,3726           00006                           EXTEND
000287: 23,3727           26142                           DIM      DEXDEX                                #  DECREMENT MAGNITUDE PRESERVING SIGN
000288:


000290: 23,3730           10142        TSTPOINT           CCS      DEXDEX                                #  ONLY THE BRANCHING FUNCTION IS USED
000291: 23,3731           13653                           TCF      R*TL**P
000292: 23,3732           00145                           TC       RTNSAVER
000293: 23,3733           13653                           TCF      R*TL**P
000294: 23,3734           00145                           TC       RTNSAVER
000295:
000296: 23,3735           00736        SINESLOC           ADRES    SINCDU                                #  FOR USE IN SETTING ADDRWD
000297:
000298: 23,3736           00004        INDEXI             DEC      4          B-14                       #  **********   DON'T   **********
000299: 23,3737           00002                           DEC      2          B-14                       #  **********   TOUCH   **********
000300: 23,3740           00000                           DEC      0          B-14                       #  **********   THESE   **********
000301: 23,3741           00004                           DEC      4          B-14                       #  ********** CONSTANTS **********
000302:
000303:                                                                                                  #  ****************************************************************************************************************


000305:                                                                                                  #  THIS SUBROUTINE COMPUTES INCREMENTAL CHANGES IN CDU(GIMBAL) ANGLES FROM INCREMENTAL CHANGES ABOUT SM AXES.  IT
000306:                                                                                                  #  REQUIRES SM INCREMENTS AS A DP VECTOR SCALED AT ONE REVOLUTION(DTHETASM,+2,+4).  SIN,COS(CDUY,Z,X) ARE IN
000307:                                                                                                  #  SINCDU,+2,+4 AND COSCDU,+2,+4 RESPECTIVELY, SCALED TO ONE HALF.  CDU INCREENTS ARE PLACED IN DCDU,+2,+4 SCALED TO
000308:                                                                                                  #  ONE REVOLUTION.
000309:
000310:                                                                                                  #        *  COS(IGA)SEC(MGA)             0               -SIN(IGA)SEC(MGA) *
000311:                                                                                                  #        *                                                                 *
000312:                                                                                                  #        * -COS(IGA)TAN(MGA)             1                SIN(IGA)TAN(MGA) *
000313:                                                                                                  #        *                                                                 *
000314:                                                                                                  #        *      SIN(IGA)                 0                    COS(IGA)     *
000315:
000316: 14,3423                                           BANK     14
000317: 23,2000                                           SETLOC   POWFLIT1
000318: 23,2000                                           BANK
000319:
000320: 23,3742           41345        SMCDURES           DLOAD    DMP
000321: 23,3743           03212                                    DTHETASM
000322: 23,3744           00745                                    COSCDUY
000323:
000324: 23,3745           41325                           PDDL     DMP
000325: 23,3746           03216                                    DTHETASM   +4
000326: 23,3747           00737                                    SINCDUY
000327:
000328: 23,3750           77621                           BDSU
000329: 23,3751           77671                           DDV
000330: 23,3752           00747                                    COSCDUZ
000331: 23,3753           03204                           STORE    DCDU
000332:
000333: 23,3754           72405                           DMP      SL1                                   #  SCALE
000334: 23,3755           00741                                    SINCDUZ
000335: 23,3756           77621                           BDSU
000336:
000337: 23,3757           03214                                    DTHETASM   +2
000338: 23,3760           17206                           STODL    DCDU       +2
000339: 23,3761           03212                                    DTHETASM
000340:
000341: 23,3762           65205                           DMP      PDDL
000342: 23,3763           00737                                    SINCDUY
000343: 23,3764           03216                                    DTHETASM   +4
000344:
000345: 23,3765           43205                           DMP      DAD
000346: 23,3766           00745                                    COSCDUY
000347: 23,3767           77752                           SL1
000348: 23,3770           03210                           STORE    DCDU       +4
000349: 23,3771           77616                           RVQ
000350:

End of include-file POWERED_FLIGHT_SUBROUTINES.agc.  Parent file is MAIN.agc


