
Source Code


000002:                                                                                                  ## Copyright:   Public domain.
000003:                                                                                                  ## Filename:    SERVICE_ROUTINES.agc
000004:                                                                                                  ## Purpose:     A section of Comanche revision 045.
000005:                                                                                                  ##              It is part of the reconstructed source code for the
000006:                                                                                                  ##              second release of the flight software for the Command
000007:                                                                                                  ##              Module's (CM) Apollo Guidance Computer (AGC) for Apollo 10.
000008:                                                                                                  ##              The code has been recreated from a copy of Comanche 055. It
000009:                                                                                                  ##              has been adapted such that the resulting bugger words
000010:                                                                                                  ##              exactly match those specified for Comanche 45 in NASA drawing
000011:                                                                                                  ##              2021153D, which gives relatively high confidence that the
000012:                                                                                                  ##              reconstruction is correct.
000013:                                                                                                  ## Assembler:   yaYUL
000014:                                                                                                  ## Contact:     Ron Burkey <info@sandroid.org>.
000015:                                                                                                  ## Website:     www.ibiblio.org/apollo/index.html
000016:                                                                                                  ## Mod history: 2020-12-06 MAS  Created from Comanche 44.
000017:


000019:    7722                                           BLOCK    3
000020:    6000                                           SETLOC   FFTAG6
000021:    6000                                           BANK
000022:    7722                                           COUNT    03/FLAG
000023:
000024:    7722           54001        UPENT2             TS       L                                     #  WHICH FLAGWORD IS IT
000025:    7723           75023                           MASK     OCT7
000026:    7724           56001                           XCH      L                                     #  SAVE IN L FOR INDEXING
000027:
000028:    7725           75731                           MASK     OCT77770                              #  OBTAIN THE BIT INFORMATION
000029:    7726           00004                           INHINT                                         #  PREVENT INTERUPTS
000030:    7727           54061                           TS       ITEMP1                                #  STORE THE BIT INFORMATION TEMPORARIALY
000031:
000032:    7730           50001                           NDX      L
000033:    7731           40074                           CS       FLAGWRD0
000034:    7732           70061                           MASK     ITEMP1
000035:    7733           50001                           NDX      L
000036:    7734           26074                           ADS      FLAGWRD0
000037:    7735           00003                           RELINT                                         #  RELEASE INTERUPT INHIBIT
000038:
000039:    7736           24002                           INCR     Q                                     #  OBTAIN THE CORRECT RETURN ADDRESS
000040:    7737           00002                           TC       Q                                     #  RETURN
000041:
000042:    7740           54001        DOWNENT2           TS       L                                     #  WHICH FLAGWORD IS IT
000043:    7741           75023                           MASK     OCT7
000044:    7742           56001                           XCH      L                                     #  SAVE IN L FOR INDEXING
000045:
000046:    7743           75731                           MASK     OCT77770                              #  OBTAIN THE BIT INFORMATION
000047:    7744           40000                           COM                                            #  START TO PROCESS THE INFORMATION
000048:
000049:    7745           00004                           INHINT                                         #  PREVENT INTERUPTS
000050:    7746           50001                           NDX      L
000051:    7747           70074                           MASK     FLAGWRD0
000052:    7750           50001                           NDX      L
000053:    7751           54074                           TS       FLAGWRD0
000054:    7752           00003                           RELINT                                         #  RELEASE INTERUPT INHIBIT
000055:
000056:    7753           24002                           INCR     Q                                     #  OBTAIN THE CORRECT RETURN ADDRESS
000057:    7754           00002                           TC       Q                                     #  RETURN
000058:
000059:    7755     5023               OCT7               EQUALS   SEVEN
000060: 10,3766                                           BANK     10
000061:


000063:                                                                                                  #  UPFLAG AND DOWNFLAG ARE ENTIRELY GENERAL FLAG SETTING AND CLEARING SUBROUTINES.  USING THEM, WHETHER OR
000064:                                                                                                  #  NOT IN INTERRUPT, ONE MAY SET OR CLEAR ANY SINGLE, NAMED BIT IN ANY ERASABLE REGISTER, SUBJECT OF COURSE TO
000065:                                                                                                  #  EBANK SETTING.  A "NAMED" BIT, AS THE WORD IS USED HERE, IS ANY BIT WITH A NAME FORMALLY ASSIGNED BY THE YUL
000066:                                                                                                  #  ASSEMBLER.
000067:
000068:                                                                                                  #  AT PRESENT THE ONLY NAMED BITS ARE THOSE IN THE FLAGWORDS.  ASSEMBLER CHANGES WILL MAKE IT POSSIBLE TO
000069:                                                                                                  #  NAME ANY BIT IN ERASABLE MEMORY.
000070:
000071:                                                                                                  #  CALLING SEQUENCES ARE AS FOLLOWS:-
000072:                                                                                                  #                TC      UPFLAG                  TC      DOWNFLAG
000073:                                                                                                  #                ADRES   NAME OF FLAG            ADRES   NAME OF FLAG
000074:
000075:                                                                                                  #  RETURN IS TO THE LOCATION FOLLOWING THE "ADRES" ABOUT .58 MS AFTER THE "TC".
000076:                                                                                                  #  UPON RETURN A CONTAINS THE CURRENT FLAGWRD SETTING.
000077:
000078:    5546                                           BLOCK    02
000079:    4000                                           SETLOC   FFTAG1
000080:    4000                                           BANK
000081:    5546                                           COUNT*   $$/FLAG
000082:
000083:    5546           30002        UPFLAG             CA       Q
000084:    5547           05564                           TC       DEBIT
000085:    5550           40000                           COM                                            #  +(15 - BIT)
000086:    5551           00006                           EXTEND
000087:    5552           04001                           ROR      LCHAN                                 #  SET BIT
000088:    5553           50061        COMFLAG            INDEX    ITEMP1
000089:    5554           54074                           TS       FLAGWRD0
000090:    5555           22063                           LXCH     ITEMP3
000091:    5556           00003                           RELINT
000092:    5557           00001                           TC       L
000093:
000094:    5560           30002        DOWNFLAG           CA       Q
000095:    5561           05564                           TC       DEBIT
000096:    5562           70001                           MASK     L                                     #  RESET BIT
000097:    5563           15553                           TCF      COMFLAG
000098:
000099:    5564           65017        DEBIT              AD       ONE                                   #  GET DE BITS
000100:    5565           00004                           INHINT
000101:    5566           54063                           TS       ITEMP3
000102:    5567           35026                           CA       LOW4                                  #  DEC15
000103:    5570           54061                           TS       ITEMP1
000104:    5571           50063                           INDEX    ITEMP3
000105:    5572           27777                           CA       0          -1                         #  ADRES
000106:    5573           54001                           TS       L
000107:    5574           35021                           CA       ZERO


000109:    5575           00006                           EXTEND
000110:    5576           10061                           DV       ITEMP1                                #  A = FLAGWRD, L = (15 - BIT)
000111:    5577           52062                           DXCH     ITEMP1
000112:    5600           50061                           INDEX    ITEMP1
000113:    5601           30074                           CA       FLAGWRD0
000114:    5602           54001                           TS       L                                     #  CURRENT STATE
000115:    5603           50062                           INDEX    ITEMP2
000116:    5604           45001                           CS       BIT15                                 #  -(15 - BIT)
000117:    5605           00002                           TC       Q
000118:


000120:                                                                                                  #  DELAYJOB- A GENERAL ROUTINE TO DELAY A JOB A SPECIFIC AMOUNT OF TIME BEFORE PICKING UP AGAIN.
000121:
000122:                                                                                                  #  ENTRANCE REQUIREMENTS...
000123:                                                                                                  #                CAF     DT              DELAY JOB FOR DT CENTISECS
000124:                                                                                                  #                TC      BANKCALL
000125:                                                                                                  #                CADR    DELAYJOB
000126:
000127: 06,3770                                           BANK     06
000128: 00,2000                                           SETLOC   DLAYJOB
000129: 00,2000                                           BANK
000130:
000131:                                                                                                  #  THIS MUST REMAIN IN BANK 0 *****************************************
000132:
000133: 00,3732                                           COUNT    00/DELAY
000134:
000135: 00,3732           00004        DELAYJOB           INHINT
000136: 00,3733           54002                           TS       Q                                     #  STORE DELAY DT IN Q FOR DLY -1 IN
000137: 00,3734           36214                           CAF      DELAYNUM                              #  WAITLIST
000138: 00,3735           54070        DELLOOP            TS       RUPTREG1
000139: 00,3736           50000                           INDEX    A
000140: 00,3737           31141                           CA       DELAYLOC                              #  IS THIS DELAYLOC AVAILABLE
000141: 00,3740           00006                           EXTEND
000142: 00,3741           13746                           BZF      OK2DELAY                              #  YES
000143:
000144: 00,3742           10070                           CCS      RUPTREG1                              #  NO, TRY NEXT DELAYLOC
000145: 00,3743           13735                           TCF      DELLOOP
000146:
000147: 00,3744           07755                           TC       BAILOUT                               #  NO AVAILABLE LOCS AVAILABLE.
000148: 00,3745           01104                           OCT      1104
000149:
000150: 00,3746           33766        OK2DELAY           CA       TCSLEEP                               #  SET WAITLIST IMMEDIATE RETURN
000151: 00,3747           54061                           TS       WAITEXIT
000152:
000153: 00,3750           30004                           CA       FBANK
000154: 00,3751           60070                           AD       RUPTREG1                              #  STORE BBANK FOR TASK CALL
000155: 00,3752           54001                           TS       L
000156:
000157: 00,3753           33767                           CAF      WAKECAD                               #  STORE CADR FOR TASK CALL
000158: 00,3754           15255                           TCF      DLY2       -1                         #  DLY IS IN WAITLIST ROUTINE
000159:
000160: 00,3755           04711        TCGETCAD           TC       MAKECADR                              #  GET CALLERS FCADR
000161:
000162: 00,3756           50070                           INDEX    RUPTREG1
000163: 00,3757           55141                           TS       DELAYLOC                              #  SAVE DELAY CADRS
000164:
000165: 00,3760           05175                           TC       JOBSLEEP
000166:
000167: 00,3761           35021        WAKER              CAF      ZERO
000168: 00,3762           50006                           INDEX    BBANK
000169: 00,3763           57141                           XCH      DELAYLOC                              #  MAKE DELAYLOC AVAILABLE


000171: 00,3764           05201                           TC       JOBWAKE
000172:
000173: 00,3765           05324                           TC       TASKOVER
000174:
000175: 00,3766           03753        TCSLEEP            GENADR   TCGETCAD   -2
000176: 00,3767           03761        WAKECAD            GENADR   WAKER
000177:


000179:                                                                                                  #  GENTRAN, A BLOCK TRANSFER ROUTINE.
000180:                                                                                                  #  WRITTEN BY D. EYLES
000181:                                                                                                  #  MOD 1 BY KERNAN                               UTILITYM REV 17 11/18/67
000182:                                                                                                  #  MOD 2 BY SCHULENBERG  (REMOVE RELINT)  SKIPPER REV 4 2/28/68
000183:
000184:                                                                                                  #  THIS ROUTINE IS USEFULL FOR TRANSFERING N CONSECUTIVE ERASABLE OR FIXED QUANTITIES TO SOME OTHER N
000185:                                                                                                  #  CONSECUTIVE ERASABLE LOCATIONS.  IF BOTH BLOCKS OF DATA ARE IN SWITCHABLE EBANKS, THEY MUST BE IN THE SAME ONE.
000186:
000187:                                                                                                  #  GENTRAN IS CALLABLE IN A JOB AS WELL AS A RUPT.  THE CALLING SEQUENCE IS:
000188:                                                                                                  #        I       CA      N-1             # OF QUANTITIES MINUS ONE.
000189:                                                                                                  #        I +1    TC      GENTRAN         IN FIXED-FIXED.
000190:                                                                                                  #        I +2    ADRES   L               STARTING ADRES OF DATA TO BE MOVED.
000191:                                                                                                  #        I +3    ADRES   M               STARTING ADRES OF DUPLICATION BLOCK.
000192:                                                                                                  #        I +4                            RETURNS HERE.
000193:
000194:                                                                                                  #  GENTRAN TAKES 25 MCT'S (300 MICROSECONDS) PER ITEM + 5 MCT'S (60 MICS) FOR ENTERING AND EXITING.
000195:                                                                                                  #  A, L AND ITEMP1 ARE NOT PRESERVED.
000196:
000197:    5606                                           BLOCK    02
000198:    4000                                           SETLOC   FFTAG4
000199:    4000                                           BANK
000200:
000201:    5606     0061                                  EBANK=   ITEMP1
000202:
000203:    5606                                           COUNT*   $$/TRAN
000204:
000205:    5606           00004        GENTRAN            INHINT
000206:    5607           54061                           TS       ITEMP1                                #  SAVE N-1.
000207:    5610           50002                           INDEX    Q                                     #  C(Q) = ADRES L.
000208:    5611           60000                           AD       0                                     #  ADRES (L + N - 1).
000209:    5612           50000                           INDEX    A
000210:    5613           30000                           CA       0                                     #  C(ABOVE).
000211:    5614           54001                           TS       L                                     #  SAVE DATA.
000212:    5615           30061                           CA       ITEMP1
000213:    5616           50002                           INDEX    Q
000214:    5617           60001                           AD       1                                     #  ADRES (M + N - 1).
000215:    5620           50000                           INDEX    A
000216:    5621           22000                           LXCH     0                                     #  STUFF IT.
000217:    5622           10061                           CCS      ITEMP1                                #  LOOP UNTIL N-1 = 0.
000218:    5623           15607                           TCF      GENTRAN    +1
000219:    5624           16710                           TCF      Q+2                                   #  RETURN TO CALLER.
000220:


000222:                                                                                                  #  B5OFF         ZERO BIT 5 OF EXTVBACT, WHICH IS SET BY TESTXACT.
000223:                                                                                                  #  MAY BE USED AS NEEDED BY ANY EXTENDED VERB WHICH HAS DONE TESTXACT
000224:
000225:    5625                                           COUNT*   $$/EXTVB
000226:
000227:    5625           45013        B5OFF              CS       BIT5
000228:    5626           71044                           MASK     EXTVBACT
000229:    5627           55044                           TS       EXTVBACT
000230:    5630           05217                           TC       ENDOFJOB
000231:


000233:                                                                                                  #  SUBROUTINES TO TURN OFF AND TURN ON TRACKER FAIL LIGHT.
000234:
000235:    5631           00004        TRFAILOF           INHINT
000236:    5632           47704                           CS       OCT40200                              #  TURN OFF TRACKER LIGHT
000237:    5633           71036                           MASK     DSPTAB     +11D
000238:    5634           65001                           AD       BIT15
000239:    5635           55036                           TS       DSPTAB     +11D
000240:    5636           41331                           CS       OPTMODES                              #  TO INSURE THAT OCDU FAIL WILL GO ON
000241:    5637           75011                           MASK     BIT7                                  #  AGAIN IF IT WAS ON IN ADDITION TO
000242:    5640           27331                           ADS      OPTMODES                              #  TRACKER FAIL.
000243:
000244:    5641           00003        REQ                RELINT
000245:    5642           00002                           TC       Q
000246:
000247:    5643           00004        TRFAILON           INHINT
000248:    5644           41036                           CS       DSPTAB     +11D                       #  TURN ON
000249:    5645           77704                           MASK     OCT40200
000250:    5646           27036                           ADS      DSPTAB     +11D
000251:    5647           15641                           TCF      REQ
000252:
000253:
000254:
000255:

End of include-file SERVICE_ROUTINES.agc.  Parent file is MAIN.agc


