
Source Code


000002:                                                                                                  ## Copyright:   Public domain.
000003:                                                                                                  ## Filename:    SINGLE_PRECISION_SUBROUTINES.agc
000004:                                                                                                  ## Purpose:     A section of Comanche revision 045.
000005:                                                                                                  ##              It is part of the reconstructed source code for the
000006:                                                                                                  ##              second release of the flight software for the Command
000007:                                                                                                  ##              Module's (CM) Apollo Guidance Computer (AGC) for Apollo 10.
000008:                                                                                                  ##              The code has been recreated from a copy of Comanche 055. It
000009:                                                                                                  ##              has been adapted such that the resulting bugger words
000010:                                                                                                  ##              exactly match those specified for Comanche 45 in NASA drawing
000011:                                                                                                  ##              2021153D, which gives relatively high confidence that the
000012:                                                                                                  ##              reconstruction is correct.
000013:                                                                                                  ## Assembler:   yaYUL
000014:                                                                                                  ## Contact:     Ron Burkey <info@sandroid.org>.
000015:                                                                                                  ## Website:     www.ibiblio.org/apollo/index.html
000016:                                                                                                  ## Mod history: 2020-12-06 MAS  Created from Comanche 44.
000017:


000019:    5074                                           BLOCK    02
000020:
000021:                                                                                                  #  SINGLE PRECISION SINE AND COSINE
000022:
000023:    5074                                           COUNT    02/INTER
000024:
000025:    5074           65002        SPCOS              AD       HALF                                  #  ARGUMENTS SCALED AT PI
000026:    5075           55075        SPSIN              TS       TEMK
000027:    5076           15100                           TCF      SPT
000028:    5077           41075                           CS       TEMK
000029:    5100           60000        SPT                DOUBLE
000030:    5101           55075                           TS       TEMK
000031:    5102           15113                           TCF      POLLEY
000032:    5103           57075                           XCH      TEMK
000033:    5104           51075                           INDEX    TEMK
000034:    5105           65000                           AD       LIMITS
000035:    5106           40000                           COM
000036:    5107           61075                           AD       TEMK
000037:    5110           55075                           TS       TEMK
000038:    5111           15113                           TCF      POLLEY
000039:    5112           15131                           TCF      ARG90
000040:    5113           00006        POLLEY             EXTEND
000041:    5114           71075                           MP       TEMK
000042:    5115           55076                           TS       SQ
000043:    5116           00006                           EXTEND
000044:    5117           75047                           MP       C5/2
000045:    5120           67706                           AD       C3/2
000046:    5121           00006                           EXTEND
000047:    5122           71076                           MP       SQ
000048:    5123           67666                           AD       C1/2
000049:    5124           00006                           EXTEND
000050:    5125           71075                           MP       TEMK
000051:    5126           20001                           DDOUBL
000052:    5127           55075                           TS       TEMK
000053:    5130           00002                           TC       Q
000054:    5131           50000        ARG90              INDEX    A
000055:    5132           45000                           CS       LIMITS
000056:    5133           00002                           TC       Q                                     #  RESULT SCALED AT 1
000057:
000058:                                                                                                  #  SPROOT WAS DELETED IN REV 51 OF MASTER. ASS. CONT. HAS CARDS.
000059:
000060:
000061:
000062:

End of include-file SINGLE_PRECISION_SUBROUTINES.agc.  Parent file is MAIN.agc


