
Source Code


000002:                                                                                                  ## Copyright:   Public domain.
000003:                                                                                                  ## Filename:    TAGS_FOR_RELATIVE_SETLOC_AND_BLANK_BANK_CARDS.agc
000004:                                                                                                  ## Purpose:     A section of Comanche revision 045.
000005:                                                                                                  ##              It is part of the reconstructed source code for the
000006:                                                                                                  ##              second release of the flight software for the Command
000007:                                                                                                  ##              Module's (CM) Apollo Guidance Computer (AGC) for Apollo 10.
000008:                                                                                                  ##              The code has been recreated from a copy of Comanche 055. It
000009:                                                                                                  ##              has been adapted such that the resulting bugger words
000010:                                                                                                  ##              exactly match those specified for Comanche 45 in NASA drawing
000011:                                                                                                  ##              2021153D, which gives relatively high confidence that the
000012:                                                                                                  ##              reconstruction is correct.
000013:                                                                                                  ## Assembler:   yaYUL
000014:                                                                                                  ## Contact:     Ron Burkey <info@sandroid.org>.
000015:                                                                                                  ## Website:     www.ibiblio.org/apollo/index.html
000016:                                                                                                  ## Mod history: 2020-12-06 MAS  Created from Comanche 44 and added the
000017:                                                                                                  ##                              MODCHG1 tag to bank 17.
000018:                                                                                                  ##              2020-12-20 MAS  Moved the MODCHG1 tag to bank 16, based on
000019:                                                                                                  ##                              new evidence that PCR 747 (Remove TVCDAP
000020:                                                                                                  ##                              initial attitude errors) is responsible for
000021:                                                                                                  ##                              the bank 17 checksum difference.
000022:                                                                                                  ##              2020-12-24 RSB  Added an annotation justifying a reconstruction
000023:                                                                                                  ##                              change.
000024:


000026: ???????                        FIXED              MEMORY   120000     -          167777
000027: ???????                                           COUNT    BANKSUM
000028:
000029:                                                                                                  #  MODULE 1 CONTAINS BANKS 0 THROUGH 5
000030:
000031:    4000                                           BLOCK    02
000032:    4000                        FFTAG1             EQUALS
000033:    4000                        FFTAG2             EQUALS
000034:    4000                        FFTAG3             EQUALS
000035:    4000                        FFTAG4             EQUALS
000036:    4000                        FFTAG7             EQUALS
000037:    4000                        FFTAG8             EQUALS
000038:    4000                        FFTAG9             EQUALS
000039:    4000                        FFTAG10            EQUALS
000040:    4000                        FFTAG12            EQUALS
000041:    4000                        P30SUBS            EQUALS
000042:    4000                        STOPRAT            EQUALS
000043:    4000                        P23S               EQUALS
000044:    4000                                           BNKSUM   02
000045:
000046:    6000                                           BLOCK    03
000047:    6000                        FFTAG5             EQUALS
000048:    6000                        FFTAG6             EQUALS
000049:    6000                        DAPS9              EQUALS
000050:    6000                        FFTAG13            EQUALS
000051:    6000                                           BNKSUM   03
000052:
000053: 00,2000                                           BANK     00
000054: 00,2000                        DLAYJOB            EQUALS
000055: 00,2000                                           BNKSUM   00
000056:
000057: 01,2000                                           BANK     01
000058: 01,2000                        RESTART            EQUALS
000059: 01,2000                                           BNKSUM   01
000060:
000061: 04,2000                                           BANK     4
000062: 04,2000                        VERB37             EQUALS
000063: 04,2000                        CONICS1            EQUALS
000064: 04,2000                        PINBALL4           EQUALS
000065: 04,2000                        CSI/CDH1           EQUALS
000066: 04,2000                        INTPRET2           EQUALS
000067: 04,2000                        IMUCAL1            EQUALS
000068:


000070:
000071: 04,2000                        STBLEORB           EQUALS
000072: 04,2000                        E/PROG             EQUALS
000073: 04,2000                        MIDDGIM            EQUALS
000074:
000075: 04,2000                                           BNKSUM   04
000076:
000077: 05,2000                                           BANK     5
000078: 05,2000                        FRANDRES           EQUALS
000079: 05,2000                        DOWNTELM           EQUALS
000080: 05,2000                        DAPMASS            EQUALS
000081: 05,2000                        CDHTAG             EQUALS
000082: 05,2000                                           BNKSUM   05
000083:
000084:                                                                                                  #  MODULE 2 CONTAINS BANKS 6 THROUGH 13
000085:
000086: 06,2000                                           BANK     6
000087: 06,2000                        IMUCOMP            EQUALS
000088: 06,2000                        T4RUP              EQUALS
000089: 06,2000                        IMUCAL2            EQUALS
000090: 06,2000                        CSIPROG            EQUALS
000091: 06,2000                                           BNKSUM   06
000092:
000093: 07,2000                                           BANK     7
000094: 07,2000                        SXTMARKE           EQUALS
000095: 07,2000                        R02                EQUALS
000096: 07,2000                        MODESW             EQUALS
000097: 07,2000                        XANG               EQUALS
000098: 07,2000                        KEYRUPT            EQUALS
000099: 07,2000                        CSIPROG6           EQUALS
000100: 07,2000                                           BNKSUM   07
000101:
000102: 10,2000                                           BANK     10
000103: 10,2000                        DISPLAYS           EQUALS
000104: 10,2000                        PHASETAB           EQUALS
000105: 10,2000                        COMGEOM2           EQUALS
000106: 10,2000                        SXTMARK1           EQUALS
000107: 10,2000                        P60S4              EQUALS
000108: 10,2000                        OPTDRV             EQUALS
000109: 10,2000                        CSIPROG8           EQUALS
000110: 10,2000                                           BNKSUM   10
000111:
000112: 11,2000                                           BANK     11
000113: 11,2000                        ORBITAL            EQUALS
000114: 11,2000                        ORBITAL1           EQUALS                                         #  CONSTANTS
000115:


000117:
000118: 11,2000                        INTVEL             EQUALS
000119: 11,2000                        S52/2              EQUALS
000120: 11,2000                        CSIPROG5           EQUALS
000121: 11,2000                        INTINIT1           EQUALS
000122: 11,2000                                           BNKSUM   11
000123:
000124: 12,2000                                           BANK     12
000125: 12,2000                        CONICS             EQUALS
000126: 12,2000                        CSIPROG2           EQUALS
000127: 12,2000                        CSI/CDH2           EQUALS
000128: 12,2000                                           BNKSUM   12
000129:
000130: 13,2000                                           BANK     13
000131: 13,2000                        P76LOC             EQUALS
000132: 13,2000                        LATLONG            EQUALS
000133: 13,2000                        INTINIT            EQUALS
000134: 13,2000                        SR52/1             EQUALS
000135: 13,2000                        ORBITAL2           EQUALS
000136: 13,2000                        CDHTAGS            EQUALS
000137: 13,2000                        E/PROG1            EQUALS
000138: 13,2000                                           BNKSUM   13
000139:
000140:                                                                                                  #  SPACER
000141:
000142:                                                                                                  #           MODULE 3 CONTAINS BANKS 14 THROUGH 21
000143:
000144: 14,2000                                           BANK     14
000145: 14,2000                        STARTAB            EQUALS
000146: 14,2000                        RT53               EQUALS
000147: 14,2000                        P50S1              EQUALS
000148: 14,2000                        MEASINC2           EQUALS
000149: 14,2000                        CSI/CDH3           EQUALS
000150: 14,2000                                           BNKSUM   14
000151:
000152: 15,2000                                           BANK     15
000153: 15,2000                        P50S               EQUALS
000154: 15,2000                        ETRYDAP            EQUALS
000155: 15,2000                        S52/3              EQUALS
000156: 15,2000                                           BNKSUM   15
000157:
000158: 16,2000                                           BANK     16
000159: 16,2000                        P40S1              EQUALS
000160:


000162:
000163: 16,2000                        DAPROLL            EQUALS
000164: 16,2000                        P50S2              EQUALS
000165: 16,2000                        P23S1              EQUALS
000166: 16,2000                        RTE2               EQUALS


000171: 16,2000                        MODCHG1            EQUALS
000172: 16,2000                                           BNKSUM   16
000173:
000174: 17,2000                                           BANK     17
000175: 17,2000                        DAPS4              EQUALS
000176: 17,2000                        DAPS5              EQUALS
000177: 17,2000                        DAPS7              EQUALS
000178: 17,2000                        P50S3              EQUALS
000179: 17,2000                                           BNKSUM   17
000180:
000181: 20,2000                                           BANK     20
000182: 20,2000                        DAPS6              EQUALS
000183: 20,2000                        DAPS1              EQUALS
000184: 20,2000                        DAPS2              EQUALS
000185: 20,2000                        MANUSTUF           EQUALS
000186: 20,2000                        R36CM              EQUALS
000187: 20,2000                        VAC5LOC            EQUALS
000188: 20,2000                                           BNKSUM   20
000189:
000190: 21,2000                                           BANK     21
000191: 21,2000                        DAPS3              EQUALS
000192: 21,2000                        MYSUBS             EQUALS
000193: 21,2000                        KALCMON3           EQUALS
000194: 21,2000                                           BNKSUM   21
000195:
000196:                                                                                                  #  MODULE 4 CONTAINS BANKS 22 THROUGH 27
000197:
000198: 22,2000                                           BANK     22
000199: 22,2000                        RTBCODES           EQUALS
000200: 22,2000                        RTBCODE1           EQUALS
000201: 22,2000                        DAPS8              EQUALS
000202: 22,2000                        APOPERI            EQUALS
000203: 22,2000                        P40S5              EQUALS
000204: 22,2000                        KALCMON2           EQUALS
000205: 22,2000                        KALCMON1           EQUALS
000206: 22,2000                        CSIPROG3           EQUALS
000207: 22,2000                                           BNKSUM   22
000208:


000210:
000211: 23,2000                                           BANK     23
000212: 23,2000                        P20S2              EQUALS
000213: 23,2000                        INFLIGHT           EQUALS
000214: 23,2000                        COMGEOM1           EQUALS
000215: 23,2000                        POWFLITE           EQUALS
000216: 23,2000                        POWFLIT1           EQUALS
000217: 23,2000                        RENDGUID           EQUALS
000218: 23,2000                        POWFLIT2           EQUALS
000219: 23,2000                        R30LOC             EQUALS
000220: 23,2000                        P11FOUR            EQUALS
000221: 23,2000                        CSIPROG4           EQUALS
000222: 23,2000                                           BNKSUM   23
000223:
000224: 24,2000                                           BANK     24
000225: 24,2000                        LOADDAP            EQUALS
000226: 24,2000                        P40S               EQUALS
000227: 24,2000                        CSIPROG7           EQUALS
000228: 24,2000                                           BNKSUM   24
000229:
000230: 25,2000                                           BANK     25
000231: 25,2000                        REENTRY            EQUALS
000232: 25,2000                        CDHTAG1            EQUALS
000233: 25,2000                                           BNKSUM   25
000234:
000235: 26,2000                                           BANK     26
000236: 26,2000                        INTPRET1           EQUALS
000237: 26,2000                        REENTRY1           EQUALS
000238: 26,2000                        P60S               EQUALS
000239: 26,2000                        P60S1              EQUALS
000240: 26,2000                        P60S2              EQUALS
000241: 26,2000                        P60S3              EQUALS
000242: 26,2000                        PLANTIN            EQUALS                                         #  LUNAR ROT
000243: 26,2000                        EPHEM              EQUALS
000244: 26,2000                        P05P06             EQUALS
000245: 26,2000                        26P50S             EQUALS
000246: 26,2000                                           BNKSUM   26
000247:
000248: 27,2000                                           BANK     27
000249: 27,2000                        TOF-FF             EQUALS
000250: 27,2000                        TOF-FF1            EQUALS
000251: 27,2000                        MANUVER            EQUALS
000252: 27,2000                        MANUVER1           EQUALS
000253:


000255:
000256: 27,2000                        VECPT              EQUALS
000257: 27,2000                        UPDATE1            EQUALS
000258: 27,2000                        UPDATE2            EQUALS
000259: 27,2000                        R22S1              EQUALS
000260: 27,2000                        P60S5              EQUALS
000261: 27,2000                        P40S2              EQUALS
000262: 27,2000                                           BNKSUM   27
000263:
000264:                                                                                                  #  MODULE 5 CONTAINS BANKS 30 THROUGH 35
000265:
000266: 30,2000                                           BANK     30
000267: 30,2000                        IMUSUPER           EQUALS
000268: 30,2000                        LOWSUPER           EQUALS
000269: 30,2000                        FCSTART            EQUALS                                         #  STANDARD LOCATION FOR THIS. (FOR EXTVB)
000270: 30,2000                        LOPC               EQUALS
000271: 30,2000                        P20S1              EQUALS
000272: 30,2000                        P20S6              EQUALS
000273: 30,2000                        P40S3              EQUALS
000274: 30,2000                        R35A               EQUALS
000275: 30,2000                                           BNKSUM   30
000276:
000277: 31,2000                                           BANK     31
000278: 31,2000                        R35                EQUALS
000279: 31,2000                        RT23               EQUALS
000280: 31,2000                        P30S1A             EQUALS
000281: 31,2000                        R34                EQUALS
000282: 31,2000                        CDHTAG2            EQUALS
000283: 31,2000                        CSIPROG9           EQUALS
000284: 31,2000                        R31                EQUALS
000285: 31,2000                        P22S               EQUALS
000286: 31,2000                        RTE3               EQUALS
000287: 31,2000                                           BNKSUM   31
000288:
000289: 32,2000                                           BANK     32
000290: 32,2000                        MSGSCAN1           EQUALS
000291: 32,2000                        RTE                EQUALS
000292: 32,2000                        DELRSPL1           EQUALS
000293: 32,2000                        IMUCAL3            EQUALS
000294: 32,2000                                           BNKSUM   32
000295:
000296: 33,2000                                           BANK     33
000297: 33,2000                        TESTLEAD           EQUALS
000298:


000300:
000301: 33,2000                        IMUCAL             EQUALS
000302: 33,2000                                           BNKSUM   33
000303:
000304: 34,2000                                           BANK     34
000305: 34,2000                        P11ONE             EQUALS
000306: 34,2000                        P20S3              EQUALS
000307: 34,2000                        P20S4              EQUALS
000308: 34,2000                        RTECON             EQUALS
000309: 34,2000                                           BNKSUM   34
000310:
000311: 35,2000                                           BANK     35
000312: 35,2000                        RTECON1            EQUALS
000313: 35,2000                        CSI/CDH            EQUALS
000314: 35,2000                        P30S1              EQUALS
000315: 35,2000                        P30S               EQUALS
000316: 35,2000                        P17S1              EQUALS
000317: 35,2000                        MEASINC3           EQUALS
000318: 35,2000                        INTINIT2           EQUALS
000319: 35,2000                                           BNKSUM   35
000320:
000321:                                                                                                  #  MODULE 6 CONTAINS BANKS 36 THROUGH 43
000322:
000323: 36,2000                                           BANK     36
000324: 36,2000                        MEASINC            EQUALS
000325: 36,2000                        MEASINC1           EQUALS
000326: 36,2000                        P17S               EQUALS
000327: 36,2000                        RTE1               EQUALS
000328: 36,2000                                           BNKSUM   36
000329:
000330: 37,2000                                           BANK     37
000331: 37,2000                        P20S               EQUALS
000332: 37,2000                        BODYATT            EQUALS
000333: 37,2000                        RENDEZ             EQUALS
000334: 37,2000                        SERVICES           EQUALS
000335: 37,2000                        P11TWO             EQUALS
000336: 37,2000                        CDHTAG3            EQUALS
000337: 37,2000                                           BNKSUM   37
000338:
000339: 40,2000                                           BANK     40
000340: 40,2000                        PINSUPER           EQUALS
000341:


000343:
000344: 40,2000                        SELFSUPR           EQUALS
000345: 40,2000                        PINBALL1           EQUALS
000346: 40,2000                        R36CM1             EQUALS
000347: 40,2000                                           BNKSUM   40
000348:
000349: 41,2000                                           BANK     41
000350: 41,2000                        PINBALL2           EQUALS
000351: 41,2000                        R36LM              EQUALS
000352: 41,2000                                           BNKSUM   41
000353:
000354: 42,2000                                           BANK     42
000355: 42,2000                        SBAND              EQUALS
000356: 42,2000                        PINBALL3           EQUALS
000357: 42,2000                        EXTVBS             EQUALS
000358: 42,2000                        R36LM1             EQUALS
000359: 42,2000                                           BNKSUM   42
000360:
000361: 43,2000                                           BANK     43
000362: 43,2000                        SELFCHEC           EQUALS
000363: 43,2000                        EXTVERBS           EQUALS
000364: 43,2000                                           BNKSUM   43
000365:
000366: 43,2000  26,3334               HI6ZEROS           EQUALS   ZEROVECS                              #  ZERO VECTOR ALWAYS IN HIGH MEMORY
000367: 43,2000  04,3562               LO6ZEROS           EQUALS   ZEROVEC                               #  ZERO VECTOR ALWAYS IN LOW MEMORY
000368: 43,2000  26,3332               HIDPHALF           EQUALS   UNITX
000369: 43,2000  04,3560               LODPHALF           EQUALS   XUNIT
000370: 43,2000  26,3324               HIDP1/4            EQUALS   DP1/4TH
000371: 43,2000  04,3606               LODP1/4            EQUALS   D1/4                                  #  2DEC .25
000372: 43,2000  26,3332               HIUNITX            EQUALS   UNITX
000373: 43,2000  26,3330               HIUNITY            EQUALS   UNITY
000374: 43,2000  26,3326               HIUNITZ            EQUALS   UNITZ
000375: 43,2000  04,3560               LOUNITX            EQUALS   XUNIT                                 #  2DEC .5
000376: 43,2000  04,3556               LOUNITY            EQUALS   YUNIT                                 #  2DEC 0
000377: 43,2000  04,3554               LOUNITZ            EQUALS   ZUNIT                                 #  2DEC 0
000378: 43,2000  11,3763               3/4LOWDP           EQUALS   3/4                                   #  2DEC 3.0 B-2
000379:
000380: 43,2000  30,2000                                  SBANK=   LOWSUPER
000381:
000382:                                                                                                  #  ROPE SPECIFIC ASSIGNS OBVIATING NEED TO CHECK COMPUTER FLAG IN DETVRUZVING INTEGRATION AREA ENTRIES
000383:
000384: 43,2000  13,3105               OTHPREC            EQUALS   LEMPREC
000385: 43,2000  13,2760               ATOPOTH            EQUALS   ATOPLEM
000386: 43,2000  13,2705               ATOPTHIS           EQUALS   ATOPCSM
000387: 43,2000  0000173               MOONTHIS           EQUALS   CMOONFLG
000388:


000390:
000391: 43,2000  0000174               MOONOTH            EQUALS   LMOONFLG
000392: 43,2000  13,2720               MOVATHIS           EQUALS   MOVEACSM
000393: 43,2000  31,2032               STATEST            EQUALS   V83CALL                               #  * TEMPORARY
000394: 43,2000  13,3071               THISPREC           EQUALS   CSMPREC
000395: 43,2000  26,3332               THISAXIS           =        UNITX
000396: 43,2000     5054               ERASID             EQUALS   LOW10                                 #  DOWNLINK ERASABLE DUMP ID
000397: 43,2000     6214               DELAYNUM           EQUALS   THREE
000398:
000399:                                                                                                  # ****************************************************************************************************************
000400:
000401:                                                                                                  #  THE FOLLOWING ECADRS ARE DEFINED TO FACILITATE EBANK SWITCHING.  THEY ALSO MAKE IT EASIER FOR
000402:                                                                                                  #  ERASABLE CONTROL TO REARRANGE ERASABLE MEMORY WITHOUT DISRUPTING THE PROGRAMS WHICH SET EBANKS.
000403:                                                                                                  #  PRIOR TO ROPE RELEASE FIXED MEMORY CAN BE SAVED BY SETTING EACH EBXXXX =EBANKX (X=4,5,6,7).  EBANKX OF COURSE
000404:                                                                                                  #  WILL BE THE BANK WHERE THE ERASABLES REFERENCED IN EBXXXX WILL BE STORED.
000405:
000406: 07,2000                                           BANK     7
000407: 07,2000  E7,1674                                  EBANK=   MARKDOWN
000408: 07,2000           03674        EBMARKDO           ECADR    MARKDOWN
000409: 07,2001  E7,1725                                  EBANK=   MRKBUF1
000410: 07,2001           03725        EBMRKBUF           ECADR    MRKBUF1
000411:
000412: 24,2000                                           BANK     24
000413: 24,2000  E7,1431                                  EBANK=   DVCNTR
000414: 24,2000           03431        EBDVCNTR           ECADR    DVCNTR
000415: 24,2001  E7,1672                                  EBANK=   P40TMP
000416: 24,2001           03672        EBP40TMP           ECADR    P40TMP
000417:
000418: 34,2000                                           BANK     34
000419: 34,2000  E7,1431                                  EBANK=   DVCNTR
000420: 34,2000           03431        EBDVCNT            ECADR    DVCNTR
000421: 34,2001  E5,1426                                  EBANK=   QPLACES
000422: 34,2001           02426        EBQPLACE           ECADR    QPLACES
000423:
000424: 37,2000                                           BANK     37
000425: 37,2000     1231                                  EBANK=   RN1
000426: 37,2000           01231        EBRN1              ECADR    RN1
000427:
000428:                                                                                                  # ****************************************************************************************************************
000429:


End of include-file TAGS_FOR_RELATIVE_SETLOC_AND_BLANK_BANK_CARDS.agc.  Parent file is MAIN.agc


