
Source Code


000002:                                                                                                  ## Copyright:   Public domain.
000003:                                                                                                  ## Filename:    TVCEXECUTIVE.agc
000004:                                                                                                  ## Purpose:     A section of Comanche revision 045.
000005:                                                                                                  ##              It is part of the reconstructed source code for the
000006:                                                                                                  ##              second release of the flight software for the Command
000007:                                                                                                  ##              Module's (CM) Apollo Guidance Computer (AGC) for Apollo 10.
000008:                                                                                                  ##              The code has been recreated from a copy of Comanche 055. It
000009:                                                                                                  ##              has been adapted such that the resulting bugger words
000010:                                                                                                  ##              exactly match those specified for Comanche 45 in NASA drawing
000011:                                                                                                  ##              2021153D, which gives relatively high confidence that the
000012:                                                                                                  ##              reconstruction is correct.
000013:                                                                                                  ## Assembler:   yaYUL
000014:                                                                                                  ## Contact:     Ron Burkey <info@sandroid.org>.
000015:                                                                                                  ## Website:     www.ibiblio.org/apollo/index.html
000016:                                                                                                  ## Mod history: 2020-12-06 MAS  Created from Comanche 44.
000017:


000019:                                                                                                  #  PROGRAM NAME....      TVCEXECUTIVE, CONSISTING OF TVCEXEC, NEEDLEUP, VARGAINS
000020:                                                                                                  #                        1SHOTCHK, REPCHEK, CG.CORR, COPYCYCLES, ETC.
000021:                                                                                                  #  LOG SECTION...        TVCEXECUTIVE            SUBROUTINE...DAPCSM
000022:                                                                                                  #  MODIFIED BY SCHLUNDT                          21 OCTOBER 1968
000023:
000024:                                                                                                  #  FUNCTIONAL DESCRIPTION....
000025:                                                                                                  #       *A SELF-PERPETUATING WAITLIST TASK AT 1/2 SECOND INTERVALS WHICH:
000026:                                                                                                  #        PREPARES THE ROLL DAP WITH OGA (CDUX)
000027:                                                                                                  #        PREPARES THE ROLL FDAI NEEDLE (FLY-TO  OGA ERROR)
000028:                                                                                                  #        PREPARES THE ROLL PHASE PLANE  OGAERR  (FLY-FROM  OGA ERROR)
000029:                                                                                                  #        PREPARES THE TVC ROLLDAP TASK WAITLIST CALL (3 CS DELAY)
000030:                                                                                                  #        UPDATES THE NEEDLES DISPLAY
000031:                                                                                                  #        UPDATES VEHICLE MASS AND CALLS MASSPROP TO UPDATE INERTIA DATA
000032:                                                                                                  #        UPDATES PITCH, YAW, AND ROLL DAP GAINS FROM MASSPROP DATA
000033:                                                                                                  #        PERFORMS ONE-SHOT CORRECTION FOR TMC LOOP 0-3 SEC AFTER IGNITION
000034:                                                                                                  #        PERFORMS REPETITIVE UPDATES FOR TMC LOOP AFTER THE ONE-SHOT CORR.
000035:
000036:                                                                                                  #  CALLING SEQUENCE....
000037:                                                                                                  #       *TVCEXEC CALLED AS A WAITLIST TASK, IN PARTICULAR BY TVCINIT4 AND BY
000038:                                                                                                  #        ITSELF, BOTH AT 1/2 SECOND INTERVALS
000039:
000040:                                                                                                  #  NORMAL EXIT MODE.... TASKOVER
000041:
000042:                                                                                                  #  ALARM OR ABORT EXIT MODES.... NONE
000043:
000044:                                                                                                  #  SUBROUTINES CALLED....NEEDLER, S40.15, MASSPROP, TASKOVER, IBNKCALL
000045:
000046:                                                                                                  #  OTHER INTERFACES....
000047:                                                                                                  #       *TVCRESTART PACKAGE FOR RESTARTS
000048:                                                                                                  #       *PITCHDAP, YAWDAP FOR VARIABLE GAINS AND ENGINE TRIM ANGLES
000049:
000050:                                                                                                  #  ERASABLE INITIALIZATION REQUIRED....
000051:                                                                                                  #       *SEE TVCDAPON....TVCINIT4
000052:                                                                                                  #       *VARK AND 1/CONACC (S40.15 OF TVCINITIALIZE)
000053:                                                                                                  #       *PAD LOAD EREPFRAC
000054:                                                                                                  #       *BITS 15,14 OF FLAGWRD6 (T5 BITS)
000055:                                                                                                  #       *TVCEXPHS FOR RESTARTS
000056:                                                                                                  #       *ENGINE-ON BIT (11.13) FOR RESTARTS
000057:                                                                                                  #       *CDUX, OGAD
000058:
000059:                                                                                                  #  OUTPUT....
000060:                                                                                                  #       *ROLL DAP OGANOW, FDAI NEEDLE (AK). AND PHASE PLANE OGAERR
000061:                                                                                                  #       *VARIABLE GAINS FOR PITCH/YAW AND ROLL TVC DAPS
000062:                                                                                                  #       *SINGLE-SHOT AND REPETITIVE CORRECTIONS TO ENGINE TRIM ANGLES
000063:                                                                                                  #        PACTOFF AND YACTOFF
000064:
000065:                                                                                                  #  DEBRIS....    MUCH, BUT SHAREABLE WITH RCS/ENTRY, ALL IN EBANK6
000066:


000068: 16,2715                                           BANK     16
000069: 16,2000                                           SETLOC   DAPROLL
000070: 16,2000                                           BANK
000071: 16,2715  E6,1702                                  EBANK=   BZERO
000072: 16,2715                                           COUNT*   $$/TVCX
000073:
000074: 16,2715           40102        TVCEXEC            CS       FLAGWRD6                              #  CHECK FOR TERMINATION (BITS 15,14 READ
000075: 16,2716           74105                           MASK     OCT60000                              #        10 FROM TVCDAPON TO RCSDAPON)
000076: 16,2717           00006                           EXTEND
000077: 16,2720           63131                           BZMF     TVCEXFIN                              #  TERMINATE
000078:
000079: 16,2721           35036                           CAF      .5SEC                                 #  W.L. CALL TO PERPETUATE TVCEXEC
000080: 16,2722           05245                           TC       WAITLIST
000081: 16,2723  E6,1702                                  EBANK=   BZERO
000082: 16,2723           02715 34066                     2CADR    TVCEXEC
000083:
000084: 16,2725           30032        ROLLPREP           CAE      CDUX                                  #  UPDATE ROLL LADDERS (NO NEED TO RESTART-
000085: 16,2726           57662                           XCH      OGANOW                                #        PROTECT, SINCE ROLL DAPS RE-START)
000086: 16,2727           57663                           XCH      OGAPAST
000087:
000088: 16,2730           31450                           CAE      OGAD                                  #  PREPARE ROLL FDAI NEEDLE WITH FLY-TO
000089: 16,2731           00006                           EXTEND                                         #        ERROR (COMMAND - MEASURED)
000090: 16,2732           21662                           MSU      OGANOW
000091: 16,2733           55476                           TS       AK                                    #  FLY-TO OGA ERROR, SC.AT B-1 REVS
000092:
000093: 16,2734           00006                           EXTEND                                         #  PREPARE ROLL DAP PHASE PLANE OGAERR
000094: 16,2735           77705                           MP       -BIT14
000095: 16,2736           55664                           TS       OGAERR                                #  PHASE-PLANE (FLY-FROM) OGAERROR,
000096:                                                                                                  #        SC.AT B+0 REVS
000097:
000098: 16,2737           36214                           CAF      THREE                                 #  SET UP ROLL DAP TASK (ALLOW SOME TIME)
000099: 16,2740           05245                           TC       WAITLIST
000100: 16,2741  E6,1702                                  EBANK=   BZERO
000101: 16,2741           03267 34066                     2CADR    ROLLDAP
000102:
000103: 16,2743           04740        NEEDLEUP           TC       IBNKCALL                              #  DO A NEEDLES UPDATE (RETURNS AFTER CADR)
000104: 16,2744           42420                           CADR     NEEDLER                               #        (NEEDLES RESTARTS ITSELF)
000105:
000106: 16,2745           35003        VARGAINS           CAF      BIT13                                 #  CHECK ENGINE-ON BIT TO INHIBIT VARIABLE
000107: 16,2746           00006                           EXTEND                                         #        GAINS AND MASS IF ENGINE OFF
000108: 16,2747           02011                           RAND     DSALMOUT                              #  CHANNEL 11
000109: 16,2750           10000                           CCS      A
000110: 16,2751           12755                           TCF      +4                                    #        ON, SO OK TO UPDATE GAINS AND MASS
000111: 16,2752           35016                 +5        CAF      TWO                                   #        OFF, SO BYPASS MASS/GAIN UPDATES,
000112: 16,2753           55651                           TS       TVCEXPHS                              #                ALSO ENTRY FROM CCS BELOW WITH
000113: 16,2754           13006                           TCF      1SHOTCHK                              #                VCNTR = -0 (V97 R40 ENGFAIL)
000114: 16,2755           11643                           CCS      VCNTR                                 #        TEST FOR GAIN UPDATE TIME
000115: 16,2756           12762                           TCF      +4                                    #                NOT YET


000117: 16,2757           12766                           TCF      GAINCHNG                              #                NOW
000118: 16,2760           12760                           TCF      +0                                    #                NOT USED
000119: 16,2761           12752                           TCF      VARGAINS   +5                         #                NO, LOTHRUST (S40.8 R40)
000120:
000121: 16,2762           55653                 +4        TS       VCNTRTMP                              #        PROTECT VCNTR AND
000122: 16,2763           31474                           CAE      CSMMASS                               #        CSMMASS DURING AN IMPULSIVE BURN
000123: 16,2764           55652                           TS       MASSTMP
000124: 16,2765           12777                           TCF      EXECCOPY
000125:
000126: 16,2766           04740        GAINCHNG           TC       IBNKCALL                              #  UPDATE IXX, IAVG, IAVG/TLX
000127: 16,2767           13422                           CADR     FIXCW                                 #  MASSPROP ENTRY (ALREADY INITIALIZED)
000128: 16,2770           04740                           TC       IBNKCALL                              #  UPDATE 1/CONACC, VARK
000129: 16,2771           36462                           CADR     S40.15                                #        (S40.15 IS IN TVCINITIALIZE)
000130: 16,2772           41637                           CS       TENMDOT                               #  UPDATE MASS FOR NEXT 10 SEC. OF BURN
000131: 16,2773           61474                           AD       CSMMASS
000132: 16,2774           55652                           TS       MASSTMP                               #  KG B+16
000133:
000134: 16,2775           34374                           CAF      NINETEEN                              #  RESET THE VARIABLE-GAIN UPDATE COUNTER
000135: 16,2776           55653                           TS       VCNTRTMP
000136:
000137: 16,2777           25651        EXECCOPY           INCR     TVCEXPHS                              #  RESTART-PROTECT THE COPYCYCLE         (1)
000138:
000139: 16,3000           31652                           CAE      MASSTMP                               #  CSMMASS KG B+16
000140: 16,3001           55474                           TS       CSMMASS
000141:
000142: 16,3002           31653                           CAE      VCNTRTMP                              #  VCNTR
000143: 16,3003           55643                           TS       VCNTR
000144: 16,3004           55444                           TS       V97VCNTR                              #  FOR ENGFAIL (R41) MASS UPDATES AT SPSOFF
000145:
000146: 16,3005           25651                           INCR     TVCEXPHS                              #  COPYCYCLE OVER                        (2)
000147:
000148: 16,3006           11447        1SHOTCHK           CCS      CNTR                                  #  CHECK TIME FOR ONE-SHOT OR REPCORR
000149: 16,3007           13013                           TCF      +4                                    #        NOT YET
000150: 16,3010           13026                           TCF      1SHOTOK                               #        NOW
000151: 16,3011           13017                           TCF      REPCHEK                               #        ONE-SHOT OVER, ON TO REPCORR
000152: 16,3012           13026                           TCF      1SHOTOK                               #        NOW (ONE-SHOT ONLY, NO REPCORR)
000153:
000154: 16,3013           55676                 +4        TS       CNTRTMP                               #  COUNT DOWN
000155: 16,3014           36211                           CAF      SIX                                   #  SETUP TVCEXPHS FOR ENTRY AT CNTRCOPY
000156: 16,3015           55651                           TS       TVCEXPHS
000157: 16,3016           13127                           TCF      CNTRCOPY
000158:
000159: 16,3017           31642        REPCHEK            CAE      REPFRAC                               #  CHECK FOR REPETITIVE UPDATES
000160: 16,3020           00006                           EXTEND
000161: 16,3021           63131                           BZMF     TVCEXFIN                              #        NO,  OVER-AND-OUT
000162: 16,3022           55446                           TS       TEMPDAP    +1                         #        YES, SET UP CORRECTION FRACTION
000163: 16,3023           35015                           CAF      FOUR                                  #  SET UP TVCEXPHS FOR ENTRY AT CORSETUP
000164: 16,3024           55651                           TS       TVCEXPHS
000165: 16,3025           13040                           TCF      CORSETUP


000167: 16,3026           35003        1SHOTOK            CAF      BIT13                                 #  CHECK ENGINE-ON BIT, NOT PERMITTING
000168: 16,3027           00006                           EXTEND                                         #        ONE-SHOT DURING ENGINE-SHUTDOWN
000169: 16,3030           02011                           RAND     DSALMOUT
000170: 16,3031           10000                           CCS      A
000171: 16,3032           13034                           TCF      +2                                    #        ONE-SHOT OK
000172: 16,3033           13131                           TCF      TVCEXFIN                              #        NO, TERMINATE
000173:
000174: 16,3034           25651                           INCR     TVCEXPHS                              #                                        (3)
000175:
000176: 16,3035           33134        TEMPSET            CAF      FCORFRAC                              #        SET UP CORRECTION FRACTION
000177: 16,3036           55446                           TS       TEMPDAP    +1
000178:
000179: 16,3037           25651                           INCR     TVCEXPHS                              #  ENTRY FROM REPCHEK AT NEXT LOCATION   (4)
000180:
000181: 16,3040           31466        CORSETUP           CAE      DAPDATR1                              #  CHECK FOR LEM-OFF/ON
000182: 16,3041           75003                           MASK     BIT13                                 #  (NOTE, SHOWS LEM-OFF)
000183: 16,3042           00006                           EXTEND
000184: 16,3043           13045                           BZF      +2                                    #  LEM IS ON,  PICK UP   TEMPDAP+1
000185: 16,3044           31446                           CAE      TEMPDAP    +1                         #  LEM IS OFF, PICK UP 2(TEMPDAP+1)
000186: 16,3045           61446                           AD       TEMPDAP    +1
000187: 16,3046           55445                           TS       TEMPDAP                               #  CG.CORR USES TEMPDAP
000188:
000189: 16,3047           37716                           CAF      NEGONE                                #  SET UP FOR CNTR = -1 (ONE-SHOT DONE)
000190: 16,3050           55676                           TS       CNTRTMP                               #        (COPYCYCLE AT .CNTRCOPY.)
000191:
000192: 16,3051           00006        CG.CORR            EXTEND                                         #  PITCH TMC LOOP
000193: 16,3052           31606                           DCA      PDELOFF
000194: 16,3053           53673                           DXCH     PACTTMP
000195: 16,3054           00006                           EXTEND
000196: 16,3055           41606                           DCS      PDELOFF
000197: 16,3056           20001                           DDOUBL
000198: 16,3057           20001                           DDOUBL
000199: 16,3060           53612                           DXCH     TTMP1
000200: 16,3061           00006                           EXTEND
000201: 16,3062           31602                           DCA      DELPBAR
000202: 16,3063           20001                           DDOUBL
000203: 16,3064           20001                           DDOUBL
000204: 16,3065           21612                           DAS      TTMP1
000205: 16,3066           00006                           EXTEND
000206: 16,3067           31612                           DCA      TTMP1
000207: 16,3070           00006                           EXTEND
000208: 16,3071           71445                           MP       TEMPDAP
000209: 16,3072           21673                           DAS      PACTTMP
000210:
000211: 16,3073           00006                           EXTEND                                         #  YAW TMC LOOP
000212: 16,3074           31610                           DCA      YDELOFF
000213: 16,3075           53675                           DXCH     YACTTMP
000214: 16,3076           00006                           EXTEND
000215: 16,3077           41610                           DCS      YDELOFF
000216: 16,3100           20001                           DDOUBL


000218: 16,3101           20001                           DDOUBL
000219: 16,3102           53612                           DXCH     TTMP1
000220: 16,3103           00006                           EXTEND
000221: 16,3104           31604                           DCA      DELYBAR
000222: 16,3105           20001                           DDOUBL
000223: 16,3106           20001                           DDOUBL
000224: 16,3107           21612                           DAS      TTMP1
000225: 16,3110           00006                           EXTEND
000226: 16,3111           31612                           DCA      TTMP1
000227: 16,3112           00006                           EXTEND
000228: 16,3113           71445                           MP       TEMPDAP
000229: 16,3114           21675                           DAS      YACTTMP
000230:
000231: 16,3115           25651        CORCOPY            INCR     TVCEXPHS                              #  RESTART PROTECT THE COPYCYCLE         (5)
000232:
000233: 16,3116           00006                           EXTEND                                         #  TRIM-ESTIMATES, AND
000234: 16,3117           31673                           DCA      PACTTMP
000235: 16,3120           55423                           TS       PACTOFF                               #        TRIMS
000236: 16,3121           53606                           DXCH     PDELOFF
000237:
000238: 16,3122           00006                           EXTEND
000239: 16,3123           31675                           DCA      YACTTMP
000240: 16,3124           55424                           TS       YACTOFF
000241: 16,3125           53610                           DXCH     YDELOFF
000242:
000243: 16,3126           25651                           INCR     TVCEXPHS                              #  ENTRY FROM 1SHOTCHK AT NEXT LOCATION  (6)
000244:
000245: 16,3127           31676        CNTRCOPY           CAE      CNTRTMP                               #  UPDATE CNTR (RESTARTS OK, FOLLOWS CPYCY)
000246: 16,3130           55447                           TS       CNTR
000247:
000248: 16,3131           35021        TVCEXFIN           CAF      ZERO                                  #  RESET TVCEXPHS
000249: 16,3132           55651                           TS       TVCEXPHS
000250: 16,3133           15324                           TCF      TASKOVER                              #  TVCEXECUTIVE FINISHED
000251:
000252: 16,3134           10000        FCORFRAC           OCT      10000                                 #  ONE-SHOT CORRECTION FRACTION
000253:


000256:
000257:

End of include-file TVCEXECUTIVE.agc.  Parent file is MAIN.agc


