
Source Code


000002:                                                                                                  ## Copyright:   Public domain.
000003:                                                                                                  ## Filename:    TVCRESTARTS.agc
000004:                                                                                                  ## Purpose:     A section of Comanche revision 045.
000005:                                                                                                  ##              It is part of the reconstructed source code for the
000006:                                                                                                  ##              second release of the flight software for the Command
000007:                                                                                                  ##              Module's (CM) Apollo Guidance Computer (AGC) for Apollo 10.
000008:                                                                                                  ##              The code has been recreated from a copy of Comanche 055. It
000009:                                                                                                  ##              has been adapted such that the resulting bugger words
000010:                                                                                                  ##              exactly match those specified for Comanche 45 in NASA drawing
000011:                                                                                                  ##              2021153D, which gives relatively high confidence that the
000012:                                                                                                  ##              reconstruction is correct.
000013:                                                                                                  ## Assembler:   yaYUL
000014:                                                                                                  ## Contact:     Ron Burkey <info@sandroid.org>.
000015:                                                                                                  ## Website:     www.ibiblio.org/apollo/index.html
000016:                                                                                                  ## Mod history: 2020-12-06 MAS  Created from Comanche 44.
000017:


000019:                                                                                                  #  NAME....TVCRESTART PACKAGE, CONSISTING OF REDOTVC, ENABL1, 2, CMDSOUT, PHSCHK2, ETC.
000020:                                                                                                  #  LOG SECTION...TVCRESTARTS                     SUBROUTINE...DAPCSM
000021:                                                                                                  #  MODIFIED BY SCHLUNDT                          21 OCTOBER 1968
000022:
000023:                                                                                                  #  FUNCTIONAL DESCRIPTION....
000024:
000025:                                                                                                  #       *RESTART-PROOFS THE TVC DAPS, INCLUDING PITCHDAP, YAWDAP,
000026:                                                                                                  #        TVCEXECUTIVE, ROLLDAP, TVCINIT4, TVCDAPON, AND CSM/.M V46 SWTCHOVR.
000027:
000028:                                                                                                  #       *TVC RESTARTS DESERVE SPECIAL CONSIDERATION IN SEVERAL AREAS.
000029:                                                                                                  #        RESTART DOWN-TIME IS IMPORTANT BECAUSE OF THE TRANSIENTS INTRODUCED
000030:                                                                                                  #        BY THE THRUST VECTOR RETURN TO THE ACTUATOR MECHANICAL NULLS
000031:                                                                                                  #        FOLLOWING TVC- AND OPTICS-ERROR-COUNTER-DISENABLES (CHANNEL 12).
000032:                                                                                                  #        TVC USES A MIXTURE OF WAITLIST, T5, T6, AND JOB CALLS.  THERE IS
000033:                                                                                                  #        FILTER MEMORY (UP TO 6TH ORDER) TO BE PROTECTED IF WILD TRANSIENTS
000034:                                                                                                  #        ARE TO BE AVOIDED.  COUNTERS ARE INVOLVED FOR ONE-SHOT
000035:                                                                                                  #        CORRECTIONS AND GAIN UPDATES.  THE GIMBAL TRIM ESTIMATORS AND THE
000036:                                                                                                  #        BODY AXIS ATTITUDE ERROR INTEGRATORS INVOLVE DIGITAL SUMMATION.
000037:                                                                                                  #        DIGITAL DIFFERENTIATORS ARE INVOLVED IN THE BODY AXIS RATE ESTIMA-
000038:                                                                                                  #        TIONS AND IN THE OUTPUTTING OF ACTUATOR COMMANDS.  THERE IS AN
000039:                                                                                                  #        OFFSET-TRACKER-FILTER TO PROTECT.  ETC., ETC.
000040:
000041:                                                                                                  #       *THOSE QUANTITIES WHICH MUST BE PROTECTED ARE STORED IN TEMPORARY
000042:                                                                                                  #        REGISTERS AS THEY ARE COMPUTED, FOR UPDATING THE REAL REGISTERS
000043:                                                                                                  #        DURING COPYCYCLES.
000044:
000045:                                                                                                  #       *THE SEVERAL COPYCYCLES ARE EACH PROTECTED BY PHASE POINTS AT THEIR
000046:                                                                                                  #        BEGINNING AND AT THEIR TERMINATION.  THE PHASE POINTS ARE SIMPLY
000047:                                                                                                  #        ..INCR.. INSTRUCTIONS, EITHER ..INCR TVCEXPHS.. FOR COPYCYCLES
000048:                                                                                                  #        IN THE TVCEXECUTIVE, OR ..INCR TVCPHASE.. FOR THE PITCH AND YAW
000049:                                                                                                  #        COPYCYCLES.  INDEXING ON EACH OF THESE POINTERS THEN PERMITS A
000050:                                                                                                  #        RETURN TO THE APPROPRIATE RESTART POINTS.
000051:
000052:                                                                                                  #       *IF A RESTART OCCURS DURING EITHER COPYCYCLE, THAT COPYCYCLE IS
000053:                                                                                                  #        COMPLETED.  THEN THE NORMAL TVCINIT4....DAPINIT....PITCHDAP STARTUP
000054:                                                                                                  #        SEQUENCE IS CALLED UPON TO GET THINGS GOING AGAIN.
000055:
000056:                                                                                                  #       *TVC-ENABLE AND OPTICS-ERROR-COUNTER ENABLE MUST BE SET ASAP
000057:                                                                                                  #        (ALLOWING FOR PROCEDURAL DELAYS).  THEN THE ENGINES ARE COMMANDED
000058:                                                                                                  #        TO THE P,YACTOFF TRIM VALUES.  THE DAPS ARE THEN READY TO GO ON THE
000059:                                                                                                  #        AIR, WITH THE REGULAR STARTUP SEQUENCE, EITHER AT MRCLEAN FOR A
000060:                                                                                                  #        COMPLETE INITIALIZATION OR AT TVCINIT4 FOR A PARTIAL INITIALIZATION
000061:
000062:                                                                                                  #       *FOR RESTARTS PRIOR TO THE SETTING OF THE T5 BITS AT DOTVCON THE
000063:                                                                                                  #        PRE40.6 SECTION OF S40.6 TAKES CARE OF RE-ESTABLISHING TRIMS.
000064:
000065:                                                                                                  #       *IF A RESTART OCCURS DURING THE TVCEXEC....TVCEXFIN SEQUENCE THE
000066:                                                                                                  #        COMPUTATIONS WILL BE COMPLETED, STARTING AT THE APPROPRIATE RESTART
000067:                                                                                                  #        POINT, AFTER THE DAPS ARE READY TO GO ON THE AIR.
000068:
000069:                                                                                                  #       *IF A RESTART OCCURS PRIOR TO TVCINIT4 (TVCPHASE = -1) E.G. DURING
000070:                                                                                                  #        THE EARLY DAP INITIALIZATION PHASE, THE DAP STARTUP SEQUENCE IS
000071:                                                                                                  #        ENTERED AT MRCLEAN FOR A FULL INITIALIZATION.
000072:
000073:                                                                                                  #       *FOR RESTARTS DURING CSM/LM V46 SWITCH-OVER, TVCPHASE IS SET TO -2.
000074:                                                                                                  #        AND THE RESTART LOGIC GOES BACK TO REDO SWITCH-OVER (AFTER THE
000075:                                                                                                  #        NORMAL DAP RESTART SEQUENCE IS FOLLOWED).
000076:
000077:                                                                                                  #       *RESTARTS ARE NOT CRITICAL TO THE ROLL DAP PERFORMANCES HENCE THE
000078:                                                                                                  #        THE ROLL DAP IS MERELY RESTARTED.
000079:
000080:                                                                                                  #       *RESTARTS DURING A STROKE TEST (STROKER IS NON-ZERO) WILL CAUSE THE


000082:                                                                                                  #        STROKE TEST TO BE TERMINATED.  A NEW V68 ENTRY WILL BE REQUIRED
000083:                                                                                                  #        TO GET IT GOING AGAIN (NO AUTOMATIC RESTART).
000084:                                                                                                  #
000085:                                                                                                  #       *REDOTVC IS REACHED FOLLOWING ANY RESTART WHICH FINDS THE T5 BITS
000086:                                                                                                  #        (BITS 15,14 OF FLAGWRD6) SET FOR TVC.  DOTVCON SETS TVCPHASE = -1
000087:                                                                                                  #        AND TVC EXPHS = 0 JUST BEFORE SETTING THESE BITS, JUST BEFORE
000088:                                                                                                  #        MAKING THE T5 CALL TO TVCDAPON.  ON A NORMAL SHUTDOWN DOTVCRCS
000089:                                                                                                  #        CALLS RCSDAPON, WHICH RESETS THE T5 BITS FOR RCS.
000090:
000091:                                                                                                  #  CALLING SEQUENCE....T5, IN PARTICULAR BY ELRSKIP OF FRESH START/RESTART
000092:
000093:                                                                                                  #  NORMAL EXIT MODES....RESUME, NOQRSM, POSTJUMP (TO TVCINIT4 OR MRCLEAN)
000094:
000095:                                                                                                  #  ALARM OR ABORT EXIT MODES....NONE
000096:
000097:                                                                                                  #  SUBROUTINES CALLED....
000098:
000099:                                                                                                  #       *PCOPY+1, YCOPY+1 (PITCH AND YAW COPYCYCLES)
000100:                                                                                                  #       *ENABLE1,2, CMDSOUT (RE-ESTABLISH ACTUATOR TRIMS)
000101:                                                                                                  #       *MRCLEAN OR TVCINIT4 (TVCDAP INITIALIZATIONS)
000102:                                                                                                  #       *SWICHOVR +5 (CSM/LM V46 SWITCH-OVER)
000103:                                                                                                  #       *EXRSTRT AND TVCEXECUTIVE PHASE POINTS 1 THRU 6
000104:                                                                                                  #       *WAITLIST, IBNKCALL, POSTJUMP, ISWCALL
000105:
000106:                                                                                                  #  OTHER INTERFACES....DOTVCON AND RCSDAPON (T5 BITS), ELRSKIP (CALLS IT)
000107:
000108:                                                                                                  #  ERASABLE INITIALIZATION REQUIRED....
000109:
000110:                                                                                                  #       *T5 BITS (1,0), TVCPHASE (-2,-1,0,1,2,3), TVCEXPHS (1 THRU 6)
000111:                                                                                                  #       *TVC DAP VARIABLES
000112:                                                                                                  #       *OPERATIONS PERFORMED BY REDOTVC ARE BASED ON THE ASSUMPTION THAT
000113:                                                                                                  #        THE TVC DAPS ARE RUNNING NORMALLY
000114:
000115:                                                                                                  #  OUTPUT....
000116:
000117:                                                                                                  #       *PITCH AND YAW TVC DAP COPYCYCLES COMPLETED IF INTERUPTED
000118:                                                                                                  #       *TVCEXECUTIVE COMPLETED IF INTERUPTED
000119:                                                                                                  #       *STROKE TEST TERMINATED IF INTERRUPTED
000120:                                                                                                  #       *CSM/LM V46 SWITCH-OVER REPEATED IF INTERRUPTED
000121:                                                                                                  #       *ACTUATOR TRIMS RE-ESTABLISHED (ACTUATORS BACK ON THE AIR)
000122:                                                                                                  #       *TVC DAP INITIALIZATION AS REQUIRED
000123:                                                                                                  #       *ALL TVC DAP OPERATIONS ON THE AIR
000124:
000125:                                                                                                  #  DEBRIS....TVC TEMPORARIES IN EBANK6
000126:


000128:
000129: 16,3135                                           BANK     16
000130: 16,2000                                           SETLOC   DAPROLL
000131: 16,2000                                           BANK
000132: 16,3135  E6,1644                                  EBANK=   TVCPHASE
000133: 16,3135                                           COUNT*   $$/RSRT
000134:
000135: 16,3135           22016        REDOTVC            LXCH     BANKRUPT                              #  TVC RESTART PACKAGE
000136: 16,3136           00006                           EXTEND
000137: 16,3137           22012                           QXCH     QRUPT                                 #  (..TCR.. IN ..FINCOPY..)
000138:
000139: 16,3140           11651        EXECPHS            CCS      TVCEXPHS                              #  CHECK TVCEXECUTIVE PHASE
000140: 16,3141           13143                           TCF      +2                                    #        MUST RESTART TVCEXECUTIVE
000141: 16,3142           13147                           TCF      TVCDAPHS                              #        NO NEED TO RESTART TVCEXECUTIVE
000142:
000143: 16,3143           34334                           CAF      NINE                                  #  9CS DELAY TO FORCE EXRSTRT TO OCCUR
000144: 16,3144           05245                           TC       WAITLIST                              #        BEFORE PITCHDAP, AFTER CMDSOUT
000145: 16,3145  E6,1651                                  EBANK=   TVCEXPHS
000146: 16,3145           03250 34066                     2CADR    EXRSTRT
000147:
000148: 16,3147           47700        TVCDAPHS           CS       OCT37776                              #  CHECK BITS 15 AND 1 OF TVCPHASE TO SEE
000149: 16,3150           71644                           MASK     TVCPHASE                              #        DAP RESTART LOCATION (-1,1,2,3)
000150: 16,3151           10000                           CCS      A
000151: 16,3152           13235                           TCF      FINCOPY                               #        FINISH THE COPYCYCLE FIRST
000152: 16,3153           13160                           TCF      ENABL1                                #        JUST PREPARE THE OUTCOUNTERS AND GO
000153:
000154: 16,3154           41644                           CS       TVCPHASE                              #  TEST FOR TVCPHASE = -2
000155: 16,3155           75016                           MASK     BIT2                                  #        (THIS INDICATES RESTART OCCURRED
000156: 16,3156           00006                           EXTEND                                         #         DURING CSM/LM V46 SWITCH-OVER)
000157: 16,3157           13241                           BZF      TRIM/CMD                              #  NO, TVCPHASE = -1, RSTRT WAS IN TVCINIT
000158:
000159: 16,3160           35010        ENABL1             CAF      BIT8                                  #  TVC ENABLE, FOLLOWED BY 40 MS (MIN) WAIT
000160: 16,3161           65005                           AD       BIT11                                 #        SET BIT FOR OPTICS-DAC-ENABLE ALSO
000161: 16,3162           00006                           EXTEND                                         #        (ENABL1 ENTERED FROM TVCDAPHS / FINCOPY)
000162: 16,3163           05012                           WOR      CHAN12
000163: 16,3164           33254                           CAF      TVCADDR                               #  WAIT, CALLING ENABL2 (BBCON THERE)
000164: 16,3165           55312                           TS       T5LOC
000165: 16,3166           33260                           CAF      TVCADDR    +4                         #        60 MS (TVCEXADR)
000166: 16,3167           54030                           TS       TIME5
000167:
000168: 16,3170           15333                           TCF      RESUME
000169:
000170: 16,3171           22016        ENABL2             LXCH     BANKRUPT                              #  CONTINUE PREPARATION OF OUTCOUNTERS
000171:
000172: 16,3172           35016                           CAF      BIT2                                  #  OPTICS ERROR CNTR ENABLE, 4MS MIN WAIT
000173: 16,3173           00006                           EXTEND
000174: 16,3174           05012                           WOR      CHAN12


000176: 16,3175           33256                           CAF      TVCADDR    +2                         #  WAIT, CALLING CMDSOUT (BBCON THERE)
000177: 16,3176           55312                           TS       T5LOC
000178: 16,3177           37700                           CAF      OCT37776                              #        20MS
000179: 16,3200           54030                           TS       TIME5
000180:
000181: 16,3201           15335                           TCF      NOQRSM
000182:
000183: 16,3202           22016        CMDSOUT            LXCH     BANKRUPT                              #  CONTINUE PREPARATION OF OUTCOUNTERS
000184: 16,3203           00006                           EXTEND
000185: 16,3204           22012                           QXCH     QRUPT
000186:
000187: 16,3205           45021                           CS       ZERO                                  #  MOST RECENT ACTUATOR COMMANDS
000188: 16,3206           61623                           AD       PCMD                                  #        (AVOID +0)
000189: 16,3207           54054                           TS       TVCPITCH
000190: 16,3210           45021                           CS       ZERO
000191: 16,3211           61624                           AD       YCMD
000192: 16,3212           54053                           TS       TVCYAW
000193:
000194: 16,3213           35062                           CAF      PRIO6                                 #  RELEASE THE COUNTERS (BITS 11,12)
000195: 16,3214           00006                           EXTEND
000196: 16,3215           05014                           WOR      CHAN14
000197:
000198: 16,3216           11644        PHSCHK2            CCS      TVCPHASE                              #  CHECK TVCPHASE AGAIN
000199: 16,3217           13227                           TCF      CHKSTRK
000200: 16,3220           13227                           TCF      CHKSTRK
000201: 16,3221           10000                           CCS      A                                     #  A CONTAINS THE DIMINISHED ABSOLUTE OF
000202: 16,3222           03225                           TC       +3                                    #  TVCPHASE (-2 BECOMES +1. -1 BECOMES +0)
000203:
000204: 16,3223           04701                           TC       POSTJUMP                              #        REPEAT TVC INITIALIZATION
000205: 16,3224           36156                           CADR     MRCLEAN                               #        (DO NOT RETURN)
000206:
000207: 16,3225           04740                 +3        TC       IBNKCALL                              #        REPEAT CSM/LM V46 SWITCH-OVER
000208: 16,3226           36361                           CADR     SWICHOVR   +5                         #        (RETURN TO CHECK FOR STROKE TEST)
000209:
000210: 16,3227           11574        CHKSTRK            CCS      STROKER                               #  CHECK FOR STROKE TEST IN PROGRESS
000211: 16,3230           13245                           TCF      TSTINITJ                              #  YES, KILL IT
000212: 16,3231           13233                           TCF      +2                                    #  NO, PROCEED
000213: 16,3232           13245                           TCF      TSTINITJ                              #  YES, KILL IT
000214:
000215: 16,3233           04701                 +4        TC       POSTJUMP                              #        IF POSITIVE OR ZERO, RESTART AT
000216: 16,3234           36324                           CADR     TVCINIT4                              #                TVCINIT4 (ZEROS TVCPHASE, AND
000217:                                                                                                  #                CALLS TVC DAPS VIA DAPINIT)
000218: 16,3235           51644        FINCOPY            INDEX    TVCPHASE                              #  PICK UP THE APPROPRIATE COPYCYCLE
000219: 16,3236           33254                           CAF      TVCCADR
000220: 16,3237           04744                           TCR      ISWCALL                               #  RE-ENTER THE COPYCYCLE, RETURN AT END
000221: 16,3240           13160                           TCF      ENABL1                                #  NOW PREPARE THE OUTCOUNTERS
000222:
000223: 16,3241           00006        TRIM/CMD           EXTEND                                         #  TVCDAPON INITIALIZATION NOT COMPLETED,


000225: 16,3242           31424                           DCA      PACTOFF                               #        EG. P,YCMD MAY NOT BE SET.  SET...
000226: 16,3243           53624                           DXCH     PCMD
000227: 16,3244           13160                           TCF      ENABL1                                #  NOW PREPARE THE OUTCOUNTERS
000228:
000229: 16,3245           35021        TSTINITJ           CAF      ZERO                                  #  DISABLE STROKE TEST (-0 SHOWS PRIOR V68)
000230: 16,3246           55574                           TS       STROKER                               #  (+0 MEANS NEW V68 REQUIRED FOR STARTUP)
000231:
000232: 16,3247           13233                           TCF      CHKSTRK    +4
000233:
000234: 16,3250           51651        EXRSTRT            INDEX    TVCEXPHS                              #  TVCEXECUTIVE RESTARTS....GO TO
000235: 16,3251           33260                           CAF      TVCEXADR                              #        APPROPRIATE RESTART POINT
000236: 16,3252           50000                           INDEX    A
000237: 16,3253           10000                           TCF      0
000238:
000239:                                                                                                  #  TVC RESTART TABLES.... ORDER IS REQUIRED.  HI-ORDER WORDS ONLY, OF 2CADRS, SINCE BBCON IS ALREADY THERE.
000240:
000241: 16,3254  16,3254               TVCADDR            =        TVCCADR                               #  TABLE OF CADRS, UNUSED LOCS FOR GENADRS
000242: 16,3254           03171        TVCCADR            GENADR   ENABL2                                #  (FOR T5 CALL, UNUSED TABLE LOC)
000243: 16,3255           40675                 +1        CADR     PCOPY      +1                         #  PITCH COPYCYCLE
000244: 16,3256           03202                 +2        GENADR   CMDSOUT                               #  (FOR T5 CALL, UNUSED TABLE LOC)
000245: 16,3257           41051                 +3        CADR     YCOPY      +1                         #  YAW COPYCYCLE
000246: 16,3260           37772        TVCEXADR           OCT      37772                                 #  (UNUSED TABLE LOC, FILL WITH 60MS, T5)
000247: 16,3261           03000                 +1        GENADR   EXECCOPY   +1                         #  TVCEXECUTIVE RESTART POINTS (ORDERED)
000248: 16,3262           03006                 +2        GENADR   1SHOTCHK
000249: 16,3263           03035                 +3        GENADR   TEMPSET
000250: 16,3264           03040                 +4        GENADR   CORSETUP
000251: 16,3265           03116                 +5        GENADR   CORCOPY    +1
000252: 16,3266           03127                 +6        GENADR   CNTRCOPY

End of include-file TVCRESTARTS.agc.  Parent file is MAIN.agc


