
Source Code


000002:                                                                                                  ## Copyright:   Public domain.
000003:                                                                                                  ## Filename:    TVCSTROKETEST.agc
000004:                                                                                                  ## Purpose:     A section of Comanche revision 045.
000005:                                                                                                  ##              It is part of the reconstructed source code for the
000006:                                                                                                  ##              second release of the flight software for the Command
000007:                                                                                                  ##              Module's (CM) Apollo Guidance Computer (AGC) for Apollo 10.
000008:                                                                                                  ##              The code has been recreated from a copy of Comanche 055. It
000009:                                                                                                  ##              has been adapted such that the resulting bugger words
000010:                                                                                                  ##              exactly match those specified for Comanche 45 in NASA drawing
000011:                                                                                                  ##              2021153D, which gives relatively high confidence that the
000012:                                                                                                  ##              reconstruction is correct.
000013:                                                                                                  ## Assembler:   yaYUL
000014:                                                                                                  ## Contact:     Ron Burkey <info@sandroid.org>.
000015:                                                                                                  ## Website:     www.ibiblio.org/apollo/index.html
000016:                                                                                                  ## Mod history: 2020-12-06 MAS  Created from Comanche 44.
000017:


000019:                                                                                                  #  NAME          STROKE TEST PACKAGE             (INCLUDING INITIALIZATION PACKAGE)
000020:                                                                                                  #  LOG SECTION...TVCSTROKETEST                   SUBROUTINE...DAPCSM
000021:                                                                                                  #  MODIFIED BY SCHLUNDT                          21 OCTOBER 1968
000022:
000023:                                                                                                  #  FUNCTIONAL DESCRIPTION....
000024:                                                                                                  #        STROKE TEST PACKAGE GENERATES A WAVEFORM DESIGNED TO EXCITE BENDING
000025:                                                                                                  #        STRKTSTI (STROKE TEST INITIALIZATION) IS CALLED AS A JOB BY VB68.
000026:                                                                                                  #                IT INITIALIZES ALL ERASABLES REQD FOR A STROKE TEST, AND
000027:                                                                                                  #                THEN TESTS FOR CSM/LM (BIT 13 OF DAPDATR1). IF CSM/LM,
000028:                                                                                                  #                IN EITHER HIGH OR LOW-BANDWIDTH MODE, THE TEST IS STARTED
000029:                                                                                                  #                IMMEDIATELY.  IF NOT CSM/LM, PROGRAM EXITS WITH NO ACTION.
000030:                                                                                                  #        HACK (STROKE TEST) GENERATES THE WAVEFORM BY DUMPING PULSE BURSTS
000031:                                                                                                  #                OF PROPER SIGN AND IN PROPER SEQUENCE DIRECTLY INTO
000032:                                                                                                  #                TVCPITCH, WORKING IN CONJUNCITON WITH BOTH PITCH AND YAW
000033:                                                                                                  #                TVC DAPS, WITH INTERMEDIATE WAITLIST CALLS.  NOTE, HOWEVER
000034:                                                                                                  #                THAT THE STROKE TEST IS PERFORMED ONLY IN THE PITCH AXIS.
000035:                                                                                                  #                AN EXAMPLE WAVEFORM IS GIVEN BELOW, TO DEMONSTRATE STROKE-
000036:                                                                                                  #                TEST PARAMETER SELECTION
000037:                                                                                                  #        RESTARTS CAUSE TEST TO BE TERMINATED.  ANOTHER V68 REQD IF TEST
000038:                                                                                                  #                IS TO BE RE-RUN.
000039:                                                                                                  #        PULSE BURST SIZE IS PAD-LOADED (ESTROKER) SO THAT AMPLITUDE OF
000040:                                                                                                  #                WAVEFORM CAN BE CHANGED.  THERE ARE TEN PULSE BURSTS IN
000041:                                                                                                  #                THE HALF-AMPLITUDE OF THE FIRST FREQUENCY SET IN THE
000042:                                                                                                  #                STANDARD WAVEFORM.  AMPLITUDE IS 10(ESTROKER)(1/42.15),
000043:                                                                                                  #                NOMINALLY 50/42.15 = 1.185 DEG
000044:
000045:                                                                                                  #  CALLING SEQUENCE....
000046:                                                                                                  #        EXTENDED VERB 68 SETS UP STRKTSTI JOB
000047:                                                                                                  #        PITCH AND YAW TVCDAPS, FINDING STROKER NON-ZERO, DO A ..TC HACK..
000048:                                                                                                  #        AN INTERNALLY-GENERATED WAITLIST CALL ENTERS AT ..HACKWLST..
000049:
000050:                                                                                                  #  NORMAL EXIT MODES....
000051:                                                                                                  #        TC BUNKER (..Q.. IF ENTRY FROM DAP, ..TCTSKOVR.. IF FROM WAITLIST) LIST
000052:
000053:                                                                                                  #  SUBROUTINES CALLED....
000054:                                                                                                  #        WAITLIST
000055:
000056:                                                                                                  #  ALARM OR ABORT EXIT MODES....
000057:                                                                                                  #        NONE
000058:
000059:                                                                                                  #  ERASABLE INITIALIZATION REQUIRED....
000060:                                                                                                  #        ESTROKER (PAD-LOAD)
000061:                                                                                                  #        STROKER, CADDY, REVS, CARD, N
000062:
000063:                                                                                                  #  OUTPUT....
000064:                                                                                                  #        STRKTSTI...INITIALIZATION FOR STROKE TEST
000065:                                                                                                  #        HACK, HACKWLST...PULSE BURSTS INTO TVCPITCH VIA ..ADS..
000066:                                                                                                  #                          RESETS STROKER = +0 WHEN TEST COMPLETED
000067:
000068:                                                                                                  #  DEBRIS....
000069:                                                                                                  #        N = CADDY = +0, CARD = -0, REVS = -1
000070:                                                                                                  #        BUNKER


000072:
000073:                                                                                                  #  EXAMPLE STROKE TEST WAVE FORM, DEMONSTRATING PARAMETER SELECTION
000074:
000075:                                                                                                  #  NOTE....THIS IS NOT THE OFFICIAL WAVEFORM....
000076:
000077:                                                                                                  #         **              **
000078:                                                                                                  #         **              **
000079:                                                                                                  #         **              **             EXAMPLE WAVEFORM (EACH * REPRESENTS
000080:                                                                                                  #        *  *            *  *                 85.41 ARCSEC OF ACTUATOR CMND)
000081:                                                                                                  #        *  *            *  *
000082:                                                                                                  #        *  *            *  *
000083:                                                                                                  #       *    *          *    *          **      **      **      **      **
000084:                                                                                                  #       *    *          *    *          **      **      **      **      **
000085:                                                                                                  #       *    *          *    *          **      **      **      **      **
000086:                                                                                                  #      *      *        *      *        *  *    *  *    *  *    *  *    *  *    **  **  **  **  **
000087:                                                                                                  #      *      *        *      *        *  *    *  *    *  *    *  *    *  *    **  **  **  **  **
000088:                                                                                                  #      *      *        *      *        *  *    *  *    *  *    *  *    *  *    **  **  **  **  **
000089:                                                                                                  #  -----------------------------------------------------------------------------------------------------
000090:                                                                                                  #              *      *        *      *    *  *    *  *    *  *    *  *    *  *  **  **  **  **  **
000091:                                                                                                  #              *      *        *      *    *  *    *  *    *  *    *  *    *  *  **  **  **  **  **
000092:                                                                                                  #              *      *        *      *    *  *    *  *    *  *    *  *    *  *  **  **  **  **  **
000093:                                                                                                  #               *    *          *    *      **      **      **      **      **
000094:                                                                                                  #               *    *          *    *      **      **      **      **      **
000095:                                                                                                  #               *    *          *    *      **      **      **      **      **
000096:                                                                                                  #                *  *            *  *
000097:                                                                                                  #                *  *            *  *
000098:                                                                                                  #                *  *            *  *
000099:                                                                                                  #                 **              **
000100:                                                                                                  #                 **              **
000101:                                                                                                  #                 **              **
000102:
000103:                                                                                                  #  FOR THIS (UNOFFICIAL, EXAMPLE) WAVEFORM, THE REQUIRED PARAMETERS ARE AS FOLLOWS....
000104:
000105:                                                                                                  #        FCARD    = +3           (NUMBER OF SETS)
000106:                                                                                                  #        ESTROKER = +3           (PULSE BURST SIZE, SC.AT 85.41 ARCSEC/BIT)
000107:
000108:                                                                                                  #        SET1..
000109:                                                                                                  #                FREVS   = +3    (NUMBER REVERSALS MINUS 1)
000110:                                                                                                  #                FCADDY  = +4    (NUMBER OF PULSE BURSTS IN 1/2 AMPLITUDE)
000111:                                                                                                  #        SET2..
000112:                                                                                                  #                FCARD1  = +9    (NUMBER REVERSALS MINUS 1)
000113:                                                                                                  #                FCARD4  = +2    (NUMBER OF PULSE BURSTS IN 1/2 AMPLITUDE)
000114:                                                                                                  #        SET3..
000115:                                                                                                  #                FCARD2  = +9    (NUMBER REVERSALS MINUS 1)
000116:                                                                                                  #                FCARD5  = +1    (NUMBER OF PULSE BURSTS IN 1/2 AMPLITUDE)
000117:                                                                                                  #        SET4..
000118:                                                                                                  #                FCARD3  = +0    (NUMBER REVERSALS MINUS 1)
000119:                                                                                                  #                FCARD6  = +0    (NUMBER OF PULSE BURSTS IN 1/2 AMPLITUDE)
000120:


000122:                                                                                                  #  STROKE TEST INITIALIZATION PACKAGE (AS A JOB, FROM VERB 68)
000123:
000124: 17,2552                                           BANK     17
000125: 20,2000                                           SETLOC   DAPS2
000126: 20,2000                                           BANK
000127:
000128: 20,3501                                           COUNT*   $$/STRK
000129: 20,3501  E6,1655                                  EBANK=   CADDY
000130:
000131: 20,3501           03512        STRKTSTI           TCR      TSTINIT                               #  STROKE TEST INITIALIZATION PKG (CALLED
000132:                                                                                                  #  AS A JOB BY VERB68)
000133:
000134: 20,3502           00004        STRKCHK            INHINT
000135:
000136: 20,3503           31466                           CAE      DAPDATR1                              #  CHECK FOR CSM/LM CONFIGURATION
000137: 20,3504           75002                           MASK     BIT14
000138: 20,3505           00006                           EXTEND
000139: 20,3506           13511                           BZF      +3
000140:
000141: 20,3507           31413                           CAE      ESTROKER                              #  BEGIN ON NEXT DAP PASS (PITCH OR YAW)
000142: 20,3510           55574                           TS       STROKER                               #  (STROKING DONE IN PITCH ONLY, HOWEVER)
000143:
000144: 20,3511           15217                           TCF      ENDOFJOB
000145:
000146: 20,3512           43522        TSTINIT            CS       FCADDY                                #  NORMAL ENTRY FROM STRKTSTI
000147: 20,3513           55655                           TS       CADDY
000148: 20,3514           55656                           TS       N                                     #        NOTE SGN CHNG FCADDY(+) TO CADDY(-)
000149:
000150: 20,3515           33523                           CAF      FREVS
000151: 20,3516           55660                           TS       REVS
000152:
000153: 20,3517           43524                           CS       FCARD                                 #        NOTE SGN CHNG FCARD(+) TO CARD(-)
000154: 20,3520           55661                           TS       CARD
000155:
000156: 20,3521           00002                           TC       Q                                     #  RETURN TO STRKTSTI+1 (OR CHKSTRK+2 OR +4)
000157:


000159:                                                                                                  #  THE OFFICIAL STROKE TEST WAVEFORM (3 JAN, 1967) CONSISTS OF FOUR STROKE SETS, AS FOLLOWS....
000160:
000161:                                                                                                  #        SET 1...10 BURSTS IN 1/2 AMP,   4 REVERSALS
000162:                                                                                                  #        SET 2... 6 BURSTS IN 1/2 AMP,   6 REVERSALS
000163:                                                                                                  #        SET 3... 5 BURSTS IN 1/2 AMP,  10 REVERSALS
000164:                                                                                                  #        SET 4... 4 BURSTS IN 1/2 AMP,  14 REVERSALS
000165:
000166:                                                                                                  #  THE PULSE BURST SIZE (ESTROKER) IS PAD-LOADED (5 BITS AS OF 3 JAN, 1967)
000167:                                                                                                  #  THE REMAINING WAVEFORM-GENERATING PARAMETERS ARE AS FOLLOWS....
000168:
000169: 20,3522           00012        FCADDY             DEC      10         B-14                       #  NO. PULSE BURSTS IN 1/2 AMP, SET1..(+10)
000170: 20,3523           00003        FREVS              DEC      3          B-14                       #  NO. REVERSALS MINUS 1, SET1........(  3)
000171:
000172: 20,3524           00004        FCARD              DEC      4          B-14                       #  NO. STROKE SETS....................(+ 4)
000173:
000174: 20,3525           00005        FCARD1             DEC      5          B-14                       #  NO. REVERSALS MINUS 1, SET2........(  5)
000175:
000176: 20,3526           00011        FCARD2             DEC      9          B-14                       #                            3........(  9)
000177: 20,3527           00015        FCARD3             DEC      13         B-14                       #                            4........( 13)
000178:
000179: 20,3530           00006        FCARD4             DEC      6          B-14                       #  NO. PULSE BURSTS IN 1/2 AMP, SET2..(+ 6)
000180: 20,3531           00005        FCARD5             DEC      5          B-14                       #                               SET3..(+ 5)
000181: 20,3532           00004        FCARD6             DEC      4          B-14                       #                               SET4..(+ 4)
000182:
000183: 20,3533     5016               20MS               =        BIT2
000184:
000185:                                                                                                  #  STROKE TEST PACKAGE PROPER....
000186:
000187: 20,3533  E6,1657                                  EBANK=   BUNKER
000188:
000189: 20,3533           00006        HACK               EXTEND                                         #  ENTRY (IN T5 RUPT) FROM TVCDAPS
000190: 20,3534           23657                           QXCH     BUNKER                                #  SAVE Q FOR DAP RETURN
000191:
000192: 20,3535           35016                           CAF      20MS                                  #  2DAPSX2(PASSES/DAP)X2(CS/PASS)=8CS=TVCDT
000193: 20,3536           05245                           TC       WAITLIST
000194: 20,3537  E6,1657                                  EBANK=   BUNKER
000195: 20,3537           03542 40066                     2CADR    HACKWLST
000196:
000197: 20,3541           13544                           TCF      +3
000198:
000199: 20,3542           34367        HACKWLST           CAF      TCTSKOVR                              #  ENTRY FROM WAITLIST
000200: 20,3543           55657                           TS       BUNKER                                #  BUNKER IS TC TASKOVER
000201:
000202: 20,3544           31574                           CA       STROKER                               #  STROKE
000203: 20,3545           26054                           ADS      TVCPITCH
000204:
000205: 20,3546           35005                           CAF      BIT11                                 #  RELEASE THE ERROR COUNTERS
000206: 20,3547           00006                           EXTEND
000207: 20,3550           05014                           WOR      CHAN14
000208: 20,3551           25655                           INCR     CADDY                                 #  COUNT DOWN THE NO. BURSTS, THIS SLOPE


000210: 20,3552           41655                           CS       CADDY
000211: 20,3553           00006                           EXTEND
000212: 20,3554           63556                           BZMF     +2
000213: 20,3555           01657                           TC       BUNKER                                #  EXIT, WHILE ON A SLOPE
000214:
000215: 20,3556           11660                           CCS      REVS
000216: 20,3557           13577                           TCF      REVUP                                 #  POSITIVE REVS
000217: 20,3560           13603                           TCF      REVUP      +4                         #  FINAL REVERSAL, THIS SET
000218:
000219: 20,3561           25661                           INCR     CARD                                  #  NEGATIVE REVS SET LAST PASS, READY FOR
000220: 20,3562           41661                           CS       CARD                                  #        THE NEXT SET.  CHECK IF NO MORE SETS
000221: 20,3563           00006                           EXTEND
000222: 20,3564           13575                           BZF      STROKILL                              #  ALL SETS COMPLETED
000223:
000224: 20,3565           51661                           INDEX    CARD
000225: 20,3566           33530                           CAF      FCARD      +4                         #  PICK UP NO. REVERSALS (-), NEXT SET
000226: 20,3567           55660                           TS       REVS                                  #  REINITIALIZE
000227: 20,3570           51661                           INDEX    CARD
000228: 20,3571           43533                           CS       FCARD      +7                         #  PICK UP NO. BURSTS IN 1/2AMP, NEXT SET
000229: 20,3572           55656                           TS       N                                     #  REINITIALIZE
000230: 20,3573           55655                           TS       CADDY
000231: 20,3574           01657                           TC       BUNKER                                #  EXIT, AT END OF SET
000232:
000233: 20,3575           55574        STROKILL           TS       STROKER                               #  RESET (TO +0) TO END TEST
000234: 20,3576           01657                           TC       BUNKER                                #  EXIT, STROKE TEST FINIS
000235:
000236: 20,3577           55660        REVUP              TS       REVS                                  #  ALL REVERSALS EXCEPT LAST OF SET
000237: 20,3600           31656                           CA       N
000238: 20,3601           60000                           DOUBLE                                         #  2 X 1/2AMP
000239: 20,3602           13606                           TCF      +4
000240:
000241: 20,3603           45017                 +4        CS       ONE                                   #  FINAL REVERSAL, THIS SET
000242: 20,3604           55660                           TS       REVS                                  #  PREPARE TO BRANCH TO NEW BURST
000243: 20,3605           31656                           CA       N                                     #  JUST RETURN TO ZERO, FINAL SLOPE OF SET
000244: 20,3606           55655                           TS       CADDY                                 #  CADUP
000245:
000246: 20,3607           41574                           CS       STROKER                               #  CHANGE SIGN OF SLOPE
000247: 20,3610           55574                           TS       STROKER
000248: 20,3611           01657                           TC       BUNKER                                #  EXIT AT A REVERSAL (SLOPE CHANGE)
000249:

End of include-file TVCSTROKETEST.agc.  Parent file is MAIN.agc


