
Source Code


000002:                                                                                                  ## Copyright:   Public domain.
000003:                                                                                                  ## Filename:    WAITLIST.agc
000004:                                                                                                  ## Purpose:     A section of Comanche revision 045.
000005:                                                                                                  ##              It is part of the reconstructed source code for the
000006:                                                                                                  ##              second release of the flight software for the Command
000007:                                                                                                  ##              Module's (CM) Apollo Guidance Computer (AGC) for Apollo 10.
000008:                                                                                                  ##              The code has been recreated from a copy of Comanche 055. It
000009:                                                                                                  ##              has been adapted such that the resulting bugger words
000010:                                                                                                  ##              exactly match those specified for Comanche 45 in NASA drawing
000011:                                                                                                  ##              2021153D, which gives relatively high confidence that the
000012:                                                                                                  ##              reconstruction is correct.
000013:                                                                                                  ## Assembler:   yaYUL
000014:                                                                                                  ## Contact:     Ron Burkey <info@sandroid.org>.
000015:                                                                                                  ## Website:     www.ibiblio.org/apollo/index.html
000016:                                                                                                  ## Mod history: 2020-12-06 MAS  Created from Comanche 44.
000017:


000019:                                                                                                  #  PROGRAM DESCRIPTION                                           DATE - 10 OCTOBER 1966
000020:                                                                                                  #  MOD NO - 2                                                    LOG SECTION - WAITLIST
000021:                                                                                                  #  MOD BY - MILLER       (DTMAX INCREASED TO 162.5 SEC)          ASSEMBLY SUNBURST REV 5
000022:                                                                                                  #  MOD 3 BY KERNAN       (INHINT INSERTED AT WAITLIST) 2/28/68 SKIPPER REV 4
000023:                                                                                                  #  MOD 4 BY KERNAN       (TWIDDLE IN 54) 3/28/68 SKIPPER REV 13.
000024:
000025:                                                                                                  #  FUNCTIONAL DESCRIPTION -
000026:                                                                                                  #        PART OF A SECTION OF PROGRAMS,- WAITLIST, TASKOVER, T3RUPT, USED TO CALL A PROGRAM, (CALLED A TASK),
000027:                                                                                                  #        WHICH IS TO BEGIN IN C(A) CENTISECONDS.  WAITLIST UPDATES TIME3, LST1 AND LST2.  THE MEANING OF THESE LISTS
000028:                                                                                                  #        FOLLOW.
000029:
000030:                                                                                                  #                C(TIME3) = 16384 -(T1-T) CENTISECONDS, (T=PRESENT TIME, T1-TIME FOR TASK1)
000031:
000032:                                                                                                  #                        C(LST1)         =       -(T2-T1)+1
000033:                                                                                                  #                        C(LST1 +1)      =       -(T3-T2)+1
000034:                                                                                                  #                        C(LST1 +2)      =       -(T4-T3)+1
000035:                                                                                                  #                                        .
000036:                                                                                                  #                                        .
000037:                                                                                                  #                        C(LST1 +6)      =       -(T8-T7)+1
000038:                                                                                                  #                        C(LST1 +7)      =       -(T9-T8)+1
000039:
000040:                                                                                                  #                        C(LST2)         =       2CADR OF TASK1
000041:                                                                                                  #                        C(LST2 +2)      =       2CADR OF TASK2
000042:                                                                                                  #                                        .
000043:                                                                                                  #                                        .
000044:                                                                                                  #                        C(LST2 +14)     =       2CADR OF TASK8
000045:                                                                                                  #                        C(LST2 +16)     =       2CADR OF TASK9
000046:
000047:                                                                                                  #  WARNINGS-
000048:                                                                                                  #  --------
000049:                                                                                                  #        1)      1 <= C(A) <= 16250D (1 CENTISECOND TO 162.5 SEC)
000050:                                                                                                  #        2)      9 TASKS MAXIMUM
000051:                                                                                                  #        3)      TASKS CALLED UNDER INTERRUPT INHIBITED
000052:                                                                                                  #        4)      TASKS END BY TC TASKOVER
000053:
000054:                                                                                                  #  CALLING SEQUENCE -
000055:                                                                                                  #        L-1     CA      DELTAT  (TIME IN CENTISECONDS TO TASK START)
000056:                                                                                                  #        L       TC      WAITLIST
000057:                                                                                                  #        L+1     2CADR   DESIRED TASK
000058:                                                                                                  #        L+2     (MINOR OF 2CADR)
000059:                                                                                                  #        L+3     RELINT          (RETURNS HERE)
000060:
000061:                                                                                                  #  TWIDDLE-
000062:                                                                                                  #  -------
000063:                                                                                                  #        TWIDDLE IS FOR USE WHEN THE TASK BEING SET UP IS IN THE SAME EBANK AND FBANK AS THE USER.  IN
000064:                                                                                                  #        SUCH CASES, IT IMPROVES UPON WAITLIST BY ELIMINATING THE NEED FOR THE BBCON HALF OF THE 2CADR,


000066:                                                                                                  #        SAVING A WORD.  TWIDDLE IS LIKE WAITLIST IN EVERY RESPECT EXCEPT CALLING SEQUENCE, TO WIT-
000067:                                                                                                  #                L-1     CA      DELTAT
000068:                                                                                                  #                L       TC      TWIDDLE
000069:                                                                                                  #                L+1     ADRES   DESIRED TASK
000070:                                                                                                  #                L+2     RELINT          (RETURNS HERE)
000071:
000072:                                                                                                  #  NORMAL EXIT MODES -
000073:                                                                                                  #        AT L+3 OF CALLING SEQUENCE
000074:
000075:                                                                                                  #  ALARM OR ABORT EXIT MODES -
000076:                                                                                                  #        TC      ABORT
000077:                                                                                                  #        OCT     1203    (WAITLIST OVERFLOW - TOO MANY TASKS)
000078:
000079:                                                                                                  #  ERASABLE INITIALIZATION REQUIRED -
000080:                                                                                                  #        ACCOMPLISHED BY FRESH START,--  LST2, ..., LST2 +16 = ENDTASK
000081:                                                                                                  #                                        LST1, ..., LST1 +7  = NEG1/2
000082:
000083:                                                                                                  #  OUTPUT --
000084:                                                                                                  #        LST1 AND LST2 UPDATED WITH NEW TASK AND ASSOCIATED TIME.
000085:
000086:                                                                                                  #  DEBRIS -
000087:                                                                                                  #        CENTRALS - A,Q,L
000088:                                                                                                  #        OTHER    - WAITEXIT, WAITADR, WAITTEMP, WAITBANK
000089:
000090:                                                                                                  #  DETAILED ANALYSIS OF TIMING -
000091:                                                                                                  #        CONTROL WILL NOT BE RETURNED TO THE SPECIFIED ADDRESS (2CADR) IN EXACTLY DELTA T CENTISECONDS.
000092:                                                                                                  #        THE APPROXIMATE TIME MAY BE CALCULATED AS FOLLOWS
000093:                                                                                                  #                LET TO = THE TIME OF THE TC WAITLIST
000094:                                                                                                  #                LET TS = TO +147U + COUNTER INCREMENTS (SET UP TIME)
000095:                                                                                                  #                LET X  = TS -(100TS)/100  (VARIANCE FROM COUNTERS)
000096:                                                                                                  #                LET Y  = LENGTH OF TIME OF INHIBIT INTERRUPT AFTER T3RUPT
000097:                                                                                                  #                LET Z  = LENGTH OF TIME TO PROCESS TASKS WHICH ARE DUE THIS T3RUPT BUT DISPATCHED EARLIER.
000098:                                                                                                  #                (Z=0, USUALLY)
000099:                                                                                                  #                LET DELTD = THE ACTUAL TIME TAKEN TO GIVE CONTROL TO 2CADR
000100:                                                                                                  #        THEN DELTD = TS+DELTA T -X +Y +Z +1.05MS* +COUNTERS*
000101:                                                                                                  #                *-THE TIME TAKEN BY WAITLIST ITSELF AND THE COUNTER TICKING DURING THIS WAITLIST TIME.
000102:                                                                                                  #        IN SHORT, THE ACTUAL TIME TO RETURN CONTROL TO A 2CADR IS AUGMENTED BY THE TIME TO SET UP THE TASK:S
000103:                                                                                                  #        INTERRUPT, ALL COUNTERS TICKING, THE T3RUPT PROCESSING TIME, THE WAITLIST PROCESSING TIME AND THE POSSIBILITY
000104:                                                                                                  #        OF OTHER TASKS INHIBITING THE INTERRUPT.
000105:
000106:    5235                                           BLOCK    02


000108:    5235  E3,1400                                  EBANK=   LST1                                  #  TASK LISTS IN SWITCHED E BANK.
000109:
000110:    5235                                           COUNT    02/WAIT
000111:
000112:    5235           00004        TWIDDLE            INHINT
000113:    5236           54001                           TS       L                                     #  SAVE DELAY TIME IN L
000114:    5237           34777                           CA       POSMAX
000115:    5240           26002                           ADS      Q                                     #  CREATING OVERFLOW AND Q-1 IN Q
000116:    5241           30006                           CA       BBANK
000117:    5242           00006                           EXTEND
000118:    5243           04007                           ROR      SUPERBNK
000119:    5244           56001                           XCH      L
000120:
000121:    5245           00004        WAITLIST           INHINT
000122:    5246           00006                           EXTEND
000123:    5247           65261                           BZMF     WATLST0-
000124:    5250           56002                           XCH      Q                                     #  SAVE DELTA T IN Q AND RETURN IN
000125:    5251           54061                           TS       WAITEXIT                              #  WAITEXIT.
000126:    5252           00006                           EXTEND
000127:    5253           50061                           INDEX    WAITEXIT                              #  IF TWIDDLING, THE TS SKIPS TO HERE
000128:    5254           30001                           DCA      0                                     #  PICK UP 2CADR OF TASK.
000129:    5255           54063                 -1        TS       WAITADR                               #  BBCON WILL REMAIN IN L
000130:    5256           35266        DLY2               CAF      WAITBB                                #  ENTRY FROM FIXDELAY AND VARDELAY.
000131:    5257           56006                           XCH      BBANK
000132:    5260           13246                           TCF      WAIT2
000133:
000134:    5261           05721        WATLST0-           TC       POODOO
000135:    5262           01204                           OCT      1204                                  #  WAITLIST CALL WITH ZERO OR NEG DT
000136:
000137:                                                                                                  #  RETURN TO CALLER AFTER TASK INSERTION:
000138:
000139:    5263           52062        LVWTLIST           DXCH     WAITEXIT
000140:    5264           65016                           AD       TWO
000141:    5265           52006                           DTCB
000142:
000143:    5266  E3,1400                                  EBANK=   LST1
000144:    5266           02063        WAITBB             BBCON    WAIT2
000145:
000146:                                                                                                  #  RETURN TO CALLER +2 AFTER WAITING DT SPECIFIED AT CALLER +1.
000147:
000148:    5267           50002        FIXDELAY           INDEX    Q                                     #  BOTH ROUTINES MUST BE CALLED UNDER
000149:    5270           30000                           CAF      0                                     #  WAITLIST CONTROL AND TERMINATE THE TASK
000150:    5271           24002                           INCR     Q                                     #  IN WHICH THEY WERE CALLED.
000151:
000152:                                                                                                  #  RETURN TO CALLER +1 AFTER WAITING THE DT AS ARRIVING IN A.
000153:
000154:    5272           56002        VARDELAY           XCH      Q                                     #  DT TO Q.  TASK ADRES TO WAITADR.
000155:    5273           54063                           TS       WAITADR
000156:    5274           30006                           CA       BBANK                                 #  BBANK IS SAVED DURING DELAY.
000157:    5275           00006                           EXTEND


000159:    5276           04007                           ROR      SUPERBNK                              #  ADD SBANK TO BBCON.
000160:    5277           54001                           TS       L
000161:    5300           35303                           CAF      DELAYEX
000162:    5301           54061                           TS       WAITEXIT                              #  GO TO TASKOVER AFTER TASK ENTRY.
000163:    5302           15256                           TCF      DLY2
000164:
000165:    5303           15322        DELAYEX            TCF      TASKOVER   -2                         #  RETURNS TO TASKOVER
000166:


000168:                                                                                                  #  ENDTASK MUST BE ENTERED IN FIXED-FIXED SO IT IS DISTINGUISHABLE BY ITS ADRES ALONE.
000169:
000170:    5304  E3,1400                                  EBANK=   LST1
000171:    5304           72471 73714  ENDTASK            -2CADR   SVCT3
000172:
000173:    5306           10076        SVCT3              CCS      FLAGWRD2                              #  DRIFT FLAG
000174:    5307           15324                           TCF      TASKOVER
000175:    5310           15324                           TCF      TASKOVER
000176:    5311           15312                           TCF      +1
000177:
000178:    5312           11322                           CCS      IMUCADR                               #  DON'T DO NBDONLY IF SOMEONE ELSE IS IN
000179:    5313           17717                           TCF      SVCT3X
000180:    5314           15317                           TCF      +3
000181:    5315           17717                           TCF      SVCT3X
000182:    5316           17717                           TCF      SVCT3X
000183:    5317           37672                 +3        CAF      PRIO35                                #  COMPENSATE FOR NBD COEFFICIENTS ONLY.
000184:    5320           05134                           TC       NOVAC                                 #        ENABLE EVERY 81.93 SECONDS
000185:    5321  E3,1460                                  EBANK=   NBDX
000186:    5321           03542 14063                     2CADR    NBDONLY
000187:
000188:    5323           15324                           TCF      TASKOVER
000189:
000190:    6000                                           SETLOC   FFTAG6
000191:    6000                                           BANK
000192:
000193:    7717           05267        SVCT3X             TC       FIXDELAY                              #  DELAY MAX OF 2 TIMES FOR IMU ZERO
000194:    7720           00764                           DEC      500        B-14
000195:    7721           05306                           TC       SVCT3                                 #  CHECK DRIFT FLAG AGAIN
000196:


000198:                                                                                                  #  BEGIN TASK INSERTION.
000199:
000200: 01,3246                                           BANK     01
000201: 01,3246                                           COUNT    01/WAIT
000202:
000203: 01,3246           54062        WAIT2              TS       WAITBANK                              #  BBANK OF CALLING PROGRAM.
000204: 01,3247           40026                           CS       TIME3
000205: 01,3250           65010                           AD       BIT8                                  #  BIT 8 = OCT 200
000206: 01,3251           10000                           CCS      A                                     #  TEST 200 - C(TIME3).  IF POSITIVE,
000207:                                                                                                  #  IT MEANS THAT TIME3 OVERFLOW HAS OCCURRED PRIOR TO CS TIME3 AND THAT
000208:                                                                                                  #  C(TIME3) = T - T1, INSTEAD OF 1.0 - (T1 - T).  THE FOLLOWING FOUR
000209:                                                                                                  #  ORDERS SET C(A) = TD - T1 + 1 IN EITHER CASE.
000210:
000211: 01,3252           66056                           AD       OCT40001                              #  OVERFLOW HAS OCCURRED.  SET C(A) =
000212: 01,3253           40000                           CS       A                                     #  T - T1 + 1.0 - 201
000213:
000214:                                                                                                  #  NORMAL CASE (C(A) NNZ) YIELDS SAME C(A):  -( -(1.0-(T1-T)) + 200) - 1
000215:
000216: 01,3254           63402                           AD       OCT40201
000217: 01,3255           60002                           AD       Q                                     #  RESULT = TD - T1 + 1.
000218:
000219: 01,3256           10000                           CCS      A                                     #  TEST TD - T1 +1
000220:
000221: 01,3257           61400                           AD       LST1                                  #  IF TD - T1 POS, GO TO WTLST5 WITH
000222: 01,3260           13322                           TCF      WTLST5                                #  C(A) = (TD - T1) + C(LST1) = TD-T2+1
000223:
000224: 01,3261           13262                           NOOP
000225: 01,3262           40002                           CS       Q
000226:
000227:                                                                                                  #  NOTE THAT THIS PROGRAM SECTION IS NEVER ENTERED WHEN T-T1 G/E -1,
000228:                                                                                                  #  SINCE TD-T1+1 = (TD-T) + (T-T1+1), AND DELTA T = TD-T G/E +1.  (G/E
000229:                                                                                                  #  SYMBOL MEANS GREATER THAN OR EQUAL TO).  THUS THERE NEED BE NO CON-
000230:                                                                                                  #  CERN OVER A PREVIOUS OR IMMINENT OVERFLOW OF TIME3 HERE.
000231:
000232: 01,3263           65002                           AD       POS1/2                                #  WHEN TD IS NEXT, FORM QUANTITY
000233: 01,3264           65002                           AD       POS1/2                                #        1.0 - DELTA T = 1.0 - (TD - T)
000234: 01,3265           56026                           XCH      TIME3
000235: 01,3266           65001                           AD       NEGMAX
000236: 01,3267           60002                           AD       Q                                     #  1.0 - DELTAT T NOW COMPLETE.
000237: 01,3270           00006                           EXTEND                                         #  ZERO INDEX Q.
000238: 01,3271           22007                           QXCH     7                                     #  (ZQ)
000239:


000241: 01,3272           57400        WTLST4             XCH      LST1
000242: 01,3273           57401                           XCH      LST1       +1
000243: 01,3274           57402                           XCH      LST1       +2
000244: 01,3275           57403                           XCH      LST1       +3
000245: 01,3276           57404                           XCH      LST1       +4
000246: 01,3277           57405                           XCH      LST1       +5
000247: 01,3300           57406                           XCH      LST1       +6
000248: 01,3301           57407                           XCH      LST1       +7
000249:
000250: 01,3302           30063                           CA       WAITADR                               #  (MINOR PART OF TASK CADR HAS BEEN IN L.)
000251: 01,3303           50002                           INDEX    Q
000252: 01,3304           13305                           TCF      +1
000253:
000254: 01,3305           53411                           DXCH     LST2
000255: 01,3306           53413                           DXCH     LST2       +2
000256: 01,3307           53415                           DXCH     LST2       +4
000257: 01,3310           53417                           DXCH     LST2       +6
000258: 01,3311           53421                           DXCH     LST2       +8D
000259: 01,3312           53423                           DXCH     LST2       +10D                       #  AT END, CHECK THAT C(LST2 +10) IS STD
000260: 01,3313           53425                           DXCH     LST2       +12D
000261: 01,3314           53427                           DXCH     LST2       +14D
000262: 01,3315           53431                           DXCH     LST2       +16D
000263: 01,3316           65304                           AD       ENDTASK                               #  END ITEM, AS CHECK FOR EXCEEDING
000264:                                                                                                  #  THE LENGTH OF THE LIST.
000265: 01,3317           00006                           EXTEND                                         #  DUMMY TASK ADRES SHOULD BE IN FIXED-
000266: 01,3320           15263                           BZF      LVWTLIST                              #  FIXED SO ITS ADRES ALONE DISTINGUISHES
000267: 01,3321           13375                           TCF      WTABORT                               #  IT.
000268:


000270: 01,3322           10000        WTLST5             CCS      A                                     #  TEST TD - T2 + 1
000271: 01,3323           61401                           AD       LST1       +1
000272: 01,3324           13330                           TCF      +4
000273: 01,3325           65017                           AD       ONE
000274: 01,3326           03403                           TC       WTLST2
000275: 01,3327           00001                           OCT      1
000276:
000277: 01,3330           10000                 +4        CCS      A                                     #  TEST TD - T3 + 1
000278: 01,3331           61402                           AD       LST1       +2
000279: 01,3332           13336                           TCF      +4
000280: 01,3333           65017                           AD       ONE
000281: 01,3334           03403                           TC       WTLST2
000282: 01,3335           00002                           OCT      2
000283:
000284: 01,3336           10000                 +4        CCS      A                                     #  TEST TD - T4 + 1
000285: 01,3337           61403                           AD       LST1       +3
000286: 01,3340           13344                           TCF      +4
000287: 01,3341           65017                           AD       ONE
000288: 01,3342           03403                           TC       WTLST2
000289: 01,3343           00003                           OCT      3
000290:
000291: 01,3344           10000                 +4        CCS      A                                     #  TEST TD - T5 + 1
000292: 01,3345           61404                           AD       LST1       +4
000293: 01,3346           13352                           TCF      +4
000294: 01,3347           65017                           AD       ONE
000295: 01,3350           03403                           TC       WTLST2
000296: 01,3351           00004                           OCT      4
000297:
000298: 01,3352           10000                 +4        CCS      A                                     #  TEST TD - T6 + 1
000299: 01,3353           61405                           AD       LST1       +5
000300: 01,3354           13360                           TCF      +4
000301: 01,3355           65017                           AD       ONE
000302: 01,3356           03403                           TC       WTLST2
000303: 01,3357           00005                           OCT      5
000304:
000305: 01,3360           10000                 +4        CCS      A                                     #  TEST TD - T7 + 1
000306: 01,3361           61406                           AD       LST1       +6
000307: 01,3362           13366                           TCF      +4
000308: 01,3363           65017                           AD       ONE
000309: 01,3364           03403                           TC       WTLST2
000310: 01,3365           00006                           OCT      6
000311:


000313: 01,3366           10000                 +4        CCS      A
000314: 01,3367           61407                           AD       LST1       +7
000315: 01,3370           13374                           TCF      +4
000316: 01,3371           65017                           AD       ONE
000317: 01,3372           03403                           TC       WTLST2
000318: 01,3373           00007                           OCT      7
000319:
000320: 01,3374           10000                 +4        CCS      A
000321: 01,3375           07755        WTABORT            TC       BAILOUT                               #  NO ROOM IN THE INN.
000322: 01,3376           01203                           OCT      1203
000323:
000324: 01,3377           65017                           AD       ONE
000325: 01,3400           03403                           TC       WTLST2
000326: 01,3401           00010                           OCT      10
000327:
000328: 01,3402           40201        OCT40201           OCT      40201
000329:


000331:                                                                                                  #  THE ENTRY TO WTLST2 JUST PRECEDING OCT N IS FOR T  LE TD LE T   -1.
000332:                                                                                                  #                                                   N           N+1
000333:
000334:                                                                                                  #  (LE MEANS LESS THAN OR EQUAL TO).  AT ENTRY, C(A) = -(TD - T   + 1)
000335:                                                                                                  #                                                              N+1
000336:
000337:                                                                                                  #  THE LST1 ENTRY-(T   -T +1) IS TO BE REPLACED BY -(TD - T  + 1), AND
000338:                                                                                                  #                   N+1  N                                 N
000339:
000340:                                                                                                  #  THE ENTRY-(T   - TD + 1) IS TO BE INSERTED IMMEDIATELY FOLLOWING.
000341:                                                                                                  #              N+1
000342:
000343: 01,3403           54064        WTLST2             TS       WAITTEMP                              #  C(A) = -(TD - T + 1)
000344: 01,3404           50002                           INDEX    Q
000345: 01,3405           30000                           CAF      0
000346: 01,3406           54002                           TS       Q                                     #  INDEX VALUE INTO Q.
000347:
000348: 01,3407           35017                           CAF      ONE
000349: 01,3410           60064                           AD       WAITTEMP
000350: 01,3411           50002                           INDEX    Q                                     #  C(A) = -(TD - T ) + 1.
000351: 01,3412           27377                           ADS      LST1       -1                         #                 N
000352:
000353: 01,3413           40064                           CS       WAITTEMP
000354: 01,3414           50002                           INDEX    Q
000355: 01,3415           13272                           TCF      WTLST4
000356:
000357:                                                                                                  #  C(TIME3) = 1.0 - (T1 - T)
000358:
000359:                                                                                                  #  C(LST1  ) = - (T2 - T1) + 1
000360:                                                                                                  #  C(LST1+1) = - (T3 - T2) + 1
000361:                                                                                                  #  C(LST1+2) = - (T4 - T3) + 1
000362:                                                                                                  #  C(LST1+3) = - (T5 - T4) + 1
000363:                                                                                                  #  C(LST1+4) = - (T6 - T5) + 1
000364:
000365:                                                                                                  #  C(LST2   ) = 2CADR  TASK1
000366:                                                                                                  #  C(LST2+2 ) = 2CADR  TASK2
000367:                                                                                                  #  C(LST2+4 ) = 2CADR  TASK3
000368:                                                                                                  #  C(LST2+6 ) = 2CADR  TASK4
000369:                                                                                                  #  C(LST2+8 ) = 2CADR  TASK5
000370:                                                                                                  #  C(LST2+10) = 2CADR  TASK6
000371:


000373:                                                                                                  #  ENTERS HERE ON T3 RUPT TO DISPATCH WAITLISTED TASK.
000374:
000375: 01,3416           00006        T3RUPT             EXTEND
000376: 01,3417           04007                           ROR      SUPERBNK                              #  READ CURRENT SUPERBANK VALUE AND
000377: 01,3420           54016                           TS       BANKRUPT                              #  SAVE WITH E AND F BANK VALUES.
000378: 01,3421           00006                           EXTEND
000379: 01,3422           22012                           QXCH     QRUPT
000380:
000381: 01,3423           35000        T3RUPT2            CAF      NEG1/2                                #  DISPATCH WAITLIST TASK.
000382: 01,3424           57407                           XCH      LST1       +7
000383: 01,3425           57406                           XCH      LST1       +6
000384: 01,3426           57405                           XCH      LST1       +5
000385: 01,3427           57404                           XCH      LST1       +4                         #  1. MOVE UP LST1 CONTENTS, ENTERING
000386: 01,3430           57403                           XCH      LST1       +3                         #     A VALUE OF 1/2 +1 AT THE BOTTOM
000387: 01,3431           57402                           XCH      LST1       +2                         #     FOR T6-T5, CORRESPONDING TO THE
000388: 01,3432           57401                           XCH      LST1       +1                         #     INTERVAL 81.91 SEC FOR ENDTASK.
000389: 01,3433           57400                           XCH      LST1
000390: 01,3434           64777                           AD       POSMAX                                #  2. SET T3 = 1.0 - T2 - T USING LIST 1.
000391: 01,3435           26026                           ADS      TIME3                                 #  SO T3 WONT TICK DURING UPDATE.
000392: 01,3436           54734                           TS       RUPTAGN
000393: 01,3437           45021                           CS       ZERO
000394: 01,3440           54734                           TS       RUPTAGN                               #  SETS RUPTAGN TO +1 ON OVERFLOW.
000395:
000396: 01,3441           00006                           EXTEND                                         #  DISPATCH TASK.
000397: 01,3442           45305                           DCS      ENDTASK
000398: 01,3443           53431                           DXCH     LST2       +16D
000399: 01,3444           53427                           DXCH     LST2       +14D
000400: 01,3445           53425                           DXCH     LST2       +12D
000401: 01,3446           53423                           DXCH     LST2       +10D
000402: 01,3447           53421                           DXCH     LST2       +8D
000403: 01,3450           53417                           DXCH     LST2       +6
000404: 01,3451           53415                           DXCH     LST2       +4
000405: 01,3452           53413                           DXCH     LST2       +2
000406: 01,3453           53411                           DXCH     LST2
000407:
000408: 01,3454           56001                           XCH      L
000409: 01,3455           00006                           EXTEND
000410: 01,3456           01007                           WRITE    SUPERBNK                              #  SET SUPERBANK FROM BBCON OF 2CADR
000411: 01,3457           56001                           XCH      L                                     #  RESTORE TO L FOR DXCH Z.
000412: 01,3460           52006                           DTCB
000413:


000415:                                                                                                  #  RETURN, AFTER EXECUTION OF T3 OVERFLOW TASK:
000416:
000417:    5324                                           BLOCK    02
000418:    5324                                           COUNT    02/WAIT
000419:
000420:    5324           10734        TASKOVER           CCS      RUPTAGN                               #  IF +1 RETURN TO T3RUPT, IF -0 RESUME.
000421:    5325           35266                           CAF      WAITBB
000422:    5326           54006                           TS       BBANK
000423:    5327           13423                           TCF      T3RUPT2                               #  DISPATCH NEXT TASK IF IT WAS DUE.
000424:
000425:    5330           30016                           CA       BANKRUPT
000426:    5331           00006                           EXTEND
000427:    5332           01007                           WRITE    SUPERBNK                              #  RESTORE SUPERBANK BEFORE RESUME IS DONE
000428:
000429:    5333           00006        RESUME             EXTEND
000430:    5334           22012                           QXCH     QRUPT
000431:    5335           30016        NOQRSM             CA       BANKRUPT
000432:    5336           56006                           XCH      BBANK
000433:    5337           52011        NOQBRSM            DXCH     ARUPT
000434:    5340           00003                           RELINT
000435:    5341           50017                           RESUME
000436:


000438:                                                                                                  #  LONGCALL
000439:                                                                                                  #  PROGRAM DESCRIPTION                           DATE - 17 MARCH 1967
000440:                                                                                                  #  PROGRAM WRITTEN BY W.H.VANDEVER               LOG SECTION WAITLIST
000441:                                                                                                  #  MOD BY - R. MELANSON TO ADD DOCUMENTATION     ASSEMBLY SUNDISK REV. 100
000442:
000443:                                                                                                  #  FUNCTIONAL DESCRIPTION -
000444:                                                                                                  #        LONGCALL IS CALLED WITH THE DELTA TIME ARRIVING IN A,L SCALED AS TIME2,TIME1 WITH THE 2CADR OF THE TASK
000445:                                                                                                  #        IMMEDIATELY FOLLOWING THE TC LONGCALL.  FOR EXAMPLE, IT MIGHT BE DONE AS FOLLOWS WHERE TIMELOC IS THE NAME OF
000446:                                                                                                  #        A DP REGISTER CONTAINING A DELTA TIME AND WHERE TASKTODO IS THE NAME OF THE LOCATION AT WHICH LONGCALL IS TO
000447:                                                                                                  #        START
000448:
000449:                                                                                                  #  CALLING SEQUENCE -
000450:                                                                                                  #                EXTEND
000451:                                                                                                  #                DCA     TIMELOC
000452:                                                                                                  #                TC      LONGCALL
000453:                                                                                                  #                2CADR   TASKTODO
000454:
000455:                                                                                                  #  NORMAL EXIT MODE -
000456:                                                                                                  #        1).     TC      WAITLIST
000457:                                                                                                  #        2).     DTCB    (TO L+3 OF CALLING ROUTINE 1ST PASS THRU LONGCYCL)
000458:                                                                                                  #        3).     DTCB    (TO TASKOVER ON SUBSEQUENT PASSES THRU LONGCYCL)
000459:
000460:                                                                                                  #  ALARM OR ABORT EXIT MODE -
000461:                                                                                                  #        NONE
000462:
000463:                                                                                                  #  OUTPUT -
000464:                                                                                                  #        LONGTIME AND LONGTIME+1 = DELTA TIME
000465:                                                                                                  #        LONGEXIT AND LONGEXIT+1 = RETURN 2CADR
000466:                                                                                                  #        LONGCADR AND LONGCADR+1 = TASK 2CADR
000467:                                                                                                  #        A = SINGLE PRECISION TIME FOR WAITLIST
000468:
000469:                                                                                                  #  ERASABLE INITIALIZATION -
000470:                                                                                                  #        A = MOST SIGNIFICANT PART OF DELTA TIME
000471:                                                                                                  #        L = LEAST SIGNIFICANT PART OF DELTA TIME
000472:                                                                                                  #        Q = ADDRESS OF 2CADR TASK VALUE
000473:
000474:                                                                                                  #  DEBRIS -
000475:                                                                                                  #        A,Q,L
000476:                                                                                                  #        LONGCADR AND LONGCADR+1
000477:                                                                                                  #        LONGEXIT AND LONGEXIT+1
000478:                                                                                                  #        LONGTIME AND LONGTIME+1
000479:
000480:                                                                                                  #  *** THE FOLLOWING IS TO BE IN FIXED-FIXED AND UNSWITCHED ERRASIBLE ***
000481:
000482:    5342                                           BLOCK    02
000483:    5342  E3,1400                                  EBANK=   LST1
000484:    5342           53140        LONGCALL           DXCH     LONGTIME                              #  OBTAIN THE DELTA TIME
000485:
000486:    5343           00006                           EXTEND                                         #  OBTAIN THE 2CADR


000488:    5344           50002                           NDX      Q
000489:    5345           30001                           DCA      0
000490:    5346           53134                           DXCH     LONGCADR
000491:
000492:    5347           00006                           EXTEND                                         #  NOW GO TO THE APPROPRIATE SWITCHED BANK
000493:    5350           35353                           DCA      LGCL2CDR                              #  FOR THE REST OF LONGCALL
000494:    5351           52006                           DTCB
000495:
000496:    5352  E3,1400                                  EBANK=   LST1
000497:    5352           03461 02063  LGCL2CDR           2CADR    LNGCALL2
000498:
000499:                                                                                                  #  *** THE FOLLOWING MAY BE IN A SWITCHED BANK, INCLUDING ITS ERASABLE ***
000500:
000501: 01,3461                                           BANK     01
000502: 01,3461                                           COUNT    01/WAIT
000503:
000504: 01,3461           23435        LNGCALL2           LXCH     LONGEXIT   +1                         #  SAVE THE CORRECT BB FOR RETURN
000505: 01,3462           35016                           CA       TWO                                   #  OBTAIN THE RETURN ADDRESS
000506: 01,3463           26002                           ADS      Q
000507: 01,3464           55434                           TS       LONGEXIT
000508:
000509:                                                                                                  #  *** WAITLIST TASK LONGCYCL ***
000510:
000511: 01,3465           00006        LONGCYCL           EXTEND                                         #  CAN WE SUCCESFULLY TAKE ABOUT 1.25
000512: 01,3466           43477                           DCS      DPBIT14                               #  MINUTES OFF OF LONGTIME
000513: 01,3467           21140                           DAS      LONGTIME
000514:
000515: 01,3470           11140                           CCS      LONGTIME   +1                         #  THE REASONIBG BEHIND THIS PART IS
000516: 01,3471           13510                           TCF      MUCHTIME                              #  INVOLVED, TAKING INTO ACCOUNT THAT THE
000517:                                                                                                  #  WORDS MAY NOT BE SIGNED CORRECTED (DP
000518:                                                                                                  #  BASIC INSTRUCTIONS
000519:                                                                                                  #  DO NOT SIGN CORRECT) AND THAT WE SUBTRAC
000520:                                                                                                  #  TED BIT14 (1 OVER HALF THE POS. VALUE
000521:                                                                                                  #  REPRESENTIBLE IN SINGLE WORD)
000522: 01,3472           13473                           NOOP                                           #  CAN:T GET HERE    **********
000523: 01,3473           13474                           TCF      +1
000524: 01,3474           11137                           CCS      LONGTIME
000525: 01,3475           13510                           TCF      MUCHTIME
000526: 01,3476           00000        DPBIT14            OCT      00000
000527: 01,3477           20000                           OCT      20000
000528:
000529:                                                                                                  #  LONGCALL
000530: 01,3500           35002        LASTTIME           CA       BIT14                                 #  GET BACK THE CORRECT DELTA TFOR WAITLIST
000531: 01,3501           27140                           ADS      LONGTIME   +1
000532: 01,3502           05245                           TC       WAITLIST
000533: 01,3503  E3,1400                                  EBANK=   LST1
000534: 01,3503           03515 02063                     2CADR    GETCADR                               #  THE ENTRY TO OUR LONGCADR
000535:
000536: 01,3505           33517        LONGRTRN           CA       TSKOVCDR                              #  SET IT UP SO THAT ONLY THE FIRST EXIT IS


000538: 01,3506           53435                           DXCH     LONGEXIT                              #  TO THE CALLER OF LONGCALL
000539: 01,3507           52006                           DTCB                                           #  THE REST ARE TO TASKOVER
000540:
000541: 01,3510           35002        MUCHTIME           CA       BIT14                                 #  WE HAVE OVER OUR ABOUT 1.25 MINUTES
000542: 01,3511           05245                           TC       WAITLIST                              #  SO SET UP FOR ANOTHER CYCLE THROUGH HERE
000543: 01,3512  E3,1400                                  EBANK=   LST1
000544: 01,3512           03465 02063                     2CADR    LONGCYCL
000545:
000546: 01,3514           13505                           TCF      LONGRTRN                              #  NOW EXIT PROPERLY
000547:
000548:                                                                                                  #  *** WAITLIST TASK GETCADR ***
000549:
000550: 01,3515           53134        GETCADR            DXCH     LONGCADR                              #  GET THE LONGCALL THAT WE WISHED TO START
000551: 01,3516           52006                           DTCB                                           #  AND TRANSFER CONTROL TO IT
000552:
000553: 01,3517           05324        TSKOVCDR           GENADR   TASKOVER
000554:
000555:

End of include-file WAITLIST.agc.  Parent file is MAIN.agc


