
Source Code
000001:                                                                                                 #  Copyright:     Public domain.
000002:                                                                                                 #  Filename:      AGS_INITIALIZATION.agc
000003:                                                                                                 #  Purpose:       Part of the source code for Luminary 1A build 099.
000004:                                                                                                 #                 It is part of the source code for the Lunar Module's (LM)
000005:                                                                                                 #                 Apollo Guidance Computer (AGC), for Apollo 11.
000006:                                                                                                 #  Assembler:     yaYUL
000007:                                                                                                 #  Contact:       Hartmuth Gutsche <hgutsche@xplornet.com>.
000008:                                                                                                 #  Website:       www.ibiblio.org/apollo.
000009:                                                                                                 #  Pages: 206-210
000010:                                                                                                 #  Mod history:   2009-05-19 HG   Transcribed from page images.
000011:
000012:                                                                                                 #  This source code has been transcribed or otherwise adapted from
000013:                                                                                                 #  digitized images of a hardcopy from the MIT Museum.  The digitization
000014:                                                                                                 #  was performed by Paul Fjeld, and arranged for by Deborah Douglas of
000015:                                                                                                 #  the Museum.  Many thanks to both.  The images (with suitable reduction
000016:                                                                                                 #  in storage size and consequent reduction in image quality as well) are
000017:                                                                                                 #  available online at www.ibiblio.org/apollo.  If for some reason you
000018:                                                                                                 #  find that the images are illegible, contact me at info@sandroid.org
000019:                                                                                                 #  about getting access to the (much) higher-quality images which Paul
000020:                                                                                                 #  actually created.
000021:
000022:                                                                                                 #  Notations on the hardcopy document read, in part:
000023:
000024:                                                                                                 #         Assemble revision 001 of AGC program LMY99 by NASA 2021112-61
000025:                                                                                                 #         16:27 JULY 14, 1969
000026:
000027:                                                                                                 #  Page 206
000028:
000029:                                                                                                 #  PROGRAM NAME:  AGS INITIALIZIZATION (R47)
000030:
000031:                                                                                                 #  WRITTEN BY:  RHODE/KILROY/FOLLETT
000032:
000033:                                                                                                 #  MOD NO.:       0
000034:                                                                                                 #  DATE:          23 MARCH 1967
000035:                                                                                                 #  MOD BY:        KILROY
000036:
000037:                                                                                                 #  MOD NO.:       1
000038:                                                                                                 #  DATE:          28 OCTOBER 1967
000039:                                                                                                 #  MOD BY:        FOLLETT
000040:
000041:                                                                                                 #  FUNCT. DESC.:  (1) TO PROVIDE THE AGS ABORT ELECTRONICS ASSEMBLY (AEA) WITH THE LEM AND CSM STATE VECTORS
000042:                                                                                                 #                 (POSITION,VELOCITY,TIME) IN LEM IMU COORDINATES BY MEANS OF THE LGC DIGITAL DOWNLINK.
000043:
000044:                                                                                                 #                 (2) TO ZERO THE ICDU, LGC, AND AEA GIMBAL ANGLE COUNTER SIMULTANEOUSLY IN ORDER TO ESTABLISH A
000045:                                                                                                 #                 COMMON ZERO REFERENCE FOR THE MEASUREMENT OF GIMBAL (EULER) ANGLES WHICH DEFINE LEM ATTITUDE
000046:
000047:                                                                                                 #                 (3) TO ESTABLISH THE GROUND ELAPSED TIME OF AEA CLOCK ZERO.  (IF AN AEA CLOCK ZERO IS
000048:                                                                                                 #                 REQUESTED DURING THIS PROGRAM
000049:
000050:                                                                                                 #  LOG SECTION:   AGS INITIALIZATION
000051:
000052:                                                                                                 #  CALLING SEQ:   PROGRAM IS ENTERED WHEN ASTRONAUT KEYS V47E ON DSKY.
000053:                                                                                                 #                 R47 MAY BE CALLED AT ANY TIME EXCEPT WHEN ANOTHER EXTENDED VERB IS IN PROGRESS
000054:
000055:                                                                                                 #  SUBROUTINES
000056:                                                                                                 #  CALLED:
000057:
000058:                                                                                                 #  NORMAL EXIT:   ENDEXT
000059:
000060:                                                                                                 #  ALARM/ABORT:   ALARM -- BAD REFSMMAT -- CODE:220
000061:                                                                                                 #                 OPERATOR ERROR IF V47 SELECTED DURING ANOTHER EXTENDED VERB.
000062:
000063:                                                                                                 #  ERASABLES
000064:                                                                                                 #  USED:          SAMPTIME        (2)     TIME OF :ENTER: KEYSTROKE
000065:                                                                                                 #                 AGSK            (2)     GROUND ELAPSED TIME OF THE AEA CLOCK :ZERO:
000066:                                                                                                 #                 AGSBUFF         (140)   CONTAINS AGS INITIALIZATION DATA (SEE :OUTPUT: BELOW)
000067:                                                                                                 #                 AGSWORD         (1)     PREVIOUS DOWNLIST SAVED HERE
000068:
000069: 05,2447  E4,1600                                 EBANK=   AGSBUFF
000070:
000071: 40,2000                                          BANK     40
000072: 32,2000                                          SETLOC   R47
000073: 32,2000                                          BANK
000074:
000075: 32,2005                                          COUNT*   $$/R47
000076:
000077: 32,2005           34737        AGSINIT           CAF      REFSMBIT
000078: 32,2006           70077                          MASK     FLAGWRD3                              #  CHECK REFSMFLG.
000079: 32,2007           10000                          CCS      A
000080:                                                                                                 #  Page 207
000081: 32,2010           02017                          TC       REDSPTEM                              #  REFSMMAT IS OK
000082: 32,2011           05567                          TC       ALARM                                 #  REFSMMAT IS BAD
000083: 32,2012           00220                          OCT      220
000084: 32,2013           05472                          TC       ENDEXT
000085:
000086: 32,2014           00006        NEWAGS            EXTEND
000087: 32,2015           30014                          DCA      SAMPTIME                              #  TIME OF THE :ENTER: KEYSTROKE
000088: 32,2016           53421                          DXCH     AGSK                                  #  BECOMES NEW AEA CLOCK :ZERO:
000089:
000090: 32,2017           00006        REDSPTEM          EXTEND
000091: 32,2020           31421                          DCA      AGSK
000092: 32,2021           53052                          DXCH     DSPTEMX
000093: 32,2022           32172        AGSDISPK          CAF      V06N16
000094: 32,2023           04616                          TC       BANKCALL                              #  R1 = 00XXX. HRS., R2 = 000XX MIN.,
000095: 32,2024           20334                          CADR     GOMARKF                               #  R3 = 0XX.XX SEC.
000096: 32,2025           05472                          TC       ENDEXT                                #  TERMINATE RETURN
000097: 32,2026           02036                          TC       AGSVCALC                              #  PROCEED RETURN
000098: 32,2027           44746                          CS       BIT6                                  #  IS ENTER VIA A V32
000099: 32,2030           60154                          AD       MPAC
000100: 32,2031           00006                          EXTEND
000101: 32,2032           12014                          BZF      NEWAGS                                #  YES, USE KEYSTROKE TIME FOR NEW AGSK
000102:
000103: 32,2033           00006                          EXTEND                                         #  NO, NEW AGSK LOADED VIA V25
000104: 32,2034           31052                          DCA      DSPTEMX                               #  LOADED INTO DSPTEMX BY KEYING
000105: 32,2035           02016                          TC       REDSPTEM   -1                         #  V25E FOLLOWED BY HRS.,MINS.,SECS.
000106:                                                                                                 #  DISPLAY THE NEW K.
000107:
000108: 32,2036           06037        AGSVCALC          TC       INTPRET
000109: 32,2037           77614                          SET
000110: 32,2040           01076                                   NODOFLAG                              #  DON'T ALLOW V37
000111: 32,2041           77414                          SET      EXIT
000112: 32,2042           02076                                   XDSPFLAG
000113:
000114: 32,2043           32172                          CAF      V06N16
000115: 32,2044           04616                          TC       BANKCALL
000116: 32,2045           20620                          CADR     EXDSPRET
000117:
000118: 32,2046           06037                          TC       INTPRET                               #  EXTRAPOLATE LEM AND CSM STATE VECTORS
000119: 32,2047           77634                          RTB                                            #  TO THE PRESENT TIME
000120: 32,2050           21573                                   LOADTIME                              #  LOAD MPAC WITH TIME2,TIME1
000121: 32,2051           34041                          STCALL   TDEC1                                 #  CALCULATE LEM STATE VECTOR
000122: 32,2052           27057                                   LEMPREC
000123: 32,2053           77624                          CALL                                           #  CALL ROUTINE TO CONVERT TO SM COORDS AND
000124: 32,2054           64132                                   SCALEVEC                              #  PROVIDE PROPER SCALING
000125: 32,2055           16201                          STODL    AGSBUFF                               #  (LEMPREC AND CSMPREC LEAVE TDEC1 IN TAT)
000126: 32,2056           00015                                   TAT                                   #  TAT = TIME TO WHICH RATT1 AND VATT1 ARE
000127: 32,2057           34041                          STCALL   TDEC1                                 #  COMPUTED (CSEC SINCE CLOCK START B-28).
000128: 32,2060           27043                                   CSMPREC                               #  CALCULATE CSM STATE VECTOR FOR SAME TIME
000129: 32,2061           77624                          CALL
000130: 32,2062           64132                                   SCALEVEC
000131:                                                                                                 #  Page 208
000132: 32,2063           16207                          STODL    AGSBUFF    +6
000133: 32,2064           00015                                   TAT
000134: 32,2065           56225                          DSU      DDV                                   #  CALCULATE AND STORE THE TIME
000135: 32,2066           02021                                   AGSK
000136: 32,2067           24175                                   TSCALE
000137: 32,2070           02215                          STORE    AGSBUFF    +12D
000138: 32,2071           77776                          EXIT
000139:
000140: 32,2072           34753                          CAF      LAGSLIST
000141: 32,2073           54332                          TS       DNLSTCOD
000142:
000143: 32,2074           32176                          CAF      20SEC                                 #  DELAY FOR 20 SEC WHILE THE AGS
000144: 32,2075           04616                          TC       BANKCALL                              #  DOWNLIST IS TRANSMITTED
000145: 32,2076           01735                          CADR     DELAYJOB
000146:
000147: 32,2077           31324                          CA       AGSWORD
000148: 32,2100           54332                          TS       DNLSTCOD                              #  RETURN TO THE OLD DOWNLIST
000149: 32,2101           34744                          CAF      IMUSEBIT
000150: 32,2102           70074                          MASK     FLAGWRD0                              #  CHECK IMUSE FLAG.
000151: 32,2103           10000                          CCS      A
000152: 32,2104           02122                          TC       AGSEND                                #  IMU IS BEING USED -- DO NOT ZERO
000153: 32,2105           11304        CKSTALL           CCS      IMUCADR                               #  CHECK FOR IMU USAGE WHICH AVOIDS THE
000154: 32,2106           12111                          TCF      +3                                    #  IMUSE BIT:  I.E., IMU COMPENSATION.
000155: 32,2107           12115                          TCF      +6                                    #  FREE.  GO AHEAD WITH THE IMU ZERO.
000156: 32,2110           12111                          TCF      +1
000157: 32,2111           34363                 +3       CAF      TEN                                   #  WAIT .1 SEC AND TRY AGAIN.
000158: 32,2112           04616                          TC       BANKCALL
000159: 32,2113           01735                          CADR     DELAYJOB
000160: 32,2114           12105                          TCF      CKSTALL
000161:
000162: 32,2115           04616                 +6       TC       BANKCALL                              #  IMU IS NOT IN USE
000163: 32,2116           16714                          CADR     IMUZERO                               #  SET IMU ZERO DISCRETE FOR 320 MSECS.
000164: 32,2117           04616                          TC       BANKCALL                              #  WAIT 3 SEC FOR COUNTERS TO INCREMENT
000165: 32,2120           17716                          CADR     IMUSTALL
000166: 32,2121           02122                          TC       AGSEND
000167: 32,2122           05516        AGSEND            TC       DOWNFLAG                              #  ALLOW V37
000168: 32,2123           00054                          ADRES    NODOFLAG
000169:
000170: 32,2124           32173                          CAF      V50N16
000171: 32,2125           04616                          TC       BANKCALL
000172: 32,2126           20342                          CADR     GOMARK3
000173: 32,2127           15472                          TCF      ENDEXT
000174: 32,2130           15472                          TCF      ENDEXT
000175: 32,2131           05472                          TC       ENDEXT
000176:
000177: 32,2132           64375        SCALEVEC          VLOAD    MXV
000178: 32,2133           00025                                   VATT1
000179: 32,2134           01734                                   REFSMMAT
000180: 32,2135           72561                          VXSC     VSL2
000181: 32,2136           24202                                   VSCALE
000182:                                                                                                 #  Page 209
000183: 32,2137           53255                          VAD      VAD                                   #  THIS SECTION ROUNDS THE VECTOR, AND
000184: 32,2140           24204                                   AGSRND1                               #  CORRECTS FOR THE FACT THAT THE AGS
000185: 32,2141           24212                                   AGSRND2                               #  IS A 2'S COMPLEMENT MACHINE WHILE THE
000186: 32,2142           77634                          RTB                                            #  LGC IS A 1'S COMPLEMENT MACHINE.
000187: 32,2143           21772                                   VECSGNAG
000188: 32,2144           24025                          STOVL    VATT1
000189: 32,2145           00017                                   RATT1
000190: 32,2146           74321                          MXV      VXSC
000191: 32,2147           01734                                   REFSMMAT
000192: 32,2150           24200                                   RSCALE
000193: 32,2151           53212                          VSL8     VAD                                   #  AGAIN THIS SECTION ROUNDS.  TWO VECTORS
000194: 32,2152           24204                                   AGSRND1                               #  ARE ADDED TO DEFEAT ALSIGNAG IN THE
000195: 32,2153           47055                          VAD      RTB                                   #  CASE OF A HIGH-ORDER ZERO COUPLED WITH
000196: 32,2154           24212                                   AGSRND2                               #  A LOW ORDER NEGATIVE PART.
000197: 32,2155           21772                                   VECSGNAG
000198: 32,2156           77750                          LXA,1
000199: 32,2157           00024                                   VATT1
000200: 32,2160           72130                          SXA,1    LXA,1
000201: 32,2161           00155                                   MPAC       +1
000202: 32,2162           00026                                   VATT1      +2
000203: 32,2163           72130                          SXA,1    LXA,1
000204: 32,2164           00160                                   MPAC       +4
000205: 32,2165           00030                                   VATT1      +4
000206: 32,2166           43530                          SXA,1    RVQ
000207: 32,2167           00162                                   MPAC       +6
000208:
000209: 32,2170     4753               LAGSLIST          =        ONE
000210: 32,2170           00216        V01N14            VN       0114
000211: 32,2171           14400        V50N00A           VN       5000
000212: 32,2172     6010               V00N25            EQUALS   OCT31
000213: 32,2172           01420        V06N16            VN       0616
000214: 32,2173     4242               V00N34            EQUALS   34DEC
000215: 32,2173           14420        V50N16            VN       5016
000216: 32,2174           03100 00000  TSCALE            2DEC     100        B-10                       #  CSEC TO SEC SCALE FACTOR
000217: 32,2176           03720        20SEC             DEC      2000       B-14
000218: 32,2177           15077 05041  RSCALE            2DEC     3.280839   B-3                        #  METERS TO FEET SCALE FACTOR
000219: 32,2201           24402 25724  VSCALE            2DEC     3.280839   E2         B-9             #  METERS/CS TO FEET/SEC SCALE FACTOR
000220: 32,2203           00000 60000  AGSRND1           2OCT     0000060000
000221: 32,2205           00000 60000                    2OCT     0000060000
000222: 32,2207           00000 60000                    2OCT     0000060000
000223: 32,2211           00000 37777  AGSRND2           2OCT     0000037777
000224: 32,2213           00000 37777                    2OCT     0000037777
000225: 32,2215                        S                                                                #  Page 210
000226: 32,2215           00000 37777                    2OCT     0000037777
000227:
000228: 32,2217  30,2000                                 SBANK=   LOWSUPER                              #  FOR SUBSEQUENT LOW 2CADRS.
000229:

End of include-file AGS_INITIALIZATION.agc.  Parent file is MAIN.agc


