
Source Code


000002:                                                                                                  ## Copyright:   Public domain.
000003:                                                                                                  ## Filename:    ALARM_AND_ABORT.agc
000004:                                                                                                  ## Purpose:     Part of the source code for Luminary 1A build 099.
000005:                                                                                                  ##              It is part of the source code for the Lunar Module's (LM)
000006:                                                                                                  ##              Apollo Guidance Computer (AGC), for Apollo 11.
000007:                                                                                                  ## Assembler:   yaYUL
000008:                                                                                                  ## Contact:     Ron Burkey <info@sandroid.org>.
000009:                                                                                                  ## Website:     www.ibiblio.org/apollo.
000010:                                                                                                  ## Pages:       1381-1385
000011:                                                                                                  ## Mod history: 2009-05-10 SN   (Sergio Navarro).  Started adapting
000012:                                                                                                  ##                              from the Luminary131/ file of the same
000013:                                                                                                  ##                              name, using Luminary099 page images.
000014:                                                                                                  ##              2009-06-05 RSB  Fixed a type.
000015:                                                                                                  ##              2011-01-06 JL   Fixed pseudo-label indentation.
000016:                                                                                                  ##              2016-12-13 RSB  GOTOP00H -> GOTOPOOH
000017:                                                                                                  ##              2016-12-18 RSB  Proofed text comments with octopus/ProoferComments
000018:                                                                                                  ##                              and corrected the errors found.
000019:                                                                                                  ##
000020:                                                                                                  ## This source code has been transcribed or otherwise adapted from
000021:                                                                                                  ## digitized images of a hardcopy from the MIT Museum.  The digitization
000022:                                                                                                  ## was performed by Paul Fjeld, and arranged for by Deborah Douglas of
000023:                                                                                                  ## the Museum.  Many thanks to both.  The images (with suitable reduction
000024:                                                                                                  ## in storage size and consequent reduction in image quality as well) are
000025:                                                                                                  ## available online at www.ibiblio.org/apollo.  If for some reason you
000026:                                                                                                  ## find that the images are illegible, contact me at info@sandroid.org
000027:                                                                                                  ## about getting access to the (much) higher-quality images which Paul
000028:                                                                                                  ## actually created.
000029:                                                                                                  ##
000030:                                                                                                  ## Notations on the hardcopy document read, in part:
000031:                                                                                                  ##
000032:                                                                                                  ##      Assemble revision 001 of AGC program LMY99 by NASA 2021112-61
000033:                                                                                                  ##      16:27 JULY 14, 1969
000034:


000036:                                                                                                  #  THE FOLLOWING SUBROUTINE MAY BE CALLED TO DISPLAY A NON-ABORTIVE ALARM CONDITION.  IT MAY BE CALLED
000037:                                                                                                  #  EITHER IN INTERRUPT OR UNDER EXECUTIVE CONTROL.
000038:
000039:                                                                                                  #  CALLING SEQUENCE IS AS FOLLOWS:
000040:                                                                                                  #                TC      ALARM
000041:                                                                                                  #                OCT     AAANN           ALARM NO. NN IN GENERAL AREA AAA.
000042:                                                                                                  #                                        (RETURNS HERE)
000043:
000044:    5567                                           BLOCK    02
000045:    4000                                           SETLOC   FFTAG7
000046:    4000                                           BANK
000047:
000048:    5567     0375                                  EBANK=   FAILREG
000049:
000050:    5567                                           COUNT*   $$/ALARM
000051:
000052:                                                                                                  #  ALARM TURNS ON THE PROGRAM ALARM LIGHT, BUT DOES NOT DISPLAY.
000053:
000054:    5567           00004        ALARM              INHINT
000055:
000056:    5570           30002                           CA       Q
000057:    5571           55363        ALARM2             TS       ALMCADR
000058:    5572           50002                           INDEX    Q
000059:    5573           30000                           CA       0
000060:    5574           54001        BORTENT            TS       L
000061:
000062:    5575           30006        PRIOENT            CA       BBANK
000063:    5576           00006                 +1        EXTEND
000064:    5577           04007                           ROR      SUPERBNK                              #  ADD SUPER BITS.
000065:    5600           55364                           TS       ALMCADR    +1
000066:
000067:    5601           30002        LARMENT            CA       Q                                     #  STORE RETURN FOR ALARM
000068:    5602           54061                           TS       ITEMP1
000069:
000070:    5603           10375        CHKFAIL1           CCS      FAILREG                               #  IS ANYTHING IN FAILREG
000071:    5604           15607                           TCF      CHKFAIL2                              #  YES TRY NEXT REG
000072:    5605           22375                           LXCH     FAILREG
000073:    5606           15621                           TCF      PROGLARM                              #  TURN ALARM LIGHT ON FOR FIRST ALARM
000074:
000075:    5607           10376        CHKFAIL2           CCS      FAILREG    +1
000076:    5610           15613                           TCF      FAIL3
000077:    5611           22376                           LXCH     FAILREG    +1
000078:    5612           15624                           TCF      MULTEXIT
000079:
000080:    5613           30377        FAIL3              CA       FAILREG    +2
000081:    5614           74733                           MASK     POSMAX
000082:    5615           10000                           CCS      A
000083:    5616           15630                           TCF      MULTFAIL
000084:    5617           22377                           LXCH     FAILREG    +2
000085:    5620           15624                           TCF      MULTEXIT
000086:


000088:
000089:    5621           41036        PROGLARM           CS       DSPTAB     +11D
000090:    5622           75642                           MASK     OCT40400
000091:    5623           27036                           ADS      DSPTAB     +11D
000092:
000093:
000094:    5624           56061        MULTEXIT           XCH      ITEMP1                                #  OBTAIN RETURN ADDRESS IN A
000095:    5625           00003                           RELINT
000096:    5626           50000                           INDEX    A
000097:    5627           00001                           TC       1
000098:
000099:    5630           30001        MULTFAIL           CA       L
000100:    5631           64735                           AD       BIT15
000101:    5632           54377                           TS       FAILREG    +2
000102:
000103:    5633           15624                           TCF      MULTEXIT
000104:
000105:                                                                                                  #  PRIOLARM DISPLAYS V05N09 VIA PRIODSPR WITH 3 RETURNS TO THE USER FROM THE ASTRONAUT AT CALL LOC +1,+2,+3 AND
000106:                                                                                                  #  AN IMMEDIATE RETURN TO THE USER AT CALL LOC +4.  EXAMPLE FOLLOWS,
000107:                                                                                                  #                CAF     OCTXX           ALARM CODE
000108:                                                                                                  #                TC      BANKCALL
000109:                                                                                                  #                CADR    PRIOLARM
000110:                                                                                                  #                ...     ...
000111:                                                                                                  #                ...     ...
000112:                                                                                                  #                ...     ...             ASTRONAUT RETURN
000113:                                                                                                  #                TC      PHASCHNG        IMMEDIATE RETURN TO USER.  RESTART
000114:                                                                                                  #                OCT     X.1             PHASE CHANGE FOR PRIO DISPLAY
000115:
000116: 10,3562                                           BANK     10
000117: 10,2000                                           SETLOC   DISPLAYS
000118: 10,2000                                           BANK
000119:
000120: 10,3562                                           COUNT*   $$/DSPLA
000121: 10,3562           00004        PRIOLARM           INHINT                                         #  * * * KEEP IN DISPLAY ROUTINES BANK
000122: 10,3563           54001                           TS       L                                     #  SAVE ALARM CODE
000123:
000124: 10,3564           30133                           CA       BUF2                                  #  2 CADR OF PRIOLARM USER
000125: 10,3565           55363                           TS       ALMCADR
000126: 10,3566           30134                           CA       BUF2       +1
000127: 10,3567           05576                           TC       PRIOENT    +1                         #  * LEAVE L ALONE
000128: 10,3570           77467        -2SEC              DEC      -200       B-14                       #  *** DONT MOVE
000129: 10,3571           35006                           CAF      V05N09
000130: 10,3572           12504                           TCF      PRIODSPR
000131:
000132:    5634                                           BLOCK    02
000133:    4000                                           SETLOC   FFTAG7
000134:    4000                                           BANK
000135:
000136:    5634                                           COUNT*   $$/ALARM
000137:    5634           00004        BAILOUT            INHINT
000138:    5635           30002                           CA       Q


000140:    5636           55363                           TS       ALMCADR
000141:
000142:    5637           50002                           INDEX    Q
000143:    5640           30000                           CAF      0
000144:    5641           05574                           TC       BORTENT
000145:    5642           40400        OCT40400           OCT      40400
000146:
000147:    5643           00004                           INHINT
000148:    5644           34752        WHIMPER            CA       TWO
000149:    5645           60005                           AD       Z
000150:    5646           54017                           TS       BRUPT
000151:    5647           50017                           RESUME
000152:    5650           04635                           TC       POSTJUMP                              #  RESUME SENDS CONTROL HERE
000153:    5651           12765                           CADR     ENEMA
000154:    5652           00004        POODOO             INHINT
000155:    5653           30002                           CA       Q
000156:    5654           55363        ABORT2             TS       ALMCADR
000157:    5655           50002                           INDEX    Q
000158:    5656           30000                           CAF      0
000159:    5657           05574                           TC       BORTENT
000160:    5660           77770        OCT77770           OCT      77770                                 #  DON'T MOVE
000161:
000162:    5661           34765                           CAF      OCT35                                 #  4.35SPOT FOR GOPOODOO
000163:    5662           54001                           TS       L
000164:    5663           40000                           COM
000165:    5664           52761                           DXCH     -PHASE4
000166:    5665           00004        GOPOODOO           INHINT
000167:    5666           04616                           TC       BANKCALL                              #  RESET STATEFLG, REINTFLG, AND NODOFLAG.
000168:    5667           27755                           CADR     FLAGS
000169:    5670           30103                           CA       FLAGWRD7                              #  IS SERVICER CURRENTLY IN OPERATION?
000170:    5671           74746                           MASK     V37FLBIT
000171:    5672           10000                           CCS      A
000172:    5673           15701                           TCF      STRTIDLE
000173:    5674           04616                           TC       BANKCALL                              #  TERMINATE GRPS 1, 3, 5, AND 6
000174:    5675           12652                           CADR     V37KLEAN
000175:    5676           04616                           TC       BANKCALL                              #  TERMINATE GRPS 2, 4, 1, 3, 5, AND 6
000176:    5677           12643                           CADR     MR.KLEAN                              #        (I.E., GRP 4 LAST)
000177:    5700           15644                           TCF      WHIMPER
000178:    5701           35743        STRTIDLE           CAF      BBSERVDL
000179:    5702           04727                           TC       SUPERSW
000180:    5703           04616                           TC       BANKCALL                              #  PUT SERVICER INTO ITS "GROUND" STATE
000181:    5704           57321                           CADR     SERVIDLE                              #  AND PROCEED TO GOTOPOOH.
000182:    5705           00004        CCSHOLE            INHINT
000183:    5706           30002                           CA       Q
000184:    5707           05654                           TC       ABORT2
000185:    5710           01103        OCT21103           OCT      1103
000186:    5711           00004        CURTAINS           INHINT
000187:    5712           30002                           CA       Q
000188:    5713           05571                           TC       ALARM2
000189:    5714           00217        OCT217             OCT      00217


000191:    5715           01363                           TC       ALMCADR                               #  RETURN TO USER
000192:
000193:    5716           00004        BAILOUT1           INHINT
000194:    5717           53364                           DXCH     ALMCADR
000195:    5720           35742                           CAF      ADR40400
000196:    5721           54061        BOTHABRT           TS       ITEMP1
000197:    5722           50002                           INDEX    Q
000198:    5723           30000                           CAF      0
000199:    5724           54001                           TS       L
000200:    5725           15603                           TCF      CHKFAIL1
000201:    5726           00004        POODOO1            INHINT
000202:    5727           53364                           DXCH     ALMCADR
000203:    5730           35741                           CAF      ADR77770
000204:    5731           15721                           TCF      BOTHABRT
000205:
000206:    5732           00004        ALARM1             INHINT
000207:    5733           53364                           DXCH     ALMCADR
000208:    5734           00004        ALMNCADR           INHINT
000209:    5735           50002                           INDEX    Q
000210:    5736           30000                           CA       0
000211:    5737           54001                           TS       L
000212:    5740           15601                           TCF      LARMENT
000213:
000214:    5741           15660        ADR77770           TCF      OCT77770
000215:    5742           15642        ADR40400           TCF      OCT40400
000216:    5743     5155               DOALARM            EQUALS   ENDOFJOB
000217:    5743  E7,1515                                  EBANK=   DVCNTR
000218:    5743           56067        BBSERVDL           BBCON    SERVIDLE
000219:
000220:                                                                                                  #  CALLING SEQUENCE FOR VARALARM
000221:                                                                                                  #                CAF     (ALARM)
000222:                                                                                                  #                TC      VARALARM
000223:
000224:                                                                                                  #  VARALARM TURNS ON PROGRAM ALARM LIGHT BUT DOES NOT DISPLAY
000225:
000226:    5744           00004        VARALARM           INHINT
000227:
000228:    5745           54001                           TS       L                                     #  SAVE USERS ALARM CODE
000229:
000230:    5746           30002                           CA       Q                                     #  SAVE USERS Q
000231:    5747           55363                           TS       ALMCADR
000232:
000233:    5750           05575                           TC       PRIOENT
000234:    5751           00014        OCT14              OCT      14                                    #  DONT MOVE
000235:
000236:    5752           01363                           TC       ALMCADR                               #  RETURN TO USER
000237:
000238:    5753     5644               ABORT              EQUALS   WHIMPER
000239: 13,3755                                           BANK     13
000240: 13,2000                                           SETLOC   ABTFLGS
000241: 13,2000                                           BANK


000243: 13,3755                                           COUNT*   $$/ALARM
000244:
000245: 13,3755           44747        FLAGS              CS       STATEBIT
000246: 13,3756           70077                           MASK     FLAGWRD3
000247: 13,3757           54077                           TS       FLAGWRD3
000248: 13,3760           44745                           CS       REINTBIT
000249: 13,3761           70106                           MASK     FLGWRD10
000250: 13,3762           54106                           TS       FLGWRD10
000251: 13,3763           44753                           CS       NODOBIT
000252: 13,3764           70076                           MASK     FLAGWRD2
000253: 13,3765           54076                           TS       FLAGWRD2
000254: 13,3766           00002                           TC       Q
000255:

End of include-file ALARM_AND_ABORT.agc.  Parent file is MAIN.agc


