
Source Code
000001:                                                                                                 #  Copyright:     Public domain.
000002:                                                                                                 #  Filename:      ALARM_AND_ABORT.agc
000003:                                                                                                 #  Purpose:       Part of the source code for Luminary 1A build 099.
000004:                                                                                                 #                 It is part of the source code for the Lunar Module's (LM)
000005:                                                                                                 #                 Apollo Guidance Computer (AGC), for Apollo 11.
000006:                                                                                                 #  Assembler:     yaYUL
000007:                                                                                                 #  Contact:       Ron Burkey <info@sandroid.org>.
000008:                                                                                                 #  Website:       www.ibiblio.org/apollo.
000009:                                                                                                 #  Pages: 1381-1385
000010:                                                                                                 #  Mod history:  2009-05-10 SN   (Sergio Navarro).  Started adapting
000011:                                                                                                 #                                 from the Luminary131/ file of the same
000012:                                                                                                 #                                 name, using Luminary099 page images.
000013:                                                                                                 #                 2009-06-05 RSB  Fixed a type.
000014:
000015:                                                                                                 #  This source code has been transcribed or otherwise adapted from
000016:                                                                                                 #  digitized images of a hardcopy from the MIT Museum.  The digitization
000017:                                                                                                 #  was performed by Paul Fjeld, and arranged for by Deborah Douglas of
000018:                                                                                                 #  the Museum.  Many thanks to both.  The images (with suitable reduction
000019:                                                                                                 #  in storage size and consequent reduction in image quality as well) are
000020:                                                                                                 #  available online at www.ibiblio.org/apollo.  If for some reason you
000021:                                                                                                 #  find that the images are illegible, contact me at info@sandroid.org
000022:                                                                                                 #  about getting access to the (much) higher-quality images which Paul
000023:                                                                                                 #  actually created.
000024:
000025:                                                                                                 #  Notations on the hardcopy document read, in part:
000026:
000027:                                                                                                 #         Assemble revision 001 of AGC program LMY99 by NASA 2021112-61
000028:                                                                                                 #         16:27 JULY 14, 1969
000029:
000030:                                                                                                 #  Page 1381
000031:                                                                                                 #  THE FOLLOWING SUBROUTINE MAY BE CALLED TO DISPLAY A NON-ABORTIVE ALARM CONDITION.  IT MAY BE CALLED
000032:                                                                                                 #  EITHER IN INTERRUPT OR UNDER EXECUTIVE CONTROL.
000033:
000034:                                                                                                 #  CALLING SEQUENCE IS AS FOLLOWS:
000035:                                                                                                 #                 TC      ALARM
000036:                                                                                                 #                 OCT     AAANN           # ALARM NO. NN IN GENERAL AREA AAA.
000037:                                                                                                 #                                         # (RETURNS HERE)
000038:
000039:    5567                                          BLOCK    02
000040:    4000                                          SETLOC   FFTAG7
000041:    4000                                          BANK
000042:
000043:    5567     0375                                 EBANK=   FAILREG
000044:
000045:    5567                                          COUNT*   $$/ALARM
000046:
000047:                                                                                                 #  ALARM TURNS ON THE PROGRAM ALARM LIGHT, BUT DOES NOT DISPLAY.
000048:
000049:    5567           00004        ALARM             INHINT
000050:
000051:    5570           30002                          CA       Q
000052:    5571           55363        ALARM2            TS       ALMCADR
000053:    5572           50002                          INDEX    Q
000054:    5573           30000                          CA       0
000055:    5574           54001        BORTENT           TS       L
000056:
000057:    5575           30006        PRIOENT           CA       BBANK
000058:    5576           00006                 +1       EXTEND
000059:    5577           04007                          ROR      SUPERBNK                              #  ADD SUPER BITS.
000060:    5600           55364                          TS       ALMCADR    +1
000061:
000062:    5601           30002        LARMENT           CA       Q                                     #  STORE RETURN FOR ALARM
000063:    5602           54061                          TS       ITEMP1
000064:
000065:    5603           10375        CHKFAIL1          CCS      FAILREG                               #  IS ANYTHING IN FAILREG
000066:    5604           15607                          TCF      CHKFAIL2                              #  YES TRY NEXT REG
000067:    5605           22375                          LXCH     FAILREG
000068:    5606           15621                          TCF      PROGLARM                              #  TURN ALARM LIGHT ON FOR FIRST ALARM
000069:
000070:    5607           10376        CHKFAIL2          CCS      FAILREG    +1
000071:    5610           15613                          TCF      FAIL3
000072:    5611           22376                          LXCH     FAILREG    +1
000073:    5612           15624                          TCF      MULTEXIT
000074:
000075:    5613           30377        FAIL3             CA       FAILREG    +2
000076:    5614           74733                          MASK     POSMAX
000077:    5615           10000                          CCS      A
000078:    5616           15630                          TCF      MULTFAIL
000079:    5617           22377                          LXCH     FAILREG    +2
000080:    5620           15624                          TCF      MULTEXIT
000081:
000082:                                                                                                 #  Page 1382
000083:
000084:    5621           41036        PROGLARM          CS       DSPTAB     +11D
000085:    5622           75642                          MASK     OCT40400
000086:    5623           27036                          ADS      DSPTAB     +11D
000087:
000088:
000089:    5624           56061        MULTEXIT          XCH      ITEMP1                                #  OBTAIN RETURN ADDRESS IN A
000090:    5625           00003                          RELINT
000091:    5626           50000                          INDEX    A
000092:    5627           00001                          TC       1
000093:
000094:    5630           30001        MULTFAIL          CA       L
000095:    5631           64735                          AD       BIT15
000096:    5632           54377                          TS       FAILREG    +2
000097:
000098:    5633           15624                          TCF      MULTEXIT
000099:
000100:                                                                                                 #  PRIOLARM DISPLAYS V05N09 VIA PRIODSPR WITH 3 RETURNS TO THE USER FROM THE ASTRONAUT AT CALL LOC +1,+2,+3 AND
000101:                                                                                                 #  AN IMMEDIATE RETURN TO THE USER AT CALL LOC +4.  EXAMPLE FOLLOWS,
000102:                                                                                                 #                 CAF     OCTXX           # ALARM CODE
000103:                                                                                                 #                 TC      BANKCALL
000104:                                                                                                 #                 CADR    PRIOLARM
000105:                                                                                                 #                 ...     ...
000106:                                                                                                 #                 ...     ...
000107:                                                                                                 #                 ...     ...             # ASTRONAUT RETURN
000108:                                                                                                 #                 TC      PHASCHNG        # IMMEDIATE RETURN TO USER.  RESTART
000109:                                                                                                 #                 OCT     X.1             # PHASE CHANGE FOR PRIO DISPLAY
000110:
000111: 10,3562                                          BANK     10
000112: 10,2000                                          SETLOC   DISPLAYS
000113: 10,2000                                          BANK
000114:
000115: 10,3562                                          COUNT*   $$/DSPLA
000116: 10,3562           00004        PRIOLARM          INHINT                                         #  * * * KEEP IN DISPLAY ROUTINES BANK
000117: 10,3563           54001                          TS       L                                     #  SAVE ALARM CODE
000118:
000119: 10,3564           30133                          CA       BUF2                                  #  2 CADR OF PRIOLARM USER
000120: 10,3565           55363                          TS       ALMCADR
000121: 10,3566           30134                          CA       BUF2       +1
000122: 10,3567           05576                          TC       PRIOENT    +1                         #  * LEAVE L ALONE
000123: 10,3570           77467        -2SEC             DEC      -200       B-14                       #  *** DONT MOVE
000124: 10,3571           35006                          CAF      V05N09
000125: 10,3572           12504                          TCF      PRIODSPR
000126:
000127:    5634                                          BLOCK    02
000128:    4000                                          SETLOC   FFTAG7
000129:    4000                                          BANK
000130:
000131:    5634                                          COUNT*   $$/ALARM
000132:    5634           00004        BAILOUT           INHINT
000133:    5635           30002                          CA       Q
000134:                                                                                                 #  Page 1383
000135:    5636           55363                          TS       ALMCADR
000136:
000137:    5637           50002                          INDEX    Q
000138:    5640           30000                          CAF      0
000139:    5641           05574                          TC       BORTENT
000140:    5642           40400        OCT40400          OCT      40400
000141:
000142:    5643           00004                          INHINT
000143:    5644           34752        WHIMPER           CA       TWO
000144:    5645           60005                          AD       Z
000145:    5646           54017                          TS       BRUPT
000146:    5647           50017                          RESUME
000147:    5650           04635                          TC       POSTJUMP                              #  RESUME SENDS CONTROL HERE
000148:    5651           12765                          CADR     ENEMA
000149:    5652           00004        P00DOO            INHINT
000150:    5653           30002                          CA       Q
000151:    5654           55363        ABORT2            TS       ALMCADR
000152:    5655           50002                          INDEX    Q
000153:    5656           30000                          CAF      0
000154:    5657           05574                          TC       BORTENT
000155:    5660           77770        OCT77770          OCT      77770                                 #  DON'T MOVE
000156:
000157:    5661           34765                          CAF      OCT35                                 #  4.35SPOT FOR GOP00DOO
000158:    5662           54001                          TS       L
000159:    5663           40000                          COM
000160:    5664           52761                          DXCH     -PHASE4
000161:    5665           00004        GOP00DOO          INHINT
000162:    5666           04616                          TC       BANKCALL                              #  RESET STATEFLG, REINTFLG, AND NODOFLAG.
000163:    5667           27755                          CADR     FLAGS
000164:    5670           30103                          CA       FLAGWRD7                              #  IS SERVICER CURRENTLY IN OPERATION?
000165:    5671           74746                          MASK     V37FLBIT
000166:    5672           10000                          CCS      A
000167:    5673           15701                          TCF      STRTIDLE
000168:    5674           04616                          TC       BANKCALL                              #  TERMINATE GRPS 1, 3, 5, AND 6
000169:    5675           12652                          CADR     V37KLEAN
000170:    5676           04616                          TC       BANKCALL                              #  TERMINATE GRPS 2, 4, 1, 3, 5, AND 6
000171:    5677           12643                          CADR     MR.KLEAN                              #         (I.E., GRP 4 LAST)
000172:    5700           15644                          TCF      WHIMPER
000173:    5701           35743        STRTIDLE          CAF      BBSERVDL
000174:    5702           04727                          TC       SUPERSW
000175:    5703           04616                          TC       BANKCALL                              #  PUT SERVICER INTO ITS "GROUND" STATE
000176:    5704           57321                          CADR     SERVIDLE                              #  AND PROCED TO GOTOP00H.
000177:    5705           00004        CCSHOLE           INHINT
000178:    5706           30002                          CA       Q
000179:    5707           05654                          TC       ABORT2
000180:    5710           01103        OCT21103          OCT      1103
000181:    5711           00004        CURTAINS          INHINT
000182:    5712           30002                          CA       Q
000183:    5713           05571                          TC       ALARM2
000184:    5714           00217        OCT217            OCT      00217
000185:                                                                                                 #  Page 1384
000186:    5715           01363                          TC       ALMCADR                               #  RETURN TO USER
000187:
000188:    5716           00004        BAILOUT1          INHINT
000189:    5717           53364                          DXCH     ALMCADR
000190:    5720           35742                          CAF      ADR40400
000191:    5721           54061        BOTHABRT          TS       ITEMP1
000192:    5722           50002                          INDEX    Q
000193:    5723           30000                          CAF      0
000194:    5724           54001                          TS       L
000195:    5725           15603                          TCF      CHKFAIL1
000196:    5726           00004        P00DOO1           INHINT
000197:    5727           53364                          DXCH     ALMCADR
000198:    5730           35741                          CAF      ADR77770
000199:    5731           15721                          TCF      BOTHABRT
000200:
000201:    5732           00004        ALARM1            INHINT
000202:    5733           53364                          DXCH     ALMCADR
000203:    5734           00004        ALMNCADR          INHINT
000204:    5735           50002                          INDEX    Q
000205:    5736           30000                          CA       0
000206:    5737           54001                          TS       L
000207:    5740           15601                          TCF      LARMENT
000208:
000209:    5741           15660        ADR77770          TCF      OCT77770
000210:    5742           15642        ADR40400          TCF      OCT40400
000211:    5743     5155               DOALARM           EQUALS   ENDOFJOB
000212:    5743  E7,1515                                 EBANK=   DVCNTR
000213:    5743           56067        BBSERVDL          BBCON    SERVIDLE
000214:
000215:                                                                                                 #  CALLING SEQUENCE FOR VARALARM
000216:                                                                                                 #                 CAF     (ALARM)
000217:                                                                                                 #                 TC      VARALARM
000218:
000219:                                                                                                 #  VARALARM TURNS ON PROGRAM ALARM LIGHT BUT DOES NOT DISPLAY
000220:
000221:    5744           00004        VARALARM          INHINT
000222:
000223:    5745           54001                          TS       L                                     #  SAVE USER'S ALARM CODE
000224:
000225:    5746           30002                          CA       Q                                     #  SAVE USERS Q
000226:    5747           55363                          TS       ALMCADR
000227:
000228:    5750           05575                          TC       PRIOENT
000229:    5751           00014        OCT14             OCT      14                                    #  DONT MOVE
000230:
000231:    5752           01363                          TC       ALMCADR                               #  RETURN TO USER
000232:
000233:    5753     5644               ABORT             EQUALS   WHIMPER
000234: 13,3755                                          BANK     13
000235: 13,2000                                          SETLOC   ABTFLGS
000236: 13,2000                                          BANK
000237:                                                                                                 #  Page 1385
000238: 13,3755                                          COUNT*   $$/ALARM
000239:
000240: 13,3755           44747        FLAGS             CS       STATEBIT
000241: 13,3756           70077                          MASK     FLAGWRD3
000242: 13,3757           54077                          TS       FLAGWRD3
000243: 13,3760           44745                          CS       REINTBIT
000244: 13,3761           70106                          MASK     FLGWRD10
000245: 13,3762           54106                          TS       FLGWRD10
000246: 13,3763           44753                          CS       NODOBIT
000247: 13,3764           70076                          MASK     FLAGWRD2
000248: 13,3765           54076                          TS       FLAGWRD2
000249: 13,3766           00002                          TC       Q
000250:

End of include-file ALARM_AND_ABORT.agc.  Parent file is MAIN.agc


