
Source Code


000002:                                                                                                  ## Copyright:   Public domain.
000003:                                                                                                  ## Filename:    ALARM_AND_ABORT.agc
000004:                                                                                                  ## Purpose:     Part of the source code for Luminary 1A build 099.
000005:                                                                                                  ##              It is part of the source code for the Lunar Module's (LM)
000006:                                                                                                  ##              Apollo Guidance Computer (AGC), for Apollo 11.
000007:                                                                                                  ## Assembler:   yaYUL
000008:                                                                                                  ## Contact:     Ron Burkey <info@sandroid.org>.
000009:                                                                                                  ## Website:     www.ibiblio.org/apollo.
000010:                                                                                                  ## Pages:       1381-1385
000011:                                                                                                  ## Mod history: 2009-05-10 SN   (Sergio Navarro).  Started adapting
000012:                                                                                                  ##                              from the Luminary131/ file of the same
000013:                                                                                                  ##                              name, using Luminary099 page images.
000014:                                                                                                  ##              2009-06-05 RSB  Fixed a type.
000015:                                                                                                  ##              2011-01-06 JL   Fixed pseudo-label indentation.
000016:                                                                                                  ##              2016-12-13 RSB  GOTOP00H -> GOTOPOOH
000017:                                                                                                  ##              2016-12-18 RSB  Proofed text comments with octopus/ProoferComments
000018:                                                                                                  ##                              and corrected the errors found.
000019:                                                                                                  ##              2021-05-30 ABS  OCT21103 -> OCT1103
000020:                                                                                                  ##
000021:                                                                                                  ## This source code has been transcribed or otherwise adapted from
000022:                                                                                                  ## digitized images of a hardcopy from the MIT Museum.  The digitization
000023:                                                                                                  ## was performed by Paul Fjeld, and arranged for by Deborah Douglas of
000024:                                                                                                  ## the Museum.  Many thanks to both.  The images (with suitable reduction
000025:                                                                                                  ## in storage size and consequent reduction in image quality as well) are
000026:                                                                                                  ## available online at www.ibiblio.org/apollo.  If for some reason you
000027:                                                                                                  ## find that the images are illegible, contact me at info@sandroid.org
000028:                                                                                                  ## about getting access to the (much) higher-quality images which Paul
000029:                                                                                                  ## actually created.
000030:                                                                                                  ##
000031:                                                                                                  ## Notations on the hardcopy document read, in part:
000032:                                                                                                  ##
000033:                                                                                                  ##      Assemble revision 001 of AGC program LMY99 by NASA 2021112-61
000034:                                                                                                  ##      16:27 JULY 14, 1969
000035:


000037:                                                                                                  #  THE FOLLOWING SUBROUTINE MAY BE CALLED TO DISPLAY A NON-ABORTIVE ALARM CONDITION.  IT MAY BE CALLED
000038:                                                                                                  #  EITHER IN INTERRUPT OR UNDER EXECUTIVE CONTROL.
000039:
000040:                                                                                                  #  CALLING SEQUENCE IS AS FOLLOWS:
000041:                                                                                                  #                TC      ALARM
000042:                                                                                                  #                OCT     AAANN           ALARM NO. NN IN GENERAL AREA AAA.
000043:                                                                                                  #                                        (RETURNS HERE)
000044:
000045:    5567                                           BLOCK    02
000046:    4000                                           SETLOC   FFTAG7
000047:    4000                                           BANK
000048:
000049:    5567     0375                                  EBANK=   FAILREG
000050:
000051:    5567                                           COUNT*   $$/ALARM
000052:
000053:                                                                                                  #  ALARM TURNS ON THE PROGRAM ALARM LIGHT, BUT DOES NOT DISPLAY.
000054:
000055:    5567           00004        ALARM              INHINT
000056:
000057:    5570           30002                           CA       Q
000058:    5571           55363        ALARM2             TS       ALMCADR
000059:    5572           50002                           INDEX    Q
000060:    5573           30000                           CA       0
000061:    5574           54001        BORTENT            TS       L
000062:
000063:    5575           30006        PRIOENT            CA       BBANK
000064:    5576           00006                 +1        EXTEND
000065:    5577           04007                           ROR      SUPERBNK                              #  ADD SUPER BITS.
000066:    5600           55364                           TS       ALMCADR    +1
000067:
000068:    5601           30002        LARMENT            CA       Q                                     #  STORE RETURN FOR ALARM
000069:    5602           54061                           TS       ITEMP1
000070:
000071:    5603           10375        CHKFAIL1           CCS      FAILREG                               #  IS ANYTHING IN FAILREG
000072:    5604           15607                           TCF      CHKFAIL2                              #  YES TRY NEXT REG
000073:    5605           22375                           LXCH     FAILREG
000074:    5606           15621                           TCF      PROGLARM                              #  TURN ALARM LIGHT ON FOR FIRST ALARM
000075:
000076:    5607           10376        CHKFAIL2           CCS      FAILREG    +1
000077:    5610           15613                           TCF      FAIL3
000078:    5611           22376                           LXCH     FAILREG    +1
000079:    5612           15624                           TCF      MULTEXIT
000080:
000081:    5613           30377        FAIL3              CA       FAILREG    +2
000082:    5614           74733                           MASK     POSMAX
000083:    5615           10000                           CCS      A
000084:    5616           15630                           TCF      MULTFAIL
000085:    5617           22377                           LXCH     FAILREG    +2
000086:    5620           15624                           TCF      MULTEXIT
000087:


000089:
000090:    5621           41036        PROGLARM           CS       DSPTAB     +11D
000091:    5622           75642                           MASK     OCT40400
000092:    5623           27036                           ADS      DSPTAB     +11D
000093:
000094:
000095:    5624           56061        MULTEXIT           XCH      ITEMP1                                #  OBTAIN RETURN ADDRESS IN A
000096:    5625           00003                           RELINT
000097:    5626           50000                           INDEX    A
000098:    5627           00001                           TC       1
000099:
000100:    5630           30001        MULTFAIL           CA       L
000101:    5631           64735                           AD       BIT15
000102:    5632           54377                           TS       FAILREG    +2
000103:
000104:    5633           15624                           TCF      MULTEXIT
000105:
000106:                                                                                                  #  PRIOLARM DISPLAYS V05N09 VIA PRIODSPR WITH 3 RETURNS TO THE USER FROM THE ASTRONAUT AT CALL LOC +1,+2,+3 AND
000107:                                                                                                  #  AN IMMEDIATE RETURN TO THE USER AT CALL LOC +4.  EXAMPLE FOLLOWS,
000108:                                                                                                  #                CAF     OCTXX           ALARM CODE
000109:                                                                                                  #                TC      BANKCALL
000110:                                                                                                  #                CADR    PRIOLARM
000111:                                                                                                  #                ...     ...
000112:                                                                                                  #                ...     ...
000113:                                                                                                  #                ...     ...             ASTRONAUT RETURN
000114:                                                                                                  #                TC      PHASCHNG        IMMEDIATE RETURN TO USER.  RESTART
000115:                                                                                                  #                OCT     X.1             PHASE CHANGE FOR PRIO DISPLAY
000116:
000117: 10,3562                                           BANK     10
000118: 10,2000                                           SETLOC   DISPLAYS
000119: 10,2000                                           BANK
000120:
000121: 10,3562                                           COUNT*   $$/DSPLA
000122: 10,3562           00004        PRIOLARM           INHINT                                         #  * * * KEEP IN DISPLAY ROUTINES BANK
000123: 10,3563           54001                           TS       L                                     #  SAVE ALARM CODE
000124:
000125: 10,3564           30133                           CA       BUF2                                  #  2 CADR OF PRIOLARM USER
000126: 10,3565           55363                           TS       ALMCADR
000127: 10,3566           30134                           CA       BUF2       +1
000128: 10,3567           05576                           TC       PRIOENT    +1                         #  * LEAVE L ALONE
000129: 10,3570           77467        -2SEC              DEC      -200       B-14                       #  *** DONT MOVE
000130: 10,3571           35006                           CAF      V05N09
000131: 10,3572           12504                           TCF      PRIODSPR
000132:
000133:    5634                                           BLOCK    02
000134:    4000                                           SETLOC   FFTAG7
000135:    4000                                           BANK
000136:
000137:    5634                                           COUNT*   $$/ALARM
000138:    5634           00004        BAILOUT            INHINT
000139:    5635           30002                           CA       Q


000141:    5636           55363                           TS       ALMCADR
000142:
000143:    5637           50002                           INDEX    Q
000144:    5640           30000                           CAF      0
000145:    5641           05574                           TC       BORTENT
000146:    5642           40400        OCT40400           OCT      40400
000147:
000148:    5643           00004                           INHINT
000149:    5644           34752        WHIMPER            CA       TWO
000150:    5645           60005                           AD       Z
000151:    5646           54017                           TS       BRUPT
000152:    5647           50017                           RESUME
000153:    5650           04635                           TC       POSTJUMP                              #  RESUME SENDS CONTROL HERE
000154:    5651           12765                           CADR     ENEMA
000155:    5652           00004        POODOO             INHINT
000156:    5653           30002                           CA       Q
000157:    5654           55363        ABORT2             TS       ALMCADR
000158:    5655           50002                           INDEX    Q
000159:    5656           30000                           CAF      0
000160:    5657           05574                           TC       BORTENT
000161:    5660           77770        OCT77770           OCT      77770                                 #  DON'T MOVE
000162:
000163:    5661           34765                           CAF      OCT35                                 #  4.35SPOT FOR GOPOODOO
000164:    5662           54001                           TS       L
000165:    5663           40000                           COM
000166:    5664           52761                           DXCH     -PHASE4
000167:    5665           00004        GOPOODOO           INHINT
000168:    5666           04616                           TC       BANKCALL                              #  RESET STATEFLG, REINTFLG, AND NODOFLAG.
000169:    5667           27755                           CADR     FLAGS
000170:    5670           30103                           CA       FLAGWRD7                              #  IS SERVICER CURRENTLY IN OPERATION?
000171:    5671           74746                           MASK     V37FLBIT
000172:    5672           10000                           CCS      A
000173:    5673           15701                           TCF      STRTIDLE
000174:    5674           04616                           TC       BANKCALL                              #  TERMINATE GRPS 1, 3, 5, AND 6
000175:    5675           12652                           CADR     V37KLEAN
000176:    5676           04616                           TC       BANKCALL                              #  TERMINATE GRPS 2, 4, 1, 3, 5, AND 6
000177:    5677           12643                           CADR     MR.KLEAN                              #        (I.E., GRP 4 LAST)
000178:    5700           15644                           TCF      WHIMPER
000179:    5701           35743        STRTIDLE           CAF      BBSERVDL
000180:    5702           04727                           TC       SUPERSW
000181:    5703           04616                           TC       BANKCALL                              #  PUT SERVICER INTO ITS "GROUND" STATE
000182:    5704           57321                           CADR     SERVIDLE                              #  AND PROCEED TO GOTOPOOH.
000183:    5705           00004        CCSHOLE            INHINT
000184:    5706           30002                           CA       Q
000185:    5707           05654                           TC       ABORT2
000186:    5710           01103        OCT1103            OCT      1103
000187:    5711           00004        CURTAINS           INHINT
000188:    5712           30002                           CA       Q
000189:    5713           05571                           TC       ALARM2
000190:    5714           00217        OCT217             OCT      00217


000192:    5715           01363                           TC       ALMCADR                               #  RETURN TO USER
000193:
000194:    5716           00004        BAILOUT1           INHINT
000195:    5717           53364                           DXCH     ALMCADR
000196:    5720           35742                           CAF      ADR40400
000197:    5721           54061        BOTHABRT           TS       ITEMP1
000198:    5722           50002                           INDEX    Q
000199:    5723           30000                           CAF      0
000200:    5724           54001                           TS       L
000201:    5725           15603                           TCF      CHKFAIL1
000202:    5726           00004        POODOO1            INHINT
000203:    5727           53364                           DXCH     ALMCADR
000204:    5730           35741                           CAF      ADR77770
000205:    5731           15721                           TCF      BOTHABRT
000206:
000207:    5732           00004        ALARM1             INHINT
000208:    5733           53364                           DXCH     ALMCADR
000209:    5734           00004        ALMNCADR           INHINT
000210:    5735           50002                           INDEX    Q
000211:    5736           30000                           CA       0
000212:    5737           54001                           TS       L
000213:    5740           15601                           TCF      LARMENT
000214:
000215:    5741           15660        ADR77770           TCF      OCT77770
000216:    5742           15642        ADR40400           TCF      OCT40400
000217:    5743     5155               DOALARM            EQUALS   ENDOFJOB
000218:    5743  E7,1515                                  EBANK=   DVCNTR
000219:    5743           56067        BBSERVDL           BBCON    SERVIDLE
000220:
000221:                                                                                                  #  CALLING SEQUENCE FOR VARALARM
000222:                                                                                                  #                CAF     (ALARM)
000223:                                                                                                  #                TC      VARALARM
000224:
000225:                                                                                                  #  VARALARM TURNS ON PROGRAM ALARM LIGHT BUT DOES NOT DISPLAY
000226:
000227:    5744           00004        VARALARM           INHINT
000228:
000229:    5745           54001                           TS       L                                     #  SAVE USERS ALARM CODE
000230:
000231:    5746           30002                           CA       Q                                     #  SAVE USERS Q
000232:    5747           55363                           TS       ALMCADR
000233:
000234:    5750           05575                           TC       PRIOENT
000235:    5751           00014        OCT14              OCT      14                                    #  DONT MOVE
000236:
000237:    5752           01363                           TC       ALMCADR                               #  RETURN TO USER
000238:
000239:    5753     5644               ABORT              EQUALS   WHIMPER
000240: 13,3755                                           BANK     13
000241: 13,2000                                           SETLOC   ABTFLGS
000242: 13,2000                                           BANK


000244: 13,3755                                           COUNT*   $$/ALARM
000245:
000246: 13,3755           44747        FLAGS              CS       STATEBIT
000247: 13,3756           70077                           MASK     FLAGWRD3
000248: 13,3757           54077                           TS       FLAGWRD3
000249: 13,3760           44745                           CS       REINTBIT
000250: 13,3761           70106                           MASK     FLGWRD10
000251: 13,3762           54106                           TS       FLGWRD10
000252: 13,3763           44753                           CS       NODOBIT
000253: 13,3764           70076                           MASK     FLAGWRD2
000254: 13,3765           54076                           TS       FLAGWRD2
000255: 13,3766           00002                           TC       Q
000256:

End of include-file ALARM_AND_ABORT.agc.  Parent file is MAIN.agc


