
Source Code


000002:                                                                                                  #  Copyright:    Public domain.
000003:                                                                                                  #  Filename:     ALARM_AND_ABORT.agc
000004:                                                                                                  #  Purpose:      Part of the source code for Luminary 1A build 099.
000005:                                                                                                  #                It is part of the source code for the Lunar Module's (LM)
000006:                                                                                                  #                Apollo Guidance Computer (AGC), for Apollo 11.
000007:                                                                                                  #  Assembler:    yaYUL
000008:                                                                                                  #  Contact:      Ron Burkey <info@sandroid.org>.
000009:                                                                                                  #  Website:      www.ibiblio.org/apollo.
000010:                                                                                                  #  Pages:        1381-1385
000011:                                                                                                  #  Mod history:  2009-05-10 SN   (Sergio Navarro).  Started adapting
000012:                                                                                                  #                                from the Luminary131/ file of the same
000013:                                                                                                  #                                name, using Luminary099 page images.
000014:                                                                                                  #                2009-06-05 RSB  Fixed a type.
000015:                                                                                                  #                2011-01-06 JL   Fixed pseudo-label indentation.
000016:
000017:                                                                                                  #  This source code has been transcribed or otherwise adapted from
000018:                                                                                                  #  digitized images of a hardcopy from the MIT Museum.  The digitization
000019:                                                                                                  #  was performed by Paul Fjeld, and arranged for by Deborah Douglas of
000020:                                                                                                  #  the Museum.  Many thanks to both.  The images (with suitable reduction
000021:                                                                                                  #  in storage size and consequent reduction in image quality as well) are
000022:                                                                                                  #  available online at www.ibiblio.org/apollo.  If for some reason you
000023:                                                                                                  #  find that the images are illegible, contact me at info@sandroid.org
000024:                                                                                                  #  about getting access to the (much) higher-quality images which Paul
000025:                                                                                                  #  actually created.
000026:
000027:                                                                                                  #  Notations on the hardcopy document read, in part:
000028:
000029:                                                                                                  #        Assemble revision 001 of AGC program LMY99 by NASA 2021112-61
000030:                                                                                                  #        16:27 JULY 14, 1969
000031:
000032:                                                                                                  #  Page 1381
000033:                                                                                                  #  THE FOLLOWING SUBROUTINE MAY BE CALLED TO DISPLAY A NON-ABORTIVE ALARM CONDITION.  IT MAY BE CALLED
000034:                                                                                                  #  EITHER IN INTERRUPT OR UNDER EXECUTIVE CONTROL.
000035:
000036:                                                                                                  #  CALLING SEQUENCE IS AS FOLLOWS:
000037:                                                                                                  #                TC      ALARM
000038:                                                                                                  #                OCT     AAANN           # ALARM NO. NN IN GENERAL AREA AAA.
000039:                                                                                                  #                                        # (RETURNS HERE)
000040:
000041:    5567                                           BLOCK    02
000042:    4000                                           SETLOC   FFTAG7
000043:    4000                                           BANK
000044:
000045:    5567     0375                                  EBANK=   FAILREG
000046:
000047:    5567                                           COUNT*   $$/ALARM
000048:
000049:                                                                                                  #  ALARM TURNS ON THE PROGRAM ALARM LIGHT, BUT DOES NOT DISPLAY.
000050:
000051:    5567           00004        ALARM              INHINT
000052:
000053:    5570           30002                           CA       Q
000054:    5571           55363        ALARM2             TS       ALMCADR
000055:    5572           50002                           INDEX    Q
000056:    5573           30000                           CA       0
000057:    5574           54001        BORTENT            TS       L
000058:
000059:    5575           30006        PRIOENT            CA       BBANK
000060:    5576           00006                 +1        EXTEND
000061:    5577           04007                           ROR      SUPERBNK                              #  ADD SUPER BITS.
000062:    5600           55364                           TS       ALMCADR    +1
000063:
000064:    5601           30002        LARMENT            CA       Q                                     #  STORE RETURN FOR ALARM
000065:    5602           54061                           TS       ITEMP1
000066:
000067:    5603           10375        CHKFAIL1           CCS      FAILREG                               #  IS ANYTHING IN FAILREG
000068:    5604           15607                           TCF      CHKFAIL2                              #  YES TRY NEXT REG
000069:    5605           22375                           LXCH     FAILREG
000070:    5606           15621                           TCF      PROGLARM                              #  TURN ALARM LIGHT ON FOR FIRST ALARM
000071:
000072:    5607           10376        CHKFAIL2           CCS      FAILREG    +1
000073:    5610           15613                           TCF      FAIL3
000074:    5611           22376                           LXCH     FAILREG    +1
000075:    5612           15624                           TCF      MULTEXIT
000076:
000077:    5613           30377        FAIL3              CA       FAILREG    +2
000078:    5614           74733                           MASK     POSMAX
000079:    5615           10000                           CCS      A
000080:    5616           15630                           TCF      MULTFAIL
000081:    5617           22377                           LXCH     FAILREG    +2
000082:    5620           15624                           TCF      MULTEXIT
000083:
000084:                                                                                                  #  Page 1382
000085:
000086:    5621           41036        PROGLARM           CS       DSPTAB     +11D
000087:    5622           75642                           MASK     OCT40400
000088:    5623           27036                           ADS      DSPTAB     +11D
000089:
000090:
000091:    5624           56061        MULTEXIT           XCH      ITEMP1                                #  OBTAIN RETURN ADDRESS IN A
000092:    5625           00003                           RELINT
000093:    5626           50000                           INDEX    A
000094:    5627           00001                           TC       1
000095:
000096:    5630           30001        MULTFAIL           CA       L
000097:    5631           64735                           AD       BIT15
000098:    5632           54377                           TS       FAILREG    +2
000099:
000100:    5633           15624                           TCF      MULTEXIT
000101:
000102:                                                                                                  #  PRIOLARM DISPLAYS V05N09 VIA PRIODSPR WITH 3 RETURNS TO THE USER FROM THE ASTRONAUT AT CALL LOC +1,+2,+3 AND
000103:                                                                                                  #  AN IMMEDIATE RETURN TO THE USER AT CALL LOC +4.  EXAMPLE FOLLOWS,
000104:                                                                                                  #                CAF     OCTXX           # ALARM CODE
000105:                                                                                                  #                TC      BANKCALL
000106:                                                                                                  #                CADR    PRIOLARM
000107:                                                                                                  #                ...     ...
000108:                                                                                                  #                ...     ...
000109:                                                                                                  #                ...     ...             # ASTRONAUT RETURN
000110:                                                                                                  #                TC      PHASCHNG        # IMMEDIATE RETURN TO USER.  RESTART
000111:                                                                                                  #                OCT     X.1             # PHASE CHANGE FOR PRIO DISPLAY
000112:
000113: 10,3562                                           BANK     10
000114: 10,2000                                           SETLOC   DISPLAYS
000115: 10,2000                                           BANK
000116:
000117: 10,3562                                           COUNT*   $$/DSPLA
000118: 10,3562           00004        PRIOLARM           INHINT                                         #  * * * KEEP IN DISPLAY ROUTINES BANK
000119: 10,3563           54001                           TS       L                                     #  SAVE ALARM CODE
000120:
000121: 10,3564           30133                           CA       BUF2                                  #  2 CADR OF PRIOLARM USER
000122: 10,3565           55363                           TS       ALMCADR
000123: 10,3566           30134                           CA       BUF2       +1
000124: 10,3567           05576                           TC       PRIOENT    +1                         #  * LEAVE L ALONE
000125: 10,3570           77467        -2SEC              DEC      -200       B-14                       #  *** DONT MOVE
000126: 10,3571           35006                           CAF      V05N09
000127: 10,3572           12504                           TCF      PRIODSPR
000128:
000129:    5634                                           BLOCK    02
000130:    4000                                           SETLOC   FFTAG7
000131:    4000                                           BANK
000132:
000133:    5634                                           COUNT*   $$/ALARM
000134:    5634           00004        BAILOUT            INHINT
000135:    5635           30002                           CA       Q
000136:                                                                                                  #  Page 1383
000137:    5636           55363                           TS       ALMCADR
000138:
000139:    5637           50002                           INDEX    Q
000140:    5640           30000                           CAF      0
000141:    5641           05574                           TC       BORTENT
000142:    5642           40400        OCT40400           OCT      40400
000143:
000144:    5643           00004                           INHINT
000145:    5644           34752        WHIMPER            CA       TWO
000146:    5645           60005                           AD       Z
000147:    5646           54017                           TS       BRUPT
000148:    5647           50017                           RESUME
000149:    5650           04635                           TC       POSTJUMP                              #  RESUME SENDS CONTROL HERE
000150:    5651           12765                           CADR     ENEMA
000151:    5652           00004        P00DOO             INHINT
000152:    5653           30002                           CA       Q
000153:    5654           55363        ABORT2             TS       ALMCADR
000154:    5655           50002                           INDEX    Q
000155:    5656           30000                           CAF      0
000156:    5657           05574                           TC       BORTENT
000157:    5660           77770        OCT77770           OCT      77770                                 #  DON'T MOVE
000158:
000159:    5661           34765                           CAF      OCT35                                 #  4.35SPOT FOR GOP00DOO
000160:    5662           54001                           TS       L
000161:    5663           40000                           COM
000162:    5664           52761                           DXCH     -PHASE4
000163:    5665           00004        GOP00DOO           INHINT
000164:    5666           04616                           TC       BANKCALL                              #  RESET STATEFLG, REINTFLG, AND NODOFLAG.
000165:    5667           27755                           CADR     FLAGS
000166:    5670           30103                           CA       FLAGWRD7                              #  IS SERVICER CURRENTLY IN OPERATION?
000167:    5671           74746                           MASK     V37FLBIT
000168:    5672           10000                           CCS      A
000169:    5673           15701                           TCF      STRTIDLE
000170:    5674           04616                           TC       BANKCALL                              #  TERMINATE GRPS 1, 3, 5, AND 6
000171:    5675           12652                           CADR     V37KLEAN
000172:    5676           04616                           TC       BANKCALL                              #  TERMINATE GRPS 2, 4, 1, 3, 5, AND 6
000173:    5677           12643                           CADR     MR.KLEAN                              #        (I.E., GRP 4 LAST)
000174:    5700           15644                           TCF      WHIMPER
000175:    5701           35743        STRTIDLE           CAF      BBSERVDL
000176:    5702           04727                           TC       SUPERSW
000177:    5703           04616                           TC       BANKCALL                              #  PUT SERVICER INTO ITS "GROUND" STATE
000178:    5704           57321                           CADR     SERVIDLE                              #  AND PROCED TO GOTOP00H.
000179:    5705           00004        CCSHOLE            INHINT
000180:    5706           30002                           CA       Q
000181:    5707           05654                           TC       ABORT2
000182:    5710           01103        OCT21103           OCT      1103
000183:    5711           00004        CURTAINS           INHINT
000184:    5712           30002                           CA       Q
000185:    5713           05571                           TC       ALARM2
000186:    5714           00217        OCT217             OCT      00217
000187:                                                                                                  #  Page 1384
000188:    5715           01363                           TC       ALMCADR                               #  RETURN TO USER
000189:
000190:    5716           00004        BAILOUT1           INHINT
000191:    5717           53364                           DXCH     ALMCADR
000192:    5720           35742                           CAF      ADR40400
000193:    5721           54061        BOTHABRT           TS       ITEMP1
000194:    5722           50002                           INDEX    Q
000195:    5723           30000                           CAF      0
000196:    5724           54001                           TS       L
000197:    5725           15603                           TCF      CHKFAIL1
000198:    5726           00004        P00DOO1            INHINT
000199:    5727           53364                           DXCH     ALMCADR
000200:    5730           35741                           CAF      ADR77770
000201:    5731           15721                           TCF      BOTHABRT
000202:
000203:    5732           00004        ALARM1             INHINT
000204:    5733           53364                           DXCH     ALMCADR
000205:    5734           00004        ALMNCADR           INHINT
000206:    5735           50002                           INDEX    Q
000207:    5736           30000                           CA       0
000208:    5737           54001                           TS       L
000209:    5740           15601                           TCF      LARMENT
000210:
000211:    5741           15660        ADR77770           TCF      OCT77770
000212:    5742           15642        ADR40400           TCF      OCT40400
000213:    5743     5155               DOALARM            EQUALS   ENDOFJOB
000214:    5743  E7,1515                                  EBANK=   DVCNTR
000215:    5743           56067        BBSERVDL           BBCON    SERVIDLE
000216:
000217:                                                                                                  #  CALLING SEQUENCE FOR VARALARM
000218:                                                                                                  #                CAF     (ALARM)
000219:                                                                                                  #                TC      VARALARM
000220:
000221:                                                                                                  #  VARALARM TURNS ON PROGRAM ALARM LIGHT BUT DOES NOT DISPLAY
000222:
000223:    5744           00004        VARALARM           INHINT
000224:
000225:    5745           54001                           TS       L                                     #  SAVE USER'S ALARM CODE
000226:
000227:    5746           30002                           CA       Q                                     #  SAVE USERS Q
000228:    5747           55363                           TS       ALMCADR
000229:
000230:    5750           05575                           TC       PRIOENT
000231:    5751           00014        OCT14              OCT      14                                    #  DONT MOVE
000232:
000233:    5752           01363                           TC       ALMCADR                               #  RETURN TO USER
000234:
000235:    5753     5644               ABORT              EQUALS   WHIMPER
000236: 13,3755                                           BANK     13
000237: 13,2000                                           SETLOC   ABTFLGS
000238: 13,2000                                           BANK
000239:                                                                                                  #  Page 1385
000240: 13,3755                                           COUNT*   $$/ALARM
000241:
000242: 13,3755           44747        FLAGS              CS       STATEBIT
000243: 13,3756           70077                           MASK     FLAGWRD3
000244: 13,3757           54077                           TS       FLAGWRD3
000245: 13,3760           44745                           CS       REINTBIT
000246: 13,3761           70106                           MASK     FLGWRD10
000247: 13,3762           54106                           TS       FLGWRD10
000248: 13,3763           44753                           CS       NODOBIT
000249: 13,3764           70076                           MASK     FLAGWRD2
000250: 13,3765           54076                           TS       FLAGWRD2
000251: 13,3766           00002                           TC       Q
000252:

End of include-file ALARM_AND_ABORT.agc.  Parent file is MAIN.agc


