
Source Code


000002:                                                                                                  ## Copyright:   Public domain.
000003:                                                                                                  ## Filename:    AOTMARK.agc
000004:                                                                                                  ## Purpose:     Part of the source code for Luminary 1A build 099.
000005:                                                                                                  ##              It is part of the source code for the Lunar Module's (LM)
000006:                                                                                                  ##              Apollo Guidance Computer (AGC), for Apollo 11.
000007:                                                                                                  ## Assembler:   yaYUL
000008:                                                                                                  ## Contact:     Ron Burkey <info@sandroid.org>.
000009:                                                                                                  ## Website:     www.ibiblio.org/apollo.
000010:                                                                                                  ## Pages:       244-261
000011:                                                                                                  ## Mod history: 2009-05-10 SN   (Sergio Navarro).  Started adapting
000012:                                                                                                  ##                              from the Luminary131/ file of the same
000013:                                                                                                  ##                              name, using Luminary099 page images.
000014:                                                                                                  ##              2016-12-13 RSB  GOTOP00H -> GOTOPOOH
000015:                                                                                                  ##              2016-12-13 RSB  Proofed text comments with octopus/ProoferComments
000016:                                                                                                  ##                              and corrected the errors found.
000017:                                                                                                  ##
000018:                                                                                                  ## This source code has been transcribed or otherwise adapted from
000019:                                                                                                  ## digitized images of a hardcopy from the MIT Museum.  The digitization
000020:                                                                                                  ## was performed by Paul Fjeld, and arranged for by Deborah Douglas of
000021:                                                                                                  ## the Museum.  Many thanks to both.  The images (with suitable reduction
000022:                                                                                                  ## in storage size and consequent reduction in image quality as well) are
000023:                                                                                                  ## available online at www.ibiblio.org/apollo.  If for some reason you
000024:                                                                                                  ## find that the images are illegible, contact me at info@sandroid.org
000025:                                                                                                  ## about getting access to the (much) higher-quality images which Paul
000026:                                                                                                  ## actually created.
000027:                                                                                                  ##
000028:                                                                                                  ## Notations on the hardcopy document read, in part:
000029:                                                                                                  ##
000030:                                                                                                  ##      Assemble revision 001 of AGC program LMY99 by NASA 2021112-61
000031:                                                                                                  ##      16:27 JULY 14, 1969
000032:


000034: 12,2000                                           BANK     12
000035: 07,2000                                           SETLOC   AOTMARK1
000036: 07,2000                                           BANK
000037:
000038: 07,2000  E7,1551                                  EBANK=   XYMARK
000039: 07,2000                                           COUNT*   $$/MARK
000040:
000041: 07,2000           00004        AOTMARK            INHINT
000042: 07,2001           11312                           CCS      MARKSTAT                              #  SEE IF AOTMARK BUSY
000043: 07,2002           02004                           TC       +2                                    #  MARK SYSTEM BUSY - DO ALARM
000044: 07,2003           02006                           TC       EXTVBCHK
000045: 07,2004           05652                           TC       POODOO
000046: 07,2005           00105                           OCT      00105
000047:
000048: 07,2006           36242        EXTVBCHK           CAF      SIX                                   #  SEE IF EXT. VERB WORKING
000049: 07,2007           71044                           MASK     EXTVBACT
000050: 07,2010           10000                           CCS      A
000051: 07,2011           12044                           TCF      MKABORT                               #  YES - ABORT
000052:
000053: 07,2012           34752                           CAF      BIT2                                  #  NO - DISALLOW SOME EXTENDED VERB ACTION
000054: 07,2013           27044                           ADS      EXTVBACT                              #  BIT2 RESET IN ENDMARK
000055: 07,2014           10400        MKVAC              CCS      VAC1USE                               #  LOOK FOR A VAC AREA - DO ABORT IF
000056: 07,2015           12031                           TCF      MKVACFND                              #  NONE AVAILABLE
000057: 07,2016           10454                           CCS      VAC2USE
000058: 07,2017           12031                           TCF      MKVACFND
000059: 07,2020           10530                           CCS      VAC3USE
000060: 07,2021           12031                           TCF      MKVACFND
000061: 07,2022           10604                           CCS      VAC4USE
000062: 07,2023           12031                           TCF      MKVACFND
000063: 07,2024           10660                           CCS      VAC5USE
000064: 07,2025           12031                           TCF      MKVACFND
000065: 07,2026           52134                           DXCH     BUF2
000066: 07,2027           05716                           TC       BAILOUT1                              #  ALL VAC AREAS OCCUPIED - ABORT.
000067: 07,2030           01207                           OCT      01207
000068:
000069: 07,2031           64752        MKVACFND           AD       TWO
000070: 07,2032           55312                           TS       MARKSTAT                              #  STORE VAC ADR IN LOW 9 OF MARKSTAT
000071:
000072: 07,2033           34755                           CAF      ZERO
000073: 07,2034           51312                           INDEX    MARKSTAT
000074: 07,2035           53777                           TS       0          -1                         #  ZERO IN VACUSE REG TO SHOW VAC OCCUPIED
000075:
000076: 07,2036           35025                           CAF      PRIO15
000077: 07,2037           05105                           TC       FINDVAC                               #  SET UP JOB FOR GETDAT
000078: 07,2040  E7,1551                                  EBANK=   XYMARK
000079: 07,2040           02063 16067                     2CADR    GETDAT
000080:
000081: 07,2042           00003                           RELINT
000082: 07,2043           14631                           TCF      SWRETURN


000084: 07,2044           52134        MKABORT            DXCH     BUF2
000085: 07,2045           05716                           TC       BAILOUT1                              #  CONFLICT WITH EXTENDED VERB
000086: 07,2046           01211                           OCT      01211
000087:
000088: 07,2047           34755        MKRELEAS           CAF      ZERO
000089: 07,2050           57312                           XCH      MARKSTAT                              #  SET MARKSTAT TO ZERO
000090: 07,2051           75004                           MASK     LOW9                                  #  PICK UP VAC AREA AOR
000091: 07,2052           10000                           CCS      A
000092: 07,2053           50000                           INDEX    A
000093: 07,2054           54000                           TS       0                                     #  SHOW MKVAC AREA AVAILABLE
000094: 07,2055           34753                           CAF      ONE
000095: 07,2056           04674                           TC       IBNKCALL
000096: 07,2057           17665                           CADR     GOODEND                               #  GO WAKE UP CALLING JOB
000097:


000099: 07,2060           34755        KILLAOT            CAF      ZERO
000100: 07,2061           55044                           TS       EXTVBACT                              #  TERMINATE AOTMARK - ALLOW EXT VERB
000101: 07,2062           06001                           TC       GOTOPOOH
000102: 07,2063           41312        GETDAT             CS       MARKSTAT                              #  SET BIT12 TO DISCOURAGE MARKRUPT
000103: 07,2064           74740                           MASK     BIT12                                 #        BIT12 RESET AT GETMARK
000104: 07,2065           27312                           ADS      MARKSTAT
000105:
000106: 07,2066           32330                           CAF      V01N71                                #  DISPLAY DETENT AND STAR CODE
000107: 07,2067           04616                           TC       BANKCALL
000108: 07,2070           20334                           CADR     GOMARKF
000109:
000110: 07,2071           12060                           TCF      KILLAOT                               #  V34 - DOES GOTOPOOH
000111: 07,2072           12074                           TCF      DODAT                                 #  V33 - PROCEED - USE THIS STAR FOR MARKS
000112: 07,2073           12063        ENTERDAT           TCF      GETDAT                                #  ENTER - REDISPLAY STAR CODE
000113:
000114: 07,2074           37744        DODAT              CAF      HIGH9                                 #  PICK DETENT CODE FROM BITS7-9 OF AOTCODE
000115: 07,2075           70735                           MASK     AOTCODE                               #  AND SEE IF CODE 1 TO 6
000116: 07,2076           00006                           EXTEND
000117: 07,2077           74743                           MP       BIT9
000118: 07,2100           55551                           TS       XYMARK                                #  STORE DETENT
000119:
000120: 07,2101           00006                           EXTEND
000121: 07,2102           62063                           BZMF     GETDAT                                #  COAS CALIBRATION CODE - NO GOOD HERE
000122:
000123: 07,2103           65660                           AD       NEG7                                  #  SEE IF DETENT 7 FOR COAS
000124: 07,2104           00006                           EXTEND
000125: 07,2105           12107                           BZF      CODE7
000126:
000127: 07,2106           12123                           TCF      CODE1TO6
000128:
000129: 07,2107           32331        CODE7              CAF      V06N87*                               #  CODE 7, COAS SIGHTING, GET OPTIC AXIS
000130: 07,2110           04616                           TC       BANKCALL                              #  AZ AND EL OF SIGHTING DEVICE FROM ASTRO
000131: 07,2111           20334                           CADR     GOMARKF
000132:
000133: 07,2112           12060                           TCF      KILLAOT                               #  V34 - DOES GOTOPOOH
000134: 07,2113           12115                           TCF      +2                                    #  PROCEED
000135: 07,2114           12107                           TCF      CODE7                                 #  ON ENTER, RECYCLE
000136: 07,2115           00006                           EXTEND
000137: 07,2116           31350                           DCA      AZ                                    #  PICK UP AZ AND EL IN SP 25 COMP
000138: 07,2117           50120                           INDEX    FIXLOC
000139: 07,2120           52011                           DXCH     8D                                    #  STORE IN 8D AND 9D OF LOCAL VAC
000140: 07,2121           34755                           CAF      ZERO                                  #  BACKUP SYSTEM TO BE USED
000141: 07,2122           12137                           TCF      COASCODE                              #  ZERO APPARENT ROTATION
000142:
000143: 07,2123           51551        CODE1TO6           INDEX    XYMARK                                #  INDEX AOT POSITION BY DET CODE
000144: 07,2124           31411                           CA       AOTEL      -1
000145: 07,2125           50120                           INDEX    FIXLOC
000146: 07,2126           54011                           TS       9D                                    #  STORE ELEVATION IN VAC+9D
000147:
000148: 07,2127           51551                           INDEX    XYMARK                                #  INDEX DET CODE 1,2 OR 3


000150: 07,2130           31403                           CA       AOTAZ      -1
000151: 07,2131           50120                           INDEX    FIXLOC
000152: 07,2132           54010                           TS       8D                                    #  STORE AZIMUTH IN VAC +8D
000153:
000154: 07,2133           31405                           CA       AOTAZ      +1                         #  COMPENSATION FOR APPARENT ROTATION OF
000155: 07,2134           00006                           EXTEND                                         #  AOT FIELD OF VIEW IN LEFT AND RIGTHT
000156: 07,2135           50120                           INDEX    FIXLOC                                #  DETENTS IS STORED IN VAC +10D IN SP
000157: 07,2136           20010                           MSU      8D                                    #  PRECISION ONES COMPLEMENT
000158: 07,2137           50120        COASCODE           INDEX    FIXLOC
000159: 07,2140           54012                           TS       10D                                   #  ROT ANGLE
000160:
000161: 07,2141           06037                           TC       INTPRET                               #  COMPUTE X AND Y PLANE VECTORS
000162:


000164:                                                                                                  #  THE OPTAXIS SUBROUTINE COMPUTES THE X AND Y MARK PLANE VECS AND
000165:                                                                                                  #  AND ROTATES THEM THRU THE APPARENT FIELD OF VIEW ROTATION UNIQUE TO AOT
000166:                                                                                                  #  OPTAXIS USES OANB TO COMPUTE THE OPTIC AXIS
000167:
000168:                                                                                                  #        INPUT - AZIMUTH ANGLE IN SINGLE PREC AT CDU SCALE IN 8D OF JOB VAC
000169:                                                                                                  #                        ELEVATION ANGLE IN SINGLE PREC AT CDU SCALE IN 9D OF JOB VAC
000170:                                                                                                  #                        ROTATION ANGLE IN SINGLE PREC IS COMP SCALED BY PI IN 10D OF VAC
000171:
000172:                                                                                                  #        OUTPUT -        OPTIC AXIS VEC IN NG COORDS IN SCAXIS
000173:                                                                                                  #                        X-MARK PLANE 1/4VEC IN NB COORDS AT 18D OF JOB VAC
000174:                                                                                                  #                        Y-MARK PLANE 1/4VEC IN NB COORDS AT 12D OF JOB VAC
000175:
000176: 07,2142           77624        OPTAXIS            CALL                                           #  GO COMPUTE OA AND X AND Y PLANE VECS
000177: 07,2143           10536                                    OANB
000178: 07,2144           70535                           SLOAD    SR1                                   #  LOAD APP ROTATION IN ONES COMP
000179: 07,2145           00013                                    10D                                   #  RESCALE BY 2PI
000180: 07,2146           73406                           PUSH     SIN                                   #  1/2SIN(ROT) 0-1
000181: 07,2147           71525                           PDDL     COS
000182: 07,2150           74206                           PUSH     VXSC                                  #  1/2COS(ROT) 2-3
000183: 07,2151           00023                                    18D
000184: 07,2152           74325                           PDDL     VXSC                                  #  1/4COS(ROT)UYP 4-9
000185: 07,2153           00001                                    0
000186: 07,2154           00031                                    24D                                   #  1/4SIN(ROT)UXP
000187: 07,2155           45445                           BVSU     STADR                                 #  UP 4-9
000188: 07,2156           63762                           STODL    12D                                   #  YPNB=1/4(COS(ROT)UYP-SIN(ROT)UXP)
000189: 07,2157           65361                           VXSC     PDDL                                  #  UP 2-3 UP 0-1 FOR EXCHANGE
000190: 07,2160           00031                                    24D                                   #  1/4COS(ROT)UXP        PUSH 0-5
000191: 07,2161           53361                           VXSC     VAD                                   #  1/4SIN(ROT)UYP
000192: 07,2162           00023                                    18D                                   #  UP 0-5
000193: 07,2163           77626                           STADR
000194: 07,2164           53754                           STOVL    18D                                   #  XPNB=1/4(COS(ROT)UXP+SIN(ROT)UYP)
000195: 07,2165           24007                                    LO6ZEROS                              #  INITIALIZE AVE STAR VEC ACCUMULATOR
000196: 07,2166           02715                           STORE    STARAD     +6
000197: 07,2167           77776                           EXIT
000198: 07,2170           12202                           TCF      GETMKS
000199:


000201:                                                                                                  #  THE OANB SUBROUTINE COMPUTES THE OPTIC AXIS OF THE SIGHTING INSTRUMENT
000202:                                                                                                  #  FROM AZIMUTH AND ELEVATION INPUT FROM THE ASTRONAUT.
000203:
000204:                                                                                                  #        INPUT - AZIMUTH ANGLE IN SINGLE PREC 2S COMP IN 8D OF JOB VAC
000205:                                                                                                  #                        ELEVATION ANGLE IN SINGLE PREC 2S COMP IN 9D OF VAC
000206:
000207:                                                                                                  #        OUTPUT -        OPTIC AXIS IN NB COORDS. IN SCAXIS
000208:                                                                                                  #                        X-PLANE 1/2VEC IN NB COORDS AT 24D OF VAC
000209:                                                                                                  #                        Y-PLANE 1/2VEC IN NB COORDS AT 18D OF VAC
000210:
000211: 05,3402                                           BANK     05
000212: 04,2000                                           SETLOC   AOTMARK2
000213: 04,2000                                           BANK
000214:
000215: 04,2536                                           COUNT*   $$/MARK
000216:
000217: 04,2536           44001        OANB               SETPD    STQ
000218: 04,2537           00001                                    0
000219: 04,2540           02736                                    GCTR                                  #  STORE RETURN
000220: 04,2541           47135                           SLOAD    RTB
000221: 04,2542           00012                                    9D                                    #  PICK UP SP ELV
000222: 04,2543           21576                                    CDULOGIC
000223: 04,2544           71406                           PUSH     COS
000224: 04,2545           73525                           PDDL     SIN                                   #  1/2COS(ELV)   PD 0-1
000225: 04,2546           77626                           STADR
000226: 04,2547           60012                           STODL    SCAXIS                                #  OAX=1/2SIN(ELV)
000227: 04,2550           00011                                    8D                                    #  PICK UP AZ SP
000228: 04,2551           77634                           RTB
000229: 04,2552           21576                                    CDULOGIC
000230: 04,2553           71406                           PUSH     COS
000231: 04,2554           00025                           STORE    20D                                   #  STORE UYP(Y)  20-21
000232: 04,2555           73525                           PDDL     SIN                                   #  1/2COS(AZ)    PD 2-3
000233: 04,2556           57406                           PUSH     DCOMP                                 #  PUSH 1/2S IN (AZ)     4-5
000234: 04,2557           14027                           STODL    22D                                   #  STORE UYP(Z)  22-23
000235: 04,2560           24007                                    LO6ZEROS
000236: 04,2561           14023                           STODL    18D                                   #  STORE UYP(X)  18-19   UP 4-5
000237: 04,2562           72405                           DMP      SL1
000238: 04,2563           00001                                    0
000239: 04,2564           17767                           STODL    SCAXIS     +2                         #  OAY=1/2COS(ELV)SIN(AZ)
000240: 04,2565           72405                           DMP      SL1                                   #  UP    2-3
000241: 04,2566           77626                           STADR                                          #  UP    0-1
000242: 04,2567           50006                           STOVL    SCAXIS     +4                         #  OAZ=1/2COS(ELV)COS(AZ)
000243: 04,2570           00023                                    18D                                   #  LOAD UYP VEC
000244: 04,2571           53435                           VXV      UNIT
000245: 04,2572           03765                                    SCAXIS                                #  UXP VEC=UYP X OA
000246: 04,2573           00031                           STORE    24D                                   #  STORE UXP
000247: 04,2574           77650                           GOTO
000248: 04,2575           02736                                    GCTR


000250:                                                                                                  #  SURFSTAR COMPUTES A STAR VECTOR IN SM COORDINATES FOR LUNAR
000251:                                                                                                  #  SURFACE ALIGNMENT AND EXITS TO AVEIT TO AVERAGE STAR VECTORS.
000252:                                                                                                  #
000253:                                                                                                  #        GIVEN   X-MARK PLANE 1/4 VEC IN NB AT 18D OF LOCAL VAC
000254:                                                                                                  #                Y-MARK PLANE 1/4 VEC IN NB AT 12D OF LOCAL VAC
000255:                                                                                                  #                CURSOR SP 2COMP AT POSITION 1 OF INDEXED MARKVAC
000256:                                                                                                  #                SPIRAL SP 2COMP AT POSITION 3 OF INDEXED MARKVAC
000257:                                                                                                  #                CDUY,Z,X AT POSITIONS 0,2,4 OF INDEXED MARKVAC
000258:
000259: 15,2000                                           BANK     15
000260: 15,2000                                           SETLOC   P50S
000261: 15,2000                                           BANK
000262: 15,2000                                           COUNT*   $$/R59
000263:
000264: 15,2000           77773        SURFSTAR           VLOAD*
000265: 15,2001           00001                                    0,1                                   #  PUT X-MARK CDUS IN CDUSPOT FOR TRG*NBSM
000266: 15,2002           00767                           STORE    CDUSPOT
000267: 15,2003           47133                           SLOAD*   RTB
000268: 15,2004           00002                                    1,1                                   #  PICK UP YROT
000269: 15,2005           21576                                    CDULOGIC
000270: 15,2006           00031                           STORE    24D                                   #  STORE CURSOR FOR SPIRAL COMP (REVS)
000271: 15,2007           77654                           BZE
000272: 15,2010           16171                                    YZCHK                                 #  IF YROT ZERO - SEE IF SROT ZERO
000273: 15,2011           71406        JUSTZY             PUSH     COS
000274: 15,2012           73525                           PDDL     SIN                                   #  1/2COS(YROT)  0-1
000275: 15,2013           65361                           VXSC     PDDL                                  #  UP 0-1        1/8SIN(YROT)UXP 0-5
000276: 15,2014           00023                                    18D
000277: 15,2015           52361                           VXSC     VSU                                   #  UP    0-5
000278: 15,2016           00015                                    12D                                   #  UYP
000279: 15,2017           47256                           UNIT     VXV
000280: 15,2020           03765                                    SCAXIS
000281: 15,2021           41456                           UNIT     PUSH
000282: 15,2022           47133                           SLOAD*   RTB
000283: 15,2023           00004                                    3,1                                   #  PICK UP SPIRAL
000284: 15,2024           21576                                    CDULOGIC
000285: 15,2025           00033                           STORE    26D                                   #  STORE SPIRAL (REVS)
000286: 15,2026           43225                           DSU      DAD
000287: 15,2027           00031                                    24D
000288: 15,2030           32047                                    ABOUTONE
000289: 15,2031           77605                           DMP
000290: 15,2032           32466                                    DP1/12
000291: 15,2033           00033                           STORE    26D                                   #  SEP=(360 + SPIRAL -CURSOR)/12
000292: 15,2034           74356                           SIN      VXSC                                  #  UP    0-5
000293: 15,2035           65372                           VSL1     PDDL                                  #  1/2SIN(SEP)(UPP X OA) 0-5
000294: 15,2036           00033                                    26D
000295: 15,2037           74346                           COS      VXSC
000296: 15,2040           03765                                    SCAXIS
000297: 15,2041           53372                           VSL1     VAD                                   #  UP    0-5
000298: 15,2042           45056        JUSTOA             UNIT     CALL
000299: 15,2043           47664                                    TRG*NBSM
000300: 15,2044           34031                           STCALL   24D                                   #  STAR VEC IN SM
000301: 15,2045           16276                                    AVEIT                                 #  GO AVERAGE


000303: 15,2046           37777 37775  ABOUTONE           2DEC     .99999999
000304:
000305: 15,2050  15,2465               DP1/12             EQUALS   DEG30                                 #  .08333333
000306: 07,2171                                           BANK     7
000307: 07,2000                                           SETLOC   AOTMARK1
000308: 07,2000                                           BANK
000309: 07,2171                                           COUNT*   $$/MARK
000310: 07,2171           53133        YZCHK              SLOAD*   BZE                                   #  YROT ZERO AND IF SROT ZERO FORCE STAR
000311: 07,2172           00004                                    3,1                                   #  ALONG OPTIC AXIS
000312: 07,2173           16177                                    YSZERO
000313: 07,2174           52145                           DLOAD    GOTO
000314: 07,2175           00031                                    24D
000315: 07,2176           32011                                    JUSTZY                                #  SROT NOT ZERO - CONTINUE NORMALLY
000316: 07,2177           52175        YSZERO             VLOAD    GOTO
000317: 07,2200           03765                                    SCAXIS
000318: 07,2201           32042                                    JUSTOA
000319:


000321:                                                                                                  #  THE GETMKS ROUTINE INITIALIZES THE SIGHTING MARK PROCEDURE
000322:
000323: 07,2202           34755        GETMKS             CAF      ZERO                                  #  INITIALIZE MARK ID REGISTER AND MARK CNT
000324: 07,2203           55551                           TS       XYMARK
000325: 07,2204           55550                           TS       MARKCNTR
000326: 07,2205           35004                           CAF      LOW9                                  #  ZERO BITS10 TO 15 RETAINING MKVAC ADR
000327: 07,2206           71312                           MASK     MARKSTAT
000328: 07,2207           55312                           TS       MARKSTAT
000329: 07,2210           32621                           CAF      MKVB54*                               #  DISPLAY VB54 INITIALLY
000330: 07,2211           04616        PASTIT             TC       BANKCALL
000331: 07,2212           20345                           CADR     GOMARK4
000332:
000333: 07,2213           12060                           TCF      KILLAOT                               #  V34 - DOES GOTOPOOH
000334: 07,2214           12216                           TCF      MARKCHEX                              #  VB33 - PROCEED, GOT MARKS, COMPUTE LOS
000335: 07,2215           12063                           TCF      GETDAT                                #  ENTER - RECYCLE TO V01N71
000336:
000337: 07,2216           41312        MARKCHEX           CS       MARKSTAT                              #  SET BIT12 TO DISCOURAGE MARKRUPT
000338: 07,2217           74740                           MASK     BIT12
000339: 07,2220           27312                           ADS      MARKSTAT
000340: 07,2221           75004                           MASK     LOW9
000341: 07,2222           55551                           TS       XYMARK                                #  JAM MARK VAC ADR IN XYMARK FOR AVESTAR
000342: 07,2223           34755                           CAF      ZERO
000343: 07,2224           55552                           TS       MKDEX                                 #  SET MKDEX ZERO FOR LOS VEC CNTR
000344: 07,2225           31312                           CA       MARKSTAT
000345: 07,2226           75015                           MASK     PRIO3                                 #  SEE IF LAST MK PART COMPLETE
000346: 07,2227           54001                           TS       L
000347: 07,2230           35015                           CAF      PRIO3                                 #  BITS10 AND 11
000348: 07,2231           00006                           EXTEND
000349: 07,2232           06001                           RXOR     LCHAN
000350: 07,2233           00006                           EXTEND
000351: 07,2234           12241                           BZF      AVESTAR                               #  LAST PAIR COMPLETE - GO COMPUTE LOS
000352: 07,2235           11550        CNTCHK             CCS      MARKCNTR                              #  NO PAIR SHOWING - SEE IF PAIR IN HOLD
000353: 07,2236           12240                           TCF      +2                                    #  PAIR BURIED - DECREMENT COUNTER
000354: 07,2237           12325                           TCF      MKALARM                               #  NO PAIR - ALARM
000355: 07,2240           55550                           TS       MARKCNTR                              #  STORE DECREMENTED COUNTER
000356:
000357: 07,2241           34740        AVESTAR            CAF      BIT12                                 #  INITIALIZE MKDEX FOR STAR LOS COUNTER
000358: 07,2242           27552                           ADS      MKDEX                                 #  MKDEX WAS INITIALIZED ZERO IN MARKCHEX
000359: 07,2243           41550                           CS       MARKCNTR
000360: 07,2244           00006                           EXTEND
000361: 07,2245           76242                           MP       SIX                                   #  GET C(L) = -6 MARKCNTR
000362: 07,2246           41551                           CS       XYMARK
000363: 07,2247           60001                           AD       L                                     #  ADD - MARK VAC ADR SET IN MARKCHEX
000364: 07,2250           50120                           INDEX    FIXLOC
000365: 07,2251           54046                           TS       X1                                    #  JAM - CDU ADR OF X-MARK IN X1
000366:
000367: 07,2252           30120                           CA       FIXLOC                                #  SET PD POINTER TO ZERO
000368: 07,2253           54166                           TS       PUSHLOC
000369:
000370: 07,2254           06037                           TC       INTPRET


000372: 07,2255           76614                           BON      VLOAD*
000373: 07,2256           04307                                    SURFFLAG                              #  IF ON SURFACE COMPUTE VEC AT SURFSTAR
000374: 07,2257           32000                                    SURFSTAR
000375: 07,2260           00002                                    1,1                                   #  PUT Y-MARK CDUS IN CDUSPOT FOR TRG*NBSM
000376: 07,2261           24767                           STOVL    CDUSPOT
000377: 07,2262           00015                                    12D                                   #  LOAD Y-PLANE VECTOR IN NG
000378: 07,2263           77624                           CALL
000379: 07,2264           47664                                    TRG*NBSM                              #  CONVERT IT TO STABLE MEMBER
000380: 07,2265           76606                           PUSH     VLOAD*
000381: 07,2266           00001                                    0,1                                   #  PUT X-MARK CDUS IN CDUSPOT FOR TRG*NBSM
000382: 07,2267           24767                           STOVL    CDUSPOT
000383: 07,2270           00023                                    18D                                   #  LOAD X-PLANE VECTOR IN NB
000384: 07,2271           77624                           CALL
000385: 07,2272           47664                                    TRG*NBSM                              #  CONVERT IT TO STABLE-MEMBER
000386: 07,2273           53435                           VXV      UNIT                                  #  UNIT(XPSM * YPSM)
000387: 07,2274           77626                           STADR
000388: 07,2275           77746                           STORE    24D
000389:
000390: 07,2276           63335        AVEIT              SLOAD    PDVL                                  #  N(NUMBER OF VECS) IN 0-1
000391: 07,2277           03553                                    MKDEX
000392: 07,2300           00031                                    24D                                   #  LOAD CURRENT VECTOR
000393: 07,2301           70322                           VSR3     V/SC
000394: 07,2302           00001                                    0
000395: 07,2303           14031                           STODL    24D                                   #  VEC/N
000396: 07,2304           00001                                    0
000397: 07,2305           56225                           DSU      DDV
000398: 07,2306           16623                                    DP1/8                                 #  (N-1)/N
000399: 07,2307           53361                           VXSC     VAD
000400: 07,2310           02715                                    STARAD     +6                         #  ADD VEC TO PREVIOUSLY AVERAGED VECTOR
000401: 07,2311           00031                                    24D                                   #  (N-1)/N AVESTVEC + VEC/N
000402: 07,2312           02715                           STORE    STARAD     +6                         #  AVERAGE STAR VECTOR
000403: 07,2313           02767                           STORE    STARSAV2
000404: 07,2314           77776                           EXIT
000405: 07,2315           11550                           CCS      MARKCNTR                              #  SEE IF ANOTHER MARK PAIR IN MKVAC
000406: 07,2316           12240                           TCF      AVESTAR    -1                         #  THERE IS - GO GET IT - DECREMENT COUNTER
000407: 07,2317           34756        ENDMARKS           CAF      FIVE                                  #  NO MORE MARKS - TERMINATE AOTMARK
000408: 07,2320           00004                           INHINT
000409: 07,2321           05203                           TC       WAITLIST
000410: 07,2322  E7,1551                                  EBANK=   XYMARK
000411: 07,2322           02047 16067                     2CADR    MKRELEAS
000412:
000413: 07,2324           05472                           TC       ENDMARK
000414:
000415: 07,2325           05567        MKALARM            TC       ALARM                                 #  NOT A PAIR TO PROCESS - DO GETMKS
000416: 07,2326           00111                           OCT      111
000417: 07,2327           12202                           TCF      GETMKS
000418:
000419: 07,2330           00307        V01N71             VN       171
000420: 07,2331           01527        V06N87*            VN       687
000421:


000423:                                                                                                  #  MARKRUPT IS ENTERED FROM INTERUPT LEAD-INS AND PROCESSES CHANNEL 16
000424:                                                                                                  #  CAUSED BY X,Y MARK OR MARK REJECT OR BY THE RATE OF DESCENT SWITCH
000425:
000426: 07,2332           54016        MARKRUPT           TS       BANKRUPT
000427: 07,2333           30033                           CA       CDUY                                  #  STORE CDUS AND TIME NOW - THEN SEE IF
000428: 07,2334           54063                           TS       ITEMP3                                #  WE NEED THEM
000429: 07,2335           30034                           CA       CDUZ
000430: 07,2336           54064                           TS       ITEMP4
000431: 07,2337           30032                           CA       CDUX
000432: 07,2340           54065                           TS       ITEMP5
000433: 07,2341           00006                           EXTEND
000434: 07,2342           30025                           DCA      TIME2
000435: 07,2343           52062                           DXCH     ITEMP1
000436: 07,2344           56002                           XCH      Q
000437: 07,2345           54012                           TS       QRUPT
000438:
000439: 07,2346           32624                           CAF      OCT34                                 #  SEE IF X OR Y MARK OR MKREJECT
000440: 07,2347           00006                           EXTEND
000441: 07,2350           02016                           RAND     NAVKEYIN
000442: 07,2351           10000                           CCS      A
000443: 07,2352           12354                           TCF      +2                                    #  ITS A LIVE ONE - SEE IF ITS WANTED
000444: 07,2353           12404                           TCF      SOMEKEY                               #  ITS SOME OTHER KEY
000445:
000446: 07,2354           34740                           CAF      BIT12                                 #  ARE WE ASKING FOR A MARK
000447: 07,2355           71312                           MASK     MARKSTAT
000448: 07,2356           10000                           CCS      A
000449: 07,2357           05270                           TC       RESUME                                #  DONT WANT MARK OR MKREJECT - DO NOTHING
000450:
000451: 07,2360           11312                           CCS      MARKSTAT                              #  ARE MARKS BEING ACCEPTED
000452: 07,2361           12365                           TCF      FINDKEY                               #  THEY ARE - WHICH ONE IS IT
000453: 07,2362           05567                           TC       ALARM                                 #  MARKS NOT BEING ACCEPTED - DO ALARM
000454: 07,2363           00112                           OCT      112
000455: 07,2364           05270                           TC       RESUME
000456:
000457: 07,2365           34747        FINDKEY            CAF      BIT5                                  #  SEE IF MARK REJECT
000458: 07,2366           00006                           EXTEND
000459: 07,2367           02016                           RAND     NAVKEYIN
000460: 07,2370           10000                           CCS      A
000461: 07,2371           12461                           TCF      MKREJ                                 #  ITS A MARK REJECT
000462:
000463: 07,2372           34750                           CAF      BIT4                                  #  SEE IF Y MARK
000464: 07,2373           00006                           EXTEND
000465: 07,2374           02016                           RAND     NAVKEYIN
000466: 07,2375           10000                           CCS      A
000467:
000468: 07,2376           12422                           TCF      YMKRUPT                               #  ITS A Y MARK
000469:
000470: 07,2377           34751                           CAF      BIT3                                  #  SEE IF X MARK
000471: 07,2400           00006                           EXTEND
000472: 07,2401           02016                           RAND     NAVKEYIN
000473:


000475: 07,2402           10000                           CCS      A
000476: 07,2403           12416                           TCF      XMKRUPT                               #  ITS A X MARK
000477:
000478: 07,2404           34776        SOMEKEY            CAF      OCT140                                #  NOT MARK OR MKREJECT - SEE IF DESCENT BITS
000479: 07,2405           00006                           EXTEND
000480: 07,2406           02016                           RAND     NAVKEYIN
000481: 07,2407           00006                           EXTEND
000482: 07,2410           12413                           BZF      +3                                    #  IF NO BITS
000483:
000484: 07,2411           04635                           TC       POSTJUMP                              #  IF DESCENT BITS
000485: 07,2412           40115                           CADR     DESCBITS
000486:
000487: 07,2413           05567                           TC       ALARM                                 #  NO INBITS IN CHANNEL 16
000488: 07,2414           00113                           OCT      113
000489:
000490: 07,2415           05270                           TC       RESUME
000491:
000492: 07,2416           34755        XMKRUPT            CAF      ZERO
000493: 07,2417           54070                           TS       RUPTREG1                              #  SET X MARK STORE INDEX TO ZERO
000494: 07,2420           34742                           CAF      BIT10
000495: 07,2421           12425                           TCF      +4
000496: 07,2422           34753        YMKRUPT            CAF      ONE
000497: 07,2423           54070                           TS       RUPTREG1                              #  SET Y MARK STORE INDEX TO ONE
000498: 07,2424           34741                           CAF      BIT11
000499: 07,2425           55551                           TS       XYMARK                                #  SET MARK IDENTIFIATION
000500:
000501: 07,2426           02514                           TC       MARKTYPE                              #  SEE IF SURFACE MARK
000502: 07,2427           12521                           TCF      SURFSTOR                              #  SURFACE MARK - JUST STORE CDUS
000503:
000504: 07,2430           34736                           CAF      BIT14                                 #  GOT A MARK - SEE IF MARK PAIR MADE
000505: 07,2431           71312                           MASK     MARKSTAT
000506: 07,2432           00006                           EXTEND
000507: 07,2433           12444                           BZF      VERIFYMK                              #  NOT A PAIR, NORMAL PROCEDURE
000508: 07,2434           41550                           CS       MARKCNTR                              #  GOT A PAIR, SEE IF ANOTHER CAN BE MADE
000509: 07,2435           64751                           AD       FOUR                                  #  IF SO, INCREMENT POINTER, CLEAR BITS 10,11
000510: 07,2436           00006                           EXTEND
000511: 07,2437           62454                           BZMF     5MKALARM                              #  HAVE FIVE MARK PAIRS - DONT ALLOW MARK
000512: 07,2440           25550                           INCR     MARKCNTR                              #  OK FOR ANOTHER PAIR, INCR POINTER
000513: 07,2441           47711                           CS       PRIO23                                #  CLEAR BITS 10,11,14 FOR NEXT PAIR
000514: 07,2442           71312                           MASK     MARKSTAT
000515: 07,2443           55312                           TS       MARKSTAT
000516:
000517: 07,2444           31551        VERIFYMK           CA       XYMARK
000518: 07,2445           71312                           MASK     MARKSTAT
000519: 07,2446           10000                           CCS      A
000520: 07,2447           12451                           TCF      +2                                    #  THIS MARK NOT DESIRED
000521: 07,2450           12526                           TCF      VACSTOR                               #  MARK DESIRED - STORE CDUS
000522: 07,2451           05567                           TC       ALARM
000523: 07,2452           00114                           OCT      114
000524: 07,2453           05270                           TC       RESUME                                #  RESUME - DISPLAY UNCHANGED - WAIT FOR ACTION
000525:


000527: 07,2454           05567        5MKALARM           TC       ALARM                                 #  ATTEMPTING TO MAKE MORE THAN 5 MK PAIRS
000528: 07,2455           00107                           OCT      107
000529: 07,2456           02514                           TC       MARKTYPE                              #  SEE IF SURFACE MARK
000530: 07,2457           12627                           TCF      DSPV6N79                              #  IT IS
000531: 07,2460           05270                           TC       RESUME                                #  DONT CHANGE DISPLAY - DO NOTHING
000532:


000534: 07,2461           02514        MKREJ              TC       MARKTYPE                              #  SEE IF SURFACE
000535: 07,2462           12507                           TCF      SURFREJ                               #  SURFACE - JUST CHECK MARK COUNTER
000536:
000537: 07,2463           35015                           CAF      PRIO3                                 #  INFLIGHT - SEE IF MARKS MADE
000538: 07,2464           71312                           MASK     MARKSTAT
000539: 07,2465           10000                           CCS      A
000540: 07,2466           12472                           TCF      REJECT                                #  MARKS MADE - REJECT ONE
000541: 07,2467           05567        REJALM             TC       ALARM                                 #  NO MARK TO REJECT - BAD PROCEDURE - ALARM
000542: 07,2470           00115                           OCT      115
000543: 07,2471           05270                           TC       RESUME                                #  DESIRED ACTION DISPLAYED
000544:
000545: 07,2472           44355        REJECT             CS       PRIO30                                #  ZERO BIT14, SHOW REJ., SEE IF MARK SINCE
000546: 07,2473           71312                           MASK     MARKSTAT                              #  LAST REJECT
000547: 07,2474           64737                           AD       BIT13
000548: 07,2475           57312                           XCH      MARKSTAT
000549: 07,2476           74737                           MASK     BIT13
000550: 07,2477           10000                           CCS      A
000551: 07,2500           12505                           TCF      REJECT2                               #  ANOTHER REJECT SET BIT 10+11 TO ZERO
000552:
000553: 07,2501           41551                           CS       XYMARK                                #  MARK MADE SINCE REJECT - REJECT MARK IN 1D
000554: 07,2502           71312        RENEWMK            MASK     MARKSTAT
000555: 07,2503           55312                           TS       MARKSTAT
000556: 07,2504           12577                           TCF      REMARK                                #  GO REQUEST NEW MARK ACTION
000557:
000558: 07,2505           45015        REJECT2            CS       PRIO3                                 #  ON SECOND REJECT - DISPLAY VB53 AGAIN
000559: 07,2506           12502                           TCF      RENEWMK
000560:
000561: 07,2507           11550        SURFREJ            CCS      MARKCNTR                              #  IF MARK DECREMENT COUNTER
000562: 07,2510           12512                           TCF      +2
000563: 07,2511           12467                           TCF      REJALM                                #  NO MARKS TO REJECT - ALARM
000564: 07,2512           55550                           TS       MARKCNTR
000565: 07,2513           05270                           TC       RESUME
000566:


000568:                                                                                                  #  MARKTYPE TESTS TO SEE IF LEM ON LUNAR SURFACE.  IF IT IS RETURN TO LOC+1
000569:
000570: 07,2514           40104        MARKTYPE           CS       FLAGWRD8                              #  SURFFLAG *******TEMPORARY*****
000571: 07,2515           74744                           MASK     BIT8
000572: 07,2516           10000                           CCS      A
000573: 07,2517           24002                           INCR     Q                                     #  IF SURFACE MARK REUTNR TO LOC +1
000574: 07,2520           00002                           TC       Q                                     #  IF INFLIGHT MARK RETURN TO LOC +2
000575:
000576: 07,2521           34755        SURFSTOR           CAF      ZERO                                  #  FOR SURFACE MARK ZERO MARK KIND INDEX
000577: 07,2522           54070                           TS       RUPTREG1
000578:
000579: 07,2523           41312                           CS       MARKSTAT                              #  SET BITS10,11 TO SHOW SURFACE MARK
000580: 07,2524           75015                           MASK     PRIO3                                 #  FOR MARKCHEX
000581: 07,2525           27312                           ADS      MARKSTAT
000582:
000583: 07,2526           35004        VACSTOR            CAF      LOW9
000584: 07,2527           71312                           MASK     MARKSTAT                              #  STORE MARK VAC ADR IN RUPTREG2
000585: 07,2530           54071                           TS       RUPTREG2
000586: 07,2531           00006                           EXTEND
000587: 07,2532           30062                           DCA      ITEMP1                                #  PICK UP MARKTIME
000588: 07,2533           53562                           DXCH     TSIGHT                                #  STORE LAST MARK TIME
000589: 07,2534           31550                           CA       MARKCNTR                              #  6 X MARKCNTR FOR STORE INDEX
000590: 07,2535           00006                           EXTEND
000591: 07,2536           76242                           MP       SIX
000592: 07,2537           56001                           XCH      L                                     #  GET INDEX FROM LOW ORDER PART
000593: 07,2540           60071                           AD       RUPTREG2                              #  SET CDU STORE INDEX TO MARKVAC
000594: 07,2541           26070                           ADS      RUPTREG1                              #  INCREMENT VAC PICKUP BY MARK FOR FLIGHT
000595: 07,2542           55552                           TS       MKDEX                                 #  STORE HERE IN CASE OF SURFACE MARK
000596: 07,2543           30063                           CA       ITEMP3
000597: 07,2544           50070                           INDEX    RUPTREG1
000598: 07,2545           54000                           TS       0                                     #  STORE CDUY
000599: 07,2546           30064                           CA       ITEMP4
000600: 07,2547           50070                           INDEX    RUPTREG1
000601: 07,2550           54002                           TS       2                                     #  STORE CDUZ
000602: 07,2551           30065                           CA       ITEMP5
000603: 07,2552           50070                           INDEX    RUPTREG1
000604: 07,2553           54004                           TS       4                                     #  STORE CDUX
000605: 07,2554           02514                           TC       MARKTYPE                              #  IF SURFACE MARK - JUST DO SURFJOB
000606: 07,2555           12604                           TCF      SURFJOB
000607:
000608: 07,2556           34737                           CAF      BIT13                                 #  CLEAR BIT13 TO SHOW MARK MADE
000609: 07,2557           61551                           AD       XYMARK                                #  SET MARK ID IN MARKSTAT
000610: 07,2560           40000                           COM
000611: 07,2561           71312                           MASK     MARKSTAT
000612: 07,2562           61551                           AD       XYMARK
000613: 07,2563           55312                           TS       MARKSTAT
000614: 07,2564           75015                           MASK     PRIO3                                 #  SEE IF X, Y MARK MADE
000615: 07,2565           54001                           TS       L
000616:


000618: 07,2566           35015                           CA       PRIO3
000619: 07,2567           00006                           EXTEND
000620: 07,2570           06001                           RXOR     LCHAN
000621: 07,2571           10000                           CCS      A
000622: 07,2572           12577                           TCF      REMARK                                #  NOT PAIR YET, DISPLAY MARK ACTION
000623: 07,2573           41312                           CS       MARKSTAT                              #  MARK PAIR COMPLETE - SET BIT14
000624: 07,2574           74736                           MASK     BIT14
000625: 07,2575           27312                           ADS      MARKSTAT
000626: 07,2576           12577                           TCF      REMARK                                #  GO DISPLAY V54
000627:


000629: 07,2577           35015        REMARK             CAF      PRIO3                                 #  BITS 10 AND 11
000630: 07,2600           71312                           MASK     MARKSTAT
000631: 07,2601           00006                           EXTEND
000632: 07,2602           74746                           MP       BIT6                                  #  SHIFT MARK IDS TO BE 0 TO 3 FOR INDEX
000633: 07,2603           55552                           TS       MKDEX                                 #  STORE VERB INDEX
000634: 07,2604           35025        SURFJOB            CAF      PRIO15
000635: 07,2605           05072                           TC       NOVAC                                 #  ENTER JOB TO CHANGE DISPLAY TO
000636: 07,2606  E7,1551                                  EBANK=   XYMARK                                #  REQUEST NEXT ACTION
000637: 07,2606           02611 16067                     2CADR    CHANGEVB
000638:
000639: 07,2610           05270                           TC       RESUME
000640:
000641: 07,2611           02514        CHANGEVB           TC       MARKTYPE
000642: 07,2612           12627                           TCF      DSPV6N79                              #  SURFACE - DISPLAY V 06 N 79
000643: 07,2613           51552                           INDEX    MKDEX                                 #  INFLIGHT - PICK UP MARK VB INDEX
000644: 07,2614           32616                           CAF      MKVB54
000645: 07,2615           02211                           TC       PASTIT                                #  PASTE UP NEXT MK VERB DISPLAY
000646:
000647:                                                                                                  #  THE FOUR MKVBS ARE INDEXED - THEIR ORDER CANNOT BE CHANGED
000648:
000649: 07,2616           15507        MKVB54             VN       5471                                  #  MAKE X OR Y MARK
000650: 07,2617           15307        MKVB53             VN       5371                                  #  MAKE Y MARK
000651: 07,2620           15107        MKVB52             VN       5271                                  #  MAKE X MARK
000652: 07,2621           15507        MKVB54*            VN       5471                                  #  MAKE X OR Y MARK
000653: 07,2622           04000 00000  DP1/8              2DEC     .125
000654:
000655: 07,2624           00034        OCT34              OCT      34
000656: 07,2625           01507        V06N71             VN       671
000657: 07,2626           01517        V06N79*            VN       679
000658:


000660:                                                                                                  #  ROUTINE TO REQUEST CURSOR AND SPIRAL MEASUREMENTS
000661: 07,2627                                           COUNT*   $$/R59
000662:
000663: 07,2627           32626        DSPV6N79           CAF      V06N79*                               #  CURSOR - SPIRAL DISPLAY
000664: 07,2630           04616                           TC       BANKCALL
000665: 07,2631           20334                           CADR     GOMARKF
000666:
000667: 07,2632           12060                           TCF      KILLAOT                               #  V34 - DOES GOTOPOOH
000668: 07,2633           12641                           TCF      SURFEND                               #  V33 - PROCEED, END MARKING
000669: 07,2634           34746                           CAF      BIT6                                  #  IF V32(OCT40) IN MPAC DO RECYCLE
000670: 07,2635           70154                           MASK     MPAC                                  #  OTHERWISE IT IS LOAD VB ENTER SO
000671: 07,2636           10000                           CCS      A                                     #  RE-DISPLAY V06N79
000672: 07,2637           12645                           TCF      SURFAGAN                              #  VB32 - RECYCLE
000673: 07,2640           12627                           TCF      DSPV6N79                              #  ENTER
000674:
000675: 07,2641           44736        SURFEND            CS       BIT14                                 #  SET BIT14 TO SHOW MARK END
000676: 07,2642           71312                           MASK     MARKSTAT
000677: 07,2643           64736                           AD       BIT14
000678: 07,2644           55312                           TS       MARKSTAT
000679:
000680: 07,2645           31236        SURFAGAN           CA       CURSOR
000681: 07,2646           51552                           INDEX    MKDEX                                 #  HOLDS VAC AREA POINTER FOR SURF MARKING
000682: 07,2647           54001                           TS       1                                     #  STORE CURSOR SP 2COMP
000683: 07,2650           31240                           CA       SPIRAL
000684: 07,2651           51552                           INDEX    MKDEX
000685: 07,2652           54003                           TS       3                                     #  STORE SPIRAL
000686:
000687: 07,2653           41312                           CS       MARKSTAT                              #  IF BIT 14 SET - END MARKING
000688: 07,2654           74736                           MASK     BIT14
000689: 07,2655           00006                           EXTEND
000690: 07,2656           12216                           BZF      MARKCHEX
000691: 07,2657           31550                           CA       MARKCNTR                              #  THIS IS RECYCLE - SEE IF 5 MARKS ALREADY
000692: 07,2660           64753                           AD       ONE
000693: 07,2661           40000                           COM
000694: 07,2662           64756                           AD       FIVE
000695: 07,2663           00006                           EXTEND
000696: 07,2664           62454                           BZMF     5MKALARM                              #  CANT RECYCLE - TO MANY MARKS - ALARM
000697: 07,2665           25550                           INCR     MARKCNTR                              #  OF FOR RECYCLE - INCR COUNTER
000698: 07,2666           12205                           TCF      GETMKS     +3                         #  GO DISPLAY MARK VB
000699:

End of include-file AOTMARK.agc.  Parent file is MAIN.agc


