
Source Code


000002:                                                                                                  ## Copyright:   Public domain.
000003:                                                                                                  ## Filename:    ATTITUDE_MANEUVER_ROUTINE.agc
000004:                                                                                                  ## Purpose:     Part of the source code for Luminary 1A build 099.
000005:                                                                                                  ##              It is part of the source code for the Lunar Module's (LM)
000006:                                                                                                  ##              Apollo Guidance Computer (AGC), for Apollo 11.
000007:                                                                                                  ## Assembler:   yaYUL
000008:                                                                                                  ## Contact:     Ron Burkey <info@sandroid.org>.
000009:                                                                                                  ## Website:     www.ibiblio.org/apollo.
000010:                                                                                                  ## Pages:       342-363
000011:                                                                                                  ## Mod history: 2009-05-16 RSB  Adapted from the corresponding
000012:                                                                                                  ##                              Luminary131 file, using page
000013:                                                                                                  ##                              images from Luminary 1A.
000014:                                                                                                  ##              2016-12-14 RSB  Proofed text comments with octopus/ProoferComments
000015:                                                                                                  ##                              and corrected the errors found.
000016:                                                                                                  ##              2017-01-19 MAS  Corrected some USER'S to USER:S
000017:                                                                                                  ##              2017-03-07 RSB  Comment-text fixes noted in proofing Luminary 116.
000018:                                                                                                  ##              2017-03-15 RSB  Comment-text fixes identified in 5-way
000019:                                                                                                  ##                              side-by-side diff of Luminary 69/99/116/131/210.
000020:
000021:                                                                                                  ## This source code has been transcribed or otherwise adapted from
000022:                                                                                                  ## digitized images of a hardcopy from the MIT Museum.  The digitization
000023:                                                                                                  ## was performed by Paul Fjeld, and arranged for by Deborah Douglas of
000024:                                                                                                  ## the Museum.  Many thanks to both.  The images (with suitable reduction
000025:                                                                                                  ## in storage size and consequent reduction in image quality as well) are
000026:                                                                                                  ## available online at www.ibiblio.org/apollo.  If for some reason you
000027:                                                                                                  ## find that the images are illegible, contact me at info@sandroid.org
000028:                                                                                                  ## about getting access to the (much) higher-quality images which Paul
000029:                                                                                                  ## actually created.
000030:                                                                                                  ##
000031:                                                                                                  ## Notations on the hardcopy document read, in part:
000032:                                                                                                  ##
000033:                                                                                                  ##      Assemble revision 001 of AGC program LMY99 by NASA 2021112-61
000034:                                                                                                  ##      16:27 JULY 14, 1969
000035:


000037:                                                                                                  #  BLOCK 2 LGC ATTITUDE MANEUVER ROUTINE - KALCMANU
000038:
000039:                                                                                                  #  MOD 2         DATE 5/1/67     BY DON KEENE
000040:
000041:                                                                                                  #  PROGRAM DESCRIPTION
000042:
000043:                                                                                                  #       KALCMANU IS A ROUTINE WHICH GENERATES COMMANDS FOR THE LM DAP TO CHANGE THE ATTITUDE OF THE SPACECRAFT
000044:                                                                                                  #  DURING FREE FALL.  IT IS DESIGNED TO MANEUVER THE SPACECRAFT FROM ITS INITIAL ORIENTATION TO SOME DESIRED
000045:                                                                                                  #  ORIENTATION SPECIFIED BY THE PROGRAM WHICH CALLS KALCMANU, AVOIDING GIMBAL LOCK IN THE PROCESS.  IN THE
000046:                                                                                                  #  MOD 2 VERSION, THIS DESIRED ATTITUDE IS SPECIFIED BY A SET OF THREE COMMANDED CDU ANGLES STORED AS 2S COMPLEMENT
000047:                                                                                                  #  SINGLE PRECISION ANGLES IN THE THREE CONSECUTIVE LOCATIONS, CPHI, CTHETA, CPSI, WHERE
000048:
000049:                                                                                                  #        CPHI = COMMANDED OUTER GIMBAL ANGLE
000050:                                                                                                  #        CTHETA = COMMANDED INNER GIMBAL ANGLE
000051:                                                                                                  #        CPSI = COMMANDED MIDDLE GIMBAL ANGLE
000052:
000053:                                                                                                  #      WHEN POINTING A SPACECRAFT AXIS (E.I. X, Y, Z, THE AOT, THRUST AXIS, ETC) THE SUBROUTINE VECPOINT MAY BE
000054:                                                                                                  #  USED TO GENERATE THIS SET OF DESIRED CDU ANGLES (SEE DESCRIPTION IN R60)   -
000055:                                                                                                  #   WITH THIS INFORMATION KALCMANU DETERMINES THE DIRECTION OF THE SINGLE EQUIVALENT ROTATION (COF ALSO U) AND THE
000056:                                                                                                  #  MAGNITUDE OF THE ROTATION (AM) TO BRING THE S/C FROM ITS INITIAL ORIENTATION TO ITS FINAL ORIENTATION.
000057:                                                                                                  #  THIS DIRECTION REMAINS FIXED BOTH IN INERTIAL COORDINATES AND IN COMMANDED S/C AXES THROUGHOUT THE
000058:                                                                                                  #                   -
000059:                                                                                                  #  MANEUVER.  ONCE COF AND AM HAVE BEEN DETERMINED, KALCMANU THEN EXAMINES THE MANEUVER TO SEE IF IT WILL BRING
000060:                                                                                                  #                                       -
000061:                                                                                                  #  THE S/C THROUGH GIMBAL LOCK.  IF SO, COF AND AM ARE READJUSTED SO THAT THE S/C WILL JUST SKIM THE GIMBAL
000062:                                                                                                  #  LOCK ZONE AND ALIGN THE X-AXIS.  IN GENERAL A FINAL YAW ABOUT X WILL BE NECESSARY TO COMPLETE THE MANEUVER.
000063:                                                                                                  #  NEEDLESS TO SAY, NEITHER THE INITIAL NOR THE FINAL ORIENTATION CAN BE IN GIMBAL LOCK.
000064:
000065:                                                                                                  #       FOR PROPER ATTITUDE CONTROL THE DIGITAL AUTOPILOT MUST BE GIVEN AN ATTITUDE REFERENCE WHICH IT CAN TRACK.
000066:                                                                                                  #  KALCMANU DOES THIS BY GENERATING A REFERENCE OF DESIRED GIMBAL ANGLES (CDUXD, CDUYD, CDUZD) WHICH ARE UPDATED
000067:                                                                                                  #  EVERY ONE SECOND DURING THE MANEUVER.  TO ACHIEVE A SMOOTHER SEQUENCE OF COMMANDS BETWEEN SUCCESSIVE UPDATES,
000068:                                                                                                  #  THE PROGRAM ALSO GENERATES A SET OF INCREMENTAL CDU ANGLES (DELDCDU) TO BE ADDED TO CDU DESIRED BY THE DIGITAL
000069:                                                                                                  #  AUTOPILOT.  KALCMANU ALSO CALCULATES THE COMPONENT MANEUVER RATES (OMEGAPD, OMEGAQD, OMEGARD), WHICH CAN
000070:                                                                                                  #                                      -
000071:                                                                                                  #  BE DETERMINED SIMPLY BY MULTIPLYING COF BY SOME SCALAR (ARATE) CORRESPONDING TO THE DESIRED ROTATIONAL RATE.
000072:
000073:                                                                                                  #       AUTOMATIC MANEUVERS ARE TIMED WITH THE HELP OF WAITLIST SO THAT AFTER A SPECIFIED INTERVAL THE Y AND Z
000074:                                                                                                  #  DESIRED RATES ARE SET TO ZERO AND THE DESIRED CDU ANGLES (CDUYD, CDUZD) ARE SET EQUAL TO THE FINAL DESIRED CDU
000075:                                                                                                  #  ANGLES (CTHETA, CPSI).  IF ANY YAW REMAINS DUE TO GIMBAL LOCK AVOIDANCE, THE FINAL YAW MANEUVER IS
000076:                                                                                                  #  CALCULATED AND THE DESIRED YAW RATE SET TO SOME FIXED VALUE (ROLLRATE = + OR - 2 DEGREES PER SEC).
000077:                                                                                                  #  IN THIS CASE ONLY AN INCREMENTAL CDUX ANGLE (DELFROLL) IS SUPPLIED TO THE DAP.  AT THE END OF THE YAW
000078:                                                                                                  #  MANEUVER OR IN THE EVENT THAT THERE WAS NO FINAL YAW, CDUXD IS SET EQUAL TO CPHI AND THE X-AXIS DESIRED
000079:                                                                                                  #  RATE SET TO ZERO.  THUS, UPON COMPLETION OF THE MANEUVER THE S/C WILL FINISH UP IN A LIMIT CYCLE ABOUT THE
000080:                                                                                                  #  DESIRED FINAL GIMBAL ANGLES.
000081:
000082:                                                                                                  #  PROGRAM LOGIC FLOW
000083:
000084:                                                                                                  #       KALCMANU IS CALLED AS A HIGH PRIORITY JOB WITH ENTRY POINTS AT KALCMAN3 AND VECPOINT.  IT FIRST PICKS
000085:                                                                                                  #  UP THE CURRENT CDU ANGLES TO BE USED AS THE BASIS FOR ALL COMPUTATIONS INVOLVING THE INITIAL S/C ORIENTATION.


000087:                                                                                                  #  IT THEN DETERMINES THE DIRECTION COSINE MATRICES RELATING BOTH THE INITIAL AND FINAL S/C ORIENTATION TO STABLE
000088:                                                                                                  #                *   *                                                                               *
000089:                                                                                                  #  MEMBER AXES (MIS,MFS).  IT ALSO COMPUTES THE MATRIX RELATING FINAL S/C AXES TO INITIAL S/C AXES (MFI).  THE
000090:                                                                                                  #  ANGLE OF ROTATION (AM) IS THEN EXTRACTED FROM THIS MATRIX, AND TESTS ARE MADE TO DETERMINE IF
000091:
000092:                                                                                                  #        A)      AM LESS THAN .25 DEGREES (MINANG)
000093:                                                                                                  #        B)      AM GREATER THAN 170 DEGREES (MAXANG)
000094:
000095:                                                                                                  #  IF AM LESS THAN .25 DEGREES, NO COMPLICATED AUTOMATIC MANEUVERING IS NECESSARY.  THEREFORE WE CAN SIMPLY
000096:                                                                                                  #  SET CDU DESIRED EQUAL TO THE FINAL CDU DESIRED ANGLES AND TERMINATE THE JOB.
000097:
000098:                                                                                                  #  IF AM IS GREATER THAN .25 DEGREES BUT LESS THAN 170 DEGREES, THE AXES OF THE SINGLE EQUIVALENT ROTATION
000099:                                                                                                  #    -                                                       *
000100:                                                                                                  #  (COF) IS EXTRACTED FROM THE SKEW SYMMETRIC COMPONENTS OF MFI.                       *     *
000101:                                                                                                  #  IF AM GREATER THAN 170 DEGREES AN ALTERNATE METHOD EMPLOYING THE SYMMETRIC PART OF MFI (MFISYM) IS USED
000102:                                                                                                  #                -
000103:                                                                                                  #  TO DETERMINE COF.
000104:
000105:                                                                                                  #  THE PROGRAM THEN CHECKS TO SEE IF THE MANEUVER AS COMPUTED WILL BRING THE S/C THROUGH GIMBAL LOCK.  IF
000106:                                                                                                  #  SO, A NEW MANEUVER IS CALCULATED WHICH WILL JUST SKIM THE GIMBAL LOCK ZONE AND ALIGN THE S/C X-AXIS.  THIS
000107:                                                                                                  #  METHOD ASSURES THAT THE ADDITIONAL MANEUVERING TO AVOID GIMBAL LOCK WILL BE KEPT TO A MINIMUM.  SINCE A FINAL
000108:                                                                                                  #  P AXIS YAW WILL BE NECESSARY, A SWITCH IS RESET (STATE SWITCH 31) TO ALLOW FOR THE COMPUTATION OF THIS FINAL
000109:                                                                                                  #  YAW.
000110:
000111:                                                                                                  #  AS STATED PREVIOUSLY KALCMANU GENERATES A SEQUENCE OF DESIRED GIMBAL ANGLES WHICH ARE UPDATED EVERY
000112:                                                                                                  #                                                                                               -
000113:                                                                                                  #  SECOND.  THIS IS ACCOMPLISHED BY A SMALL ROTATION OF THE DESIRED S/C FRAME ABOUT THE VECTOR COF.  THE NEW
000114:                                                                                                  #  DESIRED REFERENCE MATRIX IS THEN,
000115:                                                                                                  #         *               *       *
000116:                                                                                                  #        MIS     =       MIS     DEL
000117:                                                                                                  #           N+1             N
000118:                                                                                                  #         *
000119:                                                                                                  #  WHERE DEL IS THE MATRIX CORRESPONDING TO THIS SMALL ROTATION.  THE NEW CDU ANGLES CAN THEN BE EXTRACTED
000120:                                                                                                  #        *
000121:                                                                                                  #  FROM MIS.
000122:
000123:                                                                                                  #  AT THE BEGINNING OF THE MANEUVER THE AUTOPILOT DESIRED RATES (OMEGAPD, OMEGAQD, OMEGARD) AND THE
000124:                                                                                                  #  MANEUVER TIMINGS ARE ESTABLISHED.  ON THE FIRST PASS AND ON ALL SUBSEQUENT UPDATES THE CDU DESIRED
000125:                                                                                                  #  ANGLES ARE LOADED WITH THE APPROPRIATE VALUES AND THE INCREMENTAL CDU ANGLES ARE COMPUTED.  THE AGC CLOCKS
000126:                                                                                                  #  (TIME1 AND TIME2) ARE THAN CHECKED TO SEE IF THE MANEUVER WILL TERMINATE BEFORE THE NEXT UPDATE.  IF
000127:                                                                                                  #  NOT, KALCMANU CALLS FOR ANOTHER UPDATE (RUN AS A JOB WITH PRIORITY TBD) IN ONE SECOND.  ANY DELAYS IN THIS
000128:                                                                                                  #  CALLING SEQUENCE ARE AUTOMATICALLY COMPENSATED IN CALLING FOR THE NEXT UPDATE.
000129:
000130:                                                                                                  #  IF IT IS FOUND THAT THE MANEUVER IS TO TERMINATE BEFORE THE NEXT UPDATE A ROUTINE IS CALLED (AS A WAIT-
000131:                                                                                                  #  LIST TASK) TO STOP THE MANEUVER AT THE APPROPRIATE TIME AS EXPLAINED ABOVE.
000132:


000134:                                                                                                  #  CALLING SEQUENCE
000135:
000136:                                                                                                  #  IN ORDER TO PERFORM A KALCMANU SUPERVISED MANEUVER, THE COMMANDED GIMBAL ANGLES MUST BE PRECOMPUTED AND
000137:                                                                                                  #  STORED IN LOCATIONS CPHI, CTHETA, CPSI.  THE USER:S PROGRAM MUST THEN CLEAR STATE SWITCH NO 33 TO ALLOW THE
000138:                                                                                                  #  ATTITUDE MANEUVER ROUTINE TO PERFORM ANY FINAL P-AXIS YAW INCURRED BY AVOIDING GIMBAL LOCK.  THE MANEUVER IS
000139:                                                                                                  #  THEN INITIATED BY ESTABLISHING THE FOLLOWING EXECUTIVE JOB
000140:                                                                                                  #                       *
000141:                                                                                                  #        CAF     PRIO XX
000142:                                                                                                  #                     --
000143:                                                                                                  #        INHINT
000144:                                                                                                  #        TC      FINDVAC
000145:                                                                                                  #        2CADR   KALCMAN3
000146:                                                                                                  #        RELINT
000147:
000148:                                                                                                  #  THE USER:S PROGRAM MAY EITHER CONTINUE OR WAIT FOR THE TERMINATION OF THE MANEUVER.  IF THE USER WISHES TO
000149:                                                                                                  #  WAIT, HE MAY PUT HIS JOB TO SLEEP WITH THE FOLLOWING INSTRUCTIONS
000150:
000151:                                                                                                  #        L       TC      BANKCALL
000152:                                                                                                  #        L+1     CADR    ATTSTALL
000153:                                                                                                  #        L+2     (BAD RETURN)
000154:                                                                                                  #        L+3     (GOOD RETURN)
000155:
000156:                                                                                                  #  UPON COMPLETION OF THE MANEUVER, THE PROGRAM WILL BE AWAKENED AT L+3 IF THE MANEUVER WAS COMPLETED
000157:                                                                                                  #  SUCCESSFULLY, OR AT L+2 IF THE MANEUVER WAS ABORTED.  THIS ABORT WOULD OCCUR IF THE INITIAL OR FINAL ATTITUDE
000158:                                                                                                  #  WAS IN GIMBAL LOCK.
000159:
000160:                                                                                                  #  *** NOTA BENE ***  IT IS ASSUMED THAT THE DESIRED MANEUVERING RATE (0.5, 2, 5, 10, DEG/SEC) HAS BEEN SELECTED BY
000161:                                                                                                  #  KEYBOARD ENTRY PRIOR TO THE EXECUTION OF KALCMANU.
000162:                                                                                                  #  IT IS ALSO ASSUMED THAT THE AUTOPILOT IS IN THE AUTO MODE.  IF THE MODE SWITCH IS CHANGED DURING THE
000163:                                                                                                  #  MANEUVER, KALCMANU WILL TERMINATE VIA GOODEND WITHIN 1 SECOND SO THAT R60 MAY REQUEST A TRIM OF THE S/C ATTITUDE
000164:                                                                                                  #  THIS IS THE ONLY MEANS FOR MANUALLY TERMINATING A KALCMANU SUPERVISED MANEUVER.
000165:                                                                                                  #  SUBROUTINES
000166:
000167:                                                                                                  #  KALCMANU USES A NUMBER OF INTERPRETIVE SUBROUTINES WHICH MAY BE OF GENERAL INTEREST.  SINCE THESE ROUTINES
000168:                                                                                                  #  WERE PROGRAMMED EXCLUSIVELY FOR KALCMANU, THEY ARE NOT, AS YET, GENERALLY AVAILABLE FOR USE BY OTHER PROGRAMS.
000169:
000170:                                                                                                  #  MXM3
000171:                                                                                                  #  ----
000172:
000173:                                                                                                  #  THIS SUBROUTINE MULTIPLIES TWO 3X3 MATRICES AND LEAVES THE RESULT IN THE FIRST 18 LOCATIONS OF THE PUSH
000174:                                                                                                  #  DOWN LIST, I.E.,
000175:                                                                                                  #                        ( M     M     M  )
000176:                                                                                                  #                        (  0     1     2 )
000177:                                                                                                  #        *               (                )              *               *
000178:                                                                                                  #        M       =       ( M     M     M  )      =       M1      X       M2
000179:                                                                                                  #                        (  3     4     5 )
000180:                                                                                                  #                        (                )
000181:                                                                                                  #                        ( M     M     M  )


000183:                                                                                                  #                        (  6     7     8 )
000184:                                                                                                  #                                                                                   *
000185:                                                                                                  #  INDEX REGISTER X1 MUST BE LOADED WITH THE COMPLEMENT OF THE STARTING ADDRESS FOR M1, AND X2 MUST BE
000186:                                                                                                  #                                                         *
000187:                                                                                                  #  LOADED WITH THE COMPLEMENT OF THE STARTING ADDRESS FOR M2.  THE ROUTINE USES THE FIRST 20 LOCATIONS OF THE PUSH
000188:                                                                                                  #  DOWN LIST.  THE FIRST ELEMENT OF THE MATRIX APPEARS IN PDO.  PUSH UP FOR M .
000189:                                                                                                  #                                                                            8
000190:                                                                                                  #  TRANSPOS
000191:                                                                                                  #  --------
000192:
000193:                                                                                                  #  THIS ROUTINE TRANSPOSES A 3X3 MATRIX AND LEAVES THE RESULT IN THE PUSH DOWN LIST, I.E.,
000194:                                                                                                  #
000195:                                                                                                  #        *               * T
000196:                                                                                                  #        M       =       M1
000197:
000198:                                                                                                  #  INDEX REGISTER X1 MUST CONTAIN THE COMPLEMENT OF THE STARTING ADDRESS FOR M1.  PUSH UP FOR THE FIRST AND SUB-
000199:                                                                                                  #                         *
000200:                                                                                                  #  SEQUENT COMPONENTS OF M.  THIS SUBROUTINE ALSO USES THE FIRST 20 LOCATIONS OF THE PUSH DOWN LIST.
000201:
000202:                                                                                                  #  CDU TO DCM
000203:                                                                                                  #  ----------
000204:
000205:                                                                                                  #  THIS SUBROUTINE CONVERTS THREE CDU ANGLES IN T(MPAC) TO A DIRECTION COSINE MATRIX (SCALED BY 2) RELATING
000206:                                                                                                  #  THE CORRESPONDING S/C ORIENTATIONS TO THE STABLE MEMBER FRAME.  THE FORMULAS FOR THIS CONVERSION ARE
000207:
000208:                                                                                                  #        M       =       COSY COSZ
000209:                                                                                                  #         0
000210:
000211:                                                                                                  #        M       =       -COSY SINZ COSX + SINY SINX
000212:                                                                                                  #         1
000213:
000214:                                                                                                  #        M       =       COSY SINZ SINX + SINY COSX
000215:                                                                                                  #         2
000216:
000217:                                                                                                  #        M       =       SINZ
000218:                                                                                                  #         3
000219:
000220:                                                                                                  #        M       =       COSZ COSX
000221:                                                                                                  #         4
000222:
000223:                                                                                                  #        M       =       -COSZ SINX
000224:                                                                                                  #         5
000225:
000226:                                                                                                  #        M       =       -SINY COSZ
000227:                                                                                                  #         6
000228:                                                                                                  #
000229:                                                                                                  #        M       =       SINY SINZ COSX + COSY SINX
000230:                                                                                                  #         7


000232:                                                                                                  #        M       =       -SINY SINZ SINX + COSY COSX
000233:                                                                                                  #         8
000234:
000235:                                                                                                  #  WHERE         X       =       OUTER GIMBAL ANGLE
000236:                                                                                                  #                Y       =       INNER GIMBAL ANGLE
000237:                                                                                                  #                Z       =       MIDDLE GIMBAL ANGLE
000238:
000239:                                                                                                  #  THE INTERPRETATION OF THIS MATRIX IS AS FOLLOWS
000240:
000241:                                                                                                  #  IF A , A , A  REPRESENT THE COMPONENTS OF A VECTOR IN S/C AXES THEN THE COMPONENTS OF THE SAME VECTOR IN
000242:                                                                                                  #      X   Y   Z
000243:                                                                                                  #  STABLE MEMBER AXES (B , B , B ) ARE
000244:                                                                                                  #                       X   Y   Z
000245:
000246:                                                                                                  #        ( B  )                  ( A  )
000247:                                                                                                  #        (  X )                  (  X )
000248:                                                                                                  #        (    )                  (    )
000249:                                                                                                  #        (    )            *     (    )
000250:                                                                                                  #        ( B  )     =      M     ( A  )
000251:                                                                                                  #        (  Y )                  (  Y )
000252:                                                                                                  #        (    )                  (    )
000253:                                                                                                  #        ( B  )                  ( A  )
000254:                                                                                                  #        (  Z )                  (  Z )
000255:
000256:                                                                                                  #  THE SUBROUTINE WILL STORE THIS MATRIX IN SEQUENTIAL LOCATIONS OF ERASABLE MEMORY AS SPECIFIED BY THE CALLING
000257:                                                                                                  #                                                                                                              *
000258:                                                                                                  #  PROGRAM.  TO DO THIS THE CALLING PROGRAM MUST FIRST LOAD X2 WITH THE COMPLEMENT OF THE STARTING ADDRESS FOR M.
000259:
000260:                                                                                                  #  INTERNALLY, THE ROUTINE USES THE FIRST 16 LOCATIONS OF THE PUSH DOWN LIST, ALSO STEP REGISTER S1 AND INDEX
000261:                                                                                                  #  REGISTER X2.
000262:
000263:                                                                                                  #  DCM TO CDU
000264:                                                                                                  #  ----------
000265:                                                                                                  #                                                                       *
000266:                                                                                                  #  THIS ROUTINE EXTRACTS THE CDU ANGLES FROM A DIRECTION COSINE MATRIX (M SCALED BY 2) RELATING S/C AXIS TO
000267:                                                                                                  #                                                                                  *
000268:                                                                                                  #  STABLE MEMBER AXES.  X1 MUST CONTAIN THE COMPLEMENT OF THE STARTING ADDRESS FOR M.  THE SUBROUTINE LEAVES THE
000269:                                                                                                  #  CORRESPONDING GIMBAL ANGLES IN V(MPAC) AS DOUBLE PRECISION 1:S COMPLEMENT ANGLES SCALED BY 2PI.  THE FORMULAS
000270:                                                                                                  #  FOR THIS CONVERSION ARE
000271:
000272:                                                                                                  #        Z       =       ARCSIN (M  )
000273:                                                                                                  #                                 3
000274:
000275:                                                                                                  #        Y       =       ARCSIN (-M /COSZ)
000276:                                                                                                  #                                  6
000277:
000278:                                                                                                  #  IF M  IS NEGATIVE, Y IS REPLACED BY PI SGN Y - Y
000279:                                                                                                  #      0


000281:                                                                                                  #        X       =       ARCSIN (-M /COSZ)
000282:                                                                                                  #                                  5
000283:
000284:                                                                                                  #  IF M  IS NEGATIVE X IS REPLACED BY PI SGN X - X
000285:                                                                                                  #      4
000286:
000287:                                                                                                  #  THIS ROUTINE DOES NOT SET THE PUSH DOWN POINTER, BUT USES THE NEXT 8 LOCATIONS OF THE PUSH DOWN LIST AND
000288:                                                                                                  #  RETURNS THE POINTER TO ITS ORIGINAL SETTING.  THIS PROCEDURE ALLOWS THE CALLER TO STORE THE MATRIX AT THE TOP OF
000289:                                                                                                  #  THE PUSH DOWN LIST.
000290:
000291:                                                                                                  #  DELCOMP
000292:                                                                                                  #  -------
000293:                                                                                                  #                                                      *
000294:                                                                                                  #  THIS ROUTINE COMPUTES THE DIRECTION COSINE MATRIX (DEL) RELATING ON
000295:                                                                                                  #                                                                            -
000296:                                                                                                  #  IS ROTATED WITH RESPECT TO THE FIRST BY AN ANGLE, A, ABOUT A UNIT VECTOR, U.  THE FORMULA FOR THIS MATRIX IS
000297:
000298:                                                                                                  #         *              *        - -T              *
000299:                                                                                                  #        DEL     =       I COSA + U U  (1 - COSA) + V  SINA
000300:                                                                                                  #                                                    X
000301:
000302:                                                                                                  #  WHERE         *               ( 1    0    0 )
000303:                                                                                                  #                I       =       ( 0    1    0 )
000304:                                                                                                  #                                ( 0    0    1 )
000305:
000306:                                                                                                  #                                     2
000307:                                                                                                  #                                (  U           U  U          U  U  )
000308:                                                                                                  #                                (   X           X  Y          X  Z )
000309:                                                                                                  #                                (                                  )
000310:                                                                                                  #                - -T            (                 2                )
000311:                                                                                                  #                U U     =       ( U  U          U            U  U  )
000312:                                                                                                  #                                (  Y  X          Y            Y  Z )
000313:                                                                                                  #                                (                                  )
000314:                                                                                                  #                                (                               2  )
000315:                                                                                                  #                                ( U  U         U  U           U    )
000316:                                                                                                  #                                (  Z  X         Z  Y           Z   )
000317:
000318:
000319:                                                                                                  #                                (   0           -U               U  )
000320:                                                                                                  #                                (                 Z               Y )
000321:                                                                                                  #                *               (                                   )
000322:                                                                                                  #                V       =       (  U             0              -U  )
000323:                                                                                                  #                 X              (   Z                             X )
000324:                                                                                                  #                                (                                   )
000325:                                                                                                  #                                ( -U             U               0  )
000326:                                                                                                  #                                (   Y             X                 )
000327:


000329:                                                                                                  #        -
000330:                                                                                                  #        U       =       UNIT ROTATION VECTOR RESOLVED INTO S/C AXES
000331:                                                                                                  #        A       =       ROTATION ANGLE
000332:
000333:                                                                                                  #                         *
000334:                                                                                                  #  THE INTERPRETATION OF DEL IS AS FOLLOWS
000335:
000336:                                                                                                  #  IF A , A , A  REPRESENT THE COMPONENT OF A VECTOR IN THE ROTATED FRAME, THEN THE COMPONENTS OF THE SAME
000337:                                                                                                  #      X   Y   Z
000338:                                                                                                  #  VECTOR IN THE ORIGINAL S/C AXES (B , B , B ) ARE
000339:                                                                                                  #                                    X   Y   Z
000340:
000341:                                                                                                  #        ( B  )                  ( A  )
000342:                                                                                                  #        (  X )                  (  X )
000343:                                                                                                  #        (    )            *     (    )
000344:                                                                                                  #        ( B  )     =     DEL    ( A  )
000345:                                                                                                  #        (  Y )                  (  Y )
000346:                                                                                                  #        (    )                  (    )
000347:                                                                                                  #        ( B  )                  ( A  )
000348:                                                                                                  #        (  Z )                  (  Z )
000349:
000350:                                                                                                  #  THE ROUTINE WILL STORE THIS MATRIX (SCALED UNITY) IN SEQUENTIAL LOCATIONS OF ERASABLE MEMORY BEGINNING WITH
000351:                                                                                                  #                                                                                              -
000352:                                                                                                  #  THE LOCATION CALLED DEL.  IN ORDER TO USE THE ROUTINE, THE CALLING PROGRAM MUST FIRST STORE U (A HALF UNIT
000353:                                                                                                  #  DOUBLE PRECISION VECTOR) IN THE SET OF ERASABLE LOCATIONS BEGINNING WITH THE ADDRESS CALLED COF.  THE ANGLE, A,
000354:                                                                                                  #  MUST THEN BE LOADED INTO D(MPAC).
000355:                                                                                                  #
000356:                                                                                                  #  INTERNALLY, THE PROGRAM ALSO USES THE FIRST 10 LOCATIONS OF THE PUSH DOWN LIST.
000357:
000358:                                                                                                  #  READCDUK
000359:                                                                                                  #  --------
000360:
000361:                                                                                                  #  THIS BASIC LANGUAGE SUBROUTINE LOADS T(MPAC) WITH THE THREE CDU ANGLES.
000362:
000363:                                                                                                  #  SIGNMPAC
000364:                                                                                                  #  --------
000365:
000366:                                                                                                  #  THIS IS A BASIC LANGUAGE SUBROUTINE WHICH LIMITS THE MAGNITUDE OF D(MPAC) TO + OR - DPOSMAX ON OVERFLOW.
000367:
000368:                                                                                                  #  PROGRAM STORAGE ALLOCATION
000369:
000370:                                                                                                  #        1)      FIXED MEMORY            1059 WORDS
000371:                                                                                                  #        2)      ERASABLE MEMORY           98
000372:                                                                                                  #        3)      STATE SWITCHES             3


000374:                                                                                                  #        4)      FLAGS                      1
000375:
000376:                                                                                                  #  JOB PRIORITIES
000377:
000378:                                                                                                  #        1)      KALCMANU                TBD
000379:                                                                                                  #        2)      ONE SECOND UPDATE       TBD
000380:
000381:                                                                                                  #  SUMMARY OF STATE SWITCHES AND FLAGWORDS USED BY KALCMANU.
000382:
000383:                                                                                                  #        STATE           FLAGWRD 2       SETTING         MEANING
000384:                                                                                                  #        SWITCH NO.      BIT NO.
000385:
000386:                                                                                                  #          *
000387:                                                                                                  #        31              14              0               MANEUVER WENT THROUGH GIMBAL LOCK
000388:                                                                                                  #                                        1               MANEUVER DID NOT GO THROUGH GIMBAL LOCK
000389:                                                                                                  #          *
000390:                                                                                                  #        32              13              0               CONTINUE UPDATE PROCESS
000391:                                                                                                  #                                        1               START UPDATE PROCESS
000392:
000393:                                                                                                  #        33              12              0               PERFORM FINAL P-AXIS YAW IF REQUIRED
000394:                                                                                                  #                                        1               IGNORE ANY FINAL P-AXIS YAW
000395:
000396:                                                                                                  #        34              11              0               SIGNAL END OF KALCMANU
000397:                                                                                                  #                                        1               KALCMANU IN PROCESS     USER MUST SET SWITCH BEFORE INITIATING
000398:
000399:                                                                                                  #        * INTERNAL TO KALCMANU
000400:
000401:                                                                                                  #  SUGGESTIONS FOR PROGRAM INTEGRATION
000402:
000403:                                                                                                  #  THE FOLLOWING VARIABLES SHOULD BE ASSIGNED TO UNSWITCH ERASABLE
000404:
000405:                                                                                                  #        CPHI
000406:                                                                                                  #        CTHETA
000407:                                                                                                  #        CPSI
000408:                                                                                                  #        POINTVSM +5
000409:                                                                                                  #        SCAXIS   +5
000410:                                                                                                  #        DELDCDU
000411:                                                                                                  #        DELDCDU1
000412:                                                                                                  #        DELDCDU2
000413:                                                                                                  #        RATEINDX
000414:
000415:                                                                                                  #  THE FOLLOWING SUBROUTINES MAY BE PUT IN A DIFFERENT BANK
000416:
000417:                                                                                                  #        MXM3


000419:                                                                                                  #        TRANSPOS
000420:                                                                                                  #        SIGNMPAC
000421:                                                                                                  #        READCDUK
000422:                                                                                                  #        CDUTODCM
000423:


000425: 15,2050                                           BANK     15
000426: 22,2000                                           SETLOC   KALCMON1
000427: 22,2000                                           BANK
000428:
000429: 22,2004  E6,1676                                  EBANK=   BCDU
000430:
000431:                                                                                                  #  THE THREE DESIRED CDU ANGLES MUST BE STORED AS SINGLE PRECISION TWOS COMPLEMENT ANGLES IN THE THREE SUCCESSIVE
000432:                                                                                                  #  LOCATIONS, CPHI, CTHETA, CPSI.
000433:
000434: 22,2004                                           COUNT*   $$/KALC
000435: 22,2004           06037        KALCMAN3           TC       INTPRET                               #  PICK UP THE CURRENT CDU ANGLES AND
000436: 22,2005           77634                           RTB                                            #        COMPUTE THE MATRIX FROM INITIAL S/C
000437: 22,2006           44403                                    READCDUK                              #        AXES TO FINAL S/C AXES
000438: 22,2007           03277                           STORE    BCDU                                  #  STORE INITIAL S/C ANGLES
000439: 22,2010           51535                           SLOAD    ABS                                   #  CHECK THE MAGNITUDE OF THE DESIRED
000440: 22,2011           00324                                    CPSI                                  #  MIDDLE GIMBAL ANGLE
000441: 22,2012           51025                           DSU      BPL
000442: 22,2013           04403                                    LOCKANGL                              #  IF GREATER THAN 70 DEG ABORT MANEUVER
000443: 22,2014           44724                                    TOOBADF
000444: 22,2015           72364                           AXC,2    TLOAD
000445: 22,2016           03246                                    MIS
000446: 22,2017           03277                                    BCDU
000447: 22,2020           77624                           CALL                                           #  COMPUTE THE TRANSFORMATION FROM INITIAL
000448: 22,2021           44410                                    CDUTODCM                              #  S/C AXES TO STABLE MEMBER AXES
000449: 22,2022           72364                           AXC,2    TLOAD
000450: 22,2023           02230                                    MFS                                   #  PREPARE TO CALCULATE ARRAY MFS
000451: 22,2024           00322                                    CPHI
000452: 22,2025           77624                           CALL
000453: 22,2026           44410                                    CDUTODCM
000454: 22,2027           45160        SECAD              AXC,1    CALL                                  #  MIS AND MFS ARRAYS CALCULATED         $2
000455: 22,2030           03246                                    MIS
000456: 22,2031           44326                                    TRANSPOS
000457: 22,2032           45575                           VLOAD    STADR
000458: 22,2033           50457                           STOVL    TMIS       +12D
000459: 22,2034           77626                           STADR
000460: 22,2035           50465                           STOVL    TMIS       +6
000461: 22,2036           77626                           STADR
000462: 22,2037           74473                           STORE    TMIS                                  #  TMIS = TRANSPOSE(MIS) SCALED BY 2
000463: 22,2040           75160                           AXC,1    AXC,2
000464: 22,2041           03303                                    TMIS
000465: 22,2042           02230                                    MFS
000466: 22,2043           77624                           CALL
000467: 22,2044           44312                                    MXM3
000468: 22,2045           45575                           VLOAD    STADR
000469: 22,2046           51532                           STOVL    MFI        +12D
000470: 22,2047           77626                           STADR
000471: 22,2050           51540                           STOVL    MFI        +6
000472: 22,2051           77626                           STADR
000473: 22,2052           75546                           STORE    MFI                                   #  MFI = TMIS MFS (SCALED BY 4)
000474: 22,2053           45001                           SETPD    CALL                                  #  TRANSPOSE MFI IN PD LIST


000476: 22,2054           00023                                    18D
000477: 22,2055           44335                                    TRNSPSPD
000478: 22,2056           45575                           VLOAD    STADR
000479: 22,2057           50457                           STOVL    TMFI       +12D
000480: 22,2060           77626                           STADR
000481: 22,2061           50465                           STOVL    TMFI       +6
000482: 22,2062           77626                           STADR
000483: 22,2063           74473                           STORE    TMFI                                  #  TMFI = TRANSPOSE (MFI) SCALED BY 4
000484:
000485:                                                                                                  #  CALCULATE COFSKEW AND MFISYM
000486:
000487: 22,2064           45345                           DLOAD    DSU
000488: 22,2065           03306                                    TMFI       +2
000489: 22,2066           02233                                    MFI        +2
000490: 22,2067           45325                           PDDL     DSU                                   #  CALCULATE COF SCALED BY 2/SIN(AM)
000491: 22,2070           02235                                    MFI        +4
000492: 22,2071           03310                                    TMFI       +4
000493: 22,2072           45325                           PDDL     DSU
000494: 22,2073           03316                                    TMFI       +10D
000495: 22,2074           02243                                    MFI        +10D
000496: 22,2075           77666                           VDEF
000497: 22,2076           03326                           STORE    COFSKEW                               #  EQUALS MFISKEW
000498:
000499:                                                                                                  #  CALCULATE AM AND PROCEED ACCORDING TO ITS MAGNITUDE
000500:
000501: 22,2077           43345                           DLOAD    DAD
000502: 22,2100           02231                                    MFI
000503: 22,2101           02251                                    MFI        +16D
000504: 22,2102           43225                           DSU      DAD
000505: 22,2103           06512                                    DP1/4TH
000506: 22,2104           02241                                    MFI        +8D
000507: 22,2105           03334                           STORE    CAM                                   #  CAM = (MFI0+MFI4+MFI8-1)/2 HALF SCALE
000508: 22,2106           77726                           ARCCOS
000509: 22,2107           03336                           STORE    AM                                    #  AM=ARCCOS(CAM)        (AM SCALED BY 2)
000510: 22,2110           51025                           DSU      BPL
000511: 22,2111           04363                                    MINANG
000512: 22,2112           44117                                    CHECKMAX
000513: 22,2113           77751                           TLOAD                                          #  MANEUVER LESS THAN .25 DEGREES
000514: 22,2114           00322                                    CPHI                                  #  GO DIRECTLY INTO ATTITUDE HOLD
000515: 22,2115           37236                           STCALL   CDUXD                                 #  ABOUT COMMANDED ANGLES
000516: 22,2116           44742                                    TOOBADI                               #  STOP RATE AND EXIT
000517:
000518: 22,2117           45345        CHECKMAX           DLOAD    DSU
000519: 22,2120           03336                                    AM
000520: 22,2121           04365                                    MAXANG
000521: 22,2122           77244                           BPL      VLOAD
000522: 22,2123           44131                                    ALTCALC                               #  UNIT
000523: 22,2124           03326                                    COFSKEW                               #  COFSKEW
000524: 22,2125           77656                           UNIT
000525: 22,2126           03271                           STORE    COF                                   #  COF IS THE MANEUVER AXIS


000527: 22,2127           77650                           GOTO                                           #  SEE IF MANEUVER GOES THRU GIMBAL LOCK
000528: 22,2130           44744                                    LOCSKIRT
000529: 22,2131           53375        ALTCALC            VLOAD    VAD                                   #  IF AM GREATER THAN 170 DEGREES
000530: 22,2132           02231                                    MFI
000531: 22,2133           03304                                    TMFI
000532: 22,2134           77762                           VSR1
000533: 22,2135           27304                           STOVL    MFISYM
000534: 22,2136           02237                                    MFI        +6
000535: 22,2137           74455                           VAD      VSR1
000536: 22,2140           03312                                    TMFI       +6
000537: 22,2141           27312                           STOVL    MFISYM     +6
000538: 22,2142           02245                                    MFI        +12D
000539: 22,2143           74455                           VAD      VSR1
000540: 22,2144           03320                                    TMFI       +12D
000541: 22,2145           03320                           STORE    MFISYM     +12D                       #  MFISYM=(MFI+TMFI)/2   SCALED BY 4
000542:
000543:                                                                                                  #  CALCULATE COF
000544:
000545: 22,2146           70545                           DLOAD    SR1
000546: 22,2147           03334                                    CAM
000547: 22,2150           45325                           PDDL     DSU                                   #  PDO CAM                               $4
000548: 22,2151           06520                                    DPHALF
000549: 22,2152           03334                                    CAM
000550: 22,2153           65204                           BOVB     PDDL                                  #  PD2 1 - CAM                           $2
000551: 22,2154           21712                                    SIGNMPAC
000552: 22,2155           03324                                    MFISYM     +16D
000553: 22,2156           56225                           DSU      DDV
000554: 22,2157           00001                                    0
000555: 22,2160           00003                                    2
000556: 22,2161           65366                           SQRT     PDDL                                  #  COFZ = SQRT(MFISYM8-CAM)/1-CAM)
000557: 22,2162           03314                                    MFISYM     +8D                        #                                $ ROOT 2
000558: 22,2163           56225                           DSU      DDV
000559: 22,2164           00001                                    0
000560: 22,2165           00003                                    2
000561: 22,2166           65366                           SQRT     PDDL                                  #  COFY = SQRT(MFISYM4-CAM)/(1-CAM)  $ROOT2
000562: 22,2167           03304                                    MFISYM
000563: 22,2170           56225                           DSU      DDV
000564: 22,2171           00001                                    0
000565: 22,2172           00003                                    2
000566: 22,2173           55566                           SQRT     VDEF                                  #  COFX = SQRT(MFISYM-CAM)/(1-CAM)  $ROOT 2
000567: 22,2174           77656                           UNIT
000568: 22,2175           03271                           STORE    COF
000569:
000570:                                                                                                  #  DETERMINE LARGEST COF AND ADJUST ACCORDINGLY
000571:
000572: 22,2176           45345        COFMAXGO           DLOAD    DSU
000573: 22,2177           03271                                    COF
000574: 22,2200           03273                                    COF        +2
000575: 22,2201           71240                           BMN      DLOAD                                 #  COFY G COFX


000577: 22,2202           44211                                    COMP12
000578: 22,2203           03271                                    COF
000579: 22,2204           50025                           DSU      BMN
000580: 22,2205           03275                                    COF        +4
000581: 22,2206           44266                                    METHOD3                               #  COFZ G COFX OR COFY
000582: 22,2207           77650                           GOTO
000583: 22,2210           44242                                    METHOD1                               #  COFX G COFY OR COFZ
000584: 22,2211           45345        COMP12             DLOAD    DSU
000585: 22,2212           03273                                    COF        +2
000586: 22,2213           03275                                    COF        +4
000587: 22,2214           77640                           BMN
000588: 22,2215           44266                                    METHOD3                               #  COFZ G COFY OR COFX
000589:
000590: 22,2216           51145        METHOD2            DLOAD    BPL                                   #  COFY MAX
000591: 22,2217           03330                                    COFSKEW    +2                         #  UY
000592: 22,2220           44224                                    U2POS
000593: 22,2221           57575                           VLOAD    VCOMP
000594: 22,2222           03271                                    COF
000595: 22,2223           03271                           STORE    COF
000596: 22,2224           51145        U2POS              DLOAD    BPL
000597: 22,2225           03306                                    MFISYM     +2                         #  UX UY
000598: 22,2226           44232                                    OKU21
000599: 22,2227           57545                           DLOAD    DCOMP                                 #  SIGN OF UX OPPOSITE TO UY
000600: 22,2230           03271                                    COF
000601: 22,2231           03271                           STORE    COF
000602: 22,2232           51145        OKU21              DLOAD    BPL
000603: 22,2233           03316                                    MFISYM     +10D                       #  UY UZ
000604: 22,2234           44744                                    LOCSKIRT
000605: 22,2235           57545                           DLOAD    DCOMP                                 #  SIGN OF UZ OPPOSITE TO UY
000606: 22,2236           03275                                    COF        +4
000607: 22,2237           03275                           STORE    COF        +4
000608: 22,2240           77650                           GOTO
000609: 22,2241           44744                                    LOCSKIRT
000610: 22,2242           51145        METHOD1            DLOAD    BPL                                   #  COFX MAX
000611: 22,2243           03326                                    COFSKEW                               #  UX
000612: 22,2244           44250                                    U1POS
000613: 22,2245           57575                           VLOAD    VCOMP
000614: 22,2246           03271                                    COF
000615: 22,2247           03271                           STORE    COF
000616: 22,2250           51145        U1POS              DLOAD    BPL
000617: 22,2251           03306                                    MFISYM     +2                         #  UX UY
000618: 22,2252           44256                                    OKU12
000619: 22,2253           57545                           DLOAD    DCOMP
000620: 22,2254           03273                                    COF        +2                         #  SIGN OF UY OPPOSITE TO UX
000621: 22,2255           03273                           STORE    COF        +2
000622: 22,2256           51145        OKU12              DLOAD    BPL
000623: 22,2257           03310                                    MFISYM     +4                         #  UX UZ
000624: 22,2260           44744                                    LOCSKIRT
000625: 22,2261           57545                           DLOAD    DCOMP                                 #  SIGN OF UZ OPPOSITE TO UY
000626: 22,2262           03275                                    COF        +4


000628: 22,2263           03275                           STORE    COF        +4
000629: 22,2264           77650                           GOTO
000630: 22,2265           44744                                    LOCSKIRT
000631: 22,2266           51145        METHOD3            DLOAD    BPL                                   #  COFZ MAX
000632: 22,2267           03332                                    COFSKEW    +4                         #  UZ
000633: 22,2270           44274                                    U3POS
000634: 22,2271           57575                           VLOAD    VCOMP
000635: 22,2272           03271                                    COF
000636: 22,2273           03271                           STORE    COF
000637: 22,2274           51145        U3POS              DLOAD    BPL
000638: 22,2275           03310                                    MFISYM     +4                         #  UX UZ
000639: 22,2276           44302                                    OKU31
000640: 22,2277           57545                           DLOAD    DCOMP
000641: 22,2300           03271                                    COF                                   #  SIGN OF UX OPPOSITE TO UZ
000642: 22,2301           03271                           STORE    COF
000643: 22,2302           51145        OKU31              DLOAD    BPL
000644: 22,2303           03316                                    MFISYM     +10D                       #  UY UZ
000645: 22,2304           44744                                    LOCSKIRT
000646: 22,2305           57545                           DLOAD    DCOMP
000647: 22,2306           03273                                    COF        +2                         #  SIGN OF UY OPPOSITE TO UZ
000648: 22,2307           03273                           STORE    COF        +2
000649: 22,2310           77650                           GOTO
000650: 22,2311           44744                                    LOCSKIRT


000652:                                                                                                  #  MATRIX OPERATIONS
000653:
000654: 13,2207                                           BANK     13
000655: 22,2000                                           SETLOC   KALCMON2
000656: 22,2000                                           BANK
000657:
000658: 22,2312  E6,1676                                  EBANK=   BCDU
000659:
000660: 22,2312           76601        MXM3               SETPD    VLOAD*                                #  MXM3 MULTIPLIES 2 3X3 MATRICES
000661: 22,2313           00001                                    0                                     #  AND LEAVES RESULT IN PD LIST
000662: 22,2314           00001                                    0,1                                   #  AND MPAC
000663: 22,2315           62703                           VXM*     PDVL*
000664: 22,2316           77776                                    0,2
000665: 22,2317           00007                                    6,1
000666: 22,2320           62703                           VXM*     PDVL*
000667: 22,2321           77776                                    0,2
000668: 22,2322           00015                                    12D,1
000669: 22,2323           41503                           VXM*     PUSH
000670: 22,2324           77776                                    0,2
000671: 22,2325           77616                           RVQ
000672:
000673:                                                                                                  #  RETURN WITH M1XM2 IN PD LIST
000674:
000675: 22,2326           76601        TRANSPOS           SETPD    VLOAD*                                #  TRANSPOS TRANSPOSES A 3X3 MATRIX
000676: 22,2327           00001                                    0                                     #        AND LEAVES RESULT IN PD LIST
000677: 22,2330           00001                                    0,1                                   #  MATRIX ADDRESS IN XR1
000678: 22,2331           62713                           PDVL*    PDVL*
000679: 22,2332           00007                                    6,1
000680: 22,2333           00015                                    12D,1
000681: 22,2334           77606                           PUSH                                           #  MATRIX IN PD
000682: 22,2335           77776        TRNSPSPD           EXIT                                           #  ENTER WITH MATRIX AT 0 IN PD LIST
000683: 22,2336           50120                           INDEX    FIXLOC
000684: 22,2337           52013                           DXCH     12
000685: 22,2340           50120                           INDEX    FIXLOC
000686: 22,2341           52017                           DXCH     16
000687: 22,2342           50120                           INDEX    FIXLOC
000688: 22,2343           52013                           DXCH     12
000689: 22,2344           50120                           INDEX    FIXLOC
000690: 22,2345           52015                           DXCH     14
000691: 22,2346           50120                           INDEX    FIXLOC
000692: 22,2347           52005                           DXCH     4
000693: 22,2350           50120                           INDEX    FIXLOC
000694: 22,2351           52015                           DXCH     14
000695: 22,2352           50120                           INDEX    FIXLOC
000696: 22,2353           52003                           DXCH     2
000697: 22,2354           50120                           INDEX    FIXLOC
000698: 22,2355           52007                           DXCH     6
000699: 22,2356           50120                           INDEX    FIXLOC
000700: 22,2357           52003                           DXCH     2


000702: 22,2360           06037                           TC       INTPRET
000703: 22,2361           77616                           RVQ
000704:
000705: 15,2050                                           BANK     15
000706: 22,2000                                           SETLOC   KALCMON1
000707: 22,2000                                           BANK
000708:
000709: 22,2362  E6,1676                                  EBANK=   BCDU
000710:
000711: 22,2362           00013 13563  MINANG             2DEC     0.00069375
000712:
000713: 22,2364           17070 34343  MAXANG             2DEC     0.472222222
000714:
000715:                                                                                                  #  GIMBAL LOCK CONSTANTS
000716:
000717:                                                                                                  #  D = MGA CORRESPONDING TO GIMBAL LOCK = 60 DEGREES
000718:                                                                                                  #        NGL = BUFFER ANGLE (TO AVOID DIVISIONS BY ZERO) = 2 DEGREES
000719:
000720: 22,2366           15666 20443  SD                 2DEC     .433015                               #  = SIN(D)                      $2
000721:
000722: 22,2370           33555 01106  K3S1               2DEC     .86603                                #  = SIN(D)                      $1
000723:
000724: 22,2372           67777 77777  K4                 2DEC     -.25                                  #  = -COS(D)                     $2
000725:
000726: 22,2374           04000 00000  K4SQ               2DEC     .125                                  #  = COS(D)COS(D)                $2
000727:
000728: 22,2376           00216 36323  SNGLCD             2DEC     .008725                               #  = SIN(NGL)COS(D)              $2
000729:
000730: 22,2400           17773 00057  CNGL               2DEC     .499695                               #  COS(NGL)                      $2
000731:
000732: 22,2402           14344        LOCKANGL           DEC      .388889                               #  = 70 DEGREES
000733:
000734:                                                                                                  #  INTERPRETIVE SUBROUTINE TO READ THE CDU ANGLES
000735:
000736: 22,2403           30034        READCDUK           CA       CDUZ                                  #  LOAD T(MPAC) WITH CDU ANGLES
000737: 22,2404           54156                           TS       MPAC       +2
000738: 22,2405           00006                           EXTEND
000739: 22,2406           30033                           DCA      CDUX                                  #  AND CHANGE MODE TO TRIPLE PRECISION
000740: 22,2407           16476                           TCF      TLOAD      +6
000741:
000742: 22,2410           66370        CDUTODCM           AXT,1    SSP
000743: 22,2411           00003                           OCT      3
000744: 22,2412           00051                                    S1
000745: 22,2413           00001                           OCT      1                                     #  SET XR1, S1, AND PD FOR LOOP
000746: 22,2414           00010                           STORE    7
000747: 22,2415           77601                           SETPD
000748: 22,2416           00001                                    0
000749: 22,2417           47133        LOOPSIN            SLOAD*   RTB
000750: 22,2420           00013                                    10D,1
000751: 22,2421           21576                                    CDULOGIC


000753: 22,2422           00013                           STORE    10D                                   #  LOAD PD WITH  0 SIN(PHI)
000754: 22,2423           65356                           SIN      PDDL                                  #                2 COS(PHI)
000755: 22,2424           00013                                    10D                                   #                4 SIN(THETA)
000756: 22,2425           41546                           COS      PUSH                                  #                6 COS(THETA)
000757: 22,2426           71300                           TIX,1    DLOAD                                 #                8 SIN(PSI)
000758: 22,2427           44417                                    LOOPSIN                               #                10 COS(PSI)
000759: 22,2430           00007                                    6
000760: 22,2431           72405                           DMP      SL1
000761: 22,2432           00013                                    10D
000762: 22,2433           10001                           STORE    0,2                                   #  C0 = COS(THETA)COS(PSI)
000763: 22,2434           41345                           DLOAD    DMP
000764: 22,2435           00005                                    4
000765: 22,2436           00001                                    0
000766: 22,2437           41325                           PDDL     DMP                                   #  (PD6 SIN(THETA)SIN(PHI))
000767: 22,2440           00007                                    6
000768: 22,2441           00011                                    8D
000769: 22,2442           72405                           DMP      SL1
000770: 22,2443           00003                                    2
000771: 22,2444           72421                           BDSU     SL1
000772: 22,2445           00015                                    12D
000773: 22,2446           10003                           STORE    2,2                                   #  C1=-COS(THETA)SIN(PSI)COS(PHI)
000774: 22,2447           41345                           DLOAD    DMP
000775: 22,2450           00003                                    2
000776: 22,2451           00005                                    4
000777: 22,2452           41325                           PDDL     DMP                                   #  (PD7 COS(PHI)SIN(THETA)) SCALED 4
000778: 22,2453           00007                                    6
000779: 22,2454           00011                                    8D
000780: 22,2455           72405                           DMP      SL1
000781: 22,2456           00001                                    0
000782: 22,2457           72415                           DAD      SL1
000783: 22,2460           00017                                    14D
000784: 22,2461           10005                           STORE    4,2                                   #  C2=COS(THETA)SIN(PSI)SIN(PHI)
000785: 22,2462           77745                           DLOAD
000786: 22,2463           00011                                    8D
000787: 22,2464           10007                           STORE    6,2                                   #  C3=SIN(PSI)
000788: 22,2465           77745                           DLOAD
000789: 22,2466           00013                                    10D
000790: 22,2467           72405                           DMP      SL1
000791: 22,2470           00003                                    2
000792: 22,2471           10011                           STORE    8D,2                                  #  C4=COS(PSI)COS(PHI)
000793: 22,2472           41345                           DLOAD    DMP
000794: 22,2473           00013                                    10D
000795: 22,2474           00001                                    0
000796: 22,2475           72476                           DCOMP    SL1
000797: 22,2476           10013                           STORE    10D,2                                 #  C5=-COS(PSI)SIN(PHI)
000798: 22,2477           41345                           DLOAD    DMP
000799: 22,2500           00005                                    4
000800: 22,2501           00013                                    10D
000801: 22,2502           72476                           DCOMP    SL1
000802: 22,2503           10015                           STORE    12D,2                                 #  C6=-SIN(THETA)COS(PSI)


000804: 22,2504           77745                           DLOAD
000805: 22,2505           72405                           DMP      SL1                                   #  (PUSH UP 7)
000806: 22,2506           00011                                    8D
000807: 22,2507           41325                           PDDL     DMP                                   #  (PD7 COS(PHI)SIN(THETA)SIN(PSI)) SCALE 4
000808: 22,2510           00007                                    6
000809: 22,2511           00001                                    0
000810: 22,2512           72415                           DAD      SL1                                   #  (PUSH UP 7)
000811: 22,2513           77626                           STADR                                          #  C7=COS(PHI)SIN(THETA)SIN(PSI)
000812: 22,2514           67760                           STORE    14D,2                                 #        +COS(THETA)SIN(PHI)
000813: 22,2515           77745                           DLOAD
000814: 22,2516           72405                           DMP      SL1                                   #  (PUSH UP 6)
000815: 22,2517           00011                                    8D
000816: 22,2520           41325                           PDDL     DMP                                   #  (PD6 SIN(THETA)SIN(PHI)SIN(PSI)) SCALE 4
000817: 22,2521           00007                                    6
000818: 22,2522           00003                                    2
000819: 22,2523           72425                           DSU      SL1                                   #  (PUSH UP 6)
000820: 22,2524           77626                           STADR
000821: 22,2525           67756                           STORE    16D,2                                 #  C8=-SIN(THETA)SIN(PHI)SIN(PSI)
000822: 22,2526           77616                           RVQ                                            #  +COS(THETA)COS(PHI)
000823:
000824:                                                                                                  #  CALCULATION OF THE MATRIX DEL......
000825:
000826:                                                                                                  #         *         *           --T           *
000827:                                                                                                  #        DEL = (IDMATRIX)COS(A)+UU (1-COS(A))+UX SIN(A)          SCALED 1
000828:                                                                                                  #              -
000829:                                                                                                  #        WHERE U IS A UNIT VECTOR (DP SCALED 2) ALONG THE AXIS OF ROTATION.
000830:                                                                                                  #        A IS THE ANGLE OF ROTATION (DP SCALED 2)
000831:                                                                                                  #                                            -
000832:                                                                                                  #        UPON ENTRY THE STARTING ADDRESS OF U IS COF, AND A IS IN MPAC
000833:
000834: 22,2527           41401        DELCOMP            SETPD    PUSH                                  #  MPAC CONTAINS THE ANGLE A
000835: 22,2530           00001                                    0
000836: 22,2531           65356                           SIN      PDDL                                  #  PD0 = SIN(A)
000837: 22,2532           41546                           COS      PUSH                                  #  PD2 = COS(A)
000838: 22,2533           65302                           SR2      PDDL                                  #  PD2 = COS(A)                          $8
000839: 22,2534           41021                           BDSU     BOVB
000840: 22,2535           06520                                    DPHALF
000841: 22,2536           21712                                    SIGNMPAC
000842: 22,2537           77725                           PDDL                                           #  PD4 = 1-COS(A)
000843:
000844:                                                                                                  #  COMPUTE THE DIAGONAL COMPONENTS OF DEL
000845:
000846: 22,2540           03271                                    COF
000847: 22,2541           41316                           DSQ      DMP
000848: 22,2542           00005                                    4
000849: 22,2543           52415                           DAD      SL3
000850: 22,2544           00003                                    2
000851: 22,2545           77604                           BOVB
000852: 22,2546           21712                                    SIGNMPAC


000854: 22,2547           16231                           STODL    KEL                                   #  UX UX(1-COS(A)) +COS(A)               $1
000855: 22,2550           03273                                    COF        +2
000856: 22,2551           41316                           DSQ      DMP
000857: 22,2552           00005                                    4
000858: 22,2553           52415                           DAD      SL3
000859: 22,2554           00003                                    2
000860: 22,2555           77604                           BOVB
000861: 22,2556           21712                                    SIGNMPAC
000862: 22,2557           16241                           STODL    KEL        +8D                        #  UY UY(1-COS(A)) +COS(A)               $1
000863: 22,2560           03275                                    COF        +4
000864: 22,2561           41316                           DSQ      DMP
000865: 22,2562           00005                                    4
000866: 22,2563           52415                           DAD      SL3
000867: 22,2564           00003                                    2
000868: 22,2565           77604                           BOVB
000869: 22,2566           21712                                    SIGNMPAC
000870: 22,2567           02251                           STORE    KEL        +16D                       #  UZ UZ(1-COS(A)) +COS(A)               $1
000871:
000872:                                                                                                  #  COMPUTE THE OFF DIAGONAL TERMS OF DEL
000873:
000874: 22,2570           41345                           DLOAD    DMP
000875: 22,2571           03271                                    COF
000876: 22,2572           03273                                    COF        +2
000877: 22,2573           72405                           DMP      SL1
000878: 22,2574           00005                                    4
000879: 22,2575           41325                           PDDL     DMP                                   #  D6     UX UY (1-COS A)                $4
000880: 22,2576           03275                                    COF        +4
000881: 22,2577           00001                                    0
000882: 22,2600           43206                           PUSH     DAD                                   #  D8    UZ SIN A                        $4
000883: 22,2601           00007                                    6
000884: 22,2602           41112                           SL2      BOVB
000885: 22,2603           21712                                    SIGNMPAC
000886: 22,2604           16237                           STODL    KEL        +6
000887: 22,2605           62421                           BDSU     SL2
000888: 22,2606           77604                           BOVB
000889: 22,2607           21712                                    SIGNMPAC
000890: 22,2610           16233                           STODL    KEL        +2
000891: 22,2611           03271                                    COF
000892: 22,2612           41205                           DMP      DMP
000893: 22,2613           03275                                    COF        +4
000894: 22,2614           00005                                    4
000895: 22,2615           65352                           SL1      PDDL                                  #  D6    UX UZ (1-COS A)                 $4
000896: 22,2616           03273                                    COF        +2
000897: 22,2617           41405                           DMP      PUSH                                  #  D8    UY SIN(A)
000898: 22,2620           00001                                    0
000899: 22,2621           62415                           DAD      SL2
000900: 22,2622           00007                                    6
000901: 22,2623           77604                           BOVB
000902: 22,2624           21712                                    SIGNMPAC
000903: 22,2625           16235                           STODL    KEL        +4                         #  UX UZ (1-COS(A))+UY SIN(A)


000905: 22,2626           62421                           BDSU     SL2
000906: 22,2627           77604                           BOVB
000907: 22,2630           21712                                    SIGNMPAC
000908: 22,2631           16245                           STODL    KEL        +12D                       #  UX UZ (1-COS(A))-UY SIN(A)
000909: 22,2632           03273                                    COF        +2
000910: 22,2633           41205                           DMP      DMP
000911: 22,2634           03275                                    COF        +4
000912: 22,2635           00005                                    4
000913: 22,2636           65352                           SL1      PDDL                                  #  D6    UY UZ (1-COS(A))                $ 4
000914: 22,2637           03271                                    COF
000915: 22,2640           41405                           DMP      PUSH                                  #  D8    UX SIN(A)
000916: 22,2641           00001                                    0
000917: 22,2642           62415                           DAD      SL2
000918: 22,2643           00007                                    6
000919: 22,2644           77604                           BOVB
000920: 22,2645           21712                                    SIGNMPAC
000921: 22,2646           16247                           STODL    KEL        +14D                       #  UY UZ(1-COS(A)) +UX SIN(A)
000922: 22,2647           62421                           BDSU     SL2
000923: 22,2650           77604                           BOVB
000924: 22,2651           21712                                    SIGNMPAC
000925: 22,2652           02243                           STORE    KEL        +10D                       #  UY UZ (1-COS(A)) -UX SIN(A)
000926: 22,2653           77616                           RVQ
000927:
000928:                                                                                                  #  DIRECTION COSINE MATRIX TO CDU ANGLE ROUTINE
000929:                                                                                                  #  X1 CONTAINS THE COMPLEMENT OF THE STARTING ADDRESS FOR MATRIX (SCALED 2)
000930:                                                                                                  #  LEAVES CDU ANGLES SCALED 2PI IN V(MPAC)
000931:                                                                                                  #  COS(MGA) WILL BE LEFT IN S1 (SCALED 1)
000932:
000933:                                                                                                  #  THE DIRECTION COSINE MATRIX RELATING S/C AXES TO STABLE MEMBER AXES CAN BE WRITTEN AS***
000934:
000935:                                                                                                  #        C  = COS(THETA) COS(PSI)
000936:                                                                                                  #         0
000937:
000938:                                                                                                  #        C  = -COS(THETA) SIN(PSI) COS(PHI) + SI (THETA) SIN(PHI)
000939:                                                                                                  #         1
000940:
000941:                                                                                                  #        C  = COS(THETA) SIN(PSI) SIN(PHI) + S N(THETA) COS(PHI)
000942:                                                                                                  #         2
000943:
000944:                                                                                                  #        C  = SIN(PSI)
000945:                                                                                                  #         3
000946:
000947:                                                                                                  #        C  = COS(PSI) COS(PHI)
000948:                                                                                                  #         4
000949:
000950:                                                                                                  #        C  = -COS(PSI) SIN(PHI)
000951:                                                                                                  #         5
000952:
000953:                                                                                                  #        C  = -SIN(THETA) COS(PSI)
000954:                                                                                                  #         6
000955:
000956:                                                                                                  #        C  = SIN(THETA) SIN(PSI) COS(PHI) + COS THETA) SIN(PHI)
000957:                                                                                                  #         7
000958:
000959:                                                                                                  #        C  = -SIN(THETA) SIN(PSI) SIN(PHI) + CO (THETA)COS(PHI)
000960:                                                                                                  #         8


000962:
000963:                                                                                                  #  WHERE PHI = OGA
000964:                                                                                                  #        THETA = IGA
000965:                                                                                                  #        PSI = MGA
000966:
000967: 22,2654           67543        DCMTOCDU           DLOAD*   ARCSIN
000968: 22,2655           00007                                    6,1
000969: 22,2656           71406                           PUSH     COS                                   #  PD +0         PSI
000970: 22,2657           41152                           SL1      BOVB
000971: 22,2660           21712                                    SIGNMPAC
000972: 22,2661           00051                           STORE    S1
000973: 22,2662           57543                           DLOAD*   DCOMP
000974: 22,2663           00015                                    12D,1
000975: 22,2664           67471                           DDV      ARCSIN
000976: 22,2665           00051                                    S1
000977: 22,2666           51123                           PDDL*    BPL                                   #  PD +2         THETA
000978: 22,2667           00001                                    0,1                                   #  MUST CHECK THE SIGN OF COS(THETA)
000979: 22,2670           44702                                    OKTHETA                               #  TO DETERMINE THE PROPER QUADRANT
000980: 22,2671           57545                           DLOAD    DCOMP
000981: 22,2672           43244                           BPL      DAD
000982: 22,2673           44677                                    SUHALFA
000983: 22,2674           06520                                    DPHALF
000984: 22,2675           77650                           GOTO
000985: 22,2676           44701                                    CALCPHI
000986: 22,2677           77625        SUHALFA            DSU
000987: 22,2700           06520                                    DPHALF
000988: 22,2701           77606        CALCPHI            PUSH
000989: 22,2702           57543        OKTHETA            DLOAD*   DCOMP
000990: 22,2703           00013                                    10D,1
000991: 22,2704           67471                           DDV      ARCSIN
000992: 22,2705           00051                                    S1
000993: 22,2706           51123                           PDDL*    BPL                                   #  PUSH DOWN PHI
000994: 22,2707           00011                                    8D,1
000995: 22,2710           44722                                    OKPHI
000996: 22,2711           57545                           DLOAD    DCOMP                                 #  PUSH UP PHI
000997: 22,2712           43244                           BPL      DAD
000998: 22,2713           44717                                    SUHALFAP
000999: 22,2714           06520                                    DPHALF
001000: 22,2715           77650                           GOTO
001001: 22,2716           44723                                    VECOFANG
001002: 22,2717           52025        SUHALFAP           DSU      GOTO
001003: 22,2720           06520                                    DPHALF
001004: 22,2721           44723                                    VECOFANG
001005: 22,2722           77745        OKPHI              DLOAD                                          #  PUSH UP PHI
001006: 22,2723           43466        VECOFANG           VDEF     RVQ


001008:                                                                                                  #  ROUTINES FOR TERMINATING THE AUTOMATIC MANEUVER AND RETURNING TO USER
001009:
001010: 22,2724           77776        TOOBADF            EXIT
001011: 22,2725           05567                           TC       ALARM
001012: 22,2726           00401                           OCT      00401
001013:
001014: 22,2727           12732                           TCF      NOGO                                  #  DO NOT ZERO ATTITUDE ERRORS
001015:
001016: 22,2730           04616                           TC       BANKCALL
001017: 22,2731           40153                           CADR     ZATTEROR                              #  ZERO ATTITUDE ERRORS
001018:
001019: 22,2732           04616        NOGO               TC       BANKCALL
001020: 22,2733           40165                           CADR     STOPRATE                              #  STOP RATES
001021:
001022: 22,2734           34752                           CAF      TWO
001023: 22,2735           00004                           INHINT                                         #  ALL RETURNS ARE NOW MADE VIA GOODEND
001024: 22,2736           05203                           TC       WAITLIST
001025: 22,2737  E6,1676                                  EBANK=   BCDU
001026: 22,2737           03234 44066                     2CADR    GOODMANU
001027:
001028: 22,2741           15155                           TCF      ENDOFJOB
001029:
001030: 22,2742           77776        TOOBADI            EXIT
001031: 22,2743           12732                           TCF      NOGO
001032:
001033:

End of include-file ATTITUDE_MANEUVER_ROUTINE.agc.  Parent file is MAIN.agc


