
Source Code


000002:                                                                                                  ## Copyright:   Public domain.
000003:                                                                                                  ## Filename:    ATTITUDE_MANEUVER_ROUTINE.agc
000004:                                                                                                  ## Purpose:     Part of the source code for Luminary 1A build 099.
000005:                                                                                                  ##              It is part of the source code for the Lunar Module's (LM)
000006:                                                                                                  ##              Apollo Guidance Computer (AGC), for Apollo 11.
000007:                                                                                                  ## Assembler:   yaYUL
000008:                                                                                                  ## Contact:     Ron Burkey <info@sandroid.org>.
000009:                                                                                                  ## Website:     www.ibiblio.org/apollo.
000010:                                                                                                  ## Pages:       342-363
000011:                                                                                                  ## Mod history: 2009-05-16 RSB  Adapted from the corresponding
000012:                                                                                                  ##                              Luminary131 file, using page
000013:                                                                                                  ##                              images from Luminary 1A.
000014:                                                                                                  ##              2016-12-14 RSB  Proofed text comments with octopus/ProoferComments
000015:                                                                                                  ##                              and corrected the errors found.
000016:                                                                                                  ##
000017:                                                                                                  ## This source code has been transcribed or otherwise adapted from
000018:                                                                                                  ## digitized images of a hardcopy from the MIT Museum.  The digitization
000019:                                                                                                  ## was performed by Paul Fjeld, and arranged for by Deborah Douglas of
000020:                                                                                                  ## the Museum.  Many thanks to both.  The images (with suitable reduction
000021:                                                                                                  ## in storage size and consequent reduction in image quality as well) are
000022:                                                                                                  ## available online at www.ibiblio.org/apollo.  If for some reason you
000023:                                                                                                  ## find that the images are illegible, contact me at info@sandroid.org
000024:                                                                                                  ## about getting access to the (much) higher-quality images which Paul
000025:                                                                                                  ## actually created.
000026:                                                                                                  ##
000027:                                                                                                  ## Notations on the hardcopy document read, in part:
000028:                                                                                                  ##
000029:                                                                                                  ##      Assemble revision 001 of AGC program LMY99 by NASA 2021112-61
000030:                                                                                                  ##      16:27 JULY 14, 1969
000031:


000033:                                                                                                  #  BLOCK 2 LGC ATTITUDE MANEUVER ROUTINE - KALCMANU
000034:
000035:                                                                                                  #  MOD 2         DATE 5/1/67     BY DON KEENE
000036:
000037:                                                                                                  #  PROGRAM DESCRIPTION
000038:
000039:                                                                                                  #       KALCMANU IS A ROUTINE WHICH GENERATES COMMANDS FOR THE LM DAP TO CHANGE THE ATTITUDE OF THE SPACECRAFT
000040:                                                                                                  #  DURING FREE FALL.  IT IS DESIGNED TO MANEUVER THE SPACECRAFT FROM ITS INITIAL ORIENTATION TO SOME DESIRED
000041:                                                                                                  #  ORIENTATION SPECIFIED BY THE PROGRAM WHICH CALLS KALCMANU, AVOIDING GIMBAL LOCK IN THE PROCESS.  IN THE
000042:                                                                                                  #  MOD 2 VERSION, THIS DESIRED ATTITUDE IS SPECIFIED BY A SET OF THREE COMMANDED CDU ANGLES STORED AS 2S COMPLEMENT
000043:                                                                                                  #  SINGLE PRECISION ANGLES IN THE THREE CONSECUTIVE LOCATIONS, CPHI, CTHETA, CPSI, WHERE
000044:
000045:                                                                                                  #        CPHI = COMMANDED OUTER GIMBAL ANGLE
000046:                                                                                                  #        CTHETA = COMMANDED INNER GIMBAL ANGLE
000047:                                                                                                  #        CPSI = COMMANDED MIDDLE GIMBAL ANGLE
000048:
000049:                                                                                                  #      WHEN POINTING A SPACECRAFT AXIS (E.I. X, Y, Z, THE AOT, THRUST AXIS, ETC) THE SUBROUTINE VECPOINT MAY BE
000050:                                                                                                  #  USED TO GENERATE THIS SET OF DESIRED CDU ANGLES (SEE DESCRIPTION IN R60)   -
000051:                                                                                                  #   WITH THIS INFORMATION KALCMANU DETERMINES THE DIRECTION OF THE SINGLE EQUIVALENT ROTATION (COF ALSO U) AND THE
000052:                                                                                                  #  MAGNITUDE OF THE ROTATION (AM) TO BRING THE S/C FROM ITS INITIAL ORIENTATION TO ITS FINAL ORIENTATION.
000053:                                                                                                  #  THIS DIRECTION REMAINS FIXED BOTH IN INERTIAL COORDINATES AND IN COMMANDED S/C AXES THROUGHOUT THE
000054:                                                                                                  #                   -
000055:                                                                                                  #  MANEUVER.  ONCE COF AND AM HAVE BEEN DETERMINED, KALCMANU THEN EXAMINES THE MANEUVER TO SEE IF IT WILL BRING
000056:                                                                                                  #                                       -
000057:                                                                                                  #  THE S/C THROUGH GIMBAL LOCK.  IF SO, COF AND AM ARE READJUSTED SO THAT THE S/C WILL JUST SKIM THE GIMBAL
000058:                                                                                                  #  LOCK ZONE AND ALIGN THE X-AXIS.  IN GENERAL A FINAL YAW ABOUT X WILL BE NECESSARY TO COMPLETE THE MANEUVER.
000059:                                                                                                  #  NEEDLESS TO SAY, NEITHER THE INITIAL NOR THE FINAL ORIENTATION CAN BE IN GIMBAL LOCK.
000060:
000061:                                                                                                  #       FOR PROPER ATTITUDE CONTROL THE DIGITAL AUTOPILOT MUST BE GIVEN AN ATTITUDE REFERENCE WHICH IT CAN TRACK.
000062:                                                                                                  #  KALCMANU DOES THIS BY GENERATING A REFERENCE OF DESIRED GIMBAL ANGLES (CDUXD, CDUYD, CDUZD) WHICH ARE UPDATED
000063:                                                                                                  #  EVERY ONE SECOND DURING THE MANEUVER.  TO ACHIEVE A SMOOTHER SEQUENCE OF COMMANDS BETWEEN SUCCESSIVE UPDATES,
000064:                                                                                                  #  THE PROGRAM ALSO GENERATES A SET OF INCREMENTAL CDU ANGLES (DELDCDU) TO BE ADDED TO CDU DESIRED BY THE DIGITAL
000065:                                                                                                  #  AUTOPILOT.  KALCMANU ALSO CALCULATES THE COMPONENT MANEUVER RATES (OMEGAPD, OMEGAQD, OMEGARD), WHICH CAN
000066:                                                                                                  #                                      -
000067:                                                                                                  #  BE DETERMINED SIMPLY BY MULTIPLYING COF BY SOME SCALAR (ARATE) CORRESPONDING TO THE DESIRED ROTATIONAL RATE.
000068:
000069:                                                                                                  #       AUTOMATIC MANEUVERS ARE TIMED WITH THE HELP OF WAITLIST SO THAT AFTER A SPECIFIED INTERVAL THE Y AND Z
000070:                                                                                                  #  DESIRED RATES ARE SET TO ZERO AND THE DESIRED CDU ANGLES (CDUYD, CDUZD) ARE SET EQUAL TO THE FINAL DESIRED CDU
000071:                                                                                                  #  ANGLES (CTHETA, CPSI).  IF ANY YAW REMAINS DUE TO GIMBAL LOCK AVOIDANCE, THE FINAL YAW MANEUVER IS
000072:                                                                                                  #  CALCULATED AND THE DESIRED YAW RATE SET TO SOME FIXED VALUE (ROLLRATE = + OR - 2 DEGREES PER SEC).
000073:                                                                                                  #  IN THIS CASE ONLY AN INCREMENTAL CDUX ANGLE (DELFROLL) IS SUPPLIED TO THE DAP.  AT THE END OF THE YAW
000074:                                                                                                  #  MANEUVER OR IN THE EVENT THAT THERE WAS NO FINAL YAW, CDUXD IS SET EQUAL TO CPHI AND THE X-AXIS DESIRED
000075:                                                                                                  #  RATE SET TO ZERO.  THUS, UPON COMPLETION OF THE MANEUVER THE S/C WILL FINISH UP IN A LIMIT CYCLE ABOUT THE
000076:                                                                                                  #  DESIRED FINAL GIMBAL ANGLES.
000077:
000078:                                                                                                  #  PROGRAM LOGIC FLOW
000079:
000080:                                                                                                  #       KALCMANU IS CALLED AS A HIGH PRIORITY JOB WITH ENTRY POINTS AT KALCMAN3 AND VECPOINT.  IT FIRST PICKS
000081:                                                                                                  #  UP THE CURRENT CDU ANGLES TO BE USED AS THE BASIS FOR ALL COMPUTATIONS INVOLVING THE INITIAL S/C ORIENTATION.


000083:                                                                                                  #  IT THEN DETERMINES THE DIRECTION COSINE MATRICES RELATING BOTH THE INITIAL AND FINAL S/C ORIENTATION TO STABLE
000084:                                                                                                  #                *   *                                                                               *
000085:                                                                                                  #  MEMBER AXES (MIS,MFS).  IT ALSO COMPUTES THE MATRIX RELATING FINAL S/C AXES TO INITIAL S/C AXES (MFI).  THE
000086:                                                                                                  #  ANGLE OF ROTATION (AM) IS THEN EXTRACTED FROM THIS MATRIX, AND TESTS ARE MADE TO DETERMINE IF
000087:
000088:                                                                                                  #        A)      AM LESS THAN .25 DEGREES (MINANG)
000089:                                                                                                  #        B)      AM GREATER THAN 170 DEGREES (MAXANG)
000090:
000091:                                                                                                  #  IF AM LESS THAN .25 DEGREES, NO COMPLICATED AUTOMATIC MANEUVERING IS NECESSARY.  THEREFORE WE CAN SIMPLY
000092:                                                                                                  #  SET CDU DESIRED EQUAL TO THE FINAL CDU DESIRED ANGLES AND TERMINATE THE JOB.
000093:
000094:                                                                                                  #  IF AM IS GREATER THAN .25 DEGREES BUT LESS THAN 170 DEGREES, THE AXES OF THE SINGLE EQUIVALENT ROTATION
000095:                                                                                                  #    -                                                       *
000096:                                                                                                  #  (COF) IS EXTRACTED FROM THE SKEW SYMMETRIC COMPONENTS OF MFI.                       *     *
000097:                                                                                                  #  IF AM GREATER THAN 170 DEGREES AN ALTERNATE METHOD EMPLOYING THE SYMMETRIC PART OF MFI (MFISYM) IS USED
000098:                                                                                                  #                -
000099:                                                                                                  #  TO DETERMINE COF.
000100:
000101:                                                                                                  #  THE PROGRAM THEN CHECKS TO SEE IF THE MANEUVER AS COMPUTED WILL BRING THE S/C THROUGH GIMBAL LOCK.  IF
000102:                                                                                                  #  SO, A NEW MANEUVER IS CALCULATED WHICH WILL JUST SKIM THE GIMBAL LOCK ZONE AND ALIGN THE S/C X-AXIS.  THIS
000103:                                                                                                  #  METHOD ASSURES THAT THE ADDITIONAL MANEUVERING TO AVOID GIMBAL LOCK WILL BE KEPT TO A MINIMUM.  SINCE A FINAL
000104:                                                                                                  #  P AXIS YAW WILL BE NECESSARY, A SWITCH IS RESET (STATE SWITCH 31) TO ALLOW FOR THE COMPUTATION OF THIS FINAL
000105:                                                                                                  #  YAW.
000106:
000107:                                                                                                  #  AS STATED PREVIOUSLY KALCMANU GENERATES A SEQUENCE OF DESIRED GIMBAL ANGLES WHICH ARE UPDATED EVERY
000108:                                                                                                  #                                                                                               -
000109:                                                                                                  #  SECOND.  THIS IS ACCOMPLISHED BY A SMALL ROTATION OF THE DESIRED S/C FRAME ABOUT THE VECTOR COF.  THE NEW
000110:                                                                                                  #  DESIRED REFERENCE MATRIX IS THEN,
000111:                                                                                                  #         *               *       *
000112:                                                                                                  #        MIS     =       MIS     DEL
000113:                                                                                                  #           N+1             N
000114:                                                                                                  #         *
000115:                                                                                                  #  WHERE DEL IS THE MATRIX CORRESPONDING TO THIS SMALL ROTATION.  THE NEW CDU ANGLES CAN THEN BE EXTRACTED
000116:                                                                                                  #        *
000117:                                                                                                  #  FROM MIS.
000118:
000119:                                                                                                  #  AT THE BEGINNING OF THE MANEUVER THE AUTOPILOT DESIRED RATES (OMEGAPD, OMEGAQD, OMEGARD) AND THE
000120:                                                                                                  #  MANEUVER TIMINGS ARE ESTABLISHED.  ON THE FIRST PASS AND ON ALL SUBSEQUENT UPDATES THE CDU DESIRED
000121:                                                                                                  #  ANGLES ARE LOADED WITH THE APPROPRIATE VALUES AND THE INCREMENTAL CDU ANGLES ARE COMPUTED.  THE AGC CLOCKS
000122:                                                                                                  #  (TIME1 AND TIME2) ARE THAN CHECKED TO SEE IF THE MANEUVER WILL TERMINATE BEFORE THE NEXT UPDATE.  IF
000123:                                                                                                  #  NOT, KALCMANU CALLS FOR ANOTHER UPDATE (RUN AS A JOB WITH PRIORITY TBD) IN ONE SECOND.  ANY DELAYS IN THIS
000124:                                                                                                  #  CALLING SEQUENCE ARE AUTOMATICALLY COMPENSATED IN CALLING FOR THE NEXT UPDATE.
000125:
000126:                                                                                                  #  IF IT IS FOUND THAT THE MANEUVER IS TO TERMINATE BEFORE THE NEXT UPDATE A ROUTINE IS CALLED (AS A WAIT-
000127:                                                                                                  #  LIST TASK) TO STOP THE MANEUVER AT THE APPROPRIATE TIME AS EXPLAINED ABOVE.
000128:


000130:                                                                                                  #  CALLING SEQUENCE
000131:
000132:                                                                                                  #  IN ORDER TO PERFORM A KALCMANU SUPERVISED MANEUVER, THE COMMANDED GIMBAL ANGLES MUST BE PRECOMPUTED AND
000133:                                                                                                  #  STORED IN LOCATIONS CPHI, CTHETA, CPSI.  THE USER'S PROGRAM MUST THEN CLEAR STATE SWITCH NO 33 TO ALLOW THE
000134:                                                                                                  #  ATTITUDE MANEUVER ROUTINE TO PERFORM ANY FINAL P-AXIS YAW INCURRED BY AVOIDING GIMBAL LOCK.  THE MANEUVER IS
000135:                                                                                                  #  THEN INITIATED BY ESTABLISHING THE FOLLOWING EXECUTIVE JOB
000136:                                                                                                  #                       *
000137:                                                                                                  #        CAF     PRIO XX
000138:                                                                                                  #                     --
000139:                                                                                                  #        INHINT
000140:                                                                                                  #        TC      FINDVAC
000141:                                                                                                  #        2CADR   KALCMAN3
000142:                                                                                                  #        RELINT
000143:
000144:                                                                                                  #  THE USER'S PROGRAM MAY EITHER CONTINUE OR WAIT FOR THE TERMINATION OF THE MANEUVER.  IF THE USER WISHES TO
000145:                                                                                                  #  WAIT, HE MAY PUT HIS JOB TO SLEEP WITH THE FOLLOWING INSTRUCTIONS
000146:
000147:                                                                                                  #        L       TC      BANKCALL
000148:                                                                                                  #        L+1     CADR    ATTSTALL
000149:                                                                                                  #        L+2     (BAD RETURN)
000150:                                                                                                  #        L+3     (GOOD RETURN)
000151:
000152:                                                                                                  #  UPON COMPLETION OF THE MANEUVER, THE PROGRAM WILL BE AWAKENED AT L+3 IF THE MANEUVER WAS COMPLETED
000153:                                                                                                  #  SUCCESSFULLY, OR AT L+2 IF THE MANEUVER WAS ABORTED.  THIS ABORT WOULD OCCUR IF THE INITIAL OR FINAL ATTITUDE
000154:                                                                                                  #  WAS IN GIMBAL LOCK.
000155:
000156:                                                                                                  #  *** NOTA BENE ***  IT IS ASSUMED THAT THE DESIRED MANEUVERING RATE (0.5, 2, 5, 10, DEG/SEC) HAS BEEN SELECTED BY
000157:                                                                                                  #  KEYBOARD ENTRY PRIOR TO THE EXECUTION OF KALCMANU.
000158:                                                                                                  #  IT IS ALSO ASSUMED THAT THE AUTOPILOT IS IN THE AUTO MODE.  IF THE MODE SWITCH IS CHANGED DURING THE
000159:                                                                                                  #  MANEUVER, KALCMANU WILL TERMINATE VIA GOODEND WITHIN 1 SECOND SO THAT R60 MAY REQUEST A TRIM OF THE S/C ATTITUDE
000160:                                                                                                  #  THIS IS THE ONLY MEANS FOR MANUALLY TERMINATING A KALCMANU SUPERVISED MANEUVER.
000161:                                                                                                  #  SUBROUTINES
000162:
000163:                                                                                                  #  KALCMANU USES A NUMBER OF INTERPRETIVE SUBROUTINES WHICH MAY BE OF GENERAL INTEREST.  SINCE THESE ROUTINES
000164:                                                                                                  #  WERE PROGRAMMED EXCLUSIVELY FOR KALCMANU, THEY ARE NOT, AS YET, GENERALLY AVAILABLE FOR USE BY OTHER PROGRAMS.
000165:
000166:                                                                                                  #  MXM3
000167:                                                                                                  #  ----
000168:
000169:                                                                                                  #  THIS SUBROUTINE MULTIPLIES TWO 3X3 MATRICES AND LEAVES THE RESULT IN THE FIRST 18 LOCATIONS OF THE PUSH
000170:                                                                                                  #  DOWN LIST, I.E.,
000171:                                                                                                  #                        ( M     M     M  )
000172:                                                                                                  #                        (  0     1     2 )
000173:                                                                                                  #        *               (                )              *               *
000174:                                                                                                  #        M       =       ( M     M     M  )      =       M1      X       M2
000175:                                                                                                  #                        (  3     4     5 )
000176:                                                                                                  #                        (                )
000177:                                                                                                  #                        ( M     M     M  )


000179:                                                                                                  #                        (  6     7     8 )
000180:                                                                                                  #                                                                                   *
000181:                                                                                                  #  INDEX REGISTER X1 MUST BE LOADED WITH THE COMPLEMENT OF THE STARTING ADDRESS FOR M1, AND X2 MUST BE
000182:                                                                                                  #                                                         *
000183:                                                                                                  #  LOADED WITH THE COMPLEMENT OF THE STARTING ADDRESS FOR M2.  THE ROUTINE USES THE FIRST 20 LOCATIONS OF THE PUSH
000184:                                                                                                  #  DOWN LIST.  THE FIRST ELEMENT OF THE MATRIX APPEARS IN PDO.  PUSH UP FOR M .
000185:                                                                                                  #                                                                            8
000186:                                                                                                  #  TRANSPOS
000187:                                                                                                  #  --------
000188:
000189:                                                                                                  #  THIS ROUTINE TRANSPOSES A 3X3 MATRIX AND LEAVES THE RESULT IN THE PUSH DOWN LIST, I.E.,
000190:                                                                                                  #
000191:                                                                                                  #        *               * T
000192:                                                                                                  #        M       =       M1
000193:
000194:                                                                                                  #  INDEX REGISTER X1 MUST CONTAIN THE COMPLEMENT OF THE STARTING ADDRESS FOR M1.  PUSH UP FOR THE FIRST AND SUB-
000195:                                                                                                  #                         *
000196:                                                                                                  #  SEQUENT COMPONENTS OF M.  THIS SUBROUTINE ALSO USES THE FIRST 20 LOCATIONS OF THE PUSH DOWN LIST.
000197:
000198:                                                                                                  #  CDU TO DCM
000199:                                                                                                  #  ----------
000200:
000201:                                                                                                  #  THIS SUBROUTINE CONVERTS THREE CDU ANGLES IN T(MPAC) TO A DIRECTION COSINE MATRIX (SCALED BY 2) RELATING
000202:                                                                                                  #  THE CORRESPONDING S/C ORIENTATIONS TO THE STABLE MEMBER FRAME.  THE FORMULAS FOR THIS CONVERSION ARE
000203:
000204:                                                                                                  #        M       =       COSY COSZ
000205:                                                                                                  #         0
000206:
000207:                                                                                                  #        M       =       -COSY SINZ COSX + SINY SINX
000208:                                                                                                  #         1
000209:
000210:                                                                                                  #        M       =       COSY SINZ SINX + SINY COSX
000211:                                                                                                  #         2
000212:
000213:                                                                                                  #        M       =       SINZ
000214:                                                                                                  #         3
000215:
000216:                                                                                                  #        M       =       COSZ COSX
000217:                                                                                                  #         4
000218:
000219:                                                                                                  #        M       =       -COSZ SINX
000220:                                                                                                  #         5
000221:
000222:                                                                                                  #        M       =       -SINY COSZ
000223:                                                                                                  #         6
000224:                                                                                                  #
000225:                                                                                                  #        M       =       SINY SINZ COSX + COSY SINX
000226:                                                                                                  #         7


000228:                                                                                                  #        M       =       -SINY SINZ SINX + COSY COSX
000229:                                                                                                  #         8
000230:
000231:                                                                                                  #  WHERE         X       =       OUTER GIMBAL ANGLE
000232:                                                                                                  #                Y       =       INNER GIMBAL ANGLE
000233:                                                                                                  #                Z       =       MIDDLE GIMBAL ANGLE
000234:
000235:                                                                                                  #  THE INTERPRETATION OF THIS MATRIX IS AS FOLLOWS
000236:
000237:                                                                                                  #  IF A , A , A  REPRESENT THE COMPONENTS OF A VECTOR IN S/C AXES THEN THE COMPONENTS OF THE SAME VECTOR IN
000238:                                                                                                  #      X   Y   Z
000239:                                                                                                  #  STABLE MEMBER AXES (B , B , B ) ARE
000240:                                                                                                  #                       X   Y   Z
000241:
000242:                                                                                                  #        ( B  )                  ( A  )
000243:                                                                                                  #        (  X )                  (  X )
000244:                                                                                                  #        (    )                  (    )
000245:                                                                                                  #        (    )            *     (    )
000246:                                                                                                  #        ( B  )     =      M     ( A  )
000247:                                                                                                  #        (  Y )                  (  Y )
000248:                                                                                                  #        (    )                  (    )
000249:                                                                                                  #        ( B  )                  ( A  )
000250:                                                                                                  #        (  Z )                  (  Z )
000251:
000252:                                                                                                  #  THE SUBROUTINE WILL STORE THIS MATRIX IN SEQUENTIAL LOCATIONS OF ERASABLE MEMORY AS SPECIFIED BY THE CALLING
000253:                                                                                                  #                                                                                                              *
000254:                                                                                                  #  PROGRAM.  TO DO THIS THE CALLING PROGRAM MUST FIRST LOAD X2 WITH THE COMPLEMENT OF THE STARTING ADDRESS FOR M.
000255:
000256:                                                                                                  #  INTERNALLY, THE ROUTINE USES THE FIRST 16 LOCATIONS OF THE PUSH DOWN LIST, ALSO STEP REGISTER S1 AND INDEX
000257:                                                                                                  #  REGISTER X2.
000258:
000259:                                                                                                  #  DCM TO CDU
000260:                                                                                                  #  ----------
000261:                                                                                                  #                                                                       *
000262:                                                                                                  #  THIS ROUTINE EXTRACTS THE CDU ANGLES FROM A DIRECTION COSINE MATRIX (M SCALED BY 2) RELATING S/C AXIS TO
000263:                                                                                                  #                                                                                  *
000264:                                                                                                  #  STABLE MEMBER AXES.  X1 MUST CONTAIN THE COMPLEMENT OF THE STARTING ADDRESS FOR M.  THE SUBROUTINE LEAVES THE
000265:                                                                                                  #  CORRESPONDING GIMBAL ANGLES IN V(MPAC) AS DOUBLE PRECISION 1:S COMPLEMENT ANGLES SCALED BY 2PI.  THE FORMULAS
000266:                                                                                                  #  FOR THIS CONVERSION ARE
000267:
000268:                                                                                                  #        Z       =       ARCSIN (M  )
000269:                                                                                                  #                                 3
000270:
000271:                                                                                                  #        Y       =       ARCSIN (-M /COSZ)
000272:                                                                                                  #                                  6
000273:
000274:                                                                                                  #  IF M  IS NEGATIVE, Y IS REPLACED BY PI SGN Y - Y
000275:                                                                                                  #      0


000277:                                                                                                  #        X       =       ARCSIN (-M /COSZ)
000278:                                                                                                  #                                  5
000279:
000280:                                                                                                  #  IF M  IS NEGATIVE X IS REPLACED BY PI SGN X - X
000281:                                                                                                  #      4
000282:
000283:                                                                                                  #  THIS ROUTINE DOES NOT SET THE PUSH DOWN POINTER, BUT USES THE NEXT 8 LOCATIONS OF THE PUSH DOWN LIST AND
000284:                                                                                                  #  RETURNS THE POINTER TO ITS ORIGINAL SETTING.  THIS PROCEDURE ALLOWS THE CALLER TO STORE THE MATRIX AT THE TOP OF
000285:                                                                                                  #  THE PUSH DOWN LIST.
000286:
000287:                                                                                                  #  DELCOMP
000288:                                                                                                  #  -------
000289:                                                                                                  #                                                      *
000290:                                                                                                  #  THIS ROUTINE COMPUTES THE DIRECTION COSINE MATRIX (DEL) RELATING ON
000291:                                                                                                  #                                                                            -
000292:                                                                                                  #  IS ROTATED WITH RESPECT TO THE FIRST BY AN ANGLE, A, ABOUT A UNIT VECTOR, U.  THE FORMULA FOR THIS MATRIX IS
000293:
000294:                                                                                                  #         *              *        - -T              *
000295:                                                                                                  #        DEL     =       I COSA + U U  (1 - COSA) + V  SINA
000296:                                                                                                  #                                                    X
000297:
000298:                                                                                                  #  WHERE         *               ( 1    0    0 )
000299:                                                                                                  #                I       =       ( 0    1    0 )
000300:                                                                                                  #                                ( 0    0    1 )
000301:
000302:                                                                                                  #                                     2
000303:                                                                                                  #                                (  U           U  U          U  U  )
000304:                                                                                                  #                                (   X           X  Y          X  Z )
000305:                                                                                                  #                                (                                  )
000306:                                                                                                  #                - -T            (                 2                )
000307:                                                                                                  #                U U     =       ( U  U          U            U  U  )
000308:                                                                                                  #                                (  Y  X          Y            Y  Z )
000309:                                                                                                  #                                (                                  )
000310:                                                                                                  #                                (                               2  )
000311:                                                                                                  #                                ( U  U         U  U           U    )
000312:                                                                                                  #                                (  Z  X         Z  Y           Z   )
000313:
000314:
000315:                                                                                                  #                                (   0           -U               U  )
000316:                                                                                                  #                                (                 Z               Y )
000317:                                                                                                  #                *               (                                   )
000318:                                                                                                  #                V       =       (  U             0              -U  )
000319:                                                                                                  #                 X              (   Z                             X )
000320:                                                                                                  #                                (                                   )
000321:                                                                                                  #                                ( -U             U               0  )
000322:                                                                                                  #                                (   Y             X                 )
000323:


000325:                                                                                                  #        -
000326:                                                                                                  #        U       =       UNIT ROTATION VECTOR RESOLVED INTO S/C AXES
000327:                                                                                                  #        A       =       ROTATION ANGLE
000328:
000329:                                                                                                  #                         *
000330:                                                                                                  #  THE INTERPRETATION OF DEL IS AS FOLLOWS
000331:
000332:                                                                                                  #  IF A , A , A  REPRESENT THE COMPONENT OF A VECTOR IN THE ROTATED FRAME, THEN THE COMPONENTS OF THE SAME
000333:                                                                                                  #      X   Y   Z
000334:                                                                                                  #  VECTOR IN THE ORIGINAL S/C AXES (B , B , B ) ARE
000335:                                                                                                  #                                    X   Y   Z
000336:
000337:                                                                                                  #        ( B  )                  ( A  )
000338:                                                                                                  #        (  X )                  (  X )
000339:                                                                                                  #        (    )            *     (    )
000340:                                                                                                  #        ( B  )     =     DEL    ( A  )
000341:                                                                                                  #        (  Y )                  (  Y )
000342:                                                                                                  #        (    )                  (    )
000343:                                                                                                  #        ( B  )                  ( A  )
000344:                                                                                                  #        (  Z )                  (  Z )
000345:
000346:                                                                                                  #  THE ROUTINE WILL STORE THIS MATRIX (SCALED UNITY) IN SEQUENTIAL LOCATIONS OF ERASABLE MEMORY BEGINNING WITH
000347:                                                                                                  #                                                                                              -
000348:                                                                                                  #  THE LOCATION CALLED DEL.  IN ORDER TO USE THE ROUTINE, THE CALLING PROGRAM MUST FIRST STORE U (A HALF UNIT
000349:                                                                                                  #  DOUBLE PRECISION VECTOR) IN THE SET OF ERASABLE LOCATIONS BEGINNING WITH THE ADDRESS CALLED COF.  THE ANGLE, A,
000350:                                                                                                  #  MUST THEN BE LOADED INTO D(MPAC).
000351:                                                                                                  #
000352:                                                                                                  #  INTERNALLY, THE PROGRAM ALSO USES THE FIRST 10 LOCATIONS OF THE PUSH DOWN LIST.
000353:
000354:                                                                                                  #  READCDUK
000355:                                                                                                  #  --------
000356:
000357:                                                                                                  #  THIS BASIC LANGUAGE SUBROUTINE LOADS T(MPAC) WITH THE THREE CDU ANGLES.
000358:
000359:                                                                                                  #  SIGNMPAC
000360:                                                                                                  #  --------
000361:
000362:                                                                                                  #  THIS IS A BASIC LANGUAGE SUBROUTINE WHICH LIMITS THE MAGNITUDE OF D(MPAC) TO + OR - DPOSMAX ON OVERFLOW.
000363:
000364:                                                                                                  #  PROGRAM STORAGE ALLOCATION
000365:
000366:                                                                                                  #        1)      FIXED MEMORY            1059 WORDS
000367:                                                                                                  #        2)      ERASABLE MEMORY           98
000368:                                                                                                  #        3)      STATE SWITCHES             3


000370:                                                                                                  #        4)      FLAGS                      1
000371:
000372:                                                                                                  #  JOB PRIORITIES
000373:
000374:                                                                                                  #        1)      KALCMANU                TBD
000375:                                                                                                  #        2)      ONE SECOND UPDATE       TBD
000376:
000377:                                                                                                  #  SUMMARY OF STATE SWITCHES AND FLAGWORDS USED BY KALCMANU.
000378:
000379:                                                                                                  #        STATE           FLAGWRD 2       SETTING         MEANING
000380:                                                                                                  #        SWITCH NO.      BIT NO.
000381:
000382:                                                                                                  #          *
000383:                                                                                                  #        31              14              0               MANEUVER WENT THROUGH GIMBAL LOCK
000384:                                                                                                  #                                        1               MANEUVER DID NOT GO THROUGH GIMBAL LOCK
000385:                                                                                                  #          *
000386:                                                                                                  #        32              13              0               CONTINUE UPDATE PROCESS
000387:                                                                                                  #                                        1               START UPDATE PROCESS
000388:
000389:                                                                                                  #        33              12              0               PERFORM FINAL P-AXIS YAW IF REQUIRED
000390:                                                                                                  #                                        1               IGNORE ANY FINAL P-AXIS YAW
000391:
000392:                                                                                                  #        34              11              0               SIGNAL END OF KALCMANU
000393:                                                                                                  #                                        1               KALCMANU IN PROCESS     USER MUST SET SWITCH BEFORE INITIATING
000394:
000395:                                                                                                  #        * INTERNAL TO KALCMANU
000396:
000397:                                                                                                  #  SUGGESTIONS FOR PROGRAM INTEGRATION
000398:
000399:                                                                                                  #  THE FOLLOWING VARIABLES SHOULD BE ASSIGNED TO UNSWITCH ERASABLE
000400:
000401:                                                                                                  #        CPHI
000402:                                                                                                  #        CTHETA
000403:                                                                                                  #        CPSI
000404:                                                                                                  #        POINTVSM +5
000405:                                                                                                  #        SCAXIS   +5
000406:                                                                                                  #        DELDCDU
000407:                                                                                                  #        DELDCDU1
000408:                                                                                                  #        DELDCDU2
000409:                                                                                                  #        RATEINDX
000410:
000411:                                                                                                  #  THE FOLLOWING SUBROUTINES MAY BE PUT IN A DIFFERENT BANK
000412:
000413:                                                                                                  #        MXM3


000415:                                                                                                  #        TRANSPGS
000416:                                                                                                  #        SIGNMPAC
000417:                                                                                                  #        READCDUK
000418:                                                                                                  #        CDUTODCM
000419:


000421: 15,2050                                           BANK     15
000422: 22,2000                                           SETLOC   KALCMON1
000423: 22,2000                                           BANK
000424:
000425: 22,2004  E6,1676                                  EBANK=   BCDU
000426:
000427:                                                                                                  #  THE THREE DESIRED CDU ANGLES MUST BE STORED AS SINGLE PRECISION TWOS COMPLEMENT ANGLES IN THE THREE SUCCESSIVE
000428:                                                                                                  #  LOCATIONS, CPHI, CTHETA, CPSI.
000429:
000430: 22,2004                                           COUNT*   $$/KALC
000431: 22,2004           06037        KALCMAN3           TC       INTPRET                               #  PICK UP THE CURRENT CDU ANGLES AND
000432: 22,2005           77634                           RTB                                            #        COMPUTE THE MATRIX FROM INITIAL S/C
000433: 22,2006           44403                                    READCDUK                              #        AXES TO FINAL S/C AXES
000434: 22,2007           03277                           STORE    BCDU                                  #  STORE INITIAL S/C ANGLES
000435: 22,2010           51535                           SLOAD    ABS                                   #  CHECK THE MAGNITUDE OF THE DESIRED
000436: 22,2011           00324                                    CPSI                                  #  MIDDLE GIMBAL ANGLE
000437: 22,2012           51025                           DSU      BPL
000438: 22,2013           04403                                    LOCKANGL                              #  IF GREATER THAN 70 DEG ABORT MANEUVER
000439: 22,2014           44724                                    TOOBADF
000440: 22,2015           72364                           AXC,2    TLOAD
000441: 22,2016           03246                                    MIS
000442: 22,2017           03277                                    BCDU
000443: 22,2020           77624                           CALL                                           #  COMPUTE THE TRANSFORMATION FROM INITIAL
000444: 22,2021           44410                                    CDUTODCM                              #  S/C AXES TO STABLE MEMBER AXES
000445: 22,2022           72364                           AXC,2    TLOAD
000446: 22,2023           02230                                    MFS                                   #  PREPARE TO CALCULATE ARRAY MFS
000447: 22,2024           00322                                    CPHI
000448: 22,2025           77624                           CALL
000449: 22,2026           44410                                    CDUTODCM
000450: 22,2027           45160        SECAD              AXC,1    CALL                                  #  MIS AND MFS ARRAYS CALCULATED         $2
000451: 22,2030           03246                                    MIS
000452: 22,2031           44326                                    TRANSPOS
000453: 22,2032           45575                           VLOAD    STADR
000454: 22,2033           50457                           STOVL    TMIS       +12D
000455: 22,2034           77626                           STADR
000456: 22,2035           50465                           STOVL    TMIS       +6
000457: 22,2036           77626                           STADR
000458: 22,2037           74473                           STORE    TMIS                                  #  TMIS = TRANSPOSE(MIS) SCALED BY 2
000459: 22,2040           75160                           AXC,1    AXC,2
000460: 22,2041           03303                                    TMIS
000461: 22,2042           02230                                    MFS
000462: 22,2043           77624                           CALL
000463: 22,2044           44312                                    MXM3
000464: 22,2045           45575                           VLOAD    STADR
000465: 22,2046           51532                           STOVL    MFI        +12D
000466: 22,2047           77626                           STADR
000467: 22,2050           51540                           STOVL    MFI        +6
000468: 22,2051           77626                           STADR
000469: 22,2052           75546                           STORE    MFI                                   #  MFI = TMIS MFS (SCALED BY 4)
000470: 22,2053           45001                           SETPD    CALL                                  #  TRANSPOSE MFI IN PD LIST


000472: 22,2054           00023                                    18D
000473: 22,2055           44335                                    TRNSPSPD
000474: 22,2056           45575                           VLOAD    STADR
000475: 22,2057           50457                           STOVL    TMFI       +12D
000476: 22,2060           77626                           STADR
000477: 22,2061           50465                           STOVL    TMFI       +6
000478: 22,2062           77626                           STADR
000479: 22,2063           74473                           STORE    TMFI                                  #  TMFI = TRANSPOSE (MFI) SCALED BY 4
000480:
000481:                                                                                                  #  CALCULATE COFSKEW AND MFISYM
000482:
000483: 22,2064           45345                           DLOAD    DSU
000484: 22,2065           03306                                    TMFI       +2
000485: 22,2066           02233                                    MFI        +2
000486: 22,2067           45325                           PDDL     DSU                                   #  CALCULATE COF SCALED BY 2/SIN(AM)
000487: 22,2070           02235                                    MFI        +4
000488: 22,2071           03310                                    TMFI       +4
000489: 22,2072           45325                           PDDL     DSU
000490: 22,2073           03316                                    TMFI       +10D
000491: 22,2074           02243                                    MFI        +10D
000492: 22,2075           77666                           VDEF
000493: 22,2076           03326                           STORE    COFSKEW                               #  EQUALS MFISKEW
000494:
000495:                                                                                                  #  CALCULATE AM AND PROCEED ACCORDING TO ITS MAGNITUDE
000496:
000497: 22,2077           43345                           DLOAD    DAD
000498: 22,2100           02231                                    MFI
000499: 22,2101           02251                                    MFI        +16D
000500: 22,2102           43225                           DSU      DAD
000501: 22,2103           06512                                    DP1/4TH
000502: 22,2104           02241                                    MFI        +8D
000503: 22,2105           03334                           STORE    CAM                                   #  CAM = (MFI0+MFI4+MFI8-1)/2 HALF SCALE
000504: 22,2106           77726                           ARCCOS
000505: 22,2107           03336                           STORE    AM                                    #  AM=ARCCOS(CAM)        (AM SCALED BY 2)
000506: 22,2110           51025                           DSU      BPL
000507: 22,2111           04363                                    MINANG
000508: 22,2112           44117                                    CHECKMAX
000509: 22,2113           77751                           TLOAD                                          #  MANEUVER LESS THAN .25 DEGREES
000510: 22,2114           00322                                    CPHI                                  #  GO DIRECTLY INTO ATTITUDE HOLD
000511: 22,2115           37236                           STCALL   CDUXD                                 #  ABOUT COMMANDED ANGLES
000512: 22,2116           44742                                    TOOBADI                               #  STOP RATE AND EXIT
000513:
000514: 22,2117           45345        CHECKMAX           DLOAD    DSU
000515: 22,2120           03336                                    AM
000516: 22,2121           04365                                    MAXANG
000517: 22,2122           77244                           BPL      VLOAD
000518: 22,2123           44131                                    ALTCALC                               #  UNIT
000519: 22,2124           03326                                    COFSKEW                               #  COFSKEW
000520: 22,2125           77656                           UNIT
000521: 22,2126           03271                           STORE    COF                                   #  COF IS THE MANEUVER AXIS


000523: 22,2127           77650                           GOTO                                           #  SEE IF MANEUVER GOES THRU GIMBAL LOCK
000524: 22,2130           44744                                    LOCSKIRT
000525: 22,2131           53375        ALTCALC            VLOAD    VAD                                   #  IF AM GREATER THAN 170 DEGREES
000526: 22,2132           02231                                    MFI
000527: 22,2133           03304                                    TMFI
000528: 22,2134           77762                           VSR1
000529: 22,2135           27304                           STOVL    MFISYM
000530: 22,2136           02237                                    MFI        +6
000531: 22,2137           74455                           VAD      VSR1
000532: 22,2140           03312                                    TMFI       +6
000533: 22,2141           27312                           STOVL    MFISYM     +6
000534: 22,2142           02245                                    MFI        +12D
000535: 22,2143           74455                           VAD      VSR1
000536: 22,2144           03320                                    TMFI       +12D
000537: 22,2145           03320                           STORE    MFISYM     +12D                       #  MFISYM=(MFI+TMFI)/2   SCALED BY 4
000538:
000539:                                                                                                  #  CALCULATE COF
000540:
000541: 22,2146           70545                           DLOAD    SR1
000542: 22,2147           03334                                    CAM
000543: 22,2150           45325                           PDDL     DSU                                   #  PDO CAM                               $4
000544: 22,2151           06520                                    DPHALF
000545: 22,2152           03334                                    CAM
000546: 22,2153           65204                           BOVB     PDDL                                  #  PD2 1 - CAM                           $2
000547: 22,2154           21712                                    SIGNMPAC
000548: 22,2155           03324                                    MFISYM     +16D
000549: 22,2156           56225                           DSU      DDV
000550: 22,2157           00001                                    0
000551: 22,2160           00003                                    2
000552: 22,2161           65366                           SQRT     PDDL                                  #  COFZ = SQRT(MFISYM8-CAM)/1-CAM)
000553: 22,2162           03314                                    MFISYM     +8D                        #                                $ ROOT 2
000554: 22,2163           56225                           DSU      DDV
000555: 22,2164           00001                                    0
000556: 22,2165           00003                                    2
000557: 22,2166           65366                           SQRT     PDDL                                  #  COFY = SQRT(MFISYM4-CAM)/(1-CAM)  $ROOT2
000558: 22,2167           03304                                    MFISYM
000559: 22,2170           56225                           DSU      DDV
000560: 22,2171           00001                                    0
000561: 22,2172           00003                                    2
000562: 22,2173           55566                           SQRT     VDEF                                  #  COFX = SQRT(MFISYM-CAM)/(1-CAM)  $ROOT 2
000563: 22,2174           77656                           UNIT
000564: 22,2175           03271                           STORE    COF
000565:
000566:                                                                                                  #  DETERMINE LARGEST COF AND ADJUST ACCORDINGLY
000567:
000568: 22,2176           45345        COFMAXGO           DLOAD    DSU
000569: 22,2177           03271                                    COF
000570: 22,2200           03273                                    COF        +2
000571: 22,2201           71240                           BMN      DLOAD                                 #  COFY G COFX


000573: 22,2202           44211                                    COMP12
000574: 22,2203           03271                                    COF
000575: 22,2204           50025                           DSU      BMN
000576: 22,2205           03275                                    COF        +4
000577: 22,2206           44266                                    METHOD3                               #  COFZ G COFX OR COFY
000578: 22,2207           77650                           GOTO
000579: 22,2210           44242                                    METHOD1                               #  COFX G COFY OR COFZ
000580: 22,2211           45345        COMP12             DLOAD    DSU
000581: 22,2212           03273                                    COF        +2
000582: 22,2213           03275                                    COF        +4
000583: 22,2214           77640                           BMN
000584: 22,2215           44266                                    METHOD3                               #  COFZ G COFY OR COFX
000585:
000586: 22,2216           51145        METHOD2            DLOAD    BPL                                   #  COFY MAX
000587: 22,2217           03330                                    COFSKEW    +2                         #  UY
000588: 22,2220           44224                                    U2POS
000589: 22,2221           57575                           VLOAD    VCOMP
000590: 22,2222           03271                                    COF
000591: 22,2223           03271                           STORE    COF
000592: 22,2224           51145        U2POS              DLOAD    BPL
000593: 22,2225           03306                                    MFISYM     +2                         #  UX UY
000594: 22,2226           44232                                    OKU21
000595: 22,2227           57545                           DLOAD    DCOMP                                 #  SIGN OF UX OPPOSITE TO UY
000596: 22,2230           03271                                    COF
000597: 22,2231           03271                           STORE    COF
000598: 22,2232           51145        OKU21              DLOAD    BPL
000599: 22,2233           03316                                    MFISYM     +10D                       #  UY UZ
000600: 22,2234           44744                                    LOCSKIRT
000601: 22,2235           57545                           DLOAD    DCOMP                                 #  SIGN OF UZ OPPOSITE TO UY
000602: 22,2236           03275                                    COF        +4
000603: 22,2237           03275                           STORE    COF        +4
000604: 22,2240           77650                           GOTO
000605: 22,2241           44744                                    LOCSKIRT
000606: 22,2242           51145        METHOD1            DLOAD    BPL                                   #  COFX MAX
000607: 22,2243           03326                                    COFSKEW                               #  UX
000608: 22,2244           44250                                    U1POS
000609: 22,2245           57575                           VLOAD    VCOMP
000610: 22,2246           03271                                    COF
000611: 22,2247           03271                           STORE    COF
000612: 22,2250           51145        U1POS              DLOAD    BPL
000613: 22,2251           03306                                    MFISYM     +2                         #  UX UY
000614: 22,2252           44256                                    OKU12
000615: 22,2253           57545                           DLOAD    DCOMP
000616: 22,2254           03273                                    COF        +2                         #  SIGN OF UY OPPOSITE TO UX
000617: 22,2255           03273                           STORE    COF        +2
000618: 22,2256           51145        OKU12              DLOAD    BPL
000619: 22,2257           03310                                    MFISYM     +4                         #  UX UZ
000620: 22,2260           44744                                    LOCSKIRT
000621: 22,2261           57545                           DLOAD    DCOMP                                 #  SIGN OF UZ OPPOSITE TO UY
000622: 22,2262           03275                                    COF        +4


000624: 22,2263           03275                           STORE    COF        +4
000625: 22,2264           77650                           GOTO
000626: 22,2265           44744                                    LOCSKIRT
000627: 22,2266           51145        METHOD3            DLOAD    BPL                                   #  COFZ MAX
000628: 22,2267           03332                                    COFSKEW    +4                         #  UZ
000629: 22,2270           44274                                    U3POS
000630: 22,2271           57575                           VLOAD    VCOMP
000631: 22,2272           03271                                    COF
000632: 22,2273           03271                           STORE    COF
000633: 22,2274           51145        U3POS              DLOAD    BPL
000634: 22,2275           03310                                    MFISYM     +4                         #  UX UZ
000635: 22,2276           44302                                    OKU31
000636: 22,2277           57545                           DLOAD    DCOMP
000637: 22,2300           03271                                    COF                                   #  SIGN OF UX OPPOSITE TO UZ
000638: 22,2301           03271                           STORE    COF
000639: 22,2302           51145        OKU31              DLOAD    BPL
000640: 22,2303           03316                                    MFISYM     +10D                       #  UY UZ
000641: 22,2304           44744                                    LOCSKIRT
000642: 22,2305           57545                           DLOAD    DCOMP
000643: 22,2306           03273                                    COF        +2                         #  SIGN OF UY OPPOSITE TO UZ
000644: 22,2307           03273                           STORE    COF        +2
000645: 22,2310           77650                           GOTO
000646: 22,2311           44744                                    LOCSKIRT


000648:                                                                                                  #  MATRIX OPERATIONS
000649:
000650: 13,2207                                           BANK     13
000651: 22,2000                                           SETLOC   KALCMON2
000652: 22,2000                                           BANK
000653:
000654: 22,2312  E6,1676                                  EBANK=   BCDU
000655:
000656: 22,2312           76601        MXM3               SETPD    VLOAD*                                #  MXM3 MULTIPLIES 2 3X3 MATRICES
000657: 22,2313           00001                                    0                                     #  AND LEAVES RESULT IN PD LIST
000658: 22,2314           00001                                    0,1                                   #  AND MPAC
000659: 22,2315           62703                           VXM*     PDVL*
000660: 22,2316           77776                                    0,2
000661: 22,2317           00007                                    6,1
000662: 22,2320           62703                           VXM*     PDVL*
000663: 22,2321           77776                                    0,2
000664: 22,2322           00015                                    12D,1
000665: 22,2323           41503                           VXM*     PUSH
000666: 22,2324           77776                                    0,2
000667: 22,2325           77616                           RVQ
000668:
000669:                                                                                                  #  RETURN WITH MIXM2 IN PD LIST
000670:
000671: 22,2326           76601        TRANSPOS           SETPD    VLOAD*                                #  TRANSPOS TRANSPOSES A 3X3 MATRIX
000672: 22,2327           00001                                    0                                     #        AND LEAVES RESULT IN PD LIST
000673: 22,2330           00001                                    0,1                                   #  MATRIX ADDRESS IN XR1
000674: 22,2331           62713                           PDVL*    PDVL*
000675: 22,2332           00007                                    6,1
000676: 22,2333           00015                                    12D,1
000677: 22,2334           77606                           PUSH                                           #  MATRIX IN PD
000678: 22,2335           77776        TRNSPSPD           EXIT                                           #  ENTER WITH MATRIX AT 0 IN PD LIST
000679: 22,2336           50120                           INDEX    FIXLOC
000680: 22,2337           52013                           DXCH     12
000681: 22,2340           50120                           INDEX    FIXLOC
000682: 22,2341           52017                           DXCH     16
000683: 22,2342           50120                           INDEX    FIXLOC
000684: 22,2343           52013                           DXCH     12
000685: 22,2344           50120                           INDEX    FIXLOC
000686: 22,2345           52015                           DXCH     14
000687: 22,2346           50120                           INDEX    FIXLOC
000688: 22,2347           52005                           DXCH     4
000689: 22,2350           50120                           INDEX    FIXLOC
000690: 22,2351           52015                           DXCH     14
000691: 22,2352           50120                           INDEX    FIXLOC
000692: 22,2353           52003                           DXCH     2
000693: 22,2354           50120                           INDEX    FIXLOC
000694: 22,2355           52007                           DXCH     6
000695: 22,2356           50120                           INDEX    FIXLOC
000696: 22,2357           52003                           DXCH     2


000698: 22,2360           06037                           TC       INTPRET
000699: 22,2361           77616                           RVQ
000700:
000701: 15,2050                                           BANK     15
000702: 22,2000                                           SETLOC   KALCMON1
000703: 22,2000                                           BANK
000704:
000705: 22,2362  E6,1676                                  EBANK=   BCDU
000706:
000707: 22,2362           00013 13563  MINANG             2DEC     0.00069375
000708:
000709: 22,2364           17070 34343  MAXANG             2DEC     0.472222222
000710:
000711:                                                                                                  #  GIMBAL LOCK CONSTANTS
000712:
000713:                                                                                                  #  D = MGA CORRESPONDING TO GIMBAL LOCK = 60 DEGREES
000714:                                                                                                  #        NGL = BUFFER ANGLE (TO AVOID DIVISIONS BY ZERO) = 2 DEGREES
000715:
000716: 22,2366           15666 20443  SD                 2DEC     .433015                               #  = SIN(D)                      $2
000717:
000718: 22,2370           33555 01106  K3S1               2DEC     .86603                                #  = SIN(D)                      $1
000719:
000720: 22,2372           67777 77777  K4                 2DEC     -.25                                  #  = -COS(D)                     $2
000721:
000722: 22,2374           04000 00000  K4SQ               2DEC     .125                                  #  = COS(D)COS(D)                $2
000723:
000724: 22,2376           00216 36323  SNGLCD             2DEC     .008725                               #  = SIN(NGL)COS(D)              $2
000725:
000726: 22,2400           17773 00057  CNGL               2DEC     .499695                               #  COS(NGL)                      $2
000727:
000728: 22,2402           14344        LOCKANGL           DEC      .388889                               #  = 70 DEGREES
000729:
000730:                                                                                                  #  INTERPRETIVE SUBROUTINE TO READ THE CDU ANGLES
000731:
000732: 22,2403           30034        READCDUK           CA       CDUZ                                  #  LOAD T(MPAC) WITH CDU ANGLES
000733: 22,2404           54156                           TS       MPAC       +2
000734: 22,2405           00006                           EXTEND
000735: 22,2406           30033                           DCA      CDUX                                  #  AND CHANGE MODE TO TRIPLE PRECISION
000736: 22,2407           16476                           TCF      TLOAD      +6
000737:
000738: 22,2410           66370        CDUTODCM           AXT,1    SSP
000739: 22,2411           00003                           OCT      3
000740: 22,2412           00051                                    S1
000741: 22,2413           00001                           OCT      1                                     #  SET XR1, S1, AND PD FOR LOOP
000742: 22,2414           00010                           STORE    7
000743: 22,2415           77601                           SETPD
000744: 22,2416           00001                                    0
000745: 22,2417           47133        LOOPSIN            SLOAD*   RTB
000746: 22,2420           00013                                    10D,1
000747: 22,2421           21576                                    CDULOGIC


000749: 22,2422           00013                           STORE    10D                                   #  LOAD PD WITH  0 SIN(PHI)
000750: 22,2423           65356                           SIN      PDDL                                  #                2 COS(PHI)
000751: 22,2424           00013                                    10D                                   #                4 SIN(THETA)
000752: 22,2425           41546                           COS      PUSH                                  #                6 COS(THETA)
000753: 22,2426           71300                           TIX,1    DLOAD                                 #                8 SIN(PSI)
000754: 22,2427           44417                                    LOOPSIN                               #                10 COS(PSI)
000755: 22,2430           00007                                    6
000756: 22,2431           72405                           DMP      SL1
000757: 22,2432           00013                                    10D
000758: 22,2433           10001                           STORE    0,2                                   #  C0 = COS(THETA)COS(PSI)
000759: 22,2434           41345                           DLOAD    DMP
000760: 22,2435           00005                                    4
000761: 22,2436           00001                                    0
000762: 22,2437           41325                           PDDL     DMP                                   #  (PD6 SIN(THETA)SIN(PHI))
000763: 22,2440           00007                                    6
000764: 22,2441           00011                                    8D
000765: 22,2442           72405                           DMP      SL1
000766: 22,2443           00003                                    2
000767: 22,2444           72421                           BDSU     SL1
000768: 22,2445           00015                                    12D
000769: 22,2446           10003                           STORE    2,2                                   #  C1=-COS(THETA)SIN(PSI)COS(PHI)
000770: 22,2447           41345                           DLOAD    DMP
000771: 22,2450           00003                                    2
000772: 22,2451           00005                                    4
000773: 22,2452           41325                           PDDL     DMP                                   #  (PD7 COS(PHI)SIN(THETA)) SCALED 4
000774: 22,2453           00007                                    6
000775: 22,2454           00011                                    8D
000776: 22,2455           72405                           DMP      SL1
000777: 22,2456           00001                                    0
000778: 22,2457           72415                           DAD      SL1
000779: 22,2460           00017                                    14D
000780: 22,2461           10005                           STORE    4,2                                   #  C2=COS(THETA)SIN(PSI)SIN(PHI)
000781: 22,2462           77745                           DLOAD
000782: 22,2463           00011                                    8D
000783: 22,2464           10007                           STORE    6,2                                   #  C3=SIN(PSI)
000784: 22,2465           77745                           DLOAD
000785: 22,2466           00013                                    10D
000786: 22,2467           72405                           DMP      SL1
000787: 22,2470           00003                                    2
000788: 22,2471           10011                           STORE    8D,2                                  #  C4=COS(PSI)COS(PHI)
000789: 22,2472           41345                           DLOAD    DMP
000790: 22,2473           00013                                    10D
000791: 22,2474           00001                                    0
000792: 22,2475           72476                           DCOMP    SL1
000793: 22,2476           10013                           STORE    10D,2                                 #  C5=-COS(PSI)SIN(PHI)
000794: 22,2477           41345                           DLOAD    DMP
000795: 22,2500           00005                                    4
000796: 22,2501           00013                                    10D
000797: 22,2502           72476                           DCOMP    SL1
000798: 22,2503           10015                           STORE    12D,2                                 #  C6=-SIN(THETA)COS(PSI)


000800: 22,2504           77745                           DLOAD
000801: 22,2505           72405                           DMP      SL1                                   #  (PUSH UP 7)
000802: 22,2506           00011                                    8D
000803: 22,2507           41325                           PDDL     DMP                                   #  (PD7 COS(PHI)SIN(THETA)SIN(PSI)) SCALE 4
000804: 22,2510           00007                                    6
000805: 22,2511           00001                                    0
000806: 22,2512           72415                           DAD      SL1                                   #  (PUSH UP 7)
000807: 22,2513           77626                           STADR                                          #  C7=COS(PHI)SIN(THETA)SIN(PSI)
000808: 22,2514           67760                           STORE    14D,2                                 #        +COS(THETA)SIN(PHI)
000809: 22,2515           77745                           DLOAD
000810: 22,2516           72405                           DMP      SL1                                   #  (PUSH UP 6)
000811: 22,2517           00011                                    8D
000812: 22,2520           41325                           PDDL     DMP                                   #  (PD6 SIN(THETA)SIN(PHI)SIN(PSI)) SCALE 4
000813: 22,2521           00007                                    6
000814: 22,2522           00003                                    2
000815: 22,2523           72425                           DSU      SL1                                   #  (PUSH UP 6)
000816: 22,2524           77626                           STADR
000817: 22,2525           67756                           STORE    16D,2                                 #  C8=-SIN(THETA)SIN(PHI)SIN(PSI)
000818: 22,2526           77616                           RVQ                                            #  +COS(THETA)COS(PHI)
000819:
000820:                                                                                                  #  CALCULATION OF THE MATRIX DEL......
000821:
000822:                                                                                                  #         *         *           --T           *
000823:                                                                                                  #        DEL = (IDMATRIX)COS(A)+UU (1-COS(A))+UX SIN(A)          SCALED 1
000824:                                                                                                  #              -
000825:                                                                                                  #        WHERE U IS A UNIT VECTOR (DP SCALED 2) ALONG THE AXIS OF ROTATION.
000826:                                                                                                  #        A IS THE ANGLE OF ROTATION (DP SCALED 2)
000827:                                                                                                  #                                            -
000828:                                                                                                  #        UPON ENTRY THE STARTING ADDRESS OF U IS COF, AND A IS IN MPAC
000829:
000830: 22,2527           41401        DELCOMP            SETPD    PUSH                                  #  MPAC CONTAINS THE ANGLE A
000831: 22,2530           00001                                    0
000832: 22,2531           65356                           SIN      PDDL                                  #  PD0 = SIN(A)
000833: 22,2532           41546                           COS      PUSH                                  #  PD2 = COS(A)
000834: 22,2533           65302                           SR2      PDDL                                  #  PD2 = COS(A)                          $8
000835: 22,2534           41021                           BDSU     BOVB
000836: 22,2535           06520                                    DPHALF
000837: 22,2536           21712                                    SIGNMPAC
000838: 22,2537           77725                           PDDL                                           #  PDA = 1-COS(A)
000839:
000840:                                                                                                  #  COMPUTE THE DIAGONAL COMPONENTS OF DEL
000841:
000842: 22,2540           03271                                    COF
000843: 22,2541           41316                           DSQ      DMP
000844: 22,2542           00005                                    4
000845: 22,2543           52415                           DAD      SL3
000846: 22,2544           00003                                    2
000847: 22,2545           77604                           BOVB
000848: 22,2546           21712                                    SIGNMPAC


000850: 22,2547           16231                           STODL    KEL                                   #  UX UX(1-COS(A)) +COS(A)               $1
000851: 22,2550           03273                                    COF        +2
000852: 22,2551           41316                           DSQ      DMP
000853: 22,2552           00005                                    4
000854: 22,2553           52415                           DAD      SL3
000855: 22,2554           00003                                    2
000856: 22,2555           77604                           BOVB
000857: 22,2556           21712                                    SIGNMPAC
000858: 22,2557           16241                           STODL    KEL        +8D                        #  UY UY(1-COS(A)) +COS(A)               $1
000859: 22,2560           03275                                    COF        +4
000860: 22,2561           41316                           DSQ      DMP
000861: 22,2562           00005                                    4
000862: 22,2563           52415                           DAD      SL3
000863: 22,2564           00003                                    2
000864: 22,2565           77604                           BOVB
000865: 22,2566           21712                                    SIGNMPAC
000866: 22,2567           02251                           STORE    KEL        +16D                       #  UZ UZ(1-COS(A)) +COS(A)               $1
000867:
000868:                                                                                                  #  COMPUTE THE OFF DIAGONAL TERMS OF DEL
000869:
000870: 22,2570           41345                           DLOAD    DMP
000871: 22,2571           03271                                    COF
000872: 22,2572           03273                                    COF        +2
000873: 22,2573           72405                           DMP      SL1
000874: 22,2574           00005                                    4
000875: 22,2575           41325                           PDDL     DMP                                   #  D6     UX UY (1-COS A)                $4
000876: 22,2576           03275                                    COF        +4
000877: 22,2577           00001                                    0
000878: 22,2600           43206                           PUSH     DAD                                   #  D8    UZ SIN A                        $4
000879: 22,2601           00007                                    6
000880: 22,2602           41112                           SL2      BOVB
000881: 22,2603           21712                                    SIGNMPAC
000882: 22,2604           16237                           STODL    KEL        +6
000883: 22,2605           62421                           BDSU     SL2
000884: 22,2606           77604                           BOVB
000885: 22,2607           21712                                    SIGNMPAC
000886: 22,2610           16233                           STODL    KEL        +2
000887: 22,2611           03271                                    COF
000888: 22,2612           41205                           DMP      DMP
000889: 22,2613           03275                                    COF        +4
000890: 22,2614           00005                                    4
000891: 22,2615           65352                           SL1      PDDL                                  #  D6    UX UZ (1-COS A)                 $4
000892: 22,2616           03273                                    COF        +2
000893: 22,2617           41405                           DMP      PUSH                                  #  D8    UY SIN(A)
000894: 22,2620           00001                                    0
000895: 22,2621           62415                           DAD      SL2
000896: 22,2622           00007                                    6
000897: 22,2623           77604                           BOVB
000898: 22,2624           21712                                    SIGNMPAC
000899: 22,2625           16235                           STODL    KEL        +4                         #  UX UZ (1-COS(A))+UY SIN(A)


000901: 22,2626           62421                           BDSU     SL2
000902: 22,2627           77604                           BOVB
000903: 22,2630           21712                                    SIGNMPAC
000904: 22,2631           16245                           STODL    KEL        +12D                       #  UX UZ (1-COS(A))-UY SIN(A)
000905: 22,2632           03273                                    COF        +2
000906: 22,2633           41205                           DMP      DMP
000907: 22,2634           03275                                    COF        +4
000908: 22,2635           00005                                    4
000909: 22,2636           65352                           SL1      PDDL                                  #  D6    UY UZ (1-COS(A))                $ 4
000910: 22,2637           03271                                    COF
000911: 22,2640           41405                           DMP      PUSH                                  #  D8    UX SIN(A)
000912: 22,2641           00001                                    0
000913: 22,2642           62415                           DAD      SL2
000914: 22,2643           00007                                    6
000915: 22,2644           77604                           BOVB
000916: 22,2645           21712                                    SIGNMPAC
000917: 22,2646           16247                           STODL    KEL        +14D                       #  UY UZ(1-COS(A)) +UX SIN(A)
000918: 22,2647           62421                           BDSU     SL2
000919: 22,2650           77604                           BOVB
000920: 22,2651           21712                                    SIGNMPAC
000921: 22,2652           02243                           STORE    KEL        +10D                       #  UY UZ (1-COS(A)) -UX SIN(A)
000922: 22,2653           77616                           RVQ
000923:
000924:                                                                                                  #  DIRECTION COSINE MATRIX TO CDU ANGLE ROUTINE
000925:                                                                                                  #  X1 CONTAINS THE COMPLEMENT OF THE STARTING ADDRESS FOR MATRIX (SCALED 2)
000926:                                                                                                  #  LEAVES CDU ANGLES SCALED 2PI IN V(MPAC)
000927:                                                                                                  #  COS(MGA) WILL BE LEFT IN S1 (SCALED 1)
000928:
000929:                                                                                                  #  THE DIRECTION COSINE MATRIX RELATING S/C AXES TO STABLE MEMBER AXES CAN BE WRITTEN AS***
000930:
000931:                                                                                                  #        C  = COS(THETA) COS(PSI)
000932:                                                                                                  #         0
000933:
000934:                                                                                                  #        C  = -COS(THETA) SIN(PSI) COS(PHI) + SI (THETA) SIN(PHI)
000935:                                                                                                  #         1
000936:
000937:                                                                                                  #        C  = COS(THETA) SIN(PSI) SIN(PHI) + S N(THETA) COS(PHI)
000938:                                                                                                  #         2
000939:
000940:                                                                                                  #        C  = SIN(PSI)
000941:                                                                                                  #         3
000942:
000943:                                                                                                  #        C  = COS(PSI) COS(PHI)
000944:                                                                                                  #         4
000945:
000946:                                                                                                  #        C  = -COS(PSI) SIN(PHI)
000947:                                                                                                  #         5
000948:
000949:                                                                                                  #        C  = -SIN(THETA) COS(PSI)
000950:                                                                                                  #         6
000951:
000952:                                                                                                  #        C  = SIN(THETA) SIN(PSI) COS(PHI) + COS THETA) SIN(PHI)
000953:                                                                                                  #         7
000954:
000955:                                                                                                  #        C  = -SIN(THETA) SIN(PSI) SIN(PHI) + CO (THETA)COS(PHI)
000956:                                                                                                  #         8


000958:
000959:                                                                                                  #  WHERE PHI = OGA
000960:                                                                                                  #        THETA = IGA
000961:                                                                                                  #        PSI = MGA
000962:
000963: 22,2654           67543        DCMTOCDU           DLOAD*   ARCSIN
000964: 22,2655           00007                                    6,1
000965: 22,2656           71406                           PUSH     COS                                   #  PD +0         PSI
000966: 22,2657           41152                           SL1      BOVB
000967: 22,2660           21712                                    SIGNMPAC
000968: 22,2661           00051                           STORE    S1
000969: 22,2662           57543                           DLOAD*   DCOMP
000970: 22,2663           00015                                    12D,1
000971: 22,2664           67471                           DDV      ARCSIN
000972: 22,2665           00051                                    S1
000973: 22,2666           51123                           PDDL*    BPL                                   #  PD +2         THETA
000974: 22,2667           00001                                    0,1                                   #  MUST CHECK THE SIGN OF COS(THETA)
000975: 22,2670           44702                                    OKTHETA                               #  TO DETERMINE THE PROPER QUADRANT
000976: 22,2671           57545                           DLOAD    DCOMP
000977: 22,2672           43244                           BPL      DAD
000978: 22,2673           44677                                    SUHALFA
000979: 22,2674           06520                                    DPHALF
000980: 22,2675           77650                           GOTO
000981: 22,2676           44701                                    CALCPHI
000982: 22,2677           77625        SUHALFA            DSU
000983: 22,2700           06520                                    DPHALF
000984: 22,2701           77606        CALCPHI            PUSH
000985: 22,2702           57543        OKTHETA            DLOAD*   DCOMP
000986: 22,2703           00013                                    10D,1
000987: 22,2704           67471                           DDV      ARCSIN
000988: 22,2705           00051                                    S1
000989: 22,2706           51123                           PDDL*    BPL                                   #  PUSH DOWN PHI
000990: 22,2707           00011                                    8D,1
000991: 22,2710           44722                                    OKPHI
000992: 22,2711           57545                           DLOAD    DCOMP                                 #  PUSH UP PHI
000993: 22,2712           43244                           BPL      DAD
000994: 22,2713           44717                                    SUHALFAP
000995: 22,2714           06520                                    DPHALF
000996: 22,2715           77650                           GOTO
000997: 22,2716           44723                                    VECOFANG
000998: 22,2717           52025        SUHALFAP           DSU      GOTO
000999: 22,2720           06520                                    DPHALF
001000: 22,2721           44723                                    VECOFANG
001001: 22,2722           77745        OKPHI              DLOAD                                          #  PUSH UP PHI
001002: 22,2723           43466        VECOFANG           VDEF     RVQ


001004:                                                                                                  #  ROUTINES FOR TERMINATING THE AUTOMATIC MANEUVER AND RETURNING TO USER
001005:
001006: 22,2724           77776        TOOBADF            EXIT
001007: 22,2725           05567                           TC       ALARM
001008: 22,2726           00401                           OCT      00401
001009:
001010: 22,2727           12732                           TCF      NOGO                                  #  DO NOT ZERO ATTITUDE ERRORS
001011:
001012: 22,2730           04616                           TC       BANKCALL
001013: 22,2731           40153                           CADR     ZATTEROR                              #  ZERO ATTITUDE ERRORS
001014:
001015: 22,2732           04616        NOGO               TC       BANKCALL
001016: 22,2733           40165                           CADR     STOPRATE                              #  STOP RATES
001017:
001018: 22,2734           34752                           CAF      TWO
001019: 22,2735           00004                           INHINT                                         #  ALL RETURNS ARE NOW MADE VIA GOODEND
001020: 22,2736           05203                           TC       WAITLIST
001021: 22,2737  E6,1676                                  EBANK=   BCDU
001022: 22,2737           03234 44066                     2CADR    GOODMANU
001023:
001024: 22,2741           15155                           TCF      ENDOFJOB
001025:
001026: 22,2742           77776        TOOBADI            EXIT
001027: 22,2743           12732                           TCF      NOGO
001028:
001029:

End of include-file ATTITUDE_MANEUVER_ROUTINE.agc.  Parent file is MAIN.agc


