
Source Code
000001:                                                                                                 #  Copyright:     Public domain.
000002:                                                                                                 #  Filename:      BURN_BABY_BURN--MASTER_IGNITION_ROUTINE.agc
000003:                                                                                                 #  Purpose:       Part of the source code for Luminary 1A build 099.
000004:                                                                                                 #                 It is part of the source code for the Lunar Module's (LM)
000005:                                                                                                 #                 Apollo Guidance Computer (AGC), for Apollo 11.
000006:                                                                                                 #  Assembler:     yaYUL
000007:                                                                                                 #  Contact:       Ron Burkey <info@sandroid.org>.
000008:                                                                                                 #  Website:       www.ibiblio.org/apollo.
000009:                                                                                                 #  Pages: 731-751
000010:                                                                                                 #  Mod history:   2009-05-19 RSB  Adapted from the corresponding
000011:                                                                                                 #                                 Luminary131 file, using page
000012:                                                                                                 #                                 images from Luminary 1A.
000013:                                                                                                 #                 2009-06-07 RSB  Corrected 3 typos.
000014:                                                                                                 #                 2009-07-23 RSB  Added Onno's notes on the naming
000015:                                                                                                 #                                 of this function, which he got from
000016:                                                                                                 #                                 Don Eyles.
000017:
000018:                                                                                                 #  This source code has been transcribed or otherwise adapted from
000019:                                                                                                 #  digitized images of a hardcopy from the MIT Museum.  The digitization
000020:                                                                                                 #  was performed by Paul Fjeld, and arranged for by Deborah Douglas of
000021:                                                                                                 #  the Museum.  Many thanks to both.  The images (with suitable reduction
000022:                                                                                                 #  in storage size and consequent reduction in image quality as well) are
000023:                                                                                                 #  available online at www.ibiblio.org/apollo.  If for some reason you
000024:                                                                                                 #  find that the images are illegible, contact me at info@sandroid.org
000025:                                                                                                 #  about getting access to the (much) higher-quality images which Paul
000026:                                                                                                 #  actually created.
000027:
000028:                                                                                                 #  Notations on the hardcopy document read, in part:
000029:
000030:                                                                                                 #         Assemble revision 001 of AGC program LMY99 by NASA 2021112-61
000031:                                                                                                 #         16:27 JULY 14, 1969
000032:
000033:                                                                                                 #  Page 731


000045:                                                                                                 #  BURN, BABY, BURN -- MASTER IGNITION ROUTINE
000046:
000047: 36,2022                                          BANK     36
000048: 36,2000                                          SETLOC   P40S
000049: 36,2000                                          BANK
000050: 36,2022  E7,1455                                 EBANK=   WHICH
000051: 36,2022                                          COUNT*   $$/P40
000052:
000053:                                                                                                 #  THE MASTER IGNITION ROUTINE IS DESIGNED FOR USE BY THE FOLLOWING LEM PROGRAMS:  P12, P40, P42, P61, P63.
000054:                                                                                                 #  IT PERFORMS ALL FUNCTIONS IMMEDIATELY ASSOCIATED WITH APS OR DPS IGNITION:  IN PARTICULAR, EVERYTHING LYING
000055:                                                                                                 #  BETWEEN THE PRE-IGNITION TIME CHECK -- ARE WE WITHIN 45 SECONDS OF TIG? -- AND TIG + 26 SECONDS, WHEN DPS
000056:                                                                                                 #  PROGRAMS THROTTLE UP.
000057:
000058:                                                                                                 #  VARIATIONS AMONG PROGRAMS ARE ACCOMODATED BY MEANS OF TABLES CONTAINING CONSTANTS (FOR AVEGEXIT, FOR
000059:                                                                                                 #  WAITLIST, FOR PINBALL) AND TCF INSTRUCTIONS.  USERS PLACE THE ADRES OF THE HEAD OF THE APPROPRIATE TABLE
000060:                                                                                                 #  (OF P61TABLE FOR P61LM, FOR EXAMPLE) IN ERASABLE REGISTER `WHICH' (E4).  THE IGNITION ROUTINE THEN INDEXES BY
000061:                                                                                                 #  WHICH TO OBTAIN OR EXECUTE THE PROPER TABLE ENTRY.  THE IGNITION ROUTINE IS INITIATED BY A TCF BURNBABY,
000062:                                                                                                 #  THROUGH BANKJUMP IF NECESSARY.  THERE IS NO RETURN.
000063:
000064:                                                                                                 #  THE MASTER IGNITION ROUTINE WAS CONCEIVED AND EXECUTED, AND (NOTA BENE) IS MAINTAINED BY ADLER AND EYLES.
000065:
000066:                                                                                                 #                    HONI SOIT QUI MAL Y PENSE
000067:
000068:                                                                                                 #         ***********************************************
000069:                                                                                                 #                 TABLES FOR THE IGNITION ROUTINE
000070:                                                                                                 #         ***********************************************
000071:
000072:                                                                                                 #                         NOLI SE TANGERE
000073:
000074: 36,2022           01512        P12TABLE          VN       0674                                  #  (0)
000075: 36,2023           12325                          TCF      ULLGNOT                               #  (1)
000076: 36,2024           12612                          TCF      COMFAIL3                              #  (2)
000077: 36,2025           13062                          TCF      GOCUTOFF                              #  (3)
000078: 36,2026           15261                          TCF      TASKOVER                              #  (4)
000079: 36,2027           12146                          TCF      P12SPOT                               #  (5)
000080: 36,2030           00000                          DEC      0          B-14                       #  (6)    NO ULLAGE
000081: 36,2031  E7,1455                                 EBANK=   WHICH
000082: 36,2031           03770 64067                    2CADR    SERVEXIT                              #  (7)
000083:
000084: 36,2033           12376                          TCF      DISPCHNG                              #  (11)
000085: 36,2034           12563                          TCF      WAITABIT                              #  (12)
000086: 36,2035           12521                          TCF      P12IGN                                #  (13)
000087:
000088: 36,2036           01450        P40TABLE          VN       0640                                  #  (0)
000089: 36,2037           12325                          TCF      ULLGNOT                               #  (1)
000090: 36,2040           12614                          TCF      COMFAIL4                              #  (2)
000091: 36,2041           13047                          TCF      GOPOST                                #  (3)
000092: 36,2042           15261                          TCF      TASKOVER                              #  (4)
000093: 36,2043           12146                          TCF      P40SPOT                               #  (5)
000094:                                                                                                 #  Page 732
000095: 36,2044           04300                          DEC      2240       B-14                       #  (6)
000096: 36,2045  E6,1422                                 EBANK=   OMEGAQ
000097: 36,2045           03666 74066                    2CADR    STEERING                              #  (7)
000098:
000099: 36,2047           12366                          TCF      P40SJUNK                              #  (11)
000100: 36,2050           12563                          TCF      WAITABIT                              #  (12)
000101: 36,2051           12504                          TCF      P40IGN                                #  (13)
000102: 36,2052           13123                          TCF      REP40ALM                              #  (14)
000103:
000104: 36,2053           12151        P41TABLE          TCF      P41SPOT                               #  (5)
000105: 36,2054           77776                          DEC      -1         B-14                       #  (6)
000106: 36,2055  E6,1422                                 EBANK=   OMEGAQ
000107: 36,2055           03376 74066                    2CADR    CALCN85                               #  (7)
000108:
000109: 36,2057           12400                          TCF      COMMON                                #  (11)
000110: 36,2060           12567                          TCF      TIGTASK                               #  (12)
000111:
000112: 36,2061           01450        P42TABLE          VN       0640                                  #  (0)
000113: 36,2062           12322                          TCF      WANTAPS                               #  (1)
000114: 36,2063           12614                          TCF      COMFAIL4                              #  (2)
000115: 36,2064           13047                          TCF      GOPOST                                #  (3)
000116: 36,2065           15261                          TCF      TASKOVER                              #  (4)
000117: 36,2066           12146                          TCF      P42SPOT                               #  (5)
000118: 36,2067           05120                          DEC      2640       B-14                       #  (6)
000119: 36,2070  E6,1422                                 EBANK=   OMEGAQ
000120: 36,2070           03666 74066                    2CADR    STEERING                              #  (7)
000121:
000122: 36,2072           12366                          TCF      P40SJUNK                              #  (11)
000123: 36,2073           12563                          TCF      WAITABIT                              #  (12)
000124: 36,2074           12541                          TCF      P42IGN                                #  (13)
000125: 36,2075           13420                          TCF      P42STAGE                              #  (14)
000126:
000127: 36,2076           01476        P63TABLE          VN       0662                                  #  (0)
000128: 36,2077           12325                          TCF      ULLGNOT                               #  (1)
000129: 36,2100           12612                          TCF      COMFAIL3                              #  (2)
000130: 36,2101           12777                          TCF      V99RECYC                              #  (3)
000131: 36,2102           15261                          TCF      TASKOVER                              #  (4)
000132: 36,2103           12151                          TCF      P63SPOT                               #  (5)
000133: 36,2104           04300                          DEC      2240       B-14                       #  (6)
000134: 36,2105  E7,1455                                 EBANK=   WHICH
000135: 36,2105           03770 64067                    2CADR    SERVEXIT                              #  (7)
000136:
000137: 36,2107           12376                          TCF      DISPCHNG                              #  (11)
000138: 36,2110           12563                          TCF      WAITABIT                              #  (12)
000139:                                                                                                 #  Page 733
000140: 36,2111           12455                          TCF      P63IGN                                #  (13)
000141:
000142: 36,2112           01477        ABRTABLE          VN       0663                                  #  (0)
000143: 36,2113           12325                          TCF      ULLGNOT                               #  (1)
000144: 36,2114           12612                          TCF      COMFAIL3                              #  (2)
000145: 36,2115           13062                          TCF      GOCUTOFF                              #  (3)
000146: 36,2116           15261                          TCF      TASKOVER                              #  (4)
000147: 36,2117           12120                          NOOP                                           #  (5)
000148: 36,2120           12121                          NOOP                                           #  (6)
000149: 36,2121           12122                          NOOP                                           #  (7)
000150: 36,2122           12123                          NOOP
000151: 36,2123           12376                          TCF      DISPCHNG                              #  (11)
000152: 36,2124           12563                          TCF      WAITABIT                              #  (12)
000153: 36,2125           12531                          TCF      ABRTIGN                               #  (13)
000154:
000155:                                                                                                 #         *********************************
000156:                                                                                                 #         GENERAL PURPOSE IGNITION ROUTINES
000157:                                                                                                 #         *********************************
000158:
000159: 36,2126           05353        BURNBABY          TC       PHASCHNG                              #  GROUP 4 RESTARTS HERE
000160: 36,2127           04024                          OCT      04024
000161:
000162: 36,2130           34755                          CAF      ZERO                                  #  EXTIRPATE JUNK LEFT IN DVTOTAL
000163: 36,2131           55507                          TS       DVTOTAL
000164: 36,2132           55510                          TS       DVTOTAL    +1
000165:
000166: 36,2133           04616                          TC       BANKCALL                              #  P40AUTO MUST BE BANKCALLED EVEN FROM ITS
000167: 36,2134           73747                          CADR     P40AUTO                               #  OWN BANK TO SET UP RETURN PROPERLY
000168:
000169: 36,2135           00006        B*RNB*B*          EXTEND
000170: 36,2136           31442                          DCA      TIG                                   #  STORE NOMINAL TIG FOR OBLATENESS COMP.
000171: 36,2137           53512                          DXCH     GOBLTIME                              #  AND FOR P70 OR P71.
000172:
000173: 36,2140           00004                          INHINT
000174: 36,2141           04674                          TC       IBNKCALL
000175: 36,2142           75564                          CADR     ENGINOF3
000176: 36,2143           00003                          RELINT
000177:
000178: 36,2144           51455                          INDEX    WHICH
000179: 36,2145           10005                          TCF      5
000180:
000181: 36,2146  36,2146               P42SPOT           =        P40SPOT                               #  (5)
000182: 36,2146  36,2146               P12SPOT           =        P40SPOT                               #  (5)
000183: 36,2146  36,2151               P63SPOT           =        P41SPOT                               #  (5)    IN P63 CLOKTASK ALREADY GOING
000184: 36,2146           44762        P40SPOT           CS       CNTDNDEX                              #  (5)
000185:                                                                                                 #  Page 734
000186: 36,2147           04616                          TC       BANKCALL                              #  MUST BE BANKCALLED FOR GENERALIZED
000187: 36,2150           74664                          CADR     STCLOK2                               #         RETURN
000188: 36,2151           06037        P41SPOT           TC       INTPRET                               #  (5)
000189: 36,2152           45345                          DLOAD    DSU
000190: 36,2153           03442                                   TIG
000191: 36,2154           35143                                   D29.9SEC
000192: 36,2155           34041                          STCALL   TDEC1
000193: 36,2156           61104                                   INITCDUW
000194: 36,2157           45014                          BOFF     CALL
000195: 36,2160           03347                                   MUNFLAG
000196: 36,2161           74200                                   GOMIDAV
000197: 36,2162           27043                                   CSMPREC
000198: 36,2163           64375                          VLOAD    MXV
000199: 36,2164           00025                                   VATT1
000200: 36,2165           01734                                   REFSMMAT
000201: 36,2166           77762                          VSR1
000202: 36,2167           25726                          STOVL    V(CSM)                                #  CSM VELOCITY -- M/CS*2(7)
000203: 36,2170           00017                                   RATT1
000204: 36,2171           64312                          VSL4     MXV
000205: 36,2172           01734                                   REFSMMAT
000206: 36,2173           35720                          STCALL   R(CSM)                                #  CSM POSITION -- M*2(24)
000207: 36,2174           67130                                   MUNGRAV
000208: 36,2175           16317                          STODL    G(CSM)                                #  CSM GRAVITY VEC. -- M/CS*2(7)
000209: 36,2176           00015                                   TAT
000210: 36,2177           00041                          STORE    TDEC1                                 #  RELOAD TDEC1 FOR MIDTOAV.
000211: 36,2200           77624        GOMIDAV           CALRB
000212: 36,2201           27557                                   MIDTOAV1
000213: 36,2202           12211                          TCF      CALLT-35                              #  MADE IT IN TIME.
000214:
000215: 36,2203           00006                          EXTEND                                         #  TIG WAS SLIPPED, SO RESET TIG TO 29.9
000216: 36,2204           31561                          DCA      PIPTIME1                              #  SECONDS AFTER THE TIME TO WHICH WE DID
000217: 36,2205           53442                          DXCH     TIG                                   #  INTEGRATE.
000218: 36,2206           00006                          EXTEND
000219: 36,2207           33143                          DCA      D29.9SEC
000220: 36,2210           21442                          DAS      TIG
000221:
000222: 36,2211           52155        CALLT-35          DXCH     MPAC
000223: 36,2212           53500                          DXCH     SAVET-30                              #  DELTA-T UNTIL TIG-30
000224: 36,2213           00006                          EXTEND
000225: 36,2214           43756                          DCS      5SECDP
000226: 36,2215           21500                          DAS      SAVET-30                              #  DELTA-T UNTIL TIG-35
000227: 36,2216           00006                          EXTEND
000228: 36,2217           31500                          DCA      SAVET-30
000229: 36,2220           05277                          TC       LONGCALL
000230: 36,2221  E7,1453                                 EBANK=   TTOGO
000231: 36,2221           02240 74067                    2CADR    TIG-35
000232:
000233: 36,2223           05353                          TC       PHASCHNG
000234: 36,2224           20254                          OCT      20254                                 #  4.25SPOT FOR TIG-35 RESTART.
000235:                                                                                                 #  Page 735
000236: 36,2225           05321                          TC       CHECKMM
000237: 36,2226           00077                          DEC      63         B-14
000238: 36,2227           15155                          TCF      ENDOFJOB                              #  NOT P63
000239: 36,2230           44762                          CS       CNTDNDEX                              #  P63 CAN START DISPLAYING NOW.
000240: 36,2231           55163                          TS       DISPDEX
000241: 36,2232           06037                          TC       INTPRET
000242: 36,2233           51575                          VLOAD    ABVAL
000243: 36,2234           03553                                   VN1
000244: 36,2235           03472                          STORE    ABVEL                                 #  INITIALIZE ABVEL FOR P63 DISPLAY
000245: 36,2236           77776                          EXIT
000246: 36,2237           15155                          TCF      ENDOFJOB
000247:
000248:                                                                                                 #         ********************************
000249:
000250: 36,2240           33756        TIG-35            CAF      5SEC
000251: 36,2241           05173                          TC       TWIDDLE
000252: 36,2242           02276                          ADRES    TIG-30
000253:
000254: 36,2243           05353                          TC       PHASCHNG
000255: 36,2244           40154                          OCT      40154                                 #  4.15SPOT FOR TIG-30 RESTART
000256:
000257: 36,2245           44752                          CS       BLANKDEX                              #  BLANK DSKY FOR 5 SECONDS
000258: 36,2246           55163                          TS       DISPDEX
000259:
000260: 36,2247           51455                          INDEX    WHICH
000261: 36,2250           40006                          CS       6                                     #  CHECK ULLAGE TIME.
000262: 36,2251           00006                          EXTEND
000263: 36,2252           65261                          BZMF     TASKOVER
000264: 36,2253           33145                          CAF      4.9SEC                                #  SET UP TASK TO RESTORE DISPLAY AT TIG-30
000265: 36,2254           05173                          TC       TWIDDLE
000266: 36,2255           02266                          ADRES    TIG-30.1
000267:
000268: 36,2256           35027                          CAF      PRIO17                                #  A NEGATIVE ULLAGE TIME INDICATES P41, IN
000269: 36,2257           05072                          TC       NOVAC                                 #  WHICH CASE WE HAVE TO SET UP A JOB TO
000270: 36,2260  E7,1453                                 EBANK=   TTOGO                                 #  BLANK THE DSKY FOR FIVE SECONDS, SINCE
000271: 36,2260           02263 74067                    2CADR    P41BLANK                              #  CLOKJOB IS NOT RUNNING DURING P41.
000272:
000273: 36,2262           15261                          TCF      TASKOVER
000274:
000275: 36,2263           04616        P41BLANK          TC       BANKCALL                              #  BLANK DSKY.
000276: 36,2264           20456                          CADR     CLEANDSP
000277: 36,2265           15155                          TCF      ENDOFJOB
000278:
000279: 36,2266           35027        TIG-30.1          CAF      PRIO17                                #  SET UP JOB TO RESTORE DISPLAY AT TIG-30
000280: 36,2267           05072                          TC       NOVAC
000281: 36,2270  E7,1453                                 EBANK=   TTOGO
000282: 36,2270           02273 74067                    2CADR    TIG-30A
000283:
000284: 36,2272           15261                          TCF      TASKOVER
000285:                                                                                                 #  Page 736
000286: 36,2273           33761        TIG-30A           CAF      V16N85B
000287: 36,2274           04616                          TC       BANKCALL                              #  RESTORE DISPLAY.
000288: 36,2275           20465                          CADR     REGODSP                               #  REGODSP DOES A TCF ENDOFJOB
000289:
000290:                                                                                                 #         ********************************
000291:
000292: 36,2276           33144        TIG-30            CAF      S24.9SEC
000293: 36,2277           05173                          TC       TWIDDLE
000294: 36,2300           02352                          ADRES    TIG-5
000295:
000296: 36,2301           44762                          CS       CNTDNDEX                              #  START UP CLOKTASK AGAIN
000297: 36,2302           55163                          TS       DISPDEX
000298:
000299: 36,2303           51455                          INDEX    WHICH                                 #  PICK UP APPROPRIATE ULLAGE -- ON TIME
000300: 36,2304           30006                          CA       6                                     #  Was CAF --- RSB 2009.
000301: 36,2305           00006                          EXTEND
000302: 36,2306           62325                          BZMF     ULLGNOT                               #  DON'T SET UP ULLAGE IF DT IS NEG OR ZERO
000303: 36,2307           55477                          TS       SAVET-30                              #  SAVE DELTA-T FOR RESTART
000304: 36,2310           05173                          TC       TWIDDLE
000305: 36,2311           02346                          ADRES    ULLGTASK
000306:
000307: 36,2312           36245                          CA       THREE                                 #  RESTART PROTECT ULLGTASK (1.3SPOT)
000308: 36,2313           54001                          TS       L
000309: 36,2314           46245                          CS       THREE
000310: 36,2315           52753                          DXCH     -PHASE1
000311: 36,2316           40025                          CS       TIME1
000312: 36,2317           55053                          TS       TBASE1
000313:
000314: 36,2320           51455                          INDEX    WHICH
000315: 36,2321           10001                          TCF      1
000316:
000317: 36,2322           40106        WANTAPS           CS       FLGWRD10                              #  (1) FOR P42 ENSURE APSFLAG IS SET.  IF IT
000318: 36,2323           74737                          MASK     APSFLBIT                              #  WASN'T SET, DAP WILL BE INITIALIZED TO
000319: 36,2324           26106                          ADS      FLGWRD10                              #  ASCENT VALUES BY 1/ACCS IN 2 SECONDS.
000320:
000321: 36,2325           00006        ULLGNOT           EXTEND                                         #  (1)
000322: 36,2326           51455                          INDEX    WHICH
000323: 36,2327           30010                          DCA      7                                     #  LOAD AVEGEXIT WITH APPROPRIATE 2CADR
000324: 36,2330           53253                          DXCH     AVEGEXIT
000325:
000326: 36,2331           34752                          CAF      TWO                                   #  4.2SPOT RESTARTS IMMEDIATELY AT REDO4.2
000327: 36,2332           54001                          TS       L
000328: 36,2333           44752                          CS       TWO                                   #  AND ALSO AT TIG-5 AT THE CORRECT TIME.
000329: 36,2334           52761                          DXCH     -PHASE4
000330:
000331: 36,2335           40025                          CS       TIME1
000332: 36,2336           55061                          TS       TBASE4                                #  SET TBASE4 FOR TIG-5 RESTART
000333:
000334: 36,2337           00006        REDO2.17          EXTEND
000335:                                                                                                 #  Page 737
000336: 36,2340           34755                          DCA      NEG0                                  #  CLEAR OUT GROUP 2 SO LAMBERT CAN START
000337: 36,2341           52755                          DXCH     -PHASE2                               #  IF NEEDED.
000338:
000339: 36,2342           10763        REDO4.2           CCS      PHASE5                                #  IF SERVICER GOING?
000340: 36,2343           15261                          TCF      TASKOVER                              #  YES, DON'T START IT UP AGAIN.
000341:
000342: 36,2344           04635                          TC       POSTJUMP
000343: 36,2345           77410                          CADR     PREREAD                               #  PREREAD END THIS TASK
000344:
000345:                                                                                                 #         *********************************
000346:
000347: 36,2346           02657        ULLGTASK          TC       ONULLAGE                              #  THIS COMES AT TIG-7.5 OR TIG-3.5
000348: 36,2347           05353                          TC       PHASCHNG
000349: 36,2350           00001                          OCT      1
000350: 36,2351           15261                          TCF      TASKOVER
000351:
000352:                                                                                                 #         *********************************
000353:
000354: 36,2352           00006        TIG-5             EXTEND
000355: 36,2353           34755                          DCA      NEG0                                  #  INSURE THAT GROUP 3 IS INACTIVE.
000356: 36,2354           52757                          DXCH     -PHASE3
000357:
000358: 36,2355           33756                          CAF      5SEC
000359: 36,2356           05173                          TC       TWIDDLE
000360: 36,2357           02403                          ADRES    TIG-0
000361:
000362: 36,2360           05516                          TC       DOWNFLAG                              #  RESET IGNFLAG AND ASINFLAG
000363: 36,2361           00153                          ADRES    IGNFLAG                               #         FOR LIGHT-UP LOGIC.
000364: 36,2362           05516                          TC       DOWNFLAG
000365: 36,2363           00154                          ADRES    ASTNFLAG
000366:
000367: 36,2364           51455                          INDEX    WHICH
000368: 36,2365           10011                          TCF      11
000369:
000370: 36,2366           10757        P40SJUNK          CCS      PHASE3                                #  (11) P40 AND P42.  S40.13 IN PROGRESS?
000371: 36,2367           12376                          TCF      DISPCHNG                              #  YES
000372:
000373: 36,2370           34736                          CAF      PRIO20
000374: 36,2371           05105                          TC       FINDVAC
000375: 36,2372  E7,1453                                 EBANK=   TTOGO
000376: 36,2372           02540 56067                    2CADR    S40.13
000377:
000378: 36,2374           05353                          TC       PHASCHNG                              #  3.5SPOT FOR S40.13
000379: 36,2375           00053                          OCT      00053
000380: 36,2376           44760        DISPCHNG          CS       VB99DEX                               #  (11)
000381: 36,2377           55163                          TS       DISPDEX
000382:
000383:                                                                                                 #  Page 738
000384: 36,2400           05353        COMMON            TC       PHASCHNG                              #  RESTART TIG-0 (4.7SPOT)
000385: 36,2401           40074                          OCT      40074
000386: 36,2402           15261                          TCF      TASKOVER
000387:
000388:                                                                                                 #         *********************************
000389:
000390: 36,2403           40103        TIG-0             CS       FLAGWRD7                              #  SET IGNFLAG SINCE TIG HAS ARRIVED
000391: 36,2404           74737                          MASK     IGNFLBIT
000392: 36,2405           26103                          ADS      FLAGWRD7
000393:
000394: 36,2406           05321                          TC       CHECKMM                               #  IN P63 CASE, THROTTLE-UP IS ZOOMTIME
000395: 36,2407           00077                          DEC      63         B-14                       #  AFTER NOMINAL IGNITION, NOT ACTUAL
000396: 36,2410           12421                          TCF      IGNYET?
000397: 36,2411           31422                          CA       ZOOMTIME
000398: 36,2412           05203                          TC       WAITLIST
000399: 36,2413  E7,1515                                 EBANK=   DVCNTR
000400: 36,2413           02007 36067                    2CADR    P63ZOOM
000401:
000402: 36,2415           05327                          TC       2PHSCHNG
000403: 36,2416           40033                          OCT      40033
000404:
000405: 36,2417           05014                          OCT      05014
000406: 36,2420           77777                          OCT      77777
000407:
000408: 36,2421           34740        IGNYET?           CAF      ASTNBIT                               #  CHECK ASTNFLAG:  HAS ASTRONAUT RESPONDED
000409: 36,2422           70103                          MASK     FLAGWRD7                              #  TO OUR ENGINE ENABLE REQUEST?
000410: 36,2423           00006                          EXTEND
000411: 36,2424           51455                          INDEX    WHICH
000412: 36,2425           10012                          BZF      12                                    #  BRANCH IF HE HAS NOT RESPONDED YET
000413:
000414: 36,2426           40101        IGNITION          CS       FLAGWRD5                              #  INSURE ENGONFLG IS SET.
000415: 36,2427           74745                          MASK     ENGONBIT
000416: 36,2430           26101                          ADS      FLAGWRD5
000417: 36,2431           44355                          CS       PRIO30                                #  TURN ON THE ENGINE.
000418: 36,2432           00006                          EXTEND
000419: 36,2433           02011                          RAND     DSALMOUT
000420: 36,2434           64737                          AD       BIT13
000421: 36,2435           00006                          EXTEND
000422: 36,2436           01011                          WRITE    DSALMOUT
000423: 36,2437           00006                          EXTEND                                         #  SET TEVENT FOR DOWNLINK
000424: 36,2440           30025                          DCA      TIME2
000425: 36,2441           53345                          DXCH     TEVENT
000426:
000427: 36,2442           00006                          EXTEND                                         #  UPDATE TIG USING TGO FROM S40.13
000428: 36,2443           31517                          DCA      TGO
000429: 36,2444           53442                          DXCH     TIG
000430: 36,2445           00006                          EXTEND
000431: 36,2446           30025                          DCA      TIME2
000432: 36,2447           21442                          DAS      TIG
000433:
000434:                                                                                                 #  Page 739
000435: 36,2450           44742                          CS       FLUNDBIT                              #  PERMIT GUIDANCE LOOP DISPLAYS
000436: 36,2451           70104                          MASK     FLAGWRD8
000437: 36,2452           54104                          TS       FLAGWRD8
000438:
000439: 36,2453           51455                          INDEX    WHICH
000440: 36,2454           10013                          TCF      13
000441:
000442: 36,2455           00006        P63IGN            EXTEND                                         #  (13)   INITIATE BURN DISPLAYS
000443: 36,2456           33137                          DCA      DSP2CADR
000444: 36,2457           53253                          DXCH     AVGEXIT
000445:
000446: 36,2460           30005                          CA       Z                                     #  ASSASSINATE CLOKTASK
000447: 36,2461           55163                          TS       DISPDEX
000448:
000449: 36,2462           40105                          CS       FLAGWRD9                              #  SET FLAG FOR P70-P71
000450: 36,2463           74743                          MASK     LETABBIT
000451: 36,2464           26105                          ADS      FLAGWRD9
000452:
000453: 36,2465           40103                          CS       FLAGWRD7                              #  SET SWANDISP TO ENABLE R10.
000454: 36,2466           74741                          MASK     SWANDBIT
000455: 36,2467           26103                          ADS      FLAGWRD7
000456:
000457: 36,2470           44735                          CS       PULSES                                #  MAKE SURE DAP IS NOT IN MINIMUM-IMPULSE
000458: 36,2471           70111                          MASK     DAPBOOLS                              #  MODE, IN CASE OF SWITCH TO P66
000459: 36,2472           54111                          TS       DAPBOOLS
000460:
000461: 36,2473           00006                          EXTEND                                         #  INITIALIZE TIG FOR P70 AND P71.
000462: 36,2474           30025                          DCA      TIME2
000463: 36,2475           53442                          DXCH     TIG
000464:
000465: 36,2476           34755                          CAF      ZERO                                  #  INITIALIZE WCHPHASE, AND FLPASS0
000466: 36,2477           55351                          TS       WCHPHASE
000467: 36,2500           55621                          TS       WCHPHOLD                              #  ALSO WHCPHOLD
000468: 36,2501           34752                          CA       TWO
000469: 36,2502           55623                          TS       FLPASS0
000470:
000471: 36,2503           12541                          TCF      P42IGN
000472: 36,2504           40101        P40IGN            CS       FLAGWRD5                              #  (13)
000473: 36,2505           74740                          MASK     NOTHRBIT
000474: 36,2506           00006                          EXTEND
000475: 36,2507           12541                          BZF      P42IGN
000476: 36,2510           31422                          CA       ZOOMTIME
000477: 36,2511           05203                          TC       WAITLIST
000478: 36,2512  E7,1515                                 EBANK=   DVCNTR
000479: 36,2512           02015 36067                    2CADR    P40ZOOM
000480:
000481: 36,2514           05327        P63IGN1           TC       2PHSCHNG
000482: 36,2515           40033                          OCT      40033                                 #  3.3SPOT FOR ZOOM RESTART.
000483: 36,2516           05014                          OCT      05014                                 #  TYPE C RESTARTS HERE IMMEDIATELY
000484: 36,2517           77777                          OCT      77777
000485:
000486:                                                                                                 #  Page 740
000487: 36,2520           12541                          TCF      P42IGN
000488: 36,2521           35015        P12IGN            CAF      EBANK6
000489: 36,2522           54003                          TS       EBANK
000490: 36,2523  E6,1537                                 EBANK=   AOSQ
000491:
000492: 36,2523           31412                          CA       IGNAOSQ                               #  INITIALIZE DAP BIAS ACCELERATION
000493: 36,2524           55537                          TS       AOSQ                                  #  ESTIMATES AT P12 IGNITION.
000494: 36,2525           31413                          CA       IGNAOSR
000495: 36,2526           55541                          TS       AOSR
000496:
000497: 36,2527           35016                          CAF      EBANK7
000498: 36,2530           54003                          TS       EBANK
000499: 36,2531  E7,1515                                 EBANK=   DVCNTR
000500:
000501: 36,2531           30005        ABRTIGN           CA       Z                                     #  (13) KILL CLOKTASK
000502: 36,2532           55163                          TS       DISPDEX
000503:
000504: 36,2533           00006                          EXTEND                                         #  CONNECT ASCENT GYIDANCE TO SERVICER.
000505: 36,2534           33141                          DCA      ATMAGADR
000506: 36,2535           53253                          DXCH     AVGEXIT
000507:
000508: 36,2536           40103                          CS       FLAGWRD7                              #  ENABLE R10.
000509: 36,2537           74741                          MASK     SWANDBIT
000510: 36,2540           26103                          ADS      FLAGWRD7
000511:
000512: 36,2541           44744        P42IGN            CS       DRIFTBIT                              #  ENSURE THAT POWERED-FLIGHT SWITCHING
000513: 36,2542           70111                          MASK     DAPBOOLS                              #  CURVES ARE USED.
000514: 36,2543           54111                          TS       DAPBOOLS
000515: 36,2544           34743                          CAF      IMPULBIT                              #  EXAMINE IMPULSE SWITCH
000516: 36,2545           70076                          MASK     FLAGWRD2
000517: 36,2546           10000                          CCS      A
000518: 36,2547           13522                          TCF      IMPLBURN
000519:
000520: 36,2550           05516        DVMONCON          TC       DOWNFLAG
000521: 36,2551           00153                          ADRES    IGNFLAG                               #  CONNECT DVMON
000522: 36,2552           05516                          TC       DOWNFLAG
000523: 36,2553           00154                          ADRES    ASTNFLAG
000524: 36,2554           05516                          TC       DOWNFLAG
000525: 36,2555           00161                          ADRES    IDLEFLAG
000526:
000527: 36,2556           05353                          TC       PHASCHNG
000528: 36,2557           40054                          OCT      40054
000529:
000530: 36,2560           05221                          TC       FIXDELAY                              #  TURN ULLAGE OFF HALF A SECOND AFTER
000531: 36,2561           00062                          DEC      50         B-14                       #  LIGHT UP.
000532:
000533: 36,2562           02653        ULLAGOFF          TC       NOULLAGE
000534:
000535: 36,2563           00006        WAITABIT          EXTEND                                         #  KILL GROUP 4
000536: 36,2564           34755                          DCA      NEG0
000537:                                                                                                 #  Page 741
000538: 36,2565           52761                          DXCH     -PHASE4
000539:
000540: 36,2566           15261                          TCF      TASKOVER
000541:
000542: 36,2567           04635        TIGTASK           TC       POSTJUMP                              #  (12)
000543: 36,2570           36000                          CADR     TIGTASK1
000544:
000545:                                                                                                 #         ********************************
000546:
000547: 31,2144                                          BANK     31
000548: 17,2000                                          SETLOC   P40S3
000549: 17,2000                                          BANK
000550: 17,2000                                          COUNT*   $$/P40
000551:
000552: 17,2000           35026        TIGTASK1          CAF      PRIO16
000553: 17,2001           05072                          TC       NOVAC
000554: 17,2002  E7,1462                                 EBANK=   TRKMKCNT
000555: 17,2002           03241 74067                    2CADR    TIGNOW
000556:
000557: 17,2004           05353                          TC       PHASCHNG
000558: 17,2005           00006                          OCT      6                                     #  KILL GROUP 6
000559:
000560: 17,2006           15261                          TCF      TASKOVER
000561:
000562:                                                                                                 #         ********************************
000563:
000564: 17,2007           00006        P63ZOOM           EXTEND
000565: 17,2010           32026                          DCA      LUNLANAD
000566: 17,2011           53253                          DXCH     AVEGEXIT
000567:
000568: 17,2012           04674                          TC       IBNKCALL
000569: 17,2013           62370                          CADR     FLATOUT
000570: 17,2014           12022                          TCF      P40ZOOMA
000571:
000572: 17,2015           34737        P40ZOOM           CAF      BIT13
000573: 17,2016           54055                          TS       THRUST
000574: 17,2017           34750                          CAF      BIT4
000575:
000576: 17,2020           00006                          EXTEND
000577: 17,2021           05014                          WOR      CHAN14
000578:
000579: 17,2022           05353        P40ZOOMA          TC       PHASCHNG
000580: 17,2023           00003                          OCT      3
000581: 17,2024           15261                          TCF      TASKOVER
000582:
000583: 17,2025  E7,1515                                 EBANK=   DVCNTR
000584: 17,2025           02462 62067  LUNLANAD          2CADR    LUNLAND
000585:
000586:                                                                                                 #  Page 742
000587: 17,2027  17,2022               ZOOM              =        P40ZOOMA
000588: 36,2571                                          BANK     36
000589: 36,2000                                          SETLOC   P40S
000590: 36,2000                                          BANK
000591: 36,2571                                          COUNT*   $$/P40
000592:
000593:                                                                                                 #         ********************************
000594:
000595: 36,2571           05504        COMFAIL           TC       UPFLAG                                #  (15)
000596: 36,2572           00161                          ADRES    IDLEFLAG
000597: 36,2573           05504                          TC       UPFLAG                                #  SET FLAG TO SUPRESS CONFLICTING DISPLAY
000598: 36,2574           00175                          ADRES    FLUNDISP
000599: 36,2575           34751                          CAF      FOUR                                  #  RESET DVMON
000600: 36,2576           55515                          TS       DVCNTR
000601: 36,2577           10765                          CCS      PHASE6                                #  CLOCKTASK ACTIVE?
000602: 36,2600           12603                          TCF      +3                                    #  YES
000603: 36,2601           04616                          TC       BANKCALL                              #  OTHERWISE, START IT UP
000604: 36,2602           74663                          CADR     STCLOK1
000605: 36,2603           44765                 +3       CS       VB97DEX
000606: 36,2604           55163                          TS       DISPDEX
000607: 36,2605           05353                          TC       PHASCHNG                              #  TURN OFF GROUP 4.
000608: 36,2606           00004                          OCT      00004
000609: 36,2607           15155                          TCF      ENDOFJOB
000610:
000611: 36,2610           51455        COMFAIL1          INDEX    WHICH
000612: 36,2611           10002                          TCF      2
000613:
000614: 36,2612           30005        COMFAIL3          CA       Z                                     #  (15)   KILL CLOKTASK USING Z
000615: 36,2613           12615                          TCF      +2
000616:
000617: 36,2614           44762        COMFAIL4          CS       CNTDNDEX
000618: 36,2615           55163                          TS       DISPDEX
000619:
000620: 36,2616           05516                          TC       DOWNFLAG                              #  RECONNECT DV MONITOR
000621: 36,2617           00161                          ADRES    IDLEFLAG
000622: 36,2620           05516                          TC       DOWNFLAG                              #  PERMIT GUIDANCE LOOP DISPLAYS
000623: 36,2621           00175                          ADRES    FLUNDISP
000624: 36,2622           15155                          TCF      ENDOFJOB
000625:
000626: 36,2623           05353        COMFAIL2          TC       PHASCHNG                              #  KILL ZOOM RESTART PROTECTION
000627: 36,2624           00003                          OCT      00003
000628:
000629: 36,2625           00004                          INHINT
000630: 36,2626           06027                          TC       KILLTASK                              #  KILL ZOOM IN CASE IT'S STILL TO COME
000631: 36,2627           36022                          CADR     ZOOM
000632: 36,2630           04674                          TC       IBNKCALL                              #  COMMAND ENGINE OFF
000633: 36,2631           75561                          CADR     ENGINOF4
000634: 36,2632           05504                          TC       UPFLAG                                #  SET THE DRIFT BIT FOR THE DAP.
000635: 36,2633           00312                          ADRES    DRIFTDFL
000636:                                                                                                 #  Page 743
000637: 36,2634           02645                          TC       INVFLAG                               #  USE OTHER RCS SYSTEM
000638: 36,2635           00310                          ADRES    AORBTFLG
000639: 36,2636           05504                          TC       UPFLAG                                #  TURN ON ULLAGE
000640: 36,2637           00314                          ADRES    ULLAGFLG
000641: 36,2640           34753                          CAF      BIT1
000642: 36,2641           00004                          INHINT
000643: 36,2642           05173                          TC       TWIDDLE
000644: 36,2643           02352                          ADRES    TIG-5
000645: 36,2644           15155                          TCF      ENDOFJOB
000646:
000647:                                                                                                 #         ***********************************
000648:                                                                                                 #         SUBROUTINES OF THE IGNITION ROUTINE
000649:                                                                                                 #         ***********************************
000650:
000651: 36,2645           30002        INVFLAG           CA       Q
000652: 36,2646           05522                          TC       DEBIT
000653: 36,2647           40000                          COM
000654: 36,2650           00006                          EXTEND
000655: 36,2651           06001                          RXOR     LCHAN
000656: 36,2652           15511                          TCF      COMFLAG
000657:
000658:                                                                                                 #         ***********************************
000659:
000660: 36,2653           44746        NOULLAGE          CS       ULLAGER                               #  MUST BE CALLED IN A TASK OR UNDER INHINT
000661: 36,2654           70111                          MASK     DAPBOOLS
000662: 36,2655           54111                          TS       DAPBOOLS
000663: 36,2656           00002                          TC       Q
000664:
000665:                                                                                                 #         ***********************************
000666:
000667: 36,2657           40111        ONULLAGE          CS       DAPBOOLS                              #  TURN ON ULLAGE.  MUST BE CALLED IN
000668: 36,2660           74746                          MASK     ULLAGER                               #  A TASK OR WHILE INHINTED.
000669: 36,2661           26111                          ADS      DAPBOOLS
000670: 36,2662           00002                          TC       Q
000671:
000672:                                                                                                 #         ***********************************
000673:
000674: 36,2663           34755        STCLOK1           CA       ZERO                                  #  THIS ROUTINE STARTS THE COUNT-DOWN
000675: 36,2664           55163        STCLOK2           TS       DISPDEX                               #  (CLOKTASK AND CLOKJOB).  SETTING
000676: 36,2665           04645        STCLOK3           TC       MAKECADR                              #  SETTING DISPDEX POSITIVE KILLS IT.
000677: 36,2666           55061                          TS       TBASE4                                #  RETURN SAVE (NOT FOR RESTARTS).
000678: 36,2667           00006                          EXTEND
000679: 36,2670           31442                          DCA      TIG
000680: 36,2671           52155                          DXCH     MPAC
000681: 36,2672           00006                          EXTEND
000682: 36,2673           40025                          DCS      TIME2
000683:                                                                                                 #  Page 744
000684: 36,2674           20155                          DAS      MPAC                                  #  HAVE TIG -- TIME2, UNDOUBTEDLY A + NUMBER
000685: 36,2675           07257                          TC       TPAGREE                               #  POSITIVE, SINCE WE PASSED THE
000686: 36,2676           34777                          CAF      1SEC                                  #  45 SECOND CHECK.
000687: 36,2677           54002                          TS       Q
000688: 36,2700           52155                          DXCH     MPAC
000689: 36,2701           74346                          MASK     LOW5                                  #  RESTRICT MAGNITUDE OF NUMBER IN A
000690: 36,2702           00006                          EXTEND
000691: 36,2703           10002                          DV       Q
000692: 36,2704           30001                          CA       L                                     #  GET REMAINDER
000693: 36,2705           64752                          AD       TWO
000694: 36,2706           00004                          INHINT
000695: 36,2707           05173                          TC       TWIDDLE
000696: 36,2710           02717                          ADRES    CLOKTASK
000697: 36,2711           05327                          TC       2PHSCHNG
000698: 36,2712           40036                          OCT      40036                                 #  6.3SPOT FOR CLOKTASK
000699: 36,2713           05024                          OCT      05024
000700: 36,2714           13000                          OCT      13000
000701:
000702: 36,2715           31061                          CA       TBASE4
000703: 36,2716           04640                          TC       BANKJUMP
000704:
000705: 36,2717           40025        CLOKTASK          CS       TIME1                                 #  SET TBASE6 FOR GROUP 6 RESTART
000706: 36,2720           55065                          TS       TBASE6
000707:
000708: 36,2721           11163                          CCS      DISPDEX
000709: 36,2722           12733                          TCF      KILLCLOK
000710: 36,2723           12724                          NOOP
000711: 36,2724           37715                          CAF      PRIO27
000712: 36,2725           05072                          TC       NOVAC
000713: 36,2726  E7,1453                                 EBANK=   TTOGO
000714: 36,2726           02737 74067                    2CADR    CLOKJOB
000715:
000716: 36,2730           05221                          TC       FIXDELAY                              #  WAIT A SECOND BEFORE STARTING OVER
000717: 36,2731           00144                          DEC      100        B-14
000718: 36,2732           12717                          TCF      CLOKTASK
000719:
000720: 36,2733           00006        KILLCLOK          EXTEND                                         #  KILL RESTART
000721: 36,2734           34755                          DCA      NEG0
000722: 36,2735           52765                          DXCH     -PHASE6
000723: 36,2736           15261                          TCF      TASKOVER
000724:
000725: 36,2737           00006        CLOKJOB           EXTEND
000726: 36,2740           41442                          DCS      TIG
000727: 36,2741           53454                          DXCH     TTOGO
000728: 36,2742           00006                          EXTEND
000729:                                                                                                 #  Page 745
000730: 36,2743           30025                          DCA      TIME2
000731: 36,2744           21454                          DAS      TTOGO
000732: 36,2745           00004                          INHINT
000733: 36,2746           11163                          CCS      DISPDEX                               #  IF DISPDEX HAS BEEN SET POSITIVE BY A
000734: 36,2747           15155                          TCF      ENDOFJOB                              #  TASK OR A HIGHER PRIORITY JOB SINCE THE
000735: 36,2750           15155                          TCF      ENDOFJOB                              #  LAST CLOKTASK, AVOID USING IT AS AN
000736: 36,2751           40000                          COM                                            #  INDEX.
000737: 36,2752           00003                          RELINT                                         #  ***** DISPDEX MUST NEVER B -0 *****
000738: 36,2753           50000                          INDEX    A
000739: 36,2754           13011                          TCF      DISPNOT    -1                         #  (-1 DUE TO EFFECT OF CCS)
000740:
000741: 36,2755     4765               VB97DEX           =        OCT35                                 #  NEGATIVE OF THIS IS PROPER FOR DISPDEX
000742:
000743: 36,2755           44755                 -35      CS       ZERO                                  #  INDICATE VERB 97 PASTE
000744: 36,2756           55067                          TS       NVWORD1
000745: 36,2757           30371                          CA       NVWORD     +2                         #  NVWORD+2 CONTAINS V06 & APPROPRIATE NOUN
000746: 36,2760           04616                          TC       BANKCALL
000747: 36,2761           20473                          CADR     CLOCPLAY
000748: 36,2762           13013                          TCF      STOPCLOK                              #  TERMINATE CLOKTASK ON THE WAY TO P00H
000749: 36,2763           12610                          TCF      COMFAIL1
000750: 36,2764           12623                          TCF      COMFAIL2
000751:
000752:                                                                                                 #  THIS DISPLAY IS CALLED VIA ASTNCLOK
000753: 36,2765           33146                 -25      CAF      V06N61                                #  IT IS PRIMARILY USED BY THE CREW IN P63
000754: 36,2766           04616                          TC       BANKCALL                              #  TO RESET HIS EVENT TIMER TO AGREE WITH
000755: 36,2767           20457                          CADR     REFLASH                               #  TIG.
000756: 36,2770           13013                          TCF      STOPCLOK
000757: 36,2771           13030                          TCF      ASTNRETN
000758: 36,2772           12764                          TCF      -6
000759:
000760: 36,2773     4762               CNTDNDEX          =        LOW4                                  #  OCT17:  NEGATIVE PROPER FOR DISPDEX
000761:
000762: 36,2773           51455                 -17      INDEX    WHICH                                 #  THIS DISPLAY COMES UP AT ONE SECOND
000763:                                                                                                 #  Was CAF --- RSB 2009
000764: 36,2774           30000                          CA       0                                     #  INTERVALS.  IT IS NORMALLY OPERATED
000765: 36,2775           04616                          TC       BANKCALL                              #  BETWEEN TIG-30 SECONDS AND TIG-5 SECONDS
000766: 36,2776           20465                          CADR     REGODSP                               #  REGODSP DOES ITS OWN TCF ENDOFJOB
000767:
000768: 36,2777     4760               VB99DEX           =        ELEVEN                                #  OCT13:  NEGATIVE PROPER FOR DISPDEX
000769:
000770: 36,2777                        V99RECYC          EQUALS
000771:
000772: 36,2777           44743                 -13      CS       BIT9                                  #  INDICATE VERB 99 PASTE
000773: 36,3000           55067                          TS       NVWORD1
000774: 36,3001           51455                          INDEX    WHICH                                 #  THIS IS THE "PLEASE ENABLE ENGINE"
000775:                                                                                                 #  Was CAF --- RSB 2004
000776: 36,3002           30000                          CA       0                                     #  DISPLAY; IT IS INITIATED AT TIG-5 SEC.
000777: 36,3003           04616                          TC       BANKCALL                              #  THE DISPLAY IS A V99NXX, WHERE XX IS
000778: 36,3004           20473                          CADR     CLOCPLAY                              #  NOUN THAT HAD PREVIOUSLY BEEN DISPLAYED
000779: 36,3005           13013                          TCF      STOPCLOK                              #  TERMINATE GOTOP00H TURNS OFF ULLAGE.
000780: 36,3006           13041                          TCF      *PROCEED
000781: 36,3007           13044                          TCF      *ENTER
000782:
000783:                                                                                                 #  Page 746
000784: 36,3010     4752               BLANKDEX          =        TWO                                   #  NEGATIVE OF THIS IS PROPER FOR DISPDEX
000785:
000786: 36,3010           04616                 -2       TC       BANKCALL                              #  BLANK DSKY.  THE DSKY IS BLANKED FOR
000787: 36,3011           20456                          CADR     CLEANDSP                              #  5 SECONDS AT TIG-35 TO INDICATE THAT
000788: 36,3012           15155        DISPNOT           TCF      ENDOFJOB                              #  AVERAGE G IS STARTING.
000789:
000790: 36,3013           03015        STOPCLOK          TC       NULLCLOK                              #  STOP CLOKTASK & TURN OFF ULLAGE ON THE
000791: 36,3014           16001                          TCF      GOTOP00H                              #  WAY TO P00 (GOTOP00H RELINTS)
000792:
000793: 36,3015           00004        NULLCLOK          INHINT
000794: 36,3016           00006                          EXTEND
000795: 36,3017           23142                          QXCH     P40/RET
000796: 36,3020           02653                          TC       NOULLAGE                              #  TURN OFF ULLAGE ...
000797: 36,3021           06027                          TC       KILLTASK                              #         DON'T LET IT COME ON, EITHER ...
000798: 36,3022           74346                          CADR     ULLGTASK
000799: 36,3023           05353                          TC       PHASCHNG                              #                 NOT EVEN IF THERE'S A RESTART.
000800: 36,3024           00001                          OCT      1
000801: 36,3025           30005                          CA       Z                                     #  KILL CLOKTASK
000802: 36,3026           55163                          TS       DISPDEX
000803: 36,3027           01142                          TC       P40/RET
000804:
000805: 36,3030           05353        ASTNRETN          TC       PHASCHNG
000806: 36,3031           04024                          OCT      04024
000807: 36,3032           34755                          CAF      ZERO                                  #  STOP DISPLAYING BUT KEEP RUNNING
000808: 36,3033           55163                          TS       DISPDEX
000809: 36,3034           35023                          CAF      PRIO13
000810: 36,3035           05105                          TC       FINDVAC
000811: 36,3036  E5,1757                                 EBANK=   STARIND
000812: 36,3036           03210 64065                    2CADR    ASTNRET
000813:
000814: 36,3040           15155                          TCF      ENDOFJOB
000815:
000816: 36,3041           05504        *PROCEED          TC       UPFLAG
000817: 36,3042           00154                          ADRES    ASTNFLAG
000818:
000819: 36,3043           13102                          TCF      IGNITE
000820:
000821: 36,3044           00004        *ENTER            INHINT
000822: 36,3045           51455                          INDEX    WHICH
000823: 36,3046           10003                          TCF      3
000824:
000825: 36,3047           34644        GOPOST            CAF      PRIO12                                #  (3) MUST BE LOWER PRIORITY THAN CLOKJOB
000826: 36,3050           05105                          TC       FINDVAC
000827: 36,3051  E7,1453                                 EBANK=   TTOGO
000828: 36,3051           03223 74067                    2CADR    POSTBURN
000829:
000830:                                                                                                 #  Page 747
000831: 36,3053           00004                          INHINT                                         #  SET UP THE DAP FOR COASTING FLIGHT.
000832: 36,3054           04674                          TC       IBNKCALL
000833: 36,3055           40204                          CADR     ALLCOAST
000834: 36,3056           03015                          TC       NULLCLOK
000835: 36,3057           05353                          TC       PHASCHNG                              #  4.13 RESTART FOR POSTBURN
000836: 36,3060           00134                          OCT      00134
000837:
000838: 36,3061           15155                          TCF      ENDOFJOB
000839:
000840: 36,3062           35027        GOCUTOFF          CAF      PRIO17                                #  (3)
000841: 36,3063           05105                          TC       FINDVAC
000842: 36,3064  E7,1516                                 EBANK=   TGO
000843: 36,3064           02424 30067                    2CADR    CUTOFF
000844:
000845: 36,3066           05516                          TC       DOWNFLAG
000846: 36,3067           00175                          ADRES    FLUNDISP
000847:
000848: 36,3070           00004                          INHINT                                         #  SET UP THE DAP FOR COASTING FLIGHT.
000849: 36,3071           04674                          TC       IBNKCALL
000850: 36,3072           40204                          CADR     ALLCOAST
000851: 36,3073           03015                          TC       NULLCLOK
000852: 36,3074           05353                          TC       PHASCHNG
000853: 36,3075           07024                          OCT      07024
000854: 36,3076           17000                          OCT      17000
000855: 36,3077  E7,1516                                 EBANK=   TGO
000856: 36,3077           02424 30067                    2CADR    CUTOFF
000857:
000858: 36,3101           15155                          TCF      ENDOFJOB
000859:
000860: 36,3102           40103        IGNITE            CS       FLAGWRD7                              #  (2)
000861: 36,3103           74737                          MASK     IGNFLBIT
000862: 36,3104           10000                          CCS      A
000863: 36,3105           13116                          TCF      IGNITE1
000864: 36,3106           34753                          CAF      BIT1
000865: 36,3107           00004                          INHINT
000866: 36,3110           05173                          TC       TWIDDLE
000867: 36,3111           02426                          ADRES    IGNITION
000868:
000869: 36,3112           34360                          CAF      OCT23                                 #  IMMEDIATE RESTART AT IGNITION
000870: 36,3113           54001                          TS       L
000871: 36,3114           40000                          COM
000872: 36,3115           52761                          DXCH     -PHASE4
000873:
000874: 36,3116           44762        IGNITE1           CS       CNTDNDEX                              #  RESTORE OLD DISPLAY.
000875: 36,3117           55163                          TS       DISPDEX
000876:
000877: 36,3120           15155                          TCF      ENDOFJOB
000878:
000879:                                                                                                 #  Page 748
000880:                                                                                                 #         ********************************
000881:
000882: 36,3121           05567        P40ALM            TC       ALARM                                 #  PROGRAM SELECTION NOT CONSISTENT WITH
000883: 36,3122           01706                          OCT      1706                                  #  VEHICLE CONFIGURATION
000884:
000885: 36,3123           35006        REP40ALM          CAF      V05N09                                #  (14)
000886: 36,3124           04616                          TC       BANKCALL
000887: 36,3125           20476                          CADR     GOFLASH
000888:
000889: 36,3126           16001                          TCF      GOTOP00H                              #  V34E           TERMINATE
000890: 36,3127           13131                          TCF      +2                                    #  PROCEED        CHECK FOR P42
000891: 36,3130           13123                          TCF      REP40ALM                              #  V32E           REDISPLAY ALARM
000892:
000893: 36,3131           51455                          INDEX    WHICH                                 #  FOR P42, ALLOW CREW TO PRECEED EVEN
000894: 36,3132           10014                          TCF      14                                    #  THOUGH VEHICLE IS UNSTAGED.
000895:
000896:                                                                                                 #         ********************************
000897:
000898: 31,2144                                          BANK     31
000899: 35,2000                                          SETLOC   P40S2
000900: 35,2000                                          BANK
000901:
000902: 35,3747                                          COUNT*   $$/P40
000903:
000904: 35,3747           04645        P40AUTO           TC       MAKECADR                              #  HELLO THERE.
000905: 35,3750           55164                          TS       TEMPR60                               #  FOR GENERALIZED RETURN TO OTHER BANKS.
000906: 35,3751           04616        P40A/P            TC       BANKCALL                              #  SUBROUTINE TO CHECK PGNCS CONTROL
000907: 35,3752           54255                          CADR     G+N,AUTO                              #  AND AUTO STABILIZATION MODES
000908: 35,3753           10000                          CCS      A                                     #  +0 INDICATES IN PGNCS, IN AUTO
000909: 35,3754           13766                          TCF      TURNITON                              #  + INDICATES NOT IN PGNCS AND/OR AUTO
000910: 35,3755           34737                          CAF      APSFLBIT                              #  ARE WE ON THE DESCENT STAGE?
000911: 35,3756           70106                          MASK     FLGWRD10
000912: 35,3757           10000                          CCS      A
000913: 35,3760           13773                          TCF      GOBACK                                #  RETURN
000914: 35,3761           34747                          CAF      BIT5                                  #  YES, CHECK FOR AUTO-THROTTLE MODE
000915: 35,3762           00006                          EXTEND
000916: 35,3763           02030                          RAND     CHAN30
000917: 35,3764           00006                          EXTEND
000918: 35,3765           13773                          BZF      GOBACK                                #  IN AUTO-THROTTLE MODE -- RETURN
000919: 35,3766           33775        TURNITON          CAF      P40A/PMD                              #  DISPLAYS V50N25 R1=203 PLEASE PERFORM
000920: 35,3767           04616                          TC       BANKCALL                              #  CHECKLIST 203 TURN ON PGNCS ETC.
000921: 35,3770           20623                          CADR     GOPERF1
000922: 35,3771           16001                          TCF      GOTOP00H                              #  V34E TERMINATE
000923: 35,3772           13751                          TCF      P40A/P                                #  RECYCLE
000924: 35,3773           31164        GOBACK            CA       TEMPR60
000925: 35,3774           04640                          TC       BANKJUMP                              #  GOODBYE.  COME AGAIN SOON.
000926:
000927: 35,3775           00203        P40A/PMD          OCT      00203
000928:
000929:                                                                                                 #  Page 749
000930: 36,3133                                          BANK     36
000931: 36,2000                                          SETLOC   P40S
000932: 36,2000                                          BANK
000933:
000934: 36,3133                                          COUNT*   $$/P40
000935:
000936:                                                                                                 #         **********************************
000937:                                                                                                 #         CONSTANTS FOR THE IGNITION ROUTINE
000938:                                                                                                 #         **********************************
000939:
000940: 36,3133  36,2105               SERVCADR          =        P63TABLE   +7
000941:
000942: 36,3133           02036        P40ADRES          ADRES    P40TABLE
000943:
000944: 36,3134           02046        P41ADRES          ADRES    P41TABLE   -5
000945:
000946: 36,3135           02061        P42ADRES          ADRES    P42TABLE
000947:
000948: 36,3136  E7,1515                                 EBANK=   DVCNTR
000949: 36,3136           03471 62067  DSP2CADR          2CADR    P63DISPS   -2
000950:
000951: 36,3140  E7,1515                                 EBANK=   DVCNTR
000952: 36,3140           03642 70067  ATMAGADR          2CADR    ATMAG
000953:
000954: 36,3142     6001               ?                 =        GOTOP00H
000955:
000956: 36,3142           00000 05656  D29.9SEC          2DEC     2990       B-28
000957:
000958: 36,3144           04672        S24.9SEC          DEC      2490       B-14
000959:
000960: 36,3145           00752        4.9SEC            DEC      490        B-14
000961:
000962: 36,3146     4747               OCT20             =        BIT5
000963:
000964: 36,3146           01475        V06N61            VN       0661
000965:
000966:                                                                                                 #  Page 750
000967:                                                                                                 #  KILLTASK
000968:                                                                                                 #  MOD NO:  NEW PROGRAM
000969:                                                                                                 #  MOD BY:  COVELLI
000970:
000971:                                                                                                 #  FUNCTIONAL DESCRIPTION:
000972:
000973:                                                                                                 #         KILLTASK IS USED TO REMOVE A TASK FROM THE WAITLIST BY SUBSTITUTING A NULL TASK CALLED `NULLTASK' (OF COURSE),
000974:                                                                                                 #         WHICH MERELY DOES A TC TASKOVER.  IF THE SAME TASK IS SCHEDULED MORE THAN ONCE, ONLY THE ONE WHICH WILL OCCUR
000975:                                                                                                 #         FIRST IS REMOVED.  IF THE TASK IS NOT SCHEDULED, KILLTASK TAKES NO ACTION AND RETURNS WITH NO ALARM.  KILLTASK
000976:                                                                                                 #         LEAVES INTERRUPTS INHIBITED SO CALLER MUST RELINT
000977:
000978:                                                                                                 #  CALLING SEQUENCE
000979:                                                                                                 #         L       TC      KILLTASK        # IN FIXED-FIXED
000980:                                                                                                 #         L+1     CADR    ????????        # CADR (NOT 2CADR) OF TASK TO BE REMOVED.
000981:                                                                                                 #         L+2     (RELINT)                # RETURN
000982:
000983:                                                                                                 #  EXIT MODE:  AT L+2 OF CALLING SEQUENCE.
000984:
000985:                                                                                                 #  ERASABLE INITIALIZATION:  NONE.
000986:
000987:                                                                                                 #  OUTPUT:  2CADR OF NULLTASK IN LST2
000988:
000989:                                                                                                 #  DEBRIS:  ITEMP1 - ITEMP4, A, L, Q.
000990:
000991: 36,3147  E3,1410                                 EBANK=   LST2
000992:    6027                                          BLOCK    3                                     #  KILLTASK MUST BE IN FIXED-FIXED.
000993:    6000                                          SETLOC   FFTAG6
000994:    6000                                          BANK
000995:    6027                                          COUNT*   $$/KILL
000996:    6027           36036        KILLTASK          CA       KILLBB
000997:    6030           00004                          INHINT
000998:    6031           22000                          LXCH     A
000999:    6032           50002                          INDEX    Q
001000:    6033           30000                          CA       0                                     #  GET CADR.
001001:    6034           22006                          LXCH     BBANK
001002:    6035           12200                          TCF      KILLTSK2                              #  CONTINUE IN SWITCHED FIXED.
001003:
001004:    6036  E3,1410                                 EBANK=   LST2
001005:    6036           56063        KILLBB            BBCON    KILLTSK2
001006:
001007: 27,2200                                          BANK     27
001008:
001009: 27,2000                                          SETLOC   P40S1
001010: 27,2000                                          BANK
001011: 27,2200                                          COUNT*   $$/KILL
001012:
001013: 27,2200           22062        KILLTSK2          LXCH     ITEMP2                                #  SAVE CALLER'S BBANK
001014:                                                                                                 #  Page 751
001015: 27,2201           24002                          INCR     Q
001016: 27,2202           00006                          EXTEND
001017: 27,2203           22061                          QXCH     ITEMP1                                #  RETURN 2ADR IN ITEMP1,ITEMP2
001018:
001019: 27,2204           54063                          TS       ITEMP3                                #  CADR IS IN A
001020: 27,2205           75012                          MASK     LOW10
001021: 27,2206           64741                          AD       BIT11
001022: 27,2207           54064                          TS       ITEMP4                                #  GENADR OF TASK
001023:
001024: 27,2210           45012                          CS       LOW10
001025: 27,2211           70063                          MASK     ITEMP3
001026: 27,2212           54063                          TS       ITEMP3                                #  FBANK OF TASK
001027:
001028: 27,2213           22007                          ZL
001029: 27,2214           50001        ADRSCAN           INDEX    L
001030: 27,2215           41410                          CS       LST2
001031: 27,2216           60064                          AD       ITEMP4                                #  COMPARE GENADRS
001032: 27,2217           00006                          EXTEND
001033: 27,2220           12232                          BZF      TSTFBANK                              #  IF THEY MATCH, COMPARE FBANKS
001034: 27,2221           44747        LETITLIV          CS       LSTLIM
001035: 27,2222           60001                          AD       L
001036: 27,2223           00006                          EXTEND                                         #  ARE WE DONE?
001037: 27,2224           12230                          BZF      DEAD                                  #  YES -- DONE, SO RETURN
001038: 27,2225           24001                          INCR     L
001039: 27,2226           24001                          INCR     L
001040: 27,2227           12214                          TCF      ADRSCAN                               #  CONTINUE LOOP.
001041:
001042: 27,2230           52062        DEAD              DXCH     ITEMP1
001043: 27,2231           52006                          DTCB
001044:
001045: 27,2232           45012        TSTFBANK          CS       LOW10
001046: 27,2233           50001                          INDEX    L
001047: 27,2234           71411                          MASK     LST2       +1                         #  COMPARE FBANKS ONLY.
001048: 27,2235           00006                          EXTEND
001049: 27,2236           60063                          SU       ITEMP3
001050: 27,2237           00006                          EXTEND
001051: 27,2240           12242                          BZF      KILLDEAD                              #  MATCH -- KILL IT.
001052: 27,2241           12221                          TCF      LETITLIV                              #  NO MATCH -- CONTINUE.
001053:
001054: 27,2242           34353        KILLDEAD          CA       TCTSKOVR
001055: 27,2243           50001                          INDEX    L
001056: 27,2244           55410                          TS       LST2                                  #  REMOVE TASK BY INSERTING TASKOVER
001057: 27,2245           12230                          TCF      DEAD
001058:
001059: 27,2246     4747               LSTLIM            EQUALS   BIT5                                  #  DEC 16

End of include-file BURN_BABY_BURN--MASTER_IGNITION_ROUTINE.agc.  Parent file is MAIN.agc


