
Source Code


000002:                                                                                                  ## Copyright:   Public domain.
000003:                                                                                                  ## Filename:    CONTROLLED_CONSTANTS.agc
000004:                                                                                                  ## Purpose:     Part of the source code for Luminary 1A build 099.
000005:                                                                                                  ##              It is part of the source code for the Lunar Module's (LM)
000006:                                                                                                  ##              Apollo Guidance Computer (AGC), for Apollo 11.
000007:                                                                                                  ##
000008:                                                                                                  ## Assembler:   yaYUL
000009:                                                                                                  ## Contact:     Jim Lawton <jim.lawton@gmail.com>
000010:                                                                                                  ## Website:     www.ibiblio.org/apollo.
000011:                                                                                                  ## Pages:       038-053
000012:                                                                                                  ## Mod history: 2009-05-16      JVL     Transcribed from page images.
000013:                                                                                                  ##              2016-12-13 RSB  Proofed text comments with octopus/ProoferComments
000014:                                                                                                  ##                              and corrected the errors found.
000015:                                                                                                  ##
000016:                                                                                                  ## This source code has been transcribed or otherwise adapted from digitized
000017:                                                                                                  ## images of a hardcopy from the MIT Museum.  The digitization was performed
000018:                                                                                                  ## by Paul Fjeld, and arranged for by Deborah Douglas of the Museum.  Many
000019:                                                                                                  ## thanks to both.  The images (with suitable reduction in storage size and
000020:                                                                                                  ## consequent reduction in image quality as well) are available online at
000021:                                                                                                  ## www.ibiblio.org/apollo.  If for some reason you find that the images are
000022:                                                                                                  ## illegible, contact me at info@sandroid.org about getting access to the
000023:                                                                                                  ## (much) higher-quality images which Paul actually created.
000024:                                                                                                  ##
000025:                                                                                                  ## Notations on the hardcopy document read, in part:
000026:                                                                                                  ##
000027:                                                                                                  ##    Assemble revision 001 of AGC program LMY99 by NASA 2021112-061
000028:                                                                                                  ##    16:27 JULY 14, 1969
000029:


000031:                                                                                                  #  DPS AND APS ENGINE PARAMETERS
000032:
000033: 36,2000                                           SETLOC   P40S
000034: 36,2000                                           BANK
000035: 36,2000                                           COUNT*   $$/P40
000036:
000037:                                                                                                  #  *** THE ORDER OF THE FOLLOWING SIX CONSTANTS MUST NOT BE CHANGED ***
000038:
000039: 36,2000           01056 37167  FDPS               2DEC     4.3670     B-7                        #  9817.5 LBS FORCE IN NEWTONS
000040: 36,2002           00457 03250  MDOTDPS            2DEC     0.1480     B-3                        #  32.62 LBS/SEC IN KGS/CS.
000041: 36,2004           77777 77731  DTDECAY            2DEC     -38        B-28
000042: 36,2006           00307 11040  FAPS               2DEC     1.5569     B-7                        #  3500 LBS FORCE IN NEWTONS
000043: 36,2010           00151 05214  MDOTAPS            2DEC     0.05135    B-3                        #  11.32 LBS/SEC IN KGS/CS
000044: 36,2012           77777 77765  ATDECAY            2DEC     -10        B-28
000045:
000046:                                                                                                  #  ************************************************************************
000047:
000048: 36,2014           00026 30605  FRCS4              2DEC     0.17792    B-7                        #  400 LBS FORCE IN NEWTONS
000049: 36,2016           00013 14303  FRCS2              2DEC     0.08896    B-7                        #  200 LBS FORCE IN NEWTONS
000050:
000051: 27,2000                                           SETLOC   P40S1
000052: 27,2000                                           BANK
000053: 27,2000                                           COUNT*   $$/P40
000054:
000055:                                                                                                  #  *** APS IMPULSE DATA FOR P42 *******************************************
000056:
000057: 27,2000           00000 07622  K1VAL              2DEC     124.55     B-23                       #  2800 LB-SEC
000058: 27,2002           00000 00762  K2VAL              2DEC     31.138     B-24                       #  700 LB-SEC
000059: 27,2004           00030 35104  K3VAL              2DEC     1.5569     B-10                       #  FAPS (3500 LBS THRUST)
000060:
000061:                                                                                                  #  ************************************************************************
000062:
000063: 27,2006           00016 36237  S40.136            2DEC     .4671      B-9                        #  .4671 M NEWTONS (DPS)
000064: 27,2010           35711 35663  S40.136_           2DEC     .4671      B+1                        #  S40.136 SHIFTED LEFT 10.
000065:
000066: 27,2000                                           SETLOC   ASENT1
000067: 27,2000                                           BANK
000068: 27,2012                                           COUNT*   $$/P70
000069:
000070: 27,2012           03631 23146  (1/DV)A            2DEC     15.20      B-7                        #  2 SECONDS WORTH OF INITIAL ASCENT


000072:                                                                                                  #  STAGE ACCELERATION -- INVERTED (M/CS)
000073:                                                                                                  #  1) PREDICATED ON A LIFTOFF MASS OF
000074:                                                                                                  #     4869.9 KG (SNA-8-D-027 7/11/68)
000075:                                                                                                  #  2) PREDICATED ON A CONTRIBUTION TO VEH-
000076:                                                                                                  #     ICLE ACCELERATION FROM RCS THRUSTERS
000077:                                                                                                  #     EQUIV. TO 1 JET ON CONTINUOUSLY.
000078:
000079: 27,2014           33226 14632  K(1/DV)            2DEC     436.70     B-9                        #  DPS ENGINE THRUST IN NEWTONS / 100 CS.
000080:
000081: 27,2016           05306 15503  (AT)A              2DEC     3.2883     E-4        B9              #  INITIAL ASC. STG. ACCELERATION ** M/CS.
000082:                                                                                                  #  ASSUMPTIONS SAME AS FOR (1/DV)A.
000083: 27,2020           26337 30000  (TBUP)A            2DEC     91902      B-17                       #  ESTIMATED BURN-UP TIME OF THE ASCENT STG
000084:                                                                                                  #  ASSUMPTIONS SAME AS FOR (1/DV)A WITH THE
000085:                                                                                                  #  ADDITIONAL ASSUMPTION THAT NET MASS-FLOW
000086:                                                                                                  #  RATE = 5.299 KG/SEC = 5.135 (APS) +
000087:                                                                                                  #  .164 (1 RCS JET).
000088: 30,2000                                           SETLOC   ASENT
000089: 30,2000                                           BANK
000090: 30,2000                                           COUNT*   $$/ASENT
000091: 30,2000           02445 00274  AT/RCS             2DEC     .0000785   B+10                       #  4 JETS IN A DRY LEM
000092:
000093: 33,2000                                           SETLOC   SERVICES
000094: 33,2000                                           BANK
000095: 33,2000                                           COUNT*   $$/SERV
000096:
000097:                                                                                                  #  *** THE ORDER OF THE FOLLOWING TWO CONSTANTS MUST NOT BE CHANGED *******
000098:
000099: 33,2000           41545        APSVEX             DEC      -3030      E-2        B-5             #  9942 FT/SEC IN M/CS.
000100: 33,2001           42341        DPSVEX             DEC*     -2.95588868 E+1        B-05*           #  VE (DPS) +2.95588868E+ 3
000101:
000102:                                                                                                  #  ************************************************************************
000103:
000104: 31,2000                                           SETLOC   F2DPS*31
000105: 31,2000                                           BANK
000106: 31,2000                                           COUNT*   $$/F2DPS
000107:
000108: 31,2000           00222 33316  TRIMACCL           2DEC*    +3.50132708 E-5        B+08*           #  A (T) +3.50132708E- 1
000109:


000111:                                                                                                  #  THROTTLING AND THRUST DETECTION PARAMETERS
000112:
000113: 36,2000                                           SETLOC   P40S
000114: 36,2000                                           BANK
000115: 36,2020                                           COUNT*   $$/P40
000116:
000117: 36,2020           00030        THRESH1            DEC      24         B-14
000118: 36,2021           00014        THRESH3            DEC      12         B-14
000119: 36,2022     4737               HIRTHROT           =        BIT13
000120:
000121:    6000                                           SETLOC   FFTAG5
000122:    6000                                           BANK
000123:    6000                                           COUNT*   $$/P40
000124:
000125:    6000           00464        THRESH2            DEC      308        B-14
000126:
000127: 31,2000                                           SETLOC   FTHROT
000128: 31,2000                                           BANK
000129: 31,2002                                           COUNT*   $$/THROT
000130:
000131: 31,2002           07401        FMAXODD            DEC      +3841      B-14                       #  FSAT          +4.81454413 E+4
000132: 31,2003           06613        FMAXPOS            DEC      +3467      B-14                       #  FMAX          +4.34546769 E+4
000133: 31,2004           00024        THROTLAG           DEC      +20        B-14                       #  TAU (TH)      +1.99999999 E-1
000134: 31,2005           00307 17534  SCALEFAC           2DEC*    +7.97959872 E+2        B-16*           #  BITPERF       +7.97959872 E-2
000135:
000136: 32,2000                                           SETLOC   F2DPS*32
000137: 32,2000                                           BANK
000138: 32,2000                                           COUNT*   $$/F2DPS
000139:
000140: 32,2000           00044        DPSTHRSH           DEC      36         B-14                       #  (THRESH1 + THRESH3 FOR P63)
000141:


000143:                                                                                                  #  LM HARDWARE-RELATED PARAMETERS
000144:
000145: 25,2000                                           SETLOC   RADARUPT
000146: 25,2000                                           BANK
000147: 25,2000                                           COUNT*   $$/RRUPT
000148:
000149: 25,2000           47777        LVELBIAS           DEC      -12288     B-14                       #  LANDING RADAR BIAS FOR 153.6 KC.
000150: 25,2001           00001 01150  RDOTBIAS           2DEC     17000      B-28                       #  BIAS COUNT FOR RR RANGE RATE.
000151:
000152: 32,2000                                           SETLOC   LRS22
000153: 32,2000                                           BANK
000154: 32,2001                                           COUNT*   $$/LRS22
000155:
000156: 32,2001           70123 40702  RDOTCONV           2DEC     -.0019135344 B7                         #  CONVERTS RR RDOT READING TO M/CS AT 2(7)
000157: 32,2003           13337 10776  RANGCONV           2DEC     2.859024   B-3                        #  CONVERTS RR RANGE READING TO M. AT 2(-29
000158:
000159: 33,2000                                           SETLOC   SERVICES
000160: 33,2000                                           BANK
000161: 33,2002                                           COUNT*   $$/SERV
000162:
000163: 33,2002           61000 71210  HBEAMANT           2DEC     -.4687018041                            #  RANGE BEAM IN LR ANTENNA COORDINATES.
000164: 33,2004           00000 00000                     2DEC     0          B-28
000165: 33,2006           72333 45546                     2DEC     -.1741224271
000166:
000167: 33,2010           65363 64451  HSCAL              2DEC     -.3288792                             #  SCALES 1.079 FT/BIT TO 2(22)M.
000168:
000169:                                                                                                  #  ***** THE SEQUENCE OF THE FOLLOWING CONSTANTS MUST BE PRESERVED ********
000170:
000171: 33,2012           21241 03216  VZSCAL             2DEC     +.5410829105                            #  SCALES .8668 FT/SEC/BIT TO 2(18) M/CS.
000172: 33,2014           30153 23101  VYSCAL             2DEC     +.7565672446                            #  SCALES 1.212 FT/SEC/BIT TO 2(18) M/CS.
000173: 33,2016           63105 61733  VXSCAL             2DEC     -.4020043770                            #  SCALES -.644 FT/SEC/BIT TO 2(18) M/CS.
000174:
000175:                                                                                                  #  ************************************************************************
000176:
000177: 33,2020           01507        KPIP               DEC      .0512                                 #  SCALES DELV TO UNITS OF 2(5) M/CS.
000178: 33,2021           00321 26706  KPIP1              2DEC     .0128                                 #  SCALES DELV TO UNITS OF 2(7) M/CS.
000179: 33,2023           00150 33343  KPIP2              2DEC     .0064                                 #  SCALES DELV TO UNITS OF 2(8) M/CS.
000180:


000182: 33,2025           02630 25010  ALTCONV            2DEC     1.399078846 B-4                        #  CONVERTS M*2(-24) TO BIT UNITS *2(-28).
000183: 33,2027           24402 26003  ARCONV1            2DEC     656.167979 B-10                       #  CONV. ALTRATE COMP. TO BIT UNITS<
000184:
000185: 21,2000                                           SETLOC   R10
000186: 21,2000                                           BANK
000187: 21,2000                                           COUNT*   $$/R10
000188:
000189: 21,2000           24402        ARCONV             OCT      24402                                 #  656.1679798B-10 CONV ALTRATE TO BIT UNIT
000190: 21,2001           01551        ARTOA              DEC      .1066098   B-1                        #  .25/2.345 B-1 4X/SEC CYCLE RATE.
000191: 21,2002           21357        ARTOA2             DEC      .0021322   B8                         #  (.5)/(2.345)(100)
000192: 21,2003           22316        VELCONV            OCT      22316                                 #  588.914 B-10 CONV VEL. TO BIT UNITS.
000193: 21,2004           01507        KPIP1(5)           DEC      .0512                                 #  SCALES DELV TO M/CS*2(-5).
000194: 21,2005           00547        MAXVBITS           OCT      00547                                 #  MAX. DISPLAYED VELOCITY 199.9989 FT/SEC.
000195:
000196: 20,2000                                           SETLOC   DAPS3
000197: 20,2000                                           BANK
000198: 20,2000                                           COUNT*   $$/DAPAO
000199:
000200: 20,2000           01150        TORKJET1           DEC      .03757                                #  550 / .2 SCALED AT (+16) 64 / 180
000201:


000203:                                                                                                  #  PARAMETERS RELATING TO MASS, INERTIA, AND VEHICLE DIMENSTIONS
000204:
000205: 05,2000                                           SETLOC   FRANDRES
000206: 05,2000                                           BANK
000207: 05,2000                                           COUNT*   $$/START
000208:
000209: 05,2000           02357        FULLAPS            DEC      5050       B-16                       #  NOMINAL FULL ASCENT MASS -- 2(16) KG.
000210:
000211: 01,2000                                           SETLOC   LOADDAP1
000212: 01,2000                                           BANK
000213: 01,2000                                           COUNT*   $$/R03
000214:
000215: 01,2000           76466        MINLMD             DEC      -2850      B-16                       #  MIN. DESCENT STAGE MASS -- 2(16) KG.
000216: 01,2001           76731        MINMINLM           DEC      -2200      B-16                       #  MIN ASCENT STAGE MASS -- 2(16) KG.
000217: 01,2002     4741               MINCSM             =        BIT11                                 #  MIN CSM MASS (OK FOR 1/ACCS) = 9050 LBS
000218:
000219: 20,2000                                           SETLOC   DAPS3
000220: 20,2000                                           BANK
000221: 20,2001                                           COUNT*   $$/DAPAD
000222:
000223: 20,2001           01046        LOASCENT           DEC      2200       B-16                       #  MIN ASCENT LEM MASS -- 2(16) KG.
000224: 20,2002           07361        HIDESCNT           DEC      15300      B-16                       #  MAX DESCENT LEM MASS -- 2(16) KG.
000225: 20,2003           00666        LODESCNT           DEC      1750       B-16                       #  MIN DESCENT STAGE (ALONE) -- 2(16) KG.
000226:


000228:                                                                                                  #  PHYSICAL CONSTANTS ( TIME - INVARIANT )
000229:
000230: 37,2000                                           SETLOC   IMU2
000231: 37,2000                                           BANK
000232: 37,2000                                           COUNT*   $$/P07
000233:
000234: 37,2000           07623 26552  OMEG/MS            2DEC     .24339048
000235:
000236: 22,2000                                           SETLOC   R30LOC
000237: 22,2000                                           BANK
000238: 22,2000                                           COUNT*   $$/R30
000239:
000240:                                                                                                  #  *** THE ORDER OF THE FOLLOWING TWO CONSTANTS MUST BE PRESERVED *********
000241:
000242: 22,2000           27533 07571  1/RTMUM            2DEC*    .45162595  E-4        B14*
000243: 22,2002           25004 06702  1/RTMUE            2DEC*    .50087529  E-5        B17*
000244:
000245:                                                                                                  #  ************************************************************************
000246:
000247: 27,2000                                           SETLOC   P40S1
000248: 27,2000                                           BANK
000249: 27,2022                                           COUNT*   $$/S40.9
000250:
000251: 27,2022           55340 61710  EARTHMU            2DEC*    -3.986032  E10        B-36*           #  M(3)/CS(2)
000252:
000253: 27,2000                                           SETLOC   ASENT1
000254: 27,2000                                           BANK
000255: 27,2024                                           COUNT*   $$/P12
000256:
000257: 27,2024           00072 16206  MUM(-37)           2DEC*    4.9027780  E8         B-37*
000258: 27,2026           00344 24331  MOONRATE           2DEC*    .26616994890062991 E-7        B+19*           #  RAD/CS.
000259:
000260: 33,2000                                           SETLOC   SERVICES
000261: 33,2000                                           BANK
000262: 33,2031                                           COUNT*   $$/SERV
000263:
000264:                                                                                                  #  *** THE ORDER OF THE FOLLOWING TWO CONSTANTS MUST BE PRESERVED *********
000265:
000266: 33,2031           61377 55754  -MUDT              2DEC*    -7.9720645 E+12       B-44*
000267: 33,2033           77644 65556  -MUDT1             2DEC*    -9.8055560 E+10       B-44*
000268:
000269:                                                                                                  #  ************************************************************************
000270:
000271: 33,2035           64453 55670  -MUDTMUN           2DEC*    -9.8055560 E+10       B-38*
000272: 33,2037           00002 11777  RESQ               2DEC*    40.6809913 E12        B-58*
000273:


000275: 33,2041           01023 37155  20J                2DEC     3.24692010 E-2
000276: 33,2043           00065 06244  2J                 2DEC     3.24692010 E-3
000277:
000278: 14,2000                                           SETLOC   P50S1
000279: 14,2000                                           BANK
000280: 14,2000                                           COUNT*   $$/LOSAM
000281:
000282: 14,2000           26723 00450  RSUBEM             2DEC     384402000  B-29
000283: 14,2002           00065 01265  RSUBM              2DEC     1738090    B-29
000284: 14,2004           00302 24533  RSUBE              2DEC     6378166    B-29
000285: 14,2006           00052 04047  ROE                2DEC     .00257125
000286:
000287: 04,2000                                           SETLOC   CONICS1
000288: 04,2000                                           BANK
000289: 04,2000                                           COUNT*   $$/LT-LG
000290:
000291: 04,2000           00302 17755  ERAD               2DEC     6373338    B-29                       #  PAD RADIUS
000292: 04,2002           00065 01265  504RM              2DEC     1738090    B-29                       #  METERS B-29 (EQUATORIAL MOON RADIUS)
000293:
000294: 04,2000                                           SETLOC   CONICS1
000295: 04,2000                                           BANK
000296: 04,2004                                           COUNT*   $$/CONIC
000297:
000298:                                                                                                  #  *** THE ORDER OF THE FOLLOWING CONSTANTS MUST BE PRESERVED *************
000299:
000300: 04,2004           22437 16067  MUTABLE            2DEC*    3.986032   E10        B-36*           #  MUE
000301: 04,2006           15625 21042                     2DEC*    .25087606  E-10       B+34*           #  1/MUE
000302: 04,2010           30276 04773                     2DEC*    1.99650495 E5         B-18*           #  SQRT(MUE)
000303: 04,2012           25004 06702                     2DEC*    .50087529  E-5        B+17*           #  1/SQRT(MUE)
000304: 04,2014           16471 01352                     2DEC*    4.902778   E8         B-30*           #  MUM
000305: 04,2016           21412 20500                     2DEC*    .203966    E-8        B+28*           #  1/MUM
000306: 04,2020           25477 03367                     2DEC*    2.21422176 E4         B-15*           #  SQRT(MUM)
000307: 04,2022           27533 07571                     2DEC*    .45162595  E-4        B+14*           #  1/SQRT(MUM)
000308:
000309:                                                                                                  #  ************************************************************************
000310:


000312: 13,2000                                           SETLOC   INTINIT
000313: 13,2000                                           BANK
000314: 13,2000                                           COUNT*   $$/INTIN
000315:
000316: 13,2000           07112 06620  OMEGMOON           2DEC*    2.66169947 E-8        B+23*
000317:
000318: 13,2000                                           SETLOC   ORBITAL2
000319: 13,2000                                           BANK
000320: 13,2002                                           COUNT*   $$/ORBIT
000321:
000322:                                                                                                  #  *** THE ORDER OF THE FOLLOWING CONSTANTS MUST NOT BE CHANGED ***********
000323:
000324: 13,2002           27446 14620                     2DEC*    1.32715445 E16        B-54*           #  S
000325: 13,2004           16471 01352  MUM                2DEC*    4.9027780  E8         B-30*           #  M
000326: 13,2006           22437 16067  MUEARTH            2DEC*    3.986032   E10        B-36*
000327: 13,2010           00000 00000                     2DEC     0          B-28
000328: 13,2012           02302 24736  J4REQ/J3           2DEC*    .4991607391 E7         B-26*
000329: 13,2014           77651 76237                     2DEC     -176236.02 B-25
000330: 13,2016           77776 53032  2J3RE/J2           2DEC*    -.1355426363 E5         B-27*
000331: 13,2020           10407 05344                     2DEC*    .3067493316 E18        B-60*
000332: 13,2022           13710 35320  J2REQSQ            2DEC*    1.75501139 E21        B-72*
000333: 13,2024           12160 12124  3J22R2MU           2DEC*    9.20479048 E16        B-58*
000334:
000335:                                                                                                  #  ************************************************************************
000336:
000337: 27,2000                                           SETLOC   TOF-FF1
000338: 27,2000                                           BANK
000339: 27,2030                                           COUNT*   $$/TFF
000340:
000341: 27,2030           24775 30424  1/RTMU             2DEC*    .5005750271 E-5        B17*            #  MODIFIED EARTH MU
000342:
000343: 42,2000                                           SETLOC   SBAND
000344: 42,2000                                           BANK
000345: 42,2000                                           COUNT*   $$/R05
000346:
000347: 42,2000           26723 00450  REMDIST            2DEC     384402000  B-29                       #  MEAN DISTANCE BETWEEN EARTH AND MOON.
000348:


000350:                                                                                                  #  PHYSICAL CONSTANTS (TIME - VARIANT)
000351:
000352: 14,2000                                           SETLOC   STARTAB
000353: 14,2000                                           BANK
000354: 14,2010                                           COUNT*   $$/STARS
000355:
000356: 14,2010           15262 21773                     2DEC     +.8342971408 B-1                        #  STAR 37       X
000357: 14,2012           74130 42420                     2DEC     -.2392481515 B-1                        #  STAR 37       Y
000358: 14,2014           70033 41533                     2DEC     -.4966976975 B-1                        #  STAR 37       Z
000359:
000360: 14,2016           15014 04650                     2DEC     +.8139832631 B-1                        #  STAR 36       X
000361: 14,2020           67067 60150                     2DEC     -.5557243189 B-1                        #  STAR 36       Y
000362: 14,2022           02551 15723                     2DEC     +.1691204557 B-1                        #  STAR 36       Z
000363:
000364: 14,2024           07210 01664                     2DEC     +.4541086270 B-1                        #  STAR 35       X
000365: 14,2026           67276 62232                     2DEC     -.5392368197 B-1                        #  STAR 35       Y
000366: 14,2030           13262 00563                     2DEC     +.7092312789 B-1                        #  STAR 35       Z
000367:
000368: 14,2032           05076 35561                     2DEC     +.3201817378 B-1                        #  STAR 34       X
000369: 14,2034           70716 40260                     2DEC     -.4436021946 B-1                        #  STAR 34       Y
000370: 14,2036           62466 64656                     2DEC     -.8370786986 B-1                        #  STAR 34       Z
000371:
000372: 14,2040           10652 04246                     2DEC     +.5520184464 B-1                        #  STAR 33       X
000373: 14,2042           63235 44200                     2DEC     -.7933187400 B-1                        #  STAR 33       Y
000374: 14,2044           73710 66230                     2DEC     -.2567508745 B-1                        #  STAR 33       Z
000375:
000376: 14,2046           07204 33712                     2DEC     +.4537196908 B-1                        #  STAR 32       X
000377: 14,2050           61747 72343                     2DEC     -.8779508801 B-1                        #  STAR 32       Y
000378: 14,2052           02343 21362                     2DEC     +.1527766153 B-1                        #  STAR 32       Z
000379:
000380: 14,2054           03237 13301                     2DEC     +.2069525789 B-1                        #  STAR 31       X
000381: 14,2056           62030 65332                     2DEC     -.8719885748 B-1                        #  STAR 31       Y
000382: 14,2060           70715 71267                     2DEC     -.4436288486 B-1                        #  STAR 31       Z
000383:
000384: 14,2062           01745 06477                     2DEC     +.1217293692 B-1                        #  STAR 30       X
000385: 14,2064           63531 75365                     2DEC     -.7702732847 B-1                        #  STAR 30       Y


000387: 14,2066           12010 03005                     2DEC     +.6259880410 B-1                        #  STAR 30       Z
000388:
000389: 14,2070           76146 77014                     2DEC     -.1124304773 B-1                        #  STAR 29       X
000390: 14,2072           60371 75073                     2DEC     -.9694934200 B-1                        #  STAR 29       Y
000391: 14,2074           03370 12003                     2DEC     +.2178116072 B-1                        #  STAR 29       Z
000392:
000393: 14,2076           76125 40037                     2DEC     -.1146237858 B-1                        #  STAR 28       X
000394: 14,2100           72436 77062                     2DEC     -.3399692557 B-1                        #  STAR 28       Y
000395: 14,2102           61041 54164                     2DEC     -.9334250333 B-1                        #  STAR 28       Z
000396:
000397: 14,2104           72277 51044                     2DEC     -.3516499609 B-1                        #  STAR 27       X
000398: 14,2106           62641 45471                     2DEC     -.8240752703 B-1                        #  STAR 27       Y
000399: 14,2110           70711 70546                     2DEC     -.4441196390 B-1                        #  STAR 27       Z
000400:
000401: 14,2112           67364 47073                     2DEC     -.5326876930 B-1                        #  STAR 26       X
000402: 14,2114           64425 77777                     2DEC     -.7160644554 B-1                        #  STAR 26       Y
000403: 14,2116           07157 16322                     2DEC     +.4511047742 B-1                        #  STAR 26       Z
000404:
000405: 14,2120           63327 64446                     2DEC     -.7861763936 B-1                        #  STAR 25       X
000406: 14,2122           67515 55266                     2DEC     -.5217996305 B-1                        #  STAR 25       Y
000407: 14,2124           05230 25476                     2DEC     +.3311371675 B-1                        #  STAR 25       Z
000408:
000409: 14,2126           64754 72604                     2DEC     -.6898393233 B-1                        #  STAR 24       X
000410: 14,2130           71235 72553                     2DEC     -.4182330640 B-1                        #  STAR 24       Y
000411: 14,2132           66427 42171                     2DEC     -.5909338474 B-1                        #  STAR 24       Z
000412:
000413: 14,2134           66546 70765                     2DEC     -.5812035376 B-1                        #  STAR 23       X
000414: 14,2136           73260 71643                     2DEC     -.2909171294 B-1                        #  STAR 23       Y
000415: 14,2140           14121 30153                     2DEC     +.7599800468 B-1                        #  STAR 23       Z
000416:
000417: 14,2142           61247 73310                     2DEC     -.9170097662 B-1                        #  STAR 22       X
000418: 14,2144           72313 41247                     2DEC     -.3502146628 B-1                        #  STAR 22       Y
000419: 14,2146           74744 44566                     2DEC     -.1908999176 B-1                        #  STAR 22       Z
000420:


000422: 14,2150           70606 54564                     2DEC     -.4523440203 B-1                        #  STAR 21       X
000423: 14,2152           77153 61536                     2DEC     -.0493710140 B-1                        #  STAR 21       Y
000424: 14,2154           61601 47046                     2DEC     -.8904759346 B-1                        #  STAR 21       Z
000425:
000426: 14,2156           60604 76224                     2DEC     -.9525211695 B-1                        #  STAR 20       X
000427: 14,2160           77031 73354                     2DEC     -.0593434796 B-1                        #  STAR 20       Y
000428: 14,2162           73161 63065                     2DEC     -.2986331746 B-1                        #  STAR 20       Z
000429:
000430: 14,2164           60431 51702                     2DEC     -.9656605484 B-1                        #  STAR 19       X
000431: 14,2166           00656 33013                     2DEC     +.0525933156 B-1                        #  STAR 19       Y
000432: 14,2170           04044 10627                     2DEC     +.2544280809 B-1                        #  STAR 19       Z
000433:
000434: 14,2172           62164 45040                     2DEC     -.8608205219 B-1                        #  STAR 18       X
000435: 14,2174           07325 37443                     2DEC     +.4636213989 B-1                        #  STAR 18       Y
000436: 14,2176           03267 06626                     2DEC     +.2098647835 B-1                        #  STAR 18       Z
000437:
000438: 14,2200           63471 50471                     2DEC     -.7742591356 B-1                        #  STAR 17       X
000439: 14,2202           11660 04151                     2DEC     +.6152504197 B-1                        #  STAR 17       Y
000440: 14,2204           75501 46664                     2DEC     -.1482892839 B-1                        #  STAR 17       Z
000441:
000442: 14,2206           70430 46540                     2DEC     -.4657947941 B-1                        #  STAR 16       X
000443: 14,2210           07507 20100                     2DEC     +.4774785033 B-1                        #  STAR 16       Y
000444: 14,2212           13727 05455                     2DEC     +.7450164351 B-1                        #  STAR 16       Z
000445:
000446: 14,2214           72160 64202                     2DEC     -.3612508532 B-1                        #  STAR 15       X
000447: 14,2216           11144 05203                     2DEC     +.5747270840 B-1                        #  STAR 15       Y
000448: 14,2220           64200 65331                     2DEC     -.7342932655 B-1                        #  STAR 15       Z
000449:
000450: 14,2222           71322 41512                     2DEC     -.4118589524 B-1                        #  STAR 14       X
000451: 14,2224           16402 16205                     2DEC     +.9065485360 B-1                        #  STAR 14       Y
000452: 14,2226           01365 04034                     2DEC     +.0924226975 B-1                        #  STAR 14       Z
000453:
000454: 14,2230           75054 56052                     2DEC     -.1820751783 B-1                        #  STAR 13       X


000456: 14,2232           17030 17635                     2DEC     +.9404899869 B-1                        #  STAR 13       Y
000457: 14,2234           73321 57603                     2DEC     -.2869271926 B-1                        #  STAR 13       Z
000458:
000459: 14,2236           77010 47623                     2DEC     -.0614937230 B-1                        #  STAR 12       X
000460: 14,2240           11515 01640                     2DEC     +.6031563286 B-1                        #  STAR 12       Y
000461: 14,2242           63215 52176                     2DEC     -.7952489957 B-1                        #  STAR 12       Z
000462:
000463: 14,2244           02143 26755                     2DEC     +.1371725575 B-1                        #  STAR 11       X
000464: 14,2246           12715 31470                     2DEC     +.6813721061 B-1                        #  STAR 11       Y
000465: 14,2250           13401 31222                     2DEC     +.7189685267 B-1                        #  STAR 11       Z
000466:
000467: 14,2252           03157 27504                     2DEC     +.2011399589 B-1                        #  STAR 10       X
000468: 14,2254           17402 12312                     2DEC     +.9690337941 B-1                        #  STAR 10       Y
000469: 14,2256           75552 63657                     2DEC     -.1432348512 B-1                        #  STAR 10       Z
000470:
000471: 14,2260           05471 06122                     2DEC     +.3507315038 B-1                        #  STAR 9        X
000472: 14,2262           16220 16362                     2DEC     +.8926333307 B-1                        #  STAR 9        Y
000473: 14,2264           04417 32762                     2DEC     +.2831839492 B-1                        #  STAR 9        Z
000474:
000475: 14,2266           06443 12622                     2DEC     +.4105636020 B-1                        #  STAR 8        X
000476: 14,2270           07766 10237                     2DEC     +.4988110001 B-1                        #  STAR 8        Y
000477: 14,2272           14154 36154                     2DEC     +.7632988371 B-1                        #  STAR 8        Z
000478:
000479: 14,2274           13200 31653                     2DEC     +.7032235469 B-1                        #  STAR 7        X
000480: 14,2276           13244 21036                     2DEC     +.7075846047 B-1                        #  STAR 7        Y
000481: 14,2300           01067 23106                     2DEC     +.0692868685 B-1                        #  STAR 7        Z
000482:
000483: 14,2302           10560 27227                     2DEC     +.5450107404 B-1                        #  STAR 6        X
000484: 14,2304           10402 00275                     2DEC     +.5314955466 B-1                        #  STAR 6        Y
000485: 14,2306           65477 77044                     2DEC     -.6484410356 B-1                        #  STAR 6        Z
000486:
000487: 14,2310           00153 11212                     2DEC     +.0130968840 B-1                        #  STAR 5        X
000488: 14,2312           00077 36275                     2DEC     +.0078062795 B-1                        #  STAR 5        Y


000490: 14,2314           17777 01417                     2DEC     +.9998837600 B-1                        #  STAR 5        Z
000491:
000492: 14,2316           07674 21771                     2DEC     +.4917678276 B-1                        #  STAR 4        X
000493: 14,2320           03416 07626                     2DEC     +.2204887125 B-1                        #  STAR 4        Y
000494: 14,2322           62413 57536                     2DEC     -.8423473935 B-1                        #  STAR 4        Z
000495:
000496: 14,2324           07510 06414                     2DEC     +.4775639450 B-1                        #  STAR 3        X
000497: 14,2326           01673 06065                     2DEC     +.1166004340 B-1                        #  STAR 3        Y
000498: 14,2330           15735 31531                     2DEC     +.8708254803 B-1                        #  STAR 3        Z
000499:
000500: 14,2332           16745 17555                     2DEC     +.9342640400 B-1                        #  STAR 2        X
000501: 14,2334           02615 13716                     2DEC     +.1735073142 B-1                        #  STAR 2        Y
000502: 14,2336           73010 40311                     2DEC     -.3115219339 B-1                        #  STAR 2        Z
000503:
000504: 14,2340           15776 34660                     2DEC     +.8748658918 B-1                        #  STAR 1        X
000505: 14,2342           00325 26625                     2DEC     +.0260879174 B-1                        #  STAR 1        Y
000506: 14,2344           07572 05105                     2DEC     +.4836621670 B-1                        #  STAR 1        Z
000507:
000508: 14,2346           15472        CATLOG             DEC      6970       B-14
000509:
000510:                                                                                                  #  ************************************************************************
000511:
000512: 05,2000                                           SETLOC   EPHEM1
000513: 05,2000                                           BANK
000514: 05,2001                                           COUNT*   $$/EPHEM
000515:
000516: 05,2001           20000 00000  KONMAT             2DEC     1.0        B-1                        #          *************
000517: 05,2003           00000 00000                     2DEC     0          B-28                       #                      *
000518: 05,2005           00000 00000                     2DEC     0          B-28                       #                      *
000519: 05,2007           00000 00000                     2DEC     0          B-28                       #                      *
000520: 05,2011           16533 30007                     2DEC     .91745     B-1                        #  K1 COS(OBL)         *
000521: 05,2013           77333 56654                     2DEC     -.03571    B-1                        #  K2 SIN(OBL)SIN(IM)  *
000522: 05,2015           00000 00000                     2DEC     0          B-28                       #                      *
000523: 05,2017           06273 03275                     2DEC     .39784     B-1                        #  K3 SIN(OBL)         *


000525: 05,2021           01242 24467                     2DEC     .082354    B-1                        #  K4 COS(OBL)SIN(IM)  *
000526: 05,2023           00020 17260  CSTODAY            2DEC     8640000    B-33                       #                      * NOTE           *
000527: 05,2025           00002        RCB-13             OCT      00002                                 #                      * TABLES CONTAIN *
000528: 05,2026           00000                           OCT      00000                                 #                      * CONSTANTS FOR  *
000529: 05,2027           22572 27214  RATESP             2DEC     .03660098  B+4                        #  LOMR                * 1969 - 1970    *
000530: 05,2031           01315 26177                     2DEC     .00273779  B+4                        #  LOSR
000531: 05,2033           77731 55217                     2DEC     -.00014719 B+4                        #  LONR
000532: 05,2035           32055 22576                     2DEC     .815282336                            #  LOMO
000533: 05,2037           10624 10605                     2DEC     .274674910                            #  LOSO
000534: 05,2041           37436 01635                     2DEC     .986209499                            #  LONO
000535: 05,2043           01065 31323  VAL67              2DEC*    .01726666666 B+1*                       #  AMOD
000536: 05,2045           20770 13725                     2DEC     .530784445                            #  AARG
000537: 05,2047           02245 06475                     2DEC     .036291712 B+1                        #  1/27
000538: 05,2051           00162 33431                     2DEC     .003505277 B+1                        #  BMOD
000539: 05,2053           22566 24130                     2DEC     .585365625                            #  BARG
000540: 05,2055           02000 00000                     2DEC     .03125     B+1                        #  1/32
000541: 05,2057           00256 17752                     2DEC     .005325277 B+1                        #  CMOD
000542: 05,2061           77512 67453                     2DEC     -.01106341036                            #  CARG
000543: 05,2063           00131 26730                     2DEC     .002737925 B+1                        #  1/365
000544:
000545:                                                                                                  #  ************************************************************************
000546:
000547: 26,2000                                           SETLOC   PLANTIN2
000548: 26,2000                                           BANK
000549: 26,2000                                           COUNT*   $$/LUROT
000550:
000551: 26,2000           17775 02052  COSI               2DEC     .99964173  B-1                        #  COS (5521.5 SEC) B-1
000552: 26,2002           00333 10374  SINI               2DEC     .02676579  B-1                        #  SIN (5521.5 SEC) B-1
000553: 26,2004           77665 42175  NODDOT             2DEC     -.457335121 E-2                        #  REVS/CSEC B+28 = -1.07047011 E-8 RAD/SEC
000554: 26,2006           22211 00625  FDOT               2DEC     .570863327                            #  REVS/CSEC B+27 =  2.67240410 E-6 RAD/SEC


000556: 26,2010           77777 77767  BDOT               2DEC     -3.07500686 E-8                        #  REVS/CSEC B+28=-7.19757301 E-14 RAD/SEC
000557: 26,2012           37436 01613  NODIO              2DEC     .986209434                            #  REVS B-D    = 6.19653663041 RAD
000558: 26,2014           32417 32160  FSUBO              2DEC     .829090536                            #  REVS B-D    = 5.20932947829 RAD
000559: 26,2016           02052 35552  BSUBO              2DEC     .0651201393                            #  REVS B-D    = 0.40916190299 RAD
000560: 26,2020           37116 32523  WEARTH             2DEC     .973561595                            #  REVS/CSEC B+23= 7.29211494 E-5 RAD/SEC
000561:

End of include-file CONTROLLED_CONSTANTS.agc.  Parent file is MAIN.agc


