
Source Code


000002:                                                                                                  ## Copyright:   Public domain.
000003:                                                                                                  ## Filename:    DAP_INTERFACE_SUBROUTINES.agc
000004:                                                                                                  ## Purpose:     Part of the source code for Luminary 1A build 099.
000005:                                                                                                  ##              It is part of the source code for the Lunar Module's (LM)
000006:                                                                                                  ##              Apollo Guidance Computer (AGC), for Apollo 11.
000007:                                                                                                  ## Assembler:   yaYUL
000008:                                                                                                  ## Contact:     Ron Burkey <info@sandroid.org>.
000009:                                                                                                  ## Website:     www.ibiblio.org/apollo.
000010:                                                                                                  ## Pages:       1406-1409
000011:                                                                                                  ## Mod history: 2009-05-10 SN   (Sergio Navarro).  Started adapting
000012:                                                                                                  ##                              from the Luminary131/ file of the same
000013:                                                                                                  ##                              name, using Luminary099 page images.
000014:                                                                                                  ##              2011-01-06 JL   Fixed pseudo-label indentation.
000015:                                                                                                  ##              2016-12-18 RSB  Proofed text comments with octopus/ProoferComments
000016:                                                                                                  ##                              and corrected the errors found.
000017:                                                                                                  ##
000018:                                                                                                  ## This source code has been transcribed or otherwise adapted from
000019:                                                                                                  ## digitized images of a hardcopy from the MIT Museum.  The digitization
000020:                                                                                                  ## was performed by Paul Fjeld, and arranged for by Deborah Douglas of
000021:                                                                                                  ## the Museum.  Many thanks to both.  The images (with suitable reduction
000022:                                                                                                  ## in storage size and consequent reduction in image quality as well) are
000023:                                                                                                  ## available online at www.ibiblio.org/apollo.  If for some reason you
000024:                                                                                                  ## find that the images are illegible, contact me at info@sandroid.org
000025:                                                                                                  ## about getting access to the (much) higher-quality images which Paul
000026:                                                                                                  ## actually created.
000027:                                                                                                  ##
000028:                                                                                                  ## Notations on the hardcopy document read, in part:
000029:                                                                                                  ##
000030:                                                                                                  ##      Assemble revision 001 of AGC program LMY99 by NASA 2021112-61
000031:                                                                                                  ##      16:27 JULY 14, 1969
000032:


000034: 20,2123                                           BANK     20
000035: 20,2000                                           SETLOC   DAPS3
000036: 20,2000                                           BANK
000037:
000038: 20,2123  E6,1635                                  EBANK=   CDUXD
000039: 20,2123                                           COUNT*   $$/DAPIF
000040:
000041:                                                                                                  #  MOD 0         DATE    11/15/66        BY GEORGE W. CHERRY
000042:                                                                                                  #  MOD 1                  1/23/67        MODIFICATION BY PETER ADLER
000043:
000044:                                                                                                  #  FUNCTIONAL DESCRIPTION
000045:                                                                                                  #        HEREIN ARE A COLLECTION OF SUBROUTINES WHICH ALLOW MISSION CONTROL PROGRAMS TO CONTROL THE MODE
000046:                                                                                                  #        AND INTERFACE WITH THE DAP.
000047:
000048:                                                                                                  #  CALLING SEQUENCES
000049:                                                                                                  #        IN INTERRUPT OR WITH INTERRUPT INHIBITED
000050:                                                                                                  #                TC      IBNKCALL
000051:                                                                                                  #                FCADR   ROUTINE
000052:                                                                                                  #        IN A JOB WITHOUT INTERRUPT INHIBITED
000053:                                                                                                  #                INHINT
000054:                                                                                                  #                TC      IBNKCALL
000055:                                                                                                  #                FCADR   ROUTINE
000056:                                                                                                  #                RELINT
000057:
000058:                                                                                                  #  OUTPUT
000059:                                                                                                  #        SEE INDIVIDUAL ROUTINES BELOW
000060:
000061:                                                                                                  #  DEBRIS
000062:                                                                                                  #        A, L, AND SOMETIMES MDUETEMP                    ODE     NOT IN PULSES MODE
000063:


000065:                                                                                                  #  SUBROUTINE NAMES:
000066:                                                                                                  #        SETMAXDB, SETMINDB, RESTORDB, PFLITEDB
000067:                                                                                                  #  MODIFIED:     30 JANUARY 1968 BY P S WEISSMAN TO CREATE RESTORDB.
000068:                                                                                                  #  MODIFIED:     1 MARCH 1968 BY P S WEISSMAN TO SAVE EBANK AND CREATE PFLITEDB
000069:
000070:                                                                                                  #  FUNCTIONAL DESCRIPTION:
000071:                                                                                                  #        SETMAXDB - SET DEADBAND TO 5.0 DEGREES
000072:                                                                                                  #        SETMINDB - SET DEADBAND TO 0.3 DEGREE
000073:                                                                                                  #        RESTORDB - SET DEADBAND TO MAX OR MIN ACCORDING TO SETTING OF DBSELECT BIT OF DAPBOOLS
000074:                                                                                                  #        PFLITEDB - SET DEADBAND TO 1.0 DEGREE AND ZERO THE COMMANDED ATTITUDE CHANGE AND COMMANDED RATE
000075:
000076:                                                                                                  #        ALL ENTRIES SET UP A NOVAC JOB TO DO 1/ACCS SO THAT THE TJETLAW SWITCH CURVES ARE POSITIONED TO
000077:                                                                                                  #        REFLECT THE NEW DEADBAND.  IT SHOULD BE NOTED THAT THE DEADBAND REFERS TO THE ATTITUDE IN THE P-, U-, AND V-AXES.
000078:
000079:                                                                                                  #  SUBROUTINE CALLED:    NOVAC
000080:
000081:                                                                                                  #  CALLING SEQUENCE:     SAME AS ABOVE
000082:                                                                                                  #                        OR      TC RESTORDB +1    FROM ALLCOAST
000083:
000084:                                                                                                  #  DEBRIS:               A, L, Q, RUPTREG1, (ITEMPS IN NOVAC)
000085:
000086: 20,2123           30111        RESTORDB           CAE      DAPBOOLS                              #  DETERMINE CREW-SELECTED DEADBAND.
000087: 20,2124           74750                           MASK     DBSELECT
000088: 20,2125           00006                           EXTEND
000089: 20,2126           12140                           BZF      SETMINDB
000090:
000091: 20,2127           32151        SETMAXDB           CAF      WIDEDB                                #  SET 5 DEGREE DEADBAND.
000092: 20,2130           55346                 +1        TS       DB
000093:
000094: 20,2131           00006                           EXTEND                                         #  SET UP JOB TO RE-POSITION SWITCH CURVES.
000095: 20,2132           22070                           QXCH     RUPTREG1
000096: 20,2133           37715        CALLACCS           CAF      PRIO27
000097: 20,2134           05072                           TC       NOVAC
000098: 20,2135  E6,1537                                  EBANK=   AOSQ
000099: 20,2135           02454 40106                     2CADR    1/ACCJOB
000100:
000101: 20,2137           00070                           TC       RUPTREG1                              #  RETURN TO CALLER.
000102:
000103: 20,2140           32150        SETMINDB           CAF      NARROWDB                              #  SET 0.3 DEGREE DEADBAND.
000104: 20,2141           12130                           TCF      SETMAXDB   +1
000105:
000106: 20,2142           00006        PFLITEDB           EXTEND                                         #  THE RETURN FROM CALLACCS IS TO RUPTREG1.
000107: 20,2143           22070                           QXCH     RUPTREG1
000108: 20,2144           02153                           TC       ZATTEROR                              #  ZERO THE ERRORS AND COMMANDED RATES.
000109: 20,2145           32152                           CAF      POWERDB                               #  SET DB TO 1.0 DEG.
000110: 20,2146           55346                           TS       DB
000111: 20,2147           12133                           TCF      CALLACCS                              #  SET UP 1/ACCS AND RETURN TO CALLER.
000112: 20,2150           00155        NARROWDB           OCTAL    00155                                 #  0.3 DEGREE SCALED AT 45.


000114: 20,2151           03434        WIDEDB             OCTAL    03434                                 #  5.0 DEGREES SCALED AT 45.
000115: 20,2152           00554        POWERDB            DEC      .02222                                #  1.0 DEGREE SCALED AT 45.
000116:
000117: 20,2153           35015        ZATTEROR           CAF      EBANK6
000118: 20,2154           56003                           XCH      EBANK
000119: 20,2155           54001                           TS       L                                     #  SAVE CALLERS EBANK IN L.
000120: 20,2156           30032                           CAE      CDUX
000121: 20,2157           55635                           TS       CDUXD
000122: 20,2160           30033                           CAE      CDUY
000123: 20,2161           55636                           TS       CDUYD
000124: 20,2162           30034                           CAE      CDUZ
000125: 20,2163           55637                           TS       CDUZD
000126: 20,2164           12170                           TCF      STOPRATE   +3
000127:
000128: 20,2165           35015        STOPRATE           CAF      EBANK6
000129: 20,2166           56003                           XCH      EBANK
000130: 20,2167           54001                           TS       L                                     #  SAVE CALLERS EBANK IN L.
000131: 20,2170           34755                 +3        CAF      ZERO
000132: 20,2171           55643                           TS       OMEGAPD
000133: 20,2172           55644                           TS       OMEGAQD
000134: 20,2173           55645                           TS       OMEGARD
000135: 20,2174           55640                           TS       DELCDUX
000136: 20,2175           55641                           TS       DELCDUY
000137: 20,2176           55642                           TS       DELCDUZ
000138: 20,2177           55277                           TS       DELPEROR
000139: 20,2200           55300                           TS       DELQEROR
000140: 20,2201           55301                           TS       DELREROR
000141: 20,2202           22003                           LXCH     EBANK                                 #  RESTORE CALLERS EBANK.
000142: 20,2203           00002                           TC       Q
000143:
000144:                                                                                                  #  SUBROUTINE NAME:      ALLCOAST
000145:                                                                                                  #  WILL BE CALLED BY FRESH STARTS AND ENGINE OFF ROUTINES.               -
000146:
000147:                                                                                                  #  CALLING SEQUENCE:     (SAME AS ABOVE)
000148:
000149:                                                                                                  #  EXIT:                 RETURN TO Q.
000150:
000151:                                                                                                  #  SUBROUTINES CALLED:   STOPRATE, RESTORDB, NOVAC
000152:
000153:                                                                                                  #  ZERO:                 (FOR ALL AXES) AOS, ALPHA, AOSTERM, OMEGAD, DELCDU, DELEROR
000154:
000155:                                                                                                  #  OUTPUT:               DRIFTBIT/DAPBOOLS, DB, JOB TO DO 1/ACCS
000156:
000157:                                                                                                  #  DEBRIS:               A, L, Q, RUPTREG1, RUPTREG2, (ITEMPS IN NOVAC)
000158:
000159: 20,2204           00006        ALLCOAST           EXTEND                                         #  SAVE Q FOR RETURN
000160: 20,2205           22071                           QXCH     RUPTREG2


000162: 20,2206           02165                           TC       STOPRATE                              #  CLEAR RATE INTERFACE.  RETURN WITH A=0
000163: 20,2207           22003                           LXCH     EBANK                                 #  AND L=EBANK6.  SAVE CALLERS EBANK.
000164: 20,2210           55537                           TS       AOSQ
000165: 20,2211           55540                           TS       AOSQ       +1
000166: 20,2212           55541                           TS       AOSR
000167: 20,2213           55542                           TS       AOSR       +1
000168: 20,2214           55424                           TS       ALPHAQ                                #  FOR DOWNLIST.
000169: 20,2215           55425                           TS       ALPHAR
000170: 20,2216           55545                           TS       AOSQTERM
000171: 20,2217           55546                           TS       AOSRTERM
000172: 20,2220           22003                           LXCH     EBANK                                 #  RESTORE EBANK (EBANK6 NO LONGER NEEDED)
000173:
000174: 20,2221           40111                           CS       DAPBOOLS                              #  SET UP DRIFTBIT
000175: 20,2222           74744                           MASK     DRIFTBIT
000176: 20,2223           26111                           ADS      DAPBOOLS
000177: 20,2224           02124                           TC       RESTORDB   +1                         #  RESTORE DEADBANK TO CREW-SELECTED VALUE.
000178:
000179: 20,2225           00071                           TC       RUPTREG2                              #  RETURN.
000180:

End of include-file DAP_INTERFACE_SUBROUTINES.agc.  Parent file is MAIN.agc


