
Source Code
000001:                                                                                                 #  Copyright:     Public domain.
000002:                                                                                                 #  Filename:      DAP_INTERFACE_SUBROUTINES.agc
000003:                                                                                                 #  Purpose:       Part of the source code for Luminary 1A build 099.
000004:                                                                                                 #                 It is part of the source code for the Lunar Module's (LM)
000005:                                                                                                 #                 Apollo Guidance Computer (AGC), for Apollo 11.
000006:                                                                                                 #  Assembler:     yaYUL
000007:                                                                                                 #  Contact:       Ron Burkey <info@sandroid.org>.
000008:                                                                                                 #  Website:       www.ibiblio.org/apollo.
000009:                                                                                                 #  Pages: 1406-1409
000010:                                                                                                 #  Mod history:  2009-05-10 SN   (Sergio Navarro).  Started adapting
000011:                                                                                                 #                                 from the Luminary131/ file of the same
000012:                                                                                                 #                                 name, using Luminary099 page images.
000013:
000014:                                                                                                 #  This source code has been transcribed or otherwise adapted from
000015:                                                                                                 #  digitized images of a hardcopy from the MIT Museum.  The digitization
000016:                                                                                                 #  was performed by Paul Fjeld, and arranged for by Deborah Douglas of
000017:                                                                                                 #  the Museum.  Many thanks to both.  The images (with suitable reduction
000018:                                                                                                 #  in storage size and consequent reduction in image quality as well) are
000019:                                                                                                 #  available online at www.ibiblio.org/apollo.  If for some reason you
000020:                                                                                                 #  find that the images are illegible, contact me at info@sandroid.org
000021:                                                                                                 #  about getting access to the (much) higher-quality images which Paul
000022:                                                                                                 #  actually created.
000023:
000024:                                                                                                 #  Notations on the hardcopy document read, in part:
000025:
000026:                                                                                                 #         Assemble revision 001 of AGC program LMY99 by NASA 2021112-61
000027:                                                                                                 #         16:27 JULY 14, 1969
000028:
000029:                                                                                                 #  Page 1406
000030: 20,2123                                          BANK     20
000031: 20,2000                                          SETLOC   DAPS3
000032: 20,2000                                          BANK
000033:
000034: 20,2123  E6,1635                                 EBANK=   CDUXD
000035: 20,2123                                          COUNT*   $$/DAPIF
000036:
000037:                                                                                                 #  MOD 0          DATE    11/15/66        BY GEORGE W. CHERRY
000038:                                                                                                 #  MOD 1                   1/23/67        MODIFICATION BY PETER ADLER
000039:
000040:                                                                                                 #  FUNCTIONAL DESCRIPTION
000041:                                                                                                 #         HEREIN IS A COLLECTION OF SUBROUTINES WHICH ALLOW MISSION CONTROL PROGRAMS TO CONTROL THE MODE
000042:                                                                                                 #         AND INTERFACE WITH THE DAP.
000043:
000044:                                                                                                 #  CALLING SEQUENCES
000045:                                                                                                 #         IN INTERRUPT OR WITH INTERRUPT INHIBITED
000046:                                                                                                 #                 TC      IBNKCALL
000047:                                                                                                 #                 FCADR   ROUTINE
000048:                                                                                                 #         IN A JOB WITHOUT INTERRUPT INHIBITED
000049:                                                                                                 #                 INHINT
000050:                                                                                                 #                 TC      IBNKCALL
000051:                                                                                                 #                 FCADR   ROUTINE
000052:                                                                                                 #                 RELINT
000053:
000054:                                                                                                 #  OUTPUT
000055:                                                                                                 #         SEE INDIVIDUAL ROUTINES BELOW
000056:
000057:                                                                                                 #  DEBRIS
000058:                                                                                                 #         A, L, AND SOMETIMES MDUETEMP                    ODE     NOT IN PULSES MODE
000059:
000060:                                                                                                 #  Page 1407
000061:                                                                                                 #  SUBROUTINE NAMES:
000062:                                                                                                 #         SETMAXDB, SETMINDB, RESTORDB, PFLITEDB
000063:                                                                                                 #  MODIFIED:      30 JANUARY 1968 BY P. S. WEISSMAN TO CREATE RESTORDB.
000064:                                                                                                 #  MODIFIED:      1 MARCH 1968 BY P. S. WEISSMAN TO SAVE EBANK AND CREATE PFLITEDB
000065:
000066:                                                                                                 #  FUNCTIONAL DESCRIPTION:
000067:                                                                                                 #         SETMAXDB -- SET DEADBAND TO 5.0 DEGREES
000068:                                                                                                 #         SETMINDB -- SET DEADBAND TO 0.3 DEGREE
000069:                                                                                                 #         RESTORDB -- SET DEADBAND TO MAX OR MIN ACCORDING TO SETTINGS OF DBSELECT BIT OF DAPBOOLS
000070:                                                                                                 #         PFLITEDB -- SET DEADBAND TO 1.0 DEGREE AND ZERO THE COMMANDED ATTITUDE CHANGE AND COMMANDED RATE
000071:
000072:                                                                                                 #         ALL ENTRIES SET UP A NOVAC JOB TO DO 1/ACCS SO THAT THE TJETLAW SWITCH CURVES ARE POSITIONED TO
000073:                                                                                                 #         REFLECT TEH NEW DEADBAND.  IT SHOULD BE NOTED THAT THE DEADBAND REFERS TO THE ATTITUDE IN THE P-, U-, AND V-AXES.
000074:
000075:                                                                                                 #  SUBROUTINE CALLED:     NOVAC
000076:
000077:                                                                                                 #  CALLING SEQUENCE:      SAME AS ABOVE
000078:                                                                                                 #                         OR      TC RESTORDB +1    FROM ALLCOAST
000079:
000080:                                                                                                 #  DEBRIS:                A, L, Q, RUPTREG1, (ITEMPS IN NOVAC)
000081:
000082: 20,2123           30111        RESTORDB          CAE      DAPBOOLS                              #  DETERMINE CREW-SELECTED DEADBAND.
000083: 20,2124           74750                          MASK     DBSELECT
000084: 20,2125           00006                          EXTEND
000085: 20,2126           12140                          BZF      SETMINDB
000086:
000087: 20,2127           32151        SETMAXDB          CAF      WIDEDB                                #  SET 5 DEGREE DEADBAND.
000088: 20,2130           55346                 +1       TS       DB
000089:
000090: 20,2131           00006                          EXTEND                                         #  SET UP JOB TO RE-POSITION SWITCH CURVES.
000091: 20,2132           22070                          QXCH     RUPTREG1
000092: 20,2133           37715        CALLACCS          CAF      PRIO27
000093: 20,2134           05072                          TC       NOVAC
000094: 20,2135  E6,1537                                 EBANK=   AOSQ
000095: 20,2135           02454 40106                    2CADR    1/ACCJOB
000096:
000097: 20,2137           00070                          TC       RUPTREG1                              #  RETURN TO CALLER.
000098:
000099: 20,2140           32150        SETMINDB          CAF      NARROWDB                              #  SET 0.3 DEGREE DEADBAND.
000100: 20,2141           12130                          TCF      SETMAXDB   +1
000101:
000102: 20,2142           00006        PFLITEDB          EXTEND                                         #  THE RETURN FROM CALLACCS IS TO RUPTREG1.
000103: 20,2143           22070                          QXCH     RUPTREG1
000104: 20,2144           02153                          TC       ZATTEROR                              #  ZERO THE ERRORS AND COMMANDED RATES.
000105: 20,2145           32152                          CAF      POWERDB                               #  SET DB TO 1.0 DEG.
000106: 20,2146           55346                          TS       DB
000107: 20,2147           12133                          TCF      CALLACCS                              #  SET UP 1/ACCS AND RETURN TO CALLER.
000108: 20,2150           00155        NARROWDB          OCTAL    00155                                 #  0.3 DEGREE SCALED AT 45.
000109:                                                                                                 #  Page 1408
000110: 20,2151           03434        WIDEDB            OCTAL    03434                                 #  5.0 DEGREES SCALED AT 45.
000111: 20,2152           00554        POWERDB           DEC      .02222                                #  1.0 DEGREE SCALED AT 45.
000112:
000113: 20,2153           35015        ZATTEROR          CAF      EBANK6
000114: 20,2154           56003                          XCH      EBANK
000115: 20,2155           54001                          TS       L                                     #  SAVE CALLERS EBANK IN L.
000116: 20,2156           30032                          CAE      CDUX
000117: 20,2157           55635                          TS       CDUXD
000118: 20,2160           30033                          CAE      CDUY
000119: 20,2161           55636                          TS       CDUYD
000120: 20,2162           30034                          CAE      CDUZ
000121: 20,2163           55637                          TS       CDUZD
000122: 20,2164           12170                          TCF      STOPRATE   +3
000123:
000124: 20,2165           35015        STOPRATE          CAF      EBANK6
000125: 20,2166           56003                          XCH      EBANK
000126: 20,2167           54001                          TS       L                                     #  SAVE CALLERS EBANK IN L.
000127: 20,2170           34755                 +3       CAF      ZERO
000128: 20,2171           55643                          TS       OMEGAPD
000129: 20,2172           55644                          TS       OMEGAQD
000130: 20,2173           55645                          TS       OMEGARD
000131: 20,2174           55640                          TS       DELCDUX
000132: 20,2175           55641                          TS       DELCDUY
000133: 20,2176           55642                          TS       DELCDUZ
000134: 20,2177           55277                          TS       DELPEROR
000135: 20,2200           55300                          TS       DELQEROR
000136: 20,2201           55301                          TS       DELREROR
000137: 20,2202           22003                          LXCH     EBANK                                 #  RESTORE CALLERS EBANK.
000138: 20,2203           00002                          TC       Q
000139:
000140:                                                                                                 #  SUBROUTINE NAME:       ALLCOAST
000141:                                                                                                 #  WILL BE CALLED BY FRESH STARTS AND ENGINE OFF ROUTINES.
000142:
000143:                                                                                                 #  CALLING SEQUENCE:      (SAME AS ABOVE)
000144:
000145:                                                                                                 #  EXIT:                  RETURN TO Q.
000146:
000147:                                                                                                 #  SUBROUTINES CALLED:    STOPRATE, RESTORDB, NOVAC
000148:
000149:                                                                                                 #  ZERO:                  (FOR ALL AXES) AOS, ALPHA, AOSTERM, OMEGAD, DELCDU, DELEROR
000150:
000151:                                                                                                 #  OUTPUT:                DRIFTBIT/DAPBOOLS, OE, JOB TO DO 1/ACCS
000152:
000153:                                                                                                 #  DEBRIS:                A, L, Q, RUPTREG1, RUPTREG2, (ITEMPS IN NOVAC)
000154:
000155: 20,2204           00006        ALLCOAST          EXTEND                                         #  SAVE Q FOR RETURN
000156: 20,2205           22071                          QXCH     RUPTREG2
000157:                                                                                                 #  Page 1409
000158: 20,2206           02165                          TC       STOPRATE                              #  CLEAR RATE INTERFACE.  RETURN WITH A=0
000159: 20,2207           22003                          LXCH     EBANK                                 #  AND L=EBANK6.  SAVE CALLER'S EBANK.
000160: 20,2210           55537                          TS       AOSQ
000161: 20,2211           55540                          TS       AOSQ       +1
000162: 20,2212           55541                          TS       AOSR
000163: 20,2213           55542                          TS       AOSR       +1
000164: 20,2214           55424                          TS       ALPHAQ                                #  FOR DOWNLIST.
000165: 20,2215           55425                          TS       ALPHAR
000166: 20,2216           55545                          TS       AOSQTERM
000167: 20,2217           55546                          TS       AOSRTERM
000168: 20,2220           22003                          LXCH     EBANK                                 #  RESTORE EBANK (EBANK6 NO LONGER NEEDED)
000169:
000170: 20,2221           40111                          CS       DAPBOOLS                              #  SET UP DRIFTBIT
000171: 20,2222           74744                          MASK     DRIFTBIT
000172: 20,2223           26111                          ADS      DAPBOOLS
000173: 20,2224           02124                          TC       RESTORDB   +1                         #  RESTORE DEADBANK TO CREW-SELECTED VALUE.
000174:
000175: 20,2225           00071                          TC       RUPTREG2                              #  RETURN.
000176:

End of include-file DAP_INTERFACE_SUBROUTINES.agc.  Parent file is MAIN.agc


