
Source Code


000002:                                                                                                  #  Copyright:    Public domain.
000003:                                                                                                  #  Filename:     DAPIDLER_PROGRAM.agc
000004:                                                                                                  #  Purpose:      Part of the source code for Luminary 1A build 099.
000005:                                                                                                  #                It is part of the source code for the Lunar Module's (LM)
000006:                                                                                                  #                Apollo Guidance Computer (AGC), for Apollo 11.
000007:                                                                                                  #  Assembler:    yaYUL
000008:                                                                                                  #  Contact:      Ron Burkey <info@sandroid.org>.
000009:                                                                                                  #  Website:      www.ibiblio.org/apollo.
000010:                                                                                                  #  Pages:        1410-1420
000011:                                                                                                  #  Mod history:  2009-05-10 SN   (Sergio Navarro).  Started adapting
000012:                                                                                                  #                                from the Luminary131/ file of the same
000013:                                                                                                  #                                name, using Luminary099 page images.
000014:
000015:                                                                                                  #  This source code has been transcribed or otherwise adapted from
000016:                                                                                                  #  digitized images of a hardcopy from the MIT Museum.  The digitization
000017:                                                                                                  #  was performed by Paul Fjeld, and arranged for by Deborah Douglas of
000018:                                                                                                  #  the Museum.  Many thanks to both.  The images (with suitable reduction
000019:                                                                                                  #  in storage size and consequent reduction in image quality as well) are
000020:                                                                                                  #  available online at www.ibiblio.org/apollo.  If for some reason you
000021:                                                                                                  #  find that the images are illegible, contact me at info@sandroid.org
000022:                                                                                                  #  about getting access to the (much) higher-quality images which Paul
000023:                                                                                                  #  actually created.
000024:
000025:                                                                                                  #  Notations on the hardcopy document read, in part:
000026:
000027:                                                                                                  #        Assemble revision 001 of AGC program LMY99 by NASA 2021112-61
000028:                                                                                                  #        16:27 JULY 14, 1969
000029:
000030:                                                                                                  #  Page 1410
000031:                                                                                                  #  THE DAPIDLER PROGRAM IS STARTED BY FRESH START AND RESTART.  THE DAPIDLER PROGRAM IS DONE 10 TIMES
000032:                                                                                                  #  PER SECOND UNTIL THE ASTRONAUT DESIRES THE DAP TO WAKE UP, AND THE IMU AND CDUS ARE READY FOR USE BY THE DAP.
000033:                                                                                                  #  THE NECESSARY INITIALIZATION OF THE DAP IS DONE BY THE DAPIDLER PROGRAM.
000034:
000035: 16,2000                                           BANK     16
000036: 16,2000                                           SETLOC   DAPS1
000037: 16,2000                                           BANK
000038:
000039: 16,2000  E6,1537                                  EBANK=   AOSQ
000040:
000041: 16,2000                                           COUNT*   $$/DAPID
000042:
000043: 16,2000           00006        CHEKBITS           EXTEND
000044: 16,2001           00031                           READ     CHAN31                                #  IF BOTH BIT13 AND BIT14 ARE ONE, THEN
000045: 16,2002           40000                           COM                                            #  THE MODE SELECT SWITCH IS IN THE OFF
000046: 16,2003           74355                           MASK     BIT13-14                              #  POSITION, AND SO THE DAP SHOULD BE OFF,
000047: 16,2004           00006                           EXTEND                                         #  WITH NO ATTITUDE ERROR DISPLAY.
000048: 16,2005           12157                           BZF      MOREIDLE
000049:
000050: 16,2006           41303                           CS       IMODES33
000051: 16,2007           74746                           MASK     BIT6
000052: 16,2010           10000                           CCS      A
000053: 16,2011           12206                           TCF      JUMPDSP
000054: 16,2012           41273                           CS       RCSFLAGS                              #  IMU NOT USABLE.  SET UP INITIALIZATION
000055: 16,2013           74751                           MASK     BIT3                                  #  FLAG FOR ATT ERROR DISPLAY ROUTINE.
000056: 16,2014           27273                           ADS      RCSFLAGS
000057: 16,2015           12163                           TCF      SHUTDOWN
000058:
000059: 16,2016           34742        CHEKMORE           CAF      BIT10                                 #  BIT 10 OF 30 IS PGNCS CONTROL OF S/C
000060: 16,2017           00006                           EXTEND
000061: 16,2020           02030                           RAND     CHAN30                                #  BITS IN 30 ARE INVERTED
000062: 16,2021           10000                           CCS      A
000063: 16,2022           12157                           TCF      MOREIDLE
000064:
000065: 16,2023           00002                           RETURN
000066:
000067:                                                                                                  #  Page 1411
000068:                                                                                                  #  DAPIDLER ENTRY.
000069:
000070: 16,2024           22016        DAPIDLER           LXCH     BANKRUPT                              #  INTERRUPT LEAD INS (CONTINUED)
000071: 16,2025           00006                           EXTEND
000072: 16,2026           22012                           QXCH     QRUPT
000073:
000074: 16,2027           31273                           CA       RCSFLAGS
000075: 16,2030           74737                           MASK     BIT13
000076: 16,2031           10000                           CCS      A                                     #  CHECK IF 1/ACCJOB HAS BEEN SET UP SINCE
000077: 16,2032           12041                           TCF      CHECKUP                               #  THE LAST FRESH START OR RESTART.
000078: 16,2033           34737                           CA       BIT13
000079: 16,2034           27273                           ADS      RCSFLAGS                              #  BIT 13 IS 1.
000080: 16,2035           37715                           CAF      PRIO27
000081: 16,2036           05072                           TC       NOVAC                                 #  SET UP JOB TO DO A LITTLE INITIALIZATION
000082: 16,2037  E6,1537                                  EBANK=   AOSQ                                  #        AND EXECUTE 1/ACCS.
000083: 16,2037           02447 40106                     2CADR    1/ACCSET                              #  (WILL BRANCH TO MOREIDLE ON ACCSOKAY)
000084:
000085: 16,2041           02000        CHECKUP            TC       CHEKBITS                              #  CHECK TO SEE IF LM DAP IS TO GO ON AND
000086:                                                                                                  #        DO ERROR DISPLAY.
000087:
000088: 16,2042           30111                           CAE      DAPBOOLS                              #  IF 1/ACCS HAS NOT BEEN COMPLETED, IDLE.
000089: 16,2043           74751                           MASK     ACCSOKAY                              #        NOTE:   ONLY FRESH START AND RESTART
000090: 16,2044           00006                           EXTEND                                         #                KNOCK THIS BIT DOWN.
000091: 16,2045           12157                           BZF      MOREIDLE
000092:
000093: 16,2046           04674        STARTDAP           TC       IBNKCALL                              #  ZERO ATTITUDE ERROR AND DESIRED RATES.
000094: 16,2047           40153                           FCADR    ZATTEROR
000095: 16,2050           34755                           CAF      ZERO                                  #  ************ INITIALIZE: *************
000096: 16,2051           55524                           TS       TJP
000097: 16,2052           55525                           TS       TJU
000098: 16,2053           55526                           TS       TJV
000099: 16,2054           55421                           TS       OMEGAP                                #  RATES IN BODY (PILOT) COORDINATES.
000100: 16,2055           55422                           TS       OMEGAQ
000101: 16,2056           55423                           TS       OMEGAR
000102: 16,2057           55430                           TS       TRAPEDP
000103: 16,2060           55431                           TS       TRAPEDQ
000104: 16,2061           55432                           TS       TRAPEDR
000105: 16,2062           55537                           TS       AOSQ                                  #  OFFSET ACCELERATION ESTIMATES.
000106: 16,2063           55540                           TS       AOSQ       +1
000107: 16,2064           55541                           TS       AOSR
000108: 16,2065           55542                           TS       AOSR       +1
000109: 16,2066           55424                           TS       ALPHAQ                                #  COPIES OF OFFSET ESTIMATES FOR DOWNLIST.
000110: 16,2067           55425                           TS       ALPHAR
000111: 16,2070           55501                           TS       NEGUQ
000112: 16,2071           55503                           TS       NEGUR
000113: 16,2072           55545                           TS       AOSQTERM                              #  QRAXIS RATE DERIVATION TERMS AND KALMAN
000114: 16,2073           55546                           TS       AOSRTERM                              #  FILTER INITIALIZATION TERMS.
000115: 16,2074           55510                           TS       QACCDOT                               #  DESCENT ACCELERATION DERIVATIVE EST.
000116: 16,2075           55512                           TS       RACCDOT
000117:                                                                                                  #  Page 1412
000118: 16,2076           55502                           TS       ALLOWGTS                              #  AOSTASK FLAG FOR QRAXIS RCS CONTROL USE.
000119: 16,2077           55631                           TS       COTROLER                              #  DO TRYGTS ON FIRST PASS (WILL GO TO RCS)
000120: 16,2100           55633                           TS       INGTS                                 #  RECOGNIZE FIRST GTS PASS AS SUCH.
000121: 16,2101           55632                           TS       QGIMTIMR                              #  STOP GIMBAL DRIVES.  (PROBABLY WOULD BE
000122: 16,2102           55634                           TS       RGIMTIMR                              #        GOOD ENOUGH JUST TO INACTIVATE TIMERS)
000123: 16,2103           55460                           TS       OLDPMIN                               #  MINIMUM IMPULSE MODE ERASABLES
000124: 16,2104           55461                           TS       OLDQRMIN
000125: 16,2105           55767                           TS       PJETCTR                               #  INITIALIZE DOCKED JET INHIBITION
000126: 16,2106           55770                           TS       UJETCTR                               #  COUNTERS
000127: 16,2107           55771                           TS       VJETCTR
000128: 16,2110     4747               CALLGMBL           EQUALS   BIT5                                  #  RCSFLAGS INITIALIZATION.
000129: 16,2110           42202                           CS       MANFLAG
000130: 16,2111           71273                           MASK     RCSFLAGS                              #  NEGUQ(R) HAVE BEEN GENERATED.
000131: 16,2112           55273                           TS       RCSFLAGS
000132:
000133:                                                                                                  #  SET UP "OLD" MEASURED CDU ANGLES:
000134:
000135: 16,2113           00006                           EXTEND
000136: 16,2114           30033                           DCA      CDUX                                  #  OLDXFORP AND OLDYFORP
000137: 16,2115           53441                           DXCH     OLDXFORP
000138: 16,2116           30034                           CA       CDUZ
000139: 16,2117           55442                           TS       OLDZFORQ
000140: 16,2120           41273                           CS       RCSFLAGS
000141: 16,2121           74740                           MASK     BIT12
000142: 16,2122           27273                           ADS      RCSFLAGS                              #  BIT 12 SET TO 1.
000143: 16,2123           34751                           CA       FOUR
000144: 16,2124           55535                           TS       SKIPU
000145: 16,2125           55536                           TS       SKIPV
000146: 16,2126           34733                           CA       POSMAX
000147: 16,2127           54031                           TS       TIME6
000148: 16,2130           55466                           TS       T6NEXT
000149: 16,2131           55470                           TS       T6FURTHA
000150: 16,2132           34755                           CA       ZERO
000151: 16,2133           55467                           TS       T6NEXT     +1
000152: 16,2134           55471                           TS       T6FURTHA   +1
000153: 16,2135           55465                           TS       NXT6ADR
000154: 16,2136           55472                           TS       NEXTP
000155: 16,2137           55473                           TS       NEXTU
000156: 16,2140           55474                           TS       NEXTV
000157: 16,2141           44363                           CS       TEN
000158: 16,2142           55757                           TS       DAPZRUPT                              #  JASK NOT IN PROGRESS, INITIALIZE NEG.
000159: 16,2143           34752                           CA       TWO
000160: 16,2144           55433                           TS       NPTRAPS
000161: 16,2145           55434                           TS       NQTRAPS
000162: 16,2146           55435                           TS       NRTRAPS
000163: 16,2147           00006                           EXTEND
000164: 16,2150           32205                           DCA      PAXADIDL
000165: 16,2151           53275                           DXCH     T5ADR
000166: 16,2152           37727        SETTIME5           CAF      MS100
000167: 16,2153           54030                           TS       TIME5
000168:                                                                                                  #  Page 1413
000169: 16,2154           15270                           TCF      RESUME
000170: 16,2155  E6,1537                                  EBANK=   AOSQ
000171: 16,2155           02024 34106  IDLERADR           2CADR    DAPIDLER
000172:
000173: 16,2157           04674        MOREIDLE           TC       IBNKCALL                              #  CALCULATE Q,R-AXES ATTITUDE ERRORS.
000174: 16,2160           36626                           CADR     QERRCALC
000175:
000176: 16,2161           04674                           TC       IBNKCALL
000177: 16,2162           35446                           CADR     CALCPERR                              #  CALCULATE P AXIS ATTITUDE ERRORS.
000178:
000179: 16,2163           00006        SHUTDOWN           EXTEND
000180: 16,2164           32156                           DCA      IDLERADR
000181: 16,2165           53275                           DXCH     T5ADR
000182:
000183: 16,2166           34755                           CAF      ZERO                                  #  KILL ANY POSSIBLE JET REQUESTS
000184: 16,2167           55472                           TS       NEXTP
000185: 16,2170           55473                           TS       NEXTU
000186: 16,2171           55474                           TS       NEXTV
000187: 16,2172           00006                           EXTEND                                         #  COMMAND JETS OFF.
000188: 16,2173           01005                           WRITE    CHAN5
000189: 16,2174           00006                           EXTEND
000190: 16,2175           01006                           WRITE    CHAN6
000191: 16,2176           42203                           CS       BGIM23                                #  TURN TRIM GIMBAL OFF
000192: 16,2177           00006                           EXTEND
000193: 16,2200           03012                           WAND     CHAN12
000194: 16,2201           12152                           TCF      SETTIME5                              #  RETURN IN 100 MSEC.
000195:
000196: 16,2202           03021        MANFLAG            OCT      03021
000197: 16,2203           07400        BGIM23             OCTAL    07400
000198: 16,2204  E6,1421                                  EBANK=   OMEGAP
000199: 16,2204           02213 34106  PAXADIDL           2CADR    PAXIS
000200:
000201: 16,2206     7727               MS100              =        OCT37766
000202: 16,2206     0061               COSMG              =        ITEMP1
000203: 16,2206           00006        JUMPDSP            EXTEND                                         #  TRANSFER TO BANK 20
000204: 16,2207           32212                           DCA      DSPCADR                               #  FOR ATTITUDE ERROR DISPLAYS
000205: 16,2210           52006                           DTCB
000206:
000207: 16,2211  E6,1761                                  EBANK=   AK
000208: 16,2211           02226 40106  DSPCADR            2CADR    ALTDSPLY
000209:
000210:                                                                                                  #  Page 1414
000211: 20,2226                                           BANK     20
000212: 20,2000                                           SETLOC   DAPS3
000213: 20,2000                                           BANK
000214: 20,2226                                           COUNT*   $$/NEEDL
000215:
000216:                                                                                                  #  PROGRAM:      ALTDSPLY
000217:                                                                                                  #  MOD 0.        6 DEC 1967
000218:                                                                                                  #  AUTHOR:       CRAIG WORK, DON KEENE, MIT IL
000219:                                                                                                  #  MOD 3 BY DON KEENE AUG 1, 1968 -- MOVED PROGRAM TO BANK 20
000220:
000221:                                                                                                  #  PROGRAM DESCRIPTION:
000222:                                                                                                  #        ALTDSPLY REVERSES THE DSPLYALT BIT OF RCSFLAGS EACH TIME IT IS CALLED, WHICH IS PRESUMABLY EVERY 100 MS.
000223:                                                                                                  #        IF THE REVERSED BIT IS ONE, NEEDLER IS CALLED TO DISPLAY ATTITUDE ERRORS.  IF THE BIT IS ZERO, THE ATTITUDE ERR-
000224:                                                                                                  #        ORS ARE CALCULATED AS 1) DAP FOLLOWING ERRORS, IF NEEDLFLG = 0, AND 2) TOTAL ATTITUDE ERRORS FOR NEEDLFLG = 1.
000225:
000226:
000227:                                                                                                  #  WARNING:      ALTDSPLY MAY ONLY BE CALLED WITH INTERRUPT INHIBITED
000228:
000229:                                                                                                  #  WARNING:      EBANK MUST BE SET TO 6 WHEN USING THIS ROUTINE.
000230:
000231:                                                                                                  #  INPUT:        RCSFLAGS AND    1) IF NEEDLFLG = 0, INPUT PERROR, QERROR, RERROR.
000232:                                                                                                  #                                2) IF NEEDLFLG = 1, INPUT CPHI,CTHETA,CPSI,CDUX,CDUY,CDUZ,M11,M21,M32,M22,M32.  (GPMATRIX)
000233:
000234:
000235:                                                                                                  #  OUTPUTS:      RCSFLAGS WITH DSPLYALT REVERSED, AK, AK1, AK2, + NEEDLER OUTPUTS.
000236:
000237:                                                                                                  #  ENTRY:        TCF     ALTDSPLY
000238:
000239:                                                                                                  #  EXIT:         TCF     CHEKMORE
000240:
000241:                                                                                                  #  ALARM OR ABORT EXITS: NONE
000242:
000243:                                                                                                  #  SUBPROGRAMS CALLED:  NEEDLER, OVERSUB2
000244:
000245:                                                                                                  #  DEBRIS:       A, L, AND NEEDLER DEBRIS.
000246:
000247: 20,2226           31273        ALTDSPLY           CA       RCSFLAGS                              #  INVERT THE DISPLAY ALTERNATION BIT.
000248: 20,2227           54001                           TS       L
000249: 20,2230           34750                           CA       DSPLYALT
000250: 20,2231           00006                           EXTEND
000251: 20,2232           06001                           RXOR     LCHAN
000252: 20,2233           55273                           TS       RCSFLAGS
000253:
000254: 20,2234           74750                           MASK     DSPLYALT
000255: 20,2235           10000                           CCS      A                                     #  IS ALTERNATION FLAG ZERO?
000256: 20,2236           12322                           TCF      NEEDLER
000257:
000258: 20,2237           30074                           CAE      FLAGWRD0                              #  NEEDLFLG WILL INDICATE TOTAL OR DAP AT-
000259:                                                                                                  #  Page 1415
000260: 20,2240           74750                           MASK     NEEDLBIT                              #  TITUDE ERROR DISPLAY REQUEST.
000261: 20,2241           10000                           CCS      A
000262: 20,2242           12252                           TCF      DSPLYTOT                              #  TOTAL ERROR IS NEEDED IN AK, AK +1, AK +2
000263:
000264: 20,2243           41450                           CS       QERROR                                #  YES.  DISPLAY ATT ERRORS ON THE -BALL.
000265: 20,2244           55762                           TS       AK         +1                         #  ERROR COMPLEMENTS ARE INPUT TO NEEDLER.
000266: 20,2245           41452                           CS       RERROR
000267: 20,2246           55763                           TS       AK         +2
000268: 20,2247           41464                           CS       PERROR
000269: 20,2250           57761                           XCH      AK
000270:
000271: 20,2251           12442                           TCF      RETNMORE                              #  DISPLAY THESE THE NEXT TIME THROUGH
000272:
000273:                                                                                                  #  CALCULATE GIMBAL ANGLE TOTAL ERRORS, RESOLVE INTO PILOT AXES, STORE TOTAL ERRORS FOR NEEDLER.  Q-AXIS FIRST.
000274:
000275: 20,2252           00006        DSPLYTOT           EXTEND
000276: 20,2253           22061                           QXCH     ITEMP1                                #  SAVE Q FOR CHEKBITS RETURN.
000277:
000278: 20,2254           30322                           CA       CTHETA                                #  DESIRED ATTITUDE, Y-AXIS, 2'S COMP.
000279: 20,2255           00006                           EXTEND                                         #  SUBTRACT CURRENT ATTITUDE.
000280: 20,2256           20033                           MSU      CDUY                                  #  DIFFERENCE SCALED AT PI, 1'S COMP.
000281: 20,2257           55761                           TS       AK                                    #  SAVE FOR R-ERROR CALCULATION.
000282: 20,2260           00006                           EXTEND
000283: 20,2261           71415                           MP       M21                                   #  (CTHETA-CDUY)*M21 SCALED AT PI RADIANS.
000284: 20,2262           57762                           XCH      AK         +1                         #  STORE FIRST TERM OF Q ERROR.
000285: 20,2263           30323                           CA       CPSI                                  #  DESIRED ATTITUDE, Z-AXIS, 2'S COMP.
000286: 20,2264           00006                           EXTEND                                         #  SUBTRACT CURRENT ATTITUDE.
000287: 20,2265           20034                           MSU      CDUZ                                  #  DIFFERENCE SCALED AT PI, 1'S COMP.
000288: 20,2266           55763                           TS       AK         +2                         #  SAVE Z-AXIS TERM FOR R ERROR CALCULATION
000289: 20,2267           00006                           EXTEND
000290: 20,2270           71417                           MP       M22                                   #  (CPSI-CDUZ)*M22, SCALED AT PI RADIANS.
000291: 20,2271           61762                           AD       AK         +1                         #  Q ERROR COMPLETE         , AT PI RAD.
000292: 20,2272           02435                           TC       OVERSUB2                              #  PIN NEEDLES IN CASE OF OVERFLOW
000293: 20,2273           55762                           TS       AK         +1
000294:
000295:                                                                                                  #  R ERROR CALCULATION NEXT.
000296:
000297: 20,2274           31761                           CA       AK                                    #  Y-AXIS DIFFERENCE STORED BY Q-AXIS CALC.
000298: 20,2275           00006                           EXTEND
000299: 20,2276           71416                           MP       M31                                   #  (CTHETA-CDUY)*M31, SCALED AT PI RADIANS.
000300: 20,2277           57763                           XCH      AK         +2                         #  FIRST TERM OF R ERROR.
000301:                                                                                                  #  Z-AXIS DIFFERENCE, STORED BY A CALC. IS
000302: 20,2300           00006                           EXTEND                                         #  RECOVERED BY THE EXCHANGE.
000303: 20,2301           71420                           MP       M32                                   #  (CPSI-CDUZ)*M32, SCALED AT PI RADIANS.
000304: 20,2302           61763                           AD       AK         +2                         #  R ERROR COMPLETE         , AT PI RAD.
000305: 20,2303           02435                           TC       OVERSUB2                              #  PIN NEEDLES IN CASE OF OVERFLOW.
000306: 20,2304           55763                           TS       AK         +2
000307:
000308:                                                                                                  #  NOW CALCULATE P ERROR.  (NOTE THAT M13 = 1, SCALED AT 1, SO THE MULTIPLICATION IS BY-PASSED.)
000309:                                                                                                  #  Page 1416
000310: 20,2305           31761                           CA       AK                                    #  Y-AXIS DIFFERENCE STORED BY Q AXIS CALC.
000311: 20,2306           00006                           EXTEND
000312: 20,2307           71414                           MP       M11                                   #  (CTHETA-CDUY)*M11 SCALED AT PI RADIANS.
000313: 20,2310           57761                           XCH      AK                                    #  FIRST TERM OF P ERROR IN AK, AT PI RAD.
000314: 20,2311           30321                           CAE      CPHI                                  #  DESIRED ATTITUDE, X-AXIS, 2'S COMP.
000315: 20,2312           00006                           EXTEND                                         #  SUBTRACT CURRENT X ATTITUDE.
000316: 20,2313           20032                           MSU      CDUX                                  #  X-AXIS DIFFERENCE, 1'S COMP, AT PI RAD.
000317:
000318:                                                                                                  #  M13 = 1, SO BYPASS THE MULTIPLICATION.
000319:                                                                                                  #                EXTEND
000320:                                                                                                  #                MP      M13             # (CPHI-CDUX)*M13 SCALED AT PI RADIANS.
000321:
000322: 20,2314           61761                           AD       AK                                    #  P ERROR COMPLETE      , SCALED AT PI RAD
000323: 20,2315           02435                           TC       OVERSUB2                              #  PIN NEEDLES IN CASE OF OVERFLOW.
000324: 20,2316           55761                           TS       AK
000325:
000326: 20,2317           00006                           EXTEND
000327: 20,2320           22061                           QXCH     ITEMP1                                #  RESTORE Q FOR CHEKBITS RETURN.
000328:
000329: 20,2321           12442                           TCF      RETNMORE                              #  DISPLAY THESE THE NEXT TIME THROUGH
000330:
000331:                                                                                                  #  Page 1417
000332:                                                                                                  #  FDAI ATTITUDE ERROR DISPLAY SUBROUTINE
000333:
000334:                                                                                                  #  PROGRAM DESCRIPTION:          D. KEENE        5/24/67
000335:                                                                                                  #  MOD 1 BY CRAIG WORK, 12 DEC 67
000336:                                                                                                  #  MOD 2 BY CRAIG WORK, 6 APRIL 68, CONVERTS ATTITUDE ERROR DISPLAY SCALING FROM 16 7/8 DEG. TO 42 3/16 DEGREES.
000337:
000338:                                                                                                  #  THIS SUBROUTINE IS USED TO DISPLAY ATTITUDE ERRORS ON THE FDAI VIA THE DIGITAL TO ANALOG CONVERTERS (DACS)
000339:                                                                                                  #  IN THE CDUS.  CARE IS TAKEN TO METER OUT THE APPROPRIATE NUMBER OF PULSES TO THE IMU ERROR COUNTERS AND PREVENT
000340:                                                                                                  #  OVERFLOW, TO CONTROL THE RELAY SEQUENCING, AND TO AVOID INTERFERENCE WITH THE COARSE ALIGN LOOP WHICH ALSO USES
000341:                                                                                                  #  THE DACS.
000342:
000343:                                                                                                  #  CALLING SEQUENCE:
000344:                                                                                                  #        DURING THE INITIALIZATION SECTION OF THE USER'S PROGRAM, BIT3 OF RCSFLAGS SHOULD BE SET TO INITIATE THE
000345:                                                                                                  #        TURN-ON SEQUENCE WITHIN THE NEEDLES PROGRAM:
000346:                                                                                                  #                CS      RCSFLAGS        # IN EBANK6
000347:                                                                                                  #                MASK    BIT3
000348:                                                                                                  #                ADS     RCSFLAGS
000349:                                                                                                  #        THEREAFTER, THE ATTITUDE ERRORS GENERATED BY THE USER SHOULD BE TRANSFERRED TO THE FOLLOWING LOCATIONS IN EBANK6:
000350:                                                                                                  #                AK      SCALED 180 DEGREES      NOTE:   THESE LOCATIONS ARE SUBJECT
000351:                                                                                                  #                AK1     SCALED 180 DEGREES              TO CHANGE
000352:                                                                                                  #                AK2     SCALED 180 DEGREES
000353:                                                                                                  #        FULL SCALED DEFLECTION OF THE NEEDLES CORRESPONDS TO 5 1/16 DEGREES, WHILE 384 BITS IN THE IMU ERROR COUNTER
000354:                                                                                                  #        CORRESPONDS TO 42 3/16 DEGREES.  (DAC MAXIMUM CAPACITY IS 384 BITS.)  46 BITS EFFECTIVELY PIN THE NEEDLES.
000355:
000356:                                                                                                  #        A CALL TO NEEDLER WILL THE UPDATE THE DISPLAY:
000357:                                                                                                  #                INHINT
000358:                                                                                                  #                TC      IBNKCALL        # NOTE:  EBANK SHOULD BE SET TO E6
000359:                                                                                                  #                CADR    NEEDLER
000360:                                                                                                  #                RELINT
000361:                                                                                                  #        THIS PROCESS SHOULD BE REPEATED EACH TIME THE ERRORS ARE UPDATED.  AT LEAST 3 PASSES THRU THE PROGRAM ARE
000362:                                                                                                  #        REQUIRED BEFORE ANYTHING IS ACTUALLY DISPLAYED ON THE ERROR METERS.
000363:                                                                                                  #        NOTE:  EACH CALL TO NEEDLER MUST BE SEPARATED BY AT LEAST 50 MS. TO ASSURE PROPER RELAY SEQUENCING.
000364:
000365:                                                                                                  #  ERASABLES USED:
000366:                                                                                                  #        AK              CDUXCMD
000367:                                                                                                  #        AK1             CDUYCMD
000368:                                                                                                  #        AK2             CDUZCMD
000369:                                                                                                  #        EDRIVEX         A,L,Q
000370:                                                                                                  #        EDRIVEY         T5TEMP
000371:                                                                                                  #        EDRIVEZ         DINDX
000372:                                                                                                  #  Page 1418
000373:
000374:                                                                                                  #  SWITCHES:             RCSFLAGS  BITS 3,2
000375:
000376:                                                                                                  #  I/O CHANNELS:         CHAN12  BIT 4 (COARSE ALIGN -- READ ONLY)
000377:                                                                                                  #                        CHAN12  BIT 6 (IMU ERROR COUNTER ENABLE)
000378:                                                                                                  #                        CHAN14  BIT 13,14,15 (DAC ACTIVITY)
000379:
000380:                                                                                                  #  SIGN CONVENTION:      AK = THETAC - THETA
000381:                                                                                                  #                        WHERE   THETAC = COMMAND ANGLE
000382:                                                                                                  #                                THETA = PRESENT ANGLE
000383:
000384: 20,2322           31273        NEEDLER            CA       RCSFLAGS
000385: 20,2323           76242                           MASK     SIX
000386: 20,2324           00006                           EXTEND
000387: 20,2325           12362                           BZF      NEEDLES3
000388: 20,2326           74751                           MASK     BIT3
000389: 20,2327           00006                           EXTEND
000390: 20,2330           12353                           BZF      NEEDLER2                              #  BIT3 = 0, BIT2 = 1
000391:
000392: 20,2331           44746                           CS       BIT6                                  #  FIRST PASS BIT3 = 1
000393: 20,2332           00006                           EXTEND                                         #  DISABLE IMU ERROR COUNTER TO ZERO DACS
000394: 20,2333           03012                           WAND     CHAN12                                #  MUST WAIT AT LEAST 60 MS BEFORE
000395: 20,2334           44755        NEEDLE11           CS       ZERO                                  #  ENABLING COUNTERS.
000396: 20,2335           55761                           TS       AK                                    #  ZERO THE INPUTS ON FIRST PASS
000397: 20,2336           55762                           TS       AK1
000398: 20,2337           55763                           TS       AK2
000399: 20,2340           55764                           TS       EDRIVEX                               #  ZERO THE DISPLAY REGISTERS
000400: 20,2341           55765                           TS       EDRIVEY
000401: 20,2342           55766                           TS       EDRIVEZ
000402: 20,2343           54050                           TS       CDUXCMD                               #  ZERO THE OUT COUNTERS
000403: 20,2344           54051                           TS       CDUYCMD
000404: 20,2345           54052                           TS       CDUZCMD
000405: 20,2346           46242                           CS       SIX                                   #  RESET RCSFLAGS FOR PASS2
000406: 20,2347           71273                           MASK     RCSFLAGS
000407: 20,2350           64752                           AD       BIT2
000408: 20,2351           55273                           TS       RCSFLAGS
000409: 20,2352           12442                           TCF      RETNMORE
000410:
000411: 20,2353           34746        NEEDLER2           CAF      BIT6                                  #  ENABLE IMU ERROR COUNTERS
000412: 20,2354           00006                           EXTEND
000413: 20,2355           05012                           WOR      CHAN12
000414: 20,2356           46242                           CS       SIX                                   #  RESET RCSFLAGS TO DISPLAY ATTITUDE
000415: 20,2357           71273                           MASK     RCSFLAGS                              #  ERRORS.  WAIT AT LEAST 4 MS FOR
000416: 20,2360           55273                           TS       RCSFLAGS                              #  RELAY CLOSURE.
000417: 20,2361           12442                           TCF      RETNMORE
000418:
000419: 20,2362           34746        NEEDLES3           CAF      BIT6                                  #  CHECK TO SEE IF IMU ERROR COUNTER
000420: 20,2363           00006                           EXTEND                                         #  IS ENABLED
000421: 20,2364           02012                           RAND     CHAN12
000422:                                                                                                  #  Page 1419
000423: 20,2365           10000                           CCS      A                                     #  IF NOT, RE-INITIALIZE NEEDLER.
000424: 20,2366           12373                           TCF      NEEDLES
000425:
000426: 20,2367           41273                           CS       RCSFLAGS                              #  SET UP INITIALIZATION FLAG IN RCSFLAGS.
000427: 20,2370           74751                           MASK     BIT3
000428: 20,2371           27273                           ADS      RCSFLAGS
000429: 20,2372           12442                           TCF      RETNMORE
000430:
000431: 20,2373           34752        NEEDLES            CAF      TWO
000432: 20,2374           54063        DACLOOP            TS       DINDX
000433: 20,2375           42434                           CS       ONETENTH                              #  RESCALE INPUTS TO + OR - 1800 DEGREES.
000434: 20,2376           00006                           EXTEND
000435: 20,2377           50063                           INDEX    DINDX
000436: 20,2400           71761                           MP       AK
000437: 20,2401           54001                           TS       L
000438: 20,2402           10000                           CCS      A
000439: 20,2403           32432                           CA       DACLIMIT
000440: 20,2404           12406                           TCF      +2
000441: 20,2405           42432                           CS       DACLIMIT
000442: 20,2406           60001                           AD       L
000443: 20,2407           54061                           TS       T5TEMP                                #  OVFLO CHK
000444: 20,2410           12414                           TCF      +4
000445: 20,2411           50000                           INDEX    A                                     #  ON OVERFLOW LIMIT OUTPUT TO +-384
000446: 20,2412           32432                           CAF      DACLIMIT
000447: 20,2413           54001                           TS       L
000448: 20,2414           50063                           INDEX    DINDX
000449: 20,2415           41764                           CS       EDRIVEX                               #  CURRENT VALUE OF DAC
000450: 20,2416           60001                           AD       L
000451: 20,2417           50063                           INDEX    DINDX
000452: 20,2420           26050                           ADS      CDUXCMD
000453: 20,2421           50063                           INDEX    DINDX
000454: 20,2422           23764                           LXCH     EDRIVEX
000455: 20,2423           10063                           CCS      DINDX
000456: 20,2424           12374                           TCF      DACLOOP
000457: 20,2425           37740                           CAF      13,14,15
000458: 20,2426           00006                           EXTEND
000459: 20,2427           05014                           WOR      CHAN14                                #  SET DAC ACTIVITY BITS
000460: 20,2430           12442                           TCF      RETNMORE
000461:
000462: 20,2431           77177                           DEC      -384       B-14
000463: 20,2432           37200        DACLIMIT           DEC      16000      B-14
000464: 20,2433           00600                           DEC      384        B-14
000465:
000466: 20,2434           03146        ONETENTH           OCT      03146                                 #  DECIMAL +0.1, SCALED AT 1.
000467: 20,2435     4750               DSPLYALT           EQUALS   BIT4                                  #  100 MS ALTERNATION BIT IN RCSFLAGS
000468:
000469: 20,2435           54007        OVERSUB2           TS       7                                     #  RETURNS A UNCHANGED OR LIMITED TO
000470: 20,2436           00002                           TC       Q                                     #  POSMAX OR NEGMAX IF A HAS OVERFLOW
000471: 20,2437           50000                           INDEX    A
000472:                                                                                                  #  Page 1420
000473: 20,2440           44734                           CS       LIMITS                                #  DUPLICATE CODING IN BANK 16
000474: 20,2441           00002                           TC       Q
000475:
000476: 20,2442           00006        RETNMORE           EXTEND                                         #  RETURN TO CHEKMORE
000477: 20,2443           32446                           DCA      MORECADR
000478: 20,2444           52006                           DTCB
000479:
000480: 20,2445  E6,1537                                  EBANK=   AOSQ
000481: 20,2445           02016 34106  MORECADR           2CADR    CHEKMORE
000482:

End of include-file DAPIDLER_PROGRAM.agc.  Parent file is MAIN.agc


