
Source Code


000002:                                                                                                  ## Copyright:   Public domain.
000003:                                                                                                  ## Filename:    DAPIDLER_PROGRAM.agc
000004:                                                                                                  ## Purpose:     Part of the source code for Luminary 1A build 099.
000005:                                                                                                  ##              It is part of the source code for the Lunar Module's (LM)
000006:                                                                                                  ##              Apollo Guidance Computer (AGC), for Apollo 11.
000007:                                                                                                  ## Assembler:   yaYUL
000008:                                                                                                  ## Contact:     Ron Burkey <info@sandroid.org>.
000009:                                                                                                  ## Website:     www.ibiblio.org/apollo.
000010:                                                                                                  ## Pages:       1410-1420
000011:                                                                                                  ## Mod history:  2009-05-10 SN  (Sergio Navarro).  Started adapting
000012:                                                                                                  ##                              from the Luminary131/ file of the same
000013:                                                                                                  ##                              name, using Luminary099 page images.
000014:                                                                                                  ##              2016-12-18 RSB  Proofed text comments with octopus/ProoferComments
000015:                                                                                                  ##                              and corrected the errors found.
000016:                                                                                                  ##
000017:                                                                                                  ## This source code has been transcribed or otherwise adapted from
000018:                                                                                                  ## digitized images of a hardcopy from the MIT Museum.  The digitization
000019:                                                                                                  ## was performed by Paul Fjeld, and arranged for by Deborah Douglas of
000020:                                                                                                  ## the Museum.  Many thanks to both.  The images (with suitable reduction
000021:                                                                                                  ## in storage size and consequent reduction in image quality as well) are
000022:                                                                                                  ## available online at www.ibiblio.org/apollo.  If for some reason you
000023:                                                                                                  ## find that the images are illegible, contact me at info@sandroid.org
000024:                                                                                                  ## about getting access to the (much) higher-quality images which Paul
000025:                                                                                                  ## actually created.
000026:                                                                                                  ##
000027:                                                                                                  ## Notations on the hardcopy document read, in part:
000028:                                                                                                  ##
000029:                                                                                                  ##      Assemble revision 001 of AGC program LMY99 by NASA 2021112-61
000030:                                                                                                  ##      16:27 JULY 14, 1969
000031:


000033:                                                                                                  #  THE DAPIDLER PROGRAM IS STARTED BY FRESH START AND RESTART.  THE DAPIDLER PROGRAM IS DONE 10 TIMES
000034:                                                                                                  #  PER SECOND UNTIL THE ASTRONAUT DESIRES THE DAP TO WAKE UP, AND THE IMU AND CDUS ARE READY FOR USE BY THE DAP.
000035:                                                                                                  #  THE NECESSARY INITIALIZATION OF THE DAP IS DONE BY THE DAPIDLER PROGRAM.
000036:
000037: 16,2000                                           BANK     16
000038: 16,2000                                           SETLOC   DAPS1
000039: 16,2000                                           BANK
000040:
000041: 16,2000  E6,1537                                  EBANK=   AOSQ
000042:
000043: 16,2000                                           COUNT*   $$/DAPID
000044:
000045: 16,2000           00006        CHEKBITS           EXTEND
000046: 16,2001           00031                           READ     CHAN31                                #  IF BOTH BIT13 AND BIT14 ARE ONE, THEN
000047: 16,2002           40000                           COM                                            #  THE MODE SELECT SWITCH IS IN THE OFF
000048: 16,2003           74355                           MASK     BIT13-14                              #  POSITION, AND SO THE DAP SHOULD BE OFF,
000049: 16,2004           00006                           EXTEND                                         #  WITH NO ATTITUDE ERROR DISPLAY.
000050: 16,2005           12157                           BZF      MOREIDLE
000051:
000052: 16,2006           41303                           CS       IMODES33
000053: 16,2007           74746                           MASK     BIT6
000054: 16,2010           10000                           CCS      A
000055: 16,2011           12206                           TCF      JUMPDSP
000056: 16,2012           41273                           CS       RCSFLAGS                              #  IMU NOT USABLE.  SET UP INITIALIZATION
000057: 16,2013           74751                           MASK     BIT3                                  #  FLAG FOR ATT ERROR DISPLAY ROUTINE.
000058: 16,2014           27273                           ADS      RCSFLAGS
000059: 16,2015           12163                           TCF      SHUTDOWN
000060:
000061: 16,2016           34742        CHEKMORE           CAF      BIT10                                 #  BIT 10 OF 30 IS PGNCS CONTROL OF S/C
000062: 16,2017           00006                           EXTEND
000063: 16,2020           02030                           RAND     CHAN30                                #  BITS IN 30 ARE INVERTED
000064: 16,2021           10000                           CCS      A
000065: 16,2022           12157                           TCF      MOREIDLE
000066:
000067: 16,2023           00002                           RETURN
000068:


000070:                                                                                                  #  DAPIDLER ENTRY.
000071:
000072: 16,2024           22016        DAPIDLER           LXCH     BANKRUPT                              #  INTERRUPT LEAD INS (CONTINUED)
000073: 16,2025           00006                           EXTEND
000074: 16,2026           22012                           QXCH     QRUPT
000075:
000076: 16,2027           31273                           CA       RCSFLAGS
000077: 16,2030           74737                           MASK     BIT13
000078: 16,2031           10000                           CCS      A                                     #  CHECK IF 1/ACCJOB HAS BEEN SET UP SINCE
000079: 16,2032           12041                           TCF      CHECKUP                               #  THE LAST FRESH START OR RESTART.
000080: 16,2033           34737                           CA       BIT13
000081: 16,2034           27273                           ADS      RCSFLAGS                              #  BIT 13 IS 1.
000082: 16,2035           37715                           CAF      PRIO27
000083: 16,2036           05072                           TC       NOVAC                                 #  SET UP JOB TO DO A LITTLE INITIALIZATION
000084: 16,2037  E6,1537                                  EBANK=   AOSQ                                  #        AND EXECUTE 1/ACCS.
000085: 16,2037           02447 40106                     2CADR    1/ACCSET                              #  (WILL BRANCH TO MOREIDLE ON ACCSOKAY)
000086:
000087: 16,2041           02000        CHECKUP            TC       CHEKBITS                              #  CHECK TO SEE IF LM DAP IS TO GO ON AND
000088:                                                                                                  #        DO ERROR DISPLAY.
000089:
000090: 16,2042           30111                           CAE      DAPBOOLS                              #  IF 1/ACCS HAS NOT BEEN COMPLETED, IDLE.
000091: 16,2043           74751                           MASK     ACCSOKAY                              #        NOTE:   ONLY FRESH START AND RESTART
000092: 16,2044           00006                           EXTEND                                         #                KNOCK THIS BIT DOWN.
000093: 16,2045           12157                           BZF      MOREIDLE
000094:
000095: 16,2046           04674        STARTDAP           TC       IBNKCALL                              #  ZERO ATTITUDE ERROR AND DESIRED RATES.
000096: 16,2047           40153                           FCADR    ZATTEROR
000097: 16,2050           34755                           CAF      ZERO                                  #  ********** INITIALIZE: **********
000098: 16,2051           55524                           TS       TJP
000099: 16,2052           55525                           TS       TJU
000100: 16,2053           55526                           TS       TJV
000101: 16,2054           55421                           TS       OMEGAP                                #  RATES IN BODY (PILOT) COORDINATES.
000102: 16,2055           55422                           TS       OMEGAQ
000103: 16,2056           55423                           TS       OMEGAR
000104: 16,2057           55430                           TS       TRAPEDP
000105: 16,2060           55431                           TS       TRAPEDQ
000106: 16,2061           55432                           TS       TRAPEDR
000107: 16,2062           55537                           TS       AOSQ                                  #  OFFSET ACCELERATION ESTIMATES.
000108: 16,2063           55540                           TS       AOSQ       +1
000109: 16,2064           55541                           TS       AOSR
000110: 16,2065           55542                           TS       AOSR       +1
000111: 16,2066           55424                           TS       ALPHAQ                                #  COPIES OF OFFSET ESTIMATES FOR DOWNLIST.
000112: 16,2067           55425                           TS       ALPHAR
000113: 16,2070           55501                           TS       NEGUQ
000114: 16,2071           55503                           TS       NEGUR
000115: 16,2072           55545                           TS       AOSQTERM                              #  QRAXIS RATE DERIVATION TERMS AND KALMAN
000116: 16,2073           55546                           TS       AOSRTERM                              #  FILTER INITIALIZATION TERMS.
000117: 16,2074           55510                           TS       QACCDOT                               #  DESCENT ACCELERATION DERIVATIVE EST.
000118: 16,2075           55512                           TS       RACCDOT


000120: 16,2076           55502                           TS       ALLOWGTS                              #  AOSTASK FLAG FOR QRAXIS RCS CONTROL USE.
000121: 16,2077           55631                           TS       COTROLER                              #  DO TRYGTS ON FIRST PASS (WILL GO TO RCS)
000122: 16,2100           55633                           TS       INGTS                                 #  RECOGNIZE FIRST GTS PASS AS SUCH.
000123: 16,2101           55632                           TS       QGIMTIMR                              #  STOP GIMBAL DRIVES.  (PROBABLY WOULD BE
000124: 16,2102           55634                           TS       RGIMTIMR                              #        GOOD ENOUGH JUST TO INACTIVATE TIMERS)
000125: 16,2103           55460                           TS       OLDPMIN                               #  MINIMUM IMPULSE MODE ERASABLES
000126: 16,2104           55461                           TS       OLDQRMIN
000127: 16,2105           55767                           TS       PJETCTR                               #  INITIALIZE DOCKED JET INHIBITION
000128: 16,2106           55770                           TS       UJETCTR                               #  COUNTERS
000129: 16,2107           55771                           TS       VJETCTR
000130: 16,2110     4747               CALLGMBL           EQUALS   BIT5                                  #  RCSFLAGS INITIALIZATION.
000131: 16,2110           42202                           CS       MANFLAG
000132: 16,2111           71273                           MASK     RCSFLAGS                              #  NEGUQ(R) HAVE BEEN GENERATED.
000133: 16,2112           55273                           TS       RCSFLAGS
000134:
000135:                                                                                                  #  SET UP "OLD" MEASURED CDU ANGLES:
000136:
000137: 16,2113           00006                           EXTEND
000138: 16,2114           30033                           DCA      CDUX                                  #  OLDXFORP AND OLDYFORP
000139: 16,2115           53441                           DXCH     OLDXFORP
000140: 16,2116           30034                           CA       CDUZ
000141: 16,2117           55442                           TS       OLDZFORQ
000142: 16,2120           41273                           CS       RCSFLAGS
000143: 16,2121           74740                           MASK     BIT12
000144: 16,2122           27273                           ADS      RCSFLAGS                              #  BIT 12 SET TO 1.
000145: 16,2123           34751                           CA       FOUR
000146: 16,2124           55535                           TS       SKIPU
000147: 16,2125           55536                           TS       SKIPV
000148: 16,2126           34733                           CA       POSMAX
000149: 16,2127           54031                           TS       TIME6
000150: 16,2130           55466                           TS       T6NEXT
000151: 16,2131           55470                           TS       T6FURTHA
000152: 16,2132           34755                           CA       ZERO
000153: 16,2133           55467                           TS       T6NEXT     +1
000154: 16,2134           55471                           TS       T6FURTHA   +1
000155: 16,2135           55465                           TS       NXT6ADR
000156: 16,2136           55472                           TS       NEXTP
000157: 16,2137           55473                           TS       NEXTU
000158: 16,2140           55474                           TS       NEXTV
000159: 16,2141           44363                           CS       TEN
000160: 16,2142           55757                           TS       DAPZRUPT                              #  JASK NOT IN PROGRESS, INITIALIZE NEG.
000161: 16,2143           34752                           CA       TWO
000162: 16,2144           55433                           TS       NPTRAPS
000163: 16,2145           55434                           TS       NQTRAPS
000164: 16,2146           55435                           TS       NRTRAPS
000165: 16,2147           00006                           EXTEND
000166: 16,2150           32205                           DCA      PAXADIDL
000167: 16,2151           53275                           DXCH     T5ADR
000168: 16,2152           37727        SETTIME5           CAF      MS100
000169: 16,2153           54030                           TS       TIME5


000171: 16,2154           15270                           TCF      RESUME
000172: 16,2155  E6,1537                                  EBANK=   AOSQ
000173: 16,2155           02024 34106  IDLERADR           2CADR    DAPIDLER
000174:
000175: 16,2157           04674        MOREIDLE           TC       IBNKCALL                              #  CALCULATE Q,R-AXES ATTITUDE ERRORS.
000176: 16,2160           36626                           CADR     QERRCALC
000177:
000178: 16,2161           04674                           TC       IBNKCALL
000179: 16,2162           35446                           CADR     CALCPERR                              #  CALCULATE P AXIS ATTITUDE ERRORS.
000180:
000181: 16,2163           00006        SHUTDOWN           EXTEND
000182: 16,2164           32156                           DCA      IDLERADR
000183: 16,2165           53275                           DXCH     T5ADR
000184:
000185: 16,2166           34755                           CAF      ZERO                                  #  KILL ANY POSSIBLE JET REQUESTS
000186: 16,2167           55472                           TS       NEXTP
000187: 16,2170           55473                           TS       NEXTU
000188: 16,2171           55474                           TS       NEXTV
000189: 16,2172           00006                           EXTEND                                         #  COMMAND JETS OFF.
000190: 16,2173           01005                           WRITE    CHAN5
000191: 16,2174           00006                           EXTEND
000192: 16,2175           01006                           WRITE    CHAN6
000193: 16,2176           42203                           CS       BGIM23                                #  TURN TRIM GIMBAL OFF
000194: 16,2177           00006                           EXTEND
000195: 16,2200           03012                           WAND     CHAN12
000196: 16,2201           12152                           TCF      SETTIME5                              #  RETURN IN 100 MSEC.
000197:
000198: 16,2202           03021        MANFLAG            OCT      03021
000199: 16,2203           07400        BGIM23             OCTAL    07400
000200: 16,2204  E6,1421                                  EBANK=   OMEGAP
000201: 16,2204           02213 34106  PAXADIDL           2CADR    PAXIS
000202:
000203: 16,2206     7727               MS100              =        OCT37766
000204: 16,2206     0061               COSMG              =        ITEMP1
000205: 16,2206           00006        JUMPDSP            EXTEND                                         #  TRANSFER TO BANK 20
000206: 16,2207           32212                           DCA      DSPCADR                               #  FOR ATTITUDE ERROR DISPLAYS
000207: 16,2210           52006                           DTCB
000208:
000209: 16,2211  E6,1761                                  EBANK=   AK
000210: 16,2211           02226 40106  DSPCADR            2CADR    ALTDSPLY
000211:


000213: 20,2226                                           BANK     20
000214: 20,2000                                           SETLOC   DAPS3
000215: 20,2000                                           BANK
000216: 20,2226                                           COUNT*   $$/NEEDL
000217:
000218:                                                                                                  #  PROGRAM:      ALTDSPLY
000219:                                                                                                  #  MOD 0.        6 DEC 1967
000220:                                                                                                  #  AUTHOR:       CRAIG WORK, DON KEENE, MIT IL
000221:                                                                                                  #  MOD 3 BY DON KEENE AUG 1, 1968 MOVED PROGRAM TO BANK 20
000222:
000223:                                                                                                  #  PROGRAM DESCRIPTION:
000224:                                                                                                  #        ALTDSPLY REVERSES THE DSPLYALT BIT OF RCSFLAGS EACH TIME IT IS CALLED, WHICH IS PRESUMABLY EVERY 100 MS.
000225:                                                                                                  #        IF THE REVERSED BIT IS ONE, NEEDLER IS CALLED TO DISPLAY ATTITUDE ERRORS.  IF THE BIT IS ZERO, THE ATTITUDE ERR-
000226:                                                                                                  #        ORS ARE CALCULATED AS 1) DAP FOLLOWING ERRORS, IF NEEDLFLG = 0, AND 2) TOTAL ATTITUDE ERRORS FOR NEEDLFLG = 1.
000227:
000228:
000229:                                                                                                  #  WARNING:      ALTDSPLY MAY ONLY BE CALLED WITH INTERRUPT INHIBITED.
000230:
000231:                                                                                                  #  WARNING:      EBANK MUST BE SET TO 6 WHEN USING THIS ROUTINE.
000232:
000233:                                                                                                  #  INPUT:        RCSFLAGS AND    1) IF NEEDLFLG = 0, INPUT PERROR, QERROR, RERROR.
000234:                                                                                                  #                                2) IF NEEDLFLG = 1, INPUT CPHI,CTHETA,CPSI,CDUX,CDUY,CDUZ,M11,M21,M32,M22,M32.  (GPMATRIX)
000235:
000236:
000237:                                                                                                  #  OUTPUTS:      RCSFLAGS WITH DSPLYALT REVERSED, AK, AK1, AK2, + NEEDLER OUTPUTS.
000238:
000239:                                                                                                  #  ENTRY:        TCF     ALTDSPLY
000240:
000241:                                                                                                  #  EXIT:         TCF     CHEKMORE
000242:
000243:                                                                                                  #  ALARM OR ABORT EXITS: NONE
000244:
000245:                                                                                                  #  SUBPROGRAMS CALLED:  NEEDLER, OVERSUB2
000246:
000247:                                                                                                  #  DEBRIS:       A, L, AND NEEDLER DEBRIS.
000248:
000249: 20,2226           31273        ALTDSPLY           CA       RCSFLAGS                              #  INVERT THE DISPLAY ALTERNATION BIT.
000250: 20,2227           54001                           TS       L
000251: 20,2230           34750                           CA       DSPLYALT
000252: 20,2231           00006                           EXTEND
000253: 20,2232           06001                           RXOR     LCHAN
000254: 20,2233           55273                           TS       RCSFLAGS
000255:
000256: 20,2234           74750                           MASK     DSPLYALT
000257: 20,2235           10000                           CCS      A                                     #  IS ALTERNATION FLAG ZERO?
000258: 20,2236           12322                           TCF      NEEDLER
000259:
000260: 20,2237           30074                           CAE      FLAGWRD0                              #  NEEDLFLG WILL INDICATE TOTAL OR DAP AT-


000262: 20,2240           74750                           MASK     NEEDLBIT                              #  TITUDE ERROR DISPLAY REQUEST.
000263: 20,2241           10000                           CCS      A
000264: 20,2242           12252                           TCF      DSPLYTOT                              #  TOTAL ERROR IS NEEDED IN AK, AK +1, AK +2
000265:
000266: 20,2243           41450                           CS       QERROR                                #  YES.  DISPLAY ATT ERRORS ON THE ,-BALL.
000267: 20,2244           55762                           TS       AK         +1                         #  ERROR COMPLEMENTS ARE INPUT TO NEEDLER.
000268: 20,2245           41452                           CS       RERROR
000269: 20,2246           55763                           TS       AK         +2
000270: 20,2247           41464                           CS       PERROR
000271: 20,2250           57761                           XCH      AK
000272:
000273: 20,2251           12442                           TCF      RETNMORE                              #  DISPLAY THESE THE NEXT TIME THROUGH
000274:
000275:                                                                                                  #  CALCULATE GIMBAL ANGLE TOTAL ERRORS, RESOLVE INTO PILOT AXES, STORE TOTAL ERRORS FOR NEEDLER.  Q-AXIS FIRST.
000276:
000277: 20,2252           00006        DSPLYTOT           EXTEND
000278: 20,2253           22061                           QXCH     ITEMP1                                #  SAVE Q FOR CHEKBITS RETURN.
000279:
000280: 20,2254           30322                           CA       CTHETA                                #  DESIRED ATTITUDE, Y-AXIS, 2'S COMP.
000281: 20,2255           00006                           EXTEND                                         #  SUBTRACT CURRENT ATTITUDE.
000282: 20,2256           20033                           MSU      CDUY                                  #  DIFFERENCE SCALED AT PI, 1'S COMP.
000283: 20,2257           55761                           TS       AK                                    #  SAVE FOR R-ERROR CALCULATION.
000284: 20,2260           00006                           EXTEND
000285: 20,2261           71415                           MP       M21                                   #  (CHTETA-CDUY)*M21 SCALED AT PI RADIANS.
000286: 20,2262           57762                           XCH      AK         +1                         #  STORE FIRST TERM OF Q ERROR.
000287: 20,2263           30323                           CA       CPSI                                  #  DESIRED ATTITUDE, Z-AXIS, 2'S COMP.
000288: 20,2264           00006                           EXTEND                                         #  SUBTRACT CURRENT ATTITUDE.
000289: 20,2265           20034                           MSU      CDUZ                                  #  DIFFERENCE SCALED AT PI, 1'S COMP.
000290: 20,2266           55763                           TS       AK         +2                         #  SAVE Z-AXIS TERM FOR R ERROR CALCULATION
000291: 20,2267           00006                           EXTEND
000292: 20,2270           71417                           MP       M22                                   #  (CPSI-CDUZ)*M22, SCALED AT PI RADIANS.
000293: 20,2271           61762                           AD       AK         +1                         #  Q ERROR COMPLETE         , AT PI RAD.
000294: 20,2272           02435                           TC       OVERSUB2                              #  PIN NEEDLES IN CASE OF OVERFLOW.
000295: 20,2273           55762                           TS       AK         +1
000296:
000297:                                                                                                  #  R ERROR CALCULATION NEXT.
000298:
000299: 20,2274           31761                           CA       AK                                    #  Y-AXIS DIFFERENCE STORED BY Q-AXIS CALC.
000300: 20,2275           00006                           EXTEND
000301: 20,2276           71416                           MP       M31                                   #  (CTHETA-CDUY)*M31, SCALED AT PI RADIANS.
000302: 20,2277           57763                           XCH      AK         +2                         #  FIRST TERM OF R ERROR.
000303:                                                                                                  #  Z-AXIS DIFFERENCE, STORED BY A CALC. IS
000304: 20,2300           00006                           EXTEND                                         #  RECOVERED BY THE EXCHANGE.
000305: 20,2301           71420                           MP       M32                                   #  (CPSI-CDUZ)*M32, SCALED AT PI RADIANS.
000306: 20,2302           61763                           AD       AK         +2                         #  R ERROR COMPLETE         , AT PI RAD.
000307: 20,2303           02435                           TC       OVERSUB2                              #  PIN NEEDLES IN CASE OF OVERFLOW.
000308: 20,2304           55763                           TS       AK         +2
000309:
000310:                                                                                                  #  NOW CALCULATE P ERROR.  (NOTE THAT M13 = 1, SCALED AT 1, SO THE MULTIPLICATION IS BY-PASSED.)


000312: 20,2305           31761                           CA       AK                                    #  Y-AXIS DIFFERENCE STORED BY Q AXIS CALC.
000313: 20,2306           00006                           EXTEND
000314: 20,2307           71414                           MP       M11                                   #  (CTHETA-CDUY)*M11 SCALED AT PI RADIANS.
000315: 20,2310           57761                           XCH      AK                                    #  FIRST TERM OF P ERROR IN AK, AT PI RAD.
000316: 20,2311           30321                           CAE      CPHI                                  #  DESIRED ATTITUDE, X-AXIS, 2'S COMP.
000317: 20,2312           00006                           EXTEND                                         #  SUBTRACT CURRENT X ATTITUDE.
000318: 20,2313           20032                           MSU      CDUX                                  #  X-AXIS DIFFERENCE, 1'S COMP, AT PI RAD.
000319:
000320:                                                                                                  #  M13 = 1, SO BYPASS THE MULTIPLICATION.
000321:                                                                                                  #                EXTEND
000322:                                                                                                  #                MP      M13             (CPHI-CDUX)*M13 SCALED AT PI RADIANS.
000323:
000324: 20,2314           61761                           AD       AK                                    #  P ERROR COMPLETE      , SCALED AT PI RAD
000325: 20,2315           02435                           TC       OVERSUB2                              #  PIN NEEDLES IN CASE OF OVERFLOW.
000326: 20,2316           55761                           TS       AK
000327:
000328: 20,2317           00006                           EXTEND
000329: 20,2320           22061                           QXCH     ITEMP1                                #  RESTORE Q FOR CHEKBITS RETURN.
000330:
000331: 20,2321           12442                           TCF      RETNMORE                              #  DISPLAY THESE THE NEXT TIME THROUGH
000332:


000334:                                                                                                  #  FDAI ATTITUDE ERROR DISPLAY SUBROUTINE
000335:
000336:                                                                                                  #  PROGRAM DESCRIPTION:          D. KEENE        5/24/67
000337:                                                                                                  #  MOD 1 BY CRAIG WORK, 12 DEC 67
000338:                                                                                                  #  MOD 2 BY CRAIG WORK, 6 APRIL 68 CONVERTS ATTITUDE ERROR DISPLAY SCALING FROM 16 7/8 DEG. TO 42 3/16 DEGREES.
000339:
000340:                                                                                                  #  THIS SUBROUTINE IS USED TO DISPLAY ATTITUDE ERRORS ON THE FDAI VIA THE DIGITAL TO ANALOG CONVERTERS (DACS)
000341:                                                                                                  #  IN THE CDUS.  CARE IS TAKEN TO METER OUT THE APPROPRIATE NUMBER OF PULSES TO THE IMU ERROR COUNTERS AND PREVENT
000342:                                                                                                  #  OVERFLOW, TO CONTROL THE RELAY SEQUENCING, AND TO AVOID INTERFERENCE WITH THE COARSE ALIGN LOOP WHICH ALSO USES
000343:                                                                                                  #  THE DACS.
000344:
000345:                                                                                                  #  CALLING SEQUENCE:
000346:                                                                                                  #        DURING THE INITIALIZATION SECTION OF THE USER'S PROGRAM, BIT3 OF RCSFLAGS SHOULD BE SET TO INITIATE THE
000347:                                                                                                  #        TURN-ON SEQUENCE WITHIN THE NEEDLES PROGRAM:
000348:                                                                                                  #                CS      RCSFLAGS        IN EBANK6
000349:                                                                                                  #                MASK    BIT3
000350:                                                                                                  #                ADS     RCSFLAGS
000351:                                                                                                  #        THEREAFTER, THE ATTITUDE ERRORS GENERATED BY THE USER SHOULD BE TRANSFERED TO THE FOLLOWING LOCATIONS IN EBANK6:
000352:                                                                                                  #                AK      SCALED 180 DEGREES      NOTE:   THESE LOCATIONS ARE SUBJECT
000353:                                                                                                  #                AK1     SCALED 180 DEGREES              TO CHANGE
000354:                                                                                                  #                AK2     SCALED 180 DEGREES
000355:                                                                                                  #        FULL SCALED DEFLECTION OF THE NEEDLES CORRESPONDS TO 5 1/16 DEGREES, WHILE 384 BITS IN THE IMU ERROR COUNTER
000356:                                                                                                  #        CORRESPONDS TO 42 3/16 DEGREES.  (DAC MAXIMUM CAPACITY IS 384 BITS.)  46 BITS EFFECTIVELY PIN THE NEEDLES.
000357:
000358:                                                                                                  #        A CALL TO NEEDLER WILL THEN UPDATE THE DISPLAY:
000359:                                                                                                  #                INHINT
000360:                                                                                                  #                TC      IBNKCALL        NOTE:  EBANK SHOULD BE SET TO E6
000361:                                                                                                  #                CADR    NEEDLER
000362:                                                                                                  #                RELINT
000363:                                                                                                  #        THIS PROCESS SHOULD BE REPEATED EACH TIME THE ERRORS ARE UPDATED.  AT LEAST 3 PASSES THRU THE PROGRAM ARE
000364:                                                                                                  #        REQUIRED BEFORE ANYTHING IS ACTUALLY DISPLAYED ON THE ERROR METERS.
000365:                                                                                                  #        NOTE:  EACH CALL TO NEEDLER MUST BE SEPARATED BY AT LEAST 50 MS TO ASSURE PROPER RELAY SEQUENCING.
000366:
000367:                                                                                                  #  ERASABLE USED:
000368:                                                                                                  #        AK              CDUXCMD
000369:                                                                                                  #        AK1             CDUYCMD
000370:                                                                                                  #        AK2             CDUZCMD
000371:                                                                                                  #        EDRIVEX         A,L,Q
000372:                                                                                                  #        EDRIVEY         T5TEMP
000373:                                                                                                  #        EDRIVEZ         DINDX


000375:
000376:                                                                                                  #  SWITCHES:             RCSFLAGS  BITS 3,2
000377:
000378:                                                                                                  #  I/O CHANNELS:         CHAN12  BIT 4 (COARSE ALIGN - READ ONLY)
000379:                                                                                                  #                        CHAN12  BIT 6 (IMU ERROR COUNTER ENABLE)
000380:                                                                                                  #                        CHAN14  BIT 13,14,15 (DAC ACTIVITY)
000381:
000382:                                                                                                  #  SIGN CONVENTION:      AK = THETAC - THETA
000383:                                                                                                  #                        WHERE   THETAC = COMMAND ANGLE
000384:                                                                                                  #                                THETA = PRESENT ANGLE
000385:
000386: 20,2322           31273        NEEDLER            CA       RCSFLAGS
000387: 20,2323           76242                           MASK     SIX
000388: 20,2324           00006                           EXTEND
000389: 20,2325           12362                           BZF      NEEDLES3
000390: 20,2326           74751                           MASK     BIT3
000391: 20,2327           00006                           EXTEND
000392: 20,2330           12353                           BZF      NEEDLER2                              #  BIT3 = 0, BIT2 = 1
000393:
000394: 20,2331           44746                           CS       BIT6                                  #  FIRST PASS BIT3 = 1
000395: 20,2332           00006                           EXTEND                                         #  DISABLE IMU ERROR COUNTER TO ZERO DACS
000396: 20,2333           03012                           WAND     CHAN12                                #  MUST WAIT AT LEAST 60 MS BEFORE
000397: 20,2334           44755        NEEDLE11           CS       ZERO                                  #  ENABLING COUNTERS.
000398: 20,2335           55761                           TS       AK                                    #  ZERO THE INPUTS ON FIRST PASS
000399: 20,2336           55762                           TS       AK1
000400: 20,2337           55763                           TS       AK2
000401: 20,2340           55764                           TS       EDRIVEX                               #  ZERO THE DISPLAY REGISTERS
000402: 20,2341           55765                           TS       EDRIVEY
000403: 20,2342           55766                           TS       EDRIVEZ
000404: 20,2343           54050                           TS       CDUXCMD                               #  ZERO THE OUT COUNTERS
000405: 20,2344           54051                           TS       CDUYCMD
000406: 20,2345           54052                           TS       CDUZCMD
000407: 20,2346           46242                           CS       SIX                                   #  RESET RCSFLAGS FOR PASS2
000408: 20,2347           71273                           MASK     RCSFLAGS
000409: 20,2350           64752                           AD       BIT2
000410: 20,2351           55273                           TS       RCSFLAGS
000411: 20,2352           12442                           TCF      RETNMORE
000412:
000413: 20,2353           34746        NEEDLER2           CAF      BIT6                                  #  ENABLE IMU ERROR COUNTERS
000414: 20,2354           00006                           EXTEND
000415: 20,2355           05012                           WOR      CHAN12
000416: 20,2356           46242                           CS       SIX                                   #  RESET RCSFLAGS TO DISPLAY ATTITUDE
000417: 20,2357           71273                           MASK     RCSFLAGS                              #  ERRORS    WAIT AT LEAST 4 MS FOR
000418: 20,2360           55273                           TS       RCSFLAGS                              #  RELAY CLOSURE
000419: 20,2361           12442                           TCF      RETNMORE
000420:
000421: 20,2362           34746        NEEDLES3           CAF      BIT6                                  #  CHECK TO SEE IF IMU ERROR COUNTER
000422: 20,2363           00006                           EXTEND                                         #  IS ENABLED
000423: 20,2364           02012                           RAND     CHAN12


000425: 20,2365           10000                           CCS      A                                     #  IF NOT, RE-INITIALIZE NEEDLER.
000426: 20,2366           12373                           TCF      NEEDLES
000427:
000428: 20,2367           41273                           CS       RCSFLAGS                              #  SET UP INITIALIZATION FLAG IN RCSFLAGS.
000429: 20,2370           74751                           MASK     BIT3
000430: 20,2371           27273                           ADS      RCSFLAGS
000431: 20,2372           12442                           TCF      RETNMORE
000432:
000433: 20,2373           34752        NEEDLES            CAF      TWO
000434: 20,2374           54063        DACLOOP            TS       DINDX
000435: 20,2375           42434                           CS       ONETENTH                              #  RESCALE INPUTS TO + OR - 1800 DEGREES.
000436: 20,2376           00006                           EXTEND
000437: 20,2377           50063                           INDEX    DINDX
000438: 20,2400           71761                           MP       AK
000439: 20,2401           54001                           TS       L
000440: 20,2402           10000                           CCS      A
000441: 20,2403           32432                           CA       DACLIMIT
000442: 20,2404           12406                           TCF      +2
000443: 20,2405           42432                           CS       DACLIMIT
000444: 20,2406           60001                           AD       L
000445: 20,2407           54061                           TS       T5TEMP                                #  OVFLO CHK
000446: 20,2410           12414                           TCF      +4
000447: 20,2411           50000                           INDEX    A                                     #  ON OVERFLOW LIMIT OUTPUT TO +-384
000448: 20,2412           32432                           CAF      DACLIMIT
000449: 20,2413           54001                           TS       L
000450: 20,2414           50063                           INDEX    DINDX
000451: 20,2415           41764                           CS       EDRIVEX                               #  CURRENT VALUE OF DAC
000452: 20,2416           60001                           AD       L
000453: 20,2417           50063                           INDEX    DINDX
000454: 20,2420           26050                           ADS      CDUXCMD
000455: 20,2421           50063                           INDEX    DINDX
000456: 20,2422           23764                           LXCH     EDRIVEX
000457: 20,2423           10063                           CCS      DINDX
000458: 20,2424           12374                           TCF      DACLOOP
000459: 20,2425           37740                           CAF      13,14,15
000460: 20,2426           00006                           EXTEND
000461: 20,2427           05014                           WOR      CHAN14                                #  SET DAC ACTIVITY BITS
000462: 20,2430           12442                           TCF      RETNMORE
000463:
000464: 20,2431           77177                           DEC      -384       B-14
000465: 20,2432           37200        DACLIMIT           DEC      16000      B-14
000466: 20,2433           00600                           DEC      384        B-14
000467:
000468: 20,2434           03146        ONETENTH           OCT      03146                                 #  DECIMAL +0.1, SCALED AT 1.
000469: 20,2435     4750               DSPLYALT           EQUALS   BIT4                                  #  100 MS ALTERNATION BIT IN RCSFLAGS
000470:
000471: 20,2435           54007        OVERSUB2           TS       7                                     #  RETURNS A UNCHANGED OR LIMITED TO
000472: 20,2436           00002                           TC       Q                                     #  POSMAX OR NEGMAX IF A HAS OVERFLOW
000473: 20,2437           50000                           INDEX    A


000475: 20,2440           44734                           CS       LIMITS                                #  DUPLICATE CODING IN BANK 16
000476: 20,2441           00002                           TC       Q
000477:
000478: 20,2442           00006        RETNMORE           EXTEND                                         #  RETURN TO CHEKMORE
000479: 20,2443           32446                           DCA      MORECADR
000480: 20,2444           52006                           DTCB
000481:
000482: 20,2445  E6,1537                                  EBANK=   AOSQ
000483: 20,2445           02016 34106  MORECADR           2CADR    CHEKMORE
000484:

End of include-file DAPIDLER_PROGRAM.agc.  Parent file is MAIN.agc


