
Source Code


000002:                                                                                                  ## Copyright:   Public domain.
000003:                                                                                                  ## Filename:    DISPLAY_INTERFACE_ROUTINES.agc
000004:                                                                                                  ## Purpose:     Part of the source code for Luminary 1A build 099.
000005:                                                                                                  ##              It is part of the source code for the Lunar Module's (LM)
000006:                                                                                                  ##              Apollo Guidance Computer (AGC), for Apollo 11.
000007:                                                                                                  ## Assembler:   yaYUL
000008:                                                                                                  ## Contact:     Ron Burkey <info@sandroid.org>.
000009:                                                                                                  ## Website:     www.ibiblio.org/apollo.
000010:                                                                                                  ## Pages:       1341-1373
000011:                                                                                                  ## Mod history: 2009-05-27 RSB  Adapted from the corresponding
000012:                                                                                                  ##                              Luminary131 file, using page
000013:                                                                                                  ##                              images from Luminary 1A.
000014:                                                                                                  ##              2011-01-06 JL   Fixed pseudo-label indentation.
000015:                                                                                                  ##              2011-05-08 JL   Removed workaround.
000016:                                                                                                  ##              2016-12-18 RSB  Proofed text comments with octopus/ProoferComments
000017:                                                                                                  ##                              and corrected the errors found.
000018:
000019:                                                                                                  ## This source code has been transcribed or otherwise adapted from
000020:                                                                                                  ## digitized images of a hardcopy from the MIT Museum.  The digitization
000021:                                                                                                  ## was performed by Paul Fjeld, and arranged for by Deborah Douglas of
000022:                                                                                                  ## the Museum.  Many thanks to both.  The images (with suitable reduction
000023:                                                                                                  ## in storage size and consequent reduction in image quality as well) are
000024:                                                                                                  ## available online at www.ibiblio.org/apollo.  If for some reason you
000025:                                                                                                  ## find that the images are illegible, contact me at info@sandroid.org
000026:                                                                                                  ## about getting access to the (much) higher-quality images which Paul
000027:                                                                                                  ## actually created.
000028:                                                                                                  ##
000029:                                                                                                  ## Notations on the hardcopy document read, in part:
000030:                                                                                                  ##
000031:                                                                                                  ##      Assemble revision 001 of AGC program LMY99 by NASA 2021112-61
000032:                                                                                                  ##      16:27 JULY 14, 1969
000033:


000035:                                                                                                  #  DISPLAYS CAN BE CLASSIFIED INTO THE FOLLOWING CATEGORIES -
000036:                                                                                                  #        1.  PRIORITY DISPLAYS - DISPLAYS WHICH TAKE PRIORITY OVER ALL OTHER DISPLAYS.  USUALLY THESE DISPLAYS ARE SENT
000037:                                                                                                  #            OUT UNDER CRITICAL ALARM CONDITIONS.
000038:                                                                                                  #        2.  EXTENDED VERB DISPLAYS - ALL EXTENDED VERBS AND MARK ROUTINES SHOULD USE EXTENDED VERB (MARK) DISPLAYS.
000039:                                                                                                  #        3.  NORMAL DISPLAYS - ALL MISSION PROGRAM DISPLAYS WHICH INTERFACE WITH THE ASTRONAUT DURING THE NORMAL
000040:                                                                                                  #            SEQUENCE OF EVENTS.
000041:                                                                                                  #        4.  MISC. DISPLAYS - ALL DISPLAYS NOT HANDLED BY THE DISPLAY INTERFACE ROUTINES.  THESE INCLUDE SUCH DISPLAYS AS
000042:                                                                                                  #            MM DISPLAYS AND SPECIAL PURPOSE DISPLAYS HANDLED BY PINBALL.
000043:                                                                                                  #        5.  ASTRONAUT INITIATED DISPLAYS - ALL DISPLAYS INITIATED EXTERNALLY.
000044:
000045:                                                                                                  #  THE FOLLOWING TERMS ARE USED TO DESCRIBE THE STATUS OF DISPLAYS -
000046:                                                                                                  #        1.  ACTIVE - THE DISPLAY WHICH IS (1) BEING DISPLAYED TO THE ASTRONAUT AND WAITING FOR A RESPONSE OR
000047:                                                                                                  #            (2) WAITING FIRST IN LINE FOR THE ASTRONAUT TO FINISH USING THE DSKY OR (3) BEING DISPLAYED ON THE DSKY
000048:                                                                                                  #            BUT NOT WAITING FOR A RESPONSE.
000049:                                                                                                  #        2.  INACTIVE - A DISPLAY WHICH HAS (1) BEEN ACTIVE BUT WAS INTERRUPTED BY A DISPLAY OF HIGHER PRIORITY,
000050:                                                                                                  #            (2) BEEN PUT INTO THE WAITING LIST AT TIME IT WAS REQUESTED DUE TO THE FACT A HIGHER PRIORITY DISPLAY
000051:                                                                                                  #            WAS ALREADY GOING, (3) BEEN INTERRUPTED BY THE ASTRONAUT (CALLED A PINBRANCH CONDITION, SINCE THIS TYPE
000052:                                                                                                  #            OF INACTIVE DISPLAY IS USUALLY REACTIVATED ONLY BY PINBALL) OR (4) A DISPLAY WHICH HAS FINISHED BUT STILL
000053:                                                                                                  #            HAS INFO SAVED FOR RESTART PURPOSES.
000054:
000055:                                                                                                  #  DISPLAY PRIORITIES WORK AS FOLLOWS -
000056:                                                                                                  #        INTERRUPTS -
000057:                                                                                                  #                1.  THE ASTRONAUT CAN INTERRUPT ANY DISPLAY WITH AN EXTERNAL DISPLAY REQUEST.
000058:                                                                                                  #                2.  INTERNAL DISPLAYS CAN NOT BE SENT OUT WHEN THE ASTRONAUT IS USING THE DSKY.
000059:                                                                                                  #                3.  PRIORITY DISPLAYS INTERRUPT ALL OTHER TYPES OF INTERNAL DISPLAYS.  A PRIORITY DISPLAY INTERRUPTING ANOTHER
000060:                                                                                                  #                    PRIORITY DISPLAY WILL CAUSE AN ABORT UNLESS BIT14 IS SET FOR THE LINUS ROUTINE.
000061:                                                                                                  #                4.  A MARK DISPLAY INTERRUPTS ANY NORMAL DISPLAY.
000062:                                                                                                  #                5.  A MARK THAT INTERRUPTS A MARK COMPLETELY REPLACES IT.
000063:
000064:                                                                                                  #        ORDER OF WAITING DISPLAYS -
000065:                                                                                                  #                1.  ASTRONAUT EXTERNAL USE
000066:                                                                                                  #                2.  PRIORITY
000067:                                                                                                  #                3.  INTERRUPTED MARK
000068:                                                                                                  #                4.  INTERRUPTED NORMAL
000069:                                                                                                  #                5.  MARK TO BE REQUESTED (SEE DESCRIPTION OF ENDMARK)
000070:                                                                                                  #                6.  MARK WAITING
000071:                                                                                                  #                7.  NORMAL WAITING
000072:


000074:                                                                                                  #  THE DISPLAY ROUTINES ARE INTENDED TO SERVE AS AN INTERFACE BETWEEN THE USER AND PINBALL.  THE
000075:                                                                                                  #  FOLLOWING STATEMENTS CAN BE MADE ABOUT NORMAL DISPLAYS AND PRIORITY DISPLAYS (A DESCRIPTION OF MARK ROUTINES
000076:                                                                                                  #  WILL FOLLOW LATER):
000077:                                                                                                  #        1.  ALL ROUTINES THAT END IN R HAVE AN IMMEDIATE RETURN TO THE USER.  FOR ALL FLASHING DISPLAYS THIS RETURN
000078:                                                                                                  #            IS TO THE USERS CALL CADR +4.  FOR THE ONLY NON FLASHING IMMEDIATE RETURN DISPLAY (GODSPR) THIS RETURN
000079:                                                                                                  #            IS TO THE USERS CALLING LOC +1.
000080:                                                                                                  #        2.  ALL ROUTINES NOT ENDING IN R DO NOT DO AN IMMEDIATE RETURN TO THE USER.
000081:                                                                                                  #        3.  ALL ROUTINES THAT END IN R START A SEPARATE JOB (MAKEPLAY) WITH USERS JOB PRIORITY.
000082:                                                                                                  #        4.  ALL ROUTINES NOT ENDING IN R BRANCH DIRECTLY TO MAKEPLAY WHICH MAKES THESE DISPLAYS A PART OF THE
000083:                                                                                                  #            USERS JOB.
000084:                                                                                                  #        5.  ALL DISPLAY ROUTINES ARE CALLED VIA BANKCALL.
000085:                                                                                                  #        6.  TO RESTART A DISPLAY THE USER WILL GENERALLY USE A PHASE OF ONE WITH DESIRED RESTART GROUP (SEE
000086:                                                                                                  #            DESCRIPTION OF RESTARTS).
000087:                                                                                                  #        7.  ALL FLASHING DISPLAYS HAVE 3 RETURNS TO THE USER FROM ASTRONAUT RESPONSES.  A TERMINATE (V34) BRANCHES
000088:                                                                                                  #            TO THE USERS CALL CADR +1.  A PROCEED (V33) BRANCHES TO THE USERS CALL CADR +2.  AN ENTER OR RECYCLE
000089:                                                                                                  #            (V32) BRANCHES TO THE USERS CALL CADR +3.
000090:                                                                                                  #        8.  ALL ROUTINES MUST BE USED UNDER EXECUTIVE CONTROL.
000091:
000092:                                                                                                  #  A DESCRIPTION OF EACH ROUTINE WITH AN EXAMPLE FOLLOWS:
000093:                                                                                                  #        GODSP IS USED TO DISPLAY A VERB NOUN ARRIVING IN A.  NO RETURN IS MADE TO THE USER.
000094:                                                                                                  #                1.  GODSP IS NOT RESTARTABLE
000095:                                                                                                  #                2.  A VERB PASTE WITH GODSP ALWAYS TURNS ON THE FLASH.
000096:                                                                                                  #                                CAF     VXXNYY
000097:                                                                                                  #                                TC      BANKCALL
000098:                                                                                                  #                                CADR    GODSP
000099:                                                                                                  #                        VXXNYY  OCT     0XXYY
000100:                                                                                                  #        GODSPR IS THE SAME AS GODSP ONLY RETURN IS TO THE USER.
000101:                                                                                                  #                                CAF     VXXNYY
000102:                                                                                                  #                                TC      BANKCALL
000103:                                                                                                  #                                CADR    GODSPR
000104:                                                                                                  #                                ...     ...             IMMEDIATE RETURN OF GODSPR
000105:                                                                                                  #        GOFLASH DISPLAYS A FLASHING VERB NOUN WITH NO IMMEDIATE RETURN TO THE USER.  3 RETURNS ARE POSSIBLE FROM
000106:                                                                                                  #        THE ASTRONAUT (SEE NO. 7 ABOVE).
000107:                                                                                                  #                                CAF     VXXNYY          VXX NYY WILL BE A FLASHING VERB NOUN.
000108:                                                                                                  #                                TC      BANKCALL
000109:                                                                                                  #                                CADR    GOFLASH
000110:                                                                                                  #                                ...     ...             TERMINATE RETURN
000111:                                                                                                  #                                ...     ...             PROCEED RETURN
000112:                                                                                                  #                                ...     ...             ENTER OR RECYCLE RETURN
000113:                                                                                                  #        GOPERF1 IS ENTERED WITH DESIRED CHECKLIST VALUE IN A.  GOPERF1 WILL DISPLAY THIS VALUE IN R1 BY MEANS OF A


000115:                                                                                                  #        V01 N25.  A FLASHING PLEASE PERFORM ON CHECKLIST (V50 N25) IS THEN DISPLAYED.  NO IMMEDIATE RETURN IS MADE TO
000116:                                                                                                  #        USER (SEE NO. 7 ABOVE).
000117:                                                                                                  #        GOPERF1 BLANKS REGISTERS R2 AND R3
000118:                                                                                                  #                                CAF     OCTXX           CODE FOR CHECKLIST VALUE XX
000119:                                                                                                  #                                TC      BANKCALL
000120:                                                                                                  #                                CADR    GOPERF1
000121:                                                                                                  #                                ...     ...             TERMINATE RETURN
000122:                                                                                                  #                                ...     ...             PROCEED RETURN
000123:                                                                                                  #                                ...     ...             ENTER RETURN
000124:                                                                                                  #        GOPERF2 IS ENTERED WITH A VARIABLE NOUN AND V01 (V00 FOR N10 OR N11) IN A.  GOPERF2 WILL FIRST DISPLAY THE
000125:                                                                                                  #        REQUESTED NOUN BY MEANS OF A V01NYY OR A V00NYY.  PLEASE PERFORM ON NOUN (V50 NYY) THEN BECOMES A FLASHING
000126:                                                                                                  #        DISPLAY.  NO IMMEDIATE RETURN IS MADE TO THE USER (SEE NO. 7 ABOVE).
000127:                                                                                                  #        GOPERF2 DOES NOT BLANK ANY REGISTERS
000128:                                                                                                  #                                CAF     VXXNYY          VARIABLE NOUN YY. XX=00 OR 01.
000129:                                                                                                  #                                TC      BANKCALL
000130:                                                                                                  #                                CADR    GOPERF2
000131:                                                                                                  #                                ...     ...             TERMINATE RETURN
000132:                                                                                                  #                                ...     ...             PROCEED RETURN
000133:                                                                                                  #                                ...     ...             ENTER RETURN
000134:                                                                                                  #        GOPERF3 IS USED FOR A PLEASE PERFORM ON A PROGRAM NUMBER.  THE DESIRED PROGRAM NO. IS ENTERED IN A.  GOPERF3
000135:                                                                                                  #        DISPLAYS THE NO. BY MEANS OF A V06 N07 FOLLOWED BY A FLASHING V50 N07 FOR A PLEASE PERFORM.  NO IMMEDIATE RETURN
000136:                                                                                                  #        IS MADE TO THE USER (SEE NO. 7 ABOVE).
000137:                                                                                                  #        GOPERF3 BLANKS REGISTERS R2 AND R3
000138:                                                                                                  #                                CAF     DECXX           REQUEST PERFORM ON PXX
000139:                                                                                                  #                                TC      BANKCALL
000140:                                                                                                  #                                CADR    GOPERF3
000141:                                                                                                  #                                ...     ...             TERMINATE RETURN
000142:                                                                                                  #                                ...     ...             PROCEED RETURN
000143:                                                                                                  #                                ...     ...             ENTER RETURN
000144:                                                                                                  #        GOPERF4 IS USED FOR A PLEASE PERFORM ON AN OPTION.  THE DESIRED OPTION IS ENTERED IN A AND STORED IN OPTION1.
000145:                                                                                                  #        GOPERF4 DISPLAYS R1 AND R2 BY MEANS OF A V04N06 FOLLOWED BY A FLASHING V50N06 FOR A PLEASE PERFORM.  NO
000146:                                                                                                  #        IMMEDIATE RETURN IS MADE TO THE USER (SEE NO. 7 ABOVE).
000147:                                                                                                  #                                CAF     OCTXX           REQUEST PERFORM ON OPTION XX
000148:                                                                                                  #                                TC      BANKCALL
000149:                                                                                                  #                                CADR    GOPERF4
000150:                                                                                                  #                                ...     ...             TERMINATE RETURN
000151:                                                                                                  #                                ...     ...             PROCEED RETURN
000152:                                                                                                  #                                ...     ...             ENTER RETURN
000153:                                                                                                  #        GOPERF4 BLANKS REGISTER R3


000155:                                                                                                  #        GODSPRET IS USED TO DISPLAY A VERB NOUN ARRIVING IN A WITH A RETURN TO THE USER AFTER THE DISPLAY HAS BEEN SENT
000156:                                                                                                  #        OUT.
000157:                                                                                                  #                                CAF     VXXNYY
000158:                                                                                                  #                                TC      BANKCALL
000159:                                                                                                  #                                CADR    GODSPRET
000160:                                                                                                  #                                ...     ...             RETURN TO USER
000161:                                                                                                  #        REGODSP IS USED TO DISPLAY A VERB NOUN ARRIVING IN A.  REGODSP IS THE SAME AS GODSP ONLY REGODSP REPLACES ANY
000162:                                                                                                  #        ACTIVE NORMAL DISPLAY IF ONE WAS ACTIVE.
000163:                                                                                                  #                                CAF     VXXNYY
000164:                                                                                                  #                                TC      BANKCALL
000165:                                                                                                  #                                CADR    REGODSP
000166:                                                                                                  #        REFLASH IS THE SAME AS GOFLASH ONLY REFLASH REPLACES ANY ACTIVE NORMAL DISPLAY IF ONE WAS ACTIVE.
000167:                                                                                                  #                                CAF     VXXNYY          VXX NYY WILL BE A FLASHING VERB NOUN
000168:                                                                                                  #                                TC      BANKCALL
000169:                                                                                                  #                                CADR    REFLASH
000170:                                                                                                  #                                ...     ...             TERMINATE RETURN
000171:                                                                                                  #                                ...     ...             PROCEED RETURN
000172:                                                                                                  #                                ...     ...             ENTER RETURN
000173:                                                                                                  #        GOFLASHR IS SAME AS GOFLASH ONLY AN IMMEDIATE RETURN IS MADE TO THE USERS CALL CADR +4.
000174:                                                                                                  #                                CAF     VXXNYY
000175:                                                                                                  #                                TC      BANKCALL
000176:                                                                                                  #                                CADR    GOFLASHR
000177:                                                                                                  #                                ...     ...             TERMINATE RETURN
000178:                                                                                                  #                                ...     ...             PROCEED RETURN
000179:                                                                                                  #                                ...     ...             ENTER OR RECYCLE RETURN
000180:                                                                                                  #                                ...     ...             IMMEDIATE RETURN FROM GOFLASHR
000181:                                                                                                  #        GOPERF1R IS THE SAME AS GOPERF1 ONLY GOPERF1R HAS AN IMMEDIATE RETURN TO USERS CALL CADR +4.
000182:                                                                                                  #        GOPERF1R BLANKS REGISTERS R2 AND R3
000183:                                                                                                  #                                CAF     OCTXX           CODE FOR CHECKLIST VALUE XX.
000184:                                                                                                  #                                TC      BANKCALL
000185:                                                                                                  #                                CADR    GOPERF1R
000186:                                                                                                  #                                ...     ...             TERMINATE RETURN
000187:                                                                                                  #                                ...     ...             PROCEED RETURN
000188:                                                                                                  #                                ...     ...             ENTER RETURN
000189:                                                                                                  #                                ...     ...             IMMEDIATE RETURN FROM GOPERF1R
000190:                                                                                                  #        GOPERF2R IS THE SAME AS GOPERF2 ONLY AN IMMEDIATE RETURN IS MADE TO USERS CALL CADR +4.


000192:                                                                                                  #        GOPERF2R DOES NOT BLANK ANY REGISTERS
000193:                                                                                                  #                                CAF     VXXNYY          VARIABLE NOUN YY REQUESTED.  XX=00 OR 01
000194:                                                                                                  #                                TC      BANKCALL
000195:                                                                                                  #                                CADR    GOPERF2R
000196:                                                                                                  #                                ...     ...             TERMINATE RETURN
000197:                                                                                                  #                                ...     ...             PROCEED RETURN
000198:                                                                                                  #                                ...     ...             ENTER RETURN
000199:                                                                                                  #                                ...     ...             IMMEDIATE RETURN HERE FROM GOPERF2R
000200:                                                                                                  #        GOPERF3R IS THE SAME AS GOPERF3 ONLY AN IMMEDIATE RETURN IS MADE TO USERS CALL CADR +4.
000201:                                                                                                  #        GOPERF3R BLANKS REGISTERS R2 AND R3
000202:                                                                                                  #                                CAF     PROGXX          PERFORM PROGRAM XX
000203:                                                                                                  #                                TC      BANKCALL
000204:                                                                                                  #                                CADR    GOPERF3R
000205:                                                                                                  #                                ...     ...             TERMINATE RETURN
000206:                                                                                                  #                                ...     ...             PROCEED RETURN
000207:                                                                                                  #                                ...     ...             ENTER RETURN
000208:                                                                                                  #                                ...     ...             GOPERF3R IMMEDIATELY RETURNS HERE
000209:                                                                                                  #        GOPERF4R IS THE SAME AS GOPERF4 ONLY AN IMMEDIATE RETURN IS MADE TO USERS CALL CADR +4.
000210:                                                                                                  #                                CAF     OCTXX           REQUEST PERFORM ON OPTIONXX
000211:                                                                                                  #                                TC      BANKCALL
000212:                                                                                                  #                                CADR    GOPERF4R
000213:                                                                                                  #                                ...     ...             TERMINATE RETURN
000214:                                                                                                  #                                ...     ...             PROCEED RETURN
000215:                                                                                                  #                                ...     ...             ENTER RETURN
000216:                                                                                                  #                                ...     ...             IMMEDIATE RETURN TO USER
000217:                                                                                                  #        GOPERF4R BLANKS REGISTER R3
000218:                                                                                                  #        REFLASHR IS THE SAME AS REFLASH ONLY AN IMMEDIATE RETURN IS MADE TO THE USERS CALL CADR +4.
000219:                                                                                                  #                                CAF     VXXNYY          VXX NYY WILL BE A FLASHING VERB NOUN
000220:                                                                                                  #                                TC      BANKCALL
000221:                                                                                                  #                                CADR    REFLASHR
000222:                                                                                                  #                                ...     ...             TERMINATE RETURN
000223:                                                                                                  #                                ...     ...             PROCEED RETURN
000224:                                                                                                  #                                ...     ...             ENTER RETURN
000225:                                                                                                  #                                ...     ...             IMMEDIATE RETURN TO USER
000226:                                                                                                  #        REGODSPR IS THE SAME AS REGODSP ONLY A RETURN (IMMEDIATE) IS MADE TO THE USER.


000228:                                                                                                  #                                CAF     VXXNYY
000229:                                                                                                  #                                TC      BANKCALL
000230:                                                                                                  #                                CADR    REGODSPR
000231:                                                                                                  #                                ...     ...             IMMEDIATE RETURN TO USER


000233:                                                                                                  #        GOMARK IS USED TO DISPLAY A MARK VERB NOUN ARRIVING IN A.  NO RETURN IS MADE TO THE USER.
000234:                                                                                                  #        GOXDSP = GOMARK
000235:                                                                                                  #                                CAF     VXXNYY          VXXNYY CONTAINS VERB AND NOUN
000236:                                                                                                  #                                TC      BANKCALL
000237:                                                                                                  #                                CADR    GOMARK          OTHER EXTENDED VERBS USE CADR GOXDSP
000238:                                                                                                  #        GOMARKR IS THE SAME AS GOMARK ONLY RETURN IS TO THE USER.
000239:                                                                                                  #        GOXDSPR = GOMARKR
000240:                                                                                                  #                                CAF     VXXNYY
000241:                                                                                                  #                                TC      BANKCALL
000242:                                                                                                  #                                CADR    GOMARKR         OTHER EXTENDED VERBS USE CADR GOXDSPR
000243:                                                                                                  #                                ...     ...             IMMEDIATE RETURN OF GOMARKR
000244:                                                                                                  #        GOMARKF DISPLAYS A FLASHING MARK VERB NOUN WITH NO IMMEDIATE RETURN TO THE USER.  3 RETURNS ARE POSSIBLE FROM
000245:                                                                                                  #        THE ASTRONAUT (SEE NO. 7 ABOVE).
000246:                                                                                                  #        GOXDSPF = GOMARKF
000247:                                                                                                  #                                CAF     VXXNYY          VXXNYY WILL BE A FLASHING MARK VERB NOUN
000248:                                                                                                  #                                TC      BANKCALL
000249:                                                                                                  #                                CADR    GOMARKF         OTHER EXTENDED VERBS USE CADR GOXDSPF
000250:                                                                                                  #                                ...     ...             TERMINATE RETURN
000251:                                                                                                  #                                ...     ...             PROCEED RETURN
000252:                                                                                                  #                                ...     ...             ENTER OR RECYCLE RETURN
000253:                                                                                                  #        GOMARKFR IS THE SAME AS GOMARKF ONLY AN IMMEDIATE RETURN IS MADE TO THE USER CALL CADR +4.
000254:                                                                                                  #        GOXDSPFR = GOMARKFR
000255:                                                                                                  #                                CAF     VXXNYY          FLASHING MARK VERB NOUN
000256:                                                                                                  #                                TC      BANKCALL
000257:                                                                                                  #                                CADR    GOMARKFR        OTHER EXTENDED VERBS USE CADR GOXDSPFR
000258:                                                                                                  #                                ...     ...             TERMINATE RETURN
000259:                                                                                                  #                                ...     ...             PROCEED RETURN
000260:                                                                                                  #                                ...     ...             ENTER OR RECYCLE RETURN
000261:                                                                                                  #                                ...     ...             IMMEDIATE RETURN TO THE USER
000262:                                                                                                  #        GOMARK1 IS USED FOR A PLEASE PERFORM ON A MARK REQUEST WITH ONLY 1 ASTRONAUT RETURN TO THE USER.  NO IMMEDIATE
000263:                                                                                                  #        RETURN IS MADE.  THE DESIRED MARK PLEASE PERFORM VERB AND DESIRED NOUN IS ENTERED IN A.  GOMARK1 DISPLAYS R1, R2, R
000264:                                                                                                  #        MEANS OF A V05NYY FOLLOWED BY A FLASHING V5XNYY FOR A PLEASE PERFORM.  THE ASTRONAUT WILL RESPOND WITH A MARK
000265:                                                                                                  #        OR MARK REJECT OR AN ENTER.  THE ENTER IS THE ONLY ASTRONAUT RESPONSE THAT WILL COME BACK TO THE USER.
000266:                                                                                                  #                                CAF     V5XNYY          X=1,2,3,4       Y=NOUN
000267:                                                                                                  #                                TC      BANKCALL


000269:                                                                                                  #                                CADR    GOMARK1
000270:                                                                                                  #                                ...     ...             ENTER RETURN
000271:                                                                                                  #        *** IF BLANKING DESIRED ON NON R ROUTINES, NOTIFY DISPLAYER.
000272:
000273:                                                                                                  #        GOMARK1R IS THE SAME AS A GOMARK1 ONLY AN IMMEDIATE RETURN IS MADE TO THE USERS CALL CADR +2.
000274:                                                                                                  #                                CAF     V5XNYY          X=1,2,3,4       YY=NOUN
000275:                                                                                                  #                                TC      BANKCALL
000276:                                                                                                  #                                CADR    GOMARK1R
000277:                                                                                                  #                                ...     ...             ASTRONAUT ENTER RETURN
000278:                                                                                                  #                                ...     ...             IMMEDIATE RETURN TO USER
000279:                                                                                                  #        GOMARK2 IS THE SAME AS GOMARK1 ONLY 3 RETURNS ARE MADE TO THE USER FROM THE ASTRONAUT.
000280:                                                                                                  #                                CAF     V5XNYY          X=1,2,3,4       YY=NOUN
000281:                                                                                                  #                                TC      BANKCALL
000282:                                                                                                  #                                CADR    GOMARK2
000283:                                                                                                  #                                ...     ...             TERMINATE RETURN
000284:                                                                                                  #                                ...     ...             PROCEED RETURN
000285:                                                                                                  #                                ...     ...             ENTER RETURN
000286:                                                                                                  #        GOMARK2R IS THE SAME AS GOMARK1R ONLY 3 ASTRONAUT RETURNS ARE MADE TO THE USER.
000287:                                                                                                  #                                CAF     V5XNYY          X=0,1,2,3,4     YY=NOUN
000288:                                                                                                  #                                TC      BANKCALL
000289:                                                                                                  #                                CADR    GOMARK2R
000290:                                                                                                  #                                ...     ...             TERMINATE RETURN
000291:                                                                                                  #                                ...     ...             PROCEED RETURN
000292:                                                                                                  #                                ...     ...             ENTER RETURN
000293:                                                                                                  #                                ...     ...             IMMEDIATE RETURN TO THE USER
000294:                                                                                                  #        GOMARK3 IS USED FOR A PLEASE PERFORM ON A MARK REQUEST WITH A 3 COMP. DEC DISPLAY.  THE DESIRED MARK PLEASE
000295:                                                                                                  #        PERFORM VERB AND NOUN ARE ENTERED IN A.  GOMARK3 DISPLAYS R1, R2, R3 BY MEANS OF A V06NYY FOLLOWED BY A FLASHING
000296:                                                                                                  #        V5XNYY FOR A PLEASE PERFORM.  GOMARK3 HAS 3 ASTRONAUT RETURNS TO THE USER WITH NO IMMEDIATE RETURN.
000297:                                                                                                  #                                CAF     V5XNYY          X=1,2,3,4       YY=NOUN
000298:                                                                                                  #                                TC      BANKCALL
000299:                                                                                                  #                                CADR    GOMARK3
000300:                                                                                                  #                                ...     ...             TERMINATE RETURN
000301:                                                                                                  #                                ...     ...             PROCEED RETURN
000302:                                                                                                  #                                ...     ...             ENTER RETURN
000303:                                                                                                  #        GOMARK4 IS THE SAME AS GOMARK3 ONLY R2 AND R3 ARE BLANKED AND R1 IS DISPLAYED IN OCTAL.
000304:                                                                                                  #                                CAF     V5XNYY          X=1,2,3,4       YY=NOUN
000305:                                                                                                  #                                TC      BANKCALL
000306:                                                                                                  #                                CADR    GOMARK4
000307:                                                                                                  #                                ...     ...             TERMINATE RETURN
000308:                                                                                                  #                                ...     ...             PROCEED RETURN


000310:                                                                                                  #                        ...     ...                     ENTER RETURN
000311:                                                                                                  #        EXDSPRET IS USED TO DISPLAY A VERB NOUN ARRIVING IN A WITH A RETURN MADE TO THE USER AFTER THE DISPLAY HAS BEEN
000312:                                                                                                  #        SENT OUT.
000313:                                                                                                  #                                CAF     VXXNYY
000314:                                                                                                  #                                TC      BANKCALL
000315:                                                                                                  #                                CADR    EXDSPRET
000316:                                                                                                  #                                ...     ...             RETURN TO USER
000317:                                                                                                  #        KLEENEX CLEANS OUT ALL MARK DISPLAYS (ACTIVE AND INACTIVE). A RETURN IS MADE TO THE USER AFTER THE MARK DISPLAYS
000318:                                                                                                  #        HAVE BEEN CLEANED OUT.
000319:                                                                                                  #                                TC      BANKCALL
000320:                                                                                                  #                                CADR    KLEENEX
000321:                                                                                                  #                                ...     ...             RETURN TO USER
000322:                                                                                                  #        MARKBRAN IS A SPECIAL PURPOSE ROUTINE USED FOR SAVING JOB VAC AREAS (SEE DESCRIPTION OF MARKBRAN BELOW).
000323:                                                                                                  #                                TC      BANKCALL
000324:                                                                                                  #                                CADR    MARKBRAN
000325:                                                                                                  #                                ...     ...             BAD RETURN IF MARK DISPLAY NOT ACTIVE
000326:                                                                                                  #                                                        (GOOD RETURN TO IMMEDIATE RETURN LOC OF
000327:                                                                                                  #                                                        LAST FLASHING MARK R ROUTINE)
000328:                                                                                                  #        PINBRNCH REESTABLISHES THE LAST ACTIVE FLASHING DISPLAY.  IF THERE IS NO ACTIVE FLASHING DISPLAY, THE DSKY IS
000329:                                                                                                  #        BLANKED AND CONTROL IS SENT TO ENDOFJOB.
000330:                                                                                                  #                                TC      POSTJUMP
000331:                                                                                                  #                                CADR    PINBRNCH
000332:                                                                                                  #        PRIODSP IS USED AS A PRIORITY DISPLAY.  IT WILL DISPLAY A GOFLASH TYPE DISPLAY WITH THREE POSSIBLE RETURNS FROM
000333:                                                                                                  #        THE ASTRONAUT (SEE NO. 7 ABOVE).
000334:                                                                                                  #        THE MAIN PURPOSE OF PRIODSP IS TO REPLACE THE PRESENT DISPLAY WITH A DISPLAY OF HIGHER PRIORITY AND TO
000335:                                                                                                  #        PROVIDE A MEANS FOR RESTORING THE OLD DISPLAY WHEN THE PRIORITY DISPLAY
000336:                                                                                                  #        IS RESPONDED TO BY THE ASTRONAUT.
000337:                                                                                                  #        THE FORMER DISPLAY IS RESTORED BY AN AUTOMATIC BRANCH TO WAKE UP THE DISPLAY THAT WAS INTERRUPTED BY THE
000338:                                                                                                  #        PRIO DISPLAY.
000339:                                                                                                  #                                CAF     VXXNYY          VXXNYY WILL BE A FLASHING VERB NOUN
000340:                                                                                                  #                                TC      BANKCALL
000341:                                                                                                  #                                CADR    PRIODSP
000342:                                                                                                  #                                ...     ...             TERMINATE RETURN
000343:                                                                                                  #                                ...     ...             PROCEED RETURN


000345:                                                                                                  #                                ...     ...             ENTER OR RECYCLE RETURN
000346:                                                                                                  #        PRIODSPR IS THE SAME AS PRIODSP ONLY AN IMMEDIATE RETURN IS MADE TO THE USERS CALL CADR +4.
000347:                                                                                                  #                                CAF     VXXNYY          VXXNYY WILL BE A FLASHING VERB NOUN
000348:                                                                                                  #                                TC      BANKCALL
000349:                                                                                                  #                                CADR    PRIODSPR
000350:                                                                                                  #                                ...     ...             TERMINATE RETURN
000351:                                                                                                  #                                ...     ...             PROCEED RETURN
000352:                                                                                                  #                                ...     ...             ENTER OR RECYCLE RETURN
000353:                                                                                                  #                                ...     ...             IMMEDIATE RETURN
000354:                                                                                                  #        PRIOLARM DOES A V05N09 PRIODSPR.
000355:
000356:                                                                                                  #        CLEANDSP CLEANS OUT ALL NORMAL DISPLAYS (ACTIVE AND INACTIVE).  A RETURN IS MADE TO THE USER AFTER NORMAL
000357:                                                                                                  #        DISPLAYS ARE CLEANED OUT.
000358:                                                                                                  #                                TC      BANKCALL
000359:                                                                                                  #                                CADR    CLEANDSP
000360:                                                                                                  #                                ...     ...             RETURN TO USER


000362:
000363:                                                                                                  #  GENERAL INFORMATION
000364:                                                                                                  #  -------------------
000365:
000366:                                                                                                  #  ALARM OR ABORT EXIT MODES --
000367:                                                                                                  #        PRIOBORT        TC      ABORT
000368:                                                                                                  #                        OCT     1502
000369:
000370:                                                                                                  #        PRIOBORT IS BRANCED TO WHEN (1) A NORMAL DISPLAY IS REQUESTED AND ANOTHER NORMAL DISPLAY IS ALREADY ACTIVE
000371:                                                                                                  #        (REFLASH AND REGODSP ARE EXCEPTIONS) OR (2) A PRIORITY DISPLAY IS REQUESTED WHEN ANOTHER PRIORITY DISPLAY IS
000372:                                                                                                  #        ALREADY ACTIVE (A PRIORITY WITH LINUS BIT14 IS AN EXCEPTION).
000373:
000374:                                                                                                  #  ERASABLE INITIALIZATION REQUIRED --
000375:                                                                                                  #        ACCOMPLISHED BY FRESH START -   1.  FLAGWRD4 (USED EXCLUSIVELY BY DISPLAY INTERFACE ROUTINES)
000376:                                                                                                  #                                        2.  NVSAVE = NORMAL VERB AND NOUN REGISTER.
000377:                                                                                                  #                                        3.  EBANKTEM = NORMAL INACTIVE FLAGWORD (ALSO CONTAINS NORMALS EBANK).
000378:                                                                                                  #                                        5.  R1SAVE = MARKBRAN CONTROL WORD
000379:                                                                                                  #                                        4.  RESTREG = PRIORITY 30 AND SUPERBANK 3.
000380:
000381:                                                                                                  #  OUTPUT --
000382:                                                                                                  #        NVWORD = PRIO VERB AND NOUN
000383:                                                                                                  #        NVWORD +1 (MARKNV) = MARK VERB AND NOUN
000384:                                                                                                  #        NVWORD +2 (NVSAVE) = NORMAL VERB AND NOUN
000385:                                                                                                  #        DSPFLG (EBANKSAV) = PRIO FLAGWORD (INCLUDING EBANK)
000386:                                                                                                  #        DSPFLG +1 (MARKEBAN) = MARK FLAGWORD (INCLUDING EBANK)
000387:                                                                                                  #        DSPFLG +2 (EBANKTEM) = NORMAL FLAGWORD (INCLUDIG EBANK)
000388:
000389:                                                                                                  #        CADRFLSH = PRIO USERS CALL CADR +1 LOCATION
000390:                                                                                                  #        CADRFLSH +1 (MARKFLSH) = MARK USERS CALL CADR +1 LOCATION
000391:                                                                                                  #        CADRFLSH +2 (TEMPFLSH) = NORMAL USERS CALL CADR +1 LOCATION
000392:                                                                                                  #        PRIOTIME = TIME EACH PRIO REQUEST FIRST SENT OUT
000393:                                                                                                  #        OPTION1 = DESIRED OPTION FROM GOPERF4
000394:                                                                                                  #        FLAGWRD4 = BIT INFO FOR CONTROL OF ALL DISPLAY ROUTINES
000395:                                                                                                  #        DSPTEM1 = R1 INFO FOR ASTRONAUT FROM PERFORM DISPLAYS (NORMAL)
000396:
000397:                                                                                                  #  SUBROUTINES USED -- NVSUB, FLAGUP, FLAGDOWN, ENDOFJOB, BLANKSUB, ABORT, JOBWAKE, JOBSLEEP, FINDVAC, PRIOCHNG,
000398:                                                                                                  #        JAMTERM, NVSUBUSY, FLASHON, ENDIDLE, CHANG1, BANKJUMP, MAKECADR, NOVAC.
000399:
000400:                                                                                                  #  DEBRIS -- (STORED INTO)
000401:                                                                                                  #        TEMPORARY TEMPORARIES - A, Q, L, MPAC +2, MPAC +3, MPAC +4, MPAC +5, MPAC +6, RUPTREG2, RUPTREG3, CYL,
000402:                                                                                                  #                EBANK, RUPTREG4, LOC, BANKSET, MODE, MPAC, MPAC +1          4, FACEREG
000403:                                                                                                  #        ERASABES (SHARED AND USED WITH OTHER PROGRAMS) CADRSTOR, DSPLIST, LOC, DSPTEM1, OPTION1
000404:                                                                                                  #        ERASABLES (USED ONLY BY DISPLAY ROUTINES) - NVWORD,+1,+2, DSPFLG,+1,+2, CADRFLSH,+1,+2, PRIOTIME, FLAGWRD4,


000406:                                                                                                  #                R1SAVE, MARK2PAC.
000407:
000408:                                                                                                  #  DEBRIS -- (USED BUT NOT STORED INTO) - NOUNREG, VERBREG, LOCCTR, MONSAVE1
000409:
000410:                                                                                                  #  FLAGWORD DESCRIPTIONS --
000411:                                                                                                  #        FLAGWRD4 - SEE DESCRIPTION UNDER LOG SECTION ERASABLE ASSIGNMENTS
000412:
000413:                                                                                                  #        DSPFLG, DSPFLG+1, DSPFLG +2-
000414:                                                                                                  #        ----------------------------
000415:                                                                                                  #        BITS 1  BLANK R1
000416:                                                                                                  #             2  BLANK R2
000417:                                                                                                  #             3  BLANK R3
000418:                                                                                                  #             4  FLASHING DISPLAY REQUESTED
000419:                                                                                                  #             5  PERFORM DISPLAY REQUESTED
000420:                                                                                                  #             6  -----                   EXDSPRET                GODSPRET
000421:                                                                                                  #             7  PRIO DISPLAY            -----                   -----
000422:                                                                                                  #             8  -----                   DEC MARK PERFORM        -----
000423:                                                                                                  #             9  EBANK
000424:                                                                                                  #            10  EBANK
000425:                                                                                                  #            11  EBANK
000426:                                                                                                  #            12  -----                   -----                   V99PASTE
000427:                                                                                                  #            13  2ND PART OF PERFORM
000428:                                                                                                  #            14  REFLASH OR REDO         -----                   REFLASH OR REDO
000429:                                                                                                  #            15  -----                   MARK REQUEST            -----
000430:
000431:                                                                                                  #  RESTARTING DISPLAYS --
000432:
000433:                                                                                                  #  RULES FOR THE DSKY OPERATOR --
000434:                                                                                                  #        1.  PROCEED AND TERMINATE SERVE AS RESPONSES TO REQUESTS FOR OPERATOR RESPONSE (FLASHING V/N).  AS LONG
000435:                                                                                                  #            AS THERE IS ANY REQUEST AWAITING OPERATOR RESPONSE, ANY USE OF PROCEED OR TERMINATE WILL SERVE AS
000436:                                                                                                  #            RESPONSES TO THAT REQUEST.  CARE SHOULD BE EXERCISED IN ATTEMPTING TO KILL AN OPERATOR INITIATED MONITOR
000437:                                                                                                  #            WITH PROCEED AND TERMINATE FOR THIS REASON.
000438:                                                                                                  #        2.  THE ASTRONAUT MUST RESPOND TO A PRIORITY DISPLAY NO SOONER THAN 2 SECONDS FROM THE TIME THE
000439:                                                                                                  #            PROGRAM SENT OUT THE REQUEST FOR OPERATOR RESPONSE (THE ASTRONAUT WOULD SEE THIS DISPLAY FOR LESS TIME
000440:                                                                                                  #            DUE TO TIME IT TAKES TO GET DISPLAY SENT OUT.)  IF THE ASTRONAUT RESPONDS TOO SOON, THE PRIORITY DISPLAY
000441:                                                                                                  #             IS SENT OUT AGAIN -- AND AGAIN UNTIL AN ACCUMULATED 2 SECS      FROM THE TIME THE FIRST PRIORITY DISPLAY
000442:                                                                                                  #            OUT.  THE SAME 2 SEC. DELAY WILL OCCUR AT 163.84 SECS OR IN ANY MULTIPLE OF THAT TIME DUE TO PROGRAM
000443:                                                                                                  #            CONSIDERATION.
000444:                                                                                                  #        3.  KEY RELEASE BUTTON -
000445:                                                                                                  #            A)  IF THE KEY RELEASE LIGHT IS ON, IT SIMPLY RELEASES THE KEYBOARD AND DISPLAY FOR INTERNAL USE.
000446:                                                                                                  #            B)  IF THE KEY RELEASE LIGHT IS OFF, AND IF SOME REQUEST FOR OPERATOR RESPONSE (FLASHING V/N) IS STILL
000447:                                                                                                  #                AWAITING RESPONSE THEN IT RE-ESTABLISHES THE DISPLAYS THAT ORIGINALLY REQUESTED RESPONSE.
000448:                                                                                                  #            IF AN OPERATOR WANTS THEREFORE TO RE-ESTABLISH BUT CONDITION (A) IS ENCOUNTERED, A SECOND DEPRESSION OF
000449:                                                                                                  #            KEY RELEASE BUTTON MAY BE NECESSARY.
000450:                                                                                                  #        4.  IT IS IMPORTANT TO ANSWER ALL REQUESTS FOR OPERATOR RESPONSE.
000451:                                                                                                  #        5.  IT IS ALWAYS GOOD PRACTICE TO TERMINATE AN EXTENDED VERB BEFORE ASKING FOR ANOTHER ONE OR THE SAME ONE
000452:                                                                                                  #            OVER AGAIN.
000453:
000454:                                                                                                  #  SPECIAL CONSIDERATIONS--


000456:                                                                                                  #        1.  MPAC +2 SAVED ONLY IN MARK DISPLAYS
000457:                                                                                                  #        2.  GODSP(R), REGODSP(R), GOMARK(R) ALWAYS TURN ON THE FLASH IF ENTERED WITH A PASTE VERB REQUEST.
000458:                                                                                                  #        3.  ALL NORMAL DISPLAYS ARE RESTARTABLE EXCEPT GODSP(R), REGODSP(R)
000459:                                                                                                  #        4.  ALL EXTENDED VERBS WITH DISPLAYS SHOULD START WITH A TC TESTXACT AND FINISH WITH A TC ENDEXT.
000460:                                                                                                  #        5.  GODSP(R) AND REGODSP(R) MUST BE IN THE SAME EBANK AND SUPERBANK AS THE LAST NORMAL DISPLAY RESTARTED
000461:                                                                                                  #            BY A .1 RESTART PHASE CHANGE.
000462:                                                                                                  #        6.  IN ORDER TO SET UP A NON DISPLAY .1 RESTART POINT, THE USER MUST MAKE CERTAIN THAT RESTREG CONTAINS THE
000463:                                                                                                  #            CORRECT PRIORITY AND SUPERBANK AND THAT EBANKTEM CONTAINS THE CO
000464:                                                                                                  #        7.  IF CLEANDSP IS RESTARTED VIA A .1 PHASE CHANGE, CAF ZERO SHOULD BE EXECUTED BEFORE THE TC BANKCALL.
000465:


000467:                                                                                                  #  CALLING SEQUENCE FOR BLANKING
000468:                                                                                                  #                CAF     BITX            X=1,2,3 BLANK R1,R2,R3 RESPECTIVELY
000469:                                                                                                  #                TC      BLANKET
000470:                                                                                                  #                ...     ...             RETURN TO USER HERE
000471:                                                                                                  #  IN ORDER TO USE BLANKET CORRECTLY THE USER MUST USE A DISPLAY ROUTINE THAT ENDS IN R FIRST FOLLOWED BY THE CALL
000472:                                                                                                  #  TO BLANKET AT THE IMMEDIATE RETURN LOC.
000473:    5464                                           BLOCK    02
000474:    4000                                           SETLOC   FFTAG4
000475:    4000                                           BANK
000476:
000477:    5464                                           COUNT*   $$/DSPLA
000478:    5464           54162        BLANKET            TS       MPAC       +6
000479:    5465           40160                           CS       PLAYTEM4
000480:    5466           70162                           MASK     MPAC       +6
000481:    5467           50161                           INDEX    MPAC       +5
000482:    5470           26160                           ADS      PLAYTEM4
000483:
000484:    5471           00002                           TC       Q
000485:
000486:    5472           04635        ENDMARK            TC       POSTJUMP
000487:    5473           20326                           CADR     MARKEND
000488:
000489:    5474           34755        CLEARMRK           CAF      ZERO
000490:    5475           55044                           TS       EXTVBACT
000491:
000492:    5476           00004                 +2        INHINT
000493:    5477           44753                           CS       XDSPBIT
000494:    5500           70100                           MASK     FLAGWRD4
000495:    5501           54100                           TS       FLAGWRD4
000496:
000497:    5502           00003                           RELINT
000498:    5503           00002                           TC       Q
000499:
000500:                                                                                                  #  *** ALL EXTENDED VERB ROUTINES THAT HAVE AT LEAST ONE FLASHING DISPLAY MUST TCF ENDMARK OR TCF ENDEXT WHEN
000501:                                                                                                  #  FINISHED.
000502:
000503: 10,2326                                           BANK     10
000504: 10,2000                                           SETLOC   DISPLAYS
000505: 10,2000                                           BANK
000506:
000507: 10,2326                                           COUNT*   $$/DSPLA
000508:
000509:                                                                                                  #  NTERONLY IS USED TO DIFFERENTIATE THE MARK ROUTINE WITH ONLY ONE RETURN TO THE USER FROM THE MARKING ROUTINE WIT
000510:                                                                                                  #  3 RETURNS TO THE USER.  THIS ROUTINE IS ONLY USED BY GOMARK1 AND GOMARK1R.
000511:
000512: 10,2326           05474        MARKEND            TC       CLEARMRK
000513: 10,2327           13421                           TCF      MARKOVER
000514:
000515: 10,2330           54155        GOMARK             TS       PLAYTEM1                              #  ENTRANCE FOR MARK GODSP


000517: 10,2331           34735        GOMARS             CAF      BIT15                                 #  BIT15 SET FOR ALL MARK REQUESTS
000518: 10,2332           12500                           TCF      GOFLASH2
000519:
000520: 10,2333           34755        KLEENEX            CAF      ZERO                                  #  CLEAN OUT EXTENDED VERBS
000521: 10,2334           54155        GOMARKF            TS       PLAYTEM1                              #  ENTRANCE FOR MARK GOFLASH
000522:
000523: 10,2335           33031                           CAF      MARKFMSK                              #  MARK, FLASH
000524: 10,2336           12500                           TCF      GOFLASH2
000525:
000526: 10,2337           54155        GOMARK2            TS       PLAYTEM1                              #  MARK GOPERFS-3 AST. RETURNS
000527: 10,2340           33520        MARKFORM           CAF      MPERFMSK                              #  MARK, PERFORM, FLASH
000528: 10,2341           12500                           TCF      GOFLASH2
000529:
000530: 10,2342           54155        GOMARK3            TS       PLAYTEM1                              #  USED FOR 3COMP DECIMAL PERFORM
000531: 10,2343           33505                           CAF      MARK3MSK
000532: 10,2344           12500                           TCF      GOFLASH2
000533:
000534: 10,2345           54155        GOMARK4            TS       PLAYTEM1
000535: 10,2346           33506                           CAF      MARK4MSK                              #  MARK,PERFORM,FLASH,BLANK
000536: 10,2347           12500                           TCF      GOFLASH2
000537:
000538: 10,2350           54155        GOMARKR            TS       PLAYTEM1                              #  ENTR+NCE FOR MARK GODSPR
000539:
000540: 10,2351           34735                           CAF      BIT15
000541: 10,2352           12453                           TCF      GODSPR2
000542:
000543: 10,2353           54155        GOMARKFR           TS       PLAYTEM1                              #  ENTRANCE FOR MARK GOFLASHR
000544:
000545: 10,2354           33031                           CAF      MARKFMSK
000546: 10,2355           12637                           TCF      GODSPRS
000547:
000548: 10,2356           54155        GOMARK2R           TS       PLAYTEM1                              #  MARK GOPERFS-3 AST. RETS+ IMMEDIATE RET.
000549: 10,2357           33520                           CAF      MPERFMSK                              #  MARK, PERFORM, FLASH
000550: 10,2360           12637                           TCF      GODSPRS
000551:
000552: 10,2361           54155        GOMARK3R           TS       PLAYTEM1
000553: 10,2362           33505                           CAF      MARK3MSK
000554: 10,2363           12637                           TCF      GODSPRS
000555:
000556: 10,2364           34753        MAKEMARK           CAF      ONE
000557: 10,2365           02735                           TC       COPIES
000558:
000559: 10,2366           30100                           CA       FLAGWRD4                              #  IS NORM OR PRIO BUSY OR WAITING
000560: 10,2367           73521                           MASK     OCT34300
000561: 10,2370           10000                           CCS      A
000562: 10,2371           12427                           TCF      CHKPRIO
000563:
000564: 10,2372           30100                           CA       FLAGWRD4                              #  IS MARK SLEEPING DUE TO ASTRO BUSY
000565: 10,2373           74743                           MASK     MRKNVBIT
000566:
000567: 10,2374           00006                           EXTEND


000569: 10,2375           12377                           BZF      MARKPLAY                              #  NO
000570:
000571: 10,2376           15155                           TCF      ENDOFJOB
000572:
000573: 10,2377           00004        MARKPLAY           INHINT
000574: 10,2400           44756                           CS       FIVE                                  #  RESET MARK OVER NORM, SET MARK
000575: 10,2401           70100                           MASK     FLAGWRD4
000576: 10,2402           64753                           AD       ONE
000577: 10,2403           54100                           TS       FLAGWRD4
000578: 10,2404           00003                           RELINT
000579:
000580: 10,2405           41071        GOGOMARK           CS       MARKFLAG                              #  PERFORM
000581: 10,2406           74747                           MASK     BIT5
000582: 10,2407           10000                           CCS      A
000583: 10,2410           12413                           TCF      MARKCOP
000584: 10,2411           40370                           CS       MARKNV
000585: 10,2412           54370                           TS       MARKNV
000586:
000587: 10,2413           34753        MARKCOP            CAF      ONE                                   #  MARK INDEX
000588: 10,2414           12616                           TCF      PRIOPLAY
000589:
000590: 10,2415           30165        COPYTOGO           CA       MPAC2SAV
000591: 10,2416           54156                           TS       MPAC       +2
000592:
000593: 10,2417           50164        COPYPACS           INDEX    COPINDEX
000594: 10,2420           33531                           CAF      PRIOOCT
000595: 10,2421           54162                           TS       GENMASK
000596:
000597: 10,2422           50164                           INDEX    COPINDEX
000598: 10,2423           31070                           CAF      EBANKSAV
000599: 10,2424           54160                           TS       TEMPOR2                               #  ACTIVE EBANK AND FLAG
000600:
000601: 10,2425           54003                           TS       EBANK
000602:
000603: 10,2426           00002                           TC       Q
000604:
000605:                                                                                                  #  PINCHEK CHECKS TO SEE IF THE CURRENT MARK REQUEST IS MADE BY THE ASTRONAUT WHILE INTERRUPTING A GOPLAY DISPLAY
000606:                                                                                                  #  (A NORMAL OR A PRIO).  IF THE ASTRONAUT TRIES TO MARK DURING A PRIO, THE CHECK FAIL LIGHT GOES ON AND THE MARK
000607:                                                                                                  #  REQUEST IS ENDED.  IF HE TRIES TO MARK DURING A NORM, THE MARK IS ALLOWED.  IN THIS CASE THE NORM IS PUT TO SLEEP
000608:                                                                                                  #  UNTIL ALL MARKING IS FINISHED.
000609:
000610:                                                                                                  #  IF THE MARK REQUEST COMES FROM THE PROGRAM DURING A TIME THE ASTRONAUT IS NOT INTERRUPTING A NORMAL OR A
000611:                                                                                                  #  PRIO, THE MARK REQUEST IS PUT TO SLEEP UNTIL THE +RESENT ACTIVE DISPLAY IS RESPONDED TO BY THE ASTRONAUT.
000612:
000613: 10,2427           30100        CHKPRIO            CA       FLAGWRD4                              #  MARK ATTEMPT DURING PRIO
000614: 10,2430           73254                           MASK     OCT24100
000615: 10,2431           10000                           CCS      A
000616: 10,2432           13454                           TCF      MARSLEEP
000617:
000618: 10,2433           40100                           CS       FLAGWRD4


000620: 10,2434           74751                           MASK     MKOVBIT                               #  SET MARK OVER NORM
000621: 10,2435           00004                           INHINT
000622: 10,2436           26100                           ADS      FLAGWRD4
000623:
000624: 10,2437           12534                           TCF      SETNORM
000625:
000626: 10,2440           30370        MARKPERF           CA       MARKNV
000627: 10,2441           74144                           MASK     VERBMASK
000628: 10,2442           13120                           TCF      NV50DSP
000629:
000630: 10,2443           54155        GODSP              TS       PLAYTEM1
000631:
000632: 10,2444           34755        GODSP2             CAF      ZERO
000633: 10,2445           12500                           TCF      GOFLASH2
000634:
000635: 10,2446           54155        GODSPRET           TS       PLAYTEM1                              #  ENTRANCE FOR A GODSP WITH A PASTE
000636:
000637: 10,2447           34746                           CAF      BIT6                                  #  SET BIT6 TO GO BACK TO USER AFTER NVSUB
000638: 10,2450           12500                           TCF      GOFLASH2
000639:
000640: 10,2451           54155        GODSPR             TS       PLAYTEM1
000641:
000642: 10,2452           34755        GODSPR1            CAF      ZERO
000643: 10,2453           54160        GODSPR2            TS       PLAYTEM4
000644:
000645: 10,2454           34755                           CAF      ZERO                                  #  * DONT MOVE
000646: 10,2455           12641                           TCF      GODSPRS1
000647:
000648:                                                                                                  #  CLEANDSP IS USED FOR CLEARING OUT A NORMAL DISPLAY THAT IS PRESENTLY ACTIVE OR A NORMAL DISPLAY THAT IS
000649:                                                                                                  #  SET UP TO BE STARTED OR RESTARTED.
000650:
000651:                                                                                                  #  NORMALLY THE USER WILL NOT NEED TO USE THIS ROUTINE SINCE A NEW NORMAL DISPLAY AUTOMATICALLY CLEARS OUT AN
000652:                                                                                                  #  OLD DISPLAY.
000653:
000654:                                                                                                  #  CALLING SEQUENCE FOR CLEANDSP -
000655:
000656:                                                                                                  #                TC      BANKCALL
000657:                                                                                                  #                CADR    CLEANDSP
000658:
000659: 10,2456           34755        CLEANDSP           CAF      ZERO
000660: 10,2457           54155        REFLASH            TS       PLAYTEM1
000661:
000662: 10,2460           33504                           CAF      REDOMASK                              #  FLASH AND PERMIT
000663: 10,2461           12500                           TCF      GOFLASH2
000664:
000665: 10,2462           54155        REFLASHR           TS       PLAYTEM1
000666:
000667: 10,2463           33504                           CAF      REDOMASK                              #  FLASH AND PERMIT
000668: 10,2464           12637                           TCF      GODSPRS
000669:


000671: 10,2465           54155        REGODSP            TS       PLAYTEM1
000672:
000673: 10,2466           34736                           CAF      BIT14
000674: 10,2467           12500                           TCF      GOFLASH2
000675:
000676: 10,2470           54155        REGODSPR           TS       PLAYTEM1
000677:
000678: 10,2471           34736                           CAF      BIT14
000679: 10,2472           12453                           TCF      GODSPR2
000680:
000681: 10,2473           54155        CLOCPLAY           TS       PLAYTEM1
000682: 10,2474           33543                           CAF      CLOCKCON
000683: 10,2475           12500                           TCF      GOFLASH2
000684:
000685: 10,2476           54155        GOFLASH            TS       PLAYTEM1
000686:
000687: 10,2477           34750                           CAF      BIT4                                  #  LEAVE ONLY FLASH BIT SET
000688: 10,2500           54160        GOFLASH2           TS       PLAYTEM4
000689:
000690: 10,2501           02722                           TC       SAVELOCS
000691:
000692: 10,2502           00003                           RELINT
000693:
000694: 10,2503           12546                           TCF      MAKEPLAY                              #  BRANCH DIRECT WITH NO SEPARATE JOB CALL
000695:
000696: 10,2504           54155        PRIODSPR           TS       PLAYTEM1
000697:
000698: 10,2505           33523                           CAF      BITS7+4
000699: 10,2506           12637                           TCF      GODSPRS
000700:
000701: 10,2507           54155        PRIODSP            TS       PLAYTEM1
000702:
000703: 10,2510           33523        SETPRIO            CAF      BITS7+4
000704: 10,2511           12500                           TCF      GOFLASH2
000705:
000706: 10,2512           34755        MAKEPRIO           CAF      ZERO
000707: 10,2513           54164                           TS       COPINDEX
000708:
000709: 10,2514           03374                           TC       LINUSCHR
000710: 10,2515           12522                           TCF      HIPRIO                                #  LINUS RETURN
000711: 10,2516           30100                           CA       FLAGWRD4
000712: 10,2517           73542                           MASK     OCT20100                              #  IS PRIO IN ENDIDLE OR BUSY
000713: 10,2520           10000                           CCS      A
000714: 10,2521           12575                           TCF      PRIOBORT                              #  YES, ABORT
000715:
000716: 10,2522           30100        HIPRIO             CA       FLAGWRD4                              #  MARK ACTIVE
000717: 10,2523           75642                           MASK     OCT40400
000718: 10,2524           00006                           EXTEND
000719: 10,2525           12530                           BZF      ASKIFNRM                              #  NO
000720:


000722: 10,2526           34755        SETMARK            CAF      ZERO
000723: 10,2527           12774                           TCF      JOBXCHS
000724:
000725: 10,2530           30100        ASKIFNRM           CA       FLAGWRD4                              #  NORMAL ACTIVE
000726: 10,2531           73540                           MASK     OCT10200                              #  BITS 13+8
000727: 10,2532           00006                           EXTEND
000728: 10,2533           12536                           BZF      OKTOCOPY                              #  NO
000729:
000730: 10,2534           34753        SETNORM            CAF      ONE
000731: 10,2535           12774                           TCF      JOBXCHS
000732:
000733: 10,2536           02734        OKTOCOPY           TC       COPYNORM
000734: 10,2537           03205                           TC       WITCHONE
000735:
000736: 10,2540           05137                           TC       JOBWAKE
000737:
000738: 10,2541           03222                           TC       XCHTOEND
000739:
000740: 10,2542           30025        REDOPRIO           CA       TIME1                                 #  SAVE TIME PRIODSP SENT OUT
000741: 10,2543           55165                           TS       PRIOTIME
000742:
000743: 10,2544           34755        KEEPPRIO           CAF      ZERO                                  #  START UP PRIO DISPLAY
000744: 10,2545           12616                           TCF      PRIOPLAY
000745:
000746: 10,2546           30167        MAKEPLAY           CA       PRIORITY                              #  SAVE USERS PRIORITY
000747: 10,2547           77725                           MASK     PRIO37
000748: 10,2550           54163                           TS       USERPRIO
000749:
000750: 10,2551           37721                           CAF      PRIO33                                #  RAISE PRIORITY FOR FAST JOBS AFTER WAKE
000751: 10,2552           05146                           TC       PRIOCHNG
000752:
000753: 10,2553           30160                           CA       PLAYTEM4                              #  IS IT MARK OR PRIO OR NORM
000754: 10,2554           73522                           MASK     BITS15+7
000755: 10,2555           10000                           CCS      A
000756: 10,2556           12512                           TCF      MAKEPRIO                              #  ITS PRIO
000757: 10,2557           12561                           TCF      IFLEGAL
000758: 10,2560           12364                           TCF      MAKEMARK                              #  ITS MARK
000759:
000760: 10,2561           34752        IFLEGAL            CAF      TWO
000761: 10,2562           54164                           TS       COPINDEX
000762:
000763: 10,2563           03374                           TC       LINUSCHR
000764:
000765: 10,2564           12577                           TCF      OKTOPLAY                              #  LINUS RETURN
000766: 10,2565           41072                           CS       EBANKTEM
000767: 10,2566           74750                           MASK     BIT4
000768: 10,2567           10000                           CCS      A
000769: 10,2570           12577                           TCF      OKTOPLAY                              #  NO
000770:
000771: 10,2571           30100                           CA       FLAGWRD4                              #  WAS NORM ASLEEP


000773: 10,2572           73513                           MASK     NBUSMASK                              #  ARE ANY NORMS ASLEEP
000774: 10,2573           00006                           EXTEND
000775: 10,2574           12577                           BZF      OKTOPLAY                              #  NO
000776:
000777: 10,2575           05652        PRIOBORT           TC       POODOO
000778: 10,2576           01502                           OCT      1502
000779:
000780: 10,2577           02736        OKTOPLAY           TC       COPIES2
000781:
000782: 10,2600           30163                           CA       USERPRIO
000783: 10,2601           00006                           EXTEND
000784: 10,2602           04007                           ROR      SUPERBNK
000785: 10,2603           54366                           TS       RESTREG
000786:
000787: 10,2604           30100                           CA       FLAGWRD4                              #  PRIO OR MARK GOING
000788: 10,2605           73514                           MASK     PMMASK
000789: 10,2606           10000                           CCS      A
000790: 10,2607           12754                           TCF      GOSLEEPS                              #  YES
000791:
000792: 10,2610           12612                           TCF      +2
000793: 10,2611           12754                           TCF      GOSLEEPS                              #  MARK GOING
000794:
000795:                                                                                                  #  COULD PUT NORM BUSY CHECK HERE TO SAVE TIME
000796:
000797: 10,2612           03205                           TC       WITCHONE                              #  IS IT NVSUB BUSY, ENDIDLE OR NOONE
000798: 10,2613           05137                           TC       JOBWAKE
000799:
000800: 10,2614           03222                           TC       XCHTOEND
000801:
000802: 10,2615           34752        PLAYJUM1           CAF      TWO
000803: 10,2616           54164        PRIOPLAY           TS       COPINDEX
000804:
000805: 10,2617           13070                           TCF      GOPLAY
000806:
000807: 10,2620           54155        EXDSPRET           TS       PLAYTEM1
000808:
000809: 10,2621           37734                           CAF      BIT15+6
000810: 10,2622           12500                           TCF      GOFLASH2
000811:
000812: 10,2623           55045        GOPERF1            TS       NORMTEM1                              #  STORE DESIRED CHECKLIST VALUE
000813: 10,2624           33476                           CAF      V01N25                                #  USED TO DISPLAY CHECKLIST VALUE IN R1
000814:
000815: 10,2625           54155        GOPERFS            TS       PLAYTEM1
000816:
000817: 10,2626           33475                           CAF      PERFMASK                              #  LEAVE ONLY FLASH, PERFORM, BLANKING
000818: 10,2627           12500                           TCF      GOFLASH2
000819:
000820: 10,2630           54155        GOPERF2            TS       PLAYTEM1                              #  DESIRED VERB-NOUN TO DISPLAY R1,R2,R3
000821:
000822: 10,2631           33501                           CAF      PERF2MSK
000823: 10,2632           12500                           TCF      GOFLASH2
000824:


000826: 10,2633           02715        GOPERF4            TC       PURRS4
000827:
000828: 10,2634           12500                           TCF      GOFLASH2
000829:
000830: 10,2635           54155        GOFLASHR           TS       PLAYTEM1
000831:
000832: 10,2636           34750                           CAF      BIT4                                  #  LEAVE ONLY FLASH BIT SET
000833: 10,2637           54160        GODSPRS            TS       PLAYTEM4
000834:
000835: 10,2640           36245                           CAF      THREE
000836:
000837: 10,2641           00004        GODSPRS1           INHINT                                         #  IMMEDIATE RETURN IS CALL CADR +4
000838: 10,2642           54072                           TS       RUPTREG3
000839:
000840: 10,2643           30167                           CA       PRIORITY                              #  MAKE DISPLAY ONE HIGHER THAN USER
000841: 10,2644           77725                           MASK     PRIO37
000842: 10,2645           54063                           TS       NEWPRIO
000843:
000844: 10,2646           30160                           CA       PLAYTEM4                              #  IS THIS A FLASHING R DISPLAY
000845: 10,2647           74750                           MASK     BIT4
000846: 10,2650           10000                           CCS      A
000847: 10,2651           12657                           TCF      VACDSP                                #  YES, MAKE DSPLAY JOB A VAC
000848: 10,2652           30063                           CA       NEWPRIO                               #  NO, MAKE DSPLAY JOB A NOVAC
000849: 10,2653           05072                           TC       NOVAC
000850: 10,2654  E7,1471                                  EBANK=   WHOCARES
000851: 10,2654           02546 20067                     2CADR    MAKEPLAY
000852:
000853: 10,2656           12665                           TCF      BOTHJOBS
000854:
000855: 10,2657           30006        VACDSP             CA       BBANK
000856: 10,2660           00006                           EXTEND
000857: 10,2661           04007                           ROR      SUPERBNK
000858: 10,2662           54001                           TS       L
000859: 10,2663           33537                           CAF      MAKEGEN
000860: 10,2664           05116                           TC       SPVAC
000861:
000862: 10,2665           02722        BOTHJOBS           TC       SAVELOCS                              #  COPY TEMPS INTO PERMANENT REGISTERS
000863:
000864: 10,2666           00006                           EXTEND                                         #  SAVE NVWORD AND USERS MPAC +2
000865: 10,2667           30156                           DCA      MPAC       +1
000866: 10,2670           50064                           INDEX    LOCCTR
000867: 10,2671           52156                           DXCH     MPAC       +1
000868:
000869: 10,2672           00006                           EXTEND                                         #  SAVE USERS CADR, FLAGS AND EBANK
000870: 10,2673           30160                           DCA      MPAC       +3
000871: 10,2674           50064                           INDEX    LOCCTR
000872: 10,2675           52160                           DXCH     MPAC       +3
000873:
000874: 10,2676           30064                           CA       LOCCTR
000875: 10,2677           54161                           TS       MPAC       +5


000877: 10,2700           02727                           TC       SAVELOCR
000878: 10,2701           00003                           RELINT
000879:
000880: 10,2702           14640                           TCF      BANKJUMP                              #  CALL CADR +4
000881:
000882: 10,2703           55045        GOPERF1R           TS       NORMTEM1                              #  DESIRED CHECKLIST VALUE
000883:
000884: 10,2704           33476                           CAF      V01N25                                #  DISPLAYS CHECKLIST VALUE IN R1
000885:
000886: 10,2705           54155        GOPERFRS           TS       PLAYTEM1
000887:
000888: 10,2706           33475                           CAF      PERFMASK                              #  LEAVE ONLY FLASH, PERFORM, BLANKING
000889: 10,2707           12637                           TCF      GODSPRS
000890:
000891: 10,2710           54155        GOPERF2R           TS       PLAYTEM1                              #  DESIRED VERB-NOUN TO DISPLAY R1,R2,R3
000892:
000893: 10,2711           33501                           CAF      PERF2MSK
000894: 10,2712           12637                           TCF      GODSPRS
000895:
000896: 10,2713           02715        GOPERF4R           TC       PURRS4
000897:
000898: 10,2714           12637                           TCF      GODSPRS
000899:
000900: 10,2715           55144        PURRS4             TS       OPTION1                               #  DESIRED OPTION CODE
000901:
000902: 10,2716           33502                           CAF      V04N06
000903: 10,2717           54155                           TS       PLAYTEM1
000904:
000905: 10,2720           33503                           CAF      PERF4MSK                              #  FLASH, PERFORM AND BLANK R3
000906: 10,2721           00002                           TC       Q
000907:
000908: 10,2722           00004        SAVELOCS           INHINT
000909:
000910: 10,2723           43512                           CS       OCT3400                               #  EBANK BITS
000911: 10,2724           70160                           MASK     PLAYTEM4
000912: 10,2725           60003                           AD       EBANK
000913: 10,2726           54160                           TS       PLAYTEM4
000914:
000915: 10,2727           22002        SAVELOCR           LXCH     Q
000916:
000917: 10,2730           04645                           TC       MAKECADR
000918: 10,2731           54157                           TS       PLAYTEM3
000919:
000920: 10,2732           60072                           AD       RUPTREG3                              #  NOT USED FOR NON R ROUTINES
000921: 10,2733           00001                           TC       L
000922:
000923: 10,2734           34755        COPYNORM           CAF      ZERO
000924: 10,2735           54164        COPIES             TS       COPINDEX
000925: 10,2736           00004        COPIES2            INHINT
000926: 10,2737           30160                           CA       PLAYTEM4                              #  FLAGWORD
000927:


000929: 10,2740           50164                           INDEX    COPINDEX
000930: 10,2741           55070                           TS       EBANKSAV                              #  EQUIV TO DSPFLG
000931:
000932: 10,2742           73530                           MASK     CADRMASK                              #  FLASH AND GODSPRET
000933: 10,2743           00006                           EXTEND
000934: 10,2744           12750                           BZF      SKIPADD
000935:
000936: 10,2745           30157                           CA       PLAYTEM3
000937: 10,2746           50164                           INDEX    COPINDEX
000938: 10,2747           54372                           TS       CADRFLSH
000939:
000940: 10,2750           30155        SKIPADD            CA       PLAYTEM1                              #  VERB NOUN
000941: 10,2751           50164                           INDEX    COPINDEX
000942: 10,2752           54367                           TS       NVWORD
000943:
000944: 10,2753           13231                           TCF      RELINTQ
000945:
000946: 10,2754           50164        GOSLEEPS           INDEX    COPINDEX
000947: 10,2755           33531                           CA       PRIOOCT
000948: 10,2756           72760                           MASK     WAITMASK
000949: 10,2757           03544                           TC       UPENT2
000950: 10,2760           03004        WAITMASK           OCT      3004
000951: 10,2761           44753                           CS       ONE
000952: 10,2762           60164                           AD       COPINDEX
000953: 10,2763           54154                           TS       FACEREG
000954:
000955: 10,2764           50154        XCHSLEEP           INDEX    FACEREG
000956: 10,2765           33510                           CAF      WAKECADR
000957: 10,2766           00004                           INHINT
000958: 10,2767           05137                           TC       JOBWAKE                               #  FIND CADR IN JOB AREA
000959:
000960: 10,2770           03222                           TC       XCHTOEND                              #  CAUSES AWAKENED JOB TO GO TO ENDOFJOB
000961:
000962: 10,2771           50154                           INDEX    FACEREG                               #  REPLACE SAME CADR BUT NEW JOB AREA
000963: 10,2772           33510                           CAF      WAKECADR
000964: 10,2773           15133                           TCF      JOBSLEEP
000965:
000966: 10,2774           54154        JOBXCHS            TS       FACEREG                               #  CONTROLS TYPE OF DISPLAY PUT TO SLEEP
000967: 10,2775           03205                           TC       WITCHONE
000968: 10,2776           05137                           TC       JOBWAKE
000969: 10,2777           30154                           CA       FACEREG
000970: 10,3000           50064                           INDEX    LOCCTR
000971: 10,3001           54154                           TS       FACEREG
000972:
000973: 10,3002           33015                           CAF      XCHQADD
000974: 10,3003           03223                           TC       XCHNYLOC
000975:
000976: 10,3004           50154                           INDEX    FACEREG
000977: 10,3005           33532                           CA       MARKOCT
000978: 10,3006           73534                           MASK     IDLESLEP
000979:


000981: 10,3007           03554                           TC       DOWNENT2
000982: 10,3010           74004        IDLEMASK           OCT      74004                                 #  * DONT MOVE
000983:
000984: 10,3011           50154                           INDEX    FACEREG                               #  BIT SHOWS PRIO INTERRUPTED NORM OR MARK
000985: 10,3012           34747                           CA       BIT5                                  #  BIT5 FOR MARK, BIT4 FOR NORMAL
000986: 10,3013           64751                           AD       FOUR
000987: 10,3014           03544                           TC       UPENT2                                #  FLAG ROUTINE DOES RELINT
000988: 10,3015           02764        XCHQADD            GENADR   XCHSLEEP                              #  * DONT MOVE
000989: 10,3016           30100                           CA       FLAGWRD4
000990: 10,3017           74751                           MASK     MKOVBIT                               #  MARK OVER NORM?
000991: 10,3020           10000                           CCS      A
000992: 10,3021           02377        GENMARK            TC       MARKPLAY                              #  USED AS GENADR FOR JOBWAKE
000993: 10,3022           12536                           TCF      OKTOCOPY
000994:
000995: 10,3023           34755        MARKWAKE           CAF      ZERO
000996: 10,3024           54160        WAKEPLAY           TS       TEMPOR2
000997:
000998: 10,3025           50160                           INDEX    TEMPOR2
000999: 10,3026           33524                           CA       BITS5+11
001000: 10,3027           64751                           AD       FOUR
001001: 10,3030           03554                           TC       DOWNENT2
001002: 10,3031           40010        MARKFMSK           OCT      40010                                 #  ***DONT MOVE
001003:
001004: 10,3032           50160                           INDEX    TEMPOR2
001005: 10,3033           33510                           CAF      WAKECADR
001006: 10,3034           00004                           INHINT
001007: 10,3035           05137                           TC       JOBWAKE
001008:
001009: 10,3036           13335                           TCF      ENDRET
001010:
001011:                                                                                                  #  ALL .1 RESTARTS BRANCH DIRECTLY TO INITDSP.  NORMAL DISPLAYS ARE THE ONLY DISPLAYS ALLOWED TO USE .1 RESTARTS
001012:                                                                                                  #  INITDSP FIRST RESTORES THE EBANK AND THE SUPERBANK TO THE MOST RECENT NORMAL EBANK AND SUPERBANK.
001013:
001014:                                                                                                  #  IF THE MOST RECENT NORMAL DISPLAY REQUEST WAS NOT FINISHED, CONTROLIS SENT BACK TO THE LAST NORMAL USER.
001015:                                                                                                  #  OTHERWISE THE NORMAL DISPLAY SET UP IN THE NORMAL DISPLAY REGS IS STARTED UP IMMEDIATELY.
001016:
001017: 10,3037           31072        INITDSP            CA       EBANKTEM                              #  RESTORE MOST RECECT NORMAL EBANK
001018: 10,3040           54003                           TS       EBANK
001019:
001020: 10,3041           30366                           CA       RESTREG                               #  SUPERBANK AND JOB PRIORITY
001021: 10,3042           04727                           TC       SUPERSW                               #  RESTORE SUPERBANK
001022:
001023: 10,3043           77725                           MASK     PRIO37
001024: 10,3044           05146                           TC       PRIOCHNG
001025:
001026: 10,3045           46245                           CS       THREE
001027: 10,3046           60374                           AD       TEMPFLSH
001028: 10,3047           14640                           TCF      BANKJUMP
001029:
001030: 10,3050           00003        PINBRNCH           RELINT                                         #  FOR GOPIN USERS
001031: 10,3051           31073                           CA       MARK2PAC                              #  NEEDED TO SAVE MPAC +2 FOR MARK USERS


001033: 10,3052           54156                           TS       MPAC       +2                         #  ONLY
001034:
001035: 10,3053           30100                           CA       FLAGWRD4                              #  PINBRANCH CONDITION
001036: 10,3054           77740                           MASK     PINMASK
001037: 10,3055           10000                           CCS      A
001038: 10,3056           13061                           TCF      +3
001039: 10,3057           13471                           TCF      ERASER                                #  ** NOTHING IN ENDIDLE
001040: 10,3060           12377                           TCF      MARKPLAY
001041:
001042: 10,3061           05504        NORMBNCH           TC       UPFLAG                                #  SET PINBRANCH BIT
001043: 10,3062           00105                           ADRES    PINBRFLG
001044:
001045: 10,3063           34736                           CAF      PRIODBIT                              #  PRIO INTERRUPTED
001046: 10,3064           70100                           MASK     FLAGWRD4
001047: 10,3065           10000                           CCS      A
001048: 10,3066           12544                           TCF      KEEPPRIO
001049:
001050: 10,3067           12615                           TCF      PLAYJUM1
001051:
001052: 10,3070           02417        NVDSP              TC       COPYPACS
001053:
001054: 10,3071           30160                           CA       TEMPOR2                               #  SET UP BLANK BITS FOR NVMONOPT IN CASE
001055: 10,3072           74757                           MASK     SEVEN                                 #  USER REQUESTS BLANKING MONITOR
001056: 10,3073           54001                           TS       L
001057:
001058: 10,3074           44737                           CS       BIT13
001059: 10,3075           50164                           INDEX    COPINDEX
001060: 10,3076           71070                           MASK     DSPFLG
001061: 10,3077           50164                           INDEX    COPINDEX
001062: 10,3100           55070                           TS       DSPFLG
001063:
001064: 10,3101           74744                           MASK     BIT8                                  #  BIT8 SET IF DEC MARK PERFORM DISPLAY
001065: 10,3102           54141                           TS       TEM1
001066:
001067: 10,3103           30156                           CA       MPAC       +2
001068: 10,3104           54165                           TS       MPAC2SAV
001069:
001070: 10,3105           55073                           TS       MARK2PAC                              #  * FOR DISK ONLY *
001071: 10,3106           50164                           INDEX    COPINDEX
001072: 10,3107           10367                           CCS      NVWORD
001073: 10,3110           13117                           TCF      NVDSP1
001074: 10,3111           13233                           TCF      CLEANEND
001075: 10,3112           40370                           CS       MARKNV
001076: 10,3113           54370                           TS       MARKNV                                #  IN CASE MARKPLAY AWAKENED AFTER SLEEPING
001077: 10,3114           76074                           MASK     LOW7
001078: 10,3115           63515                           AD       V05N00M1
001079: 10,3116           60141                           AD       TEM1
001080: 10,3117           64753        NVDSP1             AD       ONE
001081: 10,3120           04155        NV50DSP            TC       NVMONOPT
001082: 10,3121           13245                           TCF      REST                                  #  IF BUSY
001083:


001085: 10,3122           04433                           TC       FLASHOFF                              #  IN CASE OF EXTENDED VERB NON FLASH
001086:
001087: 10,3123           02415                           TC       COPYTOGO                              #  MPACS DESTROYED BY NVSUB
001088: 10,3124           05516                           TC       DOWNFLAG                              #  UNSET SLEEPING BITS
001089: 10,3125           00102                           ADRES    MRKNVFLG
001090: 10,3126           05516                           TC       DOWNFLAG
001091: 10,3127           00103                           ADRES    NRMNVFLG
001092: 10,3130           05516                           TC       DOWNFLAG
001093: 10,3131           00104                           ADRES    PRONVFLG
001094: 10,3132           30160        BLANKCHK           CA       TEMPOR2                               #  BLANK BITS 1,2,3 IF SET
001095: 10,3133           04255                           TC       BLANKSUB
001096: 10,3134           13070                           TCF      NVDSP
001097: 10,3135           34747        PERFCHEK           CAF      BIT5                                  #  BIT5 FOR PERFORM
001098: 10,3136           70160                           MASK     TEMPOR2
001099: 10,3137           10000                           CCS      A                                     #  IS THIS A GOPERF DISPLAY
001100: 10,3140           13163                           TCF      1STOR2ND                              #  YES
001101:
001102: 10,3141           34750        GOANIDLE           CAF      BIT4
001103: 10,3142           70160                           MASK     TEMPOR2
001104: 10,3143           10000                           CCS      A
001105: 10,3144           13260                           TCF      FLASHSUB                              #  IT IS
001106:
001107: 10,3145           40160                           CS       TEMPOR2                               #  IS THIS A GODSPRET
001108: 10,3146           74746                           MASK     BIT6
001109: 10,3147           10000                           CCS      A
001110: 10,3150           13155                           TCF      ISITN00
001111:
001112: 10,3151           50164                           INDEX    COPINDEX
001113: 10,3152           30372                           CA       CADRFLSH
001114: 10,3153           54157                           TS       MPAC       +3
001115: 10,3154           13353                           TCF      ENDIT
001116:
001117: 10,3155           50164        ISITN00            INDEX    COPINDEX                              #  IS THIS A PASTE
001118: 10,3156           30367                           CA       NVWORD
001119: 10,3157           76074                           MASK     LOW7                                  #  CHECK MADE FOR PINBRNCH AND PRIO ON MARK
001120: 10,3160           00006                           EXTEND
001121: 10,3161           13260                           BZF      FLASHSUB                              #  YES, ASSUME PASTE ALWAYS ON FLASH
001122:
001123: 10,3162           15155                           TCF      ENDOFJOB                              #  NOT FLASH, NOT GOPERF, THERFORE EXIT
001124:
001125: 10,3163           30160        1STOR2ND           CA       TEMPOR2
001126: 10,3164           74737                           MASK     BIT13
001127: 10,3165           10000                           CCS      A
001128: 10,3166           13141                           TCF      GOANIDLE                              #  SECOND
001129:
001130: 10,3167           34737                           CA       BIT13
001131: 10,3170           50164                           INDEX    COPINDEX
001132: 10,3171           27070                           ADS      DSPFLG
001133:
001134: 10,3172           22007                           ZL


001136: 10,3173           00006                           EXTEND                                         #  IS IT MARK
001137: 10,3174           62440                           BZMF     MARKPERF                              #  YES
001138:
001139: 10,3175           74740                           MASK     BIT12
001140: 10,3176           00006                           EXTEND
001141: 10,3177           13203                           BZF      V50PASTE
001142: 10,3200           41067                           CS       NVWORD1                               #  NVOWRD1= -0 IS V97.  NVWORD1= -400 IS V99
001143: 10,3201           63541                           AD       V97N00
001144: 10,3202           13120                           TCF      NV50DSP
001145: 10,3203           33500        V50PASTE           CAF      V50N00
001146: 10,3204           13120                           TCF      NV50DSP                               #  DISPLAY SECOND PART OF GOPERF
001147:
001148: 10,3205           44747        WITCHONE           CS       BIT5                                  #  TURN OFF KEY RELEASE LIGHT
001149: 10,3206           00006                           EXTEND
001150: 10,3207           03011                           WAND     DSALMOUT
001151:
001152: 10,3210           30100                           CA       FLAGWRD4
001153: 10,3211           73516                           MASK     NVBUSMSK                              #  IS IT NVSUB ASLEEP
001154: 10,3212           10000                           CCS      A
001155: 10,3213           34753                           CAF      ONE
001156: 10,3214           54001                           TS       L
001157: 10,3215           34755                           CAF      ZERO
001158: 10,3216           50001                           INDEX    L
001159: 10,3217           57042                           XCH      CADRSTOR
001160:
001161: 10,3220           00004                           INHINT
001162: 10,3221           00002                           TC       Q
001163:
001164: 10,3222           34217        XCHTOEND           CAF      ENDINST                               #  TC ENDOFJOB REPLACES GENADR IN LOC FOR
001165: 10,3223           56064        XCHNYLOC           XCH      LOCCTR                                #  WAS THIS ADDRESS SLEEPING
001166: 10,3224           00006                           EXTEND
001167: 10,3225           63231                           BZMF     RELINTQ                               #  NO
001168: 10,3226           56064                           XCH      LOCCTR                                #  YES
001169: 10,3227           50064                           INDEX    LOCCTR
001170: 10,3230           54164                           TS       LOC
001171:
001172: 10,3231           00003        RELINTQ            RELINT
001173: 10,3232           00002                           TC       Q                                     #  BACK TO USER
001174:
001175: 10,3233           37720        CLEANEND           CAF      PRIO32                                #  ONE LOWER THAN DISPLAYS SLEEPING
001176: 10,3234           05105                           TC       FINDVAC
001177: 10,3235     0371                                  EBANK=   NVSAVE
001178: 10,3235           04231 04060                     2CADR    JAMTERM
001179:
001180: 10,3237           13261                           TCF      FLASHSUB   +1
001181:
001182: 10,3240           30100        ISITPRIO           CA       FLAGWRD4
001183: 10,3241           73266                           MASK     ITISMASK                              #  IS PINBRFLG, MARKIDFLG SET
001184: 10,3242           00006                           EXTEND


001186: 10,3243           12575                           BZF      PRIOBORT
001187: 10,3244           15155                           TCF      ENDOFJOB
001188:
001189: 10,3245           11042        REST               CCS      CADRSTOR                              #  IS SOMEONE IN ENDIDLE
001190: 10,3246           15155                           TCF      ENDOFJOB                              #  YES
001191: 10,3247           13251                           TCF      RESTSLEP
001192:
001193: 10,3250           15155                           TCF      ENDOFJOB
001194:
001195: 10,3251           30162        RESTSLEP           CA       GENMASK                               #  SET NVSLEEP BITS
001196: 10,3252           73517                           MASK     ASTROMSK
001197: 10,3253           03544                           TC       UPENT2
001198: 10,3254           24100        OCT24100           OCT      24100                                 #  ***DONT MOVE
001199:
001200: 10,3255           50164                           INDEX    COPINDEX
001201: 10,3256           33507                           CAF      NVCADR
001202: 10,3257           04442                           TC       NVSUBUSY                              #  BUSY OR ABORT IF ILLEGAL
001203:
001204: 10,3260           04427        FLASHSUB           TC       FLASHON
001205:
001206: 10,3261           30164                           CA       COPINDEX                              #  COPINDEX DESTROYED BY ENDIDLE
001207: 10,3262           54157                           TS       COPMPAC
001208:
001209: 10,3263           30162                           CA       GENMASK
001210: 10,3264           73010                           MASK     IDLEMASK
001211: 10,3265           03544                           TC       UPENT2
001212: 10,3266           40040        ITISMASK           OCT      40040                                 #  *** ENDIDLE ALLOW *** DONT MOVE
001213:
001214: 10,3267           31074                           CA       R1SAVE                                #  IS THIS A REPEAT AND RETURN DISPLAY
001215: 10,3270           50164                           INDEX    COPINDEX
001216: 10,3271           74751                           MASK     BIT3
001217: 10,3272           10000                           CCS      A
001218: 10,3273           13360                           TCF      UNSETR1                               #  YES
001219:
001220: 10,3274           11042                           CCS      CADRSTOR                              #  SEE IF SOMEONE ALREADY IN ENDIDLE
001221: 10,3275           13240                           TCF      ISITPRIO
001222: 10,3276           13300                           TCF      +2
001223: 10,3277           13240                           TCF      ISITPRIO
001224:
001225: 10,3300           04207                           TC       ENDIDLE
001226: 10,3301           13372        IDLERET1           TCF      TERMATE
001227:
001228: 10,3302           13411                           TCF      PROCEED                               #  ENDIDLE RETURNS HERE ON PROCEED
001229:
001230: 10,3303           43526                           CS       LOWLOAD
001231: 10,3304           60154                           AD       MPAC                                  #  VERBREG
001232: 10,3305           00006                           EXTEND
001233: 10,3306           26000                           DIM      A
001234: 10,3307           00006                           EXTEND
001235: 10,3310           13461                           BZF      LOADITIS                              #  V21 OR V22 OR V23 ON DSKY
001236:


001238: 10,3311           34752        OKTOENT            CAF      TWO
001239: 10,3312           54161        ENDOUT             TS       OUTHERE
001240:
001241: 10,3313           30100                           CA       FLAGWRD4                              #  CHECK NATURE OF ENDIDLE RETURN
001242: 10,3314           74101                           MASK     OCT60000
001243: 10,3315           10000                           CCS      A
001244: 10,3316           13321                           TCF      TIMECHEK                              #  PRIO ENDIDLE RETURN
001245: 10,3317           13427                           TCF      NORMRET                               #  NORMAL ENDIDLE RETURN
001246: 10,3320           13413                           TCF      MARKRET                               #  MARK ENDIDLE RETURN
001247:
001248: 10,3321           40025        TIMECHEK           CS       TIME1
001249: 10,3322           61165                           AD       PRIOTIME
001250: 10,3323           10000                           CCS      A
001251: 10,3324           40000                           COM
001252: 10,3325           67731                           AD       OCT37776
001253: 10,3326           64753                           AD       ONE
001254: 10,3327           63570                           AD       -2SEC
001255: 10,3330           00006                           EXTEND
001256: 10,3331           62544                           BZMF     KEEPPRIO
001257:
001258: 10,3332           13427                           TCF      NORMRET
001259:
001260: 10,3333           34753        NORMWAKE           CAF      ONE
001261: 10,3334           13024                           TCF      WAKEPLAY
001262:
001263: 10,3335           10161        ENDRET             CCS      OUTHERE
001264: 10,3336           64753                           AD       ONE
001265: 10,3337           13341                           TCF      +2                                    #  NORMAL ENDIDLE EXIT
001266: 10,3340           15155                           TCF      ENDOFJOB
001267: 10,3341           50157                           INDEX    COPMPAC
001268: 10,3342           60372                           AD       CADRFLSH
001269: 10,3343           54157                           TS       MPAC       +3
001270:
001271: 10,3344           30162                           CA       GENMASK                               #  REMOVE ENDIDLE AND PINBRANCH BITS
001272: 10,3345           73347                           MASK     PINIDMSK
001273: 10,3346           03554                           TC       DOWNENT2
001274: 10,3347           74044        PINIDMSK           OCT      74044                                 #  *** DONT MOVE
001275:
001276: 10,3350           46245                           CS       THREE                                 #  BLANK EVERYTHING EXCEPT MM
001277: 10,3351           04154                           TC       NVSUB
001278: 10,3352           13353                           TCF      +1
001279:
001280: 10,3353           30163        ENDIT              CA       USERPRIO                              #  RETURN TO USERS PRIORITY
001281: 10,3354           77725                           MASK     PRIO37
001282: 10,3355           05146                           TC       PRIOCHNG
001283: 10,3356           30157                           CA       MPAC       +3
001284: 10,3357           14640                           TCF      BANKJUMP
001285:
001286: 10,3360           50164        UNSETR1            INDEX    COPINDEX                              #  RESET REPEAT AND RETURN REQUEST
001287: 10,3361           44751                           CS       BIT3


001289: 10,3362           71074                           MASK     R1SAVE
001290: 10,3363           55074                           TS       R1SAVE
001291:
001292: 10,3364           34755                           CAF      ZERO                                  #  *** 205 ONLY MARKBRAN USERS IN
001293: 10,3365           04727                           TC       SUPERSW                               #  SUPERBANK 0
001294:
001295: 10,3366           36245                 -1        CAF      THREE                                 #  RETURN TO USERS IMMEDIATE RETURN LOC
001296: 10,3367           50164        IMMEDRET           INDEX    COPINDEX
001297: 10,3370           60372                           AD       CADRFLSH
001298: 10,3371           14640                           TCF      BANKJUMP
001299:
001300: 10,3372           34755        TERMATE            CAF      ZERO                                  #  ASTRONAUT TERMINATE (V34) RETURNS TO
001301: 10,3373           13312                           TCF      ENDOUT
001302:
001303: 10,3374           40160        LINUSCHR           CS       PLAYTEM4                              #  IS THIS A LINUS
001304: 10,3375           74736                           MASK     BIT14
001305: 10,3376           10000                           CCS      A
001306: 10,3377           16737                           TCF      Q+1                                   #  NO
001307: 10,3400           40157                           CS       PLAYTEM3                              #  YES, IS IT ALREADY IN ENDIDLE
001308: 10,3401           50164                           INDEX    COPINDEX
001309: 10,3402           60372                           AD       CADRFLSH
001310: 10,3403           00006                           EXTEND
001311: 10,3404           13406                           BZF      +2                                    #  YES
001312:
001313: 10,3405           00002                           TC       Q                                     #  NO
001314: 10,3406           11012                           CCS      DSPLOCK                               #  IS THE ASTRONAUT BUSY
001315: 10,3407           05155                           TC       ENDOFJOB                              #  END THE NEW DISPLAY, ITS ALREADY ACTIVE
001316: 10,3410           00002                           TC       Q
001317:
001318:                                                                                                  #  MORE LOGIC COULD BE INCORPORATED HERE TO MAKE SURE A RECYCLE IS A RECYCLAND CONVERSLY THAT A LOAD IS A LOAD.
001319:
001320: 10,3411           34753        PROCEED            CAF      ONE                                   #  ASTRONAUT PROCEED (V33) RETURNS
001321: 10,3412           13312                           TCF      ENDOUT
001322:
001323:                                                                                                  #  LASTPLAY CHECKS TO SEE IF (1) THE LAST NORMAL DISPLAY WAS EITHER INTERRUPTED BY A PRIO OR A MARK (MARK
001324:                                                                                                  #  COULD ONLY HAPPEN DURING PINBRANCH) OR IF (2) THE LAST NORMAL DISPLAY WAS REQUESTED WHILE A HIGHER PRIORITY
001325:                                                                                                  #  DISPLAY WAS GOING RESULTING IN THE NORMAL BEING PUT TO SLEEP.
001326:
001327:                                                                                                  #  IF EITHER OF THE ABOVE 2 CONDITIONS EXISTS, THE NORMAL DISPLAY IS AWAKENED TO GO TO PLAYJUM1 WHICH STARTS
001328:                                                                                                  #  UP THE MOST RECENT VALID NORMAL DISPLAY.  IF THESE 2 CONDITIONS DO NOT EXIST, CONTROL GOES TO PLAYJUM1 WHICH IS
001329:                                                                                                  #  STARTED IMMEDIATELY WITH THE ASSUMPTION THAT THE MOST RECENT NORMAL DISPLAY IS ALREADY IN-ENDIDLE (DURING A
001330:                                                                                                  #  PINBRANCH) OR THAT A RESTART HAS OCCURRED AND THE DISPLAY CAN BE STARTED AS A .1 RESTART.
001331:
001332: 10,3413           46242        MARKRET            CS       SIX
001333: 10,3414           70100                           MASK     FLAGWRD4
001334: 10,3415           00004                           INHINT                                         #  *** MAY MOVE DISPLAY FLAGWORD OUT OF
001335: 10,3416           54100                           TS       FLAGWRD4
001336:
001337: 10,3417           00003                           RELINT                                         #  INHINT REALM
001338: 10,3420           13335                           TCF      ENDRET
001339:


001341: 10,3421           37747        MARKOVER           CAF      MINUS1                                #  RUPTREG2 IS - MEANS ENDOFJOB TO ENDRET
001342: 10,3422           54161                           TS       OUTHERE
001343:
001344: 10,3423           30100                           CA       FLAGWRD4                              #  IS ENDIDFLG SET
001345: 10,3424           74355                           MASK     PRIO30                                #  IS NORMAL OR PRIO IN ENDIDLE
001346: 10,3425           10000                           CCS      A
001347: 10,3426           13061                           TCF      NORMBNCH
001348:
001349: 10,3427           30100        NORMRET            CA       FLAGWRD4                              #  IS MARK SLEEPING
001350: 10,3430           73524                           MASK     BITS5+11                              #  OR WAITING
001351: 10,3431           10000                           CCS      A
001352: 10,3432           13023                           TCF      MARKWAKE
001353:
001354: 10,3433           30100                           CA       FLAGWRD4                              #  NO
001355: 10,3434           73525                           MASK     BITS4+10                              #  IS NORMAL INTERRUPTED OR WAITING
001356: 10,3435           10000                           CCS      A
001357: 10,3436           13333                           TCF      NORMWAKE                              #  YES
001358:
001359: 10,3437           31072                           CA       EBANKTEM                              #  NO, WAS IT A FLASH REQUEST
001360: 10,3440           74771                           MASK     OCT50                                 #  OR A GODSPRET
001361: 10,3441           10000                           CCS      A
001362: 10,3442           13335                           TCF      ENDRET                                #  YES
001363: 10,3443           30371                           CA       NVSAVE
001364: 10,3444           00006                           EXTEND
001365: 10,3445           13335                           BZF      ENDRET
001366:
001367: 10,3446           35025                           CAF      PRIO15
001368: 10,3447           00004                           INHINT
001369: 10,3450           05072                           TC       NOVAC
001370: 10,3451     0367                                  EBANK=   NVWORD
001371: 10,3451           02615 20060                     2CADR    PLAYJUM1
001372:
001373: 10,3453           13335                           TCF      ENDRET
001374:
001375: 10,3454           30100        MARSLEEP           CA       FLAGWRD4                              #  IS MARK ALREADY IN
001376: 10,3455           73524                           MASK     BITS5+11
001377: 10,3456           10000                           CCS      A
001378: 10,3457           15155                           TCF      ENDOFJOB                              #  YES
001379: 10,3460           12754                           TCF      GOSLEEPS
001380:
001381: 10,3461           50157        LOADITIS           INDEX    COPMPAC
001382: 10,3462           30367                           CA       NVWORD
001383: 10,3463           76074                           MASK     LOW7
001384: 10,3464           40000                           COM
001385: 10,3465           60155                           AD       MPAC       +1                         #  NOUNREG
001386: 10,3466           00006                           EXTEND
001387: 10,3467           13311                           BZF      OKTOENT                               #  NO, THEN LOAD IS VALID
001388: 10,3470           13050                           TCF      PINBRNCH                              #  YES, ACCEPT LOAD BUT ASK FOR LAST AGAIN
001389:


001391: 10,3471           46245        ERASER             CS       THREE                                 #  BLANK EVERYTHING EXCEPT MM
001392: 10,3472           04154                           TC       NVSUB
001393: 10,3473           15155                           TCF      ENDOFJOB
001394: 10,3474           15155                           TCF      ENDOFJOB
001395:
001396: 10,3475           00036        PERFMASK           OCT      0036                                  #  FLASH, PERFORM, BLANK R2 AND R3
001397: 10,3476           00231        V01N25             VN       00125
001398: 10,3477           01407        V06N07             VN       00607                                 #  GOPERF3 VN DISPLAY BEFORE V50
001399: 10,3500           14400        V50N00             VN       5000
001400: 10,3501           00030        PERF2MSK           OCT      00030                                 #  FLASH, PERFORM
001401: 10,3502           01006        V04N06             VN       00406
001402: 10,3503           00014        PERF4MSK           OCT      14                                    #  FLASH, BLANK R3
001403: 10,3504  10,3050               GOAGIN             EQUALS   PINBRNCH
001404: 10,3504           20010        REDOMASK           OCT      20010                                 #  BITS 4 AND 14
001405: 10,3505           40230        MARK3MSK           OCT      40230                                 #  MARK, DECIMAL NOUN, PERFORM, FLASH
001406: 10,3506           40036        MARK4MSK           OCT      40036                                 #  MARK, PERFORM, FLASH, BLANK 2 AND 3
001407: 10,3507           20542        NVCADR             CADR     REDOPRIO
001408: 10,3510           20377        WAKECADR           CADR     MARKPLAY
001409: 10,3511           20615                           CADR     PLAYJUM1
001410:
001411: 10,3512           03400        OCT3400            OCT      3400                                  #  EBANK MASK
001412: 10,3513           11210        NBUSMASK           OCT      11210
001413: 10,3514           66521        PMMASK             OCT      66521
001414: 10,3515     4144               VERBMASK           =        MID7                                  #  (OCT 37600)
001415: 10,3515           01177        V05N00M1           OCT      1177                                  #  V05 MINUS ONE
001416: 10,3516  10,2330               GOXDSP             EQUALS   GOMARK
001417: 10,3516  10,2350               GOXDSPR            EQUALS   GOMARKR
001418: 10,3516  10,2334               GOXDSPF            EQUALS   GOMARKF
001419: 10,3516  10,2353               GOXDSPFR           EQUALS   GOMARKFR
001420: 10,3516     5472               ENDEXT             EQUALS   ENDMARK
001421: 10,3516     0165               MPAC2SAV           EQUALS   BANKSET
001422: 10,3516           00700        NVBUSMSK           OCT      700
001423: 10,3517           00704        ASTROMSK           OCT      704
001424: 10,3520           40030        MPERFMSK           OCT      40030                                 #  BIT 15,5,4 FOR MARK,PERFORM,FLASH
001425: 10,3521           34300        OCT34300           OCT      34300
001426: 10,3522           40100        BITS15+7           OCT      40100
001427: 10,3523           00110        BITS7+4            OCT      110
001428: 10,3524     1070               DSPFLG             EQUALS   EBANKSAV
001429: 10,3524     1071               MARKFLAG           EQUALS   MARKEBAN
001430: 10,3524     1072               SAVEFLAG           EQUALS   EBANKTEM
001431: 10,3524           02020        BITS5+11           OCT      2020                                  #  * DONT MOVE
001432: 10,3525           01010        BITS4+10           OCT      1010                                  #  * DONT MOVE
001433: 10,3526           00026        LOWLOAD            DEC      22         B-14
001434: 10,3527           77730        BUSYMASK           OCT      77730
001435: 10,3530           00050        CADRMASK           OCT      50
001436: 10,3531     7740               PINMASK            EQUALS   13,14,15
001437: 10,3531  10,3070               GOPLAY             EQUALS   NVDSP
001438:                                                                                                  #  PRIOSAVE      EQUALS  R1SAVE
001439: 10,3531     0157               COPMPAC            EQUALS   MPAC       +3
001440: 10,3531     0160               TEMPOR2            EQUALS   MPAC       +4
001441:


001443: 10,3531     0161               OUTHERE            EQUALS   MPAC       +5
001444: 10,3531     0164               COPINDEX           EQUALS   LOC
001445: 10,3531     0163               USERPRIO           EQUALS   MODE
001446: 10,3531     0162               GENMASK            EQUALS   MPAC       +6
001447: 10,3531           20144        PRIOOCT            OCT      20144                                 #  PRIO
001448: 10,3532           42424        MARKOCT            OCT      42424                                 #  MARK
001449: 10,3533           11254                           OCT      11254                                 #  NORM
001450:
001451: 10,3534           74704        IDLESLEP           OCT      74704
001452: 10,3535           67777        OCT67777           OCT      67777
001453: 10,3536     5464               LINUS              EQUALS   BLANKET
001454: 10,3536     0154               FACEREG            EQUALS   MPAC
001455: 10,3536     0155               PLAYTEM1           EQUALS   MPAC       +1
001456: 10,3536     0157               PLAYTEM3           EQUALS   MPAC       +3
001457: 10,3536     0160               PLAYTEM4           EQUALS   MPAC       +4
001458: 10,3536           40420        OCT40420           OCT      40420
001459: 10,3537           02546        MAKEGEN            GENADR   MAKEPLAY
001460: 10,3540           10200        OCT10200           OCT      10200
001461: 10,3541           30200        V97N00             VN       09700                                 #  PASTE FOR V97 OR V99
001462: 10,3542           20100        OCT20100           OCT      20100
001463: 10,3543           24030        CLOCKCON           OCT      24030                                 #  FLASH, PERFORM, V99 OR V97 PASTE, REFLASH

End of include-file DISPLAY_INTERFACE_ROUTINES.agc.  Parent file is MAIN.agc


