
Source Code
000001:                                                                                                 #  Copyright:     Public domain.
000002:                                                                                                 #  Filename:      DISPLAY_INTERFACE_ROUTINES.agc
000003:                                                                                                 #  Purpose:       Part of the source code for Luminary 1A build 099.
000004:                                                                                                 #                 It is part of the source code for the Lunar Module's (LM)
000005:                                                                                                 #                 Apollo Guidance Computer (AGC), for Apollo 11.
000006:                                                                                                 #  Assembler:     yaYUL
000007:                                                                                                 #  Contact:       Ron Burkey <info@sandroid.org>.
000008:                                                                                                 #  Website:       www.ibiblio.org/apollo.
000009:                                                                                                 #  Pages: 1341-1373
000010:                                                                                                 #  Mod history:   2009-05-27 RSB  Adapted from the corresponding
000011:                                                                                                 #                                 Luminary131 file, using page
000012:                                                                                                 #                                 images from Luminary 1A.
000013:
000014:                                                                                                 #  This source code has been transcribed or otherwise adapted from
000015:                                                                                                 #  digitized images of a hardcopy from the MIT Museum.  The digitization
000016:                                                                                                 #  was performed by Paul Fjeld, and arranged for by Deborah Douglas of
000017:                                                                                                 #  the Museum.  Many thanks to both.  The images (with suitable reduction
000018:                                                                                                 #  in storage size and consequent reduction in image quality as well) are
000019:                                                                                                 #  available online at www.ibiblio.org/apollo.  If for some reason you
000020:                                                                                                 #  find that the images are illegible, contact me at info@sandroid.org
000021:                                                                                                 #  about getting access to the (much) higher-quality images which Paul
000022:                                                                                                 #  actually created.
000023:
000024:                                                                                                 #  Notations on the hardcopy document read, in part:
000025:
000026:                                                                                                 #         Assemble revision 001 of AGC program LMY99 by NASA 2021112-61
000027:                                                                                                 #         16:27 JULY 14, 1969
000028:
000029:                                                                                                 #  Page 1341
000030:                                                                                                 #  DISPLAYS CAN BE CLASSIFIED INTO THE FOLLOWING CATEGORIES --
000031:                                                                                                 #         1.  PRIORITY DISPLAYS -- DISPLAYS WHICH TAKE PRIORITY OVER ALL OTHER DISPLAYS.  USUALLY THESE DISPLAYS ARE SENT
000032:                                                                                                 #             OUT UNDER CRITICAL ALARM CONDITIONS.
000033:                                                                                                 #         2.  EXTENDED VERB DISPLAYS -- ALL EXTENDED VERBS AND MARK ROUTINES SHOULD USE EXTENDED VERB (MARK) DISPLAYS.
000034:                                                                                                 #         3.  NORMAL DISPLAYS -- ALL MISSION PROGRAM DISPLAYS WHICH INTERFACE WITH THE ASTRONAUT DURING THE NORMAL
000035:                                                                                                 #             SEQUENCE OF EVENTS.
000036:                                                                                                 #         4.  MISC. DISPLAYS -- ALL DISPLAYS NOT HANDLED BY THE DISPLAY INTERFACE ROUTINES.  THESE INCLUDE SUCH DISPLAYS AS
000037:                                                                                                 #             MM DISPLAYS AND SPECIAL PURPOSE DISPLAYS HANDLED BY PINBALL.
000038:                                                                                                 #         5.  ASTRONAUT INITIATED DISPLAYS -- ALL DISPLAYS INITIATED EXTERNALLY.
000039:
000040:                                                                                                 #  THE FOLLOWING TERMS ARE USED TO DESCRIBE THE STATUS OF DISPLAYS --
000041:                                                                                                 #         1.  ACTIVE -- THE DISPLAY WHICH IS (1) BEING DISPLAYED TO THE ASTRONAUT AND WAITING FOR A RESPONSE OR
000042:                                                                                                 #             (2) WAITING FIRST IN LINE FOR THE ASTRONAUT TO FINISH USING THE DSKY OR (3) BEING DISPLAYED ON THE DSKY
000043:                                                                                                 #             BUT NOT WAITING FOR A RESPONSE.
000044:                                                                                                 #         2.  INACTIVE -- A DISPLAY WHICH HAS (1) BEEN ACTIVE BUT WAS INTERRUPTED BY A DISPLAY OF HIGHER PRIORITY,
000045:                                                                                                 #             (2) BEEN PUT INTO THE WAITING LIST AT TIME IT WAS REQUESTED DUE TO THE FACT A HIGHER PRIORITY DISPLAY
000046:                                                                                                 #             WAS ALREADY DOING, (3) BEEN INTERRUPTED BY THE ASTRONAUT (CALLED A PINBRANCH CONDITION, SINCE THIS TYPE
000047:                                                                                                 #             OF INACTIVE DISPLAY IS USUALLY REACTIVATED ONLY BY PINBALL) OR (4) A DISPLAY WHICH HAS FINISHED BUT STILL
000048:                                                                                                 #             HAS INFO SAVED FOR RESTART PURPOSES.
000049:
000050:                                                                                                 #  DISPLAY PRIORITIES WORK AS FOLLOWS --
000051:                                                                                                 #         INTERRUPTS --
000052:                                                                                                 #                 1.  THE ASTRONAUT CAN INTERRUPT ANY DISPLAY WITH AN EXTERNAL DISPLAY REQUEST.
000053:                                                                                                 #                 2.  INTERNAL DISPLAYS CAN NOT BE SENT OUT WHEN THE ASTRONAUT IS USING THE DSKY.
000054:                                                                                                 #                 3.  PRIORITY DISPLAYS INTERRUPT ALL OTHER TYPES OF INTERNAL DISPLAYS.  A PRIORITY DISPLAY INTERRUPTING ANOTHER
000055:                                                                                                 #                     PRIORITY DISPLAY WILL CAUSE AN ABORT UNLESS BIT14 IS SET FOR THE LINUS ROUTINE.
000056:                                                                                                 #                 4.  A MARK DISPLAY INTERRUPTS ANY NORMAL DISPLAY.
000057:                                                                                                 #                 5.  A MARK THAT INTERRUPTS A MARK COMPLETELY REPLACES IT.
000058:
000059:                                                                                                 #         ORDER OF WAITING DISPLAYS --
000060:                                                                                                 #                 1.  ASTRONAUT
000061:                                                                                                 #                 2.  PRIORITY
000062:                                                                                                 #                 3.  INTERRUPTED MARK
000063:                                                                                                 #                 4.  INTERRUPTED NORMAL
000064:                                                                                                 #                 5.  MARK TO BE REQUESTED (SEE DESCRIPTION OF ENDMARK)
000065:                                                                                                 #                 6.  MARK WAITING
000066:                                                                                                 #                 7.  NORMAL WAITING
000067:
000068:                                                                                                 #  Page 1342
000069:                                                                                                 #  THE DISPLAY ROUTINES ARE INTENDED TO SERVE AS AN INTERFACE BETWEEN THE USER AND PINBALL.  THE
000070:                                                                                                 #  FOLLOWING STATEMENTS CAN BE MADE ABOUT NORMAL DISPLAYS AND PRIORITY DISPLAYS (A DESCRIPTION OF MARK ROUTINES
000071:                                                                                                 #  WILL FOLLOW LATER):
000072:                                                                                                 #         1.  ALL ROUTINES THAT END IN R HAVE AN IMMEDIATE RETURN TO THE USER.  FOR ALL FLASHING DISPLAYS THIS RETURN
000073:                                                                                                 #             IS TO THE USER'S CALL CADR +4.  FOR THE ONLY NON-FLASHING IMMEDIATE RETURN DISPLAY (GODSPR) THIS RETURN
000074:                                                                                                 #             IS TO THE USER'S CALLING LOC +1.
000075:                                                                                                 #         2.  ALL ROUTINES NOT ENDING IN R DO NOT DO AN IMMEDIATE RETURN TO THE USER.
000076:                                                                                                 #         3.  ALL ROUTINES THAT END IN R START A SEPARATE JOB (MAKEPLAY) WITH USER'S JOB PRIORITY.
000077:                                                                                                 #         4.  ALL ROUTINES NOT ENDING IN R BRANCH DIRECTLY TO MAKEPLAY WHICH MAKES THESE DISPLAYS A PART OF THE
000078:                                                                                                 #             USER'S JOB.
000079:                                                                                                 #         5.  ALL DISPLAY ROUTINES ARE CALLED VIA BANKCALL.
000080:                                                                                                 #         6.  TO RESTART A DISPLAY THE USER WILL GENERALLY USE A PHASE OF ONE WITH DESIRED RESTART GROUP (SEE
000081:                                                                                                 #             DESCRIPTION OF RESTARTS).
000082:                                                                                                 #         7.  ALL FLASHING DISPLAYS HAVE 3 RETURNS TO THE USER FROM ASTRONAUT RESPOSES.  A TERMINATE (V34) BRANCHES
000083:                                                                                                 #             TO THE USER'S CALL CADR +1.  A PROCEED (V33) BRANCHES TO THE USER'S CALL CADR +2.  AN ENTER OR RECYCLE
000084:                                                                                                 #             (V32) BRANCHES TO THE USER'S CALL CADR +3.
000085:                                                                                                 #         8.  ALL ROUTINES MUST BE USED UNDER EXECUTIVE CONTROL
000086:
000087:                                                                                                 #  A DESCRIPTION OF EACH ROUTINE WITH AN EXAMPLE FOLLOWS:
000088:                                                                                                 #         GODSP IS USED TO DISPLAY A VERB NOUN ARRIVING IN A.  NO RETURN IS MADE TO THE USER.
000089:                                                                                                 #                 1.  GODSP IS NOT RESTARTABLE
000090:                                                                                                 #                 2.  A VERB PASTE WITH GODSP ALWAYS TURNS ON THE FLASH.
000091:                                                                                                 #                                 CAF     VXXNYY
000092:                                                                                                 #                                 TC      BANKCALL
000093:                                                                                                 #                                 CADR    GODSP
000094:                                                                                                 #                         VXXNYY  OCT     0XXYY
000095:                                                                                                 #         GODSPR IS THE SAME AS GODSP ONLY RETURN IS TO THE USER.
000096:                                                                                                 #                                 CAF     VXXNYY
000097:                                                                                                 #                                 TC      BANKCALL
000098:                                                                                                 #                                 CADR    GODSPR
000099:                                                                                                 #                                 ...     ...             # IMMEDIATE RETURN OF GODSPR
000100:                                                                                                 #         GOFLASH DISPLAYS A FLASHING VERB NOUN WITH NO IMMEDIATE RETURN TO THE USER.  3 RETURNS ARE POSSIBLE FORM
000101:                                                                                                 #         THE ASTRONAUT (SEE NO. 7 ABOVE).
000102:                                                                                                 #                                 CAF     VXXNYY          # VXX NYY WILL BE A FLASHING VERB NOUN.
000103:                                                                                                 #                                 TC      BANKCALL
000104:                                                                                                 #                                 CADR    GOFLASH
000105:                                                                                                 #                                 ...     ...             # TERMINATE RETURN
000106:                                                                                                 #                                 ...     ...             # PROCEED RETURN
000107:                                                                                                 #                                 ...     ...             # ENTER OR RECYCLE RETURN
000108:                                                                                                 #         GOPERF1 IS ENTERED WITH DESIRED CHECKLIST VALUE IN A.  GOPERF1 WILL DISPLAY THIS VALUE IN R1 BY MEANS OF A
000109:                                                                                                 #  Page 1343
000110:                                                                                                 #         V01 N25.  A FLASHING PLEASE PERFORM ON CHECKLIST (V50 N25) IS THEN DISPLAYED.  NO IMMEDIATE RETURN IS MADE TO
000111:                                                                                                 #         USER (SEE NO. 7 ABOVE).
000112:                                                                                                 #         GOPERF1 BLANKS REGISTERS R2 AND R3
000113:                                                                                                 #                                 CAF     OCTXX           # CODE FOR CHECKLIST VALUE XX
000114:                                                                                                 #                                 TC      BANKCALL
000115:                                                                                                 #                                 CADR    GOPERF1
000116:                                                                                                 #                                 ...     ...             # TERMINATE RETURN
000117:                                                                                                 #                                 ...     ...             # PROCEED RETURN
000118:                                                                                                 #                                 ...     ...             # ENTER RETURN
000119:                                                                                                 #         GOPERF2 IS ENTERED WITH A VARIABLE NOUN AND V01 (V00 FOR N10 OR N11) IN A.  GOPERF2 WILL FIRST DISPLAY THE
000120:                                                                                                 #         REQUESTED NOUN BY MEANS OF A V01NYY OR A V00NYY.  PLEASE PERFORM ON NOUN (V50 NYY) THEN BECOMES A FLASHING
000121:                                                                                                 #         DISPLAY.  NO IMMEDIATE RETURN IS MADE TO THE USER (SEE NO. 7 ABOVE).
000122:                                                                                                 #         GOPERF2 DOES NOT BLANK ANY REGISTERS
000123:                                                                                                 #                                 CAF     VXXNYY          # VARIABLE NOUN YY. XX=0 OR 01.
000124:                                                                                                 #                                 TC      BANKCALL
000125:                                                                                                 #                                 CADR    GOPERF2
000126:                                                                                                 #                                 ...     ...             # TERMINATE RETURN
000127:                                                                                                 #                                 ...     ...             # PROCEED RETURN
000128:                                                                                                 #                                 ...     ...             # ENTER RETURN
000129:                                                                                                 #         GOPERF3 IS USED FOR A PLEASE PERFORM ON A PROGRAM NUMBER.  THE DESIRED PROGRAM NO. IS ENTERED IN A.  GOPERF3
000130:                                                                                                 #         DISPLAYS THE NO. BY MEANS OF A V06 N07 FOLLOWED BY A FLASHING V50 N07 FOR A PLEASE PERFORM.  NO IMMEDIATE RETURN
000131:                                                                                                 #         IS MADE TO THE USER (SEE NO. 7 ABOVE).
000132:                                                                                                 #         GOPERF3 BLANKS REGISTERS R2 AND R3
000133:                                                                                                 #                                 CAF     DECXX           # REQUEST PERFORM ON PXX
000134:                                                                                                 #                                 TC      BANKCALL
000135:                                                                                                 #                                 CADR    GOPERF3
000136:                                                                                                 #                                 ...     ...             # TERMINATE RETURN
000137:                                                                                                 #                                 ...     ...             # PROCEED RETURN
000138:                                                                                                 #                                 ...     ...             # ENTER RETURN
000139:                                                                                                 #         GOPERF4 IS USED FOR A PLEASE PERFORM ON AN OPTION.  THE DESIRED OPTION IS ENTERED IN A AND STORED IN OPTION1.
000140:                                                                                                 #         GOPERF4 DISPLAYS R1 AND R2 BY MEANS OF A V04N06 FOLLOWED BY A FLASHING V50N06 FOR A PLEASE PERFORM.  NO
000141:                                                                                                 #         IMMEDIATE RETURN IS MADE TO THE USER (SEE NO. 7 ABOVE).
000142:                                                                                                 #                                 CAF     OCTXX           # REQUEST PERFORM ON OPTION XX
000143:                                                                                                 #                                 TC      BANKCALL
000144:                                                                                                 #                                 CADR    GOPERF4
000145:                                                                                                 #                                 ...     ...             # TERMINATE RETURN
000146:                                                                                                 #                                 ...     ...             # PROCEED RETURN
000147:                                                                                                 #                                 ...     ...             # ENTER RETURN
000148:                                                                                                 #         GOPERF4 BLANKS REGISTER R3.
000149:                                                                                                 #  Page 1344
000150:                                                                                                 #         GODSPRET IS USED TO DISPLAY A VERB NOUN ARRIVING IN A WITH A RETURN TO THE USER AFTER THE DISPLAY HAS BEEN SENT
000151:                                                                                                 #         OUT.
000152:                                                                                                 #                                 CAF     VXXXNYY
000153:                                                                                                 #                                 TC      BANKCALL
000154:                                                                                                 #                                 CADR    GODSPRET
000155:                                                                                                 #                                 ...     ...             # RETURN TO USER.
000156:                                                                                                 #         REGODSP IS USED TO DISPLAY A VERB NOUN ARRIVING IN A.  REGODSP IS THE SAME AS GODSP ONLY REGODSP REPLACES ANY
000157:                                                                                                 #         ACTIVE NORMAL DISPLAY IF ONE WAS ACTIVE.
000158:                                                                                                 #                                 CAF     VXXNYY
000159:                                                                                                 #                                 TC      BANKCALL
000160:                                                                                                 #                                 CADR    REGODSP
000161:                                                                                                 #         REFLASH IS THE SAME AS GOFLASH ONLY REFLASH REPLACES ANY ACTIVE NORMAL DISPLAY IF ONE WAS ACTIVE.
000162:                                                                                                 #                                 CAF     VXXNYY          # VXX NYY WILL BE A FLASHING VERB NOUN
000163:                                                                                                 #                                 TC      BANKCALL
000164:                                                                                                 #                                 CADR    REFLASH
000165:                                                                                                 #                                 ...     ...             # TERMINATE RETURN
000166:                                                                                                 #                                 ...     ...             # PROCEED RETURN
000167:                                                                                                 #                                 ...     ...             # ENTER RETURN
000168:                                                                                                 #         GOFLASHR IF SAME AS GOFLASH ONLY AN IMMEDIATE RETURN IS MADE TO THE USER'S CALL CADR +4.
000169:                                                                                                 #                                 CAF     VXXNYY
000170:                                                                                                 #                                 TC      BANKCALL
000171:                                                                                                 #                                 CADR    GOFLASHR
000172:                                                                                                 #                                 ...     ...             # TERMINATE RETURN
000173:                                                                                                 #                                 ...     ...             # PROCEED RETURN
000174:                                                                                                 #                                 ...     ...             # ENTER OR RECYCLE RETURN
000175:                                                                                                 #                                 ...     ...             # IMMEDIATE RETURN FROM GOFLASHR
000176:                                                                                                 #         GOPERF1R IS THE SAME AS GOPERF1 ONLY GOPERF1R HAS AN IMMEDIATE RETURN TO USER'S CALL CADR +4.
000177:                                                                                                 #         GOPERF1R BLANKS REGISTERS R2 AND R3
000178:                                                                                                 #                                 CAF     OCTXX           # CODE FOR CHECKLIST VALUE XX.
000179:                                                                                                 #                                 TC      BANKCALL
000180:                                                                                                 #                                 CADR    GOPERF1R
000181:                                                                                                 #                                 ...     ...             # TERMINATE RETURN
000182:                                                                                                 #                                 ...     ...             # PROCEED RETURN
000183:                                                                                                 #                                 ...     ...             # ENTER RETURN
000184:                                                                                                 #                                 ...     ...             # IMMEDIATE RETURN FROM GOPERF1R
000185:                                                                                                 #         GOPERF2R IS THE SAME AS GOPERF2 ONLY AN IMMEDIATE RETURN IS MADE TO USER'S CALL CADR +4.
000186:                                                                                                 #  Page 1345
000187:                                                                                                 #         GOPERF2R DOES NOT BLANK ANY REGISTERS
000188:                                                                                                 #                                 CAF     VXXXNYY         # VARIABLE NOUN YY REQUESTED.  XX=00 OR 01
000189:                                                                                                 #                                 TC      BANKCALL
000190:                                                                                                 #                                 CADR    GOPERF2R
000191:                                                                                                 #                                 ...     ...             # TERMINATE RETURN
000192:                                                                                                 #                                 ...     ...             # PROCEED RETURN
000193:                                                                                                 #                                 ...     ...             # ENTER RETURN
000194:                                                                                                 #                                 ...     ...             # IMMEDIATE RETURN HERE FROM GOPERF2R
000195:                                                                                                 #         GOPERF3R IS THE SAME AS GOPERF3 ONLY AN IMMEDIATE RETURN IS MADE TO USER'S CALL CADR +4.
000196:                                                                                                 #         GOPERF3R BLANKS REGISTERS R2 AND R3
000197:                                                                                                 #                                 CAF     PROGXX          # PERFORM PROGRAM XX
000198:                                                                                                 #                                 TC      BANKCALL
000199:                                                                                                 #                                 CADR    GOPERF3R
000200:                                                                                                 #                                 ...     ...             # TERMINATE RETURN
000201:                                                                                                 #                                 ...     ...             # PROCEED RETURN
000202:                                                                                                 #                                 ...     ...             # ENTER RETURN
000203:                                                                                                 #                                 ...     ...             # GOPERF3R IMMEDIATELY RETURNS HERE
000204:                                                                                                 #         GOPERF4R IS THE SAME AS GOPERF4 ONLY AN IMMEDIATE RETURN IS MADE TO USER'S CALL CADR +4.
000205:                                                                                                 #                                 CAF     OCTXX           # REQUEST PERFORM ON OPTIONXX
000206:                                                                                                 #                                 TC      BANKCALL
000207:                                                                                                 #                                 CADR    GOPERF4R
000208:                                                                                                 #                                 ...     ...             # TERMINATE RETURN
000209:                                                                                                 #                                 ...     ...             # PROCEED RETURN
000210:                                                                                                 #                                 ...     ...             # ENTER RETURN
000211:                                                                                                 #                                 ...     ...             # IMMEDIATE RETURN TO USER
000212:                                                                                                 #         GOPERF4R BLANKS REGISTER R3.
000213:                                                                                                 #         REFLASHR IS THE SAME AS REFLASH ONLY AN IMMEDIATE RETURN IS MADE TO THE USER'S CALL CADR +4.
000214:                                                                                                 #                                 CAF     VXXNYY          # VXX NYY WILL BE A FLASHING VERB NOUN
000215:                                                                                                 #                                 TC      BANKCALL
000216:                                                                                                 #                                 CADR    REFLASHR
000217:                                                                                                 #                                 ...     ...             # TERMINATE RETURN
000218:                                                                                                 #                                 ...     ...             # PROCEED RETURN
000219:                                                                                                 #                                 ...     ...             # ENTER RETURN
000220:                                                                                                 #                                 ...     ...             # IMMEDIATE RETURN TO USER
000221:                                                                                                 #         REGODSPR IS THE SAME AS REGODSP ONLY A RETURN (IMMEDIATE) IS MADE TO THE USER.
000222:                                                                                                 #  Page 1346
000223:                                                                                                 #                                 CAF     VXXNYY
000224:                                                                                                 #                                 TC      BANKCALL
000225:                                                                                                 #                                 CADR    REGODSPR
000226:                                                                                                 #                                 ...     ...             # IMMEDIATE RETURN TO USER
000227:                                                                                                 #  Page 1347
000228:                                                                                                 #         GOMARK IS USED TO DISPLAY A MARK VERB NOUN ARRIVING IN A.  NO RETURN IS MADE TO THE USER.
000229:                                                                                                 #         GOXDSP = GOMARK
000230:                                                                                                 #                                 CAF     VXXNYY          # VXXNYY CONTAINS VERB AND NOUN
000231:                                                                                                 #                                 TC      BANKCALL
000232:                                                                                                 #                                 CADR    GOMARK          # OTHER EXTENDED VERBS USE CADR GOXDSP
000233:                                                                                                 #         GOMARKR IS THE SAME AS GOMARK ONLY RETURN IS TO THE USER.
000234:                                                                                                 #         GOXDSPR = GOMARKR
000235:                                                                                                 #                                 CAF     VXXNYY
000236:                                                                                                 #                                 TC      BANKCALL
000237:                                                                                                 #                                 CADR    GOMARKR         # OTHER EXTENDED VERBS USE CADR GOXDSPR
000238:                                                                                                 #                                 ...     ...             # IMMEDIATE RETURN OF GOMARKR
000239:                                                                                                 #         GOMARKF DISPLAYS A FLASHING MARK VERB NOUN WITH NO IMMEDIATE RETURN TO THE USER.  3 RETURNS ARE POSSIBLE FROM
000240:                                                                                                 #         THE ASTRONAUT (SEE NO. 7 ABOVE).
000241:                                                                                                 #         GOXDSPF = GOMARKF
000242:                                                                                                 #                                 CAF     VXXNYY          # VXXNYY WILL BE A FLASHING MARK VERB NOUN
000243:                                                                                                 #                                 TC      BANKCALL
000244:                                                                                                 #                                 CADR    GOMARKFR        # OTHER EXTENDED VERBS USE CADR GOXDSPFR
000245:                                                                                                 #                                 ...     ...             # TERMINATE RETURN
000246:                                                                                                 #                                 ...     ...             # PROCEED RETURN
000247:                                                                                                 #                                 ...     ...             # ENTER OR RECYCLE RETURN
000248:                                                                                                 #         GOMARKFR IS THE SAME AS GOMARKF ONLY AN IMMEDIATE RETURN IS MADE TO THE USER CALL CADR +4.
000249:                                                                                                 #         GOXDSPFR = GOMARKFR
000250:                                                                                                 #                                 CAF     VXXNYY          # FLASHING MARK VERB NOUN
000251:                                                                                                 #                                 TC      BANKCALL
000252:                                                                                                 #                                 CADR    GOMARKFR        # OTHER EXTENDED VERBS USE CADR GOXDSPFR
000253:                                                                                                 #                                 ...     ...             # TERMINATE RETURN
000254:                                                                                                 #                                 ...     ...             # PROCEED RETURN
000255:                                                                                                 #                                 ...     ...             # ENTER OR RECYCLE RETURN
000256:                                                                                                 #                                 ...     ...             # IMMEDIATE RETURN TO THE USER
000257:                                                                                                 #         GOMARK1 IS USED FOR A PLEASE PERFORM ON A MARK REQUEST WITH ONLY 1 ASTRONAUT RETURN TO THE USER.  NO IMMEDIATE
000258:                                                                                                 #         RETURN IS MADE.  THE DESIRED MARK PLEASE PERFORM VERB AND DESIRED NOUN IS ENTERED IN A.  GOMARK1 DISPLAYS R1, R2, R
000259:                                                                                                 #         MEANS OF A V05NYY FOLLOWED BY A FLASHING V5XNYY FOR A PLEASE PERFORM.  THE ASTRONAUT WILL RESPOND WITH A MARK
000260:                                                                                                 #         OR MARK REJECT OR AN ENTER.  THE ENTER IS THE ONLY ASTRONAUT RESPONSE THAT WILL COME BACK TO THE USER.
000261:                                                                                                 #                                 CAF     V5XNYY          # X=1,2,3,4     Y=NOUN
000262:                                                                                                 #                                 TC      BANKCALL
000263:                                                                                                 #  Page 1348
000264:                                                                                                 #                                 CADR    GOMARK1
000265:                                                                                                 #                                 ...     ...             # ENTER RETURN
000266:                                                                                                 #         *** IF BLANKING DESIRED ON NON-R ROUTINES, NOTIFY DISPLAYER.
000267:
000268:                                                                                                 #         GOMARK1R IS THE SAME AS A GOMARK1 ONLY AN IMMEDIATE RETURN IS MADE TO THE USER'S CALL CADR +2.
000269:                                                                                                 #                                 CAF     V5XNYY          # X=1,2,3,4     YY=NOUN
000270:                                                                                                 #                                 TC      BANKCALL
000271:                                                                                                 #                                 CADR    GOMARK1R
000272:                                                                                                 #                                 ...     ...             # ASTRONAUT ENTER RETURN
000273:                                                                                                 #                                 ...     ...             # IMMEDIATE RETURN TO USER
000274:                                                                                                 #         GOMARK2 IS THE SAME AS GOMARK1 ONLY 3 RETURNS ARE MADE TO THE USER FROM THE ASTRONAUT.
000275:                                                                                                 #                                 CAF     V5XNYY          # X=1,2,3,4     YY=NOUN
000276:                                                                                                 #                                 TC      BANKCALL
000277:                                                                                                 #                                 CADR    GOMARK2
000278:                                                                                                 #                                 ...     ...             # TERMINATE RETURN
000279:                                                                                                 #                                 ...     ...             # PROCEED RETURN
000280:                                                                                                 #                                 ...     ...             # ENTER RETURN
000281:                                                                                                 #         GOMARK2R IS THE SAME AS GOMARK1R ONLY 3 ASTRONAUT RETURNS ARE MADE TO THE USER.
000282:                                                                                                 #                                 CAF     V5XNYY          # X=0,1,2,3,4   YY=NOUN
000283:                                                                                                 #                                 TCF     BANKCALL
000284:                                                                                                 #                                 CADR    GOMARK2R
000285:                                                                                                 #                                 ...     ...             # TERMINATE RETURN
000286:                                                                                                 #                                 ...     ...             # PROCEED RETURN
000287:                                                                                                 #                                 ...     ...             # ENTER RETURN
000288:                                                                                                 #                                 ...     ...             # IMMEDIATE RETURN TO THE USER.
000289:                                                                                                 #         GOMARK3 IS USED FOR A PLEASE PERFORM ON A MARK REQUEST WITH A 3 COMP. DEC DISPLAY.  THE DESIRED MARK PLEASE
000290:                                                                                                 #         PERFORM VERB AND NOUN ARE ENTERED IN A.  GOMARK3 DISPLAYS R1, R2, R3 BY MEANS OF A V06NYY FOLLOWED BY A FLASHING
000291:                                                                                                 #         V5XNYY FOR A PLEASE PERFORM.  GOMARK3 HAS 3 ASTRONAUT RETURNS TO THE USER WITH NO IMMEDIATE RETURN.
000292:                                                                                                 #                                 CAF     V5XNYY          # X=1,2,3,4     YY=NOUN
000293:                                                                                                 #                                 TC      BANKCALL
000294:                                                                                                 #                                 CADR    GOMARK3
000295:                                                                                                 #                                 ...     ...             # TERMINATE RETURN
000296:                                                                                                 #                                 ...     ...             # PROCEED RETURN
000297:                                                                                                 #                                 ...     ...             # ENTER RETURN
000298:                                                                                                 #         GOMARK4 IS THE SAME AS GOMARK3 ONLY R2 AND R3 ARE BLANKED AND R1 IS DISPLAYED IN OCTAL.
000299:                                                                                                 #                                 CAF     V5XNYY          # X=1,2,3,4     YY=NOUN
000300:                                                                                                 #                                 TC      BANKCALL
000301:                                                                                                 #                                 CADR    GOMARK4
000302:                                                                                                 #                                 ...     ...             # TERMINATE RETURN
000303:                                                                                                 #                                 ...     ...             # PROCEED RETURN
000304:                                                                                                 #  Page 1349
000305:                                                                                                 #                         ...     ...                     # ENTER RETURN
000306:                                                                                                 #         EXDSPRET IS USED TO DISPLAY A VERB NOUN ARRIVING IN A WITH A RETURN MADE TO THE USER AFTER THE DISPLAY HAS BEEN
000307:                                                                                                 #         SEND OUT.
000308:                                                                                                 #                                 CAF     VXNYY
000309:                                                                                                 #                                 TC      BANKCALL
000310:                                                                                                 #                                 CADR    EXDSPRET
000311:                                                                                                 #                                 ...     ...             # RETURN TO USER
000312:                                                                                                 #         KLEENEX CLEANS OUT ALL MARK DISPLAYS (ACTIVE AND INACTIVE). A RETURN IS MADE TO THE USER AFTER THE MARK DISPLAYS
000313:                                                                                                 #         HAVE BEEN CLEANED OUT.
000314:                                                                                                 #                                 TC      BANKCALL
000315:                                                                                                 #                                 CADR    KLEENEX
000316:                                                                                                 #                                 ...     ...             # RETURN TO USER
000317:                                                                                                 #         MARKBRAN IS A SPECIAL PURPOSE ROUTINE USED FOR SAVING JOB VAC AREAS (SEE DESCRIPTION OF MARKBRAN BELOW).
000318:                                                                                                 #                                 TC      BANKCALL
000319:                                                                                                 #                                 CADR    MARKBRAN
000320:                                                                                                 #                                 ...     ...             # BAD RETURN IF MARK DISPLAY NOT ACTIVE
000321:                                                                                                 #                                                         # (GOOD RETURN TO IMMEDIATE RETURN LOC OF
000322:                                                                                                 #                                                         # LAST FLASHING MARK R ROUTINE)
000323:                                                                                                 #         PINBRNCH REESTABLISHES THE LAST ACTIVE FLASHING DISPLAY.  IF THERE IS NO ACTIVE FLASHING DISPLAY, THE DSKY IS
000324:                                                                                                 #         BLANKED AND CONTROL IS SENT TO ENDOFJOB.
000325:                                                                                                 #                                 TC      POSTJUMP
000326:                                                                                                 #                                 CADR    PINBRNCH
000327:                                                                                                 #         PRIODSP IS USED AS A PRIORITY DISPLAY.  IT WILL DISPLAY A GOFLASH TYPE DISPLAY WITH THREE POSSIBLE RETURNS FROM
000328:                                                                                                 #         THE ASTRONAUT (SEE NO. 7 ABOVE).
000329:                                                                                                 #         THE MAIN PURPOSE OF PRIODSP IS TO REPLACE THE PRESENT DISPLAY WITH A DISPLAY OF HIGHER PRIORITY AND TO
000330:                                                                                                 #         PROVIDE A MEANS FOR RESTORING THE OLD DISPLAY WHEN THE PRIORITY DISPLAY
000331:                                                                                                 #         IS RESPONDED TO BY THE ASTRONAUT.
000332:                                                                                                 #         THE FORMER DISPLAY IS RESTORED BY AN AUTOMATIC BRANCH TO WAKE UP THE DISPLAY THAT WAS INTERRUPTED BY THE
000333:                                                                                                 #         PRIO DISPLAY
000334:                                                                                                 #                                 CAF     VXXNYY          # VXXNYY WILL BE A FLASHING VERB NOUN
000335:                                                                                                 #                                 TC      BANKCALL
000336:                                                                                                 #                                 CADR    PRIODSP
000337:                                                                                                 #                                 ...     ...             # TERMINATE RETURN
000338:                                                                                                 #                                 ...     ...             # PROCEED RETURN
000339:                                                                                                 #  Page 1350
000340:                                                                                                 #                                 ...     ...             # ENTER OR RECYCLE RETURN
000341:                                                                                                 #         PRIODSPR IS THE SAME AS PRIODSP ONLY AN IMMEDIATE RETURN IS MADE TO THE USER'S CALL CADR +4.
000342:                                                                                                 #                                 CAF     VXXNYY          # VXXNYY WILL BE A FLASHING VERB NOUN
000343:                                                                                                 #                                 TC      BANKCALL
000344:                                                                                                 #                                 CADR    PRIODSPR
000345:                                                                                                 #                                 ...     ...             # TERMINATE ACTION
000346:                                                                                                 #                                 ...     ...             # PROCEED RETURN
000347:                                                                                                 #                                 ...     ...             # ENTER OR RECYCLE RETURN
000348:                                                                                                 #                                 ...     ...             # IMMEDIATE RETURN
000349:                                                                                                 #         PRIOLARM DOES A V05N09 PRIODSPR.
000350:
000351:                                                                                                 #         CLEANDSP CLEANS OUT ALL NORMAL DISPLAYS (ACTIVE AND INACTIVE).  A RETURN IS MADE TO THE USER AFTER NORMAL
000352:                                                                                                 #         DISPLAYS ARE CLEANED OUT.
000353:                                                                                                 #                                 TC      BANKCALL
000354:                                                                                                 #                                 CADR    CLEANDSP
000355:                                                                                                 #                                 ...     ...             # RETURN TO USER
000356:                                                                                                 #  Page 1351
000357:
000358:                                                                                                 #  GENERAL INFORMATION
000359:                                                                                                 #  -------------------
000360:
000361:                                                                                                 #  ALARM OR ABORT EXIT MODE --
000362:                                                                                                 #         PRIOBORT        TC      ABORT
000363:                                                                                                 #                         OCT     1502
000364:
000365:                                                                                                 #         PRIOBORT IS BRANCHED TO WHEN (1) A NORMAL DISPLAY IS REQUESTED AND ANOTHER NORMAL DISPLAY IS ALREADY ACTIVE
000366:                                                                                                 #         (REFLASH AND REGODSP ARE EXCEPTIONS) OR (2) A PRIORITY DISPLAY IS REQUESTED WHEN ANOTHER PRIORITY DISPLAY IS
000367:                                                                                                 #         ALREADY ACTIVE (A PRIORITY WITH LINUS BIT14 IS AN EXCEPTION).
000368:
000369:                                                                                                 #  ERASABLE INITIALIZATION REQUIRED --
000370:                                                                                                 #         ACCOMPLISHED BY FRESH START --  1.  FLAGWRD4 (USED EXCLUSIVELY BY DISPLAY INTERFACE ROUTINES)
000371:                                                                                                 #                                         2.  NVSAVE = NORMAL VERB AND NOUN REGISTER.
000372:                                                                                                 #                                         3.  EBANKTEM = NORMAL INACTIVE FLAGWORD (ALSO CONTAINS NORMALS EBANK).
000373:                                                                                                 #                                         5.  R1SAVE = MARKBRAN CONTROL WORD
000374:                                                                                                 #                                         4.  RESTREG = PRIORITY 30 AND SUPERBANK 3.
000375:
000376:                                                                                                 #  OUTPUT --
000377:                                                                                                 #         NVWORD = PRIO VERB AND NOUN
000378:                                                                                                 #         NVWORD +1 (MARKNV) = MARK VERB AND NOUN
000379:                                                                                                 #         NVWORD +2 (NVSAVE) = NORMAL VERB AND NOUN
000380:                                                                                                 #         DSPFLG (EBANKSAV) = PRIO FLAGWORD (INCLUDING EBANK)
000381:                                                                                                 #         DSPFLG +1 (MARKEBAN) = MARK FLAGWORD (INCLUDING EBANK)
000382:                                                                                                 #         DSPFLG +2 (EBANKTEM) = NORMAL FLAGWORD (INCLUDING EBANK)
000383:                                                                                                 #         CADRFLSH = PRIO USER'S CALL CADR +1 LOCATION
000384:                                                                                                 #         CADRFLSH +1 (MARKFLSH) = MARK USER'S CALL CADR +1 LOCATION
000385:                                                                                                 #         CADRFLSH +2 (TEMPFLSH) = NORMAL USER'S CALL CADR +1 LOCATION
000386:                                                                                                 #         PRIOTIME = TIME EACH PRIO REQUEST FIRST SENT OUT
000387:                                                                                                 #         OPTION1 = DESIRED OPTION FROM GOPERF4
000388:                                                                                                 #         FLAGWRD4 = BIT INFO FOR CONTROL OF ALL DISPLAY ROUTINES
000389:                                                                                                 #         DSPTEM1 = R1 INFO FOR ASTRONAUT FROM PERFORM DISPLAYS (NORMAL)
000390:
000391:                                                                                                 #  SUBROUTINES USED -- NVSUB, FLAGUP, FLAGDOWN, ENDOFJOB, BLANKSUB, ABORT, JOBWAKE, JOBSLEEP, FINDVAC, PRIOCHNG,
000392:                                                                                                 #         JAMTERM, NVSUBUSY, FLASHON, ENDIDLE, CHANG1, BANKJUMP, MAKECADR, NOVAC
000393:
000394:                                                                                                 #  DEBRIS -- (STORED INTO)
000395:                                                                                                 #         TEMPORARY TEMPORARIES -- A, Q, L, MPAC +2, MPAC +3, MPAC +4, MPAC +5, MPAC +6, RUPREG2, RUPTREG3, CYL,
000396:                                                                                                 #                 EBANK, RUPTREG4, LOC, BANKSET, MODE, MPAC, MPAC +1, FACEREG
000397:                                                                                                 #         ERASABLES (SHARED AND USED WITH OTHER PROGRAMS) -- CADRSTOR, DSPLIST, LOC, DSPTEM1, OPTION1
000398:                                                                                                 #         ERASABLES (USED ONLY BY DISPLAY ROUTINES) -- NVWORD,+1,+2, DSPFLAG,+1,+2, CADRFLSH,+1,+2, PRIOTIME, FLAGWRD4,
000399:                                                                                                 #  Page 1352
000400:                                                                                                 #                 R1SAVE, MARK2PAC
000401:
000402:                                                                                                 #  DEBRIS -- (USED BUT NOT STORED INTO) -- NOUNREG, VERBREG, LOCCTR, MONSAVE1
000403:
000404:                                                                                                 #  FLAGWORD DESCRIPTIONS --
000405:                                                                                                 #         FLAGWRD4 -- SEE DESCRIPTION UNDER LOG SECTION ERASABLE ASSIGNMENTS
000406:
000407:                                                                                                 #         DSPFLG, DSPFLG+1, DSPFLG+2
000408:                                                                                                 #         --------------------------
000409:                                                                                                 #         BITS 1  BLANK R1
000410:                                                                                                 #              2  BLANK R2
000411:                                                                                                 #              3  BLANK R3
000412:                                                                                                 #              4  FLASHING DISPLAY REQUESTED
000413:                                                                                                 #              5  PERFORM DISPLAY REQUESTED
000414:                                                                                                 #              6  -----                   EXDSPRET                GODSPRET
000415:                                                                                                 #              7  PRIO DISPLAY            -----                   -----
000416:                                                                                                 #              8  -----                   DEC MARK PERFORM        -----
000417:                                                                                                 #              9  EBANK
000418:                                                                                                 #             10  EBANK
000419:                                                                                                 #             11  EBANK
000420:                                                                                                 #             12  -----                   -----                   V99PASTE
000421:                                                                                                 #             13  2ND PART OF PERFORM
000422:                                                                                                 #             14  REFLASH OR REDO         -----                   REFLASH OR REDO
000423:                                                                                                 #             15  -----                   MARK REQUEST            -----
000424:
000425:                                                                                                 #  RESTARTING DISPLAYS --
000426:
000427:                                                                                                 #  RULES FOR THE DSKY OPERATOR --
000428:                                                                                                 #         1.  PROCEED AND TERMINATE SERVE AS RESPONSES TO REQUESTS FOR OPERATOR RESPONSE (FLASHING V/N).  AS LONG
000429:                                                                                                 #             AS THERE IS ANY REQUEST AWAITING OPERATOR RESPONSE, ANY USE OF PROCEED OR TERMINATE WILL SERVE AS
000430:                                                                                                 #             RESPONSES TO THAT REQUEST.  CARE SHOULD BE EXERCISED IN ATTEMPTING TO KILL AN OPERATOR INITIATED MONITOR
000431:                                                                                                 #             WITH PROCEED AND TERMINATE FOR THIS REASON.
000432:                                                                                                 #         2.  THE ASTRONAUT MUST RESPOND TO A PRIORITY DISPLAY NO SOONER THAN 2 SECONDS FROM THE TIME THE
000433:                                                                                                 #             PROGRAM SENT OUT THE REQUEST FOR OPERATOR RESPONSE (THE ASTRONAUT WOULD SEE THIS DISPLAY FOR LESS TIME
000434:                                                                                                 #             DUE TO TIME IT TAKES TO GET DISPLAY SENT OUT.)  IF THE ASTRONAUT RESPONDS TOO SOON, THE PRIORITY DISPLAY
000435:                                                                                                 #             IS SENT OUT AGAIN -- AND AGAIN UNTIL AN ACCUMULATED 2 SECS FROM THE TIME THE FIRST PRIORITY DISPLAY
000436:                                                                                                 #             OUT.  THE SAME 2 SEC. DELAY WILL OCCUR AT 163.84 SECS OR IN ANY MULTIPLE OF THAT TIME DUE TO PROGRAM
000437:                                                                                                 #             CONSIDERATION.
000438:                                                                                                 #         3.  KEY RELEASE BUTTON --
000439:                                                                                                 #             A)  IF THE KEY RELEASE LIGHT IS ON, IT SIMPLY RELEASES THE KEYBOARD AND DISPLAY FOR INTERNAL USE.
000440:                                                                                                 #             B)  IF THE KEY RELEASE LIGHT IS OFF, AND IF SOME REQUEST FOR OPERATOR RESPONSE (FLASHING V/N) IS STILL
000441:                                                                                                 #                 AWAITING RESPONSE THEN IT RE-ESTABLISHES THE DISPLAYS THAT ORIGINALLY REQUESTED RESPONSE.
000442:                                                                                                 #             IF AN OPERATOR WANTS THEREFORE TO RE-ESTABLISH BUT CONDITION (A) IS ENCOUNTERED, A SECOND DEPRESSION OF
000443:                                                                                                 #             KEY RELEASE BUTTON MAY BE NECESSARY.
000444:                                                                                                 #         4.  IT IS IMPORTANT TO ANSWER ALL REQUESTS FOR OPERATOR RESPONSE.
000445:                                                                                                 #         5.  IT IS ALWAYS GOOD PRACTICE TO TERMINATE AN EXTENDED VERB BEFORE ASKING FOR ANOTHER ONE OR THE SAME ONE
000446:                                                                                                 #             OVER AGAIN.
000447:
000448:                                                                                                 #  SPECIAL CONSIDERATONS --
000449:                                                                                                 #  Page 1353
000450:                                                                                                 #         1.  MPAC +2 SAVED ONLY IN MARK DISPLAYS
000451:                                                                                                 #         2.  GODSP(R), REGODSP(R), GOMARK(R) ALWAYS TURN ON THE FLASH IF ENTERED WITH A PASTE VERB REQUEST.
000452:                                                                                                 #         3.  ALL NORMAL DISPLAYS ARE RESTARTABLE EXCEPT GODSP(R), REGODSP(R)
000453:                                                                                                 #         4.  ALL EXTENDED VERBS WITH DISPLAYS SHOULD START WITH A TC TESTXACT AND FINISH WITH A TC ENDEXT.
000454:                                                                                                 #         5.  GODSP(R) AND REGODSP(R) MUST BE IN THE SAME EBANK AND SUPERBANK AS THE LAST NORMAL DISPLAY RESTARTED
000455:                                                                                                 #             BY A .1 RESTART PHASE CHANGE.
000456:                                                                                                 #         6.  IN ORDER TO SET UP A NON DISPLAY .1 RESTART POINT, THE USER MUST MAKE CERTAIN THAT RESTREG CONTAINS THE
000457:                                                                                                 #             CORRECT PRIORITY AND SUPERBANK AND THAT EBANKTEM CONTAINS THE CO
000458:                                                                                                 #         7.  IF CLEANDSP IS RESTARTED VIA A .1 PHASE CHANGE, CAF ZERO SHOULD BE EXECUTED BEFORE THE TC BANKCALL.
000459:
000460:                                                                                                 #  Page 1354
000461:                                                                                                 #  CALLING SEQUENCE FOR BLANKING
000462:                                                                                                 #                 CAF     BITX            # X=1,2,3 BLANK R1,R2,R3 RESPECTIVELY
000463:                                                                                                 #                 TC      BLANKET
000464:                                                                                                 #                 ...     ...             # RETURN TO USER HERE
000465:                                                                                                 #  IN ORDER TO USE BLANKET CORRECTLY, THE USER MUST USE A DISPLAY ROUTINE THAT ENDS IN R FIRST FOLLOWED BY THE CALL
000466:                                                                                                 #  TO BLANKET AT THE IMMEDIATE RETURN LOC.
000467:    5464                                          BLOCK    02
000468:    4000                                          SETLOC   FFTAG4
000469:    4000                                          BANK
000470:
000471:    5464                                          COUNT*   $$/DSPLA
000472:    5464           54162        BLANKET           TS       MPAC       +6
000473:    5465           40160                          CS       PLAYTEM4
000474:    5466           70162                          MASK     MPAC       +6
000475:    5467           50161                          INDEX    MPAC       +5
000476:    5470           26160                          ADS      PLAYTEM4
000477:
000478:    5471           00002                          TC       Q
000479:
000480:    5472           04635        ENDMARK           TC       POSTJUMP
000481:    5473           20326                          CADR     MARKEND
000482:
000483:    5474           34755        CLEARMRK          CAF      ZERO
000484:    5475           55044                          TS       EXTVBACT
000485:
000486:    5476           00004                 +2       INHINT
000487:    5477           44753                          CS       XDSPBIT
000488:    5500           70100                          MASK     FLAGWRD4
000489:    5501           54100                          TS       FLAGWRD4
000490:
000491:    5502           00003                          RELINT
000492:    5503           00002                          TC       Q
000493:
000494:                                                                                                 #  *** ALL EXTENDED VERB ROUTINES THAT HAVE AT LEAST ONE FLASHING DISPLAY MUST TCF ENDMARK OR TCF ENDEXT WHEN
000495:                                                                                                 #  FINISHED.
000496:
000497: 10,2326                                          BANK     10
000498: 10,2000                                          SETLOC   DISPLAYS
000499: 10,2000                                          BANK
000500:
000501: 10,2326                                          COUNT*   $$/DSPLA
000502:
000503:                                                                                                 #  NTERONLY IS USED TO DIFFERENTIATE THE MARK ROUTINE WITH ONLY ONE RETURN TO THE USER FROM THE MARKING ROUTINE WITH
000504:                                                                                                 #  3 RETURNS TO THE USER.  THIS ROUTINE IS ONLY USED BY GOMARK1 AND GOMARK1R.
000505:
000506: 10,2326           05474        MARKEND           TC       CLEARMRK
000507: 10,2327           13421                          TCF      MARKOVER
000508:
000509: 10,2330           54155        GOMARK            TS       PLAYTEM1                              #  ENTRANCE FOR MARK GODSP
000510:                                                                                                 #  Page 1355
000511: 10,2331           34735        GOMARS            CAF      BIT15                                 #  BIT15 SET FOR ALL MARK REQUESTS
000512: 10,2332           12500                          TCF      GOFLASH2
000513:
000514: 10,2333           34755        KLEENEX           CAF      ZERO                                  #  CLEAN OUT EXTENDED VERBS
000515: 10,2334           54155        GOMARKF           TS       PLAYTEM1                              #  ENTRANCE FOR MARK GOFLASH
000516:
000517: 10,2335           33031                          CAF      MARKFMSK                              #  MARK, FLASH
000518: 10,2336           12500                          TCF      GOFLASH2
000519:
000520: 10,2337           54155        GOMARK2           TS       PLAYTEM1                              #  MARK GOPERFS-3 AST. RETURNS
000521: 10,2340           33520        MARKFORM          CAF      MPERFMSK                              #  MARK, PERFORM, FLASH
000522: 10,2341           12500                          TCF      GOFLASH2
000523:
000524: 10,2342           54155        GOMARK3           TS       PLAYTEM1                              #  USED FOR 3COMP DECIMAL PERFORM
000525: 10,2343           33505                          CAF      MARK3MSK
000526: 10,2344           12500                          TCF      GOFLASH2
000527:
000528: 10,2345           54155        GOMARK4           TS       PLAYTEM1
000529: 10,2346           33506                          CAF      MARK4MSK                              #  MARK,PERFORM,FLASH,BLANK
000530: 10,2347           12500                          TCF      GOFLASH2
000531:
000532: 10,2350           54155        GOMARKR           TS       PLAYTEM1                              #  ENTRANCE FOR MARK GODSPR
000533:
000534: 10,2351           34735                          CAF      BIT15
000535: 10,2352           12453                          TCF      GODSPR2
000536:
000537: 10,2353           54155        GOMARKFR          TS       PLAYTEM1                              #  ENTRANCE FOR MARK GOFLASHR
000538:
000539: 10,2354           33031                          CAF      MARKFMSK
000540: 10,2355           12637                          TCF      GODSPRS
000541:
000542: 10,2356           54155        GOMARK2R          TS       PLAYTEM1                              #  MARK GOPERFS-3 AST. RETS+ IMMEDIATE RET.
000543: 10,2357           33520                          CAF      MPERFMSK                              #  MARK, PERFORM, FLASH
000544: 10,2360           12637                          TCF      GODSPRS
000545:
000546: 10,2361           54155        GOMARK3R          TS       PLAYTEM1
000547: 10,2362           33505                          CAF      MARK3MSK
000548: 10,2363           12637                          TCF      GODSPRS
000549:
000550: 10,2364           34753        MAKEMARK          CAF      ONE
000551: 10,2365           02735                          TC       COPIES
000552:
000553: 10,2366           30100                          CA       FLAGWRD4                              #  IS NORM OR PRIO BUSY OR WAITING
000554: 10,2367           73521                          MASK     OCT34300
000555: 10,2370           10000                          CCS      A
000556: 10,2371           12427                          TCF      CHKPRIO
000557:
000558: 10,2372           30100                          CA       FLAGWRD4                              #  IS MARK SLEEPING DUE TO ASTRO BUSY
000559: 10,2373           74743                          MASK     MRKNVBIT
000560:
000561: 10,2374           00006                          EXTEND
000562:                                                                                                 #  Page 1356
000563: 10,2375           12377                          BZF      MARKPLAY                              #  NO
000564:
000565: 10,2376           15155                          TCF      ENDOFJOB
000566:
000567: 10,2377           00004        MARKPLAY          INHINT
000568: 10,2400           44756                          CS       FIVE                                  #  RESET MARK OVER NORM, SET MARK
000569: 10,2401           70100                          MASK     FLAGWRD4
000570: 10,2402           64753                          AD       ONE
000571: 10,2403           54100                          TS       FLAGWRD4
000572: 10,2404           00003                          RELINT
000573:
000574: 10,2405           41071        GOGOMARK          CS       MARKFLAG                              #  PERFORM
000575: 10,2406           74747                          MASK     BIT5
000576: 10,2407           10000                          CCS      A
000577: 10,2410           12413                          TCF      MARKCOP
000578: 10,2411           40370                          CS       MARKNV
000579: 10,2412           54370                          TS       MARKNV
000580:
000581: 10,2413           34753        MARKCOP           CAF      ONE                                   #  MARK INDEX
000582: 10,2414           12616                          TCF      PRIOPLAY
000583:
000584: 10,2415           30165        COPYTOGO          CA       MPAC2SAV
000585: 10,2416           54156                          TS       MPAC       +2
000586:
000587: 10,2417           50164        COPYPACS          INDEX    COPINDEX
000588: 10,2420           33531                          CAF      PRIOOCT
000589: 10,2421           54162                          TS       GENMASK
000590:
000591: 10,2422           50164                          INDEX    COPINDEX
000592: 10,2423           31070                          CA       EBANKSAV                              #  Was CAF --- RSB 2009.
000593: 10,2424           54160                          TS       TEMPOR2                               #  ACTIVE EBANK AND FLAG
000594:
000595: 10,2425           54003                          TS       EBANK
000596:
000597: 10,2426           00002                          TC       Q
000598:
000599:                                                                                                 #  PINCHEK CHECKS TO SEE IF THE CURRENT MARK REQUEST IS MADE BY THE ASTRONAUT WHILE INTERUPTING A GOPLAY DISPLAY
000600:                                                                                                 #  (A NORMAL OR A PRIO).  IF THE ASTRONAUT TRIES TO MARK DURING A PRIO, THE CHECK FAIL LIGHT GOES ON AND THE MARK
000601:                                                                                                 #  REQUEST IS ENDED.  IF HE TRIES TO MARK DURING A NORM, THE MARK IS ALLOWED.  IN THIS CASE THE NORM IS PUT TO SLEEP
000602:                                                                                                 #  UNTIL ALL MARKING IS FINISHED.
000603:
000604:                                                                                                 #  IF THE MARK REQUEST COMES FROM THE PROGRAM DURING A TIME THE ASTRONAUT IS NOT INTERRUPTING A NORMAL OR A
000605:                                                                                                 #  PRIO, THE MARK REQUEST IS PUT TO SLEEP UNTIL THE PRESENT ACTIVE DISPLAY IS RESPONDED TO BY THE ASTRONAUT.
000606:
000607: 10,2427           30100        CHKPRIO           CA       FLAGWRD4                              #  MARK ATTEMPT DURING PRIO
000608: 10,2430           73254                          MASK     OCT24100
000609: 10,2431           10000                          CCS      A
000610: 10,2432           13454                          TCF      MARSLEEP
000611:
000612: 10,2433           40100                          CS       FLAGWRD4
000613:                                                                                                 #  Page 1357
000614: 10,2434           74751                          MASK     MKOVBIT                               #  SET MARK OVER NORM
000615: 10,2435           00004                          INHINT
000616: 10,2436           26100                          ADS      FLAGWRD4
000617:
000618: 10,2437           12534                          TCF      SETNORM
000619:
000620: 10,2440           30370        MARKPERF          CA       MARKNV
000621: 10,2441           74144                          MASK     VERBMASK
000622: 10,2442           13120                          TCF      NV50DSP
000623:
000624: 10,2443           54155        GODSP             TS       PLAYTEM1
000625:
000626: 10,2444           34755        GODSP2            CAF      ZERO
000627: 10,2445           12500                          TCF      GOFLASH2
000628:
000629: 10,2446           54155        GODSPRET          TS       PLAYTEM1                              #  ENTRANCE FOR A GODSP WITH A PASTE
000630:
000631: 10,2447           34746                          CAF      BIT6                                  #  SET BIT6 TO GO BACK TO USER AFTER NVSUB
000632: 10,2450           12500                          TCF      GOFLASH2
000633:
000634: 10,2451           54155        GODSPR            TS       PLAYTEM1
000635:
000636: 10,2452           34755        GODSPR1           CAF      ZERO
000637: 10,2453           54160        GODSPR2           TS       PLAYTEM4
000638:
000639: 10,2454           34755                          CAF      ZERO                                  #  * DON'T MOVE
000640: 10,2455           12641                          TCF      GODSPRS1
000641:
000642:                                                                                                 #  CLEANDSP IS USED FOR CLEARING OUT A NORMAL DISPLAY THAT IS PRESENTLY ACTIVE OR A NORMAL DISPLAY THAT IS
000643:                                                                                                 #  SET UP TO BE STARTED OR RESTARTED.
000644:
000645:                                                                                                 #  NORMALLY THE USER WILL NOT NEED TO USE THIS ROUTINE SINCE A NEW NORMAL DISPLAY AUTOMATICALLY CLEARS OUT AN
000646:                                                                                                 #  OLD DISPLAY.
000647:
000648:                                                                                                 #  CALLING SEQUENCE FOR CLEANDSP --
000649:
000650:                                                                                                 #                 TC      BANKCALL
000651:                                                                                                 #                 CADR    CLEANDSP
000652:
000653: 10,2456           34755        CLEANDSP          CAF      ZERO
000654: 10,2457           54155        REFLASH           TS       PLAYTEM1
000655:
000656: 10,2460           33504                          CAF      REDOMASK                              #  FLASH AND PERMIT
000657: 10,2461           12500                          TCF      GOFLASH2
000658:
000659: 10,2462           54155        REFLASHR          TS       PLAYTEM1
000660:
000661: 10,2463           33504                          CAF      REDOMASK                              #  FLASH AND PERMIT
000662: 10,2464           12637                          TCF      GODSPRS
000663:
000664:                                                                                                 #  Page 1358
000665: 10,2465           54155        REGODSP           TS       PLAYTEM1
000666:
000667: 10,2466           34736                          CAF      BIT14
000668: 10,2467           12500                          TCF      GOFLASH2
000669:
000670: 10,2470           54155        REGODSPR          TS       PLAYTEM1
000671:
000672: 10,2471           34736                          CAF      BIT14
000673: 10,2472           12453                          TCF      GODSPR2
000674:
000675: 10,2473           54155        CLOCPLAY          TS       PLAYTEM1
000676: 10,2474           33543                          CAF      CLOCKCON
000677: 10,2475           12500                          TCF      GOFLASH2
000678:
000679: 10,2476           54155        GOFLASH           TS       PLAYTEM1
000680:
000681: 10,2477           34750                          CAF      BIT4                                  #  LEAVE ONLY FLASH BIT SET
000682: 10,2500           54160        GOFLASH2          TS       PLAYTEM4
000683:
000684: 10,2501           02722                          TC       SAVELOCS
000685:
000686: 10,2502           00003                          RELINT
000687:
000688: 10,2503           12546                          TCF      MAKEPLAY                              #  BRANCH DIRECT WITH NO SEPARATE JOB CALL
000689:
000690: 10,2504           54155        PRIODSPR          TS       PLAYTEM1
000691:
000692: 10,2505           33523                          CAF      BITS7+4
000693: 10,2506           12637                          TCF      GODSPRS
000694:
000695: 10,2507           54155        PRIODSP           TS       PLAYTEM1
000696:
000697: 10,2510           33523        SETPRIO           CAF      BITS7+4
000698: 10,2511           12500                          TCF      GOFLASH2
000699:
000700: 10,2512           34755        MAKEPRIO          CAF      ZERO
000701: 10,2513           54164                          TS       COPINDEX
000702:
000703: 10,2514           03374                          TC       LINUSCHR
000704: 10,2515           12522                          TCF      HIPRIO                                #  LINUS RETURN
000705: 10,2516           30100                          CA       FLAGWRD4
000706: 10,2517           73542                          MASK     OCT20100                              #  IS PRIO IN ENDIDLE OR BUSY
000707: 10,2520           10000                          CCS      A
000708: 10,2521           12575                          TCF      PRIOBORT                              #  YES, ABORT
000709:
000710: 10,2522           30100        HIPRIO            CA       FLAGWRD4                              #  MARK ACTIVE
000711: 10,2523           75642                          MASK     OCT40400
000712: 10,2524           00006                          EXTEND
000713: 10,2525           12530                          BZF      ASKIFNRM                              #  NO
000714:
000715:                                                                                                 #  Page 1359
000716: 10,2526           34755        SETMARK           CAF      ZERO
000717: 10,2527           12774                          TCF      JOBXCHS
000718:
000719: 10,2530           30100        ASKIFNRM          CA       FLAGWRD4                              #  NORMAL ACTIVE
000720: 10,2531           73540                          MASK     OCT10200                              #  BITS 13+8
000721: 10,2532           00006                          EXTEND
000722: 10,2533           12536                          BZF      OKTOCOPY                              #  NO
000723:
000724: 10,2534           34753        SETNORM           CAF      ONE
000725: 10,2535           12774                          TCF      JOBXCHS
000726:
000727: 10,2536           02734        OKTOCOPY          TC       COPYNORM
000728: 10,2537           03205                          TC       WITCHONE
000729:
000730: 10,2540           05137                          TC       JOBWAKE
000731:
000732: 10,2541           03222                          TC       XCHTOEND
000733:
000734: 10,2542           30025        REDOPRIO          CA       TIME1                                 #  SAVE TIME PRIODSP SENT OUT
000735: 10,2543           55165                          TS       PRIOTIME
000736:
000737: 10,2544           34755        KEEPPRIO          CAF      ZERO                                  #  START UP PRIO DISPLAY
000738: 10,2545           12616                          TCF      PRIOPLAY
000739:
000740: 10,2546           30167        MAKEPLAY          CA       PRIORITY                              #  SAVE USER'S PRIORITY
000741: 10,2547           77725                          MASK     PRIO37
000742: 10,2550           54163                          TS       USERPRIO
000743:
000744: 10,2551           37721                          CAF      PRIO33                                #  RAISE PRIORITY FOR FAST JOBS AFTER WAKE
000745: 10,2552           05146                          TC       PRIOCHNG
000746:
000747: 10,2553           30160                          CA       PLAYTEM4                              #  IS IT MARK OR PRIO OR NORM
000748: 10,2554           73522                          MASK     BITS15+7
000749: 10,2555           10000                          CCS      A
000750: 10,2556           12512                          TCF      MAKEPRIO                              #  ITS PRIO
000751: 10,2557           12561                          TCF      IFLEGAL
000752: 10,2560           12364                          TCF      MAKEMARK                              #  ITS MARK
000753:
000754: 10,2561           34752        IFLEGAL           CAF      TWO
000755: 10,2562           54164                          TS       COPINDEX
000756:
000757: 10,2563           03374                          TC       LINUSCHR
000758:
000759: 10,2564           12577                          TCF      OKTOPLAY                              #  LINUS RETURN
000760: 10,2565           41072                          CS       EBANKTEM
000761: 10,2566           74750                          MASK     BIT4
000762: 10,2567           10000                          CCS      A
000763: 10,2570           12577                          TCF      OKTOPLAY                              #  NO
000764:
000765: 10,2571           30100                          CA       FLAGWRD4                              #  WAS NORM ASLEEP
000766:                                                                                                 #  Page 1360
000767: 10,2572           73513                          MASK     NBUSMASK                              #  ARE ANY NORMS ASLEEP
000768: 10,2573           00006                          EXTEND
000769: 10,2574           12577                          BZF      OKTOPLAY                              #  NO
000770:
000771: 10,2575           05652        PRIOBORT          TC       P00DOO
000772: 10,2576           01502                          OCT      1502
000773:
000774: 10,2577           02736        OKTOPLAY          TC       COPIES2
000775:
000776: 10,2600           30163                          CA       USERPRIO
000777: 10,2601           00006                          EXTEND
000778: 10,2602           04007                          ROR      SUPERBNK
000779: 10,2603           54366                          TS       RESTREG
000780:
000781: 10,2604           30100                          CA       FLAGWRD4                              #  PRIO OR MARK GOING
000782: 10,2605           73514                          MASK     PMMASK
000783: 10,2606           10000                          CCS      A
000784: 10,2607           12754                          TCF      GOSLEEPS                              #  MARK GOING
000785:
000786: 10,2610           12612                          TCF      +2
000787: 10,2611           12754                          TCF      GOSLEEPS
000788:
000789:                                                                                                 #  COULD PUT NORM BUSY CHECK HERE TO SAVE TIME
000790:
000791: 10,2612           03205                          TC       WITCHONE                              #  IS IT NVSUB BUSY, ENDIDLE OR NOONE
000792: 10,2613           05137                          TC       JOBWAKE
000793:
000794: 10,2614           03222                          TC       XCHTOEND
000795:
000796: 10,2615           34752        PLAYJUM1          CAF      TWO
000797: 10,2616           54164        PRIOPLAY          TS       COPINDEX
000798:
000799: 10,2617           13070                          TCF      GOPLAY
000800:
000801: 10,2620           54155        EXDSPRET          TS       PLAYTEM1
000802:
000803: 10,2621           37734                          CAF      BIT15+6
000804: 10,2622           12500                          TCF      GOFLASH2
000805:
000806: 10,2623           55045        GOPERF1           TS       NORMTEM1                              #  STORE DESIRED CHECKLIST VALUE
000807: 10,2624           33476                          CAF      V01N25                                #  USED TO DISPLAY CHECKLIST VALUE IN R1
000808:
000809: 10,2625           54155        GOPERFS           TS       PLAYTEM1
000810:
000811: 10,2626           33475                          CAF      PERFMASK                              #  LEAVE ONLY FLASH, PERFORM, BLANKING
000812: 10,2627           12500                          TCF      GOFLASH2
000813:
000814: 10,2630           54155        GOPERF2           TS       PLAYTEM1                              #  DESIRED VERB-NOUN TO DISPLAY R1,R2,R3
000815:
000816: 10,2631           33501                          CAF      PERF2MSK
000817: 10,2632           12500                          TCF      GOFLASH2
000818:
000819:                                                                                                 #  Page 1361
000820: 10,2633           02715        GOPERF4           TC       PURRS4
000821:
000822: 10,2634           12500                          TCF      GOFLASH2
000823:
000824: 10,2635           54155        GOFLASHR          TS       PLAYTEM1
000825:
000826: 10,2636           34750                          CAF      BIT4                                  #  LEAVE ONLY FLASH BIT SET
000827: 10,2637           54160        GODSPRS           TS       PLAYTEM4
000828:
000829: 10,2640           36245                          CAF      THREE
000830:
000831: 10,2641           00004        GODSPRS1          INHINT                                         #  IMMEDIATE RETURN IS CALL CADR +4
000832: 10,2642           54072                          TS       RUPTREG3
000833:
000834: 10,2643           30167                          CA       PRIORITY                              #  MAKE DISPLAY ONE HIGHER THAN USER
000835: 10,2644           77725                          MASK     PRIO37
000836: 10,2645           54063                          TS       NEWPRIO
000837:
000838: 10,2646           30160                          CA       PLAYTEM4                              #  IS THIS A FLASHING R DISPLAY
000839: 10,2647           74750                          MASK     BIT4
000840: 10,2650           10000                          CCS      A
000841: 10,2651           12657                          TCF      VACDSP                                #  YES, MAKE DSPLAY JOB A VAC
000842: 10,2652           30063                          CA       NEWPRIO                               #  NO, MAKE DSPLAY JOB A NOVAC
000843: 10,2653           05072                          TC       NOVAC
000844: 10,2654  E7,1471                                 EBANK=   WHOCARES
000845: 10,2654           02546 20067                    2CADR    MAKEPLAY
000846:
000847: 10,2656           12665                          TCF      BOTHJOBS
000848:
000849: 10,2657           30006        VACDSP            CA       BBANK
000850: 10,2660           00006                          EXTEND
000851: 10,2661           04007                          ROR      SUPERBNK
000852: 10,2662           54001                          TS       L
000853: 10,2663           33537                          CAF      MAKEGEN
000854: 10,2664           05116                          TC       SPVAC
000855:
000856: 10,2665           02722        BOTHJOBS          TC       SAVELOCS                              #  COPY TEMPS INTO PERMANENT REGISTERS
000857:
000858: 10,2666           00006                          EXTEND                                         #  SAVE NVWORD AND USER'S MPAC +2
000859: 10,2667           30156                          DCA      MPAC       +1
000860: 10,2670           50064                          INDEX    LOCCTR
000861: 10,2671           52156                          DXCH     MPAC       +1
000862:
000863: 10,2672           00006                          EXTEND                                         #  SAVE USER'S CADR, FLAGS AND EBANK
000864: 10,2673           30160                          DCA      MPAC       +3
000865: 10,2674           50064                          INDEX    LOCCTR
000866: 10,2675           52160                          DXCH     MPAC       +3
000867:
000868: 10,2676           30064                          CA       LOCCTR
000869: 10,2677           54161                          TS       MPAC       +5
000870:                                                                                                 #  Page 1362
000871: 10,2700           02727                          TC       SAVELOCR
000872: 10,2701           00003                          RELINT
000873:
000874: 10,2702           14640                          TCF      BANKJUMP                              #  CALL CADR +4
000875:
000876: 10,2703           55045        GOPERF1R          TS       NORMTEM1                              #  DESIRED CHECKLIST VALUE
000877:
000878: 10,2704           33476                          CAF      V01N25                                #  DISPLAYS CHECKLIST VALUE IN R1
000879:
000880: 10,2705           54155        GOPERFRS          TS       PLAYTEM1
000881:
000882: 10,2706           33475                          CAF      PERFMASK                              #  LEAVE ONLY FLASH, PERFORM, BLANKING
000883: 10,2707           12637                          TCF      GODSPRS
000884:
000885: 10,2710           54155        GOPERF2R          TS       PLAYTEM1                              #  DESIRED VERB-NOUN TO DISPLAY R1,R2,R3
000886:
000887: 10,2711           33501                          CAF      PERF2MSK
000888: 10,2712           12637                          TCF      GODSPRS
000889:
000890: 10,2713           02715        GOPERF4R          TC       PURRS4
000891:
000892: 10,2714           12637                          TCF      GODSPRS
000893:
000894: 10,2715           55144        PURRS4            TS       OPTION1                               #  DESIRED OPTION CODE
000895:
000896: 10,2716           33502                          CAF      V04N06
000897: 10,2717           54155                          TS       PLAYTEM1
000898:
000899: 10,2720           33503                          CAF      PERF4MSK                              #  FLASH, PERFORM AND EBANK R3
000900: 10,2721           00002                          TC       Q
000901:
000902: 10,2722           00004        SAVELOCS          INHINT
000903:
000904: 10,2723           43512                          CS       OCT3400                               #  EBANK BITS
000905: 10,2724           70160                          MASK     PLAYTEM4
000906: 10,2725           60003                          AD       EBANK
000907: 10,2726           54160                          TS       PLAYTEM4
000908:
000909: 10,2727           22002        SAVELOCR          LXCH     Q
000910:
000911: 10,2730           04645                          TC       MAKECADR
000912: 10,2731           54157                          TS       PLAYTEM3
000913:
000914: 10,2732           60072                          AD       RUPTREG3                              #  NOT USED FOR NON R ROUTINES
000915: 10,2733           00001                          TC       L
000916:
000917: 10,2734           34755        COPYNORM          CAF      ZERO
000918: 10,2735           54164        COPIES            TS       COPINDEX
000919: 10,2736           00004        COPIES2           INHINT
000920: 10,2737           30160                          CA       PLAYTEM4                              #  FLAGWORD
000921:
000922:                                                                                                 #  Page 1363
000923: 10,2740           50164                          INDEX    COPINDEX
000924: 10,2741           55070                          TS       EBANKSAV                              #  EQUIV TO DSPFLG
000925:
000926: 10,2742           73530                          MASK     CADRMASK                              #  FLASH AND GODSPRET
000927: 10,2743           00006                          EXTEND
000928: 10,2744           12750                          BZF      SKIPADD
000929:
000930: 10,2745           30157                          CA       PLAYTEM3
000931: 10,2746           50164                          INDEX    COPINDEX
000932: 10,2747           54372                          TS       CADRFLSH
000933:
000934: 10,2750           30155        SKIPADD           CA       PLAYTEM1                              #  VERB NOUN
000935: 10,2751           50164                          INDEX    COPINDEX
000936: 10,2752           54367                          TS       NVWORD
000937:
000938: 10,2753           13231                          TCF      RELINTQ
000939:
000940: 10,2754           50164        GOSLEEPS          INDEX    COPINDEX
000941: 10,2755           33531                          CA       PRIOOCT
000942: 10,2756           72760                          MASK     WAITMASK
000943: 10,2757           03544                          TC       UPENT2
000944: 10,2760           03004        WAITMASK          OCT      3004
000945: 10,2761           44753                          CS       ONE
000946: 10,2762           60164                          AD       COPINDEX
000947: 10,2763           54154                          TS       FACEREG
000948:
000949: 10,2764           50154        XCHSLEEP          INDEX    FACEREG
000950: 10,2765           33510                          CAF      WAKECADR
000951: 10,2766           00004                          INHINT
000952: 10,2767           05137                          TC       JOBWAKE                               #  FIND CADR IN JOB AREA
000953:
000954: 10,2770           03222                          TC       XCHTOEND                              #  CAUSES AWAKENED JOB TO GO TO ENDOFJOB
000955:
000956: 10,2771           50154                          INDEX    FACEREG                               #  REPLACE SAME CADR BUT NEW JOB AREA
000957: 10,2772           33510                          CAF      WAKECADR
000958: 10,2773           15133                          TCF      JOBSLEEP
000959:
000960: 10,2774           54154        JOBXCHS           TS       FACEREG                               #  CONTROLS TYPE OF DISPLAY PUT TO SLEEP
000961: 10,2775           03205                          TC       WITCHONE
000962: 10,2776           05137                          TC       JOBWAKE
000963: 10,2777           30154                          CA       FACEREG
000964: 10,3000           50064                          INDEX    LOCCTR
000965: 10,3001           54154                          TS       FACEREG
000966:
000967: 10,3002           33015                          CAF      XCHQADD
000968: 10,3003           03223                          TC       XCHNYLOC
000969:
000970: 10,3004           50154                          INDEX    FACEREG
000971: 10,3005           33532                          CA       MARKOCT
000972: 10,3006           73534                          MASK     IDLESLEP
000973:
000974:                                                                                                 #  Page 1364
000975: 10,3007           03554                          TC       DOWNENT2
000976: 10,3010           74004        IDLEMASK          OCT      74004                                 #  * DON'T MOVE
000977:
000978: 10,3011           50154                          INDEX    FACEREG                               #  BIT SHOWS PRIO INTERRUPTED NORM OR MARK
000979: 10,3012           34747                          CA       BIT5                                  #  BIT5 FOR MARK, BIT4 FOR NORMAL
000980: 10,3013           64751                          AD       FOUR
000981: 10,3014           03544                          TC       UPENT2                                #  FLAG ROUTINE DOES RELINT
000982: 10,3015           02764        XCHQADD           GENADR   XCHSLEEP                              #  * DON'T MOVE
000983: 10,3016           30100                          CA       FLAGWRD4
000984: 10,3017           74751                          MASK     MKOVBIT                               #  MARK OVER NORM?
000985: 10,3020           10000                          CCS      A
000986: 10,3021           02377        GENMARK           TC       MARKPLAY                              #  USED AS GENADR FOR JOBWAKE
000987: 10,3022           12536                          TCF      OKTOCOPY
000988:
000989: 10,3023           34755        MARKWAKE          CAF      ZERO
000990: 10,3024           54160        WAKEPLAY          TS       TEMPOR2
000991:
000992: 10,3025           50160                          INDEX    TEMPOR2
000993: 10,3026           33524                          CA       BITS5+11
000994: 10,3027           64751                          AD       FOUR
000995: 10,3030           03554                          TC       DOWNENT2
000996: 10,3031           40010        MARKFMSK          OCT      40010                                 #  *** DON'T MOVE
000997:
000998: 10,3032           50160                          INDEX    TEMPOR2
000999: 10,3033           33510                          CAF      WAKECADR
001000: 10,3034           00004                          INHINT
001001: 10,3035           05137                          TC       JOBWAKE
001002:
001003: 10,3036           13335                          TCF      ENDRET
001004:
001005:                                                                                                 #  ALL .1 RESTARTS BRANCH DIRECTLY TO INITDSP.  NORMAL DISPLAYS ARE THE ONLY DISPLAYS ALLOWED TO USE .1 RESTARTS
001006:                                                                                                 #  INITDSP FIRST RESTORES THE EBANK AND THE SUPERBANK TO THE MOST RECENT NORMAL EBANK AND SUPERBANK.
001007:
001008:                                                                                                 #  IF THE MOST RECENT NORMAL DISPLAY REQUEST WAS NOT FINISHED, CONTROL IS SENT BACK TO THE LAST NORMAL USER.
001009:                                                                                                 #  OTHERWISE THE NORMAL DISPLAY SET UP IN THE NORMAL DISPLAY REGS IS STARTED UP IMMEDIATELY.
001010:
001011: 10,3037           31072        INITDSP           CA       EBANKTEM                              #  RESTORE MOST RECENT NORMAL EBANK
001012: 10,3040           54003                          TS       EBANK
001013:
001014: 10,3041           30366                          CA       RESTREG                               #  SUPERBANK AND JOB PRIORITY
001015: 10,3042           04727                          TC       SUPERSW                               #  RESTORE SUPERBANK
001016:
001017: 10,3043           77725                          MASK     PRIO37
001018: 10,3044           05146                          TC       PRIOCHNG
001019:
001020: 10,3045           46245                          CS       THREE
001021: 10,3046           60374                          AD       TEMPFLSH
001022: 10,3047           14640                          TCF      BANKJUMP
001023:
001024: 10,3050           00003        PINBRNCH          RELINT                                         #  FOR GOPIN USERS
001025: 10,3051           31073                          CA       MARK2PAC                              #  NEEDED TO SAVE MPAC +2 FOR MARK USERS
001026:                                                                                                 #  Page 1365
001027: 10,3052           54156                          TS       MPAC       +2                         #  ONLY
001028:
001029: 10,3053           30100                          CA       FLAGWRD4                              #  PINBRANCH CONDITION
001030: 10,3054           77740                          MASK     PINMASK
001031: 10,3055           10000                          CCS      A
001032: 10,3056           13061                          TCF      +3
001033: 10,3057           13471                          TCF      ERASER                                #  ** NOTHING IN ENDIDLE
001034: 10,3060           12377                          TCF      MARKPLAY
001035:
001036: 10,3061           05504        NORMBNCH          TC       UPFLAG                                #  SET PINBRANCH BIT
001037: 10,3062           00105                          ADRES    PINBRFLG
001038:
001039: 10,3063           34736                          CAF      PRIODBIT                              #  PRIO INTERRUPTED
001040: 10,3064           70100                          MASK     FLAGWRD4
001041: 10,3065           10000                          CCS      A
001042: 10,3066           12544                          TCF      KEEPPRIO
001043:
001044: 10,3067           12615                          TCF      PLAYJUM1
001045:
001046: 10,3070           02417        NVDSP             TC       COPYPACS
001047:
001048: 10,3071           30160                          CA       TEMPOR2                               #  SET UP BLANK BITS FOR NVMONOPT IN CASE
001049: 10,3072           74757                          MASK     SEVEN                                 #  USER REQUESTS BLANKING MONITOR
001050: 10,3073           54001                          TS       L
001051:
001052: 10,3074           44737                          CS       BIT13
001053: 10,3075           50164                          INDEX    COPINDEX
001054: 10,3076           71070                          MASK     DSPFLG
001055: 10,3077           50164                          INDEX    COPINDEX
001056: 10,3100           55070                          TS       DSPFLG
001057:
001058: 10,3101           74744                          MASK     BIT8                                  #  BIT8 SET IF DEC MARK PERFORM DISPLAY
001059: 10,3102           54141                          TS       TEM1
001060:
001061: 10,3103           30156                          CA       MPAC       +2
001062: 10,3104           54165                          TS       MPAC2SAV
001063:
001064: 10,3105           55073                          TS       MARK2PAC                              #  * FOR DISK ONLY *
001065: 10,3106           50164                          INDEX    COPINDEX
001066: 10,3107           10367                          CCS      NVWORD
001067: 10,3110           13117                          TCF      NVDSP1
001068: 10,3111           13233                          TCF      CLEANEND
001069: 10,3112           40370                          CS       MARKNV
001070: 10,3113           54370                          TS       MARKNV                                #  IN CASE MARKPLAY AWAKENED AFTER SLEEPING
001071: 10,3114           76074                          MASK     LOW7
001072: 10,3115           63515                          AD       V05N00M1
001073: 10,3116           60141                          AD       TEM1
001074: 10,3117           64753        NVDSP1            AD       ONE
001075: 10,3120           04155        NV50DSP           TC       NVMONOPT
001076: 10,3121           13245                          TCF      REST                                  #  IF BUSY
001077:
001078:                                                                                                 #  Page 1366
001079: 10,3122           04433                          TC       FLASHOFF                              #  IN CASE OF EXTENDED VERB NON-FLASH
001080:
001081: 10,3123           02415                          TC       COPYTOGO                              #  MPACS DESTROYED BY NVSUB
001082: 10,3124           05516                          TC       DOWNFLAG                              #  UNSET SLEEPING BITS
001083: 10,3125           00102                          ADRES    MRKNVFLG
001084: 10,3126           05516                          TC       DOWNFLAG
001085: 10,3127           00103                          ADRES    NRMNVFLG
001086: 10,3130           05516                          TC       DOWNFLAG
001087: 10,3131           00104                          ADRES    PRONVFLG
001088: 10,3132           30160        BLANKCHK          CA       TEMPOR2                               #  BLANK BITS 1,2,3 IF SET
001089: 10,3133           04255                          TC       BLANKSUB
001090: 10,3134           13070                          TCF      NVDSP
001091: 10,3135           34747        PERFCHEK          CAF      BIT5                                  #  BIT5 FOR PERFORM
001092: 10,3136           70160                          MASK     TEMPOR2
001093: 10,3137           10000                          CCS      A                                     #  IS THIS A GOPERF DISPLAY
001094: 10,3140           13163                          TCF      1STOR2ND                              #  YES
001095:
001096: 10,3141           34750        GOANIDLE          CAF      BIT4
001097: 10,3142           70160                          MASK     TEMPOR2
001098: 10,3143           10000                          CCS      A
001099: 10,3144           13260                          TCF      FLASHSUB                              #  IT IS
001100:
001101: 10,3145           40160                          CS       TEMPOR2                               #  IS THIS A GODSPRET
001102: 10,3146           74746                          MASK     BIT6
001103: 10,3147           10000                          CCS      A
001104: 10,3150           13155                          TCF      ISITN00
001105:
001106: 10,3151           50164                          INDEX    COPINDEX
001107: 10,3152           30372                          CA       CADRFLSH
001108: 10,3153           54157                          TS       MPAC       +3
001109: 10,3154           13353                          TCF      ENDIT
001110:
001111: 10,3155           50164        ISITN00           INDEX    COPINDEX                              #  IS THIS A PASTE
001112: 10,3156           30367                          CA       NVWORD
001113: 10,3157           76074                          MASK     LOW7                                  #  CHECK MADE FOR PINBRNCH AND PRIO ON MARK
001114: 10,3160           00006                          EXTEND
001115: 10,3161           13260                          BZF      FLASHSUB                              #  YES, ASSUME PASTE ALWAYS ON FLASH
001116:
001117: 10,3162           15155                          TCF      ENDOFJOB                              #  NOT FLASH, NOT GOPERF, THEREFORE EXIT
001118:
001119: 10,3163           30160        1STOR2ND          CA       TEMPOR2
001120: 10,3164           74737                          MASK     BIT13
001121: 10,3165           10000                          CCS      A
001122: 10,3166           13141                          TCF      GOANIDLE                              #  SECOND
001123:
001124: 10,3167           34737                          CA       BIT13
001125: 10,3170           50164                          INDEX    COPINDEX
001126: 10,3171           27070                          ADS      DSPFLG
001127:
001128: 10,3172           22007                          ZL
001129:                                                                                                 #  Page 1367
001130: 10,3173           00006                          EXTEND                                         #  IS IT MARK
001131: 10,3174           62440                          BZMF     MARKPERF                              #  YES
001132:
001133: 10,3175           74740                          MASK     BIT12
001134: 10,3176           00006                          EXTEND
001135: 10,3177           13203                          BZF      V50PASTE
001136: 10,3200           41067                          CS       NVWORD1                               #  NVOWRD1= -0 IS V97.  NVWORD1= -400 IS V99
001137: 10,3201           63541                          AD       V97N00
001138: 10,3202           13120                          TCF      NV50DSP
001139: 10,3203           33500        V50PASTE          CAF      V50N00
001140: 10,3204           13120                          TCF      NV50DSP                               #  DISPLAY SECOND PART OF GOPERF
001141:
001142: 10,3205           44747        WITCHONE          CS       BIT5                                  #  TURN OFF KEY RELEASE LIGHT
001143: 10,3206           00006                          EXTEND
001144: 10,3207           03011                          WAND     DSALMOUT
001145:
001146: 10,3210           30100                          CA       FLAGWRD4
001147: 10,3211           73516                          MASK     NVBUSMSK                              #  IS IT NVSUB ALEEP
001148: 10,3212           10000                          CCS      A
001149: 10,3213           34753                          CAF      ONE
001150: 10,3214           54001                          TS       L
001151: 10,3215           34755                          CAF      ZERO
001152: 10,3216           50001                          INDEX    L
001153: 10,3217           57042                          XCH      CADRSTOR
001154:
001155: 10,3220           00004                          INHINT
001156: 10,3221           00002                          TC       Q
001157:
001158: 10,3222           34217        XCHTOEND          CAF      ENDINST                               #  TC ENDOFJOB REPLACES GENADR IN LOC FOR
001159: 10,3223           56064        XCHNYLOC          XCH      LOCCTR                                #  WAS THIS ADDRESS SLEEPING
001160: 10,3224           00006                          EXTEND
001161: 10,3225           63231                          BZMF     RELINTQ                               #  NO
001162: 10,3226           56064                          XCH      LOCCTR                                #  YES
001163: 10,3227           50064                          INDEX    LOCCTR
001164: 10,3230           54164                          TS       LOC
001165:
001166: 10,3231           00003        RELINTQ           RELINT
001167: 10,3232           00002                          TC       Q                                     #  BACK TO USER
001168:
001169: 10,3233           37720        CLEANEND          CAF      PRIO32                                #  ONE LOWER THAN DISPLAYS SLEEPING
001170: 10,3234           05105                          TC       FINDVAC
001171: 10,3235     0371                                 EBANK=   NVSAVE
001172: 10,3235           04231 04060                    2CADR    JAMTERM
001173:
001174: 10,3237           13261                          TCF      FLASHSUB   +1
001175:
001176: 10,3240           30100        ISITPRIO          CA       FLAGWRD4
001177: 10,3241           73266                          MASK     ITISMASK                              #  IS PINBRFLG, MARKIDFLG SET
001178: 10,3242           00006                          EXTEND
001179:                                                                                                 #  Page 1368
001180: 10,3243           12575                          BZF      PRIOBORT
001181: 10,3244           15155                          TCF      ENDOFJOB
001182:
001183: 10,3245           11042        REST              CCS      CADRSTOR                              #  IS SOMEONE IN ENDIDLE
001184: 10,3246           15155                          TCF      ENDOFJOB                              #  YES
001185: 10,3247           13251                          TCF      RESTSLEP
001186:
001187: 10,3250           15155                          TCF      ENDOFJOB
001188:
001189: 10,3251           30162        RESTSLEP          CA       GENMASK                               #  SET NVSLEEP BITS
001190: 10,3252           73517                          MASK     ASTROMSK
001191: 10,3253           03544                          TC       UPENT2
001192: 10,3254           24100        OCT24100          OCT      24100                                 #  *** DON'T MOVE
001193:
001194: 10,3255           50164                          INDEX    COPINDEX
001195: 10,3256           33507                          CAF      NVCADR
001196: 10,3257           04442                          TC       NVSUBUSY                              #  BUSY OR ABORT IF ILLEGAL
001197:
001198: 10,3260           04427        FLASHSUB          TC       FLASHON
001199:
001200: 10,3261           30164                          CA       COPINDEX                              #  COPINDEX DESTROYED BY ENDIDLE
001201: 10,3262           54157                          TS       COPMPAC
001202:
001203: 10,3263           30162                          CA       GENMASK
001204: 10,3264           73010                          MASK     IDLEMASK
001205: 10,3265           03544                          TC       UPENT2
001206: 10,3266           40040        ITISMASK          OCT      40040                                 #  *** ENDIDLE ALLOW *** DON'T MOVE
001207:
001208: 10,3267           31074                          CA       R1SAVE                                #  IS THIS A REPEAT AND RETURN DISPLAY
001209: 10,3270           50164                          INDEX    COPINDEX
001210: 10,3271           74751                          MASK     BIT3
001211: 10,3272           10000                          CCS      A
001212: 10,3273           13360                          TCF      UNSETR1                               #  YES
001213:
001214: 10,3274           11042                          CCS      CADRSTOR                              #  SEE IF SOMEONE ALREADY IN ENDIDLE
001215: 10,3275           13240                          TCF      ISITPRIO
001216: 10,3276           13300                          TCF      +2
001217: 10,3277           13240                          TCF      ISITPRIO
001218:
001219: 10,3300           04207                          TC       ENDIDLE
001220: 10,3301           13372        IDLERET1          TCF      TERMATE
001221:
001222: 10,3302           13411                          TCF      PROCEED                               #  ENDIDLE RETURNS HERE ON PROCEED
001223:
001224: 10,3303           43526                          CS       LOWLOAD
001225: 10,3304           60154                          AD       MPAC                                  #  VERBREG
001226: 10,3305           00006                          EXTEND
001227: 10,3306           26000                          DIM      A
001228: 10,3307           00006                          EXTEND
001229: 10,3310           13461                          BZF      LOADITIS                              #  V21 OR V22 OR V23 ON DSKY
001230:
001231:                                                                                                 #  Page 1369
001232: 10,3311           34752        OKTOENT           CAF      TWO
001233: 10,3312           54161        ENDOUT            TS       OUTHERE
001234:
001235: 10,3313           30100                          CA       FLAGWRD4                              #  CHECK NATURE OF ENDIDLE RETURN
001236: 10,3314           74101                          MASK     OCT60000
001237: 10,3315           10000                          CCS      A
001238: 10,3316           13321                          TCF      TIMECHEK                              #  PRIO ENDIDLE RETURN
001239: 10,3317           13427                          TCF      NORMRET                               #  NORMAL ENDIDLE RETURN
001240: 10,3320           13413                          TCF      MARKRET                               #  MARK ENDIDLE RETURN
001241:
001242: 10,3321           40025        TIMECHEK          CS       TIME1
001243: 10,3322           61165                          AD       PRIOTIME
001244: 10,3323           10000                          CCS      A
001245: 10,3324           40000                          COM
001246: 10,3325           67731                          AD       OCT37776
001247: 10,3326           64753                          AD       ONE
001248: 10,3327           63570                          AD       -2SEC
001249: 10,3330           00006                          EXTEND
001250: 10,3331           62544                          BZMF     KEEPPRIO
001251:
001252: 10,3332           13427                          TCF      NORMRET
001253:
001254: 10,3333           34753        NORMWAKE          CAF      ONE
001255: 10,3334           13024                          TCF      WAKEPLAY
001256:
001257: 10,3335           10161        ENDRET            CCS      OUTHERE
001258: 10,3336           64753                          AD       ONE
001259: 10,3337           13341                          TCF      +2                                    #  NORMAL ENDIDLE EXIT
001260: 10,3340           15155                          TCF      ENDOFJOB
001261: 10,3341           50157                          INDEX    COPMPAC
001262: 10,3342           60372                          AD       CADRFLSH
001263: 10,3343           54157                          TS       MPAC       +3
001264:
001265: 10,3344           30162                          CA       GENMASK                               #  REMOVE ENDIDLE AND PINBRANCH BITS
001266: 10,3345           73347                          MASK     PINIDMSK
001267: 10,3346           03554                          TC       DOWNENT2
001268: 10,3347           74044        PINIDMSK          OCT      74044                                 #  *** DON'T MOVE
001269:
001270: 10,3350           46245                          CS       THREE                                 #  BLANK EVERYTHING EXCEPT MM
001271: 10,3351           04154                          TC       NVSUB
001272: 10,3352           13353                          TCF      +1
001273:
001274: 10,3353           30163        ENDIT             CA       USERPRIO                              #  RETURN TO USER'S PRIORITY
001275: 10,3354           77725                          MASK     PRIO37
001276: 10,3355           05146                          TC       PRIOCHNG
001277: 10,3356           30157                          CA       MPAC       +3
001278: 10,3357           14640                          TCF      BANKJUMP
001279:
001280: 10,3360           50164        UNSETR1           INDEX    COPINDEX                              #  RESET REPEAT AND RETURN REQUEST
001281: 10,3361           44751                          CS       BIT3
001282:                                                                                                 #  Page 1370
001283: 10,3362           71074                          MASK     R1SAVE
001284: 10,3363           55074                          TS       R1SAVE
001285:
001286: 10,3364           34755                          CAF      ZERO                                  #  *** 205 ONLY MARKBRAN USERS IN
001287: 10,3365           04727                          TC       SUPERSW                               #  SUPERBANK 0
001288:
001289: 10,3366           36245                 -1       CAF      THREE                                 #  RETURN TO USER'S IMMEDIATE RETURN LOC
001290: 10,3367           50164        IMMEDRET          INDEX    COPINDEX
001291: 10,3370           60372                          AD       CADRFLSH
001292: 10,3371           14640                          TCF      BANKJUMP
001293:
001294: 10,3372           34755        TERMATE           CAF      ZERO                                  #  ASTRONAUT TERMINATE (V34) RETURNS TO
001295: 10,3373           13312                          TCF      ENDOUT
001296:
001297: 10,3374           40160        LINUSCHR          CS       PLAYTEM4                              #  IS THIS A LINUS
001298: 10,3375           74736                          MASK     BIT14
001299: 10,3376           10000                          CCS      A
001300: 10,3377           16737                          TCF      Q+1                                   #  NO
001301: 10,3400           40157                          CS       PLAYTEM3                              #  YES, IS IT ALREADY IN ENDIDLE
001302: 10,3401           50164                          INDEX    COPINDEX
001303: 10,3402           60372                          AD       CADRFLSH
001304: 10,3403           00006                          EXTEND
001305: 10,3404           13406                          BZF      +2                                    #  YES
001306:
001307: 10,3405           00002                          TC       Q                                     #  NO
001308: 10,3406           11012                          CCS      DSPLOCK                               #  IS THE ASTRONAUT BUSY
001309: 10,3407           05155                          TC       ENDOFJOB                              #  END THE NEW DISPLAY, IT'S ALREADY ACTIVE
001310: 10,3410           00002                          TC       Q
001311:
001312:                                                                                                 #  MORE LOGIC COULD BE INCORPORATED HERE TO MAKE SURE A RECYCLE IS A RECYCLE AND CONVERSELY THAT A LOAD IS A LOAD
001313:
001314: 10,3411           34753        PROCEED           CAF      ONE                                   #  ASTRONAUT PROCEED (V33) RETURNS
001315: 10,3412           13312                          TCF      ENDOUT
001316:
001317:                                                                                                 #  LASTPLAY CHECKS TO SEE IF (1) THE LAST NORMAL DISPLAY WAS EITHER INTERRUPTED BY A PRIO OR A MARK (MARK
001318:                                                                                                 #  COULD ONLY HAPPEN DURING PINBRANCH) OR IF (2) THE LAST NORMAL DISPLAY WAS REQUESTED WHILE A HIGHER PRIORITY
001319:                                                                                                 #  DISPLAY WAS GOING, RESULTING IN THE NORMAL BEING PUT TO SLEEP.
001320:
001321:                                                                                                 #  IF EITHER OF THE ABOVE 2 CONDITIONS EXISTS, THE NORMAL DISPLAY IS AWAKENED TO GO TO PLAYJUM1 WHICH STARTS
001322:                                                                                                 #  UP THE MOST RECENT VALID NORMAL DISPLAY.  IF THESE 2 CONDITIONS DO NOT EXIST, CONTROL GOES TO PLAYJUM1 WHICH IS
001323:                                                                                                 #  STARTED IMMEDIATELY WITH THE ASSUMPTION THAT THE MOST RECENT NORMAL DISPLAY IS ALREADY IN ENDIDLE (DURING A
001324:                                                                                                 #  PINBRNCH) OR THAT A RESTART HAS OCCURRED AND THE DISPLAY CAN BE STARTED AS A .1 RESTART.
001325:
001326: 10,3413           46242        MARKRET           CS       SIX
001327: 10,3414           70100                          MASK     FLAGWRD4
001328: 10,3415           00004                          INHINT                                         #  *** MAY MOVE DISPLAY FLAGWORD OUT OF
001329: 10,3416           54100                          TS       FLAGWRD4
001330:
001331: 10,3417           00003                          RELINT                                         #  INHINT REALM
001332: 10,3420           13335                          TCF      ENDRET
001333:
001334:                                                                                                 #  Page 1371
001335: 10,3421           37747        MARKOVER          CAF      MINUS1                                #  RUPTREG2 IS - MEANS ENDOFJOB TO ENDRET
001336: 10,3422           54161                          TS       OUTHERE
001337:
001338: 10,3423           30100                          CA       FLAGWRD4                              #  IS ENDIDFLG SET
001339: 10,3424           74355                          MASK     PRIO30                                #  IS NORMAL OR PRIO IN ENDIDLE
001340: 10,3425           10000                          CCS      A
001341: 10,3426           13061                          TCF      NORMBNCH
001342:
001343: 10,3427           30100        NORMRET           CA       FLAGWRD4                              #  IS MARK SLEEPING
001344: 10,3430           73524                          MASK     BITS5+11                              #  OR WAITING
001345: 10,3431           10000                          CCS      A
001346: 10,3432           13023                          TCF      MARKWAKE
001347:
001348: 10,3433           30100                          CA       FLAGWRD4                              #  NO
001349: 10,3434           73525                          MASK     BITS4+10                              #  IS NORMAL INTERRUPTED OR WAITING
001350: 10,3435           10000                          CCS      A
001351: 10,3436           13333                          TCF      NORMWAKE                              #  YES
001352:
001353: 10,3437           31072                          CA       EBANKTEM                              #  NO, WAS IT A FLASH REQUEST
001354: 10,3440           74771                          MASK     OCT50                                 #  OR A GODSPRET
001355: 10,3441           10000                          CCS      A
001356: 10,3442           13335                          TCF      ENDRET                                #  YES
001357: 10,3443           30371                          CA       NVSAVE
001358: 10,3444           00006                          EXTEND
001359: 10,3445           13335                          BZF      ENDRET
001360:
001361: 10,3446           35025                          CAF      PRIO15
001362: 10,3447           00004                          INHINT
001363: 10,3450           05072                          TC       NOVAC
001364: 10,3451     0367                                 EBANK=   NVWORD
001365: 10,3451           02615 20060                    2CADR    PLAYJUM1
001366:
001367: 10,3453           13335                          TCF      ENDRET
001368:
001369: 10,3454           30100        MARSLEEP          CA       FLAGWRD4                              #  IS MARK ALREADY IN
001370: 10,3455           73524                          MASK     BITS5+11
001371: 10,3456           10000                          CCS      A
001372: 10,3457           15155                          TCF      ENDOFJOB                              #  YES
001373: 10,3460           12754                          TCF      GOSLEEPS
001374:
001375: 10,3461           50157        LOADITIS          INDEX    COPMPAC
001376: 10,3462           30367                          CA       NVWORD
001377: 10,3463           76074                          MASK     LOW7
001378: 10,3464           40000                          COM
001379: 10,3465           60155                          AD       MPAC       +1                         #  NOUNREG
001380: 10,3466           00006                          EXTEND
001381: 10,3467           13311                          BZF      OKTOENT                               #  NO, THEN LOAD IS VALID
001382: 10,3470           13050                          TCF      PINBRNCH                              #  YES, ACCEPT LOAD BUT ASK FOR LAST AGAIN
001383:
001384:                                                                                                 #  Page 1372
001385: 10,3471           46245        ERASER            CS       THREE                                 #  BLANK EVERYTHING EXCEPT MM
001386: 10,3472           04154                          TC       NVSUB
001387: 10,3473           15155                          TCF      ENDOFJOB
001388: 10,3474           15155                          TCF      ENDOFJOB
001389:
001390: 10,3475           00036        PERFMASK          OCT      0036                                  #  FLASH, PERFORM, BLANK R2 AND R3
001391: 10,3476           00231        V01N25            VN       00125
001392: 10,3477           01407        V06N07            VN       00607                                 #  GOPERF3 VN DISPLAY BEFORE V50
001393: 10,3500           14400        V50N00            VN       5000
001394: 10,3501           00030        PERF2MSK          OCT      00030                                 #  FLASH, PERFORM
001395: 10,3502           01006        V04N06            VN       00406
001396: 10,3503           00014        PERF4MSK          OCT      14                                    #  FLASH, BLANK R3
001397: 10,3504  10,3050               GOAGIN            EQUALS   PINBRNCH
001398: 10,3504           20010        REDOMASK          OCT      20010                                 #  BITS 4 AND 14
001399: 10,3505           40230        MARK3MSK          OCT      40230                                 #  MARK, DECIMAL NOUN, PERFORM, FLASH
001400: 10,3506           40036        MARK4MSK          OCT      40036                                 #  MARK, PERFORM, FLASH, BLANK 2 AND 3
001401: 10,3507           20542        NVCADR            CADR     REDOPRIO
001402: 10,3510           20377        WAKECADR          CADR     MARKPLAY
001403: 10,3511           20615                          CADR     PLAYJUM1
001404:
001405: 10,3512           03400        OCT3400           OCT      3400                                  #  EBANK MASK
001406: 10,3513           11210        NBUSMASK          OCT      11210
001407: 10,3514           66521        PMMASK            OCT      66521
001408: 10,3515     4144               VERBMASK          =        MID7                                  #  (OCT 37600)
001409: 10,3515           01177        V05N00M1          OCT      1177                                  #  V05 MINUS ONE
001410: 10,3516  10,2330               GOXDSP            EQUALS   GOMARK
001411: 10,3516  10,2350               GOXDSPR           EQUALS   GOMARKR
001412: 10,3516  10,2334               GOXDSPF           EQUALS   GOMARKF
001413: 10,3516  10,2353               GOXDSPFR          EQUALS   GOMARKFR
001414: 10,3516     5472               ENDEXT            EQUALS   ENDMARK
001415: 10,3516     0165               MPAC2SAV          EQUALS   BANKSET
001416: 10,3516           00700        NVBUSMSK          OCT      700
001417: 10,3517           00704        ASTROMSK          OCT      704
001418: 10,3520           40030        MPERFMSK          OCT      40030                                 #  BIT 15,5,4 FOR MARK,PERFORM,FLASH
001419: 10,3521           34300        OCT34300          OCT      34300
001420: 10,3522           40100        BITS15+7          OCT      40100
001421: 10,3523           00110        BITS7+4           OCT      110
001422: 10,3524     1070               DSPFLG            EQUALS   EBANKSAV
001423: 10,3524     1071               MARKFLAG          EQUALS   MARKEBAN
001424: 10,3524     1072               SAVEFLAG          EQUALS   EBANKTEM
001425: 10,3524           02020        BITS5+11          OCT      2020                                  #  * DON'T MOVE
001426: 10,3525           01010        BITS4+10          OCT      1010                                  #  * DON'T MOVE
001427: 10,3526           00026        LOWLOAD           DEC      22         B-14
001428: 10,3527           77730        BUSYMASK          OCT      77730
001429: 10,3530           00050        CADRMASK          OCT      50
001430: 10,3531     7740               PINMASK           EQUALS   13,14,15
001431: 10,3531  10,3070               GOPLAY            EQUALS   NVDSP
001432: 10,3531     1074               PRIOSAVE          EQUALS   R1SAVE
001433: 10,3531     0157               COPMPAC           EQUALS   MPAC       +3
001434: 10,3531     0160               TEMPOR2           EQUALS   MPAC       +4
001435:
001436:                                                                                                 #  Page 1373
001437: 10,3531     0161               OUTHERE           EQUALS   MPAC       +5
001438: 10,3531     0164               COPINDEX          EQUALS   LOC
001439: 10,3531     0163               USERPRIO          EQUALS   MODE
001440: 10,3531     0162               GENMASK           EQUALS   MPAC       +6
001441: 10,3531           20144        PRIOOCT           OCT      20144                                 #  PRIO
001442: 10,3532           42424        MARKOCT           OCT      42424                                 #  MARK
001443: 10,3533           11254                          OCT      11254                                 #  NORM
001444:
001445: 10,3534           74704        IDLESLEP          OCT      74704
001446: 10,3535           67777        OCT67777          OCT      67777
001447: 10,3536     5464               LINUS             EQUALS   BLANKET
001448: 10,3536     0154               FACEREG           EQUALS   MPAC
001449: 10,3536     0155               PLAYTEM1          EQUALS   MPAC       +1
001450: 10,3536     0157               PLAYTEM3          EQUALS   MPAC       +3
001451: 10,3536     0160               PLAYTEM4          EQUALS   MPAC       +4
001452: 10,3536           40420        OCT40420          OCT      40420
001453: 10,3537           02546        MAKEGEN           GENADR   MAKEPLAY
001454: 10,3540           10200        OCT10200          OCT      10200
001455: 10,3541           30200        V97N00            VN       09700                                 #  PASTE FOR V97 OR V99
001456: 10,3542           20100        OCT20100          OCT      20100
001457: 10,3543           24030        CLOCKCON          OCT      24030                                 #  FLASH, PERFORM, V99 OR V97 PASTE, REFLASH

End of include-file DISPLAY_INTERFACE_ROUTINES.agc.  Parent file is MAIN.agc


