
Source Code


000002:                                                                                                  ## Copyright:   Public domain.
000003:                                                                                                  ## Filename:    DOWN_TELEMETRY_PROGRAM.agc
000004:                                                                                                  ## Purpose:     Part of the source code for Luminary 1A build 099.
000005:                                                                                                  ##              It is part of the source code for the Lunar Module's (LM)
000006:                                                                                                  ##              Apollo Guidance Computer (AGC), for Apollo 11.
000007:                                                                                                  ## Assembler:   yaYUL
000008:                                                                                                  ## Contact:     Ron Burkey <info@sandroid.org>.
000009:                                                                                                  ## Website:     www.ibiblio.org/apollo.
000010:                                                                                                  ## Pages:       988-997
000011:                                                                                                  ## Mod history: 2009-05-24 RSB  Adapted from the corresponding
000012:                                                                                                  ##                              Luminary131 file, using page
000013:                                                                                                  ##                              images from Luminary 1A.
000014:                                                                                                  ##              2011-01-06 JL   Fixed pseudo-label indentation.
000015:                                                                                                  ##              2016-12-17 RSB  Proofed text comments with octopus/ProoferComments
000016:                                                                                                  ##                              and corrected the errors found.
000017:                                                                                                  ##
000018:                                                                                                  ## This source code has been transcribed or otherwise adapted from
000019:                                                                                                  ## digitized images of a hardcopy from the MIT Museum.  The digitization
000020:                                                                                                  ## was performed by Paul Fjeld, and arranged for by Deborah Douglas of
000021:                                                                                                  ## the Museum.  Many thanks to both.  The images (with suitable reduction
000022:                                                                                                  ## in storage size and consequent reduction in image quality as well) are
000023:                                                                                                  ## available online at www.ibiblio.org/apollo.  If for some reason you
000024:                                                                                                  ## find that the images are illegible, contact me at info@sandroid.org
000025:                                                                                                  ## about getting access to the (much) higher-quality images which Paul
000026:                                                                                                  ## actually created.
000027:                                                                                                  ##
000028:                                                                                                  ## Notations on the hardcopy document read, in part:
000029:                                                                                                  ##
000030:                                                                                                  ##      Assemble revision 001 of AGC program LMY99 by NASA 2021112-61
000031:                                                                                                  ##      16:27 JULY 14, 1969
000032:


000034:                                                                                                  #  PROGRAM NAME - DOWN TELEMETRY PROGRAM
000035:                                                                                                  #  MOD NO. - 0           TO COMPLETELY REWRITE THE DOWN TELEMETRY PROGRAM AND DOWNLINK ERASABLE DUMP PROGRAM FOR THE
000036:                                                                                                  #                        PURPOSE OF SAVING APPROXIMATELY 150 WORDS OF CORE STORAGE.
000037:                                                                                                  #                        THIS CHANGE REQUIRES AN ENTIRELY NEW METHOD OF SPECIFYING DOWNLINK LISTS.  REFER TO DOWNLINK
000038:                                                                                                  #                        LISTS LOG SECTION FOR MORE DETAILS.  HOWEVER THIS CHANGE WILL NOT AFFECT THE GROUND PROCESSING
000039:                                                                                                  #                        OF DOWN TELEMETRY DATA.
000040:                                                                                                  #  MOD BY - KILROY, SMITH, DEWITT
000041:                                                                                                  #  DATE - 02 OCT 67
000042:                                                                                                  #  AUTHORS - KILROY, SMITH, DEWITT, DEWOLF, FAGIN
000043:                                                                                                  #  LOG SECTION - DOWN-TELEMETRY PROGRAM
000044:
000045:                                                                                                  #  FUNCTIONAL DESCRIPTION - THIS ROUTINE IS INITIATED BY TELEMETRY END
000046:                                                                                                  #        PULSE FROM THE DOWNLINK TELEMETRY CONVERTER.  THIS PULSE OCCURS
000047:                                                                                                  #        AT 50 TIMES PER SEC (EVERY 20 MS) THEREFORE DODOWNTM IS
000048:                                                                                                  #        EXECUTED AT THESE RATES.  THIS ROUTINE SELECTS THE APPROPRIATE
000049:                                                                                                  #        AGC DATA TO BE TRANSMITTED DOWNLINK AND LOADS IT INTO OUTPUT
000050:                                                                                                  #        CHANNELS 34 AND 35.  THE INFORMATION IS THEN GATED OUT FROM THE
000051:                                                                                                  #        LGC IN SERIAL FASHION.
000052:
000053:                                                                                                  #        THIS PROGRAM IS CODED FOR A 2 SECOND DOWNLIST.  SINCE DOWNRUPTS
000054:                                                                                                  #        OCCUR EVERY 20 MS AND 2 AGC COMPUTER WORDS CAN BE PLACED IN
000055:                                                                                                  #        CHANNELS 34 AND 35 DURING EACH DOWNRUPT THE PROGRAM IS CAPABLE
000056:                                                                                                  #        OF SENDING 200 AGC WORDS EVERY 2 SECONDS.
000057:
000058:                                                                                                  #  CALLING SEQUENCE - NONE
000059:                                                                                                  #        PROGRAM IS ENTERED VIA TCF DODOWNTM WHICH IS EXECUTED AS A
000060:                                                                                                  #        RESULT OF A DOWNRUPT.  CONTROL IS RETURNED VIA TCF RESUME WHICH
000061:                                                                                                  #        IN EFFECT IS A RESUME.
000062:
000063:                                                                                                  #  SUBROUTINES CALLED - NONE
000064:
000065:                                                                                                  #  NORMAL EXIT MODE - TCF RESUME
000066:
000067:                                                                                                  #  ALARM OR ABORT EXIT MODE - NONE
000068:
000069:                                                                                                  #  RESTART PROTECTION:
000070:                                                                                                  #        ON A FRESH START AND RESTART THE 'STARTSUB' SUBROUTINE WILL INITIALIZE THE DOWNLIST POINTER (ACTUALLY
000071:                                                                                                  #        DNTMGOTO) TO THE BEGINNING OF THE CURRENT DOWNLIST (I.E. CURRENT CONTENTS OF DNLSTADR).  THIS HAS THE
000072:                                                                                                  #        EFFECT OF IGNORING THE REMAINDER OF THE DOWNLIST WHICH THE DOWN-TELEMETRY PROGRAM WAS WORKING ON WHEN
000073:                                                                                                  #        THE RESTART (OR FRESH START) OCCURRED AND RESUME DOWN TELEMETRY FROM THE BEGINNING OF THE CURRENT
000074:                                                                                                  #        DOWNLIST.
000075:
000076:                                                                                                  #        ALSO OF INTEREST IS THE FACT THAT ON A RESTART THE AGC WILL ZERO DOWNLINK CHANNELS 13, 34 AND 35.
000077:
000078:                                                                                                  #  DOWNLINK LIST SELECTION:
000079:                                                                                                  #        THE APPROPRIATE DOWNLINK LISTS ARE SELECTED BY THE FOLLOWING:
000080:                                                                                                  #        1.      FRESH START
000081:                                                                                                  #        2.      V37EXXE WHERE XX = THE MAJOR MODE BEING SELECTED.
000082:                                                                                                  #        3.      UPDATE PROGRAM (P27)
000083:                                                                                                  #        4.      NON-V37 SELECTABLE TYPE PROGRAMS (E.G. AGS INITIALIZATION (SUNDANCE, LUMINARY) AND P61-P62
000084:                                                                                                  #                TRANSITION (COLOSSUS) ETC.).
000085:
000086:                                                                                                  #  DOWNLINK LIST RULES AND LIMITATIONS:
000087:                                                                                                  #        READ SECTION(S) WHICH FOLLOW 'DEBRIS' WRITEUP.
000088:
000089:                                                                                                  #  OUTPUT - EVERY 2 SECONDS 100 DOUBLE PRECISION WORDS (I.E. 200 LGC
000090:                                                                                                  #        COMPUTER WORDS) ARE TRANSMITTED VIA DOWNLINK.
000091:
000092:                                                                                                  #  ERASABLE INITIALIZATION REQUIRED - NONE
000093:                                                                                                  #        'DNTMGOTO' AND 'DNLSTADR' ARE INITIALIZED BY THE FRESH START PROGRAM.
000094:
000095:                                                                                                  #  DEBRIS (ERASABLE LOCATIONS DESTROYED BY THIS PROGRAM) -
000096:                                                                                                  #        LDATALST, DNTMBUFF TO DNTMBUFF +21D, TMINDEX, DNQ.
000097:


000100:


000102:                                                                                                  #  DODOWNTM IS ENTERED EVERY 20 MS BY AN INTERRUPT TRIGGERED BY THE
000103:                                                                                                  #  RECEIPT OF AN ENDPULSE FROM THE SPACECRAFT TELEMETRY PROGRAMMER.
000104:
000105:                                                                                                  #  NOTES REGARDING DOWNLINK LISTS ASSOCIATED WITH THIS PROGRAM:
000106:                                                                                                  #  1.    DOWNLISTS. - DOWNLISTS MUST BE COMPILED IN THE SAME BANK AS THE
000107:                                                                                                  #        DOWN-TELEMETRY PROGRAM.  THIS IS DONE FOR EASE OF CODING, FASTER
000108:                                                                                                  #        EXECUTION.
000109:                                                                                                  #  2.    EACH DOWNLINK LIST CONSISTS OF A CONTROL LIST AND A NUMBER OF
000110:                                                                                                  #        SUBLISTS.
000111:                                                                                                  #  3.    A SUBLIST REFERS TO A SNAPSHOT OR DATA COMMON TO THE SAME OR OTHER
000112:                                                                                                  #        DOWNLINK LISTS.  ANY SUBLIST CONTAINING COMMON DATA NEEDS TO BE
000113:                                                                                                  #        CODED ONLY ONCE FOR THE APPLICABLE DOWNLINK LISTS.
000114:                                                                                                  #  4.    SNAPSHOT SUBLISTS REFER SPECIFICALLY TO HOMOGENOUS DATA WHICH MUST BE
000115:                                                                                                  #        SAVED IN A BUFFER DURING ONE DOWNRUPT.
000116:                                                                                                  #  5.    THE 1DNADR FOR THE 1ST WORD OF SNAPSHOT DATA IS FOUND AT THE END
000117:                                                                                                  #        OF EACH SNAPSHOT SUBLIST, SINCE THE PROGRAM CODING SENDS THIS DP WORD
000118:                                                                                                  #        IMMEDIATELY AFTER STORING THE OTHERS IN THE SNAPSHOT BUFFER.
000119:                                                                                                  #  6.    ALL LISTS ARE COMBINATIONS OF CODED ERASABLE ADDRESS CONSTANTS
000120:                                                                                                  #        CREATED FOR THE DOWNLIST PROGRAM.
000121:                                                                                                  #        A.      1DNADR                  1-WORD DOWNLIST ADDRESS.
000122:                                                                                                  #                SAME AS ECADR, BUT USED WHEN THE WORD ADDRESSED IS THE LEFT
000123:                                                                                                  #                HALF OF A DOUBLE-PRECISION WORD FOR DOWN TELEMETRY.
000124:                                                                                                  #        B.      2DNADR - 6DNADR         N-WORD DOWNLIST ADDRESS, N = 2 - 6.
000125:                                                                                                  #                SAME AS 1DNADR, BUT WTIH THE 4 UNUSED BITS OF THE ECADR FORMAT
000126:                                                                                                  #                FILLED IN WITH 0001-0101.  USED TO POINT TO A LIST OF N DOUBLE-
000127:                                                                                                  #                PRECISION WORDS, STORED CONSECUTIVELY, FOR DOWN TELEMETRY.
000128:                                                                                                  #        C.      DNCHAN                  DOWNLIST CHANNEL ADDRESS.
000129:                                                                                                  #                SAME AS 1DNADR, BUT WITH PREFIX BITS 0111.  USED TO POINT TO
000130:                                                                                                  #                A PAIR OF CHANNELS FOR DOWN TELEMETRY.
000131:                                                                                                  #        D.      DNPTR                   DOWN TELEMETRY SUBLIST POINTER.
000132:                                                                                                  #                SAME AS CAF BUT TAGGED AS A CONSTANT.  USED IN CONTROL LIST TO POINT TO A SUBLIST.
000133:                                                                                                  #                CAUTION --- A DNPTR CANNOT BE USED IN A SUBLIST.
000134:                                                                                                  #  7.    THE WORD ORDER CODE IS SET TO ZERO AT THE BEGINNING OF EACH DOWNLIST (I.E. CONTROL LIST) AND WHEN
000135:                                                                                                  #        A '1DNADR TIME2' IS DETECTED IN THE CONTROL LIST (ONLY).
000136:                                                                                                  #  8.    IN THE SNAPSHOT SUBLIST ONLY, THE DNADR'S CANNOT POINT TO THE FIRST WORD OF ANY EBANK.
000137:
000138:                                                                                                  #  DOWNLINK LIST RESTRICTIONS:
000139:                                                                                                  #  (THE FOLLOWING POINTS MAY BE LISTED ELSEWHERE BUT ARE LISTED HERE SO IT IS CLEAR THAT THESE THINGS CANNOT BE
000140:                                                                                                  #  DONE)
000141:                                                                                                  #  1.    SNAPSHOT DOWNLIST:
000142:                                                                                                  #        (A) CANNOT CONTAIN THE FOLLOWING ECADRS (I.E. 1DNADR'S): 0, 400, 1000, 1400, 2000, 2400, 3000, 3400.
000143:                                                                                                  #        (B) CAN CONTAIN ONLY 1DNADR'S
000144:                                                                                                  #  2.    ALL DOWNLINKED DATA (EXCEPT CHANNELS) IS PICKED UP BY A <DCA<SO DOWNLINK LISTS CANNOT CONTAIN THE
000145:                                                                                                  #        EQUIVALENT OF THE FOLLOWING ECADRS (I.E. 1DNADRS): 377, 777, 1377, 1777, 2377, 27777, 3377, 3777.
000146:                                                                                                  #        (NOTE: THE TERM EQUIVALENT ' MEANT THAT THE 1DNADR TO 6DNADR WILL BE PROCESSED LIKE 1 TO 6 ECADRS)
000147:                                                                                                  #  3.    CONTROL LISTS AND SUBLISTS CANNOT HAVE ENTRIES = OCTAL 00000 OR OCTAL 77777


000149:                                                                                                  #  4.    THE '1DNADR TIME2' WHICH WILL CAUSE THE DOWNLINK PROGRAM TO SET THE WORDER CODE TO 3 MUST APPEAR IN THE
000150:                                                                                                  #        CONTROL SECTION OF THE DOWNLIST.
000151:                                                                                                  #  5.    'DNCHAN 0' CANNOT BE USED.
000152:                                                                                                  #  6.    'DNPTR 0' CANNOT BE USED.
000153:                                                                                                  #  7.    DNPTR CANNOT APPEAR IN A SUBLIST.
000154:
000155:                                                                                                  #  EBANK SETTINGS
000156:                                                                                                  #        IN THE PROCESS OF SETTING THE EBANK (WHEN PICKING UP DOWNLINK DATA) THE DOWN TELEMETRY PROGRAM PUTS
000157:                                                                                                  #        'GARBAGE' INTO BITS15-12 OF EBANK.  HUGH BLAIR-SMITH WARNS US THAT BITS15-12 OF EBANK MAY BECOME
000158:                                                                                                  #        SIGNIFICANT SOMEDAY IN THE FUTURE.  IF/WHEN THAT HAPPENS, THE PROGRAM SHOULD INSURE (BY MASKING ETC.)
000159:                                                                                                  #        THAT BITS 15-12 OF EBANK ARE ZERO.
000160:
000161:                                                                                                  #  INITIALIZATION REQUIRED - TO INTERRUPT CURRENT LIST AND START A NEW ONE..
000162:                                                                                                  #        1. ADRES OF DOWNLINK LIST INTO DNLSTADR
000163:                                                                                                  #        2. NEGONE INTO SUBLIST
000164:                                                                                                  #        3. NEGONE INTO DNECADR
000165:
000166: 22,3711                                           BANK     22
000167: 05,2000                                           SETLOC   DOWNTELM
000168: 05,2000                                           BANK
000169:
000170: 05,3506     0340                                  EBANK=   DNTMBUFF
000171:
000172: 05,3506                                           COUNT*   $$/DPROG
000173: 05,3506           54016        DODOWNTM           TS       BANKRUPT
000174: 05,3507           00006                           EXTEND
000175: 05,3510           22012                           QXCH     QRUPT                                 #  SAVE Q
000176: 05,3511           13763                           TCF      WOTEST
000177: 05,3512           00006        WO1                EXTEND                                         #  SET WORD ORDER BIT TO 1 ONLY IF IT
000178: 05,3513           05013                           WOR      CHAN13                                #  ALREADY ISN'T.
000179: 05,3514           00335                           TC       DNTMGOTO                              #  GOTO APPROPRIATE PHASE OF PROGRAM
000180:
000181: 05,3515           37747        DNPHASE1           CA       NEGONE                                #  INITIALIZE ALL CONTROL WORDS
000182: 05,3516           54337                           TS       SUBLIST                               #  WORDS TO MINUS ONE
000183: 05,3517           54336                           TS       DNECADR
000184: 05,3520           33640                           CA       LDNPHAS2                              #  SET DNTMGOTO = 0 ALL SUBSEQUENT DOWNRUPTS
000185: 05,3521           54335                           TS       DNTMGOTO                              #  GO TO DNPHASE2
000186: 05,3522           13536                           TCF      NEWLIST
000187: 05,3523           10336        DNPHASE2           CCS      DNECADR                               #  SENDING OF DATA IN PROGRESS
000188: 05,3524           03653        DODNADR            TC       FETCH2WD                              #  YES - THEN FETCH THE NEXT 2 SP WORDS
000189: 05,3525           77753        MINTIME2           -1DNADR  TIME2                                 #  NEGATIVE OF TIME2 1DNADR
000190: 05,3526           13527                           TCF      +1                                    #  (ECADR OF 3776 + 74001 = 77777)
000191:
000192: 05,3527           10337                           CCS      SUBLIST                               #  IS THE SUBLIST IN CONTROL
000193: 05,3530           13666                           TCF      NEXTINSL                              #  YES


000195: 05,3531           74001        DNADRDCR           OCT      74001                                 #  DNADR COUNT AND ECADR DECREMENTER
000196:
000197: 05,3532           30334        CHKLIST            CA       CTLIST
000198: 05,3533           00006                           EXTEND
000199: 05,3534           63536                           BZMF     NEWLIST                               #  IT WILL BE NEGATIVE AT END OF LIST
000200: 05,3535           13543                           TCF      NEXTINCL
000201: 05,3536           50332        NEWLIST            INDEX    DNLSTCOD
000202: 05,3537           32441                           CA       DNTABLE                               #  INITIALIZE CTLIST WITH
000203: 05,3540           54334                           TS       CTLIST                                #        STARTING ADDRESS OF NEW LIST
000204: 05,3541           40332                           CS       DNLSTCOD
000205: 05,3542           13756                           TCF      SENDID     +3
000206: 05,3543           50334        NEXTINCL           INDEX    CTLIST
000207: 05,3544           30000                           CA       0
000208: 05,3545           10000                           CCS      A
000209: 05,3546           24334                           INCR     CTLIST                                #  SET POINTER TO PICK UP NEXT CTLIST WORD
000210: 05,3547           13553                           TCF      +4                                    #  ON NEXT ENTRY TO PROG.  (A SHOULD NOT =0)
000211: 05,3550           56334                           XCH      CTLIST                                #  SET CTLIST TO NEGATIVE AND PLACE(CODING)
000212: 05,3551           40000                           COM                                            #  UNCOMPLEMENTED DNADR INTO A.    (FOR LA)
000213: 05,3552           56334                           XCH      CTLIST                                #                                  (ST IN )
000214: 05,3553           24000                 +4        INCR     A                                     #                                  (CTLIST)
000215: 05,3554           54336                           TS       DNECADR                               #  SAVE DNADR
000216: 05,3555           63525                           AD       MINTIME2                              #  TEST FOR TIME2 (NEG. OF ECADR)
000217: 05,3556           10000                           CCS      A
000218: 05,3557           13563                           TCF      SETWO      +1                         #  DON'T SET WORD ORDER CODE
000219: 05,3560           47777        MINB1314           OCT      47777                                 #  MINUS BIT 13 AND 14 (CAN'T GET HERE)
000220: 05,3561           13563                           TCF      SETWO      +1                         #  DON'T SET WORD ORDER CODE
000221: 05,3562           03605        SETWO              TC       WOZERO                                #  GO SET WORD ORDER CODE TO ZERO.
000222: 05,3563           30336                 +1        CA       DNECADR                               #  RELOAD A WITH THE DNADR.
000223: 05,3564           63560                 +2        AD       MINB1314                              #  IS THIS A REGULAR DNADR?
000224: 05,3565           00006                           EXTEND
000225: 05,3566           63653                           BZMF     FETCH2WD                              #  YES.  (A MUST NEVER BE ZERO)
000226: 05,3567           67741                           AD       MINB12                                #  NO.  IS IT A POINTER (DNPTR) OR A
000227: 05,3570           00006                           EXTEND                                         #        CHANNEL(DNCHAN)
000228: 05,3571           63611                           BZMF     DODNPTR                               #  IT'S A POINTER.  (A MUST NEVER BE ZERO)
000229:
000230: 05,3572           00006        DODNCHAN           TC       6                                     #  (EXECUTED AS EXTEND)  IT S A CHANNEL
000231: 05,3573           50336                           INDEX    DNECADR
000232: 05,3574           44000                           INDEX    0          -4000                      #  (EXECUTED AS READ)
000233: 05,3575           54001                           TS       L
000234: 05,3576           00006                           TC       6                                     #  (EXECUTED AS EXTEND)
000235: 05,3577           50336                           INDEX    DNECADR
000236: 05,3600           43777                           INDEX    0          -4001                      #  (EXECUTED AS READ)
000237: 05,3601           54336                           TS       DNECADR                               #  SET DNECADR
000238: 05,3602           37747                           CA       NEGONE                                #        TO MINUS
000239: 05,3603           56336                           XCH      DNECADR                               #                WHILE PRESERVING A.
000240: 05,3604           13701                           TCF      DNTMEXIT                              #  GO SEND CHANNELS
000241:
000242: 05,3605           44745        WOZERO             CS       BIT7
000243: 05,3606           00006                           EXTEND
000244: 05,3607           03013                           WAND     CHAN13                                #  SET WORD ORDER CODE TO ZERO


000246: 05,3610           00002                           TC       Q                                     #  RETURN TO CALLER
000247:
000248: 05,3611           50336        DODNPTR            INDEX    DNECADR                               #  DNECADR CONTAINS ADRES OF SUBLIST
000249: 05,3612           00000                           0        0                                     #  CLEAR AND ADD LIST ENTRY INTO A.
000250: 05,3613           10000                           CCS      A                                     #  IS THIS A SNAPSHOT SUBLIST
000251: 05,3614           30336                           CA       DNECADR                               #  NO, IT IS A REGULAR SUBLIST.
000252: 05,3615           13665                           TCF      DOSUBLST                              #  A MUST NOT BE ZERO.
000253:
000254: 05,3616           56336                           XCH      DNECADR                               #  YES.  IT IS A SNAPSHOT SUBLIST.
000255: 05,3617           54337                           TS       SUBLIST                               #  C(DNECADR) INTO SUBLIST
000256: 05,3620           34755                           CAF      ZERO                                  #        A    INTO     A
000257: 05,3621           56336                           XCH      TMINDEX                               #  (NOTE..  TMINDEX = DNECADR)
000258:
000259:                                                                                                  #  THE FOLLOWING CODING (FROM SNAPLOOP TO SNAPEND) IS FOR THE PURPOSE OF TAKING A SNAPSHOT OF 12 DP REGISTERS.
000260:                                                                                                  #  THIS IS DONE BY SAVING 11 DP REGISTERS IN DNTMBUFF AND SENDING THE FIRST DP WORD IMMEDIATELY.
000261:                                                                                                  #  THE SNAPSHOT PROCESSING IS THE MOST TIME CONSUMING AND THEREFORE THE CODING AND LIST STRUCTURE WERE DESIGNED
000262:                                                                                                  #  TO MINIMIZE TIME.  THE TIME OPTIMIZATION RESULTS IN RULES UNIQUE TO THE SNAPSHOT PORTION OF THE DOWNLIST.
000263:                                                                                                  #  THESE RULES ARE ......
000264:                                                                                                  #        1.      ONLY 1DNADR'S CAN APPEAR IN THE SNAPSHOT SUBLIST
000265:                                                                                                  #        2.      THE 1DNADR'S CANNOT REFER TO THE FIRST LOCATION IN ANY BANK.
000266:
000267: 05,3622           54003        SNAPLOOP           TS       EBANK                                 #  SET EBANK
000268: 05,3623           74357                           MASK     LOW8                                  #  ISOLATE RELATIVE ADDRESS
000269: 05,3624           00006                           EXTEND
000270: 05,3625           50000                           INDEX    A
000271: 05,3626  E3,1401                                  EBANK=   1401
000272: 05,3626           31402                           DCA      1401                                  #  PICK UP 2 SNAPSHOT WORDS.
000273: 05,3627     0340                                  EBANK=   DNTMBUFF
000274: 05,3627           50336                           INDEX    TMINDEX
000275: 05,3630           52341                           DXCH     DNTMBUFF                              #  STORE 2 SNAPSHOT WORDS IN BUFFER
000276: 05,3631           24336                           INCR     TMINDEX                               #  SET BUFFER INDEX FOR NEXT 2 WORDS.
000277: 05,3632           24336                           INCR     TMINDEX
000278: 05,3633           24337        SNAPAGN            INCR     SUBLIST                               #  SET POINTER TO NEXT 2 WORDS OF SNAPSHOT
000279: 05,3634           50337                           INDEX    SUBLIST
000280: 05,3635           00000                           0        0                                     #  = CA SSSS (SSSS = NEXT ENTRY IN SUBLIST)
000281: 05,3636           10000                           CCS      A                                     #  TEST FOR LAST TWO WORDS OF SNAPSHOT.
000282: 05,3637           13622                           TCF      SNAPLOOP                              #  NOT LAST TWO.
000283: 05,3640           03523        LDNPHAS2           GENADR   DNPHASE2
000284: 05,3641           54337                           TS       SUBLIST                               #  YES, LAST.  SAVE A.
000285: 05,3642           37747                           CA       NEGONE                                #  SET DNECADR AND
000286: 05,3643           54336                           TS       DNECADR                               #        SUBLIST POINTERS
000287: 05,3644           56337                           XCH      SUBLIST                               #                TO NEGATIVE VALUES.
000288: 05,3645           54003                           TS       EBANK
000289: 05,3646           74357                           MASK     LOW8
000290: 05,3647           00006                           EXTEND
000291: 05,3650           50000                           INDEX    A
000292: 05,3651  E3,1401                                  EBANK=   1401
000293: 05,3651           31402                           DCA      1401                                  #  PICK UP FIRST 2 WORDS OF SNAPSHOT.


000295: 05,3652     0340                                  EBANK=   DNTMBUFF
000296: 05,3652           13701        SNAPEND            TCF      DNTMEXIT                              #  NOW GO SEND THEM.
000297:
000298: 05,3653           30336        FETCH2WD           CA       DNECADR
000299: 05,3654           54003                           TS       EBANK                                 #  SET EBANK
000300: 05,3655           74357                           MASK     LOW8                                  #  ISOLATE RELATIVE ADDRESS
000301: 05,3656           54001                           TS       L
000302: 05,3657           33531                           CA       DNADRDCR                              #  DECREMENT COUNT AND ECADR
000303: 05,3660           26336                           ADS      DNECADR
000304: 05,3661           00006                           EXTEND
000305: 05,3662           50001                           INDEX    L
000306: 05,3663  E3,1400                                  EBANK=   1400
000307: 05,3663           31401                           DCA      1400                                  #  PICK UP 2 DATA WORDS
000308: 05,3664     0340                                  EBANK=   DNTMBUFF
000309: 05,3664           13701                           TCF      DNTMEXIT                              #  NOW GO SEND THEM.
000310:
000311: 05,3665           54337        DOSUBLST           TS       SUBLIST                               #  SET SUBLIST POINTER
000312: 05,3666           50337        NEXTINSL           INDEX    SUBLIST
000313: 05,3667           00000                           0        0                                     #  = CA SSSS (SSSS = NEXT ENTRY IN SUBLIST)
000314: 05,3670           10000                           CCS      A                                     #  IS IT THE END OF THE SUBLIST
000315: 05,3671           24337                           INCR     SUBLIST                               #  NO -
000316: 05,3672           13676                           TCF      +4
000317: 05,3673           54337                           TS       SUBLIST                               #  SAVE A.
000318: 05,3674           37747                           CA       NEGONE                                #  SET SUBLIST TO MINUS
000319: 05,3675           56337                           XCH      SUBLIST                               #  RETRIEVE A.
000320: 05,3676           24000                 +4        INCR     A
000321: 05,3677           54336                           TS       DNECADR                               #  SAVE DNADR
000322: 05,3700           13564                           TCF      SETWO      +2                         #  GO USE COMMON CODING (PROBLEMS WOULD
000323:                                                                                                  #  OCCUR IF THE PROGRAM ENCOUNTERED A
000324:                                                                                                  #  DNPTR NOW)
000325:
000326: 05,3701           00006        DNTMEXIT           EXTEND                                         #  DOWN-TELEMETRY EXIT
000327: 05,3702           01034                           WRITE    DNTM1                                 #  TO SEND A + L TO CHANNELS 34 + 35
000328: 05,3703           30001                           CA       L                                     #  RESPECTIVELY
000329: 05,3704           00006        TMEXITL            EXTEND
000330: 05,3705           01035                           WRITE    DNTM2
000331: 05,3706           15270        TMRESUME           TCF      RESUME                                #  EXIT TELEMETRY PROGRAM VIA RESUME.
000332:
000333: 05,3707     7741               MINB12             EQUALS   -1/8
000334: 05,3707     0336               DNECADR            EQUALS   TMINDEX
000335: 05,3707     0334               CTLIST             EQUALS   LDATALST
000336: 05,3707     0337               SUBLIST            EQUALS   DNQ
000337:


000339:                                                                                                  #  SUBROUTINE NAME - DNDUMP
000340:
000341:                                                                                                  #  FUNCTIONAL DESCRIPTION - TO SEND (DUMP) ALL ERASABLE STORAGE 'N' TIMES. (N=1 TO 4).  BANKS ARE SENT ONE AT A TIME
000342:                                                                                                  #        EACH BANK IS PRECEEDED BY AN ID WORD, SYNCH BITS, ECADR AND TIME1 FOLLOWED BY THE 256D WORDS OF EACH
000343:                                                                                                  #        EBANK.  EBANKS ARE DUMPED IN ORDER (I.E. EBANK 0 FIRST, THEN EBANK1 ETC.)
000344:
000345:                                                                                                  #  CALLING SEQUENCE - THE GROUND OR ASTRONAUT BY KEYING V74E CAN INITIALIZE THE DUMP.
000346:                                                                                                  #        AFTER KEYING IN V74E THE CURRENT DOWNLIST WILL BE IMMEDIATELY TERMINATED AND THE DOWNLINK ERASABLE DUMP
000347:                                                                                                  #        WILL BEGIN.
000348:
000349:                                                                                                  #        ONCE INITIATED THE DOWNLINK ERASABLE DUMP CAN BE TERMINATED (AND INTERRUPTED DOWNLIST REINSTATED) ONLY
000350:                                                                                                  #        BY THE FOLLOWING:
000351:
000352:                                                                                                  #        1.      A FRESH START
000353:                                                                                                  #        2.      COMPLETION OF ALL DOWNLINK DUMPS REQUESTED (ACCORDING TO BITS SET IN DUMPCNT).  NOTE THAT DUMPCNT
000354:                                                                                                  #                CAN BE ALTERED BY A V21N01.
000355:                                                                                                  #        3.      AND INVOLUNTARILY BY A RESTART.
000356:
000357:                                                                                                  #  NORMAL EXIT MODE - TCF DNPHASE1
000358:
000359:                                                                                                  #  ALARM OR ABORT MODE - NONE
000360:
000361:                                                                                                  #  *SUBROUTINES CALLED - NONE.
000362:
000363:                                                                                                  #  ERASABLE INITIALIZATION REQUIRED -
000364:                                                                                                  #        DUMPCNT         OCT 20000       IF 4 COMPLETE ERASABLE DUMPS ARE DESIRED
000365:                                                                                                  #        DUMPCNT         OCT 10000       IF 2 COMPLETE ERASABLE DUMPS ARE DESIRED
000366:                                                                                                  #        DUMPCNT         OCT 04000       IF 1 COMPLETE ERASABLE DUMP  IS  DESIRED
000367:
000368:                                                                                                  #  DEBRIS - DUMPLOC, DUMPSW, DNTMGOTO, EBANK AND CENTRAL REGISTERS
000369:
000370:                                                                                                  #  TIMING -      TIME (IN SECS) = ((NO.DUMPS)*(NO.EBANKS)*(WDSPEREBANK + NO.IDWDS)) / NO.WDSPERSEC
000371:                                                                                                  #                TIME (IN SECS) =  (   4    )*(    8    )*(    256     +     4   )  /     100
000372:                                                                                                  #                THUS TIME (IN SECS TO SEND DUMP OF ERASABLE 4 TIMES VIA DOWNLINK) = 83.2 SECONDS
000373:
000374:                                                                                                  #  STRUCTURE OF ONE EBANK AS IT IS SENT BY DOWNLINK PROGRAM -
000375:                                                                                                  #        (REMINDER - THIS ONLY DESCRIBES ONE OF THE 8 EBANKS X 4 (DUMPS) = 32 EBANKS WHICH WILL BE SENT BY DNDUMP)
000376:                                                                                                  #        DOWNLIST                                W
000377:                                                                                                  #          WORD  TAKEN FROM CONTENTS OF  EXAMPLE O       COMMENTS
000378:                                                                                                  #            1   ERASID                   0177X  0       DOWNLIST I.D. FOR DOWNLINK ERASABLE DUMP (X=7 CSM, 6 LM)
000379:                                                                                                  #            2   LOWIDCOD                 77340  1       DOWNLINK SYNCH BITS.  (SAME ONE USED IN ALL OTHER DOWNLISTS)
000380:                                                                                                  #            3   DUMPLOC                  13400  1       (SEE NOTES ON DUMPLOC) 1 = 3RD ERAS DUMP, 3400=ECADR OF 5TH WD
000381:                                                                                                  #            4   TIME1                    14120  1       TIME IN CENTISECONDS
000382:                                                                                                  #            5   FIRST WORD OF EBANK X    03400  1       IN THIS EXAMPLE THIS WORD = CONTENTS OF E7,1400 (ECADR 3400)
000383:                                                                                                  #            6   2ND   WORD OF EBANK X    00142  1       IN THIS EXAMPLE THIS WORD = CONTENTS OF E7,1401 (ECADR 3401)
000384:                                                                                                  #            7   3RD   WORD OF EBANK X    00142  1       IN THIS EXAMPLE THIS WORD = CONTENTS OF E7,1402 (ECADR 3402)
000385:                                                                                                  #            .                                   1
000386:                                                                                                  #            .                                   1
000387:                                                                                                  #            .                                   1
000388:                                                                                                  #         260D   256TH WORD OF EBANK X    03777  1       IN THIS EXAMPLE THIS WORD = CONTENTS OF E7,1777 (ECADR 3777)
000389:
000390:                                                                                                  #  NOTE -        DUMPLOC CONTAINS THE COUNTER AND ECADR FOR EACH WORD BEING SENT.
000391:                                                                                                  #                THE BIT STRUCTURE OF DUMPLOC IS FOLLOWS---
000392:                                                                                                  #                                                X = NOT USED
000393:                                                                                                  #                X ABC EEE RRRRRRRR            ABC = ERASABLE DUMP COUNTER (I.E. ABC = 0,1,2 OR 3 WHICH MEANS THAT
000394:                                                                                                  #                                                    COMPLETE ERASABLE DUMP NUMBER 1,2,3 OR 4 RESPECTIVELY IS IN PROGRESS)
000395:                                                                                                  #                                              EEE = EBANK BITS
000396:                                                                                                  #                                         RRRRRRRR = RELATIVE ADDRESS WITHIN AN EBANK.
000397:


000399: 05,3707           34755        DNDUMPI            CA       ZERO                                  #  INITIALIZE DOWNLINK
000400: 05,3710           54336                           TS       DUMPLOC                               #  ERASABLE DUMP
000401: 05,3711           03753                 +2        TC       SENDID                                #  GO SEND ID AND SYNCH BITS
000402: 05,3712           33721                           CA       LDNDUMP1                              #  SET DNTMGOTO
000403: 05,3713           54335                           TS       DNTMGOTO                              #  TO LOCATION FOR NEXT PASS
000404: 05,3714           30025                           CA       TIME1                                 #  PLACE TIME1
000405: 05,3715           56001                           XCH      L                                     #  INTO L
000406: 05,3716           30336                           CA       DUMPLOC                               #  AND ECADR OF THIS EBANK INTO A
000407: 05,3717           13701                           TCF      DNTMEXIT                              #  SEND DUMPLOC AND TIME1
000408:
000409: 05,3720           03722        LDNDUMP            ADRES    DNDUMP
000410: 05,3721           03735        LDNDUMP1           ADRES    DNDUMP1
000411:
000412: 05,3722           34752        DNDUMP             CA       TWO                                   #  INCREMENT ECADR IN DUMPLOC
000413: 05,3723           26336                           ADS      DUMPLOC                               #  TO NEXT DP WORD TO BE
000414: 05,3724           74357                           MASK     LOW8                                  #  DUMPED AND SAVE IT.
000415: 05,3725           10000                           CCS      A                                     #  IS THIS THE BEGINNING OF A NEW EBANK
000416: 05,3726           13737                           TCF      DNDUMP2                               #  NO - THEN CONTINUE DUMPING
000417: 05,3727           30336                           CA       DUMPLOC                               #  YES - IS THIS THE END OF THE
000418: 05,3730           70333                           MASK     DUMPCNT                               #  N TH (N = 1 TO 4) COMPLETE ERASABLE
000419: 05,3731           77722                           MASK     PRIO34                                #  DUMP (BIT14 FOR 4, BIT13 FOR 2 OR BIT12
000420: 05,3732           10000                           CCS      A                                     #  FOR 1 COMPLETE ERASABLE DUMP(S)).
000421: 05,3733           13515                           TCF      DNPHASE1                              #  YES - START SENDING INTERRUPTED DOWNLIST
000422:                                                                                                  #  AGAIN
000423: 05,3734           13711                           TCF      DNDUMPI    +2                         #  NO - GO BACK AND INITIALIZE NEXT BANK
000424:
000425: 05,3735           33720        DNDUMP1            CA       LDNDUMP                               #  SET DNTMGOTO
000426: 05,3736           54335                           TS       DNTMGOTO                              #  FOR WORDS 3 TO 256D OF CURRENT EBANK
000427:
000428: 05,3737           30336        DNDUMP2            CA       DUMPLOC
000429: 05,3740           54003                           TS       EBANK                                 #  SET EBANK
000430: 05,3741           74357                           MASK     LOW8                                  #  ISOLATE RELATIVE ADDRESS.
000431: 05,3742           54002                           TS       Q                                     #  (NOTE: MASK INSTRUCTION IS USED TO PICK
000432: 05,3743           34754                           CA       NEG0                                  #  UP ERASABLE REGISTERS SO THAT EDITING
000433: 05,3744           54001                           TS       L                                     #  REGISTERS 20-23 WILL NOT BE ALTERED.)
000434: 05,3745           50002                           INDEX    Q
000435: 05,3746  E3,1400                                  EBANK=   1400                                  #  PICK UP LOW ORDER REGISTER OF PAIR
000436: 05,3746           71401                           MASK     1401                                  #  OF ERASABLE REGISTERS.
000437: 05,3747           56001                           XCH      L
000438: 05,3750           50002                           INDEX    Q                                     #  PICK UP HIGH ORDER REGISTER OF PAIR
000439: 05,3751           71400                           MASK     1400                                  #  OF ERASABLE REGISTERS.
000440: 05,3752     0340                                  EBANK=   DNTMBUFF
000441: 05,3752           13701                           TCF      DNTMEXIT                              #  GO SEND THEM
000442:
000443: 05,3753           00006        SENDID             EXTEND                                         #  ** ENTRANCE USED BY ERASABLE DUMP PROG.**
000444: 05,3754           22335                           QXCH     DNTMGOTO                              #  SET DNTMGOTO SO NEXT TIME PROG WILL GO
000445: 05,3755           35011                           CAF      ERASID                                #  TO LOCATION FOLLOWING :TC SENDID:
000446:
000447: 05,3756           54001                           TS       L                                     #  ** ENTRANCE USED BY REGULAR DOWNLINK PG **


000449: 05,3757           03605                           TC       WOZERO                                #  GO SET WORD ORDER CODE TO ZERO
000450: 05,3760           32065                           CAF      LOWIDCOD                              #  PLACE SPECIAL ID CODE INTO L
000451: 05,3761           56001                           XCH      L                                     #  AND ID BACK INTO A
000452: 05,3762           13701                           TCF      DNTMEXIT                              #  SEND DOWNLIST ID CODE(S).
000453:
000454: 05,3763           34745        WOTEST             CA       BIT7                                  #  AT THE BEGINNING OF THE LIST THE WORD
000455: 05,3764           00006                           EXTEND                                         #  ORDER BIT WILL BE SET BACK TO ZERO
000456: 05,3765           02013                           RAND     CHAN13
000457: 05,3766           10000                           CCS      A
000458: 05,3767           00335                           TC       DNTMGOTO
000459: 05,3770           34745                           CA       BIT7
000460: 05,3771           13512                           TCF      WO1
000461:

End of include-file DOWN-TELEMETRY_PROGRAM.agc.  Parent file is MAIN.agc


