
Source Code


000002:                                                                                                  #  Copyright:    Public domain.
000003:                                                                                                  #  Filename:     EXECUTIVE.agc
000004:                                                                                                  #  Purpose:      Part of the source code for Luminary 1A build 099.
000005:                                                                                                  #                It is part of the source code for the Lunar Module's (LM)
000006:                                                                                                  #                Apollo Guidance Computer (AGC), for Apollo 11.
000007:                                                                                                  #  Assembler:    yaYUL
000008:                                                                                                  #  Contact:      Ron Burkey <info@sandroid.org>.
000009:                                                                                                  #  Website:      www.ibiblio.org/apollo.
000010:                                                                                                  #  Pages:        1103-1114
000011:                                                                                                  #  Mod history:  2009-05-25 RSB  Adapted from the corresponding
000012:                                                                                                  #                                Luminary131 file, using page
000013:                                                                                                  #                                images from Luminary 1A.
000014:                                                                                                  #                2011-01-06 JL   Fixed pseudo-label indentation.
000015:                                                                                                  #                2011-05-08 JL   Removed workaround.
000016:
000017:                                                                                                  #  This source code has been transcribed or otherwise adapted from
000018:                                                                                                  #  digitized images of a hardcopy from the MIT Museum.  The digitization
000019:                                                                                                  #  was performed by Paul Fjeld, and arranged for by Deborah Douglas of
000020:                                                                                                  #  the Museum.  Many thanks to both.  The images (with suitable reduction
000021:                                                                                                  #  in storage size and consequent reduction in image quality as well) are
000022:                                                                                                  #  available online at www.ibiblio.org/apollo.  If for some reason you
000023:                                                                                                  #  find that the images are illegible, contact me at info@sandroid.org
000024:                                                                                                  #  about getting access to the (much) higher-quality images which Paul
000025:                                                                                                  #  actually created.
000026:
000027:                                                                                                  #  Notations on the hardcopy document read, in part:
000028:
000029:                                                                                                  #        Assemble revision 001 of AGC program LMY99 by NASA 2021112-61
000030:                                                                                                  #        16:27 JULY 14, 1969
000031:
000032:                                                                                                  #  Page 1103
000033:    5072                                           BLOCK    02
000034:
000035:                                                                                                  #  TO ENTER A JOB REQUEST REQUIRING NO VAC AREA:
000036:
000037:    5072                                           COUNT*   $$/EXEC
000038:    5072           00004        NOVAC              INHINT
000039:    5073           65164                           AD       FAKEPRET                              #  LOC(MPAC +6) - LOC(QPRET)
000040:    5074           54063                           TS       NEWPRIO                               #  PRIORITY OF NEW JOB + NOVAC C(FIXLOC)
000041:
000042:    5075           00006                           EXTEND
000043:    5076           50002                           INDEX    Q                                     #  Q WILL BE UNDISTURBED THROUGHOUT.
000044:    5077           30001                           DCA      0                                     #  2CADR OF JOB ENTERED.
000045:    5100           52066                           DXCH     NEWLOC
000046:    5101           35163                           CAF      EXECBANK
000047:    5102           56004                           XCH      FBANK
000048:    5103           54061                           TS       EXECTEM1
000049:    5104           12625                           TCF      NOVAC2                                #  ENTER EXECUTIVE BANK.
000050:
000051:                                                                                                  #  TO ENTER A JOB REQUEST REQUIREING A VAC AREA -- E.G., ALL (PARTIALLY) INTERPRETIVE JOBS.
000052:
000053:    5105           00004        FINDVAC            INHINT
000054:    5106           54063                           TS       NEWPRIO
000055:    5107           00006                           EXTEND
000056:    5110           50002                           INDEX    Q
000057:    5111           30001                           DCA      0
000058:    5112           52066        SPVACIN            DXCH     NEWLOC
000059:    5113           35163                           CAF      EXECBANK
000060:    5114           56004                           XCH      FBANK
000061:    5115           12601                           TCF      FINDVAC2                              #  OFF TO EXECUTIVE SWITCHED-BANK.
000062:
000063:                                                                                                  #  TO ENTER A FINDVAC WITH THE PRIORITY IN NEWPRIO TO THE 2CADR ARRIVING IN A AND L:
000064:                                                                                                  #  USERS OF SPVAC MUST INHINT BEFORE STORING IN NEWPRIO.
000065:
000066:    5116           56002        SPVAC              XCH      Q
000067:    5117           67746                           AD       NEG2
000068:    5120           56002                           XCH      Q
000069:    5121           15112                           TCF      SPVACIN
000070:
000071:                                                                                                  #  TO SUSPEND A BASIC JOB SO A HIGHER PRIORITY JOB MAY BE SERVICED:
000072:
000073:    5122           22002        CHANG1             LXCH     Q
000074:    5123           35163                           CAF      EXECBANK
000075:    5124           56006                           XCH      BBANK
000076:    5125           12706                           TCF      CHANJOB
000077:
000078:                                                                                                  #  TO SUSPEND AN INTERPRETIVE JOB:
000079:
000080:    5126           40164        CHANG2             CS       LOC                                   #  NEGATIVE LOC SHOWS JOB = INTERPRETIVE.
000081:                                                                                                  #  ITRACE (4) REFERS TO "CHANG2"
000082:    5127           54001                           TS       L
000083:                                                                                                  #  Page 1104
000084:    5130           35163                 +2        CAF      EXECBANK
000085:    5131           54006                           TS       BBANK
000086:    5132           12705                           TCF      CHANJOB    -1
000087:
000088:                                                                                                  #  Page 1105
000089:                                                                                                  #  TO VOLUNTARILY SUSPEND A JOB UNTIL THE COMPLETION OF SOME ANTICIPATED EVENT (I/O EVENT ETC.):
000090:
000091:    5133           54164        JOBSLEEP           TS       LOC
000092:    5134           35163                           CAF      EXECBANK
000093:    5135           54004                           TS       FBANK
000094:    5136           12776                           TCF      JOBSLP1
000095:
000096:                                                                                                  #  TO AWAKEN A JOB PUT TO SLEEP IN THE ABOVE FASHION:
000097:
000098:    5137           00004        JOBWAKE            INHINT
000099:    5140           54065                           TS       NEWLOC
000100:    5141           44752                           CS       TWO                                   #  EXIT IS VIA FINDVAC/NOVAC PROCEDURES.
000101:    5142           26002                           ADS      Q
000102:    5143           35163                           CAF      EXECBANK
000103:    5144           56004                           XCH      FBANK
000104:    5145           13023                           TCF      JOBWAKE2
000105:
000106:                                                                                                  #  TO CHANGE THE PRIORITY OF A JOB CURRENTLY UNDER EXECUTION:
000107:
000108:    5146           00004        PRIOCHNG           INHINT                                         #  NEW PRIORITY ARRIVES IN A.  RETURNS TO
000109:    5147           54063                           TS       NEWPRIO                               #  CALLER AS SOON AS NEW JOB PRIORITY IS
000110:    5150           35163                           CAF      EXECBANK                              #  HIGHEST.  PREPARE FOR POSSIBLE BASIC-
000111:    5151           56006                           XCH      BBANK                                 #  STYLE CHANGE-JOB.
000112:    5152           54165                           TS       BANKSET
000113:    5153           30002                           CA       Q
000114:    5154           13072                           TCF      PRIOCH2
000115:
000116:                                                                                                  #  TO REMOVE A JOB FROM EXECUTIVE CONSIDERATIONS:
000117:
000118:    5155           35163        ENDOFJOB           CAF      EXECBANK
000119:    5156           54004                           TS       FBANK
000120:    5157           13103                           TCF      ENDJOB1
000121:
000122:    5160           30061        ENDFIND            CA       EXECTEM1                              #  RETURN TO CALLER AFTER JOB ENTRY
000123:    5161           54004                           TS       FBANK                                 #  COMPLETE.
000124:    5162           16741                           TCF      Q+2
000125:    5163           02601        EXECBANK           CADR     FINDVAC2
000126:
000127:    5164           00110        FAKEPRET           ADRES    MPAC       -36D                       #  LOC(MPAC +6) - LOC(QPRET)
000128:
000129:                                                                                                  #  Page 1106
000130:                                                                                                  #  LOCATE AN AVAILABLE VAC AREA
000131:
000132: 01,2601                                           BANK     01
000133: 01,2601                                           COUNT*   $$/EXEC
000134: 01,2601           54061        FINDVAC2           TS       EXECTEM1                              #  (SAVE CALLER'S BANK FIRST.)
000135: 01,2602           10400                           CCS      VAC1USE
000136: 01,2603           12620                           TCF      VACFOUND
000137: 01,2604           10454                           CCS      VAC2USE
000138: 01,2605           12620                           TCF      VACFOUND
000139: 01,2606           10530                           CCS      VAC3USE
000140: 01,2607           12620                           TCF      VACFOUND
000141: 01,2610           10604                           CCS      VAC4USE
000142: 01,2611           12620                           TCF      VACFOUND
000143: 01,2612           10660                           CCS      VAC5USE
000144: 01,2613           12620                           TCF      VACFOUND
000145: 01,2614           22061                           LXCH     EXECTEM1
000146: 01,2615           30002                           CA       Q
000147: 01,2616           05716                           TC       BAILOUT1
000148: 01,2617           01201                           OCT      1201                                  #  NO VAC AREAS.
000149:
000150: 01,2620           64752        VACFOUND           AD       TWO                                   #  RESERVE THIS VAC AREA BY STORING A ZERO
000151: 01,2621           22007                           ZL                                             #  IN ITS VAC USE REGISTER AND STORE THE
000152: 01,2622           50000                           INDEX    A                                     #  ADDRESS OF THE FIRST WORD OF IT IN THE
000153: 01,2623           21777                           LXCH     0          -1                         #  LOW NINE BITS OF THE PRIORITY WORD.
000154: 01,2624           26063                           ADS      NEWPRIO
000155:
000156: 01,2625           34755        NOVAC2             CAF      ZERO                                  #  NOVAC ENTERS HERE.  FIND A CORE SET.
000157: 01,2626           54064                           TS       LOCCTR
000158: 01,2627           32634                           CAF      NO.CORES                              #  SEVEN SETS OF ELEVEN REGISTERS EACH.
000159: 01,2630           54062        NOVAC3             TS       EXECTEM2
000160: 01,2631           50064                           INDEX    LOCCTR
000161: 01,2632           10167                           CCS      PRIORITY                              #  EACH PRIORITY REGISTER CONTAINS -0 IF
000162: 01,2633           12674                           TCF      NEXTCORE                              #  THE CORESPONDING CORE SET IS AVAILABLE.
000163: 01,2634           00007        NO.CORES           DEC      7          B-14
000164: 01,2635           12674                           TCF      NEXTCORE                              #  AN ACTIVE JOB HAS A POSITIVE PRIORITY
000165:                                                                                                  #  BUT A DORMANT JOB'S PRIORITY IS NEGATIVE
000166:
000167:                                                                                                  #  Page 1107
000168: 01,2636           30063        CORFOUND           CA       NEWPRIO                               #  SET THE PRIORITY OF THIS JOB IN THE CORE
000169: 01,2637           50064                           INDEX    LOCCTR                                #  SET'S PRIORITY REGISTER AND SET THE
000170: 01,2640           54167                           TS       PRIORITY                              #  JOB'S PUSH-DOWN POINTER AT THE BEGINNING
000171: 01,2641           75004                           MASK     LOW9                                  #  OF THE WORK AREA AND OVERFLOW INDICATOR.
000172: 01,2642           50064                           INDEX    LOCCTR
000173: 01,2643           54166                           TS       PUSHLOC                               #  OFF TO PREPARE FOR INTERPRETIVE PROGRAMS.
000174:
000175: 01,2644           10064                           CCS      LOCCTR                                #  IF CORE SET ZERO IS BEING LOADED, SET UP
000176: 01,2645           12661                           TCF      SETLOC                                #  OVFIND AND FIXLOC IMMEDIATELY.
000177: 01,2646           54121                           TS       OVFIND
000178: 01,2647           30166                           CA       PUSHLOC
000179: 01,2650           54120                           TS       FIXLOC
000180:
000181: 01,2651           10067        SPECTEST           CCS      NEWJOB                                #  SEE IF ANY ACTIVE JOBS WAITING (RARE).
000182: 01,2652           12661                           TCF      SETLOC                                #  MUST BE AWAKENED OUT UNCHANGED JOB.
000183: 01,2653           05705                           TC       CCSHOLE
000184: 01,2654           05705                           TC       CCSHOLE
000185: 01,2655           54067                           TS       NEWJOB                                #  +0 SHOWS ACTIVE JOB ALREADY SET.
000186: 01,2656           52066                           DXCH     NEWLOC
000187: 01,2657           52165                           DXCH     LOC
000188: 01,2660           15160                           TCF      ENDFIND
000189:
000190: 01,2661           52066        SETLOC             DXCH     NEWLOC                                #  SET UP THE LOCATION REGISTERS FOR THIS
000191: 01,2662           50064                           INDEX    LOCCTR
000192: 01,2663           52165                           DXCH     LOC
000193: 01,2664           50067                           INDEX    NEWJOB                                #  THIS INDEX INSTRUCTION INSURES THAT THE
000194: 01,2665           40167                           CS       PRIORITY                              #  HIGHEST ACTIVE PRIORITY WILL BE COMPARED
000195: 01,2666           60063                           AD       NEWPRIO                               #  WITH THE NEW PRIORITY TO SEE IF NEWJOB
000196: 01,2667           00006                           EXTEND                                         #  SHOULD BE SET TO SIGNAL A SWITCH.
000197: 01,2670           65160                           BZMF     ENDFIND
000198: 01,2671           30064                           CA       LOCCTR                                #  LOCCTR IS LEFT SET AT THIS CORE SET IF
000199: 01,2672           54067                           TS       NEWJOB                                #  THE CALLER WANTS TO LOAD ANY MPAC
000200: 01,2673           15160                           TCF      ENDFIND                               #  REGISTERS, ETC.
000201:
000202: 01,2674           33033        NEXTCORE           CAF      COREINC
000203: 01,2675           26064                           ADS      LOCCTR
000204: 01,2676           10062                           CCS      EXECTEM2
000205: 01,2677           12630                           TCF      NOVAC3
000206: 01,2700           22061                           LXCH     EXECTEM1
000207: 01,2701           30002                           CA       Q
000208: 01,2702           05716                           TC       BAILOUT1                              #  NO CORE SETS AVAILABLE.
000209: 01,2703           01202                           OCT      1202
000210:                                                                                                  #  Page 1108
000211:                                                                                                  #  THE FOLLOWING ROUTINE SWAPS CORE SET 0 WITH THAT WHOSE RELATIVE ADDRESS IS IN NEWJOB.
000212:
000213: 01,2704           22164                 -2        LXCH     LOC
000214: 01,2705           30165                 -1        CAE      BANKSET                               #  BANKSET, NOT BBANK, HAS RIGHT CONTENTS.
000215: 01,2706           00004        CHANJOB            INHINT
000216: 01,2707           00006                           EXTEND
000217: 01,2710           04007                           ROR      SUPERBNK                              #  PICK UP CURRENT SBANK FOR BBCON
000218: 01,2711           56001                           XCH      L                                     #  LOC IN A AND BBCON IN L.
000219: 01,2712           50067                 +4        INDEX    NEWJOB                                #  SWAP LOC AND BANKSET.
000220: 01,2713           52165                           DXCH     LOC
000221: 01,2714           52165                           DXCH     LOC
000222:
000223: 01,2715           30165                           CAE      BANKSET
000224: 01,2716           00006                           EXTEND
000225: 01,2717           01007                           WRITE    SUPERBNK                              #  SET SBANK FOR NEW JOB.
000226: 01,2720           52155                           DXCH     MPAC                                  #  SWAP MULTI-PURPOSE ACCUMULATOR AREAS.
000227: 01,2721           50067                           INDEX    NEWJOB
000228: 01,2722           52155                           DXCH     MPAC
000229: 01,2723           52155                           DXCH     MPAC
000230: 01,2724           52157                           DXCH     MPAC       +2
000231: 01,2725           50067                           INDEX    NEWJOB
000232: 01,2726           52157                           DXCH     MPAC       +2
000233: 01,2727           52157                           DXCH     MPAC       +2
000234: 01,2730           52161                           DXCH     MPAC       +4
000235: 01,2731           50067                           INDEX    NEWJOB
000236: 01,2732           52161                           DXCH     MPAC       +4
000237: 01,2733           52161                           DXCH     MPAC       +4
000238: 01,2734           52163                           DXCH     MPAC       +6
000239: 01,2735           50067                           INDEX    NEWJOB
000240: 01,2736           52163                           DXCH     MPAC       +6
000241: 01,2737           52163                           DXCH     MPAC       +6
000242:
000243: 01,2740           34755                           CAF      ZERO
000244: 01,2741           56121                           XCH      OVFIND                                #  MAKE PUSHLOC NEGATIVE IF OVFIND NZ.
000245: 01,2742           00006                           EXTEND
000246: 01,2743           12746                           BZF      +3
000247: 01,2744           40166                           CS       PUSHLOC
000248: 01,2745           54166                           TS       PUSHLOC
000249:
000250: 01,2746           52167                           DXCH     PUSHLOC
000251: 01,2747           50067                           INDEX    NEWJOB
000252: 01,2750           52167                           DXCH     PUSHLOC
000253: 01,2751           52167                           DXCH     PUSHLOC                               #  SWAPS PUSHLOC AND PRIORITY.
000254: 01,2752           35004                           CAF      LOW9                                  #  SET FIXLOC TO BASE OF VAC AREA.
000255: 01,2753           70167                           MASK     PRIORITY
000256: 01,2754           54120                           TS       FIXLOC
000257:
000258: 01,2755           10166                           CCS      PUSHLOC                               #  SET OVERFLOW INDICATOR ACCORDING TO
000259: 01,2756           34755                           CAF      ZERO
000260: 01,2757           12764                           TCF      ENDPRCHG   -1
000261:
000262:                                                                                                  #  Page 1109
000263: 01,2760           40166                           CS       PUSHLOC
000264: 01,2761           54166                           TS       PUSHLOC
000265: 01,2762           34753                           CAF      ONE
000266: 01,2763           56121                           XCH      OVFIND
000267: 01,2764           54067                           TS       NEWJOB
000268:
000269: 01,2765           00003        ENDPRCHG           RELINT
000270: 01,2766           52165                           DXCH     LOC                                   #  BASIC JOBS HAVE POSITIVE ADDRESSES, SO
000271: 01,2767           00006                           EXTEND                                         #  DISPATCH WITH A DTCB.
000272: 01,2770           62772                           BZMF     +2                                    #  IF INTERPRETIVE, SET UP EBANK, ETC.
000273: 01,2771           52006                           DTCB
000274:                                                                                                  #  Page 1110
000275: 01,2772           40000                           COM                                            #  EPILOGUE TO JOB CHANGE FOR INTERPRETIVE
000276: 01,2773           64753                           AD       ONE
000277: 01,2774           54164                           TS       LOC                                   #  RESUME
000278: 01,2775           16050                           TCF      INTRSM
000279:
000280:                                                                                                  #  COMPLETE JOBSLEEP PREPARATIONS.
000281:
000282: 01,2776           00004        JOBSLP1            INHINT
000283: 01,2777           40167                           CS       PRIORITY                              #  NNZ PRIORITY SHOWS JOB ASLEEP.
000284: 01,3000           54167                           TS       PRIORITY
000285: 01,3001           36074                           CAF      LOW7
000286: 01,3002           70006                           MASK     BBANK
000287: 01,3003           00006                           EXTEND
000288: 01,3004           04007                           ROR      SUPERBNK                              #  SAVE OLD SUPERBANK VALUE.
000289: 01,3005           54165                           TS       BANKSET
000290: 01,3006           44755                           CS       ZERO
000291: 01,3007           54131        JOBSLP2            TS       BUF        +1                         #  HOLDS -- HIGHEST PRIORITY.
000292: 01,3010           13120                           TCF      EJSCAN                                #  SCAN FOR HIGHEST PRIORITY ALA ENDOFJOB.
000293:
000294: 01,3011           00004        NUCHANG2           INHINT                                         #  QUICK... DON'T LET NEWJOB CHANGE TO +0.
000295: 01,3012           10067                           CCS      NEWJOB
000296: 01,3013           13016                           TCF      +3                                    #  NEWJOB STILL PNZ
000297: 01,3014           00003                           RELINT                                         #  NEW JOB HAS CHANGED TO +0.  WAKE UP JOB
000298: 01,3015           13216                           TCF      ADVAN      +2                         #  VIA NUDIRECT.  (VERY RARE CASE.)
000299:
000300: 01,3016           34752                           CAF      TWO
000301: 01,3017           00006                           EXTEND
000302: 01,3020           05011                           WOR      DSALMOUT                              #  TURN ON ACTIVITY LIGHT
000303: 01,3021           52165                           DXCH     LOC                                   #  AND SAVE ADDRESS INFO FOR BENEFIT OF
000304: 01,3022           12712                           TCF      CHANJOB    +4                         #        POSSIBLE SLEEPINT JOB.
000305:
000306:                                                                                                  #  Page 1111
000307:                                                                                                  #  TO WAKE UP A JOB, EACH CORE SET IS FOUND TO LOCATE ALL JOBS WHICH ARE ASLEEP.  IF THE FCADR IN THE
000308:                                                                                                  #  LOC REGISTER OF ANY SUCH JOB MATCHES THAT SUPPLIED BY THE CALLER, THAT JOB IS AWAKENED.  IF NO JOB IS FOUND,
000309:                                                                                                  #  LOCCTR IS SET TO -1 AND NO FURTHER ACTION TAKES PLACE.
000310:
000311: 01,3023           54061        JOBWAKE2           TS       EXECTEM1
000312: 01,3024           34755                           CAF      ZERO                                  #  BEGIN CORE SET SCAN
000313: 01,3025           54064                           TS       LOCCTR
000314: 01,3026           32634                           CAF      NO.CORES
000315: 01,3027           54062        JOBWAKE4           TS       EXECTEM2
000316: 01,3030           50064                           INDEX    LOCCTR
000317: 01,3031           10167                           CCS      PRIORITY
000318: 01,3032           13035                           TCF      JOBWAKE3                              #  ACTIVE JOB -- CHECK NEXT CORE SET.
000319: 01,3033           00014        COREINC            DEC      12         B-14                       #  12 REGISTERS PER CORE SET.
000320: 01,3034           13044                           TCF      WAKETEST                              #  SLEEPING JOB -- SEE IF CADR MATCHES.
000321:
000322: 01,3035           33033        JOBWAKE3           CAF      COREINC
000323: 01,3036           26064                           ADS      LOCCTR
000324: 01,3037           10062                           CCS      EXECTEM2
000325: 01,3040           13027                           TCF      JOBWAKE4
000326: 01,3041           44753                           CS       ONE                                   #  EXIT IF SLEEPIN JOB NOT FOUND.
000327: 01,3042           54064                           TS       LOCCTR
000328: 01,3043           15160                           TCF      ENDFIND
000329:
000330: 01,3044           40065        WAKETEST           CS       NEWLOC
000331: 01,3045           50064                           INDEX    LOCCTR
000332: 01,3046           60164                           AD       LOC
000333: 01,3047           00006                           EXTEND
000334: 01,3050           13052                           BZF      +2                                    #  IF MATCH.
000335: 01,3051           13035                           TCF      JOBWAKE3                              #  EXAMINE NEXT CORE SET IF NO MATCH.
000336:
000337: 01,3052           50064                           INDEX    LOCCTR                                #  RE-COMPLEMENT PRIORITY TO SHOW JOB AWAKE
000338: 01,3053           40167                           CS       PRIORITY
000339: 01,3054           54063                           TS       NEWPRIO
000340: 01,3055           50064                           INDEX    LOCCTR
000341: 01,3056           54167                           TS       PRIORITY
000342:
000343: 01,3057           44350                           CS       FBANKMSK                              #  MAKE UP THE 2CADR OF THE WAKE ADDRESS
000344: 01,3060           70065                           MASK     NEWLOC                                #  USING THE CADR IN NEWLOC AND THE EBANK
000345: 01,3061           64741                           AD       2K                                    #  HALF OF BBANK SAVED IN BANKSET.
000346: 01,3062           56065                           XCH      NEWLOC
000347: 01,3063           74350                           MASK     FBANKMSK
000348: 01,3064           50064                           INDEX    LOCCTR
000349: 01,3065           60165                           AD       BANKSET
000350: 01,3066           54066                           TS       NEWLOC     +1
000351:
000352: 01,3067           10064                           CCS      LOCCTR                                #  SPECIAL TREATMENT IF THIS JOB WAS
000353: 01,3070           12661                           TCF      SETLOC                                #  ALREADY IN THE RUN (0) POSITION.
000354: 01,3071           12651                           TCF      SPECTEST
000355:
000356:                                                                                                  #  Page 1112
000357:                                                                                                  #  PRIORITY CHANGE.  CHANGE THE CONTENTS OF PRIORITY AND SCAN FOR THE JOB OF HIGHEST PRIORITY.
000358:
000359: 01,3072           54164        PRIOCH2            TS       LOC
000360: 01,3073           34755                           CAF      ZERO                                  #  SET FLAG TO TELL ENDJOB SCANNER IF THIS
000361: 01,3074           54130                           TS       BUF                                   #  JOB IS STILL HIGHEST PRIORITY.
000362: 01,3075           35004                           CAF      LOW9
000363: 01,3076           70167                           MASK     PRIORITY
000364: 01,3077           60063                           AD       NEWPRIO
000365: 01,3100           54167                           TS       PRIORITY
000366: 01,3101           40000                           COM
000367: 01,3102           13007                           TCF      JOBSLP2                               #  AND TO EJSCAN.
000368:
000369:                                                                                                  #  Page 1113
000370:                                                                                                  #  RELEASE THIS CORE SET AND VAC AREA AND SCAN FOR THE JOB OF HIGHEST ACTIVE PRIORITY.
000371:
000372: 01,3103           00004        ENDJOB1            INHINT
000373: 01,3104           44755                           CS       ZERO
000374: 01,3105           54131                           TS       BUF        +1
000375: 01,3106           56167                           XCH      PRIORITY
000376: 01,3107           75004                           MASK     LOW9
000377: 01,3110           54001                           TS       L
000378:
000379: 01,3111           45164                           CS       FAKEPRET
000380: 01,3112           60001                           AD       L
000381:
000382: 01,3113           00006                           EXTEND
000383: 01,3114           63120                           BZMF     EJSCAN                                #  NOVAC ENDOFJOB
000384:
000385: 01,3115           10001                           CCS      L
000386: 01,3116           50000                           INDEX    A
000387: 01,3117           54000                           TS       0
000388:
000389: 01,3120           10203        EJSCAN             CCS      PRIORITY   +12D
000390: 01,3121           03171                           TC       EJ1
000391: 01,3122           05705                           TC       CCSHOLE
000392: 01,3123           13124                           TCF      +1
000393:
000394: 01,3124           10217                           CCS      PRIORITY   +24D                       #  EXAMINE EACH PRIORITY REGISTER TO FIND
000395: 01,3125           03171                           TC       EJ1                                   #  THE JOB OF HIGHEST ACTIVE PRIORITY.
000396: 01,3126           05705                           TC       CCSHOLE
000397: 01,3127           13130                           TCF      +1
000398:
000399: 01,3130           10233                           CCS      PRIORITY   +36D
000400: 01,3131           03171                           TC       EJ1
000401: 01,3132           67610        -CCSPR             -CCS     PRIORITY
000402: 01,3133           13134                           TCF      +1
000403:
000404: 01,3134           10247                           CCS      PRIORITY   +48D
000405: 01,3135           03171                           TC       EJ1
000406: 01,3136           05705                           TC       CCSHOLE
000407: 01,3137           13140                           TCF      +1
000408:
000409: 01,3140           10263                           CCS      PRIORITY   +60D
000410: 01,3141           03171                           TC       EJ1
000411: 01,3142           05705                           TC       CCSHOLE
000412: 01,3143           13144                           TCF      +1
000413:
000414: 01,3144           10277                           CCS      PRIORITY   +72D
000415: 01,3145           03171                           TC       EJ1
000416: 01,3146           05705                           TC       CCSHOLE
000417: 01,3147           13150                           TCF      +1
000418:
000419: 01,3150           10313                           CCS      PRIORITY   +84D
000420:                                                                                                  #  Page 1114
000421: 01,3151           03171                           TC       EJ1
000422: 01,3152           05705                           TC       CCSHOLE
000423: 01,3153           13154                           TCF      +1
000424:
000425:                                                                                                  #  Page 1115
000426:                                                                                                  #  EVALUATE THE RESULTS OF THE SCAN.
000427:
000428: 01,3154           10131                           CCS      BUF        +1                         #  SEE IF THERE ARE ANY ACTIVE JOBS WAITING
000429: 01,3155           05705                           TC       CCSHOLE
000430: 01,3156           05705                           TC       CCSHOLE
000431:
000432: 01,3157           13161                           TCF      +2
000433: 01,3160           13206                           TCF      DUMMYJOB
000434: 01,3161           10130                           CCS      BUF                                   #  BUF IS ZERO IS THIS IS A PRIOCHNG AND
000435: 01,3162           13164                           TCF      +2                                    #  CHANGED PRIORITY IS STILL HIGHEST.
000436: 01,3163           12764                           TCF      ENDPRCHG   -1
000437:
000438: 01,3164           50000                           INDEX    A                                     #  OTHERWISE, SET NEWJOB TO THE RELATIVE
000439: 01,3165           27777                           CAF      0          -1                         #  ADDRESS OF THE NEW JOB'S CORE SET.
000440: 01,3166           63132                           AD       -CCSPR
000441: 01,3167           54067                           TS       NEWJOB
000442: 01,3170           12704                           TCF      CHANJOB    -2
000443:
000444: 01,3171           54132        EJ1                TS       BUF        +2
000445: 01,3172           60131                           AD       BUF        +1                         #  - OLD HIGH PRIORITY.
000446: 01,3173           10000                           CCS      A
000447: 01,3174           40132                           CS       BUF        +2
000448: 01,3175           13201                           TCF      EJ2                                   #  NEW HIGH PRIORITY.
000449: 01,3176           13177                           NOOP
000450: 01,3177           50002                           INDEX    Q
000451: 01,3200           00002                           TC       2                                     #  PROCEED WITH SEARCH.
000452:
000453: 01,3201           54131        EJ2                TS       BUF        +1
000454: 01,3202           00006                           EXTEND
000455: 01,3203           22130                           QXCH     BUF                                   #  FOR LOCATING CCS PRIORITY + X INSTR.
000456: 01,3204           50130                           INDEX    BUF
000457: 01,3205           00002                           TC       2
000458:
000459:                                                                                                  #  Page 1116
000460:                                                                                                  #  IDLING AND COMPUTER ACTIVITY (GREEN) LIGHT MAINTENANCE. THE IDLING ROUTINE IS NOT A JOB IN ITSELF,
000461:                                                                                                  #  BUT RATHER A SUBROUTINE OF THE EXECUTIVE.
000462:
000463: 01,3206     1361                                  EBANK=   SELFRET                               #  SELF-CHECK STORAGE IN EBANK.
000464:
000465: 01,3206           44755        DUMMYJOB           CS       ZERO                                  #  SET NEWJOB TO -0 FOR IDLING.
000466: 01,3207           54067                           TS       NEWJOB
000467: 01,3210           00003                           RELINT
000468: 01,3211           44752                           CS       TWO                                   #  TURN OFF THE ACTIVITY LIGHT.
000469: 01,3212           00006                           EXTEND
000470: 01,3213           03011                           WAND     DSALMOUT
000471: 01,3214           10067        ADVAN              CCS      NEWJOB                                #  IS THE NEWJOB ACTIVE?
000472: 01,3215           13011                           TCF      NUCHANG2                              #  YES... ONE REQUIRING A CHANGE JOB.
000473: 01,3216           34752                           CAF      TWO                                   #  NEW JOB ALREADY IN POSITION FOR
000474: 01,3217           13225                           TCF      NUDIRECT                              #  EXECUTION
000475:
000476: 01,3220           31361                           CA       SELFRET
000477: 01,3221           54001                           TS       L                                     #  PUT RETURN ADDRESS IN L.
000478: 01,3222           33224                           CAF      SELFBANK
000479: 01,3223           15166                           TCF      SUPDXCHZ   +1                         #  AND DISPATCH JOB.
000480:
000481: 01,3224     1361                                  EBANK=   SELFRET
000482: 01,3224           66102        SELFBANK           BBCON    SELFCHK
000483:
000484: 01,3225           00006        NUDIRECT           EXTEND                                         #  TURN THE GREEN LIGHT BACK ON.
000485: 01,3226           05011                           WOR      DSALMOUT
000486: 01,3227           52165                           DXCH     LOC                                   #  JOBS STARTED IN THIS FASHION MUST BE
000487: 01,3230           15165                           TCF      SUPDXCHZ
000488:
000489:    5165                                           BLOCK    2                                     #  IN FIXED-FIXED SO OTHERS MAY USE.
000490:
000491:    5165                                           COUNT*   $$/EXEC
000492:
000493:                                                                                                  #  SUPDXCHZ -- ROUTINE TO TRANSFER TO SUPEBANK.
000494:                                                                                                  #  CALLING SEQUENCE:
000495:                                                                                                  #                TCF     SUPDXCHZ        # WITH 2CADR OF DESIRED LOCATION IN A + L.
000496:
000497:    5165           56001        SUPDXCHZ           XCH      L                                     #  BASIC.
000498:    5166           00006                 +1        EXTEND
000499:    5167           01007                           WRITE    SUPERBNK
000500:    5170           54006                           TS       BBANK
000501:    5171           00001                           TC       L
000502:
000503:    5172           77677        NEG100             OCT      77677
000504:

End of include-file EXECUTIVE.agc.  Parent file is MAIN.agc


