
Source Code


000002:                                                                                                  ## Copyright:   Public domain.
000003:                                                                                                  ## Filename:    EXTENDED_VERBS.agc
000004:                                                                                                  ## Purpose:     Part of the source code for Luminary 1A build 099.
000005:                                                                                                  ##              It is part of the source code for the Lunar Module's (LM)
000006:                                                                                                  ##              Apollo Guidance Computer (AGC), for Apollo 11.
000007:                                                                                                  ## Assembler:   yaYUL
000008:                                                                                                  ## Contact:     Ron Burkey <info@sandroid.org>.
000009:                                                                                                  ## Website:     www.ibiblio.org/apollo.
000010:                                                                                                  ## Pages:       262-300
000011:                                                                                                  ## Mod history: 2009-05-10 SN   (Sergio Navarro).  Started adapting
000012:                                                                                                  ##                              from the Luminary131/ file of the same
000013:                                                                                                  ##                              name, using Luminary099 page images.
000014:                                                                                                  ##              2009-06-05 RSB  Corrected 5 typos.
000015:                                                                                                  ##              2009-06-06 RSB  Eliminated an extraneous 3-instruction block
000016:                                                                                                  ##                              and added a missing instruction.
000017:                                                                                                  ##              2009-06-07 RSB  Added a couple of "SBANK=" for compatibility
000018:                                                                                                  ##                              with yaYUL. Corrected a typo.
000019:                                                                                                  ##              2010-12-31 JL   Fixed page number comments.
000020:                                                                                                  ##              2011-01-06 JL   Added missing comment characters.
000021:                                                                                                  ##              2011-05-08 JL   Flagged SBANK= workarounds for future removal.
000022:                                                                                                  ##              2016-12-13 RSB  GOTOP00H -> GOTOPOOH
000023:                                                                                                  ##              2016-12-13 RSB  Proofed text comments with octopus/ProoferComments
000024:                                                                                                  ##                              and corrected the errors found.
000025:                                                                                                  ##              2017-02-23 RSB  CHKP00H -> CHKPOOH
000026:
000027:                                                                                                  ## This source code has been transcribed or otherwise adapted from
000028:                                                                                                  ## digitized images of a hardcopy from the MIT Museum.  The digitization
000029:                                                                                                  ## was performed by Paul Fjeld, and arranged for by Deborah Douglas of
000030:                                                                                                  ## the Museum.  Many thanks to both.  The images (with suitable reduction
000031:                                                                                                  ## in storage size and consequent reduction in image quality as well) are
000032:                                                                                                  ## available online at www.ibiblio.org/apollo.  If for some reason you
000033:                                                                                                  ## find that the images are illegible, contact me at info@sandroid.org
000034:                                                                                                  ## about getting access to the (much) higher-quality images which Paul
000035:                                                                                                  ## actually created.
000036:                                                                                                  ##
000037:                                                                                                  ## Notations on the hardcopy document read, in part:
000038:                                                                                                  ##
000039:                                                                                                  ##      Assemble revision 001 of AGC program LMY99 by NASA 2021112-61
000040:                                                                                                  ##      16:27 JULY 14, 1969
000041:


000043: 07,2667                                           BANK     7
000044: 43,2000                                           SETLOC   EXTVERBS
000045: 43,2000                                           BANK
000046:
000047: 43,2000  E5,1737                                  EBANK=   OGC
000048:
000049: 43,2000                                           COUNT*   $$/EXTVB
000050:
000051:                                                                                                  #  FAN-OUT
000052:
000053: 43,2000           50154        GOEXTVB            INDEX    MPAC                                  #  VERB-40 IS IN MPAC
000054: 43,2001           02002                           TC       LST2FAN                               #  FAN AS BEFORE.
000055:
000056: 43,2002           02130        LST2FAN            TC       VBZERO                                #  VB40 ZERO (USED WITH NOUN 20 OR 72 ONLY)
000057: 43,2003           02171                           TC       VBCOARK                               #  VB41 COARSE ALIGN (USED WITH NOUN 20 OR
000058:                                                                                                  #                                72 ONLY)
000059: 43,2004           02330                           TC       IMUFINEK                              #  VB42 FINE ALIGN IMU
000060: 43,2005           02707                           TC       IMUATTCK                              #  VB43 LOAD IMU ATTITUDE ERROR METERS.
000061: 43,2006           02302                           TC       RRDESEND                              #  VB44 TERMINATE CONTINUOUS DESIGNATE
000062: 43,2007           02120                           TC       ALM/END                               #  VB45 SPARE
000063: 43,2010           02120                           TC       ALM/END                               #  VB46 SPARE
000064: 43,2011           02367                           TC       V47TXACT                              #  VB47 AGS INITIALIZATION
000065: 43,2012           03135                           TC       DAPDISP                               #  VB48 LOAD A/P DATA
000066: 43,2013           13015                           TCF      CREWMANU                              #  VB49 START AUTOMATIC ATTITUDE MANEUVER
000067: 43,2014           02361                           TC       GOLOADLV                              #  VB50 PLEASE PERFORM
000068: 43,2015           02120                           TC       ALM/END                               #  VB51 SPARE
000069: 43,2016           02361                           TC       GOLOADLV                              #  VB52 PLEASE MARK X - RETICLE.
000070: 43,2017           02361                           TC       GOLOADLV                              #  VB53 PLEASE MARK Y - RETICLE.
000071: 43,2020           02361                           TC       GOLOADLV                              #  VB54 PLEASE MARK X OR Y - RETICLE
000072: 43,2021           02401                           TC       ALINTIME                              #  VB55 ALIGN TIME
000073: 43,2022           03024                           TC       TRMTRACK                              #  VB56 TERMINATE TRACKING - P20 + P25
000074: 43,2023           02322                           TC       LRON                                  #  VB57 PERMIT LANDING RADAR UPDATES
000075: 43,2024           02325                           TC       LROFF                                 #  VB58 INHIBIT LANDING RADAR UPDATES
000076: 43,2025           02120                           TC       ALM/END                               #  VB59 SPARE
000077: 43,2026           02151                           TC       LRPOS2K                               #  VB60 COMMAND LR TO POSITION 2.
000078: 43,2027           02163                           TC       DAPATTER                              #  VB61 DISPLAY DAP ATTITUDE ERROR
000079: 43,2030           02166                           TC       TOTATTER                              #  VB62 DISPLAY TOTAL ATTITUDE ERROR
000080: 43,2031           02414                           TC       R04                                   #  VB63 SAMPLE RADAR ONCE PER SECOND
000081: 43,2032           02700                           TC       VB64                                  #  VB64 CALCULATE, DISPLAY S-BAND ANT ANGLES
000082: 43,2033           03221                           TC       SNUFFOUT                              #  VB65 DISABLE U,V JETS DURING DPS BURNS.
000083: 43,2034           03142                           TC       ATTACHED                              #  VB66 ATTACHED   MOVE THIS TO OTHER STATE
000084: 43,2035           03213                           TC       V67                                   #  VB67 W MATRIX MONITOR
000085: 43,2036           02120                           TC       ALM/END                               #  VB68 SPARE
000086: 43,2037           02037        VERB69             TC       VERB69                                #  VB69 FORCE A HARDWARE RESTART
000087: 43,2040           03724                           TC       V70UPDAT                              #  VB70 UPDATE LIFTOFF TIME.
000088: 43,2041           03726                           TC       V71UPDAT                              #  VB71 UNIVERSAL UPDATE - BLOCK ADDRESS.
000089: 43,2042           03730                           TC       V72UPDAT                              #  VB72 UNIVERSAL UPDATE - SINGLE ADDRESS.
000090: 43,2043           03732                           TC       V73UPDAT                              #  VB73 UPDATE AGC TIME (OCTAL).
000091: 43,2044           03045                           TC       DNEDUMP                               #  VB74 INITIALIZE DOWN-TELEMETRY PROGRAM
000092:                                                                                                  #        FOR ERASABLE DUMP.
000093: 43,2045           03224                           TC       OUTSNUFF                              #  VB75 ENABLE U,V JETS DURING DPS BURNS.


000095: 43,2046           03001                           TC       MINIMP                                #  VB76 MINIMUM IMPULSE MODE
000096: 43,2047           03006                           TC       NOMINIMP                              #  VB77 RATE COMMAND MODE
000097: 43,2050           02404                           TC       R77                                   #  VB78 START LR SPURIOUS RETURN TEST
000098: 43,2051           02617                           TC       R77END                                #  VB79 TERMINATE LR SPURIOUS RETURN TEST
000099: 43,2052           03051                           TC       LEMVEC                                #  VB80 UPDATE LEM STATE VECTOR
000100: 43,2053           03054                           TC       CSMVEC                                #  VB81 UPDATE CSM STATE VECTOR
000101: 43,2054           02746                           TC       V82PERF                               #  VB82 REQUEST ORBIT PARAM DISPLAY (R30)
000102: 43,2055           02756                           TC       V83PERF                               #  VB83 REQUEST REND PARAM DISPLAY (R31)
000103: 43,2056           02120                           TC       ALM/END                               #  VB84 SPARE
000104: 43,2057           03227                           TC       VERB85                                #  VB85 DISPLAY RR LOS AZ AND ELEV
000105: 43,2060           02120                           TC       ALM/END                               #  VB86 SPARE
000106: 43,2061           02120                           TC       ALM/END                               #  VB87 SPARE
000107: 43,2062           02120                           TC       ALM/END                               #  VB88 SPARE
000108: 43,2063           02764                           TC       V89PERF                               #  VB89 ALIGN XORZ LEM AXIS ALONG LOS (R63)
000109: 43,2064           02773                           TC       V90PERF                               #  VB90 OUT OF PLANE RENDEZVOUS DISPLAY
000110: 43,2065           03100                           TC       GOSHOSUM                              #  VB91 DISPLAY BANK SUM.
000111: 43,2066           03064                           TC       SYSTEST                               #  VB92 OPERATE IMU PERFORMANCE TEST.
000112: 43,2067           03073                           TC       WMATRXNG                              #  VB93 CLEAR RENDWFLG
000113: 43,2070           02120                           TC       ALM/END                               #  VB94 SPARE
000114: 43,2071           03061                           TC       UPDATOFF                              #  VB95 NO STATE VECTOR UPDATE ALLOWED
000115: 43,2072           03206                           TC       VERB96                                #  VB96 INTERRUPT INTEGRATION AND GO TO POO
000116: 43,2073           02361                           TC       GOLOADLV                              #  VB97 PLEASE VERIFY ENGINE FAILURE
000117: 43,2074           02120                           TC       ALM/END                               #  VB98 SPARE
000118: 43,2075           02361                           TC       GOLOADLV                              #  VB99 PLEASE ENABLE ENGINE
000119:
000120:                                                                                                  #  END OF EXTENDED VERB FAN
000121:
000122: 43,2076           11044        TESTXACT           CCS      EXTVBACT                              #  ARE EXTENDED VERBS BUSY
000123: 43,2077           02120                           TC       ALM/END                               #  YES, TURN ON OPERATOR LIGHT
000124: 43,2100           30100                           CA       FLAGWRD4                              #  ARE PRIORITY DISPLAYS USING DSKY
000125: 43,2101           72127                           MASK     OC24100
000126: 43,2102           10000                           CCS      A
000127: 43,2103           02120                           TC       ALM/END                               #  YES
000128: 43,2104           36007                           CAF      OCT24                                 #  SET BITS 3 AND 5
000129: 43,2105           55044        SETXTACT           TS       EXTVBACT                              #  NO.  SET FLAG TO SHOW EXT VERB DISPLAY
000130:                                                                                                  #  SYSTEM BUSY
000131:
000132: 43,2106           30002                           CA       Q
000133: 43,2107           54155                           TS       MPAC       +1
000134:
000135: 43,2110           44752                           CS       TWO                                   #  BLANK EVERYTHING EXCEPT MM AND VERB
000136: 43,2111           04154                           TC       NVSUB
000137: 43,2112           02113                           TC       +1
000138: 43,2113           00155                           TC       MPAC       +1
000139:
000140: 43,2114           04364        XACTALM            TC       FALTON                                #  TURN ON OPERATOR ERROR LIGHT.
000141: 43,2115           05472                           TC       ENDEXT                                #  RELEASE MARK AND EXT. VERB DISPLAY SYS.
000142:
000143: 43,2116     5472               TERMEXTV           EQUALS   ENDEXT


000145: 43,2116     5472               ENDEXTVB           EQUALS   ENDEXT
000146:
000147: 43,2116           34755        XACT0              CAF      ZERO                                  #  RELEASE MARK AND EXT. VERB DISPLAY SYS.
000148: 43,2117           02105                           TC       SETXTACT
000149:
000150: 43,2120           04364        ALM/END            TC       FALTON                                #  TURN ON OPERATOR ERROR LIGHT
000151: 43,2121           04635        GOPIN              TC       POSTJUMP
000152: 43,2122           21050                           CADR     PINBRNCH
000153:
000154: 43,2123           31011        CHKPOOH            CA       MODREG                                #  CHECK FOR P00 OR P00-.
000155: 43,2124           00006                           EXTEND
000156: 43,2125           16742                           BZF      TCQ
000157: 43,2126           02120                           TC       ALM/END
000158:
000159: 43,2127           24100        OC24100            OCT      24100
000160:


000162:                                                                                                  #  VBZERO        VERB 40         DESCRIPTION
000163:
000164:                                                                                                  #        1.      REQUIRE NOUN 20 (ICDU ANGLES) OR NOUN 72 (RCDU ANGLES).
000165:                                                                                                  #        2.      FOR N20, CHECK IMUCADR IN AN EFFORT TO AVOID A 1210 RESTART.
000166:                                                                                                  #                FOR N72, CHECK IF EITHER RADAR IS IN USE.
000167:                                                                                                  #        3.      EXECUTE THE CDU ZERO.
000168:                                                                                                  #        4.      STALL UNTILL THE ZERO IS DONE.
000169:                                                                                                  #        5.      DON'T DIFFERENIATE BETWEEN A BAD OR GOOD RETURN.
000170:                                                                                                  #        6.      EXIT, RE-ESTABLISHING THE INTERRUPTED DISPLAY (IF ANY).
000171:
000172: 43,2130           02174        VBZERO             TC       OP/INERT
000173: 43,2131           02133                           TC       IMUZEROK                              #  RETURN HERE IF NOUN = ICDU(20)
000174: 43,2132           02142                           TC       RRZEROK                               #  RETURN HERE IF NOUN = RCDU(72)
000175: 43,2133           02375        IMUZEROK           TC       CKMODCAD
000176: 43,2134           04616                           TC       BANKCALL                              #  KEYBOARD REQ FOR ISS CDUZERO
000177: 43,2135           16714                           CADR     IMUZERO
000178:
000179: 43,2136           04616                           TC       BANKCALL                              #  STALL
000180: 43,2137           17716                           CADR     IMUSTALL
000181: 43,2140           02141                           TC       +1
000182:
000183: 43,2141           02121                           TC       GOPIN                                 #  IMUZERO
000184:
000185: 43,2142           02642        RRZEROK            TC       RDRUSECK
000186: 43,2143           04616                           TC       BANKCALL
000187: 43,2144           52343                           CADR     RRZERO
000188:
000189: 43,2145           04616        RWAITK             TC       BANKCALL
000190: 43,2146           17714                           CADR     RADSTALL
000191: 43,2147           12150                           TCF      +1
000192: 43,2150           02121                           TC       GOPIN                                 #  RRZERO
000193:
000194:                                                                                                  #  LRPOS2K       VERB 60                 DESCRIPTION
000195:                                                                                                  #        COMMAND LANDING RADAR TO POSITION 2
000196:
000197:                                                                                                  #        1.      EXIT WITH OP ERROR IF SOMEONE IS USING EITHER RADAR.
000198:                                                                                                  #        2.      ALARM WITH CODE 523 IF POS 2 IS NOT INDICATED WITHIN
000199:                                                                                                  #                THE PRESCRIBED TIME.
000200:                                                                                                  #        3.      RE-ESTABLISH THE DISPLAYS.
000201:
000202: 43,2151           02642        LRPOS2K            TC       RDRUSECK
000203: 43,2152           04616                           TC       BANKCALL                              #  COMMAND LR TO POSITION 2
000204: 43,2153           53471                           CADR     LRPOS2
000205: 43,2154           04616                           TC       BANKCALL
000206: 43,2155           17714                           CADR     RADSTALL
000207: 43,2156           02160                           TC       LRP2ALM
000208: 43,2157           02121                           TC       GOPIN
000209:
000210: 43,2160           05567        LRP2ALM            TC       ALARM
000211: 43,2161           00523                           OCT      523
000212: 43,2162           02121                           TC       GOPIN


000214:
000215:                                                                                                  #  V61   VERB 61, DISPLAY DAP ATTITUDE ERRORS ON FDAI ATTITUDE ERROR NEEDLES.
000216:
000217: 43,2163           05516        DAPATTER           TC       DOWNFLAG
000218: 43,2164           00013                           ADRES    NEEDLFLG
000219: 43,2165           02121                           TC       GOPIN
000220:
000221:                                                                                                  #  V62   VERB 62, DISPLAY TOTAL ATTITUDE ERRORS ON FDAI ATTITUDE ERROR NEEDLES.
000222:
000223: 43,2166           05504        TOTATTER           TC       UPFLAG
000224: 43,2167           00013                           ADRES    NEEDLFLG
000225: 43,2170           02121                           TC       GOPIN
000226:


000228:                                                                                                  #  VBCOARK       VERB 41         DESCRIPTION
000229:                                                                                                  #        COARSE ALIGN IMU OR RADAR
000230:
000231:                                                                                                  #        1.      REQUIRE NOUN 20 OR NOUN 72 OR TURN ON OPERATOR ERROR.
000232:                                                                                                  #        2.      REQUIRE EXT VERB DISPLAY SYS AVAILABLE OR TURN ON OPERATOR ERROR LIGHT AND GO TO PINBRNCH.
000233:                                                                                                  #                                CASE 1 NOUN 20 (ICDU ANGLES)
000234:                                                                                                  #        3.      SET EXT VERB DISPLAY ACTIVE FLAG.
000235:                                                                                                  #        4.      DISPLAY FLASHING V25,N22 (LOAD NEW ICDU ANGLES).
000236:                                                                                                  #                RESPONSES
000237:                                                                                                  #                A.      TERMINATE
000238:                                                                                                  #                        1.      RELEASE EXT VERB DISPLAY SYSTEM
000239:                                                                                                  #                B.      PROCEED
000240:                                                                                                  #                        1.      COARSE ALIGN TO THE EXISTING THETAD'S (ICORK2).
000241:                                                                                                  #                C.      ENTER
000242:                                                                                                  #                        1.      COARSE ALIGN TO THE LOADED THETAD'S (ICORK2).
000243:                                                                                                  #  ICORK2
000244:                                                                                                  #        1.      RE-DISPLAY VERB 41.
000245:                                                                                                  #        2.      EXECUTE IMUCCARS (IMU COARSE ALIGN).
000246:                                                                                                  #        3.      EXECUTE IMUSTALL (ALLOW TIME FOR DATA TRANSFER).
000247:                                                                                                  #        4.      RELEASE EXT VERB DISPLAY SYSTEM.
000248:                                                                                                  #                                CASE 2 NOUN 72 (RCDU ANGLES)
000249:                                                                                                  #                EXIT WITH OP ERROR IF SOMEONE IS USING EITHER RADAD.
000250:                                                                                                  #        5.      DISPLAY FLASHING V24, N73 (LOAD NEW RR TRUNION ANGLE AND NEW SHAFT ANGLE).
000251:                                                                                                  #                RESPONSES
000252:                                                                                                  #                A.      TERMINATE
000253:                                                                                                  #                        1.      RELEASE EXT VERB DISPLAY SYS.
000254:                                                                                                  #                B.      PROCEED OR ENTER
000255:                                                                                                  #                        1.      EXECUTE AURLOKON (ASK OPERATOR FOR LOCK-ON REQUIREMENTS).
000256:                                                                                                  #                        2.      RE-DISPLAY VERB 41.
000257:                                                                                                  #                        3.      SCHEDULE RRDESK2 WITH PRIORITY 20.
000258:                                                                                                  #                        4.      RELEASE EXT VERB DISPLAY SYS.
000259:                                                                                                  #  AURLOKON
000260:                                                                                                  #        1.      FLASH V04 N12 R1 = 00006 R2 = 00002
000261:                                                                                                  #                RESPONSES
000262:                                                                                                  #                A.      TERMINATE
000263:                                                                                                  #                B.      PROCEED
000264:                                                                                                  #                        1.      RESET LOCK-ON SWITCH
000265:                                                                                                  #                        2.      SET CONTINUOUS DESIGNATE FLAG
000266:                                                                                                  #                        3.      DISABLE R25
000267:                                                                                                  #                C.      V22 E 1 E, R1 = 00001, PROCEED
000268:                                                                                                  #                        1.      SET LOCK-ON SWITCH
000269:
000270: 43,2171           02174        VBCOARK            TC       OP/INERT
000271: 43,2172           02205                           TC       IMUCOARK                              #  RETURN HERE IF NOUN = ICDU (20)
000272: 43,2173           02227                           TC       RRDESNBK                              #  RETURN HERE IF NOUN = RCDU (72)
000273:
000274:                                                                                                  #  RETURNS TO L+1 IF IMU OR L+2 IF RR.
000275:
000276: 43,2174           46007        OP/INERT           CS       OCT24
000277: 43,2175           61002                           AD       NOUNREG
000278: 43,2176           00006                           EXTEND


000280: 43,2177           16742                           BZF      TCQ                                   #  IF = 20.
000281:
000282: 43,2200           62204                           AD       RRIMUDIF                              #  -52
000283: 43,2201           00006                           EXTEND
000284: 43,2202           16737                           BZF      Q+1
000285:
000286: 43,2203           02120                           TC       ALM/END                               #  ILLEGAL.
000287:
000288: 43,2204           77713        RRIMUDIF           DEC      -52        B-14                       #  THE IMU
000289: 43,2205           02375        IMUCOARK           TC       CKMODCAD
000290: 43,2206           02076                           TC       TESTXACT                              #  COARSE ALIGN FROM KEYBOARD.
000291: 43,2207           32225                           CAF      VNLODCDU                              #  CALL FOR THETAD LOAD
000292: 43,2210           04616                           TC       BANKCALL
000293: 43,2211           20334                           CADR     GOXDSPF
000294: 43,2212           05472                           TC       TERMEXTV
000295: 43,2213           12214                           TCF      +1
000296:
000297: 43,2214           32226        ICORK2             CAF      IMUCOARV                              #  RE-DISPLAY COARSE ALIGN VERB.
000298: 43,2215           04616                           TC       BANKCALL
000299: 43,2216           20620                           CADR     EXDSPRET
000300:
000301: 43,2217           04616                           TC       BANKCALL                              #  CALL MODE SWITCHING PROG
000302: 43,2220           17000                           CADR     IMUCOARS
000303:
000304: 43,2221           04616                           TC       BANKCALL                              #  STALL
000305: 43,2222           17716                           CADR     IMUSTALL
000306: 43,2223           05472                           TC       ENDEXTVB
000307: 43,2224           05472                           TC       ENDEXTVB
000308:
000309: 43,2225           06226        VNLODCDU           VN       2522
000310: 43,2226           12200        IMUCOARV           VN       4100
000311:


000313:                                                                                                  #  DESIGNATE TO DESIRED GIMBAL ANGLES.
000314:
000315: 43,2227           02642        RRDESNBK           TC       RDRUSECK
000316: 43,2230           02076                           TC       TESTXACT
000317: 43,2231           34745                           CA       RNDVZBIT                              #  IS P20 RUNNING?
000318: 43,2232           70074                           MASK     FLAGWRD0
000319: 43,2233           10000                           CCS      A
000320: 43,2234           12114                           TCF      XACTALM                               #  OPERATOR ERROR IF IN P20
000321: 43,2235           42321                           CS       OCT41000                              #  TERMINATE PRESENT DESIGNATION
000322: 43,2236           00004                           INHINT                                         #  RELINT DONE IN GOXDSPF
000323: 43,2237           70110                           MASK     RADMODES
000324: 43,2240           54110                           TS       RADMODES
000325:
000326: 43,2241           32260                           CAF      VNLDRCDU                              #  ASK FOR GIMBAL ANGLES.
000327: 43,2242           04616                           TC       BANKCALL
000328: 43,2243           20334                           CADR     GOXDSPF
000329: 43,2244           05472                           TC       TERMEXTV
000330: 43,2245           12241                           TCF      -4                                    #  V33
000331:
000332: 43,2246           04616                           TC       BANKCALL                              #  ASK OP FOR LOCK ON REQUIREMENTS.
000333: 43,2247           46000                           CADR     AURLOKON
000334:
000335: 43,2250           32226                           CAF      OPTCOARV                              #  RE-DISPLAY OUR OWN VERB
000336: 43,2251           04616                           TC       BANKCALL
000337: 43,2252           20620                           CADR     EXDSPRET
000338:
000339: 43,2253           34736                           CAF      PRIO20
000340: 43,2254           05105                           TC       FINDVAC
000341: 43,2255  E7,1456                                  EBANK=   LOSCOUNT
000342: 43,2255           02261 66107                     2CADR    RRDESK2
000343:
000344: 43,2257           15472                           TCF      TERMEXTV                              #  FREES DISPLAY.
000345:
000346: 43,2260           06111        VNLDRCDU           VN       2473
000347: 43,2261  43,2226               OPTCOARV           EQUALS   IMUCOARV                              #  DIFFERENT NOUNS.
000348:
000349: 43,2261           04616        RRDESK2            TC       BANKCALL
000350: 43,2262           52475                           CADR     RRDESNB
000351:
000352: 43,2263           02264                           TC       +1                                    #  DUMMY NEEDED SINCE DESRETRN DOES INCR
000353: 43,2264           30167                           CA       PRIORITY
000354: 43,2265           75004                           MASK     LOW9
000355: 43,2266           10000                           CCS      A
000356: 43,2267           50000                           INDEX    A
000357: 43,2270           54000                           TS       A                                     #  RELEASE THIS JOBS VAC AREA.
000358: 43,2271           40000                           COM                                            #  INSURE ENDOFJOB DOES A NOVAC END (BZMF).
000359: 43,2272           26167                           ADS      PRIORITY
000360: 43,2273           04616                           TC       BANKCALL                              #  WAIT FOR COMPLETION OF DESIGNATE
000361: 43,2274           17714                           CADR     RADSTALL


000363: 43,2275           02277                           TC       +2                                    #  BADEND - NO LOCKON OR OUT OF LIMITS
000364: 43,2276           05155                           TC       ENDOFJOB                              #  GOODEND - LOCKON ACHIEVED
000365: 43,2277           05567                           TC       ALARM
000366: 43,2300           00503                           OCT      503                                   #  TURN ON ALARM LIGHT - 503 DESIGNATE FAIL
000367:
000368: 43,2301           05155                           TC       ENDOFJOB
000369:
000370: 43,2302           10110        RRDESEND           CCS      RADMODES                              #  TERMINATE CONTINUOUS DESIGNATE ONLY
000371: 43,2303           12121                           TCF      GOPIN
000372: 43,2304           12121                           TCF      GOPIN
000373: 43,2305           12306                           TCF      +1
000374: 43,2306           42321                           CS       OCT41000                              #  BEGDES GOES TO ENDRADAR
000375: 43,2307           00004                           INHINT                                         #  RELINT DONE IN DOWNFLAG
000376: 43,2310           70110                           MASK     RADMODES
000377: 43,2311           54110                           TS       RADMODES
000378: 43,2312           06011                           TC       CLRADMOD
000379: 43,2313           34777                           CAF      1SEC
000380: 43,2314           04616                           TC       BANKCALL
000381: 43,2315           01735                           CADR     DELAYJOB
000382: 43,2316           05516                           TC       DOWNFLAG                              #  ENABLE R25 GIMBAL MONITOR
000383: 43,2317           00126                           ADRES    NORRMON
000384: 43,2320           12121                           TCF      GOPIN
000385: 43,2321           41000        OCT41000           OCT      41000                                 #  CONTINUOUS DESIGNATE - DESIGNATE
000386:


000388: 23,2000                                           BANK     23
000389: 23,2000                                           SETLOC   EXTVB1
000390: 23,2000                                           BANK
000391: 23,2000                                           COUNT*   $$/EXTVB
000392:
000393: 23,2000           04645        AURLOKON           TC       MAKECADR
000394: 23,2001           55113                           TS       DESRET
000395: 23,2002           34752                           CAF      TWO
000396: 23,2003           55052                           TS       OPTIONX    +1
000397: 23,2004           36242                           CAF      SIX                                   #  OPTION CODE FOR V04N12
000398: 23,2005           55051                           TS       OPTIONX
000399:
000400: 23,2006           32037                 -5        CAF      V04N1272
000401: 23,2007           04616                           TC       BANKCALL                              #  R2    00001   LOCK-ON
000402: 23,2010           20353                           CADR     GOMARKFR
000403: 23,2011           15472                           TCF      ENDEXT                                #  V34
000404: 23,2012           12017                           TCF      +5                                    #  V33
000405: 23,2013           12006                           TCF      -5                                    #  V32
000406: 23,2014           34751                           CAF      BIT3
000407: 23,2015           05464                           TC       BLANKET
000408: 23,2016           05155                           TC       ENDOFJOB
000409:
000410: 23,2017           31052                 +5        CA       OPTIONX    +1
000411: 23,2020           74752                           MASK     BIT2
000412: 23,2021           10000                           CCS      A
000413: 23,2022           12026                           TCF      NOLOKON
000414: 23,2023           05504                           TC       UPFLAG
000415: 23,2024           00012                           ADRES    LOKONSW
000416: 23,2025           12034                           TCF      AURLKON1
000417:
000418: 23,2026           05516        NOLOKON            TC       DOWNFLAG                              #  IF NO LOCK-ON, SET BIT15 OF RADMODES TO
000419: 23,2027           00012                           ADRES    LOKONSW                               #  INDICATE THAT CONTINUOUS DESIGNATION IS
000420: 23,2030           05504                           TC       UPFLAG                                #  WANTED (TO BE TERMINATED BY V44.)
000421: 23,2031           00264                           ADRES    CDESFLAG
000422: 23,2032           05504                           TC       UPFLAG                                #  SET NO RR ANGLE MONITOR FLAG.
000423: 23,2033           00126                           ADRES    NORRMON                               #  (DISABLE R25 RR GIMBAL MONITOR IN T4RUPT
000424: 23,2034           00003        AURLKON1           RELINT
000425: 23,2035           31113                           CA       DESRET
000426: 23,2036           14640                           TCF      BANKJUMP
000427:
000428: 23,2037           01014        V04N1272           VN       412
000429: 23,2040           77757        -LOKONFG           OCT      -20
000430:
000431: 43,2322                                           BANK     43
000432: 43,2000                                           SETLOC   EXTVERBS
000433: 43,2000                                           BANK
000434: 43,2322                                           COUNT*   $$/EXTVB
000435:
000436: 43,2322           05504        LRON               TC       UPFLAG                                #  PERMIT INCORPORATION OF LR DATA      V57
000437:


000439: 43,2323           00254                           ADRES    LRINH
000440: 43,2324           12121                           TCF      GOPIN
000441:
000442: 43,2325           05516        LROFF              TC       DOWNFLAG                              #  INHIBIT INCORPORATION OF LR DATA      V58
000443: 43,2326           00254                           ADRES    LRINH
000444: 43,2327           12121                           TCF      GOPIN
000445:
000446: 43,2330  E5,1737                                  EBANK=   OGC
000447:


000449:
000450:                                                                                                  #  IMUFINEK      VERB 42         DESCRIPTION
000451:                                                                                                  #        FINE ALIGN IMU
000452:
000453:                                                                                                  #        1.      REQUIRE EXT VERB DISPLAY AVAILABLE AND SET BUSY FLAG OR TURN ON OPER ERROR AND GO TO PINBRNCH.
000454:                                                                                                  #        2.      DISPLAY FLASHING V25,N93....LOAD DELTA GYRO ANGLES....
000455:                                                                                                  #                RESPONSES
000456:                                                                                                  #                A.      TERMINATE
000457:                                                                                                  #                        1.      RELEASE EXT VERB DISPLAY SYSTEM.
000458:                                                                                                  #                B.      PROCEED OR ENTER
000459:                                                                                                  #                        1.      RE-DISPLAY VERB 42
000460:                                                                                                  #                        2.      EXECUTE IMUFINE (IMU FIVE ALIGN MODE SWITCHING).
000461:                                                                                                  #                        3.      EXECUTE IMUSTALL (ALLOW FOR DATA TRANSFER)
000462:                                                                                                  #                                A.      FAILED
000463:                                                                                                  #                                        1.      RELEASE EXT VERB DISPLAY SYSTEM.
000464:                                                                                                  #                                B.      GOOD
000465:                                                                                                  #                                        1.      EXECUTE IMUPULSE (TORQUE IRIGS).
000466:                                                                                                  #                                        2.      EXECUTE IMUSTALL AND RELEASE EXT VERB DISPLAY SYSTEM.
000467:
000468: 43,2330           02375        IMUFINEK           TC       CKMODCAD
000469: 43,2331           02076                           TC       TESTXACT                              #  FINE ALIGN WITH GYRO TORQUING.
000470: 43,2332           32357                           CAF      VNLODGYR                              #  CALL FOR LOAD OF GYRO COMMANDS
000471: 43,2333           04616                           TC       BANKCALL
000472: 43,2334           20334                           CADR     GOXDSPF
000473: 43,2335           05472                           TC       TERMEXTV
000474: 43,2336           02337                           TC       +1                                    #  PROCEED WITHOUT A LOAD
000475:
000476: 43,2337           32360                           CAF      IMUFINEV                              #  RE-DISPLAY OUR OWN VERB
000477: 43,2340           04616                           TC       BANKCALL
000478: 43,2341           20620                           CADR     EXDSPRET
000479:
000480: 43,2342           04616                           TC       BANKCALL                              #  CALL MODE SWITCH PROG
000481: 43,2343           17210                           CADR     IMUFINE
000482:
000483: 43,2344           04616                           TC       BANKCALL                              #  HIBERNATION
000484: 43,2345           17716                           CADR     IMUSTALL
000485: 43,2346           05472                           TC       ENDEXTVB
000486:
000487: 43,2347           32356        FINEK2             CAF      LGYROBIN                              #  PINBALL LEFT COMMANDS IN OGC REGISTERS
000488: 43,2350           04616                           TC       BANKCALL
000489: 43,2351           17323                           CADR     IMUPULSE
000490:
000491: 43,2352           04616                           TC       BANKCALL                              #  WAIT FOR PULSES TO GET OUT.
000492: 43,2353           17716                           CADR     IMUSTALL
000493: 43,2354           05472                           TC       ENDEXTVB
000494: 43,2355           05472                           TC       ENDEXTVB
000495:
000496: 43,2356           02737        LGYROBIN           ECADR    OGC
000497: 43,2357           06335        VNLODGYR           VN       2593
000498: 43,2360           12400        IMUFINEV           VN       4200
000499:
000500:                                                                                                  #  GOLOADLV      VERB 50         DESCRIPTION
000501:                                                                                                  #        AND OTHER PLEASE


000503:                                                                                                  #        DO SOMETHING VERBS
000504:
000505:                                                                                                  #  PLEASE PERFORM, MARK, CALIBRATE, ETC.
000506:
000507:                                                                                                  #        1.      PRESSING ENTER ON DSKY INDICATES REQUESTED ACTION HAS BEEN PERFORMED, AND THE PROGRAM DOES THE
000508:                                                                                                  #                SAME RECALL AS A COMPLETED LOAD.
000509:                                                                                                  #        2.      THE EXECUTION OF A VERB 33 (PROCEED WITHOUT DATA) INDICATES THE REQUESTED ACTION IS NOT DESIRED.
000510:
000511: 43,2361  40,2000                                  SBANK=   PINSUPER                              #  FOR LOADLV1 AND SHOWSUM CADR'S.
000512:
000513: 43,2361           04433        GOLOADLV           TC       FLASHOFF
000514:
000515: 43,2362           34201                           CAF      PINSUPBT
000516: 43,2363           00006                           EXTEND
000517: 43,2364           01007                           WRITE    SUPERBNK
000518: 43,2365           04635                           TC       POSTJUMP
000519: 43,2366           62001                           CADR     LOADLV1
000520:
000521:                                                                                                  #  VERB 47 - AGS INITIALIZATION - R47.
000522:
000523:                                                                                                  #  SEE LOG SECTION AGS INITIALIZATION FOR OTHER PERTINENT REMARKS.
000524:
000525: 43,2367           02076        V47TXACT           TC       TESTXACT                              #  NO OTHER EXTVERB.
000526: 43,2370           34740                           CAF      PRIO4
000527: 43,2371           05105                           TC       FINDVAC


000529: 43,2372  30,2000                                  SBANK=   LOWSUPER


000531: 43,2372  E4,1600                                  EBANK=   AGSBUFF
000532: 43,2372           02005 64064                     2CADR    AGSINIT
000533:
000534: 43,2374           05155                           TC       ENDOFJOB
000535:
000536: 43,2375           31304        CKMODCAD           CA       MODECADR
000537: 43,2376           00006                           EXTEND
000538: 43,2377           16742                           BZF      TCQ
000539: 43,2400           02120                           TC       ALM/END                               #  SOMEBODY IS USING MODECADR SO EXIT
000540:


000542:                                                                                                  #  ALINTIME      VERB 55         DESCRIPTION
000543:                                                                                                  #        REQUIRE POO OR POO-.
000544:
000545:                                                                                                  #        1.      SET EXT VERB DISPLAY BUSY FLAG.
000546:                                                                                                  #        2.      DISPLAY FLASHING V25,N24 (LOAD DELTA TIME FOR AGC CLOCK.
000547:                                                                                                  #        3.      REQUIRE EXECUTION OF VERB 23.
000548:                                                                                                  #        4.      ADD DELTA TIME, RECEIVED FROM INPUT REGISTER, TO THE COMPUTER TIME.
000549:                                                                                                  #        5.      RELEASE EXT VERB DISPLAY SYSTEM
000550:
000551: 43,2401           02076        ALINTIME           TC       TESTXACT
000552: 43,2402           04635                           TC       POSTJUMP                              #  NO ROOM IN 43
000553: 43,2403           64002                           CADR     R33
000554:
000555: 42,2002                                           BANK     42
000556: 42,2000                                           SETLOC   SBAND
000557: 42,2000                                           BANK
000558: 42,2002                                           COUNT*   $$/R33
000559:
000560: 42,2002           35021        R33                CAF      PRIO7
000561: 42,2003           05146                           TC       PRIOCHNG
000562: 42,2004           32034                           CAF      VNLODDT
000563: 42,2005           04616                           TC       BANKCALL
000564: 42,2006           20334                           CADR     GOXDSPF
000565: 42,2007           05472                           TC       ENDEXT                                #  TERMINATE
000566: 42,2010           05472                           TC       ENDEXT                                #  PROCEED
000567: 42,2011           42033                           CS       DEC23                                 #  DATA IN OR RESEQUENCE (UNLIKELY)
000568: 42,2012           60154                           AD       MPAC                                  #  RECALL LEFT VERB IN MPAC
000569: 42,2013           00006                           EXTEND
000570: 42,2014           12016                           BZF      UPDATIME                              #  GO AHEAD WITH UPDATE ONLY IF RECALL
000571: 42,2015           05472                           TC       ENDEXT                                #        WITH V23 (DATA IN).
000572:
000573: 42,2016           00004        UPDATIME           INHINT                                         #  DELTA TIME IS IN DSPTEM1, +1.
000574: 42,2017           34755                           CAF      ZERO
000575: 42,2020           54156                           TS       MPAC       +2                         #  NEEDED FOR TP AGREE
000576: 42,2021           54001                           TS       L                                     #  ZERO T1 + 2 WHILE ALIGNING.
000577: 42,2022           52025                           DXCH     TIME2
000578: 42,2023           52155                           DXCH     MPAC
000579: 42,2024           53052                           DXCH     DSPTEM2    +1                         #  INCREMENT
000580: 42,2025           20155                           DAS      MPAC
000581:
000582: 42,2026           07257                           TC       TPAGREE                               #  FORCE SIGN AGREEMENT.
000583: 42,2027           52155                           DXCH     MPAC                                  #  NEW CLOCK.
000584: 42,2030           20025                           DAS      TIME2
000585: 42,2031           00003                           RELINT
000586: 42,2032           05472        UPDTMEND           TC       ENDEXT
000587:
000588: 42,2033           00027        DEC23              DEC      23         B-14                       #  V 23
000589:
000590: 42,2034           06230        VNLODDT            VN       2524                                  #  V25N24 FOR LOAD DELTA TIME
000591:


000593:                                                                                                  #  SET UP FOR RADAR SAMPLING.
000594:
000595: 42,2035                                           BANK     42
000596: 43,2000                                           SETLOC   EXTVERBS
000597: 43,2000                                           BANK
000598:
000599: 43,2404  E4,1600                                  EBANK=   RSTACK
000600:
000601: 43,2404                                           COUNT*   $$/R0477
000602:
000603: 43,2404           02642        R77                TC       RDRUSECK                              #  TRY TO AVOID THE 1210.
000604: 43,2405           30077                           CA       FLAGWRD3                              #  IS R04 RUNNING?
000605: 43,2406           74743                           MASK     R04FLBIT
000606: 43,2407           10000                           CCS      A
000607: 43,2410           02120                           TC       ALM/END                               #  YES.
000608: 43,2411           05504                           TC       UPFLAG
000609: 43,2412           00117                           ADRES    R77FLAG
000610: 43,2413           12420                           TCF      R04Z
000611:
000612: 43,2414           02642        R04                TC       RDRUSECK                              #  TRY TO AVOID THE 1210.
000613: 43,2415           02076                           TC       TESTXACT
000614: 43,2416           05504                           TC       UPFLAG
000615: 43,2417           00063                           ADRES    R04FLAG                               #  SET R04FLAG FOR ALARMS
000616:
000617: 43,2420           34741        R04Z               CAF      EBANK4
000618: 43,2421           54003                           TS       EBANK
000619: 43,2422           32640                           CAF      1SEC+1                                #  SAMPLE ONCE PER SECOND
000620: 43,2423           55755                           TS       RSAMPDT
000621: 43,2424           34755                           CAF      ZERO
000622: 43,2425           55754                           TS       RTSTLOC
000623: 43,2426           55756                           TS       RFAILCNT                              #  ZERO BAD SAMPLE COUNTER
000624:
000625: 43,2427           00004                           INHINT
000626: 43,2430           42641                           CS       LRPOSCAL                              #  INITIALIZE
000627: 43,2431           70110                           MASK     RADMODES                              #        BIT 9   LR RANGE LOW SCALE =0
000628: 43,2432           54110                           TS       RADMODES                              #        BIT 6   LR POS 1 =0
000629: 43,2433           32641                           CAF      LRPOSCAL                              #        BIT 3   RR RANGE LOW SCALE =0
000630: 43,2434           00006                           EXTEND
000631: 43,2435           02033                           RAND     CHAN33
000632: 43,2436           26110                           ADS      RADMODES
000633: 43,2437           00003                           RELINT
000634:
000635: 43,2440           40077                           CS       FLAGWRD3                              #  CHECK R04FLAG         R04 =1          R77 =0
000636: 43,2441           74743                           MASK     R04FLBIT
000637: 43,2442           10000                           CCS      A
000638: 43,2443           12575                           TCF      R04K
000639:
000640: 43,2444           34753                           CAF      ONE                                   #  INDICATES RENDEZVOUS DESIRED
000641: 43,2445           55052                           TS       OPTIONX    +1
000642: 43,2446           34751        R04A               CAF      BIT3                                  #  OPTION CODE FOR V04N12
000643:


000645: 43,2447           55051                           TS       OPTIONX
000646: 43,2450           32635                           CAF      V04N12X
000647: 43,2451           04616                           TC       BANKCALL                              #        R2      00001   RENDEZVOUS RADAR
000648: 43,2452           20353                           CADR     GOMARKFR                              #                00002   LANDING RADAR
000649: 43,2453           12603                           TCF      R04END                                #  V34
000650: 43,2454           12461                           TCF      +5                                    #  V33
000651: 43,2455           12450                           TCF      R04A       +2                         #  R2
000652: 43,2456           34751                           CAF      BIT3
000653: 43,2457           05464                           TC       BLANKET
000654: 43,2460           05155                           TC       ENDOFJOB
000655:
000656: 43,2461           31052                           CA       OPTIONX    +1                         #  SAVE DESIRED OPTION   RR =1   LR =2
000657: 43,2462           55751                           TS       RTSTDEX
000658:
000659: 43,2463           36242        R04X               CAF      SIX                                   #  RR OR LR DESIRED
000660: 43,2464           71751                           MASK     RTSTDEX
000661: 43,2465           10000                           CCS      A
000662: 43,2466           12577                           TCF      R04L                                  #  LANDING RADAR
000663: 43,2467           55753                           TS       RTSTBASE                              #  FOR RR        BASE =0, MAX =1
000664:
000665: 43,2470           34752        R04B               CAF      BIT2                                  #  IS RR AUTO MODE DISCRETE PRESENT
000666: 43,2471           00006                           EXTEND
000667: 43,2472           02033                           RAND     CHAN33
000668: 43,2473           00006                           EXTEND
000669: 43,2474           12505                           BZF      R04C                                  #  YES
000670:
000671: 43,2475           32637                           CAF      201R04                                #  REQUEST SELECTION OF RR AUTO MODE
000672: 43,2476           55045                           TS       DSPTEM1
000673: 43,2477           32636                           CAF      V50N25X
000674: 43,2500           04616                           TC       BANKCALL
000675: 43,2501           20345                           CADR     GOMARK4
000676: 43,2502           12603                           TCF      R04END                                #  V34
000677: 43,2503           12470                           TCF      R04B                                  #  V33
000678: 43,2504           12475                           TCF      -7                                    #  E
000679:
000680: 43,2505           34736        R04C               CAF      BIT14                                 #  ENABLE RR AUTO TRACKER
000681: 43,2506           00006                           EXTEND
000682: 43,2507           05012                           WOR      CHAN12
000683:
000684: 43,2510           34752                           CAF      TWO
000685: 43,2511           55752                           TS       RTSTMAX                               #  FOR SEQUENTIAL STORAGE
000686:
000687: 43,2512           05203                           TC       WAITLIST


000689: 43,2513  40,2000                                  SBANK=   PINSUPER


000691: 43,2513  E4,1600                                  EBANK=   RSTACK
000692: 43,2513           02003 52104                     2CADR    RADSAMP
000693:
000694: 43,2515           00003                           RELINT
000695:
000696: 43,2516           40077                           CS       FLAGWRD3                              #  CHECK R04FLAG         R04 =1          R77 =0
000697: 43,2517           74743                           MASK     R04FLBIT


000699: 43,2520           10000                           CCS      A
000700: 43,2521           12121                           TCF      GOPIN                                 #  R77
000701:
000702: 43,2522           36242                           CAF      SIX                                   #  RR OR LR
000703: 43,2523           71751                           MASK     RTSTDEX
000704: 43,2524           10000                           CCS      A
000705: 43,2525           12542                           TCF      R04LR                                 #  LR
000706:
000707: 43,2526           32631        R04RR              CAF      V16N72                                #  DISPLAY RR CDU ANGLES (1/SEC)
000708: 43,2527           04616                           TC       BANKCALL                              #        R1 + XXX.XX DEG         TRUNNION
000709: 43,2530           20334                           CADR     GOMARKF                               #        R2 + XXX.XX DEG         SHAFT
000710: 43,2531           12603                           TCF      R04END                                #  V34   R3   BLANK
000711: 43,2532           12534                           TCF      +2                                    #  V33
000712: 43,2533           12526                           TCF      R04RR                                 #  V32
000713:
000714: 43,2534           32632                           CAF      V16N78                                #  DISPLAY RR RANGE AND RANGE RATE (1/SEC)
000715: 43,2535           04616                           TC       BANKCALL                              #        R1 +- XXX.XX NM         RANGE
000716: 43,2536           20334                           CADR     GOMARKF                               #        R2 +- XXXXX. FPS        RANGE RATE
000717: 43,2537           12603                           TCF      R04END                                #  V34   R3    BLANK
000718: 43,2540           12556                           TCF      R04Y                                  #  V33
000719: 43,2541           12526                           TCF      R04RR                                 #  V32
000720:
000721: 43,2542           32633        R04LR              CAF      V16N66                                #  DISPLAY LR RANGE AND POSITION (1/SEC)
000722: 43,2543           04616                           TC       BANKCALL                              #        R1 +- XXXXX, FT         LR RANGE
000723: 43,2544           20334                           CADR     GOMARKF                               #        R2 +  0000X.            POS. NO.
000724: 43,2545           12603                           TCF      R04END                                #  V34   R3    BLANK
000725: 43,2546           12550                           TCF      +2                                    #  V33
000726: 43,2547           12542                           TCF      R04LR                                 #  V32
000727:
000728: 43,2550           32634                           CAF      V16N67                                #  DISPLAY LR VELX, VELY, VELZ (1/SEC)
000729: 43,2551           04616                           TC       BANKCALL                              #        R1 +- XXXXX. FPS        LR V(X)
000730: 43,2552           20334                           CADR     GOMARKF                               #        R2 +- XXXXX. FPS        LR V(Y)
000731: 43,2553           12603                           TCF      R04END                                #  V34   R3 +- XXXXX. FPS        LR V(Z)
000732: 43,2554           12556                           TCF      R04Y                                  #  V33
000733: 43,2555           12542                           TCF      R04LR                                 #  V32
000734:
000735: 43,2556           34755        R04Y               CAF      ZERO                                  #  TO TERMINATE SAMPLING
000736: 43,2557           55755                           TS       RSAMPDT
000737: 43,2560           35000                           CAF      2SECS                                 #  WAIT FOR LAST RADARUPT
000738: 43,2561           04616                           TC       BANKCALL
000739: 43,2562           01735                           CADR     DELAYJOB
000740: 43,2563           32640                           CAF      1SEC+1                                #  SAMPLE ONCE PER SECOND
000741: 43,2564           55755                           TS       RSAMPDT
000742: 43,2565           34755                           CAF      ZERO                                  #  FOR STORING RESULTS
000743: 43,2566           55754                           TS       RTSTLOC
000744: 43,2567           36242                           CAF      SIX
000745: 43,2570           71751                           MASK     RTSTDEX
000746: 43,2571           10000                           CCS      A
000747: 43,2572           44753                           CS       ONE                                   #  WAS LR
000748: 43,2573           64752                           AD       TWO                                   #  WAS RR


000750:
000751: 43,2574           12462                           TCF      R04X       -1
000752:
000753: 43,2575           34766        R04K               CAF      250MS+1                               #  SAMPLE 4 LR COMPONENTS PER SECOND.
000754: 43,2576           55755                           TS       RSAMPDT
000755:
000756: 43,2577           34752        R04L               CAF      TWO
000757: 43,2600           55753                           TS       RTSTBASE                              #  FOR LR        BASE =2, MAX =3
000758: 43,2601           36242                           CAF      SIX
000759: 43,2602           12511                           TCF      R04C       +4
000760: 43,2603           34755        R04END             CAF      ZERO                                  #  ZERO RSAMPDT
000761: 43,2604           55755                           TS       RSAMPDT                               #  TO TERMINATE SAMPLING
000762: 43,2605           34744                           CAF      BIT8                                  #  WAIT 1.28 SECONDS FOR POSSIBLE
000763: 43,2606           04616                           TC       BANKCALL                              #  PENDING RUPT.
000764: 43,2607           01735                           CADR     DELAYJOB
000765:
000766: 43,2610           00004                           INHINT
000767: 43,2611           44736                           CS       BIT14                                 #  DISABLE RR AUTO TRACKER
000768: 43,2612           00006                           EXTEND
000769: 43,2613           03012                           WAND     CHAN12
000770:
000771: 43,2614           05516                           TC       DOWNFLAG
000772: 43,2615           00063                           ADRES    R04FLAG                               #  SIGNAL END OF R04.
000773:
000774: 43,2616           05472                           TC       ENDEXT
000775:
000776: 43,2617           34741        R77END             CAF      EBANK4                                #  TO TERMINATE SAMPLING
000777: 43,2620           54003                           TS       EBANK
000778: 43,2621           34755                           CAF      ZERO
000779: 43,2622           55755                           TS       RSAMPDT
000780: 43,2623           34746                           CAF      BIT6                                  #  WAIT 320 MS FOR POSSIBLE
000781: 43,2624           04616                           TC       BANKCALL                              #  PENDING RUPT.
000782: 43,2625           01735                           CADR     DELAYJOB
000783:
000784: 43,2626           05516                           TC       DOWNFLAG
000785: 43,2627           00117                           ADRES    R77FLAG
000786: 43,2630           12121                           TCF      GOPIN
000787:
000788: 43,2631           04110        V16N72             VN       1672
000789: 43,2632           04116        V16N78             VN       1678
000790: 43,2633           04102        V16N66             VN       1666
000791: 43,2634           04103        V16N67             VN       1667
000792: 43,2635           01014        V04N12X            VN       412
000793: 43,2636           14431        V50N25X            VN       5025
000794: 43,2637           00201        201R04             OCT      00201
000795: 43,2640           00145        1SEC+1             DEC      101        B-14
000796: 43,2641     4766               250MS+1            EQUALS   CALLCODE
000797: 43,2641           00444        LRPOSCAL           OCT      444
000798:


000800: 43,2642           40077        RDRUSECK           CS       FLAGWRD3                              #  IS R29 ON?
000801: 43,2643           74741                           MASK     NR29FBIT
000802: 43,2644           10000                           CCS      A
000803: 43,2645           02120                           TC       ALM/END                               #  YES
000804: 43,2646           30101                           CA       FLAGWRD5                              #  IS R77 RUNNING?
000805: 43,2647           74741                           MASK     R77FLBIT
000806: 43,2650           10000                           CCS      A
000807: 43,2651           02120                           TC       ALM/END                               #  YES.
000808: 43,2652           40103                           CS       FLAGWRD7                              #  IS SERVICER RUNNING AND HENCE POSSIBLY
000809: 43,2653           74746                           MASK     V37FLBIT                              #  R12 USING THE LR?
000810: 43,2654           10000                           CCS      A
000811: 43,2655           12662                           TCF      CHECKRR                               #  NO
000812: 43,2656           40107                           CS       FLGWRD11                              #  YES, IS R12 ON?
000813: 43,2657           74735                           MASK     LRBYBIT
000814: 43,2660           10000                           CCS      A
000815: 43,2661           02120                           TC       ALM/END                               #  YES
000816: 43,2662           40075        CHECKRR            CS       FLAGWRD1                              #  IS THE TRACK FLAG SET AND HENCE POSSIBLY
000817: 43,2663           74747                           MASK     TRACKBIT                              #  P20 USING THE RR?
000818: 43,2664           10000                           CCS      A
000819: 43,2665           12672                           TCF      CHECKP22                              #  NO, CHECK FOR P22.
000820:
000821: 43,2666           30074        CKRNDBIT           CA       FLAGWRD0                              #  YES, BUT IS IT P25?
000822: 43,2667           74745                           MASK     RNDVZBIT
000823: 43,2670           10000                           CCS      A
000824: 43,2671           02120                           TC       ALM/END
000825: 43,2672           41011        CHECKP22           CS       MODREG
000826: 43,2673           62677                           AD       DEC22
000827: 43,2674           00006                           EXTEND
000828: 43,2675           12120                           BZF      ALM/END
000829: 43,2676           00002                           TC       Q
000830:
000831: 43,2677           00026        DEC22              DEC      22         B-14
000832:
000833: 43,2700                                           COUNT*   $$/EXTVB
000834:
000835: 43,2700           02123        VB64               TC       CHKPOOH                               #  DEMAND PROGRAM 00.
000836: 43,2701           02076                           TC       TESTXACT                              #  IF DISPLAY SYS. NOT BUSY.MAKE IT BUSY.
000837: 43,2702           34740                           CAF      PRIO4
000838: 43,2703           05105                           TC       FINDVAC
000839: 43,2704  E4,1600                                  EBANK=   ALPHASB
000840: 43,2704           03606 64104                     2CADR    SBANDANT                              #  CALC., DISPLAY S-BAND ANTENNA ANGLES.
000841:
000842: 43,2706           05155                           TC       ENDOFJOB
000843:


000845:                                                                                                  #  IMUATTCK      VERB 43         DESCRIPTION
000846:                                                                                                  #        LOAD IMU ATTITUDE ERROR METERS
000847:
000848:                                                                                                  #        1.      REQUIRE POO OR FRESH START.
000849:                                                                                                  #        2.      REQUIRE COARSE ALIGN ENABLE AND ZERO ICDU BITS OFF.
000850:                                                                                                  #        3.      REQUIRE THAT NEEDLES BE OFF.
000851:                                                                                                  #        4.      REQUEST LOAD OF N22 (VAUES TO BE DISPLAYED).
000852:                                                                                                  #        5.      ON PROCEED OR ENTER RE-DISPLAY V43 AND SEND PULSES.
000853:
000854: 43,2707           02123        IMUATTCK           TC       CHKPOOH                               #  VB 76 - LOAD IMU ATT. ERROR METERS
000855:
000856: 43,2710           34763                           CAF      BITS4&5                               #  SEE IF COARSE ALIGN ENABLE AND ZERO IMU
000857: 43,2711           00006                           EXTEND                                         #  CDUS BITS ARE ON
000858: 43,2712           02012                           RAND     CHAN12
000859: 43,2713           10000                           CCS      A
000860: 43,2714           12120                           TCF      ALM/END                               #  NOT ALLOWED IF IMU COARSE OR IMU ZERO ON
000861:
000862: 43,2715           34355                           CAF      BIT13-14                              #  BOTH BITS 13 AND 14 MUST BE 1
000863: 43,2716           00006                           EXTEND                                         #  INDICATING THE MODE SELECTED IS OFF.
000864: 43,2717           06031                           RXOR     CHAN31
000865: 43,2720           74355                           MASK     BIT13-14
000866: 43,2721           00006                           EXTEND
000867: 43,2722           12724                           BZF      +2                                    #  NEEDLES IS OFF.
000868: 43,2723           12120                           TCF      ALM/END                               #  EXIT.  NEEDLES IS ON.
000869:
000870: 43,2724           02076                           TC       TESTXACT
000871:
000872: 43,2725           32225                           CAF      VNLODCDU
000873: 43,2726           04616                           TC       BANKCALL
000874: 43,2727           20334                           CADR     GOXDSPF
000875: 43,2730           05472                           TC       ENDEXT                                #  V34
000876: 43,2731           02732                           TC       +1
000877: 43,2732           32745                           CAF      V43K                                  #  REDISPLAY OUR VERB.
000878: 43,2733           04616                           TC       BANKCALL
000879: 43,2734           20620                           CADR     EXDSPRET
000880: 43,2735           34746                           CAF      BIT6
000881: 43,2736           00006                           EXTEND
000882: 43,2737           05012                           WOR      CHAN12                                #  ENABLE ERROR COUNTERS.
000883: 43,2740           34752                           CAF      TWO
000884: 43,2741           05203                           TC       WAITLIST                              #  PUT OUT COMMANDS IN .32 SECONDS.
000885: 43,2742     0321                                  EBANK=   THETAD
000886: 43,2742           02035 64100                     2CADR    ATTCK2
000887:
000888: 43,2744           15472                           TCF      ENDEXT
000889:
000890: 42,2035                                           BANK     42
000891: 42,2000                                           SETLOC   PINBALL3                              #  SOMETHING IN B42.
000892: 42,2000                                           BANK
000893:
000894: 42,2035                                           COUNT*   $$/EXTVB


000896: 42,2035           34752        ATTCK2             CAF      TWO                                   #  PUT OUT COMMANDS.
000897: 42,2036           54002                 +1        TS       Q                                     #  CDU WILL LIMIT EXCESS DATA.
000898: 42,2037           50000                           INDEX    A
000899: 42,2040           30321                           CA       THETAD
000900: 42,2041           00006                           EXTEND
000901: 42,2042           72053                           MP       ATTSCALE
000902: 42,2043           50002                           INDEX    Q
000903: 42,2044           56050                           XCH      CDUXCMD
000904: 42,2045           10002                           CCS      Q
000905: 42,2046           12036                           TCF      ATTCK2     +1
000906:
000907: 42,2047           37740                           CAF      13,14,15
000908: 42,2050           00006                           EXTEND
000909: 42,2051           05014                           WOR      CHAN14
000910: 42,2052           15261                           TCF      TASKOVER                              #  LEAVE ERROR COUNTERS ENABLED.
000911:
000912: 42,2053           03146        ATTSCALE           DEC      0.1
000913:
000914: 07,2667                                           BANK     7
000915: 43,2000                                           SETLOC   EXTVERBS
000916: 43,2000                                           BANK
000917:
000918: 43,2745                                           COUNT*   $$/EXTVB
000919:
000920: 43,2745           12600        V43K               VN       4300
000921:
000922:                                                                                                  #  V82PERF       VERB82          DESCRIPTION
000923:                                                                                                  #        REQUEST ORBIT PARAMETERS DISPLAY (R30)
000924:
000925:                                                                                                  #        1.      IF AVERAGE G IS OFF:
000926:                                                                                                  #                        FLASH DISPLAY V04N06.  R2 INDICATES WHICH SHIP'S STATE VECTOR IS
000927:                                                                                                  #                        TO BE UPDATED.  INITIAL CHOICE IS THIS SHIP (R2=1).  ASTRONAUT
000928:                                                                                                  #                        CAN CHANGE TO OTHER SHIP BY V22EXE, WHERE X NOT EQ I.
000929:                                                                                                  #                        SELECTED STATE VECTOR UPDATED BY THISPREC (OTHPREC).
000930:                                                                                                  #                        CALLS SR30.1 (WHICH CALLS TFFCONMU + TFFRP/RA) TO CALCULATE
000931:                                                                                                  #                        RPER (PERIGEE RADIUS), RAP0 (APOGEE RADIUS), HPER (PERIGEE
000932:                                                                                                  #                        HEIGHT ABOVE LAUNCH PAD OR LUNAR LANDING SITE), HAPO (APOGEE
000933:                                                                                                  #                        HEIGHT AS ABOVE), TPER (TIME TO PERIGEE), TFF (TIME TO
000934:                                                                                                  #                        INTERSECT 300 KFT ABOVE PAD OR 35KFT ABOVE LANDING SITE).
000935:                                                                                                  #                        FLASH MONITOR V16N44 (HAPO, HPER, TFF).  TFF IS -59M59S IF IT WAS
000936:                                                                                                  #                        NOT COMPUTABLE, OTHERWISE IT INCREMENTS ONCE PER SECOND.
000937:                                                                                                  #                        ASTRONAUT HAS OPTION TO MONITOR TPER BY KEYING IN N 32 E.
000938:                                                                                                  #                        DISPLAY IS IN HMS, IS NEGATIVE (AS WAS TFF), AND INCREMENTS
000939:                                                                                                  #                        ONCE PER SECOND ONLY IF TFF DISPLAY WAS -59M59S.
000940:
000941:                                                                                                  #        2.      IF AVERAGE G IS ON:
000942:                                                                                                  #                        CALLS SR30.1 APPROX EVERY TWO SECS.  STATE VECTOR IS ALWAYS
000943:                                                                                                  #                        FOR THIS VEHICLE.  V82 DOES NOT DISTURB STATE VECTOR.  RESULTS
000944:                                                                                                  #                        OF SR30.1 ARE RAPO, RPER, HAPO, HPER, TPER, TFF.
000945:                                                                                                  #                        FLASH MONITOR V16N44 (HAPO, HPER, TFF).
000946:                                                                                                  #                        IF MODE IS P11, THEN CALL DELRSPL SO ASTRONAUT CAN MONITOR
000947:                                                                                                  #                        RESULTS BY N50E.  SPLASH COMPUTATION DONE ONCE PER TWO SECS.
000948:


000950: 43,2746           02076        V82PERF            TC       TESTXACT
000951:
000952: 43,2747           35021                           CAF      PRIO7                                 #  LESS THAN LAMBERT.  R30,V82
000953: 43,2750           05146                           TC       PRIOCHNG
000954: 43,2751           00006                           EXTEND
000955: 43,2752           32755                           DCA      V82CON
000956: 43,2753           05165                           TC       SUPDXCHZ                              #  V82CALL IN DIFF SUPERBANK FROM V82PERF
000957:
000958: 43,2754  E4,1716                                  EBANK=   HAPO
000959: 43,2754           03242 44104  V82CON             2CADR    V82CALL
000960:
000961:                                                                                                  #  VB83PERF      VERB 83         DESCRIPTION
000962:                                                                                                  #        REQUEST RENDEZVOUS PARAMETER DISPLAY (R31)
000963:
000964:                                                                                                  #        1.      SET EXT VERB DISPLAY BUSY FLAG.
000965:                                                                                                  #        2.      SCHEDULE R31CALL WITH PRIORITY 5.
000966:                                                                                                  #                A.      DISPLAY
000967:                                                                                                  #                        R1      RANGE
000968:                                                                                                  #                        R2      RANGE RATE
000969:                                                                                                  #                        R3      THETA
000970:
000971: 43,2756           02076        V83PERF            TC       TESTXACT
000972:
000973: 43,2757           34752                           CAF      BIT2
000974: 43,2760           05203                           TC       WAITLIST
000975: 43,2761  E7,1611                                  EBANK=   TSTRT
000976: 43,2761           03674 60107                     2CADR    R31CALL
000977:
000978: 43,2763           05155                           TC       ENDOFJOB
000979:
000980:                                                                                                  #  VERB 89       DESCRIPTION     RENDEZVOUS FINAL ATTITUDE ROUTINE (R63)
000981:                                                                                                  #
000982:                                                                                                  #  CALLED BY VERB 89 ENTER DURING P00.  PRIO 10 USED.  CALCULATES AND
000983:                                                                                                  #  DISPLAYS FINAL FDAI BALL ANGLES TO POINT LM +X OR +Z AXIS AT CSM.
000984:
000985:                                                                                                  #  1. KEY IN V 89 E ONLY IF IN PROG 00.  IF NOT IN POO, OPERATOR ERROR AND
000986:                                                                                                  #  EXIT R63, OTHERWISE CONTINUE.
000987:
000988:                                                                                                  #  2. IF IN POO, DO IMU STATUS CHECK ROUTINE (R02BOTH).  IF IMU ON AND ITS
000989:                                                                                                  #  ORIENTATION KNOWN TO LGC,CONTINUE.
000990:
000991:                                                                                                  #  3. FLASH DISPLAY V 04 N 06.  R2 INDICATES WHICH SPACECRAFT AXIS IS TO
000992:                                                                                                  #  BE POINTED AT CSM.  INITIAL CHOICE IS PREFERRED (+Z) AXIS (R2=1).
000993:                                                                                                  #  ASTRONAUT CAN CHANGE TO (+X) AXIS (R2 NOT = 1) BY V 22 E 2 E.  CONTINUE
000994:                                                                                                  #  AFTER KEYING IN PROCEED.
000995:
000996:                                                                                                  #  4. BOTH VEHICLE STATE VECTORS UPDATED BY CONIC EQS.
000997:
000998:                                                                                                  #  5. HALF MAGNITUDE UNIT LOS VECTOR (IN STABLE MEMBER COORDINATES) AND


001000:                                                                                                  #  HALF MAGNITUDE UNIT SPACECRAFT AXIS VECTOR (IN BODY COORDINATES)
001001:                                                                                                  #  PREPARED FOR VECPOINT.
001002:
001003:                                                                                                  #  6. GIMBAL ANGLES FROM VECPOINT TRANSFORMED INTO FDAI BALL ANGLES BY
001004:                                                                                                  #  BALLANGS.  FLASH DISPLAY V 06 N 18 AND AWAIT RESPONSE.
001005:
001006:                                                                                                  #  7.    RECYCLE - RETURN TO STEP 4.
001007:                                                                                                  #        TERMINATE - EXIT R63.
001008:                                                                                                  #        PROCEED - RESET 3AXISFLG AND CALL R60LEM FOR ATTITUDE MANEUVER.
001009:
001010: 43,2764           02123        V89PERF            TC       CHKPOOH
001011: 43,2765           02076                           TC       TESTXACT
001012: 43,2766           34737                           CAF      PRIO10
001013: 43,2767           05105                           TC       FINDVAC
001014: 43,2770  E4,1606                                  EBANK=   RONE
001015: 43,2770           02022 54104                     2CADR    V89CALL
001016:
001017: 43,2772           05155                           TC       ENDOFJOB
001018:
001019:                                                                                                  #  V90PERF       VERB 90         DESCRIPTION
001020:                                                                                                  #        REQUEST RENDEZVOUS OUT-OF-PLANE DISPLAY (R36)
001021:
001022:                                                                                                  #        1.      SET EXT VERB DISPLAY BUSY FLAG.
001023:                                                                                                  #        2.      SCHEDULE R36 CALL WITH PRIORITY 10
001024:                                                                                                  #                A.      DISPLAY
001025:                                                                                                  #                        TIME OF EVENT - HOURS, MINUTES, SECONDS
001026:                                                                                                  #                        Y       OUT-OF-PLANE POSITION - NAUTICAL MILES
001027:                                                                                                  #                        YDOT    OUT-OF-PLANE VELOCITY - FEET/SECOND
001028:                                                                                                  #                        PSI     ANGLE BTW LINE OF SIGHT AND FORWARD
001029:                                                                                                  #                                DIRECTION VECTOR IN HORIZONTAL PLANE - DEGREES
001030:
001031: 43,2773           02076        V90PERF            TC       TESTXACT
001032: 43,2774           35021                           CAF      PRIO7                                 #  R36,V90
001033: 43,2775           05105                           TC       FINDVAC
001034: 43,2776  E4,1606                                  EBANK=   RPASS36
001035: 43,2776           02656 10104                     2CADR    R36
001036:
001037: 43,3000           15155                           TCF      ENDOFJOB
001038:
001039:                                                                                                  #  MINIMP        VERB 76         DESCRIPTION
001040:                                                                                                  #        MINIMUM IMPULSE MODE
001041:
001042:                                                                                                  #        1.      SET MINIMUM IMPULSE RHC MODE FLAG TO 1.
001043:
001044: 43,3001           00004        MINIMP             INHINT
001045: 43,3002           40111                           CS       DAPBOOLS
001046: 43,3003           74735                           MASK     PULSES                                #  PULSES = 1 INDICATES MIN IMP MODE
001047: 43,3004           26111                           ADS      DAPBOOLS
001048: 43,3005           12121                           TCF      GOPIN                                 #  RETURN VIA PINBRNCH
001049:
001050:                                                                                                  #  NOMINIMP      VERB 77         DESCRIPTION
001051:                                                                                                  #        RATE COMMAND MODE
001052:


001054:
001055:
001056:                                                                                                  #        1.      SET MINIMUM IMPULSE RHO MODE FLAG TO 0.  (ZERO INDICATES NOT MINIMUM IMPULSE MODE.).
001057:                                                                                                  #        2.      MOVE CDUX, CDUY, CDUZ INTO CDUXD, CDUYD, CDUZD.
001058:
001059:
001060: 43,3006           00004        NOMINIMP           INHINT
001061: 43,3007           44735                           CS       PULSES
001062: 43,3010           70111                           MASK     DAPBOOLS
001063: 43,3011           54111                           TS       DAPBOOLS                              #  PULSES = 0 NOT IN MINIMUM UMPULSE MODE
001064: 43,3012           04674                           TC       IBNKCALL
001065: 43,3013           40153                           CADR     ZATTEROR
001066: 43,3014           02121                           TC       GOPIN
001067:


001069:                                                                                                  #  CREWMANU      VERB 49         DESCRIPTION
001070:                                                                                                  #        START AUTOMATIC ATTITUDE MANEUVER
001071:
001072:                                                                                                  #        1.      REQUIRE PROGRAM 00 ACTIVE.
001073:                                                                                                  #        2.      SET EXT VERB DISPLAY BUSY FLAG.
001074:                                                                                                  #        3.      SCHEDULE R62DISP WITH PRIORITY 10.
001075:                                                                                                  #        4.      RELEASE EXT VERB DISPLAY.
001076:
001077:                                                                                                  #        R62DISP
001078:                                                                                                  #        1.      DISPLAY FLASHING V06,N22.
001079:                                                                                                  #                RESPONSES
001080:                                                                                                  #                A.      TERMINATE
001081:                                                                                                  #                        1. GO TO GOTOPOOH.
001082:                                                                                                  #                B.      PROCEED
001083:                                                                                                  #                        1.      SET 3AXISFLG TO INDICATE MANEUVER IS SPECIFIED BY 3 AXIS.
001084:                                                                                                  #                        2.      EXECUTE R60LEM (ATTITUDE MANEUVER).
001085:                                                                                                  #                C.      ENTER
001086:                                                                                                  #                        1.      REPEAT FLASHING V06,N22.
001087:
001088: 43,3015           02123        CREWMANU           TC       CHKPOOH                               #  DEMAND POO
001089:
001090: 43,3016           02076                           TC       TESTXACT
001091:
001092: 43,3017           34737                           CAF      PRIO10
001093: 43,3020           05105                           TC       FINDVAC
001094: 43,3021  E6,1676                                  EBANK=   BCDU
001095: 43,3021           02103 46106                     2CADR    R62DISP
001096:
001097: 43,3023           05155                           TC       ENDOFJOB
001098:


001100:                                                                                                  #  TRMTRACK      VERB 56         DESCRIPTION
001101:                                                                                                  #        TERMINATE TRACKING (P20 AND P25).
001102:
001103:                                                                                                  #        1.      KNOCK DOWN RENDEZVOUS, TRACK, AND UPDATE FLAGS.
001104:                                                                                                  #        2.      REQUIRE P20 OR P25 NOT RUNNING ALONE OR GO TO GOTOPOOH (REQUEST PROGRAM 00).
001105:                                                                                                  #        3.      SCHEDULE V56TOVAC WITH PRIORITY 30.
001106:
001107:                                                                                                  #        V56TOVAC
001108:                                                                                                  #        1.      EXECUTE INTSTALL (IF INTEGRATION IS RUNNING, STALL UNTIL IT IS FINISHED.).
001109:                                                                                                  #        2.      ZERO GROUP 2 TO HALT P20.
001110:                                                                                                  #        3.      TRANSFER CONTROL TO GOPROG2 (SOFTWARE RESTART).
001111:
001112: 43,3024           33044        TRMTRACK           CA       BITS9+7                               #  IS REND OR P25 FLAG ON
001113: 43,3025           70074                           MASK     FLAGWRD0
001114: 43,3026           00006                           EXTEND
001115: 43,3027           12121                           BZF      GOPIN                                 #  NO
001116:
001117: 43,3030           05516                           TC       DOWNFLAG
001118: 43,3031           00010                           ADRES    RNDVZFLG
001119:
001120: 43,3032           05516                           TC       DOWNFLAG
001121: 43,3033           00006                           ADRES    P25FLAG
001122:
001123: 43,3034           05516                           TC       DOWNFLAG                              #  ENSURE SEARCH FLAG IS OFF
001124: 43,3035           00037                           ADRES    SRCHOPTN
001125:
001126: 43,3036           34747                           CA       TRACKBIT                              #  IS TRACK FLAG ON?
001127: 43,3037           70075                           MASK     FLAGWRD1
001128: 43,3040           00006                           EXTEND
001129: 43,3041           12121                           BZF      GOPIN
001130:
001131: 43,3042           04635                           TC       POSTJUMP
001132: 43,3043           64054                           CADR     TRMTRAK1
001133:
001134: 43,3044           00500        BITS9+7            OCT      500
001135:
001136: 42,2000                                           SETLOC   SBAND                                 #  BANK 42
001137: 42,2000                                           BANK
001138:
001139: 42,2054                                           COUNT*   $$/EXTVB
001140:
001141: 42,2054           05516        TRMTRAK1           TC       DOWNFLAG
001142: 42,2055           00027                           ADRES    UPDATFLG                              #  UPDATE FLAG DOWN
001143: 42,2056           05516                           TC       DOWNFLAG
001144: 42,2057           00031                           ADRES    TRACKFLG                              #  TRACK FLAG DOWN
001145: 42,2060           05516                           TC       DOWNFLAG
001146: 42,2061           00007                           ADRES    IMUSE
001147:
001148: 42,2062           06037                           TC       INTPRET
001149: 42,2063           77624                           CALL
001150: 42,2064           27414                                    INTSTALL                              #  DONT INTERRUPT INTEGRATION


001152: 42,2065           77776                           EXIT
001153:
001154: 42,2066           05353                           TC       PHASCHNG
001155: 42,2067           00002                           OCT      2                                     #  KILL GROUP 2 TO HALT P20 ACTIVITY
001156:
001157: 42,2070           00004                           INHINT
001158: 42,2071           04674                           TC       IBNKCALL                              #  ZERO THE COMMANDED RATES TO STOP
001159: 42,2072           40165                           CADR     STOPRATE                              #  MANEUVER
001160:
001161: 42,2073           04674                           TC       IBNKCALL
001162: 42,2074           40123                           CADR     RESTORDB
001163:
001164: 42,2075           06011                           TC       CLRADMOD                              #  CLEAR BITS 10 + 15 OF RADMODES.
001165:
001166: 42,2076           44736                           CS       BIT14                                 #  DISABLE LOCKON
001167: 42,2077           00006                           EXTEND
001168: 42,2100           03012                           WAND     CHAN12
001169: 42,2101           04635                           TC       POSTJUMP
001170: 42,2102           12770                           CADR     GOPROG2                               #  CAUSE RESTART.
001171:
001172:                                                                                                  #  DNEDUMP       VERB 74         DESCRIPTION
001173:                                                                                                  #        INITIALIZE DOWN-TELEMETRY PROGRAM FOR ERASABLE MEMORY DUMP.
001174:
001175:                                                                                                  #        1.      SET EXT VERB DISPLAY BUSY FLAG.
001176:                                                                                                  #        2.      REPLACE CURRENT DOWNLIST WITH ERASABLE MEMORY.
001177:                                                                                                  #        3.      RELEASE EXT VERB DISPLAY.
001178:
001179: 43,2000                                           SETLOC   EXTVERBS
001180: 43,2000                                           BANK
001181:
001182: 43,3045                                           COUNT*   $$/EXTVB
001183:
001184: 43,3045     0400                                  EBANK=   400
001185: 43,3045           33050        DNEDUMP            CAF      LDNDUMPI
001186: 43,3046           54335                           TS       DNTMGOTO
001187: 43,3047           02121                           TC       GOPIN
001188:
001189: 43,3050  43,3045               V74                EQUALS   DNEDUMP
001190: 43,3050           03707        LDNDUMPI           REMADR   DNDUMPI
001191:
001192:                                                                                                  #  LEMVEC        VERB 80         DESCRIPTION
001193:                                                                                                  #        UPDATE LEM STATE VECTOR
001194:                                                                                                  #                RESET VEHUPFLG TC 0
001195:
001196: 43,3051           05516        LEMVEC             TC       DOWNFLAG
001197: 43,3052           00026                           ADRES    VEHUPFLG                              #  VB 80 - VEHUPFLG DOWN INDICATES LEM
001198:
001199: 43,3053           03056                           TC       NOUPDOWN
001200:
001201:                                                                                                  #  CSMVEC        VERB 81         DESCRIPTION
001202:                                                                                                  #        UPDATE CSM STATE VECTOR


001204:                                                                                                  #                SET VEHUPFLG TO 1
001205:
001206: 43,3054           05504        CSMVEC             TC       UPFLAG
001207: 43,3055           00026                           ADRES    VEHUPFLG                              #  VB 81 - VEHUPFLG UP INDICATES CSM
001208:
001209: 43,3056           05516        NOUPDOWN           TC       DOWNFLAG
001210: 43,3057           00030                           ADRES    NOUPFLAG
001211:
001212: 43,3060           12121                           TCF      GOPIN
001213:
001214:                                                                                                  #  UPDATOFF      VERB 95         DESCRIPTION
001215:                                                                                                  #        INHIBIT STATE VECTOR UPDATES BY INCORP
001216:                                                                                                  #                SET NOUPFLAG TO 1
001217:
001218: 43,3061           05504        UPDATOFF           TC       UPFLAG                                #  VB 95 SET NOUPFLAG
001219: 43,3062           00030                           ADRES    NOUPFLAG
001220:
001221: 43,3063           02121                           TC       GOPIN


001223:                                                                                                  #  SYSTEST       VERB 92         DESCRIPTION
001224:                                                                                                  #        OPERATE IMU PERFORMANCE TEST.
001225:
001226:                                                                                                  #        1.      REQUIRE PROGRAM 00 OR TURN ON OPERATOR ERROR.
001227:                                                                                                  #        2.      SET EXT VERB BUSY FLAG.
001228:
001229: 43,3064  E5,1417                                  EBANK=   QPLACE
001230:
001231: 43,3064           02123        SYSTEST            TC       CHKPOOH                               #  DEMAND POO
001232:
001233: 43,3065           02076                           TC       TESTXACT
001234:
001235: 43,3066           37710                           CAF      PRIO22
001236: 43,3067           05105                           TC       FINDVAC
001237: 43,3070  E5,1417                                  EBANK=   QPLACE
001238: 43,3070  37,2000                                  SBANK=   IMUSUPER
001239: 43,3070           02002 76065                     2CADR    REDO
001240:
001241: 43,3072           05155                           TC       ENDOFJOB
001242:
001243:                                                                                                  #  VERB 93       CLEAR RENDWFLG, CAUSES W-MATRIX TO BE RE-INITIALIZED.
001244:
001245: 43,3073           00004        WMATRXNG           INHINT
001246: 43,3074           44753                           CS       RENDWBIT
001247: 43,3075           70101                           MASK     FLAGWRD5
001248: 43,3076           54101                           TS       FLAGWRD5
001249:
001250: 43,3077           02121                           TC       GOPIN
001251:
001252: 43,3100  43,3100               GOSHOSUM           EQUALS   SHOWSUM
001253:
001254: 43,3100           02123        SHOWSUM            TC       CHKPOOH                               #  *
001255: 43,3101           02076                           TC       TESTXACT                              #  *
001256: 43,3102           35021                           CAF      PRIO7                                 #  ALLOW OTHER CHARINS.
001257: 43,3103           05146                           TC       PRIOCHNG
001258: 43,3104           34753                           CAF      S+1                                   #  *
001259: 43,3105           55376                           TS       SKEEP6                                #  * SHOWSUM OPTION
001260: 43,3106           34755                           CAF      S+ZERO                                #  *
001261: 43,3107           55362                           TS       SMODE                                 #  * TURN OFF SELF-CHECK
001262: 43,3110           33245                           CA       SELFADRS                              #  *
001263: 43,3111           55361                           TS       SELFRET                               #  *
001264: 43,3112           03522                           TC       STSHOSUM                              #  * ENTER ROPECHK
001265:
001266: 43,3113           23372        SDISPLAY           LXCH     SKEEP2                                #  * BANK # FOR DISPLAY
001267: 43,3114           23373                           LXCH     SKEEP3                                #  * BUGGER WORD FOR DISPLAY
001268: 43,3115           33244        NOKILL             CA       ADRS1                                 #  *
001269: 43,3116           54156                           TS       MPAC       +2                         #  *
001270: 43,3117           33130                           CA       VNCON                                 #  * 0501
001271: 43,3120           04616                           TC       BANKCALL                              #  *
001272: 43,3121           20334                           CADR     GOXDSPF                               #  *
001273: 43,3122           03125                           TC       +3                                    #  *
001274: 43,3123           03633                           TC       NXTBNK                                #  *


001276: 43,3124           03115                           TC       NOKILL                                #  *
001277: 43,3125           33245                           CA       SELFADRS
001278: 43,3126           55371                           TS       SKEEP1
001279:
001280: 43,3127           05472                           TC       ENDEXT                                #  *
001281: 43,3130           01201        VNCON              VN       501                                   #  *
001282: 43,3131           31376        ENDSUMS            CA       SKEEP6                                #  *
001283: 43,3132           00006                           EXTEND                                         #  *
001284: 43,3133           13336                           BZF      SELFCHK                               #  * ROPECHK, START SELFCHK AGAIN.
001285: 43,3134           03522                           TC       STSHOSUM                              #  * START SHOWSUM AGAIN.
001286:


001288:                                                                                                  #  DAPDISP       VERB 48         DESCRIPTION
001289:                                                                                                  #        LOAD AUTO PILOT DATA
001290:
001291:                                                                                                  #        1.      REQUIRE EXT VERB DISPLAY AVAILABLE AND SET BUSY FLAG.
001292:                                                                                                  #        2.      EXECUTE DAPDATA1, DAPDATA2, AND DAPDATA3.
001293:                                                                                                  #        3.      RELEASE EXT VERB DISPLAY SYSTEM.
001294:
001295: 43,3135           02076        DAPDISP            TC       TESTXACT
001296: 43,3136           35021                           CAF      PRIO7                                 #  R03
001297: 43,3137           05146                           TC       PRIOCHNG
001298: 43,3140           04635                           TC       POSTJUMP
001299: 43,3141           40004                           CADR     DAPDATA1
001300:
001301: 34,2000                                           BANK     34
001302: 20,2000                                           SETLOC   LOADDAP
001303: 20,2000                                           BANK
001304:
001305: 20,2004                                           COUNT*   $$/R03
001306:
001307: 20,2004  30,2000                                  SBANK=   LOWSUPER                              #  FOR SUBSEQUENT LOW 2CADR'S.
001308:
001309: 20,2004           32114        DAPDATA1           CAF      BOOLSMSK                              #  SET DISPLAY ACCORDING TO DAPBOOLS BITS.
001310: 20,2005           70111                           MASK     DAPBOOLS                              #  LM
001311: 20,2006           55343                           TS       DAPDATR1                              #  LM
001312: 20,2007           40106                           CS       FLGWRD10                              #  SET BIT 14 TO BE COMPLEMENT OF APSFLAG.
001313: 20,2010           74737                           MASK     APSFLBIT
001314: 20,2011           10000                           CCS      A
001315: 20,2012           34736                           CAF      BIT14
001316: 20,2013           27343                           ADS      DAPDATR1
001317: 20,2014           31343        CHKDATA1           CAE      DAPDATR1                              #  IF BITS 13 AND 14 ARE BOTH ZERO, FORCE
001318: 20,2015           74355                           MASK     BIT13-14                              #        A ONE INTO BIT 13.
001319: 20,2016           00006                           EXTEND
001320: 20,2017           12034                           BZF      FORCEONE
001321: 20,2020           31343                           CAE      DAPDATR1                              #  ENSURE THAT NO ILLEGAL BITS SET BY CREW.
001322: 20,2021           72113        MSKDATR1           MASK     DSPLYMSK
001323: 20,2022           55343                           TS       DAPDATR1
001324: 20,2023           32112                           CAF      V01N46                                #  LM
001325: 20,2024           04616                           TC       BANKCALL
001326: 20,2025           20353                           CADR     GOXDSPFR
001327: 20,2026           15472                           TCF      ENDEXT                                #  V34E TERMINATE
001328: 20,2027           12037                           TCF      DPDAT1                                #  V33E PROCEED
001329: 20,2030           12014                           TCF      CHKDATA1                              #  E     NEW DATA        CHECK AND REDISPLAY
001330: 20,2031           36242                           CAF      REVCNT                                #  BITS 2 & 3:  BLANKS R2 & R3.
001331: 20,2032           05464                           TC       BLANKET
001332: 20,2033           15155                           TCF      ENDOFJOB
001333: 20,2034           34737        FORCEONE           CAF      BIT13
001334: 20,2035           27343                           ADS      DAPDATR1
001335: 20,2036           12021                           TCF      MSKDATR1
001336:
001337: 20,2037           00004        DPDAT1             INHINT                                         #  INHINT FOR SETTING OF FLAG BITS AND MASS
001338: 20,2040           44737                           CS       APSFLBIT                              #        ON BASIS OF DISPLAYED DAPDATR1.
001339: 20,2041           70106                           MASK     FLGWRD10
001340: 20,2042           54001                           TS       L                                     #  SET APSFLAG TO BE COMPLEMENT OF BIT 14.


001342: 20,2043           41343                           CS       DAPDATR1
001343: 20,2044           74736                           MASK     BIT14
001344: 20,2045           10000                           CCS      A
001345: 20,2046           34737                           CAF      APSFLBIT
001346: 20,2047           60001                           AD       L
001347: 20,2050           54106                           TS       FLGWRD10
001348: 20,2051           41343                           CS       DAPDATR1                              #  SET BITS OF DAPBOOLS ON BASIS OF DISPLAY
001349: 20,2052           74355                           MASK     BIT13-14                              #        MASK OUT CSMDOCKD (BIT 13) UNLESS BOTH
001350: 20,2053           10000                           CCS      A                                     #        13 AND 14 ARE SET.
001351: 20,2054           44737                           CS       CSMDOCKD
001352: 20,2055           62114                           AD       BOOLSMSK
001353: 20,2056           71343                           MASK     DAPDATR1
001354: 20,2057           54001                           TS       L
001355: 20,2060           42114                           CS       BOOLSMSK
001356: 20,2061           70111                           MASK     DAPBOOLS
001357: 20,2062           60001                           AD       L
001358: 20,2063           54111                           TS       DAPBOOLS
001359: 20,2064           74737                           MASK     CSMDOCKD                              #  LOAD MASS IN ACCORDANCE WITH CSMDOCKD.
001360: 20,2065           10000                           CCS      A                                     #        MASS IS USUALLY ALREADY OKAY, SO DO
001361: 20,2066           31332                           CAE      CSMMASS                               #        NOT TOUCH ITS LOW-ORDER PART.
001362: 20,2067           61331                           AD       LEMMASS
001363: 20,2070           55244                           TS       MASS
001364: 20,2071           30111                           CAE      DAPBOOLS
001365: 20,2072           74741                           MASK     ACC4OR2X                              #  2 OR 4 JET X-TRANSLATION
001366: 20,2073           00006                           EXTEND                                         #  (BIT ACC4OR2X = 1 FOR 4 JETS)
001367: 20,2074           12101                           BZF      +5
001368: 20,2075           44735                           CS       BIT15
001369: 20,2076           70075                           MASK     FLAGWRD1                              #  CLEAR NJTSFLAG TO 0 FOR 4 JETS
001370: 20,2077           54075                           TS       FLAGWRD1
001371: 20,2100           12104                           TCF      +4
001372: 20,2101           40075                           CS       FLAGWRD1                              #  SET NJTSFLAG TO 1 FOR 2 JETS
001373: 20,2102           74735                           MASK     BIT15
001374: 20,2103           26075                           ADS      FLAGWRD1
001375: 20,2104           30111                           CA       DAPBOOLS                              #  SELECT DESIRED KALCMANU AUTOMATIC
001376: 20,2105           76245                           MASK     THREE                                 #  MANEUVER RATE
001377: 20,2106           60000                           DOUBLE                                         #  RATEINDX HAS TO BE 0,2,4,6 SINCE RATES
001378: 20,2107           55325                           TS       RATEINDX                              #  ARE DP
001379: 20,2110           04635                           TC       POSTJUMP
001380: 20,2111           02206                           CADR     STIKLOAD
001381:
001382: 20,2112           00256        V01N46             VN       0146
001383: 20,2113           33113        DSPLYMSK           OCT      33113
001384: 20,2114           13113        BOOLSMSK           OCT      13113
001385:
001386: 01,2206                                           BANK     01
001387: 01,2000                                           SETLOC   LOADDAP1
001388: 01,2000                                           BANK
001389:
001390: 01,2206                                           COUNT*   $$/R03
001391:
001392: 01,2206           35015        STIKLOAD           CAF      EBANK6


001394: 01,2207           54003                           TS       EBANK
001395: 01,2210  E6,1444                                  EBANK=   STIKSENS
001396: 01,2210           34745                           CA       RHCSCALE                              #  SET STICK SENSITIVITY TO CORRESPOND TO A
001397: 01,2211           70111                           MASK     DAPBOOLS                              #  MAXIMUM COMMANDED RATE (AT 42 COUNTS) OF
001398: 01,2212           10000                           CCS      A                                     #  20 D/S (NORMAL) OR 4 D/S (FINE), SCALED
001399: 01,2213           32337                           CA       NORMAL                                #  AT 45 D/S.
001400: 01,2214           62340                           AD       FINE
001401: 01,2215           55444                           TS       STIKSENS
001402: 01,2216           32342                           CA       -0.6D/S
001403: 01,2217           55476                           TS       -RATEDB                               #  LM-ONLY BREAKOUT LEVEL IS .6 D/S.
001404: 01,2220           34737                           CA       CSMDOCKD                              #  IF CSM-DOCKED, DIVIDE STICK SENSITIVITY
001405: 01,2221           70111                           MASK     DAPBOOLS                              #  BY 10.  NORMAL SCALING IS THEN 2 D/S AND
001406: 01,2222           00006                           EXTEND                                         #  FINE SCALING IS 0.4 D/S
001407: 01,2223           12232                           BZF      +7                                    #  BRANCH IF CSM IS NOT DOCKED.
001408: 01,2224           31444                           CA       STIKSENS
001409: 01,2225           00006                           EXTEND
001410: 01,2226           72341                           MP       1/10
001411: 01,2227           55444                           TS       STIKSENS
001412: 01,2230           32343                           CA       -0.3D/S                               #  CSM-DOCKED BREAKOUT LEVEL IS .3 D/S.
001413: 01,2231           55476                           TS       -RATEDB
001414: 01,2232           00003                           RELINT                                         #  PROCEED TO NOUN 47, MASS LOAD.
001415:
001416: 01,2233           32334        DAPDATA2           CAF      V0647
001417: 01,2234           04616                           TC       BANKCALL
001418: 01,2235           20353                           CADR     GOXDSPFR
001419: 01,2236           12244                           TCF      ENDR03                                #  V34E  TERMINATE. FIRST SET DB.  DO 1/ACCS
001420: 01,2237           12250                           TCF      DAPDAT2                               #  V33E  PROCEED
001421: 01,2240           12233                           TCF      DAPDATA2                              #        LOAD NEW DATA AND RECYCLE
001422: 01,2241           34751                           CAF      BIT3                                  #  BLANKS R3
001423: 01,2242           05464                           TC       BLANKET                               #                LM
001424: 01,2243           15155                           TCF      ENDOFJOB
001425: 01,2244           00004        ENDR03             INHINT
001426: 01,2245           04674                           TC       IBNKCALL
001427: 01,2246           40123                           CADR     RESTORDB
001428: 01,2247           15472                           TCF      ENDEXT                                #  DOES RELINT
001429:
001430: 01,2250           40106        DAPDAT2            CS       FLGWRD10                              #  DETERMINE STAGE FROM APSFLAG
001431: 01,2251           74737                           MASK     APSFLBIT
001432: 01,2252           10000                           CCS      A
001433: 01,2253           32000                           CA       MINLMD
001434: 01,2254           62001                           AD       MINMINLM
001435: 01,2255           61331                           AD       LEMMASS                               #  LEMMASS MUST BE GREATER THAN EMPTY LEM
001436: 01,2256           00006                           EXTEND
001437: 01,2257           62233                           BZMF     DAPDATA2                              #  ASK FOR NEW MASSES
001438: 01,2260           30111                           CAE      DAPBOOLS
001439: 01,2261           74737                           MASK     CSMDOCKD
001440: 01,2262           00006                           EXTEND
001441: 01,2263           12271                           BZF      LEMALONE                              #  SKIP TEST ON CSMMASS IF NOT DOCKED.
001442: 01,2264           44741                           CS       MINCSM                                #  TEST CSM MASS
001443: 01,2265           61332                           AD       CSMMASS                               #  CSMMASS MUST BE GREATER THAN EMPTY CSM


001445: 01,2266           00006                           EXTEND
001446: 01,2267           62233                           BZMF     DAPDATA2                              #  ASK FOR NEW MASSES
001447: 01,2270           31332                           CAE      CSMMASS                               #  DOCKED:  MASS = CSMMASS + LEMMASS
001448: 01,2271           61331        LEMALONE           AD       LEMMASS                               #  LEM ALONE:  MASS = LEMMASS
001449: 01,2272           22007                           ZL
001450: 01,2273           53245                           DXCH     MASS
001451: 01,2274           00004                           INHINT
001452: 01,2275           04674                           TC       IBNKCALL                              #  SET DEADBANK AND COMPUTE MOMENTS OF
001453: 01,2276           40123                           CADR     RESTORDB                              #        INERTIA.
001454: 01,2277           00003                           RELINT                                         #  PROCEED TO NOUN 48 (OR END).
001455:
001456: 01,2300           40106        DAPDATA3           CS       FLGWRD10
001457: 01,2301           74737                           MASK     APSFLBIT
001458: 01,2302           00006                           EXTEND                                         #  END ROUTINE IF LEM HAS STAGED.
001459: 01,2303           15472                           BZF      ENDEXT
001460: 01,2304           32335                           CAF      V06N48                                #  DISPLAY TRIM ANGLES AND REQUEST RESPONSE
001461: 01,2305           04616                           TC       BANKCALL
001462: 01,2306           20353                           CADR     GOXDSPFR
001463: 01,2307           05472                           TC       ENDEXT
001464: 01,2310           12315                           TCF      DPDAT3                                #  V33E GO DO TRIM (WAITLIST TO TRIMGIMB)
001465: 01,2311           12304                           TCF      -5                                    #  LOAD NEW DATA AND RECYCLE
001466: 01,2312           34751                           CAF      BIT3
001467: 01,2313           05464                           TC       BLANKET                               #  BLANK R3
001468: 01,2314           15155                           TCF      ENDOFJOB
001469: 01,2315           34753        DPDAT3             CAF      BIT1                                  #  GO TO TRIMGIMB VIA WAITLIST SO IT
001470: 01,2316           00004                           INHINT                                         #  CAN USE FIXDELAY AND VARDELAY
001471: 01,2317           05203                           TC       WAITLIST
001472: 01,2320  E6,1401                                  EBANK=   ROLLTIME
001473: 01,2320           03217 56066                     2CADR    TRIMGIMB
001474:
001475: 01,2322           15155                           TCF      ENDOFJOB                              #  DOES A RELINT
001476: 01,2323           32336        TRIMDONE           CAF      V50N48
001477: 01,2324           04616                           TC       BANKCALL                              #  TRIM IS FINISHED; PLEASE TERMINATE R03
001478: 01,2325           20361                           CADR     GOMARK3R
001479: 01,2326           05472                           TC       ENDEXT                                #  V34E TERMINATE
001480: 01,2327           05472                           TC       ENDEXT
001481: 01,2330           05472                           TC       ENDEXT
001482: 01,2331           36007                           CAF      OCT24                                 #  BIT5 TO CHANGE TO PERFORM, 3 TO BLANK R3
001483: 01,2332           05464                           TC       BLANKET
001484: 01,2333           15155                           TCF      ENDOFJOB
001485:
001486: 01,2334           01457        V0647              VN       0647
001487: 01,2335           01460        V06N48             VN       0648
001488:
001489: 01,2336           14460        V50N48             VN       5048
001490: 01,2337           25101        NORMAL             DEC      .660214
001491:                                                                                                  #  NORMAL SCALING IS 20 D/S
001492: 01,2340           05220        FINE               DEC      .165054                               #  FINE STICK SCALING (4 D/S).
001493: 01,2341           03146        1/10               DEC      .1                                    #  FACTOR FOR CSM-DOCKED SCALING
001494: 01,2342           77445        -0.6D/S            DEC      -218       B-14
001495:


001497:
001498: 01,2343           77622        -0.3D/S            DEC      -109       B-14
001499:


001501:                                                                                                  #  VERB 66.      VEHICLES ARE ATTACHED. MOVE THIS VEHICLE STATE VECTOR TO
001502:                                                                                                  #                OTHER VEHICLE STATE VECTOR.
001503:
001504:                                                                                                  #  USE SUBROUTINE GENTRAN.
001505:
001506: 07,2667                                           BANK     7
001507: 43,2000                                           SETLOC   EXTVERBS
001508: 43,2000                                           BANK
001509:
001510: 43,3142                                           COUNT*   $$/EXTVB
001511:
001512: 43,3142  E3,1626                                  EBANK=   RRECTHIS
001513:
001514: 43,3142           34737        ATTACHED           CAF      PRIO10
001515: 43,3143           05105                           TC       FINDVAC
001516: 43,3144  E3,1626                                  EBANK=   RRECTHIS
001517:
001518: 43,3144           03147 66103                     2CADR    ATTACHIT
001519:
001520: 43,3146           05155                           TC       ENDOFJOB
001521:
001522: 43,3147           06037        ATTACHIT           TC       INTPRET
001523: 43,3150           77624                           CALL
001524: 43,3151           27414                                    INTSTALL
001525: 43,3152           43014                           SET      BON
001526: 43,3153           04063                                    MOONOTH
001527: 43,3154           04304                                    MOONTHIS
001528: 43,3155           67160                                    +3
001529: 43,3156           77614                           CLEAR
001530: 43,3157           04263                                    MOONOTH
001531: 43,3160           77776                           EXIT
001532: 43,3161           33204                           CAF      OCT51
001533: 43,3162           05544                           TC       GENTRAN
001534: 43,3163           01626                           ADRES    RRECTHIS                              #  OUR STATE VECTOR INTO OTHER VIA GENTRAN
001535: 43,3164           01554                           ADRES    RRECTOTH
001536:
001537: 43,3165           00003                           RELINT
001538: 43,3166           06037                           TC       INTPRET
001539: 43,3167           77624                           CALL                                           #  UPDATE R-OTHER, V-OTHER
001540: 43,3170           26760                                    PTOALEM
001541: 43,3171           45154                           LXA,2    CALL
001542: 43,3172           02030                                    PBODY
001543: 43,3173           26114                                    SVDWN1
001544: 43,3174           77776                           EXIT
001545:
001546: 43,3175           33205                           CAF      TCPINAD
001547: 43,3176           50120                           INDEX    FIXLOC
001548: 43,3177           54052                           TS       QPRET
001549: 43,3200           04635                           TC       POSTJUMP
001550: 43,3201           27425                           CADR     INTWAKE                               #  FREE INTEGRATION AND EXIT.
001551:


001553:
001554: 43,3202           77634        TCPIN              RTB
001555: 43,3203           21050                                    PINBRNCH
001556:
001557: 43,3204           00051        OCT51              OCT      51
001558: 43,3205           67202        TCPINAD            CADR     TCPIN
001559:
001560:                                                                                                  #  VERB 96       SET QUITFLAG TO STOP INTEGRATION.
001561:
001562:                                                                                                  #        GO TO V37 WITH ZERO TO CAUSE POO.
001563:                                                                                                  #                STATEINT WILL CHECK QUITFLAG AND SKIP 1ST PASS,
001564:                                                                                                  #                        THUS ALLOWING A 10 MINUTE PERIOD WITHOUT INTEGRATION.
001565:
001566: 43,3206           05504        VERB96             TC       UPFLAG                                #  QUITFLAG WILL CAUSE INTEGRATION TO EXIT
001567: 43,3207           00221                           ADRES    QUITFLAG                              #        AT NEXT TIMESTEP
001568:
001569: 43,3210           34755                           CAF      ZERO
001570: 43,3211           04635                           TC       POSTJUMP
001571: 43,3212           10040                           CADR     V37                                   #  GO TO POO
001572:
001573:                                                                                                  #  VERB 67:      DISPLAY OF W MATRIX
001574:
001575: 43,3213           02076        V67                TC       TESTXACT
001576: 43,3214           35017                           CAF      PRIO5
001577: 43,3215           05105                           TC       FINDVAC
001578: 43,3216  E4,1600                                  EBANK=   WWPOS
001579: 43,3216           02007 62064                     2CADR    V67CALL
001580:
001581: 43,3220           05155                           TC       ENDOFJOB
001582:
001583:                                                                                                  #  VERB 65       DISABLE U,V JETS DURING DPS BURNS
001584:
001585: 43,3221           05504        SNUFFOUT           TC       UPFLAG
001586: 43,3222           00115                           ADRES    SNUFFER
001587: 43,3223           02121                           TC       GOPIN
001588:
001589:                                                                                                  #  VERB 75       ENABLE U,V JETS DURING DPS BURNS
001590:
001591: 43,3224           05516        OUTSNUFF           TC       DOWNFLAG
001592: 43,3225           00115                           ADRES    SNUFFER
001593: 43,3226           02121                           TC       GOPIN
001594:
001595:                                                                                                  #  VERB 85       DISPLAY RR LOS AZIMUTH AND ELEVATION.
001596:
001597:                                                                                                  #           AZIMUTH IS THE ANGLE BETWEEN THE LOS AND THE X-Z NB PLANE, 0-90 DEG IN THE +Y HEMISPHERE,
001598:                                                                                                  #  360-270 DEG IN THE -Y HEMISPHERE.
001599:                                                                                                  #
001600:                                                                                                  #           ELEVATION IS THE ANGLE BETWEEN +ZNB AND THE PROJECTION OF THE LOS INTO THE X-Z PLANE, 0-360 ABOUT +Y.
001601:
001602: 43,3227  E4,1600                                  EBANK=   RR-AZ
001603: 43,3227           02076        VERB85             TC       TESTXACT
001604:


001606:
001607: 43,3230           04635                           TC       POSTJUMP
001608: 43,3231           60000                           CADR     DSPRRLOS
001609:
001610: 40,2000                                           SETLOC   PINBALL1
001611: 40,2000                                           BANK
001612:
001613: 40,2000                                           COUNT*   $$/EXTVB
001614:
001615: 40,2000           35017        DSPRRLOS           CAF      PRIO5
001616: 40,2001           05105                           TC       FINDVAC
001617: 40,2002  E4,1600                                  EBANK=   RR-AZ
001618: 40,2002           02017 60104                     2CADR    RRLOSDSP
001619:
001620: 40,2004           34740                           CAF      PRIO4
001621: 40,2005           05146                           TC       PRIOCHNG
001622: 40,2006           32076                           CAF      V16N56
001623: 40,2007           04616                           TC       BANKCALL
001624: 40,2010           20353                           CADR     GOMARKFR
001625: 40,2011           05563                           TC       B5OFF
001626: 40,2012           05563                           TC       B5OFF
001627: 40,2013           05563                           TC       B5OFF
001628:
001629: 40,2014           34751                           CAF      BIT3
001630: 40,2015           05464                           TC       BLANKET
001631: 40,2016           05155                           TC       ENDOFJOB
001632:
001633: 40,2017           00006        RRLOSDSP           EXTEND
001634: 40,2020           30036                           DCA      CDUT
001635: 40,2021           52155                           DXCH     MPAC
001636: 40,2022           06037                           TC       INTPRET
001637: 40,2023           77624                           CALL
001638: 40,2024           46065                                    RRNBMPAC                              #  GET RR LOS IN BODY AXIS.
001639: 40,2025           00001                           STORE    0D                                    #  UNIT LOS
001640: 40,2026           14007                           STODL    6D
001641: 40,2027           06522                                    HI6ZEROS
001642: 40,2030           24011                           STOVL    8D
001643: 40,2031           00007                                    6D
001644: 40,2032           77656                           UNIT
001645: 40,2033           00007                           STORE    6D                                    #  UNIT OF LOS PROJ IN X-Z PLANE
001646: 40,2034           77641                           DOT
001647: 40,2035           06514                                    UNITZ
001648: 40,2036           24021                           STOVL    COSTH                                 #  16D
001649: 40,2037           06520                                    UNITX
001650: 40,2040           77641                           DOT
001651: 40,2041           00007                                    6D
001652: 40,2042           34023                           STCALL   SINTH                                 #  18D
001653: 40,2043           47320                                    ARCTRIG
001654: 40,2044           43244                           BPL      DAD                                   #  INSURE DISPLAY OF 0-360 DEG.
001655: 40,2045           60047                                    +2
001656: 40,2046           06530                                    DPPOSMAX                              #  INTRODUCES AN ERROR OF B-28 REVS.
001657:


001659:
001660: 40,2047           26203                           STOVL    RR-ELEV
001661: 40,2050           00001                                    0D
001662: 40,2051           77641                           DOT
001663: 40,2052           06516                                    UNITY
001664: 40,2053           24023                           STOVL    SINTH
001665: 40,2054           00001                                    0D
001666: 40,2055           77641                           DOT
001667: 40,2056           00007                                    6D
001668: 40,2057           34021                           STCALL   COSTH
001669: 40,2060           47320                                    ARCTRIG
001670: 40,2061           43244                           BPL      DAD                                   #  INSURE DISPLAY OF 0-360 DEG.
001671: 40,2062           60064                                    +2
001672: 40,2063           06530                                    DPPOSMAX                              #  INTRODUCES AN ERROR OF B-28 REVS.
001673: 40,2064           02201                           STORE    RR-AZ
001674: 40,2065           77776                           EXIT
001675: 40,2066           34777                           CA       1SEC
001676: 40,2067           04616                           TC       BANKCALL
001677: 40,2070           01735                           CADR     DELAYJOB
001678:
001679: 40,2071           34747                           CA       BIT5
001680: 40,2072           71044                           MASK     EXTVBACT
001681: 40,2073           10000                           CCS      A
001682: 40,2074           02017                           TC       RRLOSDSP
001683: 40,2075           05472                           TC       ENDEXT
001684:
001685: 40,2076           04070        V16N56             VN       1656
001686:

End of include-file EXTENDED_VERBS.agc.  Parent file is MAIN.agc


