
Source Code


000002:                                                                                                  ## Copyright:   Public domain.
000003:                                                                                                  ## Filename:    FLAGWORD_ASSIGNMENTS.agc
000004:                                                                                                  ## Purpose:     Part of the source code for Luminary 1A build 099.
000005:                                                                                                  ##              It is part of the source code for the Lunar Module's (LM)
000006:                                                                                                  ##              Apollo Guidance Computer (AGC), for Apollo 11.
000007:                                                                                                  ## Assembler:   yaYUL
000008:                                                                                                  ## Contact:     Onno Hommes <ohommes@cmu.edu>.
000009:                                                                                                  ## Website:     www.ibiblio.org/apollo.
000010:                                                                                                  ## Pages:       0061-0089
000011:                                                                                                  ## Mod history: 2009-05-15 OH   Transcribed from page images.
000012:                                                                                                  ##              2009-05-17 RSB  Extended to (blank) p. 89.
000013:                                                                                                  ##              2010-12-31 JL   Fixed page number comment.
000014:                                                                                                  ##
000015:                                                                                                  ## This source code has been transcribed or otherwise adapted from
000016:                                                                                                  ## digitized images of a hardcopy from the MIT Museum.  The digitization
000017:                                                                                                  ## was performed by Paul Fjeld, and arranged for by Deborah Douglas of
000018:                                                                                                  ## the Museum.  Many thanks to both.  The images (with suitable reduction
000019:                                                                                                  ## in storage size and consequent reduction in image quality as well) are
000020:                                                                                                  ## available online at www.ibiblio.org/apollo.  If for some reason you
000021:                                                                                                  ## find that the images are illegible, contact me at info@sandroid.org
000022:                                                                                                  ## about getting access to the (much) higher-quality images which Paul
000023:                                                                                                  ## actually created.
000024:                                                                                                  ##
000025:                                                                                                  ## Notations on the hardcopy document read, in part:
000026:                                                                                                  ##
000027:                                                                                                  ##      Assemble revision 001 of AGC program LMY99 by NASA 2021112-61
000028:                                                                                                  ##      16:27 JULY 14, 1969
000029:
000030:


000032:                                                                                                  #  FLAGWORDS 0-11        ARE DOWNLINKED AND CAN BE SET AND CLEARED BY UP-FLAG AND DOWN-FLAG INSTRUCTIONS IN THE
000033:                                                                                                  #                        INTERPRETER.  THESE WERE PREVIOUSLY LISTED UNDER "INTERPRETIVE SWITCH BIT ASSIGNMENTS" IN
000034:                                                                                                  #                        THE ERASABLE LOG SECTION.  FLAGWORDS 12 & 13 WERE PREVIOUSLY RADMODES AND DAPBOOLS AND
000035:                                                                                                  #                        ARE STILL DOWNLINKED UNDER THOSE NAMES.
000036:
000037:                                                                                                  #                ALPHABETICAL LIST OF FLAGWORDS
000038:
000039:
000040:                                                                                                  #  FLAGWORD      DEC. NUMBER     BIT AND FLAG            BIT NAME
000041:
000042:                                                                                                  #  ACCOKFLG      207             BIT  3 FLAG 13          ACCSOKAY
000043:                                                                                                  #  ACC4-2FL      199             BIT 11 FLAG 13          ACC4OR2X
000044:                                                                                                  #  ACMODFLG      032             BIT 13 FLAG  2          ACMODBIT
000045:                                                                                                  #  ALTSCALE      186             BIT  9 FLAG 12          ALTSCBIT
000046:                                                                                                  #  ANTENFLG      183             BIT 12 FLAG 12          ANTENBIT
000047:                                                                                                  #  AORBSFLG      205             BIT  5 FLAG 13          AORBSYST
000048:                                                                                                  #  AORBTFLG      200             BIT 10 FLAG 13          AORBTRAN
000049:                                                                                                  #  APSESW        130             BIT  5 FLAG  8          APSESBIT
000050:                                                                                                  #  APSFLAG       152             BIT 13 FLAG 10          APSFLBIT
000051:                                                                                                  #  ASTNFLAG      108             BIT 12 FLAG  7          ASTNBIT
000052:                                                                                                  #  ATTFLAG       104             BIT  1 FLAG  6          ATTFLBIT
000053:                                                                                                  #  AUTOMODE      193             BIT  2 FLAG 12          AUTOMBIT
000054:                                                                                                  #  AUTR1FLG      209             BIT  1 FLAG 13          AUTRATE1
000055:                                                                                                  #  AUTR2FLG      208             BIT  2 FLAG 13          AUTRATE2
000056:                                                                                                  #  AUXFLAG       103             BIT  2 FLAG  6          AUXFLBIT
000057:                                                                                                  #  AVEGFLAG      115             BIT  5 FLAG  7          AVEGFBIT
000058:                                                                                                  #  AVEMIDSW      149             BIT  1 FLAG  9          AVEMDBIT
000059:                                                                                                  #  AVFLAG        040             BIT  5 FLAG  2          AVFLBIT
000060:                                                                                                  #  CALCMAN2      043             BIT  2 FLAG  2          CALC2BIT
000061:                                                                                                  #  CALCMAN3      042             BIT  3 FLAG  2          CALC3BIT
000062:                                                                                                  #  CDESFLAG      180             BIT 15 FLAG 12          CDESBIT
000063:                                                                                                  #  CMOONFLG      123             BIT 12 FLAG  8          CMOONBIT
000064:                                                                                                  #  COGAFLAG      131             BIT  4 FLAG  8          COGAFBIT
000065:                                                                                                  #  CSMDKFLG      197             BIT 13 FLAG 13          CSMDOCKD
000066:                                                                                                  #  CULTFLAG      053             BIT  7 FLAG  3          CULTBIT
000067:                                                                                                  #  DAPBOOLS                      FLGWRD13
000068:                                                                                                  #  DBSELFLG      206             BIT  4 FLAG 13          DBSELECT
000069:                                                                                                  #  DESIGFLG      185             BIT 10 FLAG 12          DESIGBIT
000070:                                                                                                  #  DIDFLAG       016             BIT 14 FLAG             DIDFLBIT
000071:                                                                                                  #  DIMOFLAG      059             BIT  1 FLAG  3          DIMOBIT
000072:                                                                                                  #  DMENFLG       081             BIT  9 FLAG  5          DMENFBIT
000073:                                                                                                  #  DRIFTDFL      202             BIT  8 FLAG 13          DRIFTBIT
000074:                                                                                                  #  DRIFTFLG      030             BIT 15 FLAG  2          DRFTBIT
000075:                                                                                                  #  DSKYFLAG      075             BIT 15 FLAG  5          DSKYFBIT


000077:                                                                                                  #  D6OR9FLG      058             BIT  2 FLAG  3          D6OR9BIT
000078:                                                                                                  #  ENGONFLG      083             BIT  7 FLAG  5          ENGONBIT
000079:                                                                                                  #  ERADFLAG      017             BIT 13 FLAG  1          ERADFBIT
000080:                                                                                                  #  ETPIFLAG      038             BIT  7 FLAG  2          ETPIBIT         EQUIVALENT FLAG NAME: DPTNSW
000081:                                                                                                  #  FINALFLG      039             BIT  6 FLAG  2          FINALBIT
000082:                                                                                                  #  FLAGWRD0      (000-014)       (STATE +0)
000083:                                                                                                  #  FLAGWRD1      (015-029)       (STATE +1)
000084:                                                                                                  #  FLAGWRD2      (030-044)       (STATE +2)
000085:                                                                                                  #  FLAGWRD3      (045-059)       (STATE +3)
000086:                                                                                                  #  FLAGWRD4      (060-074)       (STATE +4)
000087:                                                                                                  #  FLAGWRD5      (075-089)       (STATE +5)
000088:                                                                                                  #  FLAGWRD6      (090-104)       (STATE +6)
000089:                                                                                                  #  FLAGWRD7      (105-119)       (STATE +7)
000090:                                                                                                  #  FLAGWRD8      (120-134)       (STATE +8D)
000091:                                                                                                  #  FLAGWRD9      (135-149)       (STATE +9D)
000092:                                                                                                  #  FLAP          142             BIT  8 FLAG  9          FLAPBIT
000093:                                                                                                  #  FLGWRD10      (150-164)       (STATE +10D)
000094:                                                                                                  #  FLGWRD11      (165-179)       (STATE +11D)
000095:                                                                                                  #  FLGWRD12      (180-194)       (STATE +12D)
000096:                                                                                                  #  FLGWRD13      (195-209)       (STATE +13D)
000097:                                                                                                  #  FLPC          138             BIT 12 FLAG  9          FLPCBIT
000098:                                                                                                  #  FLPI          139             BIT 11 FLAG  9          FLPIBIT
000099:                                                                                                  #  FLRCS         149             BIT 10 FLAG  9          FLRCSBIT
000100:                                                                                                  #  FLUNDISP      125             BIT 10 FLAG  8          FLUNDBIT
000101:                                                                                                  #  FLVR          136             BIT 14 FLAG  9          FLVRBIT
000102:                                                                                                  #  FREEFLAG      012             BIT  3 FLAG  0          FREEFBIT
000103:                                                                                                  #  FSPASFLG      005             BIT 10 FLAG  0          FSPASBIT
000104:                                                                                                  #  GLOKFAIL      046             BIT 14 FLAG  3          GLOKFBIT
000105:                                                                                                  #  GMBDRVSW      095             BIT 10 FLAG  6          GMBDRBIT
000106:                                                                                                  #  GUESSW        028             BIT  2 FLAG  1          GUESSBIT
000107:                                                                                                  #  HFLSHFLG      179             BIT  1 FLAG 11          HFLSHBIT
000108:                                                                                                  #  IDLEFLAG      113             BIT  7 FLAG  7          IDLEFBIT
000109:                                                                                                  #  IGNFLAG       107             BIT 13 FLAG  7          IGNFLBIT
000110:                                                                                                  #  IMPULSW       036             BIT  9 FLAG  2          IMPULBIT
000111:                                                                                                  #  IMUSE         007             BIT  8 FLAG  0          IMUSEBIT
000112:                                                                                                  #  INFINFLG      128             BIT  7 FLAG  8          INFINBIT
000113:                                                                                                  #  INITALGN      133             BIT  2 FLAG  8          INITABIT
000114:                                                                                                  #  INTFLAG       151             BIT 14 FLAG 10          INTFLBIT
000115:                                                                                                  #  INTYPFLG      056             BIT  4 FLAG  3          INTYPBIT
000116:                                                                                                  #  ITSWICH       105             BIT 15 FLAG  7          ITSWBIT
000117:                                                                                                  #  JSWITCH       001             BIT 14 FLAG  0          JSWCHBIT
000118:                                                                                                  #  LETABORT      141             BIT  9 FLAG  9          LETABBIT
000119:                                                                                                  #  LMOONFLG      124             BIT 11 FLAG  8          LMOONBIT
000120:                                                                                                  #  LOKONSW       010             BIT  5 FLAG  0          LOKONBIT
000121:                                                                                                  #  LOSCMFLG      033             BIT 12 FLAG  2          LOSCMBIT
000122:                                                                                                  #  LRALTFLG      190             BIT  5 FLAG 12          LRALTBIT
000123:                                                                                                  #  LRBYPASS      165             BIT 15 FLAG 11          LRBYBIT
000124:                                                                                                  #  LRINH         172             BIT  8 FLAG 11          LRINHBIT
000125:                                                                                                  #  LRPOSFLG      189             BIT  6 FLAG 12          LRPOSBIT
000126:                                                                                                  #  LRVELFLG      187             BIT  8 FLAG 12          LRVELBIT


000128:                                                                                                  #  LUNAFLAG      048             BIT 12 FLAG  3          LUNABIT
000129:                                                                                                  #  MANUFLAG      106             BIT 14 FLAG  7          MANUFBIT
000130:                                                                                                  #  MGLVFLAG      088             BIT  2 FLAG  5          MGLVFBIT
000131:                                                                                                  #  MIDAVFLG      148             BIT  2 FLAG  9          MIDAVBIT
000132:                                                                                                  #  MIDFLAG       002             BIT 13 FLAG  0          MIDFLBIT
000133:                                                                                                  #  MID1FLAG      147             BIT  3 FLAG  9          MID1BIT
000134:                                                                                                  #  MKOVFLAG      072             BIT  3 FLAG  4          MKOVBIT
000135:                                                                                                  #  MOONFLAG      003             BIT 12 FLAG  0          MOONBIT
000136:                                                                                                  #  MRKIDFLG      060             BIT 15 FLAG  4          MRKIDBIT
000137:                                                                                                  #  MRKNVFLG      066             BIT  9 FLAG  4          MRKNVBIT
000138:                                                                                                  #  MRUPTFLG      070             BIT  5 FLAG  4          MRUPTBIT
000139:                                                                                                  #  MUNFLAG       097             BIT  8 FLAG  6          MUNFLBIT
000140:                                                                                                  #  MWAITFLG      064             BIT 11 FLAG  4          MWAITBIT
000141:                                                                                                  #  NEEDLFLG      011             BIT  4 FLAG  0          NEEDLBIT
000142:                                                                                                  #  NEWIFLG       122             BIT 13 FLAG  8          NEWIBIT
000143:                                                                                                  #  NJETSFLG      015             BIT 15 FLAG             NJETSBIT
000144:                                                                                                  #  NODOFLAG      044             BIT  1 FLAG  2          NODOBIT
000145:                                                                                                  #  NOLRREAD      170             BIT 10 FLAG 11          NOLRRBIT
000146:                                                                                                  #  NORMSW        110             BIT 10 FLAG  7          NORMSBIT
000147:                                                                                                  #  NORRMON       086             BIT  4 FLAG  5          NORRMBIT
000148:                                                                                                  #  NOR29FLG      049             BIT 11 FLAG  3          NR29FBIT
000149:                                                                                                  #  NOTHROTL      078             BIT 12 FLAG  5          NOTHRBIT
000150:                                                                                                  #  NOUPFLAG      024             BIT  6 FLAG  1          NOUPFBIT
000151:                                                                                                  #  NRMNVFLG      067             BIT  8 FLAG  4          NRMNVBIT
000152:                                                                                                  #  NRMIDFLG      062             BIT 13 FLAG  4          NRMIDBIT
000153:                                                                                                  #  NRUPTFLG      071             BIT  4 FLAG  4          NRUPTBIT
000154:                                                                                                  #  NTARGFLG      102             BIT  3 FLAG  6          NTARGBIT
000155:                                                                                                  #  NWAITFLG      065             BIT 10 FLAG  4          NWAITBIT
000156:                                                                                                  #  OLDESFLG      014             BIT  1 FLAG  0          OLDESBIT
000157:                                                                                                  #  OPTNSW        038             BIT  7 FLAG  2          OPTNBIT         EQUIVALENT FLAG NAME: ETPIFLAG
000158:                                                                                                  #  ORBWFLAG      054             BIT  6 FLAG  3          ORBWFBIT
000159:                                                                                                  #  ORDERSW       129             BIT  6 FLAG  8          ORDERBIT
000160:                                                                                                  #  OURRCFLG      198             BIT 12 FLAG 13          OURRCBIT
000161:                                                                                                  #  PDSPFLAG      063             BIT 12 FLAG  4          PDSPFBIT
000162:                                                                                                  #  PFRATFLG      041             BIT  4 FLAG  2          PFRATBIT
000163:                                                                                                  #  PINBRFLG      069             BIT  6 FLAG  4          PINBRBIT
000164:                                                                                                  #  PRECIFLG      052             BIT  8 FLAG  3          PRECIBIT
000165:                                                                                                  #  PRIODFLG      061             BIT 14 FLAG  1          PRIODBIT
000166:                                                                                                  #  PRONVFLG      068             BIT  7 FLAG  4          PRONVBIT
000167:                                                                                                  #  PSTHIGAT      169             BIT 11 FLAG 11          PSTHIBIT
000168:                                                                                                  #  PULSEFLG      195             BIT 15 FLAG 13          PULSES
000169:                                                                                                  #  P21FLAG       004             BIT 11 FLAG  0          P21FLBIT
000170:                                                                                                  #  P25FLAG       006             BIT  9 FLAG  0          P25FLBIT
000171:                                                                                                  #  P39/79SW      126             BIT  9 FLAG  8          P39SWBIT
000172:                                                                                                  #  QUITFLAG      145             BIT 5 FLAG 9            QUITBIT
000173:                                                                                                  #  RADMODES                      FLGWRD12
000174:                                                                                                  #  RASFLAG                       FLGWRD10
000175:                                                                                                  #  RCDUFAIL      188             BIT  7 FLAG 12          RCDUFBIT
000176:                                                                                                  #  RCDU0FLG      182             BIT 13 FLAG 12          RCDU0BIT
000177:                                                                                                  #  READLR        174             BIT  6 FLAG 11          READLBIT


000179:                                                                                                  #  READRFLG      051             BIT  9 FLAG  3          READRBIT        EQUIVALENT FLAG NAME FOR R04FLAG
000180:                                                                                                  #  READVEL       175             BIT  5 FLAG 11          READVBIT
000181:                                                                                                  #  REDFLAG       099             BIT  6 FLAG  6          REDFLBIT
000182:                                                                                                  #  REFSMFLG      047             BIT 13 FLAG  3          REFSMBIT
000183:                                                                                                  #  REINTFLG      158             BIT  7 FLAG 10          REINTBIT
000184:                                                                                                  #  REMODFLG      181             BIT 14 FLAG 12          REMODBIT
000185:                                                                                                  #  RENDWFLG      089             BIT  1 FLAG  5          RENDWBIT
000186:                                                                                                  #  REPOSMON      184             BIT 11 FLAG 12          REPOSBIT
000187:                                                                                                  #  RHCSCFLG      203             BIT  7 FLAG 13          RHCSCALE
000188:                                                                                                  #  RNDVZFLG      008             BIT  7 FLAG  0          RNDVZBIT
000189:                                                                                                  #  RNGEDATA      176             BIT  4 FLAG 11          RNGEDBIT
000190:                                                                                                  #  RNGSCFLG      080             BIT 10 FLAG  5          RNGSCBIT
000191:                                                                                                  #  RODFLAG       018             BIT 12 FLAG  1          RODFLBIT
000192:                                                                                                  #  ROTFLAG       144             BIT  6 FLAG  9          ROTFLBIT
000193:                                                                                                  #  RPQFLAG       120             BIT 15 FLAG  8          RPQFLBIT
000194:                                                                                                  #  RRDATAFL      191             BIT  4 FLAG 12          RRDATABT
000195:                                                                                                  #  RRNBSW        009             BIT  6 FLAG  0          RRNBBIT
000196:                                                                                                  #  RRRSFLAG      192             BIT  3 FLAG 12          RRRSBIT
000197:                                                                                                  #  RVSW          111             BIT  9 FLAG  7          RVSWBIT
000198:                                                                                                  #  R04FLAG       051             BIT  9 FLAG  3          R04FLBIT        EQUIVALENT FLAG NAME:  READRFLG
000199:                                                                                                  #  R10FLAG       013             BIT  2 FLAG  0          R10FLBIT
000200:                                                                                                  #  R61FLAG       020             BIT 10 FLAG  1          R61FLBIT
000201:                                                                                                  #  R77FLAG       079             BIT 11 FLAG  5          R77FLBIT
000202:                                                                                                  #  SCALBAD       177             BIT  3 FLAG 11          SCABBIT
000203:                                                                                                  #  SLOPESW       027             BIT  3 FLAG  1          SLOPEBIT
000204:                                                                                                  #  SNUFFER       077             BIT 13 FLAG  5          SNUFFBIT
000205:                                                                                                  #  SOLNSW        087             BIT  3 FLAG  5          SOLNSBIT
000206:                                                                                                  #  SRCHOPTN      031             BIT 14 FLAG  2          SRCHOBIT
000207:                                                                                                  #  STATEFLG      055             BIT  5 FLAG  3          STATEBIT
000208:                                                                                                  #  STEERSW       034             BIT 11 FLAG  2          STEERBIT
000209:                                                                                                  #  SURFFLAG      127             BIT  8 FLAG  8          SURFFBIT
000210:                                                                                                  #  SWANDISP      109             BIT 11 FLAG  7          SWANDBIT
000211:                                                                                                  #  S32.1F1       090             BIT 15 FLAG  6          S32BIT1
000212:                                                                                                  #  S32.1F2       091             BIT 14 FLAG  6          S32BIT2
000213:                                                                                                  #  S32.1F3A      092             BIT 13 FLAG  6          S32BIT3A
000214:                                                                                                  #  S32.1F3B      093             BIT 12 FLAG  6          S32BIT3B
000215:                                                                                                  #  TFFSW         119             BIT  1 FLAG  7          TFFSWBIT
000216:                                                                                                  #  TRACKFLG      025             BIT  5 FLAG  1          TRACKBIT
000217:                                                                                                  #  TURNONFL      194             BIT  1 FLAG 12          TURNONBT
000218:                                                                                                  #  ULLAGFLG      204             BIT  6 FLAG 13          ULLAGER
000219:                                                                                                  #  UPDATFLG      023             BIT  7 FLAG  1          UPDATBIT
000220:                                                                                                  #  UPLOCKFL      116             BIT  4 FLAG 7           UPLOCBIT
000221:                                                                                                  #  USEQRFLG      196             BIT 14 FLAG 13          USEQRJTS
000222:                                                                                                  #  VEHUPFLG      022             BIT  8 FLAG  1          VEHUPBIT
000223:                                                                                                  #  VELDATA       173             BIT  7 FLAG 11          VELDABIT
000224:                                                                                                  #  VERIFLAG      117             BIT  3 FLAG  7          VERIFBIT
000225:                                                                                                  #  VFLAG         050             BIT 10 FLAG  3          VFLAGBIT
000226:                                                                                                  #  VFLSHFLG      178             BIT  2 FLAG 11          VFLSHBIT
000227:                                                                                                  #  VINTFLAG      057             BIT  3 FLAG  3          VINTFBIT
000228:                                                                                                  #  VXINH         168             BIT 12 FLAG 11          VXINHBIT


000230:                                                                                                  #  V37FLAG       114             BIT  6 FLAG  7          V37FLBIT
000231:                                                                                                  #  V67FLAG       112             BIT  8 FLAG  7          V67FLBIT
000232:                                                                                                  #  V82EMFLG      118             BIT  2 FLAG  7          V82EMBIT
000233:                                                                                                  #  XDELVFLG      037             BIT  8 FLAG  2          XDELVBIT
000234:                                                                                                  #  XDSPFLAG      074             BIT  1 FLAG  4          XDSPBIT
000235:                                                                                                  #  XORFLG        171             BIT  9 FLAG 11          XORFLBIT
000236:                                                                                                  #  XOVINFLG      201             BIT  9 FLAG 13          XOVINHIB
000237:                                                                                                  #  3AXISFLG      084             BIT  6 FLAG  5          3AXISBIT
000238:                                                                                                  #  360SW         134             BIT  1 FLAG  8          360SWBIT
000239:
000240:                                                                                                  #  ASSIGNMENT AND DESCRIPTION OF FLAGWORDS
000241:
000242: 26,2022     0074               FLAGWRD0           =        STATE      +0                         #  (000-014)
000243:
000244:                                                                                                  #        (SET)                   (RESET)
000245:
000246:                                                                                                  #  BIT 15 FLAG 0 (S)
000247: 26,2022                                           =        000D
000248: 26,2022                                           =        BIT15
000249:
000250:                                                                                                  #  BIT 14 FLAG 0 (S)
000251: 26,2022                        JSWITCH            =        001D                                  #        INTEGRATION OF W        INTEGRATION OF STATE
000252: 26,2022     4736               JSWCHBIT           =        BIT14                                 #        MATRIX                  VECTOR
000253:
000254:                                                                                                  #  BIT 13 FLAG 0 (S)
000255: 26,2022                        MIDFLAG            =        002D                                  #        INTEGRATION WITH        INTEGRATION WITHOUT
000256:                                                                                                  #        SECONDARY BODY AND      SOLAR PERTURBATIONS
000257: 26,2022     4737               MIDFLBIT           =        BIT13                                 #        SOLAR PERTURBATIONS
000258:
000259:                                                                                                  #  BIT 12 FLAG 0 (L)
000260: 26,2022                        MOONFLAG           =        003D                                  #        MOON IS SPHERE OF       EARTH IS SPHERE OF
000261: 26,2022     4740               MOONBIT            =        BIT12                                 #        INFLUENCE               INFLUENCE
000262:
000263:                                                                                                  #  BIT 11 FLAG 0
000264: 26,2022                        P21FLAG            =        004D                                  #        USE BASE VECTORS        1ST PASS -- CALC-
000265: 26,2022     4741               P21FLBIT           =        BIT11                                 #        ALREADY CALCULATED      ULATE BASE VECTORS
000266:
000267:                                                                                                  #  BIT 10 FLAG 0
000268: 26,2022                        FSPASFLG           =        005D                                  #        FIRST PASS THROUGH      NOT FIRST PASS THRU
000269: 26,2022     4742               FSPASBIT           =        BIT10                                 #        REPOSITION ROUTINE      REPOSITION ROUTINE
000270:


000272:                                                                                                  #  BIT 9 FLAG 0  (S)
000273: 26,2022                        P25FLAG            =        006D                                  #        P25 OPERATING           P25 NOT OPERATING
000274: 26,2022     4743               P25FLBIT           =        BIT9
000275:
000276:                                                                                                  #  BIT 8 FLAG 0  (S)
000277: 26,2022                        IMUSE              =        007D                                  #        IMU IN USE              IMU NOT IN USE
000278: 26,2022     4744               IMUSEBIT           =        BIT8
000279:
000280:                                                                                                  #  BIT 7 FLAG 0  (S)
000281: 26,2022                        RNDVZFLG           =        008D                                  #        P20 RUNNING (RADAR      P20 NOT RUNNING
000282: 26,2022     4745               RNDVZBIT           =        BIT7                                  #        IN USE)
000283:
000284:                                                                                                  #  BIT 6 FLAG 0  (S)
000285: 26,2022                        RRNBSW             =        009D                                  #        RADAR TARGET IN         RADAR TARGET IN
000286: 26,2022     4746               RRNBBIT            =        BIT6                                  #        NB COORDINATES          SM COORDINATES
000287:
000288:                                                                                                  #  BIT 5 FLAG 0  (S)
000289: 26,2022                        LOKONSW            =        010D                                  #        RADAR LOCK-ON           RADAR LOCK-ON NOT
000290: 26,2022     4747               LOKONBIT           =        BIT5                                  #        DESIRED                 DESIRED
000291:
000292:                                                                                                  #  BIT 4 FLAG 0  (S)
000293: 26,2022                        NEEDLFLG           =        011D                                  #        TOTAL ATTITUDE          A/P FOLLOWING
000294: 26,2022     4750               NEEDLBIT           =        BIT4                                  #        ERROR DISPLAYED         ERROR DISPLAYED
000295:
000296:                                                                                                  #  BIT 3 FLAG 0
000297: 26,2022                        FREEFLAG           =        012D                                  #  (USED BY P51-53 TEMP IN MANY DIFFERENT
000298:                                                                                                  #  ROUTINES & BY LUNAR + SOLAR EPHEMERIDES)
000299: 26,2022     4751               FREEFBIT           =        BIT3
000300:
000301:                                                                                                  #  BIT 2 FLAG 0
000302: 26,2022                        R10FLAG            =        013D                                  #        R10 OUTPUTS DATA TO     BESIDES OUTPUT WHEN
000303: 26,2022     4752               R10FLBIT           =        BIT2                                  #        ALTITUDE & ALTITUDE     SET, R10 ALSO OUTPUT
000304:                                                                                                  #        RATE METERS ONLY        TO FORWARD & LATERAL
000305:                                                                                                  #                                VELOCITY CROSSPOINTER
000306:
000307:                                                                                                  #  BIT 1 FLAG 0  (L)
000308: 26,2022                        OLDESFLG           =        014D                                  #        R29 GYRO CMD LOOP       R29 GYRO CMD LOOP
000309: 26,2022     4753               OLDESBIT           =        BIT1                                  #        REQUESTED               NOT REQUESTED
000310:
000311:
000312: 26,2022     0075               FLAGWRD1           =        STATE      +1                         #  (015-029)
000313:


000315:                                                                                                  #        (SET)                   (RESET)
000316:
000317:                                                                                                  #  BIT 15 FLAG 1 (S)
000318: 26,2022                        NJETSFLG           =        015D                                  #        TWO JET RCS BURN        FOUR JET RCS BURN
000319: 26,2022     4735               NJETSBIT           =        BIT15
000320:
000321:                                                                                                  #  BIT 14 FLAG 1 (L)
000322: 26,2022                        DIDFLAG            =        016D                                  #        INERTIAL DATA IS        PERFORM DATA DISPLAY
000323: 26,2022     4736               DIDFLBIT           =        BIT14                                 #        AVAILABLE               INITIALIZATION FUNCS
000324:
000325:                                                                                                  #  BIT 13 FLAG 1 (S)
000326: 26,2022                        ERADFLAG           =        017D                                  #        COMPUTE REARTH          USE CONSTANT REARTH
000327: 26,2022     4737               ERADFBIT           =        BIT13                                 #        FISCHER ELLIPSOID       PAD RADIUS
000328:
000329:                                                                                                  #  BIT 12 FLAG 1
000330: 26,2022                        RODFLAG            =        018D                                  #        IF IN P66, NORMAL       IF IN P66, RE-INIT-
000331: 26,2022     4740               RODFLBIT           =        BIT12                                 #        OPERATION CONTINUES.    IALIZATION IS PER-
000332:                                                                                                  #        RESTART CLEARS FLAG     FORMED AND FLAG IS
000333:
000334:                                                                                                  #  BIT 11 FLAG 1
000335: 26,2022                                           =        019D
000336: 26,2022                                           =        BIT11
000337:
000338:                                                                                                  #  BIT 10 FLAG 1 (L)
000339: 26,2022                        R61FLAG            =        020D                                  #        RUN R61 LEM             RUN R65 LEM
000340: 26,2022     4742               R61FLBIT           =        BIT10
000341:
000342:                                                                                                  #  BIT 9 FLAG 1
000343: 26,2022                                           =        021D
000344: 26,2022                                           =        BIT9
000345:
000346:                                                                                                  #  BIT 8 FLAG 1  (S)
000347: 26,2022                        VEHUPFLG           =        022D                                  #        CSM STATE-VECTOR        LEM STATE VECTOR
000348: 26,2022     4744               VEHUPBIT           =        BIT8                                  #        BEING UPDATED           BEING UPDATED
000349:
000350:                                                                                                  #  BIT 7 FLAG 1  (S)
000351: 26,2022                        UPDATFLG           =        023D                                  #        UPDATING BY MARKS       UPDATING BY MARKS
000352: 26,2022     4745               UPDATBIT           =        BIT7                                  #        ALLOWED                 NOT ALLOWED
000353:
000354:                                                                                                  #  BIT 6 FLAG 1  (S)
000355: 26,2022                        NOUPFLAG           =        024D                                  #        NEITHER CSM             EITHER STATE
000356:                                                                                                  #        NOR LM STATE VECTOR     VECTOR MAY BE
000357: 26,2022     4746               NOUPFBIT           =        BIT6                                  #        MAY BE UPDATED          UPDATED
000358:


000360:                                                                                                  #  BIT 5 FLAG 1  (S)
000361: 26,2022                        TRACKFLG           =        025D                                  #        TRACKING ALLOWED        TRACKING NOT ALLOWED
000362: 26,2022     4747               TRACKBIT           =        BIT5
000363:
000364:                                                                                                  #  BIT 4 FLAG 1
000365: 26,2022                                           =        026D
000366: 26,2022                                           =        BIT4
000367:
000368:                                                                                                  #  BIT 3 FLAG 1  (S)
000369: 26,2022                        SLOPESW            =        027D                                  #        ITERATE WITH BIAS       ITERATE WITH REGULAR
000370:                                                                                                  #        METHOD IN ITERATOR      FALSI METHOD IN
000371: 26,2022     4751               SLOPEBIT           =        BIT3                                  #                                ITERATOR
000372:
000373:                                                                                                  #  BIT 2 FLAG 1  (S)
000374: 26,2022                        GUESSW             =        028D                                  #        NO STARTING VALUE       STARTING VALUE FOR
000375: 26,2022     4752               GUESSBIT           =        BIT2                                  #        FOR ITERATION           ITERATION EXISTS
000376:
000377:                                                                                                  #  BIT 1 FLAG 1
000378: 26,2022                                           =        029D
000379: 26,2022                                           =        BIT1                                  #  OH 2009-05-15 Scan does not have this line
000380:
000381: 26,2022     0076               FLAGWRD2           =        STATE      +2                         #  (030-044)
000382:
000383:                                                                                                  #        (SET)                   (RESET)
000384:
000385:                                                                                                  #  BIT 15 FLAG 2 (S)
000386: 26,2022                        DRIFTFLG           =        030D                                  #        T3RUPT CALLS GYRO       T3RUPT DOES NO GYRO
000387: 26,2022     4735               DRFTBIT            =        BIT15                                 #        COMPENSATION            COMPENSATION
000388:
000389:                                                                                                  #  BIT 14 FLAG 2 (S)
000390: 26,2022                        SRCHOPTN           =        031D                                  #        RADAR IN AUTOMATIC      RADAR NOT IN AUTO-
000391: 26,2022     4736               SRCHOBIT           =        BIT14                                 #        SEARCH OPTION (R24)     MATIC SEARCH OPTION
000392:
000393:                                                                                                  #  BIT 13 FLAG 2 (S)
000394: 26,2022                        ACMODFLG           =        032D                                  #        MANUAL ACQUISITION      AUTO ACQUISITION
000395: 26,2022     4737               ACMODBIT           =        BIT13                                 #        BY RENDEZVOUS RADAR     BY RENDEZVOUS RADAR
000396:
000397:                                                                                                  #  BIT 12 FLAG 2 (S)
000398: 26,2022                        LOSCMFLG           =        033D                                  #        LINE OF SIGHT BEING     LINE OF SIGHT NOT
000399:                                                                                                  #        COMPUTED (R21)          BEING COMPUTED
000400: 26,2022     4740               LOSCMBIT           =        BIT12
000401:


000403:                                                                                                  #  BIT 11 FLAG 2 (S)
000404: 26,2022                        STEERSW            =        034D                                  #        SUFFICIENT THRUST       INSUFFICIENT THRUST
000405: 26,2022     4741               STEERBIT           =        BIT11                                 #        IS PRESENT              IS PRESENT
000406:
000407:                                                                                                  #  BIT 10 FLAG 2 (S)
000408: 26,2022                                           =        035D                                  #  OH 2009-05-15 These two line don't appear in scan
000409: 26,2022                                           =        BIT10
000410:
000411:                                                                                                  #  BIT 9 FLAG 2 (S)
000412: 26,2022                        IMPULSW            =        036D                                  #        MINIMUM IMPULSE         STEERING BURN (NO
000413:                                                                                                  #        BURN (CUTOFF TIME       CUTOFF TIME YET
000414: 26,2022     4743               IMPULBIT           =        BIT9                                  #        SPECIFIED)              AVAILABLE)
000415:
000416:                                                                                                  #  BIT 8 FLAG 2 (S)
000417: 26,2022                        XDELVFLG           =        037D                                  #        EXTERNAL DELTAV VG      LAMBERT (AIMPOINT)
000418: 26,2022     4744               XDELVBIT           =        BIT8                                  #        COMPUTATION             VG COMPUTATION
000419:
000420:                                                                                                  #  BIT 7 FLAG 2 (S)
000421: 26,2022                        ETPIFLAG           =        038D                                  #        ELEVATION ANGLE         TPI TIME SUPPLIED
000422:                                                                                                  #        SUPPLIED FOR            FOR P34,74 TO COMPUTE
000423: 26,2022     4745               ETPIBIT            =        BIT7                                  #        P34,74                  ELEVATION
000424:
000425:                                                                                                  #  BIT 7 FLAG 2 (L)
000426: 26,2022  0000046               OPTNSW             =        ETPIFLAG                              #        SOI PHASE OF P38/78     SOR PHASE OF P38/78
000427: 26,2022     4745               OPTNBIT            =        BIT7
000428:
000429:                                                                                                  #  BIT 6 FLAG 2 (S)
000430: 26,2022                        FINALFLG           =        039D                                  #        LAST PASS THROUGH       INTERIM PASS THROUGH
000431:                                                                                                  #        RENDEZVOUS PROGRAM      RENDEZVOUS PROGRAM
000432: 26,2022     4746               FINALBIT           =        BIT6                                  #        COMPUTATIONS            COMPUTATIONS
000433:
000434:                                                                                                  #  BIT 5 FLAG 2 (S)
000435: 26,2022                        AVFLAG             =        040D                                  #        LEM IS ACTIVE           CSM IS ACTIVE
000436: 26,2022     4747               AVFLBIT            =        BIT5                                  #        VEHICLE                 VEHICLE
000437:
000438:                                                                                                  #  BIT 4 FLAG 2 (S)
000439: 26,2022                        PFRATFLG           =        041D                                  #        PREFERRED ATTITUDE      PREFERRED ATTITUDE
000440: 26,2022     4750               PFRATBIT           =        BIT4                                  #        COMPUTED                NOT COMPUTED
000441:
000442:                                                                                                  #  BIT 3 FLAG 2 (S)
000443:


000445: 26,2022                        CALCMAN3           =        042D                                  #        NO FINAL ROLL           FINAL ROLL IS
000446: 26,2022     4751               CALC3BIT           =        BIT3                                  #                                NECESSARY
000447:
000448:                                                                                                  #  BIT 2 FLAG 2 (S)
000449: 26,2022                        CALCMAN2           =        043D                                  #        PERFORM MANEUVER        BYPASS STARTING
000450: 26,2022     4752               CALC2BIT           =        BIT2                                  #        STARTING PROCEDURE      PROCEDURE
000451:
000452:                                                                                                  #  BIT 1 FLAG 2 (S)
000453: 26,2022                        NODOFLAG           =        044D                                  #        V37 NOT PERMITTED       V37 PERMITTED
000454: 26,2022     4753               NODOBIT            =        BIT1
000455:
000456: 26,2022     0077               FLAGWRD3           =        STATE      +3                         #  (045-059)
000457:
000458:                                                                                                  #        (SET)                   (RESET)
000459:
000460:                                                                                                  #  BIT 15 FLAG 3
000461: 26,2022                                           =        045D
000462: 26,2022                                           =        BIT15                                 #  OH 2009-05-15 This line is not in scans
000463:
000464:                                                                                                  #  BIT 14 FLAG 3 (S)
000465: 26,2022                        GLOKFAIL           =        046D                                  #        GIMBAL LOCK HAS         NOT IN GIMBAL LOCK
000466: 26,2022     4736               GLOKFBIT           =        BIT14                                 #        OCCURRED
000467:
000468:                                                                                                  #  BIT 13 FLAG 3 *** PROTECTED FROM FRESH START ***
000469: 26,2022                        REFSMFLG           =        047D                                  #        REFSMMAT GOOD           REFSMMAT NO GOOD
000470: 26,2022     4737               REFSMBIT           =        BIT13
000471:
000472:                                                                                                  #  BIT 12 FLAG 3 (S)
000473: 26,2022                        LUNAFLAG           =        048D                                  #        LUNAR LAT-LONG          EARTH LAT-LONG
000474: 26,2022     4740               LUNABIT            =        BIT12
000475:
000476:                                                                                                  #  BIT 11 FLAG 3 (L)
000477: 26,2022                        NOR29FLG           =        049D                                  #        R29 NOT ALLOWED         R29 ALLOWED (RR DES-
000478: 26,2022     4741               NR29FBIT           =        BIT11                                 #                                IGNATED POWERED FLT)
000479:
000480:                                                                                                  #  BIT 10 FLAG 3 (S)
000481: 26,2022                        VFLAG              =        050D                                  #        LESS THAN TWO STARS     TWO STARS IN FIELD
000482: 26,2022     4742               VFLAGBIT           =        BIT10                                 #        IN FIELD OF VIEW        OF VIEW
000483:
000484:                                                                                                  #  BIT 9 FLAG 3  (S)
000485: 26,2022                        R04FLAG            =        051D                                  #        ALARM 521               ALARM 521 ALLOWED
000486:                                                                                                  #        SUPPRESSED


000488: 26,2022     4743               R04FLBIT           =        BIT9
000489:
000490:                                                                                                  #  BIT 9 FLAG 3  (L)
000491: 26,2022  0000063               READRFLG           =        R04FLAG                               #        READING RR DATA         NOT READING RR DATA
000492: 26,2022     4743               READRBIT           =        BIT9                                  #        PURSUANT TO R29         PURSUANT TO R29
000493:
000494:                                                                                                  #  BIT 8 FLAG 3  (S)
000495: 26,2022                        PRECIFLG           =        052D                                  #        NORMAL INTEGRATION      ENGAGES 4-TIME STEP
000496:                                                                                                  #        IN P00                  (P00) LOGIC IN INTE-
000497: 26,2022     4744               PRECIBIT           =        BIT8                                  #                                GRATION
000498:
000499:                                                                                                  #  BIT 7 FLAG 3  (S)
000500: 26,2022                        CULTFLAG           =        053D                                  #        STAR OCCULTED           STAR NOT OCCULTED
000501: 26,2022     4745               CULTBIT            =        BIT7
000502:
000503:                                                                                                  #  BIT 6 FLAG 3  (S)
000504: 26,2022                        ORBWFLAG           =        054D                                  #        W MATRIX VALID FOR      W MATRIX INVALID FOR
000505: 26,2022     4746               ORBWFBIT           =        BIT6                                  #        ORBITAL NAVIGATION      ORBITAL NAVIGATION
000506:
000507:                                                                                                  #  BIT 5 FLAG 3  (S)
000508: 26,2022                        STATEFLG           =        055D                                  #        PERMANENT STATE         PERMANENT STATE
000509: 26,2022     4747               STATEBIT           =        BIT5                                  #        VECTOR UPDATED          VECTOR NOT UPDATED
000510:
000511:                                                                                                  #  BIT 4 FLAG 3  (S)
000512: 26,2022                        INTYPFLG           =        056D                                  #        CONIC INTEGRATION       ENCKE INTEGRATION
000513: 26,2022     4750               INTYPBIT           =        BIT4
000514:
000515:                                                                                                  #  BIT 3 FLAG 3  (S)
000516: 26,2022                        VINTFLAG           =        057D                                  #        CSM STATE VECTOR        LEM STATE VECTOR
000517: 26,2022     4751               VINTFBIT           =        BIT3                                  #        BEING INTEGRATED        BEING INTEGRATED
000518:
000519:                                                                                                  #  BIT 2 FLAG 3 (S)
000520: 26,2022                        D6OR9FLG           =        058D                                  #        DIMENSION OF W IS 9     DIMENSION OF W IS 6
000521: 26,2022     4752               D6OR9BIT           =        BIT2                                  #        FOR INTEGRATION         FOR INTEGRATION
000522:
000523:                                                                                                  #  BIT 1 FLAG 3  (S)
000524: 26,2022                        DIM0FLAG           =        059D                                  #        W MATRIX IS TO BE       W MATRIX IS NOT TO
000525: 26,2022     4753               DIM0BIT            =        BIT1                                  #        USED                    USED
000526:
000527: 26,2022     0100               FLAGWRD4           =        STATE      +4                         #  (060-074)
000528:


000530:                                                                                                  #        (SET)                   (RESET)
000531:
000532:                                                                                                  #  BIT 15 FLAG 4 (S)
000533: 26,2022                        MRKIDFLG           =        060D                                  #        MARK DISPLAY IN         NO MARK DISPLAY IN
000534: 26,2022     4735               MRKIDBIT           =        BIT15                                 #        ENDIDLE                 ENDIDLE
000535:
000536:                                                                                                  #  BIT 14 FLAG 4 (S)
000537: 26,2022                        PRIODFLG           =        061D                                  #        PRIORITY DISPLAY IN     NO PRIORITY DISPLAY
000538: 26,2022     4736               PRIODBIT           =        BIT14                                 #        ENDIDLE                 IN ENDIDLE
000539:
000540:                                                                                                  #  BIT 13 FLAG 4 (S)
000541: 26,2022                        NRMIDFLG           =        062D                                  #        NORMAL DISPLAY IN       NO NORMAL DISPLAY
000542: 26,2022     4737               NRMIDBIT           =        BIT13                                 #        ENDIDLE                 IN ENDIDLE
000543:
000544:                                                                                                  #  BIT 12 FLAG 4 (S)
000545: 26,2022                        PDSPFLAG           =        063D                                  #        P20 SETS SO AS TO       LEAVE AS NORMAL DISP
000546:                                                                                                  #        TURN A NORMAL DIS-
000547: 26,2022     4740               PDSPFBIT           =        BIT12                                 #        PLAY INTO A PRIORITY
000548:                                                                                                  #        DISPLAY IN R60
000549:
000550:                                                                                                  #  BIT 11 FLAG 4 (S)
000551: 26,2022                        MWAITFLG           =        064D                                  #        HIGHER PRIORITY         NO HIGHER PRIORITY
000552:                                                                                                  #        DISPLAY OPERATING       DISPLAY OPERATING
000553: 26,2022     4741               MWAITBIT           =        BIT11                                 #        WHEN MARK               WHEN MARK DISPLAY
000554:                                                                                                  #        DISPLAY INITIATED       INITIATED
000555:
000556:                                                                                                  #  BIT 10 FLAG 4 (S)
000557: 26,2022                        NWAITFLG           =        065D                                  #        HIGHER PRIORITY         NO HIGHER PRIORITY
000558:                                                                                                  #        DISPLAY OPERATING       DISPLAY OPERATING
000559: 26,2022     4742               NWAITBIT           =        BIT10                                 #        WHEN NORMAL             WHEN NORMAL DISPLAY
000560:                                                                                                  #        DISPLAY INITIATED       INITIATED
000561:
000562:                                                                                                  #  BIT 9 FLAG 4  (S)
000563: 26,2022                        MRKNVFLG           =        066D                                  #        ASTRONAUT USING         ASTRONAUT NOT USING
000564:                                                                                                  #        KEYBOARD WHEN MARK      KEYBOARD WHEN MARK
000565: 26,2022     4743               MRKNVBIT           =        BIT9                                  #        DISPLAY INITIATED       DISPLAY INITIATED
000566:
000567:                                                                                                  #  BIT 8 FLAG 4  (S)
000568: 26,2022                        NRMNVFLG           =        067D                                  #        ASTRONAUT USING         ASTRONAUT NOT USING
000569:                                                                                                  #        KEYBOARD WHEN           KEYBOARD WHEN
000570: 26,2022     4744               NRMNVBIT           =        BIT8                                  #        NORMAL DISPLAY          NORMAL DISPLAY
000571:                                                                                                  #        INITIATED               INITIATED
000572:
000573:                                                                                                  #  BIT 7 FLAG 4  (S)
000574: 26,2022                        PRONVFLG           =        068D                                  #        ASTRONAUT USING         ASTRONAUT NOT USING
000575:


000577:                                                                                                  #        KEYBOARD WHEN           KEYBOARD WHEN
000578: 26,2022     4745               PRONVBIT           =        BIT7                                  #        PRIORITY DISPLAY        PRIORITY DISPLAY
000579:                                                                                                  #        INITIATED               INITIATED
000580:
000581:                                                                                                  #  BIT 6 FLAG 4  (S)
000582: 26,2022                        PINBRFLG           =        069D                                  #        ASTRONAUT HAS           ASTRONAUT HAS NOT
000583:                                                                                                  #        INTERFERED WITH         INTERFERED WITH
000584: 26,2022     4746               PINBRBIT           =        BIT6                                  #        EXISTING DISPLAY        EXISTING DISPLAY
000585:
000586:                                                                                                  #  BIT 5 FLAG 4  (S)
000587: 26,2022                        MRUPTFLG           =        070D                                  #        MARK DISPLAY            MARK DISPLAY NOT
000588:                                                                                                  #        INTERRUPTED BY          INTERRUPTED BY
000589: 26,2022     4747               MRUPTBIT           =        BIT5                                  #        PRIORITY DISPLAY        PRIORITY DISPLAY
000590:
000591:                                                                                                  #  BIT 4 FLAG 4  (S)
000592: 26,2022                        NRUPTFLG           =        071D                                  #        NORMAL DISPLAY          NORMAL DISPLAY NOT
000593:                                                                                                  #        INTERRUPTED BY          INTERRUPTED BY
000594: 26,2022     4750               NRUPTBIT           =        BIT4                                  #        PRIORITY OR MARK        PRIORITY OR MARK
000595:                                                                                                  #        DISPLAY                 DISPLAY
000596:
000597:                                                                                                  #  BIT 3 FLAG 4  (S)
000598: 26,2022                        MKOVFLAG           =        072D                                  #        MARK DISPLAY OVER       NO MARK DISPLAY OVER
000599: 26,2022     4751               MKOVBIT            =        BIT3                                  #        NORMAL                  NORMAL
000600:
000601:                                                                                                  #  BIT 2 FLAG 4
000602: 26,2022                                           =        073D
000603: 26,2022                                           =        BIT2                                  #  OH 2009-05-15 Not in scan.
000604:
000605:
000606:                                                                                                  #  BIT 1 FLAG 4  (S)
000607: 26,2022                        XDSPFLAG           =        074D                                  #        MARK DISPLAY NOT        NO SPECIAL MARK
000608: 26,2022     4753               XDSPBIT            =        BIT1                                  #        TO BE INTERRUPTED       INFORMATION
000609:
000610: 26,2022     0101               FLAGWRD5           =        STATE      +5                         #  (075-089)
000611:
000612:                                                                                                  #        (SET)                   (RESET)
000613:
000614:                                                                                                  #  BIT 15 FLAG 5 (S)
000615: 26,2022                        DSKYFLAG           =        075D                                  #        DISPLAYS SENT TO        NO DISPLAYS TO DSKY
000616: 26,2022     4735               DSKYFBIT           =        BIT15                                 #        DSKY
000617:
000618:                                                                                                  #  BIT 14 FLAG 5
000619: 26,2022                                           =        076D
000620: 26,2022                                           =        BIT14
000621:


000623:                                                                                                  #  BIT 13 FLAG 5 (S,L)
000624: 26,2022                        SNUFFER            =        077D                                  #        U,V JETS DISABLED       U,V JETS ENABLED
000625:                                                                                                  #        DURING DPS              DURING DPS
000626: 26,2022     4737               SNUFFBIT           =        BIT13                                 #        BURNS (V65)             BURNS (V75)
000627:
000628:                                                                                                  #  BIT 12 FLAG 5 (S)
000629: 26,2022                        NOTHROTL           =        078D                                  #        INHIBIT FULL            PERMIT FULL THROTTLE
000630: 26,2022     4740               NOTHRBIT           =        BIT12                                 #        THROTTLE
000631:
000632:                                                                                                  #  BIT 11 FLAG 5 (S,L)
000633: 26,2022                        R77FLAG            =        079D                                  #        R77 IS ON,              R77 IS NOT ON.
000634:                                                                                                  #        SUPPRESS ALL RADAR
000635:                                                                                                  #        ALARMS AND TRACKER
000636: 26,2022     4741               R77FLBIT           =        BIT11                                 #        FAILS
000637:
000638:                                                                                                  #  BIT 10 FLAG 5 (S)
000639: 26,2022                        RNGSCFLG           =        080D                                  #        SCALE CHANGE HAS        NO SCALE CHANGE HAS
000640:                                                                                                  #        OCCURRED DURING         OCCURRED DURING
000641: 26,2022     4742               RNGSCBIT           =        BIT10                                 #        RR READING              RR READING
000642:
000643:                                                                                                  #  BIT 9 FLAG 5  (S)
000644: 26,2022                        DMENFLG            =        081D                                  #        DIMENSION OF W IS 9     DIMENSION OF W IS 6
000645: 26,2022     4743               DMENFBIT           =        BIT9                                  #        FOR INCORPORATION       FOR INCORPORATION
000646:
000647:                                                                                                  #  BIT 8 FLAG 5  (S)
000648: 26,2022                                           =        082D
000649: 26,2022                                           =        BIT8
000650:
000651:                                                                                                  #  BIT 7 FLAG 5  (S)
000652: 26,2022                        ENGONFLG           =        083D                                  #        ENGINE TURNED ON        ENGINE TURNED OFF
000653: 26,2022     4745               ENGONBIT           =        BIT7                                  #
000654:
000655:                                                                                                  #  BIT 6 FLAG 5  (S)
000656: 26,2022                        3AXISFLG           =        084D                                  #        MANEUVER SPECIFIED      MANEUVER SPECIFIED
000657:                                                                                                  #        BY THREE AXES           BY ONE AXIS; R60
000658: 26,2022     4746               3AXISBIT           =        BIT6                                  #                                CALLS VECPOINT.
000659:
000660:                                                                                                  #  BIT 5 FLAG 5
000661: 26,2022                                           =        085D
000662: 26,2022                                           =        BIT5                                  #  OH 2009-05-15 Not in scan
000663:
000664:                                                                                                  #  BIT 4 FLAG 5  (S)
000665:


000667: 26,2022                        NORRMON            =        086D                                  #        BYPASS RR GIMBAL        PERFORM
000668: 26,2022     4750               NORRMBIT           =        BIT4                                  #        MONITOR                 RR GIMBAL MONITOR
000669:
000670:                                                                                                  #  BIT 3 FLAG 5  (S)
000671: 26,2022                        SOLNSW             =        087D                                  #        LAMBERT DOES NOT        LAMBERT CONVERGES OR
000672:                                                                                                  #        CONVERGE, OR TIME-RAD   TIME-RADIUS NON-
000673: 26,2022     4751               SOLNSBIT           =        BIT3                                  #        NEARLY CIRCULAR         CIRCULAR
000674:
000675:                                                                                                  #  BIT 2 FLAG 5  (S)
000676: 26,2022                        MGLVFLAG           =        088D                                  #        LOCAL VERTICAL          MIDDLE GIMBAL ANGLE
000677:                                                                                                  #        COORDINATES             COMPUTED
000678: 26,2022     4752               MGLVFBIT           =        BIT2                                  #        COMPUTED
000679:
000680:                                                                                                  #  BIT 1 FLAG 5  (S)
000681: 26,2022                        RENDWFLG           =        089D                                  #        W MATRIX VALID          W MATRIX INVALID
000682:                                                                                                  #        FOR RENDEZVOUS          FOR RENDEZVOUS
000683: 26,2022     4753               RENDWBIT           =        BIT1                                  #        NAVIGATION              NAVIGATION
000684:
000685:
000686: 26,2022     0102               FLAGWRD6           =        STATE      +6                         #  (090-104)
000687:
000688:                                                                                                  #        (SET)                   (RESET)
000689:
000690:                                                                                                  #  BIT 15 FLAG 6 (S)
000691: 26,2022                        S32.1F1            =        090D                                  #        DELTA V AT CSI TIME     DVT1 LESS THAN MAX
000692: 26,2022     4735               S32BIT1            =        BIT15                                 #        ONE EXEEDS MAX
000693:
000694:                                                                                                  #  BIT 14 FLAG 6 (S)
000695: 26,2022                        S32.1F2            =        091D                                  #        FIRST PASS OF           REITERATION OF
000696: 26,2022     4736               S32BIT2            =        BIT14                                 #        NEWTON ITERATION        NEWTON
000697:
000698:                                                                                                  #  BIT 13 FLAG 6 (S)
000699: 26,2022                        S32.1F3A           =        092D                                  #  BIT 13 AND BIT 12 FUNCTION AS AN ORDERED
000700: 26,2022     4737               S32BIT3A           =        BIT13                                 #  PAIR (13,12) INDICATING THE POSSIBLE OC-
000701:                                                                                                  #  CURRENCE OF 2 NEWTON ITERATIONS FOR S32.1
000702:                                                                                                  #  IN THE PROGRAM IN THE FOLLOWING ORDER:
000703:                                                                                                  #  BIT 12 FLAG 6 (S)                             # (0,1) (I.E. BIT 13 RESET, BIT 12 SET)
000704: 26,2022                        S32.1F3B           =        093D                                  #       = FIRST NEWTON ITERATION BEING DONE
000705: 26,2022     4740               S32BIT3B           =        BIT12                                 #  (0,0)= FIRST PASS OF SECOND NEWTON ITERATION
000706:                                                                                                  #  (1,1)= 50 FT/SEC STAGE OF SECOND NEWTON ITERATION
000707:                                                                                                  #  (1,0)= REMAINDER OF SECOND NEWTON ITERATION
000708:                                                                                                  #  BIT 11 FLAG 6 (S)
000709: 26,2022                                           =        094D                                  #
000710: 26,2022                                           =        BIT11                                 #


000712:                                                                                                  #  BIT 10 FLAG 6 (S)
000713: 26,2022                        GMBDRVSW           =        095D                                  #        TRIMGIMB OVER           TRIMGIMB NOT OVER
000714: 26,2022     4742               GMBDRBIT           =        BIT10                                 #
000715:
000716:                                                                                                  #  BIT 9 FLAG 6
000717: 26,2022                                           =        096D
000718: 26,2022                                           =        BIT9                                  #
000719:
000720:                                                                                                  #  BIT 8 FLAG 6  (S)
000721: 26,2022                        MUNFLAG            =        097D                                  #        SERVICER CALLS          SERVICER CALLS
000722: 26,2022     4744               MUNFLBIT           =        BIT8                                  #        MUNRVG                  CALCRVG
000723:
000724:                                                                                                  #  BIT 7 FLAG 6  (L)
000725: 26,2022                                           =        098D                                  #
000726: 26,2022                                           =        BIT7                                  #
000727:
000728:                                                                                                  #  BIT 6 FLAG 6  (L)
000729: 26,2022                        REDFLAG            =        099D                                  #        LANDING SITE            LANDING SITE
000730:                                                                                                  #        REDESIGNATION           REDESIGNATION NOT
000731: 26,2022     4746               REDFLBIT           =        BIT6                                  #        PERMITTED               PERMITTED
000732:
000733:                                                                                                  #  BIT 5 FLAG 6
000734: 26,2022                                           =        100D                                  #
000735: 26,2022                                           =        BIT5                                  #  OH 2009-05-15 Not in scan
000736:
000737:                                                                                                  #  BIT 4 FLAG 6
000738: 26,2022                                           =        101D
000739: 26,2022                                           =        BIT4                                  #  OH 2009-05-15 Not in scan
000740:
000741:                                                                                                  #  BIT 3 FLAG 6  (S)
000742: 26,2022                        NTARGFLG           =        102D                                  #        ASTRONAUT DID           ASTRONAUT DID NOT
000743:                                                                                                  #        OVERWRITE DELTA         OVERWRITE DELTA
000744: 26,2022     4751               NTARGBIT           =        BIT3                                  #        VELOCITY AT TPI         VELOCITY
000745:                                                                                                  #        OR TPM (P34,35)
000746:
000747:                                                                                                  #  BIT 2 FLAG 6
000748: 26,2022                        AUXFLAG            =        103D                                  #        PROVIDING IDLEFLAG      SERVICER WILL SKIP
000749: 26,2022     4752               AUXFLBIT           =        BIT2                                  #        IS NOT SET, SERV-       DVMON ON ITS NEXT
000750:                                                                                                  #        ICER WILL EXERCISE      PASS EVEN IF THE
000751:                                                                                                  #        DVMON ON ITS NEXT       IDLEFLAG IS NOT SET.
000752:                                                                                                  #        PASS.                   IT WILL THEN SET
000753:                                                                                                  #                                AUXFLAG.
000754:
000755:                                                                                                  #  BIT 1 FLAG 6  (L)
000756: 26,2022                        ATTFLAG            =        104D                                  #        LEM ATTITUDE EXISTS     NO LEM ATTITUDE
000757:                                                                                                  #        IN MOON-FIXED           AVAILABLE IN MOON-
000758:


000760: 26,2022     4753               ATTFLBIT           =        BIT1                                  #        COORDINATES             FIXED COORDINATES
000761:
000762: 26,2022     0103               FLAGWRD7           =        STATE      +7                         #  (105-119)
000763:
000764:                                                                                                  #        (SET)                   (RESET)
000765:
000766:                                                                                                  #  BIT 15 FLAG 7 (S)
000767: 26,2022                        ITSWICH            =        105D                                  #        R34;TPI TIME TO BE      TPI HAS BEEN
000768: 26,2022     4735               ITSWBIT            =        BIT15                                 #        COMPUTED                COMPUTED
000769:
000770:                                                                                                  #  BIT 14 FLAG 7 (S)
000771: 26,2022                        MANUFLAG           =        106D                                  #        ATTITUDE MANEUVER       NO ATTITUDE MANEUVER
000772:                                                                                                  #        GOING DURING RR         DURING RR SEARCH
000773: 26,2022     4736               MANUFBIT           =        BIT14                                 #        SEARCH
000774:
000775:                                                                                                  #  BIT 13 FLAG 7 (S)
000776: 26,2022                        IGNFLAG            =        107D                                  #        TIG HAS ARRIVED         TIG HAS NOT ARRIVED
000777: 26,2022     4737               IGNFLBIT           =        BIT13                                 #
000778:
000779:                                                                                                  #  BIT 12 FLAG 7 (S)
000780: 26,2022                        ASTNFLAG           =        108D                                  #        ASTRONAUT HAS           ASTRONAUT HAS NOT
000781: 26,2022     4740               ASTNBIT            =        BIT12                                 #        OKAYED IGNITION         OKAYED IGNITION
000782:
000783:                                                                                                  #  BIT 11 FLAG 7 (L)
000784: 26,2022                        SWANDISP           =        109D                                  #        LANDING ANALOG          LANDING ANALOG
000785: 26,2022     4741               SWANDBIT           =        BIT11                                 #        DISPLAYS ENABLED        DISPLAYS SUPPRESSED
000786:
000787:                                                                                                  #  BIT 10 FLAG 7 (S)
000788: 26,2022                        NORMSW             =        110D                                  #        UNIT NORMAL INPUT       LAMBERT COMPUTES ITS
000789: 26,2022     4742               NORMSBIT           =        BIT10                                 #        TO LAMBERT              OWN UNIT NORMAL
000790:
000791:                                                                                                  #  BIT 9 FLAG 7  (S)
000792: 26,2022                        RVSW               =        111D                                  #        DO NOT COMPUTE          COMPUTE FINAL STATE
000793:                                                                                                  #        FINAL STATE VECTOR      VECTOR IN TIME-THETA
000794: 26,2022     4743               RVSWBIT            =        BIT9                                  #        IN TIME-DELTA
000795:
000796:                                                                                                  #  BIT 8 FLAG 7  (S)
000797: 26,2022                        V67FLAG            =        112D                                  #        ASTRONAUT OVERWRITE     ASTRONAUT DOES NOT
000798:                                                                                                  #        W-MATRIX INITIAL        OVERWRITE W-MATRIX
000799: 26,2022     4744               V67FLBIT           =        BIT8                                  #        VALUES                  INITIAL VALUES
000800:


000802:                                                                                                  #  BIT 7 FLAG 7  (S)
000803: 26,2022                        IDLEFLAG           =        113D                                  #        NO DV MONITOR           CONNECT DV MONITOR
000804: 26,2022     4745               IDLEFBIT           =        BIT7                                  #
000805:
000806:                                                                                                  #  BIT 6 FLAG 7  (S)
000807: 26,2022                        V37FLAG            =        114D                                  #        AVERAGEG (SERVICER)     AVERAGEG (SERVICER)
000808: 26,2022     4746               V37FLBIT           =        BIT6                                  #        RUNNING                 OFF
000809:
000810:                                                                                                  #  BIT 5 FLAG 7  (S)
000811: 26,2022                        AVEGFLAG           =        115D                                  #        AVERAGEG (SERVICER)     AVERAGEG (SERVICER)
000812: 26,2022     4747               AVEGFBIT           =        BIT5                                  #        DESIRED                 NOT DESIRED
000813:
000814:                                                                                                  #  BIT 4 FLAG 7  (S)
000815: 26,2022                        UPLOCKFL           =        116D                                  #        K-KBAR-K FAIL           NO K-KBAR-K FAIL
000816: 26,2022     4750               UPLOCBIT           =        BIT4                                  #
000817:
000818:                                                                                                  #  BIT 3 FLAG 7  (S)
000819: 26,2022                        VERIFLAG           =        117D                                  #  CHANGED WHEN V33E OCCURS AT END OF P27
000820: 26,2022     4751               VERIFBIT           =        BIT3                                  #
000821:
000822:                                                                                                  #  BIT 2 FLAG 7  (L,C)
000823: 26,2022                        V82EMFLG           =        118D                                  #        MOON VICINITY           EARTH VICINITY
000824: 26,2022     4752               V82EMBIT           =        BIT2                                  #
000825:
000826:                                                                                                  #  BIT 1 FLAG 7  (S)
000827: 26,2022                        TFFSW              =        119D                                  #        CALCULATE TPERIGEE      CALCULATE TFF
000828: 26,2022     4753               TFFSWBIT           =        BIT1                                  #
000829:
000830:
000831: 26,2022     0104               FLAGWRD8           =        STATE      +8D                        #  (120-134)
000832:
000833:                                                                                                  #        (SET)                   (RESET)
000834:
000835:                                                                                                  #  BIT 15 FLAG 8 (S)
000836: 26,2022                        RPQFLAG            =        120D                                  #        RPQ NOT COMPUTED        RPQ COMPUTED
000837:                                                                                                  #        (RPQ = VECTOR BE-
000838: 26,2022     4735               RPQFLBIT           =        BIT15                                 #        TWEEN SECONDARY BODY
000839:                                                                                                  #        AND PRIMARY BODY)
000840:
000841:                                                                                                  #  BIT 14 FLAG 8
000842: 26,2022                                           =        121D                                  #
000843: 26,2022                                           =        BIT14                                 #
000844:


000846:                                                                                                  #  BIT 13 FLAG 8 (S)
000847: 26,2022                        NEWIFLG            =        122D                                  #        FIRST PASS THROUGH      SUCCEEDING ITERATION
000848: 26,2022     4737               NEWIBIT            =        BIT13                                 #        INTEGRATION             OF INTEGRATION
000849:
000850:                                                                                                  #  BIT 12 FLAG 8 *** PROTECTED FROM FRESH START ***
000851: 26,2022                        CMOONFLG           =        123D                                  #        PERMANENT CSM STATE     PERMANENT CSM STATE
000852: 26,2022     4740               CMOONBIT           =        BIT12                                 #        IN LUNAR SPHERE         IN EARTH SPHERE
000853:
000854:                                                                                                  #  BIT 11 FLAG 8 *** PROTECTED FROM FRESH START ***
000855: 26,2022                        LMOONFLG           =        124D                                  #        PERMANENT LM STATE      PERMANENT LM STATE
000856: 26,2022     4741               LMOONBIT           =        BIT11                                 #        IN LUNAR SPHERE         IN EARTH SPHERE
000857:
000858:                                                                                                  #  BIT 10 FLAG 8 (L)
000859: 26,2022                        FLUNDISP           =        125D                                  #        CURRENT GUIDANCE        CURRENT GUIDANCE
000860: 26,2022     4742               FLUNDBIT           =        BIT10                                 #        DISPLAYS INHIBITED      DISPLAYS PERMITTED
000861:
000862:                                                                                                  #  BIT 9 FLAG 8  (L)
000863: 26,2022                        P39/79SW           =        126D                                  #        P39/79 OPERATING        P38/78 OPERATING
000864: 26,2022     4743               P39SWBIT           =        BIT9                                  #
000865:
000866:                                                                                                  #  BIT 8 FLAG 8  *** PROTECTED FROM FRESH START ***
000867: 26,2022                        SURFFLAG           =        127D                                  #        LM ON LUNAR SURFACE     LM NOT ON LUNAR
000868: 26,2022     4744               SURFFBIT           =        BIT8                                  #                                SURFACE
000869:
000870:                                                                                                  #  BIT 7 FLAG 8  (S)
000871: 26,2022                        INFINFLG           =        128D                                  #        NO CONIC SOLUTION       CONIC SOLUTION
000872:                                                                                                  #        (CLOSURE THROUGH        EXISTS
000873: 26,2022     4745               INFINBIT           =        BIT7                                  #        INFINITY REQUIRED)
000874:
000875:                                                                                                  #  BIT 6 FLAG 8  (S)
000876: 26,2022                        ORDERSW            =        129D                                  #        ITERATOR USES 2ND       ITERATOR USES 1ST
000877: 26,2022     4746               ORDERBIT           =        BIT6                                  #        ORDER MINIMUM MODE      ORDER STANDARD MODE
000878:
000879:                                                                                                  #  BIT 5 FLAG 8  (S)
000880: 26,2022                        APSESW             =        130D                                  #        RDESIRED OUTSIDE        RDESIRED INSIDE
000881:                                                                                                  #        PERICENTER-APOCENTER    PERICENTER-APOCENTER
000882: 26,2022     4747               APSESBIT           =        BIT5                                  #        RANGE IN TIME-RADIUS    RANGE IN TIME-RADIUS
000883:
000884:                                                                                                  #  BIT 4 FLAG 8  (S)
000885: 26,2022                        COGAFLAG           =        131D                                  #        NO CONIC SOLUTION --    CONIC SOLUTION
000886:                                                                                                  #        TOO CLOSE TO RECTI-     EXISTS (COGA DOES NOT
000887:


000889: 26,2022     4750               COGAFBIT           =        BIT4                                  #        LINEAR (COGA OVERFLWS)  OVERFLOW)
000890:
000891:                                                                                                  #  BIT 3 FLAG 8  (S)
000892: 26,2022                                           =        132D
000893: 26,2022                                           =        BIT3                                  #  OH 2009-05-15 Line not in scan
000894:
000895:                                                                                                  #  BIT 2 FLAG 8  (L)
000896: 26,2022                        INITALGN           =        133D                                  #        INITIAL PASS THRU       SECOND PASS THRU P57
000897: 26,2022     4752               INITABIT           =        BIT2                                  #        P57                     (CHECK RESET-MILLARD)
000898:
000899:                                                                                                  #  BIT 1 FLAG 8  (S)
000900: 26,2022                        360SW              =        134D                                  #        TRANSFER ANGLE NEAR     TRANSFER ANGLE NOT
000901: 26,2022     4753               360SWBIT           =        BIT1                                  #        360 DEGREES             NEAR 360 DEGREES
000902:
000903:
000904: 26,2022     0105               FLAGWRD9           =        STATE      +9D                        #  (135-149)
000905:
000906:                                                                                                  #        (SET)                   (RESET)
000907:
000908:                                                                                                  #  BIT 15 FLAG 9
000909: 26,2022                                           =        135D                                  #
000910: 26,2022                                           =        BIT15                                 #
000911:
000912:                                                                                                  #  BIT 14 FLAG 9 (L)
000913: 26,2022                        FLVR               =        136D                                  #        VERTICAL RISE           NON-VERTICAL RISE
000914: 26,2022     4736               FLVRBIT            =        BIT14                                 #        (ASCENT GUIDANCE)
000915:
000916:                                                                                                  #  BIT 13 FLAG 9
000917: 26,2022                                           =        137D
000918: 26,2022                                           =        BIT13                                 #  OH 2009-05-15 Line not in scan
000919:
000920:                                                                                                  #  BIT 12 FLAG 9 (L)
000921: 26,2022                        FLPC               =        138D                                  #        NO POSITION CONTROL     POSITION CONTROL
000922: 26,2022     4740               FLPCBIT            =        BIT12                                 #        (ASCENT GUIDANCE)
000923:
000924:                                                                                                  #  BIT 11 FLAG 9 (L)
000925: 26,2022                        FLPI               =        139D                                  #        PRE-IGNITION PHASE      REGULAR GUIDANCE
000926: 26,2022     4741               FLPIBIT            =        BIT11                                 #        (ASCENT GUIDANCE)
000927:
000928:                                                                                                  #  BIT 10 FLAG 9 (L)
000929: 26,2022                        FLRCS              =        140D                                  #        RCS INJECTION MODE      MAIN ENGINE MODE
000930: 26,2022     4742               FLRCSBIT           =        BIT10                                 #        (ASCENT GUIDANCE)
000931:
000932:                                                                                                  #  BIT 9 FLAG 9  (L)
000933:


000935: 26,2022                        LETABORT           =        141D                                  #        ABORT PROGRAMS          ABORT PROGRAMS
000936: 26,2022     4743               LETABBIT           =        BIT9                                  #        ARE ENABLED             ARE NOT ENABLED
000937:
000938:                                                                                                  #  BIT 8 FLAG 9  (L)
000939: 26,2022                        FLAP               =        142D                                  #        APS CONTINUED ABORT     APS ABORT IS NOT A
000940:                                                                                                  #        AFTER DPS STAGING       CONTINUATION
000941: 26,2022     4744               FLAPBIT            =        BIT8                                  #        (ASCENT GUIDANCE)
000942:
000943:                                                                                                  #  BIT 7 FLAG 9  (L)
000944: 26,2022                                           =        143D
000945: 26,2022                                           =        BIT7                                  #  OH 2009-05-15 Line not in scan
000946:
000947:
000948:                                                                                                  #  BIT 6 FLAG 9  (L)
000949: 26,2022                        ROTFLAG            =        144D                                  #        P70 AND P71 WILL        P70 AND P71 WILL NOT
000950: 26,2022     4746               ROTFLBIT           =        BIT6                                  #        FORCE VEHICLE           FORCE VEHICLE
000951:                                                                                                  #        ROTATION IN THE         ROTATION IN THE
000952:                                                                                                  #        PREFERRED DIRECTION     PREFERRED DIRECTION
000953:
000954:                                                                                                  #  BIT 5 FLAG 9  (S)
000955: 26,2022                        QUITFLAG           =        145D                                  #        DISCONTINUE INTEGR.     CONTINUE INTEGRATION
000956: 26,2022     4747               QUITBIT            =        BIT5                                  #
000957:
000958:                                                                                                  #  BIT 4 FLAG 9
000959: 26,2022                                           =        146D                                  #
000960: 26,2022                                           =        BIT4                                  #
000961:
000962:                                                                                                  #  BIT 3 FLAG 9  (L)
000963: 26,2022                        MID1FLAG           =        147D                                  #        INTEGRAT TO TDEC        INTEGRATE TO THE
000964: 26,2022     4751               MID1FBIT           =        BIT3                                  #                                THEN-PRESENT TIME
000965:
000966:                                                                                                  #  BIT 2 FLAG 9  (L)
000967: 26,2022                        MIDAVFLG           =        148D                                  #        INTEGRATION ENTERED     INTEGRATION WAS
000968:                                                                                                  #        FROM ONE OF MIDTOAV     NOT ENTERED VIA
000969: 26,2022     4752               MIDAVBIT           =        BIT2                                  #        PORTALS                 MIDTOAV
000970:
000971:                                                                                                  #  BIT 1 FLAG 9  (S)
000972: 26,2022                        AVEMIDSW           =        149D                                  #        AVETOMID CALLING        NO AVETOMID W INTEGR
000973:                                                                                                  #        FOR W.MATRIX INTEGR     ALLOW SET UP RM, VN
000974: 26,2022     4753               AVEMDBIT           =        BIT1                                  #        DON'T WRITE OVER RN,    PIPTIME
000975:                                                                                                  #        VN,PIPTIME
000976:
000977:
000978: 26,2022     0106               RASFLAG            EQUALS   FLGWRD10                              #  WAS ONLY AN INSTALL-ERASTALL FLAG
000979:


000981: 26,2022     0106               FLGWRD10           =        STATE      +10D                       #  (150-164)
000982:
000983:                                                                                                  #        (SET)                   (RESET)
000984:
000985:                                                                                                  #  BIT 15 FLAG 10 (S)
000986: 26,2022                                           =        150D                                  #
000987: 26,2022                                           =        BIT15                                 #  OH 2009-05-15 Line not in scan
000988:
000989:                                                                                                  #  BIT 14 FLAG 10 (L,C)
000990: 26,2022                        INTFLAG            =        151D                                  #        INTEGRATION IN          INTEGRATION NOT IN
000991: 26,2022     4736               INTFLBIT           =        BIT14                                 #        PROGRESS                PROGRESS
000992:
000993:                                                                                                  #  BIT 13 FLAG 10 (S,L)
000994: 26,2022                        APSFLAG            =        152D                                  #        ASCENT STAGE            DESCENT STAGE
000995: 26,2022     4737               APSFLBIT           =        BIT13                                 #         *** PROTECTED FROM FRESH START ***
000996:
000997:                                                                                                  #  BIT 12 FLAG 10
000998: 26,2022                                           =        153D                                  #
000999: 26,2022                                           =        BIT12                                 #  OH 2009-05-15 Line not in scan
001000:
001001:                                                                                                  #  BIT 11 FLAG 10
001002: 26,2022                                           =        154D                                  #
001003: 26,2022                                           =        BIT11                                 #  OH 2009-05-15 Line not in scan
001004:
001005:                                                                                                  #  BIT 10 FLAG 10
001006: 26,2022                                           =        155D                                  #
001007: 26,2022                                           =        BIT10                                 #  OH 2009-05-15 Line not in scan
001008:
001009:                                                                                                  #  BIT 9 FLAG 10
001010: 26,2022                                           =        156D                                  #
001011: 26,2022                                           =        BIT9                                  #  OH 2009-05-15 Line not in scan
001012:
001013:                                                                                                  #  BIT 8 FLAG 10
001014: 26,2022                                           =        157D                                  #
001015: 26,2022                                           =        BIT8                                  #  OH 2009-05-15 Line not in scan
001016:
001017:                                                                                                  #  BIT 7 FLAG 10 (L,C)
001018: 26,2022                        REINTFLG           =        158D                                  #        INTEGRATION ROUTINE     INTEGRATION ROUTINE
001019: 26,2022     4745               REINTBIT           =        BIT7                                  #        TO BE RESTARTED         NOT TO BE RESTARTED
001020:
001021:                                                                                                  #  BIT 6 FLAG 10
001022: 26,2022                                           =        159D                                  #
001023: 26,2022                                           =        BIT6                                  #  OH 2009-05-15 Line not in scan
001024:
001025:                                                                                                  #  BIT 5 FLAG 10
001026: 26,2022                                           =        160D                                  #
001027: 26,2022                                           =        BIT5                                  #  OH 2009-05-15 Line not in scan
001028:


001030:                                                                                                  #  BIT 4 FLAG 10
001031: 26,2022                                           =        161D                                  #
001032: 26,2022                                           =        BIT4                                  #  OH 2009-05-15 Line not in scan
001033:
001034:                                                                                                  #  BIT 3 FLAG 10
001035: 26,2022                                           =        162D
001036: 26,2022                                           =        BIT3                                  #  OH 2009-05-15 Line not in scan
001037:
001038:                                                                                                  #  BIT 2 FLAG 10
001039: 26,2022                                           =        163D                                  #
001040: 26,2022                                           =        BIT2                                  #  OH 2009-05-15 Line not in scan
001041:
001042:                                                                                                  #  BIT 1 FLAG 10
001043: 26,2022                                           =        164D                                  #
001044: 26,2022                                           =        BIT1                                  #  OH 2009-05-15 Line not in scan
001045:
001046:
001047:
001048: 26,2022     0107               FLGWRD11           =        STATE      +11D                       #  (165-179)
001049:
001050:                                                                                                  #        (SET)                   (RESET)
001051:
001052:                                                                                                  #  BIT 15 FLAG 11 (L)(R12)
001053: 26,2022                        LRBYPASS           =        165D                                  #        BYPASS ALL LANDING      DO NOT BYPASS LR
001054: 26,2022     4735               LRBYBIT            =        BIT15                                 #        RADAR UPDATES           UPDATES
001055:
001056:                                                                                                  #  BIT 14 FLAG 11
001057: 26,2022                                           =        166D                                  #
001058: 26,2022                                           =        BIT14                                 #
001059:
001060:                                                                                                  #  BIT 13 FLAG 11
001061: 26,2022                                           =        167D                                  #
001062: 26,2022                                           =        BIT13                                 #
001063:
001064:                                                                                                  #  BIT 12 FLAG 11 (L)(R12)
001065: 26,2022                        VXINH              =        168D                                  #        IF Z VELOCITY DATA      UPDATE X AXIS
001066:                                                                                                  #        UNREASONABLE,           VELOCITY
001067: 26,2022     4740               VXINHBIT           =        BIT12                                 #        BYPASS X VELOCITY
001068:                                                                                                  #        UPDATE ON NEXT PASS
001069:
001070:                                                                                                  #  BIT 11 FLAG 11 (L)(R12)
001071: 26,2022                        PSTHIGAT           =        169D                                  #        PAST HIGATE             PREHIGATE
001072: 26,2022     4741               PSTHIBIT           =        BIT11                                 #
001073:
001074:                                                                                                  #  BIT 10 FLAG 11 (L)(R12)
001075:


001077: 26,2022                        NOLRREAD           =        170D                                  #        LANDING RADAR           LR NOT REPOSITIONING
001078:                                                                                                  #        REPOSITIONING;
001079: 26,2022     4742               NOLRRBIT           =        BIT10                                 #        BYPASS UPDATE
001080:
001081:                                                                                                  #  BIT 9 FLAG 11 (L)(R12)
001082: 26,2022                        XORFLG             =        171D                                  #        BELOW LIMIT             ABOVE LIMIT DO
001083:                                                                                                  #        INHIBIT X AXIS          NOT INHIBIT
001084: 26,2022     4743               XORFLBIT           =        BIT9                                  #        OVERRIDE
001085:
001086:                                                                                                  #  BIT 8 FLAG 11
001087: 26,2022                        LRINH              =        172D                                  #        LANDING RADAR UP-       LR UPDATES INHIBITED
001088: 26,2022     4744               LRINHBIT           =        BIT8                                  #        DATES PERMITTED         BY ASTRONAUT
001089:                                                                                                  #        BY ASTRONAUT
001090:
001091:                                                                                                  #  BIT 7 FLAG 11 (L)(R12)
001092: 26,2022                        VELDATA            =        173D                                  #        LR VELOCITY             LR VELOCITY MEASURE
001093: 26,2022     4745               VELDABIT           =        BIT7                                  #        MEASUREMENT MADE        NOT MADE
001094:
001095:                                                                                                  #  BIT 6 FLAG 11 (L)(R12)
001096: 26,2022                        READLR             =        174D                                  #        OK TO READ LR           DO NOT READ LR RANGE
001097: 26,2022     4746               READLBIT           =        BIT6                                  #        RANGE DATA              DATA
001098:
001099:                                                                                                  #  BIT 5 FLAG 11 (L)(R12)
001100: 26,2022                        READVEL            =        175D                                  #        OK TO READ LR           DO NOT READ LR
001101: 26,2022     4747               READVBIT           =        BIT5                                  #        VELOCITY DATA           VELOCITY DATA
001102:
001103:                                                                                                  #  BIT 4 FLAG 11 (L)(R12)
001104: 26,2022                        RNGEDATA           =        176D                                  #        LR ALTITUDE             LR ALTITUDE MEASURE
001105: 26,2022     4750               RNGEDBIT           =        BIT4                                  #        MEASUREMENT MADE        NOT MADE
001106:
001107:                                                                                                  #  BIT 3 FLAG 11
001108: 26,2022                        SCALBAD            =        177D                                  #        LR LOW SCALE DISP-      LS SCALE DISCRETE
001109: 26,2022     4751               SCABBIT            =        BIT3                                  #        CRETE NOT PRESENT       APPEARS OK
001110:                                                                                                  #        WHEN IT SHOULD
001111:
001112:                                                                                                  #  BIT 2 FLAG 11 (L)(R12)
001113: 26,2022                        VFLSHFLG           =        178D                                  #        LR VELOCITY FAIL        LR VEL FAIL LAMP
001114:                                                                                                  #        LAMP SHOULD BE          SHOULDN'T FLASH
001115: 26,2022     4752               VFLSHBIT           =        BIT2                                  #        FLASHING
001116:
001117:                                                                                                  #  BIT 1 FLAG 11 (L)(R12)


001119: 26,2022                        HFLSHFLG           =        179D                                  #        LR ALTITUDE FAIL        LR ALTITUDE FAIL
001120: 26,2022     4753               HFLSHBIT           =        BIT1                                  #        LAMP SHOULD BE          LAMP SHOULD NOT BE
001121:                                                                                                  #        FLASHING                FLASHING
001122:
001123: 26,2022     0110               RADMODES           EQUALS   FLGWRD12                              #  RADAR FLAG WORD
001124:
001125: 26,2022     0110               FLGWRD12           =        STATE      +12D                       #  (180-194)             WAS RADMODES
001126:
001127:                                                                                                  #        (SET)                   (RESET)
001128:
001129:                                                                                                  #  BIT 15 FLAG 12
001130: 26,2022                        CDESFLAG           =        180D                                  #        CONTINUOUS DESIG-       LGC CHECKS FOR LOCK-
001131: 26,2022     4735               CDESBIT            =        BIT15                                 #        NATE, LGC COMMANDS      ON WHEN ANTENNA
001132:                                                                                                  #        RR REGARDLESS OF        BEING DESIGNATED
001133:                                                                                                  #        LOCK-ON
001134:
001135:                                                                                                  #  BIT 14 FLAG 12
001136: 26,2022                        REMODFLG           =        181D                                  #        CHANGE IN ANTENNA       NO REMODE REQUESTED
001137: 26,2022     4736               REMODBIT           =        BIT14                                 #        MODE BEEN REQUESTED     OR OCCURRING
001138:                                                                                                  #        I.E., REMODE
001139:
001140:                                                                                                  #  BIT 13 FLAG 12
001141: 26,2022                        RCDU0FLG           =        182D                                  #        RR CDU'S BEING          RR CDU'S NOT BEING
001142: 26,2022     4737               RCDU0BIT           =        BIT13                                 #        ZEROED                  ZEROED
001143:
001144:                                                                                                  #  BIT 12 FLAG 12
001145: 26,2022                        ANTENFLG           =        183D                                  #        RR ANTENNA MODE IS      RR ANTENNA IN MODE 1
001146: 26,2022     4740               ANTENBIT           =        BIT12                                 #        MODE 2
001147:
001148:                                                                                                  #  BIT 11 FLAG 12
001149: 26,2022                        REPOSMON           =        184D                                  #        REPOSITION MONITOR.     NO REPOSITION TAKING
001150: 26,2022     4741               REPOSBIT           =        BIT11                                 #        RR REPOSITION IS        PLACE
001151:                                                                                                  #        TAKING PLACE
001152:
001153:                                                                                                  #  BIT 10 FLAG 12
001154: 26,2022                        DESIGFLG           =        185D                                  #        RR DESIGNATE            RR DESIGNATE NOT
001155: 26,2022     4742               DESIGBIT           =        BIT10                                 #        REQUESTED OR IN         REQUESTED OR IN
001156:                                                                                                  #        PROGRESS                PROGRESS
001157:
001158:                                                                                                  #  BIT 9 FLAG 12
001159: 26,2022                        ALTSCALE           =        186D                                  #        LR ALTITUDE READING     LR ALTITUDE READING
001160: 26,2022     4743               ALTSCBIT           =        BIT9                                  #        IS ON HIGH SCALE        IS ON LOW SCALE
001161:


001163:                                                                                                  #  BIT 8 FLAG 12
001164: 26,2022                        LRVELFLG           =        187D                                  #        LR VELOCITY DATA        NO LR VELOCITY DATA
001165: 26,2022     4744               LRVELBIT           =        BIT8                                  #        FAIL                    FAIL
001166:
001167:                                                                                                  #  BIT 7 FLAG 12
001168: 26,2022                        RCDUFAIL           =        188D                                  #        RR CDU FAIL HAS         RR CDU FAIL OCCURRED
001169: 26,2022     4745               RCDUFBIT           =        BIT7                                  #        NOT OCCURRED
001170:
001171:                                                                                                  #  BIT 6 FLAG 12
001172: 26,2022                        LRPOSFLG           =        189D                                  #        LANDING RADAR           LR POSITION 1
001173: 26,2022     4746               LRPOSBIT           =        BIT6                                  #        POSITION 2
001174:
001175:                                                                                                  #  BIT 5 FLAG 12
001176: 26,2022                        LRALTFLG           =        190D                                  #        LR ALTITUDE DATA        NO LR ALTITUDE DATA
001177: 26,2022     4747               LRALTBIT           =        BIT5                                  #        FAIL.  COULD NOT BE     FAIL
001178:                                                                                                  #        READ SUCCESSFULLY.
001179:
001180:                                                                                                  #  BIT 4 FLAG 12
001181: 26,2022                        RRDATAFL           =        191D                                  #        RR DATA FAIL.           NO RR DATA FAIL
001182: 26,2022     4750               RRDATABT           =        BIT4                                  #        DATA COULD NOT BE
001183:                                                                                                  #        READ SUCCESSFULLY
001184:
001185:                                                                                                  #  BIT 3 FLAG 12
001186: 26,2022                        RRRSFLAG           =        192D                                  #        RR RANGE READING        RR RANGE READING ON
001187: 26,2022     4751               RRRSBIT            =        BIT3                                  #        ON THE HIGH SCALE       THE LOW SCALE
001188:
001189:                                                                                                  #  BIT 2 FLAG 12
001190: 26,2022                        AUTOMODE           =        193D                                  #        RR NOT IN AUTO MODE.    RR IN AUTO MODE
001191: 26,2022     4752               AUTOMBIT           =        BIT2                                  #        AUTO MODE DISCRETE
001192:                                                                                                  #        IS NOT PRESENT
001193:
001194:                                                                                                  #  BIT 1 FLAG 12
001195: 26,2022                        TURNONFL           =        194D                                  #        RR TURN-ON SEQUENCE     NO RR TURN-ON
001196: 26,2022     4753               TURNONBT           =        BIT1                                  #        IN PROGRESS.  (ZERO     SEQUENCE IN PROGRESS
001197:                                                                                                  #        CDU'S, FIX ANTENNA
001198:                                                                                                  #        MODE)
001199:
001200: 26,2022     0111               DAPBOOLS           EQUALS   FLGWRD13                              #  DIGITAL AUTOPILOT FLAGWORD
001201:


001203: 26,2022     0111               FLGWRD13           =        STATE      +13D                       #  (195-209)     WAS DAPBOOLS
001204:
001205:                                                                                                  #        (SET)                   (RESET)
001206:
001207:                                                                                                  #  BIT 15 FLAG 13
001208: 26,2022                        PULSEFLG           =        195D                                  #        MINIMUM IMPUSE          NOT IN MINIMUM
001209: 26,2022     4735               PULSES             =        BIT15                                 #        COMMAND MODE IN         IMPULSE COMMAND MODE
001210:                                                                                                  #        "ATT HOLD" (V76)        (V77)
001211:
001212:                                                                                                  #  BIT 14 FLAG 13
001213: 26,2022                        USEQRFLG           =        196D                                  #        GIMBAL UNUSABLE.        TRIM GIMBAL MAY BE
001214: 26,2022     4736               USEQRJTS           =        BIT14                                 #        USE JETS ONLY.          USED.
001215:
001216:                                                                                                  #  BIT 13 FLAG 13
001217: 26,2022                        CSMDKFLG           =        197D                                  #        CSM DOCKED.  USE        CSM NOT DOCKED TO LM
001218: 26,2022     4737               CSMDOCKD           =        BIT13                                 #        BACKUP DAP
001219:
001220:                                                                                                  #  BIT 12 FLAG 13
001221: 26,2022                        OURRCFLG           =        198D                                  #        CURRENT DAP PASS        CURRENT DAP PASS IS
001222: 26,2022     4740               OURRCBIT           =        BIT12                                 #        IS RATE COMMAND         NOT RATE COMMAND
001223:
001224:                                                                                                  #  BIT 11 FLAG 13
001225: 26,2022                        ACC4-2FL           =        199D                                  #        4 JET X-AXIS TRANS-     2 JET X-AXIS TRANS-
001226: 26,2022     4741               ACC4OR2X           =        BIT11                                 #        LATION REQUESTED        LATION REQUESTED
001227:
001228:                                                                                                  #  BIT 10 FLAG 13
001229: 26,2022                        AORBTFLG           =        200D                                  #        B SYSTEM FOR X-         A SYSTEM FOR X-
001230: 26,2022     4742               AORBTRAN           =        BIT10                                 #        TRANSLATION             TRANSLATION PREFER'D
001231:
001232:                                                                                                  #  BIT 9 FLAG 13
001233: 26,2022                        XOVINFLG           =        201D                                  #        X-AXIS OVERRIDE         X-AXIS OVERRIDE OKAY
001234: 26,2022     4743               XOVINHIB           =        BIT9                                  #        LOCKED OUT
001235:
001236:                                                                                                  #  BIT 8 FLAG 13
001237: 26,2022                        DRIFTDFL           =        202D                                  #        ASSUME 0 OFFSET         USE OFFSET ACCELERA-
001238: 26,2022     4744               DRIFTBIT           =        BIT8                                  #        DRIFTING FLIGHT         ION ESTIMATE
001239:
001240:                                                                                                  #  BIT 7 FLAG 13
001241: 26,2022                        RHCSCFLG           =        203D                                  #        NORMAL RHC SCALING      FINE RHC SCALING
001242: 26,2022     4745               RHCSCALE           =        BIT7                                  #        REQUESTED               REQUESTED
001243:


001245:                                                                                                  #  BIT 6 FLAG 13
001246: 26,2022                        ULLAGFLG           =        204D                                  #        ULLAGE REQUEST BY       NO INTERNAL ULLAGE
001247: 26,2022     4746               ULLAGER            =        BIT6                                  #        MISSION PROGRAM         REQUEST
001248:
001249:                                                                                                  #  BIT 5 FLAG 13
001250: 26,2022                        AORBSFLG           =        205D                                  #        P-AXIS COUPLES 7.15     P-AXIS COUPLES 4.12
001251: 26,2022     4747               AORBSYST           =        BIT5                                  #        AND 8.16 PREFERRED      AND 3.11 PREFERRED
001252:
001253:                                                                                                  #  BIT 4 FLAG 13
001254: 26,2022                        DBSELFLG           =        206D                                  #        MAX DB SELECTED         MIN DB SELECTED BY
001255: 26,2022     4750               DBSELECT           =        BIT4                                  #        BY CREW (5 DEG)         CREW (0.3 DEG)
001256:
001257:                                                                                                  #  BIT 3 FLAG 13
001258: 26,2022                        ACCOKFLG           =        207D                                  #        CONTROL AUTHORITY       RESTART OR FRESH ST.
001259: 26,2022     4751               ACCSOKAY           =        BIT3                                  #        VALUES FROM 1/ACCS      SINCE LAST 1/ACCS;
001260:                                                                                                  #        USABLE                  OUTPUTS SUSPECT.
001261:
001262:                                                                                                  #  BIT 2 FLAG 13
001263: 26,2022                        AUTR2FLG           =        208D                                  #  THESE FLAGS ARE USED TOGETHER TO INDICATE
001264: 26,2022     4752               AUTRATE2           =        BIT2                                  #  ASTRONAUT-CHOSEN KALCMANU MANEUVER RATES
001265:                                                                                                  #  (0,0)=(BIT2,BIT1)=    0.2 DEG/SEC
001266:                                                                                                  #  BIT 1 FLAG 13                                 # (0,1)=                0.5 DEG/SEC
001267: 26,2022                        AUTR1FLG           =        209D                                  #  (1,0)=                2.0 DEG/SEC
001268: 26,2022     4753               AUTRATE1           =        BIT1                                  #  (1,1)=               10.0 DEG/SEC
001269:


001271:

End of include-file FLAGWORD_ASSIGNMENTS.agc.  Parent file is MAIN.agc


