
Source Code


000002:                                                                                                  ## Copyright:   Public domain.
000003:                                                                                                  ## Filename:    FLAGWORD_ASSIGNMENTS.agc
000004:                                                                                                  ## Purpose:     Part of the source code for Luminary 1A build 099.
000005:                                                                                                  ##              It is part of the source code for the Lunar Module's (LM)
000006:                                                                                                  ##              Apollo Guidance Computer (AGC), for Apollo 11.
000007:                                                                                                  ## Assembler:   yaYUL
000008:                                                                                                  ## Contact:     Onno Hommes <ohommes@cmu.edu>.
000009:                                                                                                  ## Website:     www.ibiblio.org/apollo.
000010:                                                                                                  ## Pages:       0061-0089
000011:                                                                                                  ## Mod history: 2009-05-15 OH   Transcribed from page images.
000012:                                                                                                  ##              2009-05-17 RSB  Extended to (blank) p. 89.
000013:                                                                                                  ##              2010-12-31 JL   Fixed page number comment.
000014:                                                                                                  ##              2016-12-13 RSB  Proofed text comments with octopus/ProoferComments
000015:                                                                                                  ##                              and corrected the errors found.
000016:                                                                                                  ##
000017:                                                                                                  ## This source code has been transcribed or otherwise adapted from
000018:                                                                                                  ## digitized images of a hardcopy from the MIT Museum.  The digitization
000019:                                                                                                  ## was performed by Paul Fjeld, and arranged for by Deborah Douglas of
000020:                                                                                                  ## the Museum.  Many thanks to both.  The images (with suitable reduction
000021:                                                                                                  ## in storage size and consequent reduction in image quality as well) are
000022:                                                                                                  ## available online at www.ibiblio.org/apollo.  If for some reason you
000023:                                                                                                  ## find that the images are illegible, contact me at info@sandroid.org
000024:                                                                                                  ## about getting access to the (much) higher-quality images which Paul
000025:                                                                                                  ## actually created.
000026:                                                                                                  ##
000027:                                                                                                  ## Notations on the hardcopy document read, in part:
000028:                                                                                                  ##
000029:                                                                                                  ##      Assemble revision 001 of AGC program LMY99 by NASA 2021112-61
000030:                                                                                                  ##      16:27 JULY 14, 1969
000031:
000032:


000034:                                                                                                  #  FLAGWORDS 0-11        ARE DOWNLINKED AND CAN BE SET AND CLEARED BY UP-FLAG AND DOWN-FLAG INSTRUCTIONS IN THE
000035:                                                                                                  #                        INTERPRETER.  THESE WERE PREVIOUSLY LISTED UNDER "INTERPRETIVE SWITCH BIT ASSIGNMENTS" IN
000036:                                                                                                  #                        THE ERASABLE LOG SECTION.  FLAGWORDS 12 & 13 WERE PREVIOUSLY RADMODES AND DAPBOOLS AND
000037:                                                                                                  #                        ARE STILL DOWNLINKED UNDER THOSE NAMES.
000038:
000039:                                                                                                  #                ALPHABETICAL LIST OF FLAGWORDS
000040:
000041:
000042:                                                                                                  #  FLAGWORD      DEC. NUMBER     BIT AND FLAG            BIT NAME
000043:
000044:                                                                                                  #  ACCOKFLG      207             BIT  3 FLAG 13          ACCSOKAY
000045:                                                                                                  #  ACC4-2FL      199             BIT 11 FLAG 13          ACC4OR2X
000046:                                                                                                  #  ACMODFLG      032             BIT 13 FLAG  2          ACMODBIT
000047:                                                                                                  #  ALTSCALE      186             BIT  9 FLAG 12          ALTSCBIT
000048:                                                                                                  #  ANTENFLG      183             BIT 12 FLAG 12          ANTENBIT
000049:                                                                                                  #  AORBSFLG      205             BIT  5 FLAG 13          AORBSYST
000050:                                                                                                  #  AORBTFLG      200             BIT 10 FLAG 13          AORBTRAN
000051:                                                                                                  #  APSESW        130             BIT  5 FLAG  8          APSESBIT
000052:                                                                                                  #  APSFLAG       152             BIT 13 FLAG 10          APSFLBIT
000053:                                                                                                  #  ASTNFLAG      108             BIT 12 FLAG  7          ASTNBIT
000054:                                                                                                  #  ATTFLAG       104             BIT  1 FLAG  6          ATTFLBIT
000055:                                                                                                  #  AUTOMODE      193             BIT  2 FLAG 12          AUTOMBIT
000056:                                                                                                  #  AUTR1FLG      209             BIT  1 FLAG 13          AUTRATE1
000057:                                                                                                  #  AUTR2FLG      208             BIT  2 FLAG 13          AUTRATE2
000058:                                                                                                  #  AUXFLAG       103             BIT  2 FLAG  6          AUXFLBIT
000059:                                                                                                  #  AVEGFLAG      115             BIT  5 FLAG  7          AVEGFBIT
000060:                                                                                                  #  AVEMIDSW      149             BIT  1 FLAG  9          AVEMDBIT
000061:                                                                                                  #  AVFLAG        040             BIT  5 FLAG  2          AVFLBIT
000062:                                                                                                  #  CALCMAN2      043             BIT  2 FLAG  2          CALC2BIT
000063:                                                                                                  #  CALCMAN3      042             BIT  3 FLAG  2          CALC3BIT
000064:                                                                                                  #  CDESFLAG      180             BIT 15 FLAG 12          CDESBIT
000065:                                                                                                  #  CMOONFLG      123             BIT 12 FLAG  8          CMOONBIT
000066:                                                                                                  #  COGAFLAG      131             BIT  4 FLAG  8          COGAFBIT
000067:                                                                                                  #  CSMDKFLG      197             BIT 13 FLAG 13          CSMDOCKD
000068:                                                                                                  #  CULTFLAG      053             BIT  7 FLAG  3          CULTBIT
000069:                                                                                                  #  DAPBOOLS                      FLGWRD13
000070:                                                                                                  #  DBSELFLG      206             BIT  4 FLAG 13          DBSELECT
000071:                                                                                                  #  DESIGFLG      185             BIT 10 FLAG 12          DESIGBIT
000072:                                                                                                  #  DIDFLAG       016             BIT 14 FLAG             DIDFLBIT
000073:                                                                                                  #  DIMOFLAG      059             BIT  1 FLAG  3          DIMOBIT
000074:                                                                                                  #  DMENFLG       081             BIT  9 FLAG  5          DMENFBIT
000075:                                                                                                  #  DRIFTDFL      202             BIT  8 FLAG 13          DRIFTBIT
000076:                                                                                                  #  DRIFTFLG      030             BIT 15 FLAG  2          DRFTBIT
000077:                                                                                                  #  DSKYFLAG      075             BIT 15 FLAG  5          DSKYFBIT


000079:                                                                                                  #  D6OR9FLG      058             BIT  2 FLAG  3          D6OR9BIT
000080:                                                                                                  #  ENGONFLG      083             BIT  7 FLAG  5          ENGONBIT
000081:                                                                                                  #  ERADFLAG      017             BIT 13 FLAG  1          ERADFBIT
000082:                                                                                                  #  ETPIFLAG      038             BIT  7 FLAG  2          ETPIBIT         EQUIVALENT FLAG NAME: DPTNSW
000083:                                                                                                  #  FINALFLG      039             BIT  6 FLAG  2          FINALBIT
000084:                                                                                                  #  FLAGWRD0      (000-014)       (STATE +0)
000085:                                                                                                  #  FLAGWRD1      (015-029)       (STATE +1)
000086:                                                                                                  #  FLAGWRD2      (030-044)       (STATE +2)
000087:                                                                                                  #  FLAGWRD3      (045-059)       (STATE +3)
000088:                                                                                                  #  FLAGWRD4      (060-074)       (STATE +4)
000089:                                                                                                  #  FLAGWRD5      (075-089)       (STATE +5)
000090:                                                                                                  #  FLAGWRD6      (090-104)       (STATE +6)
000091:                                                                                                  #  FLAGWRD7      (105-119)       (STATE +7)
000092:                                                                                                  #  FLAGWRD8      (120-134)       (STATE +8D)
000093:                                                                                                  #  FLAGWRD9      (135-149)       (STATE +9D)
000094:                                                                                                  #  FLAP          142             BIT  8 FLAG  9          FLAPBIT
000095:                                                                                                  #  FLGWRD10      (150-164)       (STATE +10D)
000096:                                                                                                  #  FLGWRD11      (165-179)       (STATE +11D)
000097:                                                                                                  #  FLGWRD12      (180-194)       (STATE +12D)
000098:                                                                                                  #  FLGWRD13      (195-209)       (STATE +13D)
000099:                                                                                                  #  FLPC          138             BIT 12 FLAG  9          FLPCBIT
000100:                                                                                                  #  FLPI          139             BIT 11 FLAG  9          FLPIBIT
000101:                                                                                                  #  FLRCS         149             BIT 10 FLAG  9          FLRCSBIT
000102:                                                                                                  #  FLUNDISP      125             BIT 10 FLAG  8          FLUNDBIT
000103:                                                                                                  #  FLVR          136             BIT 14 FLAG  9          FLVRBIT
000104:                                                                                                  #  FREEFLAG      012             BIT  3 FLAG  0          FREEFBIT
000105:                                                                                                  #  FSPASFLG      005             BIT 10 FLAG  0          FSPASBIT
000106:                                                                                                  #  GLOKFAIL      046             BIT 14 FLAG  3          GLOKFBIT
000107:                                                                                                  #  GMBDRVSW      095             BIT 10 FLAG  6          GMBDRBIT
000108:                                                                                                  #  GUESSW        028             BIT  2 FLAG  1          GUESSBIT
000109:                                                                                                  #  HFLSHFLG      179             BIT  1 FLAG 11          HFLSHBIT
000110:                                                                                                  #  IDLEFLAG      113             BIT  7 FLAG  7          IDLEFBIT
000111:                                                                                                  #  IGNFLAG       107             BIT 13 FLAG  7          IGNFLBIT
000112:                                                                                                  #  IMPULSW       036             BIT  9 FLAG  2          IMPULBIT
000113:                                                                                                  #  IMUSE         007             BIT  8 FLAG  0          IMUSEBIT
000114:                                                                                                  #  INFINFLG      128             BIT  7 FLAG  8          INFINBIT
000115:                                                                                                  #  INITALGN      133             BIT  2 FLAG  8          INITABIT
000116:                                                                                                  #  INTFLAG       151             BIT 14 FLAG 10          INTFLBIT
000117:                                                                                                  #  INTYPFLG      056             BIT  4 FLAG  3          INTYPBIT
000118:                                                                                                  #  ITSWICH       105             BIT 15 FLAG  7          ITSWBIT
000119:                                                                                                  #  JSWITCH       001             BIT 14 FLAG  0          JSWCHBIT
000120:                                                                                                  #  LETABORT      141             BIT  9 FLAG  9          LETABBIT
000121:                                                                                                  #  LMOONFLG      124             BIT 11 FLAG  8          LMOONBIT
000122:                                                                                                  #  LOKONSW       010             BIT  5 FLAG  0          LOKONBIT
000123:                                                                                                  #  LOSCMFLG      033             BIT 12 FLAG  2          LOSCMBIT
000124:                                                                                                  #  LRALTFLG      190             BIT  5 FLAG 12          LRALTBIT
000125:                                                                                                  #  LRBYPASS      165             BIT 15 FLAG 11          LRBYBIT
000126:                                                                                                  #  LRINH         172             BIT  8 FLAG 11          LRINHBIT
000127:                                                                                                  #  LRPOSFLG      189             BIT  6 FLAG 12          LRPOSBIT
000128:                                                                                                  #  LRVELFLG      187             BIT  8 FLAG 12          LRVELBIT


000130:                                                                                                  #  LUNAFLAG      048             BIT 12 FLAG  3          LUNABIT
000131:                                                                                                  #  MANUFLAG      106             BIT 14 FLAG  7          MANUFBIT
000132:                                                                                                  #  MGLVFLAG      088             BIT  2 FLAG  5          MGLVFBIT
000133:                                                                                                  #  MIDAVFLG      148             BIT  2 FLAG  9          MIDAVBIT
000134:                                                                                                  #  MIDFLAG       002             BIT 13 FLAG  0          MIDFLBIT
000135:                                                                                                  #  MID1FLAG      147             BIT  3 FLAG  9          MID1BIT
000136:                                                                                                  #  MKOVFLAG      072             BIT  3 FLAG  4          MKOVBIT
000137:                                                                                                  #  MOONFLAG      003             BIT 12 FLAG  0          MOONBIT
000138:                                                                                                  #  MRKIDFLG      060             BIT 15 FLAG  4          MRKIDBIT
000139:                                                                                                  #  MRKNVFLG      066             BIT  9 FLAG  4          MRKNVBIT
000140:                                                                                                  #  MRUPTFLG      070             BIT  5 FLAG  4          MRUPTBIT
000141:                                                                                                  #  MUNFLAG       097             BIT  8 FLAG  6          MUNFLBIT
000142:                                                                                                  #  MWAITFLG      064             BIT 11 FLAG  4          MWAITBIT
000143:                                                                                                  #  NEEDLFLG      011             BIT  4 FLAG  0          NEEDLBIT
000144:                                                                                                  #  NEWIFLG       122             BIT 13 FLAG  8          NEWIBIT
000145:                                                                                                  #  NJETSFLG      015             BIT 15 FLAG             NJETSBIT
000146:                                                                                                  #  NODOFLAG      044             BIT  1 FLAG  2          NODOBIT
000147:                                                                                                  #  NOLRREAD      170             BIT 10 FLAG 11          NOLRRBIT
000148:                                                                                                  #  NORMSW        110             BIT 10 FLAG  7          NORMSBIT
000149:                                                                                                  #  NORRMON       086             BIT  4 FLAG  5          NORRMBIT
000150:                                                                                                  #  NOR29FLG      049             BIT 11 FLAG  3          NR29FBIT
000151:                                                                                                  #  NOTHROTL      078             BIT 12 FLAG  5          NOTHRBIT
000152:                                                                                                  #  NOUPFLAG      024             BIT  6 FLAG  1          NOUPFBIT
000153:                                                                                                  #  NRMNVFLG      067             BIT  8 FLAG  4          NRMNVBIT
000154:                                                                                                  #  NRMIDFLG      062             BIT 13 FLAG  4          NRMIDBIT
000155:                                                                                                  #  NRUPTFLG      071             BIT  4 FLAG  4          NRUPTBIT
000156:                                                                                                  #  NTARGFLG      102             BIT  3 FLAG  6          NTARGBIT
000157:                                                                                                  #  NWAITFLG      065             BIT 10 FLAG  4          NWAITBIT
000158:                                                                                                  #  OLDESFLG      014             BIT  1 FLAG  0          OLDESBIT
000159:                                                                                                  #  OPTNSW        038             BIT  7 FLAG  2          OPTNBIT         EQUIVALENT FLAG NAME: ETPIFLAG
000160:                                                                                                  #  ORBWFLAG      054             BIT  6 FLAG  3          ORBWFBIT
000161:                                                                                                  #  ORDERSW       129             BIT  6 FLAG  8          ORDERBIT
000162:                                                                                                  #  OURRCFLG      198             BIT 12 FLAG 13          OURRCBIT
000163:                                                                                                  #  PDSPFLAG      063             BIT 12 FLAG  4          PDSPFBIT
000164:                                                                                                  #  PFRATFLG      041             BIT  4 FLAG  2          PFRATBIT
000165:                                                                                                  #  PINBRFLG      069             BIT  6 FLAG  4          PINBRBIT
000166:                                                                                                  #  PRECIFLG      052             BIT  8 FLAG  3          PRECIBIT
000167:                                                                                                  #  PRIODFLG      061             BIT 14 FLAG  1          PRIODBIT
000168:                                                                                                  #  PRONVFLG      068             BIT  7 FLAG  4          PRONVBIT
000169:                                                                                                  #  PSTHIGAT      169             BIT 11 FLAG 11          PSTHIBIT
000170:                                                                                                  #  PULSEFLG      195             BIT 15 FLAG 13          PULSES
000171:                                                                                                  #  P21FLAG       004             BIT 11 FLAG  0          P21FLBIT
000172:                                                                                                  #  P25FLAG       006             BIT  9 FLAG  0          P25FLBIT
000173:                                                                                                  #  P39/79SW      126             BIT  9 FLAG  8          P39SWBIT
000174:                                                                                                  #  QUITFLAG      145             BIT 5 FLAG 9            QUITBIT
000175:                                                                                                  #  RADMODES                      FLGWRD12
000176:                                                                                                  #  RASFLAG                       FLGWRD10
000177:                                                                                                  #  RCDUFAIL      188             BIT  7 FLAG 12          RCDUFBIT
000178:                                                                                                  #  RCDU0FLG      182             BIT 13 FLAG 12          RCDU0BIT
000179:                                                                                                  #  READLR        174             BIT  6 FLAG 11          READLBIT


000181:                                                                                                  #  READRFLG      051             BIT  9 FLAG  3          READRBIT        EQUIVALENT FLAG NAME:  R04FLAG
000182:                                                                                                  #  READVEL       175             BIT  5 FLAG 11          READVBIT
000183:                                                                                                  #  REDFLAG       099             BIT  6 FLAG  6          REDFLBIT
000184:                                                                                                  #  REFSMFLG      047             BIT 13 FLAG  3          REFSMBIT
000185:                                                                                                  #  REINTFLG      158             BIT  7 FLAG 10          REINTBIT
000186:                                                                                                  #  REMODFLG      181             BIT 14 FLAG 12          REMODBIT
000187:                                                                                                  #  RENDWFLG      089             BIT  1 FLAG  5          RENDWBIT
000188:                                                                                                  #  REPOSMON      184             BIT 11 FLAG 12          REPOSBIT
000189:                                                                                                  #  RHCSCFLG      203             BIT  7 FLAG 13          RHCSCALE
000190:                                                                                                  #  RNDVZFLG      008             BIT  7 FLAG  0          RNDVZBIT
000191:                                                                                                  #  RNGEDATA      176             BIT  4 FLAG 11          RNGEDBIT
000192:                                                                                                  #  RNGSCFLG      080             BIT 10 FLAG  5          RNGSCBIT
000193:                                                                                                  #  RODFLAG       018             BIT 12 FLAG  1          RODFLBIT
000194:                                                                                                  #  ROTFLAG       144             BIT  6 FLAG  9          ROTFLBIT
000195:                                                                                                  #  RPQFLAG       120             BIT 15 FLAG  8          RPQFLBIT
000196:                                                                                                  #  RRDATAFL      191             BIT  4 FLAG 12          RRDATABT
000197:                                                                                                  #  RRNBSW        009             BIT  6 FLAG  0          RRNBBIT
000198:                                                                                                  #  RRRSFLAG      192             BIT  3 FLAG 12          RRRSBIT
000199:                                                                                                  #  RVSW          111             BIT  9 FLAG  7          RVSWBIT
000200:                                                                                                  #  R04FLAG       051             BIT  9 FLAG  3          R04FLBIT        EQUIVALENT FLAG NAME:  READRFLG
000201:                                                                                                  #  R10FLAG       013             BIT  2 FLAG  0          R10FLBIT
000202:                                                                                                  #  R61FLAG       020             BIT 10 FLAG  1          R61FLBIT
000203:                                                                                                  #  R77FLAG       079             BIT 11 FLAG  5          R77FLBIT
000204:                                                                                                  #  SCALBAD       177             BIT  3 FLAG 11          SCABBIT
000205:                                                                                                  #  SLOPESW       027             BIT  3 FLAG  1          SLOPEBIT
000206:                                                                                                  #  SNUFFER       077             BIT 13 FLAG  5          SNUFFBIT
000207:                                                                                                  #  SOLNSW        087             BIT  3 FLAG  5          SOLNSBIT
000208:                                                                                                  #  SRCHOPTN      031             BIT 14 FLAG  2          SRCHOBIT
000209:                                                                                                  #  STATEFLG      055             BIT  5 FLAG  3          STATEBIT
000210:                                                                                                  #  STEERSW       034             BIT 11 FLAG  2          STEERBIT
000211:                                                                                                  #  SURFFLAG      127             BIT  8 FLAG  8          SURFFBIT
000212:                                                                                                  #  SWANDISP      109             BIT 11 FLAG  7          SWANDBIT
000213:                                                                                                  #  S32.1F1       090             BIT 15 FLAG  6          S32BIT1
000214:                                                                                                  #  S32.1F2       091             BIT 14 FLAG  6          S32BIT2
000215:                                                                                                  #  S32.1F3A      092             BIT 13 FLAG  6          S32BIT3A
000216:                                                                                                  #  S32.1S3B      093             BIT 12 FLAG  6          S32BIT3B
000217:                                                                                                  #  TFFSW         119             BIT  1 FLAG  7          TFFSWBIT
000218:                                                                                                  #  TRACKFLG      025             BIT  5 FLAG  1          TRACKBIT
000219:                                                                                                  #  TURNONFL      194             BIT  1 FLAG 12          TURNONBT
000220:                                                                                                  #  ULLAGFLG      204             BIT  6 FLAG 13          ULLAGER
000221:                                                                                                  #  UPDATFLG      023             BIT  7 FLAG  1          UPDATBIT
000222:                                                                                                  #  UPLOCKFL      116             BIT  4 FLAG 7           UPLOCBIT
000223:                                                                                                  #  USEQRFLG      196             BIT 14 FLAG 13          USEQRJTS
000224:                                                                                                  #  VEHUPFLG      022             BIT  8 FLAG  1          VEHUPBIT
000225:                                                                                                  #  VELDATA       173             BIT  7 FLAG 11          VELDABIT
000226:                                                                                                  #  VERIFLAG      117             BIT  3 FLAG  7          VERIFBIT
000227:                                                                                                  #  VFLAG         050             BIT 10 FLAG  3          VFLAGBIT
000228:                                                                                                  #  VFLSHFLG      178             BIT  2 FLAG 11          VFLSHBIT
000229:                                                                                                  #  VINTFLAG      057             BIT  3 FLAG  3          VINTFBIT
000230:                                                                                                  #  VXINH         168             BIT 12 FLAG 11          VXINHBIT


000232:                                                                                                  #  V37FLAG       114             BIT  6 FLAG  7          V37FLBIT
000233:                                                                                                  #  V67FLAG       112             BIT  8 FLAG  7          V67FLBIT
000234:                                                                                                  #  V82EMFLG      118             BIT  2 FLAG  7          V82EMBIT
000235:                                                                                                  #  XDELVFLG      037             BIT  8 FLAG  2          XDELVBIT
000236:                                                                                                  #  XDSPFLAG      074             BIT  1 FLAG  4          XDSPBIT
000237:                                                                                                  #  XORFLG        171             BIT  9 FLAG 11          XORFLBIT
000238:                                                                                                  #  XOVINFLG      201             BIT  9 FLAG 13          XOVINHIB
000239:                                                                                                  #  3AXISFLG      084             BIT  6 FLAG  5          3AXISBIT
000240:                                                                                                  #  360SW         134             BIT  1 FLAG  8          360SWBIT
000241:
000242:                                                                                                  #  ASSIGNMENT AND DESCRIPTION OF FLAGWORDS
000243:
000244: 26,2022     0074               FLAGWRD0           =        STATE      +0                         #  (000-014)
000245:
000246:                                                                                                  #        (SET)                   (RESET)
000247:
000248:                                                                                                  #  BIT 15 FLAG 0 (S)
000249:                                                                                                  #                =       000D
000250:                                                                                                  #                =       BIT15
000251:
000252:                                                                                                  #  BIT 14 FLAG 0 (S)
000253: 26,2022                        JSWITCH            =        001D                                  #        INTEGRATION OF W        INTEGRATION OF STATE
000254: 26,2022     4736               JSWCHBIT           =        BIT14                                 #        MATRIX                  VECTOR
000255:
000256:                                                                                                  #  BIT 13 FLAG 0 (S)
000257: 26,2022                        MIDFLAG            =        002D                                  #        INTEGRATION WITH        INTEGRATION WITHOUT
000258:                                                                                                  #        SECONDARY BODY AND      SOLAR PERTURBATIONS
000259: 26,2022     4737               MIDFLBIT           =        BIT13                                 #        SOLAR PERTURBATIONS
000260:
000261:                                                                                                  #  BIT 12 FLAG 0 (L)
000262: 26,2022                        MOONFLAG           =        003D                                  #        MOON IS SPHERE OF       EARTH IS SPHERE OF
000263: 26,2022     4740               MOONBIT            =        BIT12                                 #        INFLUENCE               INFLUENCE
000264:
000265:                                                                                                  #  BIT 11 FLAG 0
000266: 26,2022                        P21FLAG            =        004D                                  #        USE BASE VECTORS        1ST PASS -- CALC-
000267: 26,2022     4741               P21FLBIT           =        BIT11                                 #        ALREADY CALCULATED      ULATE BASE VECTORS
000268:
000269:                                                                                                  #  BIT 10 FLAG 0
000270: 26,2022                        FSPASFLG           =        005D                                  #        FIRST PASS THROUGH      NOT FIRST PASS THRU
000271: 26,2022     4742               FSPASBIT           =        BIT10                                 #        REPOSITION ROUTINE      REPOSITION ROUTINE
000272:


000274:                                                                                                  #  BIT 9 FLAG 0  (S)
000275: 26,2022                        P25FLAG            =        006D                                  #        P25 OPERATING           P25 NOT OPERATING
000276: 26,2022     4743               P25FLBIT           =        BIT9
000277:
000278:                                                                                                  #  BIT 8 FLAG 0  (S)
000279: 26,2022                        IMUSE              =        007D                                  #        IMU IN USE              IMU NOT IN USE
000280: 26,2022     4744               IMUSEBIT           =        BIT8
000281:
000282:                                                                                                  #  BIT 7 FLAG 0  (S)
000283: 26,2022                        RNDVZFLG           =        008D                                  #        P20 RUNNING (RADAR      P20 NOT RUNNING
000284: 26,2022     4745               RNDVZBIT           =        BIT7                                  #        IN USE)
000285:
000286:                                                                                                  #  BIT 6 FLAG 0  (S)
000287: 26,2022                        RRNBSW             =        009D                                  #        RADAR TARGET IN         RADAR TARGET IN
000288: 26,2022     4746               RRNBBIT            =        BIT6                                  #        NB COORDINATES          SM COORDINATES
000289:
000290:                                                                                                  #  BIT 5 FLAG 0  (S)
000291: 26,2022                        LOKONSW            =        010D                                  #        RADAR LOCK-ON           RADAR LOCK-ON NOT
000292: 26,2022     4747               LOKONBIT           =        BIT5                                  #        DESIRED                 DESIRED
000293:
000294:                                                                                                  #  BIT 4 FLAG 0  (S)
000295: 26,2022                        NEEDLFLG           =        011D                                  #        TOTAL ATTITUDE          A/P FOLLOWING
000296: 26,2022     4750               NEEDLBIT           =        BIT4                                  #        ERROR DISPLAYED         ERROR DISPLAYED
000297:
000298:                                                                                                  #  BIT 3 FLAG 0
000299: 26,2022                        FREEFLAG           =        012D                                  #  (USED BY P51-53 TEMP IN MANY DIFFERENT
000300:                                                                                                  #  ROUTINES & BY LUNAR + SOLAR EPHEMERIDES)
000301: 26,2022     4751               FREEFBIT           =        BIT3
000302:
000303:                                                                                                  #  BIT 2 FLAG 0
000304: 26,2022                        R10FLAG            =        013D                                  #        R10 OUTPUTS DATA TO     BESIDES OUTPUT WHEN
000305: 26,2022     4752               R10FLBIT           =        BIT2                                  #        ALTITUDE & ALTITUDE     SET, R10 ALSO OUTPUT
000306:                                                                                                  #        RATE METERS ONLY        TO FORWARD & LATERAL
000307:                                                                                                  #                                VELOCITY CROSSPOINTR
000308:
000309:                                                                                                  #  BIT 1 FLAG 0  (L)
000310: 26,2022                        OLDESFLG           =        014D                                  #        R29 GYRO CMD LOOP       R29 GYRO CMD LOOP
000311: 26,2022     4753               OLDESBIT           =        BIT1                                  #        REQUESTED               NOT REQUESTED
000312:
000313:
000314: 26,2022     0075               FLAGWRD1           =        STATE      +1                         #  (015-029)
000315:


000317:                                                                                                  #        (SET)                   (RESET)
000318:
000319:                                                                                                  #  BIT 15 FLAG 1 (S)
000320: 26,2022                        NJETSFLG           =        015D                                  #        TWO JET RCS BURN        FOUR JET RCS BURN
000321: 26,2022     4735               NJETSBIT           =        BIT15
000322:
000323:                                                                                                  #  BIT 14 FLAG 1 (L)
000324: 26,2022                        DIDFLAG            =        016D                                  #        INERTIAL DATA IS        PERFORM DATA DISPLAY
000325: 26,2022     4736               DIDFLBIT           =        BIT14                                 #        AVAILABLE               INITIALIZATION FUNCS
000326:
000327:                                                                                                  #  BIT 13 FLAG 1 (S)
000328: 26,2022                        ERADFLAG           =        017D                                  #        COMPUTE REARTH          USE CONSTANT REARTH
000329: 26,2022     4737               ERADFBIT           =        BIT13                                 #        FISCHER ELLIPSOID       PAD RADIUS
000330:
000331:                                                                                                  #  BIT 12 FLAG 1
000332: 26,2022                        RODFLAG            =        018D                                  #        IF IN P66, NORMAL       IF IN P66, RE-INIT-
000333: 26,2022     4740               RODFLBIT           =        BIT12                                 #        OPERATION CONTINUES.    IALIZATION IS PER-
000334:                                                                                                  #        RESTART CLEARS FLAG     FORMED AND FLAG IS
000335:
000336:                                                                                                  #  BIT 11 FLAG 1
000337:                                                                                                  #                =       019D
000338:                                                                                                  #                =       BIT11
000339:
000340:                                                                                                  #  BIT 10 FLAG 1 (L)
000341: 26,2022                        R61FLAG            =        020D                                  #        RUN R61 LEM             RUN R65 LEM
000342: 26,2022     4742               R61FLBIT           =        BIT10
000343:
000344:                                                                                                  #  BIT 9 FLAG 1
000345:                                                                                                  #                =       021D
000346:                                                                                                  #                =       BIT9
000347:
000348:                                                                                                  #  BIT 8 FLAG 1  (S)
000349: 26,2022                        VEHUPFLG           =        022D                                  #        CSM STATE VECTOR        LEM STATE VECTOR
000350: 26,2022     4744               VEHUPBIT           =        BIT8                                  #        BEING UPDATED           BEING UPDATED
000351:
000352:                                                                                                  #  BIT 7 FLAG 1  (S)
000353: 26,2022                        UPDATFLG           =        023D                                  #        UPDATING BY MARKS       UPDATING BY MARKS
000354: 26,2022     4745               UPDATBIT           =        BIT7                                  #        ALLOWED                 NOT ALLOWED
000355:
000356:                                                                                                  #  BIT 6 FLAG 1  (S)
000357: 26,2022                        NOUPFLAG           =        024D                                  #        NEITHER CSM             EITHER STATE
000358:                                                                                                  #        NOR LM STATE VECTOR     VECTOR MAY BE
000359: 26,2022     4746               NOUPFBIT           =        BIT6                                  #        MAY BE UPDATED          UPDATED
000360:


000362:                                                                                                  #  BIT 5 FLAG 1  (S)
000363: 26,2022                        TRACKFLG           =        025D                                  #        TRACKING ALLOWED        TRACKING NOT ALLOWED
000364: 26,2022     4747               TRACKBIT           =        BIT5
000365:
000366:                                                                                                  #  BIT 4 FLAG 1
000367:                                                                                                  #                =       026D
000368:                                                                                                  #                =       BIT4
000369:
000370:                                                                                                  #  BIT 3 FLAG 1  (S)
000371: 26,2022                        SLOPESW            =        027D                                  #        ITERATE WITH BIAS       ITERATE WITH REGULAR
000372:                                                                                                  #        METHOD IN ITERATOR      FALSI METHOD IN
000373: 26,2022     4751               SLOPEBIT           =        BIT3                                  #                                ITERATOR
000374:
000375:                                                                                                  #  BIT 2 FLAG 1  (S)
000376: 26,2022                        GUESSW             =        028D                                  #        NO STARTING VALUE       STARTING VALUE FOR
000377: 26,2022     4752               GUESSBIT           =        BIT2                                  #        FOR ITERATION           ITERATION EXISTS
000378:
000379:                                                                                                  #  BIT 1 FLAG 1
000380:                                                                                                  #                =       029D
000381:
000382: 26,2022     0076               FLAGWRD2           =        STATE      +2                         #  (030-044)
000383:
000384:                                                                                                  #        (SET)                   (RESET)
000385:
000386:                                                                                                  #  BIT 15 FLAG 2 (S)
000387: 26,2022                        DRIFTFLG           =        030D                                  #        T3RUPT CALLS GYRO       T3RUPT DOES NO GYRO
000388: 26,2022     4735               DRFTBIT            =        BIT15                                 #        COMPENSATION            COMPENSATION
000389:
000390:                                                                                                  #  BIT 14 FLAG 2 (S)
000391: 26,2022                        SRCHOPTN           =        031D                                  #        RADAR IN AUTOMATIC      RADAR NOT IN AUTO-
000392: 26,2022     4736               SRCHOBIT           =        BIT14                                 #        SEARCH OPTION (R24)     MATIC SEARCH OPTION
000393:
000394:                                                                                                  #  BIT 13 FLAG 2 (S)
000395: 26,2022                        ACMODFLG           =        032D                                  #        MANUAL ACQUISITION      AUTO ACQUISITION
000396: 26,2022     4737               ACMODBIT           =        BIT13                                 #        BY RENDESVOUS RADAR     BY RENDESVOUS RADAR
000397:
000398:                                                                                                  #  BIT 12 FLAG 2 (S)
000399: 26,2022                        LOSCMFLG           =        033D                                  #        LINE OF SIGHT BEING     LINE OF SIGHT NOT
000400:                                                                                                  #        COMPUTED (R21)          BEING COMPUTED
000401: 26,2022     4740               LOSCMBIT           =        BIT12
000402:


000404:                                                                                                  #        IN R29 (L): RR GYRO     IN R29 (L): RR GYRO
000405:                                                                                                  #        CMD LOOP RUNNING        CMD LOOP OFF
000406:
000407:                                                                                                  #  BIT 11 FLAG 2 (S)
000408: 26,2022                        STEERSW            =        034D                                  #        SUFFICIENT THRUST       INSUFFICIENT THRUST
000409: 26,2022     4741               STEERBIT           =        BIT11                                 #        IS PRESENT              IS PRESENT
000410:
000411:                                                                                                  #  BIT 10 FLAG 2 (S)
000412:
000413:                                                                                                  #  BIT 9 FLAG 2 (S)
000414: 26,2022                        IMPULSW            =        036D                                  #        MINIMUM IMPULSE         STEERING BURN (NO
000415:                                                                                                  #        BURN (CUTOFF TIME       CUTOFF TIME YET
000416: 26,2022     4743               IMPULBIT           =        BIT9                                  #        SPECIFIED)              AVAILABLE)
000417:
000418:                                                                                                  #  BIT 8 FLAG 2 (S)
000419: 26,2022                        XDELVFLG           =        037D                                  #        EXTERNAL DELTAV VG      LAMBERT (AIMPOINT)
000420: 26,2022     4744               XDELVBIT           =        BIT8                                  #        COMPUTATION             VG COMPUTATION
000421:
000422:                                                                                                  #  BIT 7 FLAG 2 (S)
000423: 26,2022                        ETPIFLAG           =        038D                                  #        ELEVATION ANGLE         TPI TIME SUPPLIED
000424:                                                                                                  #        SUPPLIED FOR            FOR P34,74 TO COMPUT
000425: 26,2022     4745               ETPIBIT            =        BIT7                                  #        P34,74                  ELEVATION
000426:
000427:                                                                                                  #  BIT 7 FLAG 2 (L)
000428: 26,2022  0000046               OPTNSW             =        ETPIFLAG                              #        SOI PHASE OF P38/78     SOR PHASE OF P38/78
000429: 26,2022     4745               OPTNBIT            =        BIT7
000430:
000431:                                                                                                  #  BIT 6 FLAG 2 (S)
000432: 26,2022                        FINALFLG           =        039D                                  #        LAST PASS THROUGH       INTERIM PASS THROUGH
000433:                                                                                                  #        RENDEZVOUS PROGRAM      RENDEZVOUS PROGRAM
000434: 26,2022     4746               FINALBIT           =        BIT6                                  #        COMPUTATIONS            COMPUTATIONS
000435:
000436:                                                                                                  #  BIT 5 FLAG 2 (S)
000437: 26,2022                        AVFLAG             =        040D                                  #        LEM IS ACTIVE           CSM IS ACTIVE
000438: 26,2022     4747               AVFLBIT            =        BIT5                                  #        VEHICLE                 VEHICLE
000439:
000440:                                                                                                  #  BIT 4 FLAG 2 (S)
000441: 26,2022                        PFRATFLG           =        041D                                  #        PREFERRED ATTITUDE      PREFERRED ATTITUDE
000442: 26,2022     4750               PFRATBIT           =        BIT4                                  #        COMPUTED                NOT COMPUTED
000443:
000444:                                                                                                  #  BIT 3 FLAG 2 (S)
000445:


000447: 26,2022                        CALCMAN3           =        042D                                  #        NO FINAL ROLL           FINAL ROLL IS
000448: 26,2022     4751               CALC3BIT           =        BIT3                                  #                                NECESSARY
000449:
000450:                                                                                                  #  BIT 2 FLAG 2 (S)
000451: 26,2022                        CALCMAN2           =        043D                                  #        PERFORM MANEUVER        BYPASS STARTING
000452: 26,2022     4752               CALC2BIT           =        BIT2                                  #        STARTING PROCEDURE      PROCEDURE
000453:
000454:                                                                                                  #  BIT 1 FLAG 2 (S)
000455: 26,2022                        NODOFLAG           =        044D                                  #        V37 NOT PERMITTED       V37 PERMITTED
000456: 26,2022     4753               NODOBIT            =        BIT1
000457:
000458: 26,2022     0077               FLAGWRD3           =        STATE      +3                         #  (045-059)
000459:
000460:                                                                                                  #        (SET)                   (RESET)
000461:
000462:                                                                                                  #  BIT 15 FLAG 3
000463:                                                                                                  #                =       045D
000464:
000465:                                                                                                  #  BIT 14 FLAG 3 (S)
000466: 26,2022                        GLOKFAIL           =        046D                                  #        GIMBAL LOCK HAS         NOT IN GIMBAL LOCK
000467: 26,2022     4736               GLOKFBIT           =        BIT14                                 #        OCCURRED
000468:
000469:                                                                                                  #  BIT 13 FLAG 3 *** PROTECTED FROM FRESH START ***
000470: 26,2022                        REFSMFLG           =        047D                                  #        REFSMMAT GOOD           REFSMMAT NO GOOD
000471: 26,2022     4737               REFSMBIT           =        BIT13
000472:
000473:                                                                                                  #  BIT 12 FLAG 3 (S)
000474: 26,2022                        LUNAFLAG           =        048D                                  #        LUNAR LAT-LONG          EARTH LAT-LONG
000475: 26,2022     4740               LUNABIT            =        BIT12
000476:
000477:                                                                                                  #  BIT 11 FLAG 3 (L)
000478: 26,2022                        NOR29FLG           =        049D                                  #        R29 NOT ALLOWED         R29 ALOWED (RR DES-
000479: 26,2022     4741               NR29FBIT           =        BIT11                                 #                                IGNATE, POWERED FLT)
000480:
000481:                                                                                                  #  BIT 10 FLAG 3 (S)
000482: 26,2022                        VFLAG              =        050D                                  #        LESS THAN TWO STARS     TWO STARS IN FIELD
000483: 26,2022     4742               VFLAGBIT           =        BIT10                                 #        IN FIELD OF VIEW        OF VIEW
000484:
000485:                                                                                                  #  BIT 9 FLAG 3  (S)
000486: 26,2022                        R04FLAG            =        051D                                  #        ALARM 521               ALARM 521 ALLOWED
000487:                                                                                                  #        SUPPRESSED


000489: 26,2022     4743               R04FLBIT           =        BIT9
000490:
000491:                                                                                                  #  BIT 9 FLAG 3  (L)
000492: 26,2022  0000063               READRFLG           =        R04FLAG                               #        READING RR DATA         NOT READING RR DATA
000493: 26,2022     4743               READRBIT           =        BIT9                                  #        PURSUANT TO R29         PURSUANT TO R29
000494:
000495:                                                                                                  #  BIT 8 FLAG 3  (S)
000496: 26,2022                        PRECIFLG           =        052D                                  #        NORMAL INTEGRATION      ENGAGES 4-TIME STEP
000497:                                                                                                  #        IN P00                  (P00) LOGIC IN INTE-
000498: 26,2022     4744               PRECIBIT           =        BIT8                                  #                                GRATION
000499:
000500:                                                                                                  #  BIT 7 FLAG 3  (S)
000501: 26,2022                        CULTFLAG           =        053D                                  #        STAR OCCULTED           STAR NOT OCCULTED
000502: 26,2022     4745               CULTBIT            =        BIT7
000503:
000504:                                                                                                  #  BIT 6 FLAG 3  (S)
000505: 26,2022                        ORBWFLAG           =        054D                                  #        W MATRIX VALID FOR      W MATRIX INVALID FOR
000506: 26,2022     4746               ORBWFBIT           =        BIT6                                  #        ORBITAL NAVIGATION      ORBITAL NAVIGATION
000507:
000508:                                                                                                  #  BIT 5 FLAG 3  (S)
000509: 26,2022                        STATEFLG           =        055D                                  #        PERMANENT STATE         PERMANENT STATE
000510: 26,2022     4747               STATEBIT           =        BIT5                                  #        VECTOR UPDATED          VECTOR NOT UPDATED
000511:
000512:                                                                                                  #  BIT 4 FLAG 3  (S)
000513: 26,2022                        INTYPFLG           =        056D                                  #        CONIC INTEGRATION       ENCKE INTEGRATION
000514: 26,2022     4750               INTYPBIT           =        BIT4
000515:
000516:                                                                                                  #  BIT 3 FLAG 3  (S)
000517: 26,2022                        VINTFLAG           =        057D                                  #        CSM STATE VECTOR        LEM STATE VECTOR
000518: 26,2022     4751               VINTFBIT           =        BIT3                                  #        BEING INTEGRATED        BEING INTEGRATED
000519:
000520:                                                                                                  #  BIT 2 FLAG 3 (S)
000521: 26,2022                        D6OR9FLG           =        058D                                  #        DIMENSION OF W IS 9     DIMENSION OF W IS 6
000522: 26,2022     4752               D6OR9BIT           =        BIT2                                  #        FOR INTEGRATION         FOR INTEGRATION
000523:
000524:                                                                                                  #  BIT 1 FLAG 3  (S)
000525: 26,2022                        DIM0FLAG           =        059D                                  #        W MATRIX IS TO BE       W MATRIX IS NOT TO
000526: 26,2022     4753               DIM0BIT            =        BIT1                                  #        USED                    BE USED
000527:
000528: 26,2022     0100               FLAGWRD4           =        STATE      +4                         #  (060-074)
000529:


000531:                                                                                                  #        (SET)                   (RESET)
000532:
000533:                                                                                                  #  BIT 15 FLAG 4 (S)
000534: 26,2022                        MRKIDFLG           =        060D                                  #        MARK DISPLAY IN         NO MARK DISPLAY IN
000535: 26,2022     4735               MRKIDBIT           =        BIT15                                 #        ENDIDLE                 ENDIDLE
000536:
000537:                                                                                                  #  BIT 14 FLAG 4 (S)
000538: 26,2022                        PRIODFLG           =        061D                                  #        PRIORITY DISPLAY IN     NO PRIORITY DISPLAY
000539: 26,2022     4736               PRIODBIT           =        BIT14                                 #        ENDIDLE                 IN ENDIDLE
000540:
000541:                                                                                                  #  BIT 13 FLAG 4 (S)
000542: 26,2022                        NRMIDFLG           =        062D                                  #        NORMAL DISPLAY IN       NO NORMAL DISPLAY
000543: 26,2022     4737               NRMIDBIT           =        BIT13                                 #        ENDIDLE                 IN ENDIDLE
000544:
000545:                                                                                                  #  BIT 12 FLAG 4 (S)
000546: 26,2022                        PDSPFLAG           =        063D                                  #        P20 SETS SO AS TO       LEAVE AS NORMAL DISP
000547:                                                                                                  #        TURN A NORMAL DIS-
000548: 26,2022     4740               PDSPFBIT           =        BIT12                                 #        PLAY INTO A PRIORITY
000549:                                                                                                  #        DISPLAY IN R60
000550:
000551:                                                                                                  #  BIT 11 FLAG 4 (S)
000552: 26,2022                        MWAITFLG           =        064D                                  #        HIGHER PRIORITY         NO HIGHER PRIORITY
000553:                                                                                                  #        DISPLAY OPERATING       DISPLAY OPERATING
000554: 26,2022     4741               MWAITBIT           =        BIT11                                 #        WHEN MARK DISPLAY       WHEN MARK DISPLAY
000555:                                                                                                  #        INITIATED               INITIATED
000556:
000557:                                                                                                  #  BIT 10 FLAG 4 (S)
000558: 26,2022                        NWAITFLG           =        065D                                  #        HIGHER PRIORITY         NO HIGHER PRIORITY
000559:                                                                                                  #        DISPLAY OPERATING       DISPLAY OPERATING
000560: 26,2022     4742               NWAITBIT           =        BIT10                                 #        WHEN NORMAL             WHEN NORMAL DISPLAY
000561:                                                                                                  #        DISPLAY INITIATED       INITIATED
000562:
000563:                                                                                                  #  BIT 9 FLAG 4  (S)
000564: 26,2022                        MRKNVFLG           =        066D                                  #        ASTRONAUT USING         ASTRONAUT NOT USING
000565:                                                                                                  #        KEYBOARD WHEN MARK      KEYBOARD WHEN MARK
000566: 26,2022     4743               MRKNVBIT           =        BIT9                                  #        DISPLAY INITIATED       DISPLAY INITIATED
000567:
000568:                                                                                                  #  BIT 8 FLAG 4  (S)
000569: 26,2022                        NRMNVFLG           =        067D                                  #        ASTRONAUT USING         ASTRONAUT NOT USING
000570:                                                                                                  #        KEYBOARD WHEN           KEYBOARD WHEN
000571: 26,2022     4744               NRMNVBIT           =        BIT8                                  #        NORMAL DISPLAY          NORMAL DISPLAY
000572:                                                                                                  #        INITIATED               INITIATED
000573:
000574:                                                                                                  #  BIT 7 FLAG 4  (S)
000575: 26,2022                        PRONVFLG           =        068D                                  #        ASTRONAUT USING         ASTRONAUT NOT USING
000576:


000578:                                                                                                  #        KEYBOARD WHEN           KEYBOARD WHEN
000579: 26,2022     4745               PRONVBIT           =        BIT7                                  #        PRIORITY DISPLAY        PRIORITY DISPLAY
000580:                                                                                                  #        INITIATED               INITIATED
000581:
000582:                                                                                                  #  BIT 6 FLAG 4  (S)
000583: 26,2022                        PINBRFLG           =        069D                                  #        ASTRONAUT HAS           ASTRONAUT HAS NOT
000584:                                                                                                  #        INTERFERED WITH         INTERFERED WITH
000585: 26,2022     4746               PINBRBIT           =        BIT6                                  #        EXISTING DISPLAY        EXISTING DISPLAY
000586:
000587:                                                                                                  #  BIT 5 FLAG 4  (S)
000588: 26,2022                        MRUPTFLG           =        070D                                  #        MARK DISPLAY            MARK DISPLAY NOT
000589:                                                                                                  #        INTERRUPTED BY          INTERRUPTED BY
000590: 26,2022     4747               MRUPTBIT           =        BIT5                                  #        PRIORITY DISPLAY        PRIORITY DISPLAY
000591:
000592:                                                                                                  #  BIT 4 FLAG 4  (S)
000593: 26,2022                        NRUPTFLG           =        071D                                  #        NORMAL DISPLAY          NORMAL DISPLAY NOT
000594:                                                                                                  #        INTERRUPTED BY          INTERRUPTED BY
000595: 26,2022     4750               NRUPTBIT           =        BIT4                                  #        PRIORITY OR MARK        PRIORITY OR MARK
000596:                                                                                                  #        DISPLAY                 DISPLAY
000597:
000598:                                                                                                  #  BIT 3 FLAG 4  (S)
000599: 26,2022                        MKOVFLAG           =        072D                                  #        MARK DISPLAY OVER       NO MARK DISPLAY OVER
000600: 26,2022     4751               MKOVBIT            =        BIT3                                  #        NORMAL                  NORMAL
000601:
000602:                                                                                                  #  BIT 2 FLAG 4
000603:                                                                                                  #                =       073D
000604:
000605:
000606:                                                                                                  #  BIT 1 FLAG 4  (S)
000607: 26,2022                        XDSPFLAG           =        074D                                  #        MARK DISPLAY NOT        NO SPECIAL MARK
000608: 26,2022     4753               XDSPBIT            =        BIT1                                  #        TO BE INTERRUPTED       INFORMATION
000609:
000610: 26,2022     0101               FLAGWRD5           =        STATE      +5                         #  (075-089)
000611:
000612:                                                                                                  #        (SET)                   (RESET)
000613:
000614:                                                                                                  #  BIT 15 FLAG 5 (S)
000615: 26,2022                        DSKYFLAG           =        075D                                  #        DISPLAYS SENT TO        NO DISPLAYS TO DSKY
000616: 26,2022     4735               DSKYFBIT           =        BIT15                                 #        DSKY
000617:
000618:                                                                                                  #  BIT 14 FLAG 5
000619:                                                                                                  #                =       076D
000620:                                                                                                  #                =       BIT14
000621:


000623:                                                                                                  #  BIT 13 FLAG 5 (S,L)
000624: 26,2022                        SNUFFER            =        077D                                  #        U,V JETS DISABLED       U,V JETS ENABLED
000625:                                                                                                  #        DURING DPS              DURING DPS
000626: 26,2022     4737               SNUFFBIT           =        BIT13                                 #        BURNS (V65)             BURNS (V75)
000627:
000628:                                                                                                  #  BIT 12 FLAG 5 (S)
000629: 26,2022                        NOTHROTL           =        078D                                  #        INHIBIT FULL            PERMIT FULL THROTTLE
000630: 26,2022     4740               NOTHRBIT           =        BIT12                                 #        THROTTLE
000631:
000632:                                                                                                  #  BIT 11 FLAG 5 (S,L)
000633: 26,2022                        R77FLAG            =        079D                                  #        R77 IS ON,              R77 IS NOT ON.
000634:                                                                                                  #        SUPPRESS ALL RADAR
000635:                                                                                                  #        ALARMS AND TRACKER
000636: 26,2022     4741               R77FLBIT           =        BIT11                                 #        FAILS
000637:
000638:                                                                                                  #  BIT 10 FLAG 5 (S)
000639: 26,2022                        RNGSCFLG           =        080D                                  #        SCALE CHANGE HAS        NO SCALE CHANGE HAS
000640:                                                                                                  #        OCCURRED DURING         OCCURRED DURING
000641: 26,2022     4742               RNGSCBIT           =        BIT10                                 #        RR READING              RR READING
000642:
000643:                                                                                                  #  BIT 9 FLAG 5  (S)
000644: 26,2022                        DMENFLG            =        081D                                  #        DIMENSION OF W IS 9     DIMENSION OF W IS 6
000645: 26,2022     4743               DMENFBIT           =        BIT9                                  #        FOR INCORPORATION       FOR INCORPORATION
000646:
000647:                                                                                                  #  BIT 8 FLAG 5  (S)
000648:                                                                                                  #                =       082D
000649:                                                                                                  #                =       BIT8
000650:
000651:                                                                                                  #  BIT 7 FLAG 5  (S)
000652: 26,2022                        ENGONFLG           =        083D                                  #        ENGINE TURNED ON        ENGINE TURNED OFF
000653: 26,2022     4745               ENGONBIT           =        BIT7                                  #
000654:
000655:                                                                                                  #  BIT 6 FLAG 5  (S)
000656: 26,2022                        3AXISFLG           =        084D                                  #        MANEUVER SPECIFIED      MANEUVER SPECIFIED
000657:                                                                                                  #        BY THREE AXES           BY ONE AXIS; R60
000658: 26,2022     4746               3AXISBIT           =        BIT6                                  #                                CALLS VECPOINT.
000659:
000660:                                                                                                  #  BIT 5 FLAG 5
000661:                                                                                                  #                =       085D
000662:
000663:                                                                                                  #  BIT 4 FLAG 5  (S)
000664:


000666: 26,2022                        NORRMON            =        086D                                  #        BYPASS RR GIMBAL        PERFORM
000667: 26,2022     4750               NORRMBIT           =        BIT4                                  #        MONITOR                 RR GIMBAL MONITOR
000668:
000669:                                                                                                  #  BIT 3 FLAG 5  (S)
000670: 26,2022                        SOLNSW             =        087D                                  #        LAMBERT DOES NOT        LAMBERT CONVERGES OR
000671:                                                                                                  #        CONVERGE, OR TIME-RAD   TIME-RADIUS NON
000672: 26,2022     4751               SOLNSBIT           =        BIT3                                  #        NEARLY CIRCULAR         CIRCULAR
000673:
000674:                                                                                                  #  BIT 2 FLAG 5  (S)
000675: 26,2022                        MGLVFLAG           =        088D                                  #        LOCAL VERTICAL          MIDDLE GIMBAL ANGLE
000676:                                                                                                  #        COORDINATES             COMPUTED
000677: 26,2022     4752               MGLVFBIT           =        BIT2                                  #        COMPUTED
000678:
000679:                                                                                                  #  BIT 1 FLAG 5  (S)
000680: 26,2022                        RENDWFLG           =        089D                                  #        W MATRIX VALID          W MATRIX INVALID
000681:                                                                                                  #        FOR RENDEZVOUS          FOR RENDEZVOUS
000682: 26,2022     4753               RENDWBIT           =        BIT1                                  #        NAVIGATION              NAVIGATION
000683:
000684:
000685: 26,2022     0102               FLAGWRD6           =        STATE      +6                         #  (090-104)
000686:
000687:                                                                                                  #        (SET)                   (RESET)
000688:
000689:                                                                                                  #  BIT 15 FLAG 6 (S)
000690: 26,2022                        S32.1F1            =        090D                                  #        DELTA V AT CSI TIME     DVT1 LESS THEN MAX
000691: 26,2022     4735               S32BIT1            =        BIT15                                 #        ONE EXCEEDS MAX
000692:
000693:                                                                                                  #  BIT 14 FLAG 6 (S)
000694: 26,2022                        S32.1F2            =        091D                                  #        FIRST PASS OF           REITERATION OF
000695: 26,2022     4736               S32BIT2            =        BIT14                                 #        NEWTON ITERATION        NEWTON
000696:
000697:                                                                                                  #  BIT 13 FLAG 6 (S)
000698: 26,2022                        S32.1F3A           =        092D                                  #  BIT 13 AND BIT 12 FUNCTION AS AN ORDERED
000699: 26,2022     4737               S32BIT3A           =        BIT13                                 #  PAIR (13,12) INDICATING THE POSSIBLE OC-
000700:                                                                                                  #  CURRANCE OF 2NEWTON ITERATIONS FOR S32.1
000701:                                                                                                  #  IN THE PROGRAM IN THE FOLLOWING ORDER:
000702:                                                                                                  #  BIT 12 FLAG 6                                   (0,1) (I.E. BIT 13 RESET, BIT 12 SET)
000703: 26,2022                        S32.1F3B           =        093D                                  #       = FIRST NEWTON ITERATION BEING DONE
000704: 26,2022     4740               S32BIT3B           =        BIT12                                 #  (0,0)= FIRST PASS OF SECOND NEWT.ITERAT.
000705:                                                                                                  #  (1,1)= 50 FT/SEC STAGE OF SEC. NEWT.ITER
000706:                                                                                                  #  (1,0)= REMAINDER OF SECOND NEWTON ITERA.
000707:                                                                                                  #  BIT 11 FLAG 6 (S)
000708:


000710:                                                                                                  #  BIT 10 FLAG 6 (S)
000711: 26,2022                        GMBDRVSW           =        095D                                  #        TRIMGIMB OVER           TRIMGIMB NOT OVER
000712: 26,2022     4742               GMBDRBIT           =        BIT10                                 #
000713:
000714:                                                                                                  #  BIT 9 FLAG 6
000715:                                                                                                  #                =       096D
000716:                                                                                                  #                =       BIT9
000717:
000718:                                                                                                  #  BIT 8 FLAG 6  (S)
000719: 26,2022                        MUNFLAG            =        097D                                  #        SERVICER CALLS          SERVICER CALLS
000720: 26,2022     4744               MUNFLBIT           =        BIT8                                  #        MUNRVG                  CALCRVG
000721:
000722:                                                                                                  #  BIT 7 FLAG 6  (L)
000723:
000724:
000725:                                                                                                  #  BIT 6 FLAG 6  (L)
000726: 26,2022                        REDFLAG            =        099D                                  #        LANDING SITE            LANDING SITE
000727:                                                                                                  #        REDESIGNATION           REDESIGNATION NOT
000728: 26,2022     4746               REDFLBIT           =        BIT6                                  #        PERMITTED               PERMITTED
000729:
000730:                                                                                                  #  BIT 5 FLAG 6
000731:                                                                                                  #                =       100D
000732:
000733:                                                                                                  #  BIT 4 FLAG 6
000734:                                                                                                  #                =       101D
000735:
000736:                                                                                                  #  BIT 3 FLAG 6  (S)
000737: 26,2022                        NTARGFLG           =        102D                                  #        ASTRONAUT DID           ASTRONAUT DID NOT
000738:                                                                                                  #        OVERWRITE DELTA         OVERWRITE DELTA
000739: 26,2022     4751               NTARGBIT           =        BIT3                                  #        VELOCITY AT TPI         VELOCITY
000740:                                                                                                  #        OR TPM (P34,35)
000741:
000742:                                                                                                  #  BIT 2 FLAG 6
000743: 26,2022                        AUXFLAG            =        103D                                  #        PROVIDING IDLEFLAG      SERVICER WILL SKIP
000744: 26,2022     4752               AUXFLBIT           =        BIT2                                  #        IS NOT SET, SERV-       DVMON ON ITS NEXT
000745:                                                                                                  #        ICER WILL EXERCISE      PASS EVEN IF THE
000746:                                                                                                  #        DVMON ON ITS NEXT       IDLEFLAG IS NOT SET.
000747:                                                                                                  #        PASS.                   IT WILL THEN SET
000748:                                                                                                  #                                AUXFLAG.
000749:
000750:                                                                                                  #  BIT 1 FLAG 6  (L)
000751: 26,2022                        ATTFLAG            =        104D                                  #        LEM ATTITUDE EXISTS     NO LEM ATTITUDE
000752:                                                                                                  #        IN MOON-FIXED           AVAILABLE IN MOON-
000753:


000755: 26,2022     4753               ATTFLBIT           =        BIT1                                  #        COORDINATES             FIXED COORDINATES
000756:
000757: 26,2022     0103               FLAGWRD7           =        STATE      +7                         #  (105-119)
000758:
000759:                                                                                                  #        (SET)                   (RESET)
000760:
000761:                                                                                                  #  BIT 15 FLAG 7 (S)
000762: 26,2022                        ITSWICH            =        105D                                  #        R34;TPI TIME TO BE      TPI HAS BEEN
000763: 26,2022     4735               ITSWBIT            =        BIT15                                 #        COMPUTED                COMPUTED
000764:
000765:                                                                                                  #  BIT 14 FLAG 7 (S)
000766: 26,2022                        MANUFLAG           =        106D                                  #        ATTITUDE MANEUVER       NO ATTITUDE MANEUVER
000767:                                                                                                  #        GOING DURING RR         DURING RR SEARCH
000768: 26,2022     4736               MANUFBIT           =        BIT14                                 #        SEARCH
000769:
000770:                                                                                                  #  BIT 13 FLAG 7 (S)
000771: 26,2022                        IGNFLAG            =        107D                                  #        TIG HAS ARRIVED         TIG HAS NOT ARRIVED
000772: 26,2022     4737               IGNFLBIT           =        BIT13                                 #
000773:
000774:                                                                                                  #  BIT 12 FLAG 7 (S)
000775: 26,2022                        ASTNFLAG           =        108D                                  #        ASTRONAUT HAS           ASTRONAUT HAS NOT
000776: 26,2022     4740               ASTNBIT            =        BIT12                                 #        OKAYED IGNITION         OKAYED IGNITION
000777:
000778:                                                                                                  #  BIT 11 FLAG 7 (L)
000779: 26,2022                        SWANDISP           =        109D                                  #        LANDING ANALOG          LANDING ANALOG
000780: 26,2022     4741               SWANDBIT           =        BIT11                                 #        DISPLAYS ENABLED        DISPLAYS SUPPRESSED
000781:
000782:                                                                                                  #  BIT 10 FLAG 7 (S)
000783: 26,2022                        NORMSW             =        110D                                  #        UNIT NORMAL INPUT       LAMBERT COMPUTES ITS
000784: 26,2022     4742               NORMSBIT           =        BIT10                                 #        TO LAMBERT              OWN UNIT NORMAL
000785:
000786:                                                                                                  #  BIT 9 FLAG 7  (S)
000787: 26,2022                        RVSW               =        111D                                  #        DO NOT COMPUTE          COMPUTE FINAL STATE
000788:                                                                                                  #        FINAL STATE VECTOR      VECTOR IN TIME-THETA
000789: 26,2022     4743               RVSWBIT            =        BIT9                                  #        IN TIME-THETA
000790:
000791:                                                                                                  #  BIT 8 FLAG 7  (S)
000792: 26,2022                        V67FLAG            =        112D                                  #        ASTRONAUT OVERWRITE     ASTRONAUT DOES NOT
000793:                                                                                                  #        W-MATRIX INITIAL        OVERWRITE W-MATRIX
000794: 26,2022     4744               V67FLBIT           =        BIT8                                  #        VALUES                  INITIAL VALUES
000795:


000797:                                                                                                  #  BIT 7 FLAG 7  (S)
000798: 26,2022                        IDLEFLAG           =        113D                                  #        NO DV MONITOR           CONNECT DV MONITOR
000799: 26,2022     4745               IDLEFBIT           =        BIT7                                  #
000800:
000801:                                                                                                  #  BIT 6 FLAG 7  (S)
000802: 26,2022                        V37FLAG            =        114D                                  #        AVERAGEG (SERVICER)     AVERAGEG (SERVICER)
000803: 26,2022     4746               V37FLBIT           =        BIT6                                  #        RUNNING                 OFF
000804:
000805:                                                                                                  #  BIT 5 FLAG 7  (S)
000806: 26,2022                        AVEGFLAG           =        115D                                  #        AVERAGEG (SERVICER)     AVERAGEG (SERVICER)
000807: 26,2022     4747               AVEGFBIT           =        BIT5                                  #        DESIRED                 NOT DESIRED
000808:
000809:                                                                                                  #  BIT 4 FLAG 7  (S)
000810: 26,2022                        UPLOCKFL           =        116D                                  #        K-KBAR-K FAIL           NO K-KBAR-K FAIL
000811: 26,2022     4750               UPLOCBIT           =        BIT4                                  #
000812:
000813:                                                                                                  #  BIT 3 FLAG 7  (S)
000814: 26,2022                        VERIFLAG           =        117D                                  #  CHANGED WHEN V33E OCCURS AT END OF P27
000815: 26,2022     4751               VERIFBIT           =        BIT3                                  #
000816:
000817:                                                                                                  #  BIT 2 FLAG 7  (L,C)
000818: 26,2022                        V82EMFLG           =        118D                                  #        MOON VICINITY           EARTH VICINITY
000819: 26,2022     4752               V82EMBIT           =        BIT2                                  #
000820:
000821:                                                                                                  #  BIT 1 FLAG 7  (S)
000822: 26,2022                        TFFSW              =        119D                                  #        CALCULATE TPERIGEE      CALCULATE TFF
000823: 26,2022     4753               TFFSWBIT           =        BIT1                                  #
000824:
000825:
000826: 26,2022     0104               FLAGWRD8           =        STATE      +8D                        #  (120-134)
000827:
000828:                                                                                                  #        (SET)                   (RESET)
000829:
000830:                                                                                                  #  BIT 15 FLAG 8 (S)
000831: 26,2022                        RPQFLAG            =        120D                                  #        RPQ NOT COMPUTED        RPQ COMPUTED
000832:                                                                                                  #        (RPQ = VECTOR BE-
000833: 26,2022     4735               RPQFLBIT           =        BIT15                                 #        TWEEN SECONDARY BODY
000834:                                                                                                  #        AND PRIMARY BODY
000835:
000836:                                                                                                  #  BIT 14 FLAG 8
000837:                                                                                                  #                =       121D
000838:                                                                                                  #                =       BIT14
000839:


000841:                                                                                                  #  BIT 13 FLAG 8 (S)
000842: 26,2022                        NEWIFLG            =        122D                                  #        FIRST PASS THROUGH      SUCCEEDING ITERATION
000843: 26,2022     4737               NEWIBIT            =        BIT13                                 #        INTEGRATION             OF INTEGRATION
000844:
000845:                                                                                                  #  BIT 12 FLAG 8 *** PROTECTED FROM FRESH START ***
000846: 26,2022                        CMOONFLG           =        123D                                  #        PERMANENT CSM STATE     PERMANENT CSM STATE
000847: 26,2022     4740               CMOONBIT           =        BIT12                                 #        IN LUNAR SPHERE         IN EARTH SPHERE
000848:
000849:                                                                                                  #  BIT 11 FLAG 8 *** PROTECTED FROM FRESH START ***
000850: 26,2022                        LMOONFLG           =        124D                                  #        PERMANENT LM STATE      PERMANENT LM STATE
000851: 26,2022     4741               LMOONBIT           =        BIT11                                 #        IN LUNAR SPHERE         IN EARTH SPHERE
000852:
000853:                                                                                                  #  BIT 10 FLAG 8 (L)
000854: 26,2022                        FLUNDISP           =        125D                                  #        CURRENT GUIDANCE        CURRENT GUIDANCE
000855: 26,2022     4742               FLUNDBIT           =        BIT10                                 #        DISPLAYS INHIBITED      DISPLAYS PERMITTED
000856:
000857:                                                                                                  #  BIT 9 FLAG 8  (L)
000858: 26,2022                        P39/79SW           =        126D                                  #        P39/79 OPERATING        P38/P78 OPERATING
000859: 26,2022     4743               P39SWBIT           =        BIT9                                  #
000860:
000861:                                                                                                  #  BIT 8 FLAG 8  *** PROTECTED FROM FRESH START ***
000862: 26,2022                        SURFFLAG           =        127D                                  #        LM ON LUNAR SURFACE     LM NOT ON LUNAR
000863: 26,2022     4744               SURFFBIT           =        BIT8                                  #                                SURFACE
000864:
000865:                                                                                                  #  BIT 7 FLAG 8  (S)
000866: 26,2022                        INFINFLG           =        128D                                  #        NO CONIC SOLUTION       CONIC SOLUTION
000867:                                                                                                  #        (CLOSURE THROUGH        EXISTS
000868: 26,2022     4745               INFINBIT           =        BIT7                                  #        INFINITY REQUIRED)
000869:
000870:                                                                                                  #  BIT 6 FLAG 8  (S)
000871: 26,2022                        ORDERSW            =        129D                                  #        ITERATOR USES 2ND       ITERATOR USES 1ST
000872: 26,2022     4746               ORDERBIT           =        BIT6                                  #        ORDER MINIMUM MODE      ORDER STANDARD MODE
000873:
000874:                                                                                                  #  BIT 5 FLAG 8  (S)
000875: 26,2022                        APSESW             =        130D                                  #        RDESIRED OUTSIDE        RDESIRED INSIDE
000876:                                                                                                  #        PERICENTER-APOCENTER    PERICENTER-APOCENTER
000877: 26,2022     4747               APSESBIT           =        BIT5                                  #        RANGE IN TIME-RADI      RANGE IN TIME-RADIUS
000878:
000879:                                                                                                  #  BIT 4 FLAG 8  (S)
000880: 26,2022                        COGAFLAG           =        131D                                  #        NO CONIC SOLUTION -     CONIC SOLUTION
000881:                                                                                                  #        TOO CLOSE TO RECTI-     EXISTS(COGA DOES NOT
000882:


000884: 26,2022     4750               COGAFBIT           =        BIT4                                  #        LINEAR (COGA OVRFLWS)   OVERFLOW)
000885:
000886:                                                                                                  #  BIT 3 FLAG 8
000887:                                                                                                  #                =       132D
000888:
000889:                                                                                                  #  BIT 2 FLAG 8  (L)
000890: 26,2022                        INITALGN           =        133D                                  #        INITIAL PASS THRU       SECOND PASS THRU P57
000891: 26,2022     4752               INITABIT           =        BIT2                                  #        P57                     (CHECK RESET-MILLARD)
000892:
000893:                                                                                                  #  BIT 1 FLAG 8  (S)
000894: 26,2022                        360SW              =        134D                                  #        TRANSFER ANGLE NEAR     TRANSFER ANGLE NOT
000895: 26,2022     4753               360SWBIT           =        BIT1                                  #        360 DEGREES             NEAR 360 DEGREES
000896:
000897:
000898: 26,2022     0105               FLAGWRD9           =        STATE      +9D                        #  (135-149)
000899:
000900:                                                                                                  #        (SET)                   (RESET)
000901:
000902:                                                                                                  #  BIT 15 FLAG 9
000903:                                                                                                  #                =       135D
000904:                                                                                                  #                =       BIT15
000905:
000906:                                                                                                  #  BIT 14 FLAG 9 (L)
000907: 26,2022                        FLVR               =        136D                                  #        VERTICAL RISE           NON-VERTICAL RISE
000908: 26,2022     4736               FLVRBIT            =        BIT14                                 #        (ASCENT GUIDANCE)
000909:
000910:                                                                                                  #  BIT 13 FLAG 9
000911:                                                                                                  #                =       137D
000912:
000913:                                                                                                  #  BIT 12 FLAG 9 (L)
000914: 26,2022                        FLPC               =        138D                                  #        NO POSITION CONTROL     POSITION CONTROL
000915: 26,2022     4740               FLPCBIT            =        BIT12                                 #        (ASCENT GUIDANCE)
000916:
000917:                                                                                                  #  BIT 11 FLAG 9 (L)
000918: 26,2022                        FLPI               =        139D                                  #        PRE-IGNITION PHASE      REGULAR GUIDANCE
000919: 26,2022     4741               FLPIBIT            =        BIT11                                 #        (ASCENT GUIDANCE)
000920:
000921:                                                                                                  #  BIT 10 FLAG 9 (L)
000922: 26,2022                        FLRCS              =        140D                                  #        RCS INJECTION MODE      MAIN ENGINE MODE
000923: 26,2022     4742               FLRCSBIT           =        BIT10                                 #        (ASCENT GUIDANCE)
000924:
000925:                                                                                                  #  BIT 9 FLAG 9  (L)
000926:


000928: 26,2022                        LETABORT           =        141D                                  #        ABORT PROGRAMS          ABORT PROGRAMS
000929: 26,2022     4743               LETABBIT           =        BIT9                                  #        ARE ENABLED             ARE NOT ENABLED
000930:
000931:                                                                                                  #  BIT 8 FLAG 9  (L)
000932: 26,2022                        FLAP               =        142D                                  #        APS CONTINUED ABORT     APS ABORT IS NOT A
000933:                                                                                                  #        AFTER DPS STAGING       CONTINUATION
000934: 26,2022     4744               FLAPBIT            =        BIT8                                  #        (ASCENT GUIDANCE)
000935:
000936:                                                                                                  #  BIT 7 FLAG 9  (L)
000937:                                                                                                  #                =       143D
000938:
000939:
000940:                                                                                                  #  BIT 6 FLAG 9  (L)
000941: 26,2022                        ROTFLAG            =        144D                                  #        P70 AND P71 WILL        P70 AND P71 WILL NOT
000942: 26,2022     4746               ROTFLBIT           =        BIT6                                  #        FORCE VEHICLE           FORCE VEHICLE
000943:                                                                                                  #        ROTATION IN THE         ROTATION IN THE
000944:                                                                                                  #        PREFERRED DIRECTION.    PREFERRED DIRECTION
000945:
000946:                                                                                                  #  BIT 5 FLAG 9  (S)
000947: 26,2022                        QUITFLAG           =        145D                                  #        DISCONTINUE INTEGR.     CONTINUE INTEGRATION
000948: 26,2022     4747               QUITBIT            =        BIT5                                  #
000949:
000950:                                                                                                  #  BIT 4 FLAG 9
000951:                                                                                                  #                =       146D
000952:                                                                                                  #                =       BIT4
000953:
000954:                                                                                                  #  BIT 3 FLAG 9  (L)
000955: 26,2022                        MID1FLAG           =        147D                                  #        INTEGRATE TO TDEC       INTEGRATE TO THE
000956: 26,2022     4751               MID1FBIT           =        BIT3                                  #                                THEN-PRESENT TIME
000957:
000958:                                                                                                  #  BIT 2 FLAG 9  (L)
000959: 26,2022                        MIDAVFLG           =        148D                                  #        INTEGRATION ENTERED     INTEGRATION WAS
000960:                                                                                                  #        FROM ONE OF MIDTOAV     NOT ENTERED VIA
000961: 26,2022     4752               MIDAVBIT           =        BIT2                                  #        PORTALS                 MIDTOAV
000962:
000963:                                                                                                  #  BIT 1 FLAG 9  (S)
000964: 26,2022                        AVEMIDSW           =        149D                                  #        AVETOMID CALLING        NO AVETOMID W INTEGR
000965:                                                                                                  #        FOR W.MATRIX INTEGR     ALLOW SET UP RM,VN.
000966: 26,2022     4753               AVEMDBIT           =        BIT1                                  #        DONT WRITE OVER RN,     PIPTIME
000967:                                                                                                  #        VN,PIPTIME
000968:
000969:
000970: 26,2022     0106               RASFLAG            EQUALS   FLGWRD10                              #  WAS ONLY AN INSTALL-ERASTALL FLAG
000971:


000973: 26,2022     0106               FLGWRD10           =        STATE      +10D                       #  (150-164)
000974:
000975:                                                                                                  #        (SET)                   (RESET)
000976:
000977:                                                                                                  #  BIT 15 FLAG 10
000978:                                                                                                  #                =       150D
000979:
000980:                                                                                                  #  BIT 14 FLAG 10 (L,C)
000981: 26,2022                        INTFLAG            =        151D                                  #        INTEGRATION IN          INTEGRATION NOT IN
000982: 26,2022     4736               INTFLBIT           =        BIT14                                 #        PROGRESS                PROGRESS
000983:
000984:                                                                                                  #  BIT 13 FLAG 10 (S,L)
000985: 26,2022                        APSFLAG            =        152D                                  #        ASCENT STAGE            DESCENT STAGE
000986: 26,2022     4737               APSFLBIT           =        BIT13                                 #         *** PROTECTED FROM FRESH START ***
000987:
000988:                                                                                                  #  BIT 12 FLAG 10
000989:                                                                                                  #                =       153D
000990:
000991:                                                                                                  #  BIT 11 FLAG 10
000992:                                                                                                  #                =       154D
000993:
000994:                                                                                                  #  BIT 10 FLAG 10
000995:                                                                                                  #                =       155D
000996:
000997:                                                                                                  #  BIT 9 FLAG 10
000998:                                                                                                  #                =       156D
000999:
001000:                                                                                                  #  BIT 8 FLAG 10
001001:                                                                                                  #                =       157D
001002:
001003:                                                                                                  #  BIT 7 FLAG 10 (L,C)
001004: 26,2022                        REINTFLG           =        158D                                  #        INTEGRATION ROUTINE     INTEGRATION ROUTINE
001005: 26,2022     4745               REINTBIT           =        BIT7                                  #        TO BE RESTARTED         NOT TO BE RESTARTED
001006:
001007:                                                                                                  #  BIT 6 FLAG 10
001008:                                                                                                  #                =       159D
001009:
001010:                                                                                                  #  BIT 5 FLAG 10
001011:                                                                                                  #                =       160D
001012:


001014:                                                                                                  #  BIT 4 FLAG 10
001015:                                                                                                  #                =       161D
001016:
001017:                                                                                                  #  BIT 3 FLAG 10
001018:                                                                                                  #                =       162D
001019:
001020:                                                                                                  #  BIT 2 FLAG 10
001021:                                                                                                  #                =       163D
001022:
001023:                                                                                                  #  BIT 1 FLAG 10
001024:                                                                                                  #                =       164D
001025:
001026:
001027:
001028: 26,2022     0107               FLGWRD11           =        STATE      +11D                       #  (165-179)
001029:
001030:                                                                                                  #        (SET)                   (RESET)
001031:
001032:                                                                                                  #  BIT 15 FLAG 11 (L)(R12)
001033: 26,2022                        LRBYPASS           =        165D                                  #        BYPASS ALL LANDING      DO NOT BYPASS LR
001034: 26,2022     4735               LRBYBIT            =        BIT15                                 #        RADAR UPDATES           UPDATES
001035:
001036:                                                                                                  #  BIT 14 FLAG 11
001037:                                                                                                  #                =       166D
001038:                                                                                                  #                =       BIT14
001039:
001040:                                                                                                  #                =       BIT 13 FLAG 11
001041:                                                                                                  #                =       167D
001042:                                                                                                  #                =       BIT13
001043:
001044:                                                                                                  #  BIT 12 FLAG 11 (L)(R12)
001045: 26,2022                        VXINH              =        168D                                  #        IF Z VELOCITY DATA      UPDATE X AXIS
001046:                                                                                                  #        UNREASONABLE,           VELOCITY
001047: 26,2022     4740               VXINHBIT           =        BIT12                                 #        BYPASS X VELOCITY
001048:                                                                                                  #        UPDATE ON NEXT PASS
001049:
001050:                                                                                                  #  BIT 11 FLAG 11 (L)(R12)
001051: 26,2022                        PSTHIGAT           =        169D                                  #        PAST HIGATE             PREHIGATE
001052: 26,2022     4741               PSTHIBIT           =        BIT11                                 #
001053:
001054:                                                                                                  #  BIT 10 FLAG 11 (L)(R12)
001055:


001057: 26,2022                        NOLRREAD           =        170D                                  #        LANDING RADAR           LR NOT REPOSITIONING
001058:                                                                                                  #        REPOSITIONING;
001059: 26,2022     4742               NOLRRBIT           =        BIT10                                 #        BYPASS UPDATE
001060:
001061:                                                                                                  #  BIT 9 FLAG 11 (L)(R12)
001062: 26,2022                        XORFLG             =        171D                                  #        BELOW LIMIT             ABOVE LIMIT DO
001063:                                                                                                  #        INHIBIT X AXIS          NOT INHIBIT
001064: 26,2022     4743               XORFLBIT           =        BIT9                                  #        OVERRIDE
001065:
001066:                                                                                                  #  BIT 8 FLAG 11
001067: 26,2022                        LRINH              =        172D                                  #        LANDING RADAR UP-       LR UPDATES INHIBITED
001068: 26,2022     4744               LRINHBIT           =        BIT8                                  #        DATES PERMITTED         BY ASTRONAUT
001069:                                                                                                  #        BY ASTRONAUT
001070:
001071:                                                                                                  #  BIT 7 FLAG 11 (L)(R12)
001072: 26,2022                        VELDATA            =        173D                                  #        LR VELOCITY             LR VELOCITY MEASURE
001073: 26,2022     4745               VELDABIT           =        BIT7                                  #        MEASUREMENT MADE        NOT MADE
001074:
001075:                                                                                                  #  BIT 6 FLAG 11 (L)(R12)
001076: 26,2022                        READLR             =        174D                                  #        OK TO READ LR           DO NOT READ LR RANGE
001077: 26,2022     4746               READLBIT           =        BIT6                                  #        RANGE DATA              DATA
001078:
001079:                                                                                                  #  BIT 5 FLAG 11 (L)(R12)
001080: 26,2022                        READVEL            =        175D                                  #        OK TO READ LR           DO NOT READ LR
001081: 26,2022     4747               READVBIT           =        BIT5                                  #        VELOCITY DATA           VELOCITY DATA
001082:
001083:                                                                                                  #  BIT 4 FLAG 11 (L)(R12)
001084: 26,2022                        RNGEDATA           =        176D                                  #        LR ALTITUDE             LR ALTITUDE MEASURE
001085: 26,2022     4750               RNGEDBIT           =        BIT4                                  #        MEASUREMENT MADE        NOT MADE
001086:
001087:                                                                                                  #  BIT 3 FLAG 11
001088: 26,2022                        SCALBAD            =        177D                                  #        LR LOW SCALE DIS-       LR SCALE DISCRETE
001089: 26,2022     4751               SCABBIT            =        BIT3                                  #        CRETE NOT PRESENT       APPEARS OK
001090:                                                                                                  #        WHEN IT SHOULD BE
001091:
001092:                                                                                                  #  BIT 2 FLAG 11 (L)(R12)
001093: 26,2022                        VFLSHFLG           =        178D                                  #        LR VELOCITY FAIL        LR VEL FAIL LAMP
001094:                                                                                                  #        LAMP SHOULD BE          SHOULDN'T FLASH
001095: 26,2022     4752               VFLSHBIT           =        BIT2                                  #        FLASHING
001096:
001097:                                                                                                  #  BIT 1 FLAG 11 (L)(R12)


001099: 26,2022                        HFLSHFLG           =        179D                                  #        LR ALTITUDE FAIL        LR ALTITUDE FAIL
001100: 26,2022     4753               HFLSHBIT           =        BIT1                                  #        LAMP SHOULD BE          LAMP SHOULD NOT BE
001101:                                                                                                  #        FLASHING                FLASHING
001102:
001103: 26,2022     0110               RADMODES           EQUALS   FLGWRD12                              #  RADAR FLAG WORD
001104:
001105: 26,2022     0110               FLGWRD12           =        STATE      +12D                       #  (180-194)             WAS RADMODES
001106:
001107:                                                                                                  #        (SET)                   (RESET)
001108:
001109:                                                                                                  #  BIT 15 FLAG 12
001110: 26,2022                        CDESFLAG           =        180D                                  #        CONTINUOUS DESIG-       LGC CHECKS FOR LOCK-
001111: 26,2022     4735               CDESBIT            =        BIT15                                 #        NATE, LGC COMMANDS      ON WHEN ANTENNA
001112:                                                                                                  #        RR REGARDLESS OF        BEING DESIGNATED
001113:                                                                                                  #        LOCK-ON
001114:
001115:                                                                                                  #  BIT 14 FLAG 12
001116: 26,2022                        REMODFLG           =        181D                                  #        CHANGE IN ANTENNA       NO REMODE REQUESTED
001117: 26,2022     4736               REMODBIT           =        BIT14                                 #        MODE BEEN REQUESTED     OR OCCURRING
001118:                                                                                                  #        I.E., REMODE
001119:
001120:                                                                                                  #  BIT 13 FLAG 12
001121: 26,2022                        RCDU0FLG           =        182D                                  #        RR CDU'S BEING          RR CDU'S NOT BEING
001122: 26,2022     4737               RCDU0BIT           =        BIT13                                 #        ZEROED                  ZEROED
001123:
001124:                                                                                                  #  BIT 12 FLAG 12
001125: 26,2022                        ANTENFLG           =        183D                                  #        RR ANTENNA MODE IS      RR ANTENNA IN MODE 1
001126: 26,2022     4740               ANTENBIT           =        BIT12                                 #        MODE 2
001127:
001128:                                                                                                  #  BIT 11 FLAG 12
001129: 26,2022                        REPOSMON           =        184D                                  #        REPOSITION MONITOR.     NO REPOSITION TAKING
001130: 26,2022     4741               REPOSBIT           =        BIT11                                 #        RR REPOSITION IS        PLACE
001131:                                                                                                  #        TAKING PLACE
001132:
001133:                                                                                                  #  BIT 10 FLAG 12
001134: 26,2022                        DESIGFLG           =        185D                                  #        RR DESIGNATE            RR DESIGNATE NOT
001135: 26,2022     4742               DESIGBIT           =        BIT10                                 #        REQUESTED OR IN         REQUESTED OR IN
001136:                                                                                                  #        PROGRESS                PROGRESS
001137:
001138:                                                                                                  #  BIT 9 FLAG 12
001139: 26,2022                        ALTSCALE           =        186D                                  #        LR ALTITUDE READING     LR ALTITUDE READING
001140: 26,2022     4743               ALTSCBIT           =        BIT9                                  #        IS ON HIGH SCALE        IS ON LOW SCALE
001141:


001143:                                                                                                  #  BIT 8 FLAG 12
001144: 26,2022                        LRVELFLG           =        187D                                  #        LR VELOCITY DATA        NO LR VELOCITY DATA
001145: 26,2022     4744               LRVELBIT           =        BIT8                                  #        FAIL                    FAIL
001146:
001147:                                                                                                  #  BIT 7 FLAG 12
001148: 26,2022                        RCDUFAIL           =        188D                                  #        RR CDU FAIL HAS         RR CDU FAIL OCCURRED
001149: 26,2022     4745               RCDUFBIT           =        BIT7                                  #        NOT OCCURRED
001150:
001151:                                                                                                  #  BIT 6 FLAG 12
001152: 26,2022                        LRPOSFLG           =        189D                                  #        LANDING RADAR           LR POSITION 1
001153: 26,2022     4746               LRPOSBIT           =        BIT6                                  #        POSITION 2
001154:
001155:                                                                                                  #  BIT 5 FLAG 12
001156: 26,2022                        LRALTFLG           =        190D                                  #        LR ALTITUDE DATA        NO LR ALTITUDE DATA
001157: 26,2022     4747               LRALTBIT           =        BIT5                                  #        FAIL.  COULD NOT BE     FAIL
001158:                                                                                                  #        READ SUCCESSFULLY.
001159:
001160:                                                                                                  #  BIT 4 FLAG 12
001161: 26,2022                        RRDATAFL           =        191D                                  #        RR DATA FAIL.           NO RR DATA FAIL.
001162: 26,2022     4750               RRDATABT           =        BIT4                                  #        DATA COULD NOT BE
001163:                                                                                                  #        READ SUCCESSFULLY
001164:
001165:                                                                                                  #  BIT 3 FLAG 12
001166: 26,2022                        RRRSFLAG           =        192D                                  #        RR RANGE READING        RR RANGE READING ON
001167: 26,2022     4751               RRRSBIT            =        BIT3                                  #        ON THE HIGH SCALE       THE LOW SCALE
001168:
001169:                                                                                                  #  BIT 2 FLAG 12
001170: 26,2022                        AUTOMODE           =        193D                                  #        RR NOT IN AUTO MODE.    RR IN AUTO MODE
001171: 26,2022     4752               AUTOMBIT           =        BIT2                                  #        AUTO MODE DISCRETE
001172:                                                                                                  #        IS NOT PRESENT
001173:
001174:                                                                                                  #  BIT 1 FLAG 12
001175: 26,2022                        TURNONFL           =        194D                                  #        RR TURN-ON SEQUENCE     NO RR TURN-ON
001176: 26,2022     4753               TURNONBT           =        BIT1                                  #        IN PROGRESS.  (ZERO     SEQUENCE IN PROGRESS
001177:                                                                                                  #        CDU'S, FIX ANTENNA
001178:                                                                                                  #        MODE)
001179:
001180: 26,2022     0111               DAPBOOLS           EQUALS   FLGWRD13                              #  DIGITAL AUTOPILOT FLAGWORD
001181:


001183: 26,2022     0111               FLGWRD13           =        STATE      +13D                       #  (195-209)     WAS DAPBOOLS
001184:
001185:                                                                                                  #        (SET)                   (RESET)
001186:
001187:                                                                                                  #  BIT 15 FLAG 13
001188: 26,2022                        PULSEFLG           =        195D                                  #        MINIMUM IMPULSE         NOT IN MINIMUM
001189: 26,2022     4735               PULSES             =        BIT15                                 #        COMMAND MODE IN         IMPULSE COMMAND MODE
001190:                                                                                                  #        "ATT HOLD" (V76)        (V77)
001191:
001192:                                                                                                  #  BIT 14 FLAG 13
001193: 26,2022                        USEQRFLG           =        196D                                  #        GIMBAL UNUSABLE.        TRIM GIMBAL MAY BE
001194: 26,2022     4736               USEQRJTS           =        BIT14                                 #        USE JETS ONLY.          USED.
001195:
001196:                                                                                                  #  BIT 13 FLAG 13
001197: 26,2022                        CSMDKFLG           =        197D                                  #        CSM DOCKED.  USE        CSM NOT DOCKED TO LM
001198: 26,2022     4737               CSMDOCKD           =        BIT13                                 #        BACKUP DAP
001199:
001200:                                                                                                  #  BIT 12 FLAG 13
001201: 26,2022                        OURRCFLG           =        198D                                  #        CURRENT DAP PASS        CURRENT DAP PASS IS
001202: 26,2022     4740               OURRCBIT           =        BIT12                                 #        IS RATE COMMAND         NOT RATE COMMAND
001203:
001204:                                                                                                  #  BIT 11 FLAG 13
001205: 26,2022                        ACC4-2FL           =        199D                                  #        4 JET X-AXIS TRANS-     2 JET X-AXIS TRANS-
001206: 26,2022     4741               ACC4OR2X           =        BIT11                                 #        LATION REQUESTED        LATION REQUESTED
001207:
001208:                                                                                                  #  BIT 10 FLAG 13
001209: 26,2022                        AORBTFLG           =        200D                                  #        B SYSTEM FOR X-         A SYSTEM FOR X-
001210: 26,2022     4742               AORBTRAN           =        BIT10                                 #        TRANSLATION             TRANSLATION PREFER'D
001211:
001212:                                                                                                  #  BIT 9 FLAG 13
001213: 26,2022                        XOVINFLG           =        201D                                  #        X-AXIS OVERRIDE         X-AXIS OVERRIDE OKAY
001214: 26,2022     4743               XOVINHIB           =        BIT9                                  #        LOCKED OUT
001215:
001216:                                                                                                  #  BIT 8 FLAG 13
001217: 26,2022                        DRIFTDFL           =        202D                                  #        ASSUME 0 OFFSET         USE OFFSET ACCELERA-
001218: 26,2022     4744               DRIFTBIT           =        BIT8                                  #        DRIFTING FLIGHT.        TION ESTIMATE
001219:
001220:                                                                                                  #  BIT 7 FLAG 13
001221: 26,2022                        RHCSCFLG           =        203D                                  #        NORMAL RHC SCALING      FINE RHC SCALING
001222: 26,2022     4745               RHCSCALE           =        BIT7                                  #        REQUESTED               REQUESTED
001223:


001225:                                                                                                  #  BIT 6 FLAG 13
001226: 26,2022                        ULLAGFLG           =        204D                                  #        ULLAGE REQUEST BY       NO INTERNAL ULLAGE
001227: 26,2022     4746               ULLAGER            =        BIT6                                  #        MISSION PROGRAM         REQUEST
001228:
001229:                                                                                                  #  BIT 5 FLAG 13
001230: 26,2022                        AORBSFLG           =        205D                                  #        P-AXIS COUPLES 7.15     P-AXIS COUPLES 4.12
001231: 26,2022     4747               AORBSYST           =        BIT5                                  #        AND 8.16 PREFERRED      AND 3.11 PREFERRED
001232:
001233:                                                                                                  #  BIT 4 FLAG 13
001234: 26,2022                        DBSELFLG           =        206D                                  #        MAX DB SELECTED         MIN DB SELECTED BY
001235: 26,2022     4750               DBSELECT           =        BIT4                                  #        BY CREW (5 DEG)         CREW (0.3 DEG)
001236:
001237:                                                                                                  #  BIT 3 FLAG 13
001238: 26,2022                        ACCOKFLG           =        207D                                  #        CONTROL AUTHORITY       RESTART OR FRESH ST.
001239: 26,2022     4751               ACCSOKAY           =        BIT3                                  #        VALUES FROM 1/ACCS      SINCE LAST 1/ACCS;
001240:                                                                                                  #        USABLE                  OUTPUTS SUSPECT.
001241:
001242:                                                                                                  #  BIT 2 FLAG 13
001243: 26,2022                        AUTR2FLG           =        208D                                  #  THESE FLAGS ARE USED TOGETHER TO INDICATE
001244: 26,2022     4752               AUTRATE2           =        BIT2                                  #  ASTRONAUT-CHOSEN KALCMANU MANEUVER RATES
001245:                                                                                                  #  (0,0)=(BIT2,BIT1)=    0.2 DEG/SEC
001246:                                                                                                  #  (0,1)=                0.5 DEG/SEC
001247:                                                                                                  #  BIT 1 FLAG 13
001248: 26,2022                        AUTR1FLG           =        209D                                  #  (1,0)=                2.0 DEG/SEC
001249: 26,2022     4753               AUTRATE1           =        BIT1                                  #  (1,1)=               10.0 DEG/SEC
001250:


001253:

End of include-file FLAGWORD_ASSIGNMENTS.agc.  Parent file is MAIN.agc


